{
    "contractName": "MoonV1Gator",
    "abi": [
        {
            "inputs": [
                {
                    "internalType": "address",
                    "name": "_marketorContractAddress",
                    "type": "address"
                },
                {
                    "internalType": "address",
                    "name": "_marketCreator",
                    "type": "address"
                }
            ],
            "stateMutability": "nonpayable",
            "type": "constructor"
        },
        {
            "inputs": [
                {
                    "components": [
                        {
                            "internalType": "address",
                            "name": "market",
                            "type": "address"
                        },
                        {
                            "internalType": "address",
                            "name": "gateAddress",
                            "type": "address"
                        },
                        {
                            "internalType": "uint160",
                            "name": "authority",
                            "type": "uint160"
                        },
                        {
                            "internalType": "bytes32",
                            "name": "name",
                            "type": "bytes32"
                        },
                        {
                            "internalType": "bytes32",
                            "name": "website",
                            "type": "bytes32"
                        },
                        {
                            "internalType": "bytes32[10]",
                            "name": "webserverip",
                            "type": "bytes32[10]"
                        },
                        {
                            "internalType": "uint32",
                            "name": "createtimestamp",
                            "type": "uint32"
                        },
                        {
                            "internalType": "bool",
                            "name": "marketunlock",
                            "type": "bool"
                        },
                        {
                            "internalType": "bool",
                            "name": "unlock",
                            "type": "bool"
                        },
                        {
                            "internalType": "bool",
                            "name": "isUsed",
                            "type": "bool"
                        }
                    ],
                    "internalType": "struct LGate.Info",
                    "name": "_gator",
                    "type": "tuple"
                }
            ],
            "name": "addGater",
            "outputs": [],
            "stateMutability": "nonpayable",
            "type": "function"
        },
        {
            "inputs": [
                {
                    "internalType": "address",
                    "name": "_gator",
                    "type": "address"
                }
            ],
            "name": "delGatebyMarketor",
            "outputs": [],
            "stateMutability": "nonpayable",
            "type": "function"
        },
        {
            "inputs": [
                {
                    "internalType": "address",
                    "name": "",
                    "type": "address"
                }
            ],
            "name": "gateList",
            "outputs": [
                {
                    "internalType": "address",
                    "name": "market",
                    "type": "address"
                },
                {
                    "internalType": "address",
                    "name": "gateAddress",
                    "type": "address"
                },
                {
                    "internalType": "uint160",
                    "name": "authority",
                    "type": "uint160"
                },
                {
                    "internalType": "bytes32",
                    "name": "name",
                    "type": "bytes32"
                },
                {
                    "internalType": "bytes32",
                    "name": "website",
                    "type": "bytes32"
                },
                {
                    "internalType": "uint32",
                    "name": "createtimestamp",
                    "type": "uint32"
                },
                {
                    "internalType": "bool",
                    "name": "marketunlock",
                    "type": "bool"
                },
                {
                    "internalType": "bool",
                    "name": "unlock",
                    "type": "bool"
                },
                {
                    "internalType": "bool",
                    "name": "isUsed",
                    "type": "bool"
                }
            ],
            "stateMutability": "view",
            "type": "function"
        },
        {
            "inputs": [],
            "name": "isValidGator",
            "outputs": [
                {
                    "internalType": "bool",
                    "name": "",
                    "type": "bool"
                }
            ],
            "stateMutability": "view",
            "type": "function"
        },
        {
            "inputs": [],
            "name": "lockGatebyGater",
            "outputs": [],
            "stateMutability": "nonpayable",
            "type": "function"
        },
        {
            "inputs": [
                {
                    "internalType": "address",
                    "name": "_gatoraddress",
                    "type": "address"
                }
            ],
            "name": "lockGatebyMarketor",
            "outputs": [],
            "stateMutability": "nonpayable",
            "type": "function"
        },
        {
            "inputs": [],
            "name": "marketCreator",
            "outputs": [
                {
                    "internalType": "address",
                    "name": "",
                    "type": "address"
                }
            ],
            "stateMutability": "view",
            "type": "function"
        },
        {
            "inputs": [],
            "name": "marketorContractAddress",
            "outputs": [
                {
                    "internalType": "address",
                    "name": "",
                    "type": "address"
                }
            ],
            "stateMutability": "view",
            "type": "function"
        },
        {
            "inputs": [],
            "name": "unlockGatebyGater",
            "outputs": [],
            "stateMutability": "nonpayable",
            "type": "function"
        },
        {
            "inputs": [
                {
                    "internalType": "address",
                    "name": "_gatoraddress",
                    "type": "address"
                }
            ],
            "name": "unlockGatebyMarketor",
            "outputs": [],
            "stateMutability": "nonpayable",
            "type": "function"
        },
        {
            "inputs": [
                {
                    "components": [
                        {
                            "internalType": "address",
                            "name": "market",
                            "type": "address"
                        },
                        {
                            "internalType": "address",
                            "name": "gateAddress",
                            "type": "address"
                        },
                        {
                            "internalType": "uint160",
                            "name": "authority",
                            "type": "uint160"
                        },
                        {
                            "internalType": "bytes32",
                            "name": "name",
                            "type": "bytes32"
                        },
                        {
                            "internalType": "bytes32",
                            "name": "website",
                            "type": "bytes32"
                        },
                        {
                            "internalType": "bytes32[10]",
                            "name": "webserverip",
                            "type": "bytes32[10]"
                        },
                        {
                            "internalType": "uint32",
                            "name": "createtimestamp",
                            "type": "uint32"
                        },
                        {
                            "internalType": "bool",
                            "name": "marketunlock",
                            "type": "bool"
                        },
                        {
                            "internalType": "bool",
                            "name": "unlock",
                            "type": "bool"
                        },
                        {
                            "internalType": "bool",
                            "name": "isUsed",
                            "type": "bool"
                        }
                    ],
                    "internalType": "struct LGate.Info",
                    "name": "_gator",
                    "type": "tuple"
                }
            ],
            "name": "updateGatebyGator",
            "outputs": [],
            "stateMutability": "nonpayable",
            "type": "function"
        },
        {
            "inputs": [
                {
                    "components": [
                        {
                            "internalType": "address",
                            "name": "market",
                            "type": "address"
                        },
                        {
                            "internalType": "address",
                            "name": "gateAddress",
                            "type": "address"
                        },
                        {
                            "internalType": "uint160",
                            "name": "authority",
                            "type": "uint160"
                        },
                        {
                            "internalType": "bytes32",
                            "name": "name",
                            "type": "bytes32"
                        },
                        {
                            "internalType": "bytes32",
                            "name": "website",
                            "type": "bytes32"
                        },
                        {
                            "internalType": "bytes32[10]",
                            "name": "webserverip",
                            "type": "bytes32[10]"
                        },
                        {
                            "internalType": "uint32",
                            "name": "createtimestamp",
                            "type": "uint32"
                        },
                        {
                            "internalType": "bool",
                            "name": "marketunlock",
                            "type": "bool"
                        },
                        {
                            "internalType": "bool",
                            "name": "unlock",
                            "type": "bool"
                        },
                        {
                            "internalType": "bool",
                            "name": "isUsed",
                            "type": "bool"
                        }
                    ],
                    "internalType": "struct LGate.Info",
                    "name": "_gator",
                    "type": "tuple"
                }
            ],
            "name": "updateGatebyMarketor",
            "outputs": [],
            "stateMutability": "nonpayable",
            "type": "function"
        }
    ],
    "bytecode": "608060405234801561001057600080fd5b50604051610f8d380380610f8d83398101604081905261002f9161007c565b600180546001600160a01b039384166001600160a01b031991821617909155600280549290931691161790556100af565b80516001600160a01b038116811461007757600080fd5b919050565b6000806040838503121561008f57600080fd5b61009883610060565b91506100a660208401610060565b90509250929050565b610ecf806100be6000396000f3fe608060405234801561001057600080fd5b50600436106100b45760003560e01c80637694130011610071578063769413001461021e578063a478608814610231578063b614984d14610244578063d8feb7ff14610257578063f1c9f40f1461026a578063f3a425371461027257600080fd5b806327cbaabe146100b95780633bbae141146100e957806345df4987146100f3578063492b7107146101cb57806354a460f6146101de57806371271f4d1461020b575b600080fd5b6002546100cc906001600160a01b031681565b6040516001600160a01b0390911681526020015b60405180910390f35b6100f1610285565b005b61016c610101366004610c61565b600060208190529081526040902080546001820154600283015460038401546004850154600f909501546001600160a01b0394851695938516949290921692909163ffffffff81169060ff600160201b8204811691600160281b8104821691600160301b9091041689565b604080516001600160a01b039a8b168152988a1660208a015296909816958701959095526060860193909352608085019190915263ffffffff1660a0840152151560c0830152151560e0820152901515610100820152610120016100e0565b6001546100cc906001600160a01b031681565b336000908152602081905260409020600f0154600160201b900460ff1660405190151581526020016100e0565b6100f1610219366004610d60565b610343565b6100f161022c366004610c61565b610559565b6100f161023f366004610c61565b61064d565b6100f1610252366004610c61565b610747565b6100f1610265366004610d60565b610881565b6100f16109b4565b6100f1610280366004610d60565b610a63565b336000908152602081905260409020600f0154600160201b900460ff1615156001146102b057600080fd5b336000908152602081905260409020600f0154600160301b900460ff16151560011480156102f75750336000818152602081905260409020600101546001600160a01b0316145b61031c5760405162461bcd60e51b815260040161031390610e1f565b60405180910390fd5b336000908152602081905260409020600f01805465ff00000000001916600160281b179055565b600160009054906101000a90046001600160a01b03166001600160a01b031663e2b0738c6040518163ffffffff1660e01b8152600401602060405180830381865afa158015610396573d6000803e3d6000fd5b505050506040513d601f19601f820116820180604052508101906103ba9190610e4e565b15156001146103c857600080fd5b6020818101516001600160a01b031660009081529081905260409020600f0154600160301b900460ff1615156001146104135760405162461bcd60e51b815260040161031390610e6b565b602081810180516001600160a01b0390811660009081528084526040808220600f90810154600160201b900460ff908116151560e089015285518516845283875282842090910154600160281b900416151561010087015283518316825293819052839020845181546001600160a01b031990811691841691909117825592516001820180548516918416919091179055928401516002840180549093169116179055606082015160038201556080820151600482015560a08201518291906104e2906005830190600a610bd7565b5060c0820151600f909101805460e0840151610100850151610120909501511515600160301b0266ff00000000000019951515600160281b029590951666ffff000000000019911515600160201b0264ffffffffff1990931663ffffffff9095169490941791909117169190911791909117905550565b600160009054906101000a90046001600160a01b03166001600160a01b031663e2b0738c6040518163ffffffff1660e01b8152600401602060405180830381865afa1580156105ac573d6000803e3d6000fd5b505050506040513d601f19601f820116820180604052508101906105d09190610e4e565b15156001146105de57600080fd5b6001600160a01b0381166000908152602081905260409020600f0154600160301b900460ff1615156001146106255760405162461bcd60e51b815260040161031390610e1f565b6001600160a01b03166000908152602081905260409020600f01805464ff0000000019169055565b600160009054906101000a90046001600160a01b03166001600160a01b031663e2b0738c6040518163ffffffff1660e01b8152600401602060405180830381865afa1580156106a0573d6000803e3d6000fd5b505050506040513d601f19601f820116820180604052508101906106c49190610e4e565b15156001146106d257600080fd5b6001600160a01b0381166000908152602081905260409020600f0154600160301b900460ff1615156001146107195760405162461bcd60e51b815260040161031390610e1f565b6001600160a01b03166000908152602081905260409020600f01805464ff000000001916600160201b179055565b600160009054906101000a90046001600160a01b03166001600160a01b031663e2b0738c6040518163ffffffff1660e01b8152600401602060405180830381865afa15801561079a573d6000803e3d6000fd5b505050506040513d601f19601f820116820180604052508101906107be9190610e4e565b15156001146107cc57600080fd5b6001600160a01b0381166000908152602081905260409020600f0154600160301b900460ff1615156001146108135760405162461bcd60e51b815260040161031390610e6b565b6001600160a01b038116600090815260208190526040812080546001600160a01b0319908116825560018201805482169055600282018054909116905560038101829055600481018290559061086c6005830182610c15565b50600f01805466ffffffffffffff1916905550565b6020818101516001600160a01b031660009081529081905260409020600f0154600160301b900460ff1615156001036108cc5760405162461bcd60e51b815260040161031390610e6b565b60208101516001600160a01b0316331461091c5760405162461bcd60e51b81526020600482015260116024820152703a34329033b0ba37b91034b9903cb7bab960791b6044820152606401610313565b600060e082018190526101008201819052602080830180516001600160a01b03908116845291839052604092839020845181549084166001600160a01b0319918216178255915160018201805491851691841691909117905592840151600284018054919093169116179055606082015160038201556080820151600482015560a08201518291906104e2906005830190600a610bd7565b336000908152602081905260409020600f0154600160201b900460ff1615156001146109df57600080fd5b336000908152602081905260409020600f0154600160301b900460ff1615156001148015610a265750336000818152602081905260409020600101546001600160a01b0316145b610a425760405162461bcd60e51b815260040161031390610e1f565b336000908152602081905260409020600f01805465ff000000000019169055565b336000908152602081905260409020600f0154600160201b900460ff161515600114610a8e57600080fd5b6020818101516001600160a01b031660009081529081905260409020600f0154600160301b900460ff161515600114610ad95760405162461bcd60e51b815260040161031390610e6b565b6020808201516001600160a01b03908116600090815291829052604090912060010154163314610b3f5760405162461bcd60e51b81526020600482015260116024820152703a34329033b0ba37b91034b9903cb7bab960791b6044820152606401610313565b600060e0820181905260016101008301819052602080840180516001600160a01b03908116855291849052604093849020855181546001600160a01b03199081169185169190911782559151938101805483169484169490941790935592840151600283018054909416911617909155606082015160038201556080820151600482015560a08201518291906104e2906005830190600a5b82600a8101928215610c05579160200282015b82811115610c05578251825591602001919060010190610bea565b50610c11929150610c27565b5090565b50610c2490600a810190610c27565b50565b5b80821115610c115760008155600101610c28565b6001600160a01b0381168114610c2457600080fd5b8035610c5c81610c3c565b919050565b600060208284031215610c7357600080fd5b8135610c7e81610c3c565b9392505050565b634e487b7160e01b600052604160045260246000fd5b604051610140810167ffffffffffffffff81118282101715610cbf57610cbf610c85565b60405290565b600082601f830112610cd657600080fd5b60405161014080820182811067ffffffffffffffff82111715610cfb57610cfb610c85565b60405283018185821115610d0e57600080fd5b845b82811015610d28578035825260209182019101610d10565b509195945050505050565b803563ffffffff81168114610c5c57600080fd5b8015158114610c2457600080fd5b8035610c5c81610d47565b60006102608284031215610d7357600080fd5b610d7b610c9b565b610d8483610c51565b8152610d9260208401610c51565b6020820152610da360408401610c51565b60408201526060830135606082015260808301356080820152610dc98460a08501610cc5565b60a0820152610ddb6101e08401610d33565b60c0820152610ded6102008401610d55565b60e0820152610dff6102208401610d55565b610100820152610e126102408401610d55565b6101208201529392505050565b6020808252601590820152741d1a194819d85d1bdc881a5cdb9bdd08195e1a5cdd605a1b604082015260600190565b600060208284031215610e6057600080fd5b8151610c7e81610d47565b6020808252601490820152733a34329033b0ba37b91034b99032bc34b9ba32b960611b60408201526060019056fea264697066735822122065db4320a3c59f063a3dd6f35371a44d54373fc422ead0ae6fc2d685217be60564736f6c634300080f0033",
    "sourcePath": "/Users/admin/Documents/gitworkplace/ttswap_core/ttswap_core/Contracts/MoonV1Gator.sol",
    "compiler": {
        "name": "solc",
        "version": "0.8.15+commit.e14f2714"
    },
    "functionHashes": {
        "addGater((address,address,uint160,bytes32,bytes32,bytes32[10],uint32,bool,bool,bool))": "d8feb7ff",
        "delGatebyMarketor(address)": "b614984d",
        "gateList(address)": "45df4987",
        "isValidGator()": "54a460f6",
        "lockGatebyGater()": "3bbae141",
        "lockGatebyMarketor(address)": "a4786088",
        "marketCreator()": "27cbaabe",
        "marketorContractAddress()": "492b7107",
        "unlockGatebyGater()": "f1c9f40f",
        "unlockGatebyMarketor(address)": "76941300",
        "updateGatebyGator((address,address,uint160,bytes32,bytes32,bytes32[10],uint32,bool,bool,bool))": "f3a42537",
        "updateGatebyMarketor((address,address,uint160,bytes32,bytes32,bytes32[10],uint32,bool,bool,bool))": "71271f4d"
    },
    "gasEstimates": {
        "creation": {
            "codeDepositCost": "758200",
            "executionCost": "infinite",
            "totalCost": "infinite"
        },
        "external": {
            "addGater((address,address,uint160,bytes32,bytes32,bytes32[10],uint32,bool,bool,bool))": "infinite",
            "delGatebyMarketor(address)": "infinite",
            "gateList(address)": "13481",
            "isValidGator()": "2475",
            "lockGatebyGater()": "31155",
            "lockGatebyMarketor(address)": "infinite",
            "marketCreator()": "2327",
            "marketorContractAddress()": "2393",
            "unlockGatebyGater()": "31208",
            "unlockGatebyMarketor(address)": "infinite",
            "updateGatebyGator((address,address,uint160,bytes32,bytes32,bytes32[10],uint32,bool,bool,bool))": "infinite",
            "updateGatebyMarketor((address,address,uint160,bytes32,bytes32,bytes32[10],uint32,bool,bool,bool))": "infinite"
        }
    }
}