{
    "contractName": "MoonV1Gator",
    "abi": [
        {
            "inputs": [
                {
                    "internalType": "address",
                    "name": "_marketorContractAddress",
                    "type": "address"
                },
                {
                    "internalType": "address",
                    "name": "_marketCreator",
                    "type": "address"
                }
            ],
            "stateMutability": "nonpayable",
            "type": "constructor"
        },
        {
            "inputs": [
                {
                    "components": [
                        {
                            "internalType": "address",
                            "name": "market",
                            "type": "address"
                        },
                        {
                            "internalType": "address",
                            "name": "gateAddress",
                            "type": "address"
                        },
                        {
                            "internalType": "uint160",
                            "name": "authority",
                            "type": "uint160"
                        },
                        {
                            "internalType": "bytes32",
                            "name": "name",
                            "type": "bytes32"
                        },
                        {
                            "internalType": "bytes32",
                            "name": "website",
                            "type": "bytes32"
                        },
                        {
                            "internalType": "bytes32[10]",
                            "name": "webserverip",
                            "type": "bytes32[10]"
                        },
                        {
                            "internalType": "uint32",
                            "name": "createtimestamp",
                            "type": "uint32"
                        },
                        {
                            "internalType": "bool",
                            "name": "marketunlock",
                            "type": "bool"
                        },
                        {
                            "internalType": "bool",
                            "name": "unlock",
                            "type": "bool"
                        },
                        {
                            "internalType": "bool",
                            "name": "isUsed",
                            "type": "bool"
                        }
                    ],
                    "internalType": "struct LGate.Info",
                    "name": "_gator",
                    "type": "tuple"
                }
            ],
            "name": "addGater",
            "outputs": [],
            "stateMutability": "nonpayable",
            "type": "function"
        },
        {
            "inputs": [
                {
                    "internalType": "address",
                    "name": "_gator",
                    "type": "address"
                }
            ],
            "name": "delGatebyMarketor",
            "outputs": [],
            "stateMutability": "nonpayable",
            "type": "function"
        },
        {
            "inputs": [
                {
                    "internalType": "address",
                    "name": "",
                    "type": "address"
                }
            ],
            "name": "gateList",
            "outputs": [
                {
                    "internalType": "address",
                    "name": "market",
                    "type": "address"
                },
                {
                    "internalType": "address",
                    "name": "gateAddress",
                    "type": "address"
                },
                {
                    "internalType": "uint160",
                    "name": "authority",
                    "type": "uint160"
                },
                {
                    "internalType": "bytes32",
                    "name": "name",
                    "type": "bytes32"
                },
                {
                    "internalType": "bytes32",
                    "name": "website",
                    "type": "bytes32"
                },
                {
                    "internalType": "uint32",
                    "name": "createtimestamp",
                    "type": "uint32"
                },
                {
                    "internalType": "bool",
                    "name": "marketunlock",
                    "type": "bool"
                },
                {
                    "internalType": "bool",
                    "name": "unlock",
                    "type": "bool"
                },
                {
                    "internalType": "bool",
                    "name": "isUsed",
                    "type": "bool"
                }
            ],
            "stateMutability": "view",
            "type": "function"
        },
        {
            "inputs": [],
            "name": "isValidGator",
            "outputs": [
                {
                    "internalType": "bool",
                    "name": "",
                    "type": "bool"
                }
            ],
            "stateMutability": "view",
            "type": "function"
        },
        {
            "inputs": [],
            "name": "lockGatebyGater",
            "outputs": [],
            "stateMutability": "nonpayable",
            "type": "function"
        },
        {
            "inputs": [
                {
                    "internalType": "address",
                    "name": "_gatoraddress",
                    "type": "address"
                }
            ],
            "name": "lockGatebyMarketor",
            "outputs": [],
            "stateMutability": "nonpayable",
            "type": "function"
        },
        {
            "inputs": [],
            "name": "marketCreator",
            "outputs": [
                {
                    "internalType": "address",
                    "name": "",
                    "type": "address"
                }
            ],
            "stateMutability": "view",
            "type": "function"
        },
        {
            "inputs": [],
            "name": "marketorContractAddress",
            "outputs": [
                {
                    "internalType": "address",
                    "name": "",
                    "type": "address"
                }
            ],
            "stateMutability": "view",
            "type": "function"
        },
        {
            "inputs": [],
            "name": "unlockGatebyGater",
            "outputs": [],
            "stateMutability": "nonpayable",
            "type": "function"
        },
        {
            "inputs": [
                {
                    "internalType": "address",
                    "name": "_gatoraddress",
                    "type": "address"
                }
            ],
            "name": "unlockGatebyMarketor",
            "outputs": [],
            "stateMutability": "nonpayable",
            "type": "function"
        },
        {
            "inputs": [
                {
                    "components": [
                        {
                            "internalType": "address",
                            "name": "market",
                            "type": "address"
                        },
                        {
                            "internalType": "address",
                            "name": "gateAddress",
                            "type": "address"
                        },
                        {
                            "internalType": "uint160",
                            "name": "authority",
                            "type": "uint160"
                        },
                        {
                            "internalType": "bytes32",
                            "name": "name",
                            "type": "bytes32"
                        },
                        {
                            "internalType": "bytes32",
                            "name": "website",
                            "type": "bytes32"
                        },
                        {
                            "internalType": "bytes32[10]",
                            "name": "webserverip",
                            "type": "bytes32[10]"
                        },
                        {
                            "internalType": "uint32",
                            "name": "createtimestamp",
                            "type": "uint32"
                        },
                        {
                            "internalType": "bool",
                            "name": "marketunlock",
                            "type": "bool"
                        },
                        {
                            "internalType": "bool",
                            "name": "unlock",
                            "type": "bool"
                        },
                        {
                            "internalType": "bool",
                            "name": "isUsed",
                            "type": "bool"
                        }
                    ],
                    "internalType": "struct LGate.Info",
                    "name": "_gator",
                    "type": "tuple"
                }
            ],
            "name": "updateGatebyGator",
            "outputs": [],
            "stateMutability": "nonpayable",
            "type": "function"
        },
        {
            "inputs": [
                {
                    "components": [
                        {
                            "internalType": "address",
                            "name": "market",
                            "type": "address"
                        },
                        {
                            "internalType": "address",
                            "name": "gateAddress",
                            "type": "address"
                        },
                        {
                            "internalType": "uint160",
                            "name": "authority",
                            "type": "uint160"
                        },
                        {
                            "internalType": "bytes32",
                            "name": "name",
                            "type": "bytes32"
                        },
                        {
                            "internalType": "bytes32",
                            "name": "website",
                            "type": "bytes32"
                        },
                        {
                            "internalType": "bytes32[10]",
                            "name": "webserverip",
                            "type": "bytes32[10]"
                        },
                        {
                            "internalType": "uint32",
                            "name": "createtimestamp",
                            "type": "uint32"
                        },
                        {
                            "internalType": "bool",
                            "name": "marketunlock",
                            "type": "bool"
                        },
                        {
                            "internalType": "bool",
                            "name": "unlock",
                            "type": "bool"
                        },
                        {
                            "internalType": "bool",
                            "name": "isUsed",
                            "type": "bool"
                        }
                    ],
                    "internalType": "struct LGate.Info",
                    "name": "_gator",
                    "type": "tuple"
                }
            ],
            "name": "updateGatebyMarketor",
            "outputs": [],
            "stateMutability": "nonpayable",
            "type": "function"
        }
    ],
    "bytecode": "60a060405234801561001057600080fd5b50604051610fd8380380610fd883398101604081905261002f91610073565b6001600160a01b03918216608052600180546001600160a01b031916919092161790556100a6565b80516001600160a01b038116811461006e57600080fd5b919050565b6000806040838503121561008657600080fd5b61008f83610057565b915061009d60208401610057565b90509250929050565b608051610efb6100dd600039600081816101d001528181610359015281816105750152818161066f015261076f0152610efb6000f3fe608060405234801561001057600080fd5b50600436106100b45760003560e01c806376941300116100715780637694130014610232578063a478608814610245578063b614984d14610258578063d8feb7ff1461026b578063f1c9f40f1461027e578063f3a425371461028657600080fd5b806327cbaabe146100b95780633bbae141146100e957806345df4987146100f3578063492b7107146101cb57806354a460f6146101f257806371271f4d1461021f575b600080fd5b6001546100cc906001600160a01b031681565b6040516001600160a01b0390911681526020015b60405180910390f35b6100f1610299565b005b61016c610101366004610c8d565b600060208190529081526040902080546001820154600283015460038401546004850154600f909501546001600160a01b0394851695938516949290921692909163ffffffff81169060ff600160201b8204811691600160281b8104821691600160301b9091041689565b604080516001600160a01b039a8b168152988a1660208a015296909816958701959095526060860193909352608085019190915263ffffffff1660a0840152151560c0830152151560e0820152901515610100820152610120016100e0565b6100cc7f000000000000000000000000000000000000000000000000000000000000000081565b336000908152602081905260409020600f0154600160201b900460ff1660405190151581526020016100e0565b6100f161022d366004610d8c565b610357565b6100f1610240366004610c8d565b610573565b6100f1610253366004610c8d565b61066d565b6100f1610266366004610c8d565b61076d565b6100f1610279366004610d8c565b6108ad565b6100f16109e0565b6100f1610294366004610d8c565b610a8f565b336000908152602081905260409020600f0154600160201b900460ff1615156001146102c457600080fd5b336000908152602081905260409020600f0154600160301b900460ff161515600114801561030b5750336000818152602081905260409020600101546001600160a01b0316145b6103305760405162461bcd60e51b815260040161032790610e4b565b60405180910390fd5b336000908152602081905260409020600f01805465ff00000000001916600160281b179055565b7f00000000000000000000000000000000000000000000000000000000000000006001600160a01b031663ad87d2ba6040518163ffffffff1660e01b8152600401602060405180830381865afa1580156103b5573d6000803e3d6000fd5b505050506040513d601f19601f820116820180604052508101906103d99190610e7a565b6103e257600080fd5b6020818101516001600160a01b031660009081529081905260409020600f0154600160301b900460ff16151560011461042d5760405162461bcd60e51b815260040161032790610e97565b602081810180516001600160a01b0390811660009081528084526040808220600f90810154600160201b900460ff908116151560e089015285518516845283875282842090910154600160281b900416151561010087015283518316825293819052839020845181546001600160a01b031990811691841691909117825592516001820180548516918416919091179055928401516002840180549093169116179055606082015160038201556080820151600482015560a08201518291906104fc906005830190600a610c03565b5060c0820151600f909101805460e0840151610100850151610120909501511515600160301b0266ff00000000000019951515600160281b029590951666ffff000000000019911515600160201b0264ffffffffff1990931663ffffffff9095169490941791909117169190911791909117905550565b7f00000000000000000000000000000000000000000000000000000000000000006001600160a01b031663ad87d2ba6040518163ffffffff1660e01b8152600401602060405180830381865afa1580156105d1573d6000803e3d6000fd5b505050506040513d601f19601f820116820180604052508101906105f59190610e7a565b6105fe57600080fd5b6001600160a01b0381166000908152602081905260409020600f0154600160301b900460ff1615156001146106455760405162461bcd60e51b815260040161032790610e4b565b6001600160a01b03166000908152602081905260409020600f01805464ff0000000019169055565b7f00000000000000000000000000000000000000000000000000000000000000006001600160a01b031663ad87d2ba6040518163ffffffff1660e01b8152600401602060405180830381865afa1580156106cb573d6000803e3d6000fd5b505050506040513d601f19601f820116820180604052508101906106ef9190610e7a565b6106f857600080fd5b6001600160a01b0381166000908152602081905260409020600f0154600160301b900460ff16151560011461073f5760405162461bcd60e51b815260040161032790610e4b565b6001600160a01b03166000908152602081905260409020600f01805464ff000000001916600160201b179055565b7f00000000000000000000000000000000000000000000000000000000000000006001600160a01b031663ad87d2ba6040518163ffffffff1660e01b8152600401602060405180830381865afa1580156107cb573d6000803e3d6000fd5b505050506040513d601f19601f820116820180604052508101906107ef9190610e7a565b6107f857600080fd5b6001600160a01b0381166000908152602081905260409020600f0154600160301b900460ff16151560011461083f5760405162461bcd60e51b815260040161032790610e97565b6001600160a01b038116600090815260208190526040812080546001600160a01b031990811682556001820180548216905560028201805490911690556003810182905560048101829055906108986005830182610c41565b50600f01805466ffffffffffffff1916905550565b6020818101516001600160a01b031660009081529081905260409020600f0154600160301b900460ff1615156001036108f85760405162461bcd60e51b815260040161032790610e97565b60208101516001600160a01b031633146109485760405162461bcd60e51b81526020600482015260116024820152703a34329033b0ba37b91034b9903cb7bab960791b6044820152606401610327565b600060e082018190526101008201819052602080830180516001600160a01b03908116845291839052604092839020845181549084166001600160a01b0319918216178255915160018201805491851691841691909117905592840151600284018054919093169116179055606082015160038201556080820151600482015560a08201518291906104fc906005830190600a610c03565b336000908152602081905260409020600f0154600160201b900460ff161515600114610a0b57600080fd5b336000908152602081905260409020600f0154600160301b900460ff1615156001148015610a525750336000818152602081905260409020600101546001600160a01b0316145b610a6e5760405162461bcd60e51b815260040161032790610e4b565b336000908152602081905260409020600f01805465ff000000000019169055565b336000908152602081905260409020600f0154600160201b900460ff161515600114610aba57600080fd5b6020818101516001600160a01b031660009081529081905260409020600f0154600160301b900460ff161515600114610b055760405162461bcd60e51b815260040161032790610e97565b6020808201516001600160a01b03908116600090815291829052604090912060010154163314610b6b5760405162461bcd60e51b81526020600482015260116024820152703a34329033b0ba37b91034b9903cb7bab960791b6044820152606401610327565b600060e0820181905260016101008301819052602080840180516001600160a01b03908116855291849052604093849020855181546001600160a01b03199081169185169190911782559151938101805483169484169490941790935592840151600283018054909416911617909155606082015160038201556080820151600482015560a08201518291906104fc906005830190600a5b82600a8101928215610c31579160200282015b82811115610c31578251825591602001919060010190610c16565b50610c3d929150610c53565b5090565b50610c5090600a810190610c53565b50565b5b80821115610c3d5760008155600101610c54565b6001600160a01b0381168114610c5057600080fd5b8035610c8881610c68565b919050565b600060208284031215610c9f57600080fd5b8135610caa81610c68565b9392505050565b634e487b7160e01b600052604160045260246000fd5b604051610140810167ffffffffffffffff81118282101715610ceb57610ceb610cb1565b60405290565b600082601f830112610d0257600080fd5b60405161014080820182811067ffffffffffffffff82111715610d2757610d27610cb1565b60405283018185821115610d3a57600080fd5b845b82811015610d54578035825260209182019101610d3c565b509195945050505050565b803563ffffffff81168114610c8857600080fd5b8015158114610c5057600080fd5b8035610c8881610d73565b60006102608284031215610d9f57600080fd5b610da7610cc7565b610db083610c7d565b8152610dbe60208401610c7d565b6020820152610dcf60408401610c7d565b60408201526060830135606082015260808301356080820152610df58460a08501610cf1565b60a0820152610e076101e08401610d5f565b60c0820152610e196102008401610d81565b60e0820152610e2b6102208401610d81565b610100820152610e3e6102408401610d81565b6101208201529392505050565b6020808252601590820152741d1a194819d85d1bdc881a5cdb9bdd08195e1a5cdd605a1b604082015260600190565b600060208284031215610e8c57600080fd5b8151610caa81610d73565b6020808252601490820152733a34329033b0ba37b91034b99032bc34b9ba32b960611b60408201526060019056fea2646970667358221220905d6eb0b9db0d192f4d2a183aa65c614fd16dd4dea85e3739b9bf10524d502e64736f6c634300080f0033",
    "sourcePath": "/Users/admin/Documents/gitworkplace/ttswap_core/ttswap_core/Contracts/MoonV1Gator.sol",
    "compiler": {
        "name": "solc",
        "version": "0.8.15+commit.e14f2714"
    },
    "functionHashes": {
        "addGater((address,address,uint160,bytes32,bytes32,bytes32[10],uint32,bool,bool,bool))": "d8feb7ff",
        "delGatebyMarketor(address)": "b614984d",
        "gateList(address)": "45df4987",
        "isValidGator()": "54a460f6",
        "lockGatebyGater()": "3bbae141",
        "lockGatebyMarketor(address)": "a4786088",
        "marketCreator()": "27cbaabe",
        "marketorContractAddress()": "492b7107",
        "unlockGatebyGater()": "f1c9f40f",
        "unlockGatebyMarketor(address)": "76941300",
        "updateGatebyGator((address,address,uint160,bytes32,bytes32,bytes32[10],uint32,bool,bool,bool))": "f3a42537",
        "updateGatebyMarketor((address,address,uint160,bytes32,bytes32,bytes32[10],uint32,bool,bool,bool))": "71271f4d"
    },
    "gasEstimates": {
        "creation": {
            "codeDepositCost": "767000",
            "executionCost": "infinite",
            "totalCost": "infinite"
        },
        "external": {
            "addGater((address,address,uint160,bytes32,bytes32,bytes32[10],uint32,bool,bool,bool))": "infinite",
            "delGatebyMarketor(address)": "infinite",
            "gateList(address)": "13481",
            "isValidGator()": "2475",
            "lockGatebyGater()": "31155",
            "lockGatebyMarketor(address)": "infinite",
            "marketCreator()": "2327",
            "marketorContractAddress()": "infinite",
            "unlockGatebyGater()": "31208",
            "unlockGatebyMarketor(address)": "infinite",
            "updateGatebyGator((address,address,uint160,bytes32,bytes32,bytes32[10],uint32,bool,bool,bool))": "infinite",
            "updateGatebyMarketor((address,address,uint160,bytes32,bytes32,bytes32[10],uint32,bool,bool,bool))": "infinite"
        }
    }
}