{
    "contractName": "MoonV1Customer",
    "abi": [
        {
            "inputs": [
                {
                    "internalType": "address",
                    "name": "_marketContractAddress",
                    "type": "address"
                },
                {
                    "internalType": "address",
                    "name": "_gateContractAddress",
                    "type": "address"
                },
                {
                    "internalType": "address",
                    "name": "_marketorContractAddress",
                    "type": "address"
                }
            ],
            "stateMutability": "nonpayable",
            "type": "constructor"
        },
        {
            "inputs": [
                {
                    "components": [
                        {
                            "internalType": "bytes32",
                            "name": "neckname",
                            "type": "bytes32"
                        },
                        {
                            "internalType": "uint32",
                            "name": "createtimestamp",
                            "type": "uint32"
                        },
                        {
                            "internalType": "address",
                            "name": "recommender",
                            "type": "address"
                        },
                        {
                            "internalType": "uint40",
                            "name": "customerKey",
                            "type": "uint40"
                        },
                        {
                            "internalType": "address",
                            "name": "Gater",
                            "type": "address"
                        },
                        {
                            "internalType": "uint32",
                            "name": "GaterKey",
                            "type": "uint32"
                        },
                        {
                            "internalType": "address",
                            "name": "contractAddress",
                            "type": "address"
                        },
                        {
                            "internalType": "bool",
                            "name": "isUsed",
                            "type": "bool"
                        },
                        {
                            "internalType": "bool",
                            "name": "unlock",
                            "type": "bool"
                        }
                    ],
                    "internalType": "struct LCustomer.Info",
                    "name": "_customer",
                    "type": "tuple"
                }
            ],
            "name": "addCustomer",
            "outputs": [],
            "stateMutability": "nonpayable",
            "type": "function"
        },
        {
            "inputs": [
                {
                    "components": [
                        {
                            "internalType": "bytes32",
                            "name": "neckname",
                            "type": "bytes32"
                        },
                        {
                            "internalType": "uint32",
                            "name": "createtimestamp",
                            "type": "uint32"
                        },
                        {
                            "internalType": "address",
                            "name": "recommender",
                            "type": "address"
                        },
                        {
                            "internalType": "uint40",
                            "name": "customerKey",
                            "type": "uint40"
                        },
                        {
                            "internalType": "address",
                            "name": "Gater",
                            "type": "address"
                        },
                        {
                            "internalType": "uint32",
                            "name": "GaterKey",
                            "type": "uint32"
                        },
                        {
                            "internalType": "address",
                            "name": "contractAddress",
                            "type": "address"
                        },
                        {
                            "internalType": "bool",
                            "name": "isUsed",
                            "type": "bool"
                        },
                        {
                            "internalType": "bool",
                            "name": "unlock",
                            "type": "bool"
                        }
                    ],
                    "internalType": "struct LCustomer.Info",
                    "name": "_customer",
                    "type": "tuple"
                },
                {
                    "internalType": "address",
                    "name": "_gater",
                    "type": "address"
                }
            ],
            "name": "addCustomer",
            "outputs": [],
            "stateMutability": "nonpayable",
            "type": "function"
        },
        {
            "inputs": [
                {
                    "internalType": "uint40",
                    "name": "_recommanderUnikey",
                    "type": "uint40"
                }
            ],
            "name": "addRelation",
            "outputs": [],
            "stateMutability": "nonpayable",
            "type": "function"
        },
        {
            "inputs": [
                {
                    "internalType": "address",
                    "name": "",
                    "type": "address"
                }
            ],
            "name": "customerList",
            "outputs": [
                {
                    "internalType": "bytes32",
                    "name": "neckname",
                    "type": "bytes32"
                },
                {
                    "internalType": "uint32",
                    "name": "createtimestamp",
                    "type": "uint32"
                },
                {
                    "internalType": "address",
                    "name": "recommender",
                    "type": "address"
                },
                {
                    "internalType": "uint40",
                    "name": "customerKey",
                    "type": "uint40"
                },
                {
                    "internalType": "address",
                    "name": "Gater",
                    "type": "address"
                },
                {
                    "internalType": "uint32",
                    "name": "GaterKey",
                    "type": "uint32"
                },
                {
                    "internalType": "address",
                    "name": "contractAddress",
                    "type": "address"
                },
                {
                    "internalType": "bool",
                    "name": "isUsed",
                    "type": "bool"
                },
                {
                    "internalType": "bool",
                    "name": "unlock",
                    "type": "bool"
                }
            ],
            "stateMutability": "view",
            "type": "function"
        },
        {
            "inputs": [
                {
                    "internalType": "uint40",
                    "name": "",
                    "type": "uint40"
                }
            ],
            "name": "customerUniKey",
            "outputs": [
                {
                    "internalType": "address",
                    "name": "",
                    "type": "address"
                }
            ],
            "stateMutability": "view",
            "type": "function"
        },
        {
            "inputs": [],
            "name": "customerUniNextKey",
            "outputs": [
                {
                    "internalType": "uint40",
                    "name": "",
                    "type": "uint40"
                }
            ],
            "stateMutability": "view",
            "type": "function"
        },
        {
            "inputs": [],
            "name": "gateContractAddress",
            "outputs": [
                {
                    "internalType": "address",
                    "name": "",
                    "type": "address"
                }
            ],
            "stateMutability": "view",
            "type": "function"
        },
        {
            "inputs": [
                {
                    "internalType": "address",
                    "name": "",
                    "type": "address"
                },
                {
                    "internalType": "uint32",
                    "name": "",
                    "type": "uint32"
                }
            ],
            "name": "gateCustomerList",
            "outputs": [
                {
                    "internalType": "address",
                    "name": "",
                    "type": "address"
                }
            ],
            "stateMutability": "view",
            "type": "function"
        },
        {
            "inputs": [
                {
                    "internalType": "address",
                    "name": "",
                    "type": "address"
                }
            ],
            "name": "gateCustomerNextKey",
            "outputs": [
                {
                    "internalType": "uint32",
                    "name": "",
                    "type": "uint32"
                }
            ],
            "stateMutability": "view",
            "type": "function"
        },
        {
            "inputs": [
                {
                    "internalType": "address",
                    "name": "_CustomerAddress",
                    "type": "address"
                }
            ],
            "name": "getCustomer",
            "outputs": [
                {
                    "components": [
                        {
                            "internalType": "bytes32",
                            "name": "neckname",
                            "type": "bytes32"
                        },
                        {
                            "internalType": "uint32",
                            "name": "createtimestamp",
                            "type": "uint32"
                        },
                        {
                            "internalType": "address",
                            "name": "recommender",
                            "type": "address"
                        },
                        {
                            "internalType": "uint40",
                            "name": "customerKey",
                            "type": "uint40"
                        },
                        {
                            "internalType": "address",
                            "name": "Gater",
                            "type": "address"
                        },
                        {
                            "internalType": "uint32",
                            "name": "GaterKey",
                            "type": "uint32"
                        },
                        {
                            "internalType": "address",
                            "name": "contractAddress",
                            "type": "address"
                        },
                        {
                            "internalType": "bool",
                            "name": "isUsed",
                            "type": "bool"
                        },
                        {
                            "internalType": "bool",
                            "name": "unlock",
                            "type": "bool"
                        }
                    ],
                    "internalType": "struct LCustomer.Info",
                    "name": "",
                    "type": "tuple"
                }
            ],
            "stateMutability": "view",
            "type": "function"
        },
        {
            "inputs": [
                {
                    "internalType": "address",
                    "name": "_recommander",
                    "type": "address"
                },
                {
                    "internalType": "uint32",
                    "name": "_cumstomerindex",
                    "type": "uint32"
                }
            ],
            "name": "getCustomerInfobyRecommander",
            "outputs": [
                {
                    "internalType": "address",
                    "name": "",
                    "type": "address"
                }
            ],
            "stateMutability": "view",
            "type": "function"
        },
        {
            "inputs": [
                {
                    "internalType": "address",
                    "name": "_recommander",
                    "type": "address"
                }
            ],
            "name": "getCustomerNumbyRecommander",
            "outputs": [
                {
                    "internalType": "uint32",
                    "name": "",
                    "type": "uint32"
                }
            ],
            "stateMutability": "view",
            "type": "function"
        },
        {
            "inputs": [
                {
                    "internalType": "address",
                    "name": "_customer",
                    "type": "address"
                }
            ],
            "name": "getCustomerRecommander",
            "outputs": [
                {
                    "internalType": "address",
                    "name": "",
                    "type": "address"
                }
            ],
            "stateMutability": "view",
            "type": "function"
        },
        {
            "inputs": [
                {
                    "internalType": "address",
                    "name": "_CustomerAddress",
                    "type": "address"
                }
            ],
            "name": "isValidCustomer",
            "outputs": [
                {
                    "internalType": "bool",
                    "name": "",
                    "type": "bool"
                }
            ],
            "stateMutability": "view",
            "type": "function"
        },
        {
            "inputs": [
                {
                    "internalType": "address",
                    "name": "_CustomerAddress",
                    "type": "address"
                }
            ],
            "name": "lockCustomerbyMarketor",
            "outputs": [],
            "stateMutability": "nonpayable",
            "type": "function"
        },
        {
            "inputs": [],
            "name": "marketContractAddress",
            "outputs": [
                {
                    "internalType": "address",
                    "name": "",
                    "type": "address"
                }
            ],
            "stateMutability": "view",
            "type": "function"
        },
        {
            "inputs": [],
            "name": "marketorContractAddress",
            "outputs": [
                {
                    "internalType": "address",
                    "name": "",
                    "type": "address"
                }
            ],
            "stateMutability": "view",
            "type": "function"
        },
        {
            "inputs": [
                {
                    "internalType": "address",
                    "name": "",
                    "type": "address"
                }
            ],
            "name": "recommenderraltionkey",
            "outputs": [
                {
                    "internalType": "uint32",
                    "name": "",
                    "type": "uint32"
                }
            ],
            "stateMutability": "view",
            "type": "function"
        },
        {
            "inputs": [
                {
                    "internalType": "address",
                    "name": "",
                    "type": "address"
                },
                {
                    "internalType": "uint32",
                    "name": "",
                    "type": "uint32"
                }
            ],
            "name": "recommenderraltionlist",
            "outputs": [
                {
                    "internalType": "address",
                    "name": "",
                    "type": "address"
                }
            ],
            "stateMutability": "view",
            "type": "function"
        },
        {
            "inputs": [
                {
                    "internalType": "address",
                    "name": "_CustomerAddress",
                    "type": "address"
                }
            ],
            "name": "unlockCustomerbyMarketor",
            "outputs": [],
            "stateMutability": "nonpayable",
            "type": "function"
        },
        {
            "inputs": [
                {
                    "internalType": "bytes32",
                    "name": "_newname",
                    "type": "bytes32"
                }
            ],
            "name": "updateCustomerNeckName",
            "outputs": [],
            "stateMutability": "nonpayable",
            "type": "function"
        }
    ],
    "bytecode": "60806040523480156200001157600080fd5b506040516200163438038062001634833981016040819052620000349162000094565b600780546001600160a01b039485166001600160a01b031991821617909155600880549385169382169390931790925560098054919093169116179055620000de565b80516001600160a01b03811681146200008f57600080fd5b919050565b600080600060608486031215620000aa57600080fd5b620000b58462000077565b9250620000c56020850162000077565b9150620000d56040850162000077565b90509250925092565b61154680620000ee6000396000f3fe608060405234801561001057600080fd5b50600436106101375760003560e01c80638370aa81116100b8578063cb949e511161007c578063cb949e511461033f578063e71957b91461035f578063e853f95214610372578063f3c8604814610398578063f4274bc5146103ab578063fc5f9f181461048f57600080fd5b80638370aa81146102975780638a6df726146102aa578063a60832cd146102d2578063bc5c613414610306578063be5fdac81461032c57600080fd5b80633b63b647116100ff5780633b63b647146101ce5780633e95003c146101e1578063492b71071461020a5780635cfeafa51461021d578063781660971461025157600080fd5b80630138a6611461013c57806314f9e554146101515780632f17d5df146101645780633087cbe314610194578063367b6dcc146101a7575b600080fd5b61014f61014a3660046111ac565b6104a2565b005b61014f61015f3660046112fb565b61059e565b600854610177906001600160a01b031681565b6040516001600160a01b0390911681526020015b60405180910390f35b600754610177906001600160a01b031681565b6002546101b89064ffffffffff1681565b60405164ffffffffff909116815260200161018b565b61014f6101dc366004611318565b610776565b6101776101ef366004611331565b6001602052600090815260409020546001600160a01b031681565b600954610177906001600160a01b031681565b61017761022b36600461134c565b60066020908152600092835260408084209091529082529020546001600160a01b031681565b61028761025f3660046111ac565b6001600160a01b0316600090815260208190526040902060030154600160a01b900460ff1690565b604051901515815260200161018b565b6101776102a536600461134c565b6107db565b6102bd6102b83660046111ac565b61085f565b60405163ffffffff909116815260200161018b565b6101776102e036600461134c565b60046020908152600092835260408084209091529082529020546001600160a01b031681565b6102bd6103143660046111ac565b60056020526000908152604090205463ffffffff1681565b61014f61033a3660046111ac565b6108d4565b61035261034d3660046111ac565b6109cd565b60405161018b919061137f565b61017761036d3660046111ac565b610b37565b6102bd6103803660046111ac565b60036020526000908152604090205463ffffffff1681565b61014f6103a6366004611331565b610bd2565b61042e6103b93660046111ac565b6000602081905290815260409020805460018201546002830154600390930154919263ffffffff808316936001600160a01b03640100000000850481169464ffffffffff600160c01b909104169380821693600160a01b9182900416929182169160ff918104821691600160a81b9091041689565b60408051998a5263ffffffff98891660208b01526001600160a01b03978816908a015264ffffffffff90951660608901529285166080880152941660a08601529190921660c0840152151560e083015215156101008201526101200161018b565b61014f61049d366004611438565b610d66565b600960009054906101000a90046001600160a01b03166001600160a01b0316631487f2526040518163ffffffff1660e01b8152600401602060405180830381865afa1580156104f5573d6000803e3d6000fd5b505050506040513d601f19601f820116820180604052508101906105199190611465565b151560011461052757600080fd5b6001600160a01b038116600090815260208190526040902060030154600160a01b900460ff1615156001036105775760405162461bcd60e51b815260040161056e90611482565b60405180910390fd5b6001600160a01b03166000908152602081905260409020600301805460ff60a81b19169055565b60c08101516001600160a01b0316600090815260208190526040902060030154600160a01b900460ff1615156001148015906105e6575060c08101516001600160a01b031633145b6106275760405162461bcd60e51b8152602060048201526012602482015271637573746f6d65722069732065786973747360701b604482015260640161056e565b600280546001919060009061064490849064ffffffffff166114c8565b825464ffffffffff91821661010093840a9081029083021990911617909255600280548316600090815260016020818152604080842080546001600160a01b031916331790558454871660608a0190815260c08a0180516001600160a01b039081168752868552958390208b518155938b01519484018054938c01519251909916600160c01b0264ffffffffff60c01b19928716640100000000026001600160c01b031994851663ffffffff978816171792909216919091179097556080890151948201805460a08b0151909416600160a01b90810294909216958516959095179290921790935593516003909201805460e088015197909401511515600160a81b0260ff60a81b199715159095026001600160a81b0319909416929091169190911791909117939093161790915550565b33600081815260208190526040902060030180546001600160a01b038116909214600160a01b810260ff60a01b199093169290921790556107c95760405162461bcd60e51b815260040161056e90611482565b33600090815260208190526040902055565b60006001600160a01b03831661082e5760405162461bcd60e51b815260206004820152601860248201527718dd5cdd1bdb595c881859191c995cdcc81a5cc81b9d5b1b60421b604482015260640161056e565b506001600160a01b03918216600090815260046020908152604080832063ffffffff94909416835292905220541690565b60006001600160a01b0382166108b25760405162461bcd60e51b815260206004820152601860248201527718dd5cdd1bdb595c881859191c995cdcc81a5cc81b9d5b1b60421b604482015260640161056e565b506001600160a01b031660009081526003602052604090205463ffffffff1690565b600960009054906101000a90046001600160a01b03166001600160a01b0316631487f2526040518163ffffffff1660e01b8152600401602060405180830381865afa158015610927573d6000803e3d6000fd5b505050506040513d601f19601f8201168201806040525081019061094b9190611465565b151560011461095957600080fd5b6001600160a01b038116600090815260208190526040902060030154600160a01b900460ff1615156001036109a05760405162461bcd60e51b815260040161056e90611482565b6001600160a01b03166000908152602081905260409020600301805460ff60a81b1916600160a81b179055565b6040805161012081018252600080825260208201819052918101829052606081018290526080810182905260a0810182905260c0810182905260e081018290526101008101919091526001600160a01b038216600090815260208190526040902060030154600160a01b900460ff161515600114610a875760405162461bcd60e51b815260206004820152601760248201527620437573746f6d6572206973206e6f742065786973747360481b604482015260640161056e565b506001600160a01b039081166000908152602081815260409182902082516101208101845281548152600182015463ffffffff808216948301949094526401000000008104861694820194909452600160c01b90930464ffffffffff16606084015260028101548085166080850152600160a01b9081900490921660a08401526003015492831660c0830152820460ff908116151560e0830152600160a81b909204909116151561010082015290565b6001600160a01b038116600090815260208190526040812060030154600160a01b900460ff161515600114610ba85760405162461bcd60e51b815260206004820152601760248201527620437573746f6d6572206973206e6f742065786973747360481b604482015260640161056e565b506001600160a01b0390811660009081526020819052604090206001015464010000000090041690565b3360009081526020819052604090206001015464010000000090046001600160a01b031615610c435760405162461bcd60e51b815260206004820152601f60248201527f74686520637573746f6d6572207265636f6d6d656e6465722065786973747300604482015260640161056e565b64ffffffffff81166000908152600160208181526040808420546001600160a01b031680855260039092529092205463ffffffff1610610ccf576001600160a01b0381166000908152600360205260408120805460019290610cac90849063ffffffff166114f1565b92506101000a81548163ffffffff021916908363ffffffff160217905550610cf6565b6001600160a01b0381166000908152600360205260409020805463ffffffff191660011790555b6001600160a01b03166000818152600460209081526040808320600383528184205463ffffffff16845282528083208054336001600160a01b0319909116811790915583529082905290206001018054640100000000600160c01b03191664010000000090920291909117905550565b60c08201516001600160a01b0316600090815260208190526040902060030154600160a01b900460ff161515600114801590610dae575060c08201516001600160a01b031633145b610def5760405162461bcd60e51b8152602060048201526012602482015271637573746f6d65722069732065786973747360701b604482015260640161056e565b6001600160a01b038116600090815260056020526040902054600163ffffffff90911610610e69576001600160a01b0381166000908152600560205260408120805460019290610e4690849063ffffffff166114f1565b92506101000a81548163ffffffff021916908363ffffffff160217905550610e90565b6001600160a01b0381166000908152600560205260409020805463ffffffff191660011790555b6001600160a01b0381166080830181905260009081526005602052604081205463ffffffff1660a08401526002805460019290610ed590849064ffffffffff166114c8565b92506101000a81548164ffffffffff021916908364ffffffffff1602179055503360016000600260009054906101000a900464ffffffffff1664ffffffffff1664ffffffffff16815260200190815260200160002060006101000a8154816001600160a01b0302191690836001600160a01b03160217905550600260009054906101000a900464ffffffffff16826060019064ffffffffff16908164ffffffffff1681525050816000808460c001516001600160a01b03166001600160a01b031681526020019081526020016000206000820151816000015560208201518160010160006101000a81548163ffffffff021916908363ffffffff16021790555060408201518160010160046101000a8154816001600160a01b0302191690836001600160a01b0316021790555060608201518160010160186101000a81548164ffffffffff021916908364ffffffffff16021790555060808201518160020160006101000a8154816001600160a01b0302191690836001600160a01b0316021790555060a08201518160020160146101000a81548163ffffffff021916908363ffffffff16021790555060c08201518160030160006101000a8154816001600160a01b0302191690836001600160a01b0316021790555060e08201518160030160146101000a81548160ff0219169083151502179055506101008201518160030160156101000a81548160ff0219169083151502179055509050503360066000836001600160a01b03166001600160a01b03168152602001908152602001600020600060056000856001600160a01b03166001600160a01b0316815260200190815260200160002060009054906101000a900463ffffffff1663ffffffff1663ffffffff16815260200190815260200160002060006101000a8154816001600160a01b0302191690836001600160a01b031602179055505050565b80356001600160a01b03811681146111a757600080fd5b919050565b6000602082840312156111be57600080fd5b6111c782611190565b9392505050565b604051610120810167ffffffffffffffff8111828210171561120057634e487b7160e01b600052604160045260246000fd5b60405290565b803563ffffffff811681146111a757600080fd5b803564ffffffffff811681146111a757600080fd5b801515811461123d57600080fd5b50565b80356111a78161122f565b6000610120828403121561125e57600080fd5b6112666111ce565b90508135815261127860208301611206565b602082015261128960408301611190565b604082015261129a6060830161121a565b60608201526112ab60808301611190565b60808201526112bc60a08301611206565b60a08201526112cd60c08301611190565b60c08201526112de60e08301611240565b60e08201526101006112f1818401611240565b9082015292915050565b6000610120828403121561130e57600080fd5b6111c7838361124b565b60006020828403121561132a57600080fd5b5035919050565b60006020828403121561134357600080fd5b6111c78261121a565b6000806040838503121561135f57600080fd5b61136883611190565b915061137660208401611206565b90509250929050565b8151815260208083015163ffffffff16908201526040808301516001600160a01b0316908201526060808301516101208301916113c49084018264ffffffffff169052565b5060808301516113df60808401826001600160a01b03169052565b5060a08301516113f760a084018263ffffffff169052565b5060c083015161141260c08401826001600160a01b03169052565b5060e083015161142660e084018215159052565b50610100928301511515919092015290565b600080610140838503121561144c57600080fd5b611456848461124b565b91506113766101208401611190565b60006020828403121561147757600080fd5b81516111c78161122f565b602080825260169082015275637573746f6d6572206973206e6f742065786973747360501b604082015260600190565b634e487b7160e01b600052601160045260246000fd5b600064ffffffffff8083168185168083038211156114e8576114e86114b2565b01949350505050565b600063ffffffff8083168185168083038211156114e8576114e86114b256fea264697066735822122030bc96a779271d0869055c0690ae17239bce54092f31077ba08bd987a86e4e5064736f6c634300080f0033",
    "sourcePath": "/Users/admin/Documents/gitworkplace/ttswap_core/ttswap_core/Contracts/MoonV1Customer.sol",
    "compiler": {
        "name": "solc",
        "version": "0.8.15+commit.e14f2714"
    },
    "functionHashes": {
        "addCustomer((bytes32,uint32,address,uint40,address,uint32,address,bool,bool))": "14f9e554",
        "addCustomer((bytes32,uint32,address,uint40,address,uint32,address,bool,bool),address)": "fc5f9f18",
        "addRelation(uint40)": "f3c86048",
        "customerList(address)": "f4274bc5",
        "customerUniKey(uint40)": "3e95003c",
        "customerUniNextKey()": "367b6dcc",
        "gateContractAddress()": "2f17d5df",
        "gateCustomerList(address,uint32)": "5cfeafa5",
        "gateCustomerNextKey(address)": "bc5c6134",
        "getCustomer(address)": "cb949e51",
        "getCustomerInfobyRecommander(address,uint32)": "8370aa81",
        "getCustomerNumbyRecommander(address)": "8a6df726",
        "getCustomerRecommander(address)": "e71957b9",
        "isValidCustomer(address)": "78166097",
        "lockCustomerbyMarketor(address)": "0138a661",
        "marketContractAddress()": "3087cbe3",
        "marketorContractAddress()": "492b7107",
        "recommenderraltionkey(address)": "e853f952",
        "recommenderraltionlist(address,uint32)": "a60832cd",
        "unlockCustomerbyMarketor(address)": "be5fdac8",
        "updateCustomerNeckName(bytes32)": "3b63b647"
    },
    "gasEstimates": {
        "creation": {
            "codeDepositCost": "1089200",
            "executionCost": "infinite",
            "totalCost": "infinite"
        },
        "external": {
            "addCustomer((bytes32,uint32,address,uint40,address,uint32,address,bool,bool))": "infinite",
            "addCustomer((bytes32,uint32,address,uint40,address,uint32,address,bool,bool),address)": "infinite",
            "addRelation(uint40)": "84476",
            "customerList(address)": "9359",
            "customerUniKey(uint40)": "2580",
            "customerUniNextKey()": "2425",
            "gateContractAddress()": "2394",
            "gateCustomerList(address,uint32)": "infinite",
            "gateCustomerNextKey(address)": "2623",
            "getCustomer(address)": "12153",
            "getCustomerInfobyRecommander(address,uint32)": "infinite",
            "getCustomerNumbyRecommander(address)": "2649",
            "getCustomerRecommander(address)": "4882",
            "isValidCustomer(address)": "2686",
            "lockCustomerbyMarketor(address)": "infinite",
            "marketContractAddress()": "2416",
            "marketorContractAddress()": "2393",
            "recommenderraltionkey(address)": "2600",
            "recommenderraltionlist(address,uint32)": "infinite",
            "unlockCustomerbyMarketor(address)": "infinite",
            "updateCustomerNeckName(bytes32)": "46798"
        }
    }
}