{
    "contractName": "MoonV1Customer",
    "abi": [
        {
            "inputs": [],
            "stateMutability": "nonpayable",
            "type": "constructor"
        },
        {
            "inputs": [
                {
                    "components": [
                        {
                            "internalType": "bytes32",
                            "name": "neckname",
                            "type": "bytes32"
                        },
                        {
                            "internalType": "uint32",
                            "name": "createtimestamp",
                            "type": "uint32"
                        },
                        {
                            "internalType": "address",
                            "name": "recommender",
                            "type": "address"
                        },
                        {
                            "internalType": "uint40",
                            "name": "customerKey",
                            "type": "uint40"
                        },
                        {
                            "internalType": "address",
                            "name": "Gater",
                            "type": "address"
                        },
                        {
                            "internalType": "uint32",
                            "name": "GaterKey",
                            "type": "uint32"
                        },
                        {
                            "internalType": "address",
                            "name": "contractAddress",
                            "type": "address"
                        },
                        {
                            "internalType": "bool",
                            "name": "isUsed",
                            "type": "bool"
                        },
                        {
                            "internalType": "bool",
                            "name": "unlock",
                            "type": "bool"
                        }
                    ],
                    "internalType": "struct LCustomer.Info",
                    "name": "_customer",
                    "type": "tuple"
                }
            ],
            "name": "addCustomer",
            "outputs": [],
            "stateMutability": "nonpayable",
            "type": "function"
        },
        {
            "inputs": [
                {
                    "components": [
                        {
                            "internalType": "bytes32",
                            "name": "neckname",
                            "type": "bytes32"
                        },
                        {
                            "internalType": "uint32",
                            "name": "createtimestamp",
                            "type": "uint32"
                        },
                        {
                            "internalType": "address",
                            "name": "recommender",
                            "type": "address"
                        },
                        {
                            "internalType": "uint40",
                            "name": "customerKey",
                            "type": "uint40"
                        },
                        {
                            "internalType": "address",
                            "name": "Gater",
                            "type": "address"
                        },
                        {
                            "internalType": "uint32",
                            "name": "GaterKey",
                            "type": "uint32"
                        },
                        {
                            "internalType": "address",
                            "name": "contractAddress",
                            "type": "address"
                        },
                        {
                            "internalType": "bool",
                            "name": "isUsed",
                            "type": "bool"
                        },
                        {
                            "internalType": "bool",
                            "name": "unlock",
                            "type": "bool"
                        }
                    ],
                    "internalType": "struct LCustomer.Info",
                    "name": "_customer",
                    "type": "tuple"
                },
                {
                    "internalType": "address",
                    "name": "_gater",
                    "type": "address"
                }
            ],
            "name": "addCustomer",
            "outputs": [],
            "stateMutability": "nonpayable",
            "type": "function"
        },
        {
            "inputs": [
                {
                    "components": [
                        {
                            "internalType": "address",
                            "name": "market",
                            "type": "address"
                        },
                        {
                            "internalType": "address",
                            "name": "gateAddress",
                            "type": "address"
                        },
                        {
                            "internalType": "uint160",
                            "name": "authority",
                            "type": "uint160"
                        },
                        {
                            "internalType": "bytes32",
                            "name": "name",
                            "type": "bytes32"
                        },
                        {
                            "internalType": "bytes32",
                            "name": "website",
                            "type": "bytes32"
                        },
                        {
                            "internalType": "bytes32[10]",
                            "name": "webserverip",
                            "type": "bytes32[10]"
                        },
                        {
                            "internalType": "uint32",
                            "name": "createtimestamp",
                            "type": "uint32"
                        },
                        {
                            "internalType": "bool",
                            "name": "marketunlock",
                            "type": "bool"
                        },
                        {
                            "internalType": "bool",
                            "name": "unlock",
                            "type": "bool"
                        },
                        {
                            "internalType": "bool",
                            "name": "isUsed",
                            "type": "bool"
                        }
                    ],
                    "internalType": "struct LGate.Info",
                    "name": "_gater",
                    "type": "tuple"
                }
            ],
            "name": "addGater",
            "outputs": [],
            "stateMutability": "nonpayable",
            "type": "function"
        },
        {
            "inputs": [
                {
                    "internalType": "uint40",
                    "name": "_recommanderUnikey",
                    "type": "uint40"
                }
            ],
            "name": "addRelation",
            "outputs": [],
            "stateMutability": "nonpayable",
            "type": "function"
        },
        {
            "inputs": [
                {
                    "internalType": "address",
                    "name": "",
                    "type": "address"
                }
            ],
            "name": "customerList",
            "outputs": [
                {
                    "internalType": "bytes32",
                    "name": "neckname",
                    "type": "bytes32"
                },
                {
                    "internalType": "uint32",
                    "name": "createtimestamp",
                    "type": "uint32"
                },
                {
                    "internalType": "address",
                    "name": "recommender",
                    "type": "address"
                },
                {
                    "internalType": "uint40",
                    "name": "customerKey",
                    "type": "uint40"
                },
                {
                    "internalType": "address",
                    "name": "Gater",
                    "type": "address"
                },
                {
                    "internalType": "uint32",
                    "name": "GaterKey",
                    "type": "uint32"
                },
                {
                    "internalType": "address",
                    "name": "contractAddress",
                    "type": "address"
                },
                {
                    "internalType": "bool",
                    "name": "isUsed",
                    "type": "bool"
                },
                {
                    "internalType": "bool",
                    "name": "unlock",
                    "type": "bool"
                }
            ],
            "stateMutability": "view",
            "type": "function"
        },
        {
            "inputs": [
                {
                    "internalType": "uint40",
                    "name": "",
                    "type": "uint40"
                }
            ],
            "name": "customerUniKey",
            "outputs": [
                {
                    "internalType": "address",
                    "name": "",
                    "type": "address"
                }
            ],
            "stateMutability": "view",
            "type": "function"
        },
        {
            "inputs": [],
            "name": "customerUniNextKey",
            "outputs": [
                {
                    "internalType": "uint40",
                    "name": "",
                    "type": "uint40"
                }
            ],
            "stateMutability": "view",
            "type": "function"
        },
        {
            "inputs": [
                {
                    "internalType": "address",
                    "name": "_gater",
                    "type": "address"
                }
            ],
            "name": "delGatebyMarketor",
            "outputs": [],
            "stateMutability": "nonpayable",
            "type": "function"
        },
        {
            "inputs": [
                {
                    "internalType": "address",
                    "name": "_owner",
                    "type": "address"
                }
            ],
            "name": "delMarketManager",
            "outputs": [],
            "stateMutability": "nonpayable",
            "type": "function"
        },
        {
            "inputs": [
                {
                    "internalType": "address",
                    "name": "",
                    "type": "address"
                },
                {
                    "internalType": "uint32",
                    "name": "",
                    "type": "uint32"
                }
            ],
            "name": "gateCustomerList",
            "outputs": [
                {
                    "internalType": "address",
                    "name": "",
                    "type": "address"
                }
            ],
            "stateMutability": "view",
            "type": "function"
        },
        {
            "inputs": [
                {
                    "internalType": "address",
                    "name": "",
                    "type": "address"
                }
            ],
            "name": "gateCustomerNextKey",
            "outputs": [
                {
                    "internalType": "uint32",
                    "name": "",
                    "type": "uint32"
                }
            ],
            "stateMutability": "view",
            "type": "function"
        },
        {
            "inputs": [
                {
                    "internalType": "address",
                    "name": "",
                    "type": "address"
                }
            ],
            "name": "gateList",
            "outputs": [
                {
                    "internalType": "address",
                    "name": "market",
                    "type": "address"
                },
                {
                    "internalType": "address",
                    "name": "gateAddress",
                    "type": "address"
                },
                {
                    "internalType": "uint160",
                    "name": "authority",
                    "type": "uint160"
                },
                {
                    "internalType": "bytes32",
                    "name": "name",
                    "type": "bytes32"
                },
                {
                    "internalType": "bytes32",
                    "name": "website",
                    "type": "bytes32"
                },
                {
                    "internalType": "uint32",
                    "name": "createtimestamp",
                    "type": "uint32"
                },
                {
                    "internalType": "bool",
                    "name": "marketunlock",
                    "type": "bool"
                },
                {
                    "internalType": "bool",
                    "name": "unlock",
                    "type": "bool"
                },
                {
                    "internalType": "bool",
                    "name": "isUsed",
                    "type": "bool"
                }
            ],
            "stateMutability": "view",
            "type": "function"
        },
        {
            "inputs": [
                {
                    "internalType": "address",
                    "name": "_CustomerAddress",
                    "type": "address"
                }
            ],
            "name": "getCustomer",
            "outputs": [
                {
                    "components": [
                        {
                            "internalType": "bytes32",
                            "name": "neckname",
                            "type": "bytes32"
                        },
                        {
                            "internalType": "uint32",
                            "name": "createtimestamp",
                            "type": "uint32"
                        },
                        {
                            "internalType": "address",
                            "name": "recommender",
                            "type": "address"
                        },
                        {
                            "internalType": "uint40",
                            "name": "customerKey",
                            "type": "uint40"
                        },
                        {
                            "internalType": "address",
                            "name": "Gater",
                            "type": "address"
                        },
                        {
                            "internalType": "uint32",
                            "name": "GaterKey",
                            "type": "uint32"
                        },
                        {
                            "internalType": "address",
                            "name": "contractAddress",
                            "type": "address"
                        },
                        {
                            "internalType": "bool",
                            "name": "isUsed",
                            "type": "bool"
                        },
                        {
                            "internalType": "bool",
                            "name": "unlock",
                            "type": "bool"
                        }
                    ],
                    "internalType": "struct LCustomer.Info",
                    "name": "",
                    "type": "tuple"
                }
            ],
            "stateMutability": "view",
            "type": "function"
        },
        {
            "inputs": [
                {
                    "internalType": "address",
                    "name": "_recommander",
                    "type": "address"
                },
                {
                    "internalType": "uint32",
                    "name": "_cumstomerindex",
                    "type": "uint32"
                }
            ],
            "name": "getCustomerInfobyRecommander",
            "outputs": [
                {
                    "internalType": "address",
                    "name": "",
                    "type": "address"
                }
            ],
            "stateMutability": "view",
            "type": "function"
        },
        {
            "inputs": [
                {
                    "internalType": "address",
                    "name": "_recommander",
                    "type": "address"
                }
            ],
            "name": "getCustomerNumbyRecommander",
            "outputs": [
                {
                    "internalType": "uint32",
                    "name": "",
                    "type": "uint32"
                }
            ],
            "stateMutability": "view",
            "type": "function"
        },
        {
            "inputs": [
                {
                    "internalType": "address",
                    "name": "_customer",
                    "type": "address"
                }
            ],
            "name": "getCustomerRecommander",
            "outputs": [
                {
                    "internalType": "address",
                    "name": "",
                    "type": "address"
                }
            ],
            "stateMutability": "view",
            "type": "function"
        },
        {
            "inputs": [
                {
                    "internalType": "address",
                    "name": "_CustomerAddress",
                    "type": "address"
                }
            ],
            "name": "isValidCustomer",
            "outputs": [
                {
                    "internalType": "bool",
                    "name": "",
                    "type": "bool"
                }
            ],
            "stateMutability": "view",
            "type": "function"
        },
        {
            "inputs": [],
            "name": "isValidGater",
            "outputs": [
                {
                    "internalType": "bool",
                    "name": "",
                    "type": "bool"
                }
            ],
            "stateMutability": "view",
            "type": "function"
        },
        {
            "inputs": [],
            "name": "ismarketManager",
            "outputs": [
                {
                    "internalType": "bool",
                    "name": "",
                    "type": "bool"
                }
            ],
            "stateMutability": "view",
            "type": "function"
        },
        {
            "inputs": [
                {
                    "internalType": "address",
                    "name": "_CustomerAddress",
                    "type": "address"
                }
            ],
            "name": "lockCustomerbyMarketor",
            "outputs": [],
            "stateMutability": "nonpayable",
            "type": "function"
        },
        {
            "inputs": [],
            "name": "lockGatebyGater",
            "outputs": [],
            "stateMutability": "nonpayable",
            "type": "function"
        },
        {
            "inputs": [
                {
                    "internalType": "address",
                    "name": "_gateraddress",
                    "type": "address"
                }
            ],
            "name": "lockGatebyMarketor",
            "outputs": [],
            "stateMutability": "nonpayable",
            "type": "function"
        },
        {
            "inputs": [],
            "name": "marketCreator",
            "outputs": [
                {
                    "internalType": "address",
                    "name": "",
                    "type": "address"
                }
            ],
            "stateMutability": "view",
            "type": "function"
        },
        {
            "inputs": [
                {
                    "internalType": "address",
                    "name": "",
                    "type": "address"
                }
            ],
            "name": "marketManagers",
            "outputs": [
                {
                    "internalType": "bool",
                    "name": "",
                    "type": "bool"
                }
            ],
            "stateMutability": "view",
            "type": "function"
        },
        {
            "inputs": [
                {
                    "internalType": "address",
                    "name": "",
                    "type": "address"
                }
            ],
            "name": "recommenderraltionkey",
            "outputs": [
                {
                    "internalType": "uint32",
                    "name": "",
                    "type": "uint32"
                }
            ],
            "stateMutability": "view",
            "type": "function"
        },
        {
            "inputs": [
                {
                    "internalType": "address",
                    "name": "",
                    "type": "address"
                },
                {
                    "internalType": "uint32",
                    "name": "",
                    "type": "uint32"
                }
            ],
            "name": "recommenderraltionlist",
            "outputs": [
                {
                    "internalType": "address",
                    "name": "",
                    "type": "address"
                }
            ],
            "stateMutability": "view",
            "type": "function"
        },
        {
            "inputs": [
                {
                    "internalType": "address",
                    "name": "_owner",
                    "type": "address"
                }
            ],
            "name": "setMarketManager",
            "outputs": [],
            "stateMutability": "nonpayable",
            "type": "function"
        },
        {
            "inputs": [
                {
                    "internalType": "address",
                    "name": "_CustomerAddress",
                    "type": "address"
                }
            ],
            "name": "unlockCustomerbyMarketor",
            "outputs": [],
            "stateMutability": "nonpayable",
            "type": "function"
        },
        {
            "inputs": [],
            "name": "unlockGatebyGater",
            "outputs": [],
            "stateMutability": "nonpayable",
            "type": "function"
        },
        {
            "inputs": [
                {
                    "internalType": "address",
                    "name": "_gateraddress",
                    "type": "address"
                }
            ],
            "name": "unlockGatebyMarketor",
            "outputs": [],
            "stateMutability": "nonpayable",
            "type": "function"
        },
        {
            "inputs": [
                {
                    "internalType": "bytes32",
                    "name": "_newname",
                    "type": "bytes32"
                }
            ],
            "name": "updateCustomerNeckName",
            "outputs": [],
            "stateMutability": "nonpayable",
            "type": "function"
        },
        {
            "inputs": [
                {
                    "components": [
                        {
                            "internalType": "address",
                            "name": "market",
                            "type": "address"
                        },
                        {
                            "internalType": "address",
                            "name": "gateAddress",
                            "type": "address"
                        },
                        {
                            "internalType": "uint160",
                            "name": "authority",
                            "type": "uint160"
                        },
                        {
                            "internalType": "bytes32",
                            "name": "name",
                            "type": "bytes32"
                        },
                        {
                            "internalType": "bytes32",
                            "name": "website",
                            "type": "bytes32"
                        },
                        {
                            "internalType": "bytes32[10]",
                            "name": "webserverip",
                            "type": "bytes32[10]"
                        },
                        {
                            "internalType": "uint32",
                            "name": "createtimestamp",
                            "type": "uint32"
                        },
                        {
                            "internalType": "bool",
                            "name": "marketunlock",
                            "type": "bool"
                        },
                        {
                            "internalType": "bool",
                            "name": "unlock",
                            "type": "bool"
                        },
                        {
                            "internalType": "bool",
                            "name": "isUsed",
                            "type": "bool"
                        }
                    ],
                    "internalType": "struct LGate.Info",
                    "name": "_gater",
                    "type": "tuple"
                }
            ],
            "name": "updateGatebyGator",
            "outputs": [],
            "stateMutability": "nonpayable",
            "type": "function"
        },
        {
            "inputs": [
                {
                    "components": [
                        {
                            "internalType": "address",
                            "name": "market",
                            "type": "address"
                        },
                        {
                            "internalType": "address",
                            "name": "gateAddress",
                            "type": "address"
                        },
                        {
                            "internalType": "uint160",
                            "name": "authority",
                            "type": "uint160"
                        },
                        {
                            "internalType": "bytes32",
                            "name": "name",
                            "type": "bytes32"
                        },
                        {
                            "internalType": "bytes32",
                            "name": "website",
                            "type": "bytes32"
                        },
                        {
                            "internalType": "bytes32[10]",
                            "name": "webserverip",
                            "type": "bytes32[10]"
                        },
                        {
                            "internalType": "uint32",
                            "name": "createtimestamp",
                            "type": "uint32"
                        },
                        {
                            "internalType": "bool",
                            "name": "marketunlock",
                            "type": "bool"
                        },
                        {
                            "internalType": "bool",
                            "name": "unlock",
                            "type": "bool"
                        },
                        {
                            "internalType": "bool",
                            "name": "isUsed",
                            "type": "bool"
                        }
                    ],
                    "internalType": "struct LGate.Info",
                    "name": "_gater",
                    "type": "tuple"
                }
            ],
            "name": "updateGatebyMarketor",
            "outputs": [],
            "stateMutability": "nonpayable",
            "type": "function"
        }
    ],
    "bytecode": "60a060405234801561001057600080fd5b503360805260805161219d61003e60003960008181610256015281816109ab01526111ce015261219d6000f3fe608060405234801561001057600080fd5b50600436106101fb5760003560e01c80638a6df7261161011a578063d82aff11116100ad578063f1c9f40f1161007c578063f1c9f40f1461060b578063f3a4253714610613578063f3c8604814610626578063f4274bc514610639578063fc5f9f181461071e57600080fd5b8063d82aff11146105ac578063d8feb7ff146105bf578063e71957b9146105d2578063e853f952146105e557600080fd5b8063b614984d116100e9578063b614984d14610540578063bc5c613414610553578063be5fdac814610579578063cb949e511461058c57600080fd5b80638a6df726146104af578063a4786088146104d7578063a60832cd146104ea578063ab3acb5c1461051e57600080fd5b80633e95003c11610192578063753c518811610161578063753c518814610430578063769413001461045357806378166097146104665780638370aa811461049c57600080fd5b80633e95003c146102e557806345df49871461030e5780635cfeafa5146103e957806371271f4d1461041d57600080fd5b80632b890543116101ce5780632b89054314610290578063367b6dcc146102a35780633b63b647146102ca5780633bbae141146102dd57600080fd5b80630138a661146102005780631487f2521461021557806314f9e5541461023e57806327cbaabe14610251575b600080fd5b61021361020e366004611c65565b610731565b005b3360009081526020819052604090205460ff165b60405190151581526020015b60405180910390f35b61021361024c366004611dd6565b6107c9565b6102787f000000000000000000000000000000000000000000000000000000000000000081565b6040516001600160a01b039091168152602001610235565b61021361029e366004611c65565b6109a0565b6004546102b49064ffffffffff1681565b60405164ffffffffff9091168152602001610235565b6102136102d8366004611df3565b6109f6565b610213610a5b565b6102786102f3366004611e0c565b6003602052600090815260409020546001600160a01b031681565b61038a61031c366004611c65565b6001602081905260009182526040909120805491810154600282015460038301546004840154600f909401546001600160a01b039586169593841694929093169290919063ffffffff81169060ff600160201b8204811691600160281b8104821691600160301b9091041689565b604080516001600160a01b039a8b168152988a1660208a015296909816958701959095526060860193909352608085019190915263ffffffff1660a0840152151560c0830152151560e082015290151561010082015261012001610235565b6102786103f7366004611e27565b60086020908152600092835260408084209091529082529020546001600160a01b031681565b61021361042b366004611eca565b610b13565b61022961043e366004611c65565b60006020819052908152604090205460ff1681565b610213610461366004611c65565b610cc8565b610229610474366004611c65565b6001600160a01b0316600090815260026020526040902060030154600160a01b900460ff1690565b6102786104aa366004611e27565b610d59565b6104c26104bd366004611c65565b610ddd565b60405163ffffffff9091168152602001610235565b6102136104e5366004611c65565b610e52565b6102786104f8366004611e27565b60066020908152600092835260408084209091529082529020546001600160a01b031681565b336000908152600160205260409020600f0154600160201b900460ff16610229565b61021361054e366004611c65565b610ee9565b6104c2610561366004611c65565b60076020526000908152604090205463ffffffff1681565b610213610587366004611c65565b610fc2565b61059f61059a366004611c65565b611057565b6040516102359190611f89565b6102136105ba366004611c65565b6111c3565b6102136105cd366004611eca565b61121c565b6102786105e0366004611c65565b611353565b6104c26105f3366004611c65565b60056020526000908152604090205463ffffffff1681565b6102136113ed565b610213610621366004611eca565b61149f565b610213610634366004611e0c565b611619565b6106bd610647366004611c65565b60026020819052600091825260409091208054600182015492820154600390920154909263ffffffff80821693600160201b83046001600160a01b0390811694600160c01b90940464ffffffffff169381831693600160a01b93849004169291811691810460ff90811691600160a81b90041689565b60408051998a5263ffffffff98891660208b01526001600160a01b03978816908a015264ffffffffff90951660608901529285166080880152941660a08601529190921660c0840152151560e0830152151561010082015261012001610235565b61021361072c366004612042565b6117b0565b3360009081526020819052604090205460ff16151560011461075257600080fd5b6001600160a01b038116600090815260026020526040902060030154600160a01b900460ff1615156001036107a25760405162461bcd60e51b81526004016107999061207c565b60405180910390fd5b6001600160a01b03166000908152600260205260409020600301805460ff60a81b19169055565b60c08101516001600160a01b0316600090815260026020526040902060030154600160a01b900460ff161515600114801590610811575060c08101516001600160a01b031633145b6108525760405162461bcd60e51b8152602060048201526012602482015271637573746f6d65722069732065786973747360701b6044820152606401610799565b600480546001919060009061086f90849064ffffffffff166120c2565b825464ffffffffff91821661010093840a9081029083021990911617909255600480548316600090815260036020818152604080842080546001600160a01b03191633179055935486166060890190815260c0890180516001600160a01b0390811686526002808552958790208b518155938b0151600185018054988d01519451909a16600160c01b0264ffffffffff60c01b19948316600160201b026001600160c01b0319998a1663ffffffff9384161717949094169390931790985560808a0151948301805460a08c0151909316600160a01b90810293909716958916959095179190911790935591519101805460e088015197909401511515600160a81b0260ff60a81b199715159093026001600160a81b0319909416919094161791909117939093169290921790915550565b336001600160a01b037f000000000000000000000000000000000000000000000000000000000000000016146109d557600080fd5b6001600160a01b03166000908152602081905260409020805460ff19169055565b33600081815260026020526040902060030180546001600160a01b038116909214600160a01b810260ff60a01b19909316929092179055610a495760405162461bcd60e51b81526004016107999061207c565b33600090815260026020526040902055565b336000908152600160208190526040909120600f0154600160201b900460ff16151514610a8757600080fd5b336000908152600160208190526040909120600f0154600160301b900460ff161515148015610ad0575033600081815260016020819052604090912001546001600160a01b0316145b610aec5760405162461bcd60e51b8152600401610799906120eb565b336000908152600160205260409020600f01805465ff00000000001916600160281b179055565b3360009081526020819052604090205460ff161515600114610b3457600080fd5b6020818101516001600160a01b0316600090815260019182905260409020600f0154600160301b900460ff16151514610b7f5760405162461bcd60e51b81526004016107999061211a565b602081810180516001600160a01b03908116600090815260018085526040808320600f90810154600160201b900460ff908116151560e08a015286518616855283885282852090910154600160281b90041615156101008801528451841683529481905290849020855181546001600160a01b031990811691851691909117825593519181018054851692841692909217909155928401516002840180549093169116179055606082015160038201556080820151600482015560a0820151829190610c51906005830190600a611bdb565b5060c0820151600f909101805460e0840151610100850151610120909501511515600160301b0266ff00000000000019951515600160281b029590951666ffff000000000019911515600160201b0264ffffffffff1990931663ffffffff9095169490941791909117169190911791909117905550565b3360009081526020819052604090205460ff161515600114610ce957600080fd5b6001600160a01b0381166000908152600160208190526040909120600f0154600160301b900460ff16151514610d315760405162461bcd60e51b8152600401610799906120eb565b6001600160a01b03166000908152600160205260409020600f01805464ff0000000019169055565b60006001600160a01b038316610dac5760405162461bcd60e51b815260206004820152601860248201527718dd5cdd1bdb595c881859191c995cdcc81a5cc81b9d5b1b60421b6044820152606401610799565b506001600160a01b03918216600090815260066020908152604080832063ffffffff94909416835292905220541690565b60006001600160a01b038216610e305760405162461bcd60e51b815260206004820152601860248201527718dd5cdd1bdb595c881859191c995cdcc81a5cc81b9d5b1b60421b6044820152606401610799565b506001600160a01b031660009081526005602052604090205463ffffffff1690565b3360009081526020819052604090205460ff161515600114610e7357600080fd5b6001600160a01b0381166000908152600160208190526040909120600f0154600160301b900460ff16151514610ebb5760405162461bcd60e51b8152600401610799906120eb565b6001600160a01b03166000908152600160205260409020600f01805464ff000000001916600160201b179055565b3360009081526020819052604090205460ff161515600114610f0a57600080fd5b6001600160a01b0381166000908152600160208190526040909120600f0154600160301b900460ff16151514610f525760405162461bcd60e51b81526004016107999061211a565b6001600160a01b0381166000908152600160208190526040822080546001600160a01b03199081168255918101805483169055600281018054909216909155600381018290556004810182905590610fad6005830182611c19565b50600f01805466ffffffffffffff1916905550565b3360009081526020819052604090205460ff161515600114610fe357600080fd5b6001600160a01b038116600090815260026020526040902060030154600160a01b900460ff16151560010361102a5760405162461bcd60e51b81526004016107999061207c565b6001600160a01b03166000908152600260205260409020600301805460ff60a81b1916600160a81b179055565b6040805161012081018252600080825260208201819052918101829052606081018290526080810182905260a0810182905260c0810182905260e081018290526101008101919091526001600160a01b038216600090815260026020526040902060030154600160a01b900460ff1615156001146111115760405162461bcd60e51b815260206004820152601760248201527620437573746f6d6572206973206e6f742065786973747360481b6044820152606401610799565b506001600160a01b0390811660009081526002602081815260409283902083516101208101855281548152600182015463ffffffff80821694830194909452600160201b8104871695820195909552600160c01b90940464ffffffffff166060850152918201548085166080850152600160a01b9081900490911660a084015260039091015492831660c0830152820460ff908116151560e0830152600160a81b909204909116151561010082015290565b336001600160a01b037f000000000000000000000000000000000000000000000000000000000000000016146111f857600080fd5b6001600160a01b03166000908152602081905260409020805460ff19166001179055565b6020818101516001600160a01b0316600090815260019182905260409020600f0154600160301b900460ff16151590036112685760405162461bcd60e51b81526004016107999061211a565b60208101516001600160a01b031633146112b85760405162461bcd60e51b81526020600482015260116024820152703a34329033b0ba32b91034b9903cb7bab960791b6044820152606401610799565b600060e082018190526101008201819052602080830180516001600160a01b039081168452600192839052604093849020855181549083166001600160a01b031991821617825592519381018054948316948416949094179093559284015160028301805491909416911617909155606082015160038201556080820151600482015560a0820151829190610c51906005830190600a611bdb565b6001600160a01b038116600090815260026020526040812060030154600160a01b900460ff1615156001146113c45760405162461bcd60e51b815260206004820152601760248201527620437573746f6d6572206973206e6f742065786973747360481b6044820152606401610799565b506001600160a01b03908116600090815260026020526040902060010154600160201b90041690565b336000908152600160208190526040909120600f0154600160201b900460ff1615151461141957600080fd5b336000908152600160208190526040909120600f0154600160301b900460ff161515148015611462575033600081815260016020819052604090912001546001600160a01b0316145b61147e5760405162461bcd60e51b8152600401610799906120eb565b336000908152600160205260409020600f01805465ff000000000019169055565b336000908152600160208190526040909120600f0154600160201b900460ff161515146114cb57600080fd5b6020818101516001600160a01b0316600090815260019182905260409020600f0154600160301b900460ff161515146115165760405162461bcd60e51b81526004016107999061211a565b6020808201516001600160a01b039081166000908152600192839052604090209091015416331461157d5760405162461bcd60e51b81526020600482015260116024820152703a34329033b0ba32b91034b9903cb7bab960791b6044820152606401610799565b600060e0820181905260016101008301819052602080840180516001600160a01b03908116855291839052604093849020855181546001600160a01b03199081169185169190911782559151938101805483169484169490941790935592840151600283018054909416911617909155606082015160038201556080820151600482015560a0820151829190610c51906005830190600a611bdb565b33600090815260026020526040902060010154600160201b90046001600160a01b0316156116895760405162461bcd60e51b815260206004820152601f60248201527f74686520637573746f6d6572207265636f6d6d656e64657220657869737473006044820152606401610799565b64ffffffffff81166000908152600360209081526040808320546001600160a01b0316808452600590925290912054600163ffffffff90911610611719576001600160a01b03811660009081526005602052604081208054600192906116f690849063ffffffff16612148565b92506101000a81548163ffffffff021916908363ffffffff160217905550611740565b6001600160a01b0381166000908152600560205260409020805463ffffffff191660011790555b6001600160a01b03166000818152600660209081526040808320600583528184205463ffffffff16845282528083208054336001600160a01b031990911681179091558352600290915290206001018054640100000000600160c01b031916600160201b90920291909117905550565b60c08201516001600160a01b0316600090815260026020526040902060030154600160a01b900460ff1615156001148015906117f8575060c08201516001600160a01b031633145b6118395760405162461bcd60e51b8152602060048201526012602482015271637573746f6d65722069732065786973747360701b6044820152606401610799565b6001600160a01b038116600090815260076020526040902054600163ffffffff909116106118b3576001600160a01b038116600090815260076020526040812080546001929061189090849063ffffffff16612148565b92506101000a81548163ffffffff021916908363ffffffff1602179055506118da565b6001600160a01b0381166000908152600760205260409020805463ffffffff191660011790555b6001600160a01b0381166080830181905260009081526007602052604081205463ffffffff1660a0840152600480546001929061191f90849064ffffffffff166120c2565b92506101000a81548164ffffffffff021916908364ffffffffff1602179055503360036000600460009054906101000a900464ffffffffff1664ffffffffff1664ffffffffff16815260200190815260200160002060006101000a8154816001600160a01b0302191690836001600160a01b03160217905550600460009054906101000a900464ffffffffff16826060019064ffffffffff16908164ffffffffff168152505081600260008460c001516001600160a01b03166001600160a01b031681526020019081526020016000206000820151816000015560208201518160010160006101000a81548163ffffffff021916908363ffffffff16021790555060408201518160010160046101000a8154816001600160a01b0302191690836001600160a01b0316021790555060608201518160010160186101000a81548164ffffffffff021916908364ffffffffff16021790555060808201518160020160006101000a8154816001600160a01b0302191690836001600160a01b0316021790555060a08201518160020160146101000a81548163ffffffff021916908363ffffffff16021790555060c08201518160030160006101000a8154816001600160a01b0302191690836001600160a01b0316021790555060e08201518160030160146101000a81548160ff0219169083151502179055506101008201518160030160156101000a81548160ff0219169083151502179055509050503360086000836001600160a01b03166001600160a01b03168152602001908152602001600020600060076000856001600160a01b03166001600160a01b0316815260200190815260200160002060009054906101000a900463ffffffff1663ffffffff1663ffffffff16815260200190815260200160002060006101000a8154816001600160a01b0302191690836001600160a01b031602179055505050565b82600a8101928215611c09579160200282015b82811115611c09578251825591602001919060010190611bee565b50611c15929150611c2b565b5090565b50611c2890600a810190611c2b565b50565b5b80821115611c155760008155600101611c2c565b6001600160a01b0381168114611c2857600080fd5b8035611c6081611c40565b919050565b600060208284031215611c7757600080fd5b8135611c8281611c40565b9392505050565b634e487b7160e01b600052604160045260246000fd5b604051610120810167ffffffffffffffff81118282101715611cc357611cc3611c89565b60405290565b604051610140810167ffffffffffffffff81118282101715611cc357611cc3611c89565b803563ffffffff81168114611c6057600080fd5b803564ffffffffff81168114611c6057600080fd5b80358015158114611c6057600080fd5b60006101208284031215611d3957600080fd5b611d41611c9f565b905081358152611d5360208301611ced565b6020820152611d6460408301611c55565b6040820152611d7560608301611d01565b6060820152611d8660808301611c55565b6080820152611d9760a08301611ced565b60a0820152611da860c08301611c55565b60c0820152611db960e08301611d16565b60e0820152610100611dcc818401611d16565b9082015292915050565b60006101208284031215611de957600080fd5b611c828383611d26565b600060208284031215611e0557600080fd5b5035919050565b600060208284031215611e1e57600080fd5b611c8282611d01565b60008060408385031215611e3a57600080fd5b8235611e4581611c40565b9150611e5360208401611ced565b90509250929050565b600082601f830112611e6d57600080fd5b60405161014080820182811067ffffffffffffffff82111715611e9257611e92611c89565b60405283018185821115611ea557600080fd5b845b82811015611ebf578035825260209182019101611ea7565b509195945050505050565b60006102608284031215611edd57600080fd5b611ee5611cc9565b611eee83611c55565b8152611efc60208401611c55565b6020820152611f0d60408401611c55565b60408201526060830135606082015260808301356080820152611f338460a08501611e5c565b60a0820152611f456101e08401611ced565b60c0820152611f576102008401611d16565b60e0820152611f696102208401611d16565b610100820152611f7c6102408401611d16565b6101208201529392505050565b8151815260208083015163ffffffff16908201526040808301516001600160a01b031690820152606080830151610120830191611fce9084018264ffffffffff169052565b506080830151611fe960808401826001600160a01b03169052565b5060a083015161200160a084018263ffffffff169052565b5060c083015161201c60c08401826001600160a01b03169052565b5060e083015161203060e084018215159052565b50610100928301511515919092015290565b600080610140838503121561205657600080fd5b6120608484611d26565b915061012083013561207181611c40565b809150509250929050565b602080825260169082015275637573746f6d6572206973206e6f742065786973747360501b604082015260600190565b634e487b7160e01b600052601160045260246000fd5b600064ffffffffff8083168185168083038211156120e2576120e26120ac565b01949350505050565b6020808252601590820152741d1a194819d85d195c881a5cdb9bdd08195e1a5cdd605a1b604082015260600190565b6020808252601490820152733a34329033b0ba32b91034b99032bc34b9ba32b960611b604082015260600190565b600063ffffffff8083168185168083038211156120e2576120e26120ac56fea26469706673582212204d9df7c6f6f30f3f58016a0ab401cf8129c31bf6bb7a28bf431101d9ad8bbf1564736f6c634300080f0033",
    "sourcePath": "/Users/admin/Documents/gitworkplace/ttswap_core/ttswap_core/Contracts/MoonV1Customer.sol",
    "compiler": {
        "name": "solc",
        "version": "0.8.15+commit.e14f2714"
    },
    "functionHashes": {
        "addCustomer((bytes32,uint32,address,uint40,address,uint32,address,bool,bool))": "14f9e554",
        "addCustomer((bytes32,uint32,address,uint40,address,uint32,address,bool,bool),address)": "fc5f9f18",
        "addGater((address,address,uint160,bytes32,bytes32,bytes32[10],uint32,bool,bool,bool))": "d8feb7ff",
        "addRelation(uint40)": "f3c86048",
        "customerList(address)": "f4274bc5",
        "customerUniKey(uint40)": "3e95003c",
        "customerUniNextKey()": "367b6dcc",
        "delGatebyMarketor(address)": "b614984d",
        "delMarketManager(address)": "2b890543",
        "gateCustomerList(address,uint32)": "5cfeafa5",
        "gateCustomerNextKey(address)": "bc5c6134",
        "gateList(address)": "45df4987",
        "getCustomer(address)": "cb949e51",
        "getCustomerInfobyRecommander(address,uint32)": "8370aa81",
        "getCustomerNumbyRecommander(address)": "8a6df726",
        "getCustomerRecommander(address)": "e71957b9",
        "isValidCustomer(address)": "78166097",
        "isValidGater()": "ab3acb5c",
        "ismarketManager()": "1487f252",
        "lockCustomerbyMarketor(address)": "0138a661",
        "lockGatebyGater()": "3bbae141",
        "lockGatebyMarketor(address)": "a4786088",
        "marketCreator()": "27cbaabe",
        "marketManagers(address)": "753c5188",
        "recommenderraltionkey(address)": "e853f952",
        "recommenderraltionlist(address,uint32)": "a60832cd",
        "setMarketManager(address)": "d82aff11",
        "unlockCustomerbyMarketor(address)": "be5fdac8",
        "unlockGatebyGater()": "f1c9f40f",
        "unlockGatebyMarketor(address)": "76941300",
        "updateCustomerNeckName(bytes32)": "3b63b647",
        "updateGatebyGator((address,address,uint160,bytes32,bytes32,bytes32[10],uint32,bool,bool,bool))": "f3a42537",
        "updateGatebyMarketor((address,address,uint160,bytes32,bytes32,bytes32[10],uint32,bool,bool,bool))": "71271f4d"
    },
    "gasEstimates": {
        "creation": {
            "codeDepositCost": "1721000",
            "executionCost": "infinite",
            "totalCost": "infinite"
        },
        "external": {
            "addCustomer((bytes32,uint32,address,uint40,address,uint32,address,bool,bool))": "infinite",
            "addCustomer((bytes32,uint32,address,uint40,address,uint32,address,bool,bool),address)": "infinite",
            "addGater((address,address,uint160,bytes32,bytes32,bytes32[10],uint32,bool,bool,bool))": "infinite",
            "addRelation(uint40)": "84494",
            "customerList(address)": "9365",
            "customerUniKey(uint40)": "2592",
            "customerUniNextKey()": "2381",
            "delGatebyMarketor(address)": "infinite",
            "delMarketManager(address)": "infinite",
            "gateCustomerList(address,uint32)": "2804",
            "gateCustomerNextKey(address)": "2595",
            "gateList(address)": "13513",
            "getCustomer(address)": "12248",
            "getCustomerInfobyRecommander(address,uint32)": "2895",
            "getCustomerNumbyRecommander(address)": "2644",
            "getCustomerRecommander(address)": "4932",
            "isValidCustomer(address)": "2644",
            "isValidGater()": "2496",
            "ismarketManager()": "2422",
            "lockCustomerbyMarketor(address)": "29108",
            "lockGatebyGater()": "31250",
            "lockGatebyMarketor(address)": "29141",
            "marketCreator()": "infinite",
            "marketManagers(address)": "2562",
            "recommenderraltionkey(address)": "2639",
            "recommenderraltionlist(address,uint32)": "2804",
            "setMarketManager(address)": "infinite",
            "unlockCustomerbyMarketor(address)": "29162",
            "unlockGatebyGater()": "31170",
            "unlockGatebyMarketor(address)": "29128",
            "updateCustomerNeckName(bytes32)": "46859",
            "updateGatebyGator((address,address,uint160,bytes32,bytes32,bytes32[10],uint32,bool,bool,bool))": "infinite",
            "updateGatebyMarketor((address,address,uint160,bytes32,bytes32,bytes32[10],uint32,bool,bool,bool))": "infinite"
        }
    }
}