{
    "contractName": "MoonV1Gater",
    "abi": [
        {
            "inputs": [
                {
                    "internalType": "address",
                    "name": "_marketContractAddress",
                    "type": "address"
                },
                {
                    "internalType": "address",
                    "name": "_gateContractAddress",
                    "type": "address"
                },
                {
                    "internalType": "address",
                    "name": "_marketorContractAddress",
                    "type": "address"
                }
            ],
            "stateMutability": "nonpayable",
            "type": "constructor"
        },
        {
            "inputs": [
                {
                    "components": [
                        {
                            "internalType": "address",
                            "name": "market",
                            "type": "address"
                        },
                        {
                            "internalType": "address",
                            "name": "gateAddress",
                            "type": "address"
                        },
                        {
                            "internalType": "uint160",
                            "name": "authority",
                            "type": "uint160"
                        },
                        {
                            "internalType": "bytes32",
                            "name": "name",
                            "type": "bytes32"
                        },
                        {
                            "internalType": "bytes32",
                            "name": "website",
                            "type": "bytes32"
                        },
                        {
                            "internalType": "bytes32[10]",
                            "name": "webserverip",
                            "type": "bytes32[10]"
                        },
                        {
                            "internalType": "uint32",
                            "name": "createtimestamp",
                            "type": "uint32"
                        },
                        {
                            "internalType": "bool",
                            "name": "marketunlock",
                            "type": "bool"
                        },
                        {
                            "internalType": "bool",
                            "name": "unlock",
                            "type": "bool"
                        },
                        {
                            "internalType": "bool",
                            "name": "isUsed",
                            "type": "bool"
                        }
                    ],
                    "internalType": "struct LGate.Info",
                    "name": "_gater",
                    "type": "tuple"
                }
            ],
            "name": "addGater",
            "outputs": [],
            "stateMutability": "nonpayable",
            "type": "function"
        },
        {
            "inputs": [
                {
                    "internalType": "address",
                    "name": "_gater",
                    "type": "address"
                }
            ],
            "name": "delGatebyMarketor",
            "outputs": [],
            "stateMutability": "nonpayable",
            "type": "function"
        },
        {
            "inputs": [],
            "name": "gateContractAddress",
            "outputs": [
                {
                    "internalType": "address",
                    "name": "",
                    "type": "address"
                }
            ],
            "stateMutability": "view",
            "type": "function"
        },
        {
            "inputs": [
                {
                    "internalType": "address",
                    "name": "",
                    "type": "address"
                }
            ],
            "name": "gateList",
            "outputs": [
                {
                    "internalType": "address",
                    "name": "market",
                    "type": "address"
                },
                {
                    "internalType": "address",
                    "name": "gateAddress",
                    "type": "address"
                },
                {
                    "internalType": "uint160",
                    "name": "authority",
                    "type": "uint160"
                },
                {
                    "internalType": "bytes32",
                    "name": "name",
                    "type": "bytes32"
                },
                {
                    "internalType": "bytes32",
                    "name": "website",
                    "type": "bytes32"
                },
                {
                    "internalType": "uint32",
                    "name": "createtimestamp",
                    "type": "uint32"
                },
                {
                    "internalType": "bool",
                    "name": "marketunlock",
                    "type": "bool"
                },
                {
                    "internalType": "bool",
                    "name": "unlock",
                    "type": "bool"
                },
                {
                    "internalType": "bool",
                    "name": "isUsed",
                    "type": "bool"
                }
            ],
            "stateMutability": "view",
            "type": "function"
        },
        {
            "inputs": [],
            "name": "isValidGater",
            "outputs": [
                {
                    "internalType": "bool",
                    "name": "",
                    "type": "bool"
                }
            ],
            "stateMutability": "view",
            "type": "function"
        },
        {
            "inputs": [],
            "name": "lockGatebyGater",
            "outputs": [],
            "stateMutability": "nonpayable",
            "type": "function"
        },
        {
            "inputs": [
                {
                    "internalType": "address",
                    "name": "_gateraddress",
                    "type": "address"
                }
            ],
            "name": "lockGatebyMarketor",
            "outputs": [],
            "stateMutability": "nonpayable",
            "type": "function"
        },
        {
            "inputs": [],
            "name": "marketContractAddress",
            "outputs": [
                {
                    "internalType": "address",
                    "name": "",
                    "type": "address"
                }
            ],
            "stateMutability": "view",
            "type": "function"
        },
        {
            "inputs": [],
            "name": "marketorContractAddress",
            "outputs": [
                {
                    "internalType": "address",
                    "name": "",
                    "type": "address"
                }
            ],
            "stateMutability": "view",
            "type": "function"
        },
        {
            "inputs": [],
            "name": "unlockGatebyGater",
            "outputs": [],
            "stateMutability": "nonpayable",
            "type": "function"
        },
        {
            "inputs": [
                {
                    "internalType": "address",
                    "name": "_gateraddress",
                    "type": "address"
                }
            ],
            "name": "unlockGatebyMarketor",
            "outputs": [],
            "stateMutability": "nonpayable",
            "type": "function"
        },
        {
            "inputs": [
                {
                    "components": [
                        {
                            "internalType": "address",
                            "name": "market",
                            "type": "address"
                        },
                        {
                            "internalType": "address",
                            "name": "gateAddress",
                            "type": "address"
                        },
                        {
                            "internalType": "uint160",
                            "name": "authority",
                            "type": "uint160"
                        },
                        {
                            "internalType": "bytes32",
                            "name": "name",
                            "type": "bytes32"
                        },
                        {
                            "internalType": "bytes32",
                            "name": "website",
                            "type": "bytes32"
                        },
                        {
                            "internalType": "bytes32[10]",
                            "name": "webserverip",
                            "type": "bytes32[10]"
                        },
                        {
                            "internalType": "uint32",
                            "name": "createtimestamp",
                            "type": "uint32"
                        },
                        {
                            "internalType": "bool",
                            "name": "marketunlock",
                            "type": "bool"
                        },
                        {
                            "internalType": "bool",
                            "name": "unlock",
                            "type": "bool"
                        },
                        {
                            "internalType": "bool",
                            "name": "isUsed",
                            "type": "bool"
                        }
                    ],
                    "internalType": "struct LGate.Info",
                    "name": "_gater",
                    "type": "tuple"
                }
            ],
            "name": "updateGatebyGator",
            "outputs": [],
            "stateMutability": "nonpayable",
            "type": "function"
        },
        {
            "inputs": [
                {
                    "components": [
                        {
                            "internalType": "address",
                            "name": "market",
                            "type": "address"
                        },
                        {
                            "internalType": "address",
                            "name": "gateAddress",
                            "type": "address"
                        },
                        {
                            "internalType": "uint160",
                            "name": "authority",
                            "type": "uint160"
                        },
                        {
                            "internalType": "bytes32",
                            "name": "name",
                            "type": "bytes32"
                        },
                        {
                            "internalType": "bytes32",
                            "name": "website",
                            "type": "bytes32"
                        },
                        {
                            "internalType": "bytes32[10]",
                            "name": "webserverip",
                            "type": "bytes32[10]"
                        },
                        {
                            "internalType": "uint32",
                            "name": "createtimestamp",
                            "type": "uint32"
                        },
                        {
                            "internalType": "bool",
                            "name": "marketunlock",
                            "type": "bool"
                        },
                        {
                            "internalType": "bool",
                            "name": "unlock",
                            "type": "bool"
                        },
                        {
                            "internalType": "bool",
                            "name": "isUsed",
                            "type": "bool"
                        }
                    ],
                    "internalType": "struct LGate.Info",
                    "name": "_gater",
                    "type": "tuple"
                }
            ],
            "name": "updateGatebyMarketor",
            "outputs": [],
            "stateMutability": "nonpayable",
            "type": "function"
        }
    ],
    "bytecode": "608060405234801561001057600080fd5b50604051610fdc380380610fdc83398101604081905261002f9161008d565b600180546001600160a01b039485166001600160a01b0319918216179091556002805493851693821693909317909255600380549190931691161790556100d0565b80516001600160a01b038116811461008857600080fd5b919050565b6000806000606084860312156100a257600080fd5b6100ab84610071565b92506100b960208501610071565b91506100c760408501610071565b90509250925092565b610efd806100df6000396000f3fe608060405234801561001057600080fd5b50600436106100cf5760003560e01c8063769413001161008c578063b614984d11610066578063b614984d14610272578063d8feb7ff14610285578063f1c9f40f14610298578063f3a42537146102a057600080fd5b8063769413001461021f578063a478608814610232578063ab3acb5c1461024557600080fd5b80632f17d5df146100d45780633087cbe3146101045780633bbae1411461011757806345df498714610121578063492b7107146101f957806371271f4d1461020c575b600080fd5b6002546100e7906001600160a01b031681565b6040516001600160a01b0390911681526020015b60405180910390f35b6001546100e7906001600160a01b031681565b61011f6102b3565b005b61019a61012f366004610c8f565b600060208190529081526040902080546001820154600283015460038401546004850154600f909501546001600160a01b0394851695938516949290921692909163ffffffff81169060ff600160201b8204811691600160281b8104821691600160301b9091041689565b604080516001600160a01b039a8b168152988a1660208a015296909816958701959095526060860193909352608085019190915263ffffffff1660a0840152151560c0830152151560e0820152901515610100820152610120016100fb565b6003546100e7906001600160a01b031681565b61011f61021a366004610d8e565b610371565b61011f61022d366004610c8f565b610587565b61011f610240366004610c8f565b61067b565b336000908152602081905260409020600f0154600160201b900460ff1660405190151581526020016100fb565b61011f610280366004610c8f565b610775565b61011f610293366004610d8e565b6108af565b61011f6109e2565b61011f6102ae366004610d8e565b610a91565b336000908152602081905260409020600f0154600160201b900460ff1615156001146102de57600080fd5b336000908152602081905260409020600f0154600160301b900460ff16151560011480156103255750336000818152602081905260409020600101546001600160a01b0316145b61034a5760405162461bcd60e51b815260040161034190610e4d565b60405180910390fd5b336000908152602081905260409020600f01805465ff00000000001916600160281b179055565b600360009054906101000a90046001600160a01b03166001600160a01b0316631487f2526040518163ffffffff1660e01b8152600401602060405180830381865afa1580156103c4573d6000803e3d6000fd5b505050506040513d601f19601f820116820180604052508101906103e89190610e7c565b15156001146103f657600080fd5b6020818101516001600160a01b031660009081529081905260409020600f0154600160301b900460ff1615156001146104415760405162461bcd60e51b815260040161034190610e99565b602081810180516001600160a01b0390811660009081528084526040808220600f90810154600160201b900460ff908116151560e089015285518516845283875282842090910154600160281b900416151561010087015283518316825293819052839020845181546001600160a01b031990811691841691909117825592516001820180548516918416919091179055928401516002840180549093169116179055606082015160038201556080820151600482015560a0820151829190610510906005830190600a610c05565b5060c0820151600f909101805460e0840151610100850151610120909501511515600160301b0266ff00000000000019951515600160281b029590951666ffff000000000019911515600160201b0264ffffffffff1990931663ffffffff9095169490941791909117169190911791909117905550565b600360009054906101000a90046001600160a01b03166001600160a01b0316631487f2526040518163ffffffff1660e01b8152600401602060405180830381865afa1580156105da573d6000803e3d6000fd5b505050506040513d601f19601f820116820180604052508101906105fe9190610e7c565b151560011461060c57600080fd5b6001600160a01b0381166000908152602081905260409020600f0154600160301b900460ff1615156001146106535760405162461bcd60e51b815260040161034190610e4d565b6001600160a01b03166000908152602081905260409020600f01805464ff0000000019169055565b600360009054906101000a90046001600160a01b03166001600160a01b0316631487f2526040518163ffffffff1660e01b8152600401602060405180830381865afa1580156106ce573d6000803e3d6000fd5b505050506040513d601f19601f820116820180604052508101906106f29190610e7c565b151560011461070057600080fd5b6001600160a01b0381166000908152602081905260409020600f0154600160301b900460ff1615156001146107475760405162461bcd60e51b815260040161034190610e4d565b6001600160a01b03166000908152602081905260409020600f01805464ff000000001916600160201b179055565b600360009054906101000a90046001600160a01b03166001600160a01b0316631487f2526040518163ffffffff1660e01b8152600401602060405180830381865afa1580156107c8573d6000803e3d6000fd5b505050506040513d601f19601f820116820180604052508101906107ec9190610e7c565b15156001146107fa57600080fd5b6001600160a01b0381166000908152602081905260409020600f0154600160301b900460ff1615156001146108415760405162461bcd60e51b815260040161034190610e99565b6001600160a01b038116600090815260208190526040812080546001600160a01b0319908116825560018201805482169055600282018054909116905560038101829055600481018290559061089a6005830182610c43565b50600f01805466ffffffffffffff1916905550565b6020818101516001600160a01b031660009081529081905260409020600f0154600160301b900460ff1615156001036108fa5760405162461bcd60e51b815260040161034190610e99565b60208101516001600160a01b0316331461094a5760405162461bcd60e51b81526020600482015260116024820152703a34329033b0ba32b91034b9903cb7bab960791b6044820152606401610341565b600060e082018190526101008201819052602080830180516001600160a01b03908116845291839052604092839020845181549084166001600160a01b0319918216178255915160018201805491851691841691909117905592840151600284018054919093169116179055606082015160038201556080820151600482015560a0820151829190610510906005830190600a610c05565b336000908152602081905260409020600f0154600160201b900460ff161515600114610a0d57600080fd5b336000908152602081905260409020600f0154600160301b900460ff1615156001148015610a545750336000818152602081905260409020600101546001600160a01b0316145b610a705760405162461bcd60e51b815260040161034190610e4d565b336000908152602081905260409020600f01805465ff000000000019169055565b336000908152602081905260409020600f0154600160201b900460ff161515600114610abc57600080fd5b6020818101516001600160a01b031660009081529081905260409020600f0154600160301b900460ff161515600114610b075760405162461bcd60e51b815260040161034190610e99565b6020808201516001600160a01b03908116600090815291829052604090912060010154163314610b6d5760405162461bcd60e51b81526020600482015260116024820152703a34329033b0ba32b91034b9903cb7bab960791b6044820152606401610341565b600060e0820181905260016101008301819052602080840180516001600160a01b03908116855291849052604093849020855181546001600160a01b03199081169185169190911782559151938101805483169484169490941790935592840151600283018054909416911617909155606082015160038201556080820151600482015560a0820151829190610510906005830190600a5b82600a8101928215610c33579160200282015b82811115610c33578251825591602001919060010190610c18565b50610c3f929150610c55565b5090565b50610c5290600a810190610c55565b50565b5b80821115610c3f5760008155600101610c56565b6001600160a01b0381168114610c5257600080fd5b8035610c8a81610c6a565b919050565b600060208284031215610ca157600080fd5b8135610cac81610c6a565b9392505050565b634e487b7160e01b600052604160045260246000fd5b604051610140810167ffffffffffffffff81118282101715610ced57610ced610cb3565b60405290565b600082601f830112610d0457600080fd5b60405161014080820182811067ffffffffffffffff82111715610d2957610d29610cb3565b60405283018185821115610d3c57600080fd5b845b82811015610d56578035825260209182019101610d3e565b509195945050505050565b803563ffffffff81168114610c8a57600080fd5b8015158114610c5257600080fd5b8035610c8a81610d75565b60006102608284031215610da157600080fd5b610da9610cc9565b610db283610c7f565b8152610dc060208401610c7f565b6020820152610dd160408401610c7f565b60408201526060830135606082015260808301356080820152610df78460a08501610cf3565b60a0820152610e096101e08401610d61565b60c0820152610e1b6102008401610d83565b60e0820152610e2d6102208401610d83565b610100820152610e406102408401610d83565b6101208201529392505050565b6020808252601590820152741d1a194819d85d195c881a5cdb9bdd08195e1a5cdd605a1b604082015260600190565b600060208284031215610e8e57600080fd5b8151610cac81610d75565b6020808252601490820152733a34329033b0ba32b91034b99032bc34b9ba32b960611b60408201526060019056fea2646970667358221220a7489626b5de705498136db734736f8745d8fe3aca3bc9ecee13cc5713af9bc264736f6c634300080f0033",
    "sourcePath": "/Users/admin/Documents/gitworkplace/ttswap_core/ttswap_core/Contracts/MoonV1Gater.sol",
    "compiler": {
        "name": "solc",
        "version": "0.8.15+commit.e14f2714"
    },
    "functionHashes": {
        "addGater((address,address,uint160,bytes32,bytes32,bytes32[10],uint32,bool,bool,bool))": "d8feb7ff",
        "delGatebyMarketor(address)": "b614984d",
        "gateContractAddress()": "2f17d5df",
        "gateList(address)": "45df4987",
        "isValidGater()": "ab3acb5c",
        "lockGatebyGater()": "3bbae141",
        "lockGatebyMarketor(address)": "a4786088",
        "marketContractAddress()": "3087cbe3",
        "marketorContractAddress()": "492b7107",
        "unlockGatebyGater()": "f1c9f40f",
        "unlockGatebyMarketor(address)": "76941300",
        "updateGatebyGator((address,address,uint160,bytes32,bytes32,bytes32[10],uint32,bool,bool,bool))": "f3a42537",
        "updateGatebyMarketor((address,address,uint160,bytes32,bytes32,bytes32[10],uint32,bool,bool,bool))": "71271f4d"
    },
    "gasEstimates": {
        "creation": {
            "codeDepositCost": "767400",
            "executionCost": "infinite",
            "totalCost": "infinite"
        },
        "external": {
            "addGater((address,address,uint160,bytes32,bytes32,bytes32[10],uint32,bool,bool,bool))": "infinite",
            "delGatebyMarketor(address)": "infinite",
            "gateContractAddress()": "2327",
            "gateList(address)": "13503",
            "isValidGater()": "2453",
            "lockGatebyGater()": "31177",
            "lockGatebyMarketor(address)": "infinite",
            "marketContractAddress()": "2349",
            "marketorContractAddress()": "2415",
            "unlockGatebyGater()": "31186",
            "unlockGatebyMarketor(address)": "infinite",
            "updateGatebyGator((address,address,uint160,bytes32,bytes32,bytes32[10],uint32,bool,bool,bool))": "infinite",
            "updateGatebyMarketor((address,address,uint160,bytes32,bytes32,bytes32[10],uint32,bool,bool,bool))": "infinite"
        }
    }
}