{
    "contractName": "MoonV1Gater",
    "abi": [
        {
            "inputs": [],
            "stateMutability": "nonpayable",
            "type": "constructor"
        },
        {
            "inputs": [
                {
                    "components": [
                        {
                            "internalType": "address",
                            "name": "market",
                            "type": "address"
                        },
                        {
                            "internalType": "address",
                            "name": "gateAddress",
                            "type": "address"
                        },
                        {
                            "internalType": "uint160",
                            "name": "authority",
                            "type": "uint160"
                        },
                        {
                            "internalType": "bytes32",
                            "name": "name",
                            "type": "bytes32"
                        },
                        {
                            "internalType": "bytes32",
                            "name": "website",
                            "type": "bytes32"
                        },
                        {
                            "internalType": "bytes32[10]",
                            "name": "webserverip",
                            "type": "bytes32[10]"
                        },
                        {
                            "internalType": "uint32",
                            "name": "createtimestamp",
                            "type": "uint32"
                        },
                        {
                            "internalType": "bool",
                            "name": "marketunlock",
                            "type": "bool"
                        },
                        {
                            "internalType": "bool",
                            "name": "unlock",
                            "type": "bool"
                        },
                        {
                            "internalType": "bool",
                            "name": "isUsed",
                            "type": "bool"
                        }
                    ],
                    "internalType": "struct LGate.Info",
                    "name": "_gater",
                    "type": "tuple"
                }
            ],
            "name": "addGater",
            "outputs": [],
            "stateMutability": "nonpayable",
            "type": "function"
        },
        {
            "inputs": [
                {
                    "internalType": "address",
                    "name": "_gater",
                    "type": "address"
                }
            ],
            "name": "delGatebyMarketor",
            "outputs": [],
            "stateMutability": "nonpayable",
            "type": "function"
        },
        {
            "inputs": [
                {
                    "internalType": "address",
                    "name": "",
                    "type": "address"
                }
            ],
            "name": "gateCustomerNextKey",
            "outputs": [
                {
                    "internalType": "uint32",
                    "name": "",
                    "type": "uint32"
                }
            ],
            "stateMutability": "view",
            "type": "function"
        },
        {
            "inputs": [
                {
                    "internalType": "address",
                    "name": "",
                    "type": "address"
                }
            ],
            "name": "gateList",
            "outputs": [
                {
                    "internalType": "address",
                    "name": "market",
                    "type": "address"
                },
                {
                    "internalType": "address",
                    "name": "gateAddress",
                    "type": "address"
                },
                {
                    "internalType": "uint160",
                    "name": "authority",
                    "type": "uint160"
                },
                {
                    "internalType": "bytes32",
                    "name": "name",
                    "type": "bytes32"
                },
                {
                    "internalType": "bytes32",
                    "name": "website",
                    "type": "bytes32"
                },
                {
                    "internalType": "uint32",
                    "name": "createtimestamp",
                    "type": "uint32"
                },
                {
                    "internalType": "bool",
                    "name": "marketunlock",
                    "type": "bool"
                },
                {
                    "internalType": "bool",
                    "name": "unlock",
                    "type": "bool"
                },
                {
                    "internalType": "bool",
                    "name": "isUsed",
                    "type": "bool"
                }
            ],
            "stateMutability": "view",
            "type": "function"
        },
        {
            "inputs": [
                {
                    "internalType": "address",
                    "name": "",
                    "type": "address"
                },
                {
                    "internalType": "uint32",
                    "name": "",
                    "type": "uint32"
                }
            ],
            "name": "gatecustomerList",
            "outputs": [
                {
                    "internalType": "address",
                    "name": "",
                    "type": "address"
                }
            ],
            "stateMutability": "view",
            "type": "function"
        },
        {
            "inputs": [],
            "name": "lockGatebyGater",
            "outputs": [],
            "stateMutability": "nonpayable",
            "type": "function"
        },
        {
            "inputs": [
                {
                    "internalType": "address",
                    "name": "_gateraddress",
                    "type": "address"
                }
            ],
            "name": "lockGatebyMarketor",
            "outputs": [],
            "stateMutability": "nonpayable",
            "type": "function"
        },
        {
            "inputs": [],
            "name": "marketCreator",
            "outputs": [
                {
                    "internalType": "address",
                    "name": "",
                    "type": "address"
                }
            ],
            "stateMutability": "view",
            "type": "function"
        },
        {
            "inputs": [],
            "name": "unlockGatebyGater",
            "outputs": [],
            "stateMutability": "nonpayable",
            "type": "function"
        },
        {
            "inputs": [
                {
                    "internalType": "address",
                    "name": "_gateraddress",
                    "type": "address"
                }
            ],
            "name": "unlockGatebyMarketor",
            "outputs": [],
            "stateMutability": "nonpayable",
            "type": "function"
        },
        {
            "inputs": [
                {
                    "components": [
                        {
                            "internalType": "address",
                            "name": "market",
                            "type": "address"
                        },
                        {
                            "internalType": "address",
                            "name": "gateAddress",
                            "type": "address"
                        },
                        {
                            "internalType": "uint160",
                            "name": "authority",
                            "type": "uint160"
                        },
                        {
                            "internalType": "bytes32",
                            "name": "name",
                            "type": "bytes32"
                        },
                        {
                            "internalType": "bytes32",
                            "name": "website",
                            "type": "bytes32"
                        },
                        {
                            "internalType": "bytes32[10]",
                            "name": "webserverip",
                            "type": "bytes32[10]"
                        },
                        {
                            "internalType": "uint32",
                            "name": "createtimestamp",
                            "type": "uint32"
                        },
                        {
                            "internalType": "bool",
                            "name": "marketunlock",
                            "type": "bool"
                        },
                        {
                            "internalType": "bool",
                            "name": "unlock",
                            "type": "bool"
                        },
                        {
                            "internalType": "bool",
                            "name": "isUsed",
                            "type": "bool"
                        }
                    ],
                    "internalType": "struct LGate.Info",
                    "name": "_gater",
                    "type": "tuple"
                }
            ],
            "name": "updateGatebyGator",
            "outputs": [],
            "stateMutability": "nonpayable",
            "type": "function"
        },
        {
            "inputs": [
                {
                    "components": [
                        {
                            "internalType": "address",
                            "name": "market",
                            "type": "address"
                        },
                        {
                            "internalType": "address",
                            "name": "gateAddress",
                            "type": "address"
                        },
                        {
                            "internalType": "uint160",
                            "name": "authority",
                            "type": "uint160"
                        },
                        {
                            "internalType": "bytes32",
                            "name": "name",
                            "type": "bytes32"
                        },
                        {
                            "internalType": "bytes32",
                            "name": "website",
                            "type": "bytes32"
                        },
                        {
                            "internalType": "bytes32[10]",
                            "name": "webserverip",
                            "type": "bytes32[10]"
                        },
                        {
                            "internalType": "uint32",
                            "name": "createtimestamp",
                            "type": "uint32"
                        },
                        {
                            "internalType": "bool",
                            "name": "marketunlock",
                            "type": "bool"
                        },
                        {
                            "internalType": "bool",
                            "name": "unlock",
                            "type": "bool"
                        },
                        {
                            "internalType": "bool",
                            "name": "isUsed",
                            "type": "bool"
                        }
                    ],
                    "internalType": "struct LGate.Info",
                    "name": "_gater",
                    "type": "tuple"
                }
            ],
            "name": "updateGatebyMarketor",
            "outputs": [],
            "stateMutability": "nonpayable",
            "type": "function"
        }
    ],
    "bytecode": "60a060405234801561001057600080fd5b5033608052608051610f9961004b6000396000818160be0152818161038a015281816105ae015281816106ad01526107b20152610f996000f3fe608060405234801561001057600080fd5b50600436106100b45760003560e01c8063a478608811610071578063a47860881461023b578063b614984d1461024e578063bc5c613414610261578063d8feb7ff1461029c578063f1c9f40f146102af578063f3a42537146102b757600080fd5b806327cbaabe146100b95780633bbae141146100fd57806345df498714610107578063682ecc5d146101e157806371271f4d146102155780637694130014610228575b600080fd5b6100e07f000000000000000000000000000000000000000000000000000000000000000081565b6040516001600160a01b0390911681526020015b60405180910390f35b6101056102ca565b005b610182610115366004610cf6565b6002602081905260009182526040909120805460018201549282015460038301546004840154600f909401546001600160a01b0393841695841694929093169290919063ffffffff81169060ff600160201b8204811691600160281b8104821691600160301b9091041689565b604080516001600160a01b039a8b168152988a1660208a015296909816958701959095526060860193909352608085019190915263ffffffff1660a0840152151560c0830152151560e0820152901515610100820152610120016100f4565b6100e06101ef366004610d2e565b60016020908152600092835260408084209091529082529020546001600160a01b031681565b610105610223366004610e2a565b610388565b610105610236366004610cf6565b6105ac565b610105610249366004610cf6565b6106ab565b61010561025c366004610cf6565b6107b0565b61028761026f366004610cf6565b60006020819052908152604090205463ffffffff1681565b60405163ffffffff90911681526020016100f4565b6101056102aa366004610e2a565b6108f7565b610105610a47565b6101056102c5366004610e2a565b610af6565b336000908152600260205260409020600f0154600160201b900460ff1615156001146102f557600080fd5b336000908152600260205260409020600f0154600160301b900460ff161515600114801561033c5750336000818152600260205260409020600101546001600160a01b0316145b6103615760405162461bcd60e51b815260040161035890610ee9565b60405180910390fd5b336000908152600260205260409020600f01805465ff00000000001916600160281b179055565b7f00000000000000000000000000000000000000000000000000000000000000006001600160a01b0316631487f2526040518163ffffffff1660e01b8152600401602060405180830381865afa1580156103e6573d6000803e3d6000fd5b505050506040513d601f19601f8201168201806040525081019061040a9190610f18565b151560011461041857600080fd5b6020818101516001600160a01b03166000908152600290915260409020600f0154600160301b900460ff1615156001146104645760405162461bcd60e51b815260040161035890610f35565b602081810180516001600160a01b03908116600090815260028085526040808320600f90810154600160201b900460ff908116151560e08a015286518616855283885282852090910154600160281b90041615156101008801528451841683529481905290849020855181546001600160a01b0319908116918516919091178255935160018201805486169185169190911790559385015190840180549093169116179055606082015160038201556080820151600482015560a0820151829190610535906005830190600a610c6c565b5060c0820151600f909101805460e0840151610100850151610120909501511515600160301b0266ff00000000000019951515600160281b029590951666ffff000000000019911515600160201b0264ffffffffff1990931663ffffffff9095169490941791909117169190911791909117905550565b7f00000000000000000000000000000000000000000000000000000000000000006001600160a01b0316631487f2526040518163ffffffff1660e01b8152600401602060405180830381865afa15801561060a573d6000803e3d6000fd5b505050506040513d601f19601f8201168201806040525081019061062e9190610f18565b151560011461063c57600080fd5b6001600160a01b0381166000908152600260205260409020600f0154600160301b900460ff1615156001146106835760405162461bcd60e51b815260040161035890610ee9565b6001600160a01b03166000908152600260205260409020600f01805464ff0000000019169055565b7f00000000000000000000000000000000000000000000000000000000000000006001600160a01b0316631487f2526040518163ffffffff1660e01b8152600401602060405180830381865afa158015610709573d6000803e3d6000fd5b505050506040513d601f19601f8201168201806040525081019061072d9190610f18565b151560011461073b57600080fd5b6001600160a01b0381166000908152600260205260409020600f0154600160301b900460ff1615156001146107825760405162461bcd60e51b815260040161035890610ee9565b6001600160a01b03166000908152600260205260409020600f01805464ff000000001916600160201b179055565b7f00000000000000000000000000000000000000000000000000000000000000006001600160a01b0316631487f2526040518163ffffffff1660e01b8152600401602060405180830381865afa15801561080e573d6000803e3d6000fd5b505050506040513d601f19601f820116820180604052508101906108329190610f18565b151560011461084057600080fd5b6001600160a01b0381166000908152600260205260409020600f0154600160301b900460ff1615156001146108875760405162461bcd60e51b815260040161035890610f35565b6001600160a01b0381166000908152600260208190526040822080546001600160a01b031990811682556001820180548216905591810180549092169091556003810182905560048101829055906108e26005830182610caa565b50600f01805466ffffffffffffff1916905550565b6020818101516001600160a01b03166000908152600290915260409020600f0154600160301b900460ff1615156001036109435760405162461bcd60e51b815260040161035890610f35565b60208101516001600160a01b031633146109935760405162461bcd60e51b81526020600482015260116024820152703a34329033b0ba32b91034b9903cb7bab960791b6044820152606401610358565b600060e082018190526101008201819052602080830180516001600160a01b0390811684528383526040808520805463ffffffff1916905582518216855260029384905293849020855181546001600160a01b0319908116918416919091178255925160018201805485169184169190911790559385015192840180549092169216919091179055606082015160038201556080820151600482015560a0820151829190610535906005830190600a610c6c565b336000908152600260205260409020600f0154600160201b900460ff161515600114610a7257600080fd5b336000908152600260205260409020600f0154600160301b900460ff1615156001148015610ab95750336000818152600260205260409020600101546001600160a01b0316145b610ad55760405162461bcd60e51b815260040161035890610ee9565b336000908152600260205260409020600f01805465ff000000000019169055565b336000908152600260205260409020600f0154600160201b900460ff161515600114610b2157600080fd5b6020818101516001600160a01b03166000908152600290915260409020600f0154600160301b900460ff161515600114610b6d5760405162461bcd60e51b815260040161035890610f35565b6020808201516001600160a01b0390811660009081526002909252604090912060010154163314610bd45760405162461bcd60e51b81526020600482015260116024820152703a34329033b0ba32b91034b9903cb7bab960791b6044820152606401610358565b600060e0820181905260016101008301819052602080840180516001600160a01b039081168552600292839052604094859020865181549083166001600160a01b0319918216178255925194810180549583169584169590951790945593850151918301805492909416911617909155606082015160038201556080820151600482015560a0820151829190610535906005830190600a5b82600a8101928215610c9a579160200282015b82811115610c9a578251825591602001919060010190610c7f565b50610ca6929150610cbc565b5090565b50610cb990600a810190610cbc565b50565b5b80821115610ca65760008155600101610cbd565b6001600160a01b0381168114610cb957600080fd5b8035610cf181610cd1565b919050565b600060208284031215610d0857600080fd5b8135610d1381610cd1565b9392505050565b803563ffffffff81168114610cf157600080fd5b60008060408385031215610d4157600080fd5b8235610d4c81610cd1565b9150610d5a60208401610d1a565b90509250929050565b634e487b7160e01b600052604160045260246000fd5b604051610140810167ffffffffffffffff81118282101715610d9d57610d9d610d63565b60405290565b600082601f830112610db457600080fd5b60405161014080820182811067ffffffffffffffff82111715610dd957610dd9610d63565b60405283018185821115610dec57600080fd5b845b82811015610e06578035825260209182019101610dee565b509195945050505050565b8015158114610cb957600080fd5b8035610cf181610e11565b60006102608284031215610e3d57600080fd5b610e45610d79565b610e4e83610ce6565b8152610e5c60208401610ce6565b6020820152610e6d60408401610ce6565b60408201526060830135606082015260808301356080820152610e938460a08501610da3565b60a0820152610ea56101e08401610d1a565b60c0820152610eb76102008401610e1f565b60e0820152610ec96102208401610e1f565b610100820152610edc6102408401610e1f565b6101208201529392505050565b6020808252601590820152741d1a194819d85d195c881a5cdb9bdd08195e1a5cdd605a1b604082015260600190565b600060208284031215610f2a57600080fd5b8151610d1381610e11565b6020808252601490820152733a34329033b0ba32b91034b99032bc34b9ba32b960611b60408201526060019056fea2646970667358221220359cbea305c2821707f7c9c9fdb313bf76541090d6e70f5a385d84966d3f604664736f6c634300080f0033",
    "sourcePath": "/Users/admin/Documents/gitworkplace/ttswap_core/ttswap_core/Contracts/MoonV1Gater.sol",
    "compiler": {
        "name": "solc",
        "version": "0.8.15+commit.e14f2714"
    },
    "functionHashes": {
        "addGater((address,address,uint160,bytes32,bytes32,bytes32[10],uint32,bool,bool,bool))": "d8feb7ff",
        "delGatebyMarketor(address)": "b614984d",
        "gateCustomerNextKey(address)": "bc5c6134",
        "gateList(address)": "45df4987",
        "gatecustomerList(address,uint32)": "682ecc5d",
        "lockGatebyGater()": "3bbae141",
        "lockGatebyMarketor(address)": "a4786088",
        "marketCreator()": "27cbaabe",
        "unlockGatebyGater()": "f1c9f40f",
        "unlockGatebyMarketor(address)": "76941300",
        "updateGatebyGator((address,address,uint160,bytes32,bytes32,bytes32[10],uint32,bool,bool,bool))": "f3a42537",
        "updateGatebyMarketor((address,address,uint160,bytes32,bytes32,bytes32[10],uint32,bool,bool,bool))": "71271f4d"
    },
    "gasEstimates": {
        "creation": {
            "codeDepositCost": "798600",
            "executionCost": "infinite",
            "totalCost": "infinite"
        },
        "external": {
            "addGater((address,address,uint160,bytes32,bytes32,bytes32[10],uint32,bool,bool,bool))": "infinite",
            "delGatebyMarketor(address)": "infinite",
            "gateCustomerNextKey(address)": "2575",
            "gateList(address)": "13487",
            "gatecustomerList(address,uint32)": "2770",
            "lockGatebyGater()": "31143",
            "lockGatebyMarketor(address)": "infinite",
            "marketCreator()": "infinite",
            "unlockGatebyGater()": "31196",
            "unlockGatebyMarketor(address)": "infinite",
            "updateGatebyGator((address,address,uint160,bytes32,bytes32,bytes32[10],uint32,bool,bool,bool))": "infinite",
            "updateGatebyMarketor((address,address,uint160,bytes32,bytes32,bytes32[10],uint32,bool,bool,bool))": "infinite"
        }
    }
}