{
    "contractName": "MoonV1Marketor",
    "abi": [
        {
            "inputs": [
                {
                    "internalType": "address",
                    "name": "_marketCreator",
                    "type": "address"
                }
            ],
            "stateMutability": "nonpayable",
            "type": "constructor"
        },
        {
            "inputs": [
                {
                    "internalType": "address",
                    "name": "_owner",
                    "type": "address"
                }
            ],
            "name": "delMarketMarketor",
            "outputs": [],
            "stateMutability": "nonpayable",
            "type": "function"
        },
        {
            "inputs": [],
            "name": "ismarketMarketor",
            "outputs": [
                {
                    "internalType": "bool",
                    "name": "",
                    "type": "bool"
                }
            ],
            "stateMutability": "view",
            "type": "function"
        },
        {
            "inputs": [],
            "name": "marketCreator",
            "outputs": [
                {
                    "internalType": "address",
                    "name": "",
                    "type": "address"
                }
            ],
            "stateMutability": "view",
            "type": "function"
        },
        {
            "inputs": [
                {
                    "internalType": "address",
                    "name": "",
                    "type": "address"
                }
            ],
            "name": "marketMarketors",
            "outputs": [
                {
                    "internalType": "bool",
                    "name": "",
                    "type": "bool"
                }
            ],
            "stateMutability": "view",
            "type": "function"
        },
        {
            "inputs": [
                {
                    "internalType": "address",
                    "name": "_owner",
                    "type": "address"
                }
            ],
            "name": "setMarketMarketor",
            "outputs": [],
            "stateMutability": "nonpayable",
            "type": "function"
        }
    ],
    "bytecode": "608060405234801561001057600080fd5b5060405161026738038061026783398101604081905261002f91610054565b600180546001600160a01b0319166001600160a01b0392909216919091179055610084565b60006020828403121561006657600080fd5b81516001600160a01b038116811461007d57600080fd5b9392505050565b6101d4806100936000396000f3fe608060405234801561001057600080fd5b50600436106100575760003560e01c80631aaa8e731461005c57806327cbaabe14610071578063571aa9ec146100a1578063e2b0738c146100b4578063e2ecb7f1146100d8575b600080fd5b61006f61006a36600461016e565b6100fb565b005b600154610084906001600160a01b031681565b6040516001600160a01b0390911681526020015b60405180910390f35b61006f6100af36600461016e565b610133565b3360009081526020819052604090205460ff165b6040519015158152602001610098565b6100c86100e636600461016e565b60006020819052908152604090205460ff1681565b6001546001600160a01b0316331461011257600080fd5b6001600160a01b03166000908152602081905260409020805460ff19169055565b6001546001600160a01b0316331461014a57600080fd5b6001600160a01b03166000908152602081905260409020805460ff19166001179055565b60006020828403121561018057600080fd5b81356001600160a01b038116811461019757600080fd5b939250505056fea2646970667358221220d57122d4c11698bbede82f347f25be4d7d5c9fde04a4d0d2edb50024695b806364736f6c634300080f0033",
    "sourcePath": "/Users/admin/Documents/gitworkplace/ttswap_core/ttswap_core/Contracts/MoonV1Marketor.sol",
    "compiler": {
        "name": "solc",
        "version": "0.8.15+commit.e14f2714"
    },
    "functionHashes": {
        "delMarketMarketor(address)": "1aaa8e73",
        "ismarketMarketor()": "e2b0738c",
        "marketCreator()": "27cbaabe",
        "marketMarketors(address)": "e2ecb7f1",
        "setMarketMarketor(address)": "571aa9ec"
    },
    "gasEstimates": {
        "creation": {
            "codeDepositCost": "93600",
            "executionCost": "infinite",
            "totalCost": "infinite"
        },
        "external": {
            "delMarketMarketor(address)": "26690",
            "ismarketMarketor()": "2408",
            "marketCreator()": "2326",
            "marketMarketors(address)": "2565",
            "setMarketMarketor(address)": "26740"
        }
    }
}