{
    "contractName": "MoonV1Customer",
    "abi": [
        {
            "inputs": [
                {
                    "internalType": "address",
                    "name": "_gateContractAddress",
                    "type": "address"
                },
                {
                    "internalType": "address",
                    "name": "_marketorContractAddress",
                    "type": "address"
                }
            ],
            "stateMutability": "nonpayable",
            "type": "constructor"
        },
        {
            "inputs": [
                {
                    "components": [
                        {
                            "internalType": "bytes32",
                            "name": "neckname",
                            "type": "bytes32"
                        },
                        {
                            "internalType": "uint32",
                            "name": "createtimestamp",
                            "type": "uint32"
                        },
                        {
                            "internalType": "address",
                            "name": "recommender",
                            "type": "address"
                        },
                        {
                            "internalType": "uint40",
                            "name": "customerKey",
                            "type": "uint40"
                        },
                        {
                            "internalType": "address",
                            "name": "Gater",
                            "type": "address"
                        },
                        {
                            "internalType": "uint32",
                            "name": "GaterKey",
                            "type": "uint32"
                        },
                        {
                            "internalType": "address",
                            "name": "contractAddress",
                            "type": "address"
                        },
                        {
                            "internalType": "bool",
                            "name": "isUsed",
                            "type": "bool"
                        },
                        {
                            "internalType": "bool",
                            "name": "unlock",
                            "type": "bool"
                        }
                    ],
                    "internalType": "struct LCustomer.Info",
                    "name": "_customer",
                    "type": "tuple"
                }
            ],
            "name": "addCustomer",
            "outputs": [],
            "stateMutability": "nonpayable",
            "type": "function"
        },
        {
            "inputs": [
                {
                    "components": [
                        {
                            "internalType": "bytes32",
                            "name": "neckname",
                            "type": "bytes32"
                        },
                        {
                            "internalType": "uint32",
                            "name": "createtimestamp",
                            "type": "uint32"
                        },
                        {
                            "internalType": "address",
                            "name": "recommender",
                            "type": "address"
                        },
                        {
                            "internalType": "uint40",
                            "name": "customerKey",
                            "type": "uint40"
                        },
                        {
                            "internalType": "address",
                            "name": "Gater",
                            "type": "address"
                        },
                        {
                            "internalType": "uint32",
                            "name": "GaterKey",
                            "type": "uint32"
                        },
                        {
                            "internalType": "address",
                            "name": "contractAddress",
                            "type": "address"
                        },
                        {
                            "internalType": "bool",
                            "name": "isUsed",
                            "type": "bool"
                        },
                        {
                            "internalType": "bool",
                            "name": "unlock",
                            "type": "bool"
                        }
                    ],
                    "internalType": "struct LCustomer.Info",
                    "name": "_customer",
                    "type": "tuple"
                },
                {
                    "internalType": "address",
                    "name": "_gator",
                    "type": "address"
                }
            ],
            "name": "addCustomer",
            "outputs": [],
            "stateMutability": "nonpayable",
            "type": "function"
        },
        {
            "inputs": [
                {
                    "internalType": "uint40",
                    "name": "_recommanderUnikey",
                    "type": "uint40"
                }
            ],
            "name": "addRelation",
            "outputs": [],
            "stateMutability": "nonpayable",
            "type": "function"
        },
        {
            "inputs": [
                {
                    "internalType": "address",
                    "name": "",
                    "type": "address"
                }
            ],
            "name": "customerList",
            "outputs": [
                {
                    "internalType": "bytes32",
                    "name": "neckname",
                    "type": "bytes32"
                },
                {
                    "internalType": "uint32",
                    "name": "createtimestamp",
                    "type": "uint32"
                },
                {
                    "internalType": "address",
                    "name": "recommender",
                    "type": "address"
                },
                {
                    "internalType": "uint40",
                    "name": "customerKey",
                    "type": "uint40"
                },
                {
                    "internalType": "address",
                    "name": "Gater",
                    "type": "address"
                },
                {
                    "internalType": "uint32",
                    "name": "GaterKey",
                    "type": "uint32"
                },
                {
                    "internalType": "address",
                    "name": "contractAddress",
                    "type": "address"
                },
                {
                    "internalType": "bool",
                    "name": "isUsed",
                    "type": "bool"
                },
                {
                    "internalType": "bool",
                    "name": "unlock",
                    "type": "bool"
                }
            ],
            "stateMutability": "view",
            "type": "function"
        },
        {
            "inputs": [
                {
                    "internalType": "uint40",
                    "name": "",
                    "type": "uint40"
                }
            ],
            "name": "customerUniKey",
            "outputs": [
                {
                    "internalType": "address",
                    "name": "",
                    "type": "address"
                }
            ],
            "stateMutability": "view",
            "type": "function"
        },
        {
            "inputs": [],
            "name": "customerUniNextKey",
            "outputs": [
                {
                    "internalType": "uint40",
                    "name": "",
                    "type": "uint40"
                }
            ],
            "stateMutability": "view",
            "type": "function"
        },
        {
            "inputs": [],
            "name": "gateContractAddress",
            "outputs": [
                {
                    "internalType": "address",
                    "name": "",
                    "type": "address"
                }
            ],
            "stateMutability": "view",
            "type": "function"
        },
        {
            "inputs": [
                {
                    "internalType": "address",
                    "name": "",
                    "type": "address"
                },
                {
                    "internalType": "uint32",
                    "name": "",
                    "type": "uint32"
                }
            ],
            "name": "gateCustomerList",
            "outputs": [
                {
                    "internalType": "address",
                    "name": "",
                    "type": "address"
                }
            ],
            "stateMutability": "view",
            "type": "function"
        },
        {
            "inputs": [
                {
                    "internalType": "address",
                    "name": "",
                    "type": "address"
                }
            ],
            "name": "gateCustomerNextKey",
            "outputs": [
                {
                    "internalType": "uint32",
                    "name": "",
                    "type": "uint32"
                }
            ],
            "stateMutability": "view",
            "type": "function"
        },
        {
            "inputs": [
                {
                    "internalType": "address",
                    "name": "_CustomerAddress",
                    "type": "address"
                }
            ],
            "name": "getCustomer",
            "outputs": [
                {
                    "components": [
                        {
                            "internalType": "bytes32",
                            "name": "neckname",
                            "type": "bytes32"
                        },
                        {
                            "internalType": "uint32",
                            "name": "createtimestamp",
                            "type": "uint32"
                        },
                        {
                            "internalType": "address",
                            "name": "recommender",
                            "type": "address"
                        },
                        {
                            "internalType": "uint40",
                            "name": "customerKey",
                            "type": "uint40"
                        },
                        {
                            "internalType": "address",
                            "name": "Gater",
                            "type": "address"
                        },
                        {
                            "internalType": "uint32",
                            "name": "GaterKey",
                            "type": "uint32"
                        },
                        {
                            "internalType": "address",
                            "name": "contractAddress",
                            "type": "address"
                        },
                        {
                            "internalType": "bool",
                            "name": "isUsed",
                            "type": "bool"
                        },
                        {
                            "internalType": "bool",
                            "name": "unlock",
                            "type": "bool"
                        }
                    ],
                    "internalType": "struct LCustomer.Info",
                    "name": "",
                    "type": "tuple"
                }
            ],
            "stateMutability": "view",
            "type": "function"
        },
        {
            "inputs": [
                {
                    "internalType": "address",
                    "name": "_recommander",
                    "type": "address"
                },
                {
                    "internalType": "uint32",
                    "name": "_cumstomerindex",
                    "type": "uint32"
                }
            ],
            "name": "getCustomerInfobyRecommander",
            "outputs": [
                {
                    "internalType": "address",
                    "name": "",
                    "type": "address"
                }
            ],
            "stateMutability": "view",
            "type": "function"
        },
        {
            "inputs": [
                {
                    "internalType": "address",
                    "name": "_recommander",
                    "type": "address"
                }
            ],
            "name": "getCustomerNumbyRecommander",
            "outputs": [
                {
                    "internalType": "uint32",
                    "name": "",
                    "type": "uint32"
                }
            ],
            "stateMutability": "view",
            "type": "function"
        },
        {
            "inputs": [
                {
                    "internalType": "address",
                    "name": "_customer",
                    "type": "address"
                }
            ],
            "name": "getCustomerRecommander",
            "outputs": [
                {
                    "internalType": "address",
                    "name": "",
                    "type": "address"
                }
            ],
            "stateMutability": "view",
            "type": "function"
        },
        {
            "inputs": [
                {
                    "internalType": "address",
                    "name": "_CustomerAddress",
                    "type": "address"
                }
            ],
            "name": "isValidCustomer",
            "outputs": [
                {
                    "internalType": "bool",
                    "name": "",
                    "type": "bool"
                }
            ],
            "stateMutability": "view",
            "type": "function"
        },
        {
            "inputs": [
                {
                    "internalType": "address",
                    "name": "_CustomerAddress",
                    "type": "address"
                }
            ],
            "name": "lockCustomerbyMarketor",
            "outputs": [],
            "stateMutability": "nonpayable",
            "type": "function"
        },
        {
            "inputs": [],
            "name": "marketorContractAddress",
            "outputs": [
                {
                    "internalType": "address",
                    "name": "",
                    "type": "address"
                }
            ],
            "stateMutability": "view",
            "type": "function"
        },
        {
            "inputs": [
                {
                    "internalType": "address",
                    "name": "",
                    "type": "address"
                }
            ],
            "name": "recommenderraltionkey",
            "outputs": [
                {
                    "internalType": "uint32",
                    "name": "",
                    "type": "uint32"
                }
            ],
            "stateMutability": "view",
            "type": "function"
        },
        {
            "inputs": [
                {
                    "internalType": "address",
                    "name": "",
                    "type": "address"
                },
                {
                    "internalType": "uint32",
                    "name": "",
                    "type": "uint32"
                }
            ],
            "name": "recommenderraltionlist",
            "outputs": [
                {
                    "internalType": "address",
                    "name": "",
                    "type": "address"
                }
            ],
            "stateMutability": "view",
            "type": "function"
        },
        {
            "inputs": [
                {
                    "internalType": "address",
                    "name": "_CustomerAddress",
                    "type": "address"
                }
            ],
            "name": "unlockCustomerbyMarketor",
            "outputs": [],
            "stateMutability": "nonpayable",
            "type": "function"
        },
        {
            "inputs": [
                {
                    "internalType": "bytes32",
                    "name": "_newname",
                    "type": "bytes32"
                }
            ],
            "name": "updateCustomerNeckName",
            "outputs": [],
            "stateMutability": "nonpayable",
            "type": "function"
        }
    ],
    "bytecode": "60c060405234801561001057600080fd5b5060405161162e38038061162e83398101604081905261002f91610062565b6001600160a01b039182166080521660a052610095565b80516001600160a01b038116811461005d57600080fd5b919050565b6000806040838503121561007557600080fd5b61007e83610046565b915061008c60208401610046565b90509250929050565b60805160a0516115666100c860003960008181610205015281816104ae01526108eb0152600061015e01526115666000f3fe608060405234801561001057600080fd5b506004361061012c5760003560e01c80638a6df726116100ad578063e71957b911610071578063e71957b914610369578063e853f9521461037c578063f3c86048146103a2578063f4274bc5146103b5578063fc5f9f181461049957600080fd5b80638a6df726146102b4578063a60832cd146102dc578063bc5c613414610310578063be5fdac814610336578063cb949e511461034957600080fd5b80633e95003c116100f45780633e95003c146101d7578063492b7107146102005780635cfeafa514610227578063781660971461025b5780638370aa81146102a157600080fd5b80630138a6611461013157806314f9e554146101465780632f17d5df14610159578063367b6dcc1461019d5780633b63b647146101c4575b600080fd5b61014461013f3660046111cc565b6104ac565b005b61014461015436600461131b565b6105b3565b6101807f000000000000000000000000000000000000000000000000000000000000000081565b6040516001600160a01b0390911681526020015b60405180910390f35b6002546101ae9064ffffffffff1681565b60405164ffffffffff9091168152602001610194565b6101446101d2366004611338565b61078b565b6101806101e5366004611351565b6001602052600090815260409020546001600160a01b031681565b6101807f000000000000000000000000000000000000000000000000000000000000000081565b61018061023536600461136c565b60066020908152600092835260408084209091529082529020546001600160a01b031681565b6102916102693660046111cc565b6001600160a01b0316600090815260208190526040902060030154600160a01b900460ff1690565b6040519015158152602001610194565b6101806102af36600461136c565b6107f0565b6102c76102c23660046111cc565b610874565b60405163ffffffff9091168152602001610194565b6101806102ea36600461136c565b60046020908152600092835260408084209091529082529020546001600160a01b031681565b6102c761031e3660046111cc565b60056020526000908152604090205463ffffffff1681565b6101446103443660046111cc565b6108e9565b61035c6103573660046111cc565b6109ed565b604051610194919061139f565b6101806103773660046111cc565b610b57565b6102c761038a3660046111cc565b60036020526000908152604090205463ffffffff1681565b6101446103b0366004611351565b610bf2565b6104386103c33660046111cc565b6000602081905290815260409020805460018201546002830154600390930154919263ffffffff808316936001600160a01b03640100000000850481169464ffffffffff600160c01b909104169380821693600160a01b9182900416929182169160ff918104821691600160a81b9091041689565b60408051998a5263ffffffff98891660208b01526001600160a01b03978816908a015264ffffffffff90951660608901529285166080880152941660a08601529190921660c0840152151560e0830152151561010082015261012001610194565b6101446104a7366004611458565b610d86565b7f00000000000000000000000000000000000000000000000000000000000000006001600160a01b031663e2b0738c6040518163ffffffff1660e01b8152600401602060405180830381865afa15801561050a573d6000803e3d6000fd5b505050506040513d601f19601f8201168201806040525081019061052e9190611485565b151560011461053c57600080fd5b6001600160a01b038116600090815260208190526040902060030154600160a01b900460ff16151560010361058c5760405162461bcd60e51b8152600401610583906114a2565b60405180910390fd5b6001600160a01b03166000908152602081905260409020600301805460ff60a81b19169055565b60c08101516001600160a01b0316600090815260208190526040902060030154600160a01b900460ff1615156001148015906105fb575060c08101516001600160a01b031633145b61063c5760405162461bcd60e51b8152602060048201526012602482015271637573746f6d65722069732065786973747360701b6044820152606401610583565b600280546001919060009061065990849064ffffffffff166114e8565b825464ffffffffff91821661010093840a9081029083021990911617909255600280548316600090815260016020818152604080842080546001600160a01b031916331790558454871660608a0190815260c08a0180516001600160a01b039081168752868552958390208b518155938b01519484018054938c01519251909916600160c01b0264ffffffffff60c01b19928716640100000000026001600160c01b031994851663ffffffff978816171792909216919091179097556080890151948201805460a08b0151909416600160a01b90810294909216958516959095179290921790935593516003909201805460e088015197909401511515600160a81b0260ff60a81b199715159095026001600160a81b0319909416929091169190911791909117939093161790915550565b33600081815260208190526040902060030180546001600160a01b038116909214600160a01b810260ff60a01b199093169290921790556107de5760405162461bcd60e51b8152600401610583906114a2565b33600090815260208190526040902055565b60006001600160a01b0383166108435760405162461bcd60e51b815260206004820152601860248201527718dd5cdd1bdb595c881859191c995cdcc81a5cc81b9d5b1b60421b6044820152606401610583565b506001600160a01b03918216600090815260046020908152604080832063ffffffff94909416835292905220541690565b60006001600160a01b0382166108c75760405162461bcd60e51b815260206004820152601860248201527718dd5cdd1bdb595c881859191c995cdcc81a5cc81b9d5b1b60421b6044820152606401610583565b506001600160a01b031660009081526003602052604090205463ffffffff1690565b7f00000000000000000000000000000000000000000000000000000000000000006001600160a01b031663e2b0738c6040518163ffffffff1660e01b8152600401602060405180830381865afa158015610947573d6000803e3d6000fd5b505050506040513d601f19601f8201168201806040525081019061096b9190611485565b151560011461097957600080fd5b6001600160a01b038116600090815260208190526040902060030154600160a01b900460ff1615156001036109c05760405162461bcd60e51b8152600401610583906114a2565b6001600160a01b03166000908152602081905260409020600301805460ff60a81b1916600160a81b179055565b6040805161012081018252600080825260208201819052918101829052606081018290526080810182905260a0810182905260c0810182905260e081018290526101008101919091526001600160a01b038216600090815260208190526040902060030154600160a01b900460ff161515600114610aa75760405162461bcd60e51b815260206004820152601760248201527620437573746f6d6572206973206e6f742065786973747360481b6044820152606401610583565b506001600160a01b039081166000908152602081815260409182902082516101208101845281548152600182015463ffffffff808216948301949094526401000000008104861694820194909452600160c01b90930464ffffffffff16606084015260028101548085166080850152600160a01b9081900490921660a08401526003015492831660c0830152820460ff908116151560e0830152600160a81b909204909116151561010082015290565b6001600160a01b038116600090815260208190526040812060030154600160a01b900460ff161515600114610bc85760405162461bcd60e51b815260206004820152601760248201527620437573746f6d6572206973206e6f742065786973747360481b6044820152606401610583565b506001600160a01b0390811660009081526020819052604090206001015464010000000090041690565b3360009081526020819052604090206001015464010000000090046001600160a01b031615610c635760405162461bcd60e51b815260206004820152601f60248201527f74686520637573746f6d6572207265636f6d6d656e64657220657869737473006044820152606401610583565b64ffffffffff81166000908152600160208181526040808420546001600160a01b031680855260039092529092205463ffffffff1610610cef576001600160a01b0381166000908152600360205260408120805460019290610ccc90849063ffffffff16611511565b92506101000a81548163ffffffff021916908363ffffffff160217905550610d16565b6001600160a01b0381166000908152600360205260409020805463ffffffff191660011790555b6001600160a01b03166000818152600460209081526040808320600383528184205463ffffffff16845282528083208054336001600160a01b0319909116811790915583529082905290206001018054640100000000600160c01b03191664010000000090920291909117905550565b60c08201516001600160a01b0316600090815260208190526040902060030154600160a01b900460ff161515600114801590610dce575060c08201516001600160a01b031633145b610e0f5760405162461bcd60e51b8152602060048201526012602482015271637573746f6d65722069732065786973747360701b6044820152606401610583565b6001600160a01b038116600090815260056020526040902054600163ffffffff90911610610e89576001600160a01b0381166000908152600560205260408120805460019290610e6690849063ffffffff16611511565b92506101000a81548163ffffffff021916908363ffffffff160217905550610eb0565b6001600160a01b0381166000908152600560205260409020805463ffffffff191660011790555b6001600160a01b0381166080830181905260009081526005602052604081205463ffffffff1660a08401526002805460019290610ef590849064ffffffffff166114e8565b92506101000a81548164ffffffffff021916908364ffffffffff1602179055503360016000600260009054906101000a900464ffffffffff1664ffffffffff1664ffffffffff16815260200190815260200160002060006101000a8154816001600160a01b0302191690836001600160a01b03160217905550600260009054906101000a900464ffffffffff16826060019064ffffffffff16908164ffffffffff1681525050816000808460c001516001600160a01b03166001600160a01b031681526020019081526020016000206000820151816000015560208201518160010160006101000a81548163ffffffff021916908363ffffffff16021790555060408201518160010160046101000a8154816001600160a01b0302191690836001600160a01b0316021790555060608201518160010160186101000a81548164ffffffffff021916908364ffffffffff16021790555060808201518160020160006101000a8154816001600160a01b0302191690836001600160a01b0316021790555060a08201518160020160146101000a81548163ffffffff021916908363ffffffff16021790555060c08201518160030160006101000a8154816001600160a01b0302191690836001600160a01b0316021790555060e08201518160030160146101000a81548160ff0219169083151502179055506101008201518160030160156101000a81548160ff0219169083151502179055509050503360066000836001600160a01b03166001600160a01b03168152602001908152602001600020600060056000856001600160a01b03166001600160a01b0316815260200190815260200160002060009054906101000a900463ffffffff1663ffffffff1663ffffffff16815260200190815260200160002060006101000a8154816001600160a01b0302191690836001600160a01b031602179055505050565b80356001600160a01b03811681146111c757600080fd5b919050565b6000602082840312156111de57600080fd5b6111e7826111b0565b9392505050565b604051610120810167ffffffffffffffff8111828210171561122057634e487b7160e01b600052604160045260246000fd5b60405290565b803563ffffffff811681146111c757600080fd5b803564ffffffffff811681146111c757600080fd5b801515811461125d57600080fd5b50565b80356111c78161124f565b6000610120828403121561127e57600080fd5b6112866111ee565b90508135815261129860208301611226565b60208201526112a9604083016111b0565b60408201526112ba6060830161123a565b60608201526112cb608083016111b0565b60808201526112dc60a08301611226565b60a08201526112ed60c083016111b0565b60c08201526112fe60e08301611260565b60e0820152610100611311818401611260565b9082015292915050565b6000610120828403121561132e57600080fd5b6111e7838361126b565b60006020828403121561134a57600080fd5b5035919050565b60006020828403121561136357600080fd5b6111e78261123a565b6000806040838503121561137f57600080fd5b611388836111b0565b915061139660208401611226565b90509250929050565b8151815260208083015163ffffffff16908201526040808301516001600160a01b0316908201526060808301516101208301916113e49084018264ffffffffff169052565b5060808301516113ff60808401826001600160a01b03169052565b5060a083015161141760a084018263ffffffff169052565b5060c083015161143260c08401826001600160a01b03169052565b5060e083015161144660e084018215159052565b50610100928301511515919092015290565b600080610140838503121561146c57600080fd5b611476848461126b565b915061139661012084016111b0565b60006020828403121561149757600080fd5b81516111e78161124f565b602080825260169082015275637573746f6d6572206973206e6f742065786973747360501b604082015260600190565b634e487b7160e01b600052601160045260246000fd5b600064ffffffffff808316818516808303821115611508576115086114d2565b01949350505050565b600063ffffffff808316818516808303821115611508576115086114d256fea2646970667358221220a6e9f9add6c10d3d0f91943de7eba7b07efe2134cc8e5c0eb3c7c8b646fb768964736f6c634300080f0033",
    "sourcePath": "/Users/admin/Documents/gitworkplace/ttswap_core/ttswap_core/Contracts/MoonV1Customer.sol",
    "compiler": {
        "name": "solc",
        "version": "0.8.15+commit.e14f2714"
    },
    "functionHashes": {
        "addCustomer((bytes32,uint32,address,uint40,address,uint32,address,bool,bool))": "14f9e554",
        "addCustomer((bytes32,uint32,address,uint40,address,uint32,address,bool,bool),address)": "fc5f9f18",
        "addRelation(uint40)": "f3c86048",
        "customerList(address)": "f4274bc5",
        "customerUniKey(uint40)": "3e95003c",
        "customerUniNextKey()": "367b6dcc",
        "gateContractAddress()": "2f17d5df",
        "gateCustomerList(address,uint32)": "5cfeafa5",
        "gateCustomerNextKey(address)": "bc5c6134",
        "getCustomer(address)": "cb949e51",
        "getCustomerInfobyRecommander(address,uint32)": "8370aa81",
        "getCustomerNumbyRecommander(address)": "8a6df726",
        "getCustomerRecommander(address)": "e71957b9",
        "isValidCustomer(address)": "78166097",
        "lockCustomerbyMarketor(address)": "0138a661",
        "marketorContractAddress()": "492b7107",
        "recommenderraltionkey(address)": "e853f952",
        "recommenderraltionlist(address,uint32)": "a60832cd",
        "unlockCustomerbyMarketor(address)": "be5fdac8",
        "updateCustomerNeckName(bytes32)": "3b63b647"
    },
    "gasEstimates": {
        "creation": {
            "codeDepositCost": "1095600",
            "executionCost": "infinite",
            "totalCost": "infinite"
        },
        "external": {
            "addCustomer((bytes32,uint32,address,uint40,address,uint32,address,bool,bool))": "infinite",
            "addCustomer((bytes32,uint32,address,uint40,address,uint32,address,bool,bool),address)": "infinite",
            "addRelation(uint40)": "84454",
            "customerList(address)": "9337",
            "customerUniKey(uint40)": "2558",
            "customerUniNextKey()": "2403",
            "gateContractAddress()": "infinite",
            "gateCustomerList(address,uint32)": "infinite",
            "gateCustomerNextKey(address)": "2601",
            "getCustomer(address)": "12242",
            "getCustomerInfobyRecommander(address,uint32)": "infinite",
            "getCustomerNumbyRecommander(address)": "2627",
            "getCustomerRecommander(address)": "4860",
            "isValidCustomer(address)": "2664",
            "lockCustomerbyMarketor(address)": "infinite",
            "marketorContractAddress()": "infinite",
            "recommenderraltionkey(address)": "2578",
            "recommenderraltionlist(address,uint32)": "infinite",
            "unlockCustomerbyMarketor(address)": "infinite",
            "updateCustomerNeckName(bytes32)": "46887"
        }
    }
}