{
    "contractName": "MoonV1Marketor",
    "abi": [
        {
            "inputs": [
                {
                    "internalType": "address",
                    "name": "_marketCreator",
                    "type": "address"
                }
            ],
            "stateMutability": "nonpayable",
            "type": "constructor"
        },
        {
            "inputs": [
                {
                    "internalType": "address",
                    "name": "",
                    "type": "address"
                }
            ],
            "name": "Marketors",
            "outputs": [
                {
                    "internalType": "bool",
                    "name": "",
                    "type": "bool"
                }
            ],
            "stateMutability": "view",
            "type": "function"
        },
        {
            "inputs": [
                {
                    "internalType": "address",
                    "name": "_owner",
                    "type": "address"
                }
            ],
            "name": "delMarketorByMarketCreator",
            "outputs": [],
            "stateMutability": "nonpayable",
            "type": "function"
        },
        {
            "inputs": [],
            "name": "isValidMarketor",
            "outputs": [
                {
                    "internalType": "bool",
                    "name": "",
                    "type": "bool"
                }
            ],
            "stateMutability": "view",
            "type": "function"
        },
        {
            "inputs": [],
            "name": "marketCreator",
            "outputs": [
                {
                    "internalType": "address",
                    "name": "",
                    "type": "address"
                }
            ],
            "stateMutability": "view",
            "type": "function"
        },
        {
            "inputs": [
                {
                    "internalType": "address",
                    "name": "_owner",
                    "type": "address"
                }
            ],
            "name": "setMarketorByMarketCreator",
            "outputs": [],
            "stateMutability": "nonpayable",
            "type": "function"
        }
    ],
    "bytecode": "608060405234801561001057600080fd5b5060405161026b38038061026b83398101604081905261002f91610054565b600180546001600160a01b0319166001600160a01b0392909216919091179055610084565b60006020828403121561006657600080fd5b81516001600160a01b038116811461007d57600080fd5b9392505050565b6101d8806100936000396000f3fe608060405234801561001057600080fd5b50600436106100575760003560e01c806327cbaabe1461005c5780633855cc651461008c5780635bffec62146100bf578063ad87d2ba146100d4578063b4f3824d146100ec575b600080fd5b60015461006f906001600160a01b031681565b6040516001600160a01b0390911681526020015b60405180910390f35b6100af61009a366004610172565b60006020819052908152604090205460ff1681565b6040519015158152602001610083565b6100d26100cd366004610172565b6100ff565b005b3360009081526020819052604090205460ff166100af565b6100d26100fa366004610172565b61013a565b6001546001600160a01b0316331461011657600080fd5b6001600160a01b03166000908152602081905260409020805460ff19166001179055565b6001546001600160a01b0316331461015157600080fd5b6001600160a01b03166000908152602081905260409020805460ff19169055565b60006020828403121561018457600080fd5b81356001600160a01b038116811461019b57600080fd5b939250505056fea264697066735822122046b5f3f2f7ea9f875d8c04b51d459fd56d0f392fa65c54543613a99fb5c28bcd64736f6c634300080f0033",
    "sourcePath": "/Users/admin/Documents/gitworkplace/ttswap_core/ttswap_core/Contracts/MoonV1Marketor.sol",
    "compiler": {
        "name": "solc",
        "version": "0.8.15+commit.e14f2714"
    },
    "functionHashes": {
        "Marketors(address)": "3855cc65",
        "delMarketorByMarketCreator(address)": "b4f3824d",
        "isValidMarketor()": "ad87d2ba",
        "marketCreator()": "27cbaabe",
        "setMarketorByMarketCreator(address)": "5bffec62"
    },
    "gasEstimates": {
        "creation": {
            "codeDepositCost": "94400",
            "executionCost": "infinite",
            "totalCost": "infinite"
        },
        "external": {
            "Marketors(address)": "2499",
            "delMarketorByMarketCreator(address)": "26778",
            "isValidMarketor()": "2419",
            "marketCreator()": "2304",
            "setMarketorByMarketCreator(address)": "26740"
        }
    }
}