{
    "contractName": "MoonV1Thing",
    "abi": [
        {
            "inputs": [
                {
                    "internalType": "address",
                    "name": "_gateContractAddress",
                    "type": "address"
                },
                {
                    "internalType": "address",
                    "name": "_marketorContractAddress",
                    "type": "address"
                }
            ],
            "stateMutability": "nonpayable",
            "type": "constructor"
        },
        {
            "inputs": [
                {
                    "internalType": "address",
                    "name": "",
                    "type": "address"
                }
            ],
            "name": "ThingsList",
            "outputs": [
                {
                    "internalType": "bytes32",
                    "name": "name",
                    "type": "bytes32"
                },
                {
                    "internalType": "address",
                    "name": "ownerAddress",
                    "type": "address"
                },
                {
                    "internalType": "bytes32",
                    "name": "LSTThingsFullName",
                    "type": "bytes32"
                },
                {
                    "internalType": "bytes6",
                    "name": "symbol",
                    "type": "bytes6"
                },
                {
                    "internalType": "uint8",
                    "name": "scope",
                    "type": "uint8"
                },
                {
                    "internalType": "address",
                    "name": "contractAddress",
                    "type": "address"
                },
                {
                    "internalType": "bool",
                    "name": "marketunlock",
                    "type": "bool"
                },
                {
                    "internalType": "bool",
                    "name": "unlock",
                    "type": "bool"
                },
                {
                    "internalType": "bool",
                    "name": "createrunlock",
                    "type": "bool"
                },
                {
                    "internalType": "bool",
                    "name": "isUsed",
                    "type": "bool"
                },
                {
                    "internalType": "address",
                    "name": "addfromgator",
                    "type": "address"
                },
                {
                    "internalType": "address",
                    "name": "creator",
                    "type": "address"
                }
            ],
            "stateMutability": "view",
            "type": "function"
        },
        {
            "inputs": [
                {
                    "components": [
                        {
                            "internalType": "bytes32",
                            "name": "name",
                            "type": "bytes32"
                        },
                        {
                            "internalType": "address",
                            "name": "ownerAddress",
                            "type": "address"
                        },
                        {
                            "internalType": "bytes32",
                            "name": "LSTThingsFullName",
                            "type": "bytes32"
                        },
                        {
                            "internalType": "bytes6",
                            "name": "symbol",
                            "type": "bytes6"
                        },
                        {
                            "internalType": "uint8",
                            "name": "scope",
                            "type": "uint8"
                        },
                        {
                            "internalType": "address",
                            "name": "contractAddress",
                            "type": "address"
                        },
                        {
                            "internalType": "bool",
                            "name": "marketunlock",
                            "type": "bool"
                        },
                        {
                            "internalType": "bool",
                            "name": "unlock",
                            "type": "bool"
                        },
                        {
                            "internalType": "bool",
                            "name": "createrunlock",
                            "type": "bool"
                        },
                        {
                            "internalType": "bool",
                            "name": "isUsed",
                            "type": "bool"
                        },
                        {
                            "internalType": "address",
                            "name": "addfromgator",
                            "type": "address"
                        },
                        {
                            "internalType": "address",
                            "name": "creator",
                            "type": "address"
                        }
                    ],
                    "internalType": "struct LThing.Info",
                    "name": "_ThingsInfo",
                    "type": "tuple"
                },
                {
                    "internalType": "address",
                    "name": "_gateaddress",
                    "type": "address"
                }
            ],
            "name": "addGateThingbyCreator",
            "outputs": [],
            "stateMutability": "nonpayable",
            "type": "function"
        },
        {
            "inputs": [
                {
                    "components": [
                        {
                            "internalType": "bytes32",
                            "name": "name",
                            "type": "bytes32"
                        },
                        {
                            "internalType": "address",
                            "name": "ownerAddress",
                            "type": "address"
                        },
                        {
                            "internalType": "bytes32",
                            "name": "LSTThingsFullName",
                            "type": "bytes32"
                        },
                        {
                            "internalType": "bytes6",
                            "name": "symbol",
                            "type": "bytes6"
                        },
                        {
                            "internalType": "uint8",
                            "name": "scope",
                            "type": "uint8"
                        },
                        {
                            "internalType": "address",
                            "name": "contractAddress",
                            "type": "address"
                        },
                        {
                            "internalType": "bool",
                            "name": "marketunlock",
                            "type": "bool"
                        },
                        {
                            "internalType": "bool",
                            "name": "unlock",
                            "type": "bool"
                        },
                        {
                            "internalType": "bool",
                            "name": "createrunlock",
                            "type": "bool"
                        },
                        {
                            "internalType": "bool",
                            "name": "isUsed",
                            "type": "bool"
                        },
                        {
                            "internalType": "address",
                            "name": "addfromgator",
                            "type": "address"
                        },
                        {
                            "internalType": "address",
                            "name": "creator",
                            "type": "address"
                        }
                    ],
                    "internalType": "struct LThing.Info",
                    "name": "_ThingsInfo",
                    "type": "tuple"
                }
            ],
            "name": "addThingbyMarketor",
            "outputs": [],
            "stateMutability": "nonpayable",
            "type": "function"
        },
        {
            "inputs": [
                {
                    "internalType": "address",
                    "name": "_internalThingsAddress",
                    "type": "address"
                },
                {
                    "internalType": "uint8",
                    "name": "_scope",
                    "type": "uint8"
                }
            ],
            "name": "changeThingScopebyMarketor",
            "outputs": [],
            "stateMutability": "nonpayable",
            "type": "function"
        },
        {
            "inputs": [
                {
                    "internalType": "address",
                    "name": "_contractaddress",
                    "type": "address"
                },
                {
                    "internalType": "address",
                    "name": "_gateaddress",
                    "type": "address"
                }
            ],
            "name": "delGateThingbyMarketor",
            "outputs": [],
            "stateMutability": "nonpayable",
            "type": "function"
        },
        {
            "inputs": [
                {
                    "components": [
                        {
                            "internalType": "bytes32",
                            "name": "name",
                            "type": "bytes32"
                        },
                        {
                            "internalType": "address",
                            "name": "ownerAddress",
                            "type": "address"
                        },
                        {
                            "internalType": "bytes32",
                            "name": "LSTThingsFullName",
                            "type": "bytes32"
                        },
                        {
                            "internalType": "bytes6",
                            "name": "symbol",
                            "type": "bytes6"
                        },
                        {
                            "internalType": "uint8",
                            "name": "scope",
                            "type": "uint8"
                        },
                        {
                            "internalType": "address",
                            "name": "contractAddress",
                            "type": "address"
                        },
                        {
                            "internalType": "bool",
                            "name": "marketunlock",
                            "type": "bool"
                        },
                        {
                            "internalType": "bool",
                            "name": "unlock",
                            "type": "bool"
                        },
                        {
                            "internalType": "bool",
                            "name": "createrunlock",
                            "type": "bool"
                        },
                        {
                            "internalType": "bool",
                            "name": "isUsed",
                            "type": "bool"
                        },
                        {
                            "internalType": "address",
                            "name": "addfromgator",
                            "type": "address"
                        },
                        {
                            "internalType": "address",
                            "name": "creator",
                            "type": "address"
                        }
                    ],
                    "internalType": "struct LThing.Info",
                    "name": "_ThingsInfo",
                    "type": "tuple"
                }
            ],
            "name": "delMarketThingbyMarketor",
            "outputs": [],
            "stateMutability": "nonpayable",
            "type": "function"
        },
        {
            "inputs": [],
            "name": "gateContractAddress",
            "outputs": [
                {
                    "internalType": "address",
                    "name": "",
                    "type": "address"
                }
            ],
            "stateMutability": "view",
            "type": "function"
        },
        {
            "inputs": [
                {
                    "internalType": "address",
                    "name": "",
                    "type": "address"
                },
                {
                    "internalType": "address",
                    "name": "",
                    "type": "address"
                }
            ],
            "name": "gateThingsList",
            "outputs": [
                {
                    "internalType": "address",
                    "name": "",
                    "type": "address"
                }
            ],
            "stateMutability": "view",
            "type": "function"
        },
        {
            "inputs": [
                {
                    "internalType": "address",
                    "name": "_contractaddress",
                    "type": "address"
                }
            ],
            "name": "getThingInfo",
            "outputs": [
                {
                    "components": [
                        {
                            "internalType": "bytes32",
                            "name": "name",
                            "type": "bytes32"
                        },
                        {
                            "internalType": "address",
                            "name": "ownerAddress",
                            "type": "address"
                        },
                        {
                            "internalType": "bytes32",
                            "name": "LSTThingsFullName",
                            "type": "bytes32"
                        },
                        {
                            "internalType": "bytes6",
                            "name": "symbol",
                            "type": "bytes6"
                        },
                        {
                            "internalType": "uint8",
                            "name": "scope",
                            "type": "uint8"
                        },
                        {
                            "internalType": "address",
                            "name": "contractAddress",
                            "type": "address"
                        },
                        {
                            "internalType": "bool",
                            "name": "marketunlock",
                            "type": "bool"
                        },
                        {
                            "internalType": "bool",
                            "name": "unlock",
                            "type": "bool"
                        },
                        {
                            "internalType": "bool",
                            "name": "createrunlock",
                            "type": "bool"
                        },
                        {
                            "internalType": "bool",
                            "name": "isUsed",
                            "type": "bool"
                        },
                        {
                            "internalType": "address",
                            "name": "addfromgator",
                            "type": "address"
                        },
                        {
                            "internalType": "address",
                            "name": "creator",
                            "type": "address"
                        }
                    ],
                    "internalType": "struct LThing.Info",
                    "name": "",
                    "type": "tuple"
                }
            ],
            "stateMutability": "view",
            "type": "function"
        },
        {
            "inputs": [
                {
                    "internalType": "address",
                    "name": "_contractaddress",
                    "type": "address"
                },
                {
                    "internalType": "address",
                    "name": "_gateaddress",
                    "type": "address"
                }
            ],
            "name": "impoveGateThingbyMarketor",
            "outputs": [],
            "stateMutability": "nonpayable",
            "type": "function"
        },
        {
            "inputs": [
                {
                    "internalType": "address",
                    "name": "_thing",
                    "type": "address"
                }
            ],
            "name": "isValidThing",
            "outputs": [
                {
                    "internalType": "bool",
                    "name": "",
                    "type": "bool"
                }
            ],
            "stateMutability": "view",
            "type": "function"
        },
        {
            "inputs": [
                {
                    "internalType": "address",
                    "name": "_internalThingsAddress",
                    "type": "address"
                },
                {
                    "internalType": "address",
                    "name": "_gateaddress",
                    "type": "address"
                }
            ],
            "name": "lockGateThingbyCreater",
            "outputs": [],
            "stateMutability": "nonpayable",
            "type": "function"
        },
        {
            "inputs": [
                {
                    "internalType": "address",
                    "name": "_internalThingsAddress",
                    "type": "address"
                }
            ],
            "name": "lockThingbyGator",
            "outputs": [],
            "stateMutability": "nonpayable",
            "type": "function"
        },
        {
            "inputs": [
                {
                    "internalType": "address",
                    "name": "_internalThingsAddress",
                    "type": "address"
                }
            ],
            "name": "lockThingbyMarketor",
            "outputs": [],
            "stateMutability": "nonpayable",
            "type": "function"
        },
        {
            "inputs": [
                {
                    "internalType": "address",
                    "name": "",
                    "type": "address"
                }
            ],
            "name": "marketThingsList",
            "outputs": [
                {
                    "internalType": "address",
                    "name": "",
                    "type": "address"
                }
            ],
            "stateMutability": "view",
            "type": "function"
        },
        {
            "inputs": [],
            "name": "marketorContractAddress",
            "outputs": [
                {
                    "internalType": "address",
                    "name": "",
                    "type": "address"
                }
            ],
            "stateMutability": "view",
            "type": "function"
        },
        {
            "inputs": [
                {
                    "internalType": "address",
                    "name": "_internalThingsAddress",
                    "type": "address"
                },
                {
                    "internalType": "address",
                    "name": "_gateaddress",
                    "type": "address"
                }
            ],
            "name": "unlockGateThingbyCreater",
            "outputs": [],
            "stateMutability": "nonpayable",
            "type": "function"
        },
        {
            "inputs": [
                {
                    "internalType": "address",
                    "name": "_internalThingsAddress",
                    "type": "address"
                }
            ],
            "name": "unlockThingbyGator",
            "outputs": [],
            "stateMutability": "nonpayable",
            "type": "function"
        },
        {
            "inputs": [
                {
                    "internalType": "address",
                    "name": "_internalThingsAddress",
                    "type": "address"
                }
            ],
            "name": "unlockThingbyMarketor",
            "outputs": [],
            "stateMutability": "nonpayable",
            "type": "function"
        },
        {
            "inputs": [
                {
                    "components": [
                        {
                            "internalType": "bytes32",
                            "name": "name",
                            "type": "bytes32"
                        },
                        {
                            "internalType": "address",
                            "name": "ownerAddress",
                            "type": "address"
                        },
                        {
                            "internalType": "bytes32",
                            "name": "LSTThingsFullName",
                            "type": "bytes32"
                        },
                        {
                            "internalType": "bytes6",
                            "name": "symbol",
                            "type": "bytes6"
                        },
                        {
                            "internalType": "uint8",
                            "name": "scope",
                            "type": "uint8"
                        },
                        {
                            "internalType": "address",
                            "name": "contractAddress",
                            "type": "address"
                        },
                        {
                            "internalType": "bool",
                            "name": "marketunlock",
                            "type": "bool"
                        },
                        {
                            "internalType": "bool",
                            "name": "unlock",
                            "type": "bool"
                        },
                        {
                            "internalType": "bool",
                            "name": "createrunlock",
                            "type": "bool"
                        },
                        {
                            "internalType": "bool",
                            "name": "isUsed",
                            "type": "bool"
                        },
                        {
                            "internalType": "address",
                            "name": "addfromgator",
                            "type": "address"
                        },
                        {
                            "internalType": "address",
                            "name": "creator",
                            "type": "address"
                        }
                    ],
                    "internalType": "struct LThing.Info",
                    "name": "_ThingsInfo",
                    "type": "tuple"
                },
                {
                    "internalType": "address",
                    "name": "_gateaddress",
                    "type": "address"
                }
            ],
            "name": "updateGateThingbyCreator",
            "outputs": [],
            "stateMutability": "nonpayable",
            "type": "function"
        },
        {
            "inputs": [
                {
                    "components": [
                        {
                            "internalType": "bytes32",
                            "name": "name",
                            "type": "bytes32"
                        },
                        {
                            "internalType": "address",
                            "name": "ownerAddress",
                            "type": "address"
                        },
                        {
                            "internalType": "bytes32",
                            "name": "LSTThingsFullName",
                            "type": "bytes32"
                        },
                        {
                            "internalType": "bytes6",
                            "name": "symbol",
                            "type": "bytes6"
                        },
                        {
                            "internalType": "uint8",
                            "name": "scope",
                            "type": "uint8"
                        },
                        {
                            "internalType": "address",
                            "name": "contractAddress",
                            "type": "address"
                        },
                        {
                            "internalType": "bool",
                            "name": "marketunlock",
                            "type": "bool"
                        },
                        {
                            "internalType": "bool",
                            "name": "unlock",
                            "type": "bool"
                        },
                        {
                            "internalType": "bool",
                            "name": "createrunlock",
                            "type": "bool"
                        },
                        {
                            "internalType": "bool",
                            "name": "isUsed",
                            "type": "bool"
                        },
                        {
                            "internalType": "address",
                            "name": "addfromgator",
                            "type": "address"
                        },
                        {
                            "internalType": "address",
                            "name": "creator",
                            "type": "address"
                        }
                    ],
                    "internalType": "struct LThing.Info",
                    "name": "_ThingsInfo",
                    "type": "tuple"
                }
            ],
            "name": "updateThingbyGator",
            "outputs": [],
            "stateMutability": "nonpayable",
            "type": "function"
        },
        {
            "inputs": [
                {
                    "components": [
                        {
                            "internalType": "bytes32",
                            "name": "name",
                            "type": "bytes32"
                        },
                        {
                            "internalType": "address",
                            "name": "ownerAddress",
                            "type": "address"
                        },
                        {
                            "internalType": "bytes32",
                            "name": "LSTThingsFullName",
                            "type": "bytes32"
                        },
                        {
                            "internalType": "bytes6",
                            "name": "symbol",
                            "type": "bytes6"
                        },
                        {
                            "internalType": "uint8",
                            "name": "scope",
                            "type": "uint8"
                        },
                        {
                            "internalType": "address",
                            "name": "contractAddress",
                            "type": "address"
                        },
                        {
                            "internalType": "bool",
                            "name": "marketunlock",
                            "type": "bool"
                        },
                        {
                            "internalType": "bool",
                            "name": "unlock",
                            "type": "bool"
                        },
                        {
                            "internalType": "bool",
                            "name": "createrunlock",
                            "type": "bool"
                        },
                        {
                            "internalType": "bool",
                            "name": "isUsed",
                            "type": "bool"
                        },
                        {
                            "internalType": "address",
                            "name": "addfromgator",
                            "type": "address"
                        },
                        {
                            "internalType": "address",
                            "name": "creator",
                            "type": "address"
                        }
                    ],
                    "internalType": "struct LThing.Info",
                    "name": "_ThingsInfo",
                    "type": "tuple"
                }
            ],
            "name": "updateThingbyMarketor",
            "outputs": [],
            "stateMutability": "nonpayable",
            "type": "function"
        }
    ],
    "bytecode": "60806040523480156200001157600080fd5b5060405162001e8938038062001e89833981016040819052620000349162000083565b600380546001600160a01b039384166001600160a01b03199182161790915560048054929093169116179055620000bb565b80516001600160a01b03811681146200007e57600080fd5b919050565b600080604083850312156200009757600080fd5b620000a28362000066565b9150620000b26020840162000066565b90509250929050565b611dbe80620000cb6000396000f3fe608060405234801561001057600080fd5b50600436106101425760003560e01c80639a08975e116100b8578063b7228d6f1161007c578063b7228d6f14610394578063c77682f2146103b4578063cda5469a146103c7578063d7c48ccf1461040d578063f6b775d614610441578063fd96b7071461045457600080fd5b80639a08975e146102245780639f036b7114610237578063adc7c41514610260578063b32ba89714610273578063b5e124461461038157600080fd5b80634d768b151161010a5780634d768b15146101c5578063510e1e01146101d857806360d7d178146101eb57806362d7b46d146101fe5780637f482ae61461019f5780637fab09b71461021157600080fd5b80632f17d5df1461014757806339dd19b8146101775780633b7c5d921461018c5780634210f3761461019f578063492b7107146101b2575b600080fd5b60035461015a906001600160a01b031681565b6040516001600160a01b0390911681526020015b60405180910390f35b61018a6101853660046119b6565b610467565b005b61018a61019a3660046119b6565b610553565b61018a6101ad366004611b31565b6105ee565b60045461015a906001600160a01b031681565b61018a6101d33660046119b6565b61092c565b61018a6101e6366004611b67565b610a15565b61018a6101f9366004611b67565b610b06565b61018a61020c366004611b91565b610c77565b61018a61021f3660046119b6565b611042565b61018a610232366004611b91565b6110e3565b61015a6102453660046119b6565b6000602081905290815260409020546001600160a01b031681565b61018a61026e366004611b91565b6111bf565b61030a6102813660046119b6565b600260208190526000918252604090912080546001820154928201546003830154600484015460059094015492946001600160a01b0390811694929360d083901b9360ff600160301b8504811694600160381b8104851694600160d81b8204831694600160e01b8304841694600160e81b8404851694600160f01b90940490931692821691168c565b604080519c8d526001600160a01b039b8c1660208e01528c01999099526001600160d01b031990971660608b015260ff90951660808a015292871660a089015290151560c0880152151560e0870152151561010086015215156101208501528216610140840152166101608201526101800161016e565b61018a61038f366004611b67565b61142f565b6103a76103a23660046119b6565b6114c4565b60405161016e9190611bae565b61018a6103c2366004611c97565b611646565b6103fd6103d53660046119b6565b6001600160a01b0316600090815260026020526040902060030154600160d81b900460ff1690565b604051901515815260200161016e565b61015a61041b366004611b67565b60016020908152600092835260408084209091529082529020546001600160a01b031681565b61018a61044f366004611b91565b6116f7565b61018a610462366004611b67565b6118ff565b600360009054906101000a90046001600160a01b03166001600160a01b03166354a460f66040518163ffffffff1660e01b8152600401602060405180830381865afa1580156104ba573d6000803e3d6000fd5b505050506040513d601f19601f820116820180604052508101906104de9190611cc1565b6104e757600080fd5b6001600160a01b0381811660009081526002602052604090206004015416331461052c5760405162461bcd60e51b815260040161052390611cde565b60405180910390fd5b6001600160a01b03166000908152600260205260409020600301805460ff60e01b19169055565b60048054604080516356c3e95d60e11b815290516001600160a01b039092169263ad87d2ba9282820192602092908290030181865afa15801561059a573d6000803e3d6000fd5b505050506040513d601f19601f820116820180604052508101906105be9190611cc1565b6105c757600080fd5b6001600160a01b03166000908152600260205260409020600301805460ff60d81b19169055565b60a08201516001600160a01b0316600090815260026020526040902060030154600160f01b900460ff16151560011480159061065357506001600160a01b03818116600090815260016020908152604080832060a08701518516845290915290205416155b61066f5760405162461bcd60e51b815260040161052390611cde565b60008260c001901515908115158152505060018260e0019015159081151581525050600082610100019015159081151581525050600182610120019015159081151581525050808261014001906001600160a01b031690816001600160a01b031681525050338261016001906001600160a01b031690816001600160a01b03168152505081600260008460a001516001600160a01b03166001600160a01b031681526020019081526020016000206000820151816000015560208201518160010160006101000a8154816001600160a01b0302191690836001600160a01b031602179055506040820151816002015560608201518160030160006101000a81548165ffffffffffff021916908360d01c021790555060808201518160030160066101000a81548160ff021916908360ff16021790555060a08201518160030160076101000a8154816001600160a01b0302191690836001600160a01b0316021790555060c082015181600301601b6101000a81548160ff02191690831515021790555060e082015181600301601c6101000a81548160ff02191690831515021790555061010082015181600301601d6101000a81548160ff02191690831515021790555061012082015181600301601e6101000a81548160ff0219169083151502179055506101408201518160040160006101000a8154816001600160a01b0302191690836001600160a01b031602179055506101608201518160050160006101000a8154816001600160a01b0302191690836001600160a01b031602179055509050508160a0015160016000836001600160a01b03166001600160a01b0316815260200190815260200160002060008460a001516001600160a01b03166001600160a01b0316815260200190815260200160002060006101000a8154816001600160a01b0302191690836001600160a01b031602179055505050565b600360009054906101000a90046001600160a01b03166001600160a01b03166354a460f66040518163ffffffff1660e01b8152600401602060405180830381865afa15801561097f573d6000803e3d6000fd5b505050506040513d601f19601f820116820180604052508101906109a39190611cc1565b6109ac57600080fd5b6001600160a01b038181166000908152600260205260409020600401541633146109e85760405162461bcd60e51b815260040161052390611cde565b6001600160a01b03166000908152600260205260409020600301805460ff60e01b1916600160e01b179055565b60048054604080516356c3e95d60e11b815290516001600160a01b039092169263ad87d2ba9282820192602092908290030181865afa158015610a5c573d6000803e3d6000fd5b505050506040513d601f19601f82011682018060405250810190610a809190611cc1565b610a8957600080fd5b6001600160a01b03818116600090815260016020908152604080832086851684529091529020541615610ace5760405162461bcd60e51b815260040161052390611d0e565b6001600160a01b03908116600090815260016020908152604080832094909316825292909252902080546001600160a01b0319169055565b60048054604080516356c3e95d60e11b815290516001600160a01b039092169263ad87d2ba9282820192602092908290030181865afa158015610b4d573d6000803e3d6000fd5b505050506040513d601f19601f82011682018060405250810190610b719190611cc1565b610b7a57600080fd5b6001600160a01b038181166000908152600160209081526040808320868516845290915290205416610bbe5760405162461bcd60e51b815260040161052390611d0e565b6001600160a01b038281166000908152602081905260409020541615610c265760405162461bcd60e51b815260206004820152601f60248201527f746865205468696e6773206973202065786973747320696e206d61726b6574006044820152606401610523565b6001600160a01b03908116600090815260016020908152604080832094841683528482528083208054848452919093208054919094166001600160a01b031991821617909355929092528154169055565b60048054604080516356c3e95d60e11b815290516001600160a01b039092169263ad87d2ba9282820192602092908290030181865afa158015610cbe573d6000803e3d6000fd5b505050506040513d601f19601f82011682018060405250810190610ce29190611cc1565b610ceb57600080fd5b60a08101516001600160a01b0316600090815260026020526040902060030154600160f01b900460ff161515600114610fa457338161014001906001600160a01b031690816001600160a01b031681525050338161016001906001600160a01b031690816001600160a01b03168152505060008160c001901515908115158152505060008160e001901515908115158152505060018161012001901515908115158152505080600260008360a001516001600160a01b03166001600160a01b031681526020019081526020016000206000820151816000015560208201518160010160006101000a8154816001600160a01b0302191690836001600160a01b031602179055506040820151816002015560608201518160030160006101000a81548165ffffffffffff021916908360d01c021790555060808201518160030160066101000a81548160ff021916908360ff16021790555060a08201518160030160076101000a8154816001600160a01b0302191690836001600160a01b0316021790555060c082015181600301601b6101000a81548160ff02191690831515021790555060e082015181600301601c6101000a81548160ff02191690831515021790555061010082015181600301601d6101000a81548160ff02191690831515021790555061012082015181600301601e6101000a81548160ff0219169083151502179055506101408201518160040160006101000a8154816001600160a01b0302191690836001600160a01b031602179055506101608201518160050160006101000a8154816001600160a01b0302191690836001600160a01b031602179055509050508060a001516000808360a001516001600160a01b03166001600160a01b0316815260200190815260200160002060006101000a8154816001600160a01b0302191690836001600160a01b0316021790555050565b60a08101516001600160a01b0390811660009081526020819052604090205416156110115760405162461bcd60e51b815260206004820181905260248201527f746865207374676f6f64732065786973747320696e20746865206d61726b65746044820152606401610523565b60a08101516001600160a01b0316600081815260208190526040902080546001600160a01b03191690911790555b50565b60048054604080516356c3e95d60e11b815290516001600160a01b039092169263ad87d2ba9282820192602092908290030181865afa158015611089573d6000803e3d6000fd5b505050506040513d601f19601f820116820180604052508101906110ad9190611cc1565b6110b657600080fd5b6001600160a01b03166000908152600260205260409020600301805460ff60d81b1916600160d81b179055565b60048054604080516356c3e95d60e11b815290516001600160a01b039092169263ad87d2ba9282820192602092908290030181865afa15801561112a573d6000803e3d6000fd5b505050506040513d601f19601f8201168201806040525081019061114e9190611cc1565b61115757600080fd5b60a08101516001600160a01b0390811660009081526020819052604090205416156111945760405162461bcd60e51b815260040161052390611d0e565b60a001516001600160a01b0316600090815260208190526040902080546001600160a01b0319169055565b600360009054906101000a90046001600160a01b03166001600160a01b03166354a460f66040518163ffffffff1660e01b8152600401602060405180830381865afa158015611212573d6000803e3d6000fd5b505050506040513d601f19601f820116820180604052508101906112369190611cc1565b61123f57600080fd5b60a08101516001600160a01b039081166000908152600260205260409020600401541633146112805760405162461bcd60e51b815260040161052390611cde565b806080015160ff166004146112d75760405162461bcd60e51b815260206004820181905260248201527f74686520636f696e2073636f7065206973206e6f74206a7573746966696564206044820152606401610523565b600060c0820181815260e083018281526001610120850181815233610140870190815260a0870180516001600160a01b039081168852600260208181526040998a90208b518155908b015196810180549784166001600160a01b0319988916179055988a015190890155606089015160038901805460808c01519451995198516101008d015197511515600160f01b0260ff60f01b19981515600160e81b0260ff60e81b19921515600160e01b029290921661ffff60e01b199b1515600160d81b0260ff60d81b199d8816600160381b029d909d16600160381b600160e01b031960ff909916600160301b0266ffffffffffffff1990951660d09790971c96909617939093179690961693909317999099179790971697909717969096179290921691909117909255905160048401805491841691831691909117905561016090930151600590920180549290911691909216179055565b6001600160a01b03828116600090815260026020526040902060050154163314801561148057506001600160a01b038181166000908152600160209081526040808320868516845290915290205416155b61149c5760405162461bcd60e51b815260040161052390611d45565b506001600160a01b03166000908152600260205260409020600301805460ff60e81b19169055565b6040805161018081018252600080825260208201819052918101829052606081018290526080810182905260a0810182905260c0810182905260e081018290526101008101829052610120810182905261014081018290526101608101919091526001600160a01b038216600090815260026020526040902060030154600160f01b900460ff16151560011461156c5760405162461bcd60e51b815260040161052390611d0e565b506001600160a01b03908116600090815260026020818152604092839020835161018081018552815481526001820154861692810192909252918201549281019290925260038101546001600160d01b031960d082901b16606084015260ff600160301b820481166080850152600160381b8204851660a0850152600160d81b82048116151560c0850152600160e01b82048116151560e0850152600160e81b820481161515610100850152600160f01b909104161515610120830152600481015483166101408301526005015490911661016082015290565b60048054604080516356c3e95d60e11b815290516001600160a01b039092169263ad87d2ba9282820192602092908290030181865afa15801561168d573d6000803e3d6000fd5b505050506040513d601f19601f820116820180604052508101906116b19190611cc1565b6116ba57600080fd5b6001600160a01b039091166000908152600260205260409020600301805460ff909216600160301b0266ff00000000000019909216919091179055565b60048054604080516356c3e95d60e11b815290516001600160a01b039092169263ad87d2ba9282820192602092908290030181865afa15801561173e573d6000803e3d6000fd5b505050506040513d601f19601f820116820180604052508101906117629190611cc1565b61176b57600080fd5b60a08101516001600160a01b039081166000908152602081905260409020541661179457600080fd5b600060c0820181815260e083018281526001610120850181815260a0860180516001600160a01b039081168752600260208181526040808a2060059081015485166101608d01908152865186168c528484529a8290208c518155928c015197830180549886166001600160a01b0319998a16179055908b01519282019290925560608a015160038201805460808d015196519a5199516101008e015198511515600160f01b0260ff60f01b19991515600160e81b0260ff60e81b19921515600160e01b029290921661ffff60e01b199c1515600160d81b0260ff60d81b199e8a16600160381b029e909e16600160381b600160e01b031960ff909b16600160301b0266ffffffffffffff1990951660d09790971c969096179390931798909816939093179a909a179890981698909817979097179390931691909117909355610140909501516004840180549184169183169190911790559251919093018054919093169116179055565b6001600160a01b03828116600090815260026020526040902060050154163314801561195057506001600160a01b038181166000908152600160209081526040808320868516845290915290205416155b61196c5760405162461bcd60e51b815260040161052390611d45565b506001600160a01b03166000908152600260205260409020600301805460ff60e81b1916600160e81b179055565b80356001600160a01b03811681146119b157600080fd5b919050565b6000602082840312156119c857600080fd5b6119d18261199a565b9392505050565b604051610180810167ffffffffffffffff81118282101715611a0a57634e487b7160e01b600052604160045260246000fd5b60405290565b80356001600160d01b0319811681146119b157600080fd5b803560ff811681146119b157600080fd5b801515811461103f57600080fd5b80356119b181611a39565b60006101808284031215611a6557600080fd5b611a6d6119d8565b905081358152611a7f6020830161199a565b602082015260408201356040820152611a9a60608301611a10565b6060820152611aab60808301611a28565b6080820152611abc60a0830161199a565b60a0820152611acd60c08301611a47565b60c0820152611ade60e08301611a47565b60e0820152610100611af1818401611a47565b90820152610120611b03838201611a47565b90820152610140611b1583820161199a565b90820152610160611b2783820161199a565b9082015292915050565b6000806101a08385031215611b4557600080fd5b611b4f8484611a52565b9150611b5e610180840161199a565b90509250929050565b60008060408385031215611b7a57600080fd5b611b838361199a565b9150611b5e6020840161199a565b60006101808284031215611ba457600080fd5b6119d18383611a52565b81518152602080830151610180830191611bd2908401826001600160a01b03169052565b50604083015160408301526060830151611bf860608401826001600160d01b0319169052565b506080830151611c0d608084018260ff169052565b5060a0830151611c2860a08401826001600160a01b03169052565b5060c0830151611c3c60c084018215159052565b5060e0830151611c5060e084018215159052565b506101008381015115159083015261012080840151151590830152610140808401516001600160a01b03908116918401919091526101609384015116929091019190915290565b60008060408385031215611caa57600080fd5b611cb38361199a565b9150611b5e60208401611a28565b600060208284031215611cd357600080fd5b81516119d181611a39565b6020808252601690820152751e5bdd481a185d99481b9bdd081d1a19481c9a59da1d60521b604082015260600190565b60208082526018908201527f746865205468696e6773206973206e6f74206578697374730000000000000000604082015260600190565b60208082526023908201527f796f752068617665206e6f74207468652070726976696c65676573206f66207460408201526268697360e81b60608201526080019056fea26469706673582212208ae4fb812980e4f2e0ebb6b77b19b51aecf0808a66a344563357a0cce36f662664736f6c634300080f0033",
    "sourcePath": "/Users/admin/Documents/gitworkplace/ttswap_core/ttswap_core/Contracts/MoonV1Thing.sol",
    "compiler": {
        "name": "solc",
        "version": "0.8.15+commit.e14f2714"
    },
    "functionHashes": {
        "ThingsList(address)": "b32ba897",
        "addGateThingbyCreator((bytes32,address,bytes32,bytes6,uint8,address,bool,bool,bool,bool,address,address),address)": "4210f376",
        "addThingbyMarketor((bytes32,address,bytes32,bytes6,uint8,address,bool,bool,bool,bool,address,address))": "62d7b46d",
        "changeThingScopebyMarketor(address,uint8)": "c77682f2",
        "delGateThingbyMarketor(address,address)": "510e1e01",
        "delMarketThingbyMarketor((bytes32,address,bytes32,bytes6,uint8,address,bool,bool,bool,bool,address,address))": "9a08975e",
        "gateContractAddress()": "2f17d5df",
        "gateThingsList(address,address)": "d7c48ccf",
        "getThingInfo(address)": "b7228d6f",
        "impoveGateThingbyMarketor(address,address)": "60d7d178",
        "isValidThing(address)": "cda5469a",
        "lockGateThingbyCreater(address,address)": "b5e12446",
        "lockThingbyGator(address)": "39dd19b8",
        "lockThingbyMarketor(address)": "3b7c5d92",
        "marketThingsList(address)": "9f036b71",
        "marketorContractAddress()": "492b7107",
        "unlockGateThingbyCreater(address,address)": "fd96b707",
        "unlockThingbyGator(address)": "4d768b15",
        "unlockThingbyMarketor(address)": "7fab09b7",
        "updateGateThingbyCreator((bytes32,address,bytes32,bytes6,uint8,address,bool,bool,bool,bool,address,address),address)": "7f482ae6",
        "updateThingbyGator((bytes32,address,bytes32,bytes6,uint8,address,bool,bool,bool,bool,address,address))": "adc7c415",
        "updateThingbyMarketor((bytes32,address,bytes32,bytes6,uint8,address,bool,bool,bool,bool,address,address))": "f6b775d6"
    },
    "gasEstimates": {
        "creation": {
            "codeDepositCost": "1522800",
            "executionCost": "infinite",
            "totalCost": "infinite"
        },
        "external": {
            "ThingsList(address)": "13681",
            "addGateThingbyCreator((bytes32,address,bytes32,bytes6,uint8,address,bool,bool,bool,bool,address,address),address)": "infinite",
            "addThingbyMarketor((bytes32,address,bytes32,bytes6,uint8,address,bool,bool,bool,bool,address,address))": "infinite",
            "changeThingScopebyMarketor(address,uint8)": "infinite",
            "delGateThingbyMarketor(address,address)": "infinite",
            "delMarketThingbyMarketor((bytes32,address,bytes32,bytes6,uint8,address,bool,bool,bool,bool,address,address))": "infinite",
            "gateContractAddress()": "2350",
            "gateThingsList(address,address)": "infinite",
            "getThingInfo(address)": "16686",
            "impoveGateThingbyMarketor(address,address)": "infinite",
            "isValidThing(address)": "2638",
            "lockGateThingbyCreater(address,address)": "infinite",
            "lockThingbyGator(address)": "infinite",
            "lockThingbyMarketor(address)": "infinite",
            "marketThingsList(address)": "2595",
            "marketorContractAddress()": "2438",
            "unlockGateThingbyCreater(address,address)": "infinite",
            "unlockThingbyGator(address)": "infinite",
            "unlockThingbyMarketor(address)": "infinite",
            "updateGateThingbyCreator((bytes32,address,bytes32,bytes6,uint8,address,bool,bool,bool,bool,address,address),address)": "infinite",
            "updateThingbyGator((bytes32,address,bytes32,bytes6,uint8,address,bool,bool,bool,bool,address,address))": "infinite",
            "updateThingbyMarketor((bytes32,address,bytes32,bytes6,uint8,address,bool,bool,bool,bool,address,address))": "infinite"
        }
    }
}