{
    "contractName": "MoonV1Shop",
    "abi": [
        {
            "inputs": [],
            "stateMutability": "nonpayable",
            "type": "constructor"
        },
        {
            "anonymous": false,
            "inputs": [
                {
                    "indexed": true,
                    "internalType": "address",
                    "name": "owner",
                    "type": "address"
                },
                {
                    "indexed": true,
                    "internalType": "int24",
                    "name": "tickLower",
                    "type": "int24"
                },
                {
                    "indexed": true,
                    "internalType": "int24",
                    "name": "tickUpper",
                    "type": "int24"
                },
                {
                    "indexed": false,
                    "internalType": "uint128",
                    "name": "amount",
                    "type": "uint128"
                },
                {
                    "indexed": false,
                    "internalType": "uint256",
                    "name": "amount0",
                    "type": "uint256"
                },
                {
                    "indexed": false,
                    "internalType": "uint256",
                    "name": "amount1",
                    "type": "uint256"
                }
            ],
            "name": "Burn",
            "type": "event"
        },
        {
            "anonymous": false,
            "inputs": [
                {
                    "indexed": true,
                    "internalType": "address",
                    "name": "owner",
                    "type": "address"
                },
                {
                    "indexed": false,
                    "internalType": "address",
                    "name": "recipient",
                    "type": "address"
                },
                {
                    "indexed": true,
                    "internalType": "int24",
                    "name": "tickLower",
                    "type": "int24"
                },
                {
                    "indexed": true,
                    "internalType": "int24",
                    "name": "tickUpper",
                    "type": "int24"
                },
                {
                    "indexed": false,
                    "internalType": "uint128",
                    "name": "amount0",
                    "type": "uint128"
                },
                {
                    "indexed": false,
                    "internalType": "uint128",
                    "name": "amount1",
                    "type": "uint128"
                }
            ],
            "name": "Collect",
            "type": "event"
        },
        {
            "anonymous": false,
            "inputs": [
                {
                    "indexed": true,
                    "internalType": "address",
                    "name": "sender",
                    "type": "address"
                },
                {
                    "indexed": true,
                    "internalType": "address",
                    "name": "recipient",
                    "type": "address"
                },
                {
                    "indexed": false,
                    "internalType": "uint128",
                    "name": "amount0",
                    "type": "uint128"
                },
                {
                    "indexed": false,
                    "internalType": "uint128",
                    "name": "amount1",
                    "type": "uint128"
                }
            ],
            "name": "CollectProtocol",
            "type": "event"
        },
        {
            "anonymous": false,
            "inputs": [
                {
                    "indexed": true,
                    "internalType": "address",
                    "name": "sender",
                    "type": "address"
                },
                {
                    "indexed": true,
                    "internalType": "address",
                    "name": "recipient",
                    "type": "address"
                },
                {
                    "indexed": false,
                    "internalType": "uint256",
                    "name": "amount0",
                    "type": "uint256"
                },
                {
                    "indexed": false,
                    "internalType": "uint256",
                    "name": "amount1",
                    "type": "uint256"
                },
                {
                    "indexed": false,
                    "internalType": "uint256",
                    "name": "paid0",
                    "type": "uint256"
                },
                {
                    "indexed": false,
                    "internalType": "uint256",
                    "name": "paid1",
                    "type": "uint256"
                }
            ],
            "name": "Flash",
            "type": "event"
        },
        {
            "anonymous": false,
            "inputs": [
                {
                    "indexed": false,
                    "internalType": "uint16",
                    "name": "observationCardinalityNextOld",
                    "type": "uint16"
                },
                {
                    "indexed": false,
                    "internalType": "uint16",
                    "name": "observationCardinalityNextNew",
                    "type": "uint16"
                }
            ],
            "name": "IncreaseObservationCardinalityNext",
            "type": "event"
        },
        {
            "anonymous": false,
            "inputs": [
                {
                    "indexed": false,
                    "internalType": "uint160",
                    "name": "sqrtPriceX96",
                    "type": "uint160"
                },
                {
                    "indexed": false,
                    "internalType": "int24",
                    "name": "tick",
                    "type": "int24"
                }
            ],
            "name": "Initialize",
            "type": "event"
        },
        {
            "anonymous": false,
            "inputs": [
                {
                    "indexed": false,
                    "internalType": "address",
                    "name": "sender",
                    "type": "address"
                },
                {
                    "indexed": true,
                    "internalType": "address",
                    "name": "owner",
                    "type": "address"
                },
                {
                    "indexed": true,
                    "internalType": "int24",
                    "name": "tickLower",
                    "type": "int24"
                },
                {
                    "indexed": true,
                    "internalType": "int24",
                    "name": "tickUpper",
                    "type": "int24"
                },
                {
                    "indexed": false,
                    "internalType": "uint128",
                    "name": "amount",
                    "type": "uint128"
                },
                {
                    "indexed": false,
                    "internalType": "uint256",
                    "name": "amount0",
                    "type": "uint256"
                },
                {
                    "indexed": false,
                    "internalType": "uint256",
                    "name": "amount1",
                    "type": "uint256"
                }
            ],
            "name": "Mint",
            "type": "event"
        },
        {
            "anonymous": false,
            "inputs": [
                {
                    "indexed": false,
                    "internalType": "uint8",
                    "name": "feeProtocol0Old",
                    "type": "uint8"
                },
                {
                    "indexed": false,
                    "internalType": "uint8",
                    "name": "feeProtocol1Old",
                    "type": "uint8"
                },
                {
                    "indexed": false,
                    "internalType": "uint8",
                    "name": "feeProtocol0New",
                    "type": "uint8"
                },
                {
                    "indexed": false,
                    "internalType": "uint8",
                    "name": "feeProtocol1New",
                    "type": "uint8"
                }
            ],
            "name": "SetFeeProtocol",
            "type": "event"
        },
        {
            "anonymous": false,
            "inputs": [
                {
                    "indexed": true,
                    "internalType": "address",
                    "name": "sender",
                    "type": "address"
                },
                {
                    "indexed": true,
                    "internalType": "address",
                    "name": "recipient",
                    "type": "address"
                },
                {
                    "indexed": false,
                    "internalType": "int256",
                    "name": "amount0",
                    "type": "int256"
                },
                {
                    "indexed": false,
                    "internalType": "int256",
                    "name": "amount1",
                    "type": "int256"
                },
                {
                    "indexed": false,
                    "internalType": "uint160",
                    "name": "sqrtPriceX96",
                    "type": "uint160"
                },
                {
                    "indexed": false,
                    "internalType": "uint128",
                    "name": "liquidity",
                    "type": "uint128"
                },
                {
                    "indexed": false,
                    "internalType": "int24",
                    "name": "tick",
                    "type": "int24"
                }
            ],
            "name": "Swap",
            "type": "event"
        },
        {
            "inputs": [
                {
                    "internalType": "int24",
                    "name": "_unitLower",
                    "type": "int24"
                },
                {
                    "internalType": "int24",
                    "name": "_unitUpper",
                    "type": "int24"
                },
                {
                    "internalType": "uint128",
                    "name": "amount",
                    "type": "uint128"
                }
            ],
            "name": "burn",
            "outputs": [
                {
                    "internalType": "uint256",
                    "name": "amount0",
                    "type": "uint256"
                },
                {
                    "internalType": "uint256",
                    "name": "amount1",
                    "type": "uint256"
                }
            ],
            "stateMutability": "nonpayable",
            "type": "function"
        },
        {
            "inputs": [],
            "name": "coin",
            "outputs": [
                {
                    "internalType": "address",
                    "name": "",
                    "type": "address"
                }
            ],
            "stateMutability": "view",
            "type": "function"
        },
        {
            "inputs": [
                {
                    "internalType": "address",
                    "name": "recipient",
                    "type": "address"
                },
                {
                    "internalType": "int24",
                    "name": "_unitLower",
                    "type": "int24"
                },
                {
                    "internalType": "int24",
                    "name": "_unitUpper",
                    "type": "int24"
                },
                {
                    "internalType": "uint128",
                    "name": "amount0Requested",
                    "type": "uint128"
                },
                {
                    "internalType": "uint128",
                    "name": "amount1Requested",
                    "type": "uint128"
                }
            ],
            "name": "collect",
            "outputs": [
                {
                    "internalType": "uint128",
                    "name": "amount0",
                    "type": "uint128"
                },
                {
                    "internalType": "uint128",
                    "name": "amount1",
                    "type": "uint128"
                }
            ],
            "stateMutability": "nonpayable",
            "type": "function"
        },
        {
            "inputs": [],
            "name": "collectProtocol",
            "outputs": [
                {
                    "internalType": "uint128",
                    "name": "coinamount",
                    "type": "uint128"
                },
                {
                    "internalType": "uint128",
                    "name": "thingamount",
                    "type": "uint128"
                }
            ],
            "stateMutability": "nonpayable",
            "type": "function"
        },
        {
            "inputs": [
                {
                    "internalType": "address",
                    "name": "recipient",
                    "type": "address"
                },
                {
                    "internalType": "uint256",
                    "name": "amount0",
                    "type": "uint256"
                },
                {
                    "internalType": "uint256",
                    "name": "amount1",
                    "type": "uint256"
                },
                {
                    "internalType": "bytes",
                    "name": "data",
                    "type": "bytes"
                }
            ],
            "name": "flash",
            "outputs": [],
            "stateMutability": "nonpayable",
            "type": "function"
        },
        {
            "inputs": [],
            "name": "gatelock",
            "outputs": [
                {
                    "internalType": "bool",
                    "name": "",
                    "type": "bool"
                }
            ],
            "stateMutability": "view",
            "type": "function"
        },
        {
            "inputs": [],
            "name": "gater",
            "outputs": [
                {
                    "internalType": "address",
                    "name": "",
                    "type": "address"
                }
            ],
            "stateMutability": "view",
            "type": "function"
        },
        {
            "inputs": [
                {
                    "internalType": "uint16",
                    "name": "lookerCardinalityNext",
                    "type": "uint16"
                }
            ],
            "name": "increaseLookerCardinalityNext",
            "outputs": [],
            "stateMutability": "nonpayable",
            "type": "function"
        },
        {
            "inputs": [
                {
                    "internalType": "uint160",
                    "name": "sqrtPriceX96",
                    "type": "uint160"
                }
            ],
            "name": "initialize",
            "outputs": [],
            "stateMutability": "nonpayable",
            "type": "function"
        },
        {
            "inputs": [],
            "name": "investion",
            "outputs": [
                {
                    "internalType": "uint128",
                    "name": "",
                    "type": "uint128"
                }
            ],
            "stateMutability": "view",
            "type": "function"
        },
        {
            "inputs": [],
            "name": "lockShopbyGetor",
            "outputs": [],
            "stateMutability": "nonpayable",
            "type": "function"
        },
        {
            "inputs": [],
            "name": "lockShopbyMarketor",
            "outputs": [],
            "stateMutability": "nonpayable",
            "type": "function"
        },
        {
            "inputs": [],
            "name": "market",
            "outputs": [
                {
                    "internalType": "address",
                    "name": "",
                    "type": "address"
                }
            ],
            "stateMutability": "view",
            "type": "function"
        },
        {
            "inputs": [],
            "name": "marketlock",
            "outputs": [
                {
                    "internalType": "bool",
                    "name": "",
                    "type": "bool"
                }
            ],
            "stateMutability": "view",
            "type": "function"
        },
        {
            "inputs": [],
            "name": "maxInvestionPerUnit",
            "outputs": [
                {
                    "internalType": "uint128",
                    "name": "",
                    "type": "uint128"
                }
            ],
            "stateMutability": "view",
            "type": "function"
        },
        {
            "inputs": [
                {
                    "internalType": "address",
                    "name": "recipient",
                    "type": "address"
                },
                {
                    "internalType": "int24",
                    "name": "_unitLower",
                    "type": "int24"
                },
                {
                    "internalType": "int24",
                    "name": "_unitUpper",
                    "type": "int24"
                },
                {
                    "internalType": "uint128",
                    "name": "amount",
                    "type": "uint128"
                },
                {
                    "internalType": "bytes",
                    "name": "data",
                    "type": "bytes"
                }
            ],
            "name": "mint",
            "outputs": [
                {
                    "internalType": "uint256",
                    "name": "coinamount",
                    "type": "uint256"
                },
                {
                    "internalType": "uint256",
                    "name": "thingamount",
                    "type": "uint256"
                }
            ],
            "stateMutability": "nonpayable",
            "type": "function"
        },
        {
            "inputs": [
                {
                    "internalType": "uint32[]",
                    "name": "secondsAgos",
                    "type": "uint32[]"
                }
            ],
            "name": "observe",
            "outputs": [
                {
                    "internalType": "int56[]",
                    "name": "unitCumulatives",
                    "type": "int56[]"
                },
                {
                    "internalType": "uint160[]",
                    "name": "secondsPerinvestionCumulativeX128s",
                    "type": "uint160[]"
                }
            ],
            "stateMutability": "view",
            "type": "function"
        },
        {
            "inputs": [
                {
                    "internalType": "uint256",
                    "name": "",
                    "type": "uint256"
                }
            ],
            "name": "priceLogers",
            "outputs": [
                {
                    "internalType": "uint32",
                    "name": "blockTimestamp",
                    "type": "uint32"
                },
                {
                    "internalType": "int56",
                    "name": "unitCumulative",
                    "type": "int56"
                },
                {
                    "internalType": "uint160",
                    "name": "secondsPerInvestionCumulativeX128",
                    "type": "uint160"
                },
                {
                    "internalType": "bool",
                    "name": "initialized",
                    "type": "bool"
                }
            ],
            "stateMutability": "view",
            "type": "function"
        },
        {
            "inputs": [],
            "name": "profit",
            "outputs": [
                {
                    "internalType": "uint24",
                    "name": "",
                    "type": "uint24"
                }
            ],
            "stateMutability": "view",
            "type": "function"
        },
        {
            "inputs": [],
            "name": "profitGrowthGlobalCoinX128",
            "outputs": [
                {
                    "internalType": "uint256",
                    "name": "",
                    "type": "uint256"
                }
            ],
            "stateMutability": "view",
            "type": "function"
        },
        {
            "inputs": [],
            "name": "profitGrowthGlobalThingX128",
            "outputs": [
                {
                    "internalType": "uint256",
                    "name": "",
                    "type": "uint256"
                }
            ],
            "stateMutability": "view",
            "type": "function"
        },
        {
            "inputs": [],
            "name": "profitshares",
            "outputs": [
                {
                    "internalType": "uint8",
                    "name": "marketshare",
                    "type": "uint8"
                },
                {
                    "internalType": "uint8",
                    "name": "gatershare",
                    "type": "uint8"
                },
                {
                    "internalType": "uint8",
                    "name": "commandershare",
                    "type": "uint8"
                },
                {
                    "internalType": "uint8",
                    "name": "usershare",
                    "type": "uint8"
                }
            ],
            "stateMutability": "view",
            "type": "function"
        },
        {
            "inputs": [
                {
                    "internalType": "bytes32",
                    "name": "",
                    "type": "bytes32"
                }
            ],
            "name": "proofs",
            "outputs": [
                {
                    "internalType": "uint128",
                    "name": "liquidity",
                    "type": "uint128"
                },
                {
                    "internalType": "uint256",
                    "name": "feeGrowthInside0LastX128",
                    "type": "uint256"
                },
                {
                    "internalType": "uint256",
                    "name": "feeGrowthInside1LastX128",
                    "type": "uint256"
                },
                {
                    "internalType": "uint128",
                    "name": "tokensOwed0",
                    "type": "uint128"
                },
                {
                    "internalType": "uint128",
                    "name": "tokensOwed1",
                    "type": "uint128"
                }
            ],
            "stateMutability": "view",
            "type": "function"
        },
        {
            "inputs": [],
            "name": "protocolProfits",
            "outputs": [
                {
                    "internalType": "uint128",
                    "name": "coin",
                    "type": "uint128"
                },
                {
                    "internalType": "uint128",
                    "name": "thing",
                    "type": "uint128"
                }
            ],
            "stateMutability": "view",
            "type": "function"
        },
        {
            "inputs": [],
            "name": "scope",
            "outputs": [
                {
                    "internalType": "uint8",
                    "name": "",
                    "type": "uint8"
                }
            ],
            "stateMutability": "view",
            "type": "function"
        },
        {
            "inputs": [
                {
                    "internalType": "uint8",
                    "name": "_marketshare",
                    "type": "uint8"
                },
                {
                    "internalType": "uint8",
                    "name": "_gatershare",
                    "type": "uint8"
                },
                {
                    "internalType": "uint8",
                    "name": "_commandershare",
                    "type": "uint8"
                },
                {
                    "internalType": "uint8",
                    "name": "_usershare",
                    "type": "uint8"
                }
            ],
            "name": "setFeeProfitSharesbyMarketor",
            "outputs": [],
            "stateMutability": "nonpayable",
            "type": "function"
        },
        {
            "inputs": [
                {
                    "internalType": "uint8",
                    "name": "profitProtocol0",
                    "type": "uint8"
                },
                {
                    "internalType": "uint8",
                    "name": "profitProtocol1",
                    "type": "uint8"
                }
            ],
            "name": "setFeeProtocolbyMarketor",
            "outputs": [],
            "stateMutability": "nonpayable",
            "type": "function"
        },
        {
            "inputs": [
                {
                    "internalType": "address",
                    "name": "",
                    "type": "address"
                }
            ],
            "name": "shopfee",
            "outputs": [
                {
                    "internalType": "uint128",
                    "name": "coin",
                    "type": "uint128"
                },
                {
                    "internalType": "uint128",
                    "name": "thing",
                    "type": "uint128"
                }
            ],
            "stateMutability": "view",
            "type": "function"
        },
        {
            "inputs": [
                {
                    "internalType": "int24",
                    "name": "_unitLower",
                    "type": "int24"
                },
                {
                    "internalType": "int24",
                    "name": "_unitUpper",
                    "type": "int24"
                }
            ],
            "name": "snapshotCumulativesInside",
            "outputs": [
                {
                    "internalType": "int56",
                    "name": "unitCumulativeInside",
                    "type": "int56"
                },
                {
                    "internalType": "uint160",
                    "name": "secondsPerinvestionInsideX128",
                    "type": "uint160"
                },
                {
                    "internalType": "uint32",
                    "name": "secondsInside",
                    "type": "uint32"
                }
            ],
            "stateMutability": "view",
            "type": "function"
        },
        {
            "inputs": [],
            "name": "state0",
            "outputs": [
                {
                    "internalType": "uint160",
                    "name": "sqrtPriceX96",
                    "type": "uint160"
                },
                {
                    "internalType": "int24",
                    "name": "unit",
                    "type": "int24"
                },
                {
                    "internalType": "uint16",
                    "name": "lookerIndex",
                    "type": "uint16"
                },
                {
                    "internalType": "uint16",
                    "name": "lookerCardinality",
                    "type": "uint16"
                },
                {
                    "internalType": "uint16",
                    "name": "lookerCardinalityNext",
                    "type": "uint16"
                },
                {
                    "internalType": "uint8",
                    "name": "profitProtocol",
                    "type": "uint8"
                },
                {
                    "internalType": "bool",
                    "name": "unlocked",
                    "type": "bool"
                }
            ],
            "stateMutability": "view",
            "type": "function"
        },
        {
            "inputs": [
                {
                    "internalType": "address",
                    "name": "recipient",
                    "type": "address"
                },
                {
                    "internalType": "bool",
                    "name": "zeroForOne",
                    "type": "bool"
                },
                {
                    "internalType": "int256",
                    "name": "amountSpecified",
                    "type": "int256"
                },
                {
                    "internalType": "uint160",
                    "name": "sqrtPriceLimitX96",
                    "type": "uint160"
                },
                {
                    "internalType": "bytes",
                    "name": "data",
                    "type": "bytes"
                }
            ],
            "name": "swap",
            "outputs": [
                {
                    "internalType": "int256",
                    "name": "amount0",
                    "type": "int256"
                },
                {
                    "internalType": "int256",
                    "name": "amount1",
                    "type": "int256"
                }
            ],
            "stateMutability": "nonpayable",
            "type": "function"
        },
        {
            "inputs": [],
            "name": "thing",
            "outputs": [
                {
                    "internalType": "address",
                    "name": "",
                    "type": "address"
                }
            ],
            "stateMutability": "view",
            "type": "function"
        },
        {
            "inputs": [
                {
                    "internalType": "int16",
                    "name": "",
                    "type": "int16"
                }
            ],
            "name": "unitBitmap",
            "outputs": [
                {
                    "internalType": "uint256",
                    "name": "",
                    "type": "uint256"
                }
            ],
            "stateMutability": "view",
            "type": "function"
        },
        {
            "inputs": [],
            "name": "unitSpacing",
            "outputs": [
                {
                    "internalType": "int24",
                    "name": "",
                    "type": "int24"
                }
            ],
            "stateMutability": "view",
            "type": "function"
        },
        {
            "inputs": [
                {
                    "internalType": "int24",
                    "name": "",
                    "type": "int24"
                }
            ],
            "name": "units",
            "outputs": [
                {
                    "internalType": "uint128",
                    "name": "liquidityGross",
                    "type": "uint128"
                },
                {
                    "internalType": "int128",
                    "name": "liquidityNet",
                    "type": "int128"
                },
                {
                    "internalType": "uint256",
                    "name": "feeGrowthOutside0X128",
                    "type": "uint256"
                },
                {
                    "internalType": "uint256",
                    "name": "feeGrowthOutside1X128",
                    "type": "uint256"
                },
                {
                    "internalType": "int56",
                    "name": "unitCumulativeOutside",
                    "type": "int56"
                },
                {
                    "internalType": "uint160",
                    "name": "secondsPerLiquidityOutsideX128",
                    "type": "uint160"
                },
                {
                    "internalType": "uint32",
                    "name": "secondsOutside",
                    "type": "uint32"
                },
                {
                    "internalType": "bool",
                    "name": "initialized",
                    "type": "bool"
                }
            ],
            "stateMutability": "view",
            "type": "function"
        },
        {
            "inputs": [],
            "name": "unlockShopbyGetor",
            "outputs": [],
            "stateMutability": "nonpayable",
            "type": "function"
        },
        {
            "inputs": [],
            "name": "unlockShopbyMarketor",
            "outputs": [],
            "stateMutability": "nonpayable",
            "type": "function"
        }
    ],
    "bytecode": "6101606040523480156200001257600080fd5b5030608052604080516317e4922960e11b815290513391632fc92452916004808301926101209291908290030181865afa15801562000055573d6000803e3d6000fd5b505050506040513d601f19601f820116820180604052508101906200007b919062000206565b805160008054602080850151604086015160609096015160ff95861661ffff199094169390931761010091861682021763ffff00001916620100009686169690960263ff0000001916959095176301000000949092169390930217905560029290920b61012081905262ffffff9390931690526001600160a01b0392831660e05292821660c052921660a0526001805461ffff60a81b191690556200012a91906200013d811b620036d617901c565b6001600160801b031661014052620004ec565b600080826200015181620d89e7196200034d565b6200015d91906200038d565b90506000838062000172620d89e71962000426565b6200017e91906200034d565b6200018a91906200038d565b90506000846200019b84846200044b565b620001a791906200034d565b620001b490600162000499565b9050620001ce62ffffff82166001600160801b03620004c3565b95945050505050565b80516001600160a01b0381168114620001ef57600080fd5b919050565b805160ff81168114620001ef57600080fd5b6000806000806000808688036101208112156200022257600080fd5b6200022d88620001d7565b96506200023d60208901620001d7565b95506200024d60408901620001d7565b9450606088015162ffffff811681146200026657600080fd5b8094505060808801518060020b81146200027f57600080fd5b92506080609f19820112156200029457600080fd5b50604051608081016001600160401b0381118282101715620002c657634e487b7160e01b600052604160045260246000fd5b604052620002d760a08901620001f4565b8152620002e760c08901620001f4565b6020820152620002fa60e08901620001f4565b60408201526200030e6101008901620001f4565b6060820152809150509295509295509295565b634e487b7160e01b600052601260045260246000fd5b634e487b7160e01b600052601160045260246000fd5b60008160020b8360020b8062000367576200036762000321565b627fffff1982146000198214161562000384576200038462000337565b90059392505050565b60008160020b8360020b627fffff600082136000841383830485118282161615620003bc57620003bc62000337565b627fffff196000851282811687830587121615620003de57620003de62000337565b60008712925085820587128484161615620003fd57620003fd62000337565b8585058712818416161562000416576200041662000337565b5050509290910295945050505050565b60008160020b627fffff19810362000442576200044262000337565b60000392915050565b60008160020b8360020b6000811281627fffff190183128115161562000475576200047562000337565b81627fffff0183138116156200048f576200048f62000337565b5090039392505050565b600062ffffff808316818516808303821115620004ba57620004ba62000337565b01949350505050565b60006001600160801b0383811680620004e057620004e062000321565b92169190910492915050565b60805160a05160c05160e05161010051610120516101405161731662000635600039600081816106da015281816159b401526159eb01526000818161070901528181610d0501528181615a1f0152615a5101526000818161053901528181610e030152818161214d015261218401526000818161085c015281816118ba0152818161220701528181612b8201528181612ead0152614c1c01526000818161024d0152818161194e015281816121d601528181612af501528181612de90152614b030152600081816105cd015281816109b001528181610a40015281816112fc01528181611417015281816116040152818161172d01528181611abc01528181611c4901528181611f1201528181612042015281816120d8015281816123cb015281816124dc015281816127010152818161282001526134230152600061376901526173166000f3fe608060405234801561001057600080fd5b50600436106102275760003560e01c80636e62d0a81161013057806395f01f3f116100b8578063b15925901161007c578063b15925901461081d578063b23ae19b14610831578063ba66e6dc14610844578063c55e90fe14610857578063f637731d1461087e57600080fd5b806395f01f3f14610762578063a30070e61461076a578063a34123a714610773578063a38807f214610786578063afb62fef146107c757600080fd5b80638b2ea554116100ff5780638b2ea554146106305780638d79ddcb146106d55780638f919198146106fc57806392c4545c1461070457806392cc393c1461073e57600080fd5b80636e62d0a8146105a257806380f55605146105c8578063883bdbfd146105ef5780638860d1cd1461061057600080fd5b80633659bb4e116101b3578063490e6cbc11610182578063490e6cbc1461050e5780634f1eb3d81461052157806366d16cc3146105345780636a0b2b231461056f5780636aca362d1461059a57600080fd5b80633659bb4e146104545780633c8a7d8d146104725780633d02a29214610485578063444d95b01461048d57600080fd5b80631a86b0e9116101fa5780631a86b0e9146102c25780631f0f4c29146102d7578063208537ff1461032b5780632ad1baab14610333578063317dfb061461038057600080fd5b806301b293511461022c57806311df999514610248578063128acb0814610287578063166d6021146102af575b600080fd5b61023560045481565b6040519081526020015b60405180910390f35b61026f7f000000000000000000000000000000000000000000000000000000000000000081565b6040516001600160a01b03909116815260200161023f565b61029a6102953660046165e8565b610891565b6040805192835260208301919091520161023f565b60015461026f906001600160a01b031681565b6102d56102d036600461667e565b611a6c565b005b61030b6102e53660046166b1565b6002602052600090815260409020546001600160801b0380821691600160801b90041682565b604080516001600160801b0393841681529290911660208301520161023f565b6102d5611c47565b6103466103413660046166ce565b611cec565b6040805163ffffffff909516855260069390930b60208501526001600160a01b03909116918301919091521515606082015260800161023f565b6103f861038e3660046166f9565b60086020526000908152604090208054600182015460028301546003909301546001600160801b03831693600160801b909304600f0b9290600681900b90600160381b81046001600160a01b031690600160d81b810463ffffffff1690600160f81b900460ff1688565b604080516001600160801b039099168952600f9790970b602089015295870194909452606086019290925260060b60808501526001600160a01b031660a084015263ffffffff1660c0830152151560e08201526101000161023f565b60065461030b906001600160801b0380821691600160801b90041682565b61029a61048036600461672b565b611d31565b6102d5611f10565b6104d861049b3660046166ce565b600a6020526000908152604090208054600182015460028301546003909301546001600160801b0392831693919281811691600160801b90041685565b604080516001600160801b039687168152602081019590955284019290925283166060830152909116608082015260a00161023f565b6102d561051c366004616779565b611faf565b61030b61052f3660046167e3565b6129e3565b61055b7f000000000000000000000000000000000000000000000000000000000000000081565b60405162ffffff909116815260200161023f565b600754610582906001600160801b031681565b6040516001600160801b03909116815260200161023f565b6102d5612c31565b6001546105b690600160a01b900460ff1681565b60405160ff909116815260200161023f565b61026f7f000000000000000000000000000000000000000000000000000000000000000081565b6106026105fd36600461684a565b612c57565b60405161023f9291906168bf565b61023561061e366004616946565b60096020526000908152604090205481565b600354610684906001600160a01b03811690600160a01b810460020b9061ffff600160b81b8204811691600160c81b8104821691600160d81b8204169060ff600160e81b8204811691600160f01b90041687565b604080516001600160a01b03909816885260029690960b602088015261ffff94851695870195909552918316606086015291909116608084015260ff1660a0830152151560c082015260e00161023f565b6105827f000000000000000000000000000000000000000000000000000000000000000081565b6102d5612ce1565b61072b7f000000000000000000000000000000000000000000000000000000000000000081565b60405160029190910b815260200161023f565b60015461075290600160b01b900460ff1681565b604051901515815260200161023f565b61030b612d0d565b61023560055481565b61029a610781366004616969565b612f3a565b6107996107943660046169ac565b6130bd565b6040805160069490940b84526001600160a01b03909216602084015263ffffffff169082015260600161023f565b6000546107f09060ff808216916101008104821691620100008204811691630100000090041684565b6040805160ff9586168152938516602085015291841691830191909152909116606082015260800161023f565b60015461075290600160a81b900460ff1681565b6102d561083f3660046169d6565b6132fa565b6102d56108523660046169fa565b6133d3565b61026f7f000000000000000000000000000000000000000000000000000000000000000081565b6102d561088c3660046166b1565b613597565b60008061089c61375e565b868860008890036108d95760405162461bcd60e51b8152602060048201526002602482015261415360f01b60448201526064015b60405180910390fd5b600154600160a81b900460ff16156109215760405162461bcd60e51b815260206004820152600b60248201526a6d61726b6574206c6f636b60a81b60448201526064016108d0565b6040805160e0810182526003546001600160a01b038082168352600160a01b820460020b602084015261ffff600160b81b8304811684860152600160c81b830481166060850152600160d81b830416608084015260ff600160e81b8304811660a0850152600160f01b909204909116151560c0830152915163e71957b960e01b815233600482015290916000917f00000000000000000000000000000000000000000000000000000000000000009091169063e71957b990602401602060405180830381865afa1580156109f9573d6000803e3d6000fd5b505050506040513d601f19601f82011682018060405250810190610a1d9190616a4e565b60405163e71957b960e01b81523360048201529091506000906001600160a01b037f0000000000000000000000000000000000000000000000000000000000000000169063e71957b990602401602060405180830381865afa158015610a87573d6000803e3d6000fd5b505050506040513d601f19601f82011682018060405250810190610aab9190616a4e565b90508260c00151610ace5760405162461bcd60e51b81526004016108d090616a6b565b8b610b195782600001516001600160a01b03168a6001600160a01b0316118015610b14575073fffd8963efd1fc6a506488495d951d5263988d266001600160a01b038b16105b610b4b565b82600001516001600160a01b03168a6001600160a01b0316108015610b4b57506401000276a36001600160a01b038b16115b610b7d5760405162461bcd60e51b815260206004820152600360248201526214d41360ea1b60448201526064016108d0565b6003805460ff60f01b191690556040805160c08101909152600090808e610baf5760048660a0015160ff16901c610bc0565b60108660a00151610bc09190616a9e565b60ff1681526007546001600160801b031660208201526040014263ffffffff168152602001600060060b815260200160006001600160a01b031681526020016000151581525090506000808d13905060006040518060e001604052808f81526020016000815260200187600001516001600160a01b03168152602001876020015160020b815260200189610c5657600554610c5a565b6004545b815260200160006001600160801b0316815260200184602001516001600160801b031681525090505b805115801590610ca957508c6001600160a01b031681604001516001600160a01b031614155b156110fc576040805160e081018252600080825260208201819052918101829052606081018290526080810182905260a0810182905260c081019190915260408201516001600160a01b031681526060820151610d2a906009907f00000000000000000000000000000000000000000000000000000000000000008c613795565b1515604083015260020b60208201819052620d89e7191315610d5557620d89e7196020820152610d89565b610d62620d89e719616ad6565b60020b816020015160020b1315610d8957610d80620d89e719616ad6565b60020b60208201525b610d968160200151613952565b6001600160a01b031660608201526040820151610e27908a610dd0578f6001600160a01b031683606001516001600160a01b031611610dea565b8f6001600160a01b031683606001516001600160a01b0316105b610df8578260600151610dfa565b8f5b60c085015185517f0000000000000000000000000000000000000000000000000000000000000000613d71565b60c085015260a084015260808301526001600160a01b031660408301528215610e9f57610e668160c001518260800151610e619190616af8565b613f8c565b82518390610e75908390616b10565b90525060a0810151610e9590610e8a90613f8c565b602084015190613fa2565b6020830152610eeb565b610eac8160a00151613f8c565b82518390610ebb908390616b4f565b90525060c08101516080820151610ee591610eda91610e619190616af8565b602084015190613fc8565b60208301525b835160ff1615610f47576000846000015160ff168260c00151610f0e9190616b90565b9050808260c001818151610f229190616ba4565b90525060a083018051829190610f39908390616bbb565b6001600160801b0316905250505b60c08201516001600160801b031615610f8f57610f7a8160c00151600160801b8460c001516001600160801b0316613fe8565b82608001818151610f8b9190616af8565b9052505b80606001516001600160a01b031682604001516001600160a01b0316036110bf57806040015115611092578360a0015161101457610ff68460400151600089602001518a6040015188602001518c60600151600b61416e909695949392919063ffffffff16565b6001600160a01b0316608086015260060b6060850152600160a08501525b600061106082602001518b61102b57600454611031565b84608001515b8c611040578560800151611044565b6005545b608089015160608a015160408b01516008959493929190614353565b905089156110745761107181616be6565b90505b6110828360c0015182614466565b6001600160801b031660c0840152505b8f6110a15780602001516110b2565b600181602001516110b29190616c0c565b60020b60608301526110f6565b80600001516001600160a01b031682604001516001600160a01b0316146110f6576110ed8260400151614526565b60020b60608301525b50610c83565b856020015160020b816060015160020b146111c65760008061114a886040015186604001518a6020015188602001518c606001518d60800151600b614860909695949392919063ffffffff16565b604085015160608601516003805463ffffffff60b81b1916600160c81b61ffff9586160261ffff60b81b191617600160b81b9590941694909402929092176001600160b81b031916600160a01b62ffffff909316929092026001600160a01b031916919091176001600160a01b03909116179055506111eb9050565b6040810151600380546001600160a01b0319166001600160a01b039092169190911790555b8060c001516001600160801b031683602001516001600160801b0316146112315760c0810151600780546001600160801b0319166001600160801b039092169190911790555b8e1561154057608081015160045560a08101516001600160801b03161561153b5760005460a082015161010090910460ff169061127090606490616c54565b61127a9190616c7a565b6001600160a01b038516600090815260026020526040812080549091906112ab9084906001600160801b0316616bbb565b82546001600160801b039182166101009390930a92830291909202199091161790555060005460a082015160ff909116906112e890606490616c54565b6112f29190616c7a565b6001600160a01b037f000000000000000000000000000000000000000000000000000000000000000016600090815260026020526040812080549091906113439084906001600160801b0316616bbb565b92506101000a8154816001600160801b0302191690836001600160801b0316021790555060006001600160a01b0316856001600160a01b0316146114875760005460a082015161139c9162010000900460ff1690616c7a565b6001600160a01b038616600090815260026020526040812080549091906113cd9084906001600160801b0316616bbb565b82546001600160801b039182166101009390930a92830291909202199091161790555060005460a082015161140d9160ff63010000009091041690616c7a565b6001600160a01b037f0000000000000000000000000000000000000000000000000000000000000000166000908152600260205260408120805490919061145e9084906001600160801b0316616bbb565b92506101000a8154816001600160801b0302191690836001600160801b0316021790555061186a565b60005460a08201516114a29162010000900460ff1690616c7a565b6001600160a01b038516600090815260026020526040812080549091906114d39084906001600160801b0316616bbb565b82546001600160801b039182166101009390930a92830291909202199091161790555060005460a08201516115139160ff63010000009091041690616c7a565b336000908152600260205260408120805490919061145e9084906001600160801b0316616bbb565b61186a565b608081015160055560a08101516001600160801b03161561186a5760005460a082015161010090910460ff169061157990606490616c54565b6115839190616c7a565b6001600160a01b038516600090815260026020526040902080546010906115bb908490600160801b90046001600160801b0316616bbb565b82546001600160801b039182166101009390930a92830291909202199091161790555060005460a082015160ff909116906115f890606490616c54565b6116029190616c7a565b7f00000000000000000000000000000000000000000000000000000000000000006001600160a01b03166000908152600260205260409020805460109061165a908490600160801b90046001600160801b0316616bbb565b92506101000a8154816001600160801b0302191690836001600160801b0316021790555060006001600160a01b0316856001600160a01b0316146117835760005460a08201516116b39162010000900460ff1690616c7a565b6001600160a01b038616600090815260026020526040902080546010906116eb908490600160801b90046001600160801b0316616bbb565b82546001600160801b039182166101009390930a92830291909202199091161790555060005460a082015161172b9160ff63010000009091041690616c7a565b7f00000000000000000000000000000000000000000000000000000000000000006001600160a01b03166000908152600260205260409020805460109061145e908490600160801b90046001600160801b0316616bbb565b60005460a082015161179e9162010000900460ff1690616c7a565b6001600160a01b038516600090815260026020526040902080546010906117d6908490600160801b90046001600160801b0316616bbb565b82546001600160801b039182166101009390930a92830291909202199091161790555060005460a08201516118169160ff63010000009091041690616c7a565b3360009081526002602052604090208054601090611845908490600160801b90046001600160801b0316616bbb565b92506101000a8154816001600160801b0302191690836001600160801b031602179055505b8115158f15151461188f57806020015181600001518f61188a9190616b10565b6118a1565b805161189b908f616b10565b81602001515b909a5098508e156119405760008912156118e8576118e87f0000000000000000000000000000000000000000000000000000000000000000886118e38c616ca9565b6149e9565b60006118f2614ae9565b90506118fc614ae9565b611906828d614be7565b111561193a5760405162461bcd60e51b815260206004820152600360248201526249494160e81b60448201526064016108d0565b506119cb565b60008a1215611977576119777f0000000000000000000000000000000000000000000000000000000000000000886118e38d616ca9565b6000611981614c02565b905061198b614c02565b611995828c614be7565b11156119c95760405162461bcd60e51b815260206004820152600360248201526249494160e81b60448201526064016108d0565b505b60408082015160c083015160608085015184518f8152602081018f90526001600160a01b03948516958101959095526001600160801b039092169084015260020b608083015288169033907fc42079f94a6350d7e6235f29174924f928cc2ac818eb64fed8004e115fbcca679060a00160405180910390a350506003805460ff60f01b1916600160f01b17905550959c949b50939950505050505050505050565b600354600160f01b900460ff16611a955760405162461bcd60e51b81526004016108d090616a6b565b6003805460ff60f01b1916905560408051630a43f92960e11b815290516001600160a01b037f00000000000000000000000000000000000000000000000000000000000000001691631487f2529160048083019260209291908290030181865afa158015611b07573d6000803e3d6000fd5b505050506040513d601f19601f82011682018060405250810190611b2b9190616cc5565b1515600114611b3957600080fd5b60ff82161580611b5c575060028260ff1610158015611b5c5750600a8260ff1611155b8015611b86575060ff81161580611b86575060028160ff1610158015611b865750600a8160ff1611155b611b8f57600080fd5b600354600160e81b900460ff16611bae600483901b610ff01684616ce2565b6003805460ff92909216600160e81b0260ff60e81b199092169190911790557f973d8d92bb299f4af6ce49b52a8adb85ae46b9f214c4c4fc06ac77401237b133611bf9601083616a9e565b6040805160ff9283168152600f600486901c1660208201528683169181019190915290841660608201526080015b60405180910390a150506003805460ff60f01b1916600160f01b17905550565b7f00000000000000000000000000000000000000000000000000000000000000006001600160a01b0316631487f2526040518163ffffffff1660e01b8152600401602060405180830381865afa158015611ca5573d6000803e3d6000fd5b505050506040513d601f19601f82011682018060405250810190611cc99190616cc5565b1515600114611cd757600080fd5b6001805460ff60a81b1916600160a81b179055565b600b8161ffff8110611cfd57600080fd5b015463ffffffff81169150600160201b810460060b90600160581b81046001600160a01b031690600160f81b900460ff1684565b6003546000908190600160f01b900460ff16611d5f5760405162461bcd60e51b81526004016108d090616a6b565b6003805460ff60f01b191690556001600160801b038516611d7f57600080fd5b600080611dbd60405180608001604052808c6001600160a01b031681526020018b60020b81526020018a60020b815260200189600f0b815250614c4e565b92509250508193508092506000806000861115611ddf57611ddc614ae9565b91505b8415611df057611ded614c02565b90505b8515611e3b57611dfe614ae9565b611e088388614be7565b1115611e3b5760405162461bcd60e51b815260206004820152600260248201526104d360f41b60448201526064016108d0565b8415611e8657611e49614c02565b611e538287614be7565b1115611e865760405162461bcd60e51b81526020600482015260026024820152614d3160f01b60448201526064016108d0565b604080513381526001600160801b038b1660208201529081018790526060810186905260028b810b91908d900b906001600160a01b038f16907f7a53080ba414158be7ec69b987b5fb7d07dee101fe85488f0853ae16239d0bde9060800160405180910390a450506003805460ff60f01b1916600160f01b17905550919890975095505050505050565b7f00000000000000000000000000000000000000000000000000000000000000006001600160a01b0316631487f2526040518163ffffffff1660e01b8152600401602060405180830381865afa158015611f6e573d6000803e3d6000fd5b505050506040513d601f19601f82011682018060405250810190611f929190616cc5565b1515600114611fa057600080fd5b6001805460ff60a81b19169055565b600354600160f01b900460ff16611fd85760405162461bcd60e51b81526004016108d090616a6b565b6003805460ff60f01b19169055611fed61375e565b6007546001600160801b03168061202a5760405162461bcd60e51b81526020600482015260016024820152601360fa1b60448201526064016108d0565b60405163e71957b960e01b81523360048201526000907f00000000000000000000000000000000000000000000000000000000000000006001600160a01b03169063e71957b990602401602060405180830381865afa158015612091573d6000803e3d6000fd5b505050506040513d601f19601f820116820180604052508101906120b59190616a4e565b60405163e71957b960e01b81523360048201529091506000906001600160a01b037f0000000000000000000000000000000000000000000000000000000000000000169063e71957b990602401602060405180830381865afa15801561211f573d6000803e3d6000fd5b505050506040513d601f19601f820116820180604052508101906121439190616a4e565b9050600061217a887f000000000000000000000000000000000000000000000000000000000000000062ffffff16620f4240614e83565b905060006121b1887f000000000000000000000000000000000000000000000000000000000000000062ffffff16620f4240614e83565b905060006121bd614ae9565b905060006121c9614c02565b90508a156121fc576121fc7f00000000000000000000000000000000000000000000000000000000000000008d8d6149e9565b891561222d5761222d7f00000000000000000000000000000000000000000000000000000000000000008d8c6149e9565b6000612237614ae9565b90506000612243614c02565b9050816122508588614be7565b11156122835760405162461bcd60e51b8152602060048201526002602482015261046360f41b60448201526064016108d0565b8061228e8487614be7565b11156122c15760405162461bcd60e51b8152602060048201526002602482015261463160f01b60448201526064016108d0565b60006122cd8584616ba4565b905060006122db8584616ba4565b90508115612625576003546000906122ff90601090600160e81b900460ff16616a9e565b9050600060ff82161561231e5761231960ff831685616b90565b612321565b60005b90506001600160801b0381161561262257600054610100900460ff16612348606483616b90565b6123529190616d07565b6001600160a01b038c16600090815260026020526040812080549091906123839084906001600160801b0316616bbb565b82546001600160801b039182166101009390930a92830291909202199091161790555060005460ff166123b7606483616b90565b6123c19190616d07565b6001600160a01b037f000000000000000000000000000000000000000000000000000000000000000016600090815260026020526040812080549091906124129084906001600160801b0316616bbb565b92506101000a8154816001600160801b0302191690836001600160801b0316021790555060006001600160a01b03168c6001600160a01b03161461254c576000546124669062010000900460ff1682616d07565b6001600160a01b038d16600090815260026020526040812080549091906124979084906001600160801b0316616bbb565b82546001600160801b039182166101009390930a9283029190920219909116179055506000546124d29060ff63010000009091041682616d07565b6001600160a01b037f000000000000000000000000000000000000000000000000000000000000000016600090815260026020526040812080549091906125239084906001600160801b0316616bbb565b92506101000a8154816001600160801b0302191690836001600160801b03160217905550612622565b6000546125629062010000900460ff1682616d07565b6001600160a01b038c16600090815260026020526040812080549091906125939084906001600160801b0316616bbb565b82546001600160801b039182166101009390930a9283029190920219909116179055506000546125ce9060ff63010000009091041682616d07565b336000908152600260205260408120805460ff93909316929091906125fd9084906001600160801b0316616bbb565b92506101000a8154816001600160801b0302191690836001600160801b031602179055505b50505b80156129be57600354600160e81b900460041c600f16600081156126555761265060ff831684616b90565b612658565b60005b90506001600160801b038116156129bb57600054610100900460ff1661267f606483616b90565b6126899190616d07565b6001600160a01b038c16600090815260026020526040902080546010906126c1908490600160801b90046001600160801b0316616bbb565b82546001600160801b039182166101009390930a92830291909202199091161790555060005460ff166126f5606483616b90565b6126ff9190616d07565b7f00000000000000000000000000000000000000000000000000000000000000006001600160a01b031660009081526002602052604090208054601090612757908490600160801b90046001600160801b0316616bbb565b92506101000a8154816001600160801b0302191690836001600160801b0316021790555060006001600160a01b03168c6001600160a01b03161461289f576000546127ab9062010000900460ff1682616d07565b6001600160a01b038d16600090815260026020526040902080546010906127e3908490600160801b90046001600160801b0316616bbb565b82546001600160801b039182166101009390930a92830291909202199091161790555060005461281e9060ff63010000009091041682616d07565b7f00000000000000000000000000000000000000000000000000000000000000006001600160a01b031660009081526002602052604090208054601090612876908490600160801b90046001600160801b0316616bbb565b92506101000a8154816001600160801b0302191690836001600160801b03160217905550612983565b6000546128b59062010000900460ff1682616d07565b6001600160a01b038c16600090815260026020526040902080546010906128ed908490600160801b90046001600160801b0316616bbb565b82546001600160801b039182166101009390930a9283029190920219909116179055506000546129289060ff63010000009091041682616d07565b336000908152600260205260409020805460ff929092169160109061295e908490600160801b90046001600160801b0316616bbb565b92506101000a8154816001600160801b0302191690836001600160801b031602179055505b6129a46129908285616ba4565b600160801b8f6001600160801b0316613fe8565b600560008282546129b59190616af8565b90915550505b50505b50506003805460ff60f01b1916600160f01b1790555050505050505050505050505050565b6003546000908190600160f01b900460ff16612a115760405162461bcd60e51b81526004016108d090616a6b565b6003805460ff60f01b191690556000612a2d600a338989614ec3565b60038101549091506001600160801b0390811690861611612a4e5784612a5d565b60038101546001600160801b03165b60038201549093506001600160801b03600160801b909104811690851611612a855783612a9b565b6003810154600160801b90046001600160801b03165b91506001600160801b03831615612b2457600381018054849190600090612acc9084906001600160801b0316616d26565b92506101000a8154816001600160801b0302191690836001600160801b03160217905550612b247f000000000000000000000000000000000000000000000000000000000000000089856001600160801b03166149e9565b6001600160801b03821615612bb157818160030160108282829054906101000a90046001600160801b0316612b599190616d26565b92506101000a8154816001600160801b0302191690836001600160801b03160217905550612bb17f000000000000000000000000000000000000000000000000000000000000000089846001600160801b03166149e9565b604080516001600160a01b038a1681526001600160801b0385811660208301528416818301529051600288810b92908a900b9133917f70935338e69775456a85ddef226c395fb668b63fa0115f5f20610b388e6ca9c0919081900360600190a4506003805460ff60f01b1916600160f01b17905590969095509350505050565b6001546001600160a01b03163314612c4857600080fd5b6001805460ff60b01b19169055565b606080612c6261375e565b612cd54285858080602002602001604051908101604052809392919081815260200183836020028082843760009201919091525050600354600754600b95949350600160a01b820460020b925061ffff600160b81b83048116926001600160801b0390921691600160c81b900416614f20565b915091505b9250929050565b6001546001600160a01b03163314612cf857600080fd5b6001805460ff60b01b1916600160b01b179055565b6003546000908190600160f01b900460ff16612d3b5760405162461bcd60e51b81526004016108d090616a6b565b50506003805460ff60f01b19169055336000908152600260205260409020546001600160801b0380821691600160801b9004168115612e18576006546001600160801b0390811690831603612d9857612d95600183616d26565b91505b3360009081526002602052604081208054849290612dc09084906001600160801b0316616d26565b92506101000a8154816001600160801b0302191690836001600160801b03160217905550612e187f000000000000000000000000000000000000000000000000000000000000000033846001600160801b03166149e9565b6001600160801b03811615612edc576006546001600160801b03600160801b909104811690821603612e5257612e4f600182616d26565b90505b3360009081526002602052604090208054829190601090612e84908490600160801b90046001600160801b0316616d26565b92506101000a8154816001600160801b0302191690836001600160801b03160217905550612edc7f000000000000000000000000000000000000000000000000000000000000000033836001600160801b03166149e9565b604080516001600160801b03808516825283166020820152339182917f596b573906218d3411850b26a6b437d6c4522fdb43d2d2386263f86d50b8b151910160405180910390a36003805460ff60f01b1916600160f01b1790559091565b6003546000908190600160f01b900460ff16612f685760405162461bcd60e51b81526004016108d090616a6b565b6003805460ff60f01b1916905560408051608081018252338152600287810b602083015286900b9181019190915260009081908190612fb89060608101612fae89616be6565b600f0b9052614c4e565b92509250925081612fc890616ca9565b9450612fd381616ca9565b93506000851180612fe45750600084115b156130465760038301546130029086906001600160801b0316616bbb565b6003840154613022908690600160801b90046001600160801b0316616bbb565b6001600160801b039182169116600160801b026001600160801b0319161760038401555b604080516001600160801b038816815260208101879052908101859052600288810b91908a900b9033907f0c396cd989a39f4459b5fa1aed6a9a8dcdbc45908acfd67e028cd568da98982c9060600160405180910390a450506003805460ff60f01b1916600160f01b179055509094909350915050565b60008060006130ca61375e565b6130d4858561508f565b600285810b6000908152600860205260408082209287900b825281206003830154600681900b93600160381b82046001600160a01b0316928492600160d81b810463ffffffff169284929091600160f81b900460ff168061313457600080fd5b6003820154600681900b9850600160381b81046001600160a01b03169650600160d81b810463ffffffff169450600160f81b900460ff168061317557600080fd5b50506040805160e0810182526003546001600160a01b0381168252600160a01b8104600290810b6020840181905261ffff600160b81b8404811695850195909552600160c81b830485166060850152600160d81b8304909416608084015260ff600160e81b8304811660a0850152600160f01b909204909116151560c08301529093508e900b131590506132335761320d8688616d4e565b6132178587616d94565b6132218486616db4565b995099509950505050505050506132f3565b8a60020b816020015160020b12156132d5576020810151604082015160075460608401514293600093849361327c93600b9388938793919290916001600160801b03169061416e565b90925090508861328c8b84616d4e565b6132969190616d4e565b876132a18a84616d94565b6132ab9190616d94565b866132b68987616db4565b6132c09190616db4565b9c509c509c50505050505050505050506132f3565b6132df8787616d4e565b6132e98686616d94565b6132218585616db4565b9250925092565b600354600160f01b900460ff166133235760405162461bcd60e51b81526004016108d090616a6b565b6003805460ff60f01b1916905561333861375e565b600354600160d81b900461ffff166000613354600b838561516e565b6003805461ffff808416600160d81b810261ffff60d81b19909316929092179092559192508316146133bb576040805161ffff8085168252831660208201527fac49e518f90a358f652e4400164f05a5d8f7e35e7747279bc3a93dbf584e125a9101611c27565b50506003805460ff60f01b1916600160f01b17905550565b600354600160f01b900460ff166133fc5760405162461bcd60e51b81526004016108d090616a6b565b6003805460ff60f01b1916905560408051630a43f92960e11b815290516001600160a01b037f00000000000000000000000000000000000000000000000000000000000000001691631487f2529160048083019260209291908290030181865afa15801561346e573d6000803e3d6000fd5b505050506040513d601f19601f820116820180604052508101906134929190616cc5565b15156001146134a057600080fd5b80826134ac8587616ce2565b6134b69190616ce2565b6134c09190616ce2565b60ff166064146135125760405162461bcd60e51b815260206004820152601860248201527f70726f666974736861726520636f6e666967206572726f72000000000000000060448201526064016108d0565b6040805160808101825260ff958616808252948616602082018190529386169181018290529190941660609091018190526000805461ffff19169093176101009092029190911763ffff000019166201000090930263ff000000191692909217630100000090920291909117905560038054600160f01b60ff60f01b19909116179055565b6003546001600160a01b0316156135d55760405162461bcd60e51b8152602060048201526002602482015261414960f01b60448201526064016108d0565b60006135e082614526565b604080516080808201835263ffffffff42168083526000602080850182905284860182905260016060958601819052600160f81b909317600b55855160e0810187526001600160a01b038a16808252600289900b82840181905282890185905296820185905294810184905260a081019290925260c0909101829052600380546001600160b81b0319168417600160a01b62ffffff8916021767ffffffffffffffff60b81b19166501000001000160c81b17905584519283528201929092528251939450909283927f98636036cb66a9c19a37435efc1e90142190214e8abeb821bdba3f2990dd4c95928290030190a150505050565b600080826136e881620d89e719616dd1565b6136f29190616e0b565b905060008380613705620d89e719616ad6565b61370f9190616dd1565b6137199190616e0b565b90506000846137288484616c0c565b6137329190616dd1565b61373d906001616e98565b905061375562ffffff82166001600160801b03616c54565b95945050505050565b306001600160a01b037f0000000000000000000000000000000000000000000000000000000000000000161461379357600080fd5b565b600080806137a38587616dd1565b905060008660020b1280156137c357506137bd8587616eb6565b60020b15155b156137d657806137d281616ed8565b9150505b8315613883576000806137e88361521c565b90925090506000600160ff831681901b906138039082616ba4565b61380d9190616af8565b600184900b600090815260208c90526040902054811680151596509091508561384d578861383e60ff851687616c0c565b6138489190616e0b565b613878565b8861385782615239565b6138619085616efb565b61386e9060ff1687616c0c565b6138789190616e0b565b965050505050613948565b600080613899613894846001616f1e565b61521c565b909250905060006138b1600160ff841681901b616ba4565b600184900b600090815260208c90526040902054901990811680151596509091508561390a57886138e38460ff616efb565b60ff166138f1876001616f1e565b6138fb9190616f1e565b6139059190616e0b565b613941565b888361391583615330565b61391f9190616efb565b60ff1661392d876001616f1e565b6139379190616f1e565b6139419190616e0b565b9650505050505b5094509492505050565b60008060008360020b12613969578260020b613976565b8260020b61397690616ca9565b9050613985620d89e719616ad6565b60020b8111156139bb5760405162461bcd60e51b81526020600482015260016024820152601560fa1b60448201526064016108d0565b6000816001166000036139d257600160801b6139e4565b6ffffcb933bd6fad37aa2d162d1a5940015b70ffffffffffffffffffffffffffffffffff1690506002821615613a23576080613a1e826ffff97272373d413259a46990580e213a616d07565b901c90505b6004821615613a4d576080613a48826ffff2e50f5f656932ef12357cf3c7fdcc616d07565b901c90505b6008821615613a77576080613a72826fffe5caca7e10e4e61c3624eaa0941cd0616d07565b901c90505b6010821615613aa1576080613a9c826fffcb9843d60f6159c9db58835c926644616d07565b901c90505b6020821615613acb576080613ac6826fff973b41fa98c081472e6896dfb254c0616d07565b901c90505b6040821615613af5576080613af0826fff2ea16466c96a3843ec78b326b52861616d07565b901c90505b6080821615613b1f576080613b1a826ffe5dee046a99a2a811c461f1969c3053616d07565b901c90505b610100821615613b4a576080613b45826ffcbe86c7900a88aedcffc83b479aa3a4616d07565b901c90505b610200821615613b75576080613b70826ff987a7253ac413176f2b074cf7815e54616d07565b901c90505b610400821615613ba0576080613b9b826ff3392b0822b70005940c7a398e4b70f3616d07565b901c90505b610800821615613bcb576080613bc6826fe7159475a2c29b7443b29c7fa6e889d9616d07565b901c90505b611000821615613bf6576080613bf1826fd097f3bdfd2022b8845ad8f792aa5825616d07565b901c90505b612000821615613c21576080613c1c826fa9f746462d870fdf8a65dc1f90e061e5616d07565b901c90505b614000821615613c4c576080613c47826f70d869a156d2a1b890bb3df62baf32f7616d07565b901c90505b618000821615613c77576080613c72826f31be135f97d08fd981231505542fcfa6616d07565b901c90505b62010000821615613ca3576080613c9e826f09aa508b5b7a84e1c677de54f3e99bc9616d07565b901c90505b62020000821615613cce576080613cc9826e5d6af8dedb81196699c329225ee604616d07565b901c90505b62040000821615613cf8576080613cf3826d2216e584f5fa1ea926041bedfe98616d07565b901c90505b62080000821615613d20576080613d1b826b048a170391f7dc42444e8fa2616d07565b901c90505b60008460020b1315613d3b57613d3881600019616b90565b90505b613d49600160201b82616f65565b15613d55576001613d58565b60005b613d699060ff16602083901c616af8565b949350505050565b60008080806001600160a01b03808916908a161015818712801590613dfd576000613db189613da38a620f4240616f79565b62ffffff16620f4240613fe8565b905082613dca57613dc58c8c8c600161545b565b613dd7565b613dd78b8d8c60016154d9565b9550858110613de8578a9650613df7565b613df48c8b83866155a0565b96505b50613e51565b81613e1457613e0f8b8b8b60006154d9565b613e21565b613e218a8c8b600061545b565b935083613e2d89616ca9565b10613e3a57899550613e51565b613e4e8b8a613e488b616ca9565b856155ec565b95505b6001600160a01b038a8116908716148215613eb457808015613e705750815b613e8657613e81878d8c60016154d9565b613e88565b855b9550808015613e95575081155b613eab57613ea6878d8c600061545b565b613ead565b845b9450613efe565b808015613ebe5750815b613ed457613ecf8c888c600161545b565b613ed6565b855b9550808015613ee3575081155b613ef957613ef48c888c60006154d9565b613efb565b845b94505b81158015613f135750613f1089616ca9565b85115b15613f2457613f2189616ca9565b94505b818015613f4357508a6001600160a01b0316876001600160a01b031614155b15613f5957613f52868a616ba4565b9350613f7d565b613f7a8662ffffff8a16613f708b620f4240616f79565b62ffffff16614e83565b93505b50505095509550955095915050565b6000600160ff1b8210613f9e57600080fd5b5090565b60008082121583613fb38482616b10565b925082131514613fc257600080fd5b92915050565b60008082121583613fd98482616b4f565b925082121514613fc257600080fd5b6000808060001985870985870292508281108382030391505080600003614021576000841161401657600080fd5b508290049050614167565b80841161402d57600080fd5b60008486880980840393811190920391905060008561404e81600019616ba4565b614059906001616af8565b169586900495938490049360008190030460010190506140798184616d07565b90931792600061408a876003616d07565b60021890506140998188616d07565b6140a4906002616ba4565b6140ae9082616d07565b90506140ba8188616d07565b6140c5906002616ba4565b6140cf9082616d07565b90506140db8188616d07565b6140e6906002616ba4565b6140f09082616d07565b90506140fc8188616d07565b614107906002616ba4565b6141119082616d07565b905061411d8188616d07565b614128906002616ba4565b6141329082616d07565b905061413e8188616d07565b614149906002616ba4565b6141539082616d07565b905061415f8186616d07565b955050505050505b9392505050565b6000808663ffffffff16600003614217576000898661ffff1661ffff811061419857614198616f95565b60408051608081018252919092015463ffffffff808216808452600160201b830460060b6020850152600160581b83046001600160a01b031694840194909452600160f81b90910460ff16151560608301529092508a161461420357614200818a8988615638565b90505b806020015181604001519250925050614347565b6000614223888a616db4565b90506000806142378c8c858c8c8c8c615713565b91509150816000015163ffffffff168363ffffffff1603614268578160200151826040015194509450505050614347565b806000015163ffffffff168363ffffffff1603614295578060200151816040015194509450505050614347565b815181516000916142a591616db4565b83519091506000906142b79086616db4565b90508060030b8260030b856020015185602001516142d59190616d4e565b6142df9190616fab565b6142e99190616fe0565b84602001516142f89190617033565b8263ffffffff168263ffffffff168660400151866040015161431a9190616d94565b6143249190617079565b61432e919061709f565b856040015161433d91906170b9565b9650965050505050505b97509795505050505050565b600286900b600090815260208890526040812060018101546143759088616ba4565b600182015560028101546143899087616ba4565b600282015560038101546143ad90600160381b90046001600160a01b031686616d94565b6003820180546001600160a01b0392909216600160381b02670100000000000000600160d81b031990921691909117908190556143ed9060060b85616d4e565b60038201805466ffffffffffffff191666ffffffffffffff92909216919091179081905561442890600160d81b900463ffffffff1684616db4565b60038201805463ffffffff92909216600160d81b0263ffffffff60d81b1990921691909117905554600160801b9004600f0b98975050505050505050565b60008082600f0b12156144d3576001600160801b03831661448683616be6565b6144909085616d26565b9150816001600160801b0316106144ce5760405162461bcd60e51b81526020600482015260026024820152614c5360f01b60448201526064016108d0565b613fc2565b6001600160801b0383166144e78385616bbb565b9150816001600160801b03161015613fc25760405162461bcd60e51b81526020600482015260026024820152614c4160f01b60448201526064016108d0565b60006401000276a36001600160a01b03831610801590614562575073fffd8963efd1fc6a506488495d951d5263988d266001600160a01b038316105b6145925760405162461bcd60e51b81526020600482015260016024820152602960f91b60448201526064016108d0565b640100000000600160c01b03602083901b166001600160801b03811160071b81811c67ffffffffffffffff811160061b90811c63ffffffff811160051b90811c61ffff811160041b90811c60ff8111600390811b91821c600f811160021b90811c918211600190811b92831c9790881196179094179092171790911717176080811061462d57614623607f82616ba4565b83901c915061463e565b61463881607f616ba4565b83901b91505b6000604061464d608084616b10565b901b9050828302607f1c92508260801c80603f1b8217915083811c935050828302607f1c92508260801c80603e1b8217915083811c935050828302607f1c92508260801c80603d1b8217915083811c935050828302607f1c92508260801c80603c1b8217915083811c935050828302607f1c92508260801c80603b1b8217915083811c935050828302607f1c92508260801c80603a1b8217915083811c935050828302607f1c92508260801c8060391b8217915083811c935050828302607f1c92508260801c8060381b8217915083811c935050828302607f1c92508260801c8060371b8217915083811c935050828302607f1c92508260801c8060361b8217915083811c935050828302607f1c92508260801c8060351b8217915083811c935050828302607f1c92508260801c8060341b8217915083811c935050828302607f1c92508260801c8060331b8217915083811c935050828302607f1c92508260801c8060321b8217915050600081693627a301d71055774c856147d091906170db565b9050600060806147f06f028f6481ab7f045a5af012a19d003aaa84616b10565b901d905060006080614812846fdb2df09e81959a81455e260799a0632f616b4f565b901d90508060020b8260020b1461485157886001600160a01b031661483682613952565b6001600160a01b0316111561484b5781614853565b80614853565b815b9998505050505050505050565b6000806000898961ffff1661ffff811061487c5761487c616f95565b60408051608081018252919092015463ffffffff808216808452600160201b830460060b6020850152600160581b83046001600160a01b031694840194909452600160f81b90910460ff1615156060830152909250891690036148e55788859250925050614347565b8461ffff168461ffff1611801561490d5750614902600186617160565b61ffff168961ffff16145b1561491a5783915061491e565b8491505b8161492a8a600161717b565b6149349190617198565b925061494281898989615638565b8a8461ffff1661ffff811061495957614959616f95565b825191018054602084015160408501516060909501511515600160f81b026001600160f81b036001600160a01b03909616600160581b02959095166affffffffffffffffffffff66ffffffffffffff909216600160201b026affffffffffffffffffffff1990931663ffffffff909516949094179190911716919091179190911790555097509795505050505050565b604080516001600160a01b038481166024830152604480830185905283518084039091018152606490920183526020820180516001600160e01b031663a9059cbb60e01b1790529151600092839290871691614a4591906171b9565b6000604051808303816000865af19150503d8060008114614a82576040519150601f19603f3d011682016040523d82523d6000602084013e614a87565b606091505b5091509150818015614ab1575080511580614ab1575080806020019051810190614ab19190616cc5565b614ae25760405162461bcd60e51b81526020600482015260026024820152612a2360f11b60448201526064016108d0565b5050505050565b604051306024820152600090819081906001600160a01b037f000000000000000000000000000000000000000000000000000000000000000016906370a0823160e01b906044015b60408051601f198184030181529181526020820180516001600160e01b03166001600160e01b0319909416939093179092529051614b6f91906171b9565b600060405180830381855afa9150503d8060008114614baa576040519150601f19603f3d011682016040523d82523d6000602084013e614baf565b606091505b5091509150818015614bc357506020815110155b614bcc57600080fd5b80806020019051810190614be091906171f4565b9250505090565b600082614bf48382616af8565b9150811015613fc257600080fd5b604051306024820152600090819081906001600160a01b037f000000000000000000000000000000000000000000000000000000000000000016906370a0823160e01b90604401614b31565b6000806000614c5b61375e565b614c6d8460200151856040015161508f565b6040805160e0810182526003546001600160a01b0381168252600160a01b810460020b602080840182905261ffff600160b81b8404811685870152600160c81b84048116606080870191909152600160d81b8504909116608086015260ff600160e81b8504811660a0870152600160f01b909404909316151560c085015288519089015194890151928901519394614d0b949193909290919061592f565b93508460600151600f0b600014614e7b57846020015160020b816020015160020b1215614d6057614d59614d428660200151613952565b614d4f8760400151613952565b8760600151615b17565b9250614e7b565b846040015160020b816020015160020b1215614e515760075460408201516001600160801b0390911690614dab9042602085015160608601516080870151600b949392918791614860565b6003805463ffffffff60b81b1916600160c81b61ffff9384160261ffff60b81b191617600160b81b939092169290920217905581516040870151614dfd9190614df390613952565b8860600151615b17565b9350614e1b614e0f8760200151613952565b83516060890151615b59565b9250614e2b818760600151614466565b600780546001600160801b0319166001600160801b039290921691909117905550614e7b565b614e78614e618660200151613952565b614e6e8760400151613952565b8760600151615b59565b91505b509193909250565b6000614e90848484613fe8565b905060008280614ea257614ea2616a88565b8486091115614167576000198110614eb957600080fd5b806137558161720d565b6040805160609490941b6bffffffffffffffffffffffff191660208086019190915260e893841b60348601529190921b60378401528151601a818503018152603a9093018252825192810192909220600090815292909152902090565b60608060008361ffff1611614f5b5760405162461bcd60e51b81526020600482015260016024820152604960f81b60448201526064016108d0565b865167ffffffffffffffff811115614f7557614f75617226565b604051908082528060200260200182016040528015614f9e578160200160208202803683370190505b509150865167ffffffffffffffff811115614fbb57614fbb617226565b604051908082528060200260200182016040528015614fe4578160200160208202803683370190505b50905060005b87518110156150825761501b8a8a8a848151811061500a5761500a616f95565b60200260200101518a8a8a8a61416e565b84838151811061502d5761502d616f95565b6020026020010184848151811061504657615046616f95565b60200260200101826001600160a01b03166001600160a01b03168152508260060b60060b8152505050808061507a9061720d565b915050614fea565b5097509795505050505050565b8060020b8260020b126150e45760405162461bcd60e51b815260206004820152601d60248201527f6c6f776572206e6f74206c6f776572206f6620757070657220756e697400000060448201526064016108d0565b620d89e719600283900b12156151225760405162461bcd60e51b8152602060048201526003602482015262544c4d60e81b60448201526064016108d0565b61512f620d89e719616ad6565b60020b8160020b131561516a5760405162461bcd60e51b815260206004820152600360248201526254554d60e81b60448201526064016108d0565b5050565b6000808361ffff16116151a75760405162461bcd60e51b81526020600482015260016024820152604960f81b60448201526064016108d0565b8261ffff168261ffff16116151bd575081614167565b825b8261ffff168161ffff161015615213576001858261ffff1661ffff81106151e8576151e8616f95565b01805463ffffffff191663ffffffff929092169190911790558061520b8161723c565b9150506151bf565b50909392505050565b600281900b60081d60006152326101008461725d565b9050915091565b600080821161524757600080fd5b600160801b821061526557608091821c916152629082616ce2565b90505b68010000000000000000821061528857604091821c916152859082616ce2565b90505b600160201b82106152a657602091821c916152a39082616ce2565b90505b6201000082106152c357601091821c916152c09082616ce2565b90505b61010082106152df57600891821c916152dc9082616ce2565b90505b601082106152fa57600491821c916152f79082616ce2565b90505b6004821061531557600291821c916153129082616ce2565b90505b6002821061532b57615328600182616ce2565b90505b919050565b600080821161533e57600080fd5b5060ff6001600160801b038216156153625761535b608082616efb565b905061536a565b608082901c91505b67ffffffffffffffff82161561538c57615385604082616efb565b9050615394565b604082901c91505b63ffffffff8216156153b2576153ab602082616efb565b90506153ba565b602082901c91505b61ffff8216156153d6576153cf601082616efb565b90506153de565b601082901c91505b60ff8216156153f9576153f2600882616efb565b9050615401565b600882901c91505b600f82161561541c57615415600482616efb565b9050615424565b600482901c91505b600382161561543f57615438600282616efb565b9050615447565b600282901c91505b600182161561532b57615328600182616efb565b6000836001600160a01b0316856001600160a01b0316111561547b579293925b816154af576154aa6001600160801b0384166154978787616d94565b6001600160a01b0316600160601b613fe8565b613755565b6137556001600160801b0384166154c68787616d94565b6001600160a01b0316600160601b614e83565b6000836001600160a01b0316856001600160a01b031611156154f9579293925b600160601b600160e01b03606084901b1660006155168787616d94565b6001600160a01b031690506000876001600160a01b03161161553757600080fd5b8361556957866001600160a01b031661555a8383896001600160a01b0316613fe8565b6155649190616b90565b615595565b6155956155808383896001600160a01b0316614e83565b886001600160a01b0316808204910615150190565b979650505050505050565b600080856001600160a01b0316116155b757600080fd5b6000846001600160801b0316116155cd57600080fd5b816155df576154aa8585856001615b8d565b6137558585856001615c74565b600080856001600160a01b03161161560357600080fd5b6000846001600160801b03161161561957600080fd5b8161562b576154aa8585856000615c74565b6137558585856000615b8d565b604080516080810182526000808252602082018190529181018290526060810191909152845160009061566b9086616db4565b905060405180608001604052808663ffffffff168152602001828660020b6156939190617273565b60030b88602001516156a59190617033565b60060b81526020016000856001600160801b0316116156c55760016156c7565b845b6156e7906001600160801b031663ffffffff60801b608086901b1661709f565b88604001516156f691906170b9565b6001600160a01b0316815260016020909101529695505050505050565b604080516080810182526000808252602082018190529181018290526060810191909152604080516080810182526000808252602082018190529181018290526060810191909152888561ffff1661ffff811061577257615772616f95565b60408051608081018252919092015463ffffffff8116808352600160201b820460060b6020840152600160581b82046001600160a01b031693830193909352600160f81b900460ff161515606082015292506157d090899089615d8b565b156157fc57815163ffffffff88811691161461434757816157f383898988615638565b91509150614347565b888361580987600161717b565b6158139190617198565b61ffff1661ffff811061582857615828616f95565b60408051608081018252929091015463ffffffff81168352600160201b810460060b60208401526001600160a01b03600160581b8204169183019190915260ff600160f81b909104161515606082018190529092506158d157604080516080810182528a5463ffffffff81168252600160201b810460060b6020830152600160581b81046001600160a01b031692820192909252600160f81b90910460ff161515606082015291505b6158e088836000015189615d8b565b6159125760405162461bcd60e51b815260206004820152600360248201526213d31160ea1b60448201526064016108d0565b61591f8989898887615e5a565b9150915097509795505050505050565b600061593e600a878787614ec3565b60045460055491925090600080600f87900b15615a79576003546007544291600091829161599e91600b9186918591600160a01b810460020b9161ffff600160b81b83048116926001600160801b0390921691600160c81b90041661416e565b90925090506159d860088d8b8d8b8b87898b60007f0000000000000000000000000000000000000000000000000000000000000000616072565b9450615a0f60088c8b8d8b8b87898b60017f0000000000000000000000000000000000000000000000000000000000000000616072565b93508415615a4357615a4360098d7f0000000000000000000000000000000000000000000000000000000000000000616228565b8315615a7557615a7560098c7f0000000000000000000000000000000000000000000000000000000000000000616228565b5050505b600080615a8b60088c8c8b8a8a61627b565b9092509050615a9c878a8484616365565b600089600f0b1215615b08578315615ad85760028b810b6000908152600860205260408120818155600181018290559182018190556003909101555b8215615b085760028a810b6000908152600860205260408120818155600181018290559182018190556003909101555b50505050505095945050505050565b60008082600f0b12615b3857615b33610e6185858560016154d9565b613d69565b615b50610e618585615b4986616be6565b60006154d9565b613d6990616ca9565b60008082600f0b12615b7557615b33610e61858585600161545b565b615b50610e618585615b8686616be6565b600061545b565b60008115615bff5760006001600160a01b03841115615bc357615bbe84600160601b876001600160801b0316613fe8565b615bda565b615bda6001600160801b038616606086901b616b90565b9050615bf7615bf26001600160a01b03881683614be7565b616559565b915050613d69565b60006001600160a01b03841115615c2d57615c2884600160601b876001600160801b0316614e83565b615c4a565b615c4a606085901b6001600160801b038716808204910615150190565b905080866001600160a01b031611615c6157600080fd5b615bf7816001600160a01b038816616ba4565b600082600003615c85575083613d69565b600160601b600160e01b03606085901b168215615d2e5760006001600160a01b03871685615cb38282616d07565b9250615cbf9083616b90565b03615cf9576000615cd08284616af8565b9050828110615cf757615ced83896001600160a01b031683614e83565b9350505050613d69565b505b615d2582615d1a87615d146001600160a01b038c1684616b90565b90614be7565b808204910615150190565b92505050613d69565b60006001600160a01b03871685615d458282616d07565b9250615d519083616b90565b148015615d5d57508082115b615d6657600080fd5b6000615d728284616ba4565b9050615ced615bf2848a6001600160a01b031684614e83565b60008363ffffffff168363ffffffff1611158015615db557508363ffffffff168263ffffffff1611155b15615dd1578163ffffffff168363ffffffff1611159050614167565b60008463ffffffff168463ffffffff1611615dff57615dfa63ffffffff8516600160201b6172c0565b615e07565b8363ffffffff165b64ffffffffff16905060008563ffffffff168463ffffffff1611615e3e57615e3963ffffffff8516600160201b6172c0565b615e46565b8363ffffffff165b64ffffffffff169091111595945050505050565b604080516080810182526000808252602082018190529181018290526060810191909152604080516080810182526000808252602082018190529181018290526060810191909152600083615eb086600161717b565b615eba9190617198565b61ffff169050600060018561ffff1683615ed49190616af8565b615ede9190616ba4565b905060005b6002615eef8385616af8565b615ef99190616b90565b905089615f0a61ffff881683616f65565b61ffff8110615f1b57615f1b616f95565b60408051608081018252929091015463ffffffff81168352600160201b810460060b60208401526001600160a01b03600160581b8204169183019190915260ff600160f81b90910416151560608201819052909550615f8657615f7f816001616af8565b9250615ee3565b8961ffff8716615f97836001616af8565b615fa19190616f65565b61ffff8110615fb257615fb2616f95565b60408051608081018252929091015463ffffffff81168352600160201b810460060b60208401526001600160a01b03600160581b8204169183019190915260ff600160f81b90910416151560608201528551909450600090616016908b908b615d8b565b905080801561602f575061602f8a8a8760000151615d8b565b1561603a5750616065565b806160515761604a600183616ba4565b925061605f565b61605c826001616af8565b93505b50615ee3565b5050509550959350505050565b60028a900b600090815260208c90526040812080546001600160801b03168261609b828d614466565b9050846001600160801b0316816001600160801b031611156160e45760405162461bcd60e51b81526020600482015260026024820152614c4f60f01b60448201526064016108d0565b6001600160801b0381811615908316801591909114159450600003616197578c60020b8e60020b1361617f57600183018b9055600283018a905560038301805466ffffffffffffff8a166001600160f81b0319909116600160381b6001600160a01b038d16027fff00000000ffffffffffffffffffffffffffffffffffffffff00000000000000161717600160d81b63ffffffff8a16021790555b6003830180546001600160f81b0316600160f81b1790555b82546001600160801b0319166001600160801b038216178355856161de5782546161d9906161d490600160801b9004600f90810b908f900b613fc8565b61656f565b6161fd565b82546161fd906161d490600160801b9004600f90810b908f900b613fa2565b83546001600160801b03918216600160801b0291161790925550909c9b505050505050505050505050565b6162328183616eb6565b60020b1561623f57600080fd5b60008061624f6138948486616dd1565b600191820b60009081526020979097526040909620805460ff9097169190911b90951890945550505050565b600285810b60008181526020899052604080822088850b83529082209193849391929184918291908a900b126162bc575050600182015460028301546162e0565b60018401546162cb9089616ba4565b91508360020154876162dd9190616ba4565b90505b6000808b60020b8b60020b121561630257505060018301546002840154616326565b6001850154616311908b616ba4565b91508460020154896163239190616ba4565b90505b81616331858c616ba4565b61633b9190616ba4565b975080616348848b616ba4565b6163529190616ba4565b9650505050505050965096945050505050565b6040805160a08101825285546001600160801b0390811682526001870154602083015260028701549282019290925260038601548083166060830152600160801b900490911660808201526000600f85900b81036164015781516001600160801b03166163f95760405162461bcd60e51b815260206004820152600260248201526104e560f41b60448201526064016108d0565b508051616410565b815161640d9086614466565b90505b600061643a8360200151866164259190616ba4565b84516001600160801b0316600160801b613fe8565b905060006164668460400151866164519190616ba4565b85516001600160801b0316600160801b613fe8565b905086600f0b60001461648d5787546001600160801b0319166001600160801b0384161788555b60018801869055600288018590556001600160801b0382161515806164bb57506000816001600160801b0316115b1561654f576003880180548391906000906164e09084906001600160801b0316616bbb565b92506101000a8154816001600160801b0302191690836001600160801b03160217905550808860030160108282829054906101000a90046001600160801b031661652a9190616bbb565b92506101000a8154816001600160801b0302191690836001600160801b031602179055505b5050505050505050565b806001600160a01b038116811461532b57600080fd5b80600f81900b811461532b57600080fd5b6001600160a01b038116811461659557600080fd5b50565b801515811461659557600080fd5b60008083601f8401126165b857600080fd5b50813567ffffffffffffffff8111156165d057600080fd5b602083019150836020828501011115612cda57600080fd5b60008060008060008060a0878903121561660157600080fd5b863561660c81616580565b9550602087013561661c81616598565b945060408701359350606087013561663381616580565b9250608087013567ffffffffffffffff81111561664f57600080fd5b61665b89828a016165a6565b979a9699509497509295939492505050565b803560ff8116811461532b57600080fd5b6000806040838503121561669157600080fd5b61669a8361666d565b91506166a86020840161666d565b90509250929050565b6000602082840312156166c357600080fd5b813561416781616580565b6000602082840312156166e057600080fd5b5035919050565b8035600281900b811461532b57600080fd5b60006020828403121561670b57600080fd5b614167826166e7565b80356001600160801b038116811461532b57600080fd5b60008060008060008060a0878903121561674457600080fd5b863561674f81616580565b955061675d602088016166e7565b945061676b604088016166e7565b935061663360608801616714565b60008060008060006080868803121561679157600080fd5b853561679c81616580565b94506020860135935060408601359250606086013567ffffffffffffffff8111156167c657600080fd5b6167d2888289016165a6565b969995985093965092949392505050565b600080600080600060a086880312156167fb57600080fd5b853561680681616580565b9450616814602087016166e7565b9350616822604087016166e7565b925061683060608701616714565b915061683e60808701616714565b90509295509295909350565b6000806020838503121561685d57600080fd5b823567ffffffffffffffff8082111561687557600080fd5b818501915085601f83011261688957600080fd5b81358181111561689857600080fd5b8660208260051b85010111156168ad57600080fd5b60209290920196919550909350505050565b604080825283519082018190526000906020906060840190828701845b828110156168fb57815160060b845292840192908401906001016168dc565b5050508381038285015284518082528583019183019060005b818110156169395783516001600160a01b031683529284019291840191600101616914565b5090979650505050505050565b60006020828403121561695857600080fd5b81358060010b811461416757600080fd5b60008060006060848603121561697e57600080fd5b616987846166e7565b9250616995602085016166e7565b91506169a360408501616714565b90509250925092565b600080604083850312156169bf57600080fd5b6169c8836166e7565b91506166a8602084016166e7565b6000602082840312156169e857600080fd5b813561ffff8116811461416757600080fd5b60008060008060808587031215616a1057600080fd5b616a198561666d565b9350616a276020860161666d565b9250616a356040860161666d565b9150616a436060860161666d565b905092959194509250565b600060208284031215616a6057600080fd5b815161416781616580565b6020808252600390820152624c4f4b60e81b604082015260600190565b634e487b7160e01b600052601260045260246000fd5b600060ff831680616ab157616ab1616a88565b8060ff84160691505092915050565b634e487b7160e01b600052601160045260246000fd5b60008160020b627fffff198103616aef57616aef616ac0565b60000392915050565b60008219821115616b0b57616b0b616ac0565b500190565b60008083128015600160ff1b850184121615616b2e57616b2e616ac0565b6001600160ff1b0384018313811615616b4957616b49616ac0565b50500390565b600080821280156001600160ff1b0384900385131615616b7157616b71616ac0565b600160ff1b8390038412811615616b8a57616b8a616ac0565b50500190565b600082616b9f57616b9f616a88565b500490565b600082821015616bb657616bb6616ac0565b500390565b60006001600160801b03808316818516808303821115616bdd57616bdd616ac0565b01949350505050565b600081600f0b6f7fffffffffffffffffffffffffffffff198103616aef57616aef616ac0565b60008160020b8360020b6000811281627fffff1901831281151615616c3357616c33616ac0565b81627fffff018313811615616c4a57616c4a616ac0565b5090039392505050565b60006001600160801b0380841680616c6e57616c6e616a88565b92169190910492915050565b60006001600160801b0380831681851681830481118215151615616ca057616ca0616ac0565b02949350505050565b6000600160ff1b8201616cbe57616cbe616ac0565b5060000390565b600060208284031215616cd757600080fd5b815161416781616598565b600060ff821660ff84168060ff03821115616cff57616cff616ac0565b019392505050565b6000816000190483118215151615616d2157616d21616ac0565b500290565b60006001600160801b0383811690831681811015616d4657616d46616ac0565b039392505050565b60008160060b8360060b6000811281667fffffffffffff1901831281151615616d7957616d79616ac0565b81667fffffffffffff018313811615616c4a57616c4a616ac0565b60006001600160a01b0383811690831681811015616d4657616d46616ac0565b600063ffffffff83811690831681811015616d4657616d46616ac0565b60008160020b8360020b80616de857616de8616a88565b627fffff19821460001982141615616e0257616e02616ac0565b90059392505050565b60008160020b8360020b627fffff600082136000841383830485118282161615616e3757616e37616ac0565b627fffff196000851282811687830587121615616e5657616e56616ac0565b60008712925085820587128484161615616e7257616e72616ac0565b85850587128184161615616e8857616e88616ac0565b5050509290910295945050505050565b600062ffffff808316818516808303821115616bdd57616bdd616ac0565b60008260020b80616ec957616ec9616a88565b808360020b0791505092915050565b60008160020b627fffff198103616ef157616ef1616ac0565b6000190192915050565b600060ff821660ff841680821015616f1557616f15616ac0565b90039392505050565b60008160020b8360020b6000821282627fffff03821381151615616f4457616f44616ac0565b82627fffff19038212811615616f5c57616f5c616ac0565b50019392505050565b600082616f7457616f74616a88565b500690565b600062ffffff83811690831681811015616d4657616d46616ac0565b634e487b7160e01b600052603260045260246000fd5b60008160060b8360060b80616fc257616fc2616a88565b667fffffffffffff19821460001982141615616e0257616e02616ac0565b60008160060b8360060b667fffffffffffff60008213600084138383048511828216161561701057617010616ac0565b667fffffffffffff196000851282811687830587121615616e5657616e56616ac0565b60008160060b8360060b6000821282667fffffffffffff0382138115161561705d5761705d616ac0565b82667fffffffffffff19038212811615616f5c57616f5c616ac0565b60006001600160a01b0382811684821681151582840482111615616ca057616ca0616ac0565b60006001600160a01b0383811680616c6e57616c6e616a88565b60006001600160a01b03828116848216808303821115616bdd57616bdd616ac0565b60006001600160ff1b038184138284138082168684048611161561710157617101616ac0565b600160ff1b600087128281168783058912161561712057617120616ac0565b6000871292508782058712848416161561713c5761713c616ac0565b8785058712818416161561715257617152616ac0565b505050929093029392505050565b600061ffff83811690831681811015616d4657616d46616ac0565b600061ffff808316818516808303821115616bdd57616bdd616ac0565b600061ffff808416806171ad576171ad616a88565b92169190910692915050565b6000825160005b818110156171da57602081860181015185830152016171c0565b818111156171e9576000828501525b509190910192915050565b60006020828403121561720657600080fd5b5051919050565b60006001820161721f5761721f616ac0565b5060010190565b634e487b7160e01b600052604160045260246000fd5b600061ffff80831681810361725357617253616ac0565b6001019392505050565b600062ffffff808416806171ad576171ad616a88565b60008160030b8360030b637fffffff6000821360008413838304851182821616156172a0576172a0616ac0565b637fffffff196000851282811687830587121615616e5657616e56616ac0565b600064ffffffffff808316818516808303821115616bdd57616bdd616ac056fea26469706673582212208cb7fa3cf7962184066c7dd0372333d07388500df1de11d7f528365cc54f223464736f6c634300080f0033",
    "sourcePath": "/Users/admin/Documents/gitworkplace/self_project/MoonExchangerV1/Contracts/MoonV1Shop.sol",
    "compiler": {
        "name": "solc",
        "version": "0.8.15+commit.e14f2714"
    },
    "functionHashes": {
        "burn(int24,int24,uint128)": "a34123a7",
        "coin()": "11df9995",
        "collect(address,int24,int24,uint128,uint128)": "4f1eb3d8",
        "collectProtocol()": "95f01f3f",
        "flash(address,uint256,uint256,bytes)": "490e6cbc",
        "gatelock()": "92cc393c",
        "gater()": "166d6021",
        "increaseLookerCardinalityNext(uint16)": "b23ae19b",
        "initialize(uint160)": "f637731d",
        "investion()": "6a0b2b23",
        "lockShopbyGetor()": "8f919198",
        "lockShopbyMarketor()": "208537ff",
        "market()": "80f55605",
        "marketlock()": "b1592590",
        "maxInvestionPerUnit()": "8d79ddcb",
        "mint(address,int24,int24,uint128,bytes)": "3c8a7d8d",
        "observe(uint32[])": "883bdbfd",
        "priceLogers(uint256)": "2ad1baab",
        "profit()": "66d16cc3",
        "profitGrowthGlobalCoinX128()": "01b29351",
        "profitGrowthGlobalThingX128()": "a30070e6",
        "profitshares()": "afb62fef",
        "proofs(bytes32)": "444d95b0",
        "protocolProfits()": "3659bb4e",
        "scope()": "6e62d0a8",
        "setFeeProfitSharesbyMarketor(uint8,uint8,uint8,uint8)": "ba66e6dc",
        "setFeeProtocolbyMarketor(uint8,uint8)": "1a86b0e9",
        "shopfee(address)": "1f0f4c29",
        "snapshotCumulativesInside(int24,int24)": "a38807f2",
        "state0()": "8b2ea554",
        "swap(address,bool,int256,uint160,bytes)": "128acb08",
        "thing()": "c55e90fe",
        "unitBitmap(int16)": "8860d1cd",
        "unitSpacing()": "92c4545c",
        "units(int24)": "317dfb06",
        "unlockShopbyGetor()": "6aca362d",
        "unlockShopbyMarketor()": "3d02a292"
    },
    "gasEstimates": {
        "creation": {
            "codeDepositCost": "5892400",
            "executionCost": "infinite",
            "totalCost": "infinite"
        },
        "external": {
            "burn(int24,int24,uint128)": "infinite",
            "coin()": "infinite",
            "collect(address,int24,int24,uint128,uint128)": "infinite",
            "collectProtocol()": "infinite",
            "flash(address,uint256,uint256,bytes)": "infinite",
            "gatelock()": "2460",
            "gater()": "2450",
            "increaseLookerCardinalityNext(uint16)": "infinite",
            "initialize(uint160)": "infinite",
            "investion()": "2448",
            "lockShopbyGetor()": "26609",
            "lockShopbyMarketor()": "infinite",
            "market()": "infinite",
            "marketlock()": "2371",
            "maxInvestionPerUnit()": "infinite",
            "mint(address,int24,int24,uint128,bytes)": "infinite",
            "observe(uint32[])": "infinite",
            "priceLogers(uint256)": "2741",
            "profit()": "infinite",
            "profitGrowthGlobalCoinX128()": "2331",
            "profitGrowthGlobalThingX128()": "2351",
            "profitshares()": "2593",
            "proofs(bytes32)": "9062",
            "protocolProfits()": "2439",
            "scope()": "2376",
            "setFeeProfitSharesbyMarketor(uint8,uint8,uint8,uint8)": "infinite",
            "setFeeProtocolbyMarketor(uint8,uint8)": "infinite",
            "shopfee(address)": "2676",
            "snapshotCumulativesInside(int24,int24)": "infinite",
            "state0()": "2707",
            "swap(address,bool,int256,uint160,bytes)": "infinite",
            "thing()": "infinite",
            "unitBitmap(int16)": "2575",
            "unitSpacing()": "infinite",
            "units(int24)": "9343",
            "unlockShopbyGetor()": "26641",
            "unlockShopbyMarketor()": "infinite"
        },
        "internal": {
            "_blockTimestamp()": "infinite",
            "_modifyproof(struct MoonV1Shop.ModifyProofParams memory)": "infinite",
            "_updateproof(address,int24,int24,int128,int24)": "infinite",
            "checkUnits(int24,int24)": "infinite",
            "coinbalance()": "infinite",
            "thingbalance()": "infinite"
        }
    }
}