{
    "contractName": "MoonV1Gater",
    "abi": [
        {
            "inputs": [],
            "stateMutability": "nonpayable",
            "type": "constructor"
        },
        {
            "inputs": [
                {
                    "components": [
                        {
                            "internalType": "address",
                            "name": "market",
                            "type": "address"
                        },
                        {
                            "internalType": "address",
                            "name": "gateAddress",
                            "type": "address"
                        },
                        {
                            "internalType": "uint160",
                            "name": "authority",
                            "type": "uint160"
                        },
                        {
                            "internalType": "bytes32",
                            "name": "name",
                            "type": "bytes32"
                        },
                        {
                            "internalType": "bytes32",
                            "name": "website",
                            "type": "bytes32"
                        },
                        {
                            "internalType": "bytes32[10]",
                            "name": "webserverip",
                            "type": "bytes32[10]"
                        },
                        {
                            "internalType": "uint32",
                            "name": "createtimestamp",
                            "type": "uint32"
                        },
                        {
                            "internalType": "bool",
                            "name": "marketunlock",
                            "type": "bool"
                        },
                        {
                            "internalType": "bool",
                            "name": "unlock",
                            "type": "bool"
                        },
                        {
                            "internalType": "bool",
                            "name": "isUsed",
                            "type": "bool"
                        }
                    ],
                    "internalType": "struct LGate.Info",
                    "name": "_gater",
                    "type": "tuple"
                }
            ],
            "name": "addGater",
            "outputs": [],
            "stateMutability": "nonpayable",
            "type": "function"
        },
        {
            "inputs": [
                {
                    "internalType": "address",
                    "name": "_gater",
                    "type": "address"
                }
            ],
            "name": "delGatebyMarketor",
            "outputs": [],
            "stateMutability": "nonpayable",
            "type": "function"
        },
        {
            "inputs": [
                {
                    "internalType": "address",
                    "name": "_owner",
                    "type": "address"
                }
            ],
            "name": "delMarketManager",
            "outputs": [],
            "stateMutability": "nonpayable",
            "type": "function"
        },
        {
            "inputs": [
                {
                    "internalType": "address",
                    "name": "",
                    "type": "address"
                }
            ],
            "name": "gateList",
            "outputs": [
                {
                    "internalType": "address",
                    "name": "market",
                    "type": "address"
                },
                {
                    "internalType": "address",
                    "name": "gateAddress",
                    "type": "address"
                },
                {
                    "internalType": "uint160",
                    "name": "authority",
                    "type": "uint160"
                },
                {
                    "internalType": "bytes32",
                    "name": "name",
                    "type": "bytes32"
                },
                {
                    "internalType": "bytes32",
                    "name": "website",
                    "type": "bytes32"
                },
                {
                    "internalType": "uint32",
                    "name": "createtimestamp",
                    "type": "uint32"
                },
                {
                    "internalType": "bool",
                    "name": "marketunlock",
                    "type": "bool"
                },
                {
                    "internalType": "bool",
                    "name": "unlock",
                    "type": "bool"
                },
                {
                    "internalType": "bool",
                    "name": "isUsed",
                    "type": "bool"
                }
            ],
            "stateMutability": "view",
            "type": "function"
        },
        {
            "inputs": [],
            "name": "isValidGater",
            "outputs": [
                {
                    "internalType": "bool",
                    "name": "",
                    "type": "bool"
                }
            ],
            "stateMutability": "view",
            "type": "function"
        },
        {
            "inputs": [],
            "name": "ismarketManager",
            "outputs": [
                {
                    "internalType": "bool",
                    "name": "",
                    "type": "bool"
                }
            ],
            "stateMutability": "view",
            "type": "function"
        },
        {
            "inputs": [],
            "name": "lockGatebyGater",
            "outputs": [],
            "stateMutability": "nonpayable",
            "type": "function"
        },
        {
            "inputs": [
                {
                    "internalType": "address",
                    "name": "_gateraddress",
                    "type": "address"
                }
            ],
            "name": "lockGatebyMarketor",
            "outputs": [],
            "stateMutability": "nonpayable",
            "type": "function"
        },
        {
            "inputs": [],
            "name": "marketCreator",
            "outputs": [
                {
                    "internalType": "address",
                    "name": "",
                    "type": "address"
                }
            ],
            "stateMutability": "view",
            "type": "function"
        },
        {
            "inputs": [
                {
                    "internalType": "address",
                    "name": "",
                    "type": "address"
                }
            ],
            "name": "marketManagers",
            "outputs": [
                {
                    "internalType": "bool",
                    "name": "",
                    "type": "bool"
                }
            ],
            "stateMutability": "view",
            "type": "function"
        },
        {
            "inputs": [
                {
                    "internalType": "address",
                    "name": "_owner",
                    "type": "address"
                }
            ],
            "name": "setMarketManager",
            "outputs": [],
            "stateMutability": "nonpayable",
            "type": "function"
        },
        {
            "inputs": [],
            "name": "unlockGatebyGater",
            "outputs": [],
            "stateMutability": "nonpayable",
            "type": "function"
        },
        {
            "inputs": [
                {
                    "internalType": "address",
                    "name": "_gateraddress",
                    "type": "address"
                }
            ],
            "name": "unlockGatebyMarketor",
            "outputs": [],
            "stateMutability": "nonpayable",
            "type": "function"
        },
        {
            "inputs": [
                {
                    "components": [
                        {
                            "internalType": "address",
                            "name": "market",
                            "type": "address"
                        },
                        {
                            "internalType": "address",
                            "name": "gateAddress",
                            "type": "address"
                        },
                        {
                            "internalType": "uint160",
                            "name": "authority",
                            "type": "uint160"
                        },
                        {
                            "internalType": "bytes32",
                            "name": "name",
                            "type": "bytes32"
                        },
                        {
                            "internalType": "bytes32",
                            "name": "website",
                            "type": "bytes32"
                        },
                        {
                            "internalType": "bytes32[10]",
                            "name": "webserverip",
                            "type": "bytes32[10]"
                        },
                        {
                            "internalType": "uint32",
                            "name": "createtimestamp",
                            "type": "uint32"
                        },
                        {
                            "internalType": "bool",
                            "name": "marketunlock",
                            "type": "bool"
                        },
                        {
                            "internalType": "bool",
                            "name": "unlock",
                            "type": "bool"
                        },
                        {
                            "internalType": "bool",
                            "name": "isUsed",
                            "type": "bool"
                        }
                    ],
                    "internalType": "struct LGate.Info",
                    "name": "_gater",
                    "type": "tuple"
                }
            ],
            "name": "updateGatebyGator",
            "outputs": [],
            "stateMutability": "nonpayable",
            "type": "function"
        },
        {
            "inputs": [
                {
                    "components": [
                        {
                            "internalType": "address",
                            "name": "market",
                            "type": "address"
                        },
                        {
                            "internalType": "address",
                            "name": "gateAddress",
                            "type": "address"
                        },
                        {
                            "internalType": "uint160",
                            "name": "authority",
                            "type": "uint160"
                        },
                        {
                            "internalType": "bytes32",
                            "name": "name",
                            "type": "bytes32"
                        },
                        {
                            "internalType": "bytes32",
                            "name": "website",
                            "type": "bytes32"
                        },
                        {
                            "internalType": "bytes32[10]",
                            "name": "webserverip",
                            "type": "bytes32[10]"
                        },
                        {
                            "internalType": "uint32",
                            "name": "createtimestamp",
                            "type": "uint32"
                        },
                        {
                            "internalType": "bool",
                            "name": "marketunlock",
                            "type": "bool"
                        },
                        {
                            "internalType": "bool",
                            "name": "unlock",
                            "type": "bool"
                        },
                        {
                            "internalType": "bool",
                            "name": "isUsed",
                            "type": "bool"
                        }
                    ],
                    "internalType": "struct LGate.Info",
                    "name": "_gater",
                    "type": "tuple"
                }
            ],
            "name": "updateGatebyMarketor",
            "outputs": [],
            "stateMutability": "nonpayable",
            "type": "function"
        }
    ],
    "bytecode": "60a060405234801561001057600080fd5b5033608052608051610e7361003e600039600081816101280152818161033401526107fa0152610e736000f3fe608060405234801561001057600080fd5b50600436106100f55760003560e01c80637694130011610097578063d82aff1111610066578063d82aff11146102e8578063d8feb7ff146102fb578063f1c9f40f1461030e578063f3a425371461031657600080fd5b8063769413001461028d578063a4786088146102a0578063ab3acb5c146102b3578063b614984d146102d557600080fd5b80633bbae141116100d35780633bbae1411461017757806345df49871461017f57806371271f4d14610257578063753c51881461026a57600080fd5b80631487f252146100fa57806327cbaabe146101235780632b89054314610162575b600080fd5b3360009081526001602052604090205460ff165b60405190151581526020015b60405180910390f35b61014a7f000000000000000000000000000000000000000000000000000000000000000081565b6040516001600160a01b03909116815260200161011a565b610175610170366004610c2b565b610329565b005b61017561037f565b6101f861018d366004610c2b565b600060208190529081526040902080546001820154600283015460038401546004850154600f909501546001600160a01b0394851695938516949290921692909163ffffffff81169060ff600160201b8204811691600160281b8104821691600160301b9091041689565b604080516001600160a01b039a8b168152988a1660208a015296909816958701959095526060860193909352608085019190915263ffffffff1660a0840152151560c0830152151560e08201529015156101008201526101200161011a565b610175610265366004610d21565b61043d565b61010e610278366004610c2b565b60016020526000908152604090205460ff1681565b61017561029b366004610c2b565b6105f0565b6101756102ae366004610c2b565b610681565b336000908152602081905260409020600f0154600160201b900460ff1661010e565b6101756102e3366004610c2b565b610718565b6101756102f6366004610c2b565b6107ef565b610175610309366004610d21565b61084b565b61017561097e565b610175610324366004610d21565b610a2d565b336001600160a01b037f0000000000000000000000000000000000000000000000000000000000000000161461035e57600080fd5b6001600160a01b03166000908152600160205260409020805460ff19169055565b336000908152602081905260409020600f0154600160201b900460ff1615156001146103aa57600080fd5b336000908152602081905260409020600f0154600160301b900460ff16151560011480156103f15750336000818152602081905260409020600101546001600160a01b0316145b6104165760405162461bcd60e51b815260040161040d90610de0565b60405180910390fd5b336000908152602081905260409020600f01805465ff00000000001916600160281b179055565b3360009081526001602081905260409091205460ff1615151461045f57600080fd5b6020818101516001600160a01b031660009081529081905260409020600f0154600160301b900460ff1615156001146104aa5760405162461bcd60e51b815260040161040d90610e0f565b602081810180516001600160a01b0390811660009081528084526040808220600f90810154600160201b900460ff908116151560e089015285518516845283875282842090910154600160281b900416151561010087015283518316825293819052839020845181546001600160a01b031990811691841691909117825592516001820180548516918416919091179055928401516002840180549093169116179055606082015160038201556080820151600482015560a0820151829190610579906005830190600a610ba1565b5060c0820151600f909101805460e0840151610100850151610120909501511515600160301b0266ff00000000000019951515600160281b029590951666ffff000000000019911515600160201b0264ffffffffff1990931663ffffffff9095169490941791909117169190911791909117905550565b3360009081526001602081905260409091205460ff1615151461061257600080fd5b6001600160a01b0381166000908152602081905260409020600f0154600160301b900460ff1615156001146106595760405162461bcd60e51b815260040161040d90610de0565b6001600160a01b03166000908152602081905260409020600f01805464ff0000000019169055565b3360009081526001602081905260409091205460ff161515146106a357600080fd5b6001600160a01b0381166000908152602081905260409020600f0154600160301b900460ff1615156001146106ea5760405162461bcd60e51b815260040161040d90610de0565b6001600160a01b03166000908152602081905260409020600f01805464ff000000001916600160201b179055565b3360009081526001602081905260409091205460ff1615151461073a57600080fd5b6001600160a01b0381166000908152602081905260409020600f0154600160301b900460ff1615156001146107815760405162461bcd60e51b815260040161040d90610e0f565b6001600160a01b038116600090815260208190526040812080546001600160a01b031990811682556001820180548216905560028201805490911690556003810182905560048101829055906107da6005830182610bdf565b50600f01805466ffffffffffffff1916905550565b336001600160a01b037f0000000000000000000000000000000000000000000000000000000000000000161461082457600080fd5b6001600160a01b03166000908152600160208190526040909120805460ff19169091179055565b6020818101516001600160a01b031660009081529081905260409020600f0154600160301b900460ff1615156001036108965760405162461bcd60e51b815260040161040d90610e0f565b60208101516001600160a01b031633146108e65760405162461bcd60e51b81526020600482015260116024820152703a34329033b0ba32b91034b9903cb7bab960791b604482015260640161040d565b600060e082018190526101008201819052602080830180516001600160a01b03908116845291839052604092839020845181549084166001600160a01b0319918216178255915160018201805491851691841691909117905592840151600284018054919093169116179055606082015160038201556080820151600482015560a0820151829190610579906005830190600a610ba1565b336000908152602081905260409020600f0154600160201b900460ff1615156001146109a957600080fd5b336000908152602081905260409020600f0154600160301b900460ff16151560011480156109f05750336000818152602081905260409020600101546001600160a01b0316145b610a0c5760405162461bcd60e51b815260040161040d90610de0565b336000908152602081905260409020600f01805465ff000000000019169055565b336000908152602081905260409020600f0154600160201b900460ff161515600114610a5857600080fd5b6020818101516001600160a01b031660009081529081905260409020600f0154600160301b900460ff161515600114610aa35760405162461bcd60e51b815260040161040d90610e0f565b6020808201516001600160a01b03908116600090815291829052604090912060010154163314610b095760405162461bcd60e51b81526020600482015260116024820152703a34329033b0ba32b91034b9903cb7bab960791b604482015260640161040d565b600060e0820181905260016101008301819052602080840180516001600160a01b03908116855291849052604093849020855181546001600160a01b03199081169185169190911782559151938101805483169484169490941790935592840151600283018054909416911617909155606082015160038201556080820151600482015560a0820151829190610579906005830190600a5b82600a8101928215610bcf579160200282015b82811115610bcf578251825591602001919060010190610bb4565b50610bdb929150610bf1565b5090565b50610bee90600a810190610bf1565b50565b5b80821115610bdb5760008155600101610bf2565b6001600160a01b0381168114610bee57600080fd5b8035610c2681610c06565b919050565b600060208284031215610c3d57600080fd5b8135610c4881610c06565b9392505050565b634e487b7160e01b600052604160045260246000fd5b604051610140810167ffffffffffffffff81118282101715610c8957610c89610c4f565b60405290565b600082601f830112610ca057600080fd5b60405161014080820182811067ffffffffffffffff82111715610cc557610cc5610c4f565b60405283018185821115610cd857600080fd5b845b82811015610cf2578035825260209182019101610cda565b509195945050505050565b803563ffffffff81168114610c2657600080fd5b80358015158114610c2657600080fd5b60006102608284031215610d3457600080fd5b610d3c610c65565b610d4583610c1b565b8152610d5360208401610c1b565b6020820152610d6460408401610c1b565b60408201526060830135606082015260808301356080820152610d8a8460a08501610c8f565b60a0820152610d9c6101e08401610cfd565b60c0820152610dae6102008401610d11565b60e0820152610dc06102208401610d11565b610100820152610dd36102408401610d11565b6101208201529392505050565b6020808252601590820152741d1a194819d85d195c881a5cdb9bdd08195e1a5cdd605a1b604082015260600190565b6020808252601490820152733a34329033b0ba32b91034b99032bc34b9ba32b960611b60408201526060019056fea2646970667358221220fded6be24eb716ceca67e411b389f7b94383ee9f70ff8372847f67af387c8c2c64736f6c634300080f0033",
    "sourcePath": "/Users/admin/Documents/gitworkplace/ttswap_core/ttswap_core/Contracts/MoonV1Gater.sol",
    "compiler": {
        "name": "solc",
        "version": "0.8.15+commit.e14f2714"
    },
    "functionHashes": {
        "addGater((address,address,uint160,bytes32,bytes32,bytes32[10],uint32,bool,bool,bool))": "d8feb7ff",
        "delGatebyMarketor(address)": "b614984d",
        "delMarketManager(address)": "2b890543",
        "gateList(address)": "45df4987",
        "isValidGater()": "ab3acb5c",
        "ismarketManager()": "1487f252",
        "lockGatebyGater()": "3bbae141",
        "lockGatebyMarketor(address)": "a4786088",
        "marketCreator()": "27cbaabe",
        "marketManagers(address)": "753c5188",
        "setMarketManager(address)": "d82aff11",
        "unlockGatebyGater()": "f1c9f40f",
        "unlockGatebyMarketor(address)": "76941300",
        "updateGatebyGator((address,address,uint160,bytes32,bytes32,bytes32[10],uint32,bool,bool,bool))": "f3a42537",
        "updateGatebyMarketor((address,address,uint160,bytes32,bytes32,bytes32[10],uint32,bool,bool,bool))": "71271f4d"
    },
    "gasEstimates": {
        "creation": {
            "codeDepositCost": "739800",
            "executionCost": "infinite",
            "totalCost": "infinite"
        },
        "external": {
            "addGater((address,address,uint160,bytes32,bytes32,bytes32[10],uint32,bool,bool,bool))": "infinite",
            "delGatebyMarketor(address)": "infinite",
            "delMarketManager(address)": "infinite",
            "gateList(address)": "13481",
            "isValidGater()": "2454",
            "ismarketManager()": "2374",
            "lockGatebyGater()": "31155",
            "lockGatebyMarketor(address)": "29121",
            "marketCreator()": "infinite",
            "marketManagers(address)": "2603",
            "setMarketManager(address)": "infinite",
            "unlockGatebyGater()": "31186",
            "unlockGatebyMarketor(address)": "29087",
            "updateGatebyGator((address,address,uint160,bytes32,bytes32,bytes32[10],uint32,bool,bool,bool))": "infinite",
            "updateGatebyMarketor((address,address,uint160,bytes32,bytes32,bytes32[10],uint32,bool,bool,bool))": "infinite"
        }
    }
}