{
    "contractName": "TTSwapV1Coin",
    "abi": [
        {
            "inputs": [
                {
                    "internalType": "address",
                    "name": "_gatorContractAddress",
                    "type": "address"
                },
                {
                    "internalType": "address",
                    "name": "_marketorContractAddress",
                    "type": "address"
                }
            ],
            "stateMutability": "nonpayable",
            "type": "constructor"
        },
        {
            "inputs": [
                {
                    "components": [
                        {
                            "internalType": "bytes32",
                            "name": "coinFullName",
                            "type": "bytes32"
                        },
                        {
                            "internalType": "bytes6",
                            "name": "symbol",
                            "type": "bytes6"
                        },
                        {
                            "internalType": "uint8",
                            "name": "scope",
                            "type": "uint8"
                        },
                        {
                            "internalType": "uint8",
                            "name": "decimals",
                            "type": "uint8"
                        },
                        {
                            "internalType": "uint256",
                            "name": "maxSupply",
                            "type": "uint256"
                        },
                        {
                            "internalType": "uint256",
                            "name": "totalSupply",
                            "type": "uint256"
                        },
                        {
                            "internalType": "address",
                            "name": "contractAddress",
                            "type": "address"
                        },
                        {
                            "internalType": "bytes32",
                            "name": "WhitePaperUrl",
                            "type": "bytes32"
                        },
                        {
                            "internalType": "bytes32",
                            "name": "OfficalWebsite",
                            "type": "bytes32"
                        },
                        {
                            "internalType": "bytes32",
                            "name": "blockExplorerUrl",
                            "type": "bytes32"
                        },
                        {
                            "internalType": "bool",
                            "name": "marketunlock",
                            "type": "bool"
                        },
                        {
                            "internalType": "bool",
                            "name": "unlock",
                            "type": "bool"
                        },
                        {
                            "internalType": "address",
                            "name": "creator",
                            "type": "address"
                        },
                        {
                            "internalType": "bool",
                            "name": "isUsed",
                            "type": "bool"
                        }
                    ],
                    "internalType": "struct LCoin.Info",
                    "name": "_coinInfo",
                    "type": "tuple"
                }
            ],
            "name": "addCoinbyGator",
            "outputs": [],
            "stateMutability": "nonpayable",
            "type": "function"
        },
        {
            "inputs": [
                {
                    "components": [
                        {
                            "internalType": "bytes32",
                            "name": "coinFullName",
                            "type": "bytes32"
                        },
                        {
                            "internalType": "bytes6",
                            "name": "symbol",
                            "type": "bytes6"
                        },
                        {
                            "internalType": "uint8",
                            "name": "scope",
                            "type": "uint8"
                        },
                        {
                            "internalType": "uint8",
                            "name": "decimals",
                            "type": "uint8"
                        },
                        {
                            "internalType": "uint256",
                            "name": "maxSupply",
                            "type": "uint256"
                        },
                        {
                            "internalType": "uint256",
                            "name": "totalSupply",
                            "type": "uint256"
                        },
                        {
                            "internalType": "address",
                            "name": "contractAddress",
                            "type": "address"
                        },
                        {
                            "internalType": "bytes32",
                            "name": "WhitePaperUrl",
                            "type": "bytes32"
                        },
                        {
                            "internalType": "bytes32",
                            "name": "OfficalWebsite",
                            "type": "bytes32"
                        },
                        {
                            "internalType": "bytes32",
                            "name": "blockExplorerUrl",
                            "type": "bytes32"
                        },
                        {
                            "internalType": "bool",
                            "name": "marketunlock",
                            "type": "bool"
                        },
                        {
                            "internalType": "bool",
                            "name": "unlock",
                            "type": "bool"
                        },
                        {
                            "internalType": "address",
                            "name": "creator",
                            "type": "address"
                        },
                        {
                            "internalType": "bool",
                            "name": "isUsed",
                            "type": "bool"
                        }
                    ],
                    "internalType": "struct LCoin.Info",
                    "name": "_coinInfo",
                    "type": "tuple"
                }
            ],
            "name": "addCoinbyMarketor",
            "outputs": [],
            "stateMutability": "nonpayable",
            "type": "function"
        },
        {
            "inputs": [
                {
                    "internalType": "address",
                    "name": "_internalCoinAddress",
                    "type": "address"
                },
                {
                    "internalType": "uint8",
                    "name": "_scope",
                    "type": "uint8"
                }
            ],
            "name": "changeCoinScopebyMarketor",
            "outputs": [],
            "stateMutability": "nonpayable",
            "type": "function"
        },
        {
            "inputs": [
                {
                    "internalType": "address",
                    "name": "",
                    "type": "address"
                }
            ],
            "name": "coinList",
            "outputs": [
                {
                    "internalType": "bytes32",
                    "name": "coinFullName",
                    "type": "bytes32"
                },
                {
                    "internalType": "bytes6",
                    "name": "symbol",
                    "type": "bytes6"
                },
                {
                    "internalType": "uint8",
                    "name": "scope",
                    "type": "uint8"
                },
                {
                    "internalType": "uint8",
                    "name": "decimals",
                    "type": "uint8"
                },
                {
                    "internalType": "uint256",
                    "name": "maxSupply",
                    "type": "uint256"
                },
                {
                    "internalType": "uint256",
                    "name": "totalSupply",
                    "type": "uint256"
                },
                {
                    "internalType": "address",
                    "name": "contractAddress",
                    "type": "address"
                },
                {
                    "internalType": "bytes32",
                    "name": "WhitePaperUrl",
                    "type": "bytes32"
                },
                {
                    "internalType": "bytes32",
                    "name": "OfficalWebsite",
                    "type": "bytes32"
                },
                {
                    "internalType": "bytes32",
                    "name": "blockExplorerUrl",
                    "type": "bytes32"
                },
                {
                    "internalType": "bool",
                    "name": "marketunlock",
                    "type": "bool"
                },
                {
                    "internalType": "bool",
                    "name": "unlock",
                    "type": "bool"
                },
                {
                    "internalType": "address",
                    "name": "creator",
                    "type": "address"
                },
                {
                    "internalType": "bool",
                    "name": "isUsed",
                    "type": "bool"
                }
            ],
            "stateMutability": "view",
            "type": "function"
        },
        {
            "inputs": [
                {
                    "internalType": "address",
                    "name": "_contractaddress",
                    "type": "address"
                }
            ],
            "name": "delCoinbyMarketor",
            "outputs": [],
            "stateMutability": "nonpayable",
            "type": "function"
        },
        {
            "inputs": [
                {
                    "internalType": "address",
                    "name": "_contractaddress",
                    "type": "address"
                },
                {
                    "internalType": "address",
                    "name": "_gateaddress",
                    "type": "address"
                }
            ],
            "name": "delGateCoinbyMarketor",
            "outputs": [],
            "stateMutability": "nonpayable",
            "type": "function"
        },
        {
            "inputs": [
                {
                    "internalType": "address",
                    "name": "",
                    "type": "address"
                },
                {
                    "internalType": "address",
                    "name": "",
                    "type": "address"
                }
            ],
            "name": "gateCoinList",
            "outputs": [
                {
                    "internalType": "address",
                    "name": "",
                    "type": "address"
                }
            ],
            "stateMutability": "view",
            "type": "function"
        },
        {
            "inputs": [],
            "name": "gatorContractAddress",
            "outputs": [
                {
                    "internalType": "address",
                    "name": "",
                    "type": "address"
                }
            ],
            "stateMutability": "view",
            "type": "function"
        },
        {
            "inputs": [
                {
                    "internalType": "address",
                    "name": "_contractaddress",
                    "type": "address"
                }
            ],
            "name": "getCoinInfo",
            "outputs": [
                {
                    "components": [
                        {
                            "internalType": "bytes32",
                            "name": "coinFullName",
                            "type": "bytes32"
                        },
                        {
                            "internalType": "bytes6",
                            "name": "symbol",
                            "type": "bytes6"
                        },
                        {
                            "internalType": "uint8",
                            "name": "scope",
                            "type": "uint8"
                        },
                        {
                            "internalType": "uint8",
                            "name": "decimals",
                            "type": "uint8"
                        },
                        {
                            "internalType": "uint256",
                            "name": "maxSupply",
                            "type": "uint256"
                        },
                        {
                            "internalType": "uint256",
                            "name": "totalSupply",
                            "type": "uint256"
                        },
                        {
                            "internalType": "address",
                            "name": "contractAddress",
                            "type": "address"
                        },
                        {
                            "internalType": "bytes32",
                            "name": "WhitePaperUrl",
                            "type": "bytes32"
                        },
                        {
                            "internalType": "bytes32",
                            "name": "OfficalWebsite",
                            "type": "bytes32"
                        },
                        {
                            "internalType": "bytes32",
                            "name": "blockExplorerUrl",
                            "type": "bytes32"
                        },
                        {
                            "internalType": "bool",
                            "name": "marketunlock",
                            "type": "bool"
                        },
                        {
                            "internalType": "bool",
                            "name": "unlock",
                            "type": "bool"
                        },
                        {
                            "internalType": "address",
                            "name": "creator",
                            "type": "address"
                        },
                        {
                            "internalType": "bool",
                            "name": "isUsed",
                            "type": "bool"
                        }
                    ],
                    "internalType": "struct LCoin.Info",
                    "name": "",
                    "type": "tuple"
                }
            ],
            "stateMutability": "view",
            "type": "function"
        },
        {
            "inputs": [
                {
                    "internalType": "address",
                    "name": "_contractaddress",
                    "type": "address"
                },
                {
                    "internalType": "address",
                    "name": "_gateaddress",
                    "type": "address"
                }
            ],
            "name": "impoveGateCoinbyMarketor",
            "outputs": [],
            "stateMutability": "nonpayable",
            "type": "function"
        },
        {
            "inputs": [
                {
                    "internalType": "address",
                    "name": "_coinAddress",
                    "type": "address"
                }
            ],
            "name": "isValidCoin",
            "outputs": [
                {
                    "internalType": "bool",
                    "name": "",
                    "type": "bool"
                }
            ],
            "stateMutability": "view",
            "type": "function"
        },
        {
            "inputs": [
                {
                    "internalType": "address",
                    "name": "_internalCoinAddress",
                    "type": "address"
                }
            ],
            "name": "lockCoinbyGator",
            "outputs": [],
            "stateMutability": "nonpayable",
            "type": "function"
        },
        {
            "inputs": [
                {
                    "internalType": "address",
                    "name": "_internalCoinAddress",
                    "type": "address"
                }
            ],
            "name": "lockCoinbyMarketor",
            "outputs": [],
            "stateMutability": "nonpayable",
            "type": "function"
        },
        {
            "inputs": [
                {
                    "internalType": "address",
                    "name": "",
                    "type": "address"
                }
            ],
            "name": "marketCoinList",
            "outputs": [
                {
                    "internalType": "address",
                    "name": "",
                    "type": "address"
                }
            ],
            "stateMutability": "view",
            "type": "function"
        },
        {
            "inputs": [],
            "name": "marketorContractAddress",
            "outputs": [
                {
                    "internalType": "address",
                    "name": "",
                    "type": "address"
                }
            ],
            "stateMutability": "view",
            "type": "function"
        },
        {
            "inputs": [
                {
                    "internalType": "address",
                    "name": "_internalCoinAddress",
                    "type": "address"
                }
            ],
            "name": "unlockCoinbyGator",
            "outputs": [],
            "stateMutability": "nonpayable",
            "type": "function"
        },
        {
            "inputs": [
                {
                    "internalType": "address",
                    "name": "_internalCoinAddress",
                    "type": "address"
                }
            ],
            "name": "unlockCoinbyMarketor",
            "outputs": [],
            "stateMutability": "nonpayable",
            "type": "function"
        },
        {
            "inputs": [
                {
                    "components": [
                        {
                            "internalType": "bytes32",
                            "name": "coinFullName",
                            "type": "bytes32"
                        },
                        {
                            "internalType": "bytes6",
                            "name": "symbol",
                            "type": "bytes6"
                        },
                        {
                            "internalType": "uint8",
                            "name": "scope",
                            "type": "uint8"
                        },
                        {
                            "internalType": "uint8",
                            "name": "decimals",
                            "type": "uint8"
                        },
                        {
                            "internalType": "uint256",
                            "name": "maxSupply",
                            "type": "uint256"
                        },
                        {
                            "internalType": "uint256",
                            "name": "totalSupply",
                            "type": "uint256"
                        },
                        {
                            "internalType": "address",
                            "name": "contractAddress",
                            "type": "address"
                        },
                        {
                            "internalType": "bytes32",
                            "name": "WhitePaperUrl",
                            "type": "bytes32"
                        },
                        {
                            "internalType": "bytes32",
                            "name": "OfficalWebsite",
                            "type": "bytes32"
                        },
                        {
                            "internalType": "bytes32",
                            "name": "blockExplorerUrl",
                            "type": "bytes32"
                        },
                        {
                            "internalType": "bool",
                            "name": "marketunlock",
                            "type": "bool"
                        },
                        {
                            "internalType": "bool",
                            "name": "unlock",
                            "type": "bool"
                        },
                        {
                            "internalType": "address",
                            "name": "creator",
                            "type": "address"
                        },
                        {
                            "internalType": "bool",
                            "name": "isUsed",
                            "type": "bool"
                        }
                    ],
                    "internalType": "struct LCoin.Info",
                    "name": "_coinInfo",
                    "type": "tuple"
                }
            ],
            "name": "updateCoinbyGator",
            "outputs": [],
            "stateMutability": "nonpayable",
            "type": "function"
        },
        {
            "inputs": [
                {
                    "components": [
                        {
                            "internalType": "bytes32",
                            "name": "coinFullName",
                            "type": "bytes32"
                        },
                        {
                            "internalType": "bytes6",
                            "name": "symbol",
                            "type": "bytes6"
                        },
                        {
                            "internalType": "uint8",
                            "name": "scope",
                            "type": "uint8"
                        },
                        {
                            "internalType": "uint8",
                            "name": "decimals",
                            "type": "uint8"
                        },
                        {
                            "internalType": "uint256",
                            "name": "maxSupply",
                            "type": "uint256"
                        },
                        {
                            "internalType": "uint256",
                            "name": "totalSupply",
                            "type": "uint256"
                        },
                        {
                            "internalType": "address",
                            "name": "contractAddress",
                            "type": "address"
                        },
                        {
                            "internalType": "bytes32",
                            "name": "WhitePaperUrl",
                            "type": "bytes32"
                        },
                        {
                            "internalType": "bytes32",
                            "name": "OfficalWebsite",
                            "type": "bytes32"
                        },
                        {
                            "internalType": "bytes32",
                            "name": "blockExplorerUrl",
                            "type": "bytes32"
                        },
                        {
                            "internalType": "bool",
                            "name": "marketunlock",
                            "type": "bool"
                        },
                        {
                            "internalType": "bool",
                            "name": "unlock",
                            "type": "bool"
                        },
                        {
                            "internalType": "address",
                            "name": "creator",
                            "type": "address"
                        },
                        {
                            "internalType": "bool",
                            "name": "isUsed",
                            "type": "bool"
                        }
                    ],
                    "internalType": "struct LCoin.Info",
                    "name": "_coinInfo",
                    "type": "tuple"
                }
            ],
            "name": "updateCoinbyMarketor",
            "outputs": [],
            "stateMutability": "nonpayable",
            "type": "function"
        }
    ],
    "bytecode": "60c06040523480156200001157600080fd5b5060405162001ecd38038062001ecd833981016040819052620000349162000069565b6001600160a01b039182166080521660a052620000a1565b80516001600160a01b03811681146200006457600080fd5b919050565b600080604083850312156200007d57600080fd5b62000088836200004c565b915062000098602084016200004c565b90509250929050565b60805160a051611db26200011b600039600081816102da015281816103ea0152818161049c015281816108a10152818161096901528181610a530152818161105f0152818161110e015261187d0152600081816102b3015281816106b0015281816107af01528181610de901526114380152611db26000f3fe608060405234801561001057600080fd5b50600436106101215760003560e01c80635385cbf5116100ad578063cc0bf75711610071578063cc0bf7571461035b578063cfcdca521461038f578063e8dd4655146103a2578063e911abec146103c2578063eaec0112146103d557600080fd5b80635385cbf5146102fc5780637c3e2f021461030f57806387a7093814610322578063a935b6af14610335578063b20be2b41461034857600080fd5b8063385e4b7a116100f4578063385e4b7a146102475780633b8303051461025a578063441eb5481461029b57806347d0a634146102ae578063492b7107146102d557600080fd5b80631d3b8f671461012657806324fd71391461013b57806331ecdeb81461014e578063328320bf14610208575b600080fd5b61013961013436600461199f565b6103e8565b005b610139610149366004611a3b565b61049a565b6101e561015c36600461199f565b6002602081905260009182526040909120805460018201549282015460038301546004840154600585015460068601546007870154600890970154959760d081901b9760ff600160301b8304811698600160381b90930481169796956001600160a01b039081169594938083169261010082048116926201000083041691600160b01b9004168e565b6040516101ff9e9d9c9b9a99989796959493929190611b21565b60405180910390f35b61023761021636600461199f565b6001600160a01b031660009081526002602052604090206008015460ff1690565b60405190151581526020016101ff565b61013961025536600461199f565b6106ae565b61028361026836600461199f565b6000602081905290815260409020546001600160a01b031681565b6040516001600160a01b0390911681526020016101ff565b6101396102a936600461199f565b6107ad565b6102837f000000000000000000000000000000000000000000000000000000000000000081565b6102837f000000000000000000000000000000000000000000000000000000000000000081565b61013961030a366004611bc1565b61089f565b61013961031d36600461199f565b610967565b610139610330366004611a3b565b610a51565b610139610343366004611a3b565b610de7565b61013961035636600461199f565b61105d565b610283610369366004611bf4565b60016020908152600092835260408084209091529082529020546001600160a01b031681565b61013961039d366004611bf4565b61110c565b6103b56103b036600461199f565b611294565b6040516101ff9190611c1e565b6101396103d0366004611a3b565b611436565b6101396103e3366004611bf4565b61187b565b7f00000000000000000000000000000000000000000000000000000000000000006001600160a01b031663ad87d2ba6040518163ffffffff1660e01b8152600401602060405180830381865afa158015610446573d6000803e3d6000fd5b505050506040513d601f19601f8201168201806040525081019061046a9190611cff565b61047357600080fd5b6001600160a01b03166000908152600260205260409020600801805460ff19166001179055565b7f00000000000000000000000000000000000000000000000000000000000000006001600160a01b031663ad87d2ba6040518163ffffffff1660e01b8152600401602060405180830381865afa1580156104f8573d6000803e3d6000fd5b505050506040513d601f19601f8201168201806040525081019061051c9190611cff565b61052557600080fd5b60c08101516001600160a01b039081166000908152602081905260409020541661054e57600080fd5b60006101408201818152610160830182815260016101a0850181815260c0860180516001600160a01b039081168752600260208181526040808a20600890810154620100009081900486166101808e01908152875187168d528585529b8390208d518155938d01519884018054938e015160608f015160d09b909b1c66ffffffffffffff1990951694909417600160301b60ff958616021760ff60381b1916600160381b94909a16939093029890981790915560808b01519282019290925560a08a0151600382015592516004840180546001600160a01b03191691841691909117905560e08901516005840155610100808a01516006850155610120909901516007840155955191909501805494519651925161ffff1990951691151561ff001916919091179515159096029490941762010000600160b81b0319169390921690910260ff60b01b191691909117600160b01b91151591909102179055565b7f00000000000000000000000000000000000000000000000000000000000000006001600160a01b03166354a460f66040518163ffffffff1660e01b8152600401602060405180830381865afa15801561070c573d6000803e3d6000fd5b505050506040513d601f19601f820116820180604052508101906107309190611cff565b61073957600080fd5b6001600160a01b038181166000908152600260205260409020600801546201000090041633146107845760405162461bcd60e51b815260040161077b90611d1c565b60405180910390fd5b6001600160a01b03166000908152600260205260409020600801805461ff001916610100179055565b7f00000000000000000000000000000000000000000000000000000000000000006001600160a01b03166354a460f66040518163ffffffff1660e01b8152600401602060405180830381865afa15801561080b573d6000803e3d6000fd5b505050506040513d601f19601f8201168201806040525081019061082f9190611cff565b61083857600080fd5b6001600160a01b0381811660009081526002602052604090206008015462010000900416331461087a5760405162461bcd60e51b815260040161077b90611d1c565b6001600160a01b03166000908152600260205260409020600801805461ff0019169055565b7f00000000000000000000000000000000000000000000000000000000000000006001600160a01b031663ad87d2ba6040518163ffffffff1660e01b8152600401602060405180830381865afa1580156108fd573d6000803e3d6000fd5b505050506040513d601f19601f820116820180604052508101906109219190611cff565b61092a57600080fd5b6001600160a01b039091166000908152600260205260409020600101805460ff909216600160301b0266ff00000000000019909216919091179055565b7f00000000000000000000000000000000000000000000000000000000000000006001600160a01b031663ad87d2ba6040518163ffffffff1660e01b8152600401602060405180830381865afa1580156109c5573d6000803e3d6000fd5b505050506040513d601f19601f820116820180604052508101906109e99190611cff565b6109f257600080fd5b6001600160a01b038181166000908152602081905260409020541615610a2a5760405162461bcd60e51b815260040161077b90611d4c565b6001600160a01b0316600090815260208190526040902080546001600160a01b0319169055565b7f00000000000000000000000000000000000000000000000000000000000000006001600160a01b031663ad87d2ba6040518163ffffffff1660e01b8152600401602060405180830381865afa158015610aaf573d6000803e3d6000fd5b505050506040513d601f19601f82011682018060405250810190610ad39190611cff565b610adc57600080fd5b60c08101516001600160a01b0316600090815260026020526040902060080154600160b01b900460ff161515600114610d4957338161018001906001600160a01b031690816001600160a01b0316815250506000816101400190151590811515815250506000816101600190151590811515815250506001816101a001901515908115158152505080600260008360c001516001600160a01b03166001600160a01b031681526020019081526020016000206000820151816000015560208201518160010160006101000a81548165ffffffffffff021916908360d01c021790555060408201518160010160066101000a81548160ff021916908360ff16021790555060608201518160010160076101000a81548160ff021916908360ff1602179055506080820151816002015560a0820151816003015560c08201518160040160006101000a8154816001600160a01b0302191690836001600160a01b0316021790555060e08201518160050155610100820151816006015561012082015181600701556101408201518160080160006101000a81548160ff0219169083151502179055506101608201518160080160016101000a81548160ff0219169083151502179055506101808201518160080160026101000a8154816001600160a01b0302191690836001600160a01b031602179055506101a08201518160080160166101000a81548160ff0219169083151502179055509050508060c001516000808360c001516001600160a01b03166001600160a01b0316815260200190815260200160002060006101000a8154816001600160a01b0302191690836001600160a01b0316021790555050565b60c08101516001600160a01b039081166000908152602081905260409020541615610db65760405162461bcd60e51b815260206004820152601d60248201527f74686520636f696e2065786973747320696e20746865206d61726b6574000000604482015260640161077b565b60c08101516001600160a01b0316600081815260208190526040902080546001600160a01b03191690911790555b50565b7f00000000000000000000000000000000000000000000000000000000000000006001600160a01b03166354a460f66040518163ffffffff1660e01b8152600401602060405180830381865afa158015610e45573d6000803e3d6000fd5b505050506040513d601f19601f82011682018060405250810190610e699190611cff565b610e7257600080fd5b60c08101516001600160a01b03908116600090815260026020526040902060080154620100009004163314610eb95760405162461bcd60e51b815260040161077b90611d1c565b806040015160ff16600414610f105760405162461bcd60e51b815260206004820181905260248201527f74686520636f696e2073636f7065206973206e6f74206a757374696669656420604482015260640161077b565b60006101408201818152610160830182815260016101a0850181815233610180870190815260c0870180516001600160a01b039081168852600260208181526040998a90208b518155908b015196810180549a8c015160608d015160d09990991c66ffffffffffffff19909c169b909b17600160301b60ff9c8d16021760ff60381b1916600160381b9b9098169a909a029690961790985560808901519785019790975560a08801516003850155516004840180546001600160a01b03191691881691909117905560e0870151600584015561010080880151600685015561012090970151600784015593516008909201805493519451915161ffff1990941692151561ff001916929092179315159095029290921762010000600160b81b03191662010000949093169390930260ff60b01b191691909117600160b01b92151592909202919091179055565b7f00000000000000000000000000000000000000000000000000000000000000006001600160a01b031663ad87d2ba6040518163ffffffff1660e01b8152600401602060405180830381865afa1580156110bb573d6000803e3d6000fd5b505050506040513d601f19601f820116820180604052508101906110df9190611cff565b6110e857600080fd5b6001600160a01b03166000908152600260205260409020600801805460ff19169055565b7f00000000000000000000000000000000000000000000000000000000000000006001600160a01b031663ad87d2ba6040518163ffffffff1660e01b8152600401602060405180830381865afa15801561116a573d6000803e3d6000fd5b505050506040513d601f19601f8201168201806040525081019061118e9190611cff565b61119757600080fd5b6001600160a01b0381811660009081526001602090815260408083208685168452909152902054166111db5760405162461bcd60e51b815260040161077b90611d4c565b6001600160a01b0382811660009081526020819052604090205416156112435760405162461bcd60e51b815260206004820152601d60248201527f74686520636f696e206973202065786973747320696e206d61726b6574000000604482015260640161077b565b6001600160a01b03908116600090815260016020908152604080832094841683528482528083208054848452919093208054919094166001600160a01b031991821617909355929092528154169055565b604080516101c081018252600080825260208201819052918101829052606081018290526080810182905260a0810182905260c0810182905260e08101829052610100810182905261012081018290526101408101829052610160810182905261018081018290526101a08101919091526001600160a01b038216600090815260026020526040902060080154600160b01b900460ff16151560011461134c5760405162461bcd60e51b815260040161077b90611d4c565b506001600160a01b0390811660009081526002602081815260409283902083516101c0810185528154815260018201546001600160d01b031960d082901b169382019390935260ff600160301b8404811695820195909552600160381b90920484166060830152918201546080820152600382015460a08201526004820154841660c0820152600582015460e08201526006820154610100808301919091526007830154610120830152600890920154808416151561014083015291820483161515610160820152620100008204909316610180840152600160b01b90041615156101a082015290565b7f00000000000000000000000000000000000000000000000000000000000000006001600160a01b03166354a460f66040518163ffffffff1660e01b8152600401602060405180830381865afa158015611494573d6000803e3d6000fd5b505050506040513d601f19601f820116820180604052508101906114b89190611cff565b6114c157600080fd5b60c08101516001600160a01b0316600090815260026020526040902060080154600160b01b900460ff16151560011461175257338161018001906001600160a01b031690816001600160a01b0316815250506000816101400190151590811515815250506000816101600190151590811515815250506001816101a001901515908115158152505080600260008360c001516001600160a01b03166001600160a01b031681526020019081526020016000206000820151816000015560208201518160010160006101000a81548165ffffffffffff021916908360d01c021790555060408201518160010160066101000a81548160ff021916908360ff16021790555060608201518160010160076101000a81548160ff021916908360ff1602179055506080820151816002015560a0820151816003015560c08201518160040160006101000a8154816001600160a01b0302191690836001600160a01b0316021790555060e08201518160050155610100820151816006015561012082015181600701556101408201518160080160006101000a81548160ff0219169083151502179055506101608201518160080160016101000a81548160ff0219169083151502179055506101808201518160080160026101000a8154816001600160a01b0302191690836001600160a01b031602179055506101a08201518160080160166101000a81548160ff0219169083151502179055509050508060c0015160016000336001600160a01b03166001600160a01b0316815260200190815260200160002060008360c001516001600160a01b03166001600160a01b0316815260200190815260200160002060006101000a8154816001600160a01b0302191690836001600160a01b0316021790555050565b60c08101516001600160a01b0390811660009081526020819052604090205416156117bf5760405162461bcd60e51b815260206004820152601d60248201527f74686520636f696e2065786973747320696e20746865206d61726b6574000000604482015260640161077b565b33600090815260016020908152604080832060c08501516001600160a01b03908116855292529091205416156118375760405162461bcd60e51b815260206004820152601b60248201527f74686520636f696e2065786973747320696e2074686520676174650000000000604482015260640161077b565b60c001805133600090815260016020908152604080832094516001600160a01b03908116845294909152902080546001600160a01b03191692909116919091179055565b7f00000000000000000000000000000000000000000000000000000000000000006001600160a01b031663ad87d2ba6040518163ffffffff1660e01b8152600401602060405180830381865afa1580156118d9573d6000803e3d6000fd5b505050506040513d601f19601f820116820180604052508101906118fd9190611cff565b61190657600080fd5b6001600160a01b0381811660009081526001602090815260408083208685168452909152902054161561194b5760405162461bcd60e51b815260040161077b90611d4c565b6001600160a01b03908116600090815260016020908152604080832094909316825292909252902080546001600160a01b0319169055565b80356001600160a01b038116811461199a57600080fd5b919050565b6000602082840312156119b157600080fd5b6119ba82611983565b9392505050565b6040516101c0810167ffffffffffffffff811182821017156119f357634e487b7160e01b600052604160045260246000fd5b60405290565b80356001600160d01b03198116811461199a57600080fd5b803560ff8116811461199a57600080fd5b8015158114610de457600080fd5b803561199a81611a22565b60006101c08284031215611a4e57600080fd5b611a566119c1565b82358152611a66602084016119f9565b6020820152611a7760408401611a11565b6040820152611a8860608401611a11565b60608201526080830135608082015260a083013560a0820152611aad60c08401611983565b60c082015260e0838101359082015261010080840135908201526101208084013590820152610140611ae0818501611a30565b90820152610160611af2848201611a30565b90820152610180611b04848201611983565b908201526101a0611b16848201611a30565b908201529392505050565b8e81526001600160d01b03198e16602082015260ff8d811660408301528c1660608201526101c081018b60808301528a60a0830152611b6b60c083018b6001600160a01b03169052565b8860e08301528761010083015286610120830152611b8e61014083018715159052565b9315156101608201526001600160a01b039290921661018083015215156101a0909101529b9a5050505050505050505050565b60008060408385031215611bd457600080fd5b611bdd83611983565b9150611beb60208401611a11565b90509250929050565b60008060408385031215611c0757600080fd5b611c1083611983565b9150611beb60208401611983565b815181526020808301516101c0830191611c43908401826001600160d01b0319169052565b506040830151611c58604084018260ff169052565b506060830151611c6d606084018260ff169052565b506080830151608083015260a083015160a083015260c0830151611c9c60c08401826001600160a01b03169052565b5060e08381015190830152610100808401519083015261012080840151908301526101408084015115159083015261016080840151151590830152610180808401516001600160a01b0316908301526101a0928301511515929091019190915290565b600060208284031215611d1157600080fd5b81516119ba81611a22565b6020808252601690820152751e5bdd481a185d99481b9bdd081d1a19481c9a59da1d60521b604082015260600190565b60208082526016908201527574686520636f696e206973206e6f742065786973747360501b60408201526060019056fea264697066735822122035b9334db9c124c1b5046f2bdd27d54dd0a39a2b379402ebda0ac95d0bda26e564736f6c634300080f0033",
    "sourcePath": "/Users/admin/Documents/gitworkplace/ttswap_core/ttswap_core/Contracts/TTSwapV1Coin.sol",
    "compiler": {
        "name": "solc",
        "version": "0.8.15+commit.e14f2714"
    },
    "functionHashes": {
        "addCoinbyGator((bytes32,bytes6,uint8,uint8,uint256,uint256,address,bytes32,bytes32,bytes32,bool,bool,address,bool))": "e911abec",
        "addCoinbyMarketor((bytes32,bytes6,uint8,uint8,uint256,uint256,address,bytes32,bytes32,bytes32,bool,bool,address,bool))": "87a70938",
        "changeCoinScopebyMarketor(address,uint8)": "5385cbf5",
        "coinList(address)": "31ecdeb8",
        "delCoinbyMarketor(address)": "7c3e2f02",
        "delGateCoinbyMarketor(address,address)": "eaec0112",
        "gateCoinList(address,address)": "cc0bf757",
        "gatorContractAddress()": "47d0a634",
        "getCoinInfo(address)": "e8dd4655",
        "impoveGateCoinbyMarketor(address,address)": "cfcdca52",
        "isValidCoin(address)": "328320bf",
        "lockCoinbyGator(address)": "441eb548",
        "lockCoinbyMarketor(address)": "b20be2b4",
        "marketCoinList(address)": "3b830305",
        "marketorContractAddress()": "492b7107",
        "unlockCoinbyGator(address)": "385e4b7a",
        "unlockCoinbyMarketor(address)": "1d3b8f67",
        "updateCoinbyGator((bytes32,bytes6,uint8,uint8,uint256,uint256,address,bytes32,bytes32,bytes32,bool,bool,address,bool))": "a935b6af",
        "updateCoinbyMarketor((bytes32,bytes6,uint8,uint8,uint256,uint256,address,bytes32,bytes32,bytes32,bool,bool,address,bool))": "24fd7139"
    },
    "gasEstimates": {
        "creation": {
            "codeDepositCost": "1520400",
            "executionCost": "infinite",
            "totalCost": "infinite"
        },
        "external": {
            "addCoinbyGator((bytes32,bytes6,uint8,uint8,uint256,uint256,address,bytes32,bytes32,bytes32,bool,bool,address,bool))": "infinite",
            "addCoinbyMarketor((bytes32,bytes6,uint8,uint8,uint256,uint256,address,bytes32,bytes32,bytes32,bool,bool,address,bool))": "infinite",
            "changeCoinScopebyMarketor(address,uint8)": "infinite",
            "coinList(address)": "20106",
            "delCoinbyMarketor(address)": "infinite",
            "delGateCoinbyMarketor(address,address)": "infinite",
            "gateCoinList(address,address)": "infinite",
            "gatorContractAddress()": "infinite",
            "getCoinInfo(address)": "23091",
            "impoveGateCoinbyMarketor(address,address)": "infinite",
            "isValidCoin(address)": "2645",
            "lockCoinbyGator(address)": "infinite",
            "lockCoinbyMarketor(address)": "infinite",
            "marketCoinList(address)": "2606",
            "marketorContractAddress()": "infinite",
            "unlockCoinbyGator(address)": "infinite",
            "unlockCoinbyMarketor(address)": "infinite",
            "updateCoinbyGator((bytes32,bytes6,uint8,uint8,uint256,uint256,address,bytes32,bytes32,bytes32,bool,bool,address,bool))": "infinite",
            "updateCoinbyMarketor((bytes32,bytes6,uint8,uint8,uint256,uint256,address,bytes32,bytes32,bytes32,bool,bool,address,bool))": "infinite"
        }
    }
}