{
    "contractName": "TTSwapV1Market",
    "abi": [
        {
            "inputs": [],
            "stateMutability": "nonpayable",
            "type": "constructor"
        },
        {
            "inputs": [],
            "name": "coinContractAddress",
            "outputs": [
                {
                    "internalType": "address",
                    "name": "",
                    "type": "address"
                }
            ],
            "stateMutability": "view",
            "type": "function"
        },
        {
            "inputs": [
                {
                    "internalType": "address",
                    "name": "_coin",
                    "type": "address"
                },
                {
                    "internalType": "address",
                    "name": "_thing",
                    "type": "address"
                },
                {
                    "internalType": "uint24",
                    "name": "_profit",
                    "type": "uint24"
                }
            ],
            "name": "createShopbyGator",
            "outputs": [
                {
                    "internalType": "address",
                    "name": "shop",
                    "type": "address"
                }
            ],
            "stateMutability": "nonpayable",
            "type": "function"
        },
        {
            "inputs": [
                {
                    "internalType": "address",
                    "name": "_coin",
                    "type": "address"
                },
                {
                    "internalType": "address",
                    "name": "_thing",
                    "type": "address"
                },
                {
                    "internalType": "uint24",
                    "name": "_profit",
                    "type": "uint24"
                }
            ],
            "name": "createShopbyMarketor",
            "outputs": [
                {
                    "internalType": "address",
                    "name": "shop",
                    "type": "address"
                }
            ],
            "stateMutability": "nonpayable",
            "type": "function"
        },
        {
            "inputs": [],
            "name": "customerContractAddress",
            "outputs": [
                {
                    "internalType": "address",
                    "name": "",
                    "type": "address"
                }
            ],
            "stateMutability": "view",
            "type": "function"
        },
        {
            "inputs": [
                {
                    "internalType": "address",
                    "name": "",
                    "type": "address"
                },
                {
                    "internalType": "address",
                    "name": "",
                    "type": "address"
                }
            ],
            "name": "gateShopList",
            "outputs": [
                {
                    "internalType": "bool",
                    "name": "",
                    "type": "bool"
                }
            ],
            "stateMutability": "view",
            "type": "function"
        },
        {
            "inputs": [],
            "name": "gatorContractAddress",
            "outputs": [
                {
                    "internalType": "address",
                    "name": "",
                    "type": "address"
                }
            ],
            "stateMutability": "view",
            "type": "function"
        },
        {
            "inputs": [],
            "name": "marketContractAddress",
            "outputs": [
                {
                    "internalType": "address",
                    "name": "",
                    "type": "address"
                }
            ],
            "stateMutability": "view",
            "type": "function"
        },
        {
            "inputs": [],
            "name": "marketCreator",
            "outputs": [
                {
                    "internalType": "address",
                    "name": "",
                    "type": "address"
                }
            ],
            "stateMutability": "view",
            "type": "function"
        },
        {
            "inputs": [],
            "name": "marketProfitshares",
            "outputs": [
                {
                    "internalType": "uint8",
                    "name": "marketshare",
                    "type": "uint8"
                },
                {
                    "internalType": "uint8",
                    "name": "gatorshare",
                    "type": "uint8"
                },
                {
                    "internalType": "uint8",
                    "name": "commandershare",
                    "type": "uint8"
                },
                {
                    "internalType": "uint8",
                    "name": "usershare",
                    "type": "uint8"
                }
            ],
            "stateMutability": "view",
            "type": "function"
        },
        {
            "inputs": [
                {
                    "internalType": "address",
                    "name": "",
                    "type": "address"
                }
            ],
            "name": "marketShopList",
            "outputs": [
                {
                    "internalType": "bool",
                    "name": "",
                    "type": "bool"
                }
            ],
            "stateMutability": "view",
            "type": "function"
        },
        {
            "inputs": [],
            "name": "marketorContractAddress",
            "outputs": [
                {
                    "internalType": "address",
                    "name": "",
                    "type": "address"
                }
            ],
            "stateMutability": "view",
            "type": "function"
        },
        {
            "inputs": [
                {
                    "internalType": "uint24",
                    "name": "",
                    "type": "uint24"
                }
            ],
            "name": "profitUnitSpacing",
            "outputs": [
                {
                    "internalType": "int24",
                    "name": "",
                    "type": "int24"
                }
            ],
            "stateMutability": "view",
            "type": "function"
        },
        {
            "inputs": [
                {
                    "internalType": "address",
                    "name": "shop",
                    "type": "address"
                }
            ],
            "name": "raiseShopLevelbyMarketor",
            "outputs": [],
            "stateMutability": "nonpayable",
            "type": "function"
        },
        {
            "inputs": [
                {
                    "components": [
                        {
                            "internalType": "uint8",
                            "name": "marketshare",
                            "type": "uint8"
                        },
                        {
                            "internalType": "uint8",
                            "name": "gatorshare",
                            "type": "uint8"
                        },
                        {
                            "internalType": "uint8",
                            "name": "commandershare",
                            "type": "uint8"
                        },
                        {
                            "internalType": "uint8",
                            "name": "usershare",
                            "type": "uint8"
                        }
                    ],
                    "internalType": "struct LProfitShares.Info",
                    "name": "_profitshare",
                    "type": "tuple"
                }
            ],
            "name": "setMarketProfitshare",
            "outputs": [],
            "stateMutability": "nonpayable",
            "type": "function"
        },
        {
            "inputs": [
                {
                    "internalType": "address",
                    "name": "",
                    "type": "address"
                }
            ],
            "name": "shopList",
            "outputs": [
                {
                    "internalType": "address",
                    "name": "Market",
                    "type": "address"
                },
                {
                    "internalType": "address",
                    "name": "coin",
                    "type": "address"
                },
                {
                    "internalType": "address",
                    "name": "thing",
                    "type": "address"
                },
                {
                    "internalType": "uint24",
                    "name": "profit",
                    "type": "uint24"
                },
                {
                    "internalType": "int24",
                    "name": "unitSpacing",
                    "type": "int24"
                },
                {
                    "components": [
                        {
                            "internalType": "uint8",
                            "name": "marketshare",
                            "type": "uint8"
                        },
                        {
                            "internalType": "uint8",
                            "name": "gatorshare",
                            "type": "uint8"
                        },
                        {
                            "internalType": "uint8",
                            "name": "commandershare",
                            "type": "uint8"
                        },
                        {
                            "internalType": "uint8",
                            "name": "usershare",
                            "type": "uint8"
                        }
                    ],
                    "internalType": "struct LProfitShares.Info",
                    "name": "profitshares",
                    "type": "tuple"
                },
                {
                    "internalType": "address",
                    "name": "gater",
                    "type": "address"
                },
                {
                    "internalType": "bool",
                    "name": "isUsed",
                    "type": "bool"
                }
            ],
            "stateMutability": "view",
            "type": "function"
        },
        {
            "inputs": [
                {
                    "internalType": "address",
                    "name": "",
                    "type": "address"
                },
                {
                    "internalType": "address",
                    "name": "",
                    "type": "address"
                }
            ],
            "name": "shopaddress",
            "outputs": [
                {
                    "internalType": "address",
                    "name": "",
                    "type": "address"
                }
            ],
            "stateMutability": "view",
            "type": "function"
        },
        {
            "inputs": [],
            "name": "thingContractAddress",
            "outputs": [
                {
                    "internalType": "address",
                    "name": "",
                    "type": "address"
                }
            ],
            "stateMutability": "view",
            "type": "function"
        }
    ],
    "bytecode": "6101e060405260146101608190526028610180526101a08190526101c0526006805463ffffffff191663141428141790553480156200003d57600080fd5b50306080819052600180546001600160a01b0319163317905560c08190526040805160208101929092526002910160408051601f1981840301815290829052620000879162000663565b602060405180830381855afa158015620000a5573d6000803e3d6000fd5b5050506040513d601f19601f82011682018060405250810190620000ca9190620006a1565b6001546040516001600160a01b0390911690620000e7906200062b565b6001600160a01b0390911681526020018190604051809103906000f590508015801562000118573d6000803e3d6000fd5b506001600160a01b0390811660e05260c051604080519190921660208201526002910160408051601f1981840301815290829052620001579162000663565b602060405180830381855afa15801562000175573d6000803e3d6000fd5b5050506040513d601f19601f820116820180604052508101906200019a9190620006a1565b60e0516001546040516001600160a01b0390911690620001ba9062000639565b6001600160a01b039283168152911660208201526040018190604051809103906000f5905080158015620001f2573d6000803e3d6000fd5b506001600160a01b0390811660a05260c051604080519190921660208201526002910160408051601f1981840301815290829052620002319162000663565b602060405180830381855afa1580156200024f573d6000803e3d6000fd5b5050506040513d601f19601f82011682018060405250810190620002749190620006a1565b60a05160e051604051620002889062000647565b6001600160a01b039283168152911660208201526040018190604051809103906000f5905080158015620002c0573d6000803e3d6000fd5b506001600160a01b039081166101005260c051604080519190921660208201526002910160408051601f1981840301815290829052620003009162000663565b602060405180830381855afa1580156200031e573d6000803e3d6000fd5b5050506040513d601f19601f82011682018060405250810190620003439190620006a1565b60a05160e051604051620003579062000647565b6001600160a01b039283168152911660208201526040018190604051809103906000f59050801580156200038f573d6000803e3d6000fd5b506001600160a01b039081166101205260c051604080519190921660208201526002910160408051601f1981840301815290829052620003cf9162000663565b602060405180830381855afa158015620003ed573d6000803e3d6000fd5b5050506040513d601f19601f82011682018060405250810190620004129190620006a1565b60a05160e051604051620004269062000655565b6001600160a01b039283168152911660208201526040018190604051809103906000f59050801580156200045e573d6000803e3d6000fd5b506001600160a01b03166101405260056020527f641a7e47c832ef1f4ef72e654761ca2c0b592dc5a9de41ec09261efc0afea2be805462ffffff19908116600a179091557fad66b8e7ab72f450ddfdaf1c5bc10e3a3fabf9f63ad8aa07b8743b93722f0a458054821660141790557f85f617656293cf345cffb629940096100b80c9fbd7417ab664df65fbc8ab4ae380548216601e1790557f7a1de661595fed1ebd14726acb09298a08f8300cc62585766e164a3e18fbf85b8054821660281790557fc3d79a02bd3ee16720d1855eec49f931dc5dde1e64a766b70ec224eae96572328054821660321790557f3a717e948a034a525210362a54fff070046b2a47fdce956b6f14d8319a274e7c80548216603c1790557f526b19181003b5c873519ed63635fe97b1329efa2ea6c0dd27b500090f6928478054821660641790557f1293a1011c5379e6b10a449f0b4911f80486710606f0930d8f69c8777d697f4e8054821660c81790557f37eddff2aef6ba0c09113e922b4f0444dc96bd6309797350df0da249aa03846180548216610190179055610bb86000527f920c3c101aeacc47298ad380e56bf5b36d68daf59bb11b6a0e451daf6a70b0428054909116610258179055620006bb565b61026b80620016f983390190565b610fd8806200196483390190565b611ecd806200293c83390190565b611624806200480983390190565b6000825160005b818110156200068657602081860181015185830152016200066a565b8181111562000696576000828501525b509190910192915050565b600060208284031215620006b457600080fd5b5051919050565b60805160a05160c05160e051610100516101205161014051610fc06200073960003960006103120152600081816102eb015261092c0152600081816103e00152610896015260006102c4015260008181610276015281816104db0152610be901526000818161029d015261078d01526000610d2d0152610fc06000f3fe608060405234801561001057600080fd5b506004361061010b5760003560e01c8063492b7107116100a257806368b4a5e61161007157806368b4a5e6146103725780637bde7ed1146103c8578063893d606e146103db578063ac8f1ada14610402578063e0155fb01461042557600080fd5b8063492b7107146102bf5780634bdb8e98146102e657806357f3fd9e1461030d5780635e794c701461033457600080fd5b806327cbaabe116100de57806327cbaabe1461022a5780632e1ac3de1461023d5780633087cbe31461027157806347d0a6341461029857600080fd5b806302ecedfe146101105780630d19f359146101255780631b0582ed146101ec5780631c6fda8014610217575b600080fd5b61012361011e366004610d6f565b61045b565b005b6101cf610133366004610e11565b600460208181526000928352604092839020805460018201546002808401548751608081018952600386015460ff8082168352610100820481169883019890985262010000810488169982019990995263010000009098048616606089015293909501546001600160a01b03928316969183169583851695600160a01b80870462ffffff1696600160b81b900490920b94831692919091041688565b6040516101e3989796959493929190610e2c565b60405180910390f35b6101ff6101fa366004610ed7565b6104cf565b6040516001600160a01b0390911681526020016101e3565b6101ff610225366004610ed7565b610781565b6001546101ff906001600160a01b031681565b6101ff61024b366004610f1a565b60036020908152600092835260408084209091529082529020546001600160a01b031681565b6101ff7f000000000000000000000000000000000000000000000000000000000000000081565b6101ff7f000000000000000000000000000000000000000000000000000000000000000081565b6101ff7f000000000000000000000000000000000000000000000000000000000000000081565b6101ff7f000000000000000000000000000000000000000000000000000000000000000081565b6101ff7f000000000000000000000000000000000000000000000000000000000000000081565b610362610342366004610f1a565b600260209081526000928352604080842090915290825290205460ff1681565b60405190151581526020016101e3565b60065461039b9060ff808216916101008104821691620100008204811691630100000090041684565b6040805160ff958616815293851660208501529184169183019190915290911660608201526080016101e3565b6101236103d6366004610e11565b610be7565b6101ff7f000000000000000000000000000000000000000000000000000000000000000081565b610362610410366004610e11565b60006020819052908152604090205460ff1681565b610448610433366004610f4d565b60056020526000908152604090205460020b81565b60405160029190910b81526020016101e3565b6001546001600160a01b0316331461047257600080fd5b8051600680546020840151604085015160609095015160ff90811663010000000263ff0000001996821662010000029690961663ffff0000199282166101000261ffff199094169190951617919091171691909117919091179055565b60006104d9610d22565b7f00000000000000000000000000000000000000000000000000000000000000006001600160a01b031663ad87d2ba6040518163ffffffff1660e01b8152600401602060405180830381865afa158015610537573d6000803e3d6000fd5b505050506040513d601f19601f8201168201806040525081019061055b9190610f68565b61056457600080fd5b6001600160a01b0384811660009081526003602090815260408083208785168452909152902054161580156105be57506001600160a01b038381166000908152600360209081526040808320888516845290915290205416155b156106b0576001600160a01b03808516600081815260036020818152604080842089871680865290835281852080549888166001600160a01b0319998a16811790915593835281852086865283528185208054891685179055600180548587526004855283872080548b169190991617885587810180549099169096179097556002958601805462ffffff808b16600160a01b81026001600160b81b0319909316909a1791909117808355988652600584528286205416600160b81b0262ffffff60b81b1990981697909717909655338352938452848220908252909252918120805460ff191690921790915561077a565b3360009081526002602090815260408083206001600160a01b03888116855260038452828520888216865284528285205416845290915290205460ff1615156001146107355760405162461bcd60e51b815260206004820152600f60248201526e7468652073686f702065786973747360881b60448201526064015b60405180910390fd5b3360009081526002602090815260408083206001600160a01b0388811685526003845282852088821686528452828520541684529091529020805460ff191660011790555b9392505050565b600061078b610d22565b7f00000000000000000000000000000000000000000000000000000000000000006001600160a01b03166354a460f66040518163ffffffff1660e01b8152600401602060405180830381865afa1580156107e9573d6000803e3d6000fd5b505050506040513d601f19601f8201168201806040525081019061080d9190610f68565b61081657600080fd5b826001600160a01b0316846001600160a01b0316036108775760405162461bcd60e51b815260206004820152601e60248201527f74686520636f696e2069732073616d6520617320746865207468696e67200000604482015260640161072c565b60405163328320bf60e01b81526001600160a01b0385811660048301527f0000000000000000000000000000000000000000000000000000000000000000169063328320bf90602401602060405180830381865afa1580156108dd573d6000803e3d6000fd5b505050506040513d601f19601f820116820180604052508101906109019190610f68565b1515600114801561099d57506040516366d2a34d60e11b81526001600160a01b0384811660048301527f0000000000000000000000000000000000000000000000000000000000000000169063cda5469a90602401602060405180830381865afa158015610973573d6000803e3d6000fd5b505050506040513d601f19601f820116820180604052508101906109979190610f68565b15156001145b6109e95760405162461bcd60e51b815260206004820152601a60248201527f636f696e206f72207468696e67206973206e6f742076616c6964000000000000604482015260640161072c565b6001600160a01b038481166000908152600360209081526040808320878516845290915290205416158015610a4357506001600160a01b038381166000908152600360209081526040808320888516845290915290205416155b15610b2e576001600160a01b03808516600081815260036020818152604080842089871680865290835281852080549888166001600160a01b0319998a16811790915593835281852086865283528185208054891685179055600180548587526004855283872080548b169190991617885587810180549099169096179097556002909501805462ffffff808a16600160a01b81026001600160b81b031990931690991791909117808355978552600583528685205493855292909216600160b81b0262ffffff60b81b1990961695909517905592839052908220805460ff1916909117905561077a565b6001600160a01b03808516600090815260036020908152604080832087851684528252808320549093168252819052205460ff161515600114610ba55760405162461bcd60e51b815260206004820152600f60248201526e7468652073686f702065786973747360881b604482015260640161072c565b6001600160a01b0380851660009081526003602090815260408083208785168452825280832054909316825281905220805460ff191660011790559392505050565b7f00000000000000000000000000000000000000000000000000000000000000006001600160a01b031663ad87d2ba6040518163ffffffff1660e01b8152600401602060405180830381865afa158015610c45573d6000803e3d6000fd5b505050506040513d601f19601f82011682018060405250810190610c699190610f68565b610c7257600080fd5b6001600160a01b038116600090815260046020818152604080842090920154908390529120805460ff1916600160a01b90920460ff1615156001149182179055610cfe5760405162461bcd60e51b815260206004820152601f60248201527f7468652073686f70206e6f742065786973747320696e20746865206761746500604482015260640161072c565b6001600160a01b03166000908152602081905260409020805460ff19166001179055565b306001600160a01b037f00000000000000000000000000000000000000000000000000000000000000001614610d5757600080fd5b565b803560ff81168114610d6a57600080fd5b919050565b600060808284031215610d8157600080fd5b6040516080810181811067ffffffffffffffff82111715610db257634e487b7160e01b600052604160045260246000fd5b604052610dbe83610d59565b8152610dcc60208401610d59565b6020820152610ddd60408401610d59565b6040820152610dee60608401610d59565b60608201529392505050565b80356001600160a01b0381168114610d6a57600080fd5b600060208284031215610e2357600080fd5b61077a82610dfa565b60006101608201905060018060a01b03808b168352808a16602084015280891660408401525062ffffff871660608301528560020b608083015260ff85511660a083015260ff60208601511660c083015260ff60408601511660e083015260ff606086015116610100830152610eae6101208301856001600160a01b03169052565b8215156101408301529998505050505050505050565b803562ffffff81168114610d6a57600080fd5b600080600060608486031215610eec57600080fd5b610ef584610dfa565b9250610f0360208501610dfa565b9150610f1160408501610ec4565b90509250925092565b60008060408385031215610f2d57600080fd5b610f3683610dfa565b9150610f4460208401610dfa565b90509250929050565b600060208284031215610f5f57600080fd5b61077a82610ec4565b600060208284031215610f7a57600080fd5b8151801515811461077a57600080fdfea264697066735822122049dadd526929d1e8247634f3d942f763daeb3b3cac4a064c9fde828c345f3e3864736f6c634300080f0033608060405234801561001057600080fd5b5060405161026b38038061026b83398101604081905261002f91610054565b600180546001600160a01b0319166001600160a01b0392909216919091179055610084565b60006020828403121561006657600080fd5b81516001600160a01b038116811461007d57600080fd5b9392505050565b6101d8806100936000396000f3fe608060405234801561001057600080fd5b50600436106100575760003560e01c806327cbaabe1461005c5780633855cc651461008c5780635bffec62146100bf578063ad87d2ba146100d4578063b4f3824d146100ec575b600080fd5b60015461006f906001600160a01b031681565b6040516001600160a01b0390911681526020015b60405180910390f35b6100af61009a366004610172565b60006020819052908152604090205460ff1681565b6040519015158152602001610083565b6100d26100cd366004610172565b6100ff565b005b3360009081526020819052604090205460ff166100af565b6100d26100fa366004610172565b61013a565b6001546001600160a01b0316331461011657600080fd5b6001600160a01b03166000908152602081905260409020805460ff19166001179055565b6001546001600160a01b0316331461015157600080fd5b6001600160a01b03166000908152602081905260409020805460ff19169055565b60006020828403121561018457600080fd5b81356001600160a01b038116811461019b57600080fd5b939250505056fea2646970667358221220fe20c2cc2093ab311a64947ae138872b526bdce812fb90118d202c4c0844ef3b64736f6c634300080f003360a060405234801561001057600080fd5b50604051610fd8380380610fd883398101604081905261002f91610073565b6001600160a01b03918216608052600180546001600160a01b031916919092161790556100a6565b80516001600160a01b038116811461006e57600080fd5b919050565b6000806040838503121561008657600080fd5b61008f83610057565b915061009d60208401610057565b90509250929050565b608051610efb6100dd600039600081816101d001528181610359015281816105750152818161066f015261076f0152610efb6000f3fe608060405234801561001057600080fd5b50600436106100b45760003560e01c806376941300116100715780637694130014610232578063a478608814610245578063b614984d14610258578063d8feb7ff1461026b578063f1c9f40f1461027e578063f3a425371461028657600080fd5b806327cbaabe146100b95780633bbae141146100e957806345df4987146100f3578063492b7107146101cb57806354a460f6146101f257806371271f4d1461021f575b600080fd5b6001546100cc906001600160a01b031681565b6040516001600160a01b0390911681526020015b60405180910390f35b6100f1610299565b005b61016c610101366004610c8d565b600060208190529081526040902080546001820154600283015460038401546004850154600f909501546001600160a01b0394851695938516949290921692909163ffffffff81169060ff600160201b8204811691600160281b8104821691600160301b9091041689565b604080516001600160a01b039a8b168152988a1660208a015296909816958701959095526060860193909352608085019190915263ffffffff1660a0840152151560c0830152151560e0820152901515610100820152610120016100e0565b6100cc7f000000000000000000000000000000000000000000000000000000000000000081565b336000908152602081905260409020600f0154600160201b900460ff1660405190151581526020016100e0565b6100f161022d366004610d8c565b610357565b6100f1610240366004610c8d565b610573565b6100f1610253366004610c8d565b61066d565b6100f1610266366004610c8d565b61076d565b6100f1610279366004610d8c565b6108ad565b6100f16109e0565b6100f1610294366004610d8c565b610a8f565b336000908152602081905260409020600f0154600160201b900460ff1615156001146102c457600080fd5b336000908152602081905260409020600f0154600160301b900460ff161515600114801561030b5750336000818152602081905260409020600101546001600160a01b0316145b6103305760405162461bcd60e51b815260040161032790610e4b565b60405180910390fd5b336000908152602081905260409020600f01805465ff00000000001916600160281b179055565b7f00000000000000000000000000000000000000000000000000000000000000006001600160a01b031663ad87d2ba6040518163ffffffff1660e01b8152600401602060405180830381865afa1580156103b5573d6000803e3d6000fd5b505050506040513d601f19601f820116820180604052508101906103d99190610e7a565b6103e257600080fd5b6020818101516001600160a01b031660009081529081905260409020600f0154600160301b900460ff16151560011461042d5760405162461bcd60e51b815260040161032790610e97565b602081810180516001600160a01b0390811660009081528084526040808220600f90810154600160201b900460ff908116151560e089015285518516845283875282842090910154600160281b900416151561010087015283518316825293819052839020845181546001600160a01b031990811691841691909117825592516001820180548516918416919091179055928401516002840180549093169116179055606082015160038201556080820151600482015560a08201518291906104fc906005830190600a610c03565b5060c0820151600f909101805460e0840151610100850151610120909501511515600160301b0266ff00000000000019951515600160281b029590951666ffff000000000019911515600160201b0264ffffffffff1990931663ffffffff9095169490941791909117169190911791909117905550565b7f00000000000000000000000000000000000000000000000000000000000000006001600160a01b031663ad87d2ba6040518163ffffffff1660e01b8152600401602060405180830381865afa1580156105d1573d6000803e3d6000fd5b505050506040513d601f19601f820116820180604052508101906105f59190610e7a565b6105fe57600080fd5b6001600160a01b0381166000908152602081905260409020600f0154600160301b900460ff1615156001146106455760405162461bcd60e51b815260040161032790610e4b565b6001600160a01b03166000908152602081905260409020600f01805464ff0000000019169055565b7f00000000000000000000000000000000000000000000000000000000000000006001600160a01b031663ad87d2ba6040518163ffffffff1660e01b8152600401602060405180830381865afa1580156106cb573d6000803e3d6000fd5b505050506040513d601f19601f820116820180604052508101906106ef9190610e7a565b6106f857600080fd5b6001600160a01b0381166000908152602081905260409020600f0154600160301b900460ff16151560011461073f5760405162461bcd60e51b815260040161032790610e4b565b6001600160a01b03166000908152602081905260409020600f01805464ff000000001916600160201b179055565b7f00000000000000000000000000000000000000000000000000000000000000006001600160a01b031663ad87d2ba6040518163ffffffff1660e01b8152600401602060405180830381865afa1580156107cb573d6000803e3d6000fd5b505050506040513d601f19601f820116820180604052508101906107ef9190610e7a565b6107f857600080fd5b6001600160a01b0381166000908152602081905260409020600f0154600160301b900460ff16151560011461083f5760405162461bcd60e51b815260040161032790610e97565b6001600160a01b038116600090815260208190526040812080546001600160a01b031990811682556001820180548216905560028201805490911690556003810182905560048101829055906108986005830182610c41565b50600f01805466ffffffffffffff1916905550565b6020818101516001600160a01b031660009081529081905260409020600f0154600160301b900460ff1615156001036108f85760405162461bcd60e51b815260040161032790610e97565b60208101516001600160a01b031633146109485760405162461bcd60e51b81526020600482015260116024820152703a34329033b0ba37b91034b9903cb7bab960791b6044820152606401610327565b600060e082018190526101008201819052602080830180516001600160a01b03908116845291839052604092839020845181549084166001600160a01b0319918216178255915160018201805491851691841691909117905592840151600284018054919093169116179055606082015160038201556080820151600482015560a08201518291906104fc906005830190600a610c03565b336000908152602081905260409020600f0154600160201b900460ff161515600114610a0b57600080fd5b336000908152602081905260409020600f0154600160301b900460ff1615156001148015610a525750336000818152602081905260409020600101546001600160a01b0316145b610a6e5760405162461bcd60e51b815260040161032790610e4b565b336000908152602081905260409020600f01805465ff000000000019169055565b336000908152602081905260409020600f0154600160201b900460ff161515600114610aba57600080fd5b6020818101516001600160a01b031660009081529081905260409020600f0154600160301b900460ff161515600114610b055760405162461bcd60e51b815260040161032790610e97565b6020808201516001600160a01b03908116600090815291829052604090912060010154163314610b6b5760405162461bcd60e51b81526020600482015260116024820152703a34329033b0ba37b91034b9903cb7bab960791b6044820152606401610327565b600060e0820181905260016101008301819052602080840180516001600160a01b03908116855291849052604093849020855181546001600160a01b03199081169185169190911782559151938101805483169484169490941790935592840151600283018054909416911617909155606082015160038201556080820151600482015560a08201518291906104fc906005830190600a5b82600a8101928215610c31579160200282015b82811115610c31578251825591602001919060010190610c16565b50610c3d929150610c53565b5090565b50610c5090600a810190610c53565b50565b5b80821115610c3d5760008155600101610c54565b6001600160a01b0381168114610c5057600080fd5b8035610c8881610c68565b919050565b600060208284031215610c9f57600080fd5b8135610caa81610c68565b9392505050565b634e487b7160e01b600052604160045260246000fd5b604051610140810167ffffffffffffffff81118282101715610ceb57610ceb610cb1565b60405290565b600082601f830112610d0257600080fd5b60405161014080820182811067ffffffffffffffff82111715610d2757610d27610cb1565b60405283018185821115610d3a57600080fd5b845b82811015610d54578035825260209182019101610d3c565b509195945050505050565b803563ffffffff81168114610c8857600080fd5b8015158114610c5057600080fd5b8035610c8881610d73565b60006102608284031215610d9f57600080fd5b610da7610cc7565b610db083610c7d565b8152610dbe60208401610c7d565b6020820152610dcf60408401610c7d565b60408201526060830135606082015260808301356080820152610df58460a08501610cf1565b60a0820152610e076101e08401610d5f565b60c0820152610e196102008401610d81565b60e0820152610e2b6102208401610d81565b610100820152610e3e6102408401610d81565b6101208201529392505050565b6020808252601590820152741d1a194819d85d1bdc881a5cdb9bdd08195e1a5cdd605a1b604082015260600190565b600060208284031215610e8c57600080fd5b8151610caa81610d73565b6020808252601490820152733a34329033b0ba37b91034b99032bc34b9ba32b960611b60408201526060019056fea26469706673582212204bd99de72783e6927efd9bc477147485c9de4999ddf3e734096beac71238407064736f6c634300080f003360c06040523480156200001157600080fd5b5060405162001ecd38038062001ecd833981016040819052620000349162000069565b6001600160a01b039182166080521660a052620000a1565b80516001600160a01b03811681146200006457600080fd5b919050565b600080604083850312156200007d57600080fd5b62000088836200004c565b915062000098602084016200004c565b90509250929050565b60805160a051611db26200011b600039600081816102da015281816103ea0152818161049c015281816108a10152818161096901528181610a530152818161105f0152818161110e015261187d0152600081816102b3015281816106b0015281816107af01528181610de901526114380152611db26000f3fe608060405234801561001057600080fd5b50600436106101215760003560e01c80635385cbf5116100ad578063cc0bf75711610071578063cc0bf7571461035b578063cfcdca521461038f578063e8dd4655146103a2578063e911abec146103c2578063eaec0112146103d557600080fd5b80635385cbf5146102fc5780637c3e2f021461030f57806387a7093814610322578063a935b6af14610335578063b20be2b41461034857600080fd5b8063385e4b7a116100f4578063385e4b7a146102475780633b8303051461025a578063441eb5481461029b57806347d0a634146102ae578063492b7107146102d557600080fd5b80631d3b8f671461012657806324fd71391461013b57806331ecdeb81461014e578063328320bf14610208575b600080fd5b61013961013436600461199f565b6103e8565b005b610139610149366004611a3b565b61049a565b6101e561015c36600461199f565b6002602081905260009182526040909120805460018201549282015460038301546004840154600585015460068601546007870154600890970154959760d081901b9760ff600160301b8304811698600160381b90930481169796956001600160a01b039081169594938083169261010082048116926201000083041691600160b01b9004168e565b6040516101ff9e9d9c9b9a99989796959493929190611b21565b60405180910390f35b61023761021636600461199f565b6001600160a01b031660009081526002602052604090206008015460ff1690565b60405190151581526020016101ff565b61013961025536600461199f565b6106ae565b61028361026836600461199f565b6000602081905290815260409020546001600160a01b031681565b6040516001600160a01b0390911681526020016101ff565b6101396102a936600461199f565b6107ad565b6102837f000000000000000000000000000000000000000000000000000000000000000081565b6102837f000000000000000000000000000000000000000000000000000000000000000081565b61013961030a366004611bc1565b61089f565b61013961031d36600461199f565b610967565b610139610330366004611a3b565b610a51565b610139610343366004611a3b565b610de7565b61013961035636600461199f565b61105d565b610283610369366004611bf4565b60016020908152600092835260408084209091529082529020546001600160a01b031681565b61013961039d366004611bf4565b61110c565b6103b56103b036600461199f565b611294565b6040516101ff9190611c1e565b6101396103d0366004611a3b565b611436565b6101396103e3366004611bf4565b61187b565b7f00000000000000000000000000000000000000000000000000000000000000006001600160a01b031663ad87d2ba6040518163ffffffff1660e01b8152600401602060405180830381865afa158015610446573d6000803e3d6000fd5b505050506040513d601f19601f8201168201806040525081019061046a9190611cff565b61047357600080fd5b6001600160a01b03166000908152600260205260409020600801805460ff19166001179055565b7f00000000000000000000000000000000000000000000000000000000000000006001600160a01b031663ad87d2ba6040518163ffffffff1660e01b8152600401602060405180830381865afa1580156104f8573d6000803e3d6000fd5b505050506040513d601f19601f8201168201806040525081019061051c9190611cff565b61052557600080fd5b60c08101516001600160a01b039081166000908152602081905260409020541661054e57600080fd5b60006101408201818152610160830182815260016101a0850181815260c0860180516001600160a01b039081168752600260208181526040808a20600890810154620100009081900486166101808e01908152875187168d528585529b8390208d518155938d01519884018054938e015160608f015160d09b909b1c66ffffffffffffff1990951694909417600160301b60ff958616021760ff60381b1916600160381b94909a16939093029890981790915560808b01519282019290925560a08a0151600382015592516004840180546001600160a01b03191691841691909117905560e08901516005840155610100808a01516006850155610120909901516007840155955191909501805494519651925161ffff1990951691151561ff001916919091179515159096029490941762010000600160b81b0319169390921690910260ff60b01b191691909117600160b01b91151591909102179055565b7f00000000000000000000000000000000000000000000000000000000000000006001600160a01b03166354a460f66040518163ffffffff1660e01b8152600401602060405180830381865afa15801561070c573d6000803e3d6000fd5b505050506040513d601f19601f820116820180604052508101906107309190611cff565b61073957600080fd5b6001600160a01b038181166000908152600260205260409020600801546201000090041633146107845760405162461bcd60e51b815260040161077b90611d1c565b60405180910390fd5b6001600160a01b03166000908152600260205260409020600801805461ff001916610100179055565b7f00000000000000000000000000000000000000000000000000000000000000006001600160a01b03166354a460f66040518163ffffffff1660e01b8152600401602060405180830381865afa15801561080b573d6000803e3d6000fd5b505050506040513d601f19601f8201168201806040525081019061082f9190611cff565b61083857600080fd5b6001600160a01b0381811660009081526002602052604090206008015462010000900416331461087a5760405162461bcd60e51b815260040161077b90611d1c565b6001600160a01b03166000908152600260205260409020600801805461ff0019169055565b7f00000000000000000000000000000000000000000000000000000000000000006001600160a01b031663ad87d2ba6040518163ffffffff1660e01b8152600401602060405180830381865afa1580156108fd573d6000803e3d6000fd5b505050506040513d601f19601f820116820180604052508101906109219190611cff565b61092a57600080fd5b6001600160a01b039091166000908152600260205260409020600101805460ff909216600160301b0266ff00000000000019909216919091179055565b7f00000000000000000000000000000000000000000000000000000000000000006001600160a01b031663ad87d2ba6040518163ffffffff1660e01b8152600401602060405180830381865afa1580156109c5573d6000803e3d6000fd5b505050506040513d601f19601f820116820180604052508101906109e99190611cff565b6109f257600080fd5b6001600160a01b038181166000908152602081905260409020541615610a2a5760405162461bcd60e51b815260040161077b90611d4c565b6001600160a01b0316600090815260208190526040902080546001600160a01b0319169055565b7f00000000000000000000000000000000000000000000000000000000000000006001600160a01b031663ad87d2ba6040518163ffffffff1660e01b8152600401602060405180830381865afa158015610aaf573d6000803e3d6000fd5b505050506040513d601f19601f82011682018060405250810190610ad39190611cff565b610adc57600080fd5b60c08101516001600160a01b0316600090815260026020526040902060080154600160b01b900460ff161515600114610d4957338161018001906001600160a01b031690816001600160a01b0316815250506000816101400190151590811515815250506000816101600190151590811515815250506001816101a001901515908115158152505080600260008360c001516001600160a01b03166001600160a01b031681526020019081526020016000206000820151816000015560208201518160010160006101000a81548165ffffffffffff021916908360d01c021790555060408201518160010160066101000a81548160ff021916908360ff16021790555060608201518160010160076101000a81548160ff021916908360ff1602179055506080820151816002015560a0820151816003015560c08201518160040160006101000a8154816001600160a01b0302191690836001600160a01b0316021790555060e08201518160050155610100820151816006015561012082015181600701556101408201518160080160006101000a81548160ff0219169083151502179055506101608201518160080160016101000a81548160ff0219169083151502179055506101808201518160080160026101000a8154816001600160a01b0302191690836001600160a01b031602179055506101a08201518160080160166101000a81548160ff0219169083151502179055509050508060c001516000808360c001516001600160a01b03166001600160a01b0316815260200190815260200160002060006101000a8154816001600160a01b0302191690836001600160a01b0316021790555050565b60c08101516001600160a01b039081166000908152602081905260409020541615610db65760405162461bcd60e51b815260206004820152601d60248201527f74686520636f696e2065786973747320696e20746865206d61726b6574000000604482015260640161077b565b60c08101516001600160a01b0316600081815260208190526040902080546001600160a01b03191690911790555b50565b7f00000000000000000000000000000000000000000000000000000000000000006001600160a01b03166354a460f66040518163ffffffff1660e01b8152600401602060405180830381865afa158015610e45573d6000803e3d6000fd5b505050506040513d601f19601f82011682018060405250810190610e699190611cff565b610e7257600080fd5b60c08101516001600160a01b03908116600090815260026020526040902060080154620100009004163314610eb95760405162461bcd60e51b815260040161077b90611d1c565b806040015160ff16600414610f105760405162461bcd60e51b815260206004820181905260248201527f74686520636f696e2073636f7065206973206e6f74206a757374696669656420604482015260640161077b565b60006101408201818152610160830182815260016101a0850181815233610180870190815260c0870180516001600160a01b039081168852600260208181526040998a90208b518155908b015196810180549a8c015160608d015160d09990991c66ffffffffffffff19909c169b909b17600160301b60ff9c8d16021760ff60381b1916600160381b9b9098169a909a029690961790985560808901519785019790975560a08801516003850155516004840180546001600160a01b03191691881691909117905560e0870151600584015561010080880151600685015561012090970151600784015593516008909201805493519451915161ffff1990941692151561ff001916929092179315159095029290921762010000600160b81b03191662010000949093169390930260ff60b01b191691909117600160b01b92151592909202919091179055565b7f00000000000000000000000000000000000000000000000000000000000000006001600160a01b031663ad87d2ba6040518163ffffffff1660e01b8152600401602060405180830381865afa1580156110bb573d6000803e3d6000fd5b505050506040513d601f19601f820116820180604052508101906110df9190611cff565b6110e857600080fd5b6001600160a01b03166000908152600260205260409020600801805460ff19169055565b7f00000000000000000000000000000000000000000000000000000000000000006001600160a01b031663ad87d2ba6040518163ffffffff1660e01b8152600401602060405180830381865afa15801561116a573d6000803e3d6000fd5b505050506040513d601f19601f8201168201806040525081019061118e9190611cff565b61119757600080fd5b6001600160a01b0381811660009081526001602090815260408083208685168452909152902054166111db5760405162461bcd60e51b815260040161077b90611d4c565b6001600160a01b0382811660009081526020819052604090205416156112435760405162461bcd60e51b815260206004820152601d60248201527f74686520636f696e206973202065786973747320696e206d61726b6574000000604482015260640161077b565b6001600160a01b03908116600090815260016020908152604080832094841683528482528083208054848452919093208054919094166001600160a01b031991821617909355929092528154169055565b604080516101c081018252600080825260208201819052918101829052606081018290526080810182905260a0810182905260c0810182905260e08101829052610100810182905261012081018290526101408101829052610160810182905261018081018290526101a08101919091526001600160a01b038216600090815260026020526040902060080154600160b01b900460ff16151560011461134c5760405162461bcd60e51b815260040161077b90611d4c565b506001600160a01b0390811660009081526002602081815260409283902083516101c0810185528154815260018201546001600160d01b031960d082901b169382019390935260ff600160301b8404811695820195909552600160381b90920484166060830152918201546080820152600382015460a08201526004820154841660c0820152600582015460e08201526006820154610100808301919091526007830154610120830152600890920154808416151561014083015291820483161515610160820152620100008204909316610180840152600160b01b90041615156101a082015290565b7f00000000000000000000000000000000000000000000000000000000000000006001600160a01b03166354a460f66040518163ffffffff1660e01b8152600401602060405180830381865afa158015611494573d6000803e3d6000fd5b505050506040513d601f19601f820116820180604052508101906114b89190611cff565b6114c157600080fd5b60c08101516001600160a01b0316600090815260026020526040902060080154600160b01b900460ff16151560011461175257338161018001906001600160a01b031690816001600160a01b0316815250506000816101400190151590811515815250506000816101600190151590811515815250506001816101a001901515908115158152505080600260008360c001516001600160a01b03166001600160a01b031681526020019081526020016000206000820151816000015560208201518160010160006101000a81548165ffffffffffff021916908360d01c021790555060408201518160010160066101000a81548160ff021916908360ff16021790555060608201518160010160076101000a81548160ff021916908360ff1602179055506080820151816002015560a0820151816003015560c08201518160040160006101000a8154816001600160a01b0302191690836001600160a01b0316021790555060e08201518160050155610100820151816006015561012082015181600701556101408201518160080160006101000a81548160ff0219169083151502179055506101608201518160080160016101000a81548160ff0219169083151502179055506101808201518160080160026101000a8154816001600160a01b0302191690836001600160a01b031602179055506101a08201518160080160166101000a81548160ff0219169083151502179055509050508060c0015160016000336001600160a01b03166001600160a01b0316815260200190815260200160002060008360c001516001600160a01b03166001600160a01b0316815260200190815260200160002060006101000a8154816001600160a01b0302191690836001600160a01b0316021790555050565b60c08101516001600160a01b0390811660009081526020819052604090205416156117bf5760405162461bcd60e51b815260206004820152601d60248201527f74686520636f696e2065786973747320696e20746865206d61726b6574000000604482015260640161077b565b33600090815260016020908152604080832060c08501516001600160a01b03908116855292529091205416156118375760405162461bcd60e51b815260206004820152601b60248201527f74686520636f696e2065786973747320696e2074686520676174650000000000604482015260640161077b565b60c001805133600090815260016020908152604080832094516001600160a01b03908116845294909152902080546001600160a01b03191692909116919091179055565b7f00000000000000000000000000000000000000000000000000000000000000006001600160a01b031663ad87d2ba6040518163ffffffff1660e01b8152600401602060405180830381865afa1580156118d9573d6000803e3d6000fd5b505050506040513d601f19601f820116820180604052508101906118fd9190611cff565b61190657600080fd5b6001600160a01b0381811660009081526001602090815260408083208685168452909152902054161561194b5760405162461bcd60e51b815260040161077b90611d4c565b6001600160a01b03908116600090815260016020908152604080832094909316825292909252902080546001600160a01b0319169055565b80356001600160a01b038116811461199a57600080fd5b919050565b6000602082840312156119b157600080fd5b6119ba82611983565b9392505050565b6040516101c0810167ffffffffffffffff811182821017156119f357634e487b7160e01b600052604160045260246000fd5b60405290565b80356001600160d01b03198116811461199a57600080fd5b803560ff8116811461199a57600080fd5b8015158114610de457600080fd5b803561199a81611a22565b60006101c08284031215611a4e57600080fd5b611a566119c1565b82358152611a66602084016119f9565b6020820152611a7760408401611a11565b6040820152611a8860608401611a11565b60608201526080830135608082015260a083013560a0820152611aad60c08401611983565b60c082015260e0838101359082015261010080840135908201526101208084013590820152610140611ae0818501611a30565b90820152610160611af2848201611a30565b90820152610180611b04848201611983565b908201526101a0611b16848201611a30565b908201529392505050565b8e81526001600160d01b03198e16602082015260ff8d811660408301528c1660608201526101c081018b60808301528a60a0830152611b6b60c083018b6001600160a01b03169052565b8860e08301528761010083015286610120830152611b8e61014083018715159052565b9315156101608201526001600160a01b039290921661018083015215156101a0909101529b9a5050505050505050505050565b60008060408385031215611bd457600080fd5b611bdd83611983565b9150611beb60208401611a11565b90509250929050565b60008060408385031215611c0757600080fd5b611c1083611983565b9150611beb60208401611983565b815181526020808301516101c0830191611c43908401826001600160d01b0319169052565b506040830151611c58604084018260ff169052565b506060830151611c6d606084018260ff169052565b506080830151608083015260a083015160a083015260c0830151611c9c60c08401826001600160a01b03169052565b5060e08381015190830152610100808401519083015261012080840151908301526101408084015115159083015261016080840151151590830152610180808401516001600160a01b0316908301526101a0928301511515929091019190915290565b600060208284031215611d1157600080fd5b81516119ba81611a22565b6020808252601690820152751e5bdd481a185d99481b9bdd081d1a19481c9a59da1d60521b604082015260600190565b60208082526016908201527574686520636f696e206973206e6f742065786973747360501b60408201526060019056fea264697066735822122035b9334db9c124c1b5046f2bdd27d54dd0a39a2b379402ebda0ac95d0bda26e564736f6c634300080f003360c060405234801561001057600080fd5b5060405161162438038061162483398101604081905261002f91610062565b6001600160a01b039182166080521660a052610095565b80516001600160a01b038116811461005d57600080fd5b919050565b6000806040838503121561007557600080fd5b61007e83610046565b915061008c60208401610046565b90509250929050565b60805160a05161155c6100c860003960008181610205015281816104ae01526108e6015260006101de015261155c6000f3fe608060405234801561001057600080fd5b506004361061012c5760003560e01c80638a6df726116100ad578063e71957b911610071578063e71957b914610369578063e853f9521461037c578063f3c86048146103a2578063f4274bc5146103b5578063fc5f9f181461049957600080fd5b80638a6df726146102b4578063a60832cd146102dc578063bc5c613414610310578063be5fdac814610336578063cb949e511461034957600080fd5b806347d0a634116100f457806347d0a634146101d9578063492b7107146102005780635cfeafa514610227578063781660971461025b5780638370aa81146102a157600080fd5b80630138a6611461013157806314f9e55414610146578063367b6dcc146101595780633b63b647146101855780633e95003c14610198575b600080fd5b61014461013f3660046111c2565b6104ac565b005b610144610154366004611311565b6105ae565b60025461016a9064ffffffffff1681565b60405164ffffffffff90911681526020015b60405180910390f35b61014461019336600461132e565b610786565b6101c16101a6366004611347565b6001602052600090815260409020546001600160a01b031681565b6040516001600160a01b03909116815260200161017c565b6101c17f000000000000000000000000000000000000000000000000000000000000000081565b6101c17f000000000000000000000000000000000000000000000000000000000000000081565b6101c1610235366004611362565b60066020908152600092835260408084209091529082529020546001600160a01b031681565b6102916102693660046111c2565b6001600160a01b0316600090815260208190526040902060030154600160a01b900460ff1690565b604051901515815260200161017c565b6101c16102af366004611362565b6107eb565b6102c76102c23660046111c2565b61086f565b60405163ffffffff909116815260200161017c565b6101c16102ea366004611362565b60046020908152600092835260408084209091529082529020546001600160a01b031681565b6102c761031e3660046111c2565b60056020526000908152604090205463ffffffff1681565b6101446103443660046111c2565b6108e4565b61035c6103573660046111c2565b6109e3565b60405161017c9190611395565b6101c16103773660046111c2565b610b4d565b6102c761038a3660046111c2565b60036020526000908152604090205463ffffffff1681565b6101446103b0366004611347565b610be8565b6104386103c33660046111c2565b6000602081905290815260409020805460018201546002830154600390930154919263ffffffff808316936001600160a01b03640100000000850481169464ffffffffff600160c01b909104169380821693600160a01b9182900416929182169160ff918104821691600160a81b9091041689565b60408051998a5263ffffffff98891660208b01526001600160a01b03978816908a015264ffffffffff90951660608901529285166080880152941660a08601529190921660c0840152151560e083015215156101008201526101200161017c565b6101446104a736600461144e565b610d7c565b7f00000000000000000000000000000000000000000000000000000000000000006001600160a01b031663ad87d2ba6040518163ffffffff1660e01b8152600401602060405180830381865afa15801561050a573d6000803e3d6000fd5b505050506040513d601f19601f8201168201806040525081019061052e919061147b565b61053757600080fd5b6001600160a01b038116600090815260208190526040902060030154600160a01b900460ff1615156001036105875760405162461bcd60e51b815260040161057e90611498565b60405180910390fd5b6001600160a01b03166000908152602081905260409020600301805460ff60a81b19169055565b60c08101516001600160a01b0316600090815260208190526040902060030154600160a01b900460ff1615156001148015906105f6575060c08101516001600160a01b031633145b6106375760405162461bcd60e51b8152602060048201526012602482015271637573746f6d65722069732065786973747360701b604482015260640161057e565b600280546001919060009061065490849064ffffffffff166114de565b825464ffffffffff91821661010093840a9081029083021990911617909255600280548316600090815260016020818152604080842080546001600160a01b031916331790558454871660608a0190815260c08a0180516001600160a01b039081168752868552958390208b518155938b01519484018054938c01519251909916600160c01b0264ffffffffff60c01b19928716640100000000026001600160c01b031994851663ffffffff978816171792909216919091179097556080890151948201805460a08b0151909416600160a01b90810294909216958516959095179290921790935593516003909201805460e088015197909401511515600160a81b0260ff60a81b199715159095026001600160a81b0319909416929091169190911791909117939093161790915550565b33600081815260208190526040902060030180546001600160a01b038116909214600160a01b810260ff60a01b199093169290921790556107d95760405162461bcd60e51b815260040161057e90611498565b33600090815260208190526040902055565b60006001600160a01b03831661083e5760405162461bcd60e51b815260206004820152601860248201527718dd5cdd1bdb595c881859191c995cdcc81a5cc81b9d5b1b60421b604482015260640161057e565b506001600160a01b03918216600090815260046020908152604080832063ffffffff94909416835292905220541690565b60006001600160a01b0382166108c25760405162461bcd60e51b815260206004820152601860248201527718dd5cdd1bdb595c881859191c995cdcc81a5cc81b9d5b1b60421b604482015260640161057e565b506001600160a01b031660009081526003602052604090205463ffffffff1690565b7f00000000000000000000000000000000000000000000000000000000000000006001600160a01b031663ad87d2ba6040518163ffffffff1660e01b8152600401602060405180830381865afa158015610942573d6000803e3d6000fd5b505050506040513d601f19601f82011682018060405250810190610966919061147b565b61096f57600080fd5b6001600160a01b038116600090815260208190526040902060030154600160a01b900460ff1615156001036109b65760405162461bcd60e51b815260040161057e90611498565b6001600160a01b03166000908152602081905260409020600301805460ff60a81b1916600160a81b179055565b6040805161012081018252600080825260208201819052918101829052606081018290526080810182905260a0810182905260c0810182905260e081018290526101008101919091526001600160a01b038216600090815260208190526040902060030154600160a01b900460ff161515600114610a9d5760405162461bcd60e51b815260206004820152601760248201527620437573746f6d6572206973206e6f742065786973747360481b604482015260640161057e565b506001600160a01b039081166000908152602081815260409182902082516101208101845281548152600182015463ffffffff808216948301949094526401000000008104861694820194909452600160c01b90930464ffffffffff16606084015260028101548085166080850152600160a01b9081900490921660a08401526003015492831660c0830152820460ff908116151560e0830152600160a81b909204909116151561010082015290565b6001600160a01b038116600090815260208190526040812060030154600160a01b900460ff161515600114610bbe5760405162461bcd60e51b815260206004820152601760248201527620437573746f6d6572206973206e6f742065786973747360481b604482015260640161057e565b506001600160a01b0390811660009081526020819052604090206001015464010000000090041690565b3360009081526020819052604090206001015464010000000090046001600160a01b031615610c595760405162461bcd60e51b815260206004820152601f60248201527f74686520637573746f6d6572207265636f6d6d656e6465722065786973747300604482015260640161057e565b64ffffffffff81166000908152600160208181526040808420546001600160a01b031680855260039092529092205463ffffffff1610610ce5576001600160a01b0381166000908152600360205260408120805460019290610cc290849063ffffffff16611507565b92506101000a81548163ffffffff021916908363ffffffff160217905550610d0c565b6001600160a01b0381166000908152600360205260409020805463ffffffff191660011790555b6001600160a01b03166000818152600460209081526040808320600383528184205463ffffffff16845282528083208054336001600160a01b0319909116811790915583529082905290206001018054640100000000600160c01b03191664010000000090920291909117905550565b60c08201516001600160a01b0316600090815260208190526040902060030154600160a01b900460ff161515600114801590610dc4575060c08201516001600160a01b031633145b610e055760405162461bcd60e51b8152602060048201526012602482015271637573746f6d65722069732065786973747360701b604482015260640161057e565b6001600160a01b038116600090815260056020526040902054600163ffffffff90911610610e7f576001600160a01b0381166000908152600560205260408120805460019290610e5c90849063ffffffff16611507565b92506101000a81548163ffffffff021916908363ffffffff160217905550610ea6565b6001600160a01b0381166000908152600560205260409020805463ffffffff191660011790555b6001600160a01b0381166080830181905260009081526005602052604081205463ffffffff1660a08401526002805460019290610eeb90849064ffffffffff166114de565b92506101000a81548164ffffffffff021916908364ffffffffff1602179055503360016000600260009054906101000a900464ffffffffff1664ffffffffff1664ffffffffff16815260200190815260200160002060006101000a8154816001600160a01b0302191690836001600160a01b03160217905550600260009054906101000a900464ffffffffff16826060019064ffffffffff16908164ffffffffff1681525050816000808460c001516001600160a01b03166001600160a01b031681526020019081526020016000206000820151816000015560208201518160010160006101000a81548163ffffffff021916908363ffffffff16021790555060408201518160010160046101000a8154816001600160a01b0302191690836001600160a01b0316021790555060608201518160010160186101000a81548164ffffffffff021916908364ffffffffff16021790555060808201518160020160006101000a8154816001600160a01b0302191690836001600160a01b0316021790555060a08201518160020160146101000a81548163ffffffff021916908363ffffffff16021790555060c08201518160030160006101000a8154816001600160a01b0302191690836001600160a01b0316021790555060e08201518160030160146101000a81548160ff0219169083151502179055506101008201518160030160156101000a81548160ff0219169083151502179055509050503360066000836001600160a01b03166001600160a01b03168152602001908152602001600020600060056000856001600160a01b03166001600160a01b0316815260200190815260200160002060009054906101000a900463ffffffff1663ffffffff1663ffffffff16815260200190815260200160002060006101000a8154816001600160a01b0302191690836001600160a01b031602179055505050565b80356001600160a01b03811681146111bd57600080fd5b919050565b6000602082840312156111d457600080fd5b6111dd826111a6565b9392505050565b604051610120810167ffffffffffffffff8111828210171561121657634e487b7160e01b600052604160045260246000fd5b60405290565b803563ffffffff811681146111bd57600080fd5b803564ffffffffff811681146111bd57600080fd5b801515811461125357600080fd5b50565b80356111bd81611245565b6000610120828403121561127457600080fd5b61127c6111e4565b90508135815261128e6020830161121c565b602082015261129f604083016111a6565b60408201526112b060608301611230565b60608201526112c1608083016111a6565b60808201526112d260a0830161121c565b60a08201526112e360c083016111a6565b60c08201526112f460e08301611256565b60e0820152610100611307818401611256565b9082015292915050565b6000610120828403121561132457600080fd5b6111dd8383611261565b60006020828403121561134057600080fd5b5035919050565b60006020828403121561135957600080fd5b6111dd82611230565b6000806040838503121561137557600080fd5b61137e836111a6565b915061138c6020840161121c565b90509250929050565b8151815260208083015163ffffffff16908201526040808301516001600160a01b0316908201526060808301516101208301916113da9084018264ffffffffff169052565b5060808301516113f560808401826001600160a01b03169052565b5060a083015161140d60a084018263ffffffff169052565b5060c083015161142860c08401826001600160a01b03169052565b5060e083015161143c60e084018215159052565b50610100928301511515919092015290565b600080610140838503121561146257600080fd5b61146c8484611261565b915061138c61012084016111a6565b60006020828403121561148d57600080fd5b81516111dd81611245565b602080825260169082015275637573746f6d6572206973206e6f742065786973747360501b604082015260600190565b634e487b7160e01b600052601160045260246000fd5b600064ffffffffff8083168185168083038211156114fe576114fe6114c8565b01949350505050565b600063ffffffff8083168185168083038211156114fe576114fe6114c856fea2646970667358221220bdf0cd1b3b08181c73caeebd9daeacb34c842b6424a92277b97a22db8cf96ce764736f6c634300080f0033",
    "sourcePath": "/Users/admin/Documents/gitworkplace/ttswap_core/ttswap_core/Contracts/TTSwapV1Market.sol",
    "compiler": {
        "name": "solc",
        "version": "0.8.15+commit.e14f2714"
    },
    "functionHashes": {
        "coinContractAddress()": "893d606e",
        "createShopbyGator(address,address,uint24)": "1c6fda80",
        "createShopbyMarketor(address,address,uint24)": "1b0582ed",
        "customerContractAddress()": "57f3fd9e",
        "gateShopList(address,address)": "5e794c70",
        "gatorContractAddress()": "47d0a634",
        "marketContractAddress()": "3087cbe3",
        "marketCreator()": "27cbaabe",
        "marketProfitshares()": "68b4a5e6",
        "marketShopList(address)": "ac8f1ada",
        "marketorContractAddress()": "492b7107",
        "profitUnitSpacing(uint24)": "e0155fb0",
        "raiseShopLevelbyMarketor(address)": "7bde7ed1",
        "setMarketProfitshare((uint8,uint8,uint8,uint8))": "02ecedfe",
        "shopList(address)": "0d19f359",
        "shopaddress(address,address)": "2e1ac3de",
        "thingContractAddress()": "4bdb8e98"
    },
    "gasEstimates": {
        "creation": {
            "codeDepositCost": "806400",
            "executionCost": "infinite",
            "totalCost": "infinite"
        },
        "external": {
            "coinContractAddress()": "infinite",
            "createShopbyGator(address,address,uint24)": "infinite",
            "createShopbyMarketor(address,address,uint24)": "infinite",
            "customerContractAddress()": "infinite",
            "gateShopList(address,address)": "infinite",
            "gatorContractAddress()": "infinite",
            "marketContractAddress()": "infinite",
            "marketCreator()": "2360",
            "marketProfitshares()": "2482",
            "marketShopList(address)": "2622",
            "marketorContractAddress()": "infinite",
            "profitUnitSpacing(uint24)": "2639",
            "raiseShopLevelbyMarketor(address)": "infinite",
            "setMarketProfitshare((uint8,uint8,uint8,uint8))": "infinite",
            "shopList(address)": "11714",
            "shopaddress(address,address)": "infinite",
            "thingContractAddress()": "infinite"
        }
    }
}