{
	"Contracts/MoonV1Customer.sol": {
		"MoonV1Customer": {
			"abi": [
				{
					"inputs": [],
					"stateMutability": "nonpayable",
					"type": "constructor"
				},
				{
					"inputs": [
						{
							"components": [
								{
									"internalType": "bytes32",
									"name": "neckname",
									"type": "bytes32"
								},
								{
									"internalType": "uint32",
									"name": "createtimestamp",
									"type": "uint32"
								},
								{
									"internalType": "address",
									"name": "recommender",
									"type": "address"
								},
								{
									"internalType": "uint40",
									"name": "customerKey",
									"type": "uint40"
								},
								{
									"internalType": "address",
									"name": "Gater",
									"type": "address"
								},
								{
									"internalType": "uint32",
									"name": "GaterKey",
									"type": "uint32"
								},
								{
									"internalType": "address",
									"name": "contractAddress",
									"type": "address"
								},
								{
									"internalType": "bool",
									"name": "isUsed",
									"type": "bool"
								},
								{
									"internalType": "bool",
									"name": "unlock",
									"type": "bool"
								}
							],
							"internalType": "struct LCustomer.Info",
							"name": "_customer",
							"type": "tuple"
						}
					],
					"name": "addCustomer",
					"outputs": [],
					"stateMutability": "nonpayable",
					"type": "function"
				},
				{
					"inputs": [
						{
							"components": [
								{
									"internalType": "bytes32",
									"name": "neckname",
									"type": "bytes32"
								},
								{
									"internalType": "uint32",
									"name": "createtimestamp",
									"type": "uint32"
								},
								{
									"internalType": "address",
									"name": "recommender",
									"type": "address"
								},
								{
									"internalType": "uint40",
									"name": "customerKey",
									"type": "uint40"
								},
								{
									"internalType": "address",
									"name": "Gater",
									"type": "address"
								},
								{
									"internalType": "uint32",
									"name": "GaterKey",
									"type": "uint32"
								},
								{
									"internalType": "address",
									"name": "contractAddress",
									"type": "address"
								},
								{
									"internalType": "bool",
									"name": "isUsed",
									"type": "bool"
								},
								{
									"internalType": "bool",
									"name": "unlock",
									"type": "bool"
								}
							],
							"internalType": "struct LCustomer.Info",
							"name": "_customer",
							"type": "tuple"
						},
						{
							"internalType": "address",
							"name": "_gater",
							"type": "address"
						}
					],
					"name": "addCustomer",
					"outputs": [],
					"stateMutability": "nonpayable",
					"type": "function"
				},
				{
					"inputs": [
						{
							"components": [
								{
									"internalType": "address",
									"name": "market",
									"type": "address"
								},
								{
									"internalType": "address",
									"name": "gateAddress",
									"type": "address"
								},
								{
									"internalType": "uint160",
									"name": "authority",
									"type": "uint160"
								},
								{
									"internalType": "bytes32",
									"name": "name",
									"type": "bytes32"
								},
								{
									"internalType": "bytes32",
									"name": "website",
									"type": "bytes32"
								},
								{
									"internalType": "bytes32[10]",
									"name": "webserverip",
									"type": "bytes32[10]"
								},
								{
									"internalType": "uint32",
									"name": "createtimestamp",
									"type": "uint32"
								},
								{
									"internalType": "bool",
									"name": "marketunlock",
									"type": "bool"
								},
								{
									"internalType": "bool",
									"name": "unlock",
									"type": "bool"
								},
								{
									"internalType": "bool",
									"name": "isUsed",
									"type": "bool"
								}
							],
							"internalType": "struct LGate.Info",
							"name": "_gater",
							"type": "tuple"
						}
					],
					"name": "addGater",
					"outputs": [],
					"stateMutability": "nonpayable",
					"type": "function"
				},
				{
					"inputs": [
						{
							"internalType": "uint40",
							"name": "_recommanderUnikey",
							"type": "uint40"
						}
					],
					"name": "addRelation",
					"outputs": [],
					"stateMutability": "nonpayable",
					"type": "function"
				},
				{
					"inputs": [
						{
							"internalType": "address",
							"name": "",
							"type": "address"
						}
					],
					"name": "customerList",
					"outputs": [
						{
							"internalType": "bytes32",
							"name": "neckname",
							"type": "bytes32"
						},
						{
							"internalType": "uint32",
							"name": "createtimestamp",
							"type": "uint32"
						},
						{
							"internalType": "address",
							"name": "recommender",
							"type": "address"
						},
						{
							"internalType": "uint40",
							"name": "customerKey",
							"type": "uint40"
						},
						{
							"internalType": "address",
							"name": "Gater",
							"type": "address"
						},
						{
							"internalType": "uint32",
							"name": "GaterKey",
							"type": "uint32"
						},
						{
							"internalType": "address",
							"name": "contractAddress",
							"type": "address"
						},
						{
							"internalType": "bool",
							"name": "isUsed",
							"type": "bool"
						},
						{
							"internalType": "bool",
							"name": "unlock",
							"type": "bool"
						}
					],
					"stateMutability": "view",
					"type": "function"
				},
				{
					"inputs": [
						{
							"internalType": "uint40",
							"name": "",
							"type": "uint40"
						}
					],
					"name": "customerUniKey",
					"outputs": [
						{
							"internalType": "address",
							"name": "",
							"type": "address"
						}
					],
					"stateMutability": "view",
					"type": "function"
				},
				{
					"inputs": [],
					"name": "customerUniNextKey",
					"outputs": [
						{
							"internalType": "uint40",
							"name": "",
							"type": "uint40"
						}
					],
					"stateMutability": "view",
					"type": "function"
				},
				{
					"inputs": [
						{
							"internalType": "address",
							"name": "_gater",
							"type": "address"
						}
					],
					"name": "delGatebyMarketor",
					"outputs": [],
					"stateMutability": "nonpayable",
					"type": "function"
				},
				{
					"inputs": [
						{
							"internalType": "address",
							"name": "_owner",
							"type": "address"
						}
					],
					"name": "delMarketManager",
					"outputs": [],
					"stateMutability": "nonpayable",
					"type": "function"
				},
				{
					"inputs": [
						{
							"internalType": "address",
							"name": "",
							"type": "address"
						},
						{
							"internalType": "uint32",
							"name": "",
							"type": "uint32"
						}
					],
					"name": "gateCustomerList",
					"outputs": [
						{
							"internalType": "address",
							"name": "",
							"type": "address"
						}
					],
					"stateMutability": "view",
					"type": "function"
				},
				{
					"inputs": [
						{
							"internalType": "address",
							"name": "",
							"type": "address"
						}
					],
					"name": "gateCustomerNextKey",
					"outputs": [
						{
							"internalType": "uint32",
							"name": "",
							"type": "uint32"
						}
					],
					"stateMutability": "view",
					"type": "function"
				},
				{
					"inputs": [
						{
							"internalType": "address",
							"name": "",
							"type": "address"
						}
					],
					"name": "gateList",
					"outputs": [
						{
							"internalType": "address",
							"name": "market",
							"type": "address"
						},
						{
							"internalType": "address",
							"name": "gateAddress",
							"type": "address"
						},
						{
							"internalType": "uint160",
							"name": "authority",
							"type": "uint160"
						},
						{
							"internalType": "bytes32",
							"name": "name",
							"type": "bytes32"
						},
						{
							"internalType": "bytes32",
							"name": "website",
							"type": "bytes32"
						},
						{
							"internalType": "uint32",
							"name": "createtimestamp",
							"type": "uint32"
						},
						{
							"internalType": "bool",
							"name": "marketunlock",
							"type": "bool"
						},
						{
							"internalType": "bool",
							"name": "unlock",
							"type": "bool"
						},
						{
							"internalType": "bool",
							"name": "isUsed",
							"type": "bool"
						}
					],
					"stateMutability": "view",
					"type": "function"
				},
				{
					"inputs": [
						{
							"internalType": "address",
							"name": "_CustomerAddress",
							"type": "address"
						}
					],
					"name": "getCustomer",
					"outputs": [
						{
							"components": [
								{
									"internalType": "bytes32",
									"name": "neckname",
									"type": "bytes32"
								},
								{
									"internalType": "uint32",
									"name": "createtimestamp",
									"type": "uint32"
								},
								{
									"internalType": "address",
									"name": "recommender",
									"type": "address"
								},
								{
									"internalType": "uint40",
									"name": "customerKey",
									"type": "uint40"
								},
								{
									"internalType": "address",
									"name": "Gater",
									"type": "address"
								},
								{
									"internalType": "uint32",
									"name": "GaterKey",
									"type": "uint32"
								},
								{
									"internalType": "address",
									"name": "contractAddress",
									"type": "address"
								},
								{
									"internalType": "bool",
									"name": "isUsed",
									"type": "bool"
								},
								{
									"internalType": "bool",
									"name": "unlock",
									"type": "bool"
								}
							],
							"internalType": "struct LCustomer.Info",
							"name": "",
							"type": "tuple"
						}
					],
					"stateMutability": "view",
					"type": "function"
				},
				{
					"inputs": [
						{
							"internalType": "address",
							"name": "_recommander",
							"type": "address"
						},
						{
							"internalType": "uint32",
							"name": "_cumstomerindex",
							"type": "uint32"
						}
					],
					"name": "getCustomerInfobyRecommander",
					"outputs": [
						{
							"internalType": "address",
							"name": "",
							"type": "address"
						}
					],
					"stateMutability": "view",
					"type": "function"
				},
				{
					"inputs": [
						{
							"internalType": "address",
							"name": "_recommander",
							"type": "address"
						}
					],
					"name": "getCustomerNumbyRecommander",
					"outputs": [
						{
							"internalType": "uint32",
							"name": "",
							"type": "uint32"
						}
					],
					"stateMutability": "view",
					"type": "function"
				},
				{
					"inputs": [
						{
							"internalType": "address",
							"name": "_customer",
							"type": "address"
						}
					],
					"name": "getCustomerRecommander",
					"outputs": [
						{
							"internalType": "address",
							"name": "",
							"type": "address"
						}
					],
					"stateMutability": "view",
					"type": "function"
				},
				{
					"inputs": [
						{
							"internalType": "address",
							"name": "_CustomerAddress",
							"type": "address"
						}
					],
					"name": "isValidCustomer",
					"outputs": [
						{
							"internalType": "bool",
							"name": "",
							"type": "bool"
						}
					],
					"stateMutability": "view",
					"type": "function"
				},
				{
					"inputs": [],
					"name": "isValidGater",
					"outputs": [
						{
							"internalType": "bool",
							"name": "",
							"type": "bool"
						}
					],
					"stateMutability": "view",
					"type": "function"
				},
				{
					"inputs": [],
					"name": "ismarketManager",
					"outputs": [
						{
							"internalType": "bool",
							"name": "",
							"type": "bool"
						}
					],
					"stateMutability": "view",
					"type": "function"
				},
				{
					"inputs": [
						{
							"internalType": "address",
							"name": "_CustomerAddress",
							"type": "address"
						}
					],
					"name": "lockCustomerbyMarketor",
					"outputs": [],
					"stateMutability": "nonpayable",
					"type": "function"
				},
				{
					"inputs": [],
					"name": "lockGatebyGater",
					"outputs": [],
					"stateMutability": "nonpayable",
					"type": "function"
				},
				{
					"inputs": [
						{
							"internalType": "address",
							"name": "_gateraddress",
							"type": "address"
						}
					],
					"name": "lockGatebyMarketor",
					"outputs": [],
					"stateMutability": "nonpayable",
					"type": "function"
				},
				{
					"inputs": [],
					"name": "marketCreator",
					"outputs": [
						{
							"internalType": "address",
							"name": "",
							"type": "address"
						}
					],
					"stateMutability": "view",
					"type": "function"
				},
				{
					"inputs": [
						{
							"internalType": "address",
							"name": "",
							"type": "address"
						}
					],
					"name": "marketManagers",
					"outputs": [
						{
							"internalType": "bool",
							"name": "",
							"type": "bool"
						}
					],
					"stateMutability": "view",
					"type": "function"
				},
				{
					"inputs": [
						{
							"internalType": "address",
							"name": "",
							"type": "address"
						}
					],
					"name": "recommenderraltionkey",
					"outputs": [
						{
							"internalType": "uint32",
							"name": "",
							"type": "uint32"
						}
					],
					"stateMutability": "view",
					"type": "function"
				},
				{
					"inputs": [
						{
							"internalType": "address",
							"name": "",
							"type": "address"
						},
						{
							"internalType": "uint32",
							"name": "",
							"type": "uint32"
						}
					],
					"name": "recommenderraltionlist",
					"outputs": [
						{
							"internalType": "address",
							"name": "",
							"type": "address"
						}
					],
					"stateMutability": "view",
					"type": "function"
				},
				{
					"inputs": [
						{
							"internalType": "address",
							"name": "_owner",
							"type": "address"
						}
					],
					"name": "setMarketManager",
					"outputs": [],
					"stateMutability": "nonpayable",
					"type": "function"
				},
				{
					"inputs": [
						{
							"internalType": "address",
							"name": "_CustomerAddress",
							"type": "address"
						}
					],
					"name": "unlockCustomerbyMarketor",
					"outputs": [],
					"stateMutability": "nonpayable",
					"type": "function"
				},
				{
					"inputs": [],
					"name": "unlockGatebyGater",
					"outputs": [],
					"stateMutability": "nonpayable",
					"type": "function"
				},
				{
					"inputs": [
						{
							"internalType": "address",
							"name": "_gateraddress",
							"type": "address"
						}
					],
					"name": "unlockGatebyMarketor",
					"outputs": [],
					"stateMutability": "nonpayable",
					"type": "function"
				},
				{
					"inputs": [
						{
							"internalType": "bytes32",
							"name": "_newname",
							"type": "bytes32"
						}
					],
					"name": "updateCustomerNeckName",
					"outputs": [],
					"stateMutability": "nonpayable",
					"type": "function"
				},
				{
					"inputs": [
						{
							"components": [
								{
									"internalType": "address",
									"name": "market",
									"type": "address"
								},
								{
									"internalType": "address",
									"name": "gateAddress",
									"type": "address"
								},
								{
									"internalType": "uint160",
									"name": "authority",
									"type": "uint160"
								},
								{
									"internalType": "bytes32",
									"name": "name",
									"type": "bytes32"
								},
								{
									"internalType": "bytes32",
									"name": "website",
									"type": "bytes32"
								},
								{
									"internalType": "bytes32[10]",
									"name": "webserverip",
									"type": "bytes32[10]"
								},
								{
									"internalType": "uint32",
									"name": "createtimestamp",
									"type": "uint32"
								},
								{
									"internalType": "bool",
									"name": "marketunlock",
									"type": "bool"
								},
								{
									"internalType": "bool",
									"name": "unlock",
									"type": "bool"
								},
								{
									"internalType": "bool",
									"name": "isUsed",
									"type": "bool"
								}
							],
							"internalType": "struct LGate.Info",
							"name": "_gater",
							"type": "tuple"
						}
					],
					"name": "updateGatebyGator",
					"outputs": [],
					"stateMutability": "nonpayable",
					"type": "function"
				},
				{
					"inputs": [
						{
							"components": [
								{
									"internalType": "address",
									"name": "market",
									"type": "address"
								},
								{
									"internalType": "address",
									"name": "gateAddress",
									"type": "address"
								},
								{
									"internalType": "uint160",
									"name": "authority",
									"type": "uint160"
								},
								{
									"internalType": "bytes32",
									"name": "name",
									"type": "bytes32"
								},
								{
									"internalType": "bytes32",
									"name": "website",
									"type": "bytes32"
								},
								{
									"internalType": "bytes32[10]",
									"name": "webserverip",
									"type": "bytes32[10]"
								},
								{
									"internalType": "uint32",
									"name": "createtimestamp",
									"type": "uint32"
								},
								{
									"internalType": "bool",
									"name": "marketunlock",
									"type": "bool"
								},
								{
									"internalType": "bool",
									"name": "unlock",
									"type": "bool"
								},
								{
									"internalType": "bool",
									"name": "isUsed",
									"type": "bool"
								}
							],
							"internalType": "struct LGate.Info",
							"name": "_gater",
							"type": "tuple"
						}
					],
					"name": "updateGatebyMarketor",
					"outputs": [],
					"stateMutability": "nonpayable",
					"type": "function"
				}
			],
			"devdoc": {
				"kind": "dev",
				"methods": {
					"delMarketManager(address)": {
						"details": "Explain to a developer any extra details"
					},
					"ismarketManager()": {
						"details": "Explain to a developer any extra details"
					},
					"setMarketManager(address)": {
						"details": "Explain to a developer any extra details"
					}
				},
				"version": 1
			},
			"evm": {
				"assembly": "    /* \"Contracts/MoonV1Customer.sol\":140:5304  contract MoonV1Customer is MoonV1Gater {... */\n  mstore(0x40, 0xa0)\n    /* \"Contracts/MoonV1Customer.sol\":877:893  constructor() {} */\n  callvalue\n  dup1\n  iszero\n  tag_1\n  jumpi\n  0x00\n  dup1\n  revert\ntag_1:\n  pop\n    /* \"Contracts/MoonV1Manager.sol\":322:332  msg.sender */\n  caller\n    /* \"Contracts/MoonV1Manager.sol\":306:332  marketCreator = msg.sender */\n  0xffffffffffffffffffffffffffffffffffffffff\n  and\n  0x80\n  dup2\n  0xffffffffffffffffffffffffffffffffffffffff\n  and\n  0x60\n  shl\n  dup2\n  mstore\n  pop\n  pop\n    /* \"Contracts/MoonV1Customer.sol\":140:5304  contract MoonV1Customer is MoonV1Gater {... */\n  shr(0x60, mload(0x80))\n  codecopy(0x00, dataOffset(sub_0), dataSize(sub_0))\n  0x00\n  assignImmutable(\"0xe6f961b5eaec29807fd460af12fbd720c7c4993791c080ad8e40c06b783956d8\")\n  return(0x00, dataSize(sub_0))\nstop\n\nsub_0: assembly {\n        /* \"Contracts/MoonV1Customer.sol\":140:5304  contract MoonV1Customer is MoonV1Gater {... */\n      mstore(0x40, 0x80)\n      callvalue\n      dup1\n      iszero\n      tag_1\n      jumpi\n      0x00\n      dup1\n      revert\n    tag_1:\n      pop\n      jumpi(tag_2, lt(calldatasize, 0x04))\n      shr(0xe0, calldataload(0x00))\n      dup1\n      0x8a6df726\n      gt\n      tag_36\n      jumpi\n      dup1\n      0xd82aff11\n      gt\n      tag_37\n      jumpi\n      dup1\n      0xf1c9f40f\n      gt\n      tag_38\n      jumpi\n      dup1\n      0xf1c9f40f\n      eq\n      tag_31\n      jumpi\n      dup1\n      0xf3a42537\n      eq\n      tag_32\n      jumpi\n      dup1\n      0xf3c86048\n      eq\n      tag_33\n      jumpi\n      dup1\n      0xf4274bc5\n      eq\n      tag_34\n      jumpi\n      dup1\n      0xfc5f9f18\n      eq\n      tag_35\n      jumpi\n      jump(tag_2)\n    tag_38:\n      dup1\n      0xd82aff11\n      eq\n      tag_27\n      jumpi\n      dup1\n      0xd8feb7ff\n      eq\n      tag_28\n      jumpi\n      dup1\n      0xe71957b9\n      eq\n      tag_29\n      jumpi\n      dup1\n      0xe853f952\n      eq\n      tag_30\n      jumpi\n      jump(tag_2)\n    tag_37:\n      dup1\n      0xb614984d\n      gt\n      tag_39\n      jumpi\n      dup1\n      0xb614984d\n      eq\n      tag_23\n      jumpi\n      dup1\n      0xbc5c6134\n      eq\n      tag_24\n      jumpi\n      dup1\n      0xbe5fdac8\n      eq\n      tag_25\n      jumpi\n      dup1\n      0xcb949e51\n      eq\n      tag_26\n      jumpi\n      jump(tag_2)\n    tag_39:\n      dup1\n      0x8a6df726\n      eq\n      tag_19\n      jumpi\n      dup1\n      0xa4786088\n      eq\n      tag_20\n      jumpi\n      dup1\n      0xa60832cd\n      eq\n      tag_21\n      jumpi\n      dup1\n      0xab3acb5c\n      eq\n      tag_22\n      jumpi\n      jump(tag_2)\n    tag_36:\n      dup1\n      0x3e95003c\n      gt\n      tag_40\n      jumpi\n      dup1\n      0x753c5188\n      gt\n      tag_41\n      jumpi\n      dup1\n      0x753c5188\n      eq\n      tag_15\n      jumpi\n      dup1\n      0x76941300\n      eq\n      tag_16\n      jumpi\n      dup1\n      0x78166097\n      eq\n      tag_17\n      jumpi\n      dup1\n      0x8370aa81\n      eq\n      tag_18\n      jumpi\n      jump(tag_2)\n    tag_41:\n      dup1\n      0x3e95003c\n      eq\n      tag_11\n      jumpi\n      dup1\n      0x45df4987\n      eq\n      tag_12\n      jumpi\n      dup1\n      0x5cfeafa5\n      eq\n      tag_13\n      jumpi\n      dup1\n      0x71271f4d\n      eq\n      tag_14\n      jumpi\n      jump(tag_2)\n    tag_40:\n      dup1\n      0x2b890543\n      gt\n      tag_42\n      jumpi\n      dup1\n      0x2b890543\n      eq\n      tag_7\n      jumpi\n      dup1\n      0x367b6dcc\n      eq\n      tag_8\n      jumpi\n      dup1\n      0x3b63b647\n      eq\n      tag_9\n      jumpi\n      dup1\n      0x3bbae141\n      eq\n      tag_10\n      jumpi\n      jump(tag_2)\n    tag_42:\n      dup1\n      0x0138a661\n      eq\n      tag_3\n      jumpi\n      dup1\n      0x1487f252\n      eq\n      tag_4\n      jumpi\n      dup1\n      0x14f9e554\n      eq\n      tag_5\n      jumpi\n      dup1\n      0x27cbaabe\n      eq\n      tag_6\n      jumpi\n    tag_2:\n      0x00\n      dup1\n      revert\n        /* \"Contracts/MoonV1Customer.sol\":1038:1329  function lockCustomerbyMarketor(address _CustomerAddress)... */\n    tag_3:\n      tag_43\n      0x04\n      dup1\n      calldatasize\n      sub\n      dup2\n      add\n      swap1\n      tag_44\n      swap2\n      swap1\n      tag_45\n      jump\t// in\n    tag_44:\n      tag_46\n      jump\t// in\n    tag_43:\n      stop\n        /* \"Contracts/MoonV1Manager.sol\":1333:1439  function ismarketManager() external view returns (bool) {... */\n    tag_4:\n      tag_47\n      tag_48\n      jump\t// in\n    tag_47:\n      mload(0x40)\n      tag_49\n      swap2\n      swap1\n      tag_50\n      jump\t// in\n    tag_49:\n      mload(0x40)\n      dup1\n      swap2\n      sub\n      swap1\n      return\n        /* \"Contracts/MoonV1Customer.sol\":2377:2839  function addCustomer(LCustomer.Info memory _customer) external {... */\n    tag_5:\n      tag_51\n      0x04\n      dup1\n      calldatasize\n      sub\n      dup2\n      add\n      swap1\n      tag_52\n      swap2\n      swap1\n      tag_53\n      jump\t// in\n    tag_52:\n      tag_54\n      jump\t// in\n    tag_51:\n      stop\n        /* \"Contracts/MoonV1Manager.sol\":141:179  address public immutable marketCreator */\n    tag_6:\n      tag_55\n      tag_56\n      jump\t// in\n    tag_55:\n      mload(0x40)\n      tag_57\n      swap2\n      swap1\n      tag_58\n      jump\t// in\n    tag_57:\n      mload(0x40)\n      dup1\n      swap2\n      sub\n      swap1\n      return\n        /* \"Contracts/MoonV1Manager.sol\":1104:1219  function delMarketManager(address _owner) external onlyMarketCreator {... */\n    tag_7:\n      tag_59\n      0x04\n      dup1\n      calldatasize\n      sub\n      dup2\n      add\n      swap1\n      tag_60\n      swap2\n      swap1\n      tag_45\n      jump\t// in\n    tag_60:\n      tag_61\n      jump\t// in\n    tag_59:\n      stop\n        /* \"Contracts/MoonV1Customer.sol\":530:562  uint40 public customerUniNextKey */\n    tag_8:\n      tag_62\n      tag_63\n      jump\t// in\n    tag_62:\n      mload(0x40)\n      tag_64\n      swap2\n      swap1\n      tag_65\n      jump\t// in\n    tag_64:\n      mload(0x40)\n      dup1\n      swap2\n      sub\n      swap1\n      return\n        /* \"Contracts/MoonV1Customer.sol\":2845:3172  function updateCustomerNeckName(bytes32 _newname) external {... */\n    tag_9:\n      tag_66\n      0x04\n      dup1\n      calldatasize\n      sub\n      dup2\n      add\n      swap1\n      tag_67\n      swap2\n      swap1\n      tag_68\n      jump\t// in\n    tag_67:\n      tag_69\n      jump\t// in\n    tag_66:\n      stop\n        /* \"Contracts/MoonV1Gater.sol\":2113:2389  function lockGatebyGater() external onlyGator {... */\n    tag_10:\n      tag_70\n      tag_71\n      jump\t// in\n    tag_70:\n      stop\n        /* \"Contracts/MoonV1Customer.sol\":464:512  mapping(uint40 => address) public customerUniKey */\n    tag_11:\n      tag_72\n      0x04\n      dup1\n      calldatasize\n      sub\n      dup2\n      add\n      swap1\n      tag_73\n      swap2\n      swap1\n      tag_74\n      jump\t// in\n    tag_73:\n      tag_75\n      jump\t// in\n    tag_72:\n      mload(0x40)\n      tag_76\n      swap2\n      swap1\n      tag_58\n      jump\t// in\n    tag_76:\n      mload(0x40)\n      dup1\n      swap2\n      sub\n      swap1\n      return\n        /* \"Contracts/MoonV1Gater.sol\":295:341  mapping(address => LGate.Info) public gateList */\n    tag_12:\n      tag_77\n      0x04\n      dup1\n      calldatasize\n      sub\n      dup2\n      add\n      swap1\n      tag_78\n      swap2\n      swap1\n      tag_45\n      jump\t// in\n    tag_78:\n      tag_79\n      jump\t// in\n    tag_77:\n      mload(0x40)\n      tag_80\n      swap10\n      swap9\n      swap8\n      swap7\n      swap6\n      swap5\n      swap4\n      swap3\n      swap2\n      swap1\n      tag_81\n      jump\t// in\n    tag_80:\n      mload(0x40)\n      dup1\n      swap2\n      sub\n      swap1\n      return\n        /* \"Contracts/MoonV1Customer.sol\":800:870  mapping(address => mapping(uint32 => address)) public gateCustomerList */\n    tag_13:\n      tag_82\n      0x04\n      dup1\n      calldatasize\n      sub\n      dup2\n      add\n      swap1\n      tag_83\n      swap2\n      swap1\n      tag_84\n      jump\t// in\n    tag_83:\n      tag_85\n      jump\t// in\n    tag_82:\n      mload(0x40)\n      tag_86\n      swap2\n      swap1\n      tag_58\n      jump\t// in\n    tag_86:\n      mload(0x40)\n      dup1\n      swap2\n      sub\n      swap1\n      return\n        /* \"Contracts/MoonV1Gater.sol\":1357:1768  function updateGatebyMarketor(LGate.Info memory _gater)... */\n    tag_14:\n      tag_87\n      0x04\n      dup1\n      calldatasize\n      sub\n      dup2\n      add\n      swap1\n      tag_88\n      swap2\n      swap1\n      tag_89\n      jump\t// in\n    tag_88:\n      tag_90\n      jump\t// in\n    tag_87:\n      stop\n        /* \"Contracts/MoonV1Manager.sol\":229:275  mapping(address => bool) public marketManagers */\n    tag_15:\n      tag_91\n      0x04\n      dup1\n      calldatasize\n      sub\n      dup2\n      add\n      swap1\n      tag_92\n      swap2\n      swap1\n      tag_45\n      jump\t// in\n    tag_92:\n      tag_93\n      jump\t// in\n    tag_91:\n      mload(0x40)\n      tag_94\n      swap2\n      swap1\n      tag_50\n      jump\t// in\n    tag_94:\n      mload(0x40)\n      dup1\n      swap2\n      sub\n      swap1\n      return\n        /* \"Contracts/MoonV1Gater.sol\":1009:1286  function unlockGatebyMarketor(address _gateraddress)... */\n    tag_16:\n      tag_95\n      0x04\n      dup1\n      calldatasize\n      sub\n      dup2\n      add\n      swap1\n      tag_96\n      swap2\n      swap1\n      tag_45\n      jump\t// in\n    tag_96:\n      tag_97\n      jump\t// in\n    tag_95:\n      stop\n        /* \"Contracts/MoonV1Customer.sol\":3484:3653  function isValidCustomer(address _CustomerAddress)... */\n    tag_17:\n      tag_98\n      0x04\n      dup1\n      calldatasize\n      sub\n      dup2\n      add\n      swap1\n      tag_99\n      swap2\n      swap1\n      tag_45\n      jump\t// in\n    tag_99:\n      tag_100\n      jump\t// in\n    tag_98:\n      mload(0x40)\n      tag_101\n      swap2\n      swap1\n      tag_50\n      jump\t// in\n    tag_101:\n      mload(0x40)\n      dup1\n      swap2\n      sub\n      swap1\n      return\n        /* \"Contracts/MoonV1Customer.sol\":4209:4497  function getCustomerInfobyRecommander(... */\n    tag_18:\n      tag_102\n      0x04\n      dup1\n      calldatasize\n      sub\n      dup2\n      add\n      swap1\n      tag_103\n      swap2\n      swap1\n      tag_84\n      jump\t// in\n    tag_103:\n      tag_104\n      jump\t// in\n    tag_102:\n      mload(0x40)\n      tag_105\n      swap2\n      swap1\n      tag_58\n      jump\t// in\n    tag_105:\n      mload(0x40)\n      dup1\n      swap2\n      sub\n      swap1\n      return\n        /* \"Contracts/MoonV1Customer.sol\":3953:4203  function getCustomerNumbyRecommander(address _recommander)... */\n    tag_19:\n      tag_106\n      0x04\n      dup1\n      calldatasize\n      sub\n      dup2\n      add\n      swap1\n      tag_107\n      swap2\n      swap1\n      tag_45\n      jump\t// in\n    tag_107:\n      tag_108\n      jump\t// in\n    tag_106:\n      mload(0x40)\n      tag_109\n      swap2\n      swap1\n      tag_110\n      jump\t// in\n    tag_109:\n      mload(0x40)\n      dup1\n      swap2\n      sub\n      swap1\n      return\n        /* \"Contracts/MoonV1Gater.sol\":729:1003  function lockGatebyMarketor(address _gateraddress)... */\n    tag_20:\n      tag_111\n      0x04\n      dup1\n      calldatasize\n      sub\n      dup2\n      add\n      swap1\n      tag_112\n      swap2\n      swap1\n      tag_45\n      jump\t// in\n    tag_112:\n      tag_113\n      jump\t// in\n    tag_111:\n      stop\n        /* \"Contracts/MoonV1Customer.sol\":650:734  mapping(address => mapping(uint32 => address))... */\n    tag_21:\n      tag_114\n      0x04\n      dup1\n      calldatasize\n      sub\n      dup2\n      add\n      swap1\n      tag_115\n      swap2\n      swap1\n      tag_84\n      jump\t// in\n    tag_115:\n      tag_116\n      jump\t// in\n    tag_114:\n      mload(0x40)\n      tag_117\n      swap2\n      swap1\n      tag_58\n      jump\t// in\n    tag_117:\n      mload(0x40)\n      dup1\n      swap2\n      sub\n      swap1\n      return\n        /* \"Contracts/MoonV1Gater.sol\":3617:3727  function isValidGater() external view returns (bool) {... */\n    tag_22:\n      tag_118\n      tag_119\n      jump\t// in\n    tag_118:\n      mload(0x40)\n      tag_120\n      swap2\n      swap1\n      tag_50\n      jump\t// in\n    tag_120:\n      mload(0x40)\n      dup1\n      swap2\n      sub\n      swap1\n      return\n        /* \"Contracts/MoonV1Gater.sol\":1774:1959  function delGatebyMarketor(address _gater) external onlyMarketManager {... */\n    tag_23:\n      tag_121\n      0x04\n      dup1\n      calldatasize\n      sub\n      dup2\n      add\n      swap1\n      tag_122\n      swap2\n      swap1\n      tag_45\n      jump\t// in\n    tag_122:\n      tag_123\n      jump\t// in\n    tag_121:\n      stop\n        /* \"Contracts/MoonV1Customer.sol\":741:794  mapping(address => uint32) public gateCustomerNextKey */\n    tag_24:\n      tag_124\n      0x04\n      dup1\n      calldatasize\n      sub\n      dup2\n      add\n      swap1\n      tag_125\n      swap2\n      swap1\n      tag_45\n      jump\t// in\n    tag_125:\n      tag_126\n      jump\t// in\n    tag_124:\n      mload(0x40)\n      tag_127\n      swap2\n      swap1\n      tag_110\n      jump\t// in\n    tag_127:\n      mload(0x40)\n      dup1\n      swap2\n      sub\n      swap1\n      return\n        /* \"Contracts/MoonV1Customer.sol\":1335:1627  function unlockCustomerbyMarketor(address _CustomerAddress)... */\n    tag_25:\n      tag_128\n      0x04\n      dup1\n      calldatasize\n      sub\n      dup2\n      add\n      swap1\n      tag_129\n      swap2\n      swap1\n      tag_45\n      jump\t// in\n    tag_129:\n      tag_130\n      jump\t// in\n    tag_128:\n      stop\n        /* \"Contracts/MoonV1Customer.sol\":3178:3478  function getCustomer(address _CustomerAddress)... */\n    tag_26:\n      tag_131\n      0x04\n      dup1\n      calldatasize\n      sub\n      dup2\n      add\n      swap1\n      tag_132\n      swap2\n      swap1\n      tag_45\n      jump\t// in\n    tag_132:\n      tag_133\n      jump\t// in\n    tag_131:\n      mload(0x40)\n      tag_134\n      swap2\n      swap1\n      tag_135\n      jump\t// in\n    tag_134:\n      mload(0x40)\n      dup1\n      swap2\n      sub\n      swap1\n      return\n        /* \"Contracts/MoonV1Manager.sol\":875:990  function setMarketManager(address _owner) external onlyMarketCreator {... */\n    tag_27:\n      tag_136\n      0x04\n      dup1\n      calldatasize\n      sub\n      dup2\n      add\n      swap1\n      tag_137\n      swap2\n      swap1\n      tag_45\n      jump\t// in\n    tag_137:\n      tag_138\n      jump\t// in\n    tag_136:\n      stop\n        /* \"Contracts/MoonV1Gater.sol\":3152:3611  function addGater(LGate.Info memory _gater) external {... */\n    tag_28:\n      tag_139\n      0x04\n      dup1\n      calldatasize\n      sub\n      dup2\n      add\n      swap1\n      tag_140\n      swap2\n      swap1\n      tag_89\n      jump\t// in\n    tag_140:\n      tag_141\n      jump\t// in\n    tag_139:\n      stop\n        /* \"Contracts/MoonV1Customer.sol\":3659:3947  function getCustomerRecommander(address _customer)... */\n    tag_29:\n      tag_142\n      0x04\n      dup1\n      calldatasize\n      sub\n      dup2\n      add\n      swap1\n      tag_143\n      swap2\n      swap1\n      tag_45\n      jump\t// in\n    tag_143:\n      tag_144\n      jump\t// in\n    tag_142:\n      mload(0x40)\n      tag_145\n      swap2\n      swap1\n      tag_58\n      jump\t// in\n    tag_145:\n      mload(0x40)\n      dup1\n      swap2\n      sub\n      swap1\n      return\n        /* \"Contracts/MoonV1Customer.sol\":589:644  mapping(address => uint32) public recommenderraltionkey */\n    tag_30:\n      tag_146\n      0x04\n      dup1\n      calldatasize\n      sub\n      dup2\n      add\n      swap1\n      tag_147\n      swap2\n      swap1\n      tag_45\n      jump\t// in\n    tag_147:\n      tag_148\n      jump\t// in\n    tag_146:\n      mload(0x40)\n      tag_149\n      swap2\n      swap1\n      tag_110\n      jump\t// in\n    tag_149:\n      mload(0x40)\n      dup1\n      swap2\n      sub\n      swap1\n      return\n        /* \"Contracts/MoonV1Gater.sol\":2395:2674  function unlockGatebyGater() external onlyGator {... */\n    tag_31:\n      tag_150\n      tag_151\n      jump\t// in\n    tag_150:\n      stop\n        /* \"Contracts/MoonV1Gater.sol\":2705:3146  function updateGatebyGator(LGate.Info memory _gater) external onlyGator {... */\n    tag_32:\n      tag_152\n      0x04\n      dup1\n      calldatasize\n      sub\n      dup2\n      add\n      swap1\n      tag_153\n      swap2\n      swap1\n      tag_89\n      jump\t// in\n    tag_153:\n      tag_154\n      jump\t// in\n    tag_152:\n      stop\n        /* \"Contracts/MoonV1Customer.sol\":1707:2352  function addRelation(uint40 _recommanderUnikey) external {... */\n    tag_33:\n      tag_155\n      0x04\n      dup1\n      calldatasize\n      sub\n      dup2\n      add\n      swap1\n      tag_156\n      swap2\n      swap1\n      tag_74\n      jump\t// in\n    tag_156:\n      tag_157\n      jump\t// in\n    tag_155:\n      stop\n        /* \"Contracts/MoonV1Customer.sol\":403:457  mapping(address => LCustomer.Info) public customerList */\n    tag_34:\n      tag_158\n      0x04\n      dup1\n      calldatasize\n      sub\n      dup2\n      add\n      swap1\n      tag_159\n      swap2\n      swap1\n      tag_45\n      jump\t// in\n    tag_159:\n      tag_160\n      jump\t// in\n    tag_158:\n      mload(0x40)\n      tag_161\n      swap10\n      swap9\n      swap8\n      swap7\n      swap6\n      swap5\n      swap4\n      swap3\n      swap2\n      swap1\n      tag_162\n      jump\t// in\n    tag_161:\n      mload(0x40)\n      dup1\n      swap2\n      sub\n      swap1\n      return\n        /* \"Contracts/MoonV1Customer.sol\":4503:5302  function addCustomer(LCustomer.Info memory _customer, address _gater)... */\n    tag_35:\n      tag_163\n      0x04\n      dup1\n      calldatasize\n      sub\n      dup2\n      add\n      swap1\n      tag_164\n      swap2\n      swap1\n      tag_165\n      jump\t// in\n    tag_164:\n      tag_166\n      jump\t// in\n    tag_163:\n      stop\n        /* \"Contracts/MoonV1Customer.sol\":1038:1329  function lockCustomerbyMarketor(address _CustomerAddress)... */\n    tag_46:\n        /* \"Contracts/MoonV1Manager.sol\":629:633  true */\n      0x01\n        /* \"Contracts/MoonV1Manager.sol\":599:633  marketManagers[msg.sender] == true */\n      iszero\n      iszero\n        /* \"Contracts/MoonV1Manager.sol\":599:613  marketManagers */\n      0x00\n        /* \"Contracts/MoonV1Manager.sol\":599:625  marketManagers[msg.sender] */\n      dup1\n        /* \"Contracts/MoonV1Manager.sol\":614:624  msg.sender */\n      caller\n        /* \"Contracts/MoonV1Manager.sol\":599:625  marketManagers[msg.sender] */\n      0xffffffffffffffffffffffffffffffffffffffff\n      and\n      0xffffffffffffffffffffffffffffffffffffffff\n      and\n      dup2\n      mstore\n      0x20\n      add\n      swap1\n      dup2\n      mstore\n      0x20\n      add\n      0x00\n      keccak256\n      0x00\n      swap1\n      sload\n      swap1\n      0x0100\n      exp\n      swap1\n      div\n      0xff\n      and\n        /* \"Contracts/MoonV1Manager.sol\":599:633  marketManagers[msg.sender] == true */\n      iszero\n      iszero\n      eq\n        /* \"Contracts/MoonV1Manager.sol\":591:634  require(marketManagers[msg.sender] == true) */\n      tag_168\n      jumpi\n      0x00\n      dup1\n      revert\n    tag_168:\n        /* \"Contracts/MoonV1Customer.sol\":1215:1219  true */\n      0x01\n        /* \"Contracts/MoonV1Customer.sol\":1174:1219  customerList[_CustomerAddress].isUsed != true */\n      iszero\n      iszero\n        /* \"Contracts/MoonV1Customer.sol\":1174:1186  customerList */\n      0x02\n        /* \"Contracts/MoonV1Customer.sol\":1174:1204  customerList[_CustomerAddress] */\n      0x00\n        /* \"Contracts/MoonV1Customer.sol\":1187:1203  _CustomerAddress */\n      dup4\n        /* \"Contracts/MoonV1Customer.sol\":1174:1204  customerList[_CustomerAddress] */\n      0xffffffffffffffffffffffffffffffffffffffff\n      and\n      0xffffffffffffffffffffffffffffffffffffffff\n      and\n      dup2\n      mstore\n      0x20\n      add\n      swap1\n      dup2\n      mstore\n      0x20\n      add\n      0x00\n      keccak256\n        /* \"Contracts/MoonV1Customer.sol\":1174:1211  customerList[_CustomerAddress].isUsed */\n      0x03\n      add\n      0x14\n      swap1\n      sload\n      swap1\n      0x0100\n      exp\n      swap1\n      div\n      0xff\n      and\n        /* \"Contracts/MoonV1Customer.sol\":1174:1219  customerList[_CustomerAddress].isUsed != true */\n      iszero\n      iszero\n      eq\n      iszero\n        /* \"Contracts/MoonV1Customer.sol\":1153:1267  require(... */\n      tag_170\n      jumpi\n      mload(0x40)\n      0x08c379a000000000000000000000000000000000000000000000000000000000\n      dup2\n      mstore\n      0x04\n      add\n      tag_171\n      swap1\n      tag_172\n      jump\t// in\n    tag_171:\n      mload(0x40)\n      dup1\n      swap2\n      sub\n      swap1\n      revert\n    tag_170:\n        /* \"Contracts/MoonV1Customer.sol\":1317:1322  false */\n      0x00\n        /* \"Contracts/MoonV1Customer.sol\":1277:1289  customerList */\n      0x02\n        /* \"Contracts/MoonV1Customer.sol\":1277:1307  customerList[_CustomerAddress] */\n      0x00\n        /* \"Contracts/MoonV1Customer.sol\":1290:1306  _CustomerAddress */\n      dup4\n        /* \"Contracts/MoonV1Customer.sol\":1277:1307  customerList[_CustomerAddress] */\n      0xffffffffffffffffffffffffffffffffffffffff\n      and\n      0xffffffffffffffffffffffffffffffffffffffff\n      and\n      dup2\n      mstore\n      0x20\n      add\n      swap1\n      dup2\n      mstore\n      0x20\n      add\n      0x00\n      keccak256\n        /* \"Contracts/MoonV1Customer.sol\":1277:1314  customerList[_CustomerAddress].unlock */\n      0x03\n      add\n      0x15\n        /* \"Contracts/MoonV1Customer.sol\":1277:1322  customerList[_CustomerAddress].unlock = false */\n      0x0100\n      exp\n      dup2\n      sload\n      dup2\n      0xff\n      mul\n      not\n      and\n      swap1\n      dup4\n      iszero\n      iszero\n      mul\n      or\n      swap1\n      sstore\n      pop\n        /* \"Contracts/MoonV1Customer.sol\":1038:1329  function lockCustomerbyMarketor(address _CustomerAddress)... */\n      pop\n      jump\t// out\n        /* \"Contracts/MoonV1Manager.sol\":1333:1439  function ismarketManager() external view returns (bool) {... */\n    tag_48:\n        /* \"Contracts/MoonV1Manager.sol\":1383:1387  bool */\n      0x00\n        /* \"Contracts/MoonV1Manager.sol\":1406:1420  marketManagers */\n      dup1\n        /* \"Contracts/MoonV1Manager.sol\":1406:1432  marketManagers[msg.sender] */\n      0x00\n        /* \"Contracts/MoonV1Manager.sol\":1421:1431  msg.sender */\n      caller\n        /* \"Contracts/MoonV1Manager.sol\":1406:1432  marketManagers[msg.sender] */\n      0xffffffffffffffffffffffffffffffffffffffff\n      and\n      0xffffffffffffffffffffffffffffffffffffffff\n      and\n      dup2\n      mstore\n      0x20\n      add\n      swap1\n      dup2\n      mstore\n      0x20\n      add\n      0x00\n      keccak256\n      0x00\n      swap1\n      sload\n      swap1\n      0x0100\n      exp\n      swap1\n      div\n      0xff\n      and\n        /* \"Contracts/MoonV1Manager.sol\":1399:1432  return marketManagers[msg.sender] */\n      swap1\n      pop\n        /* \"Contracts/MoonV1Manager.sol\":1333:1439  function ismarketManager() external view returns (bool) {... */\n      swap1\n      jump\t// out\n        /* \"Contracts/MoonV1Customer.sol\":2377:2839  function addCustomer(LCustomer.Info memory _customer) external {... */\n    tag_54:\n        /* \"Contracts/MoonV1Customer.sol\":2521:2525  true */\n      0x01\n        /* \"Contracts/MoonV1Customer.sol\":2471:2525  customerList[_customer.contractAddress].isUsed != true */\n      iszero\n      iszero\n        /* \"Contracts/MoonV1Customer.sol\":2471:2483  customerList */\n      0x02\n        /* \"Contracts/MoonV1Customer.sol\":2471:2510  customerList[_customer.contractAddress] */\n      0x00\n        /* \"Contracts/MoonV1Customer.sol\":2484:2493  _customer */\n      dup4\n        /* \"Contracts/MoonV1Customer.sol\":2484:2509  _customer.contractAddress */\n      0xc0\n      add\n      mload\n        /* \"Contracts/MoonV1Customer.sol\":2471:2510  customerList[_customer.contractAddress] */\n      0xffffffffffffffffffffffffffffffffffffffff\n      and\n      0xffffffffffffffffffffffffffffffffffffffff\n      and\n      dup2\n      mstore\n      0x20\n      add\n      swap1\n      dup2\n      mstore\n      0x20\n      add\n      0x00\n      keccak256\n        /* \"Contracts/MoonV1Customer.sol\":2471:2517  customerList[_customer.contractAddress].isUsed */\n      0x03\n      add\n      0x14\n      swap1\n      sload\n      swap1\n      0x0100\n      exp\n      swap1\n      div\n      0xff\n      and\n        /* \"Contracts/MoonV1Customer.sol\":2471:2525  customerList[_customer.contractAddress].isUsed != true */\n      iszero\n      iszero\n      eq\n      iszero\n        /* \"Contracts/MoonV1Customer.sol\":2471:2584  customerList[_customer.contractAddress].isUsed != true &&... */\n      dup1\n      iszero\n      tag_175\n      jumpi\n      pop\n        /* \"Contracts/MoonV1Customer.sol\":2574:2584  msg.sender */\n      caller\n        /* \"Contracts/MoonV1Customer.sol\":2545:2584  _customer.contractAddress == msg.sender */\n      0xffffffffffffffffffffffffffffffffffffffff\n      and\n        /* \"Contracts/MoonV1Customer.sol\":2545:2554  _customer */\n      dup2\n        /* \"Contracts/MoonV1Customer.sol\":2545:2570  _customer.contractAddress */\n      0xc0\n      add\n      mload\n        /* \"Contracts/MoonV1Customer.sol\":2545:2584  _customer.contractAddress == msg.sender */\n      0xffffffffffffffffffffffffffffffffffffffff\n      and\n      eq\n        /* \"Contracts/MoonV1Customer.sol\":2471:2584  customerList[_customer.contractAddress].isUsed != true &&... */\n    tag_175:\n        /* \"Contracts/MoonV1Customer.sol\":2450:2628  require(... */\n      tag_176\n      jumpi\n      mload(0x40)\n      0x08c379a000000000000000000000000000000000000000000000000000000000\n      dup2\n      mstore\n      0x04\n      add\n      tag_177\n      swap1\n      tag_178\n      jump\t// in\n    tag_177:\n      mload(0x40)\n      dup1\n      swap2\n      sub\n      swap1\n      revert\n    tag_176:\n        /* \"Contracts/MoonV1Customer.sol\":2661:2662  1 */\n      0x01\n        /* \"Contracts/MoonV1Customer.sol\":2639:2657  customerUniNextKey */\n      0x04\n      0x00\n        /* \"Contracts/MoonV1Customer.sol\":2639:2662  customerUniNextKey += 1 */\n      dup3\n      dup3\n      dup3\n      swap1\n      sload\n      swap1\n      0x0100\n      exp\n      swap1\n      div\n      0xffffffffff\n      and\n      tag_179\n      swap2\n      swap1\n      tag_180\n      jump\t// in\n    tag_179:\n      swap3\n      pop\n      0x0100\n      exp\n      dup2\n      sload\n      dup2\n      0xffffffffff\n      mul\n      not\n      and\n      swap1\n      dup4\n      0xffffffffff\n      and\n      mul\n      or\n      swap1\n      sstore\n      pop\n        /* \"Contracts/MoonV1Customer.sol\":2709:2719  msg.sender */\n      caller\n        /* \"Contracts/MoonV1Customer.sol\":2672:2686  customerUniKey */\n      0x03\n        /* \"Contracts/MoonV1Customer.sol\":2672:2706  customerUniKey[customerUniNextKey] */\n      0x00\n        /* \"Contracts/MoonV1Customer.sol\":2687:2705  customerUniNextKey */\n      0x04\n      0x00\n      swap1\n      sload\n      swap1\n      0x0100\n      exp\n      swap1\n      div\n      0xffffffffff\n      and\n        /* \"Contracts/MoonV1Customer.sol\":2672:2706  customerUniKey[customerUniNextKey] */\n      0xffffffffff\n      and\n      0xffffffffff\n      and\n      dup2\n      mstore\n      0x20\n      add\n      swap1\n      dup2\n      mstore\n      0x20\n      add\n      0x00\n      keccak256\n      0x00\n        /* \"Contracts/MoonV1Customer.sol\":2672:2719  customerUniKey[customerUniNextKey] = msg.sender */\n      0x0100\n      exp\n      dup2\n      sload\n      dup2\n      0xffffffffffffffffffffffffffffffffffffffff\n      mul\n      not\n      and\n      swap1\n      dup4\n      0xffffffffffffffffffffffffffffffffffffffff\n      and\n      mul\n      or\n      swap1\n      sstore\n      pop\n        /* \"Contracts/MoonV1Customer.sol\":2753:2771  customerUniNextKey */\n      0x04\n      0x00\n      swap1\n      sload\n      swap1\n      0x0100\n      exp\n      swap1\n      div\n      0xffffffffff\n      and\n        /* \"Contracts/MoonV1Customer.sol\":2729:2738  _customer */\n      dup2\n        /* \"Contracts/MoonV1Customer.sol\":2729:2750  _customer.customerKey */\n      0x60\n      add\n        /* \"Contracts/MoonV1Customer.sol\":2729:2771  _customer.customerKey = customerUniNextKey */\n      swap1\n      0xffffffffff\n      and\n      swap1\n      dup2\n      0xffffffffff\n      and\n      dup2\n      mstore\n      pop\n      pop\n        /* \"Contracts/MoonV1Customer.sol\":2823:2832  _customer */\n      dup1\n        /* \"Contracts/MoonV1Customer.sol\":2781:2793  customerList */\n      0x02\n        /* \"Contracts/MoonV1Customer.sol\":2781:2820  customerList[_customer.contractAddress] */\n      0x00\n        /* \"Contracts/MoonV1Customer.sol\":2794:2803  _customer */\n      dup4\n        /* \"Contracts/MoonV1Customer.sol\":2794:2819  _customer.contractAddress */\n      0xc0\n      add\n      mload\n        /* \"Contracts/MoonV1Customer.sol\":2781:2820  customerList[_customer.contractAddress] */\n      0xffffffffffffffffffffffffffffffffffffffff\n      and\n      0xffffffffffffffffffffffffffffffffffffffff\n      and\n      dup2\n      mstore\n      0x20\n      add\n      swap1\n      dup2\n      mstore\n      0x20\n      add\n      0x00\n      keccak256\n        /* \"Contracts/MoonV1Customer.sol\":2781:2832  customerList[_customer.contractAddress] = _customer */\n      0x00\n      dup3\n      add\n      mload\n      dup2\n      0x00\n      add\n      sstore\n      0x20\n      dup3\n      add\n      mload\n      dup2\n      0x01\n      add\n      exp(0x0100, 0x00)\n      dup2\n      sload\n      dup2\n      0xffffffff\n      mul\n      not\n      and\n      swap1\n      dup4\n      0xffffffff\n      and\n      mul\n      or\n      swap1\n      sstore\n      pop\n      0x40\n      dup3\n      add\n      mload\n      dup2\n      0x01\n      add\n      exp(0x0100, 0x04)\n      dup2\n      sload\n      dup2\n      0xffffffffffffffffffffffffffffffffffffffff\n      mul\n      not\n      and\n      swap1\n      dup4\n      0xffffffffffffffffffffffffffffffffffffffff\n      and\n      mul\n      or\n      swap1\n      sstore\n      pop\n      0x60\n      dup3\n      add\n      mload\n      dup2\n      0x01\n      add\n      exp(0x0100, 0x18)\n      dup2\n      sload\n      dup2\n      0xffffffffff\n      mul\n      not\n      and\n      swap1\n      dup4\n      0xffffffffff\n      and\n      mul\n      or\n      swap1\n      sstore\n      pop\n      0x80\n      dup3\n      add\n      mload\n      dup2\n      0x02\n      add\n      exp(0x0100, 0x00)\n      dup2\n      sload\n      dup2\n      0xffffffffffffffffffffffffffffffffffffffff\n      mul\n      not\n      and\n      swap1\n      dup4\n      0xffffffffffffffffffffffffffffffffffffffff\n      and\n      mul\n      or\n      swap1\n      sstore\n      pop\n      0xa0\n      dup3\n      add\n      mload\n      dup2\n      0x02\n      add\n      exp(0x0100, 0x14)\n      dup2\n      sload\n      dup2\n      0xffffffff\n      mul\n      not\n      and\n      swap1\n      dup4\n      0xffffffff\n      and\n      mul\n      or\n      swap1\n      sstore\n      pop\n      0xc0\n      dup3\n      add\n      mload\n      dup2\n      0x03\n      add\n      exp(0x0100, 0x00)\n      dup2\n      sload\n      dup2\n      0xffffffffffffffffffffffffffffffffffffffff\n      mul\n      not\n      and\n      swap1\n      dup4\n      0xffffffffffffffffffffffffffffffffffffffff\n      and\n      mul\n      or\n      swap1\n      sstore\n      pop\n      0xe0\n      dup3\n      add\n      mload\n      dup2\n      0x03\n      add\n      exp(0x0100, 0x14)\n      dup2\n      sload\n      dup2\n      0xff\n      mul\n      not\n      and\n      swap1\n      dup4\n      iszero\n      iszero\n      mul\n      or\n      swap1\n      sstore\n      pop\n      0x0100\n      dup3\n      add\n      mload\n      dup2\n      0x03\n      add\n      exp(0x0100, 0x15)\n      dup2\n      sload\n      dup2\n      0xff\n      mul\n      not\n      and\n      swap1\n      dup4\n      iszero\n      iszero\n      mul\n      or\n      swap1\n      sstore\n      pop\n      swap1\n      pop\n      pop\n        /* \"Contracts/MoonV1Customer.sol\":2377:2839  function addCustomer(LCustomer.Info memory _customer) external {... */\n      pop\n      jump\t// out\n        /* \"Contracts/MoonV1Manager.sol\":141:179  address public immutable marketCreator */\n    tag_56:\n      immutable(\"0xe6f961b5eaec29807fd460af12fbd720c7c4993791c080ad8e40c06b783956d8\")\n      dup2\n      jump\t// out\n        /* \"Contracts/MoonV1Manager.sol\":1104:1219  function delMarketManager(address _owner) external onlyMarketCreator {... */\n    tag_61:\n        /* \"Contracts/MoonV1Manager.sol\":406:419  marketCreator */\n      immutable(\"0xe6f961b5eaec29807fd460af12fbd720c7c4993791c080ad8e40c06b783956d8\")\n        /* \"Contracts/MoonV1Manager.sol\":392:419  msg.sender == marketCreator */\n      0xffffffffffffffffffffffffffffffffffffffff\n      and\n        /* \"Contracts/MoonV1Manager.sol\":392:402  msg.sender */\n      caller\n        /* \"Contracts/MoonV1Manager.sol\":392:419  msg.sender == marketCreator */\n      0xffffffffffffffffffffffffffffffffffffffff\n      and\n      eq\n        /* \"Contracts/MoonV1Manager.sol\":384:420  require(msg.sender == marketCreator) */\n      tag_182\n      jumpi\n      0x00\n      dup1\n      revert\n    tag_182:\n        /* \"Contracts/MoonV1Manager.sol\":1190:1204  marketManagers */\n      0x00\n        /* \"Contracts/MoonV1Manager.sol\":1190:1212  marketManagers[_owner] */\n      dup1\n        /* \"Contracts/MoonV1Manager.sol\":1205:1211  _owner */\n      dup3\n        /* \"Contracts/MoonV1Manager.sol\":1190:1212  marketManagers[_owner] */\n      0xffffffffffffffffffffffffffffffffffffffff\n      and\n      0xffffffffffffffffffffffffffffffffffffffff\n      and\n      dup2\n      mstore\n      0x20\n      add\n      swap1\n      dup2\n      mstore\n      0x20\n      add\n      0x00\n      keccak256\n      0x00\n        /* \"Contracts/MoonV1Manager.sol\":1183:1212  delete marketManagers[_owner] */\n      0x0100\n      exp\n      dup2\n      sload\n      swap1\n      0xff\n      mul\n      not\n      and\n      swap1\n      sstore\n        /* \"Contracts/MoonV1Manager.sol\":1104:1219  function delMarketManager(address _owner) external onlyMarketCreator {... */\n      pop\n      jump\t// out\n        /* \"Contracts/MoonV1Customer.sol\":530:562  uint40 public customerUniNextKey */\n    tag_63:\n      0x04\n      0x00\n      swap1\n      sload\n      swap1\n      0x0100\n      exp\n      swap1\n      div\n      0xffffffffff\n      and\n      dup2\n      jump\t// out\n        /* \"Contracts/MoonV1Customer.sol\":2845:3172  function updateCustomerNeckName(bytes32 _newname) external {... */\n    tag_69:\n        /* \"Contracts/MoonV1Customer.sol\":2985:2989  true */\n      0x01\n        /* \"Contracts/MoonV1Customer.sol\":2985:3063  true &&... */\n      dup1\n      iszero\n      tag_185\n      jumpi\n      pop\n        /* \"Contracts/MoonV1Customer.sol\":3053:3063  msg.sender */\n      caller\n        /* \"Contracts/MoonV1Customer.sol\":3009:3063  customerList[msg.sender].contractAddress == msg.sender */\n      0xffffffffffffffffffffffffffffffffffffffff\n      and\n        /* \"Contracts/MoonV1Customer.sol\":3009:3021  customerList */\n      0x02\n        /* \"Contracts/MoonV1Customer.sol\":3009:3033  customerList[msg.sender] */\n      0x00\n        /* \"Contracts/MoonV1Customer.sol\":3022:3032  msg.sender */\n      caller\n        /* \"Contracts/MoonV1Customer.sol\":3009:3033  customerList[msg.sender] */\n      0xffffffffffffffffffffffffffffffffffffffff\n      and\n      0xffffffffffffffffffffffffffffffffffffffff\n      and\n      dup2\n      mstore\n      0x20\n      add\n      swap1\n      dup2\n      mstore\n      0x20\n      add\n      0x00\n      keccak256\n        /* \"Contracts/MoonV1Customer.sol\":3009:3049  customerList[msg.sender].contractAddress */\n      0x03\n      add\n      0x00\n      swap1\n      sload\n      swap1\n      0x0100\n      exp\n      swap1\n      div\n      0xffffffffffffffffffffffffffffffffffffffff\n      and\n        /* \"Contracts/MoonV1Customer.sol\":3009:3063  customerList[msg.sender].contractAddress == msg.sender */\n      0xffffffffffffffffffffffffffffffffffffffff\n      and\n      eq\n        /* \"Contracts/MoonV1Customer.sol\":2985:3063  true &&... */\n    tag_185:\n        /* \"Contracts/MoonV1Customer.sol\":2935:2947  customerList */\n      0x02\n        /* \"Contracts/MoonV1Customer.sol\":2935:2959  customerList[msg.sender] */\n      0x00\n        /* \"Contracts/MoonV1Customer.sol\":2948:2958  msg.sender */\n      caller\n        /* \"Contracts/MoonV1Customer.sol\":2935:2959  customerList[msg.sender] */\n      0xffffffffffffffffffffffffffffffffffffffff\n      and\n      0xffffffffffffffffffffffffffffffffffffffff\n      and\n      dup2\n      mstore\n      0x20\n      add\n      swap1\n      dup2\n      mstore\n      0x20\n      add\n      0x00\n      keccak256\n        /* \"Contracts/MoonV1Customer.sol\":2935:2966  customerList[msg.sender].isUsed */\n      0x03\n      add\n      0x14\n        /* \"Contracts/MoonV1Customer.sol\":2935:3063  customerList[msg.sender].isUsed =... */\n      0x0100\n      exp\n      dup2\n      sload\n      dup2\n      0xff\n      mul\n      not\n      and\n      swap1\n      dup4\n      iszero\n      iszero\n      mul\n      or\n      swap1\n      sstore\n        /* \"Contracts/MoonV1Customer.sol\":2914:3111  require(... */\n      tag_186\n      jumpi\n      mload(0x40)\n      0x08c379a000000000000000000000000000000000000000000000000000000000\n      dup2\n      mstore\n      0x04\n      add\n      tag_187\n      swap1\n      tag_172\n      jump\t// in\n    tag_187:\n      mload(0x40)\n      dup1\n      swap2\n      sub\n      swap1\n      revert\n    tag_186:\n        /* \"Contracts/MoonV1Customer.sol\":3157:3165  _newname */\n      dup1\n        /* \"Contracts/MoonV1Customer.sol\":3121:3133  customerList */\n      0x02\n        /* \"Contracts/MoonV1Customer.sol\":3121:3145  customerList[msg.sender] */\n      0x00\n        /* \"Contracts/MoonV1Customer.sol\":3134:3144  msg.sender */\n      caller\n        /* \"Contracts/MoonV1Customer.sol\":3121:3145  customerList[msg.sender] */\n      0xffffffffffffffffffffffffffffffffffffffff\n      and\n      0xffffffffffffffffffffffffffffffffffffffff\n      and\n      dup2\n      mstore\n      0x20\n      add\n      swap1\n      dup2\n      mstore\n      0x20\n      add\n      0x00\n      keccak256\n        /* \"Contracts/MoonV1Customer.sol\":3121:3154  customerList[msg.sender].neckname */\n      0x00\n      add\n        /* \"Contracts/MoonV1Customer.sol\":3121:3165  customerList[msg.sender].neckname = _newname */\n      dup2\n      swap1\n      sstore\n      pop\n        /* \"Contracts/MoonV1Customer.sol\":2845:3172  function updateCustomerNeckName(bytes32 _newname) external {... */\n      pop\n      jump\t// out\n        /* \"Contracts/MoonV1Gater.sol\":2113:2389  function lockGatebyGater() external onlyGator {... */\n    tag_71:\n        /* \"Contracts/MoonV1Gater.sol\":554:558  true */\n      0x01\n        /* \"Contracts/MoonV1Gater.sol\":517:558  gateList[msg.sender].marketunlock == true */\n      iszero\n      iszero\n        /* \"Contracts/MoonV1Gater.sol\":517:525  gateList */\n      0x01\n        /* \"Contracts/MoonV1Gater.sol\":517:537  gateList[msg.sender] */\n      0x00\n        /* \"Contracts/MoonV1Gater.sol\":526:536  msg.sender */\n      caller\n        /* \"Contracts/MoonV1Gater.sol\":517:537  gateList[msg.sender] */\n      0xffffffffffffffffffffffffffffffffffffffff\n      and\n      0xffffffffffffffffffffffffffffffffffffffff\n      and\n      dup2\n      mstore\n      0x20\n      add\n      swap1\n      dup2\n      mstore\n      0x20\n      add\n      0x00\n      keccak256\n        /* \"Contracts/MoonV1Gater.sol\":517:550  gateList[msg.sender].marketunlock */\n      0x0f\n      add\n      0x04\n      swap1\n      sload\n      swap1\n      0x0100\n      exp\n      swap1\n      div\n      0xff\n      and\n        /* \"Contracts/MoonV1Gater.sol\":517:558  gateList[msg.sender].marketunlock == true */\n      iszero\n      iszero\n      eq\n        /* \"Contracts/MoonV1Gater.sol\":509:559  require(gateList[msg.sender].marketunlock == true) */\n      tag_189\n      jumpi\n      0x00\n      dup1\n      revert\n    tag_189:\n        /* \"Contracts/MoonV1Gater.sol\":2221:2225  true */\n      0x01\n        /* \"Contracts/MoonV1Gater.sol\":2190:2225  gateList[msg.sender].isUsed == true */\n      iszero\n      iszero\n        /* \"Contracts/MoonV1Gater.sol\":2190:2198  gateList */\n      0x01\n        /* \"Contracts/MoonV1Gater.sol\":2190:2210  gateList[msg.sender] */\n      0x00\n        /* \"Contracts/MoonV1Gater.sol\":2199:2209  msg.sender */\n      caller\n        /* \"Contracts/MoonV1Gater.sol\":2190:2210  gateList[msg.sender] */\n      0xffffffffffffffffffffffffffffffffffffffff\n      and\n      0xffffffffffffffffffffffffffffffffffffffff\n      and\n      dup2\n      mstore\n      0x20\n      add\n      swap1\n      dup2\n      mstore\n      0x20\n      add\n      0x00\n      keccak256\n        /* \"Contracts/MoonV1Gater.sol\":2190:2217  gateList[msg.sender].isUsed */\n      0x0f\n      add\n      0x06\n      swap1\n      sload\n      swap1\n      0x0100\n      exp\n      swap1\n      div\n      0xff\n      and\n        /* \"Contracts/MoonV1Gater.sol\":2190:2225  gateList[msg.sender].isUsed == true */\n      iszero\n      iszero\n      eq\n        /* \"Contracts/MoonV1Gater.sol\":2190:2291  gateList[msg.sender].isUsed == true &&... */\n      dup1\n      iszero\n      tag_191\n      jumpi\n      pop\n        /* \"Contracts/MoonV1Gater.sol\":2281:2291  msg.sender */\n      caller\n        /* \"Contracts/MoonV1Gater.sol\":2245:2291  gateList[msg.sender].gateAddress == msg.sender */\n      0xffffffffffffffffffffffffffffffffffffffff\n      and\n        /* \"Contracts/MoonV1Gater.sol\":2245:2253  gateList */\n      0x01\n        /* \"Contracts/MoonV1Gater.sol\":2245:2265  gateList[msg.sender] */\n      0x00\n        /* \"Contracts/MoonV1Gater.sol\":2254:2264  msg.sender */\n      caller\n        /* \"Contracts/MoonV1Gater.sol\":2245:2265  gateList[msg.sender] */\n      0xffffffffffffffffffffffffffffffffffffffff\n      and\n      0xffffffffffffffffffffffffffffffffffffffff\n      and\n      dup2\n      mstore\n      0x20\n      add\n      swap1\n      dup2\n      mstore\n      0x20\n      add\n      0x00\n      keccak256\n        /* \"Contracts/MoonV1Gater.sol\":2245:2277  gateList[msg.sender].gateAddress */\n      0x01\n      add\n      0x00\n      swap1\n      sload\n      swap1\n      0x0100\n      exp\n      swap1\n      div\n      0xffffffffffffffffffffffffffffffffffffffff\n      and\n        /* \"Contracts/MoonV1Gater.sol\":2245:2291  gateList[msg.sender].gateAddress == msg.sender */\n      0xffffffffffffffffffffffffffffffffffffffff\n      and\n      eq\n        /* \"Contracts/MoonV1Gater.sol\":2190:2291  gateList[msg.sender].isUsed == true &&... */\n    tag_191:\n        /* \"Contracts/MoonV1Gater.sol\":2169:2338  require(... */\n      tag_192\n      jumpi\n      mload(0x40)\n      0x08c379a000000000000000000000000000000000000000000000000000000000\n      dup2\n      mstore\n      0x04\n      add\n      tag_193\n      swap1\n      tag_194\n      jump\t// in\n    tag_193:\n      mload(0x40)\n      dup1\n      swap2\n      sub\n      swap1\n      revert\n    tag_192:\n        /* \"Contracts/MoonV1Gater.sol\":2378:2382  true */\n      0x01\n        /* \"Contracts/MoonV1Gater.sol\":2348:2356  gateList */\n      dup1\n        /* \"Contracts/MoonV1Gater.sol\":2348:2368  gateList[msg.sender] */\n      0x00\n        /* \"Contracts/MoonV1Gater.sol\":2357:2367  msg.sender */\n      caller\n        /* \"Contracts/MoonV1Gater.sol\":2348:2368  gateList[msg.sender] */\n      0xffffffffffffffffffffffffffffffffffffffff\n      and\n      0xffffffffffffffffffffffffffffffffffffffff\n      and\n      dup2\n      mstore\n      0x20\n      add\n      swap1\n      dup2\n      mstore\n      0x20\n      add\n      0x00\n      keccak256\n        /* \"Contracts/MoonV1Gater.sol\":2348:2375  gateList[msg.sender].unlock */\n      0x0f\n      add\n      0x05\n        /* \"Contracts/MoonV1Gater.sol\":2348:2382  gateList[msg.sender].unlock = true */\n      0x0100\n      exp\n      dup2\n      sload\n      dup2\n      0xff\n      mul\n      not\n      and\n      swap1\n      dup4\n      iszero\n      iszero\n      mul\n      or\n      swap1\n      sstore\n      pop\n        /* \"Contracts/MoonV1Gater.sol\":2113:2389  function lockGatebyGater() external onlyGator {... */\n      jump\t// out\n        /* \"Contracts/MoonV1Customer.sol\":464:512  mapping(uint40 => address) public customerUniKey */\n    tag_75:\n      mstore(0x20, 0x03)\n      dup1\n      0x00\n      mstore\n      keccak256(0x00, 0x40)\n      0x00\n      swap2\n      pop\n      sload\n      swap1\n      0x0100\n      exp\n      swap1\n      div\n      0xffffffffffffffffffffffffffffffffffffffff\n      and\n      dup2\n      jump\t// out\n        /* \"Contracts/MoonV1Gater.sol\":295:341  mapping(address => LGate.Info) public gateList */\n    tag_79:\n      mstore(0x20, 0x01)\n      dup1\n      0x00\n      mstore\n      keccak256(0x00, 0x40)\n      0x00\n      swap2\n      pop\n      swap1\n      pop\n      dup1\n      0x00\n      add\n      0x00\n      swap1\n      sload\n      swap1\n      0x0100\n      exp\n      swap1\n      div\n      0xffffffffffffffffffffffffffffffffffffffff\n      and\n      swap1\n      dup1\n      0x01\n      add\n      0x00\n      swap1\n      sload\n      swap1\n      0x0100\n      exp\n      swap1\n      div\n      0xffffffffffffffffffffffffffffffffffffffff\n      and\n      swap1\n      dup1\n      0x02\n      add\n      0x00\n      swap1\n      sload\n      swap1\n      0x0100\n      exp\n      swap1\n      div\n      0xffffffffffffffffffffffffffffffffffffffff\n      and\n      swap1\n      dup1\n      0x03\n      add\n      sload\n      swap1\n      dup1\n      0x04\n      add\n      sload\n      swap1\n      dup1\n      0x0f\n      add\n      0x00\n      swap1\n      sload\n      swap1\n      0x0100\n      exp\n      swap1\n      div\n      0xffffffff\n      and\n      swap1\n      dup1\n      0x0f\n      add\n      0x04\n      swap1\n      sload\n      swap1\n      0x0100\n      exp\n      swap1\n      div\n      0xff\n      and\n      swap1\n      dup1\n      0x0f\n      add\n      0x05\n      swap1\n      sload\n      swap1\n      0x0100\n      exp\n      swap1\n      div\n      0xff\n      and\n      swap1\n      dup1\n      0x0f\n      add\n      0x06\n      swap1\n      sload\n      swap1\n      0x0100\n      exp\n      swap1\n      div\n      0xff\n      and\n      swap1\n      pop\n      dup10\n      jump\t// out\n        /* \"Contracts/MoonV1Customer.sol\":800:870  mapping(address => mapping(uint32 => address)) public gateCustomerList */\n    tag_85:\n      mstore(0x20, 0x08)\n      dup2\n      0x00\n      mstore\n      mstore(0x20, keccak256(0x00, 0x40))\n      dup1\n      0x00\n      mstore\n      keccak256(0x00, 0x40)\n      0x00\n      swap2\n      pop\n      swap2\n      pop\n      swap1\n      sload\n      swap1\n      0x0100\n      exp\n      swap1\n      div\n      0xffffffffffffffffffffffffffffffffffffffff\n      and\n      dup2\n      jump\t// out\n        /* \"Contracts/MoonV1Gater.sol\":1357:1768  function updateGatebyMarketor(LGate.Info memory _gater)... */\n    tag_90:\n        /* \"Contracts/MoonV1Manager.sol\":629:633  true */\n      0x01\n        /* \"Contracts/MoonV1Manager.sol\":599:633  marketManagers[msg.sender] == true */\n      iszero\n      iszero\n        /* \"Contracts/MoonV1Manager.sol\":599:613  marketManagers */\n      0x00\n        /* \"Contracts/MoonV1Manager.sol\":599:625  marketManagers[msg.sender] */\n      dup1\n        /* \"Contracts/MoonV1Manager.sol\":614:624  msg.sender */\n      caller\n        /* \"Contracts/MoonV1Manager.sol\":599:625  marketManagers[msg.sender] */\n      0xffffffffffffffffffffffffffffffffffffffff\n      and\n      0xffffffffffffffffffffffffffffffffffffffff\n      and\n      dup2\n      mstore\n      0x20\n      add\n      swap1\n      dup2\n      mstore\n      0x20\n      add\n      0x00\n      keccak256\n      0x00\n      swap1\n      sload\n      swap1\n      0x0100\n      exp\n      swap1\n      div\n      0xff\n      and\n        /* \"Contracts/MoonV1Manager.sol\":599:633  marketManagers[msg.sender] == true */\n      iszero\n      iszero\n      eq\n        /* \"Contracts/MoonV1Manager.sol\":591:634  require(marketManagers[msg.sender] == true) */\n      tag_196\n      jumpi\n      0x00\n      dup1\n      revert\n    tag_196:\n        /* \"Contracts/MoonV1Gater.sol\":1530:1534  true */\n      0x01\n        /* \"Contracts/MoonV1Gater.sol\":1491:1534  gateList[_gater.gateAddress].isUsed == true */\n      iszero\n      iszero\n        /* \"Contracts/MoonV1Gater.sol\":1491:1499  gateList */\n      0x01\n        /* \"Contracts/MoonV1Gater.sol\":1491:1519  gateList[_gater.gateAddress] */\n      0x00\n        /* \"Contracts/MoonV1Gater.sol\":1500:1506  _gater */\n      dup4\n        /* \"Contracts/MoonV1Gater.sol\":1500:1518  _gater.gateAddress */\n      0x20\n      add\n      mload\n        /* \"Contracts/MoonV1Gater.sol\":1491:1519  gateList[_gater.gateAddress] */\n      0xffffffffffffffffffffffffffffffffffffffff\n      and\n      0xffffffffffffffffffffffffffffffffffffffff\n      and\n      dup2\n      mstore\n      0x20\n      add\n      swap1\n      dup2\n      mstore\n      0x20\n      add\n      0x00\n      keccak256\n        /* \"Contracts/MoonV1Gater.sol\":1491:1526  gateList[_gater.gateAddress].isUsed */\n      0x0f\n      add\n      0x06\n      swap1\n      sload\n      swap1\n      0x0100\n      exp\n      swap1\n      div\n      0xff\n      and\n        /* \"Contracts/MoonV1Gater.sol\":1491:1534  gateList[_gater.gateAddress].isUsed == true */\n      iszero\n      iszero\n      eq\n        /* \"Contracts/MoonV1Gater.sol\":1470:1580  require(... */\n      tag_198\n      jumpi\n      mload(0x40)\n      0x08c379a000000000000000000000000000000000000000000000000000000000\n      dup2\n      mstore\n      0x04\n      add\n      tag_199\n      swap1\n      tag_200\n      jump\t// in\n    tag_199:\n      mload(0x40)\n      dup1\n      swap2\n      sub\n      swap1\n      revert\n    tag_198:\n        /* \"Contracts/MoonV1Gater.sol\":1612:1620  gateList */\n      0x01\n        /* \"Contracts/MoonV1Gater.sol\":1612:1640  gateList[_gater.gateAddress] */\n      0x00\n        /* \"Contracts/MoonV1Gater.sol\":1621:1627  _gater */\n      dup3\n        /* \"Contracts/MoonV1Gater.sol\":1621:1639  _gater.gateAddress */\n      0x20\n      add\n      mload\n        /* \"Contracts/MoonV1Gater.sol\":1612:1640  gateList[_gater.gateAddress] */\n      0xffffffffffffffffffffffffffffffffffffffff\n      and\n      0xffffffffffffffffffffffffffffffffffffffff\n      and\n      dup2\n      mstore\n      0x20\n      add\n      swap1\n      dup2\n      mstore\n      0x20\n      add\n      0x00\n      keccak256\n        /* \"Contracts/MoonV1Gater.sol\":1612:1653  gateList[_gater.gateAddress].marketunlock */\n      0x0f\n      add\n      0x04\n      swap1\n      sload\n      swap1\n      0x0100\n      exp\n      swap1\n      div\n      0xff\n      and\n        /* \"Contracts/MoonV1Gater.sol\":1590:1596  _gater */\n      dup2\n        /* \"Contracts/MoonV1Gater.sol\":1590:1609  _gater.marketunlock */\n      0xe0\n      add\n        /* \"Contracts/MoonV1Gater.sol\":1590:1653  _gater.marketunlock = gateList[_gater.gateAddress].marketunlock */\n      swap1\n      iszero\n      iszero\n      swap1\n      dup2\n      iszero\n      iszero\n      dup2\n      mstore\n      pop\n      pop\n        /* \"Contracts/MoonV1Gater.sol\":1679:1687  gateList */\n      0x01\n        /* \"Contracts/MoonV1Gater.sol\":1679:1707  gateList[_gater.gateAddress] */\n      0x00\n        /* \"Contracts/MoonV1Gater.sol\":1688:1694  _gater */\n      dup3\n        /* \"Contracts/MoonV1Gater.sol\":1688:1706  _gater.gateAddress */\n      0x20\n      add\n      mload\n        /* \"Contracts/MoonV1Gater.sol\":1679:1707  gateList[_gater.gateAddress] */\n      0xffffffffffffffffffffffffffffffffffffffff\n      and\n      0xffffffffffffffffffffffffffffffffffffffff\n      and\n      dup2\n      mstore\n      0x20\n      add\n      swap1\n      dup2\n      mstore\n      0x20\n      add\n      0x00\n      keccak256\n        /* \"Contracts/MoonV1Gater.sol\":1679:1714  gateList[_gater.gateAddress].unlock */\n      0x0f\n      add\n      0x05\n      swap1\n      sload\n      swap1\n      0x0100\n      exp\n      swap1\n      div\n      0xff\n      and\n        /* \"Contracts/MoonV1Gater.sol\":1663:1669  _gater */\n      dup2\n        /* \"Contracts/MoonV1Gater.sol\":1663:1676  _gater.unlock */\n      0x0100\n      add\n        /* \"Contracts/MoonV1Gater.sol\":1663:1714  _gater.unlock = gateList[_gater.gateAddress].unlock */\n      swap1\n      iszero\n      iszero\n      swap1\n      dup2\n      iszero\n      iszero\n      dup2\n      mstore\n      pop\n      pop\n        /* \"Contracts/MoonV1Gater.sol\":1755:1761  _gater */\n      dup1\n        /* \"Contracts/MoonV1Gater.sol\":1724:1732  gateList */\n      0x01\n        /* \"Contracts/MoonV1Gater.sol\":1724:1752  gateList[_gater.gateAddress] */\n      0x00\n        /* \"Contracts/MoonV1Gater.sol\":1733:1739  _gater */\n      dup4\n        /* \"Contracts/MoonV1Gater.sol\":1733:1751  _gater.gateAddress */\n      0x20\n      add\n      mload\n        /* \"Contracts/MoonV1Gater.sol\":1724:1752  gateList[_gater.gateAddress] */\n      0xffffffffffffffffffffffffffffffffffffffff\n      and\n      0xffffffffffffffffffffffffffffffffffffffff\n      and\n      dup2\n      mstore\n      0x20\n      add\n      swap1\n      dup2\n      mstore\n      0x20\n      add\n      0x00\n      keccak256\n        /* \"Contracts/MoonV1Gater.sol\":1724:1761  gateList[_gater.gateAddress] = _gater */\n      0x00\n      dup3\n      add\n      mload\n      dup2\n      0x00\n      add\n      exp(0x0100, 0x00)\n      dup2\n      sload\n      dup2\n      0xffffffffffffffffffffffffffffffffffffffff\n      mul\n      not\n      and\n      swap1\n      dup4\n      0xffffffffffffffffffffffffffffffffffffffff\n      and\n      mul\n      or\n      swap1\n      sstore\n      pop\n      0x20\n      dup3\n      add\n      mload\n      dup2\n      0x01\n      add\n      exp(0x0100, 0x00)\n      dup2\n      sload\n      dup2\n      0xffffffffffffffffffffffffffffffffffffffff\n      mul\n      not\n      and\n      swap1\n      dup4\n      0xffffffffffffffffffffffffffffffffffffffff\n      and\n      mul\n      or\n      swap1\n      sstore\n      pop\n      0x40\n      dup3\n      add\n      mload\n      dup2\n      0x02\n      add\n      exp(0x0100, 0x00)\n      dup2\n      sload\n      dup2\n      0xffffffffffffffffffffffffffffffffffffffff\n      mul\n      not\n      and\n      swap1\n      dup4\n      0xffffffffffffffffffffffffffffffffffffffff\n      and\n      mul\n      or\n      swap1\n      sstore\n      pop\n      0x60\n      dup3\n      add\n      mload\n      dup2\n      0x03\n      add\n      sstore\n      0x80\n      dup3\n      add\n      mload\n      dup2\n      0x04\n      add\n      sstore\n      0xa0\n      dup3\n      add\n      mload\n      dup2\n      0x05\n      add\n      swap1\n      0x0a\n      tag_201\n      swap3\n      swap2\n      swap1\n      tag_202\n      jump\t// in\n    tag_201:\n      pop\n      0xc0\n      dup3\n      add\n      mload\n      dup2\n      0x0f\n      add\n      exp(0x0100, 0x00)\n      dup2\n      sload\n      dup2\n      0xffffffff\n      mul\n      not\n      and\n      swap1\n      dup4\n      0xffffffff\n      and\n      mul\n      or\n      swap1\n      sstore\n      pop\n      0xe0\n      dup3\n      add\n      mload\n      dup2\n      0x0f\n      add\n      exp(0x0100, 0x04)\n      dup2\n      sload\n      dup2\n      0xff\n      mul\n      not\n      and\n      swap1\n      dup4\n      iszero\n      iszero\n      mul\n      or\n      swap1\n      sstore\n      pop\n      0x0100\n      dup3\n      add\n      mload\n      dup2\n      0x0f\n      add\n      exp(0x0100, 0x05)\n      dup2\n      sload\n      dup2\n      0xff\n      mul\n      not\n      and\n      swap1\n      dup4\n      iszero\n      iszero\n      mul\n      or\n      swap1\n      sstore\n      pop\n      0x0120\n      dup3\n      add\n      mload\n      dup2\n      0x0f\n      add\n      exp(0x0100, 0x06)\n      dup2\n      sload\n      dup2\n      0xff\n      mul\n      not\n      and\n      swap1\n      dup4\n      iszero\n      iszero\n      mul\n      or\n      swap1\n      sstore\n      pop\n      swap1\n      pop\n      pop\n        /* \"Contracts/MoonV1Gater.sol\":1357:1768  function updateGatebyMarketor(LGate.Info memory _gater)... */\n      pop\n      jump\t// out\n        /* \"Contracts/MoonV1Manager.sol\":229:275  mapping(address => bool) public marketManagers */\n    tag_93:\n      mstore(0x20, 0x00)\n      dup1\n      0x00\n      mstore\n      keccak256(0x00, 0x40)\n      0x00\n      swap2\n      pop\n      sload\n      swap1\n      0x0100\n      exp\n      swap1\n      div\n      0xff\n      and\n      dup2\n      jump\t// out\n        /* \"Contracts/MoonV1Gater.sol\":1009:1286  function unlockGatebyMarketor(address _gateraddress)... */\n    tag_97:\n        /* \"Contracts/MoonV1Manager.sol\":629:633  true */\n      0x01\n        /* \"Contracts/MoonV1Manager.sol\":599:633  marketManagers[msg.sender] == true */\n      iszero\n      iszero\n        /* \"Contracts/MoonV1Manager.sol\":599:613  marketManagers */\n      0x00\n        /* \"Contracts/MoonV1Manager.sol\":599:625  marketManagers[msg.sender] */\n      dup1\n        /* \"Contracts/MoonV1Manager.sol\":614:624  msg.sender */\n      caller\n        /* \"Contracts/MoonV1Manager.sol\":599:625  marketManagers[msg.sender] */\n      0xffffffffffffffffffffffffffffffffffffffff\n      and\n      0xffffffffffffffffffffffffffffffffffffffff\n      and\n      dup2\n      mstore\n      0x20\n      add\n      swap1\n      dup2\n      mstore\n      0x20\n      add\n      0x00\n      keccak256\n      0x00\n      swap1\n      sload\n      swap1\n      0x0100\n      exp\n      swap1\n      div\n      0xff\n      and\n        /* \"Contracts/MoonV1Manager.sol\":599:633  marketManagers[msg.sender] == true */\n      iszero\n      iszero\n      eq\n        /* \"Contracts/MoonV1Manager.sol\":591:634  require(marketManagers[msg.sender] == true) */\n      tag_204\n      jumpi\n      0x00\n      dup1\n      revert\n    tag_204:\n        /* \"Contracts/MoonV1Gater.sol\":1174:1178  true */\n      0x01\n        /* \"Contracts/MoonV1Gater.sol\":1140:1178  gateList[_gateraddress].isUsed == true */\n      iszero\n      iszero\n        /* \"Contracts/MoonV1Gater.sol\":1140:1148  gateList */\n      0x01\n        /* \"Contracts/MoonV1Gater.sol\":1140:1163  gateList[_gateraddress] */\n      0x00\n        /* \"Contracts/MoonV1Gater.sol\":1149:1162  _gateraddress */\n      dup4\n        /* \"Contracts/MoonV1Gater.sol\":1140:1163  gateList[_gateraddress] */\n      0xffffffffffffffffffffffffffffffffffffffff\n      and\n      0xffffffffffffffffffffffffffffffffffffffff\n      and\n      dup2\n      mstore\n      0x20\n      add\n      swap1\n      dup2\n      mstore\n      0x20\n      add\n      0x00\n      keccak256\n        /* \"Contracts/MoonV1Gater.sol\":1140:1170  gateList[_gateraddress].isUsed */\n      0x0f\n      add\n      0x06\n      swap1\n      sload\n      swap1\n      0x0100\n      exp\n      swap1\n      div\n      0xff\n      and\n        /* \"Contracts/MoonV1Gater.sol\":1140:1178  gateList[_gateraddress].isUsed == true */\n      iszero\n      iszero\n      eq\n        /* \"Contracts/MoonV1Gater.sol\":1119:1225  require(... */\n      tag_206\n      jumpi\n      mload(0x40)\n      0x08c379a000000000000000000000000000000000000000000000000000000000\n      dup2\n      mstore\n      0x04\n      add\n      tag_207\n      swap1\n      tag_194\n      jump\t// in\n    tag_207:\n      mload(0x40)\n      dup1\n      swap2\n      sub\n      swap1\n      revert\n    tag_206:\n        /* \"Contracts/MoonV1Gater.sol\":1274:1279  false */\n      0x00\n        /* \"Contracts/MoonV1Gater.sol\":1235:1243  gateList */\n      0x01\n        /* \"Contracts/MoonV1Gater.sol\":1235:1258  gateList[_gateraddress] */\n      0x00\n        /* \"Contracts/MoonV1Gater.sol\":1244:1257  _gateraddress */\n      dup4\n        /* \"Contracts/MoonV1Gater.sol\":1235:1258  gateList[_gateraddress] */\n      0xffffffffffffffffffffffffffffffffffffffff\n      and\n      0xffffffffffffffffffffffffffffffffffffffff\n      and\n      dup2\n      mstore\n      0x20\n      add\n      swap1\n      dup2\n      mstore\n      0x20\n      add\n      0x00\n      keccak256\n        /* \"Contracts/MoonV1Gater.sol\":1235:1271  gateList[_gateraddress].marketunlock */\n      0x0f\n      add\n      0x04\n        /* \"Contracts/MoonV1Gater.sol\":1235:1279  gateList[_gateraddress].marketunlock = false */\n      0x0100\n      exp\n      dup2\n      sload\n      dup2\n      0xff\n      mul\n      not\n      and\n      swap1\n      dup4\n      iszero\n      iszero\n      mul\n      or\n      swap1\n      sstore\n      pop\n        /* \"Contracts/MoonV1Gater.sol\":1009:1286  function unlockGatebyMarketor(address _gateraddress)... */\n      pop\n      jump\t// out\n        /* \"Contracts/MoonV1Customer.sol\":3484:3653  function isValidCustomer(address _CustomerAddress)... */\n    tag_100:\n        /* \"Contracts/MoonV1Customer.sol\":3582:3586  bool */\n      0x00\n        /* \"Contracts/MoonV1Customer.sol\":3609:3621  customerList */\n      0x02\n        /* \"Contracts/MoonV1Customer.sol\":3609:3639  customerList[_CustomerAddress] */\n      0x00\n        /* \"Contracts/MoonV1Customer.sol\":3622:3638  _CustomerAddress */\n      dup4\n        /* \"Contracts/MoonV1Customer.sol\":3609:3639  customerList[_CustomerAddress] */\n      0xffffffffffffffffffffffffffffffffffffffff\n      and\n      0xffffffffffffffffffffffffffffffffffffffff\n      and\n      dup2\n      mstore\n      0x20\n      add\n      swap1\n      dup2\n      mstore\n      0x20\n      add\n      0x00\n      keccak256\n        /* \"Contracts/MoonV1Customer.sol\":3609:3646  customerList[_CustomerAddress].isUsed */\n      0x03\n      add\n      0x14\n      swap1\n      sload\n      swap1\n      0x0100\n      exp\n      swap1\n      div\n      0xff\n      and\n        /* \"Contracts/MoonV1Customer.sol\":3602:3646  return customerList[_CustomerAddress].isUsed */\n      swap1\n      pop\n        /* \"Contracts/MoonV1Customer.sol\":3484:3653  function isValidCustomer(address _CustomerAddress)... */\n      swap2\n      swap1\n      pop\n      jump\t// out\n        /* \"Contracts/MoonV1Customer.sol\":4209:4497  function getCustomerInfobyRecommander(... */\n    tag_104:\n        /* \"Contracts/MoonV1Customer.sol\":4338:4345  address */\n      0x00\n        /* \"Contracts/MoonV1Customer.sol\":4389:4390  0 */\n      dup1\n        /* \"Contracts/MoonV1Customer.sol\":4365:4391  _recommander != address(0) */\n      0xffffffffffffffffffffffffffffffffffffffff\n      and\n        /* \"Contracts/MoonV1Customer.sol\":4365:4377  _recommander */\n      dup4\n        /* \"Contracts/MoonV1Customer.sol\":4365:4391  _recommander != address(0) */\n      0xffffffffffffffffffffffffffffffffffffffff\n      and\n      eq\n      iszero\n        /* \"Contracts/MoonV1Customer.sol\":4357:4420  require(_recommander != address(0), \"customer address is null\") */\n      tag_210\n      jumpi\n      mload(0x40)\n      0x08c379a000000000000000000000000000000000000000000000000000000000\n      dup2\n      mstore\n      0x04\n      add\n      tag_211\n      swap1\n      tag_212\n      jump\t// in\n    tag_211:\n      mload(0x40)\n      dup1\n      swap2\n      sub\n      swap1\n      revert\n    tag_210:\n        /* \"Contracts/MoonV1Customer.sol\":4437:4459  recommenderraltionlist */\n      0x06\n        /* \"Contracts/MoonV1Customer.sol\":4437:4473  recommenderraltionlist[_recommander] */\n      0x00\n        /* \"Contracts/MoonV1Customer.sol\":4460:4472  _recommander */\n      dup5\n        /* \"Contracts/MoonV1Customer.sol\":4437:4473  recommenderraltionlist[_recommander] */\n      0xffffffffffffffffffffffffffffffffffffffff\n      and\n      0xffffffffffffffffffffffffffffffffffffffff\n      and\n      dup2\n      mstore\n      0x20\n      add\n      swap1\n      dup2\n      mstore\n      0x20\n      add\n      0x00\n      keccak256\n        /* \"Contracts/MoonV1Customer.sol\":4437:4490  recommenderraltionlist[_recommander][_cumstomerindex] */\n      0x00\n        /* \"Contracts/MoonV1Customer.sol\":4474:4489  _cumstomerindex */\n      dup4\n        /* \"Contracts/MoonV1Customer.sol\":4437:4490  recommenderraltionlist[_recommander][_cumstomerindex] */\n      0xffffffff\n      and\n      0xffffffff\n      and\n      dup2\n      mstore\n      0x20\n      add\n      swap1\n      dup2\n      mstore\n      0x20\n      add\n      0x00\n      keccak256\n      0x00\n      swap1\n      sload\n      swap1\n      0x0100\n      exp\n      swap1\n      div\n      0xffffffffffffffffffffffffffffffffffffffff\n      and\n        /* \"Contracts/MoonV1Customer.sol\":4430:4490  return recommenderraltionlist[_recommander][_cumstomerindex] */\n      swap1\n      pop\n        /* \"Contracts/MoonV1Customer.sol\":4209:4497  function getCustomerInfobyRecommander(... */\n      swap3\n      swap2\n      pop\n      pop\n      jump\t// out\n        /* \"Contracts/MoonV1Customer.sol\":3953:4203  function getCustomerNumbyRecommander(address _recommander)... */\n    tag_108:\n        /* \"Contracts/MoonV1Customer.sol\":4059:4065  uint32 */\n      0x00\n        /* \"Contracts/MoonV1Customer.sol\":4113:4114  0 */\n      dup1\n        /* \"Contracts/MoonV1Customer.sol\":4089:4115  _recommander != address(0) */\n      0xffffffffffffffffffffffffffffffffffffffff\n      and\n        /* \"Contracts/MoonV1Customer.sol\":4089:4101  _recommander */\n      dup3\n        /* \"Contracts/MoonV1Customer.sol\":4089:4115  _recommander != address(0) */\n      0xffffffffffffffffffffffffffffffffffffffff\n      and\n      eq\n      iszero\n        /* \"Contracts/MoonV1Customer.sol\":4081:4144  require(_recommander != address(0), \"customer address is null\") */\n      tag_214\n      jumpi\n      mload(0x40)\n      0x08c379a000000000000000000000000000000000000000000000000000000000\n      dup2\n      mstore\n      0x04\n      add\n      tag_215\n      swap1\n      tag_212\n      jump\t// in\n    tag_215:\n      mload(0x40)\n      dup1\n      swap2\n      sub\n      swap1\n      revert\n    tag_214:\n        /* \"Contracts/MoonV1Customer.sol\":4161:4182  recommenderraltionkey */\n      0x05\n        /* \"Contracts/MoonV1Customer.sol\":4161:4196  recommenderraltionkey[_recommander] */\n      0x00\n        /* \"Contracts/MoonV1Customer.sol\":4183:4195  _recommander */\n      dup4\n        /* \"Contracts/MoonV1Customer.sol\":4161:4196  recommenderraltionkey[_recommander] */\n      0xffffffffffffffffffffffffffffffffffffffff\n      and\n      0xffffffffffffffffffffffffffffffffffffffff\n      and\n      dup2\n      mstore\n      0x20\n      add\n      swap1\n      dup2\n      mstore\n      0x20\n      add\n      0x00\n      keccak256\n      0x00\n      swap1\n      sload\n      swap1\n      0x0100\n      exp\n      swap1\n      div\n      0xffffffff\n      and\n        /* \"Contracts/MoonV1Customer.sol\":4154:4196  return recommenderraltionkey[_recommander] */\n      swap1\n      pop\n        /* \"Contracts/MoonV1Customer.sol\":3953:4203  function getCustomerNumbyRecommander(address _recommander)... */\n      swap2\n      swap1\n      pop\n      jump\t// out\n        /* \"Contracts/MoonV1Gater.sol\":729:1003  function lockGatebyMarketor(address _gateraddress)... */\n    tag_113:\n        /* \"Contracts/MoonV1Manager.sol\":629:633  true */\n      0x01\n        /* \"Contracts/MoonV1Manager.sol\":599:633  marketManagers[msg.sender] == true */\n      iszero\n      iszero\n        /* \"Contracts/MoonV1Manager.sol\":599:613  marketManagers */\n      0x00\n        /* \"Contracts/MoonV1Manager.sol\":599:625  marketManagers[msg.sender] */\n      dup1\n        /* \"Contracts/MoonV1Manager.sol\":614:624  msg.sender */\n      caller\n        /* \"Contracts/MoonV1Manager.sol\":599:625  marketManagers[msg.sender] */\n      0xffffffffffffffffffffffffffffffffffffffff\n      and\n      0xffffffffffffffffffffffffffffffffffffffff\n      and\n      dup2\n      mstore\n      0x20\n      add\n      swap1\n      dup2\n      mstore\n      0x20\n      add\n      0x00\n      keccak256\n      0x00\n      swap1\n      sload\n      swap1\n      0x0100\n      exp\n      swap1\n      div\n      0xff\n      and\n        /* \"Contracts/MoonV1Manager.sol\":599:633  marketManagers[msg.sender] == true */\n      iszero\n      iszero\n      eq\n        /* \"Contracts/MoonV1Manager.sol\":591:634  require(marketManagers[msg.sender] == true) */\n      tag_217\n      jumpi\n      0x00\n      dup1\n      revert\n    tag_217:\n        /* \"Contracts/MoonV1Gater.sol\":892:896  true */\n      0x01\n        /* \"Contracts/MoonV1Gater.sol\":858:896  gateList[_gateraddress].isUsed == true */\n      iszero\n      iszero\n        /* \"Contracts/MoonV1Gater.sol\":858:866  gateList */\n      0x01\n        /* \"Contracts/MoonV1Gater.sol\":858:881  gateList[_gateraddress] */\n      0x00\n        /* \"Contracts/MoonV1Gater.sol\":867:880  _gateraddress */\n      dup4\n        /* \"Contracts/MoonV1Gater.sol\":858:881  gateList[_gateraddress] */\n      0xffffffffffffffffffffffffffffffffffffffff\n      and\n      0xffffffffffffffffffffffffffffffffffffffff\n      and\n      dup2\n      mstore\n      0x20\n      add\n      swap1\n      dup2\n      mstore\n      0x20\n      add\n      0x00\n      keccak256\n        /* \"Contracts/MoonV1Gater.sol\":858:888  gateList[_gateraddress].isUsed */\n      0x0f\n      add\n      0x06\n      swap1\n      sload\n      swap1\n      0x0100\n      exp\n      swap1\n      div\n      0xff\n      and\n        /* \"Contracts/MoonV1Gater.sol\":858:896  gateList[_gateraddress].isUsed == true */\n      iszero\n      iszero\n      eq\n        /* \"Contracts/MoonV1Gater.sol\":837:943  require(... */\n      tag_219\n      jumpi\n      mload(0x40)\n      0x08c379a000000000000000000000000000000000000000000000000000000000\n      dup2\n      mstore\n      0x04\n      add\n      tag_220\n      swap1\n      tag_194\n      jump\t// in\n    tag_220:\n      mload(0x40)\n      dup1\n      swap2\n      sub\n      swap1\n      revert\n    tag_219:\n        /* \"Contracts/MoonV1Gater.sol\":992:996  true */\n      0x01\n        /* \"Contracts/MoonV1Gater.sol\":953:961  gateList */\n      dup1\n        /* \"Contracts/MoonV1Gater.sol\":953:976  gateList[_gateraddress] */\n      0x00\n        /* \"Contracts/MoonV1Gater.sol\":962:975  _gateraddress */\n      dup4\n        /* \"Contracts/MoonV1Gater.sol\":953:976  gateList[_gateraddress] */\n      0xffffffffffffffffffffffffffffffffffffffff\n      and\n      0xffffffffffffffffffffffffffffffffffffffff\n      and\n      dup2\n      mstore\n      0x20\n      add\n      swap1\n      dup2\n      mstore\n      0x20\n      add\n      0x00\n      keccak256\n        /* \"Contracts/MoonV1Gater.sol\":953:989  gateList[_gateraddress].marketunlock */\n      0x0f\n      add\n      0x04\n        /* \"Contracts/MoonV1Gater.sol\":953:996  gateList[_gateraddress].marketunlock = true */\n      0x0100\n      exp\n      dup2\n      sload\n      dup2\n      0xff\n      mul\n      not\n      and\n      swap1\n      dup4\n      iszero\n      iszero\n      mul\n      or\n      swap1\n      sstore\n      pop\n        /* \"Contracts/MoonV1Gater.sol\":729:1003  function lockGatebyMarketor(address _gateraddress)... */\n      pop\n      jump\t// out\n        /* \"Contracts/MoonV1Customer.sol\":650:734  mapping(address => mapping(uint32 => address))... */\n    tag_116:\n      mstore(0x20, 0x06)\n      dup2\n      0x00\n      mstore\n      mstore(0x20, keccak256(0x00, 0x40))\n      dup1\n      0x00\n      mstore\n      keccak256(0x00, 0x40)\n      0x00\n      swap2\n      pop\n      swap2\n      pop\n      swap1\n      sload\n      swap1\n      0x0100\n      exp\n      swap1\n      div\n      0xffffffffffffffffffffffffffffffffffffffff\n      and\n      dup2\n      jump\t// out\n        /* \"Contracts/MoonV1Gater.sol\":3617:3727  function isValidGater() external view returns (bool) {... */\n    tag_119:\n        /* \"Contracts/MoonV1Gater.sol\":3664:3668  bool */\n      0x00\n        /* \"Contracts/MoonV1Gater.sol\":3687:3695  gateList */\n      0x01\n        /* \"Contracts/MoonV1Gater.sol\":3687:3707  gateList[msg.sender] */\n      0x00\n        /* \"Contracts/MoonV1Gater.sol\":3696:3706  msg.sender */\n      caller\n        /* \"Contracts/MoonV1Gater.sol\":3687:3707  gateList[msg.sender] */\n      0xffffffffffffffffffffffffffffffffffffffff\n      and\n      0xffffffffffffffffffffffffffffffffffffffff\n      and\n      dup2\n      mstore\n      0x20\n      add\n      swap1\n      dup2\n      mstore\n      0x20\n      add\n      0x00\n      keccak256\n        /* \"Contracts/MoonV1Gater.sol\":3687:3720  gateList[msg.sender].marketunlock */\n      0x0f\n      add\n      0x04\n      swap1\n      sload\n      swap1\n      0x0100\n      exp\n      swap1\n      div\n      0xff\n      and\n        /* \"Contracts/MoonV1Gater.sol\":3680:3720  return gateList[msg.sender].marketunlock */\n      swap1\n      pop\n        /* \"Contracts/MoonV1Gater.sol\":3617:3727  function isValidGater() external view returns (bool) {... */\n      swap1\n      jump\t// out\n        /* \"Contracts/MoonV1Gater.sol\":1774:1959  function delGatebyMarketor(address _gater) external onlyMarketManager {... */\n    tag_123:\n        /* \"Contracts/MoonV1Manager.sol\":629:633  true */\n      0x01\n        /* \"Contracts/MoonV1Manager.sol\":599:633  marketManagers[msg.sender] == true */\n      iszero\n      iszero\n        /* \"Contracts/MoonV1Manager.sol\":599:613  marketManagers */\n      0x00\n        /* \"Contracts/MoonV1Manager.sol\":599:625  marketManagers[msg.sender] */\n      dup1\n        /* \"Contracts/MoonV1Manager.sol\":614:624  msg.sender */\n      caller\n        /* \"Contracts/MoonV1Manager.sol\":599:625  marketManagers[msg.sender] */\n      0xffffffffffffffffffffffffffffffffffffffff\n      and\n      0xffffffffffffffffffffffffffffffffffffffff\n      and\n      dup2\n      mstore\n      0x20\n      add\n      swap1\n      dup2\n      mstore\n      0x20\n      add\n      0x00\n      keccak256\n      0x00\n      swap1\n      sload\n      swap1\n      0x0100\n      exp\n      swap1\n      div\n      0xff\n      and\n        /* \"Contracts/MoonV1Manager.sol\":599:633  marketManagers[msg.sender] == true */\n      iszero\n      iszero\n      eq\n        /* \"Contracts/MoonV1Manager.sol\":591:634  require(marketManagers[msg.sender] == true) */\n      tag_223\n      jumpi\n      0x00\n      dup1\n      revert\n    tag_223:\n        /* \"Contracts/MoonV1Gater.sol\":1889:1893  true */\n      0x01\n        /* \"Contracts/MoonV1Gater.sol\":1862:1893  gateList[_gater].isUsed == true */\n      iszero\n      iszero\n        /* \"Contracts/MoonV1Gater.sol\":1862:1870  gateList */\n      0x01\n        /* \"Contracts/MoonV1Gater.sol\":1862:1878  gateList[_gater] */\n      0x00\n        /* \"Contracts/MoonV1Gater.sol\":1871:1877  _gater */\n      dup4\n        /* \"Contracts/MoonV1Gater.sol\":1862:1878  gateList[_gater] */\n      0xffffffffffffffffffffffffffffffffffffffff\n      and\n      0xffffffffffffffffffffffffffffffffffffffff\n      and\n      dup2\n      mstore\n      0x20\n      add\n      swap1\n      dup2\n      mstore\n      0x20\n      add\n      0x00\n      keccak256\n        /* \"Contracts/MoonV1Gater.sol\":1862:1885  gateList[_gater].isUsed */\n      0x0f\n      add\n      0x06\n      swap1\n      sload\n      swap1\n      0x0100\n      exp\n      swap1\n      div\n      0xff\n      and\n        /* \"Contracts/MoonV1Gater.sol\":1862:1893  gateList[_gater].isUsed == true */\n      iszero\n      iszero\n      eq\n        /* \"Contracts/MoonV1Gater.sol\":1854:1918  require(gateList[_gater].isUsed == true, \"the gater is exister\") */\n      tag_225\n      jumpi\n      mload(0x40)\n      0x08c379a000000000000000000000000000000000000000000000000000000000\n      dup2\n      mstore\n      0x04\n      add\n      tag_226\n      swap1\n      tag_200\n      jump\t// in\n    tag_226:\n      mload(0x40)\n      dup1\n      swap2\n      sub\n      swap1\n      revert\n    tag_225:\n        /* \"Contracts/MoonV1Gater.sol\":1936:1944  gateList */\n      0x01\n        /* \"Contracts/MoonV1Gater.sol\":1936:1952  gateList[_gater] */\n      0x00\n        /* \"Contracts/MoonV1Gater.sol\":1945:1951  _gater */\n      dup3\n        /* \"Contracts/MoonV1Gater.sol\":1936:1952  gateList[_gater] */\n      0xffffffffffffffffffffffffffffffffffffffff\n      and\n      0xffffffffffffffffffffffffffffffffffffffff\n      and\n      dup2\n      mstore\n      0x20\n      add\n      swap1\n      dup2\n      mstore\n      0x20\n      add\n      0x00\n      keccak256\n      0x00\n        /* \"Contracts/MoonV1Gater.sol\":1929:1952  delete gateList[_gater] */\n      dup1\n      dup3\n      add\n      exp(0x0100, 0x00)\n      dup2\n      sload\n      swap1\n      0xffffffffffffffffffffffffffffffffffffffff\n      mul\n      not\n      and\n      swap1\n      sstore\n      0x01\n      dup3\n      add\n      exp(0x0100, 0x00)\n      dup2\n      sload\n      swap1\n      0xffffffffffffffffffffffffffffffffffffffff\n      mul\n      not\n      and\n      swap1\n      sstore\n      0x02\n      dup3\n      add\n      exp(0x0100, 0x00)\n      dup2\n      sload\n      swap1\n      0xffffffffffffffffffffffffffffffffffffffff\n      mul\n      not\n      and\n      swap1\n      sstore\n      0x03\n      dup3\n      add\n      0x00\n      swap1\n      sstore\n      0x04\n      dup3\n      add\n      0x00\n      swap1\n      sstore\n      0x05\n      dup3\n      add\n      0x00\n      tag_227\n      swap2\n      swap1\n      tag_228\n      jump\t// in\n    tag_227:\n      0x0f\n      dup3\n      add\n      exp(0x0100, 0x00)\n      dup2\n      sload\n      swap1\n      0xffffffff\n      mul\n      not\n      and\n      swap1\n      sstore\n      0x0f\n      dup3\n      add\n      exp(0x0100, 0x04)\n      dup2\n      sload\n      swap1\n      0xff\n      mul\n      not\n      and\n      swap1\n      sstore\n      0x0f\n      dup3\n      add\n      exp(0x0100, 0x05)\n      dup2\n      sload\n      swap1\n      0xff\n      mul\n      not\n      and\n      swap1\n      sstore\n      0x0f\n      dup3\n      add\n      exp(0x0100, 0x06)\n      dup2\n      sload\n      swap1\n      0xff\n      mul\n      not\n      and\n      swap1\n      sstore\n      pop\n      pop\n        /* \"Contracts/MoonV1Gater.sol\":1774:1959  function delGatebyMarketor(address _gater) external onlyMarketManager {... */\n      pop\n      jump\t// out\n        /* \"Contracts/MoonV1Customer.sol\":741:794  mapping(address => uint32) public gateCustomerNextKey */\n    tag_126:\n      mstore(0x20, 0x07)\n      dup1\n      0x00\n      mstore\n      keccak256(0x00, 0x40)\n      0x00\n      swap2\n      pop\n      sload\n      swap1\n      0x0100\n      exp\n      swap1\n      div\n      0xffffffff\n      and\n      dup2\n      jump\t// out\n        /* \"Contracts/MoonV1Customer.sol\":1335:1627  function unlockCustomerbyMarketor(address _CustomerAddress)... */\n    tag_130:\n        /* \"Contracts/MoonV1Manager.sol\":629:633  true */\n      0x01\n        /* \"Contracts/MoonV1Manager.sol\":599:633  marketManagers[msg.sender] == true */\n      iszero\n      iszero\n        /* \"Contracts/MoonV1Manager.sol\":599:613  marketManagers */\n      0x00\n        /* \"Contracts/MoonV1Manager.sol\":599:625  marketManagers[msg.sender] */\n      dup1\n        /* \"Contracts/MoonV1Manager.sol\":614:624  msg.sender */\n      caller\n        /* \"Contracts/MoonV1Manager.sol\":599:625  marketManagers[msg.sender] */\n      0xffffffffffffffffffffffffffffffffffffffff\n      and\n      0xffffffffffffffffffffffffffffffffffffffff\n      and\n      dup2\n      mstore\n      0x20\n      add\n      swap1\n      dup2\n      mstore\n      0x20\n      add\n      0x00\n      keccak256\n      0x00\n      swap1\n      sload\n      swap1\n      0x0100\n      exp\n      swap1\n      div\n      0xff\n      and\n        /* \"Contracts/MoonV1Manager.sol\":599:633  marketManagers[msg.sender] == true */\n      iszero\n      iszero\n      eq\n        /* \"Contracts/MoonV1Manager.sol\":591:634  require(marketManagers[msg.sender] == true) */\n      tag_230\n      jumpi\n      0x00\n      dup1\n      revert\n    tag_230:\n        /* \"Contracts/MoonV1Customer.sol\":1514:1518  true */\n      0x01\n        /* \"Contracts/MoonV1Customer.sol\":1473:1518  customerList[_CustomerAddress].isUsed != true */\n      iszero\n      iszero\n        /* \"Contracts/MoonV1Customer.sol\":1473:1485  customerList */\n      0x02\n        /* \"Contracts/MoonV1Customer.sol\":1473:1503  customerList[_CustomerAddress] */\n      0x00\n        /* \"Contracts/MoonV1Customer.sol\":1486:1502  _CustomerAddress */\n      dup4\n        /* \"Contracts/MoonV1Customer.sol\":1473:1503  customerList[_CustomerAddress] */\n      0xffffffffffffffffffffffffffffffffffffffff\n      and\n      0xffffffffffffffffffffffffffffffffffffffff\n      and\n      dup2\n      mstore\n      0x20\n      add\n      swap1\n      dup2\n      mstore\n      0x20\n      add\n      0x00\n      keccak256\n        /* \"Contracts/MoonV1Customer.sol\":1473:1510  customerList[_CustomerAddress].isUsed */\n      0x03\n      add\n      0x14\n      swap1\n      sload\n      swap1\n      0x0100\n      exp\n      swap1\n      div\n      0xff\n      and\n        /* \"Contracts/MoonV1Customer.sol\":1473:1518  customerList[_CustomerAddress].isUsed != true */\n      iszero\n      iszero\n      eq\n      iszero\n        /* \"Contracts/MoonV1Customer.sol\":1452:1566  require(... */\n      tag_232\n      jumpi\n      mload(0x40)\n      0x08c379a000000000000000000000000000000000000000000000000000000000\n      dup2\n      mstore\n      0x04\n      add\n      tag_233\n      swap1\n      tag_172\n      jump\t// in\n    tag_233:\n      mload(0x40)\n      dup1\n      swap2\n      sub\n      swap1\n      revert\n    tag_232:\n        /* \"Contracts/MoonV1Customer.sol\":1616:1620  true */\n      0x01\n        /* \"Contracts/MoonV1Customer.sol\":1576:1588  customerList */\n      0x02\n        /* \"Contracts/MoonV1Customer.sol\":1576:1606  customerList[_CustomerAddress] */\n      0x00\n        /* \"Contracts/MoonV1Customer.sol\":1589:1605  _CustomerAddress */\n      dup4\n        /* \"Contracts/MoonV1Customer.sol\":1576:1606  customerList[_CustomerAddress] */\n      0xffffffffffffffffffffffffffffffffffffffff\n      and\n      0xffffffffffffffffffffffffffffffffffffffff\n      and\n      dup2\n      mstore\n      0x20\n      add\n      swap1\n      dup2\n      mstore\n      0x20\n      add\n      0x00\n      keccak256\n        /* \"Contracts/MoonV1Customer.sol\":1576:1613  customerList[_CustomerAddress].unlock */\n      0x03\n      add\n      0x15\n        /* \"Contracts/MoonV1Customer.sol\":1576:1620  customerList[_CustomerAddress].unlock = true */\n      0x0100\n      exp\n      dup2\n      sload\n      dup2\n      0xff\n      mul\n      not\n      and\n      swap1\n      dup4\n      iszero\n      iszero\n      mul\n      or\n      swap1\n      sstore\n      pop\n        /* \"Contracts/MoonV1Customer.sol\":1335:1627  function unlockCustomerbyMarketor(address _CustomerAddress)... */\n      pop\n      jump\t// out\n        /* \"Contracts/MoonV1Customer.sol\":3178:3478  function getCustomer(address _CustomerAddress)... */\n    tag_133:\n        /* \"Contracts/MoonV1Customer.sol\":3272:3293  LCustomer.Info memory */\n      tag_234\n      tag_235\n      jump\t// in\n    tag_234:\n        /* \"Contracts/MoonV1Customer.sol\":3371:3375  true */\n      0x01\n        /* \"Contracts/MoonV1Customer.sol\":3330:3375  customerList[_CustomerAddress].isUsed == true */\n      iszero\n      iszero\n        /* \"Contracts/MoonV1Customer.sol\":3330:3342  customerList */\n      0x02\n        /* \"Contracts/MoonV1Customer.sol\":3330:3360  customerList[_CustomerAddress] */\n      0x00\n        /* \"Contracts/MoonV1Customer.sol\":3343:3359  _CustomerAddress */\n      dup5\n        /* \"Contracts/MoonV1Customer.sol\":3330:3360  customerList[_CustomerAddress] */\n      0xffffffffffffffffffffffffffffffffffffffff\n      and\n      0xffffffffffffffffffffffffffffffffffffffff\n      and\n      dup2\n      mstore\n      0x20\n      add\n      swap1\n      dup2\n      mstore\n      0x20\n      add\n      0x00\n      keccak256\n        /* \"Contracts/MoonV1Customer.sol\":3330:3367  customerList[_CustomerAddress].isUsed */\n      0x03\n      add\n      0x14\n      swap1\n      sload\n      swap1\n      0x0100\n      exp\n      swap1\n      div\n      0xff\n      and\n        /* \"Contracts/MoonV1Customer.sol\":3330:3375  customerList[_CustomerAddress].isUsed == true */\n      iszero\n      iszero\n      eq\n        /* \"Contracts/MoonV1Customer.sol\":3309:3424  require(... */\n      tag_237\n      jumpi\n      mload(0x40)\n      0x08c379a000000000000000000000000000000000000000000000000000000000\n      dup2\n      mstore\n      0x04\n      add\n      tag_238\n      swap1\n      tag_239\n      jump\t// in\n    tag_238:\n      mload(0x40)\n      dup1\n      swap2\n      sub\n      swap1\n      revert\n    tag_237:\n        /* \"Contracts/MoonV1Customer.sol\":3441:3453  customerList */\n      0x02\n        /* \"Contracts/MoonV1Customer.sol\":3441:3471  customerList[_CustomerAddress] */\n      0x00\n        /* \"Contracts/MoonV1Customer.sol\":3454:3470  _CustomerAddress */\n      dup4\n        /* \"Contracts/MoonV1Customer.sol\":3441:3471  customerList[_CustomerAddress] */\n      0xffffffffffffffffffffffffffffffffffffffff\n      and\n      0xffffffffffffffffffffffffffffffffffffffff\n      and\n      dup2\n      mstore\n      0x20\n      add\n      swap1\n      dup2\n      mstore\n      0x20\n      add\n      0x00\n      keccak256\n        /* \"Contracts/MoonV1Customer.sol\":3434:3471  return customerList[_CustomerAddress] */\n      mload(0x40)\n      dup1\n      0x0120\n      add\n      0x40\n      mstore\n      swap1\n      dup2\n      0x00\n      dup3\n      add\n      sload\n      dup2\n      mstore\n      0x20\n      add\n      0x01\n      dup3\n      add\n      0x00\n      swap1\n      sload\n      swap1\n      0x0100\n      exp\n      swap1\n      div\n      0xffffffff\n      and\n      0xffffffff\n      and\n      0xffffffff\n      and\n      dup2\n      mstore\n      0x20\n      add\n      0x01\n      dup3\n      add\n      0x04\n      swap1\n      sload\n      swap1\n      0x0100\n      exp\n      swap1\n      div\n      0xffffffffffffffffffffffffffffffffffffffff\n      and\n      0xffffffffffffffffffffffffffffffffffffffff\n      and\n      0xffffffffffffffffffffffffffffffffffffffff\n      and\n      dup2\n      mstore\n      0x20\n      add\n      0x01\n      dup3\n      add\n      0x18\n      swap1\n      sload\n      swap1\n      0x0100\n      exp\n      swap1\n      div\n      0xffffffffff\n      and\n      0xffffffffff\n      and\n      0xffffffffff\n      and\n      dup2\n      mstore\n      0x20\n      add\n      0x02\n      dup3\n      add\n      0x00\n      swap1\n      sload\n      swap1\n      0x0100\n      exp\n      swap1\n      div\n      0xffffffffffffffffffffffffffffffffffffffff\n      and\n      0xffffffffffffffffffffffffffffffffffffffff\n      and\n      0xffffffffffffffffffffffffffffffffffffffff\n      and\n      dup2\n      mstore\n      0x20\n      add\n      0x02\n      dup3\n      add\n      0x14\n      swap1\n      sload\n      swap1\n      0x0100\n      exp\n      swap1\n      div\n      0xffffffff\n      and\n      0xffffffff\n      and\n      0xffffffff\n      and\n      dup2\n      mstore\n      0x20\n      add\n      0x03\n      dup3\n      add\n      0x00\n      swap1\n      sload\n      swap1\n      0x0100\n      exp\n      swap1\n      div\n      0xffffffffffffffffffffffffffffffffffffffff\n      and\n      0xffffffffffffffffffffffffffffffffffffffff\n      and\n      0xffffffffffffffffffffffffffffffffffffffff\n      and\n      dup2\n      mstore\n      0x20\n      add\n      0x03\n      dup3\n      add\n      0x14\n      swap1\n      sload\n      swap1\n      0x0100\n      exp\n      swap1\n      div\n      0xff\n      and\n      iszero\n      iszero\n      iszero\n      iszero\n      dup2\n      mstore\n      0x20\n      add\n      0x03\n      dup3\n      add\n      0x15\n      swap1\n      sload\n      swap1\n      0x0100\n      exp\n      swap1\n      div\n      0xff\n      and\n      iszero\n      iszero\n      iszero\n      iszero\n      dup2\n      mstore\n      pop\n      pop\n      swap1\n      pop\n        /* \"Contracts/MoonV1Customer.sol\":3178:3478  function getCustomer(address _CustomerAddress)... */\n      swap2\n      swap1\n      pop\n      jump\t// out\n        /* \"Contracts/MoonV1Manager.sol\":875:990  function setMarketManager(address _owner) external onlyMarketCreator {... */\n    tag_138:\n        /* \"Contracts/MoonV1Manager.sol\":406:419  marketCreator */\n      immutable(\"0xe6f961b5eaec29807fd460af12fbd720c7c4993791c080ad8e40c06b783956d8\")\n        /* \"Contracts/MoonV1Manager.sol\":392:419  msg.sender == marketCreator */\n      0xffffffffffffffffffffffffffffffffffffffff\n      and\n        /* \"Contracts/MoonV1Manager.sol\":392:402  msg.sender */\n      caller\n        /* \"Contracts/MoonV1Manager.sol\":392:419  msg.sender == marketCreator */\n      0xffffffffffffffffffffffffffffffffffffffff\n      and\n      eq\n        /* \"Contracts/MoonV1Manager.sol\":384:420  require(msg.sender == marketCreator) */\n      tag_241\n      jumpi\n      0x00\n      dup1\n      revert\n    tag_241:\n        /* \"Contracts/MoonV1Manager.sol\":979:983  true */\n      0x01\n        /* \"Contracts/MoonV1Manager.sol\":954:968  marketManagers */\n      0x00\n        /* \"Contracts/MoonV1Manager.sol\":954:976  marketManagers[_owner] */\n      dup1\n        /* \"Contracts/MoonV1Manager.sol\":969:975  _owner */\n      dup4\n        /* \"Contracts/MoonV1Manager.sol\":954:976  marketManagers[_owner] */\n      0xffffffffffffffffffffffffffffffffffffffff\n      and\n      0xffffffffffffffffffffffffffffffffffffffff\n      and\n      dup2\n      mstore\n      0x20\n      add\n      swap1\n      dup2\n      mstore\n      0x20\n      add\n      0x00\n      keccak256\n      0x00\n        /* \"Contracts/MoonV1Manager.sol\":954:983  marketManagers[_owner] = true */\n      0x0100\n      exp\n      dup2\n      sload\n      dup2\n      0xff\n      mul\n      not\n      and\n      swap1\n      dup4\n      iszero\n      iszero\n      mul\n      or\n      swap1\n      sstore\n      pop\n        /* \"Contracts/MoonV1Manager.sol\":875:990  function setMarketManager(address _owner) external onlyMarketCreator {... */\n      pop\n      jump\t// out\n        /* \"Contracts/MoonV1Gater.sol\":3152:3611  function addGater(LGate.Info memory _gater) external {... */\n    tag_141:\n        /* \"Contracts/MoonV1Gater.sol\":3275:3279  true */\n      0x01\n        /* \"Contracts/MoonV1Gater.sol\":3236:3279  gateList[_gater.gateAddress].isUsed != true */\n      iszero\n      iszero\n        /* \"Contracts/MoonV1Gater.sol\":3236:3244  gateList */\n      0x01\n        /* \"Contracts/MoonV1Gater.sol\":3236:3264  gateList[_gater.gateAddress] */\n      0x00\n        /* \"Contracts/MoonV1Gater.sol\":3245:3251  _gater */\n      dup4\n        /* \"Contracts/MoonV1Gater.sol\":3245:3263  _gater.gateAddress */\n      0x20\n      add\n      mload\n        /* \"Contracts/MoonV1Gater.sol\":3236:3264  gateList[_gater.gateAddress] */\n      0xffffffffffffffffffffffffffffffffffffffff\n      and\n      0xffffffffffffffffffffffffffffffffffffffff\n      and\n      dup2\n      mstore\n      0x20\n      add\n      swap1\n      dup2\n      mstore\n      0x20\n      add\n      0x00\n      keccak256\n        /* \"Contracts/MoonV1Gater.sol\":3236:3271  gateList[_gater.gateAddress].isUsed */\n      0x0f\n      add\n      0x06\n      swap1\n      sload\n      swap1\n      0x0100\n      exp\n      swap1\n      div\n      0xff\n      and\n        /* \"Contracts/MoonV1Gater.sol\":3236:3279  gateList[_gater.gateAddress].isUsed != true */\n      iszero\n      iszero\n      eq\n      iszero\n        /* \"Contracts/MoonV1Gater.sol\":3215:3325  require(... */\n      tag_244\n      jumpi\n      mload(0x40)\n      0x08c379a000000000000000000000000000000000000000000000000000000000\n      dup2\n      mstore\n      0x04\n      add\n      tag_245\n      swap1\n      tag_200\n      jump\t// in\n    tag_245:\n      mload(0x40)\n      dup1\n      swap2\n      sub\n      swap1\n      revert\n    tag_244:\n        /* \"Contracts/MoonV1Gater.sol\":3365:3375  msg.sender */\n      caller\n        /* \"Contracts/MoonV1Gater.sol\":3343:3375  _gater.gateAddress == msg.sender */\n      0xffffffffffffffffffffffffffffffffffffffff\n      and\n        /* \"Contracts/MoonV1Gater.sol\":3343:3349  _gater */\n      dup2\n        /* \"Contracts/MoonV1Gater.sol\":3343:3361  _gater.gateAddress */\n      0x20\n      add\n      mload\n        /* \"Contracts/MoonV1Gater.sol\":3343:3375  _gater.gateAddress == msg.sender */\n      0xffffffffffffffffffffffffffffffffffffffff\n      and\n      eq\n        /* \"Contracts/MoonV1Gater.sol\":3335:3397  require(_gater.gateAddress == msg.sender, \"the gater is your\") */\n      tag_246\n      jumpi\n      mload(0x40)\n      0x08c379a000000000000000000000000000000000000000000000000000000000\n      dup2\n      mstore\n      0x04\n      add\n      tag_247\n      swap1\n      tag_248\n      jump\t// in\n    tag_247:\n      mload(0x40)\n      dup1\n      swap2\n      sub\n      swap1\n      revert\n    tag_246:\n        /* \"Contracts/MoonV1Gater.sol\":3430:3435  false */\n      0x00\n        /* \"Contracts/MoonV1Gater.sol\":3408:3414  _gater */\n      dup2\n        /* \"Contracts/MoonV1Gater.sol\":3408:3427  _gater.marketunlock */\n      0xe0\n      add\n        /* \"Contracts/MoonV1Gater.sol\":3408:3435  _gater.marketunlock = false */\n      swap1\n      iszero\n      iszero\n      swap1\n      dup2\n      iszero\n      iszero\n      dup2\n      mstore\n      pop\n      pop\n        /* \"Contracts/MoonV1Gater.sol\":3488:3493  false */\n      0x00\n        /* \"Contracts/MoonV1Gater.sol\":3472:3478  _gater */\n      dup2\n        /* \"Contracts/MoonV1Gater.sol\":3472:3485  _gater.unlock */\n      0x0100\n      add\n        /* \"Contracts/MoonV1Gater.sol\":3472:3493  _gater.unlock = false */\n      swap1\n      iszero\n      iszero\n      swap1\n      dup2\n      iszero\n      iszero\n      dup2\n      mstore\n      pop\n      pop\n        /* \"Contracts/MoonV1Gater.sol\":3562:3568  _gater */\n      dup1\n        /* \"Contracts/MoonV1Gater.sol\":3531:3539  gateList */\n      0x01\n        /* \"Contracts/MoonV1Gater.sol\":3531:3559  gateList[_gater.gateAddress] */\n      0x00\n        /* \"Contracts/MoonV1Gater.sol\":3540:3546  _gater */\n      dup4\n        /* \"Contracts/MoonV1Gater.sol\":3540:3558  _gater.gateAddress */\n      0x20\n      add\n      mload\n        /* \"Contracts/MoonV1Gater.sol\":3531:3559  gateList[_gater.gateAddress] */\n      0xffffffffffffffffffffffffffffffffffffffff\n      and\n      0xffffffffffffffffffffffffffffffffffffffff\n      and\n      dup2\n      mstore\n      0x20\n      add\n      swap1\n      dup2\n      mstore\n      0x20\n      add\n      0x00\n      keccak256\n        /* \"Contracts/MoonV1Gater.sol\":3531:3568  gateList[_gater.gateAddress] = _gater */\n      0x00\n      dup3\n      add\n      mload\n      dup2\n      0x00\n      add\n      exp(0x0100, 0x00)\n      dup2\n      sload\n      dup2\n      0xffffffffffffffffffffffffffffffffffffffff\n      mul\n      not\n      and\n      swap1\n      dup4\n      0xffffffffffffffffffffffffffffffffffffffff\n      and\n      mul\n      or\n      swap1\n      sstore\n      pop\n      0x20\n      dup3\n      add\n      mload\n      dup2\n      0x01\n      add\n      exp(0x0100, 0x00)\n      dup2\n      sload\n      dup2\n      0xffffffffffffffffffffffffffffffffffffffff\n      mul\n      not\n      and\n      swap1\n      dup4\n      0xffffffffffffffffffffffffffffffffffffffff\n      and\n      mul\n      or\n      swap1\n      sstore\n      pop\n      0x40\n      dup3\n      add\n      mload\n      dup2\n      0x02\n      add\n      exp(0x0100, 0x00)\n      dup2\n      sload\n      dup2\n      0xffffffffffffffffffffffffffffffffffffffff\n      mul\n      not\n      and\n      swap1\n      dup4\n      0xffffffffffffffffffffffffffffffffffffffff\n      and\n      mul\n      or\n      swap1\n      sstore\n      pop\n      0x60\n      dup3\n      add\n      mload\n      dup2\n      0x03\n      add\n      sstore\n      0x80\n      dup3\n      add\n      mload\n      dup2\n      0x04\n      add\n      sstore\n      0xa0\n      dup3\n      add\n      mload\n      dup2\n      0x05\n      add\n      swap1\n      0x0a\n      tag_249\n      swap3\n      swap2\n      swap1\n      tag_202\n      jump\t// in\n    tag_249:\n      pop\n      0xc0\n      dup3\n      add\n      mload\n      dup2\n      0x0f\n      add\n      exp(0x0100, 0x00)\n      dup2\n      sload\n      dup2\n      0xffffffff\n      mul\n      not\n      and\n      swap1\n      dup4\n      0xffffffff\n      and\n      mul\n      or\n      swap1\n      sstore\n      pop\n      0xe0\n      dup3\n      add\n      mload\n      dup2\n      0x0f\n      add\n      exp(0x0100, 0x04)\n      dup2\n      sload\n      dup2\n      0xff\n      mul\n      not\n      and\n      swap1\n      dup4\n      iszero\n      iszero\n      mul\n      or\n      swap1\n      sstore\n      pop\n      0x0100\n      dup3\n      add\n      mload\n      dup2\n      0x0f\n      add\n      exp(0x0100, 0x05)\n      dup2\n      sload\n      dup2\n      0xff\n      mul\n      not\n      and\n      swap1\n      dup4\n      iszero\n      iszero\n      mul\n      or\n      swap1\n      sstore\n      pop\n      0x0120\n      dup3\n      add\n      mload\n      dup2\n      0x0f\n      add\n      exp(0x0100, 0x06)\n      dup2\n      sload\n      dup2\n      0xff\n      mul\n      not\n      and\n      swap1\n      dup4\n      iszero\n      iszero\n      mul\n      or\n      swap1\n      sstore\n      pop\n      swap1\n      pop\n      pop\n        /* \"Contracts/MoonV1Gater.sol\":3152:3611  function addGater(LGate.Info memory _gater) external {... */\n      pop\n      jump\t// out\n        /* \"Contracts/MoonV1Customer.sol\":3659:3947  function getCustomerRecommander(address _customer)... */\n    tag_144:\n        /* \"Contracts/MoonV1Customer.sol\":3757:3764  address */\n      0x00\n        /* \"Contracts/MoonV1Customer.sol\":3835:3839  true */\n      0x01\n        /* \"Contracts/MoonV1Customer.sol\":3801:3839  customerList[_customer].isUsed == true */\n      iszero\n      iszero\n        /* \"Contracts/MoonV1Customer.sol\":3801:3813  customerList */\n      0x02\n        /* \"Contracts/MoonV1Customer.sol\":3801:3824  customerList[_customer] */\n      0x00\n        /* \"Contracts/MoonV1Customer.sol\":3814:3823  _customer */\n      dup5\n        /* \"Contracts/MoonV1Customer.sol\":3801:3824  customerList[_customer] */\n      0xffffffffffffffffffffffffffffffffffffffff\n      and\n      0xffffffffffffffffffffffffffffffffffffffff\n      and\n      dup2\n      mstore\n      0x20\n      add\n      swap1\n      dup2\n      mstore\n      0x20\n      add\n      0x00\n      keccak256\n        /* \"Contracts/MoonV1Customer.sol\":3801:3831  customerList[_customer].isUsed */\n      0x03\n      add\n      0x14\n      swap1\n      sload\n      swap1\n      0x0100\n      exp\n      swap1\n      div\n      0xff\n      and\n        /* \"Contracts/MoonV1Customer.sol\":3801:3839  customerList[_customer].isUsed == true */\n      iszero\n      iszero\n      eq\n        /* \"Contracts/MoonV1Customer.sol\":3780:3888  require(... */\n      tag_251\n      jumpi\n      mload(0x40)\n      0x08c379a000000000000000000000000000000000000000000000000000000000\n      dup2\n      mstore\n      0x04\n      add\n      tag_252\n      swap1\n      tag_239\n      jump\t// in\n    tag_252:\n      mload(0x40)\n      dup1\n      swap2\n      sub\n      swap1\n      revert\n    tag_251:\n        /* \"Contracts/MoonV1Customer.sol\":3905:3917  customerList */\n      0x02\n        /* \"Contracts/MoonV1Customer.sol\":3905:3928  customerList[_customer] */\n      0x00\n        /* \"Contracts/MoonV1Customer.sol\":3918:3927  _customer */\n      dup4\n        /* \"Contracts/MoonV1Customer.sol\":3905:3928  customerList[_customer] */\n      0xffffffffffffffffffffffffffffffffffffffff\n      and\n      0xffffffffffffffffffffffffffffffffffffffff\n      and\n      dup2\n      mstore\n      0x20\n      add\n      swap1\n      dup2\n      mstore\n      0x20\n      add\n      0x00\n      keccak256\n        /* \"Contracts/MoonV1Customer.sol\":3905:3940  customerList[_customer].recommender */\n      0x01\n      add\n      0x04\n      swap1\n      sload\n      swap1\n      0x0100\n      exp\n      swap1\n      div\n      0xffffffffffffffffffffffffffffffffffffffff\n      and\n        /* \"Contracts/MoonV1Customer.sol\":3898:3940  return customerList[_customer].recommender */\n      swap1\n      pop\n        /* \"Contracts/MoonV1Customer.sol\":3659:3947  function getCustomerRecommander(address _customer)... */\n      swap2\n      swap1\n      pop\n      jump\t// out\n        /* \"Contracts/MoonV1Customer.sol\":589:644  mapping(address => uint32) public recommenderraltionkey */\n    tag_148:\n      mstore(0x20, 0x05)\n      dup1\n      0x00\n      mstore\n      keccak256(0x00, 0x40)\n      0x00\n      swap2\n      pop\n      sload\n      swap1\n      0x0100\n      exp\n      swap1\n      div\n      0xffffffff\n      and\n      dup2\n      jump\t// out\n        /* \"Contracts/MoonV1Gater.sol\":2395:2674  function unlockGatebyGater() external onlyGator {... */\n    tag_151:\n        /* \"Contracts/MoonV1Gater.sol\":554:558  true */\n      0x01\n        /* \"Contracts/MoonV1Gater.sol\":517:558  gateList[msg.sender].marketunlock == true */\n      iszero\n      iszero\n        /* \"Contracts/MoonV1Gater.sol\":517:525  gateList */\n      0x01\n        /* \"Contracts/MoonV1Gater.sol\":517:537  gateList[msg.sender] */\n      0x00\n        /* \"Contracts/MoonV1Gater.sol\":526:536  msg.sender */\n      caller\n        /* \"Contracts/MoonV1Gater.sol\":517:537  gateList[msg.sender] */\n      0xffffffffffffffffffffffffffffffffffffffff\n      and\n      0xffffffffffffffffffffffffffffffffffffffff\n      and\n      dup2\n      mstore\n      0x20\n      add\n      swap1\n      dup2\n      mstore\n      0x20\n      add\n      0x00\n      keccak256\n        /* \"Contracts/MoonV1Gater.sol\":517:550  gateList[msg.sender].marketunlock */\n      0x0f\n      add\n      0x04\n      swap1\n      sload\n      swap1\n      0x0100\n      exp\n      swap1\n      div\n      0xff\n      and\n        /* \"Contracts/MoonV1Gater.sol\":517:558  gateList[msg.sender].marketunlock == true */\n      iszero\n      iszero\n      eq\n        /* \"Contracts/MoonV1Gater.sol\":509:559  require(gateList[msg.sender].marketunlock == true) */\n      tag_254\n      jumpi\n      0x00\n      dup1\n      revert\n    tag_254:\n        /* \"Contracts/MoonV1Gater.sol\":2505:2509  true */\n      0x01\n        /* \"Contracts/MoonV1Gater.sol\":2474:2509  gateList[msg.sender].isUsed == true */\n      iszero\n      iszero\n        /* \"Contracts/MoonV1Gater.sol\":2474:2482  gateList */\n      0x01\n        /* \"Contracts/MoonV1Gater.sol\":2474:2494  gateList[msg.sender] */\n      0x00\n        /* \"Contracts/MoonV1Gater.sol\":2483:2493  msg.sender */\n      caller\n        /* \"Contracts/MoonV1Gater.sol\":2474:2494  gateList[msg.sender] */\n      0xffffffffffffffffffffffffffffffffffffffff\n      and\n      0xffffffffffffffffffffffffffffffffffffffff\n      and\n      dup2\n      mstore\n      0x20\n      add\n      swap1\n      dup2\n      mstore\n      0x20\n      add\n      0x00\n      keccak256\n        /* \"Contracts/MoonV1Gater.sol\":2474:2501  gateList[msg.sender].isUsed */\n      0x0f\n      add\n      0x06\n      swap1\n      sload\n      swap1\n      0x0100\n      exp\n      swap1\n      div\n      0xff\n      and\n        /* \"Contracts/MoonV1Gater.sol\":2474:2509  gateList[msg.sender].isUsed == true */\n      iszero\n      iszero\n      eq\n        /* \"Contracts/MoonV1Gater.sol\":2474:2575  gateList[msg.sender].isUsed == true &&... */\n      dup1\n      iszero\n      tag_256\n      jumpi\n      pop\n        /* \"Contracts/MoonV1Gater.sol\":2565:2575  msg.sender */\n      caller\n        /* \"Contracts/MoonV1Gater.sol\":2529:2575  gateList[msg.sender].gateAddress == msg.sender */\n      0xffffffffffffffffffffffffffffffffffffffff\n      and\n        /* \"Contracts/MoonV1Gater.sol\":2529:2537  gateList */\n      0x01\n        /* \"Contracts/MoonV1Gater.sol\":2529:2549  gateList[msg.sender] */\n      0x00\n        /* \"Contracts/MoonV1Gater.sol\":2538:2548  msg.sender */\n      caller\n        /* \"Contracts/MoonV1Gater.sol\":2529:2549  gateList[msg.sender] */\n      0xffffffffffffffffffffffffffffffffffffffff\n      and\n      0xffffffffffffffffffffffffffffffffffffffff\n      and\n      dup2\n      mstore\n      0x20\n      add\n      swap1\n      dup2\n      mstore\n      0x20\n      add\n      0x00\n      keccak256\n        /* \"Contracts/MoonV1Gater.sol\":2529:2561  gateList[msg.sender].gateAddress */\n      0x01\n      add\n      0x00\n      swap1\n      sload\n      swap1\n      0x0100\n      exp\n      swap1\n      div\n      0xffffffffffffffffffffffffffffffffffffffff\n      and\n        /* \"Contracts/MoonV1Gater.sol\":2529:2575  gateList[msg.sender].gateAddress == msg.sender */\n      0xffffffffffffffffffffffffffffffffffffffff\n      and\n      eq\n        /* \"Contracts/MoonV1Gater.sol\":2474:2575  gateList[msg.sender].isUsed == true &&... */\n    tag_256:\n        /* \"Contracts/MoonV1Gater.sol\":2453:2622  require(... */\n      tag_257\n      jumpi\n      mload(0x40)\n      0x08c379a000000000000000000000000000000000000000000000000000000000\n      dup2\n      mstore\n      0x04\n      add\n      tag_258\n      swap1\n      tag_194\n      jump\t// in\n    tag_258:\n      mload(0x40)\n      dup1\n      swap2\n      sub\n      swap1\n      revert\n    tag_257:\n        /* \"Contracts/MoonV1Gater.sol\":2662:2667  false */\n      0x00\n        /* \"Contracts/MoonV1Gater.sol\":2632:2640  gateList */\n      0x01\n        /* \"Contracts/MoonV1Gater.sol\":2632:2652  gateList[msg.sender] */\n      0x00\n        /* \"Contracts/MoonV1Gater.sol\":2641:2651  msg.sender */\n      caller\n        /* \"Contracts/MoonV1Gater.sol\":2632:2652  gateList[msg.sender] */\n      0xffffffffffffffffffffffffffffffffffffffff\n      and\n      0xffffffffffffffffffffffffffffffffffffffff\n      and\n      dup2\n      mstore\n      0x20\n      add\n      swap1\n      dup2\n      mstore\n      0x20\n      add\n      0x00\n      keccak256\n        /* \"Contracts/MoonV1Gater.sol\":2632:2659  gateList[msg.sender].unlock */\n      0x0f\n      add\n      0x05\n        /* \"Contracts/MoonV1Gater.sol\":2632:2667  gateList[msg.sender].unlock = false */\n      0x0100\n      exp\n      dup2\n      sload\n      dup2\n      0xff\n      mul\n      not\n      and\n      swap1\n      dup4\n      iszero\n      iszero\n      mul\n      or\n      swap1\n      sstore\n      pop\n        /* \"Contracts/MoonV1Gater.sol\":2395:2674  function unlockGatebyGater() external onlyGator {... */\n      jump\t// out\n        /* \"Contracts/MoonV1Gater.sol\":2705:3146  function updateGatebyGator(LGate.Info memory _gater) external onlyGator {... */\n    tag_154:\n        /* \"Contracts/MoonV1Gater.sol\":554:558  true */\n      0x01\n        /* \"Contracts/MoonV1Gater.sol\":517:558  gateList[msg.sender].marketunlock == true */\n      iszero\n      iszero\n        /* \"Contracts/MoonV1Gater.sol\":517:525  gateList */\n      0x01\n        /* \"Contracts/MoonV1Gater.sol\":517:537  gateList[msg.sender] */\n      0x00\n        /* \"Contracts/MoonV1Gater.sol\":526:536  msg.sender */\n      caller\n        /* \"Contracts/MoonV1Gater.sol\":517:537  gateList[msg.sender] */\n      0xffffffffffffffffffffffffffffffffffffffff\n      and\n      0xffffffffffffffffffffffffffffffffffffffff\n      and\n      dup2\n      mstore\n      0x20\n      add\n      swap1\n      dup2\n      mstore\n      0x20\n      add\n      0x00\n      keccak256\n        /* \"Contracts/MoonV1Gater.sol\":517:550  gateList[msg.sender].marketunlock */\n      0x0f\n      add\n      0x04\n      swap1\n      sload\n      swap1\n      0x0100\n      exp\n      swap1\n      div\n      0xff\n      and\n        /* \"Contracts/MoonV1Gater.sol\":517:558  gateList[msg.sender].marketunlock == true */\n      iszero\n      iszero\n      eq\n        /* \"Contracts/MoonV1Gater.sol\":509:559  require(gateList[msg.sender].marketunlock == true) */\n      tag_260\n      jumpi\n      0x00\n      dup1\n      revert\n    tag_260:\n        /* \"Contracts/MoonV1Gater.sol\":2847:2851  true */\n      0x01\n        /* \"Contracts/MoonV1Gater.sol\":2808:2851  gateList[_gater.gateAddress].isUsed == true */\n      iszero\n      iszero\n        /* \"Contracts/MoonV1Gater.sol\":2808:2816  gateList */\n      0x01\n        /* \"Contracts/MoonV1Gater.sol\":2808:2836  gateList[_gater.gateAddress] */\n      0x00\n        /* \"Contracts/MoonV1Gater.sol\":2817:2823  _gater */\n      dup4\n        /* \"Contracts/MoonV1Gater.sol\":2817:2835  _gater.gateAddress */\n      0x20\n      add\n      mload\n        /* \"Contracts/MoonV1Gater.sol\":2808:2836  gateList[_gater.gateAddress] */\n      0xffffffffffffffffffffffffffffffffffffffff\n      and\n      0xffffffffffffffffffffffffffffffffffffffff\n      and\n      dup2\n      mstore\n      0x20\n      add\n      swap1\n      dup2\n      mstore\n      0x20\n      add\n      0x00\n      keccak256\n        /* \"Contracts/MoonV1Gater.sol\":2808:2843  gateList[_gater.gateAddress].isUsed */\n      0x0f\n      add\n      0x06\n      swap1\n      sload\n      swap1\n      0x0100\n      exp\n      swap1\n      div\n      0xff\n      and\n        /* \"Contracts/MoonV1Gater.sol\":2808:2851  gateList[_gater.gateAddress].isUsed == true */\n      iszero\n      iszero\n      eq\n        /* \"Contracts/MoonV1Gater.sol\":2787:2897  require(... */\n      tag_262\n      jumpi\n      mload(0x40)\n      0x08c379a000000000000000000000000000000000000000000000000000000000\n      dup2\n      mstore\n      0x04\n      add\n      tag_263\n      swap1\n      tag_200\n      jump\t// in\n    tag_263:\n      mload(0x40)\n      dup1\n      swap2\n      sub\n      swap1\n      revert\n    tag_262:\n        /* \"Contracts/MoonV1Gater.sol\":2972:2982  msg.sender */\n      caller\n        /* \"Contracts/MoonV1Gater.sol\":2928:2982  gateList[_gater.gateAddress].gateAddress == msg.sender */\n      0xffffffffffffffffffffffffffffffffffffffff\n      and\n        /* \"Contracts/MoonV1Gater.sol\":2928:2936  gateList */\n      0x01\n        /* \"Contracts/MoonV1Gater.sol\":2928:2956  gateList[_gater.gateAddress] */\n      0x00\n        /* \"Contracts/MoonV1Gater.sol\":2937:2943  _gater */\n      dup4\n        /* \"Contracts/MoonV1Gater.sol\":2937:2955  _gater.gateAddress */\n      0x20\n      add\n      mload\n        /* \"Contracts/MoonV1Gater.sol\":2928:2956  gateList[_gater.gateAddress] */\n      0xffffffffffffffffffffffffffffffffffffffff\n      and\n      0xffffffffffffffffffffffffffffffffffffffff\n      and\n      dup2\n      mstore\n      0x20\n      add\n      swap1\n      dup2\n      mstore\n      0x20\n      add\n      0x00\n      keccak256\n        /* \"Contracts/MoonV1Gater.sol\":2928:2968  gateList[_gater.gateAddress].gateAddress */\n      0x01\n      add\n      0x00\n      swap1\n      sload\n      swap1\n      0x0100\n      exp\n      swap1\n      div\n      0xffffffffffffffffffffffffffffffffffffffff\n      and\n        /* \"Contracts/MoonV1Gater.sol\":2928:2982  gateList[_gater.gateAddress].gateAddress == msg.sender */\n      0xffffffffffffffffffffffffffffffffffffffff\n      and\n      eq\n        /* \"Contracts/MoonV1Gater.sol\":2907:3025  require(... */\n      tag_264\n      jumpi\n      mload(0x40)\n      0x08c379a000000000000000000000000000000000000000000000000000000000\n      dup2\n      mstore\n      0x04\n      add\n      tag_265\n      swap1\n      tag_248\n      jump\t// in\n    tag_265:\n      mload(0x40)\n      dup1\n      swap2\n      sub\n      swap1\n      revert\n    tag_264:\n        /* \"Contracts/MoonV1Gater.sol\":3057:3062  false */\n      0x00\n        /* \"Contracts/MoonV1Gater.sol\":3035:3041  _gater */\n      dup2\n        /* \"Contracts/MoonV1Gater.sol\":3035:3054  _gater.marketunlock */\n      0xe0\n      add\n        /* \"Contracts/MoonV1Gater.sol\":3035:3062  _gater.marketunlock = false */\n      swap1\n      iszero\n      iszero\n      swap1\n      dup2\n      iszero\n      iszero\n      dup2\n      mstore\n      pop\n      pop\n        /* \"Contracts/MoonV1Gater.sol\":3088:3092  true */\n      0x01\n        /* \"Contracts/MoonV1Gater.sol\":3072:3078  _gater */\n      dup2\n        /* \"Contracts/MoonV1Gater.sol\":3072:3085  _gater.unlock */\n      0x0100\n      add\n        /* \"Contracts/MoonV1Gater.sol\":3072:3092  _gater.unlock = true */\n      swap1\n      iszero\n      iszero\n      swap1\n      dup2\n      iszero\n      iszero\n      dup2\n      mstore\n      pop\n      pop\n        /* \"Contracts/MoonV1Gater.sol\":3133:3139  _gater */\n      dup1\n        /* \"Contracts/MoonV1Gater.sol\":3102:3110  gateList */\n      0x01\n        /* \"Contracts/MoonV1Gater.sol\":3102:3130  gateList[_gater.gateAddress] */\n      0x00\n        /* \"Contracts/MoonV1Gater.sol\":3111:3117  _gater */\n      dup4\n        /* \"Contracts/MoonV1Gater.sol\":3111:3129  _gater.gateAddress */\n      0x20\n      add\n      mload\n        /* \"Contracts/MoonV1Gater.sol\":3102:3130  gateList[_gater.gateAddress] */\n      0xffffffffffffffffffffffffffffffffffffffff\n      and\n      0xffffffffffffffffffffffffffffffffffffffff\n      and\n      dup2\n      mstore\n      0x20\n      add\n      swap1\n      dup2\n      mstore\n      0x20\n      add\n      0x00\n      keccak256\n        /* \"Contracts/MoonV1Gater.sol\":3102:3139  gateList[_gater.gateAddress] = _gater */\n      0x00\n      dup3\n      add\n      mload\n      dup2\n      0x00\n      add\n      exp(0x0100, 0x00)\n      dup2\n      sload\n      dup2\n      0xffffffffffffffffffffffffffffffffffffffff\n      mul\n      not\n      and\n      swap1\n      dup4\n      0xffffffffffffffffffffffffffffffffffffffff\n      and\n      mul\n      or\n      swap1\n      sstore\n      pop\n      0x20\n      dup3\n      add\n      mload\n      dup2\n      0x01\n      add\n      exp(0x0100, 0x00)\n      dup2\n      sload\n      dup2\n      0xffffffffffffffffffffffffffffffffffffffff\n      mul\n      not\n      and\n      swap1\n      dup4\n      0xffffffffffffffffffffffffffffffffffffffff\n      and\n      mul\n      or\n      swap1\n      sstore\n      pop\n      0x40\n      dup3\n      add\n      mload\n      dup2\n      0x02\n      add\n      exp(0x0100, 0x00)\n      dup2\n      sload\n      dup2\n      0xffffffffffffffffffffffffffffffffffffffff\n      mul\n      not\n      and\n      swap1\n      dup4\n      0xffffffffffffffffffffffffffffffffffffffff\n      and\n      mul\n      or\n      swap1\n      sstore\n      pop\n      0x60\n      dup3\n      add\n      mload\n      dup2\n      0x03\n      add\n      sstore\n      0x80\n      dup3\n      add\n      mload\n      dup2\n      0x04\n      add\n      sstore\n      0xa0\n      dup3\n      add\n      mload\n      dup2\n      0x05\n      add\n      swap1\n      0x0a\n      tag_266\n      swap3\n      swap2\n      swap1\n      tag_202\n      jump\t// in\n    tag_266:\n      pop\n      0xc0\n      dup3\n      add\n      mload\n      dup2\n      0x0f\n      add\n      exp(0x0100, 0x00)\n      dup2\n      sload\n      dup2\n      0xffffffff\n      mul\n      not\n      and\n      swap1\n      dup4\n      0xffffffff\n      and\n      mul\n      or\n      swap1\n      sstore\n      pop\n      0xe0\n      dup3\n      add\n      mload\n      dup2\n      0x0f\n      add\n      exp(0x0100, 0x04)\n      dup2\n      sload\n      dup2\n      0xff\n      mul\n      not\n      and\n      swap1\n      dup4\n      iszero\n      iszero\n      mul\n      or\n      swap1\n      sstore\n      pop\n      0x0100\n      dup3\n      add\n      mload\n      dup2\n      0x0f\n      add\n      exp(0x0100, 0x05)\n      dup2\n      sload\n      dup2\n      0xff\n      mul\n      not\n      and\n      swap1\n      dup4\n      iszero\n      iszero\n      mul\n      or\n      swap1\n      sstore\n      pop\n      0x0120\n      dup3\n      add\n      mload\n      dup2\n      0x0f\n      add\n      exp(0x0100, 0x06)\n      dup2\n      sload\n      dup2\n      0xff\n      mul\n      not\n      and\n      swap1\n      dup4\n      iszero\n      iszero\n      mul\n      or\n      swap1\n      sstore\n      pop\n      swap1\n      pop\n      pop\n        /* \"Contracts/MoonV1Gater.sol\":2705:3146  function updateGatebyGator(LGate.Info memory _gater) external onlyGator {... */\n      pop\n      jump\t// out\n        /* \"Contracts/MoonV1Customer.sol\":1707:2352  function addRelation(uint40 _recommanderUnikey) external {... */\n    tag_157:\n        /* \"Contracts/MoonV1Customer.sol\":1843:1844  0 */\n      0x00\n        /* \"Contracts/MoonV1Customer.sol\":1795:1845  customerList[msg.sender].recommender == address(0) */\n      0xffffffffffffffffffffffffffffffffffffffff\n      and\n        /* \"Contracts/MoonV1Customer.sol\":1795:1807  customerList */\n      0x02\n        /* \"Contracts/MoonV1Customer.sol\":1795:1819  customerList[msg.sender] */\n      0x00\n        /* \"Contracts/MoonV1Customer.sol\":1808:1818  msg.sender */\n      caller\n        /* \"Contracts/MoonV1Customer.sol\":1795:1819  customerList[msg.sender] */\n      0xffffffffffffffffffffffffffffffffffffffff\n      and\n      0xffffffffffffffffffffffffffffffffffffffff\n      and\n      dup2\n      mstore\n      0x20\n      add\n      swap1\n      dup2\n      mstore\n      0x20\n      add\n      0x00\n      keccak256\n        /* \"Contracts/MoonV1Customer.sol\":1795:1831  customerList[msg.sender].recommender */\n      0x01\n      add\n      0x04\n      swap1\n      sload\n      swap1\n      0x0100\n      exp\n      swap1\n      div\n      0xffffffffffffffffffffffffffffffffffffffff\n      and\n        /* \"Contracts/MoonV1Customer.sol\":1795:1845  customerList[msg.sender].recommender == address(0) */\n      0xffffffffffffffffffffffffffffffffffffffff\n      and\n      eq\n        /* \"Contracts/MoonV1Customer.sol\":1774:1902  require(... */\n      tag_268\n      jumpi\n      mload(0x40)\n      0x08c379a000000000000000000000000000000000000000000000000000000000\n      dup2\n      mstore\n      0x04\n      add\n      tag_269\n      swap1\n      tag_270\n      jump\t// in\n    tag_269:\n      mload(0x40)\n      dup1\n      swap2\n      sub\n      swap1\n      revert\n    tag_268:\n        /* \"Contracts/MoonV1Customer.sol\":1912:1933  address recom_address */\n      0x00\n        /* \"Contracts/MoonV1Customer.sol\":1936:1950  customerUniKey */\n      0x03\n        /* \"Contracts/MoonV1Customer.sol\":1936:1970  customerUniKey[_recommanderUnikey] */\n      0x00\n        /* \"Contracts/MoonV1Customer.sol\":1951:1969  _recommanderUnikey */\n      dup4\n        /* \"Contracts/MoonV1Customer.sol\":1936:1970  customerUniKey[_recommanderUnikey] */\n      0xffffffffff\n      and\n      0xffffffffff\n      and\n      dup2\n      mstore\n      0x20\n      add\n      swap1\n      dup2\n      mstore\n      0x20\n      add\n      0x00\n      keccak256\n      0x00\n      swap1\n      sload\n      swap1\n      0x0100\n      exp\n      swap1\n      div\n      0xffffffffffffffffffffffffffffffffffffffff\n      and\n        /* \"Contracts/MoonV1Customer.sol\":1912:1970  address recom_address = customerUniKey[_recommanderUnikey] */\n      swap1\n      pop\n        /* \"Contracts/MoonV1Customer.sol\":2024:2025  1 */\n      0x01\n        /* \"Contracts/MoonV1Customer.sol\":1984:2005  recommenderraltionkey */\n      0x05\n        /* \"Contracts/MoonV1Customer.sol\":1984:2020  recommenderraltionkey[recom_address] */\n      0x00\n        /* \"Contracts/MoonV1Customer.sol\":2006:2019  recom_address */\n      dup4\n        /* \"Contracts/MoonV1Customer.sol\":1984:2020  recommenderraltionkey[recom_address] */\n      0xffffffffffffffffffffffffffffffffffffffff\n      and\n      0xffffffffffffffffffffffffffffffffffffffff\n      and\n      dup2\n      mstore\n      0x20\n      add\n      swap1\n      dup2\n      mstore\n      0x20\n      add\n      0x00\n      keccak256\n      0x00\n      swap1\n      sload\n      swap1\n      0x0100\n      exp\n      swap1\n      div\n      0xffffffff\n      and\n        /* \"Contracts/MoonV1Customer.sol\":1984:2025  recommenderraltionkey[recom_address] >= 1 */\n      0xffffffff\n      and\n      lt\n        /* \"Contracts/MoonV1Customer.sol\":1980:2164  if (recommenderraltionkey[recom_address] >= 1) {... */\n      tag_271\n      jumpi\n        /* \"Contracts/MoonV1Customer.sol\":2081:2082  1 */\n      0x01\n        /* \"Contracts/MoonV1Customer.sol\":2041:2062  recommenderraltionkey */\n      0x05\n        /* \"Contracts/MoonV1Customer.sol\":2041:2077  recommenderraltionkey[recom_address] */\n      0x00\n        /* \"Contracts/MoonV1Customer.sol\":2063:2076  recom_address */\n      dup4\n        /* \"Contracts/MoonV1Customer.sol\":2041:2077  recommenderraltionkey[recom_address] */\n      0xffffffffffffffffffffffffffffffffffffffff\n      and\n      0xffffffffffffffffffffffffffffffffffffffff\n      and\n      dup2\n      mstore\n      0x20\n      add\n      swap1\n      dup2\n      mstore\n      0x20\n      add\n      0x00\n      keccak256\n      0x00\n        /* \"Contracts/MoonV1Customer.sol\":2041:2082  recommenderraltionkey[recom_address] += 1 */\n      dup3\n      dup3\n      dup3\n      swap1\n      sload\n      swap1\n      0x0100\n      exp\n      swap1\n      div\n      0xffffffff\n      and\n      tag_272\n      swap2\n      swap1\n      tag_273\n      jump\t// in\n    tag_272:\n      swap3\n      pop\n      0x0100\n      exp\n      dup2\n      sload\n      dup2\n      0xffffffff\n      mul\n      not\n      and\n      swap1\n      dup4\n      0xffffffff\n      and\n      mul\n      or\n      swap1\n      sstore\n      pop\n        /* \"Contracts/MoonV1Customer.sol\":1980:2164  if (recommenderraltionkey[recom_address] >= 1) {... */\n      jump(tag_274)\n    tag_271:\n        /* \"Contracts/MoonV1Customer.sol\":2152:2153  1 */\n      0x01\n        /* \"Contracts/MoonV1Customer.sol\":2113:2134  recommenderraltionkey */\n      0x05\n        /* \"Contracts/MoonV1Customer.sol\":2113:2149  recommenderraltionkey[recom_address] */\n      0x00\n        /* \"Contracts/MoonV1Customer.sol\":2135:2148  recom_address */\n      dup4\n        /* \"Contracts/MoonV1Customer.sol\":2113:2149  recommenderraltionkey[recom_address] */\n      0xffffffffffffffffffffffffffffffffffffffff\n      and\n      0xffffffffffffffffffffffffffffffffffffffff\n      and\n      dup2\n      mstore\n      0x20\n      add\n      swap1\n      dup2\n      mstore\n      0x20\n      add\n      0x00\n      keccak256\n      0x00\n        /* \"Contracts/MoonV1Customer.sol\":2113:2153  recommenderraltionkey[recom_address] = 1 */\n      0x0100\n      exp\n      dup2\n      sload\n      dup2\n      0xffffffff\n      mul\n      not\n      and\n      swap1\n      dup4\n      0xffffffff\n      and\n      mul\n      or\n      swap1\n      sstore\n      pop\n        /* \"Contracts/MoonV1Customer.sol\":1980:2164  if (recommenderraltionkey[recom_address] >= 1) {... */\n    tag_274:\n        /* \"Contracts/MoonV1Customer.sol\":2273:2283  msg.sender */\n      caller\n        /* \"Contracts/MoonV1Customer.sol\":2173:2195  recommenderraltionlist */\n      0x06\n        /* \"Contracts/MoonV1Customer.sol\":2173:2210  recommenderraltionlist[recom_address] */\n      0x00\n        /* \"Contracts/MoonV1Customer.sol\":2196:2209  recom_address */\n      dup4\n        /* \"Contracts/MoonV1Customer.sol\":2173:2210  recommenderraltionlist[recom_address] */\n      0xffffffffffffffffffffffffffffffffffffffff\n      and\n      0xffffffffffffffffffffffffffffffffffffffff\n      and\n      dup2\n      mstore\n      0x20\n      add\n      swap1\n      dup2\n      mstore\n      0x20\n      add\n      0x00\n      keccak256\n        /* \"Contracts/MoonV1Customer.sol\":2173:2270  recommenderraltionlist[recom_address][... */\n      0x00\n        /* \"Contracts/MoonV1Customer.sol\":2224:2245  recommenderraltionkey */\n      0x05\n        /* \"Contracts/MoonV1Customer.sol\":2224:2260  recommenderraltionkey[recom_address] */\n      0x00\n        /* \"Contracts/MoonV1Customer.sol\":2246:2259  recom_address */\n      dup6\n        /* \"Contracts/MoonV1Customer.sol\":2224:2260  recommenderraltionkey[recom_address] */\n      0xffffffffffffffffffffffffffffffffffffffff\n      and\n      0xffffffffffffffffffffffffffffffffffffffff\n      and\n      dup2\n      mstore\n      0x20\n      add\n      swap1\n      dup2\n      mstore\n      0x20\n      add\n      0x00\n      keccak256\n      0x00\n      swap1\n      sload\n      swap1\n      0x0100\n      exp\n      swap1\n      div\n      0xffffffff\n      and\n        /* \"Contracts/MoonV1Customer.sol\":2173:2270  recommenderraltionlist[recom_address][... */\n      0xffffffff\n      and\n      0xffffffff\n      and\n      dup2\n      mstore\n      0x20\n      add\n      swap1\n      dup2\n      mstore\n      0x20\n      add\n      0x00\n      keccak256\n      0x00\n        /* \"Contracts/MoonV1Customer.sol\":2173:2283  recommenderraltionlist[recom_address][... */\n      0x0100\n      exp\n      dup2\n      sload\n      dup2\n      0xffffffffffffffffffffffffffffffffffffffff\n      mul\n      not\n      and\n      swap1\n      dup4\n      0xffffffffffffffffffffffffffffffffffffffff\n      and\n      mul\n      or\n      swap1\n      sstore\n      pop\n        /* \"Contracts/MoonV1Customer.sol\":2332:2345  recom_address */\n      dup1\n        /* \"Contracts/MoonV1Customer.sol\":2293:2305  customerList */\n      0x02\n        /* \"Contracts/MoonV1Customer.sol\":2293:2317  customerList[msg.sender] */\n      0x00\n        /* \"Contracts/MoonV1Customer.sol\":2306:2316  msg.sender */\n      caller\n        /* \"Contracts/MoonV1Customer.sol\":2293:2317  customerList[msg.sender] */\n      0xffffffffffffffffffffffffffffffffffffffff\n      and\n      0xffffffffffffffffffffffffffffffffffffffff\n      and\n      dup2\n      mstore\n      0x20\n      add\n      swap1\n      dup2\n      mstore\n      0x20\n      add\n      0x00\n      keccak256\n        /* \"Contracts/MoonV1Customer.sol\":2293:2329  customerList[msg.sender].recommender */\n      0x01\n      add\n      0x04\n        /* \"Contracts/MoonV1Customer.sol\":2293:2345  customerList[msg.sender].recommender = recom_address */\n      0x0100\n      exp\n      dup2\n      sload\n      dup2\n      0xffffffffffffffffffffffffffffffffffffffff\n      mul\n      not\n      and\n      swap1\n      dup4\n      0xffffffffffffffffffffffffffffffffffffffff\n      and\n      mul\n      or\n      swap1\n      sstore\n      pop\n        /* \"Contracts/MoonV1Customer.sol\":1764:2352  {... */\n      pop\n        /* \"Contracts/MoonV1Customer.sol\":1707:2352  function addRelation(uint40 _recommanderUnikey) external {... */\n      pop\n      jump\t// out\n        /* \"Contracts/MoonV1Customer.sol\":403:457  mapping(address => LCustomer.Info) public customerList */\n    tag_160:\n      mstore(0x20, 0x02)\n      dup1\n      0x00\n      mstore\n      keccak256(0x00, 0x40)\n      0x00\n      swap2\n      pop\n      swap1\n      pop\n      dup1\n      0x00\n      add\n      sload\n      swap1\n      dup1\n      0x01\n      add\n      0x00\n      swap1\n      sload\n      swap1\n      0x0100\n      exp\n      swap1\n      div\n      0xffffffff\n      and\n      swap1\n      dup1\n      0x01\n      add\n      0x04\n      swap1\n      sload\n      swap1\n      0x0100\n      exp\n      swap1\n      div\n      0xffffffffffffffffffffffffffffffffffffffff\n      and\n      swap1\n      dup1\n      0x01\n      add\n      0x18\n      swap1\n      sload\n      swap1\n      0x0100\n      exp\n      swap1\n      div\n      0xffffffffff\n      and\n      swap1\n      dup1\n      0x02\n      add\n      0x00\n      swap1\n      sload\n      swap1\n      0x0100\n      exp\n      swap1\n      div\n      0xffffffffffffffffffffffffffffffffffffffff\n      and\n      swap1\n      dup1\n      0x02\n      add\n      0x14\n      swap1\n      sload\n      swap1\n      0x0100\n      exp\n      swap1\n      div\n      0xffffffff\n      and\n      swap1\n      dup1\n      0x03\n      add\n      0x00\n      swap1\n      sload\n      swap1\n      0x0100\n      exp\n      swap1\n      div\n      0xffffffffffffffffffffffffffffffffffffffff\n      and\n      swap1\n      dup1\n      0x03\n      add\n      0x14\n      swap1\n      sload\n      swap1\n      0x0100\n      exp\n      swap1\n      div\n      0xff\n      and\n      swap1\n      dup1\n      0x03\n      add\n      0x15\n      swap1\n      sload\n      swap1\n      0x0100\n      exp\n      swap1\n      div\n      0xff\n      and\n      swap1\n      pop\n      dup10\n      jump\t// out\n        /* \"Contracts/MoonV1Customer.sol\":4503:5302  function addCustomer(LCustomer.Info memory _customer, address _gater)... */\n    tag_166:\n        /* \"Contracts/MoonV1Customer.sol\":4675:4679  true */\n      0x01\n        /* \"Contracts/MoonV1Customer.sol\":4625:4679  customerList[_customer.contractAddress].isUsed != true */\n      iszero\n      iszero\n        /* \"Contracts/MoonV1Customer.sol\":4625:4637  customerList */\n      0x02\n        /* \"Contracts/MoonV1Customer.sol\":4625:4664  customerList[_customer.contractAddress] */\n      0x00\n        /* \"Contracts/MoonV1Customer.sol\":4638:4647  _customer */\n      dup5\n        /* \"Contracts/MoonV1Customer.sol\":4638:4663  _customer.contractAddress */\n      0xc0\n      add\n      mload\n        /* \"Contracts/MoonV1Customer.sol\":4625:4664  customerList[_customer.contractAddress] */\n      0xffffffffffffffffffffffffffffffffffffffff\n      and\n      0xffffffffffffffffffffffffffffffffffffffff\n      and\n      dup2\n      mstore\n      0x20\n      add\n      swap1\n      dup2\n      mstore\n      0x20\n      add\n      0x00\n      keccak256\n        /* \"Contracts/MoonV1Customer.sol\":4625:4671  customerList[_customer.contractAddress].isUsed */\n      0x03\n      add\n      0x14\n      swap1\n      sload\n      swap1\n      0x0100\n      exp\n      swap1\n      div\n      0xff\n      and\n        /* \"Contracts/MoonV1Customer.sol\":4625:4679  customerList[_customer.contractAddress].isUsed != true */\n      iszero\n      iszero\n      eq\n      iszero\n        /* \"Contracts/MoonV1Customer.sol\":4625:4738  customerList[_customer.contractAddress].isUsed != true &&... */\n      dup1\n      iszero\n      tag_276\n      jumpi\n      pop\n        /* \"Contracts/MoonV1Customer.sol\":4728:4738  msg.sender */\n      caller\n        /* \"Contracts/MoonV1Customer.sol\":4699:4738  _customer.contractAddress == msg.sender */\n      0xffffffffffffffffffffffffffffffffffffffff\n      and\n        /* \"Contracts/MoonV1Customer.sol\":4699:4708  _customer */\n      dup3\n        /* \"Contracts/MoonV1Customer.sol\":4699:4724  _customer.contractAddress */\n      0xc0\n      add\n      mload\n        /* \"Contracts/MoonV1Customer.sol\":4699:4738  _customer.contractAddress == msg.sender */\n      0xffffffffffffffffffffffffffffffffffffffff\n      and\n      eq\n        /* \"Contracts/MoonV1Customer.sol\":4625:4738  customerList[_customer.contractAddress].isUsed != true &&... */\n    tag_276:\n        /* \"Contracts/MoonV1Customer.sol\":4604:4782  require(... */\n      tag_277\n      jumpi\n      mload(0x40)\n      0x08c379a000000000000000000000000000000000000000000000000000000000\n      dup2\n      mstore\n      0x04\n      add\n      tag_278\n      swap1\n      tag_178\n      jump\t// in\n    tag_278:\n      mload(0x40)\n      dup1\n      swap2\n      sub\n      swap1\n      revert\n    tag_277:\n        /* \"Contracts/MoonV1Customer.sol\":4827:4828  1 */\n      0x01\n        /* \"Contracts/MoonV1Customer.sol\":4796:4815  gateCustomerNextKey */\n      0x07\n        /* \"Contracts/MoonV1Customer.sol\":4796:4823  gateCustomerNextKey[_gater] */\n      0x00\n        /* \"Contracts/MoonV1Customer.sol\":4816:4822  _gater */\n      dup4\n        /* \"Contracts/MoonV1Customer.sol\":4796:4823  gateCustomerNextKey[_gater] */\n      0xffffffffffffffffffffffffffffffffffffffff\n      and\n      0xffffffffffffffffffffffffffffffffffffffff\n      and\n      dup2\n      mstore\n      0x20\n      add\n      swap1\n      dup2\n      mstore\n      0x20\n      add\n      0x00\n      keccak256\n      0x00\n      swap1\n      sload\n      swap1\n      0x0100\n      exp\n      swap1\n      div\n      0xffffffff\n      and\n        /* \"Contracts/MoonV1Customer.sol\":4796:4828  gateCustomerNextKey[_gater] >= 1 */\n      0xffffffff\n      and\n      lt\n        /* \"Contracts/MoonV1Customer.sol\":4792:4924  if (gateCustomerNextKey[_gater] >= 1) {... */\n      tag_279\n      jumpi\n        /* \"Contracts/MoonV1Customer.sol\":4875:4876  1 */\n      0x01\n        /* \"Contracts/MoonV1Customer.sol\":4844:4863  gateCustomerNextKey */\n      0x07\n        /* \"Contracts/MoonV1Customer.sol\":4844:4871  gateCustomerNextKey[_gater] */\n      0x00\n        /* \"Contracts/MoonV1Customer.sol\":4864:4870  _gater */\n      dup4\n        /* \"Contracts/MoonV1Customer.sol\":4844:4871  gateCustomerNextKey[_gater] */\n      0xffffffffffffffffffffffffffffffffffffffff\n      and\n      0xffffffffffffffffffffffffffffffffffffffff\n      and\n      dup2\n      mstore\n      0x20\n      add\n      swap1\n      dup2\n      mstore\n      0x20\n      add\n      0x00\n      keccak256\n      0x00\n        /* \"Contracts/MoonV1Customer.sol\":4844:4876  gateCustomerNextKey[_gater] += 1 */\n      dup3\n      dup3\n      dup3\n      swap1\n      sload\n      swap1\n      0x0100\n      exp\n      swap1\n      div\n      0xffffffff\n      and\n      tag_280\n      swap2\n      swap1\n      tag_273\n      jump\t// in\n    tag_280:\n      swap3\n      pop\n      0x0100\n      exp\n      dup2\n      sload\n      dup2\n      0xffffffff\n      mul\n      not\n      and\n      swap1\n      dup4\n      0xffffffff\n      and\n      mul\n      or\n      swap1\n      sstore\n      pop\n        /* \"Contracts/MoonV1Customer.sol\":4792:4924  if (gateCustomerNextKey[_gater] >= 1) {... */\n      jump(tag_281)\n    tag_279:\n        /* \"Contracts/MoonV1Customer.sol\":4923:4924  1 */\n      0x01\n        /* \"Contracts/MoonV1Customer.sol\":4893:4912  gateCustomerNextKey */\n      0x07\n        /* \"Contracts/MoonV1Customer.sol\":4893:4920  gateCustomerNextKey[_gater] */\n      0x00\n        /* \"Contracts/MoonV1Customer.sol\":4913:4919  _gater */\n      dup4\n        /* \"Contracts/MoonV1Customer.sol\":4893:4920  gateCustomerNextKey[_gater] */\n      0xffffffffffffffffffffffffffffffffffffffff\n      and\n      0xffffffffffffffffffffffffffffffffffffffff\n      and\n      dup2\n      mstore\n      0x20\n      add\n      swap1\n      dup2\n      mstore\n      0x20\n      add\n      0x00\n      keccak256\n      0x00\n        /* \"Contracts/MoonV1Customer.sol\":4893:4924  gateCustomerNextKey[_gater] = 1 */\n      0x0100\n      exp\n      dup2\n      sload\n      dup2\n      0xffffffff\n      mul\n      not\n      and\n      swap1\n      dup4\n      0xffffffff\n      and\n      mul\n      or\n      swap1\n      sstore\n      pop\n        /* \"Contracts/MoonV1Customer.sol\":4792:4924  if (gateCustomerNextKey[_gater] >= 1) {... */\n    tag_281:\n        /* \"Contracts/MoonV1Customer.sol\":4952:4958  _gater */\n      dup1\n        /* \"Contracts/MoonV1Customer.sol\":4934:4943  _customer */\n      dup3\n        /* \"Contracts/MoonV1Customer.sol\":4934:4949  _customer.Gater */\n      0x80\n      add\n        /* \"Contracts/MoonV1Customer.sol\":4934:4958  _customer.Gater = _gater */\n      swap1\n      0xffffffffffffffffffffffffffffffffffffffff\n      and\n      swap1\n      dup2\n      0xffffffffffffffffffffffffffffffffffffffff\n      and\n      dup2\n      mstore\n      pop\n      pop\n        /* \"Contracts/MoonV1Customer.sol\":4989:5008  gateCustomerNextKey */\n      0x07\n        /* \"Contracts/MoonV1Customer.sol\":4989:5016  gateCustomerNextKey[_gater] */\n      0x00\n        /* \"Contracts/MoonV1Customer.sol\":5009:5015  _gater */\n      dup3\n        /* \"Contracts/MoonV1Customer.sol\":4989:5016  gateCustomerNextKey[_gater] */\n      0xffffffffffffffffffffffffffffffffffffffff\n      and\n      0xffffffffffffffffffffffffffffffffffffffff\n      and\n      dup2\n      mstore\n      0x20\n      add\n      swap1\n      dup2\n      mstore\n      0x20\n      add\n      0x00\n      keccak256\n      0x00\n      swap1\n      sload\n      swap1\n      0x0100\n      exp\n      swap1\n      div\n      0xffffffff\n      and\n        /* \"Contracts/MoonV1Customer.sol\":4968:4977  _customer */\n      dup3\n        /* \"Contracts/MoonV1Customer.sol\":4968:4986  _customer.GaterKey */\n      0xa0\n      add\n        /* \"Contracts/MoonV1Customer.sol\":4968:5016  _customer.GaterKey = gateCustomerNextKey[_gater] */\n      swap1\n      0xffffffff\n      and\n      swap1\n      dup2\n      0xffffffff\n      and\n      dup2\n      mstore\n      pop\n      pop\n        /* \"Contracts/MoonV1Customer.sol\":5048:5049  1 */\n      0x01\n        /* \"Contracts/MoonV1Customer.sol\":5026:5044  customerUniNextKey */\n      0x04\n      0x00\n        /* \"Contracts/MoonV1Customer.sol\":5026:5049  customerUniNextKey += 1 */\n      dup3\n      dup3\n      dup3\n      swap1\n      sload\n      swap1\n      0x0100\n      exp\n      swap1\n      div\n      0xffffffffff\n      and\n      tag_282\n      swap2\n      swap1\n      tag_180\n      jump\t// in\n    tag_282:\n      swap3\n      pop\n      0x0100\n      exp\n      dup2\n      sload\n      dup2\n      0xffffffffff\n      mul\n      not\n      and\n      swap1\n      dup4\n      0xffffffffff\n      and\n      mul\n      or\n      swap1\n      sstore\n      pop\n        /* \"Contracts/MoonV1Customer.sol\":5096:5106  msg.sender */\n      caller\n        /* \"Contracts/MoonV1Customer.sol\":5059:5073  customerUniKey */\n      0x03\n        /* \"Contracts/MoonV1Customer.sol\":5059:5093  customerUniKey[customerUniNextKey] */\n      0x00\n        /* \"Contracts/MoonV1Customer.sol\":5074:5092  customerUniNextKey */\n      0x04\n      0x00\n      swap1\n      sload\n      swap1\n      0x0100\n      exp\n      swap1\n      div\n      0xffffffffff\n      and\n        /* \"Contracts/MoonV1Customer.sol\":5059:5093  customerUniKey[customerUniNextKey] */\n      0xffffffffff\n      and\n      0xffffffffff\n      and\n      dup2\n      mstore\n      0x20\n      add\n      swap1\n      dup2\n      mstore\n      0x20\n      add\n      0x00\n      keccak256\n      0x00\n        /* \"Contracts/MoonV1Customer.sol\":5059:5106  customerUniKey[customerUniNextKey] = msg.sender */\n      0x0100\n      exp\n      dup2\n      sload\n      dup2\n      0xffffffffffffffffffffffffffffffffffffffff\n      mul\n      not\n      and\n      swap1\n      dup4\n      0xffffffffffffffffffffffffffffffffffffffff\n      and\n      mul\n      or\n      swap1\n      sstore\n      pop\n        /* \"Contracts/MoonV1Customer.sol\":5140:5158  customerUniNextKey */\n      0x04\n      0x00\n      swap1\n      sload\n      swap1\n      0x0100\n      exp\n      swap1\n      div\n      0xffffffffff\n      and\n        /* \"Contracts/MoonV1Customer.sol\":5116:5125  _customer */\n      dup3\n        /* \"Contracts/MoonV1Customer.sol\":5116:5137  _customer.customerKey */\n      0x60\n      add\n        /* \"Contracts/MoonV1Customer.sol\":5116:5158  _customer.customerKey = customerUniNextKey */\n      swap1\n      0xffffffffff\n      and\n      swap1\n      dup2\n      0xffffffffff\n      and\n      dup2\n      mstore\n      pop\n      pop\n        /* \"Contracts/MoonV1Customer.sol\":5210:5219  _customer */\n      dup2\n        /* \"Contracts/MoonV1Customer.sol\":5168:5180  customerList */\n      0x02\n        /* \"Contracts/MoonV1Customer.sol\":5168:5207  customerList[_customer.contractAddress] */\n      0x00\n        /* \"Contracts/MoonV1Customer.sol\":5181:5190  _customer */\n      dup5\n        /* \"Contracts/MoonV1Customer.sol\":5181:5206  _customer.contractAddress */\n      0xc0\n      add\n      mload\n        /* \"Contracts/MoonV1Customer.sol\":5168:5207  customerList[_customer.contractAddress] */\n      0xffffffffffffffffffffffffffffffffffffffff\n      and\n      0xffffffffffffffffffffffffffffffffffffffff\n      and\n      dup2\n      mstore\n      0x20\n      add\n      swap1\n      dup2\n      mstore\n      0x20\n      add\n      0x00\n      keccak256\n        /* \"Contracts/MoonV1Customer.sol\":5168:5219  customerList[_customer.contractAddress] = _customer */\n      0x00\n      dup3\n      add\n      mload\n      dup2\n      0x00\n      add\n      sstore\n      0x20\n      dup3\n      add\n      mload\n      dup2\n      0x01\n      add\n      exp(0x0100, 0x00)\n      dup2\n      sload\n      dup2\n      0xffffffff\n      mul\n      not\n      and\n      swap1\n      dup4\n      0xffffffff\n      and\n      mul\n      or\n      swap1\n      sstore\n      pop\n      0x40\n      dup3\n      add\n      mload\n      dup2\n      0x01\n      add\n      exp(0x0100, 0x04)\n      dup2\n      sload\n      dup2\n      0xffffffffffffffffffffffffffffffffffffffff\n      mul\n      not\n      and\n      swap1\n      dup4\n      0xffffffffffffffffffffffffffffffffffffffff\n      and\n      mul\n      or\n      swap1\n      sstore\n      pop\n      0x60\n      dup3\n      add\n      mload\n      dup2\n      0x01\n      add\n      exp(0x0100, 0x18)\n      dup2\n      sload\n      dup2\n      0xffffffffff\n      mul\n      not\n      and\n      swap1\n      dup4\n      0xffffffffff\n      and\n      mul\n      or\n      swap1\n      sstore\n      pop\n      0x80\n      dup3\n      add\n      mload\n      dup2\n      0x02\n      add\n      exp(0x0100, 0x00)\n      dup2\n      sload\n      dup2\n      0xffffffffffffffffffffffffffffffffffffffff\n      mul\n      not\n      and\n      swap1\n      dup4\n      0xffffffffffffffffffffffffffffffffffffffff\n      and\n      mul\n      or\n      swap1\n      sstore\n      pop\n      0xa0\n      dup3\n      add\n      mload\n      dup2\n      0x02\n      add\n      exp(0x0100, 0x14)\n      dup2\n      sload\n      dup2\n      0xffffffff\n      mul\n      not\n      and\n      swap1\n      dup4\n      0xffffffff\n      and\n      mul\n      or\n      swap1\n      sstore\n      pop\n      0xc0\n      dup3\n      add\n      mload\n      dup2\n      0x03\n      add\n      exp(0x0100, 0x00)\n      dup2\n      sload\n      dup2\n      0xffffffffffffffffffffffffffffffffffffffff\n      mul\n      not\n      and\n      swap1\n      dup4\n      0xffffffffffffffffffffffffffffffffffffffff\n      and\n      mul\n      or\n      swap1\n      sstore\n      pop\n      0xe0\n      dup3\n      add\n      mload\n      dup2\n      0x03\n      add\n      exp(0x0100, 0x14)\n      dup2\n      sload\n      dup2\n      0xff\n      mul\n      not\n      and\n      swap1\n      dup4\n      iszero\n      iszero\n      mul\n      or\n      swap1\n      sstore\n      pop\n      0x0100\n      dup3\n      add\n      mload\n      dup2\n      0x03\n      add\n      exp(0x0100, 0x15)\n      dup2\n      sload\n      dup2\n      0xff\n      mul\n      not\n      and\n      swap1\n      dup4\n      iszero\n      iszero\n      mul\n      or\n      swap1\n      sstore\n      pop\n      swap1\n      pop\n      pop\n        /* \"Contracts/MoonV1Customer.sol\":5285:5295  msg.sender */\n      caller\n        /* \"Contracts/MoonV1Customer.sol\":5229:5245  gateCustomerList */\n      0x08\n        /* \"Contracts/MoonV1Customer.sol\":5229:5253  gateCustomerList[_gater] */\n      0x00\n        /* \"Contracts/MoonV1Customer.sol\":5246:5252  _gater */\n      dup4\n        /* \"Contracts/MoonV1Customer.sol\":5229:5253  gateCustomerList[_gater] */\n      0xffffffffffffffffffffffffffffffffffffffff\n      and\n      0xffffffffffffffffffffffffffffffffffffffff\n      and\n      dup2\n      mstore\n      0x20\n      add\n      swap1\n      dup2\n      mstore\n      0x20\n      add\n      0x00\n      keccak256\n        /* \"Contracts/MoonV1Customer.sol\":5229:5282  gateCustomerList[_gater][gateCustomerNextKey[_gater]] */\n      0x00\n        /* \"Contracts/MoonV1Customer.sol\":5254:5273  gateCustomerNextKey */\n      0x07\n        /* \"Contracts/MoonV1Customer.sol\":5254:5281  gateCustomerNextKey[_gater] */\n      0x00\n        /* \"Contracts/MoonV1Customer.sol\":5274:5280  _gater */\n      dup6\n        /* \"Contracts/MoonV1Customer.sol\":5254:5281  gateCustomerNextKey[_gater] */\n      0xffffffffffffffffffffffffffffffffffffffff\n      and\n      0xffffffffffffffffffffffffffffffffffffffff\n      and\n      dup2\n      mstore\n      0x20\n      add\n      swap1\n      dup2\n      mstore\n      0x20\n      add\n      0x00\n      keccak256\n      0x00\n      swap1\n      sload\n      swap1\n      0x0100\n      exp\n      swap1\n      div\n      0xffffffff\n      and\n        /* \"Contracts/MoonV1Customer.sol\":5229:5282  gateCustomerList[_gater][gateCustomerNextKey[_gater]] */\n      0xffffffff\n      and\n      0xffffffff\n      and\n      dup2\n      mstore\n      0x20\n      add\n      swap1\n      dup2\n      mstore\n      0x20\n      add\n      0x00\n      keccak256\n      0x00\n        /* \"Contracts/MoonV1Customer.sol\":5229:5295  gateCustomerList[_gater][gateCustomerNextKey[_gater]] = msg.sender */\n      0x0100\n      exp\n      dup2\n      sload\n      dup2\n      0xffffffffffffffffffffffffffffffffffffffff\n      mul\n      not\n      and\n      swap1\n      dup4\n      0xffffffffffffffffffffffffffffffffffffffff\n      and\n      mul\n      or\n      swap1\n      sstore\n      pop\n        /* \"Contracts/MoonV1Customer.sol\":4503:5302  function addCustomer(LCustomer.Info memory _customer, address _gater)... */\n      pop\n      pop\n      jump\t// out\n    tag_202:\n      dup3\n      0x0a\n      dup2\n      add\n      swap3\n      dup3\n      iszero\n      tag_283\n      jumpi\n      swap2\n      0x20\n      mul\n      dup3\n      add\n    tag_284:\n      dup3\n      dup2\n      gt\n      iszero\n      tag_285\n      jumpi\n      dup3\n      mload\n      dup3\n      sstore\n      swap2\n      0x20\n      add\n      swap2\n      swap1\n      0x01\n      add\n      swap1\n      jump(tag_284)\n    tag_285:\n    tag_283:\n      pop\n      swap1\n      pop\n      tag_286\n      swap2\n      swap1\n      tag_287\n      jump\t// in\n    tag_286:\n      pop\n      swap1\n      jump\t// out\n    tag_228:\n      pop\n      dup1\n      0x0a\n      add\n      swap1\n      tag_288\n      swap2\n      swap1\n      tag_287\n      jump\t// in\n    tag_288:\n      pop\n      jump\t// out\n    tag_235:\n      mload(0x40)\n      dup1\n      0x0120\n      add\n      0x40\n      mstore\n      dup1\n      0x00\n      dup1\n      not\n      and\n      dup2\n      mstore\n      0x20\n      add\n      and(0xffffffff, 0x00)\n      dup2\n      mstore\n      0x20\n      add\n      and(0xffffffffffffffffffffffffffffffffffffffff, 0x00)\n      dup2\n      mstore\n      0x20\n      add\n      and(0xffffffffff, 0x00)\n      dup2\n      mstore\n      0x20\n      add\n      and(0xffffffffffffffffffffffffffffffffffffffff, 0x00)\n      dup2\n      mstore\n      0x20\n      add\n      and(0xffffffff, 0x00)\n      dup2\n      mstore\n      0x20\n      add\n      and(0xffffffffffffffffffffffffffffffffffffffff, 0x00)\n      dup2\n      mstore\n      0x20\n      add\n      iszero(iszero(0x00))\n      dup2\n      mstore\n      0x20\n      add\n      iszero(iszero(0x00))\n      dup2\n      mstore\n      pop\n      swap1\n      jump\t// out\n    tag_287:\n    tag_289:\n      dup1\n      dup3\n      gt\n      iszero\n      tag_290\n      jumpi\n      0x00\n      dup2\n      0x00\n      swap1\n      sstore\n      pop\n      0x01\n      add\n      jump(tag_289)\n    tag_290:\n      pop\n      swap1\n      jump\t// out\n        /* \"#utility.yul\":26:683   */\n    tag_292:\n        /* \"#utility.yul\":121:126   */\n      0x00\n        /* \"#utility.yul\":146:226   */\n      tag_294\n        /* \"#utility.yul\":162:225   */\n      tag_295\n        /* \"#utility.yul\":218:224   */\n      dup5\n        /* \"#utility.yul\":162:225   */\n      tag_296\n      jump\t// in\n    tag_295:\n        /* \"#utility.yul\":146:226   */\n      tag_297\n      jump\t// in\n    tag_294:\n        /* \"#utility.yul\":137:226   */\n      swap1\n      pop\n        /* \"#utility.yul\":246:251   */\n      dup1\n        /* \"#utility.yul\":272:278   */\n      dup3\n        /* \"#utility.yul\":322:325   */\n      dup6\n        /* \"#utility.yul\":314:318   */\n      0x20\n        /* \"#utility.yul\":306:312   */\n      dup7\n        /* \"#utility.yul\":302:319   */\n      mul\n        /* \"#utility.yul\":297:300   */\n      dup3\n        /* \"#utility.yul\":293:320   */\n      add\n        /* \"#utility.yul\":290:326   */\n      gt\n        /* \"#utility.yul\":287:430   */\n      iszero\n      tag_298\n      jumpi\n        /* \"#utility.yul\":341:420   */\n      tag_299\n      tag_300\n      jump\t// in\n    tag_299:\n        /* \"#utility.yul\":287:430   */\n    tag_298:\n        /* \"#utility.yul\":454:455   */\n      0x00\n        /* \"#utility.yul\":439:677   */\n    tag_301:\n        /* \"#utility.yul\":464:470   */\n      dup6\n        /* \"#utility.yul\":461:462   */\n      dup2\n        /* \"#utility.yul\":458:471   */\n      lt\n        /* \"#utility.yul\":439:677   */\n      iszero\n      tag_303\n      jumpi\n        /* \"#utility.yul\":532:535   */\n      dup2\n        /* \"#utility.yul\":561:598   */\n      tag_304\n        /* \"#utility.yul\":594:597   */\n      dup9\n        /* \"#utility.yul\":582:592   */\n      dup3\n        /* \"#utility.yul\":561:598   */\n      tag_305\n      jump\t// in\n    tag_304:\n        /* \"#utility.yul\":556:559   */\n      dup5\n        /* \"#utility.yul\":549:599   */\n      mstore\n        /* \"#utility.yul\":628:632   */\n      0x20\n        /* \"#utility.yul\":623:626   */\n      dup5\n        /* \"#utility.yul\":619:633   */\n      add\n        /* \"#utility.yul\":612:633   */\n      swap4\n      pop\n        /* \"#utility.yul\":662:666   */\n      0x20\n        /* \"#utility.yul\":657:660   */\n      dup4\n        /* \"#utility.yul\":653:667   */\n      add\n        /* \"#utility.yul\":646:667   */\n      swap3\n      pop\n        /* \"#utility.yul\":499:677   */\n      pop\n        /* \"#utility.yul\":486:487   */\n      0x01\n        /* \"#utility.yul\":483:484   */\n      dup2\n        /* \"#utility.yul\":479:488   */\n      add\n        /* \"#utility.yul\":474:488   */\n      swap1\n      pop\n        /* \"#utility.yul\":439:677   */\n      jump(tag_301)\n    tag_303:\n        /* \"#utility.yul\":443:457   */\n      pop\n        /* \"#utility.yul\":127:683   */\n      pop\n      pop\n        /* \"#utility.yul\":26:683   */\n      swap4\n      swap3\n      pop\n      pop\n      pop\n      jump\t// out\n        /* \"#utility.yul\":689:828   */\n    tag_306:\n        /* \"#utility.yul\":735:740   */\n      0x00\n        /* \"#utility.yul\":773:779   */\n      dup2\n        /* \"#utility.yul\":760:780   */\n      calldataload\n        /* \"#utility.yul\":751:780   */\n      swap1\n      pop\n        /* \"#utility.yul\":789:822   */\n      tag_308\n        /* \"#utility.yul\":816:821   */\n      dup2\n        /* \"#utility.yul\":789:822   */\n      tag_309\n      jump\t// in\n    tag_308:\n        /* \"#utility.yul\":689:828   */\n      swap3\n      swap2\n      pop\n      pop\n      jump\t// out\n        /* \"#utility.yul\":853:1194   */\n    tag_310:\n        /* \"#utility.yul\":923:928   */\n      0x00\n        /* \"#utility.yul\":972:975   */\n      dup3\n        /* \"#utility.yul\":965:969   */\n      0x1f\n        /* \"#utility.yul\":957:963   */\n      dup4\n        /* \"#utility.yul\":953:970   */\n      add\n        /* \"#utility.yul\":949:976   */\n      slt\n        /* \"#utility.yul\":939:1061   */\n      tag_312\n      jumpi\n        /* \"#utility.yul\":980:1059   */\n      tag_313\n      tag_314\n      jump\t// in\n    tag_313:\n        /* \"#utility.yul\":939:1061   */\n    tag_312:\n        /* \"#utility.yul\":1084:1088   */\n      0x0a\n        /* \"#utility.yul\":1106:1188   */\n      tag_315\n        /* \"#utility.yul\":1184:1187   */\n      dup5\n        /* \"#utility.yul\":1176:1182   */\n      dup3\n        /* \"#utility.yul\":1168:1174   */\n      dup6\n        /* \"#utility.yul\":1106:1188   */\n      tag_292\n      jump\t// in\n    tag_315:\n        /* \"#utility.yul\":1097:1188   */\n      swap2\n      pop\n        /* \"#utility.yul\":929:1194   */\n      pop\n        /* \"#utility.yul\":853:1194   */\n      swap3\n      swap2\n      pop\n      pop\n      jump\t// out\n        /* \"#utility.yul\":1200:1333   */\n    tag_316:\n        /* \"#utility.yul\":1243:1248   */\n      0x00\n        /* \"#utility.yul\":1281:1287   */\n      dup2\n        /* \"#utility.yul\":1268:1288   */\n      calldataload\n        /* \"#utility.yul\":1259:1288   */\n      swap1\n      pop\n        /* \"#utility.yul\":1297:1327   */\n      tag_318\n        /* \"#utility.yul\":1321:1326   */\n      dup2\n        /* \"#utility.yul\":1297:1327   */\n      tag_319\n      jump\t// in\n    tag_318:\n        /* \"#utility.yul\":1200:1333   */\n      swap3\n      swap2\n      pop\n      pop\n      jump\t// out\n        /* \"#utility.yul\":1339:1478   */\n    tag_305:\n        /* \"#utility.yul\":1385:1390   */\n      0x00\n        /* \"#utility.yul\":1423:1429   */\n      dup2\n        /* \"#utility.yul\":1410:1430   */\n      calldataload\n        /* \"#utility.yul\":1401:1430   */\n      swap1\n      pop\n        /* \"#utility.yul\":1439:1472   */\n      tag_321\n        /* \"#utility.yul\":1466:1471   */\n      dup2\n        /* \"#utility.yul\":1439:1472   */\n      tag_322\n      jump\t// in\n    tag_321:\n        /* \"#utility.yul\":1339:1478   */\n      swap3\n      swap2\n      pop\n      pop\n      jump\t// out\n        /* \"#utility.yul\":1513:3261   */\n    tag_323:\n        /* \"#utility.yul\":1583:1588   */\n      0x00\n        /* \"#utility.yul\":1627:1633   */\n      0x0120\n        /* \"#utility.yul\":1615:1624   */\n      dup3\n        /* \"#utility.yul\":1610:1613   */\n      dup5\n        /* \"#utility.yul\":1606:1625   */\n      sub\n        /* \"#utility.yul\":1602:1634   */\n      slt\n        /* \"#utility.yul\":1599:1718   */\n      iszero\n      tag_325\n      jumpi\n        /* \"#utility.yul\":1637:1716   */\n      tag_326\n      tag_327\n      jump\t// in\n    tag_326:\n        /* \"#utility.yul\":1599:1718   */\n    tag_325:\n        /* \"#utility.yul\":1736:1759   */\n      tag_328\n        /* \"#utility.yul\":1752:1758   */\n      0x0120\n        /* \"#utility.yul\":1736:1759   */\n      tag_297\n      jump\t// in\n    tag_328:\n        /* \"#utility.yul\":1727:1759   */\n      swap1\n      pop\n        /* \"#utility.yul\":1822:1823   */\n      0x00\n        /* \"#utility.yul\":1862:1911   */\n      tag_329\n        /* \"#utility.yul\":1907:1910   */\n      dup5\n        /* \"#utility.yul\":1898:1904   */\n      dup3\n        /* \"#utility.yul\":1887:1896   */\n      dup6\n        /* \"#utility.yul\":1883:1905   */\n      add\n        /* \"#utility.yul\":1862:1911   */\n      tag_305\n      jump\t// in\n    tag_329:\n        /* \"#utility.yul\":1855:1859   */\n      0x00\n        /* \"#utility.yul\":1848:1853   */\n      dup4\n        /* \"#utility.yul\":1844:1860   */\n      add\n        /* \"#utility.yul\":1837:1912   */\n      mstore\n        /* \"#utility.yul\":1769:1923   */\n      pop\n        /* \"#utility.yul\":1993:1995   */\n      0x20\n        /* \"#utility.yul\":2034:2082   */\n      tag_330\n        /* \"#utility.yul\":2078:2081   */\n      dup5\n        /* \"#utility.yul\":2069:2075   */\n      dup3\n        /* \"#utility.yul\":2058:2067   */\n      dup6\n        /* \"#utility.yul\":2054:2076   */\n      add\n        /* \"#utility.yul\":2034:2082   */\n      tag_331\n      jump\t// in\n    tag_330:\n        /* \"#utility.yul\":2027:2031   */\n      0x20\n        /* \"#utility.yul\":2020:2025   */\n      dup4\n        /* \"#utility.yul\":2016:2032   */\n      add\n        /* \"#utility.yul\":2009:2083   */\n      mstore\n        /* \"#utility.yul\":1933:2094   */\n      pop\n        /* \"#utility.yul\":2160:2162   */\n      0x40\n        /* \"#utility.yul\":2201:2250   */\n      tag_332\n        /* \"#utility.yul\":2246:2249   */\n      dup5\n        /* \"#utility.yul\":2237:2243   */\n      dup3\n        /* \"#utility.yul\":2226:2235   */\n      dup6\n        /* \"#utility.yul\":2222:2244   */\n      add\n        /* \"#utility.yul\":2201:2250   */\n      tag_306\n      jump\t// in\n    tag_332:\n        /* \"#utility.yul\":2194:2198   */\n      0x40\n        /* \"#utility.yul\":2187:2192   */\n      dup4\n        /* \"#utility.yul\":2183:2199   */\n      add\n        /* \"#utility.yul\":2176:2251   */\n      mstore\n        /* \"#utility.yul\":2104:2262   */\n      pop\n        /* \"#utility.yul\":2328:2330   */\n      0x60\n        /* \"#utility.yul\":2369:2417   */\n      tag_333\n        /* \"#utility.yul\":2413:2416   */\n      dup5\n        /* \"#utility.yul\":2404:2410   */\n      dup3\n        /* \"#utility.yul\":2393:2402   */\n      dup6\n        /* \"#utility.yul\":2389:2411   */\n      add\n        /* \"#utility.yul\":2369:2417   */\n      tag_334\n      jump\t// in\n    tag_333:\n        /* \"#utility.yul\":2362:2366   */\n      0x60\n        /* \"#utility.yul\":2355:2360   */\n      dup4\n        /* \"#utility.yul\":2351:2367   */\n      add\n        /* \"#utility.yul\":2344:2418   */\n      mstore\n        /* \"#utility.yul\":2272:2429   */\n      pop\n        /* \"#utility.yul\":2489:2492   */\n      0x80\n        /* \"#utility.yul\":2531:2580   */\n      tag_335\n        /* \"#utility.yul\":2576:2579   */\n      dup5\n        /* \"#utility.yul\":2567:2573   */\n      dup3\n        /* \"#utility.yul\":2556:2565   */\n      dup6\n        /* \"#utility.yul\":2552:2574   */\n      add\n        /* \"#utility.yul\":2531:2580   */\n      tag_306\n      jump\t// in\n    tag_335:\n        /* \"#utility.yul\":2524:2528   */\n      0x80\n        /* \"#utility.yul\":2517:2522   */\n      dup4\n        /* \"#utility.yul\":2513:2529   */\n      add\n        /* \"#utility.yul\":2506:2581   */\n      mstore\n        /* \"#utility.yul\":2439:2592   */\n      pop\n        /* \"#utility.yul\":2655:2658   */\n      0xa0\n        /* \"#utility.yul\":2697:2745   */\n      tag_336\n        /* \"#utility.yul\":2741:2744   */\n      dup5\n        /* \"#utility.yul\":2732:2738   */\n      dup3\n        /* \"#utility.yul\":2721:2730   */\n      dup6\n        /* \"#utility.yul\":2717:2739   */\n      add\n        /* \"#utility.yul\":2697:2745   */\n      tag_331\n      jump\t// in\n    tag_336:\n        /* \"#utility.yul\":2690:2694   */\n      0xa0\n        /* \"#utility.yul\":2683:2688   */\n      dup4\n        /* \"#utility.yul\":2679:2695   */\n      add\n        /* \"#utility.yul\":2672:2746   */\n      mstore\n        /* \"#utility.yul\":2602:2757   */\n      pop\n        /* \"#utility.yul\":2827:2830   */\n      0xc0\n        /* \"#utility.yul\":2869:2918   */\n      tag_337\n        /* \"#utility.yul\":2914:2917   */\n      dup5\n        /* \"#utility.yul\":2905:2911   */\n      dup3\n        /* \"#utility.yul\":2894:2903   */\n      dup6\n        /* \"#utility.yul\":2890:2912   */\n      add\n        /* \"#utility.yul\":2869:2918   */\n      tag_306\n      jump\t// in\n    tag_337:\n        /* \"#utility.yul\":2862:2866   */\n      0xc0\n        /* \"#utility.yul\":2855:2860   */\n      dup4\n        /* \"#utility.yul\":2851:2867   */\n      add\n        /* \"#utility.yul\":2844:2919   */\n      mstore\n        /* \"#utility.yul\":2767:2930   */\n      pop\n        /* \"#utility.yul\":2991:2994   */\n      0xe0\n        /* \"#utility.yul\":3033:3079   */\n      tag_338\n        /* \"#utility.yul\":3075:3078   */\n      dup5\n        /* \"#utility.yul\":3066:3072   */\n      dup3\n        /* \"#utility.yul\":3055:3064   */\n      dup6\n        /* \"#utility.yul\":3051:3073   */\n      add\n        /* \"#utility.yul\":3033:3079   */\n      tag_316\n      jump\t// in\n    tag_338:\n        /* \"#utility.yul\":3026:3030   */\n      0xe0\n        /* \"#utility.yul\":3019:3024   */\n      dup4\n        /* \"#utility.yul\":3015:3031   */\n      add\n        /* \"#utility.yul\":3008:3080   */\n      mstore\n        /* \"#utility.yul\":2940:3091   */\n      pop\n        /* \"#utility.yul\":3152:3155   */\n      0x0100\n        /* \"#utility.yul\":3196:3242   */\n      tag_339\n        /* \"#utility.yul\":3238:3241   */\n      dup5\n        /* \"#utility.yul\":3229:3235   */\n      dup3\n        /* \"#utility.yul\":3218:3227   */\n      dup6\n        /* \"#utility.yul\":3214:3236   */\n      add\n        /* \"#utility.yul\":3196:3242   */\n      tag_316\n      jump\t// in\n    tag_339:\n        /* \"#utility.yul\":3187:3193   */\n      0x0100\n        /* \"#utility.yul\":3180:3185   */\n      dup4\n        /* \"#utility.yul\":3176:3194   */\n      add\n        /* \"#utility.yul\":3169:3243   */\n      mstore\n        /* \"#utility.yul\":3101:3254   */\n      pop\n        /* \"#utility.yul\":1513:3261   */\n      swap3\n      swap2\n      pop\n      pop\n      jump\t// out\n        /* \"#utility.yul\":3292:5225   */\n    tag_340:\n        /* \"#utility.yul\":3362:3367   */\n      0x00\n        /* \"#utility.yul\":3406:3412   */\n      0x0260\n        /* \"#utility.yul\":3394:3403   */\n      dup3\n        /* \"#utility.yul\":3389:3392   */\n      dup5\n        /* \"#utility.yul\":3385:3404   */\n      sub\n        /* \"#utility.yul\":3381:3413   */\n      slt\n        /* \"#utility.yul\":3378:3497   */\n      iszero\n      tag_342\n      jumpi\n        /* \"#utility.yul\":3416:3495   */\n      tag_343\n      tag_327\n      jump\t// in\n    tag_343:\n        /* \"#utility.yul\":3378:3497   */\n    tag_342:\n        /* \"#utility.yul\":3515:3538   */\n      tag_344\n        /* \"#utility.yul\":3531:3537   */\n      0x0140\n        /* \"#utility.yul\":3515:3538   */\n      tag_297\n      jump\t// in\n    tag_344:\n        /* \"#utility.yul\":3506:3538   */\n      swap1\n      pop\n        /* \"#utility.yul\":3599:3600   */\n      0x00\n        /* \"#utility.yul\":3639:3688   */\n      tag_345\n        /* \"#utility.yul\":3684:3687   */\n      dup5\n        /* \"#utility.yul\":3675:3681   */\n      dup3\n        /* \"#utility.yul\":3664:3673   */\n      dup6\n        /* \"#utility.yul\":3660:3682   */\n      add\n        /* \"#utility.yul\":3639:3688   */\n      tag_306\n      jump\t// in\n    tag_345:\n        /* \"#utility.yul\":3632:3636   */\n      0x00\n        /* \"#utility.yul\":3625:3630   */\n      dup4\n        /* \"#utility.yul\":3621:3637   */\n      add\n        /* \"#utility.yul\":3614:3689   */\n      mstore\n        /* \"#utility.yul\":3548:3700   */\n      pop\n        /* \"#utility.yul\":3766:3768   */\n      0x20\n        /* \"#utility.yul\":3807:3856   */\n      tag_346\n        /* \"#utility.yul\":3852:3855   */\n      dup5\n        /* \"#utility.yul\":3843:3849   */\n      dup3\n        /* \"#utility.yul\":3832:3841   */\n      dup6\n        /* \"#utility.yul\":3828:3850   */\n      add\n        /* \"#utility.yul\":3807:3856   */\n      tag_306\n      jump\t// in\n    tag_346:\n        /* \"#utility.yul\":3800:3804   */\n      0x20\n        /* \"#utility.yul\":3793:3798   */\n      dup4\n        /* \"#utility.yul\":3789:3805   */\n      add\n        /* \"#utility.yul\":3782:3857   */\n      mstore\n        /* \"#utility.yul\":3710:3868   */\n      pop\n        /* \"#utility.yul\":3932:3934   */\n      0x40\n        /* \"#utility.yul\":3973:4022   */\n      tag_347\n        /* \"#utility.yul\":4018:4021   */\n      dup5\n        /* \"#utility.yul\":4009:4015   */\n      dup3\n        /* \"#utility.yul\":3998:4007   */\n      dup6\n        /* \"#utility.yul\":3994:4016   */\n      add\n        /* \"#utility.yul\":3973:4022   */\n      tag_348\n      jump\t// in\n    tag_347:\n        /* \"#utility.yul\":3966:3970   */\n      0x40\n        /* \"#utility.yul\":3959:3964   */\n      dup4\n        /* \"#utility.yul\":3955:3971   */\n      add\n        /* \"#utility.yul\":3948:4023   */\n      mstore\n        /* \"#utility.yul\":3878:4034   */\n      pop\n        /* \"#utility.yul\":4093:4095   */\n      0x60\n        /* \"#utility.yul\":4134:4183   */\n      tag_349\n        /* \"#utility.yul\":4179:4182   */\n      dup5\n        /* \"#utility.yul\":4170:4176   */\n      dup3\n        /* \"#utility.yul\":4159:4168   */\n      dup6\n        /* \"#utility.yul\":4155:4177   */\n      add\n        /* \"#utility.yul\":4134:4183   */\n      tag_305\n      jump\t// in\n    tag_349:\n        /* \"#utility.yul\":4127:4131   */\n      0x60\n        /* \"#utility.yul\":4120:4125   */\n      dup4\n        /* \"#utility.yul\":4116:4132   */\n      add\n        /* \"#utility.yul\":4109:4184   */\n      mstore\n        /* \"#utility.yul\":4044:4195   */\n      pop\n        /* \"#utility.yul\":4257:4260   */\n      0x80\n        /* \"#utility.yul\":4299:4348   */\n      tag_350\n        /* \"#utility.yul\":4344:4347   */\n      dup5\n        /* \"#utility.yul\":4335:4341   */\n      dup3\n        /* \"#utility.yul\":4324:4333   */\n      dup6\n        /* \"#utility.yul\":4320:4342   */\n      add\n        /* \"#utility.yul\":4299:4348   */\n      tag_305\n      jump\t// in\n    tag_350:\n        /* \"#utility.yul\":4292:4296   */\n      0x80\n        /* \"#utility.yul\":4285:4290   */\n      dup4\n        /* \"#utility.yul\":4281:4297   */\n      add\n        /* \"#utility.yul\":4274:4349   */\n      mstore\n        /* \"#utility.yul\":4205:4360   */\n      pop\n        /* \"#utility.yul\":4426:4429   */\n      0xa0\n        /* \"#utility.yul\":4468:4541   */\n      tag_351\n        /* \"#utility.yul\":4537:4540   */\n      dup5\n        /* \"#utility.yul\":4528:4534   */\n      dup3\n        /* \"#utility.yul\":4517:4526   */\n      dup6\n        /* \"#utility.yul\":4513:4535   */\n      add\n        /* \"#utility.yul\":4468:4541   */\n      tag_310\n      jump\t// in\n    tag_351:\n        /* \"#utility.yul\":4461:4465   */\n      0xa0\n        /* \"#utility.yul\":4454:4459   */\n      dup4\n        /* \"#utility.yul\":4450:4466   */\n      add\n        /* \"#utility.yul\":4443:4542   */\n      mstore\n        /* \"#utility.yul\":4370:4553   */\n      pop\n        /* \"#utility.yul\":4623:4626   */\n      0x01e0\n        /* \"#utility.yul\":4665:4713   */\n      tag_352\n        /* \"#utility.yul\":4709:4712   */\n      dup5\n        /* \"#utility.yul\":4700:4706   */\n      dup3\n        /* \"#utility.yul\":4689:4698   */\n      dup6\n        /* \"#utility.yul\":4685:4707   */\n      add\n        /* \"#utility.yul\":4665:4713   */\n      tag_331\n      jump\t// in\n    tag_352:\n        /* \"#utility.yul\":4658:4662   */\n      0xc0\n        /* \"#utility.yul\":4651:4656   */\n      dup4\n        /* \"#utility.yul\":4647:4663   */\n      add\n        /* \"#utility.yul\":4640:4714   */\n      mstore\n        /* \"#utility.yul\":4563:4725   */\n      pop\n        /* \"#utility.yul\":4792:4795   */\n      0x0200\n        /* \"#utility.yul\":4834:4880   */\n      tag_353\n        /* \"#utility.yul\":4876:4879   */\n      dup5\n        /* \"#utility.yul\":4867:4873   */\n      dup3\n        /* \"#utility.yul\":4856:4865   */\n      dup6\n        /* \"#utility.yul\":4852:4874   */\n      add\n        /* \"#utility.yul\":4834:4880   */\n      tag_316\n      jump\t// in\n    tag_353:\n        /* \"#utility.yul\":4827:4831   */\n      0xe0\n        /* \"#utility.yul\":4820:4825   */\n      dup4\n        /* \"#utility.yul\":4816:4832   */\n      add\n        /* \"#utility.yul\":4809:4881   */\n      mstore\n        /* \"#utility.yul\":4735:4892   */\n      pop\n        /* \"#utility.yul\":4953:4956   */\n      0x0220\n        /* \"#utility.yul\":4997:5043   */\n      tag_354\n        /* \"#utility.yul\":5039:5042   */\n      dup5\n        /* \"#utility.yul\":5030:5036   */\n      dup3\n        /* \"#utility.yul\":5019:5028   */\n      dup6\n        /* \"#utility.yul\":5015:5037   */\n      add\n        /* \"#utility.yul\":4997:5043   */\n      tag_316\n      jump\t// in\n    tag_354:\n        /* \"#utility.yul\":4988:4994   */\n      0x0100\n        /* \"#utility.yul\":4981:4986   */\n      dup4\n        /* \"#utility.yul\":4977:4995   */\n      add\n        /* \"#utility.yul\":4970:5044   */\n      mstore\n        /* \"#utility.yul\":4902:5055   */\n      pop\n        /* \"#utility.yul\":5116:5119   */\n      0x0240\n        /* \"#utility.yul\":5160:5206   */\n      tag_355\n        /* \"#utility.yul\":5202:5205   */\n      dup5\n        /* \"#utility.yul\":5193:5199   */\n      dup3\n        /* \"#utility.yul\":5182:5191   */\n      dup6\n        /* \"#utility.yul\":5178:5200   */\n      add\n        /* \"#utility.yul\":5160:5206   */\n      tag_316\n      jump\t// in\n    tag_355:\n        /* \"#utility.yul\":5151:5157   */\n      0x0120\n        /* \"#utility.yul\":5144:5149   */\n      dup4\n        /* \"#utility.yul\":5140:5158   */\n      add\n        /* \"#utility.yul\":5133:5207   */\n      mstore\n        /* \"#utility.yul\":5065:5218   */\n      pop\n        /* \"#utility.yul\":3292:5225   */\n      swap3\n      swap2\n      pop\n      pop\n      jump\t// out\n        /* \"#utility.yul\":5231:5370   */\n    tag_348:\n        /* \"#utility.yul\":5277:5282   */\n      0x00\n        /* \"#utility.yul\":5315:5321   */\n      dup2\n        /* \"#utility.yul\":5302:5322   */\n      calldataload\n        /* \"#utility.yul\":5293:5322   */\n      swap1\n      pop\n        /* \"#utility.yul\":5331:5364   */\n      tag_357\n        /* \"#utility.yul\":5358:5363   */\n      dup2\n        /* \"#utility.yul\":5331:5364   */\n      tag_358\n      jump\t// in\n    tag_357:\n        /* \"#utility.yul\":5231:5370   */\n      swap3\n      swap2\n      pop\n      pop\n      jump\t// out\n        /* \"#utility.yul\":5376:5513   */\n    tag_331:\n        /* \"#utility.yul\":5421:5426   */\n      0x00\n        /* \"#utility.yul\":5459:5465   */\n      dup2\n        /* \"#utility.yul\":5446:5466   */\n      calldataload\n        /* \"#utility.yul\":5437:5466   */\n      swap1\n      pop\n        /* \"#utility.yul\":5475:5507   */\n      tag_360\n        /* \"#utility.yul\":5501:5506   */\n      dup2\n        /* \"#utility.yul\":5475:5507   */\n      tag_361\n      jump\t// in\n    tag_360:\n        /* \"#utility.yul\":5376:5513   */\n      swap3\n      swap2\n      pop\n      pop\n      jump\t// out\n        /* \"#utility.yul\":5519:5656   */\n    tag_334:\n        /* \"#utility.yul\":5564:5569   */\n      0x00\n        /* \"#utility.yul\":5602:5608   */\n      dup2\n        /* \"#utility.yul\":5589:5609   */\n      calldataload\n        /* \"#utility.yul\":5580:5609   */\n      swap1\n      pop\n        /* \"#utility.yul\":5618:5650   */\n      tag_363\n        /* \"#utility.yul\":5644:5649   */\n      dup2\n        /* \"#utility.yul\":5618:5650   */\n      tag_364\n      jump\t// in\n    tag_363:\n        /* \"#utility.yul\":5519:5656   */\n      swap3\n      swap2\n      pop\n      pop\n      jump\t// out\n        /* \"#utility.yul\":5662:5991   */\n    tag_45:\n        /* \"#utility.yul\":5721:5727   */\n      0x00\n        /* \"#utility.yul\":5770:5772   */\n      0x20\n        /* \"#utility.yul\":5758:5767   */\n      dup3\n        /* \"#utility.yul\":5749:5756   */\n      dup5\n        /* \"#utility.yul\":5745:5768   */\n      sub\n        /* \"#utility.yul\":5741:5773   */\n      slt\n        /* \"#utility.yul\":5738:5857   */\n      iszero\n      tag_366\n      jumpi\n        /* \"#utility.yul\":5776:5855   */\n      tag_367\n      tag_368\n      jump\t// in\n    tag_367:\n        /* \"#utility.yul\":5738:5857   */\n    tag_366:\n        /* \"#utility.yul\":5896:5897   */\n      0x00\n        /* \"#utility.yul\":5921:5974   */\n      tag_369\n        /* \"#utility.yul\":5966:5973   */\n      dup5\n        /* \"#utility.yul\":5957:5963   */\n      dup3\n        /* \"#utility.yul\":5946:5955   */\n      dup6\n        /* \"#utility.yul\":5942:5964   */\n      add\n        /* \"#utility.yul\":5921:5974   */\n      tag_306\n      jump\t// in\n    tag_369:\n        /* \"#utility.yul\":5911:5974   */\n      swap2\n      pop\n        /* \"#utility.yul\":5867:5984   */\n      pop\n        /* \"#utility.yul\":5662:5991   */\n      swap3\n      swap2\n      pop\n      pop\n      jump\t// out\n        /* \"#utility.yul\":5997:6469   */\n    tag_84:\n        /* \"#utility.yul\":6064:6070   */\n      0x00\n        /* \"#utility.yul\":6072:6078   */\n      dup1\n        /* \"#utility.yul\":6121:6123   */\n      0x40\n        /* \"#utility.yul\":6109:6118   */\n      dup4\n        /* \"#utility.yul\":6100:6107   */\n      dup6\n        /* \"#utility.yul\":6096:6119   */\n      sub\n        /* \"#utility.yul\":6092:6124   */\n      slt\n        /* \"#utility.yul\":6089:6208   */\n      iszero\n      tag_371\n      jumpi\n        /* \"#utility.yul\":6127:6206   */\n      tag_372\n      tag_368\n      jump\t// in\n    tag_372:\n        /* \"#utility.yul\":6089:6208   */\n    tag_371:\n        /* \"#utility.yul\":6247:6248   */\n      0x00\n        /* \"#utility.yul\":6272:6325   */\n      tag_373\n        /* \"#utility.yul\":6317:6324   */\n      dup6\n        /* \"#utility.yul\":6308:6314   */\n      dup3\n        /* \"#utility.yul\":6297:6306   */\n      dup7\n        /* \"#utility.yul\":6293:6315   */\n      add\n        /* \"#utility.yul\":6272:6325   */\n      tag_306\n      jump\t// in\n    tag_373:\n        /* \"#utility.yul\":6262:6325   */\n      swap3\n      pop\n        /* \"#utility.yul\":6218:6335   */\n      pop\n        /* \"#utility.yul\":6374:6376   */\n      0x20\n        /* \"#utility.yul\":6400:6452   */\n      tag_374\n        /* \"#utility.yul\":6444:6451   */\n      dup6\n        /* \"#utility.yul\":6435:6441   */\n      dup3\n        /* \"#utility.yul\":6424:6433   */\n      dup7\n        /* \"#utility.yul\":6420:6442   */\n      add\n        /* \"#utility.yul\":6400:6452   */\n      tag_331\n      jump\t// in\n    tag_374:\n        /* \"#utility.yul\":6390:6452   */\n      swap2\n      pop\n        /* \"#utility.yul\":6345:6462   */\n      pop\n        /* \"#utility.yul\":5997:6469   */\n      swap3\n      pop\n      swap3\n      swap1\n      pop\n      jump\t// out\n        /* \"#utility.yul\":6475:6804   */\n    tag_68:\n        /* \"#utility.yul\":6534:6540   */\n      0x00\n        /* \"#utility.yul\":6583:6585   */\n      0x20\n        /* \"#utility.yul\":6571:6580   */\n      dup3\n        /* \"#utility.yul\":6562:6569   */\n      dup5\n        /* \"#utility.yul\":6558:6581   */\n      sub\n        /* \"#utility.yul\":6554:6586   */\n      slt\n        /* \"#utility.yul\":6551:6670   */\n      iszero\n      tag_376\n      jumpi\n        /* \"#utility.yul\":6589:6668   */\n      tag_377\n      tag_368\n      jump\t// in\n    tag_377:\n        /* \"#utility.yul\":6551:6670   */\n    tag_376:\n        /* \"#utility.yul\":6709:6710   */\n      0x00\n        /* \"#utility.yul\":6734:6787   */\n      tag_378\n        /* \"#utility.yul\":6779:6786   */\n      dup5\n        /* \"#utility.yul\":6770:6776   */\n      dup3\n        /* \"#utility.yul\":6759:6768   */\n      dup6\n        /* \"#utility.yul\":6755:6777   */\n      add\n        /* \"#utility.yul\":6734:6787   */\n      tag_305\n      jump\t// in\n    tag_378:\n        /* \"#utility.yul\":6724:6787   */\n      swap2\n      pop\n        /* \"#utility.yul\":6680:6797   */\n      pop\n        /* \"#utility.yul\":6475:6804   */\n      swap3\n      swap2\n      pop\n      pop\n      jump\t// out\n        /* \"#utility.yul\":6810:7182   */\n    tag_53:\n        /* \"#utility.yul\":6890:6896   */\n      0x00\n        /* \"#utility.yul\":6939:6942   */\n      0x0120\n        /* \"#utility.yul\":6927:6936   */\n      dup3\n        /* \"#utility.yul\":6918:6925   */\n      dup5\n        /* \"#utility.yul\":6914:6937   */\n      sub\n        /* \"#utility.yul\":6910:6943   */\n      slt\n        /* \"#utility.yul\":6907:7027   */\n      iszero\n      tag_380\n      jumpi\n        /* \"#utility.yul\":6946:7025   */\n      tag_381\n      tag_368\n      jump\t// in\n    tag_381:\n        /* \"#utility.yul\":6907:7027   */\n    tag_380:\n        /* \"#utility.yul\":7066:7067   */\n      0x00\n        /* \"#utility.yul\":7091:7165   */\n      tag_382\n        /* \"#utility.yul\":7157:7164   */\n      dup5\n        /* \"#utility.yul\":7148:7154   */\n      dup3\n        /* \"#utility.yul\":7137:7146   */\n      dup6\n        /* \"#utility.yul\":7133:7155   */\n      add\n        /* \"#utility.yul\":7091:7165   */\n      tag_323\n      jump\t// in\n    tag_382:\n        /* \"#utility.yul\":7081:7165   */\n      swap2\n      pop\n        /* \"#utility.yul\":7037:7175   */\n      pop\n        /* \"#utility.yul\":6810:7182   */\n      swap3\n      swap2\n      pop\n      pop\n      jump\t// out\n        /* \"#utility.yul\":7188:7706   */\n    tag_165:\n        /* \"#utility.yul\":7277:7283   */\n      0x00\n        /* \"#utility.yul\":7285:7291   */\n      dup1\n        /* \"#utility.yul\":7334:7337   */\n      0x0140\n        /* \"#utility.yul\":7322:7331   */\n      dup4\n        /* \"#utility.yul\":7313:7320   */\n      dup6\n        /* \"#utility.yul\":7309:7332   */\n      sub\n        /* \"#utility.yul\":7305:7338   */\n      slt\n        /* \"#utility.yul\":7302:7422   */\n      iszero\n      tag_384\n      jumpi\n        /* \"#utility.yul\":7341:7420   */\n      tag_385\n      tag_368\n      jump\t// in\n    tag_385:\n        /* \"#utility.yul\":7302:7422   */\n    tag_384:\n        /* \"#utility.yul\":7461:7462   */\n      0x00\n        /* \"#utility.yul\":7486:7560   */\n      tag_386\n        /* \"#utility.yul\":7552:7559   */\n      dup6\n        /* \"#utility.yul\":7543:7549   */\n      dup3\n        /* \"#utility.yul\":7532:7541   */\n      dup7\n        /* \"#utility.yul\":7528:7550   */\n      add\n        /* \"#utility.yul\":7486:7560   */\n      tag_323\n      jump\t// in\n    tag_386:\n        /* \"#utility.yul\":7476:7560   */\n      swap3\n      pop\n        /* \"#utility.yul\":7432:7570   */\n      pop\n        /* \"#utility.yul\":7609:7612   */\n      0x0120\n        /* \"#utility.yul\":7636:7689   */\n      tag_387\n        /* \"#utility.yul\":7681:7688   */\n      dup6\n        /* \"#utility.yul\":7672:7678   */\n      dup3\n        /* \"#utility.yul\":7661:7670   */\n      dup7\n        /* \"#utility.yul\":7657:7679   */\n      add\n        /* \"#utility.yul\":7636:7689   */\n      tag_306\n      jump\t// in\n    tag_387:\n        /* \"#utility.yul\":7626:7689   */\n      swap2\n      pop\n        /* \"#utility.yul\":7580:7699   */\n      pop\n        /* \"#utility.yul\":7188:7706   */\n      swap3\n      pop\n      swap3\n      swap1\n      pop\n      jump\t// out\n        /* \"#utility.yul\":7712:8084   */\n    tag_89:\n        /* \"#utility.yul\":7792:7798   */\n      0x00\n        /* \"#utility.yul\":7841:7844   */\n      0x0260\n        /* \"#utility.yul\":7829:7838   */\n      dup3\n        /* \"#utility.yul\":7820:7827   */\n      dup5\n        /* \"#utility.yul\":7816:7839   */\n      sub\n        /* \"#utility.yul\":7812:7845   */\n      slt\n        /* \"#utility.yul\":7809:7929   */\n      iszero\n      tag_389\n      jumpi\n        /* \"#utility.yul\":7848:7927   */\n      tag_390\n      tag_368\n      jump\t// in\n    tag_390:\n        /* \"#utility.yul\":7809:7929   */\n    tag_389:\n        /* \"#utility.yul\":7968:7969   */\n      0x00\n        /* \"#utility.yul\":7993:8067   */\n      tag_391\n        /* \"#utility.yul\":8059:8066   */\n      dup5\n        /* \"#utility.yul\":8050:8056   */\n      dup3\n        /* \"#utility.yul\":8039:8048   */\n      dup6\n        /* \"#utility.yul\":8035:8057   */\n      add\n        /* \"#utility.yul\":7993:8067   */\n      tag_340\n      jump\t// in\n    tag_391:\n        /* \"#utility.yul\":7983:8067   */\n      swap2\n      pop\n        /* \"#utility.yul\":7939:8077   */\n      pop\n        /* \"#utility.yul\":7712:8084   */\n      swap3\n      swap2\n      pop\n      pop\n      jump\t// out\n        /* \"#utility.yul\":8090:8417   */\n    tag_74:\n        /* \"#utility.yul\":8148:8154   */\n      0x00\n        /* \"#utility.yul\":8197:8199   */\n      0x20\n        /* \"#utility.yul\":8185:8194   */\n      dup3\n        /* \"#utility.yul\":8176:8183   */\n      dup5\n        /* \"#utility.yul\":8172:8195   */\n      sub\n        /* \"#utility.yul\":8168:8200   */\n      slt\n        /* \"#utility.yul\":8165:8284   */\n      iszero\n      tag_393\n      jumpi\n        /* \"#utility.yul\":8203:8282   */\n      tag_394\n      tag_368\n      jump\t// in\n    tag_394:\n        /* \"#utility.yul\":8165:8284   */\n    tag_393:\n        /* \"#utility.yul\":8323:8324   */\n      0x00\n        /* \"#utility.yul\":8348:8400   */\n      tag_395\n        /* \"#utility.yul\":8392:8399   */\n      dup5\n        /* \"#utility.yul\":8383:8389   */\n      dup3\n        /* \"#utility.yul\":8372:8381   */\n      dup6\n        /* \"#utility.yul\":8368:8390   */\n      add\n        /* \"#utility.yul\":8348:8400   */\n      tag_334\n      jump\t// in\n    tag_395:\n        /* \"#utility.yul\":8338:8400   */\n      swap2\n      pop\n        /* \"#utility.yul\":8294:8410   */\n      pop\n        /* \"#utility.yul\":8090:8417   */\n      swap3\n      swap2\n      pop\n      pop\n      jump\t// out\n        /* \"#utility.yul\":8423:8531   */\n    tag_396:\n        /* \"#utility.yul\":8500:8524   */\n      tag_398\n        /* \"#utility.yul\":8518:8523   */\n      dup2\n        /* \"#utility.yul\":8500:8524   */\n      tag_399\n      jump\t// in\n    tag_398:\n        /* \"#utility.yul\":8495:8498   */\n      dup3\n        /* \"#utility.yul\":8488:8525   */\n      mstore\n        /* \"#utility.yul\":8423:8531   */\n      pop\n      pop\n      jump\t// out\n        /* \"#utility.yul\":8537:8655   */\n    tag_400:\n        /* \"#utility.yul\":8624:8648   */\n      tag_402\n        /* \"#utility.yul\":8642:8647   */\n      dup2\n        /* \"#utility.yul\":8624:8648   */\n      tag_399\n      jump\t// in\n    tag_402:\n        /* \"#utility.yul\":8619:8622   */\n      dup3\n        /* \"#utility.yul\":8612:8649   */\n      mstore\n        /* \"#utility.yul\":8537:8655   */\n      pop\n      pop\n      jump\t// out\n        /* \"#utility.yul\":8661:8760   */\n    tag_403:\n        /* \"#utility.yul\":8732:8753   */\n      tag_405\n        /* \"#utility.yul\":8747:8752   */\n      dup2\n        /* \"#utility.yul\":8732:8753   */\n      tag_406\n      jump\t// in\n    tag_405:\n        /* \"#utility.yul\":8727:8730   */\n      dup3\n        /* \"#utility.yul\":8720:8754   */\n      mstore\n        /* \"#utility.yul\":8661:8760   */\n      pop\n      pop\n      jump\t// out\n        /* \"#utility.yul\":8766:8875   */\n    tag_407:\n        /* \"#utility.yul\":8847:8868   */\n      tag_409\n        /* \"#utility.yul\":8862:8867   */\n      dup2\n        /* \"#utility.yul\":8847:8868   */\n      tag_406\n      jump\t// in\n    tag_409:\n        /* \"#utility.yul\":8842:8845   */\n      dup3\n        /* \"#utility.yul\":8835:8869   */\n      mstore\n        /* \"#utility.yul\":8766:8875   */\n      pop\n      pop\n      jump\t// out\n        /* \"#utility.yul\":8881:8989   */\n    tag_410:\n        /* \"#utility.yul\":8958:8982   */\n      tag_412\n        /* \"#utility.yul\":8976:8981   */\n      dup2\n        /* \"#utility.yul\":8958:8982   */\n      tag_413\n      jump\t// in\n    tag_412:\n        /* \"#utility.yul\":8953:8956   */\n      dup3\n        /* \"#utility.yul\":8946:8983   */\n      mstore\n        /* \"#utility.yul\":8881:8989   */\n      pop\n      pop\n      jump\t// out\n        /* \"#utility.yul\":8995:9113   */\n    tag_414:\n        /* \"#utility.yul\":9082:9106   */\n      tag_416\n        /* \"#utility.yul\":9100:9105   */\n      dup2\n        /* \"#utility.yul\":9082:9106   */\n      tag_413\n      jump\t// in\n    tag_416:\n        /* \"#utility.yul\":9077:9080   */\n      dup3\n        /* \"#utility.yul\":9070:9107   */\n      mstore\n        /* \"#utility.yul\":8995:9113   */\n      pop\n      pop\n      jump\t// out\n        /* \"#utility.yul\":9119:9485   */\n    tag_417:\n        /* \"#utility.yul\":9261:9264   */\n      0x00\n        /* \"#utility.yul\":9282:9349   */\n      tag_419\n        /* \"#utility.yul\":9346:9348   */\n      0x18\n        /* \"#utility.yul\":9341:9344   */\n      dup4\n        /* \"#utility.yul\":9282:9349   */\n      tag_420\n      jump\t// in\n    tag_419:\n        /* \"#utility.yul\":9275:9349   */\n      swap2\n      pop\n        /* \"#utility.yul\":9358:9451   */\n      tag_421\n        /* \"#utility.yul\":9447:9450   */\n      dup3\n        /* \"#utility.yul\":9358:9451   */\n      tag_422\n      jump\t// in\n    tag_421:\n        /* \"#utility.yul\":9476:9478   */\n      0x20\n        /* \"#utility.yul\":9471:9474   */\n      dup3\n        /* \"#utility.yul\":9467:9479   */\n      add\n        /* \"#utility.yul\":9460:9479   */\n      swap1\n      pop\n        /* \"#utility.yul\":9119:9485   */\n      swap2\n      swap1\n      pop\n      jump\t// out\n        /* \"#utility.yul\":9491:9857   */\n    tag_423:\n        /* \"#utility.yul\":9633:9636   */\n      0x00\n        /* \"#utility.yul\":9654:9721   */\n      tag_425\n        /* \"#utility.yul\":9718:9720   */\n      0x17\n        /* \"#utility.yul\":9713:9716   */\n      dup4\n        /* \"#utility.yul\":9654:9721   */\n      tag_420\n      jump\t// in\n    tag_425:\n        /* \"#utility.yul\":9647:9721   */\n      swap2\n      pop\n        /* \"#utility.yul\":9730:9823   */\n      tag_426\n        /* \"#utility.yul\":9819:9822   */\n      dup3\n        /* \"#utility.yul\":9730:9823   */\n      tag_427\n      jump\t// in\n    tag_426:\n        /* \"#utility.yul\":9848:9850   */\n      0x20\n        /* \"#utility.yul\":9843:9846   */\n      dup3\n        /* \"#utility.yul\":9839:9851   */\n      add\n        /* \"#utility.yul\":9832:9851   */\n      swap1\n      pop\n        /* \"#utility.yul\":9491:9857   */\n      swap2\n      swap1\n      pop\n      jump\t// out\n        /* \"#utility.yul\":9863:10229   */\n    tag_428:\n        /* \"#utility.yul\":10005:10008   */\n      0x00\n        /* \"#utility.yul\":10026:10093   */\n      tag_430\n        /* \"#utility.yul\":10090:10092   */\n      0x11\n        /* \"#utility.yul\":10085:10088   */\n      dup4\n        /* \"#utility.yul\":10026:10093   */\n      tag_420\n      jump\t// in\n    tag_430:\n        /* \"#utility.yul\":10019:10093   */\n      swap2\n      pop\n        /* \"#utility.yul\":10102:10195   */\n      tag_431\n        /* \"#utility.yul\":10191:10194   */\n      dup3\n        /* \"#utility.yul\":10102:10195   */\n      tag_432\n      jump\t// in\n    tag_431:\n        /* \"#utility.yul\":10220:10222   */\n      0x20\n        /* \"#utility.yul\":10215:10218   */\n      dup3\n        /* \"#utility.yul\":10211:10223   */\n      add\n        /* \"#utility.yul\":10204:10223   */\n      swap1\n      pop\n        /* \"#utility.yul\":9863:10229   */\n      swap2\n      swap1\n      pop\n      jump\t// out\n        /* \"#utility.yul\":10235:10601   */\n    tag_433:\n        /* \"#utility.yul\":10377:10380   */\n      0x00\n        /* \"#utility.yul\":10398:10465   */\n      tag_435\n        /* \"#utility.yul\":10462:10464   */\n      0x12\n        /* \"#utility.yul\":10457:10460   */\n      dup4\n        /* \"#utility.yul\":10398:10465   */\n      tag_420\n      jump\t// in\n    tag_435:\n        /* \"#utility.yul\":10391:10465   */\n      swap2\n      pop\n        /* \"#utility.yul\":10474:10567   */\n      tag_436\n        /* \"#utility.yul\":10563:10566   */\n      dup3\n        /* \"#utility.yul\":10474:10567   */\n      tag_437\n      jump\t// in\n    tag_436:\n        /* \"#utility.yul\":10592:10594   */\n      0x20\n        /* \"#utility.yul\":10587:10590   */\n      dup3\n        /* \"#utility.yul\":10583:10595   */\n      add\n        /* \"#utility.yul\":10576:10595   */\n      swap1\n      pop\n        /* \"#utility.yul\":10235:10601   */\n      swap2\n      swap1\n      pop\n      jump\t// out\n        /* \"#utility.yul\":10607:10973   */\n    tag_438:\n        /* \"#utility.yul\":10749:10752   */\n      0x00\n        /* \"#utility.yul\":10770:10837   */\n      tag_440\n        /* \"#utility.yul\":10834:10836   */\n      0x14\n        /* \"#utility.yul\":10829:10832   */\n      dup4\n        /* \"#utility.yul\":10770:10837   */\n      tag_420\n      jump\t// in\n    tag_440:\n        /* \"#utility.yul\":10763:10837   */\n      swap2\n      pop\n        /* \"#utility.yul\":10846:10939   */\n      tag_441\n        /* \"#utility.yul\":10935:10938   */\n      dup3\n        /* \"#utility.yul\":10846:10939   */\n      tag_442\n      jump\t// in\n    tag_441:\n        /* \"#utility.yul\":10964:10966   */\n      0x20\n        /* \"#utility.yul\":10959:10962   */\n      dup3\n        /* \"#utility.yul\":10955:10967   */\n      add\n        /* \"#utility.yul\":10948:10967   */\n      swap1\n      pop\n        /* \"#utility.yul\":10607:10973   */\n      swap2\n      swap1\n      pop\n      jump\t// out\n        /* \"#utility.yul\":10979:11345   */\n    tag_443:\n        /* \"#utility.yul\":11121:11124   */\n      0x00\n        /* \"#utility.yul\":11142:11209   */\n      tag_445\n        /* \"#utility.yul\":11206:11208   */\n      0x16\n        /* \"#utility.yul\":11201:11204   */\n      dup4\n        /* \"#utility.yul\":11142:11209   */\n      tag_420\n      jump\t// in\n    tag_445:\n        /* \"#utility.yul\":11135:11209   */\n      swap2\n      pop\n        /* \"#utility.yul\":11218:11311   */\n      tag_446\n        /* \"#utility.yul\":11307:11310   */\n      dup3\n        /* \"#utility.yul\":11218:11311   */\n      tag_447\n      jump\t// in\n    tag_446:\n        /* \"#utility.yul\":11336:11338   */\n      0x20\n        /* \"#utility.yul\":11331:11334   */\n      dup3\n        /* \"#utility.yul\":11327:11339   */\n      add\n        /* \"#utility.yul\":11320:11339   */\n      swap1\n      pop\n        /* \"#utility.yul\":10979:11345   */\n      swap2\n      swap1\n      pop\n      jump\t// out\n        /* \"#utility.yul\":11351:11717   */\n    tag_448:\n        /* \"#utility.yul\":11493:11496   */\n      0x00\n        /* \"#utility.yul\":11514:11581   */\n      tag_450\n        /* \"#utility.yul\":11578:11580   */\n      0x1f\n        /* \"#utility.yul\":11573:11576   */\n      dup4\n        /* \"#utility.yul\":11514:11581   */\n      tag_420\n      jump\t// in\n    tag_450:\n        /* \"#utility.yul\":11507:11581   */\n      swap2\n      pop\n        /* \"#utility.yul\":11590:11683   */\n      tag_451\n        /* \"#utility.yul\":11679:11682   */\n      dup3\n        /* \"#utility.yul\":11590:11683   */\n      tag_452\n      jump\t// in\n    tag_451:\n        /* \"#utility.yul\":11708:11710   */\n      0x20\n        /* \"#utility.yul\":11703:11706   */\n      dup3\n        /* \"#utility.yul\":11699:11711   */\n      add\n        /* \"#utility.yul\":11692:11711   */\n      swap1\n      pop\n        /* \"#utility.yul\":11351:11717   */\n      swap2\n      swap1\n      pop\n      jump\t// out\n        /* \"#utility.yul\":11723:12089   */\n    tag_453:\n        /* \"#utility.yul\":11865:11868   */\n      0x00\n        /* \"#utility.yul\":11886:11953   */\n      tag_455\n        /* \"#utility.yul\":11950:11952   */\n      0x15\n        /* \"#utility.yul\":11945:11948   */\n      dup4\n        /* \"#utility.yul\":11886:11953   */\n      tag_420\n      jump\t// in\n    tag_455:\n        /* \"#utility.yul\":11879:11953   */\n      swap2\n      pop\n        /* \"#utility.yul\":11962:12055   */\n      tag_456\n        /* \"#utility.yul\":12051:12054   */\n      dup3\n        /* \"#utility.yul\":11962:12055   */\n      tag_457\n      jump\t// in\n    tag_456:\n        /* \"#utility.yul\":12080:12082   */\n      0x20\n        /* \"#utility.yul\":12075:12078   */\n      dup3\n        /* \"#utility.yul\":12071:12083   */\n      add\n        /* \"#utility.yul\":12064:12083   */\n      swap1\n      pop\n        /* \"#utility.yul\":11723:12089   */\n      swap2\n      swap1\n      pop\n      jump\t// out\n        /* \"#utility.yul\":12149:13903   */\n    tag_458:\n        /* \"#utility.yul\":12288:12294   */\n      0x0120\n        /* \"#utility.yul\":12283:12286   */\n      dup3\n        /* \"#utility.yul\":12279:12295   */\n      add\n        /* \"#utility.yul\":12381:12385   */\n      0x00\n        /* \"#utility.yul\":12374:12379   */\n      dup3\n        /* \"#utility.yul\":12370:12386   */\n      add\n        /* \"#utility.yul\":12364:12387   */\n      mload\n        /* \"#utility.yul\":12400:12463   */\n      tag_460\n        /* \"#utility.yul\":12457:12461   */\n      0x00\n        /* \"#utility.yul\":12452:12455   */\n      dup6\n        /* \"#utility.yul\":12448:12462   */\n      add\n        /* \"#utility.yul\":12434:12446   */\n      dup3\n        /* \"#utility.yul\":12400:12463   */\n      tag_410\n      jump\t// in\n    tag_460:\n        /* \"#utility.yul\":12305:12473   */\n      pop\n        /* \"#utility.yul\":12566:12570   */\n      0x20\n        /* \"#utility.yul\":12559:12564   */\n      dup3\n        /* \"#utility.yul\":12555:12571   */\n      add\n        /* \"#utility.yul\":12549:12572   */\n      mload\n        /* \"#utility.yul\":12585:12646   */\n      tag_461\n        /* \"#utility.yul\":12640:12644   */\n      0x20\n        /* \"#utility.yul\":12635:12638   */\n      dup6\n        /* \"#utility.yul\":12631:12645   */\n      add\n        /* \"#utility.yul\":12617:12629   */\n      dup3\n        /* \"#utility.yul\":12585:12646   */\n      tag_462\n      jump\t// in\n    tag_461:\n        /* \"#utility.yul\":12483:12656   */\n      pop\n        /* \"#utility.yul\":12745:12749   */\n      0x40\n        /* \"#utility.yul\":12738:12743   */\n      dup3\n        /* \"#utility.yul\":12734:12750   */\n      add\n        /* \"#utility.yul\":12728:12751   */\n      mload\n        /* \"#utility.yul\":12764:12827   */\n      tag_463\n        /* \"#utility.yul\":12821:12825   */\n      0x40\n        /* \"#utility.yul\":12816:12819   */\n      dup6\n        /* \"#utility.yul\":12812:12826   */\n      add\n        /* \"#utility.yul\":12798:12810   */\n      dup3\n        /* \"#utility.yul\":12764:12827   */\n      tag_396\n      jump\t// in\n    tag_463:\n        /* \"#utility.yul\":12666:12837   */\n      pop\n        /* \"#utility.yul\":12926:12930   */\n      0x60\n        /* \"#utility.yul\":12919:12924   */\n      dup3\n        /* \"#utility.yul\":12915:12931   */\n      add\n        /* \"#utility.yul\":12909:12932   */\n      mload\n        /* \"#utility.yul\":12945:13006   */\n      tag_464\n        /* \"#utility.yul\":13000:13004   */\n      0x60\n        /* \"#utility.yul\":12995:12998   */\n      dup6\n        /* \"#utility.yul\":12991:13005   */\n      add\n        /* \"#utility.yul\":12977:12989   */\n      dup3\n        /* \"#utility.yul\":12945:13006   */\n      tag_465\n      jump\t// in\n    tag_464:\n        /* \"#utility.yul\":12847:13016   */\n      pop\n        /* \"#utility.yul\":13099:13103   */\n      0x80\n        /* \"#utility.yul\":13092:13097   */\n      dup3\n        /* \"#utility.yul\":13088:13104   */\n      add\n        /* \"#utility.yul\":13082:13105   */\n      mload\n        /* \"#utility.yul\":13118:13181   */\n      tag_466\n        /* \"#utility.yul\":13175:13179   */\n      0x80\n        /* \"#utility.yul\":13170:13173   */\n      dup6\n        /* \"#utility.yul\":13166:13180   */\n      add\n        /* \"#utility.yul\":13152:13164   */\n      dup3\n        /* \"#utility.yul\":13118:13181   */\n      tag_396\n      jump\t// in\n    tag_466:\n        /* \"#utility.yul\":13026:13191   */\n      pop\n        /* \"#utility.yul\":13277:13281   */\n      0xa0\n        /* \"#utility.yul\":13270:13275   */\n      dup3\n        /* \"#utility.yul\":13266:13282   */\n      add\n        /* \"#utility.yul\":13260:13283   */\n      mload\n        /* \"#utility.yul\":13296:13357   */\n      tag_467\n        /* \"#utility.yul\":13351:13355   */\n      0xa0\n        /* \"#utility.yul\":13346:13349   */\n      dup6\n        /* \"#utility.yul\":13342:13356   */\n      add\n        /* \"#utility.yul\":13328:13340   */\n      dup3\n        /* \"#utility.yul\":13296:13357   */\n      tag_462\n      jump\t// in\n    tag_467:\n        /* \"#utility.yul\":13201:13367   */\n      pop\n        /* \"#utility.yul\":13460:13464   */\n      0xc0\n        /* \"#utility.yul\":13453:13458   */\n      dup3\n        /* \"#utility.yul\":13449:13465   */\n      add\n        /* \"#utility.yul\":13443:13466   */\n      mload\n        /* \"#utility.yul\":13479:13542   */\n      tag_468\n        /* \"#utility.yul\":13536:13540   */\n      0xc0\n        /* \"#utility.yul\":13531:13534   */\n      dup6\n        /* \"#utility.yul\":13527:13541   */\n      add\n        /* \"#utility.yul\":13513:13525   */\n      dup3\n        /* \"#utility.yul\":13479:13542   */\n      tag_396\n      jump\t// in\n    tag_468:\n        /* \"#utility.yul\":13377:13552   */\n      pop\n        /* \"#utility.yul\":13636:13640   */\n      0xe0\n        /* \"#utility.yul\":13629:13634   */\n      dup3\n        /* \"#utility.yul\":13625:13641   */\n      add\n        /* \"#utility.yul\":13619:13642   */\n      mload\n        /* \"#utility.yul\":13655:13712   */\n      tag_469\n        /* \"#utility.yul\":13706:13710   */\n      0xe0\n        /* \"#utility.yul\":13701:13704   */\n      dup6\n        /* \"#utility.yul\":13697:13711   */\n      add\n        /* \"#utility.yul\":13683:13695   */\n      dup3\n        /* \"#utility.yul\":13655:13712   */\n      tag_403\n      jump\t// in\n    tag_469:\n        /* \"#utility.yul\":13562:13722   */\n      pop\n        /* \"#utility.yul\":13806:13812   */\n      0x0100\n        /* \"#utility.yul\":13799:13804   */\n      dup3\n        /* \"#utility.yul\":13795:13813   */\n      add\n        /* \"#utility.yul\":13789:13814   */\n      mload\n        /* \"#utility.yul\":13827:13886   */\n      tag_470\n        /* \"#utility.yul\":13878:13884   */\n      0x0100\n        /* \"#utility.yul\":13873:13876   */\n      dup6\n        /* \"#utility.yul\":13869:13885   */\n      add\n        /* \"#utility.yul\":13855:13867   */\n      dup3\n        /* \"#utility.yul\":13827:13886   */\n      tag_403\n      jump\t// in\n    tag_470:\n        /* \"#utility.yul\":13732:13896   */\n      pop\n        /* \"#utility.yul\":12257:13903   */\n      pop\n        /* \"#utility.yul\":12149:13903   */\n      pop\n      pop\n      jump\t// out\n        /* \"#utility.yul\":13909:14027   */\n    tag_471:\n        /* \"#utility.yul\":13996:14020   */\n      tag_473\n        /* \"#utility.yul\":14014:14019   */\n      dup2\n        /* \"#utility.yul\":13996:14020   */\n      tag_474\n      jump\t// in\n    tag_473:\n        /* \"#utility.yul\":13991:13994   */\n      dup3\n        /* \"#utility.yul\":13984:14021   */\n      mstore\n        /* \"#utility.yul\":13909:14027   */\n      pop\n      pop\n      jump\t// out\n        /* \"#utility.yul\":14033:14138   */\n    tag_462:\n        /* \"#utility.yul\":14108:14131   */\n      tag_476\n        /* \"#utility.yul\":14125:14130   */\n      dup2\n        /* \"#utility.yul\":14108:14131   */\n      tag_477\n      jump\t// in\n    tag_476:\n        /* \"#utility.yul\":14103:14106   */\n      dup3\n        /* \"#utility.yul\":14096:14132   */\n      mstore\n        /* \"#utility.yul\":14033:14138   */\n      pop\n      pop\n      jump\t// out\n        /* \"#utility.yul\":14144:14259   */\n    tag_478:\n        /* \"#utility.yul\":14229:14252   */\n      tag_480\n        /* \"#utility.yul\":14246:14251   */\n      dup2\n        /* \"#utility.yul\":14229:14252   */\n      tag_477\n      jump\t// in\n    tag_480:\n        /* \"#utility.yul\":14224:14227   */\n      dup3\n        /* \"#utility.yul\":14217:14253   */\n      mstore\n        /* \"#utility.yul\":14144:14259   */\n      pop\n      pop\n      jump\t// out\n        /* \"#utility.yul\":14265:14370   */\n    tag_465:\n        /* \"#utility.yul\":14340:14363   */\n      tag_482\n        /* \"#utility.yul\":14357:14362   */\n      dup2\n        /* \"#utility.yul\":14340:14363   */\n      tag_483\n      jump\t// in\n    tag_482:\n        /* \"#utility.yul\":14335:14338   */\n      dup3\n        /* \"#utility.yul\":14328:14364   */\n      mstore\n        /* \"#utility.yul\":14265:14370   */\n      pop\n      pop\n      jump\t// out\n        /* \"#utility.yul\":14376:14491   */\n    tag_484:\n        /* \"#utility.yul\":14461:14484   */\n      tag_486\n        /* \"#utility.yul\":14478:14483   */\n      dup2\n        /* \"#utility.yul\":14461:14484   */\n      tag_483\n      jump\t// in\n    tag_486:\n        /* \"#utility.yul\":14456:14459   */\n      dup3\n        /* \"#utility.yul\":14449:14485   */\n      mstore\n        /* \"#utility.yul\":14376:14491   */\n      pop\n      pop\n      jump\t// out\n        /* \"#utility.yul\":14497:14719   */\n    tag_58:\n        /* \"#utility.yul\":14590:14594   */\n      0x00\n        /* \"#utility.yul\":14628:14630   */\n      0x20\n        /* \"#utility.yul\":14617:14626   */\n      dup3\n        /* \"#utility.yul\":14613:14631   */\n      add\n        /* \"#utility.yul\":14605:14631   */\n      swap1\n      pop\n        /* \"#utility.yul\":14641:14712   */\n      tag_488\n        /* \"#utility.yul\":14709:14710   */\n      0x00\n        /* \"#utility.yul\":14698:14707   */\n      dup4\n        /* \"#utility.yul\":14694:14711   */\n      add\n        /* \"#utility.yul\":14685:14691   */\n      dup5\n        /* \"#utility.yul\":14641:14712   */\n      tag_400\n      jump\t// in\n    tag_488:\n        /* \"#utility.yul\":14497:14719   */\n      swap3\n      swap2\n      pop\n      pop\n      jump\t// out\n        /* \"#utility.yul\":14725:15793   */\n    tag_81:\n        /* \"#utility.yul\":15022:15026   */\n      0x00\n        /* \"#utility.yul\":15060:15063   */\n      0x0120\n        /* \"#utility.yul\":15049:15058   */\n      dup3\n        /* \"#utility.yul\":15045:15064   */\n      add\n        /* \"#utility.yul\":15037:15064   */\n      swap1\n      pop\n        /* \"#utility.yul\":15074:15145   */\n      tag_490\n        /* \"#utility.yul\":15142:15143   */\n      0x00\n        /* \"#utility.yul\":15131:15140   */\n      dup4\n        /* \"#utility.yul\":15127:15144   */\n      add\n        /* \"#utility.yul\":15118:15124   */\n      dup13\n        /* \"#utility.yul\":15074:15145   */\n      tag_400\n      jump\t// in\n    tag_490:\n        /* \"#utility.yul\":15155:15227   */\n      tag_491\n        /* \"#utility.yul\":15223:15225   */\n      0x20\n        /* \"#utility.yul\":15212:15221   */\n      dup4\n        /* \"#utility.yul\":15208:15226   */\n      add\n        /* \"#utility.yul\":15199:15205   */\n      dup12\n        /* \"#utility.yul\":15155:15227   */\n      tag_400\n      jump\t// in\n    tag_491:\n        /* \"#utility.yul\":15237:15309   */\n      tag_492\n        /* \"#utility.yul\":15305:15307   */\n      0x40\n        /* \"#utility.yul\":15294:15303   */\n      dup4\n        /* \"#utility.yul\":15290:15308   */\n      add\n        /* \"#utility.yul\":15281:15287   */\n      dup11\n        /* \"#utility.yul\":15237:15309   */\n      tag_471\n      jump\t// in\n    tag_492:\n        /* \"#utility.yul\":15319:15391   */\n      tag_493\n        /* \"#utility.yul\":15387:15389   */\n      0x60\n        /* \"#utility.yul\":15376:15385   */\n      dup4\n        /* \"#utility.yul\":15372:15390   */\n      add\n        /* \"#utility.yul\":15363:15369   */\n      dup10\n        /* \"#utility.yul\":15319:15391   */\n      tag_414\n      jump\t// in\n    tag_493:\n        /* \"#utility.yul\":15401:15474   */\n      tag_494\n        /* \"#utility.yul\":15469:15472   */\n      0x80\n        /* \"#utility.yul\":15458:15467   */\n      dup4\n        /* \"#utility.yul\":15454:15473   */\n      add\n        /* \"#utility.yul\":15445:15451   */\n      dup9\n        /* \"#utility.yul\":15401:15474   */\n      tag_414\n      jump\t// in\n    tag_494:\n        /* \"#utility.yul\":15484:15555   */\n      tag_495\n        /* \"#utility.yul\":15550:15553   */\n      0xa0\n        /* \"#utility.yul\":15539:15548   */\n      dup4\n        /* \"#utility.yul\":15535:15554   */\n      add\n        /* \"#utility.yul\":15526:15532   */\n      dup8\n        /* \"#utility.yul\":15484:15555   */\n      tag_478\n      jump\t// in\n    tag_495:\n        /* \"#utility.yul\":15565:15632   */\n      tag_496\n        /* \"#utility.yul\":15627:15630   */\n      0xc0\n        /* \"#utility.yul\":15616:15625   */\n      dup4\n        /* \"#utility.yul\":15612:15631   */\n      add\n        /* \"#utility.yul\":15603:15609   */\n      dup7\n        /* \"#utility.yul\":15565:15632   */\n      tag_407\n      jump\t// in\n    tag_496:\n        /* \"#utility.yul\":15642:15709   */\n      tag_497\n        /* \"#utility.yul\":15704:15707   */\n      0xe0\n        /* \"#utility.yul\":15693:15702   */\n      dup4\n        /* \"#utility.yul\":15689:15708   */\n      add\n        /* \"#utility.yul\":15680:15686   */\n      dup6\n        /* \"#utility.yul\":15642:15709   */\n      tag_407\n      jump\t// in\n    tag_497:\n        /* \"#utility.yul\":15719:15786   */\n      tag_498\n        /* \"#utility.yul\":15781:15784   */\n      0x0100\n        /* \"#utility.yul\":15770:15779   */\n      dup4\n        /* \"#utility.yul\":15766:15785   */\n      add\n        /* \"#utility.yul\":15757:15763   */\n      dup5\n        /* \"#utility.yul\":15719:15786   */\n      tag_407\n      jump\t// in\n    tag_498:\n        /* \"#utility.yul\":14725:15793   */\n      swap11\n      swap10\n      pop\n      pop\n      pop\n      pop\n      pop\n      pop\n      pop\n      pop\n      pop\n      pop\n      jump\t// out\n        /* \"#utility.yul\":15799:16009   */\n    tag_50:\n        /* \"#utility.yul\":15886:15890   */\n      0x00\n        /* \"#utility.yul\":15924:15926   */\n      0x20\n        /* \"#utility.yul\":15913:15922   */\n      dup3\n        /* \"#utility.yul\":15909:15927   */\n      add\n        /* \"#utility.yul\":15901:15927   */\n      swap1\n      pop\n        /* \"#utility.yul\":15937:16002   */\n      tag_500\n        /* \"#utility.yul\":15999:16000   */\n      0x00\n        /* \"#utility.yul\":15988:15997   */\n      dup4\n        /* \"#utility.yul\":15984:16001   */\n      add\n        /* \"#utility.yul\":15975:15981   */\n      dup5\n        /* \"#utility.yul\":15937:16002   */\n      tag_407\n      jump\t// in\n    tag_500:\n        /* \"#utility.yul\":15799:16009   */\n      swap3\n      swap2\n      pop\n      pop\n      jump\t// out\n        /* \"#utility.yul\":16015:17087   */\n    tag_162:\n        /* \"#utility.yul\":16314:16318   */\n      0x00\n        /* \"#utility.yul\":16352:16355   */\n      0x0120\n        /* \"#utility.yul\":16341:16350   */\n      dup3\n        /* \"#utility.yul\":16337:16356   */\n      add\n        /* \"#utility.yul\":16329:16356   */\n      swap1\n      pop\n        /* \"#utility.yul\":16366:16437   */\n      tag_502\n        /* \"#utility.yul\":16434:16435   */\n      0x00\n        /* \"#utility.yul\":16423:16432   */\n      dup4\n        /* \"#utility.yul\":16419:16436   */\n      add\n        /* \"#utility.yul\":16410:16416   */\n      dup13\n        /* \"#utility.yul\":16366:16437   */\n      tag_414\n      jump\t// in\n    tag_502:\n        /* \"#utility.yul\":16447:16517   */\n      tag_503\n        /* \"#utility.yul\":16513:16515   */\n      0x20\n        /* \"#utility.yul\":16502:16511   */\n      dup4\n        /* \"#utility.yul\":16498:16516   */\n      add\n        /* \"#utility.yul\":16489:16495   */\n      dup12\n        /* \"#utility.yul\":16447:16517   */\n      tag_478\n      jump\t// in\n    tag_503:\n        /* \"#utility.yul\":16527:16599   */\n      tag_504\n        /* \"#utility.yul\":16595:16597   */\n      0x40\n        /* \"#utility.yul\":16584:16593   */\n      dup4\n        /* \"#utility.yul\":16580:16598   */\n      add\n        /* \"#utility.yul\":16571:16577   */\n      dup11\n        /* \"#utility.yul\":16527:16599   */\n      tag_400\n      jump\t// in\n    tag_504:\n        /* \"#utility.yul\":16609:16679   */\n      tag_505\n        /* \"#utility.yul\":16675:16677   */\n      0x60\n        /* \"#utility.yul\":16664:16673   */\n      dup4\n        /* \"#utility.yul\":16660:16678   */\n      add\n        /* \"#utility.yul\":16651:16657   */\n      dup10\n        /* \"#utility.yul\":16609:16679   */\n      tag_484\n      jump\t// in\n    tag_505:\n        /* \"#utility.yul\":16689:16762   */\n      tag_506\n        /* \"#utility.yul\":16757:16760   */\n      0x80\n        /* \"#utility.yul\":16746:16755   */\n      dup4\n        /* \"#utility.yul\":16742:16761   */\n      add\n        /* \"#utility.yul\":16733:16739   */\n      dup9\n        /* \"#utility.yul\":16689:16762   */\n      tag_400\n      jump\t// in\n    tag_506:\n        /* \"#utility.yul\":16772:16843   */\n      tag_507\n        /* \"#utility.yul\":16838:16841   */\n      0xa0\n        /* \"#utility.yul\":16827:16836   */\n      dup4\n        /* \"#utility.yul\":16823:16842   */\n      add\n        /* \"#utility.yul\":16814:16820   */\n      dup8\n        /* \"#utility.yul\":16772:16843   */\n      tag_478\n      jump\t// in\n    tag_507:\n        /* \"#utility.yul\":16853:16926   */\n      tag_508\n        /* \"#utility.yul\":16921:16924   */\n      0xc0\n        /* \"#utility.yul\":16910:16919   */\n      dup4\n        /* \"#utility.yul\":16906:16925   */\n      add\n        /* \"#utility.yul\":16897:16903   */\n      dup7\n        /* \"#utility.yul\":16853:16926   */\n      tag_400\n      jump\t// in\n    tag_508:\n        /* \"#utility.yul\":16936:17003   */\n      tag_509\n        /* \"#utility.yul\":16998:17001   */\n      0xe0\n        /* \"#utility.yul\":16987:16996   */\n      dup4\n        /* \"#utility.yul\":16983:17002   */\n      add\n        /* \"#utility.yul\":16974:16980   */\n      dup6\n        /* \"#utility.yul\":16936:17003   */\n      tag_407\n      jump\t// in\n    tag_509:\n        /* \"#utility.yul\":17013:17080   */\n      tag_510\n        /* \"#utility.yul\":17075:17078   */\n      0x0100\n        /* \"#utility.yul\":17064:17073   */\n      dup4\n        /* \"#utility.yul\":17060:17079   */\n      add\n        /* \"#utility.yul\":17051:17057   */\n      dup5\n        /* \"#utility.yul\":17013:17080   */\n      tag_407\n      jump\t// in\n    tag_510:\n        /* \"#utility.yul\":16015:17087   */\n      swap11\n      swap10\n      pop\n      pop\n      pop\n      pop\n      pop\n      pop\n      pop\n      pop\n      pop\n      pop\n      jump\t// out\n        /* \"#utility.yul\":17093:17512   */\n    tag_212:\n        /* \"#utility.yul\":17259:17263   */\n      0x00\n        /* \"#utility.yul\":17297:17299   */\n      0x20\n        /* \"#utility.yul\":17286:17295   */\n      dup3\n        /* \"#utility.yul\":17282:17300   */\n      add\n        /* \"#utility.yul\":17274:17300   */\n      swap1\n      pop\n        /* \"#utility.yul\":17346:17355   */\n      dup2\n        /* \"#utility.yul\":17340:17344   */\n      dup2\n        /* \"#utility.yul\":17336:17356   */\n      sub\n        /* \"#utility.yul\":17332:17333   */\n      0x00\n        /* \"#utility.yul\":17321:17330   */\n      dup4\n        /* \"#utility.yul\":17317:17334   */\n      add\n        /* \"#utility.yul\":17310:17357   */\n      mstore\n        /* \"#utility.yul\":17374:17505   */\n      tag_512\n        /* \"#utility.yul\":17500:17504   */\n      dup2\n        /* \"#utility.yul\":17374:17505   */\n      tag_417\n      jump\t// in\n    tag_512:\n        /* \"#utility.yul\":17366:17505   */\n      swap1\n      pop\n        /* \"#utility.yul\":17093:17512   */\n      swap2\n      swap1\n      pop\n      jump\t// out\n        /* \"#utility.yul\":17518:17937   */\n    tag_239:\n        /* \"#utility.yul\":17684:17688   */\n      0x00\n        /* \"#utility.yul\":17722:17724   */\n      0x20\n        /* \"#utility.yul\":17711:17720   */\n      dup3\n        /* \"#utility.yul\":17707:17725   */\n      add\n        /* \"#utility.yul\":17699:17725   */\n      swap1\n      pop\n        /* \"#utility.yul\":17771:17780   */\n      dup2\n        /* \"#utility.yul\":17765:17769   */\n      dup2\n        /* \"#utility.yul\":17761:17781   */\n      sub\n        /* \"#utility.yul\":17757:17758   */\n      0x00\n        /* \"#utility.yul\":17746:17755   */\n      dup4\n        /* \"#utility.yul\":17742:17759   */\n      add\n        /* \"#utility.yul\":17735:17782   */\n      mstore\n        /* \"#utility.yul\":17799:17930   */\n      tag_514\n        /* \"#utility.yul\":17925:17929   */\n      dup2\n        /* \"#utility.yul\":17799:17930   */\n      tag_423\n      jump\t// in\n    tag_514:\n        /* \"#utility.yul\":17791:17930   */\n      swap1\n      pop\n        /* \"#utility.yul\":17518:17937   */\n      swap2\n      swap1\n      pop\n      jump\t// out\n        /* \"#utility.yul\":17943:18362   */\n    tag_248:\n        /* \"#utility.yul\":18109:18113   */\n      0x00\n        /* \"#utility.yul\":18147:18149   */\n      0x20\n        /* \"#utility.yul\":18136:18145   */\n      dup3\n        /* \"#utility.yul\":18132:18150   */\n      add\n        /* \"#utility.yul\":18124:18150   */\n      swap1\n      pop\n        /* \"#utility.yul\":18196:18205   */\n      dup2\n        /* \"#utility.yul\":18190:18194   */\n      dup2\n        /* \"#utility.yul\":18186:18206   */\n      sub\n        /* \"#utility.yul\":18182:18183   */\n      0x00\n        /* \"#utility.yul\":18171:18180   */\n      dup4\n        /* \"#utility.yul\":18167:18184   */\n      add\n        /* \"#utility.yul\":18160:18207   */\n      mstore\n        /* \"#utility.yul\":18224:18355   */\n      tag_516\n        /* \"#utility.yul\":18350:18354   */\n      dup2\n        /* \"#utility.yul\":18224:18355   */\n      tag_428\n      jump\t// in\n    tag_516:\n        /* \"#utility.yul\":18216:18355   */\n      swap1\n      pop\n        /* \"#utility.yul\":17943:18362   */\n      swap2\n      swap1\n      pop\n      jump\t// out\n        /* \"#utility.yul\":18368:18787   */\n    tag_178:\n        /* \"#utility.yul\":18534:18538   */\n      0x00\n        /* \"#utility.yul\":18572:18574   */\n      0x20\n        /* \"#utility.yul\":18561:18570   */\n      dup3\n        /* \"#utility.yul\":18557:18575   */\n      add\n        /* \"#utility.yul\":18549:18575   */\n      swap1\n      pop\n        /* \"#utility.yul\":18621:18630   */\n      dup2\n        /* \"#utility.yul\":18615:18619   */\n      dup2\n        /* \"#utility.yul\":18611:18631   */\n      sub\n        /* \"#utility.yul\":18607:18608   */\n      0x00\n        /* \"#utility.yul\":18596:18605   */\n      dup4\n        /* \"#utility.yul\":18592:18609   */\n      add\n        /* \"#utility.yul\":18585:18632   */\n      mstore\n        /* \"#utility.yul\":18649:18780   */\n      tag_518\n        /* \"#utility.yul\":18775:18779   */\n      dup2\n        /* \"#utility.yul\":18649:18780   */\n      tag_433\n      jump\t// in\n    tag_518:\n        /* \"#utility.yul\":18641:18780   */\n      swap1\n      pop\n        /* \"#utility.yul\":18368:18787   */\n      swap2\n      swap1\n      pop\n      jump\t// out\n        /* \"#utility.yul\":18793:19212   */\n    tag_200:\n        /* \"#utility.yul\":18959:18963   */\n      0x00\n        /* \"#utility.yul\":18997:18999   */\n      0x20\n        /* \"#utility.yul\":18986:18995   */\n      dup3\n        /* \"#utility.yul\":18982:19000   */\n      add\n        /* \"#utility.yul\":18974:19000   */\n      swap1\n      pop\n        /* \"#utility.yul\":19046:19055   */\n      dup2\n        /* \"#utility.yul\":19040:19044   */\n      dup2\n        /* \"#utility.yul\":19036:19056   */\n      sub\n        /* \"#utility.yul\":19032:19033   */\n      0x00\n        /* \"#utility.yul\":19021:19030   */\n      dup4\n        /* \"#utility.yul\":19017:19034   */\n      add\n        /* \"#utility.yul\":19010:19057   */\n      mstore\n        /* \"#utility.yul\":19074:19205   */\n      tag_520\n        /* \"#utility.yul\":19200:19204   */\n      dup2\n        /* \"#utility.yul\":19074:19205   */\n      tag_438\n      jump\t// in\n    tag_520:\n        /* \"#utility.yul\":19066:19205   */\n      swap1\n      pop\n        /* \"#utility.yul\":18793:19212   */\n      swap2\n      swap1\n      pop\n      jump\t// out\n        /* \"#utility.yul\":19218:19637   */\n    tag_172:\n        /* \"#utility.yul\":19384:19388   */\n      0x00\n        /* \"#utility.yul\":19422:19424   */\n      0x20\n        /* \"#utility.yul\":19411:19420   */\n      dup3\n        /* \"#utility.yul\":19407:19425   */\n      add\n        /* \"#utility.yul\":19399:19425   */\n      swap1\n      pop\n        /* \"#utility.yul\":19471:19480   */\n      dup2\n        /* \"#utility.yul\":19465:19469   */\n      dup2\n        /* \"#utility.yul\":19461:19481   */\n      sub\n        /* \"#utility.yul\":19457:19458   */\n      0x00\n        /* \"#utility.yul\":19446:19455   */\n      dup4\n        /* \"#utility.yul\":19442:19459   */\n      add\n        /* \"#utility.yul\":19435:19482   */\n      mstore\n        /* \"#utility.yul\":19499:19630   */\n      tag_522\n        /* \"#utility.yul\":19625:19629   */\n      dup2\n        /* \"#utility.yul\":19499:19630   */\n      tag_443\n      jump\t// in\n    tag_522:\n        /* \"#utility.yul\":19491:19630   */\n      swap1\n      pop\n        /* \"#utility.yul\":19218:19637   */\n      swap2\n      swap1\n      pop\n      jump\t// out\n        /* \"#utility.yul\":19643:20062   */\n    tag_270:\n        /* \"#utility.yul\":19809:19813   */\n      0x00\n        /* \"#utility.yul\":19847:19849   */\n      0x20\n        /* \"#utility.yul\":19836:19845   */\n      dup3\n        /* \"#utility.yul\":19832:19850   */\n      add\n        /* \"#utility.yul\":19824:19850   */\n      swap1\n      pop\n        /* \"#utility.yul\":19896:19905   */\n      dup2\n        /* \"#utility.yul\":19890:19894   */\n      dup2\n        /* \"#utility.yul\":19886:19906   */\n      sub\n        /* \"#utility.yul\":19882:19883   */\n      0x00\n        /* \"#utility.yul\":19871:19880   */\n      dup4\n        /* \"#utility.yul\":19867:19884   */\n      add\n        /* \"#utility.yul\":19860:19907   */\n      mstore\n        /* \"#utility.yul\":19924:20055   */\n      tag_524\n        /* \"#utility.yul\":20050:20054   */\n      dup2\n        /* \"#utility.yul\":19924:20055   */\n      tag_448\n      jump\t// in\n    tag_524:\n        /* \"#utility.yul\":19916:20055   */\n      swap1\n      pop\n        /* \"#utility.yul\":19643:20062   */\n      swap2\n      swap1\n      pop\n      jump\t// out\n        /* \"#utility.yul\":20068:20487   */\n    tag_194:\n        /* \"#utility.yul\":20234:20238   */\n      0x00\n        /* \"#utility.yul\":20272:20274   */\n      0x20\n        /* \"#utility.yul\":20261:20270   */\n      dup3\n        /* \"#utility.yul\":20257:20275   */\n      add\n        /* \"#utility.yul\":20249:20275   */\n      swap1\n      pop\n        /* \"#utility.yul\":20321:20330   */\n      dup2\n        /* \"#utility.yul\":20315:20319   */\n      dup2\n        /* \"#utility.yul\":20311:20331   */\n      sub\n        /* \"#utility.yul\":20307:20308   */\n      0x00\n        /* \"#utility.yul\":20296:20305   */\n      dup4\n        /* \"#utility.yul\":20292:20309   */\n      add\n        /* \"#utility.yul\":20285:20332   */\n      mstore\n        /* \"#utility.yul\":20349:20480   */\n      tag_526\n        /* \"#utility.yul\":20475:20479   */\n      dup2\n        /* \"#utility.yul\":20349:20480   */\n      tag_453\n      jump\t// in\n    tag_526:\n        /* \"#utility.yul\":20341:20480   */\n      swap1\n      pop\n        /* \"#utility.yul\":20068:20487   */\n      swap2\n      swap1\n      pop\n      jump\t// out\n        /* \"#utility.yul\":20493:20800   */\n    tag_135:\n        /* \"#utility.yul\":20628:20632   */\n      0x00\n        /* \"#utility.yul\":20666:20669   */\n      0x0120\n        /* \"#utility.yul\":20655:20664   */\n      dup3\n        /* \"#utility.yul\":20651:20670   */\n      add\n        /* \"#utility.yul\":20643:20670   */\n      swap1\n      pop\n        /* \"#utility.yul\":20680:20793   */\n      tag_528\n        /* \"#utility.yul\":20790:20791   */\n      0x00\n        /* \"#utility.yul\":20779:20788   */\n      dup4\n        /* \"#utility.yul\":20775:20792   */\n      add\n        /* \"#utility.yul\":20766:20772   */\n      dup5\n        /* \"#utility.yul\":20680:20793   */\n      tag_458\n      jump\t// in\n    tag_528:\n        /* \"#utility.yul\":20493:20800   */\n      swap3\n      swap2\n      pop\n      pop\n      jump\t// out\n        /* \"#utility.yul\":20806:21024   */\n    tag_110:\n        /* \"#utility.yul\":20897:20901   */\n      0x00\n        /* \"#utility.yul\":20935:20937   */\n      0x20\n        /* \"#utility.yul\":20924:20933   */\n      dup3\n        /* \"#utility.yul\":20920:20938   */\n      add\n        /* \"#utility.yul\":20912:20938   */\n      swap1\n      pop\n        /* \"#utility.yul\":20948:21017   */\n      tag_530\n        /* \"#utility.yul\":21014:21015   */\n      0x00\n        /* \"#utility.yul\":21003:21012   */\n      dup4\n        /* \"#utility.yul\":20999:21016   */\n      add\n        /* \"#utility.yul\":20990:20996   */\n      dup5\n        /* \"#utility.yul\":20948:21017   */\n      tag_478\n      jump\t// in\n    tag_530:\n        /* \"#utility.yul\":20806:21024   */\n      swap3\n      swap2\n      pop\n      pop\n      jump\t// out\n        /* \"#utility.yul\":21030:21248   */\n    tag_65:\n        /* \"#utility.yul\":21121:21125   */\n      0x00\n        /* \"#utility.yul\":21159:21161   */\n      0x20\n        /* \"#utility.yul\":21148:21157   */\n      dup3\n        /* \"#utility.yul\":21144:21162   */\n      add\n        /* \"#utility.yul\":21136:21162   */\n      swap1\n      pop\n        /* \"#utility.yul\":21172:21241   */\n      tag_532\n        /* \"#utility.yul\":21238:21239   */\n      0x00\n        /* \"#utility.yul\":21227:21236   */\n      dup4\n        /* \"#utility.yul\":21223:21240   */\n      add\n        /* \"#utility.yul\":21214:21220   */\n      dup5\n        /* \"#utility.yul\":21172:21241   */\n      tag_484\n      jump\t// in\n    tag_532:\n        /* \"#utility.yul\":21030:21248   */\n      swap3\n      swap2\n      pop\n      pop\n      jump\t// out\n        /* \"#utility.yul\":21254:21383   */\n    tag_297:\n        /* \"#utility.yul\":21288:21294   */\n      0x00\n        /* \"#utility.yul\":21315:21335   */\n      tag_534\n      tag_535\n      jump\t// in\n    tag_534:\n        /* \"#utility.yul\":21305:21335   */\n      swap1\n      pop\n        /* \"#utility.yul\":21344:21377   */\n      tag_536\n        /* \"#utility.yul\":21372:21376   */\n      dup3\n        /* \"#utility.yul\":21364:21370   */\n      dup3\n        /* \"#utility.yul\":21344:21377   */\n      tag_537\n      jump\t// in\n    tag_536:\n        /* \"#utility.yul\":21254:21383   */\n      swap2\n      swap1\n      pop\n      jump\t// out\n        /* \"#utility.yul\":21389:21464   */\n    tag_535:\n        /* \"#utility.yul\":21422:21428   */\n      0x00\n        /* \"#utility.yul\":21455:21457   */\n      0x40\n        /* \"#utility.yul\":21449:21458   */\n      mload\n        /* \"#utility.yul\":21439:21458   */\n      swap1\n      pop\n        /* \"#utility.yul\":21389:21464   */\n      swap1\n      jump\t// out\n        /* \"#utility.yul\":21470:21720   */\n    tag_296:\n        /* \"#utility.yul\":21546:21550   */\n      0x00\n        /* \"#utility.yul\":21636:21654   */\n      0xffffffffffffffff\n        /* \"#utility.yul\":21628:21634   */\n      dup3\n        /* \"#utility.yul\":21625:21655   */\n      gt\n        /* \"#utility.yul\":21622:21678   */\n      iszero\n      tag_540\n      jumpi\n        /* \"#utility.yul\":21658:21676   */\n      tag_541\n      tag_542\n      jump\t// in\n    tag_541:\n        /* \"#utility.yul\":21622:21678   */\n    tag_540:\n        /* \"#utility.yul\":21708:21712   */\n      0x20\n        /* \"#utility.yul\":21700:21706   */\n      dup3\n        /* \"#utility.yul\":21696:21713   */\n      mul\n        /* \"#utility.yul\":21688:21713   */\n      swap1\n      pop\n        /* \"#utility.yul\":21470:21720   */\n      swap2\n      swap1\n      pop\n      jump\t// out\n        /* \"#utility.yul\":21726:21895   */\n    tag_420:\n        /* \"#utility.yul\":21810:21821   */\n      0x00\n        /* \"#utility.yul\":21844:21850   */\n      dup3\n        /* \"#utility.yul\":21839:21842   */\n      dup3\n        /* \"#utility.yul\":21832:21851   */\n      mstore\n        /* \"#utility.yul\":21884:21888   */\n      0x20\n        /* \"#utility.yul\":21879:21882   */\n      dup3\n        /* \"#utility.yul\":21875:21889   */\n      add\n        /* \"#utility.yul\":21860:21889   */\n      swap1\n      pop\n        /* \"#utility.yul\":21726:21895   */\n      swap3\n      swap2\n      pop\n      pop\n      jump\t// out\n        /* \"#utility.yul\":21901:22147   */\n    tag_273:\n        /* \"#utility.yul\":21940:21943   */\n      0x00\n        /* \"#utility.yul\":21959:21978   */\n      tag_545\n        /* \"#utility.yul\":21976:21977   */\n      dup3\n        /* \"#utility.yul\":21959:21978   */\n      tag_477\n      jump\t// in\n    tag_545:\n        /* \"#utility.yul\":21954:21978   */\n      swap2\n      pop\n        /* \"#utility.yul\":21992:22011   */\n      tag_546\n        /* \"#utility.yul\":22009:22010   */\n      dup4\n        /* \"#utility.yul\":21992:22011   */\n      tag_477\n      jump\t// in\n    tag_546:\n        /* \"#utility.yul\":21987:22011   */\n      swap3\n      pop\n        /* \"#utility.yul\":22089:22090   */\n      dup3\n        /* \"#utility.yul\":22077:22087   */\n      0xffffffff\n        /* \"#utility.yul\":22073:22091   */\n      sub\n        /* \"#utility.yul\":22070:22071   */\n      dup3\n        /* \"#utility.yul\":22067:22092   */\n      gt\n        /* \"#utility.yul\":22064:22115   */\n      iszero\n      tag_547\n      jumpi\n        /* \"#utility.yul\":22095:22113   */\n      tag_548\n      tag_549\n      jump\t// in\n    tag_548:\n        /* \"#utility.yul\":22064:22115   */\n    tag_547:\n        /* \"#utility.yul\":22139:22140   */\n      dup3\n        /* \"#utility.yul\":22136:22137   */\n      dup3\n        /* \"#utility.yul\":22132:22141   */\n      add\n        /* \"#utility.yul\":22125:22141   */\n      swap1\n      pop\n        /* \"#utility.yul\":21901:22147   */\n      swap3\n      swap2\n      pop\n      pop\n      jump\t// out\n        /* \"#utility.yul\":22153:22401   */\n    tag_180:\n        /* \"#utility.yul\":22192:22195   */\n      0x00\n        /* \"#utility.yul\":22211:22230   */\n      tag_551\n        /* \"#utility.yul\":22228:22229   */\n      dup3\n        /* \"#utility.yul\":22211:22230   */\n      tag_483\n      jump\t// in\n    tag_551:\n        /* \"#utility.yul\":22206:22230   */\n      swap2\n      pop\n        /* \"#utility.yul\":22244:22263   */\n      tag_552\n        /* \"#utility.yul\":22261:22262   */\n      dup4\n        /* \"#utility.yul\":22244:22263   */\n      tag_483\n      jump\t// in\n    tag_552:\n        /* \"#utility.yul\":22239:22263   */\n      swap3\n      pop\n        /* \"#utility.yul\":22343:22344   */\n      dup3\n        /* \"#utility.yul\":22329:22341   */\n      0xffffffffff\n        /* \"#utility.yul\":22325:22345   */\n      sub\n        /* \"#utility.yul\":22322:22323   */\n      dup3\n        /* \"#utility.yul\":22319:22346   */\n      gt\n        /* \"#utility.yul\":22316:22369   */\n      iszero\n      tag_553\n      jumpi\n        /* \"#utility.yul\":22349:22367   */\n      tag_554\n      tag_549\n      jump\t// in\n    tag_554:\n        /* \"#utility.yul\":22316:22369   */\n    tag_553:\n        /* \"#utility.yul\":22393:22394   */\n      dup3\n        /* \"#utility.yul\":22390:22391   */\n      dup3\n        /* \"#utility.yul\":22386:22395   */\n      add\n        /* \"#utility.yul\":22379:22395   */\n      swap1\n      pop\n        /* \"#utility.yul\":22153:22401   */\n      swap3\n      swap2\n      pop\n      pop\n      jump\t// out\n        /* \"#utility.yul\":22407:22503   */\n    tag_399:\n        /* \"#utility.yul\":22444:22451   */\n      0x00\n        /* \"#utility.yul\":22473:22497   */\n      tag_556\n        /* \"#utility.yul\":22491:22496   */\n      dup3\n        /* \"#utility.yul\":22473:22497   */\n      tag_474\n      jump\t// in\n    tag_556:\n        /* \"#utility.yul\":22462:22497   */\n      swap1\n      pop\n        /* \"#utility.yul\":22407:22503   */\n      swap2\n      swap1\n      pop\n      jump\t// out\n        /* \"#utility.yul\":22509:22599   */\n    tag_406:\n        /* \"#utility.yul\":22543:22550   */\n      0x00\n        /* \"#utility.yul\":22586:22591   */\n      dup2\n        /* \"#utility.yul\":22579:22592   */\n      iszero\n        /* \"#utility.yul\":22572:22593   */\n      iszero\n        /* \"#utility.yul\":22561:22593   */\n      swap1\n      pop\n        /* \"#utility.yul\":22509:22599   */\n      swap2\n      swap1\n      pop\n      jump\t// out\n        /* \"#utility.yul\":22605:22682   */\n    tag_413:\n        /* \"#utility.yul\":22642:22649   */\n      0x00\n        /* \"#utility.yul\":22671:22676   */\n      dup2\n        /* \"#utility.yul\":22660:22676   */\n      swap1\n      pop\n        /* \"#utility.yul\":22605:22682   */\n      swap2\n      swap1\n      pop\n      jump\t// out\n        /* \"#utility.yul\":22688:22814   */\n    tag_474:\n        /* \"#utility.yul\":22725:22732   */\n      0x00\n        /* \"#utility.yul\":22765:22807   */\n      0xffffffffffffffffffffffffffffffffffffffff\n        /* \"#utility.yul\":22758:22763   */\n      dup3\n        /* \"#utility.yul\":22754:22808   */\n      and\n        /* \"#utility.yul\":22743:22808   */\n      swap1\n      pop\n        /* \"#utility.yul\":22688:22814   */\n      swap2\n      swap1\n      pop\n      jump\t// out\n        /* \"#utility.yul\":22820:22913   */\n    tag_477:\n        /* \"#utility.yul\":22856:22863   */\n      0x00\n        /* \"#utility.yul\":22896:22906   */\n      0xffffffff\n        /* \"#utility.yul\":22889:22894   */\n      dup3\n        /* \"#utility.yul\":22885:22907   */\n      and\n        /* \"#utility.yul\":22874:22907   */\n      swap1\n      pop\n        /* \"#utility.yul\":22820:22913   */\n      swap2\n      swap1\n      pop\n      jump\t// out\n        /* \"#utility.yul\":22919:23014   */\n    tag_483:\n        /* \"#utility.yul\":22955:22962   */\n      0x00\n        /* \"#utility.yul\":22995:23007   */\n      0xffffffffff\n        /* \"#utility.yul\":22988:22993   */\n      dup3\n        /* \"#utility.yul\":22984:23008   */\n      and\n        /* \"#utility.yul\":22973:23008   */\n      swap1\n      pop\n        /* \"#utility.yul\":22919:23014   */\n      swap2\n      swap1\n      pop\n      jump\t// out\n        /* \"#utility.yul\":23020:23301   */\n    tag_537:\n        /* \"#utility.yul\":23103:23130   */\n      tag_563\n        /* \"#utility.yul\":23125:23129   */\n      dup3\n        /* \"#utility.yul\":23103:23130   */\n      tag_564\n      jump\t// in\n    tag_563:\n        /* \"#utility.yul\":23095:23101   */\n      dup2\n        /* \"#utility.yul\":23091:23131   */\n      add\n        /* \"#utility.yul\":23233:23239   */\n      dup2\n        /* \"#utility.yul\":23221:23231   */\n      dup2\n        /* \"#utility.yul\":23218:23240   */\n      lt\n        /* \"#utility.yul\":23197:23215   */\n      0xffffffffffffffff\n        /* \"#utility.yul\":23185:23195   */\n      dup3\n        /* \"#utility.yul\":23182:23216   */\n      gt\n        /* \"#utility.yul\":23179:23241   */\n      or\n        /* \"#utility.yul\":23176:23264   */\n      iszero\n      tag_565\n      jumpi\n        /* \"#utility.yul\":23244:23262   */\n      tag_566\n      tag_542\n      jump\t// in\n    tag_566:\n        /* \"#utility.yul\":23176:23264   */\n    tag_565:\n        /* \"#utility.yul\":23284:23294   */\n      dup1\n        /* \"#utility.yul\":23280:23282   */\n      0x40\n        /* \"#utility.yul\":23273:23295   */\n      mstore\n        /* \"#utility.yul\":23063:23301   */\n      pop\n        /* \"#utility.yul\":23020:23301   */\n      pop\n      pop\n      jump\t// out\n        /* \"#utility.yul\":23307:23487   */\n    tag_549:\n        /* \"#utility.yul\":23355:23432   */\n      0x4e487b7100000000000000000000000000000000000000000000000000000000\n        /* \"#utility.yul\":23352:23353   */\n      0x00\n        /* \"#utility.yul\":23345:23433   */\n      mstore\n        /* \"#utility.yul\":23452:23456   */\n      0x11\n        /* \"#utility.yul\":23449:23450   */\n      0x04\n        /* \"#utility.yul\":23442:23457   */\n      mstore\n        /* \"#utility.yul\":23476:23480   */\n      0x24\n        /* \"#utility.yul\":23473:23474   */\n      0x00\n        /* \"#utility.yul\":23466:23481   */\n      revert\n        /* \"#utility.yul\":23493:23673   */\n    tag_542:\n        /* \"#utility.yul\":23541:23618   */\n      0x4e487b7100000000000000000000000000000000000000000000000000000000\n        /* \"#utility.yul\":23538:23539   */\n      0x00\n        /* \"#utility.yul\":23531:23619   */\n      mstore\n        /* \"#utility.yul\":23638:23642   */\n      0x41\n        /* \"#utility.yul\":23635:23636   */\n      0x04\n        /* \"#utility.yul\":23628:23643   */\n      mstore\n        /* \"#utility.yul\":23662:23666   */\n      0x24\n        /* \"#utility.yul\":23659:23660   */\n      0x00\n        /* \"#utility.yul\":23652:23667   */\n      revert\n        /* \"#utility.yul\":23679:23796   */\n    tag_314:\n        /* \"#utility.yul\":23788:23789   */\n      0x00\n        /* \"#utility.yul\":23785:23786   */\n      dup1\n        /* \"#utility.yul\":23778:23790   */\n      revert\n        /* \"#utility.yul\":23802:23919   */\n    tag_327:\n        /* \"#utility.yul\":23911:23912   */\n      0x00\n        /* \"#utility.yul\":23908:23909   */\n      dup1\n        /* \"#utility.yul\":23901:23913   */\n      revert\n        /* \"#utility.yul\":24048:24165   */\n    tag_300:\n        /* \"#utility.yul\":24157:24158   */\n      0x00\n        /* \"#utility.yul\":24154:24155   */\n      dup1\n        /* \"#utility.yul\":24147:24159   */\n      revert\n        /* \"#utility.yul\":24294:24411   */\n    tag_368:\n        /* \"#utility.yul\":24403:24404   */\n      0x00\n        /* \"#utility.yul\":24400:24401   */\n      dup1\n        /* \"#utility.yul\":24393:24405   */\n      revert\n        /* \"#utility.yul\":24417:24519   */\n    tag_564:\n        /* \"#utility.yul\":24458:24464   */\n      0x00\n        /* \"#utility.yul\":24509:24511   */\n      0x1f\n        /* \"#utility.yul\":24505:24512   */\n      not\n        /* \"#utility.yul\":24500:24502   */\n      0x1f\n        /* \"#utility.yul\":24493:24498   */\n      dup4\n        /* \"#utility.yul\":24489:24503   */\n      add\n        /* \"#utility.yul\":24485:24513   */\n      and\n        /* \"#utility.yul\":24475:24513   */\n      swap1\n      pop\n        /* \"#utility.yul\":24417:24519   */\n      swap2\n      swap1\n      pop\n      jump\t// out\n        /* \"#utility.yul\":24525:24699   */\n    tag_422:\n        /* \"#utility.yul\":24665:24691   */\n      0x637573746f6d65722061646472657373206973206e756c6c0000000000000000\n        /* \"#utility.yul\":24661:24662   */\n      0x00\n        /* \"#utility.yul\":24653:24659   */\n      dup3\n        /* \"#utility.yul\":24649:24663   */\n      add\n        /* \"#utility.yul\":24642:24692   */\n      mstore\n        /* \"#utility.yul\":24525:24699   */\n      pop\n      jump\t// out\n        /* \"#utility.yul\":24705:24878   */\n    tag_427:\n        /* \"#utility.yul\":24845:24870   */\n      0x20437573746f6d6572206973206e6f7420657869737473000000000000000000\n        /* \"#utility.yul\":24841:24842   */\n      0x00\n        /* \"#utility.yul\":24833:24839   */\n      dup3\n        /* \"#utility.yul\":24829:24843   */\n      add\n        /* \"#utility.yul\":24822:24871   */\n      mstore\n        /* \"#utility.yul\":24705:24878   */\n      pop\n      jump\t// out\n        /* \"#utility.yul\":24884:25051   */\n    tag_432:\n        /* \"#utility.yul\":25024:25043   */\n      0x74686520676174657220697320796f7572000000000000000000000000000000\n        /* \"#utility.yul\":25020:25021   */\n      0x00\n        /* \"#utility.yul\":25012:25018   */\n      dup3\n        /* \"#utility.yul\":25008:25022   */\n      add\n        /* \"#utility.yul\":25001:25044   */\n      mstore\n        /* \"#utility.yul\":24884:25051   */\n      pop\n      jump\t// out\n        /* \"#utility.yul\":25057:25225   */\n    tag_437:\n        /* \"#utility.yul\":25197:25217   */\n      0x637573746f6d6572206973206578697374730000000000000000000000000000\n        /* \"#utility.yul\":25193:25194   */\n      0x00\n        /* \"#utility.yul\":25185:25191   */\n      dup3\n        /* \"#utility.yul\":25181:25195   */\n      add\n        /* \"#utility.yul\":25174:25218   */\n      mstore\n        /* \"#utility.yul\":25057:25225   */\n      pop\n      jump\t// out\n        /* \"#utility.yul\":25231:25401   */\n    tag_442:\n        /* \"#utility.yul\":25371:25393   */\n      0x7468652067617465722069732065786973746572000000000000000000000000\n        /* \"#utility.yul\":25367:25368   */\n      0x00\n        /* \"#utility.yul\":25359:25365   */\n      dup3\n        /* \"#utility.yul\":25355:25369   */\n      add\n        /* \"#utility.yul\":25348:25394   */\n      mstore\n        /* \"#utility.yul\":25231:25401   */\n      pop\n      jump\t// out\n        /* \"#utility.yul\":25407:25579   */\n    tag_447:\n        /* \"#utility.yul\":25547:25571   */\n      0x637573746f6d6572206973206e6f742065786973747300000000000000000000\n        /* \"#utility.yul\":25543:25544   */\n      0x00\n        /* \"#utility.yul\":25535:25541   */\n      dup3\n        /* \"#utility.yul\":25531:25545   */\n      add\n        /* \"#utility.yul\":25524:25572   */\n      mstore\n        /* \"#utility.yul\":25407:25579   */\n      pop\n      jump\t// out\n        /* \"#utility.yul\":25585:25766   */\n    tag_452:\n        /* \"#utility.yul\":25725:25758   */\n      0x74686520637573746f6d6572207265636f6d6d656e6465722065786973747300\n        /* \"#utility.yul\":25721:25722   */\n      0x00\n        /* \"#utility.yul\":25713:25719   */\n      dup3\n        /* \"#utility.yul\":25709:25723   */\n      add\n        /* \"#utility.yul\":25702:25759   */\n      mstore\n        /* \"#utility.yul\":25585:25766   */\n      pop\n      jump\t// out\n        /* \"#utility.yul\":25772:25943   */\n    tag_457:\n        /* \"#utility.yul\":25912:25935   */\n      0x7468652067617465722069736e6f742065786973740000000000000000000000\n        /* \"#utility.yul\":25908:25909   */\n      0x00\n        /* \"#utility.yul\":25900:25906   */\n      dup3\n        /* \"#utility.yul\":25896:25910   */\n      add\n        /* \"#utility.yul\":25889:25936   */\n      mstore\n        /* \"#utility.yul\":25772:25943   */\n      pop\n      jump\t// out\n        /* \"#utility.yul\":25949:26071   */\n    tag_309:\n        /* \"#utility.yul\":26022:26046   */\n      tag_587\n        /* \"#utility.yul\":26040:26045   */\n      dup2\n        /* \"#utility.yul\":26022:26046   */\n      tag_399\n      jump\t// in\n    tag_587:\n        /* \"#utility.yul\":26015:26020   */\n      dup2\n        /* \"#utility.yul\":26012:26047   */\n      eq\n        /* \"#utility.yul\":26002:26065   */\n      tag_588\n      jumpi\n        /* \"#utility.yul\":26061:26062   */\n      0x00\n        /* \"#utility.yul\":26058:26059   */\n      dup1\n        /* \"#utility.yul\":26051:26063   */\n      revert\n        /* \"#utility.yul\":26002:26065   */\n    tag_588:\n        /* \"#utility.yul\":25949:26071   */\n      pop\n      jump\t// out\n        /* \"#utility.yul\":26077:26193   */\n    tag_319:\n        /* \"#utility.yul\":26147:26168   */\n      tag_590\n        /* \"#utility.yul\":26162:26167   */\n      dup2\n        /* \"#utility.yul\":26147:26168   */\n      tag_406\n      jump\t// in\n    tag_590:\n        /* \"#utility.yul\":26140:26145   */\n      dup2\n        /* \"#utility.yul\":26137:26169   */\n      eq\n        /* \"#utility.yul\":26127:26187   */\n      tag_591\n      jumpi\n        /* \"#utility.yul\":26183:26184   */\n      0x00\n        /* \"#utility.yul\":26180:26181   */\n      dup1\n        /* \"#utility.yul\":26173:26185   */\n      revert\n        /* \"#utility.yul\":26127:26187   */\n    tag_591:\n        /* \"#utility.yul\":26077:26193   */\n      pop\n      jump\t// out\n        /* \"#utility.yul\":26199:26321   */\n    tag_322:\n        /* \"#utility.yul\":26272:26296   */\n      tag_593\n        /* \"#utility.yul\":26290:26295   */\n      dup2\n        /* \"#utility.yul\":26272:26296   */\n      tag_413\n      jump\t// in\n    tag_593:\n        /* \"#utility.yul\":26265:26270   */\n      dup2\n        /* \"#utility.yul\":26262:26297   */\n      eq\n        /* \"#utility.yul\":26252:26315   */\n      tag_594\n      jumpi\n        /* \"#utility.yul\":26311:26312   */\n      0x00\n        /* \"#utility.yul\":26308:26309   */\n      dup1\n        /* \"#utility.yul\":26301:26313   */\n      revert\n        /* \"#utility.yul\":26252:26315   */\n    tag_594:\n        /* \"#utility.yul\":26199:26321   */\n      pop\n      jump\t// out\n        /* \"#utility.yul\":26327:26449   */\n    tag_358:\n        /* \"#utility.yul\":26400:26424   */\n      tag_596\n        /* \"#utility.yul\":26418:26423   */\n      dup2\n        /* \"#utility.yul\":26400:26424   */\n      tag_474\n      jump\t// in\n    tag_596:\n        /* \"#utility.yul\":26393:26398   */\n      dup2\n        /* \"#utility.yul\":26390:26425   */\n      eq\n        /* \"#utility.yul\":26380:26443   */\n      tag_597\n      jumpi\n        /* \"#utility.yul\":26439:26440   */\n      0x00\n        /* \"#utility.yul\":26436:26437   */\n      dup1\n        /* \"#utility.yul\":26429:26441   */\n      revert\n        /* \"#utility.yul\":26380:26443   */\n    tag_597:\n        /* \"#utility.yul\":26327:26449   */\n      pop\n      jump\t// out\n        /* \"#utility.yul\":26455:26575   */\n    tag_361:\n        /* \"#utility.yul\":26527:26550   */\n      tag_599\n        /* \"#utility.yul\":26544:26549   */\n      dup2\n        /* \"#utility.yul\":26527:26550   */\n      tag_477\n      jump\t// in\n    tag_599:\n        /* \"#utility.yul\":26520:26525   */\n      dup2\n        /* \"#utility.yul\":26517:26551   */\n      eq\n        /* \"#utility.yul\":26507:26569   */\n      tag_600\n      jumpi\n        /* \"#utility.yul\":26565:26566   */\n      0x00\n        /* \"#utility.yul\":26562:26563   */\n      dup1\n        /* \"#utility.yul\":26555:26567   */\n      revert\n        /* \"#utility.yul\":26507:26569   */\n    tag_600:\n        /* \"#utility.yul\":26455:26575   */\n      pop\n      jump\t// out\n        /* \"#utility.yul\":26581:26701   */\n    tag_364:\n        /* \"#utility.yul\":26653:26676   */\n      tag_602\n        /* \"#utility.yul\":26670:26675   */\n      dup2\n        /* \"#utility.yul\":26653:26676   */\n      tag_483\n      jump\t// in\n    tag_602:\n        /* \"#utility.yul\":26646:26651   */\n      dup2\n        /* \"#utility.yul\":26643:26677   */\n      eq\n        /* \"#utility.yul\":26633:26695   */\n      tag_603\n      jumpi\n        /* \"#utility.yul\":26691:26692   */\n      0x00\n        /* \"#utility.yul\":26688:26689   */\n      dup1\n        /* \"#utility.yul\":26681:26693   */\n      revert\n        /* \"#utility.yul\":26633:26695   */\n    tag_603:\n        /* \"#utility.yul\":26581:26701   */\n      pop\n      jump\t// out\n\n    auxdata: 0xa26469706673582212206251914dcfd9de25516e80f8d6eaa028fc6337de5f3c3ee4a8da2f6f3db5945764736f6c63430008070033\n}\n",
				"bytecode": {
					"linkReferences": {},
					"object": "60a060405234801561001057600080fd5b503373ffffffffffffffffffffffffffffffffffffffff1660808173ffffffffffffffffffffffffffffffffffffffff1660601b8152505060805160601c6144cf61007460003960008181610bd401528181610bf801526120b301526144cf6000f3fe608060405234801561001057600080fd5b50600436106101fb5760003560e01c80638a6df7261161011a578063d82aff11116100ad578063f1c9f40f1161007c578063f1c9f40f146105fe578063f3a4253714610608578063f3c8604814610624578063f4274bc514610640578063fc5f9f1814610678576101fb565b8063d82aff1114610566578063d8feb7ff14610582578063e71957b91461059e578063e853f952146105ce576101fb565b8063b614984d116100e9578063b614984d146104ce578063bc5c6134146104ea578063be5fdac81461051a578063cb949e5114610536576101fb565b80638a6df72614610434578063a478608814610464578063a60832cd14610480578063ab3acb5c146104b0576101fb565b80633e95003c11610192578063753c518811610161578063753c51881461038857806376941300146103b857806378166097146103d45780638370aa8114610404576101fb565b80633e95003c146102d457806345df4987146103045780635cfeafa51461033c57806371271f4d1461036c576101fb565b80632b890543116101ce5780632b89054314610274578063367b6dcc146102905780633b63b647146102ae5780633bbae141146102ca576101fb565b80630138a661146102005780631487f2521461021c57806314f9e5541461023a57806327cbaabe14610256575b600080fd5b61021a60048036038101906102159190613a5e565b610694565b005b6102246107e5565b6040516102319190613edf565b60405180910390f35b610254600480360381019061024f9190613af8565b610838565b005b61025e610bd2565b60405161026b9190613e37565b60405180910390f35b61028e60048036038101906102899190613a5e565b610bf6565b005b610298610c9f565b6040516102a591906140be565b60405180910390f35b6102c860048036038101906102c39190613acb565b610cb6565b005b6102d2610e32565b005b6102ee60048036038101906102e99190613b96565b61101d565b6040516102fb9190613e37565b60405180910390f35b61031e60048036038101906103199190613a5e565b611050565b60405161033399989796959493929190613e52565b60405180910390f35b61035660048036038101906103519190613a8b565b611135565b6040516103639190613e37565b60405180910390f35b61038660048036038101906103819190613b68565b611177565b005b6103a2600480360381019061039d9190613a5e565b611508565b6040516103af9190613edf565b60405180910390f35b6103d260048036038101906103cd9190613a5e565b611528565b005b6103ee60048036038101906103e99190613a5e565b611678565b6040516103fb9190613edf565b60405180910390f35b61041e60048036038101906104199190613a8b565b6116d1565b60405161042b9190613e37565b60405180910390f35b61044e60048036038101906104499190613a5e565b6117c7565b60405161045b91906140a3565b60405180910390f35b61047e60048036038101906104799190613a5e565b61188f565b005b61049a60048036038101906104959190613a8b565b6119de565b6040516104a79190613e37565b60405180910390f35b6104b8611a20565b6040516104c59190613edf565b60405180910390f35b6104e860048036038101906104e39190613a5e565b611a77565b005b61050460048036038101906104ff9190613a5e565b611c96565b60405161051191906140a3565b60405180910390f35b610534600480360381019061052f9190613a5e565b611cb9565b005b610550600480360381019061054b9190613a5e565b611e0a565b60405161055d9190614087565b60405180910390f35b610580600480360381019061057b9190613a5e565b6120b1565b005b61059c60048036038101906105979190613b68565b612163565b005b6105b860048036038101906105b39190613a5e565b612467565b6040516105c59190613e37565b60405180910390f35b6105e860048036038101906105e39190613a5e565b612569565b6040516105f591906140a3565b60405180910390f35b61060661258c565b005b610622600480360381019061061d9190613b68565b612778565b005b61063e60048036038101906106399190613b96565b612b3d565b005b61065a60048036038101906106559190613a5e565b612f02565b60405161066f99989796959493929190613efa565b60405180910390f35b610692600480360381019061068d9190613b26565b612ffb565b005b600115156000803373ffffffffffffffffffffffffffffffffffffffff1673ffffffffffffffffffffffffffffffffffffffff16815260200190815260200160002060009054906101000a900460ff161515146106f057600080fd5b60011515600260008373ffffffffffffffffffffffffffffffffffffffff1673ffffffffffffffffffffffffffffffffffffffff16815260200190815260200160002060030160149054906101000a900460ff1615151415610787576040517f08c379a000000000000000000000000000000000000000000000000000000000815260040161077e90614027565b60405180910390fd5b6000600260008373ffffffffffffffffffffffffffffffffffffffff1673ffffffffffffffffffffffffffffffffffffffff16815260200190815260200160002060030160156101000a81548160ff02191690831515021790555050565b60008060003373ffffffffffffffffffffffffffffffffffffffff1673ffffffffffffffffffffffffffffffffffffffff16815260200190815260200160002060009054906101000a900460ff16905090565b60011515600260008360c0015173ffffffffffffffffffffffffffffffffffffffff1673ffffffffffffffffffffffffffffffffffffffff16815260200190815260200160002060030160149054906101000a900460ff161515141580156108cf57503373ffffffffffffffffffffffffffffffffffffffff168160c0015173ffffffffffffffffffffffffffffffffffffffff16145b61090e576040517f08c379a000000000000000000000000000000000000000000000000000000000815260040161090590613fe7565b60405180910390fd5b6001600460008282829054906101000a900464ffffffffff16610931919061416f565b92506101000a81548164ffffffffff021916908364ffffffffff1602179055503360036000600460009054906101000a900464ffffffffff1664ffffffffff1664ffffffffff16815260200190815260200160002060006101000a81548173ffffffffffffffffffffffffffffffffffffffff021916908373ffffffffffffffffffffffffffffffffffffffff160217905550600460009054906101000a900464ffffffffff16816060019064ffffffffff16908164ffffffffff168152505080600260008360c0015173ffffffffffffffffffffffffffffffffffffffff1673ffffffffffffffffffffffffffffffffffffffff1681526020019081526020016000206000820151816000015560208201518160010160006101000a81548163ffffffff021916908363ffffffff16021790555060408201518160010160046101000a81548173ffffffffffffffffffffffffffffffffffffffff021916908373ffffffffffffffffffffffffffffffffffffffff16021790555060608201518160010160186101000a81548164ffffffffff021916908364ffffffffff16021790555060808201518160020160006101000a81548173ffffffffffffffffffffffffffffffffffffffff021916908373ffffffffffffffffffffffffffffffffffffffff16021790555060a08201518160020160146101000a81548163ffffffff021916908363ffffffff16021790555060c08201518160030160006101000a81548173ffffffffffffffffffffffffffffffffffffffff021916908373ffffffffffffffffffffffffffffffffffffffff16021790555060e08201518160030160146101000a81548160ff0219169083151502179055506101008201518160030160156101000a81548160ff02191690831515021790555090505050565b7f000000000000000000000000000000000000000000000000000000000000000081565b7f000000000000000000000000000000000000000000000000000000000000000073ffffffffffffffffffffffffffffffffffffffff163373ffffffffffffffffffffffffffffffffffffffff1614610c4e57600080fd5b6000808273ffffffffffffffffffffffffffffffffffffffff1673ffffffffffffffffffffffffffffffffffffffff16815260200190815260200160002060006101000a81549060ff021916905550565b600460009054906101000a900464ffffffffff1681565b60018015610d5157503373ffffffffffffffffffffffffffffffffffffffff16600260003373ffffffffffffffffffffffffffffffffffffffff1673ffffffffffffffffffffffffffffffffffffffff16815260200190815260200160002060030160009054906101000a900473ffffffffffffffffffffffffffffffffffffffff1673ffffffffffffffffffffffffffffffffffffffff16145b600260003373ffffffffffffffffffffffffffffffffffffffff1673ffffffffffffffffffffffffffffffffffffffff16815260200190815260200160002060030160146101000a81548160ff0219169083151502179055610de8576040517f08c379a0000000000000000000000000000000000000000000000000000000008152600401610ddf90614027565b60405180910390fd5b80600260003373ffffffffffffffffffffffffffffffffffffffff1673ffffffffffffffffffffffffffffffffffffffff1681526020019081526020016000206000018190555050565b60011515600160003373ffffffffffffffffffffffffffffffffffffffff1673ffffffffffffffffffffffffffffffffffffffff168152602001908152602001600020600f0160049054906101000a900460ff16151514610e9257600080fd5b60011515600160003373ffffffffffffffffffffffffffffffffffffffff1673ffffffffffffffffffffffffffffffffffffffff168152602001908152602001600020600f0160069054906101000a900460ff161515148015610f8257503373ffffffffffffffffffffffffffffffffffffffff16600160003373ffffffffffffffffffffffffffffffffffffffff1673ffffffffffffffffffffffffffffffffffffffff16815260200190815260200160002060010160009054906101000a900473ffffffffffffffffffffffffffffffffffffffff1673ffffffffffffffffffffffffffffffffffffffff16145b610fc1576040517f08c379a0000000000000000000000000000000000000000000000000000000008152600401610fb890614067565b60405180910390fd5b60018060003373ffffffffffffffffffffffffffffffffffffffff1673ffffffffffffffffffffffffffffffffffffffff168152602001908152602001600020600f0160056101000a81548160ff021916908315150217905550565b60036020528060005260406000206000915054906101000a900473ffffffffffffffffffffffffffffffffffffffff1681565b60016020528060005260406000206000915090508060000160009054906101000a900473ffffffffffffffffffffffffffffffffffffffff16908060010160009054906101000a900473ffffffffffffffffffffffffffffffffffffffff16908060020160009054906101000a900473ffffffffffffffffffffffffffffffffffffffff169080600301549080600401549080600f0160009054906101000a900463ffffffff169080600f0160049054906101000a900460ff169080600f0160059054906101000a900460ff169080600f0160069054906101000a900460ff16905089565b60086020528160005260406000206020528060005260406000206000915091509054906101000a900473ffffffffffffffffffffffffffffffffffffffff1681565b600115156000803373ffffffffffffffffffffffffffffffffffffffff1673ffffffffffffffffffffffffffffffffffffffff16815260200190815260200160002060009054906101000a900460ff161515146111d357600080fd5b6001151560016000836020015173ffffffffffffffffffffffffffffffffffffffff1673ffffffffffffffffffffffffffffffffffffffff168152602001908152602001600020600f0160069054906101000a900460ff1615151461126d576040517f08c379a000000000000000000000000000000000000000000000000000000000815260040161126490614007565b60405180910390fd5b60016000826020015173ffffffffffffffffffffffffffffffffffffffff1673ffffffffffffffffffffffffffffffffffffffff168152602001908152602001600020600f0160049054906101000a900460ff168160e001901515908115158152505060016000826020015173ffffffffffffffffffffffffffffffffffffffff1673ffffffffffffffffffffffffffffffffffffffff168152602001908152602001600020600f0160059054906101000a900460ff16816101000190151590811515815250508060016000836020015173ffffffffffffffffffffffffffffffffffffffff1673ffffffffffffffffffffffffffffffffffffffff16815260200190815260200160002060008201518160000160006101000a81548173ffffffffffffffffffffffffffffffffffffffff021916908373ffffffffffffffffffffffffffffffffffffffff16021790555060208201518160010160006101000a81548173ffffffffffffffffffffffffffffffffffffffff021916908373ffffffffffffffffffffffffffffffffffffffff16021790555060408201518160020160006101000a81548173ffffffffffffffffffffffffffffffffffffffff021916908373ffffffffffffffffffffffffffffffffffffffff160217905550606082015181600301556080820151816004015560a08201518160050190600a61147892919061365e565b5060c082015181600f0160006101000a81548163ffffffff021916908363ffffffff16021790555060e082015181600f0160046101000a81548160ff02191690831515021790555061010082015181600f0160056101000a81548160ff02191690831515021790555061012082015181600f0160066101000a81548160ff02191690831515021790555090505050565b60006020528060005260406000206000915054906101000a900460ff1681565b600115156000803373ffffffffffffffffffffffffffffffffffffffff1673ffffffffffffffffffffffffffffffffffffffff16815260200190815260200160002060009054906101000a900460ff1615151461158457600080fd5b60011515600160008373ffffffffffffffffffffffffffffffffffffffff1673ffffffffffffffffffffffffffffffffffffffff168152602001908152602001600020600f0160069054906101000a900460ff1615151461161a576040517f08c379a000000000000000000000000000000000000000000000000000000000815260040161161190614067565b60405180910390fd5b6000600160008373ffffffffffffffffffffffffffffffffffffffff1673ffffffffffffffffffffffffffffffffffffffff168152602001908152602001600020600f0160046101000a81548160ff02191690831515021790555050565b6000600260008373ffffffffffffffffffffffffffffffffffffffff1673ffffffffffffffffffffffffffffffffffffffff16815260200190815260200160002060030160149054906101000a900460ff169050919050565b60008073ffffffffffffffffffffffffffffffffffffffff168373ffffffffffffffffffffffffffffffffffffffff161415611742576040517f08c379a000000000000000000000000000000000000000000000000000000000815260040161173990613f87565b60405180910390fd5b600660008473ffffffffffffffffffffffffffffffffffffffff1673ffffffffffffffffffffffffffffffffffffffff16815260200190815260200160002060008363ffffffff1663ffffffff16815260200190815260200160002060009054906101000a900473ffffffffffffffffffffffffffffffffffffffff16905092915050565b60008073ffffffffffffffffffffffffffffffffffffffff168273ffffffffffffffffffffffffffffffffffffffff161415611838576040517f08c379a000000000000000000000000000000000000000000000000000000000815260040161182f90613f87565b60405180910390fd5b600560008373ffffffffffffffffffffffffffffffffffffffff1673ffffffffffffffffffffffffffffffffffffffff16815260200190815260200160002060009054906101000a900463ffffffff169050919050565b600115156000803373ffffffffffffffffffffffffffffffffffffffff1673ffffffffffffffffffffffffffffffffffffffff16815260200190815260200160002060009054906101000a900460ff161515146118eb57600080fd5b60011515600160008373ffffffffffffffffffffffffffffffffffffffff1673ffffffffffffffffffffffffffffffffffffffff168152602001908152602001600020600f0160069054906101000a900460ff16151514611981576040517f08c379a000000000000000000000000000000000000000000000000000000000815260040161197890614067565b60405180910390fd5b60018060008373ffffffffffffffffffffffffffffffffffffffff1673ffffffffffffffffffffffffffffffffffffffff168152602001908152602001600020600f0160046101000a81548160ff02191690831515021790555050565b60066020528160005260406000206020528060005260406000206000915091509054906101000a900473ffffffffffffffffffffffffffffffffffffffff1681565b6000600160003373ffffffffffffffffffffffffffffffffffffffff1673ffffffffffffffffffffffffffffffffffffffff168152602001908152602001600020600f0160049054906101000a900460ff16905090565b600115156000803373ffffffffffffffffffffffffffffffffffffffff1673ffffffffffffffffffffffffffffffffffffffff16815260200190815260200160002060009054906101000a900460ff16151514611ad357600080fd5b60011515600160008373ffffffffffffffffffffffffffffffffffffffff1673ffffffffffffffffffffffffffffffffffffffff168152602001908152602001600020600f0160069054906101000a900460ff16151514611b69576040517f08c379a0000000000000000000000000000000000000000000000000000000008152600401611b6090614007565b60405180910390fd5b600160008273ffffffffffffffffffffffffffffffffffffffff1673ffffffffffffffffffffffffffffffffffffffff168152602001908152602001600020600080820160006101000a81549073ffffffffffffffffffffffffffffffffffffffff02191690556001820160006101000a81549073ffffffffffffffffffffffffffffffffffffffff02191690556002820160006101000a81549073ffffffffffffffffffffffffffffffffffffffff021916905560038201600090556004820160009055600582016000611c3e919061369e565b600f820160006101000a81549063ffffffff0219169055600f820160046101000a81549060ff0219169055600f820160056101000a81549060ff0219169055600f820160066101000a81549060ff0219169055505050565b60076020528060005260406000206000915054906101000a900463ffffffff1681565b600115156000803373ffffffffffffffffffffffffffffffffffffffff1673ffffffffffffffffffffffffffffffffffffffff16815260200190815260200160002060009054906101000a900460ff16151514611d1557600080fd5b60011515600260008373ffffffffffffffffffffffffffffffffffffffff1673ffffffffffffffffffffffffffffffffffffffff16815260200190815260200160002060030160149054906101000a900460ff1615151415611dac576040517f08c379a0000000000000000000000000000000000000000000000000000000008152600401611da390614027565b60405180910390fd5b6001600260008373ffffffffffffffffffffffffffffffffffffffff1673ffffffffffffffffffffffffffffffffffffffff16815260200190815260200160002060030160156101000a81548160ff02191690831515021790555050565b611e126136b1565b60011515600260008473ffffffffffffffffffffffffffffffffffffffff1673ffffffffffffffffffffffffffffffffffffffff16815260200190815260200160002060030160149054906101000a900460ff16151514611ea8576040517f08c379a0000000000000000000000000000000000000000000000000000000008152600401611e9f90613fa7565b60405180910390fd5b600260008373ffffffffffffffffffffffffffffffffffffffff1673ffffffffffffffffffffffffffffffffffffffff16815260200190815260200160002060405180610120016040529081600082015481526020016001820160009054906101000a900463ffffffff1663ffffffff1663ffffffff1681526020016001820160049054906101000a900473ffffffffffffffffffffffffffffffffffffffff1673ffffffffffffffffffffffffffffffffffffffff1673ffffffffffffffffffffffffffffffffffffffff1681526020016001820160189054906101000a900464ffffffffff1664ffffffffff1664ffffffffff1681526020016002820160009054906101000a900473ffffffffffffffffffffffffffffffffffffffff1673ffffffffffffffffffffffffffffffffffffffff1673ffffffffffffffffffffffffffffffffffffffff1681526020016002820160149054906101000a900463ffffffff1663ffffffff1663ffffffff1681526020016003820160009054906101000a900473ffffffffffffffffffffffffffffffffffffffff1673ffffffffffffffffffffffffffffffffffffffff1673ffffffffffffffffffffffffffffffffffffffff1681526020016003820160149054906101000a900460ff161515151581526020016003820160159054906101000a900460ff1615151515815250509050919050565b7f000000000000000000000000000000000000000000000000000000000000000073ffffffffffffffffffffffffffffffffffffffff163373ffffffffffffffffffffffffffffffffffffffff161461210957600080fd5b60016000808373ffffffffffffffffffffffffffffffffffffffff1673ffffffffffffffffffffffffffffffffffffffff16815260200190815260200160002060006101000a81548160ff02191690831515021790555050565b6001151560016000836020015173ffffffffffffffffffffffffffffffffffffffff1673ffffffffffffffffffffffffffffffffffffffff168152602001908152602001600020600f0160069054906101000a900460ff16151514156121fe576040517f08c379a00000000000000000000000000000000000000000000000000000000081526004016121f590614007565b60405180910390fd5b3373ffffffffffffffffffffffffffffffffffffffff16816020015173ffffffffffffffffffffffffffffffffffffffff1614612270576040517f08c379a000000000000000000000000000000000000000000000000000000000815260040161226790613fc7565b60405180910390fd5b60008160e00190151590811515815250506000816101000190151590811515815250508060016000836020015173ffffffffffffffffffffffffffffffffffffffff1673ffffffffffffffffffffffffffffffffffffffff16815260200190815260200160002060008201518160000160006101000a81548173ffffffffffffffffffffffffffffffffffffffff021916908373ffffffffffffffffffffffffffffffffffffffff16021790555060208201518160010160006101000a81548173ffffffffffffffffffffffffffffffffffffffff021916908373ffffffffffffffffffffffffffffffffffffffff16021790555060408201518160020160006101000a81548173ffffffffffffffffffffffffffffffffffffffff021916908373ffffffffffffffffffffffffffffffffffffffff160217905550606082015181600301556080820151816004015560a08201518160050190600a6123d792919061365e565b5060c082015181600f0160006101000a81548163ffffffff021916908363ffffffff16021790555060e082015181600f0160046101000a81548160ff02191690831515021790555061010082015181600f0160056101000a81548160ff02191690831515021790555061012082015181600f0160066101000a81548160ff02191690831515021790555090505050565b600060011515600260008473ffffffffffffffffffffffffffffffffffffffff1673ffffffffffffffffffffffffffffffffffffffff16815260200190815260200160002060030160149054906101000a900460ff161515146124ff576040517f08c379a00000000000000000000000000000000000000000000000000000000081526004016124f690613fa7565b60405180910390fd5b600260008373ffffffffffffffffffffffffffffffffffffffff1673ffffffffffffffffffffffffffffffffffffffff16815260200190815260200160002060010160049054906101000a900473ffffffffffffffffffffffffffffffffffffffff169050919050565b60056020528060005260406000206000915054906101000a900463ffffffff1681565b60011515600160003373ffffffffffffffffffffffffffffffffffffffff1673ffffffffffffffffffffffffffffffffffffffff168152602001908152602001600020600f0160049054906101000a900460ff161515146125ec57600080fd5b60011515600160003373ffffffffffffffffffffffffffffffffffffffff1673ffffffffffffffffffffffffffffffffffffffff168152602001908152602001600020600f0160069054906101000a900460ff1615151480156126dc57503373ffffffffffffffffffffffffffffffffffffffff16600160003373ffffffffffffffffffffffffffffffffffffffff1673ffffffffffffffffffffffffffffffffffffffff16815260200190815260200160002060010160009054906101000a900473ffffffffffffffffffffffffffffffffffffffff1673ffffffffffffffffffffffffffffffffffffffff16145b61271b576040517f08c379a000000000000000000000000000000000000000000000000000000000815260040161271290614067565b60405180910390fd5b6000600160003373ffffffffffffffffffffffffffffffffffffffff1673ffffffffffffffffffffffffffffffffffffffff168152602001908152602001600020600f0160056101000a81548160ff021916908315150217905550565b60011515600160003373ffffffffffffffffffffffffffffffffffffffff1673ffffffffffffffffffffffffffffffffffffffff168152602001908152602001600020600f0160049054906101000a900460ff161515146127d857600080fd5b6001151560016000836020015173ffffffffffffffffffffffffffffffffffffffff1673ffffffffffffffffffffffffffffffffffffffff168152602001908152602001600020600f0160069054906101000a900460ff16151514612872576040517f08c379a000000000000000000000000000000000000000000000000000000000815260040161286990614007565b60405180910390fd5b3373ffffffffffffffffffffffffffffffffffffffff1660016000836020015173ffffffffffffffffffffffffffffffffffffffff1673ffffffffffffffffffffffffffffffffffffffff16815260200190815260200160002060010160009054906101000a900473ffffffffffffffffffffffffffffffffffffffff1673ffffffffffffffffffffffffffffffffffffffff1614612946576040517f08c379a000000000000000000000000000000000000000000000000000000000815260040161293d90613fc7565b60405180910390fd5b60008160e00190151590811515815250506001816101000190151590811515815250508060016000836020015173ffffffffffffffffffffffffffffffffffffffff1673ffffffffffffffffffffffffffffffffffffffff16815260200190815260200160002060008201518160000160006101000a81548173ffffffffffffffffffffffffffffffffffffffff021916908373ffffffffffffffffffffffffffffffffffffffff16021790555060208201518160010160006101000a81548173ffffffffffffffffffffffffffffffffffffffff021916908373ffffffffffffffffffffffffffffffffffffffff16021790555060408201518160020160006101000a81548173ffffffffffffffffffffffffffffffffffffffff021916908373ffffffffffffffffffffffffffffffffffffffff160217905550606082015181600301556080820151816004015560a08201518160050190600a612aad92919061365e565b5060c082015181600f0160006101000a81548163ffffffff021916908363ffffffff16021790555060e082015181600f0160046101000a81548160ff02191690831515021790555061010082015181600f0160056101000a81548160ff02191690831515021790555061012082015181600f0160066101000a81548160ff02191690831515021790555090505050565b600073ffffffffffffffffffffffffffffffffffffffff16600260003373ffffffffffffffffffffffffffffffffffffffff1673ffffffffffffffffffffffffffffffffffffffff16815260200190815260200160002060010160049054906101000a900473ffffffffffffffffffffffffffffffffffffffff1673ffffffffffffffffffffffffffffffffffffffff1614612c0e576040517f08c379a0000000000000000000000000000000000000000000000000000000008152600401612c0590614047565b60405180910390fd5b6000600360008364ffffffffff1664ffffffffff16815260200190815260200160002060009054906101000a900473ffffffffffffffffffffffffffffffffffffffff1690506001600560008373ffffffffffffffffffffffffffffffffffffffff1673ffffffffffffffffffffffffffffffffffffffff16815260200190815260200160002060009054906101000a900463ffffffff1663ffffffff1610612d33576001600560008373ffffffffffffffffffffffffffffffffffffffff1673ffffffffffffffffffffffffffffffffffffffff16815260200190815260200160002060008282829054906101000a900463ffffffff16612d109190614135565b92506101000a81548163ffffffff021916908363ffffffff160217905550612d93565b6001600560008373ffffffffffffffffffffffffffffffffffffffff1673ffffffffffffffffffffffffffffffffffffffff16815260200190815260200160002060006101000a81548163ffffffff021916908363ffffffff1602179055505b33600660008373ffffffffffffffffffffffffffffffffffffffff1673ffffffffffffffffffffffffffffffffffffffff1681526020019081526020016000206000600560008573ffffffffffffffffffffffffffffffffffffffff1673ffffffffffffffffffffffffffffffffffffffff16815260200190815260200160002060009054906101000a900463ffffffff1663ffffffff1663ffffffff16815260200190815260200160002060006101000a81548173ffffffffffffffffffffffffffffffffffffffff021916908373ffffffffffffffffffffffffffffffffffffffff16021790555080600260003373ffffffffffffffffffffffffffffffffffffffff1673ffffffffffffffffffffffffffffffffffffffff16815260200190815260200160002060010160046101000a81548173ffffffffffffffffffffffffffffffffffffffff021916908373ffffffffffffffffffffffffffffffffffffffff1602179055505050565b60026020528060005260406000206000915090508060000154908060010160009054906101000a900463ffffffff16908060010160049054906101000a900473ffffffffffffffffffffffffffffffffffffffff16908060010160189054906101000a900464ffffffffff16908060020160009054906101000a900473ffffffffffffffffffffffffffffffffffffffff16908060020160149054906101000a900463ffffffff16908060030160009054906101000a900473ffffffffffffffffffffffffffffffffffffffff16908060030160149054906101000a900460ff16908060030160159054906101000a900460ff16905089565b60011515600260008460c0015173ffffffffffffffffffffffffffffffffffffffff1673ffffffffffffffffffffffffffffffffffffffff16815260200190815260200160002060030160149054906101000a900460ff1615151415801561309257503373ffffffffffffffffffffffffffffffffffffffff168260c0015173ffffffffffffffffffffffffffffffffffffffff16145b6130d1576040517f08c379a00000000000000000000000000000000000000000000000000000000081526004016130c890613fe7565b60405180910390fd5b6001600760008373ffffffffffffffffffffffffffffffffffffffff1673ffffffffffffffffffffffffffffffffffffffff16815260200190815260200160002060009054906101000a900463ffffffff1663ffffffff16106131b0576001600760008373ffffffffffffffffffffffffffffffffffffffff1673ffffffffffffffffffffffffffffffffffffffff16815260200190815260200160002060008282829054906101000a900463ffffffff1661318d9190614135565b92506101000a81548163ffffffff021916908363ffffffff160217905550613210565b6001600760008373ffffffffffffffffffffffffffffffffffffffff1673ffffffffffffffffffffffffffffffffffffffff16815260200190815260200160002060006101000a81548163ffffffff021916908363ffffffff1602179055505b80826080019073ffffffffffffffffffffffffffffffffffffffff16908173ffffffffffffffffffffffffffffffffffffffff1681525050600760008273ffffffffffffffffffffffffffffffffffffffff1673ffffffffffffffffffffffffffffffffffffffff16815260200190815260200160002060009054906101000a900463ffffffff168260a0019063ffffffff16908163ffffffff16815250506001600460008282829054906101000a900464ffffffffff166132d2919061416f565b92506101000a81548164ffffffffff021916908364ffffffffff1602179055503360036000600460009054906101000a900464ffffffffff1664ffffffffff1664ffffffffff16815260200190815260200160002060006101000a81548173ffffffffffffffffffffffffffffffffffffffff021916908373ffffffffffffffffffffffffffffffffffffffff160217905550600460009054906101000a900464ffffffffff16826060019064ffffffffff16908164ffffffffff168152505081600260008460c0015173ffffffffffffffffffffffffffffffffffffffff1673ffffffffffffffffffffffffffffffffffffffff1681526020019081526020016000206000820151816000015560208201518160010160006101000a81548163ffffffff021916908363ffffffff16021790555060408201518160010160046101000a81548173ffffffffffffffffffffffffffffffffffffffff021916908373ffffffffffffffffffffffffffffffffffffffff16021790555060608201518160010160186101000a81548164ffffffffff021916908364ffffffffff16021790555060808201518160020160006101000a81548173ffffffffffffffffffffffffffffffffffffffff021916908373ffffffffffffffffffffffffffffffffffffffff16021790555060a08201518160020160146101000a81548163ffffffff021916908363ffffffff16021790555060c08201518160030160006101000a81548173ffffffffffffffffffffffffffffffffffffffff021916908373ffffffffffffffffffffffffffffffffffffffff16021790555060e08201518160030160146101000a81548160ff0219169083151502179055506101008201518160030160156101000a81548160ff02191690831515021790555090505033600860008373ffffffffffffffffffffffffffffffffffffffff1673ffffffffffffffffffffffffffffffffffffffff1681526020019081526020016000206000600760008573ffffffffffffffffffffffffffffffffffffffff1673ffffffffffffffffffffffffffffffffffffffff16815260200190815260200160002060009054906101000a900463ffffffff1663ffffffff1663ffffffff16815260200190815260200160002060006101000a81548173ffffffffffffffffffffffffffffffffffffffff021916908373ffffffffffffffffffffffffffffffffffffffff1602179055505050565b82600a810192821561368d579160200282015b8281111561368c578251825591602001919060010190613671565b5b50905061369a9190613759565b5090565b5080600a01906136ae9190613759565b50565b60405180610120016040528060008019168152602001600063ffffffff168152602001600073ffffffffffffffffffffffffffffffffffffffff168152602001600064ffffffffff168152602001600073ffffffffffffffffffffffffffffffffffffffff168152602001600063ffffffff168152602001600073ffffffffffffffffffffffffffffffffffffffff1681526020016000151581526020016000151581525090565b5b8082111561377257600081600090555060010161375a565b5090565b6000613789613784846140fe565b6140d9565b905080828560208602820111156137a3576137a26142ac565b5b60005b858110156137d357816137b98882613832565b8452602084019350602083019250506001810190506137a6565b5050509392505050565b6000813590506137ec8161440f565b92915050565b600082601f830112613807576138066142a2565b5b600a613814848285613776565b91505092915050565b60008135905061382c81614426565b92915050565b6000813590506138418161443d565b92915050565b6000610120828403121561385e5761385d6142a7565b5b6138696101206140d9565b9050600061387984828501613832565b600083015250602061388d84828501613a34565b60208301525060406138a1848285016137dd565b60408301525060606138b584828501613a49565b60608301525060806138c9848285016137dd565b60808301525060a06138dd84828501613a34565b60a08301525060c06138f1848285016137dd565b60c08301525060e06139058482850161381d565b60e08301525061010061391a8482850161381d565b6101008301525092915050565b6000610260828403121561393e5761393d6142a7565b5b6139496101406140d9565b90506000613959848285016137dd565b600083015250602061396d848285016137dd565b602083015250604061398184828501613a1f565b604083015250606061399584828501613832565b60608301525060806139a984828501613832565b60808301525060a06139bd848285016137f2565b60a0830152506101e06139d284828501613a34565b60c0830152506102006139e78482850161381d565b60e0830152506102206139fc8482850161381d565b61010083015250610240613a128482850161381d565b6101208301525092915050565b600081359050613a2e81614454565b92915050565b600081359050613a438161446b565b92915050565b600081359050613a5881614482565b92915050565b600060208284031215613a7457613a736142b1565b5b6000613a82848285016137dd565b91505092915050565b60008060408385031215613aa257613aa16142b1565b5b6000613ab0858286016137dd565b9250506020613ac185828601613a34565b9150509250929050565b600060208284031215613ae157613ae06142b1565b5b6000613aef84828501613832565b91505092915050565b60006101208284031215613b0f57613b0e6142b1565b5b6000613b1d84828501613847565b91505092915050565b6000806101408385031215613b3e57613b3d6142b1565b5b6000613b4c85828601613847565b925050610120613b5e858286016137dd565b9150509250929050565b60006102608284031215613b7f57613b7e6142b1565b5b6000613b8d84828501613927565b91505092915050565b600060208284031215613bac57613bab6142b1565b5b6000613bba84828501613a49565b91505092915050565b613bcc816141aa565b82525050565b613bdb816141aa565b82525050565b613bea816141bc565b82525050565b613bf9816141bc565b82525050565b613c08816141c8565b82525050565b613c17816141c8565b82525050565b6000613c2a601883614124565b9150613c35826142c7565b602082019050919050565b6000613c4d601783614124565b9150613c58826142f0565b602082019050919050565b6000613c70601183614124565b9150613c7b82614319565b602082019050919050565b6000613c93601283614124565b9150613c9e82614342565b602082019050919050565b6000613cb6601483614124565b9150613cc18261436b565b602082019050919050565b6000613cd9601683614124565b9150613ce482614394565b602082019050919050565b6000613cfc601f83614124565b9150613d07826143bd565b602082019050919050565b6000613d1f601583614124565b9150613d2a826143e6565b602082019050919050565b61012082016000820151613d4c6000850182613bff565b506020820151613d5f6020850182613dfb565b506040820151613d726040850182613bc3565b506060820151613d856060850182613e19565b506080820151613d986080850182613bc3565b5060a0820151613dab60a0850182613dfb565b5060c0820151613dbe60c0850182613bc3565b5060e0820151613dd160e0850182613be1565b50610100820151613de6610100850182613be1565b50505050565b613df5816141d2565b82525050565b613e04816141f2565b82525050565b613e13816141f2565b82525050565b613e2281614202565b82525050565b613e3181614202565b82525050565b6000602082019050613e4c6000830184613bd2565b92915050565b600061012082019050613e68600083018c613bd2565b613e75602083018b613bd2565b613e82604083018a613dec565b613e8f6060830189613c0e565b613e9c6080830188613c0e565b613ea960a0830187613e0a565b613eb660c0830186613bf0565b613ec360e0830185613bf0565b613ed1610100830184613bf0565b9a9950505050505050505050565b6000602082019050613ef46000830184613bf0565b92915050565b600061012082019050613f10600083018c613c0e565b613f1d602083018b613e0a565b613f2a604083018a613bd2565b613f376060830189613e28565b613f446080830188613bd2565b613f5160a0830187613e0a565b613f5e60c0830186613bd2565b613f6b60e0830185613bf0565b613f79610100830184613bf0565b9a9950505050505050505050565b60006020820190508181036000830152613fa081613c1d565b9050919050565b60006020820190508181036000830152613fc081613c40565b9050919050565b60006020820190508181036000830152613fe081613c63565b9050919050565b6000602082019050818103600083015261400081613c86565b9050919050565b6000602082019050818103600083015261402081613ca9565b9050919050565b6000602082019050818103600083015261404081613ccc565b9050919050565b6000602082019050818103600083015261406081613cef565b9050919050565b6000602082019050818103600083015261408081613d12565b9050919050565b60006101208201905061409d6000830184613d35565b92915050565b60006020820190506140b86000830184613e0a565b92915050565b60006020820190506140d36000830184613e28565b92915050565b60006140e36140f4565b90506140ef8282614213565b919050565b6000604051905090565b600067ffffffffffffffff82111561411957614118614273565b5b602082029050919050565b600082825260208201905092915050565b6000614140826141f2565b915061414b836141f2565b92508263ffffffff0382111561416457614163614244565b5b828201905092915050565b600061417a82614202565b915061418583614202565b92508264ffffffffff0382111561419f5761419e614244565b5b828201905092915050565b60006141b5826141d2565b9050919050565b60008115159050919050565b6000819050919050565b600073ffffffffffffffffffffffffffffffffffffffff82169050919050565b600063ffffffff82169050919050565b600064ffffffffff82169050919050565b61421c826142b6565b810181811067ffffffffffffffff8211171561423b5761423a614273565b5b80604052505050565b7f4e487b7100000000000000000000000000000000000000000000000000000000600052601160045260246000fd5b7f4e487b7100000000000000000000000000000000000000000000000000000000600052604160045260246000fd5b600080fd5b600080fd5b600080fd5b600080fd5b6000601f19601f8301169050919050565b7f637573746f6d65722061646472657373206973206e756c6c0000000000000000600082015250565b7f20437573746f6d6572206973206e6f7420657869737473000000000000000000600082015250565b7f74686520676174657220697320796f7572000000000000000000000000000000600082015250565b7f637573746f6d6572206973206578697374730000000000000000000000000000600082015250565b7f7468652067617465722069732065786973746572000000000000000000000000600082015250565b7f637573746f6d6572206973206e6f742065786973747300000000000000000000600082015250565b7f74686520637573746f6d6572207265636f6d6d656e6465722065786973747300600082015250565b7f7468652067617465722069736e6f742065786973740000000000000000000000600082015250565b614418816141aa565b811461442357600080fd5b50565b61442f816141bc565b811461443a57600080fd5b50565b614446816141c8565b811461445157600080fd5b50565b61445d816141d2565b811461446857600080fd5b50565b614474816141f2565b811461447f57600080fd5b50565b61448b81614202565b811461449657600080fd5b5056fea26469706673582212206251914dcfd9de25516e80f8d6eaa028fc6337de5f3c3ee4a8da2f6f3db5945764736f6c63430008070033",
					"opcodes": "PUSH1 0xA0 PUSH1 0x40 MSTORE CALLVALUE DUP1 ISZERO PUSH2 0x10 JUMPI PUSH1 0x0 DUP1 REVERT JUMPDEST POP CALLER PUSH20 0xFFFFFFFFFFFFFFFFFFFFFFFFFFFFFFFFFFFFFFFF AND PUSH1 0x80 DUP2 PUSH20 0xFFFFFFFFFFFFFFFFFFFFFFFFFFFFFFFFFFFFFFFF AND PUSH1 0x60 SHL DUP2 MSTORE POP POP PUSH1 0x80 MLOAD PUSH1 0x60 SHR PUSH2 0x44CF PUSH2 0x74 PUSH1 0x0 CODECOPY PUSH1 0x0 DUP2 DUP2 PUSH2 0xBD4 ADD MSTORE DUP2 DUP2 PUSH2 0xBF8 ADD MSTORE PUSH2 0x20B3 ADD MSTORE PUSH2 0x44CF PUSH1 0x0 RETURN INVALID PUSH1 0x80 PUSH1 0x40 MSTORE CALLVALUE DUP1 ISZERO PUSH2 0x10 JUMPI PUSH1 0x0 DUP1 REVERT JUMPDEST POP PUSH1 0x4 CALLDATASIZE LT PUSH2 0x1FB JUMPI PUSH1 0x0 CALLDATALOAD PUSH1 0xE0 SHR DUP1 PUSH4 0x8A6DF726 GT PUSH2 0x11A JUMPI DUP1 PUSH4 0xD82AFF11 GT PUSH2 0xAD JUMPI DUP1 PUSH4 0xF1C9F40F GT PUSH2 0x7C JUMPI DUP1 PUSH4 0xF1C9F40F EQ PUSH2 0x5FE JUMPI DUP1 PUSH4 0xF3A42537 EQ PUSH2 0x608 JUMPI DUP1 PUSH4 0xF3C86048 EQ PUSH2 0x624 JUMPI DUP1 PUSH4 0xF4274BC5 EQ PUSH2 0x640 JUMPI DUP1 PUSH4 0xFC5F9F18 EQ PUSH2 0x678 JUMPI PUSH2 0x1FB JUMP JUMPDEST DUP1 PUSH4 0xD82AFF11 EQ PUSH2 0x566 JUMPI DUP1 PUSH4 0xD8FEB7FF EQ PUSH2 0x582 JUMPI DUP1 PUSH4 0xE71957B9 EQ PUSH2 0x59E JUMPI DUP1 PUSH4 0xE853F952 EQ PUSH2 0x5CE JUMPI PUSH2 0x1FB JUMP JUMPDEST DUP1 PUSH4 0xB614984D GT PUSH2 0xE9 JUMPI DUP1 PUSH4 0xB614984D EQ PUSH2 0x4CE JUMPI DUP1 PUSH4 0xBC5C6134 EQ PUSH2 0x4EA JUMPI DUP1 PUSH4 0xBE5FDAC8 EQ PUSH2 0x51A JUMPI DUP1 PUSH4 0xCB949E51 EQ PUSH2 0x536 JUMPI PUSH2 0x1FB JUMP JUMPDEST DUP1 PUSH4 0x8A6DF726 EQ PUSH2 0x434 JUMPI DUP1 PUSH4 0xA4786088 EQ PUSH2 0x464 JUMPI DUP1 PUSH4 0xA60832CD EQ PUSH2 0x480 JUMPI DUP1 PUSH4 0xAB3ACB5C EQ PUSH2 0x4B0 JUMPI PUSH2 0x1FB JUMP JUMPDEST DUP1 PUSH4 0x3E95003C GT PUSH2 0x192 JUMPI DUP1 PUSH4 0x753C5188 GT PUSH2 0x161 JUMPI DUP1 PUSH4 0x753C5188 EQ PUSH2 0x388 JUMPI DUP1 PUSH4 0x76941300 EQ PUSH2 0x3B8 JUMPI DUP1 PUSH4 0x78166097 EQ PUSH2 0x3D4 JUMPI DUP1 PUSH4 0x8370AA81 EQ PUSH2 0x404 JUMPI PUSH2 0x1FB JUMP JUMPDEST DUP1 PUSH4 0x3E95003C EQ PUSH2 0x2D4 JUMPI DUP1 PUSH4 0x45DF4987 EQ PUSH2 0x304 JUMPI DUP1 PUSH4 0x5CFEAFA5 EQ PUSH2 0x33C JUMPI DUP1 PUSH4 0x71271F4D EQ PUSH2 0x36C JUMPI PUSH2 0x1FB JUMP JUMPDEST DUP1 PUSH4 0x2B890543 GT PUSH2 0x1CE JUMPI DUP1 PUSH4 0x2B890543 EQ PUSH2 0x274 JUMPI DUP1 PUSH4 0x367B6DCC EQ PUSH2 0x290 JUMPI DUP1 PUSH4 0x3B63B647 EQ PUSH2 0x2AE JUMPI DUP1 PUSH4 0x3BBAE141 EQ PUSH2 0x2CA JUMPI PUSH2 0x1FB JUMP JUMPDEST DUP1 PUSH4 0x138A661 EQ PUSH2 0x200 JUMPI DUP1 PUSH4 0x1487F252 EQ PUSH2 0x21C JUMPI DUP1 PUSH4 0x14F9E554 EQ PUSH2 0x23A JUMPI DUP1 PUSH4 0x27CBAABE EQ PUSH2 0x256 JUMPI JUMPDEST PUSH1 0x0 DUP1 REVERT JUMPDEST PUSH2 0x21A PUSH1 0x4 DUP1 CALLDATASIZE SUB DUP2 ADD SWAP1 PUSH2 0x215 SWAP2 SWAP1 PUSH2 0x3A5E JUMP JUMPDEST PUSH2 0x694 JUMP JUMPDEST STOP JUMPDEST PUSH2 0x224 PUSH2 0x7E5 JUMP JUMPDEST PUSH1 0x40 MLOAD PUSH2 0x231 SWAP2 SWAP1 PUSH2 0x3EDF JUMP JUMPDEST PUSH1 0x40 MLOAD DUP1 SWAP2 SUB SWAP1 RETURN JUMPDEST PUSH2 0x254 PUSH1 0x4 DUP1 CALLDATASIZE SUB DUP2 ADD SWAP1 PUSH2 0x24F SWAP2 SWAP1 PUSH2 0x3AF8 JUMP JUMPDEST PUSH2 0x838 JUMP JUMPDEST STOP JUMPDEST PUSH2 0x25E PUSH2 0xBD2 JUMP JUMPDEST PUSH1 0x40 MLOAD PUSH2 0x26B SWAP2 SWAP1 PUSH2 0x3E37 JUMP JUMPDEST PUSH1 0x40 MLOAD DUP1 SWAP2 SUB SWAP1 RETURN JUMPDEST PUSH2 0x28E PUSH1 0x4 DUP1 CALLDATASIZE SUB DUP2 ADD SWAP1 PUSH2 0x289 SWAP2 SWAP1 PUSH2 0x3A5E JUMP JUMPDEST PUSH2 0xBF6 JUMP JUMPDEST STOP JUMPDEST PUSH2 0x298 PUSH2 0xC9F JUMP JUMPDEST PUSH1 0x40 MLOAD PUSH2 0x2A5 SWAP2 SWAP1 PUSH2 0x40BE JUMP JUMPDEST PUSH1 0x40 MLOAD DUP1 SWAP2 SUB SWAP1 RETURN JUMPDEST PUSH2 0x2C8 PUSH1 0x4 DUP1 CALLDATASIZE SUB DUP2 ADD SWAP1 PUSH2 0x2C3 SWAP2 SWAP1 PUSH2 0x3ACB JUMP JUMPDEST PUSH2 0xCB6 JUMP JUMPDEST STOP JUMPDEST PUSH2 0x2D2 PUSH2 0xE32 JUMP JUMPDEST STOP JUMPDEST PUSH2 0x2EE PUSH1 0x4 DUP1 CALLDATASIZE SUB DUP2 ADD SWAP1 PUSH2 0x2E9 SWAP2 SWAP1 PUSH2 0x3B96 JUMP JUMPDEST PUSH2 0x101D JUMP JUMPDEST PUSH1 0x40 MLOAD PUSH2 0x2FB SWAP2 SWAP1 PUSH2 0x3E37 JUMP JUMPDEST PUSH1 0x40 MLOAD DUP1 SWAP2 SUB SWAP1 RETURN JUMPDEST PUSH2 0x31E PUSH1 0x4 DUP1 CALLDATASIZE SUB DUP2 ADD SWAP1 PUSH2 0x319 SWAP2 SWAP1 PUSH2 0x3A5E JUMP JUMPDEST PUSH2 0x1050 JUMP JUMPDEST PUSH1 0x40 MLOAD PUSH2 0x333 SWAP10 SWAP9 SWAP8 SWAP7 SWAP6 SWAP5 SWAP4 SWAP3 SWAP2 SWAP1 PUSH2 0x3E52 JUMP JUMPDEST PUSH1 0x40 MLOAD DUP1 SWAP2 SUB SWAP1 RETURN JUMPDEST PUSH2 0x356 PUSH1 0x4 DUP1 CALLDATASIZE SUB DUP2 ADD SWAP1 PUSH2 0x351 SWAP2 SWAP1 PUSH2 0x3A8B JUMP JUMPDEST PUSH2 0x1135 JUMP JUMPDEST PUSH1 0x40 MLOAD PUSH2 0x363 SWAP2 SWAP1 PUSH2 0x3E37 JUMP JUMPDEST PUSH1 0x40 MLOAD DUP1 SWAP2 SUB SWAP1 RETURN JUMPDEST PUSH2 0x386 PUSH1 0x4 DUP1 CALLDATASIZE SUB DUP2 ADD SWAP1 PUSH2 0x381 SWAP2 SWAP1 PUSH2 0x3B68 JUMP JUMPDEST PUSH2 0x1177 JUMP JUMPDEST STOP JUMPDEST PUSH2 0x3A2 PUSH1 0x4 DUP1 CALLDATASIZE SUB DUP2 ADD SWAP1 PUSH2 0x39D SWAP2 SWAP1 PUSH2 0x3A5E JUMP JUMPDEST PUSH2 0x1508 JUMP JUMPDEST PUSH1 0x40 MLOAD PUSH2 0x3AF SWAP2 SWAP1 PUSH2 0x3EDF JUMP JUMPDEST PUSH1 0x40 MLOAD DUP1 SWAP2 SUB SWAP1 RETURN JUMPDEST PUSH2 0x3D2 PUSH1 0x4 DUP1 CALLDATASIZE SUB DUP2 ADD SWAP1 PUSH2 0x3CD SWAP2 SWAP1 PUSH2 0x3A5E JUMP JUMPDEST PUSH2 0x1528 JUMP JUMPDEST STOP JUMPDEST PUSH2 0x3EE PUSH1 0x4 DUP1 CALLDATASIZE SUB DUP2 ADD SWAP1 PUSH2 0x3E9 SWAP2 SWAP1 PUSH2 0x3A5E JUMP JUMPDEST PUSH2 0x1678 JUMP JUMPDEST PUSH1 0x40 MLOAD PUSH2 0x3FB SWAP2 SWAP1 PUSH2 0x3EDF JUMP JUMPDEST PUSH1 0x40 MLOAD DUP1 SWAP2 SUB SWAP1 RETURN JUMPDEST PUSH2 0x41E PUSH1 0x4 DUP1 CALLDATASIZE SUB DUP2 ADD SWAP1 PUSH2 0x419 SWAP2 SWAP1 PUSH2 0x3A8B JUMP JUMPDEST PUSH2 0x16D1 JUMP JUMPDEST PUSH1 0x40 MLOAD PUSH2 0x42B SWAP2 SWAP1 PUSH2 0x3E37 JUMP JUMPDEST PUSH1 0x40 MLOAD DUP1 SWAP2 SUB SWAP1 RETURN JUMPDEST PUSH2 0x44E PUSH1 0x4 DUP1 CALLDATASIZE SUB DUP2 ADD SWAP1 PUSH2 0x449 SWAP2 SWAP1 PUSH2 0x3A5E JUMP JUMPDEST PUSH2 0x17C7 JUMP JUMPDEST PUSH1 0x40 MLOAD PUSH2 0x45B SWAP2 SWAP1 PUSH2 0x40A3 JUMP JUMPDEST PUSH1 0x40 MLOAD DUP1 SWAP2 SUB SWAP1 RETURN JUMPDEST PUSH2 0x47E PUSH1 0x4 DUP1 CALLDATASIZE SUB DUP2 ADD SWAP1 PUSH2 0x479 SWAP2 SWAP1 PUSH2 0x3A5E JUMP JUMPDEST PUSH2 0x188F JUMP JUMPDEST STOP JUMPDEST PUSH2 0x49A PUSH1 0x4 DUP1 CALLDATASIZE SUB DUP2 ADD SWAP1 PUSH2 0x495 SWAP2 SWAP1 PUSH2 0x3A8B JUMP JUMPDEST PUSH2 0x19DE JUMP JUMPDEST PUSH1 0x40 MLOAD PUSH2 0x4A7 SWAP2 SWAP1 PUSH2 0x3E37 JUMP JUMPDEST PUSH1 0x40 MLOAD DUP1 SWAP2 SUB SWAP1 RETURN JUMPDEST PUSH2 0x4B8 PUSH2 0x1A20 JUMP JUMPDEST PUSH1 0x40 MLOAD PUSH2 0x4C5 SWAP2 SWAP1 PUSH2 0x3EDF JUMP JUMPDEST PUSH1 0x40 MLOAD DUP1 SWAP2 SUB SWAP1 RETURN JUMPDEST PUSH2 0x4E8 PUSH1 0x4 DUP1 CALLDATASIZE SUB DUP2 ADD SWAP1 PUSH2 0x4E3 SWAP2 SWAP1 PUSH2 0x3A5E JUMP JUMPDEST PUSH2 0x1A77 JUMP JUMPDEST STOP JUMPDEST PUSH2 0x504 PUSH1 0x4 DUP1 CALLDATASIZE SUB DUP2 ADD SWAP1 PUSH2 0x4FF SWAP2 SWAP1 PUSH2 0x3A5E JUMP JUMPDEST PUSH2 0x1C96 JUMP JUMPDEST PUSH1 0x40 MLOAD PUSH2 0x511 SWAP2 SWAP1 PUSH2 0x40A3 JUMP JUMPDEST PUSH1 0x40 MLOAD DUP1 SWAP2 SUB SWAP1 RETURN JUMPDEST PUSH2 0x534 PUSH1 0x4 DUP1 CALLDATASIZE SUB DUP2 ADD SWAP1 PUSH2 0x52F SWAP2 SWAP1 PUSH2 0x3A5E JUMP JUMPDEST PUSH2 0x1CB9 JUMP JUMPDEST STOP JUMPDEST PUSH2 0x550 PUSH1 0x4 DUP1 CALLDATASIZE SUB DUP2 ADD SWAP1 PUSH2 0x54B SWAP2 SWAP1 PUSH2 0x3A5E JUMP JUMPDEST PUSH2 0x1E0A JUMP JUMPDEST PUSH1 0x40 MLOAD PUSH2 0x55D SWAP2 SWAP1 PUSH2 0x4087 JUMP JUMPDEST PUSH1 0x40 MLOAD DUP1 SWAP2 SUB SWAP1 RETURN JUMPDEST PUSH2 0x580 PUSH1 0x4 DUP1 CALLDATASIZE SUB DUP2 ADD SWAP1 PUSH2 0x57B SWAP2 SWAP1 PUSH2 0x3A5E JUMP JUMPDEST PUSH2 0x20B1 JUMP JUMPDEST STOP JUMPDEST PUSH2 0x59C PUSH1 0x4 DUP1 CALLDATASIZE SUB DUP2 ADD SWAP1 PUSH2 0x597 SWAP2 SWAP1 PUSH2 0x3B68 JUMP JUMPDEST PUSH2 0x2163 JUMP JUMPDEST STOP JUMPDEST PUSH2 0x5B8 PUSH1 0x4 DUP1 CALLDATASIZE SUB DUP2 ADD SWAP1 PUSH2 0x5B3 SWAP2 SWAP1 PUSH2 0x3A5E JUMP JUMPDEST PUSH2 0x2467 JUMP JUMPDEST PUSH1 0x40 MLOAD PUSH2 0x5C5 SWAP2 SWAP1 PUSH2 0x3E37 JUMP JUMPDEST PUSH1 0x40 MLOAD DUP1 SWAP2 SUB SWAP1 RETURN JUMPDEST PUSH2 0x5E8 PUSH1 0x4 DUP1 CALLDATASIZE SUB DUP2 ADD SWAP1 PUSH2 0x5E3 SWAP2 SWAP1 PUSH2 0x3A5E JUMP JUMPDEST PUSH2 0x2569 JUMP JUMPDEST PUSH1 0x40 MLOAD PUSH2 0x5F5 SWAP2 SWAP1 PUSH2 0x40A3 JUMP JUMPDEST PUSH1 0x40 MLOAD DUP1 SWAP2 SUB SWAP1 RETURN JUMPDEST PUSH2 0x606 PUSH2 0x258C JUMP JUMPDEST STOP JUMPDEST PUSH2 0x622 PUSH1 0x4 DUP1 CALLDATASIZE SUB DUP2 ADD SWAP1 PUSH2 0x61D SWAP2 SWAP1 PUSH2 0x3B68 JUMP JUMPDEST PUSH2 0x2778 JUMP JUMPDEST STOP JUMPDEST PUSH2 0x63E PUSH1 0x4 DUP1 CALLDATASIZE SUB DUP2 ADD SWAP1 PUSH2 0x639 SWAP2 SWAP1 PUSH2 0x3B96 JUMP JUMPDEST PUSH2 0x2B3D JUMP JUMPDEST STOP JUMPDEST PUSH2 0x65A PUSH1 0x4 DUP1 CALLDATASIZE SUB DUP2 ADD SWAP1 PUSH2 0x655 SWAP2 SWAP1 PUSH2 0x3A5E JUMP JUMPDEST PUSH2 0x2F02 JUMP JUMPDEST PUSH1 0x40 MLOAD PUSH2 0x66F SWAP10 SWAP9 SWAP8 SWAP7 SWAP6 SWAP5 SWAP4 SWAP3 SWAP2 SWAP1 PUSH2 0x3EFA JUMP JUMPDEST PUSH1 0x40 MLOAD DUP1 SWAP2 SUB SWAP1 RETURN JUMPDEST PUSH2 0x692 PUSH1 0x4 DUP1 CALLDATASIZE SUB DUP2 ADD SWAP1 PUSH2 0x68D SWAP2 SWAP1 PUSH2 0x3B26 JUMP JUMPDEST PUSH2 0x2FFB JUMP JUMPDEST STOP JUMPDEST PUSH1 0x1 ISZERO ISZERO PUSH1 0x0 DUP1 CALLER PUSH20 0xFFFFFFFFFFFFFFFFFFFFFFFFFFFFFFFFFFFFFFFF AND PUSH20 0xFFFFFFFFFFFFFFFFFFFFFFFFFFFFFFFFFFFFFFFF AND DUP2 MSTORE PUSH1 0x20 ADD SWAP1 DUP2 MSTORE PUSH1 0x20 ADD PUSH1 0x0 KECCAK256 PUSH1 0x0 SWAP1 SLOAD SWAP1 PUSH2 0x100 EXP SWAP1 DIV PUSH1 0xFF AND ISZERO ISZERO EQ PUSH2 0x6F0 JUMPI PUSH1 0x0 DUP1 REVERT JUMPDEST PUSH1 0x1 ISZERO ISZERO PUSH1 0x2 PUSH1 0x0 DUP4 PUSH20 0xFFFFFFFFFFFFFFFFFFFFFFFFFFFFFFFFFFFFFFFF AND PUSH20 0xFFFFFFFFFFFFFFFFFFFFFFFFFFFFFFFFFFFFFFFF AND DUP2 MSTORE PUSH1 0x20 ADD SWAP1 DUP2 MSTORE PUSH1 0x20 ADD PUSH1 0x0 KECCAK256 PUSH1 0x3 ADD PUSH1 0x14 SWAP1 SLOAD SWAP1 PUSH2 0x100 EXP SWAP1 DIV PUSH1 0xFF AND ISZERO ISZERO EQ ISZERO PUSH2 0x787 JUMPI PUSH1 0x40 MLOAD PUSH32 0x8C379A000000000000000000000000000000000000000000000000000000000 DUP2 MSTORE PUSH1 0x4 ADD PUSH2 0x77E SWAP1 PUSH2 0x4027 JUMP JUMPDEST PUSH1 0x40 MLOAD DUP1 SWAP2 SUB SWAP1 REVERT JUMPDEST PUSH1 0x0 PUSH1 0x2 PUSH1 0x0 DUP4 PUSH20 0xFFFFFFFFFFFFFFFFFFFFFFFFFFFFFFFFFFFFFFFF AND PUSH20 0xFFFFFFFFFFFFFFFFFFFFFFFFFFFFFFFFFFFFFFFF AND DUP2 MSTORE PUSH1 0x20 ADD SWAP1 DUP2 MSTORE PUSH1 0x20 ADD PUSH1 0x0 KECCAK256 PUSH1 0x3 ADD PUSH1 0x15 PUSH2 0x100 EXP DUP2 SLOAD DUP2 PUSH1 0xFF MUL NOT AND SWAP1 DUP4 ISZERO ISZERO MUL OR SWAP1 SSTORE POP POP JUMP JUMPDEST PUSH1 0x0 DUP1 PUSH1 0x0 CALLER PUSH20 0xFFFFFFFFFFFFFFFFFFFFFFFFFFFFFFFFFFFFFFFF AND PUSH20 0xFFFFFFFFFFFFFFFFFFFFFFFFFFFFFFFFFFFFFFFF AND DUP2 MSTORE PUSH1 0x20 ADD SWAP1 DUP2 MSTORE PUSH1 0x20 ADD PUSH1 0x0 KECCAK256 PUSH1 0x0 SWAP1 SLOAD SWAP1 PUSH2 0x100 EXP SWAP1 DIV PUSH1 0xFF AND SWAP1 POP SWAP1 JUMP JUMPDEST PUSH1 0x1 ISZERO ISZERO PUSH1 0x2 PUSH1 0x0 DUP4 PUSH1 0xC0 ADD MLOAD PUSH20 0xFFFFFFFFFFFFFFFFFFFFFFFFFFFFFFFFFFFFFFFF AND PUSH20 0xFFFFFFFFFFFFFFFFFFFFFFFFFFFFFFFFFFFFFFFF AND DUP2 MSTORE PUSH1 0x20 ADD SWAP1 DUP2 MSTORE PUSH1 0x20 ADD PUSH1 0x0 KECCAK256 PUSH1 0x3 ADD PUSH1 0x14 SWAP1 SLOAD SWAP1 PUSH2 0x100 EXP SWAP1 DIV PUSH1 0xFF AND ISZERO ISZERO EQ ISZERO DUP1 ISZERO PUSH2 0x8CF JUMPI POP CALLER PUSH20 0xFFFFFFFFFFFFFFFFFFFFFFFFFFFFFFFFFFFFFFFF AND DUP2 PUSH1 0xC0 ADD MLOAD PUSH20 0xFFFFFFFFFFFFFFFFFFFFFFFFFFFFFFFFFFFFFFFF AND EQ JUMPDEST PUSH2 0x90E JUMPI PUSH1 0x40 MLOAD PUSH32 0x8C379A000000000000000000000000000000000000000000000000000000000 DUP2 MSTORE PUSH1 0x4 ADD PUSH2 0x905 SWAP1 PUSH2 0x3FE7 JUMP JUMPDEST PUSH1 0x40 MLOAD DUP1 SWAP2 SUB SWAP1 REVERT JUMPDEST PUSH1 0x1 PUSH1 0x4 PUSH1 0x0 DUP3 DUP3 DUP3 SWAP1 SLOAD SWAP1 PUSH2 0x100 EXP SWAP1 DIV PUSH5 0xFFFFFFFFFF AND PUSH2 0x931 SWAP2 SWAP1 PUSH2 0x416F JUMP JUMPDEST SWAP3 POP PUSH2 0x100 EXP DUP2 SLOAD DUP2 PUSH5 0xFFFFFFFFFF MUL NOT AND SWAP1 DUP4 PUSH5 0xFFFFFFFFFF AND MUL OR SWAP1 SSTORE POP CALLER PUSH1 0x3 PUSH1 0x0 PUSH1 0x4 PUSH1 0x0 SWAP1 SLOAD SWAP1 PUSH2 0x100 EXP SWAP1 DIV PUSH5 0xFFFFFFFFFF AND PUSH5 0xFFFFFFFFFF AND PUSH5 0xFFFFFFFFFF AND DUP2 MSTORE PUSH1 0x20 ADD SWAP1 DUP2 MSTORE PUSH1 0x20 ADD PUSH1 0x0 KECCAK256 PUSH1 0x0 PUSH2 0x100 EXP DUP2 SLOAD DUP2 PUSH20 0xFFFFFFFFFFFFFFFFFFFFFFFFFFFFFFFFFFFFFFFF MUL NOT AND SWAP1 DUP4 PUSH20 0xFFFFFFFFFFFFFFFFFFFFFFFFFFFFFFFFFFFFFFFF AND MUL OR SWAP1 SSTORE POP PUSH1 0x4 PUSH1 0x0 SWAP1 SLOAD SWAP1 PUSH2 0x100 EXP SWAP1 DIV PUSH5 0xFFFFFFFFFF AND DUP2 PUSH1 0x60 ADD SWAP1 PUSH5 0xFFFFFFFFFF AND SWAP1 DUP2 PUSH5 0xFFFFFFFFFF AND DUP2 MSTORE POP POP DUP1 PUSH1 0x2 PUSH1 0x0 DUP4 PUSH1 0xC0 ADD MLOAD PUSH20 0xFFFFFFFFFFFFFFFFFFFFFFFFFFFFFFFFFFFFFFFF AND PUSH20 0xFFFFFFFFFFFFFFFFFFFFFFFFFFFFFFFFFFFFFFFF AND DUP2 MSTORE PUSH1 0x20 ADD SWAP1 DUP2 MSTORE PUSH1 0x20 ADD PUSH1 0x0 KECCAK256 PUSH1 0x0 DUP3 ADD MLOAD DUP2 PUSH1 0x0 ADD SSTORE PUSH1 0x20 DUP3 ADD MLOAD DUP2 PUSH1 0x1 ADD PUSH1 0x0 PUSH2 0x100 EXP DUP2 SLOAD DUP2 PUSH4 0xFFFFFFFF MUL NOT AND SWAP1 DUP4 PUSH4 0xFFFFFFFF AND MUL OR SWAP1 SSTORE POP PUSH1 0x40 DUP3 ADD MLOAD DUP2 PUSH1 0x1 ADD PUSH1 0x4 PUSH2 0x100 EXP DUP2 SLOAD DUP2 PUSH20 0xFFFFFFFFFFFFFFFFFFFFFFFFFFFFFFFFFFFFFFFF MUL NOT AND SWAP1 DUP4 PUSH20 0xFFFFFFFFFFFFFFFFFFFFFFFFFFFFFFFFFFFFFFFF AND MUL OR SWAP1 SSTORE POP PUSH1 0x60 DUP3 ADD MLOAD DUP2 PUSH1 0x1 ADD PUSH1 0x18 PUSH2 0x100 EXP DUP2 SLOAD DUP2 PUSH5 0xFFFFFFFFFF MUL NOT AND SWAP1 DUP4 PUSH5 0xFFFFFFFFFF AND MUL OR SWAP1 SSTORE POP PUSH1 0x80 DUP3 ADD MLOAD DUP2 PUSH1 0x2 ADD PUSH1 0x0 PUSH2 0x100 EXP DUP2 SLOAD DUP2 PUSH20 0xFFFFFFFFFFFFFFFFFFFFFFFFFFFFFFFFFFFFFFFF MUL NOT AND SWAP1 DUP4 PUSH20 0xFFFFFFFFFFFFFFFFFFFFFFFFFFFFFFFFFFFFFFFF AND MUL OR SWAP1 SSTORE POP PUSH1 0xA0 DUP3 ADD MLOAD DUP2 PUSH1 0x2 ADD PUSH1 0x14 PUSH2 0x100 EXP DUP2 SLOAD DUP2 PUSH4 0xFFFFFFFF MUL NOT AND SWAP1 DUP4 PUSH4 0xFFFFFFFF AND MUL OR SWAP1 SSTORE POP PUSH1 0xC0 DUP3 ADD MLOAD DUP2 PUSH1 0x3 ADD PUSH1 0x0 PUSH2 0x100 EXP DUP2 SLOAD DUP2 PUSH20 0xFFFFFFFFFFFFFFFFFFFFFFFFFFFFFFFFFFFFFFFF MUL NOT AND SWAP1 DUP4 PUSH20 0xFFFFFFFFFFFFFFFFFFFFFFFFFFFFFFFFFFFFFFFF AND MUL OR SWAP1 SSTORE POP PUSH1 0xE0 DUP3 ADD MLOAD DUP2 PUSH1 0x3 ADD PUSH1 0x14 PUSH2 0x100 EXP DUP2 SLOAD DUP2 PUSH1 0xFF MUL NOT AND SWAP1 DUP4 ISZERO ISZERO MUL OR SWAP1 SSTORE POP PUSH2 0x100 DUP3 ADD MLOAD DUP2 PUSH1 0x3 ADD PUSH1 0x15 PUSH2 0x100 EXP DUP2 SLOAD DUP2 PUSH1 0xFF MUL NOT AND SWAP1 DUP4 ISZERO ISZERO MUL OR SWAP1 SSTORE POP SWAP1 POP POP POP JUMP JUMPDEST PUSH32 0x0 DUP2 JUMP JUMPDEST PUSH32 0x0 PUSH20 0xFFFFFFFFFFFFFFFFFFFFFFFFFFFFFFFFFFFFFFFF AND CALLER PUSH20 0xFFFFFFFFFFFFFFFFFFFFFFFFFFFFFFFFFFFFFFFF AND EQ PUSH2 0xC4E JUMPI PUSH1 0x0 DUP1 REVERT JUMPDEST PUSH1 0x0 DUP1 DUP3 PUSH20 0xFFFFFFFFFFFFFFFFFFFFFFFFFFFFFFFFFFFFFFFF AND PUSH20 0xFFFFFFFFFFFFFFFFFFFFFFFFFFFFFFFFFFFFFFFF AND DUP2 MSTORE PUSH1 0x20 ADD SWAP1 DUP2 MSTORE PUSH1 0x20 ADD PUSH1 0x0 KECCAK256 PUSH1 0x0 PUSH2 0x100 EXP DUP2 SLOAD SWAP1 PUSH1 0xFF MUL NOT AND SWAP1 SSTORE POP JUMP JUMPDEST PUSH1 0x4 PUSH1 0x0 SWAP1 SLOAD SWAP1 PUSH2 0x100 EXP SWAP1 DIV PUSH5 0xFFFFFFFFFF AND DUP2 JUMP JUMPDEST PUSH1 0x1 DUP1 ISZERO PUSH2 0xD51 JUMPI POP CALLER PUSH20 0xFFFFFFFFFFFFFFFFFFFFFFFFFFFFFFFFFFFFFFFF AND PUSH1 0x2 PUSH1 0x0 CALLER PUSH20 0xFFFFFFFFFFFFFFFFFFFFFFFFFFFFFFFFFFFFFFFF AND PUSH20 0xFFFFFFFFFFFFFFFFFFFFFFFFFFFFFFFFFFFFFFFF AND DUP2 MSTORE PUSH1 0x20 ADD SWAP1 DUP2 MSTORE PUSH1 0x20 ADD PUSH1 0x0 KECCAK256 PUSH1 0x3 ADD PUSH1 0x0 SWAP1 SLOAD SWAP1 PUSH2 0x100 EXP SWAP1 DIV PUSH20 0xFFFFFFFFFFFFFFFFFFFFFFFFFFFFFFFFFFFFFFFF AND PUSH20 0xFFFFFFFFFFFFFFFFFFFFFFFFFFFFFFFFFFFFFFFF AND EQ JUMPDEST PUSH1 0x2 PUSH1 0x0 CALLER PUSH20 0xFFFFFFFFFFFFFFFFFFFFFFFFFFFFFFFFFFFFFFFF AND PUSH20 0xFFFFFFFFFFFFFFFFFFFFFFFFFFFFFFFFFFFFFFFF AND DUP2 MSTORE PUSH1 0x20 ADD SWAP1 DUP2 MSTORE PUSH1 0x20 ADD PUSH1 0x0 KECCAK256 PUSH1 0x3 ADD PUSH1 0x14 PUSH2 0x100 EXP DUP2 SLOAD DUP2 PUSH1 0xFF MUL NOT AND SWAP1 DUP4 ISZERO ISZERO MUL OR SWAP1 SSTORE PUSH2 0xDE8 JUMPI PUSH1 0x40 MLOAD PUSH32 0x8C379A000000000000000000000000000000000000000000000000000000000 DUP2 MSTORE PUSH1 0x4 ADD PUSH2 0xDDF SWAP1 PUSH2 0x4027 JUMP JUMPDEST PUSH1 0x40 MLOAD DUP1 SWAP2 SUB SWAP1 REVERT JUMPDEST DUP1 PUSH1 0x2 PUSH1 0x0 CALLER PUSH20 0xFFFFFFFFFFFFFFFFFFFFFFFFFFFFFFFFFFFFFFFF AND PUSH20 0xFFFFFFFFFFFFFFFFFFFFFFFFFFFFFFFFFFFFFFFF AND DUP2 MSTORE PUSH1 0x20 ADD SWAP1 DUP2 MSTORE PUSH1 0x20 ADD PUSH1 0x0 KECCAK256 PUSH1 0x0 ADD DUP2 SWAP1 SSTORE POP POP JUMP JUMPDEST PUSH1 0x1 ISZERO ISZERO PUSH1 0x1 PUSH1 0x0 CALLER PUSH20 0xFFFFFFFFFFFFFFFFFFFFFFFFFFFFFFFFFFFFFFFF AND PUSH20 0xFFFFFFFFFFFFFFFFFFFFFFFFFFFFFFFFFFFFFFFF AND DUP2 MSTORE PUSH1 0x20 ADD SWAP1 DUP2 MSTORE PUSH1 0x20 ADD PUSH1 0x0 KECCAK256 PUSH1 0xF ADD PUSH1 0x4 SWAP1 SLOAD SWAP1 PUSH2 0x100 EXP SWAP1 DIV PUSH1 0xFF AND ISZERO ISZERO EQ PUSH2 0xE92 JUMPI PUSH1 0x0 DUP1 REVERT JUMPDEST PUSH1 0x1 ISZERO ISZERO PUSH1 0x1 PUSH1 0x0 CALLER PUSH20 0xFFFFFFFFFFFFFFFFFFFFFFFFFFFFFFFFFFFFFFFF AND PUSH20 0xFFFFFFFFFFFFFFFFFFFFFFFFFFFFFFFFFFFFFFFF AND DUP2 MSTORE PUSH1 0x20 ADD SWAP1 DUP2 MSTORE PUSH1 0x20 ADD PUSH1 0x0 KECCAK256 PUSH1 0xF ADD PUSH1 0x6 SWAP1 SLOAD SWAP1 PUSH2 0x100 EXP SWAP1 DIV PUSH1 0xFF AND ISZERO ISZERO EQ DUP1 ISZERO PUSH2 0xF82 JUMPI POP CALLER PUSH20 0xFFFFFFFFFFFFFFFFFFFFFFFFFFFFFFFFFFFFFFFF AND PUSH1 0x1 PUSH1 0x0 CALLER PUSH20 0xFFFFFFFFFFFFFFFFFFFFFFFFFFFFFFFFFFFFFFFF AND PUSH20 0xFFFFFFFFFFFFFFFFFFFFFFFFFFFFFFFFFFFFFFFF AND DUP2 MSTORE PUSH1 0x20 ADD SWAP1 DUP2 MSTORE PUSH1 0x20 ADD PUSH1 0x0 KECCAK256 PUSH1 0x1 ADD PUSH1 0x0 SWAP1 SLOAD SWAP1 PUSH2 0x100 EXP SWAP1 DIV PUSH20 0xFFFFFFFFFFFFFFFFFFFFFFFFFFFFFFFFFFFFFFFF AND PUSH20 0xFFFFFFFFFFFFFFFFFFFFFFFFFFFFFFFFFFFFFFFF AND EQ JUMPDEST PUSH2 0xFC1 JUMPI PUSH1 0x40 MLOAD PUSH32 0x8C379A000000000000000000000000000000000000000000000000000000000 DUP2 MSTORE PUSH1 0x4 ADD PUSH2 0xFB8 SWAP1 PUSH2 0x4067 JUMP JUMPDEST PUSH1 0x40 MLOAD DUP1 SWAP2 SUB SWAP1 REVERT JUMPDEST PUSH1 0x1 DUP1 PUSH1 0x0 CALLER PUSH20 0xFFFFFFFFFFFFFFFFFFFFFFFFFFFFFFFFFFFFFFFF AND PUSH20 0xFFFFFFFFFFFFFFFFFFFFFFFFFFFFFFFFFFFFFFFF AND DUP2 MSTORE PUSH1 0x20 ADD SWAP1 DUP2 MSTORE PUSH1 0x20 ADD PUSH1 0x0 KECCAK256 PUSH1 0xF ADD PUSH1 0x5 PUSH2 0x100 EXP DUP2 SLOAD DUP2 PUSH1 0xFF MUL NOT AND SWAP1 DUP4 ISZERO ISZERO MUL OR SWAP1 SSTORE POP JUMP JUMPDEST PUSH1 0x3 PUSH1 0x20 MSTORE DUP1 PUSH1 0x0 MSTORE PUSH1 0x40 PUSH1 0x0 KECCAK256 PUSH1 0x0 SWAP2 POP SLOAD SWAP1 PUSH2 0x100 EXP SWAP1 DIV PUSH20 0xFFFFFFFFFFFFFFFFFFFFFFFFFFFFFFFFFFFFFFFF AND DUP2 JUMP JUMPDEST PUSH1 0x1 PUSH1 0x20 MSTORE DUP1 PUSH1 0x0 MSTORE PUSH1 0x40 PUSH1 0x0 KECCAK256 PUSH1 0x0 SWAP2 POP SWAP1 POP DUP1 PUSH1 0x0 ADD PUSH1 0x0 SWAP1 SLOAD SWAP1 PUSH2 0x100 EXP SWAP1 DIV PUSH20 0xFFFFFFFFFFFFFFFFFFFFFFFFFFFFFFFFFFFFFFFF AND SWAP1 DUP1 PUSH1 0x1 ADD PUSH1 0x0 SWAP1 SLOAD SWAP1 PUSH2 0x100 EXP SWAP1 DIV PUSH20 0xFFFFFFFFFFFFFFFFFFFFFFFFFFFFFFFFFFFFFFFF AND SWAP1 DUP1 PUSH1 0x2 ADD PUSH1 0x0 SWAP1 SLOAD SWAP1 PUSH2 0x100 EXP SWAP1 DIV PUSH20 0xFFFFFFFFFFFFFFFFFFFFFFFFFFFFFFFFFFFFFFFF AND SWAP1 DUP1 PUSH1 0x3 ADD SLOAD SWAP1 DUP1 PUSH1 0x4 ADD SLOAD SWAP1 DUP1 PUSH1 0xF ADD PUSH1 0x0 SWAP1 SLOAD SWAP1 PUSH2 0x100 EXP SWAP1 DIV PUSH4 0xFFFFFFFF AND SWAP1 DUP1 PUSH1 0xF ADD PUSH1 0x4 SWAP1 SLOAD SWAP1 PUSH2 0x100 EXP SWAP1 DIV PUSH1 0xFF AND SWAP1 DUP1 PUSH1 0xF ADD PUSH1 0x5 SWAP1 SLOAD SWAP1 PUSH2 0x100 EXP SWAP1 DIV PUSH1 0xFF AND SWAP1 DUP1 PUSH1 0xF ADD PUSH1 0x6 SWAP1 SLOAD SWAP1 PUSH2 0x100 EXP SWAP1 DIV PUSH1 0xFF AND SWAP1 POP DUP10 JUMP JUMPDEST PUSH1 0x8 PUSH1 0x20 MSTORE DUP2 PUSH1 0x0 MSTORE PUSH1 0x40 PUSH1 0x0 KECCAK256 PUSH1 0x20 MSTORE DUP1 PUSH1 0x0 MSTORE PUSH1 0x40 PUSH1 0x0 KECCAK256 PUSH1 0x0 SWAP2 POP SWAP2 POP SWAP1 SLOAD SWAP1 PUSH2 0x100 EXP SWAP1 DIV PUSH20 0xFFFFFFFFFFFFFFFFFFFFFFFFFFFFFFFFFFFFFFFF AND DUP2 JUMP JUMPDEST PUSH1 0x1 ISZERO ISZERO PUSH1 0x0 DUP1 CALLER PUSH20 0xFFFFFFFFFFFFFFFFFFFFFFFFFFFFFFFFFFFFFFFF AND PUSH20 0xFFFFFFFFFFFFFFFFFFFFFFFFFFFFFFFFFFFFFFFF AND DUP2 MSTORE PUSH1 0x20 ADD SWAP1 DUP2 MSTORE PUSH1 0x20 ADD PUSH1 0x0 KECCAK256 PUSH1 0x0 SWAP1 SLOAD SWAP1 PUSH2 0x100 EXP SWAP1 DIV PUSH1 0xFF AND ISZERO ISZERO EQ PUSH2 0x11D3 JUMPI PUSH1 0x0 DUP1 REVERT JUMPDEST PUSH1 0x1 ISZERO ISZERO PUSH1 0x1 PUSH1 0x0 DUP4 PUSH1 0x20 ADD MLOAD PUSH20 0xFFFFFFFFFFFFFFFFFFFFFFFFFFFFFFFFFFFFFFFF AND PUSH20 0xFFFFFFFFFFFFFFFFFFFFFFFFFFFFFFFFFFFFFFFF AND DUP2 MSTORE PUSH1 0x20 ADD SWAP1 DUP2 MSTORE PUSH1 0x20 ADD PUSH1 0x0 KECCAK256 PUSH1 0xF ADD PUSH1 0x6 SWAP1 SLOAD SWAP1 PUSH2 0x100 EXP SWAP1 DIV PUSH1 0xFF AND ISZERO ISZERO EQ PUSH2 0x126D JUMPI PUSH1 0x40 MLOAD PUSH32 0x8C379A000000000000000000000000000000000000000000000000000000000 DUP2 MSTORE PUSH1 0x4 ADD PUSH2 0x1264 SWAP1 PUSH2 0x4007 JUMP JUMPDEST PUSH1 0x40 MLOAD DUP1 SWAP2 SUB SWAP1 REVERT JUMPDEST PUSH1 0x1 PUSH1 0x0 DUP3 PUSH1 0x20 ADD MLOAD PUSH20 0xFFFFFFFFFFFFFFFFFFFFFFFFFFFFFFFFFFFFFFFF AND PUSH20 0xFFFFFFFFFFFFFFFFFFFFFFFFFFFFFFFFFFFFFFFF AND DUP2 MSTORE PUSH1 0x20 ADD SWAP1 DUP2 MSTORE PUSH1 0x20 ADD PUSH1 0x0 KECCAK256 PUSH1 0xF ADD PUSH1 0x4 SWAP1 SLOAD SWAP1 PUSH2 0x100 EXP SWAP1 DIV PUSH1 0xFF AND DUP2 PUSH1 0xE0 ADD SWAP1 ISZERO ISZERO SWAP1 DUP2 ISZERO ISZERO DUP2 MSTORE POP POP PUSH1 0x1 PUSH1 0x0 DUP3 PUSH1 0x20 ADD MLOAD PUSH20 0xFFFFFFFFFFFFFFFFFFFFFFFFFFFFFFFFFFFFFFFF AND PUSH20 0xFFFFFFFFFFFFFFFFFFFFFFFFFFFFFFFFFFFFFFFF AND DUP2 MSTORE PUSH1 0x20 ADD SWAP1 DUP2 MSTORE PUSH1 0x20 ADD PUSH1 0x0 KECCAK256 PUSH1 0xF ADD PUSH1 0x5 SWAP1 SLOAD SWAP1 PUSH2 0x100 EXP SWAP1 DIV PUSH1 0xFF AND DUP2 PUSH2 0x100 ADD SWAP1 ISZERO ISZERO SWAP1 DUP2 ISZERO ISZERO DUP2 MSTORE POP POP DUP1 PUSH1 0x1 PUSH1 0x0 DUP4 PUSH1 0x20 ADD MLOAD PUSH20 0xFFFFFFFFFFFFFFFFFFFFFFFFFFFFFFFFFFFFFFFF AND PUSH20 0xFFFFFFFFFFFFFFFFFFFFFFFFFFFFFFFFFFFFFFFF AND DUP2 MSTORE PUSH1 0x20 ADD SWAP1 DUP2 MSTORE PUSH1 0x20 ADD PUSH1 0x0 KECCAK256 PUSH1 0x0 DUP3 ADD MLOAD DUP2 PUSH1 0x0 ADD PUSH1 0x0 PUSH2 0x100 EXP DUP2 SLOAD DUP2 PUSH20 0xFFFFFFFFFFFFFFFFFFFFFFFFFFFFFFFFFFFFFFFF MUL NOT AND SWAP1 DUP4 PUSH20 0xFFFFFFFFFFFFFFFFFFFFFFFFFFFFFFFFFFFFFFFF AND MUL OR SWAP1 SSTORE POP PUSH1 0x20 DUP3 ADD MLOAD DUP2 PUSH1 0x1 ADD PUSH1 0x0 PUSH2 0x100 EXP DUP2 SLOAD DUP2 PUSH20 0xFFFFFFFFFFFFFFFFFFFFFFFFFFFFFFFFFFFFFFFF MUL NOT AND SWAP1 DUP4 PUSH20 0xFFFFFFFFFFFFFFFFFFFFFFFFFFFFFFFFFFFFFFFF AND MUL OR SWAP1 SSTORE POP PUSH1 0x40 DUP3 ADD MLOAD DUP2 PUSH1 0x2 ADD PUSH1 0x0 PUSH2 0x100 EXP DUP2 SLOAD DUP2 PUSH20 0xFFFFFFFFFFFFFFFFFFFFFFFFFFFFFFFFFFFFFFFF MUL NOT AND SWAP1 DUP4 PUSH20 0xFFFFFFFFFFFFFFFFFFFFFFFFFFFFFFFFFFFFFFFF AND MUL OR SWAP1 SSTORE POP PUSH1 0x60 DUP3 ADD MLOAD DUP2 PUSH1 0x3 ADD SSTORE PUSH1 0x80 DUP3 ADD MLOAD DUP2 PUSH1 0x4 ADD SSTORE PUSH1 0xA0 DUP3 ADD MLOAD DUP2 PUSH1 0x5 ADD SWAP1 PUSH1 0xA PUSH2 0x1478 SWAP3 SWAP2 SWAP1 PUSH2 0x365E JUMP JUMPDEST POP PUSH1 0xC0 DUP3 ADD MLOAD DUP2 PUSH1 0xF ADD PUSH1 0x0 PUSH2 0x100 EXP DUP2 SLOAD DUP2 PUSH4 0xFFFFFFFF MUL NOT AND SWAP1 DUP4 PUSH4 0xFFFFFFFF AND MUL OR SWAP1 SSTORE POP PUSH1 0xE0 DUP3 ADD MLOAD DUP2 PUSH1 0xF ADD PUSH1 0x4 PUSH2 0x100 EXP DUP2 SLOAD DUP2 PUSH1 0xFF MUL NOT AND SWAP1 DUP4 ISZERO ISZERO MUL OR SWAP1 SSTORE POP PUSH2 0x100 DUP3 ADD MLOAD DUP2 PUSH1 0xF ADD PUSH1 0x5 PUSH2 0x100 EXP DUP2 SLOAD DUP2 PUSH1 0xFF MUL NOT AND SWAP1 DUP4 ISZERO ISZERO MUL OR SWAP1 SSTORE POP PUSH2 0x120 DUP3 ADD MLOAD DUP2 PUSH1 0xF ADD PUSH1 0x6 PUSH2 0x100 EXP DUP2 SLOAD DUP2 PUSH1 0xFF MUL NOT AND SWAP1 DUP4 ISZERO ISZERO MUL OR SWAP1 SSTORE POP SWAP1 POP POP POP JUMP JUMPDEST PUSH1 0x0 PUSH1 0x20 MSTORE DUP1 PUSH1 0x0 MSTORE PUSH1 0x40 PUSH1 0x0 KECCAK256 PUSH1 0x0 SWAP2 POP SLOAD SWAP1 PUSH2 0x100 EXP SWAP1 DIV PUSH1 0xFF AND DUP2 JUMP JUMPDEST PUSH1 0x1 ISZERO ISZERO PUSH1 0x0 DUP1 CALLER PUSH20 0xFFFFFFFFFFFFFFFFFFFFFFFFFFFFFFFFFFFFFFFF AND PUSH20 0xFFFFFFFFFFFFFFFFFFFFFFFFFFFFFFFFFFFFFFFF AND DUP2 MSTORE PUSH1 0x20 ADD SWAP1 DUP2 MSTORE PUSH1 0x20 ADD PUSH1 0x0 KECCAK256 PUSH1 0x0 SWAP1 SLOAD SWAP1 PUSH2 0x100 EXP SWAP1 DIV PUSH1 0xFF AND ISZERO ISZERO EQ PUSH2 0x1584 JUMPI PUSH1 0x0 DUP1 REVERT JUMPDEST PUSH1 0x1 ISZERO ISZERO PUSH1 0x1 PUSH1 0x0 DUP4 PUSH20 0xFFFFFFFFFFFFFFFFFFFFFFFFFFFFFFFFFFFFFFFF AND PUSH20 0xFFFFFFFFFFFFFFFFFFFFFFFFFFFFFFFFFFFFFFFF AND DUP2 MSTORE PUSH1 0x20 ADD SWAP1 DUP2 MSTORE PUSH1 0x20 ADD PUSH1 0x0 KECCAK256 PUSH1 0xF ADD PUSH1 0x6 SWAP1 SLOAD SWAP1 PUSH2 0x100 EXP SWAP1 DIV PUSH1 0xFF AND ISZERO ISZERO EQ PUSH2 0x161A JUMPI PUSH1 0x40 MLOAD PUSH32 0x8C379A000000000000000000000000000000000000000000000000000000000 DUP2 MSTORE PUSH1 0x4 ADD PUSH2 0x1611 SWAP1 PUSH2 0x4067 JUMP JUMPDEST PUSH1 0x40 MLOAD DUP1 SWAP2 SUB SWAP1 REVERT JUMPDEST PUSH1 0x0 PUSH1 0x1 PUSH1 0x0 DUP4 PUSH20 0xFFFFFFFFFFFFFFFFFFFFFFFFFFFFFFFFFFFFFFFF AND PUSH20 0xFFFFFFFFFFFFFFFFFFFFFFFFFFFFFFFFFFFFFFFF AND DUP2 MSTORE PUSH1 0x20 ADD SWAP1 DUP2 MSTORE PUSH1 0x20 ADD PUSH1 0x0 KECCAK256 PUSH1 0xF ADD PUSH1 0x4 PUSH2 0x100 EXP DUP2 SLOAD DUP2 PUSH1 0xFF MUL NOT AND SWAP1 DUP4 ISZERO ISZERO MUL OR SWAP1 SSTORE POP POP JUMP JUMPDEST PUSH1 0x0 PUSH1 0x2 PUSH1 0x0 DUP4 PUSH20 0xFFFFFFFFFFFFFFFFFFFFFFFFFFFFFFFFFFFFFFFF AND PUSH20 0xFFFFFFFFFFFFFFFFFFFFFFFFFFFFFFFFFFFFFFFF AND DUP2 MSTORE PUSH1 0x20 ADD SWAP1 DUP2 MSTORE PUSH1 0x20 ADD PUSH1 0x0 KECCAK256 PUSH1 0x3 ADD PUSH1 0x14 SWAP1 SLOAD SWAP1 PUSH2 0x100 EXP SWAP1 DIV PUSH1 0xFF AND SWAP1 POP SWAP2 SWAP1 POP JUMP JUMPDEST PUSH1 0x0 DUP1 PUSH20 0xFFFFFFFFFFFFFFFFFFFFFFFFFFFFFFFFFFFFFFFF AND DUP4 PUSH20 0xFFFFFFFFFFFFFFFFFFFFFFFFFFFFFFFFFFFFFFFF AND EQ ISZERO PUSH2 0x1742 JUMPI PUSH1 0x40 MLOAD PUSH32 0x8C379A000000000000000000000000000000000000000000000000000000000 DUP2 MSTORE PUSH1 0x4 ADD PUSH2 0x1739 SWAP1 PUSH2 0x3F87 JUMP JUMPDEST PUSH1 0x40 MLOAD DUP1 SWAP2 SUB SWAP1 REVERT JUMPDEST PUSH1 0x6 PUSH1 0x0 DUP5 PUSH20 0xFFFFFFFFFFFFFFFFFFFFFFFFFFFFFFFFFFFFFFFF AND PUSH20 0xFFFFFFFFFFFFFFFFFFFFFFFFFFFFFFFFFFFFFFFF AND DUP2 MSTORE PUSH1 0x20 ADD SWAP1 DUP2 MSTORE PUSH1 0x20 ADD PUSH1 0x0 KECCAK256 PUSH1 0x0 DUP4 PUSH4 0xFFFFFFFF AND PUSH4 0xFFFFFFFF AND DUP2 MSTORE PUSH1 0x20 ADD SWAP1 DUP2 MSTORE PUSH1 0x20 ADD PUSH1 0x0 KECCAK256 PUSH1 0x0 SWAP1 SLOAD SWAP1 PUSH2 0x100 EXP SWAP1 DIV PUSH20 0xFFFFFFFFFFFFFFFFFFFFFFFFFFFFFFFFFFFFFFFF AND SWAP1 POP SWAP3 SWAP2 POP POP JUMP JUMPDEST PUSH1 0x0 DUP1 PUSH20 0xFFFFFFFFFFFFFFFFFFFFFFFFFFFFFFFFFFFFFFFF AND DUP3 PUSH20 0xFFFFFFFFFFFFFFFFFFFFFFFFFFFFFFFFFFFFFFFF AND EQ ISZERO PUSH2 0x1838 JUMPI PUSH1 0x40 MLOAD PUSH32 0x8C379A000000000000000000000000000000000000000000000000000000000 DUP2 MSTORE PUSH1 0x4 ADD PUSH2 0x182F SWAP1 PUSH2 0x3F87 JUMP JUMPDEST PUSH1 0x40 MLOAD DUP1 SWAP2 SUB SWAP1 REVERT JUMPDEST PUSH1 0x5 PUSH1 0x0 DUP4 PUSH20 0xFFFFFFFFFFFFFFFFFFFFFFFFFFFFFFFFFFFFFFFF AND PUSH20 0xFFFFFFFFFFFFFFFFFFFFFFFFFFFFFFFFFFFFFFFF AND DUP2 MSTORE PUSH1 0x20 ADD SWAP1 DUP2 MSTORE PUSH1 0x20 ADD PUSH1 0x0 KECCAK256 PUSH1 0x0 SWAP1 SLOAD SWAP1 PUSH2 0x100 EXP SWAP1 DIV PUSH4 0xFFFFFFFF AND SWAP1 POP SWAP2 SWAP1 POP JUMP JUMPDEST PUSH1 0x1 ISZERO ISZERO PUSH1 0x0 DUP1 CALLER PUSH20 0xFFFFFFFFFFFFFFFFFFFFFFFFFFFFFFFFFFFFFFFF AND PUSH20 0xFFFFFFFFFFFFFFFFFFFFFFFFFFFFFFFFFFFFFFFF AND DUP2 MSTORE PUSH1 0x20 ADD SWAP1 DUP2 MSTORE PUSH1 0x20 ADD PUSH1 0x0 KECCAK256 PUSH1 0x0 SWAP1 SLOAD SWAP1 PUSH2 0x100 EXP SWAP1 DIV PUSH1 0xFF AND ISZERO ISZERO EQ PUSH2 0x18EB JUMPI PUSH1 0x0 DUP1 REVERT JUMPDEST PUSH1 0x1 ISZERO ISZERO PUSH1 0x1 PUSH1 0x0 DUP4 PUSH20 0xFFFFFFFFFFFFFFFFFFFFFFFFFFFFFFFFFFFFFFFF AND PUSH20 0xFFFFFFFFFFFFFFFFFFFFFFFFFFFFFFFFFFFFFFFF AND DUP2 MSTORE PUSH1 0x20 ADD SWAP1 DUP2 MSTORE PUSH1 0x20 ADD PUSH1 0x0 KECCAK256 PUSH1 0xF ADD PUSH1 0x6 SWAP1 SLOAD SWAP1 PUSH2 0x100 EXP SWAP1 DIV PUSH1 0xFF AND ISZERO ISZERO EQ PUSH2 0x1981 JUMPI PUSH1 0x40 MLOAD PUSH32 0x8C379A000000000000000000000000000000000000000000000000000000000 DUP2 MSTORE PUSH1 0x4 ADD PUSH2 0x1978 SWAP1 PUSH2 0x4067 JUMP JUMPDEST PUSH1 0x40 MLOAD DUP1 SWAP2 SUB SWAP1 REVERT JUMPDEST PUSH1 0x1 DUP1 PUSH1 0x0 DUP4 PUSH20 0xFFFFFFFFFFFFFFFFFFFFFFFFFFFFFFFFFFFFFFFF AND PUSH20 0xFFFFFFFFFFFFFFFFFFFFFFFFFFFFFFFFFFFFFFFF AND DUP2 MSTORE PUSH1 0x20 ADD SWAP1 DUP2 MSTORE PUSH1 0x20 ADD PUSH1 0x0 KECCAK256 PUSH1 0xF ADD PUSH1 0x4 PUSH2 0x100 EXP DUP2 SLOAD DUP2 PUSH1 0xFF MUL NOT AND SWAP1 DUP4 ISZERO ISZERO MUL OR SWAP1 SSTORE POP POP JUMP JUMPDEST PUSH1 0x6 PUSH1 0x20 MSTORE DUP2 PUSH1 0x0 MSTORE PUSH1 0x40 PUSH1 0x0 KECCAK256 PUSH1 0x20 MSTORE DUP1 PUSH1 0x0 MSTORE PUSH1 0x40 PUSH1 0x0 KECCAK256 PUSH1 0x0 SWAP2 POP SWAP2 POP SWAP1 SLOAD SWAP1 PUSH2 0x100 EXP SWAP1 DIV PUSH20 0xFFFFFFFFFFFFFFFFFFFFFFFFFFFFFFFFFFFFFFFF AND DUP2 JUMP JUMPDEST PUSH1 0x0 PUSH1 0x1 PUSH1 0x0 CALLER PUSH20 0xFFFFFFFFFFFFFFFFFFFFFFFFFFFFFFFFFFFFFFFF AND PUSH20 0xFFFFFFFFFFFFFFFFFFFFFFFFFFFFFFFFFFFFFFFF AND DUP2 MSTORE PUSH1 0x20 ADD SWAP1 DUP2 MSTORE PUSH1 0x20 ADD PUSH1 0x0 KECCAK256 PUSH1 0xF ADD PUSH1 0x4 SWAP1 SLOAD SWAP1 PUSH2 0x100 EXP SWAP1 DIV PUSH1 0xFF AND SWAP1 POP SWAP1 JUMP JUMPDEST PUSH1 0x1 ISZERO ISZERO PUSH1 0x0 DUP1 CALLER PUSH20 0xFFFFFFFFFFFFFFFFFFFFFFFFFFFFFFFFFFFFFFFF AND PUSH20 0xFFFFFFFFFFFFFFFFFFFFFFFFFFFFFFFFFFFFFFFF AND DUP2 MSTORE PUSH1 0x20 ADD SWAP1 DUP2 MSTORE PUSH1 0x20 ADD PUSH1 0x0 KECCAK256 PUSH1 0x0 SWAP1 SLOAD SWAP1 PUSH2 0x100 EXP SWAP1 DIV PUSH1 0xFF AND ISZERO ISZERO EQ PUSH2 0x1AD3 JUMPI PUSH1 0x0 DUP1 REVERT JUMPDEST PUSH1 0x1 ISZERO ISZERO PUSH1 0x1 PUSH1 0x0 DUP4 PUSH20 0xFFFFFFFFFFFFFFFFFFFFFFFFFFFFFFFFFFFFFFFF AND PUSH20 0xFFFFFFFFFFFFFFFFFFFFFFFFFFFFFFFFFFFFFFFF AND DUP2 MSTORE PUSH1 0x20 ADD SWAP1 DUP2 MSTORE PUSH1 0x20 ADD PUSH1 0x0 KECCAK256 PUSH1 0xF ADD PUSH1 0x6 SWAP1 SLOAD SWAP1 PUSH2 0x100 EXP SWAP1 DIV PUSH1 0xFF AND ISZERO ISZERO EQ PUSH2 0x1B69 JUMPI PUSH1 0x40 MLOAD PUSH32 0x8C379A000000000000000000000000000000000000000000000000000000000 DUP2 MSTORE PUSH1 0x4 ADD PUSH2 0x1B60 SWAP1 PUSH2 0x4007 JUMP JUMPDEST PUSH1 0x40 MLOAD DUP1 SWAP2 SUB SWAP1 REVERT JUMPDEST PUSH1 0x1 PUSH1 0x0 DUP3 PUSH20 0xFFFFFFFFFFFFFFFFFFFFFFFFFFFFFFFFFFFFFFFF AND PUSH20 0xFFFFFFFFFFFFFFFFFFFFFFFFFFFFFFFFFFFFFFFF AND DUP2 MSTORE PUSH1 0x20 ADD SWAP1 DUP2 MSTORE PUSH1 0x20 ADD PUSH1 0x0 KECCAK256 PUSH1 0x0 DUP1 DUP3 ADD PUSH1 0x0 PUSH2 0x100 EXP DUP2 SLOAD SWAP1 PUSH20 0xFFFFFFFFFFFFFFFFFFFFFFFFFFFFFFFFFFFFFFFF MUL NOT AND SWAP1 SSTORE PUSH1 0x1 DUP3 ADD PUSH1 0x0 PUSH2 0x100 EXP DUP2 SLOAD SWAP1 PUSH20 0xFFFFFFFFFFFFFFFFFFFFFFFFFFFFFFFFFFFFFFFF MUL NOT AND SWAP1 SSTORE PUSH1 0x2 DUP3 ADD PUSH1 0x0 PUSH2 0x100 EXP DUP2 SLOAD SWAP1 PUSH20 0xFFFFFFFFFFFFFFFFFFFFFFFFFFFFFFFFFFFFFFFF MUL NOT AND SWAP1 SSTORE PUSH1 0x3 DUP3 ADD PUSH1 0x0 SWAP1 SSTORE PUSH1 0x4 DUP3 ADD PUSH1 0x0 SWAP1 SSTORE PUSH1 0x5 DUP3 ADD PUSH1 0x0 PUSH2 0x1C3E SWAP2 SWAP1 PUSH2 0x369E JUMP JUMPDEST PUSH1 0xF DUP3 ADD PUSH1 0x0 PUSH2 0x100 EXP DUP2 SLOAD SWAP1 PUSH4 0xFFFFFFFF MUL NOT AND SWAP1 SSTORE PUSH1 0xF DUP3 ADD PUSH1 0x4 PUSH2 0x100 EXP DUP2 SLOAD SWAP1 PUSH1 0xFF MUL NOT AND SWAP1 SSTORE PUSH1 0xF DUP3 ADD PUSH1 0x5 PUSH2 0x100 EXP DUP2 SLOAD SWAP1 PUSH1 0xFF MUL NOT AND SWAP1 SSTORE PUSH1 0xF DUP3 ADD PUSH1 0x6 PUSH2 0x100 EXP DUP2 SLOAD SWAP1 PUSH1 0xFF MUL NOT AND SWAP1 SSTORE POP POP POP JUMP JUMPDEST PUSH1 0x7 PUSH1 0x20 MSTORE DUP1 PUSH1 0x0 MSTORE PUSH1 0x40 PUSH1 0x0 KECCAK256 PUSH1 0x0 SWAP2 POP SLOAD SWAP1 PUSH2 0x100 EXP SWAP1 DIV PUSH4 0xFFFFFFFF AND DUP2 JUMP JUMPDEST PUSH1 0x1 ISZERO ISZERO PUSH1 0x0 DUP1 CALLER PUSH20 0xFFFFFFFFFFFFFFFFFFFFFFFFFFFFFFFFFFFFFFFF AND PUSH20 0xFFFFFFFFFFFFFFFFFFFFFFFFFFFFFFFFFFFFFFFF AND DUP2 MSTORE PUSH1 0x20 ADD SWAP1 DUP2 MSTORE PUSH1 0x20 ADD PUSH1 0x0 KECCAK256 PUSH1 0x0 SWAP1 SLOAD SWAP1 PUSH2 0x100 EXP SWAP1 DIV PUSH1 0xFF AND ISZERO ISZERO EQ PUSH2 0x1D15 JUMPI PUSH1 0x0 DUP1 REVERT JUMPDEST PUSH1 0x1 ISZERO ISZERO PUSH1 0x2 PUSH1 0x0 DUP4 PUSH20 0xFFFFFFFFFFFFFFFFFFFFFFFFFFFFFFFFFFFFFFFF AND PUSH20 0xFFFFFFFFFFFFFFFFFFFFFFFFFFFFFFFFFFFFFFFF AND DUP2 MSTORE PUSH1 0x20 ADD SWAP1 DUP2 MSTORE PUSH1 0x20 ADD PUSH1 0x0 KECCAK256 PUSH1 0x3 ADD PUSH1 0x14 SWAP1 SLOAD SWAP1 PUSH2 0x100 EXP SWAP1 DIV PUSH1 0xFF AND ISZERO ISZERO EQ ISZERO PUSH2 0x1DAC JUMPI PUSH1 0x40 MLOAD PUSH32 0x8C379A000000000000000000000000000000000000000000000000000000000 DUP2 MSTORE PUSH1 0x4 ADD PUSH2 0x1DA3 SWAP1 PUSH2 0x4027 JUMP JUMPDEST PUSH1 0x40 MLOAD DUP1 SWAP2 SUB SWAP1 REVERT JUMPDEST PUSH1 0x1 PUSH1 0x2 PUSH1 0x0 DUP4 PUSH20 0xFFFFFFFFFFFFFFFFFFFFFFFFFFFFFFFFFFFFFFFF AND PUSH20 0xFFFFFFFFFFFFFFFFFFFFFFFFFFFFFFFFFFFFFFFF AND DUP2 MSTORE PUSH1 0x20 ADD SWAP1 DUP2 MSTORE PUSH1 0x20 ADD PUSH1 0x0 KECCAK256 PUSH1 0x3 ADD PUSH1 0x15 PUSH2 0x100 EXP DUP2 SLOAD DUP2 PUSH1 0xFF MUL NOT AND SWAP1 DUP4 ISZERO ISZERO MUL OR SWAP1 SSTORE POP POP JUMP JUMPDEST PUSH2 0x1E12 PUSH2 0x36B1 JUMP JUMPDEST PUSH1 0x1 ISZERO ISZERO PUSH1 0x2 PUSH1 0x0 DUP5 PUSH20 0xFFFFFFFFFFFFFFFFFFFFFFFFFFFFFFFFFFFFFFFF AND PUSH20 0xFFFFFFFFFFFFFFFFFFFFFFFFFFFFFFFFFFFFFFFF AND DUP2 MSTORE PUSH1 0x20 ADD SWAP1 DUP2 MSTORE PUSH1 0x20 ADD PUSH1 0x0 KECCAK256 PUSH1 0x3 ADD PUSH1 0x14 SWAP1 SLOAD SWAP1 PUSH2 0x100 EXP SWAP1 DIV PUSH1 0xFF AND ISZERO ISZERO EQ PUSH2 0x1EA8 JUMPI PUSH1 0x40 MLOAD PUSH32 0x8C379A000000000000000000000000000000000000000000000000000000000 DUP2 MSTORE PUSH1 0x4 ADD PUSH2 0x1E9F SWAP1 PUSH2 0x3FA7 JUMP JUMPDEST PUSH1 0x40 MLOAD DUP1 SWAP2 SUB SWAP1 REVERT JUMPDEST PUSH1 0x2 PUSH1 0x0 DUP4 PUSH20 0xFFFFFFFFFFFFFFFFFFFFFFFFFFFFFFFFFFFFFFFF AND PUSH20 0xFFFFFFFFFFFFFFFFFFFFFFFFFFFFFFFFFFFFFFFF AND DUP2 MSTORE PUSH1 0x20 ADD SWAP1 DUP2 MSTORE PUSH1 0x20 ADD PUSH1 0x0 KECCAK256 PUSH1 0x40 MLOAD DUP1 PUSH2 0x120 ADD PUSH1 0x40 MSTORE SWAP1 DUP2 PUSH1 0x0 DUP3 ADD SLOAD DUP2 MSTORE PUSH1 0x20 ADD PUSH1 0x1 DUP3 ADD PUSH1 0x0 SWAP1 SLOAD SWAP1 PUSH2 0x100 EXP SWAP1 DIV PUSH4 0xFFFFFFFF AND PUSH4 0xFFFFFFFF AND PUSH4 0xFFFFFFFF AND DUP2 MSTORE PUSH1 0x20 ADD PUSH1 0x1 DUP3 ADD PUSH1 0x4 SWAP1 SLOAD SWAP1 PUSH2 0x100 EXP SWAP1 DIV PUSH20 0xFFFFFFFFFFFFFFFFFFFFFFFFFFFFFFFFFFFFFFFF AND PUSH20 0xFFFFFFFFFFFFFFFFFFFFFFFFFFFFFFFFFFFFFFFF AND PUSH20 0xFFFFFFFFFFFFFFFFFFFFFFFFFFFFFFFFFFFFFFFF AND DUP2 MSTORE PUSH1 0x20 ADD PUSH1 0x1 DUP3 ADD PUSH1 0x18 SWAP1 SLOAD SWAP1 PUSH2 0x100 EXP SWAP1 DIV PUSH5 0xFFFFFFFFFF AND PUSH5 0xFFFFFFFFFF AND PUSH5 0xFFFFFFFFFF AND DUP2 MSTORE PUSH1 0x20 ADD PUSH1 0x2 DUP3 ADD PUSH1 0x0 SWAP1 SLOAD SWAP1 PUSH2 0x100 EXP SWAP1 DIV PUSH20 0xFFFFFFFFFFFFFFFFFFFFFFFFFFFFFFFFFFFFFFFF AND PUSH20 0xFFFFFFFFFFFFFFFFFFFFFFFFFFFFFFFFFFFFFFFF AND PUSH20 0xFFFFFFFFFFFFFFFFFFFFFFFFFFFFFFFFFFFFFFFF AND DUP2 MSTORE PUSH1 0x20 ADD PUSH1 0x2 DUP3 ADD PUSH1 0x14 SWAP1 SLOAD SWAP1 PUSH2 0x100 EXP SWAP1 DIV PUSH4 0xFFFFFFFF AND PUSH4 0xFFFFFFFF AND PUSH4 0xFFFFFFFF AND DUP2 MSTORE PUSH1 0x20 ADD PUSH1 0x3 DUP3 ADD PUSH1 0x0 SWAP1 SLOAD SWAP1 PUSH2 0x100 EXP SWAP1 DIV PUSH20 0xFFFFFFFFFFFFFFFFFFFFFFFFFFFFFFFFFFFFFFFF AND PUSH20 0xFFFFFFFFFFFFFFFFFFFFFFFFFFFFFFFFFFFFFFFF AND PUSH20 0xFFFFFFFFFFFFFFFFFFFFFFFFFFFFFFFFFFFFFFFF AND DUP2 MSTORE PUSH1 0x20 ADD PUSH1 0x3 DUP3 ADD PUSH1 0x14 SWAP1 SLOAD SWAP1 PUSH2 0x100 EXP SWAP1 DIV PUSH1 0xFF AND ISZERO ISZERO ISZERO ISZERO DUP2 MSTORE PUSH1 0x20 ADD PUSH1 0x3 DUP3 ADD PUSH1 0x15 SWAP1 SLOAD SWAP1 PUSH2 0x100 EXP SWAP1 DIV PUSH1 0xFF AND ISZERO ISZERO ISZERO ISZERO DUP2 MSTORE POP POP SWAP1 POP SWAP2 SWAP1 POP JUMP JUMPDEST PUSH32 0x0 PUSH20 0xFFFFFFFFFFFFFFFFFFFFFFFFFFFFFFFFFFFFFFFF AND CALLER PUSH20 0xFFFFFFFFFFFFFFFFFFFFFFFFFFFFFFFFFFFFFFFF AND EQ PUSH2 0x2109 JUMPI PUSH1 0x0 DUP1 REVERT JUMPDEST PUSH1 0x1 PUSH1 0x0 DUP1 DUP4 PUSH20 0xFFFFFFFFFFFFFFFFFFFFFFFFFFFFFFFFFFFFFFFF AND PUSH20 0xFFFFFFFFFFFFFFFFFFFFFFFFFFFFFFFFFFFFFFFF AND DUP2 MSTORE PUSH1 0x20 ADD SWAP1 DUP2 MSTORE PUSH1 0x20 ADD PUSH1 0x0 KECCAK256 PUSH1 0x0 PUSH2 0x100 EXP DUP2 SLOAD DUP2 PUSH1 0xFF MUL NOT AND SWAP1 DUP4 ISZERO ISZERO MUL OR SWAP1 SSTORE POP POP JUMP JUMPDEST PUSH1 0x1 ISZERO ISZERO PUSH1 0x1 PUSH1 0x0 DUP4 PUSH1 0x20 ADD MLOAD PUSH20 0xFFFFFFFFFFFFFFFFFFFFFFFFFFFFFFFFFFFFFFFF AND PUSH20 0xFFFFFFFFFFFFFFFFFFFFFFFFFFFFFFFFFFFFFFFF AND DUP2 MSTORE PUSH1 0x20 ADD SWAP1 DUP2 MSTORE PUSH1 0x20 ADD PUSH1 0x0 KECCAK256 PUSH1 0xF ADD PUSH1 0x6 SWAP1 SLOAD SWAP1 PUSH2 0x100 EXP SWAP1 DIV PUSH1 0xFF AND ISZERO ISZERO EQ ISZERO PUSH2 0x21FE JUMPI PUSH1 0x40 MLOAD PUSH32 0x8C379A000000000000000000000000000000000000000000000000000000000 DUP2 MSTORE PUSH1 0x4 ADD PUSH2 0x21F5 SWAP1 PUSH2 0x4007 JUMP JUMPDEST PUSH1 0x40 MLOAD DUP1 SWAP2 SUB SWAP1 REVERT JUMPDEST CALLER PUSH20 0xFFFFFFFFFFFFFFFFFFFFFFFFFFFFFFFFFFFFFFFF AND DUP2 PUSH1 0x20 ADD MLOAD PUSH20 0xFFFFFFFFFFFFFFFFFFFFFFFFFFFFFFFFFFFFFFFF AND EQ PUSH2 0x2270 JUMPI PUSH1 0x40 MLOAD PUSH32 0x8C379A000000000000000000000000000000000000000000000000000000000 DUP2 MSTORE PUSH1 0x4 ADD PUSH2 0x2267 SWAP1 PUSH2 0x3FC7 JUMP JUMPDEST PUSH1 0x40 MLOAD DUP1 SWAP2 SUB SWAP1 REVERT JUMPDEST PUSH1 0x0 DUP2 PUSH1 0xE0 ADD SWAP1 ISZERO ISZERO SWAP1 DUP2 ISZERO ISZERO DUP2 MSTORE POP POP PUSH1 0x0 DUP2 PUSH2 0x100 ADD SWAP1 ISZERO ISZERO SWAP1 DUP2 ISZERO ISZERO DUP2 MSTORE POP POP DUP1 PUSH1 0x1 PUSH1 0x0 DUP4 PUSH1 0x20 ADD MLOAD PUSH20 0xFFFFFFFFFFFFFFFFFFFFFFFFFFFFFFFFFFFFFFFF AND PUSH20 0xFFFFFFFFFFFFFFFFFFFFFFFFFFFFFFFFFFFFFFFF AND DUP2 MSTORE PUSH1 0x20 ADD SWAP1 DUP2 MSTORE PUSH1 0x20 ADD PUSH1 0x0 KECCAK256 PUSH1 0x0 DUP3 ADD MLOAD DUP2 PUSH1 0x0 ADD PUSH1 0x0 PUSH2 0x100 EXP DUP2 SLOAD DUP2 PUSH20 0xFFFFFFFFFFFFFFFFFFFFFFFFFFFFFFFFFFFFFFFF MUL NOT AND SWAP1 DUP4 PUSH20 0xFFFFFFFFFFFFFFFFFFFFFFFFFFFFFFFFFFFFFFFF AND MUL OR SWAP1 SSTORE POP PUSH1 0x20 DUP3 ADD MLOAD DUP2 PUSH1 0x1 ADD PUSH1 0x0 PUSH2 0x100 EXP DUP2 SLOAD DUP2 PUSH20 0xFFFFFFFFFFFFFFFFFFFFFFFFFFFFFFFFFFFFFFFF MUL NOT AND SWAP1 DUP4 PUSH20 0xFFFFFFFFFFFFFFFFFFFFFFFFFFFFFFFFFFFFFFFF AND MUL OR SWAP1 SSTORE POP PUSH1 0x40 DUP3 ADD MLOAD DUP2 PUSH1 0x2 ADD PUSH1 0x0 PUSH2 0x100 EXP DUP2 SLOAD DUP2 PUSH20 0xFFFFFFFFFFFFFFFFFFFFFFFFFFFFFFFFFFFFFFFF MUL NOT AND SWAP1 DUP4 PUSH20 0xFFFFFFFFFFFFFFFFFFFFFFFFFFFFFFFFFFFFFFFF AND MUL OR SWAP1 SSTORE POP PUSH1 0x60 DUP3 ADD MLOAD DUP2 PUSH1 0x3 ADD SSTORE PUSH1 0x80 DUP3 ADD MLOAD DUP2 PUSH1 0x4 ADD SSTORE PUSH1 0xA0 DUP3 ADD MLOAD DUP2 PUSH1 0x5 ADD SWAP1 PUSH1 0xA PUSH2 0x23D7 SWAP3 SWAP2 SWAP1 PUSH2 0x365E JUMP JUMPDEST POP PUSH1 0xC0 DUP3 ADD MLOAD DUP2 PUSH1 0xF ADD PUSH1 0x0 PUSH2 0x100 EXP DUP2 SLOAD DUP2 PUSH4 0xFFFFFFFF MUL NOT AND SWAP1 DUP4 PUSH4 0xFFFFFFFF AND MUL OR SWAP1 SSTORE POP PUSH1 0xE0 DUP3 ADD MLOAD DUP2 PUSH1 0xF ADD PUSH1 0x4 PUSH2 0x100 EXP DUP2 SLOAD DUP2 PUSH1 0xFF MUL NOT AND SWAP1 DUP4 ISZERO ISZERO MUL OR SWAP1 SSTORE POP PUSH2 0x100 DUP3 ADD MLOAD DUP2 PUSH1 0xF ADD PUSH1 0x5 PUSH2 0x100 EXP DUP2 SLOAD DUP2 PUSH1 0xFF MUL NOT AND SWAP1 DUP4 ISZERO ISZERO MUL OR SWAP1 SSTORE POP PUSH2 0x120 DUP3 ADD MLOAD DUP2 PUSH1 0xF ADD PUSH1 0x6 PUSH2 0x100 EXP DUP2 SLOAD DUP2 PUSH1 0xFF MUL NOT AND SWAP1 DUP4 ISZERO ISZERO MUL OR SWAP1 SSTORE POP SWAP1 POP POP POP JUMP JUMPDEST PUSH1 0x0 PUSH1 0x1 ISZERO ISZERO PUSH1 0x2 PUSH1 0x0 DUP5 PUSH20 0xFFFFFFFFFFFFFFFFFFFFFFFFFFFFFFFFFFFFFFFF AND PUSH20 0xFFFFFFFFFFFFFFFFFFFFFFFFFFFFFFFFFFFFFFFF AND DUP2 MSTORE PUSH1 0x20 ADD SWAP1 DUP2 MSTORE PUSH1 0x20 ADD PUSH1 0x0 KECCAK256 PUSH1 0x3 ADD PUSH1 0x14 SWAP1 SLOAD SWAP1 PUSH2 0x100 EXP SWAP1 DIV PUSH1 0xFF AND ISZERO ISZERO EQ PUSH2 0x24FF JUMPI PUSH1 0x40 MLOAD PUSH32 0x8C379A000000000000000000000000000000000000000000000000000000000 DUP2 MSTORE PUSH1 0x4 ADD PUSH2 0x24F6 SWAP1 PUSH2 0x3FA7 JUMP JUMPDEST PUSH1 0x40 MLOAD DUP1 SWAP2 SUB SWAP1 REVERT JUMPDEST PUSH1 0x2 PUSH1 0x0 DUP4 PUSH20 0xFFFFFFFFFFFFFFFFFFFFFFFFFFFFFFFFFFFFFFFF AND PUSH20 0xFFFFFFFFFFFFFFFFFFFFFFFFFFFFFFFFFFFFFFFF AND DUP2 MSTORE PUSH1 0x20 ADD SWAP1 DUP2 MSTORE PUSH1 0x20 ADD PUSH1 0x0 KECCAK256 PUSH1 0x1 ADD PUSH1 0x4 SWAP1 SLOAD SWAP1 PUSH2 0x100 EXP SWAP1 DIV PUSH20 0xFFFFFFFFFFFFFFFFFFFFFFFFFFFFFFFFFFFFFFFF AND SWAP1 POP SWAP2 SWAP1 POP JUMP JUMPDEST PUSH1 0x5 PUSH1 0x20 MSTORE DUP1 PUSH1 0x0 MSTORE PUSH1 0x40 PUSH1 0x0 KECCAK256 PUSH1 0x0 SWAP2 POP SLOAD SWAP1 PUSH2 0x100 EXP SWAP1 DIV PUSH4 0xFFFFFFFF AND DUP2 JUMP JUMPDEST PUSH1 0x1 ISZERO ISZERO PUSH1 0x1 PUSH1 0x0 CALLER PUSH20 0xFFFFFFFFFFFFFFFFFFFFFFFFFFFFFFFFFFFFFFFF AND PUSH20 0xFFFFFFFFFFFFFFFFFFFFFFFFFFFFFFFFFFFFFFFF AND DUP2 MSTORE PUSH1 0x20 ADD SWAP1 DUP2 MSTORE PUSH1 0x20 ADD PUSH1 0x0 KECCAK256 PUSH1 0xF ADD PUSH1 0x4 SWAP1 SLOAD SWAP1 PUSH2 0x100 EXP SWAP1 DIV PUSH1 0xFF AND ISZERO ISZERO EQ PUSH2 0x25EC JUMPI PUSH1 0x0 DUP1 REVERT JUMPDEST PUSH1 0x1 ISZERO ISZERO PUSH1 0x1 PUSH1 0x0 CALLER PUSH20 0xFFFFFFFFFFFFFFFFFFFFFFFFFFFFFFFFFFFFFFFF AND PUSH20 0xFFFFFFFFFFFFFFFFFFFFFFFFFFFFFFFFFFFFFFFF AND DUP2 MSTORE PUSH1 0x20 ADD SWAP1 DUP2 MSTORE PUSH1 0x20 ADD PUSH1 0x0 KECCAK256 PUSH1 0xF ADD PUSH1 0x6 SWAP1 SLOAD SWAP1 PUSH2 0x100 EXP SWAP1 DIV PUSH1 0xFF AND ISZERO ISZERO EQ DUP1 ISZERO PUSH2 0x26DC JUMPI POP CALLER PUSH20 0xFFFFFFFFFFFFFFFFFFFFFFFFFFFFFFFFFFFFFFFF AND PUSH1 0x1 PUSH1 0x0 CALLER PUSH20 0xFFFFFFFFFFFFFFFFFFFFFFFFFFFFFFFFFFFFFFFF AND PUSH20 0xFFFFFFFFFFFFFFFFFFFFFFFFFFFFFFFFFFFFFFFF AND DUP2 MSTORE PUSH1 0x20 ADD SWAP1 DUP2 MSTORE PUSH1 0x20 ADD PUSH1 0x0 KECCAK256 PUSH1 0x1 ADD PUSH1 0x0 SWAP1 SLOAD SWAP1 PUSH2 0x100 EXP SWAP1 DIV PUSH20 0xFFFFFFFFFFFFFFFFFFFFFFFFFFFFFFFFFFFFFFFF AND PUSH20 0xFFFFFFFFFFFFFFFFFFFFFFFFFFFFFFFFFFFFFFFF AND EQ JUMPDEST PUSH2 0x271B JUMPI PUSH1 0x40 MLOAD PUSH32 0x8C379A000000000000000000000000000000000000000000000000000000000 DUP2 MSTORE PUSH1 0x4 ADD PUSH2 0x2712 SWAP1 PUSH2 0x4067 JUMP JUMPDEST PUSH1 0x40 MLOAD DUP1 SWAP2 SUB SWAP1 REVERT JUMPDEST PUSH1 0x0 PUSH1 0x1 PUSH1 0x0 CALLER PUSH20 0xFFFFFFFFFFFFFFFFFFFFFFFFFFFFFFFFFFFFFFFF AND PUSH20 0xFFFFFFFFFFFFFFFFFFFFFFFFFFFFFFFFFFFFFFFF AND DUP2 MSTORE PUSH1 0x20 ADD SWAP1 DUP2 MSTORE PUSH1 0x20 ADD PUSH1 0x0 KECCAK256 PUSH1 0xF ADD PUSH1 0x5 PUSH2 0x100 EXP DUP2 SLOAD DUP2 PUSH1 0xFF MUL NOT AND SWAP1 DUP4 ISZERO ISZERO MUL OR SWAP1 SSTORE POP JUMP JUMPDEST PUSH1 0x1 ISZERO ISZERO PUSH1 0x1 PUSH1 0x0 CALLER PUSH20 0xFFFFFFFFFFFFFFFFFFFFFFFFFFFFFFFFFFFFFFFF AND PUSH20 0xFFFFFFFFFFFFFFFFFFFFFFFFFFFFFFFFFFFFFFFF AND DUP2 MSTORE PUSH1 0x20 ADD SWAP1 DUP2 MSTORE PUSH1 0x20 ADD PUSH1 0x0 KECCAK256 PUSH1 0xF ADD PUSH1 0x4 SWAP1 SLOAD SWAP1 PUSH2 0x100 EXP SWAP1 DIV PUSH1 0xFF AND ISZERO ISZERO EQ PUSH2 0x27D8 JUMPI PUSH1 0x0 DUP1 REVERT JUMPDEST PUSH1 0x1 ISZERO ISZERO PUSH1 0x1 PUSH1 0x0 DUP4 PUSH1 0x20 ADD MLOAD PUSH20 0xFFFFFFFFFFFFFFFFFFFFFFFFFFFFFFFFFFFFFFFF AND PUSH20 0xFFFFFFFFFFFFFFFFFFFFFFFFFFFFFFFFFFFFFFFF AND DUP2 MSTORE PUSH1 0x20 ADD SWAP1 DUP2 MSTORE PUSH1 0x20 ADD PUSH1 0x0 KECCAK256 PUSH1 0xF ADD PUSH1 0x6 SWAP1 SLOAD SWAP1 PUSH2 0x100 EXP SWAP1 DIV PUSH1 0xFF AND ISZERO ISZERO EQ PUSH2 0x2872 JUMPI PUSH1 0x40 MLOAD PUSH32 0x8C379A000000000000000000000000000000000000000000000000000000000 DUP2 MSTORE PUSH1 0x4 ADD PUSH2 0x2869 SWAP1 PUSH2 0x4007 JUMP JUMPDEST PUSH1 0x40 MLOAD DUP1 SWAP2 SUB SWAP1 REVERT JUMPDEST CALLER PUSH20 0xFFFFFFFFFFFFFFFFFFFFFFFFFFFFFFFFFFFFFFFF AND PUSH1 0x1 PUSH1 0x0 DUP4 PUSH1 0x20 ADD MLOAD PUSH20 0xFFFFFFFFFFFFFFFFFFFFFFFFFFFFFFFFFFFFFFFF AND PUSH20 0xFFFFFFFFFFFFFFFFFFFFFFFFFFFFFFFFFFFFFFFF AND DUP2 MSTORE PUSH1 0x20 ADD SWAP1 DUP2 MSTORE PUSH1 0x20 ADD PUSH1 0x0 KECCAK256 PUSH1 0x1 ADD PUSH1 0x0 SWAP1 SLOAD SWAP1 PUSH2 0x100 EXP SWAP1 DIV PUSH20 0xFFFFFFFFFFFFFFFFFFFFFFFFFFFFFFFFFFFFFFFF AND PUSH20 0xFFFFFFFFFFFFFFFFFFFFFFFFFFFFFFFFFFFFFFFF AND EQ PUSH2 0x2946 JUMPI PUSH1 0x40 MLOAD PUSH32 0x8C379A000000000000000000000000000000000000000000000000000000000 DUP2 MSTORE PUSH1 0x4 ADD PUSH2 0x293D SWAP1 PUSH2 0x3FC7 JUMP JUMPDEST PUSH1 0x40 MLOAD DUP1 SWAP2 SUB SWAP1 REVERT JUMPDEST PUSH1 0x0 DUP2 PUSH1 0xE0 ADD SWAP1 ISZERO ISZERO SWAP1 DUP2 ISZERO ISZERO DUP2 MSTORE POP POP PUSH1 0x1 DUP2 PUSH2 0x100 ADD SWAP1 ISZERO ISZERO SWAP1 DUP2 ISZERO ISZERO DUP2 MSTORE POP POP DUP1 PUSH1 0x1 PUSH1 0x0 DUP4 PUSH1 0x20 ADD MLOAD PUSH20 0xFFFFFFFFFFFFFFFFFFFFFFFFFFFFFFFFFFFFFFFF AND PUSH20 0xFFFFFFFFFFFFFFFFFFFFFFFFFFFFFFFFFFFFFFFF AND DUP2 MSTORE PUSH1 0x20 ADD SWAP1 DUP2 MSTORE PUSH1 0x20 ADD PUSH1 0x0 KECCAK256 PUSH1 0x0 DUP3 ADD MLOAD DUP2 PUSH1 0x0 ADD PUSH1 0x0 PUSH2 0x100 EXP DUP2 SLOAD DUP2 PUSH20 0xFFFFFFFFFFFFFFFFFFFFFFFFFFFFFFFFFFFFFFFF MUL NOT AND SWAP1 DUP4 PUSH20 0xFFFFFFFFFFFFFFFFFFFFFFFFFFFFFFFFFFFFFFFF AND MUL OR SWAP1 SSTORE POP PUSH1 0x20 DUP3 ADD MLOAD DUP2 PUSH1 0x1 ADD PUSH1 0x0 PUSH2 0x100 EXP DUP2 SLOAD DUP2 PUSH20 0xFFFFFFFFFFFFFFFFFFFFFFFFFFFFFFFFFFFFFFFF MUL NOT AND SWAP1 DUP4 PUSH20 0xFFFFFFFFFFFFFFFFFFFFFFFFFFFFFFFFFFFFFFFF AND MUL OR SWAP1 SSTORE POP PUSH1 0x40 DUP3 ADD MLOAD DUP2 PUSH1 0x2 ADD PUSH1 0x0 PUSH2 0x100 EXP DUP2 SLOAD DUP2 PUSH20 0xFFFFFFFFFFFFFFFFFFFFFFFFFFFFFFFFFFFFFFFF MUL NOT AND SWAP1 DUP4 PUSH20 0xFFFFFFFFFFFFFFFFFFFFFFFFFFFFFFFFFFFFFFFF AND MUL OR SWAP1 SSTORE POP PUSH1 0x60 DUP3 ADD MLOAD DUP2 PUSH1 0x3 ADD SSTORE PUSH1 0x80 DUP3 ADD MLOAD DUP2 PUSH1 0x4 ADD SSTORE PUSH1 0xA0 DUP3 ADD MLOAD DUP2 PUSH1 0x5 ADD SWAP1 PUSH1 0xA PUSH2 0x2AAD SWAP3 SWAP2 SWAP1 PUSH2 0x365E JUMP JUMPDEST POP PUSH1 0xC0 DUP3 ADD MLOAD DUP2 PUSH1 0xF ADD PUSH1 0x0 PUSH2 0x100 EXP DUP2 SLOAD DUP2 PUSH4 0xFFFFFFFF MUL NOT AND SWAP1 DUP4 PUSH4 0xFFFFFFFF AND MUL OR SWAP1 SSTORE POP PUSH1 0xE0 DUP3 ADD MLOAD DUP2 PUSH1 0xF ADD PUSH1 0x4 PUSH2 0x100 EXP DUP2 SLOAD DUP2 PUSH1 0xFF MUL NOT AND SWAP1 DUP4 ISZERO ISZERO MUL OR SWAP1 SSTORE POP PUSH2 0x100 DUP3 ADD MLOAD DUP2 PUSH1 0xF ADD PUSH1 0x5 PUSH2 0x100 EXP DUP2 SLOAD DUP2 PUSH1 0xFF MUL NOT AND SWAP1 DUP4 ISZERO ISZERO MUL OR SWAP1 SSTORE POP PUSH2 0x120 DUP3 ADD MLOAD DUP2 PUSH1 0xF ADD PUSH1 0x6 PUSH2 0x100 EXP DUP2 SLOAD DUP2 PUSH1 0xFF MUL NOT AND SWAP1 DUP4 ISZERO ISZERO MUL OR SWAP1 SSTORE POP SWAP1 POP POP POP JUMP JUMPDEST PUSH1 0x0 PUSH20 0xFFFFFFFFFFFFFFFFFFFFFFFFFFFFFFFFFFFFFFFF AND PUSH1 0x2 PUSH1 0x0 CALLER PUSH20 0xFFFFFFFFFFFFFFFFFFFFFFFFFFFFFFFFFFFFFFFF AND PUSH20 0xFFFFFFFFFFFFFFFFFFFFFFFFFFFFFFFFFFFFFFFF AND DUP2 MSTORE PUSH1 0x20 ADD SWAP1 DUP2 MSTORE PUSH1 0x20 ADD PUSH1 0x0 KECCAK256 PUSH1 0x1 ADD PUSH1 0x4 SWAP1 SLOAD SWAP1 PUSH2 0x100 EXP SWAP1 DIV PUSH20 0xFFFFFFFFFFFFFFFFFFFFFFFFFFFFFFFFFFFFFFFF AND PUSH20 0xFFFFFFFFFFFFFFFFFFFFFFFFFFFFFFFFFFFFFFFF AND EQ PUSH2 0x2C0E JUMPI PUSH1 0x40 MLOAD PUSH32 0x8C379A000000000000000000000000000000000000000000000000000000000 DUP2 MSTORE PUSH1 0x4 ADD PUSH2 0x2C05 SWAP1 PUSH2 0x4047 JUMP JUMPDEST PUSH1 0x40 MLOAD DUP1 SWAP2 SUB SWAP1 REVERT JUMPDEST PUSH1 0x0 PUSH1 0x3 PUSH1 0x0 DUP4 PUSH5 0xFFFFFFFFFF AND PUSH5 0xFFFFFFFFFF AND DUP2 MSTORE PUSH1 0x20 ADD SWAP1 DUP2 MSTORE PUSH1 0x20 ADD PUSH1 0x0 KECCAK256 PUSH1 0x0 SWAP1 SLOAD SWAP1 PUSH2 0x100 EXP SWAP1 DIV PUSH20 0xFFFFFFFFFFFFFFFFFFFFFFFFFFFFFFFFFFFFFFFF AND SWAP1 POP PUSH1 0x1 PUSH1 0x5 PUSH1 0x0 DUP4 PUSH20 0xFFFFFFFFFFFFFFFFFFFFFFFFFFFFFFFFFFFFFFFF AND PUSH20 0xFFFFFFFFFFFFFFFFFFFFFFFFFFFFFFFFFFFFFFFF AND DUP2 MSTORE PUSH1 0x20 ADD SWAP1 DUP2 MSTORE PUSH1 0x20 ADD PUSH1 0x0 KECCAK256 PUSH1 0x0 SWAP1 SLOAD SWAP1 PUSH2 0x100 EXP SWAP1 DIV PUSH4 0xFFFFFFFF AND PUSH4 0xFFFFFFFF AND LT PUSH2 0x2D33 JUMPI PUSH1 0x1 PUSH1 0x5 PUSH1 0x0 DUP4 PUSH20 0xFFFFFFFFFFFFFFFFFFFFFFFFFFFFFFFFFFFFFFFF AND PUSH20 0xFFFFFFFFFFFFFFFFFFFFFFFFFFFFFFFFFFFFFFFF AND DUP2 MSTORE PUSH1 0x20 ADD SWAP1 DUP2 MSTORE PUSH1 0x20 ADD PUSH1 0x0 KECCAK256 PUSH1 0x0 DUP3 DUP3 DUP3 SWAP1 SLOAD SWAP1 PUSH2 0x100 EXP SWAP1 DIV PUSH4 0xFFFFFFFF AND PUSH2 0x2D10 SWAP2 SWAP1 PUSH2 0x4135 JUMP JUMPDEST SWAP3 POP PUSH2 0x100 EXP DUP2 SLOAD DUP2 PUSH4 0xFFFFFFFF MUL NOT AND SWAP1 DUP4 PUSH4 0xFFFFFFFF AND MUL OR SWAP1 SSTORE POP PUSH2 0x2D93 JUMP JUMPDEST PUSH1 0x1 PUSH1 0x5 PUSH1 0x0 DUP4 PUSH20 0xFFFFFFFFFFFFFFFFFFFFFFFFFFFFFFFFFFFFFFFF AND PUSH20 0xFFFFFFFFFFFFFFFFFFFFFFFFFFFFFFFFFFFFFFFF AND DUP2 MSTORE PUSH1 0x20 ADD SWAP1 DUP2 MSTORE PUSH1 0x20 ADD PUSH1 0x0 KECCAK256 PUSH1 0x0 PUSH2 0x100 EXP DUP2 SLOAD DUP2 PUSH4 0xFFFFFFFF MUL NOT AND SWAP1 DUP4 PUSH4 0xFFFFFFFF AND MUL OR SWAP1 SSTORE POP JUMPDEST CALLER PUSH1 0x6 PUSH1 0x0 DUP4 PUSH20 0xFFFFFFFFFFFFFFFFFFFFFFFFFFFFFFFFFFFFFFFF AND PUSH20 0xFFFFFFFFFFFFFFFFFFFFFFFFFFFFFFFFFFFFFFFF AND DUP2 MSTORE PUSH1 0x20 ADD SWAP1 DUP2 MSTORE PUSH1 0x20 ADD PUSH1 0x0 KECCAK256 PUSH1 0x0 PUSH1 0x5 PUSH1 0x0 DUP6 PUSH20 0xFFFFFFFFFFFFFFFFFFFFFFFFFFFFFFFFFFFFFFFF AND PUSH20 0xFFFFFFFFFFFFFFFFFFFFFFFFFFFFFFFFFFFFFFFF AND DUP2 MSTORE PUSH1 0x20 ADD SWAP1 DUP2 MSTORE PUSH1 0x20 ADD PUSH1 0x0 KECCAK256 PUSH1 0x0 SWAP1 SLOAD SWAP1 PUSH2 0x100 EXP SWAP1 DIV PUSH4 0xFFFFFFFF AND PUSH4 0xFFFFFFFF AND PUSH4 0xFFFFFFFF AND DUP2 MSTORE PUSH1 0x20 ADD SWAP1 DUP2 MSTORE PUSH1 0x20 ADD PUSH1 0x0 KECCAK256 PUSH1 0x0 PUSH2 0x100 EXP DUP2 SLOAD DUP2 PUSH20 0xFFFFFFFFFFFFFFFFFFFFFFFFFFFFFFFFFFFFFFFF MUL NOT AND SWAP1 DUP4 PUSH20 0xFFFFFFFFFFFFFFFFFFFFFFFFFFFFFFFFFFFFFFFF AND MUL OR SWAP1 SSTORE POP DUP1 PUSH1 0x2 PUSH1 0x0 CALLER PUSH20 0xFFFFFFFFFFFFFFFFFFFFFFFFFFFFFFFFFFFFFFFF AND PUSH20 0xFFFFFFFFFFFFFFFFFFFFFFFFFFFFFFFFFFFFFFFF AND DUP2 MSTORE PUSH1 0x20 ADD SWAP1 DUP2 MSTORE PUSH1 0x20 ADD PUSH1 0x0 KECCAK256 PUSH1 0x1 ADD PUSH1 0x4 PUSH2 0x100 EXP DUP2 SLOAD DUP2 PUSH20 0xFFFFFFFFFFFFFFFFFFFFFFFFFFFFFFFFFFFFFFFF MUL NOT AND SWAP1 DUP4 PUSH20 0xFFFFFFFFFFFFFFFFFFFFFFFFFFFFFFFFFFFFFFFF AND MUL OR SWAP1 SSTORE POP POP POP JUMP JUMPDEST PUSH1 0x2 PUSH1 0x20 MSTORE DUP1 PUSH1 0x0 MSTORE PUSH1 0x40 PUSH1 0x0 KECCAK256 PUSH1 0x0 SWAP2 POP SWAP1 POP DUP1 PUSH1 0x0 ADD SLOAD SWAP1 DUP1 PUSH1 0x1 ADD PUSH1 0x0 SWAP1 SLOAD SWAP1 PUSH2 0x100 EXP SWAP1 DIV PUSH4 0xFFFFFFFF AND SWAP1 DUP1 PUSH1 0x1 ADD PUSH1 0x4 SWAP1 SLOAD SWAP1 PUSH2 0x100 EXP SWAP1 DIV PUSH20 0xFFFFFFFFFFFFFFFFFFFFFFFFFFFFFFFFFFFFFFFF AND SWAP1 DUP1 PUSH1 0x1 ADD PUSH1 0x18 SWAP1 SLOAD SWAP1 PUSH2 0x100 EXP SWAP1 DIV PUSH5 0xFFFFFFFFFF AND SWAP1 DUP1 PUSH1 0x2 ADD PUSH1 0x0 SWAP1 SLOAD SWAP1 PUSH2 0x100 EXP SWAP1 DIV PUSH20 0xFFFFFFFFFFFFFFFFFFFFFFFFFFFFFFFFFFFFFFFF AND SWAP1 DUP1 PUSH1 0x2 ADD PUSH1 0x14 SWAP1 SLOAD SWAP1 PUSH2 0x100 EXP SWAP1 DIV PUSH4 0xFFFFFFFF AND SWAP1 DUP1 PUSH1 0x3 ADD PUSH1 0x0 SWAP1 SLOAD SWAP1 PUSH2 0x100 EXP SWAP1 DIV PUSH20 0xFFFFFFFFFFFFFFFFFFFFFFFFFFFFFFFFFFFFFFFF AND SWAP1 DUP1 PUSH1 0x3 ADD PUSH1 0x14 SWAP1 SLOAD SWAP1 PUSH2 0x100 EXP SWAP1 DIV PUSH1 0xFF AND SWAP1 DUP1 PUSH1 0x3 ADD PUSH1 0x15 SWAP1 SLOAD SWAP1 PUSH2 0x100 EXP SWAP1 DIV PUSH1 0xFF AND SWAP1 POP DUP10 JUMP JUMPDEST PUSH1 0x1 ISZERO ISZERO PUSH1 0x2 PUSH1 0x0 DUP5 PUSH1 0xC0 ADD MLOAD PUSH20 0xFFFFFFFFFFFFFFFFFFFFFFFFFFFFFFFFFFFFFFFF AND PUSH20 0xFFFFFFFFFFFFFFFFFFFFFFFFFFFFFFFFFFFFFFFF AND DUP2 MSTORE PUSH1 0x20 ADD SWAP1 DUP2 MSTORE PUSH1 0x20 ADD PUSH1 0x0 KECCAK256 PUSH1 0x3 ADD PUSH1 0x14 SWAP1 SLOAD SWAP1 PUSH2 0x100 EXP SWAP1 DIV PUSH1 0xFF AND ISZERO ISZERO EQ ISZERO DUP1 ISZERO PUSH2 0x3092 JUMPI POP CALLER PUSH20 0xFFFFFFFFFFFFFFFFFFFFFFFFFFFFFFFFFFFFFFFF AND DUP3 PUSH1 0xC0 ADD MLOAD PUSH20 0xFFFFFFFFFFFFFFFFFFFFFFFFFFFFFFFFFFFFFFFF AND EQ JUMPDEST PUSH2 0x30D1 JUMPI PUSH1 0x40 MLOAD PUSH32 0x8C379A000000000000000000000000000000000000000000000000000000000 DUP2 MSTORE PUSH1 0x4 ADD PUSH2 0x30C8 SWAP1 PUSH2 0x3FE7 JUMP JUMPDEST PUSH1 0x40 MLOAD DUP1 SWAP2 SUB SWAP1 REVERT JUMPDEST PUSH1 0x1 PUSH1 0x7 PUSH1 0x0 DUP4 PUSH20 0xFFFFFFFFFFFFFFFFFFFFFFFFFFFFFFFFFFFFFFFF AND PUSH20 0xFFFFFFFFFFFFFFFFFFFFFFFFFFFFFFFFFFFFFFFF AND DUP2 MSTORE PUSH1 0x20 ADD SWAP1 DUP2 MSTORE PUSH1 0x20 ADD PUSH1 0x0 KECCAK256 PUSH1 0x0 SWAP1 SLOAD SWAP1 PUSH2 0x100 EXP SWAP1 DIV PUSH4 0xFFFFFFFF AND PUSH4 0xFFFFFFFF AND LT PUSH2 0x31B0 JUMPI PUSH1 0x1 PUSH1 0x7 PUSH1 0x0 DUP4 PUSH20 0xFFFFFFFFFFFFFFFFFFFFFFFFFFFFFFFFFFFFFFFF AND PUSH20 0xFFFFFFFFFFFFFFFFFFFFFFFFFFFFFFFFFFFFFFFF AND DUP2 MSTORE PUSH1 0x20 ADD SWAP1 DUP2 MSTORE PUSH1 0x20 ADD PUSH1 0x0 KECCAK256 PUSH1 0x0 DUP3 DUP3 DUP3 SWAP1 SLOAD SWAP1 PUSH2 0x100 EXP SWAP1 DIV PUSH4 0xFFFFFFFF AND PUSH2 0x318D SWAP2 SWAP1 PUSH2 0x4135 JUMP JUMPDEST SWAP3 POP PUSH2 0x100 EXP DUP2 SLOAD DUP2 PUSH4 0xFFFFFFFF MUL NOT AND SWAP1 DUP4 PUSH4 0xFFFFFFFF AND MUL OR SWAP1 SSTORE POP PUSH2 0x3210 JUMP JUMPDEST PUSH1 0x1 PUSH1 0x7 PUSH1 0x0 DUP4 PUSH20 0xFFFFFFFFFFFFFFFFFFFFFFFFFFFFFFFFFFFFFFFF AND PUSH20 0xFFFFFFFFFFFFFFFFFFFFFFFFFFFFFFFFFFFFFFFF AND DUP2 MSTORE PUSH1 0x20 ADD SWAP1 DUP2 MSTORE PUSH1 0x20 ADD PUSH1 0x0 KECCAK256 PUSH1 0x0 PUSH2 0x100 EXP DUP2 SLOAD DUP2 PUSH4 0xFFFFFFFF MUL NOT AND SWAP1 DUP4 PUSH4 0xFFFFFFFF AND MUL OR SWAP1 SSTORE POP JUMPDEST DUP1 DUP3 PUSH1 0x80 ADD SWAP1 PUSH20 0xFFFFFFFFFFFFFFFFFFFFFFFFFFFFFFFFFFFFFFFF AND SWAP1 DUP2 PUSH20 0xFFFFFFFFFFFFFFFFFFFFFFFFFFFFFFFFFFFFFFFF AND DUP2 MSTORE POP POP PUSH1 0x7 PUSH1 0x0 DUP3 PUSH20 0xFFFFFFFFFFFFFFFFFFFFFFFFFFFFFFFFFFFFFFFF AND PUSH20 0xFFFFFFFFFFFFFFFFFFFFFFFFFFFFFFFFFFFFFFFF AND DUP2 MSTORE PUSH1 0x20 ADD SWAP1 DUP2 MSTORE PUSH1 0x20 ADD PUSH1 0x0 KECCAK256 PUSH1 0x0 SWAP1 SLOAD SWAP1 PUSH2 0x100 EXP SWAP1 DIV PUSH4 0xFFFFFFFF AND DUP3 PUSH1 0xA0 ADD SWAP1 PUSH4 0xFFFFFFFF AND SWAP1 DUP2 PUSH4 0xFFFFFFFF AND DUP2 MSTORE POP POP PUSH1 0x1 PUSH1 0x4 PUSH1 0x0 DUP3 DUP3 DUP3 SWAP1 SLOAD SWAP1 PUSH2 0x100 EXP SWAP1 DIV PUSH5 0xFFFFFFFFFF AND PUSH2 0x32D2 SWAP2 SWAP1 PUSH2 0x416F JUMP JUMPDEST SWAP3 POP PUSH2 0x100 EXP DUP2 SLOAD DUP2 PUSH5 0xFFFFFFFFFF MUL NOT AND SWAP1 DUP4 PUSH5 0xFFFFFFFFFF AND MUL OR SWAP1 SSTORE POP CALLER PUSH1 0x3 PUSH1 0x0 PUSH1 0x4 PUSH1 0x0 SWAP1 SLOAD SWAP1 PUSH2 0x100 EXP SWAP1 DIV PUSH5 0xFFFFFFFFFF AND PUSH5 0xFFFFFFFFFF AND PUSH5 0xFFFFFFFFFF AND DUP2 MSTORE PUSH1 0x20 ADD SWAP1 DUP2 MSTORE PUSH1 0x20 ADD PUSH1 0x0 KECCAK256 PUSH1 0x0 PUSH2 0x100 EXP DUP2 SLOAD DUP2 PUSH20 0xFFFFFFFFFFFFFFFFFFFFFFFFFFFFFFFFFFFFFFFF MUL NOT AND SWAP1 DUP4 PUSH20 0xFFFFFFFFFFFFFFFFFFFFFFFFFFFFFFFFFFFFFFFF AND MUL OR SWAP1 SSTORE POP PUSH1 0x4 PUSH1 0x0 SWAP1 SLOAD SWAP1 PUSH2 0x100 EXP SWAP1 DIV PUSH5 0xFFFFFFFFFF AND DUP3 PUSH1 0x60 ADD SWAP1 PUSH5 0xFFFFFFFFFF AND SWAP1 DUP2 PUSH5 0xFFFFFFFFFF AND DUP2 MSTORE POP POP DUP2 PUSH1 0x2 PUSH1 0x0 DUP5 PUSH1 0xC0 ADD MLOAD PUSH20 0xFFFFFFFFFFFFFFFFFFFFFFFFFFFFFFFFFFFFFFFF AND PUSH20 0xFFFFFFFFFFFFFFFFFFFFFFFFFFFFFFFFFFFFFFFF AND DUP2 MSTORE PUSH1 0x20 ADD SWAP1 DUP2 MSTORE PUSH1 0x20 ADD PUSH1 0x0 KECCAK256 PUSH1 0x0 DUP3 ADD MLOAD DUP2 PUSH1 0x0 ADD SSTORE PUSH1 0x20 DUP3 ADD MLOAD DUP2 PUSH1 0x1 ADD PUSH1 0x0 PUSH2 0x100 EXP DUP2 SLOAD DUP2 PUSH4 0xFFFFFFFF MUL NOT AND SWAP1 DUP4 PUSH4 0xFFFFFFFF AND MUL OR SWAP1 SSTORE POP PUSH1 0x40 DUP3 ADD MLOAD DUP2 PUSH1 0x1 ADD PUSH1 0x4 PUSH2 0x100 EXP DUP2 SLOAD DUP2 PUSH20 0xFFFFFFFFFFFFFFFFFFFFFFFFFFFFFFFFFFFFFFFF MUL NOT AND SWAP1 DUP4 PUSH20 0xFFFFFFFFFFFFFFFFFFFFFFFFFFFFFFFFFFFFFFFF AND MUL OR SWAP1 SSTORE POP PUSH1 0x60 DUP3 ADD MLOAD DUP2 PUSH1 0x1 ADD PUSH1 0x18 PUSH2 0x100 EXP DUP2 SLOAD DUP2 PUSH5 0xFFFFFFFFFF MUL NOT AND SWAP1 DUP4 PUSH5 0xFFFFFFFFFF AND MUL OR SWAP1 SSTORE POP PUSH1 0x80 DUP3 ADD MLOAD DUP2 PUSH1 0x2 ADD PUSH1 0x0 PUSH2 0x100 EXP DUP2 SLOAD DUP2 PUSH20 0xFFFFFFFFFFFFFFFFFFFFFFFFFFFFFFFFFFFFFFFF MUL NOT AND SWAP1 DUP4 PUSH20 0xFFFFFFFFFFFFFFFFFFFFFFFFFFFFFFFFFFFFFFFF AND MUL OR SWAP1 SSTORE POP PUSH1 0xA0 DUP3 ADD MLOAD DUP2 PUSH1 0x2 ADD PUSH1 0x14 PUSH2 0x100 EXP DUP2 SLOAD DUP2 PUSH4 0xFFFFFFFF MUL NOT AND SWAP1 DUP4 PUSH4 0xFFFFFFFF AND MUL OR SWAP1 SSTORE POP PUSH1 0xC0 DUP3 ADD MLOAD DUP2 PUSH1 0x3 ADD PUSH1 0x0 PUSH2 0x100 EXP DUP2 SLOAD DUP2 PUSH20 0xFFFFFFFFFFFFFFFFFFFFFFFFFFFFFFFFFFFFFFFF MUL NOT AND SWAP1 DUP4 PUSH20 0xFFFFFFFFFFFFFFFFFFFFFFFFFFFFFFFFFFFFFFFF AND MUL OR SWAP1 SSTORE POP PUSH1 0xE0 DUP3 ADD MLOAD DUP2 PUSH1 0x3 ADD PUSH1 0x14 PUSH2 0x100 EXP DUP2 SLOAD DUP2 PUSH1 0xFF MUL NOT AND SWAP1 DUP4 ISZERO ISZERO MUL OR SWAP1 SSTORE POP PUSH2 0x100 DUP3 ADD MLOAD DUP2 PUSH1 0x3 ADD PUSH1 0x15 PUSH2 0x100 EXP DUP2 SLOAD DUP2 PUSH1 0xFF MUL NOT AND SWAP1 DUP4 ISZERO ISZERO MUL OR SWAP1 SSTORE POP SWAP1 POP POP CALLER PUSH1 0x8 PUSH1 0x0 DUP4 PUSH20 0xFFFFFFFFFFFFFFFFFFFFFFFFFFFFFFFFFFFFFFFF AND PUSH20 0xFFFFFFFFFFFFFFFFFFFFFFFFFFFFFFFFFFFFFFFF AND DUP2 MSTORE PUSH1 0x20 ADD SWAP1 DUP2 MSTORE PUSH1 0x20 ADD PUSH1 0x0 KECCAK256 PUSH1 0x0 PUSH1 0x7 PUSH1 0x0 DUP6 PUSH20 0xFFFFFFFFFFFFFFFFFFFFFFFFFFFFFFFFFFFFFFFF AND PUSH20 0xFFFFFFFFFFFFFFFFFFFFFFFFFFFFFFFFFFFFFFFF AND DUP2 MSTORE PUSH1 0x20 ADD SWAP1 DUP2 MSTORE PUSH1 0x20 ADD PUSH1 0x0 KECCAK256 PUSH1 0x0 SWAP1 SLOAD SWAP1 PUSH2 0x100 EXP SWAP1 DIV PUSH4 0xFFFFFFFF AND PUSH4 0xFFFFFFFF AND PUSH4 0xFFFFFFFF AND DUP2 MSTORE PUSH1 0x20 ADD SWAP1 DUP2 MSTORE PUSH1 0x20 ADD PUSH1 0x0 KECCAK256 PUSH1 0x0 PUSH2 0x100 EXP DUP2 SLOAD DUP2 PUSH20 0xFFFFFFFFFFFFFFFFFFFFFFFFFFFFFFFFFFFFFFFF MUL NOT AND SWAP1 DUP4 PUSH20 0xFFFFFFFFFFFFFFFFFFFFFFFFFFFFFFFFFFFFFFFF AND MUL OR SWAP1 SSTORE POP POP POP JUMP JUMPDEST DUP3 PUSH1 0xA DUP2 ADD SWAP3 DUP3 ISZERO PUSH2 0x368D JUMPI SWAP2 PUSH1 0x20 MUL DUP3 ADD JUMPDEST DUP3 DUP2 GT ISZERO PUSH2 0x368C JUMPI DUP3 MLOAD DUP3 SSTORE SWAP2 PUSH1 0x20 ADD SWAP2 SWAP1 PUSH1 0x1 ADD SWAP1 PUSH2 0x3671 JUMP JUMPDEST JUMPDEST POP SWAP1 POP PUSH2 0x369A SWAP2 SWAP1 PUSH2 0x3759 JUMP JUMPDEST POP SWAP1 JUMP JUMPDEST POP DUP1 PUSH1 0xA ADD SWAP1 PUSH2 0x36AE SWAP2 SWAP1 PUSH2 0x3759 JUMP JUMPDEST POP JUMP JUMPDEST PUSH1 0x40 MLOAD DUP1 PUSH2 0x120 ADD PUSH1 0x40 MSTORE DUP1 PUSH1 0x0 DUP1 NOT AND DUP2 MSTORE PUSH1 0x20 ADD PUSH1 0x0 PUSH4 0xFFFFFFFF AND DUP2 MSTORE PUSH1 0x20 ADD PUSH1 0x0 PUSH20 0xFFFFFFFFFFFFFFFFFFFFFFFFFFFFFFFFFFFFFFFF AND DUP2 MSTORE PUSH1 0x20 ADD PUSH1 0x0 PUSH5 0xFFFFFFFFFF AND DUP2 MSTORE PUSH1 0x20 ADD PUSH1 0x0 PUSH20 0xFFFFFFFFFFFFFFFFFFFFFFFFFFFFFFFFFFFFFFFF AND DUP2 MSTORE PUSH1 0x20 ADD PUSH1 0x0 PUSH4 0xFFFFFFFF AND DUP2 MSTORE PUSH1 0x20 ADD PUSH1 0x0 PUSH20 0xFFFFFFFFFFFFFFFFFFFFFFFFFFFFFFFFFFFFFFFF AND DUP2 MSTORE PUSH1 0x20 ADD PUSH1 0x0 ISZERO ISZERO DUP2 MSTORE PUSH1 0x20 ADD PUSH1 0x0 ISZERO ISZERO DUP2 MSTORE POP SWAP1 JUMP JUMPDEST JUMPDEST DUP1 DUP3 GT ISZERO PUSH2 0x3772 JUMPI PUSH1 0x0 DUP2 PUSH1 0x0 SWAP1 SSTORE POP PUSH1 0x1 ADD PUSH2 0x375A JUMP JUMPDEST POP SWAP1 JUMP JUMPDEST PUSH1 0x0 PUSH2 0x3789 PUSH2 0x3784 DUP5 PUSH2 0x40FE JUMP JUMPDEST PUSH2 0x40D9 JUMP JUMPDEST SWAP1 POP DUP1 DUP3 DUP6 PUSH1 0x20 DUP7 MUL DUP3 ADD GT ISZERO PUSH2 0x37A3 JUMPI PUSH2 0x37A2 PUSH2 0x42AC JUMP JUMPDEST JUMPDEST PUSH1 0x0 JUMPDEST DUP6 DUP2 LT ISZERO PUSH2 0x37D3 JUMPI DUP2 PUSH2 0x37B9 DUP9 DUP3 PUSH2 0x3832 JUMP JUMPDEST DUP5 MSTORE PUSH1 0x20 DUP5 ADD SWAP4 POP PUSH1 0x20 DUP4 ADD SWAP3 POP POP PUSH1 0x1 DUP2 ADD SWAP1 POP PUSH2 0x37A6 JUMP JUMPDEST POP POP POP SWAP4 SWAP3 POP POP POP JUMP JUMPDEST PUSH1 0x0 DUP2 CALLDATALOAD SWAP1 POP PUSH2 0x37EC DUP2 PUSH2 0x440F JUMP JUMPDEST SWAP3 SWAP2 POP POP JUMP JUMPDEST PUSH1 0x0 DUP3 PUSH1 0x1F DUP4 ADD SLT PUSH2 0x3807 JUMPI PUSH2 0x3806 PUSH2 0x42A2 JUMP JUMPDEST JUMPDEST PUSH1 0xA PUSH2 0x3814 DUP5 DUP3 DUP6 PUSH2 0x3776 JUMP JUMPDEST SWAP2 POP POP SWAP3 SWAP2 POP POP JUMP JUMPDEST PUSH1 0x0 DUP2 CALLDATALOAD SWAP1 POP PUSH2 0x382C DUP2 PUSH2 0x4426 JUMP JUMPDEST SWAP3 SWAP2 POP POP JUMP JUMPDEST PUSH1 0x0 DUP2 CALLDATALOAD SWAP1 POP PUSH2 0x3841 DUP2 PUSH2 0x443D JUMP JUMPDEST SWAP3 SWAP2 POP POP JUMP JUMPDEST PUSH1 0x0 PUSH2 0x120 DUP3 DUP5 SUB SLT ISZERO PUSH2 0x385E JUMPI PUSH2 0x385D PUSH2 0x42A7 JUMP JUMPDEST JUMPDEST PUSH2 0x3869 PUSH2 0x120 PUSH2 0x40D9 JUMP JUMPDEST SWAP1 POP PUSH1 0x0 PUSH2 0x3879 DUP5 DUP3 DUP6 ADD PUSH2 0x3832 JUMP JUMPDEST PUSH1 0x0 DUP4 ADD MSTORE POP PUSH1 0x20 PUSH2 0x388D DUP5 DUP3 DUP6 ADD PUSH2 0x3A34 JUMP JUMPDEST PUSH1 0x20 DUP4 ADD MSTORE POP PUSH1 0x40 PUSH2 0x38A1 DUP5 DUP3 DUP6 ADD PUSH2 0x37DD JUMP JUMPDEST PUSH1 0x40 DUP4 ADD MSTORE POP PUSH1 0x60 PUSH2 0x38B5 DUP5 DUP3 DUP6 ADD PUSH2 0x3A49 JUMP JUMPDEST PUSH1 0x60 DUP4 ADD MSTORE POP PUSH1 0x80 PUSH2 0x38C9 DUP5 DUP3 DUP6 ADD PUSH2 0x37DD JUMP JUMPDEST PUSH1 0x80 DUP4 ADD MSTORE POP PUSH1 0xA0 PUSH2 0x38DD DUP5 DUP3 DUP6 ADD PUSH2 0x3A34 JUMP JUMPDEST PUSH1 0xA0 DUP4 ADD MSTORE POP PUSH1 0xC0 PUSH2 0x38F1 DUP5 DUP3 DUP6 ADD PUSH2 0x37DD JUMP JUMPDEST PUSH1 0xC0 DUP4 ADD MSTORE POP PUSH1 0xE0 PUSH2 0x3905 DUP5 DUP3 DUP6 ADD PUSH2 0x381D JUMP JUMPDEST PUSH1 0xE0 DUP4 ADD MSTORE POP PUSH2 0x100 PUSH2 0x391A DUP5 DUP3 DUP6 ADD PUSH2 0x381D JUMP JUMPDEST PUSH2 0x100 DUP4 ADD MSTORE POP SWAP3 SWAP2 POP POP JUMP JUMPDEST PUSH1 0x0 PUSH2 0x260 DUP3 DUP5 SUB SLT ISZERO PUSH2 0x393E JUMPI PUSH2 0x393D PUSH2 0x42A7 JUMP JUMPDEST JUMPDEST PUSH2 0x3949 PUSH2 0x140 PUSH2 0x40D9 JUMP JUMPDEST SWAP1 POP PUSH1 0x0 PUSH2 0x3959 DUP5 DUP3 DUP6 ADD PUSH2 0x37DD JUMP JUMPDEST PUSH1 0x0 DUP4 ADD MSTORE POP PUSH1 0x20 PUSH2 0x396D DUP5 DUP3 DUP6 ADD PUSH2 0x37DD JUMP JUMPDEST PUSH1 0x20 DUP4 ADD MSTORE POP PUSH1 0x40 PUSH2 0x3981 DUP5 DUP3 DUP6 ADD PUSH2 0x3A1F JUMP JUMPDEST PUSH1 0x40 DUP4 ADD MSTORE POP PUSH1 0x60 PUSH2 0x3995 DUP5 DUP3 DUP6 ADD PUSH2 0x3832 JUMP JUMPDEST PUSH1 0x60 DUP4 ADD MSTORE POP PUSH1 0x80 PUSH2 0x39A9 DUP5 DUP3 DUP6 ADD PUSH2 0x3832 JUMP JUMPDEST PUSH1 0x80 DUP4 ADD MSTORE POP PUSH1 0xA0 PUSH2 0x39BD DUP5 DUP3 DUP6 ADD PUSH2 0x37F2 JUMP JUMPDEST PUSH1 0xA0 DUP4 ADD MSTORE POP PUSH2 0x1E0 PUSH2 0x39D2 DUP5 DUP3 DUP6 ADD PUSH2 0x3A34 JUMP JUMPDEST PUSH1 0xC0 DUP4 ADD MSTORE POP PUSH2 0x200 PUSH2 0x39E7 DUP5 DUP3 DUP6 ADD PUSH2 0x381D JUMP JUMPDEST PUSH1 0xE0 DUP4 ADD MSTORE POP PUSH2 0x220 PUSH2 0x39FC DUP5 DUP3 DUP6 ADD PUSH2 0x381D JUMP JUMPDEST PUSH2 0x100 DUP4 ADD MSTORE POP PUSH2 0x240 PUSH2 0x3A12 DUP5 DUP3 DUP6 ADD PUSH2 0x381D JUMP JUMPDEST PUSH2 0x120 DUP4 ADD MSTORE POP SWAP3 SWAP2 POP POP JUMP JUMPDEST PUSH1 0x0 DUP2 CALLDATALOAD SWAP1 POP PUSH2 0x3A2E DUP2 PUSH2 0x4454 JUMP JUMPDEST SWAP3 SWAP2 POP POP JUMP JUMPDEST PUSH1 0x0 DUP2 CALLDATALOAD SWAP1 POP PUSH2 0x3A43 DUP2 PUSH2 0x446B JUMP JUMPDEST SWAP3 SWAP2 POP POP JUMP JUMPDEST PUSH1 0x0 DUP2 CALLDATALOAD SWAP1 POP PUSH2 0x3A58 DUP2 PUSH2 0x4482 JUMP JUMPDEST SWAP3 SWAP2 POP POP JUMP JUMPDEST PUSH1 0x0 PUSH1 0x20 DUP3 DUP5 SUB SLT ISZERO PUSH2 0x3A74 JUMPI PUSH2 0x3A73 PUSH2 0x42B1 JUMP JUMPDEST JUMPDEST PUSH1 0x0 PUSH2 0x3A82 DUP5 DUP3 DUP6 ADD PUSH2 0x37DD JUMP JUMPDEST SWAP2 POP POP SWAP3 SWAP2 POP POP JUMP JUMPDEST PUSH1 0x0 DUP1 PUSH1 0x40 DUP4 DUP6 SUB SLT ISZERO PUSH2 0x3AA2 JUMPI PUSH2 0x3AA1 PUSH2 0x42B1 JUMP JUMPDEST JUMPDEST PUSH1 0x0 PUSH2 0x3AB0 DUP6 DUP3 DUP7 ADD PUSH2 0x37DD JUMP JUMPDEST SWAP3 POP POP PUSH1 0x20 PUSH2 0x3AC1 DUP6 DUP3 DUP7 ADD PUSH2 0x3A34 JUMP JUMPDEST SWAP2 POP POP SWAP3 POP SWAP3 SWAP1 POP JUMP JUMPDEST PUSH1 0x0 PUSH1 0x20 DUP3 DUP5 SUB SLT ISZERO PUSH2 0x3AE1 JUMPI PUSH2 0x3AE0 PUSH2 0x42B1 JUMP JUMPDEST JUMPDEST PUSH1 0x0 PUSH2 0x3AEF DUP5 DUP3 DUP6 ADD PUSH2 0x3832 JUMP JUMPDEST SWAP2 POP POP SWAP3 SWAP2 POP POP JUMP JUMPDEST PUSH1 0x0 PUSH2 0x120 DUP3 DUP5 SUB SLT ISZERO PUSH2 0x3B0F JUMPI PUSH2 0x3B0E PUSH2 0x42B1 JUMP JUMPDEST JUMPDEST PUSH1 0x0 PUSH2 0x3B1D DUP5 DUP3 DUP6 ADD PUSH2 0x3847 JUMP JUMPDEST SWAP2 POP POP SWAP3 SWAP2 POP POP JUMP JUMPDEST PUSH1 0x0 DUP1 PUSH2 0x140 DUP4 DUP6 SUB SLT ISZERO PUSH2 0x3B3E JUMPI PUSH2 0x3B3D PUSH2 0x42B1 JUMP JUMPDEST JUMPDEST PUSH1 0x0 PUSH2 0x3B4C DUP6 DUP3 DUP7 ADD PUSH2 0x3847 JUMP JUMPDEST SWAP3 POP POP PUSH2 0x120 PUSH2 0x3B5E DUP6 DUP3 DUP7 ADD PUSH2 0x37DD JUMP JUMPDEST SWAP2 POP POP SWAP3 POP SWAP3 SWAP1 POP JUMP JUMPDEST PUSH1 0x0 PUSH2 0x260 DUP3 DUP5 SUB SLT ISZERO PUSH2 0x3B7F JUMPI PUSH2 0x3B7E PUSH2 0x42B1 JUMP JUMPDEST JUMPDEST PUSH1 0x0 PUSH2 0x3B8D DUP5 DUP3 DUP6 ADD PUSH2 0x3927 JUMP JUMPDEST SWAP2 POP POP SWAP3 SWAP2 POP POP JUMP JUMPDEST PUSH1 0x0 PUSH1 0x20 DUP3 DUP5 SUB SLT ISZERO PUSH2 0x3BAC JUMPI PUSH2 0x3BAB PUSH2 0x42B1 JUMP JUMPDEST JUMPDEST PUSH1 0x0 PUSH2 0x3BBA DUP5 DUP3 DUP6 ADD PUSH2 0x3A49 JUMP JUMPDEST SWAP2 POP POP SWAP3 SWAP2 POP POP JUMP JUMPDEST PUSH2 0x3BCC DUP2 PUSH2 0x41AA JUMP JUMPDEST DUP3 MSTORE POP POP JUMP JUMPDEST PUSH2 0x3BDB DUP2 PUSH2 0x41AA JUMP JUMPDEST DUP3 MSTORE POP POP JUMP JUMPDEST PUSH2 0x3BEA DUP2 PUSH2 0x41BC JUMP JUMPDEST DUP3 MSTORE POP POP JUMP JUMPDEST PUSH2 0x3BF9 DUP2 PUSH2 0x41BC JUMP JUMPDEST DUP3 MSTORE POP POP JUMP JUMPDEST PUSH2 0x3C08 DUP2 PUSH2 0x41C8 JUMP JUMPDEST DUP3 MSTORE POP POP JUMP JUMPDEST PUSH2 0x3C17 DUP2 PUSH2 0x41C8 JUMP JUMPDEST DUP3 MSTORE POP POP JUMP JUMPDEST PUSH1 0x0 PUSH2 0x3C2A PUSH1 0x18 DUP4 PUSH2 0x4124 JUMP JUMPDEST SWAP2 POP PUSH2 0x3C35 DUP3 PUSH2 0x42C7 JUMP JUMPDEST PUSH1 0x20 DUP3 ADD SWAP1 POP SWAP2 SWAP1 POP JUMP JUMPDEST PUSH1 0x0 PUSH2 0x3C4D PUSH1 0x17 DUP4 PUSH2 0x4124 JUMP JUMPDEST SWAP2 POP PUSH2 0x3C58 DUP3 PUSH2 0x42F0 JUMP JUMPDEST PUSH1 0x20 DUP3 ADD SWAP1 POP SWAP2 SWAP1 POP JUMP JUMPDEST PUSH1 0x0 PUSH2 0x3C70 PUSH1 0x11 DUP4 PUSH2 0x4124 JUMP JUMPDEST SWAP2 POP PUSH2 0x3C7B DUP3 PUSH2 0x4319 JUMP JUMPDEST PUSH1 0x20 DUP3 ADD SWAP1 POP SWAP2 SWAP1 POP JUMP JUMPDEST PUSH1 0x0 PUSH2 0x3C93 PUSH1 0x12 DUP4 PUSH2 0x4124 JUMP JUMPDEST SWAP2 POP PUSH2 0x3C9E DUP3 PUSH2 0x4342 JUMP JUMPDEST PUSH1 0x20 DUP3 ADD SWAP1 POP SWAP2 SWAP1 POP JUMP JUMPDEST PUSH1 0x0 PUSH2 0x3CB6 PUSH1 0x14 DUP4 PUSH2 0x4124 JUMP JUMPDEST SWAP2 POP PUSH2 0x3CC1 DUP3 PUSH2 0x436B JUMP JUMPDEST PUSH1 0x20 DUP3 ADD SWAP1 POP SWAP2 SWAP1 POP JUMP JUMPDEST PUSH1 0x0 PUSH2 0x3CD9 PUSH1 0x16 DUP4 PUSH2 0x4124 JUMP JUMPDEST SWAP2 POP PUSH2 0x3CE4 DUP3 PUSH2 0x4394 JUMP JUMPDEST PUSH1 0x20 DUP3 ADD SWAP1 POP SWAP2 SWAP1 POP JUMP JUMPDEST PUSH1 0x0 PUSH2 0x3CFC PUSH1 0x1F DUP4 PUSH2 0x4124 JUMP JUMPDEST SWAP2 POP PUSH2 0x3D07 DUP3 PUSH2 0x43BD JUMP JUMPDEST PUSH1 0x20 DUP3 ADD SWAP1 POP SWAP2 SWAP1 POP JUMP JUMPDEST PUSH1 0x0 PUSH2 0x3D1F PUSH1 0x15 DUP4 PUSH2 0x4124 JUMP JUMPDEST SWAP2 POP PUSH2 0x3D2A DUP3 PUSH2 0x43E6 JUMP JUMPDEST PUSH1 0x20 DUP3 ADD SWAP1 POP SWAP2 SWAP1 POP JUMP JUMPDEST PUSH2 0x120 DUP3 ADD PUSH1 0x0 DUP3 ADD MLOAD PUSH2 0x3D4C PUSH1 0x0 DUP6 ADD DUP3 PUSH2 0x3BFF JUMP JUMPDEST POP PUSH1 0x20 DUP3 ADD MLOAD PUSH2 0x3D5F PUSH1 0x20 DUP6 ADD DUP3 PUSH2 0x3DFB JUMP JUMPDEST POP PUSH1 0x40 DUP3 ADD MLOAD PUSH2 0x3D72 PUSH1 0x40 DUP6 ADD DUP3 PUSH2 0x3BC3 JUMP JUMPDEST POP PUSH1 0x60 DUP3 ADD MLOAD PUSH2 0x3D85 PUSH1 0x60 DUP6 ADD DUP3 PUSH2 0x3E19 JUMP JUMPDEST POP PUSH1 0x80 DUP3 ADD MLOAD PUSH2 0x3D98 PUSH1 0x80 DUP6 ADD DUP3 PUSH2 0x3BC3 JUMP JUMPDEST POP PUSH1 0xA0 DUP3 ADD MLOAD PUSH2 0x3DAB PUSH1 0xA0 DUP6 ADD DUP3 PUSH2 0x3DFB JUMP JUMPDEST POP PUSH1 0xC0 DUP3 ADD MLOAD PUSH2 0x3DBE PUSH1 0xC0 DUP6 ADD DUP3 PUSH2 0x3BC3 JUMP JUMPDEST POP PUSH1 0xE0 DUP3 ADD MLOAD PUSH2 0x3DD1 PUSH1 0xE0 DUP6 ADD DUP3 PUSH2 0x3BE1 JUMP JUMPDEST POP PUSH2 0x100 DUP3 ADD MLOAD PUSH2 0x3DE6 PUSH2 0x100 DUP6 ADD DUP3 PUSH2 0x3BE1 JUMP JUMPDEST POP POP POP POP JUMP JUMPDEST PUSH2 0x3DF5 DUP2 PUSH2 0x41D2 JUMP JUMPDEST DUP3 MSTORE POP POP JUMP JUMPDEST PUSH2 0x3E04 DUP2 PUSH2 0x41F2 JUMP JUMPDEST DUP3 MSTORE POP POP JUMP JUMPDEST PUSH2 0x3E13 DUP2 PUSH2 0x41F2 JUMP JUMPDEST DUP3 MSTORE POP POP JUMP JUMPDEST PUSH2 0x3E22 DUP2 PUSH2 0x4202 JUMP JUMPDEST DUP3 MSTORE POP POP JUMP JUMPDEST PUSH2 0x3E31 DUP2 PUSH2 0x4202 JUMP JUMPDEST DUP3 MSTORE POP POP JUMP JUMPDEST PUSH1 0x0 PUSH1 0x20 DUP3 ADD SWAP1 POP PUSH2 0x3E4C PUSH1 0x0 DUP4 ADD DUP5 PUSH2 0x3BD2 JUMP JUMPDEST SWAP3 SWAP2 POP POP JUMP JUMPDEST PUSH1 0x0 PUSH2 0x120 DUP3 ADD SWAP1 POP PUSH2 0x3E68 PUSH1 0x0 DUP4 ADD DUP13 PUSH2 0x3BD2 JUMP JUMPDEST PUSH2 0x3E75 PUSH1 0x20 DUP4 ADD DUP12 PUSH2 0x3BD2 JUMP JUMPDEST PUSH2 0x3E82 PUSH1 0x40 DUP4 ADD DUP11 PUSH2 0x3DEC JUMP JUMPDEST PUSH2 0x3E8F PUSH1 0x60 DUP4 ADD DUP10 PUSH2 0x3C0E JUMP JUMPDEST PUSH2 0x3E9C PUSH1 0x80 DUP4 ADD DUP9 PUSH2 0x3C0E JUMP JUMPDEST PUSH2 0x3EA9 PUSH1 0xA0 DUP4 ADD DUP8 PUSH2 0x3E0A JUMP JUMPDEST PUSH2 0x3EB6 PUSH1 0xC0 DUP4 ADD DUP7 PUSH2 0x3BF0 JUMP JUMPDEST PUSH2 0x3EC3 PUSH1 0xE0 DUP4 ADD DUP6 PUSH2 0x3BF0 JUMP JUMPDEST PUSH2 0x3ED1 PUSH2 0x100 DUP4 ADD DUP5 PUSH2 0x3BF0 JUMP JUMPDEST SWAP11 SWAP10 POP POP POP POP POP POP POP POP POP POP JUMP JUMPDEST PUSH1 0x0 PUSH1 0x20 DUP3 ADD SWAP1 POP PUSH2 0x3EF4 PUSH1 0x0 DUP4 ADD DUP5 PUSH2 0x3BF0 JUMP JUMPDEST SWAP3 SWAP2 POP POP JUMP JUMPDEST PUSH1 0x0 PUSH2 0x120 DUP3 ADD SWAP1 POP PUSH2 0x3F10 PUSH1 0x0 DUP4 ADD DUP13 PUSH2 0x3C0E JUMP JUMPDEST PUSH2 0x3F1D PUSH1 0x20 DUP4 ADD DUP12 PUSH2 0x3E0A JUMP JUMPDEST PUSH2 0x3F2A PUSH1 0x40 DUP4 ADD DUP11 PUSH2 0x3BD2 JUMP JUMPDEST PUSH2 0x3F37 PUSH1 0x60 DUP4 ADD DUP10 PUSH2 0x3E28 JUMP JUMPDEST PUSH2 0x3F44 PUSH1 0x80 DUP4 ADD DUP9 PUSH2 0x3BD2 JUMP JUMPDEST PUSH2 0x3F51 PUSH1 0xA0 DUP4 ADD DUP8 PUSH2 0x3E0A JUMP JUMPDEST PUSH2 0x3F5E PUSH1 0xC0 DUP4 ADD DUP7 PUSH2 0x3BD2 JUMP JUMPDEST PUSH2 0x3F6B PUSH1 0xE0 DUP4 ADD DUP6 PUSH2 0x3BF0 JUMP JUMPDEST PUSH2 0x3F79 PUSH2 0x100 DUP4 ADD DUP5 PUSH2 0x3BF0 JUMP JUMPDEST SWAP11 SWAP10 POP POP POP POP POP POP POP POP POP POP JUMP JUMPDEST PUSH1 0x0 PUSH1 0x20 DUP3 ADD SWAP1 POP DUP2 DUP2 SUB PUSH1 0x0 DUP4 ADD MSTORE PUSH2 0x3FA0 DUP2 PUSH2 0x3C1D JUMP JUMPDEST SWAP1 POP SWAP2 SWAP1 POP JUMP JUMPDEST PUSH1 0x0 PUSH1 0x20 DUP3 ADD SWAP1 POP DUP2 DUP2 SUB PUSH1 0x0 DUP4 ADD MSTORE PUSH2 0x3FC0 DUP2 PUSH2 0x3C40 JUMP JUMPDEST SWAP1 POP SWAP2 SWAP1 POP JUMP JUMPDEST PUSH1 0x0 PUSH1 0x20 DUP3 ADD SWAP1 POP DUP2 DUP2 SUB PUSH1 0x0 DUP4 ADD MSTORE PUSH2 0x3FE0 DUP2 PUSH2 0x3C63 JUMP JUMPDEST SWAP1 POP SWAP2 SWAP1 POP JUMP JUMPDEST PUSH1 0x0 PUSH1 0x20 DUP3 ADD SWAP1 POP DUP2 DUP2 SUB PUSH1 0x0 DUP4 ADD MSTORE PUSH2 0x4000 DUP2 PUSH2 0x3C86 JUMP JUMPDEST SWAP1 POP SWAP2 SWAP1 POP JUMP JUMPDEST PUSH1 0x0 PUSH1 0x20 DUP3 ADD SWAP1 POP DUP2 DUP2 SUB PUSH1 0x0 DUP4 ADD MSTORE PUSH2 0x4020 DUP2 PUSH2 0x3CA9 JUMP JUMPDEST SWAP1 POP SWAP2 SWAP1 POP JUMP JUMPDEST PUSH1 0x0 PUSH1 0x20 DUP3 ADD SWAP1 POP DUP2 DUP2 SUB PUSH1 0x0 DUP4 ADD MSTORE PUSH2 0x4040 DUP2 PUSH2 0x3CCC JUMP JUMPDEST SWAP1 POP SWAP2 SWAP1 POP JUMP JUMPDEST PUSH1 0x0 PUSH1 0x20 DUP3 ADD SWAP1 POP DUP2 DUP2 SUB PUSH1 0x0 DUP4 ADD MSTORE PUSH2 0x4060 DUP2 PUSH2 0x3CEF JUMP JUMPDEST SWAP1 POP SWAP2 SWAP1 POP JUMP JUMPDEST PUSH1 0x0 PUSH1 0x20 DUP3 ADD SWAP1 POP DUP2 DUP2 SUB PUSH1 0x0 DUP4 ADD MSTORE PUSH2 0x4080 DUP2 PUSH2 0x3D12 JUMP JUMPDEST SWAP1 POP SWAP2 SWAP1 POP JUMP JUMPDEST PUSH1 0x0 PUSH2 0x120 DUP3 ADD SWAP1 POP PUSH2 0x409D PUSH1 0x0 DUP4 ADD DUP5 PUSH2 0x3D35 JUMP JUMPDEST SWAP3 SWAP2 POP POP JUMP JUMPDEST PUSH1 0x0 PUSH1 0x20 DUP3 ADD SWAP1 POP PUSH2 0x40B8 PUSH1 0x0 DUP4 ADD DUP5 PUSH2 0x3E0A JUMP JUMPDEST SWAP3 SWAP2 POP POP JUMP JUMPDEST PUSH1 0x0 PUSH1 0x20 DUP3 ADD SWAP1 POP PUSH2 0x40D3 PUSH1 0x0 DUP4 ADD DUP5 PUSH2 0x3E28 JUMP JUMPDEST SWAP3 SWAP2 POP POP JUMP JUMPDEST PUSH1 0x0 PUSH2 0x40E3 PUSH2 0x40F4 JUMP JUMPDEST SWAP1 POP PUSH2 0x40EF DUP3 DUP3 PUSH2 0x4213 JUMP JUMPDEST SWAP2 SWAP1 POP JUMP JUMPDEST PUSH1 0x0 PUSH1 0x40 MLOAD SWAP1 POP SWAP1 JUMP JUMPDEST PUSH1 0x0 PUSH8 0xFFFFFFFFFFFFFFFF DUP3 GT ISZERO PUSH2 0x4119 JUMPI PUSH2 0x4118 PUSH2 0x4273 JUMP JUMPDEST JUMPDEST PUSH1 0x20 DUP3 MUL SWAP1 POP SWAP2 SWAP1 POP JUMP JUMPDEST PUSH1 0x0 DUP3 DUP3 MSTORE PUSH1 0x20 DUP3 ADD SWAP1 POP SWAP3 SWAP2 POP POP JUMP JUMPDEST PUSH1 0x0 PUSH2 0x4140 DUP3 PUSH2 0x41F2 JUMP JUMPDEST SWAP2 POP PUSH2 0x414B DUP4 PUSH2 0x41F2 JUMP JUMPDEST SWAP3 POP DUP3 PUSH4 0xFFFFFFFF SUB DUP3 GT ISZERO PUSH2 0x4164 JUMPI PUSH2 0x4163 PUSH2 0x4244 JUMP JUMPDEST JUMPDEST DUP3 DUP3 ADD SWAP1 POP SWAP3 SWAP2 POP POP JUMP JUMPDEST PUSH1 0x0 PUSH2 0x417A DUP3 PUSH2 0x4202 JUMP JUMPDEST SWAP2 POP PUSH2 0x4185 DUP4 PUSH2 0x4202 JUMP JUMPDEST SWAP3 POP DUP3 PUSH5 0xFFFFFFFFFF SUB DUP3 GT ISZERO PUSH2 0x419F JUMPI PUSH2 0x419E PUSH2 0x4244 JUMP JUMPDEST JUMPDEST DUP3 DUP3 ADD SWAP1 POP SWAP3 SWAP2 POP POP JUMP JUMPDEST PUSH1 0x0 PUSH2 0x41B5 DUP3 PUSH2 0x41D2 JUMP JUMPDEST SWAP1 POP SWAP2 SWAP1 POP JUMP JUMPDEST PUSH1 0x0 DUP2 ISZERO ISZERO SWAP1 POP SWAP2 SWAP1 POP JUMP JUMPDEST PUSH1 0x0 DUP2 SWAP1 POP SWAP2 SWAP1 POP JUMP JUMPDEST PUSH1 0x0 PUSH20 0xFFFFFFFFFFFFFFFFFFFFFFFFFFFFFFFFFFFFFFFF DUP3 AND SWAP1 POP SWAP2 SWAP1 POP JUMP JUMPDEST PUSH1 0x0 PUSH4 0xFFFFFFFF DUP3 AND SWAP1 POP SWAP2 SWAP1 POP JUMP JUMPDEST PUSH1 0x0 PUSH5 0xFFFFFFFFFF DUP3 AND SWAP1 POP SWAP2 SWAP1 POP JUMP JUMPDEST PUSH2 0x421C DUP3 PUSH2 0x42B6 JUMP JUMPDEST DUP2 ADD DUP2 DUP2 LT PUSH8 0xFFFFFFFFFFFFFFFF DUP3 GT OR ISZERO PUSH2 0x423B JUMPI PUSH2 0x423A PUSH2 0x4273 JUMP JUMPDEST JUMPDEST DUP1 PUSH1 0x40 MSTORE POP POP POP JUMP JUMPDEST PUSH32 0x4E487B7100000000000000000000000000000000000000000000000000000000 PUSH1 0x0 MSTORE PUSH1 0x11 PUSH1 0x4 MSTORE PUSH1 0x24 PUSH1 0x0 REVERT JUMPDEST PUSH32 0x4E487B7100000000000000000000000000000000000000000000000000000000 PUSH1 0x0 MSTORE PUSH1 0x41 PUSH1 0x4 MSTORE PUSH1 0x24 PUSH1 0x0 REVERT JUMPDEST PUSH1 0x0 DUP1 REVERT JUMPDEST PUSH1 0x0 DUP1 REVERT JUMPDEST PUSH1 0x0 DUP1 REVERT JUMPDEST PUSH1 0x0 DUP1 REVERT JUMPDEST PUSH1 0x0 PUSH1 0x1F NOT PUSH1 0x1F DUP4 ADD AND SWAP1 POP SWAP2 SWAP1 POP JUMP JUMPDEST PUSH32 0x637573746F6D65722061646472657373206973206E756C6C0000000000000000 PUSH1 0x0 DUP3 ADD MSTORE POP JUMP JUMPDEST PUSH32 0x20437573746F6D6572206973206E6F7420657869737473000000000000000000 PUSH1 0x0 DUP3 ADD MSTORE POP JUMP JUMPDEST PUSH32 0x74686520676174657220697320796F7572000000000000000000000000000000 PUSH1 0x0 DUP3 ADD MSTORE POP JUMP JUMPDEST PUSH32 0x637573746F6D6572206973206578697374730000000000000000000000000000 PUSH1 0x0 DUP3 ADD MSTORE POP JUMP JUMPDEST PUSH32 0x7468652067617465722069732065786973746572000000000000000000000000 PUSH1 0x0 DUP3 ADD MSTORE POP JUMP JUMPDEST PUSH32 0x637573746F6D6572206973206E6F742065786973747300000000000000000000 PUSH1 0x0 DUP3 ADD MSTORE POP JUMP JUMPDEST PUSH32 0x74686520637573746F6D6572207265636F6D6D656E6465722065786973747300 PUSH1 0x0 DUP3 ADD MSTORE POP JUMP JUMPDEST PUSH32 0x7468652067617465722069736E6F742065786973740000000000000000000000 PUSH1 0x0 DUP3 ADD MSTORE POP JUMP JUMPDEST PUSH2 0x4418 DUP2 PUSH2 0x41AA JUMP JUMPDEST DUP2 EQ PUSH2 0x4423 JUMPI PUSH1 0x0 DUP1 REVERT JUMPDEST POP JUMP JUMPDEST PUSH2 0x442F DUP2 PUSH2 0x41BC JUMP JUMPDEST DUP2 EQ PUSH2 0x443A JUMPI PUSH1 0x0 DUP1 REVERT JUMPDEST POP JUMP JUMPDEST PUSH2 0x4446 DUP2 PUSH2 0x41C8 JUMP JUMPDEST DUP2 EQ PUSH2 0x4451 JUMPI PUSH1 0x0 DUP1 REVERT JUMPDEST POP JUMP JUMPDEST PUSH2 0x445D DUP2 PUSH2 0x41D2 JUMP JUMPDEST DUP2 EQ PUSH2 0x4468 JUMPI PUSH1 0x0 DUP1 REVERT JUMPDEST POP JUMP JUMPDEST PUSH2 0x4474 DUP2 PUSH2 0x41F2 JUMP JUMPDEST DUP2 EQ PUSH2 0x447F JUMPI PUSH1 0x0 DUP1 REVERT JUMPDEST POP JUMP JUMPDEST PUSH2 0x448B DUP2 PUSH2 0x4202 JUMP JUMPDEST DUP2 EQ PUSH2 0x4496 JUMPI PUSH1 0x0 DUP1 REVERT JUMPDEST POP JUMP INVALID LOG2 PUSH5 0x6970667358 0x22 SLT KECCAK256 PUSH3 0x51914D 0xCF 0xD9 0xDE 0x25 MLOAD PUSH15 0x80F8D6EAA028FC6337DE5F3C3EE4A8 0xDA 0x2F PUSH16 0x3DB5945764736F6C6343000807003300 "
				},
				"gasEstimates": {
					"creation": {
						"codeDepositCost": "3523000",
						"executionCost": "infinite",
						"totalCost": "infinite"
					},
					"external": {
						"addCustomer((bytes32,uint32,address,uint40,address,uint32,address,bool,bool))": "infinite",
						"addCustomer((bytes32,uint32,address,uint40,address,uint32,address,bool,bool),address)": "infinite",
						"addGater((address,address,uint160,bytes32,bytes32,bytes32[10],uint32,bool,bool,bool))": "infinite",
						"addRelation(uint40)": "infinite",
						"customerList(address)": "infinite",
						"customerUniKey(uint40)": "2891",
						"customerUniNextKey()": "2539",
						"delGatebyMarketor(address)": "infinite",
						"delMarketManager(address)": "infinite",
						"gateCustomerList(address,uint32)": "infinite",
						"gateCustomerNextKey(address)": "2912",
						"gateList(address)": "infinite",
						"getCustomer(address)": "infinite",
						"getCustomerInfobyRecommander(address,uint32)": "infinite",
						"getCustomerNumbyRecommander(address)": "2967",
						"getCustomerRecommander(address)": "infinite",
						"isValidCustomer(address)": "3028",
						"isValidGater()": "2736",
						"ismarketManager()": "2637",
						"lockCustomerbyMarketor(address)": "29495",
						"lockGatebyGater()": "31573",
						"lockGatebyMarketor(address)": "29513",
						"marketCreator()": "infinite",
						"marketManagers(address)": "2890",
						"recommenderraltionkey(address)": "2956",
						"recommenderraltionlist(address,uint32)": "infinite",
						"setMarketManager(address)": "infinite",
						"unlockCustomerbyMarketor(address)": "29537",
						"unlockGatebyGater()": "31505",
						"unlockGatebyMarketor(address)": "29512",
						"updateCustomerNeckName(bytes32)": "49402",
						"updateGatebyGator((address,address,uint160,bytes32,bytes32,bytes32[10],uint32,bool,bool,bool))": "infinite",
						"updateGatebyMarketor((address,address,uint160,bytes32,bytes32,bytes32[10],uint32,bool,bool,bool))": "infinite"
					}
				},
				"methodIdentifiers": {
					"addCustomer((bytes32,uint32,address,uint40,address,uint32,address,bool,bool))": "14f9e554",
					"addCustomer((bytes32,uint32,address,uint40,address,uint32,address,bool,bool),address)": "fc5f9f18",
					"addGater((address,address,uint160,bytes32,bytes32,bytes32[10],uint32,bool,bool,bool))": "d8feb7ff",
					"addRelation(uint40)": "f3c86048",
					"customerList(address)": "f4274bc5",
					"customerUniKey(uint40)": "3e95003c",
					"customerUniNextKey()": "367b6dcc",
					"delGatebyMarketor(address)": "b614984d",
					"delMarketManager(address)": "2b890543",
					"gateCustomerList(address,uint32)": "5cfeafa5",
					"gateCustomerNextKey(address)": "bc5c6134",
					"gateList(address)": "45df4987",
					"getCustomer(address)": "cb949e51",
					"getCustomerInfobyRecommander(address,uint32)": "8370aa81",
					"getCustomerNumbyRecommander(address)": "8a6df726",
					"getCustomerRecommander(address)": "e71957b9",
					"isValidCustomer(address)": "78166097",
					"isValidGater()": "ab3acb5c",
					"ismarketManager()": "1487f252",
					"lockCustomerbyMarketor(address)": "0138a661",
					"lockGatebyGater()": "3bbae141",
					"lockGatebyMarketor(address)": "a4786088",
					"marketCreator()": "27cbaabe",
					"marketManagers(address)": "753c5188",
					"recommenderraltionkey(address)": "e853f952",
					"recommenderraltionlist(address,uint32)": "a60832cd",
					"setMarketManager(address)": "d82aff11",
					"unlockCustomerbyMarketor(address)": "be5fdac8",
					"unlockGatebyGater()": "f1c9f40f",
					"unlockGatebyMarketor(address)": "76941300",
					"updateCustomerNeckName(bytes32)": "3b63b647",
					"updateGatebyGator((address,address,uint160,bytes32,bytes32,bytes32[10],uint32,bool,bool,bool))": "f3a42537",
					"updateGatebyMarketor((address,address,uint160,bytes32,bytes32,bytes32[10],uint32,bool,bool,bool))": "71271f4d"
				}
			},
			"storageLayout": {
				"storage": [
					{
						"astId": 777,
						"contract": "Contracts/MoonV1Customer.sol:MoonV1Customer",
						"label": "marketManagers",
						"offset": 0,
						"slot": "0",
						"type": "t_mapping(t_address,t_bool)"
					},
					{
						"astId": 452,
						"contract": "Contracts/MoonV1Customer.sol:MoonV1Customer",
						"label": "gateList",
						"offset": 0,
						"slot": "1",
						"type": "t_mapping(t_address,t_struct(Info)900_storage)"
					},
					{
						"astId": 10,
						"contract": "Contracts/MoonV1Customer.sol:MoonV1Customer",
						"label": "customerList",
						"offset": 0,
						"slot": "2",
						"type": "t_mapping(t_address,t_struct(Info)874_storage)"
					},
					{
						"astId": 14,
						"contract": "Contracts/MoonV1Customer.sol:MoonV1Customer",
						"label": "customerUniKey",
						"offset": 0,
						"slot": "3",
						"type": "t_mapping(t_uint40,t_address)"
					},
					{
						"astId": 16,
						"contract": "Contracts/MoonV1Customer.sol:MoonV1Customer",
						"label": "customerUniNextKey",
						"offset": 0,
						"slot": "4",
						"type": "t_uint40"
					},
					{
						"astId": 20,
						"contract": "Contracts/MoonV1Customer.sol:MoonV1Customer",
						"label": "recommenderraltionkey",
						"offset": 0,
						"slot": "5",
						"type": "t_mapping(t_address,t_uint32)"
					},
					{
						"astId": 26,
						"contract": "Contracts/MoonV1Customer.sol:MoonV1Customer",
						"label": "recommenderraltionlist",
						"offset": 0,
						"slot": "6",
						"type": "t_mapping(t_address,t_mapping(t_uint32,t_address))"
					},
					{
						"astId": 30,
						"contract": "Contracts/MoonV1Customer.sol:MoonV1Customer",
						"label": "gateCustomerNextKey",
						"offset": 0,
						"slot": "7",
						"type": "t_mapping(t_address,t_uint32)"
					},
					{
						"astId": 36,
						"contract": "Contracts/MoonV1Customer.sol:MoonV1Customer",
						"label": "gateCustomerList",
						"offset": 0,
						"slot": "8",
						"type": "t_mapping(t_address,t_mapping(t_uint32,t_address))"
					}
				],
				"types": {
					"t_address": {
						"encoding": "inplace",
						"label": "address",
						"numberOfBytes": "20"
					},
					"t_array(t_bytes32)10_storage": {
						"base": "t_bytes32",
						"encoding": "inplace",
						"label": "bytes32[10]",
						"numberOfBytes": "320"
					},
					"t_bool": {
						"encoding": "inplace",
						"label": "bool",
						"numberOfBytes": "1"
					},
					"t_bytes32": {
						"encoding": "inplace",
						"label": "bytes32",
						"numberOfBytes": "32"
					},
					"t_mapping(t_address,t_bool)": {
						"encoding": "mapping",
						"key": "t_address",
						"label": "mapping(address => bool)",
						"numberOfBytes": "32",
						"value": "t_bool"
					},
					"t_mapping(t_address,t_mapping(t_uint32,t_address))": {
						"encoding": "mapping",
						"key": "t_address",
						"label": "mapping(address => mapping(uint32 => address))",
						"numberOfBytes": "32",
						"value": "t_mapping(t_uint32,t_address)"
					},
					"t_mapping(t_address,t_struct(Info)874_storage)": {
						"encoding": "mapping",
						"key": "t_address",
						"label": "mapping(address => struct LCustomer.Info)",
						"numberOfBytes": "32",
						"value": "t_struct(Info)874_storage"
					},
					"t_mapping(t_address,t_struct(Info)900_storage)": {
						"encoding": "mapping",
						"key": "t_address",
						"label": "mapping(address => struct LGate.Info)",
						"numberOfBytes": "32",
						"value": "t_struct(Info)900_storage"
					},
					"t_mapping(t_address,t_uint32)": {
						"encoding": "mapping",
						"key": "t_address",
						"label": "mapping(address => uint32)",
						"numberOfBytes": "32",
						"value": "t_uint32"
					},
					"t_mapping(t_uint32,t_address)": {
						"encoding": "mapping",
						"key": "t_uint32",
						"label": "mapping(uint32 => address)",
						"numberOfBytes": "32",
						"value": "t_address"
					},
					"t_mapping(t_uint40,t_address)": {
						"encoding": "mapping",
						"key": "t_uint40",
						"label": "mapping(uint40 => address)",
						"numberOfBytes": "32",
						"value": "t_address"
					},
					"t_struct(Info)874_storage": {
						"encoding": "inplace",
						"label": "struct LCustomer.Info",
						"members": [
							{
								"astId": 857,
								"contract": "Contracts/MoonV1Customer.sol:MoonV1Customer",
								"label": "neckname",
								"offset": 0,
								"slot": "0",
								"type": "t_bytes32"
							},
							{
								"astId": 859,
								"contract": "Contracts/MoonV1Customer.sol:MoonV1Customer",
								"label": "createtimestamp",
								"offset": 0,
								"slot": "1",
								"type": "t_uint32"
							},
							{
								"astId": 861,
								"contract": "Contracts/MoonV1Customer.sol:MoonV1Customer",
								"label": "recommender",
								"offset": 4,
								"slot": "1",
								"type": "t_address"
							},
							{
								"astId": 863,
								"contract": "Contracts/MoonV1Customer.sol:MoonV1Customer",
								"label": "customerKey",
								"offset": 24,
								"slot": "1",
								"type": "t_uint40"
							},
							{
								"astId": 865,
								"contract": "Contracts/MoonV1Customer.sol:MoonV1Customer",
								"label": "Gater",
								"offset": 0,
								"slot": "2",
								"type": "t_address"
							},
							{
								"astId": 867,
								"contract": "Contracts/MoonV1Customer.sol:MoonV1Customer",
								"label": "GaterKey",
								"offset": 20,
								"slot": "2",
								"type": "t_uint32"
							},
							{
								"astId": 869,
								"contract": "Contracts/MoonV1Customer.sol:MoonV1Customer",
								"label": "contractAddress",
								"offset": 0,
								"slot": "3",
								"type": "t_address"
							},
							{
								"astId": 871,
								"contract": "Contracts/MoonV1Customer.sol:MoonV1Customer",
								"label": "isUsed",
								"offset": 20,
								"slot": "3",
								"type": "t_bool"
							},
							{
								"astId": 873,
								"contract": "Contracts/MoonV1Customer.sol:MoonV1Customer",
								"label": "unlock",
								"offset": 21,
								"slot": "3",
								"type": "t_bool"
							}
						],
						"numberOfBytes": "128"
					},
					"t_struct(Info)900_storage": {
						"encoding": "inplace",
						"label": "struct LGate.Info",
						"members": [
							{
								"astId": 879,
								"contract": "Contracts/MoonV1Customer.sol:MoonV1Customer",
								"label": "market",
								"offset": 0,
								"slot": "0",
								"type": "t_address"
							},
							{
								"astId": 881,
								"contract": "Contracts/MoonV1Customer.sol:MoonV1Customer",
								"label": "gateAddress",
								"offset": 0,
								"slot": "1",
								"type": "t_address"
							},
							{
								"astId": 883,
								"contract": "Contracts/MoonV1Customer.sol:MoonV1Customer",
								"label": "authority",
								"offset": 0,
								"slot": "2",
								"type": "t_uint160"
							},
							{
								"astId": 885,
								"contract": "Contracts/MoonV1Customer.sol:MoonV1Customer",
								"label": "name",
								"offset": 0,
								"slot": "3",
								"type": "t_bytes32"
							},
							{
								"astId": 887,
								"contract": "Contracts/MoonV1Customer.sol:MoonV1Customer",
								"label": "website",
								"offset": 0,
								"slot": "4",
								"type": "t_bytes32"
							},
							{
								"astId": 891,
								"contract": "Contracts/MoonV1Customer.sol:MoonV1Customer",
								"label": "webserverip",
								"offset": 0,
								"slot": "5",
								"type": "t_array(t_bytes32)10_storage"
							},
							{
								"astId": 893,
								"contract": "Contracts/MoonV1Customer.sol:MoonV1Customer",
								"label": "createtimestamp",
								"offset": 0,
								"slot": "15",
								"type": "t_uint32"
							},
							{
								"astId": 895,
								"contract": "Contracts/MoonV1Customer.sol:MoonV1Customer",
								"label": "marketunlock",
								"offset": 4,
								"slot": "15",
								"type": "t_bool"
							},
							{
								"astId": 897,
								"contract": "Contracts/MoonV1Customer.sol:MoonV1Customer",
								"label": "unlock",
								"offset": 5,
								"slot": "15",
								"type": "t_bool"
							},
							{
								"astId": 899,
								"contract": "Contracts/MoonV1Customer.sol:MoonV1Customer",
								"label": "isUsed",
								"offset": 6,
								"slot": "15",
								"type": "t_bool"
							}
						],
						"numberOfBytes": "512"
					},
					"t_uint160": {
						"encoding": "inplace",
						"label": "uint160",
						"numberOfBytes": "20"
					},
					"t_uint32": {
						"encoding": "inplace",
						"label": "uint32",
						"numberOfBytes": "4"
					},
					"t_uint40": {
						"encoding": "inplace",
						"label": "uint40",
						"numberOfBytes": "5"
					}
				}
			},
			"userdoc": {
				"kind": "user",
				"methods": {
					"delMarketManager(address)": {
						"notice": "Explain to an end user what this does"
					},
					"ismarketManager()": {
						"notice": "Explain to an end user what this does"
					},
					"setMarketManager(address)": {
						"notice": "Explain to an end user what this does"
					}
				},
				"version": 1
			}
		}
	}
}