{
	"Contracts/MoonV1Gater.sol": {
		"MoonV1Gater": {
			"abi": [
				{
					"inputs": [],
					"stateMutability": "nonpayable",
					"type": "constructor"
				},
				{
					"inputs": [
						{
							"components": [
								{
									"internalType": "address",
									"name": "market",
									"type": "address"
								},
								{
									"internalType": "address",
									"name": "gateAddress",
									"type": "address"
								},
								{
									"internalType": "uint160",
									"name": "authority",
									"type": "uint160"
								},
								{
									"internalType": "bytes32",
									"name": "name",
									"type": "bytes32"
								},
								{
									"internalType": "bytes32",
									"name": "website",
									"type": "bytes32"
								},
								{
									"internalType": "bytes32[10]",
									"name": "webserverip",
									"type": "bytes32[10]"
								},
								{
									"internalType": "uint32",
									"name": "createtimestamp",
									"type": "uint32"
								},
								{
									"internalType": "bool",
									"name": "marketunlock",
									"type": "bool"
								},
								{
									"internalType": "bool",
									"name": "unlock",
									"type": "bool"
								},
								{
									"internalType": "bool",
									"name": "isUsed",
									"type": "bool"
								}
							],
							"internalType": "struct LGate.Info",
							"name": "_gater",
							"type": "tuple"
						}
					],
					"name": "addGater",
					"outputs": [],
					"stateMutability": "nonpayable",
					"type": "function"
				},
				{
					"inputs": [
						{
							"internalType": "address",
							"name": "_gater",
							"type": "address"
						}
					],
					"name": "delGatebyMarketor",
					"outputs": [],
					"stateMutability": "nonpayable",
					"type": "function"
				},
				{
					"inputs": [
						{
							"internalType": "address",
							"name": "_owner",
							"type": "address"
						}
					],
					"name": "delMarketManager",
					"outputs": [],
					"stateMutability": "nonpayable",
					"type": "function"
				},
				{
					"inputs": [
						{
							"internalType": "address",
							"name": "",
							"type": "address"
						}
					],
					"name": "gateList",
					"outputs": [
						{
							"internalType": "address",
							"name": "market",
							"type": "address"
						},
						{
							"internalType": "address",
							"name": "gateAddress",
							"type": "address"
						},
						{
							"internalType": "uint160",
							"name": "authority",
							"type": "uint160"
						},
						{
							"internalType": "bytes32",
							"name": "name",
							"type": "bytes32"
						},
						{
							"internalType": "bytes32",
							"name": "website",
							"type": "bytes32"
						},
						{
							"internalType": "uint32",
							"name": "createtimestamp",
							"type": "uint32"
						},
						{
							"internalType": "bool",
							"name": "marketunlock",
							"type": "bool"
						},
						{
							"internalType": "bool",
							"name": "unlock",
							"type": "bool"
						},
						{
							"internalType": "bool",
							"name": "isUsed",
							"type": "bool"
						}
					],
					"stateMutability": "view",
					"type": "function"
				},
				{
					"inputs": [],
					"name": "isValidGater",
					"outputs": [
						{
							"internalType": "bool",
							"name": "",
							"type": "bool"
						}
					],
					"stateMutability": "view",
					"type": "function"
				},
				{
					"inputs": [],
					"name": "ismarketManager",
					"outputs": [
						{
							"internalType": "bool",
							"name": "",
							"type": "bool"
						}
					],
					"stateMutability": "view",
					"type": "function"
				},
				{
					"inputs": [],
					"name": "lockGatebyGater",
					"outputs": [],
					"stateMutability": "nonpayable",
					"type": "function"
				},
				{
					"inputs": [
						{
							"internalType": "address",
							"name": "_gateraddress",
							"type": "address"
						}
					],
					"name": "lockGatebyMarketor",
					"outputs": [],
					"stateMutability": "nonpayable",
					"type": "function"
				},
				{
					"inputs": [],
					"name": "marketCreator",
					"outputs": [
						{
							"internalType": "address",
							"name": "",
							"type": "address"
						}
					],
					"stateMutability": "view",
					"type": "function"
				},
				{
					"inputs": [
						{
							"internalType": "address",
							"name": "",
							"type": "address"
						}
					],
					"name": "marketManagers",
					"outputs": [
						{
							"internalType": "bool",
							"name": "",
							"type": "bool"
						}
					],
					"stateMutability": "view",
					"type": "function"
				},
				{
					"inputs": [
						{
							"internalType": "address",
							"name": "_owner",
							"type": "address"
						}
					],
					"name": "setMarketManager",
					"outputs": [],
					"stateMutability": "nonpayable",
					"type": "function"
				},
				{
					"inputs": [],
					"name": "unlockGatebyGater",
					"outputs": [],
					"stateMutability": "nonpayable",
					"type": "function"
				},
				{
					"inputs": [
						{
							"internalType": "address",
							"name": "_gateraddress",
							"type": "address"
						}
					],
					"name": "unlockGatebyMarketor",
					"outputs": [],
					"stateMutability": "nonpayable",
					"type": "function"
				},
				{
					"inputs": [
						{
							"components": [
								{
									"internalType": "address",
									"name": "market",
									"type": "address"
								},
								{
									"internalType": "address",
									"name": "gateAddress",
									"type": "address"
								},
								{
									"internalType": "uint160",
									"name": "authority",
									"type": "uint160"
								},
								{
									"internalType": "bytes32",
									"name": "name",
									"type": "bytes32"
								},
								{
									"internalType": "bytes32",
									"name": "website",
									"type": "bytes32"
								},
								{
									"internalType": "bytes32[10]",
									"name": "webserverip",
									"type": "bytes32[10]"
								},
								{
									"internalType": "uint32",
									"name": "createtimestamp",
									"type": "uint32"
								},
								{
									"internalType": "bool",
									"name": "marketunlock",
									"type": "bool"
								},
								{
									"internalType": "bool",
									"name": "unlock",
									"type": "bool"
								},
								{
									"internalType": "bool",
									"name": "isUsed",
									"type": "bool"
								}
							],
							"internalType": "struct LGate.Info",
							"name": "_gater",
							"type": "tuple"
						}
					],
					"name": "updateGatebyGator",
					"outputs": [],
					"stateMutability": "nonpayable",
					"type": "function"
				},
				{
					"inputs": [
						{
							"components": [
								{
									"internalType": "address",
									"name": "market",
									"type": "address"
								},
								{
									"internalType": "address",
									"name": "gateAddress",
									"type": "address"
								},
								{
									"internalType": "uint160",
									"name": "authority",
									"type": "uint160"
								},
								{
									"internalType": "bytes32",
									"name": "name",
									"type": "bytes32"
								},
								{
									"internalType": "bytes32",
									"name": "website",
									"type": "bytes32"
								},
								{
									"internalType": "bytes32[10]",
									"name": "webserverip",
									"type": "bytes32[10]"
								},
								{
									"internalType": "uint32",
									"name": "createtimestamp",
									"type": "uint32"
								},
								{
									"internalType": "bool",
									"name": "marketunlock",
									"type": "bool"
								},
								{
									"internalType": "bool",
									"name": "unlock",
									"type": "bool"
								},
								{
									"internalType": "bool",
									"name": "isUsed",
									"type": "bool"
								}
							],
							"internalType": "struct LGate.Info",
							"name": "_gater",
							"type": "tuple"
						}
					],
					"name": "updateGatebyMarketor",
					"outputs": [],
					"stateMutability": "nonpayable",
					"type": "function"
				}
			],
			"devdoc": {
				"kind": "dev",
				"methods": {
					"delMarketManager(address)": {
						"details": "Explain to a developer any extra details"
					},
					"ismarketManager()": {
						"details": "Explain to a developer any extra details"
					},
					"setMarketManager(address)": {
						"details": "Explain to a developer any extra details"
					}
				},
				"version": 1
			},
			"evm": {
				"assembly": "    /* \"Contracts/MoonV1Gater.sol\":210:3729  contract MoonV1Gater is MoonV1Manager {... */\n  mstore(0x40, 0xa0)\n    /* \"Contracts/MoonV1Gater.sol\":348:364  constructor() {} */\n  callvalue\n  dup1\n  iszero\n  tag_1\n  jumpi\n  0x00\n  dup1\n  revert\ntag_1:\n  pop\n    /* \"Contracts/MoonV1Manager.sol\":322:332  msg.sender */\n  caller\n    /* \"Contracts/MoonV1Manager.sol\":306:332  marketCreator = msg.sender */\n  0xffffffffffffffffffffffffffffffffffffffff\n  and\n  0x80\n  dup2\n  0xffffffffffffffffffffffffffffffffffffffff\n  and\n  0x60\n  shl\n  dup2\n  mstore\n  pop\n  pop\n    /* \"Contracts/MoonV1Gater.sol\":210:3729  contract MoonV1Gater is MoonV1Manager {... */\n  shr(0x60, mload(0x80))\n  codecopy(0x00, dataOffset(sub_0), dataSize(sub_0))\n  0x00\n  assignImmutable(\"0xe6f961b5eaec29807fd460af12fbd720c7c4993791c080ad8e40c06b783956d8\")\n  return(0x00, dataSize(sub_0))\nstop\n\nsub_0: assembly {\n        /* \"Contracts/MoonV1Gater.sol\":210:3729  contract MoonV1Gater is MoonV1Manager {... */\n      mstore(0x40, 0x80)\n      callvalue\n      dup1\n      iszero\n      tag_1\n      jumpi\n      0x00\n      dup1\n      revert\n    tag_1:\n      pop\n      jumpi(tag_2, lt(calldatasize, 0x04))\n      shr(0xe0, calldataload(0x00))\n      dup1\n      0x76941300\n      gt\n      tag_18\n      jumpi\n      dup1\n      0xd82aff11\n      gt\n      tag_19\n      jumpi\n      dup1\n      0xd82aff11\n      eq\n      tag_14\n      jumpi\n      dup1\n      0xd8feb7ff\n      eq\n      tag_15\n      jumpi\n      dup1\n      0xf1c9f40f\n      eq\n      tag_16\n      jumpi\n      dup1\n      0xf3a42537\n      eq\n      tag_17\n      jumpi\n      jump(tag_2)\n    tag_19:\n      dup1\n      0x76941300\n      eq\n      tag_10\n      jumpi\n      dup1\n      0xa4786088\n      eq\n      tag_11\n      jumpi\n      dup1\n      0xab3acb5c\n      eq\n      tag_12\n      jumpi\n      dup1\n      0xb614984d\n      eq\n      tag_13\n      jumpi\n      jump(tag_2)\n    tag_18:\n      dup1\n      0x3bbae141\n      gt\n      tag_20\n      jumpi\n      dup1\n      0x3bbae141\n      eq\n      tag_6\n      jumpi\n      dup1\n      0x45df4987\n      eq\n      tag_7\n      jumpi\n      dup1\n      0x71271f4d\n      eq\n      tag_8\n      jumpi\n      dup1\n      0x753c5188\n      eq\n      tag_9\n      jumpi\n      jump(tag_2)\n    tag_20:\n      dup1\n      0x1487f252\n      eq\n      tag_3\n      jumpi\n      dup1\n      0x27cbaabe\n      eq\n      tag_4\n      jumpi\n      dup1\n      0x2b890543\n      eq\n      tag_5\n      jumpi\n    tag_2:\n      0x00\n      dup1\n      revert\n        /* \"Contracts/MoonV1Manager.sol\":1333:1439  function ismarketManager() external view returns (bool) {... */\n    tag_3:\n      tag_21\n      tag_22\n      jump\t// in\n    tag_21:\n      mload(0x40)\n      tag_23\n      swap2\n      swap1\n      tag_24\n      jump\t// in\n    tag_23:\n      mload(0x40)\n      dup1\n      swap2\n      sub\n      swap1\n      return\n        /* \"Contracts/MoonV1Manager.sol\":141:179  address public immutable marketCreator */\n    tag_4:\n      tag_25\n      tag_26\n      jump\t// in\n    tag_25:\n      mload(0x40)\n      tag_27\n      swap2\n      swap1\n      tag_28\n      jump\t// in\n    tag_27:\n      mload(0x40)\n      dup1\n      swap2\n      sub\n      swap1\n      return\n        /* \"Contracts/MoonV1Manager.sol\":1104:1219  function delMarketManager(address _owner) external onlyMarketCreator {... */\n    tag_5:\n      tag_29\n      0x04\n      dup1\n      calldatasize\n      sub\n      dup2\n      add\n      swap1\n      tag_30\n      swap2\n      swap1\n      tag_31\n      jump\t// in\n    tag_30:\n      tag_32\n      jump\t// in\n    tag_29:\n      stop\n        /* \"Contracts/MoonV1Gater.sol\":2113:2389  function lockGatebyGater() external onlyGator {... */\n    tag_6:\n      tag_33\n      tag_34\n      jump\t// in\n    tag_33:\n      stop\n        /* \"Contracts/MoonV1Gater.sol\":295:341  mapping(address => LGate.Info) public gateList */\n    tag_7:\n      tag_35\n      0x04\n      dup1\n      calldatasize\n      sub\n      dup2\n      add\n      swap1\n      tag_36\n      swap2\n      swap1\n      tag_31\n      jump\t// in\n    tag_36:\n      tag_37\n      jump\t// in\n    tag_35:\n      mload(0x40)\n      tag_38\n      swap10\n      swap9\n      swap8\n      swap7\n      swap6\n      swap5\n      swap4\n      swap3\n      swap2\n      swap1\n      tag_39\n      jump\t// in\n    tag_38:\n      mload(0x40)\n      dup1\n      swap2\n      sub\n      swap1\n      return\n        /* \"Contracts/MoonV1Gater.sol\":1357:1768  function updateGatebyMarketor(LGate.Info memory _gater)... */\n    tag_8:\n      tag_40\n      0x04\n      dup1\n      calldatasize\n      sub\n      dup2\n      add\n      swap1\n      tag_41\n      swap2\n      swap1\n      tag_42\n      jump\t// in\n    tag_41:\n      tag_43\n      jump\t// in\n    tag_40:\n      stop\n        /* \"Contracts/MoonV1Manager.sol\":229:275  mapping(address => bool) public marketManagers */\n    tag_9:\n      tag_44\n      0x04\n      dup1\n      calldatasize\n      sub\n      dup2\n      add\n      swap1\n      tag_45\n      swap2\n      swap1\n      tag_31\n      jump\t// in\n    tag_45:\n      tag_46\n      jump\t// in\n    tag_44:\n      mload(0x40)\n      tag_47\n      swap2\n      swap1\n      tag_24\n      jump\t// in\n    tag_47:\n      mload(0x40)\n      dup1\n      swap2\n      sub\n      swap1\n      return\n        /* \"Contracts/MoonV1Gater.sol\":1009:1286  function unlockGatebyMarketor(address _gateraddress)... */\n    tag_10:\n      tag_48\n      0x04\n      dup1\n      calldatasize\n      sub\n      dup2\n      add\n      swap1\n      tag_49\n      swap2\n      swap1\n      tag_31\n      jump\t// in\n    tag_49:\n      tag_50\n      jump\t// in\n    tag_48:\n      stop\n        /* \"Contracts/MoonV1Gater.sol\":729:1003  function lockGatebyMarketor(address _gateraddress)... */\n    tag_11:\n      tag_51\n      0x04\n      dup1\n      calldatasize\n      sub\n      dup2\n      add\n      swap1\n      tag_52\n      swap2\n      swap1\n      tag_31\n      jump\t// in\n    tag_52:\n      tag_53\n      jump\t// in\n    tag_51:\n      stop\n        /* \"Contracts/MoonV1Gater.sol\":3617:3727  function isValidGater() external view returns (bool) {... */\n    tag_12:\n      tag_54\n      tag_55\n      jump\t// in\n    tag_54:\n      mload(0x40)\n      tag_56\n      swap2\n      swap1\n      tag_24\n      jump\t// in\n    tag_56:\n      mload(0x40)\n      dup1\n      swap2\n      sub\n      swap1\n      return\n        /* \"Contracts/MoonV1Gater.sol\":1774:1959  function delGatebyMarketor(address _gater) external onlyMarketManager {... */\n    tag_13:\n      tag_57\n      0x04\n      dup1\n      calldatasize\n      sub\n      dup2\n      add\n      swap1\n      tag_58\n      swap2\n      swap1\n      tag_31\n      jump\t// in\n    tag_58:\n      tag_59\n      jump\t// in\n    tag_57:\n      stop\n        /* \"Contracts/MoonV1Manager.sol\":875:990  function setMarketManager(address _owner) external onlyMarketCreator {... */\n    tag_14:\n      tag_60\n      0x04\n      dup1\n      calldatasize\n      sub\n      dup2\n      add\n      swap1\n      tag_61\n      swap2\n      swap1\n      tag_31\n      jump\t// in\n    tag_61:\n      tag_62\n      jump\t// in\n    tag_60:\n      stop\n        /* \"Contracts/MoonV1Gater.sol\":3152:3611  function addGater(LGate.Info memory _gater) external {... */\n    tag_15:\n      tag_63\n      0x04\n      dup1\n      calldatasize\n      sub\n      dup2\n      add\n      swap1\n      tag_64\n      swap2\n      swap1\n      tag_42\n      jump\t// in\n    tag_64:\n      tag_65\n      jump\t// in\n    tag_63:\n      stop\n        /* \"Contracts/MoonV1Gater.sol\":2395:2674  function unlockGatebyGater() external onlyGator {... */\n    tag_16:\n      tag_66\n      tag_67\n      jump\t// in\n    tag_66:\n      stop\n        /* \"Contracts/MoonV1Gater.sol\":2705:3146  function updateGatebyGator(LGate.Info memory _gater) external onlyGator {... */\n    tag_17:\n      tag_68\n      0x04\n      dup1\n      calldatasize\n      sub\n      dup2\n      add\n      swap1\n      tag_69\n      swap2\n      swap1\n      tag_42\n      jump\t// in\n    tag_69:\n      tag_70\n      jump\t// in\n    tag_68:\n      stop\n        /* \"Contracts/MoonV1Manager.sol\":1333:1439  function ismarketManager() external view returns (bool) {... */\n    tag_22:\n        /* \"Contracts/MoonV1Manager.sol\":1383:1387  bool */\n      0x00\n        /* \"Contracts/MoonV1Manager.sol\":1406:1420  marketManagers */\n      dup1\n        /* \"Contracts/MoonV1Manager.sol\":1406:1432  marketManagers[msg.sender] */\n      0x00\n        /* \"Contracts/MoonV1Manager.sol\":1421:1431  msg.sender */\n      caller\n        /* \"Contracts/MoonV1Manager.sol\":1406:1432  marketManagers[msg.sender] */\n      0xffffffffffffffffffffffffffffffffffffffff\n      and\n      0xffffffffffffffffffffffffffffffffffffffff\n      and\n      dup2\n      mstore\n      0x20\n      add\n      swap1\n      dup2\n      mstore\n      0x20\n      add\n      0x00\n      keccak256\n      0x00\n      swap1\n      sload\n      swap1\n      0x0100\n      exp\n      swap1\n      div\n      0xff\n      and\n        /* \"Contracts/MoonV1Manager.sol\":1399:1432  return marketManagers[msg.sender] */\n      swap1\n      pop\n        /* \"Contracts/MoonV1Manager.sol\":1333:1439  function ismarketManager() external view returns (bool) {... */\n      swap1\n      jump\t// out\n        /* \"Contracts/MoonV1Manager.sol\":141:179  address public immutable marketCreator */\n    tag_26:\n      immutable(\"0xe6f961b5eaec29807fd460af12fbd720c7c4993791c080ad8e40c06b783956d8\")\n      dup2\n      jump\t// out\n        /* \"Contracts/MoonV1Manager.sol\":1104:1219  function delMarketManager(address _owner) external onlyMarketCreator {... */\n    tag_32:\n        /* \"Contracts/MoonV1Manager.sol\":406:419  marketCreator */\n      immutable(\"0xe6f961b5eaec29807fd460af12fbd720c7c4993791c080ad8e40c06b783956d8\")\n        /* \"Contracts/MoonV1Manager.sol\":392:419  msg.sender == marketCreator */\n      0xffffffffffffffffffffffffffffffffffffffff\n      and\n        /* \"Contracts/MoonV1Manager.sol\":392:402  msg.sender */\n      caller\n        /* \"Contracts/MoonV1Manager.sol\":392:419  msg.sender == marketCreator */\n      0xffffffffffffffffffffffffffffffffffffffff\n      and\n      eq\n        /* \"Contracts/MoonV1Manager.sol\":384:420  require(msg.sender == marketCreator) */\n      tag_73\n      jumpi\n      0x00\n      dup1\n      revert\n    tag_73:\n        /* \"Contracts/MoonV1Manager.sol\":1190:1204  marketManagers */\n      0x00\n        /* \"Contracts/MoonV1Manager.sol\":1190:1212  marketManagers[_owner] */\n      dup1\n        /* \"Contracts/MoonV1Manager.sol\":1205:1211  _owner */\n      dup3\n        /* \"Contracts/MoonV1Manager.sol\":1190:1212  marketManagers[_owner] */\n      0xffffffffffffffffffffffffffffffffffffffff\n      and\n      0xffffffffffffffffffffffffffffffffffffffff\n      and\n      dup2\n      mstore\n      0x20\n      add\n      swap1\n      dup2\n      mstore\n      0x20\n      add\n      0x00\n      keccak256\n      0x00\n        /* \"Contracts/MoonV1Manager.sol\":1183:1212  delete marketManagers[_owner] */\n      0x0100\n      exp\n      dup2\n      sload\n      swap1\n      0xff\n      mul\n      not\n      and\n      swap1\n      sstore\n        /* \"Contracts/MoonV1Manager.sol\":1104:1219  function delMarketManager(address _owner) external onlyMarketCreator {... */\n      pop\n      jump\t// out\n        /* \"Contracts/MoonV1Gater.sol\":2113:2389  function lockGatebyGater() external onlyGator {... */\n    tag_34:\n        /* \"Contracts/MoonV1Gater.sol\":554:558  true */\n      0x01\n        /* \"Contracts/MoonV1Gater.sol\":517:558  gateList[msg.sender].marketunlock == true */\n      iszero\n      iszero\n        /* \"Contracts/MoonV1Gater.sol\":517:525  gateList */\n      0x01\n        /* \"Contracts/MoonV1Gater.sol\":517:537  gateList[msg.sender] */\n      0x00\n        /* \"Contracts/MoonV1Gater.sol\":526:536  msg.sender */\n      caller\n        /* \"Contracts/MoonV1Gater.sol\":517:537  gateList[msg.sender] */\n      0xffffffffffffffffffffffffffffffffffffffff\n      and\n      0xffffffffffffffffffffffffffffffffffffffff\n      and\n      dup2\n      mstore\n      0x20\n      add\n      swap1\n      dup2\n      mstore\n      0x20\n      add\n      0x00\n      keccak256\n        /* \"Contracts/MoonV1Gater.sol\":517:550  gateList[msg.sender].marketunlock */\n      0x0f\n      add\n      0x04\n      swap1\n      sload\n      swap1\n      0x0100\n      exp\n      swap1\n      div\n      0xff\n      and\n        /* \"Contracts/MoonV1Gater.sol\":517:558  gateList[msg.sender].marketunlock == true */\n      iszero\n      iszero\n      eq\n        /* \"Contracts/MoonV1Gater.sol\":509:559  require(gateList[msg.sender].marketunlock == true) */\n      tag_76\n      jumpi\n      0x00\n      dup1\n      revert\n    tag_76:\n        /* \"Contracts/MoonV1Gater.sol\":2221:2225  true */\n      0x01\n        /* \"Contracts/MoonV1Gater.sol\":2190:2225  gateList[msg.sender].isUsed == true */\n      iszero\n      iszero\n        /* \"Contracts/MoonV1Gater.sol\":2190:2198  gateList */\n      0x01\n        /* \"Contracts/MoonV1Gater.sol\":2190:2210  gateList[msg.sender] */\n      0x00\n        /* \"Contracts/MoonV1Gater.sol\":2199:2209  msg.sender */\n      caller\n        /* \"Contracts/MoonV1Gater.sol\":2190:2210  gateList[msg.sender] */\n      0xffffffffffffffffffffffffffffffffffffffff\n      and\n      0xffffffffffffffffffffffffffffffffffffffff\n      and\n      dup2\n      mstore\n      0x20\n      add\n      swap1\n      dup2\n      mstore\n      0x20\n      add\n      0x00\n      keccak256\n        /* \"Contracts/MoonV1Gater.sol\":2190:2217  gateList[msg.sender].isUsed */\n      0x0f\n      add\n      0x06\n      swap1\n      sload\n      swap1\n      0x0100\n      exp\n      swap1\n      div\n      0xff\n      and\n        /* \"Contracts/MoonV1Gater.sol\":2190:2225  gateList[msg.sender].isUsed == true */\n      iszero\n      iszero\n      eq\n        /* \"Contracts/MoonV1Gater.sol\":2190:2291  gateList[msg.sender].isUsed == true &&... */\n      dup1\n      iszero\n      tag_78\n      jumpi\n      pop\n        /* \"Contracts/MoonV1Gater.sol\":2281:2291  msg.sender */\n      caller\n        /* \"Contracts/MoonV1Gater.sol\":2245:2291  gateList[msg.sender].gateAddress == msg.sender */\n      0xffffffffffffffffffffffffffffffffffffffff\n      and\n        /* \"Contracts/MoonV1Gater.sol\":2245:2253  gateList */\n      0x01\n        /* \"Contracts/MoonV1Gater.sol\":2245:2265  gateList[msg.sender] */\n      0x00\n        /* \"Contracts/MoonV1Gater.sol\":2254:2264  msg.sender */\n      caller\n        /* \"Contracts/MoonV1Gater.sol\":2245:2265  gateList[msg.sender] */\n      0xffffffffffffffffffffffffffffffffffffffff\n      and\n      0xffffffffffffffffffffffffffffffffffffffff\n      and\n      dup2\n      mstore\n      0x20\n      add\n      swap1\n      dup2\n      mstore\n      0x20\n      add\n      0x00\n      keccak256\n        /* \"Contracts/MoonV1Gater.sol\":2245:2277  gateList[msg.sender].gateAddress */\n      0x01\n      add\n      0x00\n      swap1\n      sload\n      swap1\n      0x0100\n      exp\n      swap1\n      div\n      0xffffffffffffffffffffffffffffffffffffffff\n      and\n        /* \"Contracts/MoonV1Gater.sol\":2245:2291  gateList[msg.sender].gateAddress == msg.sender */\n      0xffffffffffffffffffffffffffffffffffffffff\n      and\n      eq\n        /* \"Contracts/MoonV1Gater.sol\":2190:2291  gateList[msg.sender].isUsed == true &&... */\n    tag_78:\n        /* \"Contracts/MoonV1Gater.sol\":2169:2338  require(... */\n      tag_79\n      jumpi\n      mload(0x40)\n      0x08c379a000000000000000000000000000000000000000000000000000000000\n      dup2\n      mstore\n      0x04\n      add\n      tag_80\n      swap1\n      tag_81\n      jump\t// in\n    tag_80:\n      mload(0x40)\n      dup1\n      swap2\n      sub\n      swap1\n      revert\n    tag_79:\n        /* \"Contracts/MoonV1Gater.sol\":2378:2382  true */\n      0x01\n        /* \"Contracts/MoonV1Gater.sol\":2348:2356  gateList */\n      dup1\n        /* \"Contracts/MoonV1Gater.sol\":2348:2368  gateList[msg.sender] */\n      0x00\n        /* \"Contracts/MoonV1Gater.sol\":2357:2367  msg.sender */\n      caller\n        /* \"Contracts/MoonV1Gater.sol\":2348:2368  gateList[msg.sender] */\n      0xffffffffffffffffffffffffffffffffffffffff\n      and\n      0xffffffffffffffffffffffffffffffffffffffff\n      and\n      dup2\n      mstore\n      0x20\n      add\n      swap1\n      dup2\n      mstore\n      0x20\n      add\n      0x00\n      keccak256\n        /* \"Contracts/MoonV1Gater.sol\":2348:2375  gateList[msg.sender].unlock */\n      0x0f\n      add\n      0x05\n        /* \"Contracts/MoonV1Gater.sol\":2348:2382  gateList[msg.sender].unlock = true */\n      0x0100\n      exp\n      dup2\n      sload\n      dup2\n      0xff\n      mul\n      not\n      and\n      swap1\n      dup4\n      iszero\n      iszero\n      mul\n      or\n      swap1\n      sstore\n      pop\n        /* \"Contracts/MoonV1Gater.sol\":2113:2389  function lockGatebyGater() external onlyGator {... */\n      jump\t// out\n        /* \"Contracts/MoonV1Gater.sol\":295:341  mapping(address => LGate.Info) public gateList */\n    tag_37:\n      mstore(0x20, 0x01)\n      dup1\n      0x00\n      mstore\n      keccak256(0x00, 0x40)\n      0x00\n      swap2\n      pop\n      swap1\n      pop\n      dup1\n      0x00\n      add\n      0x00\n      swap1\n      sload\n      swap1\n      0x0100\n      exp\n      swap1\n      div\n      0xffffffffffffffffffffffffffffffffffffffff\n      and\n      swap1\n      dup1\n      0x01\n      add\n      0x00\n      swap1\n      sload\n      swap1\n      0x0100\n      exp\n      swap1\n      div\n      0xffffffffffffffffffffffffffffffffffffffff\n      and\n      swap1\n      dup1\n      0x02\n      add\n      0x00\n      swap1\n      sload\n      swap1\n      0x0100\n      exp\n      swap1\n      div\n      0xffffffffffffffffffffffffffffffffffffffff\n      and\n      swap1\n      dup1\n      0x03\n      add\n      sload\n      swap1\n      dup1\n      0x04\n      add\n      sload\n      swap1\n      dup1\n      0x0f\n      add\n      0x00\n      swap1\n      sload\n      swap1\n      0x0100\n      exp\n      swap1\n      div\n      0xffffffff\n      and\n      swap1\n      dup1\n      0x0f\n      add\n      0x04\n      swap1\n      sload\n      swap1\n      0x0100\n      exp\n      swap1\n      div\n      0xff\n      and\n      swap1\n      dup1\n      0x0f\n      add\n      0x05\n      swap1\n      sload\n      swap1\n      0x0100\n      exp\n      swap1\n      div\n      0xff\n      and\n      swap1\n      dup1\n      0x0f\n      add\n      0x06\n      swap1\n      sload\n      swap1\n      0x0100\n      exp\n      swap1\n      div\n      0xff\n      and\n      swap1\n      pop\n      dup10\n      jump\t// out\n        /* \"Contracts/MoonV1Gater.sol\":1357:1768  function updateGatebyMarketor(LGate.Info memory _gater)... */\n    tag_43:\n        /* \"Contracts/MoonV1Manager.sol\":629:633  true */\n      0x01\n        /* \"Contracts/MoonV1Manager.sol\":599:633  marketManagers[msg.sender] == true */\n      iszero\n      iszero\n        /* \"Contracts/MoonV1Manager.sol\":599:613  marketManagers */\n      0x00\n        /* \"Contracts/MoonV1Manager.sol\":599:625  marketManagers[msg.sender] */\n      dup1\n        /* \"Contracts/MoonV1Manager.sol\":614:624  msg.sender */\n      caller\n        /* \"Contracts/MoonV1Manager.sol\":599:625  marketManagers[msg.sender] */\n      0xffffffffffffffffffffffffffffffffffffffff\n      and\n      0xffffffffffffffffffffffffffffffffffffffff\n      and\n      dup2\n      mstore\n      0x20\n      add\n      swap1\n      dup2\n      mstore\n      0x20\n      add\n      0x00\n      keccak256\n      0x00\n      swap1\n      sload\n      swap1\n      0x0100\n      exp\n      swap1\n      div\n      0xff\n      and\n        /* \"Contracts/MoonV1Manager.sol\":599:633  marketManagers[msg.sender] == true */\n      iszero\n      iszero\n      eq\n        /* \"Contracts/MoonV1Manager.sol\":591:634  require(marketManagers[msg.sender] == true) */\n      tag_83\n      jumpi\n      0x00\n      dup1\n      revert\n    tag_83:\n        /* \"Contracts/MoonV1Gater.sol\":1530:1534  true */\n      0x01\n        /* \"Contracts/MoonV1Gater.sol\":1491:1534  gateList[_gater.gateAddress].isUsed == true */\n      iszero\n      iszero\n        /* \"Contracts/MoonV1Gater.sol\":1491:1499  gateList */\n      0x01\n        /* \"Contracts/MoonV1Gater.sol\":1491:1519  gateList[_gater.gateAddress] */\n      0x00\n        /* \"Contracts/MoonV1Gater.sol\":1500:1506  _gater */\n      dup4\n        /* \"Contracts/MoonV1Gater.sol\":1500:1518  _gater.gateAddress */\n      0x20\n      add\n      mload\n        /* \"Contracts/MoonV1Gater.sol\":1491:1519  gateList[_gater.gateAddress] */\n      0xffffffffffffffffffffffffffffffffffffffff\n      and\n      0xffffffffffffffffffffffffffffffffffffffff\n      and\n      dup2\n      mstore\n      0x20\n      add\n      swap1\n      dup2\n      mstore\n      0x20\n      add\n      0x00\n      keccak256\n        /* \"Contracts/MoonV1Gater.sol\":1491:1526  gateList[_gater.gateAddress].isUsed */\n      0x0f\n      add\n      0x06\n      swap1\n      sload\n      swap1\n      0x0100\n      exp\n      swap1\n      div\n      0xff\n      and\n        /* \"Contracts/MoonV1Gater.sol\":1491:1534  gateList[_gater.gateAddress].isUsed == true */\n      iszero\n      iszero\n      eq\n        /* \"Contracts/MoonV1Gater.sol\":1470:1580  require(... */\n      tag_85\n      jumpi\n      mload(0x40)\n      0x08c379a000000000000000000000000000000000000000000000000000000000\n      dup2\n      mstore\n      0x04\n      add\n      tag_86\n      swap1\n      tag_87\n      jump\t// in\n    tag_86:\n      mload(0x40)\n      dup1\n      swap2\n      sub\n      swap1\n      revert\n    tag_85:\n        /* \"Contracts/MoonV1Gater.sol\":1612:1620  gateList */\n      0x01\n        /* \"Contracts/MoonV1Gater.sol\":1612:1640  gateList[_gater.gateAddress] */\n      0x00\n        /* \"Contracts/MoonV1Gater.sol\":1621:1627  _gater */\n      dup3\n        /* \"Contracts/MoonV1Gater.sol\":1621:1639  _gater.gateAddress */\n      0x20\n      add\n      mload\n        /* \"Contracts/MoonV1Gater.sol\":1612:1640  gateList[_gater.gateAddress] */\n      0xffffffffffffffffffffffffffffffffffffffff\n      and\n      0xffffffffffffffffffffffffffffffffffffffff\n      and\n      dup2\n      mstore\n      0x20\n      add\n      swap1\n      dup2\n      mstore\n      0x20\n      add\n      0x00\n      keccak256\n        /* \"Contracts/MoonV1Gater.sol\":1612:1653  gateList[_gater.gateAddress].marketunlock */\n      0x0f\n      add\n      0x04\n      swap1\n      sload\n      swap1\n      0x0100\n      exp\n      swap1\n      div\n      0xff\n      and\n        /* \"Contracts/MoonV1Gater.sol\":1590:1596  _gater */\n      dup2\n        /* \"Contracts/MoonV1Gater.sol\":1590:1609  _gater.marketunlock */\n      0xe0\n      add\n        /* \"Contracts/MoonV1Gater.sol\":1590:1653  _gater.marketunlock = gateList[_gater.gateAddress].marketunlock */\n      swap1\n      iszero\n      iszero\n      swap1\n      dup2\n      iszero\n      iszero\n      dup2\n      mstore\n      pop\n      pop\n        /* \"Contracts/MoonV1Gater.sol\":1679:1687  gateList */\n      0x01\n        /* \"Contracts/MoonV1Gater.sol\":1679:1707  gateList[_gater.gateAddress] */\n      0x00\n        /* \"Contracts/MoonV1Gater.sol\":1688:1694  _gater */\n      dup3\n        /* \"Contracts/MoonV1Gater.sol\":1688:1706  _gater.gateAddress */\n      0x20\n      add\n      mload\n        /* \"Contracts/MoonV1Gater.sol\":1679:1707  gateList[_gater.gateAddress] */\n      0xffffffffffffffffffffffffffffffffffffffff\n      and\n      0xffffffffffffffffffffffffffffffffffffffff\n      and\n      dup2\n      mstore\n      0x20\n      add\n      swap1\n      dup2\n      mstore\n      0x20\n      add\n      0x00\n      keccak256\n        /* \"Contracts/MoonV1Gater.sol\":1679:1714  gateList[_gater.gateAddress].unlock */\n      0x0f\n      add\n      0x05\n      swap1\n      sload\n      swap1\n      0x0100\n      exp\n      swap1\n      div\n      0xff\n      and\n        /* \"Contracts/MoonV1Gater.sol\":1663:1669  _gater */\n      dup2\n        /* \"Contracts/MoonV1Gater.sol\":1663:1676  _gater.unlock */\n      0x0100\n      add\n        /* \"Contracts/MoonV1Gater.sol\":1663:1714  _gater.unlock = gateList[_gater.gateAddress].unlock */\n      swap1\n      iszero\n      iszero\n      swap1\n      dup2\n      iszero\n      iszero\n      dup2\n      mstore\n      pop\n      pop\n        /* \"Contracts/MoonV1Gater.sol\":1755:1761  _gater */\n      dup1\n        /* \"Contracts/MoonV1Gater.sol\":1724:1732  gateList */\n      0x01\n        /* \"Contracts/MoonV1Gater.sol\":1724:1752  gateList[_gater.gateAddress] */\n      0x00\n        /* \"Contracts/MoonV1Gater.sol\":1733:1739  _gater */\n      dup4\n        /* \"Contracts/MoonV1Gater.sol\":1733:1751  _gater.gateAddress */\n      0x20\n      add\n      mload\n        /* \"Contracts/MoonV1Gater.sol\":1724:1752  gateList[_gater.gateAddress] */\n      0xffffffffffffffffffffffffffffffffffffffff\n      and\n      0xffffffffffffffffffffffffffffffffffffffff\n      and\n      dup2\n      mstore\n      0x20\n      add\n      swap1\n      dup2\n      mstore\n      0x20\n      add\n      0x00\n      keccak256\n        /* \"Contracts/MoonV1Gater.sol\":1724:1761  gateList[_gater.gateAddress] = _gater */\n      0x00\n      dup3\n      add\n      mload\n      dup2\n      0x00\n      add\n      exp(0x0100, 0x00)\n      dup2\n      sload\n      dup2\n      0xffffffffffffffffffffffffffffffffffffffff\n      mul\n      not\n      and\n      swap1\n      dup4\n      0xffffffffffffffffffffffffffffffffffffffff\n      and\n      mul\n      or\n      swap1\n      sstore\n      pop\n      0x20\n      dup3\n      add\n      mload\n      dup2\n      0x01\n      add\n      exp(0x0100, 0x00)\n      dup2\n      sload\n      dup2\n      0xffffffffffffffffffffffffffffffffffffffff\n      mul\n      not\n      and\n      swap1\n      dup4\n      0xffffffffffffffffffffffffffffffffffffffff\n      and\n      mul\n      or\n      swap1\n      sstore\n      pop\n      0x40\n      dup3\n      add\n      mload\n      dup2\n      0x02\n      add\n      exp(0x0100, 0x00)\n      dup2\n      sload\n      dup2\n      0xffffffffffffffffffffffffffffffffffffffff\n      mul\n      not\n      and\n      swap1\n      dup4\n      0xffffffffffffffffffffffffffffffffffffffff\n      and\n      mul\n      or\n      swap1\n      sstore\n      pop\n      0x60\n      dup3\n      add\n      mload\n      dup2\n      0x03\n      add\n      sstore\n      0x80\n      dup3\n      add\n      mload\n      dup2\n      0x04\n      add\n      sstore\n      0xa0\n      dup3\n      add\n      mload\n      dup2\n      0x05\n      add\n      swap1\n      0x0a\n      tag_88\n      swap3\n      swap2\n      swap1\n      tag_89\n      jump\t// in\n    tag_88:\n      pop\n      0xc0\n      dup3\n      add\n      mload\n      dup2\n      0x0f\n      add\n      exp(0x0100, 0x00)\n      dup2\n      sload\n      dup2\n      0xffffffff\n      mul\n      not\n      and\n      swap1\n      dup4\n      0xffffffff\n      and\n      mul\n      or\n      swap1\n      sstore\n      pop\n      0xe0\n      dup3\n      add\n      mload\n      dup2\n      0x0f\n      add\n      exp(0x0100, 0x04)\n      dup2\n      sload\n      dup2\n      0xff\n      mul\n      not\n      and\n      swap1\n      dup4\n      iszero\n      iszero\n      mul\n      or\n      swap1\n      sstore\n      pop\n      0x0100\n      dup3\n      add\n      mload\n      dup2\n      0x0f\n      add\n      exp(0x0100, 0x05)\n      dup2\n      sload\n      dup2\n      0xff\n      mul\n      not\n      and\n      swap1\n      dup4\n      iszero\n      iszero\n      mul\n      or\n      swap1\n      sstore\n      pop\n      0x0120\n      dup3\n      add\n      mload\n      dup2\n      0x0f\n      add\n      exp(0x0100, 0x06)\n      dup2\n      sload\n      dup2\n      0xff\n      mul\n      not\n      and\n      swap1\n      dup4\n      iszero\n      iszero\n      mul\n      or\n      swap1\n      sstore\n      pop\n      swap1\n      pop\n      pop\n        /* \"Contracts/MoonV1Gater.sol\":1357:1768  function updateGatebyMarketor(LGate.Info memory _gater)... */\n      pop\n      jump\t// out\n        /* \"Contracts/MoonV1Manager.sol\":229:275  mapping(address => bool) public marketManagers */\n    tag_46:\n      mstore(0x20, 0x00)\n      dup1\n      0x00\n      mstore\n      keccak256(0x00, 0x40)\n      0x00\n      swap2\n      pop\n      sload\n      swap1\n      0x0100\n      exp\n      swap1\n      div\n      0xff\n      and\n      dup2\n      jump\t// out\n        /* \"Contracts/MoonV1Gater.sol\":1009:1286  function unlockGatebyMarketor(address _gateraddress)... */\n    tag_50:\n        /* \"Contracts/MoonV1Manager.sol\":629:633  true */\n      0x01\n        /* \"Contracts/MoonV1Manager.sol\":599:633  marketManagers[msg.sender] == true */\n      iszero\n      iszero\n        /* \"Contracts/MoonV1Manager.sol\":599:613  marketManagers */\n      0x00\n        /* \"Contracts/MoonV1Manager.sol\":599:625  marketManagers[msg.sender] */\n      dup1\n        /* \"Contracts/MoonV1Manager.sol\":614:624  msg.sender */\n      caller\n        /* \"Contracts/MoonV1Manager.sol\":599:625  marketManagers[msg.sender] */\n      0xffffffffffffffffffffffffffffffffffffffff\n      and\n      0xffffffffffffffffffffffffffffffffffffffff\n      and\n      dup2\n      mstore\n      0x20\n      add\n      swap1\n      dup2\n      mstore\n      0x20\n      add\n      0x00\n      keccak256\n      0x00\n      swap1\n      sload\n      swap1\n      0x0100\n      exp\n      swap1\n      div\n      0xff\n      and\n        /* \"Contracts/MoonV1Manager.sol\":599:633  marketManagers[msg.sender] == true */\n      iszero\n      iszero\n      eq\n        /* \"Contracts/MoonV1Manager.sol\":591:634  require(marketManagers[msg.sender] == true) */\n      tag_91\n      jumpi\n      0x00\n      dup1\n      revert\n    tag_91:\n        /* \"Contracts/MoonV1Gater.sol\":1174:1178  true */\n      0x01\n        /* \"Contracts/MoonV1Gater.sol\":1140:1178  gateList[_gateraddress].isUsed == true */\n      iszero\n      iszero\n        /* \"Contracts/MoonV1Gater.sol\":1140:1148  gateList */\n      0x01\n        /* \"Contracts/MoonV1Gater.sol\":1140:1163  gateList[_gateraddress] */\n      0x00\n        /* \"Contracts/MoonV1Gater.sol\":1149:1162  _gateraddress */\n      dup4\n        /* \"Contracts/MoonV1Gater.sol\":1140:1163  gateList[_gateraddress] */\n      0xffffffffffffffffffffffffffffffffffffffff\n      and\n      0xffffffffffffffffffffffffffffffffffffffff\n      and\n      dup2\n      mstore\n      0x20\n      add\n      swap1\n      dup2\n      mstore\n      0x20\n      add\n      0x00\n      keccak256\n        /* \"Contracts/MoonV1Gater.sol\":1140:1170  gateList[_gateraddress].isUsed */\n      0x0f\n      add\n      0x06\n      swap1\n      sload\n      swap1\n      0x0100\n      exp\n      swap1\n      div\n      0xff\n      and\n        /* \"Contracts/MoonV1Gater.sol\":1140:1178  gateList[_gateraddress].isUsed == true */\n      iszero\n      iszero\n      eq\n        /* \"Contracts/MoonV1Gater.sol\":1119:1225  require(... */\n      tag_93\n      jumpi\n      mload(0x40)\n      0x08c379a000000000000000000000000000000000000000000000000000000000\n      dup2\n      mstore\n      0x04\n      add\n      tag_94\n      swap1\n      tag_81\n      jump\t// in\n    tag_94:\n      mload(0x40)\n      dup1\n      swap2\n      sub\n      swap1\n      revert\n    tag_93:\n        /* \"Contracts/MoonV1Gater.sol\":1274:1279  false */\n      0x00\n        /* \"Contracts/MoonV1Gater.sol\":1235:1243  gateList */\n      0x01\n        /* \"Contracts/MoonV1Gater.sol\":1235:1258  gateList[_gateraddress] */\n      0x00\n        /* \"Contracts/MoonV1Gater.sol\":1244:1257  _gateraddress */\n      dup4\n        /* \"Contracts/MoonV1Gater.sol\":1235:1258  gateList[_gateraddress] */\n      0xffffffffffffffffffffffffffffffffffffffff\n      and\n      0xffffffffffffffffffffffffffffffffffffffff\n      and\n      dup2\n      mstore\n      0x20\n      add\n      swap1\n      dup2\n      mstore\n      0x20\n      add\n      0x00\n      keccak256\n        /* \"Contracts/MoonV1Gater.sol\":1235:1271  gateList[_gateraddress].marketunlock */\n      0x0f\n      add\n      0x04\n        /* \"Contracts/MoonV1Gater.sol\":1235:1279  gateList[_gateraddress].marketunlock = false */\n      0x0100\n      exp\n      dup2\n      sload\n      dup2\n      0xff\n      mul\n      not\n      and\n      swap1\n      dup4\n      iszero\n      iszero\n      mul\n      or\n      swap1\n      sstore\n      pop\n        /* \"Contracts/MoonV1Gater.sol\":1009:1286  function unlockGatebyMarketor(address _gateraddress)... */\n      pop\n      jump\t// out\n        /* \"Contracts/MoonV1Gater.sol\":729:1003  function lockGatebyMarketor(address _gateraddress)... */\n    tag_53:\n        /* \"Contracts/MoonV1Manager.sol\":629:633  true */\n      0x01\n        /* \"Contracts/MoonV1Manager.sol\":599:633  marketManagers[msg.sender] == true */\n      iszero\n      iszero\n        /* \"Contracts/MoonV1Manager.sol\":599:613  marketManagers */\n      0x00\n        /* \"Contracts/MoonV1Manager.sol\":599:625  marketManagers[msg.sender] */\n      dup1\n        /* \"Contracts/MoonV1Manager.sol\":614:624  msg.sender */\n      caller\n        /* \"Contracts/MoonV1Manager.sol\":599:625  marketManagers[msg.sender] */\n      0xffffffffffffffffffffffffffffffffffffffff\n      and\n      0xffffffffffffffffffffffffffffffffffffffff\n      and\n      dup2\n      mstore\n      0x20\n      add\n      swap1\n      dup2\n      mstore\n      0x20\n      add\n      0x00\n      keccak256\n      0x00\n      swap1\n      sload\n      swap1\n      0x0100\n      exp\n      swap1\n      div\n      0xff\n      and\n        /* \"Contracts/MoonV1Manager.sol\":599:633  marketManagers[msg.sender] == true */\n      iszero\n      iszero\n      eq\n        /* \"Contracts/MoonV1Manager.sol\":591:634  require(marketManagers[msg.sender] == true) */\n      tag_96\n      jumpi\n      0x00\n      dup1\n      revert\n    tag_96:\n        /* \"Contracts/MoonV1Gater.sol\":892:896  true */\n      0x01\n        /* \"Contracts/MoonV1Gater.sol\":858:896  gateList[_gateraddress].isUsed == true */\n      iszero\n      iszero\n        /* \"Contracts/MoonV1Gater.sol\":858:866  gateList */\n      0x01\n        /* \"Contracts/MoonV1Gater.sol\":858:881  gateList[_gateraddress] */\n      0x00\n        /* \"Contracts/MoonV1Gater.sol\":867:880  _gateraddress */\n      dup4\n        /* \"Contracts/MoonV1Gater.sol\":858:881  gateList[_gateraddress] */\n      0xffffffffffffffffffffffffffffffffffffffff\n      and\n      0xffffffffffffffffffffffffffffffffffffffff\n      and\n      dup2\n      mstore\n      0x20\n      add\n      swap1\n      dup2\n      mstore\n      0x20\n      add\n      0x00\n      keccak256\n        /* \"Contracts/MoonV1Gater.sol\":858:888  gateList[_gateraddress].isUsed */\n      0x0f\n      add\n      0x06\n      swap1\n      sload\n      swap1\n      0x0100\n      exp\n      swap1\n      div\n      0xff\n      and\n        /* \"Contracts/MoonV1Gater.sol\":858:896  gateList[_gateraddress].isUsed == true */\n      iszero\n      iszero\n      eq\n        /* \"Contracts/MoonV1Gater.sol\":837:943  require(... */\n      tag_98\n      jumpi\n      mload(0x40)\n      0x08c379a000000000000000000000000000000000000000000000000000000000\n      dup2\n      mstore\n      0x04\n      add\n      tag_99\n      swap1\n      tag_81\n      jump\t// in\n    tag_99:\n      mload(0x40)\n      dup1\n      swap2\n      sub\n      swap1\n      revert\n    tag_98:\n        /* \"Contracts/MoonV1Gater.sol\":992:996  true */\n      0x01\n        /* \"Contracts/MoonV1Gater.sol\":953:961  gateList */\n      dup1\n        /* \"Contracts/MoonV1Gater.sol\":953:976  gateList[_gateraddress] */\n      0x00\n        /* \"Contracts/MoonV1Gater.sol\":962:975  _gateraddress */\n      dup4\n        /* \"Contracts/MoonV1Gater.sol\":953:976  gateList[_gateraddress] */\n      0xffffffffffffffffffffffffffffffffffffffff\n      and\n      0xffffffffffffffffffffffffffffffffffffffff\n      and\n      dup2\n      mstore\n      0x20\n      add\n      swap1\n      dup2\n      mstore\n      0x20\n      add\n      0x00\n      keccak256\n        /* \"Contracts/MoonV1Gater.sol\":953:989  gateList[_gateraddress].marketunlock */\n      0x0f\n      add\n      0x04\n        /* \"Contracts/MoonV1Gater.sol\":953:996  gateList[_gateraddress].marketunlock = true */\n      0x0100\n      exp\n      dup2\n      sload\n      dup2\n      0xff\n      mul\n      not\n      and\n      swap1\n      dup4\n      iszero\n      iszero\n      mul\n      or\n      swap1\n      sstore\n      pop\n        /* \"Contracts/MoonV1Gater.sol\":729:1003  function lockGatebyMarketor(address _gateraddress)... */\n      pop\n      jump\t// out\n        /* \"Contracts/MoonV1Gater.sol\":3617:3727  function isValidGater() external view returns (bool) {... */\n    tag_55:\n        /* \"Contracts/MoonV1Gater.sol\":3664:3668  bool */\n      0x00\n        /* \"Contracts/MoonV1Gater.sol\":3687:3695  gateList */\n      0x01\n        /* \"Contracts/MoonV1Gater.sol\":3687:3707  gateList[msg.sender] */\n      0x00\n        /* \"Contracts/MoonV1Gater.sol\":3696:3706  msg.sender */\n      caller\n        /* \"Contracts/MoonV1Gater.sol\":3687:3707  gateList[msg.sender] */\n      0xffffffffffffffffffffffffffffffffffffffff\n      and\n      0xffffffffffffffffffffffffffffffffffffffff\n      and\n      dup2\n      mstore\n      0x20\n      add\n      swap1\n      dup2\n      mstore\n      0x20\n      add\n      0x00\n      keccak256\n        /* \"Contracts/MoonV1Gater.sol\":3687:3720  gateList[msg.sender].marketunlock */\n      0x0f\n      add\n      0x04\n      swap1\n      sload\n      swap1\n      0x0100\n      exp\n      swap1\n      div\n      0xff\n      and\n        /* \"Contracts/MoonV1Gater.sol\":3680:3720  return gateList[msg.sender].marketunlock */\n      swap1\n      pop\n        /* \"Contracts/MoonV1Gater.sol\":3617:3727  function isValidGater() external view returns (bool) {... */\n      swap1\n      jump\t// out\n        /* \"Contracts/MoonV1Gater.sol\":1774:1959  function delGatebyMarketor(address _gater) external onlyMarketManager {... */\n    tag_59:\n        /* \"Contracts/MoonV1Manager.sol\":629:633  true */\n      0x01\n        /* \"Contracts/MoonV1Manager.sol\":599:633  marketManagers[msg.sender] == true */\n      iszero\n      iszero\n        /* \"Contracts/MoonV1Manager.sol\":599:613  marketManagers */\n      0x00\n        /* \"Contracts/MoonV1Manager.sol\":599:625  marketManagers[msg.sender] */\n      dup1\n        /* \"Contracts/MoonV1Manager.sol\":614:624  msg.sender */\n      caller\n        /* \"Contracts/MoonV1Manager.sol\":599:625  marketManagers[msg.sender] */\n      0xffffffffffffffffffffffffffffffffffffffff\n      and\n      0xffffffffffffffffffffffffffffffffffffffff\n      and\n      dup2\n      mstore\n      0x20\n      add\n      swap1\n      dup2\n      mstore\n      0x20\n      add\n      0x00\n      keccak256\n      0x00\n      swap1\n      sload\n      swap1\n      0x0100\n      exp\n      swap1\n      div\n      0xff\n      and\n        /* \"Contracts/MoonV1Manager.sol\":599:633  marketManagers[msg.sender] == true */\n      iszero\n      iszero\n      eq\n        /* \"Contracts/MoonV1Manager.sol\":591:634  require(marketManagers[msg.sender] == true) */\n      tag_102\n      jumpi\n      0x00\n      dup1\n      revert\n    tag_102:\n        /* \"Contracts/MoonV1Gater.sol\":1889:1893  true */\n      0x01\n        /* \"Contracts/MoonV1Gater.sol\":1862:1893  gateList[_gater].isUsed == true */\n      iszero\n      iszero\n        /* \"Contracts/MoonV1Gater.sol\":1862:1870  gateList */\n      0x01\n        /* \"Contracts/MoonV1Gater.sol\":1862:1878  gateList[_gater] */\n      0x00\n        /* \"Contracts/MoonV1Gater.sol\":1871:1877  _gater */\n      dup4\n        /* \"Contracts/MoonV1Gater.sol\":1862:1878  gateList[_gater] */\n      0xffffffffffffffffffffffffffffffffffffffff\n      and\n      0xffffffffffffffffffffffffffffffffffffffff\n      and\n      dup2\n      mstore\n      0x20\n      add\n      swap1\n      dup2\n      mstore\n      0x20\n      add\n      0x00\n      keccak256\n        /* \"Contracts/MoonV1Gater.sol\":1862:1885  gateList[_gater].isUsed */\n      0x0f\n      add\n      0x06\n      swap1\n      sload\n      swap1\n      0x0100\n      exp\n      swap1\n      div\n      0xff\n      and\n        /* \"Contracts/MoonV1Gater.sol\":1862:1893  gateList[_gater].isUsed == true */\n      iszero\n      iszero\n      eq\n        /* \"Contracts/MoonV1Gater.sol\":1854:1918  require(gateList[_gater].isUsed == true, \"the gater is exister\") */\n      tag_104\n      jumpi\n      mload(0x40)\n      0x08c379a000000000000000000000000000000000000000000000000000000000\n      dup2\n      mstore\n      0x04\n      add\n      tag_105\n      swap1\n      tag_87\n      jump\t// in\n    tag_105:\n      mload(0x40)\n      dup1\n      swap2\n      sub\n      swap1\n      revert\n    tag_104:\n        /* \"Contracts/MoonV1Gater.sol\":1936:1944  gateList */\n      0x01\n        /* \"Contracts/MoonV1Gater.sol\":1936:1952  gateList[_gater] */\n      0x00\n        /* \"Contracts/MoonV1Gater.sol\":1945:1951  _gater */\n      dup3\n        /* \"Contracts/MoonV1Gater.sol\":1936:1952  gateList[_gater] */\n      0xffffffffffffffffffffffffffffffffffffffff\n      and\n      0xffffffffffffffffffffffffffffffffffffffff\n      and\n      dup2\n      mstore\n      0x20\n      add\n      swap1\n      dup2\n      mstore\n      0x20\n      add\n      0x00\n      keccak256\n      0x00\n        /* \"Contracts/MoonV1Gater.sol\":1929:1952  delete gateList[_gater] */\n      dup1\n      dup3\n      add\n      exp(0x0100, 0x00)\n      dup2\n      sload\n      swap1\n      0xffffffffffffffffffffffffffffffffffffffff\n      mul\n      not\n      and\n      swap1\n      sstore\n      0x01\n      dup3\n      add\n      exp(0x0100, 0x00)\n      dup2\n      sload\n      swap1\n      0xffffffffffffffffffffffffffffffffffffffff\n      mul\n      not\n      and\n      swap1\n      sstore\n      0x02\n      dup3\n      add\n      exp(0x0100, 0x00)\n      dup2\n      sload\n      swap1\n      0xffffffffffffffffffffffffffffffffffffffff\n      mul\n      not\n      and\n      swap1\n      sstore\n      0x03\n      dup3\n      add\n      0x00\n      swap1\n      sstore\n      0x04\n      dup3\n      add\n      0x00\n      swap1\n      sstore\n      0x05\n      dup3\n      add\n      0x00\n      tag_106\n      swap2\n      swap1\n      tag_107\n      jump\t// in\n    tag_106:\n      0x0f\n      dup3\n      add\n      exp(0x0100, 0x00)\n      dup2\n      sload\n      swap1\n      0xffffffff\n      mul\n      not\n      and\n      swap1\n      sstore\n      0x0f\n      dup3\n      add\n      exp(0x0100, 0x04)\n      dup2\n      sload\n      swap1\n      0xff\n      mul\n      not\n      and\n      swap1\n      sstore\n      0x0f\n      dup3\n      add\n      exp(0x0100, 0x05)\n      dup2\n      sload\n      swap1\n      0xff\n      mul\n      not\n      and\n      swap1\n      sstore\n      0x0f\n      dup3\n      add\n      exp(0x0100, 0x06)\n      dup2\n      sload\n      swap1\n      0xff\n      mul\n      not\n      and\n      swap1\n      sstore\n      pop\n      pop\n        /* \"Contracts/MoonV1Gater.sol\":1774:1959  function delGatebyMarketor(address _gater) external onlyMarketManager {... */\n      pop\n      jump\t// out\n        /* \"Contracts/MoonV1Manager.sol\":875:990  function setMarketManager(address _owner) external onlyMarketCreator {... */\n    tag_62:\n        /* \"Contracts/MoonV1Manager.sol\":406:419  marketCreator */\n      immutable(\"0xe6f961b5eaec29807fd460af12fbd720c7c4993791c080ad8e40c06b783956d8\")\n        /* \"Contracts/MoonV1Manager.sol\":392:419  msg.sender == marketCreator */\n      0xffffffffffffffffffffffffffffffffffffffff\n      and\n        /* \"Contracts/MoonV1Manager.sol\":392:402  msg.sender */\n      caller\n        /* \"Contracts/MoonV1Manager.sol\":392:419  msg.sender == marketCreator */\n      0xffffffffffffffffffffffffffffffffffffffff\n      and\n      eq\n        /* \"Contracts/MoonV1Manager.sol\":384:420  require(msg.sender == marketCreator) */\n      tag_109\n      jumpi\n      0x00\n      dup1\n      revert\n    tag_109:\n        /* \"Contracts/MoonV1Manager.sol\":979:983  true */\n      0x01\n        /* \"Contracts/MoonV1Manager.sol\":954:968  marketManagers */\n      0x00\n        /* \"Contracts/MoonV1Manager.sol\":954:976  marketManagers[_owner] */\n      dup1\n        /* \"Contracts/MoonV1Manager.sol\":969:975  _owner */\n      dup4\n        /* \"Contracts/MoonV1Manager.sol\":954:976  marketManagers[_owner] */\n      0xffffffffffffffffffffffffffffffffffffffff\n      and\n      0xffffffffffffffffffffffffffffffffffffffff\n      and\n      dup2\n      mstore\n      0x20\n      add\n      swap1\n      dup2\n      mstore\n      0x20\n      add\n      0x00\n      keccak256\n      0x00\n        /* \"Contracts/MoonV1Manager.sol\":954:983  marketManagers[_owner] = true */\n      0x0100\n      exp\n      dup2\n      sload\n      dup2\n      0xff\n      mul\n      not\n      and\n      swap1\n      dup4\n      iszero\n      iszero\n      mul\n      or\n      swap1\n      sstore\n      pop\n        /* \"Contracts/MoonV1Manager.sol\":875:990  function setMarketManager(address _owner) external onlyMarketCreator {... */\n      pop\n      jump\t// out\n        /* \"Contracts/MoonV1Gater.sol\":3152:3611  function addGater(LGate.Info memory _gater) external {... */\n    tag_65:\n        /* \"Contracts/MoonV1Gater.sol\":3275:3279  true */\n      0x01\n        /* \"Contracts/MoonV1Gater.sol\":3236:3279  gateList[_gater.gateAddress].isUsed != true */\n      iszero\n      iszero\n        /* \"Contracts/MoonV1Gater.sol\":3236:3244  gateList */\n      0x01\n        /* \"Contracts/MoonV1Gater.sol\":3236:3264  gateList[_gater.gateAddress] */\n      0x00\n        /* \"Contracts/MoonV1Gater.sol\":3245:3251  _gater */\n      dup4\n        /* \"Contracts/MoonV1Gater.sol\":3245:3263  _gater.gateAddress */\n      0x20\n      add\n      mload\n        /* \"Contracts/MoonV1Gater.sol\":3236:3264  gateList[_gater.gateAddress] */\n      0xffffffffffffffffffffffffffffffffffffffff\n      and\n      0xffffffffffffffffffffffffffffffffffffffff\n      and\n      dup2\n      mstore\n      0x20\n      add\n      swap1\n      dup2\n      mstore\n      0x20\n      add\n      0x00\n      keccak256\n        /* \"Contracts/MoonV1Gater.sol\":3236:3271  gateList[_gater.gateAddress].isUsed */\n      0x0f\n      add\n      0x06\n      swap1\n      sload\n      swap1\n      0x0100\n      exp\n      swap1\n      div\n      0xff\n      and\n        /* \"Contracts/MoonV1Gater.sol\":3236:3279  gateList[_gater.gateAddress].isUsed != true */\n      iszero\n      iszero\n      eq\n      iszero\n        /* \"Contracts/MoonV1Gater.sol\":3215:3325  require(... */\n      tag_112\n      jumpi\n      mload(0x40)\n      0x08c379a000000000000000000000000000000000000000000000000000000000\n      dup2\n      mstore\n      0x04\n      add\n      tag_113\n      swap1\n      tag_87\n      jump\t// in\n    tag_113:\n      mload(0x40)\n      dup1\n      swap2\n      sub\n      swap1\n      revert\n    tag_112:\n        /* \"Contracts/MoonV1Gater.sol\":3365:3375  msg.sender */\n      caller\n        /* \"Contracts/MoonV1Gater.sol\":3343:3375  _gater.gateAddress == msg.sender */\n      0xffffffffffffffffffffffffffffffffffffffff\n      and\n        /* \"Contracts/MoonV1Gater.sol\":3343:3349  _gater */\n      dup2\n        /* \"Contracts/MoonV1Gater.sol\":3343:3361  _gater.gateAddress */\n      0x20\n      add\n      mload\n        /* \"Contracts/MoonV1Gater.sol\":3343:3375  _gater.gateAddress == msg.sender */\n      0xffffffffffffffffffffffffffffffffffffffff\n      and\n      eq\n        /* \"Contracts/MoonV1Gater.sol\":3335:3397  require(_gater.gateAddress == msg.sender, \"the gater is your\") */\n      tag_114\n      jumpi\n      mload(0x40)\n      0x08c379a000000000000000000000000000000000000000000000000000000000\n      dup2\n      mstore\n      0x04\n      add\n      tag_115\n      swap1\n      tag_116\n      jump\t// in\n    tag_115:\n      mload(0x40)\n      dup1\n      swap2\n      sub\n      swap1\n      revert\n    tag_114:\n        /* \"Contracts/MoonV1Gater.sol\":3430:3435  false */\n      0x00\n        /* \"Contracts/MoonV1Gater.sol\":3408:3414  _gater */\n      dup2\n        /* \"Contracts/MoonV1Gater.sol\":3408:3427  _gater.marketunlock */\n      0xe0\n      add\n        /* \"Contracts/MoonV1Gater.sol\":3408:3435  _gater.marketunlock = false */\n      swap1\n      iszero\n      iszero\n      swap1\n      dup2\n      iszero\n      iszero\n      dup2\n      mstore\n      pop\n      pop\n        /* \"Contracts/MoonV1Gater.sol\":3488:3493  false */\n      0x00\n        /* \"Contracts/MoonV1Gater.sol\":3472:3478  _gater */\n      dup2\n        /* \"Contracts/MoonV1Gater.sol\":3472:3485  _gater.unlock */\n      0x0100\n      add\n        /* \"Contracts/MoonV1Gater.sol\":3472:3493  _gater.unlock = false */\n      swap1\n      iszero\n      iszero\n      swap1\n      dup2\n      iszero\n      iszero\n      dup2\n      mstore\n      pop\n      pop\n        /* \"Contracts/MoonV1Gater.sol\":3562:3568  _gater */\n      dup1\n        /* \"Contracts/MoonV1Gater.sol\":3531:3539  gateList */\n      0x01\n        /* \"Contracts/MoonV1Gater.sol\":3531:3559  gateList[_gater.gateAddress] */\n      0x00\n        /* \"Contracts/MoonV1Gater.sol\":3540:3546  _gater */\n      dup4\n        /* \"Contracts/MoonV1Gater.sol\":3540:3558  _gater.gateAddress */\n      0x20\n      add\n      mload\n        /* \"Contracts/MoonV1Gater.sol\":3531:3559  gateList[_gater.gateAddress] */\n      0xffffffffffffffffffffffffffffffffffffffff\n      and\n      0xffffffffffffffffffffffffffffffffffffffff\n      and\n      dup2\n      mstore\n      0x20\n      add\n      swap1\n      dup2\n      mstore\n      0x20\n      add\n      0x00\n      keccak256\n        /* \"Contracts/MoonV1Gater.sol\":3531:3568  gateList[_gater.gateAddress] = _gater */\n      0x00\n      dup3\n      add\n      mload\n      dup2\n      0x00\n      add\n      exp(0x0100, 0x00)\n      dup2\n      sload\n      dup2\n      0xffffffffffffffffffffffffffffffffffffffff\n      mul\n      not\n      and\n      swap1\n      dup4\n      0xffffffffffffffffffffffffffffffffffffffff\n      and\n      mul\n      or\n      swap1\n      sstore\n      pop\n      0x20\n      dup3\n      add\n      mload\n      dup2\n      0x01\n      add\n      exp(0x0100, 0x00)\n      dup2\n      sload\n      dup2\n      0xffffffffffffffffffffffffffffffffffffffff\n      mul\n      not\n      and\n      swap1\n      dup4\n      0xffffffffffffffffffffffffffffffffffffffff\n      and\n      mul\n      or\n      swap1\n      sstore\n      pop\n      0x40\n      dup3\n      add\n      mload\n      dup2\n      0x02\n      add\n      exp(0x0100, 0x00)\n      dup2\n      sload\n      dup2\n      0xffffffffffffffffffffffffffffffffffffffff\n      mul\n      not\n      and\n      swap1\n      dup4\n      0xffffffffffffffffffffffffffffffffffffffff\n      and\n      mul\n      or\n      swap1\n      sstore\n      pop\n      0x60\n      dup3\n      add\n      mload\n      dup2\n      0x03\n      add\n      sstore\n      0x80\n      dup3\n      add\n      mload\n      dup2\n      0x04\n      add\n      sstore\n      0xa0\n      dup3\n      add\n      mload\n      dup2\n      0x05\n      add\n      swap1\n      0x0a\n      tag_117\n      swap3\n      swap2\n      swap1\n      tag_89\n      jump\t// in\n    tag_117:\n      pop\n      0xc0\n      dup3\n      add\n      mload\n      dup2\n      0x0f\n      add\n      exp(0x0100, 0x00)\n      dup2\n      sload\n      dup2\n      0xffffffff\n      mul\n      not\n      and\n      swap1\n      dup4\n      0xffffffff\n      and\n      mul\n      or\n      swap1\n      sstore\n      pop\n      0xe0\n      dup3\n      add\n      mload\n      dup2\n      0x0f\n      add\n      exp(0x0100, 0x04)\n      dup2\n      sload\n      dup2\n      0xff\n      mul\n      not\n      and\n      swap1\n      dup4\n      iszero\n      iszero\n      mul\n      or\n      swap1\n      sstore\n      pop\n      0x0100\n      dup3\n      add\n      mload\n      dup2\n      0x0f\n      add\n      exp(0x0100, 0x05)\n      dup2\n      sload\n      dup2\n      0xff\n      mul\n      not\n      and\n      swap1\n      dup4\n      iszero\n      iszero\n      mul\n      or\n      swap1\n      sstore\n      pop\n      0x0120\n      dup3\n      add\n      mload\n      dup2\n      0x0f\n      add\n      exp(0x0100, 0x06)\n      dup2\n      sload\n      dup2\n      0xff\n      mul\n      not\n      and\n      swap1\n      dup4\n      iszero\n      iszero\n      mul\n      or\n      swap1\n      sstore\n      pop\n      swap1\n      pop\n      pop\n        /* \"Contracts/MoonV1Gater.sol\":3152:3611  function addGater(LGate.Info memory _gater) external {... */\n      pop\n      jump\t// out\n        /* \"Contracts/MoonV1Gater.sol\":2395:2674  function unlockGatebyGater() external onlyGator {... */\n    tag_67:\n        /* \"Contracts/MoonV1Gater.sol\":554:558  true */\n      0x01\n        /* \"Contracts/MoonV1Gater.sol\":517:558  gateList[msg.sender].marketunlock == true */\n      iszero\n      iszero\n        /* \"Contracts/MoonV1Gater.sol\":517:525  gateList */\n      0x01\n        /* \"Contracts/MoonV1Gater.sol\":517:537  gateList[msg.sender] */\n      0x00\n        /* \"Contracts/MoonV1Gater.sol\":526:536  msg.sender */\n      caller\n        /* \"Contracts/MoonV1Gater.sol\":517:537  gateList[msg.sender] */\n      0xffffffffffffffffffffffffffffffffffffffff\n      and\n      0xffffffffffffffffffffffffffffffffffffffff\n      and\n      dup2\n      mstore\n      0x20\n      add\n      swap1\n      dup2\n      mstore\n      0x20\n      add\n      0x00\n      keccak256\n        /* \"Contracts/MoonV1Gater.sol\":517:550  gateList[msg.sender].marketunlock */\n      0x0f\n      add\n      0x04\n      swap1\n      sload\n      swap1\n      0x0100\n      exp\n      swap1\n      div\n      0xff\n      and\n        /* \"Contracts/MoonV1Gater.sol\":517:558  gateList[msg.sender].marketunlock == true */\n      iszero\n      iszero\n      eq\n        /* \"Contracts/MoonV1Gater.sol\":509:559  require(gateList[msg.sender].marketunlock == true) */\n      tag_119\n      jumpi\n      0x00\n      dup1\n      revert\n    tag_119:\n        /* \"Contracts/MoonV1Gater.sol\":2505:2509  true */\n      0x01\n        /* \"Contracts/MoonV1Gater.sol\":2474:2509  gateList[msg.sender].isUsed == true */\n      iszero\n      iszero\n        /* \"Contracts/MoonV1Gater.sol\":2474:2482  gateList */\n      0x01\n        /* \"Contracts/MoonV1Gater.sol\":2474:2494  gateList[msg.sender] */\n      0x00\n        /* \"Contracts/MoonV1Gater.sol\":2483:2493  msg.sender */\n      caller\n        /* \"Contracts/MoonV1Gater.sol\":2474:2494  gateList[msg.sender] */\n      0xffffffffffffffffffffffffffffffffffffffff\n      and\n      0xffffffffffffffffffffffffffffffffffffffff\n      and\n      dup2\n      mstore\n      0x20\n      add\n      swap1\n      dup2\n      mstore\n      0x20\n      add\n      0x00\n      keccak256\n        /* \"Contracts/MoonV1Gater.sol\":2474:2501  gateList[msg.sender].isUsed */\n      0x0f\n      add\n      0x06\n      swap1\n      sload\n      swap1\n      0x0100\n      exp\n      swap1\n      div\n      0xff\n      and\n        /* \"Contracts/MoonV1Gater.sol\":2474:2509  gateList[msg.sender].isUsed == true */\n      iszero\n      iszero\n      eq\n        /* \"Contracts/MoonV1Gater.sol\":2474:2575  gateList[msg.sender].isUsed == true &&... */\n      dup1\n      iszero\n      tag_121\n      jumpi\n      pop\n        /* \"Contracts/MoonV1Gater.sol\":2565:2575  msg.sender */\n      caller\n        /* \"Contracts/MoonV1Gater.sol\":2529:2575  gateList[msg.sender].gateAddress == msg.sender */\n      0xffffffffffffffffffffffffffffffffffffffff\n      and\n        /* \"Contracts/MoonV1Gater.sol\":2529:2537  gateList */\n      0x01\n        /* \"Contracts/MoonV1Gater.sol\":2529:2549  gateList[msg.sender] */\n      0x00\n        /* \"Contracts/MoonV1Gater.sol\":2538:2548  msg.sender */\n      caller\n        /* \"Contracts/MoonV1Gater.sol\":2529:2549  gateList[msg.sender] */\n      0xffffffffffffffffffffffffffffffffffffffff\n      and\n      0xffffffffffffffffffffffffffffffffffffffff\n      and\n      dup2\n      mstore\n      0x20\n      add\n      swap1\n      dup2\n      mstore\n      0x20\n      add\n      0x00\n      keccak256\n        /* \"Contracts/MoonV1Gater.sol\":2529:2561  gateList[msg.sender].gateAddress */\n      0x01\n      add\n      0x00\n      swap1\n      sload\n      swap1\n      0x0100\n      exp\n      swap1\n      div\n      0xffffffffffffffffffffffffffffffffffffffff\n      and\n        /* \"Contracts/MoonV1Gater.sol\":2529:2575  gateList[msg.sender].gateAddress == msg.sender */\n      0xffffffffffffffffffffffffffffffffffffffff\n      and\n      eq\n        /* \"Contracts/MoonV1Gater.sol\":2474:2575  gateList[msg.sender].isUsed == true &&... */\n    tag_121:\n        /* \"Contracts/MoonV1Gater.sol\":2453:2622  require(... */\n      tag_122\n      jumpi\n      mload(0x40)\n      0x08c379a000000000000000000000000000000000000000000000000000000000\n      dup2\n      mstore\n      0x04\n      add\n      tag_123\n      swap1\n      tag_81\n      jump\t// in\n    tag_123:\n      mload(0x40)\n      dup1\n      swap2\n      sub\n      swap1\n      revert\n    tag_122:\n        /* \"Contracts/MoonV1Gater.sol\":2662:2667  false */\n      0x00\n        /* \"Contracts/MoonV1Gater.sol\":2632:2640  gateList */\n      0x01\n        /* \"Contracts/MoonV1Gater.sol\":2632:2652  gateList[msg.sender] */\n      0x00\n        /* \"Contracts/MoonV1Gater.sol\":2641:2651  msg.sender */\n      caller\n        /* \"Contracts/MoonV1Gater.sol\":2632:2652  gateList[msg.sender] */\n      0xffffffffffffffffffffffffffffffffffffffff\n      and\n      0xffffffffffffffffffffffffffffffffffffffff\n      and\n      dup2\n      mstore\n      0x20\n      add\n      swap1\n      dup2\n      mstore\n      0x20\n      add\n      0x00\n      keccak256\n        /* \"Contracts/MoonV1Gater.sol\":2632:2659  gateList[msg.sender].unlock */\n      0x0f\n      add\n      0x05\n        /* \"Contracts/MoonV1Gater.sol\":2632:2667  gateList[msg.sender].unlock = false */\n      0x0100\n      exp\n      dup2\n      sload\n      dup2\n      0xff\n      mul\n      not\n      and\n      swap1\n      dup4\n      iszero\n      iszero\n      mul\n      or\n      swap1\n      sstore\n      pop\n        /* \"Contracts/MoonV1Gater.sol\":2395:2674  function unlockGatebyGater() external onlyGator {... */\n      jump\t// out\n        /* \"Contracts/MoonV1Gater.sol\":2705:3146  function updateGatebyGator(LGate.Info memory _gater) external onlyGator {... */\n    tag_70:\n        /* \"Contracts/MoonV1Gater.sol\":554:558  true */\n      0x01\n        /* \"Contracts/MoonV1Gater.sol\":517:558  gateList[msg.sender].marketunlock == true */\n      iszero\n      iszero\n        /* \"Contracts/MoonV1Gater.sol\":517:525  gateList */\n      0x01\n        /* \"Contracts/MoonV1Gater.sol\":517:537  gateList[msg.sender] */\n      0x00\n        /* \"Contracts/MoonV1Gater.sol\":526:536  msg.sender */\n      caller\n        /* \"Contracts/MoonV1Gater.sol\":517:537  gateList[msg.sender] */\n      0xffffffffffffffffffffffffffffffffffffffff\n      and\n      0xffffffffffffffffffffffffffffffffffffffff\n      and\n      dup2\n      mstore\n      0x20\n      add\n      swap1\n      dup2\n      mstore\n      0x20\n      add\n      0x00\n      keccak256\n        /* \"Contracts/MoonV1Gater.sol\":517:550  gateList[msg.sender].marketunlock */\n      0x0f\n      add\n      0x04\n      swap1\n      sload\n      swap1\n      0x0100\n      exp\n      swap1\n      div\n      0xff\n      and\n        /* \"Contracts/MoonV1Gater.sol\":517:558  gateList[msg.sender].marketunlock == true */\n      iszero\n      iszero\n      eq\n        /* \"Contracts/MoonV1Gater.sol\":509:559  require(gateList[msg.sender].marketunlock == true) */\n      tag_125\n      jumpi\n      0x00\n      dup1\n      revert\n    tag_125:\n        /* \"Contracts/MoonV1Gater.sol\":2847:2851  true */\n      0x01\n        /* \"Contracts/MoonV1Gater.sol\":2808:2851  gateList[_gater.gateAddress].isUsed == true */\n      iszero\n      iszero\n        /* \"Contracts/MoonV1Gater.sol\":2808:2816  gateList */\n      0x01\n        /* \"Contracts/MoonV1Gater.sol\":2808:2836  gateList[_gater.gateAddress] */\n      0x00\n        /* \"Contracts/MoonV1Gater.sol\":2817:2823  _gater */\n      dup4\n        /* \"Contracts/MoonV1Gater.sol\":2817:2835  _gater.gateAddress */\n      0x20\n      add\n      mload\n        /* \"Contracts/MoonV1Gater.sol\":2808:2836  gateList[_gater.gateAddress] */\n      0xffffffffffffffffffffffffffffffffffffffff\n      and\n      0xffffffffffffffffffffffffffffffffffffffff\n      and\n      dup2\n      mstore\n      0x20\n      add\n      swap1\n      dup2\n      mstore\n      0x20\n      add\n      0x00\n      keccak256\n        /* \"Contracts/MoonV1Gater.sol\":2808:2843  gateList[_gater.gateAddress].isUsed */\n      0x0f\n      add\n      0x06\n      swap1\n      sload\n      swap1\n      0x0100\n      exp\n      swap1\n      div\n      0xff\n      and\n        /* \"Contracts/MoonV1Gater.sol\":2808:2851  gateList[_gater.gateAddress].isUsed == true */\n      iszero\n      iszero\n      eq\n        /* \"Contracts/MoonV1Gater.sol\":2787:2897  require(... */\n      tag_127\n      jumpi\n      mload(0x40)\n      0x08c379a000000000000000000000000000000000000000000000000000000000\n      dup2\n      mstore\n      0x04\n      add\n      tag_128\n      swap1\n      tag_87\n      jump\t// in\n    tag_128:\n      mload(0x40)\n      dup1\n      swap2\n      sub\n      swap1\n      revert\n    tag_127:\n        /* \"Contracts/MoonV1Gater.sol\":2972:2982  msg.sender */\n      caller\n        /* \"Contracts/MoonV1Gater.sol\":2928:2982  gateList[_gater.gateAddress].gateAddress == msg.sender */\n      0xffffffffffffffffffffffffffffffffffffffff\n      and\n        /* \"Contracts/MoonV1Gater.sol\":2928:2936  gateList */\n      0x01\n        /* \"Contracts/MoonV1Gater.sol\":2928:2956  gateList[_gater.gateAddress] */\n      0x00\n        /* \"Contracts/MoonV1Gater.sol\":2937:2943  _gater */\n      dup4\n        /* \"Contracts/MoonV1Gater.sol\":2937:2955  _gater.gateAddress */\n      0x20\n      add\n      mload\n        /* \"Contracts/MoonV1Gater.sol\":2928:2956  gateList[_gater.gateAddress] */\n      0xffffffffffffffffffffffffffffffffffffffff\n      and\n      0xffffffffffffffffffffffffffffffffffffffff\n      and\n      dup2\n      mstore\n      0x20\n      add\n      swap1\n      dup2\n      mstore\n      0x20\n      add\n      0x00\n      keccak256\n        /* \"Contracts/MoonV1Gater.sol\":2928:2968  gateList[_gater.gateAddress].gateAddress */\n      0x01\n      add\n      0x00\n      swap1\n      sload\n      swap1\n      0x0100\n      exp\n      swap1\n      div\n      0xffffffffffffffffffffffffffffffffffffffff\n      and\n        /* \"Contracts/MoonV1Gater.sol\":2928:2982  gateList[_gater.gateAddress].gateAddress == msg.sender */\n      0xffffffffffffffffffffffffffffffffffffffff\n      and\n      eq\n        /* \"Contracts/MoonV1Gater.sol\":2907:3025  require(... */\n      tag_129\n      jumpi\n      mload(0x40)\n      0x08c379a000000000000000000000000000000000000000000000000000000000\n      dup2\n      mstore\n      0x04\n      add\n      tag_130\n      swap1\n      tag_116\n      jump\t// in\n    tag_130:\n      mload(0x40)\n      dup1\n      swap2\n      sub\n      swap1\n      revert\n    tag_129:\n        /* \"Contracts/MoonV1Gater.sol\":3057:3062  false */\n      0x00\n        /* \"Contracts/MoonV1Gater.sol\":3035:3041  _gater */\n      dup2\n        /* \"Contracts/MoonV1Gater.sol\":3035:3054  _gater.marketunlock */\n      0xe0\n      add\n        /* \"Contracts/MoonV1Gater.sol\":3035:3062  _gater.marketunlock = false */\n      swap1\n      iszero\n      iszero\n      swap1\n      dup2\n      iszero\n      iszero\n      dup2\n      mstore\n      pop\n      pop\n        /* \"Contracts/MoonV1Gater.sol\":3088:3092  true */\n      0x01\n        /* \"Contracts/MoonV1Gater.sol\":3072:3078  _gater */\n      dup2\n        /* \"Contracts/MoonV1Gater.sol\":3072:3085  _gater.unlock */\n      0x0100\n      add\n        /* \"Contracts/MoonV1Gater.sol\":3072:3092  _gater.unlock = true */\n      swap1\n      iszero\n      iszero\n      swap1\n      dup2\n      iszero\n      iszero\n      dup2\n      mstore\n      pop\n      pop\n        /* \"Contracts/MoonV1Gater.sol\":3133:3139  _gater */\n      dup1\n        /* \"Contracts/MoonV1Gater.sol\":3102:3110  gateList */\n      0x01\n        /* \"Contracts/MoonV1Gater.sol\":3102:3130  gateList[_gater.gateAddress] */\n      0x00\n        /* \"Contracts/MoonV1Gater.sol\":3111:3117  _gater */\n      dup4\n        /* \"Contracts/MoonV1Gater.sol\":3111:3129  _gater.gateAddress */\n      0x20\n      add\n      mload\n        /* \"Contracts/MoonV1Gater.sol\":3102:3130  gateList[_gater.gateAddress] */\n      0xffffffffffffffffffffffffffffffffffffffff\n      and\n      0xffffffffffffffffffffffffffffffffffffffff\n      and\n      dup2\n      mstore\n      0x20\n      add\n      swap1\n      dup2\n      mstore\n      0x20\n      add\n      0x00\n      keccak256\n        /* \"Contracts/MoonV1Gater.sol\":3102:3139  gateList[_gater.gateAddress] = _gater */\n      0x00\n      dup3\n      add\n      mload\n      dup2\n      0x00\n      add\n      exp(0x0100, 0x00)\n      dup2\n      sload\n      dup2\n      0xffffffffffffffffffffffffffffffffffffffff\n      mul\n      not\n      and\n      swap1\n      dup4\n      0xffffffffffffffffffffffffffffffffffffffff\n      and\n      mul\n      or\n      swap1\n      sstore\n      pop\n      0x20\n      dup3\n      add\n      mload\n      dup2\n      0x01\n      add\n      exp(0x0100, 0x00)\n      dup2\n      sload\n      dup2\n      0xffffffffffffffffffffffffffffffffffffffff\n      mul\n      not\n      and\n      swap1\n      dup4\n      0xffffffffffffffffffffffffffffffffffffffff\n      and\n      mul\n      or\n      swap1\n      sstore\n      pop\n      0x40\n      dup3\n      add\n      mload\n      dup2\n      0x02\n      add\n      exp(0x0100, 0x00)\n      dup2\n      sload\n      dup2\n      0xffffffffffffffffffffffffffffffffffffffff\n      mul\n      not\n      and\n      swap1\n      dup4\n      0xffffffffffffffffffffffffffffffffffffffff\n      and\n      mul\n      or\n      swap1\n      sstore\n      pop\n      0x60\n      dup3\n      add\n      mload\n      dup2\n      0x03\n      add\n      sstore\n      0x80\n      dup3\n      add\n      mload\n      dup2\n      0x04\n      add\n      sstore\n      0xa0\n      dup3\n      add\n      mload\n      dup2\n      0x05\n      add\n      swap1\n      0x0a\n      tag_131\n      swap3\n      swap2\n      swap1\n      tag_89\n      jump\t// in\n    tag_131:\n      pop\n      0xc0\n      dup3\n      add\n      mload\n      dup2\n      0x0f\n      add\n      exp(0x0100, 0x00)\n      dup2\n      sload\n      dup2\n      0xffffffff\n      mul\n      not\n      and\n      swap1\n      dup4\n      0xffffffff\n      and\n      mul\n      or\n      swap1\n      sstore\n      pop\n      0xe0\n      dup3\n      add\n      mload\n      dup2\n      0x0f\n      add\n      exp(0x0100, 0x04)\n      dup2\n      sload\n      dup2\n      0xff\n      mul\n      not\n      and\n      swap1\n      dup4\n      iszero\n      iszero\n      mul\n      or\n      swap1\n      sstore\n      pop\n      0x0100\n      dup3\n      add\n      mload\n      dup2\n      0x0f\n      add\n      exp(0x0100, 0x05)\n      dup2\n      sload\n      dup2\n      0xff\n      mul\n      not\n      and\n      swap1\n      dup4\n      iszero\n      iszero\n      mul\n      or\n      swap1\n      sstore\n      pop\n      0x0120\n      dup3\n      add\n      mload\n      dup2\n      0x0f\n      add\n      exp(0x0100, 0x06)\n      dup2\n      sload\n      dup2\n      0xff\n      mul\n      not\n      and\n      swap1\n      dup4\n      iszero\n      iszero\n      mul\n      or\n      swap1\n      sstore\n      pop\n      swap1\n      pop\n      pop\n        /* \"Contracts/MoonV1Gater.sol\":2705:3146  function updateGatebyGator(LGate.Info memory _gater) external onlyGator {... */\n      pop\n      jump\t// out\n    tag_89:\n      dup3\n      0x0a\n      dup2\n      add\n      swap3\n      dup3\n      iszero\n      tag_132\n      jumpi\n      swap2\n      0x20\n      mul\n      dup3\n      add\n    tag_133:\n      dup3\n      dup2\n      gt\n      iszero\n      tag_134\n      jumpi\n      dup3\n      mload\n      dup3\n      sstore\n      swap2\n      0x20\n      add\n      swap2\n      swap1\n      0x01\n      add\n      swap1\n      jump(tag_133)\n    tag_134:\n    tag_132:\n      pop\n      swap1\n      pop\n      tag_135\n      swap2\n      swap1\n      tag_136\n      jump\t// in\n    tag_135:\n      pop\n      swap1\n      jump\t// out\n    tag_107:\n      pop\n      dup1\n      0x0a\n      add\n      swap1\n      tag_137\n      swap2\n      swap1\n      tag_136\n      jump\t// in\n    tag_137:\n      pop\n      jump\t// out\n    tag_136:\n    tag_138:\n      dup1\n      dup3\n      gt\n      iszero\n      tag_139\n      jumpi\n      0x00\n      dup2\n      0x00\n      swap1\n      sstore\n      pop\n      0x01\n      add\n      jump(tag_138)\n    tag_139:\n      pop\n      swap1\n      jump\t// out\n        /* \"#utility.yul\":26:683   */\n    tag_141:\n        /* \"#utility.yul\":121:126   */\n      0x00\n        /* \"#utility.yul\":146:226   */\n      tag_143\n        /* \"#utility.yul\":162:225   */\n      tag_144\n        /* \"#utility.yul\":218:224   */\n      dup5\n        /* \"#utility.yul\":162:225   */\n      tag_145\n      jump\t// in\n    tag_144:\n        /* \"#utility.yul\":146:226   */\n      tag_146\n      jump\t// in\n    tag_143:\n        /* \"#utility.yul\":137:226   */\n      swap1\n      pop\n        /* \"#utility.yul\":246:251   */\n      dup1\n        /* \"#utility.yul\":272:278   */\n      dup3\n        /* \"#utility.yul\":322:325   */\n      dup6\n        /* \"#utility.yul\":314:318   */\n      0x20\n        /* \"#utility.yul\":306:312   */\n      dup7\n        /* \"#utility.yul\":302:319   */\n      mul\n        /* \"#utility.yul\":297:300   */\n      dup3\n        /* \"#utility.yul\":293:320   */\n      add\n        /* \"#utility.yul\":290:326   */\n      gt\n        /* \"#utility.yul\":287:430   */\n      iszero\n      tag_147\n      jumpi\n        /* \"#utility.yul\":341:420   */\n      tag_148\n      tag_149\n      jump\t// in\n    tag_148:\n        /* \"#utility.yul\":287:430   */\n    tag_147:\n        /* \"#utility.yul\":454:455   */\n      0x00\n        /* \"#utility.yul\":439:677   */\n    tag_150:\n        /* \"#utility.yul\":464:470   */\n      dup6\n        /* \"#utility.yul\":461:462   */\n      dup2\n        /* \"#utility.yul\":458:471   */\n      lt\n        /* \"#utility.yul\":439:677   */\n      iszero\n      tag_152\n      jumpi\n        /* \"#utility.yul\":532:535   */\n      dup2\n        /* \"#utility.yul\":561:598   */\n      tag_153\n        /* \"#utility.yul\":594:597   */\n      dup9\n        /* \"#utility.yul\":582:592   */\n      dup3\n        /* \"#utility.yul\":561:598   */\n      tag_154\n      jump\t// in\n    tag_153:\n        /* \"#utility.yul\":556:559   */\n      dup5\n        /* \"#utility.yul\":549:599   */\n      mstore\n        /* \"#utility.yul\":628:632   */\n      0x20\n        /* \"#utility.yul\":623:626   */\n      dup5\n        /* \"#utility.yul\":619:633   */\n      add\n        /* \"#utility.yul\":612:633   */\n      swap4\n      pop\n        /* \"#utility.yul\":662:666   */\n      0x20\n        /* \"#utility.yul\":657:660   */\n      dup4\n        /* \"#utility.yul\":653:667   */\n      add\n        /* \"#utility.yul\":646:667   */\n      swap3\n      pop\n        /* \"#utility.yul\":499:677   */\n      pop\n        /* \"#utility.yul\":486:487   */\n      0x01\n        /* \"#utility.yul\":483:484   */\n      dup2\n        /* \"#utility.yul\":479:488   */\n      add\n        /* \"#utility.yul\":474:488   */\n      swap1\n      pop\n        /* \"#utility.yul\":439:677   */\n      jump(tag_150)\n    tag_152:\n        /* \"#utility.yul\":443:457   */\n      pop\n        /* \"#utility.yul\":127:683   */\n      pop\n      pop\n        /* \"#utility.yul\":26:683   */\n      swap4\n      swap3\n      pop\n      pop\n      pop\n      jump\t// out\n        /* \"#utility.yul\":689:828   */\n    tag_155:\n        /* \"#utility.yul\":735:740   */\n      0x00\n        /* \"#utility.yul\":773:779   */\n      dup2\n        /* \"#utility.yul\":760:780   */\n      calldataload\n        /* \"#utility.yul\":751:780   */\n      swap1\n      pop\n        /* \"#utility.yul\":789:822   */\n      tag_157\n        /* \"#utility.yul\":816:821   */\n      dup2\n        /* \"#utility.yul\":789:822   */\n      tag_158\n      jump\t// in\n    tag_157:\n        /* \"#utility.yul\":689:828   */\n      swap3\n      swap2\n      pop\n      pop\n      jump\t// out\n        /* \"#utility.yul\":853:1194   */\n    tag_159:\n        /* \"#utility.yul\":923:928   */\n      0x00\n        /* \"#utility.yul\":972:975   */\n      dup3\n        /* \"#utility.yul\":965:969   */\n      0x1f\n        /* \"#utility.yul\":957:963   */\n      dup4\n        /* \"#utility.yul\":953:970   */\n      add\n        /* \"#utility.yul\":949:976   */\n      slt\n        /* \"#utility.yul\":939:1061   */\n      tag_161\n      jumpi\n        /* \"#utility.yul\":980:1059   */\n      tag_162\n      tag_163\n      jump\t// in\n    tag_162:\n        /* \"#utility.yul\":939:1061   */\n    tag_161:\n        /* \"#utility.yul\":1084:1088   */\n      0x0a\n        /* \"#utility.yul\":1106:1188   */\n      tag_164\n        /* \"#utility.yul\":1184:1187   */\n      dup5\n        /* \"#utility.yul\":1176:1182   */\n      dup3\n        /* \"#utility.yul\":1168:1174   */\n      dup6\n        /* \"#utility.yul\":1106:1188   */\n      tag_141\n      jump\t// in\n    tag_164:\n        /* \"#utility.yul\":1097:1188   */\n      swap2\n      pop\n        /* \"#utility.yul\":929:1194   */\n      pop\n        /* \"#utility.yul\":853:1194   */\n      swap3\n      swap2\n      pop\n      pop\n      jump\t// out\n        /* \"#utility.yul\":1200:1333   */\n    tag_165:\n        /* \"#utility.yul\":1243:1248   */\n      0x00\n        /* \"#utility.yul\":1281:1287   */\n      dup2\n        /* \"#utility.yul\":1268:1288   */\n      calldataload\n        /* \"#utility.yul\":1259:1288   */\n      swap1\n      pop\n        /* \"#utility.yul\":1297:1327   */\n      tag_167\n        /* \"#utility.yul\":1321:1326   */\n      dup2\n        /* \"#utility.yul\":1297:1327   */\n      tag_168\n      jump\t// in\n    tag_167:\n        /* \"#utility.yul\":1200:1333   */\n      swap3\n      swap2\n      pop\n      pop\n      jump\t// out\n        /* \"#utility.yul\":1339:1478   */\n    tag_154:\n        /* \"#utility.yul\":1385:1390   */\n      0x00\n        /* \"#utility.yul\":1423:1429   */\n      dup2\n        /* \"#utility.yul\":1410:1430   */\n      calldataload\n        /* \"#utility.yul\":1401:1430   */\n      swap1\n      pop\n        /* \"#utility.yul\":1439:1472   */\n      tag_170\n        /* \"#utility.yul\":1466:1471   */\n      dup2\n        /* \"#utility.yul\":1439:1472   */\n      tag_171\n      jump\t// in\n    tag_170:\n        /* \"#utility.yul\":1339:1478   */\n      swap3\n      swap2\n      pop\n      pop\n      jump\t// out\n        /* \"#utility.yul\":1509:3442   */\n    tag_172:\n        /* \"#utility.yul\":1579:1584   */\n      0x00\n        /* \"#utility.yul\":1623:1629   */\n      0x0260\n        /* \"#utility.yul\":1611:1620   */\n      dup3\n        /* \"#utility.yul\":1606:1609   */\n      dup5\n        /* \"#utility.yul\":1602:1621   */\n      sub\n        /* \"#utility.yul\":1598:1630   */\n      slt\n        /* \"#utility.yul\":1595:1714   */\n      iszero\n      tag_174\n      jumpi\n        /* \"#utility.yul\":1633:1712   */\n      tag_175\n      tag_176\n      jump\t// in\n    tag_175:\n        /* \"#utility.yul\":1595:1714   */\n    tag_174:\n        /* \"#utility.yul\":1732:1755   */\n      tag_177\n        /* \"#utility.yul\":1748:1754   */\n      0x0140\n        /* \"#utility.yul\":1732:1755   */\n      tag_146\n      jump\t// in\n    tag_177:\n        /* \"#utility.yul\":1723:1755   */\n      swap1\n      pop\n        /* \"#utility.yul\":1816:1817   */\n      0x00\n        /* \"#utility.yul\":1856:1905   */\n      tag_178\n        /* \"#utility.yul\":1901:1904   */\n      dup5\n        /* \"#utility.yul\":1892:1898   */\n      dup3\n        /* \"#utility.yul\":1881:1890   */\n      dup6\n        /* \"#utility.yul\":1877:1899   */\n      add\n        /* \"#utility.yul\":1856:1905   */\n      tag_155\n      jump\t// in\n    tag_178:\n        /* \"#utility.yul\":1849:1853   */\n      0x00\n        /* \"#utility.yul\":1842:1847   */\n      dup4\n        /* \"#utility.yul\":1838:1854   */\n      add\n        /* \"#utility.yul\":1831:1906   */\n      mstore\n        /* \"#utility.yul\":1765:1917   */\n      pop\n        /* \"#utility.yul\":1983:1985   */\n      0x20\n        /* \"#utility.yul\":2024:2073   */\n      tag_179\n        /* \"#utility.yul\":2069:2072   */\n      dup5\n        /* \"#utility.yul\":2060:2066   */\n      dup3\n        /* \"#utility.yul\":2049:2058   */\n      dup6\n        /* \"#utility.yul\":2045:2067   */\n      add\n        /* \"#utility.yul\":2024:2073   */\n      tag_155\n      jump\t// in\n    tag_179:\n        /* \"#utility.yul\":2017:2021   */\n      0x20\n        /* \"#utility.yul\":2010:2015   */\n      dup4\n        /* \"#utility.yul\":2006:2022   */\n      add\n        /* \"#utility.yul\":1999:2074   */\n      mstore\n        /* \"#utility.yul\":1927:2085   */\n      pop\n        /* \"#utility.yul\":2149:2151   */\n      0x40\n        /* \"#utility.yul\":2190:2239   */\n      tag_180\n        /* \"#utility.yul\":2235:2238   */\n      dup5\n        /* \"#utility.yul\":2226:2232   */\n      dup3\n        /* \"#utility.yul\":2215:2224   */\n      dup6\n        /* \"#utility.yul\":2211:2233   */\n      add\n        /* \"#utility.yul\":2190:2239   */\n      tag_181\n      jump\t// in\n    tag_180:\n        /* \"#utility.yul\":2183:2187   */\n      0x40\n        /* \"#utility.yul\":2176:2181   */\n      dup4\n        /* \"#utility.yul\":2172:2188   */\n      add\n        /* \"#utility.yul\":2165:2240   */\n      mstore\n        /* \"#utility.yul\":2095:2251   */\n      pop\n        /* \"#utility.yul\":2310:2312   */\n      0x60\n        /* \"#utility.yul\":2351:2400   */\n      tag_182\n        /* \"#utility.yul\":2396:2399   */\n      dup5\n        /* \"#utility.yul\":2387:2393   */\n      dup3\n        /* \"#utility.yul\":2376:2385   */\n      dup6\n        /* \"#utility.yul\":2372:2394   */\n      add\n        /* \"#utility.yul\":2351:2400   */\n      tag_154\n      jump\t// in\n    tag_182:\n        /* \"#utility.yul\":2344:2348   */\n      0x60\n        /* \"#utility.yul\":2337:2342   */\n      dup4\n        /* \"#utility.yul\":2333:2349   */\n      add\n        /* \"#utility.yul\":2326:2401   */\n      mstore\n        /* \"#utility.yul\":2261:2412   */\n      pop\n        /* \"#utility.yul\":2474:2477   */\n      0x80\n        /* \"#utility.yul\":2516:2565   */\n      tag_183\n        /* \"#utility.yul\":2561:2564   */\n      dup5\n        /* \"#utility.yul\":2552:2558   */\n      dup3\n        /* \"#utility.yul\":2541:2550   */\n      dup6\n        /* \"#utility.yul\":2537:2559   */\n      add\n        /* \"#utility.yul\":2516:2565   */\n      tag_154\n      jump\t// in\n    tag_183:\n        /* \"#utility.yul\":2509:2513   */\n      0x80\n        /* \"#utility.yul\":2502:2507   */\n      dup4\n        /* \"#utility.yul\":2498:2514   */\n      add\n        /* \"#utility.yul\":2491:2566   */\n      mstore\n        /* \"#utility.yul\":2422:2577   */\n      pop\n        /* \"#utility.yul\":2643:2646   */\n      0xa0\n        /* \"#utility.yul\":2685:2758   */\n      tag_184\n        /* \"#utility.yul\":2754:2757   */\n      dup5\n        /* \"#utility.yul\":2745:2751   */\n      dup3\n        /* \"#utility.yul\":2734:2743   */\n      dup6\n        /* \"#utility.yul\":2730:2752   */\n      add\n        /* \"#utility.yul\":2685:2758   */\n      tag_159\n      jump\t// in\n    tag_184:\n        /* \"#utility.yul\":2678:2682   */\n      0xa0\n        /* \"#utility.yul\":2671:2676   */\n      dup4\n        /* \"#utility.yul\":2667:2683   */\n      add\n        /* \"#utility.yul\":2660:2759   */\n      mstore\n        /* \"#utility.yul\":2587:2770   */\n      pop\n        /* \"#utility.yul\":2840:2843   */\n      0x01e0\n        /* \"#utility.yul\":2882:2930   */\n      tag_185\n        /* \"#utility.yul\":2926:2929   */\n      dup5\n        /* \"#utility.yul\":2917:2923   */\n      dup3\n        /* \"#utility.yul\":2906:2915   */\n      dup6\n        /* \"#utility.yul\":2902:2924   */\n      add\n        /* \"#utility.yul\":2882:2930   */\n      tag_186\n      jump\t// in\n    tag_185:\n        /* \"#utility.yul\":2875:2879   */\n      0xc0\n        /* \"#utility.yul\":2868:2873   */\n      dup4\n        /* \"#utility.yul\":2864:2880   */\n      add\n        /* \"#utility.yul\":2857:2931   */\n      mstore\n        /* \"#utility.yul\":2780:2942   */\n      pop\n        /* \"#utility.yul\":3009:3012   */\n      0x0200\n        /* \"#utility.yul\":3051:3097   */\n      tag_187\n        /* \"#utility.yul\":3093:3096   */\n      dup5\n        /* \"#utility.yul\":3084:3090   */\n      dup3\n        /* \"#utility.yul\":3073:3082   */\n      dup6\n        /* \"#utility.yul\":3069:3091   */\n      add\n        /* \"#utility.yul\":3051:3097   */\n      tag_165\n      jump\t// in\n    tag_187:\n        /* \"#utility.yul\":3044:3048   */\n      0xe0\n        /* \"#utility.yul\":3037:3042   */\n      dup4\n        /* \"#utility.yul\":3033:3049   */\n      add\n        /* \"#utility.yul\":3026:3098   */\n      mstore\n        /* \"#utility.yul\":2952:3109   */\n      pop\n        /* \"#utility.yul\":3170:3173   */\n      0x0220\n        /* \"#utility.yul\":3214:3260   */\n      tag_188\n        /* \"#utility.yul\":3256:3259   */\n      dup5\n        /* \"#utility.yul\":3247:3253   */\n      dup3\n        /* \"#utility.yul\":3236:3245   */\n      dup6\n        /* \"#utility.yul\":3232:3254   */\n      add\n        /* \"#utility.yul\":3214:3260   */\n      tag_165\n      jump\t// in\n    tag_188:\n        /* \"#utility.yul\":3205:3211   */\n      0x0100\n        /* \"#utility.yul\":3198:3203   */\n      dup4\n        /* \"#utility.yul\":3194:3212   */\n      add\n        /* \"#utility.yul\":3187:3261   */\n      mstore\n        /* \"#utility.yul\":3119:3272   */\n      pop\n        /* \"#utility.yul\":3333:3336   */\n      0x0240\n        /* \"#utility.yul\":3377:3423   */\n      tag_189\n        /* \"#utility.yul\":3419:3422   */\n      dup5\n        /* \"#utility.yul\":3410:3416   */\n      dup3\n        /* \"#utility.yul\":3399:3408   */\n      dup6\n        /* \"#utility.yul\":3395:3417   */\n      add\n        /* \"#utility.yul\":3377:3423   */\n      tag_165\n      jump\t// in\n    tag_189:\n        /* \"#utility.yul\":3368:3374   */\n      0x0120\n        /* \"#utility.yul\":3361:3366   */\n      dup4\n        /* \"#utility.yul\":3357:3375   */\n      add\n        /* \"#utility.yul\":3350:3424   */\n      mstore\n        /* \"#utility.yul\":3282:3435   */\n      pop\n        /* \"#utility.yul\":1509:3442   */\n      swap3\n      swap2\n      pop\n      pop\n      jump\t// out\n        /* \"#utility.yul\":3448:3587   */\n    tag_181:\n        /* \"#utility.yul\":3494:3499   */\n      0x00\n        /* \"#utility.yul\":3532:3538   */\n      dup2\n        /* \"#utility.yul\":3519:3539   */\n      calldataload\n        /* \"#utility.yul\":3510:3539   */\n      swap1\n      pop\n        /* \"#utility.yul\":3548:3581   */\n      tag_191\n        /* \"#utility.yul\":3575:3580   */\n      dup2\n        /* \"#utility.yul\":3548:3581   */\n      tag_192\n      jump\t// in\n    tag_191:\n        /* \"#utility.yul\":3448:3587   */\n      swap3\n      swap2\n      pop\n      pop\n      jump\t// out\n        /* \"#utility.yul\":3593:3730   */\n    tag_186:\n        /* \"#utility.yul\":3638:3643   */\n      0x00\n        /* \"#utility.yul\":3676:3682   */\n      dup2\n        /* \"#utility.yul\":3663:3683   */\n      calldataload\n        /* \"#utility.yul\":3654:3683   */\n      swap1\n      pop\n        /* \"#utility.yul\":3692:3724   */\n      tag_194\n        /* \"#utility.yul\":3718:3723   */\n      dup2\n        /* \"#utility.yul\":3692:3724   */\n      tag_195\n      jump\t// in\n    tag_194:\n        /* \"#utility.yul\":3593:3730   */\n      swap3\n      swap2\n      pop\n      pop\n      jump\t// out\n        /* \"#utility.yul\":3736:4065   */\n    tag_31:\n        /* \"#utility.yul\":3795:3801   */\n      0x00\n        /* \"#utility.yul\":3844:3846   */\n      0x20\n        /* \"#utility.yul\":3832:3841   */\n      dup3\n        /* \"#utility.yul\":3823:3830   */\n      dup5\n        /* \"#utility.yul\":3819:3842   */\n      sub\n        /* \"#utility.yul\":3815:3847   */\n      slt\n        /* \"#utility.yul\":3812:3931   */\n      iszero\n      tag_197\n      jumpi\n        /* \"#utility.yul\":3850:3929   */\n      tag_198\n      tag_199\n      jump\t// in\n    tag_198:\n        /* \"#utility.yul\":3812:3931   */\n    tag_197:\n        /* \"#utility.yul\":3970:3971   */\n      0x00\n        /* \"#utility.yul\":3995:4048   */\n      tag_200\n        /* \"#utility.yul\":4040:4047   */\n      dup5\n        /* \"#utility.yul\":4031:4037   */\n      dup3\n        /* \"#utility.yul\":4020:4029   */\n      dup6\n        /* \"#utility.yul\":4016:4038   */\n      add\n        /* \"#utility.yul\":3995:4048   */\n      tag_155\n      jump\t// in\n    tag_200:\n        /* \"#utility.yul\":3985:4048   */\n      swap2\n      pop\n        /* \"#utility.yul\":3941:4058   */\n      pop\n        /* \"#utility.yul\":3736:4065   */\n      swap3\n      swap2\n      pop\n      pop\n      jump\t// out\n        /* \"#utility.yul\":4071:4443   */\n    tag_42:\n        /* \"#utility.yul\":4151:4157   */\n      0x00\n        /* \"#utility.yul\":4200:4203   */\n      0x0260\n        /* \"#utility.yul\":4188:4197   */\n      dup3\n        /* \"#utility.yul\":4179:4186   */\n      dup5\n        /* \"#utility.yul\":4175:4198   */\n      sub\n        /* \"#utility.yul\":4171:4204   */\n      slt\n        /* \"#utility.yul\":4168:4288   */\n      iszero\n      tag_202\n      jumpi\n        /* \"#utility.yul\":4207:4286   */\n      tag_203\n      tag_199\n      jump\t// in\n    tag_203:\n        /* \"#utility.yul\":4168:4288   */\n    tag_202:\n        /* \"#utility.yul\":4327:4328   */\n      0x00\n        /* \"#utility.yul\":4352:4426   */\n      tag_204\n        /* \"#utility.yul\":4418:4425   */\n      dup5\n        /* \"#utility.yul\":4409:4415   */\n      dup3\n        /* \"#utility.yul\":4398:4407   */\n      dup6\n        /* \"#utility.yul\":4394:4416   */\n      add\n        /* \"#utility.yul\":4352:4426   */\n      tag_172\n      jump\t// in\n    tag_204:\n        /* \"#utility.yul\":4342:4426   */\n      swap2\n      pop\n        /* \"#utility.yul\":4298:4436   */\n      pop\n        /* \"#utility.yul\":4071:4443   */\n      swap3\n      swap2\n      pop\n      pop\n      jump\t// out\n        /* \"#utility.yul\":4449:4567   */\n    tag_205:\n        /* \"#utility.yul\":4536:4560   */\n      tag_207\n        /* \"#utility.yul\":4554:4559   */\n      dup2\n        /* \"#utility.yul\":4536:4560   */\n      tag_208\n      jump\t// in\n    tag_207:\n        /* \"#utility.yul\":4531:4534   */\n      dup3\n        /* \"#utility.yul\":4524:4561   */\n      mstore\n        /* \"#utility.yul\":4449:4567   */\n      pop\n      pop\n      jump\t// out\n        /* \"#utility.yul\":4573:4682   */\n    tag_209:\n        /* \"#utility.yul\":4654:4675   */\n      tag_211\n        /* \"#utility.yul\":4669:4674   */\n      dup2\n        /* \"#utility.yul\":4654:4675   */\n      tag_212\n      jump\t// in\n    tag_211:\n        /* \"#utility.yul\":4649:4652   */\n      dup3\n        /* \"#utility.yul\":4642:4676   */\n      mstore\n        /* \"#utility.yul\":4573:4682   */\n      pop\n      pop\n      jump\t// out\n        /* \"#utility.yul\":4688:4806   */\n    tag_213:\n        /* \"#utility.yul\":4775:4799   */\n      tag_215\n        /* \"#utility.yul\":4793:4798   */\n      dup2\n        /* \"#utility.yul\":4775:4799   */\n      tag_216\n      jump\t// in\n    tag_215:\n        /* \"#utility.yul\":4770:4773   */\n      dup3\n        /* \"#utility.yul\":4763:4800   */\n      mstore\n        /* \"#utility.yul\":4688:4806   */\n      pop\n      pop\n      jump\t// out\n        /* \"#utility.yul\":4812:5178   */\n    tag_217:\n        /* \"#utility.yul\":4954:4957   */\n      0x00\n        /* \"#utility.yul\":4975:5042   */\n      tag_219\n        /* \"#utility.yul\":5039:5041   */\n      0x11\n        /* \"#utility.yul\":5034:5037   */\n      dup4\n        /* \"#utility.yul\":4975:5042   */\n      tag_220\n      jump\t// in\n    tag_219:\n        /* \"#utility.yul\":4968:5042   */\n      swap2\n      pop\n        /* \"#utility.yul\":5051:5144   */\n      tag_221\n        /* \"#utility.yul\":5140:5143   */\n      dup3\n        /* \"#utility.yul\":5051:5144   */\n      tag_222\n      jump\t// in\n    tag_221:\n        /* \"#utility.yul\":5169:5171   */\n      0x20\n        /* \"#utility.yul\":5164:5167   */\n      dup3\n        /* \"#utility.yul\":5160:5172   */\n      add\n        /* \"#utility.yul\":5153:5172   */\n      swap1\n      pop\n        /* \"#utility.yul\":4812:5178   */\n      swap2\n      swap1\n      pop\n      jump\t// out\n        /* \"#utility.yul\":5184:5550   */\n    tag_223:\n        /* \"#utility.yul\":5326:5329   */\n      0x00\n        /* \"#utility.yul\":5347:5414   */\n      tag_225\n        /* \"#utility.yul\":5411:5413   */\n      0x14\n        /* \"#utility.yul\":5406:5409   */\n      dup4\n        /* \"#utility.yul\":5347:5414   */\n      tag_220\n      jump\t// in\n    tag_225:\n        /* \"#utility.yul\":5340:5414   */\n      swap2\n      pop\n        /* \"#utility.yul\":5423:5516   */\n      tag_226\n        /* \"#utility.yul\":5512:5515   */\n      dup3\n        /* \"#utility.yul\":5423:5516   */\n      tag_227\n      jump\t// in\n    tag_226:\n        /* \"#utility.yul\":5541:5543   */\n      0x20\n        /* \"#utility.yul\":5536:5539   */\n      dup3\n        /* \"#utility.yul\":5532:5544   */\n      add\n        /* \"#utility.yul\":5525:5544   */\n      swap1\n      pop\n        /* \"#utility.yul\":5184:5550   */\n      swap2\n      swap1\n      pop\n      jump\t// out\n        /* \"#utility.yul\":5556:5922   */\n    tag_228:\n        /* \"#utility.yul\":5698:5701   */\n      0x00\n        /* \"#utility.yul\":5719:5786   */\n      tag_230\n        /* \"#utility.yul\":5783:5785   */\n      0x15\n        /* \"#utility.yul\":5778:5781   */\n      dup4\n        /* \"#utility.yul\":5719:5786   */\n      tag_220\n      jump\t// in\n    tag_230:\n        /* \"#utility.yul\":5712:5786   */\n      swap2\n      pop\n        /* \"#utility.yul\":5795:5888   */\n      tag_231\n        /* \"#utility.yul\":5884:5887   */\n      dup3\n        /* \"#utility.yul\":5795:5888   */\n      tag_232\n      jump\t// in\n    tag_231:\n        /* \"#utility.yul\":5913:5915   */\n      0x20\n        /* \"#utility.yul\":5908:5911   */\n      dup3\n        /* \"#utility.yul\":5904:5916   */\n      add\n        /* \"#utility.yul\":5897:5916   */\n      swap1\n      pop\n        /* \"#utility.yul\":5556:5922   */\n      swap2\n      swap1\n      pop\n      jump\t// out\n        /* \"#utility.yul\":5928:6046   */\n    tag_233:\n        /* \"#utility.yul\":6015:6039   */\n      tag_235\n        /* \"#utility.yul\":6033:6038   */\n      dup2\n        /* \"#utility.yul\":6015:6039   */\n      tag_236\n      jump\t// in\n    tag_235:\n        /* \"#utility.yul\":6010:6013   */\n      dup3\n        /* \"#utility.yul\":6003:6040   */\n      mstore\n        /* \"#utility.yul\":5928:6046   */\n      pop\n      pop\n      jump\t// out\n        /* \"#utility.yul\":6052:6167   */\n    tag_237:\n        /* \"#utility.yul\":6137:6160   */\n      tag_239\n        /* \"#utility.yul\":6154:6159   */\n      dup2\n        /* \"#utility.yul\":6137:6160   */\n      tag_240\n      jump\t// in\n    tag_239:\n        /* \"#utility.yul\":6132:6135   */\n      dup3\n        /* \"#utility.yul\":6125:6161   */\n      mstore\n        /* \"#utility.yul\":6052:6167   */\n      pop\n      pop\n      jump\t// out\n        /* \"#utility.yul\":6173:6395   */\n    tag_28:\n        /* \"#utility.yul\":6266:6270   */\n      0x00\n        /* \"#utility.yul\":6304:6306   */\n      0x20\n        /* \"#utility.yul\":6293:6302   */\n      dup3\n        /* \"#utility.yul\":6289:6307   */\n      add\n        /* \"#utility.yul\":6281:6307   */\n      swap1\n      pop\n        /* \"#utility.yul\":6317:6388   */\n      tag_242\n        /* \"#utility.yul\":6385:6386   */\n      0x00\n        /* \"#utility.yul\":6374:6383   */\n      dup4\n        /* \"#utility.yul\":6370:6387   */\n      add\n        /* \"#utility.yul\":6361:6367   */\n      dup5\n        /* \"#utility.yul\":6317:6388   */\n      tag_205\n      jump\t// in\n    tag_242:\n        /* \"#utility.yul\":6173:6395   */\n      swap3\n      swap2\n      pop\n      pop\n      jump\t// out\n        /* \"#utility.yul\":6401:7469   */\n    tag_39:\n        /* \"#utility.yul\":6698:6702   */\n      0x00\n        /* \"#utility.yul\":6736:6739   */\n      0x0120\n        /* \"#utility.yul\":6725:6734   */\n      dup3\n        /* \"#utility.yul\":6721:6740   */\n      add\n        /* \"#utility.yul\":6713:6740   */\n      swap1\n      pop\n        /* \"#utility.yul\":6750:6821   */\n      tag_244\n        /* \"#utility.yul\":6818:6819   */\n      0x00\n        /* \"#utility.yul\":6807:6816   */\n      dup4\n        /* \"#utility.yul\":6803:6820   */\n      add\n        /* \"#utility.yul\":6794:6800   */\n      dup13\n        /* \"#utility.yul\":6750:6821   */\n      tag_205\n      jump\t// in\n    tag_244:\n        /* \"#utility.yul\":6831:6903   */\n      tag_245\n        /* \"#utility.yul\":6899:6901   */\n      0x20\n        /* \"#utility.yul\":6888:6897   */\n      dup4\n        /* \"#utility.yul\":6884:6902   */\n      add\n        /* \"#utility.yul\":6875:6881   */\n      dup12\n        /* \"#utility.yul\":6831:6903   */\n      tag_205\n      jump\t// in\n    tag_245:\n        /* \"#utility.yul\":6913:6985   */\n      tag_246\n        /* \"#utility.yul\":6981:6983   */\n      0x40\n        /* \"#utility.yul\":6970:6979   */\n      dup4\n        /* \"#utility.yul\":6966:6984   */\n      add\n        /* \"#utility.yul\":6957:6963   */\n      dup11\n        /* \"#utility.yul\":6913:6985   */\n      tag_233\n      jump\t// in\n    tag_246:\n        /* \"#utility.yul\":6995:7067   */\n      tag_247\n        /* \"#utility.yul\":7063:7065   */\n      0x60\n        /* \"#utility.yul\":7052:7061   */\n      dup4\n        /* \"#utility.yul\":7048:7066   */\n      add\n        /* \"#utility.yul\":7039:7045   */\n      dup10\n        /* \"#utility.yul\":6995:7067   */\n      tag_213\n      jump\t// in\n    tag_247:\n        /* \"#utility.yul\":7077:7150   */\n      tag_248\n        /* \"#utility.yul\":7145:7148   */\n      0x80\n        /* \"#utility.yul\":7134:7143   */\n      dup4\n        /* \"#utility.yul\":7130:7149   */\n      add\n        /* \"#utility.yul\":7121:7127   */\n      dup9\n        /* \"#utility.yul\":7077:7150   */\n      tag_213\n      jump\t// in\n    tag_248:\n        /* \"#utility.yul\":7160:7231   */\n      tag_249\n        /* \"#utility.yul\":7226:7229   */\n      0xa0\n        /* \"#utility.yul\":7215:7224   */\n      dup4\n        /* \"#utility.yul\":7211:7230   */\n      add\n        /* \"#utility.yul\":7202:7208   */\n      dup8\n        /* \"#utility.yul\":7160:7231   */\n      tag_237\n      jump\t// in\n    tag_249:\n        /* \"#utility.yul\":7241:7308   */\n      tag_250\n        /* \"#utility.yul\":7303:7306   */\n      0xc0\n        /* \"#utility.yul\":7292:7301   */\n      dup4\n        /* \"#utility.yul\":7288:7307   */\n      add\n        /* \"#utility.yul\":7279:7285   */\n      dup7\n        /* \"#utility.yul\":7241:7308   */\n      tag_209\n      jump\t// in\n    tag_250:\n        /* \"#utility.yul\":7318:7385   */\n      tag_251\n        /* \"#utility.yul\":7380:7383   */\n      0xe0\n        /* \"#utility.yul\":7369:7378   */\n      dup4\n        /* \"#utility.yul\":7365:7384   */\n      add\n        /* \"#utility.yul\":7356:7362   */\n      dup6\n        /* \"#utility.yul\":7318:7385   */\n      tag_209\n      jump\t// in\n    tag_251:\n        /* \"#utility.yul\":7395:7462   */\n      tag_252\n        /* \"#utility.yul\":7457:7460   */\n      0x0100\n        /* \"#utility.yul\":7446:7455   */\n      dup4\n        /* \"#utility.yul\":7442:7461   */\n      add\n        /* \"#utility.yul\":7433:7439   */\n      dup5\n        /* \"#utility.yul\":7395:7462   */\n      tag_209\n      jump\t// in\n    tag_252:\n        /* \"#utility.yul\":6401:7469   */\n      swap11\n      swap10\n      pop\n      pop\n      pop\n      pop\n      pop\n      pop\n      pop\n      pop\n      pop\n      pop\n      jump\t// out\n        /* \"#utility.yul\":7475:7685   */\n    tag_24:\n        /* \"#utility.yul\":7562:7566   */\n      0x00\n        /* \"#utility.yul\":7600:7602   */\n      0x20\n        /* \"#utility.yul\":7589:7598   */\n      dup3\n        /* \"#utility.yul\":7585:7603   */\n      add\n        /* \"#utility.yul\":7577:7603   */\n      swap1\n      pop\n        /* \"#utility.yul\":7613:7678   */\n      tag_254\n        /* \"#utility.yul\":7675:7676   */\n      0x00\n        /* \"#utility.yul\":7664:7673   */\n      dup4\n        /* \"#utility.yul\":7660:7677   */\n      add\n        /* \"#utility.yul\":7651:7657   */\n      dup5\n        /* \"#utility.yul\":7613:7678   */\n      tag_209\n      jump\t// in\n    tag_254:\n        /* \"#utility.yul\":7475:7685   */\n      swap3\n      swap2\n      pop\n      pop\n      jump\t// out\n        /* \"#utility.yul\":7691:8110   */\n    tag_116:\n        /* \"#utility.yul\":7857:7861   */\n      0x00\n        /* \"#utility.yul\":7895:7897   */\n      0x20\n        /* \"#utility.yul\":7884:7893   */\n      dup3\n        /* \"#utility.yul\":7880:7898   */\n      add\n        /* \"#utility.yul\":7872:7898   */\n      swap1\n      pop\n        /* \"#utility.yul\":7944:7953   */\n      dup2\n        /* \"#utility.yul\":7938:7942   */\n      dup2\n        /* \"#utility.yul\":7934:7954   */\n      sub\n        /* \"#utility.yul\":7930:7931   */\n      0x00\n        /* \"#utility.yul\":7919:7928   */\n      dup4\n        /* \"#utility.yul\":7915:7932   */\n      add\n        /* \"#utility.yul\":7908:7955   */\n      mstore\n        /* \"#utility.yul\":7972:8103   */\n      tag_256\n        /* \"#utility.yul\":8098:8102   */\n      dup2\n        /* \"#utility.yul\":7972:8103   */\n      tag_217\n      jump\t// in\n    tag_256:\n        /* \"#utility.yul\":7964:8103   */\n      swap1\n      pop\n        /* \"#utility.yul\":7691:8110   */\n      swap2\n      swap1\n      pop\n      jump\t// out\n        /* \"#utility.yul\":8116:8535   */\n    tag_87:\n        /* \"#utility.yul\":8282:8286   */\n      0x00\n        /* \"#utility.yul\":8320:8322   */\n      0x20\n        /* \"#utility.yul\":8309:8318   */\n      dup3\n        /* \"#utility.yul\":8305:8323   */\n      add\n        /* \"#utility.yul\":8297:8323   */\n      swap1\n      pop\n        /* \"#utility.yul\":8369:8378   */\n      dup2\n        /* \"#utility.yul\":8363:8367   */\n      dup2\n        /* \"#utility.yul\":8359:8379   */\n      sub\n        /* \"#utility.yul\":8355:8356   */\n      0x00\n        /* \"#utility.yul\":8344:8353   */\n      dup4\n        /* \"#utility.yul\":8340:8357   */\n      add\n        /* \"#utility.yul\":8333:8380   */\n      mstore\n        /* \"#utility.yul\":8397:8528   */\n      tag_258\n        /* \"#utility.yul\":8523:8527   */\n      dup2\n        /* \"#utility.yul\":8397:8528   */\n      tag_223\n      jump\t// in\n    tag_258:\n        /* \"#utility.yul\":8389:8528   */\n      swap1\n      pop\n        /* \"#utility.yul\":8116:8535   */\n      swap2\n      swap1\n      pop\n      jump\t// out\n        /* \"#utility.yul\":8541:8960   */\n    tag_81:\n        /* \"#utility.yul\":8707:8711   */\n      0x00\n        /* \"#utility.yul\":8745:8747   */\n      0x20\n        /* \"#utility.yul\":8734:8743   */\n      dup3\n        /* \"#utility.yul\":8730:8748   */\n      add\n        /* \"#utility.yul\":8722:8748   */\n      swap1\n      pop\n        /* \"#utility.yul\":8794:8803   */\n      dup2\n        /* \"#utility.yul\":8788:8792   */\n      dup2\n        /* \"#utility.yul\":8784:8804   */\n      sub\n        /* \"#utility.yul\":8780:8781   */\n      0x00\n        /* \"#utility.yul\":8769:8778   */\n      dup4\n        /* \"#utility.yul\":8765:8782   */\n      add\n        /* \"#utility.yul\":8758:8805   */\n      mstore\n        /* \"#utility.yul\":8822:8953   */\n      tag_260\n        /* \"#utility.yul\":8948:8952   */\n      dup2\n        /* \"#utility.yul\":8822:8953   */\n      tag_228\n      jump\t// in\n    tag_260:\n        /* \"#utility.yul\":8814:8953   */\n      swap1\n      pop\n        /* \"#utility.yul\":8541:8960   */\n      swap2\n      swap1\n      pop\n      jump\t// out\n        /* \"#utility.yul\":8966:9095   */\n    tag_146:\n        /* \"#utility.yul\":9000:9006   */\n      0x00\n        /* \"#utility.yul\":9027:9047   */\n      tag_262\n      tag_263\n      jump\t// in\n    tag_262:\n        /* \"#utility.yul\":9017:9047   */\n      swap1\n      pop\n        /* \"#utility.yul\":9056:9089   */\n      tag_264\n        /* \"#utility.yul\":9084:9088   */\n      dup3\n        /* \"#utility.yul\":9076:9082   */\n      dup3\n        /* \"#utility.yul\":9056:9089   */\n      tag_265\n      jump\t// in\n    tag_264:\n        /* \"#utility.yul\":8966:9095   */\n      swap2\n      swap1\n      pop\n      jump\t// out\n        /* \"#utility.yul\":9101:9176   */\n    tag_263:\n        /* \"#utility.yul\":9134:9140   */\n      0x00\n        /* \"#utility.yul\":9167:9169   */\n      0x40\n        /* \"#utility.yul\":9161:9170   */\n      mload\n        /* \"#utility.yul\":9151:9170   */\n      swap1\n      pop\n        /* \"#utility.yul\":9101:9176   */\n      swap1\n      jump\t// out\n        /* \"#utility.yul\":9182:9432   */\n    tag_145:\n        /* \"#utility.yul\":9258:9262   */\n      0x00\n        /* \"#utility.yul\":9348:9366   */\n      0xffffffffffffffff\n        /* \"#utility.yul\":9340:9346   */\n      dup3\n        /* \"#utility.yul\":9337:9367   */\n      gt\n        /* \"#utility.yul\":9334:9390   */\n      iszero\n      tag_268\n      jumpi\n        /* \"#utility.yul\":9370:9388   */\n      tag_269\n      tag_270\n      jump\t// in\n    tag_269:\n        /* \"#utility.yul\":9334:9390   */\n    tag_268:\n        /* \"#utility.yul\":9420:9424   */\n      0x20\n        /* \"#utility.yul\":9412:9418   */\n      dup3\n        /* \"#utility.yul\":9408:9425   */\n      mul\n        /* \"#utility.yul\":9400:9425   */\n      swap1\n      pop\n        /* \"#utility.yul\":9182:9432   */\n      swap2\n      swap1\n      pop\n      jump\t// out\n        /* \"#utility.yul\":9438:9607   */\n    tag_220:\n        /* \"#utility.yul\":9522:9533   */\n      0x00\n        /* \"#utility.yul\":9556:9562   */\n      dup3\n        /* \"#utility.yul\":9551:9554   */\n      dup3\n        /* \"#utility.yul\":9544:9563   */\n      mstore\n        /* \"#utility.yul\":9596:9600   */\n      0x20\n        /* \"#utility.yul\":9591:9594   */\n      dup3\n        /* \"#utility.yul\":9587:9601   */\n      add\n        /* \"#utility.yul\":9572:9601   */\n      swap1\n      pop\n        /* \"#utility.yul\":9438:9607   */\n      swap3\n      swap2\n      pop\n      pop\n      jump\t// out\n        /* \"#utility.yul\":9613:9709   */\n    tag_208:\n        /* \"#utility.yul\":9650:9657   */\n      0x00\n        /* \"#utility.yul\":9679:9703   */\n      tag_273\n        /* \"#utility.yul\":9697:9702   */\n      dup3\n        /* \"#utility.yul\":9679:9703   */\n      tag_236\n      jump\t// in\n    tag_273:\n        /* \"#utility.yul\":9668:9703   */\n      swap1\n      pop\n        /* \"#utility.yul\":9613:9709   */\n      swap2\n      swap1\n      pop\n      jump\t// out\n        /* \"#utility.yul\":9715:9805   */\n    tag_212:\n        /* \"#utility.yul\":9749:9756   */\n      0x00\n        /* \"#utility.yul\":9792:9797   */\n      dup2\n        /* \"#utility.yul\":9785:9798   */\n      iszero\n        /* \"#utility.yul\":9778:9799   */\n      iszero\n        /* \"#utility.yul\":9767:9799   */\n      swap1\n      pop\n        /* \"#utility.yul\":9715:9805   */\n      swap2\n      swap1\n      pop\n      jump\t// out\n        /* \"#utility.yul\":9811:9888   */\n    tag_216:\n        /* \"#utility.yul\":9848:9855   */\n      0x00\n        /* \"#utility.yul\":9877:9882   */\n      dup2\n        /* \"#utility.yul\":9866:9882   */\n      swap1\n      pop\n        /* \"#utility.yul\":9811:9888   */\n      swap2\n      swap1\n      pop\n      jump\t// out\n        /* \"#utility.yul\":9894:10020   */\n    tag_236:\n        /* \"#utility.yul\":9931:9938   */\n      0x00\n        /* \"#utility.yul\":9971:10013   */\n      0xffffffffffffffffffffffffffffffffffffffff\n        /* \"#utility.yul\":9964:9969   */\n      dup3\n        /* \"#utility.yul\":9960:10014   */\n      and\n        /* \"#utility.yul\":9949:10014   */\n      swap1\n      pop\n        /* \"#utility.yul\":9894:10020   */\n      swap2\n      swap1\n      pop\n      jump\t// out\n        /* \"#utility.yul\":10026:10119   */\n    tag_240:\n        /* \"#utility.yul\":10062:10069   */\n      0x00\n        /* \"#utility.yul\":10102:10112   */\n      0xffffffff\n        /* \"#utility.yul\":10095:10100   */\n      dup3\n        /* \"#utility.yul\":10091:10113   */\n      and\n        /* \"#utility.yul\":10080:10113   */\n      swap1\n      pop\n        /* \"#utility.yul\":10026:10119   */\n      swap2\n      swap1\n      pop\n      jump\t// out\n        /* \"#utility.yul\":10125:10406   */\n    tag_265:\n        /* \"#utility.yul\":10208:10235   */\n      tag_279\n        /* \"#utility.yul\":10230:10234   */\n      dup3\n        /* \"#utility.yul\":10208:10235   */\n      tag_280\n      jump\t// in\n    tag_279:\n        /* \"#utility.yul\":10200:10206   */\n      dup2\n        /* \"#utility.yul\":10196:10236   */\n      add\n        /* \"#utility.yul\":10338:10344   */\n      dup2\n        /* \"#utility.yul\":10326:10336   */\n      dup2\n        /* \"#utility.yul\":10323:10345   */\n      lt\n        /* \"#utility.yul\":10302:10320   */\n      0xffffffffffffffff\n        /* \"#utility.yul\":10290:10300   */\n      dup3\n        /* \"#utility.yul\":10287:10321   */\n      gt\n        /* \"#utility.yul\":10284:10346   */\n      or\n        /* \"#utility.yul\":10281:10369   */\n      iszero\n      tag_281\n      jumpi\n        /* \"#utility.yul\":10349:10367   */\n      tag_282\n      tag_270\n      jump\t// in\n    tag_282:\n        /* \"#utility.yul\":10281:10369   */\n    tag_281:\n        /* \"#utility.yul\":10389:10399   */\n      dup1\n        /* \"#utility.yul\":10385:10387   */\n      0x40\n        /* \"#utility.yul\":10378:10400   */\n      mstore\n        /* \"#utility.yul\":10168:10406   */\n      pop\n        /* \"#utility.yul\":10125:10406   */\n      pop\n      pop\n      jump\t// out\n        /* \"#utility.yul\":10412:10592   */\n    tag_270:\n        /* \"#utility.yul\":10460:10537   */\n      0x4e487b7100000000000000000000000000000000000000000000000000000000\n        /* \"#utility.yul\":10457:10458   */\n      0x00\n        /* \"#utility.yul\":10450:10538   */\n      mstore\n        /* \"#utility.yul\":10557:10561   */\n      0x41\n        /* \"#utility.yul\":10554:10555   */\n      0x04\n        /* \"#utility.yul\":10547:10562   */\n      mstore\n        /* \"#utility.yul\":10581:10585   */\n      0x24\n        /* \"#utility.yul\":10578:10579   */\n      0x00\n        /* \"#utility.yul\":10571:10586   */\n      revert\n        /* \"#utility.yul\":10598:10715   */\n    tag_163:\n        /* \"#utility.yul\":10707:10708   */\n      0x00\n        /* \"#utility.yul\":10704:10705   */\n      dup1\n        /* \"#utility.yul\":10697:10709   */\n      revert\n        /* \"#utility.yul\":10721:10838   */\n    tag_176:\n        /* \"#utility.yul\":10830:10831   */\n      0x00\n        /* \"#utility.yul\":10827:10828   */\n      dup1\n        /* \"#utility.yul\":10820:10832   */\n      revert\n        /* \"#utility.yul\":10967:11084   */\n    tag_149:\n        /* \"#utility.yul\":11076:11077   */\n      0x00\n        /* \"#utility.yul\":11073:11074   */\n      dup1\n        /* \"#utility.yul\":11066:11078   */\n      revert\n        /* \"#utility.yul\":11213:11330   */\n    tag_199:\n        /* \"#utility.yul\":11322:11323   */\n      0x00\n        /* \"#utility.yul\":11319:11320   */\n      dup1\n        /* \"#utility.yul\":11312:11324   */\n      revert\n        /* \"#utility.yul\":11336:11438   */\n    tag_280:\n        /* \"#utility.yul\":11377:11383   */\n      0x00\n        /* \"#utility.yul\":11428:11430   */\n      0x1f\n        /* \"#utility.yul\":11424:11431   */\n      not\n        /* \"#utility.yul\":11419:11421   */\n      0x1f\n        /* \"#utility.yul\":11412:11417   */\n      dup4\n        /* \"#utility.yul\":11408:11422   */\n      add\n        /* \"#utility.yul\":11404:11432   */\n      and\n        /* \"#utility.yul\":11394:11432   */\n      swap1\n      pop\n        /* \"#utility.yul\":11336:11438   */\n      swap2\n      swap1\n      pop\n      jump\t// out\n        /* \"#utility.yul\":11444:11611   */\n    tag_222:\n        /* \"#utility.yul\":11584:11603   */\n      0x74686520676174657220697320796f7572000000000000000000000000000000\n        /* \"#utility.yul\":11580:11581   */\n      0x00\n        /* \"#utility.yul\":11572:11578   */\n      dup3\n        /* \"#utility.yul\":11568:11582   */\n      add\n        /* \"#utility.yul\":11561:11604   */\n      mstore\n        /* \"#utility.yul\":11444:11611   */\n      pop\n      jump\t// out\n        /* \"#utility.yul\":11617:11787   */\n    tag_227:\n        /* \"#utility.yul\":11757:11779   */\n      0x7468652067617465722069732065786973746572000000000000000000000000\n        /* \"#utility.yul\":11753:11754   */\n      0x00\n        /* \"#utility.yul\":11745:11751   */\n      dup3\n        /* \"#utility.yul\":11741:11755   */\n      add\n        /* \"#utility.yul\":11734:11780   */\n      mstore\n        /* \"#utility.yul\":11617:11787   */\n      pop\n      jump\t// out\n        /* \"#utility.yul\":11793:11964   */\n    tag_232:\n        /* \"#utility.yul\":11933:11956   */\n      0x7468652067617465722069736e6f742065786973740000000000000000000000\n        /* \"#utility.yul\":11929:11930   */\n      0x00\n        /* \"#utility.yul\":11921:11927   */\n      dup3\n        /* \"#utility.yul\":11917:11931   */\n      add\n        /* \"#utility.yul\":11910:11957   */\n      mstore\n        /* \"#utility.yul\":11793:11964   */\n      pop\n      jump\t// out\n        /* \"#utility.yul\":11970:12092   */\n    tag_158:\n        /* \"#utility.yul\":12043:12067   */\n      tag_297\n        /* \"#utility.yul\":12061:12066   */\n      dup2\n        /* \"#utility.yul\":12043:12067   */\n      tag_208\n      jump\t// in\n    tag_297:\n        /* \"#utility.yul\":12036:12041   */\n      dup2\n        /* \"#utility.yul\":12033:12068   */\n      eq\n        /* \"#utility.yul\":12023:12086   */\n      tag_298\n      jumpi\n        /* \"#utility.yul\":12082:12083   */\n      0x00\n        /* \"#utility.yul\":12079:12080   */\n      dup1\n        /* \"#utility.yul\":12072:12084   */\n      revert\n        /* \"#utility.yul\":12023:12086   */\n    tag_298:\n        /* \"#utility.yul\":11970:12092   */\n      pop\n      jump\t// out\n        /* \"#utility.yul\":12098:12214   */\n    tag_168:\n        /* \"#utility.yul\":12168:12189   */\n      tag_300\n        /* \"#utility.yul\":12183:12188   */\n      dup2\n        /* \"#utility.yul\":12168:12189   */\n      tag_212\n      jump\t// in\n    tag_300:\n        /* \"#utility.yul\":12161:12166   */\n      dup2\n        /* \"#utility.yul\":12158:12190   */\n      eq\n        /* \"#utility.yul\":12148:12208   */\n      tag_301\n      jumpi\n        /* \"#utility.yul\":12204:12205   */\n      0x00\n        /* \"#utility.yul\":12201:12202   */\n      dup1\n        /* \"#utility.yul\":12194:12206   */\n      revert\n        /* \"#utility.yul\":12148:12208   */\n    tag_301:\n        /* \"#utility.yul\":12098:12214   */\n      pop\n      jump\t// out\n        /* \"#utility.yul\":12220:12342   */\n    tag_171:\n        /* \"#utility.yul\":12293:12317   */\n      tag_303\n        /* \"#utility.yul\":12311:12316   */\n      dup2\n        /* \"#utility.yul\":12293:12317   */\n      tag_216\n      jump\t// in\n    tag_303:\n        /* \"#utility.yul\":12286:12291   */\n      dup2\n        /* \"#utility.yul\":12283:12318   */\n      eq\n        /* \"#utility.yul\":12273:12336   */\n      tag_304\n      jumpi\n        /* \"#utility.yul\":12332:12333   */\n      0x00\n        /* \"#utility.yul\":12329:12330   */\n      dup1\n        /* \"#utility.yul\":12322:12334   */\n      revert\n        /* \"#utility.yul\":12273:12336   */\n    tag_304:\n        /* \"#utility.yul\":12220:12342   */\n      pop\n      jump\t// out\n        /* \"#utility.yul\":12348:12470   */\n    tag_192:\n        /* \"#utility.yul\":12421:12445   */\n      tag_306\n        /* \"#utility.yul\":12439:12444   */\n      dup2\n        /* \"#utility.yul\":12421:12445   */\n      tag_236\n      jump\t// in\n    tag_306:\n        /* \"#utility.yul\":12414:12419   */\n      dup2\n        /* \"#utility.yul\":12411:12446   */\n      eq\n        /* \"#utility.yul\":12401:12464   */\n      tag_307\n      jumpi\n        /* \"#utility.yul\":12460:12461   */\n      0x00\n        /* \"#utility.yul\":12457:12458   */\n      dup1\n        /* \"#utility.yul\":12450:12462   */\n      revert\n        /* \"#utility.yul\":12401:12464   */\n    tag_307:\n        /* \"#utility.yul\":12348:12470   */\n      pop\n      jump\t// out\n        /* \"#utility.yul\":12476:12596   */\n    tag_195:\n        /* \"#utility.yul\":12548:12571   */\n      tag_309\n        /* \"#utility.yul\":12565:12570   */\n      dup2\n        /* \"#utility.yul\":12548:12571   */\n      tag_240\n      jump\t// in\n    tag_309:\n        /* \"#utility.yul\":12541:12546   */\n      dup2\n        /* \"#utility.yul\":12538:12572   */\n      eq\n        /* \"#utility.yul\":12528:12590   */\n      tag_310\n      jumpi\n        /* \"#utility.yul\":12586:12587   */\n      0x00\n        /* \"#utility.yul\":12583:12584   */\n      dup1\n        /* \"#utility.yul\":12576:12588   */\n      revert\n        /* \"#utility.yul\":12528:12590   */\n    tag_310:\n        /* \"#utility.yul\":12476:12596   */\n      pop\n      jump\t// out\n\n    auxdata: 0xa2646970667358221220223ac1ad5e6ccc58db1ae0695037afc8be9526938f6883b1d606f9e7220e094464736f6c63430008070033\n}\n",
				"bytecode": {
					"linkReferences": {},
					"object": "60a060405234801561001057600080fd5b503373ffffffffffffffffffffffffffffffffffffffff1660808173ffffffffffffffffffffffffffffffffffffffff1660601b8152505060805160601c611fbf61007460003960008181610305015281816103290152610f680152611fbf6000f3fe608060405234801561001057600080fd5b50600436106100f55760003560e01c80637694130011610097578063d82aff1111610066578063d82aff1114610252578063d8feb7ff1461026e578063f1c9f40f1461028a578063f3a4253714610294576100f5565b806376941300146101e0578063a4786088146101fc578063ab3acb5c14610218578063b614984d14610236576100f5565b80633bbae141116100d35780633bbae1411461015257806345df49871461015c57806371271f4d14610194578063753c5188146101b0576100f5565b80631487f252146100fa57806327cbaabe146101185780632b89054314610136575b600080fd5b6101026102b0565b60405161010f9190611ce7565b60405180910390f35b610120610303565b60405161012d9190611c3f565b60405180910390f35b610150600480360381019061014b9190611b30565b610327565b005b61015a6103d0565b005b61017660048036038101906101719190611b30565b6105bb565b60405161018b99989796959493929190611c5a565b60405180910390f35b6101ae60048036038101906101a99190611b5d565b6106a0565b005b6101ca60048036038101906101c59190611b30565b610a31565b6040516101d79190611ce7565b60405180910390f35b6101fa60048036038101906101f59190611b30565b610a51565b005b61021660048036038101906102119190611b30565b610ba1565b005b610220610cf0565b60405161022d9190611ce7565b60405180910390f35b610250600480360381019061024b9190611b30565b610d47565b005b61026c60048036038101906102679190611b30565b610f66565b005b61028860048036038101906102839190611b5d565b611018565b005b61029261131c565b005b6102ae60048036038101906102a99190611b5d565b611508565b005b60008060003373ffffffffffffffffffffffffffffffffffffffff1673ffffffffffffffffffffffffffffffffffffffff16815260200190815260200160002060009054906101000a900460ff16905090565b7f000000000000000000000000000000000000000000000000000000000000000081565b7f000000000000000000000000000000000000000000000000000000000000000073ffffffffffffffffffffffffffffffffffffffff163373ffffffffffffffffffffffffffffffffffffffff161461037f57600080fd5b6000808273ffffffffffffffffffffffffffffffffffffffff1673ffffffffffffffffffffffffffffffffffffffff16815260200190815260200160002060006101000a81549060ff021916905550565b60011515600160003373ffffffffffffffffffffffffffffffffffffffff1673ffffffffffffffffffffffffffffffffffffffff168152602001908152602001600020600f0160049054906101000a900460ff1615151461043057600080fd5b60011515600160003373ffffffffffffffffffffffffffffffffffffffff1673ffffffffffffffffffffffffffffffffffffffff168152602001908152602001600020600f0160069054906101000a900460ff16151514801561052057503373ffffffffffffffffffffffffffffffffffffffff16600160003373ffffffffffffffffffffffffffffffffffffffff1673ffffffffffffffffffffffffffffffffffffffff16815260200190815260200160002060010160009054906101000a900473ffffffffffffffffffffffffffffffffffffffff1673ffffffffffffffffffffffffffffffffffffffff16145b61055f576040517f08c379a000000000000000000000000000000000000000000000000000000000815260040161055690611d42565b60405180910390fd5b60018060003373ffffffffffffffffffffffffffffffffffffffff1673ffffffffffffffffffffffffffffffffffffffff168152602001908152602001600020600f0160056101000a81548160ff021916908315150217905550565b60016020528060005260406000206000915090508060000160009054906101000a900473ffffffffffffffffffffffffffffffffffffffff16908060010160009054906101000a900473ffffffffffffffffffffffffffffffffffffffff16908060020160009054906101000a900473ffffffffffffffffffffffffffffffffffffffff169080600301549080600401549080600f0160009054906101000a900463ffffffff169080600f0160049054906101000a900460ff169080600f0160059054906101000a900460ff169080600f0160069054906101000a900460ff16905089565b600115156000803373ffffffffffffffffffffffffffffffffffffffff1673ffffffffffffffffffffffffffffffffffffffff16815260200190815260200160002060009054906101000a900460ff161515146106fc57600080fd5b6001151560016000836020015173ffffffffffffffffffffffffffffffffffffffff1673ffffffffffffffffffffffffffffffffffffffff168152602001908152602001600020600f0160069054906101000a900460ff16151514610796576040517f08c379a000000000000000000000000000000000000000000000000000000000815260040161078d90611d22565b60405180910390fd5b60016000826020015173ffffffffffffffffffffffffffffffffffffffff1673ffffffffffffffffffffffffffffffffffffffff168152602001908152602001600020600f0160049054906101000a900460ff168160e001901515908115158152505060016000826020015173ffffffffffffffffffffffffffffffffffffffff1673ffffffffffffffffffffffffffffffffffffffff168152602001908152602001600020600f0160059054906101000a900460ff16816101000190151590811515815250508060016000836020015173ffffffffffffffffffffffffffffffffffffffff1673ffffffffffffffffffffffffffffffffffffffff16815260200190815260200160002060008201518160000160006101000a81548173ffffffffffffffffffffffffffffffffffffffff021916908373ffffffffffffffffffffffffffffffffffffffff16021790555060208201518160010160006101000a81548173ffffffffffffffffffffffffffffffffffffffff021916908373ffffffffffffffffffffffffffffffffffffffff16021790555060408201518160020160006101000a81548173ffffffffffffffffffffffffffffffffffffffff021916908373ffffffffffffffffffffffffffffffffffffffff160217905550606082015181600301556080820151816004015560a08201518160050190600a6109a19291906118cd565b5060c082015181600f0160006101000a81548163ffffffff021916908363ffffffff16021790555060e082015181600f0160046101000a81548160ff02191690831515021790555061010082015181600f0160056101000a81548160ff02191690831515021790555061012082015181600f0160066101000a81548160ff02191690831515021790555090505050565b60006020528060005260406000206000915054906101000a900460ff1681565b600115156000803373ffffffffffffffffffffffffffffffffffffffff1673ffffffffffffffffffffffffffffffffffffffff16815260200190815260200160002060009054906101000a900460ff16151514610aad57600080fd5b60011515600160008373ffffffffffffffffffffffffffffffffffffffff1673ffffffffffffffffffffffffffffffffffffffff168152602001908152602001600020600f0160069054906101000a900460ff16151514610b43576040517f08c379a0000000000000000000000000000000000000000000000000000000008152600401610b3a90611d42565b60405180910390fd5b6000600160008373ffffffffffffffffffffffffffffffffffffffff1673ffffffffffffffffffffffffffffffffffffffff168152602001908152602001600020600f0160046101000a81548160ff02191690831515021790555050565b600115156000803373ffffffffffffffffffffffffffffffffffffffff1673ffffffffffffffffffffffffffffffffffffffff16815260200190815260200160002060009054906101000a900460ff16151514610bfd57600080fd5b60011515600160008373ffffffffffffffffffffffffffffffffffffffff1673ffffffffffffffffffffffffffffffffffffffff168152602001908152602001600020600f0160069054906101000a900460ff16151514610c93576040517f08c379a0000000000000000000000000000000000000000000000000000000008152600401610c8a90611d42565b60405180910390fd5b60018060008373ffffffffffffffffffffffffffffffffffffffff1673ffffffffffffffffffffffffffffffffffffffff168152602001908152602001600020600f0160046101000a81548160ff02191690831515021790555050565b6000600160003373ffffffffffffffffffffffffffffffffffffffff1673ffffffffffffffffffffffffffffffffffffffff168152602001908152602001600020600f0160049054906101000a900460ff16905090565b600115156000803373ffffffffffffffffffffffffffffffffffffffff1673ffffffffffffffffffffffffffffffffffffffff16815260200190815260200160002060009054906101000a900460ff16151514610da357600080fd5b60011515600160008373ffffffffffffffffffffffffffffffffffffffff1673ffffffffffffffffffffffffffffffffffffffff168152602001908152602001600020600f0160069054906101000a900460ff16151514610e39576040517f08c379a0000000000000000000000000000000000000000000000000000000008152600401610e3090611d22565b60405180910390fd5b600160008273ffffffffffffffffffffffffffffffffffffffff1673ffffffffffffffffffffffffffffffffffffffff168152602001908152602001600020600080820160006101000a81549073ffffffffffffffffffffffffffffffffffffffff02191690556001820160006101000a81549073ffffffffffffffffffffffffffffffffffffffff02191690556002820160006101000a81549073ffffffffffffffffffffffffffffffffffffffff021916905560038201600090556004820160009055600582016000610f0e919061190d565b600f820160006101000a81549063ffffffff0219169055600f820160046101000a81549060ff0219169055600f820160056101000a81549060ff0219169055600f820160066101000a81549060ff0219169055505050565b7f000000000000000000000000000000000000000000000000000000000000000073ffffffffffffffffffffffffffffffffffffffff163373ffffffffffffffffffffffffffffffffffffffff1614610fbe57600080fd5b60016000808373ffffffffffffffffffffffffffffffffffffffff1673ffffffffffffffffffffffffffffffffffffffff16815260200190815260200160002060006101000a81548160ff02191690831515021790555050565b6001151560016000836020015173ffffffffffffffffffffffffffffffffffffffff1673ffffffffffffffffffffffffffffffffffffffff168152602001908152602001600020600f0160069054906101000a900460ff16151514156110b3576040517f08c379a00000000000000000000000000000000000000000000000000000000081526004016110aa90611d22565b60405180910390fd5b3373ffffffffffffffffffffffffffffffffffffffff16816020015173ffffffffffffffffffffffffffffffffffffffff1614611125576040517f08c379a000000000000000000000000000000000000000000000000000000000815260040161111c90611d02565b60405180910390fd5b60008160e00190151590811515815250506000816101000190151590811515815250508060016000836020015173ffffffffffffffffffffffffffffffffffffffff1673ffffffffffffffffffffffffffffffffffffffff16815260200190815260200160002060008201518160000160006101000a81548173ffffffffffffffffffffffffffffffffffffffff021916908373ffffffffffffffffffffffffffffffffffffffff16021790555060208201518160010160006101000a81548173ffffffffffffffffffffffffffffffffffffffff021916908373ffffffffffffffffffffffffffffffffffffffff16021790555060408201518160020160006101000a81548173ffffffffffffffffffffffffffffffffffffffff021916908373ffffffffffffffffffffffffffffffffffffffff160217905550606082015181600301556080820151816004015560a08201518160050190600a61128c9291906118cd565b5060c082015181600f0160006101000a81548163ffffffff021916908363ffffffff16021790555060e082015181600f0160046101000a81548160ff02191690831515021790555061010082015181600f0160056101000a81548160ff02191690831515021790555061012082015181600f0160066101000a81548160ff02191690831515021790555090505050565b60011515600160003373ffffffffffffffffffffffffffffffffffffffff1673ffffffffffffffffffffffffffffffffffffffff168152602001908152602001600020600f0160049054906101000a900460ff1615151461137c57600080fd5b60011515600160003373ffffffffffffffffffffffffffffffffffffffff1673ffffffffffffffffffffffffffffffffffffffff168152602001908152602001600020600f0160069054906101000a900460ff16151514801561146c57503373ffffffffffffffffffffffffffffffffffffffff16600160003373ffffffffffffffffffffffffffffffffffffffff1673ffffffffffffffffffffffffffffffffffffffff16815260200190815260200160002060010160009054906101000a900473ffffffffffffffffffffffffffffffffffffffff1673ffffffffffffffffffffffffffffffffffffffff16145b6114ab576040517f08c379a00000000000000000000000000000000000000000000000000000000081526004016114a290611d42565b60405180910390fd5b6000600160003373ffffffffffffffffffffffffffffffffffffffff1673ffffffffffffffffffffffffffffffffffffffff168152602001908152602001600020600f0160056101000a81548160ff021916908315150217905550565b60011515600160003373ffffffffffffffffffffffffffffffffffffffff1673ffffffffffffffffffffffffffffffffffffffff168152602001908152602001600020600f0160049054906101000a900460ff1615151461156857600080fd5b6001151560016000836020015173ffffffffffffffffffffffffffffffffffffffff1673ffffffffffffffffffffffffffffffffffffffff168152602001908152602001600020600f0160069054906101000a900460ff16151514611602576040517f08c379a00000000000000000000000000000000000000000000000000000000081526004016115f990611d22565b60405180910390fd5b3373ffffffffffffffffffffffffffffffffffffffff1660016000836020015173ffffffffffffffffffffffffffffffffffffffff1673ffffffffffffffffffffffffffffffffffffffff16815260200190815260200160002060010160009054906101000a900473ffffffffffffffffffffffffffffffffffffffff1673ffffffffffffffffffffffffffffffffffffffff16146116d6576040517f08c379a00000000000000000000000000000000000000000000000000000000081526004016116cd90611d02565b60405180910390fd5b60008160e00190151590811515815250506001816101000190151590811515815250508060016000836020015173ffffffffffffffffffffffffffffffffffffffff1673ffffffffffffffffffffffffffffffffffffffff16815260200190815260200160002060008201518160000160006101000a81548173ffffffffffffffffffffffffffffffffffffffff021916908373ffffffffffffffffffffffffffffffffffffffff16021790555060208201518160010160006101000a81548173ffffffffffffffffffffffffffffffffffffffff021916908373ffffffffffffffffffffffffffffffffffffffff16021790555060408201518160020160006101000a81548173ffffffffffffffffffffffffffffffffffffffff021916908373ffffffffffffffffffffffffffffffffffffffff160217905550606082015181600301556080820151816004015560a08201518160050190600a61183d9291906118cd565b5060c082015181600f0160006101000a81548163ffffffff021916908363ffffffff16021790555060e082015181600f0160046101000a81548160ff02191690831515021790555061010082015181600f0160056101000a81548160ff02191690831515021790555061012082015181600f0160066101000a81548160ff02191690831515021790555090505050565b82600a81019282156118fc579160200282015b828111156118fb5782518255916020019190600101906118e0565b5b5090506119099190611920565b5090565b5080600a019061191d9190611920565b50565b5b80821115611939576000816000905550600101611921565b5090565b600061195061194b84611d87565b611d62565b9050808285602086028201111561196a57611969611e80565b5b60005b8581101561199a578161198088826119f9565b84526020840193506020830192505060018101905061196d565b5050509392505050565b6000813590506119b381611f16565b92915050565b600082601f8301126119ce576119cd611e76565b5b600a6119db84828561193d565b91505092915050565b6000813590506119f381611f2d565b92915050565b600081359050611a0881611f44565b92915050565b60006102608284031215611a2557611a24611e7b565b5b611a30610140611d62565b90506000611a40848285016119a4565b6000830152506020611a54848285016119a4565b6020830152506040611a6884828501611b06565b6040830152506060611a7c848285016119f9565b6060830152506080611a90848285016119f9565b60808301525060a0611aa4848285016119b9565b60a0830152506101e0611ab984828501611b1b565b60c083015250610200611ace848285016119e4565b60e083015250610220611ae3848285016119e4565b61010083015250610240611af9848285016119e4565b6101208301525092915050565b600081359050611b1581611f5b565b92915050565b600081359050611b2a81611f72565b92915050565b600060208284031215611b4657611b45611e85565b5b6000611b54848285016119a4565b91505092915050565b60006102608284031215611b7457611b73611e85565b5b6000611b8284828501611a0e565b91505092915050565b611b9481611dbe565b82525050565b611ba381611dd0565b82525050565b611bb281611ddc565b82525050565b6000611bc5601183611dad565b9150611bd082611e9b565b602082019050919050565b6000611be8601483611dad565b9150611bf382611ec4565b602082019050919050565b6000611c0b601583611dad565b9150611c1682611eed565b602082019050919050565b611c2a81611de6565b82525050565b611c3981611e06565b82525050565b6000602082019050611c546000830184611b8b565b92915050565b600061012082019050611c70600083018c611b8b565b611c7d602083018b611b8b565b611c8a604083018a611c21565b611c976060830189611ba9565b611ca46080830188611ba9565b611cb160a0830187611c30565b611cbe60c0830186611b9a565b611ccb60e0830185611b9a565b611cd9610100830184611b9a565b9a9950505050505050505050565b6000602082019050611cfc6000830184611b9a565b92915050565b60006020820190508181036000830152611d1b81611bb8565b9050919050565b60006020820190508181036000830152611d3b81611bdb565b9050919050565b60006020820190508181036000830152611d5b81611bfe565b9050919050565b6000611d6c611d7d565b9050611d788282611e16565b919050565b6000604051905090565b600067ffffffffffffffff821115611da257611da1611e47565b5b602082029050919050565b600082825260208201905092915050565b6000611dc982611de6565b9050919050565b60008115159050919050565b6000819050919050565b600073ffffffffffffffffffffffffffffffffffffffff82169050919050565b600063ffffffff82169050919050565b611e1f82611e8a565b810181811067ffffffffffffffff82111715611e3e57611e3d611e47565b5b80604052505050565b7f4e487b7100000000000000000000000000000000000000000000000000000000600052604160045260246000fd5b600080fd5b600080fd5b600080fd5b600080fd5b6000601f19601f8301169050919050565b7f74686520676174657220697320796f7572000000000000000000000000000000600082015250565b7f7468652067617465722069732065786973746572000000000000000000000000600082015250565b7f7468652067617465722069736e6f742065786973740000000000000000000000600082015250565b611f1f81611dbe565b8114611f2a57600080fd5b50565b611f3681611dd0565b8114611f4157600080fd5b50565b611f4d81611ddc565b8114611f5857600080fd5b50565b611f6481611de6565b8114611f6f57600080fd5b50565b611f7b81611e06565b8114611f8657600080fd5b5056fea2646970667358221220223ac1ad5e6ccc58db1ae0695037afc8be9526938f6883b1d606f9e7220e094464736f6c63430008070033",
					"opcodes": "PUSH1 0xA0 PUSH1 0x40 MSTORE CALLVALUE DUP1 ISZERO PUSH2 0x10 JUMPI PUSH1 0x0 DUP1 REVERT JUMPDEST POP CALLER PUSH20 0xFFFFFFFFFFFFFFFFFFFFFFFFFFFFFFFFFFFFFFFF AND PUSH1 0x80 DUP2 PUSH20 0xFFFFFFFFFFFFFFFFFFFFFFFFFFFFFFFFFFFFFFFF AND PUSH1 0x60 SHL DUP2 MSTORE POP POP PUSH1 0x80 MLOAD PUSH1 0x60 SHR PUSH2 0x1FBF PUSH2 0x74 PUSH1 0x0 CODECOPY PUSH1 0x0 DUP2 DUP2 PUSH2 0x305 ADD MSTORE DUP2 DUP2 PUSH2 0x329 ADD MSTORE PUSH2 0xF68 ADD MSTORE PUSH2 0x1FBF PUSH1 0x0 RETURN INVALID PUSH1 0x80 PUSH1 0x40 MSTORE CALLVALUE DUP1 ISZERO PUSH2 0x10 JUMPI PUSH1 0x0 DUP1 REVERT JUMPDEST POP PUSH1 0x4 CALLDATASIZE LT PUSH2 0xF5 JUMPI PUSH1 0x0 CALLDATALOAD PUSH1 0xE0 SHR DUP1 PUSH4 0x76941300 GT PUSH2 0x97 JUMPI DUP1 PUSH4 0xD82AFF11 GT PUSH2 0x66 JUMPI DUP1 PUSH4 0xD82AFF11 EQ PUSH2 0x252 JUMPI DUP1 PUSH4 0xD8FEB7FF EQ PUSH2 0x26E JUMPI DUP1 PUSH4 0xF1C9F40F EQ PUSH2 0x28A JUMPI DUP1 PUSH4 0xF3A42537 EQ PUSH2 0x294 JUMPI PUSH2 0xF5 JUMP JUMPDEST DUP1 PUSH4 0x76941300 EQ PUSH2 0x1E0 JUMPI DUP1 PUSH4 0xA4786088 EQ PUSH2 0x1FC JUMPI DUP1 PUSH4 0xAB3ACB5C EQ PUSH2 0x218 JUMPI DUP1 PUSH4 0xB614984D EQ PUSH2 0x236 JUMPI PUSH2 0xF5 JUMP JUMPDEST DUP1 PUSH4 0x3BBAE141 GT PUSH2 0xD3 JUMPI DUP1 PUSH4 0x3BBAE141 EQ PUSH2 0x152 JUMPI DUP1 PUSH4 0x45DF4987 EQ PUSH2 0x15C JUMPI DUP1 PUSH4 0x71271F4D EQ PUSH2 0x194 JUMPI DUP1 PUSH4 0x753C5188 EQ PUSH2 0x1B0 JUMPI PUSH2 0xF5 JUMP JUMPDEST DUP1 PUSH4 0x1487F252 EQ PUSH2 0xFA JUMPI DUP1 PUSH4 0x27CBAABE EQ PUSH2 0x118 JUMPI DUP1 PUSH4 0x2B890543 EQ PUSH2 0x136 JUMPI JUMPDEST PUSH1 0x0 DUP1 REVERT JUMPDEST PUSH2 0x102 PUSH2 0x2B0 JUMP JUMPDEST PUSH1 0x40 MLOAD PUSH2 0x10F SWAP2 SWAP1 PUSH2 0x1CE7 JUMP JUMPDEST PUSH1 0x40 MLOAD DUP1 SWAP2 SUB SWAP1 RETURN JUMPDEST PUSH2 0x120 PUSH2 0x303 JUMP JUMPDEST PUSH1 0x40 MLOAD PUSH2 0x12D SWAP2 SWAP1 PUSH2 0x1C3F JUMP JUMPDEST PUSH1 0x40 MLOAD DUP1 SWAP2 SUB SWAP1 RETURN JUMPDEST PUSH2 0x150 PUSH1 0x4 DUP1 CALLDATASIZE SUB DUP2 ADD SWAP1 PUSH2 0x14B SWAP2 SWAP1 PUSH2 0x1B30 JUMP JUMPDEST PUSH2 0x327 JUMP JUMPDEST STOP JUMPDEST PUSH2 0x15A PUSH2 0x3D0 JUMP JUMPDEST STOP JUMPDEST PUSH2 0x176 PUSH1 0x4 DUP1 CALLDATASIZE SUB DUP2 ADD SWAP1 PUSH2 0x171 SWAP2 SWAP1 PUSH2 0x1B30 JUMP JUMPDEST PUSH2 0x5BB JUMP JUMPDEST PUSH1 0x40 MLOAD PUSH2 0x18B SWAP10 SWAP9 SWAP8 SWAP7 SWAP6 SWAP5 SWAP4 SWAP3 SWAP2 SWAP1 PUSH2 0x1C5A JUMP JUMPDEST PUSH1 0x40 MLOAD DUP1 SWAP2 SUB SWAP1 RETURN JUMPDEST PUSH2 0x1AE PUSH1 0x4 DUP1 CALLDATASIZE SUB DUP2 ADD SWAP1 PUSH2 0x1A9 SWAP2 SWAP1 PUSH2 0x1B5D JUMP JUMPDEST PUSH2 0x6A0 JUMP JUMPDEST STOP JUMPDEST PUSH2 0x1CA PUSH1 0x4 DUP1 CALLDATASIZE SUB DUP2 ADD SWAP1 PUSH2 0x1C5 SWAP2 SWAP1 PUSH2 0x1B30 JUMP JUMPDEST PUSH2 0xA31 JUMP JUMPDEST PUSH1 0x40 MLOAD PUSH2 0x1D7 SWAP2 SWAP1 PUSH2 0x1CE7 JUMP JUMPDEST PUSH1 0x40 MLOAD DUP1 SWAP2 SUB SWAP1 RETURN JUMPDEST PUSH2 0x1FA PUSH1 0x4 DUP1 CALLDATASIZE SUB DUP2 ADD SWAP1 PUSH2 0x1F5 SWAP2 SWAP1 PUSH2 0x1B30 JUMP JUMPDEST PUSH2 0xA51 JUMP JUMPDEST STOP JUMPDEST PUSH2 0x216 PUSH1 0x4 DUP1 CALLDATASIZE SUB DUP2 ADD SWAP1 PUSH2 0x211 SWAP2 SWAP1 PUSH2 0x1B30 JUMP JUMPDEST PUSH2 0xBA1 JUMP JUMPDEST STOP JUMPDEST PUSH2 0x220 PUSH2 0xCF0 JUMP JUMPDEST PUSH1 0x40 MLOAD PUSH2 0x22D SWAP2 SWAP1 PUSH2 0x1CE7 JUMP JUMPDEST PUSH1 0x40 MLOAD DUP1 SWAP2 SUB SWAP1 RETURN JUMPDEST PUSH2 0x250 PUSH1 0x4 DUP1 CALLDATASIZE SUB DUP2 ADD SWAP1 PUSH2 0x24B SWAP2 SWAP1 PUSH2 0x1B30 JUMP JUMPDEST PUSH2 0xD47 JUMP JUMPDEST STOP JUMPDEST PUSH2 0x26C PUSH1 0x4 DUP1 CALLDATASIZE SUB DUP2 ADD SWAP1 PUSH2 0x267 SWAP2 SWAP1 PUSH2 0x1B30 JUMP JUMPDEST PUSH2 0xF66 JUMP JUMPDEST STOP JUMPDEST PUSH2 0x288 PUSH1 0x4 DUP1 CALLDATASIZE SUB DUP2 ADD SWAP1 PUSH2 0x283 SWAP2 SWAP1 PUSH2 0x1B5D JUMP JUMPDEST PUSH2 0x1018 JUMP JUMPDEST STOP JUMPDEST PUSH2 0x292 PUSH2 0x131C JUMP JUMPDEST STOP JUMPDEST PUSH2 0x2AE PUSH1 0x4 DUP1 CALLDATASIZE SUB DUP2 ADD SWAP1 PUSH2 0x2A9 SWAP2 SWAP1 PUSH2 0x1B5D JUMP JUMPDEST PUSH2 0x1508 JUMP JUMPDEST STOP JUMPDEST PUSH1 0x0 DUP1 PUSH1 0x0 CALLER PUSH20 0xFFFFFFFFFFFFFFFFFFFFFFFFFFFFFFFFFFFFFFFF AND PUSH20 0xFFFFFFFFFFFFFFFFFFFFFFFFFFFFFFFFFFFFFFFF AND DUP2 MSTORE PUSH1 0x20 ADD SWAP1 DUP2 MSTORE PUSH1 0x20 ADD PUSH1 0x0 KECCAK256 PUSH1 0x0 SWAP1 SLOAD SWAP1 PUSH2 0x100 EXP SWAP1 DIV PUSH1 0xFF AND SWAP1 POP SWAP1 JUMP JUMPDEST PUSH32 0x0 DUP2 JUMP JUMPDEST PUSH32 0x0 PUSH20 0xFFFFFFFFFFFFFFFFFFFFFFFFFFFFFFFFFFFFFFFF AND CALLER PUSH20 0xFFFFFFFFFFFFFFFFFFFFFFFFFFFFFFFFFFFFFFFF AND EQ PUSH2 0x37F JUMPI PUSH1 0x0 DUP1 REVERT JUMPDEST PUSH1 0x0 DUP1 DUP3 PUSH20 0xFFFFFFFFFFFFFFFFFFFFFFFFFFFFFFFFFFFFFFFF AND PUSH20 0xFFFFFFFFFFFFFFFFFFFFFFFFFFFFFFFFFFFFFFFF AND DUP2 MSTORE PUSH1 0x20 ADD SWAP1 DUP2 MSTORE PUSH1 0x20 ADD PUSH1 0x0 KECCAK256 PUSH1 0x0 PUSH2 0x100 EXP DUP2 SLOAD SWAP1 PUSH1 0xFF MUL NOT AND SWAP1 SSTORE POP JUMP JUMPDEST PUSH1 0x1 ISZERO ISZERO PUSH1 0x1 PUSH1 0x0 CALLER PUSH20 0xFFFFFFFFFFFFFFFFFFFFFFFFFFFFFFFFFFFFFFFF AND PUSH20 0xFFFFFFFFFFFFFFFFFFFFFFFFFFFFFFFFFFFFFFFF AND DUP2 MSTORE PUSH1 0x20 ADD SWAP1 DUP2 MSTORE PUSH1 0x20 ADD PUSH1 0x0 KECCAK256 PUSH1 0xF ADD PUSH1 0x4 SWAP1 SLOAD SWAP1 PUSH2 0x100 EXP SWAP1 DIV PUSH1 0xFF AND ISZERO ISZERO EQ PUSH2 0x430 JUMPI PUSH1 0x0 DUP1 REVERT JUMPDEST PUSH1 0x1 ISZERO ISZERO PUSH1 0x1 PUSH1 0x0 CALLER PUSH20 0xFFFFFFFFFFFFFFFFFFFFFFFFFFFFFFFFFFFFFFFF AND PUSH20 0xFFFFFFFFFFFFFFFFFFFFFFFFFFFFFFFFFFFFFFFF AND DUP2 MSTORE PUSH1 0x20 ADD SWAP1 DUP2 MSTORE PUSH1 0x20 ADD PUSH1 0x0 KECCAK256 PUSH1 0xF ADD PUSH1 0x6 SWAP1 SLOAD SWAP1 PUSH2 0x100 EXP SWAP1 DIV PUSH1 0xFF AND ISZERO ISZERO EQ DUP1 ISZERO PUSH2 0x520 JUMPI POP CALLER PUSH20 0xFFFFFFFFFFFFFFFFFFFFFFFFFFFFFFFFFFFFFFFF AND PUSH1 0x1 PUSH1 0x0 CALLER PUSH20 0xFFFFFFFFFFFFFFFFFFFFFFFFFFFFFFFFFFFFFFFF AND PUSH20 0xFFFFFFFFFFFFFFFFFFFFFFFFFFFFFFFFFFFFFFFF AND DUP2 MSTORE PUSH1 0x20 ADD SWAP1 DUP2 MSTORE PUSH1 0x20 ADD PUSH1 0x0 KECCAK256 PUSH1 0x1 ADD PUSH1 0x0 SWAP1 SLOAD SWAP1 PUSH2 0x100 EXP SWAP1 DIV PUSH20 0xFFFFFFFFFFFFFFFFFFFFFFFFFFFFFFFFFFFFFFFF AND PUSH20 0xFFFFFFFFFFFFFFFFFFFFFFFFFFFFFFFFFFFFFFFF AND EQ JUMPDEST PUSH2 0x55F JUMPI PUSH1 0x40 MLOAD PUSH32 0x8C379A000000000000000000000000000000000000000000000000000000000 DUP2 MSTORE PUSH1 0x4 ADD PUSH2 0x556 SWAP1 PUSH2 0x1D42 JUMP JUMPDEST PUSH1 0x40 MLOAD DUP1 SWAP2 SUB SWAP1 REVERT JUMPDEST PUSH1 0x1 DUP1 PUSH1 0x0 CALLER PUSH20 0xFFFFFFFFFFFFFFFFFFFFFFFFFFFFFFFFFFFFFFFF AND PUSH20 0xFFFFFFFFFFFFFFFFFFFFFFFFFFFFFFFFFFFFFFFF AND DUP2 MSTORE PUSH1 0x20 ADD SWAP1 DUP2 MSTORE PUSH1 0x20 ADD PUSH1 0x0 KECCAK256 PUSH1 0xF ADD PUSH1 0x5 PUSH2 0x100 EXP DUP2 SLOAD DUP2 PUSH1 0xFF MUL NOT AND SWAP1 DUP4 ISZERO ISZERO MUL OR SWAP1 SSTORE POP JUMP JUMPDEST PUSH1 0x1 PUSH1 0x20 MSTORE DUP1 PUSH1 0x0 MSTORE PUSH1 0x40 PUSH1 0x0 KECCAK256 PUSH1 0x0 SWAP2 POP SWAP1 POP DUP1 PUSH1 0x0 ADD PUSH1 0x0 SWAP1 SLOAD SWAP1 PUSH2 0x100 EXP SWAP1 DIV PUSH20 0xFFFFFFFFFFFFFFFFFFFFFFFFFFFFFFFFFFFFFFFF AND SWAP1 DUP1 PUSH1 0x1 ADD PUSH1 0x0 SWAP1 SLOAD SWAP1 PUSH2 0x100 EXP SWAP1 DIV PUSH20 0xFFFFFFFFFFFFFFFFFFFFFFFFFFFFFFFFFFFFFFFF AND SWAP1 DUP1 PUSH1 0x2 ADD PUSH1 0x0 SWAP1 SLOAD SWAP1 PUSH2 0x100 EXP SWAP1 DIV PUSH20 0xFFFFFFFFFFFFFFFFFFFFFFFFFFFFFFFFFFFFFFFF AND SWAP1 DUP1 PUSH1 0x3 ADD SLOAD SWAP1 DUP1 PUSH1 0x4 ADD SLOAD SWAP1 DUP1 PUSH1 0xF ADD PUSH1 0x0 SWAP1 SLOAD SWAP1 PUSH2 0x100 EXP SWAP1 DIV PUSH4 0xFFFFFFFF AND SWAP1 DUP1 PUSH1 0xF ADD PUSH1 0x4 SWAP1 SLOAD SWAP1 PUSH2 0x100 EXP SWAP1 DIV PUSH1 0xFF AND SWAP1 DUP1 PUSH1 0xF ADD PUSH1 0x5 SWAP1 SLOAD SWAP1 PUSH2 0x100 EXP SWAP1 DIV PUSH1 0xFF AND SWAP1 DUP1 PUSH1 0xF ADD PUSH1 0x6 SWAP1 SLOAD SWAP1 PUSH2 0x100 EXP SWAP1 DIV PUSH1 0xFF AND SWAP1 POP DUP10 JUMP JUMPDEST PUSH1 0x1 ISZERO ISZERO PUSH1 0x0 DUP1 CALLER PUSH20 0xFFFFFFFFFFFFFFFFFFFFFFFFFFFFFFFFFFFFFFFF AND PUSH20 0xFFFFFFFFFFFFFFFFFFFFFFFFFFFFFFFFFFFFFFFF AND DUP2 MSTORE PUSH1 0x20 ADD SWAP1 DUP2 MSTORE PUSH1 0x20 ADD PUSH1 0x0 KECCAK256 PUSH1 0x0 SWAP1 SLOAD SWAP1 PUSH2 0x100 EXP SWAP1 DIV PUSH1 0xFF AND ISZERO ISZERO EQ PUSH2 0x6FC JUMPI PUSH1 0x0 DUP1 REVERT JUMPDEST PUSH1 0x1 ISZERO ISZERO PUSH1 0x1 PUSH1 0x0 DUP4 PUSH1 0x20 ADD MLOAD PUSH20 0xFFFFFFFFFFFFFFFFFFFFFFFFFFFFFFFFFFFFFFFF AND PUSH20 0xFFFFFFFFFFFFFFFFFFFFFFFFFFFFFFFFFFFFFFFF AND DUP2 MSTORE PUSH1 0x20 ADD SWAP1 DUP2 MSTORE PUSH1 0x20 ADD PUSH1 0x0 KECCAK256 PUSH1 0xF ADD PUSH1 0x6 SWAP1 SLOAD SWAP1 PUSH2 0x100 EXP SWAP1 DIV PUSH1 0xFF AND ISZERO ISZERO EQ PUSH2 0x796 JUMPI PUSH1 0x40 MLOAD PUSH32 0x8C379A000000000000000000000000000000000000000000000000000000000 DUP2 MSTORE PUSH1 0x4 ADD PUSH2 0x78D SWAP1 PUSH2 0x1D22 JUMP JUMPDEST PUSH1 0x40 MLOAD DUP1 SWAP2 SUB SWAP1 REVERT JUMPDEST PUSH1 0x1 PUSH1 0x0 DUP3 PUSH1 0x20 ADD MLOAD PUSH20 0xFFFFFFFFFFFFFFFFFFFFFFFFFFFFFFFFFFFFFFFF AND PUSH20 0xFFFFFFFFFFFFFFFFFFFFFFFFFFFFFFFFFFFFFFFF AND DUP2 MSTORE PUSH1 0x20 ADD SWAP1 DUP2 MSTORE PUSH1 0x20 ADD PUSH1 0x0 KECCAK256 PUSH1 0xF ADD PUSH1 0x4 SWAP1 SLOAD SWAP1 PUSH2 0x100 EXP SWAP1 DIV PUSH1 0xFF AND DUP2 PUSH1 0xE0 ADD SWAP1 ISZERO ISZERO SWAP1 DUP2 ISZERO ISZERO DUP2 MSTORE POP POP PUSH1 0x1 PUSH1 0x0 DUP3 PUSH1 0x20 ADD MLOAD PUSH20 0xFFFFFFFFFFFFFFFFFFFFFFFFFFFFFFFFFFFFFFFF AND PUSH20 0xFFFFFFFFFFFFFFFFFFFFFFFFFFFFFFFFFFFFFFFF AND DUP2 MSTORE PUSH1 0x20 ADD SWAP1 DUP2 MSTORE PUSH1 0x20 ADD PUSH1 0x0 KECCAK256 PUSH1 0xF ADD PUSH1 0x5 SWAP1 SLOAD SWAP1 PUSH2 0x100 EXP SWAP1 DIV PUSH1 0xFF AND DUP2 PUSH2 0x100 ADD SWAP1 ISZERO ISZERO SWAP1 DUP2 ISZERO ISZERO DUP2 MSTORE POP POP DUP1 PUSH1 0x1 PUSH1 0x0 DUP4 PUSH1 0x20 ADD MLOAD PUSH20 0xFFFFFFFFFFFFFFFFFFFFFFFFFFFFFFFFFFFFFFFF AND PUSH20 0xFFFFFFFFFFFFFFFFFFFFFFFFFFFFFFFFFFFFFFFF AND DUP2 MSTORE PUSH1 0x20 ADD SWAP1 DUP2 MSTORE PUSH1 0x20 ADD PUSH1 0x0 KECCAK256 PUSH1 0x0 DUP3 ADD MLOAD DUP2 PUSH1 0x0 ADD PUSH1 0x0 PUSH2 0x100 EXP DUP2 SLOAD DUP2 PUSH20 0xFFFFFFFFFFFFFFFFFFFFFFFFFFFFFFFFFFFFFFFF MUL NOT AND SWAP1 DUP4 PUSH20 0xFFFFFFFFFFFFFFFFFFFFFFFFFFFFFFFFFFFFFFFF AND MUL OR SWAP1 SSTORE POP PUSH1 0x20 DUP3 ADD MLOAD DUP2 PUSH1 0x1 ADD PUSH1 0x0 PUSH2 0x100 EXP DUP2 SLOAD DUP2 PUSH20 0xFFFFFFFFFFFFFFFFFFFFFFFFFFFFFFFFFFFFFFFF MUL NOT AND SWAP1 DUP4 PUSH20 0xFFFFFFFFFFFFFFFFFFFFFFFFFFFFFFFFFFFFFFFF AND MUL OR SWAP1 SSTORE POP PUSH1 0x40 DUP3 ADD MLOAD DUP2 PUSH1 0x2 ADD PUSH1 0x0 PUSH2 0x100 EXP DUP2 SLOAD DUP2 PUSH20 0xFFFFFFFFFFFFFFFFFFFFFFFFFFFFFFFFFFFFFFFF MUL NOT AND SWAP1 DUP4 PUSH20 0xFFFFFFFFFFFFFFFFFFFFFFFFFFFFFFFFFFFFFFFF AND MUL OR SWAP1 SSTORE POP PUSH1 0x60 DUP3 ADD MLOAD DUP2 PUSH1 0x3 ADD SSTORE PUSH1 0x80 DUP3 ADD MLOAD DUP2 PUSH1 0x4 ADD SSTORE PUSH1 0xA0 DUP3 ADD MLOAD DUP2 PUSH1 0x5 ADD SWAP1 PUSH1 0xA PUSH2 0x9A1 SWAP3 SWAP2 SWAP1 PUSH2 0x18CD JUMP JUMPDEST POP PUSH1 0xC0 DUP3 ADD MLOAD DUP2 PUSH1 0xF ADD PUSH1 0x0 PUSH2 0x100 EXP DUP2 SLOAD DUP2 PUSH4 0xFFFFFFFF MUL NOT AND SWAP1 DUP4 PUSH4 0xFFFFFFFF AND MUL OR SWAP1 SSTORE POP PUSH1 0xE0 DUP3 ADD MLOAD DUP2 PUSH1 0xF ADD PUSH1 0x4 PUSH2 0x100 EXP DUP2 SLOAD DUP2 PUSH1 0xFF MUL NOT AND SWAP1 DUP4 ISZERO ISZERO MUL OR SWAP1 SSTORE POP PUSH2 0x100 DUP3 ADD MLOAD DUP2 PUSH1 0xF ADD PUSH1 0x5 PUSH2 0x100 EXP DUP2 SLOAD DUP2 PUSH1 0xFF MUL NOT AND SWAP1 DUP4 ISZERO ISZERO MUL OR SWAP1 SSTORE POP PUSH2 0x120 DUP3 ADD MLOAD DUP2 PUSH1 0xF ADD PUSH1 0x6 PUSH2 0x100 EXP DUP2 SLOAD DUP2 PUSH1 0xFF MUL NOT AND SWAP1 DUP4 ISZERO ISZERO MUL OR SWAP1 SSTORE POP SWAP1 POP POP POP JUMP JUMPDEST PUSH1 0x0 PUSH1 0x20 MSTORE DUP1 PUSH1 0x0 MSTORE PUSH1 0x40 PUSH1 0x0 KECCAK256 PUSH1 0x0 SWAP2 POP SLOAD SWAP1 PUSH2 0x100 EXP SWAP1 DIV PUSH1 0xFF AND DUP2 JUMP JUMPDEST PUSH1 0x1 ISZERO ISZERO PUSH1 0x0 DUP1 CALLER PUSH20 0xFFFFFFFFFFFFFFFFFFFFFFFFFFFFFFFFFFFFFFFF AND PUSH20 0xFFFFFFFFFFFFFFFFFFFFFFFFFFFFFFFFFFFFFFFF AND DUP2 MSTORE PUSH1 0x20 ADD SWAP1 DUP2 MSTORE PUSH1 0x20 ADD PUSH1 0x0 KECCAK256 PUSH1 0x0 SWAP1 SLOAD SWAP1 PUSH2 0x100 EXP SWAP1 DIV PUSH1 0xFF AND ISZERO ISZERO EQ PUSH2 0xAAD JUMPI PUSH1 0x0 DUP1 REVERT JUMPDEST PUSH1 0x1 ISZERO ISZERO PUSH1 0x1 PUSH1 0x0 DUP4 PUSH20 0xFFFFFFFFFFFFFFFFFFFFFFFFFFFFFFFFFFFFFFFF AND PUSH20 0xFFFFFFFFFFFFFFFFFFFFFFFFFFFFFFFFFFFFFFFF AND DUP2 MSTORE PUSH1 0x20 ADD SWAP1 DUP2 MSTORE PUSH1 0x20 ADD PUSH1 0x0 KECCAK256 PUSH1 0xF ADD PUSH1 0x6 SWAP1 SLOAD SWAP1 PUSH2 0x100 EXP SWAP1 DIV PUSH1 0xFF AND ISZERO ISZERO EQ PUSH2 0xB43 JUMPI PUSH1 0x40 MLOAD PUSH32 0x8C379A000000000000000000000000000000000000000000000000000000000 DUP2 MSTORE PUSH1 0x4 ADD PUSH2 0xB3A SWAP1 PUSH2 0x1D42 JUMP JUMPDEST PUSH1 0x40 MLOAD DUP1 SWAP2 SUB SWAP1 REVERT JUMPDEST PUSH1 0x0 PUSH1 0x1 PUSH1 0x0 DUP4 PUSH20 0xFFFFFFFFFFFFFFFFFFFFFFFFFFFFFFFFFFFFFFFF AND PUSH20 0xFFFFFFFFFFFFFFFFFFFFFFFFFFFFFFFFFFFFFFFF AND DUP2 MSTORE PUSH1 0x20 ADD SWAP1 DUP2 MSTORE PUSH1 0x20 ADD PUSH1 0x0 KECCAK256 PUSH1 0xF ADD PUSH1 0x4 PUSH2 0x100 EXP DUP2 SLOAD DUP2 PUSH1 0xFF MUL NOT AND SWAP1 DUP4 ISZERO ISZERO MUL OR SWAP1 SSTORE POP POP JUMP JUMPDEST PUSH1 0x1 ISZERO ISZERO PUSH1 0x0 DUP1 CALLER PUSH20 0xFFFFFFFFFFFFFFFFFFFFFFFFFFFFFFFFFFFFFFFF AND PUSH20 0xFFFFFFFFFFFFFFFFFFFFFFFFFFFFFFFFFFFFFFFF AND DUP2 MSTORE PUSH1 0x20 ADD SWAP1 DUP2 MSTORE PUSH1 0x20 ADD PUSH1 0x0 KECCAK256 PUSH1 0x0 SWAP1 SLOAD SWAP1 PUSH2 0x100 EXP SWAP1 DIV PUSH1 0xFF AND ISZERO ISZERO EQ PUSH2 0xBFD JUMPI PUSH1 0x0 DUP1 REVERT JUMPDEST PUSH1 0x1 ISZERO ISZERO PUSH1 0x1 PUSH1 0x0 DUP4 PUSH20 0xFFFFFFFFFFFFFFFFFFFFFFFFFFFFFFFFFFFFFFFF AND PUSH20 0xFFFFFFFFFFFFFFFFFFFFFFFFFFFFFFFFFFFFFFFF AND DUP2 MSTORE PUSH1 0x20 ADD SWAP1 DUP2 MSTORE PUSH1 0x20 ADD PUSH1 0x0 KECCAK256 PUSH1 0xF ADD PUSH1 0x6 SWAP1 SLOAD SWAP1 PUSH2 0x100 EXP SWAP1 DIV PUSH1 0xFF AND ISZERO ISZERO EQ PUSH2 0xC93 JUMPI PUSH1 0x40 MLOAD PUSH32 0x8C379A000000000000000000000000000000000000000000000000000000000 DUP2 MSTORE PUSH1 0x4 ADD PUSH2 0xC8A SWAP1 PUSH2 0x1D42 JUMP JUMPDEST PUSH1 0x40 MLOAD DUP1 SWAP2 SUB SWAP1 REVERT JUMPDEST PUSH1 0x1 DUP1 PUSH1 0x0 DUP4 PUSH20 0xFFFFFFFFFFFFFFFFFFFFFFFFFFFFFFFFFFFFFFFF AND PUSH20 0xFFFFFFFFFFFFFFFFFFFFFFFFFFFFFFFFFFFFFFFF AND DUP2 MSTORE PUSH1 0x20 ADD SWAP1 DUP2 MSTORE PUSH1 0x20 ADD PUSH1 0x0 KECCAK256 PUSH1 0xF ADD PUSH1 0x4 PUSH2 0x100 EXP DUP2 SLOAD DUP2 PUSH1 0xFF MUL NOT AND SWAP1 DUP4 ISZERO ISZERO MUL OR SWAP1 SSTORE POP POP JUMP JUMPDEST PUSH1 0x0 PUSH1 0x1 PUSH1 0x0 CALLER PUSH20 0xFFFFFFFFFFFFFFFFFFFFFFFFFFFFFFFFFFFFFFFF AND PUSH20 0xFFFFFFFFFFFFFFFFFFFFFFFFFFFFFFFFFFFFFFFF AND DUP2 MSTORE PUSH1 0x20 ADD SWAP1 DUP2 MSTORE PUSH1 0x20 ADD PUSH1 0x0 KECCAK256 PUSH1 0xF ADD PUSH1 0x4 SWAP1 SLOAD SWAP1 PUSH2 0x100 EXP SWAP1 DIV PUSH1 0xFF AND SWAP1 POP SWAP1 JUMP JUMPDEST PUSH1 0x1 ISZERO ISZERO PUSH1 0x0 DUP1 CALLER PUSH20 0xFFFFFFFFFFFFFFFFFFFFFFFFFFFFFFFFFFFFFFFF AND PUSH20 0xFFFFFFFFFFFFFFFFFFFFFFFFFFFFFFFFFFFFFFFF AND DUP2 MSTORE PUSH1 0x20 ADD SWAP1 DUP2 MSTORE PUSH1 0x20 ADD PUSH1 0x0 KECCAK256 PUSH1 0x0 SWAP1 SLOAD SWAP1 PUSH2 0x100 EXP SWAP1 DIV PUSH1 0xFF AND ISZERO ISZERO EQ PUSH2 0xDA3 JUMPI PUSH1 0x0 DUP1 REVERT JUMPDEST PUSH1 0x1 ISZERO ISZERO PUSH1 0x1 PUSH1 0x0 DUP4 PUSH20 0xFFFFFFFFFFFFFFFFFFFFFFFFFFFFFFFFFFFFFFFF AND PUSH20 0xFFFFFFFFFFFFFFFFFFFFFFFFFFFFFFFFFFFFFFFF AND DUP2 MSTORE PUSH1 0x20 ADD SWAP1 DUP2 MSTORE PUSH1 0x20 ADD PUSH1 0x0 KECCAK256 PUSH1 0xF ADD PUSH1 0x6 SWAP1 SLOAD SWAP1 PUSH2 0x100 EXP SWAP1 DIV PUSH1 0xFF AND ISZERO ISZERO EQ PUSH2 0xE39 JUMPI PUSH1 0x40 MLOAD PUSH32 0x8C379A000000000000000000000000000000000000000000000000000000000 DUP2 MSTORE PUSH1 0x4 ADD PUSH2 0xE30 SWAP1 PUSH2 0x1D22 JUMP JUMPDEST PUSH1 0x40 MLOAD DUP1 SWAP2 SUB SWAP1 REVERT JUMPDEST PUSH1 0x1 PUSH1 0x0 DUP3 PUSH20 0xFFFFFFFFFFFFFFFFFFFFFFFFFFFFFFFFFFFFFFFF AND PUSH20 0xFFFFFFFFFFFFFFFFFFFFFFFFFFFFFFFFFFFFFFFF AND DUP2 MSTORE PUSH1 0x20 ADD SWAP1 DUP2 MSTORE PUSH1 0x20 ADD PUSH1 0x0 KECCAK256 PUSH1 0x0 DUP1 DUP3 ADD PUSH1 0x0 PUSH2 0x100 EXP DUP2 SLOAD SWAP1 PUSH20 0xFFFFFFFFFFFFFFFFFFFFFFFFFFFFFFFFFFFFFFFF MUL NOT AND SWAP1 SSTORE PUSH1 0x1 DUP3 ADD PUSH1 0x0 PUSH2 0x100 EXP DUP2 SLOAD SWAP1 PUSH20 0xFFFFFFFFFFFFFFFFFFFFFFFFFFFFFFFFFFFFFFFF MUL NOT AND SWAP1 SSTORE PUSH1 0x2 DUP3 ADD PUSH1 0x0 PUSH2 0x100 EXP DUP2 SLOAD SWAP1 PUSH20 0xFFFFFFFFFFFFFFFFFFFFFFFFFFFFFFFFFFFFFFFF MUL NOT AND SWAP1 SSTORE PUSH1 0x3 DUP3 ADD PUSH1 0x0 SWAP1 SSTORE PUSH1 0x4 DUP3 ADD PUSH1 0x0 SWAP1 SSTORE PUSH1 0x5 DUP3 ADD PUSH1 0x0 PUSH2 0xF0E SWAP2 SWAP1 PUSH2 0x190D JUMP JUMPDEST PUSH1 0xF DUP3 ADD PUSH1 0x0 PUSH2 0x100 EXP DUP2 SLOAD SWAP1 PUSH4 0xFFFFFFFF MUL NOT AND SWAP1 SSTORE PUSH1 0xF DUP3 ADD PUSH1 0x4 PUSH2 0x100 EXP DUP2 SLOAD SWAP1 PUSH1 0xFF MUL NOT AND SWAP1 SSTORE PUSH1 0xF DUP3 ADD PUSH1 0x5 PUSH2 0x100 EXP DUP2 SLOAD SWAP1 PUSH1 0xFF MUL NOT AND SWAP1 SSTORE PUSH1 0xF DUP3 ADD PUSH1 0x6 PUSH2 0x100 EXP DUP2 SLOAD SWAP1 PUSH1 0xFF MUL NOT AND SWAP1 SSTORE POP POP POP JUMP JUMPDEST PUSH32 0x0 PUSH20 0xFFFFFFFFFFFFFFFFFFFFFFFFFFFFFFFFFFFFFFFF AND CALLER PUSH20 0xFFFFFFFFFFFFFFFFFFFFFFFFFFFFFFFFFFFFFFFF AND EQ PUSH2 0xFBE JUMPI PUSH1 0x0 DUP1 REVERT JUMPDEST PUSH1 0x1 PUSH1 0x0 DUP1 DUP4 PUSH20 0xFFFFFFFFFFFFFFFFFFFFFFFFFFFFFFFFFFFFFFFF AND PUSH20 0xFFFFFFFFFFFFFFFFFFFFFFFFFFFFFFFFFFFFFFFF AND DUP2 MSTORE PUSH1 0x20 ADD SWAP1 DUP2 MSTORE PUSH1 0x20 ADD PUSH1 0x0 KECCAK256 PUSH1 0x0 PUSH2 0x100 EXP DUP2 SLOAD DUP2 PUSH1 0xFF MUL NOT AND SWAP1 DUP4 ISZERO ISZERO MUL OR SWAP1 SSTORE POP POP JUMP JUMPDEST PUSH1 0x1 ISZERO ISZERO PUSH1 0x1 PUSH1 0x0 DUP4 PUSH1 0x20 ADD MLOAD PUSH20 0xFFFFFFFFFFFFFFFFFFFFFFFFFFFFFFFFFFFFFFFF AND PUSH20 0xFFFFFFFFFFFFFFFFFFFFFFFFFFFFFFFFFFFFFFFF AND DUP2 MSTORE PUSH1 0x20 ADD SWAP1 DUP2 MSTORE PUSH1 0x20 ADD PUSH1 0x0 KECCAK256 PUSH1 0xF ADD PUSH1 0x6 SWAP1 SLOAD SWAP1 PUSH2 0x100 EXP SWAP1 DIV PUSH1 0xFF AND ISZERO ISZERO EQ ISZERO PUSH2 0x10B3 JUMPI PUSH1 0x40 MLOAD PUSH32 0x8C379A000000000000000000000000000000000000000000000000000000000 DUP2 MSTORE PUSH1 0x4 ADD PUSH2 0x10AA SWAP1 PUSH2 0x1D22 JUMP JUMPDEST PUSH1 0x40 MLOAD DUP1 SWAP2 SUB SWAP1 REVERT JUMPDEST CALLER PUSH20 0xFFFFFFFFFFFFFFFFFFFFFFFFFFFFFFFFFFFFFFFF AND DUP2 PUSH1 0x20 ADD MLOAD PUSH20 0xFFFFFFFFFFFFFFFFFFFFFFFFFFFFFFFFFFFFFFFF AND EQ PUSH2 0x1125 JUMPI PUSH1 0x40 MLOAD PUSH32 0x8C379A000000000000000000000000000000000000000000000000000000000 DUP2 MSTORE PUSH1 0x4 ADD PUSH2 0x111C SWAP1 PUSH2 0x1D02 JUMP JUMPDEST PUSH1 0x40 MLOAD DUP1 SWAP2 SUB SWAP1 REVERT JUMPDEST PUSH1 0x0 DUP2 PUSH1 0xE0 ADD SWAP1 ISZERO ISZERO SWAP1 DUP2 ISZERO ISZERO DUP2 MSTORE POP POP PUSH1 0x0 DUP2 PUSH2 0x100 ADD SWAP1 ISZERO ISZERO SWAP1 DUP2 ISZERO ISZERO DUP2 MSTORE POP POP DUP1 PUSH1 0x1 PUSH1 0x0 DUP4 PUSH1 0x20 ADD MLOAD PUSH20 0xFFFFFFFFFFFFFFFFFFFFFFFFFFFFFFFFFFFFFFFF AND PUSH20 0xFFFFFFFFFFFFFFFFFFFFFFFFFFFFFFFFFFFFFFFF AND DUP2 MSTORE PUSH1 0x20 ADD SWAP1 DUP2 MSTORE PUSH1 0x20 ADD PUSH1 0x0 KECCAK256 PUSH1 0x0 DUP3 ADD MLOAD DUP2 PUSH1 0x0 ADD PUSH1 0x0 PUSH2 0x100 EXP DUP2 SLOAD DUP2 PUSH20 0xFFFFFFFFFFFFFFFFFFFFFFFFFFFFFFFFFFFFFFFF MUL NOT AND SWAP1 DUP4 PUSH20 0xFFFFFFFFFFFFFFFFFFFFFFFFFFFFFFFFFFFFFFFF AND MUL OR SWAP1 SSTORE POP PUSH1 0x20 DUP3 ADD MLOAD DUP2 PUSH1 0x1 ADD PUSH1 0x0 PUSH2 0x100 EXP DUP2 SLOAD DUP2 PUSH20 0xFFFFFFFFFFFFFFFFFFFFFFFFFFFFFFFFFFFFFFFF MUL NOT AND SWAP1 DUP4 PUSH20 0xFFFFFFFFFFFFFFFFFFFFFFFFFFFFFFFFFFFFFFFF AND MUL OR SWAP1 SSTORE POP PUSH1 0x40 DUP3 ADD MLOAD DUP2 PUSH1 0x2 ADD PUSH1 0x0 PUSH2 0x100 EXP DUP2 SLOAD DUP2 PUSH20 0xFFFFFFFFFFFFFFFFFFFFFFFFFFFFFFFFFFFFFFFF MUL NOT AND SWAP1 DUP4 PUSH20 0xFFFFFFFFFFFFFFFFFFFFFFFFFFFFFFFFFFFFFFFF AND MUL OR SWAP1 SSTORE POP PUSH1 0x60 DUP3 ADD MLOAD DUP2 PUSH1 0x3 ADD SSTORE PUSH1 0x80 DUP3 ADD MLOAD DUP2 PUSH1 0x4 ADD SSTORE PUSH1 0xA0 DUP3 ADD MLOAD DUP2 PUSH1 0x5 ADD SWAP1 PUSH1 0xA PUSH2 0x128C SWAP3 SWAP2 SWAP1 PUSH2 0x18CD JUMP JUMPDEST POP PUSH1 0xC0 DUP3 ADD MLOAD DUP2 PUSH1 0xF ADD PUSH1 0x0 PUSH2 0x100 EXP DUP2 SLOAD DUP2 PUSH4 0xFFFFFFFF MUL NOT AND SWAP1 DUP4 PUSH4 0xFFFFFFFF AND MUL OR SWAP1 SSTORE POP PUSH1 0xE0 DUP3 ADD MLOAD DUP2 PUSH1 0xF ADD PUSH1 0x4 PUSH2 0x100 EXP DUP2 SLOAD DUP2 PUSH1 0xFF MUL NOT AND SWAP1 DUP4 ISZERO ISZERO MUL OR SWAP1 SSTORE POP PUSH2 0x100 DUP3 ADD MLOAD DUP2 PUSH1 0xF ADD PUSH1 0x5 PUSH2 0x100 EXP DUP2 SLOAD DUP2 PUSH1 0xFF MUL NOT AND SWAP1 DUP4 ISZERO ISZERO MUL OR SWAP1 SSTORE POP PUSH2 0x120 DUP3 ADD MLOAD DUP2 PUSH1 0xF ADD PUSH1 0x6 PUSH2 0x100 EXP DUP2 SLOAD DUP2 PUSH1 0xFF MUL NOT AND SWAP1 DUP4 ISZERO ISZERO MUL OR SWAP1 SSTORE POP SWAP1 POP POP POP JUMP JUMPDEST PUSH1 0x1 ISZERO ISZERO PUSH1 0x1 PUSH1 0x0 CALLER PUSH20 0xFFFFFFFFFFFFFFFFFFFFFFFFFFFFFFFFFFFFFFFF AND PUSH20 0xFFFFFFFFFFFFFFFFFFFFFFFFFFFFFFFFFFFFFFFF AND DUP2 MSTORE PUSH1 0x20 ADD SWAP1 DUP2 MSTORE PUSH1 0x20 ADD PUSH1 0x0 KECCAK256 PUSH1 0xF ADD PUSH1 0x4 SWAP1 SLOAD SWAP1 PUSH2 0x100 EXP SWAP1 DIV PUSH1 0xFF AND ISZERO ISZERO EQ PUSH2 0x137C JUMPI PUSH1 0x0 DUP1 REVERT JUMPDEST PUSH1 0x1 ISZERO ISZERO PUSH1 0x1 PUSH1 0x0 CALLER PUSH20 0xFFFFFFFFFFFFFFFFFFFFFFFFFFFFFFFFFFFFFFFF AND PUSH20 0xFFFFFFFFFFFFFFFFFFFFFFFFFFFFFFFFFFFFFFFF AND DUP2 MSTORE PUSH1 0x20 ADD SWAP1 DUP2 MSTORE PUSH1 0x20 ADD PUSH1 0x0 KECCAK256 PUSH1 0xF ADD PUSH1 0x6 SWAP1 SLOAD SWAP1 PUSH2 0x100 EXP SWAP1 DIV PUSH1 0xFF AND ISZERO ISZERO EQ DUP1 ISZERO PUSH2 0x146C JUMPI POP CALLER PUSH20 0xFFFFFFFFFFFFFFFFFFFFFFFFFFFFFFFFFFFFFFFF AND PUSH1 0x1 PUSH1 0x0 CALLER PUSH20 0xFFFFFFFFFFFFFFFFFFFFFFFFFFFFFFFFFFFFFFFF AND PUSH20 0xFFFFFFFFFFFFFFFFFFFFFFFFFFFFFFFFFFFFFFFF AND DUP2 MSTORE PUSH1 0x20 ADD SWAP1 DUP2 MSTORE PUSH1 0x20 ADD PUSH1 0x0 KECCAK256 PUSH1 0x1 ADD PUSH1 0x0 SWAP1 SLOAD SWAP1 PUSH2 0x100 EXP SWAP1 DIV PUSH20 0xFFFFFFFFFFFFFFFFFFFFFFFFFFFFFFFFFFFFFFFF AND PUSH20 0xFFFFFFFFFFFFFFFFFFFFFFFFFFFFFFFFFFFFFFFF AND EQ JUMPDEST PUSH2 0x14AB JUMPI PUSH1 0x40 MLOAD PUSH32 0x8C379A000000000000000000000000000000000000000000000000000000000 DUP2 MSTORE PUSH1 0x4 ADD PUSH2 0x14A2 SWAP1 PUSH2 0x1D42 JUMP JUMPDEST PUSH1 0x40 MLOAD DUP1 SWAP2 SUB SWAP1 REVERT JUMPDEST PUSH1 0x0 PUSH1 0x1 PUSH1 0x0 CALLER PUSH20 0xFFFFFFFFFFFFFFFFFFFFFFFFFFFFFFFFFFFFFFFF AND PUSH20 0xFFFFFFFFFFFFFFFFFFFFFFFFFFFFFFFFFFFFFFFF AND DUP2 MSTORE PUSH1 0x20 ADD SWAP1 DUP2 MSTORE PUSH1 0x20 ADD PUSH1 0x0 KECCAK256 PUSH1 0xF ADD PUSH1 0x5 PUSH2 0x100 EXP DUP2 SLOAD DUP2 PUSH1 0xFF MUL NOT AND SWAP1 DUP4 ISZERO ISZERO MUL OR SWAP1 SSTORE POP JUMP JUMPDEST PUSH1 0x1 ISZERO ISZERO PUSH1 0x1 PUSH1 0x0 CALLER PUSH20 0xFFFFFFFFFFFFFFFFFFFFFFFFFFFFFFFFFFFFFFFF AND PUSH20 0xFFFFFFFFFFFFFFFFFFFFFFFFFFFFFFFFFFFFFFFF AND DUP2 MSTORE PUSH1 0x20 ADD SWAP1 DUP2 MSTORE PUSH1 0x20 ADD PUSH1 0x0 KECCAK256 PUSH1 0xF ADD PUSH1 0x4 SWAP1 SLOAD SWAP1 PUSH2 0x100 EXP SWAP1 DIV PUSH1 0xFF AND ISZERO ISZERO EQ PUSH2 0x1568 JUMPI PUSH1 0x0 DUP1 REVERT JUMPDEST PUSH1 0x1 ISZERO ISZERO PUSH1 0x1 PUSH1 0x0 DUP4 PUSH1 0x20 ADD MLOAD PUSH20 0xFFFFFFFFFFFFFFFFFFFFFFFFFFFFFFFFFFFFFFFF AND PUSH20 0xFFFFFFFFFFFFFFFFFFFFFFFFFFFFFFFFFFFFFFFF AND DUP2 MSTORE PUSH1 0x20 ADD SWAP1 DUP2 MSTORE PUSH1 0x20 ADD PUSH1 0x0 KECCAK256 PUSH1 0xF ADD PUSH1 0x6 SWAP1 SLOAD SWAP1 PUSH2 0x100 EXP SWAP1 DIV PUSH1 0xFF AND ISZERO ISZERO EQ PUSH2 0x1602 JUMPI PUSH1 0x40 MLOAD PUSH32 0x8C379A000000000000000000000000000000000000000000000000000000000 DUP2 MSTORE PUSH1 0x4 ADD PUSH2 0x15F9 SWAP1 PUSH2 0x1D22 JUMP JUMPDEST PUSH1 0x40 MLOAD DUP1 SWAP2 SUB SWAP1 REVERT JUMPDEST CALLER PUSH20 0xFFFFFFFFFFFFFFFFFFFFFFFFFFFFFFFFFFFFFFFF AND PUSH1 0x1 PUSH1 0x0 DUP4 PUSH1 0x20 ADD MLOAD PUSH20 0xFFFFFFFFFFFFFFFFFFFFFFFFFFFFFFFFFFFFFFFF AND PUSH20 0xFFFFFFFFFFFFFFFFFFFFFFFFFFFFFFFFFFFFFFFF AND DUP2 MSTORE PUSH1 0x20 ADD SWAP1 DUP2 MSTORE PUSH1 0x20 ADD PUSH1 0x0 KECCAK256 PUSH1 0x1 ADD PUSH1 0x0 SWAP1 SLOAD SWAP1 PUSH2 0x100 EXP SWAP1 DIV PUSH20 0xFFFFFFFFFFFFFFFFFFFFFFFFFFFFFFFFFFFFFFFF AND PUSH20 0xFFFFFFFFFFFFFFFFFFFFFFFFFFFFFFFFFFFFFFFF AND EQ PUSH2 0x16D6 JUMPI PUSH1 0x40 MLOAD PUSH32 0x8C379A000000000000000000000000000000000000000000000000000000000 DUP2 MSTORE PUSH1 0x4 ADD PUSH2 0x16CD SWAP1 PUSH2 0x1D02 JUMP JUMPDEST PUSH1 0x40 MLOAD DUP1 SWAP2 SUB SWAP1 REVERT JUMPDEST PUSH1 0x0 DUP2 PUSH1 0xE0 ADD SWAP1 ISZERO ISZERO SWAP1 DUP2 ISZERO ISZERO DUP2 MSTORE POP POP PUSH1 0x1 DUP2 PUSH2 0x100 ADD SWAP1 ISZERO ISZERO SWAP1 DUP2 ISZERO ISZERO DUP2 MSTORE POP POP DUP1 PUSH1 0x1 PUSH1 0x0 DUP4 PUSH1 0x20 ADD MLOAD PUSH20 0xFFFFFFFFFFFFFFFFFFFFFFFFFFFFFFFFFFFFFFFF AND PUSH20 0xFFFFFFFFFFFFFFFFFFFFFFFFFFFFFFFFFFFFFFFF AND DUP2 MSTORE PUSH1 0x20 ADD SWAP1 DUP2 MSTORE PUSH1 0x20 ADD PUSH1 0x0 KECCAK256 PUSH1 0x0 DUP3 ADD MLOAD DUP2 PUSH1 0x0 ADD PUSH1 0x0 PUSH2 0x100 EXP DUP2 SLOAD DUP2 PUSH20 0xFFFFFFFFFFFFFFFFFFFFFFFFFFFFFFFFFFFFFFFF MUL NOT AND SWAP1 DUP4 PUSH20 0xFFFFFFFFFFFFFFFFFFFFFFFFFFFFFFFFFFFFFFFF AND MUL OR SWAP1 SSTORE POP PUSH1 0x20 DUP3 ADD MLOAD DUP2 PUSH1 0x1 ADD PUSH1 0x0 PUSH2 0x100 EXP DUP2 SLOAD DUP2 PUSH20 0xFFFFFFFFFFFFFFFFFFFFFFFFFFFFFFFFFFFFFFFF MUL NOT AND SWAP1 DUP4 PUSH20 0xFFFFFFFFFFFFFFFFFFFFFFFFFFFFFFFFFFFFFFFF AND MUL OR SWAP1 SSTORE POP PUSH1 0x40 DUP3 ADD MLOAD DUP2 PUSH1 0x2 ADD PUSH1 0x0 PUSH2 0x100 EXP DUP2 SLOAD DUP2 PUSH20 0xFFFFFFFFFFFFFFFFFFFFFFFFFFFFFFFFFFFFFFFF MUL NOT AND SWAP1 DUP4 PUSH20 0xFFFFFFFFFFFFFFFFFFFFFFFFFFFFFFFFFFFFFFFF AND MUL OR SWAP1 SSTORE POP PUSH1 0x60 DUP3 ADD MLOAD DUP2 PUSH1 0x3 ADD SSTORE PUSH1 0x80 DUP3 ADD MLOAD DUP2 PUSH1 0x4 ADD SSTORE PUSH1 0xA0 DUP3 ADD MLOAD DUP2 PUSH1 0x5 ADD SWAP1 PUSH1 0xA PUSH2 0x183D SWAP3 SWAP2 SWAP1 PUSH2 0x18CD JUMP JUMPDEST POP PUSH1 0xC0 DUP3 ADD MLOAD DUP2 PUSH1 0xF ADD PUSH1 0x0 PUSH2 0x100 EXP DUP2 SLOAD DUP2 PUSH4 0xFFFFFFFF MUL NOT AND SWAP1 DUP4 PUSH4 0xFFFFFFFF AND MUL OR SWAP1 SSTORE POP PUSH1 0xE0 DUP3 ADD MLOAD DUP2 PUSH1 0xF ADD PUSH1 0x4 PUSH2 0x100 EXP DUP2 SLOAD DUP2 PUSH1 0xFF MUL NOT AND SWAP1 DUP4 ISZERO ISZERO MUL OR SWAP1 SSTORE POP PUSH2 0x100 DUP3 ADD MLOAD DUP2 PUSH1 0xF ADD PUSH1 0x5 PUSH2 0x100 EXP DUP2 SLOAD DUP2 PUSH1 0xFF MUL NOT AND SWAP1 DUP4 ISZERO ISZERO MUL OR SWAP1 SSTORE POP PUSH2 0x120 DUP3 ADD MLOAD DUP2 PUSH1 0xF ADD PUSH1 0x6 PUSH2 0x100 EXP DUP2 SLOAD DUP2 PUSH1 0xFF MUL NOT AND SWAP1 DUP4 ISZERO ISZERO MUL OR SWAP1 SSTORE POP SWAP1 POP POP POP JUMP JUMPDEST DUP3 PUSH1 0xA DUP2 ADD SWAP3 DUP3 ISZERO PUSH2 0x18FC JUMPI SWAP2 PUSH1 0x20 MUL DUP3 ADD JUMPDEST DUP3 DUP2 GT ISZERO PUSH2 0x18FB JUMPI DUP3 MLOAD DUP3 SSTORE SWAP2 PUSH1 0x20 ADD SWAP2 SWAP1 PUSH1 0x1 ADD SWAP1 PUSH2 0x18E0 JUMP JUMPDEST JUMPDEST POP SWAP1 POP PUSH2 0x1909 SWAP2 SWAP1 PUSH2 0x1920 JUMP JUMPDEST POP SWAP1 JUMP JUMPDEST POP DUP1 PUSH1 0xA ADD SWAP1 PUSH2 0x191D SWAP2 SWAP1 PUSH2 0x1920 JUMP JUMPDEST POP JUMP JUMPDEST JUMPDEST DUP1 DUP3 GT ISZERO PUSH2 0x1939 JUMPI PUSH1 0x0 DUP2 PUSH1 0x0 SWAP1 SSTORE POP PUSH1 0x1 ADD PUSH2 0x1921 JUMP JUMPDEST POP SWAP1 JUMP JUMPDEST PUSH1 0x0 PUSH2 0x1950 PUSH2 0x194B DUP5 PUSH2 0x1D87 JUMP JUMPDEST PUSH2 0x1D62 JUMP JUMPDEST SWAP1 POP DUP1 DUP3 DUP6 PUSH1 0x20 DUP7 MUL DUP3 ADD GT ISZERO PUSH2 0x196A JUMPI PUSH2 0x1969 PUSH2 0x1E80 JUMP JUMPDEST JUMPDEST PUSH1 0x0 JUMPDEST DUP6 DUP2 LT ISZERO PUSH2 0x199A JUMPI DUP2 PUSH2 0x1980 DUP9 DUP3 PUSH2 0x19F9 JUMP JUMPDEST DUP5 MSTORE PUSH1 0x20 DUP5 ADD SWAP4 POP PUSH1 0x20 DUP4 ADD SWAP3 POP POP PUSH1 0x1 DUP2 ADD SWAP1 POP PUSH2 0x196D JUMP JUMPDEST POP POP POP SWAP4 SWAP3 POP POP POP JUMP JUMPDEST PUSH1 0x0 DUP2 CALLDATALOAD SWAP1 POP PUSH2 0x19B3 DUP2 PUSH2 0x1F16 JUMP JUMPDEST SWAP3 SWAP2 POP POP JUMP JUMPDEST PUSH1 0x0 DUP3 PUSH1 0x1F DUP4 ADD SLT PUSH2 0x19CE JUMPI PUSH2 0x19CD PUSH2 0x1E76 JUMP JUMPDEST JUMPDEST PUSH1 0xA PUSH2 0x19DB DUP5 DUP3 DUP6 PUSH2 0x193D JUMP JUMPDEST SWAP2 POP POP SWAP3 SWAP2 POP POP JUMP JUMPDEST PUSH1 0x0 DUP2 CALLDATALOAD SWAP1 POP PUSH2 0x19F3 DUP2 PUSH2 0x1F2D JUMP JUMPDEST SWAP3 SWAP2 POP POP JUMP JUMPDEST PUSH1 0x0 DUP2 CALLDATALOAD SWAP1 POP PUSH2 0x1A08 DUP2 PUSH2 0x1F44 JUMP JUMPDEST SWAP3 SWAP2 POP POP JUMP JUMPDEST PUSH1 0x0 PUSH2 0x260 DUP3 DUP5 SUB SLT ISZERO PUSH2 0x1A25 JUMPI PUSH2 0x1A24 PUSH2 0x1E7B JUMP JUMPDEST JUMPDEST PUSH2 0x1A30 PUSH2 0x140 PUSH2 0x1D62 JUMP JUMPDEST SWAP1 POP PUSH1 0x0 PUSH2 0x1A40 DUP5 DUP3 DUP6 ADD PUSH2 0x19A4 JUMP JUMPDEST PUSH1 0x0 DUP4 ADD MSTORE POP PUSH1 0x20 PUSH2 0x1A54 DUP5 DUP3 DUP6 ADD PUSH2 0x19A4 JUMP JUMPDEST PUSH1 0x20 DUP4 ADD MSTORE POP PUSH1 0x40 PUSH2 0x1A68 DUP5 DUP3 DUP6 ADD PUSH2 0x1B06 JUMP JUMPDEST PUSH1 0x40 DUP4 ADD MSTORE POP PUSH1 0x60 PUSH2 0x1A7C DUP5 DUP3 DUP6 ADD PUSH2 0x19F9 JUMP JUMPDEST PUSH1 0x60 DUP4 ADD MSTORE POP PUSH1 0x80 PUSH2 0x1A90 DUP5 DUP3 DUP6 ADD PUSH2 0x19F9 JUMP JUMPDEST PUSH1 0x80 DUP4 ADD MSTORE POP PUSH1 0xA0 PUSH2 0x1AA4 DUP5 DUP3 DUP6 ADD PUSH2 0x19B9 JUMP JUMPDEST PUSH1 0xA0 DUP4 ADD MSTORE POP PUSH2 0x1E0 PUSH2 0x1AB9 DUP5 DUP3 DUP6 ADD PUSH2 0x1B1B JUMP JUMPDEST PUSH1 0xC0 DUP4 ADD MSTORE POP PUSH2 0x200 PUSH2 0x1ACE DUP5 DUP3 DUP6 ADD PUSH2 0x19E4 JUMP JUMPDEST PUSH1 0xE0 DUP4 ADD MSTORE POP PUSH2 0x220 PUSH2 0x1AE3 DUP5 DUP3 DUP6 ADD PUSH2 0x19E4 JUMP JUMPDEST PUSH2 0x100 DUP4 ADD MSTORE POP PUSH2 0x240 PUSH2 0x1AF9 DUP5 DUP3 DUP6 ADD PUSH2 0x19E4 JUMP JUMPDEST PUSH2 0x120 DUP4 ADD MSTORE POP SWAP3 SWAP2 POP POP JUMP JUMPDEST PUSH1 0x0 DUP2 CALLDATALOAD SWAP1 POP PUSH2 0x1B15 DUP2 PUSH2 0x1F5B JUMP JUMPDEST SWAP3 SWAP2 POP POP JUMP JUMPDEST PUSH1 0x0 DUP2 CALLDATALOAD SWAP1 POP PUSH2 0x1B2A DUP2 PUSH2 0x1F72 JUMP JUMPDEST SWAP3 SWAP2 POP POP JUMP JUMPDEST PUSH1 0x0 PUSH1 0x20 DUP3 DUP5 SUB SLT ISZERO PUSH2 0x1B46 JUMPI PUSH2 0x1B45 PUSH2 0x1E85 JUMP JUMPDEST JUMPDEST PUSH1 0x0 PUSH2 0x1B54 DUP5 DUP3 DUP6 ADD PUSH2 0x19A4 JUMP JUMPDEST SWAP2 POP POP SWAP3 SWAP2 POP POP JUMP JUMPDEST PUSH1 0x0 PUSH2 0x260 DUP3 DUP5 SUB SLT ISZERO PUSH2 0x1B74 JUMPI PUSH2 0x1B73 PUSH2 0x1E85 JUMP JUMPDEST JUMPDEST PUSH1 0x0 PUSH2 0x1B82 DUP5 DUP3 DUP6 ADD PUSH2 0x1A0E JUMP JUMPDEST SWAP2 POP POP SWAP3 SWAP2 POP POP JUMP JUMPDEST PUSH2 0x1B94 DUP2 PUSH2 0x1DBE JUMP JUMPDEST DUP3 MSTORE POP POP JUMP JUMPDEST PUSH2 0x1BA3 DUP2 PUSH2 0x1DD0 JUMP JUMPDEST DUP3 MSTORE POP POP JUMP JUMPDEST PUSH2 0x1BB2 DUP2 PUSH2 0x1DDC JUMP JUMPDEST DUP3 MSTORE POP POP JUMP JUMPDEST PUSH1 0x0 PUSH2 0x1BC5 PUSH1 0x11 DUP4 PUSH2 0x1DAD JUMP JUMPDEST SWAP2 POP PUSH2 0x1BD0 DUP3 PUSH2 0x1E9B JUMP JUMPDEST PUSH1 0x20 DUP3 ADD SWAP1 POP SWAP2 SWAP1 POP JUMP JUMPDEST PUSH1 0x0 PUSH2 0x1BE8 PUSH1 0x14 DUP4 PUSH2 0x1DAD JUMP JUMPDEST SWAP2 POP PUSH2 0x1BF3 DUP3 PUSH2 0x1EC4 JUMP JUMPDEST PUSH1 0x20 DUP3 ADD SWAP1 POP SWAP2 SWAP1 POP JUMP JUMPDEST PUSH1 0x0 PUSH2 0x1C0B PUSH1 0x15 DUP4 PUSH2 0x1DAD JUMP JUMPDEST SWAP2 POP PUSH2 0x1C16 DUP3 PUSH2 0x1EED JUMP JUMPDEST PUSH1 0x20 DUP3 ADD SWAP1 POP SWAP2 SWAP1 POP JUMP JUMPDEST PUSH2 0x1C2A DUP2 PUSH2 0x1DE6 JUMP JUMPDEST DUP3 MSTORE POP POP JUMP JUMPDEST PUSH2 0x1C39 DUP2 PUSH2 0x1E06 JUMP JUMPDEST DUP3 MSTORE POP POP JUMP JUMPDEST PUSH1 0x0 PUSH1 0x20 DUP3 ADD SWAP1 POP PUSH2 0x1C54 PUSH1 0x0 DUP4 ADD DUP5 PUSH2 0x1B8B JUMP JUMPDEST SWAP3 SWAP2 POP POP JUMP JUMPDEST PUSH1 0x0 PUSH2 0x120 DUP3 ADD SWAP1 POP PUSH2 0x1C70 PUSH1 0x0 DUP4 ADD DUP13 PUSH2 0x1B8B JUMP JUMPDEST PUSH2 0x1C7D PUSH1 0x20 DUP4 ADD DUP12 PUSH2 0x1B8B JUMP JUMPDEST PUSH2 0x1C8A PUSH1 0x40 DUP4 ADD DUP11 PUSH2 0x1C21 JUMP JUMPDEST PUSH2 0x1C97 PUSH1 0x60 DUP4 ADD DUP10 PUSH2 0x1BA9 JUMP JUMPDEST PUSH2 0x1CA4 PUSH1 0x80 DUP4 ADD DUP9 PUSH2 0x1BA9 JUMP JUMPDEST PUSH2 0x1CB1 PUSH1 0xA0 DUP4 ADD DUP8 PUSH2 0x1C30 JUMP JUMPDEST PUSH2 0x1CBE PUSH1 0xC0 DUP4 ADD DUP7 PUSH2 0x1B9A JUMP JUMPDEST PUSH2 0x1CCB PUSH1 0xE0 DUP4 ADD DUP6 PUSH2 0x1B9A JUMP JUMPDEST PUSH2 0x1CD9 PUSH2 0x100 DUP4 ADD DUP5 PUSH2 0x1B9A JUMP JUMPDEST SWAP11 SWAP10 POP POP POP POP POP POP POP POP POP POP JUMP JUMPDEST PUSH1 0x0 PUSH1 0x20 DUP3 ADD SWAP1 POP PUSH2 0x1CFC PUSH1 0x0 DUP4 ADD DUP5 PUSH2 0x1B9A JUMP JUMPDEST SWAP3 SWAP2 POP POP JUMP JUMPDEST PUSH1 0x0 PUSH1 0x20 DUP3 ADD SWAP1 POP DUP2 DUP2 SUB PUSH1 0x0 DUP4 ADD MSTORE PUSH2 0x1D1B DUP2 PUSH2 0x1BB8 JUMP JUMPDEST SWAP1 POP SWAP2 SWAP1 POP JUMP JUMPDEST PUSH1 0x0 PUSH1 0x20 DUP3 ADD SWAP1 POP DUP2 DUP2 SUB PUSH1 0x0 DUP4 ADD MSTORE PUSH2 0x1D3B DUP2 PUSH2 0x1BDB JUMP JUMPDEST SWAP1 POP SWAP2 SWAP1 POP JUMP JUMPDEST PUSH1 0x0 PUSH1 0x20 DUP3 ADD SWAP1 POP DUP2 DUP2 SUB PUSH1 0x0 DUP4 ADD MSTORE PUSH2 0x1D5B DUP2 PUSH2 0x1BFE JUMP JUMPDEST SWAP1 POP SWAP2 SWAP1 POP JUMP JUMPDEST PUSH1 0x0 PUSH2 0x1D6C PUSH2 0x1D7D JUMP JUMPDEST SWAP1 POP PUSH2 0x1D78 DUP3 DUP3 PUSH2 0x1E16 JUMP JUMPDEST SWAP2 SWAP1 POP JUMP JUMPDEST PUSH1 0x0 PUSH1 0x40 MLOAD SWAP1 POP SWAP1 JUMP JUMPDEST PUSH1 0x0 PUSH8 0xFFFFFFFFFFFFFFFF DUP3 GT ISZERO PUSH2 0x1DA2 JUMPI PUSH2 0x1DA1 PUSH2 0x1E47 JUMP JUMPDEST JUMPDEST PUSH1 0x20 DUP3 MUL SWAP1 POP SWAP2 SWAP1 POP JUMP JUMPDEST PUSH1 0x0 DUP3 DUP3 MSTORE PUSH1 0x20 DUP3 ADD SWAP1 POP SWAP3 SWAP2 POP POP JUMP JUMPDEST PUSH1 0x0 PUSH2 0x1DC9 DUP3 PUSH2 0x1DE6 JUMP JUMPDEST SWAP1 POP SWAP2 SWAP1 POP JUMP JUMPDEST PUSH1 0x0 DUP2 ISZERO ISZERO SWAP1 POP SWAP2 SWAP1 POP JUMP JUMPDEST PUSH1 0x0 DUP2 SWAP1 POP SWAP2 SWAP1 POP JUMP JUMPDEST PUSH1 0x0 PUSH20 0xFFFFFFFFFFFFFFFFFFFFFFFFFFFFFFFFFFFFFFFF DUP3 AND SWAP1 POP SWAP2 SWAP1 POP JUMP JUMPDEST PUSH1 0x0 PUSH4 0xFFFFFFFF DUP3 AND SWAP1 POP SWAP2 SWAP1 POP JUMP JUMPDEST PUSH2 0x1E1F DUP3 PUSH2 0x1E8A JUMP JUMPDEST DUP2 ADD DUP2 DUP2 LT PUSH8 0xFFFFFFFFFFFFFFFF DUP3 GT OR ISZERO PUSH2 0x1E3E JUMPI PUSH2 0x1E3D PUSH2 0x1E47 JUMP JUMPDEST JUMPDEST DUP1 PUSH1 0x40 MSTORE POP POP POP JUMP JUMPDEST PUSH32 0x4E487B7100000000000000000000000000000000000000000000000000000000 PUSH1 0x0 MSTORE PUSH1 0x41 PUSH1 0x4 MSTORE PUSH1 0x24 PUSH1 0x0 REVERT JUMPDEST PUSH1 0x0 DUP1 REVERT JUMPDEST PUSH1 0x0 DUP1 REVERT JUMPDEST PUSH1 0x0 DUP1 REVERT JUMPDEST PUSH1 0x0 DUP1 REVERT JUMPDEST PUSH1 0x0 PUSH1 0x1F NOT PUSH1 0x1F DUP4 ADD AND SWAP1 POP SWAP2 SWAP1 POP JUMP JUMPDEST PUSH32 0x74686520676174657220697320796F7572000000000000000000000000000000 PUSH1 0x0 DUP3 ADD MSTORE POP JUMP JUMPDEST PUSH32 0x7468652067617465722069732065786973746572000000000000000000000000 PUSH1 0x0 DUP3 ADD MSTORE POP JUMP JUMPDEST PUSH32 0x7468652067617465722069736E6F742065786973740000000000000000000000 PUSH1 0x0 DUP3 ADD MSTORE POP JUMP JUMPDEST PUSH2 0x1F1F DUP2 PUSH2 0x1DBE JUMP JUMPDEST DUP2 EQ PUSH2 0x1F2A JUMPI PUSH1 0x0 DUP1 REVERT JUMPDEST POP JUMP JUMPDEST PUSH2 0x1F36 DUP2 PUSH2 0x1DD0 JUMP JUMPDEST DUP2 EQ PUSH2 0x1F41 JUMPI PUSH1 0x0 DUP1 REVERT JUMPDEST POP JUMP JUMPDEST PUSH2 0x1F4D DUP2 PUSH2 0x1DDC JUMP JUMPDEST DUP2 EQ PUSH2 0x1F58 JUMPI PUSH1 0x0 DUP1 REVERT JUMPDEST POP JUMP JUMPDEST PUSH2 0x1F64 DUP2 PUSH2 0x1DE6 JUMP JUMPDEST DUP2 EQ PUSH2 0x1F6F JUMPI PUSH1 0x0 DUP1 REVERT JUMPDEST POP JUMP JUMPDEST PUSH2 0x1F7B DUP2 PUSH2 0x1E06 JUMP JUMPDEST DUP2 EQ PUSH2 0x1F86 JUMPI PUSH1 0x0 DUP1 REVERT JUMPDEST POP JUMP INVALID LOG2 PUSH5 0x6970667358 0x22 SLT KECCAK256 0x22 GASPRICE 0xC1 0xAD 0x5E PUSH13 0xCC58DB1AE0695037AFC8BE9526 SWAP4 DUP16 PUSH9 0x83B1D606F9E7220E09 DIFFICULTY PUSH5 0x736F6C6343 STOP ADDMOD SMOD STOP CALLER "
				},
				"gasEstimates": {
					"creation": {
						"codeDepositCost": "1625400",
						"executionCost": "infinite",
						"totalCost": "infinite"
					},
					"external": {
						"addGater((address,address,uint160,bytes32,bytes32,bytes32[10],uint32,bool,bool,bool))": "infinite",
						"delGatebyMarketor(address)": "infinite",
						"delMarketManager(address)": "infinite",
						"gateList(address)": "infinite",
						"isValidGater()": "2691",
						"ismarketManager()": "2592",
						"lockGatebyGater()": "31484",
						"lockGatebyMarketor(address)": "29490",
						"marketCreator()": "infinite",
						"marketManagers(address)": "2934",
						"setMarketManager(address)": "infinite",
						"unlockGatebyGater()": "31527",
						"unlockGatebyMarketor(address)": "29468",
						"updateGatebyGator((address,address,uint160,bytes32,bytes32,bytes32[10],uint32,bool,bool,bool))": "infinite",
						"updateGatebyMarketor((address,address,uint160,bytes32,bytes32,bytes32[10],uint32,bool,bool,bool))": "infinite"
					}
				},
				"methodIdentifiers": {
					"addGater((address,address,uint160,bytes32,bytes32,bytes32[10],uint32,bool,bool,bool))": "d8feb7ff",
					"delGatebyMarketor(address)": "b614984d",
					"delMarketManager(address)": "2b890543",
					"gateList(address)": "45df4987",
					"isValidGater()": "ab3acb5c",
					"ismarketManager()": "1487f252",
					"lockGatebyGater()": "3bbae141",
					"lockGatebyMarketor(address)": "a4786088",
					"marketCreator()": "27cbaabe",
					"marketManagers(address)": "753c5188",
					"setMarketManager(address)": "d82aff11",
					"unlockGatebyGater()": "f1c9f40f",
					"unlockGatebyMarketor(address)": "76941300",
					"updateGatebyGator((address,address,uint160,bytes32,bytes32,bytes32[10],uint32,bool,bool,bool))": "f3a42537",
					"updateGatebyMarketor((address,address,uint160,bytes32,bytes32,bytes32[10],uint32,bool,bool,bool))": "71271f4d"
				}
			},
			"storageLayout": {
				"storage": [
					{
						"astId": 777,
						"contract": "Contracts/MoonV1Gater.sol:MoonV1Gater",
						"label": "marketManagers",
						"offset": 0,
						"slot": "0",
						"type": "t_mapping(t_address,t_bool)"
					},
					{
						"astId": 452,
						"contract": "Contracts/MoonV1Gater.sol:MoonV1Gater",
						"label": "gateList",
						"offset": 0,
						"slot": "1",
						"type": "t_mapping(t_address,t_struct(Info)900_storage)"
					}
				],
				"types": {
					"t_address": {
						"encoding": "inplace",
						"label": "address",
						"numberOfBytes": "20"
					},
					"t_array(t_bytes32)10_storage": {
						"base": "t_bytes32",
						"encoding": "inplace",
						"label": "bytes32[10]",
						"numberOfBytes": "320"
					},
					"t_bool": {
						"encoding": "inplace",
						"label": "bool",
						"numberOfBytes": "1"
					},
					"t_bytes32": {
						"encoding": "inplace",
						"label": "bytes32",
						"numberOfBytes": "32"
					},
					"t_mapping(t_address,t_bool)": {
						"encoding": "mapping",
						"key": "t_address",
						"label": "mapping(address => bool)",
						"numberOfBytes": "32",
						"value": "t_bool"
					},
					"t_mapping(t_address,t_struct(Info)900_storage)": {
						"encoding": "mapping",
						"key": "t_address",
						"label": "mapping(address => struct LGate.Info)",
						"numberOfBytes": "32",
						"value": "t_struct(Info)900_storage"
					},
					"t_struct(Info)900_storage": {
						"encoding": "inplace",
						"label": "struct LGate.Info",
						"members": [
							{
								"astId": 879,
								"contract": "Contracts/MoonV1Gater.sol:MoonV1Gater",
								"label": "market",
								"offset": 0,
								"slot": "0",
								"type": "t_address"
							},
							{
								"astId": 881,
								"contract": "Contracts/MoonV1Gater.sol:MoonV1Gater",
								"label": "gateAddress",
								"offset": 0,
								"slot": "1",
								"type": "t_address"
							},
							{
								"astId": 883,
								"contract": "Contracts/MoonV1Gater.sol:MoonV1Gater",
								"label": "authority",
								"offset": 0,
								"slot": "2",
								"type": "t_uint160"
							},
							{
								"astId": 885,
								"contract": "Contracts/MoonV1Gater.sol:MoonV1Gater",
								"label": "name",
								"offset": 0,
								"slot": "3",
								"type": "t_bytes32"
							},
							{
								"astId": 887,
								"contract": "Contracts/MoonV1Gater.sol:MoonV1Gater",
								"label": "website",
								"offset": 0,
								"slot": "4",
								"type": "t_bytes32"
							},
							{
								"astId": 891,
								"contract": "Contracts/MoonV1Gater.sol:MoonV1Gater",
								"label": "webserverip",
								"offset": 0,
								"slot": "5",
								"type": "t_array(t_bytes32)10_storage"
							},
							{
								"astId": 893,
								"contract": "Contracts/MoonV1Gater.sol:MoonV1Gater",
								"label": "createtimestamp",
								"offset": 0,
								"slot": "15",
								"type": "t_uint32"
							},
							{
								"astId": 895,
								"contract": "Contracts/MoonV1Gater.sol:MoonV1Gater",
								"label": "marketunlock",
								"offset": 4,
								"slot": "15",
								"type": "t_bool"
							},
							{
								"astId": 897,
								"contract": "Contracts/MoonV1Gater.sol:MoonV1Gater",
								"label": "unlock",
								"offset": 5,
								"slot": "15",
								"type": "t_bool"
							},
							{
								"astId": 899,
								"contract": "Contracts/MoonV1Gater.sol:MoonV1Gater",
								"label": "isUsed",
								"offset": 6,
								"slot": "15",
								"type": "t_bool"
							}
						],
						"numberOfBytes": "512"
					},
					"t_uint160": {
						"encoding": "inplace",
						"label": "uint160",
						"numberOfBytes": "20"
					},
					"t_uint32": {
						"encoding": "inplace",
						"label": "uint32",
						"numberOfBytes": "4"
					}
				}
			},
			"userdoc": {
				"kind": "user",
				"methods": {
					"delMarketManager(address)": {
						"notice": "Explain to an end user what this does"
					},
					"ismarketManager()": {
						"notice": "Explain to an end user what this does"
					},
					"setMarketManager(address)": {
						"notice": "Explain to an end user what this does"
					}
				},
				"version": 1
			}
		}
	}
}