{
	"Contracts/TTSwapV1Gator.sol": {
		"TTSwapV1Gator": {
			"abi": [
				{
					"inputs": [
						{
							"internalType": "address",
							"name": "_marketorContractAddress",
							"type": "address"
						},
						{
							"internalType": "address",
							"name": "_marketCreator",
							"type": "address"
						}
					],
					"stateMutability": "nonpayable",
					"type": "constructor"
				},
				{
					"anonymous": false,
					"inputs": [
						{
							"indexed": false,
							"internalType": "address",
							"name": "gateAddress",
							"type": "address"
						},
						{
							"indexed": false,
							"internalType": "string",
							"name": "name",
							"type": "string"
						}
					],
					"name": "e_addGater",
					"type": "event"
				},
				{
					"anonymous": false,
					"inputs": [
						{
							"indexed": false,
							"internalType": "address",
							"name": "gateAddress",
							"type": "address"
						},
						{
							"indexed": false,
							"internalType": "address",
							"name": "marketoraddress",
							"type": "address"
						}
					],
					"name": "e_delGatebyMarketor",
					"type": "event"
				},
				{
					"anonymous": false,
					"inputs": [
						{
							"indexed": false,
							"internalType": "address",
							"name": "gateAddress",
							"type": "address"
						}
					],
					"name": "e_lockGatebyGater",
					"type": "event"
				},
				{
					"anonymous": false,
					"inputs": [
						{
							"indexed": false,
							"internalType": "address",
							"name": "gateAddress",
							"type": "address"
						},
						{
							"indexed": false,
							"internalType": "address",
							"name": "marketoraddress",
							"type": "address"
						}
					],
					"name": "e_lockGatebyMarketor",
					"type": "event"
				},
				{
					"anonymous": false,
					"inputs": [
						{
							"indexed": false,
							"internalType": "address",
							"name": "gateAddress",
							"type": "address"
						}
					],
					"name": "e_unlockGatebyGater",
					"type": "event"
				},
				{
					"anonymous": false,
					"inputs": [
						{
							"indexed": false,
							"internalType": "address",
							"name": "gateAddress",
							"type": "address"
						},
						{
							"indexed": false,
							"internalType": "address",
							"name": "marketoraddress",
							"type": "address"
						}
					],
					"name": "e_unlockGatebyMarketor",
					"type": "event"
				},
				{
					"anonymous": false,
					"inputs": [
						{
							"indexed": false,
							"internalType": "address",
							"name": "gateAddress",
							"type": "address"
						},
						{
							"indexed": false,
							"internalType": "string",
							"name": "name",
							"type": "string"
						}
					],
					"name": "e_updateGatebyGator",
					"type": "event"
				},
				{
					"anonymous": false,
					"inputs": [
						{
							"indexed": false,
							"internalType": "address",
							"name": "gateAddress",
							"type": "address"
						},
						{
							"indexed": false,
							"internalType": "string",
							"name": "name",
							"type": "string"
						},
						{
							"indexed": false,
							"internalType": "address",
							"name": "marketoraddress",
							"type": "address"
						}
					],
					"name": "e_updateGatebyMarketor",
					"type": "event"
				},
				{
					"inputs": [
						{
							"components": [
								{
									"internalType": "uint128",
									"name": "gateNo",
									"type": "uint128"
								},
								{
									"internalType": "address",
									"name": "gateAddress",
									"type": "address"
								},
								{
									"internalType": "string",
									"name": "name",
									"type": "string"
								},
								{
									"internalType": "uint256",
									"name": "createtimestamp",
									"type": "uint256"
								},
								{
									"internalType": "bool",
									"name": "marketunlock",
									"type": "bool"
								},
								{
									"internalType": "bool",
									"name": "gateunlock",
									"type": "bool"
								},
								{
									"internalType": "bool",
									"name": "isUsed",
									"type": "bool"
								}
							],
							"internalType": "struct LGate.Info",
							"name": "_gator",
							"type": "tuple"
						}
					],
					"name": "addGater",
					"outputs": [],
					"stateMutability": "nonpayable",
					"type": "function"
				},
				{
					"inputs": [
						{
							"internalType": "address",
							"name": "_gator",
							"type": "address"
						}
					],
					"name": "delGatebyMarketor",
					"outputs": [],
					"stateMutability": "nonpayable",
					"type": "function"
				},
				{
					"inputs": [
						{
							"internalType": "address",
							"name": "",
							"type": "address"
						}
					],
					"name": "gateList",
					"outputs": [
						{
							"internalType": "uint128",
							"name": "gateNo",
							"type": "uint128"
						},
						{
							"internalType": "address",
							"name": "gateAddress",
							"type": "address"
						},
						{
							"internalType": "string",
							"name": "name",
							"type": "string"
						},
						{
							"internalType": "uint256",
							"name": "createtimestamp",
							"type": "uint256"
						},
						{
							"internalType": "bool",
							"name": "marketunlock",
							"type": "bool"
						},
						{
							"internalType": "bool",
							"name": "gateunlock",
							"type": "bool"
						},
						{
							"internalType": "bool",
							"name": "isUsed",
							"type": "bool"
						}
					],
					"stateMutability": "view",
					"type": "function"
				},
				{
					"inputs": [
						{
							"internalType": "uint128",
							"name": "",
							"type": "uint128"
						}
					],
					"name": "gateNumbers",
					"outputs": [
						{
							"internalType": "address",
							"name": "",
							"type": "address"
						}
					],
					"stateMutability": "view",
					"type": "function"
				},
				{
					"inputs": [
						{
							"internalType": "uint8",
							"name": "_gateNumber",
							"type": "uint8"
						}
					],
					"name": "getGaterInfo",
					"outputs": [
						{
							"components": [
								{
									"internalType": "uint128",
									"name": "gateNo",
									"type": "uint128"
								},
								{
									"internalType": "address",
									"name": "gateAddress",
									"type": "address"
								},
								{
									"internalType": "string",
									"name": "name",
									"type": "string"
								},
								{
									"internalType": "uint256",
									"name": "createtimestamp",
									"type": "uint256"
								},
								{
									"internalType": "bool",
									"name": "marketunlock",
									"type": "bool"
								},
								{
									"internalType": "bool",
									"name": "gateunlock",
									"type": "bool"
								},
								{
									"internalType": "bool",
									"name": "isUsed",
									"type": "bool"
								}
							],
							"internalType": "struct LGate.Info",
							"name": "",
							"type": "tuple"
						}
					],
					"stateMutability": "view",
					"type": "function"
				},
				{
					"inputs": [
						{
							"internalType": "address",
							"name": "_gateAddress",
							"type": "address"
						}
					],
					"name": "getGaterNo",
					"outputs": [
						{
							"internalType": "uint128",
							"name": "",
							"type": "uint128"
						}
					],
					"stateMutability": "view",
					"type": "function"
				},
				{
					"inputs": [],
					"name": "getGaterNo",
					"outputs": [
						{
							"internalType": "uint128",
							"name": "",
							"type": "uint128"
						}
					],
					"stateMutability": "view",
					"type": "function"
				},
				{
					"inputs": [],
					"name": "getMaxGateNumber",
					"outputs": [
						{
							"internalType": "uint128",
							"name": "",
							"type": "uint128"
						}
					],
					"stateMutability": "view",
					"type": "function"
				},
				{
					"inputs": [],
					"name": "isValidGator",
					"outputs": [
						{
							"internalType": "bool",
							"name": "",
							"type": "bool"
						}
					],
					"stateMutability": "view",
					"type": "function"
				},
				{
					"inputs": [
						{
							"internalType": "address",
							"name": "vgaddress",
							"type": "address"
						}
					],
					"name": "isValidGator",
					"outputs": [
						{
							"internalType": "bool",
							"name": "",
							"type": "bool"
						}
					],
					"stateMutability": "view",
					"type": "function"
				},
				{
					"inputs": [],
					"name": "lockGatebyGater",
					"outputs": [],
					"stateMutability": "nonpayable",
					"type": "function"
				},
				{
					"inputs": [
						{
							"internalType": "address",
							"name": "_gatoraddress",
							"type": "address"
						}
					],
					"name": "lockGatebyMarketor",
					"outputs": [],
					"stateMutability": "nonpayable",
					"type": "function"
				},
				{
					"inputs": [],
					"name": "marketCreator",
					"outputs": [
						{
							"internalType": "address",
							"name": "",
							"type": "address"
						}
					],
					"stateMutability": "view",
					"type": "function"
				},
				{
					"inputs": [],
					"name": "marketorContractAddress",
					"outputs": [
						{
							"internalType": "address",
							"name": "",
							"type": "address"
						}
					],
					"stateMutability": "view",
					"type": "function"
				},
				{
					"inputs": [],
					"name": "maxGateNumbers",
					"outputs": [
						{
							"internalType": "uint128",
							"name": "",
							"type": "uint128"
						}
					],
					"stateMutability": "view",
					"type": "function"
				},
				{
					"inputs": [],
					"name": "unlockGatebyGater",
					"outputs": [],
					"stateMutability": "nonpayable",
					"type": "function"
				},
				{
					"inputs": [
						{
							"internalType": "address",
							"name": "_gatoraddress",
							"type": "address"
						}
					],
					"name": "unlockGatebyMarketor",
					"outputs": [],
					"stateMutability": "nonpayable",
					"type": "function"
				},
				{
					"inputs": [
						{
							"components": [
								{
									"internalType": "uint128",
									"name": "gateNo",
									"type": "uint128"
								},
								{
									"internalType": "address",
									"name": "gateAddress",
									"type": "address"
								},
								{
									"internalType": "string",
									"name": "name",
									"type": "string"
								},
								{
									"internalType": "uint256",
									"name": "createtimestamp",
									"type": "uint256"
								},
								{
									"internalType": "bool",
									"name": "marketunlock",
									"type": "bool"
								},
								{
									"internalType": "bool",
									"name": "gateunlock",
									"type": "bool"
								},
								{
									"internalType": "bool",
									"name": "isUsed",
									"type": "bool"
								}
							],
							"internalType": "struct LGate.Info",
							"name": "_gator",
							"type": "tuple"
						}
					],
					"name": "updateGatebyGator",
					"outputs": [],
					"stateMutability": "nonpayable",
					"type": "function"
				},
				{
					"inputs": [
						{
							"components": [
								{
									"internalType": "uint128",
									"name": "gateNo",
									"type": "uint128"
								},
								{
									"internalType": "address",
									"name": "gateAddress",
									"type": "address"
								},
								{
									"internalType": "string",
									"name": "name",
									"type": "string"
								},
								{
									"internalType": "uint256",
									"name": "createtimestamp",
									"type": "uint256"
								},
								{
									"internalType": "bool",
									"name": "marketunlock",
									"type": "bool"
								},
								{
									"internalType": "bool",
									"name": "gateunlock",
									"type": "bool"
								},
								{
									"internalType": "bool",
									"name": "isUsed",
									"type": "bool"
								}
							],
							"internalType": "struct LGate.Info",
							"name": "_gator",
							"type": "tuple"
						}
					],
					"name": "updateGatebyMarketor",
					"outputs": [],
					"stateMutability": "nonpayable",
					"type": "function"
				}
			],
			"devdoc": {
				"events": {
					"e_addGater(address,string)": {
						"params": {
							"gateAddress": "The address that minted the liquidity",
							"name": "The owner of the position and recipient of any minted liquidity"
						}
					},
					"e_delGatebyMarketor(address,address)": {
						"params": {
							"gateAddress": "The address that minted the liquidity",
							"marketoraddress": "The owner of the position and recipient of any minted liquidity"
						}
					},
					"e_lockGatebyGater(address)": {
						"params": {
							"gateAddress": "The address that minted the liquidity"
						}
					},
					"e_lockGatebyMarketor(address,address)": {
						"params": {
							"gateAddress": "The address that minted the liquidity",
							"marketoraddress": "The address that minted the liquidity"
						}
					},
					"e_unlockGatebyGater(address)": {
						"params": {
							"gateAddress": "The address that minted the liquidity"
						}
					},
					"e_unlockGatebyMarketor(address,address)": {
						"params": {
							"gateAddress": "The address that minted the liquidity",
							"marketoraddress": "The address that minted the liquidity"
						}
					},
					"e_updateGatebyGator(address,string)": {
						"params": {
							"gateAddress": "The address that minted the liquidity",
							"name": "The owner of the position and recipient of any minted liquidity"
						}
					},
					"e_updateGatebyMarketor(address,string,address)": {
						"params": {
							"gateAddress": "The address that minted the liquidity",
							"marketoraddress": "The owner of the position and recipient of any minted liquidity",
							"name": "The owner of the position and recipient of any minted liquidity"
						}
					}
				},
				"kind": "dev",
				"methods": {},
				"stateVariables": {
					"marketorContractAddress": {
						"return": "The contract address",
						"returns": {
							"_0": "The contract address"
						}
					}
				},
				"version": 1
			},
			"evm": {
				"assembly": "    /* \"Contracts/TTSwapV1Gator.sol\":236:6179  contract TTSwapV1Gator is ITTSwapV1Gator {... */\n  mstore(0x40, 0xa0)\n    /* \"Contracts/TTSwapV1Gator.sol\":609:814  constructor(address _marketorContractAddress, address _marketCreator) {... */\n  callvalue\n  dup1\n  iszero\n  tag_1\n  jumpi\n  0x00\n  dup1\n  revert\ntag_1:\n  pop\n  mload(0x40)\n  sub(codesize, bytecodeSize)\n  dup1\n  bytecodeSize\n  dup4\n  codecopy\n  dup2\n  add\n  0x40\n  dup2\n  swap1\n  mstore\n  tag_2\n  swap2\n  tag_3\n  jump\t// in\ntag_2:\n  sub(shl(0xa0, 0x01), 0x01)\n    /* \"Contracts/TTSwapV1Gator.sol\":689:739  marketorContractAddress = _marketorContractAddress */\n  swap2\n  dup3\n  and\n  0x80\n  mstore\n    /* \"Contracts/TTSwapV1Gator.sol\":749:762  marketCreator */\n  0x03\n    /* \"Contracts/TTSwapV1Gator.sol\":749:779  marketCreator = _marketCreator */\n  dup1\n  sload\n  not(sub(shl(0xa0, 0x01), 0x01))\n  and\n  swap2\n  swap1\n  swap3\n  and\n  or\n  swap1\n  sstore\n    /* \"Contracts/TTSwapV1Gator.sol\":789:803  maxGateNumbers */\n  0x02\n    /* \"Contracts/TTSwapV1Gator.sol\":789:807  maxGateNumbers = 1 */\n  dup1\n  sload\n  not(sub(shl(0x80, 0x01), 0x01))\n  and\n  0x01\n  or\n  swap1\n  sstore\n    /* \"Contracts/TTSwapV1Gator.sol\":236:6179  contract TTSwapV1Gator is ITTSwapV1Gator {... */\n  jump(tag_8)\n    /* \"#utility.yul\":14:191   */\ntag_7:\n    /* \"#utility.yul\":93:106   */\n  dup1\n  mload\n  sub(shl(0xa0, 0x01), 0x01)\n    /* \"#utility.yul\":135:166   */\n  dup2\n  and\n    /* \"#utility.yul\":125:167   */\n  dup2\n  eq\n    /* \"#utility.yul\":115:185   */\n  tag_10\n  jumpi\n    /* \"#utility.yul\":181:182   */\n  0x00\n    /* \"#utility.yul\":178:179   */\n  dup1\n    /* \"#utility.yul\":171:183   */\n  revert\n    /* \"#utility.yul\":115:185   */\ntag_10:\n    /* \"#utility.yul\":14:191   */\n  swap2\n  swap1\n  pop\n  jump\t// out\n    /* \"#utility.yul\":196:489   */\ntag_3:\n    /* \"#utility.yul\":275:281   */\n  0x00\n    /* \"#utility.yul\":283:289   */\n  dup1\n    /* \"#utility.yul\":336:338   */\n  0x40\n    /* \"#utility.yul\":324:333   */\n  dup4\n    /* \"#utility.yul\":315:322   */\n  dup6\n    /* \"#utility.yul\":311:334   */\n  sub\n    /* \"#utility.yul\":307:339   */\n  slt\n    /* \"#utility.yul\":304:356   */\n  iszero\n  tag_12\n  jumpi\n    /* \"#utility.yul\":352:353   */\n  0x00\n    /* \"#utility.yul\":349:350   */\n  dup1\n    /* \"#utility.yul\":342:354   */\n  revert\n    /* \"#utility.yul\":304:356   */\ntag_12:\n    /* \"#utility.yul\":375:415   */\n  tag_13\n    /* \"#utility.yul\":405:414   */\n  dup4\n    /* \"#utility.yul\":375:415   */\n  tag_7\n  jump\t// in\ntag_13:\n    /* \"#utility.yul\":365:415   */\n  swap2\n  pop\n    /* \"#utility.yul\":434:483   */\n  tag_14\n    /* \"#utility.yul\":479:481   */\n  0x20\n    /* \"#utility.yul\":468:477   */\n  dup5\n    /* \"#utility.yul\":464:482   */\n  add\n    /* \"#utility.yul\":434:483   */\n  tag_7\n  jump\t// in\ntag_14:\n    /* \"#utility.yul\":424:483   */\n  swap1\n  pop\n    /* \"#utility.yul\":196:489   */\n  swap3\n  pop\n  swap3\n  swap1\n  pop\n  jump\t// out\ntag_8:\n    /* \"Contracts/TTSwapV1Gator.sol\":236:6179  contract TTSwapV1Gator is ITTSwapV1Gator {... */\n  mload(0x80)\n  codecopy(0x00, dataOffset(sub_0), dataSize(sub_0))\n  0x00\n  assignImmutable(\"0x731dc163f73d31d8c68f9917ce4ff967753939f70432973c04fd2c2a48148607\")\n  return(0x00, dataSize(sub_0))\nstop\n\nsub_0: assembly {\n        /* \"Contracts/TTSwapV1Gator.sol\":236:6179  contract TTSwapV1Gator is ITTSwapV1Gator {... */\n      mstore(0x40, 0x80)\n      callvalue\n      dup1\n      iszero\n      tag_1\n      jumpi\n      0x00\n      dup1\n      revert\n    tag_1:\n      pop\n      jumpi(tag_2, lt(calldatasize, 0x04))\n      shr(0xe0, calldataload(0x00))\n      dup1\n      0x82dfbd20\n      gt\n      tag_22\n      jumpi\n      dup1\n      0xb614984d\n      gt\n      tag_23\n      jumpi\n      dup1\n      0xb614984d\n      eq\n      tag_17\n      jumpi\n      dup1\n      0xc0384292\n      eq\n      tag_18\n      jumpi\n      dup1\n      0xcf093eee\n      eq\n      tag_19\n      jumpi\n      dup1\n      0xdd348460\n      eq\n      tag_20\n      jumpi\n      dup1\n      0xf1c9f40f\n      eq\n      tag_21\n      jumpi\n      0x00\n      dup1\n      revert\n    tag_23:\n      dup1\n      0x82dfbd20\n      eq\n      tag_12\n      jumpi\n      dup1\n      0x8ab5b534\n      eq\n      tag_13\n      jumpi\n      dup1\n      0x90872671\n      eq\n      tag_14\n      jumpi\n      dup1\n      0xa4786088\n      eq\n      tag_15\n      jumpi\n      dup1\n      0xb4c4b9ac\n      eq\n      tag_16\n      jumpi\n      0x00\n      dup1\n      revert\n    tag_22:\n      dup1\n      0x492b7107\n      gt\n      tag_24\n      jumpi\n      dup1\n      0x492b7107\n      eq\n      tag_7\n      jumpi\n      dup1\n      0x54a460f6\n      eq\n      tag_8\n      jumpi\n      dup1\n      0x60772dc9\n      eq\n      tag_9\n      jumpi\n      dup1\n      0x631d1878\n      eq\n      tag_10\n      jumpi\n      dup1\n      0x76941300\n      eq\n      tag_11\n      jumpi\n      0x00\n      dup1\n      revert\n    tag_24:\n      dup1\n      0x19b24ee3\n      eq\n      tag_3\n      jumpi\n      dup1\n      0x27cbaabe\n      eq\n      tag_4\n      jumpi\n      dup1\n      0x3bbae141\n      eq\n      tag_5\n      jumpi\n      dup1\n      0x45df4987\n      eq\n      tag_6\n      jumpi\n    tag_2:\n      0x00\n      dup1\n      revert\n        /* \"Contracts/TTSwapV1Gator.sol\":5744:5894  function getGaterNo(... */\n    tag_3:\n      tag_25\n      tag_26\n      calldatasize\n      0x04\n      tag_27\n      jump\t// in\n    tag_26:\n      sub(shl(0xa0, 0x01), 0x01)\n        /* \"Contracts/TTSwapV1Gator.sol\":5858:5880  gateList[_gateAddress] */\n      and\n        /* \"Contracts/TTSwapV1Gator.sol\":5832:5839  uint128 */\n      0x00\n        /* \"Contracts/TTSwapV1Gator.sol\":5858:5880  gateList[_gateAddress] */\n      swap1\n      dup2\n      mstore\n      0x20\n      dup2\n      swap1\n      mstore\n      0x40\n      swap1\n      keccak256\n        /* \"Contracts/TTSwapV1Gator.sol\":5858:5887  gateList[_gateAddress].gateNo */\n      sload\n      sub(shl(0x80, 0x01), 0x01)\n      and\n      swap1\n        /* \"Contracts/TTSwapV1Gator.sol\":5744:5894  function getGaterNo(... */\n      jump\n    tag_25:\n      mload(0x40)\n      sub(shl(0x80, 0x01), 0x01)\n        /* \"#utility.yul\":547:594   */\n      swap1\n      swap2\n      and\n        /* \"#utility.yul\":529:595   */\n      dup2\n      mstore\n        /* \"#utility.yul\":517:519   */\n      0x20\n        /* \"#utility.yul\":502:520   */\n      add\n        /* \"Contracts/TTSwapV1Gator.sol\":5744:5894  function getGaterNo(... */\n    tag_29:\n      mload(0x40)\n      dup1\n      swap2\n      sub\n      swap1\n      return\n        /* \"Contracts/TTSwapV1Gator.sol\":574:602  address public marketCreator */\n    tag_4:\n      sload(0x03)\n      tag_31\n      swap1\n      sub(shl(0xa0, 0x01), 0x01)\n      and\n      dup2\n      jump\n    tag_31:\n      mload(0x40)\n      sub(shl(0xa0, 0x01), 0x01)\n        /* \"#utility.yul\":770:802   */\n      swap1\n      swap2\n      and\n        /* \"#utility.yul\":752:803   */\n      dup2\n      mstore\n        /* \"#utility.yul\":740:742   */\n      0x20\n        /* \"#utility.yul\":725:743   */\n      add\n        /* \"Contracts/TTSwapV1Gator.sol\":574:602  address public marketCreator */\n      tag_29\n        /* \"#utility.yul\":606:809   */\n      jump\n        /* \"Contracts/TTSwapV1Gator.sol\":3206:3541  function lockGatebyGater() external override onlyGator {... */\n    tag_5:\n      tag_35\n      tag_36\n      jump\t// in\n    tag_35:\n      stop\n        /* \"Contracts/TTSwapV1Gator.sol\":324:370  mapping(address => LGate.Info) public gateList */\n    tag_6:\n      tag_37\n      tag_38\n      calldatasize\n      0x04\n      tag_27\n      jump\t// in\n    tag_38:\n      tag_39\n      jump\t// in\n    tag_37:\n      mload(0x40)\n      tag_29\n      swap8\n      swap7\n      swap6\n      swap5\n      swap4\n      swap3\n      swap2\n      swap1\n      tag_41\n      jump\t// in\n        /* \"Contracts/TTSwapV1Gator.sol\":520:568  address public immutable marketorContractAddress */\n    tag_7:\n      tag_31\n      immutable(\"0x731dc163f73d31d8c68f9917ce4ff967753939f70432973c04fd2c2a48148607\")\n      dup2\n      jump\n        /* \"Contracts/TTSwapV1Gator.sol\":5344:5463  function isValidGator() external view override returns (bool) {... */\n    tag_8:\n        /* \"Contracts/TTSwapV1Gator.sol\":5432:5442  msg.sender */\n      caller\n        /* \"Contracts/TTSwapV1Gator.sol\":5400:5404  bool */\n      0x00\n        /* \"Contracts/TTSwapV1Gator.sol\":5423:5443  gateList[msg.sender] */\n      swap1\n      dup2\n      mstore\n      0x20\n      dup2\n      swap1\n      mstore\n      0x40\n      swap1\n      keccak256\n        /* \"Contracts/TTSwapV1Gator.sol\":5423:5456  gateList[msg.sender].marketunlock */\n      0x04\n      add\n      sload\n      0xff\n      and\n        /* \"Contracts/TTSwapV1Gator.sol\":5344:5463  function isValidGator() external view override returns (bool) {... */\n    tag_45:\n      mload(0x40)\n        /* \"#utility.yul\":2256:2270   */\n      swap1\n      iszero\n        /* \"#utility.yul\":2249:2271   */\n      iszero\n        /* \"#utility.yul\":2231:2272   */\n      dup2\n      mstore\n        /* \"#utility.yul\":2219:2221   */\n      0x20\n        /* \"#utility.yul\":2204:2222   */\n      add\n        /* \"Contracts/TTSwapV1Gator.sol\":5344:5463  function isValidGator() external view override returns (bool) {... */\n      tag_29\n        /* \"#utility.yul\":2091:2278   */\n      jump\n        /* \"Contracts/TTSwapV1Gator.sol\":484:513  uint128 public maxGateNumbers */\n    tag_9:\n      sload(0x02)\n      tag_25\n      swap1\n      sub(shl(0x80, 0x01), 0x01)\n      and\n      dup2\n      jump\n        /* \"Contracts/TTSwapV1Gator.sol\":3915:4521  function updateGatebyGator(... */\n    tag_10:\n      tag_35\n      tag_53\n      calldatasize\n      0x04\n      tag_54\n      jump\t// in\n    tag_53:\n      tag_55\n      jump\t// in\n        /* \"Contracts/TTSwapV1Gator.sol\":1849:2187  function unlockGatebyMarketor(... */\n    tag_11:\n      tag_35\n      tag_57\n      calldatasize\n      0x04\n      tag_27\n      jump\t// in\n    tag_57:\n      tag_58\n      jump\t// in\n        /* \"Contracts/TTSwapV1Gator.sol\":401:447  mapping(uint128 => address) public gateNumbers */\n    tag_12:\n      tag_31\n      tag_60\n      calldatasize\n      0x04\n      tag_61\n      jump\t// in\n    tag_60:\n      mstore(0x20, 0x01)\n      0x00\n      swap1\n      dup2\n      mstore\n      0x40\n      swap1\n      keccak256\n      sload\n      sub(shl(0xa0, 0x01), 0x01)\n      and\n      dup2\n      jump\n        /* \"Contracts/TTSwapV1Gator.sol\":5900:6064  function getGaterInfo(... */\n    tag_13:\n      tag_64\n      tag_65\n      calldatasize\n      0x04\n      tag_66\n      jump\t// in\n    tag_65:\n      tag_67\n      jump\t// in\n    tag_64:\n      mload(0x40)\n      tag_29\n      swap2\n      swap1\n      tag_69\n      jump\t// in\n        /* \"Contracts/TTSwapV1Gator.sol\":2258:2803  function updateGatebyMarketor(... */\n    tag_14:\n      tag_35\n      tag_71\n      calldatasize\n      0x04\n      tag_54\n      jump\t// in\n    tag_71:\n      tag_72\n      jump\t// in\n        /* \"Contracts/TTSwapV1Gator.sol\":1508:1843  function lockGatebyMarketor(... */\n    tag_15:\n      tag_35\n      tag_74\n      calldatasize\n      0x04\n      tag_27\n      jump\t// in\n    tag_74:\n      tag_75\n      jump\t// in\n        /* \"Contracts/TTSwapV1Gator.sol\":5624:5738  function getGaterNo() external view override returns (uint128) {... */\n    tag_16:\n        /* \"Contracts/TTSwapV1Gator.sol\":5713:5723  msg.sender */\n      caller\n        /* \"Contracts/TTSwapV1Gator.sol\":5678:5685  uint128 */\n      0x00\n        /* \"Contracts/TTSwapV1Gator.sol\":5704:5724  gateList[msg.sender] */\n      swap1\n      dup2\n      mstore\n      0x20\n      dup2\n      swap1\n      mstore\n      0x40\n      swap1\n      keccak256\n        /* \"Contracts/TTSwapV1Gator.sol\":5704:5731  gateList[msg.sender].gateNo */\n      sload\n      sub(shl(0x80, 0x01), 0x01)\n      and\n        /* \"Contracts/TTSwapV1Gator.sol\":5624:5738  function getGaterNo() external view override returns (uint128) {... */\n      jump(tag_25)\n        /* \"Contracts/TTSwapV1Gator.sol\":2809:3052  function delGatebyMarketor(address _gator) external override onlyMarketor {... */\n    tag_17:\n      tag_35\n      tag_80\n      calldatasize\n      0x04\n      tag_27\n      jump\t// in\n    tag_80:\n      tag_81\n      jump\t// in\n        /* \"Contracts/TTSwapV1Gator.sol\":5469:5618  function isValidGator(... */\n    tag_18:\n      tag_45\n      tag_83\n      calldatasize\n      0x04\n      tag_27\n      jump\t// in\n    tag_83:\n      sub(shl(0xa0, 0x01), 0x01)\n        /* \"Contracts/TTSwapV1Gator.sol\":5579:5598  gateList[vgaddress] */\n      and\n        /* \"Contracts/TTSwapV1Gator.sol\":5556:5560  bool */\n      0x00\n        /* \"Contracts/TTSwapV1Gator.sol\":5579:5598  gateList[vgaddress] */\n      swap1\n      dup2\n      mstore\n      0x20\n      dup2\n      swap1\n      mstore\n      0x40\n      swap1\n      keccak256\n        /* \"Contracts/TTSwapV1Gator.sol\":5579:5611  gateList[vgaddress].marketunlock */\n      0x04\n      add\n      sload\n      0xff\n      and\n      swap1\n        /* \"Contracts/TTSwapV1Gator.sol\":5469:5618  function isValidGator(... */\n      jump\n        /* \"Contracts/TTSwapV1Gator.sol\":4527:5338  function addGater(LGate.Info memory _gator) external override {... */\n    tag_19:\n      tag_35\n      tag_87\n      calldatasize\n      0x04\n      tag_54\n      jump\t// in\n    tag_87:\n      tag_88\n      jump\t// in\n        /* \"Contracts/TTSwapV1Gator.sol\":6070:6177  function getMaxGateNumber() external view override returns (uint128) {... */\n    tag_20:\n        /* \"Contracts/TTSwapV1Gator.sol\":6156:6170  maxGateNumbers */\n      and(sub(shl(0x80, 0x01), 0x01), sload(0x02))\n        /* \"Contracts/TTSwapV1Gator.sol\":6070:6177  function getMaxGateNumber() external view override returns (uint128) {... */\n      jump(tag_25)\n        /* \"Contracts/TTSwapV1Gator.sol\":3547:3884  function unlockGatebyGater() external override onlyGator {... */\n    tag_21:\n      tag_35\n      tag_93\n      jump\t// in\n        /* \"Contracts/TTSwapV1Gator.sol\":3206:3541  function lockGatebyGater() external override onlyGator {... */\n    tag_36:\n        /* \"Contracts/TTSwapV1Gator.sol\":976:986  msg.sender */\n      caller\n        /* \"Contracts/TTSwapV1Gator.sol\":967:975  gateList */\n      0x00\n        /* \"Contracts/TTSwapV1Gator.sol\":967:987  gateList[msg.sender] */\n      swap1\n      dup2\n      mstore\n      0x20\n      dup2\n      swap1\n      mstore\n      0x40\n      swap1\n      keccak256\n        /* \"Contracts/TTSwapV1Gator.sol\":967:1000  gateList[msg.sender].marketunlock */\n      0x04\n      add\n      sload\n      0xff\n      and\n        /* \"Contracts/TTSwapV1Gator.sol\":967:1008  gateList[msg.sender].marketunlock == true */\n      iszero\n      iszero\n        /* \"Contracts/TTSwapV1Gator.sol\":967:1000  gateList[msg.sender].marketunlock */\n      0x01\n        /* \"Contracts/TTSwapV1Gator.sol\":967:1008  gateList[msg.sender].marketunlock == true */\n      eq\n        /* \"Contracts/TTSwapV1Gator.sol\":959:1009  require(gateList[msg.sender].marketunlock == true) */\n      tag_96\n      jumpi\n      0x00\n      dup1\n      revert\n    tag_96:\n        /* \"Contracts/TTSwapV1Gator.sol\":3301:3311  msg.sender */\n      caller\n        /* \"Contracts/TTSwapV1Gator.sol\":3292:3300  gateList */\n      0x00\n        /* \"Contracts/TTSwapV1Gator.sol\":3292:3312  gateList[msg.sender] */\n      swap1\n      dup2\n      mstore\n      0x20\n      dup2\n      swap1\n      mstore\n      0x40\n      swap1\n      keccak256\n        /* \"Contracts/TTSwapV1Gator.sol\":3292:3319  gateList[msg.sender].isUsed */\n      0x04\n      add\n      sload\n      0x010000\n      swap1\n      div\n      0xff\n      and\n        /* \"Contracts/TTSwapV1Gator.sol\":3292:3327  gateList[msg.sender].isUsed == true */\n      iszero\n      iszero\n        /* \"Contracts/TTSwapV1Gator.sol\":3323:3327  true */\n      0x01\n        /* \"Contracts/TTSwapV1Gator.sol\":3292:3327  gateList[msg.sender].isUsed == true */\n      eq\n        /* \"Contracts/TTSwapV1Gator.sol\":3292:3393  gateList[msg.sender].isUsed == true &&... */\n      dup1\n      iszero\n      tag_98\n      jumpi\n      pop\n        /* \"Contracts/TTSwapV1Gator.sol\":3383:3393  msg.sender */\n      caller\n        /* \"Contracts/TTSwapV1Gator.sol\":3347:3355  gateList */\n      0x00\n        /* \"Contracts/TTSwapV1Gator.sol\":3347:3367  gateList[msg.sender] */\n      dup2\n      dup2\n      mstore\n      0x20\n      dup2\n      swap1\n      mstore\n      0x40\n      swap1\n      keccak256\n        /* \"Contracts/TTSwapV1Gator.sol\":3347:3379  gateList[msg.sender].gateAddress */\n      0x01\n      add\n      sload\n      sub(shl(0xa0, 0x01), 0x01)\n      and\n        /* \"Contracts/TTSwapV1Gator.sol\":3347:3393  gateList[msg.sender].gateAddress == msg.sender */\n      eq\n        /* \"Contracts/TTSwapV1Gator.sol\":3292:3393  gateList[msg.sender].isUsed == true &&... */\n    tag_98:\n        /* \"Contracts/TTSwapV1Gator.sol\":3271:3440  require(... */\n      tag_99\n      jumpi\n      mload(0x40)\n      shl(0xe5, 0x461bcd)\n      dup2\n      mstore\n      0x04\n      add\n      tag_100\n      swap1\n      tag_101\n      jump\t// in\n    tag_100:\n      mload(0x40)\n      dup1\n      swap2\n      sub\n      swap1\n      revert\n    tag_99:\n        /* \"Contracts/TTSwapV1Gator.sol\":3459:3469  msg.sender */\n      caller\n        /* \"Contracts/TTSwapV1Gator.sol\":3484:3489  false */\n      0x00\n        /* \"Contracts/TTSwapV1Gator.sol\":3450:3470  gateList[msg.sender] */\n      dup2\n      dup2\n      mstore\n      0x20\n      dup2\n      dup2\n      mstore\n      0x40\n      swap2\n      dup3\n      swap1\n      keccak256\n        /* \"Contracts/TTSwapV1Gator.sol\":3450:3481  gateList[msg.sender].gateunlock */\n      0x04\n      add\n        /* \"Contracts/TTSwapV1Gator.sol\":3450:3489  gateList[msg.sender].gateunlock = false */\n      dup1\n      sload\n      not(0xff00)\n      and\n      swap1\n      sstore\n        /* \"Contracts/TTSwapV1Gator.sol\":3505:3534  e_lockGatebyGater(msg.sender) */\n      swap1\n      mload\n        /* \"#utility.yul\":752:803   */\n      swap2\n      dup3\n      mstore\n        /* \"Contracts/TTSwapV1Gator.sol\":3505:3534  e_lockGatebyGater(msg.sender) */\n      0xe5774dc76216b6570b210f3cb5fed8d6d443aadc204e69b02436c40bae70db34\n      swap2\n        /* \"#utility.yul\":725:743   */\n      add\n        /* \"Contracts/TTSwapV1Gator.sol\":3505:3534  e_lockGatebyGater(msg.sender) */\n    tag_102:\n      mload(0x40)\n      dup1\n      swap2\n      sub\n      swap1\n      log1\n        /* \"Contracts/TTSwapV1Gator.sol\":3206:3541  function lockGatebyGater() external override onlyGator {... */\n      jump\t// out\n        /* \"Contracts/TTSwapV1Gator.sol\":324:370  mapping(address => LGate.Info) public gateList */\n    tag_39:\n      0x00\n      0x20\n      dup2\n      swap1\n      mstore\n      swap1\n      dup2\n      mstore\n      0x40\n      swap1\n      keccak256\n      dup1\n      sload\n      0x01\n      dup3\n      add\n      sload\n      0x02\n      dup4\n      add\n      dup1\n      sload\n      sub(shl(0x80, 0x01), 0x01)\n      swap1\n      swap4\n      and\n      swap4\n      sub(shl(0xa0, 0x01), 0x01)\n      swap1\n      swap3\n      and\n      swap3\n      tag_103\n      swap1\n      tag_104\n      jump\t// in\n    tag_103:\n      dup1\n      0x1f\n      add\n      0x20\n      dup1\n      swap2\n      div\n      mul\n      0x20\n      add\n      mload(0x40)\n      swap1\n      dup2\n      add\n      0x40\n      mstore\n      dup1\n      swap3\n      swap2\n      swap1\n      dup2\n      dup2\n      mstore\n      0x20\n      add\n      dup3\n      dup1\n      sload\n      tag_105\n      swap1\n      tag_104\n      jump\t// in\n    tag_105:\n      dup1\n      iszero\n      tag_106\n      jumpi\n      dup1\n      0x1f\n      lt\n      tag_107\n      jumpi\n      0x0100\n      dup1\n      dup4\n      sload\n      div\n      mul\n      dup4\n      mstore\n      swap2\n      0x20\n      add\n      swap2\n      jump(tag_106)\n    tag_107:\n      dup3\n      add\n      swap2\n      swap1\n      0x00\n      mstore\n      keccak256(0x00, 0x20)\n      swap1\n    tag_108:\n      dup2\n      sload\n      dup2\n      mstore\n      swap1\n      0x01\n      add\n      swap1\n      0x20\n      add\n      dup1\n      dup4\n      gt\n      tag_108\n      jumpi\n      dup3\n      swap1\n      sub\n      0x1f\n      and\n      dup3\n      add\n      swap2\n    tag_106:\n      pop\n      pop\n      pop\n      pop\n      0x03\n      dup4\n      add\n      sload\n      0x04\n      swap1\n      swap4\n      add\n      sload\n      swap2\n      swap3\n      swap2\n      0xff\n      dup1\n      dup3\n      and\n      swap3\n      pop\n      0x0100\n      dup3\n      div\n      dup2\n      and\n      swap2\n      0x010000\n      swap1\n      div\n      and\n      dup8\n      jump\t// out\n        /* \"Contracts/TTSwapV1Gator.sol\":3915:4521  function updateGatebyGator(... */\n    tag_55:\n        /* \"Contracts/TTSwapV1Gator.sol\":976:986  msg.sender */\n      caller\n        /* \"Contracts/TTSwapV1Gator.sol\":967:975  gateList */\n      0x00\n        /* \"Contracts/TTSwapV1Gator.sol\":967:987  gateList[msg.sender] */\n      swap1\n      dup2\n      mstore\n      0x20\n      dup2\n      swap1\n      mstore\n      0x40\n      swap1\n      keccak256\n        /* \"Contracts/TTSwapV1Gator.sol\":967:1000  gateList[msg.sender].marketunlock */\n      0x04\n      add\n      sload\n      0xff\n      and\n        /* \"Contracts/TTSwapV1Gator.sol\":967:1008  gateList[msg.sender].marketunlock == true */\n      iszero\n      iszero\n        /* \"Contracts/TTSwapV1Gator.sol\":967:1000  gateList[msg.sender].marketunlock */\n      0x01\n        /* \"Contracts/TTSwapV1Gator.sol\":967:1008  gateList[msg.sender].marketunlock == true */\n      eq\n        /* \"Contracts/TTSwapV1Gator.sol\":959:1009  require(gateList[msg.sender].marketunlock == true) */\n      tag_111\n      jumpi\n      0x00\n      dup1\n      revert\n    tag_111:\n        /* \"Contracts/TTSwapV1Gator.sol\":4050:4068  _gator.gateAddress */\n      0x20\n      dup2\n      dup2\n      add\n      mload\n      sub(shl(0xa0, 0x01), 0x01)\n        /* \"Contracts/TTSwapV1Gator.sol\":4041:4069  gateList[_gator.gateAddress] */\n      and\n        /* \"Contracts/TTSwapV1Gator.sol\":4041:4049  gateList */\n      0x00\n        /* \"Contracts/TTSwapV1Gator.sol\":4041:4069  gateList[_gator.gateAddress] */\n      swap1\n      dup2\n      mstore\n      swap1\n      dup2\n      swap1\n      mstore\n      0x40\n      swap1\n      keccak256\n        /* \"Contracts/TTSwapV1Gator.sol\":4041:4076  gateList[_gator.gateAddress].isUsed */\n      0x04\n      add\n      sload\n      0x010000\n      swap1\n      div\n      0xff\n      and\n        /* \"Contracts/TTSwapV1Gator.sol\":4041:4084  gateList[_gator.gateAddress].isUsed == true */\n      iszero\n      iszero\n        /* \"Contracts/TTSwapV1Gator.sol\":4080:4084  true */\n      0x01\n        /* \"Contracts/TTSwapV1Gator.sol\":4041:4084  gateList[_gator.gateAddress].isUsed == true */\n      eq\n        /* \"Contracts/TTSwapV1Gator.sol\":4020:4130  require(... */\n      tag_113\n      jumpi\n      mload(0x40)\n      shl(0xe5, 0x461bcd)\n      dup2\n      mstore\n      0x04\n      add\n      tag_100\n      swap1\n      tag_115\n      jump\t// in\n    tag_113:\n        /* \"Contracts/TTSwapV1Gator.sol\":4170:4188  _gator.gateAddress */\n      0x20\n      dup1\n      dup3\n      add\n      mload\n      sub(shl(0xa0, 0x01), 0x01)\n        /* \"Contracts/TTSwapV1Gator.sol\":4161:4189  gateList[_gator.gateAddress] */\n      swap1\n      dup2\n      and\n        /* \"Contracts/TTSwapV1Gator.sol\":4161:4169  gateList */\n      0x00\n        /* \"Contracts/TTSwapV1Gator.sol\":4161:4189  gateList[_gator.gateAddress] */\n      swap1\n      dup2\n      mstore\n      swap2\n      dup3\n      swap1\n      mstore\n      0x40\n      swap1\n      swap2\n      keccak256\n        /* \"Contracts/TTSwapV1Gator.sol\":4161:4201  gateList[_gator.gateAddress].gateAddress */\n      0x01\n      add\n      sload\n      and\n        /* \"Contracts/TTSwapV1Gator.sol\":4205:4215  msg.sender */\n      caller\n        /* \"Contracts/TTSwapV1Gator.sol\":4161:4215  gateList[_gator.gateAddress].gateAddress == msg.sender */\n      eq\n        /* \"Contracts/TTSwapV1Gator.sol\":4140:4258  require(... */\n      tag_116\n      jumpi\n      mload(0x40)\n      shl(0xe5, 0x461bcd)\n      dup2\n      mstore\n      0x04\n      add\n      tag_100\n      swap1\n      tag_118\n      jump\t// in\n    tag_116:\n        /* \"Contracts/TTSwapV1Gator.sol\":4299:4317  _gator.gateAddress */\n      0x20\n      dup2\n      dup2\n      add\n      dup1\n      mload\n      sub(shl(0xa0, 0x01), 0x01)\n        /* \"Contracts/TTSwapV1Gator.sol\":4290:4318  gateList[_gator.gateAddress] */\n      swap1\n      dup2\n      and\n        /* \"Contracts/TTSwapV1Gator.sol\":4290:4298  gateList */\n      0x00\n        /* \"Contracts/TTSwapV1Gator.sol\":4290:4318  gateList[_gator.gateAddress] */\n      swap1\n      dup2\n      mstore\n      dup1\n      dup5\n      mstore\n      0x40\n      dup1\n      dup3\n      keccak256\n        /* \"Contracts/TTSwapV1Gator.sol\":4290:4331  gateList[_gator.gateAddress].marketunlock */\n      0x04\n      swap1\n      dup2\n      add\n      sload\n      0xff\n      swap1\n      dup2\n      and\n        /* \"Contracts/TTSwapV1Gator.sol\":4268:4331  _gator.marketunlock = gateList[_gator.gateAddress].marketunlock */\n      iszero\n      iszero\n        /* \"Contracts/TTSwapV1Gator.sol\":4268:4287  _gator.marketunlock */\n      0x80\n      dup10\n      add\n        /* \"Contracts/TTSwapV1Gator.sol\":4268:4331  _gator.marketunlock = gateList[_gator.gateAddress].marketunlock */\n      mstore\n        /* \"Contracts/TTSwapV1Gator.sol\":4370:4388  _gator.gateAddress */\n      dup6\n      mload\n        /* \"Contracts/TTSwapV1Gator.sol\":4361:4389  gateList[_gator.gateAddress] */\n      dup6\n      and\n      dup5\n      mstore\n      dup4\n      dup8\n      mstore\n      dup3\n      dup5\n      keccak256\n        /* \"Contracts/TTSwapV1Gator.sol\":4361:4400  gateList[_gator.gateAddress].gateunlock */\n      swap1\n      swap2\n      add\n      sload\n        /* \"Contracts/TTSwapV1Gator.sol\":4290:4331  gateList[_gator.gateAddress].marketunlock */\n      0x0100\n        /* \"Contracts/TTSwapV1Gator.sol\":4361:4400  gateList[_gator.gateAddress].gateunlock */\n      swap1\n      div\n      and\n        /* \"Contracts/TTSwapV1Gator.sol\":4341:4400  _gator.gateunlock = gateList[_gator.gateAddress].gateunlock */\n      iszero\n      iszero\n        /* \"Contracts/TTSwapV1Gator.sol\":4341:4358  _gator.gateunlock */\n      0xa0\n      dup8\n      add\n        /* \"Contracts/TTSwapV1Gator.sol\":4341:4400  _gator.gateunlock = gateList[_gator.gateAddress].gateunlock */\n      mstore\n        /* \"Contracts/TTSwapV1Gator.sol\":4419:4437  _gator.gateAddress */\n      dup4\n      mload\n        /* \"Contracts/TTSwapV1Gator.sol\":4410:4438  gateList[_gator.gateAddress] */\n      dup4\n      and\n      dup3\n      mstore\n      swap4\n      dup2\n      swap1\n      mstore\n      dup4\n      swap1\n      keccak256\n        /* \"Contracts/TTSwapV1Gator.sol\":4410:4447  gateList[_gator.gateAddress] = _gator */\n      dup5\n      mload\n      dup2\n      sload\n      not(sub(shl(0x80, 0x01), 0x01))\n      and\n      sub(shl(0x80, 0x01), 0x01)\n      swap1\n      swap2\n      and\n      or\n      dup2\n      sstore\n      swap2\n      mload\n      0x01\n      dup4\n      add\n      dup1\n      sload\n      not(sub(shl(0xa0, 0x01), 0x01))\n      and\n      swap2\n      swap1\n      swap3\n      and\n      or\n      swap1\n      sstore\n      swap1\n      dup3\n      add\n      mload\n        /* \"Contracts/TTSwapV1Gator.sol\":4299:4317  _gator.gateAddress */\n      dup3\n      swap2\n        /* \"Contracts/TTSwapV1Gator.sol\":4410:4438  gateList[_gator.gateAddress] */\n      swap1\n        /* \"Contracts/TTSwapV1Gator.sol\":4410:4447  gateList[_gator.gateAddress] = _gator */\n      0x02\n      dup3\n      add\n      swap1\n      tag_119\n      swap1\n      dup3\n      tag_120\n      jump\t// in\n    tag_119:\n      pop\n      0x60\n      dup3\n      add\n      mload\n      0x03\n      dup3\n      add\n      sstore\n      0x80\n      dup3\n      add\n      mload\n      0x04\n      swap1\n      swap2\n      add\n      dup1\n      sload\n      0xa0\n      dup5\n      add\n      mload\n      0xc0\n      swap1\n      swap5\n      add\n      mload\n      iszero\n      iszero\n      0x010000\n      mul\n      not(0xff0000)\n      swap5\n      iszero\n      iszero\n      0x0100\n      mul\n      not(0xff00)\n      swap5\n      iszero\n      iszero\n      swap5\n      swap1\n      swap5\n      and\n      not(0xffff)\n      swap1\n      swap3\n      and\n      swap2\n      swap1\n      swap2\n      or\n      swap3\n      swap1\n      swap3\n      or\n      swap3\n      swap1\n      swap3\n      and\n      or\n      swap1\n      sstore\n        /* \"Contracts/TTSwapV1Gator.sol\":4482:4500  _gator.gateAddress */\n      0x20\n      dup2\n      add\n      mload\n        /* \"Contracts/TTSwapV1Gator.sol\":4502:4513  _gator.name */\n      0x40\n      dup1\n      dup4\n      add\n      mload\n        /* \"Contracts/TTSwapV1Gator.sol\":4462:4514  e_updateGatebyGator(_gator.gateAddress, _gator.name) */\n      swap1\n      mload\n      0x895c57d6846b159457da8c5691dbdcc3ee078da87a4c6837b61ace71780aee06\n      swap3\n      tag_121\n      swap3\n        /* \"Contracts/TTSwapV1Gator.sol\":4482:4500  _gator.gateAddress */\n      swap1\n      swap2\n        /* \"Contracts/TTSwapV1Gator.sol\":4462:4514  e_updateGatebyGator(_gator.gateAddress, _gator.name) */\n      tag_122\n      jump\t// in\n    tag_121:\n      mload(0x40)\n      dup1\n      swap2\n      sub\n      swap1\n      log1\n        /* \"Contracts/TTSwapV1Gator.sol\":3915:4521  function updateGatebyGator(... */\n      pop\n      jump\t// out\n        /* \"Contracts/TTSwapV1Gator.sol\":1849:2187  function unlockGatebyMarketor(... */\n    tag_58:\n        /* \"Contracts/TTSwapV1Gator.sol\":1197:1296  IMarketorV1State(marketorContractAddress).isValidMarketor(... */\n      mload(0x40)\n      shl(0xe5, 0x038c3329)\n      dup2\n      mstore\n        /* \"Contracts/TTSwapV1Gator.sol\":1272:1282  msg.sender */\n      caller\n        /* \"Contracts/TTSwapV1Gator.sol\":1197:1296  IMarketorV1State(marketorContractAddress).isValidMarketor(... */\n      0x04\n      dup3\n      add\n        /* \"#utility.yul\":752:803   */\n      mstore\n        /* \"Contracts/TTSwapV1Gator.sol\":1214:1237  marketorContractAddress */\n      immutable(\"0x731dc163f73d31d8c68f9917ce4ff967753939f70432973c04fd2c2a48148607\")\n      sub(shl(0xa0, 0x01), 0x01)\n        /* \"Contracts/TTSwapV1Gator.sol\":1197:1254  IMarketorV1State(marketorContractAddress).isValidMarketor */\n      and\n      swap1\n      0x71866520\n      swap1\n        /* \"#utility.yul\":725:743   */\n      0x24\n      add\n        /* \"Contracts/TTSwapV1Gator.sol\":1197:1296  IMarketorV1State(marketorContractAddress).isValidMarketor(... */\n      0x20\n      mload(0x40)\n      dup1\n      dup4\n      sub\n      dup2\n      dup7\n      gas\n      staticcall\n      iszero\n      dup1\n      iszero\n      tag_126\n      jumpi\n      returndatasize\n      0x00\n      dup1\n      returndatacopy\n      revert(0x00, returndatasize)\n    tag_126:\n      pop\n      pop\n      pop\n      pop\n      mload(0x40)\n      returndatasize\n      not(0x1f)\n      0x1f\n      dup3\n      add\n      and\n      dup3\n      add\n      dup1\n      0x40\n      mstore\n      pop\n      dup2\n      add\n      swap1\n      tag_127\n      swap2\n      swap1\n      tag_128\n      jump\t// in\n    tag_127:\n        /* \"Contracts/TTSwapV1Gator.sol\":1176:1338  require(... */\n      tag_129\n      jumpi\n      mload(0x40)\n      shl(0xe5, 0x461bcd)\n      dup2\n      mstore\n      0x04\n      add\n      tag_100\n      swap1\n      tag_131\n      jump\t// in\n    tag_129:\n      sub(shl(0xa0, 0x01), 0x01)\n        /* \"Contracts/TTSwapV1Gator.sol\":1978:2001  gateList[_gatoraddress] */\n      dup2\n      and\n        /* \"Contracts/TTSwapV1Gator.sol\":1978:1986  gateList */\n      0x00\n        /* \"Contracts/TTSwapV1Gator.sol\":1978:2001  gateList[_gatoraddress] */\n      swap1\n      dup2\n      mstore\n      0x20\n      dup2\n      swap1\n      mstore\n      0x40\n      swap1\n      keccak256\n        /* \"Contracts/TTSwapV1Gator.sol\":1978:2008  gateList[_gatoraddress].isUsed */\n      0x04\n      add\n      sload\n      0x010000\n      swap1\n      div\n      0xff\n      and\n        /* \"Contracts/TTSwapV1Gator.sol\":1978:2016  gateList[_gatoraddress].isUsed == true */\n      iszero\n      iszero\n        /* \"Contracts/TTSwapV1Gator.sol\":2012:2016  true */\n      0x01\n        /* \"Contracts/TTSwapV1Gator.sol\":1978:2016  gateList[_gatoraddress].isUsed == true */\n      eq\n        /* \"Contracts/TTSwapV1Gator.sol\":1957:2063  require(... */\n      tag_133\n      jumpi\n      mload(0x40)\n      shl(0xe5, 0x461bcd)\n      dup2\n      mstore\n      0x04\n      add\n      tag_100\n      swap1\n      tag_101\n      jump\t// in\n    tag_133:\n      sub(shl(0xa0, 0x01), 0x01)\n        /* \"Contracts/TTSwapV1Gator.sol\":2073:2096  gateList[_gatoraddress] */\n      dup2\n      and\n        /* \"Contracts/TTSwapV1Gator.sol\":2073:2081  gateList */\n      0x00\n        /* \"Contracts/TTSwapV1Gator.sol\":2073:2096  gateList[_gatoraddress] */\n      dup2\n      dup2\n      mstore\n      0x20\n      dup2\n      dup2\n      mstore\n      0x40\n      swap2\n      dup3\n      swap1\n      keccak256\n        /* \"Contracts/TTSwapV1Gator.sol\":2073:2109  gateList[_gatoraddress].marketunlock */\n      0x04\n      add\n        /* \"Contracts/TTSwapV1Gator.sol\":2073:2116  gateList[_gatoraddress].marketunlock = true */\n      dup1\n      sload\n      not(0xff)\n      and\n        /* \"Contracts/TTSwapV1Gator.sol\":2112:2116  true */\n      0x01\n        /* \"Contracts/TTSwapV1Gator.sol\":2073:2116  gateList[_gatoraddress].marketunlock = true */\n      or\n      swap1\n      sstore\n        /* \"Contracts/TTSwapV1Gator.sol\":2131:2180  e_unlockGatebyMarketor(_gatoraddress, msg.sender) */\n      dup2\n      mload\n        /* \"#utility.yul\":10930:10964   */\n      swap3\n      dup4\n      mstore\n        /* \"Contracts/TTSwapV1Gator.sol\":2169:2179  msg.sender */\n      caller\n        /* \"#utility.yul\":10980:10998   */\n      swap1\n      dup4\n      add\n        /* \"#utility.yul\":10973:11016   */\n      mstore\n        /* \"Contracts/TTSwapV1Gator.sol\":2131:2180  e_unlockGatebyMarketor(_gatoraddress, msg.sender) */\n      0x4353413b15cd3738c15f5943344e98f0982686884f71f3d2a639891b7ed281b7\n      swap2\n        /* \"#utility.yul\":10865:10883   */\n      add\n        /* \"Contracts/TTSwapV1Gator.sol\":2131:2180  e_unlockGatebyMarketor(_gatoraddress, msg.sender) */\n      tag_121\n        /* \"#utility.yul\":10718:11022   */\n      jump\n        /* \"Contracts/TTSwapV1Gator.sol\":5900:6064  function getGaterInfo(... */\n    tag_67:\n      0x40\n      dup1\n      mload\n      0xe0\n      dup1\n      dup3\n      add\n      dup4\n      mstore\n      0x00\n      dup1\n      dup4\n      mstore\n      0x20\n      dup1\n      dup5\n      add\n      dup3\n      swap1\n      mstore\n      0x60\n      dup5\n      dup7\n      add\n      dup2\n      swap1\n      mstore\n      dup5\n      add\n      dup3\n      swap1\n      mstore\n      0x80\n      dup5\n      add\n      dup3\n      swap1\n      mstore\n      0xa0\n      dup5\n      add\n      dup3\n      swap1\n      mstore\n      0xc0\n      dup5\n      add\n      dup3\n      swap1\n      mstore\n        /* \"Contracts/TTSwapV1Gator.sol\":6032:6056  gateNumbers[_gateNumber] */\n      0xff\n      dup7\n      and\n      dup3\n      mstore\n        /* \"Contracts/TTSwapV1Gator.sol\":6032:6043  gateNumbers */\n      0x01\n        /* \"Contracts/TTSwapV1Gator.sol\":6032:6056  gateNumbers[_gateNumber] */\n      dup1\n      dup3\n      mstore\n      dup6\n      dup4\n      keccak256\n      sload\n      sub(shl(0xa0, 0x01), 0x01)\n      swap1\n      dup2\n      and\n        /* \"Contracts/TTSwapV1Gator.sol\":6023:6057  gateList[gateNumbers[_gateNumber]] */\n      dup5\n      mstore\n      dup4\n      dup4\n      mstore\n      swap3\n      dup7\n      swap1\n      keccak256\n        /* \"Contracts/TTSwapV1Gator.sol\":6016:6057  return gateList[gateNumbers[_gateNumber]] */\n      dup7\n      mload\n      swap5\n      dup6\n      add\n      dup8\n      mstore\n      dup1\n      sload\n      sub(shl(0x80, 0x01), 0x01)\n      and\n      dup6\n      mstore\n      swap1\n      dup2\n      add\n      sload\n      swap1\n      swap3\n      and\n      swap1\n      dup4\n      add\n      mstore\n      0x02\n      dup2\n      add\n      dup1\n      sload\n      swap4\n      swap5\n      swap3\n      swap4\n        /* \"Contracts/TTSwapV1Gator.sol\":6023:6057  gateList[gateNumbers[_gateNumber]] */\n      swap2\n      swap3\n        /* \"Contracts/TTSwapV1Gator.sol\":6016:6057  return gateList[gateNumbers[_gateNumber]] */\n      dup5\n      add\n      swap2\n      tag_140\n      swap1\n      tag_104\n      jump\t// in\n    tag_140:\n      dup1\n      0x1f\n      add\n      0x20\n      dup1\n      swap2\n      div\n      mul\n      0x20\n      add\n      mload(0x40)\n      swap1\n      dup2\n      add\n      0x40\n      mstore\n      dup1\n      swap3\n      swap2\n      swap1\n      dup2\n      dup2\n      mstore\n      0x20\n      add\n      dup3\n      dup1\n      sload\n      tag_141\n      swap1\n      tag_104\n      jump\t// in\n    tag_141:\n      dup1\n      iszero\n      tag_142\n      jumpi\n      dup1\n      0x1f\n      lt\n      tag_143\n      jumpi\n      0x0100\n      dup1\n      dup4\n      sload\n      div\n      mul\n      dup4\n      mstore\n      swap2\n      0x20\n      add\n      swap2\n      jump(tag_142)\n    tag_143:\n      dup3\n      add\n      swap2\n      swap1\n      0x00\n      mstore\n      keccak256(0x00, 0x20)\n      swap1\n    tag_144:\n      dup2\n      sload\n      dup2\n      mstore\n      swap1\n      0x01\n      add\n      swap1\n      0x20\n      add\n      dup1\n      dup4\n      gt\n      tag_144\n      jumpi\n      dup3\n      swap1\n      sub\n      0x1f\n      and\n      dup3\n      add\n      swap2\n    tag_142:\n      pop\n      pop\n      pop\n      swap2\n      dup4\n      mstore\n      pop\n      pop\n      0x03\n      dup3\n      add\n      sload\n      0x20\n      dup3\n      add\n      mstore\n      0x04\n      swap1\n      swap2\n      add\n      sload\n      0xff\n      dup1\n      dup3\n      and\n      iszero\n      iszero\n      0x40\n      dup5\n      add\n      mstore\n      0x0100\n      dup3\n      div\n      dup2\n      and\n      iszero\n      iszero\n      0x60\n      dup5\n      add\n      mstore\n      0x010000\n      swap1\n      swap2\n      div\n      and\n      iszero\n      iszero\n      0x80\n      swap1\n      swap2\n      add\n      mstore\n      swap3\n        /* \"Contracts/TTSwapV1Gator.sol\":5900:6064  function getGaterInfo(... */\n      swap2\n      pop\n      pop\n      jump\t// out\n        /* \"Contracts/TTSwapV1Gator.sol\":2258:2803  function updateGatebyMarketor(... */\n    tag_72:\n        /* \"Contracts/TTSwapV1Gator.sol\":1197:1296  IMarketorV1State(marketorContractAddress).isValidMarketor(... */\n      mload(0x40)\n      shl(0xe5, 0x038c3329)\n      dup2\n      mstore\n        /* \"Contracts/TTSwapV1Gator.sol\":1272:1282  msg.sender */\n      caller\n        /* \"Contracts/TTSwapV1Gator.sol\":1197:1296  IMarketorV1State(marketorContractAddress).isValidMarketor(... */\n      0x04\n      dup3\n      add\n        /* \"#utility.yul\":752:803   */\n      mstore\n        /* \"Contracts/TTSwapV1Gator.sol\":1214:1237  marketorContractAddress */\n      immutable(\"0x731dc163f73d31d8c68f9917ce4ff967753939f70432973c04fd2c2a48148607\")\n      sub(shl(0xa0, 0x01), 0x01)\n        /* \"Contracts/TTSwapV1Gator.sol\":1197:1254  IMarketorV1State(marketorContractAddress).isValidMarketor */\n      and\n      swap1\n      0x71866520\n      swap1\n        /* \"#utility.yul\":725:743   */\n      0x24\n      add\n        /* \"Contracts/TTSwapV1Gator.sol\":1197:1296  IMarketorV1State(marketorContractAddress).isValidMarketor(... */\n      0x20\n      mload(0x40)\n      dup1\n      dup4\n      sub\n      dup2\n      dup7\n      gas\n      staticcall\n      iszero\n      dup1\n      iszero\n      tag_148\n      jumpi\n      returndatasize\n      0x00\n      dup1\n      returndatacopy\n      revert(0x00, returndatasize)\n    tag_148:\n      pop\n      pop\n      pop\n      pop\n      mload(0x40)\n      returndatasize\n      not(0x1f)\n      0x1f\n      dup3\n      add\n      and\n      dup3\n      add\n      dup1\n      0x40\n      mstore\n      pop\n      dup2\n      add\n      swap1\n      tag_149\n      swap2\n      swap1\n      tag_128\n      jump\t// in\n    tag_149:\n        /* \"Contracts/TTSwapV1Gator.sol\":1176:1338  require(... */\n      tag_150\n      jumpi\n      mload(0x40)\n      shl(0xe5, 0x461bcd)\n      dup2\n      mstore\n      0x04\n      add\n      tag_100\n      swap1\n      tag_131\n      jump\t// in\n    tag_150:\n        /* \"Contracts/TTSwapV1Gator.sol\":2399:2417  _gator.gateAddress */\n      0x20\n      dup2\n      dup2\n      add\n      mload\n      sub(shl(0xa0, 0x01), 0x01)\n        /* \"Contracts/TTSwapV1Gator.sol\":2390:2418  gateList[_gator.gateAddress] */\n      and\n        /* \"Contracts/TTSwapV1Gator.sol\":2390:2398  gateList */\n      0x00\n        /* \"Contracts/TTSwapV1Gator.sol\":2390:2418  gateList[_gator.gateAddress] */\n      swap1\n      dup2\n      mstore\n      swap1\n      dup2\n      swap1\n      mstore\n      0x40\n      swap1\n      keccak256\n        /* \"Contracts/TTSwapV1Gator.sol\":2390:2425  gateList[_gator.gateAddress].isUsed */\n      0x04\n      add\n      sload\n      0x010000\n      swap1\n      div\n      0xff\n      and\n        /* \"Contracts/TTSwapV1Gator.sol\":2390:2433  gateList[_gator.gateAddress].isUsed == true */\n      iszero\n      iszero\n        /* \"Contracts/TTSwapV1Gator.sol\":2429:2433  true */\n      0x01\n        /* \"Contracts/TTSwapV1Gator.sol\":2390:2433  gateList[_gator.gateAddress].isUsed == true */\n      eq\n        /* \"Contracts/TTSwapV1Gator.sol\":2369:2479  require(... */\n      tag_153\n      jumpi\n      mload(0x40)\n      shl(0xe5, 0x461bcd)\n      dup2\n      mstore\n      0x04\n      add\n      tag_100\n      swap1\n      tag_115\n      jump\t// in\n    tag_153:\n        /* \"Contracts/TTSwapV1Gator.sol\":2520:2538  _gator.gateAddress */\n      0x20\n      dup2\n      dup2\n      add\n      dup1\n      mload\n      sub(shl(0xa0, 0x01), 0x01)\n        /* \"Contracts/TTSwapV1Gator.sol\":2511:2539  gateList[_gator.gateAddress] */\n      swap1\n      dup2\n      and\n        /* \"Contracts/TTSwapV1Gator.sol\":2511:2519  gateList */\n      0x00\n        /* \"Contracts/TTSwapV1Gator.sol\":2511:2539  gateList[_gator.gateAddress] */\n      swap1\n      dup2\n      mstore\n      dup1\n      dup5\n      mstore\n      0x40\n      dup1\n      dup3\n      keccak256\n        /* \"Contracts/TTSwapV1Gator.sol\":2511:2552  gateList[_gator.gateAddress].marketunlock */\n      0x04\n      swap1\n      dup2\n      add\n      sload\n      0xff\n      swap1\n      dup2\n      and\n        /* \"Contracts/TTSwapV1Gator.sol\":2489:2552  _gator.marketunlock = gateList[_gator.gateAddress].marketunlock */\n      iszero\n      iszero\n        /* \"Contracts/TTSwapV1Gator.sol\":2489:2508  _gator.marketunlock */\n      0x80\n      dup10\n      add\n        /* \"Contracts/TTSwapV1Gator.sol\":2489:2552  _gator.marketunlock = gateList[_gator.gateAddress].marketunlock */\n      mstore\n        /* \"Contracts/TTSwapV1Gator.sol\":2591:2609  _gator.gateAddress */\n      dup6\n      mload\n        /* \"Contracts/TTSwapV1Gator.sol\":2582:2610  gateList[_gator.gateAddress] */\n      dup6\n      and\n      dup5\n      mstore\n      dup4\n      dup8\n      mstore\n      dup3\n      dup5\n      keccak256\n        /* \"Contracts/TTSwapV1Gator.sol\":2582:2621  gateList[_gator.gateAddress].gateunlock */\n      swap1\n      swap2\n      add\n      sload\n        /* \"Contracts/TTSwapV1Gator.sol\":2511:2552  gateList[_gator.gateAddress].marketunlock */\n      0x0100\n        /* \"Contracts/TTSwapV1Gator.sol\":2582:2621  gateList[_gator.gateAddress].gateunlock */\n      swap1\n      div\n      and\n        /* \"Contracts/TTSwapV1Gator.sol\":2562:2621  _gator.gateunlock = gateList[_gator.gateAddress].gateunlock */\n      iszero\n      iszero\n        /* \"Contracts/TTSwapV1Gator.sol\":2562:2579  _gator.gateunlock */\n      0xa0\n      dup8\n      add\n        /* \"Contracts/TTSwapV1Gator.sol\":2562:2621  _gator.gateunlock = gateList[_gator.gateAddress].gateunlock */\n      mstore\n        /* \"Contracts/TTSwapV1Gator.sol\":2640:2658  _gator.gateAddress */\n      dup4\n      mload\n        /* \"Contracts/TTSwapV1Gator.sol\":2631:2659  gateList[_gator.gateAddress] */\n      dup4\n      and\n      dup3\n      mstore\n      swap4\n      dup2\n      swap1\n      mstore\n      dup4\n      swap1\n      keccak256\n        /* \"Contracts/TTSwapV1Gator.sol\":2631:2668  gateList[_gator.gateAddress] = _gator */\n      dup5\n      mload\n      dup2\n      sload\n      not(sub(shl(0x80, 0x01), 0x01))\n      and\n      sub(shl(0x80, 0x01), 0x01)\n      swap1\n      swap2\n      and\n      or\n      dup2\n      sstore\n      swap2\n      mload\n      0x01\n      dup4\n      add\n      dup1\n      sload\n      not(sub(shl(0xa0, 0x01), 0x01))\n      and\n      swap2\n      swap1\n      swap3\n      and\n      or\n      swap1\n      sstore\n      swap1\n      dup3\n      add\n      mload\n        /* \"Contracts/TTSwapV1Gator.sol\":2520:2538  _gator.gateAddress */\n      dup3\n      swap2\n        /* \"Contracts/TTSwapV1Gator.sol\":2631:2659  gateList[_gator.gateAddress] */\n      swap1\n        /* \"Contracts/TTSwapV1Gator.sol\":2631:2668  gateList[_gator.gateAddress] = _gator */\n      0x02\n      dup3\n      add\n      swap1\n      tag_155\n      swap1\n      dup3\n      tag_120\n      jump\t// in\n    tag_155:\n      pop\n      0x60\n      dup3\n      add\n      mload\n      0x03\n      dup3\n      add\n      sstore\n      0x80\n      dup3\n      add\n      mload\n      0x04\n      swap1\n      swap2\n      add\n      dup1\n      sload\n      0xa0\n      dup5\n      add\n      mload\n      0xc0\n      swap1\n      swap5\n      add\n      mload\n      iszero\n      iszero\n      0x010000\n      mul\n      not(0xff0000)\n      swap5\n      iszero\n      iszero\n      0x0100\n      mul\n      not(0xff00)\n      swap5\n      iszero\n      iszero\n      swap5\n      swap1\n      swap5\n      and\n      not(0xffff)\n      swap1\n      swap3\n      and\n      swap2\n      swap1\n      swap2\n      or\n      swap3\n      swap1\n      swap3\n      or\n      swap3\n      swap1\n      swap3\n      and\n      or\n      swap1\n      sstore\n        /* \"Contracts/TTSwapV1Gator.sol\":2719:2737  _gator.gateAddress */\n      0x20\n      dup2\n      add\n      mload\n        /* \"Contracts/TTSwapV1Gator.sol\":2751:2762  _gator.name */\n      0x40\n      dup1\n      dup4\n      add\n      mload\n        /* \"Contracts/TTSwapV1Gator.sol\":2683:2796  e_updateGatebyMarketor(... */\n      swap1\n      mload\n      0xfa648c383832609827e2704dc27852742c362e9716571d853d2adbd2b75f3cd5\n      swap3\n      tag_121\n      swap3\n        /* \"Contracts/TTSwapV1Gator.sol\":2719:2737  _gator.gateAddress */\n      swap1\n      swap2\n        /* \"Contracts/TTSwapV1Gator.sol\":2776:2786  msg.sender */\n      caller\n      swap1\n        /* \"Contracts/TTSwapV1Gator.sol\":2683:2796  e_updateGatebyMarketor(... */\n      tag_157\n      jump\t// in\n        /* \"Contracts/TTSwapV1Gator.sol\":1508:1843  function lockGatebyMarketor(... */\n    tag_75:\n        /* \"Contracts/TTSwapV1Gator.sol\":1197:1296  IMarketorV1State(marketorContractAddress).isValidMarketor(... */\n      mload(0x40)\n      shl(0xe5, 0x038c3329)\n      dup2\n      mstore\n        /* \"Contracts/TTSwapV1Gator.sol\":1272:1282  msg.sender */\n      caller\n        /* \"Contracts/TTSwapV1Gator.sol\":1197:1296  IMarketorV1State(marketorContractAddress).isValidMarketor(... */\n      0x04\n      dup3\n      add\n        /* \"#utility.yul\":752:803   */\n      mstore\n        /* \"Contracts/TTSwapV1Gator.sol\":1214:1237  marketorContractAddress */\n      immutable(\"0x731dc163f73d31d8c68f9917ce4ff967753939f70432973c04fd2c2a48148607\")\n      sub(shl(0xa0, 0x01), 0x01)\n        /* \"Contracts/TTSwapV1Gator.sol\":1197:1254  IMarketorV1State(marketorContractAddress).isValidMarketor */\n      and\n      swap1\n      0x71866520\n      swap1\n        /* \"#utility.yul\":725:743   */\n      0x24\n      add\n        /* \"Contracts/TTSwapV1Gator.sol\":1197:1296  IMarketorV1State(marketorContractAddress).isValidMarketor(... */\n      0x20\n      mload(0x40)\n      dup1\n      dup4\n      sub\n      dup2\n      dup7\n      gas\n      staticcall\n      iszero\n      dup1\n      iszero\n      tag_161\n      jumpi\n      returndatasize\n      0x00\n      dup1\n      returndatacopy\n      revert(0x00, returndatasize)\n    tag_161:\n      pop\n      pop\n      pop\n      pop\n      mload(0x40)\n      returndatasize\n      not(0x1f)\n      0x1f\n      dup3\n      add\n      and\n      dup3\n      add\n      dup1\n      0x40\n      mstore\n      pop\n      dup2\n      add\n      swap1\n      tag_162\n      swap2\n      swap1\n      tag_128\n      jump\t// in\n    tag_162:\n        /* \"Contracts/TTSwapV1Gator.sol\":1176:1338  require(... */\n      tag_163\n      jumpi\n      mload(0x40)\n      shl(0xe5, 0x461bcd)\n      dup2\n      mstore\n      0x04\n      add\n      tag_100\n      swap1\n      tag_131\n      jump\t// in\n    tag_163:\n      sub(shl(0xa0, 0x01), 0x01)\n        /* \"Contracts/TTSwapV1Gator.sol\":1635:1658  gateList[_gatoraddress] */\n      dup2\n      and\n        /* \"Contracts/TTSwapV1Gator.sol\":1635:1643  gateList */\n      0x00\n        /* \"Contracts/TTSwapV1Gator.sol\":1635:1658  gateList[_gatoraddress] */\n      swap1\n      dup2\n      mstore\n      0x20\n      dup2\n      swap1\n      mstore\n      0x40\n      swap1\n      keccak256\n        /* \"Contracts/TTSwapV1Gator.sol\":1635:1665  gateList[_gatoraddress].isUsed */\n      0x04\n      add\n      sload\n      0x010000\n      swap1\n      div\n      0xff\n      and\n        /* \"Contracts/TTSwapV1Gator.sol\":1635:1673  gateList[_gatoraddress].isUsed == true */\n      iszero\n      iszero\n        /* \"Contracts/TTSwapV1Gator.sol\":1669:1673  true */\n      0x01\n        /* \"Contracts/TTSwapV1Gator.sol\":1635:1673  gateList[_gatoraddress].isUsed == true */\n      eq\n        /* \"Contracts/TTSwapV1Gator.sol\":1614:1720  require(... */\n      tag_166\n      jumpi\n      mload(0x40)\n      shl(0xe5, 0x461bcd)\n      dup2\n      mstore\n      0x04\n      add\n      tag_100\n      swap1\n      tag_101\n      jump\t// in\n    tag_166:\n      sub(shl(0xa0, 0x01), 0x01)\n        /* \"Contracts/TTSwapV1Gator.sol\":1730:1753  gateList[_gatoraddress] */\n      dup2\n      and\n        /* \"Contracts/TTSwapV1Gator.sol\":1769:1774  false */\n      0x00\n        /* \"Contracts/TTSwapV1Gator.sol\":1730:1753  gateList[_gatoraddress] */\n      dup2\n      dup2\n      mstore\n      0x20\n      dup2\n      dup2\n      mstore\n      0x40\n      swap2\n      dup3\n      swap1\n      keccak256\n        /* \"Contracts/TTSwapV1Gator.sol\":1730:1766  gateList[_gatoraddress].marketunlock */\n      0x04\n      add\n        /* \"Contracts/TTSwapV1Gator.sol\":1730:1774  gateList[_gatoraddress].marketunlock = false */\n      dup1\n      sload\n      not(0xff)\n      and\n      swap1\n      sstore\n        /* \"Contracts/TTSwapV1Gator.sol\":1789:1836  e_lockGatebyMarketor(_gatoraddress, msg.sender) */\n      dup2\n      mload\n        /* \"#utility.yul\":10930:10964   */\n      swap3\n      dup4\n      mstore\n        /* \"Contracts/TTSwapV1Gator.sol\":1825:1835  msg.sender */\n      caller\n        /* \"#utility.yul\":10980:10998   */\n      swap1\n      dup4\n      add\n        /* \"#utility.yul\":10973:11016   */\n      mstore\n        /* \"Contracts/TTSwapV1Gator.sol\":1789:1836  e_lockGatebyMarketor(_gatoraddress, msg.sender) */\n      0x54ca41dd8de3ebb98f98a5f6fb0390d8f2c691921355f6657ae3b2f5b56a881b\n      swap2\n        /* \"#utility.yul\":10865:10883   */\n      add\n        /* \"Contracts/TTSwapV1Gator.sol\":1789:1836  e_lockGatebyMarketor(_gatoraddress, msg.sender) */\n      tag_121\n        /* \"#utility.yul\":10718:11022   */\n      jump\n        /* \"Contracts/TTSwapV1Gator.sol\":2809:3052  function delGatebyMarketor(address _gator) external override onlyMarketor {... */\n    tag_81:\n        /* \"Contracts/TTSwapV1Gator.sol\":1197:1296  IMarketorV1State(marketorContractAddress).isValidMarketor(... */\n      mload(0x40)\n      shl(0xe5, 0x038c3329)\n      dup2\n      mstore\n        /* \"Contracts/TTSwapV1Gator.sol\":1272:1282  msg.sender */\n      caller\n        /* \"Contracts/TTSwapV1Gator.sol\":1197:1296  IMarketorV1State(marketorContractAddress).isValidMarketor(... */\n      0x04\n      dup3\n      add\n        /* \"#utility.yul\":752:803   */\n      mstore\n        /* \"Contracts/TTSwapV1Gator.sol\":1214:1237  marketorContractAddress */\n      immutable(\"0x731dc163f73d31d8c68f9917ce4ff967753939f70432973c04fd2c2a48148607\")\n      sub(shl(0xa0, 0x01), 0x01)\n        /* \"Contracts/TTSwapV1Gator.sol\":1197:1254  IMarketorV1State(marketorContractAddress).isValidMarketor */\n      and\n      swap1\n      0x71866520\n      swap1\n        /* \"#utility.yul\":725:743   */\n      0x24\n      add\n        /* \"Contracts/TTSwapV1Gator.sol\":1197:1296  IMarketorV1State(marketorContractAddress).isValidMarketor(... */\n      0x20\n      mload(0x40)\n      dup1\n      dup4\n      sub\n      dup2\n      dup7\n      gas\n      staticcall\n      iszero\n      dup1\n      iszero\n      tag_173\n      jumpi\n      returndatasize\n      0x00\n      dup1\n      returndatacopy\n      revert(0x00, returndatasize)\n    tag_173:\n      pop\n      pop\n      pop\n      pop\n      mload(0x40)\n      returndatasize\n      not(0x1f)\n      0x1f\n      dup3\n      add\n      and\n      dup3\n      add\n      dup1\n      0x40\n      mstore\n      pop\n      dup2\n      add\n      swap1\n      tag_174\n      swap2\n      swap1\n      tag_128\n      jump\t// in\n    tag_174:\n        /* \"Contracts/TTSwapV1Gator.sol\":1176:1338  require(... */\n      tag_175\n      jumpi\n      mload(0x40)\n      shl(0xe5, 0x461bcd)\n      dup2\n      mstore\n      0x04\n      add\n      tag_100\n      swap1\n      tag_131\n      jump\t// in\n    tag_175:\n      sub(shl(0xa0, 0x01), 0x01)\n        /* \"Contracts/TTSwapV1Gator.sol\":2901:2917  gateList[_gator] */\n      dup2\n      and\n        /* \"Contracts/TTSwapV1Gator.sol\":2901:2909  gateList */\n      0x00\n        /* \"Contracts/TTSwapV1Gator.sol\":2901:2917  gateList[_gator] */\n      swap1\n      dup2\n      mstore\n      0x20\n      dup2\n      swap1\n      mstore\n      0x40\n      swap1\n      keccak256\n        /* \"Contracts/TTSwapV1Gator.sol\":2901:2924  gateList[_gator].isUsed */\n      0x04\n      add\n      sload\n      0x010000\n      swap1\n      div\n      0xff\n      and\n        /* \"Contracts/TTSwapV1Gator.sol\":2901:2932  gateList[_gator].isUsed == true */\n      iszero\n      iszero\n        /* \"Contracts/TTSwapV1Gator.sol\":2928:2932  true */\n      0x01\n        /* \"Contracts/TTSwapV1Gator.sol\":2901:2932  gateList[_gator].isUsed == true */\n      eq\n        /* \"Contracts/TTSwapV1Gator.sol\":2893:2957  require(gateList[_gator].isUsed == true, \"the gator is exister\") */\n      tag_178\n      jumpi\n      mload(0x40)\n      shl(0xe5, 0x461bcd)\n      dup2\n      mstore\n      0x04\n      add\n      tag_100\n      swap1\n      tag_115\n      jump\t// in\n    tag_178:\n      sub(shl(0xa0, 0x01), 0x01)\n        /* \"Contracts/TTSwapV1Gator.sol\":2975:2991  gateList[_gator] */\n      dup2\n      and\n        /* \"Contracts/TTSwapV1Gator.sol\":2975:2983  gateList */\n      0x00\n        /* \"Contracts/TTSwapV1Gator.sol\":2975:2991  gateList[_gator] */\n      swap1\n      dup2\n      mstore\n      0x20\n      dup2\n      swap1\n      mstore\n      0x40\n      dup2\n      keccak256\n        /* \"Contracts/TTSwapV1Gator.sol\":2968:2991  delete gateList[_gator] */\n      dup1\n      sload\n      not(sub(shl(0x80, 0x01), 0x01))\n      and\n      dup2\n      sstore\n      0x01\n      dup2\n      add\n      dup1\n      sload\n      not(sub(shl(0xa0, 0x01), 0x01))\n      and\n      swap1\n      sstore\n        /* \"Contracts/TTSwapV1Gator.sol\":2975:2991  gateList[_gator] */\n      swap1\n        /* \"Contracts/TTSwapV1Gator.sol\":2968:2991  delete gateList[_gator] */\n      tag_180\n      0x02\n      dup4\n      add\n        /* \"Contracts/TTSwapV1Gator.sol\":2975:2983  gateList */\n      dup3\n        /* \"Contracts/TTSwapV1Gator.sol\":2968:2991  delete gateList[_gator] */\n      tag_181\n      jump\t// in\n    tag_180:\n      pop\n      0x00\n      0x03\n      dup3\n      add\n      sstore\n      0x04\n      add\n      dup1\n      sload\n      not(0xffffff)\n      and\n      swap1\n      sstore\n        /* \"Contracts/TTSwapV1Gator.sol\":3006:3045  e_delGatebyMarketor(_gator, msg.sender) */\n      0x40\n      dup1\n      mload\n      sub(shl(0xa0, 0x01), 0x01)\n        /* \"#utility.yul\":10948:10963   */\n      dup4\n      and\n        /* \"#utility.yul\":10930:10964   */\n      dup2\n      mstore\n        /* \"Contracts/TTSwapV1Gator.sol\":3034:3044  msg.sender */\n      caller\n        /* \"#utility.yul\":10995:10997   */\n      0x20\n        /* \"#utility.yul\":10980:10998   */\n      dup3\n      add\n        /* \"#utility.yul\":10973:11016   */\n      mstore\n        /* \"Contracts/TTSwapV1Gator.sol\":3006:3045  e_delGatebyMarketor(_gator, msg.sender) */\n      0xa36348788e76a7600444ed49ae6c1099ab91d47dfb810828281289ef9cfc2e51\n      swap2\n        /* \"#utility.yul\":10865:10883   */\n      add\n        /* \"Contracts/TTSwapV1Gator.sol\":3006:3045  e_delGatebyMarketor(_gator, msg.sender) */\n      tag_121\n        /* \"#utility.yul\":10718:11022   */\n      jump\n        /* \"Contracts/TTSwapV1Gator.sol\":4527:5338  function addGater(LGate.Info memory _gator) external override {... */\n    tag_88:\n        /* \"Contracts/TTSwapV1Gator.sol\":4629:4647  _gator.gateAddress */\n      0x20\n      dup2\n      dup2\n      add\n      mload\n      sub(shl(0xa0, 0x01), 0x01)\n        /* \"Contracts/TTSwapV1Gator.sol\":4620:4648  gateList[_gator.gateAddress] */\n      and\n        /* \"Contracts/TTSwapV1Gator.sol\":4620:4628  gateList */\n      0x00\n        /* \"Contracts/TTSwapV1Gator.sol\":4620:4648  gateList[_gator.gateAddress] */\n      swap1\n      dup2\n      mstore\n      swap1\n      dup2\n      swap1\n      mstore\n      0x40\n      swap1\n      keccak256\n        /* \"Contracts/TTSwapV1Gator.sol\":4620:4655  gateList[_gator.gateAddress].isUsed */\n      0x04\n      add\n      sload\n      0x010000\n      swap1\n      div\n      0xff\n      and\n        /* \"Contracts/TTSwapV1Gator.sol\":4620:4663  gateList[_gator.gateAddress].isUsed != true */\n      iszero\n      iszero\n        /* \"Contracts/TTSwapV1Gator.sol\":4659:4663  true */\n      0x01\n        /* \"Contracts/TTSwapV1Gator.sol\":4620:4663  gateList[_gator.gateAddress].isUsed != true */\n      sub\n        /* \"Contracts/TTSwapV1Gator.sol\":4599:4709  require(... */\n      tag_185\n      jumpi\n      mload(0x40)\n      shl(0xe5, 0x461bcd)\n      dup2\n      mstore\n      0x04\n      add\n      tag_100\n      swap1\n      tag_115\n      jump\t// in\n    tag_185:\n        /* \"Contracts/TTSwapV1Gator.sol\":4727:4745  _gator.gateAddress */\n      0x20\n      dup2\n      add\n      mload\n      sub(shl(0xa0, 0x01), 0x01)\n        /* \"Contracts/TTSwapV1Gator.sol\":4727:4759  _gator.gateAddress == msg.sender */\n      and\n        /* \"Contracts/TTSwapV1Gator.sol\":4749:4759  msg.sender */\n      caller\n        /* \"Contracts/TTSwapV1Gator.sol\":4727:4759  _gator.gateAddress == msg.sender */\n      eq\n        /* \"Contracts/TTSwapV1Gator.sol\":4719:4781  require(_gator.gateAddress == msg.sender, \"the gator is your\") */\n      tag_187\n      jumpi\n      mload(0x40)\n      shl(0xe5, 0x461bcd)\n      dup2\n      mstore\n      0x04\n      add\n      tag_100\n      swap1\n      tag_118\n      jump\t// in\n    tag_187:\n        /* \"Contracts/TTSwapV1Gator.sol\":4814:4819  false */\n      0x00\n        /* \"Contracts/TTSwapV1Gator.sol\":4792:4811  _gator.marketunlock */\n      0x80\n      dup3\n      add\n        /* \"Contracts/TTSwapV1Gator.sol\":4792:4819  _gator.marketunlock = false */\n      dup2\n      swap1\n      mstore\n        /* \"Contracts/TTSwapV1Gator.sol\":4856:4873  _gator.gateunlock */\n      0xa0\n      dup3\n      add\n        /* \"Contracts/TTSwapV1Gator.sol\":4856:4881  _gator.gateunlock = false */\n      mstore\n        /* \"Contracts/TTSwapV1Gator.sol\":4934:4948  maxGateNumbers */\n      and(sub(shl(0x80, 0x01), 0x01), sload(0x02))\n        /* \"Contracts/TTSwapV1Gator.sol\":4918:4948  _gator.gateNo = maxGateNumbers */\n      dup1\n      dup3\n      mstore\n        /* \"Contracts/TTSwapV1Gator.sol\":4998:5013  block.timestamp */\n      timestamp\n        /* \"Contracts/TTSwapV1Gator.sol\":4973:4995  _gator.createtimestamp */\n      0x60\n      dup4\n      add\n        /* \"Contracts/TTSwapV1Gator.sol\":4973:5013  _gator.createtimestamp = block.timestamp */\n      mstore\n        /* \"Contracts/TTSwapV1Gator.sol\":5046:5064  maxGateNumbers + 1 */\n      tag_189\n        /* \"Contracts/TTSwapV1Gator.sol\":4934:4948  maxGateNumbers */\n      dup2\n        /* \"Contracts/TTSwapV1Gator.sol\":4792:4819  _gator.marketunlock = false */\n      0x01\n        /* \"Contracts/TTSwapV1Gator.sol\":5046:5064  maxGateNumbers + 1 */\n      tag_190\n      jump\t// in\n    tag_189:\n      sub(shl(0x80, 0x01), 0x01)\n        /* \"Contracts/TTSwapV1Gator.sol\":5046:5081  maxGateNumbers + 1 > maxGateNumbers */\n      and\n      gt\n        /* \"Contracts/TTSwapV1Gator.sol\":5038:5103  require(maxGateNumbers + 1 > maxGateNumbers, \"the gator is your\") */\n      tag_191\n      jumpi\n      mload(0x40)\n      shl(0xe5, 0x461bcd)\n      dup2\n      mstore\n      0x04\n      add\n      tag_100\n      swap1\n      tag_118\n      jump\t// in\n    tag_191:\n        /* \"Contracts/TTSwapV1Gator.sol\":5122:5140  _gator.gateAddress */\n      0x20\n      dup2\n      dup2\n      add\n      dup1\n      mload\n      sub(shl(0xa0, 0x01), 0x01)\n        /* \"Contracts/TTSwapV1Gator.sol\":5113:5141  gateList[_gator.gateAddress] */\n      swap1\n      dup2\n      and\n        /* \"Contracts/TTSwapV1Gator.sol\":5113:5121  gateList */\n      0x00\n        /* \"Contracts/TTSwapV1Gator.sol\":5113:5141  gateList[_gator.gateAddress] */\n      swap1\n      dup2\n      mstore\n      swap3\n      dup4\n      swap1\n      mstore\n      0x40\n      swap3\n      dup4\n      swap1\n      keccak256\n        /* \"Contracts/TTSwapV1Gator.sol\":5113:5150  gateList[_gator.gateAddress] = _gator */\n      dup5\n      mload\n      dup2\n      sload\n      not(sub(shl(0x80, 0x01), 0x01))\n      and\n      sub(shl(0x80, 0x01), 0x01)\n      swap1\n      swap2\n      and\n      or\n      dup2\n      sstore\n      swap2\n      mload\n      0x01\n      dup4\n      add\n      dup1\n      sload\n      not(sub(shl(0xa0, 0x01), 0x01))\n      and\n      swap2\n      swap1\n      swap3\n      and\n      or\n      swap1\n      sstore\n      swap1\n      dup3\n      add\n      mload\n        /* \"Contracts/TTSwapV1Gator.sol\":5122:5140  _gator.gateAddress */\n      dup3\n      swap2\n        /* \"Contracts/TTSwapV1Gator.sol\":5113:5141  gateList[_gator.gateAddress] */\n      swap1\n        /* \"Contracts/TTSwapV1Gator.sol\":5113:5150  gateList[_gator.gateAddress] = _gator */\n      0x02\n      dup3\n      add\n      swap1\n      tag_193\n      swap1\n      dup3\n      tag_120\n      jump\t// in\n    tag_193:\n      pop\n      0x60\n      dup3\n      add\n      mload\n      0x03\n      dup3\n      add\n      sstore\n      0x80\n      dup3\n      add\n      mload\n      0x04\n      swap1\n      swap2\n      add\n      dup1\n      sload\n      0xa0\n      dup5\n      add\n      mload\n      0xc0\n      swap1\n      swap5\n      add\n      mload\n      not(0xffff)\n      swap1\n      swap2\n      and\n      swap3\n      iszero\n      iszero\n      not(0xff00)\n      and\n      swap3\n      swap1\n      swap3\n      or\n      0x0100\n      swap4\n      iszero\n      iszero\n      swap4\n      swap1\n      swap4\n      mul\n      swap3\n      swap1\n      swap3\n      or\n      not(0xff0000)\n      and\n      0x010000\n      swap2\n      iszero\n      iszero\n      swap2\n      swap1\n      swap2\n      mul\n      or\n      swap1\n      sstore\n        /* \"Contracts/TTSwapV1Gator.sol\":5226:5244  _gator.gateAddress */\n      0x20\n      dup2\n      dup2\n      add\n      mload\n        /* \"Contracts/TTSwapV1Gator.sol\":5113:5150  gateList[_gator.gateAddress] = _gator */\n      0x02\n        /* \"Contracts/TTSwapV1Gator.sol\":5208:5222  maxGateNumbers */\n      dup1\n      sload\n      sub(shl(0x80, 0x01), 0x01)\n      swap1\n      dup2\n      and\n      0x00\n        /* \"Contracts/TTSwapV1Gator.sol\":5196:5223  gateNumbers[maxGateNumbers] */\n      swap1\n      dup2\n      mstore\n      0x01\n      swap5\n      dup6\n      swap1\n      mstore\n      0x40\n      dup2\n      keccak256\n        /* \"Contracts/TTSwapV1Gator.sol\":5196:5244  gateNumbers[maxGateNumbers] = _gator.gateAddress */\n      dup1\n      sload\n      not(sub(shl(0xa0, 0x01), 0x01))\n      and\n      sub(shl(0xa0, 0x01), 0x01)\n      swap1\n      swap6\n      and\n      swap5\n      swap1\n      swap5\n      or\n      swap1\n      swap4\n      sstore\n        /* \"Contracts/TTSwapV1Gator.sol\":5254:5273  maxGateNumbers += 1 */\n      dup2\n      sload\n        /* \"Contracts/TTSwapV1Gator.sol\":5113:5150  gateList[_gator.gateAddress] = _gator */\n      swap2\n      swap3\n      swap2\n        /* \"Contracts/TTSwapV1Gator.sol\":5254:5273  maxGateNumbers += 1 */\n      tag_194\n      swap2\n      dup6\n      swap2\n      and\n      tag_190\n      jump\t// in\n    tag_194:\n      swap3\n      pop\n      0x0100\n      exp\n      dup2\n      sload\n      dup2\n      sub(shl(0x80, 0x01), 0x01)\n      mul\n      not\n      and\n      swap1\n      dup4\n      sub(shl(0x80, 0x01), 0x01)\n      and\n      mul\n      or\n      swap1\n      sstore\n      pop\n        /* \"Contracts/TTSwapV1Gator.sol\":5288:5331  e_addGater(_gator.gateAddress, _gator.name) */\n      0x9f65233eba02d5215f3d26f2235b1e8b55f1ef8a9e49b96daabf3afb9713aedf\n        /* \"Contracts/TTSwapV1Gator.sol\":5299:5305  _gator */\n      dup2\n        /* \"Contracts/TTSwapV1Gator.sol\":5299:5317  _gator.gateAddress */\n      0x20\n      add\n      mload\n        /* \"Contracts/TTSwapV1Gator.sol\":5319:5325  _gator */\n      dup3\n        /* \"Contracts/TTSwapV1Gator.sol\":5319:5330  _gator.name */\n      0x40\n      add\n      mload\n        /* \"Contracts/TTSwapV1Gator.sol\":5288:5331  e_addGater(_gator.gateAddress, _gator.name) */\n      mload(0x40)\n      tag_121\n      swap3\n      swap2\n      swap1\n      tag_122\n      jump\t// in\n        /* \"Contracts/TTSwapV1Gator.sol\":3547:3884  function unlockGatebyGater() external override onlyGator {... */\n    tag_93:\n        /* \"Contracts/TTSwapV1Gator.sol\":976:986  msg.sender */\n      caller\n        /* \"Contracts/TTSwapV1Gator.sol\":967:975  gateList */\n      0x00\n        /* \"Contracts/TTSwapV1Gator.sol\":967:987  gateList[msg.sender] */\n      swap1\n      dup2\n      mstore\n      0x20\n      dup2\n      swap1\n      mstore\n      0x40\n      swap1\n      keccak256\n        /* \"Contracts/TTSwapV1Gator.sol\":967:1000  gateList[msg.sender].marketunlock */\n      0x04\n      add\n      sload\n      0xff\n      and\n        /* \"Contracts/TTSwapV1Gator.sol\":967:1008  gateList[msg.sender].marketunlock == true */\n      iszero\n      iszero\n        /* \"Contracts/TTSwapV1Gator.sol\":967:1000  gateList[msg.sender].marketunlock */\n      0x01\n        /* \"Contracts/TTSwapV1Gator.sol\":967:1008  gateList[msg.sender].marketunlock == true */\n      eq\n        /* \"Contracts/TTSwapV1Gator.sol\":959:1009  require(gateList[msg.sender].marketunlock == true) */\n      tag_198\n      jumpi\n      0x00\n      dup1\n      revert\n    tag_198:\n        /* \"Contracts/TTSwapV1Gator.sol\":3644:3654  msg.sender */\n      caller\n        /* \"Contracts/TTSwapV1Gator.sol\":3635:3643  gateList */\n      0x00\n        /* \"Contracts/TTSwapV1Gator.sol\":3635:3655  gateList[msg.sender] */\n      swap1\n      dup2\n      mstore\n      0x20\n      dup2\n      swap1\n      mstore\n      0x40\n      swap1\n      keccak256\n        /* \"Contracts/TTSwapV1Gator.sol\":3635:3662  gateList[msg.sender].isUsed */\n      0x04\n      add\n      sload\n      0x010000\n      swap1\n      div\n      0xff\n      and\n        /* \"Contracts/TTSwapV1Gator.sol\":3635:3670  gateList[msg.sender].isUsed == true */\n      iszero\n      iszero\n        /* \"Contracts/TTSwapV1Gator.sol\":3666:3670  true */\n      0x01\n        /* \"Contracts/TTSwapV1Gator.sol\":3635:3670  gateList[msg.sender].isUsed == true */\n      eq\n        /* \"Contracts/TTSwapV1Gator.sol\":3635:3736  gateList[msg.sender].isUsed == true &&... */\n      dup1\n      iszero\n      tag_200\n      jumpi\n      pop\n        /* \"Contracts/TTSwapV1Gator.sol\":3726:3736  msg.sender */\n      caller\n        /* \"Contracts/TTSwapV1Gator.sol\":3690:3698  gateList */\n      0x00\n        /* \"Contracts/TTSwapV1Gator.sol\":3690:3710  gateList[msg.sender] */\n      dup2\n      dup2\n      mstore\n      0x20\n      dup2\n      swap1\n      mstore\n      0x40\n      swap1\n      keccak256\n        /* \"Contracts/TTSwapV1Gator.sol\":3690:3722  gateList[msg.sender].gateAddress */\n      0x01\n      add\n      sload\n      sub(shl(0xa0, 0x01), 0x01)\n      and\n        /* \"Contracts/TTSwapV1Gator.sol\":3690:3736  gateList[msg.sender].gateAddress == msg.sender */\n      eq\n        /* \"Contracts/TTSwapV1Gator.sol\":3635:3736  gateList[msg.sender].isUsed == true &&... */\n    tag_200:\n        /* \"Contracts/TTSwapV1Gator.sol\":3614:3783  require(... */\n      tag_201\n      jumpi\n      mload(0x40)\n      shl(0xe5, 0x461bcd)\n      dup2\n      mstore\n      0x04\n      add\n      tag_100\n      swap1\n      tag_101\n      jump\t// in\n    tag_201:\n        /* \"Contracts/TTSwapV1Gator.sol\":3802:3812  msg.sender */\n      caller\n        /* \"Contracts/TTSwapV1Gator.sol\":3793:3801  gateList */\n      0x00\n        /* \"Contracts/TTSwapV1Gator.sol\":3793:3813  gateList[msg.sender] */\n      dup2\n      dup2\n      mstore\n      0x20\n      dup2\n      dup2\n      mstore\n      0x40\n      swap2\n      dup3\n      swap1\n      keccak256\n        /* \"Contracts/TTSwapV1Gator.sol\":3793:3824  gateList[msg.sender].gateunlock */\n      0x04\n      add\n        /* \"Contracts/TTSwapV1Gator.sol\":3793:3831  gateList[msg.sender].gateunlock = true */\n      dup1\n      sload\n      not(0xff00)\n      and\n      0x0100\n      or\n      swap1\n      sstore\n        /* \"Contracts/TTSwapV1Gator.sol\":3846:3877  e_unlockGatebyGater(msg.sender) */\n      swap1\n      mload\n        /* \"#utility.yul\":752:803   */\n      swap2\n      dup3\n      mstore\n        /* \"Contracts/TTSwapV1Gator.sol\":3846:3877  e_unlockGatebyGater(msg.sender) */\n      0x41b29cac8375216177a0c8d96dba938910dc6a3650e7f38b04146aa1f6381131\n      swap2\n        /* \"#utility.yul\":725:743   */\n      add\n        /* \"Contracts/TTSwapV1Gator.sol\":3846:3877  e_unlockGatebyGater(msg.sender) */\n      tag_102\n        /* \"#utility.yul\":606:809   */\n      jump\n    tag_181:\n      pop\n      dup1\n      sload\n      tag_204\n      swap1\n      tag_104\n      jump\t// in\n    tag_204:\n      0x00\n      dup3\n      sstore\n      dup1\n      0x1f\n      lt\n      tag_206\n      jumpi\n      pop\n      pop\n      jump\t// out\n    tag_206:\n      0x1f\n      add\n      0x20\n      swap1\n      div\n      swap1\n      0x00\n      mstore\n      keccak256(0x00, 0x20)\n      swap1\n      dup2\n      add\n      swap1\n      tag_207\n      swap2\n      swap1\n      tag_208\n      jump\t// in\n    tag_207:\n      pop\n      jump\t// out\n    tag_208:\n    tag_209:\n      dup1\n      dup3\n      gt\n      iszero\n      tag_210\n      jumpi\n      0x00\n      dup2\n      sstore\n      0x01\n      add\n      jump(tag_209)\n    tag_210:\n      pop\n      swap1\n      jump\t// out\n        /* \"#utility.yul\":14:187   */\n    tag_211:\n        /* \"#utility.yul\":82:102   */\n      dup1\n      calldataload\n      sub(shl(0xa0, 0x01), 0x01)\n        /* \"#utility.yul\":131:162   */\n      dup2\n      and\n        /* \"#utility.yul\":121:163   */\n      dup2\n      eq\n        /* \"#utility.yul\":111:181   */\n      tag_225\n      jumpi\n        /* \"#utility.yul\":177:178   */\n      0x00\n        /* \"#utility.yul\":174:175   */\n      dup1\n        /* \"#utility.yul\":167:179   */\n      revert\n        /* \"#utility.yul\":111:181   */\n    tag_225:\n        /* \"#utility.yul\":14:187   */\n      swap2\n      swap1\n      pop\n      jump\t// out\n        /* \"#utility.yul\":192:378   */\n    tag_27:\n        /* \"#utility.yul\":251:257   */\n      0x00\n        /* \"#utility.yul\":304:306   */\n      0x20\n        /* \"#utility.yul\":292:301   */\n      dup3\n        /* \"#utility.yul\":283:290   */\n      dup5\n        /* \"#utility.yul\":279:302   */\n      sub\n        /* \"#utility.yul\":275:307   */\n      slt\n        /* \"#utility.yul\":272:324   */\n      iszero\n      tag_227\n      jumpi\n        /* \"#utility.yul\":320:321   */\n      0x00\n        /* \"#utility.yul\":317:318   */\n      dup1\n        /* \"#utility.yul\":310:322   */\n      revert\n        /* \"#utility.yul\":272:324   */\n    tag_227:\n        /* \"#utility.yul\":343:372   */\n      tag_228\n        /* \"#utility.yul\":362:371   */\n      dup3\n        /* \"#utility.yul\":343:372   */\n      tag_211\n      jump\t// in\n    tag_228:\n        /* \"#utility.yul\":333:372   */\n      swap4\n        /* \"#utility.yul\":192:378   */\n      swap3\n      pop\n      pop\n      pop\n      jump\t// out\n        /* \"#utility.yul\":814:1237   */\n    tag_212:\n        /* \"#utility.yul\":856:859   */\n      0x00\n        /* \"#utility.yul\":894:899   */\n      dup2\n        /* \"#utility.yul\":888:900   */\n      mload\n        /* \"#utility.yul\":921:927   */\n      dup1\n        /* \"#utility.yul\":916:919   */\n      dup5\n        /* \"#utility.yul\":909:928   */\n      mstore\n        /* \"#utility.yul\":946:947   */\n      0x00\n        /* \"#utility.yul\":956:1118   */\n    tag_232:\n        /* \"#utility.yul\":970:976   */\n      dup2\n        /* \"#utility.yul\":967:968   */\n      dup2\n        /* \"#utility.yul\":964:977   */\n      lt\n        /* \"#utility.yul\":956:1118   */\n      iszero\n      tag_234\n      jumpi\n        /* \"#utility.yul\":1032:1036   */\n      0x20\n        /* \"#utility.yul\":1088:1101   */\n      dup2\n      dup6\n      add\n        /* \"#utility.yul\":1084:1106   */\n      dup2\n      add\n        /* \"#utility.yul\":1078:1107   */\n      mload\n        /* \"#utility.yul\":1060:1071   */\n      dup7\n      dup4\n      add\n        /* \"#utility.yul\":1056:1076   */\n      dup3\n      add\n        /* \"#utility.yul\":1049:1108   */\n      mstore\n        /* \"#utility.yul\":985:997   */\n      add\n        /* \"#utility.yul\":956:1118   */\n      jump(tag_232)\n    tag_234:\n        /* \"#utility.yul\":960:963   */\n      pop\n        /* \"#utility.yul\":1163:1164   */\n      0x00\n        /* \"#utility.yul\":1156:1160   */\n      0x20\n        /* \"#utility.yul\":1147:1153   */\n      dup3\n        /* \"#utility.yul\":1142:1145   */\n      dup7\n        /* \"#utility.yul\":1138:1154   */\n      add\n        /* \"#utility.yul\":1134:1161   */\n      add\n        /* \"#utility.yul\":1127:1165   */\n      mstore\n        /* \"#utility.yul\":1226:1230   */\n      0x20\n        /* \"#utility.yul\":1219:1221   */\n      0x1f\n        /* \"#utility.yul\":1215:1222   */\n      not\n        /* \"#utility.yul\":1210:1212   */\n      0x1f\n        /* \"#utility.yul\":1202:1208   */\n      dup4\n        /* \"#utility.yul\":1198:1213   */\n      add\n        /* \"#utility.yul\":1194:1223   */\n      and\n        /* \"#utility.yul\":1189:1192   */\n      dup6\n        /* \"#utility.yul\":1185:1224   */\n      add\n        /* \"#utility.yul\":1181:1231   */\n      add\n        /* \"#utility.yul\":1174:1231   */\n      swap2\n      pop\n      pop\n        /* \"#utility.yul\":814:1237   */\n      swap3\n      swap2\n      pop\n      pop\n      jump\t// out\n        /* \"#utility.yul\":1338:2086   */\n    tag_41:\n      sub(shl(0x80, 0x01), 0x01)\n        /* \"#utility.yul\":1637:1684   */\n      dup9\n      and\n        /* \"#utility.yul\":1619:1685   */\n      dup2\n      mstore\n      sub(shl(0xa0, 0x01), 0x01)\n        /* \"#utility.yul\":1721:1753   */\n      dup8\n      and\n        /* \"#utility.yul\":1716:1718   */\n      0x20\n        /* \"#utility.yul\":1701:1719   */\n      dup3\n      add\n        /* \"#utility.yul\":1694:1754   */\n      mstore\n        /* \"#utility.yul\":1790:1793   */\n      0xe0\n        /* \"#utility.yul\":1785:1787   */\n      0x40\n        /* \"#utility.yul\":1770:1788   */\n      dup3\n      add\n        /* \"#utility.yul\":1763:1794   */\n      dup2\n      swap1\n      mstore\n      0x00\n      swap1\n        /* \"#utility.yul\":1811:1857   */\n      tag_237\n      swap1\n        /* \"#utility.yul\":1837:1856   */\n      dup4\n      add\n        /* \"#utility.yul\":1829:1835   */\n      dup9\n        /* \"#utility.yul\":1811:1857   */\n      tag_212\n      jump\t// in\n    tag_237:\n        /* \"#utility.yul\":1888:1890   */\n      0x60\n        /* \"#utility.yul\":1873:1891   */\n      dup4\n      add\n        /* \"#utility.yul\":1866:1900   */\n      swap7\n      swap1\n      swap7\n      mstore\n      pop\n        /* \"#utility.yul\":1944:1958   */\n      swap3\n      iszero\n        /* \"#utility.yul\":1937:1959   */\n      iszero\n        /* \"#utility.yul\":1931:1934   */\n      0x80\n        /* \"#utility.yul\":1916:1935   */\n      dup5\n      add\n        /* \"#utility.yul\":1909:1960   */\n      mstore\n        /* \"#utility.yul\":2004:2018   */\n      swap1\n      iszero\n        /* \"#utility.yul\":1997:2019   */\n      iszero\n        /* \"#utility.yul\":1991:1994   */\n      0xa0\n        /* \"#utility.yul\":1976:1995   */\n      dup4\n      add\n        /* \"#utility.yul\":1969:2020   */\n      mstore\n        /* \"#utility.yul\":2064:2078   */\n      iszero\n        /* \"#utility.yul\":2057:2079   */\n      iszero\n        /* \"#utility.yul\":2051:2054   */\n      0xc0\n        /* \"#utility.yul\":2036:2055   */\n      swap1\n      swap2\n      add\n        /* \"#utility.yul\":2029:2080   */\n      mstore\n        /* \"#utility.yul\":1803:1857   */\n      swap4\n        /* \"#utility.yul\":1338:2086   */\n      swap3\n      pop\n      pop\n      pop\n      jump\t// out\n        /* \"#utility.yul\":2283:2410   */\n    tag_214:\n        /* \"#utility.yul\":2344:2354   */\n      0x4e487b71\n        /* \"#utility.yul\":2339:2342   */\n      0xe0\n        /* \"#utility.yul\":2335:2355   */\n      shl\n        /* \"#utility.yul\":2332:2333   */\n      0x00\n        /* \"#utility.yul\":2325:2356   */\n      mstore\n        /* \"#utility.yul\":2375:2379   */\n      0x41\n        /* \"#utility.yul\":2372:2373   */\n      0x04\n        /* \"#utility.yul\":2365:2380   */\n      mstore\n        /* \"#utility.yul\":2399:2403   */\n      0x24\n        /* \"#utility.yul\":2396:2397   */\n      0x00\n        /* \"#utility.yul\":2389:2404   */\n      revert\n        /* \"#utility.yul\":2415:2663   */\n    tag_215:\n        /* \"#utility.yul\":2482:2484   */\n      0x40\n        /* \"#utility.yul\":2476:2485   */\n      mload\n        /* \"#utility.yul\":2524:2528   */\n      0xe0\n        /* \"#utility.yul\":2512:2529   */\n      dup2\n      add\n        /* \"#utility.yul\":2559:2577   */\n      0xffffffffffffffff\n        /* \"#utility.yul\":2544:2578   */\n      dup2\n      gt\n        /* \"#utility.yul\":2580:2602   */\n      dup3\n      dup3\n      lt\n        /* \"#utility.yul\":2541:2603   */\n      or\n        /* \"#utility.yul\":2538:2626   */\n      iszero\n      tag_242\n      jumpi\n        /* \"#utility.yul\":2606:2624   */\n      tag_242\n      tag_214\n      jump\t// in\n    tag_242:\n        /* \"#utility.yul\":2642:2644   */\n      0x40\n        /* \"#utility.yul\":2635:2657   */\n      mstore\n        /* \"#utility.yul\":2415:2663   */\n      swap1\n      jump\t// out\n        /* \"#utility.yul\":2668:2856   */\n    tag_216:\n        /* \"#utility.yul\":2736:2756   */\n      dup1\n      calldataload\n      sub(shl(0x80, 0x01), 0x01)\n        /* \"#utility.yul\":2785:2831   */\n      dup2\n      and\n        /* \"#utility.yul\":2775:2832   */\n      dup2\n      eq\n        /* \"#utility.yul\":2765:2850   */\n      tag_225\n      jumpi\n        /* \"#utility.yul\":2846:2847   */\n      0x00\n        /* \"#utility.yul\":2843:2844   */\n      dup1\n        /* \"#utility.yul\":2836:2848   */\n      revert\n        /* \"#utility.yul\":2861:3580   */\n    tag_217:\n        /* \"#utility.yul\":2904:2909   */\n      0x00\n        /* \"#utility.yul\":2957:2960   */\n      dup3\n        /* \"#utility.yul\":2950:2954   */\n      0x1f\n        /* \"#utility.yul\":2942:2948   */\n      dup4\n        /* \"#utility.yul\":2938:2955   */\n      add\n        /* \"#utility.yul\":2934:2961   */\n      slt\n        /* \"#utility.yul\":2924:2979   */\n      tag_246\n      jumpi\n        /* \"#utility.yul\":2975:2976   */\n      0x00\n        /* \"#utility.yul\":2972:2973   */\n      dup1\n        /* \"#utility.yul\":2965:2977   */\n      revert\n        /* \"#utility.yul\":2924:2979   */\n    tag_246:\n        /* \"#utility.yul\":3011:3017   */\n      dup2\n        /* \"#utility.yul\":2998:3018   */\n      calldataload\n        /* \"#utility.yul\":3037:3055   */\n      0xffffffffffffffff\n        /* \"#utility.yul\":3074:3076   */\n      dup1\n        /* \"#utility.yul\":3070:3072   */\n      dup3\n        /* \"#utility.yul\":3067:3077   */\n      gt\n        /* \"#utility.yul\":3064:3100   */\n      iszero\n      tag_248\n      jumpi\n        /* \"#utility.yul\":3080:3098   */\n      tag_248\n      tag_214\n      jump\t// in\n    tag_248:\n        /* \"#utility.yul\":3155:3157   */\n      0x40\n        /* \"#utility.yul\":3149:3158   */\n      mload\n        /* \"#utility.yul\":3123:3125   */\n      0x1f\n        /* \"#utility.yul\":3209:3222   */\n      dup4\n      add\n      not(0x1f)\n        /* \"#utility.yul\":3205:3227   */\n      swap1\n      dup2\n      and\n        /* \"#utility.yul\":3229:3231   */\n      0x3f\n        /* \"#utility.yul\":3201:3232   */\n      add\n        /* \"#utility.yul\":3197:3237   */\n      and\n        /* \"#utility.yul\":3185:3238   */\n      dup2\n      add\n      swap1\n        /* \"#utility.yul\":3253:3271   */\n      dup3\n      dup3\n      gt\n        /* \"#utility.yul\":3273:3295   */\n      dup2\n      dup4\n      lt\n        /* \"#utility.yul\":3250:3296   */\n      or\n        /* \"#utility.yul\":3247:3319   */\n      iszero\n      tag_250\n      jumpi\n        /* \"#utility.yul\":3299:3317   */\n      tag_250\n      tag_214\n      jump\t// in\n    tag_250:\n        /* \"#utility.yul\":3339:3349   */\n      dup2\n        /* \"#utility.yul\":3335:3337   */\n      0x40\n        /* \"#utility.yul\":3328:3350   */\n      mstore\n        /* \"#utility.yul\":3374:3376   */\n      dup4\n        /* \"#utility.yul\":3366:3372   */\n      dup2\n        /* \"#utility.yul\":3359:3377   */\n      mstore\n        /* \"#utility.yul\":3420:3423   */\n      dup7\n        /* \"#utility.yul\":3413:3417   */\n      0x20\n        /* \"#utility.yul\":3408:3410   */\n      dup6\n        /* \"#utility.yul\":3400:3406   */\n      dup9\n        /* \"#utility.yul\":3396:3411   */\n      add\n        /* \"#utility.yul\":3392:3418   */\n      add\n        /* \"#utility.yul\":3389:3424   */\n      gt\n        /* \"#utility.yul\":3386:3441   */\n      iszero\n      tag_251\n      jumpi\n        /* \"#utility.yul\":3437:3438   */\n      0x00\n        /* \"#utility.yul\":3434:3435   */\n      dup1\n        /* \"#utility.yul\":3427:3439   */\n      revert\n        /* \"#utility.yul\":3386:3441   */\n    tag_251:\n        /* \"#utility.yul\":3501:3503   */\n      dup4\n        /* \"#utility.yul\":3494:3498   */\n      0x20\n        /* \"#utility.yul\":3486:3492   */\n      dup8\n        /* \"#utility.yul\":3482:3499   */\n      add\n        /* \"#utility.yul\":3475:3479   */\n      0x20\n        /* \"#utility.yul\":3467:3473   */\n      dup4\n        /* \"#utility.yul\":3463:3480   */\n      add\n        /* \"#utility.yul\":3450:3504   */\n      calldatacopy\n        /* \"#utility.yul\":3548:3549   */\n      0x00\n        /* \"#utility.yul\":3541:3545   */\n      0x20\n        /* \"#utility.yul\":3536:3538   */\n      dup6\n        /* \"#utility.yul\":3528:3534   */\n      dup4\n        /* \"#utility.yul\":3524:3539   */\n      add\n        /* \"#utility.yul\":3520:3546   */\n      add\n        /* \"#utility.yul\":3513:3550   */\n      mstore\n        /* \"#utility.yul\":3568:3574   */\n      dup1\n        /* \"#utility.yul\":3559:3574   */\n      swap5\n      pop\n      pop\n      pop\n      pop\n      pop\n        /* \"#utility.yul\":2861:3580   */\n      swap3\n      swap2\n      pop\n      pop\n      jump\t// out\n        /* \"#utility.yul\":3585:3703   */\n    tag_218:\n        /* \"#utility.yul\":3671:3676   */\n      dup1\n        /* \"#utility.yul\":3664:3677   */\n      iszero\n        /* \"#utility.yul\":3657:3678   */\n      iszero\n        /* \"#utility.yul\":3650:3655   */\n      dup2\n        /* \"#utility.yul\":3647:3679   */\n      eq\n        /* \"#utility.yul\":3637:3697   */\n      tag_207\n      jumpi\n        /* \"#utility.yul\":3693:3694   */\n      0x00\n        /* \"#utility.yul\":3690:3691   */\n      dup1\n        /* \"#utility.yul\":3683:3695   */\n      revert\n        /* \"#utility.yul\":3708:3836   */\n    tag_219:\n        /* \"#utility.yul\":3773:3793   */\n      dup1\n      calldataload\n        /* \"#utility.yul\":3802:3830   */\n      tag_225\n        /* \"#utility.yul\":3773:3793   */\n      dup2\n        /* \"#utility.yul\":3802:3830   */\n      tag_218\n      jump\t// in\n        /* \"#utility.yul\":3841:4816   */\n    tag_54:\n        /* \"#utility.yul\":3921:3927   */\n      0x00\n        /* \"#utility.yul\":3974:3976   */\n      0x20\n        /* \"#utility.yul\":3962:3971   */\n      dup3\n        /* \"#utility.yul\":3953:3960   */\n      dup5\n        /* \"#utility.yul\":3949:3972   */\n      sub\n        /* \"#utility.yul\":3945:3977   */\n      slt\n        /* \"#utility.yul\":3942:3994   */\n      iszero\n      tag_257\n      jumpi\n        /* \"#utility.yul\":3990:3991   */\n      0x00\n        /* \"#utility.yul\":3987:3988   */\n      dup1\n        /* \"#utility.yul\":3980:3992   */\n      revert\n        /* \"#utility.yul\":3942:3994   */\n    tag_257:\n        /* \"#utility.yul\":4030:4039   */\n      dup2\n        /* \"#utility.yul\":4017:4040   */\n      calldataload\n        /* \"#utility.yul\":4059:4077   */\n      0xffffffffffffffff\n        /* \"#utility.yul\":4100:4102   */\n      dup1\n        /* \"#utility.yul\":4092:4098   */\n      dup3\n        /* \"#utility.yul\":4089:4103   */\n      gt\n        /* \"#utility.yul\":4086:4120   */\n      iszero\n      tag_258\n      jumpi\n        /* \"#utility.yul\":4116:4117   */\n      0x00\n        /* \"#utility.yul\":4113:4114   */\n      dup1\n        /* \"#utility.yul\":4106:4118   */\n      revert\n        /* \"#utility.yul\":4086:4120   */\n    tag_258:\n        /* \"#utility.yul\":4139:4161   */\n      swap1\n      dup4\n      add\n      swap1\n        /* \"#utility.yul\":4195:4199   */\n      0xe0\n        /* \"#utility.yul\":4177:4193   */\n      dup3\n      dup7\n      sub\n        /* \"#utility.yul\":4173:4200   */\n      slt\n        /* \"#utility.yul\":4170:4217   */\n      iszero\n      tag_259\n      jumpi\n        /* \"#utility.yul\":4213:4214   */\n      0x00\n        /* \"#utility.yul\":4210:4211   */\n      dup1\n        /* \"#utility.yul\":4203:4215   */\n      revert\n        /* \"#utility.yul\":4170:4217   */\n    tag_259:\n        /* \"#utility.yul\":4239:4256   */\n      tag_260\n      tag_215\n      jump\t// in\n    tag_260:\n        /* \"#utility.yul\":4279:4301   */\n      tag_261\n        /* \"#utility.yul\":4298:4300   */\n      dup4\n        /* \"#utility.yul\":4279:4301   */\n      tag_216\n      jump\t// in\n    tag_261:\n        /* \"#utility.yul\":4272:4277   */\n      dup2\n        /* \"#utility.yul\":4265:4302   */\n      mstore\n        /* \"#utility.yul\":4334:4365   */\n      tag_262\n        /* \"#utility.yul\":4361:4363   */\n      0x20\n        /* \"#utility.yul\":4357:4359   */\n      dup5\n        /* \"#utility.yul\":4353:4364   */\n      add\n        /* \"#utility.yul\":4334:4365   */\n      tag_211\n      jump\t// in\n    tag_262:\n        /* \"#utility.yul\":4329:4331   */\n      0x20\n        /* \"#utility.yul\":4322:4327   */\n      dup3\n        /* \"#utility.yul\":4318:4332   */\n      add\n        /* \"#utility.yul\":4311:4366   */\n      mstore\n        /* \"#utility.yul\":4412:4414   */\n      0x40\n        /* \"#utility.yul\":4408:4410   */\n      dup4\n        /* \"#utility.yul\":4404:4415   */\n      add\n        /* \"#utility.yul\":4391:4416   */\n      calldataload\n        /* \"#utility.yul\":4441:4443   */\n      dup3\n        /* \"#utility.yul\":4431:4439   */\n      dup2\n        /* \"#utility.yul\":4428:4444   */\n      gt\n        /* \"#utility.yul\":4425:4461   */\n      iszero\n      tag_263\n      jumpi\n        /* \"#utility.yul\":4457:4458   */\n      0x00\n        /* \"#utility.yul\":4454:4455   */\n      dup1\n        /* \"#utility.yul\":4447:4459   */\n      revert\n        /* \"#utility.yul\":4425:4461   */\n    tag_263:\n        /* \"#utility.yul\":4493:4538   */\n      tag_264\n        /* \"#utility.yul\":4530:4537   */\n      dup8\n        /* \"#utility.yul\":4519:4527   */\n      dup3\n        /* \"#utility.yul\":4515:4517   */\n      dup7\n        /* \"#utility.yul\":4511:4528   */\n      add\n        /* \"#utility.yul\":4493:4538   */\n      tag_217\n      jump\t// in\n    tag_264:\n        /* \"#utility.yul\":4488:4490   */\n      0x40\n        /* \"#utility.yul\":4481:4486   */\n      dup4\n        /* \"#utility.yul\":4477:4491   */\n      add\n        /* \"#utility.yul\":4470:4539   */\n      mstore\n      pop\n        /* \"#utility.yul\":4592:4594   */\n      0x60\n        /* \"#utility.yul\":4588:4590   */\n      dup4\n        /* \"#utility.yul\":4584:4595   */\n      add\n        /* \"#utility.yul\":4571:4596   */\n      calldataload\n        /* \"#utility.yul\":4566:4568   */\n      0x60\n        /* \"#utility.yul\":4559:4564   */\n      dup3\n        /* \"#utility.yul\":4555:4569   */\n      add\n        /* \"#utility.yul\":4548:4597   */\n      mstore\n        /* \"#utility.yul\":4630:4659   */\n      tag_265\n        /* \"#utility.yul\":4654:4657   */\n      0x80\n        /* \"#utility.yul\":4650:4652   */\n      dup5\n        /* \"#utility.yul\":4646:4658   */\n      add\n        /* \"#utility.yul\":4630:4659   */\n      tag_219\n      jump\t// in\n    tag_265:\n        /* \"#utility.yul\":4624:4627   */\n      0x80\n        /* \"#utility.yul\":4617:4622   */\n      dup3\n        /* \"#utility.yul\":4613:4628   */\n      add\n        /* \"#utility.yul\":4606:4660   */\n      mstore\n        /* \"#utility.yul\":4693:4722   */\n      tag_266\n        /* \"#utility.yul\":4717:4720   */\n      0xa0\n        /* \"#utility.yul\":4713:4715   */\n      dup5\n        /* \"#utility.yul\":4709:4721   */\n      add\n        /* \"#utility.yul\":4693:4722   */\n      tag_219\n      jump\t// in\n    tag_266:\n        /* \"#utility.yul\":4687:4690   */\n      0xa0\n        /* \"#utility.yul\":4680:4685   */\n      dup3\n        /* \"#utility.yul\":4676:4691   */\n      add\n        /* \"#utility.yul\":4669:4723   */\n      mstore\n        /* \"#utility.yul\":4756:4785   */\n      tag_267\n        /* \"#utility.yul\":4780:4783   */\n      0xc0\n        /* \"#utility.yul\":4776:4778   */\n      dup5\n        /* \"#utility.yul\":4772:4784   */\n      add\n        /* \"#utility.yul\":4756:4785   */\n      tag_219\n      jump\t// in\n    tag_267:\n        /* \"#utility.yul\":4750:4753   */\n      0xc0\n        /* \"#utility.yul\":4739:4754   */\n      dup3\n      add\n        /* \"#utility.yul\":4732:4786   */\n      mstore\n        /* \"#utility.yul\":4743:4748   */\n      swap6\n        /* \"#utility.yul\":3841:4816   */\n      swap5\n      pop\n      pop\n      pop\n      pop\n      pop\n      jump\t// out\n        /* \"#utility.yul\":4821:5007   */\n    tag_61:\n        /* \"#utility.yul\":4880:4886   */\n      0x00\n        /* \"#utility.yul\":4933:4935   */\n      0x20\n        /* \"#utility.yul\":4921:4930   */\n      dup3\n        /* \"#utility.yul\":4912:4919   */\n      dup5\n        /* \"#utility.yul\":4908:4931   */\n      sub\n        /* \"#utility.yul\":4904:4936   */\n      slt\n        /* \"#utility.yul\":4901:4953   */\n      iszero\n      tag_269\n      jumpi\n        /* \"#utility.yul\":4949:4950   */\n      0x00\n        /* \"#utility.yul\":4946:4947   */\n      dup1\n        /* \"#utility.yul\":4939:4951   */\n      revert\n        /* \"#utility.yul\":4901:4953   */\n    tag_269:\n        /* \"#utility.yul\":4972:5001   */\n      tag_228\n        /* \"#utility.yul\":4991:5000   */\n      dup3\n        /* \"#utility.yul\":4972:5001   */\n      tag_216\n      jump\t// in\n        /* \"#utility.yul\":5012:5281   */\n    tag_66:\n        /* \"#utility.yul\":5069:5075   */\n      0x00\n        /* \"#utility.yul\":5122:5124   */\n      0x20\n        /* \"#utility.yul\":5110:5119   */\n      dup3\n        /* \"#utility.yul\":5101:5108   */\n      dup5\n        /* \"#utility.yul\":5097:5120   */\n      sub\n        /* \"#utility.yul\":5093:5125   */\n      slt\n        /* \"#utility.yul\":5090:5142   */\n      iszero\n      tag_272\n      jumpi\n        /* \"#utility.yul\":5138:5139   */\n      0x00\n        /* \"#utility.yul\":5135:5136   */\n      dup1\n        /* \"#utility.yul\":5128:5140   */\n      revert\n        /* \"#utility.yul\":5090:5142   */\n    tag_272:\n        /* \"#utility.yul\":5177:5186   */\n      dup2\n        /* \"#utility.yul\":5164:5187   */\n      calldataload\n        /* \"#utility.yul\":5227:5231   */\n      0xff\n        /* \"#utility.yul\":5220:5225   */\n      dup2\n        /* \"#utility.yul\":5216:5232   */\n      and\n        /* \"#utility.yul\":5209:5214   */\n      dup2\n        /* \"#utility.yul\":5206:5233   */\n      eq\n        /* \"#utility.yul\":5196:5251   */\n      tag_228\n      jumpi\n        /* \"#utility.yul\":5247:5248   */\n      0x00\n        /* \"#utility.yul\":5244:5245   */\n      dup1\n        /* \"#utility.yul\":5237:5249   */\n      revert\n        /* \"#utility.yul\":5286:6162   */\n    tag_69:\n        /* \"#utility.yul\":5457:5459   */\n      0x20\n        /* \"#utility.yul\":5446:5455   */\n      dup2\n        /* \"#utility.yul\":5439:5460   */\n      mstore\n      sub(shl(0x80, 0x01), 0x01)\n        /* \"#utility.yul\":5506:5512   */\n      dup3\n        /* \"#utility.yul\":5500:5513   */\n      mload\n        /* \"#utility.yul\":5496:5550   */\n      and\n        /* \"#utility.yul\":5491:5493   */\n      0x20\n        /* \"#utility.yul\":5480:5489   */\n      dup3\n        /* \"#utility.yul\":5476:5494   */\n      add\n        /* \"#utility.yul\":5469:5551   */\n      mstore\n        /* \"#utility.yul\":5632:5633   */\n      0x01\n        /* \"#utility.yul\":5628:5629   */\n      dup1\n        /* \"#utility.yul\":5623:5626   */\n      0xa0\n        /* \"#utility.yul\":5619:5630   */\n      shl\n        /* \"#utility.yul\":5615:5634   */\n      sub\n        /* \"#utility.yul\":5609:5611   */\n      0x20\n        /* \"#utility.yul\":5601:5607   */\n      dup4\n        /* \"#utility.yul\":5597:5612   */\n      add\n        /* \"#utility.yul\":5591:5613   */\n      mload\n        /* \"#utility.yul\":5587:5635   */\n      and\n        /* \"#utility.yul\":5582:5584   */\n      0x40\n        /* \"#utility.yul\":5571:5580   */\n      dup3\n        /* \"#utility.yul\":5567:5585   */\n      add\n        /* \"#utility.yul\":5560:5636   */\n      mstore\n        /* \"#utility.yul\":5420:5424   */\n      0x00\n        /* \"#utility.yul\":5683:5685   */\n      0x40\n        /* \"#utility.yul\":5675:5681   */\n      dup4\n        /* \"#utility.yul\":5671:5686   */\n      add\n        /* \"#utility.yul\":5665:5687   */\n      mload\n        /* \"#utility.yul\":5723:5727   */\n      0xe0\n        /* \"#utility.yul\":5718:5720   */\n      0x60\n        /* \"#utility.yul\":5707:5716   */\n      dup5\n        /* \"#utility.yul\":5703:5721   */\n      add\n        /* \"#utility.yul\":5696:5728   */\n      mstore\n        /* \"#utility.yul\":5751:5803   */\n      tag_275\n        /* \"#utility.yul\":5798:5801   */\n      0x0100\n        /* \"#utility.yul\":5787:5796   */\n      dup5\n        /* \"#utility.yul\":5783:5802   */\n      add\n        /* \"#utility.yul\":5769:5781   */\n      dup3\n        /* \"#utility.yul\":5751:5803   */\n      tag_212\n      jump\t// in\n    tag_275:\n        /* \"#utility.yul\":5737:5803   */\n      swap1\n      pop\n        /* \"#utility.yul\":5858:5860   */\n      0x60\n        /* \"#utility.yul\":5850:5856   */\n      dup5\n        /* \"#utility.yul\":5846:5861   */\n      add\n        /* \"#utility.yul\":5840:5862   */\n      mload\n        /* \"#utility.yul\":5834:5837   */\n      0x80\n        /* \"#utility.yul\":5823:5832   */\n      dup5\n        /* \"#utility.yul\":5819:5838   */\n      add\n        /* \"#utility.yul\":5812:5863   */\n      mstore\n        /* \"#utility.yul\":5932:5935   */\n      0x80\n        /* \"#utility.yul\":5924:5930   */\n      dup5\n        /* \"#utility.yul\":5920:5936   */\n      add\n        /* \"#utility.yul\":5914:5937   */\n      mload\n        /* \"#utility.yul\":5907:5938   */\n      iszero\n        /* \"#utility.yul\":5900:5939   */\n      iszero\n        /* \"#utility.yul\":5894:5897   */\n      0xa0\n        /* \"#utility.yul\":5883:5892   */\n      dup5\n        /* \"#utility.yul\":5879:5898   */\n      add\n        /* \"#utility.yul\":5872:5940   */\n      mstore\n        /* \"#utility.yul\":6009:6012   */\n      0xa0\n        /* \"#utility.yul\":6001:6007   */\n      dup5\n        /* \"#utility.yul\":5997:6013   */\n      add\n        /* \"#utility.yul\":5991:6014   */\n      mload\n        /* \"#utility.yul\":5984:6015   */\n      iszero\n        /* \"#utility.yul\":5977:6016   */\n      iszero\n        /* \"#utility.yul\":5971:5974   */\n      0xc0\n        /* \"#utility.yul\":5960:5969   */\n      dup5\n        /* \"#utility.yul\":5956:5975   */\n      add\n        /* \"#utility.yul\":5949:6017   */\n      mstore\n        /* \"#utility.yul\":6066:6069   */\n      0xc0\n        /* \"#utility.yul\":6058:6064   */\n      dup5\n        /* \"#utility.yul\":6054:6070   */\n      add\n        /* \"#utility.yul\":6048:6071   */\n      mload\n        /* \"#utility.yul\":6080:6133   */\n      tag_276\n        /* \"#utility.yul\":6127:6131   */\n      0xe0\n        /* \"#utility.yul\":6116:6125   */\n      dup6\n        /* \"#utility.yul\":6112:6132   */\n      add\n        /* \"#utility.yul\":6096:6110   */\n      dup3\n        /* \"#utility.yul\":1312:1325   */\n      iszero\n        /* \"#utility.yul\":1305:1326   */\n      iszero\n        /* \"#utility.yul\":1293:1327   */\n      swap1\n      mstore\n        /* \"#utility.yul\":1242:1333   */\n      jump\n        /* \"#utility.yul\":6080:6133   */\n    tag_276:\n      pop\n        /* \"#utility.yul\":6150:6156   */\n      swap4\n        /* \"#utility.yul\":5286:6162   */\n      swap3\n      pop\n      pop\n      pop\n      jump\t// out\n        /* \"#utility.yul\":6167:6512   */\n    tag_101:\n        /* \"#utility.yul\":6369:6371   */\n      0x20\n        /* \"#utility.yul\":6351:6372   */\n      dup1\n      dup3\n      mstore\n        /* \"#utility.yul\":6408:6410   */\n      0x15\n        /* \"#utility.yul\":6388:6406   */\n      swap1\n      dup3\n      add\n        /* \"#utility.yul\":6381:6411   */\n      mstore\n      shl(0x5a, 0x1d1a194819d85d1bdc881a5cdb9bdd08195e1a5cdd)\n        /* \"#utility.yul\":6442:6444   */\n      0x40\n        /* \"#utility.yul\":6427:6445   */\n      dup3\n      add\n        /* \"#utility.yul\":6420:6471   */\n      mstore\n        /* \"#utility.yul\":6503:6505   */\n      0x60\n        /* \"#utility.yul\":6488:6506   */\n      add\n      swap1\n        /* \"#utility.yul\":6167:6512   */\n      jump\t// out\n        /* \"#utility.yul\":6517:6897   */\n    tag_104:\n        /* \"#utility.yul\":6596:6597   */\n      0x01\n        /* \"#utility.yul\":6592:6604   */\n      dup2\n      dup2\n      shr\n      swap1\n        /* \"#utility.yul\":6639:6651   */\n      dup3\n      and\n      dup1\n        /* \"#utility.yul\":6660:6721   */\n      tag_279\n      jumpi\n        /* \"#utility.yul\":6714:6718   */\n      0x7f\n        /* \"#utility.yul\":6706:6712   */\n      dup3\n        /* \"#utility.yul\":6702:6719   */\n      and\n        /* \"#utility.yul\":6692:6719   */\n      swap2\n      pop\n        /* \"#utility.yul\":6660:6721   */\n    tag_279:\n        /* \"#utility.yul\":6767:6769   */\n      0x20\n        /* \"#utility.yul\":6759:6765   */\n      dup3\n        /* \"#utility.yul\":6756:6770   */\n      lt\n        /* \"#utility.yul\":6736:6754   */\n      dup2\n        /* \"#utility.yul\":6733:6771   */\n      sub\n        /* \"#utility.yul\":6730:6891   */\n      tag_280\n      jumpi\n        /* \"#utility.yul\":6813:6823   */\n      0x4e487b71\n        /* \"#utility.yul\":6808:6811   */\n      0xe0\n        /* \"#utility.yul\":6804:6824   */\n      shl\n        /* \"#utility.yul\":6801:6802   */\n      0x00\n        /* \"#utility.yul\":6794:6825   */\n      mstore\n        /* \"#utility.yul\":6848:6852   */\n      0x22\n        /* \"#utility.yul\":6845:6846   */\n      0x04\n        /* \"#utility.yul\":6838:6853   */\n      mstore\n        /* \"#utility.yul\":6876:6880   */\n      0x24\n        /* \"#utility.yul\":6873:6874   */\n      0x00\n        /* \"#utility.yul\":6866:6881   */\n      revert\n        /* \"#utility.yul\":6730:6891   */\n    tag_280:\n      pop\n        /* \"#utility.yul\":6517:6897   */\n      swap2\n      swap1\n      pop\n      jump\t// out\n        /* \"#utility.yul\":6902:7246   */\n    tag_115:\n        /* \"#utility.yul\":7104:7106   */\n      0x20\n        /* \"#utility.yul\":7086:7107   */\n      dup1\n      dup3\n      mstore\n        /* \"#utility.yul\":7143:7145   */\n      0x14\n        /* \"#utility.yul\":7123:7141   */\n      swap1\n      dup3\n      add\n        /* \"#utility.yul\":7116:7146   */\n      mstore\n      shl(0x61, 0x3a34329033b0ba37b91034b99032bc34b9ba32b9)\n        /* \"#utility.yul\":7177:7179   */\n      0x40\n        /* \"#utility.yul\":7162:7180   */\n      dup3\n      add\n        /* \"#utility.yul\":7155:7205   */\n      mstore\n        /* \"#utility.yul\":7237:7239   */\n      0x60\n        /* \"#utility.yul\":7222:7240   */\n      add\n      swap1\n        /* \"#utility.yul\":6902:7246   */\n      jump\t// out\n        /* \"#utility.yul\":7251:7592   */\n    tag_118:\n        /* \"#utility.yul\":7453:7455   */\n      0x20\n        /* \"#utility.yul\":7435:7456   */\n      dup1\n      dup3\n      mstore\n        /* \"#utility.yul\":7492:7494   */\n      0x11\n        /* \"#utility.yul\":7472:7490   */\n      swap1\n      dup3\n      add\n        /* \"#utility.yul\":7465:7495   */\n      mstore\n      shl(0x79, 0x3a34329033b0ba37b91034b9903cb7bab9)\n        /* \"#utility.yul\":7526:7528   */\n      0x40\n        /* \"#utility.yul\":7511:7529   */\n      dup3\n      add\n        /* \"#utility.yul\":7504:7551   */\n      mstore\n        /* \"#utility.yul\":7583:7585   */\n      0x60\n        /* \"#utility.yul\":7568:7586   */\n      add\n      swap1\n        /* \"#utility.yul\":7251:7592   */\n      jump\t// out\n        /* \"#utility.yul\":7723:8268   */\n    tag_221:\n        /* \"#utility.yul\":7825:7827   */\n      0x1f\n        /* \"#utility.yul\":7820:7823   */\n      dup3\n        /* \"#utility.yul\":7817:7828   */\n      gt\n        /* \"#utility.yul\":7814:8262   */\n      iszero\n      tag_285\n      jumpi\n        /* \"#utility.yul\":7861:7862   */\n      0x00\n        /* \"#utility.yul\":7886:7891   */\n      dup2\n        /* \"#utility.yul\":7882:7884   */\n      dup2\n        /* \"#utility.yul\":7875:7892   */\n      mstore\n        /* \"#utility.yul\":7931:7935   */\n      0x20\n        /* \"#utility.yul\":7927:7929   */\n      dup2\n        /* \"#utility.yul\":7917:7936   */\n      keccak256\n        /* \"#utility.yul\":8001:8003   */\n      0x1f\n        /* \"#utility.yul\":7989:7999   */\n      dup6\n        /* \"#utility.yul\":7985:8004   */\n      add\n        /* \"#utility.yul\":7982:7983   */\n      0x05\n        /* \"#utility.yul\":7978:8005   */\n      shr\n        /* \"#utility.yul\":7972:7976   */\n      dup2\n        /* \"#utility.yul\":7968:8006   */\n      add\n        /* \"#utility.yul\":8037:8041   */\n      0x20\n        /* \"#utility.yul\":8025:8035   */\n      dup7\n        /* \"#utility.yul\":8022:8042   */\n      lt\n        /* \"#utility.yul\":8019:8066   */\n      iszero\n      tag_286\n      jumpi\n      pop\n        /* \"#utility.yul\":8060:8064   */\n      dup1\n        /* \"#utility.yul\":8019:8066   */\n    tag_286:\n        /* \"#utility.yul\":8115:8117   */\n      0x1f\n        /* \"#utility.yul\":8110:8113   */\n      dup6\n        /* \"#utility.yul\":8106:8118   */\n      add\n        /* \"#utility.yul\":8103:8104   */\n      0x05\n        /* \"#utility.yul\":8099:8119   */\n      shr\n        /* \"#utility.yul\":8093:8097   */\n      dup3\n        /* \"#utility.yul\":8089:8120   */\n      add\n        /* \"#utility.yul\":8079:8120   */\n      swap2\n      pop\n        /* \"#utility.yul\":8170:8252   */\n    tag_287:\n        /* \"#utility.yul\":8188:8190   */\n      dup2\n        /* \"#utility.yul\":8181:8186   */\n      dup2\n        /* \"#utility.yul\":8178:8191   */\n      lt\n        /* \"#utility.yul\":8170:8252   */\n      iszero\n      tag_289\n      jumpi\n        /* \"#utility.yul\":8233:8250   */\n      dup3\n      dup2\n      sstore\n        /* \"#utility.yul\":8214:8215   */\n      0x01\n        /* \"#utility.yul\":8203:8216   */\n      add\n        /* \"#utility.yul\":8170:8252   */\n      jump(tag_287)\n    tag_289:\n        /* \"#utility.yul\":8174:8177   */\n      pop\n      pop\n      pop\n        /* \"#utility.yul\":7814:8262   */\n    tag_285:\n        /* \"#utility.yul\":7723:8268   */\n      pop\n      pop\n      pop\n      jump\t// out\n        /* \"#utility.yul\":8444:9796   */\n    tag_120:\n        /* \"#utility.yul\":8570:8573   */\n      dup2\n        /* \"#utility.yul\":8564:8574   */\n      mload\n        /* \"#utility.yul\":8597:8615   */\n      0xffffffffffffffff\n        /* \"#utility.yul\":8589:8595   */\n      dup2\n        /* \"#utility.yul\":8586:8616   */\n      gt\n        /* \"#utility.yul\":8583:8639   */\n      iszero\n      tag_293\n      jumpi\n        /* \"#utility.yul\":8619:8637   */\n      tag_293\n      tag_214\n      jump\t// in\n    tag_293:\n        /* \"#utility.yul\":8648:8745   */\n      tag_294\n        /* \"#utility.yul\":8738:8744   */\n      dup2\n        /* \"#utility.yul\":8698:8736   */\n      tag_295\n        /* \"#utility.yul\":8730:8734   */\n      dup5\n        /* \"#utility.yul\":8724:8735   */\n      sload\n        /* \"#utility.yul\":8698:8736   */\n      tag_104\n      jump\t// in\n    tag_295:\n        /* \"#utility.yul\":8692:8696   */\n      dup5\n        /* \"#utility.yul\":8648:8745   */\n      tag_221\n      jump\t// in\n    tag_294:\n        /* \"#utility.yul\":8800:8804   */\n      0x20\n      dup1\n        /* \"#utility.yul\":8864:8866   */\n      0x1f\n        /* \"#utility.yul\":8853:8867   */\n      dup4\n      gt\n        /* \"#utility.yul\":8881:8882   */\n      0x01\n        /* \"#utility.yul\":8876:9539   */\n      dup2\n      eq\n      tag_297\n      jumpi\n        /* \"#utility.yul\":9583:9584   */\n      0x00\n        /* \"#utility.yul\":9600:9606   */\n      dup5\n        /* \"#utility.yul\":9597:9686   */\n      iszero\n      tag_298\n      jumpi\n      pop\n        /* \"#utility.yul\":9652:9671   */\n      dup6\n      dup4\n      add\n        /* \"#utility.yul\":9646:9672   */\n      mload\n        /* \"#utility.yul\":9597:9686   */\n    tag_298:\n      not(0x00)\n        /* \"#utility.yul\":8401:8402   */\n      0x03\n        /* \"#utility.yul\":8397:8408   */\n      dup7\n      swap1\n      shl\n        /* \"#utility.yul\":8393:8417   */\n      shr\n        /* \"#utility.yul\":8389:8418   */\n      not\n        /* \"#utility.yul\":8379:8419   */\n      and\n        /* \"#utility.yul\":8425:8426   */\n      0x01\n        /* \"#utility.yul\":8421:8432   */\n      dup6\n      swap1\n      shl\n        /* \"#utility.yul\":8376:8433   */\n      or\n        /* \"#utility.yul\":9699:9780   */\n      dup6\n      sstore\n        /* \"#utility.yul\":8846:9790   */\n      jump(tag_289)\n        /* \"#utility.yul\":8876:9539   */\n    tag_297:\n        /* \"#utility.yul\":7670:7671   */\n      0x00\n        /* \"#utility.yul\":7663:7677   */\n      dup6\n      dup2\n      mstore\n        /* \"#utility.yul\":7707:7711   */\n      0x20\n        /* \"#utility.yul\":7694:7712   */\n      dup2\n      keccak256\n      not(0x1f)\n        /* \"#utility.yul\":8912:8932   */\n      dup7\n      and\n      swap2\n        /* \"#utility.yul\":9030:9266   */\n    tag_301:\n        /* \"#utility.yul\":9044:9051   */\n      dup3\n        /* \"#utility.yul\":9041:9042   */\n      dup2\n        /* \"#utility.yul\":9038:9052   */\n      lt\n        /* \"#utility.yul\":9030:9266   */\n      iszero\n      tag_303\n      jumpi\n        /* \"#utility.yul\":9133:9152   */\n      dup9\n      dup7\n      add\n        /* \"#utility.yul\":9127:9153   */\n      mload\n        /* \"#utility.yul\":9112:9154   */\n      dup3\n      sstore\n        /* \"#utility.yul\":9225:9252   */\n      swap5\n      dup5\n      add\n      swap5\n        /* \"#utility.yul\":9193:9194   */\n      0x01\n        /* \"#utility.yul\":9181:9195   */\n      swap1\n      swap2\n      add\n      swap1\n        /* \"#utility.yul\":9060:9079   */\n      dup5\n      add\n        /* \"#utility.yul\":9030:9266   */\n      jump(tag_301)\n    tag_303:\n        /* \"#utility.yul\":9034:9037   */\n      pop\n        /* \"#utility.yul\":9294:9300   */\n      dup6\n        /* \"#utility.yul\":9285:9292   */\n      dup3\n        /* \"#utility.yul\":9282:9301   */\n      lt\n        /* \"#utility.yul\":9279:9480   */\n      iszero\n      tag_304\n      jumpi\n        /* \"#utility.yul\":9355:9374   */\n      dup8\n      dup6\n      add\n        /* \"#utility.yul\":9349:9375   */\n      mload\n      not(0x00)\n        /* \"#utility.yul\":9438:9439   */\n      0x03\n        /* \"#utility.yul\":9434:9448   */\n      dup9\n      swap1\n      shl\n        /* \"#utility.yul\":9450:9453   */\n      0xf8\n        /* \"#utility.yul\":9430:9454   */\n      and\n        /* \"#utility.yul\":9426:9463   */\n      shr\n        /* \"#utility.yul\":9422:9464   */\n      not\n        /* \"#utility.yul\":9407:9465   */\n      and\n        /* \"#utility.yul\":9392:9466   */\n      dup2\n      sstore\n        /* \"#utility.yul\":9279:9480   */\n    tag_304:\n      pop\n      pop\n      pop\n      pop\n      pop\n        /* \"#utility.yul\":9526:9527   */\n      0x01\n        /* \"#utility.yul\":9510:9524   */\n      swap1\n      dup2\n      shl\n        /* \"#utility.yul\":9506:9528   */\n      add\n        /* \"#utility.yul\":9493:9529   */\n      swap1\n      sstore\n      pop\n        /* \"#utility.yul\":8444:9796   */\n      jump\t// out\n        /* \"#utility.yul\":9801:10118   */\n    tag_122:\n      sub(shl(0xa0, 0x01), 0x01)\n        /* \"#utility.yul\":9978:10010   */\n      dup4\n      and\n        /* \"#utility.yul\":9960:10011   */\n      dup2\n      mstore\n        /* \"#utility.yul\":10047:10049   */\n      0x40\n        /* \"#utility.yul\":10042:10044   */\n      0x20\n        /* \"#utility.yul\":10027:10045   */\n      dup3\n      add\n        /* \"#utility.yul\":10020:10050   */\n      dup2\n      swap1\n      mstore\n      0x00\n      swap1\n        /* \"#utility.yul\":10067:10112   */\n      tag_306\n      swap1\n        /* \"#utility.yul\":10093:10111   */\n      dup4\n      add\n        /* \"#utility.yul\":10085:10091   */\n      dup5\n        /* \"#utility.yul\":10067:10112   */\n      tag_212\n      jump\t// in\n    tag_306:\n        /* \"#utility.yul\":10059:10112   */\n      swap5\n        /* \"#utility.yul\":9801:10118   */\n      swap4\n      pop\n      pop\n      pop\n      pop\n      jump\t// out\n        /* \"#utility.yul\":10123:10368   */\n    tag_128:\n        /* \"#utility.yul\":10190:10196   */\n      0x00\n        /* \"#utility.yul\":10243:10245   */\n      0x20\n        /* \"#utility.yul\":10231:10240   */\n      dup3\n        /* \"#utility.yul\":10222:10229   */\n      dup5\n        /* \"#utility.yul\":10218:10241   */\n      sub\n        /* \"#utility.yul\":10214:10246   */\n      slt\n        /* \"#utility.yul\":10211:10263   */\n      iszero\n      tag_308\n      jumpi\n        /* \"#utility.yul\":10259:10260   */\n      0x00\n        /* \"#utility.yul\":10256:10257   */\n      dup1\n        /* \"#utility.yul\":10249:10261   */\n      revert\n        /* \"#utility.yul\":10211:10263   */\n    tag_308:\n        /* \"#utility.yul\":10291:10300   */\n      dup2\n        /* \"#utility.yul\":10285:10301   */\n      mload\n        /* \"#utility.yul\":10310:10338   */\n      tag_228\n        /* \"#utility.yul\":10332:10337   */\n      dup2\n        /* \"#utility.yul\":10310:10338   */\n      tag_218\n      jump\t// in\n        /* \"#utility.yul\":10373:10713   */\n    tag_131:\n        /* \"#utility.yul\":10575:10577   */\n      0x20\n        /* \"#utility.yul\":10557:10578   */\n      dup1\n      dup3\n      mstore\n        /* \"#utility.yul\":10614:10616   */\n      0x10\n        /* \"#utility.yul\":10594:10612   */\n      swap1\n      dup3\n      add\n        /* \"#utility.yul\":10587:10617   */\n      mstore\n      shl(0x81, 0x3cb7ba9030b9329036b0b935b2ba37b9)\n        /* \"#utility.yul\":10648:10650   */\n      0x40\n        /* \"#utility.yul\":10633:10651   */\n      dup3\n      add\n        /* \"#utility.yul\":10626:10672   */\n      mstore\n        /* \"#utility.yul\":10704:10706   */\n      0x60\n        /* \"#utility.yul\":10689:10707   */\n      add\n      swap1\n        /* \"#utility.yul\":10373:10713   */\n      jump\t// out\n        /* \"#utility.yul\":11027:11445   */\n    tag_157:\n        /* \"#utility.yul\":11195:11199   */\n      0x00\n        /* \"#utility.yul\":11241:11242   */\n      0x01\n        /* \"#utility.yul\":11237:11238   */\n      dup1\n        /* \"#utility.yul\":11232:11235   */\n      0xa0\n        /* \"#utility.yul\":11228:11239   */\n      shl\n        /* \"#utility.yul\":11224:11243   */\n      sub\n        /* \"#utility.yul\":11282:11284   */\n      dup1\n        /* \"#utility.yul\":11274:11280   */\n      dup7\n        /* \"#utility.yul\":11270:11285   */\n      and\n        /* \"#utility.yul\":11259:11268   */\n      dup4\n        /* \"#utility.yul\":11252:11286   */\n      mstore\n        /* \"#utility.yul\":11322:11324   */\n      0x60\n        /* \"#utility.yul\":11317:11319   */\n      0x20\n        /* \"#utility.yul\":11306:11315   */\n      dup5\n        /* \"#utility.yul\":11302:11320   */\n      add\n        /* \"#utility.yul\":11295:11325   */\n      mstore\n        /* \"#utility.yul\":11342:11387   */\n      tag_313\n        /* \"#utility.yul\":11383:11385   */\n      0x60\n        /* \"#utility.yul\":11372:11381   */\n      dup5\n        /* \"#utility.yul\":11368:11386   */\n      add\n        /* \"#utility.yul\":11360:11366   */\n      dup7\n        /* \"#utility.yul\":11342:11387   */\n      tag_212\n      jump\t// in\n    tag_313:\n        /* \"#utility.yul\":11334:11387   */\n      swap2\n      pop\n        /* \"#utility.yul\":11435:11437   */\n      dup1\n        /* \"#utility.yul\":11427:11433   */\n      dup5\n        /* \"#utility.yul\":11423:11438   */\n      and\n        /* \"#utility.yul\":11418:11420   */\n      0x40\n        /* \"#utility.yul\":11407:11416   */\n      dup5\n        /* \"#utility.yul\":11403:11421   */\n      add\n        /* \"#utility.yul\":11396:11439   */\n      mstore\n      pop\n        /* \"#utility.yul\":11027:11445   */\n      swap5\n      swap4\n      pop\n      pop\n      pop\n      pop\n      jump\t// out\n        /* \"#utility.yul\":11450:11744   */\n    tag_190:\n      sub(shl(0x80, 0x01), 0x01)\n        /* \"#utility.yul\":11572:11582   */\n      dup2\n      dup2\n      and\n        /* \"#utility.yul\":11584:11594   */\n      dup4\n      dup3\n      and\n        /* \"#utility.yul\":11568:11595   */\n      add\n      swap1\n        /* \"#utility.yul\":11607:11618   */\n      dup1\n      dup3\n      gt\n        /* \"#utility.yul\":11604:11738   */\n      iszero\n      tag_315\n      jumpi\n        /* \"#utility.yul\":11660:11670   */\n      0x4e487b71\n        /* \"#utility.yul\":11655:11658   */\n      0xe0\n        /* \"#utility.yul\":11651:11671   */\n      shl\n        /* \"#utility.yul\":11648:11649   */\n      0x00\n        /* \"#utility.yul\":11641:11672   */\n      mstore\n        /* \"#utility.yul\":11695:11699   */\n      0x11\n        /* \"#utility.yul\":11692:11693   */\n      0x04\n        /* \"#utility.yul\":11685:11700   */\n      mstore\n        /* \"#utility.yul\":11723:11727   */\n      0x24\n        /* \"#utility.yul\":11720:11721   */\n      0x00\n        /* \"#utility.yul\":11713:11728   */\n      revert\n        /* \"#utility.yul\":11604:11738   */\n    tag_315:\n      pop\n        /* \"#utility.yul\":11450:11744   */\n      swap3\n      swap2\n      pop\n      pop\n      jump\t// out\n\n    auxdata: 0xa2646970667358221220253b50a243a92bfcebab1c8f916dd662c80f529f5b57a4a2b504983186a2b79764736f6c63430008120033\n}\n",
				"bytecode": {
					"linkReferences": {},
					"object": "60a06040523480156200001157600080fd5b50604051620019333803806200193383398101604081905262000034916200008d565b6001600160a01b03918216608052600380546001600160a01b03191691909216179055600280546001600160801b0319166001179055620000c5565b80516001600160a01b03811681146200008857600080fd5b919050565b60008060408385031215620000a157600080fd5b620000ac8362000070565b9150620000bc6020840162000070565b90509250929050565b608051611836620000fd600039600081816101d501528181610717015281816109b001528181610bd60152610d1701526118366000f3fe608060405234801561001057600080fd5b50600436106101215760003560e01c806382dfbd20116100ad578063b614984d11610071578063b614984d146102e4578063c0384292146102f7578063cf093eee14610326578063dd34846014610339578063f1c9f40f1461034a57600080fd5b806382dfbd20146102575780638ab5b5341461028057806390872671146102a0578063a4786088146102b3578063b4c4b9ac146102c657600080fd5b8063492b7107116100f4578063492b7107146101d057806354a460f6146101f757806360772dc91461021e578063631d187814610231578063769413001461024457600080fd5b806319b24ee31461012657806327cbaabe146101755780633bbae141146101a057806345df4987146101aa575b600080fd5b610158610134366004611208565b6001600160a01b03166000908152602081905260409020546001600160801b031690565b6040516001600160801b0390911681526020015b60405180910390f35b600354610188906001600160a01b031681565b6040516001600160a01b03909116815260200161016c565b6101a8610352565b005b6101bd6101b8366004611208565b610431565b60405161016c9796959493929190611270565b6101887f000000000000000000000000000000000000000000000000000000000000000081565b3360009081526020819052604090206004015460ff165b604051901515815260200161016c565b600254610158906001600160801b031681565b6101a861023f3660046113c7565b610511565b6101a8610252366004611208565b610702565b610188610265366004611493565b6001602052600090815260409020546001600160a01b031681565b61029361028e3660046114ae565b610846565b60405161016c91906114d1565b6101a86102ae3660046113c7565b61099b565b6101a86102c1366004611208565b610bc1565b336000908152602081905260409020546001600160801b0316610158565b6101a86102f2366004611208565b610d02565b61020e610305366004611208565b6001600160a01b031660009081526020819052604090206004015460ff1690565b6101a86103343660046113c7565b610e85565b6002546001600160801b0316610158565b6101a86110c2565b3360009081526020819052604090206004015460ff16151560011461037657600080fd5b3360009081526020819052604090206004015462010000900460ff16151560011480156103bc5750336000818152602081905260409020600101546001600160a01b0316145b6103e15760405162461bcd60e51b81526004016103d890611552565b60405180910390fd5b3360008181526020818152604091829020600401805461ff001916905590519182527fe5774dc76216b6570b210f3cb5fed8d6d443aadc204e69b02436c40bae70db3491015b60405180910390a1565b6000602081905290815260409020805460018201546002830180546001600160801b03909316936001600160a01b039092169261046d90611581565b80601f016020809104026020016040519081016040528092919081815260200182805461049990611581565b80156104e65780601f106104bb576101008083540402835291602001916104e6565b820191906000526020600020905b8154815290600101906020018083116104c957829003601f168201915b50505050600383015460049093015491929160ff808216925061010082048116916201000090041687565b3360009081526020819052604090206004015460ff16151560011461053557600080fd5b6020818101516001600160a01b0316600090815290819052604090206004015462010000900460ff16151560011461057f5760405162461bcd60e51b81526004016103d8906115bb565b6020808201516001600160a01b039081166000908152918290526040909120600101541633146105c15760405162461bcd60e51b81526004016103d8906115e9565b602081810180516001600160a01b039081166000908152808452604080822060049081015460ff9081161515608089015285518516845283875282842090910154610100900416151560a087015283518316825293819052839020845181546001600160801b0319166001600160801b0390911617815591516001830180546001600160a01b031916919092161790559082015182919060028201906106679082611663565b506060820151600382015560808201516004909101805460a084015160c0909401511515620100000262ff0000199415156101000261ff00199415159490941661ffff19909216919091179290921792909216179055602081015160408083015190517f895c57d6846b159457da8c5691dbdcc3ee078da87a4c6837b61ace71780aee06926106f7929091611723565b60405180910390a150565b60405163038c332960e51b81523360048201527f00000000000000000000000000000000000000000000000000000000000000006001600160a01b031690637186652090602401602060405180830381865afa158015610766573d6000803e3d6000fd5b505050506040513d601f19601f8201168201806040525081019061078a919061174f565b6107a65760405162461bcd60e51b81526004016103d89061176c565b6001600160a01b03811660009081526020819052604090206004015462010000900460ff1615156001146107ec5760405162461bcd60e51b81526004016103d890611552565b6001600160a01b03811660008181526020818152604091829020600401805460ff19166001179055815192835233908301527f4353413b15cd3738c15f5943344e98f0982686884f71f3d2a639891b7ed281b791016106f7565b6040805160e0808201835260008083526020808401829052606084860181905284018290526080840182905260a0840182905260c0840182905260ff861682526001808252858320546001600160a01b039081168452838352928690208651948501875280546001600160801b0316855290810154909216908301526002810180549394929391928401916108da90611581565b80601f016020809104026020016040519081016040528092919081815260200182805461090690611581565b80156109535780601f1061092857610100808354040283529160200191610953565b820191906000526020600020905b81548152906001019060200180831161093657829003601f168201915b50505091835250506003820154602082015260049091015460ff8082161515604084015261010082048116151560608401526201000090910416151560809091015292915050565b60405163038c332960e51b81523360048201527f00000000000000000000000000000000000000000000000000000000000000006001600160a01b031690637186652090602401602060405180830381865afa1580156109ff573d6000803e3d6000fd5b505050506040513d601f19601f82011682018060405250810190610a23919061174f565b610a3f5760405162461bcd60e51b81526004016103d89061176c565b6020818101516001600160a01b0316600090815290819052604090206004015462010000900460ff161515600114610a895760405162461bcd60e51b81526004016103d8906115bb565b602081810180516001600160a01b039081166000908152808452604080822060049081015460ff9081161515608089015285518516845283875282842090910154610100900416151560a087015283518316825293819052839020845181546001600160801b0319166001600160801b0390911617815591516001830180546001600160a01b03191691909216179055908201518291906002820190610b2f9082611663565b506060820151600382015560808201516004909101805460a084015160c0909401511515620100000262ff0000199415156101000261ff00199415159490941661ffff19909216919091179290921792909216179055602081015160408083015190517ffa648c383832609827e2704dc27852742c362e9716571d853d2adbd2b75f3cd5926106f79290913390611796565b60405163038c332960e51b81523360048201527f00000000000000000000000000000000000000000000000000000000000000006001600160a01b031690637186652090602401602060405180830381865afa158015610c25573d6000803e3d6000fd5b505050506040513d601f19601f82011682018060405250810190610c49919061174f565b610c655760405162461bcd60e51b81526004016103d89061176c565b6001600160a01b03811660009081526020819052604090206004015462010000900460ff161515600114610cab5760405162461bcd60e51b81526004016103d890611552565b6001600160a01b03811660008181526020818152604091829020600401805460ff19169055815192835233908301527f54ca41dd8de3ebb98f98a5f6fb0390d8f2c691921355f6657ae3b2f5b56a881b91016106f7565b60405163038c332960e51b81523360048201527f00000000000000000000000000000000000000000000000000000000000000006001600160a01b031690637186652090602401602060405180830381865afa158015610d66573d6000803e3d6000fd5b505050506040513d601f19601f82011682018060405250810190610d8a919061174f565b610da65760405162461bcd60e51b81526004016103d89061176c565b6001600160a01b03811660009081526020819052604090206004015462010000900460ff161515600114610dec5760405162461bcd60e51b81526004016103d8906115bb565b6001600160a01b038116600090815260208190526040812080546001600160801b03191681556001810180546001600160a01b031916905590610e326002830182611196565b5060006003820155600401805462ffffff19169055604080516001600160a01b03831681523360208201527fa36348788e76a7600444ed49ae6c1099ab91d47dfb810828281289ef9cfc2e5191016106f7565b6020818101516001600160a01b0316600090815290819052604090206004015462010000900460ff161515600103610ecf5760405162461bcd60e51b81526004016103d8906115bb565b60208101516001600160a01b03163314610efb5760405162461bcd60e51b81526004016103d8906115e9565b60006080820181905260a08201526002546001600160801b0316808252426060830152610f298160016117cb565b6001600160801b031611610f4f5760405162461bcd60e51b81526004016103d8906115e9565b602081810180516001600160a01b03908116600090815292839052604092839020845181546001600160801b0319166001600160801b0390911617815591516001830180546001600160a01b03191691909216179055908201518291906002820190610fbb9082611663565b506060820151600382015560808201516004909101805460a084015160c09094015161ffff1990911692151561ff00191692909217610100931515939093029290921762ff000019166201000091151591909102179055602081810151600280546001600160801b0390811660009081526001948590526040812080546001600160a01b0319166001600160a01b03909516949094179093558154919291611065918591166117cb565b92506101000a8154816001600160801b0302191690836001600160801b031602179055507f9f65233eba02d5215f3d26f2235b1e8b55f1ef8a9e49b96daabf3afb9713aedf816020015182604001516040516106f7929190611723565b3360009081526020819052604090206004015460ff1615156001146110e657600080fd5b3360009081526020819052604090206004015462010000900460ff161515600114801561112c5750336000818152602081905260409020600101546001600160a01b0316145b6111485760405162461bcd60e51b81526004016103d890611552565b3360008181526020818152604091829020600401805461ff00191661010017905590519182527f41b29cac8375216177a0c8d96dba938910dc6a3650e7f38b04146aa1f63811319101610427565b5080546111a290611581565b6000825580601f106111b2575050565b601f0160209004906000526020600020908101906111d091906111d3565b50565b5b808211156111e857600081556001016111d4565b5090565b80356001600160a01b038116811461120357600080fd5b919050565b60006020828403121561121a57600080fd5b611223826111ec565b9392505050565b6000815180845260005b8181101561125057602081850181015186830182015201611234565b506000602082860101526020601f19601f83011685010191505092915050565b6001600160801b03881681526001600160a01b038716602082015260e0604082018190526000906112a39083018861122a565b606083019690965250921515608084015290151560a0830152151560c0909101529392505050565b634e487b7160e01b600052604160045260246000fd5b60405160e0810167ffffffffffffffff81118282101715611304576113046112cb565b60405290565b80356001600160801b038116811461120357600080fd5b600082601f83011261133257600080fd5b813567ffffffffffffffff8082111561134d5761134d6112cb565b604051601f8301601f19908116603f01168101908282118183101715611375576113756112cb565b8160405283815286602085880101111561138e57600080fd5b836020870160208301376000602085830101528094505050505092915050565b80151581146111d057600080fd5b8035611203816113ae565b6000602082840312156113d957600080fd5b813567ffffffffffffffff808211156113f157600080fd5b9083019060e0828603121561140557600080fd5b61140d6112e1565b6114168361130a565b8152611424602084016111ec565b602082015260408301358281111561143b57600080fd5b61144787828601611321565b60408301525060608301356060820152611463608084016113bc565b608082015261147460a084016113bc565b60a082015261148560c084016113bc565b60c082015295945050505050565b6000602082840312156114a557600080fd5b6112238261130a565b6000602082840312156114c057600080fd5b813560ff8116811461122357600080fd5b602081526001600160801b03825116602082015260018060a01b0360208301511660408201526000604083015160e0606084015261151361010084018261122a565b9050606084015160808401526080840151151560a084015260a0840151151560c084015260c084015161154a60e085018215159052565b509392505050565b6020808252601590820152741d1a194819d85d1bdc881a5cdb9bdd08195e1a5cdd605a1b604082015260600190565b600181811c9082168061159557607f821691505b6020821081036115b557634e487b7160e01b600052602260045260246000fd5b50919050565b6020808252601490820152733a34329033b0ba37b91034b99032bc34b9ba32b960611b604082015260600190565b6020808252601190820152703a34329033b0ba37b91034b9903cb7bab960791b604082015260600190565b601f82111561165e57600081815260208120601f850160051c8101602086101561163b5750805b601f850160051c820191505b8181101561165a57828155600101611647565b5050505b505050565b815167ffffffffffffffff81111561167d5761167d6112cb565b6116918161168b8454611581565b84611614565b602080601f8311600181146116c657600084156116ae5750858301515b600019600386901b1c1916600185901b17855561165a565b600085815260208120601f198616915b828110156116f5578886015182559484019460019091019084016116d6565b50858210156117135787850151600019600388901b60f8161c191681555b5050505050600190811b01905550565b6001600160a01b03831681526040602082018190526000906117479083018461122a565b949350505050565b60006020828403121561176157600080fd5b8151611223816113ae565b60208082526010908201526f3cb7ba9030b9329036b0b935b2ba37b960811b604082015260600190565b600060018060a01b038086168352606060208401526117b8606084018661122a565b9150808416604084015250949350505050565b6001600160801b038181168382160190808211156117f957634e487b7160e01b600052601160045260246000fd5b509291505056fea2646970667358221220253b50a243a92bfcebab1c8f916dd662c80f529f5b57a4a2b504983186a2b79764736f6c63430008120033",
					"opcodes": "PUSH1 0xA0 PUSH1 0x40 MSTORE CALLVALUE DUP1 ISZERO PUSH3 0x11 JUMPI PUSH1 0x0 DUP1 REVERT JUMPDEST POP PUSH1 0x40 MLOAD PUSH3 0x1933 CODESIZE SUB DUP1 PUSH3 0x1933 DUP4 CODECOPY DUP2 ADD PUSH1 0x40 DUP2 SWAP1 MSTORE PUSH3 0x34 SWAP2 PUSH3 0x8D JUMP JUMPDEST PUSH1 0x1 PUSH1 0x1 PUSH1 0xA0 SHL SUB SWAP2 DUP3 AND PUSH1 0x80 MSTORE PUSH1 0x3 DUP1 SLOAD PUSH1 0x1 PUSH1 0x1 PUSH1 0xA0 SHL SUB NOT AND SWAP2 SWAP1 SWAP3 AND OR SWAP1 SSTORE PUSH1 0x2 DUP1 SLOAD PUSH1 0x1 PUSH1 0x1 PUSH1 0x80 SHL SUB NOT AND PUSH1 0x1 OR SWAP1 SSTORE PUSH3 0xC5 JUMP JUMPDEST DUP1 MLOAD PUSH1 0x1 PUSH1 0x1 PUSH1 0xA0 SHL SUB DUP2 AND DUP2 EQ PUSH3 0x88 JUMPI PUSH1 0x0 DUP1 REVERT JUMPDEST SWAP2 SWAP1 POP JUMP JUMPDEST PUSH1 0x0 DUP1 PUSH1 0x40 DUP4 DUP6 SUB SLT ISZERO PUSH3 0xA1 JUMPI PUSH1 0x0 DUP1 REVERT JUMPDEST PUSH3 0xAC DUP4 PUSH3 0x70 JUMP JUMPDEST SWAP2 POP PUSH3 0xBC PUSH1 0x20 DUP5 ADD PUSH3 0x70 JUMP JUMPDEST SWAP1 POP SWAP3 POP SWAP3 SWAP1 POP JUMP JUMPDEST PUSH1 0x80 MLOAD PUSH2 0x1836 PUSH3 0xFD PUSH1 0x0 CODECOPY PUSH1 0x0 DUP2 DUP2 PUSH2 0x1D5 ADD MSTORE DUP2 DUP2 PUSH2 0x717 ADD MSTORE DUP2 DUP2 PUSH2 0x9B0 ADD MSTORE DUP2 DUP2 PUSH2 0xBD6 ADD MSTORE PUSH2 0xD17 ADD MSTORE PUSH2 0x1836 PUSH1 0x0 RETURN INVALID PUSH1 0x80 PUSH1 0x40 MSTORE CALLVALUE DUP1 ISZERO PUSH2 0x10 JUMPI PUSH1 0x0 DUP1 REVERT JUMPDEST POP PUSH1 0x4 CALLDATASIZE LT PUSH2 0x121 JUMPI PUSH1 0x0 CALLDATALOAD PUSH1 0xE0 SHR DUP1 PUSH4 0x82DFBD20 GT PUSH2 0xAD JUMPI DUP1 PUSH4 0xB614984D GT PUSH2 0x71 JUMPI DUP1 PUSH4 0xB614984D EQ PUSH2 0x2E4 JUMPI DUP1 PUSH4 0xC0384292 EQ PUSH2 0x2F7 JUMPI DUP1 PUSH4 0xCF093EEE EQ PUSH2 0x326 JUMPI DUP1 PUSH4 0xDD348460 EQ PUSH2 0x339 JUMPI DUP1 PUSH4 0xF1C9F40F EQ PUSH2 0x34A JUMPI PUSH1 0x0 DUP1 REVERT JUMPDEST DUP1 PUSH4 0x82DFBD20 EQ PUSH2 0x257 JUMPI DUP1 PUSH4 0x8AB5B534 EQ PUSH2 0x280 JUMPI DUP1 PUSH4 0x90872671 EQ PUSH2 0x2A0 JUMPI DUP1 PUSH4 0xA4786088 EQ PUSH2 0x2B3 JUMPI DUP1 PUSH4 0xB4C4B9AC EQ PUSH2 0x2C6 JUMPI PUSH1 0x0 DUP1 REVERT JUMPDEST DUP1 PUSH4 0x492B7107 GT PUSH2 0xF4 JUMPI DUP1 PUSH4 0x492B7107 EQ PUSH2 0x1D0 JUMPI DUP1 PUSH4 0x54A460F6 EQ PUSH2 0x1F7 JUMPI DUP1 PUSH4 0x60772DC9 EQ PUSH2 0x21E JUMPI DUP1 PUSH4 0x631D1878 EQ PUSH2 0x231 JUMPI DUP1 PUSH4 0x76941300 EQ PUSH2 0x244 JUMPI PUSH1 0x0 DUP1 REVERT JUMPDEST DUP1 PUSH4 0x19B24EE3 EQ PUSH2 0x126 JUMPI DUP1 PUSH4 0x27CBAABE EQ PUSH2 0x175 JUMPI DUP1 PUSH4 0x3BBAE141 EQ PUSH2 0x1A0 JUMPI DUP1 PUSH4 0x45DF4987 EQ PUSH2 0x1AA JUMPI JUMPDEST PUSH1 0x0 DUP1 REVERT JUMPDEST PUSH2 0x158 PUSH2 0x134 CALLDATASIZE PUSH1 0x4 PUSH2 0x1208 JUMP JUMPDEST PUSH1 0x1 PUSH1 0x1 PUSH1 0xA0 SHL SUB AND PUSH1 0x0 SWAP1 DUP2 MSTORE PUSH1 0x20 DUP2 SWAP1 MSTORE PUSH1 0x40 SWAP1 KECCAK256 SLOAD PUSH1 0x1 PUSH1 0x1 PUSH1 0x80 SHL SUB AND SWAP1 JUMP JUMPDEST PUSH1 0x40 MLOAD PUSH1 0x1 PUSH1 0x1 PUSH1 0x80 SHL SUB SWAP1 SWAP2 AND DUP2 MSTORE PUSH1 0x20 ADD JUMPDEST PUSH1 0x40 MLOAD DUP1 SWAP2 SUB SWAP1 RETURN JUMPDEST PUSH1 0x3 SLOAD PUSH2 0x188 SWAP1 PUSH1 0x1 PUSH1 0x1 PUSH1 0xA0 SHL SUB AND DUP2 JUMP JUMPDEST PUSH1 0x40 MLOAD PUSH1 0x1 PUSH1 0x1 PUSH1 0xA0 SHL SUB SWAP1 SWAP2 AND DUP2 MSTORE PUSH1 0x20 ADD PUSH2 0x16C JUMP JUMPDEST PUSH2 0x1A8 PUSH2 0x352 JUMP JUMPDEST STOP JUMPDEST PUSH2 0x1BD PUSH2 0x1B8 CALLDATASIZE PUSH1 0x4 PUSH2 0x1208 JUMP JUMPDEST PUSH2 0x431 JUMP JUMPDEST PUSH1 0x40 MLOAD PUSH2 0x16C SWAP8 SWAP7 SWAP6 SWAP5 SWAP4 SWAP3 SWAP2 SWAP1 PUSH2 0x1270 JUMP JUMPDEST PUSH2 0x188 PUSH32 0x0 DUP2 JUMP JUMPDEST CALLER PUSH1 0x0 SWAP1 DUP2 MSTORE PUSH1 0x20 DUP2 SWAP1 MSTORE PUSH1 0x40 SWAP1 KECCAK256 PUSH1 0x4 ADD SLOAD PUSH1 0xFF AND JUMPDEST PUSH1 0x40 MLOAD SWAP1 ISZERO ISZERO DUP2 MSTORE PUSH1 0x20 ADD PUSH2 0x16C JUMP JUMPDEST PUSH1 0x2 SLOAD PUSH2 0x158 SWAP1 PUSH1 0x1 PUSH1 0x1 PUSH1 0x80 SHL SUB AND DUP2 JUMP JUMPDEST PUSH2 0x1A8 PUSH2 0x23F CALLDATASIZE PUSH1 0x4 PUSH2 0x13C7 JUMP JUMPDEST PUSH2 0x511 JUMP JUMPDEST PUSH2 0x1A8 PUSH2 0x252 CALLDATASIZE PUSH1 0x4 PUSH2 0x1208 JUMP JUMPDEST PUSH2 0x702 JUMP JUMPDEST PUSH2 0x188 PUSH2 0x265 CALLDATASIZE PUSH1 0x4 PUSH2 0x1493 JUMP JUMPDEST PUSH1 0x1 PUSH1 0x20 MSTORE PUSH1 0x0 SWAP1 DUP2 MSTORE PUSH1 0x40 SWAP1 KECCAK256 SLOAD PUSH1 0x1 PUSH1 0x1 PUSH1 0xA0 SHL SUB AND DUP2 JUMP JUMPDEST PUSH2 0x293 PUSH2 0x28E CALLDATASIZE PUSH1 0x4 PUSH2 0x14AE JUMP JUMPDEST PUSH2 0x846 JUMP JUMPDEST PUSH1 0x40 MLOAD PUSH2 0x16C SWAP2 SWAP1 PUSH2 0x14D1 JUMP JUMPDEST PUSH2 0x1A8 PUSH2 0x2AE CALLDATASIZE PUSH1 0x4 PUSH2 0x13C7 JUMP JUMPDEST PUSH2 0x99B JUMP JUMPDEST PUSH2 0x1A8 PUSH2 0x2C1 CALLDATASIZE PUSH1 0x4 PUSH2 0x1208 JUMP JUMPDEST PUSH2 0xBC1 JUMP JUMPDEST CALLER PUSH1 0x0 SWAP1 DUP2 MSTORE PUSH1 0x20 DUP2 SWAP1 MSTORE PUSH1 0x40 SWAP1 KECCAK256 SLOAD PUSH1 0x1 PUSH1 0x1 PUSH1 0x80 SHL SUB AND PUSH2 0x158 JUMP JUMPDEST PUSH2 0x1A8 PUSH2 0x2F2 CALLDATASIZE PUSH1 0x4 PUSH2 0x1208 JUMP JUMPDEST PUSH2 0xD02 JUMP JUMPDEST PUSH2 0x20E PUSH2 0x305 CALLDATASIZE PUSH1 0x4 PUSH2 0x1208 JUMP JUMPDEST PUSH1 0x1 PUSH1 0x1 PUSH1 0xA0 SHL SUB AND PUSH1 0x0 SWAP1 DUP2 MSTORE PUSH1 0x20 DUP2 SWAP1 MSTORE PUSH1 0x40 SWAP1 KECCAK256 PUSH1 0x4 ADD SLOAD PUSH1 0xFF AND SWAP1 JUMP JUMPDEST PUSH2 0x1A8 PUSH2 0x334 CALLDATASIZE PUSH1 0x4 PUSH2 0x13C7 JUMP JUMPDEST PUSH2 0xE85 JUMP JUMPDEST PUSH1 0x2 SLOAD PUSH1 0x1 PUSH1 0x1 PUSH1 0x80 SHL SUB AND PUSH2 0x158 JUMP JUMPDEST PUSH2 0x1A8 PUSH2 0x10C2 JUMP JUMPDEST CALLER PUSH1 0x0 SWAP1 DUP2 MSTORE PUSH1 0x20 DUP2 SWAP1 MSTORE PUSH1 0x40 SWAP1 KECCAK256 PUSH1 0x4 ADD SLOAD PUSH1 0xFF AND ISZERO ISZERO PUSH1 0x1 EQ PUSH2 0x376 JUMPI PUSH1 0x0 DUP1 REVERT JUMPDEST CALLER PUSH1 0x0 SWAP1 DUP2 MSTORE PUSH1 0x20 DUP2 SWAP1 MSTORE PUSH1 0x40 SWAP1 KECCAK256 PUSH1 0x4 ADD SLOAD PUSH3 0x10000 SWAP1 DIV PUSH1 0xFF AND ISZERO ISZERO PUSH1 0x1 EQ DUP1 ISZERO PUSH2 0x3BC JUMPI POP CALLER PUSH1 0x0 DUP2 DUP2 MSTORE PUSH1 0x20 DUP2 SWAP1 MSTORE PUSH1 0x40 SWAP1 KECCAK256 PUSH1 0x1 ADD SLOAD PUSH1 0x1 PUSH1 0x1 PUSH1 0xA0 SHL SUB AND EQ JUMPDEST PUSH2 0x3E1 JUMPI PUSH1 0x40 MLOAD PUSH3 0x461BCD PUSH1 0xE5 SHL DUP2 MSTORE PUSH1 0x4 ADD PUSH2 0x3D8 SWAP1 PUSH2 0x1552 JUMP JUMPDEST PUSH1 0x40 MLOAD DUP1 SWAP2 SUB SWAP1 REVERT JUMPDEST CALLER PUSH1 0x0 DUP2 DUP2 MSTORE PUSH1 0x20 DUP2 DUP2 MSTORE PUSH1 0x40 SWAP2 DUP3 SWAP1 KECCAK256 PUSH1 0x4 ADD DUP1 SLOAD PUSH2 0xFF00 NOT AND SWAP1 SSTORE SWAP1 MLOAD SWAP2 DUP3 MSTORE PUSH32 0xE5774DC76216B6570B210F3CB5FED8D6D443AADC204E69B02436C40BAE70DB34 SWAP2 ADD JUMPDEST PUSH1 0x40 MLOAD DUP1 SWAP2 SUB SWAP1 LOG1 JUMP JUMPDEST PUSH1 0x0 PUSH1 0x20 DUP2 SWAP1 MSTORE SWAP1 DUP2 MSTORE PUSH1 0x40 SWAP1 KECCAK256 DUP1 SLOAD PUSH1 0x1 DUP3 ADD SLOAD PUSH1 0x2 DUP4 ADD DUP1 SLOAD PUSH1 0x1 PUSH1 0x1 PUSH1 0x80 SHL SUB SWAP1 SWAP4 AND SWAP4 PUSH1 0x1 PUSH1 0x1 PUSH1 0xA0 SHL SUB SWAP1 SWAP3 AND SWAP3 PUSH2 0x46D SWAP1 PUSH2 0x1581 JUMP JUMPDEST DUP1 PUSH1 0x1F ADD PUSH1 0x20 DUP1 SWAP2 DIV MUL PUSH1 0x20 ADD PUSH1 0x40 MLOAD SWAP1 DUP2 ADD PUSH1 0x40 MSTORE DUP1 SWAP3 SWAP2 SWAP1 DUP2 DUP2 MSTORE PUSH1 0x20 ADD DUP3 DUP1 SLOAD PUSH2 0x499 SWAP1 PUSH2 0x1581 JUMP JUMPDEST DUP1 ISZERO PUSH2 0x4E6 JUMPI DUP1 PUSH1 0x1F LT PUSH2 0x4BB JUMPI PUSH2 0x100 DUP1 DUP4 SLOAD DIV MUL DUP4 MSTORE SWAP2 PUSH1 0x20 ADD SWAP2 PUSH2 0x4E6 JUMP JUMPDEST DUP3 ADD SWAP2 SWAP1 PUSH1 0x0 MSTORE PUSH1 0x20 PUSH1 0x0 KECCAK256 SWAP1 JUMPDEST DUP2 SLOAD DUP2 MSTORE SWAP1 PUSH1 0x1 ADD SWAP1 PUSH1 0x20 ADD DUP1 DUP4 GT PUSH2 0x4C9 JUMPI DUP3 SWAP1 SUB PUSH1 0x1F AND DUP3 ADD SWAP2 JUMPDEST POP POP POP POP PUSH1 0x3 DUP4 ADD SLOAD PUSH1 0x4 SWAP1 SWAP4 ADD SLOAD SWAP2 SWAP3 SWAP2 PUSH1 0xFF DUP1 DUP3 AND SWAP3 POP PUSH2 0x100 DUP3 DIV DUP2 AND SWAP2 PUSH3 0x10000 SWAP1 DIV AND DUP8 JUMP JUMPDEST CALLER PUSH1 0x0 SWAP1 DUP2 MSTORE PUSH1 0x20 DUP2 SWAP1 MSTORE PUSH1 0x40 SWAP1 KECCAK256 PUSH1 0x4 ADD SLOAD PUSH1 0xFF AND ISZERO ISZERO PUSH1 0x1 EQ PUSH2 0x535 JUMPI PUSH1 0x0 DUP1 REVERT JUMPDEST PUSH1 0x20 DUP2 DUP2 ADD MLOAD PUSH1 0x1 PUSH1 0x1 PUSH1 0xA0 SHL SUB AND PUSH1 0x0 SWAP1 DUP2 MSTORE SWAP1 DUP2 SWAP1 MSTORE PUSH1 0x40 SWAP1 KECCAK256 PUSH1 0x4 ADD SLOAD PUSH3 0x10000 SWAP1 DIV PUSH1 0xFF AND ISZERO ISZERO PUSH1 0x1 EQ PUSH2 0x57F JUMPI PUSH1 0x40 MLOAD PUSH3 0x461BCD PUSH1 0xE5 SHL DUP2 MSTORE PUSH1 0x4 ADD PUSH2 0x3D8 SWAP1 PUSH2 0x15BB JUMP JUMPDEST PUSH1 0x20 DUP1 DUP3 ADD MLOAD PUSH1 0x1 PUSH1 0x1 PUSH1 0xA0 SHL SUB SWAP1 DUP2 AND PUSH1 0x0 SWAP1 DUP2 MSTORE SWAP2 DUP3 SWAP1 MSTORE PUSH1 0x40 SWAP1 SWAP2 KECCAK256 PUSH1 0x1 ADD SLOAD AND CALLER EQ PUSH2 0x5C1 JUMPI PUSH1 0x40 MLOAD PUSH3 0x461BCD PUSH1 0xE5 SHL DUP2 MSTORE PUSH1 0x4 ADD PUSH2 0x3D8 SWAP1 PUSH2 0x15E9 JUMP JUMPDEST PUSH1 0x20 DUP2 DUP2 ADD DUP1 MLOAD PUSH1 0x1 PUSH1 0x1 PUSH1 0xA0 SHL SUB SWAP1 DUP2 AND PUSH1 0x0 SWAP1 DUP2 MSTORE DUP1 DUP5 MSTORE PUSH1 0x40 DUP1 DUP3 KECCAK256 PUSH1 0x4 SWAP1 DUP2 ADD SLOAD PUSH1 0xFF SWAP1 DUP2 AND ISZERO ISZERO PUSH1 0x80 DUP10 ADD MSTORE DUP6 MLOAD DUP6 AND DUP5 MSTORE DUP4 DUP8 MSTORE DUP3 DUP5 KECCAK256 SWAP1 SWAP2 ADD SLOAD PUSH2 0x100 SWAP1 DIV AND ISZERO ISZERO PUSH1 0xA0 DUP8 ADD MSTORE DUP4 MLOAD DUP4 AND DUP3 MSTORE SWAP4 DUP2 SWAP1 MSTORE DUP4 SWAP1 KECCAK256 DUP5 MLOAD DUP2 SLOAD PUSH1 0x1 PUSH1 0x1 PUSH1 0x80 SHL SUB NOT AND PUSH1 0x1 PUSH1 0x1 PUSH1 0x80 SHL SUB SWAP1 SWAP2 AND OR DUP2 SSTORE SWAP2 MLOAD PUSH1 0x1 DUP4 ADD DUP1 SLOAD PUSH1 0x1 PUSH1 0x1 PUSH1 0xA0 SHL SUB NOT AND SWAP2 SWAP1 SWAP3 AND OR SWAP1 SSTORE SWAP1 DUP3 ADD MLOAD DUP3 SWAP2 SWAP1 PUSH1 0x2 DUP3 ADD SWAP1 PUSH2 0x667 SWAP1 DUP3 PUSH2 0x1663 JUMP JUMPDEST POP PUSH1 0x60 DUP3 ADD MLOAD PUSH1 0x3 DUP3 ADD SSTORE PUSH1 0x80 DUP3 ADD MLOAD PUSH1 0x4 SWAP1 SWAP2 ADD DUP1 SLOAD PUSH1 0xA0 DUP5 ADD MLOAD PUSH1 0xC0 SWAP1 SWAP5 ADD MLOAD ISZERO ISZERO PUSH3 0x10000 MUL PUSH3 0xFF0000 NOT SWAP5 ISZERO ISZERO PUSH2 0x100 MUL PUSH2 0xFF00 NOT SWAP5 ISZERO ISZERO SWAP5 SWAP1 SWAP5 AND PUSH2 0xFFFF NOT SWAP1 SWAP3 AND SWAP2 SWAP1 SWAP2 OR SWAP3 SWAP1 SWAP3 OR SWAP3 SWAP1 SWAP3 AND OR SWAP1 SSTORE PUSH1 0x20 DUP2 ADD MLOAD PUSH1 0x40 DUP1 DUP4 ADD MLOAD SWAP1 MLOAD PUSH32 0x895C57D6846B159457DA8C5691DBDCC3EE078DA87A4C6837B61ACE71780AEE06 SWAP3 PUSH2 0x6F7 SWAP3 SWAP1 SWAP2 PUSH2 0x1723 JUMP JUMPDEST PUSH1 0x40 MLOAD DUP1 SWAP2 SUB SWAP1 LOG1 POP JUMP JUMPDEST PUSH1 0x40 MLOAD PUSH4 0x38C3329 PUSH1 0xE5 SHL DUP2 MSTORE CALLER PUSH1 0x4 DUP3 ADD MSTORE PUSH32 0x0 PUSH1 0x1 PUSH1 0x1 PUSH1 0xA0 SHL SUB AND SWAP1 PUSH4 0x71866520 SWAP1 PUSH1 0x24 ADD PUSH1 0x20 PUSH1 0x40 MLOAD DUP1 DUP4 SUB DUP2 DUP7 GAS STATICCALL ISZERO DUP1 ISZERO PUSH2 0x766 JUMPI RETURNDATASIZE PUSH1 0x0 DUP1 RETURNDATACOPY RETURNDATASIZE PUSH1 0x0 REVERT JUMPDEST POP POP POP POP PUSH1 0x40 MLOAD RETURNDATASIZE PUSH1 0x1F NOT PUSH1 0x1F DUP3 ADD AND DUP3 ADD DUP1 PUSH1 0x40 MSTORE POP DUP2 ADD SWAP1 PUSH2 0x78A SWAP2 SWAP1 PUSH2 0x174F JUMP JUMPDEST PUSH2 0x7A6 JUMPI PUSH1 0x40 MLOAD PUSH3 0x461BCD PUSH1 0xE5 SHL DUP2 MSTORE PUSH1 0x4 ADD PUSH2 0x3D8 SWAP1 PUSH2 0x176C JUMP JUMPDEST PUSH1 0x1 PUSH1 0x1 PUSH1 0xA0 SHL SUB DUP2 AND PUSH1 0x0 SWAP1 DUP2 MSTORE PUSH1 0x20 DUP2 SWAP1 MSTORE PUSH1 0x40 SWAP1 KECCAK256 PUSH1 0x4 ADD SLOAD PUSH3 0x10000 SWAP1 DIV PUSH1 0xFF AND ISZERO ISZERO PUSH1 0x1 EQ PUSH2 0x7EC JUMPI PUSH1 0x40 MLOAD PUSH3 0x461BCD PUSH1 0xE5 SHL DUP2 MSTORE PUSH1 0x4 ADD PUSH2 0x3D8 SWAP1 PUSH2 0x1552 JUMP JUMPDEST PUSH1 0x1 PUSH1 0x1 PUSH1 0xA0 SHL SUB DUP2 AND PUSH1 0x0 DUP2 DUP2 MSTORE PUSH1 0x20 DUP2 DUP2 MSTORE PUSH1 0x40 SWAP2 DUP3 SWAP1 KECCAK256 PUSH1 0x4 ADD DUP1 SLOAD PUSH1 0xFF NOT AND PUSH1 0x1 OR SWAP1 SSTORE DUP2 MLOAD SWAP3 DUP4 MSTORE CALLER SWAP1 DUP4 ADD MSTORE PUSH32 0x4353413B15CD3738C15F5943344E98F0982686884F71F3D2A639891B7ED281B7 SWAP2 ADD PUSH2 0x6F7 JUMP JUMPDEST PUSH1 0x40 DUP1 MLOAD PUSH1 0xE0 DUP1 DUP3 ADD DUP4 MSTORE PUSH1 0x0 DUP1 DUP4 MSTORE PUSH1 0x20 DUP1 DUP5 ADD DUP3 SWAP1 MSTORE PUSH1 0x60 DUP5 DUP7 ADD DUP2 SWAP1 MSTORE DUP5 ADD DUP3 SWAP1 MSTORE PUSH1 0x80 DUP5 ADD DUP3 SWAP1 MSTORE PUSH1 0xA0 DUP5 ADD DUP3 SWAP1 MSTORE PUSH1 0xC0 DUP5 ADD DUP3 SWAP1 MSTORE PUSH1 0xFF DUP7 AND DUP3 MSTORE PUSH1 0x1 DUP1 DUP3 MSTORE DUP6 DUP4 KECCAK256 SLOAD PUSH1 0x1 PUSH1 0x1 PUSH1 0xA0 SHL SUB SWAP1 DUP2 AND DUP5 MSTORE DUP4 DUP4 MSTORE SWAP3 DUP7 SWAP1 KECCAK256 DUP7 MLOAD SWAP5 DUP6 ADD DUP8 MSTORE DUP1 SLOAD PUSH1 0x1 PUSH1 0x1 PUSH1 0x80 SHL SUB AND DUP6 MSTORE SWAP1 DUP2 ADD SLOAD SWAP1 SWAP3 AND SWAP1 DUP4 ADD MSTORE PUSH1 0x2 DUP2 ADD DUP1 SLOAD SWAP4 SWAP5 SWAP3 SWAP4 SWAP2 SWAP3 DUP5 ADD SWAP2 PUSH2 0x8DA SWAP1 PUSH2 0x1581 JUMP JUMPDEST DUP1 PUSH1 0x1F ADD PUSH1 0x20 DUP1 SWAP2 DIV MUL PUSH1 0x20 ADD PUSH1 0x40 MLOAD SWAP1 DUP2 ADD PUSH1 0x40 MSTORE DUP1 SWAP3 SWAP2 SWAP1 DUP2 DUP2 MSTORE PUSH1 0x20 ADD DUP3 DUP1 SLOAD PUSH2 0x906 SWAP1 PUSH2 0x1581 JUMP JUMPDEST DUP1 ISZERO PUSH2 0x953 JUMPI DUP1 PUSH1 0x1F LT PUSH2 0x928 JUMPI PUSH2 0x100 DUP1 DUP4 SLOAD DIV MUL DUP4 MSTORE SWAP2 PUSH1 0x20 ADD SWAP2 PUSH2 0x953 JUMP JUMPDEST DUP3 ADD SWAP2 SWAP1 PUSH1 0x0 MSTORE PUSH1 0x20 PUSH1 0x0 KECCAK256 SWAP1 JUMPDEST DUP2 SLOAD DUP2 MSTORE SWAP1 PUSH1 0x1 ADD SWAP1 PUSH1 0x20 ADD DUP1 DUP4 GT PUSH2 0x936 JUMPI DUP3 SWAP1 SUB PUSH1 0x1F AND DUP3 ADD SWAP2 JUMPDEST POP POP POP SWAP2 DUP4 MSTORE POP POP PUSH1 0x3 DUP3 ADD SLOAD PUSH1 0x20 DUP3 ADD MSTORE PUSH1 0x4 SWAP1 SWAP2 ADD SLOAD PUSH1 0xFF DUP1 DUP3 AND ISZERO ISZERO PUSH1 0x40 DUP5 ADD MSTORE PUSH2 0x100 DUP3 DIV DUP2 AND ISZERO ISZERO PUSH1 0x60 DUP5 ADD MSTORE PUSH3 0x10000 SWAP1 SWAP2 DIV AND ISZERO ISZERO PUSH1 0x80 SWAP1 SWAP2 ADD MSTORE SWAP3 SWAP2 POP POP JUMP JUMPDEST PUSH1 0x40 MLOAD PUSH4 0x38C3329 PUSH1 0xE5 SHL DUP2 MSTORE CALLER PUSH1 0x4 DUP3 ADD MSTORE PUSH32 0x0 PUSH1 0x1 PUSH1 0x1 PUSH1 0xA0 SHL SUB AND SWAP1 PUSH4 0x71866520 SWAP1 PUSH1 0x24 ADD PUSH1 0x20 PUSH1 0x40 MLOAD DUP1 DUP4 SUB DUP2 DUP7 GAS STATICCALL ISZERO DUP1 ISZERO PUSH2 0x9FF JUMPI RETURNDATASIZE PUSH1 0x0 DUP1 RETURNDATACOPY RETURNDATASIZE PUSH1 0x0 REVERT JUMPDEST POP POP POP POP PUSH1 0x40 MLOAD RETURNDATASIZE PUSH1 0x1F NOT PUSH1 0x1F DUP3 ADD AND DUP3 ADD DUP1 PUSH1 0x40 MSTORE POP DUP2 ADD SWAP1 PUSH2 0xA23 SWAP2 SWAP1 PUSH2 0x174F JUMP JUMPDEST PUSH2 0xA3F JUMPI PUSH1 0x40 MLOAD PUSH3 0x461BCD PUSH1 0xE5 SHL DUP2 MSTORE PUSH1 0x4 ADD PUSH2 0x3D8 SWAP1 PUSH2 0x176C JUMP JUMPDEST PUSH1 0x20 DUP2 DUP2 ADD MLOAD PUSH1 0x1 PUSH1 0x1 PUSH1 0xA0 SHL SUB AND PUSH1 0x0 SWAP1 DUP2 MSTORE SWAP1 DUP2 SWAP1 MSTORE PUSH1 0x40 SWAP1 KECCAK256 PUSH1 0x4 ADD SLOAD PUSH3 0x10000 SWAP1 DIV PUSH1 0xFF AND ISZERO ISZERO PUSH1 0x1 EQ PUSH2 0xA89 JUMPI PUSH1 0x40 MLOAD PUSH3 0x461BCD PUSH1 0xE5 SHL DUP2 MSTORE PUSH1 0x4 ADD PUSH2 0x3D8 SWAP1 PUSH2 0x15BB JUMP JUMPDEST PUSH1 0x20 DUP2 DUP2 ADD DUP1 MLOAD PUSH1 0x1 PUSH1 0x1 PUSH1 0xA0 SHL SUB SWAP1 DUP2 AND PUSH1 0x0 SWAP1 DUP2 MSTORE DUP1 DUP5 MSTORE PUSH1 0x40 DUP1 DUP3 KECCAK256 PUSH1 0x4 SWAP1 DUP2 ADD SLOAD PUSH1 0xFF SWAP1 DUP2 AND ISZERO ISZERO PUSH1 0x80 DUP10 ADD MSTORE DUP6 MLOAD DUP6 AND DUP5 MSTORE DUP4 DUP8 MSTORE DUP3 DUP5 KECCAK256 SWAP1 SWAP2 ADD SLOAD PUSH2 0x100 SWAP1 DIV AND ISZERO ISZERO PUSH1 0xA0 DUP8 ADD MSTORE DUP4 MLOAD DUP4 AND DUP3 MSTORE SWAP4 DUP2 SWAP1 MSTORE DUP4 SWAP1 KECCAK256 DUP5 MLOAD DUP2 SLOAD PUSH1 0x1 PUSH1 0x1 PUSH1 0x80 SHL SUB NOT AND PUSH1 0x1 PUSH1 0x1 PUSH1 0x80 SHL SUB SWAP1 SWAP2 AND OR DUP2 SSTORE SWAP2 MLOAD PUSH1 0x1 DUP4 ADD DUP1 SLOAD PUSH1 0x1 PUSH1 0x1 PUSH1 0xA0 SHL SUB NOT AND SWAP2 SWAP1 SWAP3 AND OR SWAP1 SSTORE SWAP1 DUP3 ADD MLOAD DUP3 SWAP2 SWAP1 PUSH1 0x2 DUP3 ADD SWAP1 PUSH2 0xB2F SWAP1 DUP3 PUSH2 0x1663 JUMP JUMPDEST POP PUSH1 0x60 DUP3 ADD MLOAD PUSH1 0x3 DUP3 ADD SSTORE PUSH1 0x80 DUP3 ADD MLOAD PUSH1 0x4 SWAP1 SWAP2 ADD DUP1 SLOAD PUSH1 0xA0 DUP5 ADD MLOAD PUSH1 0xC0 SWAP1 SWAP5 ADD MLOAD ISZERO ISZERO PUSH3 0x10000 MUL PUSH3 0xFF0000 NOT SWAP5 ISZERO ISZERO PUSH2 0x100 MUL PUSH2 0xFF00 NOT SWAP5 ISZERO ISZERO SWAP5 SWAP1 SWAP5 AND PUSH2 0xFFFF NOT SWAP1 SWAP3 AND SWAP2 SWAP1 SWAP2 OR SWAP3 SWAP1 SWAP3 OR SWAP3 SWAP1 SWAP3 AND OR SWAP1 SSTORE PUSH1 0x20 DUP2 ADD MLOAD PUSH1 0x40 DUP1 DUP4 ADD MLOAD SWAP1 MLOAD PUSH32 0xFA648C383832609827E2704DC27852742C362E9716571D853D2ADBD2B75F3CD5 SWAP3 PUSH2 0x6F7 SWAP3 SWAP1 SWAP2 CALLER SWAP1 PUSH2 0x1796 JUMP JUMPDEST PUSH1 0x40 MLOAD PUSH4 0x38C3329 PUSH1 0xE5 SHL DUP2 MSTORE CALLER PUSH1 0x4 DUP3 ADD MSTORE PUSH32 0x0 PUSH1 0x1 PUSH1 0x1 PUSH1 0xA0 SHL SUB AND SWAP1 PUSH4 0x71866520 SWAP1 PUSH1 0x24 ADD PUSH1 0x20 PUSH1 0x40 MLOAD DUP1 DUP4 SUB DUP2 DUP7 GAS STATICCALL ISZERO DUP1 ISZERO PUSH2 0xC25 JUMPI RETURNDATASIZE PUSH1 0x0 DUP1 RETURNDATACOPY RETURNDATASIZE PUSH1 0x0 REVERT JUMPDEST POP POP POP POP PUSH1 0x40 MLOAD RETURNDATASIZE PUSH1 0x1F NOT PUSH1 0x1F DUP3 ADD AND DUP3 ADD DUP1 PUSH1 0x40 MSTORE POP DUP2 ADD SWAP1 PUSH2 0xC49 SWAP2 SWAP1 PUSH2 0x174F JUMP JUMPDEST PUSH2 0xC65 JUMPI PUSH1 0x40 MLOAD PUSH3 0x461BCD PUSH1 0xE5 SHL DUP2 MSTORE PUSH1 0x4 ADD PUSH2 0x3D8 SWAP1 PUSH2 0x176C JUMP JUMPDEST PUSH1 0x1 PUSH1 0x1 PUSH1 0xA0 SHL SUB DUP2 AND PUSH1 0x0 SWAP1 DUP2 MSTORE PUSH1 0x20 DUP2 SWAP1 MSTORE PUSH1 0x40 SWAP1 KECCAK256 PUSH1 0x4 ADD SLOAD PUSH3 0x10000 SWAP1 DIV PUSH1 0xFF AND ISZERO ISZERO PUSH1 0x1 EQ PUSH2 0xCAB JUMPI PUSH1 0x40 MLOAD PUSH3 0x461BCD PUSH1 0xE5 SHL DUP2 MSTORE PUSH1 0x4 ADD PUSH2 0x3D8 SWAP1 PUSH2 0x1552 JUMP JUMPDEST PUSH1 0x1 PUSH1 0x1 PUSH1 0xA0 SHL SUB DUP2 AND PUSH1 0x0 DUP2 DUP2 MSTORE PUSH1 0x20 DUP2 DUP2 MSTORE PUSH1 0x40 SWAP2 DUP3 SWAP1 KECCAK256 PUSH1 0x4 ADD DUP1 SLOAD PUSH1 0xFF NOT AND SWAP1 SSTORE DUP2 MLOAD SWAP3 DUP4 MSTORE CALLER SWAP1 DUP4 ADD MSTORE PUSH32 0x54CA41DD8DE3EBB98F98A5F6FB0390D8F2C691921355F6657AE3B2F5B56A881B SWAP2 ADD PUSH2 0x6F7 JUMP JUMPDEST PUSH1 0x40 MLOAD PUSH4 0x38C3329 PUSH1 0xE5 SHL DUP2 MSTORE CALLER PUSH1 0x4 DUP3 ADD MSTORE PUSH32 0x0 PUSH1 0x1 PUSH1 0x1 PUSH1 0xA0 SHL SUB AND SWAP1 PUSH4 0x71866520 SWAP1 PUSH1 0x24 ADD PUSH1 0x20 PUSH1 0x40 MLOAD DUP1 DUP4 SUB DUP2 DUP7 GAS STATICCALL ISZERO DUP1 ISZERO PUSH2 0xD66 JUMPI RETURNDATASIZE PUSH1 0x0 DUP1 RETURNDATACOPY RETURNDATASIZE PUSH1 0x0 REVERT JUMPDEST POP POP POP POP PUSH1 0x40 MLOAD RETURNDATASIZE PUSH1 0x1F NOT PUSH1 0x1F DUP3 ADD AND DUP3 ADD DUP1 PUSH1 0x40 MSTORE POP DUP2 ADD SWAP1 PUSH2 0xD8A SWAP2 SWAP1 PUSH2 0x174F JUMP JUMPDEST PUSH2 0xDA6 JUMPI PUSH1 0x40 MLOAD PUSH3 0x461BCD PUSH1 0xE5 SHL DUP2 MSTORE PUSH1 0x4 ADD PUSH2 0x3D8 SWAP1 PUSH2 0x176C JUMP JUMPDEST PUSH1 0x1 PUSH1 0x1 PUSH1 0xA0 SHL SUB DUP2 AND PUSH1 0x0 SWAP1 DUP2 MSTORE PUSH1 0x20 DUP2 SWAP1 MSTORE PUSH1 0x40 SWAP1 KECCAK256 PUSH1 0x4 ADD SLOAD PUSH3 0x10000 SWAP1 DIV PUSH1 0xFF AND ISZERO ISZERO PUSH1 0x1 EQ PUSH2 0xDEC JUMPI PUSH1 0x40 MLOAD PUSH3 0x461BCD PUSH1 0xE5 SHL DUP2 MSTORE PUSH1 0x4 ADD PUSH2 0x3D8 SWAP1 PUSH2 0x15BB JUMP JUMPDEST PUSH1 0x1 PUSH1 0x1 PUSH1 0xA0 SHL SUB DUP2 AND PUSH1 0x0 SWAP1 DUP2 MSTORE PUSH1 0x20 DUP2 SWAP1 MSTORE PUSH1 0x40 DUP2 KECCAK256 DUP1 SLOAD PUSH1 0x1 PUSH1 0x1 PUSH1 0x80 SHL SUB NOT AND DUP2 SSTORE PUSH1 0x1 DUP2 ADD DUP1 SLOAD PUSH1 0x1 PUSH1 0x1 PUSH1 0xA0 SHL SUB NOT AND SWAP1 SSTORE SWAP1 PUSH2 0xE32 PUSH1 0x2 DUP4 ADD DUP3 PUSH2 0x1196 JUMP JUMPDEST POP PUSH1 0x0 PUSH1 0x3 DUP3 ADD SSTORE PUSH1 0x4 ADD DUP1 SLOAD PUSH3 0xFFFFFF NOT AND SWAP1 SSTORE PUSH1 0x40 DUP1 MLOAD PUSH1 0x1 PUSH1 0x1 PUSH1 0xA0 SHL SUB DUP4 AND DUP2 MSTORE CALLER PUSH1 0x20 DUP3 ADD MSTORE PUSH32 0xA36348788E76A7600444ED49AE6C1099AB91D47DFB810828281289EF9CFC2E51 SWAP2 ADD PUSH2 0x6F7 JUMP JUMPDEST PUSH1 0x20 DUP2 DUP2 ADD MLOAD PUSH1 0x1 PUSH1 0x1 PUSH1 0xA0 SHL SUB AND PUSH1 0x0 SWAP1 DUP2 MSTORE SWAP1 DUP2 SWAP1 MSTORE PUSH1 0x40 SWAP1 KECCAK256 PUSH1 0x4 ADD SLOAD PUSH3 0x10000 SWAP1 DIV PUSH1 0xFF AND ISZERO ISZERO PUSH1 0x1 SUB PUSH2 0xECF JUMPI PUSH1 0x40 MLOAD PUSH3 0x461BCD PUSH1 0xE5 SHL DUP2 MSTORE PUSH1 0x4 ADD PUSH2 0x3D8 SWAP1 PUSH2 0x15BB JUMP JUMPDEST PUSH1 0x20 DUP2 ADD MLOAD PUSH1 0x1 PUSH1 0x1 PUSH1 0xA0 SHL SUB AND CALLER EQ PUSH2 0xEFB JUMPI PUSH1 0x40 MLOAD PUSH3 0x461BCD PUSH1 0xE5 SHL DUP2 MSTORE PUSH1 0x4 ADD PUSH2 0x3D8 SWAP1 PUSH2 0x15E9 JUMP JUMPDEST PUSH1 0x0 PUSH1 0x80 DUP3 ADD DUP2 SWAP1 MSTORE PUSH1 0xA0 DUP3 ADD MSTORE PUSH1 0x2 SLOAD PUSH1 0x1 PUSH1 0x1 PUSH1 0x80 SHL SUB AND DUP1 DUP3 MSTORE TIMESTAMP PUSH1 0x60 DUP4 ADD MSTORE PUSH2 0xF29 DUP2 PUSH1 0x1 PUSH2 0x17CB JUMP JUMPDEST PUSH1 0x1 PUSH1 0x1 PUSH1 0x80 SHL SUB AND GT PUSH2 0xF4F JUMPI PUSH1 0x40 MLOAD PUSH3 0x461BCD PUSH1 0xE5 SHL DUP2 MSTORE PUSH1 0x4 ADD PUSH2 0x3D8 SWAP1 PUSH2 0x15E9 JUMP JUMPDEST PUSH1 0x20 DUP2 DUP2 ADD DUP1 MLOAD PUSH1 0x1 PUSH1 0x1 PUSH1 0xA0 SHL SUB SWAP1 DUP2 AND PUSH1 0x0 SWAP1 DUP2 MSTORE SWAP3 DUP4 SWAP1 MSTORE PUSH1 0x40 SWAP3 DUP4 SWAP1 KECCAK256 DUP5 MLOAD DUP2 SLOAD PUSH1 0x1 PUSH1 0x1 PUSH1 0x80 SHL SUB NOT AND PUSH1 0x1 PUSH1 0x1 PUSH1 0x80 SHL SUB SWAP1 SWAP2 AND OR DUP2 SSTORE SWAP2 MLOAD PUSH1 0x1 DUP4 ADD DUP1 SLOAD PUSH1 0x1 PUSH1 0x1 PUSH1 0xA0 SHL SUB NOT AND SWAP2 SWAP1 SWAP3 AND OR SWAP1 SSTORE SWAP1 DUP3 ADD MLOAD DUP3 SWAP2 SWAP1 PUSH1 0x2 DUP3 ADD SWAP1 PUSH2 0xFBB SWAP1 DUP3 PUSH2 0x1663 JUMP JUMPDEST POP PUSH1 0x60 DUP3 ADD MLOAD PUSH1 0x3 DUP3 ADD SSTORE PUSH1 0x80 DUP3 ADD MLOAD PUSH1 0x4 SWAP1 SWAP2 ADD DUP1 SLOAD PUSH1 0xA0 DUP5 ADD MLOAD PUSH1 0xC0 SWAP1 SWAP5 ADD MLOAD PUSH2 0xFFFF NOT SWAP1 SWAP2 AND SWAP3 ISZERO ISZERO PUSH2 0xFF00 NOT AND SWAP3 SWAP1 SWAP3 OR PUSH2 0x100 SWAP4 ISZERO ISZERO SWAP4 SWAP1 SWAP4 MUL SWAP3 SWAP1 SWAP3 OR PUSH3 0xFF0000 NOT AND PUSH3 0x10000 SWAP2 ISZERO ISZERO SWAP2 SWAP1 SWAP2 MUL OR SWAP1 SSTORE PUSH1 0x20 DUP2 DUP2 ADD MLOAD PUSH1 0x2 DUP1 SLOAD PUSH1 0x1 PUSH1 0x1 PUSH1 0x80 SHL SUB SWAP1 DUP2 AND PUSH1 0x0 SWAP1 DUP2 MSTORE PUSH1 0x1 SWAP5 DUP6 SWAP1 MSTORE PUSH1 0x40 DUP2 KECCAK256 DUP1 SLOAD PUSH1 0x1 PUSH1 0x1 PUSH1 0xA0 SHL SUB NOT AND PUSH1 0x1 PUSH1 0x1 PUSH1 0xA0 SHL SUB SWAP1 SWAP6 AND SWAP5 SWAP1 SWAP5 OR SWAP1 SWAP4 SSTORE DUP2 SLOAD SWAP2 SWAP3 SWAP2 PUSH2 0x1065 SWAP2 DUP6 SWAP2 AND PUSH2 0x17CB JUMP JUMPDEST SWAP3 POP PUSH2 0x100 EXP DUP2 SLOAD DUP2 PUSH1 0x1 PUSH1 0x1 PUSH1 0x80 SHL SUB MUL NOT AND SWAP1 DUP4 PUSH1 0x1 PUSH1 0x1 PUSH1 0x80 SHL SUB AND MUL OR SWAP1 SSTORE POP PUSH32 0x9F65233EBA02D5215F3D26F2235B1E8B55F1EF8A9E49B96DAABF3AFB9713AEDF DUP2 PUSH1 0x20 ADD MLOAD DUP3 PUSH1 0x40 ADD MLOAD PUSH1 0x40 MLOAD PUSH2 0x6F7 SWAP3 SWAP2 SWAP1 PUSH2 0x1723 JUMP JUMPDEST CALLER PUSH1 0x0 SWAP1 DUP2 MSTORE PUSH1 0x20 DUP2 SWAP1 MSTORE PUSH1 0x40 SWAP1 KECCAK256 PUSH1 0x4 ADD SLOAD PUSH1 0xFF AND ISZERO ISZERO PUSH1 0x1 EQ PUSH2 0x10E6 JUMPI PUSH1 0x0 DUP1 REVERT JUMPDEST CALLER PUSH1 0x0 SWAP1 DUP2 MSTORE PUSH1 0x20 DUP2 SWAP1 MSTORE PUSH1 0x40 SWAP1 KECCAK256 PUSH1 0x4 ADD SLOAD PUSH3 0x10000 SWAP1 DIV PUSH1 0xFF AND ISZERO ISZERO PUSH1 0x1 EQ DUP1 ISZERO PUSH2 0x112C JUMPI POP CALLER PUSH1 0x0 DUP2 DUP2 MSTORE PUSH1 0x20 DUP2 SWAP1 MSTORE PUSH1 0x40 SWAP1 KECCAK256 PUSH1 0x1 ADD SLOAD PUSH1 0x1 PUSH1 0x1 PUSH1 0xA0 SHL SUB AND EQ JUMPDEST PUSH2 0x1148 JUMPI PUSH1 0x40 MLOAD PUSH3 0x461BCD PUSH1 0xE5 SHL DUP2 MSTORE PUSH1 0x4 ADD PUSH2 0x3D8 SWAP1 PUSH2 0x1552 JUMP JUMPDEST CALLER PUSH1 0x0 DUP2 DUP2 MSTORE PUSH1 0x20 DUP2 DUP2 MSTORE PUSH1 0x40 SWAP2 DUP3 SWAP1 KECCAK256 PUSH1 0x4 ADD DUP1 SLOAD PUSH2 0xFF00 NOT AND PUSH2 0x100 OR SWAP1 SSTORE SWAP1 MLOAD SWAP2 DUP3 MSTORE PUSH32 0x41B29CAC8375216177A0C8D96DBA938910DC6A3650E7F38B04146AA1F6381131 SWAP2 ADD PUSH2 0x427 JUMP JUMPDEST POP DUP1 SLOAD PUSH2 0x11A2 SWAP1 PUSH2 0x1581 JUMP JUMPDEST PUSH1 0x0 DUP3 SSTORE DUP1 PUSH1 0x1F LT PUSH2 0x11B2 JUMPI POP POP JUMP JUMPDEST PUSH1 0x1F ADD PUSH1 0x20 SWAP1 DIV SWAP1 PUSH1 0x0 MSTORE PUSH1 0x20 PUSH1 0x0 KECCAK256 SWAP1 DUP2 ADD SWAP1 PUSH2 0x11D0 SWAP2 SWAP1 PUSH2 0x11D3 JUMP JUMPDEST POP JUMP JUMPDEST JUMPDEST DUP1 DUP3 GT ISZERO PUSH2 0x11E8 JUMPI PUSH1 0x0 DUP2 SSTORE PUSH1 0x1 ADD PUSH2 0x11D4 JUMP JUMPDEST POP SWAP1 JUMP JUMPDEST DUP1 CALLDATALOAD PUSH1 0x1 PUSH1 0x1 PUSH1 0xA0 SHL SUB DUP2 AND DUP2 EQ PUSH2 0x1203 JUMPI PUSH1 0x0 DUP1 REVERT JUMPDEST SWAP2 SWAP1 POP JUMP JUMPDEST PUSH1 0x0 PUSH1 0x20 DUP3 DUP5 SUB SLT ISZERO PUSH2 0x121A JUMPI PUSH1 0x0 DUP1 REVERT JUMPDEST PUSH2 0x1223 DUP3 PUSH2 0x11EC JUMP JUMPDEST SWAP4 SWAP3 POP POP POP JUMP JUMPDEST PUSH1 0x0 DUP2 MLOAD DUP1 DUP5 MSTORE PUSH1 0x0 JUMPDEST DUP2 DUP2 LT ISZERO PUSH2 0x1250 JUMPI PUSH1 0x20 DUP2 DUP6 ADD DUP2 ADD MLOAD DUP7 DUP4 ADD DUP3 ADD MSTORE ADD PUSH2 0x1234 JUMP JUMPDEST POP PUSH1 0x0 PUSH1 0x20 DUP3 DUP7 ADD ADD MSTORE PUSH1 0x20 PUSH1 0x1F NOT PUSH1 0x1F DUP4 ADD AND DUP6 ADD ADD SWAP2 POP POP SWAP3 SWAP2 POP POP JUMP JUMPDEST PUSH1 0x1 PUSH1 0x1 PUSH1 0x80 SHL SUB DUP9 AND DUP2 MSTORE PUSH1 0x1 PUSH1 0x1 PUSH1 0xA0 SHL SUB DUP8 AND PUSH1 0x20 DUP3 ADD MSTORE PUSH1 0xE0 PUSH1 0x40 DUP3 ADD DUP2 SWAP1 MSTORE PUSH1 0x0 SWAP1 PUSH2 0x12A3 SWAP1 DUP4 ADD DUP9 PUSH2 0x122A JUMP JUMPDEST PUSH1 0x60 DUP4 ADD SWAP7 SWAP1 SWAP7 MSTORE POP SWAP3 ISZERO ISZERO PUSH1 0x80 DUP5 ADD MSTORE SWAP1 ISZERO ISZERO PUSH1 0xA0 DUP4 ADD MSTORE ISZERO ISZERO PUSH1 0xC0 SWAP1 SWAP2 ADD MSTORE SWAP4 SWAP3 POP POP POP JUMP JUMPDEST PUSH4 0x4E487B71 PUSH1 0xE0 SHL PUSH1 0x0 MSTORE PUSH1 0x41 PUSH1 0x4 MSTORE PUSH1 0x24 PUSH1 0x0 REVERT JUMPDEST PUSH1 0x40 MLOAD PUSH1 0xE0 DUP2 ADD PUSH8 0xFFFFFFFFFFFFFFFF DUP2 GT DUP3 DUP3 LT OR ISZERO PUSH2 0x1304 JUMPI PUSH2 0x1304 PUSH2 0x12CB JUMP JUMPDEST PUSH1 0x40 MSTORE SWAP1 JUMP JUMPDEST DUP1 CALLDATALOAD PUSH1 0x1 PUSH1 0x1 PUSH1 0x80 SHL SUB DUP2 AND DUP2 EQ PUSH2 0x1203 JUMPI PUSH1 0x0 DUP1 REVERT JUMPDEST PUSH1 0x0 DUP3 PUSH1 0x1F DUP4 ADD SLT PUSH2 0x1332 JUMPI PUSH1 0x0 DUP1 REVERT JUMPDEST DUP2 CALLDATALOAD PUSH8 0xFFFFFFFFFFFFFFFF DUP1 DUP3 GT ISZERO PUSH2 0x134D JUMPI PUSH2 0x134D PUSH2 0x12CB JUMP JUMPDEST PUSH1 0x40 MLOAD PUSH1 0x1F DUP4 ADD PUSH1 0x1F NOT SWAP1 DUP2 AND PUSH1 0x3F ADD AND DUP2 ADD SWAP1 DUP3 DUP3 GT DUP2 DUP4 LT OR ISZERO PUSH2 0x1375 JUMPI PUSH2 0x1375 PUSH2 0x12CB JUMP JUMPDEST DUP2 PUSH1 0x40 MSTORE DUP4 DUP2 MSTORE DUP7 PUSH1 0x20 DUP6 DUP9 ADD ADD GT ISZERO PUSH2 0x138E JUMPI PUSH1 0x0 DUP1 REVERT JUMPDEST DUP4 PUSH1 0x20 DUP8 ADD PUSH1 0x20 DUP4 ADD CALLDATACOPY PUSH1 0x0 PUSH1 0x20 DUP6 DUP4 ADD ADD MSTORE DUP1 SWAP5 POP POP POP POP POP SWAP3 SWAP2 POP POP JUMP JUMPDEST DUP1 ISZERO ISZERO DUP2 EQ PUSH2 0x11D0 JUMPI PUSH1 0x0 DUP1 REVERT JUMPDEST DUP1 CALLDATALOAD PUSH2 0x1203 DUP2 PUSH2 0x13AE JUMP JUMPDEST PUSH1 0x0 PUSH1 0x20 DUP3 DUP5 SUB SLT ISZERO PUSH2 0x13D9 JUMPI PUSH1 0x0 DUP1 REVERT JUMPDEST DUP2 CALLDATALOAD PUSH8 0xFFFFFFFFFFFFFFFF DUP1 DUP3 GT ISZERO PUSH2 0x13F1 JUMPI PUSH1 0x0 DUP1 REVERT JUMPDEST SWAP1 DUP4 ADD SWAP1 PUSH1 0xE0 DUP3 DUP7 SUB SLT ISZERO PUSH2 0x1405 JUMPI PUSH1 0x0 DUP1 REVERT JUMPDEST PUSH2 0x140D PUSH2 0x12E1 JUMP JUMPDEST PUSH2 0x1416 DUP4 PUSH2 0x130A JUMP JUMPDEST DUP2 MSTORE PUSH2 0x1424 PUSH1 0x20 DUP5 ADD PUSH2 0x11EC JUMP JUMPDEST PUSH1 0x20 DUP3 ADD MSTORE PUSH1 0x40 DUP4 ADD CALLDATALOAD DUP3 DUP2 GT ISZERO PUSH2 0x143B JUMPI PUSH1 0x0 DUP1 REVERT JUMPDEST PUSH2 0x1447 DUP8 DUP3 DUP7 ADD PUSH2 0x1321 JUMP JUMPDEST PUSH1 0x40 DUP4 ADD MSTORE POP PUSH1 0x60 DUP4 ADD CALLDATALOAD PUSH1 0x60 DUP3 ADD MSTORE PUSH2 0x1463 PUSH1 0x80 DUP5 ADD PUSH2 0x13BC JUMP JUMPDEST PUSH1 0x80 DUP3 ADD MSTORE PUSH2 0x1474 PUSH1 0xA0 DUP5 ADD PUSH2 0x13BC JUMP JUMPDEST PUSH1 0xA0 DUP3 ADD MSTORE PUSH2 0x1485 PUSH1 0xC0 DUP5 ADD PUSH2 0x13BC JUMP JUMPDEST PUSH1 0xC0 DUP3 ADD MSTORE SWAP6 SWAP5 POP POP POP POP POP JUMP JUMPDEST PUSH1 0x0 PUSH1 0x20 DUP3 DUP5 SUB SLT ISZERO PUSH2 0x14A5 JUMPI PUSH1 0x0 DUP1 REVERT JUMPDEST PUSH2 0x1223 DUP3 PUSH2 0x130A JUMP JUMPDEST PUSH1 0x0 PUSH1 0x20 DUP3 DUP5 SUB SLT ISZERO PUSH2 0x14C0 JUMPI PUSH1 0x0 DUP1 REVERT JUMPDEST DUP2 CALLDATALOAD PUSH1 0xFF DUP2 AND DUP2 EQ PUSH2 0x1223 JUMPI PUSH1 0x0 DUP1 REVERT JUMPDEST PUSH1 0x20 DUP2 MSTORE PUSH1 0x1 PUSH1 0x1 PUSH1 0x80 SHL SUB DUP3 MLOAD AND PUSH1 0x20 DUP3 ADD MSTORE PUSH1 0x1 DUP1 PUSH1 0xA0 SHL SUB PUSH1 0x20 DUP4 ADD MLOAD AND PUSH1 0x40 DUP3 ADD MSTORE PUSH1 0x0 PUSH1 0x40 DUP4 ADD MLOAD PUSH1 0xE0 PUSH1 0x60 DUP5 ADD MSTORE PUSH2 0x1513 PUSH2 0x100 DUP5 ADD DUP3 PUSH2 0x122A JUMP JUMPDEST SWAP1 POP PUSH1 0x60 DUP5 ADD MLOAD PUSH1 0x80 DUP5 ADD MSTORE PUSH1 0x80 DUP5 ADD MLOAD ISZERO ISZERO PUSH1 0xA0 DUP5 ADD MSTORE PUSH1 0xA0 DUP5 ADD MLOAD ISZERO ISZERO PUSH1 0xC0 DUP5 ADD MSTORE PUSH1 0xC0 DUP5 ADD MLOAD PUSH2 0x154A PUSH1 0xE0 DUP6 ADD DUP3 ISZERO ISZERO SWAP1 MSTORE JUMP JUMPDEST POP SWAP4 SWAP3 POP POP POP JUMP JUMPDEST PUSH1 0x20 DUP1 DUP3 MSTORE PUSH1 0x15 SWAP1 DUP3 ADD MSTORE PUSH21 0x1D1A194819D85D1BDC881A5CDB9BDD08195E1A5CDD PUSH1 0x5A SHL PUSH1 0x40 DUP3 ADD MSTORE PUSH1 0x60 ADD SWAP1 JUMP JUMPDEST PUSH1 0x1 DUP2 DUP2 SHR SWAP1 DUP3 AND DUP1 PUSH2 0x1595 JUMPI PUSH1 0x7F DUP3 AND SWAP2 POP JUMPDEST PUSH1 0x20 DUP3 LT DUP2 SUB PUSH2 0x15B5 JUMPI PUSH4 0x4E487B71 PUSH1 0xE0 SHL PUSH1 0x0 MSTORE PUSH1 0x22 PUSH1 0x4 MSTORE PUSH1 0x24 PUSH1 0x0 REVERT JUMPDEST POP SWAP2 SWAP1 POP JUMP JUMPDEST PUSH1 0x20 DUP1 DUP3 MSTORE PUSH1 0x14 SWAP1 DUP3 ADD MSTORE PUSH20 0x3A34329033B0BA37B91034B99032BC34B9BA32B9 PUSH1 0x61 SHL PUSH1 0x40 DUP3 ADD MSTORE PUSH1 0x60 ADD SWAP1 JUMP JUMPDEST PUSH1 0x20 DUP1 DUP3 MSTORE PUSH1 0x11 SWAP1 DUP3 ADD MSTORE PUSH17 0x3A34329033B0BA37B91034B9903CB7BAB9 PUSH1 0x79 SHL PUSH1 0x40 DUP3 ADD MSTORE PUSH1 0x60 ADD SWAP1 JUMP JUMPDEST PUSH1 0x1F DUP3 GT ISZERO PUSH2 0x165E JUMPI PUSH1 0x0 DUP2 DUP2 MSTORE PUSH1 0x20 DUP2 KECCAK256 PUSH1 0x1F DUP6 ADD PUSH1 0x5 SHR DUP2 ADD PUSH1 0x20 DUP7 LT ISZERO PUSH2 0x163B JUMPI POP DUP1 JUMPDEST PUSH1 0x1F DUP6 ADD PUSH1 0x5 SHR DUP3 ADD SWAP2 POP JUMPDEST DUP2 DUP2 LT ISZERO PUSH2 0x165A JUMPI DUP3 DUP2 SSTORE PUSH1 0x1 ADD PUSH2 0x1647 JUMP JUMPDEST POP POP POP JUMPDEST POP POP POP JUMP JUMPDEST DUP2 MLOAD PUSH8 0xFFFFFFFFFFFFFFFF DUP2 GT ISZERO PUSH2 0x167D JUMPI PUSH2 0x167D PUSH2 0x12CB JUMP JUMPDEST PUSH2 0x1691 DUP2 PUSH2 0x168B DUP5 SLOAD PUSH2 0x1581 JUMP JUMPDEST DUP5 PUSH2 0x1614 JUMP JUMPDEST PUSH1 0x20 DUP1 PUSH1 0x1F DUP4 GT PUSH1 0x1 DUP2 EQ PUSH2 0x16C6 JUMPI PUSH1 0x0 DUP5 ISZERO PUSH2 0x16AE JUMPI POP DUP6 DUP4 ADD MLOAD JUMPDEST PUSH1 0x0 NOT PUSH1 0x3 DUP7 SWAP1 SHL SHR NOT AND PUSH1 0x1 DUP6 SWAP1 SHL OR DUP6 SSTORE PUSH2 0x165A JUMP JUMPDEST PUSH1 0x0 DUP6 DUP2 MSTORE PUSH1 0x20 DUP2 KECCAK256 PUSH1 0x1F NOT DUP7 AND SWAP2 JUMPDEST DUP3 DUP2 LT ISZERO PUSH2 0x16F5 JUMPI DUP9 DUP7 ADD MLOAD DUP3 SSTORE SWAP5 DUP5 ADD SWAP5 PUSH1 0x1 SWAP1 SWAP2 ADD SWAP1 DUP5 ADD PUSH2 0x16D6 JUMP JUMPDEST POP DUP6 DUP3 LT ISZERO PUSH2 0x1713 JUMPI DUP8 DUP6 ADD MLOAD PUSH1 0x0 NOT PUSH1 0x3 DUP9 SWAP1 SHL PUSH1 0xF8 AND SHR NOT AND DUP2 SSTORE JUMPDEST POP POP POP POP POP PUSH1 0x1 SWAP1 DUP2 SHL ADD SWAP1 SSTORE POP JUMP JUMPDEST PUSH1 0x1 PUSH1 0x1 PUSH1 0xA0 SHL SUB DUP4 AND DUP2 MSTORE PUSH1 0x40 PUSH1 0x20 DUP3 ADD DUP2 SWAP1 MSTORE PUSH1 0x0 SWAP1 PUSH2 0x1747 SWAP1 DUP4 ADD DUP5 PUSH2 0x122A JUMP JUMPDEST SWAP5 SWAP4 POP POP POP POP JUMP JUMPDEST PUSH1 0x0 PUSH1 0x20 DUP3 DUP5 SUB SLT ISZERO PUSH2 0x1761 JUMPI PUSH1 0x0 DUP1 REVERT JUMPDEST DUP2 MLOAD PUSH2 0x1223 DUP2 PUSH2 0x13AE JUMP JUMPDEST PUSH1 0x20 DUP1 DUP3 MSTORE PUSH1 0x10 SWAP1 DUP3 ADD MSTORE PUSH16 0x3CB7BA9030B9329036B0B935B2BA37B9 PUSH1 0x81 SHL PUSH1 0x40 DUP3 ADD MSTORE PUSH1 0x60 ADD SWAP1 JUMP JUMPDEST PUSH1 0x0 PUSH1 0x1 DUP1 PUSH1 0xA0 SHL SUB DUP1 DUP7 AND DUP4 MSTORE PUSH1 0x60 PUSH1 0x20 DUP5 ADD MSTORE PUSH2 0x17B8 PUSH1 0x60 DUP5 ADD DUP7 PUSH2 0x122A JUMP JUMPDEST SWAP2 POP DUP1 DUP5 AND PUSH1 0x40 DUP5 ADD MSTORE POP SWAP5 SWAP4 POP POP POP POP JUMP JUMPDEST PUSH1 0x1 PUSH1 0x1 PUSH1 0x80 SHL SUB DUP2 DUP2 AND DUP4 DUP3 AND ADD SWAP1 DUP1 DUP3 GT ISZERO PUSH2 0x17F9 JUMPI PUSH4 0x4E487B71 PUSH1 0xE0 SHL PUSH1 0x0 MSTORE PUSH1 0x11 PUSH1 0x4 MSTORE PUSH1 0x24 PUSH1 0x0 REVERT JUMPDEST POP SWAP3 SWAP2 POP POP JUMP INVALID LOG2 PUSH5 0x6970667358 0x22 SLT KECCAK256 0x25 EXTCODESIZE POP LOG2 NUMBER 0xA9 0x2B 0xFC 0xEB 0xAB SHR DUP16 SWAP2 PUSH14 0xD662C80F529F5B57A4A2B5049831 DUP7 LOG2 0xB7 SWAP8 PUSH5 0x736F6C6343 STOP ADDMOD SLT STOP CALLER "
				},
				"gasEstimates": {
					"creation": {
						"codeDepositCost": "1239600",
						"executionCost": "infinite",
						"totalCost": "infinite"
					},
					"external": {
						"addGater((uint128,address,string,uint256,bool,bool,bool))": "infinite",
						"delGatebyMarketor(address)": "infinite",
						"gateList(address)": "infinite",
						"gateNumbers(uint128)": "2581",
						"getGaterInfo(uint8)": "infinite",
						"getGaterNo()": "2502",
						"getGaterNo(address)": "2592",
						"getMaxGateNumber()": "2408",
						"isValidGator()": "2415",
						"isValidGator(address)": "2602",
						"lockGatebyGater()": "32226",
						"lockGatebyMarketor(address)": "infinite",
						"marketCreator()": "2383",
						"marketorContractAddress()": "infinite",
						"maxGateNumbers()": "2393",
						"unlockGatebyGater()": "32285",
						"unlockGatebyMarketor(address)": "infinite",
						"updateGatebyGator((uint128,address,string,uint256,bool,bool,bool))": "infinite",
						"updateGatebyMarketor((uint128,address,string,uint256,bool,bool,bool))": "infinite"
					}
				},
				"methodIdentifiers": {
					"addGater((uint128,address,string,uint256,bool,bool,bool))": "cf093eee",
					"delGatebyMarketor(address)": "b614984d",
					"gateList(address)": "45df4987",
					"gateNumbers(uint128)": "82dfbd20",
					"getGaterInfo(uint8)": "8ab5b534",
					"getGaterNo()": "b4c4b9ac",
					"getGaterNo(address)": "19b24ee3",
					"getMaxGateNumber()": "dd348460",
					"isValidGator()": "54a460f6",
					"isValidGator(address)": "c0384292",
					"lockGatebyGater()": "3bbae141",
					"lockGatebyMarketor(address)": "a4786088",
					"marketCreator()": "27cbaabe",
					"marketorContractAddress()": "492b7107",
					"maxGateNumbers()": "60772dc9",
					"unlockGatebyGater()": "f1c9f40f",
					"unlockGatebyMarketor(address)": "76941300",
					"updateGatebyGator((uint128,address,string,uint256,bool,bool,bool))": "631d1878",
					"updateGatebyMarketor((uint128,address,string,uint256,bool,bool,bool))": "90872671"
				}
			},
			"storageLayout": {
				"storage": [
					{
						"astId": 12,
						"contract": "Contracts/TTSwapV1Gator.sol:TTSwapV1Gator",
						"label": "gateList",
						"offset": 0,
						"slot": "0",
						"type": "t_mapping(t_address,t_struct(Info)964_storage)"
					},
					{
						"astId": 16,
						"contract": "Contracts/TTSwapV1Gator.sol:TTSwapV1Gator",
						"label": "gateNumbers",
						"offset": 0,
						"slot": "1",
						"type": "t_mapping(t_uint128,t_address)"
					},
					{
						"astId": 18,
						"contract": "Contracts/TTSwapV1Gator.sol:TTSwapV1Gator",
						"label": "maxGateNumbers",
						"offset": 0,
						"slot": "2",
						"type": "t_uint128"
					},
					{
						"astId": 22,
						"contract": "Contracts/TTSwapV1Gator.sol:TTSwapV1Gator",
						"label": "marketCreator",
						"offset": 0,
						"slot": "3",
						"type": "t_address"
					}
				],
				"types": {
					"t_address": {
						"encoding": "inplace",
						"label": "address",
						"numberOfBytes": "20"
					},
					"t_bool": {
						"encoding": "inplace",
						"label": "bool",
						"numberOfBytes": "1"
					},
					"t_mapping(t_address,t_struct(Info)964_storage)": {
						"encoding": "mapping",
						"key": "t_address",
						"label": "mapping(address => struct LGate.Info)",
						"numberOfBytes": "32",
						"value": "t_struct(Info)964_storage"
					},
					"t_mapping(t_uint128,t_address)": {
						"encoding": "mapping",
						"key": "t_uint128",
						"label": "mapping(uint128 => address)",
						"numberOfBytes": "32",
						"value": "t_address"
					},
					"t_string_storage": {
						"encoding": "bytes",
						"label": "string",
						"numberOfBytes": "32"
					},
					"t_struct(Info)964_storage": {
						"encoding": "inplace",
						"label": "struct LGate.Info",
						"members": [
							{
								"astId": 951,
								"contract": "Contracts/TTSwapV1Gator.sol:TTSwapV1Gator",
								"label": "gateNo",
								"offset": 0,
								"slot": "0",
								"type": "t_uint128"
							},
							{
								"astId": 953,
								"contract": "Contracts/TTSwapV1Gator.sol:TTSwapV1Gator",
								"label": "gateAddress",
								"offset": 0,
								"slot": "1",
								"type": "t_address"
							},
							{
								"astId": 955,
								"contract": "Contracts/TTSwapV1Gator.sol:TTSwapV1Gator",
								"label": "name",
								"offset": 0,
								"slot": "2",
								"type": "t_string_storage"
							},
							{
								"astId": 957,
								"contract": "Contracts/TTSwapV1Gator.sol:TTSwapV1Gator",
								"label": "createtimestamp",
								"offset": 0,
								"slot": "3",
								"type": "t_uint256"
							},
							{
								"astId": 959,
								"contract": "Contracts/TTSwapV1Gator.sol:TTSwapV1Gator",
								"label": "marketunlock",
								"offset": 0,
								"slot": "4",
								"type": "t_bool"
							},
							{
								"astId": 961,
								"contract": "Contracts/TTSwapV1Gator.sol:TTSwapV1Gator",
								"label": "gateunlock",
								"offset": 1,
								"slot": "4",
								"type": "t_bool"
							},
							{
								"astId": 963,
								"contract": "Contracts/TTSwapV1Gator.sol:TTSwapV1Gator",
								"label": "isUsed",
								"offset": 2,
								"slot": "4",
								"type": "t_bool"
							}
						],
						"numberOfBytes": "160"
					},
					"t_uint128": {
						"encoding": "inplace",
						"label": "uint128",
						"numberOfBytes": "16"
					},
					"t_uint256": {
						"encoding": "inplace",
						"label": "uint256",
						"numberOfBytes": "32"
					}
				}
			},
			"userdoc": {
				"events": {
					"e_addGater(address,string)": {
						"notice": "Emitted when liquidity is minted for a given position"
					},
					"e_delGatebyMarketor(address,address)": {
						"notice": "Emitted when liquidity is minted for a given position"
					},
					"e_lockGatebyGater(address)": {
						"notice": "Emitted when liquidity is minted for a given position"
					},
					"e_lockGatebyMarketor(address,address)": {
						"notice": "Emitted when liquidity is minted for a given position"
					},
					"e_unlockGatebyGater(address)": {
						"notice": "Emitted when liquidity is minted for a given position"
					},
					"e_unlockGatebyMarketor(address,address)": {
						"notice": "Emitted when liquidity is minted for a given position"
					},
					"e_updateGatebyGator(address,string)": {
						"notice": "Emitted when liquidity is minted for a given position"
					},
					"e_updateGatebyMarketor(address,string,address)": {
						"notice": "Emitted when liquidity is minted for a given position"
					}
				},
				"kind": "user",
				"methods": {
					"marketorContractAddress()": {
						"notice": "The contract that deployed the pool, which must adhere to the IUniswapV3Factory interface"
					}
				},
				"version": 1
			}
		}
	}
}