{
	"Contracts/MoonV1Thing.sol": {
		"MoonV1Thing": {
			"abi": [
				{
					"inputs": [
						{
							"internalType": "address",
							"name": "_gateContractAddress",
							"type": "address"
						},
						{
							"internalType": "address",
							"name": "_marketorContractAddress",
							"type": "address"
						}
					],
					"stateMutability": "nonpayable",
					"type": "constructor"
				},
				{
					"inputs": [
						{
							"internalType": "address",
							"name": "",
							"type": "address"
						}
					],
					"name": "STThingsList",
					"outputs": [
						{
							"internalType": "bytes32",
							"name": "name",
							"type": "bytes32"
						},
						{
							"internalType": "address",
							"name": "ownerAddress",
							"type": "address"
						},
						{
							"internalType": "bytes32",
							"name": "LSTThingsFullName",
							"type": "bytes32"
						},
						{
							"internalType": "uint8",
							"name": "scope",
							"type": "uint8"
						},
						{
							"internalType": "address",
							"name": "contractAddress",
							"type": "address"
						},
						{
							"internalType": "bool",
							"name": "marketunlock",
							"type": "bool"
						},
						{
							"internalType": "bool",
							"name": "unlock",
							"type": "bool"
						},
						{
							"internalType": "bool",
							"name": "createrunlock",
							"type": "bool"
						},
						{
							"internalType": "bool",
							"name": "isUsed",
							"type": "bool"
						},
						{
							"internalType": "address",
							"name": "addfromgater",
							"type": "address"
						},
						{
							"internalType": "address",
							"name": "creator",
							"type": "address"
						}
					],
					"stateMutability": "view",
					"type": "function"
				},
				{
					"inputs": [
						{
							"components": [
								{
									"internalType": "bytes32",
									"name": "name",
									"type": "bytes32"
								},
								{
									"internalType": "address",
									"name": "ownerAddress",
									"type": "address"
								},
								{
									"internalType": "bytes32",
									"name": "LSTThingsFullName",
									"type": "bytes32"
								},
								{
									"internalType": "uint8",
									"name": "scope",
									"type": "uint8"
								},
								{
									"internalType": "address",
									"name": "contractAddress",
									"type": "address"
								},
								{
									"internalType": "bool",
									"name": "marketunlock",
									"type": "bool"
								},
								{
									"internalType": "bool",
									"name": "unlock",
									"type": "bool"
								},
								{
									"internalType": "bool",
									"name": "createrunlock",
									"type": "bool"
								},
								{
									"internalType": "bool",
									"name": "isUsed",
									"type": "bool"
								},
								{
									"internalType": "address",
									"name": "addfromgater",
									"type": "address"
								},
								{
									"internalType": "address",
									"name": "creator",
									"type": "address"
								}
							],
							"internalType": "struct LSTThings.Info",
							"name": "_STThingsInfo",
							"type": "tuple"
						},
						{
							"internalType": "address",
							"name": "_gateaddress",
							"type": "address"
						}
					],
					"name": "addGateSTThingsbyCreator",
					"outputs": [],
					"stateMutability": "nonpayable",
					"type": "function"
				},
				{
					"inputs": [
						{
							"components": [
								{
									"internalType": "bytes32",
									"name": "name",
									"type": "bytes32"
								},
								{
									"internalType": "address",
									"name": "ownerAddress",
									"type": "address"
								},
								{
									"internalType": "bytes32",
									"name": "LSTThingsFullName",
									"type": "bytes32"
								},
								{
									"internalType": "uint8",
									"name": "scope",
									"type": "uint8"
								},
								{
									"internalType": "address",
									"name": "contractAddress",
									"type": "address"
								},
								{
									"internalType": "bool",
									"name": "marketunlock",
									"type": "bool"
								},
								{
									"internalType": "bool",
									"name": "unlock",
									"type": "bool"
								},
								{
									"internalType": "bool",
									"name": "createrunlock",
									"type": "bool"
								},
								{
									"internalType": "bool",
									"name": "isUsed",
									"type": "bool"
								},
								{
									"internalType": "address",
									"name": "addfromgater",
									"type": "address"
								},
								{
									"internalType": "address",
									"name": "creator",
									"type": "address"
								}
							],
							"internalType": "struct LSTThings.Info",
							"name": "_STThingsInfo",
							"type": "tuple"
						}
					],
					"name": "addSTThingsbyMarketor",
					"outputs": [],
					"stateMutability": "nonpayable",
					"type": "function"
				},
				{
					"inputs": [
						{
							"internalType": "address",
							"name": "_internalSTThingsAddress",
							"type": "address"
						},
						{
							"internalType": "uint8",
							"name": "_scope",
							"type": "uint8"
						}
					],
					"name": "changeSTThingsScopebyMarketor",
					"outputs": [],
					"stateMutability": "nonpayable",
					"type": "function"
				},
				{
					"inputs": [
						{
							"internalType": "address",
							"name": "_contractaddress",
							"type": "address"
						},
						{
							"internalType": "address",
							"name": "_gateaddress",
							"type": "address"
						}
					],
					"name": "delGateSTThingsbyMarketor",
					"outputs": [],
					"stateMutability": "nonpayable",
					"type": "function"
				},
				{
					"inputs": [
						{
							"components": [
								{
									"internalType": "bytes32",
									"name": "name",
									"type": "bytes32"
								},
								{
									"internalType": "address",
									"name": "ownerAddress",
									"type": "address"
								},
								{
									"internalType": "bytes32",
									"name": "LSTThingsFullName",
									"type": "bytes32"
								},
								{
									"internalType": "uint8",
									"name": "scope",
									"type": "uint8"
								},
								{
									"internalType": "address",
									"name": "contractAddress",
									"type": "address"
								},
								{
									"internalType": "bool",
									"name": "marketunlock",
									"type": "bool"
								},
								{
									"internalType": "bool",
									"name": "unlock",
									"type": "bool"
								},
								{
									"internalType": "bool",
									"name": "createrunlock",
									"type": "bool"
								},
								{
									"internalType": "bool",
									"name": "isUsed",
									"type": "bool"
								},
								{
									"internalType": "address",
									"name": "addfromgater",
									"type": "address"
								},
								{
									"internalType": "address",
									"name": "creator",
									"type": "address"
								}
							],
							"internalType": "struct LSTThings.Info",
							"name": "_STThingsInfo",
							"type": "tuple"
						}
					],
					"name": "delSTThingsbyMarketor",
					"outputs": [],
					"stateMutability": "nonpayable",
					"type": "function"
				},
				{
					"inputs": [],
					"name": "gateContractAddress",
					"outputs": [
						{
							"internalType": "address",
							"name": "",
							"type": "address"
						}
					],
					"stateMutability": "view",
					"type": "function"
				},
				{
					"inputs": [
						{
							"internalType": "address",
							"name": "",
							"type": "address"
						},
						{
							"internalType": "address",
							"name": "",
							"type": "address"
						}
					],
					"name": "gateSTThingsList",
					"outputs": [
						{
							"internalType": "address",
							"name": "",
							"type": "address"
						}
					],
					"stateMutability": "view",
					"type": "function"
				},
				{
					"inputs": [
						{
							"internalType": "address",
							"name": "_contractaddress",
							"type": "address"
						}
					],
					"name": "getSTThingsInfo",
					"outputs": [
						{
							"components": [
								{
									"internalType": "bytes32",
									"name": "name",
									"type": "bytes32"
								},
								{
									"internalType": "address",
									"name": "ownerAddress",
									"type": "address"
								},
								{
									"internalType": "bytes32",
									"name": "LSTThingsFullName",
									"type": "bytes32"
								},
								{
									"internalType": "uint8",
									"name": "scope",
									"type": "uint8"
								},
								{
									"internalType": "address",
									"name": "contractAddress",
									"type": "address"
								},
								{
									"internalType": "bool",
									"name": "marketunlock",
									"type": "bool"
								},
								{
									"internalType": "bool",
									"name": "unlock",
									"type": "bool"
								},
								{
									"internalType": "bool",
									"name": "createrunlock",
									"type": "bool"
								},
								{
									"internalType": "bool",
									"name": "isUsed",
									"type": "bool"
								},
								{
									"internalType": "address",
									"name": "addfromgater",
									"type": "address"
								},
								{
									"internalType": "address",
									"name": "creator",
									"type": "address"
								}
							],
							"internalType": "struct LSTThings.Info",
							"name": "",
							"type": "tuple"
						}
					],
					"stateMutability": "view",
					"type": "function"
				},
				{
					"inputs": [
						{
							"internalType": "address",
							"name": "_contractaddress",
							"type": "address"
						},
						{
							"internalType": "address",
							"name": "_gateaddress",
							"type": "address"
						}
					],
					"name": "impoveGateSTThingsbyMarketor",
					"outputs": [],
					"stateMutability": "nonpayable",
					"type": "function"
				},
				{
					"inputs": [
						{
							"internalType": "address",
							"name": "_thing",
							"type": "address"
						}
					],
					"name": "isValidThing",
					"outputs": [
						{
							"internalType": "bool",
							"name": "",
							"type": "bool"
						}
					],
					"stateMutability": "view",
					"type": "function"
				},
				{
					"inputs": [
						{
							"internalType": "address",
							"name": "_internalSTThingsAddress",
							"type": "address"
						},
						{
							"internalType": "address",
							"name": "_gateaddress",
							"type": "address"
						}
					],
					"name": "lockGateSTThingsbyCreater",
					"outputs": [],
					"stateMutability": "nonpayable",
					"type": "function"
				},
				{
					"inputs": [
						{
							"internalType": "address",
							"name": "_internalSTThingsAddress",
							"type": "address"
						}
					],
					"name": "lockSTThingsbyGator",
					"outputs": [],
					"stateMutability": "nonpayable",
					"type": "function"
				},
				{
					"inputs": [
						{
							"internalType": "address",
							"name": "_internalSTThingsAddress",
							"type": "address"
						}
					],
					"name": "lockSTThingsbyMarketor",
					"outputs": [],
					"stateMutability": "nonpayable",
					"type": "function"
				},
				{
					"inputs": [
						{
							"internalType": "address",
							"name": "",
							"type": "address"
						}
					],
					"name": "marketSTThingsList",
					"outputs": [
						{
							"internalType": "address",
							"name": "",
							"type": "address"
						}
					],
					"stateMutability": "view",
					"type": "function"
				},
				{
					"inputs": [],
					"name": "marketorContractAddress",
					"outputs": [
						{
							"internalType": "address",
							"name": "",
							"type": "address"
						}
					],
					"stateMutability": "view",
					"type": "function"
				},
				{
					"inputs": [
						{
							"internalType": "address",
							"name": "_internalSTThingsAddress",
							"type": "address"
						},
						{
							"internalType": "address",
							"name": "_gateaddress",
							"type": "address"
						}
					],
					"name": "unlockGateSTThingsbyCreater",
					"outputs": [],
					"stateMutability": "nonpayable",
					"type": "function"
				},
				{
					"inputs": [
						{
							"internalType": "address",
							"name": "_internalSTThingsAddress",
							"type": "address"
						}
					],
					"name": "unlockSTThingsbyGator",
					"outputs": [],
					"stateMutability": "nonpayable",
					"type": "function"
				},
				{
					"inputs": [
						{
							"internalType": "address",
							"name": "_internalSTThingsAddress",
							"type": "address"
						}
					],
					"name": "unlockSTThingsbyMarketor",
					"outputs": [],
					"stateMutability": "nonpayable",
					"type": "function"
				},
				{
					"inputs": [
						{
							"components": [
								{
									"internalType": "bytes32",
									"name": "name",
									"type": "bytes32"
								},
								{
									"internalType": "address",
									"name": "ownerAddress",
									"type": "address"
								},
								{
									"internalType": "bytes32",
									"name": "LSTThingsFullName",
									"type": "bytes32"
								},
								{
									"internalType": "uint8",
									"name": "scope",
									"type": "uint8"
								},
								{
									"internalType": "address",
									"name": "contractAddress",
									"type": "address"
								},
								{
									"internalType": "bool",
									"name": "marketunlock",
									"type": "bool"
								},
								{
									"internalType": "bool",
									"name": "unlock",
									"type": "bool"
								},
								{
									"internalType": "bool",
									"name": "createrunlock",
									"type": "bool"
								},
								{
									"internalType": "bool",
									"name": "isUsed",
									"type": "bool"
								},
								{
									"internalType": "address",
									"name": "addfromgater",
									"type": "address"
								},
								{
									"internalType": "address",
									"name": "creator",
									"type": "address"
								}
							],
							"internalType": "struct LSTThings.Info",
							"name": "_STThingsInfo",
							"type": "tuple"
						},
						{
							"internalType": "address",
							"name": "_gateaddress",
							"type": "address"
						}
					],
					"name": "updateGateSTThingsbyCreator",
					"outputs": [],
					"stateMutability": "nonpayable",
					"type": "function"
				},
				{
					"inputs": [
						{
							"components": [
								{
									"internalType": "bytes32",
									"name": "name",
									"type": "bytes32"
								},
								{
									"internalType": "address",
									"name": "ownerAddress",
									"type": "address"
								},
								{
									"internalType": "bytes32",
									"name": "LSTThingsFullName",
									"type": "bytes32"
								},
								{
									"internalType": "uint8",
									"name": "scope",
									"type": "uint8"
								},
								{
									"internalType": "address",
									"name": "contractAddress",
									"type": "address"
								},
								{
									"internalType": "bool",
									"name": "marketunlock",
									"type": "bool"
								},
								{
									"internalType": "bool",
									"name": "unlock",
									"type": "bool"
								},
								{
									"internalType": "bool",
									"name": "createrunlock",
									"type": "bool"
								},
								{
									"internalType": "bool",
									"name": "isUsed",
									"type": "bool"
								},
								{
									"internalType": "address",
									"name": "addfromgater",
									"type": "address"
								},
								{
									"internalType": "address",
									"name": "creator",
									"type": "address"
								}
							],
							"internalType": "struct LSTThings.Info",
							"name": "_STThingsInfo",
							"type": "tuple"
						}
					],
					"name": "updateSTThingsbyGator",
					"outputs": [],
					"stateMutability": "nonpayable",
					"type": "function"
				},
				{
					"inputs": [
						{
							"components": [
								{
									"internalType": "bytes32",
									"name": "name",
									"type": "bytes32"
								},
								{
									"internalType": "address",
									"name": "ownerAddress",
									"type": "address"
								},
								{
									"internalType": "bytes32",
									"name": "LSTThingsFullName",
									"type": "bytes32"
								},
								{
									"internalType": "uint8",
									"name": "scope",
									"type": "uint8"
								},
								{
									"internalType": "address",
									"name": "contractAddress",
									"type": "address"
								},
								{
									"internalType": "bool",
									"name": "marketunlock",
									"type": "bool"
								},
								{
									"internalType": "bool",
									"name": "unlock",
									"type": "bool"
								},
								{
									"internalType": "bool",
									"name": "createrunlock",
									"type": "bool"
								},
								{
									"internalType": "bool",
									"name": "isUsed",
									"type": "bool"
								},
								{
									"internalType": "address",
									"name": "addfromgater",
									"type": "address"
								},
								{
									"internalType": "address",
									"name": "creator",
									"type": "address"
								}
							],
							"internalType": "struct LSTThings.Info",
							"name": "_STThingsInfo",
							"type": "tuple"
						}
					],
					"name": "updateSTThingsbyMarketor",
					"outputs": [],
					"stateMutability": "nonpayable",
					"type": "function"
				}
			],
			"devdoc": {
				"kind": "dev",
				"methods": {},
				"version": 1
			},
			"evm": {
				"assembly": "    /* \"Contracts/MoonV1Thing.sol\":169:9554  contract MoonV1Thing {... */\n  mstore(0x40, 0x80)\n    /* \"Contracts/MoonV1Thing.sol\":803:1002  constructor(address _gateContractAddress, address _marketorContractAddress)... */\n  callvalue\n  dup1\n  iszero\n  tag_1\n  jumpi\n  0x00\n  dup1\n  revert\ntag_1:\n  pop\n  mload(0x40)\n  sub(codesize, bytecodeSize)\n  dup1\n  bytecodeSize\n  dup4\n  codecopy\n  dup2\n  add\n  0x40\n  dup2\n  swap1\n  mstore\n  tag_2\n  swap2\n  tag_3\n  jump\t// in\ntag_2:\n    /* \"Contracts/MoonV1Thing.sol\":893:912  gateContractAddress */\n  0x03\n    /* \"Contracts/MoonV1Thing.sol\":893:935  gateContractAddress = _gateContractAddress */\n  dup1\n  sload\n  sub(shl(0xa0, 0x01), 0x01)\n  swap4\n  dup5\n  and\n  not(sub(shl(0xa0, 0x01), 0x01))\n  swap2\n  dup3\n  and\n  or\n  swap1\n  swap2\n  sstore\n    /* \"Contracts/MoonV1Thing.sol\":945:968  marketorContractAddress */\n  0x04\n    /* \"Contracts/MoonV1Thing.sol\":945:995  marketorContractAddress = _marketorContractAddress */\n  dup1\n  sload\n  swap3\n  swap1\n  swap4\n  and\n  swap2\n  and\n  or\n  swap1\n  sstore\n    /* \"Contracts/MoonV1Thing.sol\":169:9554  contract MoonV1Thing {... */\n  jump(tag_7)\n    /* \"#utility.yul\":14:191   */\ntag_8:\n    /* \"#utility.yul\":93:106   */\n  dup1\n  mload\n  sub(shl(0xa0, 0x01), 0x01)\n    /* \"#utility.yul\":135:166   */\n  dup2\n  and\n    /* \"#utility.yul\":125:167   */\n  dup2\n  eq\n    /* \"#utility.yul\":115:185   */\n  tag_10\n  jumpi\n    /* \"#utility.yul\":181:182   */\n  0x00\n    /* \"#utility.yul\":178:179   */\n  dup1\n    /* \"#utility.yul\":171:183   */\n  revert\n    /* \"#utility.yul\":115:185   */\ntag_10:\n    /* \"#utility.yul\":14:191   */\n  swap2\n  swap1\n  pop\n  jump\t// out\n    /* \"#utility.yul\":196:489   */\ntag_3:\n    /* \"#utility.yul\":275:281   */\n  0x00\n    /* \"#utility.yul\":283:289   */\n  dup1\n    /* \"#utility.yul\":336:338   */\n  0x40\n    /* \"#utility.yul\":324:333   */\n  dup4\n    /* \"#utility.yul\":315:322   */\n  dup6\n    /* \"#utility.yul\":311:334   */\n  sub\n    /* \"#utility.yul\":307:339   */\n  slt\n    /* \"#utility.yul\":304:356   */\n  iszero\n  tag_12\n  jumpi\n    /* \"#utility.yul\":352:353   */\n  0x00\n    /* \"#utility.yul\":349:350   */\n  dup1\n    /* \"#utility.yul\":342:354   */\n  revert\n    /* \"#utility.yul\":304:356   */\ntag_12:\n    /* \"#utility.yul\":375:415   */\n  tag_13\n    /* \"#utility.yul\":405:414   */\n  dup4\n    /* \"#utility.yul\":375:415   */\n  tag_8\n  jump\t// in\ntag_13:\n    /* \"#utility.yul\":365:415   */\n  swap2\n  pop\n    /* \"#utility.yul\":434:483   */\n  tag_14\n    /* \"#utility.yul\":479:481   */\n  0x20\n    /* \"#utility.yul\":468:477   */\n  dup5\n    /* \"#utility.yul\":464:482   */\n  add\n    /* \"#utility.yul\":434:483   */\n  tag_8\n  jump\t// in\ntag_14:\n    /* \"#utility.yul\":424:483   */\n  swap1\n  pop\n    /* \"#utility.yul\":196:489   */\n  swap3\n  pop\n  swap3\n  swap1\n  pop\n  jump\t// out\ntag_7:\n    /* \"Contracts/MoonV1Thing.sol\":169:9554  contract MoonV1Thing {... */\n  dataSize(sub_0)\n  dup1\n  dataOffset(sub_0)\n  0x00\n  codecopy\n  0x00\n  return\nstop\n\nsub_0: assembly {\n        /* \"Contracts/MoonV1Thing.sol\":169:9554  contract MoonV1Thing {... */\n      mstore(0x40, 0x80)\n      callvalue\n      dup1\n      iszero\n      tag_1\n      jumpi\n      0x00\n      dup1\n      revert\n    tag_1:\n      pop\n      jumpi(tag_2, lt(calldatasize, 0x04))\n      shr(0xe0, calldataload(0x00))\n      dup1\n      0x9ed16583\n      gt\n      tag_25\n      jumpi\n      dup1\n      0xcda5469a\n      gt\n      tag_26\n      jumpi\n      dup1\n      0xdd895f4b\n      gt\n      tag_27\n      jumpi\n      dup1\n      0xdd895f4b\n      eq\n      tag_22\n      jumpi\n      dup1\n      0xe4cb1412\n      eq\n      tag_23\n      jumpi\n      dup1\n      0xffd499b0\n      eq\n      tag_24\n      jumpi\n      0x00\n      dup1\n      revert\n    tag_27:\n      dup1\n      0xcda5469a\n      eq\n      tag_19\n      jumpi\n      dup1\n      0xd2c5549c\n      eq\n      tag_15\n      jumpi\n      dup1\n      0xdb0822a1\n      eq\n      tag_21\n      jumpi\n      0x00\n      dup1\n      revert\n    tag_26:\n      dup1\n      0xb642a7c2\n      gt\n      tag_28\n      jumpi\n      dup1\n      0xb642a7c2\n      eq\n      tag_16\n      jumpi\n      dup1\n      0xb770f8d7\n      eq\n      tag_17\n      jumpi\n      dup1\n      0xcbb6ec49\n      eq\n      tag_18\n      jumpi\n      0x00\n      dup1\n      revert\n    tag_28:\n      dup1\n      0x9ed16583\n      eq\n      tag_14\n      jumpi\n      dup1\n      0xa9f48a8d\n      eq\n      tag_15\n      jumpi\n      0x00\n      dup1\n      revert\n    tag_25:\n      dup1\n      0x38c3c6a9\n      gt\n      tag_29\n      jumpi\n      dup1\n      0x7ac73247\n      gt\n      tag_30\n      jumpi\n      dup1\n      0x7ac73247\n      eq\n      tag_11\n      jumpi\n      dup1\n      0x885471d5\n      eq\n      tag_12\n      jumpi\n      dup1\n      0x9803ed36\n      eq\n      tag_13\n      jumpi\n      0x00\n      dup1\n      revert\n    tag_30:\n      dup1\n      0x38c3c6a9\n      eq\n      tag_8\n      jumpi\n      dup1\n      0x492b7107\n      eq\n      tag_9\n      jumpi\n      dup1\n      0x69c55295\n      eq\n      tag_10\n      jumpi\n      0x00\n      dup1\n      revert\n    tag_29:\n      dup1\n      0x1536e750\n      gt\n      tag_31\n      jumpi\n      dup1\n      0x1536e750\n      eq\n      tag_5\n      jumpi\n      dup1\n      0x2f17d5df\n      eq\n      tag_6\n      jumpi\n      dup1\n      0x34c4b754\n      eq\n      tag_7\n      jumpi\n      0x00\n      dup1\n      revert\n    tag_31:\n      dup1\n      0x05d2acb5\n      eq\n      tag_3\n      jumpi\n      dup1\n      0x07eabf0e\n      eq\n      tag_4\n      jumpi\n    tag_2:\n      0x00\n      dup1\n      revert\n        /* \"Contracts/MoonV1Thing.sol\":9114:9422  function getSTThingsInfo(address _contractaddress)... */\n    tag_3:\n      tag_32\n      tag_33\n      calldatasize\n      0x04\n      tag_34\n      jump\t// in\n    tag_33:\n      tag_35\n      jump\t// in\n    tag_32:\n      mload(0x40)\n      tag_36\n      swap2\n      swap1\n      tag_37\n      jump\t// in\n    tag_36:\n      mload(0x40)\n      dup1\n      swap2\n      sub\n      swap1\n      return\n        /* \"Contracts/MoonV1Thing.sol\":6508:6965  function lockGateSTThingsbyCreater(... */\n    tag_4:\n      tag_38\n      tag_39\n      calldatasize\n      0x04\n      tag_40\n      jump\t// in\n    tag_39:\n      tag_41\n      jump\t// in\n    tag_38:\n      stop\n        /* \"Contracts/MoonV1Thing.sol\":5770:6365  function updateSTThingsbyGator(LSTThings.Info memory _STThingsInfo)... */\n    tag_5:\n      tag_38\n      tag_43\n      calldatasize\n      0x04\n      tag_44\n      jump\t// in\n    tag_43:\n      tag_45\n      jump\t// in\n        /* \"Contracts/MoonV1Thing.sol\":718:752  address public gateContractAddress */\n    tag_6:\n      sload(0x03)\n      tag_46\n      swap1\n      sub(shl(0xa0, 0x01), 0x01)\n      and\n      dup2\n      jump\n    tag_46:\n      mload(0x40)\n      sub(shl(0xa0, 0x01), 0x01)\n        /* \"#utility.yul\":3457:3512   */\n      swap1\n      swap2\n      and\n        /* \"#utility.yul\":3439:3513   */\n      dup2\n      mstore\n        /* \"#utility.yul\":3427:3429   */\n      0x20\n        /* \"#utility.yul\":3412:3430   */\n      add\n        /* \"Contracts/MoonV1Thing.sol\":718:752  address public gateContractAddress */\n      tag_36\n        /* \"#utility.yul\":3293:3519   */\n      jump\n        /* \"Contracts/MoonV1Thing.sol\":3677:4289  function impoveGateSTThingsbyMarketor(... */\n    tag_7:\n      tag_38\n      tag_51\n      calldatasize\n      0x04\n      tag_40\n      jump\t// in\n    tag_51:\n      tag_52\n      jump\t// in\n        /* \"Contracts/MoonV1Thing.sol\":4635:4984  function delGateSTThingsbyMarketor(... */\n    tag_8:\n      tag_38\n      tag_54\n      calldatasize\n      0x04\n      tag_40\n      jump\t// in\n    tag_54:\n      tag_55\n      jump\t// in\n        /* \"Contracts/MoonV1Thing.sol\":758:796  address public marketorContractAddress */\n    tag_9:\n      sload(0x04)\n      tag_46\n      swap1\n      sub(shl(0xa0, 0x01), 0x01)\n      and\n      dup2\n      jump\n        /* \"Contracts/MoonV1Thing.sol\":483:554  mapping(address => mapping(address => address)) public gateSTThingsList */\n    tag_10:\n      tag_46\n      tag_60\n      calldatasize\n      0x04\n      tag_40\n      jump\t// in\n    tag_60:\n      0x01\n      0x20\n      swap1\n      dup2\n      mstore\n      0x00\n      swap3\n      dup4\n      mstore\n      0x40\n      dup1\n      dup5\n      keccak256\n      swap1\n      swap2\n      mstore\n      swap1\n      dup3\n      mstore\n      swap1\n      keccak256\n      sload\n      sub(shl(0xa0, 0x01), 0x01)\n      and\n      dup2\n      jump\n        /* \"Contracts/MoonV1Thing.sol\":2553:2759  function changeSTThingsScopebyMarketor(... */\n    tag_11:\n      tag_38\n      tag_64\n      calldatasize\n      0x04\n      tag_65\n      jump\t// in\n    tag_64:\n      tag_66\n      jump\t// in\n        /* \"Contracts/MoonV1Thing.sol\":6971:7429  function unlockGateSTThingsbyCreater(... */\n    tag_12:\n      tag_38\n      tag_68\n      calldatasize\n      0x04\n      tag_40\n      jump\t// in\n    tag_68:\n      tag_69\n      jump\t// in\n        /* \"Contracts/MoonV1Thing.sol\":302:355  mapping(address => address) public marketSTThingsList */\n    tag_13:\n      tag_46\n      tag_71\n      calldatasize\n      0x04\n      tag_34\n      jump\t// in\n    tag_71:\n      0x00\n      0x20\n      dup2\n      swap1\n      mstore\n      swap1\n      dup2\n      mstore\n      0x40\n      swap1\n      keccak256\n      sload\n      sub(shl(0xa0, 0x01), 0x01)\n      and\n      dup2\n      jump\n        /* \"Contracts/MoonV1Thing.sol\":5448:5764  function lockSTThingsbyGator(address _internalSTThingsAddress)... */\n    tag_14:\n      tag_38\n      tag_75\n      calldatasize\n      0x04\n      tag_34\n      jump\t// in\n    tag_75:\n      tag_76\n      jump\t// in\n        /* \"Contracts/MoonV1Thing.sol\":8273:9108  function updateGateSTThingsbyCreator(... */\n    tag_15:\n      tag_38\n      tag_78\n      calldatasize\n      0x04\n      tag_79\n      jump\t// in\n    tag_78:\n      tag_80\n      jump\t// in\n        /* \"Contracts/MoonV1Thing.sol\":2765:2954  function lockSTThingsbyMarketor(address _internalSTThingsAddress)... */\n    tag_16:\n      tag_38\n      tag_82\n      calldatasize\n      0x04\n      tag_34\n      jump\t// in\n    tag_82:\n      tag_83\n      jump\t// in\n        /* \"Contracts/MoonV1Thing.sol\":1627:2547  function addSTThingsbyMarketor(LSTThings.Info memory _STThingsInfo)... */\n    tag_17:\n      tag_38\n      tag_85\n      calldatasize\n      0x04\n      tag_44\n      jump\t// in\n    tag_85:\n      tag_86\n      jump\t// in\n        /* \"Contracts/MoonV1Thing.sol\":2960:3150  function unlockSTThingsbyMarketor(address _internalSTThingsAddress)... */\n    tag_18:\n      tag_38\n      tag_88\n      calldatasize\n      0x04\n      tag_34\n      jump\t// in\n    tag_88:\n      tag_89\n      jump\t// in\n        /* \"Contracts/MoonV1Thing.sol\":9428:9552  function isValidThing(address _thing) external view returns (bool) {... */\n    tag_19:\n      tag_90\n      tag_91\n      calldatasize\n      0x04\n      tag_34\n      jump\t// in\n    tag_91:\n      sub(shl(0xa0, 0x01), 0x01)\n        /* \"Contracts/MoonV1Thing.sol\":9512:9532  STThingsList[_thing] */\n      and\n        /* \"Contracts/MoonV1Thing.sol\":9489:9493  bool */\n      0x00\n        /* \"Contracts/MoonV1Thing.sol\":9512:9532  STThingsList[_thing] */\n      swap1\n      dup2\n      mstore\n        /* \"Contracts/MoonV1Thing.sol\":9512:9524  STThingsList */\n      0x02\n        /* \"Contracts/MoonV1Thing.sol\":9512:9532  STThingsList[_thing] */\n      0x20\n      mstore\n      0x40\n      swap1\n      keccak256\n        /* \"Contracts/MoonV1Thing.sol\":9512:9545  STThingsList[_thing].marketunlock */\n      0x03\n      add\n      sload\n      shl(0xa8, 0x01)\n      swap1\n      div\n      0xff\n      and\n      swap1\n        /* \"Contracts/MoonV1Thing.sol\":9428:9552  function isValidThing(address _thing) external view returns (bool) {... */\n      jump\n    tag_90:\n      mload(0x40)\n        /* \"#utility.yul\":3689:3703   */\n      swap1\n      iszero\n        /* \"#utility.yul\":3682:3704   */\n      iszero\n        /* \"#utility.yul\":3664:3705   */\n      dup2\n      mstore\n        /* \"#utility.yul\":3652:3654   */\n      0x20\n        /* \"#utility.yul\":3637:3655   */\n      add\n        /* \"Contracts/MoonV1Thing.sol\":9428:9552  function isValidThing(address _thing) external view returns (bool) {... */\n      tag_36\n        /* \"#utility.yul\":3524:3711   */\n      jump\n        /* \"Contracts/MoonV1Thing.sol\":5125:5442  function unlockSTThingsbyGator(address _internalSTThingsAddress)... */\n    tag_21:\n      tag_38\n      tag_99\n      calldatasize\n      0x04\n      tag_34\n      jump\t// in\n    tag_99:\n      tag_100\n      jump\t// in\n        /* \"Contracts/MoonV1Thing.sol\":657:711  mapping(address => LSTThings.Info) public STThingsList */\n    tag_22:\n      tag_101\n      tag_102\n      calldatasize\n      0x04\n      tag_34\n      jump\t// in\n    tag_102:\n      0x02\n      0x20\n      dup2\n      swap1\n      mstore\n      0x00\n      swap2\n      dup3\n      mstore\n      0x40\n      swap1\n      swap2\n      keccak256\n      dup1\n      sload\n      0x01\n      dup3\n      add\n      sload\n      swap3\n      dup3\n      add\n      sload\n      0x03\n      dup4\n      add\n      sload\n      0x04\n      dup5\n      add\n      sload\n      0x05\n      swap1\n      swap5\n      add\n      sload\n      swap3\n      swap5\n      sub(shl(0xa0, 0x01), 0x01)\n      swap1\n      dup2\n      and\n      swap5\n      swap3\n      swap4\n      0xff\n      dup1\n      dup5\n      and\n      swap5\n      0x0100\n      dup6\n      div\n      dup5\n      and\n      swap5\n      shl(0xa8, 0x01)\n      dup2\n      div\n      dup4\n      and\n      swap5\n      shl(0xb0, 0x01)\n      dup3\n      div\n      dup5\n      and\n      swap5\n      shl(0xb8, 0x01)\n      dup4\n      div\n      dup6\n      and\n      swap5\n      shl(0xc0, 0x01)\n      swap1\n      swap4\n      div\n      swap1\n      swap3\n      and\n      swap3\n      dup2\n      and\n      swap2\n      and\n      dup12\n      jump\n    tag_101:\n      0x40\n      dup1\n      mload\n        /* \"#utility.yul\":4116:4141   */\n      swap12\n      dup13\n      mstore\n      sub(shl(0xa0, 0x01), 0x01)\n        /* \"#utility.yul\":4238:4253   */\n      swap11\n      dup12\n      and\n        /* \"#utility.yul\":4233:4235   */\n      0x20\n        /* \"#utility.yul\":4218:4236   */\n      dup14\n      add\n        /* \"#utility.yul\":4211:4254   */\n      mstore\n        /* \"#utility.yul\":4270:4288   */\n      dup12\n      add\n        /* \"#utility.yul\":4263:4297   */\n      swap9\n      swap1\n      swap9\n      mstore\n        /* \"#utility.yul\":4345:4349   */\n      0xff\n        /* \"#utility.yul\":4333:4350   */\n      swap1\n      swap7\n      and\n        /* \"#utility.yul\":4328:4330   */\n      0x60\n        /* \"#utility.yul\":4313:4331   */\n      dup11\n      add\n        /* \"#utility.yul\":4306:4351   */\n      mstore\n        /* \"#utility.yul\":4388:4403   */\n      swap4\n      dup8\n      and\n        /* \"#utility.yul\":4382:4385   */\n      0x80\n        /* \"#utility.yul\":4367:4386   */\n      dup10\n      add\n        /* \"#utility.yul\":4360:4404   */\n      mstore\n        /* \"#utility.yul\":4448:4462   */\n      swap2\n      iszero\n        /* \"#utility.yul\":4441:4463   */\n      iszero\n        /* \"#utility.yul\":4435:4438   */\n      0xa0\n        /* \"#utility.yul\":4420:4439   */\n      dup9\n      add\n        /* \"#utility.yul\":4413:4464   */\n      mstore\n        /* \"#utility.yul\":4508:4522   */\n      iszero\n        /* \"#utility.yul\":4501:4523   */\n      iszero\n        /* \"#utility.yul\":4495:4498   */\n      0xc0\n        /* \"#utility.yul\":4480:4499   */\n      dup8\n      add\n        /* \"#utility.yul\":4473:4524   */\n      mstore\n        /* \"#utility.yul\":4568:4582   */\n      iszero\n        /* \"#utility.yul\":4561:4583   */\n      iszero\n        /* \"#utility.yul\":4555:4558   */\n      0xe0\n        /* \"#utility.yul\":4540:4559   */\n      dup7\n      add\n        /* \"#utility.yul\":4533:4584   */\n      mstore\n        /* \"#utility.yul\":4628:4642   */\n      iszero\n        /* \"#utility.yul\":4621:4643   */\n      iszero\n        /* \"#utility.yul\":4615:4618   */\n      0x0100\n        /* \"#utility.yul\":4600:4619   */\n      dup6\n      add\n        /* \"#utility.yul\":4593:4644   */\n      mstore\n        /* \"#utility.yul\":3051:3105   */\n      dup3\n      and\n        /* \"#utility.yul\":4695:4698   */\n      0x0120\n        /* \"#utility.yul\":4680:4699   */\n      dup5\n      add\n        /* \"#utility.yul\":3039:3106   */\n      mstore\n        /* \"#utility.yul\":3051:3105   */\n      and\n        /* \"#utility.yul\":4752:4755   */\n      0x0140\n        /* \"#utility.yul\":4737:4756   */\n      dup3\n      add\n        /* \"#utility.yul\":3039:3106   */\n      mstore\n        /* \"#utility.yul\":4103:4106   */\n      0x0160\n        /* \"#utility.yul\":4088:4107   */\n      add\n        /* \"Contracts/MoonV1Thing.sol\":657:711  mapping(address => LSTThings.Info) public STThingsList */\n      tag_36\n        /* \"#utility.yul\":3716:4763   */\n      jump\n        /* \"Contracts/MoonV1Thing.sol\":3156:3671  function updateSTThingsbyMarketor(LSTThings.Info memory _STThingsInfo)... */\n    tag_23:\n      tag_38\n      tag_107\n      calldatasize\n      0x04\n      tag_44\n      jump\t// in\n    tag_107:\n      tag_108\n      jump\t// in\n        /* \"Contracts/MoonV1Thing.sol\":4295:4629  function delSTThingsbyMarketor(LSTThings.Info memory _STThingsInfo)... */\n    tag_24:\n      tag_38\n      tag_110\n      calldatasize\n      0x04\n      tag_44\n      jump\t// in\n    tag_110:\n      tag_111\n      jump\t// in\n        /* \"Contracts/MoonV1Thing.sol\":9114:9422  function getSTThingsInfo(address _contractaddress)... */\n    tag_35:\n      0x40\n      dup1\n      mload\n      0x0160\n      dup2\n      add\n      dup3\n      mstore\n      0x00\n      dup1\n      dup3\n      mstore\n      0x20\n      dup3\n      add\n      dup2\n      swap1\n      mstore\n      swap2\n      dup2\n      add\n      dup3\n      swap1\n      mstore\n      0x60\n      dup2\n      add\n      dup3\n      swap1\n      mstore\n      0x80\n      dup2\n      add\n      dup3\n      swap1\n      mstore\n      0xa0\n      dup2\n      add\n      dup3\n      swap1\n      mstore\n      0xc0\n      dup2\n      add\n      dup3\n      swap1\n      mstore\n      0xe0\n      dup2\n      add\n      dup3\n      swap1\n      mstore\n      0x0100\n      dup2\n      add\n      dup3\n      swap1\n      mstore\n      0x0120\n      dup2\n      add\n      dup3\n      swap1\n      mstore\n      0x0140\n      dup2\n      add\n      swap2\n      swap1\n      swap2\n      mstore\n      sub(shl(0xa0, 0x01), 0x01)\n        /* \"Contracts/MoonV1Thing.sol\":9270:9300  STThingsList[_contractaddress] */\n      dup3\n      and\n      0x00\n      swap1\n      dup2\n      mstore\n        /* \"Contracts/MoonV1Thing.sol\":9270:9282  STThingsList */\n      0x02\n        /* \"Contracts/MoonV1Thing.sol\":9270:9300  STThingsList[_contractaddress] */\n      0x20\n      mstore\n      0x40\n      swap1\n      keccak256\n        /* \"Contracts/MoonV1Thing.sol\":9270:9307  STThingsList[_contractaddress].isUsed */\n      0x03\n      add\n      sload\n      shl(0xc0, 0x01)\n      swap1\n      div\n      0xff\n      and\n        /* \"Contracts/MoonV1Thing.sol\":9270:9315  STThingsList[_contractaddress].isUsed == true */\n      iszero\n      iszero\n        /* \"Contracts/MoonV1Thing.sol\":9311:9315  true */\n      0x01\n        /* \"Contracts/MoonV1Thing.sol\":9270:9315  STThingsList[_contractaddress].isUsed == true */\n      eq\n        /* \"Contracts/MoonV1Thing.sol\":9249:9367  require(... */\n      tag_115\n      jumpi\n      mload(0x40)\n      shl(0xe5, 0x461bcd)\n      dup2\n      mstore\n        /* \"#utility.yul\":5723:5725   */\n      0x20\n        /* \"Contracts/MoonV1Thing.sol\":9249:9367  require(... */\n      0x04\n      dup3\n      add\n        /* \"#utility.yul\":5705:5726   */\n      mstore\n        /* \"#utility.yul\":5762:5764   */\n      0x1a\n        /* \"#utility.yul\":5742:5760   */\n      0x24\n      dup3\n      add\n        /* \"#utility.yul\":5735:5765   */\n      mstore\n        /* \"#utility.yul\":5801:5829   */\n      0x7468652053545468696e6773206973206e6f7420657869737473000000000000\n        /* \"#utility.yul\":5781:5799   */\n      0x44\n      dup3\n      add\n        /* \"#utility.yul\":5774:5830   */\n      mstore\n        /* \"#utility.yul\":5847:5865   */\n      0x64\n      add\n        /* \"Contracts/MoonV1Thing.sol\":9249:9367  require(... */\n    tag_116:\n      mload(0x40)\n      dup1\n      swap2\n      sub\n      swap1\n      revert\n    tag_115:\n      pop\n      sub(shl(0xa0, 0x01), 0x01)\n        /* \"Contracts/MoonV1Thing.sol\":9385:9415  STThingsList[_contractaddress] */\n      swap1\n      dup2\n      and\n      0x00\n      swap1\n      dup2\n      mstore\n        /* \"Contracts/MoonV1Thing.sol\":9385:9397  STThingsList */\n      0x02\n        /* \"Contracts/MoonV1Thing.sol\":9385:9415  STThingsList[_contractaddress] */\n      0x20\n      dup2\n      dup2\n      mstore\n      0x40\n      swap3\n      dup4\n      swap1\n      keccak256\n        /* \"Contracts/MoonV1Thing.sol\":9378:9415  return STThingsList[_contractaddress] */\n      dup4\n      mload\n      0x0160\n      dup2\n      add\n      dup6\n      mstore\n      dup2\n      sload\n      dup2\n      mstore\n      0x01\n      dup3\n      add\n      sload\n      dup7\n      and\n      swap3\n      dup2\n      add\n      swap3\n      swap1\n      swap3\n      mstore\n      swap2\n      dup3\n      add\n      sload\n      swap3\n      dup2\n      add\n      swap3\n      swap1\n      swap3\n      mstore\n      0x03\n      dup2\n      add\n      sload\n      0xff\n      dup1\n      dup3\n      and\n      0x60\n      dup6\n      add\n      mstore\n      0x0100\n      dup1\n      dup4\n      div\n      dup7\n      and\n      0x80\n      dup7\n      add\n      mstore\n      shl(0xa8, 0x01)\n      dup4\n      div\n      dup3\n      and\n      iszero\n      iszero\n      0xa0\n      dup7\n      add\n      mstore\n      shl(0xb0, 0x01)\n      dup4\n      div\n      dup3\n      and\n      iszero\n      iszero\n      0xc0\n      dup7\n      add\n      mstore\n      shl(0xb8, 0x01)\n      dup4\n      div\n      dup3\n      and\n      iszero\n      iszero\n      0xe0\n      dup7\n      add\n      mstore\n      shl(0xc0, 0x01)\n      swap1\n      swap3\n      div\n      and\n      iszero\n      iszero\n      swap1\n      dup4\n      add\n      mstore\n      0x04\n      dup2\n      add\n      sload\n      dup4\n      and\n      0x0120\n      dup4\n      add\n      mstore\n      0x05\n      add\n      sload\n      swap1\n      swap2\n      and\n      0x0140\n      dup3\n      add\n      mstore\n      swap1\n        /* \"Contracts/MoonV1Thing.sol\":9114:9422  function getSTThingsInfo(address _contractaddress)... */\n      jump\t// out\n        /* \"Contracts/MoonV1Thing.sol\":6508:6965  function lockGateSTThingsbyCreater(... */\n    tag_41:\n      sub(shl(0xa0, 0x01), 0x01)\n        /* \"Contracts/MoonV1Thing.sol\":6661:6699  STThingsList[_internalSTThingsAddress] */\n      dup3\n      dup2\n      and\n      0x00\n      swap1\n      dup2\n      mstore\n        /* \"Contracts/MoonV1Thing.sol\":6661:6673  STThingsList */\n      0x02\n        /* \"Contracts/MoonV1Thing.sol\":6661:6699  STThingsList[_internalSTThingsAddress] */\n      0x20\n      mstore\n      0x40\n      swap1\n      keccak256\n        /* \"Contracts/MoonV1Thing.sol\":6661:6707  STThingsList[_internalSTThingsAddress].creator */\n      0x05\n      add\n      sload\n      and\n        /* \"Contracts/MoonV1Thing.sol\":6711:6721  msg.sender */\n      caller\n        /* \"Contracts/MoonV1Thing.sol\":6661:6721  STThingsList[_internalSTThingsAddress].creator == msg.sender */\n      eq\n        /* \"Contracts/MoonV1Thing.sol\":6661:6827  STThingsList[_internalSTThingsAddress].creator == msg.sender &&... */\n      dup1\n      iszero\n      tag_119\n      jumpi\n      pop\n      sub(shl(0xa0, 0x01), 0x01)\n        /* \"Contracts/MoonV1Thing.sol\":6741:6771  gateSTThingsList[_gateaddress] */\n      dup2\n      dup2\n      and\n        /* \"Contracts/MoonV1Thing.sol\":6825:6826  0 */\n      0x00\n        /* \"Contracts/MoonV1Thing.sol\":6741:6771  gateSTThingsList[_gateaddress] */\n      swap1\n      dup2\n      mstore\n        /* \"Contracts/MoonV1Thing.sol\":6741:6757  gateSTThingsList */\n      0x01\n        /* \"Contracts/MoonV1Thing.sol\":6741:6771  gateSTThingsList[_gateaddress] */\n      0x20\n      swap1\n      dup2\n      mstore\n      0x40\n      dup1\n      dup4\n      keccak256\n        /* \"Contracts/MoonV1Thing.sol\":6741:6797  gateSTThingsList[_gateaddress][_internalSTThingsAddress] */\n      dup7\n      dup6\n      and\n      dup5\n      mstore\n      swap1\n      swap2\n      mstore\n      swap1\n      keccak256\n      sload\n      and\n        /* \"Contracts/MoonV1Thing.sol\":6741:6827  gateSTThingsList[_gateaddress][_internalSTThingsAddress] ==... */\n      iszero\n        /* \"Contracts/MoonV1Thing.sol\":6661:6827  STThingsList[_internalSTThingsAddress].creator == msg.sender &&... */\n    tag_119:\n        /* \"Contracts/MoonV1Thing.sol\":6640:6888  require(... */\n      tag_120\n      jumpi\n      mload(0x40)\n      shl(0xe5, 0x461bcd)\n      dup2\n      mstore\n        /* \"#utility.yul\":6078:6080   */\n      0x20\n        /* \"Contracts/MoonV1Thing.sol\":6640:6888  require(... */\n      0x04\n      dup3\n      add\n        /* \"#utility.yul\":6060:6081   */\n      mstore\n        /* \"#utility.yul\":6117:6119   */\n      0x23\n        /* \"#utility.yul\":6097:6115   */\n      0x24\n      dup3\n      add\n        /* \"#utility.yul\":6090:6120   */\n      mstore\n        /* \"#utility.yul\":6156:6190   */\n      0x796f752068617665206e6f74207468652070726976696c65676573206f662074\n        /* \"#utility.yul\":6136:6154   */\n      0x44\n      dup3\n      add\n        /* \"#utility.yul\":6129:6191   */\n      mstore\n        /* \"#utility.yul\":6227:6232   */\n      0x6869730000000000000000000000000000000000000000000000000000000000\n        /* \"#utility.yul\":6207:6225   */\n      0x64\n      dup3\n      add\n        /* \"#utility.yul\":6200:6233   */\n      mstore\n        /* \"#utility.yul\":6250:6269   */\n      0x84\n      add\n        /* \"Contracts/MoonV1Thing.sol\":6640:6888  require(... */\n      tag_116\n        /* \"#utility.yul\":5876:6275   */\n      jump\n        /* \"Contracts/MoonV1Thing.sol\":6640:6888  require(... */\n    tag_120:\n      pop\n      sub(shl(0xa0, 0x01), 0x01)\n        /* \"Contracts/MoonV1Thing.sol\":6898:6936  STThingsList[_internalSTThingsAddress] */\n      and\n        /* \"Contracts/MoonV1Thing.sol\":6953:6958  false */\n      0x00\n        /* \"Contracts/MoonV1Thing.sol\":6898:6936  STThingsList[_internalSTThingsAddress] */\n      swap1\n      dup2\n      mstore\n        /* \"Contracts/MoonV1Thing.sol\":6898:6910  STThingsList */\n      0x02\n        /* \"Contracts/MoonV1Thing.sol\":6898:6936  STThingsList[_internalSTThingsAddress] */\n      0x20\n      mstore\n      0x40\n      swap1\n      keccak256\n        /* \"Contracts/MoonV1Thing.sol\":6898:6950  STThingsList[_internalSTThingsAddress].createrunlock */\n      0x03\n      add\n        /* \"Contracts/MoonV1Thing.sol\":6898:6958  STThingsList[_internalSTThingsAddress].createrunlock = false */\n      dup1\n      sload\n      0xffffffffffffffff00ffffffffffffffffffffffffffffffffffffffffffffff\n      and\n      swap1\n      sstore\n        /* \"Contracts/MoonV1Thing.sol\":6508:6965  function lockGateSTThingsbyCreater(... */\n      jump\t// out\n        /* \"Contracts/MoonV1Thing.sol\":5770:6365  function updateSTThingsbyGator(LSTThings.Info memory _STThingsInfo)... */\n    tag_45:\n        /* \"Contracts/MoonV1Thing.sol\":1275:1294  gateContractAddress */\n      0x03\n      0x00\n      swap1\n      sload\n      swap1\n      0x0100\n      exp\n      swap1\n      div\n      sub(shl(0xa0, 0x01), 0x01)\n      and\n      sub(shl(0xa0, 0x01), 0x01)\n        /* \"Contracts/MoonV1Thing.sol\":1263:1308  MoonV1Gater(gateContractAddress).isValidGater */\n      and\n      0xab3acb5c\n        /* \"Contracts/MoonV1Thing.sol\":1263:1310  MoonV1Gater(gateContractAddress).isValidGater() */\n      mload(0x40)\n      dup2\n      0xffffffff\n      and\n      0xe0\n      shl\n      dup2\n      mstore\n      0x04\n      add\n      0x20\n      mload(0x40)\n      dup1\n      dup4\n      sub\n      dup2\n      dup7\n      dup1\n      extcodesize\n      iszero\n      dup1\n      iszero\n      tag_124\n      jumpi\n      0x00\n      dup1\n      revert\n    tag_124:\n      pop\n      gas\n      staticcall\n      iszero\n      dup1\n      iszero\n      tag_126\n      jumpi\n      returndatasize\n      0x00\n      dup1\n      returndatacopy\n      revert(0x00, returndatasize)\n    tag_126:\n      pop\n      pop\n      pop\n      pop\n      mload(0x40)\n      returndatasize\n      not(0x1f)\n      0x1f\n      dup3\n      add\n      and\n      dup3\n      add\n      dup1\n      0x40\n      mstore\n      pop\n      dup2\n      add\n      swap1\n      tag_127\n      swap2\n      swap1\n      tag_128\n      jump\t// in\n    tag_127:\n        /* \"Contracts/MoonV1Thing.sol\":1255:1311  require(MoonV1Gater(gateContractAddress).isValidGater()) */\n      tag_129\n      jumpi\n      0x00\n      dup1\n      revert\n    tag_129:\n        /* \"Contracts/MoonV1Thing.sol\":5921:5950  _STThingsInfo.contractAddress */\n      0x80\n      dup2\n      add\n      mload\n      sub(shl(0xa0, 0x01), 0x01)\n        /* \"Contracts/MoonV1Thing.sol\":5908:5951  STThingsList[_STThingsInfo.contractAddress] */\n      swap1\n      dup2\n      and\n      0x00\n      swap1\n      dup2\n      mstore\n        /* \"Contracts/MoonV1Thing.sol\":5908:5920  STThingsList */\n      0x02\n        /* \"Contracts/MoonV1Thing.sol\":5908:5951  STThingsList[_STThingsInfo.contractAddress] */\n      0x20\n      mstore\n      0x40\n      swap1\n      keccak256\n        /* \"Contracts/MoonV1Thing.sol\":5908:5964  STThingsList[_STThingsInfo.contractAddress].addfromgater */\n      0x04\n      add\n      sload\n      and\n        /* \"Contracts/MoonV1Thing.sol\":5984:5994  msg.sender */\n      caller\n        /* \"Contracts/MoonV1Thing.sol\":5908:5994  STThingsList[_STThingsInfo.contractAddress].addfromgater ==... */\n      eq\n        /* \"Contracts/MoonV1Thing.sol\":5887:6042  require(... */\n      tag_131\n      jumpi\n      mload(0x40)\n      shl(0xe5, 0x461bcd)\n      dup2\n      mstore\n        /* \"#utility.yul\":5372:5374   */\n      0x20\n        /* \"Contracts/MoonV1Thing.sol\":5887:6042  require(... */\n      0x04\n      dup3\n      add\n        /* \"#utility.yul\":5354:5375   */\n      mstore\n        /* \"#utility.yul\":5411:5413   */\n      0x16\n        /* \"#utility.yul\":5391:5409   */\n      0x24\n      dup3\n      add\n        /* \"#utility.yul\":5384:5414   */\n      mstore\n        /* \"#utility.yul\":5450:5474   */\n      0x796f752068617665206e6f742074686520726967687400000000000000000000\n        /* \"#utility.yul\":5430:5448   */\n      0x44\n      dup3\n      add\n        /* \"#utility.yul\":5423:5475   */\n      mstore\n        /* \"#utility.yul\":5492:5510   */\n      0x64\n      add\n        /* \"Contracts/MoonV1Thing.sol\":5887:6042  require(... */\n      tag_116\n        /* \"#utility.yul\":5170:5516   */\n      jump\n        /* \"Contracts/MoonV1Thing.sol\":5887:6042  require(... */\n    tag_131:\n        /* \"Contracts/MoonV1Thing.sol\":6060:6073  _STThingsInfo */\n      dup1\n        /* \"Contracts/MoonV1Thing.sol\":6060:6079  _STThingsInfo.scope */\n      0x60\n      add\n      mload\n        /* \"Contracts/MoonV1Thing.sol\":6060:6084  _STThingsInfo.scope == 4 */\n      0xff\n      and\n        /* \"Contracts/MoonV1Thing.sol\":6083:6084  4 */\n      0x04\n        /* \"Contracts/MoonV1Thing.sol\":6060:6084  _STThingsInfo.scope == 4 */\n      eq\n        /* \"Contracts/MoonV1Thing.sol\":6052:6121  require(_STThingsInfo.scope == 4, \"the coin scope is not justified \") */\n      tag_134\n      jumpi\n      mload(0x40)\n      shl(0xe5, 0x461bcd)\n      dup2\n      mstore\n        /* \"#utility.yul\":6482:6484   */\n      0x20\n        /* \"Contracts/MoonV1Thing.sol\":6052:6121  require(_STThingsInfo.scope == 4, \"the coin scope is not justified \") */\n      0x04\n      dup3\n      add\n        /* \"#utility.yul\":6464:6485   */\n      dup2\n      swap1\n      mstore\n        /* \"#utility.yul\":6501:6519   */\n      0x24\n      dup3\n      add\n        /* \"#utility.yul\":6494:6524   */\n      mstore\n        /* \"#utility.yul\":6560:6594   */\n      0x74686520636f696e2073636f7065206973206e6f74206a757374696669656420\n        /* \"#utility.yul\":6540:6558   */\n      0x44\n      dup3\n      add\n        /* \"#utility.yul\":6533:6595   */\n      mstore\n        /* \"#utility.yul\":6612:6630   */\n      0x64\n      add\n        /* \"Contracts/MoonV1Thing.sol\":6052:6121  require(_STThingsInfo.scope == 4, \"the coin scope is not justified \") */\n      tag_116\n        /* \"#utility.yul\":6280:6636   */\n      jump\n        /* \"Contracts/MoonV1Thing.sol\":6052:6121  require(_STThingsInfo.scope == 4, \"the coin scope is not justified \") */\n    tag_134:\n        /* \"Contracts/MoonV1Thing.sol\":6160:6165  false */\n      0x00\n        /* \"Contracts/MoonV1Thing.sol\":6131:6157  _STThingsInfo.marketunlock */\n      0xa0\n      dup3\n      add\n        /* \"Contracts/MoonV1Thing.sol\":6131:6165  _STThingsInfo.marketunlock = false */\n      dup2\n      dup2\n      mstore\n        /* \"Contracts/MoonV1Thing.sol\":6175:6195  _STThingsInfo.unlock */\n      0xc0\n      dup4\n      add\n        /* \"Contracts/MoonV1Thing.sol\":6175:6203  _STThingsInfo.unlock = false */\n      dup3\n      dup2\n      mstore\n        /* \"Contracts/MoonV1Thing.sol\":6131:6165  _STThingsInfo.marketunlock = false */\n      0x01\n        /* \"Contracts/MoonV1Thing.sol\":6213:6233  _STThingsInfo.isUsed */\n      0x0100\n      dup1\n      dup7\n      add\n        /* \"Contracts/MoonV1Thing.sol\":6213:6240  _STThingsInfo.isUsed = true */\n      dup3\n      dup2\n      mstore\n        /* \"Contracts/MoonV1Thing.sol\":6279:6289  msg.sender */\n      caller\n        /* \"Contracts/MoonV1Thing.sol\":6250:6276  _STThingsInfo.addfromgater */\n      0x0120\n      dup9\n      add\n        /* \"Contracts/MoonV1Thing.sol\":6250:6289  _STThingsInfo.addfromgater = msg.sender */\n      swap1\n      dup2\n      mstore\n        /* \"Contracts/MoonV1Thing.sol\":6312:6341  _STThingsInfo.contractAddress */\n      0x80\n      dup9\n      add\n      dup1\n      mload\n      sub(shl(0xa0, 0x01), 0x01)\n        /* \"Contracts/MoonV1Thing.sol\":6299:6342  STThingsList[_STThingsInfo.contractAddress] */\n      swap1\n      dup2\n      and\n      dup10\n      mstore\n        /* \"Contracts/MoonV1Thing.sol\":6299:6311  STThingsList */\n      0x02\n        /* \"Contracts/MoonV1Thing.sol\":6299:6342  STThingsList[_STThingsInfo.contractAddress] */\n      0x20\n      dup2\n      dup2\n      mstore\n      0x40\n      swap11\n      dup12\n      swap1\n      keccak256\n        /* \"Contracts/MoonV1Thing.sol\":6299:6358  STThingsList[_STThingsInfo.contractAddress] = _STThingsInfo */\n      dup13\n      mload\n      dup2\n      sstore\n      swap1\n      dup13\n      add\n      mload\n      swap8\n      dup2\n      add\n      dup1\n      sload\n      swap9\n      dup5\n      and\n      not(0xffffffffffffffffffffffffffffffffffffffff)\n      swap10\n      dup11\n      and\n      or\n      swap1\n      sstore\n      swap10\n      dup12\n      add\n      mload\n      swap1\n      dup11\n      add\n      sstore\n      0x60\n      dup11\n      add\n      mload\n      0x03\n      dup11\n      add\n      dup1\n      sload\n      swap4\n      mload\n      swap10\n      mload\n      swap9\n      mload\n      0xe0\n      dup14\n      add\n      mload\n      swap7\n      mload\n      iszero\n      iszero\n      shl(0xc0, 0x01)\n      mul\n      0xffffffffffffff00ffffffffffffffffffffffffffffffffffffffffffffffff\n      swap8\n      iszero\n      iszero\n      shl(0xb8, 0x01)\n      mul\n      swap8\n      swap1\n      swap8\n      and\n      0xffffffffffffff0000ffffffffffffffffffffffffffffffffffffffffffffff\n      swap2\n      iszero\n      iszero\n      shl(0xb0, 0x01)\n      mul\n      not(shl(0xb0, 0xff))\n      swap12\n      iszero\n      iszero\n      shl(0xa8, 0x01)\n      mul\n      swap12\n      swap1\n      swap12\n      and\n      0xffffffffffffffffff0000ffffffffffffffffffffffffffffffffffffffffff\n      swap13\n      dup7\n      and\n      swap1\n      swap10\n      mul\n      0xffffffffffffffffffffff000000000000000000000000000000000000000000\n      swap1\n      swap7\n      and\n      0xff\n      swap1\n      swap5\n      and\n      swap4\n      swap1\n      swap4\n      or\n      swap5\n      swap1\n      swap5\n      or\n      swap10\n      swap1\n      swap10\n      and\n      swap6\n      swap1\n      swap6\n      or\n      swap7\n      swap1\n      swap7\n      or\n      and\n      swap3\n      swap1\n      swap3\n      or\n      or\n      swap1\n      swap4\n      sstore\n      swap2\n      mload\n      0x04\n      dup5\n      add\n      dup1\n      sload\n      swap2\n      dup4\n      and\n      swap2\n      dup5\n      and\n      swap2\n      swap1\n      swap2\n      or\n      swap1\n      sstore\n      0x0140\n      swap1\n      swap4\n      add\n      mload\n      0x05\n      swap1\n      swap3\n      add\n      dup1\n      sload\n      swap3\n      swap1\n      swap4\n      and\n      swap2\n      and\n      or\n      swap1\n      sstore\n        /* \"Contracts/MoonV1Thing.sol\":5770:6365  function updateSTThingsbyGator(LSTThings.Info memory _STThingsInfo)... */\n      jump\t// out\n        /* \"Contracts/MoonV1Thing.sol\":3677:4289  function impoveGateSTThingsbyMarketor(... */\n    tag_52:\n        /* \"Contracts/MoonV1Thing.sol\":1409:1432  marketorContractAddress */\n      0x04\n      dup1\n      sload\n        /* \"Contracts/MoonV1Thing.sol\":1395:1451  MoonV1Manager(marketorContractAddress).ismarketManager() */\n      0x40\n      dup1\n      mload\n      shl(0xe1, 0x0a43f929)\n      dup2\n      mstore\n      swap1\n      mload\n      sub(shl(0xa0, 0x01), 0x01)\n        /* \"Contracts/MoonV1Thing.sol\":1409:1432  marketorContractAddress */\n      swap1\n      swap3\n      and\n      swap3\n        /* \"Contracts/MoonV1Thing.sol\":1395:1449  MoonV1Manager(marketorContractAddress).ismarketManager */\n      0x1487f252\n      swap3\n        /* \"Contracts/MoonV1Thing.sol\":1395:1451  MoonV1Manager(marketorContractAddress).ismarketManager() */\n      dup3\n      dup3\n      add\n      swap3\n      0x20\n      swap3\n      swap1\n      dup3\n      swap1\n      sub\n      add\n      dup2\n        /* \"Contracts/MoonV1Thing.sol\":1409:1432  marketorContractAddress */\n      dup7\n        /* \"Contracts/MoonV1Thing.sol\":1395:1451  MoonV1Manager(marketorContractAddress).ismarketManager() */\n      dup1\n      extcodesize\n      iszero\n      dup1\n      iszero\n      tag_138\n      jumpi\n      0x00\n      dup1\n      revert\n    tag_138:\n      pop\n      gas\n      staticcall\n      iszero\n      dup1\n      iszero\n      tag_140\n      jumpi\n      returndatasize\n      0x00\n      dup1\n      returndatacopy\n      revert(0x00, returndatasize)\n    tag_140:\n      pop\n      pop\n      pop\n      pop\n      mload(0x40)\n      returndatasize\n      not(0x1f)\n      0x1f\n      dup3\n      add\n      and\n      dup3\n      add\n      dup1\n      0x40\n      mstore\n      pop\n      dup2\n      add\n      swap1\n      tag_141\n      swap2\n      swap1\n      tag_128\n      jump\t// in\n    tag_141:\n        /* \"Contracts/MoonV1Thing.sol\":1395:1459  MoonV1Manager(marketorContractAddress).ismarketManager() == true */\n      iszero\n      iszero\n        /* \"Contracts/MoonV1Thing.sol\":1455:1459  true */\n      0x01\n        /* \"Contracts/MoonV1Thing.sol\":1395:1459  MoonV1Manager(marketorContractAddress).ismarketManager() == true */\n      eq\n        /* \"Contracts/MoonV1Thing.sol\":1374:1469  require(... */\n      tag_142\n      jumpi\n      0x00\n      dup1\n      revert\n    tag_142:\n      sub(shl(0xa0, 0x01), 0x01)\n        /* \"Contracts/MoonV1Thing.sol\":3843:3873  gateSTThingsList[_gateaddress] */\n      dup2\n      dup2\n      and\n        /* \"Contracts/MoonV1Thing.sol\":3903:3904  0 */\n      0x00\n        /* \"Contracts/MoonV1Thing.sol\":3843:3873  gateSTThingsList[_gateaddress] */\n      swap1\n      dup2\n      mstore\n        /* \"Contracts/MoonV1Thing.sol\":3843:3859  gateSTThingsList */\n      0x01\n        /* \"Contracts/MoonV1Thing.sol\":3843:3873  gateSTThingsList[_gateaddress] */\n      0x20\n      swap1\n      dup2\n      mstore\n      0x40\n      dup1\n      dup4\n      keccak256\n        /* \"Contracts/MoonV1Thing.sol\":3843:3891  gateSTThingsList[_gateaddress][_contractaddress] */\n      dup7\n      dup6\n      and\n      dup5\n      mstore\n      swap1\n      swap2\n      mstore\n      swap1\n      keccak256\n      sload\n      and\n        /* \"Contracts/MoonV1Thing.sol\":3822:3957  require(... */\n      tag_144\n      jumpi\n      mload(0x40)\n      shl(0xe5, 0x461bcd)\n      dup2\n      mstore\n        /* \"#utility.yul\":5723:5725   */\n      0x20\n        /* \"Contracts/MoonV1Thing.sol\":3822:3957  require(... */\n      0x04\n      dup3\n      add\n        /* \"#utility.yul\":5705:5726   */\n      mstore\n        /* \"#utility.yul\":5762:5764   */\n      0x1a\n        /* \"#utility.yul\":5742:5760   */\n      0x24\n      dup3\n      add\n        /* \"#utility.yul\":5735:5765   */\n      mstore\n        /* \"#utility.yul\":5801:5829   */\n      0x7468652053545468696e6773206973206e6f7420657869737473000000000000\n        /* \"#utility.yul\":5781:5799   */\n      0x44\n      dup3\n      add\n        /* \"#utility.yul\":5774:5830   */\n      mstore\n        /* \"#utility.yul\":5847:5865   */\n      0x64\n      add\n        /* \"Contracts/MoonV1Thing.sol\":3822:3957  require(... */\n      tag_116\n        /* \"#utility.yul\":5521:5871   */\n      jump\n        /* \"Contracts/MoonV1Thing.sol\":3822:3957  require(... */\n    tag_144:\n      sub(shl(0xa0, 0x01), 0x01)\n        /* \"Contracts/MoonV1Thing.sol\":3988:4024  marketSTThingsList[_contractaddress] */\n      dup3\n      dup2\n      and\n        /* \"Contracts/MoonV1Thing.sol\":4036:4037  0 */\n      0x00\n        /* \"Contracts/MoonV1Thing.sol\":3988:4024  marketSTThingsList[_contractaddress] */\n      swap1\n      dup2\n      mstore\n      0x20\n      dup2\n      swap1\n      mstore\n      0x40\n      swap1\n      keccak256\n      sload\n      and\n        /* \"Contracts/MoonV1Thing.sol\":3988:4038  marketSTThingsList[_contractaddress] == address(0) */\n      iszero\n        /* \"Contracts/MoonV1Thing.sol\":3967:4097  require(... */\n      tag_146\n      jumpi\n      mload(0x40)\n      shl(0xe5, 0x461bcd)\n      dup2\n      mstore\n        /* \"#utility.yul\":4970:4972   */\n      0x20\n        /* \"Contracts/MoonV1Thing.sol\":3967:4097  require(... */\n      0x04\n      dup3\n      add\n        /* \"#utility.yul\":4952:4973   */\n      mstore\n        /* \"#utility.yul\":5009:5011   */\n      0x21\n        /* \"#utility.yul\":4989:5007   */\n      0x24\n      dup3\n      add\n        /* \"#utility.yul\":4982:5012   */\n      mstore\n        /* \"#utility.yul\":5048:5082   */\n      0x7468652053545468696e6773206973202065786973747320696e206d61726b65\n        /* \"#utility.yul\":5028:5046   */\n      0x44\n      dup3\n      add\n        /* \"#utility.yul\":5021:5083   */\n      mstore\n        /* \"#utility.yul\":5119:5122   */\n      0x7400000000000000000000000000000000000000000000000000000000000000\n        /* \"#utility.yul\":5099:5117   */\n      0x64\n      dup3\n      add\n        /* \"#utility.yul\":5092:5123   */\n      mstore\n        /* \"#utility.yul\":5140:5159   */\n      0x84\n      add\n        /* \"Contracts/MoonV1Thing.sol\":3967:4097  require(... */\n      tag_116\n        /* \"#utility.yul\":4768:5165   */\n      jump\n        /* \"Contracts/MoonV1Thing.sol\":3967:4097  require(... */\n    tag_146:\n      sub(shl(0xa0, 0x01), 0x01)\n        /* \"Contracts/MoonV1Thing.sol\":4146:4176  gateSTThingsList[_gateaddress] */\n      swap1\n      dup2\n      and\n      0x00\n      swap1\n      dup2\n      mstore\n        /* \"Contracts/MoonV1Thing.sol\":4146:4162  gateSTThingsList */\n      0x01\n        /* \"Contracts/MoonV1Thing.sol\":4146:4176  gateSTThingsList[_gateaddress] */\n      0x20\n      swap1\n      dup2\n      mstore\n      0x40\n      dup1\n      dup4\n      keccak256\n        /* \"Contracts/MoonV1Thing.sol\":4146:4216  gateSTThingsList[_gateaddress][... */\n      swap5\n      dup5\n      and\n      dup4\n      mstore\n      dup5\n      dup3\n      mstore\n      dup1\n      dup4\n      keccak256\n      dup1\n      sload\n        /* \"Contracts/MoonV1Thing.sol\":4107:4143  marketSTThingsList[_contractaddress] */\n      dup5\n      dup5\n      mstore\n      swap2\n      swap1\n      swap4\n      keccak256\n        /* \"Contracts/MoonV1Thing.sol\":4107:4216  marketSTThingsList[_contractaddress] = gateSTThingsList[_gateaddress][... */\n      dup1\n      sload\n        /* \"Contracts/MoonV1Thing.sol\":4146:4216  gateSTThingsList[_gateaddress][... */\n      swap2\n      swap1\n      swap5\n      and\n      not(0xffffffffffffffffffffffffffffffffffffffff)\n        /* \"Contracts/MoonV1Thing.sol\":4107:4216  marketSTThingsList[_contractaddress] = gateSTThingsList[_gateaddress][... */\n      swap2\n      dup3\n      and\n      or\n      swap1\n      swap4\n      sstore\n        /* \"Contracts/MoonV1Thing.sol\":4234:4282  gateSTThingsList[_gateaddress][_contractaddress] */\n      swap3\n      swap1\n      swap3\n      mstore\n        /* \"Contracts/MoonV1Thing.sol\":4227:4282  delete gateSTThingsList[_gateaddress][_contractaddress] */\n      dup2\n      sload\n      and\n      swap1\n      sstore\n        /* \"Contracts/MoonV1Thing.sol\":3677:4289  function impoveGateSTThingsbyMarketor(... */\n      jump\t// out\n        /* \"Contracts/MoonV1Thing.sol\":4635:4984  function delGateSTThingsbyMarketor(... */\n    tag_55:\n        /* \"Contracts/MoonV1Thing.sol\":1409:1432  marketorContractAddress */\n      0x04\n      dup1\n      sload\n        /* \"Contracts/MoonV1Thing.sol\":1395:1451  MoonV1Manager(marketorContractAddress).ismarketManager() */\n      0x40\n      dup1\n      mload\n      shl(0xe1, 0x0a43f929)\n      dup2\n      mstore\n      swap1\n      mload\n      sub(shl(0xa0, 0x01), 0x01)\n        /* \"Contracts/MoonV1Thing.sol\":1409:1432  marketorContractAddress */\n      swap1\n      swap3\n      and\n      swap3\n        /* \"Contracts/MoonV1Thing.sol\":1395:1449  MoonV1Manager(marketorContractAddress).ismarketManager */\n      0x1487f252\n      swap3\n        /* \"Contracts/MoonV1Thing.sol\":1395:1451  MoonV1Manager(marketorContractAddress).ismarketManager() */\n      dup3\n      dup3\n      add\n      swap3\n      0x20\n      swap3\n      swap1\n      dup3\n      swap1\n      sub\n      add\n      dup2\n        /* \"Contracts/MoonV1Thing.sol\":1409:1432  marketorContractAddress */\n      dup7\n        /* \"Contracts/MoonV1Thing.sol\":1395:1451  MoonV1Manager(marketorContractAddress).ismarketManager() */\n      dup1\n      extcodesize\n      iszero\n      dup1\n      iszero\n      tag_150\n      jumpi\n      0x00\n      dup1\n      revert\n    tag_150:\n      pop\n      gas\n      staticcall\n      iszero\n      dup1\n      iszero\n      tag_152\n      jumpi\n      returndatasize\n      0x00\n      dup1\n      returndatacopy\n      revert(0x00, returndatasize)\n    tag_152:\n      pop\n      pop\n      pop\n      pop\n      mload(0x40)\n      returndatasize\n      not(0x1f)\n      0x1f\n      dup3\n      add\n      and\n      dup3\n      add\n      dup1\n      0x40\n      mstore\n      pop\n      dup2\n      add\n      swap1\n      tag_153\n      swap2\n      swap1\n      tag_128\n      jump\t// in\n    tag_153:\n        /* \"Contracts/MoonV1Thing.sol\":1395:1459  MoonV1Manager(marketorContractAddress).ismarketManager() == true */\n      iszero\n      iszero\n        /* \"Contracts/MoonV1Thing.sol\":1455:1459  true */\n      0x01\n        /* \"Contracts/MoonV1Thing.sol\":1395:1459  MoonV1Manager(marketorContractAddress).ismarketManager() == true */\n      eq\n        /* \"Contracts/MoonV1Thing.sol\":1374:1469  require(... */\n      tag_154\n      jumpi\n      0x00\n      dup1\n      revert\n    tag_154:\n      sub(shl(0xa0, 0x01), 0x01)\n        /* \"Contracts/MoonV1Thing.sol\":4798:4828  gateSTThingsList[_gateaddress] */\n      dup2\n      dup2\n      and\n        /* \"Contracts/MoonV1Thing.sol\":4858:4859  0 */\n      0x00\n        /* \"Contracts/MoonV1Thing.sol\":4798:4828  gateSTThingsList[_gateaddress] */\n      swap1\n      dup2\n      mstore\n        /* \"Contracts/MoonV1Thing.sol\":4798:4814  gateSTThingsList */\n      0x01\n        /* \"Contracts/MoonV1Thing.sol\":4798:4828  gateSTThingsList[_gateaddress] */\n      0x20\n      swap1\n      dup2\n      mstore\n      0x40\n      dup1\n      dup4\n      keccak256\n        /* \"Contracts/MoonV1Thing.sol\":4798:4846  gateSTThingsList[_gateaddress][_contractaddress] */\n      dup7\n      dup6\n      and\n      dup5\n      mstore\n      swap1\n      swap2\n      mstore\n      swap1\n      keccak256\n      sload\n      and\n        /* \"Contracts/MoonV1Thing.sol\":4798:4860  gateSTThingsList[_gateaddress][_contractaddress] == address(0) */\n      iszero\n        /* \"Contracts/MoonV1Thing.sol\":4777:4912  require(... */\n      tag_156\n      jumpi\n      mload(0x40)\n      shl(0xe5, 0x461bcd)\n      dup2\n      mstore\n        /* \"#utility.yul\":5723:5725   */\n      0x20\n        /* \"Contracts/MoonV1Thing.sol\":4777:4912  require(... */\n      0x04\n      dup3\n      add\n        /* \"#utility.yul\":5705:5726   */\n      mstore\n        /* \"#utility.yul\":5762:5764   */\n      0x1a\n        /* \"#utility.yul\":5742:5760   */\n      0x24\n      dup3\n      add\n        /* \"#utility.yul\":5735:5765   */\n      mstore\n        /* \"#utility.yul\":5801:5829   */\n      0x7468652053545468696e6773206973206e6f7420657869737473000000000000\n        /* \"#utility.yul\":5781:5799   */\n      0x44\n      dup3\n      add\n        /* \"#utility.yul\":5774:5830   */\n      mstore\n        /* \"#utility.yul\":5847:5865   */\n      0x64\n      add\n        /* \"Contracts/MoonV1Thing.sol\":4777:4912  require(... */\n      tag_116\n        /* \"#utility.yul\":5521:5871   */\n      jump\n        /* \"Contracts/MoonV1Thing.sol\":4777:4912  require(... */\n    tag_156:\n      sub(shl(0xa0, 0x01), 0x01)\n        /* \"Contracts/MoonV1Thing.sol\":4929:4959  gateSTThingsList[_gateaddress] */\n      swap1\n      dup2\n      and\n      0x00\n      swap1\n      dup2\n      mstore\n        /* \"Contracts/MoonV1Thing.sol\":4929:4945  gateSTThingsList */\n      0x01\n        /* \"Contracts/MoonV1Thing.sol\":4929:4959  gateSTThingsList[_gateaddress] */\n      0x20\n      swap1\n      dup2\n      mstore\n      0x40\n      dup1\n      dup4\n      keccak256\n        /* \"Contracts/MoonV1Thing.sol\":4929:4977  gateSTThingsList[_gateaddress][_contractaddress] */\n      swap5\n      swap1\n      swap4\n      and\n      dup3\n      mstore\n      swap3\n      swap1\n      swap3\n      mstore\n      swap1\n      keccak256\n        /* \"Contracts/MoonV1Thing.sol\":4922:4977  delete gateSTThingsList[_gateaddress][_contractaddress] */\n      dup1\n      sload\n      not(0xffffffffffffffffffffffffffffffffffffffff)\n      and\n      swap1\n      sstore\n        /* \"Contracts/MoonV1Thing.sol\":4635:4984  function delGateSTThingsbyMarketor(... */\n      jump\t// out\n        /* \"Contracts/MoonV1Thing.sol\":2553:2759  function changeSTThingsScopebyMarketor(... */\n    tag_66:\n        /* \"Contracts/MoonV1Thing.sol\":1409:1432  marketorContractAddress */\n      0x04\n      dup1\n      sload\n        /* \"Contracts/MoonV1Thing.sol\":1395:1451  MoonV1Manager(marketorContractAddress).ismarketManager() */\n      0x40\n      dup1\n      mload\n      shl(0xe1, 0x0a43f929)\n      dup2\n      mstore\n      swap1\n      mload\n      sub(shl(0xa0, 0x01), 0x01)\n        /* \"Contracts/MoonV1Thing.sol\":1409:1432  marketorContractAddress */\n      swap1\n      swap3\n      and\n      swap3\n        /* \"Contracts/MoonV1Thing.sol\":1395:1449  MoonV1Manager(marketorContractAddress).ismarketManager */\n      0x1487f252\n      swap3\n        /* \"Contracts/MoonV1Thing.sol\":1395:1451  MoonV1Manager(marketorContractAddress).ismarketManager() */\n      dup3\n      dup3\n      add\n      swap3\n      0x20\n      swap3\n      swap1\n      dup3\n      swap1\n      sub\n      add\n      dup2\n        /* \"Contracts/MoonV1Thing.sol\":1409:1432  marketorContractAddress */\n      dup7\n        /* \"Contracts/MoonV1Thing.sol\":1395:1451  MoonV1Manager(marketorContractAddress).ismarketManager() */\n      dup1\n      extcodesize\n      iszero\n      dup1\n      iszero\n      tag_159\n      jumpi\n      0x00\n      dup1\n      revert\n    tag_159:\n      pop\n      gas\n      staticcall\n      iszero\n      dup1\n      iszero\n      tag_161\n      jumpi\n      returndatasize\n      0x00\n      dup1\n      returndatacopy\n      revert(0x00, returndatasize)\n    tag_161:\n      pop\n      pop\n      pop\n      pop\n      mload(0x40)\n      returndatasize\n      not(0x1f)\n      0x1f\n      dup3\n      add\n      and\n      dup3\n      add\n      dup1\n      0x40\n      mstore\n      pop\n      dup2\n      add\n      swap1\n      tag_162\n      swap2\n      swap1\n      tag_128\n      jump\t// in\n    tag_162:\n        /* \"Contracts/MoonV1Thing.sol\":1395:1459  MoonV1Manager(marketorContractAddress).ismarketManager() == true */\n      iszero\n      iszero\n        /* \"Contracts/MoonV1Thing.sol\":1455:1459  true */\n      0x01\n        /* \"Contracts/MoonV1Thing.sol\":1395:1459  MoonV1Manager(marketorContractAddress).ismarketManager() == true */\n      eq\n        /* \"Contracts/MoonV1Thing.sol\":1374:1469  require(... */\n      tag_163\n      jumpi\n      0x00\n      dup1\n      revert\n    tag_163:\n      sub(shl(0xa0, 0x01), 0x01)\n        /* \"Contracts/MoonV1Thing.sol\":2699:2737  STThingsList[_internalSTThingsAddress] */\n      swap2\n      swap1\n      swap2\n      and\n      0x00\n      swap1\n      dup2\n      mstore\n        /* \"Contracts/MoonV1Thing.sol\":2699:2711  STThingsList */\n      0x02\n        /* \"Contracts/MoonV1Thing.sol\":2699:2737  STThingsList[_internalSTThingsAddress] */\n      0x20\n      mstore\n      0x40\n      swap1\n      keccak256\n        /* \"Contracts/MoonV1Thing.sol\":2699:2743  STThingsList[_internalSTThingsAddress].scope */\n      0x03\n      add\n        /* \"Contracts/MoonV1Thing.sol\":2699:2752  STThingsList[_internalSTThingsAddress].scope = _scope */\n      dup1\n      sload\n      0xffffffffffffffffffffffffffffffffffffffffffffffffffffffffffffff00\n      and\n      0xff\n      swap1\n      swap3\n      and\n      swap2\n      swap1\n      swap2\n      or\n      swap1\n      sstore\n        /* \"Contracts/MoonV1Thing.sol\":2553:2759  function changeSTThingsScopebyMarketor(... */\n      jump\t// out\n        /* \"Contracts/MoonV1Thing.sol\":6971:7429  function unlockGateSTThingsbyCreater(... */\n    tag_69:\n      sub(shl(0xa0, 0x01), 0x01)\n        /* \"Contracts/MoonV1Thing.sol\":7126:7164  STThingsList[_internalSTThingsAddress] */\n      dup3\n      dup2\n      and\n      0x00\n      swap1\n      dup2\n      mstore\n        /* \"Contracts/MoonV1Thing.sol\":7126:7138  STThingsList */\n      0x02\n        /* \"Contracts/MoonV1Thing.sol\":7126:7164  STThingsList[_internalSTThingsAddress] */\n      0x20\n      mstore\n      0x40\n      swap1\n      keccak256\n        /* \"Contracts/MoonV1Thing.sol\":7126:7172  STThingsList[_internalSTThingsAddress].creator */\n      0x05\n      add\n      sload\n      and\n        /* \"Contracts/MoonV1Thing.sol\":7176:7186  msg.sender */\n      caller\n        /* \"Contracts/MoonV1Thing.sol\":7126:7186  STThingsList[_internalSTThingsAddress].creator == msg.sender */\n      eq\n        /* \"Contracts/MoonV1Thing.sol\":7126:7292  STThingsList[_internalSTThingsAddress].creator == msg.sender &&... */\n      dup1\n      iszero\n      tag_166\n      jumpi\n      pop\n      sub(shl(0xa0, 0x01), 0x01)\n        /* \"Contracts/MoonV1Thing.sol\":7206:7236  gateSTThingsList[_gateaddress] */\n      dup2\n      dup2\n      and\n        /* \"Contracts/MoonV1Thing.sol\":7290:7291  0 */\n      0x00\n        /* \"Contracts/MoonV1Thing.sol\":7206:7236  gateSTThingsList[_gateaddress] */\n      swap1\n      dup2\n      mstore\n        /* \"Contracts/MoonV1Thing.sol\":7206:7222  gateSTThingsList */\n      0x01\n        /* \"Contracts/MoonV1Thing.sol\":7206:7236  gateSTThingsList[_gateaddress] */\n      0x20\n      swap1\n      dup2\n      mstore\n      0x40\n      dup1\n      dup4\n      keccak256\n        /* \"Contracts/MoonV1Thing.sol\":7206:7262  gateSTThingsList[_gateaddress][_internalSTThingsAddress] */\n      dup7\n      dup6\n      and\n      dup5\n      mstore\n      swap1\n      swap2\n      mstore\n      swap1\n      keccak256\n      sload\n      and\n        /* \"Contracts/MoonV1Thing.sol\":7206:7292  gateSTThingsList[_gateaddress][_internalSTThingsAddress] ==... */\n      iszero\n        /* \"Contracts/MoonV1Thing.sol\":7126:7292  STThingsList[_internalSTThingsAddress].creator == msg.sender &&... */\n    tag_166:\n        /* \"Contracts/MoonV1Thing.sol\":7105:7353  require(... */\n      tag_167\n      jumpi\n      mload(0x40)\n      shl(0xe5, 0x461bcd)\n      dup2\n      mstore\n        /* \"#utility.yul\":6078:6080   */\n      0x20\n        /* \"Contracts/MoonV1Thing.sol\":7105:7353  require(... */\n      0x04\n      dup3\n      add\n        /* \"#utility.yul\":6060:6081   */\n      mstore\n        /* \"#utility.yul\":6117:6119   */\n      0x23\n        /* \"#utility.yul\":6097:6115   */\n      0x24\n      dup3\n      add\n        /* \"#utility.yul\":6090:6120   */\n      mstore\n        /* \"#utility.yul\":6156:6190   */\n      0x796f752068617665206e6f74207468652070726976696c65676573206f662074\n        /* \"#utility.yul\":6136:6154   */\n      0x44\n      dup3\n      add\n        /* \"#utility.yul\":6129:6191   */\n      mstore\n        /* \"#utility.yul\":6227:6232   */\n      0x6869730000000000000000000000000000000000000000000000000000000000\n        /* \"#utility.yul\":6207:6225   */\n      0x64\n      dup3\n      add\n        /* \"#utility.yul\":6200:6233   */\n      mstore\n        /* \"#utility.yul\":6250:6269   */\n      0x84\n      add\n        /* \"Contracts/MoonV1Thing.sol\":7105:7353  require(... */\n      tag_116\n        /* \"#utility.yul\":5876:6275   */\n      jump\n        /* \"Contracts/MoonV1Thing.sol\":7105:7353  require(... */\n    tag_167:\n      pop\n      sub(shl(0xa0, 0x01), 0x01)\n        /* \"Contracts/MoonV1Thing.sol\":7363:7401  STThingsList[_internalSTThingsAddress] */\n      and\n      0x00\n      swap1\n      dup2\n      mstore\n        /* \"Contracts/MoonV1Thing.sol\":7363:7375  STThingsList */\n      0x02\n        /* \"Contracts/MoonV1Thing.sol\":7363:7401  STThingsList[_internalSTThingsAddress] */\n      0x20\n      mstore\n      0x40\n      swap1\n      keccak256\n        /* \"Contracts/MoonV1Thing.sol\":7363:7415  STThingsList[_internalSTThingsAddress].createrunlock */\n      0x03\n      add\n        /* \"Contracts/MoonV1Thing.sol\":7363:7422  STThingsList[_internalSTThingsAddress].createrunlock = true */\n      dup1\n      sload\n      0xffffffffffffffff00ffffffffffffffffffffffffffffffffffffffffffffff\n      and\n      shl(0xb8, 0x01)\n      or\n      swap1\n      sstore\n        /* \"Contracts/MoonV1Thing.sol\":6971:7429  function unlockGateSTThingsbyCreater(... */\n      jump\t// out\n        /* \"Contracts/MoonV1Thing.sol\":5448:5764  function lockSTThingsbyGator(address _internalSTThingsAddress)... */\n    tag_76:\n        /* \"Contracts/MoonV1Thing.sol\":1275:1294  gateContractAddress */\n      0x03\n      0x00\n      swap1\n      sload\n      swap1\n      0x0100\n      exp\n      swap1\n      div\n      sub(shl(0xa0, 0x01), 0x01)\n      and\n      sub(shl(0xa0, 0x01), 0x01)\n        /* \"Contracts/MoonV1Thing.sol\":1263:1308  MoonV1Gater(gateContractAddress).isValidGater */\n      and\n      0xab3acb5c\n        /* \"Contracts/MoonV1Thing.sol\":1263:1310  MoonV1Gater(gateContractAddress).isValidGater() */\n      mload(0x40)\n      dup2\n      0xffffffff\n      and\n      0xe0\n      shl\n      dup2\n      mstore\n      0x04\n      add\n      0x20\n      mload(0x40)\n      dup1\n      dup4\n      sub\n      dup2\n      dup7\n      dup1\n      extcodesize\n      iszero\n      dup1\n      iszero\n      tag_170\n      jumpi\n      0x00\n      dup1\n      revert\n    tag_170:\n      pop\n      gas\n      staticcall\n      iszero\n      dup1\n      iszero\n      tag_172\n      jumpi\n      returndatasize\n      0x00\n      dup1\n      returndatacopy\n      revert(0x00, returndatasize)\n    tag_172:\n      pop\n      pop\n      pop\n      pop\n      mload(0x40)\n      returndatasize\n      not(0x1f)\n      0x1f\n      dup3\n      add\n      and\n      dup3\n      add\n      dup1\n      0x40\n      mstore\n      pop\n      dup2\n      add\n      swap1\n      tag_173\n      swap2\n      swap1\n      tag_128\n      jump\t// in\n    tag_173:\n        /* \"Contracts/MoonV1Thing.sol\":1255:1311  require(MoonV1Gater(gateContractAddress).isValidGater()) */\n      tag_174\n      jumpi\n      0x00\n      dup1\n      revert\n    tag_174:\n      sub(shl(0xa0, 0x01), 0x01)\n        /* \"Contracts/MoonV1Thing.sol\":5581:5619  STThingsList[_internalSTThingsAddress] */\n      dup2\n      dup2\n      and\n      0x00\n      swap1\n      dup2\n      mstore\n        /* \"Contracts/MoonV1Thing.sol\":5581:5593  STThingsList */\n      0x02\n        /* \"Contracts/MoonV1Thing.sol\":5581:5619  STThingsList[_internalSTThingsAddress] */\n      0x20\n      mstore\n      0x40\n      swap1\n      keccak256\n        /* \"Contracts/MoonV1Thing.sol\":5581:5632  STThingsList[_internalSTThingsAddress].addfromgater */\n      0x04\n      add\n      sload\n      and\n        /* \"Contracts/MoonV1Thing.sol\":5636:5646  msg.sender */\n      caller\n        /* \"Contracts/MoonV1Thing.sol\":5581:5646  STThingsList[_internalSTThingsAddress].addfromgater == msg.sender */\n      eq\n        /* \"Contracts/MoonV1Thing.sol\":5560:5694  require(... */\n      tag_176\n      jumpi\n      mload(0x40)\n      shl(0xe5, 0x461bcd)\n      dup2\n      mstore\n        /* \"#utility.yul\":5372:5374   */\n      0x20\n        /* \"Contracts/MoonV1Thing.sol\":5560:5694  require(... */\n      0x04\n      dup3\n      add\n        /* \"#utility.yul\":5354:5375   */\n      mstore\n        /* \"#utility.yul\":5411:5413   */\n      0x16\n        /* \"#utility.yul\":5391:5409   */\n      0x24\n      dup3\n      add\n        /* \"#utility.yul\":5384:5414   */\n      mstore\n        /* \"#utility.yul\":5450:5474   */\n      0x796f752068617665206e6f742074686520726967687400000000000000000000\n        /* \"#utility.yul\":5430:5448   */\n      0x44\n      dup3\n      add\n        /* \"#utility.yul\":5423:5475   */\n      mstore\n        /* \"#utility.yul\":5492:5510   */\n      0x64\n      add\n        /* \"Contracts/MoonV1Thing.sol\":5560:5694  require(... */\n      tag_116\n        /* \"#utility.yul\":5170:5516   */\n      jump\n        /* \"Contracts/MoonV1Thing.sol\":5560:5694  require(... */\n    tag_176:\n      sub(shl(0xa0, 0x01), 0x01)\n        /* \"Contracts/MoonV1Thing.sol\":5704:5742  STThingsList[_internalSTThingsAddress] */\n      and\n        /* \"Contracts/MoonV1Thing.sol\":5752:5757  false */\n      0x00\n        /* \"Contracts/MoonV1Thing.sol\":5704:5742  STThingsList[_internalSTThingsAddress] */\n      swap1\n      dup2\n      mstore\n        /* \"Contracts/MoonV1Thing.sol\":5704:5716  STThingsList */\n      0x02\n        /* \"Contracts/MoonV1Thing.sol\":5704:5742  STThingsList[_internalSTThingsAddress] */\n      0x20\n      mstore\n      0x40\n      swap1\n      keccak256\n        /* \"Contracts/MoonV1Thing.sol\":5704:5749  STThingsList[_internalSTThingsAddress].unlock */\n      0x03\n      add\n        /* \"Contracts/MoonV1Thing.sol\":5704:5757  STThingsList[_internalSTThingsAddress].unlock = false */\n      dup1\n      sload\n      not(shl(0xb0, 0xff))\n      and\n      swap1\n      sstore\n        /* \"Contracts/MoonV1Thing.sol\":5448:5764  function lockSTThingsbyGator(address _internalSTThingsAddress)... */\n      jump\t// out\n        /* \"Contracts/MoonV1Thing.sol\":8273:9108  function updateGateSTThingsbyCreator(... */\n    tag_80:\n        /* \"Contracts/MoonV1Thing.sol\":8444:8473  _STThingsInfo.contractAddress */\n      0x80\n      dup3\n      add\n      mload\n      sub(shl(0xa0, 0x01), 0x01)\n        /* \"Contracts/MoonV1Thing.sol\":8431:8474  STThingsList[_STThingsInfo.contractAddress] */\n      and\n      0x00\n      swap1\n      dup2\n      mstore\n        /* \"Contracts/MoonV1Thing.sol\":8431:8443  STThingsList */\n      0x02\n        /* \"Contracts/MoonV1Thing.sol\":8431:8474  STThingsList[_STThingsInfo.contractAddress] */\n      0x20\n      mstore\n      0x40\n      swap1\n      keccak256\n        /* \"Contracts/MoonV1Thing.sol\":8431:8481  STThingsList[_STThingsInfo.contractAddress].isUsed */\n      0x03\n      add\n      sload\n      shl(0xc0, 0x01)\n      swap1\n      div\n      0xff\n      and\n        /* \"Contracts/MoonV1Thing.sol\":8431:8489  STThingsList[_STThingsInfo.contractAddress].isUsed != true */\n      iszero\n      iszero\n        /* \"Contracts/MoonV1Thing.sol\":8485:8489  true */\n      0x01\n        /* \"Contracts/MoonV1Thing.sol\":8431:8489  STThingsList[_STThingsInfo.contractAddress].isUsed != true */\n      eq\n      dup1\n      iszero\n      swap1\n        /* \"Contracts/MoonV1Thing.sol\":8431:8600  STThingsList[_STThingsInfo.contractAddress].isUsed != true &&... */\n      tag_179\n      jumpi\n      pop\n      sub(shl(0xa0, 0x01), 0x01)\n        /* \"Contracts/MoonV1Thing.sol\":8509:8539  gateSTThingsList[_gateaddress] */\n      dup2\n      dup2\n      and\n        /* \"Contracts/MoonV1Thing.sol\":8598:8599  0 */\n      0x00\n        /* \"Contracts/MoonV1Thing.sol\":8509:8539  gateSTThingsList[_gateaddress] */\n      swap1\n      dup2\n      mstore\n        /* \"Contracts/MoonV1Thing.sol\":8509:8525  gateSTThingsList */\n      0x01\n        /* \"Contracts/MoonV1Thing.sol\":8509:8539  gateSTThingsList[_gateaddress] */\n      0x20\n      swap1\n      dup2\n      mstore\n      0x40\n      dup1\n      dup4\n      keccak256\n        /* \"Contracts/MoonV1Thing.sol\":8540:8569  _STThingsInfo.contractAddress */\n      0x80\n      dup8\n      add\n      mload\n        /* \"Contracts/MoonV1Thing.sol\":8509:8570  gateSTThingsList[_gateaddress][_STThingsInfo.contractAddress] */\n      dup6\n      and\n      dup5\n      mstore\n      swap1\n      swap2\n      mstore\n      swap1\n      keccak256\n      sload\n      and\n        /* \"Contracts/MoonV1Thing.sol\":8509:8600  gateSTThingsList[_gateaddress][_STThingsInfo.contractAddress] ==... */\n      iszero\n        /* \"Contracts/MoonV1Thing.sol\":8431:8600  STThingsList[_STThingsInfo.contractAddress].isUsed != true &&... */\n    tag_179:\n        /* \"Contracts/MoonV1Thing.sol\":8410:8648  require(... */\n      tag_180\n      jumpi\n      mload(0x40)\n      shl(0xe5, 0x461bcd)\n      dup2\n      mstore\n        /* \"#utility.yul\":5372:5374   */\n      0x20\n        /* \"Contracts/MoonV1Thing.sol\":8410:8648  require(... */\n      0x04\n      dup3\n      add\n        /* \"#utility.yul\":5354:5375   */\n      mstore\n        /* \"#utility.yul\":5411:5413   */\n      0x16\n        /* \"#utility.yul\":5391:5409   */\n      0x24\n      dup3\n      add\n        /* \"#utility.yul\":5384:5414   */\n      mstore\n        /* \"#utility.yul\":5450:5474   */\n      0x796f752068617665206e6f742074686520726967687400000000000000000000\n        /* \"#utility.yul\":5430:5448   */\n      0x44\n      dup3\n      add\n        /* \"#utility.yul\":5423:5475   */\n      mstore\n        /* \"#utility.yul\":5492:5510   */\n      0x64\n      add\n        /* \"Contracts/MoonV1Thing.sol\":8410:8648  require(... */\n      tag_116\n        /* \"#utility.yul\":5170:5516   */\n      jump\n        /* \"Contracts/MoonV1Thing.sol\":8410:8648  require(... */\n    tag_180:\n        /* \"Contracts/MoonV1Thing.sol\":8688:8693  false */\n      0x00\n        /* \"Contracts/MoonV1Thing.sol\":8659:8672  _STThingsInfo */\n      dup3\n        /* \"Contracts/MoonV1Thing.sol\":8659:8685  _STThingsInfo.marketunlock */\n      0xa0\n      add\n        /* \"Contracts/MoonV1Thing.sol\":8659:8693  _STThingsInfo.marketunlock = false */\n      swap1\n      iszero\n      iszero\n      swap1\n      dup2\n      iszero\n      iszero\n      dup2\n      mstore\n      pop\n      pop\n        /* \"Contracts/MoonV1Thing.sol\":8726:8730  true */\n      0x01\n        /* \"Contracts/MoonV1Thing.sol\":8703:8716  _STThingsInfo */\n      dup3\n        /* \"Contracts/MoonV1Thing.sol\":8703:8723  _STThingsInfo.unlock */\n      0xc0\n      add\n        /* \"Contracts/MoonV1Thing.sol\":8703:8730  _STThingsInfo.unlock = true */\n      swap1\n      iszero\n      iszero\n      swap1\n      dup2\n      iszero\n      iszero\n      dup2\n      mstore\n      pop\n      pop\n        /* \"Contracts/MoonV1Thing.sol\":8770:8775  false */\n      0x00\n        /* \"Contracts/MoonV1Thing.sol\":8740:8753  _STThingsInfo */\n      dup3\n        /* \"Contracts/MoonV1Thing.sol\":8740:8767  _STThingsInfo.createrunlock */\n      0xe0\n      add\n        /* \"Contracts/MoonV1Thing.sol\":8740:8775  _STThingsInfo.createrunlock = false */\n      swap1\n      iszero\n      iszero\n      swap1\n      dup2\n      iszero\n      iszero\n      dup2\n      mstore\n      pop\n      pop\n        /* \"Contracts/MoonV1Thing.sol\":8808:8812  true */\n      0x01\n        /* \"Contracts/MoonV1Thing.sol\":8785:8798  _STThingsInfo */\n      dup3\n        /* \"Contracts/MoonV1Thing.sol\":8785:8805  _STThingsInfo.isUsed */\n      0x0100\n      add\n        /* \"Contracts/MoonV1Thing.sol\":8785:8812  _STThingsInfo.isUsed = true */\n      swap1\n      iszero\n      iszero\n      swap1\n      dup2\n      iszero\n      iszero\n      dup2\n      mstore\n      pop\n      pop\n        /* \"Contracts/MoonV1Thing.sol\":8851:8863  _gateaddress */\n      dup1\n        /* \"Contracts/MoonV1Thing.sol\":8822:8835  _STThingsInfo */\n      dup3\n        /* \"Contracts/MoonV1Thing.sol\":8822:8848  _STThingsInfo.addfromgater */\n      0x0120\n      add\n        /* \"Contracts/MoonV1Thing.sol\":8822:8863  _STThingsInfo.addfromgater = _gateaddress */\n      swap1\n      sub(shl(0xa0, 0x01), 0x01)\n      and\n      swap1\n      dup2\n      sub(shl(0xa0, 0x01), 0x01)\n      and\n      dup2\n      mstore\n      pop\n      pop\n        /* \"Contracts/MoonV1Thing.sol\":8897:8907  msg.sender */\n      caller\n        /* \"Contracts/MoonV1Thing.sol\":8873:8886  _STThingsInfo */\n      dup3\n        /* \"Contracts/MoonV1Thing.sol\":8873:8894  _STThingsInfo.creator */\n      0x0140\n      add\n        /* \"Contracts/MoonV1Thing.sol\":8873:8907  _STThingsInfo.creator = msg.sender */\n      swap1\n      sub(shl(0xa0, 0x01), 0x01)\n      and\n      swap1\n      dup2\n      sub(shl(0xa0, 0x01), 0x01)\n      and\n      dup2\n      mstore\n      pop\n      pop\n        /* \"Contracts/MoonV1Thing.sol\":8963:8976  _STThingsInfo */\n      dup2\n        /* \"Contracts/MoonV1Thing.sol\":8917:8929  STThingsList */\n      0x02\n        /* \"Contracts/MoonV1Thing.sol\":8917:8960  STThingsList[_STThingsInfo.contractAddress] */\n      0x00\n        /* \"Contracts/MoonV1Thing.sol\":8930:8943  _STThingsInfo */\n      dup5\n        /* \"Contracts/MoonV1Thing.sol\":8930:8959  _STThingsInfo.contractAddress */\n      0x80\n      add\n      mload\n      sub(shl(0xa0, 0x01), 0x01)\n        /* \"Contracts/MoonV1Thing.sol\":8917:8960  STThingsList[_STThingsInfo.contractAddress] */\n      and\n      sub(shl(0xa0, 0x01), 0x01)\n      and\n      dup2\n      mstore\n      0x20\n      add\n      swap1\n      dup2\n      mstore\n      0x20\n      add\n      0x00\n      keccak256\n        /* \"Contracts/MoonV1Thing.sol\":8917:8976  STThingsList[_STThingsInfo.contractAddress] = _STThingsInfo */\n      0x00\n      dup3\n      add\n      mload\n      dup2\n      0x00\n      add\n      sstore\n      0x20\n      dup3\n      add\n      mload\n      dup2\n      0x01\n      add\n      exp(0x0100, 0x00)\n      dup2\n      sload\n      dup2\n      sub(shl(0xa0, 0x01), 0x01)\n      mul\n      not\n      and\n      swap1\n      dup4\n      sub(shl(0xa0, 0x01), 0x01)\n      and\n      mul\n      or\n      swap1\n      sstore\n      pop\n      0x40\n      dup3\n      add\n      mload\n      dup2\n      0x02\n      add\n      sstore\n      0x60\n      dup3\n      add\n      mload\n      dup2\n      0x03\n      add\n      exp(0x0100, 0x00)\n      dup2\n      sload\n      dup2\n      0xff\n      mul\n      not\n      and\n      swap1\n      dup4\n      0xff\n      and\n      mul\n      or\n      swap1\n      sstore\n      pop\n      0x80\n      dup3\n      add\n      mload\n      dup2\n      0x03\n      add\n      exp(0x0100, 0x01)\n      dup2\n      sload\n      dup2\n      sub(shl(0xa0, 0x01), 0x01)\n      mul\n      not\n      and\n      swap1\n      dup4\n      sub(shl(0xa0, 0x01), 0x01)\n      and\n      mul\n      or\n      swap1\n      sstore\n      pop\n      0xa0\n      dup3\n      add\n      mload\n      dup2\n      0x03\n      add\n      exp(0x0100, 0x15)\n      dup2\n      sload\n      dup2\n      0xff\n      mul\n      not\n      and\n      swap1\n      dup4\n      iszero\n      iszero\n      mul\n      or\n      swap1\n      sstore\n      pop\n      0xc0\n      dup3\n      add\n      mload\n      dup2\n      0x03\n      add\n      exp(0x0100, 0x16)\n      dup2\n      sload\n      dup2\n      0xff\n      mul\n      not\n      and\n      swap1\n      dup4\n      iszero\n      iszero\n      mul\n      or\n      swap1\n      sstore\n      pop\n      0xe0\n      dup3\n      add\n      mload\n      dup2\n      0x03\n      add\n      exp(0x0100, 0x17)\n      dup2\n      sload\n      dup2\n      0xff\n      mul\n      not\n      and\n      swap1\n      dup4\n      iszero\n      iszero\n      mul\n      or\n      swap1\n      sstore\n      pop\n      0x0100\n      dup3\n      add\n      mload\n      dup2\n      0x03\n      add\n      exp(0x0100, 0x18)\n      dup2\n      sload\n      dup2\n      0xff\n      mul\n      not\n      and\n      swap1\n      dup4\n      iszero\n      iszero\n      mul\n      or\n      swap1\n      sstore\n      pop\n      0x0120\n      dup3\n      add\n      mload\n      dup2\n      0x04\n      add\n      exp(0x0100, 0x00)\n      dup2\n      sload\n      dup2\n      sub(shl(0xa0, 0x01), 0x01)\n      mul\n      not\n      and\n      swap1\n      dup4\n      sub(shl(0xa0, 0x01), 0x01)\n      and\n      mul\n      or\n      swap1\n      sstore\n      pop\n      0x0140\n      dup3\n      add\n      mload\n      dup2\n      0x05\n      add\n      exp(0x0100, 0x00)\n      dup2\n      sload\n      dup2\n      sub(shl(0xa0, 0x01), 0x01)\n      mul\n      not\n      and\n      swap1\n      dup4\n      sub(shl(0xa0, 0x01), 0x01)\n      and\n      mul\n      or\n      swap1\n      sstore\n      pop\n      swap1\n      pop\n      pop\n        /* \"Contracts/MoonV1Thing.sol\":9072:9085  _STThingsInfo */\n      dup2\n        /* \"Contracts/MoonV1Thing.sol\":9072:9101  _STThingsInfo.contractAddress */\n      0x80\n      add\n      mload\n        /* \"Contracts/MoonV1Thing.sol\":8986:9002  gateSTThingsList */\n      0x01\n        /* \"Contracts/MoonV1Thing.sol\":8986:9016  gateSTThingsList[_gateaddress] */\n      0x00\n        /* \"Contracts/MoonV1Thing.sol\":9003:9015  _gateaddress */\n      dup4\n      sub(shl(0xa0, 0x01), 0x01)\n        /* \"Contracts/MoonV1Thing.sol\":8986:9016  gateSTThingsList[_gateaddress] */\n      and\n      sub(shl(0xa0, 0x01), 0x01)\n      and\n      dup2\n      mstore\n      0x20\n      add\n      swap1\n      dup2\n      mstore\n      0x20\n      add\n      0x00\n      keccak256\n        /* \"Contracts/MoonV1Thing.sol\":8986:9069  gateSTThingsList[_gateaddress][... */\n      0x00\n        /* \"Contracts/MoonV1Thing.sol\":9030:9043  _STThingsInfo */\n      dup5\n        /* \"Contracts/MoonV1Thing.sol\":9030:9059  _STThingsInfo.contractAddress */\n      0x80\n      add\n      mload\n      sub(shl(0xa0, 0x01), 0x01)\n        /* \"Contracts/MoonV1Thing.sol\":8986:9069  gateSTThingsList[_gateaddress][... */\n      and\n      sub(shl(0xa0, 0x01), 0x01)\n      and\n      dup2\n      mstore\n      0x20\n      add\n      swap1\n      dup2\n      mstore\n      0x20\n      add\n      0x00\n      keccak256\n      0x00\n        /* \"Contracts/MoonV1Thing.sol\":8986:9101  gateSTThingsList[_gateaddress][... */\n      0x0100\n      exp\n      dup2\n      sload\n      dup2\n      sub(shl(0xa0, 0x01), 0x01)\n      mul\n      not\n      and\n      swap1\n      dup4\n      sub(shl(0xa0, 0x01), 0x01)\n      and\n      mul\n      or\n      swap1\n      sstore\n      pop\n        /* \"Contracts/MoonV1Thing.sol\":8273:9108  function updateGateSTThingsbyCreator(... */\n      pop\n      pop\n      jump\t// out\n        /* \"Contracts/MoonV1Thing.sol\":2765:2954  function lockSTThingsbyMarketor(address _internalSTThingsAddress)... */\n    tag_83:\n        /* \"Contracts/MoonV1Thing.sol\":1409:1432  marketorContractAddress */\n      0x04\n      dup1\n      sload\n        /* \"Contracts/MoonV1Thing.sol\":1395:1451  MoonV1Manager(marketorContractAddress).ismarketManager() */\n      0x40\n      dup1\n      mload\n      shl(0xe1, 0x0a43f929)\n      dup2\n      mstore\n      swap1\n      mload\n      sub(shl(0xa0, 0x01), 0x01)\n        /* \"Contracts/MoonV1Thing.sol\":1409:1432  marketorContractAddress */\n      swap1\n      swap3\n      and\n      swap3\n        /* \"Contracts/MoonV1Thing.sol\":1395:1449  MoonV1Manager(marketorContractAddress).ismarketManager */\n      0x1487f252\n      swap3\n        /* \"Contracts/MoonV1Thing.sol\":1395:1451  MoonV1Manager(marketorContractAddress).ismarketManager() */\n      dup3\n      dup3\n      add\n      swap3\n      0x20\n      swap3\n      swap1\n      dup3\n      swap1\n      sub\n      add\n      dup2\n        /* \"Contracts/MoonV1Thing.sol\":1409:1432  marketorContractAddress */\n      dup7\n        /* \"Contracts/MoonV1Thing.sol\":1395:1451  MoonV1Manager(marketorContractAddress).ismarketManager() */\n      dup1\n      extcodesize\n      iszero\n      dup1\n      iszero\n      tag_183\n      jumpi\n      0x00\n      dup1\n      revert\n    tag_183:\n      pop\n      gas\n      staticcall\n      iszero\n      dup1\n      iszero\n      tag_185\n      jumpi\n      returndatasize\n      0x00\n      dup1\n      returndatacopy\n      revert(0x00, returndatasize)\n    tag_185:\n      pop\n      pop\n      pop\n      pop\n      mload(0x40)\n      returndatasize\n      not(0x1f)\n      0x1f\n      dup3\n      add\n      and\n      dup3\n      add\n      dup1\n      0x40\n      mstore\n      pop\n      dup2\n      add\n      swap1\n      tag_186\n      swap2\n      swap1\n      tag_128\n      jump\t// in\n    tag_186:\n        /* \"Contracts/MoonV1Thing.sol\":1395:1459  MoonV1Manager(marketorContractAddress).ismarketManager() == true */\n      iszero\n      iszero\n        /* \"Contracts/MoonV1Thing.sol\":1455:1459  true */\n      0x01\n        /* \"Contracts/MoonV1Thing.sol\":1395:1459  MoonV1Manager(marketorContractAddress).ismarketManager() == true */\n      eq\n        /* \"Contracts/MoonV1Thing.sol\":1374:1469  require(... */\n      tag_187\n      jumpi\n      0x00\n      dup1\n      revert\n    tag_187:\n      sub(shl(0xa0, 0x01), 0x01)\n        /* \"Contracts/MoonV1Thing.sol\":2888:2926  STThingsList[_internalSTThingsAddress] */\n      and\n        /* \"Contracts/MoonV1Thing.sol\":2942:2947  false */\n      0x00\n        /* \"Contracts/MoonV1Thing.sol\":2888:2926  STThingsList[_internalSTThingsAddress] */\n      swap1\n      dup2\n      mstore\n        /* \"Contracts/MoonV1Thing.sol\":2888:2900  STThingsList */\n      0x02\n        /* \"Contracts/MoonV1Thing.sol\":2888:2926  STThingsList[_internalSTThingsAddress] */\n      0x20\n      mstore\n      0x40\n      swap1\n      keccak256\n        /* \"Contracts/MoonV1Thing.sol\":2888:2939  STThingsList[_internalSTThingsAddress].marketunlock */\n      0x03\n      add\n        /* \"Contracts/MoonV1Thing.sol\":2888:2947  STThingsList[_internalSTThingsAddress].marketunlock = false */\n      dup1\n      sload\n      0xffffffffffffffffffff00ffffffffffffffffffffffffffffffffffffffffff\n      and\n      swap1\n      sstore\n        /* \"Contracts/MoonV1Thing.sol\":2765:2954  function lockSTThingsbyMarketor(address _internalSTThingsAddress)... */\n      jump\t// out\n        /* \"Contracts/MoonV1Thing.sol\":1627:2547  function addSTThingsbyMarketor(LSTThings.Info memory _STThingsInfo)... */\n    tag_86:\n        /* \"Contracts/MoonV1Thing.sol\":1409:1432  marketorContractAddress */\n      0x04\n      dup1\n      sload\n        /* \"Contracts/MoonV1Thing.sol\":1395:1451  MoonV1Manager(marketorContractAddress).ismarketManager() */\n      0x40\n      dup1\n      mload\n      shl(0xe1, 0x0a43f929)\n      dup2\n      mstore\n      swap1\n      mload\n      sub(shl(0xa0, 0x01), 0x01)\n        /* \"Contracts/MoonV1Thing.sol\":1409:1432  marketorContractAddress */\n      swap1\n      swap3\n      and\n      swap3\n        /* \"Contracts/MoonV1Thing.sol\":1395:1449  MoonV1Manager(marketorContractAddress).ismarketManager */\n      0x1487f252\n      swap3\n        /* \"Contracts/MoonV1Thing.sol\":1395:1451  MoonV1Manager(marketorContractAddress).ismarketManager() */\n      dup3\n      dup3\n      add\n      swap3\n      0x20\n      swap3\n      swap1\n      dup3\n      swap1\n      sub\n      add\n      dup2\n        /* \"Contracts/MoonV1Thing.sol\":1409:1432  marketorContractAddress */\n      dup7\n        /* \"Contracts/MoonV1Thing.sol\":1395:1451  MoonV1Manager(marketorContractAddress).ismarketManager() */\n      dup1\n      extcodesize\n      iszero\n      dup1\n      iszero\n      tag_190\n      jumpi\n      0x00\n      dup1\n      revert\n    tag_190:\n      pop\n      gas\n      staticcall\n      iszero\n      dup1\n      iszero\n      tag_192\n      jumpi\n      returndatasize\n      0x00\n      dup1\n      returndatacopy\n      revert(0x00, returndatasize)\n    tag_192:\n      pop\n      pop\n      pop\n      pop\n      mload(0x40)\n      returndatasize\n      not(0x1f)\n      0x1f\n      dup3\n      add\n      and\n      dup3\n      add\n      dup1\n      0x40\n      mstore\n      pop\n      dup2\n      add\n      swap1\n      tag_193\n      swap2\n      swap1\n      tag_128\n      jump\t// in\n    tag_193:\n        /* \"Contracts/MoonV1Thing.sol\":1395:1459  MoonV1Manager(marketorContractAddress).ismarketManager() == true */\n      iszero\n      iszero\n        /* \"Contracts/MoonV1Thing.sol\":1455:1459  true */\n      0x01\n        /* \"Contracts/MoonV1Thing.sol\":1395:1459  MoonV1Manager(marketorContractAddress).ismarketManager() == true */\n      eq\n        /* \"Contracts/MoonV1Thing.sol\":1374:1469  require(... */\n      tag_194\n      jumpi\n      0x00\n      dup1\n      revert\n    tag_194:\n        /* \"Contracts/MoonV1Thing.sol\":1769:1798  _STThingsInfo.contractAddress */\n      0x80\n      dup2\n      add\n      mload\n      sub(shl(0xa0, 0x01), 0x01)\n        /* \"Contracts/MoonV1Thing.sol\":1756:1799  STThingsList[_STThingsInfo.contractAddress] */\n      and\n      0x00\n      swap1\n      dup2\n      mstore\n        /* \"Contracts/MoonV1Thing.sol\":1756:1768  STThingsList */\n      0x02\n        /* \"Contracts/MoonV1Thing.sol\":1756:1799  STThingsList[_STThingsInfo.contractAddress] */\n      0x20\n      mstore\n      0x40\n      swap1\n      keccak256\n        /* \"Contracts/MoonV1Thing.sol\":1756:1806  STThingsList[_STThingsInfo.contractAddress].isUsed */\n      0x03\n      add\n      sload\n      shl(0xc0, 0x01)\n      swap1\n      div\n      0xff\n      and\n        /* \"Contracts/MoonV1Thing.sol\":1756:1814  STThingsList[_STThingsInfo.contractAddress].isUsed != true */\n      iszero\n      iszero\n        /* \"Contracts/MoonV1Thing.sol\":1810:1814  true */\n      0x01\n        /* \"Contracts/MoonV1Thing.sol\":1756:1814  STThingsList[_STThingsInfo.contractAddress].isUsed != true */\n      eq\n        /* \"Contracts/MoonV1Thing.sol\":1752:2541  if (STThingsList[_STThingsInfo.contractAddress].isUsed != true) {... */\n      tag_196\n      jumpi\n        /* \"Contracts/MoonV1Thing.sol\":1859:1869  msg.sender */\n      caller\n        /* \"Contracts/MoonV1Thing.sol\":1830:1843  _STThingsInfo */\n      dup2\n        /* \"Contracts/MoonV1Thing.sol\":1830:1856  _STThingsInfo.addfromgater */\n      0x0120\n      add\n        /* \"Contracts/MoonV1Thing.sol\":1830:1869  _STThingsInfo.addfromgater = msg.sender */\n      swap1\n      sub(shl(0xa0, 0x01), 0x01)\n      and\n      swap1\n      dup2\n      sub(shl(0xa0, 0x01), 0x01)\n      and\n      dup2\n      mstore\n      pop\n      pop\n        /* \"Contracts/MoonV1Thing.sol\":1907:1917  msg.sender */\n      caller\n        /* \"Contracts/MoonV1Thing.sol\":1883:1896  _STThingsInfo */\n      dup2\n        /* \"Contracts/MoonV1Thing.sol\":1883:1904  _STThingsInfo.creator */\n      0x0140\n      add\n        /* \"Contracts/MoonV1Thing.sol\":1883:1917  _STThingsInfo.creator = msg.sender */\n      swap1\n      sub(shl(0xa0, 0x01), 0x01)\n      and\n      swap1\n      dup2\n      sub(shl(0xa0, 0x01), 0x01)\n      and\n      dup2\n      mstore\n      pop\n      pop\n        /* \"Contracts/MoonV1Thing.sol\":1960:1965  false */\n      0x00\n        /* \"Contracts/MoonV1Thing.sol\":1931:1944  _STThingsInfo */\n      dup2\n        /* \"Contracts/MoonV1Thing.sol\":1931:1957  _STThingsInfo.marketunlock */\n      0xa0\n      add\n        /* \"Contracts/MoonV1Thing.sol\":1931:1965  _STThingsInfo.marketunlock = false */\n      swap1\n      iszero\n      iszero\n      swap1\n      dup2\n      iszero\n      iszero\n      dup2\n      mstore\n      pop\n      pop\n        /* \"Contracts/MoonV1Thing.sol\":2002:2007  false */\n      0x00\n        /* \"Contracts/MoonV1Thing.sol\":1979:1992  _STThingsInfo */\n      dup2\n        /* \"Contracts/MoonV1Thing.sol\":1979:1999  _STThingsInfo.unlock */\n      0xc0\n      add\n        /* \"Contracts/MoonV1Thing.sol\":1979:2007  _STThingsInfo.unlock = false */\n      swap1\n      iszero\n      iszero\n      swap1\n      dup2\n      iszero\n      iszero\n      dup2\n      mstore\n      pop\n      pop\n        /* \"Contracts/MoonV1Thing.sol\":2044:2048  true */\n      0x01\n        /* \"Contracts/MoonV1Thing.sol\":2021:2034  _STThingsInfo */\n      dup2\n        /* \"Contracts/MoonV1Thing.sol\":2021:2041  _STThingsInfo.isUsed */\n      0x0100\n      add\n        /* \"Contracts/MoonV1Thing.sol\":2021:2048  _STThingsInfo.isUsed = true */\n      swap1\n      iszero\n      iszero\n      swap1\n      dup2\n      iszero\n      iszero\n      dup2\n      mstore\n      pop\n      pop\n        /* \"Contracts/MoonV1Thing.sol\":2108:2121  _STThingsInfo */\n      dup1\n        /* \"Contracts/MoonV1Thing.sol\":2062:2074  STThingsList */\n      0x02\n        /* \"Contracts/MoonV1Thing.sol\":2062:2105  STThingsList[_STThingsInfo.contractAddress] */\n      0x00\n        /* \"Contracts/MoonV1Thing.sol\":2075:2088  _STThingsInfo */\n      dup4\n        /* \"Contracts/MoonV1Thing.sol\":2075:2104  _STThingsInfo.contractAddress */\n      0x80\n      add\n      mload\n      sub(shl(0xa0, 0x01), 0x01)\n        /* \"Contracts/MoonV1Thing.sol\":2062:2105  STThingsList[_STThingsInfo.contractAddress] */\n      and\n      sub(shl(0xa0, 0x01), 0x01)\n      and\n      dup2\n      mstore\n      0x20\n      add\n      swap1\n      dup2\n      mstore\n      0x20\n      add\n      0x00\n      keccak256\n        /* \"Contracts/MoonV1Thing.sol\":2062:2121  STThingsList[_STThingsInfo.contractAddress] = _STThingsInfo */\n      0x00\n      dup3\n      add\n      mload\n      dup2\n      0x00\n      add\n      sstore\n      0x20\n      dup3\n      add\n      mload\n      dup2\n      0x01\n      add\n      exp(0x0100, 0x00)\n      dup2\n      sload\n      dup2\n      sub(shl(0xa0, 0x01), 0x01)\n      mul\n      not\n      and\n      swap1\n      dup4\n      sub(shl(0xa0, 0x01), 0x01)\n      and\n      mul\n      or\n      swap1\n      sstore\n      pop\n      0x40\n      dup3\n      add\n      mload\n      dup2\n      0x02\n      add\n      sstore\n      0x60\n      dup3\n      add\n      mload\n      dup2\n      0x03\n      add\n      exp(0x0100, 0x00)\n      dup2\n      sload\n      dup2\n      0xff\n      mul\n      not\n      and\n      swap1\n      dup4\n      0xff\n      and\n      mul\n      or\n      swap1\n      sstore\n      pop\n      0x80\n      dup3\n      add\n      mload\n      dup2\n      0x03\n      add\n      exp(0x0100, 0x01)\n      dup2\n      sload\n      dup2\n      sub(shl(0xa0, 0x01), 0x01)\n      mul\n      not\n      and\n      swap1\n      dup4\n      sub(shl(0xa0, 0x01), 0x01)\n      and\n      mul\n      or\n      swap1\n      sstore\n      pop\n      0xa0\n      dup3\n      add\n      mload\n      dup2\n      0x03\n      add\n      exp(0x0100, 0x15)\n      dup2\n      sload\n      dup2\n      0xff\n      mul\n      not\n      and\n      swap1\n      dup4\n      iszero\n      iszero\n      mul\n      or\n      swap1\n      sstore\n      pop\n      0xc0\n      dup3\n      add\n      mload\n      dup2\n      0x03\n      add\n      exp(0x0100, 0x16)\n      dup2\n      sload\n      dup2\n      0xff\n      mul\n      not\n      and\n      swap1\n      dup4\n      iszero\n      iszero\n      mul\n      or\n      swap1\n      sstore\n      pop\n      0xe0\n      dup3\n      add\n      mload\n      dup2\n      0x03\n      add\n      exp(0x0100, 0x17)\n      dup2\n      sload\n      dup2\n      0xff\n      mul\n      not\n      and\n      swap1\n      dup4\n      iszero\n      iszero\n      mul\n      or\n      swap1\n      sstore\n      pop\n      0x0100\n      dup3\n      add\n      mload\n      dup2\n      0x03\n      add\n      exp(0x0100, 0x18)\n      dup2\n      sload\n      dup2\n      0xff\n      mul\n      not\n      and\n      swap1\n      dup4\n      iszero\n      iszero\n      mul\n      or\n      swap1\n      sstore\n      pop\n      0x0120\n      dup3\n      add\n      mload\n      dup2\n      0x04\n      add\n      exp(0x0100, 0x00)\n      dup2\n      sload\n      dup2\n      sub(shl(0xa0, 0x01), 0x01)\n      mul\n      not\n      and\n      swap1\n      dup4\n      sub(shl(0xa0, 0x01), 0x01)\n      and\n      mul\n      or\n      swap1\n      sstore\n      pop\n      0x0140\n      dup3\n      add\n      mload\n      dup2\n      0x05\n      add\n      exp(0x0100, 0x00)\n      dup2\n      sload\n      dup2\n      sub(shl(0xa0, 0x01), 0x01)\n      mul\n      not\n      and\n      swap1\n      dup4\n      sub(shl(0xa0, 0x01), 0x01)\n      and\n      mul\n      or\n      swap1\n      sstore\n      pop\n      swap1\n      pop\n      pop\n        /* \"Contracts/MoonV1Thing.sol\":2187:2200  _STThingsInfo */\n      dup1\n        /* \"Contracts/MoonV1Thing.sol\":2187:2233  _STThingsInfo... */\n      0x80\n      add\n      mload\n        /* \"Contracts/MoonV1Thing.sol\":2135:2153  marketSTThingsList */\n      0x00\n        /* \"Contracts/MoonV1Thing.sol\":2135:2184  marketSTThingsList[_STThingsInfo.contractAddress] */\n      dup1\n        /* \"Contracts/MoonV1Thing.sol\":2154:2167  _STThingsInfo */\n      dup4\n        /* \"Contracts/MoonV1Thing.sol\":2154:2183  _STThingsInfo.contractAddress */\n      0x80\n      add\n      mload\n      sub(shl(0xa0, 0x01), 0x01)\n        /* \"Contracts/MoonV1Thing.sol\":2135:2184  marketSTThingsList[_STThingsInfo.contractAddress] */\n      and\n      sub(shl(0xa0, 0x01), 0x01)\n      and\n      dup2\n      mstore\n      0x20\n      add\n      swap1\n      dup2\n      mstore\n      0x20\n      add\n      0x00\n      keccak256\n      0x00\n        /* \"Contracts/MoonV1Thing.sol\":2135:2233  marketSTThingsList[_STThingsInfo.contractAddress] = _STThingsInfo... */\n      0x0100\n      exp\n      dup2\n      sload\n      dup2\n      sub(shl(0xa0, 0x01), 0x01)\n      mul\n      not\n      and\n      swap1\n      dup4\n      sub(shl(0xa0, 0x01), 0x01)\n      and\n      mul\n      or\n      swap1\n      sstore\n      pop\n        /* \"Contracts/MoonV1Thing.sol\":1627:2547  function addSTThingsbyMarketor(LSTThings.Info memory _STThingsInfo)... */\n      pop\n      jump\t// out\n        /* \"Contracts/MoonV1Thing.sol\":1752:2541  if (STThingsList[_STThingsInfo.contractAddress].isUsed != true) {... */\n    tag_196:\n        /* \"Contracts/MoonV1Thing.sol\":2308:2337  _STThingsInfo.contractAddress */\n      0x80\n      dup2\n      add\n      mload\n      sub(shl(0xa0, 0x01), 0x01)\n        /* \"Contracts/MoonV1Thing.sol\":2289:2338  marketSTThingsList[_STThingsInfo.contractAddress] */\n      swap1\n      dup2\n      and\n        /* \"Contracts/MoonV1Thing.sol\":2350:2351  0 */\n      0x00\n        /* \"Contracts/MoonV1Thing.sol\":2289:2338  marketSTThingsList[_STThingsInfo.contractAddress] */\n      swap1\n      dup2\n      mstore\n      0x20\n      dup2\n      swap1\n      mstore\n      0x40\n      swap1\n      keccak256\n      sload\n      and\n        /* \"Contracts/MoonV1Thing.sol\":2289:2352  marketSTThingsList[_STThingsInfo.contractAddress] == address(0) */\n      iszero\n        /* \"Contracts/MoonV1Thing.sol\":2264:2418  require(... */\n      tag_198\n      jumpi\n      mload(0x40)\n      shl(0xe5, 0x461bcd)\n      dup2\n      mstore\n        /* \"#utility.yul\":6843:6845   */\n      0x20\n        /* \"Contracts/MoonV1Thing.sol\":2264:2418  require(... */\n      0x04\n      dup3\n      add\n        /* \"#utility.yul\":6825:6846   */\n      dup2\n      swap1\n      mstore\n        /* \"#utility.yul\":6862:6880   */\n      0x24\n      dup3\n      add\n        /* \"#utility.yul\":6855:6885   */\n      mstore\n        /* \"#utility.yul\":6921:6955   */\n      0x746865207374676f6f64732065786973747320696e20746865206d61726b6574\n        /* \"#utility.yul\":6901:6919   */\n      0x44\n      dup3\n      add\n        /* \"#utility.yul\":6894:6956   */\n      mstore\n        /* \"#utility.yul\":6973:6991   */\n      0x64\n      add\n        /* \"Contracts/MoonV1Thing.sol\":2264:2418  require(... */\n      tag_116\n        /* \"#utility.yul\":6641:6997   */\n      jump\n        /* \"Contracts/MoonV1Thing.sol\":2264:2418  require(... */\n    tag_198:\n        /* \"Contracts/MoonV1Thing.sol\":2484:2530  _STThingsInfo... */\n      0x80\n      dup2\n      add\n      mload\n      sub(shl(0xa0, 0x01), 0x01)\n        /* \"Contracts/MoonV1Thing.sol\":2432:2481  marketSTThingsList[_STThingsInfo.contractAddress] */\n      and\n        /* \"Contracts/MoonV1Thing.sol\":2432:2450  marketSTThingsList */\n      0x00\n        /* \"Contracts/MoonV1Thing.sol\":2432:2481  marketSTThingsList[_STThingsInfo.contractAddress] */\n      dup2\n      dup2\n      mstore\n      0x20\n      dup2\n      swap1\n      mstore\n      0x40\n      swap1\n      keccak256\n        /* \"Contracts/MoonV1Thing.sol\":2432:2530  marketSTThingsList[_STThingsInfo.contractAddress] = _STThingsInfo... */\n      dup1\n      sload\n      not(0xffffffffffffffffffffffffffffffffffffffff)\n      and\n      swap1\n      swap2\n      or\n      swap1\n      sstore\n        /* \"Contracts/MoonV1Thing.sol\":1752:2541  if (STThingsList[_STThingsInfo.contractAddress].isUsed != true) {... */\n    tag_197:\n        /* \"Contracts/MoonV1Thing.sol\":1627:2547  function addSTThingsbyMarketor(LSTThings.Info memory _STThingsInfo)... */\n      pop\n      jump\t// out\n        /* \"Contracts/MoonV1Thing.sol\":2960:3150  function unlockSTThingsbyMarketor(address _internalSTThingsAddress)... */\n    tag_89:\n        /* \"Contracts/MoonV1Thing.sol\":1409:1432  marketorContractAddress */\n      0x04\n      dup1\n      sload\n        /* \"Contracts/MoonV1Thing.sol\":1395:1451  MoonV1Manager(marketorContractAddress).ismarketManager() */\n      0x40\n      dup1\n      mload\n      shl(0xe1, 0x0a43f929)\n      dup2\n      mstore\n      swap1\n      mload\n      sub(shl(0xa0, 0x01), 0x01)\n        /* \"Contracts/MoonV1Thing.sol\":1409:1432  marketorContractAddress */\n      swap1\n      swap3\n      and\n      swap3\n        /* \"Contracts/MoonV1Thing.sol\":1395:1449  MoonV1Manager(marketorContractAddress).ismarketManager */\n      0x1487f252\n      swap3\n        /* \"Contracts/MoonV1Thing.sol\":1395:1451  MoonV1Manager(marketorContractAddress).ismarketManager() */\n      dup3\n      dup3\n      add\n      swap3\n      0x20\n      swap3\n      swap1\n      dup3\n      swap1\n      sub\n      add\n      dup2\n        /* \"Contracts/MoonV1Thing.sol\":1409:1432  marketorContractAddress */\n      dup7\n        /* \"Contracts/MoonV1Thing.sol\":1395:1451  MoonV1Manager(marketorContractAddress).ismarketManager() */\n      dup1\n      extcodesize\n      iszero\n      dup1\n      iszero\n      tag_202\n      jumpi\n      0x00\n      dup1\n      revert\n    tag_202:\n      pop\n      gas\n      staticcall\n      iszero\n      dup1\n      iszero\n      tag_204\n      jumpi\n      returndatasize\n      0x00\n      dup1\n      returndatacopy\n      revert(0x00, returndatasize)\n    tag_204:\n      pop\n      pop\n      pop\n      pop\n      mload(0x40)\n      returndatasize\n      not(0x1f)\n      0x1f\n      dup3\n      add\n      and\n      dup3\n      add\n      dup1\n      0x40\n      mstore\n      pop\n      dup2\n      add\n      swap1\n      tag_205\n      swap2\n      swap1\n      tag_128\n      jump\t// in\n    tag_205:\n        /* \"Contracts/MoonV1Thing.sol\":1395:1459  MoonV1Manager(marketorContractAddress).ismarketManager() == true */\n      iszero\n      iszero\n        /* \"Contracts/MoonV1Thing.sol\":1455:1459  true */\n      0x01\n        /* \"Contracts/MoonV1Thing.sol\":1395:1459  MoonV1Manager(marketorContractAddress).ismarketManager() == true */\n      eq\n        /* \"Contracts/MoonV1Thing.sol\":1374:1469  require(... */\n      tag_206\n      jumpi\n      0x00\n      dup1\n      revert\n    tag_206:\n      sub(shl(0xa0, 0x01), 0x01)\n        /* \"Contracts/MoonV1Thing.sol\":3085:3123  STThingsList[_internalSTThingsAddress] */\n      and\n      0x00\n      swap1\n      dup2\n      mstore\n        /* \"Contracts/MoonV1Thing.sol\":3085:3097  STThingsList */\n      0x02\n        /* \"Contracts/MoonV1Thing.sol\":3085:3123  STThingsList[_internalSTThingsAddress] */\n      0x20\n      mstore\n      0x40\n      swap1\n      keccak256\n        /* \"Contracts/MoonV1Thing.sol\":3085:3136  STThingsList[_internalSTThingsAddress].marketunlock */\n      0x03\n      add\n        /* \"Contracts/MoonV1Thing.sol\":3085:3143  STThingsList[_internalSTThingsAddress].marketunlock = true */\n      dup1\n      sload\n      0xffffffffffffffffffff00ffffffffffffffffffffffffffffffffffffffffff\n      and\n      shl(0xa8, 0x01)\n      or\n      swap1\n      sstore\n        /* \"Contracts/MoonV1Thing.sol\":2960:3150  function unlockSTThingsbyMarketor(address _internalSTThingsAddress)... */\n      jump\t// out\n        /* \"Contracts/MoonV1Thing.sol\":5125:5442  function unlockSTThingsbyGator(address _internalSTThingsAddress)... */\n    tag_100:\n        /* \"Contracts/MoonV1Thing.sol\":1275:1294  gateContractAddress */\n      0x03\n      0x00\n      swap1\n      sload\n      swap1\n      0x0100\n      exp\n      swap1\n      div\n      sub(shl(0xa0, 0x01), 0x01)\n      and\n      sub(shl(0xa0, 0x01), 0x01)\n        /* \"Contracts/MoonV1Thing.sol\":1263:1308  MoonV1Gater(gateContractAddress).isValidGater */\n      and\n      0xab3acb5c\n        /* \"Contracts/MoonV1Thing.sol\":1263:1310  MoonV1Gater(gateContractAddress).isValidGater() */\n      mload(0x40)\n      dup2\n      0xffffffff\n      and\n      0xe0\n      shl\n      dup2\n      mstore\n      0x04\n      add\n      0x20\n      mload(0x40)\n      dup1\n      dup4\n      sub\n      dup2\n      dup7\n      dup1\n      extcodesize\n      iszero\n      dup1\n      iszero\n      tag_214\n      jumpi\n      0x00\n      dup1\n      revert\n    tag_214:\n      pop\n      gas\n      staticcall\n      iszero\n      dup1\n      iszero\n      tag_216\n      jumpi\n      returndatasize\n      0x00\n      dup1\n      returndatacopy\n      revert(0x00, returndatasize)\n    tag_216:\n      pop\n      pop\n      pop\n      pop\n      mload(0x40)\n      returndatasize\n      not(0x1f)\n      0x1f\n      dup3\n      add\n      and\n      dup3\n      add\n      dup1\n      0x40\n      mstore\n      pop\n      dup2\n      add\n      swap1\n      tag_217\n      swap2\n      swap1\n      tag_128\n      jump\t// in\n    tag_217:\n        /* \"Contracts/MoonV1Thing.sol\":1255:1311  require(MoonV1Gater(gateContractAddress).isValidGater()) */\n      tag_218\n      jumpi\n      0x00\n      dup1\n      revert\n    tag_218:\n      sub(shl(0xa0, 0x01), 0x01)\n        /* \"Contracts/MoonV1Thing.sol\":5260:5298  STThingsList[_internalSTThingsAddress] */\n      dup2\n      dup2\n      and\n      0x00\n      swap1\n      dup2\n      mstore\n        /* \"Contracts/MoonV1Thing.sol\":5260:5272  STThingsList */\n      0x02\n        /* \"Contracts/MoonV1Thing.sol\":5260:5298  STThingsList[_internalSTThingsAddress] */\n      0x20\n      mstore\n      0x40\n      swap1\n      keccak256\n        /* \"Contracts/MoonV1Thing.sol\":5260:5311  STThingsList[_internalSTThingsAddress].addfromgater */\n      0x04\n      add\n      sload\n      and\n        /* \"Contracts/MoonV1Thing.sol\":5315:5325  msg.sender */\n      caller\n        /* \"Contracts/MoonV1Thing.sol\":5260:5325  STThingsList[_internalSTThingsAddress].addfromgater == msg.sender */\n      eq\n        /* \"Contracts/MoonV1Thing.sol\":5239:5373  require(... */\n      tag_220\n      jumpi\n      mload(0x40)\n      shl(0xe5, 0x461bcd)\n      dup2\n      mstore\n        /* \"#utility.yul\":5372:5374   */\n      0x20\n        /* \"Contracts/MoonV1Thing.sol\":5239:5373  require(... */\n      0x04\n      dup3\n      add\n        /* \"#utility.yul\":5354:5375   */\n      mstore\n        /* \"#utility.yul\":5411:5413   */\n      0x16\n        /* \"#utility.yul\":5391:5409   */\n      0x24\n      dup3\n      add\n        /* \"#utility.yul\":5384:5414   */\n      mstore\n        /* \"#utility.yul\":5450:5474   */\n      0x796f752068617665206e6f742074686520726967687400000000000000000000\n        /* \"#utility.yul\":5430:5448   */\n      0x44\n      dup3\n      add\n        /* \"#utility.yul\":5423:5475   */\n      mstore\n        /* \"#utility.yul\":5492:5510   */\n      0x64\n      add\n        /* \"Contracts/MoonV1Thing.sol\":5239:5373  require(... */\n      tag_116\n        /* \"#utility.yul\":5170:5516   */\n      jump\n        /* \"Contracts/MoonV1Thing.sol\":5239:5373  require(... */\n    tag_220:\n      sub(shl(0xa0, 0x01), 0x01)\n        /* \"Contracts/MoonV1Thing.sol\":5383:5421  STThingsList[_internalSTThingsAddress] */\n      and\n      0x00\n      swap1\n      dup2\n      mstore\n        /* \"Contracts/MoonV1Thing.sol\":5383:5395  STThingsList */\n      0x02\n        /* \"Contracts/MoonV1Thing.sol\":5383:5421  STThingsList[_internalSTThingsAddress] */\n      0x20\n      mstore\n      0x40\n      swap1\n      keccak256\n        /* \"Contracts/MoonV1Thing.sol\":5383:5428  STThingsList[_internalSTThingsAddress].unlock */\n      0x03\n      add\n        /* \"Contracts/MoonV1Thing.sol\":5383:5435  STThingsList[_internalSTThingsAddress].unlock = true */\n      dup1\n      sload\n      not(shl(0xb0, 0xff))\n      and\n      shl(0xb0, 0x01)\n      or\n      swap1\n      sstore\n        /* \"Contracts/MoonV1Thing.sol\":5125:5442  function unlockSTThingsbyGator(address _internalSTThingsAddress)... */\n      jump\t// out\n        /* \"Contracts/MoonV1Thing.sol\":3156:3671  function updateSTThingsbyMarketor(LSTThings.Info memory _STThingsInfo)... */\n    tag_108:\n        /* \"Contracts/MoonV1Thing.sol\":1409:1432  marketorContractAddress */\n      0x04\n      dup1\n      sload\n        /* \"Contracts/MoonV1Thing.sol\":1395:1451  MoonV1Manager(marketorContractAddress).ismarketManager() */\n      0x40\n      dup1\n      mload\n      shl(0xe1, 0x0a43f929)\n      dup2\n      mstore\n      swap1\n      mload\n      sub(shl(0xa0, 0x01), 0x01)\n        /* \"Contracts/MoonV1Thing.sol\":1409:1432  marketorContractAddress */\n      swap1\n      swap3\n      and\n      swap3\n        /* \"Contracts/MoonV1Thing.sol\":1395:1449  MoonV1Manager(marketorContractAddress).ismarketManager */\n      0x1487f252\n      swap3\n        /* \"Contracts/MoonV1Thing.sol\":1395:1451  MoonV1Manager(marketorContractAddress).ismarketManager() */\n      dup3\n      dup3\n      add\n      swap3\n      0x20\n      swap3\n      swap1\n      dup3\n      swap1\n      sub\n      add\n      dup2\n        /* \"Contracts/MoonV1Thing.sol\":1409:1432  marketorContractAddress */\n      dup7\n        /* \"Contracts/MoonV1Thing.sol\":1395:1451  MoonV1Manager(marketorContractAddress).ismarketManager() */\n      dup1\n      extcodesize\n      iszero\n      dup1\n      iszero\n      tag_223\n      jumpi\n      0x00\n      dup1\n      revert\n    tag_223:\n      pop\n      gas\n      staticcall\n      iszero\n      dup1\n      iszero\n      tag_225\n      jumpi\n      returndatasize\n      0x00\n      dup1\n      returndatacopy\n      revert(0x00, returndatasize)\n    tag_225:\n      pop\n      pop\n      pop\n      pop\n      mload(0x40)\n      returndatasize\n      not(0x1f)\n      0x1f\n      dup3\n      add\n      and\n      dup3\n      add\n      dup1\n      0x40\n      mstore\n      pop\n      dup2\n      add\n      swap1\n      tag_226\n      swap2\n      swap1\n      tag_128\n      jump\t// in\n    tag_226:\n        /* \"Contracts/MoonV1Thing.sol\":1395:1459  MoonV1Manager(marketorContractAddress).ismarketManager() == true */\n      iszero\n      iszero\n        /* \"Contracts/MoonV1Thing.sol\":1455:1459  true */\n      0x01\n        /* \"Contracts/MoonV1Thing.sol\":1395:1459  MoonV1Manager(marketorContractAddress).ismarketManager() == true */\n      eq\n        /* \"Contracts/MoonV1Thing.sol\":1374:1469  require(... */\n      tag_227\n      jumpi\n      0x00\n      dup1\n      revert\n    tag_227:\n        /* \"Contracts/MoonV1Thing.sol\":3324:3353  _STThingsInfo.contractAddress */\n      0x80\n      dup2\n      add\n      mload\n      sub(shl(0xa0, 0x01), 0x01)\n        /* \"Contracts/MoonV1Thing.sol\":3305:3354  marketSTThingsList[_STThingsInfo.contractAddress] */\n      swap1\n      dup2\n      and\n        /* \"Contracts/MoonV1Thing.sol\":3366:3367  0 */\n      0x00\n        /* \"Contracts/MoonV1Thing.sol\":3305:3354  marketSTThingsList[_STThingsInfo.contractAddress] */\n      swap1\n      dup2\n      mstore\n      0x20\n      dup2\n      swap1\n      mstore\n      0x40\n      swap1\n      keccak256\n      sload\n      and\n        /* \"Contracts/MoonV1Thing.sol\":3284:3378  require(... */\n      tag_229\n      jumpi\n      0x00\n      dup1\n      revert\n    tag_229:\n        /* \"Contracts/MoonV1Thing.sol\":3417:3422  false */\n      0x00\n        /* \"Contracts/MoonV1Thing.sol\":3388:3414  _STThingsInfo.marketunlock */\n      0xa0\n      dup3\n      add\n        /* \"Contracts/MoonV1Thing.sol\":3388:3422  _STThingsInfo.marketunlock = false */\n      dup2\n      dup2\n      mstore\n        /* \"Contracts/MoonV1Thing.sol\":3432:3452  _STThingsInfo.unlock */\n      0xc0\n      dup4\n      add\n        /* \"Contracts/MoonV1Thing.sol\":3432:3460  _STThingsInfo.unlock = false */\n      dup3\n      dup2\n      mstore\n        /* \"Contracts/MoonV1Thing.sol\":3388:3422  _STThingsInfo.marketunlock = false */\n      0x01\n        /* \"Contracts/MoonV1Thing.sol\":3470:3490  _STThingsInfo.isUsed */\n      0x0100\n      dup1\n      dup7\n      add\n        /* \"Contracts/MoonV1Thing.sol\":3470:3497  _STThingsInfo.isUsed = true */\n      dup3\n      dup2\n      mstore\n        /* \"Contracts/MoonV1Thing.sol\":3544:3573  _STThingsInfo.contractAddress */\n      0x80\n      dup8\n      add\n      dup1\n      mload\n      sub(shl(0xa0, 0x01), 0x01)\n        /* \"Contracts/MoonV1Thing.sol\":3531:3574  STThingsList[_STThingsInfo.contractAddress] */\n      swap1\n      dup2\n      and\n      dup9\n      mstore\n        /* \"Contracts/MoonV1Thing.sol\":3531:3543  STThingsList */\n      0x02\n        /* \"Contracts/MoonV1Thing.sol\":3531:3574  STThingsList[_STThingsInfo.contractAddress] */\n      0x20\n      dup2\n      dup2\n      mstore\n      0x40\n      dup1\n      dup12\n      keccak256\n        /* \"Contracts/MoonV1Thing.sol\":3531:3595  STThingsList[_STThingsInfo.contractAddress]... */\n      0x05\n      swap1\n      dup2\n      add\n      sload\n      dup6\n      and\n        /* \"Contracts/MoonV1Thing.sol\":3507:3528  _STThingsInfo.creator */\n      0x0140\n      dup15\n      add\n        /* \"Contracts/MoonV1Thing.sol\":3507:3595  _STThingsInfo.creator = STThingsList[_STThingsInfo.contractAddress]... */\n      swap1\n      dup2\n      mstore\n        /* \"Contracts/MoonV1Thing.sol\":3618:3647  _STThingsInfo.contractAddress */\n      dup7\n      mload\n        /* \"Contracts/MoonV1Thing.sol\":3605:3648  STThingsList[_STThingsInfo.contractAddress] */\n      dup7\n      and\n      dup14\n      mstore\n      dup5\n      dup5\n      mstore\n      swap12\n      dup3\n      swap1\n      keccak256\n        /* \"Contracts/MoonV1Thing.sol\":3605:3664  STThingsList[_STThingsInfo.contractAddress] = _STThingsInfo */\n      dup14\n      mload\n      dup2\n      sstore\n      swap3\n      dup14\n      add\n      mload\n      swap9\n      dup4\n      add\n      dup1\n      sload\n      swap10\n      dup7\n      and\n      not(0xffffffffffffffffffffffffffffffffffffffff)\n      swap11\n      dup12\n      and\n      or\n      swap1\n      sstore\n      swap1\n      dup13\n      add\n      mload\n      swap3\n      dup3\n      add\n      swap3\n      swap1\n      swap3\n      sstore\n      0x60\n      dup12\n      add\n      mload\n      0x03\n      dup3\n      add\n      dup1\n      sload\n      swap6\n      mload\n      swap11\n      mload\n      swap10\n      mload\n      0xe0\n      dup15\n      add\n      mload\n      swap8\n      mload\n      iszero\n      iszero\n      shl(0xc0, 0x01)\n      mul\n      0xffffffffffffff00ffffffffffffffffffffffffffffffffffffffffffffffff\n      swap9\n      iszero\n      iszero\n      shl(0xb8, 0x01)\n      mul\n      swap9\n      swap1\n      swap9\n      and\n      0xffffffffffffff0000ffffffffffffffffffffffffffffffffffffffffffffff\n      swap2\n      iszero\n      iszero\n      shl(0xb0, 0x01)\n      mul\n      not(shl(0xb0, 0xff))\n      swap13\n      iszero\n      iszero\n      shl(0xa8, 0x01)\n      mul\n      swap13\n      swap1\n      swap13\n      and\n      0xffffffffffffffffff0000ffffffffffffffffffffffffffffffffffffffffff\n      swap14\n      dup9\n      and\n      swap1\n      swap11\n      mul\n      0xffffffffffffffffffffff000000000000000000000000000000000000000000\n      swap1\n      swap9\n      and\n      0xff\n      swap1\n      swap5\n      and\n      swap4\n      swap1\n      swap4\n      or\n      swap7\n      swap1\n      swap7\n      or\n      swap11\n      swap1\n      swap11\n      and\n      swap7\n      swap1\n      swap7\n      or\n      swap8\n      swap1\n      swap8\n      or\n      swap3\n      swap1\n      swap3\n      and\n      swap4\n      swap1\n      swap4\n      or\n      swap2\n      swap1\n      swap2\n      or\n      swap1\n      swap5\n      sstore\n      0x0120\n      swap1\n      swap6\n      add\n      mload\n      0x04\n      dup4\n      add\n      dup1\n      sload\n      swap2\n      dup8\n      and\n      swap2\n      dup4\n      and\n      swap2\n      swap1\n      swap2\n      or\n      swap1\n      sstore\n      swap3\n      mload\n      swap2\n      add\n      dup1\n      sload\n      swap2\n      swap1\n      swap4\n      and\n      swap2\n      and\n      or\n      swap1\n      sstore\n        /* \"Contracts/MoonV1Thing.sol\":3156:3671  function updateSTThingsbyMarketor(LSTThings.Info memory _STThingsInfo)... */\n      jump\t// out\n        /* \"Contracts/MoonV1Thing.sol\":4295:4629  function delSTThingsbyMarketor(LSTThings.Info memory _STThingsInfo)... */\n    tag_111:\n        /* \"Contracts/MoonV1Thing.sol\":1409:1432  marketorContractAddress */\n      0x04\n      dup1\n      sload\n        /* \"Contracts/MoonV1Thing.sol\":1395:1451  MoonV1Manager(marketorContractAddress).ismarketManager() */\n      0x40\n      dup1\n      mload\n      shl(0xe1, 0x0a43f929)\n      dup2\n      mstore\n      swap1\n      mload\n      sub(shl(0xa0, 0x01), 0x01)\n        /* \"Contracts/MoonV1Thing.sol\":1409:1432  marketorContractAddress */\n      swap1\n      swap3\n      and\n      swap3\n        /* \"Contracts/MoonV1Thing.sol\":1395:1449  MoonV1Manager(marketorContractAddress).ismarketManager */\n      0x1487f252\n      swap3\n        /* \"Contracts/MoonV1Thing.sol\":1395:1451  MoonV1Manager(marketorContractAddress).ismarketManager() */\n      dup3\n      dup3\n      add\n      swap3\n      0x20\n      swap3\n      swap1\n      dup3\n      swap1\n      sub\n      add\n      dup2\n        /* \"Contracts/MoonV1Thing.sol\":1409:1432  marketorContractAddress */\n      dup7\n        /* \"Contracts/MoonV1Thing.sol\":1395:1451  MoonV1Manager(marketorContractAddress).ismarketManager() */\n      dup1\n      extcodesize\n      iszero\n      dup1\n      iszero\n      tag_231\n      jumpi\n      0x00\n      dup1\n      revert\n    tag_231:\n      pop\n      gas\n      staticcall\n      iszero\n      dup1\n      iszero\n      tag_233\n      jumpi\n      returndatasize\n      0x00\n      dup1\n      returndatacopy\n      revert(0x00, returndatasize)\n    tag_233:\n      pop\n      pop\n      pop\n      pop\n      mload(0x40)\n      returndatasize\n      not(0x1f)\n      0x1f\n      dup3\n      add\n      and\n      dup3\n      add\n      dup1\n      0x40\n      mstore\n      pop\n      dup2\n      add\n      swap1\n      tag_234\n      swap2\n      swap1\n      tag_128\n      jump\t// in\n    tag_234:\n        /* \"Contracts/MoonV1Thing.sol\":1395:1459  MoonV1Manager(marketorContractAddress).ismarketManager() == true */\n      iszero\n      iszero\n        /* \"Contracts/MoonV1Thing.sol\":1455:1459  true */\n      0x01\n        /* \"Contracts/MoonV1Thing.sol\":1395:1459  MoonV1Manager(marketorContractAddress).ismarketManager() == true */\n      eq\n        /* \"Contracts/MoonV1Thing.sol\":1374:1469  require(... */\n      tag_235\n      jumpi\n      0x00\n      dup1\n      revert\n    tag_235:\n        /* \"Contracts/MoonV1Thing.sol\":4460:4489  _STThingsInfo.contractAddress */\n      0x80\n      dup2\n      add\n      mload\n      sub(shl(0xa0, 0x01), 0x01)\n        /* \"Contracts/MoonV1Thing.sol\":4441:4490  marketSTThingsList[_STThingsInfo.contractAddress] */\n      swap1\n      dup2\n      and\n        /* \"Contracts/MoonV1Thing.sol\":4502:4503  0 */\n      0x00\n        /* \"Contracts/MoonV1Thing.sol\":4441:4490  marketSTThingsList[_STThingsInfo.contractAddress] */\n      swap1\n      dup2\n      mstore\n      0x20\n      dup2\n      swap1\n      mstore\n      0x40\n      swap1\n      keccak256\n      sload\n      and\n        /* \"Contracts/MoonV1Thing.sol\":4441:4504  marketSTThingsList[_STThingsInfo.contractAddress] == address(0) */\n      iszero\n        /* \"Contracts/MoonV1Thing.sol\":4420:4556  require(... */\n      tag_237\n      jumpi\n      mload(0x40)\n      shl(0xe5, 0x461bcd)\n      dup2\n      mstore\n        /* \"#utility.yul\":5723:5725   */\n      0x20\n        /* \"Contracts/MoonV1Thing.sol\":4420:4556  require(... */\n      0x04\n      dup3\n      add\n        /* \"#utility.yul\":5705:5726   */\n      mstore\n        /* \"#utility.yul\":5762:5764   */\n      0x1a\n        /* \"#utility.yul\":5742:5760   */\n      0x24\n      dup3\n      add\n        /* \"#utility.yul\":5735:5765   */\n      mstore\n        /* \"#utility.yul\":5801:5829   */\n      0x7468652053545468696e6773206973206e6f7420657869737473000000000000\n        /* \"#utility.yul\":5781:5799   */\n      0x44\n      dup3\n      add\n        /* \"#utility.yul\":5774:5830   */\n      mstore\n        /* \"#utility.yul\":5847:5865   */\n      0x64\n      add\n        /* \"Contracts/MoonV1Thing.sol\":4420:4556  require(... */\n      tag_116\n        /* \"#utility.yul\":5521:5871   */\n      jump\n        /* \"Contracts/MoonV1Thing.sol\":4420:4556  require(... */\n    tag_237:\n        /* \"Contracts/MoonV1Thing.sol\":4592:4621  _STThingsInfo.contractAddress */\n      0x80\n      add\n      mload\n      sub(shl(0xa0, 0x01), 0x01)\n        /* \"Contracts/MoonV1Thing.sol\":4573:4622  marketSTThingsList[_STThingsInfo.contractAddress] */\n      and\n        /* \"Contracts/MoonV1Thing.sol\":4573:4591  marketSTThingsList */\n      0x00\n        /* \"Contracts/MoonV1Thing.sol\":4573:4622  marketSTThingsList[_STThingsInfo.contractAddress] */\n      swap1\n      dup2\n      mstore\n      0x20\n      dup2\n      swap1\n      mstore\n      0x40\n      swap1\n      keccak256\n        /* \"Contracts/MoonV1Thing.sol\":4566:4622  delete marketSTThingsList[_STThingsInfo.contractAddress] */\n      dup1\n      sload\n      not(0xffffffffffffffffffffffffffffffffffffffff)\n      and\n      swap1\n      sstore\n        /* \"Contracts/MoonV1Thing.sol\":4295:4629  function delSTThingsbyMarketor(LSTThings.Info memory _STThingsInfo)... */\n      jump\t// out\n        /* \"#utility.yul\":14:210   */\n    tag_240:\n        /* \"#utility.yul\":82:102   */\n      dup1\n      calldataload\n      sub(shl(0xa0, 0x01), 0x01)\n        /* \"#utility.yul\":131:185   */\n      dup2\n      and\n        /* \"#utility.yul\":121:186   */\n      dup2\n      eq\n        /* \"#utility.yul\":111:204   */\n      tag_242\n      jumpi\n        /* \"#utility.yul\":200:201   */\n      0x00\n        /* \"#utility.yul\":197:198   */\n      dup1\n        /* \"#utility.yul\":190:202   */\n      revert\n        /* \"#utility.yul\":111:204   */\n    tag_242:\n        /* \"#utility.yul\":14:210   */\n      swap2\n      swap1\n      pop\n      jump\t// out\n        /* \"#utility.yul\":215:343   */\n    tag_243:\n        /* \"#utility.yul\":280:300   */\n      dup1\n      calldataload\n        /* \"#utility.yul\":309:337   */\n      tag_242\n        /* \"#utility.yul\":280:300   */\n      dup2\n        /* \"#utility.yul\":309:337   */\n      tag_246\n      jump\t// in\n        /* \"#utility.yul\":348:1323   */\n    tag_247:\n        /* \"#utility.yul\":399:404   */\n      0x00\n        /* \"#utility.yul\":447:453   */\n      0x0160\n        /* \"#utility.yul\":435:444   */\n      dup3\n        /* \"#utility.yul\":430:433   */\n      dup5\n        /* \"#utility.yul\":426:445   */\n      sub\n        /* \"#utility.yul\":422:454   */\n      slt\n        /* \"#utility.yul\":419:471   */\n      iszero\n      tag_249\n      jumpi\n        /* \"#utility.yul\":467:468   */\n      0x00\n        /* \"#utility.yul\":464:465   */\n      dup1\n        /* \"#utility.yul\":457:469   */\n      revert\n        /* \"#utility.yul\":419:471   */\n    tag_249:\n        /* \"#utility.yul\":489:506   */\n      tag_250\n      tag_251\n      jump\t// in\n    tag_250:\n        /* \"#utility.yul\":480:506   */\n      swap1\n      pop\n        /* \"#utility.yul\":542:551   */\n      dup2\n        /* \"#utility.yul\":529:552   */\n      calldataload\n        /* \"#utility.yul\":522:527   */\n      dup2\n        /* \"#utility.yul\":515:553   */\n      mstore\n        /* \"#utility.yul\":585:623   */\n      tag_252\n        /* \"#utility.yul\":619:621   */\n      0x20\n        /* \"#utility.yul\":608:617   */\n      dup4\n        /* \"#utility.yul\":604:622   */\n      add\n        /* \"#utility.yul\":585:623   */\n      tag_240\n      jump\t// in\n    tag_252:\n        /* \"#utility.yul\":580:582   */\n      0x20\n        /* \"#utility.yul\":573:578   */\n      dup3\n        /* \"#utility.yul\":569:583   */\n      add\n        /* \"#utility.yul\":562:624   */\n      mstore\n        /* \"#utility.yul\":684:686   */\n      0x40\n        /* \"#utility.yul\":673:682   */\n      dup3\n        /* \"#utility.yul\":669:687   */\n      add\n        /* \"#utility.yul\":656:688   */\n      calldataload\n        /* \"#utility.yul\":651:653   */\n      0x40\n        /* \"#utility.yul\":644:649   */\n      dup3\n        /* \"#utility.yul\":640:654   */\n      add\n        /* \"#utility.yul\":633:689   */\n      mstore\n        /* \"#utility.yul\":721:757   */\n      tag_253\n        /* \"#utility.yul\":753:755   */\n      0x60\n        /* \"#utility.yul\":742:751   */\n      dup4\n        /* \"#utility.yul\":738:756   */\n      add\n        /* \"#utility.yul\":721:757   */\n      tag_254\n      jump\t// in\n    tag_253:\n        /* \"#utility.yul\":716:718   */\n      0x60\n        /* \"#utility.yul\":709:714   */\n      dup3\n        /* \"#utility.yul\":705:719   */\n      add\n        /* \"#utility.yul\":698:758   */\n      mstore\n        /* \"#utility.yul\":791:830   */\n      tag_255\n        /* \"#utility.yul\":825:828   */\n      0x80\n        /* \"#utility.yul\":814:823   */\n      dup4\n        /* \"#utility.yul\":810:829   */\n      add\n        /* \"#utility.yul\":791:830   */\n      tag_240\n      jump\t// in\n    tag_255:\n        /* \"#utility.yul\":785:788   */\n      0x80\n        /* \"#utility.yul\":778:783   */\n      dup3\n        /* \"#utility.yul\":774:789   */\n      add\n        /* \"#utility.yul\":767:831   */\n      mstore\n        /* \"#utility.yul\":864:900   */\n      tag_256\n        /* \"#utility.yul\":895:898   */\n      0xa0\n        /* \"#utility.yul\":884:893   */\n      dup4\n        /* \"#utility.yul\":880:899   */\n      add\n        /* \"#utility.yul\":864:900   */\n      tag_243\n      jump\t// in\n    tag_256:\n        /* \"#utility.yul\":858:861   */\n      0xa0\n        /* \"#utility.yul\":851:856   */\n      dup3\n        /* \"#utility.yul\":847:862   */\n      add\n        /* \"#utility.yul\":840:901   */\n      mstore\n        /* \"#utility.yul\":934:970   */\n      tag_257\n        /* \"#utility.yul\":965:968   */\n      0xc0\n        /* \"#utility.yul\":954:963   */\n      dup4\n        /* \"#utility.yul\":950:969   */\n      add\n        /* \"#utility.yul\":934:970   */\n      tag_243\n      jump\t// in\n    tag_257:\n        /* \"#utility.yul\":928:931   */\n      0xc0\n        /* \"#utility.yul\":921:926   */\n      dup3\n        /* \"#utility.yul\":917:932   */\n      add\n        /* \"#utility.yul\":910:971   */\n      mstore\n        /* \"#utility.yul\":1004:1040   */\n      tag_258\n        /* \"#utility.yul\":1035:1038   */\n      0xe0\n        /* \"#utility.yul\":1024:1033   */\n      dup4\n        /* \"#utility.yul\":1020:1039   */\n      add\n        /* \"#utility.yul\":1004:1040   */\n      tag_243\n      jump\t// in\n    tag_258:\n        /* \"#utility.yul\":998:1001   */\n      0xe0\n        /* \"#utility.yul\":991:996   */\n      dup3\n        /* \"#utility.yul\":987:1002   */\n      add\n        /* \"#utility.yul\":980:1041   */\n      mstore\n        /* \"#utility.yul\":1060:1063   */\n      0x0100\n        /* \"#utility.yul\":1095:1130   */\n      tag_259\n        /* \"#utility.yul\":1126:1128   */\n      dup2\n        /* \"#utility.yul\":1115:1124   */\n      dup5\n        /* \"#utility.yul\":1111:1129   */\n      add\n        /* \"#utility.yul\":1095:1130   */\n      tag_243\n      jump\t// in\n    tag_259:\n        /* \"#utility.yul\":1079:1093   */\n      swap1\n      dup3\n      add\n        /* \"#utility.yul\":1072:1131   */\n      mstore\n        /* \"#utility.yul\":1150:1153   */\n      0x0120\n        /* \"#utility.yul\":1185:1223   */\n      tag_260\n        /* \"#utility.yul\":1204:1222   */\n      dup4\n      dup3\n      add\n        /* \"#utility.yul\":1185:1223   */\n      tag_240\n      jump\t// in\n    tag_260:\n        /* \"#utility.yul\":1169:1183   */\n      swap1\n      dup3\n      add\n        /* \"#utility.yul\":1162:1224   */\n      mstore\n        /* \"#utility.yul\":1243:1246   */\n      0x0140\n        /* \"#utility.yul\":1278:1316   */\n      tag_261\n        /* \"#utility.yul\":1297:1315   */\n      dup4\n      dup3\n      add\n        /* \"#utility.yul\":1278:1316   */\n      tag_240\n      jump\t// in\n    tag_261:\n        /* \"#utility.yul\":1262:1276   */\n      swap1\n      dup3\n      add\n        /* \"#utility.yul\":1255:1317   */\n      mstore\n        /* \"#utility.yul\":1266:1271   */\n      swap3\n        /* \"#utility.yul\":348:1323   */\n      swap2\n      pop\n      pop\n      jump\t// out\n        /* \"#utility.yul\":1328:1484   */\n    tag_254:\n        /* \"#utility.yul\":1394:1414   */\n      dup1\n      calldataload\n        /* \"#utility.yul\":1454:1458   */\n      0xff\n        /* \"#utility.yul\":1443:1459   */\n      dup2\n      and\n        /* \"#utility.yul\":1433:1460   */\n      dup2\n      eq\n        /* \"#utility.yul\":1423:1478   */\n      tag_242\n      jumpi\n        /* \"#utility.yul\":1474:1475   */\n      0x00\n        /* \"#utility.yul\":1471:1472   */\n      dup1\n        /* \"#utility.yul\":1464:1476   */\n      revert\n        /* \"#utility.yul\":1489:1675   */\n    tag_34:\n        /* \"#utility.yul\":1548:1554   */\n      0x00\n        /* \"#utility.yul\":1601:1603   */\n      0x20\n        /* \"#utility.yul\":1589:1598   */\n      dup3\n        /* \"#utility.yul\":1580:1587   */\n      dup5\n        /* \"#utility.yul\":1576:1599   */\n      sub\n        /* \"#utility.yul\":1572:1604   */\n      slt\n        /* \"#utility.yul\":1569:1621   */\n      iszero\n      tag_265\n      jumpi\n        /* \"#utility.yul\":1617:1618   */\n      0x00\n        /* \"#utility.yul\":1614:1615   */\n      dup1\n        /* \"#utility.yul\":1607:1619   */\n      revert\n        /* \"#utility.yul\":1569:1621   */\n    tag_265:\n        /* \"#utility.yul\":1640:1669   */\n      tag_266\n        /* \"#utility.yul\":1659:1668   */\n      dup3\n        /* \"#utility.yul\":1640:1669   */\n      tag_240\n      jump\t// in\n    tag_266:\n        /* \"#utility.yul\":1630:1669   */\n      swap4\n        /* \"#utility.yul\":1489:1675   */\n      swap3\n      pop\n      pop\n      pop\n      jump\t// out\n        /* \"#utility.yul\":1680:1940   */\n    tag_40:\n        /* \"#utility.yul\":1748:1754   */\n      0x00\n        /* \"#utility.yul\":1756:1762   */\n      dup1\n        /* \"#utility.yul\":1809:1811   */\n      0x40\n        /* \"#utility.yul\":1797:1806   */\n      dup4\n        /* \"#utility.yul\":1788:1795   */\n      dup6\n        /* \"#utility.yul\":1784:1807   */\n      sub\n        /* \"#utility.yul\":1780:1812   */\n      slt\n        /* \"#utility.yul\":1777:1829   */\n      iszero\n      tag_268\n      jumpi\n        /* \"#utility.yul\":1825:1826   */\n      0x00\n        /* \"#utility.yul\":1822:1823   */\n      dup1\n        /* \"#utility.yul\":1815:1827   */\n      revert\n        /* \"#utility.yul\":1777:1829   */\n    tag_268:\n        /* \"#utility.yul\":1848:1877   */\n      tag_269\n        /* \"#utility.yul\":1867:1876   */\n      dup4\n        /* \"#utility.yul\":1848:1877   */\n      tag_240\n      jump\t// in\n    tag_269:\n        /* \"#utility.yul\":1838:1877   */\n      swap2\n      pop\n        /* \"#utility.yul\":1896:1934   */\n      tag_270\n        /* \"#utility.yul\":1930:1932   */\n      0x20\n        /* \"#utility.yul\":1919:1928   */\n      dup5\n        /* \"#utility.yul\":1915:1933   */\n      add\n        /* \"#utility.yul\":1896:1934   */\n      tag_240\n      jump\t// in\n    tag_270:\n        /* \"#utility.yul\":1886:1934   */\n      swap1\n      pop\n        /* \"#utility.yul\":1680:1940   */\n      swap3\n      pop\n      swap3\n      swap1\n      pop\n      jump\t// out\n        /* \"#utility.yul\":1945:2201   */\n    tag_65:\n        /* \"#utility.yul\":2011:2017   */\n      0x00\n        /* \"#utility.yul\":2019:2025   */\n      dup1\n        /* \"#utility.yul\":2072:2074   */\n      0x40\n        /* \"#utility.yul\":2060:2069   */\n      dup4\n        /* \"#utility.yul\":2051:2058   */\n      dup6\n        /* \"#utility.yul\":2047:2070   */\n      sub\n        /* \"#utility.yul\":2043:2075   */\n      slt\n        /* \"#utility.yul\":2040:2092   */\n      iszero\n      tag_272\n      jumpi\n        /* \"#utility.yul\":2088:2089   */\n      0x00\n        /* \"#utility.yul\":2085:2086   */\n      dup1\n        /* \"#utility.yul\":2078:2090   */\n      revert\n        /* \"#utility.yul\":2040:2092   */\n    tag_272:\n        /* \"#utility.yul\":2111:2140   */\n      tag_273\n        /* \"#utility.yul\":2130:2139   */\n      dup4\n        /* \"#utility.yul\":2111:2140   */\n      tag_240\n      jump\t// in\n    tag_273:\n        /* \"#utility.yul\":2101:2140   */\n      swap2\n      pop\n        /* \"#utility.yul\":2159:2195   */\n      tag_270\n        /* \"#utility.yul\":2191:2193   */\n      0x20\n        /* \"#utility.yul\":2180:2189   */\n      dup5\n        /* \"#utility.yul\":2176:2194   */\n      add\n        /* \"#utility.yul\":2159:2195   */\n      tag_254\n      jump\t// in\n        /* \"#utility.yul\":2206:2451   */\n    tag_128:\n        /* \"#utility.yul\":2273:2279   */\n      0x00\n        /* \"#utility.yul\":2326:2328   */\n      0x20\n        /* \"#utility.yul\":2314:2323   */\n      dup3\n        /* \"#utility.yul\":2305:2312   */\n      dup5\n        /* \"#utility.yul\":2301:2324   */\n      sub\n        /* \"#utility.yul\":2297:2329   */\n      slt\n        /* \"#utility.yul\":2294:2346   */\n      iszero\n      tag_276\n      jumpi\n        /* \"#utility.yul\":2342:2343   */\n      0x00\n        /* \"#utility.yul\":2339:2340   */\n      dup1\n        /* \"#utility.yul\":2332:2344   */\n      revert\n        /* \"#utility.yul\":2294:2346   */\n    tag_276:\n        /* \"#utility.yul\":2374:2383   */\n      dup2\n        /* \"#utility.yul\":2368:2384   */\n      mload\n        /* \"#utility.yul\":2393:2421   */\n      tag_266\n        /* \"#utility.yul\":2415:2420   */\n      dup2\n        /* \"#utility.yul\":2393:2421   */\n      tag_246\n      jump\t// in\n        /* \"#utility.yul\":2456:2678   */\n    tag_44:\n        /* \"#utility.yul\":2537:2543   */\n      0x00\n        /* \"#utility.yul\":2590:2593   */\n      0x0160\n        /* \"#utility.yul\":2578:2587   */\n      dup3\n        /* \"#utility.yul\":2569:2576   */\n      dup5\n        /* \"#utility.yul\":2565:2588   */\n      sub\n        /* \"#utility.yul\":2561:2594   */\n      slt\n        /* \"#utility.yul\":2558:2611   */\n      iszero\n      tag_279\n      jumpi\n        /* \"#utility.yul\":2607:2608   */\n      0x00\n        /* \"#utility.yul\":2604:2605   */\n      dup1\n        /* \"#utility.yul\":2597:2609   */\n      revert\n        /* \"#utility.yul\":2558:2611   */\n    tag_279:\n        /* \"#utility.yul\":2630:2672   */\n      tag_266\n        /* \"#utility.yul\":2664:2671   */\n      dup4\n        /* \"#utility.yul\":2653:2662   */\n      dup4\n        /* \"#utility.yul\":2630:2672   */\n      tag_247\n      jump\t// in\n        /* \"#utility.yul\":2683:2980   */\n    tag_79:\n        /* \"#utility.yul\":2773:2779   */\n      0x00\n        /* \"#utility.yul\":2781:2787   */\n      dup1\n        /* \"#utility.yul\":2834:2837   */\n      0x0180\n        /* \"#utility.yul\":2822:2831   */\n      dup4\n        /* \"#utility.yul\":2813:2820   */\n      dup6\n        /* \"#utility.yul\":2809:2832   */\n      sub\n        /* \"#utility.yul\":2805:2838   */\n      slt\n        /* \"#utility.yul\":2802:2855   */\n      iszero\n      tag_282\n      jumpi\n        /* \"#utility.yul\":2851:2852   */\n      0x00\n        /* \"#utility.yul\":2848:2849   */\n      dup1\n        /* \"#utility.yul\":2841:2853   */\n      revert\n        /* \"#utility.yul\":2802:2855   */\n    tag_282:\n        /* \"#utility.yul\":2874:2916   */\n      tag_283\n        /* \"#utility.yul\":2908:2915   */\n      dup5\n        /* \"#utility.yul\":2897:2906   */\n      dup5\n        /* \"#utility.yul\":2874:2916   */\n      tag_247\n      jump\t// in\n    tag_283:\n        /* \"#utility.yul\":2864:2916   */\n      swap2\n      pop\n        /* \"#utility.yul\":2935:2974   */\n      tag_270\n        /* \"#utility.yul\":2969:2972   */\n      0x0160\n        /* \"#utility.yul\":2958:2967   */\n      dup5\n        /* \"#utility.yul\":2954:2973   */\n      add\n        /* \"#utility.yul\":2935:2974   */\n      tag_240\n      jump\t// in\n        /* \"#utility.yul\":7002:8419   */\n    tag_37:\n        /* \"#utility.yul\":7211:7224   */\n      dup2\n      mload\n        /* \"#utility.yul\":7193:7225   */\n      dup2\n      mstore\n        /* \"#utility.yul\":7272:7276   */\n      0x20\n        /* \"#utility.yul\":7260:7277   */\n      dup1\n      dup4\n      add\n        /* \"#utility.yul\":7254:7278   */\n      mload\n        /* \"#utility.yul\":7180:7183   */\n      0x0160\n        /* \"#utility.yul\":7165:7184   */\n      dup4\n      add\n      swap2\n        /* \"#utility.yul\":7287:7341   */\n      tag_303\n      swap1\n        /* \"#utility.yul\":7320:7340   */\n      dup5\n      add\n        /* \"#utility.yul\":7254:7278   */\n      dup3\n      sub(shl(0xa0, 0x01), 0x01)\n        /* \"#utility.yul\":3051:3105   */\n      and\n        /* \"#utility.yul\":3039:3106   */\n      swap1\n      mstore\n        /* \"#utility.yul\":2985:3112   */\n      jump\n        /* \"#utility.yul\":7287:7341   */\n    tag_303:\n      pop\n        /* \"#utility.yul\":7397:7401   */\n      0x40\n        /* \"#utility.yul\":7389:7395   */\n      dup4\n        /* \"#utility.yul\":7385:7402   */\n      add\n        /* \"#utility.yul\":7379:7403   */\n      mload\n        /* \"#utility.yul\":7372:7376   */\n      0x40\n        /* \"#utility.yul\":7361:7370   */\n      dup4\n        /* \"#utility.yul\":7357:7377   */\n      add\n        /* \"#utility.yul\":7350:7404   */\n      mstore\n        /* \"#utility.yul\":7453:7457   */\n      0x60\n        /* \"#utility.yul\":7445:7451   */\n      dup4\n        /* \"#utility.yul\":7441:7458   */\n      add\n        /* \"#utility.yul\":7435:7459   */\n      mload\n        /* \"#utility.yul\":7468:7522   */\n      tag_304\n        /* \"#utility.yul\":7516:7520   */\n      0x60\n        /* \"#utility.yul\":7505:7514   */\n      dup5\n        /* \"#utility.yul\":7501:7521   */\n      add\n        /* \"#utility.yul\":7485:7499   */\n      dup3\n        /* \"#utility.yul\":3280:3284   */\n      0xff\n        /* \"#utility.yul\":3269:3285   */\n      and\n        /* \"#utility.yul\":3257:3286   */\n      swap1\n      mstore\n        /* \"#utility.yul\":3213:3288   */\n      jump\n        /* \"#utility.yul\":7468:7522   */\n    tag_304:\n      pop\n        /* \"#utility.yul\":7571:7575   */\n      0x80\n        /* \"#utility.yul\":7563:7569   */\n      dup4\n        /* \"#utility.yul\":7559:7576   */\n      add\n        /* \"#utility.yul\":7553:7577   */\n      mload\n        /* \"#utility.yul\":7586:7642   */\n      tag_305\n        /* \"#utility.yul\":7636:7640   */\n      0x80\n        /* \"#utility.yul\":7625:7634   */\n      dup5\n        /* \"#utility.yul\":7621:7641   */\n      add\n        /* \"#utility.yul\":7605:7619   */\n      dup3\n      sub(shl(0xa0, 0x01), 0x01)\n        /* \"#utility.yul\":3051:3105   */\n      and\n        /* \"#utility.yul\":3039:3106   */\n      swap1\n      mstore\n        /* \"#utility.yul\":2985:3112   */\n      jump\n        /* \"#utility.yul\":7586:7642   */\n    tag_305:\n      pop\n        /* \"#utility.yul\":7691:7695   */\n      0xa0\n        /* \"#utility.yul\":7683:7689   */\n      dup4\n        /* \"#utility.yul\":7679:7696   */\n      add\n        /* \"#utility.yul\":7673:7697   */\n      mload\n        /* \"#utility.yul\":7706:7759   */\n      tag_306\n        /* \"#utility.yul\":7753:7757   */\n      0xa0\n        /* \"#utility.yul\":7742:7751   */\n      dup5\n        /* \"#utility.yul\":7738:7758   */\n      add\n        /* \"#utility.yul\":7722:7736   */\n      dup3\n        /* \"#utility.yul\":3187:3200   */\n      iszero\n        /* \"#utility.yul\":3180:3201   */\n      iszero\n        /* \"#utility.yul\":3168:3202   */\n      swap1\n      mstore\n        /* \"#utility.yul\":3117:3208   */\n      jump\n        /* \"#utility.yul\":7706:7759   */\n    tag_306:\n      pop\n        /* \"#utility.yul\":7808:7812   */\n      0xc0\n        /* \"#utility.yul\":7800:7806   */\n      dup4\n        /* \"#utility.yul\":7796:7813   */\n      add\n        /* \"#utility.yul\":7790:7814   */\n      mload\n        /* \"#utility.yul\":7823:7876   */\n      tag_307\n        /* \"#utility.yul\":7870:7874   */\n      0xc0\n        /* \"#utility.yul\":7859:7868   */\n      dup5\n        /* \"#utility.yul\":7855:7875   */\n      add\n        /* \"#utility.yul\":7839:7853   */\n      dup3\n        /* \"#utility.yul\":3187:3200   */\n      iszero\n        /* \"#utility.yul\":3180:3201   */\n      iszero\n        /* \"#utility.yul\":3168:3202   */\n      swap1\n      mstore\n        /* \"#utility.yul\":3117:3208   */\n      jump\n        /* \"#utility.yul\":7823:7876   */\n    tag_307:\n      pop\n        /* \"#utility.yul\":7925:7929   */\n      0xe0\n        /* \"#utility.yul\":7917:7923   */\n      dup4\n        /* \"#utility.yul\":7913:7930   */\n      add\n        /* \"#utility.yul\":7907:7931   */\n      mload\n        /* \"#utility.yul\":7940:7993   */\n      tag_308\n        /* \"#utility.yul\":7987:7991   */\n      0xe0\n        /* \"#utility.yul\":7976:7985   */\n      dup5\n        /* \"#utility.yul\":7972:7992   */\n      add\n        /* \"#utility.yul\":7956:7970   */\n      dup3\n        /* \"#utility.yul\":3187:3200   */\n      iszero\n        /* \"#utility.yul\":3180:3201   */\n      iszero\n        /* \"#utility.yul\":3168:3202   */\n      swap1\n      mstore\n        /* \"#utility.yul\":3117:3208   */\n      jump\n        /* \"#utility.yul\":7940:7993   */\n    tag_308:\n      pop\n        /* \"#utility.yul\":8012:8018   */\n      0x0100\n        /* \"#utility.yul\":8055:8070   */\n      dup4\n      dup2\n      add\n        /* \"#utility.yul\":8049:8071   */\n      mload\n        /* \"#utility.yul\":3187:3200   */\n      iszero\n        /* \"#utility.yul\":3180:3201   */\n      iszero\n        /* \"#utility.yul\":8112:8130   */\n      swap1\n      dup4\n      add\n        /* \"#utility.yul\":3168:3202   */\n      mstore\n        /* \"#utility.yul\":8150:8156   */\n      0x0120\n        /* \"#utility.yul\":8193:8208   */\n      dup1\n      dup5\n      add\n        /* \"#utility.yul\":8187:8209   */\n      mload\n      sub(shl(0xa0, 0x01), 0x01)\n        /* \"#utility.yul\":3051:3105   */\n      swap1\n      dup2\n      and\n        /* \"#utility.yul\":8253:8271   */\n      swap2\n      dup5\n      add\n        /* \"#utility.yul\":3039:3106   */\n      swap2\n      swap1\n      swap2\n      mstore\n        /* \"#utility.yul\":8291:8297   */\n      0x0140\n        /* \"#utility.yul\":8334:8349   */\n      swap4\n      dup5\n      add\n        /* \"#utility.yul\":8328:8350   */\n      mload\n        /* \"#utility.yul\":3051:3105   */\n      and\n        /* \"#utility.yul\":8394:8412   */\n      swap3\n      swap1\n      swap2\n      add\n        /* \"#utility.yul\":3039:3106   */\n      swap2\n      swap1\n      swap2\n      mstore\n        /* \"#utility.yul\":7002:8419   */\n      swap1\n      jump\t// out\n        /* \"#utility.yul\":8424:8828   */\n    tag_251:\n        /* \"#utility.yul\":8491:8493   */\n      0x40\n        /* \"#utility.yul\":8485:8494   */\n      mload\n        /* \"#utility.yul\":8533:8539   */\n      0x0160\n        /* \"#utility.yul\":8521:8540   */\n      dup2\n      add\n        /* \"#utility.yul\":8570:8588   */\n      0xffffffffffffffff\n        /* \"#utility.yul\":8555:8589   */\n      dup2\n      gt\n        /* \"#utility.yul\":8591:8613   */\n      dup3\n      dup3\n      lt\n        /* \"#utility.yul\":8552:8614   */\n      or\n        /* \"#utility.yul\":8549:8791   */\n      iszero\n      tag_313\n      jumpi\n        /* \"#utility.yul\":8647:8724   */\n      0x4e487b7100000000000000000000000000000000000000000000000000000000\n        /* \"#utility.yul\":8644:8645   */\n      0x00\n        /* \"#utility.yul\":8637:8725   */\n      mstore\n        /* \"#utility.yul\":8748:8752   */\n      0x41\n        /* \"#utility.yul\":8745:8746   */\n      0x04\n        /* \"#utility.yul\":8738:8753   */\n      mstore\n        /* \"#utility.yul\":8776:8780   */\n      0x24\n        /* \"#utility.yul\":8773:8774   */\n      0x00\n        /* \"#utility.yul\":8766:8781   */\n      revert\n        /* \"#utility.yul\":8549:8791   */\n    tag_313:\n        /* \"#utility.yul\":8807:8809   */\n      0x40\n        /* \"#utility.yul\":8800:8822   */\n      mstore\n        /* \"#utility.yul\":8424:8828   */\n      swap1\n      jump\t// out\n        /* \"#utility.yul\":8833:8951   */\n    tag_246:\n        /* \"#utility.yul\":8919:8924   */\n      dup1\n        /* \"#utility.yul\":8912:8925   */\n      iszero\n        /* \"#utility.yul\":8905:8926   */\n      iszero\n        /* \"#utility.yul\":8898:8903   */\n      dup2\n        /* \"#utility.yul\":8895:8927   */\n      eq\n        /* \"#utility.yul\":8885:8945   */\n      tag_197\n      jumpi\n        /* \"#utility.yul\":8941:8942   */\n      0x00\n        /* \"#utility.yul\":8938:8939   */\n      dup1\n        /* \"#utility.yul\":8931:8943   */\n      revert\n\n    auxdata: 0xa2646970667358221220607b982eea6efedd3c0ddaa469c5c95d723f379ff7bace533e53d9b7e46aee6464736f6c63430008070033\n}\n",
				"bytecode": {
					"linkReferences": {},
					"object": "60806040523480156200001157600080fd5b50604051620021c4380380620021c4833981016040819052620000349162000083565b600380546001600160a01b039384166001600160a01b03199182161790915560048054929093169116179055620000bb565b80516001600160a01b03811681146200007e57600080fd5b919050565b600080604083850312156200009757600080fd5b620000a28362000066565b9150620000b26020840162000066565b90509250929050565b6120f980620000cb6000396000f3fe608060405234801561001057600080fd5b50600436106101825760003560e01c80639ed16583116100d8578063cda5469a1161008c578063dd895f4b11610066578063dd895f4b14610377578063e4cb141214610465578063ffd499b01461047857600080fd5b8063cda5469a1461031e578063d2c5549c146102d2578063db0822a11461036457600080fd5b8063b642a7c2116100bd578063b642a7c2146102e5578063b770f8d7146102f8578063cbb6ec491461030b57600080fd5b80639ed16583146102bf578063a9f48a8d146102d257600080fd5b806338c3c6a91161013a5780637ac73247116101145780637ac7324714610270578063885471d5146102835780639803ed361461029657600080fd5b806338c3c6a914610216578063492b71071461022957806369c552951461023c57600080fd5b80631536e7501161016b5780631536e750146101c55780632f17d5df146101d857806334c4b7541461020357600080fd5b806305d2acb51461018757806307eabf0e146101b0575b600080fd5b61019a610195366004611eaa565b61048b565b6040516101a79190611f90565b60405180910390f35b6101c36101be366004611ecc565b61061c565b005b6101c36101d3366004611f46565b610722565b6003546101eb906001600160a01b031681565b6040516001600160a01b0390911681526020016101a7565b6101c3610211366004611ecc565b610a16565b6101c3610224366004611ecc565b610bfe565b6004546101eb906001600160a01b031681565b6101eb61024a366004611ecc565b60016020908152600092835260408084209091529082529020546001600160a01b031681565b6101c361027e366004611eff565b610d40565b6101c3610291366004611ecc565b610e16565b6101eb6102a4366004611eaa565b6000602081905290815260409020546001600160a01b031681565b6101c36102cd366004611eaa565b610f22565b6101c36102e0366004611f63565b611044565b6101c36102f3366004611eaa565b61138a565b6101c3610306366004611f46565b611454565b6101c3610319366004611eaa565b611819565b61035461032c366004611eaa565b6001600160a01b0316600090815260026020526040902060030154600160a81b900460ff1690565b60405190151581526020016101a7565b6101c3610372366004611eaa565b6118e9565b610400610385366004611eaa565b600260208190526000918252604090912080546001820154928201546003830154600484015460059094015492946001600160a01b0390811694929360ff808416946101008504841694600160a81b8104831694600160b01b8204841694600160b81b8304851694600160c01b90930490921692811691168b565b604080519b8c526001600160a01b039a8b1660208d01528b019890985260ff90961660608a0152938716608089015291151560a0880152151560c0870152151560e08601521515610100850152821661012084015216610140820152610160016101a7565b6101c3610473366004611f46565b611a11565b6101c3610486366004611f46565b611c78565b6040805161016081018252600080825260208201819052918101829052606081018290526080810182905260a0810182905260c0810182905260e08101829052610100810182905261012081018290526101408101919091526001600160a01b038216600090815260026020526040902060030154600160c01b900460ff1615156001146105605760405162461bcd60e51b815260206004820152601a60248201527f7468652053545468696e6773206973206e6f742065786973747300000000000060448201526064015b60405180910390fd5b506001600160a01b039081166000908152600260208181526040928390208351610160810185528154815260018201548616928101929092529182015492810192909252600381015460ff808216606085015261010080830486166080860152600160a81b83048216151560a0860152600160b01b83048216151560c0860152600160b81b83048216151560e0860152600160c01b90920416151590830152600481015483166101208301526005015490911661014082015290565b6001600160a01b03828116600090815260026020526040902060050154163314801561066d57506001600160a01b038181166000908152600160209081526040808320868516845290915290205416155b6106df5760405162461bcd60e51b815260206004820152602360248201527f796f752068617665206e6f74207468652070726976696c65676573206f66207460448201527f68697300000000000000000000000000000000000000000000000000000000006064820152608401610557565b506001600160a01b0316600090815260026020526040902060030180547fffffffffffffffff00ffffffffffffffffffffffffffffffffffffffffffffff169055565b600360009054906101000a90046001600160a01b03166001600160a01b031663ab3acb5c6040518163ffffffff1660e01b815260040160206040518083038186803b15801561077057600080fd5b505afa158015610784573d6000803e3d6000fd5b505050506040513d601f19601f820116820180604052508101906107a89190611f29565b6107b157600080fd5b60808101516001600160a01b039081166000908152600260205260409020600401541633146108225760405162461bcd60e51b815260206004820152601660248201527f796f752068617665206e6f7420746865207269676874000000000000000000006044820152606401610557565b806060015160ff166004146108795760405162461bcd60e51b815260206004820181905260248201527f74686520636f696e2073636f7065206973206e6f74206a7573746966696564206044820152606401610557565b600060a0820181815260c0830182815260016101008086018281523361012088019081526080880180516001600160a01b0390811689526002602081815260409a8b90208c518155908c0151978101805498841673ffffffffffffffffffffffffffffffffffffffff19998a16179055998b0151908a015560608a015160038a01805493519951985160e08d015196511515600160c01b027fffffffffffffff00ffffffffffffffffffffffffffffffffffffffffffffffff971515600160b81b02979097167fffffffffffffff0000ffffffffffffffffffffffffffffffffffffffffffffff911515600160b01b0260ff60b01b199b1515600160a81b029b909b167fffffffffffffffffff0000ffffffffffffffffffffffffffffffffffffffffff9c86169099027fffffffffffffffffffffff00000000000000000000000000000000000000000090961660ff909416939093179490941799909916959095179690961716929092171790935591516004840180549183169184169190911790556101409093015160059092018054929093169116179055565b6004805460408051630a43f92960e11b815290516001600160a01b0390921692631487f252928282019260209290829003018186803b158015610a5857600080fd5b505afa158015610a6c573d6000803e3d6000fd5b505050506040513d601f19601f82011682018060405250810190610a909190611f29565b1515600114610a9e57600080fd5b6001600160a01b038181166000908152600160209081526040808320868516845290915290205416610b125760405162461bcd60e51b815260206004820152601a60248201527f7468652053545468696e6773206973206e6f74206578697374730000000000006044820152606401610557565b6001600160a01b038281166000908152602081905260409020541615610ba05760405162461bcd60e51b815260206004820152602160248201527f7468652053545468696e6773206973202065786973747320696e206d61726b6560448201527f74000000000000000000000000000000000000000000000000000000000000006064820152608401610557565b6001600160a01b039081166000908152600160209081526040808320948416835284825280832080548484529190932080549190941673ffffffffffffffffffffffffffffffffffffffff1991821617909355929092528154169055565b6004805460408051630a43f92960e11b815290516001600160a01b0390921692631487f252928282019260209290829003018186803b158015610c4057600080fd5b505afa158015610c54573d6000803e3d6000fd5b505050506040513d601f19601f82011682018060405250810190610c789190611f29565b1515600114610c8657600080fd5b6001600160a01b03818116600090815260016020908152604080832086851684529091529020541615610cfb5760405162461bcd60e51b815260206004820152601a60248201527f7468652053545468696e6773206973206e6f74206578697374730000000000006044820152606401610557565b6001600160a01b039081166000908152600160209081526040808320949093168252929092529020805473ffffffffffffffffffffffffffffffffffffffff19169055565b6004805460408051630a43f92960e11b815290516001600160a01b0390921692631487f252928282019260209290829003018186803b158015610d8257600080fd5b505afa158015610d96573d6000803e3d6000fd5b505050506040513d601f19601f82011682018060405250810190610dba9190611f29565b1515600114610dc857600080fd5b6001600160a01b0391909116600090815260026020526040902060030180547fffffffffffffffffffffffffffffffffffffffffffffffffffffffffffffff001660ff909216919091179055565b6001600160a01b038281166000908152600260205260409020600501541633148015610e6757506001600160a01b038181166000908152600160209081526040808320868516845290915290205416155b610ed95760405162461bcd60e51b815260206004820152602360248201527f796f752068617665206e6f74207468652070726976696c65676573206f66207460448201527f68697300000000000000000000000000000000000000000000000000000000006064820152608401610557565b506001600160a01b0316600090815260026020526040902060030180547fffffffffffffffff00ffffffffffffffffffffffffffffffffffffffffffffff16600160b81b179055565b600360009054906101000a90046001600160a01b03166001600160a01b031663ab3acb5c6040518163ffffffff1660e01b815260040160206040518083038186803b158015610f7057600080fd5b505afa158015610f84573d6000803e3d6000fd5b505050506040513d601f19601f82011682018060405250810190610fa89190611f29565b610fb157600080fd5b6001600160a01b0381811660009081526002602052604090206004015416331461101d5760405162461bcd60e51b815260206004820152601660248201527f796f752068617665206e6f7420746865207269676874000000000000000000006044820152606401610557565b6001600160a01b03166000908152600260205260409020600301805460ff60b01b19169055565b60808201516001600160a01b0316600090815260026020526040902060030154600160c01b900460ff1615156001148015906110a957506001600160a01b03818116600090815260016020908152604080832060808701518516845290915290205416155b6110f55760405162461bcd60e51b815260206004820152601660248201527f796f752068617665206e6f7420746865207269676874000000000000000000006044820152606401610557565b60008260a001901515908115158152505060018260c001901515908115158152505060008260e0019015159081151581525050600182610100019015159081151581525050808261012001906001600160a01b031690816001600160a01b031681525050338261014001906001600160a01b031690816001600160a01b031681525050816002600084608001516001600160a01b03166001600160a01b031681526020019081526020016000206000820151816000015560208201518160010160006101000a8154816001600160a01b0302191690836001600160a01b031602179055506040820151816002015560608201518160030160006101000a81548160ff021916908360ff16021790555060808201518160030160016101000a8154816001600160a01b0302191690836001600160a01b0316021790555060a08201518160030160156101000a81548160ff02191690831515021790555060c08201518160030160166101000a81548160ff02191690831515021790555060e08201518160030160176101000a81548160ff0219169083151502179055506101008201518160030160186101000a81548160ff0219169083151502179055506101208201518160040160006101000a8154816001600160a01b0302191690836001600160a01b031602179055506101408201518160050160006101000a8154816001600160a01b0302191690836001600160a01b03160217905550905050816080015160016000836001600160a01b03166001600160a01b03168152602001908152602001600020600084608001516001600160a01b03166001600160a01b0316815260200190815260200160002060006101000a8154816001600160a01b0302191690836001600160a01b031602179055505050565b6004805460408051630a43f92960e11b815290516001600160a01b0390921692631487f252928282019260209290829003018186803b1580156113cc57600080fd5b505afa1580156113e0573d6000803e3d6000fd5b505050506040513d601f19601f820116820180604052508101906114049190611f29565b151560011461141257600080fd5b6001600160a01b0316600090815260026020526040902060030180547fffffffffffffffffffff00ffffffffffffffffffffffffffffffffffffffffff169055565b6004805460408051630a43f92960e11b815290516001600160a01b0390921692631487f252928282019260209290829003018186803b15801561149657600080fd5b505afa1580156114aa573d6000803e3d6000fd5b505050506040513d601f19601f820116820180604052508101906114ce9190611f29565b15156001146114dc57600080fd5b60808101516001600160a01b0316600090815260026020526040902060030154600160c01b900460ff16151560011461176e57338161012001906001600160a01b031690816001600160a01b031681525050338161014001906001600160a01b031690816001600160a01b03168152505060008160a001901515908115158152505060008160c0019015159081151581525050600181610100019015159081151581525050806002600083608001516001600160a01b03166001600160a01b031681526020019081526020016000206000820151816000015560208201518160010160006101000a8154816001600160a01b0302191690836001600160a01b031602179055506040820151816002015560608201518160030160006101000a81548160ff021916908360ff16021790555060808201518160030160016101000a8154816001600160a01b0302191690836001600160a01b0316021790555060a08201518160030160156101000a81548160ff02191690831515021790555060c08201518160030160166101000a81548160ff02191690831515021790555060e08201518160030160176101000a81548160ff0219169083151502179055506101008201518160030160186101000a81548160ff0219169083151502179055506101208201518160040160006101000a8154816001600160a01b0302191690836001600160a01b031602179055506101408201518160050160006101000a8154816001600160a01b0302191690836001600160a01b03160217905550905050806080015160008083608001516001600160a01b03166001600160a01b0316815260200190815260200160002060006101000a8154816001600160a01b0302191690836001600160a01b0316021790555050565b60808101516001600160a01b0390811660009081526020819052604090205416156117db5760405162461bcd60e51b815260206004820181905260248201527f746865207374676f6f64732065786973747320696e20746865206d61726b65746044820152606401610557565b60808101516001600160a01b03166000818152602081905260409020805473ffffffffffffffffffffffffffffffffffffffff191690911790555b50565b6004805460408051630a43f92960e11b815290516001600160a01b0390921692631487f252928282019260209290829003018186803b15801561185b57600080fd5b505afa15801561186f573d6000803e3d6000fd5b505050506040513d601f19601f820116820180604052508101906118939190611f29565b15156001146118a157600080fd5b6001600160a01b0316600090815260026020526040902060030180547fffffffffffffffffffff00ffffffffffffffffffffffffffffffffffffffffff16600160a81b179055565b600360009054906101000a90046001600160a01b03166001600160a01b031663ab3acb5c6040518163ffffffff1660e01b815260040160206040518083038186803b15801561193757600080fd5b505afa15801561194b573d6000803e3d6000fd5b505050506040513d601f19601f8201168201806040525081019061196f9190611f29565b61197857600080fd5b6001600160a01b038181166000908152600260205260409020600401541633146119e45760405162461bcd60e51b815260206004820152601660248201527f796f752068617665206e6f7420746865207269676874000000000000000000006044820152606401610557565b6001600160a01b03166000908152600260205260409020600301805460ff60b01b1916600160b01b179055565b6004805460408051630a43f92960e11b815290516001600160a01b0390921692631487f252928282019260209290829003018186803b158015611a5357600080fd5b505afa158015611a67573d6000803e3d6000fd5b505050506040513d601f19601f82011682018060405250810190611a8b9190611f29565b1515600114611a9957600080fd5b60808101516001600160a01b0390811660009081526020819052604090205416611ac257600080fd5b600060a0820181815260c0830182815260016101008086018281526080870180516001600160a01b039081168852600260208181526040808b2060059081015485166101408e01908152865186168d528484529b8290208d518155928d0151988301805499861673ffffffffffffffffffffffffffffffffffffffff199a8b16179055908c01519282019290925560608b015160038201805495519a51995160e08e015197511515600160c01b027fffffffffffffff00ffffffffffffffffffffffffffffffffffffffffffffffff981515600160b81b02989098167fffffffffffffff0000ffffffffffffffffffffffffffffffffffffffffffffff911515600160b01b0260ff60b01b199c1515600160a81b029c909c167fffffffffffffffffff0000ffffffffffffffffffffffffffffffffffffffffff9d8816909a027fffffffffffffffffffffff00000000000000000000000000000000000000000090981660ff90941693909317969096179a909a16969096179790971792909216939093179190911790945561012090950151600483018054918716918316919091179055925191018054919093169116179055565b6004805460408051630a43f92960e11b815290516001600160a01b0390921692631487f252928282019260209290829003018186803b158015611cba57600080fd5b505afa158015611cce573d6000803e3d6000fd5b505050506040513d601f19601f82011682018060405250810190611cf29190611f29565b1515600114611d0057600080fd5b60808101516001600160a01b039081166000908152602081905260409020541615611d6d5760405162461bcd60e51b815260206004820152601a60248201527f7468652053545468696e6773206973206e6f74206578697374730000000000006044820152606401610557565b608001516001600160a01b03166000908152602081905260409020805473ffffffffffffffffffffffffffffffffffffffff19169055565b80356001600160a01b0381168114611dbc57600080fd5b919050565b8035611dbc816120b5565b60006101608284031215611ddf57600080fd5b611de7612064565b905081358152611df960208301611da5565b602082015260408201356040820152611e1460608301611e99565b6060820152611e2560808301611da5565b6080820152611e3660a08301611dc1565b60a0820152611e4760c08301611dc1565b60c0820152611e5860e08301611dc1565b60e0820152610100611e6b818401611dc1565b90820152610120611e7d838201611da5565b90820152610140611e8f838201611da5565b9082015292915050565b803560ff81168114611dbc57600080fd5b600060208284031215611ebc57600080fd5b611ec582611da5565b9392505050565b60008060408385031215611edf57600080fd5b611ee883611da5565b9150611ef660208401611da5565b90509250929050565b60008060408385031215611f1257600080fd5b611f1b83611da5565b9150611ef660208401611e99565b600060208284031215611f3b57600080fd5b8151611ec5816120b5565b60006101608284031215611f5957600080fd5b611ec58383611dcc565b6000806101808385031215611f7757600080fd5b611f818484611dcc565b9150611ef66101608401611da5565b81518152602080830151610160830191611fb4908401826001600160a01b03169052565b50604083015160408301526060830151611fd3606084018260ff169052565b506080830151611fee60808401826001600160a01b03169052565b5060a083015161200260a084018215159052565b5060c083015161201660c084018215159052565b5060e083015161202a60e084018215159052565b5061010083810151151590830152610120808401516001600160a01b03908116918401919091526101409384015116929091019190915290565b604051610160810167ffffffffffffffff811182821017156120af577f4e487b7100000000000000000000000000000000000000000000000000000000600052604160045260246000fd5b60405290565b801515811461181657600080fdfea2646970667358221220607b982eea6efedd3c0ddaa469c5c95d723f379ff7bace533e53d9b7e46aee6464736f6c63430008070033",
					"opcodes": "PUSH1 0x80 PUSH1 0x40 MSTORE CALLVALUE DUP1 ISZERO PUSH3 0x11 JUMPI PUSH1 0x0 DUP1 REVERT JUMPDEST POP PUSH1 0x40 MLOAD PUSH3 0x21C4 CODESIZE SUB DUP1 PUSH3 0x21C4 DUP4 CODECOPY DUP2 ADD PUSH1 0x40 DUP2 SWAP1 MSTORE PUSH3 0x34 SWAP2 PUSH3 0x83 JUMP JUMPDEST PUSH1 0x3 DUP1 SLOAD PUSH1 0x1 PUSH1 0x1 PUSH1 0xA0 SHL SUB SWAP4 DUP5 AND PUSH1 0x1 PUSH1 0x1 PUSH1 0xA0 SHL SUB NOT SWAP2 DUP3 AND OR SWAP1 SWAP2 SSTORE PUSH1 0x4 DUP1 SLOAD SWAP3 SWAP1 SWAP4 AND SWAP2 AND OR SWAP1 SSTORE PUSH3 0xBB JUMP JUMPDEST DUP1 MLOAD PUSH1 0x1 PUSH1 0x1 PUSH1 0xA0 SHL SUB DUP2 AND DUP2 EQ PUSH3 0x7E JUMPI PUSH1 0x0 DUP1 REVERT JUMPDEST SWAP2 SWAP1 POP JUMP JUMPDEST PUSH1 0x0 DUP1 PUSH1 0x40 DUP4 DUP6 SUB SLT ISZERO PUSH3 0x97 JUMPI PUSH1 0x0 DUP1 REVERT JUMPDEST PUSH3 0xA2 DUP4 PUSH3 0x66 JUMP JUMPDEST SWAP2 POP PUSH3 0xB2 PUSH1 0x20 DUP5 ADD PUSH3 0x66 JUMP JUMPDEST SWAP1 POP SWAP3 POP SWAP3 SWAP1 POP JUMP JUMPDEST PUSH2 0x20F9 DUP1 PUSH3 0xCB PUSH1 0x0 CODECOPY PUSH1 0x0 RETURN INVALID PUSH1 0x80 PUSH1 0x40 MSTORE CALLVALUE DUP1 ISZERO PUSH2 0x10 JUMPI PUSH1 0x0 DUP1 REVERT JUMPDEST POP PUSH1 0x4 CALLDATASIZE LT PUSH2 0x182 JUMPI PUSH1 0x0 CALLDATALOAD PUSH1 0xE0 SHR DUP1 PUSH4 0x9ED16583 GT PUSH2 0xD8 JUMPI DUP1 PUSH4 0xCDA5469A GT PUSH2 0x8C JUMPI DUP1 PUSH4 0xDD895F4B GT PUSH2 0x66 JUMPI DUP1 PUSH4 0xDD895F4B EQ PUSH2 0x377 JUMPI DUP1 PUSH4 0xE4CB1412 EQ PUSH2 0x465 JUMPI DUP1 PUSH4 0xFFD499B0 EQ PUSH2 0x478 JUMPI PUSH1 0x0 DUP1 REVERT JUMPDEST DUP1 PUSH4 0xCDA5469A EQ PUSH2 0x31E JUMPI DUP1 PUSH4 0xD2C5549C EQ PUSH2 0x2D2 JUMPI DUP1 PUSH4 0xDB0822A1 EQ PUSH2 0x364 JUMPI PUSH1 0x0 DUP1 REVERT JUMPDEST DUP1 PUSH4 0xB642A7C2 GT PUSH2 0xBD JUMPI DUP1 PUSH4 0xB642A7C2 EQ PUSH2 0x2E5 JUMPI DUP1 PUSH4 0xB770F8D7 EQ PUSH2 0x2F8 JUMPI DUP1 PUSH4 0xCBB6EC49 EQ PUSH2 0x30B JUMPI PUSH1 0x0 DUP1 REVERT JUMPDEST DUP1 PUSH4 0x9ED16583 EQ PUSH2 0x2BF JUMPI DUP1 PUSH4 0xA9F48A8D EQ PUSH2 0x2D2 JUMPI PUSH1 0x0 DUP1 REVERT JUMPDEST DUP1 PUSH4 0x38C3C6A9 GT PUSH2 0x13A JUMPI DUP1 PUSH4 0x7AC73247 GT PUSH2 0x114 JUMPI DUP1 PUSH4 0x7AC73247 EQ PUSH2 0x270 JUMPI DUP1 PUSH4 0x885471D5 EQ PUSH2 0x283 JUMPI DUP1 PUSH4 0x9803ED36 EQ PUSH2 0x296 JUMPI PUSH1 0x0 DUP1 REVERT JUMPDEST DUP1 PUSH4 0x38C3C6A9 EQ PUSH2 0x216 JUMPI DUP1 PUSH4 0x492B7107 EQ PUSH2 0x229 JUMPI DUP1 PUSH4 0x69C55295 EQ PUSH2 0x23C JUMPI PUSH1 0x0 DUP1 REVERT JUMPDEST DUP1 PUSH4 0x1536E750 GT PUSH2 0x16B JUMPI DUP1 PUSH4 0x1536E750 EQ PUSH2 0x1C5 JUMPI DUP1 PUSH4 0x2F17D5DF EQ PUSH2 0x1D8 JUMPI DUP1 PUSH4 0x34C4B754 EQ PUSH2 0x203 JUMPI PUSH1 0x0 DUP1 REVERT JUMPDEST DUP1 PUSH4 0x5D2ACB5 EQ PUSH2 0x187 JUMPI DUP1 PUSH4 0x7EABF0E EQ PUSH2 0x1B0 JUMPI JUMPDEST PUSH1 0x0 DUP1 REVERT JUMPDEST PUSH2 0x19A PUSH2 0x195 CALLDATASIZE PUSH1 0x4 PUSH2 0x1EAA JUMP JUMPDEST PUSH2 0x48B JUMP JUMPDEST PUSH1 0x40 MLOAD PUSH2 0x1A7 SWAP2 SWAP1 PUSH2 0x1F90 JUMP JUMPDEST PUSH1 0x40 MLOAD DUP1 SWAP2 SUB SWAP1 RETURN JUMPDEST PUSH2 0x1C3 PUSH2 0x1BE CALLDATASIZE PUSH1 0x4 PUSH2 0x1ECC JUMP JUMPDEST PUSH2 0x61C JUMP JUMPDEST STOP JUMPDEST PUSH2 0x1C3 PUSH2 0x1D3 CALLDATASIZE PUSH1 0x4 PUSH2 0x1F46 JUMP JUMPDEST PUSH2 0x722 JUMP JUMPDEST PUSH1 0x3 SLOAD PUSH2 0x1EB SWAP1 PUSH1 0x1 PUSH1 0x1 PUSH1 0xA0 SHL SUB AND DUP2 JUMP JUMPDEST PUSH1 0x40 MLOAD PUSH1 0x1 PUSH1 0x1 PUSH1 0xA0 SHL SUB SWAP1 SWAP2 AND DUP2 MSTORE PUSH1 0x20 ADD PUSH2 0x1A7 JUMP JUMPDEST PUSH2 0x1C3 PUSH2 0x211 CALLDATASIZE PUSH1 0x4 PUSH2 0x1ECC JUMP JUMPDEST PUSH2 0xA16 JUMP JUMPDEST PUSH2 0x1C3 PUSH2 0x224 CALLDATASIZE PUSH1 0x4 PUSH2 0x1ECC JUMP JUMPDEST PUSH2 0xBFE JUMP JUMPDEST PUSH1 0x4 SLOAD PUSH2 0x1EB SWAP1 PUSH1 0x1 PUSH1 0x1 PUSH1 0xA0 SHL SUB AND DUP2 JUMP JUMPDEST PUSH2 0x1EB PUSH2 0x24A CALLDATASIZE PUSH1 0x4 PUSH2 0x1ECC JUMP JUMPDEST PUSH1 0x1 PUSH1 0x20 SWAP1 DUP2 MSTORE PUSH1 0x0 SWAP3 DUP4 MSTORE PUSH1 0x40 DUP1 DUP5 KECCAK256 SWAP1 SWAP2 MSTORE SWAP1 DUP3 MSTORE SWAP1 KECCAK256 SLOAD PUSH1 0x1 PUSH1 0x1 PUSH1 0xA0 SHL SUB AND DUP2 JUMP JUMPDEST PUSH2 0x1C3 PUSH2 0x27E CALLDATASIZE PUSH1 0x4 PUSH2 0x1EFF JUMP JUMPDEST PUSH2 0xD40 JUMP JUMPDEST PUSH2 0x1C3 PUSH2 0x291 CALLDATASIZE PUSH1 0x4 PUSH2 0x1ECC JUMP JUMPDEST PUSH2 0xE16 JUMP JUMPDEST PUSH2 0x1EB PUSH2 0x2A4 CALLDATASIZE PUSH1 0x4 PUSH2 0x1EAA JUMP JUMPDEST PUSH1 0x0 PUSH1 0x20 DUP2 SWAP1 MSTORE SWAP1 DUP2 MSTORE PUSH1 0x40 SWAP1 KECCAK256 SLOAD PUSH1 0x1 PUSH1 0x1 PUSH1 0xA0 SHL SUB AND DUP2 JUMP JUMPDEST PUSH2 0x1C3 PUSH2 0x2CD CALLDATASIZE PUSH1 0x4 PUSH2 0x1EAA JUMP JUMPDEST PUSH2 0xF22 JUMP JUMPDEST PUSH2 0x1C3 PUSH2 0x2E0 CALLDATASIZE PUSH1 0x4 PUSH2 0x1F63 JUMP JUMPDEST PUSH2 0x1044 JUMP JUMPDEST PUSH2 0x1C3 PUSH2 0x2F3 CALLDATASIZE PUSH1 0x4 PUSH2 0x1EAA JUMP JUMPDEST PUSH2 0x138A JUMP JUMPDEST PUSH2 0x1C3 PUSH2 0x306 CALLDATASIZE PUSH1 0x4 PUSH2 0x1F46 JUMP JUMPDEST PUSH2 0x1454 JUMP JUMPDEST PUSH2 0x1C3 PUSH2 0x319 CALLDATASIZE PUSH1 0x4 PUSH2 0x1EAA JUMP JUMPDEST PUSH2 0x1819 JUMP JUMPDEST PUSH2 0x354 PUSH2 0x32C CALLDATASIZE PUSH1 0x4 PUSH2 0x1EAA JUMP JUMPDEST PUSH1 0x1 PUSH1 0x1 PUSH1 0xA0 SHL SUB AND PUSH1 0x0 SWAP1 DUP2 MSTORE PUSH1 0x2 PUSH1 0x20 MSTORE PUSH1 0x40 SWAP1 KECCAK256 PUSH1 0x3 ADD SLOAD PUSH1 0x1 PUSH1 0xA8 SHL SWAP1 DIV PUSH1 0xFF AND SWAP1 JUMP JUMPDEST PUSH1 0x40 MLOAD SWAP1 ISZERO ISZERO DUP2 MSTORE PUSH1 0x20 ADD PUSH2 0x1A7 JUMP JUMPDEST PUSH2 0x1C3 PUSH2 0x372 CALLDATASIZE PUSH1 0x4 PUSH2 0x1EAA JUMP JUMPDEST PUSH2 0x18E9 JUMP JUMPDEST PUSH2 0x400 PUSH2 0x385 CALLDATASIZE PUSH1 0x4 PUSH2 0x1EAA JUMP JUMPDEST PUSH1 0x2 PUSH1 0x20 DUP2 SWAP1 MSTORE PUSH1 0x0 SWAP2 DUP3 MSTORE PUSH1 0x40 SWAP1 SWAP2 KECCAK256 DUP1 SLOAD PUSH1 0x1 DUP3 ADD SLOAD SWAP3 DUP3 ADD SLOAD PUSH1 0x3 DUP4 ADD SLOAD PUSH1 0x4 DUP5 ADD SLOAD PUSH1 0x5 SWAP1 SWAP5 ADD SLOAD SWAP3 SWAP5 PUSH1 0x1 PUSH1 0x1 PUSH1 0xA0 SHL SUB SWAP1 DUP2 AND SWAP5 SWAP3 SWAP4 PUSH1 0xFF DUP1 DUP5 AND SWAP5 PUSH2 0x100 DUP6 DIV DUP5 AND SWAP5 PUSH1 0x1 PUSH1 0xA8 SHL DUP2 DIV DUP4 AND SWAP5 PUSH1 0x1 PUSH1 0xB0 SHL DUP3 DIV DUP5 AND SWAP5 PUSH1 0x1 PUSH1 0xB8 SHL DUP4 DIV DUP6 AND SWAP5 PUSH1 0x1 PUSH1 0xC0 SHL SWAP1 SWAP4 DIV SWAP1 SWAP3 AND SWAP3 DUP2 AND SWAP2 AND DUP12 JUMP JUMPDEST PUSH1 0x40 DUP1 MLOAD SWAP12 DUP13 MSTORE PUSH1 0x1 PUSH1 0x1 PUSH1 0xA0 SHL SUB SWAP11 DUP12 AND PUSH1 0x20 DUP14 ADD MSTORE DUP12 ADD SWAP9 SWAP1 SWAP9 MSTORE PUSH1 0xFF SWAP1 SWAP7 AND PUSH1 0x60 DUP11 ADD MSTORE SWAP4 DUP8 AND PUSH1 0x80 DUP10 ADD MSTORE SWAP2 ISZERO ISZERO PUSH1 0xA0 DUP9 ADD MSTORE ISZERO ISZERO PUSH1 0xC0 DUP8 ADD MSTORE ISZERO ISZERO PUSH1 0xE0 DUP7 ADD MSTORE ISZERO ISZERO PUSH2 0x100 DUP6 ADD MSTORE DUP3 AND PUSH2 0x120 DUP5 ADD MSTORE AND PUSH2 0x140 DUP3 ADD MSTORE PUSH2 0x160 ADD PUSH2 0x1A7 JUMP JUMPDEST PUSH2 0x1C3 PUSH2 0x473 CALLDATASIZE PUSH1 0x4 PUSH2 0x1F46 JUMP JUMPDEST PUSH2 0x1A11 JUMP JUMPDEST PUSH2 0x1C3 PUSH2 0x486 CALLDATASIZE PUSH1 0x4 PUSH2 0x1F46 JUMP JUMPDEST PUSH2 0x1C78 JUMP JUMPDEST PUSH1 0x40 DUP1 MLOAD PUSH2 0x160 DUP2 ADD DUP3 MSTORE PUSH1 0x0 DUP1 DUP3 MSTORE PUSH1 0x20 DUP3 ADD DUP2 SWAP1 MSTORE SWAP2 DUP2 ADD DUP3 SWAP1 MSTORE PUSH1 0x60 DUP2 ADD DUP3 SWAP1 MSTORE PUSH1 0x80 DUP2 ADD DUP3 SWAP1 MSTORE PUSH1 0xA0 DUP2 ADD DUP3 SWAP1 MSTORE PUSH1 0xC0 DUP2 ADD DUP3 SWAP1 MSTORE PUSH1 0xE0 DUP2 ADD DUP3 SWAP1 MSTORE PUSH2 0x100 DUP2 ADD DUP3 SWAP1 MSTORE PUSH2 0x120 DUP2 ADD DUP3 SWAP1 MSTORE PUSH2 0x140 DUP2 ADD SWAP2 SWAP1 SWAP2 MSTORE PUSH1 0x1 PUSH1 0x1 PUSH1 0xA0 SHL SUB DUP3 AND PUSH1 0x0 SWAP1 DUP2 MSTORE PUSH1 0x2 PUSH1 0x20 MSTORE PUSH1 0x40 SWAP1 KECCAK256 PUSH1 0x3 ADD SLOAD PUSH1 0x1 PUSH1 0xC0 SHL SWAP1 DIV PUSH1 0xFF AND ISZERO ISZERO PUSH1 0x1 EQ PUSH2 0x560 JUMPI PUSH1 0x40 MLOAD PUSH3 0x461BCD PUSH1 0xE5 SHL DUP2 MSTORE PUSH1 0x20 PUSH1 0x4 DUP3 ADD MSTORE PUSH1 0x1A PUSH1 0x24 DUP3 ADD MSTORE PUSH32 0x7468652053545468696E6773206973206E6F7420657869737473000000000000 PUSH1 0x44 DUP3 ADD MSTORE PUSH1 0x64 ADD JUMPDEST PUSH1 0x40 MLOAD DUP1 SWAP2 SUB SWAP1 REVERT JUMPDEST POP PUSH1 0x1 PUSH1 0x1 PUSH1 0xA0 SHL SUB SWAP1 DUP2 AND PUSH1 0x0 SWAP1 DUP2 MSTORE PUSH1 0x2 PUSH1 0x20 DUP2 DUP2 MSTORE PUSH1 0x40 SWAP3 DUP4 SWAP1 KECCAK256 DUP4 MLOAD PUSH2 0x160 DUP2 ADD DUP6 MSTORE DUP2 SLOAD DUP2 MSTORE PUSH1 0x1 DUP3 ADD SLOAD DUP7 AND SWAP3 DUP2 ADD SWAP3 SWAP1 SWAP3 MSTORE SWAP2 DUP3 ADD SLOAD SWAP3 DUP2 ADD SWAP3 SWAP1 SWAP3 MSTORE PUSH1 0x3 DUP2 ADD SLOAD PUSH1 0xFF DUP1 DUP3 AND PUSH1 0x60 DUP6 ADD MSTORE PUSH2 0x100 DUP1 DUP4 DIV DUP7 AND PUSH1 0x80 DUP7 ADD MSTORE PUSH1 0x1 PUSH1 0xA8 SHL DUP4 DIV DUP3 AND ISZERO ISZERO PUSH1 0xA0 DUP7 ADD MSTORE PUSH1 0x1 PUSH1 0xB0 SHL DUP4 DIV DUP3 AND ISZERO ISZERO PUSH1 0xC0 DUP7 ADD MSTORE PUSH1 0x1 PUSH1 0xB8 SHL DUP4 DIV DUP3 AND ISZERO ISZERO PUSH1 0xE0 DUP7 ADD MSTORE PUSH1 0x1 PUSH1 0xC0 SHL SWAP1 SWAP3 DIV AND ISZERO ISZERO SWAP1 DUP4 ADD MSTORE PUSH1 0x4 DUP2 ADD SLOAD DUP4 AND PUSH2 0x120 DUP4 ADD MSTORE PUSH1 0x5 ADD SLOAD SWAP1 SWAP2 AND PUSH2 0x140 DUP3 ADD MSTORE SWAP1 JUMP JUMPDEST PUSH1 0x1 PUSH1 0x1 PUSH1 0xA0 SHL SUB DUP3 DUP2 AND PUSH1 0x0 SWAP1 DUP2 MSTORE PUSH1 0x2 PUSH1 0x20 MSTORE PUSH1 0x40 SWAP1 KECCAK256 PUSH1 0x5 ADD SLOAD AND CALLER EQ DUP1 ISZERO PUSH2 0x66D JUMPI POP PUSH1 0x1 PUSH1 0x1 PUSH1 0xA0 SHL SUB DUP2 DUP2 AND PUSH1 0x0 SWAP1 DUP2 MSTORE PUSH1 0x1 PUSH1 0x20 SWAP1 DUP2 MSTORE PUSH1 0x40 DUP1 DUP4 KECCAK256 DUP7 DUP6 AND DUP5 MSTORE SWAP1 SWAP2 MSTORE SWAP1 KECCAK256 SLOAD AND ISZERO JUMPDEST PUSH2 0x6DF JUMPI PUSH1 0x40 MLOAD PUSH3 0x461BCD PUSH1 0xE5 SHL DUP2 MSTORE PUSH1 0x20 PUSH1 0x4 DUP3 ADD MSTORE PUSH1 0x23 PUSH1 0x24 DUP3 ADD MSTORE PUSH32 0x796F752068617665206E6F74207468652070726976696C65676573206F662074 PUSH1 0x44 DUP3 ADD MSTORE PUSH32 0x6869730000000000000000000000000000000000000000000000000000000000 PUSH1 0x64 DUP3 ADD MSTORE PUSH1 0x84 ADD PUSH2 0x557 JUMP JUMPDEST POP PUSH1 0x1 PUSH1 0x1 PUSH1 0xA0 SHL SUB AND PUSH1 0x0 SWAP1 DUP2 MSTORE PUSH1 0x2 PUSH1 0x20 MSTORE PUSH1 0x40 SWAP1 KECCAK256 PUSH1 0x3 ADD DUP1 SLOAD PUSH32 0xFFFFFFFFFFFFFFFF00FFFFFFFFFFFFFFFFFFFFFFFFFFFFFFFFFFFFFFFFFFFFFF AND SWAP1 SSTORE JUMP JUMPDEST PUSH1 0x3 PUSH1 0x0 SWAP1 SLOAD SWAP1 PUSH2 0x100 EXP SWAP1 DIV PUSH1 0x1 PUSH1 0x1 PUSH1 0xA0 SHL SUB AND PUSH1 0x1 PUSH1 0x1 PUSH1 0xA0 SHL SUB AND PUSH4 0xAB3ACB5C PUSH1 0x40 MLOAD DUP2 PUSH4 0xFFFFFFFF AND PUSH1 0xE0 SHL DUP2 MSTORE PUSH1 0x4 ADD PUSH1 0x20 PUSH1 0x40 MLOAD DUP1 DUP4 SUB DUP2 DUP7 DUP1 EXTCODESIZE ISZERO DUP1 ISZERO PUSH2 0x770 JUMPI PUSH1 0x0 DUP1 REVERT JUMPDEST POP GAS STATICCALL ISZERO DUP1 ISZERO PUSH2 0x784 JUMPI RETURNDATASIZE PUSH1 0x0 DUP1 RETURNDATACOPY RETURNDATASIZE PUSH1 0x0 REVERT JUMPDEST POP POP POP POP PUSH1 0x40 MLOAD RETURNDATASIZE PUSH1 0x1F NOT PUSH1 0x1F DUP3 ADD AND DUP3 ADD DUP1 PUSH1 0x40 MSTORE POP DUP2 ADD SWAP1 PUSH2 0x7A8 SWAP2 SWAP1 PUSH2 0x1F29 JUMP JUMPDEST PUSH2 0x7B1 JUMPI PUSH1 0x0 DUP1 REVERT JUMPDEST PUSH1 0x80 DUP2 ADD MLOAD PUSH1 0x1 PUSH1 0x1 PUSH1 0xA0 SHL SUB SWAP1 DUP2 AND PUSH1 0x0 SWAP1 DUP2 MSTORE PUSH1 0x2 PUSH1 0x20 MSTORE PUSH1 0x40 SWAP1 KECCAK256 PUSH1 0x4 ADD SLOAD AND CALLER EQ PUSH2 0x822 JUMPI PUSH1 0x40 MLOAD PUSH3 0x461BCD PUSH1 0xE5 SHL DUP2 MSTORE PUSH1 0x20 PUSH1 0x4 DUP3 ADD MSTORE PUSH1 0x16 PUSH1 0x24 DUP3 ADD MSTORE PUSH32 0x796F752068617665206E6F742074686520726967687400000000000000000000 PUSH1 0x44 DUP3 ADD MSTORE PUSH1 0x64 ADD PUSH2 0x557 JUMP JUMPDEST DUP1 PUSH1 0x60 ADD MLOAD PUSH1 0xFF AND PUSH1 0x4 EQ PUSH2 0x879 JUMPI PUSH1 0x40 MLOAD PUSH3 0x461BCD PUSH1 0xE5 SHL DUP2 MSTORE PUSH1 0x20 PUSH1 0x4 DUP3 ADD DUP2 SWAP1 MSTORE PUSH1 0x24 DUP3 ADD MSTORE PUSH32 0x74686520636F696E2073636F7065206973206E6F74206A757374696669656420 PUSH1 0x44 DUP3 ADD MSTORE PUSH1 0x64 ADD PUSH2 0x557 JUMP JUMPDEST PUSH1 0x0 PUSH1 0xA0 DUP3 ADD DUP2 DUP2 MSTORE PUSH1 0xC0 DUP4 ADD DUP3 DUP2 MSTORE PUSH1 0x1 PUSH2 0x100 DUP1 DUP7 ADD DUP3 DUP2 MSTORE CALLER PUSH2 0x120 DUP9 ADD SWAP1 DUP2 MSTORE PUSH1 0x80 DUP9 ADD DUP1 MLOAD PUSH1 0x1 PUSH1 0x1 PUSH1 0xA0 SHL SUB SWAP1 DUP2 AND DUP10 MSTORE PUSH1 0x2 PUSH1 0x20 DUP2 DUP2 MSTORE PUSH1 0x40 SWAP11 DUP12 SWAP1 KECCAK256 DUP13 MLOAD DUP2 SSTORE SWAP1 DUP13 ADD MLOAD SWAP8 DUP2 ADD DUP1 SLOAD SWAP9 DUP5 AND PUSH20 0xFFFFFFFFFFFFFFFFFFFFFFFFFFFFFFFFFFFFFFFF NOT SWAP10 DUP11 AND OR SWAP1 SSTORE SWAP10 DUP12 ADD MLOAD SWAP1 DUP11 ADD SSTORE PUSH1 0x60 DUP11 ADD MLOAD PUSH1 0x3 DUP11 ADD DUP1 SLOAD SWAP4 MLOAD SWAP10 MLOAD SWAP9 MLOAD PUSH1 0xE0 DUP14 ADD MLOAD SWAP7 MLOAD ISZERO ISZERO PUSH1 0x1 PUSH1 0xC0 SHL MUL PUSH32 0xFFFFFFFFFFFFFF00FFFFFFFFFFFFFFFFFFFFFFFFFFFFFFFFFFFFFFFFFFFFFFFF SWAP8 ISZERO ISZERO PUSH1 0x1 PUSH1 0xB8 SHL MUL SWAP8 SWAP1 SWAP8 AND PUSH32 0xFFFFFFFFFFFFFF0000FFFFFFFFFFFFFFFFFFFFFFFFFFFFFFFFFFFFFFFFFFFFFF SWAP2 ISZERO ISZERO PUSH1 0x1 PUSH1 0xB0 SHL MUL PUSH1 0xFF PUSH1 0xB0 SHL NOT SWAP12 ISZERO ISZERO PUSH1 0x1 PUSH1 0xA8 SHL MUL SWAP12 SWAP1 SWAP12 AND PUSH32 0xFFFFFFFFFFFFFFFFFF0000FFFFFFFFFFFFFFFFFFFFFFFFFFFFFFFFFFFFFFFFFF SWAP13 DUP7 AND SWAP1 SWAP10 MUL PUSH32 0xFFFFFFFFFFFFFFFFFFFFFF000000000000000000000000000000000000000000 SWAP1 SWAP7 AND PUSH1 0xFF SWAP1 SWAP5 AND SWAP4 SWAP1 SWAP4 OR SWAP5 SWAP1 SWAP5 OR SWAP10 SWAP1 SWAP10 AND SWAP6 SWAP1 SWAP6 OR SWAP7 SWAP1 SWAP7 OR AND SWAP3 SWAP1 SWAP3 OR OR SWAP1 SWAP4 SSTORE SWAP2 MLOAD PUSH1 0x4 DUP5 ADD DUP1 SLOAD SWAP2 DUP4 AND SWAP2 DUP5 AND SWAP2 SWAP1 SWAP2 OR SWAP1 SSTORE PUSH2 0x140 SWAP1 SWAP4 ADD MLOAD PUSH1 0x5 SWAP1 SWAP3 ADD DUP1 SLOAD SWAP3 SWAP1 SWAP4 AND SWAP2 AND OR SWAP1 SSTORE JUMP JUMPDEST PUSH1 0x4 DUP1 SLOAD PUSH1 0x40 DUP1 MLOAD PUSH4 0xA43F929 PUSH1 0xE1 SHL DUP2 MSTORE SWAP1 MLOAD PUSH1 0x1 PUSH1 0x1 PUSH1 0xA0 SHL SUB SWAP1 SWAP3 AND SWAP3 PUSH4 0x1487F252 SWAP3 DUP3 DUP3 ADD SWAP3 PUSH1 0x20 SWAP3 SWAP1 DUP3 SWAP1 SUB ADD DUP2 DUP7 DUP1 EXTCODESIZE ISZERO DUP1 ISZERO PUSH2 0xA58 JUMPI PUSH1 0x0 DUP1 REVERT JUMPDEST POP GAS STATICCALL ISZERO DUP1 ISZERO PUSH2 0xA6C JUMPI RETURNDATASIZE PUSH1 0x0 DUP1 RETURNDATACOPY RETURNDATASIZE PUSH1 0x0 REVERT JUMPDEST POP POP POP POP PUSH1 0x40 MLOAD RETURNDATASIZE PUSH1 0x1F NOT PUSH1 0x1F DUP3 ADD AND DUP3 ADD DUP1 PUSH1 0x40 MSTORE POP DUP2 ADD SWAP1 PUSH2 0xA90 SWAP2 SWAP1 PUSH2 0x1F29 JUMP JUMPDEST ISZERO ISZERO PUSH1 0x1 EQ PUSH2 0xA9E JUMPI PUSH1 0x0 DUP1 REVERT JUMPDEST PUSH1 0x1 PUSH1 0x1 PUSH1 0xA0 SHL SUB DUP2 DUP2 AND PUSH1 0x0 SWAP1 DUP2 MSTORE PUSH1 0x1 PUSH1 0x20 SWAP1 DUP2 MSTORE PUSH1 0x40 DUP1 DUP4 KECCAK256 DUP7 DUP6 AND DUP5 MSTORE SWAP1 SWAP2 MSTORE SWAP1 KECCAK256 SLOAD AND PUSH2 0xB12 JUMPI PUSH1 0x40 MLOAD PUSH3 0x461BCD PUSH1 0xE5 SHL DUP2 MSTORE PUSH1 0x20 PUSH1 0x4 DUP3 ADD MSTORE PUSH1 0x1A PUSH1 0x24 DUP3 ADD MSTORE PUSH32 0x7468652053545468696E6773206973206E6F7420657869737473000000000000 PUSH1 0x44 DUP3 ADD MSTORE PUSH1 0x64 ADD PUSH2 0x557 JUMP JUMPDEST PUSH1 0x1 PUSH1 0x1 PUSH1 0xA0 SHL SUB DUP3 DUP2 AND PUSH1 0x0 SWAP1 DUP2 MSTORE PUSH1 0x20 DUP2 SWAP1 MSTORE PUSH1 0x40 SWAP1 KECCAK256 SLOAD AND ISZERO PUSH2 0xBA0 JUMPI PUSH1 0x40 MLOAD PUSH3 0x461BCD PUSH1 0xE5 SHL DUP2 MSTORE PUSH1 0x20 PUSH1 0x4 DUP3 ADD MSTORE PUSH1 0x21 PUSH1 0x24 DUP3 ADD MSTORE PUSH32 0x7468652053545468696E6773206973202065786973747320696E206D61726B65 PUSH1 0x44 DUP3 ADD MSTORE PUSH32 0x7400000000000000000000000000000000000000000000000000000000000000 PUSH1 0x64 DUP3 ADD MSTORE PUSH1 0x84 ADD PUSH2 0x557 JUMP JUMPDEST PUSH1 0x1 PUSH1 0x1 PUSH1 0xA0 SHL SUB SWAP1 DUP2 AND PUSH1 0x0 SWAP1 DUP2 MSTORE PUSH1 0x1 PUSH1 0x20 SWAP1 DUP2 MSTORE PUSH1 0x40 DUP1 DUP4 KECCAK256 SWAP5 DUP5 AND DUP4 MSTORE DUP5 DUP3 MSTORE DUP1 DUP4 KECCAK256 DUP1 SLOAD DUP5 DUP5 MSTORE SWAP2 SWAP1 SWAP4 KECCAK256 DUP1 SLOAD SWAP2 SWAP1 SWAP5 AND PUSH20 0xFFFFFFFFFFFFFFFFFFFFFFFFFFFFFFFFFFFFFFFF NOT SWAP2 DUP3 AND OR SWAP1 SWAP4 SSTORE SWAP3 SWAP1 SWAP3 MSTORE DUP2 SLOAD AND SWAP1 SSTORE JUMP JUMPDEST PUSH1 0x4 DUP1 SLOAD PUSH1 0x40 DUP1 MLOAD PUSH4 0xA43F929 PUSH1 0xE1 SHL DUP2 MSTORE SWAP1 MLOAD PUSH1 0x1 PUSH1 0x1 PUSH1 0xA0 SHL SUB SWAP1 SWAP3 AND SWAP3 PUSH4 0x1487F252 SWAP3 DUP3 DUP3 ADD SWAP3 PUSH1 0x20 SWAP3 SWAP1 DUP3 SWAP1 SUB ADD DUP2 DUP7 DUP1 EXTCODESIZE ISZERO DUP1 ISZERO PUSH2 0xC40 JUMPI PUSH1 0x0 DUP1 REVERT JUMPDEST POP GAS STATICCALL ISZERO DUP1 ISZERO PUSH2 0xC54 JUMPI RETURNDATASIZE PUSH1 0x0 DUP1 RETURNDATACOPY RETURNDATASIZE PUSH1 0x0 REVERT JUMPDEST POP POP POP POP PUSH1 0x40 MLOAD RETURNDATASIZE PUSH1 0x1F NOT PUSH1 0x1F DUP3 ADD AND DUP3 ADD DUP1 PUSH1 0x40 MSTORE POP DUP2 ADD SWAP1 PUSH2 0xC78 SWAP2 SWAP1 PUSH2 0x1F29 JUMP JUMPDEST ISZERO ISZERO PUSH1 0x1 EQ PUSH2 0xC86 JUMPI PUSH1 0x0 DUP1 REVERT JUMPDEST PUSH1 0x1 PUSH1 0x1 PUSH1 0xA0 SHL SUB DUP2 DUP2 AND PUSH1 0x0 SWAP1 DUP2 MSTORE PUSH1 0x1 PUSH1 0x20 SWAP1 DUP2 MSTORE PUSH1 0x40 DUP1 DUP4 KECCAK256 DUP7 DUP6 AND DUP5 MSTORE SWAP1 SWAP2 MSTORE SWAP1 KECCAK256 SLOAD AND ISZERO PUSH2 0xCFB JUMPI PUSH1 0x40 MLOAD PUSH3 0x461BCD PUSH1 0xE5 SHL DUP2 MSTORE PUSH1 0x20 PUSH1 0x4 DUP3 ADD MSTORE PUSH1 0x1A PUSH1 0x24 DUP3 ADD MSTORE PUSH32 0x7468652053545468696E6773206973206E6F7420657869737473000000000000 PUSH1 0x44 DUP3 ADD MSTORE PUSH1 0x64 ADD PUSH2 0x557 JUMP JUMPDEST PUSH1 0x1 PUSH1 0x1 PUSH1 0xA0 SHL SUB SWAP1 DUP2 AND PUSH1 0x0 SWAP1 DUP2 MSTORE PUSH1 0x1 PUSH1 0x20 SWAP1 DUP2 MSTORE PUSH1 0x40 DUP1 DUP4 KECCAK256 SWAP5 SWAP1 SWAP4 AND DUP3 MSTORE SWAP3 SWAP1 SWAP3 MSTORE SWAP1 KECCAK256 DUP1 SLOAD PUSH20 0xFFFFFFFFFFFFFFFFFFFFFFFFFFFFFFFFFFFFFFFF NOT AND SWAP1 SSTORE JUMP JUMPDEST PUSH1 0x4 DUP1 SLOAD PUSH1 0x40 DUP1 MLOAD PUSH4 0xA43F929 PUSH1 0xE1 SHL DUP2 MSTORE SWAP1 MLOAD PUSH1 0x1 PUSH1 0x1 PUSH1 0xA0 SHL SUB SWAP1 SWAP3 AND SWAP3 PUSH4 0x1487F252 SWAP3 DUP3 DUP3 ADD SWAP3 PUSH1 0x20 SWAP3 SWAP1 DUP3 SWAP1 SUB ADD DUP2 DUP7 DUP1 EXTCODESIZE ISZERO DUP1 ISZERO PUSH2 0xD82 JUMPI PUSH1 0x0 DUP1 REVERT JUMPDEST POP GAS STATICCALL ISZERO DUP1 ISZERO PUSH2 0xD96 JUMPI RETURNDATASIZE PUSH1 0x0 DUP1 RETURNDATACOPY RETURNDATASIZE PUSH1 0x0 REVERT JUMPDEST POP POP POP POP PUSH1 0x40 MLOAD RETURNDATASIZE PUSH1 0x1F NOT PUSH1 0x1F DUP3 ADD AND DUP3 ADD DUP1 PUSH1 0x40 MSTORE POP DUP2 ADD SWAP1 PUSH2 0xDBA SWAP2 SWAP1 PUSH2 0x1F29 JUMP JUMPDEST ISZERO ISZERO PUSH1 0x1 EQ PUSH2 0xDC8 JUMPI PUSH1 0x0 DUP1 REVERT JUMPDEST PUSH1 0x1 PUSH1 0x1 PUSH1 0xA0 SHL SUB SWAP2 SWAP1 SWAP2 AND PUSH1 0x0 SWAP1 DUP2 MSTORE PUSH1 0x2 PUSH1 0x20 MSTORE PUSH1 0x40 SWAP1 KECCAK256 PUSH1 0x3 ADD DUP1 SLOAD PUSH32 0xFFFFFFFFFFFFFFFFFFFFFFFFFFFFFFFFFFFFFFFFFFFFFFFFFFFFFFFFFFFFFF00 AND PUSH1 0xFF SWAP1 SWAP3 AND SWAP2 SWAP1 SWAP2 OR SWAP1 SSTORE JUMP JUMPDEST PUSH1 0x1 PUSH1 0x1 PUSH1 0xA0 SHL SUB DUP3 DUP2 AND PUSH1 0x0 SWAP1 DUP2 MSTORE PUSH1 0x2 PUSH1 0x20 MSTORE PUSH1 0x40 SWAP1 KECCAK256 PUSH1 0x5 ADD SLOAD AND CALLER EQ DUP1 ISZERO PUSH2 0xE67 JUMPI POP PUSH1 0x1 PUSH1 0x1 PUSH1 0xA0 SHL SUB DUP2 DUP2 AND PUSH1 0x0 SWAP1 DUP2 MSTORE PUSH1 0x1 PUSH1 0x20 SWAP1 DUP2 MSTORE PUSH1 0x40 DUP1 DUP4 KECCAK256 DUP7 DUP6 AND DUP5 MSTORE SWAP1 SWAP2 MSTORE SWAP1 KECCAK256 SLOAD AND ISZERO JUMPDEST PUSH2 0xED9 JUMPI PUSH1 0x40 MLOAD PUSH3 0x461BCD PUSH1 0xE5 SHL DUP2 MSTORE PUSH1 0x20 PUSH1 0x4 DUP3 ADD MSTORE PUSH1 0x23 PUSH1 0x24 DUP3 ADD MSTORE PUSH32 0x796F752068617665206E6F74207468652070726976696C65676573206F662074 PUSH1 0x44 DUP3 ADD MSTORE PUSH32 0x6869730000000000000000000000000000000000000000000000000000000000 PUSH1 0x64 DUP3 ADD MSTORE PUSH1 0x84 ADD PUSH2 0x557 JUMP JUMPDEST POP PUSH1 0x1 PUSH1 0x1 PUSH1 0xA0 SHL SUB AND PUSH1 0x0 SWAP1 DUP2 MSTORE PUSH1 0x2 PUSH1 0x20 MSTORE PUSH1 0x40 SWAP1 KECCAK256 PUSH1 0x3 ADD DUP1 SLOAD PUSH32 0xFFFFFFFFFFFFFFFF00FFFFFFFFFFFFFFFFFFFFFFFFFFFFFFFFFFFFFFFFFFFFFF AND PUSH1 0x1 PUSH1 0xB8 SHL OR SWAP1 SSTORE JUMP JUMPDEST PUSH1 0x3 PUSH1 0x0 SWAP1 SLOAD SWAP1 PUSH2 0x100 EXP SWAP1 DIV PUSH1 0x1 PUSH1 0x1 PUSH1 0xA0 SHL SUB AND PUSH1 0x1 PUSH1 0x1 PUSH1 0xA0 SHL SUB AND PUSH4 0xAB3ACB5C PUSH1 0x40 MLOAD DUP2 PUSH4 0xFFFFFFFF AND PUSH1 0xE0 SHL DUP2 MSTORE PUSH1 0x4 ADD PUSH1 0x20 PUSH1 0x40 MLOAD DUP1 DUP4 SUB DUP2 DUP7 DUP1 EXTCODESIZE ISZERO DUP1 ISZERO PUSH2 0xF70 JUMPI PUSH1 0x0 DUP1 REVERT JUMPDEST POP GAS STATICCALL ISZERO DUP1 ISZERO PUSH2 0xF84 JUMPI RETURNDATASIZE PUSH1 0x0 DUP1 RETURNDATACOPY RETURNDATASIZE PUSH1 0x0 REVERT JUMPDEST POP POP POP POP PUSH1 0x40 MLOAD RETURNDATASIZE PUSH1 0x1F NOT PUSH1 0x1F DUP3 ADD AND DUP3 ADD DUP1 PUSH1 0x40 MSTORE POP DUP2 ADD SWAP1 PUSH2 0xFA8 SWAP2 SWAP1 PUSH2 0x1F29 JUMP JUMPDEST PUSH2 0xFB1 JUMPI PUSH1 0x0 DUP1 REVERT JUMPDEST PUSH1 0x1 PUSH1 0x1 PUSH1 0xA0 SHL SUB DUP2 DUP2 AND PUSH1 0x0 SWAP1 DUP2 MSTORE PUSH1 0x2 PUSH1 0x20 MSTORE PUSH1 0x40 SWAP1 KECCAK256 PUSH1 0x4 ADD SLOAD AND CALLER EQ PUSH2 0x101D JUMPI PUSH1 0x40 MLOAD PUSH3 0x461BCD PUSH1 0xE5 SHL DUP2 MSTORE PUSH1 0x20 PUSH1 0x4 DUP3 ADD MSTORE PUSH1 0x16 PUSH1 0x24 DUP3 ADD MSTORE PUSH32 0x796F752068617665206E6F742074686520726967687400000000000000000000 PUSH1 0x44 DUP3 ADD MSTORE PUSH1 0x64 ADD PUSH2 0x557 JUMP JUMPDEST PUSH1 0x1 PUSH1 0x1 PUSH1 0xA0 SHL SUB AND PUSH1 0x0 SWAP1 DUP2 MSTORE PUSH1 0x2 PUSH1 0x20 MSTORE PUSH1 0x40 SWAP1 KECCAK256 PUSH1 0x3 ADD DUP1 SLOAD PUSH1 0xFF PUSH1 0xB0 SHL NOT AND SWAP1 SSTORE JUMP JUMPDEST PUSH1 0x80 DUP3 ADD MLOAD PUSH1 0x1 PUSH1 0x1 PUSH1 0xA0 SHL SUB AND PUSH1 0x0 SWAP1 DUP2 MSTORE PUSH1 0x2 PUSH1 0x20 MSTORE PUSH1 0x40 SWAP1 KECCAK256 PUSH1 0x3 ADD SLOAD PUSH1 0x1 PUSH1 0xC0 SHL SWAP1 DIV PUSH1 0xFF AND ISZERO ISZERO PUSH1 0x1 EQ DUP1 ISZERO SWAP1 PUSH2 0x10A9 JUMPI POP PUSH1 0x1 PUSH1 0x1 PUSH1 0xA0 SHL SUB DUP2 DUP2 AND PUSH1 0x0 SWAP1 DUP2 MSTORE PUSH1 0x1 PUSH1 0x20 SWAP1 DUP2 MSTORE PUSH1 0x40 DUP1 DUP4 KECCAK256 PUSH1 0x80 DUP8 ADD MLOAD DUP6 AND DUP5 MSTORE SWAP1 SWAP2 MSTORE SWAP1 KECCAK256 SLOAD AND ISZERO JUMPDEST PUSH2 0x10F5 JUMPI PUSH1 0x40 MLOAD PUSH3 0x461BCD PUSH1 0xE5 SHL DUP2 MSTORE PUSH1 0x20 PUSH1 0x4 DUP3 ADD MSTORE PUSH1 0x16 PUSH1 0x24 DUP3 ADD MSTORE PUSH32 0x796F752068617665206E6F742074686520726967687400000000000000000000 PUSH1 0x44 DUP3 ADD MSTORE PUSH1 0x64 ADD PUSH2 0x557 JUMP JUMPDEST PUSH1 0x0 DUP3 PUSH1 0xA0 ADD SWAP1 ISZERO ISZERO SWAP1 DUP2 ISZERO ISZERO DUP2 MSTORE POP POP PUSH1 0x1 DUP3 PUSH1 0xC0 ADD SWAP1 ISZERO ISZERO SWAP1 DUP2 ISZERO ISZERO DUP2 MSTORE POP POP PUSH1 0x0 DUP3 PUSH1 0xE0 ADD SWAP1 ISZERO ISZERO SWAP1 DUP2 ISZERO ISZERO DUP2 MSTORE POP POP PUSH1 0x1 DUP3 PUSH2 0x100 ADD SWAP1 ISZERO ISZERO SWAP1 DUP2 ISZERO ISZERO DUP2 MSTORE POP POP DUP1 DUP3 PUSH2 0x120 ADD SWAP1 PUSH1 0x1 PUSH1 0x1 PUSH1 0xA0 SHL SUB AND SWAP1 DUP2 PUSH1 0x1 PUSH1 0x1 PUSH1 0xA0 SHL SUB AND DUP2 MSTORE POP POP CALLER DUP3 PUSH2 0x140 ADD SWAP1 PUSH1 0x1 PUSH1 0x1 PUSH1 0xA0 SHL SUB AND SWAP1 DUP2 PUSH1 0x1 PUSH1 0x1 PUSH1 0xA0 SHL SUB AND DUP2 MSTORE POP POP DUP2 PUSH1 0x2 PUSH1 0x0 DUP5 PUSH1 0x80 ADD MLOAD PUSH1 0x1 PUSH1 0x1 PUSH1 0xA0 SHL SUB AND PUSH1 0x1 PUSH1 0x1 PUSH1 0xA0 SHL SUB AND DUP2 MSTORE PUSH1 0x20 ADD SWAP1 DUP2 MSTORE PUSH1 0x20 ADD PUSH1 0x0 KECCAK256 PUSH1 0x0 DUP3 ADD MLOAD DUP2 PUSH1 0x0 ADD SSTORE PUSH1 0x20 DUP3 ADD MLOAD DUP2 PUSH1 0x1 ADD PUSH1 0x0 PUSH2 0x100 EXP DUP2 SLOAD DUP2 PUSH1 0x1 PUSH1 0x1 PUSH1 0xA0 SHL SUB MUL NOT AND SWAP1 DUP4 PUSH1 0x1 PUSH1 0x1 PUSH1 0xA0 SHL SUB AND MUL OR SWAP1 SSTORE POP PUSH1 0x40 DUP3 ADD MLOAD DUP2 PUSH1 0x2 ADD SSTORE PUSH1 0x60 DUP3 ADD MLOAD DUP2 PUSH1 0x3 ADD PUSH1 0x0 PUSH2 0x100 EXP DUP2 SLOAD DUP2 PUSH1 0xFF MUL NOT AND SWAP1 DUP4 PUSH1 0xFF AND MUL OR SWAP1 SSTORE POP PUSH1 0x80 DUP3 ADD MLOAD DUP2 PUSH1 0x3 ADD PUSH1 0x1 PUSH2 0x100 EXP DUP2 SLOAD DUP2 PUSH1 0x1 PUSH1 0x1 PUSH1 0xA0 SHL SUB MUL NOT AND SWAP1 DUP4 PUSH1 0x1 PUSH1 0x1 PUSH1 0xA0 SHL SUB AND MUL OR SWAP1 SSTORE POP PUSH1 0xA0 DUP3 ADD MLOAD DUP2 PUSH1 0x3 ADD PUSH1 0x15 PUSH2 0x100 EXP DUP2 SLOAD DUP2 PUSH1 0xFF MUL NOT AND SWAP1 DUP4 ISZERO ISZERO MUL OR SWAP1 SSTORE POP PUSH1 0xC0 DUP3 ADD MLOAD DUP2 PUSH1 0x3 ADD PUSH1 0x16 PUSH2 0x100 EXP DUP2 SLOAD DUP2 PUSH1 0xFF MUL NOT AND SWAP1 DUP4 ISZERO ISZERO MUL OR SWAP1 SSTORE POP PUSH1 0xE0 DUP3 ADD MLOAD DUP2 PUSH1 0x3 ADD PUSH1 0x17 PUSH2 0x100 EXP DUP2 SLOAD DUP2 PUSH1 0xFF MUL NOT AND SWAP1 DUP4 ISZERO ISZERO MUL OR SWAP1 SSTORE POP PUSH2 0x100 DUP3 ADD MLOAD DUP2 PUSH1 0x3 ADD PUSH1 0x18 PUSH2 0x100 EXP DUP2 SLOAD DUP2 PUSH1 0xFF MUL NOT AND SWAP1 DUP4 ISZERO ISZERO MUL OR SWAP1 SSTORE POP PUSH2 0x120 DUP3 ADD MLOAD DUP2 PUSH1 0x4 ADD PUSH1 0x0 PUSH2 0x100 EXP DUP2 SLOAD DUP2 PUSH1 0x1 PUSH1 0x1 PUSH1 0xA0 SHL SUB MUL NOT AND SWAP1 DUP4 PUSH1 0x1 PUSH1 0x1 PUSH1 0xA0 SHL SUB AND MUL OR SWAP1 SSTORE POP PUSH2 0x140 DUP3 ADD MLOAD DUP2 PUSH1 0x5 ADD PUSH1 0x0 PUSH2 0x100 EXP DUP2 SLOAD DUP2 PUSH1 0x1 PUSH1 0x1 PUSH1 0xA0 SHL SUB MUL NOT AND SWAP1 DUP4 PUSH1 0x1 PUSH1 0x1 PUSH1 0xA0 SHL SUB AND MUL OR SWAP1 SSTORE POP SWAP1 POP POP DUP2 PUSH1 0x80 ADD MLOAD PUSH1 0x1 PUSH1 0x0 DUP4 PUSH1 0x1 PUSH1 0x1 PUSH1 0xA0 SHL SUB AND PUSH1 0x1 PUSH1 0x1 PUSH1 0xA0 SHL SUB AND DUP2 MSTORE PUSH1 0x20 ADD SWAP1 DUP2 MSTORE PUSH1 0x20 ADD PUSH1 0x0 KECCAK256 PUSH1 0x0 DUP5 PUSH1 0x80 ADD MLOAD PUSH1 0x1 PUSH1 0x1 PUSH1 0xA0 SHL SUB AND PUSH1 0x1 PUSH1 0x1 PUSH1 0xA0 SHL SUB AND DUP2 MSTORE PUSH1 0x20 ADD SWAP1 DUP2 MSTORE PUSH1 0x20 ADD PUSH1 0x0 KECCAK256 PUSH1 0x0 PUSH2 0x100 EXP DUP2 SLOAD DUP2 PUSH1 0x1 PUSH1 0x1 PUSH1 0xA0 SHL SUB MUL NOT AND SWAP1 DUP4 PUSH1 0x1 PUSH1 0x1 PUSH1 0xA0 SHL SUB AND MUL OR SWAP1 SSTORE POP POP POP JUMP JUMPDEST PUSH1 0x4 DUP1 SLOAD PUSH1 0x40 DUP1 MLOAD PUSH4 0xA43F929 PUSH1 0xE1 SHL DUP2 MSTORE SWAP1 MLOAD PUSH1 0x1 PUSH1 0x1 PUSH1 0xA0 SHL SUB SWAP1 SWAP3 AND SWAP3 PUSH4 0x1487F252 SWAP3 DUP3 DUP3 ADD SWAP3 PUSH1 0x20 SWAP3 SWAP1 DUP3 SWAP1 SUB ADD DUP2 DUP7 DUP1 EXTCODESIZE ISZERO DUP1 ISZERO PUSH2 0x13CC JUMPI PUSH1 0x0 DUP1 REVERT JUMPDEST POP GAS STATICCALL ISZERO DUP1 ISZERO PUSH2 0x13E0 JUMPI RETURNDATASIZE PUSH1 0x0 DUP1 RETURNDATACOPY RETURNDATASIZE PUSH1 0x0 REVERT JUMPDEST POP POP POP POP PUSH1 0x40 MLOAD RETURNDATASIZE PUSH1 0x1F NOT PUSH1 0x1F DUP3 ADD AND DUP3 ADD DUP1 PUSH1 0x40 MSTORE POP DUP2 ADD SWAP1 PUSH2 0x1404 SWAP2 SWAP1 PUSH2 0x1F29 JUMP JUMPDEST ISZERO ISZERO PUSH1 0x1 EQ PUSH2 0x1412 JUMPI PUSH1 0x0 DUP1 REVERT JUMPDEST PUSH1 0x1 PUSH1 0x1 PUSH1 0xA0 SHL SUB AND PUSH1 0x0 SWAP1 DUP2 MSTORE PUSH1 0x2 PUSH1 0x20 MSTORE PUSH1 0x40 SWAP1 KECCAK256 PUSH1 0x3 ADD DUP1 SLOAD PUSH32 0xFFFFFFFFFFFFFFFFFFFF00FFFFFFFFFFFFFFFFFFFFFFFFFFFFFFFFFFFFFFFFFF AND SWAP1 SSTORE JUMP JUMPDEST PUSH1 0x4 DUP1 SLOAD PUSH1 0x40 DUP1 MLOAD PUSH4 0xA43F929 PUSH1 0xE1 SHL DUP2 MSTORE SWAP1 MLOAD PUSH1 0x1 PUSH1 0x1 PUSH1 0xA0 SHL SUB SWAP1 SWAP3 AND SWAP3 PUSH4 0x1487F252 SWAP3 DUP3 DUP3 ADD SWAP3 PUSH1 0x20 SWAP3 SWAP1 DUP3 SWAP1 SUB ADD DUP2 DUP7 DUP1 EXTCODESIZE ISZERO DUP1 ISZERO PUSH2 0x1496 JUMPI PUSH1 0x0 DUP1 REVERT JUMPDEST POP GAS STATICCALL ISZERO DUP1 ISZERO PUSH2 0x14AA JUMPI RETURNDATASIZE PUSH1 0x0 DUP1 RETURNDATACOPY RETURNDATASIZE PUSH1 0x0 REVERT JUMPDEST POP POP POP POP PUSH1 0x40 MLOAD RETURNDATASIZE PUSH1 0x1F NOT PUSH1 0x1F DUP3 ADD AND DUP3 ADD DUP1 PUSH1 0x40 MSTORE POP DUP2 ADD SWAP1 PUSH2 0x14CE SWAP2 SWAP1 PUSH2 0x1F29 JUMP JUMPDEST ISZERO ISZERO PUSH1 0x1 EQ PUSH2 0x14DC JUMPI PUSH1 0x0 DUP1 REVERT JUMPDEST PUSH1 0x80 DUP2 ADD MLOAD PUSH1 0x1 PUSH1 0x1 PUSH1 0xA0 SHL SUB AND PUSH1 0x0 SWAP1 DUP2 MSTORE PUSH1 0x2 PUSH1 0x20 MSTORE PUSH1 0x40 SWAP1 KECCAK256 PUSH1 0x3 ADD SLOAD PUSH1 0x1 PUSH1 0xC0 SHL SWAP1 DIV PUSH1 0xFF AND ISZERO ISZERO PUSH1 0x1 EQ PUSH2 0x176E JUMPI CALLER DUP2 PUSH2 0x120 ADD SWAP1 PUSH1 0x1 PUSH1 0x1 PUSH1 0xA0 SHL SUB AND SWAP1 DUP2 PUSH1 0x1 PUSH1 0x1 PUSH1 0xA0 SHL SUB AND DUP2 MSTORE POP POP CALLER DUP2 PUSH2 0x140 ADD SWAP1 PUSH1 0x1 PUSH1 0x1 PUSH1 0xA0 SHL SUB AND SWAP1 DUP2 PUSH1 0x1 PUSH1 0x1 PUSH1 0xA0 SHL SUB AND DUP2 MSTORE POP POP PUSH1 0x0 DUP2 PUSH1 0xA0 ADD SWAP1 ISZERO ISZERO SWAP1 DUP2 ISZERO ISZERO DUP2 MSTORE POP POP PUSH1 0x0 DUP2 PUSH1 0xC0 ADD SWAP1 ISZERO ISZERO SWAP1 DUP2 ISZERO ISZERO DUP2 MSTORE POP POP PUSH1 0x1 DUP2 PUSH2 0x100 ADD SWAP1 ISZERO ISZERO SWAP1 DUP2 ISZERO ISZERO DUP2 MSTORE POP POP DUP1 PUSH1 0x2 PUSH1 0x0 DUP4 PUSH1 0x80 ADD MLOAD PUSH1 0x1 PUSH1 0x1 PUSH1 0xA0 SHL SUB AND PUSH1 0x1 PUSH1 0x1 PUSH1 0xA0 SHL SUB AND DUP2 MSTORE PUSH1 0x20 ADD SWAP1 DUP2 MSTORE PUSH1 0x20 ADD PUSH1 0x0 KECCAK256 PUSH1 0x0 DUP3 ADD MLOAD DUP2 PUSH1 0x0 ADD SSTORE PUSH1 0x20 DUP3 ADD MLOAD DUP2 PUSH1 0x1 ADD PUSH1 0x0 PUSH2 0x100 EXP DUP2 SLOAD DUP2 PUSH1 0x1 PUSH1 0x1 PUSH1 0xA0 SHL SUB MUL NOT AND SWAP1 DUP4 PUSH1 0x1 PUSH1 0x1 PUSH1 0xA0 SHL SUB AND MUL OR SWAP1 SSTORE POP PUSH1 0x40 DUP3 ADD MLOAD DUP2 PUSH1 0x2 ADD SSTORE PUSH1 0x60 DUP3 ADD MLOAD DUP2 PUSH1 0x3 ADD PUSH1 0x0 PUSH2 0x100 EXP DUP2 SLOAD DUP2 PUSH1 0xFF MUL NOT AND SWAP1 DUP4 PUSH1 0xFF AND MUL OR SWAP1 SSTORE POP PUSH1 0x80 DUP3 ADD MLOAD DUP2 PUSH1 0x3 ADD PUSH1 0x1 PUSH2 0x100 EXP DUP2 SLOAD DUP2 PUSH1 0x1 PUSH1 0x1 PUSH1 0xA0 SHL SUB MUL NOT AND SWAP1 DUP4 PUSH1 0x1 PUSH1 0x1 PUSH1 0xA0 SHL SUB AND MUL OR SWAP1 SSTORE POP PUSH1 0xA0 DUP3 ADD MLOAD DUP2 PUSH1 0x3 ADD PUSH1 0x15 PUSH2 0x100 EXP DUP2 SLOAD DUP2 PUSH1 0xFF MUL NOT AND SWAP1 DUP4 ISZERO ISZERO MUL OR SWAP1 SSTORE POP PUSH1 0xC0 DUP3 ADD MLOAD DUP2 PUSH1 0x3 ADD PUSH1 0x16 PUSH2 0x100 EXP DUP2 SLOAD DUP2 PUSH1 0xFF MUL NOT AND SWAP1 DUP4 ISZERO ISZERO MUL OR SWAP1 SSTORE POP PUSH1 0xE0 DUP3 ADD MLOAD DUP2 PUSH1 0x3 ADD PUSH1 0x17 PUSH2 0x100 EXP DUP2 SLOAD DUP2 PUSH1 0xFF MUL NOT AND SWAP1 DUP4 ISZERO ISZERO MUL OR SWAP1 SSTORE POP PUSH2 0x100 DUP3 ADD MLOAD DUP2 PUSH1 0x3 ADD PUSH1 0x18 PUSH2 0x100 EXP DUP2 SLOAD DUP2 PUSH1 0xFF MUL NOT AND SWAP1 DUP4 ISZERO ISZERO MUL OR SWAP1 SSTORE POP PUSH2 0x120 DUP3 ADD MLOAD DUP2 PUSH1 0x4 ADD PUSH1 0x0 PUSH2 0x100 EXP DUP2 SLOAD DUP2 PUSH1 0x1 PUSH1 0x1 PUSH1 0xA0 SHL SUB MUL NOT AND SWAP1 DUP4 PUSH1 0x1 PUSH1 0x1 PUSH1 0xA0 SHL SUB AND MUL OR SWAP1 SSTORE POP PUSH2 0x140 DUP3 ADD MLOAD DUP2 PUSH1 0x5 ADD PUSH1 0x0 PUSH2 0x100 EXP DUP2 SLOAD DUP2 PUSH1 0x1 PUSH1 0x1 PUSH1 0xA0 SHL SUB MUL NOT AND SWAP1 DUP4 PUSH1 0x1 PUSH1 0x1 PUSH1 0xA0 SHL SUB AND MUL OR SWAP1 SSTORE POP SWAP1 POP POP DUP1 PUSH1 0x80 ADD MLOAD PUSH1 0x0 DUP1 DUP4 PUSH1 0x80 ADD MLOAD PUSH1 0x1 PUSH1 0x1 PUSH1 0xA0 SHL SUB AND PUSH1 0x1 PUSH1 0x1 PUSH1 0xA0 SHL SUB AND DUP2 MSTORE PUSH1 0x20 ADD SWAP1 DUP2 MSTORE PUSH1 0x20 ADD PUSH1 0x0 KECCAK256 PUSH1 0x0 PUSH2 0x100 EXP DUP2 SLOAD DUP2 PUSH1 0x1 PUSH1 0x1 PUSH1 0xA0 SHL SUB MUL NOT AND SWAP1 DUP4 PUSH1 0x1 PUSH1 0x1 PUSH1 0xA0 SHL SUB AND MUL OR SWAP1 SSTORE POP POP JUMP JUMPDEST PUSH1 0x80 DUP2 ADD MLOAD PUSH1 0x1 PUSH1 0x1 PUSH1 0xA0 SHL SUB SWAP1 DUP2 AND PUSH1 0x0 SWAP1 DUP2 MSTORE PUSH1 0x20 DUP2 SWAP1 MSTORE PUSH1 0x40 SWAP1 KECCAK256 SLOAD AND ISZERO PUSH2 0x17DB JUMPI PUSH1 0x40 MLOAD PUSH3 0x461BCD PUSH1 0xE5 SHL DUP2 MSTORE PUSH1 0x20 PUSH1 0x4 DUP3 ADD DUP2 SWAP1 MSTORE PUSH1 0x24 DUP3 ADD MSTORE PUSH32 0x746865207374676F6F64732065786973747320696E20746865206D61726B6574 PUSH1 0x44 DUP3 ADD MSTORE PUSH1 0x64 ADD PUSH2 0x557 JUMP JUMPDEST PUSH1 0x80 DUP2 ADD MLOAD PUSH1 0x1 PUSH1 0x1 PUSH1 0xA0 SHL SUB AND PUSH1 0x0 DUP2 DUP2 MSTORE PUSH1 0x20 DUP2 SWAP1 MSTORE PUSH1 0x40 SWAP1 KECCAK256 DUP1 SLOAD PUSH20 0xFFFFFFFFFFFFFFFFFFFFFFFFFFFFFFFFFFFFFFFF NOT AND SWAP1 SWAP2 OR SWAP1 SSTORE JUMPDEST POP JUMP JUMPDEST PUSH1 0x4 DUP1 SLOAD PUSH1 0x40 DUP1 MLOAD PUSH4 0xA43F929 PUSH1 0xE1 SHL DUP2 MSTORE SWAP1 MLOAD PUSH1 0x1 PUSH1 0x1 PUSH1 0xA0 SHL SUB SWAP1 SWAP3 AND SWAP3 PUSH4 0x1487F252 SWAP3 DUP3 DUP3 ADD SWAP3 PUSH1 0x20 SWAP3 SWAP1 DUP3 SWAP1 SUB ADD DUP2 DUP7 DUP1 EXTCODESIZE ISZERO DUP1 ISZERO PUSH2 0x185B JUMPI PUSH1 0x0 DUP1 REVERT JUMPDEST POP GAS STATICCALL ISZERO DUP1 ISZERO PUSH2 0x186F JUMPI RETURNDATASIZE PUSH1 0x0 DUP1 RETURNDATACOPY RETURNDATASIZE PUSH1 0x0 REVERT JUMPDEST POP POP POP POP PUSH1 0x40 MLOAD RETURNDATASIZE PUSH1 0x1F NOT PUSH1 0x1F DUP3 ADD AND DUP3 ADD DUP1 PUSH1 0x40 MSTORE POP DUP2 ADD SWAP1 PUSH2 0x1893 SWAP2 SWAP1 PUSH2 0x1F29 JUMP JUMPDEST ISZERO ISZERO PUSH1 0x1 EQ PUSH2 0x18A1 JUMPI PUSH1 0x0 DUP1 REVERT JUMPDEST PUSH1 0x1 PUSH1 0x1 PUSH1 0xA0 SHL SUB AND PUSH1 0x0 SWAP1 DUP2 MSTORE PUSH1 0x2 PUSH1 0x20 MSTORE PUSH1 0x40 SWAP1 KECCAK256 PUSH1 0x3 ADD DUP1 SLOAD PUSH32 0xFFFFFFFFFFFFFFFFFFFF00FFFFFFFFFFFFFFFFFFFFFFFFFFFFFFFFFFFFFFFFFF AND PUSH1 0x1 PUSH1 0xA8 SHL OR SWAP1 SSTORE JUMP JUMPDEST PUSH1 0x3 PUSH1 0x0 SWAP1 SLOAD SWAP1 PUSH2 0x100 EXP SWAP1 DIV PUSH1 0x1 PUSH1 0x1 PUSH1 0xA0 SHL SUB AND PUSH1 0x1 PUSH1 0x1 PUSH1 0xA0 SHL SUB AND PUSH4 0xAB3ACB5C PUSH1 0x40 MLOAD DUP2 PUSH4 0xFFFFFFFF AND PUSH1 0xE0 SHL DUP2 MSTORE PUSH1 0x4 ADD PUSH1 0x20 PUSH1 0x40 MLOAD DUP1 DUP4 SUB DUP2 DUP7 DUP1 EXTCODESIZE ISZERO DUP1 ISZERO PUSH2 0x1937 JUMPI PUSH1 0x0 DUP1 REVERT JUMPDEST POP GAS STATICCALL ISZERO DUP1 ISZERO PUSH2 0x194B JUMPI RETURNDATASIZE PUSH1 0x0 DUP1 RETURNDATACOPY RETURNDATASIZE PUSH1 0x0 REVERT JUMPDEST POP POP POP POP PUSH1 0x40 MLOAD RETURNDATASIZE PUSH1 0x1F NOT PUSH1 0x1F DUP3 ADD AND DUP3 ADD DUP1 PUSH1 0x40 MSTORE POP DUP2 ADD SWAP1 PUSH2 0x196F SWAP2 SWAP1 PUSH2 0x1F29 JUMP JUMPDEST PUSH2 0x1978 JUMPI PUSH1 0x0 DUP1 REVERT JUMPDEST PUSH1 0x1 PUSH1 0x1 PUSH1 0xA0 SHL SUB DUP2 DUP2 AND PUSH1 0x0 SWAP1 DUP2 MSTORE PUSH1 0x2 PUSH1 0x20 MSTORE PUSH1 0x40 SWAP1 KECCAK256 PUSH1 0x4 ADD SLOAD AND CALLER EQ PUSH2 0x19E4 JUMPI PUSH1 0x40 MLOAD PUSH3 0x461BCD PUSH1 0xE5 SHL DUP2 MSTORE PUSH1 0x20 PUSH1 0x4 DUP3 ADD MSTORE PUSH1 0x16 PUSH1 0x24 DUP3 ADD MSTORE PUSH32 0x796F752068617665206E6F742074686520726967687400000000000000000000 PUSH1 0x44 DUP3 ADD MSTORE PUSH1 0x64 ADD PUSH2 0x557 JUMP JUMPDEST PUSH1 0x1 PUSH1 0x1 PUSH1 0xA0 SHL SUB AND PUSH1 0x0 SWAP1 DUP2 MSTORE PUSH1 0x2 PUSH1 0x20 MSTORE PUSH1 0x40 SWAP1 KECCAK256 PUSH1 0x3 ADD DUP1 SLOAD PUSH1 0xFF PUSH1 0xB0 SHL NOT AND PUSH1 0x1 PUSH1 0xB0 SHL OR SWAP1 SSTORE JUMP JUMPDEST PUSH1 0x4 DUP1 SLOAD PUSH1 0x40 DUP1 MLOAD PUSH4 0xA43F929 PUSH1 0xE1 SHL DUP2 MSTORE SWAP1 MLOAD PUSH1 0x1 PUSH1 0x1 PUSH1 0xA0 SHL SUB SWAP1 SWAP3 AND SWAP3 PUSH4 0x1487F252 SWAP3 DUP3 DUP3 ADD SWAP3 PUSH1 0x20 SWAP3 SWAP1 DUP3 SWAP1 SUB ADD DUP2 DUP7 DUP1 EXTCODESIZE ISZERO DUP1 ISZERO PUSH2 0x1A53 JUMPI PUSH1 0x0 DUP1 REVERT JUMPDEST POP GAS STATICCALL ISZERO DUP1 ISZERO PUSH2 0x1A67 JUMPI RETURNDATASIZE PUSH1 0x0 DUP1 RETURNDATACOPY RETURNDATASIZE PUSH1 0x0 REVERT JUMPDEST POP POP POP POP PUSH1 0x40 MLOAD RETURNDATASIZE PUSH1 0x1F NOT PUSH1 0x1F DUP3 ADD AND DUP3 ADD DUP1 PUSH1 0x40 MSTORE POP DUP2 ADD SWAP1 PUSH2 0x1A8B SWAP2 SWAP1 PUSH2 0x1F29 JUMP JUMPDEST ISZERO ISZERO PUSH1 0x1 EQ PUSH2 0x1A99 JUMPI PUSH1 0x0 DUP1 REVERT JUMPDEST PUSH1 0x80 DUP2 ADD MLOAD PUSH1 0x1 PUSH1 0x1 PUSH1 0xA0 SHL SUB SWAP1 DUP2 AND PUSH1 0x0 SWAP1 DUP2 MSTORE PUSH1 0x20 DUP2 SWAP1 MSTORE PUSH1 0x40 SWAP1 KECCAK256 SLOAD AND PUSH2 0x1AC2 JUMPI PUSH1 0x0 DUP1 REVERT JUMPDEST PUSH1 0x0 PUSH1 0xA0 DUP3 ADD DUP2 DUP2 MSTORE PUSH1 0xC0 DUP4 ADD DUP3 DUP2 MSTORE PUSH1 0x1 PUSH2 0x100 DUP1 DUP7 ADD DUP3 DUP2 MSTORE PUSH1 0x80 DUP8 ADD DUP1 MLOAD PUSH1 0x1 PUSH1 0x1 PUSH1 0xA0 SHL SUB SWAP1 DUP2 AND DUP9 MSTORE PUSH1 0x2 PUSH1 0x20 DUP2 DUP2 MSTORE PUSH1 0x40 DUP1 DUP12 KECCAK256 PUSH1 0x5 SWAP1 DUP2 ADD SLOAD DUP6 AND PUSH2 0x140 DUP15 ADD SWAP1 DUP2 MSTORE DUP7 MLOAD DUP7 AND DUP14 MSTORE DUP5 DUP5 MSTORE SWAP12 DUP3 SWAP1 KECCAK256 DUP14 MLOAD DUP2 SSTORE SWAP3 DUP14 ADD MLOAD SWAP9 DUP4 ADD DUP1 SLOAD SWAP10 DUP7 AND PUSH20 0xFFFFFFFFFFFFFFFFFFFFFFFFFFFFFFFFFFFFFFFF NOT SWAP11 DUP12 AND OR SWAP1 SSTORE SWAP1 DUP13 ADD MLOAD SWAP3 DUP3 ADD SWAP3 SWAP1 SWAP3 SSTORE PUSH1 0x60 DUP12 ADD MLOAD PUSH1 0x3 DUP3 ADD DUP1 SLOAD SWAP6 MLOAD SWAP11 MLOAD SWAP10 MLOAD PUSH1 0xE0 DUP15 ADD MLOAD SWAP8 MLOAD ISZERO ISZERO PUSH1 0x1 PUSH1 0xC0 SHL MUL PUSH32 0xFFFFFFFFFFFFFF00FFFFFFFFFFFFFFFFFFFFFFFFFFFFFFFFFFFFFFFFFFFFFFFF SWAP9 ISZERO ISZERO PUSH1 0x1 PUSH1 0xB8 SHL MUL SWAP9 SWAP1 SWAP9 AND PUSH32 0xFFFFFFFFFFFFFF0000FFFFFFFFFFFFFFFFFFFFFFFFFFFFFFFFFFFFFFFFFFFFFF SWAP2 ISZERO ISZERO PUSH1 0x1 PUSH1 0xB0 SHL MUL PUSH1 0xFF PUSH1 0xB0 SHL NOT SWAP13 ISZERO ISZERO PUSH1 0x1 PUSH1 0xA8 SHL MUL SWAP13 SWAP1 SWAP13 AND PUSH32 0xFFFFFFFFFFFFFFFFFF0000FFFFFFFFFFFFFFFFFFFFFFFFFFFFFFFFFFFFFFFFFF SWAP14 DUP9 AND SWAP1 SWAP11 MUL PUSH32 0xFFFFFFFFFFFFFFFFFFFFFF000000000000000000000000000000000000000000 SWAP1 SWAP9 AND PUSH1 0xFF SWAP1 SWAP5 AND SWAP4 SWAP1 SWAP4 OR SWAP7 SWAP1 SWAP7 OR SWAP11 SWAP1 SWAP11 AND SWAP7 SWAP1 SWAP7 OR SWAP8 SWAP1 SWAP8 OR SWAP3 SWAP1 SWAP3 AND SWAP4 SWAP1 SWAP4 OR SWAP2 SWAP1 SWAP2 OR SWAP1 SWAP5 SSTORE PUSH2 0x120 SWAP1 SWAP6 ADD MLOAD PUSH1 0x4 DUP4 ADD DUP1 SLOAD SWAP2 DUP8 AND SWAP2 DUP4 AND SWAP2 SWAP1 SWAP2 OR SWAP1 SSTORE SWAP3 MLOAD SWAP2 ADD DUP1 SLOAD SWAP2 SWAP1 SWAP4 AND SWAP2 AND OR SWAP1 SSTORE JUMP JUMPDEST PUSH1 0x4 DUP1 SLOAD PUSH1 0x40 DUP1 MLOAD PUSH4 0xA43F929 PUSH1 0xE1 SHL DUP2 MSTORE SWAP1 MLOAD PUSH1 0x1 PUSH1 0x1 PUSH1 0xA0 SHL SUB SWAP1 SWAP3 AND SWAP3 PUSH4 0x1487F252 SWAP3 DUP3 DUP3 ADD SWAP3 PUSH1 0x20 SWAP3 SWAP1 DUP3 SWAP1 SUB ADD DUP2 DUP7 DUP1 EXTCODESIZE ISZERO DUP1 ISZERO PUSH2 0x1CBA JUMPI PUSH1 0x0 DUP1 REVERT JUMPDEST POP GAS STATICCALL ISZERO DUP1 ISZERO PUSH2 0x1CCE JUMPI RETURNDATASIZE PUSH1 0x0 DUP1 RETURNDATACOPY RETURNDATASIZE PUSH1 0x0 REVERT JUMPDEST POP POP POP POP PUSH1 0x40 MLOAD RETURNDATASIZE PUSH1 0x1F NOT PUSH1 0x1F DUP3 ADD AND DUP3 ADD DUP1 PUSH1 0x40 MSTORE POP DUP2 ADD SWAP1 PUSH2 0x1CF2 SWAP2 SWAP1 PUSH2 0x1F29 JUMP JUMPDEST ISZERO ISZERO PUSH1 0x1 EQ PUSH2 0x1D00 JUMPI PUSH1 0x0 DUP1 REVERT JUMPDEST PUSH1 0x80 DUP2 ADD MLOAD PUSH1 0x1 PUSH1 0x1 PUSH1 0xA0 SHL SUB SWAP1 DUP2 AND PUSH1 0x0 SWAP1 DUP2 MSTORE PUSH1 0x20 DUP2 SWAP1 MSTORE PUSH1 0x40 SWAP1 KECCAK256 SLOAD AND ISZERO PUSH2 0x1D6D JUMPI PUSH1 0x40 MLOAD PUSH3 0x461BCD PUSH1 0xE5 SHL DUP2 MSTORE PUSH1 0x20 PUSH1 0x4 DUP3 ADD MSTORE PUSH1 0x1A PUSH1 0x24 DUP3 ADD MSTORE PUSH32 0x7468652053545468696E6773206973206E6F7420657869737473000000000000 PUSH1 0x44 DUP3 ADD MSTORE PUSH1 0x64 ADD PUSH2 0x557 JUMP JUMPDEST PUSH1 0x80 ADD MLOAD PUSH1 0x1 PUSH1 0x1 PUSH1 0xA0 SHL SUB AND PUSH1 0x0 SWAP1 DUP2 MSTORE PUSH1 0x20 DUP2 SWAP1 MSTORE PUSH1 0x40 SWAP1 KECCAK256 DUP1 SLOAD PUSH20 0xFFFFFFFFFFFFFFFFFFFFFFFFFFFFFFFFFFFFFFFF NOT AND SWAP1 SSTORE JUMP JUMPDEST DUP1 CALLDATALOAD PUSH1 0x1 PUSH1 0x1 PUSH1 0xA0 SHL SUB DUP2 AND DUP2 EQ PUSH2 0x1DBC JUMPI PUSH1 0x0 DUP1 REVERT JUMPDEST SWAP2 SWAP1 POP JUMP JUMPDEST DUP1 CALLDATALOAD PUSH2 0x1DBC DUP2 PUSH2 0x20B5 JUMP JUMPDEST PUSH1 0x0 PUSH2 0x160 DUP3 DUP5 SUB SLT ISZERO PUSH2 0x1DDF JUMPI PUSH1 0x0 DUP1 REVERT JUMPDEST PUSH2 0x1DE7 PUSH2 0x2064 JUMP JUMPDEST SWAP1 POP DUP2 CALLDATALOAD DUP2 MSTORE PUSH2 0x1DF9 PUSH1 0x20 DUP4 ADD PUSH2 0x1DA5 JUMP JUMPDEST PUSH1 0x20 DUP3 ADD MSTORE PUSH1 0x40 DUP3 ADD CALLDATALOAD PUSH1 0x40 DUP3 ADD MSTORE PUSH2 0x1E14 PUSH1 0x60 DUP4 ADD PUSH2 0x1E99 JUMP JUMPDEST PUSH1 0x60 DUP3 ADD MSTORE PUSH2 0x1E25 PUSH1 0x80 DUP4 ADD PUSH2 0x1DA5 JUMP JUMPDEST PUSH1 0x80 DUP3 ADD MSTORE PUSH2 0x1E36 PUSH1 0xA0 DUP4 ADD PUSH2 0x1DC1 JUMP JUMPDEST PUSH1 0xA0 DUP3 ADD MSTORE PUSH2 0x1E47 PUSH1 0xC0 DUP4 ADD PUSH2 0x1DC1 JUMP JUMPDEST PUSH1 0xC0 DUP3 ADD MSTORE PUSH2 0x1E58 PUSH1 0xE0 DUP4 ADD PUSH2 0x1DC1 JUMP JUMPDEST PUSH1 0xE0 DUP3 ADD MSTORE PUSH2 0x100 PUSH2 0x1E6B DUP2 DUP5 ADD PUSH2 0x1DC1 JUMP JUMPDEST SWAP1 DUP3 ADD MSTORE PUSH2 0x120 PUSH2 0x1E7D DUP4 DUP3 ADD PUSH2 0x1DA5 JUMP JUMPDEST SWAP1 DUP3 ADD MSTORE PUSH2 0x140 PUSH2 0x1E8F DUP4 DUP3 ADD PUSH2 0x1DA5 JUMP JUMPDEST SWAP1 DUP3 ADD MSTORE SWAP3 SWAP2 POP POP JUMP JUMPDEST DUP1 CALLDATALOAD PUSH1 0xFF DUP2 AND DUP2 EQ PUSH2 0x1DBC JUMPI PUSH1 0x0 DUP1 REVERT JUMPDEST PUSH1 0x0 PUSH1 0x20 DUP3 DUP5 SUB SLT ISZERO PUSH2 0x1EBC JUMPI PUSH1 0x0 DUP1 REVERT JUMPDEST PUSH2 0x1EC5 DUP3 PUSH2 0x1DA5 JUMP JUMPDEST SWAP4 SWAP3 POP POP POP JUMP JUMPDEST PUSH1 0x0 DUP1 PUSH1 0x40 DUP4 DUP6 SUB SLT ISZERO PUSH2 0x1EDF JUMPI PUSH1 0x0 DUP1 REVERT JUMPDEST PUSH2 0x1EE8 DUP4 PUSH2 0x1DA5 JUMP JUMPDEST SWAP2 POP PUSH2 0x1EF6 PUSH1 0x20 DUP5 ADD PUSH2 0x1DA5 JUMP JUMPDEST SWAP1 POP SWAP3 POP SWAP3 SWAP1 POP JUMP JUMPDEST PUSH1 0x0 DUP1 PUSH1 0x40 DUP4 DUP6 SUB SLT ISZERO PUSH2 0x1F12 JUMPI PUSH1 0x0 DUP1 REVERT JUMPDEST PUSH2 0x1F1B DUP4 PUSH2 0x1DA5 JUMP JUMPDEST SWAP2 POP PUSH2 0x1EF6 PUSH1 0x20 DUP5 ADD PUSH2 0x1E99 JUMP JUMPDEST PUSH1 0x0 PUSH1 0x20 DUP3 DUP5 SUB SLT ISZERO PUSH2 0x1F3B JUMPI PUSH1 0x0 DUP1 REVERT JUMPDEST DUP2 MLOAD PUSH2 0x1EC5 DUP2 PUSH2 0x20B5 JUMP JUMPDEST PUSH1 0x0 PUSH2 0x160 DUP3 DUP5 SUB SLT ISZERO PUSH2 0x1F59 JUMPI PUSH1 0x0 DUP1 REVERT JUMPDEST PUSH2 0x1EC5 DUP4 DUP4 PUSH2 0x1DCC JUMP JUMPDEST PUSH1 0x0 DUP1 PUSH2 0x180 DUP4 DUP6 SUB SLT ISZERO PUSH2 0x1F77 JUMPI PUSH1 0x0 DUP1 REVERT JUMPDEST PUSH2 0x1F81 DUP5 DUP5 PUSH2 0x1DCC JUMP JUMPDEST SWAP2 POP PUSH2 0x1EF6 PUSH2 0x160 DUP5 ADD PUSH2 0x1DA5 JUMP JUMPDEST DUP2 MLOAD DUP2 MSTORE PUSH1 0x20 DUP1 DUP4 ADD MLOAD PUSH2 0x160 DUP4 ADD SWAP2 PUSH2 0x1FB4 SWAP1 DUP5 ADD DUP3 PUSH1 0x1 PUSH1 0x1 PUSH1 0xA0 SHL SUB AND SWAP1 MSTORE JUMP JUMPDEST POP PUSH1 0x40 DUP4 ADD MLOAD PUSH1 0x40 DUP4 ADD MSTORE PUSH1 0x60 DUP4 ADD MLOAD PUSH2 0x1FD3 PUSH1 0x60 DUP5 ADD DUP3 PUSH1 0xFF AND SWAP1 MSTORE JUMP JUMPDEST POP PUSH1 0x80 DUP4 ADD MLOAD PUSH2 0x1FEE PUSH1 0x80 DUP5 ADD DUP3 PUSH1 0x1 PUSH1 0x1 PUSH1 0xA0 SHL SUB AND SWAP1 MSTORE JUMP JUMPDEST POP PUSH1 0xA0 DUP4 ADD MLOAD PUSH2 0x2002 PUSH1 0xA0 DUP5 ADD DUP3 ISZERO ISZERO SWAP1 MSTORE JUMP JUMPDEST POP PUSH1 0xC0 DUP4 ADD MLOAD PUSH2 0x2016 PUSH1 0xC0 DUP5 ADD DUP3 ISZERO ISZERO SWAP1 MSTORE JUMP JUMPDEST POP PUSH1 0xE0 DUP4 ADD MLOAD PUSH2 0x202A PUSH1 0xE0 DUP5 ADD DUP3 ISZERO ISZERO SWAP1 MSTORE JUMP JUMPDEST POP PUSH2 0x100 DUP4 DUP2 ADD MLOAD ISZERO ISZERO SWAP1 DUP4 ADD MSTORE PUSH2 0x120 DUP1 DUP5 ADD MLOAD PUSH1 0x1 PUSH1 0x1 PUSH1 0xA0 SHL SUB SWAP1 DUP2 AND SWAP2 DUP5 ADD SWAP2 SWAP1 SWAP2 MSTORE PUSH2 0x140 SWAP4 DUP5 ADD MLOAD AND SWAP3 SWAP1 SWAP2 ADD SWAP2 SWAP1 SWAP2 MSTORE SWAP1 JUMP JUMPDEST PUSH1 0x40 MLOAD PUSH2 0x160 DUP2 ADD PUSH8 0xFFFFFFFFFFFFFFFF DUP2 GT DUP3 DUP3 LT OR ISZERO PUSH2 0x20AF JUMPI PUSH32 0x4E487B7100000000000000000000000000000000000000000000000000000000 PUSH1 0x0 MSTORE PUSH1 0x41 PUSH1 0x4 MSTORE PUSH1 0x24 PUSH1 0x0 REVERT JUMPDEST PUSH1 0x40 MSTORE SWAP1 JUMP JUMPDEST DUP1 ISZERO ISZERO DUP2 EQ PUSH2 0x1816 JUMPI PUSH1 0x0 DUP1 REVERT INVALID LOG2 PUSH5 0x6970667358 0x22 SLT KECCAK256 PUSH1 0x7B SWAP9 0x2E 0xEA PUSH15 0xFEDD3C0DDAA469C5C95D723F379FF7 0xBA 0xCE MSTORE8 RETURNDATACOPY MSTORE8 0xD9 0xB7 0xE4 PUSH11 0xEE6464736F6C6343000807 STOP CALLER "
				},
				"gasEstimates": {
					"creation": {
						"codeDepositCost": "1688200",
						"executionCost": "infinite",
						"totalCost": "infinite"
					},
					"external": {
						"STThingsList(address)": "13559",
						"addGateSTThingsbyCreator((bytes32,address,bytes32,uint8,address,bool,bool,bool,bool,address,address),address)": "infinite",
						"addSTThingsbyMarketor((bytes32,address,bytes32,uint8,address,bool,bool,bool,bool,address,address))": "infinite",
						"changeSTThingsScopebyMarketor(address,uint8)": "infinite",
						"delGateSTThingsbyMarketor(address,address)": "infinite",
						"delSTThingsbyMarketor((bytes32,address,bytes32,uint8,address,bool,bool,bool,bool,address,address))": "infinite",
						"gateContractAddress()": "2405",
						"gateSTThingsList(address,address)": "infinite",
						"getSTThingsInfo(address)": "16573",
						"impoveGateSTThingsbyMarketor(address,address)": "infinite",
						"isValidThing(address)": "2617",
						"lockGateSTThingsbyCreater(address,address)": "infinite",
						"lockSTThingsbyGator(address)": "infinite",
						"lockSTThingsbyMarketor(address)": "infinite",
						"marketSTThingsList(address)": "2650",
						"marketorContractAddress()": "2405",
						"unlockGateSTThingsbyCreater(address,address)": "infinite",
						"unlockSTThingsbyGator(address)": "infinite",
						"unlockSTThingsbyMarketor(address)": "infinite",
						"updateGateSTThingsbyCreator((bytes32,address,bytes32,uint8,address,bool,bool,bool,bool,address,address),address)": "infinite",
						"updateSTThingsbyGator((bytes32,address,bytes32,uint8,address,bool,bool,bool,bool,address,address))": "infinite",
						"updateSTThingsbyMarketor((bytes32,address,bytes32,uint8,address,bool,bool,bool,bool,address,address))": "infinite"
					}
				},
				"methodIdentifiers": {
					"STThingsList(address)": "dd895f4b",
					"addGateSTThingsbyCreator((bytes32,address,bytes32,uint8,address,bool,bool,bool,bool,address,address),address)": "d2c5549c",
					"addSTThingsbyMarketor((bytes32,address,bytes32,uint8,address,bool,bool,bool,bool,address,address))": "b770f8d7",
					"changeSTThingsScopebyMarketor(address,uint8)": "7ac73247",
					"delGateSTThingsbyMarketor(address,address)": "38c3c6a9",
					"delSTThingsbyMarketor((bytes32,address,bytes32,uint8,address,bool,bool,bool,bool,address,address))": "ffd499b0",
					"gateContractAddress()": "2f17d5df",
					"gateSTThingsList(address,address)": "69c55295",
					"getSTThingsInfo(address)": "05d2acb5",
					"impoveGateSTThingsbyMarketor(address,address)": "34c4b754",
					"isValidThing(address)": "cda5469a",
					"lockGateSTThingsbyCreater(address,address)": "07eabf0e",
					"lockSTThingsbyGator(address)": "9ed16583",
					"lockSTThingsbyMarketor(address)": "b642a7c2",
					"marketSTThingsList(address)": "9803ed36",
					"marketorContractAddress()": "492b7107",
					"unlockGateSTThingsbyCreater(address,address)": "885471d5",
					"unlockSTThingsbyGator(address)": "db0822a1",
					"unlockSTThingsbyMarketor(address)": "cbb6ec49",
					"updateGateSTThingsbyCreator((bytes32,address,bytes32,uint8,address,bool,bool,bool,bool,address,address),address)": "a9f48a8d",
					"updateSTThingsbyGator((bytes32,address,bytes32,uint8,address,bool,bool,bool,bool,address,address))": "1536e750",
					"updateSTThingsbyMarketor((bytes32,address,bytes32,uint8,address,bool,bool,bool,bool,address,address))": "e4cb1412"
				}
			},
			"storageLayout": {
				"storage": [
					{
						"astId": 450,
						"contract": "Contracts/MoonV1Thing.sol:MoonV1Thing",
						"label": "marketSTThingsList",
						"offset": 0,
						"slot": "0",
						"type": "t_mapping(t_address,t_address)"
					},
					{
						"astId": 456,
						"contract": "Contracts/MoonV1Thing.sol:MoonV1Thing",
						"label": "gateSTThingsList",
						"offset": 0,
						"slot": "1",
						"type": "t_mapping(t_address,t_mapping(t_address,t_address))"
					},
					{
						"astId": 461,
						"contract": "Contracts/MoonV1Thing.sol:MoonV1Thing",
						"label": "STThingsList",
						"offset": 0,
						"slot": "2",
						"type": "t_mapping(t_address,t_struct(Info)1257_storage)"
					},
					{
						"astId": 463,
						"contract": "Contracts/MoonV1Thing.sol:MoonV1Thing",
						"label": "gateContractAddress",
						"offset": 0,
						"slot": "3",
						"type": "t_address"
					},
					{
						"astId": 465,
						"contract": "Contracts/MoonV1Thing.sol:MoonV1Thing",
						"label": "marketorContractAddress",
						"offset": 0,
						"slot": "4",
						"type": "t_address"
					}
				],
				"types": {
					"t_address": {
						"encoding": "inplace",
						"label": "address",
						"numberOfBytes": "20"
					},
					"t_bool": {
						"encoding": "inplace",
						"label": "bool",
						"numberOfBytes": "1"
					},
					"t_bytes32": {
						"encoding": "inplace",
						"label": "bytes32",
						"numberOfBytes": "32"
					},
					"t_mapping(t_address,t_address)": {
						"encoding": "mapping",
						"key": "t_address",
						"label": "mapping(address => address)",
						"numberOfBytes": "32",
						"value": "t_address"
					},
					"t_mapping(t_address,t_mapping(t_address,t_address))": {
						"encoding": "mapping",
						"key": "t_address",
						"label": "mapping(address => mapping(address => address))",
						"numberOfBytes": "32",
						"value": "t_mapping(t_address,t_address)"
					},
					"t_mapping(t_address,t_struct(Info)1257_storage)": {
						"encoding": "mapping",
						"key": "t_address",
						"label": "mapping(address => struct LSTThings.Info)",
						"numberOfBytes": "32",
						"value": "t_struct(Info)1257_storage"
					},
					"t_struct(Info)1257_storage": {
						"encoding": "inplace",
						"label": "struct LSTThings.Info",
						"members": [
							{
								"astId": 1236,
								"contract": "Contracts/MoonV1Thing.sol:MoonV1Thing",
								"label": "name",
								"offset": 0,
								"slot": "0",
								"type": "t_bytes32"
							},
							{
								"astId": 1238,
								"contract": "Contracts/MoonV1Thing.sol:MoonV1Thing",
								"label": "ownerAddress",
								"offset": 0,
								"slot": "1",
								"type": "t_address"
							},
							{
								"astId": 1240,
								"contract": "Contracts/MoonV1Thing.sol:MoonV1Thing",
								"label": "LSTThingsFullName",
								"offset": 0,
								"slot": "2",
								"type": "t_bytes32"
							},
							{
								"astId": 1242,
								"contract": "Contracts/MoonV1Thing.sol:MoonV1Thing",
								"label": "scope",
								"offset": 0,
								"slot": "3",
								"type": "t_uint8"
							},
							{
								"astId": 1244,
								"contract": "Contracts/MoonV1Thing.sol:MoonV1Thing",
								"label": "contractAddress",
								"offset": 1,
								"slot": "3",
								"type": "t_address"
							},
							{
								"astId": 1246,
								"contract": "Contracts/MoonV1Thing.sol:MoonV1Thing",
								"label": "marketunlock",
								"offset": 21,
								"slot": "3",
								"type": "t_bool"
							},
							{
								"astId": 1248,
								"contract": "Contracts/MoonV1Thing.sol:MoonV1Thing",
								"label": "unlock",
								"offset": 22,
								"slot": "3",
								"type": "t_bool"
							},
							{
								"astId": 1250,
								"contract": "Contracts/MoonV1Thing.sol:MoonV1Thing",
								"label": "createrunlock",
								"offset": 23,
								"slot": "3",
								"type": "t_bool"
							},
							{
								"astId": 1252,
								"contract": "Contracts/MoonV1Thing.sol:MoonV1Thing",
								"label": "isUsed",
								"offset": 24,
								"slot": "3",
								"type": "t_bool"
							},
							{
								"astId": 1254,
								"contract": "Contracts/MoonV1Thing.sol:MoonV1Thing",
								"label": "addfromgater",
								"offset": 0,
								"slot": "4",
								"type": "t_address"
							},
							{
								"astId": 1256,
								"contract": "Contracts/MoonV1Thing.sol:MoonV1Thing",
								"label": "creator",
								"offset": 0,
								"slot": "5",
								"type": "t_address"
							}
						],
						"numberOfBytes": "192"
					},
					"t_uint8": {
						"encoding": "inplace",
						"label": "uint8",
						"numberOfBytes": "1"
					}
				}
			},
			"userdoc": {
				"kind": "user",
				"methods": {},
				"version": 1
			}
		}
	}
}