{
	"Contracts/TTSwapV1Coin.sol": {
		"TTSwapV1Coin": {
			"abi": [
				{
					"inputs": [
						{
							"internalType": "address",
							"name": "_gatorContractAddress",
							"type": "address"
						},
						{
							"internalType": "address",
							"name": "_marketorContractAddress",
							"type": "address"
						}
					],
					"stateMutability": "nonpayable",
					"type": "constructor"
				},
				{
					"inputs": [
						{
							"components": [
								{
									"internalType": "string",
									"name": "coinFullName",
									"type": "string"
								},
								{
									"internalType": "string",
									"name": "symbol",
									"type": "string"
								},
								{
									"internalType": "string",
									"name": "typecode",
									"type": "string"
								},
								{
									"internalType": "uint8",
									"name": "decimals",
									"type": "uint8"
								},
								{
									"internalType": "uint256",
									"name": "maxSupply",
									"type": "uint256"
								},
								{
									"internalType": "uint256",
									"name": "totalSupply",
									"type": "uint256"
								},
								{
									"internalType": "address",
									"name": "contractAddress",
									"type": "address"
								},
								{
									"internalType": "bool",
									"name": "marketunlock",
									"type": "bool"
								},
								{
									"internalType": "bool",
									"name": "gateunlock",
									"type": "bool"
								},
								{
									"internalType": "bool",
									"name": "isUsed",
									"type": "bool"
								},
								{
									"internalType": "address",
									"name": "creator",
									"type": "address"
								}
							],
							"internalType": "struct LCoin.Info",
							"name": "_coinInfo",
							"type": "tuple"
						}
					],
					"name": "addCoinbyGator",
					"outputs": [],
					"stateMutability": "nonpayable",
					"type": "function"
				},
				{
					"inputs": [
						{
							"components": [
								{
									"internalType": "string",
									"name": "coinFullName",
									"type": "string"
								},
								{
									"internalType": "string",
									"name": "symbol",
									"type": "string"
								},
								{
									"internalType": "string",
									"name": "typecode",
									"type": "string"
								},
								{
									"internalType": "uint8",
									"name": "decimals",
									"type": "uint8"
								},
								{
									"internalType": "uint256",
									"name": "maxSupply",
									"type": "uint256"
								},
								{
									"internalType": "uint256",
									"name": "totalSupply",
									"type": "uint256"
								},
								{
									"internalType": "address",
									"name": "contractAddress",
									"type": "address"
								},
								{
									"internalType": "bool",
									"name": "marketunlock",
									"type": "bool"
								},
								{
									"internalType": "bool",
									"name": "gateunlock",
									"type": "bool"
								},
								{
									"internalType": "bool",
									"name": "isUsed",
									"type": "bool"
								},
								{
									"internalType": "address",
									"name": "creator",
									"type": "address"
								}
							],
							"internalType": "struct LCoin.Info",
							"name": "_coinInfo",
							"type": "tuple"
						}
					],
					"name": "addCoinbyMarketor",
					"outputs": [],
					"stateMutability": "nonpayable",
					"type": "function"
				},
				{
					"inputs": [
						{
							"internalType": "address",
							"name": "",
							"type": "address"
						}
					],
					"name": "coinList",
					"outputs": [
						{
							"internalType": "string",
							"name": "coinFullName",
							"type": "string"
						},
						{
							"internalType": "string",
							"name": "symbol",
							"type": "string"
						},
						{
							"internalType": "string",
							"name": "typecode",
							"type": "string"
						},
						{
							"internalType": "uint8",
							"name": "decimals",
							"type": "uint8"
						},
						{
							"internalType": "uint256",
							"name": "maxSupply",
							"type": "uint256"
						},
						{
							"internalType": "uint256",
							"name": "totalSupply",
							"type": "uint256"
						},
						{
							"internalType": "address",
							"name": "contractAddress",
							"type": "address"
						},
						{
							"internalType": "bool",
							"name": "marketunlock",
							"type": "bool"
						},
						{
							"internalType": "bool",
							"name": "gateunlock",
							"type": "bool"
						},
						{
							"internalType": "bool",
							"name": "isUsed",
							"type": "bool"
						},
						{
							"internalType": "address",
							"name": "creator",
							"type": "address"
						}
					],
					"stateMutability": "view",
					"type": "function"
				},
				{
					"inputs": [
						{
							"internalType": "address",
							"name": "_contractaddress",
							"type": "address"
						}
					],
					"name": "delCoinbyMarketor",
					"outputs": [],
					"stateMutability": "nonpayable",
					"type": "function"
				},
				{
					"inputs": [
						{
							"internalType": "address",
							"name": "_contractaddress",
							"type": "address"
						},
						{
							"internalType": "address",
							"name": "_gateaddress",
							"type": "address"
						}
					],
					"name": "delGateCoinbyMarketor",
					"outputs": [],
					"stateMutability": "nonpayable",
					"type": "function"
				},
				{
					"inputs": [
						{
							"internalType": "address",
							"name": "",
							"type": "address"
						},
						{
							"internalType": "address",
							"name": "",
							"type": "address"
						}
					],
					"name": "gateCoinList",
					"outputs": [
						{
							"internalType": "address",
							"name": "",
							"type": "address"
						}
					],
					"stateMutability": "view",
					"type": "function"
				},
				{
					"inputs": [],
					"name": "gatorContractAddress",
					"outputs": [
						{
							"internalType": "address",
							"name": "",
							"type": "address"
						}
					],
					"stateMutability": "view",
					"type": "function"
				},
				{
					"inputs": [
						{
							"internalType": "address",
							"name": "_contractaddress",
							"type": "address"
						}
					],
					"name": "getCoinInfo",
					"outputs": [
						{
							"components": [
								{
									"internalType": "string",
									"name": "coinFullName",
									"type": "string"
								},
								{
									"internalType": "string",
									"name": "symbol",
									"type": "string"
								},
								{
									"internalType": "string",
									"name": "typecode",
									"type": "string"
								},
								{
									"internalType": "uint8",
									"name": "decimals",
									"type": "uint8"
								},
								{
									"internalType": "uint256",
									"name": "maxSupply",
									"type": "uint256"
								},
								{
									"internalType": "uint256",
									"name": "totalSupply",
									"type": "uint256"
								},
								{
									"internalType": "address",
									"name": "contractAddress",
									"type": "address"
								},
								{
									"internalType": "bool",
									"name": "marketunlock",
									"type": "bool"
								},
								{
									"internalType": "bool",
									"name": "gateunlock",
									"type": "bool"
								},
								{
									"internalType": "bool",
									"name": "isUsed",
									"type": "bool"
								},
								{
									"internalType": "address",
									"name": "creator",
									"type": "address"
								}
							],
							"internalType": "struct LCoin.Info",
							"name": "",
							"type": "tuple"
						}
					],
					"stateMutability": "view",
					"type": "function"
				},
				{
					"inputs": [
						{
							"internalType": "address",
							"name": "_contractaddress",
							"type": "address"
						},
						{
							"internalType": "address",
							"name": "_gateaddress",
							"type": "address"
						}
					],
					"name": "impoveGateCoinbyMarketor",
					"outputs": [],
					"stateMutability": "nonpayable",
					"type": "function"
				},
				{
					"inputs": [
						{
							"internalType": "address",
							"name": "_coinAddress",
							"type": "address"
						}
					],
					"name": "isValidCoin",
					"outputs": [
						{
							"internalType": "bool",
							"name": "",
							"type": "bool"
						}
					],
					"stateMutability": "view",
					"type": "function"
				},
				{
					"inputs": [
						{
							"internalType": "address",
							"name": "_internalCoinAddress",
							"type": "address"
						}
					],
					"name": "lockCoinbyGator",
					"outputs": [],
					"stateMutability": "nonpayable",
					"type": "function"
				},
				{
					"inputs": [
						{
							"internalType": "address",
							"name": "_internalCoinAddress",
							"type": "address"
						}
					],
					"name": "lockCoinbyMarketor",
					"outputs": [],
					"stateMutability": "nonpayable",
					"type": "function"
				},
				{
					"inputs": [
						{
							"internalType": "address",
							"name": "",
							"type": "address"
						}
					],
					"name": "marketCoinList",
					"outputs": [
						{
							"internalType": "address",
							"name": "",
							"type": "address"
						}
					],
					"stateMutability": "view",
					"type": "function"
				},
				{
					"inputs": [],
					"name": "marketorContractAddress",
					"outputs": [
						{
							"internalType": "address",
							"name": "",
							"type": "address"
						}
					],
					"stateMutability": "view",
					"type": "function"
				},
				{
					"inputs": [
						{
							"internalType": "address",
							"name": "_internalCoinAddress",
							"type": "address"
						}
					],
					"name": "unlockCoinbyGator",
					"outputs": [],
					"stateMutability": "nonpayable",
					"type": "function"
				},
				{
					"inputs": [
						{
							"internalType": "address",
							"name": "_internalCoinAddress",
							"type": "address"
						}
					],
					"name": "unlockCoinbyMarketor",
					"outputs": [],
					"stateMutability": "nonpayable",
					"type": "function"
				},
				{
					"inputs": [
						{
							"components": [
								{
									"internalType": "string",
									"name": "coinFullName",
									"type": "string"
								},
								{
									"internalType": "string",
									"name": "symbol",
									"type": "string"
								},
								{
									"internalType": "string",
									"name": "typecode",
									"type": "string"
								},
								{
									"internalType": "uint8",
									"name": "decimals",
									"type": "uint8"
								},
								{
									"internalType": "uint256",
									"name": "maxSupply",
									"type": "uint256"
								},
								{
									"internalType": "uint256",
									"name": "totalSupply",
									"type": "uint256"
								},
								{
									"internalType": "address",
									"name": "contractAddress",
									"type": "address"
								},
								{
									"internalType": "bool",
									"name": "marketunlock",
									"type": "bool"
								},
								{
									"internalType": "bool",
									"name": "gateunlock",
									"type": "bool"
								},
								{
									"internalType": "bool",
									"name": "isUsed",
									"type": "bool"
								},
								{
									"internalType": "address",
									"name": "creator",
									"type": "address"
								}
							],
							"internalType": "struct LCoin.Info",
							"name": "_coinInfo",
							"type": "tuple"
						}
					],
					"name": "updateCoinbyGator",
					"outputs": [],
					"stateMutability": "nonpayable",
					"type": "function"
				},
				{
					"inputs": [
						{
							"components": [
								{
									"internalType": "string",
									"name": "coinFullName",
									"type": "string"
								},
								{
									"internalType": "string",
									"name": "symbol",
									"type": "string"
								},
								{
									"internalType": "string",
									"name": "typecode",
									"type": "string"
								},
								{
									"internalType": "uint8",
									"name": "decimals",
									"type": "uint8"
								},
								{
									"internalType": "uint256",
									"name": "maxSupply",
									"type": "uint256"
								},
								{
									"internalType": "uint256",
									"name": "totalSupply",
									"type": "uint256"
								},
								{
									"internalType": "address",
									"name": "contractAddress",
									"type": "address"
								},
								{
									"internalType": "bool",
									"name": "marketunlock",
									"type": "bool"
								},
								{
									"internalType": "bool",
									"name": "gateunlock",
									"type": "bool"
								},
								{
									"internalType": "bool",
									"name": "isUsed",
									"type": "bool"
								},
								{
									"internalType": "address",
									"name": "creator",
									"type": "address"
								}
							],
							"internalType": "struct LCoin.Info",
							"name": "_coinInfo",
							"type": "tuple"
						}
					],
					"name": "updateCoinbyMarketor",
					"outputs": [],
					"stateMutability": "nonpayable",
					"type": "function"
				}
			],
			"devdoc": {
				"kind": "dev",
				"methods": {
					"addCoinbyMarketor((string,string,string,uint8,uint256,uint256,address,bool,bool,bool,address))": {
						"details": "Explain to a developer any extra details"
					}
				},
				"stateVariables": {
					"gatorContractAddress": {
						"return": "The contract address",
						"returns": {
							"_0": "The contract address"
						}
					},
					"marketorContractAddress": {
						"return": "The contract address",
						"returns": {
							"_0": "The contract address"
						}
					}
				},
				"version": 1
			},
			"evm": {
				"assembly": "    /* \"Contracts/TTSwapV1Coin.sol\":249:7047  contract TTSwapV1Coin is ITTSwapV1Coin {... */\n  mstore(0x40, 0xc0)\n    /* \"Contracts/TTSwapV1Coin.sol\":879:1099  constructor(... */\n  callvalue\n  dup1\n  iszero\n  tag_1\n  jumpi\n  0x00\n  dup1\n  revert\ntag_1:\n  pop\n  mload(0x40)\n  sub(codesize, bytecodeSize)\n  dup1\n  bytecodeSize\n  dup4\n  codecopy\n  dup2\n  dup2\n  add\n  0x40\n  mstore\n  dup2\n  add\n  swap1\n  tag_2\n  swap2\n  swap1\n  tag_3\n  jump\t// in\ntag_2:\n    /* \"Contracts/TTSwapV1Coin.sol\":1011:1032  _gatorContractAddress */\n  dup2\n    /* \"Contracts/TTSwapV1Coin.sol\":988:1032  gatorContractAddress = _gatorContractAddress */\n  0xffffffffffffffffffffffffffffffffffffffff\n  and\n  0x80\n  dup2\n  0xffffffffffffffffffffffffffffffffffffffff\n  and\n  dup2\n  mstore\n  pop\n  pop\n    /* \"Contracts/TTSwapV1Coin.sol\":1068:1092  _marketorContractAddress */\n  dup1\n    /* \"Contracts/TTSwapV1Coin.sol\":1042:1092  marketorContractAddress = _marketorContractAddress */\n  0xffffffffffffffffffffffffffffffffffffffff\n  and\n  0xa0\n  dup2\n  0xffffffffffffffffffffffffffffffffffffffff\n  and\n  dup2\n  mstore\n  pop\n  pop\n    /* \"Contracts/TTSwapV1Coin.sol\":879:1099  constructor(... */\n  pop\n  pop\n    /* \"Contracts/TTSwapV1Coin.sol\":249:7047  contract TTSwapV1Coin is ITTSwapV1Coin {... */\n  jump(tag_6)\n    /* \"#utility.yul\":88:205   */\ntag_8:\n    /* \"#utility.yul\":197:198   */\n  0x00\n    /* \"#utility.yul\":194:195   */\n  dup1\n    /* \"#utility.yul\":187:199   */\n  revert\n    /* \"#utility.yul\":334:460   */\ntag_10:\n    /* \"#utility.yul\":371:378   */\n  0x00\n    /* \"#utility.yul\":411:453   */\n  0xffffffffffffffffffffffffffffffffffffffff\n    /* \"#utility.yul\":404:409   */\n  dup3\n    /* \"#utility.yul\":400:454   */\n  and\n    /* \"#utility.yul\":389:454   */\n  swap1\n  pop\n    /* \"#utility.yul\":334:460   */\n  swap2\n  swap1\n  pop\n  jump\t// out\n    /* \"#utility.yul\":466:562   */\ntag_11:\n    /* \"#utility.yul\":503:510   */\n  0x00\n    /* \"#utility.yul\":532:556   */\n  tag_20\n    /* \"#utility.yul\":550:555   */\n  dup3\n    /* \"#utility.yul\":532:556   */\n  tag_10\n  jump\t// in\ntag_20:\n    /* \"#utility.yul\":521:556   */\n  swap1\n  pop\n    /* \"#utility.yul\":466:562   */\n  swap2\n  swap1\n  pop\n  jump\t// out\n    /* \"#utility.yul\":568:690   */\ntag_12:\n    /* \"#utility.yul\":641:665   */\n  tag_22\n    /* \"#utility.yul\":659:664   */\n  dup2\n    /* \"#utility.yul\":641:665   */\n  tag_11\n  jump\t// in\ntag_22:\n    /* \"#utility.yul\":634:639   */\n  dup2\n    /* \"#utility.yul\":631:666   */\n  eq\n    /* \"#utility.yul\":621:684   */\n  tag_23\n  jumpi\n    /* \"#utility.yul\":680:681   */\n  0x00\n    /* \"#utility.yul\":677:678   */\n  dup1\n    /* \"#utility.yul\":670:682   */\n  revert\n    /* \"#utility.yul\":621:684   */\ntag_23:\n    /* \"#utility.yul\":568:690   */\n  pop\n  jump\t// out\n    /* \"#utility.yul\":696:839   */\ntag_13:\n    /* \"#utility.yul\":753:758   */\n  0x00\n    /* \"#utility.yul\":784:790   */\n  dup2\n    /* \"#utility.yul\":778:791   */\n  mload\n    /* \"#utility.yul\":769:791   */\n  swap1\n  pop\n    /* \"#utility.yul\":800:833   */\n  tag_25\n    /* \"#utility.yul\":827:832   */\n  dup2\n    /* \"#utility.yul\":800:833   */\n  tag_12\n  jump\t// in\ntag_25:\n    /* \"#utility.yul\":696:839   */\n  swap3\n  swap2\n  pop\n  pop\n  jump\t// out\n    /* \"#utility.yul\":845:1352   */\ntag_3:\n    /* \"#utility.yul\":924:930   */\n  0x00\n    /* \"#utility.yul\":932:938   */\n  dup1\n    /* \"#utility.yul\":981:983   */\n  0x40\n    /* \"#utility.yul\":969:978   */\n  dup4\n    /* \"#utility.yul\":960:967   */\n  dup6\n    /* \"#utility.yul\":956:979   */\n  sub\n    /* \"#utility.yul\":952:984   */\n  slt\n    /* \"#utility.yul\":949:1068   */\n  iszero\n  tag_27\n  jumpi\n    /* \"#utility.yul\":987:1066   */\n  tag_28\n  tag_8\n  jump\t// in\ntag_28:\n    /* \"#utility.yul\":949:1068   */\ntag_27:\n    /* \"#utility.yul\":1107:1108   */\n  0x00\n    /* \"#utility.yul\":1132:1196   */\n  tag_29\n    /* \"#utility.yul\":1188:1195   */\n  dup6\n    /* \"#utility.yul\":1179:1185   */\n  dup3\n    /* \"#utility.yul\":1168:1177   */\n  dup7\n    /* \"#utility.yul\":1164:1186   */\n  add\n    /* \"#utility.yul\":1132:1196   */\n  tag_13\n  jump\t// in\ntag_29:\n    /* \"#utility.yul\":1122:1196   */\n  swap3\n  pop\n    /* \"#utility.yul\":1078:1206   */\n  pop\n    /* \"#utility.yul\":1245:1247   */\n  0x20\n    /* \"#utility.yul\":1271:1335   */\n  tag_30\n    /* \"#utility.yul\":1327:1334   */\n  dup6\n    /* \"#utility.yul\":1318:1324   */\n  dup3\n    /* \"#utility.yul\":1307:1316   */\n  dup7\n    /* \"#utility.yul\":1303:1325   */\n  add\n    /* \"#utility.yul\":1271:1335   */\n  tag_13\n  jump\t// in\ntag_30:\n    /* \"#utility.yul\":1261:1335   */\n  swap2\n  pop\n    /* \"#utility.yul\":1216:1345   */\n  pop\n    /* \"#utility.yul\":845:1352   */\n  swap3\n  pop\n  swap3\n  swap1\n  pop\n  jump\t// out\n    /* \"Contracts/TTSwapV1Coin.sol\":249:7047  contract TTSwapV1Coin is ITTSwapV1Coin {... */\ntag_6:\n  mload(0x80)\n  mload(0xa0)\n  codecopy(0x00, dataOffset(sub_0), dataSize(sub_0))\n  0x00\n  assignImmutable(\"0x9cce9eb03c9f29c6481fca9f0f942b15bef0bbbc47fda0ddb44df157019835d9\")\n  0x00\n  assignImmutable(\"0x6585423cb6456b1d4957f6454d2f004f0c4f58d53a00082412d5c2ef4b1b31fd\")\n  return(0x00, dataSize(sub_0))\nstop\n\nsub_0: assembly {\n        /* \"Contracts/TTSwapV1Coin.sol\":249:7047  contract TTSwapV1Coin is ITTSwapV1Coin {... */\n      mstore(0x40, 0x80)\n      callvalue\n      dup1\n      iszero\n      tag_1\n      jumpi\n      0x00\n      dup1\n      revert\n    tag_1:\n      pop\n      jumpi(tag_2, lt(calldatasize, 0x04))\n      shr(0xe0, calldataload(0x00))\n      dup1\n      0x550fb4ba\n      gt\n      tag_21\n      jumpi\n      dup1\n      0xb73436fd\n      gt\n      tag_22\n      jumpi\n      dup1\n      0xb73436fd\n      eq\n      tag_16\n      jumpi\n      dup1\n      0xcc0bf757\n      eq\n      tag_17\n      jumpi\n      dup1\n      0xcfcdca52\n      eq\n      tag_18\n      jumpi\n      dup1\n      0xe8dd4655\n      eq\n      tag_19\n      jumpi\n      dup1\n      0xeaec0112\n      eq\n      tag_20\n      jumpi\n      jump(tag_2)\n    tag_22:\n      dup1\n      0x550fb4ba\n      eq\n      tag_12\n      jumpi\n      dup1\n      0x7c3e2f02\n      eq\n      tag_13\n      jumpi\n      dup1\n      0xa3967d0d\n      eq\n      tag_14\n      jumpi\n      dup1\n      0xb20be2b4\n      eq\n      tag_15\n      jumpi\n      jump(tag_2)\n    tag_21:\n      dup1\n      0x385e4b7a\n      gt\n      tag_23\n      jumpi\n      dup1\n      0x385e4b7a\n      eq\n      tag_7\n      jumpi\n      dup1\n      0x3b830305\n      eq\n      tag_8\n      jumpi\n      dup1\n      0x441eb548\n      eq\n      tag_9\n      jumpi\n      dup1\n      0x47d0a634\n      eq\n      tag_10\n      jumpi\n      dup1\n      0x492b7107\n      eq\n      tag_11\n      jumpi\n      jump(tag_2)\n    tag_23:\n      dup1\n      0x1d3b8f67\n      eq\n      tag_3\n      jumpi\n      dup1\n      0x2a9f659c\n      eq\n      tag_4\n      jumpi\n      dup1\n      0x31ecdeb8\n      eq\n      tag_5\n      jumpi\n      dup1\n      0x328320bf\n      eq\n      tag_6\n      jumpi\n    tag_2:\n      0x00\n      dup1\n      revert\n        /* \"Contracts/TTSwapV1Coin.sol\":2758:2921  function unlockCoinbyMarketor(... */\n    tag_3:\n      tag_24\n      0x04\n      dup1\n      calldatasize\n      sub\n      dup2\n      add\n      swap1\n      tag_25\n      swap2\n      swap1\n      tag_26\n      jump\t// in\n    tag_25:\n      tag_27\n      jump\t// in\n    tag_24:\n      stop\n        /* \"Contracts/TTSwapV1Coin.sol\":6196:6631  function updateCoinbyGator(LCoin.Info memory _coinInfo) external onlyGator {... */\n    tag_4:\n      tag_28\n      0x04\n      dup1\n      calldatasize\n      sub\n      dup2\n      add\n      swap1\n      tag_29\n      swap2\n      swap1\n      tag_30\n      jump\t// in\n    tag_29:\n      tag_31\n      jump\t// in\n    tag_28:\n      stop\n        /* \"Contracts/TTSwapV1Coin.sol\":720:766  mapping(address => LCoin.Info) public coinList */\n    tag_5:\n      tag_32\n      0x04\n      dup1\n      calldatasize\n      sub\n      dup2\n      add\n      swap1\n      tag_33\n      swap2\n      swap1\n      tag_26\n      jump\t// in\n    tag_33:\n      tag_34\n      jump\t// in\n    tag_32:\n      mload(0x40)\n      tag_35\n      swap12\n      swap11\n      swap10\n      swap9\n      swap8\n      swap7\n      swap6\n      swap5\n      swap4\n      swap3\n      swap2\n      swap1\n      tag_36\n      jump\t// in\n    tag_35:\n      mload(0x40)\n      dup1\n      swap2\n      sub\n      swap1\n      return\n        /* \"Contracts/TTSwapV1Coin.sol\":6916:7045  function isValidCoin(address _coinAddress) public view returns (bool) {... */\n    tag_6:\n      tag_37\n      0x04\n      dup1\n      calldatasize\n      sub\n      dup2\n      add\n      swap1\n      tag_38\n      swap2\n      swap1\n      tag_26\n      jump\t// in\n    tag_38:\n      tag_39\n      jump\t// in\n    tag_37:\n      mload(0x40)\n      tag_40\n      swap2\n      swap1\n      tag_41\n      jump\t// in\n    tag_40:\n      mload(0x40)\n      dup1\n      swap2\n      sub\n      swap1\n      return\n        /* \"Contracts/TTSwapV1Coin.sol\":5627:5913  function unlockCoinbyGator(... */\n    tag_7:\n      tag_42\n      0x04\n      dup1\n      calldatasize\n      sub\n      dup2\n      add\n      swap1\n      tag_43\n      swap2\n      swap1\n      tag_26\n      jump\t// in\n    tag_43:\n      tag_44\n      jump\t// in\n    tag_42:\n      stop\n        /* \"Contracts/TTSwapV1Coin.sol\":392:441  mapping(address => address) public marketCoinList */\n    tag_8:\n      tag_45\n      0x04\n      dup1\n      calldatasize\n      sub\n      dup2\n      add\n      swap1\n      tag_46\n      swap2\n      swap1\n      tag_26\n      jump\t// in\n    tag_46:\n      tag_47\n      jump\t// in\n    tag_45:\n      mload(0x40)\n      tag_48\n      swap2\n      swap1\n      tag_49\n      jump\t// in\n    tag_48:\n      mload(0x40)\n      dup1\n      swap2\n      sub\n      swap1\n      return\n        /* \"Contracts/TTSwapV1Coin.sol\":5919:6190  function lockCoinbyGator(address _internalCoinAddress) external onlyGator {... */\n    tag_9:\n      tag_50\n      0x04\n      dup1\n      calldatasize\n      sub\n      dup2\n      add\n      swap1\n      tag_51\n      swap2\n      swap1\n      tag_26\n      jump\t// in\n    tag_51:\n      tag_52\n      jump\t// in\n    tag_50:\n      stop\n        /* \"Contracts/TTSwapV1Coin.sol\":773:818  address public immutable gatorContractAddress */\n    tag_10:\n      tag_53\n      tag_54\n      jump\t// in\n    tag_53:\n      mload(0x40)\n      tag_55\n      swap2\n      swap1\n      tag_49\n      jump\t// in\n    tag_55:\n      mload(0x40)\n      dup1\n      swap2\n      sub\n      swap1\n      return\n        /* \"Contracts/TTSwapV1Coin.sol\":824:872  address public immutable marketorContractAddress */\n    tag_11:\n      tag_56\n      tag_57\n      jump\t// in\n    tag_56:\n      mload(0x40)\n      tag_58\n      swap2\n      swap1\n      tag_49\n      jump\t// in\n    tag_58:\n      mload(0x40)\n      dup1\n      swap2\n      sub\n      swap1\n      return\n        /* \"Contracts/TTSwapV1Coin.sol\":2927:3344  function updateCoinbyMarketor(... */\n    tag_12:\n      tag_59\n      0x04\n      dup1\n      calldatasize\n      sub\n      dup2\n      add\n      swap1\n      tag_60\n      swap2\n      swap1\n      tag_30\n      jump\t// in\n    tag_60:\n      tag_61\n      jump\t// in\n    tag_59:\n      stop\n        /* \"Contracts/TTSwapV1Coin.sol\":3931:4187  function delCoinbyMarketor(address _contractaddress) external onlyMarketor {... */\n    tag_13:\n      tag_62\n      0x04\n      dup1\n      calldatasize\n      sub\n      dup2\n      add\n      swap1\n      tag_63\n      swap2\n      swap1\n      tag_26\n      jump\t// in\n    tag_63:\n      tag_64\n      jump\t// in\n    tag_62:\n      stop\n        /* \"Contracts/TTSwapV1Coin.sol\":4659:5621  function addCoinbyGator(LCoin.Info memory _coinInfo) external onlyGator {... */\n    tag_14:\n      tag_65\n      0x04\n      dup1\n      calldatasize\n      sub\n      dup2\n      add\n      swap1\n      tag_66\n      swap2\n      swap1\n      tag_30\n      jump\t// in\n    tag_66:\n      tag_67\n      jump\t// in\n    tag_65:\n      stop\n        /* \"Contracts/TTSwapV1Coin.sol\":2590:2752  function lockCoinbyMarketor(... */\n    tag_15:\n      tag_68\n      0x04\n      dup1\n      calldatasize\n      sub\n      dup2\n      add\n      swap1\n      tag_69\n      swap2\n      swap1\n      tag_26\n      jump\t// in\n    tag_69:\n      tag_70\n      jump\t// in\n    tag_68:\n      stop\n        /* \"Contracts/TTSwapV1Coin.sol\":1807:2584  function addCoinbyMarketor(... */\n    tag_16:\n      tag_71\n      0x04\n      dup1\n      calldatasize\n      sub\n      dup2\n      add\n      swap1\n      tag_72\n      swap2\n      swap1\n      tag_30\n      jump\t// in\n    tag_72:\n      tag_73\n      jump\t// in\n    tag_71:\n      stop\n        /* \"Contracts/TTSwapV1Coin.sol\":561:628  mapping(address => mapping(address => address)) public gateCoinList */\n    tag_17:\n      tag_74\n      0x04\n      dup1\n      calldatasize\n      sub\n      dup2\n      add\n      swap1\n      tag_75\n      swap2\n      swap1\n      tag_76\n      jump\t// in\n    tag_75:\n      tag_77\n      jump\t// in\n    tag_74:\n      mload(0x40)\n      tag_78\n      swap2\n      swap1\n      tag_49\n      jump\t// in\n    tag_78:\n      mload(0x40)\n      dup1\n      swap2\n      sub\n      swap1\n      return\n        /* \"Contracts/TTSwapV1Coin.sol\":3350:3925  function impoveGateCoinbyMarketor(... */\n    tag_18:\n      tag_79\n      0x04\n      dup1\n      calldatasize\n      sub\n      dup2\n      add\n      swap1\n      tag_80\n      swap2\n      swap1\n      tag_76\n      jump\t// in\n    tag_80:\n      tag_81\n      jump\t// in\n    tag_79:\n      stop\n        /* \"Contracts/TTSwapV1Coin.sol\":6637:6910  function getCoinInfo(... */\n    tag_19:\n      tag_82\n      0x04\n      dup1\n      calldatasize\n      sub\n      dup2\n      add\n      swap1\n      tag_83\n      swap2\n      swap1\n      tag_26\n      jump\t// in\n    tag_83:\n      tag_84\n      jump\t// in\n    tag_82:\n      mload(0x40)\n      tag_85\n      swap2\n      swap1\n      tag_86\n      jump\t// in\n    tag_85:\n      mload(0x40)\n      dup1\n      swap2\n      sub\n      swap1\n      return\n        /* \"Contracts/TTSwapV1Coin.sol\":4193:4521  function delGateCoinbyMarketor(... */\n    tag_20:\n      tag_87\n      0x04\n      dup1\n      calldatasize\n      sub\n      dup2\n      add\n      swap1\n      tag_88\n      swap2\n      swap1\n      tag_76\n      jump\t// in\n    tag_88:\n      tag_89\n      jump\t// in\n    tag_87:\n      stop\n        /* \"Contracts/TTSwapV1Coin.sol\":2758:2921  function unlockCoinbyMarketor(... */\n    tag_27:\n        /* \"Contracts/TTSwapV1Coin.sol\":2910:2914  true */\n      0x01\n        /* \"Contracts/TTSwapV1Coin.sol\":2864:2872  coinList */\n      0x02\n        /* \"Contracts/TTSwapV1Coin.sol\":2864:2894  coinList[_internalCoinAddress] */\n      0x00\n        /* \"Contracts/TTSwapV1Coin.sol\":2873:2893  _internalCoinAddress */\n      dup4\n        /* \"Contracts/TTSwapV1Coin.sol\":2864:2894  coinList[_internalCoinAddress] */\n      0xffffffffffffffffffffffffffffffffffffffff\n      and\n      0xffffffffffffffffffffffffffffffffffffffff\n      and\n      dup2\n      mstore\n      0x20\n      add\n      swap1\n      dup2\n      mstore\n      0x20\n      add\n      0x00\n      keccak256\n        /* \"Contracts/TTSwapV1Coin.sol\":2864:2907  coinList[_internalCoinAddress].marketunlock */\n      0x06\n      add\n      0x14\n        /* \"Contracts/TTSwapV1Coin.sol\":2864:2914  coinList[_internalCoinAddress].marketunlock = true */\n      0x0100\n      exp\n      dup2\n      sload\n      dup2\n      0xff\n      mul\n      not\n      and\n      swap1\n      dup4\n      iszero\n      iszero\n      mul\n      or\n      swap1\n      sstore\n      pop\n        /* \"Contracts/TTSwapV1Coin.sol\":2758:2921  function unlockCoinbyMarketor(... */\n      pop\n      jump\t// out\n        /* \"Contracts/TTSwapV1Coin.sol\":6196:6631  function updateCoinbyGator(LCoin.Info memory _coinInfo) external onlyGator {... */\n    tag_31:\n        /* \"Contracts/TTSwapV1Coin.sol\":6349:6359  msg.sender */\n      caller\n        /* \"Contracts/TTSwapV1Coin.sol\":6302:6359  coinList[_coinInfo.contractAddress].creator == msg.sender */\n      0xffffffffffffffffffffffffffffffffffffffff\n      and\n        /* \"Contracts/TTSwapV1Coin.sol\":6302:6310  coinList */\n      0x02\n        /* \"Contracts/TTSwapV1Coin.sol\":6302:6337  coinList[_coinInfo.contractAddress] */\n      0x00\n        /* \"Contracts/TTSwapV1Coin.sol\":6311:6320  _coinInfo */\n      dup4\n        /* \"Contracts/TTSwapV1Coin.sol\":6311:6336  _coinInfo.contractAddress */\n      0xc0\n      add\n      mload\n        /* \"Contracts/TTSwapV1Coin.sol\":6302:6337  coinList[_coinInfo.contractAddress] */\n      0xffffffffffffffffffffffffffffffffffffffff\n      and\n      0xffffffffffffffffffffffffffffffffffffffff\n      and\n      dup2\n      mstore\n      0x20\n      add\n      swap1\n      dup2\n      mstore\n      0x20\n      add\n      0x00\n      keccak256\n        /* \"Contracts/TTSwapV1Coin.sol\":6302:6345  coinList[_coinInfo.contractAddress].creator */\n      0x07\n      add\n      0x00\n      swap1\n      sload\n      swap1\n      0x0100\n      exp\n      swap1\n      div\n      0xffffffffffffffffffffffffffffffffffffffff\n      and\n        /* \"Contracts/TTSwapV1Coin.sol\":6302:6359  coinList[_coinInfo.contractAddress].creator == msg.sender */\n      0xffffffffffffffffffffffffffffffffffffffff\n      and\n      eq\n        /* \"Contracts/TTSwapV1Coin.sol\":6281:6407  require(... */\n      tag_94\n      jumpi\n      mload(0x40)\n      0x08c379a000000000000000000000000000000000000000000000000000000000\n      dup2\n      mstore\n      0x04\n      add\n      tag_95\n      swap1\n      tag_96\n      jump\t// in\n    tag_95:\n      mload(0x40)\n      dup1\n      swap2\n      sub\n      swap1\n      revert\n    tag_94:\n        /* \"Contracts/TTSwapV1Coin.sol\":6451:6456  false */\n      0x00\n        /* \"Contracts/TTSwapV1Coin.sol\":6426:6435  _coinInfo */\n      dup2\n        /* \"Contracts/TTSwapV1Coin.sol\":6426:6448  _coinInfo.marketunlock */\n      0xe0\n      add\n        /* \"Contracts/TTSwapV1Coin.sol\":6426:6456  _coinInfo.marketunlock = false */\n      swap1\n      iszero\n      iszero\n      swap1\n      dup2\n      iszero\n      iszero\n      dup2\n      mstore\n      pop\n      pop\n        /* \"Contracts/TTSwapV1Coin.sol\":6489:6494  false */\n      0x00\n        /* \"Contracts/TTSwapV1Coin.sol\":6466:6475  _coinInfo */\n      dup2\n        /* \"Contracts/TTSwapV1Coin.sol\":6466:6486  _coinInfo.gateunlock */\n      0x0100\n      add\n        /* \"Contracts/TTSwapV1Coin.sol\":6466:6494  _coinInfo.gateunlock = false */\n      swap1\n      iszero\n      iszero\n      swap1\n      dup2\n      iszero\n      iszero\n      dup2\n      mstore\n      pop\n      pop\n        /* \"Contracts/TTSwapV1Coin.sol\":6523:6527  true */\n      0x01\n        /* \"Contracts/TTSwapV1Coin.sol\":6504:6513  _coinInfo */\n      dup2\n        /* \"Contracts/TTSwapV1Coin.sol\":6504:6520  _coinInfo.isUsed */\n      0x0120\n      add\n        /* \"Contracts/TTSwapV1Coin.sol\":6504:6527  _coinInfo.isUsed = true */\n      swap1\n      iszero\n      iszero\n      swap1\n      dup2\n      iszero\n      iszero\n      dup2\n      mstore\n      pop\n      pop\n        /* \"Contracts/TTSwapV1Coin.sol\":6557:6567  msg.sender */\n      caller\n        /* \"Contracts/TTSwapV1Coin.sol\":6537:6546  _coinInfo */\n      dup2\n        /* \"Contracts/TTSwapV1Coin.sol\":6537:6554  _coinInfo.creator */\n      0x0140\n      add\n        /* \"Contracts/TTSwapV1Coin.sol\":6537:6567  _coinInfo.creator = msg.sender */\n      swap1\n      0xffffffffffffffffffffffffffffffffffffffff\n      and\n      swap1\n      dup2\n      0xffffffffffffffffffffffffffffffffffffffff\n      and\n      dup2\n      mstore\n      pop\n      pop\n        /* \"Contracts/TTSwapV1Coin.sol\":6615:6624  _coinInfo */\n      dup1\n        /* \"Contracts/TTSwapV1Coin.sol\":6577:6585  coinList */\n      0x02\n        /* \"Contracts/TTSwapV1Coin.sol\":6577:6612  coinList[_coinInfo.contractAddress] */\n      0x00\n        /* \"Contracts/TTSwapV1Coin.sol\":6586:6595  _coinInfo */\n      dup4\n        /* \"Contracts/TTSwapV1Coin.sol\":6586:6611  _coinInfo.contractAddress */\n      0xc0\n      add\n      mload\n        /* \"Contracts/TTSwapV1Coin.sol\":6577:6612  coinList[_coinInfo.contractAddress] */\n      0xffffffffffffffffffffffffffffffffffffffff\n      and\n      0xffffffffffffffffffffffffffffffffffffffff\n      and\n      dup2\n      mstore\n      0x20\n      add\n      swap1\n      dup2\n      mstore\n      0x20\n      add\n      0x00\n      keccak256\n        /* \"Contracts/TTSwapV1Coin.sol\":6577:6624  coinList[_coinInfo.contractAddress] = _coinInfo */\n      0x00\n      dup3\n      add\n      mload\n      dup2\n      0x00\n      add\n      swap1\n      dup2\n      tag_97\n      swap2\n      swap1\n      tag_98\n      jump\t// in\n    tag_97:\n      pop\n      0x20\n      dup3\n      add\n      mload\n      dup2\n      0x01\n      add\n      swap1\n      dup2\n      tag_99\n      swap2\n      swap1\n      tag_98\n      jump\t// in\n    tag_99:\n      pop\n      0x40\n      dup3\n      add\n      mload\n      dup2\n      0x02\n      add\n      swap1\n      dup2\n      tag_100\n      swap2\n      swap1\n      tag_98\n      jump\t// in\n    tag_100:\n      pop\n      0x60\n      dup3\n      add\n      mload\n      dup2\n      0x03\n      add\n      exp(0x0100, 0x00)\n      dup2\n      sload\n      dup2\n      0xff\n      mul\n      not\n      and\n      swap1\n      dup4\n      0xff\n      and\n      mul\n      or\n      swap1\n      sstore\n      pop\n      0x80\n      dup3\n      add\n      mload\n      dup2\n      0x04\n      add\n      sstore\n      0xa0\n      dup3\n      add\n      mload\n      dup2\n      0x05\n      add\n      sstore\n      0xc0\n      dup3\n      add\n      mload\n      dup2\n      0x06\n      add\n      exp(0x0100, 0x00)\n      dup2\n      sload\n      dup2\n      0xffffffffffffffffffffffffffffffffffffffff\n      mul\n      not\n      and\n      swap1\n      dup4\n      0xffffffffffffffffffffffffffffffffffffffff\n      and\n      mul\n      or\n      swap1\n      sstore\n      pop\n      0xe0\n      dup3\n      add\n      mload\n      dup2\n      0x06\n      add\n      exp(0x0100, 0x14)\n      dup2\n      sload\n      dup2\n      0xff\n      mul\n      not\n      and\n      swap1\n      dup4\n      iszero\n      iszero\n      mul\n      or\n      swap1\n      sstore\n      pop\n      0x0100\n      dup3\n      add\n      mload\n      dup2\n      0x06\n      add\n      exp(0x0100, 0x15)\n      dup2\n      sload\n      dup2\n      0xff\n      mul\n      not\n      and\n      swap1\n      dup4\n      iszero\n      iszero\n      mul\n      or\n      swap1\n      sstore\n      pop\n      0x0120\n      dup3\n      add\n      mload\n      dup2\n      0x06\n      add\n      exp(0x0100, 0x16)\n      dup2\n      sload\n      dup2\n      0xff\n      mul\n      not\n      and\n      swap1\n      dup4\n      iszero\n      iszero\n      mul\n      or\n      swap1\n      sstore\n      pop\n      0x0140\n      dup3\n      add\n      mload\n      dup2\n      0x07\n      add\n      exp(0x0100, 0x00)\n      dup2\n      sload\n      dup2\n      0xffffffffffffffffffffffffffffffffffffffff\n      mul\n      not\n      and\n      swap1\n      dup4\n      0xffffffffffffffffffffffffffffffffffffffff\n      and\n      mul\n      or\n      swap1\n      sstore\n      pop\n      swap1\n      pop\n      pop\n        /* \"Contracts/TTSwapV1Coin.sol\":6196:6631  function updateCoinbyGator(LCoin.Info memory _coinInfo) external onlyGator {... */\n      pop\n      jump\t// out\n        /* \"Contracts/TTSwapV1Coin.sol\":720:766  mapping(address => LCoin.Info) public coinList */\n    tag_34:\n      mstore(0x20, 0x02)\n      dup1\n      0x00\n      mstore\n      keccak256(0x00, 0x40)\n      0x00\n      swap2\n      pop\n      swap1\n      pop\n      dup1\n      0x00\n      add\n      dup1\n      sload\n      tag_101\n      swap1\n      tag_102\n      jump\t// in\n    tag_101:\n      dup1\n      0x1f\n      add\n      0x20\n      dup1\n      swap2\n      div\n      mul\n      0x20\n      add\n      mload(0x40)\n      swap1\n      dup2\n      add\n      0x40\n      mstore\n      dup1\n      swap3\n      swap2\n      swap1\n      dup2\n      dup2\n      mstore\n      0x20\n      add\n      dup3\n      dup1\n      sload\n      tag_103\n      swap1\n      tag_102\n      jump\t// in\n    tag_103:\n      dup1\n      iszero\n      tag_104\n      jumpi\n      dup1\n      0x1f\n      lt\n      tag_105\n      jumpi\n      0x0100\n      dup1\n      dup4\n      sload\n      div\n      mul\n      dup4\n      mstore\n      swap2\n      0x20\n      add\n      swap2\n      jump(tag_104)\n    tag_105:\n      dup3\n      add\n      swap2\n      swap1\n      0x00\n      mstore\n      keccak256(0x00, 0x20)\n      swap1\n    tag_106:\n      dup2\n      sload\n      dup2\n      mstore\n      swap1\n      0x01\n      add\n      swap1\n      0x20\n      add\n      dup1\n      dup4\n      gt\n      tag_106\n      jumpi\n      dup3\n      swap1\n      sub\n      0x1f\n      and\n      dup3\n      add\n      swap2\n    tag_104:\n      pop\n      pop\n      pop\n      pop\n      pop\n      swap1\n      dup1\n      0x01\n      add\n      dup1\n      sload\n      tag_107\n      swap1\n      tag_102\n      jump\t// in\n    tag_107:\n      dup1\n      0x1f\n      add\n      0x20\n      dup1\n      swap2\n      div\n      mul\n      0x20\n      add\n      mload(0x40)\n      swap1\n      dup2\n      add\n      0x40\n      mstore\n      dup1\n      swap3\n      swap2\n      swap1\n      dup2\n      dup2\n      mstore\n      0x20\n      add\n      dup3\n      dup1\n      sload\n      tag_108\n      swap1\n      tag_102\n      jump\t// in\n    tag_108:\n      dup1\n      iszero\n      tag_109\n      jumpi\n      dup1\n      0x1f\n      lt\n      tag_110\n      jumpi\n      0x0100\n      dup1\n      dup4\n      sload\n      div\n      mul\n      dup4\n      mstore\n      swap2\n      0x20\n      add\n      swap2\n      jump(tag_109)\n    tag_110:\n      dup3\n      add\n      swap2\n      swap1\n      0x00\n      mstore\n      keccak256(0x00, 0x20)\n      swap1\n    tag_111:\n      dup2\n      sload\n      dup2\n      mstore\n      swap1\n      0x01\n      add\n      swap1\n      0x20\n      add\n      dup1\n      dup4\n      gt\n      tag_111\n      jumpi\n      dup3\n      swap1\n      sub\n      0x1f\n      and\n      dup3\n      add\n      swap2\n    tag_109:\n      pop\n      pop\n      pop\n      pop\n      pop\n      swap1\n      dup1\n      0x02\n      add\n      dup1\n      sload\n      tag_112\n      swap1\n      tag_102\n      jump\t// in\n    tag_112:\n      dup1\n      0x1f\n      add\n      0x20\n      dup1\n      swap2\n      div\n      mul\n      0x20\n      add\n      mload(0x40)\n      swap1\n      dup2\n      add\n      0x40\n      mstore\n      dup1\n      swap3\n      swap2\n      swap1\n      dup2\n      dup2\n      mstore\n      0x20\n      add\n      dup3\n      dup1\n      sload\n      tag_113\n      swap1\n      tag_102\n      jump\t// in\n    tag_113:\n      dup1\n      iszero\n      tag_114\n      jumpi\n      dup1\n      0x1f\n      lt\n      tag_115\n      jumpi\n      0x0100\n      dup1\n      dup4\n      sload\n      div\n      mul\n      dup4\n      mstore\n      swap2\n      0x20\n      add\n      swap2\n      jump(tag_114)\n    tag_115:\n      dup3\n      add\n      swap2\n      swap1\n      0x00\n      mstore\n      keccak256(0x00, 0x20)\n      swap1\n    tag_116:\n      dup2\n      sload\n      dup2\n      mstore\n      swap1\n      0x01\n      add\n      swap1\n      0x20\n      add\n      dup1\n      dup4\n      gt\n      tag_116\n      jumpi\n      dup3\n      swap1\n      sub\n      0x1f\n      and\n      dup3\n      add\n      swap2\n    tag_114:\n      pop\n      pop\n      pop\n      pop\n      pop\n      swap1\n      dup1\n      0x03\n      add\n      0x00\n      swap1\n      sload\n      swap1\n      0x0100\n      exp\n      swap1\n      div\n      0xff\n      and\n      swap1\n      dup1\n      0x04\n      add\n      sload\n      swap1\n      dup1\n      0x05\n      add\n      sload\n      swap1\n      dup1\n      0x06\n      add\n      0x00\n      swap1\n      sload\n      swap1\n      0x0100\n      exp\n      swap1\n      div\n      0xffffffffffffffffffffffffffffffffffffffff\n      and\n      swap1\n      dup1\n      0x06\n      add\n      0x14\n      swap1\n      sload\n      swap1\n      0x0100\n      exp\n      swap1\n      div\n      0xff\n      and\n      swap1\n      dup1\n      0x06\n      add\n      0x15\n      swap1\n      sload\n      swap1\n      0x0100\n      exp\n      swap1\n      div\n      0xff\n      and\n      swap1\n      dup1\n      0x06\n      add\n      0x16\n      swap1\n      sload\n      swap1\n      0x0100\n      exp\n      swap1\n      div\n      0xff\n      and\n      swap1\n      dup1\n      0x07\n      add\n      0x00\n      swap1\n      sload\n      swap1\n      0x0100\n      exp\n      swap1\n      div\n      0xffffffffffffffffffffffffffffffffffffffff\n      and\n      swap1\n      pop\n      dup12\n      jump\t// out\n        /* \"Contracts/TTSwapV1Coin.sol\":6916:7045  function isValidCoin(address _coinAddress) public view returns (bool) {... */\n    tag_39:\n        /* \"Contracts/TTSwapV1Coin.sol\":6980:6984  bool */\n      0x00\n        /* \"Contracts/TTSwapV1Coin.sol\":7003:7011  coinList */\n      0x02\n        /* \"Contracts/TTSwapV1Coin.sol\":7003:7025  coinList[_coinAddress] */\n      0x00\n        /* \"Contracts/TTSwapV1Coin.sol\":7012:7024  _coinAddress */\n      dup4\n        /* \"Contracts/TTSwapV1Coin.sol\":7003:7025  coinList[_coinAddress] */\n      0xffffffffffffffffffffffffffffffffffffffff\n      and\n      0xffffffffffffffffffffffffffffffffffffffff\n      and\n      dup2\n      mstore\n      0x20\n      add\n      swap1\n      dup2\n      mstore\n      0x20\n      add\n      0x00\n      keccak256\n        /* \"Contracts/TTSwapV1Coin.sol\":7003:7038  coinList[_coinAddress].marketunlock */\n      0x06\n      add\n      0x14\n      swap1\n      sload\n      swap1\n      0x0100\n      exp\n      swap1\n      div\n      0xff\n      and\n        /* \"Contracts/TTSwapV1Coin.sol\":6996:7038  return coinList[_coinAddress].marketunlock */\n      swap1\n      pop\n        /* \"Contracts/TTSwapV1Coin.sol\":6916:7045  function isValidCoin(address _coinAddress) public view returns (bool) {... */\n      swap2\n      swap1\n      pop\n      jump\t// out\n        /* \"Contracts/TTSwapV1Coin.sol\":5627:5913  function unlockCoinbyGator(... */\n    tag_44:\n        /* \"Contracts/TTSwapV1Coin.sol\":5790:5800  msg.sender */\n      caller\n        /* \"Contracts/TTSwapV1Coin.sol\":5748:5800  coinList[_internalCoinAddress].creator == msg.sender */\n      0xffffffffffffffffffffffffffffffffffffffff\n      and\n        /* \"Contracts/TTSwapV1Coin.sol\":5748:5756  coinList */\n      0x02\n        /* \"Contracts/TTSwapV1Coin.sol\":5748:5778  coinList[_internalCoinAddress] */\n      0x00\n        /* \"Contracts/TTSwapV1Coin.sol\":5757:5777  _internalCoinAddress */\n      dup4\n        /* \"Contracts/TTSwapV1Coin.sol\":5748:5778  coinList[_internalCoinAddress] */\n      0xffffffffffffffffffffffffffffffffffffffff\n      and\n      0xffffffffffffffffffffffffffffffffffffffff\n      and\n      dup2\n      mstore\n      0x20\n      add\n      swap1\n      dup2\n      mstore\n      0x20\n      add\n      0x00\n      keccak256\n        /* \"Contracts/TTSwapV1Coin.sol\":5748:5786  coinList[_internalCoinAddress].creator */\n      0x07\n      add\n      0x00\n      swap1\n      sload\n      swap1\n      0x0100\n      exp\n      swap1\n      div\n      0xffffffffffffffffffffffffffffffffffffffff\n      and\n        /* \"Contracts/TTSwapV1Coin.sol\":5748:5800  coinList[_internalCoinAddress].creator == msg.sender */\n      0xffffffffffffffffffffffffffffffffffffffff\n      and\n      eq\n        /* \"Contracts/TTSwapV1Coin.sol\":5727:5848  require(... */\n      tag_120\n      jumpi\n      mload(0x40)\n      0x08c379a000000000000000000000000000000000000000000000000000000000\n      dup2\n      mstore\n      0x04\n      add\n      tag_121\n      swap1\n      tag_96\n      jump\t// in\n    tag_121:\n      mload(0x40)\n      dup1\n      swap2\n      sub\n      swap1\n      revert\n    tag_120:\n        /* \"Contracts/TTSwapV1Coin.sol\":5902:5906  true */\n      0x01\n        /* \"Contracts/TTSwapV1Coin.sol\":5858:5866  coinList */\n      0x02\n        /* \"Contracts/TTSwapV1Coin.sol\":5858:5888  coinList[_internalCoinAddress] */\n      0x00\n        /* \"Contracts/TTSwapV1Coin.sol\":5867:5887  _internalCoinAddress */\n      dup4\n        /* \"Contracts/TTSwapV1Coin.sol\":5858:5888  coinList[_internalCoinAddress] */\n      0xffffffffffffffffffffffffffffffffffffffff\n      and\n      0xffffffffffffffffffffffffffffffffffffffff\n      and\n      dup2\n      mstore\n      0x20\n      add\n      swap1\n      dup2\n      mstore\n      0x20\n      add\n      0x00\n      keccak256\n        /* \"Contracts/TTSwapV1Coin.sol\":5858:5899  coinList[_internalCoinAddress].gateunlock */\n      0x06\n      add\n      0x15\n        /* \"Contracts/TTSwapV1Coin.sol\":5858:5906  coinList[_internalCoinAddress].gateunlock = true */\n      0x0100\n      exp\n      dup2\n      sload\n      dup2\n      0xff\n      mul\n      not\n      and\n      swap1\n      dup4\n      iszero\n      iszero\n      mul\n      or\n      swap1\n      sstore\n      pop\n        /* \"Contracts/TTSwapV1Coin.sol\":5627:5913  function unlockCoinbyGator(... */\n      pop\n      jump\t// out\n        /* \"Contracts/TTSwapV1Coin.sol\":392:441  mapping(address => address) public marketCoinList */\n    tag_47:\n      mstore(0x20, 0x00)\n      dup1\n      0x00\n      mstore\n      keccak256(0x00, 0x40)\n      0x00\n      swap2\n      pop\n      sload\n      swap1\n      0x0100\n      exp\n      swap1\n      div\n      0xffffffffffffffffffffffffffffffffffffffff\n      and\n      dup2\n      jump\t// out\n        /* \"Contracts/TTSwapV1Coin.sol\":5919:6190  function lockCoinbyGator(address _internalCoinAddress) external onlyGator {... */\n    tag_52:\n        /* \"Contracts/TTSwapV1Coin.sol\":6066:6076  msg.sender */\n      caller\n        /* \"Contracts/TTSwapV1Coin.sol\":6024:6076  coinList[_internalCoinAddress].creator == msg.sender */\n      0xffffffffffffffffffffffffffffffffffffffff\n      and\n        /* \"Contracts/TTSwapV1Coin.sol\":6024:6032  coinList */\n      0x02\n        /* \"Contracts/TTSwapV1Coin.sol\":6024:6054  coinList[_internalCoinAddress] */\n      0x00\n        /* \"Contracts/TTSwapV1Coin.sol\":6033:6053  _internalCoinAddress */\n      dup4\n        /* \"Contracts/TTSwapV1Coin.sol\":6024:6054  coinList[_internalCoinAddress] */\n      0xffffffffffffffffffffffffffffffffffffffff\n      and\n      0xffffffffffffffffffffffffffffffffffffffff\n      and\n      dup2\n      mstore\n      0x20\n      add\n      swap1\n      dup2\n      mstore\n      0x20\n      add\n      0x00\n      keccak256\n        /* \"Contracts/TTSwapV1Coin.sol\":6024:6062  coinList[_internalCoinAddress].creator */\n      0x07\n      add\n      0x00\n      swap1\n      sload\n      swap1\n      0x0100\n      exp\n      swap1\n      div\n      0xffffffffffffffffffffffffffffffffffffffff\n      and\n        /* \"Contracts/TTSwapV1Coin.sol\":6024:6076  coinList[_internalCoinAddress].creator == msg.sender */\n      0xffffffffffffffffffffffffffffffffffffffff\n      and\n      eq\n        /* \"Contracts/TTSwapV1Coin.sol\":6003:6124  require(... */\n      tag_124\n      jumpi\n      mload(0x40)\n      0x08c379a000000000000000000000000000000000000000000000000000000000\n      dup2\n      mstore\n      0x04\n      add\n      tag_125\n      swap1\n      tag_96\n      jump\t// in\n    tag_125:\n      mload(0x40)\n      dup1\n      swap2\n      sub\n      swap1\n      revert\n    tag_124:\n        /* \"Contracts/TTSwapV1Coin.sol\":6178:6183  false */\n      0x00\n        /* \"Contracts/TTSwapV1Coin.sol\":6134:6142  coinList */\n      0x02\n        /* \"Contracts/TTSwapV1Coin.sol\":6134:6164  coinList[_internalCoinAddress] */\n      0x00\n        /* \"Contracts/TTSwapV1Coin.sol\":6143:6163  _internalCoinAddress */\n      dup4\n        /* \"Contracts/TTSwapV1Coin.sol\":6134:6164  coinList[_internalCoinAddress] */\n      0xffffffffffffffffffffffffffffffffffffffff\n      and\n      0xffffffffffffffffffffffffffffffffffffffff\n      and\n      dup2\n      mstore\n      0x20\n      add\n      swap1\n      dup2\n      mstore\n      0x20\n      add\n      0x00\n      keccak256\n        /* \"Contracts/TTSwapV1Coin.sol\":6134:6175  coinList[_internalCoinAddress].gateunlock */\n      0x06\n      add\n      0x15\n        /* \"Contracts/TTSwapV1Coin.sol\":6134:6183  coinList[_internalCoinAddress].gateunlock = false */\n      0x0100\n      exp\n      dup2\n      sload\n      dup2\n      0xff\n      mul\n      not\n      and\n      swap1\n      dup4\n      iszero\n      iszero\n      mul\n      or\n      swap1\n      sstore\n      pop\n        /* \"Contracts/TTSwapV1Coin.sol\":5919:6190  function lockCoinbyGator(address _internalCoinAddress) external onlyGator {... */\n      pop\n      jump\t// out\n        /* \"Contracts/TTSwapV1Coin.sol\":773:818  address public immutable gatorContractAddress */\n    tag_54:\n      immutable(\"0x6585423cb6456b1d4957f6454d2f004f0c4f58d53a00082412d5c2ef4b1b31fd\")\n      dup2\n      jump\t// out\n        /* \"Contracts/TTSwapV1Coin.sol\":824:872  address public immutable marketorContractAddress */\n    tag_57:\n      immutable(\"0x9cce9eb03c9f29c6481fca9f0f942b15bef0bbbc47fda0ddb44df157019835d9\")\n      dup2\n      jump\t// out\n        /* \"Contracts/TTSwapV1Coin.sol\":2927:3344  function updateCoinbyMarketor(... */\n    tag_61:\n        /* \"Contracts/TTSwapV1Coin.sol\":3093:3094  0 */\n      0x00\n        /* \"Contracts/TTSwapV1Coin.sol\":3040:3095  marketCoinList[_coinInfo.contractAddress] != address(0) */\n      0xffffffffffffffffffffffffffffffffffffffff\n      and\n        /* \"Contracts/TTSwapV1Coin.sol\":3040:3054  marketCoinList */\n      0x00\n        /* \"Contracts/TTSwapV1Coin.sol\":3040:3081  marketCoinList[_coinInfo.contractAddress] */\n      dup1\n        /* \"Contracts/TTSwapV1Coin.sol\":3055:3064  _coinInfo */\n      dup4\n        /* \"Contracts/TTSwapV1Coin.sol\":3055:3080  _coinInfo.contractAddress */\n      0xc0\n      add\n      mload\n        /* \"Contracts/TTSwapV1Coin.sol\":3040:3081  marketCoinList[_coinInfo.contractAddress] */\n      0xffffffffffffffffffffffffffffffffffffffff\n      and\n      0xffffffffffffffffffffffffffffffffffffffff\n      and\n      dup2\n      mstore\n      0x20\n      add\n      swap1\n      dup2\n      mstore\n      0x20\n      add\n      0x00\n      keccak256\n      0x00\n      swap1\n      sload\n      swap1\n      0x0100\n      exp\n      swap1\n      div\n      0xffffffffffffffffffffffffffffffffffffffff\n      and\n        /* \"Contracts/TTSwapV1Coin.sol\":3040:3095  marketCoinList[_coinInfo.contractAddress] != address(0) */\n      0xffffffffffffffffffffffffffffffffffffffff\n      and\n      sub\n        /* \"Contracts/TTSwapV1Coin.sol\":3032:3096  require(marketCoinList[_coinInfo.contractAddress] != address(0)) */\n      tag_128\n      jumpi\n      0x00\n      dup1\n      revert\n    tag_128:\n        /* \"Contracts/TTSwapV1Coin.sol\":3131:3136  false */\n      0x00\n        /* \"Contracts/TTSwapV1Coin.sol\":3106:3115  _coinInfo */\n      dup2\n        /* \"Contracts/TTSwapV1Coin.sol\":3106:3128  _coinInfo.marketunlock */\n      0xe0\n      add\n        /* \"Contracts/TTSwapV1Coin.sol\":3106:3136  _coinInfo.marketunlock = false */\n      swap1\n      iszero\n      iszero\n      swap1\n      dup2\n      iszero\n      iszero\n      dup2\n      mstore\n      pop\n      pop\n        /* \"Contracts/TTSwapV1Coin.sol\":3169:3174  false */\n      0x00\n        /* \"Contracts/TTSwapV1Coin.sol\":3146:3155  _coinInfo */\n      dup2\n        /* \"Contracts/TTSwapV1Coin.sol\":3146:3166  _coinInfo.gateunlock */\n      0x0100\n      add\n        /* \"Contracts/TTSwapV1Coin.sol\":3146:3174  _coinInfo.gateunlock = false */\n      swap1\n      iszero\n      iszero\n      swap1\n      dup2\n      iszero\n      iszero\n      dup2\n      mstore\n      pop\n      pop\n        /* \"Contracts/TTSwapV1Coin.sol\":3203:3207  true */\n      0x01\n        /* \"Contracts/TTSwapV1Coin.sol\":3184:3193  _coinInfo */\n      dup2\n        /* \"Contracts/TTSwapV1Coin.sol\":3184:3200  _coinInfo.isUsed */\n      0x0120\n      add\n        /* \"Contracts/TTSwapV1Coin.sol\":3184:3207  _coinInfo.isUsed = true */\n      swap1\n      iszero\n      iszero\n      swap1\n      dup2\n      iszero\n      iszero\n      dup2\n      mstore\n      pop\n      pop\n        /* \"Contracts/TTSwapV1Coin.sol\":3237:3245  coinList */\n      0x02\n        /* \"Contracts/TTSwapV1Coin.sol\":3237:3272  coinList[_coinInfo.contractAddress] */\n      0x00\n        /* \"Contracts/TTSwapV1Coin.sol\":3246:3255  _coinInfo */\n      dup3\n        /* \"Contracts/TTSwapV1Coin.sol\":3246:3271  _coinInfo.contractAddress */\n      0xc0\n      add\n      mload\n        /* \"Contracts/TTSwapV1Coin.sol\":3237:3272  coinList[_coinInfo.contractAddress] */\n      0xffffffffffffffffffffffffffffffffffffffff\n      and\n      0xffffffffffffffffffffffffffffffffffffffff\n      and\n      dup2\n      mstore\n      0x20\n      add\n      swap1\n      dup2\n      mstore\n      0x20\n      add\n      0x00\n      keccak256\n        /* \"Contracts/TTSwapV1Coin.sol\":3237:3280  coinList[_coinInfo.contractAddress].creator */\n      0x07\n      add\n      0x00\n      swap1\n      sload\n      swap1\n      0x0100\n      exp\n      swap1\n      div\n      0xffffffffffffffffffffffffffffffffffffffff\n      and\n        /* \"Contracts/TTSwapV1Coin.sol\":3217:3226  _coinInfo */\n      dup2\n        /* \"Contracts/TTSwapV1Coin.sol\":3217:3234  _coinInfo.creator */\n      0x0140\n      add\n        /* \"Contracts/TTSwapV1Coin.sol\":3217:3280  _coinInfo.creator = coinList[_coinInfo.contractAddress].creator */\n      swap1\n      0xffffffffffffffffffffffffffffffffffffffff\n      and\n      swap1\n      dup2\n      0xffffffffffffffffffffffffffffffffffffffff\n      and\n      dup2\n      mstore\n      pop\n      pop\n        /* \"Contracts/TTSwapV1Coin.sol\":3328:3337  _coinInfo */\n      dup1\n        /* \"Contracts/TTSwapV1Coin.sol\":3290:3298  coinList */\n      0x02\n        /* \"Contracts/TTSwapV1Coin.sol\":3290:3325  coinList[_coinInfo.contractAddress] */\n      0x00\n        /* \"Contracts/TTSwapV1Coin.sol\":3299:3308  _coinInfo */\n      dup4\n        /* \"Contracts/TTSwapV1Coin.sol\":3299:3324  _coinInfo.contractAddress */\n      0xc0\n      add\n      mload\n        /* \"Contracts/TTSwapV1Coin.sol\":3290:3325  coinList[_coinInfo.contractAddress] */\n      0xffffffffffffffffffffffffffffffffffffffff\n      and\n      0xffffffffffffffffffffffffffffffffffffffff\n      and\n      dup2\n      mstore\n      0x20\n      add\n      swap1\n      dup2\n      mstore\n      0x20\n      add\n      0x00\n      keccak256\n        /* \"Contracts/TTSwapV1Coin.sol\":3290:3337  coinList[_coinInfo.contractAddress] = _coinInfo */\n      0x00\n      dup3\n      add\n      mload\n      dup2\n      0x00\n      add\n      swap1\n      dup2\n      tag_129\n      swap2\n      swap1\n      tag_98\n      jump\t// in\n    tag_129:\n      pop\n      0x20\n      dup3\n      add\n      mload\n      dup2\n      0x01\n      add\n      swap1\n      dup2\n      tag_130\n      swap2\n      swap1\n      tag_98\n      jump\t// in\n    tag_130:\n      pop\n      0x40\n      dup3\n      add\n      mload\n      dup2\n      0x02\n      add\n      swap1\n      dup2\n      tag_131\n      swap2\n      swap1\n      tag_98\n      jump\t// in\n    tag_131:\n      pop\n      0x60\n      dup3\n      add\n      mload\n      dup2\n      0x03\n      add\n      exp(0x0100, 0x00)\n      dup2\n      sload\n      dup2\n      0xff\n      mul\n      not\n      and\n      swap1\n      dup4\n      0xff\n      and\n      mul\n      or\n      swap1\n      sstore\n      pop\n      0x80\n      dup3\n      add\n      mload\n      dup2\n      0x04\n      add\n      sstore\n      0xa0\n      dup3\n      add\n      mload\n      dup2\n      0x05\n      add\n      sstore\n      0xc0\n      dup3\n      add\n      mload\n      dup2\n      0x06\n      add\n      exp(0x0100, 0x00)\n      dup2\n      sload\n      dup2\n      0xffffffffffffffffffffffffffffffffffffffff\n      mul\n      not\n      and\n      swap1\n      dup4\n      0xffffffffffffffffffffffffffffffffffffffff\n      and\n      mul\n      or\n      swap1\n      sstore\n      pop\n      0xe0\n      dup3\n      add\n      mload\n      dup2\n      0x06\n      add\n      exp(0x0100, 0x14)\n      dup2\n      sload\n      dup2\n      0xff\n      mul\n      not\n      and\n      swap1\n      dup4\n      iszero\n      iszero\n      mul\n      or\n      swap1\n      sstore\n      pop\n      0x0100\n      dup3\n      add\n      mload\n      dup2\n      0x06\n      add\n      exp(0x0100, 0x15)\n      dup2\n      sload\n      dup2\n      0xff\n      mul\n      not\n      and\n      swap1\n      dup4\n      iszero\n      iszero\n      mul\n      or\n      swap1\n      sstore\n      pop\n      0x0120\n      dup3\n      add\n      mload\n      dup2\n      0x06\n      add\n      exp(0x0100, 0x16)\n      dup2\n      sload\n      dup2\n      0xff\n      mul\n      not\n      and\n      swap1\n      dup4\n      iszero\n      iszero\n      mul\n      or\n      swap1\n      sstore\n      pop\n      0x0140\n      dup3\n      add\n      mload\n      dup2\n      0x07\n      add\n      exp(0x0100, 0x00)\n      dup2\n      sload\n      dup2\n      0xffffffffffffffffffffffffffffffffffffffff\n      mul\n      not\n      and\n      swap1\n      dup4\n      0xffffffffffffffffffffffffffffffffffffffff\n      and\n      mul\n      or\n      swap1\n      sstore\n      pop\n      swap1\n      pop\n      pop\n        /* \"Contracts/TTSwapV1Coin.sol\":2927:3344  function updateCoinbyMarketor(... */\n      pop\n      jump\t// out\n        /* \"Contracts/TTSwapV1Coin.sol\":3931:4187  function delCoinbyMarketor(address _contractaddress) external onlyMarketor {... */\n    tag_64:\n        /* \"Contracts/TTSwapV1Coin.sol\":4081:4082  0 */\n      0x00\n        /* \"Contracts/TTSwapV1Coin.sol\":4037:4083  marketCoinList[_contractaddress] != address(0) */\n      0xffffffffffffffffffffffffffffffffffffffff\n      and\n        /* \"Contracts/TTSwapV1Coin.sol\":4037:4051  marketCoinList */\n      0x00\n        /* \"Contracts/TTSwapV1Coin.sol\":4037:4069  marketCoinList[_contractaddress] */\n      dup1\n        /* \"Contracts/TTSwapV1Coin.sol\":4052:4068  _contractaddress */\n      dup4\n        /* \"Contracts/TTSwapV1Coin.sol\":4037:4069  marketCoinList[_contractaddress] */\n      0xffffffffffffffffffffffffffffffffffffffff\n      and\n      0xffffffffffffffffffffffffffffffffffffffff\n      and\n      dup2\n      mstore\n      0x20\n      add\n      swap1\n      dup2\n      mstore\n      0x20\n      add\n      0x00\n      keccak256\n      0x00\n      swap1\n      sload\n      swap1\n      0x0100\n      exp\n      swap1\n      div\n      0xffffffffffffffffffffffffffffffffffffffff\n      and\n        /* \"Contracts/TTSwapV1Coin.sol\":4037:4083  marketCoinList[_contractaddress] != address(0) */\n      0xffffffffffffffffffffffffffffffffffffffff\n      and\n      sub\n        /* \"Contracts/TTSwapV1Coin.sol\":4016:4131  require(... */\n      tag_134\n      jumpi\n      mload(0x40)\n      0x08c379a000000000000000000000000000000000000000000000000000000000\n      dup2\n      mstore\n      0x04\n      add\n      tag_135\n      swap1\n      tag_136\n      jump\t// in\n    tag_135:\n      mload(0x40)\n      dup1\n      swap2\n      sub\n      swap1\n      revert\n    tag_134:\n        /* \"Contracts/TTSwapV1Coin.sol\":4148:4162  marketCoinList */\n      0x00\n        /* \"Contracts/TTSwapV1Coin.sol\":4148:4180  marketCoinList[_contractaddress] */\n      dup1\n        /* \"Contracts/TTSwapV1Coin.sol\":4163:4179  _contractaddress */\n      dup3\n        /* \"Contracts/TTSwapV1Coin.sol\":4148:4180  marketCoinList[_contractaddress] */\n      0xffffffffffffffffffffffffffffffffffffffff\n      and\n      0xffffffffffffffffffffffffffffffffffffffff\n      and\n      dup2\n      mstore\n      0x20\n      add\n      swap1\n      dup2\n      mstore\n      0x20\n      add\n      0x00\n      keccak256\n      0x00\n        /* \"Contracts/TTSwapV1Coin.sol\":4141:4180  delete marketCoinList[_contractaddress] */\n      0x0100\n      exp\n      dup2\n      sload\n      swap1\n      0xffffffffffffffffffffffffffffffffffffffff\n      mul\n      not\n      and\n      swap1\n      sstore\n        /* \"Contracts/TTSwapV1Coin.sol\":3931:4187  function delCoinbyMarketor(address _contractaddress) external onlyMarketor {... */\n      pop\n      jump\t// out\n        /* \"Contracts/TTSwapV1Coin.sol\":4659:5621  function addCoinbyGator(LCoin.Info memory _coinInfo) external onlyGator {... */\n    tag_67:\n        /* \"Contracts/TTSwapV1Coin.sol\":4791:4795  true */\n      0x01\n        /* \"Contracts/TTSwapV1Coin.sol\":4745:4795  coinList[_coinInfo.contractAddress].isUsed != true */\n      iszero\n      iszero\n        /* \"Contracts/TTSwapV1Coin.sol\":4745:4753  coinList */\n      0x02\n        /* \"Contracts/TTSwapV1Coin.sol\":4745:4780  coinList[_coinInfo.contractAddress] */\n      0x00\n        /* \"Contracts/TTSwapV1Coin.sol\":4754:4763  _coinInfo */\n      dup4\n        /* \"Contracts/TTSwapV1Coin.sol\":4754:4779  _coinInfo.contractAddress */\n      0xc0\n      add\n      mload\n        /* \"Contracts/TTSwapV1Coin.sol\":4745:4780  coinList[_coinInfo.contractAddress] */\n      0xffffffffffffffffffffffffffffffffffffffff\n      and\n      0xffffffffffffffffffffffffffffffffffffffff\n      and\n      dup2\n      mstore\n      0x20\n      add\n      swap1\n      dup2\n      mstore\n      0x20\n      add\n      0x00\n      keccak256\n        /* \"Contracts/TTSwapV1Coin.sol\":4745:4787  coinList[_coinInfo.contractAddress].isUsed */\n      0x06\n      add\n      0x16\n      swap1\n      sload\n      swap1\n      0x0100\n      exp\n      swap1\n      div\n      0xff\n      and\n        /* \"Contracts/TTSwapV1Coin.sol\":4745:4795  coinList[_coinInfo.contractAddress].isUsed != true */\n      iszero\n      iszero\n      eq\n        /* \"Contracts/TTSwapV1Coin.sol\":4741:5615  if (coinList[_coinInfo.contractAddress].isUsed != true) {... */\n      tag_139\n      jumpi\n        /* \"Contracts/TTSwapV1Coin.sol\":4831:4841  msg.sender */\n      caller\n        /* \"Contracts/TTSwapV1Coin.sol\":4811:4820  _coinInfo */\n      dup2\n        /* \"Contracts/TTSwapV1Coin.sol\":4811:4828  _coinInfo.creator */\n      0x0140\n      add\n        /* \"Contracts/TTSwapV1Coin.sol\":4811:4841  _coinInfo.creator = msg.sender */\n      swap1\n      0xffffffffffffffffffffffffffffffffffffffff\n      and\n      swap1\n      dup2\n      0xffffffffffffffffffffffffffffffffffffffff\n      and\n      dup2\n      mstore\n      pop\n      pop\n        /* \"Contracts/TTSwapV1Coin.sol\":4880:4885  false */\n      0x00\n        /* \"Contracts/TTSwapV1Coin.sol\":4855:4864  _coinInfo */\n      dup2\n        /* \"Contracts/TTSwapV1Coin.sol\":4855:4877  _coinInfo.marketunlock */\n      0xe0\n      add\n        /* \"Contracts/TTSwapV1Coin.sol\":4855:4885  _coinInfo.marketunlock = false */\n      swap1\n      iszero\n      iszero\n      swap1\n      dup2\n      iszero\n      iszero\n      dup2\n      mstore\n      pop\n      pop\n        /* \"Contracts/TTSwapV1Coin.sol\":4922:4927  false */\n      0x00\n        /* \"Contracts/TTSwapV1Coin.sol\":4899:4908  _coinInfo */\n      dup2\n        /* \"Contracts/TTSwapV1Coin.sol\":4899:4919  _coinInfo.gateunlock */\n      0x0100\n      add\n        /* \"Contracts/TTSwapV1Coin.sol\":4899:4927  _coinInfo.gateunlock = false */\n      swap1\n      iszero\n      iszero\n      swap1\n      dup2\n      iszero\n      iszero\n      dup2\n      mstore\n      pop\n      pop\n        /* \"Contracts/TTSwapV1Coin.sol\":4960:4964  true */\n      0x01\n        /* \"Contracts/TTSwapV1Coin.sol\":4941:4950  _coinInfo */\n      dup2\n        /* \"Contracts/TTSwapV1Coin.sol\":4941:4957  _coinInfo.isUsed */\n      0x0120\n      add\n        /* \"Contracts/TTSwapV1Coin.sol\":4941:4964  _coinInfo.isUsed = true */\n      swap1\n      iszero\n      iszero\n      swap1\n      dup2\n      iszero\n      iszero\n      dup2\n      mstore\n      pop\n      pop\n        /* \"Contracts/TTSwapV1Coin.sol\":5016:5025  _coinInfo */\n      dup1\n        /* \"Contracts/TTSwapV1Coin.sol\":4978:4986  coinList */\n      0x02\n        /* \"Contracts/TTSwapV1Coin.sol\":4978:5013  coinList[_coinInfo.contractAddress] */\n      0x00\n        /* \"Contracts/TTSwapV1Coin.sol\":4987:4996  _coinInfo */\n      dup4\n        /* \"Contracts/TTSwapV1Coin.sol\":4987:5012  _coinInfo.contractAddress */\n      0xc0\n      add\n      mload\n        /* \"Contracts/TTSwapV1Coin.sol\":4978:5013  coinList[_coinInfo.contractAddress] */\n      0xffffffffffffffffffffffffffffffffffffffff\n      and\n      0xffffffffffffffffffffffffffffffffffffffff\n      and\n      dup2\n      mstore\n      0x20\n      add\n      swap1\n      dup2\n      mstore\n      0x20\n      add\n      0x00\n      keccak256\n        /* \"Contracts/TTSwapV1Coin.sol\":4978:5025  coinList[_coinInfo.contractAddress] = _coinInfo */\n      0x00\n      dup3\n      add\n      mload\n      dup2\n      0x00\n      add\n      swap1\n      dup2\n      tag_140\n      swap2\n      swap1\n      tag_98\n      jump\t// in\n    tag_140:\n      pop\n      0x20\n      dup3\n      add\n      mload\n      dup2\n      0x01\n      add\n      swap1\n      dup2\n      tag_141\n      swap2\n      swap1\n      tag_98\n      jump\t// in\n    tag_141:\n      pop\n      0x40\n      dup3\n      add\n      mload\n      dup2\n      0x02\n      add\n      swap1\n      dup2\n      tag_142\n      swap2\n      swap1\n      tag_98\n      jump\t// in\n    tag_142:\n      pop\n      0x60\n      dup3\n      add\n      mload\n      dup2\n      0x03\n      add\n      exp(0x0100, 0x00)\n      dup2\n      sload\n      dup2\n      0xff\n      mul\n      not\n      and\n      swap1\n      dup4\n      0xff\n      and\n      mul\n      or\n      swap1\n      sstore\n      pop\n      0x80\n      dup3\n      add\n      mload\n      dup2\n      0x04\n      add\n      sstore\n      0xa0\n      dup3\n      add\n      mload\n      dup2\n      0x05\n      add\n      sstore\n      0xc0\n      dup3\n      add\n      mload\n      dup2\n      0x06\n      add\n      exp(0x0100, 0x00)\n      dup2\n      sload\n      dup2\n      0xffffffffffffffffffffffffffffffffffffffff\n      mul\n      not\n      and\n      swap1\n      dup4\n      0xffffffffffffffffffffffffffffffffffffffff\n      and\n      mul\n      or\n      swap1\n      sstore\n      pop\n      0xe0\n      dup3\n      add\n      mload\n      dup2\n      0x06\n      add\n      exp(0x0100, 0x14)\n      dup2\n      sload\n      dup2\n      0xff\n      mul\n      not\n      and\n      swap1\n      dup4\n      iszero\n      iszero\n      mul\n      or\n      swap1\n      sstore\n      pop\n      0x0100\n      dup3\n      add\n      mload\n      dup2\n      0x06\n      add\n      exp(0x0100, 0x15)\n      dup2\n      sload\n      dup2\n      0xff\n      mul\n      not\n      and\n      swap1\n      dup4\n      iszero\n      iszero\n      mul\n      or\n      swap1\n      sstore\n      pop\n      0x0120\n      dup3\n      add\n      mload\n      dup2\n      0x06\n      add\n      exp(0x0100, 0x16)\n      dup2\n      sload\n      dup2\n      0xff\n      mul\n      not\n      and\n      swap1\n      dup4\n      iszero\n      iszero\n      mul\n      or\n      swap1\n      sstore\n      pop\n      0x0140\n      dup3\n      add\n      mload\n      dup2\n      0x07\n      add\n      exp(0x0100, 0x00)\n      dup2\n      sload\n      dup2\n      0xffffffffffffffffffffffffffffffffffffffff\n      mul\n      not\n      and\n      swap1\n      dup4\n      0xffffffffffffffffffffffffffffffffffffffff\n      and\n      mul\n      or\n      swap1\n      sstore\n      pop\n      swap1\n      pop\n      pop\n        /* \"Contracts/TTSwapV1Coin.sol\":5093:5102  _coinInfo */\n      dup1\n        /* \"Contracts/TTSwapV1Coin.sol\":5093:5135  _coinInfo... */\n      0xc0\n      add\n      mload\n        /* \"Contracts/TTSwapV1Coin.sol\":5039:5051  gateCoinList */\n      0x01\n        /* \"Contracts/TTSwapV1Coin.sol\":5039:5063  gateCoinList[msg.sender] */\n      0x00\n        /* \"Contracts/TTSwapV1Coin.sol\":5052:5062  msg.sender */\n      caller\n        /* \"Contracts/TTSwapV1Coin.sol\":5039:5063  gateCoinList[msg.sender] */\n      0xffffffffffffffffffffffffffffffffffffffff\n      and\n      0xffffffffffffffffffffffffffffffffffffffff\n      and\n      dup2\n      mstore\n      0x20\n      add\n      swap1\n      dup2\n      mstore\n      0x20\n      add\n      0x00\n      keccak256\n        /* \"Contracts/TTSwapV1Coin.sol\":5039:5090  gateCoinList[msg.sender][_coinInfo.contractAddress] */\n      0x00\n        /* \"Contracts/TTSwapV1Coin.sol\":5064:5073  _coinInfo */\n      dup4\n        /* \"Contracts/TTSwapV1Coin.sol\":5064:5089  _coinInfo.contractAddress */\n      0xc0\n      add\n      mload\n        /* \"Contracts/TTSwapV1Coin.sol\":5039:5090  gateCoinList[msg.sender][_coinInfo.contractAddress] */\n      0xffffffffffffffffffffffffffffffffffffffff\n      and\n      0xffffffffffffffffffffffffffffffffffffffff\n      and\n      dup2\n      mstore\n      0x20\n      add\n      swap1\n      dup2\n      mstore\n      0x20\n      add\n      0x00\n      keccak256\n      0x00\n        /* \"Contracts/TTSwapV1Coin.sol\":5039:5135  gateCoinList[msg.sender][_coinInfo.contractAddress] = _coinInfo... */\n      0x0100\n      exp\n      dup2\n      sload\n      dup2\n      0xffffffffffffffffffffffffffffffffffffffff\n      mul\n      not\n      and\n      swap1\n      dup4\n      0xffffffffffffffffffffffffffffffffffffffff\n      and\n      mul\n      or\n      swap1\n      sstore\n      pop\n        /* \"Contracts/TTSwapV1Coin.sol\":4741:5615  if (coinList[_coinInfo.contractAddress].isUsed != true) {... */\n      jump(tag_143)\n    tag_139:\n        /* \"Contracts/TTSwapV1Coin.sol\":5244:5245  0 */\n      0x00\n        /* \"Contracts/TTSwapV1Coin.sol\":5191:5246  marketCoinList[_coinInfo.contractAddress] == address(0) */\n      0xffffffffffffffffffffffffffffffffffffffff\n      and\n        /* \"Contracts/TTSwapV1Coin.sol\":5191:5205  marketCoinList */\n      0x00\n        /* \"Contracts/TTSwapV1Coin.sol\":5191:5232  marketCoinList[_coinInfo.contractAddress] */\n      dup1\n        /* \"Contracts/TTSwapV1Coin.sol\":5206:5215  _coinInfo */\n      dup4\n        /* \"Contracts/TTSwapV1Coin.sol\":5206:5231  _coinInfo.contractAddress */\n      0xc0\n      add\n      mload\n        /* \"Contracts/TTSwapV1Coin.sol\":5191:5232  marketCoinList[_coinInfo.contractAddress] */\n      0xffffffffffffffffffffffffffffffffffffffff\n      and\n      0xffffffffffffffffffffffffffffffffffffffff\n      and\n      dup2\n      mstore\n      0x20\n      add\n      swap1\n      dup2\n      mstore\n      0x20\n      add\n      0x00\n      keccak256\n      0x00\n      swap1\n      sload\n      swap1\n      0x0100\n      exp\n      swap1\n      div\n      0xffffffffffffffffffffffffffffffffffffffff\n      and\n        /* \"Contracts/TTSwapV1Coin.sol\":5191:5246  marketCoinList[_coinInfo.contractAddress] == address(0) */\n      0xffffffffffffffffffffffffffffffffffffffff\n      and\n      eq\n        /* \"Contracts/TTSwapV1Coin.sol\":5166:5309  require(... */\n      tag_144\n      jumpi\n      mload(0x40)\n      0x08c379a000000000000000000000000000000000000000000000000000000000\n      dup2\n      mstore\n      0x04\n      add\n      tag_145\n      swap1\n      tag_146\n      jump\t// in\n    tag_145:\n      mload(0x40)\n      dup1\n      swap2\n      sub\n      swap1\n      revert\n    tag_144:\n        /* \"Contracts/TTSwapV1Coin.sol\":5431:5432  0 */\n      0x00\n        /* \"Contracts/TTSwapV1Coin.sol\":5348:5433  gateCoinList[msg.sender][_coinInfo.contractAddress] ==... */\n      0xffffffffffffffffffffffffffffffffffffffff\n      and\n        /* \"Contracts/TTSwapV1Coin.sol\":5348:5360  gateCoinList */\n      0x01\n        /* \"Contracts/TTSwapV1Coin.sol\":5348:5372  gateCoinList[msg.sender] */\n      0x00\n        /* \"Contracts/TTSwapV1Coin.sol\":5361:5371  msg.sender */\n      caller\n        /* \"Contracts/TTSwapV1Coin.sol\":5348:5372  gateCoinList[msg.sender] */\n      0xffffffffffffffffffffffffffffffffffffffff\n      and\n      0xffffffffffffffffffffffffffffffffffffffff\n      and\n      dup2\n      mstore\n      0x20\n      add\n      swap1\n      dup2\n      mstore\n      0x20\n      add\n      0x00\n      keccak256\n        /* \"Contracts/TTSwapV1Coin.sol\":5348:5399  gateCoinList[msg.sender][_coinInfo.contractAddress] */\n      0x00\n        /* \"Contracts/TTSwapV1Coin.sol\":5373:5382  _coinInfo */\n      dup4\n        /* \"Contracts/TTSwapV1Coin.sol\":5373:5398  _coinInfo.contractAddress */\n      0xc0\n      add\n      mload\n        /* \"Contracts/TTSwapV1Coin.sol\":5348:5399  gateCoinList[msg.sender][_coinInfo.contractAddress] */\n      0xffffffffffffffffffffffffffffffffffffffff\n      and\n      0xffffffffffffffffffffffffffffffffffffffff\n      and\n      dup2\n      mstore\n      0x20\n      add\n      swap1\n      dup2\n      mstore\n      0x20\n      add\n      0x00\n      keccak256\n      0x00\n      swap1\n      sload\n      swap1\n      0x0100\n      exp\n      swap1\n      div\n      0xffffffffffffffffffffffffffffffffffffffff\n      and\n        /* \"Contracts/TTSwapV1Coin.sol\":5348:5433  gateCoinList[msg.sender][_coinInfo.contractAddress] ==... */\n      0xffffffffffffffffffffffffffffffffffffffff\n      and\n      eq\n        /* \"Contracts/TTSwapV1Coin.sol\":5323:5494  require(... */\n      tag_147\n      jumpi\n      mload(0x40)\n      0x08c379a000000000000000000000000000000000000000000000000000000000\n      dup2\n      mstore\n      0x04\n      add\n      tag_148\n      swap1\n      tag_149\n      jump\t// in\n    tag_148:\n      mload(0x40)\n      dup1\n      swap2\n      sub\n      swap1\n      revert\n    tag_147:\n        /* \"Contracts/TTSwapV1Coin.sol\":5562:5571  _coinInfo */\n      dup1\n        /* \"Contracts/TTSwapV1Coin.sol\":5562:5604  _coinInfo... */\n      0xc0\n      add\n      mload\n        /* \"Contracts/TTSwapV1Coin.sol\":5508:5520  gateCoinList */\n      0x01\n        /* \"Contracts/TTSwapV1Coin.sol\":5508:5532  gateCoinList[msg.sender] */\n      0x00\n        /* \"Contracts/TTSwapV1Coin.sol\":5521:5531  msg.sender */\n      caller\n        /* \"Contracts/TTSwapV1Coin.sol\":5508:5532  gateCoinList[msg.sender] */\n      0xffffffffffffffffffffffffffffffffffffffff\n      and\n      0xffffffffffffffffffffffffffffffffffffffff\n      and\n      dup2\n      mstore\n      0x20\n      add\n      swap1\n      dup2\n      mstore\n      0x20\n      add\n      0x00\n      keccak256\n        /* \"Contracts/TTSwapV1Coin.sol\":5508:5559  gateCoinList[msg.sender][_coinInfo.contractAddress] */\n      0x00\n        /* \"Contracts/TTSwapV1Coin.sol\":5533:5542  _coinInfo */\n      dup4\n        /* \"Contracts/TTSwapV1Coin.sol\":5533:5558  _coinInfo.contractAddress */\n      0xc0\n      add\n      mload\n        /* \"Contracts/TTSwapV1Coin.sol\":5508:5559  gateCoinList[msg.sender][_coinInfo.contractAddress] */\n      0xffffffffffffffffffffffffffffffffffffffff\n      and\n      0xffffffffffffffffffffffffffffffffffffffff\n      and\n      dup2\n      mstore\n      0x20\n      add\n      swap1\n      dup2\n      mstore\n      0x20\n      add\n      0x00\n      keccak256\n      0x00\n        /* \"Contracts/TTSwapV1Coin.sol\":5508:5604  gateCoinList[msg.sender][_coinInfo.contractAddress] = _coinInfo... */\n      0x0100\n      exp\n      dup2\n      sload\n      dup2\n      0xffffffffffffffffffffffffffffffffffffffff\n      mul\n      not\n      and\n      swap1\n      dup4\n      0xffffffffffffffffffffffffffffffffffffffff\n      and\n      mul\n      or\n      swap1\n      sstore\n      pop\n        /* \"Contracts/TTSwapV1Coin.sol\":4741:5615  if (coinList[_coinInfo.contractAddress].isUsed != true) {... */\n    tag_143:\n        /* \"Contracts/TTSwapV1Coin.sol\":4659:5621  function addCoinbyGator(LCoin.Info memory _coinInfo) external onlyGator {... */\n      pop\n      jump\t// out\n        /* \"Contracts/TTSwapV1Coin.sol\":2590:2752  function lockCoinbyMarketor(... */\n    tag_70:\n        /* \"Contracts/TTSwapV1Coin.sol\":2740:2745  false */\n      0x00\n        /* \"Contracts/TTSwapV1Coin.sol\":2694:2702  coinList */\n      0x02\n        /* \"Contracts/TTSwapV1Coin.sol\":2694:2724  coinList[_internalCoinAddress] */\n      0x00\n        /* \"Contracts/TTSwapV1Coin.sol\":2703:2723  _internalCoinAddress */\n      dup4\n        /* \"Contracts/TTSwapV1Coin.sol\":2694:2724  coinList[_internalCoinAddress] */\n      0xffffffffffffffffffffffffffffffffffffffff\n      and\n      0xffffffffffffffffffffffffffffffffffffffff\n      and\n      dup2\n      mstore\n      0x20\n      add\n      swap1\n      dup2\n      mstore\n      0x20\n      add\n      0x00\n      keccak256\n        /* \"Contracts/TTSwapV1Coin.sol\":2694:2737  coinList[_internalCoinAddress].marketunlock */\n      0x06\n      add\n      0x14\n        /* \"Contracts/TTSwapV1Coin.sol\":2694:2745  coinList[_internalCoinAddress].marketunlock = false */\n      0x0100\n      exp\n      dup2\n      sload\n      dup2\n      0xff\n      mul\n      not\n      and\n      swap1\n      dup4\n      iszero\n      iszero\n      mul\n      or\n      swap1\n      sstore\n      pop\n        /* \"Contracts/TTSwapV1Coin.sol\":2590:2752  function lockCoinbyMarketor(... */\n      pop\n      jump\t// out\n        /* \"Contracts/TTSwapV1Coin.sol\":1807:2584  function addCoinbyMarketor(... */\n    tag_73:\n        /* \"Contracts/TTSwapV1Coin.sol\":1959:1963  true */\n      0x01\n        /* \"Contracts/TTSwapV1Coin.sol\":1913:1963  coinList[_coinInfo.contractAddress].isUsed != true */\n      iszero\n      iszero\n        /* \"Contracts/TTSwapV1Coin.sol\":1913:1921  coinList */\n      0x02\n        /* \"Contracts/TTSwapV1Coin.sol\":1913:1948  coinList[_coinInfo.contractAddress] */\n      0x00\n        /* \"Contracts/TTSwapV1Coin.sol\":1922:1931  _coinInfo */\n      dup4\n        /* \"Contracts/TTSwapV1Coin.sol\":1922:1947  _coinInfo.contractAddress */\n      0xc0\n      add\n      mload\n        /* \"Contracts/TTSwapV1Coin.sol\":1913:1948  coinList[_coinInfo.contractAddress] */\n      0xffffffffffffffffffffffffffffffffffffffff\n      and\n      0xffffffffffffffffffffffffffffffffffffffff\n      and\n      dup2\n      mstore\n      0x20\n      add\n      swap1\n      dup2\n      mstore\n      0x20\n      add\n      0x00\n      keccak256\n        /* \"Contracts/TTSwapV1Coin.sol\":1913:1955  coinList[_coinInfo.contractAddress].isUsed */\n      0x06\n      add\n      0x16\n      swap1\n      sload\n      swap1\n      0x0100\n      exp\n      swap1\n      div\n      0xff\n      and\n        /* \"Contracts/TTSwapV1Coin.sol\":1913:1963  coinList[_coinInfo.contractAddress].isUsed != true */\n      iszero\n      iszero\n      eq\n        /* \"Contracts/TTSwapV1Coin.sol\":1909:2578  if (coinList[_coinInfo.contractAddress].isUsed != true) {... */\n      tag_154\n      jumpi\n        /* \"Contracts/TTSwapV1Coin.sol\":1999:2009  msg.sender */\n      caller\n        /* \"Contracts/TTSwapV1Coin.sol\":1979:1988  _coinInfo */\n      dup2\n        /* \"Contracts/TTSwapV1Coin.sol\":1979:1996  _coinInfo.creator */\n      0x0140\n      add\n        /* \"Contracts/TTSwapV1Coin.sol\":1979:2009  _coinInfo.creator = msg.sender */\n      swap1\n      0xffffffffffffffffffffffffffffffffffffffff\n      and\n      swap1\n      dup2\n      0xffffffffffffffffffffffffffffffffffffffff\n      and\n      dup2\n      mstore\n      pop\n      pop\n        /* \"Contracts/TTSwapV1Coin.sol\":2048:2053  false */\n      0x00\n        /* \"Contracts/TTSwapV1Coin.sol\":2023:2032  _coinInfo */\n      dup2\n        /* \"Contracts/TTSwapV1Coin.sol\":2023:2045  _coinInfo.marketunlock */\n      0xe0\n      add\n        /* \"Contracts/TTSwapV1Coin.sol\":2023:2053  _coinInfo.marketunlock = false */\n      swap1\n      iszero\n      iszero\n      swap1\n      dup2\n      iszero\n      iszero\n      dup2\n      mstore\n      pop\n      pop\n        /* \"Contracts/TTSwapV1Coin.sol\":2090:2095  false */\n      0x00\n        /* \"Contracts/TTSwapV1Coin.sol\":2067:2076  _coinInfo */\n      dup2\n        /* \"Contracts/TTSwapV1Coin.sol\":2067:2087  _coinInfo.gateunlock */\n      0x0100\n      add\n        /* \"Contracts/TTSwapV1Coin.sol\":2067:2095  _coinInfo.gateunlock = false */\n      swap1\n      iszero\n      iszero\n      swap1\n      dup2\n      iszero\n      iszero\n      dup2\n      mstore\n      pop\n      pop\n        /* \"Contracts/TTSwapV1Coin.sol\":2128:2132  true */\n      0x01\n        /* \"Contracts/TTSwapV1Coin.sol\":2109:2118  _coinInfo */\n      dup2\n        /* \"Contracts/TTSwapV1Coin.sol\":2109:2125  _coinInfo.isUsed */\n      0x0120\n      add\n        /* \"Contracts/TTSwapV1Coin.sol\":2109:2132  _coinInfo.isUsed = true */\n      swap1\n      iszero\n      iszero\n      swap1\n      dup2\n      iszero\n      iszero\n      dup2\n      mstore\n      pop\n      pop\n        /* \"Contracts/TTSwapV1Coin.sol\":2184:2193  _coinInfo */\n      dup1\n        /* \"Contracts/TTSwapV1Coin.sol\":2146:2154  coinList */\n      0x02\n        /* \"Contracts/TTSwapV1Coin.sol\":2146:2181  coinList[_coinInfo.contractAddress] */\n      0x00\n        /* \"Contracts/TTSwapV1Coin.sol\":2155:2164  _coinInfo */\n      dup4\n        /* \"Contracts/TTSwapV1Coin.sol\":2155:2180  _coinInfo.contractAddress */\n      0xc0\n      add\n      mload\n        /* \"Contracts/TTSwapV1Coin.sol\":2146:2181  coinList[_coinInfo.contractAddress] */\n      0xffffffffffffffffffffffffffffffffffffffff\n      and\n      0xffffffffffffffffffffffffffffffffffffffff\n      and\n      dup2\n      mstore\n      0x20\n      add\n      swap1\n      dup2\n      mstore\n      0x20\n      add\n      0x00\n      keccak256\n        /* \"Contracts/TTSwapV1Coin.sol\":2146:2193  coinList[_coinInfo.contractAddress] = _coinInfo */\n      0x00\n      dup3\n      add\n      mload\n      dup2\n      0x00\n      add\n      swap1\n      dup2\n      tag_155\n      swap2\n      swap1\n      tag_98\n      jump\t// in\n    tag_155:\n      pop\n      0x20\n      dup3\n      add\n      mload\n      dup2\n      0x01\n      add\n      swap1\n      dup2\n      tag_156\n      swap2\n      swap1\n      tag_98\n      jump\t// in\n    tag_156:\n      pop\n      0x40\n      dup3\n      add\n      mload\n      dup2\n      0x02\n      add\n      swap1\n      dup2\n      tag_157\n      swap2\n      swap1\n      tag_98\n      jump\t// in\n    tag_157:\n      pop\n      0x60\n      dup3\n      add\n      mload\n      dup2\n      0x03\n      add\n      exp(0x0100, 0x00)\n      dup2\n      sload\n      dup2\n      0xff\n      mul\n      not\n      and\n      swap1\n      dup4\n      0xff\n      and\n      mul\n      or\n      swap1\n      sstore\n      pop\n      0x80\n      dup3\n      add\n      mload\n      dup2\n      0x04\n      add\n      sstore\n      0xa0\n      dup3\n      add\n      mload\n      dup2\n      0x05\n      add\n      sstore\n      0xc0\n      dup3\n      add\n      mload\n      dup2\n      0x06\n      add\n      exp(0x0100, 0x00)\n      dup2\n      sload\n      dup2\n      0xffffffffffffffffffffffffffffffffffffffff\n      mul\n      not\n      and\n      swap1\n      dup4\n      0xffffffffffffffffffffffffffffffffffffffff\n      and\n      mul\n      or\n      swap1\n      sstore\n      pop\n      0xe0\n      dup3\n      add\n      mload\n      dup2\n      0x06\n      add\n      exp(0x0100, 0x14)\n      dup2\n      sload\n      dup2\n      0xff\n      mul\n      not\n      and\n      swap1\n      dup4\n      iszero\n      iszero\n      mul\n      or\n      swap1\n      sstore\n      pop\n      0x0100\n      dup3\n      add\n      mload\n      dup2\n      0x06\n      add\n      exp(0x0100, 0x15)\n      dup2\n      sload\n      dup2\n      0xff\n      mul\n      not\n      and\n      swap1\n      dup4\n      iszero\n      iszero\n      mul\n      or\n      swap1\n      sstore\n      pop\n      0x0120\n      dup3\n      add\n      mload\n      dup2\n      0x06\n      add\n      exp(0x0100, 0x16)\n      dup2\n      sload\n      dup2\n      0xff\n      mul\n      not\n      and\n      swap1\n      dup4\n      iszero\n      iszero\n      mul\n      or\n      swap1\n      sstore\n      pop\n      0x0140\n      dup3\n      add\n      mload\n      dup2\n      0x07\n      add\n      exp(0x0100, 0x00)\n      dup2\n      sload\n      dup2\n      0xffffffffffffffffffffffffffffffffffffffff\n      mul\n      not\n      and\n      swap1\n      dup4\n      0xffffffffffffffffffffffffffffffffffffffff\n      and\n      mul\n      or\n      swap1\n      sstore\n      pop\n      swap1\n      pop\n      pop\n        /* \"Contracts/TTSwapV1Coin.sol\":2251:2260  _coinInfo */\n      dup1\n        /* \"Contracts/TTSwapV1Coin.sol\":2251:2293  _coinInfo... */\n      0xc0\n      add\n      mload\n        /* \"Contracts/TTSwapV1Coin.sol\":2207:2221  marketCoinList */\n      0x00\n        /* \"Contracts/TTSwapV1Coin.sol\":2207:2248  marketCoinList[_coinInfo.contractAddress] */\n      dup1\n        /* \"Contracts/TTSwapV1Coin.sol\":2222:2231  _coinInfo */\n      dup4\n        /* \"Contracts/TTSwapV1Coin.sol\":2222:2247  _coinInfo.contractAddress */\n      0xc0\n      add\n      mload\n        /* \"Contracts/TTSwapV1Coin.sol\":2207:2248  marketCoinList[_coinInfo.contractAddress] */\n      0xffffffffffffffffffffffffffffffffffffffff\n      and\n      0xffffffffffffffffffffffffffffffffffffffff\n      and\n      dup2\n      mstore\n      0x20\n      add\n      swap1\n      dup2\n      mstore\n      0x20\n      add\n      0x00\n      keccak256\n      0x00\n        /* \"Contracts/TTSwapV1Coin.sol\":2207:2293  marketCoinList[_coinInfo.contractAddress] = _coinInfo... */\n      0x0100\n      exp\n      dup2\n      sload\n      dup2\n      0xffffffffffffffffffffffffffffffffffffffff\n      mul\n      not\n      and\n      swap1\n      dup4\n      0xffffffffffffffffffffffffffffffffffffffff\n      and\n      mul\n      or\n      swap1\n      sstore\n      pop\n        /* \"Contracts/TTSwapV1Coin.sol\":1909:2578  if (coinList[_coinInfo.contractAddress].isUsed != true) {... */\n      jump(tag_158)\n    tag_154:\n        /* \"Contracts/TTSwapV1Coin.sol\":2402:2403  0 */\n      0x00\n        /* \"Contracts/TTSwapV1Coin.sol\":2349:2404  marketCoinList[_coinInfo.contractAddress] == address(0) */\n      0xffffffffffffffffffffffffffffffffffffffff\n      and\n        /* \"Contracts/TTSwapV1Coin.sol\":2349:2363  marketCoinList */\n      0x00\n        /* \"Contracts/TTSwapV1Coin.sol\":2349:2390  marketCoinList[_coinInfo.contractAddress] */\n      dup1\n        /* \"Contracts/TTSwapV1Coin.sol\":2364:2373  _coinInfo */\n      dup4\n        /* \"Contracts/TTSwapV1Coin.sol\":2364:2389  _coinInfo.contractAddress */\n      0xc0\n      add\n      mload\n        /* \"Contracts/TTSwapV1Coin.sol\":2349:2390  marketCoinList[_coinInfo.contractAddress] */\n      0xffffffffffffffffffffffffffffffffffffffff\n      and\n      0xffffffffffffffffffffffffffffffffffffffff\n      and\n      dup2\n      mstore\n      0x20\n      add\n      swap1\n      dup2\n      mstore\n      0x20\n      add\n      0x00\n      keccak256\n      0x00\n      swap1\n      sload\n      swap1\n      0x0100\n      exp\n      swap1\n      div\n      0xffffffffffffffffffffffffffffffffffffffff\n      and\n        /* \"Contracts/TTSwapV1Coin.sol\":2349:2404  marketCoinList[_coinInfo.contractAddress] == address(0) */\n      0xffffffffffffffffffffffffffffffffffffffff\n      and\n      eq\n        /* \"Contracts/TTSwapV1Coin.sol\":2324:2467  require(... */\n      tag_159\n      jumpi\n      mload(0x40)\n      0x08c379a000000000000000000000000000000000000000000000000000000000\n      dup2\n      mstore\n      0x04\n      add\n      tag_160\n      swap1\n      tag_146\n      jump\t// in\n    tag_160:\n      mload(0x40)\n      dup1\n      swap2\n      sub\n      swap1\n      revert\n    tag_159:\n        /* \"Contracts/TTSwapV1Coin.sol\":2525:2534  _coinInfo */\n      dup1\n        /* \"Contracts/TTSwapV1Coin.sol\":2525:2567  _coinInfo... */\n      0xc0\n      add\n      mload\n        /* \"Contracts/TTSwapV1Coin.sol\":2481:2495  marketCoinList */\n      0x00\n        /* \"Contracts/TTSwapV1Coin.sol\":2481:2522  marketCoinList[_coinInfo.contractAddress] */\n      dup1\n        /* \"Contracts/TTSwapV1Coin.sol\":2496:2505  _coinInfo */\n      dup4\n        /* \"Contracts/TTSwapV1Coin.sol\":2496:2521  _coinInfo.contractAddress */\n      0xc0\n      add\n      mload\n        /* \"Contracts/TTSwapV1Coin.sol\":2481:2522  marketCoinList[_coinInfo.contractAddress] */\n      0xffffffffffffffffffffffffffffffffffffffff\n      and\n      0xffffffffffffffffffffffffffffffffffffffff\n      and\n      dup2\n      mstore\n      0x20\n      add\n      swap1\n      dup2\n      mstore\n      0x20\n      add\n      0x00\n      keccak256\n      0x00\n        /* \"Contracts/TTSwapV1Coin.sol\":2481:2567  marketCoinList[_coinInfo.contractAddress] = _coinInfo... */\n      0x0100\n      exp\n      dup2\n      sload\n      dup2\n      0xffffffffffffffffffffffffffffffffffffffff\n      mul\n      not\n      and\n      swap1\n      dup4\n      0xffffffffffffffffffffffffffffffffffffffff\n      and\n      mul\n      or\n      swap1\n      sstore\n      pop\n        /* \"Contracts/TTSwapV1Coin.sol\":1909:2578  if (coinList[_coinInfo.contractAddress].isUsed != true) {... */\n    tag_158:\n        /* \"Contracts/TTSwapV1Coin.sol\":1807:2584  function addCoinbyMarketor(... */\n      pop\n      jump\t// out\n        /* \"Contracts/TTSwapV1Coin.sol\":561:628  mapping(address => mapping(address => address)) public gateCoinList */\n    tag_77:\n      mstore(0x20, 0x01)\n      dup2\n      0x00\n      mstore\n      mstore(0x20, keccak256(0x00, 0x40))\n      dup1\n      0x00\n      mstore\n      keccak256(0x00, 0x40)\n      0x00\n      swap2\n      pop\n      swap2\n      pop\n      swap1\n      sload\n      swap1\n      0x0100\n      exp\n      swap1\n      div\n      0xffffffffffffffffffffffffffffffffffffffff\n      and\n      dup2\n      jump\t// out\n        /* \"Contracts/TTSwapV1Coin.sol\":3350:3925  function impoveGateCoinbyMarketor(... */\n    tag_81:\n        /* \"Contracts/TTSwapV1Coin.sol\":3563:3564  0 */\n      0x00\n        /* \"Contracts/TTSwapV1Coin.sol\":3507:3565  gateCoinList[_gateaddress][_contractaddress] != address(0) */\n      0xffffffffffffffffffffffffffffffffffffffff\n      and\n        /* \"Contracts/TTSwapV1Coin.sol\":3507:3519  gateCoinList */\n      0x01\n        /* \"Contracts/TTSwapV1Coin.sol\":3507:3533  gateCoinList[_gateaddress] */\n      0x00\n        /* \"Contracts/TTSwapV1Coin.sol\":3520:3532  _gateaddress */\n      dup4\n        /* \"Contracts/TTSwapV1Coin.sol\":3507:3533  gateCoinList[_gateaddress] */\n      0xffffffffffffffffffffffffffffffffffffffff\n      and\n      0xffffffffffffffffffffffffffffffffffffffff\n      and\n      dup2\n      mstore\n      0x20\n      add\n      swap1\n      dup2\n      mstore\n      0x20\n      add\n      0x00\n      keccak256\n        /* \"Contracts/TTSwapV1Coin.sol\":3507:3551  gateCoinList[_gateaddress][_contractaddress] */\n      0x00\n        /* \"Contracts/TTSwapV1Coin.sol\":3534:3550  _contractaddress */\n      dup5\n        /* \"Contracts/TTSwapV1Coin.sol\":3507:3551  gateCoinList[_gateaddress][_contractaddress] */\n      0xffffffffffffffffffffffffffffffffffffffff\n      and\n      0xffffffffffffffffffffffffffffffffffffffff\n      and\n      dup2\n      mstore\n      0x20\n      add\n      swap1\n      dup2\n      mstore\n      0x20\n      add\n      0x00\n      keccak256\n      0x00\n      swap1\n      sload\n      swap1\n      0x0100\n      exp\n      swap1\n      div\n      0xffffffffffffffffffffffffffffffffffffffff\n      and\n        /* \"Contracts/TTSwapV1Coin.sol\":3507:3565  gateCoinList[_gateaddress][_contractaddress] != address(0) */\n      0xffffffffffffffffffffffffffffffffffffffff\n      and\n      sub\n        /* \"Contracts/TTSwapV1Coin.sol\":3486:3613  require(... */\n      tag_163\n      jumpi\n      mload(0x40)\n      0x08c379a000000000000000000000000000000000000000000000000000000000\n      dup2\n      mstore\n      0x04\n      add\n      tag_164\n      swap1\n      tag_136\n      jump\t// in\n    tag_164:\n      mload(0x40)\n      dup1\n      swap2\n      sub\n      swap1\n      revert\n    tag_163:\n        /* \"Contracts/TTSwapV1Coin.sol\":3688:3689  0 */\n      0x00\n        /* \"Contracts/TTSwapV1Coin.sol\":3644:3690  marketCoinList[_contractaddress] == address(0) */\n      0xffffffffffffffffffffffffffffffffffffffff\n      and\n        /* \"Contracts/TTSwapV1Coin.sol\":3644:3658  marketCoinList */\n      0x00\n        /* \"Contracts/TTSwapV1Coin.sol\":3644:3676  marketCoinList[_contractaddress] */\n      dup1\n        /* \"Contracts/TTSwapV1Coin.sol\":3659:3675  _contractaddress */\n      dup5\n        /* \"Contracts/TTSwapV1Coin.sol\":3644:3676  marketCoinList[_contractaddress] */\n      0xffffffffffffffffffffffffffffffffffffffff\n      and\n      0xffffffffffffffffffffffffffffffffffffffff\n      and\n      dup2\n      mstore\n      0x20\n      add\n      swap1\n      dup2\n      mstore\n      0x20\n      add\n      0x00\n      keccak256\n      0x00\n      swap1\n      sload\n      swap1\n      0x0100\n      exp\n      swap1\n      div\n      0xffffffffffffffffffffffffffffffffffffffff\n      and\n        /* \"Contracts/TTSwapV1Coin.sol\":3644:3690  marketCoinList[_contractaddress] == address(0) */\n      0xffffffffffffffffffffffffffffffffffffffff\n      and\n      eq\n        /* \"Contracts/TTSwapV1Coin.sol\":3623:3745  require(... */\n      tag_165\n      jumpi\n      mload(0x40)\n      0x08c379a000000000000000000000000000000000000000000000000000000000\n      dup2\n      mstore\n      0x04\n      add\n      tag_166\n      swap1\n      tag_167\n      jump\t// in\n    tag_166:\n      mload(0x40)\n      dup1\n      swap2\n      sub\n      swap1\n      revert\n    tag_165:\n        /* \"Contracts/TTSwapV1Coin.sol\":3790:3802  gateCoinList */\n      0x01\n        /* \"Contracts/TTSwapV1Coin.sol\":3790:3816  gateCoinList[_gateaddress] */\n      0x00\n        /* \"Contracts/TTSwapV1Coin.sol\":3803:3815  _gateaddress */\n      dup3\n        /* \"Contracts/TTSwapV1Coin.sol\":3790:3816  gateCoinList[_gateaddress] */\n      0xffffffffffffffffffffffffffffffffffffffff\n      and\n      0xffffffffffffffffffffffffffffffffffffffff\n      and\n      dup2\n      mstore\n      0x20\n      add\n      swap1\n      dup2\n      mstore\n      0x20\n      add\n      0x00\n      keccak256\n        /* \"Contracts/TTSwapV1Coin.sol\":3790:3856  gateCoinList[_gateaddress][... */\n      0x00\n        /* \"Contracts/TTSwapV1Coin.sol\":3830:3846  _contractaddress */\n      dup4\n        /* \"Contracts/TTSwapV1Coin.sol\":3790:3856  gateCoinList[_gateaddress][... */\n      0xffffffffffffffffffffffffffffffffffffffff\n      and\n      0xffffffffffffffffffffffffffffffffffffffff\n      and\n      dup2\n      mstore\n      0x20\n      add\n      swap1\n      dup2\n      mstore\n      0x20\n      add\n      0x00\n      keccak256\n      0x00\n      swap1\n      sload\n      swap1\n      0x0100\n      exp\n      swap1\n      div\n      0xffffffffffffffffffffffffffffffffffffffff\n      and\n        /* \"Contracts/TTSwapV1Coin.sol\":3755:3769  marketCoinList */\n      0x00\n        /* \"Contracts/TTSwapV1Coin.sol\":3755:3787  marketCoinList[_contractaddress] */\n      dup1\n        /* \"Contracts/TTSwapV1Coin.sol\":3770:3786  _contractaddress */\n      dup5\n        /* \"Contracts/TTSwapV1Coin.sol\":3755:3787  marketCoinList[_contractaddress] */\n      0xffffffffffffffffffffffffffffffffffffffff\n      and\n      0xffffffffffffffffffffffffffffffffffffffff\n      and\n      dup2\n      mstore\n      0x20\n      add\n      swap1\n      dup2\n      mstore\n      0x20\n      add\n      0x00\n      keccak256\n      0x00\n        /* \"Contracts/TTSwapV1Coin.sol\":3755:3856  marketCoinList[_contractaddress] = gateCoinList[_gateaddress][... */\n      0x0100\n      exp\n      dup2\n      sload\n      dup2\n      0xffffffffffffffffffffffffffffffffffffffff\n      mul\n      not\n      and\n      swap1\n      dup4\n      0xffffffffffffffffffffffffffffffffffffffff\n      and\n      mul\n      or\n      swap1\n      sstore\n      pop\n        /* \"Contracts/TTSwapV1Coin.sol\":3874:3886  gateCoinList */\n      0x01\n        /* \"Contracts/TTSwapV1Coin.sol\":3874:3900  gateCoinList[_gateaddress] */\n      0x00\n        /* \"Contracts/TTSwapV1Coin.sol\":3887:3899  _gateaddress */\n      dup3\n        /* \"Contracts/TTSwapV1Coin.sol\":3874:3900  gateCoinList[_gateaddress] */\n      0xffffffffffffffffffffffffffffffffffffffff\n      and\n      0xffffffffffffffffffffffffffffffffffffffff\n      and\n      dup2\n      mstore\n      0x20\n      add\n      swap1\n      dup2\n      mstore\n      0x20\n      add\n      0x00\n      keccak256\n        /* \"Contracts/TTSwapV1Coin.sol\":3874:3918  gateCoinList[_gateaddress][_contractaddress] */\n      0x00\n        /* \"Contracts/TTSwapV1Coin.sol\":3901:3917  _contractaddress */\n      dup4\n        /* \"Contracts/TTSwapV1Coin.sol\":3874:3918  gateCoinList[_gateaddress][_contractaddress] */\n      0xffffffffffffffffffffffffffffffffffffffff\n      and\n      0xffffffffffffffffffffffffffffffffffffffff\n      and\n      dup2\n      mstore\n      0x20\n      add\n      swap1\n      dup2\n      mstore\n      0x20\n      add\n      0x00\n      keccak256\n      0x00\n        /* \"Contracts/TTSwapV1Coin.sol\":3867:3918  delete gateCoinList[_gateaddress][_contractaddress] */\n      0x0100\n      exp\n      dup2\n      sload\n      swap1\n      0xffffffffffffffffffffffffffffffffffffffff\n      mul\n      not\n      and\n      swap1\n      sstore\n        /* \"Contracts/TTSwapV1Coin.sol\":3350:3925  function impoveGateCoinbyMarketor(... */\n      pop\n      pop\n      jump\t// out\n        /* \"Contracts/TTSwapV1Coin.sol\":6637:6910  function getCoinInfo(... */\n    tag_84:\n        /* \"Contracts/TTSwapV1Coin.sol\":6721:6738  LCoin.Info memory */\n      tag_168\n      tag_169\n      jump\t// in\n    tag_168:\n        /* \"Contracts/TTSwapV1Coin.sol\":6808:6812  true */\n      0x01\n        /* \"Contracts/TTSwapV1Coin.sol\":6771:6812  coinList[_contractaddress].isUsed == true */\n      iszero\n      iszero\n        /* \"Contracts/TTSwapV1Coin.sol\":6771:6779  coinList */\n      0x02\n        /* \"Contracts/TTSwapV1Coin.sol\":6771:6797  coinList[_contractaddress] */\n      0x00\n        /* \"Contracts/TTSwapV1Coin.sol\":6780:6796  _contractaddress */\n      dup5\n        /* \"Contracts/TTSwapV1Coin.sol\":6771:6797  coinList[_contractaddress] */\n      0xffffffffffffffffffffffffffffffffffffffff\n      and\n      0xffffffffffffffffffffffffffffffffffffffff\n      and\n      dup2\n      mstore\n      0x20\n      add\n      swap1\n      dup2\n      mstore\n      0x20\n      add\n      0x00\n      keccak256\n        /* \"Contracts/TTSwapV1Coin.sol\":6771:6804  coinList[_contractaddress].isUsed */\n      0x06\n      add\n      0x16\n      swap1\n      sload\n      swap1\n      0x0100\n      exp\n      swap1\n      div\n      0xff\n      and\n        /* \"Contracts/TTSwapV1Coin.sol\":6771:6812  coinList[_contractaddress].isUsed == true */\n      iszero\n      iszero\n      eq\n        /* \"Contracts/TTSwapV1Coin.sol\":6750:6860  require(... */\n      tag_171\n      jumpi\n      mload(0x40)\n      0x08c379a000000000000000000000000000000000000000000000000000000000\n      dup2\n      mstore\n      0x04\n      add\n      tag_172\n      swap1\n      tag_136\n      jump\t// in\n    tag_172:\n      mload(0x40)\n      dup1\n      swap2\n      sub\n      swap1\n      revert\n    tag_171:\n        /* \"Contracts/TTSwapV1Coin.sol\":6877:6885  coinList */\n      0x02\n        /* \"Contracts/TTSwapV1Coin.sol\":6877:6903  coinList[_contractaddress] */\n      0x00\n        /* \"Contracts/TTSwapV1Coin.sol\":6886:6902  _contractaddress */\n      dup4\n        /* \"Contracts/TTSwapV1Coin.sol\":6877:6903  coinList[_contractaddress] */\n      0xffffffffffffffffffffffffffffffffffffffff\n      and\n      0xffffffffffffffffffffffffffffffffffffffff\n      and\n      dup2\n      mstore\n      0x20\n      add\n      swap1\n      dup2\n      mstore\n      0x20\n      add\n      0x00\n      keccak256\n        /* \"Contracts/TTSwapV1Coin.sol\":6870:6903  return coinList[_contractaddress] */\n      mload(0x40)\n      dup1\n      0x0160\n      add\n      0x40\n      mstore\n      swap1\n      dup2\n      0x00\n      dup3\n      add\n      dup1\n      sload\n      tag_173\n      swap1\n      tag_102\n      jump\t// in\n    tag_173:\n      dup1\n      0x1f\n      add\n      0x20\n      dup1\n      swap2\n      div\n      mul\n      0x20\n      add\n      mload(0x40)\n      swap1\n      dup2\n      add\n      0x40\n      mstore\n      dup1\n      swap3\n      swap2\n      swap1\n      dup2\n      dup2\n      mstore\n      0x20\n      add\n      dup3\n      dup1\n      sload\n      tag_174\n      swap1\n      tag_102\n      jump\t// in\n    tag_174:\n      dup1\n      iszero\n      tag_175\n      jumpi\n      dup1\n      0x1f\n      lt\n      tag_176\n      jumpi\n      0x0100\n      dup1\n      dup4\n      sload\n      div\n      mul\n      dup4\n      mstore\n      swap2\n      0x20\n      add\n      swap2\n      jump(tag_175)\n    tag_176:\n      dup3\n      add\n      swap2\n      swap1\n      0x00\n      mstore\n      keccak256(0x00, 0x20)\n      swap1\n    tag_177:\n      dup2\n      sload\n      dup2\n      mstore\n      swap1\n      0x01\n      add\n      swap1\n      0x20\n      add\n      dup1\n      dup4\n      gt\n      tag_177\n      jumpi\n      dup3\n      swap1\n      sub\n      0x1f\n      and\n      dup3\n      add\n      swap2\n    tag_175:\n      pop\n      pop\n      pop\n      pop\n      pop\n      dup2\n      mstore\n      0x20\n      add\n      0x01\n      dup3\n      add\n      dup1\n      sload\n      tag_178\n      swap1\n      tag_102\n      jump\t// in\n    tag_178:\n      dup1\n      0x1f\n      add\n      0x20\n      dup1\n      swap2\n      div\n      mul\n      0x20\n      add\n      mload(0x40)\n      swap1\n      dup2\n      add\n      0x40\n      mstore\n      dup1\n      swap3\n      swap2\n      swap1\n      dup2\n      dup2\n      mstore\n      0x20\n      add\n      dup3\n      dup1\n      sload\n      tag_179\n      swap1\n      tag_102\n      jump\t// in\n    tag_179:\n      dup1\n      iszero\n      tag_180\n      jumpi\n      dup1\n      0x1f\n      lt\n      tag_181\n      jumpi\n      0x0100\n      dup1\n      dup4\n      sload\n      div\n      mul\n      dup4\n      mstore\n      swap2\n      0x20\n      add\n      swap2\n      jump(tag_180)\n    tag_181:\n      dup3\n      add\n      swap2\n      swap1\n      0x00\n      mstore\n      keccak256(0x00, 0x20)\n      swap1\n    tag_182:\n      dup2\n      sload\n      dup2\n      mstore\n      swap1\n      0x01\n      add\n      swap1\n      0x20\n      add\n      dup1\n      dup4\n      gt\n      tag_182\n      jumpi\n      dup3\n      swap1\n      sub\n      0x1f\n      and\n      dup3\n      add\n      swap2\n    tag_180:\n      pop\n      pop\n      pop\n      pop\n      pop\n      dup2\n      mstore\n      0x20\n      add\n      0x02\n      dup3\n      add\n      dup1\n      sload\n      tag_183\n      swap1\n      tag_102\n      jump\t// in\n    tag_183:\n      dup1\n      0x1f\n      add\n      0x20\n      dup1\n      swap2\n      div\n      mul\n      0x20\n      add\n      mload(0x40)\n      swap1\n      dup2\n      add\n      0x40\n      mstore\n      dup1\n      swap3\n      swap2\n      swap1\n      dup2\n      dup2\n      mstore\n      0x20\n      add\n      dup3\n      dup1\n      sload\n      tag_184\n      swap1\n      tag_102\n      jump\t// in\n    tag_184:\n      dup1\n      iszero\n      tag_185\n      jumpi\n      dup1\n      0x1f\n      lt\n      tag_186\n      jumpi\n      0x0100\n      dup1\n      dup4\n      sload\n      div\n      mul\n      dup4\n      mstore\n      swap2\n      0x20\n      add\n      swap2\n      jump(tag_185)\n    tag_186:\n      dup3\n      add\n      swap2\n      swap1\n      0x00\n      mstore\n      keccak256(0x00, 0x20)\n      swap1\n    tag_187:\n      dup2\n      sload\n      dup2\n      mstore\n      swap1\n      0x01\n      add\n      swap1\n      0x20\n      add\n      dup1\n      dup4\n      gt\n      tag_187\n      jumpi\n      dup3\n      swap1\n      sub\n      0x1f\n      and\n      dup3\n      add\n      swap2\n    tag_185:\n      pop\n      pop\n      pop\n      pop\n      pop\n      dup2\n      mstore\n      0x20\n      add\n      0x03\n      dup3\n      add\n      0x00\n      swap1\n      sload\n      swap1\n      0x0100\n      exp\n      swap1\n      div\n      0xff\n      and\n      0xff\n      and\n      0xff\n      and\n      dup2\n      mstore\n      0x20\n      add\n      0x04\n      dup3\n      add\n      sload\n      dup2\n      mstore\n      0x20\n      add\n      0x05\n      dup3\n      add\n      sload\n      dup2\n      mstore\n      0x20\n      add\n      0x06\n      dup3\n      add\n      0x00\n      swap1\n      sload\n      swap1\n      0x0100\n      exp\n      swap1\n      div\n      0xffffffffffffffffffffffffffffffffffffffff\n      and\n      0xffffffffffffffffffffffffffffffffffffffff\n      and\n      0xffffffffffffffffffffffffffffffffffffffff\n      and\n      dup2\n      mstore\n      0x20\n      add\n      0x06\n      dup3\n      add\n      0x14\n      swap1\n      sload\n      swap1\n      0x0100\n      exp\n      swap1\n      div\n      0xff\n      and\n      iszero\n      iszero\n      iszero\n      iszero\n      dup2\n      mstore\n      0x20\n      add\n      0x06\n      dup3\n      add\n      0x15\n      swap1\n      sload\n      swap1\n      0x0100\n      exp\n      swap1\n      div\n      0xff\n      and\n      iszero\n      iszero\n      iszero\n      iszero\n      dup2\n      mstore\n      0x20\n      add\n      0x06\n      dup3\n      add\n      0x16\n      swap1\n      sload\n      swap1\n      0x0100\n      exp\n      swap1\n      div\n      0xff\n      and\n      iszero\n      iszero\n      iszero\n      iszero\n      dup2\n      mstore\n      0x20\n      add\n      0x07\n      dup3\n      add\n      0x00\n      swap1\n      sload\n      swap1\n      0x0100\n      exp\n      swap1\n      div\n      0xffffffffffffffffffffffffffffffffffffffff\n      and\n      0xffffffffffffffffffffffffffffffffffffffff\n      and\n      0xffffffffffffffffffffffffffffffffffffffff\n      and\n      dup2\n      mstore\n      pop\n      pop\n      swap1\n      pop\n        /* \"Contracts/TTSwapV1Coin.sol\":6637:6910  function getCoinInfo(... */\n      swap2\n      swap1\n      pop\n      jump\t// out\n        /* \"Contracts/TTSwapV1Coin.sol\":4193:4521  function delGateCoinbyMarketor(... */\n    tag_89:\n        /* \"Contracts/TTSwapV1Coin.sol\":4403:4404  0 */\n      0x00\n        /* \"Contracts/TTSwapV1Coin.sol\":4347:4405  gateCoinList[_gateaddress][_contractaddress] == address(0) */\n      0xffffffffffffffffffffffffffffffffffffffff\n      and\n        /* \"Contracts/TTSwapV1Coin.sol\":4347:4359  gateCoinList */\n      0x01\n        /* \"Contracts/TTSwapV1Coin.sol\":4347:4373  gateCoinList[_gateaddress] */\n      0x00\n        /* \"Contracts/TTSwapV1Coin.sol\":4360:4372  _gateaddress */\n      dup4\n        /* \"Contracts/TTSwapV1Coin.sol\":4347:4373  gateCoinList[_gateaddress] */\n      0xffffffffffffffffffffffffffffffffffffffff\n      and\n      0xffffffffffffffffffffffffffffffffffffffff\n      and\n      dup2\n      mstore\n      0x20\n      add\n      swap1\n      dup2\n      mstore\n      0x20\n      add\n      0x00\n      keccak256\n        /* \"Contracts/TTSwapV1Coin.sol\":4347:4391  gateCoinList[_gateaddress][_contractaddress] */\n      0x00\n        /* \"Contracts/TTSwapV1Coin.sol\":4374:4390  _contractaddress */\n      dup5\n        /* \"Contracts/TTSwapV1Coin.sol\":4347:4391  gateCoinList[_gateaddress][_contractaddress] */\n      0xffffffffffffffffffffffffffffffffffffffff\n      and\n      0xffffffffffffffffffffffffffffffffffffffff\n      and\n      dup2\n      mstore\n      0x20\n      add\n      swap1\n      dup2\n      mstore\n      0x20\n      add\n      0x00\n      keccak256\n      0x00\n      swap1\n      sload\n      swap1\n      0x0100\n      exp\n      swap1\n      div\n      0xffffffffffffffffffffffffffffffffffffffff\n      and\n        /* \"Contracts/TTSwapV1Coin.sol\":4347:4405  gateCoinList[_gateaddress][_contractaddress] == address(0) */\n      0xffffffffffffffffffffffffffffffffffffffff\n      and\n      eq\n        /* \"Contracts/TTSwapV1Coin.sol\":4326:4453  require(... */\n      tag_190\n      jumpi\n      mload(0x40)\n      0x08c379a000000000000000000000000000000000000000000000000000000000\n      dup2\n      mstore\n      0x04\n      add\n      tag_191\n      swap1\n      tag_136\n      jump\t// in\n    tag_191:\n      mload(0x40)\n      dup1\n      swap2\n      sub\n      swap1\n      revert\n    tag_190:\n        /* \"Contracts/TTSwapV1Coin.sol\":4470:4482  gateCoinList */\n      0x01\n        /* \"Contracts/TTSwapV1Coin.sol\":4470:4496  gateCoinList[_gateaddress] */\n      0x00\n        /* \"Contracts/TTSwapV1Coin.sol\":4483:4495  _gateaddress */\n      dup3\n        /* \"Contracts/TTSwapV1Coin.sol\":4470:4496  gateCoinList[_gateaddress] */\n      0xffffffffffffffffffffffffffffffffffffffff\n      and\n      0xffffffffffffffffffffffffffffffffffffffff\n      and\n      dup2\n      mstore\n      0x20\n      add\n      swap1\n      dup2\n      mstore\n      0x20\n      add\n      0x00\n      keccak256\n        /* \"Contracts/TTSwapV1Coin.sol\":4470:4514  gateCoinList[_gateaddress][_contractaddress] */\n      0x00\n        /* \"Contracts/TTSwapV1Coin.sol\":4497:4513  _contractaddress */\n      dup4\n        /* \"Contracts/TTSwapV1Coin.sol\":4470:4514  gateCoinList[_gateaddress][_contractaddress] */\n      0xffffffffffffffffffffffffffffffffffffffff\n      and\n      0xffffffffffffffffffffffffffffffffffffffff\n      and\n      dup2\n      mstore\n      0x20\n      add\n      swap1\n      dup2\n      mstore\n      0x20\n      add\n      0x00\n      keccak256\n      0x00\n        /* \"Contracts/TTSwapV1Coin.sol\":4463:4514  delete gateCoinList[_gateaddress][_contractaddress] */\n      0x0100\n      exp\n      dup2\n      sload\n      swap1\n      0xffffffffffffffffffffffffffffffffffffffff\n      mul\n      not\n      and\n      swap1\n      sstore\n        /* \"Contracts/TTSwapV1Coin.sol\":4193:4521  function delGateCoinbyMarketor(... */\n      pop\n      pop\n      jump\t// out\n    tag_169:\n      mload(0x40)\n      dup1\n      0x0160\n      add\n      0x40\n      mstore\n      dup1\n      0x60\n      dup2\n      mstore\n      0x20\n      add\n      0x60\n      dup2\n      mstore\n      0x20\n      add\n      0x60\n      dup2\n      mstore\n      0x20\n      add\n      and(0xff, 0x00)\n      dup2\n      mstore\n      0x20\n      add\n      0x00\n      dup2\n      mstore\n      0x20\n      add\n      0x00\n      dup2\n      mstore\n      0x20\n      add\n      and(0xffffffffffffffffffffffffffffffffffffffff, 0x00)\n      dup2\n      mstore\n      0x20\n      add\n      iszero(iszero(0x00))\n      dup2\n      mstore\n      0x20\n      add\n      iszero(iszero(0x00))\n      dup2\n      mstore\n      0x20\n      add\n      iszero(iszero(0x00))\n      dup2\n      mstore\n      0x20\n      add\n      and(0xffffffffffffffffffffffffffffffffffffffff, 0x00)\n      dup2\n      mstore\n      pop\n      swap1\n      jump\t// out\n        /* \"#utility.yul\":7:82   */\n    tag_192:\n        /* \"#utility.yul\":40:46   */\n      0x00\n        /* \"#utility.yul\":73:75   */\n      0x40\n        /* \"#utility.yul\":67:76   */\n      mload\n        /* \"#utility.yul\":57:76   */\n      swap1\n      pop\n        /* \"#utility.yul\":7:82   */\n      swap1\n      jump\t// out\n        /* \"#utility.yul\":88:205   */\n    tag_193:\n        /* \"#utility.yul\":197:198   */\n      0x00\n        /* \"#utility.yul\":194:195   */\n      dup1\n        /* \"#utility.yul\":187:199   */\n      revert\n        /* \"#utility.yul\":211:328   */\n    tag_194:\n        /* \"#utility.yul\":320:321   */\n      0x00\n        /* \"#utility.yul\":317:318   */\n      dup1\n        /* \"#utility.yul\":310:322   */\n      revert\n        /* \"#utility.yul\":334:460   */\n    tag_195:\n        /* \"#utility.yul\":371:378   */\n      0x00\n        /* \"#utility.yul\":411:453   */\n      0xffffffffffffffffffffffffffffffffffffffff\n        /* \"#utility.yul\":404:409   */\n      dup3\n        /* \"#utility.yul\":400:454   */\n      and\n        /* \"#utility.yul\":389:454   */\n      swap1\n      pop\n        /* \"#utility.yul\":334:460   */\n      swap2\n      swap1\n      pop\n      jump\t// out\n        /* \"#utility.yul\":466:562   */\n    tag_196:\n        /* \"#utility.yul\":503:510   */\n      0x00\n        /* \"#utility.yul\":532:556   */\n      tag_268\n        /* \"#utility.yul\":550:555   */\n      dup3\n        /* \"#utility.yul\":532:556   */\n      tag_195\n      jump\t// in\n    tag_268:\n        /* \"#utility.yul\":521:556   */\n      swap1\n      pop\n        /* \"#utility.yul\":466:562   */\n      swap2\n      swap1\n      pop\n      jump\t// out\n        /* \"#utility.yul\":568:690   */\n    tag_197:\n        /* \"#utility.yul\":641:665   */\n      tag_270\n        /* \"#utility.yul\":659:664   */\n      dup2\n        /* \"#utility.yul\":641:665   */\n      tag_196\n      jump\t// in\n    tag_270:\n        /* \"#utility.yul\":634:639   */\n      dup2\n        /* \"#utility.yul\":631:666   */\n      eq\n        /* \"#utility.yul\":621:684   */\n      tag_271\n      jumpi\n        /* \"#utility.yul\":680:681   */\n      0x00\n        /* \"#utility.yul\":677:678   */\n      dup1\n        /* \"#utility.yul\":670:682   */\n      revert\n        /* \"#utility.yul\":621:684   */\n    tag_271:\n        /* \"#utility.yul\":568:690   */\n      pop\n      jump\t// out\n        /* \"#utility.yul\":696:835   */\n    tag_198:\n        /* \"#utility.yul\":742:747   */\n      0x00\n        /* \"#utility.yul\":780:786   */\n      dup2\n        /* \"#utility.yul\":767:787   */\n      calldataload\n        /* \"#utility.yul\":758:787   */\n      swap1\n      pop\n        /* \"#utility.yul\":796:829   */\n      tag_273\n        /* \"#utility.yul\":823:828   */\n      dup2\n        /* \"#utility.yul\":796:829   */\n      tag_197\n      jump\t// in\n    tag_273:\n        /* \"#utility.yul\":696:835   */\n      swap3\n      swap2\n      pop\n      pop\n      jump\t// out\n        /* \"#utility.yul\":841:1170   */\n    tag_26:\n        /* \"#utility.yul\":900:906   */\n      0x00\n        /* \"#utility.yul\":949:951   */\n      0x20\n        /* \"#utility.yul\":937:946   */\n      dup3\n        /* \"#utility.yul\":928:935   */\n      dup5\n        /* \"#utility.yul\":924:947   */\n      sub\n        /* \"#utility.yul\":920:952   */\n      slt\n        /* \"#utility.yul\":917:1036   */\n      iszero\n      tag_275\n      jumpi\n        /* \"#utility.yul\":955:1034   */\n      tag_276\n      tag_193\n      jump\t// in\n    tag_276:\n        /* \"#utility.yul\":917:1036   */\n    tag_275:\n        /* \"#utility.yul\":1075:1076   */\n      0x00\n        /* \"#utility.yul\":1100:1153   */\n      tag_277\n        /* \"#utility.yul\":1145:1152   */\n      dup5\n        /* \"#utility.yul\":1136:1142   */\n      dup3\n        /* \"#utility.yul\":1125:1134   */\n      dup6\n        /* \"#utility.yul\":1121:1143   */\n      add\n        /* \"#utility.yul\":1100:1153   */\n      tag_198\n      jump\t// in\n    tag_277:\n        /* \"#utility.yul\":1090:1153   */\n      swap2\n      pop\n        /* \"#utility.yul\":1046:1163   */\n      pop\n        /* \"#utility.yul\":841:1170   */\n      swap3\n      swap2\n      pop\n      pop\n      jump\t// out\n        /* \"#utility.yul\":1176:1293   */\n    tag_199:\n        /* \"#utility.yul\":1285:1286   */\n      0x00\n        /* \"#utility.yul\":1282:1283   */\n      dup1\n        /* \"#utility.yul\":1275:1287   */\n      revert\n        /* \"#utility.yul\":1299:1401   */\n    tag_200:\n        /* \"#utility.yul\":1340:1346   */\n      0x00\n        /* \"#utility.yul\":1391:1393   */\n      0x1f\n        /* \"#utility.yul\":1387:1394   */\n      not\n        /* \"#utility.yul\":1382:1384   */\n      0x1f\n        /* \"#utility.yul\":1375:1380   */\n      dup4\n        /* \"#utility.yul\":1371:1385   */\n      add\n        /* \"#utility.yul\":1367:1395   */\n      and\n        /* \"#utility.yul\":1357:1395   */\n      swap1\n      pop\n        /* \"#utility.yul\":1299:1401   */\n      swap2\n      swap1\n      pop\n      jump\t// out\n        /* \"#utility.yul\":1407:1587   */\n    tag_201:\n        /* \"#utility.yul\":1455:1532   */\n      0x4e487b7100000000000000000000000000000000000000000000000000000000\n        /* \"#utility.yul\":1452:1453   */\n      0x00\n        /* \"#utility.yul\":1445:1533   */\n      mstore\n        /* \"#utility.yul\":1552:1556   */\n      0x41\n        /* \"#utility.yul\":1549:1550   */\n      0x04\n        /* \"#utility.yul\":1542:1557   */\n      mstore\n        /* \"#utility.yul\":1576:1580   */\n      0x24\n        /* \"#utility.yul\":1573:1574   */\n      0x00\n        /* \"#utility.yul\":1566:1581   */\n      revert\n        /* \"#utility.yul\":1593:1874   */\n    tag_202:\n        /* \"#utility.yul\":1676:1703   */\n      tag_282\n        /* \"#utility.yul\":1698:1702   */\n      dup3\n        /* \"#utility.yul\":1676:1703   */\n      tag_200\n      jump\t// in\n    tag_282:\n        /* \"#utility.yul\":1668:1674   */\n      dup2\n        /* \"#utility.yul\":1664:1704   */\n      add\n        /* \"#utility.yul\":1806:1812   */\n      dup2\n        /* \"#utility.yul\":1794:1804   */\n      dup2\n        /* \"#utility.yul\":1791:1813   */\n      lt\n        /* \"#utility.yul\":1770:1788   */\n      0xffffffffffffffff\n        /* \"#utility.yul\":1758:1768   */\n      dup3\n        /* \"#utility.yul\":1755:1789   */\n      gt\n        /* \"#utility.yul\":1752:1814   */\n      or\n        /* \"#utility.yul\":1749:1837   */\n      iszero\n      tag_283\n      jumpi\n        /* \"#utility.yul\":1817:1835   */\n      tag_284\n      tag_201\n      jump\t// in\n    tag_284:\n        /* \"#utility.yul\":1749:1837   */\n    tag_283:\n        /* \"#utility.yul\":1857:1867   */\n      dup1\n        /* \"#utility.yul\":1853:1855   */\n      0x40\n        /* \"#utility.yul\":1846:1868   */\n      mstore\n        /* \"#utility.yul\":1636:1874   */\n      pop\n        /* \"#utility.yul\":1593:1874   */\n      pop\n      pop\n      jump\t// out\n        /* \"#utility.yul\":1880:2009   */\n    tag_203:\n        /* \"#utility.yul\":1914:1920   */\n      0x00\n        /* \"#utility.yul\":1941:1961   */\n      tag_286\n      tag_192\n      jump\t// in\n    tag_286:\n        /* \"#utility.yul\":1931:1961   */\n      swap1\n      pop\n        /* \"#utility.yul\":1970:2003   */\n      tag_287\n        /* \"#utility.yul\":1998:2002   */\n      dup3\n        /* \"#utility.yul\":1990:1996   */\n      dup3\n        /* \"#utility.yul\":1970:2003   */\n      tag_202\n      jump\t// in\n    tag_287:\n        /* \"#utility.yul\":1880:2009   */\n      swap2\n      swap1\n      pop\n      jump\t// out\n        /* \"#utility.yul\":2015:2132   */\n    tag_204:\n        /* \"#utility.yul\":2124:2125   */\n      0x00\n        /* \"#utility.yul\":2121:2122   */\n      dup1\n        /* \"#utility.yul\":2114:2126   */\n      revert\n        /* \"#utility.yul\":2138:2255   */\n    tag_205:\n        /* \"#utility.yul\":2247:2248   */\n      0x00\n        /* \"#utility.yul\":2244:2245   */\n      dup1\n        /* \"#utility.yul\":2237:2249   */\n      revert\n        /* \"#utility.yul\":2261:2378   */\n    tag_206:\n        /* \"#utility.yul\":2370:2371   */\n      0x00\n        /* \"#utility.yul\":2367:2368   */\n      dup1\n        /* \"#utility.yul\":2360:2372   */\n      revert\n        /* \"#utility.yul\":2384:2692   */\n    tag_207:\n        /* \"#utility.yul\":2446:2450   */\n      0x00\n        /* \"#utility.yul\":2536:2554   */\n      0xffffffffffffffff\n        /* \"#utility.yul\":2528:2534   */\n      dup3\n        /* \"#utility.yul\":2525:2555   */\n      gt\n        /* \"#utility.yul\":2522:2578   */\n      iszero\n      tag_292\n      jumpi\n        /* \"#utility.yul\":2558:2576   */\n      tag_293\n      tag_201\n      jump\t// in\n    tag_293:\n        /* \"#utility.yul\":2522:2578   */\n    tag_292:\n        /* \"#utility.yul\":2596:2625   */\n      tag_294\n        /* \"#utility.yul\":2618:2624   */\n      dup3\n        /* \"#utility.yul\":2596:2625   */\n      tag_200\n      jump\t// in\n    tag_294:\n        /* \"#utility.yul\":2588:2625   */\n      swap1\n      pop\n        /* \"#utility.yul\":2680:2684   */\n      0x20\n        /* \"#utility.yul\":2674:2678   */\n      dup2\n        /* \"#utility.yul\":2670:2685   */\n      add\n        /* \"#utility.yul\":2662:2685   */\n      swap1\n      pop\n        /* \"#utility.yul\":2384:2692   */\n      swap2\n      swap1\n      pop\n      jump\t// out\n        /* \"#utility.yul\":2698:2844   */\n    tag_208:\n        /* \"#utility.yul\":2795:2801   */\n      dup3\n        /* \"#utility.yul\":2790:2793   */\n      dup2\n        /* \"#utility.yul\":2785:2788   */\n      dup4\n        /* \"#utility.yul\":2772:2802   */\n      calldatacopy\n        /* \"#utility.yul\":2836:2837   */\n      0x00\n        /* \"#utility.yul\":2827:2833   */\n      dup4\n        /* \"#utility.yul\":2822:2825   */\n      dup4\n        /* \"#utility.yul\":2818:2834   */\n      add\n        /* \"#utility.yul\":2811:2838   */\n      mstore\n        /* \"#utility.yul\":2698:2844   */\n      pop\n      pop\n      pop\n      jump\t// out\n        /* \"#utility.yul\":2850:3275   */\n    tag_209:\n        /* \"#utility.yul\":2928:2933   */\n      0x00\n        /* \"#utility.yul\":2953:3019   */\n      tag_297\n        /* \"#utility.yul\":2969:3018   */\n      tag_298\n        /* \"#utility.yul\":3011:3017   */\n      dup5\n        /* \"#utility.yul\":2969:3018   */\n      tag_207\n      jump\t// in\n    tag_298:\n        /* \"#utility.yul\":2953:3019   */\n      tag_203\n      jump\t// in\n    tag_297:\n        /* \"#utility.yul\":2944:3019   */\n      swap1\n      pop\n        /* \"#utility.yul\":3042:3048   */\n      dup3\n        /* \"#utility.yul\":3035:3040   */\n      dup2\n        /* \"#utility.yul\":3028:3049   */\n      mstore\n        /* \"#utility.yul\":3080:3084   */\n      0x20\n        /* \"#utility.yul\":3073:3078   */\n      dup2\n        /* \"#utility.yul\":3069:3085   */\n      add\n        /* \"#utility.yul\":3118:3121   */\n      dup5\n        /* \"#utility.yul\":3109:3115   */\n      dup5\n        /* \"#utility.yul\":3104:3107   */\n      dup5\n        /* \"#utility.yul\":3100:3116   */\n      add\n        /* \"#utility.yul\":3097:3122   */\n      gt\n        /* \"#utility.yul\":3094:3206   */\n      iszero\n      tag_299\n      jumpi\n        /* \"#utility.yul\":3125:3204   */\n      tag_300\n      tag_206\n      jump\t// in\n    tag_300:\n        /* \"#utility.yul\":3094:3206   */\n    tag_299:\n        /* \"#utility.yul\":3215:3269   */\n      tag_301\n        /* \"#utility.yul\":3262:3268   */\n      dup5\n        /* \"#utility.yul\":3257:3260   */\n      dup3\n        /* \"#utility.yul\":3252:3255   */\n      dup6\n        /* \"#utility.yul\":3215:3269   */\n      tag_208\n      jump\t// in\n    tag_301:\n        /* \"#utility.yul\":2934:3275   */\n      pop\n        /* \"#utility.yul\":2850:3275   */\n      swap4\n      swap3\n      pop\n      pop\n      pop\n      jump\t// out\n        /* \"#utility.yul\":3295:3635   */\n    tag_210:\n        /* \"#utility.yul\":3351:3356   */\n      0x00\n        /* \"#utility.yul\":3400:3403   */\n      dup3\n        /* \"#utility.yul\":3393:3397   */\n      0x1f\n        /* \"#utility.yul\":3385:3391   */\n      dup4\n        /* \"#utility.yul\":3381:3398   */\n      add\n        /* \"#utility.yul\":3377:3404   */\n      slt\n        /* \"#utility.yul\":3367:3489   */\n      tag_303\n      jumpi\n        /* \"#utility.yul\":3408:3487   */\n      tag_304\n      tag_205\n      jump\t// in\n    tag_304:\n        /* \"#utility.yul\":3367:3489   */\n    tag_303:\n        /* \"#utility.yul\":3525:3531   */\n      dup2\n        /* \"#utility.yul\":3512:3532   */\n      calldataload\n        /* \"#utility.yul\":3550:3629   */\n      tag_305\n        /* \"#utility.yul\":3625:3628   */\n      dup5\n        /* \"#utility.yul\":3617:3623   */\n      dup3\n        /* \"#utility.yul\":3610:3614   */\n      0x20\n        /* \"#utility.yul\":3602:3608   */\n      dup7\n        /* \"#utility.yul\":3598:3615   */\n      add\n        /* \"#utility.yul\":3550:3629   */\n      tag_209\n      jump\t// in\n    tag_305:\n        /* \"#utility.yul\":3541:3629   */\n      swap2\n      pop\n        /* \"#utility.yul\":3357:3635   */\n      pop\n        /* \"#utility.yul\":3295:3635   */\n      swap3\n      swap2\n      pop\n      pop\n      jump\t// out\n        /* \"#utility.yul\":3641:3727   */\n    tag_211:\n        /* \"#utility.yul\":3676:3683   */\n      0x00\n        /* \"#utility.yul\":3716:3720   */\n      0xff\n        /* \"#utility.yul\":3709:3714   */\n      dup3\n        /* \"#utility.yul\":3705:3721   */\n      and\n        /* \"#utility.yul\":3694:3721   */\n      swap1\n      pop\n        /* \"#utility.yul\":3641:3727   */\n      swap2\n      swap1\n      pop\n      jump\t// out\n        /* \"#utility.yul\":3733:3851   */\n    tag_212:\n        /* \"#utility.yul\":3804:3826   */\n      tag_308\n        /* \"#utility.yul\":3820:3825   */\n      dup2\n        /* \"#utility.yul\":3804:3826   */\n      tag_211\n      jump\t// in\n    tag_308:\n        /* \"#utility.yul\":3797:3802   */\n      dup2\n        /* \"#utility.yul\":3794:3827   */\n      eq\n        /* \"#utility.yul\":3784:3845   */\n      tag_309\n      jumpi\n        /* \"#utility.yul\":3841:3842   */\n      0x00\n        /* \"#utility.yul\":3838:3839   */\n      dup1\n        /* \"#utility.yul\":3831:3843   */\n      revert\n        /* \"#utility.yul\":3784:3845   */\n    tag_309:\n        /* \"#utility.yul\":3733:3851   */\n      pop\n      jump\t// out\n        /* \"#utility.yul\":3857:3992   */\n    tag_213:\n        /* \"#utility.yul\":3901:3906   */\n      0x00\n        /* \"#utility.yul\":3939:3945   */\n      dup2\n        /* \"#utility.yul\":3926:3946   */\n      calldataload\n        /* \"#utility.yul\":3917:3946   */\n      swap1\n      pop\n        /* \"#utility.yul\":3955:3986   */\n      tag_311\n        /* \"#utility.yul\":3980:3985   */\n      dup2\n        /* \"#utility.yul\":3955:3986   */\n      tag_212\n      jump\t// in\n    tag_311:\n        /* \"#utility.yul\":3857:3992   */\n      swap3\n      swap2\n      pop\n      pop\n      jump\t// out\n        /* \"#utility.yul\":3998:4075   */\n    tag_214:\n        /* \"#utility.yul\":4035:4042   */\n      0x00\n        /* \"#utility.yul\":4064:4069   */\n      dup2\n        /* \"#utility.yul\":4053:4069   */\n      swap1\n      pop\n        /* \"#utility.yul\":3998:4075   */\n      swap2\n      swap1\n      pop\n      jump\t// out\n        /* \"#utility.yul\":4081:4203   */\n    tag_215:\n        /* \"#utility.yul\":4154:4178   */\n      tag_314\n        /* \"#utility.yul\":4172:4177   */\n      dup2\n        /* \"#utility.yul\":4154:4178   */\n      tag_214\n      jump\t// in\n    tag_314:\n        /* \"#utility.yul\":4147:4152   */\n      dup2\n        /* \"#utility.yul\":4144:4179   */\n      eq\n        /* \"#utility.yul\":4134:4197   */\n      tag_315\n      jumpi\n        /* \"#utility.yul\":4193:4194   */\n      0x00\n        /* \"#utility.yul\":4190:4191   */\n      dup1\n        /* \"#utility.yul\":4183:4195   */\n      revert\n        /* \"#utility.yul\":4134:4197   */\n    tag_315:\n        /* \"#utility.yul\":4081:4203   */\n      pop\n      jump\t// out\n        /* \"#utility.yul\":4209:4348   */\n    tag_216:\n        /* \"#utility.yul\":4255:4260   */\n      0x00\n        /* \"#utility.yul\":4293:4299   */\n      dup2\n        /* \"#utility.yul\":4280:4300   */\n      calldataload\n        /* \"#utility.yul\":4271:4300   */\n      swap1\n      pop\n        /* \"#utility.yul\":4309:4342   */\n      tag_317\n        /* \"#utility.yul\":4336:4341   */\n      dup2\n        /* \"#utility.yul\":4309:4342   */\n      tag_215\n      jump\t// in\n    tag_317:\n        /* \"#utility.yul\":4209:4348   */\n      swap3\n      swap2\n      pop\n      pop\n      jump\t// out\n        /* \"#utility.yul\":4354:4444   */\n    tag_217:\n        /* \"#utility.yul\":4388:4395   */\n      0x00\n        /* \"#utility.yul\":4431:4436   */\n      dup2\n        /* \"#utility.yul\":4424:4437   */\n      iszero\n        /* \"#utility.yul\":4417:4438   */\n      iszero\n        /* \"#utility.yul\":4406:4438   */\n      swap1\n      pop\n        /* \"#utility.yul\":4354:4444   */\n      swap2\n      swap1\n      pop\n      jump\t// out\n        /* \"#utility.yul\":4450:4566   */\n    tag_218:\n        /* \"#utility.yul\":4520:4541   */\n      tag_320\n        /* \"#utility.yul\":4535:4540   */\n      dup2\n        /* \"#utility.yul\":4520:4541   */\n      tag_217\n      jump\t// in\n    tag_320:\n        /* \"#utility.yul\":4513:4518   */\n      dup2\n        /* \"#utility.yul\":4510:4542   */\n      eq\n        /* \"#utility.yul\":4500:4560   */\n      tag_321\n      jumpi\n        /* \"#utility.yul\":4556:4557   */\n      0x00\n        /* \"#utility.yul\":4553:4554   */\n      dup1\n        /* \"#utility.yul\":4546:4558   */\n      revert\n        /* \"#utility.yul\":4500:4560   */\n    tag_321:\n        /* \"#utility.yul\":4450:4566   */\n      pop\n      jump\t// out\n        /* \"#utility.yul\":4572:4705   */\n    tag_219:\n        /* \"#utility.yul\":4615:4620   */\n      0x00\n        /* \"#utility.yul\":4653:4659   */\n      dup2\n        /* \"#utility.yul\":4640:4660   */\n      calldataload\n        /* \"#utility.yul\":4631:4660   */\n      swap1\n      pop\n        /* \"#utility.yul\":4669:4699   */\n      tag_323\n        /* \"#utility.yul\":4693:4698   */\n      dup2\n        /* \"#utility.yul\":4669:4699   */\n      tag_218\n      jump\t// in\n    tag_323:\n        /* \"#utility.yul\":4572:4705   */\n      swap3\n      swap2\n      pop\n      pop\n      jump\t// out\n        /* \"#utility.yul\":4736:7331   */\n    tag_220:\n        /* \"#utility.yul\":4806:4811   */\n      0x00\n        /* \"#utility.yul\":4850:4856   */\n      0x0160\n        /* \"#utility.yul\":4838:4847   */\n      dup3\n        /* \"#utility.yul\":4833:4836   */\n      dup5\n        /* \"#utility.yul\":4829:4848   */\n      sub\n        /* \"#utility.yul\":4825:4857   */\n      slt\n        /* \"#utility.yul\":4822:4941   */\n      iszero\n      tag_325\n      jumpi\n        /* \"#utility.yul\":4860:4939   */\n      tag_326\n      tag_199\n      jump\t// in\n    tag_326:\n        /* \"#utility.yul\":4822:4941   */\n    tag_325:\n        /* \"#utility.yul\":4959:4982   */\n      tag_327\n        /* \"#utility.yul\":4975:4981   */\n      0x0160\n        /* \"#utility.yul\":4959:4982   */\n      tag_203\n      jump\t// in\n    tag_327:\n        /* \"#utility.yul\":4950:4982   */\n      swap1\n      pop\n        /* \"#utility.yul\":5077:5078   */\n      0x00\n        /* \"#utility.yul\":5066:5075   */\n      dup3\n        /* \"#utility.yul\":5062:5079   */\n      add\n        /* \"#utility.yul\":5049:5080   */\n      calldataload\n        /* \"#utility.yul\":5107:5125   */\n      0xffffffffffffffff\n        /* \"#utility.yul\":5099:5105   */\n      dup2\n        /* \"#utility.yul\":5096:5126   */\n      gt\n        /* \"#utility.yul\":5093:5210   */\n      iszero\n      tag_328\n      jumpi\n        /* \"#utility.yul\":5129:5208   */\n      tag_329\n      tag_204\n      jump\t// in\n    tag_329:\n        /* \"#utility.yul\":5093:5210   */\n    tag_328:\n        /* \"#utility.yul\":5249:5308   */\n      tag_330\n        /* \"#utility.yul\":5304:5307   */\n      dup5\n        /* \"#utility.yul\":5295:5301   */\n      dup3\n        /* \"#utility.yul\":5284:5293   */\n      dup6\n        /* \"#utility.yul\":5280:5302   */\n      add\n        /* \"#utility.yul\":5249:5308   */\n      tag_210\n      jump\t// in\n    tag_330:\n        /* \"#utility.yul\":5242:5246   */\n      0x00\n        /* \"#utility.yul\":5235:5240   */\n      dup4\n        /* \"#utility.yul\":5231:5247   */\n      add\n        /* \"#utility.yul\":5224:5309   */\n      mstore\n        /* \"#utility.yul\":4992:5320   */\n      pop\n        /* \"#utility.yul\":5409:5411   */\n      0x20\n        /* \"#utility.yul\":5398:5407   */\n      dup3\n        /* \"#utility.yul\":5394:5412   */\n      add\n        /* \"#utility.yul\":5381:5413   */\n      calldataload\n        /* \"#utility.yul\":5440:5458   */\n      0xffffffffffffffff\n        /* \"#utility.yul\":5432:5438   */\n      dup2\n        /* \"#utility.yul\":5429:5459   */\n      gt\n        /* \"#utility.yul\":5426:5543   */\n      iszero\n      tag_331\n      jumpi\n        /* \"#utility.yul\":5462:5541   */\n      tag_332\n      tag_204\n      jump\t// in\n    tag_332:\n        /* \"#utility.yul\":5426:5543   */\n    tag_331:\n        /* \"#utility.yul\":5582:5641   */\n      tag_333\n        /* \"#utility.yul\":5637:5640   */\n      dup5\n        /* \"#utility.yul\":5628:5634   */\n      dup3\n        /* \"#utility.yul\":5617:5626   */\n      dup6\n        /* \"#utility.yul\":5613:5635   */\n      add\n        /* \"#utility.yul\":5582:5641   */\n      tag_210\n      jump\t// in\n    tag_333:\n        /* \"#utility.yul\":5575:5579   */\n      0x20\n        /* \"#utility.yul\":5568:5573   */\n      dup4\n        /* \"#utility.yul\":5564:5580   */\n      add\n        /* \"#utility.yul\":5557:5642   */\n      mstore\n        /* \"#utility.yul\":5330:5653   */\n      pop\n        /* \"#utility.yul\":5744:5746   */\n      0x40\n        /* \"#utility.yul\":5733:5742   */\n      dup3\n        /* \"#utility.yul\":5729:5747   */\n      add\n        /* \"#utility.yul\":5716:5748   */\n      calldataload\n        /* \"#utility.yul\":5775:5793   */\n      0xffffffffffffffff\n        /* \"#utility.yul\":5767:5773   */\n      dup2\n        /* \"#utility.yul\":5764:5794   */\n      gt\n        /* \"#utility.yul\":5761:5878   */\n      iszero\n      tag_334\n      jumpi\n        /* \"#utility.yul\":5797:5876   */\n      tag_335\n      tag_204\n      jump\t// in\n    tag_335:\n        /* \"#utility.yul\":5761:5878   */\n    tag_334:\n        /* \"#utility.yul\":5917:5976   */\n      tag_336\n        /* \"#utility.yul\":5972:5975   */\n      dup5\n        /* \"#utility.yul\":5963:5969   */\n      dup3\n        /* \"#utility.yul\":5952:5961   */\n      dup6\n        /* \"#utility.yul\":5948:5970   */\n      add\n        /* \"#utility.yul\":5917:5976   */\n      tag_210\n      jump\t// in\n    tag_336:\n        /* \"#utility.yul\":5910:5914   */\n      0x40\n        /* \"#utility.yul\":5903:5908   */\n      dup4\n        /* \"#utility.yul\":5899:5915   */\n      add\n        /* \"#utility.yul\":5892:5977   */\n      mstore\n        /* \"#utility.yul\":5663:5988   */\n      pop\n        /* \"#utility.yul\":6051:6053   */\n      0x60\n        /* \"#utility.yul\":6092:6139   */\n      tag_337\n        /* \"#utility.yul\":6135:6138   */\n      dup5\n        /* \"#utility.yul\":6126:6132   */\n      dup3\n        /* \"#utility.yul\":6115:6124   */\n      dup6\n        /* \"#utility.yul\":6111:6133   */\n      add\n        /* \"#utility.yul\":6092:6139   */\n      tag_213\n      jump\t// in\n    tag_337:\n        /* \"#utility.yul\":6085:6089   */\n      0x60\n        /* \"#utility.yul\":6078:6083   */\n      dup4\n        /* \"#utility.yul\":6074:6090   */\n      add\n        /* \"#utility.yul\":6067:6140   */\n      mstore\n        /* \"#utility.yul\":5998:6151   */\n      pop\n        /* \"#utility.yul\":6215:6218   */\n      0x80\n        /* \"#utility.yul\":6257:6306   */\n      tag_338\n        /* \"#utility.yul\":6302:6305   */\n      dup5\n        /* \"#utility.yul\":6293:6299   */\n      dup3\n        /* \"#utility.yul\":6282:6291   */\n      dup6\n        /* \"#utility.yul\":6278:6300   */\n      add\n        /* \"#utility.yul\":6257:6306   */\n      tag_216\n      jump\t// in\n    tag_338:\n        /* \"#utility.yul\":6250:6254   */\n      0x80\n        /* \"#utility.yul\":6243:6248   */\n      dup4\n        /* \"#utility.yul\":6239:6255   */\n      add\n        /* \"#utility.yul\":6232:6307   */\n      mstore\n        /* \"#utility.yul\":6161:6318   */\n      pop\n        /* \"#utility.yul\":6384:6387   */\n      0xa0\n        /* \"#utility.yul\":6426:6475   */\n      tag_339\n        /* \"#utility.yul\":6471:6474   */\n      dup5\n        /* \"#utility.yul\":6462:6468   */\n      dup3\n        /* \"#utility.yul\":6451:6460   */\n      dup6\n        /* \"#utility.yul\":6447:6469   */\n      add\n        /* \"#utility.yul\":6426:6475   */\n      tag_216\n      jump\t// in\n    tag_339:\n        /* \"#utility.yul\":6419:6423   */\n      0xa0\n        /* \"#utility.yul\":6412:6417   */\n      dup4\n        /* \"#utility.yul\":6408:6424   */\n      add\n        /* \"#utility.yul\":6401:6476   */\n      mstore\n        /* \"#utility.yul\":6328:6487   */\n      pop\n        /* \"#utility.yul\":6557:6560   */\n      0xc0\n        /* \"#utility.yul\":6599:6648   */\n      tag_340\n        /* \"#utility.yul\":6644:6647   */\n      dup5\n        /* \"#utility.yul\":6635:6641   */\n      dup3\n        /* \"#utility.yul\":6624:6633   */\n      dup6\n        /* \"#utility.yul\":6620:6642   */\n      add\n        /* \"#utility.yul\":6599:6648   */\n      tag_198\n      jump\t// in\n    tag_340:\n        /* \"#utility.yul\":6592:6596   */\n      0xc0\n        /* \"#utility.yul\":6585:6590   */\n      dup4\n        /* \"#utility.yul\":6581:6597   */\n      add\n        /* \"#utility.yul\":6574:6649   */\n      mstore\n        /* \"#utility.yul\":6497:6660   */\n      pop\n        /* \"#utility.yul\":6727:6730   */\n      0xe0\n        /* \"#utility.yul\":6769:6815   */\n      tag_341\n        /* \"#utility.yul\":6811:6814   */\n      dup5\n        /* \"#utility.yul\":6802:6808   */\n      dup3\n        /* \"#utility.yul\":6791:6800   */\n      dup6\n        /* \"#utility.yul\":6787:6809   */\n      add\n        /* \"#utility.yul\":6769:6815   */\n      tag_219\n      jump\t// in\n    tag_341:\n        /* \"#utility.yul\":6762:6766   */\n      0xe0\n        /* \"#utility.yul\":6755:6760   */\n      dup4\n        /* \"#utility.yul\":6751:6767   */\n      add\n        /* \"#utility.yul\":6744:6816   */\n      mstore\n        /* \"#utility.yul\":6670:6827   */\n      pop\n        /* \"#utility.yul\":6892:6895   */\n      0x0100\n        /* \"#utility.yul\":6936:6982   */\n      tag_342\n        /* \"#utility.yul\":6978:6981   */\n      dup5\n        /* \"#utility.yul\":6969:6975   */\n      dup3\n        /* \"#utility.yul\":6958:6967   */\n      dup6\n        /* \"#utility.yul\":6954:6976   */\n      add\n        /* \"#utility.yul\":6936:6982   */\n      tag_219\n      jump\t// in\n    tag_342:\n        /* \"#utility.yul\":6927:6933   */\n      0x0100\n        /* \"#utility.yul\":6920:6925   */\n      dup4\n        /* \"#utility.yul\":6916:6934   */\n      add\n        /* \"#utility.yul\":6909:6983   */\n      mstore\n        /* \"#utility.yul\":6837:6994   */\n      pop\n        /* \"#utility.yul\":7055:7058   */\n      0x0120\n        /* \"#utility.yul\":7099:7145   */\n      tag_343\n        /* \"#utility.yul\":7141:7144   */\n      dup5\n        /* \"#utility.yul\":7132:7138   */\n      dup3\n        /* \"#utility.yul\":7121:7130   */\n      dup6\n        /* \"#utility.yul\":7117:7139   */\n      add\n        /* \"#utility.yul\":7099:7145   */\n      tag_219\n      jump\t// in\n    tag_343:\n        /* \"#utility.yul\":7090:7096   */\n      0x0120\n        /* \"#utility.yul\":7083:7088   */\n      dup4\n        /* \"#utility.yul\":7079:7097   */\n      add\n        /* \"#utility.yul\":7072:7146   */\n      mstore\n        /* \"#utility.yul\":7004:7157   */\n      pop\n        /* \"#utility.yul\":7219:7222   */\n      0x0140\n        /* \"#utility.yul\":7263:7312   */\n      tag_344\n        /* \"#utility.yul\":7308:7311   */\n      dup5\n        /* \"#utility.yul\":7299:7305   */\n      dup3\n        /* \"#utility.yul\":7288:7297   */\n      dup6\n        /* \"#utility.yul\":7284:7306   */\n      add\n        /* \"#utility.yul\":7263:7312   */\n      tag_198\n      jump\t// in\n    tag_344:\n        /* \"#utility.yul\":7254:7260   */\n      0x0140\n        /* \"#utility.yul\":7247:7252   */\n      dup4\n        /* \"#utility.yul\":7243:7261   */\n      add\n        /* \"#utility.yul\":7236:7313   */\n      mstore\n        /* \"#utility.yul\":7167:7324   */\n      pop\n        /* \"#utility.yul\":4736:7331   */\n      swap3\n      swap2\n      pop\n      pop\n      jump\t// out\n        /* \"#utility.yul\":7337:7868   */\n    tag_30:\n        /* \"#utility.yul\":7417:7423   */\n      0x00\n        /* \"#utility.yul\":7466:7468   */\n      0x20\n        /* \"#utility.yul\":7454:7463   */\n      dup3\n        /* \"#utility.yul\":7445:7452   */\n      dup5\n        /* \"#utility.yul\":7441:7464   */\n      sub\n        /* \"#utility.yul\":7437:7469   */\n      slt\n        /* \"#utility.yul\":7434:7553   */\n      iszero\n      tag_346\n      jumpi\n        /* \"#utility.yul\":7472:7551   */\n      tag_347\n      tag_193\n      jump\t// in\n    tag_347:\n        /* \"#utility.yul\":7434:7553   */\n    tag_346:\n        /* \"#utility.yul\":7620:7621   */\n      0x00\n        /* \"#utility.yul\":7609:7618   */\n      dup3\n        /* \"#utility.yul\":7605:7622   */\n      add\n        /* \"#utility.yul\":7592:7623   */\n      calldataload\n        /* \"#utility.yul\":7650:7668   */\n      0xffffffffffffffff\n        /* \"#utility.yul\":7642:7648   */\n      dup2\n        /* \"#utility.yul\":7639:7669   */\n      gt\n        /* \"#utility.yul\":7636:7753   */\n      iszero\n      tag_348\n      jumpi\n        /* \"#utility.yul\":7672:7751   */\n      tag_349\n      tag_194\n      jump\t// in\n    tag_349:\n        /* \"#utility.yul\":7636:7753   */\n    tag_348:\n        /* \"#utility.yul\":7777:7851   */\n      tag_350\n        /* \"#utility.yul\":7843:7850   */\n      dup5\n        /* \"#utility.yul\":7834:7840   */\n      dup3\n        /* \"#utility.yul\":7823:7832   */\n      dup6\n        /* \"#utility.yul\":7819:7841   */\n      add\n        /* \"#utility.yul\":7777:7851   */\n      tag_220\n      jump\t// in\n    tag_350:\n        /* \"#utility.yul\":7767:7851   */\n      swap2\n      pop\n        /* \"#utility.yul\":7563:7861   */\n      pop\n        /* \"#utility.yul\":7337:7868   */\n      swap3\n      swap2\n      pop\n      pop\n      jump\t// out\n        /* \"#utility.yul\":7874:7973   */\n    tag_221:\n        /* \"#utility.yul\":7926:7932   */\n      0x00\n        /* \"#utility.yul\":7960:7965   */\n      dup2\n        /* \"#utility.yul\":7954:7966   */\n      mload\n        /* \"#utility.yul\":7944:7966   */\n      swap1\n      pop\n        /* \"#utility.yul\":7874:7973   */\n      swap2\n      swap1\n      pop\n      jump\t// out\n        /* \"#utility.yul\":7979:8148   */\n    tag_222:\n        /* \"#utility.yul\":8063:8074   */\n      0x00\n        /* \"#utility.yul\":8097:8103   */\n      dup3\n        /* \"#utility.yul\":8092:8095   */\n      dup3\n        /* \"#utility.yul\":8085:8104   */\n      mstore\n        /* \"#utility.yul\":8137:8141   */\n      0x20\n        /* \"#utility.yul\":8132:8135   */\n      dup3\n        /* \"#utility.yul\":8128:8142   */\n      add\n        /* \"#utility.yul\":8113:8142   */\n      swap1\n      pop\n        /* \"#utility.yul\":7979:8148   */\n      swap3\n      swap2\n      pop\n      pop\n      jump\t// out\n        /* \"#utility.yul\":8154:8400   */\n    tag_223:\n        /* \"#utility.yul\":8235:8236   */\n      0x00\n        /* \"#utility.yul\":8245:8358   */\n    tag_354:\n        /* \"#utility.yul\":8259:8265   */\n      dup4\n        /* \"#utility.yul\":8256:8257   */\n      dup2\n        /* \"#utility.yul\":8253:8266   */\n      lt\n        /* \"#utility.yul\":8245:8358   */\n      iszero\n      tag_356\n      jumpi\n        /* \"#utility.yul\":8344:8345   */\n      dup1\n        /* \"#utility.yul\":8339:8342   */\n      dup3\n        /* \"#utility.yul\":8335:8346   */\n      add\n        /* \"#utility.yul\":8329:8347   */\n      mload\n        /* \"#utility.yul\":8325:8326   */\n      dup2\n        /* \"#utility.yul\":8320:8323   */\n      dup5\n        /* \"#utility.yul\":8316:8327   */\n      add\n        /* \"#utility.yul\":8309:8348   */\n      mstore\n        /* \"#utility.yul\":8281:8283   */\n      0x20\n        /* \"#utility.yul\":8278:8279   */\n      dup2\n        /* \"#utility.yul\":8274:8284   */\n      add\n        /* \"#utility.yul\":8269:8284   */\n      swap1\n      pop\n        /* \"#utility.yul\":8245:8358   */\n      jump(tag_354)\n    tag_356:\n        /* \"#utility.yul\":8392:8393   */\n      0x00\n        /* \"#utility.yul\":8383:8389   */\n      dup5\n        /* \"#utility.yul\":8378:8381   */\n      dup5\n        /* \"#utility.yul\":8374:8390   */\n      add\n        /* \"#utility.yul\":8367:8394   */\n      mstore\n        /* \"#utility.yul\":8216:8400   */\n      pop\n        /* \"#utility.yul\":8154:8400   */\n      pop\n      pop\n      pop\n      jump\t// out\n        /* \"#utility.yul\":8406:8783   */\n    tag_224:\n        /* \"#utility.yul\":8494:8497   */\n      0x00\n        /* \"#utility.yul\":8522:8561   */\n      tag_358\n        /* \"#utility.yul\":8555:8560   */\n      dup3\n        /* \"#utility.yul\":8522:8561   */\n      tag_221\n      jump\t// in\n    tag_358:\n        /* \"#utility.yul\":8577:8648   */\n      tag_359\n        /* \"#utility.yul\":8641:8647   */\n      dup2\n        /* \"#utility.yul\":8636:8639   */\n      dup6\n        /* \"#utility.yul\":8577:8648   */\n      tag_222\n      jump\t// in\n    tag_359:\n        /* \"#utility.yul\":8570:8648   */\n      swap4\n      pop\n        /* \"#utility.yul\":8657:8722   */\n      tag_360\n        /* \"#utility.yul\":8715:8721   */\n      dup2\n        /* \"#utility.yul\":8710:8713   */\n      dup6\n        /* \"#utility.yul\":8703:8707   */\n      0x20\n        /* \"#utility.yul\":8696:8701   */\n      dup7\n        /* \"#utility.yul\":8692:8708   */\n      add\n        /* \"#utility.yul\":8657:8722   */\n      tag_223\n      jump\t// in\n    tag_360:\n        /* \"#utility.yul\":8747:8776   */\n      tag_361\n        /* \"#utility.yul\":8769:8775   */\n      dup2\n        /* \"#utility.yul\":8747:8776   */\n      tag_200\n      jump\t// in\n    tag_361:\n        /* \"#utility.yul\":8742:8745   */\n      dup5\n        /* \"#utility.yul\":8738:8777   */\n      add\n        /* \"#utility.yul\":8731:8777   */\n      swap2\n      pop\n        /* \"#utility.yul\":8498:8783   */\n      pop\n        /* \"#utility.yul\":8406:8783   */\n      swap3\n      swap2\n      pop\n      pop\n      jump\t// out\n        /* \"#utility.yul\":8789:8901   */\n    tag_225:\n        /* \"#utility.yul\":8872:8894   */\n      tag_363\n        /* \"#utility.yul\":8888:8893   */\n      dup2\n        /* \"#utility.yul\":8872:8894   */\n      tag_211\n      jump\t// in\n    tag_363:\n        /* \"#utility.yul\":8867:8870   */\n      dup3\n        /* \"#utility.yul\":8860:8895   */\n      mstore\n        /* \"#utility.yul\":8789:8901   */\n      pop\n      pop\n      jump\t// out\n        /* \"#utility.yul\":8907:9025   */\n    tag_226:\n        /* \"#utility.yul\":8994:9018   */\n      tag_365\n        /* \"#utility.yul\":9012:9017   */\n      dup2\n        /* \"#utility.yul\":8994:9018   */\n      tag_214\n      jump\t// in\n    tag_365:\n        /* \"#utility.yul\":8989:8992   */\n      dup3\n        /* \"#utility.yul\":8982:9019   */\n      mstore\n        /* \"#utility.yul\":8907:9025   */\n      pop\n      pop\n      jump\t// out\n        /* \"#utility.yul\":9031:9149   */\n    tag_227:\n        /* \"#utility.yul\":9118:9142   */\n      tag_367\n        /* \"#utility.yul\":9136:9141   */\n      dup2\n        /* \"#utility.yul\":9118:9142   */\n      tag_196\n      jump\t// in\n    tag_367:\n        /* \"#utility.yul\":9113:9116   */\n      dup3\n        /* \"#utility.yul\":9106:9143   */\n      mstore\n        /* \"#utility.yul\":9031:9149   */\n      pop\n      pop\n      jump\t// out\n        /* \"#utility.yul\":9155:9264   */\n    tag_228:\n        /* \"#utility.yul\":9236:9257   */\n      tag_369\n        /* \"#utility.yul\":9251:9256   */\n      dup2\n        /* \"#utility.yul\":9236:9257   */\n      tag_217\n      jump\t// in\n    tag_369:\n        /* \"#utility.yul\":9231:9234   */\n      dup3\n        /* \"#utility.yul\":9224:9258   */\n      mstore\n        /* \"#utility.yul\":9155:9264   */\n      pop\n      pop\n      jump\t// out\n        /* \"#utility.yul\":9270:10831   */\n    tag_36:\n        /* \"#utility.yul\":9682:9686   */\n      0x00\n        /* \"#utility.yul\":9720:9723   */\n      0x0160\n        /* \"#utility.yul\":9709:9718   */\n      dup3\n        /* \"#utility.yul\":9705:9724   */\n      add\n        /* \"#utility.yul\":9697:9724   */\n      swap1\n      pop\n        /* \"#utility.yul\":9770:9779   */\n      dup2\n        /* \"#utility.yul\":9764:9768   */\n      dup2\n        /* \"#utility.yul\":9760:9780   */\n      sub\n        /* \"#utility.yul\":9756:9757   */\n      0x00\n        /* \"#utility.yul\":9745:9754   */\n      dup4\n        /* \"#utility.yul\":9741:9758   */\n      add\n        /* \"#utility.yul\":9734:9781   */\n      mstore\n        /* \"#utility.yul\":9798:9876   */\n      tag_371\n        /* \"#utility.yul\":9871:9875   */\n      dup2\n        /* \"#utility.yul\":9862:9868   */\n      dup15\n        /* \"#utility.yul\":9798:9876   */\n      tag_224\n      jump\t// in\n    tag_371:\n        /* \"#utility.yul\":9790:9876   */\n      swap1\n      pop\n        /* \"#utility.yul\":9923:9932   */\n      dup2\n        /* \"#utility.yul\":9917:9921   */\n      dup2\n        /* \"#utility.yul\":9913:9933   */\n      sub\n        /* \"#utility.yul\":9908:9910   */\n      0x20\n        /* \"#utility.yul\":9897:9906   */\n      dup4\n        /* \"#utility.yul\":9893:9911   */\n      add\n        /* \"#utility.yul\":9886:9934   */\n      mstore\n        /* \"#utility.yul\":9951:10029   */\n      tag_372\n        /* \"#utility.yul\":10024:10028   */\n      dup2\n        /* \"#utility.yul\":10015:10021   */\n      dup14\n        /* \"#utility.yul\":9951:10029   */\n      tag_224\n      jump\t// in\n    tag_372:\n        /* \"#utility.yul\":9943:10029   */\n      swap1\n      pop\n        /* \"#utility.yul\":10076:10085   */\n      dup2\n        /* \"#utility.yul\":10070:10074   */\n      dup2\n        /* \"#utility.yul\":10066:10086   */\n      sub\n        /* \"#utility.yul\":10061:10063   */\n      0x40\n        /* \"#utility.yul\":10050:10059   */\n      dup4\n        /* \"#utility.yul\":10046:10064   */\n      add\n        /* \"#utility.yul\":10039:10087   */\n      mstore\n        /* \"#utility.yul\":10104:10182   */\n      tag_373\n        /* \"#utility.yul\":10177:10181   */\n      dup2\n        /* \"#utility.yul\":10168:10174   */\n      dup13\n        /* \"#utility.yul\":10104:10182   */\n      tag_224\n      jump\t// in\n    tag_373:\n        /* \"#utility.yul\":10096:10182   */\n      swap1\n      pop\n        /* \"#utility.yul\":10192:10260   */\n      tag_374\n        /* \"#utility.yul\":10256:10258   */\n      0x60\n        /* \"#utility.yul\":10245:10254   */\n      dup4\n        /* \"#utility.yul\":10241:10259   */\n      add\n        /* \"#utility.yul\":10232:10238   */\n      dup12\n        /* \"#utility.yul\":10192:10260   */\n      tag_225\n      jump\t// in\n    tag_374:\n        /* \"#utility.yul\":10270:10343   */\n      tag_375\n        /* \"#utility.yul\":10338:10341   */\n      0x80\n        /* \"#utility.yul\":10327:10336   */\n      dup4\n        /* \"#utility.yul\":10323:10342   */\n      add\n        /* \"#utility.yul\":10314:10320   */\n      dup11\n        /* \"#utility.yul\":10270:10343   */\n      tag_226\n      jump\t// in\n    tag_375:\n        /* \"#utility.yul\":10353:10426   */\n      tag_376\n        /* \"#utility.yul\":10421:10424   */\n      0xa0\n        /* \"#utility.yul\":10410:10419   */\n      dup4\n        /* \"#utility.yul\":10406:10425   */\n      add\n        /* \"#utility.yul\":10397:10403   */\n      dup10\n        /* \"#utility.yul\":10353:10426   */\n      tag_226\n      jump\t// in\n    tag_376:\n        /* \"#utility.yul\":10436:10509   */\n      tag_377\n        /* \"#utility.yul\":10504:10507   */\n      0xc0\n        /* \"#utility.yul\":10493:10502   */\n      dup4\n        /* \"#utility.yul\":10489:10508   */\n      add\n        /* \"#utility.yul\":10480:10486   */\n      dup9\n        /* \"#utility.yul\":10436:10509   */\n      tag_227\n      jump\t// in\n    tag_377:\n        /* \"#utility.yul\":10519:10586   */\n      tag_378\n        /* \"#utility.yul\":10581:10584   */\n      0xe0\n        /* \"#utility.yul\":10570:10579   */\n      dup4\n        /* \"#utility.yul\":10566:10585   */\n      add\n        /* \"#utility.yul\":10557:10563   */\n      dup8\n        /* \"#utility.yul\":10519:10586   */\n      tag_228\n      jump\t// in\n    tag_378:\n        /* \"#utility.yul\":10596:10663   */\n      tag_379\n        /* \"#utility.yul\":10658:10661   */\n      0x0100\n        /* \"#utility.yul\":10647:10656   */\n      dup4\n        /* \"#utility.yul\":10643:10662   */\n      add\n        /* \"#utility.yul\":10634:10640   */\n      dup7\n        /* \"#utility.yul\":10596:10663   */\n      tag_228\n      jump\t// in\n    tag_379:\n        /* \"#utility.yul\":10673:10740   */\n      tag_380\n        /* \"#utility.yul\":10735:10738   */\n      0x0120\n        /* \"#utility.yul\":10724:10733   */\n      dup4\n        /* \"#utility.yul\":10720:10739   */\n      add\n        /* \"#utility.yul\":10711:10717   */\n      dup6\n        /* \"#utility.yul\":10673:10740   */\n      tag_228\n      jump\t// in\n    tag_380:\n        /* \"#utility.yul\":10750:10824   */\n      tag_381\n        /* \"#utility.yul\":10819:10822   */\n      0x0140\n        /* \"#utility.yul\":10808:10817   */\n      dup4\n        /* \"#utility.yul\":10804:10823   */\n      add\n        /* \"#utility.yul\":10794:10801   */\n      dup5\n        /* \"#utility.yul\":10750:10824   */\n      tag_227\n      jump\t// in\n    tag_381:\n        /* \"#utility.yul\":9270:10831   */\n      swap13\n      swap12\n      pop\n      pop\n      pop\n      pop\n      pop\n      pop\n      pop\n      pop\n      pop\n      pop\n      pop\n      pop\n      jump\t// out\n        /* \"#utility.yul\":10837:11047   */\n    tag_41:\n        /* \"#utility.yul\":10924:10928   */\n      0x00\n        /* \"#utility.yul\":10962:10964   */\n      0x20\n        /* \"#utility.yul\":10951:10960   */\n      dup3\n        /* \"#utility.yul\":10947:10965   */\n      add\n        /* \"#utility.yul\":10939:10965   */\n      swap1\n      pop\n        /* \"#utility.yul\":10975:11040   */\n      tag_383\n        /* \"#utility.yul\":11037:11038   */\n      0x00\n        /* \"#utility.yul\":11026:11035   */\n      dup4\n        /* \"#utility.yul\":11022:11039   */\n      add\n        /* \"#utility.yul\":11013:11019   */\n      dup5\n        /* \"#utility.yul\":10975:11040   */\n      tag_228\n      jump\t// in\n    tag_383:\n        /* \"#utility.yul\":10837:11047   */\n      swap3\n      swap2\n      pop\n      pop\n      jump\t// out\n        /* \"#utility.yul\":11053:11275   */\n    tag_49:\n        /* \"#utility.yul\":11146:11150   */\n      0x00\n        /* \"#utility.yul\":11184:11186   */\n      0x20\n        /* \"#utility.yul\":11173:11182   */\n      dup3\n        /* \"#utility.yul\":11169:11187   */\n      add\n        /* \"#utility.yul\":11161:11187   */\n      swap1\n      pop\n        /* \"#utility.yul\":11197:11268   */\n      tag_385\n        /* \"#utility.yul\":11265:11266   */\n      0x00\n        /* \"#utility.yul\":11254:11263   */\n      dup4\n        /* \"#utility.yul\":11250:11267   */\n      add\n        /* \"#utility.yul\":11241:11247   */\n      dup5\n        /* \"#utility.yul\":11197:11268   */\n      tag_227\n      jump\t// in\n    tag_385:\n        /* \"#utility.yul\":11053:11275   */\n      swap3\n      swap2\n      pop\n      pop\n      jump\t// out\n        /* \"#utility.yul\":11281:11755   */\n    tag_76:\n        /* \"#utility.yul\":11349:11355   */\n      0x00\n        /* \"#utility.yul\":11357:11363   */\n      dup1\n        /* \"#utility.yul\":11406:11408   */\n      0x40\n        /* \"#utility.yul\":11394:11403   */\n      dup4\n        /* \"#utility.yul\":11385:11392   */\n      dup6\n        /* \"#utility.yul\":11381:11404   */\n      sub\n        /* \"#utility.yul\":11377:11409   */\n      slt\n        /* \"#utility.yul\":11374:11493   */\n      iszero\n      tag_387\n      jumpi\n        /* \"#utility.yul\":11412:11491   */\n      tag_388\n      tag_193\n      jump\t// in\n    tag_388:\n        /* \"#utility.yul\":11374:11493   */\n    tag_387:\n        /* \"#utility.yul\":11532:11533   */\n      0x00\n        /* \"#utility.yul\":11557:11610   */\n      tag_389\n        /* \"#utility.yul\":11602:11609   */\n      dup6\n        /* \"#utility.yul\":11593:11599   */\n      dup3\n        /* \"#utility.yul\":11582:11591   */\n      dup7\n        /* \"#utility.yul\":11578:11600   */\n      add\n        /* \"#utility.yul\":11557:11610   */\n      tag_198\n      jump\t// in\n    tag_389:\n        /* \"#utility.yul\":11547:11610   */\n      swap3\n      pop\n        /* \"#utility.yul\":11503:11620   */\n      pop\n        /* \"#utility.yul\":11659:11661   */\n      0x20\n        /* \"#utility.yul\":11685:11738   */\n      tag_390\n        /* \"#utility.yul\":11730:11737   */\n      dup6\n        /* \"#utility.yul\":11721:11727   */\n      dup3\n        /* \"#utility.yul\":11710:11719   */\n      dup7\n        /* \"#utility.yul\":11706:11728   */\n      add\n        /* \"#utility.yul\":11685:11738   */\n      tag_198\n      jump\t// in\n    tag_390:\n        /* \"#utility.yul\":11675:11738   */\n      swap2\n      pop\n        /* \"#utility.yul\":11630:11748   */\n      pop\n        /* \"#utility.yul\":11281:11755   */\n      swap3\n      pop\n      swap3\n      swap1\n      pop\n      jump\t// out\n        /* \"#utility.yul\":11761:11920   */\n    tag_229:\n        /* \"#utility.yul\":11835:11846   */\n      0x00\n        /* \"#utility.yul\":11869:11875   */\n      dup3\n        /* \"#utility.yul\":11864:11867   */\n      dup3\n        /* \"#utility.yul\":11857:11876   */\n      mstore\n        /* \"#utility.yul\":11909:11913   */\n      0x20\n        /* \"#utility.yul\":11904:11907   */\n      dup3\n        /* \"#utility.yul\":11900:11914   */\n      add\n        /* \"#utility.yul\":11885:11914   */\n      swap1\n      pop\n        /* \"#utility.yul\":11761:11920   */\n      swap3\n      swap2\n      pop\n      pop\n      jump\t// out\n        /* \"#utility.yul\":11926:12283   */\n    tag_230:\n        /* \"#utility.yul\":12004:12007   */\n      0x00\n        /* \"#utility.yul\":12032:12071   */\n      tag_393\n        /* \"#utility.yul\":12065:12070   */\n      dup3\n        /* \"#utility.yul\":12032:12071   */\n      tag_221\n      jump\t// in\n    tag_393:\n        /* \"#utility.yul\":12087:12148   */\n      tag_394\n        /* \"#utility.yul\":12141:12147   */\n      dup2\n        /* \"#utility.yul\":12136:12139   */\n      dup6\n        /* \"#utility.yul\":12087:12148   */\n      tag_229\n      jump\t// in\n    tag_394:\n        /* \"#utility.yul\":12080:12148   */\n      swap4\n      pop\n        /* \"#utility.yul\":12157:12222   */\n      tag_395\n        /* \"#utility.yul\":12215:12221   */\n      dup2\n        /* \"#utility.yul\":12210:12213   */\n      dup6\n        /* \"#utility.yul\":12203:12207   */\n      0x20\n        /* \"#utility.yul\":12196:12201   */\n      dup7\n        /* \"#utility.yul\":12192:12208   */\n      add\n        /* \"#utility.yul\":12157:12222   */\n      tag_223\n      jump\t// in\n    tag_395:\n        /* \"#utility.yul\":12247:12276   */\n      tag_396\n        /* \"#utility.yul\":12269:12275   */\n      dup2\n        /* \"#utility.yul\":12247:12276   */\n      tag_200\n      jump\t// in\n    tag_396:\n        /* \"#utility.yul\":12242:12245   */\n      dup5\n        /* \"#utility.yul\":12238:12277   */\n      add\n        /* \"#utility.yul\":12231:12277   */\n      swap2\n      pop\n        /* \"#utility.yul\":12008:12283   */\n      pop\n        /* \"#utility.yul\":11926:12283   */\n      swap3\n      swap2\n      pop\n      pop\n      jump\t// out\n        /* \"#utility.yul\":12289:12391   */\n    tag_231:\n        /* \"#utility.yul\":12362:12384   */\n      tag_398\n        /* \"#utility.yul\":12378:12383   */\n      dup2\n        /* \"#utility.yul\":12362:12384   */\n      tag_211\n      jump\t// in\n    tag_398:\n        /* \"#utility.yul\":12357:12360   */\n      dup3\n        /* \"#utility.yul\":12350:12385   */\n      mstore\n        /* \"#utility.yul\":12289:12391   */\n      pop\n      pop\n      jump\t// out\n        /* \"#utility.yul\":12397:12505   */\n    tag_232:\n        /* \"#utility.yul\":12474:12498   */\n      tag_400\n        /* \"#utility.yul\":12492:12497   */\n      dup2\n        /* \"#utility.yul\":12474:12498   */\n      tag_214\n      jump\t// in\n    tag_400:\n        /* \"#utility.yul\":12469:12472   */\n      dup3\n        /* \"#utility.yul\":12462:12499   */\n      mstore\n        /* \"#utility.yul\":12397:12505   */\n      pop\n      pop\n      jump\t// out\n        /* \"#utility.yul\":12511:12619   */\n    tag_233:\n        /* \"#utility.yul\":12588:12612   */\n      tag_402\n        /* \"#utility.yul\":12606:12611   */\n      dup2\n        /* \"#utility.yul\":12588:12612   */\n      tag_196\n      jump\t// in\n    tag_402:\n        /* \"#utility.yul\":12583:12586   */\n      dup3\n        /* \"#utility.yul\":12576:12613   */\n      mstore\n        /* \"#utility.yul\":12511:12619   */\n      pop\n      pop\n      jump\t// out\n        /* \"#utility.yul\":12625:12724   */\n    tag_234:\n        /* \"#utility.yul\":12696:12717   */\n      tag_404\n        /* \"#utility.yul\":12711:12716   */\n      dup2\n        /* \"#utility.yul\":12696:12717   */\n      tag_217\n      jump\t// in\n    tag_404:\n        /* \"#utility.yul\":12691:12694   */\n      dup3\n        /* \"#utility.yul\":12684:12718   */\n      mstore\n        /* \"#utility.yul\":12625:12724   */\n      pop\n      pop\n      jump\t// out\n        /* \"#utility.yul\":12776:15134   */\n    tag_235:\n        /* \"#utility.yul\":12887:12890   */\n      0x00\n        /* \"#utility.yul\":12923:12929   */\n      0x0160\n        /* \"#utility.yul\":12918:12921   */\n      dup4\n        /* \"#utility.yul\":12914:12930   */\n      add\n        /* \"#utility.yul\":13020:13024   */\n      0x00\n        /* \"#utility.yul\":13013:13018   */\n      dup4\n        /* \"#utility.yul\":13009:13025   */\n      add\n        /* \"#utility.yul\":13003:13026   */\n      mload\n        /* \"#utility.yul\":13073:13076   */\n      dup5\n        /* \"#utility.yul\":13067:13071   */\n      dup3\n        /* \"#utility.yul\":13063:13077   */\n      sub\n        /* \"#utility.yul\":13056:13060   */\n      0x00\n        /* \"#utility.yul\":13051:13054   */\n      dup7\n        /* \"#utility.yul\":13047:13061   */\n      add\n        /* \"#utility.yul\":13040:13078   */\n      mstore\n        /* \"#utility.yul\":13099:13172   */\n      tag_406\n        /* \"#utility.yul\":13167:13171   */\n      dup3\n        /* \"#utility.yul\":13153:13165   */\n      dup3\n        /* \"#utility.yul\":13099:13172   */\n      tag_230\n      jump\t// in\n    tag_406:\n        /* \"#utility.yul\":13091:13172   */\n      swap2\n      pop\n        /* \"#utility.yul\":12940:13183   */\n      pop\n        /* \"#utility.yul\":13267:13271   */\n      0x20\n        /* \"#utility.yul\":13260:13265   */\n      dup4\n        /* \"#utility.yul\":13256:13272   */\n      add\n        /* \"#utility.yul\":13250:13273   */\n      mload\n        /* \"#utility.yul\":13320:13323   */\n      dup5\n        /* \"#utility.yul\":13314:13318   */\n      dup3\n        /* \"#utility.yul\":13310:13324   */\n      sub\n        /* \"#utility.yul\":13303:13307   */\n      0x20\n        /* \"#utility.yul\":13298:13301   */\n      dup7\n        /* \"#utility.yul\":13294:13308   */\n      add\n        /* \"#utility.yul\":13287:13325   */\n      mstore\n        /* \"#utility.yul\":13346:13419   */\n      tag_407\n        /* \"#utility.yul\":13414:13418   */\n      dup3\n        /* \"#utility.yul\":13400:13412   */\n      dup3\n        /* \"#utility.yul\":13346:13419   */\n      tag_230\n      jump\t// in\n    tag_407:\n        /* \"#utility.yul\":13338:13419   */\n      swap2\n      pop\n        /* \"#utility.yul\":13193:13430   */\n      pop\n        /* \"#utility.yul\":13516:13520   */\n      0x40\n        /* \"#utility.yul\":13509:13514   */\n      dup4\n        /* \"#utility.yul\":13505:13521   */\n      add\n        /* \"#utility.yul\":13499:13522   */\n      mload\n        /* \"#utility.yul\":13569:13572   */\n      dup5\n        /* \"#utility.yul\":13563:13567   */\n      dup3\n        /* \"#utility.yul\":13559:13573   */\n      sub\n        /* \"#utility.yul\":13552:13556   */\n      0x40\n        /* \"#utility.yul\":13547:13550   */\n      dup7\n        /* \"#utility.yul\":13543:13557   */\n      add\n        /* \"#utility.yul\":13536:13574   */\n      mstore\n        /* \"#utility.yul\":13595:13668   */\n      tag_408\n        /* \"#utility.yul\":13663:13667   */\n      dup3\n        /* \"#utility.yul\":13649:13661   */\n      dup3\n        /* \"#utility.yul\":13595:13668   */\n      tag_230\n      jump\t// in\n    tag_408:\n        /* \"#utility.yul\":13587:13668   */\n      swap2\n      pop\n        /* \"#utility.yul\":13440:13679   */\n      pop\n        /* \"#utility.yul\":13765:13769   */\n      0x60\n        /* \"#utility.yul\":13758:13763   */\n      dup4\n        /* \"#utility.yul\":13754:13770   */\n      add\n        /* \"#utility.yul\":13748:13771   */\n      mload\n        /* \"#utility.yul\":13784:13843   */\n      tag_409\n        /* \"#utility.yul\":13837:13841   */\n      0x60\n        /* \"#utility.yul\":13832:13835   */\n      dup7\n        /* \"#utility.yul\":13828:13842   */\n      add\n        /* \"#utility.yul\":13814:13826   */\n      dup3\n        /* \"#utility.yul\":13784:13843   */\n      tag_231\n      jump\t// in\n    tag_409:\n        /* \"#utility.yul\":13689:13853   */\n      pop\n        /* \"#utility.yul\":13940:13944   */\n      0x80\n        /* \"#utility.yul\":13933:13938   */\n      dup4\n        /* \"#utility.yul\":13929:13945   */\n      add\n        /* \"#utility.yul\":13923:13946   */\n      mload\n        /* \"#utility.yul\":13959:14022   */\n      tag_410\n        /* \"#utility.yul\":14016:14020   */\n      0x80\n        /* \"#utility.yul\":14011:14014   */\n      dup7\n        /* \"#utility.yul\":14007:14021   */\n      add\n        /* \"#utility.yul\":13993:14005   */\n      dup3\n        /* \"#utility.yul\":13959:14022   */\n      tag_232\n      jump\t// in\n    tag_410:\n        /* \"#utility.yul\":13863:14032   */\n      pop\n        /* \"#utility.yul\":14121:14125   */\n      0xa0\n        /* \"#utility.yul\":14114:14119   */\n      dup4\n        /* \"#utility.yul\":14110:14126   */\n      add\n        /* \"#utility.yul\":14104:14127   */\n      mload\n        /* \"#utility.yul\":14140:14203   */\n      tag_411\n        /* \"#utility.yul\":14197:14201   */\n      0xa0\n        /* \"#utility.yul\":14192:14195   */\n      dup7\n        /* \"#utility.yul\":14188:14202   */\n      add\n        /* \"#utility.yul\":14174:14186   */\n      dup3\n        /* \"#utility.yul\":14140:14203   */\n      tag_232\n      jump\t// in\n    tag_411:\n        /* \"#utility.yul\":14042:14213   */\n      pop\n        /* \"#utility.yul\":14306:14310   */\n      0xc0\n        /* \"#utility.yul\":14299:14304   */\n      dup4\n        /* \"#utility.yul\":14295:14311   */\n      add\n        /* \"#utility.yul\":14289:14312   */\n      mload\n        /* \"#utility.yul\":14325:14388   */\n      tag_412\n        /* \"#utility.yul\":14382:14386   */\n      0xc0\n        /* \"#utility.yul\":14377:14380   */\n      dup7\n        /* \"#utility.yul\":14373:14387   */\n      add\n        /* \"#utility.yul\":14359:14371   */\n      dup3\n        /* \"#utility.yul\":14325:14388   */\n      tag_233\n      jump\t// in\n    tag_412:\n        /* \"#utility.yul\":14223:14398   */\n      pop\n        /* \"#utility.yul\":14488:14492   */\n      0xe0\n        /* \"#utility.yul\":14481:14486   */\n      dup4\n        /* \"#utility.yul\":14477:14493   */\n      add\n        /* \"#utility.yul\":14471:14494   */\n      mload\n        /* \"#utility.yul\":14507:14564   */\n      tag_413\n        /* \"#utility.yul\":14558:14562   */\n      0xe0\n        /* \"#utility.yul\":14553:14556   */\n      dup7\n        /* \"#utility.yul\":14549:14563   */\n      add\n        /* \"#utility.yul\":14535:14547   */\n      dup3\n        /* \"#utility.yul\":14507:14564   */\n      tag_234\n      jump\t// in\n    tag_413:\n        /* \"#utility.yul\":14408:14574   */\n      pop\n        /* \"#utility.yul\":14662:14668   */\n      0x0100\n        /* \"#utility.yul\":14655:14660   */\n      dup4\n        /* \"#utility.yul\":14651:14669   */\n      add\n        /* \"#utility.yul\":14645:14670   */\n      mload\n        /* \"#utility.yul\":14683:14742   */\n      tag_414\n        /* \"#utility.yul\":14734:14740   */\n      0x0100\n        /* \"#utility.yul\":14729:14732   */\n      dup7\n        /* \"#utility.yul\":14725:14741   */\n      add\n        /* \"#utility.yul\":14711:14723   */\n      dup3\n        /* \"#utility.yul\":14683:14742   */\n      tag_234\n      jump\t// in\n    tag_414:\n        /* \"#utility.yul\":14584:14752   */\n      pop\n        /* \"#utility.yul\":14836:14842   */\n      0x0120\n        /* \"#utility.yul\":14829:14834   */\n      dup4\n        /* \"#utility.yul\":14825:14843   */\n      add\n        /* \"#utility.yul\":14819:14844   */\n      mload\n        /* \"#utility.yul\":14857:14916   */\n      tag_415\n        /* \"#utility.yul\":14908:14914   */\n      0x0120\n        /* \"#utility.yul\":14903:14906   */\n      dup7\n        /* \"#utility.yul\":14899:14915   */\n      add\n        /* \"#utility.yul\":14885:14897   */\n      dup3\n        /* \"#utility.yul\":14857:14916   */\n      tag_234\n      jump\t// in\n    tag_415:\n        /* \"#utility.yul\":14762:14926   */\n      pop\n        /* \"#utility.yul\":15011:15017   */\n      0x0140\n        /* \"#utility.yul\":15004:15009   */\n      dup4\n        /* \"#utility.yul\":15000:15018   */\n      add\n        /* \"#utility.yul\":14994:15019   */\n      mload\n        /* \"#utility.yul\":15032:15097   */\n      tag_416\n        /* \"#utility.yul\":15089:15095   */\n      0x0140\n        /* \"#utility.yul\":15084:15087   */\n      dup7\n        /* \"#utility.yul\":15080:15096   */\n      add\n        /* \"#utility.yul\":15066:15078   */\n      dup3\n        /* \"#utility.yul\":15032:15097   */\n      tag_233\n      jump\t// in\n    tag_416:\n        /* \"#utility.yul\":14936:15107   */\n      pop\n        /* \"#utility.yul\":15124:15128   */\n      dup1\n        /* \"#utility.yul\":15117:15128   */\n      swap2\n      pop\n        /* \"#utility.yul\":12892:15134   */\n      pop\n        /* \"#utility.yul\":12776:15134   */\n      swap3\n      swap2\n      pop\n      pop\n      jump\t// out\n        /* \"#utility.yul\":15140:15497   */\n    tag_86:\n        /* \"#utility.yul\":15275:15279   */\n      0x00\n        /* \"#utility.yul\":15313:15315   */\n      0x20\n        /* \"#utility.yul\":15302:15311   */\n      dup3\n        /* \"#utility.yul\":15298:15316   */\n      add\n        /* \"#utility.yul\":15290:15316   */\n      swap1\n      pop\n        /* \"#utility.yul\":15362:15371   */\n      dup2\n        /* \"#utility.yul\":15356:15360   */\n      dup2\n        /* \"#utility.yul\":15352:15372   */\n      sub\n        /* \"#utility.yul\":15348:15349   */\n      0x00\n        /* \"#utility.yul\":15337:15346   */\n      dup4\n        /* \"#utility.yul\":15333:15350   */\n      add\n        /* \"#utility.yul\":15326:15373   */\n      mstore\n        /* \"#utility.yul\":15390:15490   */\n      tag_418\n        /* \"#utility.yul\":15485:15489   */\n      dup2\n        /* \"#utility.yul\":15476:15482   */\n      dup5\n        /* \"#utility.yul\":15390:15490   */\n      tag_235\n      jump\t// in\n    tag_418:\n        /* \"#utility.yul\":15382:15490   */\n      swap1\n      pop\n        /* \"#utility.yul\":15140:15497   */\n      swap3\n      swap2\n      pop\n      pop\n      jump\t// out\n        /* \"#utility.yul\":15503:15675   */\n    tag_236:\n        /* \"#utility.yul\":15643:15667   */\n      0x796f752068617665206e6f742074686520726967687400000000000000000000\n        /* \"#utility.yul\":15639:15640   */\n      0x00\n        /* \"#utility.yul\":15631:15637   */\n      dup3\n        /* \"#utility.yul\":15627:15641   */\n      add\n        /* \"#utility.yul\":15620:15668   */\n      mstore\n        /* \"#utility.yul\":15503:15675   */\n      pop\n      jump\t// out\n        /* \"#utility.yul\":15681:16047   */\n    tag_237:\n        /* \"#utility.yul\":15823:15826   */\n      0x00\n        /* \"#utility.yul\":15844:15911   */\n      tag_421\n        /* \"#utility.yul\":15908:15910   */\n      0x16\n        /* \"#utility.yul\":15903:15906   */\n      dup4\n        /* \"#utility.yul\":15844:15911   */\n      tag_222\n      jump\t// in\n    tag_421:\n        /* \"#utility.yul\":15837:15911   */\n      swap2\n      pop\n        /* \"#utility.yul\":15920:16013   */\n      tag_422\n        /* \"#utility.yul\":16009:16012   */\n      dup3\n        /* \"#utility.yul\":15920:16013   */\n      tag_236\n      jump\t// in\n    tag_422:\n        /* \"#utility.yul\":16038:16040   */\n      0x20\n        /* \"#utility.yul\":16033:16036   */\n      dup3\n        /* \"#utility.yul\":16029:16041   */\n      add\n        /* \"#utility.yul\":16022:16041   */\n      swap1\n      pop\n        /* \"#utility.yul\":15681:16047   */\n      swap2\n      swap1\n      pop\n      jump\t// out\n        /* \"#utility.yul\":16053:16472   */\n    tag_96:\n        /* \"#utility.yul\":16219:16223   */\n      0x00\n        /* \"#utility.yul\":16257:16259   */\n      0x20\n        /* \"#utility.yul\":16246:16255   */\n      dup3\n        /* \"#utility.yul\":16242:16260   */\n      add\n        /* \"#utility.yul\":16234:16260   */\n      swap1\n      pop\n        /* \"#utility.yul\":16306:16315   */\n      dup2\n        /* \"#utility.yul\":16300:16304   */\n      dup2\n        /* \"#utility.yul\":16296:16316   */\n      sub\n        /* \"#utility.yul\":16292:16293   */\n      0x00\n        /* \"#utility.yul\":16281:16290   */\n      dup4\n        /* \"#utility.yul\":16277:16294   */\n      add\n        /* \"#utility.yul\":16270:16317   */\n      mstore\n        /* \"#utility.yul\":16334:16465   */\n      tag_424\n        /* \"#utility.yul\":16460:16464   */\n      dup2\n        /* \"#utility.yul\":16334:16465   */\n      tag_237\n      jump\t// in\n    tag_424:\n        /* \"#utility.yul\":16326:16465   */\n      swap1\n      pop\n        /* \"#utility.yul\":16053:16472   */\n      swap2\n      swap1\n      pop\n      jump\t// out\n        /* \"#utility.yul\":16478:16658   */\n    tag_238:\n        /* \"#utility.yul\":16526:16603   */\n      0x4e487b7100000000000000000000000000000000000000000000000000000000\n        /* \"#utility.yul\":16523:16524   */\n      0x00\n        /* \"#utility.yul\":16516:16604   */\n      mstore\n        /* \"#utility.yul\":16623:16627   */\n      0x22\n        /* \"#utility.yul\":16620:16621   */\n      0x04\n        /* \"#utility.yul\":16613:16628   */\n      mstore\n        /* \"#utility.yul\":16647:16651   */\n      0x24\n        /* \"#utility.yul\":16644:16645   */\n      0x00\n        /* \"#utility.yul\":16637:16652   */\n      revert\n        /* \"#utility.yul\":16664:16984   */\n    tag_102:\n        /* \"#utility.yul\":16708:16714   */\n      0x00\n        /* \"#utility.yul\":16745:16746   */\n      0x02\n        /* \"#utility.yul\":16739:16743   */\n      dup3\n        /* \"#utility.yul\":16735:16747   */\n      div\n        /* \"#utility.yul\":16725:16747   */\n      swap1\n      pop\n        /* \"#utility.yul\":16792:16793   */\n      0x01\n        /* \"#utility.yul\":16786:16790   */\n      dup3\n        /* \"#utility.yul\":16782:16794   */\n      and\n        /* \"#utility.yul\":16813:16831   */\n      dup1\n        /* \"#utility.yul\":16803:16884   */\n      tag_427\n      jumpi\n        /* \"#utility.yul\":16869:16873   */\n      0x7f\n        /* \"#utility.yul\":16861:16867   */\n      dup3\n        /* \"#utility.yul\":16857:16874   */\n      and\n        /* \"#utility.yul\":16847:16874   */\n      swap2\n      pop\n        /* \"#utility.yul\":16803:16884   */\n    tag_427:\n        /* \"#utility.yul\":16931:16933   */\n      0x20\n        /* \"#utility.yul\":16923:16929   */\n      dup3\n        /* \"#utility.yul\":16920:16934   */\n      lt\n        /* \"#utility.yul\":16900:16918   */\n      dup2\n        /* \"#utility.yul\":16897:16935   */\n      sub\n        /* \"#utility.yul\":16894:16978   */\n      tag_428\n      jumpi\n        /* \"#utility.yul\":16950:16968   */\n      tag_429\n      tag_238\n      jump\t// in\n    tag_429:\n        /* \"#utility.yul\":16894:16978   */\n    tag_428:\n        /* \"#utility.yul\":16715:16984   */\n      pop\n        /* \"#utility.yul\":16664:16984   */\n      swap2\n      swap1\n      pop\n      jump\t// out\n        /* \"#utility.yul\":16990:17131   */\n    tag_239:\n        /* \"#utility.yul\":17039:17043   */\n      0x00\n        /* \"#utility.yul\":17062:17065   */\n      dup2\n        /* \"#utility.yul\":17054:17065   */\n      swap1\n      pop\n        /* \"#utility.yul\":17085:17088   */\n      dup2\n        /* \"#utility.yul\":17082:17083   */\n      0x00\n        /* \"#utility.yul\":17075:17089   */\n      mstore\n        /* \"#utility.yul\":17119:17123   */\n      0x20\n        /* \"#utility.yul\":17116:17117   */\n      0x00\n        /* \"#utility.yul\":17106:17124   */\n      keccak256\n        /* \"#utility.yul\":17098:17124   */\n      swap1\n      pop\n        /* \"#utility.yul\":16990:17131   */\n      swap2\n      swap1\n      pop\n      jump\t// out\n        /* \"#utility.yul\":17137:17230   */\n    tag_240:\n        /* \"#utility.yul\":17174:17180   */\n      0x00\n        /* \"#utility.yul\":17221:17223   */\n      0x20\n        /* \"#utility.yul\":17216:17218   */\n      0x1f\n        /* \"#utility.yul\":17209:17214   */\n      dup4\n        /* \"#utility.yul\":17205:17219   */\n      add\n        /* \"#utility.yul\":17201:17224   */\n      div\n        /* \"#utility.yul\":17191:17224   */\n      swap1\n      pop\n        /* \"#utility.yul\":17137:17230   */\n      swap2\n      swap1\n      pop\n      jump\t// out\n        /* \"#utility.yul\":17236:17343   */\n    tag_241:\n        /* \"#utility.yul\":17280:17288   */\n      0x00\n        /* \"#utility.yul\":17330:17335   */\n      dup3\n        /* \"#utility.yul\":17324:17328   */\n      dup3\n        /* \"#utility.yul\":17320:17336   */\n      shl\n        /* \"#utility.yul\":17299:17336   */\n      swap1\n      pop\n        /* \"#utility.yul\":17236:17343   */\n      swap3\n      swap2\n      pop\n      pop\n      jump\t// out\n        /* \"#utility.yul\":17349:17742   */\n    tag_242:\n        /* \"#utility.yul\":17418:17424   */\n      0x00\n        /* \"#utility.yul\":17468:17469   */\n      0x08\n        /* \"#utility.yul\":17456:17466   */\n      dup4\n        /* \"#utility.yul\":17452:17470   */\n      mul\n        /* \"#utility.yul\":17491:17588   */\n      tag_434\n        /* \"#utility.yul\":17521:17587   */\n      0xffffffffffffffffffffffffffffffffffffffffffffffffffffffffffffffff\n        /* \"#utility.yul\":17510:17519   */\n      dup3\n        /* \"#utility.yul\":17491:17588   */\n      tag_241\n      jump\t// in\n    tag_434:\n        /* \"#utility.yul\":17609:17648   */\n      tag_435\n        /* \"#utility.yul\":17639:17647   */\n      dup7\n        /* \"#utility.yul\":17628:17637   */\n      dup4\n        /* \"#utility.yul\":17609:17648   */\n      tag_241\n      jump\t// in\n    tag_435:\n        /* \"#utility.yul\":17597:17648   */\n      swap6\n      pop\n        /* \"#utility.yul\":17681:17685   */\n      dup1\n        /* \"#utility.yul\":17677:17686   */\n      not\n        /* \"#utility.yul\":17670:17675   */\n      dup5\n        /* \"#utility.yul\":17666:17687   */\n      and\n        /* \"#utility.yul\":17657:17687   */\n      swap4\n      pop\n        /* \"#utility.yul\":17730:17734   */\n      dup1\n        /* \"#utility.yul\":17720:17728   */\n      dup7\n        /* \"#utility.yul\":17716:17735   */\n      and\n        /* \"#utility.yul\":17709:17714   */\n      dup5\n        /* \"#utility.yul\":17706:17736   */\n      or\n        /* \"#utility.yul\":17696:17736   */\n      swap3\n      pop\n        /* \"#utility.yul\":17425:17742   */\n      pop\n      pop\n        /* \"#utility.yul\":17349:17742   */\n      swap4\n      swap3\n      pop\n      pop\n      pop\n      jump\t// out\n        /* \"#utility.yul\":17748:17808   */\n    tag_243:\n        /* \"#utility.yul\":17776:17779   */\n      0x00\n        /* \"#utility.yul\":17797:17802   */\n      dup2\n        /* \"#utility.yul\":17790:17802   */\n      swap1\n      pop\n        /* \"#utility.yul\":17748:17808   */\n      swap2\n      swap1\n      pop\n      jump\t// out\n        /* \"#utility.yul\":17814:17956   */\n    tag_244:\n        /* \"#utility.yul\":17864:17873   */\n      0x00\n        /* \"#utility.yul\":17897:17950   */\n      tag_438\n        /* \"#utility.yul\":17915:17949   */\n      tag_439\n        /* \"#utility.yul\":17924:17948   */\n      tag_440\n        /* \"#utility.yul\":17942:17947   */\n      dup5\n        /* \"#utility.yul\":17924:17948   */\n      tag_214\n      jump\t// in\n    tag_440:\n        /* \"#utility.yul\":17915:17949   */\n      tag_243\n      jump\t// in\n    tag_439:\n        /* \"#utility.yul\":17897:17950   */\n      tag_214\n      jump\t// in\n    tag_438:\n        /* \"#utility.yul\":17884:17950   */\n      swap1\n      pop\n        /* \"#utility.yul\":17814:17956   */\n      swap2\n      swap1\n      pop\n      jump\t// out\n        /* \"#utility.yul\":17962:18037   */\n    tag_245:\n        /* \"#utility.yul\":18005:18008   */\n      0x00\n        /* \"#utility.yul\":18026:18031   */\n      dup2\n        /* \"#utility.yul\":18019:18031   */\n      swap1\n      pop\n        /* \"#utility.yul\":17962:18037   */\n      swap2\n      swap1\n      pop\n      jump\t// out\n        /* \"#utility.yul\":18043:18312   */\n    tag_246:\n        /* \"#utility.yul\":18153:18192   */\n      tag_443\n        /* \"#utility.yul\":18184:18191   */\n      dup4\n        /* \"#utility.yul\":18153:18192   */\n      tag_244\n      jump\t// in\n    tag_443:\n        /* \"#utility.yul\":18214:18305   */\n      tag_444\n        /* \"#utility.yul\":18263:18304   */\n      tag_445\n        /* \"#utility.yul\":18287:18303   */\n      dup3\n        /* \"#utility.yul\":18263:18304   */\n      tag_245\n      jump\t// in\n    tag_445:\n        /* \"#utility.yul\":18255:18261   */\n      dup5\n        /* \"#utility.yul\":18248:18252   */\n      dup5\n        /* \"#utility.yul\":18242:18253   */\n      sload\n        /* \"#utility.yul\":18214:18305   */\n      tag_242\n      jump\t// in\n    tag_444:\n        /* \"#utility.yul\":18208:18212   */\n      dup3\n        /* \"#utility.yul\":18201:18306   */\n      sstore\n        /* \"#utility.yul\":18119:18312   */\n      pop\n        /* \"#utility.yul\":18043:18312   */\n      pop\n      pop\n      pop\n      jump\t// out\n        /* \"#utility.yul\":18318:18391   */\n    tag_247:\n        /* \"#utility.yul\":18363:18366   */\n      0x00\n        /* \"#utility.yul\":18318:18391   */\n      swap1\n      jump\t// out\n        /* \"#utility.yul\":18397:18586   */\n    tag_248:\n        /* \"#utility.yul\":18474:18506   */\n      tag_448\n      tag_247\n      jump\t// in\n    tag_448:\n        /* \"#utility.yul\":18515:18580   */\n      tag_449\n        /* \"#utility.yul\":18573:18579   */\n      dup2\n        /* \"#utility.yul\":18565:18571   */\n      dup5\n        /* \"#utility.yul\":18559:18563   */\n      dup5\n        /* \"#utility.yul\":18515:18580   */\n      tag_246\n      jump\t// in\n    tag_449:\n        /* \"#utility.yul\":18450:18586   */\n      pop\n        /* \"#utility.yul\":18397:18586   */\n      pop\n      pop\n      jump\t// out\n        /* \"#utility.yul\":18592:18778   */\n    tag_249:\n        /* \"#utility.yul\":18652:18772   */\n    tag_451:\n        /* \"#utility.yul\":18669:18672   */\n      dup2\n        /* \"#utility.yul\":18662:18667   */\n      dup2\n        /* \"#utility.yul\":18659:18673   */\n      lt\n        /* \"#utility.yul\":18652:18772   */\n      iszero\n      tag_453\n      jumpi\n        /* \"#utility.yul\":18723:18762   */\n      tag_454\n        /* \"#utility.yul\":18760:18761   */\n      0x00\n        /* \"#utility.yul\":18753:18758   */\n      dup3\n        /* \"#utility.yul\":18723:18762   */\n      tag_248\n      jump\t// in\n    tag_454:\n        /* \"#utility.yul\":18696:18697   */\n      0x01\n        /* \"#utility.yul\":18689:18694   */\n      dup2\n        /* \"#utility.yul\":18685:18698   */\n      add\n        /* \"#utility.yul\":18676:18698   */\n      swap1\n      pop\n        /* \"#utility.yul\":18652:18772   */\n      jump(tag_451)\n    tag_453:\n        /* \"#utility.yul\":18592:18778   */\n      pop\n      pop\n      jump\t// out\n        /* \"#utility.yul\":18784:19327   */\n    tag_250:\n        /* \"#utility.yul\":18885:18887   */\n      0x1f\n        /* \"#utility.yul\":18880:18883   */\n      dup3\n        /* \"#utility.yul\":18877:18888   */\n      gt\n        /* \"#utility.yul\":18874:19320   */\n      iszero\n      tag_456\n      jumpi\n        /* \"#utility.yul\":18919:18957   */\n      tag_457\n        /* \"#utility.yul\":18951:18956   */\n      dup2\n        /* \"#utility.yul\":18919:18957   */\n      tag_239\n      jump\t// in\n    tag_457:\n        /* \"#utility.yul\":19003:19032   */\n      tag_458\n        /* \"#utility.yul\":19021:19031   */\n      dup5\n        /* \"#utility.yul\":19003:19032   */\n      tag_240\n      jump\t// in\n    tag_458:\n        /* \"#utility.yul\":18993:19001   */\n      dup2\n        /* \"#utility.yul\":18989:19033   */\n      add\n        /* \"#utility.yul\":19186:19188   */\n      0x20\n        /* \"#utility.yul\":19174:19184   */\n      dup6\n        /* \"#utility.yul\":19171:19189   */\n      lt\n        /* \"#utility.yul\":19168:19217   */\n      iszero\n      tag_459\n      jumpi\n        /* \"#utility.yul\":19207:19215   */\n      dup2\n        /* \"#utility.yul\":19192:19215   */\n      swap1\n      pop\n        /* \"#utility.yul\":19168:19217   */\n    tag_459:\n        /* \"#utility.yul\":19230:19310   */\n      tag_460\n        /* \"#utility.yul\":19286:19308   */\n      tag_461\n        /* \"#utility.yul\":19304:19307   */\n      dup6\n        /* \"#utility.yul\":19286:19308   */\n      tag_240\n      jump\t// in\n    tag_461:\n        /* \"#utility.yul\":19276:19284   */\n      dup4\n        /* \"#utility.yul\":19272:19309   */\n      add\n        /* \"#utility.yul\":19259:19270   */\n      dup3\n        /* \"#utility.yul\":19230:19310   */\n      tag_249\n      jump\t// in\n    tag_460:\n        /* \"#utility.yul\":18889:19320   */\n      pop\n      pop\n        /* \"#utility.yul\":18874:19320   */\n    tag_456:\n        /* \"#utility.yul\":18784:19327   */\n      pop\n      pop\n      pop\n      jump\t// out\n        /* \"#utility.yul\":19333:19450   */\n    tag_251:\n        /* \"#utility.yul\":19387:19395   */\n      0x00\n        /* \"#utility.yul\":19437:19442   */\n      dup3\n        /* \"#utility.yul\":19431:19435   */\n      dup3\n        /* \"#utility.yul\":19427:19443   */\n      shr\n        /* \"#utility.yul\":19406:19443   */\n      swap1\n      pop\n        /* \"#utility.yul\":19333:19450   */\n      swap3\n      swap2\n      pop\n      pop\n      jump\t// out\n        /* \"#utility.yul\":19456:19625   */\n    tag_252:\n        /* \"#utility.yul\":19500:19506   */\n      0x00\n        /* \"#utility.yul\":19533:19584   */\n      tag_464\n        /* \"#utility.yul\":19581:19582   */\n      0x00\n        /* \"#utility.yul\":19577:19583   */\n      not\n        /* \"#utility.yul\":19569:19574   */\n      dup5\n        /* \"#utility.yul\":19566:19567   */\n      0x08\n        /* \"#utility.yul\":19562:19575   */\n      mul\n        /* \"#utility.yul\":19533:19584   */\n      tag_251\n      jump\t// in\n    tag_464:\n        /* \"#utility.yul\":19529:19585   */\n      not\n        /* \"#utility.yul\":19614:19618   */\n      dup1\n        /* \"#utility.yul\":19608:19612   */\n      dup4\n        /* \"#utility.yul\":19604:19619   */\n      and\n        /* \"#utility.yul\":19594:19619   */\n      swap2\n      pop\n        /* \"#utility.yul\":19507:19625   */\n      pop\n        /* \"#utility.yul\":19456:19625   */\n      swap3\n      swap2\n      pop\n      pop\n      jump\t// out\n        /* \"#utility.yul\":19630:19925   */\n    tag_253:\n        /* \"#utility.yul\":19706:19710   */\n      0x00\n        /* \"#utility.yul\":19852:19881   */\n      tag_466\n        /* \"#utility.yul\":19877:19880   */\n      dup4\n        /* \"#utility.yul\":19871:19875   */\n      dup4\n        /* \"#utility.yul\":19852:19881   */\n      tag_252\n      jump\t// in\n    tag_466:\n        /* \"#utility.yul\":19844:19881   */\n      swap2\n      pop\n        /* \"#utility.yul\":19914:19917   */\n      dup3\n        /* \"#utility.yul\":19911:19912   */\n      0x02\n        /* \"#utility.yul\":19907:19918   */\n      mul\n        /* \"#utility.yul\":19901:19905   */\n      dup3\n        /* \"#utility.yul\":19898:19919   */\n      or\n        /* \"#utility.yul\":19890:19919   */\n      swap1\n      pop\n        /* \"#utility.yul\":19630:19925   */\n      swap3\n      swap2\n      pop\n      pop\n      jump\t// out\n        /* \"#utility.yul\":19930:21325   */\n    tag_98:\n        /* \"#utility.yul\":20047:20084   */\n      tag_468\n        /* \"#utility.yul\":20080:20083   */\n      dup3\n        /* \"#utility.yul\":20047:20084   */\n      tag_221\n      jump\t// in\n    tag_468:\n        /* \"#utility.yul\":20149:20167   */\n      0xffffffffffffffff\n        /* \"#utility.yul\":20141:20147   */\n      dup2\n        /* \"#utility.yul\":20138:20168   */\n      gt\n        /* \"#utility.yul\":20135:20191   */\n      iszero\n      tag_469\n      jumpi\n        /* \"#utility.yul\":20171:20189   */\n      tag_470\n      tag_201\n      jump\t// in\n    tag_470:\n        /* \"#utility.yul\":20135:20191   */\n    tag_469:\n        /* \"#utility.yul\":20215:20253   */\n      tag_471\n        /* \"#utility.yul\":20247:20251   */\n      dup3\n        /* \"#utility.yul\":20241:20252   */\n      sload\n        /* \"#utility.yul\":20215:20253   */\n      tag_102\n      jump\t// in\n    tag_471:\n        /* \"#utility.yul\":20300:20367   */\n      tag_472\n        /* \"#utility.yul\":20360:20366   */\n      dup3\n        /* \"#utility.yul\":20352:20358   */\n      dup3\n        /* \"#utility.yul\":20346:20350   */\n      dup6\n        /* \"#utility.yul\":20300:20367   */\n      tag_250\n      jump\t// in\n    tag_472:\n        /* \"#utility.yul\":20394:20395   */\n      0x00\n        /* \"#utility.yul\":20418:20422   */\n      0x20\n        /* \"#utility.yul\":20405:20422   */\n      swap1\n      pop\n        /* \"#utility.yul\":20450:20452   */\n      0x1f\n        /* \"#utility.yul\":20442:20448   */\n      dup4\n        /* \"#utility.yul\":20439:20453   */\n      gt\n        /* \"#utility.yul\":20467:20468   */\n      0x01\n        /* \"#utility.yul\":20462:21080   */\n      dup2\n      eq\n      tag_474\n      jumpi\n        /* \"#utility.yul\":21124:21125   */\n      0x00\n        /* \"#utility.yul\":21141:21147   */\n      dup5\n        /* \"#utility.yul\":21138:21215   */\n      iszero\n      tag_475\n      jumpi\n        /* \"#utility.yul\":21190:21199   */\n      dup3\n        /* \"#utility.yul\":21185:21188   */\n      dup8\n        /* \"#utility.yul\":21181:21200   */\n      add\n        /* \"#utility.yul\":21175:21201   */\n      mload\n        /* \"#utility.yul\":21166:21201   */\n      swap1\n      pop\n        /* \"#utility.yul\":21138:21215   */\n    tag_475:\n        /* \"#utility.yul\":21241:21308   */\n      tag_476\n        /* \"#utility.yul\":21301:21307   */\n      dup6\n        /* \"#utility.yul\":21294:21299   */\n      dup3\n        /* \"#utility.yul\":21241:21308   */\n      tag_253\n      jump\t// in\n    tag_476:\n        /* \"#utility.yul\":21235:21239   */\n      dup7\n        /* \"#utility.yul\":21228:21309   */\n      sstore\n        /* \"#utility.yul\":21097:21319   */\n      pop\n        /* \"#utility.yul\":20432:21319   */\n      jump(tag_473)\n        /* \"#utility.yul\":20462:21080   */\n    tag_474:\n        /* \"#utility.yul\":20514:20518   */\n      0x1f\n        /* \"#utility.yul\":20510:20519   */\n      not\n        /* \"#utility.yul\":20502:20508   */\n      dup5\n        /* \"#utility.yul\":20498:20520   */\n      and\n        /* \"#utility.yul\":20548:20585   */\n      tag_477\n        /* \"#utility.yul\":20580:20584   */\n      dup7\n        /* \"#utility.yul\":20548:20585   */\n      tag_239\n      jump\t// in\n    tag_477:\n        /* \"#utility.yul\":20607:20608   */\n      0x00\n        /* \"#utility.yul\":20621:20829   */\n    tag_478:\n        /* \"#utility.yul\":20635:20642   */\n      dup3\n        /* \"#utility.yul\":20632:20633   */\n      dup2\n        /* \"#utility.yul\":20629:20643   */\n      lt\n        /* \"#utility.yul\":20621:20829   */\n      iszero\n      tag_480\n      jumpi\n        /* \"#utility.yul\":20714:20723   */\n      dup5\n        /* \"#utility.yul\":20709:20712   */\n      dup10\n        /* \"#utility.yul\":20705:20724   */\n      add\n        /* \"#utility.yul\":20699:20725   */\n      mload\n        /* \"#utility.yul\":20691:20697   */\n      dup3\n        /* \"#utility.yul\":20684:20726   */\n      sstore\n        /* \"#utility.yul\":20765:20766   */\n      0x01\n        /* \"#utility.yul\":20757:20763   */\n      dup3\n        /* \"#utility.yul\":20753:20767   */\n      add\n        /* \"#utility.yul\":20743:20767   */\n      swap2\n      pop\n        /* \"#utility.yul\":20812:20814   */\n      0x20\n        /* \"#utility.yul\":20801:20810   */\n      dup6\n        /* \"#utility.yul\":20797:20815   */\n      add\n        /* \"#utility.yul\":20784:20815   */\n      swap5\n      pop\n        /* \"#utility.yul\":20658:20662   */\n      0x20\n        /* \"#utility.yul\":20655:20656   */\n      dup2\n        /* \"#utility.yul\":20651:20663   */\n      add\n        /* \"#utility.yul\":20646:20663   */\n      swap1\n      pop\n        /* \"#utility.yul\":20621:20829   */\n      jump(tag_478)\n    tag_480:\n        /* \"#utility.yul\":20857:20863   */\n      dup7\n        /* \"#utility.yul\":20848:20855   */\n      dup4\n        /* \"#utility.yul\":20845:20864   */\n      lt\n        /* \"#utility.yul\":20842:21021   */\n      iszero\n      tag_481\n      jumpi\n        /* \"#utility.yul\":20915:20924   */\n      dup5\n        /* \"#utility.yul\":20910:20913   */\n      dup10\n        /* \"#utility.yul\":20906:20925   */\n      add\n        /* \"#utility.yul\":20900:20926   */\n      mload\n        /* \"#utility.yul\":20958:21006   */\n      tag_482\n        /* \"#utility.yul\":21000:21004   */\n      0x1f\n        /* \"#utility.yul\":20992:20998   */\n      dup10\n        /* \"#utility.yul\":20988:21005   */\n      and\n        /* \"#utility.yul\":20977:20986   */\n      dup3\n        /* \"#utility.yul\":20958:21006   */\n      tag_252\n      jump\t// in\n    tag_482:\n        /* \"#utility.yul\":20950:20956   */\n      dup4\n        /* \"#utility.yul\":20943:21007   */\n      sstore\n        /* \"#utility.yul\":20865:21021   */\n      pop\n        /* \"#utility.yul\":20842:21021   */\n    tag_481:\n        /* \"#utility.yul\":21067:21068   */\n      0x01\n        /* \"#utility.yul\":21063:21064   */\n      0x02\n        /* \"#utility.yul\":21055:21061   */\n      dup9\n        /* \"#utility.yul\":21051:21065   */\n      mul\n        /* \"#utility.yul\":21047:21069   */\n      add\n        /* \"#utility.yul\":21041:21045   */\n      dup9\n        /* \"#utility.yul\":21034:21070   */\n      sstore\n        /* \"#utility.yul\":20469:21080   */\n      pop\n      pop\n      pop\n        /* \"#utility.yul\":20432:21319   */\n    tag_473:\n      pop\n        /* \"#utility.yul\":20022:21325   */\n      pop\n      pop\n      pop\n        /* \"#utility.yul\":19930:21325   */\n      pop\n      pop\n      jump\t// out\n        /* \"#utility.yul\":21331:21503   */\n    tag_254:\n        /* \"#utility.yul\":21471:21495   */\n      0x74686520636f696e206973206e6f742065786973747300000000000000000000\n        /* \"#utility.yul\":21467:21468   */\n      0x00\n        /* \"#utility.yul\":21459:21465   */\n      dup3\n        /* \"#utility.yul\":21455:21469   */\n      add\n        /* \"#utility.yul\":21448:21496   */\n      mstore\n        /* \"#utility.yul\":21331:21503   */\n      pop\n      jump\t// out\n        /* \"#utility.yul\":21509:21875   */\n    tag_255:\n        /* \"#utility.yul\":21651:21654   */\n      0x00\n        /* \"#utility.yul\":21672:21739   */\n      tag_485\n        /* \"#utility.yul\":21736:21738   */\n      0x16\n        /* \"#utility.yul\":21731:21734   */\n      dup4\n        /* \"#utility.yul\":21672:21739   */\n      tag_222\n      jump\t// in\n    tag_485:\n        /* \"#utility.yul\":21665:21739   */\n      swap2\n      pop\n        /* \"#utility.yul\":21748:21841   */\n      tag_486\n        /* \"#utility.yul\":21837:21840   */\n      dup3\n        /* \"#utility.yul\":21748:21841   */\n      tag_254\n      jump\t// in\n    tag_486:\n        /* \"#utility.yul\":21866:21868   */\n      0x20\n        /* \"#utility.yul\":21861:21864   */\n      dup3\n        /* \"#utility.yul\":21857:21869   */\n      add\n        /* \"#utility.yul\":21850:21869   */\n      swap1\n      pop\n        /* \"#utility.yul\":21509:21875   */\n      swap2\n      swap1\n      pop\n      jump\t// out\n        /* \"#utility.yul\":21881:22300   */\n    tag_136:\n        /* \"#utility.yul\":22047:22051   */\n      0x00\n        /* \"#utility.yul\":22085:22087   */\n      0x20\n        /* \"#utility.yul\":22074:22083   */\n      dup3\n        /* \"#utility.yul\":22070:22088   */\n      add\n        /* \"#utility.yul\":22062:22088   */\n      swap1\n      pop\n        /* \"#utility.yul\":22134:22143   */\n      dup2\n        /* \"#utility.yul\":22128:22132   */\n      dup2\n        /* \"#utility.yul\":22124:22144   */\n      sub\n        /* \"#utility.yul\":22120:22121   */\n      0x00\n        /* \"#utility.yul\":22109:22118   */\n      dup4\n        /* \"#utility.yul\":22105:22122   */\n      add\n        /* \"#utility.yul\":22098:22145   */\n      mstore\n        /* \"#utility.yul\":22162:22293   */\n      tag_488\n        /* \"#utility.yul\":22288:22292   */\n      dup2\n        /* \"#utility.yul\":22162:22293   */\n      tag_255\n      jump\t// in\n    tag_488:\n        /* \"#utility.yul\":22154:22293   */\n      swap1\n      pop\n        /* \"#utility.yul\":21881:22300   */\n      swap2\n      swap1\n      pop\n      jump\t// out\n        /* \"#utility.yul\":22306:22485   */\n    tag_256:\n        /* \"#utility.yul\":22446:22477   */\n      0x74686520636f696e2065786973747320696e20746865206d61726b6574000000\n        /* \"#utility.yul\":22442:22443   */\n      0x00\n        /* \"#utility.yul\":22434:22440   */\n      dup3\n        /* \"#utility.yul\":22430:22444   */\n      add\n        /* \"#utility.yul\":22423:22478   */\n      mstore\n        /* \"#utility.yul\":22306:22485   */\n      pop\n      jump\t// out\n        /* \"#utility.yul\":22491:22857   */\n    tag_257:\n        /* \"#utility.yul\":22633:22636   */\n      0x00\n        /* \"#utility.yul\":22654:22721   */\n      tag_491\n        /* \"#utility.yul\":22718:22720   */\n      0x1d\n        /* \"#utility.yul\":22713:22716   */\n      dup4\n        /* \"#utility.yul\":22654:22721   */\n      tag_222\n      jump\t// in\n    tag_491:\n        /* \"#utility.yul\":22647:22721   */\n      swap2\n      pop\n        /* \"#utility.yul\":22730:22823   */\n      tag_492\n        /* \"#utility.yul\":22819:22822   */\n      dup3\n        /* \"#utility.yul\":22730:22823   */\n      tag_256\n      jump\t// in\n    tag_492:\n        /* \"#utility.yul\":22848:22850   */\n      0x20\n        /* \"#utility.yul\":22843:22846   */\n      dup3\n        /* \"#utility.yul\":22839:22851   */\n      add\n        /* \"#utility.yul\":22832:22851   */\n      swap1\n      pop\n        /* \"#utility.yul\":22491:22857   */\n      swap2\n      swap1\n      pop\n      jump\t// out\n        /* \"#utility.yul\":22863:23282   */\n    tag_146:\n        /* \"#utility.yul\":23029:23033   */\n      0x00\n        /* \"#utility.yul\":23067:23069   */\n      0x20\n        /* \"#utility.yul\":23056:23065   */\n      dup3\n        /* \"#utility.yul\":23052:23070   */\n      add\n        /* \"#utility.yul\":23044:23070   */\n      swap1\n      pop\n        /* \"#utility.yul\":23116:23125   */\n      dup2\n        /* \"#utility.yul\":23110:23114   */\n      dup2\n        /* \"#utility.yul\":23106:23126   */\n      sub\n        /* \"#utility.yul\":23102:23103   */\n      0x00\n        /* \"#utility.yul\":23091:23100   */\n      dup4\n        /* \"#utility.yul\":23087:23104   */\n      add\n        /* \"#utility.yul\":23080:23127   */\n      mstore\n        /* \"#utility.yul\":23144:23275   */\n      tag_494\n        /* \"#utility.yul\":23270:23274   */\n      dup2\n        /* \"#utility.yul\":23144:23275   */\n      tag_257\n      jump\t// in\n    tag_494:\n        /* \"#utility.yul\":23136:23275   */\n      swap1\n      pop\n        /* \"#utility.yul\":22863:23282   */\n      swap2\n      swap1\n      pop\n      jump\t// out\n        /* \"#utility.yul\":23288:23465   */\n    tag_258:\n        /* \"#utility.yul\":23428:23457   */\n      0x74686520636f696e2065786973747320696e2074686520676174650000000000\n        /* \"#utility.yul\":23424:23425   */\n      0x00\n        /* \"#utility.yul\":23416:23422   */\n      dup3\n        /* \"#utility.yul\":23412:23426   */\n      add\n        /* \"#utility.yul\":23405:23458   */\n      mstore\n        /* \"#utility.yul\":23288:23465   */\n      pop\n      jump\t// out\n        /* \"#utility.yul\":23471:23837   */\n    tag_259:\n        /* \"#utility.yul\":23613:23616   */\n      0x00\n        /* \"#utility.yul\":23634:23701   */\n      tag_497\n        /* \"#utility.yul\":23698:23700   */\n      0x1b\n        /* \"#utility.yul\":23693:23696   */\n      dup4\n        /* \"#utility.yul\":23634:23701   */\n      tag_222\n      jump\t// in\n    tag_497:\n        /* \"#utility.yul\":23627:23701   */\n      swap2\n      pop\n        /* \"#utility.yul\":23710:23803   */\n      tag_498\n        /* \"#utility.yul\":23799:23802   */\n      dup3\n        /* \"#utility.yul\":23710:23803   */\n      tag_258\n      jump\t// in\n    tag_498:\n        /* \"#utility.yul\":23828:23830   */\n      0x20\n        /* \"#utility.yul\":23823:23826   */\n      dup3\n        /* \"#utility.yul\":23819:23831   */\n      add\n        /* \"#utility.yul\":23812:23831   */\n      swap1\n      pop\n        /* \"#utility.yul\":23471:23837   */\n      swap2\n      swap1\n      pop\n      jump\t// out\n        /* \"#utility.yul\":23843:24262   */\n    tag_149:\n        /* \"#utility.yul\":24009:24013   */\n      0x00\n        /* \"#utility.yul\":24047:24049   */\n      0x20\n        /* \"#utility.yul\":24036:24045   */\n      dup3\n        /* \"#utility.yul\":24032:24050   */\n      add\n        /* \"#utility.yul\":24024:24050   */\n      swap1\n      pop\n        /* \"#utility.yul\":24096:24105   */\n      dup2\n        /* \"#utility.yul\":24090:24094   */\n      dup2\n        /* \"#utility.yul\":24086:24106   */\n      sub\n        /* \"#utility.yul\":24082:24083   */\n      0x00\n        /* \"#utility.yul\":24071:24080   */\n      dup4\n        /* \"#utility.yul\":24067:24084   */\n      add\n        /* \"#utility.yul\":24060:24107   */\n      mstore\n        /* \"#utility.yul\":24124:24255   */\n      tag_500\n        /* \"#utility.yul\":24250:24254   */\n      dup2\n        /* \"#utility.yul\":24124:24255   */\n      tag_259\n      jump\t// in\n    tag_500:\n        /* \"#utility.yul\":24116:24255   */\n      swap1\n      pop\n        /* \"#utility.yul\":23843:24262   */\n      swap2\n      swap1\n      pop\n      jump\t// out\n        /* \"#utility.yul\":24268:24447   */\n    tag_260:\n        /* \"#utility.yul\":24408:24439   */\n      0x74686520636f696e206973202065786973747320696e206d61726b6574000000\n        /* \"#utility.yul\":24404:24405   */\n      0x00\n        /* \"#utility.yul\":24396:24402   */\n      dup3\n        /* \"#utility.yul\":24392:24406   */\n      add\n        /* \"#utility.yul\":24385:24440   */\n      mstore\n        /* \"#utility.yul\":24268:24447   */\n      pop\n      jump\t// out\n        /* \"#utility.yul\":24453:24819   */\n    tag_261:\n        /* \"#utility.yul\":24595:24598   */\n      0x00\n        /* \"#utility.yul\":24616:24683   */\n      tag_503\n        /* \"#utility.yul\":24680:24682   */\n      0x1d\n        /* \"#utility.yul\":24675:24678   */\n      dup4\n        /* \"#utility.yul\":24616:24683   */\n      tag_222\n      jump\t// in\n    tag_503:\n        /* \"#utility.yul\":24609:24683   */\n      swap2\n      pop\n        /* \"#utility.yul\":24692:24785   */\n      tag_504\n        /* \"#utility.yul\":24781:24784   */\n      dup3\n        /* \"#utility.yul\":24692:24785   */\n      tag_260\n      jump\t// in\n    tag_504:\n        /* \"#utility.yul\":24810:24812   */\n      0x20\n        /* \"#utility.yul\":24805:24808   */\n      dup3\n        /* \"#utility.yul\":24801:24813   */\n      add\n        /* \"#utility.yul\":24794:24813   */\n      swap1\n      pop\n        /* \"#utility.yul\":24453:24819   */\n      swap2\n      swap1\n      pop\n      jump\t// out\n        /* \"#utility.yul\":24825:25244   */\n    tag_167:\n        /* \"#utility.yul\":24991:24995   */\n      0x00\n        /* \"#utility.yul\":25029:25031   */\n      0x20\n        /* \"#utility.yul\":25018:25027   */\n      dup3\n        /* \"#utility.yul\":25014:25032   */\n      add\n        /* \"#utility.yul\":25006:25032   */\n      swap1\n      pop\n        /* \"#utility.yul\":25078:25087   */\n      dup2\n        /* \"#utility.yul\":25072:25076   */\n      dup2\n        /* \"#utility.yul\":25068:25088   */\n      sub\n        /* \"#utility.yul\":25064:25065   */\n      0x00\n        /* \"#utility.yul\":25053:25062   */\n      dup4\n        /* \"#utility.yul\":25049:25066   */\n      add\n        /* \"#utility.yul\":25042:25089   */\n      mstore\n        /* \"#utility.yul\":25106:25237   */\n      tag_506\n        /* \"#utility.yul\":25232:25236   */\n      dup2\n        /* \"#utility.yul\":25106:25237   */\n      tag_261\n      jump\t// in\n    tag_506:\n        /* \"#utility.yul\":25098:25237   */\n      swap1\n      pop\n        /* \"#utility.yul\":24825:25244   */\n      swap2\n      swap1\n      pop\n      jump\t// out\n\n    auxdata: 0xa2646970667358221220a5db2d660076259af33f334c758d98c890d08221ca0871701394f8fda3610bbc64736f6c63430008120033\n}\n",
				"bytecode": {
					"linkReferences": {},
					"object": "60c06040523480156200001157600080fd5b50604051620033d2380380620033d2833981810160405281019062000037919062000111565b8173ffffffffffffffffffffffffffffffffffffffff1660808173ffffffffffffffffffffffffffffffffffffffff16815250508073ffffffffffffffffffffffffffffffffffffffff1660a08173ffffffffffffffffffffffffffffffffffffffff1681525050505062000158565b600080fd5b600073ffffffffffffffffffffffffffffffffffffffff82169050919050565b6000620000d982620000ac565b9050919050565b620000eb81620000cc565b8114620000f757600080fd5b50565b6000815190506200010b81620000e0565b92915050565b600080604083850312156200012b576200012a620000a7565b5b60006200013b85828601620000fa565b92505060206200014e85828601620000fa565b9150509250929050565b60805160a0516132546200017e6000396000610c4b01526000610c2701526132546000f3fe608060405234801561001057600080fd5b50600436106101165760003560e01c8063550fb4ba116100a2578063b73436fd11610071578063b73436fd146102d1578063cc0bf757146102ed578063cfcdca521461031d578063e8dd465514610339578063eaec01121461036957610116565b8063550fb4ba146102615780637c3e2f021461027d578063a3967d0d14610299578063b20be2b4146102b557610116565b8063385e4b7a116100e9578063385e4b7a146101bd5780633b830305146101d9578063441eb5481461020957806347d0a63414610225578063492b71071461024357610116565b80631d3b8f671461011b5780632a9f659c1461013757806331ecdeb814610153578063328320bf1461018d575b600080fd5b610135600480360381019061013091906125c1565b610385565b005b610151600480360381019061014c9190612945565b6103e3565b005b61016d600480360381019061016891906125c1565b6106d7565b6040516101849b9a99989796959493929190612a49565b60405180910390f35b6101a760048036038101906101a291906125c1565b61093d565b6040516101b49190612b09565b60405180910390f35b6101d760048036038101906101d291906125c1565b610996565b005b6101f360048036038101906101ee91906125c1565b610ac4565b6040516102009190612b24565b60405180910390f35b610223600480360381019061021e91906125c1565b610af7565b005b61022d610c25565b60405161023a9190612b24565b60405180910390f35b61024b610c49565b6040516102589190612b24565b60405180910390f35b61027b60048036038101906102769190612945565b610c6d565b005b610297600480360381019061029291906125c1565b610f8e565b005b6102b360048036038101906102ae9190612945565b6110bf565b005b6102cf60048036038101906102ca91906125c1565b6116aa565b005b6102eb60048036038101906102e69190612945565b611708565b005b61030760048036038101906103029190612b3f565b611b68565b6040516103149190612b24565b60405180910390f35b61033760048036038101906103329190612b3f565b611baa565b005b610353600480360381019061034e91906125c1565b611f3e565b6040516103609190612d02565b60405180910390f35b610383600480360381019061037e9190612b3f565b612312565b005b6001600260008373ffffffffffffffffffffffffffffffffffffffff1673ffffffffffffffffffffffffffffffffffffffff16815260200190815260200160002060060160146101000a81548160ff02191690831515021790555050565b3373ffffffffffffffffffffffffffffffffffffffff16600260008360c0015173ffffffffffffffffffffffffffffffffffffffff1673ffffffffffffffffffffffffffffffffffffffff16815260200190815260200160002060070160009054906101000a900473ffffffffffffffffffffffffffffffffffffffff1673ffffffffffffffffffffffffffffffffffffffff16146104b7576040517f08c379a00000000000000000000000000000000000000000000000000000000081526004016104ae90612d70565b60405180910390fd5b60008160e00190151590811515815250506000816101000190151590811515815250506001816101200190151590811515815250503381610140019073ffffffffffffffffffffffffffffffffffffffff16908173ffffffffffffffffffffffffffffffffffffffff168152505080600260008360c0015173ffffffffffffffffffffffffffffffffffffffff1673ffffffffffffffffffffffffffffffffffffffff168152602001908152602001600020600082015181600001908161057e9190612f9c565b5060208201518160010190816105949190612f9c565b5060408201518160020190816105aa9190612f9c565b5060608201518160030160006101000a81548160ff021916908360ff1602179055506080820151816004015560a0820151816005015560c08201518160060160006101000a81548173ffffffffffffffffffffffffffffffffffffffff021916908373ffffffffffffffffffffffffffffffffffffffff16021790555060e08201518160060160146101000a81548160ff0219169083151502179055506101008201518160060160156101000a81548160ff0219169083151502179055506101208201518160060160166101000a81548160ff0219169083151502179055506101408201518160070160006101000a81548173ffffffffffffffffffffffffffffffffffffffff021916908373ffffffffffffffffffffffffffffffffffffffff16021790555090505050565b60026020528060005260406000206000915090508060000180546106fa90612dbf565b80601f016020809104026020016040519081016040528092919081815260200182805461072690612dbf565b80156107735780601f1061074857610100808354040283529160200191610773565b820191906000526020600020905b81548152906001019060200180831161075657829003601f168201915b50505050509080600101805461078890612dbf565b80601f01602080910402602001604051908101604052809291908181526020018280546107b490612dbf565b80156108015780601f106107d657610100808354040283529160200191610801565b820191906000526020600020905b8154815290600101906020018083116107e457829003601f168201915b50505050509080600201805461081690612dbf565b80601f016020809104026020016040519081016040528092919081815260200182805461084290612dbf565b801561088f5780601f106108645761010080835404028352916020019161088f565b820191906000526020600020905b81548152906001019060200180831161087257829003601f168201915b5050505050908060030160009054906101000a900460ff16908060040154908060050154908060060160009054906101000a900473ffffffffffffffffffffffffffffffffffffffff16908060060160149054906101000a900460ff16908060060160159054906101000a900460ff16908060060160169054906101000a900460ff16908060070160009054906101000a900473ffffffffffffffffffffffffffffffffffffffff1690508b565b6000600260008373ffffffffffffffffffffffffffffffffffffffff1673ffffffffffffffffffffffffffffffffffffffff16815260200190815260200160002060060160149054906101000a900460ff169050919050565b3373ffffffffffffffffffffffffffffffffffffffff16600260008373ffffffffffffffffffffffffffffffffffffffff1673ffffffffffffffffffffffffffffffffffffffff16815260200190815260200160002060070160009054906101000a900473ffffffffffffffffffffffffffffffffffffffff1673ffffffffffffffffffffffffffffffffffffffff1614610a66576040517f08c379a0000000000000000000000000000000000000000000000000000000008152600401610a5d90612d70565b60405180910390fd5b6001600260008373ffffffffffffffffffffffffffffffffffffffff1673ffffffffffffffffffffffffffffffffffffffff16815260200190815260200160002060060160156101000a81548160ff02191690831515021790555050565b60006020528060005260406000206000915054906101000a900473ffffffffffffffffffffffffffffffffffffffff1681565b3373ffffffffffffffffffffffffffffffffffffffff16600260008373ffffffffffffffffffffffffffffffffffffffff1673ffffffffffffffffffffffffffffffffffffffff16815260200190815260200160002060070160009054906101000a900473ffffffffffffffffffffffffffffffffffffffff1673ffffffffffffffffffffffffffffffffffffffff1614610bc7576040517f08c379a0000000000000000000000000000000000000000000000000000000008152600401610bbe90612d70565b60405180910390fd5b6000600260008373ffffffffffffffffffffffffffffffffffffffff1673ffffffffffffffffffffffffffffffffffffffff16815260200190815260200160002060060160156101000a81548160ff02191690831515021790555050565b7f000000000000000000000000000000000000000000000000000000000000000081565b7f000000000000000000000000000000000000000000000000000000000000000081565b600073ffffffffffffffffffffffffffffffffffffffff166000808360c0015173ffffffffffffffffffffffffffffffffffffffff1673ffffffffffffffffffffffffffffffffffffffff16815260200190815260200160002060009054906101000a900473ffffffffffffffffffffffffffffffffffffffff1673ffffffffffffffffffffffffffffffffffffffff1603610d0857600080fd5b60008160e0019015159081151581525050600081610100019015159081151581525050600181610120019015159081151581525050600260008260c0015173ffffffffffffffffffffffffffffffffffffffff1673ffffffffffffffffffffffffffffffffffffffff16815260200190815260200160002060070160009054906101000a900473ffffffffffffffffffffffffffffffffffffffff1681610140019073ffffffffffffffffffffffffffffffffffffffff16908173ffffffffffffffffffffffffffffffffffffffff168152505080600260008360c0015173ffffffffffffffffffffffffffffffffffffffff1673ffffffffffffffffffffffffffffffffffffffff1681526020019081526020016000206000820151816000019081610e359190612f9c565b506020820151816001019081610e4b9190612f9c565b506040820151816002019081610e619190612f9c565b5060608201518160030160006101000a81548160ff021916908360ff1602179055506080820151816004015560a0820151816005015560c08201518160060160006101000a81548173ffffffffffffffffffffffffffffffffffffffff021916908373ffffffffffffffffffffffffffffffffffffffff16021790555060e08201518160060160146101000a81548160ff0219169083151502179055506101008201518160060160156101000a81548160ff0219169083151502179055506101208201518160060160166101000a81548160ff0219169083151502179055506101408201518160070160006101000a81548173ffffffffffffffffffffffffffffffffffffffff021916908373ffffffffffffffffffffffffffffffffffffffff16021790555090505050565b600073ffffffffffffffffffffffffffffffffffffffff166000808373ffffffffffffffffffffffffffffffffffffffff1673ffffffffffffffffffffffffffffffffffffffff16815260200190815260200160002060009054906101000a900473ffffffffffffffffffffffffffffffffffffffff1673ffffffffffffffffffffffffffffffffffffffff160361105b576040517f08c379a0000000000000000000000000000000000000000000000000000000008152600401611052906130ba565b60405180910390fd5b6000808273ffffffffffffffffffffffffffffffffffffffff1673ffffffffffffffffffffffffffffffffffffffff16815260200190815260200160002060006101000a81549073ffffffffffffffffffffffffffffffffffffffff021916905550565b60011515600260008360c0015173ffffffffffffffffffffffffffffffffffffffff1673ffffffffffffffffffffffffffffffffffffffff16815260200190815260200160002060060160169054906101000a900460ff16151514611403573381610140019073ffffffffffffffffffffffffffffffffffffffff16908173ffffffffffffffffffffffffffffffffffffffff168152505060008160e001901515908115158152505060008161010001901515908115158152505060018161012001901515908115158152505080600260008360c0015173ffffffffffffffffffffffffffffffffffffffff1673ffffffffffffffffffffffffffffffffffffffff16815260200190815260200160002060008201518160000190816111e59190612f9c565b5060208201518160010190816111fb9190612f9c565b5060408201518160020190816112119190612f9c565b5060608201518160030160006101000a81548160ff021916908360ff1602179055506080820151816004015560a0820151816005015560c08201518160060160006101000a81548173ffffffffffffffffffffffffffffffffffffffff021916908373ffffffffffffffffffffffffffffffffffffffff16021790555060e08201518160060160146101000a81548160ff0219169083151502179055506101008201518160060160156101000a81548160ff0219169083151502179055506101208201518160060160166101000a81548160ff0219169083151502179055506101408201518160070160006101000a81548173ffffffffffffffffffffffffffffffffffffffff021916908373ffffffffffffffffffffffffffffffffffffffff1602179055509050508060c00151600160003373ffffffffffffffffffffffffffffffffffffffff1673ffffffffffffffffffffffffffffffffffffffff16815260200190815260200160002060008360c0015173ffffffffffffffffffffffffffffffffffffffff1673ffffffffffffffffffffffffffffffffffffffff16815260200190815260200160002060006101000a81548173ffffffffffffffffffffffffffffffffffffffff021916908373ffffffffffffffffffffffffffffffffffffffff1602179055506116a7565b600073ffffffffffffffffffffffffffffffffffffffff166000808360c0015173ffffffffffffffffffffffffffffffffffffffff1673ffffffffffffffffffffffffffffffffffffffff16815260200190815260200160002060009054906101000a900473ffffffffffffffffffffffffffffffffffffffff1673ffffffffffffffffffffffffffffffffffffffff16146114d4576040517f08c379a00000000000000000000000000000000000000000000000000000000081526004016114cb90613126565b60405180910390fd5b600073ffffffffffffffffffffffffffffffffffffffff16600160003373ffffffffffffffffffffffffffffffffffffffff1673ffffffffffffffffffffffffffffffffffffffff16815260200190815260200160002060008360c0015173ffffffffffffffffffffffffffffffffffffffff1673ffffffffffffffffffffffffffffffffffffffff16815260200190815260200160002060009054906101000a900473ffffffffffffffffffffffffffffffffffffffff1673ffffffffffffffffffffffffffffffffffffffff16146115e3576040517f08c379a00000000000000000000000000000000000000000000000000000000081526004016115da90613192565b60405180910390fd5b8060c00151600160003373ffffffffffffffffffffffffffffffffffffffff1673ffffffffffffffffffffffffffffffffffffffff16815260200190815260200160002060008360c0015173ffffffffffffffffffffffffffffffffffffffff1673ffffffffffffffffffffffffffffffffffffffff16815260200190815260200160002060006101000a81548173ffffffffffffffffffffffffffffffffffffffff021916908373ffffffffffffffffffffffffffffffffffffffff1602179055505b50565b6000600260008373ffffffffffffffffffffffffffffffffffffffff1673ffffffffffffffffffffffffffffffffffffffff16815260200190815260200160002060060160146101000a81548160ff02191690831515021790555050565b60011515600260008360c0015173ffffffffffffffffffffffffffffffffffffffff1673ffffffffffffffffffffffffffffffffffffffff16815260200190815260200160002060060160169054906101000a900460ff16151514611a0e573381610140019073ffffffffffffffffffffffffffffffffffffffff16908173ffffffffffffffffffffffffffffffffffffffff168152505060008160e001901515908115158152505060008161010001901515908115158152505060018161012001901515908115158152505080600260008360c0015173ffffffffffffffffffffffffffffffffffffffff1673ffffffffffffffffffffffffffffffffffffffff168152602001908152602001600020600082015181600001908161182e9190612f9c565b5060208201518160010190816118449190612f9c565b50604082015181600201908161185a9190612f9c565b5060608201518160030160006101000a81548160ff021916908360ff1602179055506080820151816004015560a0820151816005015560c08201518160060160006101000a81548173ffffffffffffffffffffffffffffffffffffffff021916908373ffffffffffffffffffffffffffffffffffffffff16021790555060e08201518160060160146101000a81548160ff0219169083151502179055506101008201518160060160156101000a81548160ff0219169083151502179055506101208201518160060160166101000a81548160ff0219169083151502179055506101408201518160070160006101000a81548173ffffffffffffffffffffffffffffffffffffffff021916908373ffffffffffffffffffffffffffffffffffffffff1602179055509050508060c001516000808360c0015173ffffffffffffffffffffffffffffffffffffffff1673ffffffffffffffffffffffffffffffffffffffff16815260200190815260200160002060006101000a81548173ffffffffffffffffffffffffffffffffffffffff021916908373ffffffffffffffffffffffffffffffffffffffff160217905550611b65565b600073ffffffffffffffffffffffffffffffffffffffff166000808360c0015173ffffffffffffffffffffffffffffffffffffffff1673ffffffffffffffffffffffffffffffffffffffff16815260200190815260200160002060009054906101000a900473ffffffffffffffffffffffffffffffffffffffff1673ffffffffffffffffffffffffffffffffffffffff1614611adf576040517f08c379a0000000000000000000000000000000000000000000000000000000008152600401611ad690613126565b60405180910390fd5b8060c001516000808360c0015173ffffffffffffffffffffffffffffffffffffffff1673ffffffffffffffffffffffffffffffffffffffff16815260200190815260200160002060006101000a81548173ffffffffffffffffffffffffffffffffffffffff021916908373ffffffffffffffffffffffffffffffffffffffff1602179055505b50565b60016020528160005260406000206020528060005260406000206000915091509054906101000a900473ffffffffffffffffffffffffffffffffffffffff1681565b600073ffffffffffffffffffffffffffffffffffffffff16600160008373ffffffffffffffffffffffffffffffffffffffff1673ffffffffffffffffffffffffffffffffffffffff16815260200190815260200160002060008473ffffffffffffffffffffffffffffffffffffffff1673ffffffffffffffffffffffffffffffffffffffff16815260200190815260200160002060009054906101000a900473ffffffffffffffffffffffffffffffffffffffff1673ffffffffffffffffffffffffffffffffffffffff1603611cb5576040517f08c379a0000000000000000000000000000000000000000000000000000000008152600401611cac906130ba565b60405180910390fd5b600073ffffffffffffffffffffffffffffffffffffffff166000808473ffffffffffffffffffffffffffffffffffffffff1673ffffffffffffffffffffffffffffffffffffffff16815260200190815260200160002060009054906101000a900473ffffffffffffffffffffffffffffffffffffffff1673ffffffffffffffffffffffffffffffffffffffff1614611d82576040517f08c379a0000000000000000000000000000000000000000000000000000000008152600401611d79906131fe565b60405180910390fd5b600160008273ffffffffffffffffffffffffffffffffffffffff1673ffffffffffffffffffffffffffffffffffffffff16815260200190815260200160002060008373ffffffffffffffffffffffffffffffffffffffff1673ffffffffffffffffffffffffffffffffffffffff16815260200190815260200160002060009054906101000a900473ffffffffffffffffffffffffffffffffffffffff166000808473ffffffffffffffffffffffffffffffffffffffff1673ffffffffffffffffffffffffffffffffffffffff16815260200190815260200160002060006101000a81548173ffffffffffffffffffffffffffffffffffffffff021916908373ffffffffffffffffffffffffffffffffffffffff160217905550600160008273ffffffffffffffffffffffffffffffffffffffff1673ffffffffffffffffffffffffffffffffffffffff16815260200190815260200160002060008373ffffffffffffffffffffffffffffffffffffffff1673ffffffffffffffffffffffffffffffffffffffff16815260200190815260200160002060006101000a81549073ffffffffffffffffffffffffffffffffffffffff02191690555050565b611f466124c0565b60011515600260008473ffffffffffffffffffffffffffffffffffffffff1673ffffffffffffffffffffffffffffffffffffffff16815260200190815260200160002060060160169054906101000a900460ff16151514611fdc576040517f08c379a0000000000000000000000000000000000000000000000000000000008152600401611fd3906130ba565b60405180910390fd5b600260008373ffffffffffffffffffffffffffffffffffffffff1673ffffffffffffffffffffffffffffffffffffffff1681526020019081526020016000206040518061016001604052908160008201805461203790612dbf565b80601f016020809104026020016040519081016040528092919081815260200182805461206390612dbf565b80156120b05780601f10612085576101008083540402835291602001916120b0565b820191906000526020600020905b81548152906001019060200180831161209357829003601f168201915b505050505081526020016001820180546120c990612dbf565b80601f01602080910402602001604051908101604052809291908181526020018280546120f590612dbf565b80156121425780601f1061211757610100808354040283529160200191612142565b820191906000526020600020905b81548152906001019060200180831161212557829003601f168201915b5050505050815260200160028201805461215b90612dbf565b80601f016020809104026020016040519081016040528092919081815260200182805461218790612dbf565b80156121d45780601f106121a9576101008083540402835291602001916121d4565b820191906000526020600020905b8154815290600101906020018083116121b757829003601f168201915b505050505081526020016003820160009054906101000a900460ff1660ff1660ff16815260200160048201548152602001600582015481526020016006820160009054906101000a900473ffffffffffffffffffffffffffffffffffffffff1673ffffffffffffffffffffffffffffffffffffffff1673ffffffffffffffffffffffffffffffffffffffff1681526020016006820160149054906101000a900460ff161515151581526020016006820160159054906101000a900460ff161515151581526020016006820160169054906101000a900460ff161515151581526020016007820160009054906101000a900473ffffffffffffffffffffffffffffffffffffffff1673ffffffffffffffffffffffffffffffffffffffff1673ffffffffffffffffffffffffffffffffffffffff16815250509050919050565b600073ffffffffffffffffffffffffffffffffffffffff16600160008373ffffffffffffffffffffffffffffffffffffffff1673ffffffffffffffffffffffffffffffffffffffff16815260200190815260200160002060008473ffffffffffffffffffffffffffffffffffffffff1673ffffffffffffffffffffffffffffffffffffffff16815260200190815260200160002060009054906101000a900473ffffffffffffffffffffffffffffffffffffffff1673ffffffffffffffffffffffffffffffffffffffff161461241d576040517f08c379a0000000000000000000000000000000000000000000000000000000008152600401612414906130ba565b60405180910390fd5b600160008273ffffffffffffffffffffffffffffffffffffffff1673ffffffffffffffffffffffffffffffffffffffff16815260200190815260200160002060008373ffffffffffffffffffffffffffffffffffffffff1673ffffffffffffffffffffffffffffffffffffffff16815260200190815260200160002060006101000a81549073ffffffffffffffffffffffffffffffffffffffff02191690555050565b604051806101600160405280606081526020016060815260200160608152602001600060ff1681526020016000815260200160008152602001600073ffffffffffffffffffffffffffffffffffffffff168152602001600015158152602001600015158152602001600015158152602001600073ffffffffffffffffffffffffffffffffffffffff1681525090565b6000604051905090565b600080fd5b600080fd5b600073ffffffffffffffffffffffffffffffffffffffff82169050919050565b600061258e82612563565b9050919050565b61259e81612583565b81146125a957600080fd5b50565b6000813590506125bb81612595565b92915050565b6000602082840312156125d7576125d6612559565b5b60006125e5848285016125ac565b91505092915050565b600080fd5b6000601f19601f8301169050919050565b7f4e487b7100000000000000000000000000000000000000000000000000000000600052604160045260246000fd5b61263c826125f3565b810181811067ffffffffffffffff8211171561265b5761265a612604565b5b80604052505050565b600061266e61254f565b905061267a8282612633565b919050565b600080fd5b600080fd5b600080fd5b600067ffffffffffffffff8211156126a9576126a8612604565b5b6126b2826125f3565b9050602081019050919050565b82818337600083830152505050565b60006126e16126dc8461268e565b612664565b9050828152602081018484840111156126fd576126fc612689565b5b6127088482856126bf565b509392505050565b600082601f83011261272557612724612684565b5b81356127358482602086016126ce565b91505092915050565b600060ff82169050919050565b6127548161273e565b811461275f57600080fd5b50565b6000813590506127718161274b565b92915050565b6000819050919050565b61278a81612777565b811461279557600080fd5b50565b6000813590506127a781612781565b92915050565b60008115159050919050565b6127c2816127ad565b81146127cd57600080fd5b50565b6000813590506127df816127b9565b92915050565b600061016082840312156127fc576127fb6125ee565b5b612807610160612664565b9050600082013567ffffffffffffffff8111156128275761282661267f565b5b61283384828501612710565b600083015250602082013567ffffffffffffffff8111156128575761285661267f565b5b61286384828501612710565b602083015250604082013567ffffffffffffffff8111156128875761288661267f565b5b61289384828501612710565b60408301525060606128a784828501612762565b60608301525060806128bb84828501612798565b60808301525060a06128cf84828501612798565b60a08301525060c06128e3848285016125ac565b60c08301525060e06128f7848285016127d0565b60e08301525061010061290c848285016127d0565b61010083015250610120612922848285016127d0565b61012083015250610140612938848285016125ac565b6101408301525092915050565b60006020828403121561295b5761295a612559565b5b600082013567ffffffffffffffff8111156129795761297861255e565b5b612985848285016127e5565b91505092915050565b600081519050919050565b600082825260208201905092915050565b60005b838110156129c85780820151818401526020810190506129ad565b60008484015250505050565b60006129df8261298e565b6129e98185612999565b93506129f98185602086016129aa565b612a02816125f3565b840191505092915050565b612a168161273e565b82525050565b612a2581612777565b82525050565b612a3481612583565b82525050565b612a43816127ad565b82525050565b6000610160820190508181036000830152612a64818e6129d4565b90508181036020830152612a78818d6129d4565b90508181036040830152612a8c818c6129d4565b9050612a9b606083018b612a0d565b612aa8608083018a612a1c565b612ab560a0830189612a1c565b612ac260c0830188612a2b565b612acf60e0830187612a3a565b612add610100830186612a3a565b612aeb610120830185612a3a565b612af9610140830184612a2b565b9c9b505050505050505050505050565b6000602082019050612b1e6000830184612a3a565b92915050565b6000602082019050612b396000830184612a2b565b92915050565b60008060408385031215612b5657612b55612559565b5b6000612b64858286016125ac565b9250506020612b75858286016125ac565b9150509250929050565b600082825260208201905092915050565b6000612b9b8261298e565b612ba58185612b7f565b9350612bb58185602086016129aa565b612bbe816125f3565b840191505092915050565b612bd28161273e565b82525050565b612be181612777565b82525050565b612bf081612583565b82525050565b612bff816127ad565b82525050565b6000610160830160008301518482036000860152612c238282612b90565b91505060208301518482036020860152612c3d8282612b90565b91505060408301518482036040860152612c578282612b90565b9150506060830151612c6c6060860182612bc9565b506080830151612c7f6080860182612bd8565b5060a0830151612c9260a0860182612bd8565b5060c0830151612ca560c0860182612be7565b5060e0830151612cb860e0860182612bf6565b50610100830151612ccd610100860182612bf6565b50610120830151612ce2610120860182612bf6565b50610140830151612cf7610140860182612be7565b508091505092915050565b60006020820190508181036000830152612d1c8184612c05565b905092915050565b7f796f752068617665206e6f742074686520726967687400000000000000000000600082015250565b6000612d5a601683612999565b9150612d6582612d24565b602082019050919050565b60006020820190508181036000830152612d8981612d4d565b9050919050565b7f4e487b7100000000000000000000000000000000000000000000000000000000600052602260045260246000fd5b60006002820490506001821680612dd757607f821691505b602082108103612dea57612de9612d90565b5b50919050565b60008190508160005260206000209050919050565b60006020601f8301049050919050565b600082821b905092915050565b600060088302612e527fffffffffffffffffffffffffffffffffffffffffffffffffffffffffffffffff82612e15565b612e5c8683612e15565b95508019841693508086168417925050509392505050565b6000819050919050565b6000612e99612e94612e8f84612777565b612e74565b612777565b9050919050565b6000819050919050565b612eb383612e7e565b612ec7612ebf82612ea0565b848454612e22565b825550505050565b600090565b612edc612ecf565b612ee7818484612eaa565b505050565b5b81811015612f0b57612f00600082612ed4565b600181019050612eed565b5050565b601f821115612f5057612f2181612df0565b612f2a84612e05565b81016020851015612f39578190505b612f4d612f4585612e05565b830182612eec565b50505b505050565b600082821c905092915050565b6000612f7360001984600802612f55565b1980831691505092915050565b6000612f8c8383612f62565b9150826002028217905092915050565b612fa58261298e565b67ffffffffffffffff811115612fbe57612fbd612604565b5b612fc88254612dbf565b612fd3828285612f0f565b600060209050601f8311600181146130065760008415612ff4578287015190505b612ffe8582612f80565b865550613066565b601f19841661301486612df0565b60005b8281101561303c57848901518255600182019150602085019450602081019050613017565b868310156130595784890151613055601f891682612f62565b8355505b6001600288020188555050505b505050505050565b7f74686520636f696e206973206e6f742065786973747300000000000000000000600082015250565b60006130a4601683612999565b91506130af8261306e565b602082019050919050565b600060208201905081810360008301526130d381613097565b9050919050565b7f74686520636f696e2065786973747320696e20746865206d61726b6574000000600082015250565b6000613110601d83612999565b915061311b826130da565b602082019050919050565b6000602082019050818103600083015261313f81613103565b9050919050565b7f74686520636f696e2065786973747320696e2074686520676174650000000000600082015250565b600061317c601b83612999565b915061318782613146565b602082019050919050565b600060208201905081810360008301526131ab8161316f565b9050919050565b7f74686520636f696e206973202065786973747320696e206d61726b6574000000600082015250565b60006131e8601d83612999565b91506131f3826131b2565b602082019050919050565b60006020820190508181036000830152613217816131db565b905091905056fea2646970667358221220a5db2d660076259af33f334c758d98c890d08221ca0871701394f8fda3610bbc64736f6c63430008120033",
					"opcodes": "PUSH1 0xC0 PUSH1 0x40 MSTORE CALLVALUE DUP1 ISZERO PUSH3 0x11 JUMPI PUSH1 0x0 DUP1 REVERT JUMPDEST POP PUSH1 0x40 MLOAD PUSH3 0x33D2 CODESIZE SUB DUP1 PUSH3 0x33D2 DUP4 CODECOPY DUP2 DUP2 ADD PUSH1 0x40 MSTORE DUP2 ADD SWAP1 PUSH3 0x37 SWAP2 SWAP1 PUSH3 0x111 JUMP JUMPDEST DUP2 PUSH20 0xFFFFFFFFFFFFFFFFFFFFFFFFFFFFFFFFFFFFFFFF AND PUSH1 0x80 DUP2 PUSH20 0xFFFFFFFFFFFFFFFFFFFFFFFFFFFFFFFFFFFFFFFF AND DUP2 MSTORE POP POP DUP1 PUSH20 0xFFFFFFFFFFFFFFFFFFFFFFFFFFFFFFFFFFFFFFFF AND PUSH1 0xA0 DUP2 PUSH20 0xFFFFFFFFFFFFFFFFFFFFFFFFFFFFFFFFFFFFFFFF AND DUP2 MSTORE POP POP POP POP PUSH3 0x158 JUMP JUMPDEST PUSH1 0x0 DUP1 REVERT JUMPDEST PUSH1 0x0 PUSH20 0xFFFFFFFFFFFFFFFFFFFFFFFFFFFFFFFFFFFFFFFF DUP3 AND SWAP1 POP SWAP2 SWAP1 POP JUMP JUMPDEST PUSH1 0x0 PUSH3 0xD9 DUP3 PUSH3 0xAC JUMP JUMPDEST SWAP1 POP SWAP2 SWAP1 POP JUMP JUMPDEST PUSH3 0xEB DUP2 PUSH3 0xCC JUMP JUMPDEST DUP2 EQ PUSH3 0xF7 JUMPI PUSH1 0x0 DUP1 REVERT JUMPDEST POP JUMP JUMPDEST PUSH1 0x0 DUP2 MLOAD SWAP1 POP PUSH3 0x10B DUP2 PUSH3 0xE0 JUMP JUMPDEST SWAP3 SWAP2 POP POP JUMP JUMPDEST PUSH1 0x0 DUP1 PUSH1 0x40 DUP4 DUP6 SUB SLT ISZERO PUSH3 0x12B JUMPI PUSH3 0x12A PUSH3 0xA7 JUMP JUMPDEST JUMPDEST PUSH1 0x0 PUSH3 0x13B DUP6 DUP3 DUP7 ADD PUSH3 0xFA JUMP JUMPDEST SWAP3 POP POP PUSH1 0x20 PUSH3 0x14E DUP6 DUP3 DUP7 ADD PUSH3 0xFA JUMP JUMPDEST SWAP2 POP POP SWAP3 POP SWAP3 SWAP1 POP JUMP JUMPDEST PUSH1 0x80 MLOAD PUSH1 0xA0 MLOAD PUSH2 0x3254 PUSH3 0x17E PUSH1 0x0 CODECOPY PUSH1 0x0 PUSH2 0xC4B ADD MSTORE PUSH1 0x0 PUSH2 0xC27 ADD MSTORE PUSH2 0x3254 PUSH1 0x0 RETURN INVALID PUSH1 0x80 PUSH1 0x40 MSTORE CALLVALUE DUP1 ISZERO PUSH2 0x10 JUMPI PUSH1 0x0 DUP1 REVERT JUMPDEST POP PUSH1 0x4 CALLDATASIZE LT PUSH2 0x116 JUMPI PUSH1 0x0 CALLDATALOAD PUSH1 0xE0 SHR DUP1 PUSH4 0x550FB4BA GT PUSH2 0xA2 JUMPI DUP1 PUSH4 0xB73436FD GT PUSH2 0x71 JUMPI DUP1 PUSH4 0xB73436FD EQ PUSH2 0x2D1 JUMPI DUP1 PUSH4 0xCC0BF757 EQ PUSH2 0x2ED JUMPI DUP1 PUSH4 0xCFCDCA52 EQ PUSH2 0x31D JUMPI DUP1 PUSH4 0xE8DD4655 EQ PUSH2 0x339 JUMPI DUP1 PUSH4 0xEAEC0112 EQ PUSH2 0x369 JUMPI PUSH2 0x116 JUMP JUMPDEST DUP1 PUSH4 0x550FB4BA EQ PUSH2 0x261 JUMPI DUP1 PUSH4 0x7C3E2F02 EQ PUSH2 0x27D JUMPI DUP1 PUSH4 0xA3967D0D EQ PUSH2 0x299 JUMPI DUP1 PUSH4 0xB20BE2B4 EQ PUSH2 0x2B5 JUMPI PUSH2 0x116 JUMP JUMPDEST DUP1 PUSH4 0x385E4B7A GT PUSH2 0xE9 JUMPI DUP1 PUSH4 0x385E4B7A EQ PUSH2 0x1BD JUMPI DUP1 PUSH4 0x3B830305 EQ PUSH2 0x1D9 JUMPI DUP1 PUSH4 0x441EB548 EQ PUSH2 0x209 JUMPI DUP1 PUSH4 0x47D0A634 EQ PUSH2 0x225 JUMPI DUP1 PUSH4 0x492B7107 EQ PUSH2 0x243 JUMPI PUSH2 0x116 JUMP JUMPDEST DUP1 PUSH4 0x1D3B8F67 EQ PUSH2 0x11B JUMPI DUP1 PUSH4 0x2A9F659C EQ PUSH2 0x137 JUMPI DUP1 PUSH4 0x31ECDEB8 EQ PUSH2 0x153 JUMPI DUP1 PUSH4 0x328320BF EQ PUSH2 0x18D JUMPI JUMPDEST PUSH1 0x0 DUP1 REVERT JUMPDEST PUSH2 0x135 PUSH1 0x4 DUP1 CALLDATASIZE SUB DUP2 ADD SWAP1 PUSH2 0x130 SWAP2 SWAP1 PUSH2 0x25C1 JUMP JUMPDEST PUSH2 0x385 JUMP JUMPDEST STOP JUMPDEST PUSH2 0x151 PUSH1 0x4 DUP1 CALLDATASIZE SUB DUP2 ADD SWAP1 PUSH2 0x14C SWAP2 SWAP1 PUSH2 0x2945 JUMP JUMPDEST PUSH2 0x3E3 JUMP JUMPDEST STOP JUMPDEST PUSH2 0x16D PUSH1 0x4 DUP1 CALLDATASIZE SUB DUP2 ADD SWAP1 PUSH2 0x168 SWAP2 SWAP1 PUSH2 0x25C1 JUMP JUMPDEST PUSH2 0x6D7 JUMP JUMPDEST PUSH1 0x40 MLOAD PUSH2 0x184 SWAP12 SWAP11 SWAP10 SWAP9 SWAP8 SWAP7 SWAP6 SWAP5 SWAP4 SWAP3 SWAP2 SWAP1 PUSH2 0x2A49 JUMP JUMPDEST PUSH1 0x40 MLOAD DUP1 SWAP2 SUB SWAP1 RETURN JUMPDEST PUSH2 0x1A7 PUSH1 0x4 DUP1 CALLDATASIZE SUB DUP2 ADD SWAP1 PUSH2 0x1A2 SWAP2 SWAP1 PUSH2 0x25C1 JUMP JUMPDEST PUSH2 0x93D JUMP JUMPDEST PUSH1 0x40 MLOAD PUSH2 0x1B4 SWAP2 SWAP1 PUSH2 0x2B09 JUMP JUMPDEST PUSH1 0x40 MLOAD DUP1 SWAP2 SUB SWAP1 RETURN JUMPDEST PUSH2 0x1D7 PUSH1 0x4 DUP1 CALLDATASIZE SUB DUP2 ADD SWAP1 PUSH2 0x1D2 SWAP2 SWAP1 PUSH2 0x25C1 JUMP JUMPDEST PUSH2 0x996 JUMP JUMPDEST STOP JUMPDEST PUSH2 0x1F3 PUSH1 0x4 DUP1 CALLDATASIZE SUB DUP2 ADD SWAP1 PUSH2 0x1EE SWAP2 SWAP1 PUSH2 0x25C1 JUMP JUMPDEST PUSH2 0xAC4 JUMP JUMPDEST PUSH1 0x40 MLOAD PUSH2 0x200 SWAP2 SWAP1 PUSH2 0x2B24 JUMP JUMPDEST PUSH1 0x40 MLOAD DUP1 SWAP2 SUB SWAP1 RETURN JUMPDEST PUSH2 0x223 PUSH1 0x4 DUP1 CALLDATASIZE SUB DUP2 ADD SWAP1 PUSH2 0x21E SWAP2 SWAP1 PUSH2 0x25C1 JUMP JUMPDEST PUSH2 0xAF7 JUMP JUMPDEST STOP JUMPDEST PUSH2 0x22D PUSH2 0xC25 JUMP JUMPDEST PUSH1 0x40 MLOAD PUSH2 0x23A SWAP2 SWAP1 PUSH2 0x2B24 JUMP JUMPDEST PUSH1 0x40 MLOAD DUP1 SWAP2 SUB SWAP1 RETURN JUMPDEST PUSH2 0x24B PUSH2 0xC49 JUMP JUMPDEST PUSH1 0x40 MLOAD PUSH2 0x258 SWAP2 SWAP1 PUSH2 0x2B24 JUMP JUMPDEST PUSH1 0x40 MLOAD DUP1 SWAP2 SUB SWAP1 RETURN JUMPDEST PUSH2 0x27B PUSH1 0x4 DUP1 CALLDATASIZE SUB DUP2 ADD SWAP1 PUSH2 0x276 SWAP2 SWAP1 PUSH2 0x2945 JUMP JUMPDEST PUSH2 0xC6D JUMP JUMPDEST STOP JUMPDEST PUSH2 0x297 PUSH1 0x4 DUP1 CALLDATASIZE SUB DUP2 ADD SWAP1 PUSH2 0x292 SWAP2 SWAP1 PUSH2 0x25C1 JUMP JUMPDEST PUSH2 0xF8E JUMP JUMPDEST STOP JUMPDEST PUSH2 0x2B3 PUSH1 0x4 DUP1 CALLDATASIZE SUB DUP2 ADD SWAP1 PUSH2 0x2AE SWAP2 SWAP1 PUSH2 0x2945 JUMP JUMPDEST PUSH2 0x10BF JUMP JUMPDEST STOP JUMPDEST PUSH2 0x2CF PUSH1 0x4 DUP1 CALLDATASIZE SUB DUP2 ADD SWAP1 PUSH2 0x2CA SWAP2 SWAP1 PUSH2 0x25C1 JUMP JUMPDEST PUSH2 0x16AA JUMP JUMPDEST STOP JUMPDEST PUSH2 0x2EB PUSH1 0x4 DUP1 CALLDATASIZE SUB DUP2 ADD SWAP1 PUSH2 0x2E6 SWAP2 SWAP1 PUSH2 0x2945 JUMP JUMPDEST PUSH2 0x1708 JUMP JUMPDEST STOP JUMPDEST PUSH2 0x307 PUSH1 0x4 DUP1 CALLDATASIZE SUB DUP2 ADD SWAP1 PUSH2 0x302 SWAP2 SWAP1 PUSH2 0x2B3F JUMP JUMPDEST PUSH2 0x1B68 JUMP JUMPDEST PUSH1 0x40 MLOAD PUSH2 0x314 SWAP2 SWAP1 PUSH2 0x2B24 JUMP JUMPDEST PUSH1 0x40 MLOAD DUP1 SWAP2 SUB SWAP1 RETURN JUMPDEST PUSH2 0x337 PUSH1 0x4 DUP1 CALLDATASIZE SUB DUP2 ADD SWAP1 PUSH2 0x332 SWAP2 SWAP1 PUSH2 0x2B3F JUMP JUMPDEST PUSH2 0x1BAA JUMP JUMPDEST STOP JUMPDEST PUSH2 0x353 PUSH1 0x4 DUP1 CALLDATASIZE SUB DUP2 ADD SWAP1 PUSH2 0x34E SWAP2 SWAP1 PUSH2 0x25C1 JUMP JUMPDEST PUSH2 0x1F3E JUMP JUMPDEST PUSH1 0x40 MLOAD PUSH2 0x360 SWAP2 SWAP1 PUSH2 0x2D02 JUMP JUMPDEST PUSH1 0x40 MLOAD DUP1 SWAP2 SUB SWAP1 RETURN JUMPDEST PUSH2 0x383 PUSH1 0x4 DUP1 CALLDATASIZE SUB DUP2 ADD SWAP1 PUSH2 0x37E SWAP2 SWAP1 PUSH2 0x2B3F JUMP JUMPDEST PUSH2 0x2312 JUMP JUMPDEST STOP JUMPDEST PUSH1 0x1 PUSH1 0x2 PUSH1 0x0 DUP4 PUSH20 0xFFFFFFFFFFFFFFFFFFFFFFFFFFFFFFFFFFFFFFFF AND PUSH20 0xFFFFFFFFFFFFFFFFFFFFFFFFFFFFFFFFFFFFFFFF AND DUP2 MSTORE PUSH1 0x20 ADD SWAP1 DUP2 MSTORE PUSH1 0x20 ADD PUSH1 0x0 KECCAK256 PUSH1 0x6 ADD PUSH1 0x14 PUSH2 0x100 EXP DUP2 SLOAD DUP2 PUSH1 0xFF MUL NOT AND SWAP1 DUP4 ISZERO ISZERO MUL OR SWAP1 SSTORE POP POP JUMP JUMPDEST CALLER PUSH20 0xFFFFFFFFFFFFFFFFFFFFFFFFFFFFFFFFFFFFFFFF AND PUSH1 0x2 PUSH1 0x0 DUP4 PUSH1 0xC0 ADD MLOAD PUSH20 0xFFFFFFFFFFFFFFFFFFFFFFFFFFFFFFFFFFFFFFFF AND PUSH20 0xFFFFFFFFFFFFFFFFFFFFFFFFFFFFFFFFFFFFFFFF AND DUP2 MSTORE PUSH1 0x20 ADD SWAP1 DUP2 MSTORE PUSH1 0x20 ADD PUSH1 0x0 KECCAK256 PUSH1 0x7 ADD PUSH1 0x0 SWAP1 SLOAD SWAP1 PUSH2 0x100 EXP SWAP1 DIV PUSH20 0xFFFFFFFFFFFFFFFFFFFFFFFFFFFFFFFFFFFFFFFF AND PUSH20 0xFFFFFFFFFFFFFFFFFFFFFFFFFFFFFFFFFFFFFFFF AND EQ PUSH2 0x4B7 JUMPI PUSH1 0x40 MLOAD PUSH32 0x8C379A000000000000000000000000000000000000000000000000000000000 DUP2 MSTORE PUSH1 0x4 ADD PUSH2 0x4AE SWAP1 PUSH2 0x2D70 JUMP JUMPDEST PUSH1 0x40 MLOAD DUP1 SWAP2 SUB SWAP1 REVERT JUMPDEST PUSH1 0x0 DUP2 PUSH1 0xE0 ADD SWAP1 ISZERO ISZERO SWAP1 DUP2 ISZERO ISZERO DUP2 MSTORE POP POP PUSH1 0x0 DUP2 PUSH2 0x100 ADD SWAP1 ISZERO ISZERO SWAP1 DUP2 ISZERO ISZERO DUP2 MSTORE POP POP PUSH1 0x1 DUP2 PUSH2 0x120 ADD SWAP1 ISZERO ISZERO SWAP1 DUP2 ISZERO ISZERO DUP2 MSTORE POP POP CALLER DUP2 PUSH2 0x140 ADD SWAP1 PUSH20 0xFFFFFFFFFFFFFFFFFFFFFFFFFFFFFFFFFFFFFFFF AND SWAP1 DUP2 PUSH20 0xFFFFFFFFFFFFFFFFFFFFFFFFFFFFFFFFFFFFFFFF AND DUP2 MSTORE POP POP DUP1 PUSH1 0x2 PUSH1 0x0 DUP4 PUSH1 0xC0 ADD MLOAD PUSH20 0xFFFFFFFFFFFFFFFFFFFFFFFFFFFFFFFFFFFFFFFF AND PUSH20 0xFFFFFFFFFFFFFFFFFFFFFFFFFFFFFFFFFFFFFFFF AND DUP2 MSTORE PUSH1 0x20 ADD SWAP1 DUP2 MSTORE PUSH1 0x20 ADD PUSH1 0x0 KECCAK256 PUSH1 0x0 DUP3 ADD MLOAD DUP2 PUSH1 0x0 ADD SWAP1 DUP2 PUSH2 0x57E SWAP2 SWAP1 PUSH2 0x2F9C JUMP JUMPDEST POP PUSH1 0x20 DUP3 ADD MLOAD DUP2 PUSH1 0x1 ADD SWAP1 DUP2 PUSH2 0x594 SWAP2 SWAP1 PUSH2 0x2F9C JUMP JUMPDEST POP PUSH1 0x40 DUP3 ADD MLOAD DUP2 PUSH1 0x2 ADD SWAP1 DUP2 PUSH2 0x5AA SWAP2 SWAP1 PUSH2 0x2F9C JUMP JUMPDEST POP PUSH1 0x60 DUP3 ADD MLOAD DUP2 PUSH1 0x3 ADD PUSH1 0x0 PUSH2 0x100 EXP DUP2 SLOAD DUP2 PUSH1 0xFF MUL NOT AND SWAP1 DUP4 PUSH1 0xFF AND MUL OR SWAP1 SSTORE POP PUSH1 0x80 DUP3 ADD MLOAD DUP2 PUSH1 0x4 ADD SSTORE PUSH1 0xA0 DUP3 ADD MLOAD DUP2 PUSH1 0x5 ADD SSTORE PUSH1 0xC0 DUP3 ADD MLOAD DUP2 PUSH1 0x6 ADD PUSH1 0x0 PUSH2 0x100 EXP DUP2 SLOAD DUP2 PUSH20 0xFFFFFFFFFFFFFFFFFFFFFFFFFFFFFFFFFFFFFFFF MUL NOT AND SWAP1 DUP4 PUSH20 0xFFFFFFFFFFFFFFFFFFFFFFFFFFFFFFFFFFFFFFFF AND MUL OR SWAP1 SSTORE POP PUSH1 0xE0 DUP3 ADD MLOAD DUP2 PUSH1 0x6 ADD PUSH1 0x14 PUSH2 0x100 EXP DUP2 SLOAD DUP2 PUSH1 0xFF MUL NOT AND SWAP1 DUP4 ISZERO ISZERO MUL OR SWAP1 SSTORE POP PUSH2 0x100 DUP3 ADD MLOAD DUP2 PUSH1 0x6 ADD PUSH1 0x15 PUSH2 0x100 EXP DUP2 SLOAD DUP2 PUSH1 0xFF MUL NOT AND SWAP1 DUP4 ISZERO ISZERO MUL OR SWAP1 SSTORE POP PUSH2 0x120 DUP3 ADD MLOAD DUP2 PUSH1 0x6 ADD PUSH1 0x16 PUSH2 0x100 EXP DUP2 SLOAD DUP2 PUSH1 0xFF MUL NOT AND SWAP1 DUP4 ISZERO ISZERO MUL OR SWAP1 SSTORE POP PUSH2 0x140 DUP3 ADD MLOAD DUP2 PUSH1 0x7 ADD PUSH1 0x0 PUSH2 0x100 EXP DUP2 SLOAD DUP2 PUSH20 0xFFFFFFFFFFFFFFFFFFFFFFFFFFFFFFFFFFFFFFFF MUL NOT AND SWAP1 DUP4 PUSH20 0xFFFFFFFFFFFFFFFFFFFFFFFFFFFFFFFFFFFFFFFF AND MUL OR SWAP1 SSTORE POP SWAP1 POP POP POP JUMP JUMPDEST PUSH1 0x2 PUSH1 0x20 MSTORE DUP1 PUSH1 0x0 MSTORE PUSH1 0x40 PUSH1 0x0 KECCAK256 PUSH1 0x0 SWAP2 POP SWAP1 POP DUP1 PUSH1 0x0 ADD DUP1 SLOAD PUSH2 0x6FA SWAP1 PUSH2 0x2DBF JUMP JUMPDEST DUP1 PUSH1 0x1F ADD PUSH1 0x20 DUP1 SWAP2 DIV MUL PUSH1 0x20 ADD PUSH1 0x40 MLOAD SWAP1 DUP2 ADD PUSH1 0x40 MSTORE DUP1 SWAP3 SWAP2 SWAP1 DUP2 DUP2 MSTORE PUSH1 0x20 ADD DUP3 DUP1 SLOAD PUSH2 0x726 SWAP1 PUSH2 0x2DBF JUMP JUMPDEST DUP1 ISZERO PUSH2 0x773 JUMPI DUP1 PUSH1 0x1F LT PUSH2 0x748 JUMPI PUSH2 0x100 DUP1 DUP4 SLOAD DIV MUL DUP4 MSTORE SWAP2 PUSH1 0x20 ADD SWAP2 PUSH2 0x773 JUMP JUMPDEST DUP3 ADD SWAP2 SWAP1 PUSH1 0x0 MSTORE PUSH1 0x20 PUSH1 0x0 KECCAK256 SWAP1 JUMPDEST DUP2 SLOAD DUP2 MSTORE SWAP1 PUSH1 0x1 ADD SWAP1 PUSH1 0x20 ADD DUP1 DUP4 GT PUSH2 0x756 JUMPI DUP3 SWAP1 SUB PUSH1 0x1F AND DUP3 ADD SWAP2 JUMPDEST POP POP POP POP POP SWAP1 DUP1 PUSH1 0x1 ADD DUP1 SLOAD PUSH2 0x788 SWAP1 PUSH2 0x2DBF JUMP JUMPDEST DUP1 PUSH1 0x1F ADD PUSH1 0x20 DUP1 SWAP2 DIV MUL PUSH1 0x20 ADD PUSH1 0x40 MLOAD SWAP1 DUP2 ADD PUSH1 0x40 MSTORE DUP1 SWAP3 SWAP2 SWAP1 DUP2 DUP2 MSTORE PUSH1 0x20 ADD DUP3 DUP1 SLOAD PUSH2 0x7B4 SWAP1 PUSH2 0x2DBF JUMP JUMPDEST DUP1 ISZERO PUSH2 0x801 JUMPI DUP1 PUSH1 0x1F LT PUSH2 0x7D6 JUMPI PUSH2 0x100 DUP1 DUP4 SLOAD DIV MUL DUP4 MSTORE SWAP2 PUSH1 0x20 ADD SWAP2 PUSH2 0x801 JUMP JUMPDEST DUP3 ADD SWAP2 SWAP1 PUSH1 0x0 MSTORE PUSH1 0x20 PUSH1 0x0 KECCAK256 SWAP1 JUMPDEST DUP2 SLOAD DUP2 MSTORE SWAP1 PUSH1 0x1 ADD SWAP1 PUSH1 0x20 ADD DUP1 DUP4 GT PUSH2 0x7E4 JUMPI DUP3 SWAP1 SUB PUSH1 0x1F AND DUP3 ADD SWAP2 JUMPDEST POP POP POP POP POP SWAP1 DUP1 PUSH1 0x2 ADD DUP1 SLOAD PUSH2 0x816 SWAP1 PUSH2 0x2DBF JUMP JUMPDEST DUP1 PUSH1 0x1F ADD PUSH1 0x20 DUP1 SWAP2 DIV MUL PUSH1 0x20 ADD PUSH1 0x40 MLOAD SWAP1 DUP2 ADD PUSH1 0x40 MSTORE DUP1 SWAP3 SWAP2 SWAP1 DUP2 DUP2 MSTORE PUSH1 0x20 ADD DUP3 DUP1 SLOAD PUSH2 0x842 SWAP1 PUSH2 0x2DBF JUMP JUMPDEST DUP1 ISZERO PUSH2 0x88F JUMPI DUP1 PUSH1 0x1F LT PUSH2 0x864 JUMPI PUSH2 0x100 DUP1 DUP4 SLOAD DIV MUL DUP4 MSTORE SWAP2 PUSH1 0x20 ADD SWAP2 PUSH2 0x88F JUMP JUMPDEST DUP3 ADD SWAP2 SWAP1 PUSH1 0x0 MSTORE PUSH1 0x20 PUSH1 0x0 KECCAK256 SWAP1 JUMPDEST DUP2 SLOAD DUP2 MSTORE SWAP1 PUSH1 0x1 ADD SWAP1 PUSH1 0x20 ADD DUP1 DUP4 GT PUSH2 0x872 JUMPI DUP3 SWAP1 SUB PUSH1 0x1F AND DUP3 ADD SWAP2 JUMPDEST POP POP POP POP POP SWAP1 DUP1 PUSH1 0x3 ADD PUSH1 0x0 SWAP1 SLOAD SWAP1 PUSH2 0x100 EXP SWAP1 DIV PUSH1 0xFF AND SWAP1 DUP1 PUSH1 0x4 ADD SLOAD SWAP1 DUP1 PUSH1 0x5 ADD SLOAD SWAP1 DUP1 PUSH1 0x6 ADD PUSH1 0x0 SWAP1 SLOAD SWAP1 PUSH2 0x100 EXP SWAP1 DIV PUSH20 0xFFFFFFFFFFFFFFFFFFFFFFFFFFFFFFFFFFFFFFFF AND SWAP1 DUP1 PUSH1 0x6 ADD PUSH1 0x14 SWAP1 SLOAD SWAP1 PUSH2 0x100 EXP SWAP1 DIV PUSH1 0xFF AND SWAP1 DUP1 PUSH1 0x6 ADD PUSH1 0x15 SWAP1 SLOAD SWAP1 PUSH2 0x100 EXP SWAP1 DIV PUSH1 0xFF AND SWAP1 DUP1 PUSH1 0x6 ADD PUSH1 0x16 SWAP1 SLOAD SWAP1 PUSH2 0x100 EXP SWAP1 DIV PUSH1 0xFF AND SWAP1 DUP1 PUSH1 0x7 ADD PUSH1 0x0 SWAP1 SLOAD SWAP1 PUSH2 0x100 EXP SWAP1 DIV PUSH20 0xFFFFFFFFFFFFFFFFFFFFFFFFFFFFFFFFFFFFFFFF AND SWAP1 POP DUP12 JUMP JUMPDEST PUSH1 0x0 PUSH1 0x2 PUSH1 0x0 DUP4 PUSH20 0xFFFFFFFFFFFFFFFFFFFFFFFFFFFFFFFFFFFFFFFF AND PUSH20 0xFFFFFFFFFFFFFFFFFFFFFFFFFFFFFFFFFFFFFFFF AND DUP2 MSTORE PUSH1 0x20 ADD SWAP1 DUP2 MSTORE PUSH1 0x20 ADD PUSH1 0x0 KECCAK256 PUSH1 0x6 ADD PUSH1 0x14 SWAP1 SLOAD SWAP1 PUSH2 0x100 EXP SWAP1 DIV PUSH1 0xFF AND SWAP1 POP SWAP2 SWAP1 POP JUMP JUMPDEST CALLER PUSH20 0xFFFFFFFFFFFFFFFFFFFFFFFFFFFFFFFFFFFFFFFF AND PUSH1 0x2 PUSH1 0x0 DUP4 PUSH20 0xFFFFFFFFFFFFFFFFFFFFFFFFFFFFFFFFFFFFFFFF AND PUSH20 0xFFFFFFFFFFFFFFFFFFFFFFFFFFFFFFFFFFFFFFFF AND DUP2 MSTORE PUSH1 0x20 ADD SWAP1 DUP2 MSTORE PUSH1 0x20 ADD PUSH1 0x0 KECCAK256 PUSH1 0x7 ADD PUSH1 0x0 SWAP1 SLOAD SWAP1 PUSH2 0x100 EXP SWAP1 DIV PUSH20 0xFFFFFFFFFFFFFFFFFFFFFFFFFFFFFFFFFFFFFFFF AND PUSH20 0xFFFFFFFFFFFFFFFFFFFFFFFFFFFFFFFFFFFFFFFF AND EQ PUSH2 0xA66 JUMPI PUSH1 0x40 MLOAD PUSH32 0x8C379A000000000000000000000000000000000000000000000000000000000 DUP2 MSTORE PUSH1 0x4 ADD PUSH2 0xA5D SWAP1 PUSH2 0x2D70 JUMP JUMPDEST PUSH1 0x40 MLOAD DUP1 SWAP2 SUB SWAP1 REVERT JUMPDEST PUSH1 0x1 PUSH1 0x2 PUSH1 0x0 DUP4 PUSH20 0xFFFFFFFFFFFFFFFFFFFFFFFFFFFFFFFFFFFFFFFF AND PUSH20 0xFFFFFFFFFFFFFFFFFFFFFFFFFFFFFFFFFFFFFFFF AND DUP2 MSTORE PUSH1 0x20 ADD SWAP1 DUP2 MSTORE PUSH1 0x20 ADD PUSH1 0x0 KECCAK256 PUSH1 0x6 ADD PUSH1 0x15 PUSH2 0x100 EXP DUP2 SLOAD DUP2 PUSH1 0xFF MUL NOT AND SWAP1 DUP4 ISZERO ISZERO MUL OR SWAP1 SSTORE POP POP JUMP JUMPDEST PUSH1 0x0 PUSH1 0x20 MSTORE DUP1 PUSH1 0x0 MSTORE PUSH1 0x40 PUSH1 0x0 KECCAK256 PUSH1 0x0 SWAP2 POP SLOAD SWAP1 PUSH2 0x100 EXP SWAP1 DIV PUSH20 0xFFFFFFFFFFFFFFFFFFFFFFFFFFFFFFFFFFFFFFFF AND DUP2 JUMP JUMPDEST CALLER PUSH20 0xFFFFFFFFFFFFFFFFFFFFFFFFFFFFFFFFFFFFFFFF AND PUSH1 0x2 PUSH1 0x0 DUP4 PUSH20 0xFFFFFFFFFFFFFFFFFFFFFFFFFFFFFFFFFFFFFFFF AND PUSH20 0xFFFFFFFFFFFFFFFFFFFFFFFFFFFFFFFFFFFFFFFF AND DUP2 MSTORE PUSH1 0x20 ADD SWAP1 DUP2 MSTORE PUSH1 0x20 ADD PUSH1 0x0 KECCAK256 PUSH1 0x7 ADD PUSH1 0x0 SWAP1 SLOAD SWAP1 PUSH2 0x100 EXP SWAP1 DIV PUSH20 0xFFFFFFFFFFFFFFFFFFFFFFFFFFFFFFFFFFFFFFFF AND PUSH20 0xFFFFFFFFFFFFFFFFFFFFFFFFFFFFFFFFFFFFFFFF AND EQ PUSH2 0xBC7 JUMPI PUSH1 0x40 MLOAD PUSH32 0x8C379A000000000000000000000000000000000000000000000000000000000 DUP2 MSTORE PUSH1 0x4 ADD PUSH2 0xBBE SWAP1 PUSH2 0x2D70 JUMP JUMPDEST PUSH1 0x40 MLOAD DUP1 SWAP2 SUB SWAP1 REVERT JUMPDEST PUSH1 0x0 PUSH1 0x2 PUSH1 0x0 DUP4 PUSH20 0xFFFFFFFFFFFFFFFFFFFFFFFFFFFFFFFFFFFFFFFF AND PUSH20 0xFFFFFFFFFFFFFFFFFFFFFFFFFFFFFFFFFFFFFFFF AND DUP2 MSTORE PUSH1 0x20 ADD SWAP1 DUP2 MSTORE PUSH1 0x20 ADD PUSH1 0x0 KECCAK256 PUSH1 0x6 ADD PUSH1 0x15 PUSH2 0x100 EXP DUP2 SLOAD DUP2 PUSH1 0xFF MUL NOT AND SWAP1 DUP4 ISZERO ISZERO MUL OR SWAP1 SSTORE POP POP JUMP JUMPDEST PUSH32 0x0 DUP2 JUMP JUMPDEST PUSH32 0x0 DUP2 JUMP JUMPDEST PUSH1 0x0 PUSH20 0xFFFFFFFFFFFFFFFFFFFFFFFFFFFFFFFFFFFFFFFF AND PUSH1 0x0 DUP1 DUP4 PUSH1 0xC0 ADD MLOAD PUSH20 0xFFFFFFFFFFFFFFFFFFFFFFFFFFFFFFFFFFFFFFFF AND PUSH20 0xFFFFFFFFFFFFFFFFFFFFFFFFFFFFFFFFFFFFFFFF AND DUP2 MSTORE PUSH1 0x20 ADD SWAP1 DUP2 MSTORE PUSH1 0x20 ADD PUSH1 0x0 KECCAK256 PUSH1 0x0 SWAP1 SLOAD SWAP1 PUSH2 0x100 EXP SWAP1 DIV PUSH20 0xFFFFFFFFFFFFFFFFFFFFFFFFFFFFFFFFFFFFFFFF AND PUSH20 0xFFFFFFFFFFFFFFFFFFFFFFFFFFFFFFFFFFFFFFFF AND SUB PUSH2 0xD08 JUMPI PUSH1 0x0 DUP1 REVERT JUMPDEST PUSH1 0x0 DUP2 PUSH1 0xE0 ADD SWAP1 ISZERO ISZERO SWAP1 DUP2 ISZERO ISZERO DUP2 MSTORE POP POP PUSH1 0x0 DUP2 PUSH2 0x100 ADD SWAP1 ISZERO ISZERO SWAP1 DUP2 ISZERO ISZERO DUP2 MSTORE POP POP PUSH1 0x1 DUP2 PUSH2 0x120 ADD SWAP1 ISZERO ISZERO SWAP1 DUP2 ISZERO ISZERO DUP2 MSTORE POP POP PUSH1 0x2 PUSH1 0x0 DUP3 PUSH1 0xC0 ADD MLOAD PUSH20 0xFFFFFFFFFFFFFFFFFFFFFFFFFFFFFFFFFFFFFFFF AND PUSH20 0xFFFFFFFFFFFFFFFFFFFFFFFFFFFFFFFFFFFFFFFF AND DUP2 MSTORE PUSH1 0x20 ADD SWAP1 DUP2 MSTORE PUSH1 0x20 ADD PUSH1 0x0 KECCAK256 PUSH1 0x7 ADD PUSH1 0x0 SWAP1 SLOAD SWAP1 PUSH2 0x100 EXP SWAP1 DIV PUSH20 0xFFFFFFFFFFFFFFFFFFFFFFFFFFFFFFFFFFFFFFFF AND DUP2 PUSH2 0x140 ADD SWAP1 PUSH20 0xFFFFFFFFFFFFFFFFFFFFFFFFFFFFFFFFFFFFFFFF AND SWAP1 DUP2 PUSH20 0xFFFFFFFFFFFFFFFFFFFFFFFFFFFFFFFFFFFFFFFF AND DUP2 MSTORE POP POP DUP1 PUSH1 0x2 PUSH1 0x0 DUP4 PUSH1 0xC0 ADD MLOAD PUSH20 0xFFFFFFFFFFFFFFFFFFFFFFFFFFFFFFFFFFFFFFFF AND PUSH20 0xFFFFFFFFFFFFFFFFFFFFFFFFFFFFFFFFFFFFFFFF AND DUP2 MSTORE PUSH1 0x20 ADD SWAP1 DUP2 MSTORE PUSH1 0x20 ADD PUSH1 0x0 KECCAK256 PUSH1 0x0 DUP3 ADD MLOAD DUP2 PUSH1 0x0 ADD SWAP1 DUP2 PUSH2 0xE35 SWAP2 SWAP1 PUSH2 0x2F9C JUMP JUMPDEST POP PUSH1 0x20 DUP3 ADD MLOAD DUP2 PUSH1 0x1 ADD SWAP1 DUP2 PUSH2 0xE4B SWAP2 SWAP1 PUSH2 0x2F9C JUMP JUMPDEST POP PUSH1 0x40 DUP3 ADD MLOAD DUP2 PUSH1 0x2 ADD SWAP1 DUP2 PUSH2 0xE61 SWAP2 SWAP1 PUSH2 0x2F9C JUMP JUMPDEST POP PUSH1 0x60 DUP3 ADD MLOAD DUP2 PUSH1 0x3 ADD PUSH1 0x0 PUSH2 0x100 EXP DUP2 SLOAD DUP2 PUSH1 0xFF MUL NOT AND SWAP1 DUP4 PUSH1 0xFF AND MUL OR SWAP1 SSTORE POP PUSH1 0x80 DUP3 ADD MLOAD DUP2 PUSH1 0x4 ADD SSTORE PUSH1 0xA0 DUP3 ADD MLOAD DUP2 PUSH1 0x5 ADD SSTORE PUSH1 0xC0 DUP3 ADD MLOAD DUP2 PUSH1 0x6 ADD PUSH1 0x0 PUSH2 0x100 EXP DUP2 SLOAD DUP2 PUSH20 0xFFFFFFFFFFFFFFFFFFFFFFFFFFFFFFFFFFFFFFFF MUL NOT AND SWAP1 DUP4 PUSH20 0xFFFFFFFFFFFFFFFFFFFFFFFFFFFFFFFFFFFFFFFF AND MUL OR SWAP1 SSTORE POP PUSH1 0xE0 DUP3 ADD MLOAD DUP2 PUSH1 0x6 ADD PUSH1 0x14 PUSH2 0x100 EXP DUP2 SLOAD DUP2 PUSH1 0xFF MUL NOT AND SWAP1 DUP4 ISZERO ISZERO MUL OR SWAP1 SSTORE POP PUSH2 0x100 DUP3 ADD MLOAD DUP2 PUSH1 0x6 ADD PUSH1 0x15 PUSH2 0x100 EXP DUP2 SLOAD DUP2 PUSH1 0xFF MUL NOT AND SWAP1 DUP4 ISZERO ISZERO MUL OR SWAP1 SSTORE POP PUSH2 0x120 DUP3 ADD MLOAD DUP2 PUSH1 0x6 ADD PUSH1 0x16 PUSH2 0x100 EXP DUP2 SLOAD DUP2 PUSH1 0xFF MUL NOT AND SWAP1 DUP4 ISZERO ISZERO MUL OR SWAP1 SSTORE POP PUSH2 0x140 DUP3 ADD MLOAD DUP2 PUSH1 0x7 ADD PUSH1 0x0 PUSH2 0x100 EXP DUP2 SLOAD DUP2 PUSH20 0xFFFFFFFFFFFFFFFFFFFFFFFFFFFFFFFFFFFFFFFF MUL NOT AND SWAP1 DUP4 PUSH20 0xFFFFFFFFFFFFFFFFFFFFFFFFFFFFFFFFFFFFFFFF AND MUL OR SWAP1 SSTORE POP SWAP1 POP POP POP JUMP JUMPDEST PUSH1 0x0 PUSH20 0xFFFFFFFFFFFFFFFFFFFFFFFFFFFFFFFFFFFFFFFF AND PUSH1 0x0 DUP1 DUP4 PUSH20 0xFFFFFFFFFFFFFFFFFFFFFFFFFFFFFFFFFFFFFFFF AND PUSH20 0xFFFFFFFFFFFFFFFFFFFFFFFFFFFFFFFFFFFFFFFF AND DUP2 MSTORE PUSH1 0x20 ADD SWAP1 DUP2 MSTORE PUSH1 0x20 ADD PUSH1 0x0 KECCAK256 PUSH1 0x0 SWAP1 SLOAD SWAP1 PUSH2 0x100 EXP SWAP1 DIV PUSH20 0xFFFFFFFFFFFFFFFFFFFFFFFFFFFFFFFFFFFFFFFF AND PUSH20 0xFFFFFFFFFFFFFFFFFFFFFFFFFFFFFFFFFFFFFFFF AND SUB PUSH2 0x105B JUMPI PUSH1 0x40 MLOAD PUSH32 0x8C379A000000000000000000000000000000000000000000000000000000000 DUP2 MSTORE PUSH1 0x4 ADD PUSH2 0x1052 SWAP1 PUSH2 0x30BA JUMP JUMPDEST PUSH1 0x40 MLOAD DUP1 SWAP2 SUB SWAP1 REVERT JUMPDEST PUSH1 0x0 DUP1 DUP3 PUSH20 0xFFFFFFFFFFFFFFFFFFFFFFFFFFFFFFFFFFFFFFFF AND PUSH20 0xFFFFFFFFFFFFFFFFFFFFFFFFFFFFFFFFFFFFFFFF AND DUP2 MSTORE PUSH1 0x20 ADD SWAP1 DUP2 MSTORE PUSH1 0x20 ADD PUSH1 0x0 KECCAK256 PUSH1 0x0 PUSH2 0x100 EXP DUP2 SLOAD SWAP1 PUSH20 0xFFFFFFFFFFFFFFFFFFFFFFFFFFFFFFFFFFFFFFFF MUL NOT AND SWAP1 SSTORE POP JUMP JUMPDEST PUSH1 0x1 ISZERO ISZERO PUSH1 0x2 PUSH1 0x0 DUP4 PUSH1 0xC0 ADD MLOAD PUSH20 0xFFFFFFFFFFFFFFFFFFFFFFFFFFFFFFFFFFFFFFFF AND PUSH20 0xFFFFFFFFFFFFFFFFFFFFFFFFFFFFFFFFFFFFFFFF AND DUP2 MSTORE PUSH1 0x20 ADD SWAP1 DUP2 MSTORE PUSH1 0x20 ADD PUSH1 0x0 KECCAK256 PUSH1 0x6 ADD PUSH1 0x16 SWAP1 SLOAD SWAP1 PUSH2 0x100 EXP SWAP1 DIV PUSH1 0xFF AND ISZERO ISZERO EQ PUSH2 0x1403 JUMPI CALLER DUP2 PUSH2 0x140 ADD SWAP1 PUSH20 0xFFFFFFFFFFFFFFFFFFFFFFFFFFFFFFFFFFFFFFFF AND SWAP1 DUP2 PUSH20 0xFFFFFFFFFFFFFFFFFFFFFFFFFFFFFFFFFFFFFFFF AND DUP2 MSTORE POP POP PUSH1 0x0 DUP2 PUSH1 0xE0 ADD SWAP1 ISZERO ISZERO SWAP1 DUP2 ISZERO ISZERO DUP2 MSTORE POP POP PUSH1 0x0 DUP2 PUSH2 0x100 ADD SWAP1 ISZERO ISZERO SWAP1 DUP2 ISZERO ISZERO DUP2 MSTORE POP POP PUSH1 0x1 DUP2 PUSH2 0x120 ADD SWAP1 ISZERO ISZERO SWAP1 DUP2 ISZERO ISZERO DUP2 MSTORE POP POP DUP1 PUSH1 0x2 PUSH1 0x0 DUP4 PUSH1 0xC0 ADD MLOAD PUSH20 0xFFFFFFFFFFFFFFFFFFFFFFFFFFFFFFFFFFFFFFFF AND PUSH20 0xFFFFFFFFFFFFFFFFFFFFFFFFFFFFFFFFFFFFFFFF AND DUP2 MSTORE PUSH1 0x20 ADD SWAP1 DUP2 MSTORE PUSH1 0x20 ADD PUSH1 0x0 KECCAK256 PUSH1 0x0 DUP3 ADD MLOAD DUP2 PUSH1 0x0 ADD SWAP1 DUP2 PUSH2 0x11E5 SWAP2 SWAP1 PUSH2 0x2F9C JUMP JUMPDEST POP PUSH1 0x20 DUP3 ADD MLOAD DUP2 PUSH1 0x1 ADD SWAP1 DUP2 PUSH2 0x11FB SWAP2 SWAP1 PUSH2 0x2F9C JUMP JUMPDEST POP PUSH1 0x40 DUP3 ADD MLOAD DUP2 PUSH1 0x2 ADD SWAP1 DUP2 PUSH2 0x1211 SWAP2 SWAP1 PUSH2 0x2F9C JUMP JUMPDEST POP PUSH1 0x60 DUP3 ADD MLOAD DUP2 PUSH1 0x3 ADD PUSH1 0x0 PUSH2 0x100 EXP DUP2 SLOAD DUP2 PUSH1 0xFF MUL NOT AND SWAP1 DUP4 PUSH1 0xFF AND MUL OR SWAP1 SSTORE POP PUSH1 0x80 DUP3 ADD MLOAD DUP2 PUSH1 0x4 ADD SSTORE PUSH1 0xA0 DUP3 ADD MLOAD DUP2 PUSH1 0x5 ADD SSTORE PUSH1 0xC0 DUP3 ADD MLOAD DUP2 PUSH1 0x6 ADD PUSH1 0x0 PUSH2 0x100 EXP DUP2 SLOAD DUP2 PUSH20 0xFFFFFFFFFFFFFFFFFFFFFFFFFFFFFFFFFFFFFFFF MUL NOT AND SWAP1 DUP4 PUSH20 0xFFFFFFFFFFFFFFFFFFFFFFFFFFFFFFFFFFFFFFFF AND MUL OR SWAP1 SSTORE POP PUSH1 0xE0 DUP3 ADD MLOAD DUP2 PUSH1 0x6 ADD PUSH1 0x14 PUSH2 0x100 EXP DUP2 SLOAD DUP2 PUSH1 0xFF MUL NOT AND SWAP1 DUP4 ISZERO ISZERO MUL OR SWAP1 SSTORE POP PUSH2 0x100 DUP3 ADD MLOAD DUP2 PUSH1 0x6 ADD PUSH1 0x15 PUSH2 0x100 EXP DUP2 SLOAD DUP2 PUSH1 0xFF MUL NOT AND SWAP1 DUP4 ISZERO ISZERO MUL OR SWAP1 SSTORE POP PUSH2 0x120 DUP3 ADD MLOAD DUP2 PUSH1 0x6 ADD PUSH1 0x16 PUSH2 0x100 EXP DUP2 SLOAD DUP2 PUSH1 0xFF MUL NOT AND SWAP1 DUP4 ISZERO ISZERO MUL OR SWAP1 SSTORE POP PUSH2 0x140 DUP3 ADD MLOAD DUP2 PUSH1 0x7 ADD PUSH1 0x0 PUSH2 0x100 EXP DUP2 SLOAD DUP2 PUSH20 0xFFFFFFFFFFFFFFFFFFFFFFFFFFFFFFFFFFFFFFFF MUL NOT AND SWAP1 DUP4 PUSH20 0xFFFFFFFFFFFFFFFFFFFFFFFFFFFFFFFFFFFFFFFF AND MUL OR SWAP1 SSTORE POP SWAP1 POP POP DUP1 PUSH1 0xC0 ADD MLOAD PUSH1 0x1 PUSH1 0x0 CALLER PUSH20 0xFFFFFFFFFFFFFFFFFFFFFFFFFFFFFFFFFFFFFFFF AND PUSH20 0xFFFFFFFFFFFFFFFFFFFFFFFFFFFFFFFFFFFFFFFF AND DUP2 MSTORE PUSH1 0x20 ADD SWAP1 DUP2 MSTORE PUSH1 0x20 ADD PUSH1 0x0 KECCAK256 PUSH1 0x0 DUP4 PUSH1 0xC0 ADD MLOAD PUSH20 0xFFFFFFFFFFFFFFFFFFFFFFFFFFFFFFFFFFFFFFFF AND PUSH20 0xFFFFFFFFFFFFFFFFFFFFFFFFFFFFFFFFFFFFFFFF AND DUP2 MSTORE PUSH1 0x20 ADD SWAP1 DUP2 MSTORE PUSH1 0x20 ADD PUSH1 0x0 KECCAK256 PUSH1 0x0 PUSH2 0x100 EXP DUP2 SLOAD DUP2 PUSH20 0xFFFFFFFFFFFFFFFFFFFFFFFFFFFFFFFFFFFFFFFF MUL NOT AND SWAP1 DUP4 PUSH20 0xFFFFFFFFFFFFFFFFFFFFFFFFFFFFFFFFFFFFFFFF AND MUL OR SWAP1 SSTORE POP PUSH2 0x16A7 JUMP JUMPDEST PUSH1 0x0 PUSH20 0xFFFFFFFFFFFFFFFFFFFFFFFFFFFFFFFFFFFFFFFF AND PUSH1 0x0 DUP1 DUP4 PUSH1 0xC0 ADD MLOAD PUSH20 0xFFFFFFFFFFFFFFFFFFFFFFFFFFFFFFFFFFFFFFFF AND PUSH20 0xFFFFFFFFFFFFFFFFFFFFFFFFFFFFFFFFFFFFFFFF AND DUP2 MSTORE PUSH1 0x20 ADD SWAP1 DUP2 MSTORE PUSH1 0x20 ADD PUSH1 0x0 KECCAK256 PUSH1 0x0 SWAP1 SLOAD SWAP1 PUSH2 0x100 EXP SWAP1 DIV PUSH20 0xFFFFFFFFFFFFFFFFFFFFFFFFFFFFFFFFFFFFFFFF AND PUSH20 0xFFFFFFFFFFFFFFFFFFFFFFFFFFFFFFFFFFFFFFFF AND EQ PUSH2 0x14D4 JUMPI PUSH1 0x40 MLOAD PUSH32 0x8C379A000000000000000000000000000000000000000000000000000000000 DUP2 MSTORE PUSH1 0x4 ADD PUSH2 0x14CB SWAP1 PUSH2 0x3126 JUMP JUMPDEST PUSH1 0x40 MLOAD DUP1 SWAP2 SUB SWAP1 REVERT JUMPDEST PUSH1 0x0 PUSH20 0xFFFFFFFFFFFFFFFFFFFFFFFFFFFFFFFFFFFFFFFF AND PUSH1 0x1 PUSH1 0x0 CALLER PUSH20 0xFFFFFFFFFFFFFFFFFFFFFFFFFFFFFFFFFFFFFFFF AND PUSH20 0xFFFFFFFFFFFFFFFFFFFFFFFFFFFFFFFFFFFFFFFF AND DUP2 MSTORE PUSH1 0x20 ADD SWAP1 DUP2 MSTORE PUSH1 0x20 ADD PUSH1 0x0 KECCAK256 PUSH1 0x0 DUP4 PUSH1 0xC0 ADD MLOAD PUSH20 0xFFFFFFFFFFFFFFFFFFFFFFFFFFFFFFFFFFFFFFFF AND PUSH20 0xFFFFFFFFFFFFFFFFFFFFFFFFFFFFFFFFFFFFFFFF AND DUP2 MSTORE PUSH1 0x20 ADD SWAP1 DUP2 MSTORE PUSH1 0x20 ADD PUSH1 0x0 KECCAK256 PUSH1 0x0 SWAP1 SLOAD SWAP1 PUSH2 0x100 EXP SWAP1 DIV PUSH20 0xFFFFFFFFFFFFFFFFFFFFFFFFFFFFFFFFFFFFFFFF AND PUSH20 0xFFFFFFFFFFFFFFFFFFFFFFFFFFFFFFFFFFFFFFFF AND EQ PUSH2 0x15E3 JUMPI PUSH1 0x40 MLOAD PUSH32 0x8C379A000000000000000000000000000000000000000000000000000000000 DUP2 MSTORE PUSH1 0x4 ADD PUSH2 0x15DA SWAP1 PUSH2 0x3192 JUMP JUMPDEST PUSH1 0x40 MLOAD DUP1 SWAP2 SUB SWAP1 REVERT JUMPDEST DUP1 PUSH1 0xC0 ADD MLOAD PUSH1 0x1 PUSH1 0x0 CALLER PUSH20 0xFFFFFFFFFFFFFFFFFFFFFFFFFFFFFFFFFFFFFFFF AND PUSH20 0xFFFFFFFFFFFFFFFFFFFFFFFFFFFFFFFFFFFFFFFF AND DUP2 MSTORE PUSH1 0x20 ADD SWAP1 DUP2 MSTORE PUSH1 0x20 ADD PUSH1 0x0 KECCAK256 PUSH1 0x0 DUP4 PUSH1 0xC0 ADD MLOAD PUSH20 0xFFFFFFFFFFFFFFFFFFFFFFFFFFFFFFFFFFFFFFFF AND PUSH20 0xFFFFFFFFFFFFFFFFFFFFFFFFFFFFFFFFFFFFFFFF AND DUP2 MSTORE PUSH1 0x20 ADD SWAP1 DUP2 MSTORE PUSH1 0x20 ADD PUSH1 0x0 KECCAK256 PUSH1 0x0 PUSH2 0x100 EXP DUP2 SLOAD DUP2 PUSH20 0xFFFFFFFFFFFFFFFFFFFFFFFFFFFFFFFFFFFFFFFF MUL NOT AND SWAP1 DUP4 PUSH20 0xFFFFFFFFFFFFFFFFFFFFFFFFFFFFFFFFFFFFFFFF AND MUL OR SWAP1 SSTORE POP JUMPDEST POP JUMP JUMPDEST PUSH1 0x0 PUSH1 0x2 PUSH1 0x0 DUP4 PUSH20 0xFFFFFFFFFFFFFFFFFFFFFFFFFFFFFFFFFFFFFFFF AND PUSH20 0xFFFFFFFFFFFFFFFFFFFFFFFFFFFFFFFFFFFFFFFF AND DUP2 MSTORE PUSH1 0x20 ADD SWAP1 DUP2 MSTORE PUSH1 0x20 ADD PUSH1 0x0 KECCAK256 PUSH1 0x6 ADD PUSH1 0x14 PUSH2 0x100 EXP DUP2 SLOAD DUP2 PUSH1 0xFF MUL NOT AND SWAP1 DUP4 ISZERO ISZERO MUL OR SWAP1 SSTORE POP POP JUMP JUMPDEST PUSH1 0x1 ISZERO ISZERO PUSH1 0x2 PUSH1 0x0 DUP4 PUSH1 0xC0 ADD MLOAD PUSH20 0xFFFFFFFFFFFFFFFFFFFFFFFFFFFFFFFFFFFFFFFF AND PUSH20 0xFFFFFFFFFFFFFFFFFFFFFFFFFFFFFFFFFFFFFFFF AND DUP2 MSTORE PUSH1 0x20 ADD SWAP1 DUP2 MSTORE PUSH1 0x20 ADD PUSH1 0x0 KECCAK256 PUSH1 0x6 ADD PUSH1 0x16 SWAP1 SLOAD SWAP1 PUSH2 0x100 EXP SWAP1 DIV PUSH1 0xFF AND ISZERO ISZERO EQ PUSH2 0x1A0E JUMPI CALLER DUP2 PUSH2 0x140 ADD SWAP1 PUSH20 0xFFFFFFFFFFFFFFFFFFFFFFFFFFFFFFFFFFFFFFFF AND SWAP1 DUP2 PUSH20 0xFFFFFFFFFFFFFFFFFFFFFFFFFFFFFFFFFFFFFFFF AND DUP2 MSTORE POP POP PUSH1 0x0 DUP2 PUSH1 0xE0 ADD SWAP1 ISZERO ISZERO SWAP1 DUP2 ISZERO ISZERO DUP2 MSTORE POP POP PUSH1 0x0 DUP2 PUSH2 0x100 ADD SWAP1 ISZERO ISZERO SWAP1 DUP2 ISZERO ISZERO DUP2 MSTORE POP POP PUSH1 0x1 DUP2 PUSH2 0x120 ADD SWAP1 ISZERO ISZERO SWAP1 DUP2 ISZERO ISZERO DUP2 MSTORE POP POP DUP1 PUSH1 0x2 PUSH1 0x0 DUP4 PUSH1 0xC0 ADD MLOAD PUSH20 0xFFFFFFFFFFFFFFFFFFFFFFFFFFFFFFFFFFFFFFFF AND PUSH20 0xFFFFFFFFFFFFFFFFFFFFFFFFFFFFFFFFFFFFFFFF AND DUP2 MSTORE PUSH1 0x20 ADD SWAP1 DUP2 MSTORE PUSH1 0x20 ADD PUSH1 0x0 KECCAK256 PUSH1 0x0 DUP3 ADD MLOAD DUP2 PUSH1 0x0 ADD SWAP1 DUP2 PUSH2 0x182E SWAP2 SWAP1 PUSH2 0x2F9C JUMP JUMPDEST POP PUSH1 0x20 DUP3 ADD MLOAD DUP2 PUSH1 0x1 ADD SWAP1 DUP2 PUSH2 0x1844 SWAP2 SWAP1 PUSH2 0x2F9C JUMP JUMPDEST POP PUSH1 0x40 DUP3 ADD MLOAD DUP2 PUSH1 0x2 ADD SWAP1 DUP2 PUSH2 0x185A SWAP2 SWAP1 PUSH2 0x2F9C JUMP JUMPDEST POP PUSH1 0x60 DUP3 ADD MLOAD DUP2 PUSH1 0x3 ADD PUSH1 0x0 PUSH2 0x100 EXP DUP2 SLOAD DUP2 PUSH1 0xFF MUL NOT AND SWAP1 DUP4 PUSH1 0xFF AND MUL OR SWAP1 SSTORE POP PUSH1 0x80 DUP3 ADD MLOAD DUP2 PUSH1 0x4 ADD SSTORE PUSH1 0xA0 DUP3 ADD MLOAD DUP2 PUSH1 0x5 ADD SSTORE PUSH1 0xC0 DUP3 ADD MLOAD DUP2 PUSH1 0x6 ADD PUSH1 0x0 PUSH2 0x100 EXP DUP2 SLOAD DUP2 PUSH20 0xFFFFFFFFFFFFFFFFFFFFFFFFFFFFFFFFFFFFFFFF MUL NOT AND SWAP1 DUP4 PUSH20 0xFFFFFFFFFFFFFFFFFFFFFFFFFFFFFFFFFFFFFFFF AND MUL OR SWAP1 SSTORE POP PUSH1 0xE0 DUP3 ADD MLOAD DUP2 PUSH1 0x6 ADD PUSH1 0x14 PUSH2 0x100 EXP DUP2 SLOAD DUP2 PUSH1 0xFF MUL NOT AND SWAP1 DUP4 ISZERO ISZERO MUL OR SWAP1 SSTORE POP PUSH2 0x100 DUP3 ADD MLOAD DUP2 PUSH1 0x6 ADD PUSH1 0x15 PUSH2 0x100 EXP DUP2 SLOAD DUP2 PUSH1 0xFF MUL NOT AND SWAP1 DUP4 ISZERO ISZERO MUL OR SWAP1 SSTORE POP PUSH2 0x120 DUP3 ADD MLOAD DUP2 PUSH1 0x6 ADD PUSH1 0x16 PUSH2 0x100 EXP DUP2 SLOAD DUP2 PUSH1 0xFF MUL NOT AND SWAP1 DUP4 ISZERO ISZERO MUL OR SWAP1 SSTORE POP PUSH2 0x140 DUP3 ADD MLOAD DUP2 PUSH1 0x7 ADD PUSH1 0x0 PUSH2 0x100 EXP DUP2 SLOAD DUP2 PUSH20 0xFFFFFFFFFFFFFFFFFFFFFFFFFFFFFFFFFFFFFFFF MUL NOT AND SWAP1 DUP4 PUSH20 0xFFFFFFFFFFFFFFFFFFFFFFFFFFFFFFFFFFFFFFFF AND MUL OR SWAP1 SSTORE POP SWAP1 POP POP DUP1 PUSH1 0xC0 ADD MLOAD PUSH1 0x0 DUP1 DUP4 PUSH1 0xC0 ADD MLOAD PUSH20 0xFFFFFFFFFFFFFFFFFFFFFFFFFFFFFFFFFFFFFFFF AND PUSH20 0xFFFFFFFFFFFFFFFFFFFFFFFFFFFFFFFFFFFFFFFF AND DUP2 MSTORE PUSH1 0x20 ADD SWAP1 DUP2 MSTORE PUSH1 0x20 ADD PUSH1 0x0 KECCAK256 PUSH1 0x0 PUSH2 0x100 EXP DUP2 SLOAD DUP2 PUSH20 0xFFFFFFFFFFFFFFFFFFFFFFFFFFFFFFFFFFFFFFFF MUL NOT AND SWAP1 DUP4 PUSH20 0xFFFFFFFFFFFFFFFFFFFFFFFFFFFFFFFFFFFFFFFF AND MUL OR SWAP1 SSTORE POP PUSH2 0x1B65 JUMP JUMPDEST PUSH1 0x0 PUSH20 0xFFFFFFFFFFFFFFFFFFFFFFFFFFFFFFFFFFFFFFFF AND PUSH1 0x0 DUP1 DUP4 PUSH1 0xC0 ADD MLOAD PUSH20 0xFFFFFFFFFFFFFFFFFFFFFFFFFFFFFFFFFFFFFFFF AND PUSH20 0xFFFFFFFFFFFFFFFFFFFFFFFFFFFFFFFFFFFFFFFF AND DUP2 MSTORE PUSH1 0x20 ADD SWAP1 DUP2 MSTORE PUSH1 0x20 ADD PUSH1 0x0 KECCAK256 PUSH1 0x0 SWAP1 SLOAD SWAP1 PUSH2 0x100 EXP SWAP1 DIV PUSH20 0xFFFFFFFFFFFFFFFFFFFFFFFFFFFFFFFFFFFFFFFF AND PUSH20 0xFFFFFFFFFFFFFFFFFFFFFFFFFFFFFFFFFFFFFFFF AND EQ PUSH2 0x1ADF JUMPI PUSH1 0x40 MLOAD PUSH32 0x8C379A000000000000000000000000000000000000000000000000000000000 DUP2 MSTORE PUSH1 0x4 ADD PUSH2 0x1AD6 SWAP1 PUSH2 0x3126 JUMP JUMPDEST PUSH1 0x40 MLOAD DUP1 SWAP2 SUB SWAP1 REVERT JUMPDEST DUP1 PUSH1 0xC0 ADD MLOAD PUSH1 0x0 DUP1 DUP4 PUSH1 0xC0 ADD MLOAD PUSH20 0xFFFFFFFFFFFFFFFFFFFFFFFFFFFFFFFFFFFFFFFF AND PUSH20 0xFFFFFFFFFFFFFFFFFFFFFFFFFFFFFFFFFFFFFFFF AND DUP2 MSTORE PUSH1 0x20 ADD SWAP1 DUP2 MSTORE PUSH1 0x20 ADD PUSH1 0x0 KECCAK256 PUSH1 0x0 PUSH2 0x100 EXP DUP2 SLOAD DUP2 PUSH20 0xFFFFFFFFFFFFFFFFFFFFFFFFFFFFFFFFFFFFFFFF MUL NOT AND SWAP1 DUP4 PUSH20 0xFFFFFFFFFFFFFFFFFFFFFFFFFFFFFFFFFFFFFFFF AND MUL OR SWAP1 SSTORE POP JUMPDEST POP JUMP JUMPDEST PUSH1 0x1 PUSH1 0x20 MSTORE DUP2 PUSH1 0x0 MSTORE PUSH1 0x40 PUSH1 0x0 KECCAK256 PUSH1 0x20 MSTORE DUP1 PUSH1 0x0 MSTORE PUSH1 0x40 PUSH1 0x0 KECCAK256 PUSH1 0x0 SWAP2 POP SWAP2 POP SWAP1 SLOAD SWAP1 PUSH2 0x100 EXP SWAP1 DIV PUSH20 0xFFFFFFFFFFFFFFFFFFFFFFFFFFFFFFFFFFFFFFFF AND DUP2 JUMP JUMPDEST PUSH1 0x0 PUSH20 0xFFFFFFFFFFFFFFFFFFFFFFFFFFFFFFFFFFFFFFFF AND PUSH1 0x1 PUSH1 0x0 DUP4 PUSH20 0xFFFFFFFFFFFFFFFFFFFFFFFFFFFFFFFFFFFFFFFF AND PUSH20 0xFFFFFFFFFFFFFFFFFFFFFFFFFFFFFFFFFFFFFFFF AND DUP2 MSTORE PUSH1 0x20 ADD SWAP1 DUP2 MSTORE PUSH1 0x20 ADD PUSH1 0x0 KECCAK256 PUSH1 0x0 DUP5 PUSH20 0xFFFFFFFFFFFFFFFFFFFFFFFFFFFFFFFFFFFFFFFF AND PUSH20 0xFFFFFFFFFFFFFFFFFFFFFFFFFFFFFFFFFFFFFFFF AND DUP2 MSTORE PUSH1 0x20 ADD SWAP1 DUP2 MSTORE PUSH1 0x20 ADD PUSH1 0x0 KECCAK256 PUSH1 0x0 SWAP1 SLOAD SWAP1 PUSH2 0x100 EXP SWAP1 DIV PUSH20 0xFFFFFFFFFFFFFFFFFFFFFFFFFFFFFFFFFFFFFFFF AND PUSH20 0xFFFFFFFFFFFFFFFFFFFFFFFFFFFFFFFFFFFFFFFF AND SUB PUSH2 0x1CB5 JUMPI PUSH1 0x40 MLOAD PUSH32 0x8C379A000000000000000000000000000000000000000000000000000000000 DUP2 MSTORE PUSH1 0x4 ADD PUSH2 0x1CAC SWAP1 PUSH2 0x30BA JUMP JUMPDEST PUSH1 0x40 MLOAD DUP1 SWAP2 SUB SWAP1 REVERT JUMPDEST PUSH1 0x0 PUSH20 0xFFFFFFFFFFFFFFFFFFFFFFFFFFFFFFFFFFFFFFFF AND PUSH1 0x0 DUP1 DUP5 PUSH20 0xFFFFFFFFFFFFFFFFFFFFFFFFFFFFFFFFFFFFFFFF AND PUSH20 0xFFFFFFFFFFFFFFFFFFFFFFFFFFFFFFFFFFFFFFFF AND DUP2 MSTORE PUSH1 0x20 ADD SWAP1 DUP2 MSTORE PUSH1 0x20 ADD PUSH1 0x0 KECCAK256 PUSH1 0x0 SWAP1 SLOAD SWAP1 PUSH2 0x100 EXP SWAP1 DIV PUSH20 0xFFFFFFFFFFFFFFFFFFFFFFFFFFFFFFFFFFFFFFFF AND PUSH20 0xFFFFFFFFFFFFFFFFFFFFFFFFFFFFFFFFFFFFFFFF AND EQ PUSH2 0x1D82 JUMPI PUSH1 0x40 MLOAD PUSH32 0x8C379A000000000000000000000000000000000000000000000000000000000 DUP2 MSTORE PUSH1 0x4 ADD PUSH2 0x1D79 SWAP1 PUSH2 0x31FE JUMP JUMPDEST PUSH1 0x40 MLOAD DUP1 SWAP2 SUB SWAP1 REVERT JUMPDEST PUSH1 0x1 PUSH1 0x0 DUP3 PUSH20 0xFFFFFFFFFFFFFFFFFFFFFFFFFFFFFFFFFFFFFFFF AND PUSH20 0xFFFFFFFFFFFFFFFFFFFFFFFFFFFFFFFFFFFFFFFF AND DUP2 MSTORE PUSH1 0x20 ADD SWAP1 DUP2 MSTORE PUSH1 0x20 ADD PUSH1 0x0 KECCAK256 PUSH1 0x0 DUP4 PUSH20 0xFFFFFFFFFFFFFFFFFFFFFFFFFFFFFFFFFFFFFFFF AND PUSH20 0xFFFFFFFFFFFFFFFFFFFFFFFFFFFFFFFFFFFFFFFF AND DUP2 MSTORE PUSH1 0x20 ADD SWAP1 DUP2 MSTORE PUSH1 0x20 ADD PUSH1 0x0 KECCAK256 PUSH1 0x0 SWAP1 SLOAD SWAP1 PUSH2 0x100 EXP SWAP1 DIV PUSH20 0xFFFFFFFFFFFFFFFFFFFFFFFFFFFFFFFFFFFFFFFF AND PUSH1 0x0 DUP1 DUP5 PUSH20 0xFFFFFFFFFFFFFFFFFFFFFFFFFFFFFFFFFFFFFFFF AND PUSH20 0xFFFFFFFFFFFFFFFFFFFFFFFFFFFFFFFFFFFFFFFF AND DUP2 MSTORE PUSH1 0x20 ADD SWAP1 DUP2 MSTORE PUSH1 0x20 ADD PUSH1 0x0 KECCAK256 PUSH1 0x0 PUSH2 0x100 EXP DUP2 SLOAD DUP2 PUSH20 0xFFFFFFFFFFFFFFFFFFFFFFFFFFFFFFFFFFFFFFFF MUL NOT AND SWAP1 DUP4 PUSH20 0xFFFFFFFFFFFFFFFFFFFFFFFFFFFFFFFFFFFFFFFF AND MUL OR SWAP1 SSTORE POP PUSH1 0x1 PUSH1 0x0 DUP3 PUSH20 0xFFFFFFFFFFFFFFFFFFFFFFFFFFFFFFFFFFFFFFFF AND PUSH20 0xFFFFFFFFFFFFFFFFFFFFFFFFFFFFFFFFFFFFFFFF AND DUP2 MSTORE PUSH1 0x20 ADD SWAP1 DUP2 MSTORE PUSH1 0x20 ADD PUSH1 0x0 KECCAK256 PUSH1 0x0 DUP4 PUSH20 0xFFFFFFFFFFFFFFFFFFFFFFFFFFFFFFFFFFFFFFFF AND PUSH20 0xFFFFFFFFFFFFFFFFFFFFFFFFFFFFFFFFFFFFFFFF AND DUP2 MSTORE PUSH1 0x20 ADD SWAP1 DUP2 MSTORE PUSH1 0x20 ADD PUSH1 0x0 KECCAK256 PUSH1 0x0 PUSH2 0x100 EXP DUP2 SLOAD SWAP1 PUSH20 0xFFFFFFFFFFFFFFFFFFFFFFFFFFFFFFFFFFFFFFFF MUL NOT AND SWAP1 SSTORE POP POP JUMP JUMPDEST PUSH2 0x1F46 PUSH2 0x24C0 JUMP JUMPDEST PUSH1 0x1 ISZERO ISZERO PUSH1 0x2 PUSH1 0x0 DUP5 PUSH20 0xFFFFFFFFFFFFFFFFFFFFFFFFFFFFFFFFFFFFFFFF AND PUSH20 0xFFFFFFFFFFFFFFFFFFFFFFFFFFFFFFFFFFFFFFFF AND DUP2 MSTORE PUSH1 0x20 ADD SWAP1 DUP2 MSTORE PUSH1 0x20 ADD PUSH1 0x0 KECCAK256 PUSH1 0x6 ADD PUSH1 0x16 SWAP1 SLOAD SWAP1 PUSH2 0x100 EXP SWAP1 DIV PUSH1 0xFF AND ISZERO ISZERO EQ PUSH2 0x1FDC JUMPI PUSH1 0x40 MLOAD PUSH32 0x8C379A000000000000000000000000000000000000000000000000000000000 DUP2 MSTORE PUSH1 0x4 ADD PUSH2 0x1FD3 SWAP1 PUSH2 0x30BA JUMP JUMPDEST PUSH1 0x40 MLOAD DUP1 SWAP2 SUB SWAP1 REVERT JUMPDEST PUSH1 0x2 PUSH1 0x0 DUP4 PUSH20 0xFFFFFFFFFFFFFFFFFFFFFFFFFFFFFFFFFFFFFFFF AND PUSH20 0xFFFFFFFFFFFFFFFFFFFFFFFFFFFFFFFFFFFFFFFF AND DUP2 MSTORE PUSH1 0x20 ADD SWAP1 DUP2 MSTORE PUSH1 0x20 ADD PUSH1 0x0 KECCAK256 PUSH1 0x40 MLOAD DUP1 PUSH2 0x160 ADD PUSH1 0x40 MSTORE SWAP1 DUP2 PUSH1 0x0 DUP3 ADD DUP1 SLOAD PUSH2 0x2037 SWAP1 PUSH2 0x2DBF JUMP JUMPDEST DUP1 PUSH1 0x1F ADD PUSH1 0x20 DUP1 SWAP2 DIV MUL PUSH1 0x20 ADD PUSH1 0x40 MLOAD SWAP1 DUP2 ADD PUSH1 0x40 MSTORE DUP1 SWAP3 SWAP2 SWAP1 DUP2 DUP2 MSTORE PUSH1 0x20 ADD DUP3 DUP1 SLOAD PUSH2 0x2063 SWAP1 PUSH2 0x2DBF JUMP JUMPDEST DUP1 ISZERO PUSH2 0x20B0 JUMPI DUP1 PUSH1 0x1F LT PUSH2 0x2085 JUMPI PUSH2 0x100 DUP1 DUP4 SLOAD DIV MUL DUP4 MSTORE SWAP2 PUSH1 0x20 ADD SWAP2 PUSH2 0x20B0 JUMP JUMPDEST DUP3 ADD SWAP2 SWAP1 PUSH1 0x0 MSTORE PUSH1 0x20 PUSH1 0x0 KECCAK256 SWAP1 JUMPDEST DUP2 SLOAD DUP2 MSTORE SWAP1 PUSH1 0x1 ADD SWAP1 PUSH1 0x20 ADD DUP1 DUP4 GT PUSH2 0x2093 JUMPI DUP3 SWAP1 SUB PUSH1 0x1F AND DUP3 ADD SWAP2 JUMPDEST POP POP POP POP POP DUP2 MSTORE PUSH1 0x20 ADD PUSH1 0x1 DUP3 ADD DUP1 SLOAD PUSH2 0x20C9 SWAP1 PUSH2 0x2DBF JUMP JUMPDEST DUP1 PUSH1 0x1F ADD PUSH1 0x20 DUP1 SWAP2 DIV MUL PUSH1 0x20 ADD PUSH1 0x40 MLOAD SWAP1 DUP2 ADD PUSH1 0x40 MSTORE DUP1 SWAP3 SWAP2 SWAP1 DUP2 DUP2 MSTORE PUSH1 0x20 ADD DUP3 DUP1 SLOAD PUSH2 0x20F5 SWAP1 PUSH2 0x2DBF JUMP JUMPDEST DUP1 ISZERO PUSH2 0x2142 JUMPI DUP1 PUSH1 0x1F LT PUSH2 0x2117 JUMPI PUSH2 0x100 DUP1 DUP4 SLOAD DIV MUL DUP4 MSTORE SWAP2 PUSH1 0x20 ADD SWAP2 PUSH2 0x2142 JUMP JUMPDEST DUP3 ADD SWAP2 SWAP1 PUSH1 0x0 MSTORE PUSH1 0x20 PUSH1 0x0 KECCAK256 SWAP1 JUMPDEST DUP2 SLOAD DUP2 MSTORE SWAP1 PUSH1 0x1 ADD SWAP1 PUSH1 0x20 ADD DUP1 DUP4 GT PUSH2 0x2125 JUMPI DUP3 SWAP1 SUB PUSH1 0x1F AND DUP3 ADD SWAP2 JUMPDEST POP POP POP POP POP DUP2 MSTORE PUSH1 0x20 ADD PUSH1 0x2 DUP3 ADD DUP1 SLOAD PUSH2 0x215B SWAP1 PUSH2 0x2DBF JUMP JUMPDEST DUP1 PUSH1 0x1F ADD PUSH1 0x20 DUP1 SWAP2 DIV MUL PUSH1 0x20 ADD PUSH1 0x40 MLOAD SWAP1 DUP2 ADD PUSH1 0x40 MSTORE DUP1 SWAP3 SWAP2 SWAP1 DUP2 DUP2 MSTORE PUSH1 0x20 ADD DUP3 DUP1 SLOAD PUSH2 0x2187 SWAP1 PUSH2 0x2DBF JUMP JUMPDEST DUP1 ISZERO PUSH2 0x21D4 JUMPI DUP1 PUSH1 0x1F LT PUSH2 0x21A9 JUMPI PUSH2 0x100 DUP1 DUP4 SLOAD DIV MUL DUP4 MSTORE SWAP2 PUSH1 0x20 ADD SWAP2 PUSH2 0x21D4 JUMP JUMPDEST DUP3 ADD SWAP2 SWAP1 PUSH1 0x0 MSTORE PUSH1 0x20 PUSH1 0x0 KECCAK256 SWAP1 JUMPDEST DUP2 SLOAD DUP2 MSTORE SWAP1 PUSH1 0x1 ADD SWAP1 PUSH1 0x20 ADD DUP1 DUP4 GT PUSH2 0x21B7 JUMPI DUP3 SWAP1 SUB PUSH1 0x1F AND DUP3 ADD SWAP2 JUMPDEST POP POP POP POP POP DUP2 MSTORE PUSH1 0x20 ADD PUSH1 0x3 DUP3 ADD PUSH1 0x0 SWAP1 SLOAD SWAP1 PUSH2 0x100 EXP SWAP1 DIV PUSH1 0xFF AND PUSH1 0xFF AND PUSH1 0xFF AND DUP2 MSTORE PUSH1 0x20 ADD PUSH1 0x4 DUP3 ADD SLOAD DUP2 MSTORE PUSH1 0x20 ADD PUSH1 0x5 DUP3 ADD SLOAD DUP2 MSTORE PUSH1 0x20 ADD PUSH1 0x6 DUP3 ADD PUSH1 0x0 SWAP1 SLOAD SWAP1 PUSH2 0x100 EXP SWAP1 DIV PUSH20 0xFFFFFFFFFFFFFFFFFFFFFFFFFFFFFFFFFFFFFFFF AND PUSH20 0xFFFFFFFFFFFFFFFFFFFFFFFFFFFFFFFFFFFFFFFF AND PUSH20 0xFFFFFFFFFFFFFFFFFFFFFFFFFFFFFFFFFFFFFFFF AND DUP2 MSTORE PUSH1 0x20 ADD PUSH1 0x6 DUP3 ADD PUSH1 0x14 SWAP1 SLOAD SWAP1 PUSH2 0x100 EXP SWAP1 DIV PUSH1 0xFF AND ISZERO ISZERO ISZERO ISZERO DUP2 MSTORE PUSH1 0x20 ADD PUSH1 0x6 DUP3 ADD PUSH1 0x15 SWAP1 SLOAD SWAP1 PUSH2 0x100 EXP SWAP1 DIV PUSH1 0xFF AND ISZERO ISZERO ISZERO ISZERO DUP2 MSTORE PUSH1 0x20 ADD PUSH1 0x6 DUP3 ADD PUSH1 0x16 SWAP1 SLOAD SWAP1 PUSH2 0x100 EXP SWAP1 DIV PUSH1 0xFF AND ISZERO ISZERO ISZERO ISZERO DUP2 MSTORE PUSH1 0x20 ADD PUSH1 0x7 DUP3 ADD PUSH1 0x0 SWAP1 SLOAD SWAP1 PUSH2 0x100 EXP SWAP1 DIV PUSH20 0xFFFFFFFFFFFFFFFFFFFFFFFFFFFFFFFFFFFFFFFF AND PUSH20 0xFFFFFFFFFFFFFFFFFFFFFFFFFFFFFFFFFFFFFFFF AND PUSH20 0xFFFFFFFFFFFFFFFFFFFFFFFFFFFFFFFFFFFFFFFF AND DUP2 MSTORE POP POP SWAP1 POP SWAP2 SWAP1 POP JUMP JUMPDEST PUSH1 0x0 PUSH20 0xFFFFFFFFFFFFFFFFFFFFFFFFFFFFFFFFFFFFFFFF AND PUSH1 0x1 PUSH1 0x0 DUP4 PUSH20 0xFFFFFFFFFFFFFFFFFFFFFFFFFFFFFFFFFFFFFFFF AND PUSH20 0xFFFFFFFFFFFFFFFFFFFFFFFFFFFFFFFFFFFFFFFF AND DUP2 MSTORE PUSH1 0x20 ADD SWAP1 DUP2 MSTORE PUSH1 0x20 ADD PUSH1 0x0 KECCAK256 PUSH1 0x0 DUP5 PUSH20 0xFFFFFFFFFFFFFFFFFFFFFFFFFFFFFFFFFFFFFFFF AND PUSH20 0xFFFFFFFFFFFFFFFFFFFFFFFFFFFFFFFFFFFFFFFF AND DUP2 MSTORE PUSH1 0x20 ADD SWAP1 DUP2 MSTORE PUSH1 0x20 ADD PUSH1 0x0 KECCAK256 PUSH1 0x0 SWAP1 SLOAD SWAP1 PUSH2 0x100 EXP SWAP1 DIV PUSH20 0xFFFFFFFFFFFFFFFFFFFFFFFFFFFFFFFFFFFFFFFF AND PUSH20 0xFFFFFFFFFFFFFFFFFFFFFFFFFFFFFFFFFFFFFFFF AND EQ PUSH2 0x241D JUMPI PUSH1 0x40 MLOAD PUSH32 0x8C379A000000000000000000000000000000000000000000000000000000000 DUP2 MSTORE PUSH1 0x4 ADD PUSH2 0x2414 SWAP1 PUSH2 0x30BA JUMP JUMPDEST PUSH1 0x40 MLOAD DUP1 SWAP2 SUB SWAP1 REVERT JUMPDEST PUSH1 0x1 PUSH1 0x0 DUP3 PUSH20 0xFFFFFFFFFFFFFFFFFFFFFFFFFFFFFFFFFFFFFFFF AND PUSH20 0xFFFFFFFFFFFFFFFFFFFFFFFFFFFFFFFFFFFFFFFF AND DUP2 MSTORE PUSH1 0x20 ADD SWAP1 DUP2 MSTORE PUSH1 0x20 ADD PUSH1 0x0 KECCAK256 PUSH1 0x0 DUP4 PUSH20 0xFFFFFFFFFFFFFFFFFFFFFFFFFFFFFFFFFFFFFFFF AND PUSH20 0xFFFFFFFFFFFFFFFFFFFFFFFFFFFFFFFFFFFFFFFF AND DUP2 MSTORE PUSH1 0x20 ADD SWAP1 DUP2 MSTORE PUSH1 0x20 ADD PUSH1 0x0 KECCAK256 PUSH1 0x0 PUSH2 0x100 EXP DUP2 SLOAD SWAP1 PUSH20 0xFFFFFFFFFFFFFFFFFFFFFFFFFFFFFFFFFFFFFFFF MUL NOT AND SWAP1 SSTORE POP POP JUMP JUMPDEST PUSH1 0x40 MLOAD DUP1 PUSH2 0x160 ADD PUSH1 0x40 MSTORE DUP1 PUSH1 0x60 DUP2 MSTORE PUSH1 0x20 ADD PUSH1 0x60 DUP2 MSTORE PUSH1 0x20 ADD PUSH1 0x60 DUP2 MSTORE PUSH1 0x20 ADD PUSH1 0x0 PUSH1 0xFF AND DUP2 MSTORE PUSH1 0x20 ADD PUSH1 0x0 DUP2 MSTORE PUSH1 0x20 ADD PUSH1 0x0 DUP2 MSTORE PUSH1 0x20 ADD PUSH1 0x0 PUSH20 0xFFFFFFFFFFFFFFFFFFFFFFFFFFFFFFFFFFFFFFFF AND DUP2 MSTORE PUSH1 0x20 ADD PUSH1 0x0 ISZERO ISZERO DUP2 MSTORE PUSH1 0x20 ADD PUSH1 0x0 ISZERO ISZERO DUP2 MSTORE PUSH1 0x20 ADD PUSH1 0x0 ISZERO ISZERO DUP2 MSTORE PUSH1 0x20 ADD PUSH1 0x0 PUSH20 0xFFFFFFFFFFFFFFFFFFFFFFFFFFFFFFFFFFFFFFFF AND DUP2 MSTORE POP SWAP1 JUMP JUMPDEST PUSH1 0x0 PUSH1 0x40 MLOAD SWAP1 POP SWAP1 JUMP JUMPDEST PUSH1 0x0 DUP1 REVERT JUMPDEST PUSH1 0x0 DUP1 REVERT JUMPDEST PUSH1 0x0 PUSH20 0xFFFFFFFFFFFFFFFFFFFFFFFFFFFFFFFFFFFFFFFF DUP3 AND SWAP1 POP SWAP2 SWAP1 POP JUMP JUMPDEST PUSH1 0x0 PUSH2 0x258E DUP3 PUSH2 0x2563 JUMP JUMPDEST SWAP1 POP SWAP2 SWAP1 POP JUMP JUMPDEST PUSH2 0x259E DUP2 PUSH2 0x2583 JUMP JUMPDEST DUP2 EQ PUSH2 0x25A9 JUMPI PUSH1 0x0 DUP1 REVERT JUMPDEST POP JUMP JUMPDEST PUSH1 0x0 DUP2 CALLDATALOAD SWAP1 POP PUSH2 0x25BB DUP2 PUSH2 0x2595 JUMP JUMPDEST SWAP3 SWAP2 POP POP JUMP JUMPDEST PUSH1 0x0 PUSH1 0x20 DUP3 DUP5 SUB SLT ISZERO PUSH2 0x25D7 JUMPI PUSH2 0x25D6 PUSH2 0x2559 JUMP JUMPDEST JUMPDEST PUSH1 0x0 PUSH2 0x25E5 DUP5 DUP3 DUP6 ADD PUSH2 0x25AC JUMP JUMPDEST SWAP2 POP POP SWAP3 SWAP2 POP POP JUMP JUMPDEST PUSH1 0x0 DUP1 REVERT JUMPDEST PUSH1 0x0 PUSH1 0x1F NOT PUSH1 0x1F DUP4 ADD AND SWAP1 POP SWAP2 SWAP1 POP JUMP JUMPDEST PUSH32 0x4E487B7100000000000000000000000000000000000000000000000000000000 PUSH1 0x0 MSTORE PUSH1 0x41 PUSH1 0x4 MSTORE PUSH1 0x24 PUSH1 0x0 REVERT JUMPDEST PUSH2 0x263C DUP3 PUSH2 0x25F3 JUMP JUMPDEST DUP2 ADD DUP2 DUP2 LT PUSH8 0xFFFFFFFFFFFFFFFF DUP3 GT OR ISZERO PUSH2 0x265B JUMPI PUSH2 0x265A PUSH2 0x2604 JUMP JUMPDEST JUMPDEST DUP1 PUSH1 0x40 MSTORE POP POP POP JUMP JUMPDEST PUSH1 0x0 PUSH2 0x266E PUSH2 0x254F JUMP JUMPDEST SWAP1 POP PUSH2 0x267A DUP3 DUP3 PUSH2 0x2633 JUMP JUMPDEST SWAP2 SWAP1 POP JUMP JUMPDEST PUSH1 0x0 DUP1 REVERT JUMPDEST PUSH1 0x0 DUP1 REVERT JUMPDEST PUSH1 0x0 DUP1 REVERT JUMPDEST PUSH1 0x0 PUSH8 0xFFFFFFFFFFFFFFFF DUP3 GT ISZERO PUSH2 0x26A9 JUMPI PUSH2 0x26A8 PUSH2 0x2604 JUMP JUMPDEST JUMPDEST PUSH2 0x26B2 DUP3 PUSH2 0x25F3 JUMP JUMPDEST SWAP1 POP PUSH1 0x20 DUP2 ADD SWAP1 POP SWAP2 SWAP1 POP JUMP JUMPDEST DUP3 DUP2 DUP4 CALLDATACOPY PUSH1 0x0 DUP4 DUP4 ADD MSTORE POP POP POP JUMP JUMPDEST PUSH1 0x0 PUSH2 0x26E1 PUSH2 0x26DC DUP5 PUSH2 0x268E JUMP JUMPDEST PUSH2 0x2664 JUMP JUMPDEST SWAP1 POP DUP3 DUP2 MSTORE PUSH1 0x20 DUP2 ADD DUP5 DUP5 DUP5 ADD GT ISZERO PUSH2 0x26FD JUMPI PUSH2 0x26FC PUSH2 0x2689 JUMP JUMPDEST JUMPDEST PUSH2 0x2708 DUP5 DUP3 DUP6 PUSH2 0x26BF JUMP JUMPDEST POP SWAP4 SWAP3 POP POP POP JUMP JUMPDEST PUSH1 0x0 DUP3 PUSH1 0x1F DUP4 ADD SLT PUSH2 0x2725 JUMPI PUSH2 0x2724 PUSH2 0x2684 JUMP JUMPDEST JUMPDEST DUP2 CALLDATALOAD PUSH2 0x2735 DUP5 DUP3 PUSH1 0x20 DUP7 ADD PUSH2 0x26CE JUMP JUMPDEST SWAP2 POP POP SWAP3 SWAP2 POP POP JUMP JUMPDEST PUSH1 0x0 PUSH1 0xFF DUP3 AND SWAP1 POP SWAP2 SWAP1 POP JUMP JUMPDEST PUSH2 0x2754 DUP2 PUSH2 0x273E JUMP JUMPDEST DUP2 EQ PUSH2 0x275F JUMPI PUSH1 0x0 DUP1 REVERT JUMPDEST POP JUMP JUMPDEST PUSH1 0x0 DUP2 CALLDATALOAD SWAP1 POP PUSH2 0x2771 DUP2 PUSH2 0x274B JUMP JUMPDEST SWAP3 SWAP2 POP POP JUMP JUMPDEST PUSH1 0x0 DUP2 SWAP1 POP SWAP2 SWAP1 POP JUMP JUMPDEST PUSH2 0x278A DUP2 PUSH2 0x2777 JUMP JUMPDEST DUP2 EQ PUSH2 0x2795 JUMPI PUSH1 0x0 DUP1 REVERT JUMPDEST POP JUMP JUMPDEST PUSH1 0x0 DUP2 CALLDATALOAD SWAP1 POP PUSH2 0x27A7 DUP2 PUSH2 0x2781 JUMP JUMPDEST SWAP3 SWAP2 POP POP JUMP JUMPDEST PUSH1 0x0 DUP2 ISZERO ISZERO SWAP1 POP SWAP2 SWAP1 POP JUMP JUMPDEST PUSH2 0x27C2 DUP2 PUSH2 0x27AD JUMP JUMPDEST DUP2 EQ PUSH2 0x27CD JUMPI PUSH1 0x0 DUP1 REVERT JUMPDEST POP JUMP JUMPDEST PUSH1 0x0 DUP2 CALLDATALOAD SWAP1 POP PUSH2 0x27DF DUP2 PUSH2 0x27B9 JUMP JUMPDEST SWAP3 SWAP2 POP POP JUMP JUMPDEST PUSH1 0x0 PUSH2 0x160 DUP3 DUP5 SUB SLT ISZERO PUSH2 0x27FC JUMPI PUSH2 0x27FB PUSH2 0x25EE JUMP JUMPDEST JUMPDEST PUSH2 0x2807 PUSH2 0x160 PUSH2 0x2664 JUMP JUMPDEST SWAP1 POP PUSH1 0x0 DUP3 ADD CALLDATALOAD PUSH8 0xFFFFFFFFFFFFFFFF DUP2 GT ISZERO PUSH2 0x2827 JUMPI PUSH2 0x2826 PUSH2 0x267F JUMP JUMPDEST JUMPDEST PUSH2 0x2833 DUP5 DUP3 DUP6 ADD PUSH2 0x2710 JUMP JUMPDEST PUSH1 0x0 DUP4 ADD MSTORE POP PUSH1 0x20 DUP3 ADD CALLDATALOAD PUSH8 0xFFFFFFFFFFFFFFFF DUP2 GT ISZERO PUSH2 0x2857 JUMPI PUSH2 0x2856 PUSH2 0x267F JUMP JUMPDEST JUMPDEST PUSH2 0x2863 DUP5 DUP3 DUP6 ADD PUSH2 0x2710 JUMP JUMPDEST PUSH1 0x20 DUP4 ADD MSTORE POP PUSH1 0x40 DUP3 ADD CALLDATALOAD PUSH8 0xFFFFFFFFFFFFFFFF DUP2 GT ISZERO PUSH2 0x2887 JUMPI PUSH2 0x2886 PUSH2 0x267F JUMP JUMPDEST JUMPDEST PUSH2 0x2893 DUP5 DUP3 DUP6 ADD PUSH2 0x2710 JUMP JUMPDEST PUSH1 0x40 DUP4 ADD MSTORE POP PUSH1 0x60 PUSH2 0x28A7 DUP5 DUP3 DUP6 ADD PUSH2 0x2762 JUMP JUMPDEST PUSH1 0x60 DUP4 ADD MSTORE POP PUSH1 0x80 PUSH2 0x28BB DUP5 DUP3 DUP6 ADD PUSH2 0x2798 JUMP JUMPDEST PUSH1 0x80 DUP4 ADD MSTORE POP PUSH1 0xA0 PUSH2 0x28CF DUP5 DUP3 DUP6 ADD PUSH2 0x2798 JUMP JUMPDEST PUSH1 0xA0 DUP4 ADD MSTORE POP PUSH1 0xC0 PUSH2 0x28E3 DUP5 DUP3 DUP6 ADD PUSH2 0x25AC JUMP JUMPDEST PUSH1 0xC0 DUP4 ADD MSTORE POP PUSH1 0xE0 PUSH2 0x28F7 DUP5 DUP3 DUP6 ADD PUSH2 0x27D0 JUMP JUMPDEST PUSH1 0xE0 DUP4 ADD MSTORE POP PUSH2 0x100 PUSH2 0x290C DUP5 DUP3 DUP6 ADD PUSH2 0x27D0 JUMP JUMPDEST PUSH2 0x100 DUP4 ADD MSTORE POP PUSH2 0x120 PUSH2 0x2922 DUP5 DUP3 DUP6 ADD PUSH2 0x27D0 JUMP JUMPDEST PUSH2 0x120 DUP4 ADD MSTORE POP PUSH2 0x140 PUSH2 0x2938 DUP5 DUP3 DUP6 ADD PUSH2 0x25AC JUMP JUMPDEST PUSH2 0x140 DUP4 ADD MSTORE POP SWAP3 SWAP2 POP POP JUMP JUMPDEST PUSH1 0x0 PUSH1 0x20 DUP3 DUP5 SUB SLT ISZERO PUSH2 0x295B JUMPI PUSH2 0x295A PUSH2 0x2559 JUMP JUMPDEST JUMPDEST PUSH1 0x0 DUP3 ADD CALLDATALOAD PUSH8 0xFFFFFFFFFFFFFFFF DUP2 GT ISZERO PUSH2 0x2979 JUMPI PUSH2 0x2978 PUSH2 0x255E JUMP JUMPDEST JUMPDEST PUSH2 0x2985 DUP5 DUP3 DUP6 ADD PUSH2 0x27E5 JUMP JUMPDEST SWAP2 POP POP SWAP3 SWAP2 POP POP JUMP JUMPDEST PUSH1 0x0 DUP2 MLOAD SWAP1 POP SWAP2 SWAP1 POP JUMP JUMPDEST PUSH1 0x0 DUP3 DUP3 MSTORE PUSH1 0x20 DUP3 ADD SWAP1 POP SWAP3 SWAP2 POP POP JUMP JUMPDEST PUSH1 0x0 JUMPDEST DUP4 DUP2 LT ISZERO PUSH2 0x29C8 JUMPI DUP1 DUP3 ADD MLOAD DUP2 DUP5 ADD MSTORE PUSH1 0x20 DUP2 ADD SWAP1 POP PUSH2 0x29AD JUMP JUMPDEST PUSH1 0x0 DUP5 DUP5 ADD MSTORE POP POP POP POP JUMP JUMPDEST PUSH1 0x0 PUSH2 0x29DF DUP3 PUSH2 0x298E JUMP JUMPDEST PUSH2 0x29E9 DUP2 DUP6 PUSH2 0x2999 JUMP JUMPDEST SWAP4 POP PUSH2 0x29F9 DUP2 DUP6 PUSH1 0x20 DUP7 ADD PUSH2 0x29AA JUMP JUMPDEST PUSH2 0x2A02 DUP2 PUSH2 0x25F3 JUMP JUMPDEST DUP5 ADD SWAP2 POP POP SWAP3 SWAP2 POP POP JUMP JUMPDEST PUSH2 0x2A16 DUP2 PUSH2 0x273E JUMP JUMPDEST DUP3 MSTORE POP POP JUMP JUMPDEST PUSH2 0x2A25 DUP2 PUSH2 0x2777 JUMP JUMPDEST DUP3 MSTORE POP POP JUMP JUMPDEST PUSH2 0x2A34 DUP2 PUSH2 0x2583 JUMP JUMPDEST DUP3 MSTORE POP POP JUMP JUMPDEST PUSH2 0x2A43 DUP2 PUSH2 0x27AD JUMP JUMPDEST DUP3 MSTORE POP POP JUMP JUMPDEST PUSH1 0x0 PUSH2 0x160 DUP3 ADD SWAP1 POP DUP2 DUP2 SUB PUSH1 0x0 DUP4 ADD MSTORE PUSH2 0x2A64 DUP2 DUP15 PUSH2 0x29D4 JUMP JUMPDEST SWAP1 POP DUP2 DUP2 SUB PUSH1 0x20 DUP4 ADD MSTORE PUSH2 0x2A78 DUP2 DUP14 PUSH2 0x29D4 JUMP JUMPDEST SWAP1 POP DUP2 DUP2 SUB PUSH1 0x40 DUP4 ADD MSTORE PUSH2 0x2A8C DUP2 DUP13 PUSH2 0x29D4 JUMP JUMPDEST SWAP1 POP PUSH2 0x2A9B PUSH1 0x60 DUP4 ADD DUP12 PUSH2 0x2A0D JUMP JUMPDEST PUSH2 0x2AA8 PUSH1 0x80 DUP4 ADD DUP11 PUSH2 0x2A1C JUMP JUMPDEST PUSH2 0x2AB5 PUSH1 0xA0 DUP4 ADD DUP10 PUSH2 0x2A1C JUMP JUMPDEST PUSH2 0x2AC2 PUSH1 0xC0 DUP4 ADD DUP9 PUSH2 0x2A2B JUMP JUMPDEST PUSH2 0x2ACF PUSH1 0xE0 DUP4 ADD DUP8 PUSH2 0x2A3A JUMP JUMPDEST PUSH2 0x2ADD PUSH2 0x100 DUP4 ADD DUP7 PUSH2 0x2A3A JUMP JUMPDEST PUSH2 0x2AEB PUSH2 0x120 DUP4 ADD DUP6 PUSH2 0x2A3A JUMP JUMPDEST PUSH2 0x2AF9 PUSH2 0x140 DUP4 ADD DUP5 PUSH2 0x2A2B JUMP JUMPDEST SWAP13 SWAP12 POP POP POP POP POP POP POP POP POP POP POP POP JUMP JUMPDEST PUSH1 0x0 PUSH1 0x20 DUP3 ADD SWAP1 POP PUSH2 0x2B1E PUSH1 0x0 DUP4 ADD DUP5 PUSH2 0x2A3A JUMP JUMPDEST SWAP3 SWAP2 POP POP JUMP JUMPDEST PUSH1 0x0 PUSH1 0x20 DUP3 ADD SWAP1 POP PUSH2 0x2B39 PUSH1 0x0 DUP4 ADD DUP5 PUSH2 0x2A2B JUMP JUMPDEST SWAP3 SWAP2 POP POP JUMP JUMPDEST PUSH1 0x0 DUP1 PUSH1 0x40 DUP4 DUP6 SUB SLT ISZERO PUSH2 0x2B56 JUMPI PUSH2 0x2B55 PUSH2 0x2559 JUMP JUMPDEST JUMPDEST PUSH1 0x0 PUSH2 0x2B64 DUP6 DUP3 DUP7 ADD PUSH2 0x25AC JUMP JUMPDEST SWAP3 POP POP PUSH1 0x20 PUSH2 0x2B75 DUP6 DUP3 DUP7 ADD PUSH2 0x25AC JUMP JUMPDEST SWAP2 POP POP SWAP3 POP SWAP3 SWAP1 POP JUMP JUMPDEST PUSH1 0x0 DUP3 DUP3 MSTORE PUSH1 0x20 DUP3 ADD SWAP1 POP SWAP3 SWAP2 POP POP JUMP JUMPDEST PUSH1 0x0 PUSH2 0x2B9B DUP3 PUSH2 0x298E JUMP JUMPDEST PUSH2 0x2BA5 DUP2 DUP6 PUSH2 0x2B7F JUMP JUMPDEST SWAP4 POP PUSH2 0x2BB5 DUP2 DUP6 PUSH1 0x20 DUP7 ADD PUSH2 0x29AA JUMP JUMPDEST PUSH2 0x2BBE DUP2 PUSH2 0x25F3 JUMP JUMPDEST DUP5 ADD SWAP2 POP POP SWAP3 SWAP2 POP POP JUMP JUMPDEST PUSH2 0x2BD2 DUP2 PUSH2 0x273E JUMP JUMPDEST DUP3 MSTORE POP POP JUMP JUMPDEST PUSH2 0x2BE1 DUP2 PUSH2 0x2777 JUMP JUMPDEST DUP3 MSTORE POP POP JUMP JUMPDEST PUSH2 0x2BF0 DUP2 PUSH2 0x2583 JUMP JUMPDEST DUP3 MSTORE POP POP JUMP JUMPDEST PUSH2 0x2BFF DUP2 PUSH2 0x27AD JUMP JUMPDEST DUP3 MSTORE POP POP JUMP JUMPDEST PUSH1 0x0 PUSH2 0x160 DUP4 ADD PUSH1 0x0 DUP4 ADD MLOAD DUP5 DUP3 SUB PUSH1 0x0 DUP7 ADD MSTORE PUSH2 0x2C23 DUP3 DUP3 PUSH2 0x2B90 JUMP JUMPDEST SWAP2 POP POP PUSH1 0x20 DUP4 ADD MLOAD DUP5 DUP3 SUB PUSH1 0x20 DUP7 ADD MSTORE PUSH2 0x2C3D DUP3 DUP3 PUSH2 0x2B90 JUMP JUMPDEST SWAP2 POP POP PUSH1 0x40 DUP4 ADD MLOAD DUP5 DUP3 SUB PUSH1 0x40 DUP7 ADD MSTORE PUSH2 0x2C57 DUP3 DUP3 PUSH2 0x2B90 JUMP JUMPDEST SWAP2 POP POP PUSH1 0x60 DUP4 ADD MLOAD PUSH2 0x2C6C PUSH1 0x60 DUP7 ADD DUP3 PUSH2 0x2BC9 JUMP JUMPDEST POP PUSH1 0x80 DUP4 ADD MLOAD PUSH2 0x2C7F PUSH1 0x80 DUP7 ADD DUP3 PUSH2 0x2BD8 JUMP JUMPDEST POP PUSH1 0xA0 DUP4 ADD MLOAD PUSH2 0x2C92 PUSH1 0xA0 DUP7 ADD DUP3 PUSH2 0x2BD8 JUMP JUMPDEST POP PUSH1 0xC0 DUP4 ADD MLOAD PUSH2 0x2CA5 PUSH1 0xC0 DUP7 ADD DUP3 PUSH2 0x2BE7 JUMP JUMPDEST POP PUSH1 0xE0 DUP4 ADD MLOAD PUSH2 0x2CB8 PUSH1 0xE0 DUP7 ADD DUP3 PUSH2 0x2BF6 JUMP JUMPDEST POP PUSH2 0x100 DUP4 ADD MLOAD PUSH2 0x2CCD PUSH2 0x100 DUP7 ADD DUP3 PUSH2 0x2BF6 JUMP JUMPDEST POP PUSH2 0x120 DUP4 ADD MLOAD PUSH2 0x2CE2 PUSH2 0x120 DUP7 ADD DUP3 PUSH2 0x2BF6 JUMP JUMPDEST POP PUSH2 0x140 DUP4 ADD MLOAD PUSH2 0x2CF7 PUSH2 0x140 DUP7 ADD DUP3 PUSH2 0x2BE7 JUMP JUMPDEST POP DUP1 SWAP2 POP POP SWAP3 SWAP2 POP POP JUMP JUMPDEST PUSH1 0x0 PUSH1 0x20 DUP3 ADD SWAP1 POP DUP2 DUP2 SUB PUSH1 0x0 DUP4 ADD MSTORE PUSH2 0x2D1C DUP2 DUP5 PUSH2 0x2C05 JUMP JUMPDEST SWAP1 POP SWAP3 SWAP2 POP POP JUMP JUMPDEST PUSH32 0x796F752068617665206E6F742074686520726967687400000000000000000000 PUSH1 0x0 DUP3 ADD MSTORE POP JUMP JUMPDEST PUSH1 0x0 PUSH2 0x2D5A PUSH1 0x16 DUP4 PUSH2 0x2999 JUMP JUMPDEST SWAP2 POP PUSH2 0x2D65 DUP3 PUSH2 0x2D24 JUMP JUMPDEST PUSH1 0x20 DUP3 ADD SWAP1 POP SWAP2 SWAP1 POP JUMP JUMPDEST PUSH1 0x0 PUSH1 0x20 DUP3 ADD SWAP1 POP DUP2 DUP2 SUB PUSH1 0x0 DUP4 ADD MSTORE PUSH2 0x2D89 DUP2 PUSH2 0x2D4D JUMP JUMPDEST SWAP1 POP SWAP2 SWAP1 POP JUMP JUMPDEST PUSH32 0x4E487B7100000000000000000000000000000000000000000000000000000000 PUSH1 0x0 MSTORE PUSH1 0x22 PUSH1 0x4 MSTORE PUSH1 0x24 PUSH1 0x0 REVERT JUMPDEST PUSH1 0x0 PUSH1 0x2 DUP3 DIV SWAP1 POP PUSH1 0x1 DUP3 AND DUP1 PUSH2 0x2DD7 JUMPI PUSH1 0x7F DUP3 AND SWAP2 POP JUMPDEST PUSH1 0x20 DUP3 LT DUP2 SUB PUSH2 0x2DEA JUMPI PUSH2 0x2DE9 PUSH2 0x2D90 JUMP JUMPDEST JUMPDEST POP SWAP2 SWAP1 POP JUMP JUMPDEST PUSH1 0x0 DUP2 SWAP1 POP DUP2 PUSH1 0x0 MSTORE PUSH1 0x20 PUSH1 0x0 KECCAK256 SWAP1 POP SWAP2 SWAP1 POP JUMP JUMPDEST PUSH1 0x0 PUSH1 0x20 PUSH1 0x1F DUP4 ADD DIV SWAP1 POP SWAP2 SWAP1 POP JUMP JUMPDEST PUSH1 0x0 DUP3 DUP3 SHL SWAP1 POP SWAP3 SWAP2 POP POP JUMP JUMPDEST PUSH1 0x0 PUSH1 0x8 DUP4 MUL PUSH2 0x2E52 PUSH32 0xFFFFFFFFFFFFFFFFFFFFFFFFFFFFFFFFFFFFFFFFFFFFFFFFFFFFFFFFFFFFFFFF DUP3 PUSH2 0x2E15 JUMP JUMPDEST PUSH2 0x2E5C DUP7 DUP4 PUSH2 0x2E15 JUMP JUMPDEST SWAP6 POP DUP1 NOT DUP5 AND SWAP4 POP DUP1 DUP7 AND DUP5 OR SWAP3 POP POP POP SWAP4 SWAP3 POP POP POP JUMP JUMPDEST PUSH1 0x0 DUP2 SWAP1 POP SWAP2 SWAP1 POP JUMP JUMPDEST PUSH1 0x0 PUSH2 0x2E99 PUSH2 0x2E94 PUSH2 0x2E8F DUP5 PUSH2 0x2777 JUMP JUMPDEST PUSH2 0x2E74 JUMP JUMPDEST PUSH2 0x2777 JUMP JUMPDEST SWAP1 POP SWAP2 SWAP1 POP JUMP JUMPDEST PUSH1 0x0 DUP2 SWAP1 POP SWAP2 SWAP1 POP JUMP JUMPDEST PUSH2 0x2EB3 DUP4 PUSH2 0x2E7E JUMP JUMPDEST PUSH2 0x2EC7 PUSH2 0x2EBF DUP3 PUSH2 0x2EA0 JUMP JUMPDEST DUP5 DUP5 SLOAD PUSH2 0x2E22 JUMP JUMPDEST DUP3 SSTORE POP POP POP POP JUMP JUMPDEST PUSH1 0x0 SWAP1 JUMP JUMPDEST PUSH2 0x2EDC PUSH2 0x2ECF JUMP JUMPDEST PUSH2 0x2EE7 DUP2 DUP5 DUP5 PUSH2 0x2EAA JUMP JUMPDEST POP POP POP JUMP JUMPDEST JUMPDEST DUP2 DUP2 LT ISZERO PUSH2 0x2F0B JUMPI PUSH2 0x2F00 PUSH1 0x0 DUP3 PUSH2 0x2ED4 JUMP JUMPDEST PUSH1 0x1 DUP2 ADD SWAP1 POP PUSH2 0x2EED JUMP JUMPDEST POP POP JUMP JUMPDEST PUSH1 0x1F DUP3 GT ISZERO PUSH2 0x2F50 JUMPI PUSH2 0x2F21 DUP2 PUSH2 0x2DF0 JUMP JUMPDEST PUSH2 0x2F2A DUP5 PUSH2 0x2E05 JUMP JUMPDEST DUP2 ADD PUSH1 0x20 DUP6 LT ISZERO PUSH2 0x2F39 JUMPI DUP2 SWAP1 POP JUMPDEST PUSH2 0x2F4D PUSH2 0x2F45 DUP6 PUSH2 0x2E05 JUMP JUMPDEST DUP4 ADD DUP3 PUSH2 0x2EEC JUMP JUMPDEST POP POP JUMPDEST POP POP POP JUMP JUMPDEST PUSH1 0x0 DUP3 DUP3 SHR SWAP1 POP SWAP3 SWAP2 POP POP JUMP JUMPDEST PUSH1 0x0 PUSH2 0x2F73 PUSH1 0x0 NOT DUP5 PUSH1 0x8 MUL PUSH2 0x2F55 JUMP JUMPDEST NOT DUP1 DUP4 AND SWAP2 POP POP SWAP3 SWAP2 POP POP JUMP JUMPDEST PUSH1 0x0 PUSH2 0x2F8C DUP4 DUP4 PUSH2 0x2F62 JUMP JUMPDEST SWAP2 POP DUP3 PUSH1 0x2 MUL DUP3 OR SWAP1 POP SWAP3 SWAP2 POP POP JUMP JUMPDEST PUSH2 0x2FA5 DUP3 PUSH2 0x298E JUMP JUMPDEST PUSH8 0xFFFFFFFFFFFFFFFF DUP2 GT ISZERO PUSH2 0x2FBE JUMPI PUSH2 0x2FBD PUSH2 0x2604 JUMP JUMPDEST JUMPDEST PUSH2 0x2FC8 DUP3 SLOAD PUSH2 0x2DBF JUMP JUMPDEST PUSH2 0x2FD3 DUP3 DUP3 DUP6 PUSH2 0x2F0F JUMP JUMPDEST PUSH1 0x0 PUSH1 0x20 SWAP1 POP PUSH1 0x1F DUP4 GT PUSH1 0x1 DUP2 EQ PUSH2 0x3006 JUMPI PUSH1 0x0 DUP5 ISZERO PUSH2 0x2FF4 JUMPI DUP3 DUP8 ADD MLOAD SWAP1 POP JUMPDEST PUSH2 0x2FFE DUP6 DUP3 PUSH2 0x2F80 JUMP JUMPDEST DUP7 SSTORE POP PUSH2 0x3066 JUMP JUMPDEST PUSH1 0x1F NOT DUP5 AND PUSH2 0x3014 DUP7 PUSH2 0x2DF0 JUMP JUMPDEST PUSH1 0x0 JUMPDEST DUP3 DUP2 LT ISZERO PUSH2 0x303C JUMPI DUP5 DUP10 ADD MLOAD DUP3 SSTORE PUSH1 0x1 DUP3 ADD SWAP2 POP PUSH1 0x20 DUP6 ADD SWAP5 POP PUSH1 0x20 DUP2 ADD SWAP1 POP PUSH2 0x3017 JUMP JUMPDEST DUP7 DUP4 LT ISZERO PUSH2 0x3059 JUMPI DUP5 DUP10 ADD MLOAD PUSH2 0x3055 PUSH1 0x1F DUP10 AND DUP3 PUSH2 0x2F62 JUMP JUMPDEST DUP4 SSTORE POP JUMPDEST PUSH1 0x1 PUSH1 0x2 DUP9 MUL ADD DUP9 SSTORE POP POP POP JUMPDEST POP POP POP POP POP POP JUMP JUMPDEST PUSH32 0x74686520636F696E206973206E6F742065786973747300000000000000000000 PUSH1 0x0 DUP3 ADD MSTORE POP JUMP JUMPDEST PUSH1 0x0 PUSH2 0x30A4 PUSH1 0x16 DUP4 PUSH2 0x2999 JUMP JUMPDEST SWAP2 POP PUSH2 0x30AF DUP3 PUSH2 0x306E JUMP JUMPDEST PUSH1 0x20 DUP3 ADD SWAP1 POP SWAP2 SWAP1 POP JUMP JUMPDEST PUSH1 0x0 PUSH1 0x20 DUP3 ADD SWAP1 POP DUP2 DUP2 SUB PUSH1 0x0 DUP4 ADD MSTORE PUSH2 0x30D3 DUP2 PUSH2 0x3097 JUMP JUMPDEST SWAP1 POP SWAP2 SWAP1 POP JUMP JUMPDEST PUSH32 0x74686520636F696E2065786973747320696E20746865206D61726B6574000000 PUSH1 0x0 DUP3 ADD MSTORE POP JUMP JUMPDEST PUSH1 0x0 PUSH2 0x3110 PUSH1 0x1D DUP4 PUSH2 0x2999 JUMP JUMPDEST SWAP2 POP PUSH2 0x311B DUP3 PUSH2 0x30DA JUMP JUMPDEST PUSH1 0x20 DUP3 ADD SWAP1 POP SWAP2 SWAP1 POP JUMP JUMPDEST PUSH1 0x0 PUSH1 0x20 DUP3 ADD SWAP1 POP DUP2 DUP2 SUB PUSH1 0x0 DUP4 ADD MSTORE PUSH2 0x313F DUP2 PUSH2 0x3103 JUMP JUMPDEST SWAP1 POP SWAP2 SWAP1 POP JUMP JUMPDEST PUSH32 0x74686520636F696E2065786973747320696E2074686520676174650000000000 PUSH1 0x0 DUP3 ADD MSTORE POP JUMP JUMPDEST PUSH1 0x0 PUSH2 0x317C PUSH1 0x1B DUP4 PUSH2 0x2999 JUMP JUMPDEST SWAP2 POP PUSH2 0x3187 DUP3 PUSH2 0x3146 JUMP JUMPDEST PUSH1 0x20 DUP3 ADD SWAP1 POP SWAP2 SWAP1 POP JUMP JUMPDEST PUSH1 0x0 PUSH1 0x20 DUP3 ADD SWAP1 POP DUP2 DUP2 SUB PUSH1 0x0 DUP4 ADD MSTORE PUSH2 0x31AB DUP2 PUSH2 0x316F JUMP JUMPDEST SWAP1 POP SWAP2 SWAP1 POP JUMP JUMPDEST PUSH32 0x74686520636F696E206973202065786973747320696E206D61726B6574000000 PUSH1 0x0 DUP3 ADD MSTORE POP JUMP JUMPDEST PUSH1 0x0 PUSH2 0x31E8 PUSH1 0x1D DUP4 PUSH2 0x2999 JUMP JUMPDEST SWAP2 POP PUSH2 0x31F3 DUP3 PUSH2 0x31B2 JUMP JUMPDEST PUSH1 0x20 DUP3 ADD SWAP1 POP SWAP2 SWAP1 POP JUMP JUMPDEST PUSH1 0x0 PUSH1 0x20 DUP3 ADD SWAP1 POP DUP2 DUP2 SUB PUSH1 0x0 DUP4 ADD MSTORE PUSH2 0x3217 DUP2 PUSH2 0x31DB JUMP JUMPDEST SWAP1 POP SWAP2 SWAP1 POP JUMP INVALID LOG2 PUSH5 0x6970667358 0x22 SLT KECCAK256 0xA5 0xDB 0x2D PUSH7 0x76259AF33F33 0x4C PUSH22 0x8D98C890D08221CA0871701394F8FDA3610BBC64736F PUSH13 0x63430008120033000000000000 "
				},
				"gasEstimates": {
					"creation": {
						"codeDepositCost": "2576800",
						"executionCost": "infinite",
						"totalCost": "infinite"
					},
					"external": {
						"addCoinbyGator((string,string,string,uint8,uint256,uint256,address,bool,bool,bool,address))": "infinite",
						"addCoinbyMarketor((string,string,string,uint8,uint256,uint256,address,bool,bool,bool,address))": "infinite",
						"coinList(address)": "infinite",
						"delCoinbyMarketor(address)": "27093",
						"delGateCoinbyMarketor(address,address)": "infinite",
						"gateCoinList(address,address)": "infinite",
						"gatorContractAddress()": "infinite",
						"getCoinInfo(address)": "infinite",
						"impoveGateCoinbyMarketor(address,address)": "infinite",
						"isValidCoin(address)": "3029",
						"lockCoinbyGator(address)": "27201",
						"lockCoinbyMarketor(address)": "24957",
						"marketCoinList(address)": "infinite",
						"marketorContractAddress()": "infinite",
						"unlockCoinbyGator(address)": "27157",
						"unlockCoinbyMarketor(address)": "24892",
						"updateCoinbyGator((string,string,string,uint8,uint256,uint256,address,bool,bool,bool,address))": "infinite",
						"updateCoinbyMarketor((string,string,string,uint8,uint256,uint256,address,bool,bool,bool,address))": "infinite"
					}
				},
				"methodIdentifiers": {
					"addCoinbyGator((string,string,string,uint8,uint256,uint256,address,bool,bool,bool,address))": "a3967d0d",
					"addCoinbyMarketor((string,string,string,uint8,uint256,uint256,address,bool,bool,bool,address))": "b73436fd",
					"coinList(address)": "31ecdeb8",
					"delCoinbyMarketor(address)": "7c3e2f02",
					"delGateCoinbyMarketor(address,address)": "eaec0112",
					"gateCoinList(address,address)": "cc0bf757",
					"gatorContractAddress()": "47d0a634",
					"getCoinInfo(address)": "e8dd4655",
					"impoveGateCoinbyMarketor(address,address)": "cfcdca52",
					"isValidCoin(address)": "328320bf",
					"lockCoinbyGator(address)": "441eb548",
					"lockCoinbyMarketor(address)": "b20be2b4",
					"marketCoinList(address)": "3b830305",
					"marketorContractAddress()": "492b7107",
					"unlockCoinbyGator(address)": "385e4b7a",
					"unlockCoinbyMarketor(address)": "1d3b8f67",
					"updateCoinbyGator((string,string,string,uint8,uint256,uint256,address,bool,bool,bool,address))": "2a9f659c",
					"updateCoinbyMarketor((string,string,string,uint8,uint256,uint256,address,bool,bool,bool,address))": "550fb4ba"
				}
			},
			"storageLayout": {
				"storage": [
					{
						"astId": 11,
						"contract": "Contracts/TTSwapV1Coin.sol:TTSwapV1Coin",
						"label": "marketCoinList",
						"offset": 0,
						"slot": "0",
						"type": "t_mapping(t_address,t_address)"
					},
					{
						"astId": 17,
						"contract": "Contracts/TTSwapV1Coin.sol:TTSwapV1Coin",
						"label": "gateCoinList",
						"offset": 0,
						"slot": "1",
						"type": "t_mapping(t_address,t_mapping(t_address,t_address))"
					},
					{
						"astId": 22,
						"contract": "Contracts/TTSwapV1Coin.sol:TTSwapV1Coin",
						"label": "coinList",
						"offset": 0,
						"slot": "2",
						"type": "t_mapping(t_address,t_struct(Info)740_storage)"
					}
				],
				"types": {
					"t_address": {
						"encoding": "inplace",
						"label": "address",
						"numberOfBytes": "20"
					},
					"t_bool": {
						"encoding": "inplace",
						"label": "bool",
						"numberOfBytes": "1"
					},
					"t_mapping(t_address,t_address)": {
						"encoding": "mapping",
						"key": "t_address",
						"label": "mapping(address => address)",
						"numberOfBytes": "32",
						"value": "t_address"
					},
					"t_mapping(t_address,t_mapping(t_address,t_address))": {
						"encoding": "mapping",
						"key": "t_address",
						"label": "mapping(address => mapping(address => address))",
						"numberOfBytes": "32",
						"value": "t_mapping(t_address,t_address)"
					},
					"t_mapping(t_address,t_struct(Info)740_storage)": {
						"encoding": "mapping",
						"key": "t_address",
						"label": "mapping(address => struct LCoin.Info)",
						"numberOfBytes": "32",
						"value": "t_struct(Info)740_storage"
					},
					"t_string_storage": {
						"encoding": "bytes",
						"label": "string",
						"numberOfBytes": "32"
					},
					"t_struct(Info)740_storage": {
						"encoding": "inplace",
						"label": "struct LCoin.Info",
						"members": [
							{
								"astId": 719,
								"contract": "Contracts/TTSwapV1Coin.sol:TTSwapV1Coin",
								"label": "coinFullName",
								"offset": 0,
								"slot": "0",
								"type": "t_string_storage"
							},
							{
								"astId": 721,
								"contract": "Contracts/TTSwapV1Coin.sol:TTSwapV1Coin",
								"label": "symbol",
								"offset": 0,
								"slot": "1",
								"type": "t_string_storage"
							},
							{
								"astId": 723,
								"contract": "Contracts/TTSwapV1Coin.sol:TTSwapV1Coin",
								"label": "typecode",
								"offset": 0,
								"slot": "2",
								"type": "t_string_storage"
							},
							{
								"astId": 725,
								"contract": "Contracts/TTSwapV1Coin.sol:TTSwapV1Coin",
								"label": "decimals",
								"offset": 0,
								"slot": "3",
								"type": "t_uint8"
							},
							{
								"astId": 727,
								"contract": "Contracts/TTSwapV1Coin.sol:TTSwapV1Coin",
								"label": "maxSupply",
								"offset": 0,
								"slot": "4",
								"type": "t_uint256"
							},
							{
								"astId": 729,
								"contract": "Contracts/TTSwapV1Coin.sol:TTSwapV1Coin",
								"label": "totalSupply",
								"offset": 0,
								"slot": "5",
								"type": "t_uint256"
							},
							{
								"astId": 731,
								"contract": "Contracts/TTSwapV1Coin.sol:TTSwapV1Coin",
								"label": "contractAddress",
								"offset": 0,
								"slot": "6",
								"type": "t_address"
							},
							{
								"astId": 733,
								"contract": "Contracts/TTSwapV1Coin.sol:TTSwapV1Coin",
								"label": "marketunlock",
								"offset": 20,
								"slot": "6",
								"type": "t_bool"
							},
							{
								"astId": 735,
								"contract": "Contracts/TTSwapV1Coin.sol:TTSwapV1Coin",
								"label": "gateunlock",
								"offset": 21,
								"slot": "6",
								"type": "t_bool"
							},
							{
								"astId": 737,
								"contract": "Contracts/TTSwapV1Coin.sol:TTSwapV1Coin",
								"label": "isUsed",
								"offset": 22,
								"slot": "6",
								"type": "t_bool"
							},
							{
								"astId": 739,
								"contract": "Contracts/TTSwapV1Coin.sol:TTSwapV1Coin",
								"label": "creator",
								"offset": 0,
								"slot": "7",
								"type": "t_address"
							}
						],
						"numberOfBytes": "256"
					},
					"t_uint256": {
						"encoding": "inplace",
						"label": "uint256",
						"numberOfBytes": "32"
					},
					"t_uint8": {
						"encoding": "inplace",
						"label": "uint8",
						"numberOfBytes": "1"
					}
				}
			},
			"userdoc": {
				"kind": "user",
				"methods": {
					"addCoinbyMarketor((string,string,string,uint8,uint256,uint256,address,bool,bool,bool,address))": {
						"notice": "Explain to an end user what this does"
					},
					"gatorContractAddress()": {
						"notice": "The contract that deployed the pool, which must adhere to the IUniswapV3Factory interface"
					},
					"marketorContractAddress()": {
						"notice": "The contract that deployed the pool, which must adhere to the IUniswapV3Factory interface"
					}
				},
				"version": 1
			}
		}
	}
}