{
	"Contracts/TTSwapV1Coin.sol": {
		"TTSwapV1Coin": {
			"abi": [
				{
					"inputs": [
						{
							"internalType": "address",
							"name": "_gatorContractAddress",
							"type": "address"
						},
						{
							"internalType": "address",
							"name": "_marketorContractAddress",
							"type": "address"
						}
					],
					"stateMutability": "nonpayable",
					"type": "constructor"
				},
				{
					"inputs": [
						{
							"components": [
								{
									"internalType": "string",
									"name": "coinFullName",
									"type": "string"
								},
								{
									"internalType": "string",
									"name": "symbol",
									"type": "string"
								},
								{
									"internalType": "uint8",
									"name": "scope",
									"type": "uint8"
								},
								{
									"internalType": "uint8",
									"name": "decimals",
									"type": "uint8"
								},
								{
									"internalType": "uint256",
									"name": "maxSupply",
									"type": "uint256"
								},
								{
									"internalType": "uint256",
									"name": "totalSupply",
									"type": "uint256"
								},
								{
									"internalType": "address",
									"name": "contractAddress",
									"type": "address"
								},
								{
									"internalType": "bool",
									"name": "marketunlock",
									"type": "bool"
								},
								{
									"internalType": "bool",
									"name": "unlock",
									"type": "bool"
								},
								{
									"internalType": "address",
									"name": "creator",
									"type": "address"
								},
								{
									"internalType": "bool",
									"name": "isUsed",
									"type": "bool"
								}
							],
							"internalType": "struct LCoin.Info",
							"name": "_coinInfo",
							"type": "tuple"
						}
					],
					"name": "addCoinbyGator",
					"outputs": [],
					"stateMutability": "nonpayable",
					"type": "function"
				},
				{
					"inputs": [
						{
							"components": [
								{
									"internalType": "string",
									"name": "coinFullName",
									"type": "string"
								},
								{
									"internalType": "string",
									"name": "symbol",
									"type": "string"
								},
								{
									"internalType": "uint8",
									"name": "scope",
									"type": "uint8"
								},
								{
									"internalType": "uint8",
									"name": "decimals",
									"type": "uint8"
								},
								{
									"internalType": "uint256",
									"name": "maxSupply",
									"type": "uint256"
								},
								{
									"internalType": "uint256",
									"name": "totalSupply",
									"type": "uint256"
								},
								{
									"internalType": "address",
									"name": "contractAddress",
									"type": "address"
								},
								{
									"internalType": "bool",
									"name": "marketunlock",
									"type": "bool"
								},
								{
									"internalType": "bool",
									"name": "unlock",
									"type": "bool"
								},
								{
									"internalType": "address",
									"name": "creator",
									"type": "address"
								},
								{
									"internalType": "bool",
									"name": "isUsed",
									"type": "bool"
								}
							],
							"internalType": "struct LCoin.Info",
							"name": "_coinInfo",
							"type": "tuple"
						}
					],
					"name": "addCoinbyMarketor",
					"outputs": [],
					"stateMutability": "nonpayable",
					"type": "function"
				},
				{
					"inputs": [
						{
							"internalType": "address",
							"name": "_internalCoinAddress",
							"type": "address"
						},
						{
							"internalType": "uint8",
							"name": "_scope",
							"type": "uint8"
						}
					],
					"name": "changeCoinScopebyMarketor",
					"outputs": [],
					"stateMutability": "nonpayable",
					"type": "function"
				},
				{
					"inputs": [
						{
							"internalType": "address",
							"name": "",
							"type": "address"
						}
					],
					"name": "coinList",
					"outputs": [
						{
							"internalType": "string",
							"name": "coinFullName",
							"type": "string"
						},
						{
							"internalType": "string",
							"name": "symbol",
							"type": "string"
						},
						{
							"internalType": "uint8",
							"name": "scope",
							"type": "uint8"
						},
						{
							"internalType": "uint8",
							"name": "decimals",
							"type": "uint8"
						},
						{
							"internalType": "uint256",
							"name": "maxSupply",
							"type": "uint256"
						},
						{
							"internalType": "uint256",
							"name": "totalSupply",
							"type": "uint256"
						},
						{
							"internalType": "address",
							"name": "contractAddress",
							"type": "address"
						},
						{
							"internalType": "bool",
							"name": "marketunlock",
							"type": "bool"
						},
						{
							"internalType": "bool",
							"name": "unlock",
							"type": "bool"
						},
						{
							"internalType": "address",
							"name": "creator",
							"type": "address"
						},
						{
							"internalType": "bool",
							"name": "isUsed",
							"type": "bool"
						}
					],
					"stateMutability": "view",
					"type": "function"
				},
				{
					"inputs": [
						{
							"internalType": "address",
							"name": "_contractaddress",
							"type": "address"
						}
					],
					"name": "delCoinbyMarketor",
					"outputs": [],
					"stateMutability": "nonpayable",
					"type": "function"
				},
				{
					"inputs": [
						{
							"internalType": "address",
							"name": "_contractaddress",
							"type": "address"
						},
						{
							"internalType": "address",
							"name": "_gateaddress",
							"type": "address"
						}
					],
					"name": "delGateCoinbyMarketor",
					"outputs": [],
					"stateMutability": "nonpayable",
					"type": "function"
				},
				{
					"inputs": [
						{
							"internalType": "address",
							"name": "",
							"type": "address"
						},
						{
							"internalType": "address",
							"name": "",
							"type": "address"
						}
					],
					"name": "gateCoinList",
					"outputs": [
						{
							"internalType": "address",
							"name": "",
							"type": "address"
						}
					],
					"stateMutability": "view",
					"type": "function"
				},
				{
					"inputs": [],
					"name": "gatorContractAddress",
					"outputs": [
						{
							"internalType": "address",
							"name": "",
							"type": "address"
						}
					],
					"stateMutability": "view",
					"type": "function"
				},
				{
					"inputs": [
						{
							"internalType": "address",
							"name": "_contractaddress",
							"type": "address"
						}
					],
					"name": "getCoinInfo",
					"outputs": [
						{
							"components": [
								{
									"internalType": "string",
									"name": "coinFullName",
									"type": "string"
								},
								{
									"internalType": "string",
									"name": "symbol",
									"type": "string"
								},
								{
									"internalType": "uint8",
									"name": "scope",
									"type": "uint8"
								},
								{
									"internalType": "uint8",
									"name": "decimals",
									"type": "uint8"
								},
								{
									"internalType": "uint256",
									"name": "maxSupply",
									"type": "uint256"
								},
								{
									"internalType": "uint256",
									"name": "totalSupply",
									"type": "uint256"
								},
								{
									"internalType": "address",
									"name": "contractAddress",
									"type": "address"
								},
								{
									"internalType": "bool",
									"name": "marketunlock",
									"type": "bool"
								},
								{
									"internalType": "bool",
									"name": "unlock",
									"type": "bool"
								},
								{
									"internalType": "address",
									"name": "creator",
									"type": "address"
								},
								{
									"internalType": "bool",
									"name": "isUsed",
									"type": "bool"
								}
							],
							"internalType": "struct LCoin.Info",
							"name": "",
							"type": "tuple"
						}
					],
					"stateMutability": "view",
					"type": "function"
				},
				{
					"inputs": [
						{
							"internalType": "address",
							"name": "_contractaddress",
							"type": "address"
						},
						{
							"internalType": "address",
							"name": "_gateaddress",
							"type": "address"
						}
					],
					"name": "impoveGateCoinbyMarketor",
					"outputs": [],
					"stateMutability": "nonpayable",
					"type": "function"
				},
				{
					"inputs": [
						{
							"internalType": "address",
							"name": "_coinAddress",
							"type": "address"
						}
					],
					"name": "isValidCoin",
					"outputs": [
						{
							"internalType": "bool",
							"name": "",
							"type": "bool"
						}
					],
					"stateMutability": "view",
					"type": "function"
				},
				{
					"inputs": [
						{
							"internalType": "address",
							"name": "_internalCoinAddress",
							"type": "address"
						}
					],
					"name": "lockCoinbyGator",
					"outputs": [],
					"stateMutability": "nonpayable",
					"type": "function"
				},
				{
					"inputs": [
						{
							"internalType": "address",
							"name": "_internalCoinAddress",
							"type": "address"
						}
					],
					"name": "lockCoinbyMarketor",
					"outputs": [],
					"stateMutability": "nonpayable",
					"type": "function"
				},
				{
					"inputs": [
						{
							"internalType": "address",
							"name": "",
							"type": "address"
						}
					],
					"name": "marketCoinList",
					"outputs": [
						{
							"internalType": "address",
							"name": "",
							"type": "address"
						}
					],
					"stateMutability": "view",
					"type": "function"
				},
				{
					"inputs": [],
					"name": "marketorContractAddress",
					"outputs": [
						{
							"internalType": "address",
							"name": "",
							"type": "address"
						}
					],
					"stateMutability": "view",
					"type": "function"
				},
				{
					"inputs": [
						{
							"internalType": "address",
							"name": "_internalCoinAddress",
							"type": "address"
						}
					],
					"name": "unlockCoinbyGator",
					"outputs": [],
					"stateMutability": "nonpayable",
					"type": "function"
				},
				{
					"inputs": [
						{
							"internalType": "address",
							"name": "_internalCoinAddress",
							"type": "address"
						}
					],
					"name": "unlockCoinbyMarketor",
					"outputs": [],
					"stateMutability": "nonpayable",
					"type": "function"
				},
				{
					"inputs": [
						{
							"components": [
								{
									"internalType": "string",
									"name": "coinFullName",
									"type": "string"
								},
								{
									"internalType": "string",
									"name": "symbol",
									"type": "string"
								},
								{
									"internalType": "uint8",
									"name": "scope",
									"type": "uint8"
								},
								{
									"internalType": "uint8",
									"name": "decimals",
									"type": "uint8"
								},
								{
									"internalType": "uint256",
									"name": "maxSupply",
									"type": "uint256"
								},
								{
									"internalType": "uint256",
									"name": "totalSupply",
									"type": "uint256"
								},
								{
									"internalType": "address",
									"name": "contractAddress",
									"type": "address"
								},
								{
									"internalType": "bool",
									"name": "marketunlock",
									"type": "bool"
								},
								{
									"internalType": "bool",
									"name": "unlock",
									"type": "bool"
								},
								{
									"internalType": "address",
									"name": "creator",
									"type": "address"
								},
								{
									"internalType": "bool",
									"name": "isUsed",
									"type": "bool"
								}
							],
							"internalType": "struct LCoin.Info",
							"name": "_coinInfo",
							"type": "tuple"
						}
					],
					"name": "updateCoinbyGator",
					"outputs": [],
					"stateMutability": "nonpayable",
					"type": "function"
				},
				{
					"inputs": [
						{
							"components": [
								{
									"internalType": "string",
									"name": "coinFullName",
									"type": "string"
								},
								{
									"internalType": "string",
									"name": "symbol",
									"type": "string"
								},
								{
									"internalType": "uint8",
									"name": "scope",
									"type": "uint8"
								},
								{
									"internalType": "uint8",
									"name": "decimals",
									"type": "uint8"
								},
								{
									"internalType": "uint256",
									"name": "maxSupply",
									"type": "uint256"
								},
								{
									"internalType": "uint256",
									"name": "totalSupply",
									"type": "uint256"
								},
								{
									"internalType": "address",
									"name": "contractAddress",
									"type": "address"
								},
								{
									"internalType": "bool",
									"name": "marketunlock",
									"type": "bool"
								},
								{
									"internalType": "bool",
									"name": "unlock",
									"type": "bool"
								},
								{
									"internalType": "address",
									"name": "creator",
									"type": "address"
								},
								{
									"internalType": "bool",
									"name": "isUsed",
									"type": "bool"
								}
							],
							"internalType": "struct LCoin.Info",
							"name": "_coinInfo",
							"type": "tuple"
						}
					],
					"name": "updateCoinbyMarketor",
					"outputs": [],
					"stateMutability": "nonpayable",
					"type": "function"
				}
			],
			"devdoc": {
				"kind": "dev",
				"methods": {
					"addCoinbyMarketor((string,string,uint8,uint8,uint256,uint256,address,bool,bool,address,bool))": {
						"details": "Explain to a developer any extra details"
					}
				},
				"stateVariables": {
					"gatorContractAddress": {
						"return": "The contract address",
						"returns": {
							"_0": "The contract address"
						}
					},
					"marketorContractAddress": {
						"return": "The contract address",
						"returns": {
							"_0": "The contract address"
						}
					}
				},
				"version": 1
			},
			"evm": {
				"assembly": "    /* \"Contracts/TTSwapV1Coin.sol\":249:7282  contract TTSwapV1Coin is ITTSwapV1Coin {... */\n  mstore(0x40, 0xc0)\n    /* \"Contracts/TTSwapV1Coin.sol\":882:1102  constructor(... */\n  callvalue\n  dup1\n  iszero\n  tag_1\n  jumpi\n  0x00\n  dup1\n  revert\ntag_1:\n  pop\n  mload(0x40)\n  sub(codesize, bytecodeSize)\n  dup1\n  bytecodeSize\n  dup4\n  codecopy\n  dup2\n  dup2\n  add\n  0x40\n  mstore\n  dup2\n  add\n  swap1\n  tag_2\n  swap2\n  swap1\n  tag_3\n  jump\t// in\ntag_2:\n    /* \"Contracts/TTSwapV1Coin.sol\":1014:1035  _gatorContractAddress */\n  dup2\n    /* \"Contracts/TTSwapV1Coin.sol\":991:1035  gatorContractAddress = _gatorContractAddress */\n  0xffffffffffffffffffffffffffffffffffffffff\n  and\n  0x80\n  dup2\n  0xffffffffffffffffffffffffffffffffffffffff\n  and\n  dup2\n  mstore\n  pop\n  pop\n    /* \"Contracts/TTSwapV1Coin.sol\":1071:1095  _marketorContractAddress */\n  dup1\n    /* \"Contracts/TTSwapV1Coin.sol\":1045:1095  marketorContractAddress = _marketorContractAddress */\n  0xffffffffffffffffffffffffffffffffffffffff\n  and\n  0xa0\n  dup2\n  0xffffffffffffffffffffffffffffffffffffffff\n  and\n  dup2\n  mstore\n  pop\n  pop\n    /* \"Contracts/TTSwapV1Coin.sol\":882:1102  constructor(... */\n  pop\n  pop\n    /* \"Contracts/TTSwapV1Coin.sol\":249:7282  contract TTSwapV1Coin is ITTSwapV1Coin {... */\n  jump(tag_6)\n    /* \"#utility.yul\":88:205   */\ntag_8:\n    /* \"#utility.yul\":197:198   */\n  0x00\n    /* \"#utility.yul\":194:195   */\n  dup1\n    /* \"#utility.yul\":187:199   */\n  revert\n    /* \"#utility.yul\":334:460   */\ntag_10:\n    /* \"#utility.yul\":371:378   */\n  0x00\n    /* \"#utility.yul\":411:453   */\n  0xffffffffffffffffffffffffffffffffffffffff\n    /* \"#utility.yul\":404:409   */\n  dup3\n    /* \"#utility.yul\":400:454   */\n  and\n    /* \"#utility.yul\":389:454   */\n  swap1\n  pop\n    /* \"#utility.yul\":334:460   */\n  swap2\n  swap1\n  pop\n  jump\t// out\n    /* \"#utility.yul\":466:562   */\ntag_11:\n    /* \"#utility.yul\":503:510   */\n  0x00\n    /* \"#utility.yul\":532:556   */\n  tag_20\n    /* \"#utility.yul\":550:555   */\n  dup3\n    /* \"#utility.yul\":532:556   */\n  tag_10\n  jump\t// in\ntag_20:\n    /* \"#utility.yul\":521:556   */\n  swap1\n  pop\n    /* \"#utility.yul\":466:562   */\n  swap2\n  swap1\n  pop\n  jump\t// out\n    /* \"#utility.yul\":568:690   */\ntag_12:\n    /* \"#utility.yul\":641:665   */\n  tag_22\n    /* \"#utility.yul\":659:664   */\n  dup2\n    /* \"#utility.yul\":641:665   */\n  tag_11\n  jump\t// in\ntag_22:\n    /* \"#utility.yul\":634:639   */\n  dup2\n    /* \"#utility.yul\":631:666   */\n  eq\n    /* \"#utility.yul\":621:684   */\n  tag_23\n  jumpi\n    /* \"#utility.yul\":680:681   */\n  0x00\n    /* \"#utility.yul\":677:678   */\n  dup1\n    /* \"#utility.yul\":670:682   */\n  revert\n    /* \"#utility.yul\":621:684   */\ntag_23:\n    /* \"#utility.yul\":568:690   */\n  pop\n  jump\t// out\n    /* \"#utility.yul\":696:839   */\ntag_13:\n    /* \"#utility.yul\":753:758   */\n  0x00\n    /* \"#utility.yul\":784:790   */\n  dup2\n    /* \"#utility.yul\":778:791   */\n  mload\n    /* \"#utility.yul\":769:791   */\n  swap1\n  pop\n    /* \"#utility.yul\":800:833   */\n  tag_25\n    /* \"#utility.yul\":827:832   */\n  dup2\n    /* \"#utility.yul\":800:833   */\n  tag_12\n  jump\t// in\ntag_25:\n    /* \"#utility.yul\":696:839   */\n  swap3\n  swap2\n  pop\n  pop\n  jump\t// out\n    /* \"#utility.yul\":845:1352   */\ntag_3:\n    /* \"#utility.yul\":924:930   */\n  0x00\n    /* \"#utility.yul\":932:938   */\n  dup1\n    /* \"#utility.yul\":981:983   */\n  0x40\n    /* \"#utility.yul\":969:978   */\n  dup4\n    /* \"#utility.yul\":960:967   */\n  dup6\n    /* \"#utility.yul\":956:979   */\n  sub\n    /* \"#utility.yul\":952:984   */\n  slt\n    /* \"#utility.yul\":949:1068   */\n  iszero\n  tag_27\n  jumpi\n    /* \"#utility.yul\":987:1066   */\n  tag_28\n  tag_8\n  jump\t// in\ntag_28:\n    /* \"#utility.yul\":949:1068   */\ntag_27:\n    /* \"#utility.yul\":1107:1108   */\n  0x00\n    /* \"#utility.yul\":1132:1196   */\n  tag_29\n    /* \"#utility.yul\":1188:1195   */\n  dup6\n    /* \"#utility.yul\":1179:1185   */\n  dup3\n    /* \"#utility.yul\":1168:1177   */\n  dup7\n    /* \"#utility.yul\":1164:1186   */\n  add\n    /* \"#utility.yul\":1132:1196   */\n  tag_13\n  jump\t// in\ntag_29:\n    /* \"#utility.yul\":1122:1196   */\n  swap3\n  pop\n    /* \"#utility.yul\":1078:1206   */\n  pop\n    /* \"#utility.yul\":1245:1247   */\n  0x20\n    /* \"#utility.yul\":1271:1335   */\n  tag_30\n    /* \"#utility.yul\":1327:1334   */\n  dup6\n    /* \"#utility.yul\":1318:1324   */\n  dup3\n    /* \"#utility.yul\":1307:1316   */\n  dup7\n    /* \"#utility.yul\":1303:1325   */\n  add\n    /* \"#utility.yul\":1271:1335   */\n  tag_13\n  jump\t// in\ntag_30:\n    /* \"#utility.yul\":1261:1335   */\n  swap2\n  pop\n    /* \"#utility.yul\":1216:1345   */\n  pop\n    /* \"#utility.yul\":845:1352   */\n  swap3\n  pop\n  swap3\n  swap1\n  pop\n  jump\t// out\n    /* \"Contracts/TTSwapV1Coin.sol\":249:7282  contract TTSwapV1Coin is ITTSwapV1Coin {... */\ntag_6:\n  mload(0x80)\n  mload(0xa0)\n  codecopy(0x00, dataOffset(sub_0), dataSize(sub_0))\n  0x00\n  assignImmutable(\"0x9cce9eb03c9f29c6481fca9f0f942b15bef0bbbc47fda0ddb44df157019835d9\")\n  0x00\n  assignImmutable(\"0x6585423cb6456b1d4957f6454d2f004f0c4f58d53a00082412d5c2ef4b1b31fd\")\n  return(0x00, dataSize(sub_0))\nstop\n\nsub_0: assembly {\n        /* \"Contracts/TTSwapV1Coin.sol\":249:7282  contract TTSwapV1Coin is ITTSwapV1Coin {... */\n      mstore(0x40, 0x80)\n      callvalue\n      dup1\n      iszero\n      tag_1\n      jumpi\n      0x00\n      dup1\n      revert\n    tag_1:\n      pop\n      jumpi(tag_2, lt(calldatasize, 0x04))\n      shr(0xe0, calldataload(0x00))\n      dup1\n      0x5385cbf5\n      gt\n      tag_22\n      jumpi\n      dup1\n      0xcfcdca52\n      gt\n      tag_23\n      jumpi\n      dup1\n      0xcfcdca52\n      eq\n      tag_17\n      jumpi\n      dup1\n      0xe7e4093e\n      eq\n      tag_18\n      jumpi\n      dup1\n      0xe8dd4655\n      eq\n      tag_19\n      jumpi\n      dup1\n      0xeaec0112\n      eq\n      tag_20\n      jumpi\n      dup1\n      0xf44e318a\n      eq\n      tag_21\n      jumpi\n      jump(tag_2)\n    tag_23:\n      dup1\n      0x5385cbf5\n      eq\n      tag_12\n      jumpi\n      dup1\n      0x7c3e2f02\n      eq\n      tag_13\n      jumpi\n      dup1\n      0xb20be2b4\n      eq\n      tag_14\n      jumpi\n      dup1\n      0xc1189bea\n      eq\n      tag_15\n      jumpi\n      dup1\n      0xcc0bf757\n      eq\n      tag_16\n      jumpi\n      jump(tag_2)\n    tag_22:\n      dup1\n      0x3b830305\n      gt\n      tag_24\n      jumpi\n      dup1\n      0x3b830305\n      eq\n      tag_7\n      jumpi\n      dup1\n      0x441eb548\n      eq\n      tag_8\n      jumpi\n      dup1\n      0x47d0a634\n      eq\n      tag_9\n      jumpi\n      dup1\n      0x492b7107\n      eq\n      tag_10\n      jumpi\n      dup1\n      0x4a91a3bb\n      eq\n      tag_11\n      jumpi\n      jump(tag_2)\n    tag_24:\n      dup1\n      0x1d3b8f67\n      eq\n      tag_3\n      jumpi\n      dup1\n      0x31ecdeb8\n      eq\n      tag_4\n      jumpi\n      dup1\n      0x328320bf\n      eq\n      tag_5\n      jumpi\n      dup1\n      0x385e4b7a\n      eq\n      tag_6\n      jumpi\n    tag_2:\n      0x00\n      dup1\n      revert\n        /* \"Contracts/TTSwapV1Coin.sol\":2947:3110  function unlockCoinbyMarketor(... */\n    tag_3:\n      tag_25\n      0x04\n      dup1\n      calldatasize\n      sub\n      dup2\n      add\n      swap1\n      tag_26\n      swap2\n      swap1\n      tag_27\n      jump\t// in\n    tag_26:\n      tag_28\n      jump\t// in\n    tag_25:\n      stop\n        /* \"Contracts/TTSwapV1Coin.sol\":720:766  mapping(address => LCoin.Info) public coinList */\n    tag_4:\n      tag_29\n      0x04\n      dup1\n      calldatasize\n      sub\n      dup2\n      add\n      swap1\n      tag_30\n      swap2\n      swap1\n      tag_27\n      jump\t// in\n    tag_30:\n      tag_31\n      jump\t// in\n    tag_29:\n      mload(0x40)\n      tag_32\n      swap12\n      swap11\n      swap10\n      swap9\n      swap8\n      swap7\n      swap6\n      swap5\n      swap4\n      swap3\n      swap2\n      swap1\n      tag_33\n      jump\t// in\n    tag_32:\n      mload(0x40)\n      dup1\n      swap2\n      sub\n      swap1\n      return\n        /* \"Contracts/TTSwapV1Coin.sol\":7151:7280  function isValidCoin(address _coinAddress) public view returns (bool) {... */\n    tag_5:\n      tag_34\n      0x04\n      dup1\n      calldatasize\n      sub\n      dup2\n      add\n      swap1\n      tag_35\n      swap2\n      swap1\n      tag_27\n      jump\t// in\n    tag_35:\n      tag_36\n      jump\t// in\n    tag_34:\n      mload(0x40)\n      tag_37\n      swap2\n      swap1\n      tag_38\n      jump\t// in\n    tag_37:\n      mload(0x40)\n      dup1\n      swap2\n      sub\n      swap1\n      return\n        /* \"Contracts/TTSwapV1Coin.sol\":5808:6090  function unlockCoinbyGator(... */\n    tag_6:\n      tag_39\n      0x04\n      dup1\n      calldatasize\n      sub\n      dup2\n      add\n      swap1\n      tag_40\n      swap2\n      swap1\n      tag_27\n      jump\t// in\n    tag_40:\n      tag_41\n      jump\t// in\n    tag_39:\n      stop\n        /* \"Contracts/TTSwapV1Coin.sol\":392:441  mapping(address => address) public marketCoinList */\n    tag_7:\n      tag_42\n      0x04\n      dup1\n      calldatasize\n      sub\n      dup2\n      add\n      swap1\n      tag_43\n      swap2\n      swap1\n      tag_27\n      jump\t// in\n    tag_43:\n      tag_44\n      jump\t// in\n    tag_42:\n      mload(0x40)\n      tag_45\n      swap2\n      swap1\n      tag_46\n      jump\t// in\n    tag_45:\n      mload(0x40)\n      dup1\n      swap2\n      sub\n      swap1\n      return\n        /* \"Contracts/TTSwapV1Coin.sol\":6096:6363  function lockCoinbyGator(address _internalCoinAddress) external onlyGator {... */\n    tag_8:\n      tag_47\n      0x04\n      dup1\n      calldatasize\n      sub\n      dup2\n      add\n      swap1\n      tag_48\n      swap2\n      swap1\n      tag_27\n      jump\t// in\n    tag_48:\n      tag_49\n      jump\t// in\n    tag_47:\n      stop\n        /* \"Contracts/TTSwapV1Coin.sol\":776:821  address public immutable gatorContractAddress */\n    tag_9:\n      tag_50\n      tag_51\n      jump\t// in\n    tag_50:\n      mload(0x40)\n      tag_52\n      swap2\n      swap1\n      tag_46\n      jump\t// in\n    tag_52:\n      mload(0x40)\n      dup1\n      swap2\n      sub\n      swap1\n      return\n        /* \"Contracts/TTSwapV1Coin.sol\":827:875  address public immutable marketorContractAddress */\n    tag_10:\n      tag_53\n      tag_54\n      jump\t// in\n    tag_53:\n      mload(0x40)\n      tag_55\n      swap2\n      swap1\n      tag_46\n      jump\t// in\n    tag_55:\n      mload(0x40)\n      dup1\n      swap2\n      sub\n      swap1\n      return\n        /* \"Contracts/TTSwapV1Coin.sol\":3116:3529  function updateCoinbyMarketor(... */\n    tag_11:\n      tag_56\n      0x04\n      dup1\n      calldatasize\n      sub\n      dup2\n      add\n      swap1\n      tag_57\n      swap2\n      swap1\n      tag_58\n      jump\t// in\n    tag_57:\n      tag_59\n      jump\t// in\n    tag_56:\n      stop\n        /* \"Contracts/TTSwapV1Coin.sol\":2588:2773  function changeCoinScopebyMarketor(... */\n    tag_12:\n      tag_60\n      0x04\n      dup1\n      calldatasize\n      sub\n      dup2\n      add\n      swap1\n      tag_61\n      swap2\n      swap1\n      tag_62\n      jump\t// in\n    tag_61:\n      tag_63\n      jump\t// in\n    tag_60:\n      stop\n        /* \"Contracts/TTSwapV1Coin.sol\":4116:4372  function delCoinbyMarketor(address _contractaddress) external onlyMarketor {... */\n    tag_13:\n      tag_64\n      0x04\n      dup1\n      calldatasize\n      sub\n      dup2\n      add\n      swap1\n      tag_65\n      swap2\n      swap1\n      tag_27\n      jump\t// in\n    tag_65:\n      tag_66\n      jump\t// in\n    tag_64:\n      stop\n        /* \"Contracts/TTSwapV1Coin.sol\":2779:2941  function lockCoinbyMarketor(... */\n    tag_14:\n      tag_67\n      0x04\n      dup1\n      calldatasize\n      sub\n      dup2\n      add\n      swap1\n      tag_68\n      swap2\n      swap1\n      tag_27\n      jump\t// in\n    tag_68:\n      tag_69\n      jump\t// in\n    tag_67:\n      stop\n        /* \"Contracts/TTSwapV1Coin.sol\":6369:6866  function updateCoinbyGator(LCoin.Info memory _coinInfo) external onlyGator {... */\n    tag_15:\n      tag_70\n      0x04\n      dup1\n      calldatasize\n      sub\n      dup2\n      add\n      swap1\n      tag_71\n      swap2\n      swap1\n      tag_58\n      jump\t// in\n    tag_71:\n      tag_72\n      jump\t// in\n    tag_70:\n      stop\n        /* \"Contracts/TTSwapV1Coin.sol\":561:628  mapping(address => mapping(address => address)) public gateCoinList */\n    tag_16:\n      tag_73\n      0x04\n      dup1\n      calldatasize\n      sub\n      dup2\n      add\n      swap1\n      tag_74\n      swap2\n      swap1\n      tag_75\n      jump\t// in\n    tag_74:\n      tag_76\n      jump\t// in\n    tag_73:\n      mload(0x40)\n      tag_77\n      swap2\n      swap1\n      tag_46\n      jump\t// in\n    tag_77:\n      mload(0x40)\n      dup1\n      swap2\n      sub\n      swap1\n      return\n        /* \"Contracts/TTSwapV1Coin.sol\":3535:4110  function impoveGateCoinbyMarketor(... */\n    tag_17:\n      tag_78\n      0x04\n      dup1\n      calldatasize\n      sub\n      dup2\n      add\n      swap1\n      tag_79\n      swap2\n      swap1\n      tag_75\n      jump\t// in\n    tag_79:\n      tag_80\n      jump\t// in\n    tag_78:\n      stop\n        /* \"Contracts/TTSwapV1Coin.sol\":4844:5802  function addCoinbyGator(LCoin.Info memory _coinInfo) external onlyGator {... */\n    tag_18:\n      tag_81\n      0x04\n      dup1\n      calldatasize\n      sub\n      dup2\n      add\n      swap1\n      tag_82\n      swap2\n      swap1\n      tag_58\n      jump\t// in\n    tag_82:\n      tag_83\n      jump\t// in\n    tag_81:\n      stop\n        /* \"Contracts/TTSwapV1Coin.sol\":6872:7145  function getCoinInfo(... */\n    tag_19:\n      tag_84\n      0x04\n      dup1\n      calldatasize\n      sub\n      dup2\n      add\n      swap1\n      tag_85\n      swap2\n      swap1\n      tag_27\n      jump\t// in\n    tag_85:\n      tag_86\n      jump\t// in\n    tag_84:\n      mload(0x40)\n      tag_87\n      swap2\n      swap1\n      tag_88\n      jump\t// in\n    tag_87:\n      mload(0x40)\n      dup1\n      swap2\n      sub\n      swap1\n      return\n        /* \"Contracts/TTSwapV1Coin.sol\":4378:4706  function delGateCoinbyMarketor(... */\n    tag_20:\n      tag_89\n      0x04\n      dup1\n      calldatasize\n      sub\n      dup2\n      add\n      swap1\n      tag_90\n      swap2\n      swap1\n      tag_75\n      jump\t// in\n    tag_90:\n      tag_91\n      jump\t// in\n    tag_89:\n      stop\n        /* \"Contracts/TTSwapV1Coin.sol\":1809:2582  function addCoinbyMarketor(... */\n    tag_21:\n      tag_92\n      0x04\n      dup1\n      calldatasize\n      sub\n      dup2\n      add\n      swap1\n      tag_93\n      swap2\n      swap1\n      tag_58\n      jump\t// in\n    tag_93:\n      tag_94\n      jump\t// in\n    tag_92:\n      stop\n        /* \"Contracts/TTSwapV1Coin.sol\":2947:3110  function unlockCoinbyMarketor(... */\n    tag_28:\n        /* \"Contracts/TTSwapV1Coin.sol\":3099:3103  true */\n      0x01\n        /* \"Contracts/TTSwapV1Coin.sol\":3053:3061  coinList */\n      0x02\n        /* \"Contracts/TTSwapV1Coin.sol\":3053:3083  coinList[_internalCoinAddress] */\n      0x00\n        /* \"Contracts/TTSwapV1Coin.sol\":3062:3082  _internalCoinAddress */\n      dup4\n        /* \"Contracts/TTSwapV1Coin.sol\":3053:3083  coinList[_internalCoinAddress] */\n      0xffffffffffffffffffffffffffffffffffffffff\n      and\n      0xffffffffffffffffffffffffffffffffffffffff\n      and\n      dup2\n      mstore\n      0x20\n      add\n      swap1\n      dup2\n      mstore\n      0x20\n      add\n      0x00\n      keccak256\n        /* \"Contracts/TTSwapV1Coin.sol\":3053:3096  coinList[_internalCoinAddress].marketunlock */\n      0x05\n      add\n      0x14\n        /* \"Contracts/TTSwapV1Coin.sol\":3053:3103  coinList[_internalCoinAddress].marketunlock = true */\n      0x0100\n      exp\n      dup2\n      sload\n      dup2\n      0xff\n      mul\n      not\n      and\n      swap1\n      dup4\n      iszero\n      iszero\n      mul\n      or\n      swap1\n      sstore\n      pop\n        /* \"Contracts/TTSwapV1Coin.sol\":2947:3110  function unlockCoinbyMarketor(... */\n      pop\n      jump\t// out\n        /* \"Contracts/TTSwapV1Coin.sol\":720:766  mapping(address => LCoin.Info) public coinList */\n    tag_31:\n      mstore(0x20, 0x02)\n      dup1\n      0x00\n      mstore\n      keccak256(0x00, 0x40)\n      0x00\n      swap2\n      pop\n      swap1\n      pop\n      dup1\n      0x00\n      add\n      dup1\n      sload\n      tag_97\n      swap1\n      tag_98\n      jump\t// in\n    tag_97:\n      dup1\n      0x1f\n      add\n      0x20\n      dup1\n      swap2\n      div\n      mul\n      0x20\n      add\n      mload(0x40)\n      swap1\n      dup2\n      add\n      0x40\n      mstore\n      dup1\n      swap3\n      swap2\n      swap1\n      dup2\n      dup2\n      mstore\n      0x20\n      add\n      dup3\n      dup1\n      sload\n      tag_99\n      swap1\n      tag_98\n      jump\t// in\n    tag_99:\n      dup1\n      iszero\n      tag_100\n      jumpi\n      dup1\n      0x1f\n      lt\n      tag_101\n      jumpi\n      0x0100\n      dup1\n      dup4\n      sload\n      div\n      mul\n      dup4\n      mstore\n      swap2\n      0x20\n      add\n      swap2\n      jump(tag_100)\n    tag_101:\n      dup3\n      add\n      swap2\n      swap1\n      0x00\n      mstore\n      keccak256(0x00, 0x20)\n      swap1\n    tag_102:\n      dup2\n      sload\n      dup2\n      mstore\n      swap1\n      0x01\n      add\n      swap1\n      0x20\n      add\n      dup1\n      dup4\n      gt\n      tag_102\n      jumpi\n      dup3\n      swap1\n      sub\n      0x1f\n      and\n      dup3\n      add\n      swap2\n    tag_100:\n      pop\n      pop\n      pop\n      pop\n      pop\n      swap1\n      dup1\n      0x01\n      add\n      dup1\n      sload\n      tag_103\n      swap1\n      tag_98\n      jump\t// in\n    tag_103:\n      dup1\n      0x1f\n      add\n      0x20\n      dup1\n      swap2\n      div\n      mul\n      0x20\n      add\n      mload(0x40)\n      swap1\n      dup2\n      add\n      0x40\n      mstore\n      dup1\n      swap3\n      swap2\n      swap1\n      dup2\n      dup2\n      mstore\n      0x20\n      add\n      dup3\n      dup1\n      sload\n      tag_104\n      swap1\n      tag_98\n      jump\t// in\n    tag_104:\n      dup1\n      iszero\n      tag_105\n      jumpi\n      dup1\n      0x1f\n      lt\n      tag_106\n      jumpi\n      0x0100\n      dup1\n      dup4\n      sload\n      div\n      mul\n      dup4\n      mstore\n      swap2\n      0x20\n      add\n      swap2\n      jump(tag_105)\n    tag_106:\n      dup3\n      add\n      swap2\n      swap1\n      0x00\n      mstore\n      keccak256(0x00, 0x20)\n      swap1\n    tag_107:\n      dup2\n      sload\n      dup2\n      mstore\n      swap1\n      0x01\n      add\n      swap1\n      0x20\n      add\n      dup1\n      dup4\n      gt\n      tag_107\n      jumpi\n      dup3\n      swap1\n      sub\n      0x1f\n      and\n      dup3\n      add\n      swap2\n    tag_105:\n      pop\n      pop\n      pop\n      pop\n      pop\n      swap1\n      dup1\n      0x02\n      add\n      0x00\n      swap1\n      sload\n      swap1\n      0x0100\n      exp\n      swap1\n      div\n      0xff\n      and\n      swap1\n      dup1\n      0x02\n      add\n      0x01\n      swap1\n      sload\n      swap1\n      0x0100\n      exp\n      swap1\n      div\n      0xff\n      and\n      swap1\n      dup1\n      0x03\n      add\n      sload\n      swap1\n      dup1\n      0x04\n      add\n      sload\n      swap1\n      dup1\n      0x05\n      add\n      0x00\n      swap1\n      sload\n      swap1\n      0x0100\n      exp\n      swap1\n      div\n      0xffffffffffffffffffffffffffffffffffffffff\n      and\n      swap1\n      dup1\n      0x05\n      add\n      0x14\n      swap1\n      sload\n      swap1\n      0x0100\n      exp\n      swap1\n      div\n      0xff\n      and\n      swap1\n      dup1\n      0x05\n      add\n      0x15\n      swap1\n      sload\n      swap1\n      0x0100\n      exp\n      swap1\n      div\n      0xff\n      and\n      swap1\n      dup1\n      0x06\n      add\n      0x00\n      swap1\n      sload\n      swap1\n      0x0100\n      exp\n      swap1\n      div\n      0xffffffffffffffffffffffffffffffffffffffff\n      and\n      swap1\n      dup1\n      0x06\n      add\n      0x14\n      swap1\n      sload\n      swap1\n      0x0100\n      exp\n      swap1\n      div\n      0xff\n      and\n      swap1\n      pop\n      dup12\n      jump\t// out\n        /* \"Contracts/TTSwapV1Coin.sol\":7151:7280  function isValidCoin(address _coinAddress) public view returns (bool) {... */\n    tag_36:\n        /* \"Contracts/TTSwapV1Coin.sol\":7215:7219  bool */\n      0x00\n        /* \"Contracts/TTSwapV1Coin.sol\":7238:7246  coinList */\n      0x02\n        /* \"Contracts/TTSwapV1Coin.sol\":7238:7260  coinList[_coinAddress] */\n      0x00\n        /* \"Contracts/TTSwapV1Coin.sol\":7247:7259  _coinAddress */\n      dup4\n        /* \"Contracts/TTSwapV1Coin.sol\":7238:7260  coinList[_coinAddress] */\n      0xffffffffffffffffffffffffffffffffffffffff\n      and\n      0xffffffffffffffffffffffffffffffffffffffff\n      and\n      dup2\n      mstore\n      0x20\n      add\n      swap1\n      dup2\n      mstore\n      0x20\n      add\n      0x00\n      keccak256\n        /* \"Contracts/TTSwapV1Coin.sol\":7238:7273  coinList[_coinAddress].marketunlock */\n      0x05\n      add\n      0x14\n      swap1\n      sload\n      swap1\n      0x0100\n      exp\n      swap1\n      div\n      0xff\n      and\n        /* \"Contracts/TTSwapV1Coin.sol\":7231:7273  return coinList[_coinAddress].marketunlock */\n      swap1\n      pop\n        /* \"Contracts/TTSwapV1Coin.sol\":7151:7280  function isValidCoin(address _coinAddress) public view returns (bool) {... */\n      swap2\n      swap1\n      pop\n      jump\t// out\n        /* \"Contracts/TTSwapV1Coin.sol\":5808:6090  function unlockCoinbyGator(... */\n    tag_41:\n        /* \"Contracts/TTSwapV1Coin.sol\":5971:5981  msg.sender */\n      caller\n        /* \"Contracts/TTSwapV1Coin.sol\":5929:5981  coinList[_internalCoinAddress].creator == msg.sender */\n      0xffffffffffffffffffffffffffffffffffffffff\n      and\n        /* \"Contracts/TTSwapV1Coin.sol\":5929:5937  coinList */\n      0x02\n        /* \"Contracts/TTSwapV1Coin.sol\":5929:5959  coinList[_internalCoinAddress] */\n      0x00\n        /* \"Contracts/TTSwapV1Coin.sol\":5938:5958  _internalCoinAddress */\n      dup4\n        /* \"Contracts/TTSwapV1Coin.sol\":5929:5959  coinList[_internalCoinAddress] */\n      0xffffffffffffffffffffffffffffffffffffffff\n      and\n      0xffffffffffffffffffffffffffffffffffffffff\n      and\n      dup2\n      mstore\n      0x20\n      add\n      swap1\n      dup2\n      mstore\n      0x20\n      add\n      0x00\n      keccak256\n        /* \"Contracts/TTSwapV1Coin.sol\":5929:5967  coinList[_internalCoinAddress].creator */\n      0x06\n      add\n      0x00\n      swap1\n      sload\n      swap1\n      0x0100\n      exp\n      swap1\n      div\n      0xffffffffffffffffffffffffffffffffffffffff\n      and\n        /* \"Contracts/TTSwapV1Coin.sol\":5929:5981  coinList[_internalCoinAddress].creator == msg.sender */\n      0xffffffffffffffffffffffffffffffffffffffff\n      and\n      eq\n        /* \"Contracts/TTSwapV1Coin.sol\":5908:6029  require(... */\n      tag_111\n      jumpi\n      mload(0x40)\n      0x08c379a000000000000000000000000000000000000000000000000000000000\n      dup2\n      mstore\n      0x04\n      add\n      tag_112\n      swap1\n      tag_113\n      jump\t// in\n    tag_112:\n      mload(0x40)\n      dup1\n      swap2\n      sub\n      swap1\n      revert\n    tag_111:\n        /* \"Contracts/TTSwapV1Coin.sol\":6079:6083  true */\n      0x01\n        /* \"Contracts/TTSwapV1Coin.sol\":6039:6047  coinList */\n      0x02\n        /* \"Contracts/TTSwapV1Coin.sol\":6039:6069  coinList[_internalCoinAddress] */\n      0x00\n        /* \"Contracts/TTSwapV1Coin.sol\":6048:6068  _internalCoinAddress */\n      dup4\n        /* \"Contracts/TTSwapV1Coin.sol\":6039:6069  coinList[_internalCoinAddress] */\n      0xffffffffffffffffffffffffffffffffffffffff\n      and\n      0xffffffffffffffffffffffffffffffffffffffff\n      and\n      dup2\n      mstore\n      0x20\n      add\n      swap1\n      dup2\n      mstore\n      0x20\n      add\n      0x00\n      keccak256\n        /* \"Contracts/TTSwapV1Coin.sol\":6039:6076  coinList[_internalCoinAddress].unlock */\n      0x05\n      add\n      0x15\n        /* \"Contracts/TTSwapV1Coin.sol\":6039:6083  coinList[_internalCoinAddress].unlock = true */\n      0x0100\n      exp\n      dup2\n      sload\n      dup2\n      0xff\n      mul\n      not\n      and\n      swap1\n      dup4\n      iszero\n      iszero\n      mul\n      or\n      swap1\n      sstore\n      pop\n        /* \"Contracts/TTSwapV1Coin.sol\":5808:6090  function unlockCoinbyGator(... */\n      pop\n      jump\t// out\n        /* \"Contracts/TTSwapV1Coin.sol\":392:441  mapping(address => address) public marketCoinList */\n    tag_44:\n      mstore(0x20, 0x00)\n      dup1\n      0x00\n      mstore\n      keccak256(0x00, 0x40)\n      0x00\n      swap2\n      pop\n      sload\n      swap1\n      0x0100\n      exp\n      swap1\n      div\n      0xffffffffffffffffffffffffffffffffffffffff\n      and\n      dup2\n      jump\t// out\n        /* \"Contracts/TTSwapV1Coin.sol\":6096:6363  function lockCoinbyGator(address _internalCoinAddress) external onlyGator {... */\n    tag_49:\n        /* \"Contracts/TTSwapV1Coin.sol\":6243:6253  msg.sender */\n      caller\n        /* \"Contracts/TTSwapV1Coin.sol\":6201:6253  coinList[_internalCoinAddress].creator == msg.sender */\n      0xffffffffffffffffffffffffffffffffffffffff\n      and\n        /* \"Contracts/TTSwapV1Coin.sol\":6201:6209  coinList */\n      0x02\n        /* \"Contracts/TTSwapV1Coin.sol\":6201:6231  coinList[_internalCoinAddress] */\n      0x00\n        /* \"Contracts/TTSwapV1Coin.sol\":6210:6230  _internalCoinAddress */\n      dup4\n        /* \"Contracts/TTSwapV1Coin.sol\":6201:6231  coinList[_internalCoinAddress] */\n      0xffffffffffffffffffffffffffffffffffffffff\n      and\n      0xffffffffffffffffffffffffffffffffffffffff\n      and\n      dup2\n      mstore\n      0x20\n      add\n      swap1\n      dup2\n      mstore\n      0x20\n      add\n      0x00\n      keccak256\n        /* \"Contracts/TTSwapV1Coin.sol\":6201:6239  coinList[_internalCoinAddress].creator */\n      0x06\n      add\n      0x00\n      swap1\n      sload\n      swap1\n      0x0100\n      exp\n      swap1\n      div\n      0xffffffffffffffffffffffffffffffffffffffff\n      and\n        /* \"Contracts/TTSwapV1Coin.sol\":6201:6253  coinList[_internalCoinAddress].creator == msg.sender */\n      0xffffffffffffffffffffffffffffffffffffffff\n      and\n      eq\n        /* \"Contracts/TTSwapV1Coin.sol\":6180:6301  require(... */\n      tag_116\n      jumpi\n      mload(0x40)\n      0x08c379a000000000000000000000000000000000000000000000000000000000\n      dup2\n      mstore\n      0x04\n      add\n      tag_117\n      swap1\n      tag_113\n      jump\t// in\n    tag_117:\n      mload(0x40)\n      dup1\n      swap2\n      sub\n      swap1\n      revert\n    tag_116:\n        /* \"Contracts/TTSwapV1Coin.sol\":6351:6356  false */\n      0x00\n        /* \"Contracts/TTSwapV1Coin.sol\":6311:6319  coinList */\n      0x02\n        /* \"Contracts/TTSwapV1Coin.sol\":6311:6341  coinList[_internalCoinAddress] */\n      0x00\n        /* \"Contracts/TTSwapV1Coin.sol\":6320:6340  _internalCoinAddress */\n      dup4\n        /* \"Contracts/TTSwapV1Coin.sol\":6311:6341  coinList[_internalCoinAddress] */\n      0xffffffffffffffffffffffffffffffffffffffff\n      and\n      0xffffffffffffffffffffffffffffffffffffffff\n      and\n      dup2\n      mstore\n      0x20\n      add\n      swap1\n      dup2\n      mstore\n      0x20\n      add\n      0x00\n      keccak256\n        /* \"Contracts/TTSwapV1Coin.sol\":6311:6348  coinList[_internalCoinAddress].unlock */\n      0x05\n      add\n      0x15\n        /* \"Contracts/TTSwapV1Coin.sol\":6311:6356  coinList[_internalCoinAddress].unlock = false */\n      0x0100\n      exp\n      dup2\n      sload\n      dup2\n      0xff\n      mul\n      not\n      and\n      swap1\n      dup4\n      iszero\n      iszero\n      mul\n      or\n      swap1\n      sstore\n      pop\n        /* \"Contracts/TTSwapV1Coin.sol\":6096:6363  function lockCoinbyGator(address _internalCoinAddress) external onlyGator {... */\n      pop\n      jump\t// out\n        /* \"Contracts/TTSwapV1Coin.sol\":776:821  address public immutable gatorContractAddress */\n    tag_51:\n      immutable(\"0x6585423cb6456b1d4957f6454d2f004f0c4f58d53a00082412d5c2ef4b1b31fd\")\n      dup2\n      jump\t// out\n        /* \"Contracts/TTSwapV1Coin.sol\":827:875  address public immutable marketorContractAddress */\n    tag_54:\n      immutable(\"0x9cce9eb03c9f29c6481fca9f0f942b15bef0bbbc47fda0ddb44df157019835d9\")\n      dup2\n      jump\t// out\n        /* \"Contracts/TTSwapV1Coin.sol\":3116:3529  function updateCoinbyMarketor(... */\n    tag_59:\n        /* \"Contracts/TTSwapV1Coin.sol\":3282:3283  0 */\n      0x00\n        /* \"Contracts/TTSwapV1Coin.sol\":3229:3284  marketCoinList[_coinInfo.contractAddress] != address(0) */\n      0xffffffffffffffffffffffffffffffffffffffff\n      and\n        /* \"Contracts/TTSwapV1Coin.sol\":3229:3243  marketCoinList */\n      0x00\n        /* \"Contracts/TTSwapV1Coin.sol\":3229:3270  marketCoinList[_coinInfo.contractAddress] */\n      dup1\n        /* \"Contracts/TTSwapV1Coin.sol\":3244:3253  _coinInfo */\n      dup4\n        /* \"Contracts/TTSwapV1Coin.sol\":3244:3269  _coinInfo.contractAddress */\n      0xc0\n      add\n      mload\n        /* \"Contracts/TTSwapV1Coin.sol\":3229:3270  marketCoinList[_coinInfo.contractAddress] */\n      0xffffffffffffffffffffffffffffffffffffffff\n      and\n      0xffffffffffffffffffffffffffffffffffffffff\n      and\n      dup2\n      mstore\n      0x20\n      add\n      swap1\n      dup2\n      mstore\n      0x20\n      add\n      0x00\n      keccak256\n      0x00\n      swap1\n      sload\n      swap1\n      0x0100\n      exp\n      swap1\n      div\n      0xffffffffffffffffffffffffffffffffffffffff\n      and\n        /* \"Contracts/TTSwapV1Coin.sol\":3229:3284  marketCoinList[_coinInfo.contractAddress] != address(0) */\n      0xffffffffffffffffffffffffffffffffffffffff\n      and\n      sub\n        /* \"Contracts/TTSwapV1Coin.sol\":3221:3285  require(marketCoinList[_coinInfo.contractAddress] != address(0)) */\n      tag_120\n      jumpi\n      0x00\n      dup1\n      revert\n    tag_120:\n        /* \"Contracts/TTSwapV1Coin.sol\":3320:3325  false */\n      0x00\n        /* \"Contracts/TTSwapV1Coin.sol\":3295:3304  _coinInfo */\n      dup2\n        /* \"Contracts/TTSwapV1Coin.sol\":3295:3317  _coinInfo.marketunlock */\n      0xe0\n      add\n        /* \"Contracts/TTSwapV1Coin.sol\":3295:3325  _coinInfo.marketunlock = false */\n      swap1\n      iszero\n      iszero\n      swap1\n      dup2\n      iszero\n      iszero\n      dup2\n      mstore\n      pop\n      pop\n        /* \"Contracts/TTSwapV1Coin.sol\":3354:3359  false */\n      0x00\n        /* \"Contracts/TTSwapV1Coin.sol\":3335:3344  _coinInfo */\n      dup2\n        /* \"Contracts/TTSwapV1Coin.sol\":3335:3351  _coinInfo.unlock */\n      0x0100\n      add\n        /* \"Contracts/TTSwapV1Coin.sol\":3335:3359  _coinInfo.unlock = false */\n      swap1\n      iszero\n      iszero\n      swap1\n      dup2\n      iszero\n      iszero\n      dup2\n      mstore\n      pop\n      pop\n        /* \"Contracts/TTSwapV1Coin.sol\":3388:3392  true */\n      0x01\n        /* \"Contracts/TTSwapV1Coin.sol\":3369:3378  _coinInfo */\n      dup2\n        /* \"Contracts/TTSwapV1Coin.sol\":3369:3385  _coinInfo.isUsed */\n      0x0140\n      add\n        /* \"Contracts/TTSwapV1Coin.sol\":3369:3392  _coinInfo.isUsed = true */\n      swap1\n      iszero\n      iszero\n      swap1\n      dup2\n      iszero\n      iszero\n      dup2\n      mstore\n      pop\n      pop\n        /* \"Contracts/TTSwapV1Coin.sol\":3422:3430  coinList */\n      0x02\n        /* \"Contracts/TTSwapV1Coin.sol\":3422:3457  coinList[_coinInfo.contractAddress] */\n      0x00\n        /* \"Contracts/TTSwapV1Coin.sol\":3431:3440  _coinInfo */\n      dup3\n        /* \"Contracts/TTSwapV1Coin.sol\":3431:3456  _coinInfo.contractAddress */\n      0xc0\n      add\n      mload\n        /* \"Contracts/TTSwapV1Coin.sol\":3422:3457  coinList[_coinInfo.contractAddress] */\n      0xffffffffffffffffffffffffffffffffffffffff\n      and\n      0xffffffffffffffffffffffffffffffffffffffff\n      and\n      dup2\n      mstore\n      0x20\n      add\n      swap1\n      dup2\n      mstore\n      0x20\n      add\n      0x00\n      keccak256\n        /* \"Contracts/TTSwapV1Coin.sol\":3422:3465  coinList[_coinInfo.contractAddress].creator */\n      0x06\n      add\n      0x00\n      swap1\n      sload\n      swap1\n      0x0100\n      exp\n      swap1\n      div\n      0xffffffffffffffffffffffffffffffffffffffff\n      and\n        /* \"Contracts/TTSwapV1Coin.sol\":3402:3411  _coinInfo */\n      dup2\n        /* \"Contracts/TTSwapV1Coin.sol\":3402:3419  _coinInfo.creator */\n      0x0120\n      add\n        /* \"Contracts/TTSwapV1Coin.sol\":3402:3465  _coinInfo.creator = coinList[_coinInfo.contractAddress].creator */\n      swap1\n      0xffffffffffffffffffffffffffffffffffffffff\n      and\n      swap1\n      dup2\n      0xffffffffffffffffffffffffffffffffffffffff\n      and\n      dup2\n      mstore\n      pop\n      pop\n        /* \"Contracts/TTSwapV1Coin.sol\":3513:3522  _coinInfo */\n      dup1\n        /* \"Contracts/TTSwapV1Coin.sol\":3475:3483  coinList */\n      0x02\n        /* \"Contracts/TTSwapV1Coin.sol\":3475:3510  coinList[_coinInfo.contractAddress] */\n      0x00\n        /* \"Contracts/TTSwapV1Coin.sol\":3484:3493  _coinInfo */\n      dup4\n        /* \"Contracts/TTSwapV1Coin.sol\":3484:3509  _coinInfo.contractAddress */\n      0xc0\n      add\n      mload\n        /* \"Contracts/TTSwapV1Coin.sol\":3475:3510  coinList[_coinInfo.contractAddress] */\n      0xffffffffffffffffffffffffffffffffffffffff\n      and\n      0xffffffffffffffffffffffffffffffffffffffff\n      and\n      dup2\n      mstore\n      0x20\n      add\n      swap1\n      dup2\n      mstore\n      0x20\n      add\n      0x00\n      keccak256\n        /* \"Contracts/TTSwapV1Coin.sol\":3475:3522  coinList[_coinInfo.contractAddress] = _coinInfo */\n      0x00\n      dup3\n      add\n      mload\n      dup2\n      0x00\n      add\n      swap1\n      dup2\n      tag_121\n      swap2\n      swap1\n      tag_122\n      jump\t// in\n    tag_121:\n      pop\n      0x20\n      dup3\n      add\n      mload\n      dup2\n      0x01\n      add\n      swap1\n      dup2\n      tag_123\n      swap2\n      swap1\n      tag_122\n      jump\t// in\n    tag_123:\n      pop\n      0x40\n      dup3\n      add\n      mload\n      dup2\n      0x02\n      add\n      exp(0x0100, 0x00)\n      dup2\n      sload\n      dup2\n      0xff\n      mul\n      not\n      and\n      swap1\n      dup4\n      0xff\n      and\n      mul\n      or\n      swap1\n      sstore\n      pop\n      0x60\n      dup3\n      add\n      mload\n      dup2\n      0x02\n      add\n      exp(0x0100, 0x01)\n      dup2\n      sload\n      dup2\n      0xff\n      mul\n      not\n      and\n      swap1\n      dup4\n      0xff\n      and\n      mul\n      or\n      swap1\n      sstore\n      pop\n      0x80\n      dup3\n      add\n      mload\n      dup2\n      0x03\n      add\n      sstore\n      0xa0\n      dup3\n      add\n      mload\n      dup2\n      0x04\n      add\n      sstore\n      0xc0\n      dup3\n      add\n      mload\n      dup2\n      0x05\n      add\n      exp(0x0100, 0x00)\n      dup2\n      sload\n      dup2\n      0xffffffffffffffffffffffffffffffffffffffff\n      mul\n      not\n      and\n      swap1\n      dup4\n      0xffffffffffffffffffffffffffffffffffffffff\n      and\n      mul\n      or\n      swap1\n      sstore\n      pop\n      0xe0\n      dup3\n      add\n      mload\n      dup2\n      0x05\n      add\n      exp(0x0100, 0x14)\n      dup2\n      sload\n      dup2\n      0xff\n      mul\n      not\n      and\n      swap1\n      dup4\n      iszero\n      iszero\n      mul\n      or\n      swap1\n      sstore\n      pop\n      0x0100\n      dup3\n      add\n      mload\n      dup2\n      0x05\n      add\n      exp(0x0100, 0x15)\n      dup2\n      sload\n      dup2\n      0xff\n      mul\n      not\n      and\n      swap1\n      dup4\n      iszero\n      iszero\n      mul\n      or\n      swap1\n      sstore\n      pop\n      0x0120\n      dup3\n      add\n      mload\n      dup2\n      0x06\n      add\n      exp(0x0100, 0x00)\n      dup2\n      sload\n      dup2\n      0xffffffffffffffffffffffffffffffffffffffff\n      mul\n      not\n      and\n      swap1\n      dup4\n      0xffffffffffffffffffffffffffffffffffffffff\n      and\n      mul\n      or\n      swap1\n      sstore\n      pop\n      0x0140\n      dup3\n      add\n      mload\n      dup2\n      0x06\n      add\n      exp(0x0100, 0x14)\n      dup2\n      sload\n      dup2\n      0xff\n      mul\n      not\n      and\n      swap1\n      dup4\n      iszero\n      iszero\n      mul\n      or\n      swap1\n      sstore\n      pop\n      swap1\n      pop\n      pop\n        /* \"Contracts/TTSwapV1Coin.sol\":3116:3529  function updateCoinbyMarketor(... */\n      pop\n      jump\t// out\n        /* \"Contracts/TTSwapV1Coin.sol\":2588:2773  function changeCoinScopebyMarketor(... */\n    tag_63:\n        /* \"Contracts/TTSwapV1Coin.sol\":2760:2766  _scope */\n      dup1\n        /* \"Contracts/TTSwapV1Coin.sol\":2721:2729  coinList */\n      0x02\n        /* \"Contracts/TTSwapV1Coin.sol\":2721:2751  coinList[_internalCoinAddress] */\n      0x00\n        /* \"Contracts/TTSwapV1Coin.sol\":2730:2750  _internalCoinAddress */\n      dup5\n        /* \"Contracts/TTSwapV1Coin.sol\":2721:2751  coinList[_internalCoinAddress] */\n      0xffffffffffffffffffffffffffffffffffffffff\n      and\n      0xffffffffffffffffffffffffffffffffffffffff\n      and\n      dup2\n      mstore\n      0x20\n      add\n      swap1\n      dup2\n      mstore\n      0x20\n      add\n      0x00\n      keccak256\n        /* \"Contracts/TTSwapV1Coin.sol\":2721:2757  coinList[_internalCoinAddress].scope */\n      0x02\n      add\n      0x00\n        /* \"Contracts/TTSwapV1Coin.sol\":2721:2766  coinList[_internalCoinAddress].scope = _scope */\n      0x0100\n      exp\n      dup2\n      sload\n      dup2\n      0xff\n      mul\n      not\n      and\n      swap1\n      dup4\n      0xff\n      and\n      mul\n      or\n      swap1\n      sstore\n      pop\n        /* \"Contracts/TTSwapV1Coin.sol\":2588:2773  function changeCoinScopebyMarketor(... */\n      pop\n      pop\n      jump\t// out\n        /* \"Contracts/TTSwapV1Coin.sol\":4116:4372  function delCoinbyMarketor(address _contractaddress) external onlyMarketor {... */\n    tag_66:\n        /* \"Contracts/TTSwapV1Coin.sol\":4266:4267  0 */\n      0x00\n        /* \"Contracts/TTSwapV1Coin.sol\":4222:4268  marketCoinList[_contractaddress] != address(0) */\n      0xffffffffffffffffffffffffffffffffffffffff\n      and\n        /* \"Contracts/TTSwapV1Coin.sol\":4222:4236  marketCoinList */\n      0x00\n        /* \"Contracts/TTSwapV1Coin.sol\":4222:4254  marketCoinList[_contractaddress] */\n      dup1\n        /* \"Contracts/TTSwapV1Coin.sol\":4237:4253  _contractaddress */\n      dup4\n        /* \"Contracts/TTSwapV1Coin.sol\":4222:4254  marketCoinList[_contractaddress] */\n      0xffffffffffffffffffffffffffffffffffffffff\n      and\n      0xffffffffffffffffffffffffffffffffffffffff\n      and\n      dup2\n      mstore\n      0x20\n      add\n      swap1\n      dup2\n      mstore\n      0x20\n      add\n      0x00\n      keccak256\n      0x00\n      swap1\n      sload\n      swap1\n      0x0100\n      exp\n      swap1\n      div\n      0xffffffffffffffffffffffffffffffffffffffff\n      and\n        /* \"Contracts/TTSwapV1Coin.sol\":4222:4268  marketCoinList[_contractaddress] != address(0) */\n      0xffffffffffffffffffffffffffffffffffffffff\n      and\n      sub\n        /* \"Contracts/TTSwapV1Coin.sol\":4201:4316  require(... */\n      tag_128\n      jumpi\n      mload(0x40)\n      0x08c379a000000000000000000000000000000000000000000000000000000000\n      dup2\n      mstore\n      0x04\n      add\n      tag_129\n      swap1\n      tag_130\n      jump\t// in\n    tag_129:\n      mload(0x40)\n      dup1\n      swap2\n      sub\n      swap1\n      revert\n    tag_128:\n        /* \"Contracts/TTSwapV1Coin.sol\":4333:4347  marketCoinList */\n      0x00\n        /* \"Contracts/TTSwapV1Coin.sol\":4333:4365  marketCoinList[_contractaddress] */\n      dup1\n        /* \"Contracts/TTSwapV1Coin.sol\":4348:4364  _contractaddress */\n      dup3\n        /* \"Contracts/TTSwapV1Coin.sol\":4333:4365  marketCoinList[_contractaddress] */\n      0xffffffffffffffffffffffffffffffffffffffff\n      and\n      0xffffffffffffffffffffffffffffffffffffffff\n      and\n      dup2\n      mstore\n      0x20\n      add\n      swap1\n      dup2\n      mstore\n      0x20\n      add\n      0x00\n      keccak256\n      0x00\n        /* \"Contracts/TTSwapV1Coin.sol\":4326:4365  delete marketCoinList[_contractaddress] */\n      0x0100\n      exp\n      dup2\n      sload\n      swap1\n      0xffffffffffffffffffffffffffffffffffffffff\n      mul\n      not\n      and\n      swap1\n      sstore\n        /* \"Contracts/TTSwapV1Coin.sol\":4116:4372  function delCoinbyMarketor(address _contractaddress) external onlyMarketor {... */\n      pop\n      jump\t// out\n        /* \"Contracts/TTSwapV1Coin.sol\":2779:2941  function lockCoinbyMarketor(... */\n    tag_69:\n        /* \"Contracts/TTSwapV1Coin.sol\":2929:2934  false */\n      0x00\n        /* \"Contracts/TTSwapV1Coin.sol\":2883:2891  coinList */\n      0x02\n        /* \"Contracts/TTSwapV1Coin.sol\":2883:2913  coinList[_internalCoinAddress] */\n      0x00\n        /* \"Contracts/TTSwapV1Coin.sol\":2892:2912  _internalCoinAddress */\n      dup4\n        /* \"Contracts/TTSwapV1Coin.sol\":2883:2913  coinList[_internalCoinAddress] */\n      0xffffffffffffffffffffffffffffffffffffffff\n      and\n      0xffffffffffffffffffffffffffffffffffffffff\n      and\n      dup2\n      mstore\n      0x20\n      add\n      swap1\n      dup2\n      mstore\n      0x20\n      add\n      0x00\n      keccak256\n        /* \"Contracts/TTSwapV1Coin.sol\":2883:2926  coinList[_internalCoinAddress].marketunlock */\n      0x05\n      add\n      0x14\n        /* \"Contracts/TTSwapV1Coin.sol\":2883:2934  coinList[_internalCoinAddress].marketunlock = false */\n      0x0100\n      exp\n      dup2\n      sload\n      dup2\n      0xff\n      mul\n      not\n      and\n      swap1\n      dup4\n      iszero\n      iszero\n      mul\n      or\n      swap1\n      sstore\n      pop\n        /* \"Contracts/TTSwapV1Coin.sol\":2779:2941  function lockCoinbyMarketor(... */\n      pop\n      jump\t// out\n        /* \"Contracts/TTSwapV1Coin.sol\":6369:6866  function updateCoinbyGator(LCoin.Info memory _coinInfo) external onlyGator {... */\n    tag_72:\n        /* \"Contracts/TTSwapV1Coin.sol\":6522:6532  msg.sender */\n      caller\n        /* \"Contracts/TTSwapV1Coin.sol\":6475:6532  coinList[_coinInfo.contractAddress].creator == msg.sender */\n      0xffffffffffffffffffffffffffffffffffffffff\n      and\n        /* \"Contracts/TTSwapV1Coin.sol\":6475:6483  coinList */\n      0x02\n        /* \"Contracts/TTSwapV1Coin.sol\":6475:6510  coinList[_coinInfo.contractAddress] */\n      0x00\n        /* \"Contracts/TTSwapV1Coin.sol\":6484:6493  _coinInfo */\n      dup4\n        /* \"Contracts/TTSwapV1Coin.sol\":6484:6509  _coinInfo.contractAddress */\n      0xc0\n      add\n      mload\n        /* \"Contracts/TTSwapV1Coin.sol\":6475:6510  coinList[_coinInfo.contractAddress] */\n      0xffffffffffffffffffffffffffffffffffffffff\n      and\n      0xffffffffffffffffffffffffffffffffffffffff\n      and\n      dup2\n      mstore\n      0x20\n      add\n      swap1\n      dup2\n      mstore\n      0x20\n      add\n      0x00\n      keccak256\n        /* \"Contracts/TTSwapV1Coin.sol\":6475:6518  coinList[_coinInfo.contractAddress].creator */\n      0x06\n      add\n      0x00\n      swap1\n      sload\n      swap1\n      0x0100\n      exp\n      swap1\n      div\n      0xffffffffffffffffffffffffffffffffffffffff\n      and\n        /* \"Contracts/TTSwapV1Coin.sol\":6475:6532  coinList[_coinInfo.contractAddress].creator == msg.sender */\n      0xffffffffffffffffffffffffffffffffffffffff\n      and\n      eq\n        /* \"Contracts/TTSwapV1Coin.sol\":6454:6580  require(... */\n      tag_135\n      jumpi\n      mload(0x40)\n      0x08c379a000000000000000000000000000000000000000000000000000000000\n      dup2\n      mstore\n      0x04\n      add\n      tag_136\n      swap1\n      tag_113\n      jump\t// in\n    tag_136:\n      mload(0x40)\n      dup1\n      swap2\n      sub\n      swap1\n      revert\n    tag_135:\n        /* \"Contracts/TTSwapV1Coin.sol\":6617:6618  4 */\n      0x04\n        /* \"Contracts/TTSwapV1Coin.sol\":6598:6607  _coinInfo */\n      dup2\n        /* \"Contracts/TTSwapV1Coin.sol\":6598:6613  _coinInfo.scope */\n      0x40\n      add\n      mload\n        /* \"Contracts/TTSwapV1Coin.sol\":6598:6618  _coinInfo.scope == 4 */\n      0xff\n      and\n      eq\n        /* \"Contracts/TTSwapV1Coin.sol\":6590:6655  require(_coinInfo.scope == 4, \"the coin scope is not justified \") */\n      tag_137\n      jumpi\n      mload(0x40)\n      0x08c379a000000000000000000000000000000000000000000000000000000000\n      dup2\n      mstore\n      0x04\n      add\n      tag_138\n      swap1\n      tag_139\n      jump\t// in\n    tag_138:\n      mload(0x40)\n      dup1\n      swap2\n      sub\n      swap1\n      revert\n    tag_137:\n        /* \"Contracts/TTSwapV1Coin.sol\":6690:6695  false */\n      0x00\n        /* \"Contracts/TTSwapV1Coin.sol\":6665:6674  _coinInfo */\n      dup2\n        /* \"Contracts/TTSwapV1Coin.sol\":6665:6687  _coinInfo.marketunlock */\n      0xe0\n      add\n        /* \"Contracts/TTSwapV1Coin.sol\":6665:6695  _coinInfo.marketunlock = false */\n      swap1\n      iszero\n      iszero\n      swap1\n      dup2\n      iszero\n      iszero\n      dup2\n      mstore\n      pop\n      pop\n        /* \"Contracts/TTSwapV1Coin.sol\":6724:6729  false */\n      0x00\n        /* \"Contracts/TTSwapV1Coin.sol\":6705:6714  _coinInfo */\n      dup2\n        /* \"Contracts/TTSwapV1Coin.sol\":6705:6721  _coinInfo.unlock */\n      0x0100\n      add\n        /* \"Contracts/TTSwapV1Coin.sol\":6705:6729  _coinInfo.unlock = false */\n      swap1\n      iszero\n      iszero\n      swap1\n      dup2\n      iszero\n      iszero\n      dup2\n      mstore\n      pop\n      pop\n        /* \"Contracts/TTSwapV1Coin.sol\":6758:6762  true */\n      0x01\n        /* \"Contracts/TTSwapV1Coin.sol\":6739:6748  _coinInfo */\n      dup2\n        /* \"Contracts/TTSwapV1Coin.sol\":6739:6755  _coinInfo.isUsed */\n      0x0140\n      add\n        /* \"Contracts/TTSwapV1Coin.sol\":6739:6762  _coinInfo.isUsed = true */\n      swap1\n      iszero\n      iszero\n      swap1\n      dup2\n      iszero\n      iszero\n      dup2\n      mstore\n      pop\n      pop\n        /* \"Contracts/TTSwapV1Coin.sol\":6792:6802  msg.sender */\n      caller\n        /* \"Contracts/TTSwapV1Coin.sol\":6772:6781  _coinInfo */\n      dup2\n        /* \"Contracts/TTSwapV1Coin.sol\":6772:6789  _coinInfo.creator */\n      0x0120\n      add\n        /* \"Contracts/TTSwapV1Coin.sol\":6772:6802  _coinInfo.creator = msg.sender */\n      swap1\n      0xffffffffffffffffffffffffffffffffffffffff\n      and\n      swap1\n      dup2\n      0xffffffffffffffffffffffffffffffffffffffff\n      and\n      dup2\n      mstore\n      pop\n      pop\n        /* \"Contracts/TTSwapV1Coin.sol\":6850:6859  _coinInfo */\n      dup1\n        /* \"Contracts/TTSwapV1Coin.sol\":6812:6820  coinList */\n      0x02\n        /* \"Contracts/TTSwapV1Coin.sol\":6812:6847  coinList[_coinInfo.contractAddress] */\n      0x00\n        /* \"Contracts/TTSwapV1Coin.sol\":6821:6830  _coinInfo */\n      dup4\n        /* \"Contracts/TTSwapV1Coin.sol\":6821:6846  _coinInfo.contractAddress */\n      0xc0\n      add\n      mload\n        /* \"Contracts/TTSwapV1Coin.sol\":6812:6847  coinList[_coinInfo.contractAddress] */\n      0xffffffffffffffffffffffffffffffffffffffff\n      and\n      0xffffffffffffffffffffffffffffffffffffffff\n      and\n      dup2\n      mstore\n      0x20\n      add\n      swap1\n      dup2\n      mstore\n      0x20\n      add\n      0x00\n      keccak256\n        /* \"Contracts/TTSwapV1Coin.sol\":6812:6859  coinList[_coinInfo.contractAddress] = _coinInfo */\n      0x00\n      dup3\n      add\n      mload\n      dup2\n      0x00\n      add\n      swap1\n      dup2\n      tag_140\n      swap2\n      swap1\n      tag_122\n      jump\t// in\n    tag_140:\n      pop\n      0x20\n      dup3\n      add\n      mload\n      dup2\n      0x01\n      add\n      swap1\n      dup2\n      tag_141\n      swap2\n      swap1\n      tag_122\n      jump\t// in\n    tag_141:\n      pop\n      0x40\n      dup3\n      add\n      mload\n      dup2\n      0x02\n      add\n      exp(0x0100, 0x00)\n      dup2\n      sload\n      dup2\n      0xff\n      mul\n      not\n      and\n      swap1\n      dup4\n      0xff\n      and\n      mul\n      or\n      swap1\n      sstore\n      pop\n      0x60\n      dup3\n      add\n      mload\n      dup2\n      0x02\n      add\n      exp(0x0100, 0x01)\n      dup2\n      sload\n      dup2\n      0xff\n      mul\n      not\n      and\n      swap1\n      dup4\n      0xff\n      and\n      mul\n      or\n      swap1\n      sstore\n      pop\n      0x80\n      dup3\n      add\n      mload\n      dup2\n      0x03\n      add\n      sstore\n      0xa0\n      dup3\n      add\n      mload\n      dup2\n      0x04\n      add\n      sstore\n      0xc0\n      dup3\n      add\n      mload\n      dup2\n      0x05\n      add\n      exp(0x0100, 0x00)\n      dup2\n      sload\n      dup2\n      0xffffffffffffffffffffffffffffffffffffffff\n      mul\n      not\n      and\n      swap1\n      dup4\n      0xffffffffffffffffffffffffffffffffffffffff\n      and\n      mul\n      or\n      swap1\n      sstore\n      pop\n      0xe0\n      dup3\n      add\n      mload\n      dup2\n      0x05\n      add\n      exp(0x0100, 0x14)\n      dup2\n      sload\n      dup2\n      0xff\n      mul\n      not\n      and\n      swap1\n      dup4\n      iszero\n      iszero\n      mul\n      or\n      swap1\n      sstore\n      pop\n      0x0100\n      dup3\n      add\n      mload\n      dup2\n      0x05\n      add\n      exp(0x0100, 0x15)\n      dup2\n      sload\n      dup2\n      0xff\n      mul\n      not\n      and\n      swap1\n      dup4\n      iszero\n      iszero\n      mul\n      or\n      swap1\n      sstore\n      pop\n      0x0120\n      dup3\n      add\n      mload\n      dup2\n      0x06\n      add\n      exp(0x0100, 0x00)\n      dup2\n      sload\n      dup2\n      0xffffffffffffffffffffffffffffffffffffffff\n      mul\n      not\n      and\n      swap1\n      dup4\n      0xffffffffffffffffffffffffffffffffffffffff\n      and\n      mul\n      or\n      swap1\n      sstore\n      pop\n      0x0140\n      dup3\n      add\n      mload\n      dup2\n      0x06\n      add\n      exp(0x0100, 0x14)\n      dup2\n      sload\n      dup2\n      0xff\n      mul\n      not\n      and\n      swap1\n      dup4\n      iszero\n      iszero\n      mul\n      or\n      swap1\n      sstore\n      pop\n      swap1\n      pop\n      pop\n        /* \"Contracts/TTSwapV1Coin.sol\":6369:6866  function updateCoinbyGator(LCoin.Info memory _coinInfo) external onlyGator {... */\n      pop\n      jump\t// out\n        /* \"Contracts/TTSwapV1Coin.sol\":561:628  mapping(address => mapping(address => address)) public gateCoinList */\n    tag_76:\n      mstore(0x20, 0x01)\n      dup2\n      0x00\n      mstore\n      mstore(0x20, keccak256(0x00, 0x40))\n      dup1\n      0x00\n      mstore\n      keccak256(0x00, 0x40)\n      0x00\n      swap2\n      pop\n      swap2\n      pop\n      swap1\n      sload\n      swap1\n      0x0100\n      exp\n      swap1\n      div\n      0xffffffffffffffffffffffffffffffffffffffff\n      and\n      dup2\n      jump\t// out\n        /* \"Contracts/TTSwapV1Coin.sol\":3535:4110  function impoveGateCoinbyMarketor(... */\n    tag_80:\n        /* \"Contracts/TTSwapV1Coin.sol\":3748:3749  0 */\n      0x00\n        /* \"Contracts/TTSwapV1Coin.sol\":3692:3750  gateCoinList[_gateaddress][_contractaddress] != address(0) */\n      0xffffffffffffffffffffffffffffffffffffffff\n      and\n        /* \"Contracts/TTSwapV1Coin.sol\":3692:3704  gateCoinList */\n      0x01\n        /* \"Contracts/TTSwapV1Coin.sol\":3692:3718  gateCoinList[_gateaddress] */\n      0x00\n        /* \"Contracts/TTSwapV1Coin.sol\":3705:3717  _gateaddress */\n      dup4\n        /* \"Contracts/TTSwapV1Coin.sol\":3692:3718  gateCoinList[_gateaddress] */\n      0xffffffffffffffffffffffffffffffffffffffff\n      and\n      0xffffffffffffffffffffffffffffffffffffffff\n      and\n      dup2\n      mstore\n      0x20\n      add\n      swap1\n      dup2\n      mstore\n      0x20\n      add\n      0x00\n      keccak256\n        /* \"Contracts/TTSwapV1Coin.sol\":3692:3736  gateCoinList[_gateaddress][_contractaddress] */\n      0x00\n        /* \"Contracts/TTSwapV1Coin.sol\":3719:3735  _contractaddress */\n      dup5\n        /* \"Contracts/TTSwapV1Coin.sol\":3692:3736  gateCoinList[_gateaddress][_contractaddress] */\n      0xffffffffffffffffffffffffffffffffffffffff\n      and\n      0xffffffffffffffffffffffffffffffffffffffff\n      and\n      dup2\n      mstore\n      0x20\n      add\n      swap1\n      dup2\n      mstore\n      0x20\n      add\n      0x00\n      keccak256\n      0x00\n      swap1\n      sload\n      swap1\n      0x0100\n      exp\n      swap1\n      div\n      0xffffffffffffffffffffffffffffffffffffffff\n      and\n        /* \"Contracts/TTSwapV1Coin.sol\":3692:3750  gateCoinList[_gateaddress][_contractaddress] != address(0) */\n      0xffffffffffffffffffffffffffffffffffffffff\n      and\n      sub\n        /* \"Contracts/TTSwapV1Coin.sol\":3671:3798  require(... */\n      tag_144\n      jumpi\n      mload(0x40)\n      0x08c379a000000000000000000000000000000000000000000000000000000000\n      dup2\n      mstore\n      0x04\n      add\n      tag_145\n      swap1\n      tag_130\n      jump\t// in\n    tag_145:\n      mload(0x40)\n      dup1\n      swap2\n      sub\n      swap1\n      revert\n    tag_144:\n        /* \"Contracts/TTSwapV1Coin.sol\":3873:3874  0 */\n      0x00\n        /* \"Contracts/TTSwapV1Coin.sol\":3829:3875  marketCoinList[_contractaddress] == address(0) */\n      0xffffffffffffffffffffffffffffffffffffffff\n      and\n        /* \"Contracts/TTSwapV1Coin.sol\":3829:3843  marketCoinList */\n      0x00\n        /* \"Contracts/TTSwapV1Coin.sol\":3829:3861  marketCoinList[_contractaddress] */\n      dup1\n        /* \"Contracts/TTSwapV1Coin.sol\":3844:3860  _contractaddress */\n      dup5\n        /* \"Contracts/TTSwapV1Coin.sol\":3829:3861  marketCoinList[_contractaddress] */\n      0xffffffffffffffffffffffffffffffffffffffff\n      and\n      0xffffffffffffffffffffffffffffffffffffffff\n      and\n      dup2\n      mstore\n      0x20\n      add\n      swap1\n      dup2\n      mstore\n      0x20\n      add\n      0x00\n      keccak256\n      0x00\n      swap1\n      sload\n      swap1\n      0x0100\n      exp\n      swap1\n      div\n      0xffffffffffffffffffffffffffffffffffffffff\n      and\n        /* \"Contracts/TTSwapV1Coin.sol\":3829:3875  marketCoinList[_contractaddress] == address(0) */\n      0xffffffffffffffffffffffffffffffffffffffff\n      and\n      eq\n        /* \"Contracts/TTSwapV1Coin.sol\":3808:3930  require(... */\n      tag_146\n      jumpi\n      mload(0x40)\n      0x08c379a000000000000000000000000000000000000000000000000000000000\n      dup2\n      mstore\n      0x04\n      add\n      tag_147\n      swap1\n      tag_148\n      jump\t// in\n    tag_147:\n      mload(0x40)\n      dup1\n      swap2\n      sub\n      swap1\n      revert\n    tag_146:\n        /* \"Contracts/TTSwapV1Coin.sol\":3975:3987  gateCoinList */\n      0x01\n        /* \"Contracts/TTSwapV1Coin.sol\":3975:4001  gateCoinList[_gateaddress] */\n      0x00\n        /* \"Contracts/TTSwapV1Coin.sol\":3988:4000  _gateaddress */\n      dup3\n        /* \"Contracts/TTSwapV1Coin.sol\":3975:4001  gateCoinList[_gateaddress] */\n      0xffffffffffffffffffffffffffffffffffffffff\n      and\n      0xffffffffffffffffffffffffffffffffffffffff\n      and\n      dup2\n      mstore\n      0x20\n      add\n      swap1\n      dup2\n      mstore\n      0x20\n      add\n      0x00\n      keccak256\n        /* \"Contracts/TTSwapV1Coin.sol\":3975:4041  gateCoinList[_gateaddress][... */\n      0x00\n        /* \"Contracts/TTSwapV1Coin.sol\":4015:4031  _contractaddress */\n      dup4\n        /* \"Contracts/TTSwapV1Coin.sol\":3975:4041  gateCoinList[_gateaddress][... */\n      0xffffffffffffffffffffffffffffffffffffffff\n      and\n      0xffffffffffffffffffffffffffffffffffffffff\n      and\n      dup2\n      mstore\n      0x20\n      add\n      swap1\n      dup2\n      mstore\n      0x20\n      add\n      0x00\n      keccak256\n      0x00\n      swap1\n      sload\n      swap1\n      0x0100\n      exp\n      swap1\n      div\n      0xffffffffffffffffffffffffffffffffffffffff\n      and\n        /* \"Contracts/TTSwapV1Coin.sol\":3940:3954  marketCoinList */\n      0x00\n        /* \"Contracts/TTSwapV1Coin.sol\":3940:3972  marketCoinList[_contractaddress] */\n      dup1\n        /* \"Contracts/TTSwapV1Coin.sol\":3955:3971  _contractaddress */\n      dup5\n        /* \"Contracts/TTSwapV1Coin.sol\":3940:3972  marketCoinList[_contractaddress] */\n      0xffffffffffffffffffffffffffffffffffffffff\n      and\n      0xffffffffffffffffffffffffffffffffffffffff\n      and\n      dup2\n      mstore\n      0x20\n      add\n      swap1\n      dup2\n      mstore\n      0x20\n      add\n      0x00\n      keccak256\n      0x00\n        /* \"Contracts/TTSwapV1Coin.sol\":3940:4041  marketCoinList[_contractaddress] = gateCoinList[_gateaddress][... */\n      0x0100\n      exp\n      dup2\n      sload\n      dup2\n      0xffffffffffffffffffffffffffffffffffffffff\n      mul\n      not\n      and\n      swap1\n      dup4\n      0xffffffffffffffffffffffffffffffffffffffff\n      and\n      mul\n      or\n      swap1\n      sstore\n      pop\n        /* \"Contracts/TTSwapV1Coin.sol\":4059:4071  gateCoinList */\n      0x01\n        /* \"Contracts/TTSwapV1Coin.sol\":4059:4085  gateCoinList[_gateaddress] */\n      0x00\n        /* \"Contracts/TTSwapV1Coin.sol\":4072:4084  _gateaddress */\n      dup3\n        /* \"Contracts/TTSwapV1Coin.sol\":4059:4085  gateCoinList[_gateaddress] */\n      0xffffffffffffffffffffffffffffffffffffffff\n      and\n      0xffffffffffffffffffffffffffffffffffffffff\n      and\n      dup2\n      mstore\n      0x20\n      add\n      swap1\n      dup2\n      mstore\n      0x20\n      add\n      0x00\n      keccak256\n        /* \"Contracts/TTSwapV1Coin.sol\":4059:4103  gateCoinList[_gateaddress][_contractaddress] */\n      0x00\n        /* \"Contracts/TTSwapV1Coin.sol\":4086:4102  _contractaddress */\n      dup4\n        /* \"Contracts/TTSwapV1Coin.sol\":4059:4103  gateCoinList[_gateaddress][_contractaddress] */\n      0xffffffffffffffffffffffffffffffffffffffff\n      and\n      0xffffffffffffffffffffffffffffffffffffffff\n      and\n      dup2\n      mstore\n      0x20\n      add\n      swap1\n      dup2\n      mstore\n      0x20\n      add\n      0x00\n      keccak256\n      0x00\n        /* \"Contracts/TTSwapV1Coin.sol\":4052:4103  delete gateCoinList[_gateaddress][_contractaddress] */\n      0x0100\n      exp\n      dup2\n      sload\n      swap1\n      0xffffffffffffffffffffffffffffffffffffffff\n      mul\n      not\n      and\n      swap1\n      sstore\n        /* \"Contracts/TTSwapV1Coin.sol\":3535:4110  function impoveGateCoinbyMarketor(... */\n      pop\n      pop\n      jump\t// out\n        /* \"Contracts/TTSwapV1Coin.sol\":4844:5802  function addCoinbyGator(LCoin.Info memory _coinInfo) external onlyGator {... */\n    tag_83:\n        /* \"Contracts/TTSwapV1Coin.sol\":4976:4980  true */\n      0x01\n        /* \"Contracts/TTSwapV1Coin.sol\":4930:4980  coinList[_coinInfo.contractAddress].isUsed != true */\n      iszero\n      iszero\n        /* \"Contracts/TTSwapV1Coin.sol\":4930:4938  coinList */\n      0x02\n        /* \"Contracts/TTSwapV1Coin.sol\":4930:4965  coinList[_coinInfo.contractAddress] */\n      0x00\n        /* \"Contracts/TTSwapV1Coin.sol\":4939:4948  _coinInfo */\n      dup4\n        /* \"Contracts/TTSwapV1Coin.sol\":4939:4964  _coinInfo.contractAddress */\n      0xc0\n      add\n      mload\n        /* \"Contracts/TTSwapV1Coin.sol\":4930:4965  coinList[_coinInfo.contractAddress] */\n      0xffffffffffffffffffffffffffffffffffffffff\n      and\n      0xffffffffffffffffffffffffffffffffffffffff\n      and\n      dup2\n      mstore\n      0x20\n      add\n      swap1\n      dup2\n      mstore\n      0x20\n      add\n      0x00\n      keccak256\n        /* \"Contracts/TTSwapV1Coin.sol\":4930:4972  coinList[_coinInfo.contractAddress].isUsed */\n      0x06\n      add\n      0x14\n      swap1\n      sload\n      swap1\n      0x0100\n      exp\n      swap1\n      div\n      0xff\n      and\n        /* \"Contracts/TTSwapV1Coin.sol\":4930:4980  coinList[_coinInfo.contractAddress].isUsed != true */\n      iszero\n      iszero\n      eq\n        /* \"Contracts/TTSwapV1Coin.sol\":4926:5796  if (coinList[_coinInfo.contractAddress].isUsed != true) {... */\n      tag_151\n      jumpi\n        /* \"Contracts/TTSwapV1Coin.sol\":5016:5026  msg.sender */\n      caller\n        /* \"Contracts/TTSwapV1Coin.sol\":4996:5005  _coinInfo */\n      dup2\n        /* \"Contracts/TTSwapV1Coin.sol\":4996:5013  _coinInfo.creator */\n      0x0120\n      add\n        /* \"Contracts/TTSwapV1Coin.sol\":4996:5026  _coinInfo.creator = msg.sender */\n      swap1\n      0xffffffffffffffffffffffffffffffffffffffff\n      and\n      swap1\n      dup2\n      0xffffffffffffffffffffffffffffffffffffffff\n      and\n      dup2\n      mstore\n      pop\n      pop\n        /* \"Contracts/TTSwapV1Coin.sol\":5065:5070  false */\n      0x00\n        /* \"Contracts/TTSwapV1Coin.sol\":5040:5049  _coinInfo */\n      dup2\n        /* \"Contracts/TTSwapV1Coin.sol\":5040:5062  _coinInfo.marketunlock */\n      0xe0\n      add\n        /* \"Contracts/TTSwapV1Coin.sol\":5040:5070  _coinInfo.marketunlock = false */\n      swap1\n      iszero\n      iszero\n      swap1\n      dup2\n      iszero\n      iszero\n      dup2\n      mstore\n      pop\n      pop\n        /* \"Contracts/TTSwapV1Coin.sol\":5103:5108  false */\n      0x00\n        /* \"Contracts/TTSwapV1Coin.sol\":5084:5093  _coinInfo */\n      dup2\n        /* \"Contracts/TTSwapV1Coin.sol\":5084:5100  _coinInfo.unlock */\n      0x0100\n      add\n        /* \"Contracts/TTSwapV1Coin.sol\":5084:5108  _coinInfo.unlock = false */\n      swap1\n      iszero\n      iszero\n      swap1\n      dup2\n      iszero\n      iszero\n      dup2\n      mstore\n      pop\n      pop\n        /* \"Contracts/TTSwapV1Coin.sol\":5141:5145  true */\n      0x01\n        /* \"Contracts/TTSwapV1Coin.sol\":5122:5131  _coinInfo */\n      dup2\n        /* \"Contracts/TTSwapV1Coin.sol\":5122:5138  _coinInfo.isUsed */\n      0x0140\n      add\n        /* \"Contracts/TTSwapV1Coin.sol\":5122:5145  _coinInfo.isUsed = true */\n      swap1\n      iszero\n      iszero\n      swap1\n      dup2\n      iszero\n      iszero\n      dup2\n      mstore\n      pop\n      pop\n        /* \"Contracts/TTSwapV1Coin.sol\":5197:5206  _coinInfo */\n      dup1\n        /* \"Contracts/TTSwapV1Coin.sol\":5159:5167  coinList */\n      0x02\n        /* \"Contracts/TTSwapV1Coin.sol\":5159:5194  coinList[_coinInfo.contractAddress] */\n      0x00\n        /* \"Contracts/TTSwapV1Coin.sol\":5168:5177  _coinInfo */\n      dup4\n        /* \"Contracts/TTSwapV1Coin.sol\":5168:5193  _coinInfo.contractAddress */\n      0xc0\n      add\n      mload\n        /* \"Contracts/TTSwapV1Coin.sol\":5159:5194  coinList[_coinInfo.contractAddress] */\n      0xffffffffffffffffffffffffffffffffffffffff\n      and\n      0xffffffffffffffffffffffffffffffffffffffff\n      and\n      dup2\n      mstore\n      0x20\n      add\n      swap1\n      dup2\n      mstore\n      0x20\n      add\n      0x00\n      keccak256\n        /* \"Contracts/TTSwapV1Coin.sol\":5159:5206  coinList[_coinInfo.contractAddress] = _coinInfo */\n      0x00\n      dup3\n      add\n      mload\n      dup2\n      0x00\n      add\n      swap1\n      dup2\n      tag_152\n      swap2\n      swap1\n      tag_122\n      jump\t// in\n    tag_152:\n      pop\n      0x20\n      dup3\n      add\n      mload\n      dup2\n      0x01\n      add\n      swap1\n      dup2\n      tag_153\n      swap2\n      swap1\n      tag_122\n      jump\t// in\n    tag_153:\n      pop\n      0x40\n      dup3\n      add\n      mload\n      dup2\n      0x02\n      add\n      exp(0x0100, 0x00)\n      dup2\n      sload\n      dup2\n      0xff\n      mul\n      not\n      and\n      swap1\n      dup4\n      0xff\n      and\n      mul\n      or\n      swap1\n      sstore\n      pop\n      0x60\n      dup3\n      add\n      mload\n      dup2\n      0x02\n      add\n      exp(0x0100, 0x01)\n      dup2\n      sload\n      dup2\n      0xff\n      mul\n      not\n      and\n      swap1\n      dup4\n      0xff\n      and\n      mul\n      or\n      swap1\n      sstore\n      pop\n      0x80\n      dup3\n      add\n      mload\n      dup2\n      0x03\n      add\n      sstore\n      0xa0\n      dup3\n      add\n      mload\n      dup2\n      0x04\n      add\n      sstore\n      0xc0\n      dup3\n      add\n      mload\n      dup2\n      0x05\n      add\n      exp(0x0100, 0x00)\n      dup2\n      sload\n      dup2\n      0xffffffffffffffffffffffffffffffffffffffff\n      mul\n      not\n      and\n      swap1\n      dup4\n      0xffffffffffffffffffffffffffffffffffffffff\n      and\n      mul\n      or\n      swap1\n      sstore\n      pop\n      0xe0\n      dup3\n      add\n      mload\n      dup2\n      0x05\n      add\n      exp(0x0100, 0x14)\n      dup2\n      sload\n      dup2\n      0xff\n      mul\n      not\n      and\n      swap1\n      dup4\n      iszero\n      iszero\n      mul\n      or\n      swap1\n      sstore\n      pop\n      0x0100\n      dup3\n      add\n      mload\n      dup2\n      0x05\n      add\n      exp(0x0100, 0x15)\n      dup2\n      sload\n      dup2\n      0xff\n      mul\n      not\n      and\n      swap1\n      dup4\n      iszero\n      iszero\n      mul\n      or\n      swap1\n      sstore\n      pop\n      0x0120\n      dup3\n      add\n      mload\n      dup2\n      0x06\n      add\n      exp(0x0100, 0x00)\n      dup2\n      sload\n      dup2\n      0xffffffffffffffffffffffffffffffffffffffff\n      mul\n      not\n      and\n      swap1\n      dup4\n      0xffffffffffffffffffffffffffffffffffffffff\n      and\n      mul\n      or\n      swap1\n      sstore\n      pop\n      0x0140\n      dup3\n      add\n      mload\n      dup2\n      0x06\n      add\n      exp(0x0100, 0x14)\n      dup2\n      sload\n      dup2\n      0xff\n      mul\n      not\n      and\n      swap1\n      dup4\n      iszero\n      iszero\n      mul\n      or\n      swap1\n      sstore\n      pop\n      swap1\n      pop\n      pop\n        /* \"Contracts/TTSwapV1Coin.sol\":5274:5283  _coinInfo */\n      dup1\n        /* \"Contracts/TTSwapV1Coin.sol\":5274:5316  _coinInfo... */\n      0xc0\n      add\n      mload\n        /* \"Contracts/TTSwapV1Coin.sol\":5220:5232  gateCoinList */\n      0x01\n        /* \"Contracts/TTSwapV1Coin.sol\":5220:5244  gateCoinList[msg.sender] */\n      0x00\n        /* \"Contracts/TTSwapV1Coin.sol\":5233:5243  msg.sender */\n      caller\n        /* \"Contracts/TTSwapV1Coin.sol\":5220:5244  gateCoinList[msg.sender] */\n      0xffffffffffffffffffffffffffffffffffffffff\n      and\n      0xffffffffffffffffffffffffffffffffffffffff\n      and\n      dup2\n      mstore\n      0x20\n      add\n      swap1\n      dup2\n      mstore\n      0x20\n      add\n      0x00\n      keccak256\n        /* \"Contracts/TTSwapV1Coin.sol\":5220:5271  gateCoinList[msg.sender][_coinInfo.contractAddress] */\n      0x00\n        /* \"Contracts/TTSwapV1Coin.sol\":5245:5254  _coinInfo */\n      dup4\n        /* \"Contracts/TTSwapV1Coin.sol\":5245:5270  _coinInfo.contractAddress */\n      0xc0\n      add\n      mload\n        /* \"Contracts/TTSwapV1Coin.sol\":5220:5271  gateCoinList[msg.sender][_coinInfo.contractAddress] */\n      0xffffffffffffffffffffffffffffffffffffffff\n      and\n      0xffffffffffffffffffffffffffffffffffffffff\n      and\n      dup2\n      mstore\n      0x20\n      add\n      swap1\n      dup2\n      mstore\n      0x20\n      add\n      0x00\n      keccak256\n      0x00\n        /* \"Contracts/TTSwapV1Coin.sol\":5220:5316  gateCoinList[msg.sender][_coinInfo.contractAddress] = _coinInfo... */\n      0x0100\n      exp\n      dup2\n      sload\n      dup2\n      0xffffffffffffffffffffffffffffffffffffffff\n      mul\n      not\n      and\n      swap1\n      dup4\n      0xffffffffffffffffffffffffffffffffffffffff\n      and\n      mul\n      or\n      swap1\n      sstore\n      pop\n        /* \"Contracts/TTSwapV1Coin.sol\":4926:5796  if (coinList[_coinInfo.contractAddress].isUsed != true) {... */\n      jump(tag_154)\n    tag_151:\n        /* \"Contracts/TTSwapV1Coin.sol\":5425:5426  0 */\n      0x00\n        /* \"Contracts/TTSwapV1Coin.sol\":5372:5427  marketCoinList[_coinInfo.contractAddress] == address(0) */\n      0xffffffffffffffffffffffffffffffffffffffff\n      and\n        /* \"Contracts/TTSwapV1Coin.sol\":5372:5386  marketCoinList */\n      0x00\n        /* \"Contracts/TTSwapV1Coin.sol\":5372:5413  marketCoinList[_coinInfo.contractAddress] */\n      dup1\n        /* \"Contracts/TTSwapV1Coin.sol\":5387:5396  _coinInfo */\n      dup4\n        /* \"Contracts/TTSwapV1Coin.sol\":5387:5412  _coinInfo.contractAddress */\n      0xc0\n      add\n      mload\n        /* \"Contracts/TTSwapV1Coin.sol\":5372:5413  marketCoinList[_coinInfo.contractAddress] */\n      0xffffffffffffffffffffffffffffffffffffffff\n      and\n      0xffffffffffffffffffffffffffffffffffffffff\n      and\n      dup2\n      mstore\n      0x20\n      add\n      swap1\n      dup2\n      mstore\n      0x20\n      add\n      0x00\n      keccak256\n      0x00\n      swap1\n      sload\n      swap1\n      0x0100\n      exp\n      swap1\n      div\n      0xffffffffffffffffffffffffffffffffffffffff\n      and\n        /* \"Contracts/TTSwapV1Coin.sol\":5372:5427  marketCoinList[_coinInfo.contractAddress] == address(0) */\n      0xffffffffffffffffffffffffffffffffffffffff\n      and\n      eq\n        /* \"Contracts/TTSwapV1Coin.sol\":5347:5490  require(... */\n      tag_155\n      jumpi\n      mload(0x40)\n      0x08c379a000000000000000000000000000000000000000000000000000000000\n      dup2\n      mstore\n      0x04\n      add\n      tag_156\n      swap1\n      tag_157\n      jump\t// in\n    tag_156:\n      mload(0x40)\n      dup1\n      swap2\n      sub\n      swap1\n      revert\n    tag_155:\n        /* \"Contracts/TTSwapV1Coin.sol\":5612:5613  0 */\n      0x00\n        /* \"Contracts/TTSwapV1Coin.sol\":5529:5614  gateCoinList[msg.sender][_coinInfo.contractAddress] ==... */\n      0xffffffffffffffffffffffffffffffffffffffff\n      and\n        /* \"Contracts/TTSwapV1Coin.sol\":5529:5541  gateCoinList */\n      0x01\n        /* \"Contracts/TTSwapV1Coin.sol\":5529:5553  gateCoinList[msg.sender] */\n      0x00\n        /* \"Contracts/TTSwapV1Coin.sol\":5542:5552  msg.sender */\n      caller\n        /* \"Contracts/TTSwapV1Coin.sol\":5529:5553  gateCoinList[msg.sender] */\n      0xffffffffffffffffffffffffffffffffffffffff\n      and\n      0xffffffffffffffffffffffffffffffffffffffff\n      and\n      dup2\n      mstore\n      0x20\n      add\n      swap1\n      dup2\n      mstore\n      0x20\n      add\n      0x00\n      keccak256\n        /* \"Contracts/TTSwapV1Coin.sol\":5529:5580  gateCoinList[msg.sender][_coinInfo.contractAddress] */\n      0x00\n        /* \"Contracts/TTSwapV1Coin.sol\":5554:5563  _coinInfo */\n      dup4\n        /* \"Contracts/TTSwapV1Coin.sol\":5554:5579  _coinInfo.contractAddress */\n      0xc0\n      add\n      mload\n        /* \"Contracts/TTSwapV1Coin.sol\":5529:5580  gateCoinList[msg.sender][_coinInfo.contractAddress] */\n      0xffffffffffffffffffffffffffffffffffffffff\n      and\n      0xffffffffffffffffffffffffffffffffffffffff\n      and\n      dup2\n      mstore\n      0x20\n      add\n      swap1\n      dup2\n      mstore\n      0x20\n      add\n      0x00\n      keccak256\n      0x00\n      swap1\n      sload\n      swap1\n      0x0100\n      exp\n      swap1\n      div\n      0xffffffffffffffffffffffffffffffffffffffff\n      and\n        /* \"Contracts/TTSwapV1Coin.sol\":5529:5614  gateCoinList[msg.sender][_coinInfo.contractAddress] ==... */\n      0xffffffffffffffffffffffffffffffffffffffff\n      and\n      eq\n        /* \"Contracts/TTSwapV1Coin.sol\":5504:5675  require(... */\n      tag_158\n      jumpi\n      mload(0x40)\n      0x08c379a000000000000000000000000000000000000000000000000000000000\n      dup2\n      mstore\n      0x04\n      add\n      tag_159\n      swap1\n      tag_160\n      jump\t// in\n    tag_159:\n      mload(0x40)\n      dup1\n      swap2\n      sub\n      swap1\n      revert\n    tag_158:\n        /* \"Contracts/TTSwapV1Coin.sol\":5743:5752  _coinInfo */\n      dup1\n        /* \"Contracts/TTSwapV1Coin.sol\":5743:5785  _coinInfo... */\n      0xc0\n      add\n      mload\n        /* \"Contracts/TTSwapV1Coin.sol\":5689:5701  gateCoinList */\n      0x01\n        /* \"Contracts/TTSwapV1Coin.sol\":5689:5713  gateCoinList[msg.sender] */\n      0x00\n        /* \"Contracts/TTSwapV1Coin.sol\":5702:5712  msg.sender */\n      caller\n        /* \"Contracts/TTSwapV1Coin.sol\":5689:5713  gateCoinList[msg.sender] */\n      0xffffffffffffffffffffffffffffffffffffffff\n      and\n      0xffffffffffffffffffffffffffffffffffffffff\n      and\n      dup2\n      mstore\n      0x20\n      add\n      swap1\n      dup2\n      mstore\n      0x20\n      add\n      0x00\n      keccak256\n        /* \"Contracts/TTSwapV1Coin.sol\":5689:5740  gateCoinList[msg.sender][_coinInfo.contractAddress] */\n      0x00\n        /* \"Contracts/TTSwapV1Coin.sol\":5714:5723  _coinInfo */\n      dup4\n        /* \"Contracts/TTSwapV1Coin.sol\":5714:5739  _coinInfo.contractAddress */\n      0xc0\n      add\n      mload\n        /* \"Contracts/TTSwapV1Coin.sol\":5689:5740  gateCoinList[msg.sender][_coinInfo.contractAddress] */\n      0xffffffffffffffffffffffffffffffffffffffff\n      and\n      0xffffffffffffffffffffffffffffffffffffffff\n      and\n      dup2\n      mstore\n      0x20\n      add\n      swap1\n      dup2\n      mstore\n      0x20\n      add\n      0x00\n      keccak256\n      0x00\n        /* \"Contracts/TTSwapV1Coin.sol\":5689:5785  gateCoinList[msg.sender][_coinInfo.contractAddress] = _coinInfo... */\n      0x0100\n      exp\n      dup2\n      sload\n      dup2\n      0xffffffffffffffffffffffffffffffffffffffff\n      mul\n      not\n      and\n      swap1\n      dup4\n      0xffffffffffffffffffffffffffffffffffffffff\n      and\n      mul\n      or\n      swap1\n      sstore\n      pop\n        /* \"Contracts/TTSwapV1Coin.sol\":4926:5796  if (coinList[_coinInfo.contractAddress].isUsed != true) {... */\n    tag_154:\n        /* \"Contracts/TTSwapV1Coin.sol\":4844:5802  function addCoinbyGator(LCoin.Info memory _coinInfo) external onlyGator {... */\n      pop\n      jump\t// out\n        /* \"Contracts/TTSwapV1Coin.sol\":6872:7145  function getCoinInfo(... */\n    tag_86:\n        /* \"Contracts/TTSwapV1Coin.sol\":6956:6973  LCoin.Info memory */\n      tag_161\n      tag_162\n      jump\t// in\n    tag_161:\n        /* \"Contracts/TTSwapV1Coin.sol\":7043:7047  true */\n      0x01\n        /* \"Contracts/TTSwapV1Coin.sol\":7006:7047  coinList[_contractaddress].isUsed == true */\n      iszero\n      iszero\n        /* \"Contracts/TTSwapV1Coin.sol\":7006:7014  coinList */\n      0x02\n        /* \"Contracts/TTSwapV1Coin.sol\":7006:7032  coinList[_contractaddress] */\n      0x00\n        /* \"Contracts/TTSwapV1Coin.sol\":7015:7031  _contractaddress */\n      dup5\n        /* \"Contracts/TTSwapV1Coin.sol\":7006:7032  coinList[_contractaddress] */\n      0xffffffffffffffffffffffffffffffffffffffff\n      and\n      0xffffffffffffffffffffffffffffffffffffffff\n      and\n      dup2\n      mstore\n      0x20\n      add\n      swap1\n      dup2\n      mstore\n      0x20\n      add\n      0x00\n      keccak256\n        /* \"Contracts/TTSwapV1Coin.sol\":7006:7039  coinList[_contractaddress].isUsed */\n      0x06\n      add\n      0x14\n      swap1\n      sload\n      swap1\n      0x0100\n      exp\n      swap1\n      div\n      0xff\n      and\n        /* \"Contracts/TTSwapV1Coin.sol\":7006:7047  coinList[_contractaddress].isUsed == true */\n      iszero\n      iszero\n      eq\n        /* \"Contracts/TTSwapV1Coin.sol\":6985:7095  require(... */\n      tag_164\n      jumpi\n      mload(0x40)\n      0x08c379a000000000000000000000000000000000000000000000000000000000\n      dup2\n      mstore\n      0x04\n      add\n      tag_165\n      swap1\n      tag_130\n      jump\t// in\n    tag_165:\n      mload(0x40)\n      dup1\n      swap2\n      sub\n      swap1\n      revert\n    tag_164:\n        /* \"Contracts/TTSwapV1Coin.sol\":7112:7120  coinList */\n      0x02\n        /* \"Contracts/TTSwapV1Coin.sol\":7112:7138  coinList[_contractaddress] */\n      0x00\n        /* \"Contracts/TTSwapV1Coin.sol\":7121:7137  _contractaddress */\n      dup4\n        /* \"Contracts/TTSwapV1Coin.sol\":7112:7138  coinList[_contractaddress] */\n      0xffffffffffffffffffffffffffffffffffffffff\n      and\n      0xffffffffffffffffffffffffffffffffffffffff\n      and\n      dup2\n      mstore\n      0x20\n      add\n      swap1\n      dup2\n      mstore\n      0x20\n      add\n      0x00\n      keccak256\n        /* \"Contracts/TTSwapV1Coin.sol\":7105:7138  return coinList[_contractaddress] */\n      mload(0x40)\n      dup1\n      0x0160\n      add\n      0x40\n      mstore\n      swap1\n      dup2\n      0x00\n      dup3\n      add\n      dup1\n      sload\n      tag_166\n      swap1\n      tag_98\n      jump\t// in\n    tag_166:\n      dup1\n      0x1f\n      add\n      0x20\n      dup1\n      swap2\n      div\n      mul\n      0x20\n      add\n      mload(0x40)\n      swap1\n      dup2\n      add\n      0x40\n      mstore\n      dup1\n      swap3\n      swap2\n      swap1\n      dup2\n      dup2\n      mstore\n      0x20\n      add\n      dup3\n      dup1\n      sload\n      tag_167\n      swap1\n      tag_98\n      jump\t// in\n    tag_167:\n      dup1\n      iszero\n      tag_168\n      jumpi\n      dup1\n      0x1f\n      lt\n      tag_169\n      jumpi\n      0x0100\n      dup1\n      dup4\n      sload\n      div\n      mul\n      dup4\n      mstore\n      swap2\n      0x20\n      add\n      swap2\n      jump(tag_168)\n    tag_169:\n      dup3\n      add\n      swap2\n      swap1\n      0x00\n      mstore\n      keccak256(0x00, 0x20)\n      swap1\n    tag_170:\n      dup2\n      sload\n      dup2\n      mstore\n      swap1\n      0x01\n      add\n      swap1\n      0x20\n      add\n      dup1\n      dup4\n      gt\n      tag_170\n      jumpi\n      dup3\n      swap1\n      sub\n      0x1f\n      and\n      dup3\n      add\n      swap2\n    tag_168:\n      pop\n      pop\n      pop\n      pop\n      pop\n      dup2\n      mstore\n      0x20\n      add\n      0x01\n      dup3\n      add\n      dup1\n      sload\n      tag_171\n      swap1\n      tag_98\n      jump\t// in\n    tag_171:\n      dup1\n      0x1f\n      add\n      0x20\n      dup1\n      swap2\n      div\n      mul\n      0x20\n      add\n      mload(0x40)\n      swap1\n      dup2\n      add\n      0x40\n      mstore\n      dup1\n      swap3\n      swap2\n      swap1\n      dup2\n      dup2\n      mstore\n      0x20\n      add\n      dup3\n      dup1\n      sload\n      tag_172\n      swap1\n      tag_98\n      jump\t// in\n    tag_172:\n      dup1\n      iszero\n      tag_173\n      jumpi\n      dup1\n      0x1f\n      lt\n      tag_174\n      jumpi\n      0x0100\n      dup1\n      dup4\n      sload\n      div\n      mul\n      dup4\n      mstore\n      swap2\n      0x20\n      add\n      swap2\n      jump(tag_173)\n    tag_174:\n      dup3\n      add\n      swap2\n      swap1\n      0x00\n      mstore\n      keccak256(0x00, 0x20)\n      swap1\n    tag_175:\n      dup2\n      sload\n      dup2\n      mstore\n      swap1\n      0x01\n      add\n      swap1\n      0x20\n      add\n      dup1\n      dup4\n      gt\n      tag_175\n      jumpi\n      dup3\n      swap1\n      sub\n      0x1f\n      and\n      dup3\n      add\n      swap2\n    tag_173:\n      pop\n      pop\n      pop\n      pop\n      pop\n      dup2\n      mstore\n      0x20\n      add\n      0x02\n      dup3\n      add\n      0x00\n      swap1\n      sload\n      swap1\n      0x0100\n      exp\n      swap1\n      div\n      0xff\n      and\n      0xff\n      and\n      0xff\n      and\n      dup2\n      mstore\n      0x20\n      add\n      0x02\n      dup3\n      add\n      0x01\n      swap1\n      sload\n      swap1\n      0x0100\n      exp\n      swap1\n      div\n      0xff\n      and\n      0xff\n      and\n      0xff\n      and\n      dup2\n      mstore\n      0x20\n      add\n      0x03\n      dup3\n      add\n      sload\n      dup2\n      mstore\n      0x20\n      add\n      0x04\n      dup3\n      add\n      sload\n      dup2\n      mstore\n      0x20\n      add\n      0x05\n      dup3\n      add\n      0x00\n      swap1\n      sload\n      swap1\n      0x0100\n      exp\n      swap1\n      div\n      0xffffffffffffffffffffffffffffffffffffffff\n      and\n      0xffffffffffffffffffffffffffffffffffffffff\n      and\n      0xffffffffffffffffffffffffffffffffffffffff\n      and\n      dup2\n      mstore\n      0x20\n      add\n      0x05\n      dup3\n      add\n      0x14\n      swap1\n      sload\n      swap1\n      0x0100\n      exp\n      swap1\n      div\n      0xff\n      and\n      iszero\n      iszero\n      iszero\n      iszero\n      dup2\n      mstore\n      0x20\n      add\n      0x05\n      dup3\n      add\n      0x15\n      swap1\n      sload\n      swap1\n      0x0100\n      exp\n      swap1\n      div\n      0xff\n      and\n      iszero\n      iszero\n      iszero\n      iszero\n      dup2\n      mstore\n      0x20\n      add\n      0x06\n      dup3\n      add\n      0x00\n      swap1\n      sload\n      swap1\n      0x0100\n      exp\n      swap1\n      div\n      0xffffffffffffffffffffffffffffffffffffffff\n      and\n      0xffffffffffffffffffffffffffffffffffffffff\n      and\n      0xffffffffffffffffffffffffffffffffffffffff\n      and\n      dup2\n      mstore\n      0x20\n      add\n      0x06\n      dup3\n      add\n      0x14\n      swap1\n      sload\n      swap1\n      0x0100\n      exp\n      swap1\n      div\n      0xff\n      and\n      iszero\n      iszero\n      iszero\n      iszero\n      dup2\n      mstore\n      pop\n      pop\n      swap1\n      pop\n        /* \"Contracts/TTSwapV1Coin.sol\":6872:7145  function getCoinInfo(... */\n      swap2\n      swap1\n      pop\n      jump\t// out\n        /* \"Contracts/TTSwapV1Coin.sol\":4378:4706  function delGateCoinbyMarketor(... */\n    tag_91:\n        /* \"Contracts/TTSwapV1Coin.sol\":4588:4589  0 */\n      0x00\n        /* \"Contracts/TTSwapV1Coin.sol\":4532:4590  gateCoinList[_gateaddress][_contractaddress] == address(0) */\n      0xffffffffffffffffffffffffffffffffffffffff\n      and\n        /* \"Contracts/TTSwapV1Coin.sol\":4532:4544  gateCoinList */\n      0x01\n        /* \"Contracts/TTSwapV1Coin.sol\":4532:4558  gateCoinList[_gateaddress] */\n      0x00\n        /* \"Contracts/TTSwapV1Coin.sol\":4545:4557  _gateaddress */\n      dup4\n        /* \"Contracts/TTSwapV1Coin.sol\":4532:4558  gateCoinList[_gateaddress] */\n      0xffffffffffffffffffffffffffffffffffffffff\n      and\n      0xffffffffffffffffffffffffffffffffffffffff\n      and\n      dup2\n      mstore\n      0x20\n      add\n      swap1\n      dup2\n      mstore\n      0x20\n      add\n      0x00\n      keccak256\n        /* \"Contracts/TTSwapV1Coin.sol\":4532:4576  gateCoinList[_gateaddress][_contractaddress] */\n      0x00\n        /* \"Contracts/TTSwapV1Coin.sol\":4559:4575  _contractaddress */\n      dup5\n        /* \"Contracts/TTSwapV1Coin.sol\":4532:4576  gateCoinList[_gateaddress][_contractaddress] */\n      0xffffffffffffffffffffffffffffffffffffffff\n      and\n      0xffffffffffffffffffffffffffffffffffffffff\n      and\n      dup2\n      mstore\n      0x20\n      add\n      swap1\n      dup2\n      mstore\n      0x20\n      add\n      0x00\n      keccak256\n      0x00\n      swap1\n      sload\n      swap1\n      0x0100\n      exp\n      swap1\n      div\n      0xffffffffffffffffffffffffffffffffffffffff\n      and\n        /* \"Contracts/TTSwapV1Coin.sol\":4532:4590  gateCoinList[_gateaddress][_contractaddress] == address(0) */\n      0xffffffffffffffffffffffffffffffffffffffff\n      and\n      eq\n        /* \"Contracts/TTSwapV1Coin.sol\":4511:4638  require(... */\n      tag_178\n      jumpi\n      mload(0x40)\n      0x08c379a000000000000000000000000000000000000000000000000000000000\n      dup2\n      mstore\n      0x04\n      add\n      tag_179\n      swap1\n      tag_130\n      jump\t// in\n    tag_179:\n      mload(0x40)\n      dup1\n      swap2\n      sub\n      swap1\n      revert\n    tag_178:\n        /* \"Contracts/TTSwapV1Coin.sol\":4655:4667  gateCoinList */\n      0x01\n        /* \"Contracts/TTSwapV1Coin.sol\":4655:4681  gateCoinList[_gateaddress] */\n      0x00\n        /* \"Contracts/TTSwapV1Coin.sol\":4668:4680  _gateaddress */\n      dup3\n        /* \"Contracts/TTSwapV1Coin.sol\":4655:4681  gateCoinList[_gateaddress] */\n      0xffffffffffffffffffffffffffffffffffffffff\n      and\n      0xffffffffffffffffffffffffffffffffffffffff\n      and\n      dup2\n      mstore\n      0x20\n      add\n      swap1\n      dup2\n      mstore\n      0x20\n      add\n      0x00\n      keccak256\n        /* \"Contracts/TTSwapV1Coin.sol\":4655:4699  gateCoinList[_gateaddress][_contractaddress] */\n      0x00\n        /* \"Contracts/TTSwapV1Coin.sol\":4682:4698  _contractaddress */\n      dup4\n        /* \"Contracts/TTSwapV1Coin.sol\":4655:4699  gateCoinList[_gateaddress][_contractaddress] */\n      0xffffffffffffffffffffffffffffffffffffffff\n      and\n      0xffffffffffffffffffffffffffffffffffffffff\n      and\n      dup2\n      mstore\n      0x20\n      add\n      swap1\n      dup2\n      mstore\n      0x20\n      add\n      0x00\n      keccak256\n      0x00\n        /* \"Contracts/TTSwapV1Coin.sol\":4648:4699  delete gateCoinList[_gateaddress][_contractaddress] */\n      0x0100\n      exp\n      dup2\n      sload\n      swap1\n      0xffffffffffffffffffffffffffffffffffffffff\n      mul\n      not\n      and\n      swap1\n      sstore\n        /* \"Contracts/TTSwapV1Coin.sol\":4378:4706  function delGateCoinbyMarketor(... */\n      pop\n      pop\n      jump\t// out\n        /* \"Contracts/TTSwapV1Coin.sol\":1809:2582  function addCoinbyMarketor(... */\n    tag_94:\n        /* \"Contracts/TTSwapV1Coin.sol\":1961:1965  true */\n      0x01\n        /* \"Contracts/TTSwapV1Coin.sol\":1915:1965  coinList[_coinInfo.contractAddress].isUsed != true */\n      iszero\n      iszero\n        /* \"Contracts/TTSwapV1Coin.sol\":1915:1923  coinList */\n      0x02\n        /* \"Contracts/TTSwapV1Coin.sol\":1915:1950  coinList[_coinInfo.contractAddress] */\n      0x00\n        /* \"Contracts/TTSwapV1Coin.sol\":1924:1933  _coinInfo */\n      dup4\n        /* \"Contracts/TTSwapV1Coin.sol\":1924:1949  _coinInfo.contractAddress */\n      0xc0\n      add\n      mload\n        /* \"Contracts/TTSwapV1Coin.sol\":1915:1950  coinList[_coinInfo.contractAddress] */\n      0xffffffffffffffffffffffffffffffffffffffff\n      and\n      0xffffffffffffffffffffffffffffffffffffffff\n      and\n      dup2\n      mstore\n      0x20\n      add\n      swap1\n      dup2\n      mstore\n      0x20\n      add\n      0x00\n      keccak256\n        /* \"Contracts/TTSwapV1Coin.sol\":1915:1957  coinList[_coinInfo.contractAddress].isUsed */\n      0x06\n      add\n      0x14\n      swap1\n      sload\n      swap1\n      0x0100\n      exp\n      swap1\n      div\n      0xff\n      and\n        /* \"Contracts/TTSwapV1Coin.sol\":1915:1965  coinList[_coinInfo.contractAddress].isUsed != true */\n      iszero\n      iszero\n      eq\n        /* \"Contracts/TTSwapV1Coin.sol\":1911:2576  if (coinList[_coinInfo.contractAddress].isUsed != true) {... */\n      tag_182\n      jumpi\n        /* \"Contracts/TTSwapV1Coin.sol\":2001:2011  msg.sender */\n      caller\n        /* \"Contracts/TTSwapV1Coin.sol\":1981:1990  _coinInfo */\n      dup2\n        /* \"Contracts/TTSwapV1Coin.sol\":1981:1998  _coinInfo.creator */\n      0x0120\n      add\n        /* \"Contracts/TTSwapV1Coin.sol\":1981:2011  _coinInfo.creator = msg.sender */\n      swap1\n      0xffffffffffffffffffffffffffffffffffffffff\n      and\n      swap1\n      dup2\n      0xffffffffffffffffffffffffffffffffffffffff\n      and\n      dup2\n      mstore\n      pop\n      pop\n        /* \"Contracts/TTSwapV1Coin.sol\":2050:2055  false */\n      0x00\n        /* \"Contracts/TTSwapV1Coin.sol\":2025:2034  _coinInfo */\n      dup2\n        /* \"Contracts/TTSwapV1Coin.sol\":2025:2047  _coinInfo.marketunlock */\n      0xe0\n      add\n        /* \"Contracts/TTSwapV1Coin.sol\":2025:2055  _coinInfo.marketunlock = false */\n      swap1\n      iszero\n      iszero\n      swap1\n      dup2\n      iszero\n      iszero\n      dup2\n      mstore\n      pop\n      pop\n        /* \"Contracts/TTSwapV1Coin.sol\":2088:2093  false */\n      0x00\n        /* \"Contracts/TTSwapV1Coin.sol\":2069:2078  _coinInfo */\n      dup2\n        /* \"Contracts/TTSwapV1Coin.sol\":2069:2085  _coinInfo.unlock */\n      0x0100\n      add\n        /* \"Contracts/TTSwapV1Coin.sol\":2069:2093  _coinInfo.unlock = false */\n      swap1\n      iszero\n      iszero\n      swap1\n      dup2\n      iszero\n      iszero\n      dup2\n      mstore\n      pop\n      pop\n        /* \"Contracts/TTSwapV1Coin.sol\":2126:2130  true */\n      0x01\n        /* \"Contracts/TTSwapV1Coin.sol\":2107:2116  _coinInfo */\n      dup2\n        /* \"Contracts/TTSwapV1Coin.sol\":2107:2123  _coinInfo.isUsed */\n      0x0140\n      add\n        /* \"Contracts/TTSwapV1Coin.sol\":2107:2130  _coinInfo.isUsed = true */\n      swap1\n      iszero\n      iszero\n      swap1\n      dup2\n      iszero\n      iszero\n      dup2\n      mstore\n      pop\n      pop\n        /* \"Contracts/TTSwapV1Coin.sol\":2182:2191  _coinInfo */\n      dup1\n        /* \"Contracts/TTSwapV1Coin.sol\":2144:2152  coinList */\n      0x02\n        /* \"Contracts/TTSwapV1Coin.sol\":2144:2179  coinList[_coinInfo.contractAddress] */\n      0x00\n        /* \"Contracts/TTSwapV1Coin.sol\":2153:2162  _coinInfo */\n      dup4\n        /* \"Contracts/TTSwapV1Coin.sol\":2153:2178  _coinInfo.contractAddress */\n      0xc0\n      add\n      mload\n        /* \"Contracts/TTSwapV1Coin.sol\":2144:2179  coinList[_coinInfo.contractAddress] */\n      0xffffffffffffffffffffffffffffffffffffffff\n      and\n      0xffffffffffffffffffffffffffffffffffffffff\n      and\n      dup2\n      mstore\n      0x20\n      add\n      swap1\n      dup2\n      mstore\n      0x20\n      add\n      0x00\n      keccak256\n        /* \"Contracts/TTSwapV1Coin.sol\":2144:2191  coinList[_coinInfo.contractAddress] = _coinInfo */\n      0x00\n      dup3\n      add\n      mload\n      dup2\n      0x00\n      add\n      swap1\n      dup2\n      tag_183\n      swap2\n      swap1\n      tag_122\n      jump\t// in\n    tag_183:\n      pop\n      0x20\n      dup3\n      add\n      mload\n      dup2\n      0x01\n      add\n      swap1\n      dup2\n      tag_184\n      swap2\n      swap1\n      tag_122\n      jump\t// in\n    tag_184:\n      pop\n      0x40\n      dup3\n      add\n      mload\n      dup2\n      0x02\n      add\n      exp(0x0100, 0x00)\n      dup2\n      sload\n      dup2\n      0xff\n      mul\n      not\n      and\n      swap1\n      dup4\n      0xff\n      and\n      mul\n      or\n      swap1\n      sstore\n      pop\n      0x60\n      dup3\n      add\n      mload\n      dup2\n      0x02\n      add\n      exp(0x0100, 0x01)\n      dup2\n      sload\n      dup2\n      0xff\n      mul\n      not\n      and\n      swap1\n      dup4\n      0xff\n      and\n      mul\n      or\n      swap1\n      sstore\n      pop\n      0x80\n      dup3\n      add\n      mload\n      dup2\n      0x03\n      add\n      sstore\n      0xa0\n      dup3\n      add\n      mload\n      dup2\n      0x04\n      add\n      sstore\n      0xc0\n      dup3\n      add\n      mload\n      dup2\n      0x05\n      add\n      exp(0x0100, 0x00)\n      dup2\n      sload\n      dup2\n      0xffffffffffffffffffffffffffffffffffffffff\n      mul\n      not\n      and\n      swap1\n      dup4\n      0xffffffffffffffffffffffffffffffffffffffff\n      and\n      mul\n      or\n      swap1\n      sstore\n      pop\n      0xe0\n      dup3\n      add\n      mload\n      dup2\n      0x05\n      add\n      exp(0x0100, 0x14)\n      dup2\n      sload\n      dup2\n      0xff\n      mul\n      not\n      and\n      swap1\n      dup4\n      iszero\n      iszero\n      mul\n      or\n      swap1\n      sstore\n      pop\n      0x0100\n      dup3\n      add\n      mload\n      dup2\n      0x05\n      add\n      exp(0x0100, 0x15)\n      dup2\n      sload\n      dup2\n      0xff\n      mul\n      not\n      and\n      swap1\n      dup4\n      iszero\n      iszero\n      mul\n      or\n      swap1\n      sstore\n      pop\n      0x0120\n      dup3\n      add\n      mload\n      dup2\n      0x06\n      add\n      exp(0x0100, 0x00)\n      dup2\n      sload\n      dup2\n      0xffffffffffffffffffffffffffffffffffffffff\n      mul\n      not\n      and\n      swap1\n      dup4\n      0xffffffffffffffffffffffffffffffffffffffff\n      and\n      mul\n      or\n      swap1\n      sstore\n      pop\n      0x0140\n      dup3\n      add\n      mload\n      dup2\n      0x06\n      add\n      exp(0x0100, 0x14)\n      dup2\n      sload\n      dup2\n      0xff\n      mul\n      not\n      and\n      swap1\n      dup4\n      iszero\n      iszero\n      mul\n      or\n      swap1\n      sstore\n      pop\n      swap1\n      pop\n      pop\n        /* \"Contracts/TTSwapV1Coin.sol\":2249:2258  _coinInfo */\n      dup1\n        /* \"Contracts/TTSwapV1Coin.sol\":2249:2291  _coinInfo... */\n      0xc0\n      add\n      mload\n        /* \"Contracts/TTSwapV1Coin.sol\":2205:2219  marketCoinList */\n      0x00\n        /* \"Contracts/TTSwapV1Coin.sol\":2205:2246  marketCoinList[_coinInfo.contractAddress] */\n      dup1\n        /* \"Contracts/TTSwapV1Coin.sol\":2220:2229  _coinInfo */\n      dup4\n        /* \"Contracts/TTSwapV1Coin.sol\":2220:2245  _coinInfo.contractAddress */\n      0xc0\n      add\n      mload\n        /* \"Contracts/TTSwapV1Coin.sol\":2205:2246  marketCoinList[_coinInfo.contractAddress] */\n      0xffffffffffffffffffffffffffffffffffffffff\n      and\n      0xffffffffffffffffffffffffffffffffffffffff\n      and\n      dup2\n      mstore\n      0x20\n      add\n      swap1\n      dup2\n      mstore\n      0x20\n      add\n      0x00\n      keccak256\n      0x00\n        /* \"Contracts/TTSwapV1Coin.sol\":2205:2291  marketCoinList[_coinInfo.contractAddress] = _coinInfo... */\n      0x0100\n      exp\n      dup2\n      sload\n      dup2\n      0xffffffffffffffffffffffffffffffffffffffff\n      mul\n      not\n      and\n      swap1\n      dup4\n      0xffffffffffffffffffffffffffffffffffffffff\n      and\n      mul\n      or\n      swap1\n      sstore\n      pop\n        /* \"Contracts/TTSwapV1Coin.sol\":1911:2576  if (coinList[_coinInfo.contractAddress].isUsed != true) {... */\n      jump(tag_185)\n    tag_182:\n        /* \"Contracts/TTSwapV1Coin.sol\":2400:2401  0 */\n      0x00\n        /* \"Contracts/TTSwapV1Coin.sol\":2347:2402  marketCoinList[_coinInfo.contractAddress] == address(0) */\n      0xffffffffffffffffffffffffffffffffffffffff\n      and\n        /* \"Contracts/TTSwapV1Coin.sol\":2347:2361  marketCoinList */\n      0x00\n        /* \"Contracts/TTSwapV1Coin.sol\":2347:2388  marketCoinList[_coinInfo.contractAddress] */\n      dup1\n        /* \"Contracts/TTSwapV1Coin.sol\":2362:2371  _coinInfo */\n      dup4\n        /* \"Contracts/TTSwapV1Coin.sol\":2362:2387  _coinInfo.contractAddress */\n      0xc0\n      add\n      mload\n        /* \"Contracts/TTSwapV1Coin.sol\":2347:2388  marketCoinList[_coinInfo.contractAddress] */\n      0xffffffffffffffffffffffffffffffffffffffff\n      and\n      0xffffffffffffffffffffffffffffffffffffffff\n      and\n      dup2\n      mstore\n      0x20\n      add\n      swap1\n      dup2\n      mstore\n      0x20\n      add\n      0x00\n      keccak256\n      0x00\n      swap1\n      sload\n      swap1\n      0x0100\n      exp\n      swap1\n      div\n      0xffffffffffffffffffffffffffffffffffffffff\n      and\n        /* \"Contracts/TTSwapV1Coin.sol\":2347:2402  marketCoinList[_coinInfo.contractAddress] == address(0) */\n      0xffffffffffffffffffffffffffffffffffffffff\n      and\n      eq\n        /* \"Contracts/TTSwapV1Coin.sol\":2322:2465  require(... */\n      tag_186\n      jumpi\n      mload(0x40)\n      0x08c379a000000000000000000000000000000000000000000000000000000000\n      dup2\n      mstore\n      0x04\n      add\n      tag_187\n      swap1\n      tag_157\n      jump\t// in\n    tag_187:\n      mload(0x40)\n      dup1\n      swap2\n      sub\n      swap1\n      revert\n    tag_186:\n        /* \"Contracts/TTSwapV1Coin.sol\":2523:2532  _coinInfo */\n      dup1\n        /* \"Contracts/TTSwapV1Coin.sol\":2523:2565  _coinInfo... */\n      0xc0\n      add\n      mload\n        /* \"Contracts/TTSwapV1Coin.sol\":2479:2493  marketCoinList */\n      0x00\n        /* \"Contracts/TTSwapV1Coin.sol\":2479:2520  marketCoinList[_coinInfo.contractAddress] */\n      dup1\n        /* \"Contracts/TTSwapV1Coin.sol\":2494:2503  _coinInfo */\n      dup4\n        /* \"Contracts/TTSwapV1Coin.sol\":2494:2519  _coinInfo.contractAddress */\n      0xc0\n      add\n      mload\n        /* \"Contracts/TTSwapV1Coin.sol\":2479:2520  marketCoinList[_coinInfo.contractAddress] */\n      0xffffffffffffffffffffffffffffffffffffffff\n      and\n      0xffffffffffffffffffffffffffffffffffffffff\n      and\n      dup2\n      mstore\n      0x20\n      add\n      swap1\n      dup2\n      mstore\n      0x20\n      add\n      0x00\n      keccak256\n      0x00\n        /* \"Contracts/TTSwapV1Coin.sol\":2479:2565  marketCoinList[_coinInfo.contractAddress] = _coinInfo... */\n      0x0100\n      exp\n      dup2\n      sload\n      dup2\n      0xffffffffffffffffffffffffffffffffffffffff\n      mul\n      not\n      and\n      swap1\n      dup4\n      0xffffffffffffffffffffffffffffffffffffffff\n      and\n      mul\n      or\n      swap1\n      sstore\n      pop\n        /* \"Contracts/TTSwapV1Coin.sol\":1911:2576  if (coinList[_coinInfo.contractAddress].isUsed != true) {... */\n    tag_185:\n        /* \"Contracts/TTSwapV1Coin.sol\":1809:2582  function addCoinbyMarketor(... */\n      pop\n      jump\t// out\n    tag_162:\n      mload(0x40)\n      dup1\n      0x0160\n      add\n      0x40\n      mstore\n      dup1\n      0x60\n      dup2\n      mstore\n      0x20\n      add\n      0x60\n      dup2\n      mstore\n      0x20\n      add\n      and(0xff, 0x00)\n      dup2\n      mstore\n      0x20\n      add\n      and(0xff, 0x00)\n      dup2\n      mstore\n      0x20\n      add\n      0x00\n      dup2\n      mstore\n      0x20\n      add\n      0x00\n      dup2\n      mstore\n      0x20\n      add\n      and(0xffffffffffffffffffffffffffffffffffffffff, 0x00)\n      dup2\n      mstore\n      0x20\n      add\n      iszero(iszero(0x00))\n      dup2\n      mstore\n      0x20\n      add\n      iszero(iszero(0x00))\n      dup2\n      mstore\n      0x20\n      add\n      and(0xffffffffffffffffffffffffffffffffffffffff, 0x00)\n      dup2\n      mstore\n      0x20\n      add\n      iszero(iszero(0x00))\n      dup2\n      mstore\n      pop\n      swap1\n      jump\t// out\n        /* \"#utility.yul\":7:82   */\n    tag_188:\n        /* \"#utility.yul\":40:46   */\n      0x00\n        /* \"#utility.yul\":73:75   */\n      0x40\n        /* \"#utility.yul\":67:76   */\n      mload\n        /* \"#utility.yul\":57:76   */\n      swap1\n      pop\n        /* \"#utility.yul\":7:82   */\n      swap1\n      jump\t// out\n        /* \"#utility.yul\":88:205   */\n    tag_189:\n        /* \"#utility.yul\":197:198   */\n      0x00\n        /* \"#utility.yul\":194:195   */\n      dup1\n        /* \"#utility.yul\":187:199   */\n      revert\n        /* \"#utility.yul\":211:328   */\n    tag_190:\n        /* \"#utility.yul\":320:321   */\n      0x00\n        /* \"#utility.yul\":317:318   */\n      dup1\n        /* \"#utility.yul\":310:322   */\n      revert\n        /* \"#utility.yul\":334:460   */\n    tag_191:\n        /* \"#utility.yul\":371:378   */\n      0x00\n        /* \"#utility.yul\":411:453   */\n      0xffffffffffffffffffffffffffffffffffffffff\n        /* \"#utility.yul\":404:409   */\n      dup3\n        /* \"#utility.yul\":400:454   */\n      and\n        /* \"#utility.yul\":389:454   */\n      swap1\n      pop\n        /* \"#utility.yul\":334:460   */\n      swap2\n      swap1\n      pop\n      jump\t// out\n        /* \"#utility.yul\":466:562   */\n    tag_192:\n        /* \"#utility.yul\":503:510   */\n      0x00\n        /* \"#utility.yul\":532:556   */\n      tag_266\n        /* \"#utility.yul\":550:555   */\n      dup3\n        /* \"#utility.yul\":532:556   */\n      tag_191\n      jump\t// in\n    tag_266:\n        /* \"#utility.yul\":521:556   */\n      swap1\n      pop\n        /* \"#utility.yul\":466:562   */\n      swap2\n      swap1\n      pop\n      jump\t// out\n        /* \"#utility.yul\":568:690   */\n    tag_193:\n        /* \"#utility.yul\":641:665   */\n      tag_268\n        /* \"#utility.yul\":659:664   */\n      dup2\n        /* \"#utility.yul\":641:665   */\n      tag_192\n      jump\t// in\n    tag_268:\n        /* \"#utility.yul\":634:639   */\n      dup2\n        /* \"#utility.yul\":631:666   */\n      eq\n        /* \"#utility.yul\":621:684   */\n      tag_269\n      jumpi\n        /* \"#utility.yul\":680:681   */\n      0x00\n        /* \"#utility.yul\":677:678   */\n      dup1\n        /* \"#utility.yul\":670:682   */\n      revert\n        /* \"#utility.yul\":621:684   */\n    tag_269:\n        /* \"#utility.yul\":568:690   */\n      pop\n      jump\t// out\n        /* \"#utility.yul\":696:835   */\n    tag_194:\n        /* \"#utility.yul\":742:747   */\n      0x00\n        /* \"#utility.yul\":780:786   */\n      dup2\n        /* \"#utility.yul\":767:787   */\n      calldataload\n        /* \"#utility.yul\":758:787   */\n      swap1\n      pop\n        /* \"#utility.yul\":796:829   */\n      tag_271\n        /* \"#utility.yul\":823:828   */\n      dup2\n        /* \"#utility.yul\":796:829   */\n      tag_193\n      jump\t// in\n    tag_271:\n        /* \"#utility.yul\":696:835   */\n      swap3\n      swap2\n      pop\n      pop\n      jump\t// out\n        /* \"#utility.yul\":841:1170   */\n    tag_27:\n        /* \"#utility.yul\":900:906   */\n      0x00\n        /* \"#utility.yul\":949:951   */\n      0x20\n        /* \"#utility.yul\":937:946   */\n      dup3\n        /* \"#utility.yul\":928:935   */\n      dup5\n        /* \"#utility.yul\":924:947   */\n      sub\n        /* \"#utility.yul\":920:952   */\n      slt\n        /* \"#utility.yul\":917:1036   */\n      iszero\n      tag_273\n      jumpi\n        /* \"#utility.yul\":955:1034   */\n      tag_274\n      tag_189\n      jump\t// in\n    tag_274:\n        /* \"#utility.yul\":917:1036   */\n    tag_273:\n        /* \"#utility.yul\":1075:1076   */\n      0x00\n        /* \"#utility.yul\":1100:1153   */\n      tag_275\n        /* \"#utility.yul\":1145:1152   */\n      dup5\n        /* \"#utility.yul\":1136:1142   */\n      dup3\n        /* \"#utility.yul\":1125:1134   */\n      dup6\n        /* \"#utility.yul\":1121:1143   */\n      add\n        /* \"#utility.yul\":1100:1153   */\n      tag_194\n      jump\t// in\n    tag_275:\n        /* \"#utility.yul\":1090:1153   */\n      swap2\n      pop\n        /* \"#utility.yul\":1046:1163   */\n      pop\n        /* \"#utility.yul\":841:1170   */\n      swap3\n      swap2\n      pop\n      pop\n      jump\t// out\n        /* \"#utility.yul\":1176:1275   */\n    tag_195:\n        /* \"#utility.yul\":1228:1234   */\n      0x00\n        /* \"#utility.yul\":1262:1267   */\n      dup2\n        /* \"#utility.yul\":1256:1268   */\n      mload\n        /* \"#utility.yul\":1246:1268   */\n      swap1\n      pop\n        /* \"#utility.yul\":1176:1275   */\n      swap2\n      swap1\n      pop\n      jump\t// out\n        /* \"#utility.yul\":1281:1450   */\n    tag_196:\n        /* \"#utility.yul\":1365:1376   */\n      0x00\n        /* \"#utility.yul\":1399:1405   */\n      dup3\n        /* \"#utility.yul\":1394:1397   */\n      dup3\n        /* \"#utility.yul\":1387:1406   */\n      mstore\n        /* \"#utility.yul\":1439:1443   */\n      0x20\n        /* \"#utility.yul\":1434:1437   */\n      dup3\n        /* \"#utility.yul\":1430:1444   */\n      add\n        /* \"#utility.yul\":1415:1444   */\n      swap1\n      pop\n        /* \"#utility.yul\":1281:1450   */\n      swap3\n      swap2\n      pop\n      pop\n      jump\t// out\n        /* \"#utility.yul\":1456:1702   */\n    tag_197:\n        /* \"#utility.yul\":1537:1538   */\n      0x00\n        /* \"#utility.yul\":1547:1660   */\n    tag_279:\n        /* \"#utility.yul\":1561:1567   */\n      dup4\n        /* \"#utility.yul\":1558:1559   */\n      dup2\n        /* \"#utility.yul\":1555:1568   */\n      lt\n        /* \"#utility.yul\":1547:1660   */\n      iszero\n      tag_281\n      jumpi\n        /* \"#utility.yul\":1646:1647   */\n      dup1\n        /* \"#utility.yul\":1641:1644   */\n      dup3\n        /* \"#utility.yul\":1637:1648   */\n      add\n        /* \"#utility.yul\":1631:1649   */\n      mload\n        /* \"#utility.yul\":1627:1628   */\n      dup2\n        /* \"#utility.yul\":1622:1625   */\n      dup5\n        /* \"#utility.yul\":1618:1629   */\n      add\n        /* \"#utility.yul\":1611:1650   */\n      mstore\n        /* \"#utility.yul\":1583:1585   */\n      0x20\n        /* \"#utility.yul\":1580:1581   */\n      dup2\n        /* \"#utility.yul\":1576:1586   */\n      add\n        /* \"#utility.yul\":1571:1586   */\n      swap1\n      pop\n        /* \"#utility.yul\":1547:1660   */\n      jump(tag_279)\n    tag_281:\n        /* \"#utility.yul\":1694:1695   */\n      0x00\n        /* \"#utility.yul\":1685:1691   */\n      dup5\n        /* \"#utility.yul\":1680:1683   */\n      dup5\n        /* \"#utility.yul\":1676:1692   */\n      add\n        /* \"#utility.yul\":1669:1696   */\n      mstore\n        /* \"#utility.yul\":1518:1702   */\n      pop\n        /* \"#utility.yul\":1456:1702   */\n      pop\n      pop\n      pop\n      jump\t// out\n        /* \"#utility.yul\":1708:1810   */\n    tag_198:\n        /* \"#utility.yul\":1749:1755   */\n      0x00\n        /* \"#utility.yul\":1800:1802   */\n      0x1f\n        /* \"#utility.yul\":1796:1803   */\n      not\n        /* \"#utility.yul\":1791:1793   */\n      0x1f\n        /* \"#utility.yul\":1784:1789   */\n      dup4\n        /* \"#utility.yul\":1780:1794   */\n      add\n        /* \"#utility.yul\":1776:1804   */\n      and\n        /* \"#utility.yul\":1766:1804   */\n      swap1\n      pop\n        /* \"#utility.yul\":1708:1810   */\n      swap2\n      swap1\n      pop\n      jump\t// out\n        /* \"#utility.yul\":1816:2193   */\n    tag_199:\n        /* \"#utility.yul\":1904:1907   */\n      0x00\n        /* \"#utility.yul\":1932:1971   */\n      tag_284\n        /* \"#utility.yul\":1965:1970   */\n      dup3\n        /* \"#utility.yul\":1932:1971   */\n      tag_195\n      jump\t// in\n    tag_284:\n        /* \"#utility.yul\":1987:2058   */\n      tag_285\n        /* \"#utility.yul\":2051:2057   */\n      dup2\n        /* \"#utility.yul\":2046:2049   */\n      dup6\n        /* \"#utility.yul\":1987:2058   */\n      tag_196\n      jump\t// in\n    tag_285:\n        /* \"#utility.yul\":1980:2058   */\n      swap4\n      pop\n        /* \"#utility.yul\":2067:2132   */\n      tag_286\n        /* \"#utility.yul\":2125:2131   */\n      dup2\n        /* \"#utility.yul\":2120:2123   */\n      dup6\n        /* \"#utility.yul\":2113:2117   */\n      0x20\n        /* \"#utility.yul\":2106:2111   */\n      dup7\n        /* \"#utility.yul\":2102:2118   */\n      add\n        /* \"#utility.yul\":2067:2132   */\n      tag_197\n      jump\t// in\n    tag_286:\n        /* \"#utility.yul\":2157:2186   */\n      tag_287\n        /* \"#utility.yul\":2179:2185   */\n      dup2\n        /* \"#utility.yul\":2157:2186   */\n      tag_198\n      jump\t// in\n    tag_287:\n        /* \"#utility.yul\":2152:2155   */\n      dup5\n        /* \"#utility.yul\":2148:2187   */\n      add\n        /* \"#utility.yul\":2141:2187   */\n      swap2\n      pop\n        /* \"#utility.yul\":1908:2193   */\n      pop\n        /* \"#utility.yul\":1816:2193   */\n      swap3\n      swap2\n      pop\n      pop\n      jump\t// out\n        /* \"#utility.yul\":2199:2285   */\n    tag_200:\n        /* \"#utility.yul\":2234:2241   */\n      0x00\n        /* \"#utility.yul\":2274:2278   */\n      0xff\n        /* \"#utility.yul\":2267:2272   */\n      dup3\n        /* \"#utility.yul\":2263:2279   */\n      and\n        /* \"#utility.yul\":2252:2279   */\n      swap1\n      pop\n        /* \"#utility.yul\":2199:2285   */\n      swap2\n      swap1\n      pop\n      jump\t// out\n        /* \"#utility.yul\":2291:2403   */\n    tag_201:\n        /* \"#utility.yul\":2374:2396   */\n      tag_290\n        /* \"#utility.yul\":2390:2395   */\n      dup2\n        /* \"#utility.yul\":2374:2396   */\n      tag_200\n      jump\t// in\n    tag_290:\n        /* \"#utility.yul\":2369:2372   */\n      dup3\n        /* \"#utility.yul\":2362:2397   */\n      mstore\n        /* \"#utility.yul\":2291:2403   */\n      pop\n      pop\n      jump\t// out\n        /* \"#utility.yul\":2409:2486   */\n    tag_202:\n        /* \"#utility.yul\":2446:2453   */\n      0x00\n        /* \"#utility.yul\":2475:2480   */\n      dup2\n        /* \"#utility.yul\":2464:2480   */\n      swap1\n      pop\n        /* \"#utility.yul\":2409:2486   */\n      swap2\n      swap1\n      pop\n      jump\t// out\n        /* \"#utility.yul\":2492:2610   */\n    tag_203:\n        /* \"#utility.yul\":2579:2603   */\n      tag_293\n        /* \"#utility.yul\":2597:2602   */\n      dup2\n        /* \"#utility.yul\":2579:2603   */\n      tag_202\n      jump\t// in\n    tag_293:\n        /* \"#utility.yul\":2574:2577   */\n      dup3\n        /* \"#utility.yul\":2567:2604   */\n      mstore\n        /* \"#utility.yul\":2492:2610   */\n      pop\n      pop\n      jump\t// out\n        /* \"#utility.yul\":2616:2734   */\n    tag_204:\n        /* \"#utility.yul\":2703:2727   */\n      tag_295\n        /* \"#utility.yul\":2721:2726   */\n      dup2\n        /* \"#utility.yul\":2703:2727   */\n      tag_192\n      jump\t// in\n    tag_295:\n        /* \"#utility.yul\":2698:2701   */\n      dup3\n        /* \"#utility.yul\":2691:2728   */\n      mstore\n        /* \"#utility.yul\":2616:2734   */\n      pop\n      pop\n      jump\t// out\n        /* \"#utility.yul\":2740:2830   */\n    tag_205:\n        /* \"#utility.yul\":2774:2781   */\n      0x00\n        /* \"#utility.yul\":2817:2822   */\n      dup2\n        /* \"#utility.yul\":2810:2823   */\n      iszero\n        /* \"#utility.yul\":2803:2824   */\n      iszero\n        /* \"#utility.yul\":2792:2824   */\n      swap1\n      pop\n        /* \"#utility.yul\":2740:2830   */\n      swap2\n      swap1\n      pop\n      jump\t// out\n        /* \"#utility.yul\":2836:2945   */\n    tag_206:\n        /* \"#utility.yul\":2917:2938   */\n      tag_298\n        /* \"#utility.yul\":2932:2937   */\n      dup2\n        /* \"#utility.yul\":2917:2938   */\n      tag_205\n      jump\t// in\n    tag_298:\n        /* \"#utility.yul\":2912:2915   */\n      dup3\n        /* \"#utility.yul\":2905:2939   */\n      mstore\n        /* \"#utility.yul\":2836:2945   */\n      pop\n      pop\n      jump\t// out\n        /* \"#utility.yul\":2951:4413   */\n    tag_33:\n        /* \"#utility.yul\":3339:3343   */\n      0x00\n        /* \"#utility.yul\":3377:3380   */\n      0x0160\n        /* \"#utility.yul\":3366:3375   */\n      dup3\n        /* \"#utility.yul\":3362:3381   */\n      add\n        /* \"#utility.yul\":3354:3381   */\n      swap1\n      pop\n        /* \"#utility.yul\":3427:3436   */\n      dup2\n        /* \"#utility.yul\":3421:3425   */\n      dup2\n        /* \"#utility.yul\":3417:3437   */\n      sub\n        /* \"#utility.yul\":3413:3414   */\n      0x00\n        /* \"#utility.yul\":3402:3411   */\n      dup4\n        /* \"#utility.yul\":3398:3415   */\n      add\n        /* \"#utility.yul\":3391:3438   */\n      mstore\n        /* \"#utility.yul\":3455:3533   */\n      tag_300\n        /* \"#utility.yul\":3528:3532   */\n      dup2\n        /* \"#utility.yul\":3519:3525   */\n      dup15\n        /* \"#utility.yul\":3455:3533   */\n      tag_199\n      jump\t// in\n    tag_300:\n        /* \"#utility.yul\":3447:3533   */\n      swap1\n      pop\n        /* \"#utility.yul\":3580:3589   */\n      dup2\n        /* \"#utility.yul\":3574:3578   */\n      dup2\n        /* \"#utility.yul\":3570:3590   */\n      sub\n        /* \"#utility.yul\":3565:3567   */\n      0x20\n        /* \"#utility.yul\":3554:3563   */\n      dup4\n        /* \"#utility.yul\":3550:3568   */\n      add\n        /* \"#utility.yul\":3543:3591   */\n      mstore\n        /* \"#utility.yul\":3608:3686   */\n      tag_301\n        /* \"#utility.yul\":3681:3685   */\n      dup2\n        /* \"#utility.yul\":3672:3678   */\n      dup14\n        /* \"#utility.yul\":3608:3686   */\n      tag_199\n      jump\t// in\n    tag_301:\n        /* \"#utility.yul\":3600:3686   */\n      swap1\n      pop\n        /* \"#utility.yul\":3696:3764   */\n      tag_302\n        /* \"#utility.yul\":3760:3762   */\n      0x40\n        /* \"#utility.yul\":3749:3758   */\n      dup4\n        /* \"#utility.yul\":3745:3763   */\n      add\n        /* \"#utility.yul\":3736:3742   */\n      dup13\n        /* \"#utility.yul\":3696:3764   */\n      tag_201\n      jump\t// in\n    tag_302:\n        /* \"#utility.yul\":3774:3842   */\n      tag_303\n        /* \"#utility.yul\":3838:3840   */\n      0x60\n        /* \"#utility.yul\":3827:3836   */\n      dup4\n        /* \"#utility.yul\":3823:3841   */\n      add\n        /* \"#utility.yul\":3814:3820   */\n      dup12\n        /* \"#utility.yul\":3774:3842   */\n      tag_201\n      jump\t// in\n    tag_303:\n        /* \"#utility.yul\":3852:3925   */\n      tag_304\n        /* \"#utility.yul\":3920:3923   */\n      0x80\n        /* \"#utility.yul\":3909:3918   */\n      dup4\n        /* \"#utility.yul\":3905:3924   */\n      add\n        /* \"#utility.yul\":3896:3902   */\n      dup11\n        /* \"#utility.yul\":3852:3925   */\n      tag_203\n      jump\t// in\n    tag_304:\n        /* \"#utility.yul\":3935:4008   */\n      tag_305\n        /* \"#utility.yul\":4003:4006   */\n      0xa0\n        /* \"#utility.yul\":3992:4001   */\n      dup4\n        /* \"#utility.yul\":3988:4007   */\n      add\n        /* \"#utility.yul\":3979:3985   */\n      dup10\n        /* \"#utility.yul\":3935:4008   */\n      tag_203\n      jump\t// in\n    tag_305:\n        /* \"#utility.yul\":4018:4091   */\n      tag_306\n        /* \"#utility.yul\":4086:4089   */\n      0xc0\n        /* \"#utility.yul\":4075:4084   */\n      dup4\n        /* \"#utility.yul\":4071:4090   */\n      add\n        /* \"#utility.yul\":4062:4068   */\n      dup9\n        /* \"#utility.yul\":4018:4091   */\n      tag_204\n      jump\t// in\n    tag_306:\n        /* \"#utility.yul\":4101:4168   */\n      tag_307\n        /* \"#utility.yul\":4163:4166   */\n      0xe0\n        /* \"#utility.yul\":4152:4161   */\n      dup4\n        /* \"#utility.yul\":4148:4167   */\n      add\n        /* \"#utility.yul\":4139:4145   */\n      dup8\n        /* \"#utility.yul\":4101:4168   */\n      tag_206\n      jump\t// in\n    tag_307:\n        /* \"#utility.yul\":4178:4245   */\n      tag_308\n        /* \"#utility.yul\":4240:4243   */\n      0x0100\n        /* \"#utility.yul\":4229:4238   */\n      dup4\n        /* \"#utility.yul\":4225:4244   */\n      add\n        /* \"#utility.yul\":4216:4222   */\n      dup7\n        /* \"#utility.yul\":4178:4245   */\n      tag_206\n      jump\t// in\n    tag_308:\n        /* \"#utility.yul\":4255:4328   */\n      tag_309\n        /* \"#utility.yul\":4323:4326   */\n      0x0120\n        /* \"#utility.yul\":4312:4321   */\n      dup4\n        /* \"#utility.yul\":4308:4327   */\n      add\n        /* \"#utility.yul\":4299:4305   */\n      dup6\n        /* \"#utility.yul\":4255:4328   */\n      tag_204\n      jump\t// in\n    tag_309:\n        /* \"#utility.yul\":4338:4406   */\n      tag_310\n        /* \"#utility.yul\":4401:4404   */\n      0x0140\n        /* \"#utility.yul\":4390:4399   */\n      dup4\n        /* \"#utility.yul\":4386:4405   */\n      add\n        /* \"#utility.yul\":4376:4383   */\n      dup5\n        /* \"#utility.yul\":4338:4406   */\n      tag_206\n      jump\t// in\n    tag_310:\n        /* \"#utility.yul\":2951:4413   */\n      swap13\n      swap12\n      pop\n      pop\n      pop\n      pop\n      pop\n      pop\n      pop\n      pop\n      pop\n      pop\n      pop\n      pop\n      jump\t// out\n        /* \"#utility.yul\":4419:4629   */\n    tag_38:\n        /* \"#utility.yul\":4506:4510   */\n      0x00\n        /* \"#utility.yul\":4544:4546   */\n      0x20\n        /* \"#utility.yul\":4533:4542   */\n      dup3\n        /* \"#utility.yul\":4529:4547   */\n      add\n        /* \"#utility.yul\":4521:4547   */\n      swap1\n      pop\n        /* \"#utility.yul\":4557:4622   */\n      tag_312\n        /* \"#utility.yul\":4619:4620   */\n      0x00\n        /* \"#utility.yul\":4608:4617   */\n      dup4\n        /* \"#utility.yul\":4604:4621   */\n      add\n        /* \"#utility.yul\":4595:4601   */\n      dup5\n        /* \"#utility.yul\":4557:4622   */\n      tag_206\n      jump\t// in\n    tag_312:\n        /* \"#utility.yul\":4419:4629   */\n      swap3\n      swap2\n      pop\n      pop\n      jump\t// out\n        /* \"#utility.yul\":4635:4857   */\n    tag_46:\n        /* \"#utility.yul\":4728:4732   */\n      0x00\n        /* \"#utility.yul\":4766:4768   */\n      0x20\n        /* \"#utility.yul\":4755:4764   */\n      dup3\n        /* \"#utility.yul\":4751:4769   */\n      add\n        /* \"#utility.yul\":4743:4769   */\n      swap1\n      pop\n        /* \"#utility.yul\":4779:4850   */\n      tag_314\n        /* \"#utility.yul\":4847:4848   */\n      0x00\n        /* \"#utility.yul\":4836:4845   */\n      dup4\n        /* \"#utility.yul\":4832:4849   */\n      add\n        /* \"#utility.yul\":4823:4829   */\n      dup5\n        /* \"#utility.yul\":4779:4850   */\n      tag_204\n      jump\t// in\n    tag_314:\n        /* \"#utility.yul\":4635:4857   */\n      swap3\n      swap2\n      pop\n      pop\n      jump\t// out\n        /* \"#utility.yul\":4863:4980   */\n    tag_207:\n        /* \"#utility.yul\":4972:4973   */\n      0x00\n        /* \"#utility.yul\":4969:4970   */\n      dup1\n        /* \"#utility.yul\":4962:4974   */\n      revert\n        /* \"#utility.yul\":4986:5166   */\n    tag_208:\n        /* \"#utility.yul\":5034:5111   */\n      0x4e487b7100000000000000000000000000000000000000000000000000000000\n        /* \"#utility.yul\":5031:5032   */\n      0x00\n        /* \"#utility.yul\":5024:5112   */\n      mstore\n        /* \"#utility.yul\":5131:5135   */\n      0x41\n        /* \"#utility.yul\":5128:5129   */\n      0x04\n        /* \"#utility.yul\":5121:5136   */\n      mstore\n        /* \"#utility.yul\":5155:5159   */\n      0x24\n        /* \"#utility.yul\":5152:5153   */\n      0x00\n        /* \"#utility.yul\":5145:5160   */\n      revert\n        /* \"#utility.yul\":5172:5453   */\n    tag_209:\n        /* \"#utility.yul\":5255:5282   */\n      tag_318\n        /* \"#utility.yul\":5277:5281   */\n      dup3\n        /* \"#utility.yul\":5255:5282   */\n      tag_198\n      jump\t// in\n    tag_318:\n        /* \"#utility.yul\":5247:5253   */\n      dup2\n        /* \"#utility.yul\":5243:5283   */\n      add\n        /* \"#utility.yul\":5385:5391   */\n      dup2\n        /* \"#utility.yul\":5373:5383   */\n      dup2\n        /* \"#utility.yul\":5370:5392   */\n      lt\n        /* \"#utility.yul\":5349:5367   */\n      0xffffffffffffffff\n        /* \"#utility.yul\":5337:5347   */\n      dup3\n        /* \"#utility.yul\":5334:5368   */\n      gt\n        /* \"#utility.yul\":5331:5393   */\n      or\n        /* \"#utility.yul\":5328:5416   */\n      iszero\n      tag_319\n      jumpi\n        /* \"#utility.yul\":5396:5414   */\n      tag_320\n      tag_208\n      jump\t// in\n    tag_320:\n        /* \"#utility.yul\":5328:5416   */\n    tag_319:\n        /* \"#utility.yul\":5436:5446   */\n      dup1\n        /* \"#utility.yul\":5432:5434   */\n      0x40\n        /* \"#utility.yul\":5425:5447   */\n      mstore\n        /* \"#utility.yul\":5215:5453   */\n      pop\n        /* \"#utility.yul\":5172:5453   */\n      pop\n      pop\n      jump\t// out\n        /* \"#utility.yul\":5459:5588   */\n    tag_210:\n        /* \"#utility.yul\":5493:5499   */\n      0x00\n        /* \"#utility.yul\":5520:5540   */\n      tag_322\n      tag_188\n      jump\t// in\n    tag_322:\n        /* \"#utility.yul\":5510:5540   */\n      swap1\n      pop\n        /* \"#utility.yul\":5549:5582   */\n      tag_323\n        /* \"#utility.yul\":5577:5581   */\n      dup3\n        /* \"#utility.yul\":5569:5575   */\n      dup3\n        /* \"#utility.yul\":5549:5582   */\n      tag_209\n      jump\t// in\n    tag_323:\n        /* \"#utility.yul\":5459:5588   */\n      swap2\n      swap1\n      pop\n      jump\t// out\n        /* \"#utility.yul\":5594:5711   */\n    tag_211:\n        /* \"#utility.yul\":5703:5704   */\n      0x00\n        /* \"#utility.yul\":5700:5701   */\n      dup1\n        /* \"#utility.yul\":5693:5705   */\n      revert\n        /* \"#utility.yul\":5717:5834   */\n    tag_212:\n        /* \"#utility.yul\":5826:5827   */\n      0x00\n        /* \"#utility.yul\":5823:5824   */\n      dup1\n        /* \"#utility.yul\":5816:5828   */\n      revert\n        /* \"#utility.yul\":5840:5957   */\n    tag_213:\n        /* \"#utility.yul\":5949:5950   */\n      0x00\n        /* \"#utility.yul\":5946:5947   */\n      dup1\n        /* \"#utility.yul\":5939:5951   */\n      revert\n        /* \"#utility.yul\":5963:6271   */\n    tag_214:\n        /* \"#utility.yul\":6025:6029   */\n      0x00\n        /* \"#utility.yul\":6115:6133   */\n      0xffffffffffffffff\n        /* \"#utility.yul\":6107:6113   */\n      dup3\n        /* \"#utility.yul\":6104:6134   */\n      gt\n        /* \"#utility.yul\":6101:6157   */\n      iszero\n      tag_328\n      jumpi\n        /* \"#utility.yul\":6137:6155   */\n      tag_329\n      tag_208\n      jump\t// in\n    tag_329:\n        /* \"#utility.yul\":6101:6157   */\n    tag_328:\n        /* \"#utility.yul\":6175:6204   */\n      tag_330\n        /* \"#utility.yul\":6197:6203   */\n      dup3\n        /* \"#utility.yul\":6175:6204   */\n      tag_198\n      jump\t// in\n    tag_330:\n        /* \"#utility.yul\":6167:6204   */\n      swap1\n      pop\n        /* \"#utility.yul\":6259:6263   */\n      0x20\n        /* \"#utility.yul\":6253:6257   */\n      dup2\n        /* \"#utility.yul\":6249:6264   */\n      add\n        /* \"#utility.yul\":6241:6264   */\n      swap1\n      pop\n        /* \"#utility.yul\":5963:6271   */\n      swap2\n      swap1\n      pop\n      jump\t// out\n        /* \"#utility.yul\":6277:6423   */\n    tag_215:\n        /* \"#utility.yul\":6374:6380   */\n      dup3\n        /* \"#utility.yul\":6369:6372   */\n      dup2\n        /* \"#utility.yul\":6364:6367   */\n      dup4\n        /* \"#utility.yul\":6351:6381   */\n      calldatacopy\n        /* \"#utility.yul\":6415:6416   */\n      0x00\n        /* \"#utility.yul\":6406:6412   */\n      dup4\n        /* \"#utility.yul\":6401:6404   */\n      dup4\n        /* \"#utility.yul\":6397:6413   */\n      add\n        /* \"#utility.yul\":6390:6417   */\n      mstore\n        /* \"#utility.yul\":6277:6423   */\n      pop\n      pop\n      pop\n      jump\t// out\n        /* \"#utility.yul\":6429:6854   */\n    tag_216:\n        /* \"#utility.yul\":6507:6512   */\n      0x00\n        /* \"#utility.yul\":6532:6598   */\n      tag_333\n        /* \"#utility.yul\":6548:6597   */\n      tag_334\n        /* \"#utility.yul\":6590:6596   */\n      dup5\n        /* \"#utility.yul\":6548:6597   */\n      tag_214\n      jump\t// in\n    tag_334:\n        /* \"#utility.yul\":6532:6598   */\n      tag_210\n      jump\t// in\n    tag_333:\n        /* \"#utility.yul\":6523:6598   */\n      swap1\n      pop\n        /* \"#utility.yul\":6621:6627   */\n      dup3\n        /* \"#utility.yul\":6614:6619   */\n      dup2\n        /* \"#utility.yul\":6607:6628   */\n      mstore\n        /* \"#utility.yul\":6659:6663   */\n      0x20\n        /* \"#utility.yul\":6652:6657   */\n      dup2\n        /* \"#utility.yul\":6648:6664   */\n      add\n        /* \"#utility.yul\":6697:6700   */\n      dup5\n        /* \"#utility.yul\":6688:6694   */\n      dup5\n        /* \"#utility.yul\":6683:6686   */\n      dup5\n        /* \"#utility.yul\":6679:6695   */\n      add\n        /* \"#utility.yul\":6676:6701   */\n      gt\n        /* \"#utility.yul\":6673:6785   */\n      iszero\n      tag_335\n      jumpi\n        /* \"#utility.yul\":6704:6783   */\n      tag_336\n      tag_213\n      jump\t// in\n    tag_336:\n        /* \"#utility.yul\":6673:6785   */\n    tag_335:\n        /* \"#utility.yul\":6794:6848   */\n      tag_337\n        /* \"#utility.yul\":6841:6847   */\n      dup5\n        /* \"#utility.yul\":6836:6839   */\n      dup3\n        /* \"#utility.yul\":6831:6834   */\n      dup6\n        /* \"#utility.yul\":6794:6848   */\n      tag_215\n      jump\t// in\n    tag_337:\n        /* \"#utility.yul\":6513:6854   */\n      pop\n        /* \"#utility.yul\":6429:6854   */\n      swap4\n      swap3\n      pop\n      pop\n      pop\n      jump\t// out\n        /* \"#utility.yul\":6874:7214   */\n    tag_217:\n        /* \"#utility.yul\":6930:6935   */\n      0x00\n        /* \"#utility.yul\":6979:6982   */\n      dup3\n        /* \"#utility.yul\":6972:6976   */\n      0x1f\n        /* \"#utility.yul\":6964:6970   */\n      dup4\n        /* \"#utility.yul\":6960:6977   */\n      add\n        /* \"#utility.yul\":6956:6983   */\n      slt\n        /* \"#utility.yul\":6946:7068   */\n      tag_339\n      jumpi\n        /* \"#utility.yul\":6987:7066   */\n      tag_340\n      tag_212\n      jump\t// in\n    tag_340:\n        /* \"#utility.yul\":6946:7068   */\n    tag_339:\n        /* \"#utility.yul\":7104:7110   */\n      dup2\n        /* \"#utility.yul\":7091:7111   */\n      calldataload\n        /* \"#utility.yul\":7129:7208   */\n      tag_341\n        /* \"#utility.yul\":7204:7207   */\n      dup5\n        /* \"#utility.yul\":7196:7202   */\n      dup3\n        /* \"#utility.yul\":7189:7193   */\n      0x20\n        /* \"#utility.yul\":7181:7187   */\n      dup7\n        /* \"#utility.yul\":7177:7194   */\n      add\n        /* \"#utility.yul\":7129:7208   */\n      tag_216\n      jump\t// in\n    tag_341:\n        /* \"#utility.yul\":7120:7208   */\n      swap2\n      pop\n        /* \"#utility.yul\":6936:7214   */\n      pop\n        /* \"#utility.yul\":6874:7214   */\n      swap3\n      swap2\n      pop\n      pop\n      jump\t// out\n        /* \"#utility.yul\":7220:7338   */\n    tag_218:\n        /* \"#utility.yul\":7291:7313   */\n      tag_343\n        /* \"#utility.yul\":7307:7312   */\n      dup2\n        /* \"#utility.yul\":7291:7313   */\n      tag_200\n      jump\t// in\n    tag_343:\n        /* \"#utility.yul\":7284:7289   */\n      dup2\n        /* \"#utility.yul\":7281:7314   */\n      eq\n        /* \"#utility.yul\":7271:7332   */\n      tag_344\n      jumpi\n        /* \"#utility.yul\":7328:7329   */\n      0x00\n        /* \"#utility.yul\":7325:7326   */\n      dup1\n        /* \"#utility.yul\":7318:7330   */\n      revert\n        /* \"#utility.yul\":7271:7332   */\n    tag_344:\n        /* \"#utility.yul\":7220:7338   */\n      pop\n      jump\t// out\n        /* \"#utility.yul\":7344:7479   */\n    tag_219:\n        /* \"#utility.yul\":7388:7393   */\n      0x00\n        /* \"#utility.yul\":7426:7432   */\n      dup2\n        /* \"#utility.yul\":7413:7433   */\n      calldataload\n        /* \"#utility.yul\":7404:7433   */\n      swap1\n      pop\n        /* \"#utility.yul\":7442:7473   */\n      tag_346\n        /* \"#utility.yul\":7467:7472   */\n      dup2\n        /* \"#utility.yul\":7442:7473   */\n      tag_218\n      jump\t// in\n    tag_346:\n        /* \"#utility.yul\":7344:7479   */\n      swap3\n      swap2\n      pop\n      pop\n      jump\t// out\n        /* \"#utility.yul\":7485:7607   */\n    tag_220:\n        /* \"#utility.yul\":7558:7582   */\n      tag_348\n        /* \"#utility.yul\":7576:7581   */\n      dup2\n        /* \"#utility.yul\":7558:7582   */\n      tag_202\n      jump\t// in\n    tag_348:\n        /* \"#utility.yul\":7551:7556   */\n      dup2\n        /* \"#utility.yul\":7548:7583   */\n      eq\n        /* \"#utility.yul\":7538:7601   */\n      tag_349\n      jumpi\n        /* \"#utility.yul\":7597:7598   */\n      0x00\n        /* \"#utility.yul\":7594:7595   */\n      dup1\n        /* \"#utility.yul\":7587:7599   */\n      revert\n        /* \"#utility.yul\":7538:7601   */\n    tag_349:\n        /* \"#utility.yul\":7485:7607   */\n      pop\n      jump\t// out\n        /* \"#utility.yul\":7613:7752   */\n    tag_221:\n        /* \"#utility.yul\":7659:7664   */\n      0x00\n        /* \"#utility.yul\":7697:7703   */\n      dup2\n        /* \"#utility.yul\":7684:7704   */\n      calldataload\n        /* \"#utility.yul\":7675:7704   */\n      swap1\n      pop\n        /* \"#utility.yul\":7713:7746   */\n      tag_351\n        /* \"#utility.yul\":7740:7745   */\n      dup2\n        /* \"#utility.yul\":7713:7746   */\n      tag_220\n      jump\t// in\n    tag_351:\n        /* \"#utility.yul\":7613:7752   */\n      swap3\n      swap2\n      pop\n      pop\n      jump\t// out\n        /* \"#utility.yul\":7758:7874   */\n    tag_222:\n        /* \"#utility.yul\":7828:7849   */\n      tag_353\n        /* \"#utility.yul\":7843:7848   */\n      dup2\n        /* \"#utility.yul\":7828:7849   */\n      tag_205\n      jump\t// in\n    tag_353:\n        /* \"#utility.yul\":7821:7826   */\n      dup2\n        /* \"#utility.yul\":7818:7850   */\n      eq\n        /* \"#utility.yul\":7808:7868   */\n      tag_354\n      jumpi\n        /* \"#utility.yul\":7864:7865   */\n      0x00\n        /* \"#utility.yul\":7861:7862   */\n      dup1\n        /* \"#utility.yul\":7854:7866   */\n      revert\n        /* \"#utility.yul\":7808:7868   */\n    tag_354:\n        /* \"#utility.yul\":7758:7874   */\n      pop\n      jump\t// out\n        /* \"#utility.yul\":7880:8013   */\n    tag_223:\n        /* \"#utility.yul\":7923:7928   */\n      0x00\n        /* \"#utility.yul\":7961:7967   */\n      dup2\n        /* \"#utility.yul\":7948:7968   */\n      calldataload\n        /* \"#utility.yul\":7939:7968   */\n      swap1\n      pop\n        /* \"#utility.yul\":7977:8007   */\n      tag_356\n        /* \"#utility.yul\":8001:8006   */\n      dup2\n        /* \"#utility.yul\":7977:8007   */\n      tag_222\n      jump\t// in\n    tag_356:\n        /* \"#utility.yul\":7880:8013   */\n      swap3\n      swap2\n      pop\n      pop\n      jump\t// out\n        /* \"#utility.yul\":8044:10460   */\n    tag_224:\n        /* \"#utility.yul\":8114:8119   */\n      0x00\n        /* \"#utility.yul\":8158:8164   */\n      0x0160\n        /* \"#utility.yul\":8146:8155   */\n      dup3\n        /* \"#utility.yul\":8141:8144   */\n      dup5\n        /* \"#utility.yul\":8137:8156   */\n      sub\n        /* \"#utility.yul\":8133:8165   */\n      slt\n        /* \"#utility.yul\":8130:8249   */\n      iszero\n      tag_358\n      jumpi\n        /* \"#utility.yul\":8168:8247   */\n      tag_359\n      tag_207\n      jump\t// in\n    tag_359:\n        /* \"#utility.yul\":8130:8249   */\n    tag_358:\n        /* \"#utility.yul\":8267:8290   */\n      tag_360\n        /* \"#utility.yul\":8283:8289   */\n      0x0160\n        /* \"#utility.yul\":8267:8290   */\n      tag_210\n      jump\t// in\n    tag_360:\n        /* \"#utility.yul\":8258:8290   */\n      swap1\n      pop\n        /* \"#utility.yul\":8385:8386   */\n      0x00\n        /* \"#utility.yul\":8374:8383   */\n      dup3\n        /* \"#utility.yul\":8370:8387   */\n      add\n        /* \"#utility.yul\":8357:8388   */\n      calldataload\n        /* \"#utility.yul\":8415:8433   */\n      0xffffffffffffffff\n        /* \"#utility.yul\":8407:8413   */\n      dup2\n        /* \"#utility.yul\":8404:8434   */\n      gt\n        /* \"#utility.yul\":8401:8518   */\n      iszero\n      tag_361\n      jumpi\n        /* \"#utility.yul\":8437:8516   */\n      tag_362\n      tag_211\n      jump\t// in\n    tag_362:\n        /* \"#utility.yul\":8401:8518   */\n    tag_361:\n        /* \"#utility.yul\":8557:8616   */\n      tag_363\n        /* \"#utility.yul\":8612:8615   */\n      dup5\n        /* \"#utility.yul\":8603:8609   */\n      dup3\n        /* \"#utility.yul\":8592:8601   */\n      dup6\n        /* \"#utility.yul\":8588:8610   */\n      add\n        /* \"#utility.yul\":8557:8616   */\n      tag_217\n      jump\t// in\n    tag_363:\n        /* \"#utility.yul\":8550:8554   */\n      0x00\n        /* \"#utility.yul\":8543:8548   */\n      dup4\n        /* \"#utility.yul\":8539:8555   */\n      add\n        /* \"#utility.yul\":8532:8617   */\n      mstore\n        /* \"#utility.yul\":8300:8628   */\n      pop\n        /* \"#utility.yul\":8717:8719   */\n      0x20\n        /* \"#utility.yul\":8706:8715   */\n      dup3\n        /* \"#utility.yul\":8702:8720   */\n      add\n        /* \"#utility.yul\":8689:8721   */\n      calldataload\n        /* \"#utility.yul\":8748:8766   */\n      0xffffffffffffffff\n        /* \"#utility.yul\":8740:8746   */\n      dup2\n        /* \"#utility.yul\":8737:8767   */\n      gt\n        /* \"#utility.yul\":8734:8851   */\n      iszero\n      tag_364\n      jumpi\n        /* \"#utility.yul\":8770:8849   */\n      tag_365\n      tag_211\n      jump\t// in\n    tag_365:\n        /* \"#utility.yul\":8734:8851   */\n    tag_364:\n        /* \"#utility.yul\":8890:8949   */\n      tag_366\n        /* \"#utility.yul\":8945:8948   */\n      dup5\n        /* \"#utility.yul\":8936:8942   */\n      dup3\n        /* \"#utility.yul\":8925:8934   */\n      dup6\n        /* \"#utility.yul\":8921:8943   */\n      add\n        /* \"#utility.yul\":8890:8949   */\n      tag_217\n      jump\t// in\n    tag_366:\n        /* \"#utility.yul\":8883:8887   */\n      0x20\n        /* \"#utility.yul\":8876:8881   */\n      dup4\n        /* \"#utility.yul\":8872:8888   */\n      add\n        /* \"#utility.yul\":8865:8950   */\n      mstore\n        /* \"#utility.yul\":8638:8961   */\n      pop\n        /* \"#utility.yul\":9021:9023   */\n      0x40\n        /* \"#utility.yul\":9062:9109   */\n      tag_367\n        /* \"#utility.yul\":9105:9108   */\n      dup5\n        /* \"#utility.yul\":9096:9102   */\n      dup3\n        /* \"#utility.yul\":9085:9094   */\n      dup6\n        /* \"#utility.yul\":9081:9103   */\n      add\n        /* \"#utility.yul\":9062:9109   */\n      tag_219\n      jump\t// in\n    tag_367:\n        /* \"#utility.yul\":9055:9059   */\n      0x40\n        /* \"#utility.yul\":9048:9053   */\n      dup4\n        /* \"#utility.yul\":9044:9060   */\n      add\n        /* \"#utility.yul\":9037:9110   */\n      mstore\n        /* \"#utility.yul\":8971:9121   */\n      pop\n        /* \"#utility.yul\":9184:9186   */\n      0x60\n        /* \"#utility.yul\":9225:9272   */\n      tag_368\n        /* \"#utility.yul\":9268:9271   */\n      dup5\n        /* \"#utility.yul\":9259:9265   */\n      dup3\n        /* \"#utility.yul\":9248:9257   */\n      dup6\n        /* \"#utility.yul\":9244:9266   */\n      add\n        /* \"#utility.yul\":9225:9272   */\n      tag_219\n      jump\t// in\n    tag_368:\n        /* \"#utility.yul\":9218:9222   */\n      0x60\n        /* \"#utility.yul\":9211:9216   */\n      dup4\n        /* \"#utility.yul\":9207:9223   */\n      add\n        /* \"#utility.yul\":9200:9273   */\n      mstore\n        /* \"#utility.yul\":9131:9284   */\n      pop\n        /* \"#utility.yul\":9348:9351   */\n      0x80\n        /* \"#utility.yul\":9390:9439   */\n      tag_369\n        /* \"#utility.yul\":9435:9438   */\n      dup5\n        /* \"#utility.yul\":9426:9432   */\n      dup3\n        /* \"#utility.yul\":9415:9424   */\n      dup6\n        /* \"#utility.yul\":9411:9433   */\n      add\n        /* \"#utility.yul\":9390:9439   */\n      tag_221\n      jump\t// in\n    tag_369:\n        /* \"#utility.yul\":9383:9387   */\n      0x80\n        /* \"#utility.yul\":9376:9381   */\n      dup4\n        /* \"#utility.yul\":9372:9388   */\n      add\n        /* \"#utility.yul\":9365:9440   */\n      mstore\n        /* \"#utility.yul\":9294:9451   */\n      pop\n        /* \"#utility.yul\":9517:9520   */\n      0xa0\n        /* \"#utility.yul\":9559:9608   */\n      tag_370\n        /* \"#utility.yul\":9604:9607   */\n      dup5\n        /* \"#utility.yul\":9595:9601   */\n      dup3\n        /* \"#utility.yul\":9584:9593   */\n      dup6\n        /* \"#utility.yul\":9580:9602   */\n      add\n        /* \"#utility.yul\":9559:9608   */\n      tag_221\n      jump\t// in\n    tag_370:\n        /* \"#utility.yul\":9552:9556   */\n      0xa0\n        /* \"#utility.yul\":9545:9550   */\n      dup4\n        /* \"#utility.yul\":9541:9557   */\n      add\n        /* \"#utility.yul\":9534:9609   */\n      mstore\n        /* \"#utility.yul\":9461:9620   */\n      pop\n        /* \"#utility.yul\":9690:9693   */\n      0xc0\n        /* \"#utility.yul\":9732:9781   */\n      tag_371\n        /* \"#utility.yul\":9777:9780   */\n      dup5\n        /* \"#utility.yul\":9768:9774   */\n      dup3\n        /* \"#utility.yul\":9757:9766   */\n      dup6\n        /* \"#utility.yul\":9753:9775   */\n      add\n        /* \"#utility.yul\":9732:9781   */\n      tag_194\n      jump\t// in\n    tag_371:\n        /* \"#utility.yul\":9725:9729   */\n      0xc0\n        /* \"#utility.yul\":9718:9723   */\n      dup4\n        /* \"#utility.yul\":9714:9730   */\n      add\n        /* \"#utility.yul\":9707:9782   */\n      mstore\n        /* \"#utility.yul\":9630:9793   */\n      pop\n        /* \"#utility.yul\":9860:9863   */\n      0xe0\n        /* \"#utility.yul\":9902:9948   */\n      tag_372\n        /* \"#utility.yul\":9944:9947   */\n      dup5\n        /* \"#utility.yul\":9935:9941   */\n      dup3\n        /* \"#utility.yul\":9924:9933   */\n      dup6\n        /* \"#utility.yul\":9920:9942   */\n      add\n        /* \"#utility.yul\":9902:9948   */\n      tag_223\n      jump\t// in\n    tag_372:\n        /* \"#utility.yul\":9895:9899   */\n      0xe0\n        /* \"#utility.yul\":9888:9893   */\n      dup4\n        /* \"#utility.yul\":9884:9900   */\n      add\n        /* \"#utility.yul\":9877:9949   */\n      mstore\n        /* \"#utility.yul\":9803:9960   */\n      pop\n        /* \"#utility.yul\":10021:10024   */\n      0x0100\n        /* \"#utility.yul\":10065:10111   */\n      tag_373\n        /* \"#utility.yul\":10107:10110   */\n      dup5\n        /* \"#utility.yul\":10098:10104   */\n      dup3\n        /* \"#utility.yul\":10087:10096   */\n      dup6\n        /* \"#utility.yul\":10083:10105   */\n      add\n        /* \"#utility.yul\":10065:10111   */\n      tag_223\n      jump\t// in\n    tag_373:\n        /* \"#utility.yul\":10056:10062   */\n      0x0100\n        /* \"#utility.yul\":10049:10054   */\n      dup4\n        /* \"#utility.yul\":10045:10063   */\n      add\n        /* \"#utility.yul\":10038:10112   */\n      mstore\n        /* \"#utility.yul\":9970:10123   */\n      pop\n        /* \"#utility.yul\":10185:10188   */\n      0x0120\n        /* \"#utility.yul\":10229:10278   */\n      tag_374\n        /* \"#utility.yul\":10274:10277   */\n      dup5\n        /* \"#utility.yul\":10265:10271   */\n      dup3\n        /* \"#utility.yul\":10254:10263   */\n      dup6\n        /* \"#utility.yul\":10250:10272   */\n      add\n        /* \"#utility.yul\":10229:10278   */\n      tag_194\n      jump\t// in\n    tag_374:\n        /* \"#utility.yul\":10220:10226   */\n      0x0120\n        /* \"#utility.yul\":10213:10218   */\n      dup4\n        /* \"#utility.yul\":10209:10227   */\n      add\n        /* \"#utility.yul\":10202:10279   */\n      mstore\n        /* \"#utility.yul\":10133:10290   */\n      pop\n        /* \"#utility.yul\":10351:10354   */\n      0x0140\n        /* \"#utility.yul\":10395:10441   */\n      tag_375\n        /* \"#utility.yul\":10437:10440   */\n      dup5\n        /* \"#utility.yul\":10428:10434   */\n      dup3\n        /* \"#utility.yul\":10417:10426   */\n      dup6\n        /* \"#utility.yul\":10413:10435   */\n      add\n        /* \"#utility.yul\":10395:10441   */\n      tag_223\n      jump\t// in\n    tag_375:\n        /* \"#utility.yul\":10386:10392   */\n      0x0140\n        /* \"#utility.yul\":10379:10384   */\n      dup4\n        /* \"#utility.yul\":10375:10393   */\n      add\n        /* \"#utility.yul\":10368:10442   */\n      mstore\n        /* \"#utility.yul\":10300:10453   */\n      pop\n        /* \"#utility.yul\":8044:10460   */\n      swap3\n      swap2\n      pop\n      pop\n      jump\t// out\n        /* \"#utility.yul\":10466:10997   */\n    tag_58:\n        /* \"#utility.yul\":10546:10552   */\n      0x00\n        /* \"#utility.yul\":10595:10597   */\n      0x20\n        /* \"#utility.yul\":10583:10592   */\n      dup3\n        /* \"#utility.yul\":10574:10581   */\n      dup5\n        /* \"#utility.yul\":10570:10593   */\n      sub\n        /* \"#utility.yul\":10566:10598   */\n      slt\n        /* \"#utility.yul\":10563:10682   */\n      iszero\n      tag_377\n      jumpi\n        /* \"#utility.yul\":10601:10680   */\n      tag_378\n      tag_189\n      jump\t// in\n    tag_378:\n        /* \"#utility.yul\":10563:10682   */\n    tag_377:\n        /* \"#utility.yul\":10749:10750   */\n      0x00\n        /* \"#utility.yul\":10738:10747   */\n      dup3\n        /* \"#utility.yul\":10734:10751   */\n      add\n        /* \"#utility.yul\":10721:10752   */\n      calldataload\n        /* \"#utility.yul\":10779:10797   */\n      0xffffffffffffffff\n        /* \"#utility.yul\":10771:10777   */\n      dup2\n        /* \"#utility.yul\":10768:10798   */\n      gt\n        /* \"#utility.yul\":10765:10882   */\n      iszero\n      tag_379\n      jumpi\n        /* \"#utility.yul\":10801:10880   */\n      tag_380\n      tag_190\n      jump\t// in\n    tag_380:\n        /* \"#utility.yul\":10765:10882   */\n    tag_379:\n        /* \"#utility.yul\":10906:10980   */\n      tag_381\n        /* \"#utility.yul\":10972:10979   */\n      dup5\n        /* \"#utility.yul\":10963:10969   */\n      dup3\n        /* \"#utility.yul\":10952:10961   */\n      dup6\n        /* \"#utility.yul\":10948:10970   */\n      add\n        /* \"#utility.yul\":10906:10980   */\n      tag_224\n      jump\t// in\n    tag_381:\n        /* \"#utility.yul\":10896:10980   */\n      swap2\n      pop\n        /* \"#utility.yul\":10692:10990   */\n      pop\n        /* \"#utility.yul\":10466:10997   */\n      swap3\n      swap2\n      pop\n      pop\n      jump\t// out\n        /* \"#utility.yul\":11003:11473   */\n    tag_62:\n        /* \"#utility.yul\":11069:11075   */\n      0x00\n        /* \"#utility.yul\":11077:11083   */\n      dup1\n        /* \"#utility.yul\":11126:11128   */\n      0x40\n        /* \"#utility.yul\":11114:11123   */\n      dup4\n        /* \"#utility.yul\":11105:11112   */\n      dup6\n        /* \"#utility.yul\":11101:11124   */\n      sub\n        /* \"#utility.yul\":11097:11129   */\n      slt\n        /* \"#utility.yul\":11094:11213   */\n      iszero\n      tag_383\n      jumpi\n        /* \"#utility.yul\":11132:11211   */\n      tag_384\n      tag_189\n      jump\t// in\n    tag_384:\n        /* \"#utility.yul\":11094:11213   */\n    tag_383:\n        /* \"#utility.yul\":11252:11253   */\n      0x00\n        /* \"#utility.yul\":11277:11330   */\n      tag_385\n        /* \"#utility.yul\":11322:11329   */\n      dup6\n        /* \"#utility.yul\":11313:11319   */\n      dup3\n        /* \"#utility.yul\":11302:11311   */\n      dup7\n        /* \"#utility.yul\":11298:11320   */\n      add\n        /* \"#utility.yul\":11277:11330   */\n      tag_194\n      jump\t// in\n    tag_385:\n        /* \"#utility.yul\":11267:11330   */\n      swap3\n      pop\n        /* \"#utility.yul\":11223:11340   */\n      pop\n        /* \"#utility.yul\":11379:11381   */\n      0x20\n        /* \"#utility.yul\":11405:11456   */\n      tag_386\n        /* \"#utility.yul\":11448:11455   */\n      dup6\n        /* \"#utility.yul\":11439:11445   */\n      dup3\n        /* \"#utility.yul\":11428:11437   */\n      dup7\n        /* \"#utility.yul\":11424:11446   */\n      add\n        /* \"#utility.yul\":11405:11456   */\n      tag_219\n      jump\t// in\n    tag_386:\n        /* \"#utility.yul\":11395:11456   */\n      swap2\n      pop\n        /* \"#utility.yul\":11350:11466   */\n      pop\n        /* \"#utility.yul\":11003:11473   */\n      swap3\n      pop\n      swap3\n      swap1\n      pop\n      jump\t// out\n        /* \"#utility.yul\":11479:11953   */\n    tag_75:\n        /* \"#utility.yul\":11547:11553   */\n      0x00\n        /* \"#utility.yul\":11555:11561   */\n      dup1\n        /* \"#utility.yul\":11604:11606   */\n      0x40\n        /* \"#utility.yul\":11592:11601   */\n      dup4\n        /* \"#utility.yul\":11583:11590   */\n      dup6\n        /* \"#utility.yul\":11579:11602   */\n      sub\n        /* \"#utility.yul\":11575:11607   */\n      slt\n        /* \"#utility.yul\":11572:11691   */\n      iszero\n      tag_388\n      jumpi\n        /* \"#utility.yul\":11610:11689   */\n      tag_389\n      tag_189\n      jump\t// in\n    tag_389:\n        /* \"#utility.yul\":11572:11691   */\n    tag_388:\n        /* \"#utility.yul\":11730:11731   */\n      0x00\n        /* \"#utility.yul\":11755:11808   */\n      tag_390\n        /* \"#utility.yul\":11800:11807   */\n      dup6\n        /* \"#utility.yul\":11791:11797   */\n      dup3\n        /* \"#utility.yul\":11780:11789   */\n      dup7\n        /* \"#utility.yul\":11776:11798   */\n      add\n        /* \"#utility.yul\":11755:11808   */\n      tag_194\n      jump\t// in\n    tag_390:\n        /* \"#utility.yul\":11745:11808   */\n      swap3\n      pop\n        /* \"#utility.yul\":11701:11818   */\n      pop\n        /* \"#utility.yul\":11857:11859   */\n      0x20\n        /* \"#utility.yul\":11883:11936   */\n      tag_391\n        /* \"#utility.yul\":11928:11935   */\n      dup6\n        /* \"#utility.yul\":11919:11925   */\n      dup3\n        /* \"#utility.yul\":11908:11917   */\n      dup7\n        /* \"#utility.yul\":11904:11926   */\n      add\n        /* \"#utility.yul\":11883:11936   */\n      tag_194\n      jump\t// in\n    tag_391:\n        /* \"#utility.yul\":11873:11936   */\n      swap2\n      pop\n        /* \"#utility.yul\":11828:11946   */\n      pop\n        /* \"#utility.yul\":11479:11953   */\n      swap3\n      pop\n      swap3\n      swap1\n      pop\n      jump\t// out\n        /* \"#utility.yul\":11959:12118   */\n    tag_225:\n        /* \"#utility.yul\":12033:12044   */\n      0x00\n        /* \"#utility.yul\":12067:12073   */\n      dup3\n        /* \"#utility.yul\":12062:12065   */\n      dup3\n        /* \"#utility.yul\":12055:12074   */\n      mstore\n        /* \"#utility.yul\":12107:12111   */\n      0x20\n        /* \"#utility.yul\":12102:12105   */\n      dup3\n        /* \"#utility.yul\":12098:12112   */\n      add\n        /* \"#utility.yul\":12083:12112   */\n      swap1\n      pop\n        /* \"#utility.yul\":11959:12118   */\n      swap3\n      swap2\n      pop\n      pop\n      jump\t// out\n        /* \"#utility.yul\":12124:12481   */\n    tag_226:\n        /* \"#utility.yul\":12202:12205   */\n      0x00\n        /* \"#utility.yul\":12230:12269   */\n      tag_394\n        /* \"#utility.yul\":12263:12268   */\n      dup3\n        /* \"#utility.yul\":12230:12269   */\n      tag_195\n      jump\t// in\n    tag_394:\n        /* \"#utility.yul\":12285:12346   */\n      tag_395\n        /* \"#utility.yul\":12339:12345   */\n      dup2\n        /* \"#utility.yul\":12334:12337   */\n      dup6\n        /* \"#utility.yul\":12285:12346   */\n      tag_225\n      jump\t// in\n    tag_395:\n        /* \"#utility.yul\":12278:12346   */\n      swap4\n      pop\n        /* \"#utility.yul\":12355:12420   */\n      tag_396\n        /* \"#utility.yul\":12413:12419   */\n      dup2\n        /* \"#utility.yul\":12408:12411   */\n      dup6\n        /* \"#utility.yul\":12401:12405   */\n      0x20\n        /* \"#utility.yul\":12394:12399   */\n      dup7\n        /* \"#utility.yul\":12390:12406   */\n      add\n        /* \"#utility.yul\":12355:12420   */\n      tag_197\n      jump\t// in\n    tag_396:\n        /* \"#utility.yul\":12445:12474   */\n      tag_397\n        /* \"#utility.yul\":12467:12473   */\n      dup2\n        /* \"#utility.yul\":12445:12474   */\n      tag_198\n      jump\t// in\n    tag_397:\n        /* \"#utility.yul\":12440:12443   */\n      dup5\n        /* \"#utility.yul\":12436:12475   */\n      add\n        /* \"#utility.yul\":12429:12475   */\n      swap2\n      pop\n        /* \"#utility.yul\":12206:12481   */\n      pop\n        /* \"#utility.yul\":12124:12481   */\n      swap3\n      swap2\n      pop\n      pop\n      jump\t// out\n        /* \"#utility.yul\":12487:12589   */\n    tag_227:\n        /* \"#utility.yul\":12560:12582   */\n      tag_399\n        /* \"#utility.yul\":12576:12581   */\n      dup2\n        /* \"#utility.yul\":12560:12582   */\n      tag_200\n      jump\t// in\n    tag_399:\n        /* \"#utility.yul\":12555:12558   */\n      dup3\n        /* \"#utility.yul\":12548:12583   */\n      mstore\n        /* \"#utility.yul\":12487:12589   */\n      pop\n      pop\n      jump\t// out\n        /* \"#utility.yul\":12595:12703   */\n    tag_228:\n        /* \"#utility.yul\":12672:12696   */\n      tag_401\n        /* \"#utility.yul\":12690:12695   */\n      dup2\n        /* \"#utility.yul\":12672:12696   */\n      tag_202\n      jump\t// in\n    tag_401:\n        /* \"#utility.yul\":12667:12670   */\n      dup3\n        /* \"#utility.yul\":12660:12697   */\n      mstore\n        /* \"#utility.yul\":12595:12703   */\n      pop\n      pop\n      jump\t// out\n        /* \"#utility.yul\":12709:12817   */\n    tag_229:\n        /* \"#utility.yul\":12786:12810   */\n      tag_403\n        /* \"#utility.yul\":12804:12809   */\n      dup2\n        /* \"#utility.yul\":12786:12810   */\n      tag_192\n      jump\t// in\n    tag_403:\n        /* \"#utility.yul\":12781:12784   */\n      dup3\n        /* \"#utility.yul\":12774:12811   */\n      mstore\n        /* \"#utility.yul\":12709:12817   */\n      pop\n      pop\n      jump\t// out\n        /* \"#utility.yul\":12823:12922   */\n    tag_230:\n        /* \"#utility.yul\":12894:12915   */\n      tag_405\n        /* \"#utility.yul\":12909:12914   */\n      dup2\n        /* \"#utility.yul\":12894:12915   */\n      tag_205\n      jump\t// in\n    tag_405:\n        /* \"#utility.yul\":12889:12892   */\n      dup3\n        /* \"#utility.yul\":12882:12916   */\n      mstore\n        /* \"#utility.yul\":12823:12922   */\n      pop\n      pop\n      jump\t// out\n        /* \"#utility.yul\":12974:15250   */\n    tag_231:\n        /* \"#utility.yul\":13085:13088   */\n      0x00\n        /* \"#utility.yul\":13121:13127   */\n      0x0160\n        /* \"#utility.yul\":13116:13119   */\n      dup4\n        /* \"#utility.yul\":13112:13128   */\n      add\n        /* \"#utility.yul\":13218:13222   */\n      0x00\n        /* \"#utility.yul\":13211:13216   */\n      dup4\n        /* \"#utility.yul\":13207:13223   */\n      add\n        /* \"#utility.yul\":13201:13224   */\n      mload\n        /* \"#utility.yul\":13271:13274   */\n      dup5\n        /* \"#utility.yul\":13265:13269   */\n      dup3\n        /* \"#utility.yul\":13261:13275   */\n      sub\n        /* \"#utility.yul\":13254:13258   */\n      0x00\n        /* \"#utility.yul\":13249:13252   */\n      dup7\n        /* \"#utility.yul\":13245:13259   */\n      add\n        /* \"#utility.yul\":13238:13276   */\n      mstore\n        /* \"#utility.yul\":13297:13370   */\n      tag_407\n        /* \"#utility.yul\":13365:13369   */\n      dup3\n        /* \"#utility.yul\":13351:13363   */\n      dup3\n        /* \"#utility.yul\":13297:13370   */\n      tag_226\n      jump\t// in\n    tag_407:\n        /* \"#utility.yul\":13289:13370   */\n      swap2\n      pop\n        /* \"#utility.yul\":13138:13381   */\n      pop\n        /* \"#utility.yul\":13465:13469   */\n      0x20\n        /* \"#utility.yul\":13458:13463   */\n      dup4\n        /* \"#utility.yul\":13454:13470   */\n      add\n        /* \"#utility.yul\":13448:13471   */\n      mload\n        /* \"#utility.yul\":13518:13521   */\n      dup5\n        /* \"#utility.yul\":13512:13516   */\n      dup3\n        /* \"#utility.yul\":13508:13522   */\n      sub\n        /* \"#utility.yul\":13501:13505   */\n      0x20\n        /* \"#utility.yul\":13496:13499   */\n      dup7\n        /* \"#utility.yul\":13492:13506   */\n      add\n        /* \"#utility.yul\":13485:13523   */\n      mstore\n        /* \"#utility.yul\":13544:13617   */\n      tag_408\n        /* \"#utility.yul\":13612:13616   */\n      dup3\n        /* \"#utility.yul\":13598:13610   */\n      dup3\n        /* \"#utility.yul\":13544:13617   */\n      tag_226\n      jump\t// in\n    tag_408:\n        /* \"#utility.yul\":13536:13617   */\n      swap2\n      pop\n        /* \"#utility.yul\":13391:13628   */\n      pop\n        /* \"#utility.yul\":13711:13715   */\n      0x40\n        /* \"#utility.yul\":13704:13709   */\n      dup4\n        /* \"#utility.yul\":13700:13716   */\n      add\n        /* \"#utility.yul\":13694:13717   */\n      mload\n        /* \"#utility.yul\":13730:13789   */\n      tag_409\n        /* \"#utility.yul\":13783:13787   */\n      0x40\n        /* \"#utility.yul\":13778:13781   */\n      dup7\n        /* \"#utility.yul\":13774:13788   */\n      add\n        /* \"#utility.yul\":13760:13772   */\n      dup3\n        /* \"#utility.yul\":13730:13789   */\n      tag_227\n      jump\t// in\n    tag_409:\n        /* \"#utility.yul\":13638:13799   */\n      pop\n        /* \"#utility.yul\":13885:13889   */\n      0x60\n        /* \"#utility.yul\":13878:13883   */\n      dup4\n        /* \"#utility.yul\":13874:13890   */\n      add\n        /* \"#utility.yul\":13868:13891   */\n      mload\n        /* \"#utility.yul\":13904:13963   */\n      tag_410\n        /* \"#utility.yul\":13957:13961   */\n      0x60\n        /* \"#utility.yul\":13952:13955   */\n      dup7\n        /* \"#utility.yul\":13948:13962   */\n      add\n        /* \"#utility.yul\":13934:13946   */\n      dup3\n        /* \"#utility.yul\":13904:13963   */\n      tag_227\n      jump\t// in\n    tag_410:\n        /* \"#utility.yul\":13809:13973   */\n      pop\n        /* \"#utility.yul\":14060:14064   */\n      0x80\n        /* \"#utility.yul\":14053:14058   */\n      dup4\n        /* \"#utility.yul\":14049:14065   */\n      add\n        /* \"#utility.yul\":14043:14066   */\n      mload\n        /* \"#utility.yul\":14079:14142   */\n      tag_411\n        /* \"#utility.yul\":14136:14140   */\n      0x80\n        /* \"#utility.yul\":14131:14134   */\n      dup7\n        /* \"#utility.yul\":14127:14141   */\n      add\n        /* \"#utility.yul\":14113:14125   */\n      dup3\n        /* \"#utility.yul\":14079:14142   */\n      tag_228\n      jump\t// in\n    tag_411:\n        /* \"#utility.yul\":13983:14152   */\n      pop\n        /* \"#utility.yul\":14241:14245   */\n      0xa0\n        /* \"#utility.yul\":14234:14239   */\n      dup4\n        /* \"#utility.yul\":14230:14246   */\n      add\n        /* \"#utility.yul\":14224:14247   */\n      mload\n        /* \"#utility.yul\":14260:14323   */\n      tag_412\n        /* \"#utility.yul\":14317:14321   */\n      0xa0\n        /* \"#utility.yul\":14312:14315   */\n      dup7\n        /* \"#utility.yul\":14308:14322   */\n      add\n        /* \"#utility.yul\":14294:14306   */\n      dup3\n        /* \"#utility.yul\":14260:14323   */\n      tag_228\n      jump\t// in\n    tag_412:\n        /* \"#utility.yul\":14162:14333   */\n      pop\n        /* \"#utility.yul\":14426:14430   */\n      0xc0\n        /* \"#utility.yul\":14419:14424   */\n      dup4\n        /* \"#utility.yul\":14415:14431   */\n      add\n        /* \"#utility.yul\":14409:14432   */\n      mload\n        /* \"#utility.yul\":14445:14508   */\n      tag_413\n        /* \"#utility.yul\":14502:14506   */\n      0xc0\n        /* \"#utility.yul\":14497:14500   */\n      dup7\n        /* \"#utility.yul\":14493:14507   */\n      add\n        /* \"#utility.yul\":14479:14491   */\n      dup3\n        /* \"#utility.yul\":14445:14508   */\n      tag_229\n      jump\t// in\n    tag_413:\n        /* \"#utility.yul\":14343:14518   */\n      pop\n        /* \"#utility.yul\":14608:14612   */\n      0xe0\n        /* \"#utility.yul\":14601:14606   */\n      dup4\n        /* \"#utility.yul\":14597:14613   */\n      add\n        /* \"#utility.yul\":14591:14614   */\n      mload\n        /* \"#utility.yul\":14627:14684   */\n      tag_414\n        /* \"#utility.yul\":14678:14682   */\n      0xe0\n        /* \"#utility.yul\":14673:14676   */\n      dup7\n        /* \"#utility.yul\":14669:14683   */\n      add\n        /* \"#utility.yul\":14655:14667   */\n      dup3\n        /* \"#utility.yul\":14627:14684   */\n      tag_230\n      jump\t// in\n    tag_414:\n        /* \"#utility.yul\":14528:14694   */\n      pop\n        /* \"#utility.yul\":14778:14784   */\n      0x0100\n        /* \"#utility.yul\":14771:14776   */\n      dup4\n        /* \"#utility.yul\":14767:14785   */\n      add\n        /* \"#utility.yul\":14761:14786   */\n      mload\n        /* \"#utility.yul\":14799:14858   */\n      tag_415\n        /* \"#utility.yul\":14850:14856   */\n      0x0100\n        /* \"#utility.yul\":14845:14848   */\n      dup7\n        /* \"#utility.yul\":14841:14857   */\n      add\n        /* \"#utility.yul\":14827:14839   */\n      dup3\n        /* \"#utility.yul\":14799:14858   */\n      tag_230\n      jump\t// in\n    tag_415:\n        /* \"#utility.yul\":14704:14868   */\n      pop\n        /* \"#utility.yul\":14953:14959   */\n      0x0120\n        /* \"#utility.yul\":14946:14951   */\n      dup4\n        /* \"#utility.yul\":14942:14960   */\n      add\n        /* \"#utility.yul\":14936:14961   */\n      mload\n        /* \"#utility.yul\":14974:15039   */\n      tag_416\n        /* \"#utility.yul\":15031:15037   */\n      0x0120\n        /* \"#utility.yul\":15026:15029   */\n      dup7\n        /* \"#utility.yul\":15022:15038   */\n      add\n        /* \"#utility.yul\":15008:15020   */\n      dup3\n        /* \"#utility.yul\":14974:15039   */\n      tag_229\n      jump\t// in\n    tag_416:\n        /* \"#utility.yul\":14878:15049   */\n      pop\n        /* \"#utility.yul\":15133:15139   */\n      0x0140\n        /* \"#utility.yul\":15126:15131   */\n      dup4\n        /* \"#utility.yul\":15122:15140   */\n      add\n        /* \"#utility.yul\":15116:15141   */\n      mload\n        /* \"#utility.yul\":15154:15213   */\n      tag_417\n        /* \"#utility.yul\":15205:15211   */\n      0x0140\n        /* \"#utility.yul\":15200:15203   */\n      dup7\n        /* \"#utility.yul\":15196:15212   */\n      add\n        /* \"#utility.yul\":15182:15194   */\n      dup3\n        /* \"#utility.yul\":15154:15213   */\n      tag_230\n      jump\t// in\n    tag_417:\n        /* \"#utility.yul\":15059:15223   */\n      pop\n        /* \"#utility.yul\":15240:15244   */\n      dup1\n        /* \"#utility.yul\":15233:15244   */\n      swap2\n      pop\n        /* \"#utility.yul\":13090:15250   */\n      pop\n        /* \"#utility.yul\":12974:15250   */\n      swap3\n      swap2\n      pop\n      pop\n      jump\t// out\n        /* \"#utility.yul\":15256:15613   */\n    tag_88:\n        /* \"#utility.yul\":15391:15395   */\n      0x00\n        /* \"#utility.yul\":15429:15431   */\n      0x20\n        /* \"#utility.yul\":15418:15427   */\n      dup3\n        /* \"#utility.yul\":15414:15432   */\n      add\n        /* \"#utility.yul\":15406:15432   */\n      swap1\n      pop\n        /* \"#utility.yul\":15478:15487   */\n      dup2\n        /* \"#utility.yul\":15472:15476   */\n      dup2\n        /* \"#utility.yul\":15468:15488   */\n      sub\n        /* \"#utility.yul\":15464:15465   */\n      0x00\n        /* \"#utility.yul\":15453:15462   */\n      dup4\n        /* \"#utility.yul\":15449:15466   */\n      add\n        /* \"#utility.yul\":15442:15489   */\n      mstore\n        /* \"#utility.yul\":15506:15606   */\n      tag_419\n        /* \"#utility.yul\":15601:15605   */\n      dup2\n        /* \"#utility.yul\":15592:15598   */\n      dup5\n        /* \"#utility.yul\":15506:15606   */\n      tag_231\n      jump\t// in\n    tag_419:\n        /* \"#utility.yul\":15498:15606   */\n      swap1\n      pop\n        /* \"#utility.yul\":15256:15613   */\n      swap3\n      swap2\n      pop\n      pop\n      jump\t// out\n        /* \"#utility.yul\":15619:15799   */\n    tag_232:\n        /* \"#utility.yul\":15667:15744   */\n      0x4e487b7100000000000000000000000000000000000000000000000000000000\n        /* \"#utility.yul\":15664:15665   */\n      0x00\n        /* \"#utility.yul\":15657:15745   */\n      mstore\n        /* \"#utility.yul\":15764:15768   */\n      0x22\n        /* \"#utility.yul\":15761:15762   */\n      0x04\n        /* \"#utility.yul\":15754:15769   */\n      mstore\n        /* \"#utility.yul\":15788:15792   */\n      0x24\n        /* \"#utility.yul\":15785:15786   */\n      0x00\n        /* \"#utility.yul\":15778:15793   */\n      revert\n        /* \"#utility.yul\":15805:16125   */\n    tag_98:\n        /* \"#utility.yul\":15849:15855   */\n      0x00\n        /* \"#utility.yul\":15886:15887   */\n      0x02\n        /* \"#utility.yul\":15880:15884   */\n      dup3\n        /* \"#utility.yul\":15876:15888   */\n      div\n        /* \"#utility.yul\":15866:15888   */\n      swap1\n      pop\n        /* \"#utility.yul\":15933:15934   */\n      0x01\n        /* \"#utility.yul\":15927:15931   */\n      dup3\n        /* \"#utility.yul\":15923:15935   */\n      and\n        /* \"#utility.yul\":15954:15972   */\n      dup1\n        /* \"#utility.yul\":15944:16025   */\n      tag_422\n      jumpi\n        /* \"#utility.yul\":16010:16014   */\n      0x7f\n        /* \"#utility.yul\":16002:16008   */\n      dup3\n        /* \"#utility.yul\":15998:16015   */\n      and\n        /* \"#utility.yul\":15988:16015   */\n      swap2\n      pop\n        /* \"#utility.yul\":15944:16025   */\n    tag_422:\n        /* \"#utility.yul\":16072:16074   */\n      0x20\n        /* \"#utility.yul\":16064:16070   */\n      dup3\n        /* \"#utility.yul\":16061:16075   */\n      lt\n        /* \"#utility.yul\":16041:16059   */\n      dup2\n        /* \"#utility.yul\":16038:16076   */\n      sub\n        /* \"#utility.yul\":16035:16119   */\n      tag_423\n      jumpi\n        /* \"#utility.yul\":16091:16109   */\n      tag_424\n      tag_232\n      jump\t// in\n    tag_424:\n        /* \"#utility.yul\":16035:16119   */\n    tag_423:\n        /* \"#utility.yul\":15856:16125   */\n      pop\n        /* \"#utility.yul\":15805:16125   */\n      swap2\n      swap1\n      pop\n      jump\t// out\n        /* \"#utility.yul\":16131:16303   */\n    tag_233:\n        /* \"#utility.yul\":16271:16295   */\n      0x796f752068617665206e6f742074686520726967687400000000000000000000\n        /* \"#utility.yul\":16267:16268   */\n      0x00\n        /* \"#utility.yul\":16259:16265   */\n      dup3\n        /* \"#utility.yul\":16255:16269   */\n      add\n        /* \"#utility.yul\":16248:16296   */\n      mstore\n        /* \"#utility.yul\":16131:16303   */\n      pop\n      jump\t// out\n        /* \"#utility.yul\":16309:16675   */\n    tag_234:\n        /* \"#utility.yul\":16451:16454   */\n      0x00\n        /* \"#utility.yul\":16472:16539   */\n      tag_427\n        /* \"#utility.yul\":16536:16538   */\n      0x16\n        /* \"#utility.yul\":16531:16534   */\n      dup4\n        /* \"#utility.yul\":16472:16539   */\n      tag_196\n      jump\t// in\n    tag_427:\n        /* \"#utility.yul\":16465:16539   */\n      swap2\n      pop\n        /* \"#utility.yul\":16548:16641   */\n      tag_428\n        /* \"#utility.yul\":16637:16640   */\n      dup3\n        /* \"#utility.yul\":16548:16641   */\n      tag_233\n      jump\t// in\n    tag_428:\n        /* \"#utility.yul\":16666:16668   */\n      0x20\n        /* \"#utility.yul\":16661:16664   */\n      dup3\n        /* \"#utility.yul\":16657:16669   */\n      add\n        /* \"#utility.yul\":16650:16669   */\n      swap1\n      pop\n        /* \"#utility.yul\":16309:16675   */\n      swap2\n      swap1\n      pop\n      jump\t// out\n        /* \"#utility.yul\":16681:17100   */\n    tag_113:\n        /* \"#utility.yul\":16847:16851   */\n      0x00\n        /* \"#utility.yul\":16885:16887   */\n      0x20\n        /* \"#utility.yul\":16874:16883   */\n      dup3\n        /* \"#utility.yul\":16870:16888   */\n      add\n        /* \"#utility.yul\":16862:16888   */\n      swap1\n      pop\n        /* \"#utility.yul\":16934:16943   */\n      dup2\n        /* \"#utility.yul\":16928:16932   */\n      dup2\n        /* \"#utility.yul\":16924:16944   */\n      sub\n        /* \"#utility.yul\":16920:16921   */\n      0x00\n        /* \"#utility.yul\":16909:16918   */\n      dup4\n        /* \"#utility.yul\":16905:16922   */\n      add\n        /* \"#utility.yul\":16898:16945   */\n      mstore\n        /* \"#utility.yul\":16962:17093   */\n      tag_430\n        /* \"#utility.yul\":17088:17092   */\n      dup2\n        /* \"#utility.yul\":16962:17093   */\n      tag_234\n      jump\t// in\n    tag_430:\n        /* \"#utility.yul\":16954:17093   */\n      swap1\n      pop\n        /* \"#utility.yul\":16681:17100   */\n      swap2\n      swap1\n      pop\n      jump\t// out\n        /* \"#utility.yul\":17106:17247   */\n    tag_235:\n        /* \"#utility.yul\":17155:17159   */\n      0x00\n        /* \"#utility.yul\":17178:17181   */\n      dup2\n        /* \"#utility.yul\":17170:17181   */\n      swap1\n      pop\n        /* \"#utility.yul\":17201:17204   */\n      dup2\n        /* \"#utility.yul\":17198:17199   */\n      0x00\n        /* \"#utility.yul\":17191:17205   */\n      mstore\n        /* \"#utility.yul\":17235:17239   */\n      0x20\n        /* \"#utility.yul\":17232:17233   */\n      0x00\n        /* \"#utility.yul\":17222:17240   */\n      keccak256\n        /* \"#utility.yul\":17214:17240   */\n      swap1\n      pop\n        /* \"#utility.yul\":17106:17247   */\n      swap2\n      swap1\n      pop\n      jump\t// out\n        /* \"#utility.yul\":17253:17346   */\n    tag_236:\n        /* \"#utility.yul\":17290:17296   */\n      0x00\n        /* \"#utility.yul\":17337:17339   */\n      0x20\n        /* \"#utility.yul\":17332:17334   */\n      0x1f\n        /* \"#utility.yul\":17325:17330   */\n      dup4\n        /* \"#utility.yul\":17321:17335   */\n      add\n        /* \"#utility.yul\":17317:17340   */\n      div\n        /* \"#utility.yul\":17307:17340   */\n      swap1\n      pop\n        /* \"#utility.yul\":17253:17346   */\n      swap2\n      swap1\n      pop\n      jump\t// out\n        /* \"#utility.yul\":17352:17459   */\n    tag_237:\n        /* \"#utility.yul\":17396:17404   */\n      0x00\n        /* \"#utility.yul\":17446:17451   */\n      dup3\n        /* \"#utility.yul\":17440:17444   */\n      dup3\n        /* \"#utility.yul\":17436:17452   */\n      shl\n        /* \"#utility.yul\":17415:17452   */\n      swap1\n      pop\n        /* \"#utility.yul\":17352:17459   */\n      swap3\n      swap2\n      pop\n      pop\n      jump\t// out\n        /* \"#utility.yul\":17465:17858   */\n    tag_238:\n        /* \"#utility.yul\":17534:17540   */\n      0x00\n        /* \"#utility.yul\":17584:17585   */\n      0x08\n        /* \"#utility.yul\":17572:17582   */\n      dup4\n        /* \"#utility.yul\":17568:17586   */\n      mul\n        /* \"#utility.yul\":17607:17704   */\n      tag_435\n        /* \"#utility.yul\":17637:17703   */\n      0xffffffffffffffffffffffffffffffffffffffffffffffffffffffffffffffff\n        /* \"#utility.yul\":17626:17635   */\n      dup3\n        /* \"#utility.yul\":17607:17704   */\n      tag_237\n      jump\t// in\n    tag_435:\n        /* \"#utility.yul\":17725:17764   */\n      tag_436\n        /* \"#utility.yul\":17755:17763   */\n      dup7\n        /* \"#utility.yul\":17744:17753   */\n      dup4\n        /* \"#utility.yul\":17725:17764   */\n      tag_237\n      jump\t// in\n    tag_436:\n        /* \"#utility.yul\":17713:17764   */\n      swap6\n      pop\n        /* \"#utility.yul\":17797:17801   */\n      dup1\n        /* \"#utility.yul\":17793:17802   */\n      not\n        /* \"#utility.yul\":17786:17791   */\n      dup5\n        /* \"#utility.yul\":17782:17803   */\n      and\n        /* \"#utility.yul\":17773:17803   */\n      swap4\n      pop\n        /* \"#utility.yul\":17846:17850   */\n      dup1\n        /* \"#utility.yul\":17836:17844   */\n      dup7\n        /* \"#utility.yul\":17832:17851   */\n      and\n        /* \"#utility.yul\":17825:17830   */\n      dup5\n        /* \"#utility.yul\":17822:17852   */\n      or\n        /* \"#utility.yul\":17812:17852   */\n      swap3\n      pop\n        /* \"#utility.yul\":17541:17858   */\n      pop\n      pop\n        /* \"#utility.yul\":17465:17858   */\n      swap4\n      swap3\n      pop\n      pop\n      pop\n      jump\t// out\n        /* \"#utility.yul\":17864:17924   */\n    tag_239:\n        /* \"#utility.yul\":17892:17895   */\n      0x00\n        /* \"#utility.yul\":17913:17918   */\n      dup2\n        /* \"#utility.yul\":17906:17918   */\n      swap1\n      pop\n        /* \"#utility.yul\":17864:17924   */\n      swap2\n      swap1\n      pop\n      jump\t// out\n        /* \"#utility.yul\":17930:18072   */\n    tag_240:\n        /* \"#utility.yul\":17980:17989   */\n      0x00\n        /* \"#utility.yul\":18013:18066   */\n      tag_439\n        /* \"#utility.yul\":18031:18065   */\n      tag_440\n        /* \"#utility.yul\":18040:18064   */\n      tag_441\n        /* \"#utility.yul\":18058:18063   */\n      dup5\n        /* \"#utility.yul\":18040:18064   */\n      tag_202\n      jump\t// in\n    tag_441:\n        /* \"#utility.yul\":18031:18065   */\n      tag_239\n      jump\t// in\n    tag_440:\n        /* \"#utility.yul\":18013:18066   */\n      tag_202\n      jump\t// in\n    tag_439:\n        /* \"#utility.yul\":18000:18066   */\n      swap1\n      pop\n        /* \"#utility.yul\":17930:18072   */\n      swap2\n      swap1\n      pop\n      jump\t// out\n        /* \"#utility.yul\":18078:18153   */\n    tag_241:\n        /* \"#utility.yul\":18121:18124   */\n      0x00\n        /* \"#utility.yul\":18142:18147   */\n      dup2\n        /* \"#utility.yul\":18135:18147   */\n      swap1\n      pop\n        /* \"#utility.yul\":18078:18153   */\n      swap2\n      swap1\n      pop\n      jump\t// out\n        /* \"#utility.yul\":18159:18428   */\n    tag_242:\n        /* \"#utility.yul\":18269:18308   */\n      tag_444\n        /* \"#utility.yul\":18300:18307   */\n      dup4\n        /* \"#utility.yul\":18269:18308   */\n      tag_240\n      jump\t// in\n    tag_444:\n        /* \"#utility.yul\":18330:18421   */\n      tag_445\n        /* \"#utility.yul\":18379:18420   */\n      tag_446\n        /* \"#utility.yul\":18403:18419   */\n      dup3\n        /* \"#utility.yul\":18379:18420   */\n      tag_241\n      jump\t// in\n    tag_446:\n        /* \"#utility.yul\":18371:18377   */\n      dup5\n        /* \"#utility.yul\":18364:18368   */\n      dup5\n        /* \"#utility.yul\":18358:18369   */\n      sload\n        /* \"#utility.yul\":18330:18421   */\n      tag_238\n      jump\t// in\n    tag_445:\n        /* \"#utility.yul\":18324:18328   */\n      dup3\n        /* \"#utility.yul\":18317:18422   */\n      sstore\n        /* \"#utility.yul\":18235:18428   */\n      pop\n        /* \"#utility.yul\":18159:18428   */\n      pop\n      pop\n      pop\n      jump\t// out\n        /* \"#utility.yul\":18434:18507   */\n    tag_243:\n        /* \"#utility.yul\":18479:18482   */\n      0x00\n        /* \"#utility.yul\":18434:18507   */\n      swap1\n      jump\t// out\n        /* \"#utility.yul\":18513:18702   */\n    tag_244:\n        /* \"#utility.yul\":18590:18622   */\n      tag_449\n      tag_243\n      jump\t// in\n    tag_449:\n        /* \"#utility.yul\":18631:18696   */\n      tag_450\n        /* \"#utility.yul\":18689:18695   */\n      dup2\n        /* \"#utility.yul\":18681:18687   */\n      dup5\n        /* \"#utility.yul\":18675:18679   */\n      dup5\n        /* \"#utility.yul\":18631:18696   */\n      tag_242\n      jump\t// in\n    tag_450:\n        /* \"#utility.yul\":18566:18702   */\n      pop\n        /* \"#utility.yul\":18513:18702   */\n      pop\n      pop\n      jump\t// out\n        /* \"#utility.yul\":18708:18894   */\n    tag_245:\n        /* \"#utility.yul\":18768:18888   */\n    tag_452:\n        /* \"#utility.yul\":18785:18788   */\n      dup2\n        /* \"#utility.yul\":18778:18783   */\n      dup2\n        /* \"#utility.yul\":18775:18789   */\n      lt\n        /* \"#utility.yul\":18768:18888   */\n      iszero\n      tag_454\n      jumpi\n        /* \"#utility.yul\":18839:18878   */\n      tag_455\n        /* \"#utility.yul\":18876:18877   */\n      0x00\n        /* \"#utility.yul\":18869:18874   */\n      dup3\n        /* \"#utility.yul\":18839:18878   */\n      tag_244\n      jump\t// in\n    tag_455:\n        /* \"#utility.yul\":18812:18813   */\n      0x01\n        /* \"#utility.yul\":18805:18810   */\n      dup2\n        /* \"#utility.yul\":18801:18814   */\n      add\n        /* \"#utility.yul\":18792:18814   */\n      swap1\n      pop\n        /* \"#utility.yul\":18768:18888   */\n      jump(tag_452)\n    tag_454:\n        /* \"#utility.yul\":18708:18894   */\n      pop\n      pop\n      jump\t// out\n        /* \"#utility.yul\":18900:19443   */\n    tag_246:\n        /* \"#utility.yul\":19001:19003   */\n      0x1f\n        /* \"#utility.yul\":18996:18999   */\n      dup3\n        /* \"#utility.yul\":18993:19004   */\n      gt\n        /* \"#utility.yul\":18990:19436   */\n      iszero\n      tag_457\n      jumpi\n        /* \"#utility.yul\":19035:19073   */\n      tag_458\n        /* \"#utility.yul\":19067:19072   */\n      dup2\n        /* \"#utility.yul\":19035:19073   */\n      tag_235\n      jump\t// in\n    tag_458:\n        /* \"#utility.yul\":19119:19148   */\n      tag_459\n        /* \"#utility.yul\":19137:19147   */\n      dup5\n        /* \"#utility.yul\":19119:19148   */\n      tag_236\n      jump\t// in\n    tag_459:\n        /* \"#utility.yul\":19109:19117   */\n      dup2\n        /* \"#utility.yul\":19105:19149   */\n      add\n        /* \"#utility.yul\":19302:19304   */\n      0x20\n        /* \"#utility.yul\":19290:19300   */\n      dup6\n        /* \"#utility.yul\":19287:19305   */\n      lt\n        /* \"#utility.yul\":19284:19333   */\n      iszero\n      tag_460\n      jumpi\n        /* \"#utility.yul\":19323:19331   */\n      dup2\n        /* \"#utility.yul\":19308:19331   */\n      swap1\n      pop\n        /* \"#utility.yul\":19284:19333   */\n    tag_460:\n        /* \"#utility.yul\":19346:19426   */\n      tag_461\n        /* \"#utility.yul\":19402:19424   */\n      tag_462\n        /* \"#utility.yul\":19420:19423   */\n      dup6\n        /* \"#utility.yul\":19402:19424   */\n      tag_236\n      jump\t// in\n    tag_462:\n        /* \"#utility.yul\":19392:19400   */\n      dup4\n        /* \"#utility.yul\":19388:19425   */\n      add\n        /* \"#utility.yul\":19375:19386   */\n      dup3\n        /* \"#utility.yul\":19346:19426   */\n      tag_245\n      jump\t// in\n    tag_461:\n        /* \"#utility.yul\":19005:19436   */\n      pop\n      pop\n        /* \"#utility.yul\":18990:19436   */\n    tag_457:\n        /* \"#utility.yul\":18900:19443   */\n      pop\n      pop\n      pop\n      jump\t// out\n        /* \"#utility.yul\":19449:19566   */\n    tag_247:\n        /* \"#utility.yul\":19503:19511   */\n      0x00\n        /* \"#utility.yul\":19553:19558   */\n      dup3\n        /* \"#utility.yul\":19547:19551   */\n      dup3\n        /* \"#utility.yul\":19543:19559   */\n      shr\n        /* \"#utility.yul\":19522:19559   */\n      swap1\n      pop\n        /* \"#utility.yul\":19449:19566   */\n      swap3\n      swap2\n      pop\n      pop\n      jump\t// out\n        /* \"#utility.yul\":19572:19741   */\n    tag_248:\n        /* \"#utility.yul\":19616:19622   */\n      0x00\n        /* \"#utility.yul\":19649:19700   */\n      tag_465\n        /* \"#utility.yul\":19697:19698   */\n      0x00\n        /* \"#utility.yul\":19693:19699   */\n      not\n        /* \"#utility.yul\":19685:19690   */\n      dup5\n        /* \"#utility.yul\":19682:19683   */\n      0x08\n        /* \"#utility.yul\":19678:19691   */\n      mul\n        /* \"#utility.yul\":19649:19700   */\n      tag_247\n      jump\t// in\n    tag_465:\n        /* \"#utility.yul\":19645:19701   */\n      not\n        /* \"#utility.yul\":19730:19734   */\n      dup1\n        /* \"#utility.yul\":19724:19728   */\n      dup4\n        /* \"#utility.yul\":19720:19735   */\n      and\n        /* \"#utility.yul\":19710:19735   */\n      swap2\n      pop\n        /* \"#utility.yul\":19623:19741   */\n      pop\n        /* \"#utility.yul\":19572:19741   */\n      swap3\n      swap2\n      pop\n      pop\n      jump\t// out\n        /* \"#utility.yul\":19746:20041   */\n    tag_249:\n        /* \"#utility.yul\":19822:19826   */\n      0x00\n        /* \"#utility.yul\":19968:19997   */\n      tag_467\n        /* \"#utility.yul\":19993:19996   */\n      dup4\n        /* \"#utility.yul\":19987:19991   */\n      dup4\n        /* \"#utility.yul\":19968:19997   */\n      tag_248\n      jump\t// in\n    tag_467:\n        /* \"#utility.yul\":19960:19997   */\n      swap2\n      pop\n        /* \"#utility.yul\":20030:20033   */\n      dup3\n        /* \"#utility.yul\":20027:20028   */\n      0x02\n        /* \"#utility.yul\":20023:20034   */\n      mul\n        /* \"#utility.yul\":20017:20021   */\n      dup3\n        /* \"#utility.yul\":20014:20035   */\n      or\n        /* \"#utility.yul\":20006:20035   */\n      swap1\n      pop\n        /* \"#utility.yul\":19746:20041   */\n      swap3\n      swap2\n      pop\n      pop\n      jump\t// out\n        /* \"#utility.yul\":20046:21441   */\n    tag_122:\n        /* \"#utility.yul\":20163:20200   */\n      tag_469\n        /* \"#utility.yul\":20196:20199   */\n      dup3\n        /* \"#utility.yul\":20163:20200   */\n      tag_195\n      jump\t// in\n    tag_469:\n        /* \"#utility.yul\":20265:20283   */\n      0xffffffffffffffff\n        /* \"#utility.yul\":20257:20263   */\n      dup2\n        /* \"#utility.yul\":20254:20284   */\n      gt\n        /* \"#utility.yul\":20251:20307   */\n      iszero\n      tag_470\n      jumpi\n        /* \"#utility.yul\":20287:20305   */\n      tag_471\n      tag_208\n      jump\t// in\n    tag_471:\n        /* \"#utility.yul\":20251:20307   */\n    tag_470:\n        /* \"#utility.yul\":20331:20369   */\n      tag_472\n        /* \"#utility.yul\":20363:20367   */\n      dup3\n        /* \"#utility.yul\":20357:20368   */\n      sload\n        /* \"#utility.yul\":20331:20369   */\n      tag_98\n      jump\t// in\n    tag_472:\n        /* \"#utility.yul\":20416:20483   */\n      tag_473\n        /* \"#utility.yul\":20476:20482   */\n      dup3\n        /* \"#utility.yul\":20468:20474   */\n      dup3\n        /* \"#utility.yul\":20462:20466   */\n      dup6\n        /* \"#utility.yul\":20416:20483   */\n      tag_246\n      jump\t// in\n    tag_473:\n        /* \"#utility.yul\":20510:20511   */\n      0x00\n        /* \"#utility.yul\":20534:20538   */\n      0x20\n        /* \"#utility.yul\":20521:20538   */\n      swap1\n      pop\n        /* \"#utility.yul\":20566:20568   */\n      0x1f\n        /* \"#utility.yul\":20558:20564   */\n      dup4\n        /* \"#utility.yul\":20555:20569   */\n      gt\n        /* \"#utility.yul\":20583:20584   */\n      0x01\n        /* \"#utility.yul\":20578:21196   */\n      dup2\n      eq\n      tag_475\n      jumpi\n        /* \"#utility.yul\":21240:21241   */\n      0x00\n        /* \"#utility.yul\":21257:21263   */\n      dup5\n        /* \"#utility.yul\":21254:21331   */\n      iszero\n      tag_476\n      jumpi\n        /* \"#utility.yul\":21306:21315   */\n      dup3\n        /* \"#utility.yul\":21301:21304   */\n      dup8\n        /* \"#utility.yul\":21297:21316   */\n      add\n        /* \"#utility.yul\":21291:21317   */\n      mload\n        /* \"#utility.yul\":21282:21317   */\n      swap1\n      pop\n        /* \"#utility.yul\":21254:21331   */\n    tag_476:\n        /* \"#utility.yul\":21357:21424   */\n      tag_477\n        /* \"#utility.yul\":21417:21423   */\n      dup6\n        /* \"#utility.yul\":21410:21415   */\n      dup3\n        /* \"#utility.yul\":21357:21424   */\n      tag_249\n      jump\t// in\n    tag_477:\n        /* \"#utility.yul\":21351:21355   */\n      dup7\n        /* \"#utility.yul\":21344:21425   */\n      sstore\n        /* \"#utility.yul\":21213:21435   */\n      pop\n        /* \"#utility.yul\":20548:21435   */\n      jump(tag_474)\n        /* \"#utility.yul\":20578:21196   */\n    tag_475:\n        /* \"#utility.yul\":20630:20634   */\n      0x1f\n        /* \"#utility.yul\":20626:20635   */\n      not\n        /* \"#utility.yul\":20618:20624   */\n      dup5\n        /* \"#utility.yul\":20614:20636   */\n      and\n        /* \"#utility.yul\":20664:20701   */\n      tag_478\n        /* \"#utility.yul\":20696:20700   */\n      dup7\n        /* \"#utility.yul\":20664:20701   */\n      tag_235\n      jump\t// in\n    tag_478:\n        /* \"#utility.yul\":20723:20724   */\n      0x00\n        /* \"#utility.yul\":20737:20945   */\n    tag_479:\n        /* \"#utility.yul\":20751:20758   */\n      dup3\n        /* \"#utility.yul\":20748:20749   */\n      dup2\n        /* \"#utility.yul\":20745:20759   */\n      lt\n        /* \"#utility.yul\":20737:20945   */\n      iszero\n      tag_481\n      jumpi\n        /* \"#utility.yul\":20830:20839   */\n      dup5\n        /* \"#utility.yul\":20825:20828   */\n      dup10\n        /* \"#utility.yul\":20821:20840   */\n      add\n        /* \"#utility.yul\":20815:20841   */\n      mload\n        /* \"#utility.yul\":20807:20813   */\n      dup3\n        /* \"#utility.yul\":20800:20842   */\n      sstore\n        /* \"#utility.yul\":20881:20882   */\n      0x01\n        /* \"#utility.yul\":20873:20879   */\n      dup3\n        /* \"#utility.yul\":20869:20883   */\n      add\n        /* \"#utility.yul\":20859:20883   */\n      swap2\n      pop\n        /* \"#utility.yul\":20928:20930   */\n      0x20\n        /* \"#utility.yul\":20917:20926   */\n      dup6\n        /* \"#utility.yul\":20913:20931   */\n      add\n        /* \"#utility.yul\":20900:20931   */\n      swap5\n      pop\n        /* \"#utility.yul\":20774:20778   */\n      0x20\n        /* \"#utility.yul\":20771:20772   */\n      dup2\n        /* \"#utility.yul\":20767:20779   */\n      add\n        /* \"#utility.yul\":20762:20779   */\n      swap1\n      pop\n        /* \"#utility.yul\":20737:20945   */\n      jump(tag_479)\n    tag_481:\n        /* \"#utility.yul\":20973:20979   */\n      dup7\n        /* \"#utility.yul\":20964:20971   */\n      dup4\n        /* \"#utility.yul\":20961:20980   */\n      lt\n        /* \"#utility.yul\":20958:21137   */\n      iszero\n      tag_482\n      jumpi\n        /* \"#utility.yul\":21031:21040   */\n      dup5\n        /* \"#utility.yul\":21026:21029   */\n      dup10\n        /* \"#utility.yul\":21022:21041   */\n      add\n        /* \"#utility.yul\":21016:21042   */\n      mload\n        /* \"#utility.yul\":21074:21122   */\n      tag_483\n        /* \"#utility.yul\":21116:21120   */\n      0x1f\n        /* \"#utility.yul\":21108:21114   */\n      dup10\n        /* \"#utility.yul\":21104:21121   */\n      and\n        /* \"#utility.yul\":21093:21102   */\n      dup3\n        /* \"#utility.yul\":21074:21122   */\n      tag_248\n      jump\t// in\n    tag_483:\n        /* \"#utility.yul\":21066:21072   */\n      dup4\n        /* \"#utility.yul\":21059:21123   */\n      sstore\n        /* \"#utility.yul\":20981:21137   */\n      pop\n        /* \"#utility.yul\":20958:21137   */\n    tag_482:\n        /* \"#utility.yul\":21183:21184   */\n      0x01\n        /* \"#utility.yul\":21179:21180   */\n      0x02\n        /* \"#utility.yul\":21171:21177   */\n      dup9\n        /* \"#utility.yul\":21167:21181   */\n      mul\n        /* \"#utility.yul\":21163:21185   */\n      add\n        /* \"#utility.yul\":21157:21161   */\n      dup9\n        /* \"#utility.yul\":21150:21186   */\n      sstore\n        /* \"#utility.yul\":20585:21196   */\n      pop\n      pop\n      pop\n        /* \"#utility.yul\":20548:21435   */\n    tag_474:\n      pop\n        /* \"#utility.yul\":20138:21441   */\n      pop\n      pop\n      pop\n        /* \"#utility.yul\":20046:21441   */\n      pop\n      pop\n      jump\t// out\n        /* \"#utility.yul\":21447:21619   */\n    tag_250:\n        /* \"#utility.yul\":21587:21611   */\n      0x74686520636f696e206973206e6f742065786973747300000000000000000000\n        /* \"#utility.yul\":21583:21584   */\n      0x00\n        /* \"#utility.yul\":21575:21581   */\n      dup3\n        /* \"#utility.yul\":21571:21585   */\n      add\n        /* \"#utility.yul\":21564:21612   */\n      mstore\n        /* \"#utility.yul\":21447:21619   */\n      pop\n      jump\t// out\n        /* \"#utility.yul\":21625:21991   */\n    tag_251:\n        /* \"#utility.yul\":21767:21770   */\n      0x00\n        /* \"#utility.yul\":21788:21855   */\n      tag_486\n        /* \"#utility.yul\":21852:21854   */\n      0x16\n        /* \"#utility.yul\":21847:21850   */\n      dup4\n        /* \"#utility.yul\":21788:21855   */\n      tag_196\n      jump\t// in\n    tag_486:\n        /* \"#utility.yul\":21781:21855   */\n      swap2\n      pop\n        /* \"#utility.yul\":21864:21957   */\n      tag_487\n        /* \"#utility.yul\":21953:21956   */\n      dup3\n        /* \"#utility.yul\":21864:21957   */\n      tag_250\n      jump\t// in\n    tag_487:\n        /* \"#utility.yul\":21982:21984   */\n      0x20\n        /* \"#utility.yul\":21977:21980   */\n      dup3\n        /* \"#utility.yul\":21973:21985   */\n      add\n        /* \"#utility.yul\":21966:21985   */\n      swap1\n      pop\n        /* \"#utility.yul\":21625:21991   */\n      swap2\n      swap1\n      pop\n      jump\t// out\n        /* \"#utility.yul\":21997:22416   */\n    tag_130:\n        /* \"#utility.yul\":22163:22167   */\n      0x00\n        /* \"#utility.yul\":22201:22203   */\n      0x20\n        /* \"#utility.yul\":22190:22199   */\n      dup3\n        /* \"#utility.yul\":22186:22204   */\n      add\n        /* \"#utility.yul\":22178:22204   */\n      swap1\n      pop\n        /* \"#utility.yul\":22250:22259   */\n      dup2\n        /* \"#utility.yul\":22244:22248   */\n      dup2\n        /* \"#utility.yul\":22240:22260   */\n      sub\n        /* \"#utility.yul\":22236:22237   */\n      0x00\n        /* \"#utility.yul\":22225:22234   */\n      dup4\n        /* \"#utility.yul\":22221:22238   */\n      add\n        /* \"#utility.yul\":22214:22261   */\n      mstore\n        /* \"#utility.yul\":22278:22409   */\n      tag_489\n        /* \"#utility.yul\":22404:22408   */\n      dup2\n        /* \"#utility.yul\":22278:22409   */\n      tag_251\n      jump\t// in\n    tag_489:\n        /* \"#utility.yul\":22270:22409   */\n      swap1\n      pop\n        /* \"#utility.yul\":21997:22416   */\n      swap2\n      swap1\n      pop\n      jump\t// out\n        /* \"#utility.yul\":22422:22604   */\n    tag_252:\n        /* \"#utility.yul\":22562:22596   */\n      0x74686520636f696e2073636f7065206973206e6f74206a757374696669656420\n        /* \"#utility.yul\":22558:22559   */\n      0x00\n        /* \"#utility.yul\":22550:22556   */\n      dup3\n        /* \"#utility.yul\":22546:22560   */\n      add\n        /* \"#utility.yul\":22539:22597   */\n      mstore\n        /* \"#utility.yul\":22422:22604   */\n      pop\n      jump\t// out\n        /* \"#utility.yul\":22610:22976   */\n    tag_253:\n        /* \"#utility.yul\":22752:22755   */\n      0x00\n        /* \"#utility.yul\":22773:22840   */\n      tag_492\n        /* \"#utility.yul\":22837:22839   */\n      0x20\n        /* \"#utility.yul\":22832:22835   */\n      dup4\n        /* \"#utility.yul\":22773:22840   */\n      tag_196\n      jump\t// in\n    tag_492:\n        /* \"#utility.yul\":22766:22840   */\n      swap2\n      pop\n        /* \"#utility.yul\":22849:22942   */\n      tag_493\n        /* \"#utility.yul\":22938:22941   */\n      dup3\n        /* \"#utility.yul\":22849:22942   */\n      tag_252\n      jump\t// in\n    tag_493:\n        /* \"#utility.yul\":22967:22969   */\n      0x20\n        /* \"#utility.yul\":22962:22965   */\n      dup3\n        /* \"#utility.yul\":22958:22970   */\n      add\n        /* \"#utility.yul\":22951:22970   */\n      swap1\n      pop\n        /* \"#utility.yul\":22610:22976   */\n      swap2\n      swap1\n      pop\n      jump\t// out\n        /* \"#utility.yul\":22982:23401   */\n    tag_139:\n        /* \"#utility.yul\":23148:23152   */\n      0x00\n        /* \"#utility.yul\":23186:23188   */\n      0x20\n        /* \"#utility.yul\":23175:23184   */\n      dup3\n        /* \"#utility.yul\":23171:23189   */\n      add\n        /* \"#utility.yul\":23163:23189   */\n      swap1\n      pop\n        /* \"#utility.yul\":23235:23244   */\n      dup2\n        /* \"#utility.yul\":23229:23233   */\n      dup2\n        /* \"#utility.yul\":23225:23245   */\n      sub\n        /* \"#utility.yul\":23221:23222   */\n      0x00\n        /* \"#utility.yul\":23210:23219   */\n      dup4\n        /* \"#utility.yul\":23206:23223   */\n      add\n        /* \"#utility.yul\":23199:23246   */\n      mstore\n        /* \"#utility.yul\":23263:23394   */\n      tag_495\n        /* \"#utility.yul\":23389:23393   */\n      dup2\n        /* \"#utility.yul\":23263:23394   */\n      tag_253\n      jump\t// in\n    tag_495:\n        /* \"#utility.yul\":23255:23394   */\n      swap1\n      pop\n        /* \"#utility.yul\":22982:23401   */\n      swap2\n      swap1\n      pop\n      jump\t// out\n        /* \"#utility.yul\":23407:23586   */\n    tag_254:\n        /* \"#utility.yul\":23547:23578   */\n      0x74686520636f696e206973202065786973747320696e206d61726b6574000000\n        /* \"#utility.yul\":23543:23544   */\n      0x00\n        /* \"#utility.yul\":23535:23541   */\n      dup3\n        /* \"#utility.yul\":23531:23545   */\n      add\n        /* \"#utility.yul\":23524:23579   */\n      mstore\n        /* \"#utility.yul\":23407:23586   */\n      pop\n      jump\t// out\n        /* \"#utility.yul\":23592:23958   */\n    tag_255:\n        /* \"#utility.yul\":23734:23737   */\n      0x00\n        /* \"#utility.yul\":23755:23822   */\n      tag_498\n        /* \"#utility.yul\":23819:23821   */\n      0x1d\n        /* \"#utility.yul\":23814:23817   */\n      dup4\n        /* \"#utility.yul\":23755:23822   */\n      tag_196\n      jump\t// in\n    tag_498:\n        /* \"#utility.yul\":23748:23822   */\n      swap2\n      pop\n        /* \"#utility.yul\":23831:23924   */\n      tag_499\n        /* \"#utility.yul\":23920:23923   */\n      dup3\n        /* \"#utility.yul\":23831:23924   */\n      tag_254\n      jump\t// in\n    tag_499:\n        /* \"#utility.yul\":23949:23951   */\n      0x20\n        /* \"#utility.yul\":23944:23947   */\n      dup3\n        /* \"#utility.yul\":23940:23952   */\n      add\n        /* \"#utility.yul\":23933:23952   */\n      swap1\n      pop\n        /* \"#utility.yul\":23592:23958   */\n      swap2\n      swap1\n      pop\n      jump\t// out\n        /* \"#utility.yul\":23964:24383   */\n    tag_148:\n        /* \"#utility.yul\":24130:24134   */\n      0x00\n        /* \"#utility.yul\":24168:24170   */\n      0x20\n        /* \"#utility.yul\":24157:24166   */\n      dup3\n        /* \"#utility.yul\":24153:24171   */\n      add\n        /* \"#utility.yul\":24145:24171   */\n      swap1\n      pop\n        /* \"#utility.yul\":24217:24226   */\n      dup2\n        /* \"#utility.yul\":24211:24215   */\n      dup2\n        /* \"#utility.yul\":24207:24227   */\n      sub\n        /* \"#utility.yul\":24203:24204   */\n      0x00\n        /* \"#utility.yul\":24192:24201   */\n      dup4\n        /* \"#utility.yul\":24188:24205   */\n      add\n        /* \"#utility.yul\":24181:24228   */\n      mstore\n        /* \"#utility.yul\":24245:24376   */\n      tag_501\n        /* \"#utility.yul\":24371:24375   */\n      dup2\n        /* \"#utility.yul\":24245:24376   */\n      tag_255\n      jump\t// in\n    tag_501:\n        /* \"#utility.yul\":24237:24376   */\n      swap1\n      pop\n        /* \"#utility.yul\":23964:24383   */\n      swap2\n      swap1\n      pop\n      jump\t// out\n        /* \"#utility.yul\":24389:24568   */\n    tag_256:\n        /* \"#utility.yul\":24529:24560   */\n      0x74686520636f696e2065786973747320696e20746865206d61726b6574000000\n        /* \"#utility.yul\":24525:24526   */\n      0x00\n        /* \"#utility.yul\":24517:24523   */\n      dup3\n        /* \"#utility.yul\":24513:24527   */\n      add\n        /* \"#utility.yul\":24506:24561   */\n      mstore\n        /* \"#utility.yul\":24389:24568   */\n      pop\n      jump\t// out\n        /* \"#utility.yul\":24574:24940   */\n    tag_257:\n        /* \"#utility.yul\":24716:24719   */\n      0x00\n        /* \"#utility.yul\":24737:24804   */\n      tag_504\n        /* \"#utility.yul\":24801:24803   */\n      0x1d\n        /* \"#utility.yul\":24796:24799   */\n      dup4\n        /* \"#utility.yul\":24737:24804   */\n      tag_196\n      jump\t// in\n    tag_504:\n        /* \"#utility.yul\":24730:24804   */\n      swap2\n      pop\n        /* \"#utility.yul\":24813:24906   */\n      tag_505\n        /* \"#utility.yul\":24902:24905   */\n      dup3\n        /* \"#utility.yul\":24813:24906   */\n      tag_256\n      jump\t// in\n    tag_505:\n        /* \"#utility.yul\":24931:24933   */\n      0x20\n        /* \"#utility.yul\":24926:24929   */\n      dup3\n        /* \"#utility.yul\":24922:24934   */\n      add\n        /* \"#utility.yul\":24915:24934   */\n      swap1\n      pop\n        /* \"#utility.yul\":24574:24940   */\n      swap2\n      swap1\n      pop\n      jump\t// out\n        /* \"#utility.yul\":24946:25365   */\n    tag_157:\n        /* \"#utility.yul\":25112:25116   */\n      0x00\n        /* \"#utility.yul\":25150:25152   */\n      0x20\n        /* \"#utility.yul\":25139:25148   */\n      dup3\n        /* \"#utility.yul\":25135:25153   */\n      add\n        /* \"#utility.yul\":25127:25153   */\n      swap1\n      pop\n        /* \"#utility.yul\":25199:25208   */\n      dup2\n        /* \"#utility.yul\":25193:25197   */\n      dup2\n        /* \"#utility.yul\":25189:25209   */\n      sub\n        /* \"#utility.yul\":25185:25186   */\n      0x00\n        /* \"#utility.yul\":25174:25183   */\n      dup4\n        /* \"#utility.yul\":25170:25187   */\n      add\n        /* \"#utility.yul\":25163:25210   */\n      mstore\n        /* \"#utility.yul\":25227:25358   */\n      tag_507\n        /* \"#utility.yul\":25353:25357   */\n      dup2\n        /* \"#utility.yul\":25227:25358   */\n      tag_257\n      jump\t// in\n    tag_507:\n        /* \"#utility.yul\":25219:25358   */\n      swap1\n      pop\n        /* \"#utility.yul\":24946:25365   */\n      swap2\n      swap1\n      pop\n      jump\t// out\n        /* \"#utility.yul\":25371:25548   */\n    tag_258:\n        /* \"#utility.yul\":25511:25540   */\n      0x74686520636f696e2065786973747320696e2074686520676174650000000000\n        /* \"#utility.yul\":25507:25508   */\n      0x00\n        /* \"#utility.yul\":25499:25505   */\n      dup3\n        /* \"#utility.yul\":25495:25509   */\n      add\n        /* \"#utility.yul\":25488:25541   */\n      mstore\n        /* \"#utility.yul\":25371:25548   */\n      pop\n      jump\t// out\n        /* \"#utility.yul\":25554:25920   */\n    tag_259:\n        /* \"#utility.yul\":25696:25699   */\n      0x00\n        /* \"#utility.yul\":25717:25784   */\n      tag_510\n        /* \"#utility.yul\":25781:25783   */\n      0x1b\n        /* \"#utility.yul\":25776:25779   */\n      dup4\n        /* \"#utility.yul\":25717:25784   */\n      tag_196\n      jump\t// in\n    tag_510:\n        /* \"#utility.yul\":25710:25784   */\n      swap2\n      pop\n        /* \"#utility.yul\":25793:25886   */\n      tag_511\n        /* \"#utility.yul\":25882:25885   */\n      dup3\n        /* \"#utility.yul\":25793:25886   */\n      tag_258\n      jump\t// in\n    tag_511:\n        /* \"#utility.yul\":25911:25913   */\n      0x20\n        /* \"#utility.yul\":25906:25909   */\n      dup3\n        /* \"#utility.yul\":25902:25914   */\n      add\n        /* \"#utility.yul\":25895:25914   */\n      swap1\n      pop\n        /* \"#utility.yul\":25554:25920   */\n      swap2\n      swap1\n      pop\n      jump\t// out\n        /* \"#utility.yul\":25926:26345   */\n    tag_160:\n        /* \"#utility.yul\":26092:26096   */\n      0x00\n        /* \"#utility.yul\":26130:26132   */\n      0x20\n        /* \"#utility.yul\":26119:26128   */\n      dup3\n        /* \"#utility.yul\":26115:26133   */\n      add\n        /* \"#utility.yul\":26107:26133   */\n      swap1\n      pop\n        /* \"#utility.yul\":26179:26188   */\n      dup2\n        /* \"#utility.yul\":26173:26177   */\n      dup2\n        /* \"#utility.yul\":26169:26189   */\n      sub\n        /* \"#utility.yul\":26165:26166   */\n      0x00\n        /* \"#utility.yul\":26154:26163   */\n      dup4\n        /* \"#utility.yul\":26150:26167   */\n      add\n        /* \"#utility.yul\":26143:26190   */\n      mstore\n        /* \"#utility.yul\":26207:26338   */\n      tag_513\n        /* \"#utility.yul\":26333:26337   */\n      dup2\n        /* \"#utility.yul\":26207:26338   */\n      tag_259\n      jump\t// in\n    tag_513:\n        /* \"#utility.yul\":26199:26338   */\n      swap1\n      pop\n        /* \"#utility.yul\":25926:26345   */\n      swap2\n      swap1\n      pop\n      jump\t// out\n\n    auxdata: 0xa2646970667358221220718ce05df8569ab42adb8c64433e279e292277fb16ffb5c96df98c93532baf0a64736f6c63430008100033\n}\n",
				"bytecode": {
					"linkReferences": {},
					"object": "60c06040523480156200001157600080fd5b506040516200346338038062003463833981810160405281019062000037919062000111565b8173ffffffffffffffffffffffffffffffffffffffff1660808173ffffffffffffffffffffffffffffffffffffffff16815250508073ffffffffffffffffffffffffffffffffffffffff1660a08173ffffffffffffffffffffffffffffffffffffffff1681525050505062000158565b600080fd5b600073ffffffffffffffffffffffffffffffffffffffff82169050919050565b6000620000d982620000ac565b9050919050565b620000eb81620000cc565b8114620000f757600080fd5b50565b6000815190506200010b81620000e0565b92915050565b600080604083850312156200012b576200012a620000a7565b5b60006200013b85828601620000fa565b92505060206200014e85828601620000fa565b9150509250929050565b60805160a0516132e56200017e6000396000610903015260006108df01526132e56000f3fe608060405234801561001057600080fd5b50600436106101215760003560e01c80635385cbf5116100ad578063cfcdca5211610071578063cfcdca521461030c578063e7e4093e14610328578063e8dd465514610344578063eaec011214610374578063f44e318a1461039057610121565b80635385cbf51461026c5780637c3e2f0214610288578063b20be2b4146102a4578063c1189bea146102c0578063cc0bf757146102dc57610121565b80633b830305116100f45780633b830305146101c8578063441eb548146101f857806347d0a63414610214578063492b7107146102325780634a91a3bb1461025057610121565b80631d3b8f671461012657806331ecdeb814610142578063328320bf1461017c578063385e4b7a146101ac575b600080fd5b610140600480360381019061013b91906125d0565b6103ac565b005b61015c600480360381019061015791906125d0565b61040a565b6040516101739b9a999897969594939291906126ec565b60405180910390f35b610196600480360381019061019191906125d0565b6105f5565b6040516101a391906127a5565b60405180910390f35b6101c660048036038101906101c191906125d0565b61064e565b005b6101e260048036038101906101dd91906125d0565b61077c565b6040516101ef91906127c0565b60405180910390f35b610212600480360381019061020d91906125d0565b6107af565b005b61021c6108dd565b60405161022991906127c0565b60405180910390f35b61023a610901565b60405161024791906127c0565b60405180910390f35b61026a60048036038101906102659190612ae2565b610925565b005b61028660048036038101906102819190612b2b565b610c51565b005b6102a2600480360381019061029d91906125d0565b610cb0565b005b6102be60048036038101906102b991906125d0565b610de1565b005b6102da60048036038101906102d59190612ae2565b610e3f565b005b6102f660048036038101906102f19190612b6b565b611188565b60405161030391906127c0565b60405180910390f35b61032660048036038101906103219190612b6b565b6111ca565b005b610342600480360381019061033d9190612ae2565b61155e565b005b61035e600480360381019061035991906125d0565b611b54565b60405161036b9190612d27565b60405180910390f35b61038e60048036038101906103899190612b6b565b611eb3565b005b6103aa60048036038101906103a59190612ae2565b612061565b005b6001600260008373ffffffffffffffffffffffffffffffffffffffff1673ffffffffffffffffffffffffffffffffffffffff16815260200190815260200160002060050160146101000a81548160ff02191690831515021790555050565b600260205280600052604060002060009150905080600001805461042d90612d78565b80601f016020809104026020016040519081016040528092919081815260200182805461045990612d78565b80156104a65780601f1061047b576101008083540402835291602001916104a6565b820191906000526020600020905b81548152906001019060200180831161048957829003601f168201915b5050505050908060010180546104bb90612d78565b80601f01602080910402602001604051908101604052809291908181526020018280546104e790612d78565b80156105345780601f1061050957610100808354040283529160200191610534565b820191906000526020600020905b81548152906001019060200180831161051757829003601f168201915b5050505050908060020160009054906101000a900460ff16908060020160019054906101000a900460ff16908060030154908060040154908060050160009054906101000a900473ffffffffffffffffffffffffffffffffffffffff16908060050160149054906101000a900460ff16908060050160159054906101000a900460ff16908060060160009054906101000a900473ffffffffffffffffffffffffffffffffffffffff16908060060160149054906101000a900460ff1690508b565b6000600260008373ffffffffffffffffffffffffffffffffffffffff1673ffffffffffffffffffffffffffffffffffffffff16815260200190815260200160002060050160149054906101000a900460ff169050919050565b3373ffffffffffffffffffffffffffffffffffffffff16600260008373ffffffffffffffffffffffffffffffffffffffff1673ffffffffffffffffffffffffffffffffffffffff16815260200190815260200160002060060160009054906101000a900473ffffffffffffffffffffffffffffffffffffffff1673ffffffffffffffffffffffffffffffffffffffff161461071e576040517f08c379a000000000000000000000000000000000000000000000000000000000815260040161071590612df5565b60405180910390fd5b6001600260008373ffffffffffffffffffffffffffffffffffffffff1673ffffffffffffffffffffffffffffffffffffffff16815260200190815260200160002060050160156101000a81548160ff02191690831515021790555050565b60006020528060005260406000206000915054906101000a900473ffffffffffffffffffffffffffffffffffffffff1681565b3373ffffffffffffffffffffffffffffffffffffffff16600260008373ffffffffffffffffffffffffffffffffffffffff1673ffffffffffffffffffffffffffffffffffffffff16815260200190815260200160002060060160009054906101000a900473ffffffffffffffffffffffffffffffffffffffff1673ffffffffffffffffffffffffffffffffffffffff161461087f576040517f08c379a000000000000000000000000000000000000000000000000000000000815260040161087690612df5565b60405180910390fd5b6000600260008373ffffffffffffffffffffffffffffffffffffffff1673ffffffffffffffffffffffffffffffffffffffff16815260200190815260200160002060050160156101000a81548160ff02191690831515021790555050565b7f000000000000000000000000000000000000000000000000000000000000000081565b7f000000000000000000000000000000000000000000000000000000000000000081565b600073ffffffffffffffffffffffffffffffffffffffff166000808360c0015173ffffffffffffffffffffffffffffffffffffffff1673ffffffffffffffffffffffffffffffffffffffff16815260200190815260200160002060009054906101000a900473ffffffffffffffffffffffffffffffffffffffff1673ffffffffffffffffffffffffffffffffffffffff16036109c057600080fd5b60008160e0019015159081151581525050600081610100019015159081151581525050600181610140019015159081151581525050600260008260c0015173ffffffffffffffffffffffffffffffffffffffff1673ffffffffffffffffffffffffffffffffffffffff16815260200190815260200160002060060160009054906101000a900473ffffffffffffffffffffffffffffffffffffffff1681610120019073ffffffffffffffffffffffffffffffffffffffff16908173ffffffffffffffffffffffffffffffffffffffff168152505080600260008360c0015173ffffffffffffffffffffffffffffffffffffffff1673ffffffffffffffffffffffffffffffffffffffff1681526020019081526020016000206000820151816000019081610aed9190612fc1565b506020820151816001019081610b039190612fc1565b5060408201518160020160006101000a81548160ff021916908360ff16021790555060608201518160020160016101000a81548160ff021916908360ff1602179055506080820151816003015560a0820151816004015560c08201518160050160006101000a81548173ffffffffffffffffffffffffffffffffffffffff021916908373ffffffffffffffffffffffffffffffffffffffff16021790555060e08201518160050160146101000a81548160ff0219169083151502179055506101008201518160050160156101000a81548160ff0219169083151502179055506101208201518160060160006101000a81548173ffffffffffffffffffffffffffffffffffffffff021916908373ffffffffffffffffffffffffffffffffffffffff1602179055506101408201518160060160146101000a81548160ff02191690831515021790555090505050565b80600260008473ffffffffffffffffffffffffffffffffffffffff1673ffffffffffffffffffffffffffffffffffffffff16815260200190815260200160002060020160006101000a81548160ff021916908360ff1602179055505050565b600073ffffffffffffffffffffffffffffffffffffffff166000808373ffffffffffffffffffffffffffffffffffffffff1673ffffffffffffffffffffffffffffffffffffffff16815260200190815260200160002060009054906101000a900473ffffffffffffffffffffffffffffffffffffffff1673ffffffffffffffffffffffffffffffffffffffff1603610d7d576040517f08c379a0000000000000000000000000000000000000000000000000000000008152600401610d74906130df565b60405180910390fd5b6000808273ffffffffffffffffffffffffffffffffffffffff1673ffffffffffffffffffffffffffffffffffffffff16815260200190815260200160002060006101000a81549073ffffffffffffffffffffffffffffffffffffffff021916905550565b6000600260008373ffffffffffffffffffffffffffffffffffffffff1673ffffffffffffffffffffffffffffffffffffffff16815260200190815260200160002060050160146101000a81548160ff02191690831515021790555050565b3373ffffffffffffffffffffffffffffffffffffffff16600260008360c0015173ffffffffffffffffffffffffffffffffffffffff1673ffffffffffffffffffffffffffffffffffffffff16815260200190815260200160002060060160009054906101000a900473ffffffffffffffffffffffffffffffffffffffff1673ffffffffffffffffffffffffffffffffffffffff1614610f13576040517f08c379a0000000000000000000000000000000000000000000000000000000008152600401610f0a90612df5565b60405180910390fd5b6004816040015160ff1614610f5d576040517f08c379a0000000000000000000000000000000000000000000000000000000008152600401610f549061314b565b60405180910390fd5b60008160e00190151590811515815250506000816101000190151590811515815250506001816101400190151590811515815250503381610120019073ffffffffffffffffffffffffffffffffffffffff16908173ffffffffffffffffffffffffffffffffffffffff168152505080600260008360c0015173ffffffffffffffffffffffffffffffffffffffff1673ffffffffffffffffffffffffffffffffffffffff16815260200190815260200160002060008201518160000190816110249190612fc1565b50602082015181600101908161103a9190612fc1565b5060408201518160020160006101000a81548160ff021916908360ff16021790555060608201518160020160016101000a81548160ff021916908360ff1602179055506080820151816003015560a0820151816004015560c08201518160050160006101000a81548173ffffffffffffffffffffffffffffffffffffffff021916908373ffffffffffffffffffffffffffffffffffffffff16021790555060e08201518160050160146101000a81548160ff0219169083151502179055506101008201518160050160156101000a81548160ff0219169083151502179055506101208201518160060160006101000a81548173ffffffffffffffffffffffffffffffffffffffff021916908373ffffffffffffffffffffffffffffffffffffffff1602179055506101408201518160060160146101000a81548160ff02191690831515021790555090505050565b60016020528160005260406000206020528060005260406000206000915091509054906101000a900473ffffffffffffffffffffffffffffffffffffffff1681565b600073ffffffffffffffffffffffffffffffffffffffff16600160008373ffffffffffffffffffffffffffffffffffffffff1673ffffffffffffffffffffffffffffffffffffffff16815260200190815260200160002060008473ffffffffffffffffffffffffffffffffffffffff1673ffffffffffffffffffffffffffffffffffffffff16815260200190815260200160002060009054906101000a900473ffffffffffffffffffffffffffffffffffffffff1673ffffffffffffffffffffffffffffffffffffffff16036112d5576040517f08c379a00000000000000000000000000000000000000000000000000000000081526004016112cc906130df565b60405180910390fd5b600073ffffffffffffffffffffffffffffffffffffffff166000808473ffffffffffffffffffffffffffffffffffffffff1673ffffffffffffffffffffffffffffffffffffffff16815260200190815260200160002060009054906101000a900473ffffffffffffffffffffffffffffffffffffffff1673ffffffffffffffffffffffffffffffffffffffff16146113a2576040517f08c379a0000000000000000000000000000000000000000000000000000000008152600401611399906131b7565b60405180910390fd5b600160008273ffffffffffffffffffffffffffffffffffffffff1673ffffffffffffffffffffffffffffffffffffffff16815260200190815260200160002060008373ffffffffffffffffffffffffffffffffffffffff1673ffffffffffffffffffffffffffffffffffffffff16815260200190815260200160002060009054906101000a900473ffffffffffffffffffffffffffffffffffffffff166000808473ffffffffffffffffffffffffffffffffffffffff1673ffffffffffffffffffffffffffffffffffffffff16815260200190815260200160002060006101000a81548173ffffffffffffffffffffffffffffffffffffffff021916908373ffffffffffffffffffffffffffffffffffffffff160217905550600160008273ffffffffffffffffffffffffffffffffffffffff1673ffffffffffffffffffffffffffffffffffffffff16815260200190815260200160002060008373ffffffffffffffffffffffffffffffffffffffff1673ffffffffffffffffffffffffffffffffffffffff16815260200190815260200160002060006101000a81549073ffffffffffffffffffffffffffffffffffffffff02191690555050565b60011515600260008360c0015173ffffffffffffffffffffffffffffffffffffffff1673ffffffffffffffffffffffffffffffffffffffff16815260200190815260200160002060060160149054906101000a900460ff161515146118ad573381610120019073ffffffffffffffffffffffffffffffffffffffff16908173ffffffffffffffffffffffffffffffffffffffff168152505060008160e001901515908115158152505060008161010001901515908115158152505060018161014001901515908115158152505080600260008360c0015173ffffffffffffffffffffffffffffffffffffffff1673ffffffffffffffffffffffffffffffffffffffff16815260200190815260200160002060008201518160000190816116849190612fc1565b50602082015181600101908161169a9190612fc1565b5060408201518160020160006101000a81548160ff021916908360ff16021790555060608201518160020160016101000a81548160ff021916908360ff1602179055506080820151816003015560a0820151816004015560c08201518160050160006101000a81548173ffffffffffffffffffffffffffffffffffffffff021916908373ffffffffffffffffffffffffffffffffffffffff16021790555060e08201518160050160146101000a81548160ff0219169083151502179055506101008201518160050160156101000a81548160ff0219169083151502179055506101208201518160060160006101000a81548173ffffffffffffffffffffffffffffffffffffffff021916908373ffffffffffffffffffffffffffffffffffffffff1602179055506101408201518160060160146101000a81548160ff0219169083151502179055509050508060c00151600160003373ffffffffffffffffffffffffffffffffffffffff1673ffffffffffffffffffffffffffffffffffffffff16815260200190815260200160002060008360c0015173ffffffffffffffffffffffffffffffffffffffff1673ffffffffffffffffffffffffffffffffffffffff16815260200190815260200160002060006101000a81548173ffffffffffffffffffffffffffffffffffffffff021916908373ffffffffffffffffffffffffffffffffffffffff160217905550611b51565b600073ffffffffffffffffffffffffffffffffffffffff166000808360c0015173ffffffffffffffffffffffffffffffffffffffff1673ffffffffffffffffffffffffffffffffffffffff16815260200190815260200160002060009054906101000a900473ffffffffffffffffffffffffffffffffffffffff1673ffffffffffffffffffffffffffffffffffffffff161461197e576040517f08c379a000000000000000000000000000000000000000000000000000000000815260040161197590613223565b60405180910390fd5b600073ffffffffffffffffffffffffffffffffffffffff16600160003373ffffffffffffffffffffffffffffffffffffffff1673ffffffffffffffffffffffffffffffffffffffff16815260200190815260200160002060008360c0015173ffffffffffffffffffffffffffffffffffffffff1673ffffffffffffffffffffffffffffffffffffffff16815260200190815260200160002060009054906101000a900473ffffffffffffffffffffffffffffffffffffffff1673ffffffffffffffffffffffffffffffffffffffff1614611a8d576040517f08c379a0000000000000000000000000000000000000000000000000000000008152600401611a849061328f565b60405180910390fd5b8060c00151600160003373ffffffffffffffffffffffffffffffffffffffff1673ffffffffffffffffffffffffffffffffffffffff16815260200190815260200160002060008360c0015173ffffffffffffffffffffffffffffffffffffffff1673ffffffffffffffffffffffffffffffffffffffff16815260200190815260200160002060006101000a81548173ffffffffffffffffffffffffffffffffffffffff021916908373ffffffffffffffffffffffffffffffffffffffff1602179055505b50565b611b5c6124cc565b60011515600260008473ffffffffffffffffffffffffffffffffffffffff1673ffffffffffffffffffffffffffffffffffffffff16815260200190815260200160002060060160149054906101000a900460ff16151514611bf2576040517f08c379a0000000000000000000000000000000000000000000000000000000008152600401611be9906130df565b60405180910390fd5b600260008373ffffffffffffffffffffffffffffffffffffffff1673ffffffffffffffffffffffffffffffffffffffff16815260200190815260200160002060405180610160016040529081600082018054611c4d90612d78565b80601f0160208091040260200160405190810160405280929190818152602001828054611c7990612d78565b8015611cc65780601f10611c9b57610100808354040283529160200191611cc6565b820191906000526020600020905b815481529060010190602001808311611ca957829003601f168201915b50505050508152602001600182018054611cdf90612d78565b80601f0160208091040260200160405190810160405280929190818152602001828054611d0b90612d78565b8015611d585780601f10611d2d57610100808354040283529160200191611d58565b820191906000526020600020905b815481529060010190602001808311611d3b57829003601f168201915b505050505081526020016002820160009054906101000a900460ff1660ff1660ff1681526020016002820160019054906101000a900460ff1660ff1660ff16815260200160038201548152602001600482015481526020016005820160009054906101000a900473ffffffffffffffffffffffffffffffffffffffff1673ffffffffffffffffffffffffffffffffffffffff1673ffffffffffffffffffffffffffffffffffffffff1681526020016005820160149054906101000a900460ff161515151581526020016005820160159054906101000a900460ff161515151581526020016006820160009054906101000a900473ffffffffffffffffffffffffffffffffffffffff1673ffffffffffffffffffffffffffffffffffffffff1673ffffffffffffffffffffffffffffffffffffffff1681526020016006820160149054906101000a900460ff1615151515815250509050919050565b600073ffffffffffffffffffffffffffffffffffffffff16600160008373ffffffffffffffffffffffffffffffffffffffff1673ffffffffffffffffffffffffffffffffffffffff16815260200190815260200160002060008473ffffffffffffffffffffffffffffffffffffffff1673ffffffffffffffffffffffffffffffffffffffff16815260200190815260200160002060009054906101000a900473ffffffffffffffffffffffffffffffffffffffff1673ffffffffffffffffffffffffffffffffffffffff1614611fbe576040517f08c379a0000000000000000000000000000000000000000000000000000000008152600401611fb5906130df565b60405180910390fd5b600160008273ffffffffffffffffffffffffffffffffffffffff1673ffffffffffffffffffffffffffffffffffffffff16815260200190815260200160002060008373ffffffffffffffffffffffffffffffffffffffff1673ffffffffffffffffffffffffffffffffffffffff16815260200190815260200160002060006101000a81549073ffffffffffffffffffffffffffffffffffffffff02191690555050565b60011515600260008360c0015173ffffffffffffffffffffffffffffffffffffffff1673ffffffffffffffffffffffffffffffffffffffff16815260200190815260200160002060060160149054906101000a900460ff16151514612372573381610120019073ffffffffffffffffffffffffffffffffffffffff16908173ffffffffffffffffffffffffffffffffffffffff168152505060008160e001901515908115158152505060008161010001901515908115158152505060018161014001901515908115158152505080600260008360c0015173ffffffffffffffffffffffffffffffffffffffff1673ffffffffffffffffffffffffffffffffffffffff16815260200190815260200160002060008201518160000190816121879190612fc1565b50602082015181600101908161219d9190612fc1565b5060408201518160020160006101000a81548160ff021916908360ff16021790555060608201518160020160016101000a81548160ff021916908360ff1602179055506080820151816003015560a0820151816004015560c08201518160050160006101000a81548173ffffffffffffffffffffffffffffffffffffffff021916908373ffffffffffffffffffffffffffffffffffffffff16021790555060e08201518160050160146101000a81548160ff0219169083151502179055506101008201518160050160156101000a81548160ff0219169083151502179055506101208201518160060160006101000a81548173ffffffffffffffffffffffffffffffffffffffff021916908373ffffffffffffffffffffffffffffffffffffffff1602179055506101408201518160060160146101000a81548160ff0219169083151502179055509050508060c001516000808360c0015173ffffffffffffffffffffffffffffffffffffffff1673ffffffffffffffffffffffffffffffffffffffff16815260200190815260200160002060006101000a81548173ffffffffffffffffffffffffffffffffffffffff021916908373ffffffffffffffffffffffffffffffffffffffff1602179055506124c9565b600073ffffffffffffffffffffffffffffffffffffffff166000808360c0015173ffffffffffffffffffffffffffffffffffffffff1673ffffffffffffffffffffffffffffffffffffffff16815260200190815260200160002060009054906101000a900473ffffffffffffffffffffffffffffffffffffffff1673ffffffffffffffffffffffffffffffffffffffff1614612443576040517f08c379a000000000000000000000000000000000000000000000000000000000815260040161243a90613223565b60405180910390fd5b8060c001516000808360c0015173ffffffffffffffffffffffffffffffffffffffff1673ffffffffffffffffffffffffffffffffffffffff16815260200190815260200160002060006101000a81548173ffffffffffffffffffffffffffffffffffffffff021916908373ffffffffffffffffffffffffffffffffffffffff1602179055505b50565b6040518061016001604052806060815260200160608152602001600060ff168152602001600060ff1681526020016000815260200160008152602001600073ffffffffffffffffffffffffffffffffffffffff168152602001600015158152602001600015158152602001600073ffffffffffffffffffffffffffffffffffffffff1681526020016000151581525090565b6000604051905090565b600080fd5b600080fd5b600073ffffffffffffffffffffffffffffffffffffffff82169050919050565b600061259d82612572565b9050919050565b6125ad81612592565b81146125b857600080fd5b50565b6000813590506125ca816125a4565b92915050565b6000602082840312156125e6576125e5612568565b5b60006125f4848285016125bb565b91505092915050565b600081519050919050565b600082825260208201905092915050565b60005b8381101561263757808201518184015260208101905061261c565b60008484015250505050565b6000601f19601f8301169050919050565b600061265f826125fd565b6126698185612608565b9350612679818560208601612619565b61268281612643565b840191505092915050565b600060ff82169050919050565b6126a38161268d565b82525050565b6000819050919050565b6126bc816126a9565b82525050565b6126cb81612592565b82525050565b60008115159050919050565b6126e6816126d1565b82525050565b6000610160820190508181036000830152612707818e612654565b9050818103602083015261271b818d612654565b905061272a604083018c61269a565b612737606083018b61269a565b612744608083018a6126b3565b61275160a08301896126b3565b61275e60c08301886126c2565b61276b60e08301876126dd565b6127796101008301866126dd565b6127876101208301856126c2565b6127956101408301846126dd565b9c9b505050505050505050505050565b60006020820190506127ba60008301846126dd565b92915050565b60006020820190506127d560008301846126c2565b92915050565b600080fd5b7f4e487b7100000000000000000000000000000000000000000000000000000000600052604160045260246000fd5b61281882612643565b810181811067ffffffffffffffff82111715612837576128366127e0565b5b80604052505050565b600061284a61255e565b9050612856828261280f565b919050565b600080fd5b600080fd5b600080fd5b600067ffffffffffffffff821115612885576128846127e0565b5b61288e82612643565b9050602081019050919050565b82818337600083830152505050565b60006128bd6128b88461286a565b612840565b9050828152602081018484840111156128d9576128d8612865565b5b6128e484828561289b565b509392505050565b600082601f83011261290157612900612860565b5b81356129118482602086016128aa565b91505092915050565b6129238161268d565b811461292e57600080fd5b50565b6000813590506129408161291a565b92915050565b61294f816126a9565b811461295a57600080fd5b50565b60008135905061296c81612946565b92915050565b61297b816126d1565b811461298657600080fd5b50565b60008135905061299881612972565b92915050565b600061016082840312156129b5576129b46127db565b5b6129c0610160612840565b9050600082013567ffffffffffffffff8111156129e0576129df61285b565b5b6129ec848285016128ec565b600083015250602082013567ffffffffffffffff811115612a1057612a0f61285b565b5b612a1c848285016128ec565b6020830152506040612a3084828501612931565b6040830152506060612a4484828501612931565b6060830152506080612a588482850161295d565b60808301525060a0612a6c8482850161295d565b60a08301525060c0612a80848285016125bb565b60c08301525060e0612a9484828501612989565b60e083015250610100612aa984828501612989565b61010083015250610120612abf848285016125bb565b61012083015250610140612ad584828501612989565b6101408301525092915050565b600060208284031215612af857612af7612568565b5b600082013567ffffffffffffffff811115612b1657612b1561256d565b5b612b228482850161299e565b91505092915050565b60008060408385031215612b4257612b41612568565b5b6000612b50858286016125bb565b9250506020612b6185828601612931565b9150509250929050565b60008060408385031215612b8257612b81612568565b5b6000612b90858286016125bb565b9250506020612ba1858286016125bb565b9150509250929050565b600082825260208201905092915050565b6000612bc7826125fd565b612bd18185612bab565b9350612be1818560208601612619565b612bea81612643565b840191505092915050565b612bfe8161268d565b82525050565b612c0d816126a9565b82525050565b612c1c81612592565b82525050565b612c2b816126d1565b82525050565b6000610160830160008301518482036000860152612c4f8282612bbc565b91505060208301518482036020860152612c698282612bbc565b9150506040830151612c7e6040860182612bf5565b506060830151612c916060860182612bf5565b506080830151612ca46080860182612c04565b5060a0830151612cb760a0860182612c04565b5060c0830151612cca60c0860182612c13565b5060e0830151612cdd60e0860182612c22565b50610100830151612cf2610100860182612c22565b50610120830151612d07610120860182612c13565b50610140830151612d1c610140860182612c22565b508091505092915050565b60006020820190508181036000830152612d418184612c31565b905092915050565b7f4e487b7100000000000000000000000000000000000000000000000000000000600052602260045260246000fd5b60006002820490506001821680612d9057607f821691505b602082108103612da357612da2612d49565b5b50919050565b7f796f752068617665206e6f742074686520726967687400000000000000000000600082015250565b6000612ddf601683612608565b9150612dea82612da9565b602082019050919050565b60006020820190508181036000830152612e0e81612dd2565b9050919050565b60008190508160005260206000209050919050565b60006020601f8301049050919050565b600082821b905092915050565b600060088302612e777fffffffffffffffffffffffffffffffffffffffffffffffffffffffffffffffff82612e3a565b612e818683612e3a565b95508019841693508086168417925050509392505050565b6000819050919050565b6000612ebe612eb9612eb4846126a9565b612e99565b6126a9565b9050919050565b6000819050919050565b612ed883612ea3565b612eec612ee482612ec5565b848454612e47565b825550505050565b600090565b612f01612ef4565b612f0c818484612ecf565b505050565b5b81811015612f3057612f25600082612ef9565b600181019050612f12565b5050565b601f821115612f7557612f4681612e15565b612f4f84612e2a565b81016020851015612f5e578190505b612f72612f6a85612e2a565b830182612f11565b50505b505050565b600082821c905092915050565b6000612f9860001984600802612f7a565b1980831691505092915050565b6000612fb18383612f87565b9150826002028217905092915050565b612fca826125fd565b67ffffffffffffffff811115612fe357612fe26127e0565b5b612fed8254612d78565b612ff8828285612f34565b600060209050601f83116001811461302b5760008415613019578287015190505b6130238582612fa5565b86555061308b565b601f19841661303986612e15565b60005b828110156130615784890151825560018201915060208501945060208101905061303c565b8683101561307e578489015161307a601f891682612f87565b8355505b6001600288020188555050505b505050505050565b7f74686520636f696e206973206e6f742065786973747300000000000000000000600082015250565b60006130c9601683612608565b91506130d482613093565b602082019050919050565b600060208201905081810360008301526130f8816130bc565b9050919050565b7f74686520636f696e2073636f7065206973206e6f74206a757374696669656420600082015250565b6000613135602083612608565b9150613140826130ff565b602082019050919050565b6000602082019050818103600083015261316481613128565b9050919050565b7f74686520636f696e206973202065786973747320696e206d61726b6574000000600082015250565b60006131a1601d83612608565b91506131ac8261316b565b602082019050919050565b600060208201905081810360008301526131d081613194565b9050919050565b7f74686520636f696e2065786973747320696e20746865206d61726b6574000000600082015250565b600061320d601d83612608565b9150613218826131d7565b602082019050919050565b6000602082019050818103600083015261323c81613200565b9050919050565b7f74686520636f696e2065786973747320696e2074686520676174650000000000600082015250565b6000613279601b83612608565b915061328482613243565b602082019050919050565b600060208201905081810360008301526132a88161326c565b905091905056fea2646970667358221220718ce05df8569ab42adb8c64433e279e292277fb16ffb5c96df98c93532baf0a64736f6c63430008100033",
					"opcodes": "PUSH1 0xC0 PUSH1 0x40 MSTORE CALLVALUE DUP1 ISZERO PUSH3 0x11 JUMPI PUSH1 0x0 DUP1 REVERT JUMPDEST POP PUSH1 0x40 MLOAD PUSH3 0x3463 CODESIZE SUB DUP1 PUSH3 0x3463 DUP4 CODECOPY DUP2 DUP2 ADD PUSH1 0x40 MSTORE DUP2 ADD SWAP1 PUSH3 0x37 SWAP2 SWAP1 PUSH3 0x111 JUMP JUMPDEST DUP2 PUSH20 0xFFFFFFFFFFFFFFFFFFFFFFFFFFFFFFFFFFFFFFFF AND PUSH1 0x80 DUP2 PUSH20 0xFFFFFFFFFFFFFFFFFFFFFFFFFFFFFFFFFFFFFFFF AND DUP2 MSTORE POP POP DUP1 PUSH20 0xFFFFFFFFFFFFFFFFFFFFFFFFFFFFFFFFFFFFFFFF AND PUSH1 0xA0 DUP2 PUSH20 0xFFFFFFFFFFFFFFFFFFFFFFFFFFFFFFFFFFFFFFFF AND DUP2 MSTORE POP POP POP POP PUSH3 0x158 JUMP JUMPDEST PUSH1 0x0 DUP1 REVERT JUMPDEST PUSH1 0x0 PUSH20 0xFFFFFFFFFFFFFFFFFFFFFFFFFFFFFFFFFFFFFFFF DUP3 AND SWAP1 POP SWAP2 SWAP1 POP JUMP JUMPDEST PUSH1 0x0 PUSH3 0xD9 DUP3 PUSH3 0xAC JUMP JUMPDEST SWAP1 POP SWAP2 SWAP1 POP JUMP JUMPDEST PUSH3 0xEB DUP2 PUSH3 0xCC JUMP JUMPDEST DUP2 EQ PUSH3 0xF7 JUMPI PUSH1 0x0 DUP1 REVERT JUMPDEST POP JUMP JUMPDEST PUSH1 0x0 DUP2 MLOAD SWAP1 POP PUSH3 0x10B DUP2 PUSH3 0xE0 JUMP JUMPDEST SWAP3 SWAP2 POP POP JUMP JUMPDEST PUSH1 0x0 DUP1 PUSH1 0x40 DUP4 DUP6 SUB SLT ISZERO PUSH3 0x12B JUMPI PUSH3 0x12A PUSH3 0xA7 JUMP JUMPDEST JUMPDEST PUSH1 0x0 PUSH3 0x13B DUP6 DUP3 DUP7 ADD PUSH3 0xFA JUMP JUMPDEST SWAP3 POP POP PUSH1 0x20 PUSH3 0x14E DUP6 DUP3 DUP7 ADD PUSH3 0xFA JUMP JUMPDEST SWAP2 POP POP SWAP3 POP SWAP3 SWAP1 POP JUMP JUMPDEST PUSH1 0x80 MLOAD PUSH1 0xA0 MLOAD PUSH2 0x32E5 PUSH3 0x17E PUSH1 0x0 CODECOPY PUSH1 0x0 PUSH2 0x903 ADD MSTORE PUSH1 0x0 PUSH2 0x8DF ADD MSTORE PUSH2 0x32E5 PUSH1 0x0 RETURN INVALID PUSH1 0x80 PUSH1 0x40 MSTORE CALLVALUE DUP1 ISZERO PUSH2 0x10 JUMPI PUSH1 0x0 DUP1 REVERT JUMPDEST POP PUSH1 0x4 CALLDATASIZE LT PUSH2 0x121 JUMPI PUSH1 0x0 CALLDATALOAD PUSH1 0xE0 SHR DUP1 PUSH4 0x5385CBF5 GT PUSH2 0xAD JUMPI DUP1 PUSH4 0xCFCDCA52 GT PUSH2 0x71 JUMPI DUP1 PUSH4 0xCFCDCA52 EQ PUSH2 0x30C JUMPI DUP1 PUSH4 0xE7E4093E EQ PUSH2 0x328 JUMPI DUP1 PUSH4 0xE8DD4655 EQ PUSH2 0x344 JUMPI DUP1 PUSH4 0xEAEC0112 EQ PUSH2 0x374 JUMPI DUP1 PUSH4 0xF44E318A EQ PUSH2 0x390 JUMPI PUSH2 0x121 JUMP JUMPDEST DUP1 PUSH4 0x5385CBF5 EQ PUSH2 0x26C JUMPI DUP1 PUSH4 0x7C3E2F02 EQ PUSH2 0x288 JUMPI DUP1 PUSH4 0xB20BE2B4 EQ PUSH2 0x2A4 JUMPI DUP1 PUSH4 0xC1189BEA EQ PUSH2 0x2C0 JUMPI DUP1 PUSH4 0xCC0BF757 EQ PUSH2 0x2DC JUMPI PUSH2 0x121 JUMP JUMPDEST DUP1 PUSH4 0x3B830305 GT PUSH2 0xF4 JUMPI DUP1 PUSH4 0x3B830305 EQ PUSH2 0x1C8 JUMPI DUP1 PUSH4 0x441EB548 EQ PUSH2 0x1F8 JUMPI DUP1 PUSH4 0x47D0A634 EQ PUSH2 0x214 JUMPI DUP1 PUSH4 0x492B7107 EQ PUSH2 0x232 JUMPI DUP1 PUSH4 0x4A91A3BB EQ PUSH2 0x250 JUMPI PUSH2 0x121 JUMP JUMPDEST DUP1 PUSH4 0x1D3B8F67 EQ PUSH2 0x126 JUMPI DUP1 PUSH4 0x31ECDEB8 EQ PUSH2 0x142 JUMPI DUP1 PUSH4 0x328320BF EQ PUSH2 0x17C JUMPI DUP1 PUSH4 0x385E4B7A EQ PUSH2 0x1AC JUMPI JUMPDEST PUSH1 0x0 DUP1 REVERT JUMPDEST PUSH2 0x140 PUSH1 0x4 DUP1 CALLDATASIZE SUB DUP2 ADD SWAP1 PUSH2 0x13B SWAP2 SWAP1 PUSH2 0x25D0 JUMP JUMPDEST PUSH2 0x3AC JUMP JUMPDEST STOP JUMPDEST PUSH2 0x15C PUSH1 0x4 DUP1 CALLDATASIZE SUB DUP2 ADD SWAP1 PUSH2 0x157 SWAP2 SWAP1 PUSH2 0x25D0 JUMP JUMPDEST PUSH2 0x40A JUMP JUMPDEST PUSH1 0x40 MLOAD PUSH2 0x173 SWAP12 SWAP11 SWAP10 SWAP9 SWAP8 SWAP7 SWAP6 SWAP5 SWAP4 SWAP3 SWAP2 SWAP1 PUSH2 0x26EC JUMP JUMPDEST PUSH1 0x40 MLOAD DUP1 SWAP2 SUB SWAP1 RETURN JUMPDEST PUSH2 0x196 PUSH1 0x4 DUP1 CALLDATASIZE SUB DUP2 ADD SWAP1 PUSH2 0x191 SWAP2 SWAP1 PUSH2 0x25D0 JUMP JUMPDEST PUSH2 0x5F5 JUMP JUMPDEST PUSH1 0x40 MLOAD PUSH2 0x1A3 SWAP2 SWAP1 PUSH2 0x27A5 JUMP JUMPDEST PUSH1 0x40 MLOAD DUP1 SWAP2 SUB SWAP1 RETURN JUMPDEST PUSH2 0x1C6 PUSH1 0x4 DUP1 CALLDATASIZE SUB DUP2 ADD SWAP1 PUSH2 0x1C1 SWAP2 SWAP1 PUSH2 0x25D0 JUMP JUMPDEST PUSH2 0x64E JUMP JUMPDEST STOP JUMPDEST PUSH2 0x1E2 PUSH1 0x4 DUP1 CALLDATASIZE SUB DUP2 ADD SWAP1 PUSH2 0x1DD SWAP2 SWAP1 PUSH2 0x25D0 JUMP JUMPDEST PUSH2 0x77C JUMP JUMPDEST PUSH1 0x40 MLOAD PUSH2 0x1EF SWAP2 SWAP1 PUSH2 0x27C0 JUMP JUMPDEST PUSH1 0x40 MLOAD DUP1 SWAP2 SUB SWAP1 RETURN JUMPDEST PUSH2 0x212 PUSH1 0x4 DUP1 CALLDATASIZE SUB DUP2 ADD SWAP1 PUSH2 0x20D SWAP2 SWAP1 PUSH2 0x25D0 JUMP JUMPDEST PUSH2 0x7AF JUMP JUMPDEST STOP JUMPDEST PUSH2 0x21C PUSH2 0x8DD JUMP JUMPDEST PUSH1 0x40 MLOAD PUSH2 0x229 SWAP2 SWAP1 PUSH2 0x27C0 JUMP JUMPDEST PUSH1 0x40 MLOAD DUP1 SWAP2 SUB SWAP1 RETURN JUMPDEST PUSH2 0x23A PUSH2 0x901 JUMP JUMPDEST PUSH1 0x40 MLOAD PUSH2 0x247 SWAP2 SWAP1 PUSH2 0x27C0 JUMP JUMPDEST PUSH1 0x40 MLOAD DUP1 SWAP2 SUB SWAP1 RETURN JUMPDEST PUSH2 0x26A PUSH1 0x4 DUP1 CALLDATASIZE SUB DUP2 ADD SWAP1 PUSH2 0x265 SWAP2 SWAP1 PUSH2 0x2AE2 JUMP JUMPDEST PUSH2 0x925 JUMP JUMPDEST STOP JUMPDEST PUSH2 0x286 PUSH1 0x4 DUP1 CALLDATASIZE SUB DUP2 ADD SWAP1 PUSH2 0x281 SWAP2 SWAP1 PUSH2 0x2B2B JUMP JUMPDEST PUSH2 0xC51 JUMP JUMPDEST STOP JUMPDEST PUSH2 0x2A2 PUSH1 0x4 DUP1 CALLDATASIZE SUB DUP2 ADD SWAP1 PUSH2 0x29D SWAP2 SWAP1 PUSH2 0x25D0 JUMP JUMPDEST PUSH2 0xCB0 JUMP JUMPDEST STOP JUMPDEST PUSH2 0x2BE PUSH1 0x4 DUP1 CALLDATASIZE SUB DUP2 ADD SWAP1 PUSH2 0x2B9 SWAP2 SWAP1 PUSH2 0x25D0 JUMP JUMPDEST PUSH2 0xDE1 JUMP JUMPDEST STOP JUMPDEST PUSH2 0x2DA PUSH1 0x4 DUP1 CALLDATASIZE SUB DUP2 ADD SWAP1 PUSH2 0x2D5 SWAP2 SWAP1 PUSH2 0x2AE2 JUMP JUMPDEST PUSH2 0xE3F JUMP JUMPDEST STOP JUMPDEST PUSH2 0x2F6 PUSH1 0x4 DUP1 CALLDATASIZE SUB DUP2 ADD SWAP1 PUSH2 0x2F1 SWAP2 SWAP1 PUSH2 0x2B6B JUMP JUMPDEST PUSH2 0x1188 JUMP JUMPDEST PUSH1 0x40 MLOAD PUSH2 0x303 SWAP2 SWAP1 PUSH2 0x27C0 JUMP JUMPDEST PUSH1 0x40 MLOAD DUP1 SWAP2 SUB SWAP1 RETURN JUMPDEST PUSH2 0x326 PUSH1 0x4 DUP1 CALLDATASIZE SUB DUP2 ADD SWAP1 PUSH2 0x321 SWAP2 SWAP1 PUSH2 0x2B6B JUMP JUMPDEST PUSH2 0x11CA JUMP JUMPDEST STOP JUMPDEST PUSH2 0x342 PUSH1 0x4 DUP1 CALLDATASIZE SUB DUP2 ADD SWAP1 PUSH2 0x33D SWAP2 SWAP1 PUSH2 0x2AE2 JUMP JUMPDEST PUSH2 0x155E JUMP JUMPDEST STOP JUMPDEST PUSH2 0x35E PUSH1 0x4 DUP1 CALLDATASIZE SUB DUP2 ADD SWAP1 PUSH2 0x359 SWAP2 SWAP1 PUSH2 0x25D0 JUMP JUMPDEST PUSH2 0x1B54 JUMP JUMPDEST PUSH1 0x40 MLOAD PUSH2 0x36B SWAP2 SWAP1 PUSH2 0x2D27 JUMP JUMPDEST PUSH1 0x40 MLOAD DUP1 SWAP2 SUB SWAP1 RETURN JUMPDEST PUSH2 0x38E PUSH1 0x4 DUP1 CALLDATASIZE SUB DUP2 ADD SWAP1 PUSH2 0x389 SWAP2 SWAP1 PUSH2 0x2B6B JUMP JUMPDEST PUSH2 0x1EB3 JUMP JUMPDEST STOP JUMPDEST PUSH2 0x3AA PUSH1 0x4 DUP1 CALLDATASIZE SUB DUP2 ADD SWAP1 PUSH2 0x3A5 SWAP2 SWAP1 PUSH2 0x2AE2 JUMP JUMPDEST PUSH2 0x2061 JUMP JUMPDEST STOP JUMPDEST PUSH1 0x1 PUSH1 0x2 PUSH1 0x0 DUP4 PUSH20 0xFFFFFFFFFFFFFFFFFFFFFFFFFFFFFFFFFFFFFFFF AND PUSH20 0xFFFFFFFFFFFFFFFFFFFFFFFFFFFFFFFFFFFFFFFF AND DUP2 MSTORE PUSH1 0x20 ADD SWAP1 DUP2 MSTORE PUSH1 0x20 ADD PUSH1 0x0 KECCAK256 PUSH1 0x5 ADD PUSH1 0x14 PUSH2 0x100 EXP DUP2 SLOAD DUP2 PUSH1 0xFF MUL NOT AND SWAP1 DUP4 ISZERO ISZERO MUL OR SWAP1 SSTORE POP POP JUMP JUMPDEST PUSH1 0x2 PUSH1 0x20 MSTORE DUP1 PUSH1 0x0 MSTORE PUSH1 0x40 PUSH1 0x0 KECCAK256 PUSH1 0x0 SWAP2 POP SWAP1 POP DUP1 PUSH1 0x0 ADD DUP1 SLOAD PUSH2 0x42D SWAP1 PUSH2 0x2D78 JUMP JUMPDEST DUP1 PUSH1 0x1F ADD PUSH1 0x20 DUP1 SWAP2 DIV MUL PUSH1 0x20 ADD PUSH1 0x40 MLOAD SWAP1 DUP2 ADD PUSH1 0x40 MSTORE DUP1 SWAP3 SWAP2 SWAP1 DUP2 DUP2 MSTORE PUSH1 0x20 ADD DUP3 DUP1 SLOAD PUSH2 0x459 SWAP1 PUSH2 0x2D78 JUMP JUMPDEST DUP1 ISZERO PUSH2 0x4A6 JUMPI DUP1 PUSH1 0x1F LT PUSH2 0x47B JUMPI PUSH2 0x100 DUP1 DUP4 SLOAD DIV MUL DUP4 MSTORE SWAP2 PUSH1 0x20 ADD SWAP2 PUSH2 0x4A6 JUMP JUMPDEST DUP3 ADD SWAP2 SWAP1 PUSH1 0x0 MSTORE PUSH1 0x20 PUSH1 0x0 KECCAK256 SWAP1 JUMPDEST DUP2 SLOAD DUP2 MSTORE SWAP1 PUSH1 0x1 ADD SWAP1 PUSH1 0x20 ADD DUP1 DUP4 GT PUSH2 0x489 JUMPI DUP3 SWAP1 SUB PUSH1 0x1F AND DUP3 ADD SWAP2 JUMPDEST POP POP POP POP POP SWAP1 DUP1 PUSH1 0x1 ADD DUP1 SLOAD PUSH2 0x4BB SWAP1 PUSH2 0x2D78 JUMP JUMPDEST DUP1 PUSH1 0x1F ADD PUSH1 0x20 DUP1 SWAP2 DIV MUL PUSH1 0x20 ADD PUSH1 0x40 MLOAD SWAP1 DUP2 ADD PUSH1 0x40 MSTORE DUP1 SWAP3 SWAP2 SWAP1 DUP2 DUP2 MSTORE PUSH1 0x20 ADD DUP3 DUP1 SLOAD PUSH2 0x4E7 SWAP1 PUSH2 0x2D78 JUMP JUMPDEST DUP1 ISZERO PUSH2 0x534 JUMPI DUP1 PUSH1 0x1F LT PUSH2 0x509 JUMPI PUSH2 0x100 DUP1 DUP4 SLOAD DIV MUL DUP4 MSTORE SWAP2 PUSH1 0x20 ADD SWAP2 PUSH2 0x534 JUMP JUMPDEST DUP3 ADD SWAP2 SWAP1 PUSH1 0x0 MSTORE PUSH1 0x20 PUSH1 0x0 KECCAK256 SWAP1 JUMPDEST DUP2 SLOAD DUP2 MSTORE SWAP1 PUSH1 0x1 ADD SWAP1 PUSH1 0x20 ADD DUP1 DUP4 GT PUSH2 0x517 JUMPI DUP3 SWAP1 SUB PUSH1 0x1F AND DUP3 ADD SWAP2 JUMPDEST POP POP POP POP POP SWAP1 DUP1 PUSH1 0x2 ADD PUSH1 0x0 SWAP1 SLOAD SWAP1 PUSH2 0x100 EXP SWAP1 DIV PUSH1 0xFF AND SWAP1 DUP1 PUSH1 0x2 ADD PUSH1 0x1 SWAP1 SLOAD SWAP1 PUSH2 0x100 EXP SWAP1 DIV PUSH1 0xFF AND SWAP1 DUP1 PUSH1 0x3 ADD SLOAD SWAP1 DUP1 PUSH1 0x4 ADD SLOAD SWAP1 DUP1 PUSH1 0x5 ADD PUSH1 0x0 SWAP1 SLOAD SWAP1 PUSH2 0x100 EXP SWAP1 DIV PUSH20 0xFFFFFFFFFFFFFFFFFFFFFFFFFFFFFFFFFFFFFFFF AND SWAP1 DUP1 PUSH1 0x5 ADD PUSH1 0x14 SWAP1 SLOAD SWAP1 PUSH2 0x100 EXP SWAP1 DIV PUSH1 0xFF AND SWAP1 DUP1 PUSH1 0x5 ADD PUSH1 0x15 SWAP1 SLOAD SWAP1 PUSH2 0x100 EXP SWAP1 DIV PUSH1 0xFF AND SWAP1 DUP1 PUSH1 0x6 ADD PUSH1 0x0 SWAP1 SLOAD SWAP1 PUSH2 0x100 EXP SWAP1 DIV PUSH20 0xFFFFFFFFFFFFFFFFFFFFFFFFFFFFFFFFFFFFFFFF AND SWAP1 DUP1 PUSH1 0x6 ADD PUSH1 0x14 SWAP1 SLOAD SWAP1 PUSH2 0x100 EXP SWAP1 DIV PUSH1 0xFF AND SWAP1 POP DUP12 JUMP JUMPDEST PUSH1 0x0 PUSH1 0x2 PUSH1 0x0 DUP4 PUSH20 0xFFFFFFFFFFFFFFFFFFFFFFFFFFFFFFFFFFFFFFFF AND PUSH20 0xFFFFFFFFFFFFFFFFFFFFFFFFFFFFFFFFFFFFFFFF AND DUP2 MSTORE PUSH1 0x20 ADD SWAP1 DUP2 MSTORE PUSH1 0x20 ADD PUSH1 0x0 KECCAK256 PUSH1 0x5 ADD PUSH1 0x14 SWAP1 SLOAD SWAP1 PUSH2 0x100 EXP SWAP1 DIV PUSH1 0xFF AND SWAP1 POP SWAP2 SWAP1 POP JUMP JUMPDEST CALLER PUSH20 0xFFFFFFFFFFFFFFFFFFFFFFFFFFFFFFFFFFFFFFFF AND PUSH1 0x2 PUSH1 0x0 DUP4 PUSH20 0xFFFFFFFFFFFFFFFFFFFFFFFFFFFFFFFFFFFFFFFF AND PUSH20 0xFFFFFFFFFFFFFFFFFFFFFFFFFFFFFFFFFFFFFFFF AND DUP2 MSTORE PUSH1 0x20 ADD SWAP1 DUP2 MSTORE PUSH1 0x20 ADD PUSH1 0x0 KECCAK256 PUSH1 0x6 ADD PUSH1 0x0 SWAP1 SLOAD SWAP1 PUSH2 0x100 EXP SWAP1 DIV PUSH20 0xFFFFFFFFFFFFFFFFFFFFFFFFFFFFFFFFFFFFFFFF AND PUSH20 0xFFFFFFFFFFFFFFFFFFFFFFFFFFFFFFFFFFFFFFFF AND EQ PUSH2 0x71E JUMPI PUSH1 0x40 MLOAD PUSH32 0x8C379A000000000000000000000000000000000000000000000000000000000 DUP2 MSTORE PUSH1 0x4 ADD PUSH2 0x715 SWAP1 PUSH2 0x2DF5 JUMP JUMPDEST PUSH1 0x40 MLOAD DUP1 SWAP2 SUB SWAP1 REVERT JUMPDEST PUSH1 0x1 PUSH1 0x2 PUSH1 0x0 DUP4 PUSH20 0xFFFFFFFFFFFFFFFFFFFFFFFFFFFFFFFFFFFFFFFF AND PUSH20 0xFFFFFFFFFFFFFFFFFFFFFFFFFFFFFFFFFFFFFFFF AND DUP2 MSTORE PUSH1 0x20 ADD SWAP1 DUP2 MSTORE PUSH1 0x20 ADD PUSH1 0x0 KECCAK256 PUSH1 0x5 ADD PUSH1 0x15 PUSH2 0x100 EXP DUP2 SLOAD DUP2 PUSH1 0xFF MUL NOT AND SWAP1 DUP4 ISZERO ISZERO MUL OR SWAP1 SSTORE POP POP JUMP JUMPDEST PUSH1 0x0 PUSH1 0x20 MSTORE DUP1 PUSH1 0x0 MSTORE PUSH1 0x40 PUSH1 0x0 KECCAK256 PUSH1 0x0 SWAP2 POP SLOAD SWAP1 PUSH2 0x100 EXP SWAP1 DIV PUSH20 0xFFFFFFFFFFFFFFFFFFFFFFFFFFFFFFFFFFFFFFFF AND DUP2 JUMP JUMPDEST CALLER PUSH20 0xFFFFFFFFFFFFFFFFFFFFFFFFFFFFFFFFFFFFFFFF AND PUSH1 0x2 PUSH1 0x0 DUP4 PUSH20 0xFFFFFFFFFFFFFFFFFFFFFFFFFFFFFFFFFFFFFFFF AND PUSH20 0xFFFFFFFFFFFFFFFFFFFFFFFFFFFFFFFFFFFFFFFF AND DUP2 MSTORE PUSH1 0x20 ADD SWAP1 DUP2 MSTORE PUSH1 0x20 ADD PUSH1 0x0 KECCAK256 PUSH1 0x6 ADD PUSH1 0x0 SWAP1 SLOAD SWAP1 PUSH2 0x100 EXP SWAP1 DIV PUSH20 0xFFFFFFFFFFFFFFFFFFFFFFFFFFFFFFFFFFFFFFFF AND PUSH20 0xFFFFFFFFFFFFFFFFFFFFFFFFFFFFFFFFFFFFFFFF AND EQ PUSH2 0x87F JUMPI PUSH1 0x40 MLOAD PUSH32 0x8C379A000000000000000000000000000000000000000000000000000000000 DUP2 MSTORE PUSH1 0x4 ADD PUSH2 0x876 SWAP1 PUSH2 0x2DF5 JUMP JUMPDEST PUSH1 0x40 MLOAD DUP1 SWAP2 SUB SWAP1 REVERT JUMPDEST PUSH1 0x0 PUSH1 0x2 PUSH1 0x0 DUP4 PUSH20 0xFFFFFFFFFFFFFFFFFFFFFFFFFFFFFFFFFFFFFFFF AND PUSH20 0xFFFFFFFFFFFFFFFFFFFFFFFFFFFFFFFFFFFFFFFF AND DUP2 MSTORE PUSH1 0x20 ADD SWAP1 DUP2 MSTORE PUSH1 0x20 ADD PUSH1 0x0 KECCAK256 PUSH1 0x5 ADD PUSH1 0x15 PUSH2 0x100 EXP DUP2 SLOAD DUP2 PUSH1 0xFF MUL NOT AND SWAP1 DUP4 ISZERO ISZERO MUL OR SWAP1 SSTORE POP POP JUMP JUMPDEST PUSH32 0x0 DUP2 JUMP JUMPDEST PUSH32 0x0 DUP2 JUMP JUMPDEST PUSH1 0x0 PUSH20 0xFFFFFFFFFFFFFFFFFFFFFFFFFFFFFFFFFFFFFFFF AND PUSH1 0x0 DUP1 DUP4 PUSH1 0xC0 ADD MLOAD PUSH20 0xFFFFFFFFFFFFFFFFFFFFFFFFFFFFFFFFFFFFFFFF AND PUSH20 0xFFFFFFFFFFFFFFFFFFFFFFFFFFFFFFFFFFFFFFFF AND DUP2 MSTORE PUSH1 0x20 ADD SWAP1 DUP2 MSTORE PUSH1 0x20 ADD PUSH1 0x0 KECCAK256 PUSH1 0x0 SWAP1 SLOAD SWAP1 PUSH2 0x100 EXP SWAP1 DIV PUSH20 0xFFFFFFFFFFFFFFFFFFFFFFFFFFFFFFFFFFFFFFFF AND PUSH20 0xFFFFFFFFFFFFFFFFFFFFFFFFFFFFFFFFFFFFFFFF AND SUB PUSH2 0x9C0 JUMPI PUSH1 0x0 DUP1 REVERT JUMPDEST PUSH1 0x0 DUP2 PUSH1 0xE0 ADD SWAP1 ISZERO ISZERO SWAP1 DUP2 ISZERO ISZERO DUP2 MSTORE POP POP PUSH1 0x0 DUP2 PUSH2 0x100 ADD SWAP1 ISZERO ISZERO SWAP1 DUP2 ISZERO ISZERO DUP2 MSTORE POP POP PUSH1 0x1 DUP2 PUSH2 0x140 ADD SWAP1 ISZERO ISZERO SWAP1 DUP2 ISZERO ISZERO DUP2 MSTORE POP POP PUSH1 0x2 PUSH1 0x0 DUP3 PUSH1 0xC0 ADD MLOAD PUSH20 0xFFFFFFFFFFFFFFFFFFFFFFFFFFFFFFFFFFFFFFFF AND PUSH20 0xFFFFFFFFFFFFFFFFFFFFFFFFFFFFFFFFFFFFFFFF AND DUP2 MSTORE PUSH1 0x20 ADD SWAP1 DUP2 MSTORE PUSH1 0x20 ADD PUSH1 0x0 KECCAK256 PUSH1 0x6 ADD PUSH1 0x0 SWAP1 SLOAD SWAP1 PUSH2 0x100 EXP SWAP1 DIV PUSH20 0xFFFFFFFFFFFFFFFFFFFFFFFFFFFFFFFFFFFFFFFF AND DUP2 PUSH2 0x120 ADD SWAP1 PUSH20 0xFFFFFFFFFFFFFFFFFFFFFFFFFFFFFFFFFFFFFFFF AND SWAP1 DUP2 PUSH20 0xFFFFFFFFFFFFFFFFFFFFFFFFFFFFFFFFFFFFFFFF AND DUP2 MSTORE POP POP DUP1 PUSH1 0x2 PUSH1 0x0 DUP4 PUSH1 0xC0 ADD MLOAD PUSH20 0xFFFFFFFFFFFFFFFFFFFFFFFFFFFFFFFFFFFFFFFF AND PUSH20 0xFFFFFFFFFFFFFFFFFFFFFFFFFFFFFFFFFFFFFFFF AND DUP2 MSTORE PUSH1 0x20 ADD SWAP1 DUP2 MSTORE PUSH1 0x20 ADD PUSH1 0x0 KECCAK256 PUSH1 0x0 DUP3 ADD MLOAD DUP2 PUSH1 0x0 ADD SWAP1 DUP2 PUSH2 0xAED SWAP2 SWAP1 PUSH2 0x2FC1 JUMP JUMPDEST POP PUSH1 0x20 DUP3 ADD MLOAD DUP2 PUSH1 0x1 ADD SWAP1 DUP2 PUSH2 0xB03 SWAP2 SWAP1 PUSH2 0x2FC1 JUMP JUMPDEST POP PUSH1 0x40 DUP3 ADD MLOAD DUP2 PUSH1 0x2 ADD PUSH1 0x0 PUSH2 0x100 EXP DUP2 SLOAD DUP2 PUSH1 0xFF MUL NOT AND SWAP1 DUP4 PUSH1 0xFF AND MUL OR SWAP1 SSTORE POP PUSH1 0x60 DUP3 ADD MLOAD DUP2 PUSH1 0x2 ADD PUSH1 0x1 PUSH2 0x100 EXP DUP2 SLOAD DUP2 PUSH1 0xFF MUL NOT AND SWAP1 DUP4 PUSH1 0xFF AND MUL OR SWAP1 SSTORE POP PUSH1 0x80 DUP3 ADD MLOAD DUP2 PUSH1 0x3 ADD SSTORE PUSH1 0xA0 DUP3 ADD MLOAD DUP2 PUSH1 0x4 ADD SSTORE PUSH1 0xC0 DUP3 ADD MLOAD DUP2 PUSH1 0x5 ADD PUSH1 0x0 PUSH2 0x100 EXP DUP2 SLOAD DUP2 PUSH20 0xFFFFFFFFFFFFFFFFFFFFFFFFFFFFFFFFFFFFFFFF MUL NOT AND SWAP1 DUP4 PUSH20 0xFFFFFFFFFFFFFFFFFFFFFFFFFFFFFFFFFFFFFFFF AND MUL OR SWAP1 SSTORE POP PUSH1 0xE0 DUP3 ADD MLOAD DUP2 PUSH1 0x5 ADD PUSH1 0x14 PUSH2 0x100 EXP DUP2 SLOAD DUP2 PUSH1 0xFF MUL NOT AND SWAP1 DUP4 ISZERO ISZERO MUL OR SWAP1 SSTORE POP PUSH2 0x100 DUP3 ADD MLOAD DUP2 PUSH1 0x5 ADD PUSH1 0x15 PUSH2 0x100 EXP DUP2 SLOAD DUP2 PUSH1 0xFF MUL NOT AND SWAP1 DUP4 ISZERO ISZERO MUL OR SWAP1 SSTORE POP PUSH2 0x120 DUP3 ADD MLOAD DUP2 PUSH1 0x6 ADD PUSH1 0x0 PUSH2 0x100 EXP DUP2 SLOAD DUP2 PUSH20 0xFFFFFFFFFFFFFFFFFFFFFFFFFFFFFFFFFFFFFFFF MUL NOT AND SWAP1 DUP4 PUSH20 0xFFFFFFFFFFFFFFFFFFFFFFFFFFFFFFFFFFFFFFFF AND MUL OR SWAP1 SSTORE POP PUSH2 0x140 DUP3 ADD MLOAD DUP2 PUSH1 0x6 ADD PUSH1 0x14 PUSH2 0x100 EXP DUP2 SLOAD DUP2 PUSH1 0xFF MUL NOT AND SWAP1 DUP4 ISZERO ISZERO MUL OR SWAP1 SSTORE POP SWAP1 POP POP POP JUMP JUMPDEST DUP1 PUSH1 0x2 PUSH1 0x0 DUP5 PUSH20 0xFFFFFFFFFFFFFFFFFFFFFFFFFFFFFFFFFFFFFFFF AND PUSH20 0xFFFFFFFFFFFFFFFFFFFFFFFFFFFFFFFFFFFFFFFF AND DUP2 MSTORE PUSH1 0x20 ADD SWAP1 DUP2 MSTORE PUSH1 0x20 ADD PUSH1 0x0 KECCAK256 PUSH1 0x2 ADD PUSH1 0x0 PUSH2 0x100 EXP DUP2 SLOAD DUP2 PUSH1 0xFF MUL NOT AND SWAP1 DUP4 PUSH1 0xFF AND MUL OR SWAP1 SSTORE POP POP POP JUMP JUMPDEST PUSH1 0x0 PUSH20 0xFFFFFFFFFFFFFFFFFFFFFFFFFFFFFFFFFFFFFFFF AND PUSH1 0x0 DUP1 DUP4 PUSH20 0xFFFFFFFFFFFFFFFFFFFFFFFFFFFFFFFFFFFFFFFF AND PUSH20 0xFFFFFFFFFFFFFFFFFFFFFFFFFFFFFFFFFFFFFFFF AND DUP2 MSTORE PUSH1 0x20 ADD SWAP1 DUP2 MSTORE PUSH1 0x20 ADD PUSH1 0x0 KECCAK256 PUSH1 0x0 SWAP1 SLOAD SWAP1 PUSH2 0x100 EXP SWAP1 DIV PUSH20 0xFFFFFFFFFFFFFFFFFFFFFFFFFFFFFFFFFFFFFFFF AND PUSH20 0xFFFFFFFFFFFFFFFFFFFFFFFFFFFFFFFFFFFFFFFF AND SUB PUSH2 0xD7D JUMPI PUSH1 0x40 MLOAD PUSH32 0x8C379A000000000000000000000000000000000000000000000000000000000 DUP2 MSTORE PUSH1 0x4 ADD PUSH2 0xD74 SWAP1 PUSH2 0x30DF JUMP JUMPDEST PUSH1 0x40 MLOAD DUP1 SWAP2 SUB SWAP1 REVERT JUMPDEST PUSH1 0x0 DUP1 DUP3 PUSH20 0xFFFFFFFFFFFFFFFFFFFFFFFFFFFFFFFFFFFFFFFF AND PUSH20 0xFFFFFFFFFFFFFFFFFFFFFFFFFFFFFFFFFFFFFFFF AND DUP2 MSTORE PUSH1 0x20 ADD SWAP1 DUP2 MSTORE PUSH1 0x20 ADD PUSH1 0x0 KECCAK256 PUSH1 0x0 PUSH2 0x100 EXP DUP2 SLOAD SWAP1 PUSH20 0xFFFFFFFFFFFFFFFFFFFFFFFFFFFFFFFFFFFFFFFF MUL NOT AND SWAP1 SSTORE POP JUMP JUMPDEST PUSH1 0x0 PUSH1 0x2 PUSH1 0x0 DUP4 PUSH20 0xFFFFFFFFFFFFFFFFFFFFFFFFFFFFFFFFFFFFFFFF AND PUSH20 0xFFFFFFFFFFFFFFFFFFFFFFFFFFFFFFFFFFFFFFFF AND DUP2 MSTORE PUSH1 0x20 ADD SWAP1 DUP2 MSTORE PUSH1 0x20 ADD PUSH1 0x0 KECCAK256 PUSH1 0x5 ADD PUSH1 0x14 PUSH2 0x100 EXP DUP2 SLOAD DUP2 PUSH1 0xFF MUL NOT AND SWAP1 DUP4 ISZERO ISZERO MUL OR SWAP1 SSTORE POP POP JUMP JUMPDEST CALLER PUSH20 0xFFFFFFFFFFFFFFFFFFFFFFFFFFFFFFFFFFFFFFFF AND PUSH1 0x2 PUSH1 0x0 DUP4 PUSH1 0xC0 ADD MLOAD PUSH20 0xFFFFFFFFFFFFFFFFFFFFFFFFFFFFFFFFFFFFFFFF AND PUSH20 0xFFFFFFFFFFFFFFFFFFFFFFFFFFFFFFFFFFFFFFFF AND DUP2 MSTORE PUSH1 0x20 ADD SWAP1 DUP2 MSTORE PUSH1 0x20 ADD PUSH1 0x0 KECCAK256 PUSH1 0x6 ADD PUSH1 0x0 SWAP1 SLOAD SWAP1 PUSH2 0x100 EXP SWAP1 DIV PUSH20 0xFFFFFFFFFFFFFFFFFFFFFFFFFFFFFFFFFFFFFFFF AND PUSH20 0xFFFFFFFFFFFFFFFFFFFFFFFFFFFFFFFFFFFFFFFF AND EQ PUSH2 0xF13 JUMPI PUSH1 0x40 MLOAD PUSH32 0x8C379A000000000000000000000000000000000000000000000000000000000 DUP2 MSTORE PUSH1 0x4 ADD PUSH2 0xF0A SWAP1 PUSH2 0x2DF5 JUMP JUMPDEST PUSH1 0x40 MLOAD DUP1 SWAP2 SUB SWAP1 REVERT JUMPDEST PUSH1 0x4 DUP2 PUSH1 0x40 ADD MLOAD PUSH1 0xFF AND EQ PUSH2 0xF5D JUMPI PUSH1 0x40 MLOAD PUSH32 0x8C379A000000000000000000000000000000000000000000000000000000000 DUP2 MSTORE PUSH1 0x4 ADD PUSH2 0xF54 SWAP1 PUSH2 0x314B JUMP JUMPDEST PUSH1 0x40 MLOAD DUP1 SWAP2 SUB SWAP1 REVERT JUMPDEST PUSH1 0x0 DUP2 PUSH1 0xE0 ADD SWAP1 ISZERO ISZERO SWAP1 DUP2 ISZERO ISZERO DUP2 MSTORE POP POP PUSH1 0x0 DUP2 PUSH2 0x100 ADD SWAP1 ISZERO ISZERO SWAP1 DUP2 ISZERO ISZERO DUP2 MSTORE POP POP PUSH1 0x1 DUP2 PUSH2 0x140 ADD SWAP1 ISZERO ISZERO SWAP1 DUP2 ISZERO ISZERO DUP2 MSTORE POP POP CALLER DUP2 PUSH2 0x120 ADD SWAP1 PUSH20 0xFFFFFFFFFFFFFFFFFFFFFFFFFFFFFFFFFFFFFFFF AND SWAP1 DUP2 PUSH20 0xFFFFFFFFFFFFFFFFFFFFFFFFFFFFFFFFFFFFFFFF AND DUP2 MSTORE POP POP DUP1 PUSH1 0x2 PUSH1 0x0 DUP4 PUSH1 0xC0 ADD MLOAD PUSH20 0xFFFFFFFFFFFFFFFFFFFFFFFFFFFFFFFFFFFFFFFF AND PUSH20 0xFFFFFFFFFFFFFFFFFFFFFFFFFFFFFFFFFFFFFFFF AND DUP2 MSTORE PUSH1 0x20 ADD SWAP1 DUP2 MSTORE PUSH1 0x20 ADD PUSH1 0x0 KECCAK256 PUSH1 0x0 DUP3 ADD MLOAD DUP2 PUSH1 0x0 ADD SWAP1 DUP2 PUSH2 0x1024 SWAP2 SWAP1 PUSH2 0x2FC1 JUMP JUMPDEST POP PUSH1 0x20 DUP3 ADD MLOAD DUP2 PUSH1 0x1 ADD SWAP1 DUP2 PUSH2 0x103A SWAP2 SWAP1 PUSH2 0x2FC1 JUMP JUMPDEST POP PUSH1 0x40 DUP3 ADD MLOAD DUP2 PUSH1 0x2 ADD PUSH1 0x0 PUSH2 0x100 EXP DUP2 SLOAD DUP2 PUSH1 0xFF MUL NOT AND SWAP1 DUP4 PUSH1 0xFF AND MUL OR SWAP1 SSTORE POP PUSH1 0x60 DUP3 ADD MLOAD DUP2 PUSH1 0x2 ADD PUSH1 0x1 PUSH2 0x100 EXP DUP2 SLOAD DUP2 PUSH1 0xFF MUL NOT AND SWAP1 DUP4 PUSH1 0xFF AND MUL OR SWAP1 SSTORE POP PUSH1 0x80 DUP3 ADD MLOAD DUP2 PUSH1 0x3 ADD SSTORE PUSH1 0xA0 DUP3 ADD MLOAD DUP2 PUSH1 0x4 ADD SSTORE PUSH1 0xC0 DUP3 ADD MLOAD DUP2 PUSH1 0x5 ADD PUSH1 0x0 PUSH2 0x100 EXP DUP2 SLOAD DUP2 PUSH20 0xFFFFFFFFFFFFFFFFFFFFFFFFFFFFFFFFFFFFFFFF MUL NOT AND SWAP1 DUP4 PUSH20 0xFFFFFFFFFFFFFFFFFFFFFFFFFFFFFFFFFFFFFFFF AND MUL OR SWAP1 SSTORE POP PUSH1 0xE0 DUP3 ADD MLOAD DUP2 PUSH1 0x5 ADD PUSH1 0x14 PUSH2 0x100 EXP DUP2 SLOAD DUP2 PUSH1 0xFF MUL NOT AND SWAP1 DUP4 ISZERO ISZERO MUL OR SWAP1 SSTORE POP PUSH2 0x100 DUP3 ADD MLOAD DUP2 PUSH1 0x5 ADD PUSH1 0x15 PUSH2 0x100 EXP DUP2 SLOAD DUP2 PUSH1 0xFF MUL NOT AND SWAP1 DUP4 ISZERO ISZERO MUL OR SWAP1 SSTORE POP PUSH2 0x120 DUP3 ADD MLOAD DUP2 PUSH1 0x6 ADD PUSH1 0x0 PUSH2 0x100 EXP DUP2 SLOAD DUP2 PUSH20 0xFFFFFFFFFFFFFFFFFFFFFFFFFFFFFFFFFFFFFFFF MUL NOT AND SWAP1 DUP4 PUSH20 0xFFFFFFFFFFFFFFFFFFFFFFFFFFFFFFFFFFFFFFFF AND MUL OR SWAP1 SSTORE POP PUSH2 0x140 DUP3 ADD MLOAD DUP2 PUSH1 0x6 ADD PUSH1 0x14 PUSH2 0x100 EXP DUP2 SLOAD DUP2 PUSH1 0xFF MUL NOT AND SWAP1 DUP4 ISZERO ISZERO MUL OR SWAP1 SSTORE POP SWAP1 POP POP POP JUMP JUMPDEST PUSH1 0x1 PUSH1 0x20 MSTORE DUP2 PUSH1 0x0 MSTORE PUSH1 0x40 PUSH1 0x0 KECCAK256 PUSH1 0x20 MSTORE DUP1 PUSH1 0x0 MSTORE PUSH1 0x40 PUSH1 0x0 KECCAK256 PUSH1 0x0 SWAP2 POP SWAP2 POP SWAP1 SLOAD SWAP1 PUSH2 0x100 EXP SWAP1 DIV PUSH20 0xFFFFFFFFFFFFFFFFFFFFFFFFFFFFFFFFFFFFFFFF AND DUP2 JUMP JUMPDEST PUSH1 0x0 PUSH20 0xFFFFFFFFFFFFFFFFFFFFFFFFFFFFFFFFFFFFFFFF AND PUSH1 0x1 PUSH1 0x0 DUP4 PUSH20 0xFFFFFFFFFFFFFFFFFFFFFFFFFFFFFFFFFFFFFFFF AND PUSH20 0xFFFFFFFFFFFFFFFFFFFFFFFFFFFFFFFFFFFFFFFF AND DUP2 MSTORE PUSH1 0x20 ADD SWAP1 DUP2 MSTORE PUSH1 0x20 ADD PUSH1 0x0 KECCAK256 PUSH1 0x0 DUP5 PUSH20 0xFFFFFFFFFFFFFFFFFFFFFFFFFFFFFFFFFFFFFFFF AND PUSH20 0xFFFFFFFFFFFFFFFFFFFFFFFFFFFFFFFFFFFFFFFF AND DUP2 MSTORE PUSH1 0x20 ADD SWAP1 DUP2 MSTORE PUSH1 0x20 ADD PUSH1 0x0 KECCAK256 PUSH1 0x0 SWAP1 SLOAD SWAP1 PUSH2 0x100 EXP SWAP1 DIV PUSH20 0xFFFFFFFFFFFFFFFFFFFFFFFFFFFFFFFFFFFFFFFF AND PUSH20 0xFFFFFFFFFFFFFFFFFFFFFFFFFFFFFFFFFFFFFFFF AND SUB PUSH2 0x12D5 JUMPI PUSH1 0x40 MLOAD PUSH32 0x8C379A000000000000000000000000000000000000000000000000000000000 DUP2 MSTORE PUSH1 0x4 ADD PUSH2 0x12CC SWAP1 PUSH2 0x30DF JUMP JUMPDEST PUSH1 0x40 MLOAD DUP1 SWAP2 SUB SWAP1 REVERT JUMPDEST PUSH1 0x0 PUSH20 0xFFFFFFFFFFFFFFFFFFFFFFFFFFFFFFFFFFFFFFFF AND PUSH1 0x0 DUP1 DUP5 PUSH20 0xFFFFFFFFFFFFFFFFFFFFFFFFFFFFFFFFFFFFFFFF AND PUSH20 0xFFFFFFFFFFFFFFFFFFFFFFFFFFFFFFFFFFFFFFFF AND DUP2 MSTORE PUSH1 0x20 ADD SWAP1 DUP2 MSTORE PUSH1 0x20 ADD PUSH1 0x0 KECCAK256 PUSH1 0x0 SWAP1 SLOAD SWAP1 PUSH2 0x100 EXP SWAP1 DIV PUSH20 0xFFFFFFFFFFFFFFFFFFFFFFFFFFFFFFFFFFFFFFFF AND PUSH20 0xFFFFFFFFFFFFFFFFFFFFFFFFFFFFFFFFFFFFFFFF AND EQ PUSH2 0x13A2 JUMPI PUSH1 0x40 MLOAD PUSH32 0x8C379A000000000000000000000000000000000000000000000000000000000 DUP2 MSTORE PUSH1 0x4 ADD PUSH2 0x1399 SWAP1 PUSH2 0x31B7 JUMP JUMPDEST PUSH1 0x40 MLOAD DUP1 SWAP2 SUB SWAP1 REVERT JUMPDEST PUSH1 0x1 PUSH1 0x0 DUP3 PUSH20 0xFFFFFFFFFFFFFFFFFFFFFFFFFFFFFFFFFFFFFFFF AND PUSH20 0xFFFFFFFFFFFFFFFFFFFFFFFFFFFFFFFFFFFFFFFF AND DUP2 MSTORE PUSH1 0x20 ADD SWAP1 DUP2 MSTORE PUSH1 0x20 ADD PUSH1 0x0 KECCAK256 PUSH1 0x0 DUP4 PUSH20 0xFFFFFFFFFFFFFFFFFFFFFFFFFFFFFFFFFFFFFFFF AND PUSH20 0xFFFFFFFFFFFFFFFFFFFFFFFFFFFFFFFFFFFFFFFF AND DUP2 MSTORE PUSH1 0x20 ADD SWAP1 DUP2 MSTORE PUSH1 0x20 ADD PUSH1 0x0 KECCAK256 PUSH1 0x0 SWAP1 SLOAD SWAP1 PUSH2 0x100 EXP SWAP1 DIV PUSH20 0xFFFFFFFFFFFFFFFFFFFFFFFFFFFFFFFFFFFFFFFF AND PUSH1 0x0 DUP1 DUP5 PUSH20 0xFFFFFFFFFFFFFFFFFFFFFFFFFFFFFFFFFFFFFFFF AND PUSH20 0xFFFFFFFFFFFFFFFFFFFFFFFFFFFFFFFFFFFFFFFF AND DUP2 MSTORE PUSH1 0x20 ADD SWAP1 DUP2 MSTORE PUSH1 0x20 ADD PUSH1 0x0 KECCAK256 PUSH1 0x0 PUSH2 0x100 EXP DUP2 SLOAD DUP2 PUSH20 0xFFFFFFFFFFFFFFFFFFFFFFFFFFFFFFFFFFFFFFFF MUL NOT AND SWAP1 DUP4 PUSH20 0xFFFFFFFFFFFFFFFFFFFFFFFFFFFFFFFFFFFFFFFF AND MUL OR SWAP1 SSTORE POP PUSH1 0x1 PUSH1 0x0 DUP3 PUSH20 0xFFFFFFFFFFFFFFFFFFFFFFFFFFFFFFFFFFFFFFFF AND PUSH20 0xFFFFFFFFFFFFFFFFFFFFFFFFFFFFFFFFFFFFFFFF AND DUP2 MSTORE PUSH1 0x20 ADD SWAP1 DUP2 MSTORE PUSH1 0x20 ADD PUSH1 0x0 KECCAK256 PUSH1 0x0 DUP4 PUSH20 0xFFFFFFFFFFFFFFFFFFFFFFFFFFFFFFFFFFFFFFFF AND PUSH20 0xFFFFFFFFFFFFFFFFFFFFFFFFFFFFFFFFFFFFFFFF AND DUP2 MSTORE PUSH1 0x20 ADD SWAP1 DUP2 MSTORE PUSH1 0x20 ADD PUSH1 0x0 KECCAK256 PUSH1 0x0 PUSH2 0x100 EXP DUP2 SLOAD SWAP1 PUSH20 0xFFFFFFFFFFFFFFFFFFFFFFFFFFFFFFFFFFFFFFFF MUL NOT AND SWAP1 SSTORE POP POP JUMP JUMPDEST PUSH1 0x1 ISZERO ISZERO PUSH1 0x2 PUSH1 0x0 DUP4 PUSH1 0xC0 ADD MLOAD PUSH20 0xFFFFFFFFFFFFFFFFFFFFFFFFFFFFFFFFFFFFFFFF AND PUSH20 0xFFFFFFFFFFFFFFFFFFFFFFFFFFFFFFFFFFFFFFFF AND DUP2 MSTORE PUSH1 0x20 ADD SWAP1 DUP2 MSTORE PUSH1 0x20 ADD PUSH1 0x0 KECCAK256 PUSH1 0x6 ADD PUSH1 0x14 SWAP1 SLOAD SWAP1 PUSH2 0x100 EXP SWAP1 DIV PUSH1 0xFF AND ISZERO ISZERO EQ PUSH2 0x18AD JUMPI CALLER DUP2 PUSH2 0x120 ADD SWAP1 PUSH20 0xFFFFFFFFFFFFFFFFFFFFFFFFFFFFFFFFFFFFFFFF AND SWAP1 DUP2 PUSH20 0xFFFFFFFFFFFFFFFFFFFFFFFFFFFFFFFFFFFFFFFF AND DUP2 MSTORE POP POP PUSH1 0x0 DUP2 PUSH1 0xE0 ADD SWAP1 ISZERO ISZERO SWAP1 DUP2 ISZERO ISZERO DUP2 MSTORE POP POP PUSH1 0x0 DUP2 PUSH2 0x100 ADD SWAP1 ISZERO ISZERO SWAP1 DUP2 ISZERO ISZERO DUP2 MSTORE POP POP PUSH1 0x1 DUP2 PUSH2 0x140 ADD SWAP1 ISZERO ISZERO SWAP1 DUP2 ISZERO ISZERO DUP2 MSTORE POP POP DUP1 PUSH1 0x2 PUSH1 0x0 DUP4 PUSH1 0xC0 ADD MLOAD PUSH20 0xFFFFFFFFFFFFFFFFFFFFFFFFFFFFFFFFFFFFFFFF AND PUSH20 0xFFFFFFFFFFFFFFFFFFFFFFFFFFFFFFFFFFFFFFFF AND DUP2 MSTORE PUSH1 0x20 ADD SWAP1 DUP2 MSTORE PUSH1 0x20 ADD PUSH1 0x0 KECCAK256 PUSH1 0x0 DUP3 ADD MLOAD DUP2 PUSH1 0x0 ADD SWAP1 DUP2 PUSH2 0x1684 SWAP2 SWAP1 PUSH2 0x2FC1 JUMP JUMPDEST POP PUSH1 0x20 DUP3 ADD MLOAD DUP2 PUSH1 0x1 ADD SWAP1 DUP2 PUSH2 0x169A SWAP2 SWAP1 PUSH2 0x2FC1 JUMP JUMPDEST POP PUSH1 0x40 DUP3 ADD MLOAD DUP2 PUSH1 0x2 ADD PUSH1 0x0 PUSH2 0x100 EXP DUP2 SLOAD DUP2 PUSH1 0xFF MUL NOT AND SWAP1 DUP4 PUSH1 0xFF AND MUL OR SWAP1 SSTORE POP PUSH1 0x60 DUP3 ADD MLOAD DUP2 PUSH1 0x2 ADD PUSH1 0x1 PUSH2 0x100 EXP DUP2 SLOAD DUP2 PUSH1 0xFF MUL NOT AND SWAP1 DUP4 PUSH1 0xFF AND MUL OR SWAP1 SSTORE POP PUSH1 0x80 DUP3 ADD MLOAD DUP2 PUSH1 0x3 ADD SSTORE PUSH1 0xA0 DUP3 ADD MLOAD DUP2 PUSH1 0x4 ADD SSTORE PUSH1 0xC0 DUP3 ADD MLOAD DUP2 PUSH1 0x5 ADD PUSH1 0x0 PUSH2 0x100 EXP DUP2 SLOAD DUP2 PUSH20 0xFFFFFFFFFFFFFFFFFFFFFFFFFFFFFFFFFFFFFFFF MUL NOT AND SWAP1 DUP4 PUSH20 0xFFFFFFFFFFFFFFFFFFFFFFFFFFFFFFFFFFFFFFFF AND MUL OR SWAP1 SSTORE POP PUSH1 0xE0 DUP3 ADD MLOAD DUP2 PUSH1 0x5 ADD PUSH1 0x14 PUSH2 0x100 EXP DUP2 SLOAD DUP2 PUSH1 0xFF MUL NOT AND SWAP1 DUP4 ISZERO ISZERO MUL OR SWAP1 SSTORE POP PUSH2 0x100 DUP3 ADD MLOAD DUP2 PUSH1 0x5 ADD PUSH1 0x15 PUSH2 0x100 EXP DUP2 SLOAD DUP2 PUSH1 0xFF MUL NOT AND SWAP1 DUP4 ISZERO ISZERO MUL OR SWAP1 SSTORE POP PUSH2 0x120 DUP3 ADD MLOAD DUP2 PUSH1 0x6 ADD PUSH1 0x0 PUSH2 0x100 EXP DUP2 SLOAD DUP2 PUSH20 0xFFFFFFFFFFFFFFFFFFFFFFFFFFFFFFFFFFFFFFFF MUL NOT AND SWAP1 DUP4 PUSH20 0xFFFFFFFFFFFFFFFFFFFFFFFFFFFFFFFFFFFFFFFF AND MUL OR SWAP1 SSTORE POP PUSH2 0x140 DUP3 ADD MLOAD DUP2 PUSH1 0x6 ADD PUSH1 0x14 PUSH2 0x100 EXP DUP2 SLOAD DUP2 PUSH1 0xFF MUL NOT AND SWAP1 DUP4 ISZERO ISZERO MUL OR SWAP1 SSTORE POP SWAP1 POP POP DUP1 PUSH1 0xC0 ADD MLOAD PUSH1 0x1 PUSH1 0x0 CALLER PUSH20 0xFFFFFFFFFFFFFFFFFFFFFFFFFFFFFFFFFFFFFFFF AND PUSH20 0xFFFFFFFFFFFFFFFFFFFFFFFFFFFFFFFFFFFFFFFF AND DUP2 MSTORE PUSH1 0x20 ADD SWAP1 DUP2 MSTORE PUSH1 0x20 ADD PUSH1 0x0 KECCAK256 PUSH1 0x0 DUP4 PUSH1 0xC0 ADD MLOAD PUSH20 0xFFFFFFFFFFFFFFFFFFFFFFFFFFFFFFFFFFFFFFFF AND PUSH20 0xFFFFFFFFFFFFFFFFFFFFFFFFFFFFFFFFFFFFFFFF AND DUP2 MSTORE PUSH1 0x20 ADD SWAP1 DUP2 MSTORE PUSH1 0x20 ADD PUSH1 0x0 KECCAK256 PUSH1 0x0 PUSH2 0x100 EXP DUP2 SLOAD DUP2 PUSH20 0xFFFFFFFFFFFFFFFFFFFFFFFFFFFFFFFFFFFFFFFF MUL NOT AND SWAP1 DUP4 PUSH20 0xFFFFFFFFFFFFFFFFFFFFFFFFFFFFFFFFFFFFFFFF AND MUL OR SWAP1 SSTORE POP PUSH2 0x1B51 JUMP JUMPDEST PUSH1 0x0 PUSH20 0xFFFFFFFFFFFFFFFFFFFFFFFFFFFFFFFFFFFFFFFF AND PUSH1 0x0 DUP1 DUP4 PUSH1 0xC0 ADD MLOAD PUSH20 0xFFFFFFFFFFFFFFFFFFFFFFFFFFFFFFFFFFFFFFFF AND PUSH20 0xFFFFFFFFFFFFFFFFFFFFFFFFFFFFFFFFFFFFFFFF AND DUP2 MSTORE PUSH1 0x20 ADD SWAP1 DUP2 MSTORE PUSH1 0x20 ADD PUSH1 0x0 KECCAK256 PUSH1 0x0 SWAP1 SLOAD SWAP1 PUSH2 0x100 EXP SWAP1 DIV PUSH20 0xFFFFFFFFFFFFFFFFFFFFFFFFFFFFFFFFFFFFFFFF AND PUSH20 0xFFFFFFFFFFFFFFFFFFFFFFFFFFFFFFFFFFFFFFFF AND EQ PUSH2 0x197E JUMPI PUSH1 0x40 MLOAD PUSH32 0x8C379A000000000000000000000000000000000000000000000000000000000 DUP2 MSTORE PUSH1 0x4 ADD PUSH2 0x1975 SWAP1 PUSH2 0x3223 JUMP JUMPDEST PUSH1 0x40 MLOAD DUP1 SWAP2 SUB SWAP1 REVERT JUMPDEST PUSH1 0x0 PUSH20 0xFFFFFFFFFFFFFFFFFFFFFFFFFFFFFFFFFFFFFFFF AND PUSH1 0x1 PUSH1 0x0 CALLER PUSH20 0xFFFFFFFFFFFFFFFFFFFFFFFFFFFFFFFFFFFFFFFF AND PUSH20 0xFFFFFFFFFFFFFFFFFFFFFFFFFFFFFFFFFFFFFFFF AND DUP2 MSTORE PUSH1 0x20 ADD SWAP1 DUP2 MSTORE PUSH1 0x20 ADD PUSH1 0x0 KECCAK256 PUSH1 0x0 DUP4 PUSH1 0xC0 ADD MLOAD PUSH20 0xFFFFFFFFFFFFFFFFFFFFFFFFFFFFFFFFFFFFFFFF AND PUSH20 0xFFFFFFFFFFFFFFFFFFFFFFFFFFFFFFFFFFFFFFFF AND DUP2 MSTORE PUSH1 0x20 ADD SWAP1 DUP2 MSTORE PUSH1 0x20 ADD PUSH1 0x0 KECCAK256 PUSH1 0x0 SWAP1 SLOAD SWAP1 PUSH2 0x100 EXP SWAP1 DIV PUSH20 0xFFFFFFFFFFFFFFFFFFFFFFFFFFFFFFFFFFFFFFFF AND PUSH20 0xFFFFFFFFFFFFFFFFFFFFFFFFFFFFFFFFFFFFFFFF AND EQ PUSH2 0x1A8D JUMPI PUSH1 0x40 MLOAD PUSH32 0x8C379A000000000000000000000000000000000000000000000000000000000 DUP2 MSTORE PUSH1 0x4 ADD PUSH2 0x1A84 SWAP1 PUSH2 0x328F JUMP JUMPDEST PUSH1 0x40 MLOAD DUP1 SWAP2 SUB SWAP1 REVERT JUMPDEST DUP1 PUSH1 0xC0 ADD MLOAD PUSH1 0x1 PUSH1 0x0 CALLER PUSH20 0xFFFFFFFFFFFFFFFFFFFFFFFFFFFFFFFFFFFFFFFF AND PUSH20 0xFFFFFFFFFFFFFFFFFFFFFFFFFFFFFFFFFFFFFFFF AND DUP2 MSTORE PUSH1 0x20 ADD SWAP1 DUP2 MSTORE PUSH1 0x20 ADD PUSH1 0x0 KECCAK256 PUSH1 0x0 DUP4 PUSH1 0xC0 ADD MLOAD PUSH20 0xFFFFFFFFFFFFFFFFFFFFFFFFFFFFFFFFFFFFFFFF AND PUSH20 0xFFFFFFFFFFFFFFFFFFFFFFFFFFFFFFFFFFFFFFFF AND DUP2 MSTORE PUSH1 0x20 ADD SWAP1 DUP2 MSTORE PUSH1 0x20 ADD PUSH1 0x0 KECCAK256 PUSH1 0x0 PUSH2 0x100 EXP DUP2 SLOAD DUP2 PUSH20 0xFFFFFFFFFFFFFFFFFFFFFFFFFFFFFFFFFFFFFFFF MUL NOT AND SWAP1 DUP4 PUSH20 0xFFFFFFFFFFFFFFFFFFFFFFFFFFFFFFFFFFFFFFFF AND MUL OR SWAP1 SSTORE POP JUMPDEST POP JUMP JUMPDEST PUSH2 0x1B5C PUSH2 0x24CC JUMP JUMPDEST PUSH1 0x1 ISZERO ISZERO PUSH1 0x2 PUSH1 0x0 DUP5 PUSH20 0xFFFFFFFFFFFFFFFFFFFFFFFFFFFFFFFFFFFFFFFF AND PUSH20 0xFFFFFFFFFFFFFFFFFFFFFFFFFFFFFFFFFFFFFFFF AND DUP2 MSTORE PUSH1 0x20 ADD SWAP1 DUP2 MSTORE PUSH1 0x20 ADD PUSH1 0x0 KECCAK256 PUSH1 0x6 ADD PUSH1 0x14 SWAP1 SLOAD SWAP1 PUSH2 0x100 EXP SWAP1 DIV PUSH1 0xFF AND ISZERO ISZERO EQ PUSH2 0x1BF2 JUMPI PUSH1 0x40 MLOAD PUSH32 0x8C379A000000000000000000000000000000000000000000000000000000000 DUP2 MSTORE PUSH1 0x4 ADD PUSH2 0x1BE9 SWAP1 PUSH2 0x30DF JUMP JUMPDEST PUSH1 0x40 MLOAD DUP1 SWAP2 SUB SWAP1 REVERT JUMPDEST PUSH1 0x2 PUSH1 0x0 DUP4 PUSH20 0xFFFFFFFFFFFFFFFFFFFFFFFFFFFFFFFFFFFFFFFF AND PUSH20 0xFFFFFFFFFFFFFFFFFFFFFFFFFFFFFFFFFFFFFFFF AND DUP2 MSTORE PUSH1 0x20 ADD SWAP1 DUP2 MSTORE PUSH1 0x20 ADD PUSH1 0x0 KECCAK256 PUSH1 0x40 MLOAD DUP1 PUSH2 0x160 ADD PUSH1 0x40 MSTORE SWAP1 DUP2 PUSH1 0x0 DUP3 ADD DUP1 SLOAD PUSH2 0x1C4D SWAP1 PUSH2 0x2D78 JUMP JUMPDEST DUP1 PUSH1 0x1F ADD PUSH1 0x20 DUP1 SWAP2 DIV MUL PUSH1 0x20 ADD PUSH1 0x40 MLOAD SWAP1 DUP2 ADD PUSH1 0x40 MSTORE DUP1 SWAP3 SWAP2 SWAP1 DUP2 DUP2 MSTORE PUSH1 0x20 ADD DUP3 DUP1 SLOAD PUSH2 0x1C79 SWAP1 PUSH2 0x2D78 JUMP JUMPDEST DUP1 ISZERO PUSH2 0x1CC6 JUMPI DUP1 PUSH1 0x1F LT PUSH2 0x1C9B JUMPI PUSH2 0x100 DUP1 DUP4 SLOAD DIV MUL DUP4 MSTORE SWAP2 PUSH1 0x20 ADD SWAP2 PUSH2 0x1CC6 JUMP JUMPDEST DUP3 ADD SWAP2 SWAP1 PUSH1 0x0 MSTORE PUSH1 0x20 PUSH1 0x0 KECCAK256 SWAP1 JUMPDEST DUP2 SLOAD DUP2 MSTORE SWAP1 PUSH1 0x1 ADD SWAP1 PUSH1 0x20 ADD DUP1 DUP4 GT PUSH2 0x1CA9 JUMPI DUP3 SWAP1 SUB PUSH1 0x1F AND DUP3 ADD SWAP2 JUMPDEST POP POP POP POP POP DUP2 MSTORE PUSH1 0x20 ADD PUSH1 0x1 DUP3 ADD DUP1 SLOAD PUSH2 0x1CDF SWAP1 PUSH2 0x2D78 JUMP JUMPDEST DUP1 PUSH1 0x1F ADD PUSH1 0x20 DUP1 SWAP2 DIV MUL PUSH1 0x20 ADD PUSH1 0x40 MLOAD SWAP1 DUP2 ADD PUSH1 0x40 MSTORE DUP1 SWAP3 SWAP2 SWAP1 DUP2 DUP2 MSTORE PUSH1 0x20 ADD DUP3 DUP1 SLOAD PUSH2 0x1D0B SWAP1 PUSH2 0x2D78 JUMP JUMPDEST DUP1 ISZERO PUSH2 0x1D58 JUMPI DUP1 PUSH1 0x1F LT PUSH2 0x1D2D JUMPI PUSH2 0x100 DUP1 DUP4 SLOAD DIV MUL DUP4 MSTORE SWAP2 PUSH1 0x20 ADD SWAP2 PUSH2 0x1D58 JUMP JUMPDEST DUP3 ADD SWAP2 SWAP1 PUSH1 0x0 MSTORE PUSH1 0x20 PUSH1 0x0 KECCAK256 SWAP1 JUMPDEST DUP2 SLOAD DUP2 MSTORE SWAP1 PUSH1 0x1 ADD SWAP1 PUSH1 0x20 ADD DUP1 DUP4 GT PUSH2 0x1D3B JUMPI DUP3 SWAP1 SUB PUSH1 0x1F AND DUP3 ADD SWAP2 JUMPDEST POP POP POP POP POP DUP2 MSTORE PUSH1 0x20 ADD PUSH1 0x2 DUP3 ADD PUSH1 0x0 SWAP1 SLOAD SWAP1 PUSH2 0x100 EXP SWAP1 DIV PUSH1 0xFF AND PUSH1 0xFF AND PUSH1 0xFF AND DUP2 MSTORE PUSH1 0x20 ADD PUSH1 0x2 DUP3 ADD PUSH1 0x1 SWAP1 SLOAD SWAP1 PUSH2 0x100 EXP SWAP1 DIV PUSH1 0xFF AND PUSH1 0xFF AND PUSH1 0xFF AND DUP2 MSTORE PUSH1 0x20 ADD PUSH1 0x3 DUP3 ADD SLOAD DUP2 MSTORE PUSH1 0x20 ADD PUSH1 0x4 DUP3 ADD SLOAD DUP2 MSTORE PUSH1 0x20 ADD PUSH1 0x5 DUP3 ADD PUSH1 0x0 SWAP1 SLOAD SWAP1 PUSH2 0x100 EXP SWAP1 DIV PUSH20 0xFFFFFFFFFFFFFFFFFFFFFFFFFFFFFFFFFFFFFFFF AND PUSH20 0xFFFFFFFFFFFFFFFFFFFFFFFFFFFFFFFFFFFFFFFF AND PUSH20 0xFFFFFFFFFFFFFFFFFFFFFFFFFFFFFFFFFFFFFFFF AND DUP2 MSTORE PUSH1 0x20 ADD PUSH1 0x5 DUP3 ADD PUSH1 0x14 SWAP1 SLOAD SWAP1 PUSH2 0x100 EXP SWAP1 DIV PUSH1 0xFF AND ISZERO ISZERO ISZERO ISZERO DUP2 MSTORE PUSH1 0x20 ADD PUSH1 0x5 DUP3 ADD PUSH1 0x15 SWAP1 SLOAD SWAP1 PUSH2 0x100 EXP SWAP1 DIV PUSH1 0xFF AND ISZERO ISZERO ISZERO ISZERO DUP2 MSTORE PUSH1 0x20 ADD PUSH1 0x6 DUP3 ADD PUSH1 0x0 SWAP1 SLOAD SWAP1 PUSH2 0x100 EXP SWAP1 DIV PUSH20 0xFFFFFFFFFFFFFFFFFFFFFFFFFFFFFFFFFFFFFFFF AND PUSH20 0xFFFFFFFFFFFFFFFFFFFFFFFFFFFFFFFFFFFFFFFF AND PUSH20 0xFFFFFFFFFFFFFFFFFFFFFFFFFFFFFFFFFFFFFFFF AND DUP2 MSTORE PUSH1 0x20 ADD PUSH1 0x6 DUP3 ADD PUSH1 0x14 SWAP1 SLOAD SWAP1 PUSH2 0x100 EXP SWAP1 DIV PUSH1 0xFF AND ISZERO ISZERO ISZERO ISZERO DUP2 MSTORE POP POP SWAP1 POP SWAP2 SWAP1 POP JUMP JUMPDEST PUSH1 0x0 PUSH20 0xFFFFFFFFFFFFFFFFFFFFFFFFFFFFFFFFFFFFFFFF AND PUSH1 0x1 PUSH1 0x0 DUP4 PUSH20 0xFFFFFFFFFFFFFFFFFFFFFFFFFFFFFFFFFFFFFFFF AND PUSH20 0xFFFFFFFFFFFFFFFFFFFFFFFFFFFFFFFFFFFFFFFF AND DUP2 MSTORE PUSH1 0x20 ADD SWAP1 DUP2 MSTORE PUSH1 0x20 ADD PUSH1 0x0 KECCAK256 PUSH1 0x0 DUP5 PUSH20 0xFFFFFFFFFFFFFFFFFFFFFFFFFFFFFFFFFFFFFFFF AND PUSH20 0xFFFFFFFFFFFFFFFFFFFFFFFFFFFFFFFFFFFFFFFF AND DUP2 MSTORE PUSH1 0x20 ADD SWAP1 DUP2 MSTORE PUSH1 0x20 ADD PUSH1 0x0 KECCAK256 PUSH1 0x0 SWAP1 SLOAD SWAP1 PUSH2 0x100 EXP SWAP1 DIV PUSH20 0xFFFFFFFFFFFFFFFFFFFFFFFFFFFFFFFFFFFFFFFF AND PUSH20 0xFFFFFFFFFFFFFFFFFFFFFFFFFFFFFFFFFFFFFFFF AND EQ PUSH2 0x1FBE JUMPI PUSH1 0x40 MLOAD PUSH32 0x8C379A000000000000000000000000000000000000000000000000000000000 DUP2 MSTORE PUSH1 0x4 ADD PUSH2 0x1FB5 SWAP1 PUSH2 0x30DF JUMP JUMPDEST PUSH1 0x40 MLOAD DUP1 SWAP2 SUB SWAP1 REVERT JUMPDEST PUSH1 0x1 PUSH1 0x0 DUP3 PUSH20 0xFFFFFFFFFFFFFFFFFFFFFFFFFFFFFFFFFFFFFFFF AND PUSH20 0xFFFFFFFFFFFFFFFFFFFFFFFFFFFFFFFFFFFFFFFF AND DUP2 MSTORE PUSH1 0x20 ADD SWAP1 DUP2 MSTORE PUSH1 0x20 ADD PUSH1 0x0 KECCAK256 PUSH1 0x0 DUP4 PUSH20 0xFFFFFFFFFFFFFFFFFFFFFFFFFFFFFFFFFFFFFFFF AND PUSH20 0xFFFFFFFFFFFFFFFFFFFFFFFFFFFFFFFFFFFFFFFF AND DUP2 MSTORE PUSH1 0x20 ADD SWAP1 DUP2 MSTORE PUSH1 0x20 ADD PUSH1 0x0 KECCAK256 PUSH1 0x0 PUSH2 0x100 EXP DUP2 SLOAD SWAP1 PUSH20 0xFFFFFFFFFFFFFFFFFFFFFFFFFFFFFFFFFFFFFFFF MUL NOT AND SWAP1 SSTORE POP POP JUMP JUMPDEST PUSH1 0x1 ISZERO ISZERO PUSH1 0x2 PUSH1 0x0 DUP4 PUSH1 0xC0 ADD MLOAD PUSH20 0xFFFFFFFFFFFFFFFFFFFFFFFFFFFFFFFFFFFFFFFF AND PUSH20 0xFFFFFFFFFFFFFFFFFFFFFFFFFFFFFFFFFFFFFFFF AND DUP2 MSTORE PUSH1 0x20 ADD SWAP1 DUP2 MSTORE PUSH1 0x20 ADD PUSH1 0x0 KECCAK256 PUSH1 0x6 ADD PUSH1 0x14 SWAP1 SLOAD SWAP1 PUSH2 0x100 EXP SWAP1 DIV PUSH1 0xFF AND ISZERO ISZERO EQ PUSH2 0x2372 JUMPI CALLER DUP2 PUSH2 0x120 ADD SWAP1 PUSH20 0xFFFFFFFFFFFFFFFFFFFFFFFFFFFFFFFFFFFFFFFF AND SWAP1 DUP2 PUSH20 0xFFFFFFFFFFFFFFFFFFFFFFFFFFFFFFFFFFFFFFFF AND DUP2 MSTORE POP POP PUSH1 0x0 DUP2 PUSH1 0xE0 ADD SWAP1 ISZERO ISZERO SWAP1 DUP2 ISZERO ISZERO DUP2 MSTORE POP POP PUSH1 0x0 DUP2 PUSH2 0x100 ADD SWAP1 ISZERO ISZERO SWAP1 DUP2 ISZERO ISZERO DUP2 MSTORE POP POP PUSH1 0x1 DUP2 PUSH2 0x140 ADD SWAP1 ISZERO ISZERO SWAP1 DUP2 ISZERO ISZERO DUP2 MSTORE POP POP DUP1 PUSH1 0x2 PUSH1 0x0 DUP4 PUSH1 0xC0 ADD MLOAD PUSH20 0xFFFFFFFFFFFFFFFFFFFFFFFFFFFFFFFFFFFFFFFF AND PUSH20 0xFFFFFFFFFFFFFFFFFFFFFFFFFFFFFFFFFFFFFFFF AND DUP2 MSTORE PUSH1 0x20 ADD SWAP1 DUP2 MSTORE PUSH1 0x20 ADD PUSH1 0x0 KECCAK256 PUSH1 0x0 DUP3 ADD MLOAD DUP2 PUSH1 0x0 ADD SWAP1 DUP2 PUSH2 0x2187 SWAP2 SWAP1 PUSH2 0x2FC1 JUMP JUMPDEST POP PUSH1 0x20 DUP3 ADD MLOAD DUP2 PUSH1 0x1 ADD SWAP1 DUP2 PUSH2 0x219D SWAP2 SWAP1 PUSH2 0x2FC1 JUMP JUMPDEST POP PUSH1 0x40 DUP3 ADD MLOAD DUP2 PUSH1 0x2 ADD PUSH1 0x0 PUSH2 0x100 EXP DUP2 SLOAD DUP2 PUSH1 0xFF MUL NOT AND SWAP1 DUP4 PUSH1 0xFF AND MUL OR SWAP1 SSTORE POP PUSH1 0x60 DUP3 ADD MLOAD DUP2 PUSH1 0x2 ADD PUSH1 0x1 PUSH2 0x100 EXP DUP2 SLOAD DUP2 PUSH1 0xFF MUL NOT AND SWAP1 DUP4 PUSH1 0xFF AND MUL OR SWAP1 SSTORE POP PUSH1 0x80 DUP3 ADD MLOAD DUP2 PUSH1 0x3 ADD SSTORE PUSH1 0xA0 DUP3 ADD MLOAD DUP2 PUSH1 0x4 ADD SSTORE PUSH1 0xC0 DUP3 ADD MLOAD DUP2 PUSH1 0x5 ADD PUSH1 0x0 PUSH2 0x100 EXP DUP2 SLOAD DUP2 PUSH20 0xFFFFFFFFFFFFFFFFFFFFFFFFFFFFFFFFFFFFFFFF MUL NOT AND SWAP1 DUP4 PUSH20 0xFFFFFFFFFFFFFFFFFFFFFFFFFFFFFFFFFFFFFFFF AND MUL OR SWAP1 SSTORE POP PUSH1 0xE0 DUP3 ADD MLOAD DUP2 PUSH1 0x5 ADD PUSH1 0x14 PUSH2 0x100 EXP DUP2 SLOAD DUP2 PUSH1 0xFF MUL NOT AND SWAP1 DUP4 ISZERO ISZERO MUL OR SWAP1 SSTORE POP PUSH2 0x100 DUP3 ADD MLOAD DUP2 PUSH1 0x5 ADD PUSH1 0x15 PUSH2 0x100 EXP DUP2 SLOAD DUP2 PUSH1 0xFF MUL NOT AND SWAP1 DUP4 ISZERO ISZERO MUL OR SWAP1 SSTORE POP PUSH2 0x120 DUP3 ADD MLOAD DUP2 PUSH1 0x6 ADD PUSH1 0x0 PUSH2 0x100 EXP DUP2 SLOAD DUP2 PUSH20 0xFFFFFFFFFFFFFFFFFFFFFFFFFFFFFFFFFFFFFFFF MUL NOT AND SWAP1 DUP4 PUSH20 0xFFFFFFFFFFFFFFFFFFFFFFFFFFFFFFFFFFFFFFFF AND MUL OR SWAP1 SSTORE POP PUSH2 0x140 DUP3 ADD MLOAD DUP2 PUSH1 0x6 ADD PUSH1 0x14 PUSH2 0x100 EXP DUP2 SLOAD DUP2 PUSH1 0xFF MUL NOT AND SWAP1 DUP4 ISZERO ISZERO MUL OR SWAP1 SSTORE POP SWAP1 POP POP DUP1 PUSH1 0xC0 ADD MLOAD PUSH1 0x0 DUP1 DUP4 PUSH1 0xC0 ADD MLOAD PUSH20 0xFFFFFFFFFFFFFFFFFFFFFFFFFFFFFFFFFFFFFFFF AND PUSH20 0xFFFFFFFFFFFFFFFFFFFFFFFFFFFFFFFFFFFFFFFF AND DUP2 MSTORE PUSH1 0x20 ADD SWAP1 DUP2 MSTORE PUSH1 0x20 ADD PUSH1 0x0 KECCAK256 PUSH1 0x0 PUSH2 0x100 EXP DUP2 SLOAD DUP2 PUSH20 0xFFFFFFFFFFFFFFFFFFFFFFFFFFFFFFFFFFFFFFFF MUL NOT AND SWAP1 DUP4 PUSH20 0xFFFFFFFFFFFFFFFFFFFFFFFFFFFFFFFFFFFFFFFF AND MUL OR SWAP1 SSTORE POP PUSH2 0x24C9 JUMP JUMPDEST PUSH1 0x0 PUSH20 0xFFFFFFFFFFFFFFFFFFFFFFFFFFFFFFFFFFFFFFFF AND PUSH1 0x0 DUP1 DUP4 PUSH1 0xC0 ADD MLOAD PUSH20 0xFFFFFFFFFFFFFFFFFFFFFFFFFFFFFFFFFFFFFFFF AND PUSH20 0xFFFFFFFFFFFFFFFFFFFFFFFFFFFFFFFFFFFFFFFF AND DUP2 MSTORE PUSH1 0x20 ADD SWAP1 DUP2 MSTORE PUSH1 0x20 ADD PUSH1 0x0 KECCAK256 PUSH1 0x0 SWAP1 SLOAD SWAP1 PUSH2 0x100 EXP SWAP1 DIV PUSH20 0xFFFFFFFFFFFFFFFFFFFFFFFFFFFFFFFFFFFFFFFF AND PUSH20 0xFFFFFFFFFFFFFFFFFFFFFFFFFFFFFFFFFFFFFFFF AND EQ PUSH2 0x2443 JUMPI PUSH1 0x40 MLOAD PUSH32 0x8C379A000000000000000000000000000000000000000000000000000000000 DUP2 MSTORE PUSH1 0x4 ADD PUSH2 0x243A SWAP1 PUSH2 0x3223 JUMP JUMPDEST PUSH1 0x40 MLOAD DUP1 SWAP2 SUB SWAP1 REVERT JUMPDEST DUP1 PUSH1 0xC0 ADD MLOAD PUSH1 0x0 DUP1 DUP4 PUSH1 0xC0 ADD MLOAD PUSH20 0xFFFFFFFFFFFFFFFFFFFFFFFFFFFFFFFFFFFFFFFF AND PUSH20 0xFFFFFFFFFFFFFFFFFFFFFFFFFFFFFFFFFFFFFFFF AND DUP2 MSTORE PUSH1 0x20 ADD SWAP1 DUP2 MSTORE PUSH1 0x20 ADD PUSH1 0x0 KECCAK256 PUSH1 0x0 PUSH2 0x100 EXP DUP2 SLOAD DUP2 PUSH20 0xFFFFFFFFFFFFFFFFFFFFFFFFFFFFFFFFFFFFFFFF MUL NOT AND SWAP1 DUP4 PUSH20 0xFFFFFFFFFFFFFFFFFFFFFFFFFFFFFFFFFFFFFFFF AND MUL OR SWAP1 SSTORE POP JUMPDEST POP JUMP JUMPDEST PUSH1 0x40 MLOAD DUP1 PUSH2 0x160 ADD PUSH1 0x40 MSTORE DUP1 PUSH1 0x60 DUP2 MSTORE PUSH1 0x20 ADD PUSH1 0x60 DUP2 MSTORE PUSH1 0x20 ADD PUSH1 0x0 PUSH1 0xFF AND DUP2 MSTORE PUSH1 0x20 ADD PUSH1 0x0 PUSH1 0xFF AND DUP2 MSTORE PUSH1 0x20 ADD PUSH1 0x0 DUP2 MSTORE PUSH1 0x20 ADD PUSH1 0x0 DUP2 MSTORE PUSH1 0x20 ADD PUSH1 0x0 PUSH20 0xFFFFFFFFFFFFFFFFFFFFFFFFFFFFFFFFFFFFFFFF AND DUP2 MSTORE PUSH1 0x20 ADD PUSH1 0x0 ISZERO ISZERO DUP2 MSTORE PUSH1 0x20 ADD PUSH1 0x0 ISZERO ISZERO DUP2 MSTORE PUSH1 0x20 ADD PUSH1 0x0 PUSH20 0xFFFFFFFFFFFFFFFFFFFFFFFFFFFFFFFFFFFFFFFF AND DUP2 MSTORE PUSH1 0x20 ADD PUSH1 0x0 ISZERO ISZERO DUP2 MSTORE POP SWAP1 JUMP JUMPDEST PUSH1 0x0 PUSH1 0x40 MLOAD SWAP1 POP SWAP1 JUMP JUMPDEST PUSH1 0x0 DUP1 REVERT JUMPDEST PUSH1 0x0 DUP1 REVERT JUMPDEST PUSH1 0x0 PUSH20 0xFFFFFFFFFFFFFFFFFFFFFFFFFFFFFFFFFFFFFFFF DUP3 AND SWAP1 POP SWAP2 SWAP1 POP JUMP JUMPDEST PUSH1 0x0 PUSH2 0x259D DUP3 PUSH2 0x2572 JUMP JUMPDEST SWAP1 POP SWAP2 SWAP1 POP JUMP JUMPDEST PUSH2 0x25AD DUP2 PUSH2 0x2592 JUMP JUMPDEST DUP2 EQ PUSH2 0x25B8 JUMPI PUSH1 0x0 DUP1 REVERT JUMPDEST POP JUMP JUMPDEST PUSH1 0x0 DUP2 CALLDATALOAD SWAP1 POP PUSH2 0x25CA DUP2 PUSH2 0x25A4 JUMP JUMPDEST SWAP3 SWAP2 POP POP JUMP JUMPDEST PUSH1 0x0 PUSH1 0x20 DUP3 DUP5 SUB SLT ISZERO PUSH2 0x25E6 JUMPI PUSH2 0x25E5 PUSH2 0x2568 JUMP JUMPDEST JUMPDEST PUSH1 0x0 PUSH2 0x25F4 DUP5 DUP3 DUP6 ADD PUSH2 0x25BB JUMP JUMPDEST SWAP2 POP POP SWAP3 SWAP2 POP POP JUMP JUMPDEST PUSH1 0x0 DUP2 MLOAD SWAP1 POP SWAP2 SWAP1 POP JUMP JUMPDEST PUSH1 0x0 DUP3 DUP3 MSTORE PUSH1 0x20 DUP3 ADD SWAP1 POP SWAP3 SWAP2 POP POP JUMP JUMPDEST PUSH1 0x0 JUMPDEST DUP4 DUP2 LT ISZERO PUSH2 0x2637 JUMPI DUP1 DUP3 ADD MLOAD DUP2 DUP5 ADD MSTORE PUSH1 0x20 DUP2 ADD SWAP1 POP PUSH2 0x261C JUMP JUMPDEST PUSH1 0x0 DUP5 DUP5 ADD MSTORE POP POP POP POP JUMP JUMPDEST PUSH1 0x0 PUSH1 0x1F NOT PUSH1 0x1F DUP4 ADD AND SWAP1 POP SWAP2 SWAP1 POP JUMP JUMPDEST PUSH1 0x0 PUSH2 0x265F DUP3 PUSH2 0x25FD JUMP JUMPDEST PUSH2 0x2669 DUP2 DUP6 PUSH2 0x2608 JUMP JUMPDEST SWAP4 POP PUSH2 0x2679 DUP2 DUP6 PUSH1 0x20 DUP7 ADD PUSH2 0x2619 JUMP JUMPDEST PUSH2 0x2682 DUP2 PUSH2 0x2643 JUMP JUMPDEST DUP5 ADD SWAP2 POP POP SWAP3 SWAP2 POP POP JUMP JUMPDEST PUSH1 0x0 PUSH1 0xFF DUP3 AND SWAP1 POP SWAP2 SWAP1 POP JUMP JUMPDEST PUSH2 0x26A3 DUP2 PUSH2 0x268D JUMP JUMPDEST DUP3 MSTORE POP POP JUMP JUMPDEST PUSH1 0x0 DUP2 SWAP1 POP SWAP2 SWAP1 POP JUMP JUMPDEST PUSH2 0x26BC DUP2 PUSH2 0x26A9 JUMP JUMPDEST DUP3 MSTORE POP POP JUMP JUMPDEST PUSH2 0x26CB DUP2 PUSH2 0x2592 JUMP JUMPDEST DUP3 MSTORE POP POP JUMP JUMPDEST PUSH1 0x0 DUP2 ISZERO ISZERO SWAP1 POP SWAP2 SWAP1 POP JUMP JUMPDEST PUSH2 0x26E6 DUP2 PUSH2 0x26D1 JUMP JUMPDEST DUP3 MSTORE POP POP JUMP JUMPDEST PUSH1 0x0 PUSH2 0x160 DUP3 ADD SWAP1 POP DUP2 DUP2 SUB PUSH1 0x0 DUP4 ADD MSTORE PUSH2 0x2707 DUP2 DUP15 PUSH2 0x2654 JUMP JUMPDEST SWAP1 POP DUP2 DUP2 SUB PUSH1 0x20 DUP4 ADD MSTORE PUSH2 0x271B DUP2 DUP14 PUSH2 0x2654 JUMP JUMPDEST SWAP1 POP PUSH2 0x272A PUSH1 0x40 DUP4 ADD DUP13 PUSH2 0x269A JUMP JUMPDEST PUSH2 0x2737 PUSH1 0x60 DUP4 ADD DUP12 PUSH2 0x269A JUMP JUMPDEST PUSH2 0x2744 PUSH1 0x80 DUP4 ADD DUP11 PUSH2 0x26B3 JUMP JUMPDEST PUSH2 0x2751 PUSH1 0xA0 DUP4 ADD DUP10 PUSH2 0x26B3 JUMP JUMPDEST PUSH2 0x275E PUSH1 0xC0 DUP4 ADD DUP9 PUSH2 0x26C2 JUMP JUMPDEST PUSH2 0x276B PUSH1 0xE0 DUP4 ADD DUP8 PUSH2 0x26DD JUMP JUMPDEST PUSH2 0x2779 PUSH2 0x100 DUP4 ADD DUP7 PUSH2 0x26DD JUMP JUMPDEST PUSH2 0x2787 PUSH2 0x120 DUP4 ADD DUP6 PUSH2 0x26C2 JUMP JUMPDEST PUSH2 0x2795 PUSH2 0x140 DUP4 ADD DUP5 PUSH2 0x26DD JUMP JUMPDEST SWAP13 SWAP12 POP POP POP POP POP POP POP POP POP POP POP POP JUMP JUMPDEST PUSH1 0x0 PUSH1 0x20 DUP3 ADD SWAP1 POP PUSH2 0x27BA PUSH1 0x0 DUP4 ADD DUP5 PUSH2 0x26DD JUMP JUMPDEST SWAP3 SWAP2 POP POP JUMP JUMPDEST PUSH1 0x0 PUSH1 0x20 DUP3 ADD SWAP1 POP PUSH2 0x27D5 PUSH1 0x0 DUP4 ADD DUP5 PUSH2 0x26C2 JUMP JUMPDEST SWAP3 SWAP2 POP POP JUMP JUMPDEST PUSH1 0x0 DUP1 REVERT JUMPDEST PUSH32 0x4E487B7100000000000000000000000000000000000000000000000000000000 PUSH1 0x0 MSTORE PUSH1 0x41 PUSH1 0x4 MSTORE PUSH1 0x24 PUSH1 0x0 REVERT JUMPDEST PUSH2 0x2818 DUP3 PUSH2 0x2643 JUMP JUMPDEST DUP2 ADD DUP2 DUP2 LT PUSH8 0xFFFFFFFFFFFFFFFF DUP3 GT OR ISZERO PUSH2 0x2837 JUMPI PUSH2 0x2836 PUSH2 0x27E0 JUMP JUMPDEST JUMPDEST DUP1 PUSH1 0x40 MSTORE POP POP POP JUMP JUMPDEST PUSH1 0x0 PUSH2 0x284A PUSH2 0x255E JUMP JUMPDEST SWAP1 POP PUSH2 0x2856 DUP3 DUP3 PUSH2 0x280F JUMP JUMPDEST SWAP2 SWAP1 POP JUMP JUMPDEST PUSH1 0x0 DUP1 REVERT JUMPDEST PUSH1 0x0 DUP1 REVERT JUMPDEST PUSH1 0x0 DUP1 REVERT JUMPDEST PUSH1 0x0 PUSH8 0xFFFFFFFFFFFFFFFF DUP3 GT ISZERO PUSH2 0x2885 JUMPI PUSH2 0x2884 PUSH2 0x27E0 JUMP JUMPDEST JUMPDEST PUSH2 0x288E DUP3 PUSH2 0x2643 JUMP JUMPDEST SWAP1 POP PUSH1 0x20 DUP2 ADD SWAP1 POP SWAP2 SWAP1 POP JUMP JUMPDEST DUP3 DUP2 DUP4 CALLDATACOPY PUSH1 0x0 DUP4 DUP4 ADD MSTORE POP POP POP JUMP JUMPDEST PUSH1 0x0 PUSH2 0x28BD PUSH2 0x28B8 DUP5 PUSH2 0x286A JUMP JUMPDEST PUSH2 0x2840 JUMP JUMPDEST SWAP1 POP DUP3 DUP2 MSTORE PUSH1 0x20 DUP2 ADD DUP5 DUP5 DUP5 ADD GT ISZERO PUSH2 0x28D9 JUMPI PUSH2 0x28D8 PUSH2 0x2865 JUMP JUMPDEST JUMPDEST PUSH2 0x28E4 DUP5 DUP3 DUP6 PUSH2 0x289B JUMP JUMPDEST POP SWAP4 SWAP3 POP POP POP JUMP JUMPDEST PUSH1 0x0 DUP3 PUSH1 0x1F DUP4 ADD SLT PUSH2 0x2901 JUMPI PUSH2 0x2900 PUSH2 0x2860 JUMP JUMPDEST JUMPDEST DUP2 CALLDATALOAD PUSH2 0x2911 DUP5 DUP3 PUSH1 0x20 DUP7 ADD PUSH2 0x28AA JUMP JUMPDEST SWAP2 POP POP SWAP3 SWAP2 POP POP JUMP JUMPDEST PUSH2 0x2923 DUP2 PUSH2 0x268D JUMP JUMPDEST DUP2 EQ PUSH2 0x292E JUMPI PUSH1 0x0 DUP1 REVERT JUMPDEST POP JUMP JUMPDEST PUSH1 0x0 DUP2 CALLDATALOAD SWAP1 POP PUSH2 0x2940 DUP2 PUSH2 0x291A JUMP JUMPDEST SWAP3 SWAP2 POP POP JUMP JUMPDEST PUSH2 0x294F DUP2 PUSH2 0x26A9 JUMP JUMPDEST DUP2 EQ PUSH2 0x295A JUMPI PUSH1 0x0 DUP1 REVERT JUMPDEST POP JUMP JUMPDEST PUSH1 0x0 DUP2 CALLDATALOAD SWAP1 POP PUSH2 0x296C DUP2 PUSH2 0x2946 JUMP JUMPDEST SWAP3 SWAP2 POP POP JUMP JUMPDEST PUSH2 0x297B DUP2 PUSH2 0x26D1 JUMP JUMPDEST DUP2 EQ PUSH2 0x2986 JUMPI PUSH1 0x0 DUP1 REVERT JUMPDEST POP JUMP JUMPDEST PUSH1 0x0 DUP2 CALLDATALOAD SWAP1 POP PUSH2 0x2998 DUP2 PUSH2 0x2972 JUMP JUMPDEST SWAP3 SWAP2 POP POP JUMP JUMPDEST PUSH1 0x0 PUSH2 0x160 DUP3 DUP5 SUB SLT ISZERO PUSH2 0x29B5 JUMPI PUSH2 0x29B4 PUSH2 0x27DB JUMP JUMPDEST JUMPDEST PUSH2 0x29C0 PUSH2 0x160 PUSH2 0x2840 JUMP JUMPDEST SWAP1 POP PUSH1 0x0 DUP3 ADD CALLDATALOAD PUSH8 0xFFFFFFFFFFFFFFFF DUP2 GT ISZERO PUSH2 0x29E0 JUMPI PUSH2 0x29DF PUSH2 0x285B JUMP JUMPDEST JUMPDEST PUSH2 0x29EC DUP5 DUP3 DUP6 ADD PUSH2 0x28EC JUMP JUMPDEST PUSH1 0x0 DUP4 ADD MSTORE POP PUSH1 0x20 DUP3 ADD CALLDATALOAD PUSH8 0xFFFFFFFFFFFFFFFF DUP2 GT ISZERO PUSH2 0x2A10 JUMPI PUSH2 0x2A0F PUSH2 0x285B JUMP JUMPDEST JUMPDEST PUSH2 0x2A1C DUP5 DUP3 DUP6 ADD PUSH2 0x28EC JUMP JUMPDEST PUSH1 0x20 DUP4 ADD MSTORE POP PUSH1 0x40 PUSH2 0x2A30 DUP5 DUP3 DUP6 ADD PUSH2 0x2931 JUMP JUMPDEST PUSH1 0x40 DUP4 ADD MSTORE POP PUSH1 0x60 PUSH2 0x2A44 DUP5 DUP3 DUP6 ADD PUSH2 0x2931 JUMP JUMPDEST PUSH1 0x60 DUP4 ADD MSTORE POP PUSH1 0x80 PUSH2 0x2A58 DUP5 DUP3 DUP6 ADD PUSH2 0x295D JUMP JUMPDEST PUSH1 0x80 DUP4 ADD MSTORE POP PUSH1 0xA0 PUSH2 0x2A6C DUP5 DUP3 DUP6 ADD PUSH2 0x295D JUMP JUMPDEST PUSH1 0xA0 DUP4 ADD MSTORE POP PUSH1 0xC0 PUSH2 0x2A80 DUP5 DUP3 DUP6 ADD PUSH2 0x25BB JUMP JUMPDEST PUSH1 0xC0 DUP4 ADD MSTORE POP PUSH1 0xE0 PUSH2 0x2A94 DUP5 DUP3 DUP6 ADD PUSH2 0x2989 JUMP JUMPDEST PUSH1 0xE0 DUP4 ADD MSTORE POP PUSH2 0x100 PUSH2 0x2AA9 DUP5 DUP3 DUP6 ADD PUSH2 0x2989 JUMP JUMPDEST PUSH2 0x100 DUP4 ADD MSTORE POP PUSH2 0x120 PUSH2 0x2ABF DUP5 DUP3 DUP6 ADD PUSH2 0x25BB JUMP JUMPDEST PUSH2 0x120 DUP4 ADD MSTORE POP PUSH2 0x140 PUSH2 0x2AD5 DUP5 DUP3 DUP6 ADD PUSH2 0x2989 JUMP JUMPDEST PUSH2 0x140 DUP4 ADD MSTORE POP SWAP3 SWAP2 POP POP JUMP JUMPDEST PUSH1 0x0 PUSH1 0x20 DUP3 DUP5 SUB SLT ISZERO PUSH2 0x2AF8 JUMPI PUSH2 0x2AF7 PUSH2 0x2568 JUMP JUMPDEST JUMPDEST PUSH1 0x0 DUP3 ADD CALLDATALOAD PUSH8 0xFFFFFFFFFFFFFFFF DUP2 GT ISZERO PUSH2 0x2B16 JUMPI PUSH2 0x2B15 PUSH2 0x256D JUMP JUMPDEST JUMPDEST PUSH2 0x2B22 DUP5 DUP3 DUP6 ADD PUSH2 0x299E JUMP JUMPDEST SWAP2 POP POP SWAP3 SWAP2 POP POP JUMP JUMPDEST PUSH1 0x0 DUP1 PUSH1 0x40 DUP4 DUP6 SUB SLT ISZERO PUSH2 0x2B42 JUMPI PUSH2 0x2B41 PUSH2 0x2568 JUMP JUMPDEST JUMPDEST PUSH1 0x0 PUSH2 0x2B50 DUP6 DUP3 DUP7 ADD PUSH2 0x25BB JUMP JUMPDEST SWAP3 POP POP PUSH1 0x20 PUSH2 0x2B61 DUP6 DUP3 DUP7 ADD PUSH2 0x2931 JUMP JUMPDEST SWAP2 POP POP SWAP3 POP SWAP3 SWAP1 POP JUMP JUMPDEST PUSH1 0x0 DUP1 PUSH1 0x40 DUP4 DUP6 SUB SLT ISZERO PUSH2 0x2B82 JUMPI PUSH2 0x2B81 PUSH2 0x2568 JUMP JUMPDEST JUMPDEST PUSH1 0x0 PUSH2 0x2B90 DUP6 DUP3 DUP7 ADD PUSH2 0x25BB JUMP JUMPDEST SWAP3 POP POP PUSH1 0x20 PUSH2 0x2BA1 DUP6 DUP3 DUP7 ADD PUSH2 0x25BB JUMP JUMPDEST SWAP2 POP POP SWAP3 POP SWAP3 SWAP1 POP JUMP JUMPDEST PUSH1 0x0 DUP3 DUP3 MSTORE PUSH1 0x20 DUP3 ADD SWAP1 POP SWAP3 SWAP2 POP POP JUMP JUMPDEST PUSH1 0x0 PUSH2 0x2BC7 DUP3 PUSH2 0x25FD JUMP JUMPDEST PUSH2 0x2BD1 DUP2 DUP6 PUSH2 0x2BAB JUMP JUMPDEST SWAP4 POP PUSH2 0x2BE1 DUP2 DUP6 PUSH1 0x20 DUP7 ADD PUSH2 0x2619 JUMP JUMPDEST PUSH2 0x2BEA DUP2 PUSH2 0x2643 JUMP JUMPDEST DUP5 ADD SWAP2 POP POP SWAP3 SWAP2 POP POP JUMP JUMPDEST PUSH2 0x2BFE DUP2 PUSH2 0x268D JUMP JUMPDEST DUP3 MSTORE POP POP JUMP JUMPDEST PUSH2 0x2C0D DUP2 PUSH2 0x26A9 JUMP JUMPDEST DUP3 MSTORE POP POP JUMP JUMPDEST PUSH2 0x2C1C DUP2 PUSH2 0x2592 JUMP JUMPDEST DUP3 MSTORE POP POP JUMP JUMPDEST PUSH2 0x2C2B DUP2 PUSH2 0x26D1 JUMP JUMPDEST DUP3 MSTORE POP POP JUMP JUMPDEST PUSH1 0x0 PUSH2 0x160 DUP4 ADD PUSH1 0x0 DUP4 ADD MLOAD DUP5 DUP3 SUB PUSH1 0x0 DUP7 ADD MSTORE PUSH2 0x2C4F DUP3 DUP3 PUSH2 0x2BBC JUMP JUMPDEST SWAP2 POP POP PUSH1 0x20 DUP4 ADD MLOAD DUP5 DUP3 SUB PUSH1 0x20 DUP7 ADD MSTORE PUSH2 0x2C69 DUP3 DUP3 PUSH2 0x2BBC JUMP JUMPDEST SWAP2 POP POP PUSH1 0x40 DUP4 ADD MLOAD PUSH2 0x2C7E PUSH1 0x40 DUP7 ADD DUP3 PUSH2 0x2BF5 JUMP JUMPDEST POP PUSH1 0x60 DUP4 ADD MLOAD PUSH2 0x2C91 PUSH1 0x60 DUP7 ADD DUP3 PUSH2 0x2BF5 JUMP JUMPDEST POP PUSH1 0x80 DUP4 ADD MLOAD PUSH2 0x2CA4 PUSH1 0x80 DUP7 ADD DUP3 PUSH2 0x2C04 JUMP JUMPDEST POP PUSH1 0xA0 DUP4 ADD MLOAD PUSH2 0x2CB7 PUSH1 0xA0 DUP7 ADD DUP3 PUSH2 0x2C04 JUMP JUMPDEST POP PUSH1 0xC0 DUP4 ADD MLOAD PUSH2 0x2CCA PUSH1 0xC0 DUP7 ADD DUP3 PUSH2 0x2C13 JUMP JUMPDEST POP PUSH1 0xE0 DUP4 ADD MLOAD PUSH2 0x2CDD PUSH1 0xE0 DUP7 ADD DUP3 PUSH2 0x2C22 JUMP JUMPDEST POP PUSH2 0x100 DUP4 ADD MLOAD PUSH2 0x2CF2 PUSH2 0x100 DUP7 ADD DUP3 PUSH2 0x2C22 JUMP JUMPDEST POP PUSH2 0x120 DUP4 ADD MLOAD PUSH2 0x2D07 PUSH2 0x120 DUP7 ADD DUP3 PUSH2 0x2C13 JUMP JUMPDEST POP PUSH2 0x140 DUP4 ADD MLOAD PUSH2 0x2D1C PUSH2 0x140 DUP7 ADD DUP3 PUSH2 0x2C22 JUMP JUMPDEST POP DUP1 SWAP2 POP POP SWAP3 SWAP2 POP POP JUMP JUMPDEST PUSH1 0x0 PUSH1 0x20 DUP3 ADD SWAP1 POP DUP2 DUP2 SUB PUSH1 0x0 DUP4 ADD MSTORE PUSH2 0x2D41 DUP2 DUP5 PUSH2 0x2C31 JUMP JUMPDEST SWAP1 POP SWAP3 SWAP2 POP POP JUMP JUMPDEST PUSH32 0x4E487B7100000000000000000000000000000000000000000000000000000000 PUSH1 0x0 MSTORE PUSH1 0x22 PUSH1 0x4 MSTORE PUSH1 0x24 PUSH1 0x0 REVERT JUMPDEST PUSH1 0x0 PUSH1 0x2 DUP3 DIV SWAP1 POP PUSH1 0x1 DUP3 AND DUP1 PUSH2 0x2D90 JUMPI PUSH1 0x7F DUP3 AND SWAP2 POP JUMPDEST PUSH1 0x20 DUP3 LT DUP2 SUB PUSH2 0x2DA3 JUMPI PUSH2 0x2DA2 PUSH2 0x2D49 JUMP JUMPDEST JUMPDEST POP SWAP2 SWAP1 POP JUMP JUMPDEST PUSH32 0x796F752068617665206E6F742074686520726967687400000000000000000000 PUSH1 0x0 DUP3 ADD MSTORE POP JUMP JUMPDEST PUSH1 0x0 PUSH2 0x2DDF PUSH1 0x16 DUP4 PUSH2 0x2608 JUMP JUMPDEST SWAP2 POP PUSH2 0x2DEA DUP3 PUSH2 0x2DA9 JUMP JUMPDEST PUSH1 0x20 DUP3 ADD SWAP1 POP SWAP2 SWAP1 POP JUMP JUMPDEST PUSH1 0x0 PUSH1 0x20 DUP3 ADD SWAP1 POP DUP2 DUP2 SUB PUSH1 0x0 DUP4 ADD MSTORE PUSH2 0x2E0E DUP2 PUSH2 0x2DD2 JUMP JUMPDEST SWAP1 POP SWAP2 SWAP1 POP JUMP JUMPDEST PUSH1 0x0 DUP2 SWAP1 POP DUP2 PUSH1 0x0 MSTORE PUSH1 0x20 PUSH1 0x0 KECCAK256 SWAP1 POP SWAP2 SWAP1 POP JUMP JUMPDEST PUSH1 0x0 PUSH1 0x20 PUSH1 0x1F DUP4 ADD DIV SWAP1 POP SWAP2 SWAP1 POP JUMP JUMPDEST PUSH1 0x0 DUP3 DUP3 SHL SWAP1 POP SWAP3 SWAP2 POP POP JUMP JUMPDEST PUSH1 0x0 PUSH1 0x8 DUP4 MUL PUSH2 0x2E77 PUSH32 0xFFFFFFFFFFFFFFFFFFFFFFFFFFFFFFFFFFFFFFFFFFFFFFFFFFFFFFFFFFFFFFFF DUP3 PUSH2 0x2E3A JUMP JUMPDEST PUSH2 0x2E81 DUP7 DUP4 PUSH2 0x2E3A JUMP JUMPDEST SWAP6 POP DUP1 NOT DUP5 AND SWAP4 POP DUP1 DUP7 AND DUP5 OR SWAP3 POP POP POP SWAP4 SWAP3 POP POP POP JUMP JUMPDEST PUSH1 0x0 DUP2 SWAP1 POP SWAP2 SWAP1 POP JUMP JUMPDEST PUSH1 0x0 PUSH2 0x2EBE PUSH2 0x2EB9 PUSH2 0x2EB4 DUP5 PUSH2 0x26A9 JUMP JUMPDEST PUSH2 0x2E99 JUMP JUMPDEST PUSH2 0x26A9 JUMP JUMPDEST SWAP1 POP SWAP2 SWAP1 POP JUMP JUMPDEST PUSH1 0x0 DUP2 SWAP1 POP SWAP2 SWAP1 POP JUMP JUMPDEST PUSH2 0x2ED8 DUP4 PUSH2 0x2EA3 JUMP JUMPDEST PUSH2 0x2EEC PUSH2 0x2EE4 DUP3 PUSH2 0x2EC5 JUMP JUMPDEST DUP5 DUP5 SLOAD PUSH2 0x2E47 JUMP JUMPDEST DUP3 SSTORE POP POP POP POP JUMP JUMPDEST PUSH1 0x0 SWAP1 JUMP JUMPDEST PUSH2 0x2F01 PUSH2 0x2EF4 JUMP JUMPDEST PUSH2 0x2F0C DUP2 DUP5 DUP5 PUSH2 0x2ECF JUMP JUMPDEST POP POP POP JUMP JUMPDEST JUMPDEST DUP2 DUP2 LT ISZERO PUSH2 0x2F30 JUMPI PUSH2 0x2F25 PUSH1 0x0 DUP3 PUSH2 0x2EF9 JUMP JUMPDEST PUSH1 0x1 DUP2 ADD SWAP1 POP PUSH2 0x2F12 JUMP JUMPDEST POP POP JUMP JUMPDEST PUSH1 0x1F DUP3 GT ISZERO PUSH2 0x2F75 JUMPI PUSH2 0x2F46 DUP2 PUSH2 0x2E15 JUMP JUMPDEST PUSH2 0x2F4F DUP5 PUSH2 0x2E2A JUMP JUMPDEST DUP2 ADD PUSH1 0x20 DUP6 LT ISZERO PUSH2 0x2F5E JUMPI DUP2 SWAP1 POP JUMPDEST PUSH2 0x2F72 PUSH2 0x2F6A DUP6 PUSH2 0x2E2A JUMP JUMPDEST DUP4 ADD DUP3 PUSH2 0x2F11 JUMP JUMPDEST POP POP JUMPDEST POP POP POP JUMP JUMPDEST PUSH1 0x0 DUP3 DUP3 SHR SWAP1 POP SWAP3 SWAP2 POP POP JUMP JUMPDEST PUSH1 0x0 PUSH2 0x2F98 PUSH1 0x0 NOT DUP5 PUSH1 0x8 MUL PUSH2 0x2F7A JUMP JUMPDEST NOT DUP1 DUP4 AND SWAP2 POP POP SWAP3 SWAP2 POP POP JUMP JUMPDEST PUSH1 0x0 PUSH2 0x2FB1 DUP4 DUP4 PUSH2 0x2F87 JUMP JUMPDEST SWAP2 POP DUP3 PUSH1 0x2 MUL DUP3 OR SWAP1 POP SWAP3 SWAP2 POP POP JUMP JUMPDEST PUSH2 0x2FCA DUP3 PUSH2 0x25FD JUMP JUMPDEST PUSH8 0xFFFFFFFFFFFFFFFF DUP2 GT ISZERO PUSH2 0x2FE3 JUMPI PUSH2 0x2FE2 PUSH2 0x27E0 JUMP JUMPDEST JUMPDEST PUSH2 0x2FED DUP3 SLOAD PUSH2 0x2D78 JUMP JUMPDEST PUSH2 0x2FF8 DUP3 DUP3 DUP6 PUSH2 0x2F34 JUMP JUMPDEST PUSH1 0x0 PUSH1 0x20 SWAP1 POP PUSH1 0x1F DUP4 GT PUSH1 0x1 DUP2 EQ PUSH2 0x302B JUMPI PUSH1 0x0 DUP5 ISZERO PUSH2 0x3019 JUMPI DUP3 DUP8 ADD MLOAD SWAP1 POP JUMPDEST PUSH2 0x3023 DUP6 DUP3 PUSH2 0x2FA5 JUMP JUMPDEST DUP7 SSTORE POP PUSH2 0x308B JUMP JUMPDEST PUSH1 0x1F NOT DUP5 AND PUSH2 0x3039 DUP7 PUSH2 0x2E15 JUMP JUMPDEST PUSH1 0x0 JUMPDEST DUP3 DUP2 LT ISZERO PUSH2 0x3061 JUMPI DUP5 DUP10 ADD MLOAD DUP3 SSTORE PUSH1 0x1 DUP3 ADD SWAP2 POP PUSH1 0x20 DUP6 ADD SWAP5 POP PUSH1 0x20 DUP2 ADD SWAP1 POP PUSH2 0x303C JUMP JUMPDEST DUP7 DUP4 LT ISZERO PUSH2 0x307E JUMPI DUP5 DUP10 ADD MLOAD PUSH2 0x307A PUSH1 0x1F DUP10 AND DUP3 PUSH2 0x2F87 JUMP JUMPDEST DUP4 SSTORE POP JUMPDEST PUSH1 0x1 PUSH1 0x2 DUP9 MUL ADD DUP9 SSTORE POP POP POP JUMPDEST POP POP POP POP POP POP JUMP JUMPDEST PUSH32 0x74686520636F696E206973206E6F742065786973747300000000000000000000 PUSH1 0x0 DUP3 ADD MSTORE POP JUMP JUMPDEST PUSH1 0x0 PUSH2 0x30C9 PUSH1 0x16 DUP4 PUSH2 0x2608 JUMP JUMPDEST SWAP2 POP PUSH2 0x30D4 DUP3 PUSH2 0x3093 JUMP JUMPDEST PUSH1 0x20 DUP3 ADD SWAP1 POP SWAP2 SWAP1 POP JUMP JUMPDEST PUSH1 0x0 PUSH1 0x20 DUP3 ADD SWAP1 POP DUP2 DUP2 SUB PUSH1 0x0 DUP4 ADD MSTORE PUSH2 0x30F8 DUP2 PUSH2 0x30BC JUMP JUMPDEST SWAP1 POP SWAP2 SWAP1 POP JUMP JUMPDEST PUSH32 0x74686520636F696E2073636F7065206973206E6F74206A757374696669656420 PUSH1 0x0 DUP3 ADD MSTORE POP JUMP JUMPDEST PUSH1 0x0 PUSH2 0x3135 PUSH1 0x20 DUP4 PUSH2 0x2608 JUMP JUMPDEST SWAP2 POP PUSH2 0x3140 DUP3 PUSH2 0x30FF JUMP JUMPDEST PUSH1 0x20 DUP3 ADD SWAP1 POP SWAP2 SWAP1 POP JUMP JUMPDEST PUSH1 0x0 PUSH1 0x20 DUP3 ADD SWAP1 POP DUP2 DUP2 SUB PUSH1 0x0 DUP4 ADD MSTORE PUSH2 0x3164 DUP2 PUSH2 0x3128 JUMP JUMPDEST SWAP1 POP SWAP2 SWAP1 POP JUMP JUMPDEST PUSH32 0x74686520636F696E206973202065786973747320696E206D61726B6574000000 PUSH1 0x0 DUP3 ADD MSTORE POP JUMP JUMPDEST PUSH1 0x0 PUSH2 0x31A1 PUSH1 0x1D DUP4 PUSH2 0x2608 JUMP JUMPDEST SWAP2 POP PUSH2 0x31AC DUP3 PUSH2 0x316B JUMP JUMPDEST PUSH1 0x20 DUP3 ADD SWAP1 POP SWAP2 SWAP1 POP JUMP JUMPDEST PUSH1 0x0 PUSH1 0x20 DUP3 ADD SWAP1 POP DUP2 DUP2 SUB PUSH1 0x0 DUP4 ADD MSTORE PUSH2 0x31D0 DUP2 PUSH2 0x3194 JUMP JUMPDEST SWAP1 POP SWAP2 SWAP1 POP JUMP JUMPDEST PUSH32 0x74686520636F696E2065786973747320696E20746865206D61726B6574000000 PUSH1 0x0 DUP3 ADD MSTORE POP JUMP JUMPDEST PUSH1 0x0 PUSH2 0x320D PUSH1 0x1D DUP4 PUSH2 0x2608 JUMP JUMPDEST SWAP2 POP PUSH2 0x3218 DUP3 PUSH2 0x31D7 JUMP JUMPDEST PUSH1 0x20 DUP3 ADD SWAP1 POP SWAP2 SWAP1 POP JUMP JUMPDEST PUSH1 0x0 PUSH1 0x20 DUP3 ADD SWAP1 POP DUP2 DUP2 SUB PUSH1 0x0 DUP4 ADD MSTORE PUSH2 0x323C DUP2 PUSH2 0x3200 JUMP JUMPDEST SWAP1 POP SWAP2 SWAP1 POP JUMP JUMPDEST PUSH32 0x74686520636F696E2065786973747320696E2074686520676174650000000000 PUSH1 0x0 DUP3 ADD MSTORE POP JUMP JUMPDEST PUSH1 0x0 PUSH2 0x3279 PUSH1 0x1B DUP4 PUSH2 0x2608 JUMP JUMPDEST SWAP2 POP PUSH2 0x3284 DUP3 PUSH2 0x3243 JUMP JUMPDEST PUSH1 0x20 DUP3 ADD SWAP1 POP SWAP2 SWAP1 POP JUMP JUMPDEST PUSH1 0x0 PUSH1 0x20 DUP3 ADD SWAP1 POP DUP2 DUP2 SUB PUSH1 0x0 DUP4 ADD MSTORE PUSH2 0x32A8 DUP2 PUSH2 0x326C JUMP JUMPDEST SWAP1 POP SWAP2 SWAP1 POP JUMP INVALID LOG2 PUSH5 0x6970667358 0x22 SLT KECCAK256 PUSH18 0x8CE05DF8569AB42ADB8C64433E279E292277 0xFB AND SELFDESTRUCT 0xB5 0xC9 PUSH14 0xF98C93532BAF0A64736F6C634300 ADDMOD LT STOP CALLER "
				},
				"gasEstimates": {
					"creation": {
						"codeDepositCost": "2605800",
						"executionCost": "infinite",
						"totalCost": "infinite"
					},
					"external": {
						"addCoinbyGator((string,string,uint8,uint8,uint256,uint256,address,bool,bool,address,bool))": "infinite",
						"addCoinbyMarketor((string,string,uint8,uint8,uint256,uint256,address,bool,bool,address,bool))": "infinite",
						"changeCoinScopebyMarketor(address,uint8)": "25020",
						"coinList(address)": "infinite",
						"delCoinbyMarketor(address)": "27093",
						"delGateCoinbyMarketor(address,address)": "infinite",
						"gateCoinList(address,address)": "infinite",
						"gatorContractAddress()": "infinite",
						"getCoinInfo(address)": "infinite",
						"impoveGateCoinbyMarketor(address,address)": "infinite",
						"isValidCoin(address)": "3007",
						"lockCoinbyGator(address)": "27179",
						"lockCoinbyMarketor(address)": "24935",
						"marketCoinList(address)": "infinite",
						"marketorContractAddress()": "infinite",
						"unlockCoinbyGator(address)": "27224",
						"unlockCoinbyMarketor(address)": "24892",
						"updateCoinbyGator((string,string,uint8,uint8,uint256,uint256,address,bool,bool,address,bool))": "infinite",
						"updateCoinbyMarketor((string,string,uint8,uint8,uint256,uint256,address,bool,bool,address,bool))": "infinite"
					}
				},
				"methodIdentifiers": {
					"addCoinbyGator((string,string,uint8,uint8,uint256,uint256,address,bool,bool,address,bool))": "e7e4093e",
					"addCoinbyMarketor((string,string,uint8,uint8,uint256,uint256,address,bool,bool,address,bool))": "f44e318a",
					"changeCoinScopebyMarketor(address,uint8)": "5385cbf5",
					"coinList(address)": "31ecdeb8",
					"delCoinbyMarketor(address)": "7c3e2f02",
					"delGateCoinbyMarketor(address,address)": "eaec0112",
					"gateCoinList(address,address)": "cc0bf757",
					"gatorContractAddress()": "47d0a634",
					"getCoinInfo(address)": "e8dd4655",
					"impoveGateCoinbyMarketor(address,address)": "cfcdca52",
					"isValidCoin(address)": "328320bf",
					"lockCoinbyGator(address)": "441eb548",
					"lockCoinbyMarketor(address)": "b20be2b4",
					"marketCoinList(address)": "3b830305",
					"marketorContractAddress()": "492b7107",
					"unlockCoinbyGator(address)": "385e4b7a",
					"unlockCoinbyMarketor(address)": "1d3b8f67",
					"updateCoinbyGator((string,string,uint8,uint8,uint256,uint256,address,bool,bool,address,bool))": "c1189bea",
					"updateCoinbyMarketor((string,string,uint8,uint8,uint256,uint256,address,bool,bool,address,bool))": "4a91a3bb"
				}
			},
			"storageLayout": {
				"storage": [
					{
						"astId": 11,
						"contract": "Contracts/TTSwapV1Coin.sol:TTSwapV1Coin",
						"label": "marketCoinList",
						"offset": 0,
						"slot": "0",
						"type": "t_mapping(t_address,t_address)"
					},
					{
						"astId": 17,
						"contract": "Contracts/TTSwapV1Coin.sol:TTSwapV1Coin",
						"label": "gateCoinList",
						"offset": 0,
						"slot": "1",
						"type": "t_mapping(t_address,t_mapping(t_address,t_address))"
					},
					{
						"astId": 22,
						"contract": "Contracts/TTSwapV1Coin.sol:TTSwapV1Coin",
						"label": "coinList",
						"offset": 0,
						"slot": "2",
						"type": "t_mapping(t_address,t_struct(Info)772_storage)"
					}
				],
				"types": {
					"t_address": {
						"encoding": "inplace",
						"label": "address",
						"numberOfBytes": "20"
					},
					"t_bool": {
						"encoding": "inplace",
						"label": "bool",
						"numberOfBytes": "1"
					},
					"t_mapping(t_address,t_address)": {
						"encoding": "mapping",
						"key": "t_address",
						"label": "mapping(address => address)",
						"numberOfBytes": "32",
						"value": "t_address"
					},
					"t_mapping(t_address,t_mapping(t_address,t_address))": {
						"encoding": "mapping",
						"key": "t_address",
						"label": "mapping(address => mapping(address => address))",
						"numberOfBytes": "32",
						"value": "t_mapping(t_address,t_address)"
					},
					"t_mapping(t_address,t_struct(Info)772_storage)": {
						"encoding": "mapping",
						"key": "t_address",
						"label": "mapping(address => struct LCoin.Info)",
						"numberOfBytes": "32",
						"value": "t_struct(Info)772_storage"
					},
					"t_string_storage": {
						"encoding": "bytes",
						"label": "string",
						"numberOfBytes": "32"
					},
					"t_struct(Info)772_storage": {
						"encoding": "inplace",
						"label": "struct LCoin.Info",
						"members": [
							{
								"astId": 751,
								"contract": "Contracts/TTSwapV1Coin.sol:TTSwapV1Coin",
								"label": "coinFullName",
								"offset": 0,
								"slot": "0",
								"type": "t_string_storage"
							},
							{
								"astId": 753,
								"contract": "Contracts/TTSwapV1Coin.sol:TTSwapV1Coin",
								"label": "symbol",
								"offset": 0,
								"slot": "1",
								"type": "t_string_storage"
							},
							{
								"astId": 755,
								"contract": "Contracts/TTSwapV1Coin.sol:TTSwapV1Coin",
								"label": "scope",
								"offset": 0,
								"slot": "2",
								"type": "t_uint8"
							},
							{
								"astId": 757,
								"contract": "Contracts/TTSwapV1Coin.sol:TTSwapV1Coin",
								"label": "decimals",
								"offset": 1,
								"slot": "2",
								"type": "t_uint8"
							},
							{
								"astId": 759,
								"contract": "Contracts/TTSwapV1Coin.sol:TTSwapV1Coin",
								"label": "maxSupply",
								"offset": 0,
								"slot": "3",
								"type": "t_uint256"
							},
							{
								"astId": 761,
								"contract": "Contracts/TTSwapV1Coin.sol:TTSwapV1Coin",
								"label": "totalSupply",
								"offset": 0,
								"slot": "4",
								"type": "t_uint256"
							},
							{
								"astId": 763,
								"contract": "Contracts/TTSwapV1Coin.sol:TTSwapV1Coin",
								"label": "contractAddress",
								"offset": 0,
								"slot": "5",
								"type": "t_address"
							},
							{
								"astId": 765,
								"contract": "Contracts/TTSwapV1Coin.sol:TTSwapV1Coin",
								"label": "marketunlock",
								"offset": 20,
								"slot": "5",
								"type": "t_bool"
							},
							{
								"astId": 767,
								"contract": "Contracts/TTSwapV1Coin.sol:TTSwapV1Coin",
								"label": "unlock",
								"offset": 21,
								"slot": "5",
								"type": "t_bool"
							},
							{
								"astId": 769,
								"contract": "Contracts/TTSwapV1Coin.sol:TTSwapV1Coin",
								"label": "creator",
								"offset": 0,
								"slot": "6",
								"type": "t_address"
							},
							{
								"astId": 771,
								"contract": "Contracts/TTSwapV1Coin.sol:TTSwapV1Coin",
								"label": "isUsed",
								"offset": 20,
								"slot": "6",
								"type": "t_bool"
							}
						],
						"numberOfBytes": "224"
					},
					"t_uint256": {
						"encoding": "inplace",
						"label": "uint256",
						"numberOfBytes": "32"
					},
					"t_uint8": {
						"encoding": "inplace",
						"label": "uint8",
						"numberOfBytes": "1"
					}
				}
			},
			"userdoc": {
				"kind": "user",
				"methods": {
					"addCoinbyMarketor((string,string,uint8,uint8,uint256,uint256,address,bool,bool,address,bool))": {
						"notice": "Explain to an end user what this does"
					},
					"gatorContractAddress()": {
						"notice": "The contract that deployed the pool, which must adhere to the IUniswapV3Factory interface"
					},
					"marketorContractAddress()": {
						"notice": "The contract that deployed the pool, which must adhere to the IUniswapV3Factory interface"
					}
				},
				"version": 1
			}
		}
	}
}