{
	"Contracts/MoonV1Manager.sol": {
		"MoonV1Manager": {
			"abi": [
				{
					"inputs": [
						{
							"internalType": "address",
							"name": "_marketCreator",
							"type": "address"
						}
					],
					"stateMutability": "nonpayable",
					"type": "constructor"
				},
				{
					"inputs": [
						{
							"internalType": "address",
							"name": "_owner",
							"type": "address"
						}
					],
					"name": "delMarketManager",
					"outputs": [],
					"stateMutability": "nonpayable",
					"type": "function"
				},
				{
					"inputs": [],
					"name": "ismarketManager",
					"outputs": [
						{
							"internalType": "bool",
							"name": "",
							"type": "bool"
						}
					],
					"stateMutability": "view",
					"type": "function"
				},
				{
					"inputs": [],
					"name": "marketCreator",
					"outputs": [
						{
							"internalType": "address",
							"name": "",
							"type": "address"
						}
					],
					"stateMutability": "view",
					"type": "function"
				},
				{
					"inputs": [
						{
							"internalType": "address",
							"name": "",
							"type": "address"
						}
					],
					"name": "marketManagers",
					"outputs": [
						{
							"internalType": "bool",
							"name": "",
							"type": "bool"
						}
					],
					"stateMutability": "view",
					"type": "function"
				},
				{
					"inputs": [
						{
							"internalType": "address",
							"name": "_owner",
							"type": "address"
						}
					],
					"name": "setMarketManager",
					"outputs": [],
					"stateMutability": "nonpayable",
					"type": "function"
				}
			],
			"devdoc": {
				"kind": "dev",
				"methods": {
					"delMarketManager(address)": {
						"details": "Explain to a developer any extra details"
					},
					"ismarketManager()": {
						"details": "Explain to a developer any extra details"
					},
					"setMarketManager(address)": {
						"details": "Explain to a developer any extra details"
					}
				},
				"version": 1
			},
			"evm": {
				"assembly": "    /* \"Contracts/MoonV1Manager.sol\":70:1415  contract MoonV1Manager {... */\n  mstore(0x40, 0x80)\n    /* \"Contracts/MoonV1Manager.sol\":230:313  constructor(address _marketCreator) {... */\n  callvalue\n  dup1\n  iszero\n  tag_1\n  jumpi\n  0x00\n  dup1\n  revert\ntag_1:\n  pop\n  mload(0x40)\n  sub(codesize, bytecodeSize)\n  dup1\n  bytecodeSize\n  dup4\n  codecopy\n  dup2\n  add\n  0x40\n  dup2\n  swap1\n  mstore\n  tag_2\n  swap2\n  tag_3\n  jump\t// in\ntag_2:\n    /* \"Contracts/MoonV1Manager.sol\":276:289  marketCreator */\n  0x01\n    /* \"Contracts/MoonV1Manager.sol\":276:306  marketCreator = _marketCreator */\n  dup1\n  sload\n  not(sub(shl(0xa0, 0x01), 0x01))\n  and\n  sub(shl(0xa0, 0x01), 0x01)\n  swap3\n  swap1\n  swap3\n  and\n  swap2\n  swap1\n  swap2\n  or\n  swap1\n  sstore\n    /* \"Contracts/MoonV1Manager.sol\":70:1415  contract MoonV1Manager {... */\n  jump(tag_7)\n    /* \"#utility.yul\":14:304   */\ntag_3:\n    /* \"#utility.yul\":84:90   */\n  0x00\n    /* \"#utility.yul\":137:139   */\n  0x20\n    /* \"#utility.yul\":125:134   */\n  dup3\n    /* \"#utility.yul\":116:123   */\n  dup5\n    /* \"#utility.yul\":112:135   */\n  sub\n    /* \"#utility.yul\":108:140   */\n  slt\n    /* \"#utility.yul\":105:157   */\n  iszero\n  tag_9\n  jumpi\n    /* \"#utility.yul\":153:154   */\n  0x00\n    /* \"#utility.yul\":150:151   */\n  dup1\n    /* \"#utility.yul\":143:155   */\n  revert\n    /* \"#utility.yul\":105:157   */\ntag_9:\n    /* \"#utility.yul\":179:195   */\n  dup2\n  mload\n  sub(shl(0xa0, 0x01), 0x01)\n    /* \"#utility.yul\":224:255   */\n  dup2\n  and\n    /* \"#utility.yul\":214:256   */\n  dup2\n  eq\n    /* \"#utility.yul\":204:274   */\n  tag_10\n  jumpi\n    /* \"#utility.yul\":270:271   */\n  0x00\n    /* \"#utility.yul\":267:268   */\n  dup1\n    /* \"#utility.yul\":260:272   */\n  revert\n    /* \"#utility.yul\":204:274   */\ntag_10:\n    /* \"#utility.yul\":293:298   */\n  swap4\n    /* \"#utility.yul\":14:304   */\n  swap3\n  pop\n  pop\n  pop\n  jump\t// out\ntag_7:\n    /* \"Contracts/MoonV1Manager.sol\":70:1415  contract MoonV1Manager {... */\n  dataSize(sub_0)\n  dup1\n  dataOffset(sub_0)\n  0x00\n  codecopy\n  0x00\n  return\nstop\n\nsub_0: assembly {\n        /* \"Contracts/MoonV1Manager.sol\":70:1415  contract MoonV1Manager {... */\n      mstore(0x40, 0x80)\n      callvalue\n      dup1\n      iszero\n      tag_1\n      jumpi\n      0x00\n      dup1\n      revert\n    tag_1:\n      pop\n      jumpi(tag_2, lt(calldatasize, 0x04))\n      shr(0xe0, calldataload(0x00))\n      dup1\n      0x2b890543\n      gt\n      tag_8\n      jumpi\n      dup1\n      0x2b890543\n      eq\n      tag_5\n      jumpi\n      dup1\n      0x753c5188\n      eq\n      tag_6\n      jumpi\n      dup1\n      0xd82aff11\n      eq\n      tag_7\n      jumpi\n      0x00\n      dup1\n      revert\n    tag_8:\n      dup1\n      0x1487f252\n      eq\n      tag_3\n      jumpi\n      dup1\n      0x27cbaabe\n      eq\n      tag_4\n      jumpi\n    tag_2:\n      0x00\n      dup1\n      revert\n        /* \"Contracts/MoonV1Manager.sol\":1307:1413  function ismarketManager() external view returns (bool) {... */\n    tag_3:\n        /* \"Contracts/MoonV1Manager.sol\":1395:1405  msg.sender */\n      caller\n        /* \"Contracts/MoonV1Manager.sol\":1357:1361  bool */\n      0x00\n        /* \"Contracts/MoonV1Manager.sol\":1380:1406  marketManagers[msg.sender] */\n      swap1\n      dup2\n      mstore\n      0x20\n      dup2\n      swap1\n      mstore\n      0x40\n      swap1\n      keccak256\n      sload\n      0xff\n      and\n        /* \"Contracts/MoonV1Manager.sol\":1307:1413  function ismarketManager() external view returns (bool) {... */\n    tag_9:\n      mload(0x40)\n        /* \"#utility.yul\":724:738   */\n      swap1\n      iszero\n        /* \"#utility.yul\":717:739   */\n      iszero\n        /* \"#utility.yul\":699:740   */\n      dup2\n      mstore\n        /* \"#utility.yul\":687:689   */\n      0x20\n        /* \"#utility.yul\":672:690   */\n      add\n        /* \"Contracts/MoonV1Manager.sol\":1307:1413  function ismarketManager() external view returns (bool) {... */\n    tag_11:\n      mload(0x40)\n      dup1\n      swap2\n      sub\n      swap1\n      return\n        /* \"Contracts/MoonV1Manager.sol\":195:223  address public marketCreator */\n    tag_4:\n      sload(0x01)\n      tag_13\n      swap1\n      0xffffffffffffffffffffffffffffffffffffffff\n      and\n      dup2\n      jump\n    tag_13:\n      mload(0x40)\n        /* \"#utility.yul\":504:546   */\n      0xffffffffffffffffffffffffffffffffffffffff\n        /* \"#utility.yul\":492:547   */\n      swap1\n      swap2\n      and\n        /* \"#utility.yul\":474:548   */\n      dup2\n      mstore\n        /* \"#utility.yul\":462:464   */\n      0x20\n        /* \"#utility.yul\":447:465   */\n      add\n        /* \"Contracts/MoonV1Manager.sol\":195:223  address public marketCreator */\n      tag_11\n        /* \"#utility.yul\":328:554   */\n      jump\n        /* \"Contracts/MoonV1Manager.sol\":1078:1193  function delMarketManager(address _owner) external onlyMarketCreator {... */\n    tag_5:\n      tag_17\n      tag_18\n      calldatasize\n      0x04\n      tag_19\n      jump\t// in\n    tag_18:\n      tag_20\n      jump\t// in\n    tag_17:\n      stop\n        /* \"Contracts/MoonV1Manager.sol\":142:188  mapping(address => bool) public marketManagers */\n    tag_6:\n      tag_9\n      tag_22\n      calldatasize\n      0x04\n      tag_19\n      jump\t// in\n    tag_22:\n      0x00\n      0x20\n      dup2\n      swap1\n      mstore\n      swap1\n      dup2\n      mstore\n      0x40\n      swap1\n      keccak256\n      sload\n      0xff\n      and\n      dup2\n      jump\n        /* \"Contracts/MoonV1Manager.sol\":849:964  function setMarketManager(address _owner) external onlyMarketCreator {... */\n    tag_7:\n      tag_17\n      tag_26\n      calldatasize\n      0x04\n      tag_19\n      jump\t// in\n    tag_26:\n      tag_27\n      jump\t// in\n        /* \"Contracts/MoonV1Manager.sol\":1078:1193  function delMarketManager(address _owner) external onlyMarketCreator {... */\n    tag_20:\n        /* \"Contracts/MoonV1Manager.sol\":380:393  marketCreator */\n      and(0xffffffffffffffffffffffffffffffffffffffff, sload(0x01))\n        /* \"Contracts/MoonV1Manager.sol\":366:376  msg.sender */\n      caller\n        /* \"Contracts/MoonV1Manager.sol\":366:393  msg.sender == marketCreator */\n      eq\n        /* \"Contracts/MoonV1Manager.sol\":358:394  require(msg.sender == marketCreator) */\n      tag_30\n      jumpi\n      0x00\n      dup1\n      revert\n    tag_30:\n        /* \"Contracts/MoonV1Manager.sol\":1164:1186  marketManagers[_owner] */\n      0xffffffffffffffffffffffffffffffffffffffff\n      and\n        /* \"Contracts/MoonV1Manager.sol\":1164:1178  marketManagers */\n      0x00\n        /* \"Contracts/MoonV1Manager.sol\":1164:1186  marketManagers[_owner] */\n      swap1\n      dup2\n      mstore\n      0x20\n      dup2\n      swap1\n      mstore\n      0x40\n      swap1\n      keccak256\n        /* \"Contracts/MoonV1Manager.sol\":1157:1186  delete marketManagers[_owner] */\n      dup1\n      sload\n      not(0xff)\n      and\n      swap1\n      sstore\n        /* \"Contracts/MoonV1Manager.sol\":1078:1193  function delMarketManager(address _owner) external onlyMarketCreator {... */\n      jump\t// out\n        /* \"Contracts/MoonV1Manager.sol\":849:964  function setMarketManager(address _owner) external onlyMarketCreator {... */\n    tag_27:\n        /* \"Contracts/MoonV1Manager.sol\":380:393  marketCreator */\n      and(0xffffffffffffffffffffffffffffffffffffffff, sload(0x01))\n        /* \"Contracts/MoonV1Manager.sol\":366:376  msg.sender */\n      caller\n        /* \"Contracts/MoonV1Manager.sol\":366:393  msg.sender == marketCreator */\n      eq\n        /* \"Contracts/MoonV1Manager.sol\":358:394  require(msg.sender == marketCreator) */\n      tag_33\n      jumpi\n      0x00\n      dup1\n      revert\n    tag_33:\n        /* \"Contracts/MoonV1Manager.sol\":928:950  marketManagers[_owner] */\n      0xffffffffffffffffffffffffffffffffffffffff\n      and\n        /* \"Contracts/MoonV1Manager.sol\":928:942  marketManagers */\n      0x00\n        /* \"Contracts/MoonV1Manager.sol\":928:950  marketManagers[_owner] */\n      swap1\n      dup2\n      mstore\n      0x20\n      dup2\n      swap1\n      mstore\n      0x40\n      swap1\n      keccak256\n        /* \"Contracts/MoonV1Manager.sol\":928:957  marketManagers[_owner] = true */\n      dup1\n      sload\n      not(0xff)\n      and\n        /* \"Contracts/MoonV1Manager.sol\":953:957  true */\n      0x01\n        /* \"Contracts/MoonV1Manager.sol\":928:957  marketManagers[_owner] = true */\n      or\n      swap1\n      sstore\n        /* \"Contracts/MoonV1Manager.sol\":849:964  function setMarketManager(address _owner) external onlyMarketCreator {... */\n      jump\t// out\n        /* \"#utility.yul\":14:323   */\n    tag_19:\n        /* \"#utility.yul\":73:79   */\n      0x00\n        /* \"#utility.yul\":126:128   */\n      0x20\n        /* \"#utility.yul\":114:123   */\n      dup3\n        /* \"#utility.yul\":105:112   */\n      dup5\n        /* \"#utility.yul\":101:124   */\n      sub\n        /* \"#utility.yul\":97:129   */\n      slt\n        /* \"#utility.yul\":94:146   */\n      iszero\n      tag_37\n      jumpi\n        /* \"#utility.yul\":142:143   */\n      0x00\n        /* \"#utility.yul\":139:140   */\n      dup1\n        /* \"#utility.yul\":132:144   */\n      revert\n        /* \"#utility.yul\":94:146   */\n    tag_37:\n        /* \"#utility.yul\":181:190   */\n      dup2\n        /* \"#utility.yul\":168:191   */\n      calldataload\n        /* \"#utility.yul\":231:273   */\n      0xffffffffffffffffffffffffffffffffffffffff\n        /* \"#utility.yul\":224:229   */\n      dup2\n        /* \"#utility.yul\":220:274   */\n      and\n        /* \"#utility.yul\":213:218   */\n      dup2\n        /* \"#utility.yul\":210:275   */\n      eq\n        /* \"#utility.yul\":200:293   */\n      tag_38\n      jumpi\n        /* \"#utility.yul\":289:290   */\n      0x00\n        /* \"#utility.yul\":286:287   */\n      dup1\n        /* \"#utility.yul\":279:291   */\n      revert\n        /* \"#utility.yul\":200:293   */\n    tag_38:\n        /* \"#utility.yul\":312:317   */\n      swap4\n        /* \"#utility.yul\":14:323   */\n      swap3\n      pop\n      pop\n      pop\n      jump\t// out\n\n    auxdata: 0xa2646970667358221220c90b932109c645c54644e930a1a3f12ae7750d772be4472493a5cf2a321b7e3664736f6c63430008070033\n}\n",
				"bytecode": {
					"linkReferences": {},
					"object": "608060405234801561001057600080fd5b506040516102d23803806102d283398101604081905261002f91610054565b600180546001600160a01b0319166001600160a01b0392909216919091179055610084565b60006020828403121561006657600080fd5b81516001600160a01b038116811461007d57600080fd5b9392505050565b61023f806100936000396000f3fe608060405234801561001057600080fd5b50600436106100675760003560e01c80632b890543116100505780632b890543146100da578063753c5188146100ef578063d82aff111461011257600080fd5b80631487f2521461006c57806327cbaabe14610095575b600080fd5b3360009081526020819052604090205460ff165b60405190151581526020015b60405180910390f35b6001546100b59073ffffffffffffffffffffffffffffffffffffffff1681565b60405173ffffffffffffffffffffffffffffffffffffffff909116815260200161008c565b6100ed6100e83660046101cc565b610125565b005b6100806100fd3660046101cc565b60006020819052908152604090205460ff1681565b6100ed6101203660046101cc565b610177565b60015473ffffffffffffffffffffffffffffffffffffffff16331461014957600080fd5b73ffffffffffffffffffffffffffffffffffffffff166000908152602081905260409020805460ff19169055565b60015473ffffffffffffffffffffffffffffffffffffffff16331461019b57600080fd5b73ffffffffffffffffffffffffffffffffffffffff166000908152602081905260409020805460ff19166001179055565b6000602082840312156101de57600080fd5b813573ffffffffffffffffffffffffffffffffffffffff8116811461020257600080fd5b939250505056fea2646970667358221220c90b932109c645c54644e930a1a3f12ae7750d772be4472493a5cf2a321b7e3664736f6c63430008070033",
					"opcodes": "PUSH1 0x80 PUSH1 0x40 MSTORE CALLVALUE DUP1 ISZERO PUSH2 0x10 JUMPI PUSH1 0x0 DUP1 REVERT JUMPDEST POP PUSH1 0x40 MLOAD PUSH2 0x2D2 CODESIZE SUB DUP1 PUSH2 0x2D2 DUP4 CODECOPY DUP2 ADD PUSH1 0x40 DUP2 SWAP1 MSTORE PUSH2 0x2F SWAP2 PUSH2 0x54 JUMP JUMPDEST PUSH1 0x1 DUP1 SLOAD PUSH1 0x1 PUSH1 0x1 PUSH1 0xA0 SHL SUB NOT AND PUSH1 0x1 PUSH1 0x1 PUSH1 0xA0 SHL SUB SWAP3 SWAP1 SWAP3 AND SWAP2 SWAP1 SWAP2 OR SWAP1 SSTORE PUSH2 0x84 JUMP JUMPDEST PUSH1 0x0 PUSH1 0x20 DUP3 DUP5 SUB SLT ISZERO PUSH2 0x66 JUMPI PUSH1 0x0 DUP1 REVERT JUMPDEST DUP2 MLOAD PUSH1 0x1 PUSH1 0x1 PUSH1 0xA0 SHL SUB DUP2 AND DUP2 EQ PUSH2 0x7D JUMPI PUSH1 0x0 DUP1 REVERT JUMPDEST SWAP4 SWAP3 POP POP POP JUMP JUMPDEST PUSH2 0x23F DUP1 PUSH2 0x93 PUSH1 0x0 CODECOPY PUSH1 0x0 RETURN INVALID PUSH1 0x80 PUSH1 0x40 MSTORE CALLVALUE DUP1 ISZERO PUSH2 0x10 JUMPI PUSH1 0x0 DUP1 REVERT JUMPDEST POP PUSH1 0x4 CALLDATASIZE LT PUSH2 0x67 JUMPI PUSH1 0x0 CALLDATALOAD PUSH1 0xE0 SHR DUP1 PUSH4 0x2B890543 GT PUSH2 0x50 JUMPI DUP1 PUSH4 0x2B890543 EQ PUSH2 0xDA JUMPI DUP1 PUSH4 0x753C5188 EQ PUSH2 0xEF JUMPI DUP1 PUSH4 0xD82AFF11 EQ PUSH2 0x112 JUMPI PUSH1 0x0 DUP1 REVERT JUMPDEST DUP1 PUSH4 0x1487F252 EQ PUSH2 0x6C JUMPI DUP1 PUSH4 0x27CBAABE EQ PUSH2 0x95 JUMPI JUMPDEST PUSH1 0x0 DUP1 REVERT JUMPDEST CALLER PUSH1 0x0 SWAP1 DUP2 MSTORE PUSH1 0x20 DUP2 SWAP1 MSTORE PUSH1 0x40 SWAP1 KECCAK256 SLOAD PUSH1 0xFF AND JUMPDEST PUSH1 0x40 MLOAD SWAP1 ISZERO ISZERO DUP2 MSTORE PUSH1 0x20 ADD JUMPDEST PUSH1 0x40 MLOAD DUP1 SWAP2 SUB SWAP1 RETURN JUMPDEST PUSH1 0x1 SLOAD PUSH2 0xB5 SWAP1 PUSH20 0xFFFFFFFFFFFFFFFFFFFFFFFFFFFFFFFFFFFFFFFF AND DUP2 JUMP JUMPDEST PUSH1 0x40 MLOAD PUSH20 0xFFFFFFFFFFFFFFFFFFFFFFFFFFFFFFFFFFFFFFFF SWAP1 SWAP2 AND DUP2 MSTORE PUSH1 0x20 ADD PUSH2 0x8C JUMP JUMPDEST PUSH2 0xED PUSH2 0xE8 CALLDATASIZE PUSH1 0x4 PUSH2 0x1CC JUMP JUMPDEST PUSH2 0x125 JUMP JUMPDEST STOP JUMPDEST PUSH2 0x80 PUSH2 0xFD CALLDATASIZE PUSH1 0x4 PUSH2 0x1CC JUMP JUMPDEST PUSH1 0x0 PUSH1 0x20 DUP2 SWAP1 MSTORE SWAP1 DUP2 MSTORE PUSH1 0x40 SWAP1 KECCAK256 SLOAD PUSH1 0xFF AND DUP2 JUMP JUMPDEST PUSH2 0xED PUSH2 0x120 CALLDATASIZE PUSH1 0x4 PUSH2 0x1CC JUMP JUMPDEST PUSH2 0x177 JUMP JUMPDEST PUSH1 0x1 SLOAD PUSH20 0xFFFFFFFFFFFFFFFFFFFFFFFFFFFFFFFFFFFFFFFF AND CALLER EQ PUSH2 0x149 JUMPI PUSH1 0x0 DUP1 REVERT JUMPDEST PUSH20 0xFFFFFFFFFFFFFFFFFFFFFFFFFFFFFFFFFFFFFFFF AND PUSH1 0x0 SWAP1 DUP2 MSTORE PUSH1 0x20 DUP2 SWAP1 MSTORE PUSH1 0x40 SWAP1 KECCAK256 DUP1 SLOAD PUSH1 0xFF NOT AND SWAP1 SSTORE JUMP JUMPDEST PUSH1 0x1 SLOAD PUSH20 0xFFFFFFFFFFFFFFFFFFFFFFFFFFFFFFFFFFFFFFFF AND CALLER EQ PUSH2 0x19B JUMPI PUSH1 0x0 DUP1 REVERT JUMPDEST PUSH20 0xFFFFFFFFFFFFFFFFFFFFFFFFFFFFFFFFFFFFFFFF AND PUSH1 0x0 SWAP1 DUP2 MSTORE PUSH1 0x20 DUP2 SWAP1 MSTORE PUSH1 0x40 SWAP1 KECCAK256 DUP1 SLOAD PUSH1 0xFF NOT AND PUSH1 0x1 OR SWAP1 SSTORE JUMP JUMPDEST PUSH1 0x0 PUSH1 0x20 DUP3 DUP5 SUB SLT ISZERO PUSH2 0x1DE JUMPI PUSH1 0x0 DUP1 REVERT JUMPDEST DUP2 CALLDATALOAD PUSH20 0xFFFFFFFFFFFFFFFFFFFFFFFFFFFFFFFFFFFFFFFF DUP2 AND DUP2 EQ PUSH2 0x202 JUMPI PUSH1 0x0 DUP1 REVERT JUMPDEST SWAP4 SWAP3 POP POP POP JUMP INVALID LOG2 PUSH5 0x6970667358 0x22 SLT KECCAK256 0xC9 SIGNEXTEND SWAP4 0x21 MULMOD 0xC6 GASLIMIT 0xC5 CHAINID DIFFICULTY 0xE9 ADDRESS LOG1 LOG3 CALL 0x2A 0xE7 PUSH22 0xD772BE4472493A5CF2A321B7E3664736F6C63430008 SMOD STOP CALLER "
				},
				"gasEstimates": {
					"creation": {
						"codeDepositCost": "115000",
						"executionCost": "infinite",
						"totalCost": "infinite"
					},
					"external": {
						"delMarketManager(address)": "26676",
						"ismarketManager()": "2354",
						"marketCreator()": "2336",
						"marketManagers(address)": "2498",
						"setMarketManager(address)": "26726"
					}
				},
				"methodIdentifiers": {
					"delMarketManager(address)": "2b890543",
					"ismarketManager()": "1487f252",
					"marketCreator()": "27cbaabe",
					"marketManagers(address)": "753c5188",
					"setMarketManager(address)": "d82aff11"
				}
			},
			"storageLayout": {
				"storage": [
					{
						"astId": 972,
						"contract": "Contracts/MoonV1Manager.sol:MoonV1Manager",
						"label": "marketManagers",
						"offset": 0,
						"slot": "0",
						"type": "t_mapping(t_address,t_bool)"
					},
					{
						"astId": 974,
						"contract": "Contracts/MoonV1Manager.sol:MoonV1Manager",
						"label": "marketCreator",
						"offset": 0,
						"slot": "1",
						"type": "t_address"
					}
				],
				"types": {
					"t_address": {
						"encoding": "inplace",
						"label": "address",
						"numberOfBytes": "20"
					},
					"t_bool": {
						"encoding": "inplace",
						"label": "bool",
						"numberOfBytes": "1"
					},
					"t_mapping(t_address,t_bool)": {
						"encoding": "mapping",
						"key": "t_address",
						"label": "mapping(address => bool)",
						"numberOfBytes": "32",
						"value": "t_bool"
					}
				}
			},
			"userdoc": {
				"kind": "user",
				"methods": {
					"delMarketManager(address)": {
						"notice": "Explain to an end user what this does"
					},
					"ismarketManager()": {
						"notice": "Explain to an end user what this does"
					},
					"setMarketManager(address)": {
						"notice": "Explain to an end user what this does"
					}
				},
				"version": 1
			}
		}
	}
}