{
	"Contracts/Copy_MoonV1Coin.sol": {
		"MoonV1Coin": {
			"abi": [
				{
					"inputs": [
						{
							"internalType": "address",
							"name": "_gateContractAddress",
							"type": "address"
						},
						{
							"internalType": "address",
							"name": "_marketorContractAddress",
							"type": "address"
						}
					],
					"stateMutability": "nonpayable",
					"type": "constructor"
				},
				{
					"inputs": [
						{
							"components": [
								{
									"internalType": "bytes32",
									"name": "coinFullName",
									"type": "bytes32"
								},
								{
									"internalType": "bytes6",
									"name": "symbol",
									"type": "bytes6"
								},
								{
									"internalType": "uint8",
									"name": "scope",
									"type": "uint8"
								},
								{
									"internalType": "uint8",
									"name": "decimals",
									"type": "uint8"
								},
								{
									"internalType": "uint256",
									"name": "maxSupply",
									"type": "uint256"
								},
								{
									"internalType": "uint256",
									"name": "totalSupply",
									"type": "uint256"
								},
								{
									"internalType": "address",
									"name": "contractAddress",
									"type": "address"
								},
								{
									"internalType": "bytes32",
									"name": "WhitePaperUrl",
									"type": "bytes32"
								},
								{
									"internalType": "bytes32",
									"name": "OfficalWebsite",
									"type": "bytes32"
								},
								{
									"internalType": "bytes32",
									"name": "blockExplorerUrl",
									"type": "bytes32"
								},
								{
									"internalType": "bool",
									"name": "marketunlock",
									"type": "bool"
								},
								{
									"internalType": "bool",
									"name": "unlock",
									"type": "bool"
								},
								{
									"internalType": "address",
									"name": "creator",
									"type": "address"
								},
								{
									"internalType": "bool",
									"name": "isUsed",
									"type": "bool"
								}
							],
							"internalType": "struct LCoin.Info",
							"name": "_coinInfo",
							"type": "tuple"
						}
					],
					"name": "addCoinbyGator",
					"outputs": [],
					"stateMutability": "nonpayable",
					"type": "function"
				},
				{
					"inputs": [
						{
							"components": [
								{
									"internalType": "bytes32",
									"name": "coinFullName",
									"type": "bytes32"
								},
								{
									"internalType": "bytes6",
									"name": "symbol",
									"type": "bytes6"
								},
								{
									"internalType": "uint8",
									"name": "scope",
									"type": "uint8"
								},
								{
									"internalType": "uint8",
									"name": "decimals",
									"type": "uint8"
								},
								{
									"internalType": "uint256",
									"name": "maxSupply",
									"type": "uint256"
								},
								{
									"internalType": "uint256",
									"name": "totalSupply",
									"type": "uint256"
								},
								{
									"internalType": "address",
									"name": "contractAddress",
									"type": "address"
								},
								{
									"internalType": "bytes32",
									"name": "WhitePaperUrl",
									"type": "bytes32"
								},
								{
									"internalType": "bytes32",
									"name": "OfficalWebsite",
									"type": "bytes32"
								},
								{
									"internalType": "bytes32",
									"name": "blockExplorerUrl",
									"type": "bytes32"
								},
								{
									"internalType": "bool",
									"name": "marketunlock",
									"type": "bool"
								},
								{
									"internalType": "bool",
									"name": "unlock",
									"type": "bool"
								},
								{
									"internalType": "address",
									"name": "creator",
									"type": "address"
								},
								{
									"internalType": "bool",
									"name": "isUsed",
									"type": "bool"
								}
							],
							"internalType": "struct LCoin.Info",
							"name": "_coinInfo",
							"type": "tuple"
						}
					],
					"name": "addCoinbyMarketor",
					"outputs": [],
					"stateMutability": "nonpayable",
					"type": "function"
				},
				{
					"inputs": [
						{
							"internalType": "address",
							"name": "_internalCoinAddress",
							"type": "address"
						},
						{
							"internalType": "uint8",
							"name": "_scope",
							"type": "uint8"
						}
					],
					"name": "changeCoinScopebyMarketor",
					"outputs": [],
					"stateMutability": "nonpayable",
					"type": "function"
				},
				{
					"inputs": [
						{
							"internalType": "address",
							"name": "",
							"type": "address"
						}
					],
					"name": "coinList",
					"outputs": [
						{
							"internalType": "bytes32",
							"name": "coinFullName",
							"type": "bytes32"
						},
						{
							"internalType": "bytes6",
							"name": "symbol",
							"type": "bytes6"
						},
						{
							"internalType": "uint8",
							"name": "scope",
							"type": "uint8"
						},
						{
							"internalType": "uint8",
							"name": "decimals",
							"type": "uint8"
						},
						{
							"internalType": "uint256",
							"name": "maxSupply",
							"type": "uint256"
						},
						{
							"internalType": "uint256",
							"name": "totalSupply",
							"type": "uint256"
						},
						{
							"internalType": "address",
							"name": "contractAddress",
							"type": "address"
						},
						{
							"internalType": "bytes32",
							"name": "WhitePaperUrl",
							"type": "bytes32"
						},
						{
							"internalType": "bytes32",
							"name": "OfficalWebsite",
							"type": "bytes32"
						},
						{
							"internalType": "bytes32",
							"name": "blockExplorerUrl",
							"type": "bytes32"
						},
						{
							"internalType": "bool",
							"name": "marketunlock",
							"type": "bool"
						},
						{
							"internalType": "bool",
							"name": "unlock",
							"type": "bool"
						},
						{
							"internalType": "address",
							"name": "creator",
							"type": "address"
						},
						{
							"internalType": "bool",
							"name": "isUsed",
							"type": "bool"
						}
					],
					"stateMutability": "view",
					"type": "function"
				},
				{
					"inputs": [
						{
							"internalType": "address",
							"name": "_contractaddress",
							"type": "address"
						}
					],
					"name": "delCoinbyMarketor",
					"outputs": [],
					"stateMutability": "nonpayable",
					"type": "function"
				},
				{
					"inputs": [
						{
							"internalType": "address",
							"name": "_contractaddress",
							"type": "address"
						},
						{
							"internalType": "address",
							"name": "_gateaddress",
							"type": "address"
						}
					],
					"name": "delGateCoinbyMarketor",
					"outputs": [],
					"stateMutability": "nonpayable",
					"type": "function"
				},
				{
					"inputs": [
						{
							"internalType": "address",
							"name": "",
							"type": "address"
						},
						{
							"internalType": "address",
							"name": "",
							"type": "address"
						}
					],
					"name": "gateCoinList",
					"outputs": [
						{
							"internalType": "address",
							"name": "",
							"type": "address"
						}
					],
					"stateMutability": "view",
					"type": "function"
				},
				{
					"inputs": [],
					"name": "gateContractAddress",
					"outputs": [
						{
							"internalType": "address",
							"name": "",
							"type": "address"
						}
					],
					"stateMutability": "view",
					"type": "function"
				},
				{
					"inputs": [
						{
							"internalType": "address",
							"name": "_contractaddress",
							"type": "address"
						}
					],
					"name": "getCoinInfo",
					"outputs": [
						{
							"components": [
								{
									"internalType": "bytes32",
									"name": "coinFullName",
									"type": "bytes32"
								},
								{
									"internalType": "bytes6",
									"name": "symbol",
									"type": "bytes6"
								},
								{
									"internalType": "uint8",
									"name": "scope",
									"type": "uint8"
								},
								{
									"internalType": "uint8",
									"name": "decimals",
									"type": "uint8"
								},
								{
									"internalType": "uint256",
									"name": "maxSupply",
									"type": "uint256"
								},
								{
									"internalType": "uint256",
									"name": "totalSupply",
									"type": "uint256"
								},
								{
									"internalType": "address",
									"name": "contractAddress",
									"type": "address"
								},
								{
									"internalType": "bytes32",
									"name": "WhitePaperUrl",
									"type": "bytes32"
								},
								{
									"internalType": "bytes32",
									"name": "OfficalWebsite",
									"type": "bytes32"
								},
								{
									"internalType": "bytes32",
									"name": "blockExplorerUrl",
									"type": "bytes32"
								},
								{
									"internalType": "bool",
									"name": "marketunlock",
									"type": "bool"
								},
								{
									"internalType": "bool",
									"name": "unlock",
									"type": "bool"
								},
								{
									"internalType": "address",
									"name": "creator",
									"type": "address"
								},
								{
									"internalType": "bool",
									"name": "isUsed",
									"type": "bool"
								}
							],
							"internalType": "struct LCoin.Info",
							"name": "",
							"type": "tuple"
						}
					],
					"stateMutability": "view",
					"type": "function"
				},
				{
					"inputs": [
						{
							"internalType": "address",
							"name": "_contractaddress",
							"type": "address"
						},
						{
							"internalType": "address",
							"name": "_gateaddress",
							"type": "address"
						}
					],
					"name": "impoveGateCoinbyMarketor",
					"outputs": [],
					"stateMutability": "nonpayable",
					"type": "function"
				},
				{
					"inputs": [
						{
							"internalType": "address",
							"name": "_coinAddress",
							"type": "address"
						}
					],
					"name": "isValidCoin",
					"outputs": [
						{
							"internalType": "bool",
							"name": "",
							"type": "bool"
						}
					],
					"stateMutability": "view",
					"type": "function"
				},
				{
					"inputs": [
						{
							"internalType": "address",
							"name": "_internalCoinAddress",
							"type": "address"
						}
					],
					"name": "lockCoinbyGator",
					"outputs": [],
					"stateMutability": "nonpayable",
					"type": "function"
				},
				{
					"inputs": [
						{
							"internalType": "address",
							"name": "_internalCoinAddress",
							"type": "address"
						}
					],
					"name": "lockCoinbyMarketor",
					"outputs": [],
					"stateMutability": "nonpayable",
					"type": "function"
				},
				{
					"inputs": [
						{
							"internalType": "address",
							"name": "",
							"type": "address"
						}
					],
					"name": "marketCoinList",
					"outputs": [
						{
							"internalType": "address",
							"name": "",
							"type": "address"
						}
					],
					"stateMutability": "view",
					"type": "function"
				},
				{
					"inputs": [],
					"name": "marketorContractAddress",
					"outputs": [
						{
							"internalType": "address",
							"name": "",
							"type": "address"
						}
					],
					"stateMutability": "view",
					"type": "function"
				},
				{
					"inputs": [
						{
							"internalType": "address",
							"name": "_internalCoinAddress",
							"type": "address"
						}
					],
					"name": "unlockCoinbyGator",
					"outputs": [],
					"stateMutability": "nonpayable",
					"type": "function"
				},
				{
					"inputs": [
						{
							"internalType": "address",
							"name": "_internalCoinAddress",
							"type": "address"
						}
					],
					"name": "unlockCoinbyMarketor",
					"outputs": [],
					"stateMutability": "nonpayable",
					"type": "function"
				},
				{
					"inputs": [
						{
							"components": [
								{
									"internalType": "bytes32",
									"name": "coinFullName",
									"type": "bytes32"
								},
								{
									"internalType": "bytes6",
									"name": "symbol",
									"type": "bytes6"
								},
								{
									"internalType": "uint8",
									"name": "scope",
									"type": "uint8"
								},
								{
									"internalType": "uint8",
									"name": "decimals",
									"type": "uint8"
								},
								{
									"internalType": "uint256",
									"name": "maxSupply",
									"type": "uint256"
								},
								{
									"internalType": "uint256",
									"name": "totalSupply",
									"type": "uint256"
								},
								{
									"internalType": "address",
									"name": "contractAddress",
									"type": "address"
								},
								{
									"internalType": "bytes32",
									"name": "WhitePaperUrl",
									"type": "bytes32"
								},
								{
									"internalType": "bytes32",
									"name": "OfficalWebsite",
									"type": "bytes32"
								},
								{
									"internalType": "bytes32",
									"name": "blockExplorerUrl",
									"type": "bytes32"
								},
								{
									"internalType": "bool",
									"name": "marketunlock",
									"type": "bool"
								},
								{
									"internalType": "bool",
									"name": "unlock",
									"type": "bool"
								},
								{
									"internalType": "address",
									"name": "creator",
									"type": "address"
								},
								{
									"internalType": "bool",
									"name": "isUsed",
									"type": "bool"
								}
							],
							"internalType": "struct LCoin.Info",
							"name": "_coinInfo",
							"type": "tuple"
						}
					],
					"name": "updateCoinbyGator",
					"outputs": [],
					"stateMutability": "nonpayable",
					"type": "function"
				},
				{
					"inputs": [
						{
							"components": [
								{
									"internalType": "bytes32",
									"name": "coinFullName",
									"type": "bytes32"
								},
								{
									"internalType": "bytes6",
									"name": "symbol",
									"type": "bytes6"
								},
								{
									"internalType": "uint8",
									"name": "scope",
									"type": "uint8"
								},
								{
									"internalType": "uint8",
									"name": "decimals",
									"type": "uint8"
								},
								{
									"internalType": "uint256",
									"name": "maxSupply",
									"type": "uint256"
								},
								{
									"internalType": "uint256",
									"name": "totalSupply",
									"type": "uint256"
								},
								{
									"internalType": "address",
									"name": "contractAddress",
									"type": "address"
								},
								{
									"internalType": "bytes32",
									"name": "WhitePaperUrl",
									"type": "bytes32"
								},
								{
									"internalType": "bytes32",
									"name": "OfficalWebsite",
									"type": "bytes32"
								},
								{
									"internalType": "bytes32",
									"name": "blockExplorerUrl",
									"type": "bytes32"
								},
								{
									"internalType": "bool",
									"name": "marketunlock",
									"type": "bool"
								},
								{
									"internalType": "bool",
									"name": "unlock",
									"type": "bool"
								},
								{
									"internalType": "address",
									"name": "creator",
									"type": "address"
								},
								{
									"internalType": "bool",
									"name": "isUsed",
									"type": "bool"
								}
							],
							"internalType": "struct LCoin.Info",
							"name": "_coinInfo",
							"type": "tuple"
						}
					],
					"name": "updateCoinbyMarketor",
					"outputs": [],
					"stateMutability": "nonpayable",
					"type": "function"
				}
			],
			"devdoc": {
				"kind": "dev",
				"methods": {
					"addCoinbyMarketor((bytes32,bytes6,uint8,uint8,uint256,uint256,address,bytes32,bytes32,bytes32,bool,bool,address,bool))": {
						"details": "Explain to a developer any extra details"
					}
				},
				"version": 1
			},
			"evm": {
				"assembly": "    /* \"Contracts/Copy_MoonV1Coin.sol\":168:7261  contract MoonV1Coin {... */\n  mstore(0x40, 0x80)\n    /* \"Contracts/Copy_MoonV1Coin.sol\":761:960  constructor(address _gateContractAddress, address _marketorContractAddress)... */\n  callvalue\n  dup1\n  iszero\n  tag_1\n  jumpi\n  0x00\n  dup1\n  revert\ntag_1:\n  pop\n  mload(0x40)\n  sub(codesize, bytecodeSize)\n  dup1\n  bytecodeSize\n  dup4\n  codecopy\n  dup2\n  add\n  0x40\n  dup2\n  swap1\n  mstore\n  tag_2\n  swap2\n  tag_3\n  jump\t// in\ntag_2:\n    /* \"Contracts/Copy_MoonV1Coin.sol\":851:870  gateContractAddress */\n  0x03\n    /* \"Contracts/Copy_MoonV1Coin.sol\":851:893  gateContractAddress = _gateContractAddress */\n  dup1\n  sload\n  sub(shl(0xa0, 0x01), 0x01)\n  swap4\n  dup5\n  and\n  not(sub(shl(0xa0, 0x01), 0x01))\n  swap2\n  dup3\n  and\n  or\n  swap1\n  swap2\n  sstore\n    /* \"Contracts/Copy_MoonV1Coin.sol\":903:926  marketorContractAddress */\n  0x04\n    /* \"Contracts/Copy_MoonV1Coin.sol\":903:953  marketorContractAddress = _marketorContractAddress */\n  dup1\n  sload\n  swap3\n  swap1\n  swap4\n  and\n  swap2\n  and\n  or\n  swap1\n  sstore\n    /* \"Contracts/Copy_MoonV1Coin.sol\":168:7261  contract MoonV1Coin {... */\n  jump(tag_7)\n    /* \"#utility.yul\":14:191   */\ntag_8:\n    /* \"#utility.yul\":93:106   */\n  dup1\n  mload\n  sub(shl(0xa0, 0x01), 0x01)\n    /* \"#utility.yul\":135:166   */\n  dup2\n  and\n    /* \"#utility.yul\":125:167   */\n  dup2\n  eq\n    /* \"#utility.yul\":115:185   */\n  tag_10\n  jumpi\n    /* \"#utility.yul\":181:182   */\n  0x00\n    /* \"#utility.yul\":178:179   */\n  dup1\n    /* \"#utility.yul\":171:183   */\n  revert\n    /* \"#utility.yul\":115:185   */\ntag_10:\n    /* \"#utility.yul\":14:191   */\n  swap2\n  swap1\n  pop\n  jump\t// out\n    /* \"#utility.yul\":196:489   */\ntag_3:\n    /* \"#utility.yul\":275:281   */\n  0x00\n    /* \"#utility.yul\":283:289   */\n  dup1\n    /* \"#utility.yul\":336:338   */\n  0x40\n    /* \"#utility.yul\":324:333   */\n  dup4\n    /* \"#utility.yul\":315:322   */\n  dup6\n    /* \"#utility.yul\":311:334   */\n  sub\n    /* \"#utility.yul\":307:339   */\n  slt\n    /* \"#utility.yul\":304:356   */\n  iszero\n  tag_12\n  jumpi\n    /* \"#utility.yul\":352:353   */\n  0x00\n    /* \"#utility.yul\":349:350   */\n  dup1\n    /* \"#utility.yul\":342:354   */\n  revert\n    /* \"#utility.yul\":304:356   */\ntag_12:\n    /* \"#utility.yul\":375:415   */\n  tag_13\n    /* \"#utility.yul\":405:414   */\n  dup4\n    /* \"#utility.yul\":375:415   */\n  tag_8\n  jump\t// in\ntag_13:\n    /* \"#utility.yul\":365:415   */\n  swap2\n  pop\n    /* \"#utility.yul\":434:483   */\n  tag_14\n    /* \"#utility.yul\":479:481   */\n  0x20\n    /* \"#utility.yul\":468:477   */\n  dup5\n    /* \"#utility.yul\":464:482   */\n  add\n    /* \"#utility.yul\":434:483   */\n  tag_8\n  jump\t// in\ntag_14:\n    /* \"#utility.yul\":424:483   */\n  swap1\n  pop\n    /* \"#utility.yul\":196:489   */\n  swap3\n  pop\n  swap3\n  swap1\n  pop\n  jump\t// out\ntag_7:\n    /* \"Contracts/Copy_MoonV1Coin.sol\":168:7261  contract MoonV1Coin {... */\n  dataSize(sub_0)\n  dup1\n  dataOffset(sub_0)\n  0x00\n  codecopy\n  0x00\n  return\nstop\n\nsub_0: assembly {\n        /* \"Contracts/Copy_MoonV1Coin.sol\":168:7261  contract MoonV1Coin {... */\n      mstore(0x40, 0x80)\n      callvalue\n      dup1\n      iszero\n      tag_1\n      jumpi\n      0x00\n      dup1\n      revert\n    tag_1:\n      pop\n      jumpi(tag_2, lt(calldatasize, 0x04))\n      shr(0xe0, calldataload(0x00))\n      dup1\n      0x5385cbf5\n      gt\n      tag_22\n      jumpi\n      dup1\n      0xcc0bf757\n      gt\n      tag_23\n      jumpi\n      dup1\n      0xe8dd4655\n      gt\n      tag_24\n      jumpi\n      dup1\n      0xe8dd4655\n      eq\n      tag_19\n      jumpi\n      dup1\n      0xe911abec\n      eq\n      tag_20\n      jumpi\n      dup1\n      0xeaec0112\n      eq\n      tag_21\n      jumpi\n      0x00\n      dup1\n      revert\n    tag_24:\n      dup1\n      0xcc0bf757\n      eq\n      tag_17\n      jumpi\n      dup1\n      0xcfcdca52\n      eq\n      tag_18\n      jumpi\n      0x00\n      dup1\n      revert\n    tag_23:\n      dup1\n      0x87a70938\n      gt\n      tag_25\n      jumpi\n      dup1\n      0x87a70938\n      eq\n      tag_14\n      jumpi\n      dup1\n      0xa935b6af\n      eq\n      tag_15\n      jumpi\n      dup1\n      0xb20be2b4\n      eq\n      tag_16\n      jumpi\n      0x00\n      dup1\n      revert\n    tag_25:\n      dup1\n      0x5385cbf5\n      eq\n      tag_12\n      jumpi\n      dup1\n      0x7c3e2f02\n      eq\n      tag_13\n      jumpi\n      0x00\n      dup1\n      revert\n    tag_22:\n      dup1\n      0x328320bf\n      gt\n      tag_26\n      jumpi\n      dup1\n      0x3b830305\n      gt\n      tag_27\n      jumpi\n      dup1\n      0x3b830305\n      eq\n      tag_9\n      jumpi\n      dup1\n      0x441eb548\n      eq\n      tag_10\n      jumpi\n      dup1\n      0x492b7107\n      eq\n      tag_11\n      jumpi\n      0x00\n      dup1\n      revert\n    tag_27:\n      dup1\n      0x328320bf\n      eq\n      tag_7\n      jumpi\n      dup1\n      0x385e4b7a\n      eq\n      tag_8\n      jumpi\n      0x00\n      dup1\n      revert\n    tag_26:\n      dup1\n      0x1d3b8f67\n      eq\n      tag_3\n      jumpi\n      dup1\n      0x24fd7139\n      eq\n      tag_4\n      jumpi\n      dup1\n      0x2f17d5df\n      eq\n      tag_5\n      jumpi\n      dup1\n      0x31ecdeb8\n      eq\n      tag_6\n      jumpi\n    tag_2:\n      0x00\n      dup1\n      revert\n        /* \"Contracts/Copy_MoonV1Coin.sol\":2849:3023  function unlockCoinbyMarketor(address _internalCoinAddress)... */\n    tag_3:\n      tag_28\n      tag_29\n      calldatasize\n      0x04\n      tag_30\n      jump\t// in\n    tag_29:\n      tag_31\n      jump\t// in\n    tag_28:\n      stop\n        /* \"Contracts/Copy_MoonV1Coin.sol\":3029:3453  function updateCoinbyMarketor(LCoin.Info memory _coinInfo)... */\n    tag_4:\n      tag_28\n      tag_33\n      calldatasize\n      0x04\n      tag_34\n      jump\t// in\n    tag_33:\n      tag_35\n      jump\t// in\n        /* \"Contracts/Copy_MoonV1Coin.sol\":676:710  address public gateContractAddress */\n    tag_5:\n      sload(0x03)\n      tag_36\n      swap1\n      sub(shl(0xa0, 0x01), 0x01)\n      and\n      dup2\n      jump\n    tag_36:\n      mload(0x40)\n      sub(shl(0xa0, 0x01), 0x01)\n        /* \"#utility.yul\":3622:3677   */\n      swap1\n      swap2\n      and\n        /* \"#utility.yul\":3604:3678   */\n      dup2\n      mstore\n        /* \"#utility.yul\":3592:3594   */\n      0x20\n        /* \"#utility.yul\":3577:3595   */\n      add\n        /* \"Contracts/Copy_MoonV1Coin.sol\":676:710  address public gateContractAddress */\n    tag_38:\n      mload(0x40)\n      dup1\n      swap2\n      sub\n      swap1\n      return\n        /* \"Contracts/Copy_MoonV1Coin.sol\":623:669  mapping(address => LCoin.Info) public coinList */\n    tag_6:\n      tag_40\n      tag_41\n      calldatasize\n      0x04\n      tag_30\n      jump\t// in\n    tag_41:\n      0x02\n      0x20\n      dup2\n      swap1\n      mstore\n      0x00\n      swap2\n      dup3\n      mstore\n      0x40\n      swap1\n      swap2\n      keccak256\n      dup1\n      sload\n      0x01\n      dup3\n      add\n      sload\n      swap3\n      dup3\n      add\n      sload\n      0x03\n      dup4\n      add\n      sload\n      0x04\n      dup5\n      add\n      sload\n      0x05\n      dup6\n      add\n      sload\n      0x06\n      dup7\n      add\n      sload\n      0x07\n      dup8\n      add\n      sload\n      0x08\n      swap1\n      swap8\n      add\n      sload\n      swap6\n      swap8\n      0xd0\n      dup2\n      swap1\n      shl\n      swap8\n      0xff\n      0x01000000000000\n      dup4\n      div\n      dup2\n      and\n      swap9\n      0x0100000000000000\n      swap1\n      swap4\n      div\n      dup2\n      and\n      swap8\n      swap7\n      swap6\n      sub(shl(0xa0, 0x01), 0x01)\n      swap1\n      dup2\n      and\n      swap6\n      swap5\n      swap4\n      dup1\n      dup4\n      and\n      swap3\n      0x0100\n      dup3\n      div\n      dup2\n      and\n      swap3\n      0x010000\n      dup4\n      div\n      and\n      swap2\n      shl(0xb0, 0x01)\n      swap1\n      div\n      and\n      dup15\n      jump\n    tag_40:\n      mload(0x40)\n      tag_38\n      swap15\n      swap14\n      swap13\n      swap12\n      swap11\n      swap10\n      swap9\n      swap8\n      swap7\n      swap6\n      swap5\n      swap4\n      swap3\n      swap2\n      swap1\n      tag_44\n      jump\t// in\n        /* \"Contracts/Copy_MoonV1Coin.sol\":7130:7259  function isValidCoin(address _coinAddress) public view returns (bool) {... */\n    tag_7:\n      tag_45\n      tag_46\n      calldatasize\n      0x04\n      tag_30\n      jump\t// in\n    tag_46:\n      sub(shl(0xa0, 0x01), 0x01)\n        /* \"Contracts/Copy_MoonV1Coin.sol\":7217:7239  coinList[_coinAddress] */\n      and\n        /* \"Contracts/Copy_MoonV1Coin.sol\":7194:7198  bool */\n      0x00\n        /* \"Contracts/Copy_MoonV1Coin.sol\":7217:7239  coinList[_coinAddress] */\n      swap1\n      dup2\n      mstore\n        /* \"Contracts/Copy_MoonV1Coin.sol\":7217:7225  coinList */\n      0x02\n        /* \"Contracts/Copy_MoonV1Coin.sol\":7217:7239  coinList[_coinAddress] */\n      0x20\n      mstore\n      0x40\n      swap1\n      keccak256\n        /* \"Contracts/Copy_MoonV1Coin.sol\":7217:7252  coinList[_coinAddress].marketunlock */\n      0x08\n      add\n      sload\n      0xff\n      and\n      swap1\n        /* \"Contracts/Copy_MoonV1Coin.sol\":7130:7259  function isValidCoin(address _coinAddress) public view returns (bool) {... */\n      jump\n    tag_45:\n      mload(0x40)\n        /* \"#utility.yul\":3854:3868   */\n      swap1\n      iszero\n        /* \"#utility.yul\":3847:3869   */\n      iszero\n        /* \"#utility.yul\":3829:3870   */\n      dup2\n      mstore\n        /* \"#utility.yul\":3817:3819   */\n      0x20\n        /* \"#utility.yul\":3802:3820   */\n      add\n        /* \"Contracts/Copy_MoonV1Coin.sol\":7130:7259  function isValidCoin(address _coinAddress) public view returns (bool) {... */\n      tag_38\n        /* \"#utility.yul\":3689:3876   */\n      jump\n        /* \"Contracts/Copy_MoonV1Coin.sol\":5767:6055  function unlockCoinbyGator(address _internalCoinAddress)... */\n    tag_8:\n      tag_28\n      tag_51\n      calldatasize\n      0x04\n      tag_30\n      jump\t// in\n    tag_51:\n      tag_52\n      jump\t// in\n        /* \"Contracts/Copy_MoonV1Coin.sol\":292:341  mapping(address => address) public marketCoinList */\n    tag_9:\n      tag_36\n      tag_54\n      calldatasize\n      0x04\n      tag_30\n      jump\t// in\n    tag_54:\n      0x00\n      0x20\n      dup2\n      swap1\n      mstore\n      swap1\n      dup2\n      mstore\n      0x40\n      swap1\n      keccak256\n      sload\n      sub(shl(0xa0, 0x01), 0x01)\n      and\n      dup2\n      jump\n        /* \"Contracts/Copy_MoonV1Coin.sol\":6061:6328  function lockCoinbyGator(address _internalCoinAddress) external onlyGator {... */\n    tag_10:\n      tag_28\n      tag_58\n      calldatasize\n      0x04\n      tag_30\n      jump\t// in\n    tag_58:\n      tag_59\n      jump\t// in\n        /* \"Contracts/Copy_MoonV1Coin.sol\":716:754  address public marketorContractAddress */\n    tag_11:\n      sload(0x04)\n      tag_36\n      swap1\n      sub(shl(0xa0, 0x01), 0x01)\n      and\n      dup2\n      jump\n        /* \"Contracts/Copy_MoonV1Coin.sol\":2474:2664  function changeCoinScopebyMarketor(... */\n    tag_12:\n      tag_28\n      tag_64\n      calldatasize\n      0x04\n      tag_65\n      jump\t// in\n    tag_64:\n      tag_66\n      jump\t// in\n        /* \"Contracts/Copy_MoonV1Coin.sol\":4045:4326  function delCoinbyMarketor(address _contractaddress)... */\n    tag_13:\n      tag_28\n      tag_68\n      calldatasize\n      0x04\n      tag_30\n      jump\t// in\n    tag_68:\n      tag_69\n      jump\t// in\n        /* \"Contracts/Copy_MoonV1Coin.sol\":1684:2468  function addCoinbyMarketor(LCoin.Info memory _coinInfo)... */\n    tag_14:\n      tag_28\n      tag_71\n      calldatasize\n      0x04\n      tag_34\n      jump\t// in\n    tag_71:\n      tag_72\n      jump\t// in\n        /* \"Contracts/Copy_MoonV1Coin.sol\":6334:6831  function updateCoinbyGator(LCoin.Info memory _coinInfo) external onlyGator {... */\n    tag_15:\n      tag_28\n      tag_74\n      calldatasize\n      0x04\n      tag_34\n      jump\t// in\n    tag_74:\n      tag_75\n      jump\t// in\n        /* \"Contracts/Copy_MoonV1Coin.sol\":2670:2843  function lockCoinbyMarketor(address _internalCoinAddress)... */\n    tag_16:\n      tag_28\n      tag_77\n      calldatasize\n      0x04\n      tag_30\n      jump\t// in\n    tag_77:\n      tag_78\n      jump\t// in\n        /* \"Contracts/Copy_MoonV1Coin.sol\":461:528  mapping(address => mapping(address => address)) public gateCoinList */\n    tag_17:\n      tag_36\n      tag_80\n      calldatasize\n      0x04\n      tag_81\n      jump\t// in\n    tag_80:\n      0x01\n      0x20\n      swap1\n      dup2\n      mstore\n      0x00\n      swap3\n      dup4\n      mstore\n      0x40\n      dup1\n      dup5\n      keccak256\n      swap1\n      swap2\n      mstore\n      swap1\n      dup3\n      mstore\n      swap1\n      keccak256\n      sload\n      sub(shl(0xa0, 0x01), 0x01)\n      and\n      dup2\n      jump\n        /* \"Contracts/Copy_MoonV1Coin.sol\":3459:4039  function impoveGateCoinbyMarketor(... */\n    tag_18:\n      tag_28\n      tag_85\n      calldatasize\n      0x04\n      tag_81\n      jump\t// in\n    tag_85:\n      tag_86\n      jump\t// in\n        /* \"Contracts/Copy_MoonV1Coin.sol\":6837:7124  function getCoinInfo(address _contractaddress)... */\n    tag_19:\n      tag_87\n      tag_88\n      calldatasize\n      0x04\n      tag_30\n      jump\t// in\n    tag_88:\n      tag_89\n      jump\t// in\n    tag_87:\n      mload(0x40)\n      tag_38\n      swap2\n      swap1\n      tag_91\n      jump\t// in\n        /* \"Contracts/Copy_MoonV1Coin.sol\":4803:5761  function addCoinbyGator(LCoin.Info memory _coinInfo) external onlyGator {... */\n    tag_20:\n      tag_28\n      tag_93\n      calldatasize\n      0x04\n      tag_34\n      jump\t// in\n    tag_93:\n      tag_94\n      jump\t// in\n        /* \"Contracts/Copy_MoonV1Coin.sol\":4332:4665  function delGateCoinbyMarketor(... */\n    tag_21:\n      tag_28\n      tag_96\n      calldatasize\n      0x04\n      tag_81\n      jump\t// in\n    tag_96:\n      tag_97\n      jump\t// in\n        /* \"Contracts/Copy_MoonV1Coin.sol\":2849:3023  function unlockCoinbyMarketor(address _internalCoinAddress)... */\n    tag_31:\n        /* \"Contracts/Copy_MoonV1Coin.sol\":1367:1390  marketorContractAddress */\n      0x04\n      dup1\n      sload\n        /* \"Contracts/Copy_MoonV1Coin.sol\":1353:1409  MoonV1Manager(marketorContractAddress).ismarketManager() */\n      0x40\n      dup1\n      mload\n      shl(0xe1, 0x0a43f929)\n      dup2\n      mstore\n      swap1\n      mload\n      sub(shl(0xa0, 0x01), 0x01)\n        /* \"Contracts/Copy_MoonV1Coin.sol\":1367:1390  marketorContractAddress */\n      swap1\n      swap3\n      and\n      swap3\n        /* \"Contracts/Copy_MoonV1Coin.sol\":1353:1407  MoonV1Manager(marketorContractAddress).ismarketManager */\n      0x1487f252\n      swap3\n        /* \"Contracts/Copy_MoonV1Coin.sol\":1353:1409  MoonV1Manager(marketorContractAddress).ismarketManager() */\n      dup3\n      dup3\n      add\n      swap3\n      0x20\n      swap3\n      swap1\n      dup3\n      swap1\n      sub\n      add\n      dup2\n        /* \"Contracts/Copy_MoonV1Coin.sol\":1367:1390  marketorContractAddress */\n      dup7\n        /* \"Contracts/Copy_MoonV1Coin.sol\":1353:1409  MoonV1Manager(marketorContractAddress).ismarketManager() */\n      dup1\n      extcodesize\n      iszero\n      dup1\n      iszero\n      tag_99\n      jumpi\n      0x00\n      dup1\n      revert\n    tag_99:\n      pop\n      gas\n      staticcall\n      iszero\n      dup1\n      iszero\n      tag_101\n      jumpi\n      returndatasize\n      0x00\n      dup1\n      returndatacopy\n      revert(0x00, returndatasize)\n    tag_101:\n      pop\n      pop\n      pop\n      pop\n      mload(0x40)\n      returndatasize\n      not(0x1f)\n      0x1f\n      dup3\n      add\n      and\n      dup3\n      add\n      dup1\n      0x40\n      mstore\n      pop\n      dup2\n      add\n      swap1\n      tag_102\n      swap2\n      swap1\n      tag_103\n      jump\t// in\n    tag_102:\n        /* \"Contracts/Copy_MoonV1Coin.sol\":1332:1419  require(... */\n      tag_104\n      jumpi\n      0x00\n      dup1\n      revert\n    tag_104:\n      sub(shl(0xa0, 0x01), 0x01)\n        /* \"Contracts/Copy_MoonV1Coin.sol\":2966:2996  coinList[_internalCoinAddress] */\n      and\n      0x00\n      swap1\n      dup2\n      mstore\n        /* \"Contracts/Copy_MoonV1Coin.sol\":2966:2974  coinList */\n      0x02\n        /* \"Contracts/Copy_MoonV1Coin.sol\":2966:2996  coinList[_internalCoinAddress] */\n      0x20\n      mstore\n      0x40\n      swap1\n      keccak256\n        /* \"Contracts/Copy_MoonV1Coin.sol\":2966:3009  coinList[_internalCoinAddress].marketunlock */\n      0x08\n      add\n        /* \"Contracts/Copy_MoonV1Coin.sol\":2966:3016  coinList[_internalCoinAddress].marketunlock = true */\n      dup1\n      sload\n      not(0xff)\n      and\n        /* \"Contracts/Copy_MoonV1Coin.sol\":3012:3016  true */\n      0x01\n        /* \"Contracts/Copy_MoonV1Coin.sol\":2966:3016  coinList[_internalCoinAddress].marketunlock = true */\n      or\n      swap1\n      sstore\n        /* \"Contracts/Copy_MoonV1Coin.sol\":2849:3023  function unlockCoinbyMarketor(address _internalCoinAddress)... */\n      jump\t// out\n        /* \"Contracts/Copy_MoonV1Coin.sol\":3029:3453  function updateCoinbyMarketor(LCoin.Info memory _coinInfo)... */\n    tag_35:\n        /* \"Contracts/Copy_MoonV1Coin.sol\":1367:1390  marketorContractAddress */\n      0x04\n      dup1\n      sload\n        /* \"Contracts/Copy_MoonV1Coin.sol\":1353:1409  MoonV1Manager(marketorContractAddress).ismarketManager() */\n      0x40\n      dup1\n      mload\n      shl(0xe1, 0x0a43f929)\n      dup2\n      mstore\n      swap1\n      mload\n      sub(shl(0xa0, 0x01), 0x01)\n        /* \"Contracts/Copy_MoonV1Coin.sol\":1367:1390  marketorContractAddress */\n      swap1\n      swap3\n      and\n      swap3\n        /* \"Contracts/Copy_MoonV1Coin.sol\":1353:1407  MoonV1Manager(marketorContractAddress).ismarketManager */\n      0x1487f252\n      swap3\n        /* \"Contracts/Copy_MoonV1Coin.sol\":1353:1409  MoonV1Manager(marketorContractAddress).ismarketManager() */\n      dup3\n      dup3\n      add\n      swap3\n      0x20\n      swap3\n      swap1\n      dup3\n      swap1\n      sub\n      add\n      dup2\n        /* \"Contracts/Copy_MoonV1Coin.sol\":1367:1390  marketorContractAddress */\n      dup7\n        /* \"Contracts/Copy_MoonV1Coin.sol\":1353:1409  MoonV1Manager(marketorContractAddress).ismarketManager() */\n      dup1\n      extcodesize\n      iszero\n      dup1\n      iszero\n      tag_107\n      jumpi\n      0x00\n      dup1\n      revert\n    tag_107:\n      pop\n      gas\n      staticcall\n      iszero\n      dup1\n      iszero\n      tag_109\n      jumpi\n      returndatasize\n      0x00\n      dup1\n      returndatacopy\n      revert(0x00, returndatasize)\n    tag_109:\n      pop\n      pop\n      pop\n      pop\n      mload(0x40)\n      returndatasize\n      not(0x1f)\n      0x1f\n      dup3\n      add\n      and\n      dup3\n      add\n      dup1\n      0x40\n      mstore\n      pop\n      dup2\n      add\n      swap1\n      tag_110\n      swap2\n      swap1\n      tag_103\n      jump\t// in\n    tag_110:\n        /* \"Contracts/Copy_MoonV1Coin.sol\":1332:1419  require(... */\n      tag_111\n      jumpi\n      0x00\n      dup1\n      revert\n    tag_111:\n        /* \"Contracts/Copy_MoonV1Coin.sol\":3168:3193  _coinInfo.contractAddress */\n      0xc0\n      dup2\n      add\n      mload\n      sub(shl(0xa0, 0x01), 0x01)\n        /* \"Contracts/Copy_MoonV1Coin.sol\":3153:3194  marketCoinList[_coinInfo.contractAddress] */\n      swap1\n      dup2\n      and\n        /* \"Contracts/Copy_MoonV1Coin.sol\":3206:3207  0 */\n      0x00\n        /* \"Contracts/Copy_MoonV1Coin.sol\":3153:3194  marketCoinList[_coinInfo.contractAddress] */\n      swap1\n      dup2\n      mstore\n      0x20\n      dup2\n      swap1\n      mstore\n      0x40\n      swap1\n      keccak256\n      sload\n      and\n        /* \"Contracts/Copy_MoonV1Coin.sol\":3145:3209  require(marketCoinList[_coinInfo.contractAddress] != address(0)) */\n      tag_113\n      jumpi\n      0x00\n      dup1\n      revert\n    tag_113:\n        /* \"Contracts/Copy_MoonV1Coin.sol\":3244:3249  false */\n      0x00\n        /* \"Contracts/Copy_MoonV1Coin.sol\":3219:3241  _coinInfo.marketunlock */\n      0x0140\n      dup3\n      add\n        /* \"Contracts/Copy_MoonV1Coin.sol\":3219:3249  _coinInfo.marketunlock = false */\n      dup2\n      dup2\n      mstore\n        /* \"Contracts/Copy_MoonV1Coin.sol\":3259:3275  _coinInfo.unlock */\n      0x0160\n      dup4\n      add\n        /* \"Contracts/Copy_MoonV1Coin.sol\":3259:3283  _coinInfo.unlock = false */\n      dup3\n      dup2\n      mstore\n        /* \"Contracts/Copy_MoonV1Coin.sol\":3219:3249  _coinInfo.marketunlock = false */\n      0x01\n        /* \"Contracts/Copy_MoonV1Coin.sol\":3293:3309  _coinInfo.isUsed */\n      0x01a0\n      dup6\n      add\n        /* \"Contracts/Copy_MoonV1Coin.sol\":3293:3316  _coinInfo.isUsed = true */\n      dup2\n      dup2\n      mstore\n        /* \"Contracts/Copy_MoonV1Coin.sol\":3355:3380  _coinInfo.contractAddress */\n      0xc0\n      dup7\n      add\n      dup1\n      mload\n      sub(shl(0xa0, 0x01), 0x01)\n        /* \"Contracts/Copy_MoonV1Coin.sol\":3346:3381  coinList[_coinInfo.contractAddress] */\n      swap1\n      dup2\n      and\n      dup8\n      mstore\n        /* \"Contracts/Copy_MoonV1Coin.sol\":3346:3354  coinList */\n      0x02\n        /* \"Contracts/Copy_MoonV1Coin.sol\":3346:3381  coinList[_coinInfo.contractAddress] */\n      0x20\n      dup2\n      dup2\n      mstore\n      0x40\n      dup1\n      dup11\n      keccak256\n        /* \"Contracts/Copy_MoonV1Coin.sol\":3346:3389  coinList[_coinInfo.contractAddress].creator */\n      0x08\n      swap1\n      dup2\n      add\n      sload\n      0x010000\n      swap1\n      dup2\n      swap1\n      div\n      dup7\n      and\n        /* \"Contracts/Copy_MoonV1Coin.sol\":3326:3343  _coinInfo.creator */\n      0x0180\n      dup15\n      add\n        /* \"Contracts/Copy_MoonV1Coin.sol\":3326:3389  _coinInfo.creator = coinList[_coinInfo.contractAddress].creator */\n      swap1\n      dup2\n      mstore\n        /* \"Contracts/Copy_MoonV1Coin.sol\":3408:3433  _coinInfo.contractAddress */\n      dup8\n      mload\n        /* \"Contracts/Copy_MoonV1Coin.sol\":3399:3434  coinList[_coinInfo.contractAddress] */\n      dup8\n      and\n      dup14\n      mstore\n      dup6\n      dup6\n      mstore\n      swap12\n      dup4\n      swap1\n      keccak256\n        /* \"Contracts/Copy_MoonV1Coin.sol\":3399:3446  coinList[_coinInfo.contractAddress] = _coinInfo */\n      dup14\n      mload\n      dup2\n      sstore\n      swap4\n      dup14\n      add\n      mload\n      swap9\n      dup5\n      add\n      dup1\n      sload\n      swap4\n      dup15\n      add\n      mload\n      0x60\n      dup16\n      add\n      mload\n      0xd0\n      swap12\n      swap1\n      swap12\n      shr\n      not(0xffffffffffffff)\n      swap1\n      swap6\n      and\n      swap5\n      swap1\n      swap5\n      or\n      0x01000000000000\n      0xff\n      swap6\n      dup7\n      and\n      mul\n      or\n      not(0xff00000000000000)\n      and\n      0x0100000000000000\n      swap5\n      swap1\n      swap11\n      and\n      swap4\n      swap1\n      swap4\n      mul\n      swap9\n      swap1\n      swap9\n      or\n      swap1\n      swap2\n      sstore\n      0x80\n      dup12\n      add\n      mload\n      swap3\n      dup3\n      add\n      swap3\n      swap1\n      swap3\n      sstore\n      0xa0\n      dup11\n      add\n      mload\n      0x03\n      dup3\n      add\n      sstore\n      swap3\n      mload\n      0x04\n      dup5\n      add\n      dup1\n      sload\n      not(0xffffffffffffffffffffffffffffffffffffffff)\n      and\n      swap2\n      dup5\n      and\n      swap2\n      swap1\n      swap2\n      or\n      swap1\n      sstore\n      0xe0\n      dup10\n      add\n      mload\n      0x05\n      dup5\n      add\n      sstore\n        /* \"Contracts/Copy_MoonV1Coin.sol\":3346:3389  coinList[_coinInfo.contractAddress].creator */\n      0x0100\n        /* \"Contracts/Copy_MoonV1Coin.sol\":3399:3446  coinList[_coinInfo.contractAddress] = _coinInfo */\n      dup1\n      dup11\n      add\n      mload\n      0x06\n      dup6\n      add\n      sstore\n      0x0120\n      swap1\n      swap10\n      add\n      mload\n      0x07\n      dup5\n      add\n      sstore\n      swap6\n      mload\n      swap2\n      swap1\n      swap6\n      add\n      dup1\n      sload\n      swap5\n      mload\n      swap7\n      mload\n      swap3\n      mload\n      not(0xffff)\n      swap1\n      swap6\n      and\n      swap2\n      iszero\n      iszero\n      not(0xff00)\n      and\n      swap2\n      swap1\n      swap2\n      or\n      swap6\n      iszero\n      iszero\n      swap1\n      swap7\n      mul\n      swap5\n      swap1\n      swap5\n      or\n      0xffffffffffffffffff000000000000000000000000000000000000000000ffff\n      and\n      swap4\n      swap1\n      swap3\n      and\n      swap1\n      swap2\n      mul\n      0xffffffffffffffffff00ffffffffffffffffffffffffffffffffffffffffffff\n      and\n      swap2\n      swap1\n      swap2\n      or\n      shl(0xb0, 0x01)\n      swap2\n      iszero\n      iszero\n      swap2\n      swap1\n      swap2\n      mul\n      or\n      swap1\n      sstore\n        /* \"Contracts/Copy_MoonV1Coin.sol\":3029:3453  function updateCoinbyMarketor(LCoin.Info memory _coinInfo)... */\n      jump\t// out\n        /* \"Contracts/Copy_MoonV1Coin.sol\":5767:6055  function unlockCoinbyGator(address _internalCoinAddress)... */\n    tag_52:\n        /* \"Contracts/Copy_MoonV1Coin.sol\":1233:1252  gateContractAddress */\n      0x03\n      0x00\n      swap1\n      sload\n      swap1\n      0x0100\n      exp\n      swap1\n      div\n      sub(shl(0xa0, 0x01), 0x01)\n      and\n      sub(shl(0xa0, 0x01), 0x01)\n        /* \"Contracts/Copy_MoonV1Coin.sol\":1221:1266  MoonV1Gater(gateContractAddress).isValidGater */\n      and\n      0xab3acb5c\n        /* \"Contracts/Copy_MoonV1Coin.sol\":1221:1268  MoonV1Gater(gateContractAddress).isValidGater() */\n      mload(0x40)\n      dup2\n      0xffffffff\n      and\n      0xe0\n      shl\n      dup2\n      mstore\n      0x04\n      add\n      0x20\n      mload(0x40)\n      dup1\n      dup4\n      sub\n      dup2\n      dup7\n      dup1\n      extcodesize\n      iszero\n      dup1\n      iszero\n      tag_116\n      jumpi\n      0x00\n      dup1\n      revert\n    tag_116:\n      pop\n      gas\n      staticcall\n      iszero\n      dup1\n      iszero\n      tag_118\n      jumpi\n      returndatasize\n      0x00\n      dup1\n      returndatacopy\n      revert(0x00, returndatasize)\n    tag_118:\n      pop\n      pop\n      pop\n      pop\n      mload(0x40)\n      returndatasize\n      not(0x1f)\n      0x1f\n      dup3\n      add\n      and\n      dup3\n      add\n      dup1\n      0x40\n      mstore\n      pop\n      dup2\n      add\n      swap1\n      tag_119\n      swap2\n      swap1\n      tag_103\n      jump\t// in\n    tag_119:\n        /* \"Contracts/Copy_MoonV1Coin.sol\":1213:1269  require(MoonV1Gater(gateContractAddress).isValidGater()) */\n      tag_120\n      jumpi\n      0x00\n      dup1\n      revert\n    tag_120:\n      sub(shl(0xa0, 0x01), 0x01)\n        /* \"Contracts/Copy_MoonV1Coin.sol\":5894:5924  coinList[_internalCoinAddress] */\n      dup2\n      dup2\n      and\n      0x00\n      swap1\n      dup2\n      mstore\n        /* \"Contracts/Copy_MoonV1Coin.sol\":5894:5902  coinList */\n      0x02\n        /* \"Contracts/Copy_MoonV1Coin.sol\":5894:5924  coinList[_internalCoinAddress] */\n      0x20\n      mstore\n      0x40\n      swap1\n      keccak256\n        /* \"Contracts/Copy_MoonV1Coin.sol\":5894:5932  coinList[_internalCoinAddress].creator */\n      0x08\n      add\n      sload\n      0x010000\n      swap1\n      div\n      and\n        /* \"Contracts/Copy_MoonV1Coin.sol\":5936:5946  msg.sender */\n      caller\n        /* \"Contracts/Copy_MoonV1Coin.sol\":5894:5946  coinList[_internalCoinAddress].creator == msg.sender */\n      eq\n        /* \"Contracts/Copy_MoonV1Coin.sol\":5873:5994  require(... */\n      tag_122\n      jumpi\n      mload(0x40)\n      shl(0xe5, 0x461bcd)\n      dup2\n      mstore\n        /* \"#utility.yul\":6747:6749   */\n      0x20\n        /* \"Contracts/Copy_MoonV1Coin.sol\":5873:5994  require(... */\n      0x04\n      dup3\n      add\n        /* \"#utility.yul\":6729:6750   */\n      mstore\n        /* \"#utility.yul\":6786:6788   */\n      0x16\n        /* \"#utility.yul\":6766:6784   */\n      0x24\n      dup3\n      add\n        /* \"#utility.yul\":6759:6789   */\n      mstore\n        /* \"#utility.yul\":6825:6849   */\n      0x796f752068617665206e6f742074686520726967687400000000000000000000\n        /* \"#utility.yul\":6805:6823   */\n      0x44\n      dup3\n      add\n        /* \"#utility.yul\":6798:6850   */\n      mstore\n        /* \"#utility.yul\":6867:6885   */\n      0x64\n      add\n        /* \"Contracts/Copy_MoonV1Coin.sol\":5873:5994  require(... */\n    tag_123:\n      mload(0x40)\n      dup1\n      swap2\n      sub\n      swap1\n      revert\n    tag_122:\n      sub(shl(0xa0, 0x01), 0x01)\n        /* \"Contracts/Copy_MoonV1Coin.sol\":6004:6034  coinList[_internalCoinAddress] */\n      and\n      0x00\n      swap1\n      dup2\n      mstore\n        /* \"Contracts/Copy_MoonV1Coin.sol\":6004:6012  coinList */\n      0x02\n        /* \"Contracts/Copy_MoonV1Coin.sol\":6004:6034  coinList[_internalCoinAddress] */\n      0x20\n      mstore\n      0x40\n      swap1\n      keccak256\n        /* \"Contracts/Copy_MoonV1Coin.sol\":6004:6041  coinList[_internalCoinAddress].unlock */\n      0x08\n      add\n        /* \"Contracts/Copy_MoonV1Coin.sol\":6004:6048  coinList[_internalCoinAddress].unlock = true */\n      dup1\n      sload\n      not(0xff00)\n      and\n      0x0100\n      or\n      swap1\n      sstore\n        /* \"Contracts/Copy_MoonV1Coin.sol\":5767:6055  function unlockCoinbyGator(address _internalCoinAddress)... */\n      jump\t// out\n        /* \"Contracts/Copy_MoonV1Coin.sol\":6061:6328  function lockCoinbyGator(address _internalCoinAddress) external onlyGator {... */\n    tag_59:\n        /* \"Contracts/Copy_MoonV1Coin.sol\":1233:1252  gateContractAddress */\n      0x03\n      0x00\n      swap1\n      sload\n      swap1\n      0x0100\n      exp\n      swap1\n      div\n      sub(shl(0xa0, 0x01), 0x01)\n      and\n      sub(shl(0xa0, 0x01), 0x01)\n        /* \"Contracts/Copy_MoonV1Coin.sol\":1221:1266  MoonV1Gater(gateContractAddress).isValidGater */\n      and\n      0xab3acb5c\n        /* \"Contracts/Copy_MoonV1Coin.sol\":1221:1268  MoonV1Gater(gateContractAddress).isValidGater() */\n      mload(0x40)\n      dup2\n      0xffffffff\n      and\n      0xe0\n      shl\n      dup2\n      mstore\n      0x04\n      add\n      0x20\n      mload(0x40)\n      dup1\n      dup4\n      sub\n      dup2\n      dup7\n      dup1\n      extcodesize\n      iszero\n      dup1\n      iszero\n      tag_126\n      jumpi\n      0x00\n      dup1\n      revert\n    tag_126:\n      pop\n      gas\n      staticcall\n      iszero\n      dup1\n      iszero\n      tag_128\n      jumpi\n      returndatasize\n      0x00\n      dup1\n      returndatacopy\n      revert(0x00, returndatasize)\n    tag_128:\n      pop\n      pop\n      pop\n      pop\n      mload(0x40)\n      returndatasize\n      not(0x1f)\n      0x1f\n      dup3\n      add\n      and\n      dup3\n      add\n      dup1\n      0x40\n      mstore\n      pop\n      dup2\n      add\n      swap1\n      tag_129\n      swap2\n      swap1\n      tag_103\n      jump\t// in\n    tag_129:\n        /* \"Contracts/Copy_MoonV1Coin.sol\":1213:1269  require(MoonV1Gater(gateContractAddress).isValidGater()) */\n      tag_130\n      jumpi\n      0x00\n      dup1\n      revert\n    tag_130:\n      sub(shl(0xa0, 0x01), 0x01)\n        /* \"Contracts/Copy_MoonV1Coin.sol\":6166:6196  coinList[_internalCoinAddress] */\n      dup2\n      dup2\n      and\n      0x00\n      swap1\n      dup2\n      mstore\n        /* \"Contracts/Copy_MoonV1Coin.sol\":6166:6174  coinList */\n      0x02\n        /* \"Contracts/Copy_MoonV1Coin.sol\":6166:6196  coinList[_internalCoinAddress] */\n      0x20\n      mstore\n      0x40\n      swap1\n      keccak256\n        /* \"Contracts/Copy_MoonV1Coin.sol\":6166:6204  coinList[_internalCoinAddress].creator */\n      0x08\n      add\n      sload\n      0x010000\n      swap1\n      div\n      and\n        /* \"Contracts/Copy_MoonV1Coin.sol\":6208:6218  msg.sender */\n      caller\n        /* \"Contracts/Copy_MoonV1Coin.sol\":6166:6218  coinList[_internalCoinAddress].creator == msg.sender */\n      eq\n        /* \"Contracts/Copy_MoonV1Coin.sol\":6145:6266  require(... */\n      tag_132\n      jumpi\n      mload(0x40)\n      shl(0xe5, 0x461bcd)\n      dup2\n      mstore\n        /* \"#utility.yul\":6747:6749   */\n      0x20\n        /* \"Contracts/Copy_MoonV1Coin.sol\":6145:6266  require(... */\n      0x04\n      dup3\n      add\n        /* \"#utility.yul\":6729:6750   */\n      mstore\n        /* \"#utility.yul\":6786:6788   */\n      0x16\n        /* \"#utility.yul\":6766:6784   */\n      0x24\n      dup3\n      add\n        /* \"#utility.yul\":6759:6789   */\n      mstore\n        /* \"#utility.yul\":6825:6849   */\n      0x796f752068617665206e6f742074686520726967687400000000000000000000\n        /* \"#utility.yul\":6805:6823   */\n      0x44\n      dup3\n      add\n        /* \"#utility.yul\":6798:6850   */\n      mstore\n        /* \"#utility.yul\":6867:6885   */\n      0x64\n      add\n        /* \"Contracts/Copy_MoonV1Coin.sol\":6145:6266  require(... */\n      tag_123\n        /* \"#utility.yul\":6545:6891   */\n      jump\n        /* \"Contracts/Copy_MoonV1Coin.sol\":6145:6266  require(... */\n    tag_132:\n      sub(shl(0xa0, 0x01), 0x01)\n        /* \"Contracts/Copy_MoonV1Coin.sol\":6276:6306  coinList[_internalCoinAddress] */\n      and\n        /* \"Contracts/Copy_MoonV1Coin.sol\":6316:6321  false */\n      0x00\n        /* \"Contracts/Copy_MoonV1Coin.sol\":6276:6306  coinList[_internalCoinAddress] */\n      swap1\n      dup2\n      mstore\n        /* \"Contracts/Copy_MoonV1Coin.sol\":6276:6284  coinList */\n      0x02\n        /* \"Contracts/Copy_MoonV1Coin.sol\":6276:6306  coinList[_internalCoinAddress] */\n      0x20\n      mstore\n      0x40\n      swap1\n      keccak256\n        /* \"Contracts/Copy_MoonV1Coin.sol\":6276:6313  coinList[_internalCoinAddress].unlock */\n      0x08\n      add\n        /* \"Contracts/Copy_MoonV1Coin.sol\":6276:6321  coinList[_internalCoinAddress].unlock = false */\n      dup1\n      sload\n      not(0xff00)\n      and\n      swap1\n      sstore\n        /* \"Contracts/Copy_MoonV1Coin.sol\":6061:6328  function lockCoinbyGator(address _internalCoinAddress) external onlyGator {... */\n      jump\t// out\n        /* \"Contracts/Copy_MoonV1Coin.sol\":2474:2664  function changeCoinScopebyMarketor(... */\n    tag_66:\n        /* \"Contracts/Copy_MoonV1Coin.sol\":1367:1390  marketorContractAddress */\n      0x04\n      dup1\n      sload\n        /* \"Contracts/Copy_MoonV1Coin.sol\":1353:1409  MoonV1Manager(marketorContractAddress).ismarketManager() */\n      0x40\n      dup1\n      mload\n      shl(0xe1, 0x0a43f929)\n      dup2\n      mstore\n      swap1\n      mload\n      sub(shl(0xa0, 0x01), 0x01)\n        /* \"Contracts/Copy_MoonV1Coin.sol\":1367:1390  marketorContractAddress */\n      swap1\n      swap3\n      and\n      swap3\n        /* \"Contracts/Copy_MoonV1Coin.sol\":1353:1407  MoonV1Manager(marketorContractAddress).ismarketManager */\n      0x1487f252\n      swap3\n        /* \"Contracts/Copy_MoonV1Coin.sol\":1353:1409  MoonV1Manager(marketorContractAddress).ismarketManager() */\n      dup3\n      dup3\n      add\n      swap3\n      0x20\n      swap3\n      swap1\n      dup3\n      swap1\n      sub\n      add\n      dup2\n        /* \"Contracts/Copy_MoonV1Coin.sol\":1367:1390  marketorContractAddress */\n      dup7\n        /* \"Contracts/Copy_MoonV1Coin.sol\":1353:1409  MoonV1Manager(marketorContractAddress).ismarketManager() */\n      dup1\n      extcodesize\n      iszero\n      dup1\n      iszero\n      tag_135\n      jumpi\n      0x00\n      dup1\n      revert\n    tag_135:\n      pop\n      gas\n      staticcall\n      iszero\n      dup1\n      iszero\n      tag_137\n      jumpi\n      returndatasize\n      0x00\n      dup1\n      returndatacopy\n      revert(0x00, returndatasize)\n    tag_137:\n      pop\n      pop\n      pop\n      pop\n      mload(0x40)\n      returndatasize\n      not(0x1f)\n      0x1f\n      dup3\n      add\n      and\n      dup3\n      add\n      dup1\n      0x40\n      mstore\n      pop\n      dup2\n      add\n      swap1\n      tag_138\n      swap2\n      swap1\n      tag_103\n      jump\t// in\n    tag_138:\n        /* \"Contracts/Copy_MoonV1Coin.sol\":1332:1419  require(... */\n      tag_139\n      jumpi\n      0x00\n      dup1\n      revert\n    tag_139:\n      sub(shl(0xa0, 0x01), 0x01)\n        /* \"Contracts/Copy_MoonV1Coin.sol\":2612:2642  coinList[_internalCoinAddress] */\n      swap1\n      swap2\n      and\n      0x00\n      swap1\n      dup2\n      mstore\n        /* \"Contracts/Copy_MoonV1Coin.sol\":2612:2620  coinList */\n      0x02\n        /* \"Contracts/Copy_MoonV1Coin.sol\":2612:2642  coinList[_internalCoinAddress] */\n      0x20\n      mstore\n      0x40\n      swap1\n      keccak256\n        /* \"Contracts/Copy_MoonV1Coin.sol\":2612:2648  coinList[_internalCoinAddress].scope */\n      0x01\n      add\n        /* \"Contracts/Copy_MoonV1Coin.sol\":2612:2657  coinList[_internalCoinAddress].scope = _scope */\n      dup1\n      sload\n      0xff\n      swap1\n      swap3\n      and\n      0x01000000000000\n      mul\n      0xffffffffffffffffffffffffffffffffffffffffffffffffff00ffffffffffff\n      swap1\n      swap3\n      and\n      swap2\n      swap1\n      swap2\n      or\n      swap1\n      sstore\n        /* \"Contracts/Copy_MoonV1Coin.sol\":2474:2664  function changeCoinScopebyMarketor(... */\n      jump\t// out\n        /* \"Contracts/Copy_MoonV1Coin.sol\":4045:4326  function delCoinbyMarketor(address _contractaddress)... */\n    tag_69:\n        /* \"Contracts/Copy_MoonV1Coin.sol\":1367:1390  marketorContractAddress */\n      0x04\n      dup1\n      sload\n        /* \"Contracts/Copy_MoonV1Coin.sol\":1353:1409  MoonV1Manager(marketorContractAddress).ismarketManager() */\n      0x40\n      dup1\n      mload\n      shl(0xe1, 0x0a43f929)\n      dup2\n      mstore\n      swap1\n      mload\n      sub(shl(0xa0, 0x01), 0x01)\n        /* \"Contracts/Copy_MoonV1Coin.sol\":1367:1390  marketorContractAddress */\n      swap1\n      swap3\n      and\n      swap3\n        /* \"Contracts/Copy_MoonV1Coin.sol\":1353:1407  MoonV1Manager(marketorContractAddress).ismarketManager */\n      0x1487f252\n      swap3\n        /* \"Contracts/Copy_MoonV1Coin.sol\":1353:1409  MoonV1Manager(marketorContractAddress).ismarketManager() */\n      dup3\n      dup3\n      add\n      swap3\n      0x20\n      swap3\n      swap1\n      dup3\n      swap1\n      sub\n      add\n      dup2\n        /* \"Contracts/Copy_MoonV1Coin.sol\":1367:1390  marketorContractAddress */\n      dup7\n        /* \"Contracts/Copy_MoonV1Coin.sol\":1353:1409  MoonV1Manager(marketorContractAddress).ismarketManager() */\n      dup1\n      extcodesize\n      iszero\n      dup1\n      iszero\n      tag_142\n      jumpi\n      0x00\n      dup1\n      revert\n    tag_142:\n      pop\n      gas\n      staticcall\n      iszero\n      dup1\n      iszero\n      tag_144\n      jumpi\n      returndatasize\n      0x00\n      dup1\n      returndatacopy\n      revert(0x00, returndatasize)\n    tag_144:\n      pop\n      pop\n      pop\n      pop\n      mload(0x40)\n      returndatasize\n      not(0x1f)\n      0x1f\n      dup3\n      add\n      and\n      dup3\n      add\n      dup1\n      0x40\n      mstore\n      pop\n      dup2\n      add\n      swap1\n      tag_145\n      swap2\n      swap1\n      tag_103\n      jump\t// in\n    tag_145:\n        /* \"Contracts/Copy_MoonV1Coin.sol\":1332:1419  require(... */\n      tag_146\n      jumpi\n      0x00\n      dup1\n      revert\n    tag_146:\n      sub(shl(0xa0, 0x01), 0x01)\n        /* \"Contracts/Copy_MoonV1Coin.sol\":4176:4208  marketCoinList[_contractaddress] */\n      dup2\n      dup2\n      and\n        /* \"Contracts/Copy_MoonV1Coin.sol\":4220:4221  0 */\n      0x00\n        /* \"Contracts/Copy_MoonV1Coin.sol\":4176:4208  marketCoinList[_contractaddress] */\n      swap1\n      dup2\n      mstore\n      0x20\n      dup2\n      swap1\n      mstore\n      0x40\n      swap1\n      keccak256\n      sload\n      and\n        /* \"Contracts/Copy_MoonV1Coin.sol\":4176:4222  marketCoinList[_contractaddress] == address(0) */\n      iszero\n        /* \"Contracts/Copy_MoonV1Coin.sol\":4155:4270  require(... */\n      tag_148\n      jumpi\n      mload(0x40)\n      shl(0xe5, 0x461bcd)\n      dup2\n      mstore\n        /* \"#utility.yul\":5324:5326   */\n      0x20\n        /* \"Contracts/Copy_MoonV1Coin.sol\":4155:4270  require(... */\n      0x04\n      dup3\n      add\n        /* \"#utility.yul\":5306:5327   */\n      mstore\n        /* \"#utility.yul\":5363:5365   */\n      0x16\n        /* \"#utility.yul\":5343:5361   */\n      0x24\n      dup3\n      add\n        /* \"#utility.yul\":5336:5366   */\n      mstore\n        /* \"#utility.yul\":5402:5426   */\n      0x74686520636f696e206973206e6f742065786973747300000000000000000000\n        /* \"#utility.yul\":5382:5400   */\n      0x44\n      dup3\n      add\n        /* \"#utility.yul\":5375:5427   */\n      mstore\n        /* \"#utility.yul\":5444:5462   */\n      0x64\n      add\n        /* \"Contracts/Copy_MoonV1Coin.sol\":4155:4270  require(... */\n      tag_123\n        /* \"#utility.yul\":5122:5468   */\n      jump\n        /* \"Contracts/Copy_MoonV1Coin.sol\":4155:4270  require(... */\n    tag_148:\n      sub(shl(0xa0, 0x01), 0x01)\n        /* \"Contracts/Copy_MoonV1Coin.sol\":4287:4319  marketCoinList[_contractaddress] */\n      and\n        /* \"Contracts/Copy_MoonV1Coin.sol\":4287:4301  marketCoinList */\n      0x00\n        /* \"Contracts/Copy_MoonV1Coin.sol\":4287:4319  marketCoinList[_contractaddress] */\n      swap1\n      dup2\n      mstore\n      0x20\n      dup2\n      swap1\n      mstore\n      0x40\n      swap1\n      keccak256\n        /* \"Contracts/Copy_MoonV1Coin.sol\":4280:4319  delete marketCoinList[_contractaddress] */\n      dup1\n      sload\n      not(0xffffffffffffffffffffffffffffffffffffffff)\n      and\n      swap1\n      sstore\n        /* \"Contracts/Copy_MoonV1Coin.sol\":4045:4326  function delCoinbyMarketor(address _contractaddress)... */\n      jump\t// out\n        /* \"Contracts/Copy_MoonV1Coin.sol\":1684:2468  function addCoinbyMarketor(LCoin.Info memory _coinInfo)... */\n    tag_72:\n        /* \"Contracts/Copy_MoonV1Coin.sol\":1367:1390  marketorContractAddress */\n      0x04\n      dup1\n      sload\n        /* \"Contracts/Copy_MoonV1Coin.sol\":1353:1409  MoonV1Manager(marketorContractAddress).ismarketManager() */\n      0x40\n      dup1\n      mload\n      shl(0xe1, 0x0a43f929)\n      dup2\n      mstore\n      swap1\n      mload\n      sub(shl(0xa0, 0x01), 0x01)\n        /* \"Contracts/Copy_MoonV1Coin.sol\":1367:1390  marketorContractAddress */\n      swap1\n      swap3\n      and\n      swap3\n        /* \"Contracts/Copy_MoonV1Coin.sol\":1353:1407  MoonV1Manager(marketorContractAddress).ismarketManager */\n      0x1487f252\n      swap3\n        /* \"Contracts/Copy_MoonV1Coin.sol\":1353:1409  MoonV1Manager(marketorContractAddress).ismarketManager() */\n      dup3\n      dup3\n      add\n      swap3\n      0x20\n      swap3\n      swap1\n      dup3\n      swap1\n      sub\n      add\n      dup2\n        /* \"Contracts/Copy_MoonV1Coin.sol\":1367:1390  marketorContractAddress */\n      dup7\n        /* \"Contracts/Copy_MoonV1Coin.sol\":1353:1409  MoonV1Manager(marketorContractAddress).ismarketManager() */\n      dup1\n      extcodesize\n      iszero\n      dup1\n      iszero\n      tag_152\n      jumpi\n      0x00\n      dup1\n      revert\n    tag_152:\n      pop\n      gas\n      staticcall\n      iszero\n      dup1\n      iszero\n      tag_154\n      jumpi\n      returndatasize\n      0x00\n      dup1\n      returndatacopy\n      revert(0x00, returndatasize)\n    tag_154:\n      pop\n      pop\n      pop\n      pop\n      mload(0x40)\n      returndatasize\n      not(0x1f)\n      0x1f\n      dup3\n      add\n      and\n      dup3\n      add\n      dup1\n      0x40\n      mstore\n      pop\n      dup2\n      add\n      swap1\n      tag_155\n      swap2\n      swap1\n      tag_103\n      jump\t// in\n    tag_155:\n        /* \"Contracts/Copy_MoonV1Coin.sol\":1332:1419  require(... */\n      tag_156\n      jumpi\n      0x00\n      dup1\n      revert\n    tag_156:\n        /* \"Contracts/Copy_MoonV1Coin.sol\":1810:1835  _coinInfo.contractAddress */\n      0xc0\n      dup2\n      add\n      mload\n      sub(shl(0xa0, 0x01), 0x01)\n        /* \"Contracts/Copy_MoonV1Coin.sol\":1801:1836  coinList[_coinInfo.contractAddress] */\n      and\n      0x00\n      swap1\n      dup2\n      mstore\n        /* \"Contracts/Copy_MoonV1Coin.sol\":1801:1809  coinList */\n      0x02\n        /* \"Contracts/Copy_MoonV1Coin.sol\":1801:1836  coinList[_coinInfo.contractAddress] */\n      0x20\n      mstore\n      0x40\n      swap1\n      keccak256\n        /* \"Contracts/Copy_MoonV1Coin.sol\":1801:1843  coinList[_coinInfo.contractAddress].isUsed */\n      0x08\n      add\n      sload\n      shl(0xb0, 0x01)\n      swap1\n      div\n      0xff\n      and\n        /* \"Contracts/Copy_MoonV1Coin.sol\":1801:1851  coinList[_coinInfo.contractAddress].isUsed != true */\n      iszero\n      iszero\n        /* \"Contracts/Copy_MoonV1Coin.sol\":1847:1851  true */\n      0x01\n        /* \"Contracts/Copy_MoonV1Coin.sol\":1801:1851  coinList[_coinInfo.contractAddress].isUsed != true */\n      eq\n        /* \"Contracts/Copy_MoonV1Coin.sol\":1797:2462  if (coinList[_coinInfo.contractAddress].isUsed != true) {... */\n      tag_158\n      jumpi\n        /* \"Contracts/Copy_MoonV1Coin.sol\":1887:1897  msg.sender */\n      caller\n        /* \"Contracts/Copy_MoonV1Coin.sol\":1867:1876  _coinInfo */\n      dup2\n        /* \"Contracts/Copy_MoonV1Coin.sol\":1867:1884  _coinInfo.creator */\n      0x0180\n      add\n        /* \"Contracts/Copy_MoonV1Coin.sol\":1867:1897  _coinInfo.creator = msg.sender */\n      swap1\n      sub(shl(0xa0, 0x01), 0x01)\n      and\n      swap1\n      dup2\n      sub(shl(0xa0, 0x01), 0x01)\n      and\n      dup2\n      mstore\n      pop\n      pop\n        /* \"Contracts/Copy_MoonV1Coin.sol\":1936:1941  false */\n      0x00\n        /* \"Contracts/Copy_MoonV1Coin.sol\":1911:1920  _coinInfo */\n      dup2\n        /* \"Contracts/Copy_MoonV1Coin.sol\":1911:1933  _coinInfo.marketunlock */\n      0x0140\n      add\n        /* \"Contracts/Copy_MoonV1Coin.sol\":1911:1941  _coinInfo.marketunlock = false */\n      swap1\n      iszero\n      iszero\n      swap1\n      dup2\n      iszero\n      iszero\n      dup2\n      mstore\n      pop\n      pop\n        /* \"Contracts/Copy_MoonV1Coin.sol\":1974:1979  false */\n      0x00\n        /* \"Contracts/Copy_MoonV1Coin.sol\":1955:1964  _coinInfo */\n      dup2\n        /* \"Contracts/Copy_MoonV1Coin.sol\":1955:1971  _coinInfo.unlock */\n      0x0160\n      add\n        /* \"Contracts/Copy_MoonV1Coin.sol\":1955:1979  _coinInfo.unlock = false */\n      swap1\n      iszero\n      iszero\n      swap1\n      dup2\n      iszero\n      iszero\n      dup2\n      mstore\n      pop\n      pop\n        /* \"Contracts/Copy_MoonV1Coin.sol\":2012:2016  true */\n      0x01\n        /* \"Contracts/Copy_MoonV1Coin.sol\":1993:2002  _coinInfo */\n      dup2\n        /* \"Contracts/Copy_MoonV1Coin.sol\":1993:2009  _coinInfo.isUsed */\n      0x01a0\n      add\n        /* \"Contracts/Copy_MoonV1Coin.sol\":1993:2016  _coinInfo.isUsed = true */\n      swap1\n      iszero\n      iszero\n      swap1\n      dup2\n      iszero\n      iszero\n      dup2\n      mstore\n      pop\n      pop\n        /* \"Contracts/Copy_MoonV1Coin.sol\":2068:2077  _coinInfo */\n      dup1\n        /* \"Contracts/Copy_MoonV1Coin.sol\":2030:2038  coinList */\n      0x02\n        /* \"Contracts/Copy_MoonV1Coin.sol\":2030:2065  coinList[_coinInfo.contractAddress] */\n      0x00\n        /* \"Contracts/Copy_MoonV1Coin.sol\":2039:2048  _coinInfo */\n      dup4\n        /* \"Contracts/Copy_MoonV1Coin.sol\":2039:2064  _coinInfo.contractAddress */\n      0xc0\n      add\n      mload\n      sub(shl(0xa0, 0x01), 0x01)\n        /* \"Contracts/Copy_MoonV1Coin.sol\":2030:2065  coinList[_coinInfo.contractAddress] */\n      and\n      sub(shl(0xa0, 0x01), 0x01)\n      and\n      dup2\n      mstore\n      0x20\n      add\n      swap1\n      dup2\n      mstore\n      0x20\n      add\n      0x00\n      keccak256\n        /* \"Contracts/Copy_MoonV1Coin.sol\":2030:2077  coinList[_coinInfo.contractAddress] = _coinInfo */\n      0x00\n      dup3\n      add\n      mload\n      dup2\n      0x00\n      add\n      sstore\n      0x20\n      dup3\n      add\n      mload\n      dup2\n      0x01\n      add\n      exp(0x0100, 0x00)\n      dup2\n      sload\n      dup2\n      0xffffffffffff\n      mul\n      not\n      and\n      swap1\n      dup4\n      0xd0\n      shr\n      mul\n      or\n      swap1\n      sstore\n      pop\n      0x40\n      dup3\n      add\n      mload\n      dup2\n      0x01\n      add\n      exp(0x0100, 0x06)\n      dup2\n      sload\n      dup2\n      0xff\n      mul\n      not\n      and\n      swap1\n      dup4\n      0xff\n      and\n      mul\n      or\n      swap1\n      sstore\n      pop\n      0x60\n      dup3\n      add\n      mload\n      dup2\n      0x01\n      add\n      exp(0x0100, 0x07)\n      dup2\n      sload\n      dup2\n      0xff\n      mul\n      not\n      and\n      swap1\n      dup4\n      0xff\n      and\n      mul\n      or\n      swap1\n      sstore\n      pop\n      0x80\n      dup3\n      add\n      mload\n      dup2\n      0x02\n      add\n      sstore\n      0xa0\n      dup3\n      add\n      mload\n      dup2\n      0x03\n      add\n      sstore\n      0xc0\n      dup3\n      add\n      mload\n      dup2\n      0x04\n      add\n      exp(0x0100, 0x00)\n      dup2\n      sload\n      dup2\n      sub(shl(0xa0, 0x01), 0x01)\n      mul\n      not\n      and\n      swap1\n      dup4\n      sub(shl(0xa0, 0x01), 0x01)\n      and\n      mul\n      or\n      swap1\n      sstore\n      pop\n      0xe0\n      dup3\n      add\n      mload\n      dup2\n      0x05\n      add\n      sstore\n      0x0100\n      dup3\n      add\n      mload\n      dup2\n      0x06\n      add\n      sstore\n      0x0120\n      dup3\n      add\n      mload\n      dup2\n      0x07\n      add\n      sstore\n      0x0140\n      dup3\n      add\n      mload\n      dup2\n      0x08\n      add\n      exp(0x0100, 0x00)\n      dup2\n      sload\n      dup2\n      0xff\n      mul\n      not\n      and\n      swap1\n      dup4\n      iszero\n      iszero\n      mul\n      or\n      swap1\n      sstore\n      pop\n      0x0160\n      dup3\n      add\n      mload\n      dup2\n      0x08\n      add\n      exp(0x0100, 0x01)\n      dup2\n      sload\n      dup2\n      0xff\n      mul\n      not\n      and\n      swap1\n      dup4\n      iszero\n      iszero\n      mul\n      or\n      swap1\n      sstore\n      pop\n      0x0180\n      dup3\n      add\n      mload\n      dup2\n      0x08\n      add\n      exp(0x0100, 0x02)\n      dup2\n      sload\n      dup2\n      sub(shl(0xa0, 0x01), 0x01)\n      mul\n      not\n      and\n      swap1\n      dup4\n      sub(shl(0xa0, 0x01), 0x01)\n      and\n      mul\n      or\n      swap1\n      sstore\n      pop\n      0x01a0\n      dup3\n      add\n      mload\n      dup2\n      0x08\n      add\n      exp(0x0100, 0x16)\n      dup2\n      sload\n      dup2\n      0xff\n      mul\n      not\n      and\n      swap1\n      dup4\n      iszero\n      iszero\n      mul\n      or\n      swap1\n      sstore\n      pop\n      swap1\n      pop\n      pop\n        /* \"Contracts/Copy_MoonV1Coin.sol\":2135:2144  _coinInfo */\n      dup1\n        /* \"Contracts/Copy_MoonV1Coin.sol\":2135:2177  _coinInfo... */\n      0xc0\n      add\n      mload\n        /* \"Contracts/Copy_MoonV1Coin.sol\":2091:2105  marketCoinList */\n      0x00\n        /* \"Contracts/Copy_MoonV1Coin.sol\":2091:2132  marketCoinList[_coinInfo.contractAddress] */\n      dup1\n        /* \"Contracts/Copy_MoonV1Coin.sol\":2106:2115  _coinInfo */\n      dup4\n        /* \"Contracts/Copy_MoonV1Coin.sol\":2106:2131  _coinInfo.contractAddress */\n      0xc0\n      add\n      mload\n      sub(shl(0xa0, 0x01), 0x01)\n        /* \"Contracts/Copy_MoonV1Coin.sol\":2091:2132  marketCoinList[_coinInfo.contractAddress] */\n      and\n      sub(shl(0xa0, 0x01), 0x01)\n      and\n      dup2\n      mstore\n      0x20\n      add\n      swap1\n      dup2\n      mstore\n      0x20\n      add\n      0x00\n      keccak256\n      0x00\n        /* \"Contracts/Copy_MoonV1Coin.sol\":2091:2177  marketCoinList[_coinInfo.contractAddress] = _coinInfo... */\n      0x0100\n      exp\n      dup2\n      sload\n      dup2\n      sub(shl(0xa0, 0x01), 0x01)\n      mul\n      not\n      and\n      swap1\n      dup4\n      sub(shl(0xa0, 0x01), 0x01)\n      and\n      mul\n      or\n      swap1\n      sstore\n      pop\n        /* \"Contracts/Copy_MoonV1Coin.sol\":1684:2468  function addCoinbyMarketor(LCoin.Info memory _coinInfo)... */\n      pop\n      jump\t// out\n        /* \"Contracts/Copy_MoonV1Coin.sol\":1797:2462  if (coinList[_coinInfo.contractAddress].isUsed != true) {... */\n    tag_158:\n        /* \"Contracts/Copy_MoonV1Coin.sol\":2248:2273  _coinInfo.contractAddress */\n      0xc0\n      dup2\n      add\n      mload\n      sub(shl(0xa0, 0x01), 0x01)\n        /* \"Contracts/Copy_MoonV1Coin.sol\":2233:2274  marketCoinList[_coinInfo.contractAddress] */\n      swap1\n      dup2\n      and\n        /* \"Contracts/Copy_MoonV1Coin.sol\":2286:2287  0 */\n      0x00\n        /* \"Contracts/Copy_MoonV1Coin.sol\":2233:2274  marketCoinList[_coinInfo.contractAddress] */\n      swap1\n      dup2\n      mstore\n      0x20\n      dup2\n      swap1\n      mstore\n      0x40\n      swap1\n      keccak256\n      sload\n      and\n        /* \"Contracts/Copy_MoonV1Coin.sol\":2233:2288  marketCoinList[_coinInfo.contractAddress] == address(0) */\n      iszero\n        /* \"Contracts/Copy_MoonV1Coin.sol\":2208:2351  require(... */\n      tag_160\n      jumpi\n      mload(0x40)\n      shl(0xe5, 0x461bcd)\n      dup2\n      mstore\n        /* \"#utility.yul\":6031:6033   */\n      0x20\n        /* \"Contracts/Copy_MoonV1Coin.sol\":2208:2351  require(... */\n      0x04\n      dup3\n      add\n        /* \"#utility.yul\":6013:6034   */\n      mstore\n        /* \"#utility.yul\":6070:6072   */\n      0x1d\n        /* \"#utility.yul\":6050:6068   */\n      0x24\n      dup3\n      add\n        /* \"#utility.yul\":6043:6073   */\n      mstore\n        /* \"#utility.yul\":6109:6140   */\n      0x74686520636f696e2065786973747320696e20746865206d61726b6574000000\n        /* \"#utility.yul\":6089:6107   */\n      0x44\n      dup3\n      add\n        /* \"#utility.yul\":6082:6141   */\n      mstore\n        /* \"#utility.yul\":6158:6176   */\n      0x64\n      add\n        /* \"Contracts/Copy_MoonV1Coin.sol\":2208:2351  require(... */\n      tag_123\n        /* \"#utility.yul\":5829:6182   */\n      jump\n        /* \"Contracts/Copy_MoonV1Coin.sol\":2208:2351  require(... */\n    tag_160:\n        /* \"Contracts/Copy_MoonV1Coin.sol\":2409:2451  _coinInfo... */\n      0xc0\n      dup2\n      add\n      mload\n      sub(shl(0xa0, 0x01), 0x01)\n        /* \"Contracts/Copy_MoonV1Coin.sol\":2365:2406  marketCoinList[_coinInfo.contractAddress] */\n      and\n        /* \"Contracts/Copy_MoonV1Coin.sol\":2365:2379  marketCoinList */\n      0x00\n        /* \"Contracts/Copy_MoonV1Coin.sol\":2365:2406  marketCoinList[_coinInfo.contractAddress] */\n      dup2\n      dup2\n      mstore\n      0x20\n      dup2\n      swap1\n      mstore\n      0x40\n      swap1\n      keccak256\n        /* \"Contracts/Copy_MoonV1Coin.sol\":2365:2451  marketCoinList[_coinInfo.contractAddress] = _coinInfo... */\n      dup1\n      sload\n      not(0xffffffffffffffffffffffffffffffffffffffff)\n      and\n      swap1\n      swap2\n      or\n      swap1\n      sstore\n        /* \"Contracts/Copy_MoonV1Coin.sol\":1797:2462  if (coinList[_coinInfo.contractAddress].isUsed != true) {... */\n    tag_159:\n        /* \"Contracts/Copy_MoonV1Coin.sol\":1684:2468  function addCoinbyMarketor(LCoin.Info memory _coinInfo)... */\n      pop\n      jump\t// out\n        /* \"Contracts/Copy_MoonV1Coin.sol\":6334:6831  function updateCoinbyGator(LCoin.Info memory _coinInfo) external onlyGator {... */\n    tag_75:\n        /* \"Contracts/Copy_MoonV1Coin.sol\":1233:1252  gateContractAddress */\n      0x03\n      0x00\n      swap1\n      sload\n      swap1\n      0x0100\n      exp\n      swap1\n      div\n      sub(shl(0xa0, 0x01), 0x01)\n      and\n      sub(shl(0xa0, 0x01), 0x01)\n        /* \"Contracts/Copy_MoonV1Coin.sol\":1221:1266  MoonV1Gater(gateContractAddress).isValidGater */\n      and\n      0xab3acb5c\n        /* \"Contracts/Copy_MoonV1Coin.sol\":1221:1268  MoonV1Gater(gateContractAddress).isValidGater() */\n      mload(0x40)\n      dup2\n      0xffffffff\n      and\n      0xe0\n      shl\n      dup2\n      mstore\n      0x04\n      add\n      0x20\n      mload(0x40)\n      dup1\n      dup4\n      sub\n      dup2\n      dup7\n      dup1\n      extcodesize\n      iszero\n      dup1\n      iszero\n      tag_164\n      jumpi\n      0x00\n      dup1\n      revert\n    tag_164:\n      pop\n      gas\n      staticcall\n      iszero\n      dup1\n      iszero\n      tag_166\n      jumpi\n      returndatasize\n      0x00\n      dup1\n      returndatacopy\n      revert(0x00, returndatasize)\n    tag_166:\n      pop\n      pop\n      pop\n      pop\n      mload(0x40)\n      returndatasize\n      not(0x1f)\n      0x1f\n      dup3\n      add\n      and\n      dup3\n      add\n      dup1\n      0x40\n      mstore\n      pop\n      dup2\n      add\n      swap1\n      tag_167\n      swap2\n      swap1\n      tag_103\n      jump\t// in\n    tag_167:\n        /* \"Contracts/Copy_MoonV1Coin.sol\":1213:1269  require(MoonV1Gater(gateContractAddress).isValidGater()) */\n      tag_168\n      jumpi\n      0x00\n      dup1\n      revert\n    tag_168:\n        /* \"Contracts/Copy_MoonV1Coin.sol\":6449:6474  _coinInfo.contractAddress */\n      0xc0\n      dup2\n      add\n      mload\n      sub(shl(0xa0, 0x01), 0x01)\n        /* \"Contracts/Copy_MoonV1Coin.sol\":6440:6475  coinList[_coinInfo.contractAddress] */\n      swap1\n      dup2\n      and\n      0x00\n      swap1\n      dup2\n      mstore\n        /* \"Contracts/Copy_MoonV1Coin.sol\":6440:6448  coinList */\n      0x02\n        /* \"Contracts/Copy_MoonV1Coin.sol\":6440:6475  coinList[_coinInfo.contractAddress] */\n      0x20\n      mstore\n      0x40\n      swap1\n      keccak256\n        /* \"Contracts/Copy_MoonV1Coin.sol\":6440:6483  coinList[_coinInfo.contractAddress].creator */\n      0x08\n      add\n      sload\n      0x010000\n      swap1\n      div\n      and\n        /* \"Contracts/Copy_MoonV1Coin.sol\":6487:6497  msg.sender */\n      caller\n        /* \"Contracts/Copy_MoonV1Coin.sol\":6440:6497  coinList[_coinInfo.contractAddress].creator == msg.sender */\n      eq\n        /* \"Contracts/Copy_MoonV1Coin.sol\":6419:6545  require(... */\n      tag_170\n      jumpi\n      mload(0x40)\n      shl(0xe5, 0x461bcd)\n      dup2\n      mstore\n        /* \"#utility.yul\":6747:6749   */\n      0x20\n        /* \"Contracts/Copy_MoonV1Coin.sol\":6419:6545  require(... */\n      0x04\n      dup3\n      add\n        /* \"#utility.yul\":6729:6750   */\n      mstore\n        /* \"#utility.yul\":6786:6788   */\n      0x16\n        /* \"#utility.yul\":6766:6784   */\n      0x24\n      dup3\n      add\n        /* \"#utility.yul\":6759:6789   */\n      mstore\n        /* \"#utility.yul\":6825:6849   */\n      0x796f752068617665206e6f742074686520726967687400000000000000000000\n        /* \"#utility.yul\":6805:6823   */\n      0x44\n      dup3\n      add\n        /* \"#utility.yul\":6798:6850   */\n      mstore\n        /* \"#utility.yul\":6867:6885   */\n      0x64\n      add\n        /* \"Contracts/Copy_MoonV1Coin.sol\":6419:6545  require(... */\n      tag_123\n        /* \"#utility.yul\":6545:6891   */\n      jump\n        /* \"Contracts/Copy_MoonV1Coin.sol\":6419:6545  require(... */\n    tag_170:\n        /* \"Contracts/Copy_MoonV1Coin.sol\":6563:6572  _coinInfo */\n      dup1\n        /* \"Contracts/Copy_MoonV1Coin.sol\":6563:6578  _coinInfo.scope */\n      0x40\n      add\n      mload\n        /* \"Contracts/Copy_MoonV1Coin.sol\":6563:6583  _coinInfo.scope == 4 */\n      0xff\n      and\n        /* \"Contracts/Copy_MoonV1Coin.sol\":6582:6583  4 */\n      0x04\n        /* \"Contracts/Copy_MoonV1Coin.sol\":6563:6583  _coinInfo.scope == 4 */\n      eq\n        /* \"Contracts/Copy_MoonV1Coin.sol\":6555:6620  require(_coinInfo.scope == 4, \"the coin scope is not justified \") */\n      tag_172\n      jumpi\n      mload(0x40)\n      shl(0xe5, 0x461bcd)\n      dup2\n      mstore\n        /* \"#utility.yul\":7098:7100   */\n      0x20\n        /* \"Contracts/Copy_MoonV1Coin.sol\":6555:6620  require(_coinInfo.scope == 4, \"the coin scope is not justified \") */\n      0x04\n      dup3\n      add\n        /* \"#utility.yul\":7080:7101   */\n      dup2\n      swap1\n      mstore\n        /* \"#utility.yul\":7117:7135   */\n      0x24\n      dup3\n      add\n        /* \"#utility.yul\":7110:7140   */\n      mstore\n        /* \"#utility.yul\":7176:7210   */\n      0x74686520636f696e2073636f7065206973206e6f74206a757374696669656420\n        /* \"#utility.yul\":7156:7174   */\n      0x44\n      dup3\n      add\n        /* \"#utility.yul\":7149:7211   */\n      mstore\n        /* \"#utility.yul\":7228:7246   */\n      0x64\n      add\n        /* \"Contracts/Copy_MoonV1Coin.sol\":6555:6620  require(_coinInfo.scope == 4, \"the coin scope is not justified \") */\n      tag_123\n        /* \"#utility.yul\":6896:7252   */\n      jump\n        /* \"Contracts/Copy_MoonV1Coin.sol\":6555:6620  require(_coinInfo.scope == 4, \"the coin scope is not justified \") */\n    tag_172:\n        /* \"Contracts/Copy_MoonV1Coin.sol\":6655:6660  false */\n      0x00\n        /* \"Contracts/Copy_MoonV1Coin.sol\":6630:6652  _coinInfo.marketunlock */\n      0x0140\n      dup3\n      add\n        /* \"Contracts/Copy_MoonV1Coin.sol\":6630:6660  _coinInfo.marketunlock = false */\n      dup2\n      dup2\n      mstore\n        /* \"Contracts/Copy_MoonV1Coin.sol\":6670:6686  _coinInfo.unlock */\n      0x0160\n      dup4\n      add\n        /* \"Contracts/Copy_MoonV1Coin.sol\":6670:6694  _coinInfo.unlock = false */\n      dup3\n      dup2\n      mstore\n        /* \"Contracts/Copy_MoonV1Coin.sol\":6630:6660  _coinInfo.marketunlock = false */\n      0x01\n        /* \"Contracts/Copy_MoonV1Coin.sol\":6704:6720  _coinInfo.isUsed */\n      0x01a0\n      dup6\n      add\n        /* \"Contracts/Copy_MoonV1Coin.sol\":6704:6727  _coinInfo.isUsed = true */\n      dup2\n      dup2\n      mstore\n        /* \"Contracts/Copy_MoonV1Coin.sol\":6757:6767  msg.sender */\n      caller\n        /* \"Contracts/Copy_MoonV1Coin.sol\":6737:6754  _coinInfo.creator */\n      0x0180\n      dup8\n      add\n        /* \"Contracts/Copy_MoonV1Coin.sol\":6737:6767  _coinInfo.creator = msg.sender */\n      swap1\n      dup2\n      mstore\n        /* \"Contracts/Copy_MoonV1Coin.sol\":6786:6811  _coinInfo.contractAddress */\n      0xc0\n      dup8\n      add\n      dup1\n      mload\n      sub(shl(0xa0, 0x01), 0x01)\n        /* \"Contracts/Copy_MoonV1Coin.sol\":6777:6812  coinList[_coinInfo.contractAddress] */\n      swap1\n      dup2\n      and\n      dup9\n      mstore\n        /* \"Contracts/Copy_MoonV1Coin.sol\":6777:6785  coinList */\n      0x02\n      0x20\n        /* \"Contracts/Copy_MoonV1Coin.sol\":6777:6812  coinList[_coinInfo.contractAddress] */\n      dup2\n      dup2\n      mstore\n      0x40\n      swap10\n      dup11\n      swap1\n      keccak256\n        /* \"Contracts/Copy_MoonV1Coin.sol\":6777:6824  coinList[_coinInfo.contractAddress] = _coinInfo */\n      dup12\n      mload\n      dup2\n      sstore\n      swap1\n      dup12\n      add\n      mload\n      swap7\n      dup2\n      add\n      dup1\n      sload\n      swap11\n      dup13\n      add\n      mload\n      0x60\n      dup14\n      add\n      mload\n      0xd0\n      swap10\n      swap1\n      swap10\n      shr\n      not(0xffffffffffffff)\n      swap1\n      swap13\n      and\n      swap12\n      swap1\n      swap12\n      or\n      0x01000000000000\n      0xff\n      swap13\n      dup14\n      and\n      mul\n      or\n      not(0xff00000000000000)\n      and\n      0x0100000000000000\n      swap12\n      swap1\n      swap9\n      and\n      swap11\n      swap1\n      swap11\n      mul\n      swap7\n      swap1\n      swap7\n      or\n      swap1\n      swap9\n      sstore\n      0x80\n      dup10\n      add\n      mload\n      swap8\n      dup6\n      add\n      swap8\n      swap1\n      swap8\n      sstore\n      0xa0\n      dup9\n      add\n      mload\n      0x03\n      dup6\n      add\n      sstore\n      mload\n      0x04\n      dup5\n      add\n      dup1\n      sload\n      not(0xffffffffffffffffffffffffffffffffffffffff)\n      and\n      swap2\n      dup9\n      and\n      swap2\n      swap1\n      swap2\n      or\n      swap1\n      sstore\n      0xe0\n      dup8\n      add\n      mload\n      0x05\n      dup5\n      add\n      sstore\n      0x0100\n      dup1\n      dup9\n      add\n      mload\n      0x06\n      dup6\n      add\n      sstore\n      0x0120\n      swap1\n      swap8\n      add\n      mload\n      0x07\n      dup5\n      add\n      sstore\n      swap4\n      mload\n      0x08\n      swap1\n      swap3\n      add\n      dup1\n      sload\n      swap4\n      mload\n      swap5\n      mload\n      swap2\n      mload\n      not(0xffff)\n      swap1\n      swap5\n      and\n      swap3\n      iszero\n      iszero\n      not(0xff00)\n      and\n      swap3\n      swap1\n      swap3\n      or\n      swap4\n      iszero\n      iszero\n      swap1\n      swap6\n      mul\n      swap3\n      swap1\n      swap3\n      or\n      0xffffffffffffffffff000000000000000000000000000000000000000000ffff\n      and\n      0x010000\n      swap5\n      swap1\n      swap4\n      and\n      swap4\n      swap1\n      swap4\n      mul\n      0xffffffffffffffffff00ffffffffffffffffffffffffffffffffffffffffffff\n      and\n      swap2\n      swap1\n      swap2\n      or\n      shl(0xb0, 0x01)\n      swap3\n      iszero\n      iszero\n      swap3\n      swap1\n      swap3\n      mul\n      swap2\n      swap1\n      swap2\n      or\n      swap1\n      sstore\n        /* \"Contracts/Copy_MoonV1Coin.sol\":6334:6831  function updateCoinbyGator(LCoin.Info memory _coinInfo) external onlyGator {... */\n      jump\t// out\n        /* \"Contracts/Copy_MoonV1Coin.sol\":2670:2843  function lockCoinbyMarketor(address _internalCoinAddress)... */\n    tag_78:\n        /* \"Contracts/Copy_MoonV1Coin.sol\":1367:1390  marketorContractAddress */\n      0x04\n      dup1\n      sload\n        /* \"Contracts/Copy_MoonV1Coin.sol\":1353:1409  MoonV1Manager(marketorContractAddress).ismarketManager() */\n      0x40\n      dup1\n      mload\n      shl(0xe1, 0x0a43f929)\n      dup2\n      mstore\n      swap1\n      mload\n      sub(shl(0xa0, 0x01), 0x01)\n        /* \"Contracts/Copy_MoonV1Coin.sol\":1367:1390  marketorContractAddress */\n      swap1\n      swap3\n      and\n      swap3\n        /* \"Contracts/Copy_MoonV1Coin.sol\":1353:1407  MoonV1Manager(marketorContractAddress).ismarketManager */\n      0x1487f252\n      swap3\n        /* \"Contracts/Copy_MoonV1Coin.sol\":1353:1409  MoonV1Manager(marketorContractAddress).ismarketManager() */\n      dup3\n      dup3\n      add\n      swap3\n      0x20\n      swap3\n      swap1\n      dup3\n      swap1\n      sub\n      add\n      dup2\n        /* \"Contracts/Copy_MoonV1Coin.sol\":1367:1390  marketorContractAddress */\n      dup7\n        /* \"Contracts/Copy_MoonV1Coin.sol\":1353:1409  MoonV1Manager(marketorContractAddress).ismarketManager() */\n      dup1\n      extcodesize\n      iszero\n      dup1\n      iszero\n      tag_176\n      jumpi\n      0x00\n      dup1\n      revert\n    tag_176:\n      pop\n      gas\n      staticcall\n      iszero\n      dup1\n      iszero\n      tag_178\n      jumpi\n      returndatasize\n      0x00\n      dup1\n      returndatacopy\n      revert(0x00, returndatasize)\n    tag_178:\n      pop\n      pop\n      pop\n      pop\n      mload(0x40)\n      returndatasize\n      not(0x1f)\n      0x1f\n      dup3\n      add\n      and\n      dup3\n      add\n      dup1\n      0x40\n      mstore\n      pop\n      dup2\n      add\n      swap1\n      tag_179\n      swap2\n      swap1\n      tag_103\n      jump\t// in\n    tag_179:\n        /* \"Contracts/Copy_MoonV1Coin.sol\":1332:1419  require(... */\n      tag_180\n      jumpi\n      0x00\n      dup1\n      revert\n    tag_180:\n      sub(shl(0xa0, 0x01), 0x01)\n        /* \"Contracts/Copy_MoonV1Coin.sol\":2785:2815  coinList[_internalCoinAddress] */\n      and\n        /* \"Contracts/Copy_MoonV1Coin.sol\":2831:2836  false */\n      0x00\n        /* \"Contracts/Copy_MoonV1Coin.sol\":2785:2815  coinList[_internalCoinAddress] */\n      swap1\n      dup2\n      mstore\n        /* \"Contracts/Copy_MoonV1Coin.sol\":2785:2793  coinList */\n      0x02\n        /* \"Contracts/Copy_MoonV1Coin.sol\":2785:2815  coinList[_internalCoinAddress] */\n      0x20\n      mstore\n      0x40\n      swap1\n      keccak256\n        /* \"Contracts/Copy_MoonV1Coin.sol\":2785:2828  coinList[_internalCoinAddress].marketunlock */\n      0x08\n      add\n        /* \"Contracts/Copy_MoonV1Coin.sol\":2785:2836  coinList[_internalCoinAddress].marketunlock = false */\n      dup1\n      sload\n      not(0xff)\n      and\n      swap1\n      sstore\n        /* \"Contracts/Copy_MoonV1Coin.sol\":2670:2843  function lockCoinbyMarketor(address _internalCoinAddress)... */\n      jump\t// out\n        /* \"Contracts/Copy_MoonV1Coin.sol\":3459:4039  function impoveGateCoinbyMarketor(... */\n    tag_86:\n        /* \"Contracts/Copy_MoonV1Coin.sol\":1367:1390  marketorContractAddress */\n      0x04\n      dup1\n      sload\n        /* \"Contracts/Copy_MoonV1Coin.sol\":1353:1409  MoonV1Manager(marketorContractAddress).ismarketManager() */\n      0x40\n      dup1\n      mload\n      shl(0xe1, 0x0a43f929)\n      dup2\n      mstore\n      swap1\n      mload\n      sub(shl(0xa0, 0x01), 0x01)\n        /* \"Contracts/Copy_MoonV1Coin.sol\":1367:1390  marketorContractAddress */\n      swap1\n      swap3\n      and\n      swap3\n        /* \"Contracts/Copy_MoonV1Coin.sol\":1353:1407  MoonV1Manager(marketorContractAddress).ismarketManager */\n      0x1487f252\n      swap3\n        /* \"Contracts/Copy_MoonV1Coin.sol\":1353:1409  MoonV1Manager(marketorContractAddress).ismarketManager() */\n      dup3\n      dup3\n      add\n      swap3\n      0x20\n      swap3\n      swap1\n      dup3\n      swap1\n      sub\n      add\n      dup2\n        /* \"Contracts/Copy_MoonV1Coin.sol\":1367:1390  marketorContractAddress */\n      dup7\n        /* \"Contracts/Copy_MoonV1Coin.sol\":1353:1409  MoonV1Manager(marketorContractAddress).ismarketManager() */\n      dup1\n      extcodesize\n      iszero\n      dup1\n      iszero\n      tag_183\n      jumpi\n      0x00\n      dup1\n      revert\n    tag_183:\n      pop\n      gas\n      staticcall\n      iszero\n      dup1\n      iszero\n      tag_185\n      jumpi\n      returndatasize\n      0x00\n      dup1\n      returndatacopy\n      revert(0x00, returndatasize)\n    tag_185:\n      pop\n      pop\n      pop\n      pop\n      mload(0x40)\n      returndatasize\n      not(0x1f)\n      0x1f\n      dup3\n      add\n      and\n      dup3\n      add\n      dup1\n      0x40\n      mstore\n      pop\n      dup2\n      add\n      swap1\n      tag_186\n      swap2\n      swap1\n      tag_103\n      jump\t// in\n    tag_186:\n        /* \"Contracts/Copy_MoonV1Coin.sol\":1332:1419  require(... */\n      tag_187\n      jumpi\n      0x00\n      dup1\n      revert\n    tag_187:\n      sub(shl(0xa0, 0x01), 0x01)\n        /* \"Contracts/Copy_MoonV1Coin.sol\":3621:3647  gateCoinList[_gateaddress] */\n      dup2\n      dup2\n      and\n        /* \"Contracts/Copy_MoonV1Coin.sol\":3677:3678  0 */\n      0x00\n        /* \"Contracts/Copy_MoonV1Coin.sol\":3621:3647  gateCoinList[_gateaddress] */\n      swap1\n      dup2\n      mstore\n        /* \"Contracts/Copy_MoonV1Coin.sol\":3621:3633  gateCoinList */\n      0x01\n        /* \"Contracts/Copy_MoonV1Coin.sol\":3621:3647  gateCoinList[_gateaddress] */\n      0x20\n      swap1\n      dup2\n      mstore\n      0x40\n      dup1\n      dup4\n      keccak256\n        /* \"Contracts/Copy_MoonV1Coin.sol\":3621:3665  gateCoinList[_gateaddress][_contractaddress] */\n      dup7\n      dup6\n      and\n      dup5\n      mstore\n      swap1\n      swap2\n      mstore\n      swap1\n      keccak256\n      sload\n      and\n        /* \"Contracts/Copy_MoonV1Coin.sol\":3600:3727  require(... */\n      tag_189\n      jumpi\n      mload(0x40)\n      shl(0xe5, 0x461bcd)\n      dup2\n      mstore\n        /* \"#utility.yul\":5324:5326   */\n      0x20\n        /* \"Contracts/Copy_MoonV1Coin.sol\":3600:3727  require(... */\n      0x04\n      dup3\n      add\n        /* \"#utility.yul\":5306:5327   */\n      mstore\n        /* \"#utility.yul\":5363:5365   */\n      0x16\n        /* \"#utility.yul\":5343:5361   */\n      0x24\n      dup3\n      add\n        /* \"#utility.yul\":5336:5366   */\n      mstore\n        /* \"#utility.yul\":5402:5426   */\n      0x74686520636f696e206973206e6f742065786973747300000000000000000000\n        /* \"#utility.yul\":5382:5400   */\n      0x44\n      dup3\n      add\n        /* \"#utility.yul\":5375:5427   */\n      mstore\n        /* \"#utility.yul\":5444:5462   */\n      0x64\n      add\n        /* \"Contracts/Copy_MoonV1Coin.sol\":3600:3727  require(... */\n      tag_123\n        /* \"#utility.yul\":5122:5468   */\n      jump\n        /* \"Contracts/Copy_MoonV1Coin.sol\":3600:3727  require(... */\n    tag_189:\n      sub(shl(0xa0, 0x01), 0x01)\n        /* \"Contracts/Copy_MoonV1Coin.sol\":3758:3790  marketCoinList[_contractaddress] */\n      dup3\n      dup2\n      and\n        /* \"Contracts/Copy_MoonV1Coin.sol\":3802:3803  0 */\n      0x00\n        /* \"Contracts/Copy_MoonV1Coin.sol\":3758:3790  marketCoinList[_contractaddress] */\n      swap1\n      dup2\n      mstore\n      0x20\n      dup2\n      swap1\n      mstore\n      0x40\n      swap1\n      keccak256\n      sload\n      and\n        /* \"Contracts/Copy_MoonV1Coin.sol\":3758:3804  marketCoinList[_contractaddress] == address(0) */\n      iszero\n        /* \"Contracts/Copy_MoonV1Coin.sol\":3737:3859  require(... */\n      tag_191\n      jumpi\n      mload(0x40)\n      shl(0xe5, 0x461bcd)\n      dup2\n      mstore\n        /* \"#utility.yul\":6389:6391   */\n      0x20\n        /* \"Contracts/Copy_MoonV1Coin.sol\":3737:3859  require(... */\n      0x04\n      dup3\n      add\n        /* \"#utility.yul\":6371:6392   */\n      mstore\n        /* \"#utility.yul\":6428:6430   */\n      0x1d\n        /* \"#utility.yul\":6408:6426   */\n      0x24\n      dup3\n      add\n        /* \"#utility.yul\":6401:6431   */\n      mstore\n        /* \"#utility.yul\":6467:6498   */\n      0x74686520636f696e206973202065786973747320696e206d61726b6574000000\n        /* \"#utility.yul\":6447:6465   */\n      0x44\n      dup3\n      add\n        /* \"#utility.yul\":6440:6499   */\n      mstore\n        /* \"#utility.yul\":6516:6534   */\n      0x64\n      add\n        /* \"Contracts/Copy_MoonV1Coin.sol\":3737:3859  require(... */\n      tag_123\n        /* \"#utility.yul\":6187:6540   */\n      jump\n        /* \"Contracts/Copy_MoonV1Coin.sol\":3737:3859  require(... */\n    tag_191:\n      sub(shl(0xa0, 0x01), 0x01)\n        /* \"Contracts/Copy_MoonV1Coin.sol\":3904:3930  gateCoinList[_gateaddress] */\n      swap1\n      dup2\n      and\n      0x00\n      swap1\n      dup2\n      mstore\n        /* \"Contracts/Copy_MoonV1Coin.sol\":3904:3916  gateCoinList */\n      0x01\n        /* \"Contracts/Copy_MoonV1Coin.sol\":3904:3930  gateCoinList[_gateaddress] */\n      0x20\n      swap1\n      dup2\n      mstore\n      0x40\n      dup1\n      dup4\n      keccak256\n        /* \"Contracts/Copy_MoonV1Coin.sol\":3904:3970  gateCoinList[_gateaddress][... */\n      swap5\n      dup5\n      and\n      dup4\n      mstore\n      dup5\n      dup3\n      mstore\n      dup1\n      dup4\n      keccak256\n      dup1\n      sload\n        /* \"Contracts/Copy_MoonV1Coin.sol\":3869:3901  marketCoinList[_contractaddress] */\n      dup5\n      dup5\n      mstore\n      swap2\n      swap1\n      swap4\n      keccak256\n        /* \"Contracts/Copy_MoonV1Coin.sol\":3869:3970  marketCoinList[_contractaddress] = gateCoinList[_gateaddress][... */\n      dup1\n      sload\n        /* \"Contracts/Copy_MoonV1Coin.sol\":3904:3970  gateCoinList[_gateaddress][... */\n      swap2\n      swap1\n      swap5\n      and\n      not(0xffffffffffffffffffffffffffffffffffffffff)\n        /* \"Contracts/Copy_MoonV1Coin.sol\":3869:3970  marketCoinList[_contractaddress] = gateCoinList[_gateaddress][... */\n      swap2\n      dup3\n      and\n      or\n      swap1\n      swap4\n      sstore\n        /* \"Contracts/Copy_MoonV1Coin.sol\":3988:4032  gateCoinList[_gateaddress][_contractaddress] */\n      swap3\n      swap1\n      swap3\n      mstore\n        /* \"Contracts/Copy_MoonV1Coin.sol\":3981:4032  delete gateCoinList[_gateaddress][_contractaddress] */\n      dup2\n      sload\n      and\n      swap1\n      sstore\n        /* \"Contracts/Copy_MoonV1Coin.sol\":3459:4039  function impoveGateCoinbyMarketor(... */\n      jump\t// out\n        /* \"Contracts/Copy_MoonV1Coin.sol\":6837:7124  function getCoinInfo(address _contractaddress)... */\n    tag_89:\n      0x40\n      dup1\n      mload\n      0x01c0\n      dup2\n      add\n      dup3\n      mstore\n      0x00\n      dup1\n      dup3\n      mstore\n      0x20\n      dup3\n      add\n      dup2\n      swap1\n      mstore\n      swap2\n      dup2\n      add\n      dup3\n      swap1\n      mstore\n      0x60\n      dup2\n      add\n      dup3\n      swap1\n      mstore\n      0x80\n      dup2\n      add\n      dup3\n      swap1\n      mstore\n      0xa0\n      dup2\n      add\n      dup3\n      swap1\n      mstore\n      0xc0\n      dup2\n      add\n      dup3\n      swap1\n      mstore\n      0xe0\n      dup2\n      add\n      dup3\n      swap1\n      mstore\n      0x0100\n      dup2\n      add\n      dup3\n      swap1\n      mstore\n      0x0120\n      dup2\n      add\n      dup3\n      swap1\n      mstore\n      0x0140\n      dup2\n      add\n      dup3\n      swap1\n      mstore\n      0x0160\n      dup2\n      add\n      dup3\n      swap1\n      mstore\n      0x0180\n      dup2\n      add\n      dup3\n      swap1\n      mstore\n      0x01a0\n      dup2\n      add\n      swap2\n      swap1\n      swap2\n      mstore\n      sub(shl(0xa0, 0x01), 0x01)\n        /* \"Contracts/Copy_MoonV1Coin.sol\":6985:7011  coinList[_contractaddress] */\n      dup3\n      and\n      0x00\n      swap1\n      dup2\n      mstore\n        /* \"Contracts/Copy_MoonV1Coin.sol\":6985:6993  coinList */\n      0x02\n        /* \"Contracts/Copy_MoonV1Coin.sol\":6985:7011  coinList[_contractaddress] */\n      0x20\n      mstore\n      0x40\n      swap1\n      keccak256\n        /* \"Contracts/Copy_MoonV1Coin.sol\":6985:7018  coinList[_contractaddress].isUsed */\n      0x08\n      add\n      sload\n      shl(0xb0, 0x01)\n      swap1\n      div\n      0xff\n      and\n        /* \"Contracts/Copy_MoonV1Coin.sol\":6985:7026  coinList[_contractaddress].isUsed == true */\n      iszero\n      iszero\n        /* \"Contracts/Copy_MoonV1Coin.sol\":7022:7026  true */\n      0x01\n        /* \"Contracts/Copy_MoonV1Coin.sol\":6985:7026  coinList[_contractaddress].isUsed == true */\n      eq\n        /* \"Contracts/Copy_MoonV1Coin.sol\":6964:7074  require(... */\n      tag_197\n      jumpi\n      mload(0x40)\n      shl(0xe5, 0x461bcd)\n      dup2\n      mstore\n        /* \"#utility.yul\":5324:5326   */\n      0x20\n        /* \"Contracts/Copy_MoonV1Coin.sol\":6964:7074  require(... */\n      0x04\n      dup3\n      add\n        /* \"#utility.yul\":5306:5327   */\n      mstore\n        /* \"#utility.yul\":5363:5365   */\n      0x16\n        /* \"#utility.yul\":5343:5361   */\n      0x24\n      dup3\n      add\n        /* \"#utility.yul\":5336:5366   */\n      mstore\n        /* \"#utility.yul\":5402:5426   */\n      0x74686520636f696e206973206e6f742065786973747300000000000000000000\n        /* \"#utility.yul\":5382:5400   */\n      0x44\n      dup3\n      add\n        /* \"#utility.yul\":5375:5427   */\n      mstore\n        /* \"#utility.yul\":5444:5462   */\n      0x64\n      add\n        /* \"Contracts/Copy_MoonV1Coin.sol\":6964:7074  require(... */\n      tag_123\n        /* \"#utility.yul\":5122:5468   */\n      jump\n        /* \"Contracts/Copy_MoonV1Coin.sol\":6964:7074  require(... */\n    tag_197:\n      pop\n      sub(shl(0xa0, 0x01), 0x01)\n        /* \"Contracts/Copy_MoonV1Coin.sol\":7091:7117  coinList[_contractaddress] */\n      swap1\n      dup2\n      and\n      0x00\n      swap1\n      dup2\n      mstore\n        /* \"Contracts/Copy_MoonV1Coin.sol\":7091:7099  coinList */\n      0x02\n        /* \"Contracts/Copy_MoonV1Coin.sol\":7091:7117  coinList[_contractaddress] */\n      0x20\n      dup2\n      dup2\n      mstore\n      0x40\n      swap3\n      dup4\n      swap1\n      keccak256\n        /* \"Contracts/Copy_MoonV1Coin.sol\":7084:7117  return coinList[_contractaddress] */\n      dup4\n      mload\n      0x01c0\n      dup2\n      add\n      dup6\n      mstore\n      dup2\n      sload\n      dup2\n      mstore\n      0x01\n      dup3\n      add\n      sload\n      0xffffffffffff0000000000000000000000000000000000000000000000000000\n      0xd0\n      dup3\n      swap1\n      shl\n      and\n      swap4\n      dup3\n      add\n      swap4\n      swap1\n      swap4\n      mstore\n      0xff\n      0x01000000000000\n      dup5\n      div\n      dup2\n      and\n      swap6\n      dup3\n      add\n      swap6\n      swap1\n      swap6\n      mstore\n      0x0100000000000000\n      swap1\n      swap3\n      div\n      dup5\n      and\n      0x60\n      dup4\n      add\n      mstore\n      swap2\n      dup3\n      add\n      sload\n      0x80\n      dup3\n      add\n      mstore\n      0x03\n      dup3\n      add\n      sload\n      0xa0\n      dup3\n      add\n      mstore\n      0x04\n      dup3\n      add\n      sload\n      dup5\n      and\n      0xc0\n      dup3\n      add\n      mstore\n      0x05\n      dup3\n      add\n      sload\n      0xe0\n      dup3\n      add\n      mstore\n      0x06\n      dup3\n      add\n      sload\n      0x0100\n      dup1\n      dup4\n      add\n      swap2\n      swap1\n      swap2\n      mstore\n      0x07\n      dup4\n      add\n      sload\n      0x0120\n      dup4\n      add\n      mstore\n      0x08\n      swap1\n      swap3\n      add\n      sload\n      dup1\n      dup5\n      and\n      iszero\n      iszero\n      0x0140\n      dup4\n      add\n      mstore\n      swap2\n      dup3\n      div\n      dup4\n      and\n      iszero\n      iszero\n      0x0160\n      dup3\n      add\n      mstore\n      0x010000\n      dup3\n      div\n      swap1\n      swap4\n      and\n      0x0180\n      dup5\n      add\n      mstore\n      shl(0xb0, 0x01)\n      swap1\n      div\n      and\n      iszero\n      iszero\n      0x01a0\n      dup3\n      add\n      mstore\n      swap1\n        /* \"Contracts/Copy_MoonV1Coin.sol\":6837:7124  function getCoinInfo(address _contractaddress)... */\n      jump\t// out\n        /* \"Contracts/Copy_MoonV1Coin.sol\":4803:5761  function addCoinbyGator(LCoin.Info memory _coinInfo) external onlyGator {... */\n    tag_94:\n        /* \"Contracts/Copy_MoonV1Coin.sol\":1233:1252  gateContractAddress */\n      0x03\n      0x00\n      swap1\n      sload\n      swap1\n      0x0100\n      exp\n      swap1\n      div\n      sub(shl(0xa0, 0x01), 0x01)\n      and\n      sub(shl(0xa0, 0x01), 0x01)\n        /* \"Contracts/Copy_MoonV1Coin.sol\":1221:1266  MoonV1Gater(gateContractAddress).isValidGater */\n      and\n      0xab3acb5c\n        /* \"Contracts/Copy_MoonV1Coin.sol\":1221:1268  MoonV1Gater(gateContractAddress).isValidGater() */\n      mload(0x40)\n      dup2\n      0xffffffff\n      and\n      0xe0\n      shl\n      dup2\n      mstore\n      0x04\n      add\n      0x20\n      mload(0x40)\n      dup1\n      dup4\n      sub\n      dup2\n      dup7\n      dup1\n      extcodesize\n      iszero\n      dup1\n      iszero\n      tag_200\n      jumpi\n      0x00\n      dup1\n      revert\n    tag_200:\n      pop\n      gas\n      staticcall\n      iszero\n      dup1\n      iszero\n      tag_202\n      jumpi\n      returndatasize\n      0x00\n      dup1\n      returndatacopy\n      revert(0x00, returndatasize)\n    tag_202:\n      pop\n      pop\n      pop\n      pop\n      mload(0x40)\n      returndatasize\n      not(0x1f)\n      0x1f\n      dup3\n      add\n      and\n      dup3\n      add\n      dup1\n      0x40\n      mstore\n      pop\n      dup2\n      add\n      swap1\n      tag_203\n      swap2\n      swap1\n      tag_103\n      jump\t// in\n    tag_203:\n        /* \"Contracts/Copy_MoonV1Coin.sol\":1213:1269  require(MoonV1Gater(gateContractAddress).isValidGater()) */\n      tag_204\n      jumpi\n      0x00\n      dup1\n      revert\n    tag_204:\n        /* \"Contracts/Copy_MoonV1Coin.sol\":4898:4923  _coinInfo.contractAddress */\n      0xc0\n      dup2\n      add\n      mload\n      sub(shl(0xa0, 0x01), 0x01)\n        /* \"Contracts/Copy_MoonV1Coin.sol\":4889:4924  coinList[_coinInfo.contractAddress] */\n      and\n      0x00\n      swap1\n      dup2\n      mstore\n        /* \"Contracts/Copy_MoonV1Coin.sol\":4889:4897  coinList */\n      0x02\n        /* \"Contracts/Copy_MoonV1Coin.sol\":4889:4924  coinList[_coinInfo.contractAddress] */\n      0x20\n      mstore\n      0x40\n      swap1\n      keccak256\n        /* \"Contracts/Copy_MoonV1Coin.sol\":4889:4931  coinList[_coinInfo.contractAddress].isUsed */\n      0x08\n      add\n      sload\n      shl(0xb0, 0x01)\n      swap1\n      div\n      0xff\n      and\n        /* \"Contracts/Copy_MoonV1Coin.sol\":4889:4939  coinList[_coinInfo.contractAddress].isUsed != true */\n      iszero\n      iszero\n        /* \"Contracts/Copy_MoonV1Coin.sol\":4935:4939  true */\n      0x01\n        /* \"Contracts/Copy_MoonV1Coin.sol\":4889:4939  coinList[_coinInfo.contractAddress].isUsed != true */\n      eq\n        /* \"Contracts/Copy_MoonV1Coin.sol\":4885:5755  if (coinList[_coinInfo.contractAddress].isUsed != true) {... */\n      tag_206\n      jumpi\n        /* \"Contracts/Copy_MoonV1Coin.sol\":4975:4985  msg.sender */\n      caller\n        /* \"Contracts/Copy_MoonV1Coin.sol\":4955:4964  _coinInfo */\n      dup2\n        /* \"Contracts/Copy_MoonV1Coin.sol\":4955:4972  _coinInfo.creator */\n      0x0180\n      add\n        /* \"Contracts/Copy_MoonV1Coin.sol\":4955:4985  _coinInfo.creator = msg.sender */\n      swap1\n      sub(shl(0xa0, 0x01), 0x01)\n      and\n      swap1\n      dup2\n      sub(shl(0xa0, 0x01), 0x01)\n      and\n      dup2\n      mstore\n      pop\n      pop\n        /* \"Contracts/Copy_MoonV1Coin.sol\":5024:5029  false */\n      0x00\n        /* \"Contracts/Copy_MoonV1Coin.sol\":4999:5008  _coinInfo */\n      dup2\n        /* \"Contracts/Copy_MoonV1Coin.sol\":4999:5021  _coinInfo.marketunlock */\n      0x0140\n      add\n        /* \"Contracts/Copy_MoonV1Coin.sol\":4999:5029  _coinInfo.marketunlock = false */\n      swap1\n      iszero\n      iszero\n      swap1\n      dup2\n      iszero\n      iszero\n      dup2\n      mstore\n      pop\n      pop\n        /* \"Contracts/Copy_MoonV1Coin.sol\":5062:5067  false */\n      0x00\n        /* \"Contracts/Copy_MoonV1Coin.sol\":5043:5052  _coinInfo */\n      dup2\n        /* \"Contracts/Copy_MoonV1Coin.sol\":5043:5059  _coinInfo.unlock */\n      0x0160\n      add\n        /* \"Contracts/Copy_MoonV1Coin.sol\":5043:5067  _coinInfo.unlock = false */\n      swap1\n      iszero\n      iszero\n      swap1\n      dup2\n      iszero\n      iszero\n      dup2\n      mstore\n      pop\n      pop\n        /* \"Contracts/Copy_MoonV1Coin.sol\":5100:5104  true */\n      0x01\n        /* \"Contracts/Copy_MoonV1Coin.sol\":5081:5090  _coinInfo */\n      dup2\n        /* \"Contracts/Copy_MoonV1Coin.sol\":5081:5097  _coinInfo.isUsed */\n      0x01a0\n      add\n        /* \"Contracts/Copy_MoonV1Coin.sol\":5081:5104  _coinInfo.isUsed = true */\n      swap1\n      iszero\n      iszero\n      swap1\n      dup2\n      iszero\n      iszero\n      dup2\n      mstore\n      pop\n      pop\n        /* \"Contracts/Copy_MoonV1Coin.sol\":5156:5165  _coinInfo */\n      dup1\n        /* \"Contracts/Copy_MoonV1Coin.sol\":5118:5126  coinList */\n      0x02\n        /* \"Contracts/Copy_MoonV1Coin.sol\":5118:5153  coinList[_coinInfo.contractAddress] */\n      0x00\n        /* \"Contracts/Copy_MoonV1Coin.sol\":5127:5136  _coinInfo */\n      dup4\n        /* \"Contracts/Copy_MoonV1Coin.sol\":5127:5152  _coinInfo.contractAddress */\n      0xc0\n      add\n      mload\n      sub(shl(0xa0, 0x01), 0x01)\n        /* \"Contracts/Copy_MoonV1Coin.sol\":5118:5153  coinList[_coinInfo.contractAddress] */\n      and\n      sub(shl(0xa0, 0x01), 0x01)\n      and\n      dup2\n      mstore\n      0x20\n      add\n      swap1\n      dup2\n      mstore\n      0x20\n      add\n      0x00\n      keccak256\n        /* \"Contracts/Copy_MoonV1Coin.sol\":5118:5165  coinList[_coinInfo.contractAddress] = _coinInfo */\n      0x00\n      dup3\n      add\n      mload\n      dup2\n      0x00\n      add\n      sstore\n      0x20\n      dup3\n      add\n      mload\n      dup2\n      0x01\n      add\n      exp(0x0100, 0x00)\n      dup2\n      sload\n      dup2\n      0xffffffffffff\n      mul\n      not\n      and\n      swap1\n      dup4\n      0xd0\n      shr\n      mul\n      or\n      swap1\n      sstore\n      pop\n      0x40\n      dup3\n      add\n      mload\n      dup2\n      0x01\n      add\n      exp(0x0100, 0x06)\n      dup2\n      sload\n      dup2\n      0xff\n      mul\n      not\n      and\n      swap1\n      dup4\n      0xff\n      and\n      mul\n      or\n      swap1\n      sstore\n      pop\n      0x60\n      dup3\n      add\n      mload\n      dup2\n      0x01\n      add\n      exp(0x0100, 0x07)\n      dup2\n      sload\n      dup2\n      0xff\n      mul\n      not\n      and\n      swap1\n      dup4\n      0xff\n      and\n      mul\n      or\n      swap1\n      sstore\n      pop\n      0x80\n      dup3\n      add\n      mload\n      dup2\n      0x02\n      add\n      sstore\n      0xa0\n      dup3\n      add\n      mload\n      dup2\n      0x03\n      add\n      sstore\n      0xc0\n      dup3\n      add\n      mload\n      dup2\n      0x04\n      add\n      exp(0x0100, 0x00)\n      dup2\n      sload\n      dup2\n      sub(shl(0xa0, 0x01), 0x01)\n      mul\n      not\n      and\n      swap1\n      dup4\n      sub(shl(0xa0, 0x01), 0x01)\n      and\n      mul\n      or\n      swap1\n      sstore\n      pop\n      0xe0\n      dup3\n      add\n      mload\n      dup2\n      0x05\n      add\n      sstore\n      0x0100\n      dup3\n      add\n      mload\n      dup2\n      0x06\n      add\n      sstore\n      0x0120\n      dup3\n      add\n      mload\n      dup2\n      0x07\n      add\n      sstore\n      0x0140\n      dup3\n      add\n      mload\n      dup2\n      0x08\n      add\n      exp(0x0100, 0x00)\n      dup2\n      sload\n      dup2\n      0xff\n      mul\n      not\n      and\n      swap1\n      dup4\n      iszero\n      iszero\n      mul\n      or\n      swap1\n      sstore\n      pop\n      0x0160\n      dup3\n      add\n      mload\n      dup2\n      0x08\n      add\n      exp(0x0100, 0x01)\n      dup2\n      sload\n      dup2\n      0xff\n      mul\n      not\n      and\n      swap1\n      dup4\n      iszero\n      iszero\n      mul\n      or\n      swap1\n      sstore\n      pop\n      0x0180\n      dup3\n      add\n      mload\n      dup2\n      0x08\n      add\n      exp(0x0100, 0x02)\n      dup2\n      sload\n      dup2\n      sub(shl(0xa0, 0x01), 0x01)\n      mul\n      not\n      and\n      swap1\n      dup4\n      sub(shl(0xa0, 0x01), 0x01)\n      and\n      mul\n      or\n      swap1\n      sstore\n      pop\n      0x01a0\n      dup3\n      add\n      mload\n      dup2\n      0x08\n      add\n      exp(0x0100, 0x16)\n      dup2\n      sload\n      dup2\n      0xff\n      mul\n      not\n      and\n      swap1\n      dup4\n      iszero\n      iszero\n      mul\n      or\n      swap1\n      sstore\n      pop\n      swap1\n      pop\n      pop\n        /* \"Contracts/Copy_MoonV1Coin.sol\":5233:5242  _coinInfo */\n      dup1\n        /* \"Contracts/Copy_MoonV1Coin.sol\":5233:5275  _coinInfo... */\n      0xc0\n      add\n      mload\n        /* \"Contracts/Copy_MoonV1Coin.sol\":5179:5191  gateCoinList */\n      0x01\n        /* \"Contracts/Copy_MoonV1Coin.sol\":5179:5203  gateCoinList[msg.sender] */\n      0x00\n        /* \"Contracts/Copy_MoonV1Coin.sol\":5192:5202  msg.sender */\n      caller\n      sub(shl(0xa0, 0x01), 0x01)\n        /* \"Contracts/Copy_MoonV1Coin.sol\":5179:5203  gateCoinList[msg.sender] */\n      and\n      sub(shl(0xa0, 0x01), 0x01)\n      and\n      dup2\n      mstore\n      0x20\n      add\n      swap1\n      dup2\n      mstore\n      0x20\n      add\n      0x00\n      keccak256\n        /* \"Contracts/Copy_MoonV1Coin.sol\":5179:5230  gateCoinList[msg.sender][_coinInfo.contractAddress] */\n      0x00\n        /* \"Contracts/Copy_MoonV1Coin.sol\":5204:5213  _coinInfo */\n      dup4\n        /* \"Contracts/Copy_MoonV1Coin.sol\":5204:5229  _coinInfo.contractAddress */\n      0xc0\n      add\n      mload\n      sub(shl(0xa0, 0x01), 0x01)\n        /* \"Contracts/Copy_MoonV1Coin.sol\":5179:5230  gateCoinList[msg.sender][_coinInfo.contractAddress] */\n      and\n      sub(shl(0xa0, 0x01), 0x01)\n      and\n      dup2\n      mstore\n      0x20\n      add\n      swap1\n      dup2\n      mstore\n      0x20\n      add\n      0x00\n      keccak256\n      0x00\n        /* \"Contracts/Copy_MoonV1Coin.sol\":5179:5275  gateCoinList[msg.sender][_coinInfo.contractAddress] = _coinInfo... */\n      0x0100\n      exp\n      dup2\n      sload\n      dup2\n      sub(shl(0xa0, 0x01), 0x01)\n      mul\n      not\n      and\n      swap1\n      dup4\n      sub(shl(0xa0, 0x01), 0x01)\n      and\n      mul\n      or\n      swap1\n      sstore\n      pop\n        /* \"Contracts/Copy_MoonV1Coin.sol\":1684:2468  function addCoinbyMarketor(LCoin.Info memory _coinInfo)... */\n      pop\n      jump\t// out\n        /* \"Contracts/Copy_MoonV1Coin.sol\":4885:5755  if (coinList[_coinInfo.contractAddress].isUsed != true) {... */\n    tag_206:\n        /* \"Contracts/Copy_MoonV1Coin.sol\":5346:5371  _coinInfo.contractAddress */\n      0xc0\n      dup2\n      add\n      mload\n      sub(shl(0xa0, 0x01), 0x01)\n        /* \"Contracts/Copy_MoonV1Coin.sol\":5331:5372  marketCoinList[_coinInfo.contractAddress] */\n      swap1\n      dup2\n      and\n        /* \"Contracts/Copy_MoonV1Coin.sol\":5384:5385  0 */\n      0x00\n        /* \"Contracts/Copy_MoonV1Coin.sol\":5331:5372  marketCoinList[_coinInfo.contractAddress] */\n      swap1\n      dup2\n      mstore\n      0x20\n      dup2\n      swap1\n      mstore\n      0x40\n      swap1\n      keccak256\n      sload\n      and\n        /* \"Contracts/Copy_MoonV1Coin.sol\":5331:5386  marketCoinList[_coinInfo.contractAddress] == address(0) */\n      iszero\n        /* \"Contracts/Copy_MoonV1Coin.sol\":5306:5449  require(... */\n      tag_208\n      jumpi\n      mload(0x40)\n      shl(0xe5, 0x461bcd)\n      dup2\n      mstore\n        /* \"#utility.yul\":6031:6033   */\n      0x20\n        /* \"Contracts/Copy_MoonV1Coin.sol\":5306:5449  require(... */\n      0x04\n      dup3\n      add\n        /* \"#utility.yul\":6013:6034   */\n      mstore\n        /* \"#utility.yul\":6070:6072   */\n      0x1d\n        /* \"#utility.yul\":6050:6068   */\n      0x24\n      dup3\n      add\n        /* \"#utility.yul\":6043:6073   */\n      mstore\n        /* \"#utility.yul\":6109:6140   */\n      0x74686520636f696e2065786973747320696e20746865206d61726b6574000000\n        /* \"#utility.yul\":6089:6107   */\n      0x44\n      dup3\n      add\n        /* \"#utility.yul\":6082:6141   */\n      mstore\n        /* \"#utility.yul\":6158:6176   */\n      0x64\n      add\n        /* \"Contracts/Copy_MoonV1Coin.sol\":5306:5449  require(... */\n      tag_123\n        /* \"#utility.yul\":5829:6182   */\n      jump\n        /* \"Contracts/Copy_MoonV1Coin.sol\":5306:5449  require(... */\n    tag_208:\n        /* \"Contracts/Copy_MoonV1Coin.sol\":5501:5511  msg.sender */\n      caller\n        /* \"Contracts/Copy_MoonV1Coin.sol\":5571:5572  0 */\n      0x00\n        /* \"Contracts/Copy_MoonV1Coin.sol\":5488:5512  gateCoinList[msg.sender] */\n      swap1\n      dup2\n      mstore\n        /* \"Contracts/Copy_MoonV1Coin.sol\":5488:5500  gateCoinList */\n      0x01\n        /* \"Contracts/Copy_MoonV1Coin.sol\":5488:5512  gateCoinList[msg.sender] */\n      0x20\n      swap1\n      dup2\n      mstore\n      0x40\n      dup1\n      dup4\n      keccak256\n        /* \"Contracts/Copy_MoonV1Coin.sol\":5513:5538  _coinInfo.contractAddress */\n      0xc0\n      dup6\n      add\n      mload\n      sub(shl(0xa0, 0x01), 0x01)\n        /* \"Contracts/Copy_MoonV1Coin.sol\":5488:5539  gateCoinList[msg.sender][_coinInfo.contractAddress] */\n      swap1\n      dup2\n      and\n      dup6\n      mstore\n      swap3\n      mstore\n      swap1\n      swap2\n      keccak256\n      sload\n      and\n        /* \"Contracts/Copy_MoonV1Coin.sol\":5488:5573  gateCoinList[msg.sender][_coinInfo.contractAddress] ==... */\n      iszero\n        /* \"Contracts/Copy_MoonV1Coin.sol\":5463:5634  require(... */\n      tag_210\n      jumpi\n      mload(0x40)\n      shl(0xe5, 0x461bcd)\n      dup2\n      mstore\n        /* \"#utility.yul\":5675:5677   */\n      0x20\n        /* \"Contracts/Copy_MoonV1Coin.sol\":5463:5634  require(... */\n      0x04\n      dup3\n      add\n        /* \"#utility.yul\":5657:5678   */\n      mstore\n        /* \"#utility.yul\":5714:5716   */\n      0x1b\n        /* \"#utility.yul\":5694:5712   */\n      0x24\n      dup3\n      add\n        /* \"#utility.yul\":5687:5717   */\n      mstore\n        /* \"#utility.yul\":5753:5782   */\n      0x74686520636f696e2065786973747320696e2074686520676174650000000000\n        /* \"#utility.yul\":5733:5751   */\n      0x44\n      dup3\n      add\n        /* \"#utility.yul\":5726:5783   */\n      mstore\n        /* \"#utility.yul\":5800:5818   */\n      0x64\n      add\n        /* \"Contracts/Copy_MoonV1Coin.sol\":5463:5634  require(... */\n      tag_123\n        /* \"#utility.yul\":5473:5824   */\n      jump\n        /* \"Contracts/Copy_MoonV1Coin.sol\":5463:5634  require(... */\n    tag_210:\n        /* \"Contracts/Copy_MoonV1Coin.sol\":5702:5744  _coinInfo... */\n      0xc0\n      add\n      dup1\n      mload\n        /* \"Contracts/Copy_MoonV1Coin.sol\":5661:5671  msg.sender */\n      caller\n        /* \"Contracts/Copy_MoonV1Coin.sol\":5648:5672  gateCoinList[msg.sender] */\n      0x00\n      swap1\n      dup2\n      mstore\n        /* \"Contracts/Copy_MoonV1Coin.sol\":5648:5660  gateCoinList */\n      0x01\n        /* \"Contracts/Copy_MoonV1Coin.sol\":5648:5672  gateCoinList[msg.sender] */\n      0x20\n      swap1\n      dup2\n      mstore\n      0x40\n      dup1\n      dup4\n      keccak256\n        /* \"Contracts/Copy_MoonV1Coin.sol\":5673:5698  _coinInfo.contractAddress */\n      swap5\n      mload\n      sub(shl(0xa0, 0x01), 0x01)\n        /* \"Contracts/Copy_MoonV1Coin.sol\":5648:5699  gateCoinList[msg.sender][_coinInfo.contractAddress] */\n      swap1\n      dup2\n      and\n      dup5\n      mstore\n      swap5\n      swap1\n      swap2\n      mstore\n      swap1\n      keccak256\n        /* \"Contracts/Copy_MoonV1Coin.sol\":5648:5744  gateCoinList[msg.sender][_coinInfo.contractAddress] = _coinInfo... */\n      dup1\n      sload\n      not(0xffffffffffffffffffffffffffffffffffffffff)\n      and\n      swap3\n      swap1\n      swap2\n      and\n      swap2\n      swap1\n      swap2\n      or\n      swap1\n      sstore\n        /* \"Contracts/Copy_MoonV1Coin.sol\":4803:5761  function addCoinbyGator(LCoin.Info memory _coinInfo) external onlyGator {... */\n      jump\t// out\n        /* \"Contracts/Copy_MoonV1Coin.sol\":4332:4665  function delGateCoinbyMarketor(... */\n    tag_97:\n        /* \"Contracts/Copy_MoonV1Coin.sol\":1367:1390  marketorContractAddress */\n      0x04\n      dup1\n      sload\n        /* \"Contracts/Copy_MoonV1Coin.sol\":1353:1409  MoonV1Manager(marketorContractAddress).ismarketManager() */\n      0x40\n      dup1\n      mload\n      shl(0xe1, 0x0a43f929)\n      dup2\n      mstore\n      swap1\n      mload\n      sub(shl(0xa0, 0x01), 0x01)\n        /* \"Contracts/Copy_MoonV1Coin.sol\":1367:1390  marketorContractAddress */\n      swap1\n      swap3\n      and\n      swap3\n        /* \"Contracts/Copy_MoonV1Coin.sol\":1353:1407  MoonV1Manager(marketorContractAddress).ismarketManager */\n      0x1487f252\n      swap3\n        /* \"Contracts/Copy_MoonV1Coin.sol\":1353:1409  MoonV1Manager(marketorContractAddress).ismarketManager() */\n      dup3\n      dup3\n      add\n      swap3\n      0x20\n      swap3\n      swap1\n      dup3\n      swap1\n      sub\n      add\n      dup2\n        /* \"Contracts/Copy_MoonV1Coin.sol\":1367:1390  marketorContractAddress */\n      dup7\n        /* \"Contracts/Copy_MoonV1Coin.sol\":1353:1409  MoonV1Manager(marketorContractAddress).ismarketManager() */\n      dup1\n      extcodesize\n      iszero\n      dup1\n      iszero\n      tag_214\n      jumpi\n      0x00\n      dup1\n      revert\n    tag_214:\n      pop\n      gas\n      staticcall\n      iszero\n      dup1\n      iszero\n      tag_216\n      jumpi\n      returndatasize\n      0x00\n      dup1\n      returndatacopy\n      revert(0x00, returndatasize)\n    tag_216:\n      pop\n      pop\n      pop\n      pop\n      mload(0x40)\n      returndatasize\n      not(0x1f)\n      0x1f\n      dup3\n      add\n      and\n      dup3\n      add\n      dup1\n      0x40\n      mstore\n      pop\n      dup2\n      add\n      swap1\n      tag_217\n      swap2\n      swap1\n      tag_103\n      jump\t// in\n    tag_217:\n        /* \"Contracts/Copy_MoonV1Coin.sol\":1332:1419  require(... */\n      tag_218\n      jumpi\n      0x00\n      dup1\n      revert\n    tag_218:\n      sub(shl(0xa0, 0x01), 0x01)\n        /* \"Contracts/Copy_MoonV1Coin.sol\":4491:4517  gateCoinList[_gateaddress] */\n      dup2\n      dup2\n      and\n        /* \"Contracts/Copy_MoonV1Coin.sol\":4547:4548  0 */\n      0x00\n        /* \"Contracts/Copy_MoonV1Coin.sol\":4491:4517  gateCoinList[_gateaddress] */\n      swap1\n      dup2\n      mstore\n        /* \"Contracts/Copy_MoonV1Coin.sol\":4491:4503  gateCoinList */\n      0x01\n        /* \"Contracts/Copy_MoonV1Coin.sol\":4491:4517  gateCoinList[_gateaddress] */\n      0x20\n      swap1\n      dup2\n      mstore\n      0x40\n      dup1\n      dup4\n      keccak256\n        /* \"Contracts/Copy_MoonV1Coin.sol\":4491:4535  gateCoinList[_gateaddress][_contractaddress] */\n      dup7\n      dup6\n      and\n      dup5\n      mstore\n      swap1\n      swap2\n      mstore\n      swap1\n      keccak256\n      sload\n      and\n        /* \"Contracts/Copy_MoonV1Coin.sol\":4491:4549  gateCoinList[_gateaddress][_contractaddress] == address(0) */\n      iszero\n        /* \"Contracts/Copy_MoonV1Coin.sol\":4470:4597  require(... */\n      tag_220\n      jumpi\n      mload(0x40)\n      shl(0xe5, 0x461bcd)\n      dup2\n      mstore\n        /* \"#utility.yul\":5324:5326   */\n      0x20\n        /* \"Contracts/Copy_MoonV1Coin.sol\":4470:4597  require(... */\n      0x04\n      dup3\n      add\n        /* \"#utility.yul\":5306:5327   */\n      mstore\n        /* \"#utility.yul\":5363:5365   */\n      0x16\n        /* \"#utility.yul\":5343:5361   */\n      0x24\n      dup3\n      add\n        /* \"#utility.yul\":5336:5366   */\n      mstore\n        /* \"#utility.yul\":5402:5426   */\n      0x74686520636f696e206973206e6f742065786973747300000000000000000000\n        /* \"#utility.yul\":5382:5400   */\n      0x44\n      dup3\n      add\n        /* \"#utility.yul\":5375:5427   */\n      mstore\n        /* \"#utility.yul\":5444:5462   */\n      0x64\n      add\n        /* \"Contracts/Copy_MoonV1Coin.sol\":4470:4597  require(... */\n      tag_123\n        /* \"#utility.yul\":5122:5468   */\n      jump\n        /* \"Contracts/Copy_MoonV1Coin.sol\":4470:4597  require(... */\n    tag_220:\n      sub(shl(0xa0, 0x01), 0x01)\n        /* \"Contracts/Copy_MoonV1Coin.sol\":4614:4640  gateCoinList[_gateaddress] */\n      swap1\n      dup2\n      and\n      0x00\n      swap1\n      dup2\n      mstore\n        /* \"Contracts/Copy_MoonV1Coin.sol\":4614:4626  gateCoinList */\n      0x01\n        /* \"Contracts/Copy_MoonV1Coin.sol\":4614:4640  gateCoinList[_gateaddress] */\n      0x20\n      swap1\n      dup2\n      mstore\n      0x40\n      dup1\n      dup4\n      keccak256\n        /* \"Contracts/Copy_MoonV1Coin.sol\":4614:4658  gateCoinList[_gateaddress][_contractaddress] */\n      swap5\n      swap1\n      swap4\n      and\n      dup3\n      mstore\n      swap3\n      swap1\n      swap3\n      mstore\n      swap1\n      keccak256\n        /* \"Contracts/Copy_MoonV1Coin.sol\":4607:4658  delete gateCoinList[_gateaddress][_contractaddress] */\n      dup1\n      sload\n      not(0xffffffffffffffffffffffffffffffffffffffff)\n      and\n      swap1\n      sstore\n        /* \"Contracts/Copy_MoonV1Coin.sol\":4332:4665  function delGateCoinbyMarketor(... */\n      jump\t// out\n        /* \"#utility.yul\":14:210   */\n    tag_223:\n        /* \"#utility.yul\":82:102   */\n      dup1\n      calldataload\n      sub(shl(0xa0, 0x01), 0x01)\n        /* \"#utility.yul\":131:185   */\n      dup2\n      and\n        /* \"#utility.yul\":121:186   */\n      dup2\n      eq\n        /* \"#utility.yul\":111:204   */\n      tag_225\n      jumpi\n        /* \"#utility.yul\":200:201   */\n      0x00\n        /* \"#utility.yul\":197:198   */\n      dup1\n        /* \"#utility.yul\":190:202   */\n      revert\n        /* \"#utility.yul\":111:204   */\n    tag_225:\n        /* \"#utility.yul\":14:210   */\n      swap2\n      swap1\n      pop\n      jump\t// out\n        /* \"#utility.yul\":215:343   */\n    tag_226:\n        /* \"#utility.yul\":280:300   */\n      dup1\n      calldataload\n        /* \"#utility.yul\":309:337   */\n      tag_225\n        /* \"#utility.yul\":280:300   */\n      dup2\n        /* \"#utility.yul\":309:337   */\n      tag_229\n      jump\t// in\n        /* \"#utility.yul\":348:567   */\n    tag_230:\n        /* \"#utility.yul\":415:435   */\n      dup1\n      calldataload\n        /* \"#utility.yul\":475:541   */\n      0xffffffffffff0000000000000000000000000000000000000000000000000000\n        /* \"#utility.yul\":464:542   */\n      dup2\n      and\n        /* \"#utility.yul\":454:543   */\n      dup2\n      eq\n        /* \"#utility.yul\":444:561   */\n      tag_225\n      jumpi\n        /* \"#utility.yul\":557:558   */\n      0x00\n        /* \"#utility.yul\":554:555   */\n      dup1\n        /* \"#utility.yul\":547:559   */\n      revert\n        /* \"#utility.yul\":572:728   */\n    tag_233:\n        /* \"#utility.yul\":638:658   */\n      dup1\n      calldataload\n        /* \"#utility.yul\":698:702   */\n      0xff\n        /* \"#utility.yul\":687:703   */\n      dup2\n      and\n        /* \"#utility.yul\":677:704   */\n      dup2\n      eq\n        /* \"#utility.yul\":667:722   */\n      tag_225\n      jumpi\n        /* \"#utility.yul\":718:719   */\n      0x00\n        /* \"#utility.yul\":715:716   */\n      dup1\n        /* \"#utility.yul\":708:720   */\n      revert\n        /* \"#utility.yul\":733:919   */\n    tag_30:\n        /* \"#utility.yul\":792:798   */\n      0x00\n        /* \"#utility.yul\":845:847   */\n      0x20\n        /* \"#utility.yul\":833:842   */\n      dup3\n        /* \"#utility.yul\":824:831   */\n      dup5\n        /* \"#utility.yul\":820:843   */\n      sub\n        /* \"#utility.yul\":816:848   */\n      slt\n        /* \"#utility.yul\":813:865   */\n      iszero\n      tag_237\n      jumpi\n        /* \"#utility.yul\":861:862   */\n      0x00\n        /* \"#utility.yul\":858:859   */\n      dup1\n        /* \"#utility.yul\":851:863   */\n      revert\n        /* \"#utility.yul\":813:865   */\n    tag_237:\n        /* \"#utility.yul\":884:913   */\n      tag_238\n        /* \"#utility.yul\":903:912   */\n      dup3\n        /* \"#utility.yul\":884:913   */\n      tag_223\n      jump\t// in\n    tag_238:\n        /* \"#utility.yul\":874:913   */\n      swap4\n        /* \"#utility.yul\":733:919   */\n      swap3\n      pop\n      pop\n      pop\n      jump\t// out\n        /* \"#utility.yul\":924:1184   */\n    tag_81:\n        /* \"#utility.yul\":992:998   */\n      0x00\n        /* \"#utility.yul\":1000:1006   */\n      dup1\n        /* \"#utility.yul\":1053:1055   */\n      0x40\n        /* \"#utility.yul\":1041:1050   */\n      dup4\n        /* \"#utility.yul\":1032:1039   */\n      dup6\n        /* \"#utility.yul\":1028:1051   */\n      sub\n        /* \"#utility.yul\":1024:1056   */\n      slt\n        /* \"#utility.yul\":1021:1073   */\n      iszero\n      tag_240\n      jumpi\n        /* \"#utility.yul\":1069:1070   */\n      0x00\n        /* \"#utility.yul\":1066:1067   */\n      dup1\n        /* \"#utility.yul\":1059:1071   */\n      revert\n        /* \"#utility.yul\":1021:1073   */\n    tag_240:\n        /* \"#utility.yul\":1092:1121   */\n      tag_241\n        /* \"#utility.yul\":1111:1120   */\n      dup4\n        /* \"#utility.yul\":1092:1121   */\n      tag_223\n      jump\t// in\n    tag_241:\n        /* \"#utility.yul\":1082:1121   */\n      swap2\n      pop\n        /* \"#utility.yul\":1140:1178   */\n      tag_242\n        /* \"#utility.yul\":1174:1176   */\n      0x20\n        /* \"#utility.yul\":1163:1172   */\n      dup5\n        /* \"#utility.yul\":1159:1177   */\n      add\n        /* \"#utility.yul\":1140:1178   */\n      tag_223\n      jump\t// in\n    tag_242:\n        /* \"#utility.yul\":1130:1178   */\n      swap1\n      pop\n        /* \"#utility.yul\":924:1184   */\n      swap3\n      pop\n      swap3\n      swap1\n      pop\n      jump\t// out\n        /* \"#utility.yul\":1189:1445   */\n    tag_65:\n        /* \"#utility.yul\":1255:1261   */\n      0x00\n        /* \"#utility.yul\":1263:1269   */\n      dup1\n        /* \"#utility.yul\":1316:1318   */\n      0x40\n        /* \"#utility.yul\":1304:1313   */\n      dup4\n        /* \"#utility.yul\":1295:1302   */\n      dup6\n        /* \"#utility.yul\":1291:1314   */\n      sub\n        /* \"#utility.yul\":1287:1319   */\n      slt\n        /* \"#utility.yul\":1284:1336   */\n      iszero\n      tag_244\n      jumpi\n        /* \"#utility.yul\":1332:1333   */\n      0x00\n        /* \"#utility.yul\":1329:1330   */\n      dup1\n        /* \"#utility.yul\":1322:1334   */\n      revert\n        /* \"#utility.yul\":1284:1336   */\n    tag_244:\n        /* \"#utility.yul\":1355:1384   */\n      tag_245\n        /* \"#utility.yul\":1374:1383   */\n      dup4\n        /* \"#utility.yul\":1355:1384   */\n      tag_223\n      jump\t// in\n    tag_245:\n        /* \"#utility.yul\":1345:1384   */\n      swap2\n      pop\n        /* \"#utility.yul\":1403:1439   */\n      tag_242\n        /* \"#utility.yul\":1435:1437   */\n      0x20\n        /* \"#utility.yul\":1424:1433   */\n      dup5\n        /* \"#utility.yul\":1420:1438   */\n      add\n        /* \"#utility.yul\":1403:1439   */\n      tag_233\n      jump\t// in\n        /* \"#utility.yul\":1450:1695   */\n    tag_103:\n        /* \"#utility.yul\":1517:1523   */\n      0x00\n        /* \"#utility.yul\":1570:1572   */\n      0x20\n        /* \"#utility.yul\":1558:1567   */\n      dup3\n        /* \"#utility.yul\":1549:1556   */\n      dup5\n        /* \"#utility.yul\":1545:1568   */\n      sub\n        /* \"#utility.yul\":1541:1573   */\n      slt\n        /* \"#utility.yul\":1538:1590   */\n      iszero\n      tag_248\n      jumpi\n        /* \"#utility.yul\":1586:1587   */\n      0x00\n        /* \"#utility.yul\":1583:1584   */\n      dup1\n        /* \"#utility.yul\":1576:1588   */\n      revert\n        /* \"#utility.yul\":1538:1590   */\n    tag_248:\n        /* \"#utility.yul\":1618:1627   */\n      dup2\n        /* \"#utility.yul\":1612:1628   */\n      mload\n        /* \"#utility.yul\":1637:1665   */\n      tag_238\n        /* \"#utility.yul\":1659:1664   */\n      dup2\n        /* \"#utility.yul\":1637:1665   */\n      tag_229\n      jump\t// in\n        /* \"#utility.yul\":1700:2990   */\n    tag_34:\n        /* \"#utility.yul\":1781:1787   */\n      0x00\n        /* \"#utility.yul\":1834:1837   */\n      0x01c0\n        /* \"#utility.yul\":1822:1831   */\n      dup3\n        /* \"#utility.yul\":1813:1820   */\n      dup5\n        /* \"#utility.yul\":1809:1832   */\n      sub\n        /* \"#utility.yul\":1805:1838   */\n      slt\n        /* \"#utility.yul\":1802:1855   */\n      iszero\n      tag_251\n      jumpi\n        /* \"#utility.yul\":1851:1852   */\n      0x00\n        /* \"#utility.yul\":1848:1849   */\n      dup1\n        /* \"#utility.yul\":1841:1853   */\n      revert\n        /* \"#utility.yul\":1802:1855   */\n    tag_251:\n        /* \"#utility.yul\":1877:1894   */\n      tag_252\n      tag_253\n      jump\t// in\n    tag_252:\n        /* \"#utility.yul\":1930:1939   */\n      dup3\n        /* \"#utility.yul\":1917:1940   */\n      calldataload\n        /* \"#utility.yul\":1910:1915   */\n      dup2\n        /* \"#utility.yul\":1903:1941   */\n      mstore\n        /* \"#utility.yul\":1973:2010   */\n      tag_254\n        /* \"#utility.yul\":2006:2008   */\n      0x20\n        /* \"#utility.yul\":1995:2004   */\n      dup5\n        /* \"#utility.yul\":1991:2009   */\n      add\n        /* \"#utility.yul\":1973:2010   */\n      tag_230\n      jump\t// in\n    tag_254:\n        /* \"#utility.yul\":1968:1970   */\n      0x20\n        /* \"#utility.yul\":1961:1966   */\n      dup3\n        /* \"#utility.yul\":1957:1971   */\n      add\n        /* \"#utility.yul\":1950:2011   */\n      mstore\n        /* \"#utility.yul\":2043:2079   */\n      tag_255\n        /* \"#utility.yul\":2075:2077   */\n      0x40\n        /* \"#utility.yul\":2064:2073   */\n      dup5\n        /* \"#utility.yul\":2060:2078   */\n      add\n        /* \"#utility.yul\":2043:2079   */\n      tag_233\n      jump\t// in\n    tag_255:\n        /* \"#utility.yul\":2038:2040   */\n      0x40\n        /* \"#utility.yul\":2031:2036   */\n      dup3\n        /* \"#utility.yul\":2027:2041   */\n      add\n        /* \"#utility.yul\":2020:2080   */\n      mstore\n        /* \"#utility.yul\":2112:2148   */\n      tag_256\n        /* \"#utility.yul\":2144:2146   */\n      0x60\n        /* \"#utility.yul\":2133:2142   */\n      dup5\n        /* \"#utility.yul\":2129:2147   */\n      add\n        /* \"#utility.yul\":2112:2148   */\n      tag_233\n      jump\t// in\n    tag_256:\n        /* \"#utility.yul\":2107:2109   */\n      0x60\n        /* \"#utility.yul\":2100:2105   */\n      dup3\n        /* \"#utility.yul\":2096:2110   */\n      add\n        /* \"#utility.yul\":2089:2149   */\n      mstore\n        /* \"#utility.yul\":2210:2213   */\n      0x80\n        /* \"#utility.yul\":2199:2208   */\n      dup4\n        /* \"#utility.yul\":2195:2214   */\n      add\n        /* \"#utility.yul\":2182:2215   */\n      calldataload\n        /* \"#utility.yul\":2176:2179   */\n      0x80\n        /* \"#utility.yul\":2169:2174   */\n      dup3\n        /* \"#utility.yul\":2165:2180   */\n      add\n        /* \"#utility.yul\":2158:2216   */\n      mstore\n        /* \"#utility.yul\":2277:2280   */\n      0xa0\n        /* \"#utility.yul\":2266:2275   */\n      dup4\n        /* \"#utility.yul\":2262:2281   */\n      add\n        /* \"#utility.yul\":2249:2282   */\n      calldataload\n        /* \"#utility.yul\":2243:2246   */\n      0xa0\n        /* \"#utility.yul\":2236:2241   */\n      dup3\n        /* \"#utility.yul\":2232:2247   */\n      add\n        /* \"#utility.yul\":2225:2283   */\n      mstore\n        /* \"#utility.yul\":2316:2355   */\n      tag_257\n        /* \"#utility.yul\":2350:2353   */\n      0xc0\n        /* \"#utility.yul\":2339:2348   */\n      dup5\n        /* \"#utility.yul\":2335:2354   */\n      add\n        /* \"#utility.yul\":2316:2355   */\n      tag_223\n      jump\t// in\n    tag_257:\n        /* \"#utility.yul\":2310:2313   */\n      0xc0\n        /* \"#utility.yul\":2299:2314   */\n      dup3\n      add\n        /* \"#utility.yul\":2292:2356   */\n      mstore\n        /* \"#utility.yul\":2417:2420   */\n      0xe0\n        /* \"#utility.yul\":2402:2421   */\n      dup4\n      dup2\n      add\n        /* \"#utility.yul\":2389:2422   */\n      calldataload\n        /* \"#utility.yul\":2372:2387   */\n      swap1\n      dup3\n      add\n        /* \"#utility.yul\":2365:2423   */\n      mstore\n        /* \"#utility.yul\":2442:2445   */\n      0x0100\n        /* \"#utility.yul\":2490:2508   */\n      dup1\n      dup5\n      add\n        /* \"#utility.yul\":2477:2509   */\n      calldataload\n        /* \"#utility.yul\":2461:2475   */\n      swap1\n      dup3\n      add\n        /* \"#utility.yul\":2454:2510   */\n      mstore\n        /* \"#utility.yul\":2529:2532   */\n      0x0120\n        /* \"#utility.yul\":2577:2595   */\n      dup1\n      dup5\n      add\n        /* \"#utility.yul\":2564:2596   */\n      calldataload\n        /* \"#utility.yul\":2548:2562   */\n      swap1\n      dup3\n      add\n        /* \"#utility.yul\":2541:2597   */\n      mstore\n        /* \"#utility.yul\":2616:2619   */\n      0x0140\n        /* \"#utility.yul\":2651:2686   */\n      tag_258\n        /* \"#utility.yul\":2667:2685   */\n      dup2\n      dup6\n      add\n        /* \"#utility.yul\":2651:2686   */\n      tag_226\n      jump\t// in\n    tag_258:\n        /* \"#utility.yul\":2635:2649   */\n      swap1\n      dup3\n      add\n        /* \"#utility.yul\":2628:2687   */\n      mstore\n        /* \"#utility.yul\":2706:2709   */\n      0x0160\n        /* \"#utility.yul\":2741:2776   */\n      tag_259\n        /* \"#utility.yul\":2757:2775   */\n      dup5\n      dup3\n      add\n        /* \"#utility.yul\":2741:2776   */\n      tag_226\n      jump\t// in\n    tag_259:\n        /* \"#utility.yul\":2725:2739   */\n      swap1\n      dup3\n      add\n        /* \"#utility.yul\":2718:2777   */\n      mstore\n        /* \"#utility.yul\":2796:2799   */\n      0x0180\n        /* \"#utility.yul\":2831:2869   */\n      tag_260\n        /* \"#utility.yul\":2850:2868   */\n      dup5\n      dup3\n      add\n        /* \"#utility.yul\":2831:2869   */\n      tag_223\n      jump\t// in\n    tag_260:\n        /* \"#utility.yul\":2815:2829   */\n      swap1\n      dup3\n      add\n        /* \"#utility.yul\":2808:2870   */\n      mstore\n        /* \"#utility.yul\":2889:2892   */\n      0x01a0\n        /* \"#utility.yul\":2924:2959   */\n      tag_261\n        /* \"#utility.yul\":2940:2958   */\n      dup5\n      dup3\n      add\n        /* \"#utility.yul\":2924:2959   */\n      tag_226\n      jump\t// in\n    tag_261:\n        /* \"#utility.yul\":2908:2922   */\n      swap1\n      dup3\n      add\n        /* \"#utility.yul\":2901:2960   */\n      mstore\n        /* \"#utility.yul\":2912:2917   */\n      swap4\n        /* \"#utility.yul\":1700:2990   */\n      swap3\n      pop\n      pop\n      pop\n      jump\t// out\n        /* \"#utility.yul\":3881:5117   */\n    tag_44:\n        /* \"#utility.yul\":4368:4393   */\n      dup15\n      dup2\n      mstore\n        /* \"#utility.yul\":4441:4507   */\n      0xffffffffffff0000000000000000000000000000000000000000000000000000\n        /* \"#utility.yul\":4429:4508   */\n      dup15\n      and\n        /* \"#utility.yul\":4424:4426   */\n      0x20\n        /* \"#utility.yul\":4409:4427   */\n      dup3\n      add\n        /* \"#utility.yul\":4402:4509   */\n      mstore\n        /* \"#utility.yul\":4557:4561   */\n      0xff\n        /* \"#utility.yul\":4545:4562   */\n      dup14\n      dup2\n      and\n        /* \"#utility.yul\":4540:4542   */\n      0x40\n        /* \"#utility.yul\":4525:4543   */\n      dup4\n      add\n        /* \"#utility.yul\":4518:4563   */\n      mstore\n        /* \"#utility.yul\":3434:3450   */\n      dup13\n      and\n        /* \"#utility.yul\":4612:4614   */\n      0x60\n        /* \"#utility.yul\":4597:4615   */\n      dup3\n      add\n        /* \"#utility.yul\":3422:3451   */\n      mstore\n        /* \"#utility.yul\":4355:4358   */\n      0x01c0\n        /* \"#utility.yul\":4340:4359   */\n      dup2\n      add\n        /* \"#utility.yul\":4653:4659   */\n      dup12\n        /* \"#utility.yul\":4647:4650   */\n      0x80\n        /* \"#utility.yul\":4636:4645   */\n      dup4\n        /* \"#utility.yul\":4632:4651   */\n      add\n        /* \"#utility.yul\":4625:4660   */\n      mstore\n        /* \"#utility.yul\":4697:4703   */\n      dup11\n        /* \"#utility.yul\":4691:4694   */\n      0xa0\n        /* \"#utility.yul\":4680:4689   */\n      dup4\n        /* \"#utility.yul\":4676:4695   */\n      add\n        /* \"#utility.yul\":4669:4704   */\n      mstore\n        /* \"#utility.yul\":4713:4760   */\n      tag_274\n        /* \"#utility.yul\":4755:4758   */\n      0xc0\n        /* \"#utility.yul\":4744:4753   */\n      dup4\n        /* \"#utility.yul\":4740:4759   */\n      add\n        /* \"#utility.yul\":4732:4738   */\n      dup12\n      sub(shl(0xa0, 0x01), 0x01)\n        /* \"#utility.yul\":3061:3115   */\n      and\n        /* \"#utility.yul\":3049:3116   */\n      swap1\n      mstore\n        /* \"#utility.yul\":2995:3122   */\n      jump\n        /* \"#utility.yul\":4713:4760   */\n    tag_274:\n        /* \"#utility.yul\":4797:4803   */\n      dup9\n        /* \"#utility.yul\":4791:4794   */\n      0xe0\n        /* \"#utility.yul\":4780:4789   */\n      dup4\n        /* \"#utility.yul\":4776:4795   */\n      add\n        /* \"#utility.yul\":4769:4804   */\n      mstore\n        /* \"#utility.yul\":4841:4847   */\n      dup8\n        /* \"#utility.yul\":4835:4838   */\n      0x0100\n        /* \"#utility.yul\":4824:4833   */\n      dup4\n        /* \"#utility.yul\":4820:4839   */\n      add\n        /* \"#utility.yul\":4813:4848   */\n      mstore\n        /* \"#utility.yul\":4885:4891   */\n      dup7\n        /* \"#utility.yul\":4879:4882   */\n      0x0120\n        /* \"#utility.yul\":4868:4877   */\n      dup4\n        /* \"#utility.yul\":4864:4883   */\n      add\n        /* \"#utility.yul\":4857:4892   */\n      mstore\n        /* \"#utility.yul\":4901:4946   */\n      tag_275\n        /* \"#utility.yul\":4941:4944   */\n      0x0140\n        /* \"#utility.yul\":4930:4939   */\n      dup4\n        /* \"#utility.yul\":4926:4945   */\n      add\n        /* \"#utility.yul\":4917:4924   */\n      dup8\n        /* \"#utility.yul\":3197:3210   */\n      iszero\n        /* \"#utility.yul\":3190:3211   */\n      iszero\n        /* \"#utility.yul\":3178:3212   */\n      swap1\n      mstore\n        /* \"#utility.yul\":3127:3218   */\n      jump\n        /* \"#utility.yul\":4901:4946   */\n    tag_275:\n        /* \"#utility.yul\":3197:3210   */\n      swap4\n      iszero\n        /* \"#utility.yul\":3190:3211   */\n      iszero\n        /* \"#utility.yul\":4995:4998   */\n      0x0160\n        /* \"#utility.yul\":4980:4999   */\n      dup3\n      add\n        /* \"#utility.yul\":3178:3212   */\n      mstore\n      sub(shl(0xa0, 0x01), 0x01)\n        /* \"#utility.yul\":3061:3115   */\n      swap3\n      swap1\n      swap3\n      and\n        /* \"#utility.yul\":5052:5055   */\n      0x0180\n        /* \"#utility.yul\":5037:5056   */\n      dup4\n      add\n        /* \"#utility.yul\":3049:3116   */\n      mstore\n        /* \"#utility.yul\":3197:3210   */\n      iszero\n        /* \"#utility.yul\":3190:3211   */\n      iszero\n        /* \"#utility.yul\":5106:5109   */\n      0x01a0\n        /* \"#utility.yul\":5091:5110   */\n      swap1\n      swap2\n      add\n        /* \"#utility.yul\":3178:3212   */\n      mstore\n        /* \"#utility.yul\":3881:5117   */\n      swap12\n      swap11\n      pop\n      pop\n      pop\n      pop\n      pop\n      pop\n      pop\n      pop\n      pop\n      pop\n      pop\n      jump\t// out\n        /* \"#utility.yul\":7257:8869   */\n    tag_91:\n        /* \"#utility.yul\":7466:7479   */\n      dup2\n      mload\n        /* \"#utility.yul\":7448:7480   */\n      dup2\n      mstore\n        /* \"#utility.yul\":7527:7531   */\n      0x20\n        /* \"#utility.yul\":7515:7532   */\n      dup1\n      dup4\n      add\n        /* \"#utility.yul\":7509:7533   */\n      mload\n        /* \"#utility.yul\":7435:7438   */\n      0x01c0\n        /* \"#utility.yul\":7420:7439   */\n      dup4\n      add\n      swap2\n        /* \"#utility.yul\":7542:7595   */\n      tag_286\n      swap1\n        /* \"#utility.yul\":7574:7594   */\n      dup5\n      add\n        /* \"#utility.yul\":7509:7533   */\n      dup3\n        /* \"#utility.yul\":3299:3365   */\n      0xffffffffffff0000000000000000000000000000000000000000000000000000\n        /* \"#utility.yul\":3288:3366   */\n      and\n        /* \"#utility.yul\":3276:3367   */\n      swap1\n      mstore\n        /* \"#utility.yul\":3223:3373   */\n      jump\n        /* \"#utility.yul\":7542:7595   */\n    tag_286:\n      pop\n        /* \"#utility.yul\":7644:7648   */\n      0x40\n        /* \"#utility.yul\":7636:7642   */\n      dup4\n        /* \"#utility.yul\":7632:7649   */\n      add\n        /* \"#utility.yul\":7626:7650   */\n      mload\n        /* \"#utility.yul\":7659:7713   */\n      tag_287\n        /* \"#utility.yul\":7707:7711   */\n      0x40\n        /* \"#utility.yul\":7696:7705   */\n      dup5\n        /* \"#utility.yul\":7692:7712   */\n      add\n        /* \"#utility.yul\":7676:7690   */\n      dup3\n        /* \"#utility.yul\":3445:3449   */\n      0xff\n        /* \"#utility.yul\":3434:3450   */\n      and\n        /* \"#utility.yul\":3422:3451   */\n      swap1\n      mstore\n        /* \"#utility.yul\":3378:3453   */\n      jump\n        /* \"#utility.yul\":7659:7713   */\n    tag_287:\n      pop\n        /* \"#utility.yul\":7762:7766   */\n      0x60\n        /* \"#utility.yul\":7754:7760   */\n      dup4\n        /* \"#utility.yul\":7750:7767   */\n      add\n        /* \"#utility.yul\":7744:7768   */\n      mload\n        /* \"#utility.yul\":7777:7831   */\n      tag_288\n        /* \"#utility.yul\":7825:7829   */\n      0x60\n        /* \"#utility.yul\":7814:7823   */\n      dup5\n        /* \"#utility.yul\":7810:7830   */\n      add\n        /* \"#utility.yul\":7794:7808   */\n      dup3\n        /* \"#utility.yul\":3445:3449   */\n      0xff\n        /* \"#utility.yul\":3434:3450   */\n      and\n        /* \"#utility.yul\":3422:3451   */\n      swap1\n      mstore\n        /* \"#utility.yul\":3378:3453   */\n      jump\n        /* \"#utility.yul\":7777:7831   */\n    tag_288:\n      pop\n        /* \"#utility.yul\":7887:7891   */\n      0x80\n        /* \"#utility.yul\":7879:7885   */\n      dup4\n        /* \"#utility.yul\":7875:7892   */\n      add\n        /* \"#utility.yul\":7869:7893   */\n      mload\n        /* \"#utility.yul\":7862:7866   */\n      0x80\n        /* \"#utility.yul\":7851:7860   */\n      dup4\n        /* \"#utility.yul\":7847:7867   */\n      add\n        /* \"#utility.yul\":7840:7894   */\n      mstore\n        /* \"#utility.yul\":7950:7954   */\n      0xa0\n        /* \"#utility.yul\":7942:7948   */\n      dup4\n        /* \"#utility.yul\":7938:7955   */\n      add\n        /* \"#utility.yul\":7932:7956   */\n      mload\n        /* \"#utility.yul\":7925:7929   */\n      0xa0\n        /* \"#utility.yul\":7914:7923   */\n      dup4\n        /* \"#utility.yul\":7910:7930   */\n      add\n        /* \"#utility.yul\":7903:7957   */\n      mstore\n        /* \"#utility.yul\":8006:8010   */\n      0xc0\n        /* \"#utility.yul\":7998:8004   */\n      dup4\n        /* \"#utility.yul\":7994:8011   */\n      add\n        /* \"#utility.yul\":7988:8012   */\n      mload\n        /* \"#utility.yul\":8021:8077   */\n      tag_289\n        /* \"#utility.yul\":8071:8075   */\n      0xc0\n        /* \"#utility.yul\":8060:8069   */\n      dup5\n        /* \"#utility.yul\":8056:8076   */\n      add\n        /* \"#utility.yul\":8040:8054   */\n      dup3\n      sub(shl(0xa0, 0x01), 0x01)\n        /* \"#utility.yul\":3061:3115   */\n      and\n        /* \"#utility.yul\":3049:3116   */\n      swap1\n      mstore\n        /* \"#utility.yul\":2995:3122   */\n      jump\n        /* \"#utility.yul\":8021:8077   */\n    tag_289:\n      pop\n        /* \"#utility.yul\":8133:8137   */\n      0xe0\n        /* \"#utility.yul\":8121:8138   */\n      dup4\n      dup2\n      add\n        /* \"#utility.yul\":8115:8139   */\n      mload\n        /* \"#utility.yul\":8093:8113   */\n      swap1\n      dup4\n      add\n        /* \"#utility.yul\":8086:8140   */\n      mstore\n        /* \"#utility.yul\":8159:8165   */\n      0x0100\n        /* \"#utility.yul\":8207:8222   */\n      dup1\n      dup5\n      add\n        /* \"#utility.yul\":8201:8223   */\n      mload\n        /* \"#utility.yul\":8181:8199   */\n      swap1\n      dup4\n      add\n        /* \"#utility.yul\":8174:8224   */\n      mstore\n        /* \"#utility.yul\":8243:8249   */\n      0x0120\n        /* \"#utility.yul\":8291:8306   */\n      dup1\n      dup5\n      add\n        /* \"#utility.yul\":8285:8307   */\n      mload\n        /* \"#utility.yul\":8265:8283   */\n      swap1\n      dup4\n      add\n        /* \"#utility.yul\":8258:8308   */\n      mstore\n        /* \"#utility.yul\":8327:8333   */\n      0x0140\n        /* \"#utility.yul\":8370:8385   */\n      dup1\n      dup5\n      add\n        /* \"#utility.yul\":8364:8386   */\n      mload\n        /* \"#utility.yul\":3197:3210   */\n      iszero\n        /* \"#utility.yul\":3190:3211   */\n      iszero\n        /* \"#utility.yul\":8427:8445   */\n      swap1\n      dup4\n      add\n        /* \"#utility.yul\":3178:3212   */\n      mstore\n        /* \"#utility.yul\":8465:8471   */\n      0x0160\n        /* \"#utility.yul\":8508:8523   */\n      dup1\n      dup5\n      add\n        /* \"#utility.yul\":8502:8524   */\n      mload\n        /* \"#utility.yul\":3197:3210   */\n      iszero\n        /* \"#utility.yul\":3190:3211   */\n      iszero\n        /* \"#utility.yul\":8565:8583   */\n      swap1\n      dup4\n      add\n        /* \"#utility.yul\":3178:3212   */\n      mstore\n        /* \"#utility.yul\":8603:8609   */\n      0x0180\n        /* \"#utility.yul\":8646:8661   */\n      dup1\n      dup5\n      add\n        /* \"#utility.yul\":8640:8662   */\n      mload\n      sub(shl(0xa0, 0x01), 0x01)\n        /* \"#utility.yul\":3061:3115   */\n      and\n        /* \"#utility.yul\":8706:8724   */\n      swap1\n      dup4\n      add\n        /* \"#utility.yul\":3049:3116   */\n      mstore\n        /* \"#utility.yul\":8744:8750   */\n      0x01a0\n        /* \"#utility.yul\":8787:8802   */\n      swap3\n      dup4\n      add\n        /* \"#utility.yul\":8781:8803   */\n      mload\n        /* \"#utility.yul\":3197:3210   */\n      iszero\n        /* \"#utility.yul\":3190:3211   */\n      iszero\n        /* \"#utility.yul\":8844:8862   */\n      swap3\n      swap1\n      swap2\n      add\n        /* \"#utility.yul\":3178:3212   */\n      swap2\n      swap1\n      swap2\n      mstore\n        /* \"#utility.yul\":7257:8869   */\n      swap1\n      jump\t// out\n        /* \"#utility.yul\":8874:9275   */\n    tag_253:\n        /* \"#utility.yul\":8941:8943   */\n      0x40\n        /* \"#utility.yul\":8935:8944   */\n      mload\n        /* \"#utility.yul\":8983:8986   */\n      0x01c0\n        /* \"#utility.yul\":8971:8987   */\n      dup2\n      add\n        /* \"#utility.yul\":9017:9035   */\n      0xffffffffffffffff\n        /* \"#utility.yul\":9002:9036   */\n      dup2\n      gt\n        /* \"#utility.yul\":9038:9060   */\n      dup3\n      dup3\n      lt\n        /* \"#utility.yul\":8999:9061   */\n      or\n        /* \"#utility.yul\":8996:9238   */\n      iszero\n      tag_295\n      jumpi\n        /* \"#utility.yul\":9094:9171   */\n      0x4e487b7100000000000000000000000000000000000000000000000000000000\n        /* \"#utility.yul\":9091:9092   */\n      0x00\n        /* \"#utility.yul\":9084:9172   */\n      mstore\n        /* \"#utility.yul\":9195:9199   */\n      0x41\n        /* \"#utility.yul\":9192:9193   */\n      0x04\n        /* \"#utility.yul\":9185:9200   */\n      mstore\n        /* \"#utility.yul\":9223:9227   */\n      0x24\n        /* \"#utility.yul\":9220:9221   */\n      0x00\n        /* \"#utility.yul\":9213:9228   */\n      revert\n        /* \"#utility.yul\":8996:9238   */\n    tag_295:\n        /* \"#utility.yul\":9254:9256   */\n      0x40\n        /* \"#utility.yul\":9247:9269   */\n      mstore\n        /* \"#utility.yul\":8874:9275   */\n      swap1\n      jump\t// out\n        /* \"#utility.yul\":9280:9398   */\n    tag_229:\n        /* \"#utility.yul\":9366:9371   */\n      dup1\n        /* \"#utility.yul\":9359:9372   */\n      iszero\n        /* \"#utility.yul\":9352:9373   */\n      iszero\n        /* \"#utility.yul\":9345:9350   */\n      dup2\n        /* \"#utility.yul\":9342:9374   */\n      eq\n        /* \"#utility.yul\":9332:9392   */\n      tag_159\n      jumpi\n        /* \"#utility.yul\":9388:9389   */\n      0x00\n        /* \"#utility.yul\":9385:9386   */\n      dup1\n        /* \"#utility.yul\":9378:9390   */\n      revert\n\n    auxdata: 0xa264697066735822122073c6e39bbe4cacb4866c1c559768205dd26a2429960ae3c9f091aaad4e79a47e64736f6c63430008070033\n}\n",
				"bytecode": {
					"linkReferences": {},
					"object": "60806040523480156200001157600080fd5b50604051620020b2380380620020b2833981016040819052620000349162000083565b600380546001600160a01b039384166001600160a01b03199182161790915560048054929093169116179055620000bb565b80516001600160a01b03811681146200007e57600080fd5b919050565b600080604083850312156200009757600080fd5b620000a28362000066565b9150620000b26020840162000066565b90509250929050565b611fe780620000cb6000396000f3fe608060405234801561001057600080fd5b50600436106101515760003560e01c80635385cbf5116100cd578063cc0bf75711610081578063e8dd465511610066578063e8dd4655146103ad578063e911abec146103cd578063eaec0112146103e057600080fd5b8063cc0bf75714610366578063cfcdca521461039a57600080fd5b806387a70938116100b257806387a709381461032d578063a935b6af14610340578063b20be2b41461035357600080fd5b80635385cbf5146103075780637c3e2f021461031a57600080fd5b8063328320bf116101245780633b830305116101095780633b830305146102b8578063441eb548146102e1578063492b7107146102f457600080fd5b8063328320bf14610266578063385e4b7a146102a557600080fd5b80631d3b8f671461015657806324fd71391461016b5780632f17d5df1461017e57806331ecdeb8146101ae575b600080fd5b610169610164366004611c1f565b6103f3565b005b610169610179366004611cbb565b61049d565b600354610191906001600160a01b031681565b6040516001600160a01b0390911681526020015b60405180910390f35b61024c6101bc366004611c1f565b6002602081905260009182526040909120805460018201549282015460038301546004840154600585015460068601546007870154600890970154959760d081901b9760ff6601000000000000830481169867010000000000000090930481169796956001600160a01b039081169594938083169261010082048116926201000083041691600160b01b9004168e565b6040516101a59e9d9c9b9a99989796959493929190611da1565b610295610274366004611c1f565b6001600160a01b031660009081526002602052604090206008015460ff1690565b60405190151581526020016101a5565b6101696102b3366004611c1f565b6106f2565b6101916102c6366004611c1f565b6000602081905290815260409020546001600160a01b031681565b6101696102ef366004611c1f565b610821565b600454610191906001600160a01b031681565b610169610315366004611c74565b610947565b610169610328366004611c1f565b610a22565b61016961033b366004611cbb565b610b41565b61016961034e366004611cbb565b610edc565b610169610361366004611c1f565b6111cf565b610191610374366004611c41565b60016020908152600092835260408084209091529082529020546001600160a01b031681565b6101696103a8366004611c41565b611276565b6103c06103bb366004611c1f565b611433565b6040516101a59190611e59565b6101696103db366004611cbb565b611624565b6101696103ee366004611c41565b611a7a565b6004805460408051630a43f92960e11b815290516001600160a01b0390921692631487f252928282019260209290829003018186803b15801561043557600080fd5b505afa158015610449573d6000803e3d6000fd5b505050506040513d601f19601f8201168201806040525081019061046d9190611c9e565b61047657600080fd5b6001600160a01b03166000908152600260205260409020600801805460ff19166001179055565b6004805460408051630a43f92960e11b815290516001600160a01b0390921692631487f252928282019260209290829003018186803b1580156104df57600080fd5b505afa1580156104f3573d6000803e3d6000fd5b505050506040513d601f19601f820116820180604052508101906105179190611c9e565b61052057600080fd5b60c08101516001600160a01b039081166000908152602081905260409020541661054957600080fd5b60006101408201818152610160830182815260016101a0850181815260c0860180516001600160a01b039081168752600260208181526040808a20600890810154620100009081900486166101808e01908152875187168d528585529b8390208d518155938d01519884018054938e015160608f015160d09b909b1c66ffffffffffffff1990951694909417660100000000000060ff958616021767ff00000000000000191667010000000000000094909a16939093029890981790915560808b01519282019290925560a08a01516003820155925160048401805473ffffffffffffffffffffffffffffffffffffffff191691841691909117905560e08901516005840155610100808a01516006850155610120909901516007840155955191909501805494519651925161ffff1990951691151561ff00191691909117951515909602949094177fffffffffffffffffff000000000000000000000000000000000000000000ffff16939092169091027fffffffffffffffffff00ffffffffffffffffffffffffffffffffffffffffffff1691909117600160b01b91151591909102179055565b600360009054906101000a90046001600160a01b03166001600160a01b031663ab3acb5c6040518163ffffffff1660e01b815260040160206040518083038186803b15801561074057600080fd5b505afa158015610754573d6000803e3d6000fd5b505050506040513d601f19601f820116820180604052508101906107789190611c9e565b61078157600080fd5b6001600160a01b038181166000908152600260205260409020600801546201000090041633146107f85760405162461bcd60e51b815260206004820152601660248201527f796f752068617665206e6f74207468652072696768740000000000000000000060448201526064015b60405180910390fd5b6001600160a01b03166000908152600260205260409020600801805461ff001916610100179055565b600360009054906101000a90046001600160a01b03166001600160a01b031663ab3acb5c6040518163ffffffff1660e01b815260040160206040518083038186803b15801561086f57600080fd5b505afa158015610883573d6000803e3d6000fd5b505050506040513d601f19601f820116820180604052508101906108a79190611c9e565b6108b057600080fd5b6001600160a01b038181166000908152600260205260409020600801546201000090041633146109225760405162461bcd60e51b815260206004820152601660248201527f796f752068617665206e6f74207468652072696768740000000000000000000060448201526064016107ef565b6001600160a01b03166000908152600260205260409020600801805461ff0019169055565b6004805460408051630a43f92960e11b815290516001600160a01b0390921692631487f252928282019260209290829003018186803b15801561098957600080fd5b505afa15801561099d573d6000803e3d6000fd5b505050506040513d601f19601f820116820180604052508101906109c19190611c9e565b6109ca57600080fd5b6001600160a01b039091166000908152600260205260409020600101805460ff9092166601000000000000027fffffffffffffffffffffffffffffffffffffffffffffffffff00ffffffffffff909216919091179055565b6004805460408051630a43f92960e11b815290516001600160a01b0390921692631487f252928282019260209290829003018186803b158015610a6457600080fd5b505afa158015610a78573d6000803e3d6000fd5b505050506040513d601f19601f82011682018060405250810190610a9c9190611c9e565b610aa557600080fd5b6001600160a01b038181166000908152602081905260409020541615610b0d5760405162461bcd60e51b815260206004820152601660248201527f74686520636f696e206973206e6f74206578697374730000000000000000000060448201526064016107ef565b6001600160a01b03166000908152602081905260409020805473ffffffffffffffffffffffffffffffffffffffff19169055565b6004805460408051630a43f92960e11b815290516001600160a01b0390921692631487f252928282019260209290829003018186803b158015610b8357600080fd5b505afa158015610b97573d6000803e3d6000fd5b505050506040513d601f19601f82011682018060405250810190610bbb9190611c9e565b610bc457600080fd5b60c08101516001600160a01b0316600090815260026020526040902060080154600160b01b900460ff161515600114610e3157338161018001906001600160a01b031690816001600160a01b0316815250506000816101400190151590811515815250506000816101600190151590811515815250506001816101a001901515908115158152505080600260008360c001516001600160a01b03166001600160a01b031681526020019081526020016000206000820151816000015560208201518160010160006101000a81548165ffffffffffff021916908360d01c021790555060408201518160010160066101000a81548160ff021916908360ff16021790555060608201518160010160076101000a81548160ff021916908360ff1602179055506080820151816002015560a0820151816003015560c08201518160040160006101000a8154816001600160a01b0302191690836001600160a01b0316021790555060e08201518160050155610100820151816006015561012082015181600701556101408201518160080160006101000a81548160ff0219169083151502179055506101608201518160080160016101000a81548160ff0219169083151502179055506101808201518160080160026101000a8154816001600160a01b0302191690836001600160a01b031602179055506101a08201518160080160166101000a81548160ff0219169083151502179055509050508060c001516000808360c001516001600160a01b03166001600160a01b0316815260200190815260200160002060006101000a8154816001600160a01b0302191690836001600160a01b0316021790555050565b60c08101516001600160a01b039081166000908152602081905260409020541615610e9e5760405162461bcd60e51b815260206004820152601d60248201527f74686520636f696e2065786973747320696e20746865206d61726b657400000060448201526064016107ef565b60c08101516001600160a01b03166000818152602081905260409020805473ffffffffffffffffffffffffffffffffffffffff191690911790555b50565b600360009054906101000a90046001600160a01b03166001600160a01b031663ab3acb5c6040518163ffffffff1660e01b815260040160206040518083038186803b158015610f2a57600080fd5b505afa158015610f3e573d6000803e3d6000fd5b505050506040513d601f19601f82011682018060405250810190610f629190611c9e565b610f6b57600080fd5b60c08101516001600160a01b03908116600090815260026020526040902060080154620100009004163314610fe25760405162461bcd60e51b815260206004820152601660248201527f796f752068617665206e6f74207468652072696768740000000000000000000060448201526064016107ef565b806040015160ff166004146110395760405162461bcd60e51b815260206004820181905260248201527f74686520636f696e2073636f7065206973206e6f74206a75737469666965642060448201526064016107ef565b60006101408201818152610160830182815260016101a0850181815233610180870190815260c0870180516001600160a01b039081168852600260208181526040998a90208b518155908b015196810180549a8c015160608d015160d09990991c66ffffffffffffff19909c169b909b17660100000000000060ff9c8d16021767ff0000000000000019166701000000000000009b9098169a909a029690961790985560808901519785019790975560a088015160038501555160048401805473ffffffffffffffffffffffffffffffffffffffff191691881691909117905560e0870151600584015561010080880151600685015561012090970151600784015593516008909201805493519451915161ffff1990941692151561ff00191692909217931515909502929092177fffffffffffffffffff000000000000000000000000000000000000000000ffff166201000094909316939093027fffffffffffffffffff00ffffffffffffffffffffffffffffffffffffffffffff1691909117600160b01b92151592909202919091179055565b6004805460408051630a43f92960e11b815290516001600160a01b0390921692631487f252928282019260209290829003018186803b15801561121157600080fd5b505afa158015611225573d6000803e3d6000fd5b505050506040513d601f19601f820116820180604052508101906112499190611c9e565b61125257600080fd5b6001600160a01b03166000908152600260205260409020600801805460ff19169055565b6004805460408051630a43f92960e11b815290516001600160a01b0390921692631487f252928282019260209290829003018186803b1580156112b857600080fd5b505afa1580156112cc573d6000803e3d6000fd5b505050506040513d601f19601f820116820180604052508101906112f09190611c9e565b6112f957600080fd5b6001600160a01b03818116600090815260016020908152604080832086851684529091529020541661136d5760405162461bcd60e51b815260206004820152601660248201527f74686520636f696e206973206e6f74206578697374730000000000000000000060448201526064016107ef565b6001600160a01b0382811660009081526020819052604090205416156113d55760405162461bcd60e51b815260206004820152601d60248201527f74686520636f696e206973202065786973747320696e206d61726b657400000060448201526064016107ef565b6001600160a01b039081166000908152600160209081526040808320948416835284825280832080548484529190932080549190941673ffffffffffffffffffffffffffffffffffffffff1991821617909355929092528154169055565b604080516101c081018252600080825260208201819052918101829052606081018290526080810182905260a0810182905260c0810182905260e08101829052610100810182905261012081018290526101408101829052610160810182905261018081018290526101a08101919091526001600160a01b038216600090815260026020526040902060080154600160b01b900460ff16151560011461151b5760405162461bcd60e51b815260206004820152601660248201527f74686520636f696e206973206e6f74206578697374730000000000000000000060448201526064016107ef565b506001600160a01b0390811660009081526002602081815260409283902083516101c0810185528154815260018201547fffffffffffff000000000000000000000000000000000000000000000000000060d082901b169382019390935260ff6601000000000000840481169582019590955267010000000000000090920484166060830152918201546080820152600382015460a08201526004820154841660c0820152600582015460e08201526006820154610100808301919091526007830154610120830152600890920154808416151561014083015291820483161515610160820152620100008204909316610180840152600160b01b90041615156101a082015290565b600360009054906101000a90046001600160a01b03166001600160a01b031663ab3acb5c6040518163ffffffff1660e01b815260040160206040518083038186803b15801561167257600080fd5b505afa158015611686573d6000803e3d6000fd5b505050506040513d601f19601f820116820180604052508101906116aa9190611c9e565b6116b357600080fd5b60c08101516001600160a01b0316600090815260026020526040902060080154600160b01b900460ff16151560011461194457338161018001906001600160a01b031690816001600160a01b0316815250506000816101400190151590811515815250506000816101600190151590811515815250506001816101a001901515908115158152505080600260008360c001516001600160a01b03166001600160a01b031681526020019081526020016000206000820151816000015560208201518160010160006101000a81548165ffffffffffff021916908360d01c021790555060408201518160010160066101000a81548160ff021916908360ff16021790555060608201518160010160076101000a81548160ff021916908360ff1602179055506080820151816002015560a0820151816003015560c08201518160040160006101000a8154816001600160a01b0302191690836001600160a01b0316021790555060e08201518160050155610100820151816006015561012082015181600701556101408201518160080160006101000a81548160ff0219169083151502179055506101608201518160080160016101000a81548160ff0219169083151502179055506101808201518160080160026101000a8154816001600160a01b0302191690836001600160a01b031602179055506101a08201518160080160166101000a81548160ff0219169083151502179055509050508060c0015160016000336001600160a01b03166001600160a01b0316815260200190815260200160002060008360c001516001600160a01b03166001600160a01b0316815260200190815260200160002060006101000a8154816001600160a01b0302191690836001600160a01b0316021790555050565b60c08101516001600160a01b0390811660009081526020819052604090205416156119b15760405162461bcd60e51b815260206004820152601d60248201527f74686520636f696e2065786973747320696e20746865206d61726b657400000060448201526064016107ef565b33600090815260016020908152604080832060c08501516001600160a01b0390811685529252909120541615611a295760405162461bcd60e51b815260206004820152601b60248201527f74686520636f696e2065786973747320696e207468652067617465000000000060448201526064016107ef565b60c001805133600090815260016020908152604080832094516001600160a01b039081168452949091529020805473ffffffffffffffffffffffffffffffffffffffff191692909116919091179055565b6004805460408051630a43f92960e11b815290516001600160a01b0390921692631487f252928282019260209290829003018186803b158015611abc57600080fd5b505afa158015611ad0573d6000803e3d6000fd5b505050506040513d601f19601f82011682018060405250810190611af49190611c9e565b611afd57600080fd5b6001600160a01b03818116600090815260016020908152604080832086851684529091529020541615611b725760405162461bcd60e51b815260206004820152601660248201527f74686520636f696e206973206e6f74206578697374730000000000000000000060448201526064016107ef565b6001600160a01b039081166000908152600160209081526040808320949093168252929092529020805473ffffffffffffffffffffffffffffffffffffffff19169055565b80356001600160a01b0381168114611bce57600080fd5b919050565b8035611bce81611fa3565b80357fffffffffffff000000000000000000000000000000000000000000000000000081168114611bce57600080fd5b803560ff81168114611bce57600080fd5b600060208284031215611c3157600080fd5b611c3a82611bb7565b9392505050565b60008060408385031215611c5457600080fd5b611c5d83611bb7565b9150611c6b60208401611bb7565b90509250929050565b60008060408385031215611c8757600080fd5b611c9083611bb7565b9150611c6b60208401611c0e565b600060208284031215611cb057600080fd5b8151611c3a81611fa3565b60006101c08284031215611cce57600080fd5b611cd6611f52565b82358152611ce660208401611bde565b6020820152611cf760408401611c0e565b6040820152611d0860608401611c0e565b60608201526080830135608082015260a083013560a0820152611d2d60c08401611bb7565b60c082015260e0838101359082015261010080840135908201526101208084013590820152610140611d60818501611bd3565b90820152610160611d72848201611bd3565b90820152610180611d84848201611bb7565b908201526101a0611d96848201611bd3565b908201529392505050565b8e81527fffffffffffff00000000000000000000000000000000000000000000000000008e16602082015260ff8d811660408301528c1660608201526101c081018b60808301528a60a0830152611e0360c083018b6001600160a01b03169052565b8860e08301528761010083015286610120830152611e2661014083018715159052565b9315156101608201526001600160a01b039290921661018083015215156101a0909101529b9a5050505050505050505050565b815181526020808301516101c0830191611e96908401827fffffffffffff0000000000000000000000000000000000000000000000000000169052565b506040830151611eab604084018260ff169052565b506060830151611ec0606084018260ff169052565b506080830151608083015260a083015160a083015260c0830151611eef60c08401826001600160a01b03169052565b5060e08381015190830152610100808401519083015261012080840151908301526101408084015115159083015261016080840151151590830152610180808401516001600160a01b0316908301526101a0928301511515929091019190915290565b6040516101c0810167ffffffffffffffff81118282101715611f9d577f4e487b7100000000000000000000000000000000000000000000000000000000600052604160045260246000fd5b60405290565b8015158114610ed957600080fdfea264697066735822122073c6e39bbe4cacb4866c1c559768205dd26a2429960ae3c9f091aaad4e79a47e64736f6c63430008070033",
					"opcodes": "PUSH1 0x80 PUSH1 0x40 MSTORE CALLVALUE DUP1 ISZERO PUSH3 0x11 JUMPI PUSH1 0x0 DUP1 REVERT JUMPDEST POP PUSH1 0x40 MLOAD PUSH3 0x20B2 CODESIZE SUB DUP1 PUSH3 0x20B2 DUP4 CODECOPY DUP2 ADD PUSH1 0x40 DUP2 SWAP1 MSTORE PUSH3 0x34 SWAP2 PUSH3 0x83 JUMP JUMPDEST PUSH1 0x3 DUP1 SLOAD PUSH1 0x1 PUSH1 0x1 PUSH1 0xA0 SHL SUB SWAP4 DUP5 AND PUSH1 0x1 PUSH1 0x1 PUSH1 0xA0 SHL SUB NOT SWAP2 DUP3 AND OR SWAP1 SWAP2 SSTORE PUSH1 0x4 DUP1 SLOAD SWAP3 SWAP1 SWAP4 AND SWAP2 AND OR SWAP1 SSTORE PUSH3 0xBB JUMP JUMPDEST DUP1 MLOAD PUSH1 0x1 PUSH1 0x1 PUSH1 0xA0 SHL SUB DUP2 AND DUP2 EQ PUSH3 0x7E JUMPI PUSH1 0x0 DUP1 REVERT JUMPDEST SWAP2 SWAP1 POP JUMP JUMPDEST PUSH1 0x0 DUP1 PUSH1 0x40 DUP4 DUP6 SUB SLT ISZERO PUSH3 0x97 JUMPI PUSH1 0x0 DUP1 REVERT JUMPDEST PUSH3 0xA2 DUP4 PUSH3 0x66 JUMP JUMPDEST SWAP2 POP PUSH3 0xB2 PUSH1 0x20 DUP5 ADD PUSH3 0x66 JUMP JUMPDEST SWAP1 POP SWAP3 POP SWAP3 SWAP1 POP JUMP JUMPDEST PUSH2 0x1FE7 DUP1 PUSH3 0xCB PUSH1 0x0 CODECOPY PUSH1 0x0 RETURN INVALID PUSH1 0x80 PUSH1 0x40 MSTORE CALLVALUE DUP1 ISZERO PUSH2 0x10 JUMPI PUSH1 0x0 DUP1 REVERT JUMPDEST POP PUSH1 0x4 CALLDATASIZE LT PUSH2 0x151 JUMPI PUSH1 0x0 CALLDATALOAD PUSH1 0xE0 SHR DUP1 PUSH4 0x5385CBF5 GT PUSH2 0xCD JUMPI DUP1 PUSH4 0xCC0BF757 GT PUSH2 0x81 JUMPI DUP1 PUSH4 0xE8DD4655 GT PUSH2 0x66 JUMPI DUP1 PUSH4 0xE8DD4655 EQ PUSH2 0x3AD JUMPI DUP1 PUSH4 0xE911ABEC EQ PUSH2 0x3CD JUMPI DUP1 PUSH4 0xEAEC0112 EQ PUSH2 0x3E0 JUMPI PUSH1 0x0 DUP1 REVERT JUMPDEST DUP1 PUSH4 0xCC0BF757 EQ PUSH2 0x366 JUMPI DUP1 PUSH4 0xCFCDCA52 EQ PUSH2 0x39A JUMPI PUSH1 0x0 DUP1 REVERT JUMPDEST DUP1 PUSH4 0x87A70938 GT PUSH2 0xB2 JUMPI DUP1 PUSH4 0x87A70938 EQ PUSH2 0x32D JUMPI DUP1 PUSH4 0xA935B6AF EQ PUSH2 0x340 JUMPI DUP1 PUSH4 0xB20BE2B4 EQ PUSH2 0x353 JUMPI PUSH1 0x0 DUP1 REVERT JUMPDEST DUP1 PUSH4 0x5385CBF5 EQ PUSH2 0x307 JUMPI DUP1 PUSH4 0x7C3E2F02 EQ PUSH2 0x31A JUMPI PUSH1 0x0 DUP1 REVERT JUMPDEST DUP1 PUSH4 0x328320BF GT PUSH2 0x124 JUMPI DUP1 PUSH4 0x3B830305 GT PUSH2 0x109 JUMPI DUP1 PUSH4 0x3B830305 EQ PUSH2 0x2B8 JUMPI DUP1 PUSH4 0x441EB548 EQ PUSH2 0x2E1 JUMPI DUP1 PUSH4 0x492B7107 EQ PUSH2 0x2F4 JUMPI PUSH1 0x0 DUP1 REVERT JUMPDEST DUP1 PUSH4 0x328320BF EQ PUSH2 0x266 JUMPI DUP1 PUSH4 0x385E4B7A EQ PUSH2 0x2A5 JUMPI PUSH1 0x0 DUP1 REVERT JUMPDEST DUP1 PUSH4 0x1D3B8F67 EQ PUSH2 0x156 JUMPI DUP1 PUSH4 0x24FD7139 EQ PUSH2 0x16B JUMPI DUP1 PUSH4 0x2F17D5DF EQ PUSH2 0x17E JUMPI DUP1 PUSH4 0x31ECDEB8 EQ PUSH2 0x1AE JUMPI JUMPDEST PUSH1 0x0 DUP1 REVERT JUMPDEST PUSH2 0x169 PUSH2 0x164 CALLDATASIZE PUSH1 0x4 PUSH2 0x1C1F JUMP JUMPDEST PUSH2 0x3F3 JUMP JUMPDEST STOP JUMPDEST PUSH2 0x169 PUSH2 0x179 CALLDATASIZE PUSH1 0x4 PUSH2 0x1CBB JUMP JUMPDEST PUSH2 0x49D JUMP JUMPDEST PUSH1 0x3 SLOAD PUSH2 0x191 SWAP1 PUSH1 0x1 PUSH1 0x1 PUSH1 0xA0 SHL SUB AND DUP2 JUMP JUMPDEST PUSH1 0x40 MLOAD PUSH1 0x1 PUSH1 0x1 PUSH1 0xA0 SHL SUB SWAP1 SWAP2 AND DUP2 MSTORE PUSH1 0x20 ADD JUMPDEST PUSH1 0x40 MLOAD DUP1 SWAP2 SUB SWAP1 RETURN JUMPDEST PUSH2 0x24C PUSH2 0x1BC CALLDATASIZE PUSH1 0x4 PUSH2 0x1C1F JUMP JUMPDEST PUSH1 0x2 PUSH1 0x20 DUP2 SWAP1 MSTORE PUSH1 0x0 SWAP2 DUP3 MSTORE PUSH1 0x40 SWAP1 SWAP2 KECCAK256 DUP1 SLOAD PUSH1 0x1 DUP3 ADD SLOAD SWAP3 DUP3 ADD SLOAD PUSH1 0x3 DUP4 ADD SLOAD PUSH1 0x4 DUP5 ADD SLOAD PUSH1 0x5 DUP6 ADD SLOAD PUSH1 0x6 DUP7 ADD SLOAD PUSH1 0x7 DUP8 ADD SLOAD PUSH1 0x8 SWAP1 SWAP8 ADD SLOAD SWAP6 SWAP8 PUSH1 0xD0 DUP2 SWAP1 SHL SWAP8 PUSH1 0xFF PUSH7 0x1000000000000 DUP4 DIV DUP2 AND SWAP9 PUSH8 0x100000000000000 SWAP1 SWAP4 DIV DUP2 AND SWAP8 SWAP7 SWAP6 PUSH1 0x1 PUSH1 0x1 PUSH1 0xA0 SHL SUB SWAP1 DUP2 AND SWAP6 SWAP5 SWAP4 DUP1 DUP4 AND SWAP3 PUSH2 0x100 DUP3 DIV DUP2 AND SWAP3 PUSH3 0x10000 DUP4 DIV AND SWAP2 PUSH1 0x1 PUSH1 0xB0 SHL SWAP1 DIV AND DUP15 JUMP JUMPDEST PUSH1 0x40 MLOAD PUSH2 0x1A5 SWAP15 SWAP14 SWAP13 SWAP12 SWAP11 SWAP10 SWAP9 SWAP8 SWAP7 SWAP6 SWAP5 SWAP4 SWAP3 SWAP2 SWAP1 PUSH2 0x1DA1 JUMP JUMPDEST PUSH2 0x295 PUSH2 0x274 CALLDATASIZE PUSH1 0x4 PUSH2 0x1C1F JUMP JUMPDEST PUSH1 0x1 PUSH1 0x1 PUSH1 0xA0 SHL SUB AND PUSH1 0x0 SWAP1 DUP2 MSTORE PUSH1 0x2 PUSH1 0x20 MSTORE PUSH1 0x40 SWAP1 KECCAK256 PUSH1 0x8 ADD SLOAD PUSH1 0xFF AND SWAP1 JUMP JUMPDEST PUSH1 0x40 MLOAD SWAP1 ISZERO ISZERO DUP2 MSTORE PUSH1 0x20 ADD PUSH2 0x1A5 JUMP JUMPDEST PUSH2 0x169 PUSH2 0x2B3 CALLDATASIZE PUSH1 0x4 PUSH2 0x1C1F JUMP JUMPDEST PUSH2 0x6F2 JUMP JUMPDEST PUSH2 0x191 PUSH2 0x2C6 CALLDATASIZE PUSH1 0x4 PUSH2 0x1C1F JUMP JUMPDEST PUSH1 0x0 PUSH1 0x20 DUP2 SWAP1 MSTORE SWAP1 DUP2 MSTORE PUSH1 0x40 SWAP1 KECCAK256 SLOAD PUSH1 0x1 PUSH1 0x1 PUSH1 0xA0 SHL SUB AND DUP2 JUMP JUMPDEST PUSH2 0x169 PUSH2 0x2EF CALLDATASIZE PUSH1 0x4 PUSH2 0x1C1F JUMP JUMPDEST PUSH2 0x821 JUMP JUMPDEST PUSH1 0x4 SLOAD PUSH2 0x191 SWAP1 PUSH1 0x1 PUSH1 0x1 PUSH1 0xA0 SHL SUB AND DUP2 JUMP JUMPDEST PUSH2 0x169 PUSH2 0x315 CALLDATASIZE PUSH1 0x4 PUSH2 0x1C74 JUMP JUMPDEST PUSH2 0x947 JUMP JUMPDEST PUSH2 0x169 PUSH2 0x328 CALLDATASIZE PUSH1 0x4 PUSH2 0x1C1F JUMP JUMPDEST PUSH2 0xA22 JUMP JUMPDEST PUSH2 0x169 PUSH2 0x33B CALLDATASIZE PUSH1 0x4 PUSH2 0x1CBB JUMP JUMPDEST PUSH2 0xB41 JUMP JUMPDEST PUSH2 0x169 PUSH2 0x34E CALLDATASIZE PUSH1 0x4 PUSH2 0x1CBB JUMP JUMPDEST PUSH2 0xEDC JUMP JUMPDEST PUSH2 0x169 PUSH2 0x361 CALLDATASIZE PUSH1 0x4 PUSH2 0x1C1F JUMP JUMPDEST PUSH2 0x11CF JUMP JUMPDEST PUSH2 0x191 PUSH2 0x374 CALLDATASIZE PUSH1 0x4 PUSH2 0x1C41 JUMP JUMPDEST PUSH1 0x1 PUSH1 0x20 SWAP1 DUP2 MSTORE PUSH1 0x0 SWAP3 DUP4 MSTORE PUSH1 0x40 DUP1 DUP5 KECCAK256 SWAP1 SWAP2 MSTORE SWAP1 DUP3 MSTORE SWAP1 KECCAK256 SLOAD PUSH1 0x1 PUSH1 0x1 PUSH1 0xA0 SHL SUB AND DUP2 JUMP JUMPDEST PUSH2 0x169 PUSH2 0x3A8 CALLDATASIZE PUSH1 0x4 PUSH2 0x1C41 JUMP JUMPDEST PUSH2 0x1276 JUMP JUMPDEST PUSH2 0x3C0 PUSH2 0x3BB CALLDATASIZE PUSH1 0x4 PUSH2 0x1C1F JUMP JUMPDEST PUSH2 0x1433 JUMP JUMPDEST PUSH1 0x40 MLOAD PUSH2 0x1A5 SWAP2 SWAP1 PUSH2 0x1E59 JUMP JUMPDEST PUSH2 0x169 PUSH2 0x3DB CALLDATASIZE PUSH1 0x4 PUSH2 0x1CBB JUMP JUMPDEST PUSH2 0x1624 JUMP JUMPDEST PUSH2 0x169 PUSH2 0x3EE CALLDATASIZE PUSH1 0x4 PUSH2 0x1C41 JUMP JUMPDEST PUSH2 0x1A7A JUMP JUMPDEST PUSH1 0x4 DUP1 SLOAD PUSH1 0x40 DUP1 MLOAD PUSH4 0xA43F929 PUSH1 0xE1 SHL DUP2 MSTORE SWAP1 MLOAD PUSH1 0x1 PUSH1 0x1 PUSH1 0xA0 SHL SUB SWAP1 SWAP3 AND SWAP3 PUSH4 0x1487F252 SWAP3 DUP3 DUP3 ADD SWAP3 PUSH1 0x20 SWAP3 SWAP1 DUP3 SWAP1 SUB ADD DUP2 DUP7 DUP1 EXTCODESIZE ISZERO DUP1 ISZERO PUSH2 0x435 JUMPI PUSH1 0x0 DUP1 REVERT JUMPDEST POP GAS STATICCALL ISZERO DUP1 ISZERO PUSH2 0x449 JUMPI RETURNDATASIZE PUSH1 0x0 DUP1 RETURNDATACOPY RETURNDATASIZE PUSH1 0x0 REVERT JUMPDEST POP POP POP POP PUSH1 0x40 MLOAD RETURNDATASIZE PUSH1 0x1F NOT PUSH1 0x1F DUP3 ADD AND DUP3 ADD DUP1 PUSH1 0x40 MSTORE POP DUP2 ADD SWAP1 PUSH2 0x46D SWAP2 SWAP1 PUSH2 0x1C9E JUMP JUMPDEST PUSH2 0x476 JUMPI PUSH1 0x0 DUP1 REVERT JUMPDEST PUSH1 0x1 PUSH1 0x1 PUSH1 0xA0 SHL SUB AND PUSH1 0x0 SWAP1 DUP2 MSTORE PUSH1 0x2 PUSH1 0x20 MSTORE PUSH1 0x40 SWAP1 KECCAK256 PUSH1 0x8 ADD DUP1 SLOAD PUSH1 0xFF NOT AND PUSH1 0x1 OR SWAP1 SSTORE JUMP JUMPDEST PUSH1 0x4 DUP1 SLOAD PUSH1 0x40 DUP1 MLOAD PUSH4 0xA43F929 PUSH1 0xE1 SHL DUP2 MSTORE SWAP1 MLOAD PUSH1 0x1 PUSH1 0x1 PUSH1 0xA0 SHL SUB SWAP1 SWAP3 AND SWAP3 PUSH4 0x1487F252 SWAP3 DUP3 DUP3 ADD SWAP3 PUSH1 0x20 SWAP3 SWAP1 DUP3 SWAP1 SUB ADD DUP2 DUP7 DUP1 EXTCODESIZE ISZERO DUP1 ISZERO PUSH2 0x4DF JUMPI PUSH1 0x0 DUP1 REVERT JUMPDEST POP GAS STATICCALL ISZERO DUP1 ISZERO PUSH2 0x4F3 JUMPI RETURNDATASIZE PUSH1 0x0 DUP1 RETURNDATACOPY RETURNDATASIZE PUSH1 0x0 REVERT JUMPDEST POP POP POP POP PUSH1 0x40 MLOAD RETURNDATASIZE PUSH1 0x1F NOT PUSH1 0x1F DUP3 ADD AND DUP3 ADD DUP1 PUSH1 0x40 MSTORE POP DUP2 ADD SWAP1 PUSH2 0x517 SWAP2 SWAP1 PUSH2 0x1C9E JUMP JUMPDEST PUSH2 0x520 JUMPI PUSH1 0x0 DUP1 REVERT JUMPDEST PUSH1 0xC0 DUP2 ADD MLOAD PUSH1 0x1 PUSH1 0x1 PUSH1 0xA0 SHL SUB SWAP1 DUP2 AND PUSH1 0x0 SWAP1 DUP2 MSTORE PUSH1 0x20 DUP2 SWAP1 MSTORE PUSH1 0x40 SWAP1 KECCAK256 SLOAD AND PUSH2 0x549 JUMPI PUSH1 0x0 DUP1 REVERT JUMPDEST PUSH1 0x0 PUSH2 0x140 DUP3 ADD DUP2 DUP2 MSTORE PUSH2 0x160 DUP4 ADD DUP3 DUP2 MSTORE PUSH1 0x1 PUSH2 0x1A0 DUP6 ADD DUP2 DUP2 MSTORE PUSH1 0xC0 DUP7 ADD DUP1 MLOAD PUSH1 0x1 PUSH1 0x1 PUSH1 0xA0 SHL SUB SWAP1 DUP2 AND DUP8 MSTORE PUSH1 0x2 PUSH1 0x20 DUP2 DUP2 MSTORE PUSH1 0x40 DUP1 DUP11 KECCAK256 PUSH1 0x8 SWAP1 DUP2 ADD SLOAD PUSH3 0x10000 SWAP1 DUP2 SWAP1 DIV DUP7 AND PUSH2 0x180 DUP15 ADD SWAP1 DUP2 MSTORE DUP8 MLOAD DUP8 AND DUP14 MSTORE DUP6 DUP6 MSTORE SWAP12 DUP4 SWAP1 KECCAK256 DUP14 MLOAD DUP2 SSTORE SWAP4 DUP14 ADD MLOAD SWAP9 DUP5 ADD DUP1 SLOAD SWAP4 DUP15 ADD MLOAD PUSH1 0x60 DUP16 ADD MLOAD PUSH1 0xD0 SWAP12 SWAP1 SWAP12 SHR PUSH7 0xFFFFFFFFFFFFFF NOT SWAP1 SWAP6 AND SWAP5 SWAP1 SWAP5 OR PUSH7 0x1000000000000 PUSH1 0xFF SWAP6 DUP7 AND MUL OR PUSH8 0xFF00000000000000 NOT AND PUSH8 0x100000000000000 SWAP5 SWAP1 SWAP11 AND SWAP4 SWAP1 SWAP4 MUL SWAP9 SWAP1 SWAP9 OR SWAP1 SWAP2 SSTORE PUSH1 0x80 DUP12 ADD MLOAD SWAP3 DUP3 ADD SWAP3 SWAP1 SWAP3 SSTORE PUSH1 0xA0 DUP11 ADD MLOAD PUSH1 0x3 DUP3 ADD SSTORE SWAP3 MLOAD PUSH1 0x4 DUP5 ADD DUP1 SLOAD PUSH20 0xFFFFFFFFFFFFFFFFFFFFFFFFFFFFFFFFFFFFFFFF NOT AND SWAP2 DUP5 AND SWAP2 SWAP1 SWAP2 OR SWAP1 SSTORE PUSH1 0xE0 DUP10 ADD MLOAD PUSH1 0x5 DUP5 ADD SSTORE PUSH2 0x100 DUP1 DUP11 ADD MLOAD PUSH1 0x6 DUP6 ADD SSTORE PUSH2 0x120 SWAP1 SWAP10 ADD MLOAD PUSH1 0x7 DUP5 ADD SSTORE SWAP6 MLOAD SWAP2 SWAP1 SWAP6 ADD DUP1 SLOAD SWAP5 MLOAD SWAP7 MLOAD SWAP3 MLOAD PUSH2 0xFFFF NOT SWAP1 SWAP6 AND SWAP2 ISZERO ISZERO PUSH2 0xFF00 NOT AND SWAP2 SWAP1 SWAP2 OR SWAP6 ISZERO ISZERO SWAP1 SWAP7 MUL SWAP5 SWAP1 SWAP5 OR PUSH32 0xFFFFFFFFFFFFFFFFFF000000000000000000000000000000000000000000FFFF AND SWAP4 SWAP1 SWAP3 AND SWAP1 SWAP2 MUL PUSH32 0xFFFFFFFFFFFFFFFFFF00FFFFFFFFFFFFFFFFFFFFFFFFFFFFFFFFFFFFFFFFFFFF AND SWAP2 SWAP1 SWAP2 OR PUSH1 0x1 PUSH1 0xB0 SHL SWAP2 ISZERO ISZERO SWAP2 SWAP1 SWAP2 MUL OR SWAP1 SSTORE JUMP JUMPDEST PUSH1 0x3 PUSH1 0x0 SWAP1 SLOAD SWAP1 PUSH2 0x100 EXP SWAP1 DIV PUSH1 0x1 PUSH1 0x1 PUSH1 0xA0 SHL SUB AND PUSH1 0x1 PUSH1 0x1 PUSH1 0xA0 SHL SUB AND PUSH4 0xAB3ACB5C PUSH1 0x40 MLOAD DUP2 PUSH4 0xFFFFFFFF AND PUSH1 0xE0 SHL DUP2 MSTORE PUSH1 0x4 ADD PUSH1 0x20 PUSH1 0x40 MLOAD DUP1 DUP4 SUB DUP2 DUP7 DUP1 EXTCODESIZE ISZERO DUP1 ISZERO PUSH2 0x740 JUMPI PUSH1 0x0 DUP1 REVERT JUMPDEST POP GAS STATICCALL ISZERO DUP1 ISZERO PUSH2 0x754 JUMPI RETURNDATASIZE PUSH1 0x0 DUP1 RETURNDATACOPY RETURNDATASIZE PUSH1 0x0 REVERT JUMPDEST POP POP POP POP PUSH1 0x40 MLOAD RETURNDATASIZE PUSH1 0x1F NOT PUSH1 0x1F DUP3 ADD AND DUP3 ADD DUP1 PUSH1 0x40 MSTORE POP DUP2 ADD SWAP1 PUSH2 0x778 SWAP2 SWAP1 PUSH2 0x1C9E JUMP JUMPDEST PUSH2 0x781 JUMPI PUSH1 0x0 DUP1 REVERT JUMPDEST PUSH1 0x1 PUSH1 0x1 PUSH1 0xA0 SHL SUB DUP2 DUP2 AND PUSH1 0x0 SWAP1 DUP2 MSTORE PUSH1 0x2 PUSH1 0x20 MSTORE PUSH1 0x40 SWAP1 KECCAK256 PUSH1 0x8 ADD SLOAD PUSH3 0x10000 SWAP1 DIV AND CALLER EQ PUSH2 0x7F8 JUMPI PUSH1 0x40 MLOAD PUSH3 0x461BCD PUSH1 0xE5 SHL DUP2 MSTORE PUSH1 0x20 PUSH1 0x4 DUP3 ADD MSTORE PUSH1 0x16 PUSH1 0x24 DUP3 ADD MSTORE PUSH32 0x796F752068617665206E6F742074686520726967687400000000000000000000 PUSH1 0x44 DUP3 ADD MSTORE PUSH1 0x64 ADD JUMPDEST PUSH1 0x40 MLOAD DUP1 SWAP2 SUB SWAP1 REVERT JUMPDEST PUSH1 0x1 PUSH1 0x1 PUSH1 0xA0 SHL SUB AND PUSH1 0x0 SWAP1 DUP2 MSTORE PUSH1 0x2 PUSH1 0x20 MSTORE PUSH1 0x40 SWAP1 KECCAK256 PUSH1 0x8 ADD DUP1 SLOAD PUSH2 0xFF00 NOT AND PUSH2 0x100 OR SWAP1 SSTORE JUMP JUMPDEST PUSH1 0x3 PUSH1 0x0 SWAP1 SLOAD SWAP1 PUSH2 0x100 EXP SWAP1 DIV PUSH1 0x1 PUSH1 0x1 PUSH1 0xA0 SHL SUB AND PUSH1 0x1 PUSH1 0x1 PUSH1 0xA0 SHL SUB AND PUSH4 0xAB3ACB5C PUSH1 0x40 MLOAD DUP2 PUSH4 0xFFFFFFFF AND PUSH1 0xE0 SHL DUP2 MSTORE PUSH1 0x4 ADD PUSH1 0x20 PUSH1 0x40 MLOAD DUP1 DUP4 SUB DUP2 DUP7 DUP1 EXTCODESIZE ISZERO DUP1 ISZERO PUSH2 0x86F JUMPI PUSH1 0x0 DUP1 REVERT JUMPDEST POP GAS STATICCALL ISZERO DUP1 ISZERO PUSH2 0x883 JUMPI RETURNDATASIZE PUSH1 0x0 DUP1 RETURNDATACOPY RETURNDATASIZE PUSH1 0x0 REVERT JUMPDEST POP POP POP POP PUSH1 0x40 MLOAD RETURNDATASIZE PUSH1 0x1F NOT PUSH1 0x1F DUP3 ADD AND DUP3 ADD DUP1 PUSH1 0x40 MSTORE POP DUP2 ADD SWAP1 PUSH2 0x8A7 SWAP2 SWAP1 PUSH2 0x1C9E JUMP JUMPDEST PUSH2 0x8B0 JUMPI PUSH1 0x0 DUP1 REVERT JUMPDEST PUSH1 0x1 PUSH1 0x1 PUSH1 0xA0 SHL SUB DUP2 DUP2 AND PUSH1 0x0 SWAP1 DUP2 MSTORE PUSH1 0x2 PUSH1 0x20 MSTORE PUSH1 0x40 SWAP1 KECCAK256 PUSH1 0x8 ADD SLOAD PUSH3 0x10000 SWAP1 DIV AND CALLER EQ PUSH2 0x922 JUMPI PUSH1 0x40 MLOAD PUSH3 0x461BCD PUSH1 0xE5 SHL DUP2 MSTORE PUSH1 0x20 PUSH1 0x4 DUP3 ADD MSTORE PUSH1 0x16 PUSH1 0x24 DUP3 ADD MSTORE PUSH32 0x796F752068617665206E6F742074686520726967687400000000000000000000 PUSH1 0x44 DUP3 ADD MSTORE PUSH1 0x64 ADD PUSH2 0x7EF JUMP JUMPDEST PUSH1 0x1 PUSH1 0x1 PUSH1 0xA0 SHL SUB AND PUSH1 0x0 SWAP1 DUP2 MSTORE PUSH1 0x2 PUSH1 0x20 MSTORE PUSH1 0x40 SWAP1 KECCAK256 PUSH1 0x8 ADD DUP1 SLOAD PUSH2 0xFF00 NOT AND SWAP1 SSTORE JUMP JUMPDEST PUSH1 0x4 DUP1 SLOAD PUSH1 0x40 DUP1 MLOAD PUSH4 0xA43F929 PUSH1 0xE1 SHL DUP2 MSTORE SWAP1 MLOAD PUSH1 0x1 PUSH1 0x1 PUSH1 0xA0 SHL SUB SWAP1 SWAP3 AND SWAP3 PUSH4 0x1487F252 SWAP3 DUP3 DUP3 ADD SWAP3 PUSH1 0x20 SWAP3 SWAP1 DUP3 SWAP1 SUB ADD DUP2 DUP7 DUP1 EXTCODESIZE ISZERO DUP1 ISZERO PUSH2 0x989 JUMPI PUSH1 0x0 DUP1 REVERT JUMPDEST POP GAS STATICCALL ISZERO DUP1 ISZERO PUSH2 0x99D JUMPI RETURNDATASIZE PUSH1 0x0 DUP1 RETURNDATACOPY RETURNDATASIZE PUSH1 0x0 REVERT JUMPDEST POP POP POP POP PUSH1 0x40 MLOAD RETURNDATASIZE PUSH1 0x1F NOT PUSH1 0x1F DUP3 ADD AND DUP3 ADD DUP1 PUSH1 0x40 MSTORE POP DUP2 ADD SWAP1 PUSH2 0x9C1 SWAP2 SWAP1 PUSH2 0x1C9E JUMP JUMPDEST PUSH2 0x9CA JUMPI PUSH1 0x0 DUP1 REVERT JUMPDEST PUSH1 0x1 PUSH1 0x1 PUSH1 0xA0 SHL SUB SWAP1 SWAP2 AND PUSH1 0x0 SWAP1 DUP2 MSTORE PUSH1 0x2 PUSH1 0x20 MSTORE PUSH1 0x40 SWAP1 KECCAK256 PUSH1 0x1 ADD DUP1 SLOAD PUSH1 0xFF SWAP1 SWAP3 AND PUSH7 0x1000000000000 MUL PUSH32 0xFFFFFFFFFFFFFFFFFFFFFFFFFFFFFFFFFFFFFFFFFFFFFFFFFF00FFFFFFFFFFFF SWAP1 SWAP3 AND SWAP2 SWAP1 SWAP2 OR SWAP1 SSTORE JUMP JUMPDEST PUSH1 0x4 DUP1 SLOAD PUSH1 0x40 DUP1 MLOAD PUSH4 0xA43F929 PUSH1 0xE1 SHL DUP2 MSTORE SWAP1 MLOAD PUSH1 0x1 PUSH1 0x1 PUSH1 0xA0 SHL SUB SWAP1 SWAP3 AND SWAP3 PUSH4 0x1487F252 SWAP3 DUP3 DUP3 ADD SWAP3 PUSH1 0x20 SWAP3 SWAP1 DUP3 SWAP1 SUB ADD DUP2 DUP7 DUP1 EXTCODESIZE ISZERO DUP1 ISZERO PUSH2 0xA64 JUMPI PUSH1 0x0 DUP1 REVERT JUMPDEST POP GAS STATICCALL ISZERO DUP1 ISZERO PUSH2 0xA78 JUMPI RETURNDATASIZE PUSH1 0x0 DUP1 RETURNDATACOPY RETURNDATASIZE PUSH1 0x0 REVERT JUMPDEST POP POP POP POP PUSH1 0x40 MLOAD RETURNDATASIZE PUSH1 0x1F NOT PUSH1 0x1F DUP3 ADD AND DUP3 ADD DUP1 PUSH1 0x40 MSTORE POP DUP2 ADD SWAP1 PUSH2 0xA9C SWAP2 SWAP1 PUSH2 0x1C9E JUMP JUMPDEST PUSH2 0xAA5 JUMPI PUSH1 0x0 DUP1 REVERT JUMPDEST PUSH1 0x1 PUSH1 0x1 PUSH1 0xA0 SHL SUB DUP2 DUP2 AND PUSH1 0x0 SWAP1 DUP2 MSTORE PUSH1 0x20 DUP2 SWAP1 MSTORE PUSH1 0x40 SWAP1 KECCAK256 SLOAD AND ISZERO PUSH2 0xB0D JUMPI PUSH1 0x40 MLOAD PUSH3 0x461BCD PUSH1 0xE5 SHL DUP2 MSTORE PUSH1 0x20 PUSH1 0x4 DUP3 ADD MSTORE PUSH1 0x16 PUSH1 0x24 DUP3 ADD MSTORE PUSH32 0x74686520636F696E206973206E6F742065786973747300000000000000000000 PUSH1 0x44 DUP3 ADD MSTORE PUSH1 0x64 ADD PUSH2 0x7EF JUMP JUMPDEST PUSH1 0x1 PUSH1 0x1 PUSH1 0xA0 SHL SUB AND PUSH1 0x0 SWAP1 DUP2 MSTORE PUSH1 0x20 DUP2 SWAP1 MSTORE PUSH1 0x40 SWAP1 KECCAK256 DUP1 SLOAD PUSH20 0xFFFFFFFFFFFFFFFFFFFFFFFFFFFFFFFFFFFFFFFF NOT AND SWAP1 SSTORE JUMP JUMPDEST PUSH1 0x4 DUP1 SLOAD PUSH1 0x40 DUP1 MLOAD PUSH4 0xA43F929 PUSH1 0xE1 SHL DUP2 MSTORE SWAP1 MLOAD PUSH1 0x1 PUSH1 0x1 PUSH1 0xA0 SHL SUB SWAP1 SWAP3 AND SWAP3 PUSH4 0x1487F252 SWAP3 DUP3 DUP3 ADD SWAP3 PUSH1 0x20 SWAP3 SWAP1 DUP3 SWAP1 SUB ADD DUP2 DUP7 DUP1 EXTCODESIZE ISZERO DUP1 ISZERO PUSH2 0xB83 JUMPI PUSH1 0x0 DUP1 REVERT JUMPDEST POP GAS STATICCALL ISZERO DUP1 ISZERO PUSH2 0xB97 JUMPI RETURNDATASIZE PUSH1 0x0 DUP1 RETURNDATACOPY RETURNDATASIZE PUSH1 0x0 REVERT JUMPDEST POP POP POP POP PUSH1 0x40 MLOAD RETURNDATASIZE PUSH1 0x1F NOT PUSH1 0x1F DUP3 ADD AND DUP3 ADD DUP1 PUSH1 0x40 MSTORE POP DUP2 ADD SWAP1 PUSH2 0xBBB SWAP2 SWAP1 PUSH2 0x1C9E JUMP JUMPDEST PUSH2 0xBC4 JUMPI PUSH1 0x0 DUP1 REVERT JUMPDEST PUSH1 0xC0 DUP2 ADD MLOAD PUSH1 0x1 PUSH1 0x1 PUSH1 0xA0 SHL SUB AND PUSH1 0x0 SWAP1 DUP2 MSTORE PUSH1 0x2 PUSH1 0x20 MSTORE PUSH1 0x40 SWAP1 KECCAK256 PUSH1 0x8 ADD SLOAD PUSH1 0x1 PUSH1 0xB0 SHL SWAP1 DIV PUSH1 0xFF AND ISZERO ISZERO PUSH1 0x1 EQ PUSH2 0xE31 JUMPI CALLER DUP2 PUSH2 0x180 ADD SWAP1 PUSH1 0x1 PUSH1 0x1 PUSH1 0xA0 SHL SUB AND SWAP1 DUP2 PUSH1 0x1 PUSH1 0x1 PUSH1 0xA0 SHL SUB AND DUP2 MSTORE POP POP PUSH1 0x0 DUP2 PUSH2 0x140 ADD SWAP1 ISZERO ISZERO SWAP1 DUP2 ISZERO ISZERO DUP2 MSTORE POP POP PUSH1 0x0 DUP2 PUSH2 0x160 ADD SWAP1 ISZERO ISZERO SWAP1 DUP2 ISZERO ISZERO DUP2 MSTORE POP POP PUSH1 0x1 DUP2 PUSH2 0x1A0 ADD SWAP1 ISZERO ISZERO SWAP1 DUP2 ISZERO ISZERO DUP2 MSTORE POP POP DUP1 PUSH1 0x2 PUSH1 0x0 DUP4 PUSH1 0xC0 ADD MLOAD PUSH1 0x1 PUSH1 0x1 PUSH1 0xA0 SHL SUB AND PUSH1 0x1 PUSH1 0x1 PUSH1 0xA0 SHL SUB AND DUP2 MSTORE PUSH1 0x20 ADD SWAP1 DUP2 MSTORE PUSH1 0x20 ADD PUSH1 0x0 KECCAK256 PUSH1 0x0 DUP3 ADD MLOAD DUP2 PUSH1 0x0 ADD SSTORE PUSH1 0x20 DUP3 ADD MLOAD DUP2 PUSH1 0x1 ADD PUSH1 0x0 PUSH2 0x100 EXP DUP2 SLOAD DUP2 PUSH6 0xFFFFFFFFFFFF MUL NOT AND SWAP1 DUP4 PUSH1 0xD0 SHR MUL OR SWAP1 SSTORE POP PUSH1 0x40 DUP3 ADD MLOAD DUP2 PUSH1 0x1 ADD PUSH1 0x6 PUSH2 0x100 EXP DUP2 SLOAD DUP2 PUSH1 0xFF MUL NOT AND SWAP1 DUP4 PUSH1 0xFF AND MUL OR SWAP1 SSTORE POP PUSH1 0x60 DUP3 ADD MLOAD DUP2 PUSH1 0x1 ADD PUSH1 0x7 PUSH2 0x100 EXP DUP2 SLOAD DUP2 PUSH1 0xFF MUL NOT AND SWAP1 DUP4 PUSH1 0xFF AND MUL OR SWAP1 SSTORE POP PUSH1 0x80 DUP3 ADD MLOAD DUP2 PUSH1 0x2 ADD SSTORE PUSH1 0xA0 DUP3 ADD MLOAD DUP2 PUSH1 0x3 ADD SSTORE PUSH1 0xC0 DUP3 ADD MLOAD DUP2 PUSH1 0x4 ADD PUSH1 0x0 PUSH2 0x100 EXP DUP2 SLOAD DUP2 PUSH1 0x1 PUSH1 0x1 PUSH1 0xA0 SHL SUB MUL NOT AND SWAP1 DUP4 PUSH1 0x1 PUSH1 0x1 PUSH1 0xA0 SHL SUB AND MUL OR SWAP1 SSTORE POP PUSH1 0xE0 DUP3 ADD MLOAD DUP2 PUSH1 0x5 ADD SSTORE PUSH2 0x100 DUP3 ADD MLOAD DUP2 PUSH1 0x6 ADD SSTORE PUSH2 0x120 DUP3 ADD MLOAD DUP2 PUSH1 0x7 ADD SSTORE PUSH2 0x140 DUP3 ADD MLOAD DUP2 PUSH1 0x8 ADD PUSH1 0x0 PUSH2 0x100 EXP DUP2 SLOAD DUP2 PUSH1 0xFF MUL NOT AND SWAP1 DUP4 ISZERO ISZERO MUL OR SWAP1 SSTORE POP PUSH2 0x160 DUP3 ADD MLOAD DUP2 PUSH1 0x8 ADD PUSH1 0x1 PUSH2 0x100 EXP DUP2 SLOAD DUP2 PUSH1 0xFF MUL NOT AND SWAP1 DUP4 ISZERO ISZERO MUL OR SWAP1 SSTORE POP PUSH2 0x180 DUP3 ADD MLOAD DUP2 PUSH1 0x8 ADD PUSH1 0x2 PUSH2 0x100 EXP DUP2 SLOAD DUP2 PUSH1 0x1 PUSH1 0x1 PUSH1 0xA0 SHL SUB MUL NOT AND SWAP1 DUP4 PUSH1 0x1 PUSH1 0x1 PUSH1 0xA0 SHL SUB AND MUL OR SWAP1 SSTORE POP PUSH2 0x1A0 DUP3 ADD MLOAD DUP2 PUSH1 0x8 ADD PUSH1 0x16 PUSH2 0x100 EXP DUP2 SLOAD DUP2 PUSH1 0xFF MUL NOT AND SWAP1 DUP4 ISZERO ISZERO MUL OR SWAP1 SSTORE POP SWAP1 POP POP DUP1 PUSH1 0xC0 ADD MLOAD PUSH1 0x0 DUP1 DUP4 PUSH1 0xC0 ADD MLOAD PUSH1 0x1 PUSH1 0x1 PUSH1 0xA0 SHL SUB AND PUSH1 0x1 PUSH1 0x1 PUSH1 0xA0 SHL SUB AND DUP2 MSTORE PUSH1 0x20 ADD SWAP1 DUP2 MSTORE PUSH1 0x20 ADD PUSH1 0x0 KECCAK256 PUSH1 0x0 PUSH2 0x100 EXP DUP2 SLOAD DUP2 PUSH1 0x1 PUSH1 0x1 PUSH1 0xA0 SHL SUB MUL NOT AND SWAP1 DUP4 PUSH1 0x1 PUSH1 0x1 PUSH1 0xA0 SHL SUB AND MUL OR SWAP1 SSTORE POP POP JUMP JUMPDEST PUSH1 0xC0 DUP2 ADD MLOAD PUSH1 0x1 PUSH1 0x1 PUSH1 0xA0 SHL SUB SWAP1 DUP2 AND PUSH1 0x0 SWAP1 DUP2 MSTORE PUSH1 0x20 DUP2 SWAP1 MSTORE PUSH1 0x40 SWAP1 KECCAK256 SLOAD AND ISZERO PUSH2 0xE9E JUMPI PUSH1 0x40 MLOAD PUSH3 0x461BCD PUSH1 0xE5 SHL DUP2 MSTORE PUSH1 0x20 PUSH1 0x4 DUP3 ADD MSTORE PUSH1 0x1D PUSH1 0x24 DUP3 ADD MSTORE PUSH32 0x74686520636F696E2065786973747320696E20746865206D61726B6574000000 PUSH1 0x44 DUP3 ADD MSTORE PUSH1 0x64 ADD PUSH2 0x7EF JUMP JUMPDEST PUSH1 0xC0 DUP2 ADD MLOAD PUSH1 0x1 PUSH1 0x1 PUSH1 0xA0 SHL SUB AND PUSH1 0x0 DUP2 DUP2 MSTORE PUSH1 0x20 DUP2 SWAP1 MSTORE PUSH1 0x40 SWAP1 KECCAK256 DUP1 SLOAD PUSH20 0xFFFFFFFFFFFFFFFFFFFFFFFFFFFFFFFFFFFFFFFF NOT AND SWAP1 SWAP2 OR SWAP1 SSTORE JUMPDEST POP JUMP JUMPDEST PUSH1 0x3 PUSH1 0x0 SWAP1 SLOAD SWAP1 PUSH2 0x100 EXP SWAP1 DIV PUSH1 0x1 PUSH1 0x1 PUSH1 0xA0 SHL SUB AND PUSH1 0x1 PUSH1 0x1 PUSH1 0xA0 SHL SUB AND PUSH4 0xAB3ACB5C PUSH1 0x40 MLOAD DUP2 PUSH4 0xFFFFFFFF AND PUSH1 0xE0 SHL DUP2 MSTORE PUSH1 0x4 ADD PUSH1 0x20 PUSH1 0x40 MLOAD DUP1 DUP4 SUB DUP2 DUP7 DUP1 EXTCODESIZE ISZERO DUP1 ISZERO PUSH2 0xF2A JUMPI PUSH1 0x0 DUP1 REVERT JUMPDEST POP GAS STATICCALL ISZERO DUP1 ISZERO PUSH2 0xF3E JUMPI RETURNDATASIZE PUSH1 0x0 DUP1 RETURNDATACOPY RETURNDATASIZE PUSH1 0x0 REVERT JUMPDEST POP POP POP POP PUSH1 0x40 MLOAD RETURNDATASIZE PUSH1 0x1F NOT PUSH1 0x1F DUP3 ADD AND DUP3 ADD DUP1 PUSH1 0x40 MSTORE POP DUP2 ADD SWAP1 PUSH2 0xF62 SWAP2 SWAP1 PUSH2 0x1C9E JUMP JUMPDEST PUSH2 0xF6B JUMPI PUSH1 0x0 DUP1 REVERT JUMPDEST PUSH1 0xC0 DUP2 ADD MLOAD PUSH1 0x1 PUSH1 0x1 PUSH1 0xA0 SHL SUB SWAP1 DUP2 AND PUSH1 0x0 SWAP1 DUP2 MSTORE PUSH1 0x2 PUSH1 0x20 MSTORE PUSH1 0x40 SWAP1 KECCAK256 PUSH1 0x8 ADD SLOAD PUSH3 0x10000 SWAP1 DIV AND CALLER EQ PUSH2 0xFE2 JUMPI PUSH1 0x40 MLOAD PUSH3 0x461BCD PUSH1 0xE5 SHL DUP2 MSTORE PUSH1 0x20 PUSH1 0x4 DUP3 ADD MSTORE PUSH1 0x16 PUSH1 0x24 DUP3 ADD MSTORE PUSH32 0x796F752068617665206E6F742074686520726967687400000000000000000000 PUSH1 0x44 DUP3 ADD MSTORE PUSH1 0x64 ADD PUSH2 0x7EF JUMP JUMPDEST DUP1 PUSH1 0x40 ADD MLOAD PUSH1 0xFF AND PUSH1 0x4 EQ PUSH2 0x1039 JUMPI PUSH1 0x40 MLOAD PUSH3 0x461BCD PUSH1 0xE5 SHL DUP2 MSTORE PUSH1 0x20 PUSH1 0x4 DUP3 ADD DUP2 SWAP1 MSTORE PUSH1 0x24 DUP3 ADD MSTORE PUSH32 0x74686520636F696E2073636F7065206973206E6F74206A757374696669656420 PUSH1 0x44 DUP3 ADD MSTORE PUSH1 0x64 ADD PUSH2 0x7EF JUMP JUMPDEST PUSH1 0x0 PUSH2 0x140 DUP3 ADD DUP2 DUP2 MSTORE PUSH2 0x160 DUP4 ADD DUP3 DUP2 MSTORE PUSH1 0x1 PUSH2 0x1A0 DUP6 ADD DUP2 DUP2 MSTORE CALLER PUSH2 0x180 DUP8 ADD SWAP1 DUP2 MSTORE PUSH1 0xC0 DUP8 ADD DUP1 MLOAD PUSH1 0x1 PUSH1 0x1 PUSH1 0xA0 SHL SUB SWAP1 DUP2 AND DUP9 MSTORE PUSH1 0x2 PUSH1 0x20 DUP2 DUP2 MSTORE PUSH1 0x40 SWAP10 DUP11 SWAP1 KECCAK256 DUP12 MLOAD DUP2 SSTORE SWAP1 DUP12 ADD MLOAD SWAP7 DUP2 ADD DUP1 SLOAD SWAP11 DUP13 ADD MLOAD PUSH1 0x60 DUP14 ADD MLOAD PUSH1 0xD0 SWAP10 SWAP1 SWAP10 SHR PUSH7 0xFFFFFFFFFFFFFF NOT SWAP1 SWAP13 AND SWAP12 SWAP1 SWAP12 OR PUSH7 0x1000000000000 PUSH1 0xFF SWAP13 DUP14 AND MUL OR PUSH8 0xFF00000000000000 NOT AND PUSH8 0x100000000000000 SWAP12 SWAP1 SWAP9 AND SWAP11 SWAP1 SWAP11 MUL SWAP7 SWAP1 SWAP7 OR SWAP1 SWAP9 SSTORE PUSH1 0x80 DUP10 ADD MLOAD SWAP8 DUP6 ADD SWAP8 SWAP1 SWAP8 SSTORE PUSH1 0xA0 DUP9 ADD MLOAD PUSH1 0x3 DUP6 ADD SSTORE MLOAD PUSH1 0x4 DUP5 ADD DUP1 SLOAD PUSH20 0xFFFFFFFFFFFFFFFFFFFFFFFFFFFFFFFFFFFFFFFF NOT AND SWAP2 DUP9 AND SWAP2 SWAP1 SWAP2 OR SWAP1 SSTORE PUSH1 0xE0 DUP8 ADD MLOAD PUSH1 0x5 DUP5 ADD SSTORE PUSH2 0x100 DUP1 DUP9 ADD MLOAD PUSH1 0x6 DUP6 ADD SSTORE PUSH2 0x120 SWAP1 SWAP8 ADD MLOAD PUSH1 0x7 DUP5 ADD SSTORE SWAP4 MLOAD PUSH1 0x8 SWAP1 SWAP3 ADD DUP1 SLOAD SWAP4 MLOAD SWAP5 MLOAD SWAP2 MLOAD PUSH2 0xFFFF NOT SWAP1 SWAP5 AND SWAP3 ISZERO ISZERO PUSH2 0xFF00 NOT AND SWAP3 SWAP1 SWAP3 OR SWAP4 ISZERO ISZERO SWAP1 SWAP6 MUL SWAP3 SWAP1 SWAP3 OR PUSH32 0xFFFFFFFFFFFFFFFFFF000000000000000000000000000000000000000000FFFF AND PUSH3 0x10000 SWAP5 SWAP1 SWAP4 AND SWAP4 SWAP1 SWAP4 MUL PUSH32 0xFFFFFFFFFFFFFFFFFF00FFFFFFFFFFFFFFFFFFFFFFFFFFFFFFFFFFFFFFFFFFFF AND SWAP2 SWAP1 SWAP2 OR PUSH1 0x1 PUSH1 0xB0 SHL SWAP3 ISZERO ISZERO SWAP3 SWAP1 SWAP3 MUL SWAP2 SWAP1 SWAP2 OR SWAP1 SSTORE JUMP JUMPDEST PUSH1 0x4 DUP1 SLOAD PUSH1 0x40 DUP1 MLOAD PUSH4 0xA43F929 PUSH1 0xE1 SHL DUP2 MSTORE SWAP1 MLOAD PUSH1 0x1 PUSH1 0x1 PUSH1 0xA0 SHL SUB SWAP1 SWAP3 AND SWAP3 PUSH4 0x1487F252 SWAP3 DUP3 DUP3 ADD SWAP3 PUSH1 0x20 SWAP3 SWAP1 DUP3 SWAP1 SUB ADD DUP2 DUP7 DUP1 EXTCODESIZE ISZERO DUP1 ISZERO PUSH2 0x1211 JUMPI PUSH1 0x0 DUP1 REVERT JUMPDEST POP GAS STATICCALL ISZERO DUP1 ISZERO PUSH2 0x1225 JUMPI RETURNDATASIZE PUSH1 0x0 DUP1 RETURNDATACOPY RETURNDATASIZE PUSH1 0x0 REVERT JUMPDEST POP POP POP POP PUSH1 0x40 MLOAD RETURNDATASIZE PUSH1 0x1F NOT PUSH1 0x1F DUP3 ADD AND DUP3 ADD DUP1 PUSH1 0x40 MSTORE POP DUP2 ADD SWAP1 PUSH2 0x1249 SWAP2 SWAP1 PUSH2 0x1C9E JUMP JUMPDEST PUSH2 0x1252 JUMPI PUSH1 0x0 DUP1 REVERT JUMPDEST PUSH1 0x1 PUSH1 0x1 PUSH1 0xA0 SHL SUB AND PUSH1 0x0 SWAP1 DUP2 MSTORE PUSH1 0x2 PUSH1 0x20 MSTORE PUSH1 0x40 SWAP1 KECCAK256 PUSH1 0x8 ADD DUP1 SLOAD PUSH1 0xFF NOT AND SWAP1 SSTORE JUMP JUMPDEST PUSH1 0x4 DUP1 SLOAD PUSH1 0x40 DUP1 MLOAD PUSH4 0xA43F929 PUSH1 0xE1 SHL DUP2 MSTORE SWAP1 MLOAD PUSH1 0x1 PUSH1 0x1 PUSH1 0xA0 SHL SUB SWAP1 SWAP3 AND SWAP3 PUSH4 0x1487F252 SWAP3 DUP3 DUP3 ADD SWAP3 PUSH1 0x20 SWAP3 SWAP1 DUP3 SWAP1 SUB ADD DUP2 DUP7 DUP1 EXTCODESIZE ISZERO DUP1 ISZERO PUSH2 0x12B8 JUMPI PUSH1 0x0 DUP1 REVERT JUMPDEST POP GAS STATICCALL ISZERO DUP1 ISZERO PUSH2 0x12CC JUMPI RETURNDATASIZE PUSH1 0x0 DUP1 RETURNDATACOPY RETURNDATASIZE PUSH1 0x0 REVERT JUMPDEST POP POP POP POP PUSH1 0x40 MLOAD RETURNDATASIZE PUSH1 0x1F NOT PUSH1 0x1F DUP3 ADD AND DUP3 ADD DUP1 PUSH1 0x40 MSTORE POP DUP2 ADD SWAP1 PUSH2 0x12F0 SWAP2 SWAP1 PUSH2 0x1C9E JUMP JUMPDEST PUSH2 0x12F9 JUMPI PUSH1 0x0 DUP1 REVERT JUMPDEST PUSH1 0x1 PUSH1 0x1 PUSH1 0xA0 SHL SUB DUP2 DUP2 AND PUSH1 0x0 SWAP1 DUP2 MSTORE PUSH1 0x1 PUSH1 0x20 SWAP1 DUP2 MSTORE PUSH1 0x40 DUP1 DUP4 KECCAK256 DUP7 DUP6 AND DUP5 MSTORE SWAP1 SWAP2 MSTORE SWAP1 KECCAK256 SLOAD AND PUSH2 0x136D JUMPI PUSH1 0x40 MLOAD PUSH3 0x461BCD PUSH1 0xE5 SHL DUP2 MSTORE PUSH1 0x20 PUSH1 0x4 DUP3 ADD MSTORE PUSH1 0x16 PUSH1 0x24 DUP3 ADD MSTORE PUSH32 0x74686520636F696E206973206E6F742065786973747300000000000000000000 PUSH1 0x44 DUP3 ADD MSTORE PUSH1 0x64 ADD PUSH2 0x7EF JUMP JUMPDEST PUSH1 0x1 PUSH1 0x1 PUSH1 0xA0 SHL SUB DUP3 DUP2 AND PUSH1 0x0 SWAP1 DUP2 MSTORE PUSH1 0x20 DUP2 SWAP1 MSTORE PUSH1 0x40 SWAP1 KECCAK256 SLOAD AND ISZERO PUSH2 0x13D5 JUMPI PUSH1 0x40 MLOAD PUSH3 0x461BCD PUSH1 0xE5 SHL DUP2 MSTORE PUSH1 0x20 PUSH1 0x4 DUP3 ADD MSTORE PUSH1 0x1D PUSH1 0x24 DUP3 ADD MSTORE PUSH32 0x74686520636F696E206973202065786973747320696E206D61726B6574000000 PUSH1 0x44 DUP3 ADD MSTORE PUSH1 0x64 ADD PUSH2 0x7EF JUMP JUMPDEST PUSH1 0x1 PUSH1 0x1 PUSH1 0xA0 SHL SUB SWAP1 DUP2 AND PUSH1 0x0 SWAP1 DUP2 MSTORE PUSH1 0x1 PUSH1 0x20 SWAP1 DUP2 MSTORE PUSH1 0x40 DUP1 DUP4 KECCAK256 SWAP5 DUP5 AND DUP4 MSTORE DUP5 DUP3 MSTORE DUP1 DUP4 KECCAK256 DUP1 SLOAD DUP5 DUP5 MSTORE SWAP2 SWAP1 SWAP4 KECCAK256 DUP1 SLOAD SWAP2 SWAP1 SWAP5 AND PUSH20 0xFFFFFFFFFFFFFFFFFFFFFFFFFFFFFFFFFFFFFFFF NOT SWAP2 DUP3 AND OR SWAP1 SWAP4 SSTORE SWAP3 SWAP1 SWAP3 MSTORE DUP2 SLOAD AND SWAP1 SSTORE JUMP JUMPDEST PUSH1 0x40 DUP1 MLOAD PUSH2 0x1C0 DUP2 ADD DUP3 MSTORE PUSH1 0x0 DUP1 DUP3 MSTORE PUSH1 0x20 DUP3 ADD DUP2 SWAP1 MSTORE SWAP2 DUP2 ADD DUP3 SWAP1 MSTORE PUSH1 0x60 DUP2 ADD DUP3 SWAP1 MSTORE PUSH1 0x80 DUP2 ADD DUP3 SWAP1 MSTORE PUSH1 0xA0 DUP2 ADD DUP3 SWAP1 MSTORE PUSH1 0xC0 DUP2 ADD DUP3 SWAP1 MSTORE PUSH1 0xE0 DUP2 ADD DUP3 SWAP1 MSTORE PUSH2 0x100 DUP2 ADD DUP3 SWAP1 MSTORE PUSH2 0x120 DUP2 ADD DUP3 SWAP1 MSTORE PUSH2 0x140 DUP2 ADD DUP3 SWAP1 MSTORE PUSH2 0x160 DUP2 ADD DUP3 SWAP1 MSTORE PUSH2 0x180 DUP2 ADD DUP3 SWAP1 MSTORE PUSH2 0x1A0 DUP2 ADD SWAP2 SWAP1 SWAP2 MSTORE PUSH1 0x1 PUSH1 0x1 PUSH1 0xA0 SHL SUB DUP3 AND PUSH1 0x0 SWAP1 DUP2 MSTORE PUSH1 0x2 PUSH1 0x20 MSTORE PUSH1 0x40 SWAP1 KECCAK256 PUSH1 0x8 ADD SLOAD PUSH1 0x1 PUSH1 0xB0 SHL SWAP1 DIV PUSH1 0xFF AND ISZERO ISZERO PUSH1 0x1 EQ PUSH2 0x151B JUMPI PUSH1 0x40 MLOAD PUSH3 0x461BCD PUSH1 0xE5 SHL DUP2 MSTORE PUSH1 0x20 PUSH1 0x4 DUP3 ADD MSTORE PUSH1 0x16 PUSH1 0x24 DUP3 ADD MSTORE PUSH32 0x74686520636F696E206973206E6F742065786973747300000000000000000000 PUSH1 0x44 DUP3 ADD MSTORE PUSH1 0x64 ADD PUSH2 0x7EF JUMP JUMPDEST POP PUSH1 0x1 PUSH1 0x1 PUSH1 0xA0 SHL SUB SWAP1 DUP2 AND PUSH1 0x0 SWAP1 DUP2 MSTORE PUSH1 0x2 PUSH1 0x20 DUP2 DUP2 MSTORE PUSH1 0x40 SWAP3 DUP4 SWAP1 KECCAK256 DUP4 MLOAD PUSH2 0x1C0 DUP2 ADD DUP6 MSTORE DUP2 SLOAD DUP2 MSTORE PUSH1 0x1 DUP3 ADD SLOAD PUSH32 0xFFFFFFFFFFFF0000000000000000000000000000000000000000000000000000 PUSH1 0xD0 DUP3 SWAP1 SHL AND SWAP4 DUP3 ADD SWAP4 SWAP1 SWAP4 MSTORE PUSH1 0xFF PUSH7 0x1000000000000 DUP5 DIV DUP2 AND SWAP6 DUP3 ADD SWAP6 SWAP1 SWAP6 MSTORE PUSH8 0x100000000000000 SWAP1 SWAP3 DIV DUP5 AND PUSH1 0x60 DUP4 ADD MSTORE SWAP2 DUP3 ADD SLOAD PUSH1 0x80 DUP3 ADD MSTORE PUSH1 0x3 DUP3 ADD SLOAD PUSH1 0xA0 DUP3 ADD MSTORE PUSH1 0x4 DUP3 ADD SLOAD DUP5 AND PUSH1 0xC0 DUP3 ADD MSTORE PUSH1 0x5 DUP3 ADD SLOAD PUSH1 0xE0 DUP3 ADD MSTORE PUSH1 0x6 DUP3 ADD SLOAD PUSH2 0x100 DUP1 DUP4 ADD SWAP2 SWAP1 SWAP2 MSTORE PUSH1 0x7 DUP4 ADD SLOAD PUSH2 0x120 DUP4 ADD MSTORE PUSH1 0x8 SWAP1 SWAP3 ADD SLOAD DUP1 DUP5 AND ISZERO ISZERO PUSH2 0x140 DUP4 ADD MSTORE SWAP2 DUP3 DIV DUP4 AND ISZERO ISZERO PUSH2 0x160 DUP3 ADD MSTORE PUSH3 0x10000 DUP3 DIV SWAP1 SWAP4 AND PUSH2 0x180 DUP5 ADD MSTORE PUSH1 0x1 PUSH1 0xB0 SHL SWAP1 DIV AND ISZERO ISZERO PUSH2 0x1A0 DUP3 ADD MSTORE SWAP1 JUMP JUMPDEST PUSH1 0x3 PUSH1 0x0 SWAP1 SLOAD SWAP1 PUSH2 0x100 EXP SWAP1 DIV PUSH1 0x1 PUSH1 0x1 PUSH1 0xA0 SHL SUB AND PUSH1 0x1 PUSH1 0x1 PUSH1 0xA0 SHL SUB AND PUSH4 0xAB3ACB5C PUSH1 0x40 MLOAD DUP2 PUSH4 0xFFFFFFFF AND PUSH1 0xE0 SHL DUP2 MSTORE PUSH1 0x4 ADD PUSH1 0x20 PUSH1 0x40 MLOAD DUP1 DUP4 SUB DUP2 DUP7 DUP1 EXTCODESIZE ISZERO DUP1 ISZERO PUSH2 0x1672 JUMPI PUSH1 0x0 DUP1 REVERT JUMPDEST POP GAS STATICCALL ISZERO DUP1 ISZERO PUSH2 0x1686 JUMPI RETURNDATASIZE PUSH1 0x0 DUP1 RETURNDATACOPY RETURNDATASIZE PUSH1 0x0 REVERT JUMPDEST POP POP POP POP PUSH1 0x40 MLOAD RETURNDATASIZE PUSH1 0x1F NOT PUSH1 0x1F DUP3 ADD AND DUP3 ADD DUP1 PUSH1 0x40 MSTORE POP DUP2 ADD SWAP1 PUSH2 0x16AA SWAP2 SWAP1 PUSH2 0x1C9E JUMP JUMPDEST PUSH2 0x16B3 JUMPI PUSH1 0x0 DUP1 REVERT JUMPDEST PUSH1 0xC0 DUP2 ADD MLOAD PUSH1 0x1 PUSH1 0x1 PUSH1 0xA0 SHL SUB AND PUSH1 0x0 SWAP1 DUP2 MSTORE PUSH1 0x2 PUSH1 0x20 MSTORE PUSH1 0x40 SWAP1 KECCAK256 PUSH1 0x8 ADD SLOAD PUSH1 0x1 PUSH1 0xB0 SHL SWAP1 DIV PUSH1 0xFF AND ISZERO ISZERO PUSH1 0x1 EQ PUSH2 0x1944 JUMPI CALLER DUP2 PUSH2 0x180 ADD SWAP1 PUSH1 0x1 PUSH1 0x1 PUSH1 0xA0 SHL SUB AND SWAP1 DUP2 PUSH1 0x1 PUSH1 0x1 PUSH1 0xA0 SHL SUB AND DUP2 MSTORE POP POP PUSH1 0x0 DUP2 PUSH2 0x140 ADD SWAP1 ISZERO ISZERO SWAP1 DUP2 ISZERO ISZERO DUP2 MSTORE POP POP PUSH1 0x0 DUP2 PUSH2 0x160 ADD SWAP1 ISZERO ISZERO SWAP1 DUP2 ISZERO ISZERO DUP2 MSTORE POP POP PUSH1 0x1 DUP2 PUSH2 0x1A0 ADD SWAP1 ISZERO ISZERO SWAP1 DUP2 ISZERO ISZERO DUP2 MSTORE POP POP DUP1 PUSH1 0x2 PUSH1 0x0 DUP4 PUSH1 0xC0 ADD MLOAD PUSH1 0x1 PUSH1 0x1 PUSH1 0xA0 SHL SUB AND PUSH1 0x1 PUSH1 0x1 PUSH1 0xA0 SHL SUB AND DUP2 MSTORE PUSH1 0x20 ADD SWAP1 DUP2 MSTORE PUSH1 0x20 ADD PUSH1 0x0 KECCAK256 PUSH1 0x0 DUP3 ADD MLOAD DUP2 PUSH1 0x0 ADD SSTORE PUSH1 0x20 DUP3 ADD MLOAD DUP2 PUSH1 0x1 ADD PUSH1 0x0 PUSH2 0x100 EXP DUP2 SLOAD DUP2 PUSH6 0xFFFFFFFFFFFF MUL NOT AND SWAP1 DUP4 PUSH1 0xD0 SHR MUL OR SWAP1 SSTORE POP PUSH1 0x40 DUP3 ADD MLOAD DUP2 PUSH1 0x1 ADD PUSH1 0x6 PUSH2 0x100 EXP DUP2 SLOAD DUP2 PUSH1 0xFF MUL NOT AND SWAP1 DUP4 PUSH1 0xFF AND MUL OR SWAP1 SSTORE POP PUSH1 0x60 DUP3 ADD MLOAD DUP2 PUSH1 0x1 ADD PUSH1 0x7 PUSH2 0x100 EXP DUP2 SLOAD DUP2 PUSH1 0xFF MUL NOT AND SWAP1 DUP4 PUSH1 0xFF AND MUL OR SWAP1 SSTORE POP PUSH1 0x80 DUP3 ADD MLOAD DUP2 PUSH1 0x2 ADD SSTORE PUSH1 0xA0 DUP3 ADD MLOAD DUP2 PUSH1 0x3 ADD SSTORE PUSH1 0xC0 DUP3 ADD MLOAD DUP2 PUSH1 0x4 ADD PUSH1 0x0 PUSH2 0x100 EXP DUP2 SLOAD DUP2 PUSH1 0x1 PUSH1 0x1 PUSH1 0xA0 SHL SUB MUL NOT AND SWAP1 DUP4 PUSH1 0x1 PUSH1 0x1 PUSH1 0xA0 SHL SUB AND MUL OR SWAP1 SSTORE POP PUSH1 0xE0 DUP3 ADD MLOAD DUP2 PUSH1 0x5 ADD SSTORE PUSH2 0x100 DUP3 ADD MLOAD DUP2 PUSH1 0x6 ADD SSTORE PUSH2 0x120 DUP3 ADD MLOAD DUP2 PUSH1 0x7 ADD SSTORE PUSH2 0x140 DUP3 ADD MLOAD DUP2 PUSH1 0x8 ADD PUSH1 0x0 PUSH2 0x100 EXP DUP2 SLOAD DUP2 PUSH1 0xFF MUL NOT AND SWAP1 DUP4 ISZERO ISZERO MUL OR SWAP1 SSTORE POP PUSH2 0x160 DUP3 ADD MLOAD DUP2 PUSH1 0x8 ADD PUSH1 0x1 PUSH2 0x100 EXP DUP2 SLOAD DUP2 PUSH1 0xFF MUL NOT AND SWAP1 DUP4 ISZERO ISZERO MUL OR SWAP1 SSTORE POP PUSH2 0x180 DUP3 ADD MLOAD DUP2 PUSH1 0x8 ADD PUSH1 0x2 PUSH2 0x100 EXP DUP2 SLOAD DUP2 PUSH1 0x1 PUSH1 0x1 PUSH1 0xA0 SHL SUB MUL NOT AND SWAP1 DUP4 PUSH1 0x1 PUSH1 0x1 PUSH1 0xA0 SHL SUB AND MUL OR SWAP1 SSTORE POP PUSH2 0x1A0 DUP3 ADD MLOAD DUP2 PUSH1 0x8 ADD PUSH1 0x16 PUSH2 0x100 EXP DUP2 SLOAD DUP2 PUSH1 0xFF MUL NOT AND SWAP1 DUP4 ISZERO ISZERO MUL OR SWAP1 SSTORE POP SWAP1 POP POP DUP1 PUSH1 0xC0 ADD MLOAD PUSH1 0x1 PUSH1 0x0 CALLER PUSH1 0x1 PUSH1 0x1 PUSH1 0xA0 SHL SUB AND PUSH1 0x1 PUSH1 0x1 PUSH1 0xA0 SHL SUB AND DUP2 MSTORE PUSH1 0x20 ADD SWAP1 DUP2 MSTORE PUSH1 0x20 ADD PUSH1 0x0 KECCAK256 PUSH1 0x0 DUP4 PUSH1 0xC0 ADD MLOAD PUSH1 0x1 PUSH1 0x1 PUSH1 0xA0 SHL SUB AND PUSH1 0x1 PUSH1 0x1 PUSH1 0xA0 SHL SUB AND DUP2 MSTORE PUSH1 0x20 ADD SWAP1 DUP2 MSTORE PUSH1 0x20 ADD PUSH1 0x0 KECCAK256 PUSH1 0x0 PUSH2 0x100 EXP DUP2 SLOAD DUP2 PUSH1 0x1 PUSH1 0x1 PUSH1 0xA0 SHL SUB MUL NOT AND SWAP1 DUP4 PUSH1 0x1 PUSH1 0x1 PUSH1 0xA0 SHL SUB AND MUL OR SWAP1 SSTORE POP POP JUMP JUMPDEST PUSH1 0xC0 DUP2 ADD MLOAD PUSH1 0x1 PUSH1 0x1 PUSH1 0xA0 SHL SUB SWAP1 DUP2 AND PUSH1 0x0 SWAP1 DUP2 MSTORE PUSH1 0x20 DUP2 SWAP1 MSTORE PUSH1 0x40 SWAP1 KECCAK256 SLOAD AND ISZERO PUSH2 0x19B1 JUMPI PUSH1 0x40 MLOAD PUSH3 0x461BCD PUSH1 0xE5 SHL DUP2 MSTORE PUSH1 0x20 PUSH1 0x4 DUP3 ADD MSTORE PUSH1 0x1D PUSH1 0x24 DUP3 ADD MSTORE PUSH32 0x74686520636F696E2065786973747320696E20746865206D61726B6574000000 PUSH1 0x44 DUP3 ADD MSTORE PUSH1 0x64 ADD PUSH2 0x7EF JUMP JUMPDEST CALLER PUSH1 0x0 SWAP1 DUP2 MSTORE PUSH1 0x1 PUSH1 0x20 SWAP1 DUP2 MSTORE PUSH1 0x40 DUP1 DUP4 KECCAK256 PUSH1 0xC0 DUP6 ADD MLOAD PUSH1 0x1 PUSH1 0x1 PUSH1 0xA0 SHL SUB SWAP1 DUP2 AND DUP6 MSTORE SWAP3 MSTORE SWAP1 SWAP2 KECCAK256 SLOAD AND ISZERO PUSH2 0x1A29 JUMPI PUSH1 0x40 MLOAD PUSH3 0x461BCD PUSH1 0xE5 SHL DUP2 MSTORE PUSH1 0x20 PUSH1 0x4 DUP3 ADD MSTORE PUSH1 0x1B PUSH1 0x24 DUP3 ADD MSTORE PUSH32 0x74686520636F696E2065786973747320696E2074686520676174650000000000 PUSH1 0x44 DUP3 ADD MSTORE PUSH1 0x64 ADD PUSH2 0x7EF JUMP JUMPDEST PUSH1 0xC0 ADD DUP1 MLOAD CALLER PUSH1 0x0 SWAP1 DUP2 MSTORE PUSH1 0x1 PUSH1 0x20 SWAP1 DUP2 MSTORE PUSH1 0x40 DUP1 DUP4 KECCAK256 SWAP5 MLOAD PUSH1 0x1 PUSH1 0x1 PUSH1 0xA0 SHL SUB SWAP1 DUP2 AND DUP5 MSTORE SWAP5 SWAP1 SWAP2 MSTORE SWAP1 KECCAK256 DUP1 SLOAD PUSH20 0xFFFFFFFFFFFFFFFFFFFFFFFFFFFFFFFFFFFFFFFF NOT AND SWAP3 SWAP1 SWAP2 AND SWAP2 SWAP1 SWAP2 OR SWAP1 SSTORE JUMP JUMPDEST PUSH1 0x4 DUP1 SLOAD PUSH1 0x40 DUP1 MLOAD PUSH4 0xA43F929 PUSH1 0xE1 SHL DUP2 MSTORE SWAP1 MLOAD PUSH1 0x1 PUSH1 0x1 PUSH1 0xA0 SHL SUB SWAP1 SWAP3 AND SWAP3 PUSH4 0x1487F252 SWAP3 DUP3 DUP3 ADD SWAP3 PUSH1 0x20 SWAP3 SWAP1 DUP3 SWAP1 SUB ADD DUP2 DUP7 DUP1 EXTCODESIZE ISZERO DUP1 ISZERO PUSH2 0x1ABC JUMPI PUSH1 0x0 DUP1 REVERT JUMPDEST POP GAS STATICCALL ISZERO DUP1 ISZERO PUSH2 0x1AD0 JUMPI RETURNDATASIZE PUSH1 0x0 DUP1 RETURNDATACOPY RETURNDATASIZE PUSH1 0x0 REVERT JUMPDEST POP POP POP POP PUSH1 0x40 MLOAD RETURNDATASIZE PUSH1 0x1F NOT PUSH1 0x1F DUP3 ADD AND DUP3 ADD DUP1 PUSH1 0x40 MSTORE POP DUP2 ADD SWAP1 PUSH2 0x1AF4 SWAP2 SWAP1 PUSH2 0x1C9E JUMP JUMPDEST PUSH2 0x1AFD JUMPI PUSH1 0x0 DUP1 REVERT JUMPDEST PUSH1 0x1 PUSH1 0x1 PUSH1 0xA0 SHL SUB DUP2 DUP2 AND PUSH1 0x0 SWAP1 DUP2 MSTORE PUSH1 0x1 PUSH1 0x20 SWAP1 DUP2 MSTORE PUSH1 0x40 DUP1 DUP4 KECCAK256 DUP7 DUP6 AND DUP5 MSTORE SWAP1 SWAP2 MSTORE SWAP1 KECCAK256 SLOAD AND ISZERO PUSH2 0x1B72 JUMPI PUSH1 0x40 MLOAD PUSH3 0x461BCD PUSH1 0xE5 SHL DUP2 MSTORE PUSH1 0x20 PUSH1 0x4 DUP3 ADD MSTORE PUSH1 0x16 PUSH1 0x24 DUP3 ADD MSTORE PUSH32 0x74686520636F696E206973206E6F742065786973747300000000000000000000 PUSH1 0x44 DUP3 ADD MSTORE PUSH1 0x64 ADD PUSH2 0x7EF JUMP JUMPDEST PUSH1 0x1 PUSH1 0x1 PUSH1 0xA0 SHL SUB SWAP1 DUP2 AND PUSH1 0x0 SWAP1 DUP2 MSTORE PUSH1 0x1 PUSH1 0x20 SWAP1 DUP2 MSTORE PUSH1 0x40 DUP1 DUP4 KECCAK256 SWAP5 SWAP1 SWAP4 AND DUP3 MSTORE SWAP3 SWAP1 SWAP3 MSTORE SWAP1 KECCAK256 DUP1 SLOAD PUSH20 0xFFFFFFFFFFFFFFFFFFFFFFFFFFFFFFFFFFFFFFFF NOT AND SWAP1 SSTORE JUMP JUMPDEST DUP1 CALLDATALOAD PUSH1 0x1 PUSH1 0x1 PUSH1 0xA0 SHL SUB DUP2 AND DUP2 EQ PUSH2 0x1BCE JUMPI PUSH1 0x0 DUP1 REVERT JUMPDEST SWAP2 SWAP1 POP JUMP JUMPDEST DUP1 CALLDATALOAD PUSH2 0x1BCE DUP2 PUSH2 0x1FA3 JUMP JUMPDEST DUP1 CALLDATALOAD PUSH32 0xFFFFFFFFFFFF0000000000000000000000000000000000000000000000000000 DUP2 AND DUP2 EQ PUSH2 0x1BCE JUMPI PUSH1 0x0 DUP1 REVERT JUMPDEST DUP1 CALLDATALOAD PUSH1 0xFF DUP2 AND DUP2 EQ PUSH2 0x1BCE JUMPI PUSH1 0x0 DUP1 REVERT JUMPDEST PUSH1 0x0 PUSH1 0x20 DUP3 DUP5 SUB SLT ISZERO PUSH2 0x1C31 JUMPI PUSH1 0x0 DUP1 REVERT JUMPDEST PUSH2 0x1C3A DUP3 PUSH2 0x1BB7 JUMP JUMPDEST SWAP4 SWAP3 POP POP POP JUMP JUMPDEST PUSH1 0x0 DUP1 PUSH1 0x40 DUP4 DUP6 SUB SLT ISZERO PUSH2 0x1C54 JUMPI PUSH1 0x0 DUP1 REVERT JUMPDEST PUSH2 0x1C5D DUP4 PUSH2 0x1BB7 JUMP JUMPDEST SWAP2 POP PUSH2 0x1C6B PUSH1 0x20 DUP5 ADD PUSH2 0x1BB7 JUMP JUMPDEST SWAP1 POP SWAP3 POP SWAP3 SWAP1 POP JUMP JUMPDEST PUSH1 0x0 DUP1 PUSH1 0x40 DUP4 DUP6 SUB SLT ISZERO PUSH2 0x1C87 JUMPI PUSH1 0x0 DUP1 REVERT JUMPDEST PUSH2 0x1C90 DUP4 PUSH2 0x1BB7 JUMP JUMPDEST SWAP2 POP PUSH2 0x1C6B PUSH1 0x20 DUP5 ADD PUSH2 0x1C0E JUMP JUMPDEST PUSH1 0x0 PUSH1 0x20 DUP3 DUP5 SUB SLT ISZERO PUSH2 0x1CB0 JUMPI PUSH1 0x0 DUP1 REVERT JUMPDEST DUP2 MLOAD PUSH2 0x1C3A DUP2 PUSH2 0x1FA3 JUMP JUMPDEST PUSH1 0x0 PUSH2 0x1C0 DUP3 DUP5 SUB SLT ISZERO PUSH2 0x1CCE JUMPI PUSH1 0x0 DUP1 REVERT JUMPDEST PUSH2 0x1CD6 PUSH2 0x1F52 JUMP JUMPDEST DUP3 CALLDATALOAD DUP2 MSTORE PUSH2 0x1CE6 PUSH1 0x20 DUP5 ADD PUSH2 0x1BDE JUMP JUMPDEST PUSH1 0x20 DUP3 ADD MSTORE PUSH2 0x1CF7 PUSH1 0x40 DUP5 ADD PUSH2 0x1C0E JUMP JUMPDEST PUSH1 0x40 DUP3 ADD MSTORE PUSH2 0x1D08 PUSH1 0x60 DUP5 ADD PUSH2 0x1C0E JUMP JUMPDEST PUSH1 0x60 DUP3 ADD MSTORE PUSH1 0x80 DUP4 ADD CALLDATALOAD PUSH1 0x80 DUP3 ADD MSTORE PUSH1 0xA0 DUP4 ADD CALLDATALOAD PUSH1 0xA0 DUP3 ADD MSTORE PUSH2 0x1D2D PUSH1 0xC0 DUP5 ADD PUSH2 0x1BB7 JUMP JUMPDEST PUSH1 0xC0 DUP3 ADD MSTORE PUSH1 0xE0 DUP4 DUP2 ADD CALLDATALOAD SWAP1 DUP3 ADD MSTORE PUSH2 0x100 DUP1 DUP5 ADD CALLDATALOAD SWAP1 DUP3 ADD MSTORE PUSH2 0x120 DUP1 DUP5 ADD CALLDATALOAD SWAP1 DUP3 ADD MSTORE PUSH2 0x140 PUSH2 0x1D60 DUP2 DUP6 ADD PUSH2 0x1BD3 JUMP JUMPDEST SWAP1 DUP3 ADD MSTORE PUSH2 0x160 PUSH2 0x1D72 DUP5 DUP3 ADD PUSH2 0x1BD3 JUMP JUMPDEST SWAP1 DUP3 ADD MSTORE PUSH2 0x180 PUSH2 0x1D84 DUP5 DUP3 ADD PUSH2 0x1BB7 JUMP JUMPDEST SWAP1 DUP3 ADD MSTORE PUSH2 0x1A0 PUSH2 0x1D96 DUP5 DUP3 ADD PUSH2 0x1BD3 JUMP JUMPDEST SWAP1 DUP3 ADD MSTORE SWAP4 SWAP3 POP POP POP JUMP JUMPDEST DUP15 DUP2 MSTORE PUSH32 0xFFFFFFFFFFFF0000000000000000000000000000000000000000000000000000 DUP15 AND PUSH1 0x20 DUP3 ADD MSTORE PUSH1 0xFF DUP14 DUP2 AND PUSH1 0x40 DUP4 ADD MSTORE DUP13 AND PUSH1 0x60 DUP3 ADD MSTORE PUSH2 0x1C0 DUP2 ADD DUP12 PUSH1 0x80 DUP4 ADD MSTORE DUP11 PUSH1 0xA0 DUP4 ADD MSTORE PUSH2 0x1E03 PUSH1 0xC0 DUP4 ADD DUP12 PUSH1 0x1 PUSH1 0x1 PUSH1 0xA0 SHL SUB AND SWAP1 MSTORE JUMP JUMPDEST DUP9 PUSH1 0xE0 DUP4 ADD MSTORE DUP8 PUSH2 0x100 DUP4 ADD MSTORE DUP7 PUSH2 0x120 DUP4 ADD MSTORE PUSH2 0x1E26 PUSH2 0x140 DUP4 ADD DUP8 ISZERO ISZERO SWAP1 MSTORE JUMP JUMPDEST SWAP4 ISZERO ISZERO PUSH2 0x160 DUP3 ADD MSTORE PUSH1 0x1 PUSH1 0x1 PUSH1 0xA0 SHL SUB SWAP3 SWAP1 SWAP3 AND PUSH2 0x180 DUP4 ADD MSTORE ISZERO ISZERO PUSH2 0x1A0 SWAP1 SWAP2 ADD MSTORE SWAP12 SWAP11 POP POP POP POP POP POP POP POP POP POP POP JUMP JUMPDEST DUP2 MLOAD DUP2 MSTORE PUSH1 0x20 DUP1 DUP4 ADD MLOAD PUSH2 0x1C0 DUP4 ADD SWAP2 PUSH2 0x1E96 SWAP1 DUP5 ADD DUP3 PUSH32 0xFFFFFFFFFFFF0000000000000000000000000000000000000000000000000000 AND SWAP1 MSTORE JUMP JUMPDEST POP PUSH1 0x40 DUP4 ADD MLOAD PUSH2 0x1EAB PUSH1 0x40 DUP5 ADD DUP3 PUSH1 0xFF AND SWAP1 MSTORE JUMP JUMPDEST POP PUSH1 0x60 DUP4 ADD MLOAD PUSH2 0x1EC0 PUSH1 0x60 DUP5 ADD DUP3 PUSH1 0xFF AND SWAP1 MSTORE JUMP JUMPDEST POP PUSH1 0x80 DUP4 ADD MLOAD PUSH1 0x80 DUP4 ADD MSTORE PUSH1 0xA0 DUP4 ADD MLOAD PUSH1 0xA0 DUP4 ADD MSTORE PUSH1 0xC0 DUP4 ADD MLOAD PUSH2 0x1EEF PUSH1 0xC0 DUP5 ADD DUP3 PUSH1 0x1 PUSH1 0x1 PUSH1 0xA0 SHL SUB AND SWAP1 MSTORE JUMP JUMPDEST POP PUSH1 0xE0 DUP4 DUP2 ADD MLOAD SWAP1 DUP4 ADD MSTORE PUSH2 0x100 DUP1 DUP5 ADD MLOAD SWAP1 DUP4 ADD MSTORE PUSH2 0x120 DUP1 DUP5 ADD MLOAD SWAP1 DUP4 ADD MSTORE PUSH2 0x140 DUP1 DUP5 ADD MLOAD ISZERO ISZERO SWAP1 DUP4 ADD MSTORE PUSH2 0x160 DUP1 DUP5 ADD MLOAD ISZERO ISZERO SWAP1 DUP4 ADD MSTORE PUSH2 0x180 DUP1 DUP5 ADD MLOAD PUSH1 0x1 PUSH1 0x1 PUSH1 0xA0 SHL SUB AND SWAP1 DUP4 ADD MSTORE PUSH2 0x1A0 SWAP3 DUP4 ADD MLOAD ISZERO ISZERO SWAP3 SWAP1 SWAP2 ADD SWAP2 SWAP1 SWAP2 MSTORE SWAP1 JUMP JUMPDEST PUSH1 0x40 MLOAD PUSH2 0x1C0 DUP2 ADD PUSH8 0xFFFFFFFFFFFFFFFF DUP2 GT DUP3 DUP3 LT OR ISZERO PUSH2 0x1F9D JUMPI PUSH32 0x4E487B7100000000000000000000000000000000000000000000000000000000 PUSH1 0x0 MSTORE PUSH1 0x41 PUSH1 0x4 MSTORE PUSH1 0x24 PUSH1 0x0 REVERT JUMPDEST PUSH1 0x40 MSTORE SWAP1 JUMP JUMPDEST DUP1 ISZERO ISZERO DUP2 EQ PUSH2 0xED9 JUMPI PUSH1 0x0 DUP1 REVERT INVALID LOG2 PUSH5 0x6970667358 0x22 SLT KECCAK256 PUSH20 0xC6E39BBE4CACB4866C1C559768205DD26A242996 EXP 0xE3 0xC9 CREATE SWAP2 0xAA 0xAD 0x4E PUSH26 0xA47E64736F6C6343000807003300000000000000000000000000 "
				},
				"gasEstimates": {
					"creation": {
						"codeDepositCost": "1633400",
						"executionCost": "infinite",
						"totalCost": "infinite"
					},
					"external": {
						"addCoinbyGator((bytes32,bytes6,uint8,uint8,uint256,uint256,address,bytes32,bytes32,bytes32,bool,bool,address,bool))": "infinite",
						"addCoinbyMarketor((bytes32,bytes6,uint8,uint8,uint256,uint256,address,bytes32,bytes32,bytes32,bool,bool,address,bool))": "infinite",
						"changeCoinScopebyMarketor(address,uint8)": "infinite",
						"coinList(address)": "20101",
						"delCoinbyMarketor(address)": "infinite",
						"delGateCoinbyMarketor(address,address)": "infinite",
						"gateCoinList(address,address)": "infinite",
						"gateContractAddress()": "2394",
						"getCoinInfo(address)": "23027",
						"impoveGateCoinbyMarketor(address,address)": "infinite",
						"isValidCoin(address)": "2601",
						"lockCoinbyGator(address)": "infinite",
						"lockCoinbyMarketor(address)": "infinite",
						"marketCoinList(address)": "2595",
						"marketorContractAddress()": "2415",
						"unlockCoinbyGator(address)": "infinite",
						"unlockCoinbyMarketor(address)": "infinite",
						"updateCoinbyGator((bytes32,bytes6,uint8,uint8,uint256,uint256,address,bytes32,bytes32,bytes32,bool,bool,address,bool))": "infinite",
						"updateCoinbyMarketor((bytes32,bytes6,uint8,uint8,uint256,uint256,address,bytes32,bytes32,bytes32,bool,bool,address,bool))": "infinite"
					}
				},
				"methodIdentifiers": {
					"addCoinbyGator((bytes32,bytes6,uint8,uint8,uint256,uint256,address,bytes32,bytes32,bytes32,bool,bool,address,bool))": "e911abec",
					"addCoinbyMarketor((bytes32,bytes6,uint8,uint8,uint256,uint256,address,bytes32,bytes32,bytes32,bool,bool,address,bool))": "87a70938",
					"changeCoinScopebyMarketor(address,uint8)": "5385cbf5",
					"coinList(address)": "31ecdeb8",
					"delCoinbyMarketor(address)": "7c3e2f02",
					"delGateCoinbyMarketor(address,address)": "eaec0112",
					"gateCoinList(address,address)": "cc0bf757",
					"gateContractAddress()": "2f17d5df",
					"getCoinInfo(address)": "e8dd4655",
					"impoveGateCoinbyMarketor(address,address)": "cfcdca52",
					"isValidCoin(address)": "328320bf",
					"lockCoinbyGator(address)": "441eb548",
					"lockCoinbyMarketor(address)": "b20be2b4",
					"marketCoinList(address)": "3b830305",
					"marketorContractAddress()": "492b7107",
					"unlockCoinbyGator(address)": "385e4b7a",
					"unlockCoinbyMarketor(address)": "1d3b8f67",
					"updateCoinbyGator((bytes32,bytes6,uint8,uint8,uint256,uint256,address,bytes32,bytes32,bytes32,bool,bool,address,bool))": "a935b6af",
					"updateCoinbyMarketor((bytes32,bytes6,uint8,uint8,uint256,uint256,address,bytes32,bytes32,bytes32,bool,bool,address,bool))": "24fd7139"
				}
			},
			"storageLayout": {
				"storage": [
					{
						"astId": 8,
						"contract": "Contracts/Copy_MoonV1Coin.sol:MoonV1Coin",
						"label": "marketCoinList",
						"offset": 0,
						"slot": "0",
						"type": "t_mapping(t_address,t_address)"
					},
					{
						"astId": 14,
						"contract": "Contracts/Copy_MoonV1Coin.sol:MoonV1Coin",
						"label": "gateCoinList",
						"offset": 0,
						"slot": "1",
						"type": "t_mapping(t_address,t_mapping(t_address,t_address))"
					},
					{
						"astId": 19,
						"contract": "Contracts/Copy_MoonV1Coin.sol:MoonV1Coin",
						"label": "coinList",
						"offset": 0,
						"slot": "2",
						"type": "t_mapping(t_address,t_struct(Info)1082_storage)"
					},
					{
						"astId": 21,
						"contract": "Contracts/Copy_MoonV1Coin.sol:MoonV1Coin",
						"label": "gateContractAddress",
						"offset": 0,
						"slot": "3",
						"type": "t_address"
					},
					{
						"astId": 23,
						"contract": "Contracts/Copy_MoonV1Coin.sol:MoonV1Coin",
						"label": "marketorContractAddress",
						"offset": 0,
						"slot": "4",
						"type": "t_address"
					}
				],
				"types": {
					"t_address": {
						"encoding": "inplace",
						"label": "address",
						"numberOfBytes": "20"
					},
					"t_bool": {
						"encoding": "inplace",
						"label": "bool",
						"numberOfBytes": "1"
					},
					"t_bytes32": {
						"encoding": "inplace",
						"label": "bytes32",
						"numberOfBytes": "32"
					},
					"t_bytes6": {
						"encoding": "inplace",
						"label": "bytes6",
						"numberOfBytes": "6"
					},
					"t_mapping(t_address,t_address)": {
						"encoding": "mapping",
						"key": "t_address",
						"label": "mapping(address => address)",
						"numberOfBytes": "32",
						"value": "t_address"
					},
					"t_mapping(t_address,t_mapping(t_address,t_address))": {
						"encoding": "mapping",
						"key": "t_address",
						"label": "mapping(address => mapping(address => address))",
						"numberOfBytes": "32",
						"value": "t_mapping(t_address,t_address)"
					},
					"t_mapping(t_address,t_struct(Info)1082_storage)": {
						"encoding": "mapping",
						"key": "t_address",
						"label": "mapping(address => struct LCoin.Info)",
						"numberOfBytes": "32",
						"value": "t_struct(Info)1082_storage"
					},
					"t_struct(Info)1082_storage": {
						"encoding": "inplace",
						"label": "struct LCoin.Info",
						"members": [
							{
								"astId": 1055,
								"contract": "Contracts/Copy_MoonV1Coin.sol:MoonV1Coin",
								"label": "coinFullName",
								"offset": 0,
								"slot": "0",
								"type": "t_bytes32"
							},
							{
								"astId": 1057,
								"contract": "Contracts/Copy_MoonV1Coin.sol:MoonV1Coin",
								"label": "symbol",
								"offset": 0,
								"slot": "1",
								"type": "t_bytes6"
							},
							{
								"astId": 1059,
								"contract": "Contracts/Copy_MoonV1Coin.sol:MoonV1Coin",
								"label": "scope",
								"offset": 6,
								"slot": "1",
								"type": "t_uint8"
							},
							{
								"astId": 1061,
								"contract": "Contracts/Copy_MoonV1Coin.sol:MoonV1Coin",
								"label": "decimals",
								"offset": 7,
								"slot": "1",
								"type": "t_uint8"
							},
							{
								"astId": 1063,
								"contract": "Contracts/Copy_MoonV1Coin.sol:MoonV1Coin",
								"label": "maxSupply",
								"offset": 0,
								"slot": "2",
								"type": "t_uint256"
							},
							{
								"astId": 1065,
								"contract": "Contracts/Copy_MoonV1Coin.sol:MoonV1Coin",
								"label": "totalSupply",
								"offset": 0,
								"slot": "3",
								"type": "t_uint256"
							},
							{
								"astId": 1067,
								"contract": "Contracts/Copy_MoonV1Coin.sol:MoonV1Coin",
								"label": "contractAddress",
								"offset": 0,
								"slot": "4",
								"type": "t_address"
							},
							{
								"astId": 1069,
								"contract": "Contracts/Copy_MoonV1Coin.sol:MoonV1Coin",
								"label": "WhitePaperUrl",
								"offset": 0,
								"slot": "5",
								"type": "t_bytes32"
							},
							{
								"astId": 1071,
								"contract": "Contracts/Copy_MoonV1Coin.sol:MoonV1Coin",
								"label": "OfficalWebsite",
								"offset": 0,
								"slot": "6",
								"type": "t_bytes32"
							},
							{
								"astId": 1073,
								"contract": "Contracts/Copy_MoonV1Coin.sol:MoonV1Coin",
								"label": "blockExplorerUrl",
								"offset": 0,
								"slot": "7",
								"type": "t_bytes32"
							},
							{
								"astId": 1075,
								"contract": "Contracts/Copy_MoonV1Coin.sol:MoonV1Coin",
								"label": "marketunlock",
								"offset": 0,
								"slot": "8",
								"type": "t_bool"
							},
							{
								"astId": 1077,
								"contract": "Contracts/Copy_MoonV1Coin.sol:MoonV1Coin",
								"label": "unlock",
								"offset": 1,
								"slot": "8",
								"type": "t_bool"
							},
							{
								"astId": 1079,
								"contract": "Contracts/Copy_MoonV1Coin.sol:MoonV1Coin",
								"label": "creator",
								"offset": 2,
								"slot": "8",
								"type": "t_address"
							},
							{
								"astId": 1081,
								"contract": "Contracts/Copy_MoonV1Coin.sol:MoonV1Coin",
								"label": "isUsed",
								"offset": 22,
								"slot": "8",
								"type": "t_bool"
							}
						],
						"numberOfBytes": "288"
					},
					"t_uint256": {
						"encoding": "inplace",
						"label": "uint256",
						"numberOfBytes": "32"
					},
					"t_uint8": {
						"encoding": "inplace",
						"label": "uint8",
						"numberOfBytes": "1"
					}
				}
			},
			"userdoc": {
				"kind": "user",
				"methods": {
					"addCoinbyMarketor((bytes32,bytes6,uint8,uint8,uint256,uint256,address,bytes32,bytes32,bytes32,bool,bool,address,bool))": {
						"notice": "Explain to an end user what this does"
					}
				},
				"version": 1
			}
		}
	}
}