{
	"Contracts/TTSwapV1Marketor.sol": {
		"TTSwapV1Marketor": {
			"abi": [
				{
					"inputs": [
						{
							"internalType": "address",
							"name": "_marketCreator",
							"type": "address"
						}
					],
					"stateMutability": "nonpayable",
					"type": "constructor"
				},
				{
					"anonymous": false,
					"inputs": [
						{
							"indexed": false,
							"internalType": "address",
							"name": "",
							"type": "address"
						}
					],
					"name": "e_delMarketorByMarketCreator",
					"type": "event"
				},
				{
					"anonymous": false,
					"inputs": [
						{
							"indexed": false,
							"internalType": "address",
							"name": "",
							"type": "address"
						}
					],
					"name": "e_setMarketorByMarketCreator",
					"type": "event"
				},
				{
					"inputs": [
						{
							"internalType": "address",
							"name": "",
							"type": "address"
						}
					],
					"name": "Marketors",
					"outputs": [
						{
							"internalType": "bool",
							"name": "",
							"type": "bool"
						}
					],
					"stateMutability": "view",
					"type": "function"
				},
				{
					"inputs": [
						{
							"internalType": "address",
							"name": "",
							"type": "address"
						}
					],
					"name": "MarketorsNo",
					"outputs": [
						{
							"internalType": "uint128",
							"name": "",
							"type": "uint128"
						}
					],
					"stateMutability": "view",
					"type": "function"
				},
				{
					"inputs": [
						{
							"internalType": "address",
							"name": "_owner",
							"type": "address"
						}
					],
					"name": "delMarketorByMarketCreator",
					"outputs": [],
					"stateMutability": "nonpayable",
					"type": "function"
				},
				{
					"inputs": [],
					"name": "getMarketorNo",
					"outputs": [
						{
							"internalType": "uint128",
							"name": "",
							"type": "uint128"
						}
					],
					"stateMutability": "view",
					"type": "function"
				},
				{
					"inputs": [
						{
							"internalType": "address",
							"name": "_marketorAddress",
							"type": "address"
						}
					],
					"name": "getMarketorNo",
					"outputs": [
						{
							"internalType": "uint128",
							"name": "",
							"type": "uint128"
						}
					],
					"stateMutability": "view",
					"type": "function"
				},
				{
					"inputs": [],
					"name": "getMaxMarketorNo",
					"outputs": [
						{
							"internalType": "uint128",
							"name": "",
							"type": "uint128"
						}
					],
					"stateMutability": "view",
					"type": "function"
				},
				{
					"inputs": [
						{
							"internalType": "address",
							"name": "mkaddress",
							"type": "address"
						}
					],
					"name": "isValidMarketor",
					"outputs": [
						{
							"internalType": "bool",
							"name": "",
							"type": "bool"
						}
					],
					"stateMutability": "view",
					"type": "function"
				},
				{
					"inputs": [],
					"name": "isValidMarketor",
					"outputs": [
						{
							"internalType": "bool",
							"name": "",
							"type": "bool"
						}
					],
					"stateMutability": "view",
					"type": "function"
				},
				{
					"inputs": [],
					"name": "marketCreator",
					"outputs": [
						{
							"internalType": "address",
							"name": "",
							"type": "address"
						}
					],
					"stateMutability": "view",
					"type": "function"
				},
				{
					"inputs": [],
					"name": "maxMarketorNo",
					"outputs": [
						{
							"internalType": "uint128",
							"name": "",
							"type": "uint128"
						}
					],
					"stateMutability": "view",
					"type": "function"
				},
				{
					"inputs": [
						{
							"internalType": "address",
							"name": "_owner",
							"type": "address"
						}
					],
					"name": "setMarketorByMarketCreator",
					"outputs": [],
					"stateMutability": "nonpayable",
					"type": "function"
				}
			],
			"devdoc": {
				"kind": "dev",
				"methods": {
					"delMarketorByMarketCreator(address)": {
						"details": "Explain to a developer any extra details"
					}
				},
				"version": 1
			},
			"evm": {
				"assembly": "    /* \"Contracts/TTSwapV1Marketor.sol\":116:2244  contract TTSwapV1Marketor is ITTSwapV1Marketor {... */\n  mstore(0x40, 0x80)\n    /* \"Contracts/TTSwapV1Marketor.sol\":488:598  constructor(address _marketCreator) {... */\n  callvalue\n  dup1\n  iszero\n  tag_1\n  jumpi\n  0x00\n  dup1\n  revert\ntag_1:\n  pop\n  mload(0x40)\n  sub(codesize, bytecodeSize)\n  dup1\n  bytecodeSize\n  dup4\n  codecopy\n  dup2\n  add\n  0x40\n  dup2\n  swap1\n  mstore\n  tag_2\n  swap2\n  tag_3\n  jump\t// in\ntag_2:\n    /* \"Contracts/TTSwapV1Marketor.sol\":534:547  marketCreator */\n  0x03\n    /* \"Contracts/TTSwapV1Marketor.sol\":534:564  marketCreator = _marketCreator */\n  dup1\n  sload\n  not(sub(shl(0xa0, 0x01), 0x01))\n  and\n  sub(shl(0xa0, 0x01), 0x01)\n  swap3\n  swap1\n  swap3\n  and\n  swap2\n  swap1\n  swap2\n  or\n  swap1\n  sstore\n    /* \"Contracts/TTSwapV1Marketor.sol\":574:587  maxMarketorNo */\n  0x02\n    /* \"Contracts/TTSwapV1Marketor.sol\":574:591  maxMarketorNo = 1 */\n  dup1\n  sload\n  not(sub(shl(0x80, 0x01), 0x01))\n  and\n  0x01\n  or\n  swap1\n  sstore\n    /* \"Contracts/TTSwapV1Marketor.sol\":116:2244  contract TTSwapV1Marketor is ITTSwapV1Marketor {... */\n  jump(tag_7)\n    /* \"#utility.yul\":14:304   */\ntag_3:\n    /* \"#utility.yul\":84:90   */\n  0x00\n    /* \"#utility.yul\":137:139   */\n  0x20\n    /* \"#utility.yul\":125:134   */\n  dup3\n    /* \"#utility.yul\":116:123   */\n  dup5\n    /* \"#utility.yul\":112:135   */\n  sub\n    /* \"#utility.yul\":108:140   */\n  slt\n    /* \"#utility.yul\":105:157   */\n  iszero\n  tag_9\n  jumpi\n    /* \"#utility.yul\":153:154   */\n  0x00\n    /* \"#utility.yul\":150:151   */\n  dup1\n    /* \"#utility.yul\":143:155   */\n  revert\n    /* \"#utility.yul\":105:157   */\ntag_9:\n    /* \"#utility.yul\":179:195   */\n  dup2\n  mload\n  sub(shl(0xa0, 0x01), 0x01)\n    /* \"#utility.yul\":224:255   */\n  dup2\n  and\n    /* \"#utility.yul\":214:256   */\n  dup2\n  eq\n    /* \"#utility.yul\":204:274   */\n  tag_10\n  jumpi\n    /* \"#utility.yul\":270:271   */\n  0x00\n    /* \"#utility.yul\":267:268   */\n  dup1\n    /* \"#utility.yul\":260:272   */\n  revert\n    /* \"#utility.yul\":204:274   */\ntag_10:\n    /* \"#utility.yul\":293:298   */\n  swap4\n    /* \"#utility.yul\":14:304   */\n  swap3\n  pop\n  pop\n  pop\n  jump\t// out\ntag_7:\n    /* \"Contracts/TTSwapV1Marketor.sol\":116:2244  contract TTSwapV1Marketor is ITTSwapV1Marketor {... */\n  dataSize(sub_0)\n  dup1\n  dataOffset(sub_0)\n  0x00\n  codecopy\n  0x00\n  return\nstop\n\nsub_0: assembly {\n        /* \"Contracts/TTSwapV1Marketor.sol\":116:2244  contract TTSwapV1Marketor is ITTSwapV1Marketor {... */\n      mstore(0x40, 0x80)\n      callvalue\n      dup1\n      iszero\n      tag_1\n      jumpi\n      0x00\n      dup1\n      revert\n    tag_1:\n      pop\n      jumpi(tag_2, lt(calldatasize, 0x04))\n      shr(0xe0, calldataload(0x00))\n      dup1\n      0x98ed687b\n      gt\n      tag_14\n      jumpi\n      dup1\n      0x98ed687b\n      eq\n      tag_8\n      jumpi\n      dup1\n      0xace4bf59\n      eq\n      tag_9\n      jumpi\n      dup1\n      0xad87d2ba\n      eq\n      tag_10\n      jumpi\n      dup1\n      0xb4f3824d\n      eq\n      tag_11\n      jumpi\n      dup1\n      0xd6d38c64\n      eq\n      tag_12\n      jumpi\n      dup1\n      0xf5a0da2e\n      eq\n      tag_13\n      jumpi\n      0x00\n      dup1\n      revert\n    tag_14:\n      dup1\n      0x27cbaabe\n      eq\n      tag_3\n      jumpi\n      dup1\n      0x3855cc65\n      eq\n      tag_4\n      jumpi\n      dup1\n      0x42948d54\n      eq\n      tag_5\n      jumpi\n      dup1\n      0x5bffec62\n      eq\n      tag_6\n      jumpi\n      dup1\n      0x71866520\n      eq\n      tag_7\n      jumpi\n    tag_2:\n      0x00\n      dup1\n      revert\n        /* \"Contracts/TTSwapV1Marketor.sol\":434:462  address public marketCreator */\n    tag_3:\n      sload(0x03)\n      tag_15\n      swap1\n      sub(shl(0xa0, 0x01), 0x01)\n      and\n      dup2\n      jump\n    tag_15:\n      mload(0x40)\n      sub(shl(0xa0, 0x01), 0x01)\n        /* \"#utility.yul\":178:210   */\n      swap1\n      swap2\n      and\n        /* \"#utility.yul\":160:211   */\n      dup2\n      mstore\n        /* \"#utility.yul\":148:150   */\n      0x20\n        /* \"#utility.yul\":133:151   */\n      add\n        /* \"Contracts/TTSwapV1Marketor.sol\":434:462  address public marketCreator */\n    tag_17:\n      mload(0x40)\n      dup1\n      swap2\n      sub\n      swap1\n      return\n        /* \"Contracts/TTSwapV1Marketor.sol\":191:232  mapping(address => bool) public Marketors */\n    tag_4:\n      tag_19\n      tag_20\n      calldatasize\n      0x04\n      tag_21\n      jump\t// in\n    tag_20:\n      0x00\n      0x20\n      dup2\n      swap1\n      mstore\n      swap1\n      dup2\n      mstore\n      0x40\n      swap1\n      keccak256\n      sload\n      0xff\n      and\n      dup2\n      jump\n    tag_19:\n      mload(0x40)\n        /* \"#utility.yul\":678:692   */\n      swap1\n      iszero\n        /* \"#utility.yul\":671:693   */\n      iszero\n        /* \"#utility.yul\":653:694   */\n      dup2\n      mstore\n        /* \"#utility.yul\":641:643   */\n      0x20\n        /* \"#utility.yul\":626:644   */\n      add\n        /* \"Contracts/TTSwapV1Marketor.sol\":191:232  mapping(address => bool) public Marketors */\n      tag_17\n        /* \"#utility.yul\":513:700   */\n      jump\n        /* \"Contracts/TTSwapV1Marketor.sol\":372:400  uint128 public maxMarketorNo */\n    tag_5:\n      sload(0x02)\n      tag_25\n      swap1\n      sub(shl(0x80, 0x01), 0x01)\n      and\n      dup2\n      jump\n    tag_25:\n      mload(0x40)\n      sub(shl(0x80, 0x01), 0x01)\n        /* \"#utility.yul\":869:916   */\n      swap1\n      swap2\n      and\n        /* \"#utility.yul\":851:917   */\n      dup2\n      mstore\n        /* \"#utility.yul\":839:841   */\n      0x20\n        /* \"#utility.yul\":824:842   */\n      add\n        /* \"Contracts/TTSwapV1Marketor.sol\":372:400  uint128 public maxMarketorNo */\n      tag_17\n        /* \"#utility.yul\":705:923   */\n      jump\n        /* \"Contracts/TTSwapV1Marketor.sol\":765:1152  function setMarketorByMarketCreator(... */\n    tag_6:\n      tag_29\n      tag_30\n      calldatasize\n      0x04\n      tag_21\n      jump\t// in\n    tag_30:\n      tag_31\n      jump\t// in\n    tag_29:\n      stop\n        /* \"Contracts/TTSwapV1Marketor.sol\":1621:1761  function isValidMarketor(... */\n    tag_7:\n      tag_19\n      tag_33\n      calldatasize\n      0x04\n      tag_21\n      jump\t// in\n    tag_33:\n      sub(shl(0xa0, 0x01), 0x01)\n        /* \"Contracts/TTSwapV1Marketor.sol\":1734:1754  Marketors[mkaddress] */\n      and\n        /* \"Contracts/TTSwapV1Marketor.sol\":1711:1715  bool */\n      0x00\n        /* \"Contracts/TTSwapV1Marketor.sol\":1734:1754  Marketors[mkaddress] */\n      swap1\n      dup2\n      mstore\n      0x20\n      dup2\n      swap1\n      mstore\n      0x40\n      swap1\n      keccak256\n      sload\n      0xff\n      and\n      swap1\n        /* \"Contracts/TTSwapV1Marketor.sol\":1621:1761  function isValidMarketor(... */\n      jump\n        /* \"Contracts/TTSwapV1Marketor.sol\":1807:1911  function getMarketorNo() external view returns (uint128) {... */\n    tag_8:\n        /* \"Contracts/TTSwapV1Marketor.sol\":1893:1903  msg.sender */\n      caller\n        /* \"Contracts/TTSwapV1Marketor.sol\":1855:1862  uint128 */\n      0x00\n        /* \"Contracts/TTSwapV1Marketor.sol\":1881:1904  MarketorsNo[msg.sender] */\n      swap1\n      dup2\n      mstore\n        /* \"Contracts/TTSwapV1Marketor.sol\":1881:1892  MarketorsNo */\n      0x01\n        /* \"Contracts/TTSwapV1Marketor.sol\":1881:1904  MarketorsNo[msg.sender] */\n      0x20\n      mstore\n      0x40\n      swap1\n      keccak256\n      sload\n      sub(shl(0x80, 0x01), 0x01)\n      and\n        /* \"Contracts/TTSwapV1Marketor.sol\":1807:1911  function getMarketorNo() external view returns (uint128) {... */\n      jump(tag_25)\n        /* \"Contracts/TTSwapV1Marketor.sol\":2145:2242  function getMaxMarketorNo() external view returns (uint128) {... */\n    tag_9:\n        /* \"Contracts/TTSwapV1Marketor.sol\":2222:2235  maxMarketorNo */\n      and(sub(shl(0x80, 0x01), 0x01), sload(0x02))\n        /* \"Contracts/TTSwapV1Marketor.sol\":2145:2242  function getMaxMarketorNo() external view returns (uint128) {... */\n      jump(tag_25)\n        /* \"Contracts/TTSwapV1Marketor.sol\":1462:1572  function isValidMarketor() external view override returns (bool) {... */\n    tag_10:\n        /* \"Contracts/TTSwapV1Marketor.sol\":1554:1564  msg.sender */\n      caller\n        /* \"Contracts/TTSwapV1Marketor.sol\":1521:1525  bool */\n      0x00\n        /* \"Contracts/TTSwapV1Marketor.sol\":1544:1565  Marketors[msg.sender] */\n      swap1\n      dup2\n      mstore\n      0x20\n      dup2\n      swap1\n      mstore\n      0x40\n      swap1\n      keccak256\n      sload\n      0xff\n      and\n        /* \"Contracts/TTSwapV1Marketor.sol\":1462:1572  function isValidMarketor() external view override returns (bool) {... */\n      jump(tag_19)\n        /* \"Contracts/TTSwapV1Marketor.sol\":1186:1416  function delMarketorByMarketCreator(... */\n    tag_11:\n      tag_29\n      tag_46\n      calldatasize\n      0x04\n      tag_21\n      jump\t// in\n    tag_46:\n      tag_47\n      jump\t// in\n        /* \"Contracts/TTSwapV1Marketor.sol\":266:312  mapping(address => uint128) public MarketorsNo */\n    tag_12:\n      tag_25\n      tag_49\n      calldatasize\n      0x04\n      tag_21\n      jump\t// in\n    tag_49:\n      mstore(0x20, 0x01)\n      0x00\n      swap1\n      dup2\n      mstore\n      0x40\n      swap1\n      keccak256\n      sload\n      sub(shl(0x80, 0x01), 0x01)\n      and\n      dup2\n      jump\n        /* \"Contracts/TTSwapV1Marketor.sol\":1960:2108  function getMarketorNo(... */\n    tag_13:\n      tag_25\n      tag_53\n      calldatasize\n      0x04\n      tag_21\n      jump\t// in\n    tag_53:\n      sub(shl(0xa0, 0x01), 0x01)\n        /* \"Contracts/TTSwapV1Marketor.sol\":2072:2101  MarketorsNo[_marketorAddress] */\n      and\n        /* \"Contracts/TTSwapV1Marketor.sol\":2046:2053  uint128 */\n      0x00\n        /* \"Contracts/TTSwapV1Marketor.sol\":2072:2101  MarketorsNo[_marketorAddress] */\n      swap1\n      dup2\n      mstore\n        /* \"Contracts/TTSwapV1Marketor.sol\":2072:2083  MarketorsNo */\n      0x01\n        /* \"Contracts/TTSwapV1Marketor.sol\":2072:2101  MarketorsNo[_marketorAddress] */\n      0x20\n      mstore\n      0x40\n      swap1\n      keccak256\n      sload\n      sub(shl(0x80, 0x01), 0x01)\n      and\n      swap1\n        /* \"Contracts/TTSwapV1Marketor.sol\":1960:2108  function getMarketorNo(... */\n      jump\n        /* \"Contracts/TTSwapV1Marketor.sol\":765:1152  function setMarketorByMarketCreator(... */\n    tag_31:\n        /* \"Contracts/TTSwapV1Marketor.sol\":699:712  marketCreator */\n      and(sub(shl(0xa0, 0x01), 0x01), sload(0x03))\n        /* \"Contracts/TTSwapV1Marketor.sol\":685:695  msg.sender */\n      caller\n        /* \"Contracts/TTSwapV1Marketor.sol\":685:712  msg.sender == marketCreator */\n      eq\n        /* \"Contracts/TTSwapV1Marketor.sol\":677:713  require(msg.sender == marketCreator) */\n      tag_57\n      jumpi\n      0x00\n      dup1\n      revert\n    tag_57:\n      sub(shl(0xa0, 0x01), 0x01)\n        /* \"Contracts/TTSwapV1Marketor.sol\":877:894  Marketors[_owner] */\n      dup2\n      and\n        /* \"Contracts/TTSwapV1Marketor.sol\":877:886  Marketors */\n      0x00\n        /* \"Contracts/TTSwapV1Marketor.sol\":877:894  Marketors[_owner] */\n      swap1\n      dup2\n      mstore\n      0x20\n      dup2\n      swap1\n      mstore\n      0x40\n      swap1\n      keccak256\n        /* \"Contracts/TTSwapV1Marketor.sol\":877:901  Marketors[_owner] = true */\n      dup1\n      sload\n      not(0xff)\n      and\n        /* \"Contracts/TTSwapV1Marketor.sol\":897:901  true */\n      0x01\n        /* \"Contracts/TTSwapV1Marketor.sol\":877:901  Marketors[_owner] = true */\n      swap1\n      dup2\n      or\n      swap1\n      swap2\n      sstore\n        /* \"Contracts/TTSwapV1Marketor.sol\":953:966  maxMarketorNo */\n      and(sub(shl(0x80, 0x01), 0x01), sload(0x02))\n      swap1\n        /* \"Contracts/TTSwapV1Marketor.sol\":932:949  maxMarketorNo + 1 */\n      tag_59\n      swap1\n        /* \"Contracts/TTSwapV1Marketor.sol\":953:966  maxMarketorNo */\n      dup3\n      swap1\n        /* \"Contracts/TTSwapV1Marketor.sol\":932:949  maxMarketorNo + 1 */\n      tag_60\n      jump\t// in\n    tag_59:\n      sub(shl(0x80, 0x01), 0x01)\n        /* \"Contracts/TTSwapV1Marketor.sol\":932:966  maxMarketorNo + 1 >= maxMarketorNo */\n      and\n      lt\n      iszero\n        /* \"Contracts/TTSwapV1Marketor.sol\":911:1021  require(... */\n      tag_61\n      jumpi\n      mload(0x40)\n      shl(0xe5, 0x461bcd)\n      dup2\n      mstore\n        /* \"#utility.yul\":1429:1431   */\n      0x20\n        /* \"Contracts/TTSwapV1Marketor.sol\":911:1021  require(... */\n      0x04\n      dup3\n      add\n        /* \"#utility.yul\":1411:1432   */\n      mstore\n        /* \"#utility.yul\":1468:1470   */\n      0x1d\n        /* \"#utility.yul\":1448:1466   */\n      0x24\n      dup3\n      add\n        /* \"#utility.yul\":1441:1471   */\n      mstore\n        /* \"#utility.yul\":1507:1538   */\n      0x6d61784d61726b65746f724e6f20636f6e6e6f7420696e637265617365000000\n        /* \"#utility.yul\":1487:1505   */\n      0x44\n      dup3\n      add\n        /* \"#utility.yul\":1480:1539   */\n      mstore\n        /* \"#utility.yul\":1556:1574   */\n      0x64\n      add\n        /* \"Contracts/TTSwapV1Marketor.sol\":911:1021  require(... */\n      mload(0x40)\n      dup1\n      swap2\n      sub\n      swap1\n      revert\n    tag_61:\n        /* \"Contracts/TTSwapV1Marketor.sol\":1031:1044  maxMarketorNo */\n      0x02\n        /* \"Contracts/TTSwapV1Marketor.sol\":1031:1049  maxMarketorNo += 1 */\n      dup1\n      sload\n        /* \"Contracts/TTSwapV1Marketor.sol\":1048:1049  1 */\n      0x01\n      swap2\n        /* \"Contracts/TTSwapV1Marketor.sol\":1031:1044  maxMarketorNo */\n      swap1\n      0x00\n      swap1\n        /* \"Contracts/TTSwapV1Marketor.sol\":1031:1049  maxMarketorNo += 1 */\n      tag_64\n      swap1\n        /* \"Contracts/TTSwapV1Marketor.sol\":1048:1049  1 */\n      dup5\n      swap1\n      sub(shl(0x80, 0x01), 0x01)\n        /* \"Contracts/TTSwapV1Marketor.sol\":1031:1049  maxMarketorNo += 1 */\n      and\n      tag_60\n      jump\t// in\n    tag_64:\n      dup3\n      sload\n      0x0100\n      swap3\n      swap1\n      swap3\n      exp\n      sub(shl(0x80, 0x01), 0x01)\n      dup2\n      dup2\n      mul\n      not\n      swap1\n      swap4\n      and\n      swap2\n      dup4\n      and\n      mul\n      or\n      swap1\n      swap2\n      sstore\n        /* \"Contracts/TTSwapV1Marketor.sol\":1081:1094  maxMarketorNo */\n      sload(0x02)\n      sub(shl(0xa0, 0x01), 0x01)\n        /* \"Contracts/TTSwapV1Marketor.sol\":1059:1078  MarketorsNo[_owner] */\n      dup5\n      and\n      0x00\n      dup2\n      dup2\n      mstore\n      0x01\n      0x20\n      swap1\n      dup2\n      mstore\n      0x40\n      swap2\n      dup3\n      swap1\n      keccak256\n        /* \"Contracts/TTSwapV1Marketor.sol\":1059:1094  MarketorsNo[_owner] = maxMarketorNo */\n      dup1\n      sload\n        /* \"Contracts/TTSwapV1Marketor.sol\":1081:1094  maxMarketorNo */\n      swap5\n      swap1\n      swap6\n      and\n      not(sub(shl(0x80, 0x01), 0x01))\n        /* \"Contracts/TTSwapV1Marketor.sol\":1059:1094  MarketorsNo[_owner] = maxMarketorNo */\n      swap1\n      swap5\n      and\n      swap4\n      swap1\n      swap4\n      or\n      swap1\n      swap4\n      sstore\n        /* \"Contracts/TTSwapV1Marketor.sol\":1109:1145  e_setMarketorByMarketCreator(_owner) */\n      swap2\n      mload\n        /* \"#utility.yul\":160:211   */\n      swap2\n      dup3\n      mstore\n        /* \"Contracts/TTSwapV1Marketor.sol\":1109:1145  e_setMarketorByMarketCreator(_owner) */\n      0x963cda38749d0d4f4c8845d1f2efc567406beb5d94fd4e2c868ce59bc594c280\n      swap3\n      pop\n        /* \"#utility.yul\":133:151   */\n      add\n        /* \"Contracts/TTSwapV1Marketor.sol\":1109:1145  e_setMarketorByMarketCreator(_owner) */\n    tag_65:\n      mload(0x40)\n      dup1\n      swap2\n      sub\n      swap1\n      log1\n        /* \"Contracts/TTSwapV1Marketor.sol\":765:1152  function setMarketorByMarketCreator(... */\n      pop\n      jump\t// out\n        /* \"Contracts/TTSwapV1Marketor.sol\":1186:1416  function delMarketorByMarketCreator(... */\n    tag_47:\n        /* \"Contracts/TTSwapV1Marketor.sol\":699:712  marketCreator */\n      and(sub(shl(0xa0, 0x01), 0x01), sload(0x03))\n        /* \"Contracts/TTSwapV1Marketor.sol\":685:695  msg.sender */\n      caller\n        /* \"Contracts/TTSwapV1Marketor.sol\":685:712  msg.sender == marketCreator */\n      eq\n        /* \"Contracts/TTSwapV1Marketor.sol\":677:713  require(msg.sender == marketCreator) */\n      tag_71\n      jumpi\n      0x00\n      dup1\n      revert\n    tag_71:\n      sub(shl(0xa0, 0x01), 0x01)\n        /* \"Contracts/TTSwapV1Marketor.sol\":1305:1322  Marketors[_owner] */\n      dup2\n      and\n        /* \"Contracts/TTSwapV1Marketor.sol\":1305:1314  Marketors */\n      0x00\n        /* \"Contracts/TTSwapV1Marketor.sol\":1305:1322  Marketors[_owner] */\n      dup2\n      dup2\n      mstore\n      0x20\n      dup2\n      dup2\n      mstore\n      0x40\n      dup1\n      dup4\n      keccak256\n        /* \"Contracts/TTSwapV1Marketor.sol\":1298:1322  delete Marketors[_owner] */\n      dup1\n      sload\n      not(0xff)\n      and\n      swap1\n      sstore\n      0x01\n        /* \"Contracts/TTSwapV1Marketor.sol\":1339:1358  MarketorsNo[_owner] */\n      dup3\n      mstore\n      swap2\n      dup3\n      swap1\n      keccak256\n        /* \"Contracts/TTSwapV1Marketor.sol\":1332:1358  delete MarketorsNo[_owner] */\n      dup1\n      sload\n      not(sub(shl(0x80, 0x01), 0x01))\n      and\n      swap1\n      sstore\n        /* \"Contracts/TTSwapV1Marketor.sol\":1373:1409  e_delMarketorByMarketCreator(_owner) */\n      swap1\n      mload\n        /* \"#utility.yul\":160:211   */\n      swap2\n      dup3\n      mstore\n        /* \"Contracts/TTSwapV1Marketor.sol\":1373:1409  e_delMarketorByMarketCreator(_owner) */\n      0x0e30dde20bbc2e559ffb88627aaecc60544e541c11bce995480af5f8e3da8b7e\n      swap2\n        /* \"#utility.yul\":133:151   */\n      add\n        /* \"Contracts/TTSwapV1Marketor.sol\":1373:1409  e_delMarketorByMarketCreator(_owner) */\n      tag_65\n        /* \"#utility.yul\":14:217   */\n      jump\n        /* \"#utility.yul\":222:508   */\n    tag_21:\n        /* \"#utility.yul\":281:287   */\n      0x00\n        /* \"#utility.yul\":334:336   */\n      0x20\n        /* \"#utility.yul\":322:331   */\n      dup3\n        /* \"#utility.yul\":313:320   */\n      dup5\n        /* \"#utility.yul\":309:332   */\n      sub\n        /* \"#utility.yul\":305:337   */\n      slt\n        /* \"#utility.yul\":302:354   */\n      iszero\n      tag_78\n      jumpi\n        /* \"#utility.yul\":350:351   */\n      0x00\n        /* \"#utility.yul\":347:348   */\n      dup1\n        /* \"#utility.yul\":340:352   */\n      revert\n        /* \"#utility.yul\":302:354   */\n    tag_78:\n        /* \"#utility.yul\":376:399   */\n      dup2\n      calldataload\n      sub(shl(0xa0, 0x01), 0x01)\n        /* \"#utility.yul\":428:459   */\n      dup2\n      and\n        /* \"#utility.yul\":418:460   */\n      dup2\n      eq\n        /* \"#utility.yul\":408:478   */\n      tag_79\n      jumpi\n        /* \"#utility.yul\":474:475   */\n      0x00\n        /* \"#utility.yul\":471:472   */\n      dup1\n        /* \"#utility.yul\":464:476   */\n      revert\n        /* \"#utility.yul\":408:478   */\n    tag_79:\n        /* \"#utility.yul\":497:502   */\n      swap4\n        /* \"#utility.yul\":222:508   */\n      swap3\n      pop\n      pop\n      pop\n      jump\t// out\n        /* \"#utility.yul\":928:1222   */\n    tag_60:\n      sub(shl(0x80, 0x01), 0x01)\n        /* \"#utility.yul\":1050:1060   */\n      dup2\n      dup2\n      and\n        /* \"#utility.yul\":1062:1072   */\n      dup4\n      dup3\n      and\n        /* \"#utility.yul\":1046:1073   */\n      add\n      swap1\n        /* \"#utility.yul\":1085:1096   */\n      dup1\n      dup3\n      gt\n        /* \"#utility.yul\":1082:1216   */\n      iszero\n      tag_83\n      jumpi\n        /* \"#utility.yul\":1138:1148   */\n      0x4e487b71\n        /* \"#utility.yul\":1133:1136   */\n      0xe0\n        /* \"#utility.yul\":1129:1149   */\n      shl\n        /* \"#utility.yul\":1126:1127   */\n      0x00\n        /* \"#utility.yul\":1119:1150   */\n      mstore\n        /* \"#utility.yul\":1173:1177   */\n      0x11\n        /* \"#utility.yul\":1170:1171   */\n      0x04\n        /* \"#utility.yul\":1163:1178   */\n      mstore\n        /* \"#utility.yul\":1201:1205   */\n      0x24\n        /* \"#utility.yul\":1198:1199   */\n      0x00\n        /* \"#utility.yul\":1191:1206   */\n      revert\n        /* \"#utility.yul\":1082:1216   */\n    tag_83:\n      pop\n        /* \"#utility.yul\":928:1222   */\n      swap3\n      swap2\n      pop\n      pop\n      jump\t// out\n\n    auxdata: 0xa2646970667358221220e94870b75c56c3507c3899e018b5fb8140ecd2ae24dbbf96e746093ea00fb23664736f6c63430008120033\n}\n",
				"bytecode": {
					"linkReferences": {},
					"object": "608060405234801561001057600080fd5b5060405161054a38038061054a83398101604081905261002f91610067565b600380546001600160a01b0319166001600160a01b0392909216919091179055600280546001600160801b0319166001179055610097565b60006020828403121561007957600080fd5b81516001600160a01b038116811461009057600080fd5b9392505050565b6104a4806100a66000396000f3fe608060405234801561001057600080fd5b50600436106100a95760003560e01c806398ed687b1161007157806398ed687b1461017d578063ace4bf591461019b578063ad87d2ba146101ac578063b4f3824d146101c4578063d6d38c64146101d7578063f5a0da2e1461020057600080fd5b806327cbaabe146100ae5780633855cc65146100de57806342948d54146101115780635bffec621461013c5780637186652014610151575b600080fd5b6003546100c1906001600160a01b031681565b6040516001600160a01b0390911681526020015b60405180910390f35b6101016100ec366004610409565b60006020819052908152604090205460ff1681565b60405190151581526020016100d5565b600254610124906001600160801b031681565b6040516001600160801b0390911681526020016100d5565b61014f61014a366004610409565b610232565b005b61010161015f366004610409565b6001600160a01b031660009081526020819052604090205460ff1690565b336000908152600160205260409020546001600160801b0316610124565b6002546001600160801b0316610124565b3360009081526020819052604090205460ff16610101565b61014f6101d2366004610409565b61038e565b6101246101e5366004610409565b6001602052600090815260409020546001600160801b031681565b61012461020e366004610409565b6001600160a01b03166000908152600160205260409020546001600160801b031690565b6003546001600160a01b0316331461024957600080fd5b6001600160a01b0381166000908152602081905260409020805460ff191660019081179091556002546001600160801b031690610287908290610439565b6001600160801b031610156102e25760405162461bcd60e51b815260206004820152601d60248201527f6d61784d61726b65746f724e6f20636f6e6e6f7420696e637265617365000000604482015260640160405180910390fd5b60028054600191906000906103019084906001600160801b0316610439565b82546101009290920a6001600160801b038181021990931691831602179091556002546001600160a01b0384166000818152600160209081526040918290208054949095166001600160801b03199094169390931790935591519182527f963cda38749d0d4f4c8845d1f2efc567406beb5d94fd4e2c868ce59bc594c2809250015b60405180910390a150565b6003546001600160a01b031633146103a557600080fd5b6001600160a01b038116600081815260208181526040808320805460ff19169055600182529182902080546001600160801b031916905590519182527f0e30dde20bbc2e559ffb88627aaecc60544e541c11bce995480af5f8e3da8b7e9101610383565b60006020828403121561041b57600080fd5b81356001600160a01b038116811461043257600080fd5b9392505050565b6001600160801b0381811683821601908082111561046757634e487b7160e01b600052601160045260246000fd5b509291505056fea2646970667358221220e94870b75c56c3507c3899e018b5fb8140ecd2ae24dbbf96e746093ea00fb23664736f6c63430008120033",
					"opcodes": "PUSH1 0x80 PUSH1 0x40 MSTORE CALLVALUE DUP1 ISZERO PUSH2 0x10 JUMPI PUSH1 0x0 DUP1 REVERT JUMPDEST POP PUSH1 0x40 MLOAD PUSH2 0x54A CODESIZE SUB DUP1 PUSH2 0x54A DUP4 CODECOPY DUP2 ADD PUSH1 0x40 DUP2 SWAP1 MSTORE PUSH2 0x2F SWAP2 PUSH2 0x67 JUMP JUMPDEST PUSH1 0x3 DUP1 SLOAD PUSH1 0x1 PUSH1 0x1 PUSH1 0xA0 SHL SUB NOT AND PUSH1 0x1 PUSH1 0x1 PUSH1 0xA0 SHL SUB SWAP3 SWAP1 SWAP3 AND SWAP2 SWAP1 SWAP2 OR SWAP1 SSTORE PUSH1 0x2 DUP1 SLOAD PUSH1 0x1 PUSH1 0x1 PUSH1 0x80 SHL SUB NOT AND PUSH1 0x1 OR SWAP1 SSTORE PUSH2 0x97 JUMP JUMPDEST PUSH1 0x0 PUSH1 0x20 DUP3 DUP5 SUB SLT ISZERO PUSH2 0x79 JUMPI PUSH1 0x0 DUP1 REVERT JUMPDEST DUP2 MLOAD PUSH1 0x1 PUSH1 0x1 PUSH1 0xA0 SHL SUB DUP2 AND DUP2 EQ PUSH2 0x90 JUMPI PUSH1 0x0 DUP1 REVERT JUMPDEST SWAP4 SWAP3 POP POP POP JUMP JUMPDEST PUSH2 0x4A4 DUP1 PUSH2 0xA6 PUSH1 0x0 CODECOPY PUSH1 0x0 RETURN INVALID PUSH1 0x80 PUSH1 0x40 MSTORE CALLVALUE DUP1 ISZERO PUSH2 0x10 JUMPI PUSH1 0x0 DUP1 REVERT JUMPDEST POP PUSH1 0x4 CALLDATASIZE LT PUSH2 0xA9 JUMPI PUSH1 0x0 CALLDATALOAD PUSH1 0xE0 SHR DUP1 PUSH4 0x98ED687B GT PUSH2 0x71 JUMPI DUP1 PUSH4 0x98ED687B EQ PUSH2 0x17D JUMPI DUP1 PUSH4 0xACE4BF59 EQ PUSH2 0x19B JUMPI DUP1 PUSH4 0xAD87D2BA EQ PUSH2 0x1AC JUMPI DUP1 PUSH4 0xB4F3824D EQ PUSH2 0x1C4 JUMPI DUP1 PUSH4 0xD6D38C64 EQ PUSH2 0x1D7 JUMPI DUP1 PUSH4 0xF5A0DA2E EQ PUSH2 0x200 JUMPI PUSH1 0x0 DUP1 REVERT JUMPDEST DUP1 PUSH4 0x27CBAABE EQ PUSH2 0xAE JUMPI DUP1 PUSH4 0x3855CC65 EQ PUSH2 0xDE JUMPI DUP1 PUSH4 0x42948D54 EQ PUSH2 0x111 JUMPI DUP1 PUSH4 0x5BFFEC62 EQ PUSH2 0x13C JUMPI DUP1 PUSH4 0x71866520 EQ PUSH2 0x151 JUMPI JUMPDEST PUSH1 0x0 DUP1 REVERT JUMPDEST PUSH1 0x3 SLOAD PUSH2 0xC1 SWAP1 PUSH1 0x1 PUSH1 0x1 PUSH1 0xA0 SHL SUB AND DUP2 JUMP JUMPDEST PUSH1 0x40 MLOAD PUSH1 0x1 PUSH1 0x1 PUSH1 0xA0 SHL SUB SWAP1 SWAP2 AND DUP2 MSTORE PUSH1 0x20 ADD JUMPDEST PUSH1 0x40 MLOAD DUP1 SWAP2 SUB SWAP1 RETURN JUMPDEST PUSH2 0x101 PUSH2 0xEC CALLDATASIZE PUSH1 0x4 PUSH2 0x409 JUMP JUMPDEST PUSH1 0x0 PUSH1 0x20 DUP2 SWAP1 MSTORE SWAP1 DUP2 MSTORE PUSH1 0x40 SWAP1 KECCAK256 SLOAD PUSH1 0xFF AND DUP2 JUMP JUMPDEST PUSH1 0x40 MLOAD SWAP1 ISZERO ISZERO DUP2 MSTORE PUSH1 0x20 ADD PUSH2 0xD5 JUMP JUMPDEST PUSH1 0x2 SLOAD PUSH2 0x124 SWAP1 PUSH1 0x1 PUSH1 0x1 PUSH1 0x80 SHL SUB AND DUP2 JUMP JUMPDEST PUSH1 0x40 MLOAD PUSH1 0x1 PUSH1 0x1 PUSH1 0x80 SHL SUB SWAP1 SWAP2 AND DUP2 MSTORE PUSH1 0x20 ADD PUSH2 0xD5 JUMP JUMPDEST PUSH2 0x14F PUSH2 0x14A CALLDATASIZE PUSH1 0x4 PUSH2 0x409 JUMP JUMPDEST PUSH2 0x232 JUMP JUMPDEST STOP JUMPDEST PUSH2 0x101 PUSH2 0x15F CALLDATASIZE PUSH1 0x4 PUSH2 0x409 JUMP JUMPDEST PUSH1 0x1 PUSH1 0x1 PUSH1 0xA0 SHL SUB AND PUSH1 0x0 SWAP1 DUP2 MSTORE PUSH1 0x20 DUP2 SWAP1 MSTORE PUSH1 0x40 SWAP1 KECCAK256 SLOAD PUSH1 0xFF AND SWAP1 JUMP JUMPDEST CALLER PUSH1 0x0 SWAP1 DUP2 MSTORE PUSH1 0x1 PUSH1 0x20 MSTORE PUSH1 0x40 SWAP1 KECCAK256 SLOAD PUSH1 0x1 PUSH1 0x1 PUSH1 0x80 SHL SUB AND PUSH2 0x124 JUMP JUMPDEST PUSH1 0x2 SLOAD PUSH1 0x1 PUSH1 0x1 PUSH1 0x80 SHL SUB AND PUSH2 0x124 JUMP JUMPDEST CALLER PUSH1 0x0 SWAP1 DUP2 MSTORE PUSH1 0x20 DUP2 SWAP1 MSTORE PUSH1 0x40 SWAP1 KECCAK256 SLOAD PUSH1 0xFF AND PUSH2 0x101 JUMP JUMPDEST PUSH2 0x14F PUSH2 0x1D2 CALLDATASIZE PUSH1 0x4 PUSH2 0x409 JUMP JUMPDEST PUSH2 0x38E JUMP JUMPDEST PUSH2 0x124 PUSH2 0x1E5 CALLDATASIZE PUSH1 0x4 PUSH2 0x409 JUMP JUMPDEST PUSH1 0x1 PUSH1 0x20 MSTORE PUSH1 0x0 SWAP1 DUP2 MSTORE PUSH1 0x40 SWAP1 KECCAK256 SLOAD PUSH1 0x1 PUSH1 0x1 PUSH1 0x80 SHL SUB AND DUP2 JUMP JUMPDEST PUSH2 0x124 PUSH2 0x20E CALLDATASIZE PUSH1 0x4 PUSH2 0x409 JUMP JUMPDEST PUSH1 0x1 PUSH1 0x1 PUSH1 0xA0 SHL SUB AND PUSH1 0x0 SWAP1 DUP2 MSTORE PUSH1 0x1 PUSH1 0x20 MSTORE PUSH1 0x40 SWAP1 KECCAK256 SLOAD PUSH1 0x1 PUSH1 0x1 PUSH1 0x80 SHL SUB AND SWAP1 JUMP JUMPDEST PUSH1 0x3 SLOAD PUSH1 0x1 PUSH1 0x1 PUSH1 0xA0 SHL SUB AND CALLER EQ PUSH2 0x249 JUMPI PUSH1 0x0 DUP1 REVERT JUMPDEST PUSH1 0x1 PUSH1 0x1 PUSH1 0xA0 SHL SUB DUP2 AND PUSH1 0x0 SWAP1 DUP2 MSTORE PUSH1 0x20 DUP2 SWAP1 MSTORE PUSH1 0x40 SWAP1 KECCAK256 DUP1 SLOAD PUSH1 0xFF NOT AND PUSH1 0x1 SWAP1 DUP2 OR SWAP1 SWAP2 SSTORE PUSH1 0x2 SLOAD PUSH1 0x1 PUSH1 0x1 PUSH1 0x80 SHL SUB AND SWAP1 PUSH2 0x287 SWAP1 DUP3 SWAP1 PUSH2 0x439 JUMP JUMPDEST PUSH1 0x1 PUSH1 0x1 PUSH1 0x80 SHL SUB AND LT ISZERO PUSH2 0x2E2 JUMPI PUSH1 0x40 MLOAD PUSH3 0x461BCD PUSH1 0xE5 SHL DUP2 MSTORE PUSH1 0x20 PUSH1 0x4 DUP3 ADD MSTORE PUSH1 0x1D PUSH1 0x24 DUP3 ADD MSTORE PUSH32 0x6D61784D61726B65746F724E6F20636F6E6E6F7420696E637265617365000000 PUSH1 0x44 DUP3 ADD MSTORE PUSH1 0x64 ADD PUSH1 0x40 MLOAD DUP1 SWAP2 SUB SWAP1 REVERT JUMPDEST PUSH1 0x2 DUP1 SLOAD PUSH1 0x1 SWAP2 SWAP1 PUSH1 0x0 SWAP1 PUSH2 0x301 SWAP1 DUP5 SWAP1 PUSH1 0x1 PUSH1 0x1 PUSH1 0x80 SHL SUB AND PUSH2 0x439 JUMP JUMPDEST DUP3 SLOAD PUSH2 0x100 SWAP3 SWAP1 SWAP3 EXP PUSH1 0x1 PUSH1 0x1 PUSH1 0x80 SHL SUB DUP2 DUP2 MUL NOT SWAP1 SWAP4 AND SWAP2 DUP4 AND MUL OR SWAP1 SWAP2 SSTORE PUSH1 0x2 SLOAD PUSH1 0x1 PUSH1 0x1 PUSH1 0xA0 SHL SUB DUP5 AND PUSH1 0x0 DUP2 DUP2 MSTORE PUSH1 0x1 PUSH1 0x20 SWAP1 DUP2 MSTORE PUSH1 0x40 SWAP2 DUP3 SWAP1 KECCAK256 DUP1 SLOAD SWAP5 SWAP1 SWAP6 AND PUSH1 0x1 PUSH1 0x1 PUSH1 0x80 SHL SUB NOT SWAP1 SWAP5 AND SWAP4 SWAP1 SWAP4 OR SWAP1 SWAP4 SSTORE SWAP2 MLOAD SWAP2 DUP3 MSTORE PUSH32 0x963CDA38749D0D4F4C8845D1F2EFC567406BEB5D94FD4E2C868CE59BC594C280 SWAP3 POP ADD JUMPDEST PUSH1 0x40 MLOAD DUP1 SWAP2 SUB SWAP1 LOG1 POP JUMP JUMPDEST PUSH1 0x3 SLOAD PUSH1 0x1 PUSH1 0x1 PUSH1 0xA0 SHL SUB AND CALLER EQ PUSH2 0x3A5 JUMPI PUSH1 0x0 DUP1 REVERT JUMPDEST PUSH1 0x1 PUSH1 0x1 PUSH1 0xA0 SHL SUB DUP2 AND PUSH1 0x0 DUP2 DUP2 MSTORE PUSH1 0x20 DUP2 DUP2 MSTORE PUSH1 0x40 DUP1 DUP4 KECCAK256 DUP1 SLOAD PUSH1 0xFF NOT AND SWAP1 SSTORE PUSH1 0x1 DUP3 MSTORE SWAP2 DUP3 SWAP1 KECCAK256 DUP1 SLOAD PUSH1 0x1 PUSH1 0x1 PUSH1 0x80 SHL SUB NOT AND SWAP1 SSTORE SWAP1 MLOAD SWAP2 DUP3 MSTORE PUSH32 0xE30DDE20BBC2E559FFB88627AAECC60544E541C11BCE995480AF5F8E3DA8B7E SWAP2 ADD PUSH2 0x383 JUMP JUMPDEST PUSH1 0x0 PUSH1 0x20 DUP3 DUP5 SUB SLT ISZERO PUSH2 0x41B JUMPI PUSH1 0x0 DUP1 REVERT JUMPDEST DUP2 CALLDATALOAD PUSH1 0x1 PUSH1 0x1 PUSH1 0xA0 SHL SUB DUP2 AND DUP2 EQ PUSH2 0x432 JUMPI PUSH1 0x0 DUP1 REVERT JUMPDEST SWAP4 SWAP3 POP POP POP JUMP JUMPDEST PUSH1 0x1 PUSH1 0x1 PUSH1 0x80 SHL SUB DUP2 DUP2 AND DUP4 DUP3 AND ADD SWAP1 DUP1 DUP3 GT ISZERO PUSH2 0x467 JUMPI PUSH4 0x4E487B71 PUSH1 0xE0 SHL PUSH1 0x0 MSTORE PUSH1 0x11 PUSH1 0x4 MSTORE PUSH1 0x24 PUSH1 0x0 REVERT JUMPDEST POP SWAP3 SWAP2 POP POP JUMP INVALID LOG2 PUSH5 0x6970667358 0x22 SLT KECCAK256 0xE9 BASEFEE PUSH17 0xB75C56C3507C3899E018B5FB8140ECD2AE 0x24 0xDB 0xBF SWAP7 0xE7 CHAINID MULMOD RETURNDATACOPY LOG0 0xF 0xB2 CALLDATASIZE PUSH5 0x736F6C6343 STOP ADDMOD SLT STOP CALLER "
				},
				"gasEstimates": {
					"creation": {
						"codeDepositCost": "237600",
						"executionCost": "infinite",
						"totalCost": "infinite"
					},
					"external": {
						"Marketors(address)": "2522",
						"MarketorsNo(address)": "2611",
						"delMarketorByMarketCreator(address)": "52139",
						"getMarketorNo()": "2399",
						"getMarketorNo(address)": "2651",
						"getMaxMarketorNo()": "2353",
						"isValidMarketor()": "2419",
						"isValidMarketor(address)": "2606",
						"marketCreator()": "2327",
						"maxMarketorNo()": "2382",
						"setMarketorByMarketCreator(address)": "infinite"
					}
				},
				"methodIdentifiers": {
					"Marketors(address)": "3855cc65",
					"MarketorsNo(address)": "d6d38c64",
					"delMarketorByMarketCreator(address)": "b4f3824d",
					"getMarketorNo()": "98ed687b",
					"getMarketorNo(address)": "f5a0da2e",
					"getMaxMarketorNo()": "ace4bf59",
					"isValidMarketor()": "ad87d2ba",
					"isValidMarketor(address)": "71866520",
					"marketCreator()": "27cbaabe",
					"maxMarketorNo()": "42948d54",
					"setMarketorByMarketCreator(address)": "5bffec62"
				}
			},
			"storageLayout": {
				"storage": [
					{
						"astId": 8,
						"contract": "Contracts/TTSwapV1Marketor.sol:TTSwapV1Marketor",
						"label": "Marketors",
						"offset": 0,
						"slot": "0",
						"type": "t_mapping(t_address,t_bool)"
					},
					{
						"astId": 12,
						"contract": "Contracts/TTSwapV1Marketor.sol:TTSwapV1Marketor",
						"label": "MarketorsNo",
						"offset": 0,
						"slot": "1",
						"type": "t_mapping(t_address,t_uint128)"
					},
					{
						"astId": 14,
						"contract": "Contracts/TTSwapV1Marketor.sol:TTSwapV1Marketor",
						"label": "maxMarketorNo",
						"offset": 0,
						"slot": "2",
						"type": "t_uint128"
					},
					{
						"astId": 16,
						"contract": "Contracts/TTSwapV1Marketor.sol:TTSwapV1Marketor",
						"label": "marketCreator",
						"offset": 0,
						"slot": "3",
						"type": "t_address"
					}
				],
				"types": {
					"t_address": {
						"encoding": "inplace",
						"label": "address",
						"numberOfBytes": "20"
					},
					"t_bool": {
						"encoding": "inplace",
						"label": "bool",
						"numberOfBytes": "1"
					},
					"t_mapping(t_address,t_bool)": {
						"encoding": "mapping",
						"key": "t_address",
						"label": "mapping(address => bool)",
						"numberOfBytes": "32",
						"value": "t_bool"
					},
					"t_mapping(t_address,t_uint128)": {
						"encoding": "mapping",
						"key": "t_address",
						"label": "mapping(address => uint128)",
						"numberOfBytes": "32",
						"value": "t_uint128"
					},
					"t_uint128": {
						"encoding": "inplace",
						"label": "uint128",
						"numberOfBytes": "16"
					}
				}
			},
			"userdoc": {
				"kind": "user",
				"methods": {
					"delMarketorByMarketCreator(address)": {
						"notice": "Explain to an end user what this does"
					}
				},
				"version": 1
			}
		}
	}
}