{
	"Contracts/TTSwapV1Customer.sol": {
		"TTSwapV1Customer": {
			"abi": [
				{
					"inputs": [
						{
							"internalType": "address",
							"name": "_gatorContractAddress",
							"type": "address"
						},
						{
							"internalType": "address",
							"name": "_marketorContractAddress",
							"type": "address"
						}
					],
					"stateMutability": "nonpayable",
					"type": "constructor"
				},
				{
					"inputs": [
						{
							"components": [
								{
									"internalType": "bytes32",
									"name": "neckname",
									"type": "bytes32"
								},
								{
									"internalType": "uint32",
									"name": "createtimestamp",
									"type": "uint32"
								},
								{
									"internalType": "address",
									"name": "recommender",
									"type": "address"
								},
								{
									"internalType": "uint40",
									"name": "customerKey",
									"type": "uint40"
								},
								{
									"internalType": "address",
									"name": "Gater",
									"type": "address"
								},
								{
									"internalType": "uint32",
									"name": "GaterKey",
									"type": "uint32"
								},
								{
									"internalType": "address",
									"name": "contractAddress",
									"type": "address"
								},
								{
									"internalType": "bool",
									"name": "isUsed",
									"type": "bool"
								},
								{
									"internalType": "bool",
									"name": "unlock",
									"type": "bool"
								}
							],
							"internalType": "struct LCustomer.Info",
							"name": "_customer",
							"type": "tuple"
						}
					],
					"name": "addCustomer",
					"outputs": [],
					"stateMutability": "nonpayable",
					"type": "function"
				},
				{
					"inputs": [
						{
							"components": [
								{
									"internalType": "bytes32",
									"name": "neckname",
									"type": "bytes32"
								},
								{
									"internalType": "uint32",
									"name": "createtimestamp",
									"type": "uint32"
								},
								{
									"internalType": "address",
									"name": "recommender",
									"type": "address"
								},
								{
									"internalType": "uint40",
									"name": "customerKey",
									"type": "uint40"
								},
								{
									"internalType": "address",
									"name": "Gater",
									"type": "address"
								},
								{
									"internalType": "uint32",
									"name": "GaterKey",
									"type": "uint32"
								},
								{
									"internalType": "address",
									"name": "contractAddress",
									"type": "address"
								},
								{
									"internalType": "bool",
									"name": "isUsed",
									"type": "bool"
								},
								{
									"internalType": "bool",
									"name": "unlock",
									"type": "bool"
								}
							],
							"internalType": "struct LCustomer.Info",
							"name": "_customer",
							"type": "tuple"
						},
						{
							"internalType": "address",
							"name": "_gator",
							"type": "address"
						}
					],
					"name": "addCustomer",
					"outputs": [],
					"stateMutability": "nonpayable",
					"type": "function"
				},
				{
					"inputs": [
						{
							"internalType": "uint40",
							"name": "_recommanderUnikey",
							"type": "uint40"
						}
					],
					"name": "addRelation",
					"outputs": [],
					"stateMutability": "nonpayable",
					"type": "function"
				},
				{
					"inputs": [
						{
							"internalType": "address",
							"name": "",
							"type": "address"
						}
					],
					"name": "customerList",
					"outputs": [
						{
							"internalType": "bytes32",
							"name": "neckname",
							"type": "bytes32"
						},
						{
							"internalType": "uint32",
							"name": "createtimestamp",
							"type": "uint32"
						},
						{
							"internalType": "address",
							"name": "recommender",
							"type": "address"
						},
						{
							"internalType": "uint40",
							"name": "customerKey",
							"type": "uint40"
						},
						{
							"internalType": "address",
							"name": "Gater",
							"type": "address"
						},
						{
							"internalType": "uint32",
							"name": "GaterKey",
							"type": "uint32"
						},
						{
							"internalType": "address",
							"name": "contractAddress",
							"type": "address"
						},
						{
							"internalType": "bool",
							"name": "isUsed",
							"type": "bool"
						},
						{
							"internalType": "bool",
							"name": "unlock",
							"type": "bool"
						}
					],
					"stateMutability": "view",
					"type": "function"
				},
				{
					"inputs": [
						{
							"internalType": "uint40",
							"name": "",
							"type": "uint40"
						}
					],
					"name": "customerUniKey",
					"outputs": [
						{
							"internalType": "address",
							"name": "",
							"type": "address"
						}
					],
					"stateMutability": "view",
					"type": "function"
				},
				{
					"inputs": [],
					"name": "customerUniNextKey",
					"outputs": [
						{
							"internalType": "uint40",
							"name": "",
							"type": "uint40"
						}
					],
					"stateMutability": "view",
					"type": "function"
				},
				{
					"inputs": [
						{
							"internalType": "address",
							"name": "",
							"type": "address"
						},
						{
							"internalType": "uint32",
							"name": "",
							"type": "uint32"
						}
					],
					"name": "gateCustomerList",
					"outputs": [
						{
							"internalType": "address",
							"name": "",
							"type": "address"
						}
					],
					"stateMutability": "view",
					"type": "function"
				},
				{
					"inputs": [
						{
							"internalType": "address",
							"name": "",
							"type": "address"
						}
					],
					"name": "gateCustomerNextKey",
					"outputs": [
						{
							"internalType": "uint32",
							"name": "",
							"type": "uint32"
						}
					],
					"stateMutability": "view",
					"type": "function"
				},
				{
					"inputs": [],
					"name": "gatorContractAddress",
					"outputs": [
						{
							"internalType": "address",
							"name": "",
							"type": "address"
						}
					],
					"stateMutability": "view",
					"type": "function"
				},
				{
					"inputs": [
						{
							"internalType": "address",
							"name": "_CustomerAddress",
							"type": "address"
						}
					],
					"name": "getCustomer",
					"outputs": [
						{
							"components": [
								{
									"internalType": "bytes32",
									"name": "neckname",
									"type": "bytes32"
								},
								{
									"internalType": "uint32",
									"name": "createtimestamp",
									"type": "uint32"
								},
								{
									"internalType": "address",
									"name": "recommender",
									"type": "address"
								},
								{
									"internalType": "uint40",
									"name": "customerKey",
									"type": "uint40"
								},
								{
									"internalType": "address",
									"name": "Gater",
									"type": "address"
								},
								{
									"internalType": "uint32",
									"name": "GaterKey",
									"type": "uint32"
								},
								{
									"internalType": "address",
									"name": "contractAddress",
									"type": "address"
								},
								{
									"internalType": "bool",
									"name": "isUsed",
									"type": "bool"
								},
								{
									"internalType": "bool",
									"name": "unlock",
									"type": "bool"
								}
							],
							"internalType": "struct LCustomer.Info",
							"name": "",
							"type": "tuple"
						}
					],
					"stateMutability": "view",
					"type": "function"
				},
				{
					"inputs": [
						{
							"internalType": "address",
							"name": "_recommander",
							"type": "address"
						},
						{
							"internalType": "uint32",
							"name": "_cumstomerindex",
							"type": "uint32"
						}
					],
					"name": "getCustomerInfobyRecommander",
					"outputs": [
						{
							"internalType": "address",
							"name": "",
							"type": "address"
						}
					],
					"stateMutability": "view",
					"type": "function"
				},
				{
					"inputs": [
						{
							"internalType": "address",
							"name": "_recommander",
							"type": "address"
						}
					],
					"name": "getCustomerNumbyRecommander",
					"outputs": [
						{
							"internalType": "uint32",
							"name": "",
							"type": "uint32"
						}
					],
					"stateMutability": "view",
					"type": "function"
				},
				{
					"inputs": [
						{
							"internalType": "address",
							"name": "_customer",
							"type": "address"
						}
					],
					"name": "getCustomerRecommander",
					"outputs": [
						{
							"internalType": "address",
							"name": "",
							"type": "address"
						}
					],
					"stateMutability": "view",
					"type": "function"
				},
				{
					"inputs": [
						{
							"internalType": "address",
							"name": "_CustomerAddress",
							"type": "address"
						}
					],
					"name": "isValidCustomer",
					"outputs": [
						{
							"internalType": "bool",
							"name": "",
							"type": "bool"
						}
					],
					"stateMutability": "view",
					"type": "function"
				},
				{
					"inputs": [
						{
							"internalType": "address",
							"name": "_CustomerAddress",
							"type": "address"
						}
					],
					"name": "lockCustomerbyMarketor",
					"outputs": [],
					"stateMutability": "nonpayable",
					"type": "function"
				},
				{
					"inputs": [],
					"name": "marketorContractAddress",
					"outputs": [
						{
							"internalType": "address",
							"name": "",
							"type": "address"
						}
					],
					"stateMutability": "view",
					"type": "function"
				},
				{
					"inputs": [
						{
							"internalType": "address",
							"name": "",
							"type": "address"
						}
					],
					"name": "recommenderraltionkey",
					"outputs": [
						{
							"internalType": "uint32",
							"name": "",
							"type": "uint32"
						}
					],
					"stateMutability": "view",
					"type": "function"
				},
				{
					"inputs": [
						{
							"internalType": "address",
							"name": "",
							"type": "address"
						},
						{
							"internalType": "uint32",
							"name": "",
							"type": "uint32"
						}
					],
					"name": "recommenderraltionlist",
					"outputs": [
						{
							"internalType": "address",
							"name": "",
							"type": "address"
						}
					],
					"stateMutability": "view",
					"type": "function"
				},
				{
					"inputs": [
						{
							"internalType": "address",
							"name": "_CustomerAddress",
							"type": "address"
						}
					],
					"name": "unlockCustomerbyMarketor",
					"outputs": [],
					"stateMutability": "nonpayable",
					"type": "function"
				},
				{
					"inputs": [
						{
							"internalType": "bytes32",
							"name": "_newname",
							"type": "bytes32"
						}
					],
					"name": "updateCustomerNeckName",
					"outputs": [],
					"stateMutability": "nonpayable",
					"type": "function"
				}
			],
			"devdoc": {
				"kind": "dev",
				"methods": {},
				"stateVariables": {
					"gatorContractAddress": {
						"return": "The contract address",
						"returns": {
							"_0": "The contract address"
						}
					},
					"marketorContractAddress": {
						"return": "The contract address",
						"returns": {
							"_0": "The contract address"
						}
					}
				},
				"version": 1
			},
			"evm": {
				"assembly": "    /* \"Contracts/TTSwapV1Customer.sol\":257:6249  contract TTSwapV1Customer is ITTSwapV1Customer {... */\n  mstore(0x40, 0xc0)\n    /* \"Contracts/TTSwapV1Customer.sol\":1437:1639  constructor(address _gatorContractAddress, address _marketorContractAddress)... */\n  callvalue\n  dup1\n  iszero\n  tag_1\n  jumpi\n  0x00\n  dup1\n  revert\ntag_1:\n  pop\n  mload(0x40)\n  sub(codesize, bytecodeSize)\n  dup1\n  bytecodeSize\n  dup4\n  codecopy\n  dup2\n  dup2\n  add\n  0x40\n  mstore\n  dup2\n  add\n  swap1\n  tag_2\n  swap2\n  swap1\n  tag_3\n  jump\t// in\ntag_2:\n    /* \"Contracts/TTSwapV1Customer.sol\":1551:1572  _gatorContractAddress */\n  dup2\n    /* \"Contracts/TTSwapV1Customer.sol\":1528:1572  gatorContractAddress = _gatorContractAddress */\n  0xffffffffffffffffffffffffffffffffffffffff\n  and\n  0x80\n  dup2\n  0xffffffffffffffffffffffffffffffffffffffff\n  and\n  dup2\n  mstore\n  pop\n  pop\n    /* \"Contracts/TTSwapV1Customer.sol\":1608:1632  _marketorContractAddress */\n  dup1\n    /* \"Contracts/TTSwapV1Customer.sol\":1582:1632  marketorContractAddress = _marketorContractAddress */\n  0xffffffffffffffffffffffffffffffffffffffff\n  and\n  0xa0\n  dup2\n  0xffffffffffffffffffffffffffffffffffffffff\n  and\n  dup2\n  mstore\n  pop\n  pop\n    /* \"Contracts/TTSwapV1Customer.sol\":1437:1639  constructor(address _gatorContractAddress, address _marketorContractAddress)... */\n  pop\n  pop\n    /* \"Contracts/TTSwapV1Customer.sol\":257:6249  contract TTSwapV1Customer is ITTSwapV1Customer {... */\n  jump(tag_6)\n    /* \"#utility.yul\":88:205   */\ntag_8:\n    /* \"#utility.yul\":197:198   */\n  0x00\n    /* \"#utility.yul\":194:195   */\n  dup1\n    /* \"#utility.yul\":187:199   */\n  revert\n    /* \"#utility.yul\":334:460   */\ntag_10:\n    /* \"#utility.yul\":371:378   */\n  0x00\n    /* \"#utility.yul\":411:453   */\n  0xffffffffffffffffffffffffffffffffffffffff\n    /* \"#utility.yul\":404:409   */\n  dup3\n    /* \"#utility.yul\":400:454   */\n  and\n    /* \"#utility.yul\":389:454   */\n  swap1\n  pop\n    /* \"#utility.yul\":334:460   */\n  swap2\n  swap1\n  pop\n  jump\t// out\n    /* \"#utility.yul\":466:562   */\ntag_11:\n    /* \"#utility.yul\":503:510   */\n  0x00\n    /* \"#utility.yul\":532:556   */\n  tag_20\n    /* \"#utility.yul\":550:555   */\n  dup3\n    /* \"#utility.yul\":532:556   */\n  tag_10\n  jump\t// in\ntag_20:\n    /* \"#utility.yul\":521:556   */\n  swap1\n  pop\n    /* \"#utility.yul\":466:562   */\n  swap2\n  swap1\n  pop\n  jump\t// out\n    /* \"#utility.yul\":568:690   */\ntag_12:\n    /* \"#utility.yul\":641:665   */\n  tag_22\n    /* \"#utility.yul\":659:664   */\n  dup2\n    /* \"#utility.yul\":641:665   */\n  tag_11\n  jump\t// in\ntag_22:\n    /* \"#utility.yul\":634:639   */\n  dup2\n    /* \"#utility.yul\":631:666   */\n  eq\n    /* \"#utility.yul\":621:684   */\n  tag_23\n  jumpi\n    /* \"#utility.yul\":680:681   */\n  0x00\n    /* \"#utility.yul\":677:678   */\n  dup1\n    /* \"#utility.yul\":670:682   */\n  revert\n    /* \"#utility.yul\":621:684   */\ntag_23:\n    /* \"#utility.yul\":568:690   */\n  pop\n  jump\t// out\n    /* \"#utility.yul\":696:839   */\ntag_13:\n    /* \"#utility.yul\":753:758   */\n  0x00\n    /* \"#utility.yul\":784:790   */\n  dup2\n    /* \"#utility.yul\":778:791   */\n  mload\n    /* \"#utility.yul\":769:791   */\n  swap1\n  pop\n    /* \"#utility.yul\":800:833   */\n  tag_25\n    /* \"#utility.yul\":827:832   */\n  dup2\n    /* \"#utility.yul\":800:833   */\n  tag_12\n  jump\t// in\ntag_25:\n    /* \"#utility.yul\":696:839   */\n  swap3\n  swap2\n  pop\n  pop\n  jump\t// out\n    /* \"#utility.yul\":845:1352   */\ntag_3:\n    /* \"#utility.yul\":924:930   */\n  0x00\n    /* \"#utility.yul\":932:938   */\n  dup1\n    /* \"#utility.yul\":981:983   */\n  0x40\n    /* \"#utility.yul\":969:978   */\n  dup4\n    /* \"#utility.yul\":960:967   */\n  dup6\n    /* \"#utility.yul\":956:979   */\n  sub\n    /* \"#utility.yul\":952:984   */\n  slt\n    /* \"#utility.yul\":949:1068   */\n  iszero\n  tag_27\n  jumpi\n    /* \"#utility.yul\":987:1066   */\n  tag_28\n  tag_8\n  jump\t// in\ntag_28:\n    /* \"#utility.yul\":949:1068   */\ntag_27:\n    /* \"#utility.yul\":1107:1108   */\n  0x00\n    /* \"#utility.yul\":1132:1196   */\n  tag_29\n    /* \"#utility.yul\":1188:1195   */\n  dup6\n    /* \"#utility.yul\":1179:1185   */\n  dup3\n    /* \"#utility.yul\":1168:1177   */\n  dup7\n    /* \"#utility.yul\":1164:1186   */\n  add\n    /* \"#utility.yul\":1132:1196   */\n  tag_13\n  jump\t// in\ntag_29:\n    /* \"#utility.yul\":1122:1196   */\n  swap3\n  pop\n    /* \"#utility.yul\":1078:1206   */\n  pop\n    /* \"#utility.yul\":1245:1247   */\n  0x20\n    /* \"#utility.yul\":1271:1335   */\n  tag_30\n    /* \"#utility.yul\":1327:1334   */\n  dup6\n    /* \"#utility.yul\":1318:1324   */\n  dup3\n    /* \"#utility.yul\":1307:1316   */\n  dup7\n    /* \"#utility.yul\":1303:1325   */\n  add\n    /* \"#utility.yul\":1271:1335   */\n  tag_13\n  jump\t// in\ntag_30:\n    /* \"#utility.yul\":1261:1335   */\n  swap2\n  pop\n    /* \"#utility.yul\":1216:1345   */\n  pop\n    /* \"#utility.yul\":845:1352   */\n  swap3\n  pop\n  swap3\n  swap1\n  pop\n  jump\t// out\n    /* \"Contracts/TTSwapV1Customer.sol\":257:6249  contract TTSwapV1Customer is ITTSwapV1Customer {... */\ntag_6:\n  mload(0x80)\n  mload(0xa0)\n  codecopy(0x00, dataOffset(sub_0), dataSize(sub_0))\n  0x00\n  assignImmutable(\"0xf928ede1c39c5595ff22fe845412ee05a93eeaa584f8ef0c46b5eeb14cb99ec8\")\n  0x00\n  assignImmutable(\"0x59c0d2b7af0a8e6d3d8e710a078764bd67b7223777026c424cdb4f599824bb79\")\n  return(0x00, dataSize(sub_0))\nstop\n\nsub_0: assembly {\n        /* \"Contracts/TTSwapV1Customer.sol\":257:6249  contract TTSwapV1Customer is ITTSwapV1Customer {... */\n      mstore(0x40, 0x80)\n      callvalue\n      dup1\n      iszero\n      tag_1\n      jumpi\n      0x00\n      dup1\n      revert\n    tag_1:\n      pop\n      jumpi(tag_2, lt(calldatasize, 0x04))\n      shr(0xe0, calldataload(0x00))\n      dup1\n      0x8a6df726\n      gt\n      tag_23\n      jumpi\n      dup1\n      0xe71957b9\n      gt\n      tag_24\n      jumpi\n      dup1\n      0xe71957b9\n      eq\n      tag_18\n      jumpi\n      dup1\n      0xe853f952\n      eq\n      tag_19\n      jumpi\n      dup1\n      0xf3c86048\n      eq\n      tag_20\n      jumpi\n      dup1\n      0xf4274bc5\n      eq\n      tag_21\n      jumpi\n      dup1\n      0xfc5f9f18\n      eq\n      tag_22\n      jumpi\n      jump(tag_2)\n    tag_24:\n      dup1\n      0x8a6df726\n      eq\n      tag_13\n      jumpi\n      dup1\n      0xa60832cd\n      eq\n      tag_14\n      jumpi\n      dup1\n      0xbc5c6134\n      eq\n      tag_15\n      jumpi\n      dup1\n      0xbe5fdac8\n      eq\n      tag_16\n      jumpi\n      dup1\n      0xcb949e51\n      eq\n      tag_17\n      jumpi\n      jump(tag_2)\n    tag_23:\n      dup1\n      0x47d0a634\n      gt\n      tag_25\n      jumpi\n      dup1\n      0x47d0a634\n      eq\n      tag_8\n      jumpi\n      dup1\n      0x492b7107\n      eq\n      tag_9\n      jumpi\n      dup1\n      0x5cfeafa5\n      eq\n      tag_10\n      jumpi\n      dup1\n      0x78166097\n      eq\n      tag_11\n      jumpi\n      dup1\n      0x8370aa81\n      eq\n      tag_12\n      jumpi\n      jump(tag_2)\n    tag_25:\n      dup1\n      0x0138a661\n      eq\n      tag_3\n      jumpi\n      dup1\n      0x14f9e554\n      eq\n      tag_4\n      jumpi\n      dup1\n      0x367b6dcc\n      eq\n      tag_5\n      jumpi\n      dup1\n      0x3b63b647\n      eq\n      tag_6\n      jumpi\n      dup1\n      0x3e95003c\n      eq\n      tag_7\n      jumpi\n    tag_2:\n      0x00\n      dup1\n      revert\n        /* \"Contracts/TTSwapV1Customer.sol\":1993:2279  function lockCustomerbyMarketor(address _CustomerAddress)... */\n    tag_3:\n      tag_26\n      0x04\n      dup1\n      calldatasize\n      sub\n      dup2\n      add\n      swap1\n      tag_27\n      swap2\n      swap1\n      tag_28\n      jump\t// in\n    tag_27:\n      tag_29\n      jump\t// in\n    tag_26:\n      stop\n        /* \"Contracts/TTSwapV1Customer.sol\":3322:3784  function addCustomer(LCustomer.Info memory _customer) external {... */\n    tag_4:\n      tag_30\n      0x04\n      dup1\n      calldatasize\n      sub\n      dup2\n      add\n      swap1\n      tag_31\n      swap2\n      swap1\n      tag_32\n      jump\t// in\n    tag_31:\n      tag_33\n      jump\t// in\n    tag_30:\n      stop\n        /* \"Contracts/TTSwapV1Customer.sol\":725:757  uint40 public customerUniNextKey */\n    tag_5:\n      tag_34\n      tag_35\n      jump\t// in\n    tag_34:\n      mload(0x40)\n      tag_36\n      swap2\n      swap1\n      tag_37\n      jump\t// in\n    tag_36:\n      mload(0x40)\n      dup1\n      swap2\n      sub\n      swap1\n      return\n        /* \"Contracts/TTSwapV1Customer.sol\":3790:4117  function updateCustomerNeckName(bytes32 _newname) external {... */\n    tag_6:\n      tag_38\n      0x04\n      dup1\n      calldatasize\n      sub\n      dup2\n      add\n      swap1\n      tag_39\n      swap2\n      swap1\n      tag_40\n      jump\t// in\n    tag_39:\n      tag_41\n      jump\t// in\n    tag_38:\n      stop\n        /* \"Contracts/TTSwapV1Customer.sol\":625:673  mapping(uint40 => address) public customerUniKey */\n    tag_7:\n      tag_42\n      0x04\n      dup1\n      calldatasize\n      sub\n      dup2\n      add\n      swap1\n      tag_43\n      swap2\n      swap1\n      tag_44\n      jump\t// in\n    tag_43:\n      tag_45\n      jump\t// in\n    tag_42:\n      mload(0x40)\n      tag_46\n      swap2\n      swap1\n      tag_47\n      jump\t// in\n    tag_46:\n      mload(0x40)\n      dup1\n      swap2\n      sub\n      swap1\n      return\n        /* \"Contracts/TTSwapV1Customer.sol\":1306:1351  address public immutable gatorContractAddress */\n    tag_8:\n      tag_48\n      tag_49\n      jump\t// in\n    tag_48:\n      mload(0x40)\n      tag_50\n      swap2\n      swap1\n      tag_47\n      jump\t// in\n    tag_50:\n      mload(0x40)\n      dup1\n      swap2\n      sub\n      swap1\n      return\n        /* \"Contracts/TTSwapV1Customer.sol\":1382:1430  address public immutable marketorContractAddress */\n    tag_9:\n      tag_51\n      tag_52\n      jump\t// in\n    tag_51:\n      mload(0x40)\n      tag_53\n      swap2\n      swap1\n      tag_47\n      jump\t// in\n    tag_53:\n      mload(0x40)\n      dup1\n      swap2\n      sub\n      swap1\n      return\n        /* \"Contracts/TTSwapV1Customer.sol\":1204:1274  mapping(address => mapping(uint32 => address)) public gateCustomerList */\n    tag_10:\n      tag_54\n      0x04\n      dup1\n      calldatasize\n      sub\n      dup2\n      add\n      swap1\n      tag_55\n      swap2\n      swap1\n      tag_56\n      jump\t// in\n    tag_55:\n      tag_57\n      jump\t// in\n    tag_54:\n      mload(0x40)\n      tag_58\n      swap2\n      swap1\n      tag_47\n      jump\t// in\n    tag_58:\n      mload(0x40)\n      dup1\n      swap2\n      sub\n      swap1\n      return\n        /* \"Contracts/TTSwapV1Customer.sol\":4429:4598  function isValidCustomer(address _CustomerAddress)... */\n    tag_11:\n      tag_59\n      0x04\n      dup1\n      calldatasize\n      sub\n      dup2\n      add\n      swap1\n      tag_60\n      swap2\n      swap1\n      tag_28\n      jump\t// in\n    tag_60:\n      tag_61\n      jump\t// in\n    tag_59:\n      mload(0x40)\n      tag_62\n      swap2\n      swap1\n      tag_63\n      jump\t// in\n    tag_62:\n      mload(0x40)\n      dup1\n      swap2\n      sub\n      swap1\n      return\n        /* \"Contracts/TTSwapV1Customer.sol\":5154:5442  function getCustomerInfobyRecommander(... */\n    tag_12:\n      tag_64\n      0x04\n      dup1\n      calldatasize\n      sub\n      dup2\n      add\n      swap1\n      tag_65\n      swap2\n      swap1\n      tag_56\n      jump\t// in\n    tag_65:\n      tag_66\n      jump\t// in\n    tag_64:\n      mload(0x40)\n      tag_67\n      swap2\n      swap1\n      tag_47\n      jump\t// in\n    tag_67:\n      mload(0x40)\n      dup1\n      swap2\n      sub\n      swap1\n      return\n        /* \"Contracts/TTSwapV1Customer.sol\":4898:5148  function getCustomerNumbyRecommander(address _recommander)... */\n    tag_13:\n      tag_68\n      0x04\n      dup1\n      calldatasize\n      sub\n      dup2\n      add\n      swap1\n      tag_69\n      swap2\n      swap1\n      tag_28\n      jump\t// in\n    tag_69:\n      tag_70\n      jump\t// in\n    tag_68:\n      mload(0x40)\n      tag_71\n      swap2\n      swap1\n      tag_72\n      jump\t// in\n    tag_71:\n      mload(0x40)\n      dup1\n      swap2\n      sub\n      swap1\n      return\n        /* \"Contracts/TTSwapV1Customer.sol\":950:1034  mapping(address => mapping(uint32 => address))... */\n    tag_14:\n      tag_73\n      0x04\n      dup1\n      calldatasize\n      sub\n      dup2\n      add\n      swap1\n      tag_74\n      swap2\n      swap1\n      tag_56\n      jump\t// in\n    tag_74:\n      tag_75\n      jump\t// in\n    tag_73:\n      mload(0x40)\n      tag_76\n      swap2\n      swap1\n      tag_47\n      jump\t// in\n    tag_76:\n      mload(0x40)\n      dup1\n      swap2\n      sub\n      swap1\n      return\n        /* \"Contracts/TTSwapV1Customer.sol\":1092:1145  mapping(address => uint32) public gateCustomerNextKey */\n    tag_15:\n      tag_77\n      0x04\n      dup1\n      calldatasize\n      sub\n      dup2\n      add\n      swap1\n      tag_78\n      swap2\n      swap1\n      tag_28\n      jump\t// in\n    tag_78:\n      tag_79\n      jump\t// in\n    tag_77:\n      mload(0x40)\n      tag_80\n      swap2\n      swap1\n      tag_72\n      jump\t// in\n    tag_80:\n      mload(0x40)\n      dup1\n      swap2\n      sub\n      swap1\n      return\n        /* \"Contracts/TTSwapV1Customer.sol\":2285:2572  function unlockCustomerbyMarketor(address _CustomerAddress)... */\n    tag_16:\n      tag_81\n      0x04\n      dup1\n      calldatasize\n      sub\n      dup2\n      add\n      swap1\n      tag_82\n      swap2\n      swap1\n      tag_28\n      jump\t// in\n    tag_82:\n      tag_83\n      jump\t// in\n    tag_81:\n      stop\n        /* \"Contracts/TTSwapV1Customer.sol\":4123:4423  function getCustomer(address _CustomerAddress)... */\n    tag_17:\n      tag_84\n      0x04\n      dup1\n      calldatasize\n      sub\n      dup2\n      add\n      swap1\n      tag_85\n      swap2\n      swap1\n      tag_28\n      jump\t// in\n    tag_85:\n      tag_86\n      jump\t// in\n    tag_84:\n      mload(0x40)\n      tag_87\n      swap2\n      swap1\n      tag_88\n      jump\t// in\n    tag_87:\n      mload(0x40)\n      dup1\n      swap2\n      sub\n      swap1\n      return\n        /* \"Contracts/TTSwapV1Customer.sol\":4604:4892  function getCustomerRecommander(address _customer)... */\n    tag_18:\n      tag_89\n      0x04\n      dup1\n      calldatasize\n      sub\n      dup2\n      add\n      swap1\n      tag_90\n      swap2\n      swap1\n      tag_28\n      jump\t// in\n    tag_90:\n      tag_91\n      jump\t// in\n    tag_89:\n      mload(0x40)\n      tag_92\n      swap2\n      swap1\n      tag_47\n      jump\t// in\n    tag_92:\n      mload(0x40)\n      dup1\n      swap2\n      sub\n      swap1\n      return\n        /* \"Contracts/TTSwapV1Customer.sol\":824:879  mapping(address => uint32) public recommenderraltionkey */\n    tag_19:\n      tag_93\n      0x04\n      dup1\n      calldatasize\n      sub\n      dup2\n      add\n      swap1\n      tag_94\n      swap2\n      swap1\n      tag_28\n      jump\t// in\n    tag_94:\n      tag_95\n      jump\t// in\n    tag_93:\n      mload(0x40)\n      tag_96\n      swap2\n      swap1\n      tag_72\n      jump\t// in\n    tag_96:\n      mload(0x40)\n      dup1\n      swap2\n      sub\n      swap1\n      return\n        /* \"Contracts/TTSwapV1Customer.sol\":2652:3297  function addRelation(uint40 _recommanderUnikey) external {... */\n    tag_20:\n      tag_97\n      0x04\n      dup1\n      calldatasize\n      sub\n      dup2\n      add\n      swap1\n      tag_98\n      swap2\n      swap1\n      tag_44\n      jump\t// in\n    tag_98:\n      tag_99\n      jump\t// in\n    tag_97:\n      stop\n        /* \"Contracts/TTSwapV1Customer.sol\":528:582  mapping(address => LCustomer.Info) public customerList */\n    tag_21:\n      tag_100\n      0x04\n      dup1\n      calldatasize\n      sub\n      dup2\n      add\n      swap1\n      tag_101\n      swap2\n      swap1\n      tag_28\n      jump\t// in\n    tag_101:\n      tag_102\n      jump\t// in\n    tag_100:\n      mload(0x40)\n      tag_103\n      swap10\n      swap9\n      swap8\n      swap7\n      swap6\n      swap5\n      swap4\n      swap3\n      swap2\n      swap1\n      tag_104\n      jump\t// in\n    tag_103:\n      mload(0x40)\n      dup1\n      swap2\n      sub\n      swap1\n      return\n        /* \"Contracts/TTSwapV1Customer.sol\":5448:6247  function addCustomer(LCustomer.Info memory _customer, address _gator)... */\n    tag_22:\n      tag_105\n      0x04\n      dup1\n      calldatasize\n      sub\n      dup2\n      add\n      swap1\n      tag_106\n      swap2\n      swap1\n      tag_107\n      jump\t// in\n    tag_106:\n      tag_108\n      jump\t// in\n    tag_105:\n      stop\n        /* \"Contracts/TTSwapV1Customer.sol\":1993:2279  function lockCustomerbyMarketor(address _CustomerAddress)... */\n    tag_29:\n        /* \"Contracts/TTSwapV1Customer.sol\":1926:1949  marketorContractAddress */\n      immutable(\"0xf928ede1c39c5595ff22fe845412ee05a93eeaa584f8ef0c46b5eeb14cb99ec8\")\n        /* \"Contracts/TTSwapV1Customer.sol\":1909:1966  IMarketorV1State(marketorContractAddress).isValidMarketor */\n      0xffffffffffffffffffffffffffffffffffffffff\n      and\n      0xad87d2ba\n        /* \"Contracts/TTSwapV1Customer.sol\":1909:1968  IMarketorV1State(marketorContractAddress).isValidMarketor() */\n      mload(0x40)\n      dup2\n      0xffffffff\n      and\n      0xe0\n      shl\n      dup2\n      mstore\n      0x04\n      add\n      0x20\n      mload(0x40)\n      dup1\n      dup4\n      sub\n      dup2\n      dup7\n      gas\n      staticcall\n      iszero\n      dup1\n      iszero\n      tag_111\n      jumpi\n      returndatasize\n      0x00\n      dup1\n      returndatacopy\n      revert(0x00, returndatasize)\n    tag_111:\n      pop\n      pop\n      pop\n      pop\n      mload(0x40)\n      returndatasize\n      not(0x1f)\n      0x1f\n      dup3\n      add\n      and\n      dup3\n      add\n      dup1\n      0x40\n      mstore\n      pop\n      dup2\n      add\n      swap1\n      tag_112\n      swap2\n      swap1\n      tag_113\n      jump\t// in\n    tag_112:\n        /* \"Contracts/TTSwapV1Customer.sol\":1901:1969  require(IMarketorV1State(marketorContractAddress).isValidMarketor()) */\n      tag_114\n      jumpi\n      0x00\n      dup1\n      revert\n    tag_114:\n        /* \"Contracts/TTSwapV1Customer.sol\":2165:2169  true */\n      0x01\n        /* \"Contracts/TTSwapV1Customer.sol\":2124:2169  customerList[_CustomerAddress].isUsed != true */\n      iszero\n      iszero\n        /* \"Contracts/TTSwapV1Customer.sol\":2124:2136  customerList */\n      0x00\n        /* \"Contracts/TTSwapV1Customer.sol\":2124:2154  customerList[_CustomerAddress] */\n      dup1\n        /* \"Contracts/TTSwapV1Customer.sol\":2137:2153  _CustomerAddress */\n      dup4\n        /* \"Contracts/TTSwapV1Customer.sol\":2124:2154  customerList[_CustomerAddress] */\n      0xffffffffffffffffffffffffffffffffffffffff\n      and\n      0xffffffffffffffffffffffffffffffffffffffff\n      and\n      dup2\n      mstore\n      0x20\n      add\n      swap1\n      dup2\n      mstore\n      0x20\n      add\n      0x00\n      keccak256\n        /* \"Contracts/TTSwapV1Customer.sol\":2124:2161  customerList[_CustomerAddress].isUsed */\n      0x03\n      add\n      0x14\n      swap1\n      sload\n      swap1\n      0x0100\n      exp\n      swap1\n      div\n      0xff\n      and\n        /* \"Contracts/TTSwapV1Customer.sol\":2124:2169  customerList[_CustomerAddress].isUsed != true */\n      iszero\n      iszero\n      sub\n        /* \"Contracts/TTSwapV1Customer.sol\":2103:2217  require(... */\n      tag_116\n      jumpi\n      mload(0x40)\n      0x08c379a000000000000000000000000000000000000000000000000000000000\n      dup2\n      mstore\n      0x04\n      add\n      tag_117\n      swap1\n      tag_118\n      jump\t// in\n    tag_117:\n      mload(0x40)\n      dup1\n      swap2\n      sub\n      swap1\n      revert\n    tag_116:\n        /* \"Contracts/TTSwapV1Customer.sol\":2267:2272  false */\n      0x00\n        /* \"Contracts/TTSwapV1Customer.sol\":2227:2239  customerList */\n      dup1\n        /* \"Contracts/TTSwapV1Customer.sol\":2227:2257  customerList[_CustomerAddress] */\n      0x00\n        /* \"Contracts/TTSwapV1Customer.sol\":2240:2256  _CustomerAddress */\n      dup4\n        /* \"Contracts/TTSwapV1Customer.sol\":2227:2257  customerList[_CustomerAddress] */\n      0xffffffffffffffffffffffffffffffffffffffff\n      and\n      0xffffffffffffffffffffffffffffffffffffffff\n      and\n      dup2\n      mstore\n      0x20\n      add\n      swap1\n      dup2\n      mstore\n      0x20\n      add\n      0x00\n      keccak256\n        /* \"Contracts/TTSwapV1Customer.sol\":2227:2264  customerList[_CustomerAddress].unlock */\n      0x03\n      add\n      0x15\n        /* \"Contracts/TTSwapV1Customer.sol\":2227:2272  customerList[_CustomerAddress].unlock = false */\n      0x0100\n      exp\n      dup2\n      sload\n      dup2\n      0xff\n      mul\n      not\n      and\n      swap1\n      dup4\n      iszero\n      iszero\n      mul\n      or\n      swap1\n      sstore\n      pop\n        /* \"Contracts/TTSwapV1Customer.sol\":1993:2279  function lockCustomerbyMarketor(address _CustomerAddress)... */\n      pop\n      jump\t// out\n        /* \"Contracts/TTSwapV1Customer.sol\":3322:3784  function addCustomer(LCustomer.Info memory _customer) external {... */\n    tag_33:\n        /* \"Contracts/TTSwapV1Customer.sol\":3466:3470  true */\n      0x01\n        /* \"Contracts/TTSwapV1Customer.sol\":3416:3470  customerList[_customer.contractAddress].isUsed != true */\n      iszero\n      iszero\n        /* \"Contracts/TTSwapV1Customer.sol\":3416:3428  customerList */\n      0x00\n        /* \"Contracts/TTSwapV1Customer.sol\":3416:3455  customerList[_customer.contractAddress] */\n      dup1\n        /* \"Contracts/TTSwapV1Customer.sol\":3429:3438  _customer */\n      dup4\n        /* \"Contracts/TTSwapV1Customer.sol\":3429:3454  _customer.contractAddress */\n      0xc0\n      add\n      mload\n        /* \"Contracts/TTSwapV1Customer.sol\":3416:3455  customerList[_customer.contractAddress] */\n      0xffffffffffffffffffffffffffffffffffffffff\n      and\n      0xffffffffffffffffffffffffffffffffffffffff\n      and\n      dup2\n      mstore\n      0x20\n      add\n      swap1\n      dup2\n      mstore\n      0x20\n      add\n      0x00\n      keccak256\n        /* \"Contracts/TTSwapV1Customer.sol\":3416:3462  customerList[_customer.contractAddress].isUsed */\n      0x03\n      add\n      0x14\n      swap1\n      sload\n      swap1\n      0x0100\n      exp\n      swap1\n      div\n      0xff\n      and\n        /* \"Contracts/TTSwapV1Customer.sol\":3416:3470  customerList[_customer.contractAddress].isUsed != true */\n      iszero\n      iszero\n      eq\n      iszero\n        /* \"Contracts/TTSwapV1Customer.sol\":3416:3529  customerList[_customer.contractAddress].isUsed != true &&... */\n      dup1\n      iszero\n      tag_120\n      jumpi\n      pop\n        /* \"Contracts/TTSwapV1Customer.sol\":3519:3529  msg.sender */\n      caller\n        /* \"Contracts/TTSwapV1Customer.sol\":3490:3529  _customer.contractAddress == msg.sender */\n      0xffffffffffffffffffffffffffffffffffffffff\n      and\n        /* \"Contracts/TTSwapV1Customer.sol\":3490:3499  _customer */\n      dup2\n        /* \"Contracts/TTSwapV1Customer.sol\":3490:3515  _customer.contractAddress */\n      0xc0\n      add\n      mload\n        /* \"Contracts/TTSwapV1Customer.sol\":3490:3529  _customer.contractAddress == msg.sender */\n      0xffffffffffffffffffffffffffffffffffffffff\n      and\n      eq\n        /* \"Contracts/TTSwapV1Customer.sol\":3416:3529  customerList[_customer.contractAddress].isUsed != true &&... */\n    tag_120:\n        /* \"Contracts/TTSwapV1Customer.sol\":3395:3573  require(... */\n      tag_121\n      jumpi\n      mload(0x40)\n      0x08c379a000000000000000000000000000000000000000000000000000000000\n      dup2\n      mstore\n      0x04\n      add\n      tag_122\n      swap1\n      tag_123\n      jump\t// in\n    tag_122:\n      mload(0x40)\n      dup1\n      swap2\n      sub\n      swap1\n      revert\n    tag_121:\n        /* \"Contracts/TTSwapV1Customer.sol\":3606:3607  1 */\n      0x01\n        /* \"Contracts/TTSwapV1Customer.sol\":3584:3602  customerUniNextKey */\n      0x02\n      0x00\n        /* \"Contracts/TTSwapV1Customer.sol\":3584:3607  customerUniNextKey += 1 */\n      dup3\n      dup3\n      dup3\n      swap1\n      sload\n      swap1\n      0x0100\n      exp\n      swap1\n      div\n      0xffffffffff\n      and\n      tag_124\n      swap2\n      swap1\n      tag_125\n      jump\t// in\n    tag_124:\n      swap3\n      pop\n      0x0100\n      exp\n      dup2\n      sload\n      dup2\n      0xffffffffff\n      mul\n      not\n      and\n      swap1\n      dup4\n      0xffffffffff\n      and\n      mul\n      or\n      swap1\n      sstore\n      pop\n        /* \"Contracts/TTSwapV1Customer.sol\":3654:3664  msg.sender */\n      caller\n        /* \"Contracts/TTSwapV1Customer.sol\":3617:3631  customerUniKey */\n      0x01\n        /* \"Contracts/TTSwapV1Customer.sol\":3617:3651  customerUniKey[customerUniNextKey] */\n      0x00\n        /* \"Contracts/TTSwapV1Customer.sol\":3632:3650  customerUniNextKey */\n      0x02\n      0x00\n      swap1\n      sload\n      swap1\n      0x0100\n      exp\n      swap1\n      div\n      0xffffffffff\n      and\n        /* \"Contracts/TTSwapV1Customer.sol\":3617:3651  customerUniKey[customerUniNextKey] */\n      0xffffffffff\n      and\n      0xffffffffff\n      and\n      dup2\n      mstore\n      0x20\n      add\n      swap1\n      dup2\n      mstore\n      0x20\n      add\n      0x00\n      keccak256\n      0x00\n        /* \"Contracts/TTSwapV1Customer.sol\":3617:3664  customerUniKey[customerUniNextKey] = msg.sender */\n      0x0100\n      exp\n      dup2\n      sload\n      dup2\n      0xffffffffffffffffffffffffffffffffffffffff\n      mul\n      not\n      and\n      swap1\n      dup4\n      0xffffffffffffffffffffffffffffffffffffffff\n      and\n      mul\n      or\n      swap1\n      sstore\n      pop\n        /* \"Contracts/TTSwapV1Customer.sol\":3698:3716  customerUniNextKey */\n      0x02\n      0x00\n      swap1\n      sload\n      swap1\n      0x0100\n      exp\n      swap1\n      div\n      0xffffffffff\n      and\n        /* \"Contracts/TTSwapV1Customer.sol\":3674:3683  _customer */\n      dup2\n        /* \"Contracts/TTSwapV1Customer.sol\":3674:3695  _customer.customerKey */\n      0x60\n      add\n        /* \"Contracts/TTSwapV1Customer.sol\":3674:3716  _customer.customerKey = customerUniNextKey */\n      swap1\n      0xffffffffff\n      and\n      swap1\n      dup2\n      0xffffffffff\n      and\n      dup2\n      mstore\n      pop\n      pop\n        /* \"Contracts/TTSwapV1Customer.sol\":3768:3777  _customer */\n      dup1\n        /* \"Contracts/TTSwapV1Customer.sol\":3726:3738  customerList */\n      0x00\n        /* \"Contracts/TTSwapV1Customer.sol\":3726:3765  customerList[_customer.contractAddress] */\n      dup1\n        /* \"Contracts/TTSwapV1Customer.sol\":3739:3748  _customer */\n      dup4\n        /* \"Contracts/TTSwapV1Customer.sol\":3739:3764  _customer.contractAddress */\n      0xc0\n      add\n      mload\n        /* \"Contracts/TTSwapV1Customer.sol\":3726:3765  customerList[_customer.contractAddress] */\n      0xffffffffffffffffffffffffffffffffffffffff\n      and\n      0xffffffffffffffffffffffffffffffffffffffff\n      and\n      dup2\n      mstore\n      0x20\n      add\n      swap1\n      dup2\n      mstore\n      0x20\n      add\n      0x00\n      keccak256\n        /* \"Contracts/TTSwapV1Customer.sol\":3726:3777  customerList[_customer.contractAddress] = _customer */\n      0x00\n      dup3\n      add\n      mload\n      dup2\n      0x00\n      add\n      sstore\n      0x20\n      dup3\n      add\n      mload\n      dup2\n      0x01\n      add\n      exp(0x0100, 0x00)\n      dup2\n      sload\n      dup2\n      0xffffffff\n      mul\n      not\n      and\n      swap1\n      dup4\n      0xffffffff\n      and\n      mul\n      or\n      swap1\n      sstore\n      pop\n      0x40\n      dup3\n      add\n      mload\n      dup2\n      0x01\n      add\n      exp(0x0100, 0x04)\n      dup2\n      sload\n      dup2\n      0xffffffffffffffffffffffffffffffffffffffff\n      mul\n      not\n      and\n      swap1\n      dup4\n      0xffffffffffffffffffffffffffffffffffffffff\n      and\n      mul\n      or\n      swap1\n      sstore\n      pop\n      0x60\n      dup3\n      add\n      mload\n      dup2\n      0x01\n      add\n      exp(0x0100, 0x18)\n      dup2\n      sload\n      dup2\n      0xffffffffff\n      mul\n      not\n      and\n      swap1\n      dup4\n      0xffffffffff\n      and\n      mul\n      or\n      swap1\n      sstore\n      pop\n      0x80\n      dup3\n      add\n      mload\n      dup2\n      0x02\n      add\n      exp(0x0100, 0x00)\n      dup2\n      sload\n      dup2\n      0xffffffffffffffffffffffffffffffffffffffff\n      mul\n      not\n      and\n      swap1\n      dup4\n      0xffffffffffffffffffffffffffffffffffffffff\n      and\n      mul\n      or\n      swap1\n      sstore\n      pop\n      0xa0\n      dup3\n      add\n      mload\n      dup2\n      0x02\n      add\n      exp(0x0100, 0x14)\n      dup2\n      sload\n      dup2\n      0xffffffff\n      mul\n      not\n      and\n      swap1\n      dup4\n      0xffffffff\n      and\n      mul\n      or\n      swap1\n      sstore\n      pop\n      0xc0\n      dup3\n      add\n      mload\n      dup2\n      0x03\n      add\n      exp(0x0100, 0x00)\n      dup2\n      sload\n      dup2\n      0xffffffffffffffffffffffffffffffffffffffff\n      mul\n      not\n      and\n      swap1\n      dup4\n      0xffffffffffffffffffffffffffffffffffffffff\n      and\n      mul\n      or\n      swap1\n      sstore\n      pop\n      0xe0\n      dup3\n      add\n      mload\n      dup2\n      0x03\n      add\n      exp(0x0100, 0x14)\n      dup2\n      sload\n      dup2\n      0xff\n      mul\n      not\n      and\n      swap1\n      dup4\n      iszero\n      iszero\n      mul\n      or\n      swap1\n      sstore\n      pop\n      0x0100\n      dup3\n      add\n      mload\n      dup2\n      0x03\n      add\n      exp(0x0100, 0x15)\n      dup2\n      sload\n      dup2\n      0xff\n      mul\n      not\n      and\n      swap1\n      dup4\n      iszero\n      iszero\n      mul\n      or\n      swap1\n      sstore\n      pop\n      swap1\n      pop\n      pop\n        /* \"Contracts/TTSwapV1Customer.sol\":3322:3784  function addCustomer(LCustomer.Info memory _customer) external {... */\n      pop\n      jump\t// out\n        /* \"Contracts/TTSwapV1Customer.sol\":725:757  uint40 public customerUniNextKey */\n    tag_35:\n      0x02\n      0x00\n      swap1\n      sload\n      swap1\n      0x0100\n      exp\n      swap1\n      div\n      0xffffffffff\n      and\n      dup2\n      jump\t// out\n        /* \"Contracts/TTSwapV1Customer.sol\":3790:4117  function updateCustomerNeckName(bytes32 _newname) external {... */\n    tag_41:\n        /* \"Contracts/TTSwapV1Customer.sol\":3930:3934  true */\n      0x01\n        /* \"Contracts/TTSwapV1Customer.sol\":3930:4008  true &&... */\n      dup1\n      iszero\n      tag_127\n      jumpi\n      pop\n        /* \"Contracts/TTSwapV1Customer.sol\":3998:4008  msg.sender */\n      caller\n        /* \"Contracts/TTSwapV1Customer.sol\":3954:4008  customerList[msg.sender].contractAddress == msg.sender */\n      0xffffffffffffffffffffffffffffffffffffffff\n      and\n        /* \"Contracts/TTSwapV1Customer.sol\":3954:3966  customerList */\n      0x00\n        /* \"Contracts/TTSwapV1Customer.sol\":3954:3978  customerList[msg.sender] */\n      dup1\n        /* \"Contracts/TTSwapV1Customer.sol\":3967:3977  msg.sender */\n      caller\n        /* \"Contracts/TTSwapV1Customer.sol\":3954:3978  customerList[msg.sender] */\n      0xffffffffffffffffffffffffffffffffffffffff\n      and\n      0xffffffffffffffffffffffffffffffffffffffff\n      and\n      dup2\n      mstore\n      0x20\n      add\n      swap1\n      dup2\n      mstore\n      0x20\n      add\n      0x00\n      keccak256\n        /* \"Contracts/TTSwapV1Customer.sol\":3954:3994  customerList[msg.sender].contractAddress */\n      0x03\n      add\n      0x00\n      swap1\n      sload\n      swap1\n      0x0100\n      exp\n      swap1\n      div\n      0xffffffffffffffffffffffffffffffffffffffff\n      and\n        /* \"Contracts/TTSwapV1Customer.sol\":3954:4008  customerList[msg.sender].contractAddress == msg.sender */\n      0xffffffffffffffffffffffffffffffffffffffff\n      and\n      eq\n        /* \"Contracts/TTSwapV1Customer.sol\":3930:4008  true &&... */\n    tag_127:\n        /* \"Contracts/TTSwapV1Customer.sol\":3880:3892  customerList */\n      0x00\n        /* \"Contracts/TTSwapV1Customer.sol\":3880:3904  customerList[msg.sender] */\n      dup1\n        /* \"Contracts/TTSwapV1Customer.sol\":3893:3903  msg.sender */\n      caller\n        /* \"Contracts/TTSwapV1Customer.sol\":3880:3904  customerList[msg.sender] */\n      0xffffffffffffffffffffffffffffffffffffffff\n      and\n      0xffffffffffffffffffffffffffffffffffffffff\n      and\n      dup2\n      mstore\n      0x20\n      add\n      swap1\n      dup2\n      mstore\n      0x20\n      add\n      0x00\n      keccak256\n        /* \"Contracts/TTSwapV1Customer.sol\":3880:3911  customerList[msg.sender].isUsed */\n      0x03\n      add\n      0x14\n        /* \"Contracts/TTSwapV1Customer.sol\":3880:4008  customerList[msg.sender].isUsed =... */\n      0x0100\n      exp\n      dup2\n      sload\n      dup2\n      0xff\n      mul\n      not\n      and\n      swap1\n      dup4\n      iszero\n      iszero\n      mul\n      or\n      swap1\n      sstore\n        /* \"Contracts/TTSwapV1Customer.sol\":3859:4056  require(... */\n      tag_128\n      jumpi\n      mload(0x40)\n      0x08c379a000000000000000000000000000000000000000000000000000000000\n      dup2\n      mstore\n      0x04\n      add\n      tag_129\n      swap1\n      tag_118\n      jump\t// in\n    tag_129:\n      mload(0x40)\n      dup1\n      swap2\n      sub\n      swap1\n      revert\n    tag_128:\n        /* \"Contracts/TTSwapV1Customer.sol\":4102:4110  _newname */\n      dup1\n        /* \"Contracts/TTSwapV1Customer.sol\":4066:4078  customerList */\n      0x00\n        /* \"Contracts/TTSwapV1Customer.sol\":4066:4090  customerList[msg.sender] */\n      dup1\n        /* \"Contracts/TTSwapV1Customer.sol\":4079:4089  msg.sender */\n      caller\n        /* \"Contracts/TTSwapV1Customer.sol\":4066:4090  customerList[msg.sender] */\n      0xffffffffffffffffffffffffffffffffffffffff\n      and\n      0xffffffffffffffffffffffffffffffffffffffff\n      and\n      dup2\n      mstore\n      0x20\n      add\n      swap1\n      dup2\n      mstore\n      0x20\n      add\n      0x00\n      keccak256\n        /* \"Contracts/TTSwapV1Customer.sol\":4066:4099  customerList[msg.sender].neckname */\n      0x00\n      add\n        /* \"Contracts/TTSwapV1Customer.sol\":4066:4110  customerList[msg.sender].neckname = _newname */\n      dup2\n      swap1\n      sstore\n      pop\n        /* \"Contracts/TTSwapV1Customer.sol\":3790:4117  function updateCustomerNeckName(bytes32 _newname) external {... */\n      pop\n      jump\t// out\n        /* \"Contracts/TTSwapV1Customer.sol\":625:673  mapping(uint40 => address) public customerUniKey */\n    tag_45:\n      mstore(0x20, 0x01)\n      dup1\n      0x00\n      mstore\n      keccak256(0x00, 0x40)\n      0x00\n      swap2\n      pop\n      sload\n      swap1\n      0x0100\n      exp\n      swap1\n      div\n      0xffffffffffffffffffffffffffffffffffffffff\n      and\n      dup2\n      jump\t// out\n        /* \"Contracts/TTSwapV1Customer.sol\":1306:1351  address public immutable gatorContractAddress */\n    tag_49:\n      immutable(\"0x59c0d2b7af0a8e6d3d8e710a078764bd67b7223777026c424cdb4f599824bb79\")\n      dup2\n      jump\t// out\n        /* \"Contracts/TTSwapV1Customer.sol\":1382:1430  address public immutable marketorContractAddress */\n    tag_52:\n      immutable(\"0xf928ede1c39c5595ff22fe845412ee05a93eeaa584f8ef0c46b5eeb14cb99ec8\")\n      dup2\n      jump\t// out\n        /* \"Contracts/TTSwapV1Customer.sol\":1204:1274  mapping(address => mapping(uint32 => address)) public gateCustomerList */\n    tag_57:\n      mstore(0x20, 0x06)\n      dup2\n      0x00\n      mstore\n      mstore(0x20, keccak256(0x00, 0x40))\n      dup1\n      0x00\n      mstore\n      keccak256(0x00, 0x40)\n      0x00\n      swap2\n      pop\n      swap2\n      pop\n      swap1\n      sload\n      swap1\n      0x0100\n      exp\n      swap1\n      div\n      0xffffffffffffffffffffffffffffffffffffffff\n      and\n      dup2\n      jump\t// out\n        /* \"Contracts/TTSwapV1Customer.sol\":4429:4598  function isValidCustomer(address _CustomerAddress)... */\n    tag_61:\n        /* \"Contracts/TTSwapV1Customer.sol\":4527:4531  bool */\n      0x00\n        /* \"Contracts/TTSwapV1Customer.sol\":4554:4566  customerList */\n      dup1\n        /* \"Contracts/TTSwapV1Customer.sol\":4554:4584  customerList[_CustomerAddress] */\n      0x00\n        /* \"Contracts/TTSwapV1Customer.sol\":4567:4583  _CustomerAddress */\n      dup4\n        /* \"Contracts/TTSwapV1Customer.sol\":4554:4584  customerList[_CustomerAddress] */\n      0xffffffffffffffffffffffffffffffffffffffff\n      and\n      0xffffffffffffffffffffffffffffffffffffffff\n      and\n      dup2\n      mstore\n      0x20\n      add\n      swap1\n      dup2\n      mstore\n      0x20\n      add\n      0x00\n      keccak256\n        /* \"Contracts/TTSwapV1Customer.sol\":4554:4591  customerList[_CustomerAddress].isUsed */\n      0x03\n      add\n      0x14\n      swap1\n      sload\n      swap1\n      0x0100\n      exp\n      swap1\n      div\n      0xff\n      and\n        /* \"Contracts/TTSwapV1Customer.sol\":4547:4591  return customerList[_CustomerAddress].isUsed */\n      swap1\n      pop\n        /* \"Contracts/TTSwapV1Customer.sol\":4429:4598  function isValidCustomer(address _CustomerAddress)... */\n      swap2\n      swap1\n      pop\n      jump\t// out\n        /* \"Contracts/TTSwapV1Customer.sol\":5154:5442  function getCustomerInfobyRecommander(... */\n    tag_66:\n        /* \"Contracts/TTSwapV1Customer.sol\":5283:5290  address */\n      0x00\n        /* \"Contracts/TTSwapV1Customer.sol\":5334:5335  0 */\n      dup1\n        /* \"Contracts/TTSwapV1Customer.sol\":5310:5336  _recommander != address(0) */\n      0xffffffffffffffffffffffffffffffffffffffff\n      and\n        /* \"Contracts/TTSwapV1Customer.sol\":5310:5322  _recommander */\n      dup4\n        /* \"Contracts/TTSwapV1Customer.sol\":5310:5336  _recommander != address(0) */\n      0xffffffffffffffffffffffffffffffffffffffff\n      and\n      sub\n        /* \"Contracts/TTSwapV1Customer.sol\":5302:5365  require(_recommander != address(0), \"customer address is null\") */\n      tag_132\n      jumpi\n      mload(0x40)\n      0x08c379a000000000000000000000000000000000000000000000000000000000\n      dup2\n      mstore\n      0x04\n      add\n      tag_133\n      swap1\n      tag_134\n      jump\t// in\n    tag_133:\n      mload(0x40)\n      dup1\n      swap2\n      sub\n      swap1\n      revert\n    tag_132:\n        /* \"Contracts/TTSwapV1Customer.sol\":5382:5404  recommenderraltionlist */\n      0x04\n        /* \"Contracts/TTSwapV1Customer.sol\":5382:5418  recommenderraltionlist[_recommander] */\n      0x00\n        /* \"Contracts/TTSwapV1Customer.sol\":5405:5417  _recommander */\n      dup5\n        /* \"Contracts/TTSwapV1Customer.sol\":5382:5418  recommenderraltionlist[_recommander] */\n      0xffffffffffffffffffffffffffffffffffffffff\n      and\n      0xffffffffffffffffffffffffffffffffffffffff\n      and\n      dup2\n      mstore\n      0x20\n      add\n      swap1\n      dup2\n      mstore\n      0x20\n      add\n      0x00\n      keccak256\n        /* \"Contracts/TTSwapV1Customer.sol\":5382:5435  recommenderraltionlist[_recommander][_cumstomerindex] */\n      0x00\n        /* \"Contracts/TTSwapV1Customer.sol\":5419:5434  _cumstomerindex */\n      dup4\n        /* \"Contracts/TTSwapV1Customer.sol\":5382:5435  recommenderraltionlist[_recommander][_cumstomerindex] */\n      0xffffffff\n      and\n      0xffffffff\n      and\n      dup2\n      mstore\n      0x20\n      add\n      swap1\n      dup2\n      mstore\n      0x20\n      add\n      0x00\n      keccak256\n      0x00\n      swap1\n      sload\n      swap1\n      0x0100\n      exp\n      swap1\n      div\n      0xffffffffffffffffffffffffffffffffffffffff\n      and\n        /* \"Contracts/TTSwapV1Customer.sol\":5375:5435  return recommenderraltionlist[_recommander][_cumstomerindex] */\n      swap1\n      pop\n        /* \"Contracts/TTSwapV1Customer.sol\":5154:5442  function getCustomerInfobyRecommander(... */\n      swap3\n      swap2\n      pop\n      pop\n      jump\t// out\n        /* \"Contracts/TTSwapV1Customer.sol\":4898:5148  function getCustomerNumbyRecommander(address _recommander)... */\n    tag_70:\n        /* \"Contracts/TTSwapV1Customer.sol\":5004:5010  uint32 */\n      0x00\n        /* \"Contracts/TTSwapV1Customer.sol\":5058:5059  0 */\n      dup1\n        /* \"Contracts/TTSwapV1Customer.sol\":5034:5060  _recommander != address(0) */\n      0xffffffffffffffffffffffffffffffffffffffff\n      and\n        /* \"Contracts/TTSwapV1Customer.sol\":5034:5046  _recommander */\n      dup3\n        /* \"Contracts/TTSwapV1Customer.sol\":5034:5060  _recommander != address(0) */\n      0xffffffffffffffffffffffffffffffffffffffff\n      and\n      sub\n        /* \"Contracts/TTSwapV1Customer.sol\":5026:5089  require(_recommander != address(0), \"customer address is null\") */\n      tag_136\n      jumpi\n      mload(0x40)\n      0x08c379a000000000000000000000000000000000000000000000000000000000\n      dup2\n      mstore\n      0x04\n      add\n      tag_137\n      swap1\n      tag_134\n      jump\t// in\n    tag_137:\n      mload(0x40)\n      dup1\n      swap2\n      sub\n      swap1\n      revert\n    tag_136:\n        /* \"Contracts/TTSwapV1Customer.sol\":5106:5127  recommenderraltionkey */\n      0x03\n        /* \"Contracts/TTSwapV1Customer.sol\":5106:5141  recommenderraltionkey[_recommander] */\n      0x00\n        /* \"Contracts/TTSwapV1Customer.sol\":5128:5140  _recommander */\n      dup4\n        /* \"Contracts/TTSwapV1Customer.sol\":5106:5141  recommenderraltionkey[_recommander] */\n      0xffffffffffffffffffffffffffffffffffffffff\n      and\n      0xffffffffffffffffffffffffffffffffffffffff\n      and\n      dup2\n      mstore\n      0x20\n      add\n      swap1\n      dup2\n      mstore\n      0x20\n      add\n      0x00\n      keccak256\n      0x00\n      swap1\n      sload\n      swap1\n      0x0100\n      exp\n      swap1\n      div\n      0xffffffff\n      and\n        /* \"Contracts/TTSwapV1Customer.sol\":5099:5141  return recommenderraltionkey[_recommander] */\n      swap1\n      pop\n        /* \"Contracts/TTSwapV1Customer.sol\":4898:5148  function getCustomerNumbyRecommander(address _recommander)... */\n      swap2\n      swap1\n      pop\n      jump\t// out\n        /* \"Contracts/TTSwapV1Customer.sol\":950:1034  mapping(address => mapping(uint32 => address))... */\n    tag_75:\n      mstore(0x20, 0x04)\n      dup2\n      0x00\n      mstore\n      mstore(0x20, keccak256(0x00, 0x40))\n      dup1\n      0x00\n      mstore\n      keccak256(0x00, 0x40)\n      0x00\n      swap2\n      pop\n      swap2\n      pop\n      swap1\n      sload\n      swap1\n      0x0100\n      exp\n      swap1\n      div\n      0xffffffffffffffffffffffffffffffffffffffff\n      and\n      dup2\n      jump\t// out\n        /* \"Contracts/TTSwapV1Customer.sol\":1092:1145  mapping(address => uint32) public gateCustomerNextKey */\n    tag_79:\n      mstore(0x20, 0x05)\n      dup1\n      0x00\n      mstore\n      keccak256(0x00, 0x40)\n      0x00\n      swap2\n      pop\n      sload\n      swap1\n      0x0100\n      exp\n      swap1\n      div\n      0xffffffff\n      and\n      dup2\n      jump\t// out\n        /* \"Contracts/TTSwapV1Customer.sol\":2285:2572  function unlockCustomerbyMarketor(address _CustomerAddress)... */\n    tag_83:\n        /* \"Contracts/TTSwapV1Customer.sol\":1926:1949  marketorContractAddress */\n      immutable(\"0xf928ede1c39c5595ff22fe845412ee05a93eeaa584f8ef0c46b5eeb14cb99ec8\")\n        /* \"Contracts/TTSwapV1Customer.sol\":1909:1966  IMarketorV1State(marketorContractAddress).isValidMarketor */\n      0xffffffffffffffffffffffffffffffffffffffff\n      and\n      0xad87d2ba\n        /* \"Contracts/TTSwapV1Customer.sol\":1909:1968  IMarketorV1State(marketorContractAddress).isValidMarketor() */\n      mload(0x40)\n      dup2\n      0xffffffff\n      and\n      0xe0\n      shl\n      dup2\n      mstore\n      0x04\n      add\n      0x20\n      mload(0x40)\n      dup1\n      dup4\n      sub\n      dup2\n      dup7\n      gas\n      staticcall\n      iszero\n      dup1\n      iszero\n      tag_140\n      jumpi\n      returndatasize\n      0x00\n      dup1\n      returndatacopy\n      revert(0x00, returndatasize)\n    tag_140:\n      pop\n      pop\n      pop\n      pop\n      mload(0x40)\n      returndatasize\n      not(0x1f)\n      0x1f\n      dup3\n      add\n      and\n      dup3\n      add\n      dup1\n      0x40\n      mstore\n      pop\n      dup2\n      add\n      swap1\n      tag_141\n      swap2\n      swap1\n      tag_113\n      jump\t// in\n    tag_141:\n        /* \"Contracts/TTSwapV1Customer.sol\":1901:1969  require(IMarketorV1State(marketorContractAddress).isValidMarketor()) */\n      tag_142\n      jumpi\n      0x00\n      dup1\n      revert\n    tag_142:\n        /* \"Contracts/TTSwapV1Customer.sol\":2459:2463  true */\n      0x01\n        /* \"Contracts/TTSwapV1Customer.sol\":2418:2463  customerList[_CustomerAddress].isUsed != true */\n      iszero\n      iszero\n        /* \"Contracts/TTSwapV1Customer.sol\":2418:2430  customerList */\n      0x00\n        /* \"Contracts/TTSwapV1Customer.sol\":2418:2448  customerList[_CustomerAddress] */\n      dup1\n        /* \"Contracts/TTSwapV1Customer.sol\":2431:2447  _CustomerAddress */\n      dup4\n        /* \"Contracts/TTSwapV1Customer.sol\":2418:2448  customerList[_CustomerAddress] */\n      0xffffffffffffffffffffffffffffffffffffffff\n      and\n      0xffffffffffffffffffffffffffffffffffffffff\n      and\n      dup2\n      mstore\n      0x20\n      add\n      swap1\n      dup2\n      mstore\n      0x20\n      add\n      0x00\n      keccak256\n        /* \"Contracts/TTSwapV1Customer.sol\":2418:2455  customerList[_CustomerAddress].isUsed */\n      0x03\n      add\n      0x14\n      swap1\n      sload\n      swap1\n      0x0100\n      exp\n      swap1\n      div\n      0xff\n      and\n        /* \"Contracts/TTSwapV1Customer.sol\":2418:2463  customerList[_CustomerAddress].isUsed != true */\n      iszero\n      iszero\n      sub\n        /* \"Contracts/TTSwapV1Customer.sol\":2397:2511  require(... */\n      tag_144\n      jumpi\n      mload(0x40)\n      0x08c379a000000000000000000000000000000000000000000000000000000000\n      dup2\n      mstore\n      0x04\n      add\n      tag_145\n      swap1\n      tag_118\n      jump\t// in\n    tag_145:\n      mload(0x40)\n      dup1\n      swap2\n      sub\n      swap1\n      revert\n    tag_144:\n        /* \"Contracts/TTSwapV1Customer.sol\":2561:2565  true */\n      0x01\n        /* \"Contracts/TTSwapV1Customer.sol\":2521:2533  customerList */\n      0x00\n        /* \"Contracts/TTSwapV1Customer.sol\":2521:2551  customerList[_CustomerAddress] */\n      dup1\n        /* \"Contracts/TTSwapV1Customer.sol\":2534:2550  _CustomerAddress */\n      dup4\n        /* \"Contracts/TTSwapV1Customer.sol\":2521:2551  customerList[_CustomerAddress] */\n      0xffffffffffffffffffffffffffffffffffffffff\n      and\n      0xffffffffffffffffffffffffffffffffffffffff\n      and\n      dup2\n      mstore\n      0x20\n      add\n      swap1\n      dup2\n      mstore\n      0x20\n      add\n      0x00\n      keccak256\n        /* \"Contracts/TTSwapV1Customer.sol\":2521:2558  customerList[_CustomerAddress].unlock */\n      0x03\n      add\n      0x15\n        /* \"Contracts/TTSwapV1Customer.sol\":2521:2565  customerList[_CustomerAddress].unlock = true */\n      0x0100\n      exp\n      dup2\n      sload\n      dup2\n      0xff\n      mul\n      not\n      and\n      swap1\n      dup4\n      iszero\n      iszero\n      mul\n      or\n      swap1\n      sstore\n      pop\n        /* \"Contracts/TTSwapV1Customer.sol\":2285:2572  function unlockCustomerbyMarketor(address _CustomerAddress)... */\n      pop\n      jump\t// out\n        /* \"Contracts/TTSwapV1Customer.sol\":4123:4423  function getCustomer(address _CustomerAddress)... */\n    tag_86:\n        /* \"Contracts/TTSwapV1Customer.sol\":4217:4238  LCustomer.Info memory */\n      tag_146\n      tag_147\n      jump\t// in\n    tag_146:\n        /* \"Contracts/TTSwapV1Customer.sol\":4316:4320  true */\n      0x01\n        /* \"Contracts/TTSwapV1Customer.sol\":4275:4320  customerList[_CustomerAddress].isUsed == true */\n      iszero\n      iszero\n        /* \"Contracts/TTSwapV1Customer.sol\":4275:4287  customerList */\n      0x00\n        /* \"Contracts/TTSwapV1Customer.sol\":4275:4305  customerList[_CustomerAddress] */\n      dup1\n        /* \"Contracts/TTSwapV1Customer.sol\":4288:4304  _CustomerAddress */\n      dup5\n        /* \"Contracts/TTSwapV1Customer.sol\":4275:4305  customerList[_CustomerAddress] */\n      0xffffffffffffffffffffffffffffffffffffffff\n      and\n      0xffffffffffffffffffffffffffffffffffffffff\n      and\n      dup2\n      mstore\n      0x20\n      add\n      swap1\n      dup2\n      mstore\n      0x20\n      add\n      0x00\n      keccak256\n        /* \"Contracts/TTSwapV1Customer.sol\":4275:4312  customerList[_CustomerAddress].isUsed */\n      0x03\n      add\n      0x14\n      swap1\n      sload\n      swap1\n      0x0100\n      exp\n      swap1\n      div\n      0xff\n      and\n        /* \"Contracts/TTSwapV1Customer.sol\":4275:4320  customerList[_CustomerAddress].isUsed == true */\n      iszero\n      iszero\n      eq\n        /* \"Contracts/TTSwapV1Customer.sol\":4254:4369  require(... */\n      tag_149\n      jumpi\n      mload(0x40)\n      0x08c379a000000000000000000000000000000000000000000000000000000000\n      dup2\n      mstore\n      0x04\n      add\n      tag_150\n      swap1\n      tag_151\n      jump\t// in\n    tag_150:\n      mload(0x40)\n      dup1\n      swap2\n      sub\n      swap1\n      revert\n    tag_149:\n        /* \"Contracts/TTSwapV1Customer.sol\":4386:4398  customerList */\n      0x00\n        /* \"Contracts/TTSwapV1Customer.sol\":4386:4416  customerList[_CustomerAddress] */\n      dup1\n        /* \"Contracts/TTSwapV1Customer.sol\":4399:4415  _CustomerAddress */\n      dup4\n        /* \"Contracts/TTSwapV1Customer.sol\":4386:4416  customerList[_CustomerAddress] */\n      0xffffffffffffffffffffffffffffffffffffffff\n      and\n      0xffffffffffffffffffffffffffffffffffffffff\n      and\n      dup2\n      mstore\n      0x20\n      add\n      swap1\n      dup2\n      mstore\n      0x20\n      add\n      0x00\n      keccak256\n        /* \"Contracts/TTSwapV1Customer.sol\":4379:4416  return customerList[_CustomerAddress] */\n      mload(0x40)\n      dup1\n      0x0120\n      add\n      0x40\n      mstore\n      swap1\n      dup2\n      0x00\n      dup3\n      add\n      sload\n      dup2\n      mstore\n      0x20\n      add\n      0x01\n      dup3\n      add\n      0x00\n      swap1\n      sload\n      swap1\n      0x0100\n      exp\n      swap1\n      div\n      0xffffffff\n      and\n      0xffffffff\n      and\n      0xffffffff\n      and\n      dup2\n      mstore\n      0x20\n      add\n      0x01\n      dup3\n      add\n      0x04\n      swap1\n      sload\n      swap1\n      0x0100\n      exp\n      swap1\n      div\n      0xffffffffffffffffffffffffffffffffffffffff\n      and\n      0xffffffffffffffffffffffffffffffffffffffff\n      and\n      0xffffffffffffffffffffffffffffffffffffffff\n      and\n      dup2\n      mstore\n      0x20\n      add\n      0x01\n      dup3\n      add\n      0x18\n      swap1\n      sload\n      swap1\n      0x0100\n      exp\n      swap1\n      div\n      0xffffffffff\n      and\n      0xffffffffff\n      and\n      0xffffffffff\n      and\n      dup2\n      mstore\n      0x20\n      add\n      0x02\n      dup3\n      add\n      0x00\n      swap1\n      sload\n      swap1\n      0x0100\n      exp\n      swap1\n      div\n      0xffffffffffffffffffffffffffffffffffffffff\n      and\n      0xffffffffffffffffffffffffffffffffffffffff\n      and\n      0xffffffffffffffffffffffffffffffffffffffff\n      and\n      dup2\n      mstore\n      0x20\n      add\n      0x02\n      dup3\n      add\n      0x14\n      swap1\n      sload\n      swap1\n      0x0100\n      exp\n      swap1\n      div\n      0xffffffff\n      and\n      0xffffffff\n      and\n      0xffffffff\n      and\n      dup2\n      mstore\n      0x20\n      add\n      0x03\n      dup3\n      add\n      0x00\n      swap1\n      sload\n      swap1\n      0x0100\n      exp\n      swap1\n      div\n      0xffffffffffffffffffffffffffffffffffffffff\n      and\n      0xffffffffffffffffffffffffffffffffffffffff\n      and\n      0xffffffffffffffffffffffffffffffffffffffff\n      and\n      dup2\n      mstore\n      0x20\n      add\n      0x03\n      dup3\n      add\n      0x14\n      swap1\n      sload\n      swap1\n      0x0100\n      exp\n      swap1\n      div\n      0xff\n      and\n      iszero\n      iszero\n      iszero\n      iszero\n      dup2\n      mstore\n      0x20\n      add\n      0x03\n      dup3\n      add\n      0x15\n      swap1\n      sload\n      swap1\n      0x0100\n      exp\n      swap1\n      div\n      0xff\n      and\n      iszero\n      iszero\n      iszero\n      iszero\n      dup2\n      mstore\n      pop\n      pop\n      swap1\n      pop\n        /* \"Contracts/TTSwapV1Customer.sol\":4123:4423  function getCustomer(address _CustomerAddress)... */\n      swap2\n      swap1\n      pop\n      jump\t// out\n        /* \"Contracts/TTSwapV1Customer.sol\":4604:4892  function getCustomerRecommander(address _customer)... */\n    tag_91:\n        /* \"Contracts/TTSwapV1Customer.sol\":4702:4709  address */\n      0x00\n        /* \"Contracts/TTSwapV1Customer.sol\":4780:4784  true */\n      0x01\n        /* \"Contracts/TTSwapV1Customer.sol\":4746:4784  customerList[_customer].isUsed == true */\n      iszero\n      iszero\n        /* \"Contracts/TTSwapV1Customer.sol\":4746:4758  customerList */\n      0x00\n        /* \"Contracts/TTSwapV1Customer.sol\":4746:4769  customerList[_customer] */\n      dup1\n        /* \"Contracts/TTSwapV1Customer.sol\":4759:4768  _customer */\n      dup5\n        /* \"Contracts/TTSwapV1Customer.sol\":4746:4769  customerList[_customer] */\n      0xffffffffffffffffffffffffffffffffffffffff\n      and\n      0xffffffffffffffffffffffffffffffffffffffff\n      and\n      dup2\n      mstore\n      0x20\n      add\n      swap1\n      dup2\n      mstore\n      0x20\n      add\n      0x00\n      keccak256\n        /* \"Contracts/TTSwapV1Customer.sol\":4746:4776  customerList[_customer].isUsed */\n      0x03\n      add\n      0x14\n      swap1\n      sload\n      swap1\n      0x0100\n      exp\n      swap1\n      div\n      0xff\n      and\n        /* \"Contracts/TTSwapV1Customer.sol\":4746:4784  customerList[_customer].isUsed == true */\n      iszero\n      iszero\n      eq\n        /* \"Contracts/TTSwapV1Customer.sol\":4725:4833  require(... */\n      tag_153\n      jumpi\n      mload(0x40)\n      0x08c379a000000000000000000000000000000000000000000000000000000000\n      dup2\n      mstore\n      0x04\n      add\n      tag_154\n      swap1\n      tag_151\n      jump\t// in\n    tag_154:\n      mload(0x40)\n      dup1\n      swap2\n      sub\n      swap1\n      revert\n    tag_153:\n        /* \"Contracts/TTSwapV1Customer.sol\":4850:4862  customerList */\n      0x00\n        /* \"Contracts/TTSwapV1Customer.sol\":4850:4873  customerList[_customer] */\n      dup1\n        /* \"Contracts/TTSwapV1Customer.sol\":4863:4872  _customer */\n      dup4\n        /* \"Contracts/TTSwapV1Customer.sol\":4850:4873  customerList[_customer] */\n      0xffffffffffffffffffffffffffffffffffffffff\n      and\n      0xffffffffffffffffffffffffffffffffffffffff\n      and\n      dup2\n      mstore\n      0x20\n      add\n      swap1\n      dup2\n      mstore\n      0x20\n      add\n      0x00\n      keccak256\n        /* \"Contracts/TTSwapV1Customer.sol\":4850:4885  customerList[_customer].recommender */\n      0x01\n      add\n      0x04\n      swap1\n      sload\n      swap1\n      0x0100\n      exp\n      swap1\n      div\n      0xffffffffffffffffffffffffffffffffffffffff\n      and\n        /* \"Contracts/TTSwapV1Customer.sol\":4843:4885  return customerList[_customer].recommender */\n      swap1\n      pop\n        /* \"Contracts/TTSwapV1Customer.sol\":4604:4892  function getCustomerRecommander(address _customer)... */\n      swap2\n      swap1\n      pop\n      jump\t// out\n        /* \"Contracts/TTSwapV1Customer.sol\":824:879  mapping(address => uint32) public recommenderraltionkey */\n    tag_95:\n      mstore(0x20, 0x03)\n      dup1\n      0x00\n      mstore\n      keccak256(0x00, 0x40)\n      0x00\n      swap2\n      pop\n      sload\n      swap1\n      0x0100\n      exp\n      swap1\n      div\n      0xffffffff\n      and\n      dup2\n      jump\t// out\n        /* \"Contracts/TTSwapV1Customer.sol\":2652:3297  function addRelation(uint40 _recommanderUnikey) external {... */\n    tag_99:\n        /* \"Contracts/TTSwapV1Customer.sol\":2788:2789  0 */\n      0x00\n        /* \"Contracts/TTSwapV1Customer.sol\":2740:2790  customerList[msg.sender].recommender == address(0) */\n      0xffffffffffffffffffffffffffffffffffffffff\n      and\n        /* \"Contracts/TTSwapV1Customer.sol\":2740:2752  customerList */\n      0x00\n        /* \"Contracts/TTSwapV1Customer.sol\":2740:2764  customerList[msg.sender] */\n      dup1\n        /* \"Contracts/TTSwapV1Customer.sol\":2753:2763  msg.sender */\n      caller\n        /* \"Contracts/TTSwapV1Customer.sol\":2740:2764  customerList[msg.sender] */\n      0xffffffffffffffffffffffffffffffffffffffff\n      and\n      0xffffffffffffffffffffffffffffffffffffffff\n      and\n      dup2\n      mstore\n      0x20\n      add\n      swap1\n      dup2\n      mstore\n      0x20\n      add\n      0x00\n      keccak256\n        /* \"Contracts/TTSwapV1Customer.sol\":2740:2776  customerList[msg.sender].recommender */\n      0x01\n      add\n      0x04\n      swap1\n      sload\n      swap1\n      0x0100\n      exp\n      swap1\n      div\n      0xffffffffffffffffffffffffffffffffffffffff\n      and\n        /* \"Contracts/TTSwapV1Customer.sol\":2740:2790  customerList[msg.sender].recommender == address(0) */\n      0xffffffffffffffffffffffffffffffffffffffff\n      and\n      eq\n        /* \"Contracts/TTSwapV1Customer.sol\":2719:2847  require(... */\n      tag_156\n      jumpi\n      mload(0x40)\n      0x08c379a000000000000000000000000000000000000000000000000000000000\n      dup2\n      mstore\n      0x04\n      add\n      tag_157\n      swap1\n      tag_158\n      jump\t// in\n    tag_157:\n      mload(0x40)\n      dup1\n      swap2\n      sub\n      swap1\n      revert\n    tag_156:\n        /* \"Contracts/TTSwapV1Customer.sol\":2857:2878  address recom_address */\n      0x00\n        /* \"Contracts/TTSwapV1Customer.sol\":2881:2895  customerUniKey */\n      0x01\n        /* \"Contracts/TTSwapV1Customer.sol\":2881:2915  customerUniKey[_recommanderUnikey] */\n      0x00\n        /* \"Contracts/TTSwapV1Customer.sol\":2896:2914  _recommanderUnikey */\n      dup4\n        /* \"Contracts/TTSwapV1Customer.sol\":2881:2915  customerUniKey[_recommanderUnikey] */\n      0xffffffffff\n      and\n      0xffffffffff\n      and\n      dup2\n      mstore\n      0x20\n      add\n      swap1\n      dup2\n      mstore\n      0x20\n      add\n      0x00\n      keccak256\n      0x00\n      swap1\n      sload\n      swap1\n      0x0100\n      exp\n      swap1\n      div\n      0xffffffffffffffffffffffffffffffffffffffff\n      and\n        /* \"Contracts/TTSwapV1Customer.sol\":2857:2915  address recom_address = customerUniKey[_recommanderUnikey] */\n      swap1\n      pop\n        /* \"Contracts/TTSwapV1Customer.sol\":2969:2970  1 */\n      0x01\n        /* \"Contracts/TTSwapV1Customer.sol\":2929:2950  recommenderraltionkey */\n      0x03\n        /* \"Contracts/TTSwapV1Customer.sol\":2929:2965  recommenderraltionkey[recom_address] */\n      0x00\n        /* \"Contracts/TTSwapV1Customer.sol\":2951:2964  recom_address */\n      dup4\n        /* \"Contracts/TTSwapV1Customer.sol\":2929:2965  recommenderraltionkey[recom_address] */\n      0xffffffffffffffffffffffffffffffffffffffff\n      and\n      0xffffffffffffffffffffffffffffffffffffffff\n      and\n      dup2\n      mstore\n      0x20\n      add\n      swap1\n      dup2\n      mstore\n      0x20\n      add\n      0x00\n      keccak256\n      0x00\n      swap1\n      sload\n      swap1\n      0x0100\n      exp\n      swap1\n      div\n      0xffffffff\n      and\n        /* \"Contracts/TTSwapV1Customer.sol\":2929:2970  recommenderraltionkey[recom_address] >= 1 */\n      0xffffffff\n      and\n      lt\n        /* \"Contracts/TTSwapV1Customer.sol\":2925:3109  if (recommenderraltionkey[recom_address] >= 1) {... */\n      tag_159\n      jumpi\n        /* \"Contracts/TTSwapV1Customer.sol\":3026:3027  1 */\n      0x01\n        /* \"Contracts/TTSwapV1Customer.sol\":2986:3007  recommenderraltionkey */\n      0x03\n        /* \"Contracts/TTSwapV1Customer.sol\":2986:3022  recommenderraltionkey[recom_address] */\n      0x00\n        /* \"Contracts/TTSwapV1Customer.sol\":3008:3021  recom_address */\n      dup4\n        /* \"Contracts/TTSwapV1Customer.sol\":2986:3022  recommenderraltionkey[recom_address] */\n      0xffffffffffffffffffffffffffffffffffffffff\n      and\n      0xffffffffffffffffffffffffffffffffffffffff\n      and\n      dup2\n      mstore\n      0x20\n      add\n      swap1\n      dup2\n      mstore\n      0x20\n      add\n      0x00\n      keccak256\n      0x00\n        /* \"Contracts/TTSwapV1Customer.sol\":2986:3027  recommenderraltionkey[recom_address] += 1 */\n      dup3\n      dup3\n      dup3\n      swap1\n      sload\n      swap1\n      0x0100\n      exp\n      swap1\n      div\n      0xffffffff\n      and\n      tag_160\n      swap2\n      swap1\n      tag_161\n      jump\t// in\n    tag_160:\n      swap3\n      pop\n      0x0100\n      exp\n      dup2\n      sload\n      dup2\n      0xffffffff\n      mul\n      not\n      and\n      swap1\n      dup4\n      0xffffffff\n      and\n      mul\n      or\n      swap1\n      sstore\n      pop\n        /* \"Contracts/TTSwapV1Customer.sol\":2925:3109  if (recommenderraltionkey[recom_address] >= 1) {... */\n      jump(tag_162)\n    tag_159:\n        /* \"Contracts/TTSwapV1Customer.sol\":3097:3098  1 */\n      0x01\n        /* \"Contracts/TTSwapV1Customer.sol\":3058:3079  recommenderraltionkey */\n      0x03\n        /* \"Contracts/TTSwapV1Customer.sol\":3058:3094  recommenderraltionkey[recom_address] */\n      0x00\n        /* \"Contracts/TTSwapV1Customer.sol\":3080:3093  recom_address */\n      dup4\n        /* \"Contracts/TTSwapV1Customer.sol\":3058:3094  recommenderraltionkey[recom_address] */\n      0xffffffffffffffffffffffffffffffffffffffff\n      and\n      0xffffffffffffffffffffffffffffffffffffffff\n      and\n      dup2\n      mstore\n      0x20\n      add\n      swap1\n      dup2\n      mstore\n      0x20\n      add\n      0x00\n      keccak256\n      0x00\n        /* \"Contracts/TTSwapV1Customer.sol\":3058:3098  recommenderraltionkey[recom_address] = 1 */\n      0x0100\n      exp\n      dup2\n      sload\n      dup2\n      0xffffffff\n      mul\n      not\n      and\n      swap1\n      dup4\n      0xffffffff\n      and\n      mul\n      or\n      swap1\n      sstore\n      pop\n        /* \"Contracts/TTSwapV1Customer.sol\":2925:3109  if (recommenderraltionkey[recom_address] >= 1) {... */\n    tag_162:\n        /* \"Contracts/TTSwapV1Customer.sol\":3218:3228  msg.sender */\n      caller\n        /* \"Contracts/TTSwapV1Customer.sol\":3118:3140  recommenderraltionlist */\n      0x04\n        /* \"Contracts/TTSwapV1Customer.sol\":3118:3155  recommenderraltionlist[recom_address] */\n      0x00\n        /* \"Contracts/TTSwapV1Customer.sol\":3141:3154  recom_address */\n      dup4\n        /* \"Contracts/TTSwapV1Customer.sol\":3118:3155  recommenderraltionlist[recom_address] */\n      0xffffffffffffffffffffffffffffffffffffffff\n      and\n      0xffffffffffffffffffffffffffffffffffffffff\n      and\n      dup2\n      mstore\n      0x20\n      add\n      swap1\n      dup2\n      mstore\n      0x20\n      add\n      0x00\n      keccak256\n        /* \"Contracts/TTSwapV1Customer.sol\":3118:3215  recommenderraltionlist[recom_address][... */\n      0x00\n        /* \"Contracts/TTSwapV1Customer.sol\":3169:3190  recommenderraltionkey */\n      0x03\n        /* \"Contracts/TTSwapV1Customer.sol\":3169:3205  recommenderraltionkey[recom_address] */\n      0x00\n        /* \"Contracts/TTSwapV1Customer.sol\":3191:3204  recom_address */\n      dup6\n        /* \"Contracts/TTSwapV1Customer.sol\":3169:3205  recommenderraltionkey[recom_address] */\n      0xffffffffffffffffffffffffffffffffffffffff\n      and\n      0xffffffffffffffffffffffffffffffffffffffff\n      and\n      dup2\n      mstore\n      0x20\n      add\n      swap1\n      dup2\n      mstore\n      0x20\n      add\n      0x00\n      keccak256\n      0x00\n      swap1\n      sload\n      swap1\n      0x0100\n      exp\n      swap1\n      div\n      0xffffffff\n      and\n        /* \"Contracts/TTSwapV1Customer.sol\":3118:3215  recommenderraltionlist[recom_address][... */\n      0xffffffff\n      and\n      0xffffffff\n      and\n      dup2\n      mstore\n      0x20\n      add\n      swap1\n      dup2\n      mstore\n      0x20\n      add\n      0x00\n      keccak256\n      0x00\n        /* \"Contracts/TTSwapV1Customer.sol\":3118:3228  recommenderraltionlist[recom_address][... */\n      0x0100\n      exp\n      dup2\n      sload\n      dup2\n      0xffffffffffffffffffffffffffffffffffffffff\n      mul\n      not\n      and\n      swap1\n      dup4\n      0xffffffffffffffffffffffffffffffffffffffff\n      and\n      mul\n      or\n      swap1\n      sstore\n      pop\n        /* \"Contracts/TTSwapV1Customer.sol\":3277:3290  recom_address */\n      dup1\n        /* \"Contracts/TTSwapV1Customer.sol\":3238:3250  customerList */\n      0x00\n        /* \"Contracts/TTSwapV1Customer.sol\":3238:3262  customerList[msg.sender] */\n      dup1\n        /* \"Contracts/TTSwapV1Customer.sol\":3251:3261  msg.sender */\n      caller\n        /* \"Contracts/TTSwapV1Customer.sol\":3238:3262  customerList[msg.sender] */\n      0xffffffffffffffffffffffffffffffffffffffff\n      and\n      0xffffffffffffffffffffffffffffffffffffffff\n      and\n      dup2\n      mstore\n      0x20\n      add\n      swap1\n      dup2\n      mstore\n      0x20\n      add\n      0x00\n      keccak256\n        /* \"Contracts/TTSwapV1Customer.sol\":3238:3274  customerList[msg.sender].recommender */\n      0x01\n      add\n      0x04\n        /* \"Contracts/TTSwapV1Customer.sol\":3238:3290  customerList[msg.sender].recommender = recom_address */\n      0x0100\n      exp\n      dup2\n      sload\n      dup2\n      0xffffffffffffffffffffffffffffffffffffffff\n      mul\n      not\n      and\n      swap1\n      dup4\n      0xffffffffffffffffffffffffffffffffffffffff\n      and\n      mul\n      or\n      swap1\n      sstore\n      pop\n        /* \"Contracts/TTSwapV1Customer.sol\":2709:3297  {... */\n      pop\n        /* \"Contracts/TTSwapV1Customer.sol\":2652:3297  function addRelation(uint40 _recommanderUnikey) external {... */\n      pop\n      jump\t// out\n        /* \"Contracts/TTSwapV1Customer.sol\":528:582  mapping(address => LCustomer.Info) public customerList */\n    tag_102:\n      mstore(0x20, 0x00)\n      dup1\n      0x00\n      mstore\n      keccak256(0x00, 0x40)\n      0x00\n      swap2\n      pop\n      swap1\n      pop\n      dup1\n      0x00\n      add\n      sload\n      swap1\n      dup1\n      0x01\n      add\n      0x00\n      swap1\n      sload\n      swap1\n      0x0100\n      exp\n      swap1\n      div\n      0xffffffff\n      and\n      swap1\n      dup1\n      0x01\n      add\n      0x04\n      swap1\n      sload\n      swap1\n      0x0100\n      exp\n      swap1\n      div\n      0xffffffffffffffffffffffffffffffffffffffff\n      and\n      swap1\n      dup1\n      0x01\n      add\n      0x18\n      swap1\n      sload\n      swap1\n      0x0100\n      exp\n      swap1\n      div\n      0xffffffffff\n      and\n      swap1\n      dup1\n      0x02\n      add\n      0x00\n      swap1\n      sload\n      swap1\n      0x0100\n      exp\n      swap1\n      div\n      0xffffffffffffffffffffffffffffffffffffffff\n      and\n      swap1\n      dup1\n      0x02\n      add\n      0x14\n      swap1\n      sload\n      swap1\n      0x0100\n      exp\n      swap1\n      div\n      0xffffffff\n      and\n      swap1\n      dup1\n      0x03\n      add\n      0x00\n      swap1\n      sload\n      swap1\n      0x0100\n      exp\n      swap1\n      div\n      0xffffffffffffffffffffffffffffffffffffffff\n      and\n      swap1\n      dup1\n      0x03\n      add\n      0x14\n      swap1\n      sload\n      swap1\n      0x0100\n      exp\n      swap1\n      div\n      0xff\n      and\n      swap1\n      dup1\n      0x03\n      add\n      0x15\n      swap1\n      sload\n      swap1\n      0x0100\n      exp\n      swap1\n      div\n      0xff\n      and\n      swap1\n      pop\n      dup10\n      jump\t// out\n        /* \"Contracts/TTSwapV1Customer.sol\":5448:6247  function addCustomer(LCustomer.Info memory _customer, address _gator)... */\n    tag_108:\n        /* \"Contracts/TTSwapV1Customer.sol\":5620:5624  true */\n      0x01\n        /* \"Contracts/TTSwapV1Customer.sol\":5570:5624  customerList[_customer.contractAddress].isUsed != true */\n      iszero\n      iszero\n        /* \"Contracts/TTSwapV1Customer.sol\":5570:5582  customerList */\n      0x00\n        /* \"Contracts/TTSwapV1Customer.sol\":5570:5609  customerList[_customer.contractAddress] */\n      dup1\n        /* \"Contracts/TTSwapV1Customer.sol\":5583:5592  _customer */\n      dup5\n        /* \"Contracts/TTSwapV1Customer.sol\":5583:5608  _customer.contractAddress */\n      0xc0\n      add\n      mload\n        /* \"Contracts/TTSwapV1Customer.sol\":5570:5609  customerList[_customer.contractAddress] */\n      0xffffffffffffffffffffffffffffffffffffffff\n      and\n      0xffffffffffffffffffffffffffffffffffffffff\n      and\n      dup2\n      mstore\n      0x20\n      add\n      swap1\n      dup2\n      mstore\n      0x20\n      add\n      0x00\n      keccak256\n        /* \"Contracts/TTSwapV1Customer.sol\":5570:5616  customerList[_customer.contractAddress].isUsed */\n      0x03\n      add\n      0x14\n      swap1\n      sload\n      swap1\n      0x0100\n      exp\n      swap1\n      div\n      0xff\n      and\n        /* \"Contracts/TTSwapV1Customer.sol\":5570:5624  customerList[_customer.contractAddress].isUsed != true */\n      iszero\n      iszero\n      eq\n      iszero\n        /* \"Contracts/TTSwapV1Customer.sol\":5570:5683  customerList[_customer.contractAddress].isUsed != true &&... */\n      dup1\n      iszero\n      tag_164\n      jumpi\n      pop\n        /* \"Contracts/TTSwapV1Customer.sol\":5673:5683  msg.sender */\n      caller\n        /* \"Contracts/TTSwapV1Customer.sol\":5644:5683  _customer.contractAddress == msg.sender */\n      0xffffffffffffffffffffffffffffffffffffffff\n      and\n        /* \"Contracts/TTSwapV1Customer.sol\":5644:5653  _customer */\n      dup3\n        /* \"Contracts/TTSwapV1Customer.sol\":5644:5669  _customer.contractAddress */\n      0xc0\n      add\n      mload\n        /* \"Contracts/TTSwapV1Customer.sol\":5644:5683  _customer.contractAddress == msg.sender */\n      0xffffffffffffffffffffffffffffffffffffffff\n      and\n      eq\n        /* \"Contracts/TTSwapV1Customer.sol\":5570:5683  customerList[_customer.contractAddress].isUsed != true &&... */\n    tag_164:\n        /* \"Contracts/TTSwapV1Customer.sol\":5549:5727  require(... */\n      tag_165\n      jumpi\n      mload(0x40)\n      0x08c379a000000000000000000000000000000000000000000000000000000000\n      dup2\n      mstore\n      0x04\n      add\n      tag_166\n      swap1\n      tag_123\n      jump\t// in\n    tag_166:\n      mload(0x40)\n      dup1\n      swap2\n      sub\n      swap1\n      revert\n    tag_165:\n        /* \"Contracts/TTSwapV1Customer.sol\":5772:5773  1 */\n      0x01\n        /* \"Contracts/TTSwapV1Customer.sol\":5741:5760  gateCustomerNextKey */\n      0x05\n        /* \"Contracts/TTSwapV1Customer.sol\":5741:5768  gateCustomerNextKey[_gator] */\n      0x00\n        /* \"Contracts/TTSwapV1Customer.sol\":5761:5767  _gator */\n      dup4\n        /* \"Contracts/TTSwapV1Customer.sol\":5741:5768  gateCustomerNextKey[_gator] */\n      0xffffffffffffffffffffffffffffffffffffffff\n      and\n      0xffffffffffffffffffffffffffffffffffffffff\n      and\n      dup2\n      mstore\n      0x20\n      add\n      swap1\n      dup2\n      mstore\n      0x20\n      add\n      0x00\n      keccak256\n      0x00\n      swap1\n      sload\n      swap1\n      0x0100\n      exp\n      swap1\n      div\n      0xffffffff\n      and\n        /* \"Contracts/TTSwapV1Customer.sol\":5741:5773  gateCustomerNextKey[_gator] >= 1 */\n      0xffffffff\n      and\n      lt\n        /* \"Contracts/TTSwapV1Customer.sol\":5737:5869  if (gateCustomerNextKey[_gator] >= 1) {... */\n      tag_167\n      jumpi\n        /* \"Contracts/TTSwapV1Customer.sol\":5820:5821  1 */\n      0x01\n        /* \"Contracts/TTSwapV1Customer.sol\":5789:5808  gateCustomerNextKey */\n      0x05\n        /* \"Contracts/TTSwapV1Customer.sol\":5789:5816  gateCustomerNextKey[_gator] */\n      0x00\n        /* \"Contracts/TTSwapV1Customer.sol\":5809:5815  _gator */\n      dup4\n        /* \"Contracts/TTSwapV1Customer.sol\":5789:5816  gateCustomerNextKey[_gator] */\n      0xffffffffffffffffffffffffffffffffffffffff\n      and\n      0xffffffffffffffffffffffffffffffffffffffff\n      and\n      dup2\n      mstore\n      0x20\n      add\n      swap1\n      dup2\n      mstore\n      0x20\n      add\n      0x00\n      keccak256\n      0x00\n        /* \"Contracts/TTSwapV1Customer.sol\":5789:5821  gateCustomerNextKey[_gator] += 1 */\n      dup3\n      dup3\n      dup3\n      swap1\n      sload\n      swap1\n      0x0100\n      exp\n      swap1\n      div\n      0xffffffff\n      and\n      tag_168\n      swap2\n      swap1\n      tag_161\n      jump\t// in\n    tag_168:\n      swap3\n      pop\n      0x0100\n      exp\n      dup2\n      sload\n      dup2\n      0xffffffff\n      mul\n      not\n      and\n      swap1\n      dup4\n      0xffffffff\n      and\n      mul\n      or\n      swap1\n      sstore\n      pop\n        /* \"Contracts/TTSwapV1Customer.sol\":5737:5869  if (gateCustomerNextKey[_gator] >= 1) {... */\n      jump(tag_169)\n    tag_167:\n        /* \"Contracts/TTSwapV1Customer.sol\":5868:5869  1 */\n      0x01\n        /* \"Contracts/TTSwapV1Customer.sol\":5838:5857  gateCustomerNextKey */\n      0x05\n        /* \"Contracts/TTSwapV1Customer.sol\":5838:5865  gateCustomerNextKey[_gator] */\n      0x00\n        /* \"Contracts/TTSwapV1Customer.sol\":5858:5864  _gator */\n      dup4\n        /* \"Contracts/TTSwapV1Customer.sol\":5838:5865  gateCustomerNextKey[_gator] */\n      0xffffffffffffffffffffffffffffffffffffffff\n      and\n      0xffffffffffffffffffffffffffffffffffffffff\n      and\n      dup2\n      mstore\n      0x20\n      add\n      swap1\n      dup2\n      mstore\n      0x20\n      add\n      0x00\n      keccak256\n      0x00\n        /* \"Contracts/TTSwapV1Customer.sol\":5838:5869  gateCustomerNextKey[_gator] = 1 */\n      0x0100\n      exp\n      dup2\n      sload\n      dup2\n      0xffffffff\n      mul\n      not\n      and\n      swap1\n      dup4\n      0xffffffff\n      and\n      mul\n      or\n      swap1\n      sstore\n      pop\n        /* \"Contracts/TTSwapV1Customer.sol\":5737:5869  if (gateCustomerNextKey[_gator] >= 1) {... */\n    tag_169:\n        /* \"Contracts/TTSwapV1Customer.sol\":5897:5903  _gator */\n      dup1\n        /* \"Contracts/TTSwapV1Customer.sol\":5879:5888  _customer */\n      dup3\n        /* \"Contracts/TTSwapV1Customer.sol\":5879:5894  _customer.Gater */\n      0x80\n      add\n        /* \"Contracts/TTSwapV1Customer.sol\":5879:5903  _customer.Gater = _gator */\n      swap1\n      0xffffffffffffffffffffffffffffffffffffffff\n      and\n      swap1\n      dup2\n      0xffffffffffffffffffffffffffffffffffffffff\n      and\n      dup2\n      mstore\n      pop\n      pop\n        /* \"Contracts/TTSwapV1Customer.sol\":5934:5953  gateCustomerNextKey */\n      0x05\n        /* \"Contracts/TTSwapV1Customer.sol\":5934:5961  gateCustomerNextKey[_gator] */\n      0x00\n        /* \"Contracts/TTSwapV1Customer.sol\":5954:5960  _gator */\n      dup3\n        /* \"Contracts/TTSwapV1Customer.sol\":5934:5961  gateCustomerNextKey[_gator] */\n      0xffffffffffffffffffffffffffffffffffffffff\n      and\n      0xffffffffffffffffffffffffffffffffffffffff\n      and\n      dup2\n      mstore\n      0x20\n      add\n      swap1\n      dup2\n      mstore\n      0x20\n      add\n      0x00\n      keccak256\n      0x00\n      swap1\n      sload\n      swap1\n      0x0100\n      exp\n      swap1\n      div\n      0xffffffff\n      and\n        /* \"Contracts/TTSwapV1Customer.sol\":5913:5922  _customer */\n      dup3\n        /* \"Contracts/TTSwapV1Customer.sol\":5913:5931  _customer.GaterKey */\n      0xa0\n      add\n        /* \"Contracts/TTSwapV1Customer.sol\":5913:5961  _customer.GaterKey = gateCustomerNextKey[_gator] */\n      swap1\n      0xffffffff\n      and\n      swap1\n      dup2\n      0xffffffff\n      and\n      dup2\n      mstore\n      pop\n      pop\n        /* \"Contracts/TTSwapV1Customer.sol\":5993:5994  1 */\n      0x01\n        /* \"Contracts/TTSwapV1Customer.sol\":5971:5989  customerUniNextKey */\n      0x02\n      0x00\n        /* \"Contracts/TTSwapV1Customer.sol\":5971:5994  customerUniNextKey += 1 */\n      dup3\n      dup3\n      dup3\n      swap1\n      sload\n      swap1\n      0x0100\n      exp\n      swap1\n      div\n      0xffffffffff\n      and\n      tag_170\n      swap2\n      swap1\n      tag_125\n      jump\t// in\n    tag_170:\n      swap3\n      pop\n      0x0100\n      exp\n      dup2\n      sload\n      dup2\n      0xffffffffff\n      mul\n      not\n      and\n      swap1\n      dup4\n      0xffffffffff\n      and\n      mul\n      or\n      swap1\n      sstore\n      pop\n        /* \"Contracts/TTSwapV1Customer.sol\":6041:6051  msg.sender */\n      caller\n        /* \"Contracts/TTSwapV1Customer.sol\":6004:6018  customerUniKey */\n      0x01\n        /* \"Contracts/TTSwapV1Customer.sol\":6004:6038  customerUniKey[customerUniNextKey] */\n      0x00\n        /* \"Contracts/TTSwapV1Customer.sol\":6019:6037  customerUniNextKey */\n      0x02\n      0x00\n      swap1\n      sload\n      swap1\n      0x0100\n      exp\n      swap1\n      div\n      0xffffffffff\n      and\n        /* \"Contracts/TTSwapV1Customer.sol\":6004:6038  customerUniKey[customerUniNextKey] */\n      0xffffffffff\n      and\n      0xffffffffff\n      and\n      dup2\n      mstore\n      0x20\n      add\n      swap1\n      dup2\n      mstore\n      0x20\n      add\n      0x00\n      keccak256\n      0x00\n        /* \"Contracts/TTSwapV1Customer.sol\":6004:6051  customerUniKey[customerUniNextKey] = msg.sender */\n      0x0100\n      exp\n      dup2\n      sload\n      dup2\n      0xffffffffffffffffffffffffffffffffffffffff\n      mul\n      not\n      and\n      swap1\n      dup4\n      0xffffffffffffffffffffffffffffffffffffffff\n      and\n      mul\n      or\n      swap1\n      sstore\n      pop\n        /* \"Contracts/TTSwapV1Customer.sol\":6085:6103  customerUniNextKey */\n      0x02\n      0x00\n      swap1\n      sload\n      swap1\n      0x0100\n      exp\n      swap1\n      div\n      0xffffffffff\n      and\n        /* \"Contracts/TTSwapV1Customer.sol\":6061:6070  _customer */\n      dup3\n        /* \"Contracts/TTSwapV1Customer.sol\":6061:6082  _customer.customerKey */\n      0x60\n      add\n        /* \"Contracts/TTSwapV1Customer.sol\":6061:6103  _customer.customerKey = customerUniNextKey */\n      swap1\n      0xffffffffff\n      and\n      swap1\n      dup2\n      0xffffffffff\n      and\n      dup2\n      mstore\n      pop\n      pop\n        /* \"Contracts/TTSwapV1Customer.sol\":6155:6164  _customer */\n      dup2\n        /* \"Contracts/TTSwapV1Customer.sol\":6113:6125  customerList */\n      0x00\n        /* \"Contracts/TTSwapV1Customer.sol\":6113:6152  customerList[_customer.contractAddress] */\n      dup1\n        /* \"Contracts/TTSwapV1Customer.sol\":6126:6135  _customer */\n      dup5\n        /* \"Contracts/TTSwapV1Customer.sol\":6126:6151  _customer.contractAddress */\n      0xc0\n      add\n      mload\n        /* \"Contracts/TTSwapV1Customer.sol\":6113:6152  customerList[_customer.contractAddress] */\n      0xffffffffffffffffffffffffffffffffffffffff\n      and\n      0xffffffffffffffffffffffffffffffffffffffff\n      and\n      dup2\n      mstore\n      0x20\n      add\n      swap1\n      dup2\n      mstore\n      0x20\n      add\n      0x00\n      keccak256\n        /* \"Contracts/TTSwapV1Customer.sol\":6113:6164  customerList[_customer.contractAddress] = _customer */\n      0x00\n      dup3\n      add\n      mload\n      dup2\n      0x00\n      add\n      sstore\n      0x20\n      dup3\n      add\n      mload\n      dup2\n      0x01\n      add\n      exp(0x0100, 0x00)\n      dup2\n      sload\n      dup2\n      0xffffffff\n      mul\n      not\n      and\n      swap1\n      dup4\n      0xffffffff\n      and\n      mul\n      or\n      swap1\n      sstore\n      pop\n      0x40\n      dup3\n      add\n      mload\n      dup2\n      0x01\n      add\n      exp(0x0100, 0x04)\n      dup2\n      sload\n      dup2\n      0xffffffffffffffffffffffffffffffffffffffff\n      mul\n      not\n      and\n      swap1\n      dup4\n      0xffffffffffffffffffffffffffffffffffffffff\n      and\n      mul\n      or\n      swap1\n      sstore\n      pop\n      0x60\n      dup3\n      add\n      mload\n      dup2\n      0x01\n      add\n      exp(0x0100, 0x18)\n      dup2\n      sload\n      dup2\n      0xffffffffff\n      mul\n      not\n      and\n      swap1\n      dup4\n      0xffffffffff\n      and\n      mul\n      or\n      swap1\n      sstore\n      pop\n      0x80\n      dup3\n      add\n      mload\n      dup2\n      0x02\n      add\n      exp(0x0100, 0x00)\n      dup2\n      sload\n      dup2\n      0xffffffffffffffffffffffffffffffffffffffff\n      mul\n      not\n      and\n      swap1\n      dup4\n      0xffffffffffffffffffffffffffffffffffffffff\n      and\n      mul\n      or\n      swap1\n      sstore\n      pop\n      0xa0\n      dup3\n      add\n      mload\n      dup2\n      0x02\n      add\n      exp(0x0100, 0x14)\n      dup2\n      sload\n      dup2\n      0xffffffff\n      mul\n      not\n      and\n      swap1\n      dup4\n      0xffffffff\n      and\n      mul\n      or\n      swap1\n      sstore\n      pop\n      0xc0\n      dup3\n      add\n      mload\n      dup2\n      0x03\n      add\n      exp(0x0100, 0x00)\n      dup2\n      sload\n      dup2\n      0xffffffffffffffffffffffffffffffffffffffff\n      mul\n      not\n      and\n      swap1\n      dup4\n      0xffffffffffffffffffffffffffffffffffffffff\n      and\n      mul\n      or\n      swap1\n      sstore\n      pop\n      0xe0\n      dup3\n      add\n      mload\n      dup2\n      0x03\n      add\n      exp(0x0100, 0x14)\n      dup2\n      sload\n      dup2\n      0xff\n      mul\n      not\n      and\n      swap1\n      dup4\n      iszero\n      iszero\n      mul\n      or\n      swap1\n      sstore\n      pop\n      0x0100\n      dup3\n      add\n      mload\n      dup2\n      0x03\n      add\n      exp(0x0100, 0x15)\n      dup2\n      sload\n      dup2\n      0xff\n      mul\n      not\n      and\n      swap1\n      dup4\n      iszero\n      iszero\n      mul\n      or\n      swap1\n      sstore\n      pop\n      swap1\n      pop\n      pop\n        /* \"Contracts/TTSwapV1Customer.sol\":6230:6240  msg.sender */\n      caller\n        /* \"Contracts/TTSwapV1Customer.sol\":6174:6190  gateCustomerList */\n      0x06\n        /* \"Contracts/TTSwapV1Customer.sol\":6174:6198  gateCustomerList[_gator] */\n      0x00\n        /* \"Contracts/TTSwapV1Customer.sol\":6191:6197  _gator */\n      dup4\n        /* \"Contracts/TTSwapV1Customer.sol\":6174:6198  gateCustomerList[_gator] */\n      0xffffffffffffffffffffffffffffffffffffffff\n      and\n      0xffffffffffffffffffffffffffffffffffffffff\n      and\n      dup2\n      mstore\n      0x20\n      add\n      swap1\n      dup2\n      mstore\n      0x20\n      add\n      0x00\n      keccak256\n        /* \"Contracts/TTSwapV1Customer.sol\":6174:6227  gateCustomerList[_gator][gateCustomerNextKey[_gator]] */\n      0x00\n        /* \"Contracts/TTSwapV1Customer.sol\":6199:6218  gateCustomerNextKey */\n      0x05\n        /* \"Contracts/TTSwapV1Customer.sol\":6199:6226  gateCustomerNextKey[_gator] */\n      0x00\n        /* \"Contracts/TTSwapV1Customer.sol\":6219:6225  _gator */\n      dup6\n        /* \"Contracts/TTSwapV1Customer.sol\":6199:6226  gateCustomerNextKey[_gator] */\n      0xffffffffffffffffffffffffffffffffffffffff\n      and\n      0xffffffffffffffffffffffffffffffffffffffff\n      and\n      dup2\n      mstore\n      0x20\n      add\n      swap1\n      dup2\n      mstore\n      0x20\n      add\n      0x00\n      keccak256\n      0x00\n      swap1\n      sload\n      swap1\n      0x0100\n      exp\n      swap1\n      div\n      0xffffffff\n      and\n        /* \"Contracts/TTSwapV1Customer.sol\":6174:6227  gateCustomerList[_gator][gateCustomerNextKey[_gator]] */\n      0xffffffff\n      and\n      0xffffffff\n      and\n      dup2\n      mstore\n      0x20\n      add\n      swap1\n      dup2\n      mstore\n      0x20\n      add\n      0x00\n      keccak256\n      0x00\n        /* \"Contracts/TTSwapV1Customer.sol\":6174:6240  gateCustomerList[_gator][gateCustomerNextKey[_gator]] = msg.sender */\n      0x0100\n      exp\n      dup2\n      sload\n      dup2\n      0xffffffffffffffffffffffffffffffffffffffff\n      mul\n      not\n      and\n      swap1\n      dup4\n      0xffffffffffffffffffffffffffffffffffffffff\n      and\n      mul\n      or\n      swap1\n      sstore\n      pop\n        /* \"Contracts/TTSwapV1Customer.sol\":5448:6247  function addCustomer(LCustomer.Info memory _customer, address _gator)... */\n      pop\n      pop\n      jump\t// out\n    tag_147:\n      mload(0x40)\n      dup1\n      0x0120\n      add\n      0x40\n      mstore\n      dup1\n      0x00\n      dup1\n      not\n      and\n      dup2\n      mstore\n      0x20\n      add\n      and(0xffffffff, 0x00)\n      dup2\n      mstore\n      0x20\n      add\n      and(0xffffffffffffffffffffffffffffffffffffffff, 0x00)\n      dup2\n      mstore\n      0x20\n      add\n      and(0xffffffffff, 0x00)\n      dup2\n      mstore\n      0x20\n      add\n      and(0xffffffffffffffffffffffffffffffffffffffff, 0x00)\n      dup2\n      mstore\n      0x20\n      add\n      and(0xffffffff, 0x00)\n      dup2\n      mstore\n      0x20\n      add\n      and(0xffffffffffffffffffffffffffffffffffffffff, 0x00)\n      dup2\n      mstore\n      0x20\n      add\n      iszero(iszero(0x00))\n      dup2\n      mstore\n      0x20\n      add\n      iszero(iszero(0x00))\n      dup2\n      mstore\n      pop\n      swap1\n      jump\t// out\n        /* \"#utility.yul\":7:82   */\n    tag_171:\n        /* \"#utility.yul\":40:46   */\n      0x00\n        /* \"#utility.yul\":73:75   */\n      0x40\n        /* \"#utility.yul\":67:76   */\n      mload\n        /* \"#utility.yul\":57:76   */\n      swap1\n      pop\n        /* \"#utility.yul\":7:82   */\n      swap1\n      jump\t// out\n        /* \"#utility.yul\":88:205   */\n    tag_172:\n        /* \"#utility.yul\":197:198   */\n      0x00\n        /* \"#utility.yul\":194:195   */\n      dup1\n        /* \"#utility.yul\":187:199   */\n      revert\n        /* \"#utility.yul\":334:460   */\n    tag_174:\n        /* \"#utility.yul\":371:378   */\n      0x00\n        /* \"#utility.yul\":411:453   */\n      0xffffffffffffffffffffffffffffffffffffffff\n        /* \"#utility.yul\":404:409   */\n      dup3\n        /* \"#utility.yul\":400:454   */\n      and\n        /* \"#utility.yul\":389:454   */\n      swap1\n      pop\n        /* \"#utility.yul\":334:460   */\n      swap2\n      swap1\n      pop\n      jump\t// out\n        /* \"#utility.yul\":466:562   */\n    tag_175:\n        /* \"#utility.yul\":503:510   */\n      0x00\n        /* \"#utility.yul\":532:556   */\n      tag_227\n        /* \"#utility.yul\":550:555   */\n      dup3\n        /* \"#utility.yul\":532:556   */\n      tag_174\n      jump\t// in\n    tag_227:\n        /* \"#utility.yul\":521:556   */\n      swap1\n      pop\n        /* \"#utility.yul\":466:562   */\n      swap2\n      swap1\n      pop\n      jump\t// out\n        /* \"#utility.yul\":568:690   */\n    tag_176:\n        /* \"#utility.yul\":641:665   */\n      tag_229\n        /* \"#utility.yul\":659:664   */\n      dup2\n        /* \"#utility.yul\":641:665   */\n      tag_175\n      jump\t// in\n    tag_229:\n        /* \"#utility.yul\":634:639   */\n      dup2\n        /* \"#utility.yul\":631:666   */\n      eq\n        /* \"#utility.yul\":621:684   */\n      tag_230\n      jumpi\n        /* \"#utility.yul\":680:681   */\n      0x00\n        /* \"#utility.yul\":677:678   */\n      dup1\n        /* \"#utility.yul\":670:682   */\n      revert\n        /* \"#utility.yul\":621:684   */\n    tag_230:\n        /* \"#utility.yul\":568:690   */\n      pop\n      jump\t// out\n        /* \"#utility.yul\":696:835   */\n    tag_177:\n        /* \"#utility.yul\":742:747   */\n      0x00\n        /* \"#utility.yul\":780:786   */\n      dup2\n        /* \"#utility.yul\":767:787   */\n      calldataload\n        /* \"#utility.yul\":758:787   */\n      swap1\n      pop\n        /* \"#utility.yul\":796:829   */\n      tag_232\n        /* \"#utility.yul\":823:828   */\n      dup2\n        /* \"#utility.yul\":796:829   */\n      tag_176\n      jump\t// in\n    tag_232:\n        /* \"#utility.yul\":696:835   */\n      swap3\n      swap2\n      pop\n      pop\n      jump\t// out\n        /* \"#utility.yul\":841:1170   */\n    tag_28:\n        /* \"#utility.yul\":900:906   */\n      0x00\n        /* \"#utility.yul\":949:951   */\n      0x20\n        /* \"#utility.yul\":937:946   */\n      dup3\n        /* \"#utility.yul\":928:935   */\n      dup5\n        /* \"#utility.yul\":924:947   */\n      sub\n        /* \"#utility.yul\":920:952   */\n      slt\n        /* \"#utility.yul\":917:1036   */\n      iszero\n      tag_234\n      jumpi\n        /* \"#utility.yul\":955:1034   */\n      tag_235\n      tag_172\n      jump\t// in\n    tag_235:\n        /* \"#utility.yul\":917:1036   */\n    tag_234:\n        /* \"#utility.yul\":1075:1076   */\n      0x00\n        /* \"#utility.yul\":1100:1153   */\n      tag_236\n        /* \"#utility.yul\":1145:1152   */\n      dup5\n        /* \"#utility.yul\":1136:1142   */\n      dup3\n        /* \"#utility.yul\":1125:1134   */\n      dup6\n        /* \"#utility.yul\":1121:1143   */\n      add\n        /* \"#utility.yul\":1100:1153   */\n      tag_177\n      jump\t// in\n    tag_236:\n        /* \"#utility.yul\":1090:1153   */\n      swap2\n      pop\n        /* \"#utility.yul\":1046:1163   */\n      pop\n        /* \"#utility.yul\":841:1170   */\n      swap3\n      swap2\n      pop\n      pop\n      jump\t// out\n        /* \"#utility.yul\":1176:1293   */\n    tag_178:\n        /* \"#utility.yul\":1285:1286   */\n      0x00\n        /* \"#utility.yul\":1282:1283   */\n      dup1\n        /* \"#utility.yul\":1275:1287   */\n      revert\n        /* \"#utility.yul\":1299:1401   */\n    tag_179:\n        /* \"#utility.yul\":1340:1346   */\n      0x00\n        /* \"#utility.yul\":1391:1393   */\n      0x1f\n        /* \"#utility.yul\":1387:1394   */\n      not\n        /* \"#utility.yul\":1382:1384   */\n      0x1f\n        /* \"#utility.yul\":1375:1380   */\n      dup4\n        /* \"#utility.yul\":1371:1385   */\n      add\n        /* \"#utility.yul\":1367:1395   */\n      and\n        /* \"#utility.yul\":1357:1395   */\n      swap1\n      pop\n        /* \"#utility.yul\":1299:1401   */\n      swap2\n      swap1\n      pop\n      jump\t// out\n        /* \"#utility.yul\":1407:1587   */\n    tag_180:\n        /* \"#utility.yul\":1455:1532   */\n      0x4e487b7100000000000000000000000000000000000000000000000000000000\n        /* \"#utility.yul\":1452:1453   */\n      0x00\n        /* \"#utility.yul\":1445:1533   */\n      mstore\n        /* \"#utility.yul\":1552:1556   */\n      0x41\n        /* \"#utility.yul\":1549:1550   */\n      0x04\n        /* \"#utility.yul\":1542:1557   */\n      mstore\n        /* \"#utility.yul\":1576:1580   */\n      0x24\n        /* \"#utility.yul\":1573:1574   */\n      0x00\n        /* \"#utility.yul\":1566:1581   */\n      revert\n        /* \"#utility.yul\":1593:1874   */\n    tag_181:\n        /* \"#utility.yul\":1676:1703   */\n      tag_241\n        /* \"#utility.yul\":1698:1702   */\n      dup3\n        /* \"#utility.yul\":1676:1703   */\n      tag_179\n      jump\t// in\n    tag_241:\n        /* \"#utility.yul\":1668:1674   */\n      dup2\n        /* \"#utility.yul\":1664:1704   */\n      add\n        /* \"#utility.yul\":1806:1812   */\n      dup2\n        /* \"#utility.yul\":1794:1804   */\n      dup2\n        /* \"#utility.yul\":1791:1813   */\n      lt\n        /* \"#utility.yul\":1770:1788   */\n      0xffffffffffffffff\n        /* \"#utility.yul\":1758:1768   */\n      dup3\n        /* \"#utility.yul\":1755:1789   */\n      gt\n        /* \"#utility.yul\":1752:1814   */\n      or\n        /* \"#utility.yul\":1749:1837   */\n      iszero\n      tag_242\n      jumpi\n        /* \"#utility.yul\":1817:1835   */\n      tag_243\n      tag_180\n      jump\t// in\n    tag_243:\n        /* \"#utility.yul\":1749:1837   */\n    tag_242:\n        /* \"#utility.yul\":1857:1867   */\n      dup1\n        /* \"#utility.yul\":1853:1855   */\n      0x40\n        /* \"#utility.yul\":1846:1868   */\n      mstore\n        /* \"#utility.yul\":1636:1874   */\n      pop\n        /* \"#utility.yul\":1593:1874   */\n      pop\n      pop\n      jump\t// out\n        /* \"#utility.yul\":1880:2009   */\n    tag_182:\n        /* \"#utility.yul\":1914:1920   */\n      0x00\n        /* \"#utility.yul\":1941:1961   */\n      tag_245\n      tag_171\n      jump\t// in\n    tag_245:\n        /* \"#utility.yul\":1931:1961   */\n      swap1\n      pop\n        /* \"#utility.yul\":1970:2003   */\n      tag_246\n        /* \"#utility.yul\":1998:2002   */\n      dup3\n        /* \"#utility.yul\":1990:1996   */\n      dup3\n        /* \"#utility.yul\":1970:2003   */\n      tag_181\n      jump\t// in\n    tag_246:\n        /* \"#utility.yul\":1880:2009   */\n      swap2\n      swap1\n      pop\n      jump\t// out\n        /* \"#utility.yul\":2138:2215   */\n    tag_184:\n        /* \"#utility.yul\":2175:2182   */\n      0x00\n        /* \"#utility.yul\":2204:2209   */\n      dup2\n        /* \"#utility.yul\":2193:2209   */\n      swap1\n      pop\n        /* \"#utility.yul\":2138:2215   */\n      swap2\n      swap1\n      pop\n      jump\t// out\n        /* \"#utility.yul\":2221:2343   */\n    tag_185:\n        /* \"#utility.yul\":2294:2318   */\n      tag_250\n        /* \"#utility.yul\":2312:2317   */\n      dup2\n        /* \"#utility.yul\":2294:2318   */\n      tag_184\n      jump\t// in\n    tag_250:\n        /* \"#utility.yul\":2287:2292   */\n      dup2\n        /* \"#utility.yul\":2284:2319   */\n      eq\n        /* \"#utility.yul\":2274:2337   */\n      tag_251\n      jumpi\n        /* \"#utility.yul\":2333:2334   */\n      0x00\n        /* \"#utility.yul\":2330:2331   */\n      dup1\n        /* \"#utility.yul\":2323:2335   */\n      revert\n        /* \"#utility.yul\":2274:2337   */\n    tag_251:\n        /* \"#utility.yul\":2221:2343   */\n      pop\n      jump\t// out\n        /* \"#utility.yul\":2349:2488   */\n    tag_186:\n        /* \"#utility.yul\":2395:2400   */\n      0x00\n        /* \"#utility.yul\":2433:2439   */\n      dup2\n        /* \"#utility.yul\":2420:2440   */\n      calldataload\n        /* \"#utility.yul\":2411:2440   */\n      swap1\n      pop\n        /* \"#utility.yul\":2449:2482   */\n      tag_253\n        /* \"#utility.yul\":2476:2481   */\n      dup2\n        /* \"#utility.yul\":2449:2482   */\n      tag_185\n      jump\t// in\n    tag_253:\n        /* \"#utility.yul\":2349:2488   */\n      swap3\n      swap2\n      pop\n      pop\n      jump\t// out\n        /* \"#utility.yul\":2494:2587   */\n    tag_187:\n        /* \"#utility.yul\":2530:2537   */\n      0x00\n        /* \"#utility.yul\":2570:2580   */\n      0xffffffff\n        /* \"#utility.yul\":2563:2568   */\n      dup3\n        /* \"#utility.yul\":2559:2581   */\n      and\n        /* \"#utility.yul\":2548:2581   */\n      swap1\n      pop\n        /* \"#utility.yul\":2494:2587   */\n      swap2\n      swap1\n      pop\n      jump\t// out\n        /* \"#utility.yul\":2593:2713   */\n    tag_188:\n        /* \"#utility.yul\":2665:2688   */\n      tag_256\n        /* \"#utility.yul\":2682:2687   */\n      dup2\n        /* \"#utility.yul\":2665:2688   */\n      tag_187\n      jump\t// in\n    tag_256:\n        /* \"#utility.yul\":2658:2663   */\n      dup2\n        /* \"#utility.yul\":2655:2689   */\n      eq\n        /* \"#utility.yul\":2645:2707   */\n      tag_257\n      jumpi\n        /* \"#utility.yul\":2703:2704   */\n      0x00\n        /* \"#utility.yul\":2700:2701   */\n      dup1\n        /* \"#utility.yul\":2693:2705   */\n      revert\n        /* \"#utility.yul\":2645:2707   */\n    tag_257:\n        /* \"#utility.yul\":2593:2713   */\n      pop\n      jump\t// out\n        /* \"#utility.yul\":2719:2856   */\n    tag_189:\n        /* \"#utility.yul\":2764:2769   */\n      0x00\n        /* \"#utility.yul\":2802:2808   */\n      dup2\n        /* \"#utility.yul\":2789:2809   */\n      calldataload\n        /* \"#utility.yul\":2780:2809   */\n      swap1\n      pop\n        /* \"#utility.yul\":2818:2850   */\n      tag_259\n        /* \"#utility.yul\":2844:2849   */\n      dup2\n        /* \"#utility.yul\":2818:2850   */\n      tag_188\n      jump\t// in\n    tag_259:\n        /* \"#utility.yul\":2719:2856   */\n      swap3\n      swap2\n      pop\n      pop\n      jump\t// out\n        /* \"#utility.yul\":2862:2957   */\n    tag_190:\n        /* \"#utility.yul\":2898:2905   */\n      0x00\n        /* \"#utility.yul\":2938:2950   */\n      0xffffffffff\n        /* \"#utility.yul\":2931:2936   */\n      dup3\n        /* \"#utility.yul\":2927:2951   */\n      and\n        /* \"#utility.yul\":2916:2951   */\n      swap1\n      pop\n        /* \"#utility.yul\":2862:2957   */\n      swap2\n      swap1\n      pop\n      jump\t// out\n        /* \"#utility.yul\":2963:3083   */\n    tag_191:\n        /* \"#utility.yul\":3035:3058   */\n      tag_262\n        /* \"#utility.yul\":3052:3057   */\n      dup2\n        /* \"#utility.yul\":3035:3058   */\n      tag_190\n      jump\t// in\n    tag_262:\n        /* \"#utility.yul\":3028:3033   */\n      dup2\n        /* \"#utility.yul\":3025:3059   */\n      eq\n        /* \"#utility.yul\":3015:3077   */\n      tag_263\n      jumpi\n        /* \"#utility.yul\":3073:3074   */\n      0x00\n        /* \"#utility.yul\":3070:3071   */\n      dup1\n        /* \"#utility.yul\":3063:3075   */\n      revert\n        /* \"#utility.yul\":3015:3077   */\n    tag_263:\n        /* \"#utility.yul\":2963:3083   */\n      pop\n      jump\t// out\n        /* \"#utility.yul\":3089:3226   */\n    tag_192:\n        /* \"#utility.yul\":3134:3139   */\n      0x00\n        /* \"#utility.yul\":3172:3178   */\n      dup2\n        /* \"#utility.yul\":3159:3179   */\n      calldataload\n        /* \"#utility.yul\":3150:3179   */\n      swap1\n      pop\n        /* \"#utility.yul\":3188:3220   */\n      tag_265\n        /* \"#utility.yul\":3214:3219   */\n      dup2\n        /* \"#utility.yul\":3188:3220   */\n      tag_191\n      jump\t// in\n    tag_265:\n        /* \"#utility.yul\":3089:3226   */\n      swap3\n      swap2\n      pop\n      pop\n      jump\t// out\n        /* \"#utility.yul\":3232:3322   */\n    tag_193:\n        /* \"#utility.yul\":3266:3273   */\n      0x00\n        /* \"#utility.yul\":3309:3314   */\n      dup2\n        /* \"#utility.yul\":3302:3315   */\n      iszero\n        /* \"#utility.yul\":3295:3316   */\n      iszero\n        /* \"#utility.yul\":3284:3316   */\n      swap1\n      pop\n        /* \"#utility.yul\":3232:3322   */\n      swap2\n      swap1\n      pop\n      jump\t// out\n        /* \"#utility.yul\":3328:3444   */\n    tag_194:\n        /* \"#utility.yul\":3398:3419   */\n      tag_268\n        /* \"#utility.yul\":3413:3418   */\n      dup2\n        /* \"#utility.yul\":3398:3419   */\n      tag_193\n      jump\t// in\n    tag_268:\n        /* \"#utility.yul\":3391:3396   */\n      dup2\n        /* \"#utility.yul\":3388:3420   */\n      eq\n        /* \"#utility.yul\":3378:3438   */\n      tag_269\n      jumpi\n        /* \"#utility.yul\":3434:3435   */\n      0x00\n        /* \"#utility.yul\":3431:3432   */\n      dup1\n        /* \"#utility.yul\":3424:3436   */\n      revert\n        /* \"#utility.yul\":3378:3438   */\n    tag_269:\n        /* \"#utility.yul\":3328:3444   */\n      pop\n      jump\t// out\n        /* \"#utility.yul\":3450:3583   */\n    tag_195:\n        /* \"#utility.yul\":3493:3498   */\n      0x00\n        /* \"#utility.yul\":3531:3537   */\n      dup2\n        /* \"#utility.yul\":3518:3538   */\n      calldataload\n        /* \"#utility.yul\":3509:3538   */\n      swap1\n      pop\n        /* \"#utility.yul\":3547:3577   */\n      tag_271\n        /* \"#utility.yul\":3571:3576   */\n      dup2\n        /* \"#utility.yul\":3547:3577   */\n      tag_194\n      jump\t// in\n    tag_271:\n        /* \"#utility.yul\":3450:3583   */\n      swap3\n      swap2\n      pop\n      pop\n      jump\t// out\n        /* \"#utility.yul\":3618:5366   */\n    tag_196:\n        /* \"#utility.yul\":3688:3693   */\n      0x00\n        /* \"#utility.yul\":3732:3738   */\n      0x0120\n        /* \"#utility.yul\":3720:3729   */\n      dup3\n        /* \"#utility.yul\":3715:3718   */\n      dup5\n        /* \"#utility.yul\":3711:3730   */\n      sub\n        /* \"#utility.yul\":3707:3739   */\n      slt\n        /* \"#utility.yul\":3704:3823   */\n      iszero\n      tag_273\n      jumpi\n        /* \"#utility.yul\":3742:3821   */\n      tag_274\n      tag_178\n      jump\t// in\n    tag_274:\n        /* \"#utility.yul\":3704:3823   */\n    tag_273:\n        /* \"#utility.yul\":3841:3864   */\n      tag_275\n        /* \"#utility.yul\":3857:3863   */\n      0x0120\n        /* \"#utility.yul\":3841:3864   */\n      tag_182\n      jump\t// in\n    tag_275:\n        /* \"#utility.yul\":3832:3864   */\n      swap1\n      pop\n        /* \"#utility.yul\":3927:3928   */\n      0x00\n        /* \"#utility.yul\":3967:4016   */\n      tag_276\n        /* \"#utility.yul\":4012:4015   */\n      dup5\n        /* \"#utility.yul\":4003:4009   */\n      dup3\n        /* \"#utility.yul\":3992:4001   */\n      dup6\n        /* \"#utility.yul\":3988:4010   */\n      add\n        /* \"#utility.yul\":3967:4016   */\n      tag_186\n      jump\t// in\n    tag_276:\n        /* \"#utility.yul\":3960:3964   */\n      0x00\n        /* \"#utility.yul\":3953:3958   */\n      dup4\n        /* \"#utility.yul\":3949:3965   */\n      add\n        /* \"#utility.yul\":3942:4017   */\n      mstore\n        /* \"#utility.yul\":3874:4028   */\n      pop\n        /* \"#utility.yul\":4098:4100   */\n      0x20\n        /* \"#utility.yul\":4139:4187   */\n      tag_277\n        /* \"#utility.yul\":4183:4186   */\n      dup5\n        /* \"#utility.yul\":4174:4180   */\n      dup3\n        /* \"#utility.yul\":4163:4172   */\n      dup6\n        /* \"#utility.yul\":4159:4181   */\n      add\n        /* \"#utility.yul\":4139:4187   */\n      tag_189\n      jump\t// in\n    tag_277:\n        /* \"#utility.yul\":4132:4136   */\n      0x20\n        /* \"#utility.yul\":4125:4130   */\n      dup4\n        /* \"#utility.yul\":4121:4137   */\n      add\n        /* \"#utility.yul\":4114:4188   */\n      mstore\n        /* \"#utility.yul\":4038:4199   */\n      pop\n        /* \"#utility.yul\":4265:4267   */\n      0x40\n        /* \"#utility.yul\":4306:4355   */\n      tag_278\n        /* \"#utility.yul\":4351:4354   */\n      dup5\n        /* \"#utility.yul\":4342:4348   */\n      dup3\n        /* \"#utility.yul\":4331:4340   */\n      dup6\n        /* \"#utility.yul\":4327:4349   */\n      add\n        /* \"#utility.yul\":4306:4355   */\n      tag_177\n      jump\t// in\n    tag_278:\n        /* \"#utility.yul\":4299:4303   */\n      0x40\n        /* \"#utility.yul\":4292:4297   */\n      dup4\n        /* \"#utility.yul\":4288:4304   */\n      add\n        /* \"#utility.yul\":4281:4356   */\n      mstore\n        /* \"#utility.yul\":4209:4367   */\n      pop\n        /* \"#utility.yul\":4433:4435   */\n      0x60\n        /* \"#utility.yul\":4474:4522   */\n      tag_279\n        /* \"#utility.yul\":4518:4521   */\n      dup5\n        /* \"#utility.yul\":4509:4515   */\n      dup3\n        /* \"#utility.yul\":4498:4507   */\n      dup6\n        /* \"#utility.yul\":4494:4516   */\n      add\n        /* \"#utility.yul\":4474:4522   */\n      tag_192\n      jump\t// in\n    tag_279:\n        /* \"#utility.yul\":4467:4471   */\n      0x60\n        /* \"#utility.yul\":4460:4465   */\n      dup4\n        /* \"#utility.yul\":4456:4472   */\n      add\n        /* \"#utility.yul\":4449:4523   */\n      mstore\n        /* \"#utility.yul\":4377:4534   */\n      pop\n        /* \"#utility.yul\":4594:4597   */\n      0x80\n        /* \"#utility.yul\":4636:4685   */\n      tag_280\n        /* \"#utility.yul\":4681:4684   */\n      dup5\n        /* \"#utility.yul\":4672:4678   */\n      dup3\n        /* \"#utility.yul\":4661:4670   */\n      dup6\n        /* \"#utility.yul\":4657:4679   */\n      add\n        /* \"#utility.yul\":4636:4685   */\n      tag_177\n      jump\t// in\n    tag_280:\n        /* \"#utility.yul\":4629:4633   */\n      0x80\n        /* \"#utility.yul\":4622:4627   */\n      dup4\n        /* \"#utility.yul\":4618:4634   */\n      add\n        /* \"#utility.yul\":4611:4686   */\n      mstore\n        /* \"#utility.yul\":4544:4697   */\n      pop\n        /* \"#utility.yul\":4760:4763   */\n      0xa0\n        /* \"#utility.yul\":4802:4850   */\n      tag_281\n        /* \"#utility.yul\":4846:4849   */\n      dup5\n        /* \"#utility.yul\":4837:4843   */\n      dup3\n        /* \"#utility.yul\":4826:4835   */\n      dup6\n        /* \"#utility.yul\":4822:4844   */\n      add\n        /* \"#utility.yul\":4802:4850   */\n      tag_189\n      jump\t// in\n    tag_281:\n        /* \"#utility.yul\":4795:4799   */\n      0xa0\n        /* \"#utility.yul\":4788:4793   */\n      dup4\n        /* \"#utility.yul\":4784:4800   */\n      add\n        /* \"#utility.yul\":4777:4851   */\n      mstore\n        /* \"#utility.yul\":4707:4862   */\n      pop\n        /* \"#utility.yul\":4932:4935   */\n      0xc0\n        /* \"#utility.yul\":4974:5023   */\n      tag_282\n        /* \"#utility.yul\":5019:5022   */\n      dup5\n        /* \"#utility.yul\":5010:5016   */\n      dup3\n        /* \"#utility.yul\":4999:5008   */\n      dup6\n        /* \"#utility.yul\":4995:5017   */\n      add\n        /* \"#utility.yul\":4974:5023   */\n      tag_177\n      jump\t// in\n    tag_282:\n        /* \"#utility.yul\":4967:4971   */\n      0xc0\n        /* \"#utility.yul\":4960:4965   */\n      dup4\n        /* \"#utility.yul\":4956:4972   */\n      add\n        /* \"#utility.yul\":4949:5024   */\n      mstore\n        /* \"#utility.yul\":4872:5035   */\n      pop\n        /* \"#utility.yul\":5096:5099   */\n      0xe0\n        /* \"#utility.yul\":5138:5184   */\n      tag_283\n        /* \"#utility.yul\":5180:5183   */\n      dup5\n        /* \"#utility.yul\":5171:5177   */\n      dup3\n        /* \"#utility.yul\":5160:5169   */\n      dup6\n        /* \"#utility.yul\":5156:5178   */\n      add\n        /* \"#utility.yul\":5138:5184   */\n      tag_195\n      jump\t// in\n    tag_283:\n        /* \"#utility.yul\":5131:5135   */\n      0xe0\n        /* \"#utility.yul\":5124:5129   */\n      dup4\n        /* \"#utility.yul\":5120:5136   */\n      add\n        /* \"#utility.yul\":5113:5185   */\n      mstore\n        /* \"#utility.yul\":5045:5196   */\n      pop\n        /* \"#utility.yul\":5257:5260   */\n      0x0100\n        /* \"#utility.yul\":5301:5347   */\n      tag_284\n        /* \"#utility.yul\":5343:5346   */\n      dup5\n        /* \"#utility.yul\":5334:5340   */\n      dup3\n        /* \"#utility.yul\":5323:5332   */\n      dup6\n        /* \"#utility.yul\":5319:5341   */\n      add\n        /* \"#utility.yul\":5301:5347   */\n      tag_195\n      jump\t// in\n    tag_284:\n        /* \"#utility.yul\":5292:5298   */\n      0x0100\n        /* \"#utility.yul\":5285:5290   */\n      dup4\n        /* \"#utility.yul\":5281:5299   */\n      add\n        /* \"#utility.yul\":5274:5348   */\n      mstore\n        /* \"#utility.yul\":5206:5359   */\n      pop\n        /* \"#utility.yul\":3618:5366   */\n      swap3\n      swap2\n      pop\n      pop\n      jump\t// out\n        /* \"#utility.yul\":5372:5744   */\n    tag_32:\n        /* \"#utility.yul\":5452:5458   */\n      0x00\n        /* \"#utility.yul\":5501:5504   */\n      0x0120\n        /* \"#utility.yul\":5489:5498   */\n      dup3\n        /* \"#utility.yul\":5480:5487   */\n      dup5\n        /* \"#utility.yul\":5476:5499   */\n      sub\n        /* \"#utility.yul\":5472:5505   */\n      slt\n        /* \"#utility.yul\":5469:5589   */\n      iszero\n      tag_286\n      jumpi\n        /* \"#utility.yul\":5508:5587   */\n      tag_287\n      tag_172\n      jump\t// in\n    tag_287:\n        /* \"#utility.yul\":5469:5589   */\n    tag_286:\n        /* \"#utility.yul\":5628:5629   */\n      0x00\n        /* \"#utility.yul\":5653:5727   */\n      tag_288\n        /* \"#utility.yul\":5719:5726   */\n      dup5\n        /* \"#utility.yul\":5710:5716   */\n      dup3\n        /* \"#utility.yul\":5699:5708   */\n      dup6\n        /* \"#utility.yul\":5695:5717   */\n      add\n        /* \"#utility.yul\":5653:5727   */\n      tag_196\n      jump\t// in\n    tag_288:\n        /* \"#utility.yul\":5643:5727   */\n      swap2\n      pop\n        /* \"#utility.yul\":5599:5737   */\n      pop\n        /* \"#utility.yul\":5372:5744   */\n      swap3\n      swap2\n      pop\n      pop\n      jump\t// out\n        /* \"#utility.yul\":5750:5865   */\n    tag_197:\n        /* \"#utility.yul\":5835:5858   */\n      tag_290\n        /* \"#utility.yul\":5852:5857   */\n      dup2\n        /* \"#utility.yul\":5835:5858   */\n      tag_190\n      jump\t// in\n    tag_290:\n        /* \"#utility.yul\":5830:5833   */\n      dup3\n        /* \"#utility.yul\":5823:5859   */\n      mstore\n        /* \"#utility.yul\":5750:5865   */\n      pop\n      pop\n      jump\t// out\n        /* \"#utility.yul\":5871:6089   */\n    tag_37:\n        /* \"#utility.yul\":5962:5966   */\n      0x00\n        /* \"#utility.yul\":6000:6002   */\n      0x20\n        /* \"#utility.yul\":5989:5998   */\n      dup3\n        /* \"#utility.yul\":5985:6003   */\n      add\n        /* \"#utility.yul\":5977:6003   */\n      swap1\n      pop\n        /* \"#utility.yul\":6013:6082   */\n      tag_292\n        /* \"#utility.yul\":6079:6080   */\n      0x00\n        /* \"#utility.yul\":6068:6077   */\n      dup4\n        /* \"#utility.yul\":6064:6081   */\n      add\n        /* \"#utility.yul\":6055:6061   */\n      dup5\n        /* \"#utility.yul\":6013:6082   */\n      tag_197\n      jump\t// in\n    tag_292:\n        /* \"#utility.yul\":5871:6089   */\n      swap3\n      swap2\n      pop\n      pop\n      jump\t// out\n        /* \"#utility.yul\":6095:6424   */\n    tag_40:\n        /* \"#utility.yul\":6154:6160   */\n      0x00\n        /* \"#utility.yul\":6203:6205   */\n      0x20\n        /* \"#utility.yul\":6191:6200   */\n      dup3\n        /* \"#utility.yul\":6182:6189   */\n      dup5\n        /* \"#utility.yul\":6178:6201   */\n      sub\n        /* \"#utility.yul\":6174:6206   */\n      slt\n        /* \"#utility.yul\":6171:6290   */\n      iszero\n      tag_294\n      jumpi\n        /* \"#utility.yul\":6209:6288   */\n      tag_295\n      tag_172\n      jump\t// in\n    tag_295:\n        /* \"#utility.yul\":6171:6290   */\n    tag_294:\n        /* \"#utility.yul\":6329:6330   */\n      0x00\n        /* \"#utility.yul\":6354:6407   */\n      tag_296\n        /* \"#utility.yul\":6399:6406   */\n      dup5\n        /* \"#utility.yul\":6390:6396   */\n      dup3\n        /* \"#utility.yul\":6379:6388   */\n      dup6\n        /* \"#utility.yul\":6375:6397   */\n      add\n        /* \"#utility.yul\":6354:6407   */\n      tag_186\n      jump\t// in\n    tag_296:\n        /* \"#utility.yul\":6344:6407   */\n      swap2\n      pop\n        /* \"#utility.yul\":6300:6417   */\n      pop\n        /* \"#utility.yul\":6095:6424   */\n      swap3\n      swap2\n      pop\n      pop\n      jump\t// out\n        /* \"#utility.yul\":6430:6757   */\n    tag_44:\n        /* \"#utility.yul\":6488:6494   */\n      0x00\n        /* \"#utility.yul\":6537:6539   */\n      0x20\n        /* \"#utility.yul\":6525:6534   */\n      dup3\n        /* \"#utility.yul\":6516:6523   */\n      dup5\n        /* \"#utility.yul\":6512:6535   */\n      sub\n        /* \"#utility.yul\":6508:6540   */\n      slt\n        /* \"#utility.yul\":6505:6624   */\n      iszero\n      tag_298\n      jumpi\n        /* \"#utility.yul\":6543:6622   */\n      tag_299\n      tag_172\n      jump\t// in\n    tag_299:\n        /* \"#utility.yul\":6505:6624   */\n    tag_298:\n        /* \"#utility.yul\":6663:6664   */\n      0x00\n        /* \"#utility.yul\":6688:6740   */\n      tag_300\n        /* \"#utility.yul\":6732:6739   */\n      dup5\n        /* \"#utility.yul\":6723:6729   */\n      dup3\n        /* \"#utility.yul\":6712:6721   */\n      dup6\n        /* \"#utility.yul\":6708:6730   */\n      add\n        /* \"#utility.yul\":6688:6740   */\n      tag_192\n      jump\t// in\n    tag_300:\n        /* \"#utility.yul\":6678:6740   */\n      swap2\n      pop\n        /* \"#utility.yul\":6634:6750   */\n      pop\n        /* \"#utility.yul\":6430:6757   */\n      swap3\n      swap2\n      pop\n      pop\n      jump\t// out\n        /* \"#utility.yul\":6763:6881   */\n    tag_198:\n        /* \"#utility.yul\":6850:6874   */\n      tag_302\n        /* \"#utility.yul\":6868:6873   */\n      dup2\n        /* \"#utility.yul\":6850:6874   */\n      tag_175\n      jump\t// in\n    tag_302:\n        /* \"#utility.yul\":6845:6848   */\n      dup3\n        /* \"#utility.yul\":6838:6875   */\n      mstore\n        /* \"#utility.yul\":6763:6881   */\n      pop\n      pop\n      jump\t// out\n        /* \"#utility.yul\":6887:7109   */\n    tag_47:\n        /* \"#utility.yul\":6980:6984   */\n      0x00\n        /* \"#utility.yul\":7018:7020   */\n      0x20\n        /* \"#utility.yul\":7007:7016   */\n      dup3\n        /* \"#utility.yul\":7003:7021   */\n      add\n        /* \"#utility.yul\":6995:7021   */\n      swap1\n      pop\n        /* \"#utility.yul\":7031:7102   */\n      tag_304\n        /* \"#utility.yul\":7099:7100   */\n      0x00\n        /* \"#utility.yul\":7088:7097   */\n      dup4\n        /* \"#utility.yul\":7084:7101   */\n      add\n        /* \"#utility.yul\":7075:7081   */\n      dup5\n        /* \"#utility.yul\":7031:7102   */\n      tag_198\n      jump\t// in\n    tag_304:\n        /* \"#utility.yul\":6887:7109   */\n      swap3\n      swap2\n      pop\n      pop\n      jump\t// out\n        /* \"#utility.yul\":7115:7587   */\n    tag_56:\n        /* \"#utility.yul\":7182:7188   */\n      0x00\n        /* \"#utility.yul\":7190:7196   */\n      dup1\n        /* \"#utility.yul\":7239:7241   */\n      0x40\n        /* \"#utility.yul\":7227:7236   */\n      dup4\n        /* \"#utility.yul\":7218:7225   */\n      dup6\n        /* \"#utility.yul\":7214:7237   */\n      sub\n        /* \"#utility.yul\":7210:7242   */\n      slt\n        /* \"#utility.yul\":7207:7326   */\n      iszero\n      tag_306\n      jumpi\n        /* \"#utility.yul\":7245:7324   */\n      tag_307\n      tag_172\n      jump\t// in\n    tag_307:\n        /* \"#utility.yul\":7207:7326   */\n    tag_306:\n        /* \"#utility.yul\":7365:7366   */\n      0x00\n        /* \"#utility.yul\":7390:7443   */\n      tag_308\n        /* \"#utility.yul\":7435:7442   */\n      dup6\n        /* \"#utility.yul\":7426:7432   */\n      dup3\n        /* \"#utility.yul\":7415:7424   */\n      dup7\n        /* \"#utility.yul\":7411:7433   */\n      add\n        /* \"#utility.yul\":7390:7443   */\n      tag_177\n      jump\t// in\n    tag_308:\n        /* \"#utility.yul\":7380:7443   */\n      swap3\n      pop\n        /* \"#utility.yul\":7336:7453   */\n      pop\n        /* \"#utility.yul\":7492:7494   */\n      0x20\n        /* \"#utility.yul\":7518:7570   */\n      tag_309\n        /* \"#utility.yul\":7562:7569   */\n      dup6\n        /* \"#utility.yul\":7553:7559   */\n      dup3\n        /* \"#utility.yul\":7542:7551   */\n      dup7\n        /* \"#utility.yul\":7538:7560   */\n      add\n        /* \"#utility.yul\":7518:7570   */\n      tag_189\n      jump\t// in\n    tag_309:\n        /* \"#utility.yul\":7508:7570   */\n      swap2\n      pop\n        /* \"#utility.yul\":7463:7580   */\n      pop\n        /* \"#utility.yul\":7115:7587   */\n      swap3\n      pop\n      swap3\n      swap1\n      pop\n      jump\t// out\n        /* \"#utility.yul\":7593:7702   */\n    tag_199:\n        /* \"#utility.yul\":7674:7695   */\n      tag_311\n        /* \"#utility.yul\":7689:7694   */\n      dup2\n        /* \"#utility.yul\":7674:7695   */\n      tag_193\n      jump\t// in\n    tag_311:\n        /* \"#utility.yul\":7669:7672   */\n      dup3\n        /* \"#utility.yul\":7662:7696   */\n      mstore\n        /* \"#utility.yul\":7593:7702   */\n      pop\n      pop\n      jump\t// out\n        /* \"#utility.yul\":7708:7918   */\n    tag_63:\n        /* \"#utility.yul\":7795:7799   */\n      0x00\n        /* \"#utility.yul\":7833:7835   */\n      0x20\n        /* \"#utility.yul\":7822:7831   */\n      dup3\n        /* \"#utility.yul\":7818:7836   */\n      add\n        /* \"#utility.yul\":7810:7836   */\n      swap1\n      pop\n        /* \"#utility.yul\":7846:7911   */\n      tag_313\n        /* \"#utility.yul\":7908:7909   */\n      0x00\n        /* \"#utility.yul\":7897:7906   */\n      dup4\n        /* \"#utility.yul\":7893:7910   */\n      add\n        /* \"#utility.yul\":7884:7890   */\n      dup5\n        /* \"#utility.yul\":7846:7911   */\n      tag_199\n      jump\t// in\n    tag_313:\n        /* \"#utility.yul\":7708:7918   */\n      swap3\n      swap2\n      pop\n      pop\n      jump\t// out\n        /* \"#utility.yul\":7924:8039   */\n    tag_200:\n        /* \"#utility.yul\":8009:8032   */\n      tag_315\n        /* \"#utility.yul\":8026:8031   */\n      dup2\n        /* \"#utility.yul\":8009:8032   */\n      tag_187\n      jump\t// in\n    tag_315:\n        /* \"#utility.yul\":8004:8007   */\n      dup3\n        /* \"#utility.yul\":7997:8033   */\n      mstore\n        /* \"#utility.yul\":7924:8039   */\n      pop\n      pop\n      jump\t// out\n        /* \"#utility.yul\":8045:8263   */\n    tag_72:\n        /* \"#utility.yul\":8136:8140   */\n      0x00\n        /* \"#utility.yul\":8174:8176   */\n      0x20\n        /* \"#utility.yul\":8163:8172   */\n      dup3\n        /* \"#utility.yul\":8159:8177   */\n      add\n        /* \"#utility.yul\":8151:8177   */\n      swap1\n      pop\n        /* \"#utility.yul\":8187:8256   */\n      tag_317\n        /* \"#utility.yul\":8253:8254   */\n      0x00\n        /* \"#utility.yul\":8242:8251   */\n      dup4\n        /* \"#utility.yul\":8238:8255   */\n      add\n        /* \"#utility.yul\":8229:8235   */\n      dup5\n        /* \"#utility.yul\":8187:8256   */\n      tag_200\n      jump\t// in\n    tag_317:\n        /* \"#utility.yul\":8045:8263   */\n      swap3\n      swap2\n      pop\n      pop\n      jump\t// out\n        /* \"#utility.yul\":8269:8377   */\n    tag_201:\n        /* \"#utility.yul\":8346:8370   */\n      tag_319\n        /* \"#utility.yul\":8364:8369   */\n      dup2\n        /* \"#utility.yul\":8346:8370   */\n      tag_184\n      jump\t// in\n    tag_319:\n        /* \"#utility.yul\":8341:8344   */\n      dup3\n        /* \"#utility.yul\":8334:8371   */\n      mstore\n        /* \"#utility.yul\":8269:8377   */\n      pop\n      pop\n      jump\t// out\n        /* \"#utility.yul\":8383:8488   */\n    tag_202:\n        /* \"#utility.yul\":8458:8481   */\n      tag_321\n        /* \"#utility.yul\":8475:8480   */\n      dup2\n        /* \"#utility.yul\":8458:8481   */\n      tag_187\n      jump\t// in\n    tag_321:\n        /* \"#utility.yul\":8453:8456   */\n      dup3\n        /* \"#utility.yul\":8446:8482   */\n      mstore\n        /* \"#utility.yul\":8383:8488   */\n      pop\n      pop\n      jump\t// out\n        /* \"#utility.yul\":8494:8602   */\n    tag_203:\n        /* \"#utility.yul\":8571:8595   */\n      tag_323\n        /* \"#utility.yul\":8589:8594   */\n      dup2\n        /* \"#utility.yul\":8571:8595   */\n      tag_175\n      jump\t// in\n    tag_323:\n        /* \"#utility.yul\":8566:8569   */\n      dup3\n        /* \"#utility.yul\":8559:8596   */\n      mstore\n        /* \"#utility.yul\":8494:8602   */\n      pop\n      pop\n      jump\t// out\n        /* \"#utility.yul\":8608:8713   */\n    tag_204:\n        /* \"#utility.yul\":8683:8706   */\n      tag_325\n        /* \"#utility.yul\":8700:8705   */\n      dup2\n        /* \"#utility.yul\":8683:8706   */\n      tag_190\n      jump\t// in\n    tag_325:\n        /* \"#utility.yul\":8678:8681   */\n      dup3\n        /* \"#utility.yul\":8671:8707   */\n      mstore\n        /* \"#utility.yul\":8608:8713   */\n      pop\n      pop\n      jump\t// out\n        /* \"#utility.yul\":8719:8818   */\n    tag_205:\n        /* \"#utility.yul\":8790:8811   */\n      tag_327\n        /* \"#utility.yul\":8805:8810   */\n      dup2\n        /* \"#utility.yul\":8790:8811   */\n      tag_193\n      jump\t// in\n    tag_327:\n        /* \"#utility.yul\":8785:8788   */\n      dup3\n        /* \"#utility.yul\":8778:8812   */\n      mstore\n        /* \"#utility.yul\":8719:8818   */\n      pop\n      pop\n      jump\t// out\n        /* \"#utility.yul\":8878:10632   */\n    tag_206:\n        /* \"#utility.yul\":9017:9023   */\n      0x0120\n        /* \"#utility.yul\":9012:9015   */\n      dup3\n        /* \"#utility.yul\":9008:9024   */\n      add\n        /* \"#utility.yul\":9110:9114   */\n      0x00\n        /* \"#utility.yul\":9103:9108   */\n      dup3\n        /* \"#utility.yul\":9099:9115   */\n      add\n        /* \"#utility.yul\":9093:9116   */\n      mload\n        /* \"#utility.yul\":9129:9192   */\n      tag_329\n        /* \"#utility.yul\":9186:9190   */\n      0x00\n        /* \"#utility.yul\":9181:9184   */\n      dup6\n        /* \"#utility.yul\":9177:9191   */\n      add\n        /* \"#utility.yul\":9163:9175   */\n      dup3\n        /* \"#utility.yul\":9129:9192   */\n      tag_201\n      jump\t// in\n    tag_329:\n        /* \"#utility.yul\":9034:9202   */\n      pop\n        /* \"#utility.yul\":9295:9299   */\n      0x20\n        /* \"#utility.yul\":9288:9293   */\n      dup3\n        /* \"#utility.yul\":9284:9300   */\n      add\n        /* \"#utility.yul\":9278:9301   */\n      mload\n        /* \"#utility.yul\":9314:9375   */\n      tag_330\n        /* \"#utility.yul\":9369:9373   */\n      0x20\n        /* \"#utility.yul\":9364:9367   */\n      dup6\n        /* \"#utility.yul\":9360:9374   */\n      add\n        /* \"#utility.yul\":9346:9358   */\n      dup3\n        /* \"#utility.yul\":9314:9375   */\n      tag_202\n      jump\t// in\n    tag_330:\n        /* \"#utility.yul\":9212:9385   */\n      pop\n        /* \"#utility.yul\":9474:9478   */\n      0x40\n        /* \"#utility.yul\":9467:9472   */\n      dup3\n        /* \"#utility.yul\":9463:9479   */\n      add\n        /* \"#utility.yul\":9457:9480   */\n      mload\n        /* \"#utility.yul\":9493:9556   */\n      tag_331\n        /* \"#utility.yul\":9550:9554   */\n      0x40\n        /* \"#utility.yul\":9545:9548   */\n      dup6\n        /* \"#utility.yul\":9541:9555   */\n      add\n        /* \"#utility.yul\":9527:9539   */\n      dup3\n        /* \"#utility.yul\":9493:9556   */\n      tag_203\n      jump\t// in\n    tag_331:\n        /* \"#utility.yul\":9395:9566   */\n      pop\n        /* \"#utility.yul\":9655:9659   */\n      0x60\n        /* \"#utility.yul\":9648:9653   */\n      dup3\n        /* \"#utility.yul\":9644:9660   */\n      add\n        /* \"#utility.yul\":9638:9661   */\n      mload\n        /* \"#utility.yul\":9674:9735   */\n      tag_332\n        /* \"#utility.yul\":9729:9733   */\n      0x60\n        /* \"#utility.yul\":9724:9727   */\n      dup6\n        /* \"#utility.yul\":9720:9734   */\n      add\n        /* \"#utility.yul\":9706:9718   */\n      dup3\n        /* \"#utility.yul\":9674:9735   */\n      tag_204\n      jump\t// in\n    tag_332:\n        /* \"#utility.yul\":9576:9745   */\n      pop\n        /* \"#utility.yul\":9828:9832   */\n      0x80\n        /* \"#utility.yul\":9821:9826   */\n      dup3\n        /* \"#utility.yul\":9817:9833   */\n      add\n        /* \"#utility.yul\":9811:9834   */\n      mload\n        /* \"#utility.yul\":9847:9910   */\n      tag_333\n        /* \"#utility.yul\":9904:9908   */\n      0x80\n        /* \"#utility.yul\":9899:9902   */\n      dup6\n        /* \"#utility.yul\":9895:9909   */\n      add\n        /* \"#utility.yul\":9881:9893   */\n      dup3\n        /* \"#utility.yul\":9847:9910   */\n      tag_203\n      jump\t// in\n    tag_333:\n        /* \"#utility.yul\":9755:9920   */\n      pop\n        /* \"#utility.yul\":10006:10010   */\n      0xa0\n        /* \"#utility.yul\":9999:10004   */\n      dup3\n        /* \"#utility.yul\":9995:10011   */\n      add\n        /* \"#utility.yul\":9989:10012   */\n      mload\n        /* \"#utility.yul\":10025:10086   */\n      tag_334\n        /* \"#utility.yul\":10080:10084   */\n      0xa0\n        /* \"#utility.yul\":10075:10078   */\n      dup6\n        /* \"#utility.yul\":10071:10085   */\n      add\n        /* \"#utility.yul\":10057:10069   */\n      dup3\n        /* \"#utility.yul\":10025:10086   */\n      tag_202\n      jump\t// in\n    tag_334:\n        /* \"#utility.yul\":9930:10096   */\n      pop\n        /* \"#utility.yul\":10189:10193   */\n      0xc0\n        /* \"#utility.yul\":10182:10187   */\n      dup3\n        /* \"#utility.yul\":10178:10194   */\n      add\n        /* \"#utility.yul\":10172:10195   */\n      mload\n        /* \"#utility.yul\":10208:10271   */\n      tag_335\n        /* \"#utility.yul\":10265:10269   */\n      0xc0\n        /* \"#utility.yul\":10260:10263   */\n      dup6\n        /* \"#utility.yul\":10256:10270   */\n      add\n        /* \"#utility.yul\":10242:10254   */\n      dup3\n        /* \"#utility.yul\":10208:10271   */\n      tag_203\n      jump\t// in\n    tag_335:\n        /* \"#utility.yul\":10106:10281   */\n      pop\n        /* \"#utility.yul\":10365:10369   */\n      0xe0\n        /* \"#utility.yul\":10358:10363   */\n      dup3\n        /* \"#utility.yul\":10354:10370   */\n      add\n        /* \"#utility.yul\":10348:10371   */\n      mload\n        /* \"#utility.yul\":10384:10441   */\n      tag_336\n        /* \"#utility.yul\":10435:10439   */\n      0xe0\n        /* \"#utility.yul\":10430:10433   */\n      dup6\n        /* \"#utility.yul\":10426:10440   */\n      add\n        /* \"#utility.yul\":10412:10424   */\n      dup3\n        /* \"#utility.yul\":10384:10441   */\n      tag_205\n      jump\t// in\n    tag_336:\n        /* \"#utility.yul\":10291:10451   */\n      pop\n        /* \"#utility.yul\":10535:10541   */\n      0x0100\n        /* \"#utility.yul\":10528:10533   */\n      dup3\n        /* \"#utility.yul\":10524:10542   */\n      add\n        /* \"#utility.yul\":10518:10543   */\n      mload\n        /* \"#utility.yul\":10556:10615   */\n      tag_337\n        /* \"#utility.yul\":10607:10613   */\n      0x0100\n        /* \"#utility.yul\":10602:10605   */\n      dup6\n        /* \"#utility.yul\":10598:10614   */\n      add\n        /* \"#utility.yul\":10584:10596   */\n      dup3\n        /* \"#utility.yul\":10556:10615   */\n      tag_205\n      jump\t// in\n    tag_337:\n        /* \"#utility.yul\":10461:10625   */\n      pop\n        /* \"#utility.yul\":8986:10632   */\n      pop\n        /* \"#utility.yul\":8878:10632   */\n      pop\n      pop\n      jump\t// out\n        /* \"#utility.yul\":10638:10945   */\n    tag_88:\n        /* \"#utility.yul\":10773:10777   */\n      0x00\n        /* \"#utility.yul\":10811:10814   */\n      0x0120\n        /* \"#utility.yul\":10800:10809   */\n      dup3\n        /* \"#utility.yul\":10796:10815   */\n      add\n        /* \"#utility.yul\":10788:10815   */\n      swap1\n      pop\n        /* \"#utility.yul\":10825:10938   */\n      tag_339\n        /* \"#utility.yul\":10935:10936   */\n      0x00\n        /* \"#utility.yul\":10924:10933   */\n      dup4\n        /* \"#utility.yul\":10920:10937   */\n      add\n        /* \"#utility.yul\":10911:10917   */\n      dup5\n        /* \"#utility.yul\":10825:10938   */\n      tag_206\n      jump\t// in\n    tag_339:\n        /* \"#utility.yul\":10638:10945   */\n      swap3\n      swap2\n      pop\n      pop\n      jump\t// out\n        /* \"#utility.yul\":10951:11069   */\n    tag_207:\n        /* \"#utility.yul\":11038:11062   */\n      tag_341\n        /* \"#utility.yul\":11056:11061   */\n      dup2\n        /* \"#utility.yul\":11038:11062   */\n      tag_184\n      jump\t// in\n    tag_341:\n        /* \"#utility.yul\":11033:11036   */\n      dup3\n        /* \"#utility.yul\":11026:11063   */\n      mstore\n        /* \"#utility.yul\":10951:11069   */\n      pop\n      pop\n      jump\t// out\n        /* \"#utility.yul\":11075:12147   */\n    tag_104:\n        /* \"#utility.yul\":11374:11378   */\n      0x00\n        /* \"#utility.yul\":11412:11415   */\n      0x0120\n        /* \"#utility.yul\":11401:11410   */\n      dup3\n        /* \"#utility.yul\":11397:11416   */\n      add\n        /* \"#utility.yul\":11389:11416   */\n      swap1\n      pop\n        /* \"#utility.yul\":11426:11497   */\n      tag_343\n        /* \"#utility.yul\":11494:11495   */\n      0x00\n        /* \"#utility.yul\":11483:11492   */\n      dup4\n        /* \"#utility.yul\":11479:11496   */\n      add\n        /* \"#utility.yul\":11470:11476   */\n      dup13\n        /* \"#utility.yul\":11426:11497   */\n      tag_207\n      jump\t// in\n    tag_343:\n        /* \"#utility.yul\":11507:11577   */\n      tag_344\n        /* \"#utility.yul\":11573:11575   */\n      0x20\n        /* \"#utility.yul\":11562:11571   */\n      dup4\n        /* \"#utility.yul\":11558:11576   */\n      add\n        /* \"#utility.yul\":11549:11555   */\n      dup12\n        /* \"#utility.yul\":11507:11577   */\n      tag_200\n      jump\t// in\n    tag_344:\n        /* \"#utility.yul\":11587:11659   */\n      tag_345\n        /* \"#utility.yul\":11655:11657   */\n      0x40\n        /* \"#utility.yul\":11644:11653   */\n      dup4\n        /* \"#utility.yul\":11640:11658   */\n      add\n        /* \"#utility.yul\":11631:11637   */\n      dup11\n        /* \"#utility.yul\":11587:11659   */\n      tag_198\n      jump\t// in\n    tag_345:\n        /* \"#utility.yul\":11669:11739   */\n      tag_346\n        /* \"#utility.yul\":11735:11737   */\n      0x60\n        /* \"#utility.yul\":11724:11733   */\n      dup4\n        /* \"#utility.yul\":11720:11738   */\n      add\n        /* \"#utility.yul\":11711:11717   */\n      dup10\n        /* \"#utility.yul\":11669:11739   */\n      tag_197\n      jump\t// in\n    tag_346:\n        /* \"#utility.yul\":11749:11822   */\n      tag_347\n        /* \"#utility.yul\":11817:11820   */\n      0x80\n        /* \"#utility.yul\":11806:11815   */\n      dup4\n        /* \"#utility.yul\":11802:11821   */\n      add\n        /* \"#utility.yul\":11793:11799   */\n      dup9\n        /* \"#utility.yul\":11749:11822   */\n      tag_198\n      jump\t// in\n    tag_347:\n        /* \"#utility.yul\":11832:11903   */\n      tag_348\n        /* \"#utility.yul\":11898:11901   */\n      0xa0\n        /* \"#utility.yul\":11887:11896   */\n      dup4\n        /* \"#utility.yul\":11883:11902   */\n      add\n        /* \"#utility.yul\":11874:11880   */\n      dup8\n        /* \"#utility.yul\":11832:11903   */\n      tag_200\n      jump\t// in\n    tag_348:\n        /* \"#utility.yul\":11913:11986   */\n      tag_349\n        /* \"#utility.yul\":11981:11984   */\n      0xc0\n        /* \"#utility.yul\":11970:11979   */\n      dup4\n        /* \"#utility.yul\":11966:11985   */\n      add\n        /* \"#utility.yul\":11957:11963   */\n      dup7\n        /* \"#utility.yul\":11913:11986   */\n      tag_198\n      jump\t// in\n    tag_349:\n        /* \"#utility.yul\":11996:12063   */\n      tag_350\n        /* \"#utility.yul\":12058:12061   */\n      0xe0\n        /* \"#utility.yul\":12047:12056   */\n      dup4\n        /* \"#utility.yul\":12043:12062   */\n      add\n        /* \"#utility.yul\":12034:12040   */\n      dup6\n        /* \"#utility.yul\":11996:12063   */\n      tag_199\n      jump\t// in\n    tag_350:\n        /* \"#utility.yul\":12073:12140   */\n      tag_351\n        /* \"#utility.yul\":12135:12138   */\n      0x0100\n        /* \"#utility.yul\":12124:12133   */\n      dup4\n        /* \"#utility.yul\":12120:12139   */\n      add\n        /* \"#utility.yul\":12111:12117   */\n      dup5\n        /* \"#utility.yul\":12073:12140   */\n      tag_199\n      jump\t// in\n    tag_351:\n        /* \"#utility.yul\":11075:12147   */\n      swap11\n      swap10\n      pop\n      pop\n      pop\n      pop\n      pop\n      pop\n      pop\n      pop\n      pop\n      pop\n      jump\t// out\n        /* \"#utility.yul\":12153:12671   */\n    tag_107:\n        /* \"#utility.yul\":12242:12248   */\n      0x00\n        /* \"#utility.yul\":12250:12256   */\n      dup1\n        /* \"#utility.yul\":12299:12302   */\n      0x0140\n        /* \"#utility.yul\":12287:12296   */\n      dup4\n        /* \"#utility.yul\":12278:12285   */\n      dup6\n        /* \"#utility.yul\":12274:12297   */\n      sub\n        /* \"#utility.yul\":12270:12303   */\n      slt\n        /* \"#utility.yul\":12267:12387   */\n      iszero\n      tag_353\n      jumpi\n        /* \"#utility.yul\":12306:12385   */\n      tag_354\n      tag_172\n      jump\t// in\n    tag_354:\n        /* \"#utility.yul\":12267:12387   */\n    tag_353:\n        /* \"#utility.yul\":12426:12427   */\n      0x00\n        /* \"#utility.yul\":12451:12525   */\n      tag_355\n        /* \"#utility.yul\":12517:12524   */\n      dup6\n        /* \"#utility.yul\":12508:12514   */\n      dup3\n        /* \"#utility.yul\":12497:12506   */\n      dup7\n        /* \"#utility.yul\":12493:12515   */\n      add\n        /* \"#utility.yul\":12451:12525   */\n      tag_196\n      jump\t// in\n    tag_355:\n        /* \"#utility.yul\":12441:12525   */\n      swap3\n      pop\n        /* \"#utility.yul\":12397:12535   */\n      pop\n        /* \"#utility.yul\":12574:12577   */\n      0x0120\n        /* \"#utility.yul\":12601:12654   */\n      tag_356\n        /* \"#utility.yul\":12646:12653   */\n      dup6\n        /* \"#utility.yul\":12637:12643   */\n      dup3\n        /* \"#utility.yul\":12626:12635   */\n      dup7\n        /* \"#utility.yul\":12622:12644   */\n      add\n        /* \"#utility.yul\":12601:12654   */\n      tag_177\n      jump\t// in\n    tag_356:\n        /* \"#utility.yul\":12591:12654   */\n      swap2\n      pop\n        /* \"#utility.yul\":12545:12664   */\n      pop\n        /* \"#utility.yul\":12153:12671   */\n      swap3\n      pop\n      swap3\n      swap1\n      pop\n      jump\t// out\n        /* \"#utility.yul\":12677:12814   */\n    tag_208:\n        /* \"#utility.yul\":12731:12736   */\n      0x00\n        /* \"#utility.yul\":12762:12768   */\n      dup2\n        /* \"#utility.yul\":12756:12769   */\n      mload\n        /* \"#utility.yul\":12747:12769   */\n      swap1\n      pop\n        /* \"#utility.yul\":12778:12808   */\n      tag_358\n        /* \"#utility.yul\":12802:12807   */\n      dup2\n        /* \"#utility.yul\":12778:12808   */\n      tag_194\n      jump\t// in\n    tag_358:\n        /* \"#utility.yul\":12677:12814   */\n      swap3\n      swap2\n      pop\n      pop\n      jump\t// out\n        /* \"#utility.yul\":12820:13165   */\n    tag_113:\n        /* \"#utility.yul\":12887:12893   */\n      0x00\n        /* \"#utility.yul\":12936:12938   */\n      0x20\n        /* \"#utility.yul\":12924:12933   */\n      dup3\n        /* \"#utility.yul\":12915:12922   */\n      dup5\n        /* \"#utility.yul\":12911:12934   */\n      sub\n        /* \"#utility.yul\":12907:12939   */\n      slt\n        /* \"#utility.yul\":12904:13023   */\n      iszero\n      tag_360\n      jumpi\n        /* \"#utility.yul\":12942:13021   */\n      tag_361\n      tag_172\n      jump\t// in\n    tag_361:\n        /* \"#utility.yul\":12904:13023   */\n    tag_360:\n        /* \"#utility.yul\":13062:13063   */\n      0x00\n        /* \"#utility.yul\":13087:13148   */\n      tag_362\n        /* \"#utility.yul\":13140:13147   */\n      dup5\n        /* \"#utility.yul\":13131:13137   */\n      dup3\n        /* \"#utility.yul\":13120:13129   */\n      dup6\n        /* \"#utility.yul\":13116:13138   */\n      add\n        /* \"#utility.yul\":13087:13148   */\n      tag_208\n      jump\t// in\n    tag_362:\n        /* \"#utility.yul\":13077:13148   */\n      swap2\n      pop\n        /* \"#utility.yul\":13033:13158   */\n      pop\n        /* \"#utility.yul\":12820:13165   */\n      swap3\n      swap2\n      pop\n      pop\n      jump\t// out\n        /* \"#utility.yul\":13171:13340   */\n    tag_209:\n        /* \"#utility.yul\":13255:13266   */\n      0x00\n        /* \"#utility.yul\":13289:13295   */\n      dup3\n        /* \"#utility.yul\":13284:13287   */\n      dup3\n        /* \"#utility.yul\":13277:13296   */\n      mstore\n        /* \"#utility.yul\":13329:13333   */\n      0x20\n        /* \"#utility.yul\":13324:13327   */\n      dup3\n        /* \"#utility.yul\":13320:13334   */\n      add\n        /* \"#utility.yul\":13305:13334   */\n      swap1\n      pop\n        /* \"#utility.yul\":13171:13340   */\n      swap3\n      swap2\n      pop\n      pop\n      jump\t// out\n        /* \"#utility.yul\":13346:13518   */\n    tag_210:\n        /* \"#utility.yul\":13486:13510   */\n      0x637573746f6d6572206973206e6f742065786973747300000000000000000000\n        /* \"#utility.yul\":13482:13483   */\n      0x00\n        /* \"#utility.yul\":13474:13480   */\n      dup3\n        /* \"#utility.yul\":13470:13484   */\n      add\n        /* \"#utility.yul\":13463:13511   */\n      mstore\n        /* \"#utility.yul\":13346:13518   */\n      pop\n      jump\t// out\n        /* \"#utility.yul\":13524:13890   */\n    tag_211:\n        /* \"#utility.yul\":13666:13669   */\n      0x00\n        /* \"#utility.yul\":13687:13754   */\n      tag_366\n        /* \"#utility.yul\":13751:13753   */\n      0x16\n        /* \"#utility.yul\":13746:13749   */\n      dup4\n        /* \"#utility.yul\":13687:13754   */\n      tag_209\n      jump\t// in\n    tag_366:\n        /* \"#utility.yul\":13680:13754   */\n      swap2\n      pop\n        /* \"#utility.yul\":13763:13856   */\n      tag_367\n        /* \"#utility.yul\":13852:13855   */\n      dup3\n        /* \"#utility.yul\":13763:13856   */\n      tag_210\n      jump\t// in\n    tag_367:\n        /* \"#utility.yul\":13881:13883   */\n      0x20\n        /* \"#utility.yul\":13876:13879   */\n      dup3\n        /* \"#utility.yul\":13872:13884   */\n      add\n        /* \"#utility.yul\":13865:13884   */\n      swap1\n      pop\n        /* \"#utility.yul\":13524:13890   */\n      swap2\n      swap1\n      pop\n      jump\t// out\n        /* \"#utility.yul\":13896:14315   */\n    tag_118:\n        /* \"#utility.yul\":14062:14066   */\n      0x00\n        /* \"#utility.yul\":14100:14102   */\n      0x20\n        /* \"#utility.yul\":14089:14098   */\n      dup3\n        /* \"#utility.yul\":14085:14103   */\n      add\n        /* \"#utility.yul\":14077:14103   */\n      swap1\n      pop\n        /* \"#utility.yul\":14149:14158   */\n      dup2\n        /* \"#utility.yul\":14143:14147   */\n      dup2\n        /* \"#utility.yul\":14139:14159   */\n      sub\n        /* \"#utility.yul\":14135:14136   */\n      0x00\n        /* \"#utility.yul\":14124:14133   */\n      dup4\n        /* \"#utility.yul\":14120:14137   */\n      add\n        /* \"#utility.yul\":14113:14160   */\n      mstore\n        /* \"#utility.yul\":14177:14308   */\n      tag_369\n        /* \"#utility.yul\":14303:14307   */\n      dup2\n        /* \"#utility.yul\":14177:14308   */\n      tag_211\n      jump\t// in\n    tag_369:\n        /* \"#utility.yul\":14169:14308   */\n      swap1\n      pop\n        /* \"#utility.yul\":13896:14315   */\n      swap2\n      swap1\n      pop\n      jump\t// out\n        /* \"#utility.yul\":14321:14489   */\n    tag_212:\n        /* \"#utility.yul\":14461:14481   */\n      0x637573746f6d6572206973206578697374730000000000000000000000000000\n        /* \"#utility.yul\":14457:14458   */\n      0x00\n        /* \"#utility.yul\":14449:14455   */\n      dup3\n        /* \"#utility.yul\":14445:14459   */\n      add\n        /* \"#utility.yul\":14438:14482   */\n      mstore\n        /* \"#utility.yul\":14321:14489   */\n      pop\n      jump\t// out\n        /* \"#utility.yul\":14495:14861   */\n    tag_213:\n        /* \"#utility.yul\":14637:14640   */\n      0x00\n        /* \"#utility.yul\":14658:14725   */\n      tag_372\n        /* \"#utility.yul\":14722:14724   */\n      0x12\n        /* \"#utility.yul\":14717:14720   */\n      dup4\n        /* \"#utility.yul\":14658:14725   */\n      tag_209\n      jump\t// in\n    tag_372:\n        /* \"#utility.yul\":14651:14725   */\n      swap2\n      pop\n        /* \"#utility.yul\":14734:14827   */\n      tag_373\n        /* \"#utility.yul\":14823:14826   */\n      dup3\n        /* \"#utility.yul\":14734:14827   */\n      tag_212\n      jump\t// in\n    tag_373:\n        /* \"#utility.yul\":14852:14854   */\n      0x20\n        /* \"#utility.yul\":14847:14850   */\n      dup3\n        /* \"#utility.yul\":14843:14855   */\n      add\n        /* \"#utility.yul\":14836:14855   */\n      swap1\n      pop\n        /* \"#utility.yul\":14495:14861   */\n      swap2\n      swap1\n      pop\n      jump\t// out\n        /* \"#utility.yul\":14867:15286   */\n    tag_123:\n        /* \"#utility.yul\":15033:15037   */\n      0x00\n        /* \"#utility.yul\":15071:15073   */\n      0x20\n        /* \"#utility.yul\":15060:15069   */\n      dup3\n        /* \"#utility.yul\":15056:15074   */\n      add\n        /* \"#utility.yul\":15048:15074   */\n      swap1\n      pop\n        /* \"#utility.yul\":15120:15129   */\n      dup2\n        /* \"#utility.yul\":15114:15118   */\n      dup2\n        /* \"#utility.yul\":15110:15130   */\n      sub\n        /* \"#utility.yul\":15106:15107   */\n      0x00\n        /* \"#utility.yul\":15095:15104   */\n      dup4\n        /* \"#utility.yul\":15091:15108   */\n      add\n        /* \"#utility.yul\":15084:15131   */\n      mstore\n        /* \"#utility.yul\":15148:15279   */\n      tag_375\n        /* \"#utility.yul\":15274:15278   */\n      dup2\n        /* \"#utility.yul\":15148:15279   */\n      tag_213\n      jump\t// in\n    tag_375:\n        /* \"#utility.yul\":15140:15279   */\n      swap1\n      pop\n        /* \"#utility.yul\":14867:15286   */\n      swap2\n      swap1\n      pop\n      jump\t// out\n        /* \"#utility.yul\":15292:15472   */\n    tag_214:\n        /* \"#utility.yul\":15340:15417   */\n      0x4e487b7100000000000000000000000000000000000000000000000000000000\n        /* \"#utility.yul\":15337:15338   */\n      0x00\n        /* \"#utility.yul\":15330:15418   */\n      mstore\n        /* \"#utility.yul\":15437:15441   */\n      0x11\n        /* \"#utility.yul\":15434:15435   */\n      0x04\n        /* \"#utility.yul\":15427:15442   */\n      mstore\n        /* \"#utility.yul\":15461:15465   */\n      0x24\n        /* \"#utility.yul\":15458:15459   */\n      0x00\n        /* \"#utility.yul\":15451:15466   */\n      revert\n        /* \"#utility.yul\":15478:15677   */\n    tag_125:\n        /* \"#utility.yul\":15517:15520   */\n      0x00\n        /* \"#utility.yul\":15536:15555   */\n      tag_378\n        /* \"#utility.yul\":15553:15554   */\n      dup3\n        /* \"#utility.yul\":15536:15555   */\n      tag_190\n      jump\t// in\n    tag_378:\n        /* \"#utility.yul\":15531:15555   */\n      swap2\n      pop\n        /* \"#utility.yul\":15569:15588   */\n      tag_379\n        /* \"#utility.yul\":15586:15587   */\n      dup4\n        /* \"#utility.yul\":15569:15588   */\n      tag_190\n      jump\t// in\n    tag_379:\n        /* \"#utility.yul\":15564:15588   */\n      swap3\n      pop\n        /* \"#utility.yul\":15611:15612   */\n      dup3\n        /* \"#utility.yul\":15608:15609   */\n      dup3\n        /* \"#utility.yul\":15604:15613   */\n      add\n        /* \"#utility.yul\":15597:15613   */\n      swap1\n      pop\n        /* \"#utility.yul\":15634:15646   */\n      0xffffffffff\n        /* \"#utility.yul\":15629:15632   */\n      dup2\n        /* \"#utility.yul\":15626:15647   */\n      gt\n        /* \"#utility.yul\":15623:15670   */\n      iszero\n      tag_380\n      jumpi\n        /* \"#utility.yul\":15650:15668   */\n      tag_381\n      tag_214\n      jump\t// in\n    tag_381:\n        /* \"#utility.yul\":15623:15670   */\n    tag_380:\n        /* \"#utility.yul\":15478:15677   */\n      swap3\n      swap2\n      pop\n      pop\n      jump\t// out\n        /* \"#utility.yul\":15683:15857   */\n    tag_215:\n        /* \"#utility.yul\":15823:15849   */\n      0x637573746f6d65722061646472657373206973206e756c6c0000000000000000\n        /* \"#utility.yul\":15819:15820   */\n      0x00\n        /* \"#utility.yul\":15811:15817   */\n      dup3\n        /* \"#utility.yul\":15807:15821   */\n      add\n        /* \"#utility.yul\":15800:15850   */\n      mstore\n        /* \"#utility.yul\":15683:15857   */\n      pop\n      jump\t// out\n        /* \"#utility.yul\":15863:16229   */\n    tag_216:\n        /* \"#utility.yul\":16005:16008   */\n      0x00\n        /* \"#utility.yul\":16026:16093   */\n      tag_384\n        /* \"#utility.yul\":16090:16092   */\n      0x18\n        /* \"#utility.yul\":16085:16088   */\n      dup4\n        /* \"#utility.yul\":16026:16093   */\n      tag_209\n      jump\t// in\n    tag_384:\n        /* \"#utility.yul\":16019:16093   */\n      swap2\n      pop\n        /* \"#utility.yul\":16102:16195   */\n      tag_385\n        /* \"#utility.yul\":16191:16194   */\n      dup3\n        /* \"#utility.yul\":16102:16195   */\n      tag_215\n      jump\t// in\n    tag_385:\n        /* \"#utility.yul\":16220:16222   */\n      0x20\n        /* \"#utility.yul\":16215:16218   */\n      dup3\n        /* \"#utility.yul\":16211:16223   */\n      add\n        /* \"#utility.yul\":16204:16223   */\n      swap1\n      pop\n        /* \"#utility.yul\":15863:16229   */\n      swap2\n      swap1\n      pop\n      jump\t// out\n        /* \"#utility.yul\":16235:16654   */\n    tag_134:\n        /* \"#utility.yul\":16401:16405   */\n      0x00\n        /* \"#utility.yul\":16439:16441   */\n      0x20\n        /* \"#utility.yul\":16428:16437   */\n      dup3\n        /* \"#utility.yul\":16424:16442   */\n      add\n        /* \"#utility.yul\":16416:16442   */\n      swap1\n      pop\n        /* \"#utility.yul\":16488:16497   */\n      dup2\n        /* \"#utility.yul\":16482:16486   */\n      dup2\n        /* \"#utility.yul\":16478:16498   */\n      sub\n        /* \"#utility.yul\":16474:16475   */\n      0x00\n        /* \"#utility.yul\":16463:16472   */\n      dup4\n        /* \"#utility.yul\":16459:16476   */\n      add\n        /* \"#utility.yul\":16452:16499   */\n      mstore\n        /* \"#utility.yul\":16516:16647   */\n      tag_387\n        /* \"#utility.yul\":16642:16646   */\n      dup2\n        /* \"#utility.yul\":16516:16647   */\n      tag_216\n      jump\t// in\n    tag_387:\n        /* \"#utility.yul\":16508:16647   */\n      swap1\n      pop\n        /* \"#utility.yul\":16235:16654   */\n      swap2\n      swap1\n      pop\n      jump\t// out\n        /* \"#utility.yul\":16660:16833   */\n    tag_217:\n        /* \"#utility.yul\":16800:16825   */\n      0x20437573746f6d6572206973206e6f7420657869737473000000000000000000\n        /* \"#utility.yul\":16796:16797   */\n      0x00\n        /* \"#utility.yul\":16788:16794   */\n      dup3\n        /* \"#utility.yul\":16784:16798   */\n      add\n        /* \"#utility.yul\":16777:16826   */\n      mstore\n        /* \"#utility.yul\":16660:16833   */\n      pop\n      jump\t// out\n        /* \"#utility.yul\":16839:17205   */\n    tag_218:\n        /* \"#utility.yul\":16981:16984   */\n      0x00\n        /* \"#utility.yul\":17002:17069   */\n      tag_390\n        /* \"#utility.yul\":17066:17068   */\n      0x17\n        /* \"#utility.yul\":17061:17064   */\n      dup4\n        /* \"#utility.yul\":17002:17069   */\n      tag_209\n      jump\t// in\n    tag_390:\n        /* \"#utility.yul\":16995:17069   */\n      swap2\n      pop\n        /* \"#utility.yul\":17078:17171   */\n      tag_391\n        /* \"#utility.yul\":17167:17170   */\n      dup3\n        /* \"#utility.yul\":17078:17171   */\n      tag_217\n      jump\t// in\n    tag_391:\n        /* \"#utility.yul\":17196:17198   */\n      0x20\n        /* \"#utility.yul\":17191:17194   */\n      dup3\n        /* \"#utility.yul\":17187:17199   */\n      add\n        /* \"#utility.yul\":17180:17199   */\n      swap1\n      pop\n        /* \"#utility.yul\":16839:17205   */\n      swap2\n      swap1\n      pop\n      jump\t// out\n        /* \"#utility.yul\":17211:17630   */\n    tag_151:\n        /* \"#utility.yul\":17377:17381   */\n      0x00\n        /* \"#utility.yul\":17415:17417   */\n      0x20\n        /* \"#utility.yul\":17404:17413   */\n      dup3\n        /* \"#utility.yul\":17400:17418   */\n      add\n        /* \"#utility.yul\":17392:17418   */\n      swap1\n      pop\n        /* \"#utility.yul\":17464:17473   */\n      dup2\n        /* \"#utility.yul\":17458:17462   */\n      dup2\n        /* \"#utility.yul\":17454:17474   */\n      sub\n        /* \"#utility.yul\":17450:17451   */\n      0x00\n        /* \"#utility.yul\":17439:17448   */\n      dup4\n        /* \"#utility.yul\":17435:17452   */\n      add\n        /* \"#utility.yul\":17428:17475   */\n      mstore\n        /* \"#utility.yul\":17492:17623   */\n      tag_393\n        /* \"#utility.yul\":17618:17622   */\n      dup2\n        /* \"#utility.yul\":17492:17623   */\n      tag_218\n      jump\t// in\n    tag_393:\n        /* \"#utility.yul\":17484:17623   */\n      swap1\n      pop\n        /* \"#utility.yul\":17211:17630   */\n      swap2\n      swap1\n      pop\n      jump\t// out\n        /* \"#utility.yul\":17636:17817   */\n    tag_219:\n        /* \"#utility.yul\":17776:17809   */\n      0x74686520637573746f6d6572207265636f6d6d656e6465722065786973747300\n        /* \"#utility.yul\":17772:17773   */\n      0x00\n        /* \"#utility.yul\":17764:17770   */\n      dup3\n        /* \"#utility.yul\":17760:17774   */\n      add\n        /* \"#utility.yul\":17753:17810   */\n      mstore\n        /* \"#utility.yul\":17636:17817   */\n      pop\n      jump\t// out\n        /* \"#utility.yul\":17823:18189   */\n    tag_220:\n        /* \"#utility.yul\":17965:17968   */\n      0x00\n        /* \"#utility.yul\":17986:18053   */\n      tag_396\n        /* \"#utility.yul\":18050:18052   */\n      0x1f\n        /* \"#utility.yul\":18045:18048   */\n      dup4\n        /* \"#utility.yul\":17986:18053   */\n      tag_209\n      jump\t// in\n    tag_396:\n        /* \"#utility.yul\":17979:18053   */\n      swap2\n      pop\n        /* \"#utility.yul\":18062:18155   */\n      tag_397\n        /* \"#utility.yul\":18151:18154   */\n      dup3\n        /* \"#utility.yul\":18062:18155   */\n      tag_219\n      jump\t// in\n    tag_397:\n        /* \"#utility.yul\":18180:18182   */\n      0x20\n        /* \"#utility.yul\":18175:18178   */\n      dup3\n        /* \"#utility.yul\":18171:18183   */\n      add\n        /* \"#utility.yul\":18164:18183   */\n      swap1\n      pop\n        /* \"#utility.yul\":17823:18189   */\n      swap2\n      swap1\n      pop\n      jump\t// out\n        /* \"#utility.yul\":18195:18614   */\n    tag_158:\n        /* \"#utility.yul\":18361:18365   */\n      0x00\n        /* \"#utility.yul\":18399:18401   */\n      0x20\n        /* \"#utility.yul\":18388:18397   */\n      dup3\n        /* \"#utility.yul\":18384:18402   */\n      add\n        /* \"#utility.yul\":18376:18402   */\n      swap1\n      pop\n        /* \"#utility.yul\":18448:18457   */\n      dup2\n        /* \"#utility.yul\":18442:18446   */\n      dup2\n        /* \"#utility.yul\":18438:18458   */\n      sub\n        /* \"#utility.yul\":18434:18435   */\n      0x00\n        /* \"#utility.yul\":18423:18432   */\n      dup4\n        /* \"#utility.yul\":18419:18436   */\n      add\n        /* \"#utility.yul\":18412:18459   */\n      mstore\n        /* \"#utility.yul\":18476:18607   */\n      tag_399\n        /* \"#utility.yul\":18602:18606   */\n      dup2\n        /* \"#utility.yul\":18476:18607   */\n      tag_220\n      jump\t// in\n    tag_399:\n        /* \"#utility.yul\":18468:18607   */\n      swap1\n      pop\n        /* \"#utility.yul\":18195:18614   */\n      swap2\n      swap1\n      pop\n      jump\t// out\n        /* \"#utility.yul\":18620:18817   */\n    tag_161:\n        /* \"#utility.yul\":18659:18662   */\n      0x00\n        /* \"#utility.yul\":18678:18697   */\n      tag_401\n        /* \"#utility.yul\":18695:18696   */\n      dup3\n        /* \"#utility.yul\":18678:18697   */\n      tag_187\n      jump\t// in\n    tag_401:\n        /* \"#utility.yul\":18673:18697   */\n      swap2\n      pop\n        /* \"#utility.yul\":18711:18730   */\n      tag_402\n        /* \"#utility.yul\":18728:18729   */\n      dup4\n        /* \"#utility.yul\":18711:18730   */\n      tag_187\n      jump\t// in\n    tag_402:\n        /* \"#utility.yul\":18706:18730   */\n      swap3\n      pop\n        /* \"#utility.yul\":18753:18754   */\n      dup3\n        /* \"#utility.yul\":18750:18751   */\n      dup3\n        /* \"#utility.yul\":18746:18755   */\n      add\n        /* \"#utility.yul\":18739:18755   */\n      swap1\n      pop\n        /* \"#utility.yul\":18776:18786   */\n      0xffffffff\n        /* \"#utility.yul\":18771:18774   */\n      dup2\n        /* \"#utility.yul\":18768:18787   */\n      gt\n        /* \"#utility.yul\":18765:18810   */\n      iszero\n      tag_403\n      jumpi\n        /* \"#utility.yul\":18790:18808   */\n      tag_404\n      tag_214\n      jump\t// in\n    tag_404:\n        /* \"#utility.yul\":18765:18810   */\n    tag_403:\n        /* \"#utility.yul\":18620:18817   */\n      swap3\n      swap2\n      pop\n      pop\n      jump\t// out\n\n    auxdata: 0xa264697066735822122050bc1b43b5da59fdf8e2aed5795f2bd4d777d0abb401886e7fa16237dda3326164736f6c63430008120033\n}\n",
				"bytecode": {
					"linkReferences": {},
					"object": "60c06040523480156200001157600080fd5b5060405162002a7938038062002a79833981810160405281019062000037919062000111565b8173ffffffffffffffffffffffffffffffffffffffff1660808173ffffffffffffffffffffffffffffffffffffffff16815250508073ffffffffffffffffffffffffffffffffffffffff1660a08173ffffffffffffffffffffffffffffffffffffffff1681525050505062000158565b600080fd5b600073ffffffffffffffffffffffffffffffffffffffff82169050919050565b6000620000d982620000ac565b9050919050565b620000eb81620000cc565b8114620000f757600080fd5b50565b6000815190506200010b81620000e0565b92915050565b600080604083850312156200012b576200012a620000a7565b5b60006200013b85828601620000fa565b92505060206200014e85828601620000fa565b9150509250929050565b60805160a0516128ed6200018c6000396000818161044d01528181610b560152610e3501526000610b3201526128ed6000f3fe608060405234801561001057600080fd5b506004361061012c5760003560e01c80638a6df726116100ad578063e71957b911610071578063e71957b91461037b578063e853f952146103ab578063f3c86048146103db578063f4274bc5146103f7578063fc5f9f181461042f5761012c565b80638a6df7261461029f578063a60832cd146102cf578063bc5c6134146102ff578063be5fdac81461032f578063cb949e511461034b5761012c565b806347d0a634116100f457806347d0a634146101d3578063492b7107146101f15780635cfeafa51461020f578063781660971461023f5780638370aa811461026f5761012c565b80630138a6611461013157806314f9e5541461014d578063367b6dcc146101695780633b63b647146101875780633e95003c146101a3575b600080fd5b61014b60048036038101906101469190611fb7565b61044b565b005b6101676004803603810190610162919061223c565b6105d5565b005b61017161096d565b60405161017e9190612279565b60405180910390f35b6101a1600480360381019061019c9190612294565b610984565b005b6101bd60048036038101906101b891906122c1565b610afd565b6040516101ca91906122fd565b60405180910390f35b6101db610b30565b6040516101e891906122fd565b60405180910390f35b6101f9610b54565b60405161020691906122fd565b60405180910390f35b61022960048036038101906102249190612318565b610b78565b60405161023691906122fd565b60405180910390f35b61025960048036038101906102549190611fb7565b610bba565b6040516102669190612367565b60405180910390f35b61028960048036038101906102849190612318565b610c12565b60405161029691906122fd565b60405180910390f35b6102b960048036038101906102b49190611fb7565b610d07565b6040516102c69190612391565b60405180910390f35b6102e960048036038101906102e49190612318565b610dce565b6040516102f691906122fd565b60405180910390f35b61031960048036038101906103149190611fb7565b610e10565b6040516103269190612391565b60405180910390f35b61034960048036038101906103449190611fb7565b610e33565b005b61036560048036038101906103609190611fb7565b610fbd565b60405161037291906124ae565b60405180910390f35b61039560048036038101906103909190611fb7565b611262565b6040516103a291906122fd565b60405180910390f35b6103c560048036038101906103c09190611fb7565b611362565b6040516103d29190612391565b60405180910390f35b6103f560048036038101906103f091906122c1565b611385565b005b610411600480360381019061040c9190611fb7565b611748565b604051610426999897969594939291906124d9565b60405180910390f35b61044960048036038101906104449190612566565b611841565b005b7f000000000000000000000000000000000000000000000000000000000000000073ffffffffffffffffffffffffffffffffffffffff1663ad87d2ba6040518163ffffffff1660e01b8152600401602060405180830381865afa1580156104b6573d6000803e3d6000fd5b505050506040513d601f19601f820116820180604052508101906104da91906125bd565b6104e357600080fd5b600115156000808373ffffffffffffffffffffffffffffffffffffffff1673ffffffffffffffffffffffffffffffffffffffff16815260200190815260200160002060030160149054906101000a900460ff16151503610578576040517f08c379a000000000000000000000000000000000000000000000000000000000815260040161056f90612647565b60405180910390fd5b60008060008373ffffffffffffffffffffffffffffffffffffffff1673ffffffffffffffffffffffffffffffffffffffff16815260200190815260200160002060030160156101000a81548160ff02191690831515021790555050565b600115156000808360c0015173ffffffffffffffffffffffffffffffffffffffff1673ffffffffffffffffffffffffffffffffffffffff16815260200190815260200160002060030160149054906101000a900460ff1615151415801561066b57503373ffffffffffffffffffffffffffffffffffffffff168160c0015173ffffffffffffffffffffffffffffffffffffffff16145b6106aa576040517f08c379a00000000000000000000000000000000000000000000000000000000081526004016106a1906126b3565b60405180910390fd5b6001600260008282829054906101000a900464ffffffffff166106cd9190612702565b92506101000a81548164ffffffffff021916908364ffffffffff1602179055503360016000600260009054906101000a900464ffffffffff1664ffffffffff1664ffffffffff16815260200190815260200160002060006101000a81548173ffffffffffffffffffffffffffffffffffffffff021916908373ffffffffffffffffffffffffffffffffffffffff160217905550600260009054906101000a900464ffffffffff16816060019064ffffffffff16908164ffffffffff1681525050806000808360c0015173ffffffffffffffffffffffffffffffffffffffff1673ffffffffffffffffffffffffffffffffffffffff1681526020019081526020016000206000820151816000015560208201518160010160006101000a81548163ffffffff021916908363ffffffff16021790555060408201518160010160046101000a81548173ffffffffffffffffffffffffffffffffffffffff021916908373ffffffffffffffffffffffffffffffffffffffff16021790555060608201518160010160186101000a81548164ffffffffff021916908364ffffffffff16021790555060808201518160020160006101000a81548173ffffffffffffffffffffffffffffffffffffffff021916908373ffffffffffffffffffffffffffffffffffffffff16021790555060a08201518160020160146101000a81548163ffffffff021916908363ffffffff16021790555060c08201518160030160006101000a81548173ffffffffffffffffffffffffffffffffffffffff021916908373ffffffffffffffffffffffffffffffffffffffff16021790555060e08201518160030160146101000a81548160ff0219169083151502179055506101008201518160030160156101000a81548160ff02191690831515021790555090505050565b600260009054906101000a900464ffffffffff1681565b60018015610a1e57503373ffffffffffffffffffffffffffffffffffffffff166000803373ffffffffffffffffffffffffffffffffffffffff1673ffffffffffffffffffffffffffffffffffffffff16815260200190815260200160002060030160009054906101000a900473ffffffffffffffffffffffffffffffffffffffff1673ffffffffffffffffffffffffffffffffffffffff16145b6000803373ffffffffffffffffffffffffffffffffffffffff1673ffffffffffffffffffffffffffffffffffffffff16815260200190815260200160002060030160146101000a81548160ff0219169083151502179055610ab4576040517f08c379a0000000000000000000000000000000000000000000000000000000008152600401610aab90612647565b60405180910390fd5b806000803373ffffffffffffffffffffffffffffffffffffffff1673ffffffffffffffffffffffffffffffffffffffff1681526020019081526020016000206000018190555050565b60016020528060005260406000206000915054906101000a900473ffffffffffffffffffffffffffffffffffffffff1681565b7f000000000000000000000000000000000000000000000000000000000000000081565b7f000000000000000000000000000000000000000000000000000000000000000081565b60066020528160005260406000206020528060005260406000206000915091509054906101000a900473ffffffffffffffffffffffffffffffffffffffff1681565b60008060008373ffffffffffffffffffffffffffffffffffffffff1673ffffffffffffffffffffffffffffffffffffffff16815260200190815260200160002060030160149054906101000a900460ff169050919050565b60008073ffffffffffffffffffffffffffffffffffffffff168373ffffffffffffffffffffffffffffffffffffffff1603610c82576040517f08c379a0000000000000000000000000000000000000000000000000000000008152600401610c7990612787565b60405180910390fd5b600460008473ffffffffffffffffffffffffffffffffffffffff1673ffffffffffffffffffffffffffffffffffffffff16815260200190815260200160002060008363ffffffff1663ffffffff16815260200190815260200160002060009054906101000a900473ffffffffffffffffffffffffffffffffffffffff16905092915050565b60008073ffffffffffffffffffffffffffffffffffffffff168273ffffffffffffffffffffffffffffffffffffffff1603610d77576040517f08c379a0000000000000000000000000000000000000000000000000000000008152600401610d6e90612787565b60405180910390fd5b600360008373ffffffffffffffffffffffffffffffffffffffff1673ffffffffffffffffffffffffffffffffffffffff16815260200190815260200160002060009054906101000a900463ffffffff169050919050565b60046020528160005260406000206020528060005260406000206000915091509054906101000a900473ffffffffffffffffffffffffffffffffffffffff1681565b60056020528060005260406000206000915054906101000a900463ffffffff1681565b7f000000000000000000000000000000000000000000000000000000000000000073ffffffffffffffffffffffffffffffffffffffff1663ad87d2ba6040518163ffffffff1660e01b8152600401602060405180830381865afa158015610e9e573d6000803e3d6000fd5b505050506040513d601f19601f82011682018060405250810190610ec291906125bd565b610ecb57600080fd5b600115156000808373ffffffffffffffffffffffffffffffffffffffff1673ffffffffffffffffffffffffffffffffffffffff16815260200190815260200160002060030160149054906101000a900460ff16151503610f60576040517f08c379a0000000000000000000000000000000000000000000000000000000008152600401610f5790612647565b60405180910390fd5b60016000808373ffffffffffffffffffffffffffffffffffffffff1673ffffffffffffffffffffffffffffffffffffffff16815260200190815260200160002060030160156101000a81548160ff02191690831515021790555050565b610fc5611ea2565b600115156000808473ffffffffffffffffffffffffffffffffffffffff1673ffffffffffffffffffffffffffffffffffffffff16815260200190815260200160002060030160149054906101000a900460ff1615151461105a576040517f08c379a0000000000000000000000000000000000000000000000000000000008152600401611051906127f3565b60405180910390fd5b6000808373ffffffffffffffffffffffffffffffffffffffff1673ffffffffffffffffffffffffffffffffffffffff16815260200190815260200160002060405180610120016040529081600082015481526020016001820160009054906101000a900463ffffffff1663ffffffff1663ffffffff1681526020016001820160049054906101000a900473ffffffffffffffffffffffffffffffffffffffff1673ffffffffffffffffffffffffffffffffffffffff1673ffffffffffffffffffffffffffffffffffffffff1681526020016001820160189054906101000a900464ffffffffff1664ffffffffff1664ffffffffff1681526020016002820160009054906101000a900473ffffffffffffffffffffffffffffffffffffffff1673ffffffffffffffffffffffffffffffffffffffff1673ffffffffffffffffffffffffffffffffffffffff1681526020016002820160149054906101000a900463ffffffff1663ffffffff1663ffffffff1681526020016003820160009054906101000a900473ffffffffffffffffffffffffffffffffffffffff1673ffffffffffffffffffffffffffffffffffffffff1673ffffffffffffffffffffffffffffffffffffffff1681526020016003820160149054906101000a900460ff161515151581526020016003820160159054906101000a900460ff1615151515815250509050919050565b6000600115156000808473ffffffffffffffffffffffffffffffffffffffff1673ffffffffffffffffffffffffffffffffffffffff16815260200190815260200160002060030160149054906101000a900460ff161515146112f9576040517f08c379a00000000000000000000000000000000000000000000000000000000081526004016112f0906127f3565b60405180910390fd5b6000808373ffffffffffffffffffffffffffffffffffffffff1673ffffffffffffffffffffffffffffffffffffffff16815260200190815260200160002060010160049054906101000a900473ffffffffffffffffffffffffffffffffffffffff169050919050565b60036020528060005260406000206000915054906101000a900463ffffffff1681565b600073ffffffffffffffffffffffffffffffffffffffff166000803373ffffffffffffffffffffffffffffffffffffffff1673ffffffffffffffffffffffffffffffffffffffff16815260200190815260200160002060010160049054906101000a900473ffffffffffffffffffffffffffffffffffffffff1673ffffffffffffffffffffffffffffffffffffffff1614611455576040517f08c379a000000000000000000000000000000000000000000000000000000000815260040161144c9061285f565b60405180910390fd5b6000600160008364ffffffffff1664ffffffffff16815260200190815260200160002060009054906101000a900473ffffffffffffffffffffffffffffffffffffffff1690506001600360008373ffffffffffffffffffffffffffffffffffffffff1673ffffffffffffffffffffffffffffffffffffffff16815260200190815260200160002060009054906101000a900463ffffffff1663ffffffff161061157a576001600360008373ffffffffffffffffffffffffffffffffffffffff1673ffffffffffffffffffffffffffffffffffffffff16815260200190815260200160002060008282829054906101000a900463ffffffff16611557919061287f565b92506101000a81548163ffffffff021916908363ffffffff1602179055506115da565b6001600360008373ffffffffffffffffffffffffffffffffffffffff1673ffffffffffffffffffffffffffffffffffffffff16815260200190815260200160002060006101000a81548163ffffffff021916908363ffffffff1602179055505b33600460008373ffffffffffffffffffffffffffffffffffffffff1673ffffffffffffffffffffffffffffffffffffffff1681526020019081526020016000206000600360008573ffffffffffffffffffffffffffffffffffffffff1673ffffffffffffffffffffffffffffffffffffffff16815260200190815260200160002060009054906101000a900463ffffffff1663ffffffff1663ffffffff16815260200190815260200160002060006101000a81548173ffffffffffffffffffffffffffffffffffffffff021916908373ffffffffffffffffffffffffffffffffffffffff160217905550806000803373ffffffffffffffffffffffffffffffffffffffff1673ffffffffffffffffffffffffffffffffffffffff16815260200190815260200160002060010160046101000a81548173ffffffffffffffffffffffffffffffffffffffff021916908373ffffffffffffffffffffffffffffffffffffffff1602179055505050565b60006020528060005260406000206000915090508060000154908060010160009054906101000a900463ffffffff16908060010160049054906101000a900473ffffffffffffffffffffffffffffffffffffffff16908060010160189054906101000a900464ffffffffff16908060020160009054906101000a900473ffffffffffffffffffffffffffffffffffffffff16908060020160149054906101000a900463ffffffff16908060030160009054906101000a900473ffffffffffffffffffffffffffffffffffffffff16908060030160149054906101000a900460ff16908060030160159054906101000a900460ff16905089565b600115156000808460c0015173ffffffffffffffffffffffffffffffffffffffff1673ffffffffffffffffffffffffffffffffffffffff16815260200190815260200160002060030160149054906101000a900460ff161515141580156118d757503373ffffffffffffffffffffffffffffffffffffffff168260c0015173ffffffffffffffffffffffffffffffffffffffff16145b611916576040517f08c379a000000000000000000000000000000000000000000000000000000000815260040161190d906126b3565b60405180910390fd5b6001600560008373ffffffffffffffffffffffffffffffffffffffff1673ffffffffffffffffffffffffffffffffffffffff16815260200190815260200160002060009054906101000a900463ffffffff1663ffffffff16106119f5576001600560008373ffffffffffffffffffffffffffffffffffffffff1673ffffffffffffffffffffffffffffffffffffffff16815260200190815260200160002060008282829054906101000a900463ffffffff166119d2919061287f565b92506101000a81548163ffffffff021916908363ffffffff160217905550611a55565b6001600560008373ffffffffffffffffffffffffffffffffffffffff1673ffffffffffffffffffffffffffffffffffffffff16815260200190815260200160002060006101000a81548163ffffffff021916908363ffffffff1602179055505b80826080019073ffffffffffffffffffffffffffffffffffffffff16908173ffffffffffffffffffffffffffffffffffffffff1681525050600560008273ffffffffffffffffffffffffffffffffffffffff1673ffffffffffffffffffffffffffffffffffffffff16815260200190815260200160002060009054906101000a900463ffffffff168260a0019063ffffffff16908163ffffffff16815250506001600260008282829054906101000a900464ffffffffff16611b179190612702565b92506101000a81548164ffffffffff021916908364ffffffffff1602179055503360016000600260009054906101000a900464ffffffffff1664ffffffffff1664ffffffffff16815260200190815260200160002060006101000a81548173ffffffffffffffffffffffffffffffffffffffff021916908373ffffffffffffffffffffffffffffffffffffffff160217905550600260009054906101000a900464ffffffffff16826060019064ffffffffff16908164ffffffffff1681525050816000808460c0015173ffffffffffffffffffffffffffffffffffffffff1673ffffffffffffffffffffffffffffffffffffffff1681526020019081526020016000206000820151816000015560208201518160010160006101000a81548163ffffffff021916908363ffffffff16021790555060408201518160010160046101000a81548173ffffffffffffffffffffffffffffffffffffffff021916908373ffffffffffffffffffffffffffffffffffffffff16021790555060608201518160010160186101000a81548164ffffffffff021916908364ffffffffff16021790555060808201518160020160006101000a81548173ffffffffffffffffffffffffffffffffffffffff021916908373ffffffffffffffffffffffffffffffffffffffff16021790555060a08201518160020160146101000a81548163ffffffff021916908363ffffffff16021790555060c08201518160030160006101000a81548173ffffffffffffffffffffffffffffffffffffffff021916908373ffffffffffffffffffffffffffffffffffffffff16021790555060e08201518160030160146101000a81548160ff0219169083151502179055506101008201518160030160156101000a81548160ff02191690831515021790555090505033600660008373ffffffffffffffffffffffffffffffffffffffff1673ffffffffffffffffffffffffffffffffffffffff1681526020019081526020016000206000600560008573ffffffffffffffffffffffffffffffffffffffff1673ffffffffffffffffffffffffffffffffffffffff16815260200190815260200160002060009054906101000a900463ffffffff1663ffffffff1663ffffffff16815260200190815260200160002060006101000a81548173ffffffffffffffffffffffffffffffffffffffff021916908373ffffffffffffffffffffffffffffffffffffffff1602179055505050565b60405180610120016040528060008019168152602001600063ffffffff168152602001600073ffffffffffffffffffffffffffffffffffffffff168152602001600064ffffffffff168152602001600073ffffffffffffffffffffffffffffffffffffffff168152602001600063ffffffff168152602001600073ffffffffffffffffffffffffffffffffffffffff1681526020016000151581526020016000151581525090565b6000604051905090565b600080fd5b600073ffffffffffffffffffffffffffffffffffffffff82169050919050565b6000611f8482611f59565b9050919050565b611f9481611f79565b8114611f9f57600080fd5b50565b600081359050611fb181611f8b565b92915050565b600060208284031215611fcd57611fcc611f54565b5b6000611fdb84828501611fa2565b91505092915050565b600080fd5b6000601f19601f8301169050919050565b7f4e487b7100000000000000000000000000000000000000000000000000000000600052604160045260246000fd5b61203282611fe9565b810181811067ffffffffffffffff8211171561205157612050611ffa565b5b80604052505050565b6000612064611f4a565b90506120708282612029565b919050565b6000819050919050565b61208881612075565b811461209357600080fd5b50565b6000813590506120a58161207f565b92915050565b600063ffffffff82169050919050565b6120c4816120ab565b81146120cf57600080fd5b50565b6000813590506120e1816120bb565b92915050565b600064ffffffffff82169050919050565b612101816120e7565b811461210c57600080fd5b50565b60008135905061211e816120f8565b92915050565b60008115159050919050565b61213981612124565b811461214457600080fd5b50565b60008135905061215681612130565b92915050565b6000610120828403121561217357612172611fe4565b5b61217e61012061205a565b9050600061218e84828501612096565b60008301525060206121a2848285016120d2565b60208301525060406121b684828501611fa2565b60408301525060606121ca8482850161210f565b60608301525060806121de84828501611fa2565b60808301525060a06121f2848285016120d2565b60a08301525060c061220684828501611fa2565b60c08301525060e061221a84828501612147565b60e08301525061010061222f84828501612147565b6101008301525092915050565b6000610120828403121561225357612252611f54565b5b60006122618482850161215c565b91505092915050565b612273816120e7565b82525050565b600060208201905061228e600083018461226a565b92915050565b6000602082840312156122aa576122a9611f54565b5b60006122b884828501612096565b91505092915050565b6000602082840312156122d7576122d6611f54565b5b60006122e58482850161210f565b91505092915050565b6122f781611f79565b82525050565b600060208201905061231260008301846122ee565b92915050565b6000806040838503121561232f5761232e611f54565b5b600061233d85828601611fa2565b925050602061234e858286016120d2565b9150509250929050565b61236181612124565b82525050565b600060208201905061237c6000830184612358565b92915050565b61238b816120ab565b82525050565b60006020820190506123a66000830184612382565b92915050565b6123b581612075565b82525050565b6123c4816120ab565b82525050565b6123d381611f79565b82525050565b6123e2816120e7565b82525050565b6123f181612124565b82525050565b6101208201600082015161240e60008501826123ac565b50602082015161242160208501826123bb565b50604082015161243460408501826123ca565b50606082015161244760608501826123d9565b50608082015161245a60808501826123ca565b5060a082015161246d60a08501826123bb565b5060c082015161248060c08501826123ca565b5060e082015161249360e08501826123e8565b506101008201516124a86101008501826123e8565b50505050565b6000610120820190506124c460008301846123f7565b92915050565b6124d381612075565b82525050565b6000610120820190506124ef600083018c6124ca565b6124fc602083018b612382565b612509604083018a6122ee565b612516606083018961226a565b61252360808301886122ee565b61253060a0830187612382565b61253d60c08301866122ee565b61254a60e0830185612358565b612558610100830184612358565b9a9950505050505050505050565b600080610140838503121561257e5761257d611f54565b5b600061258c8582860161215c565b92505061012061259e85828601611fa2565b9150509250929050565b6000815190506125b781612130565b92915050565b6000602082840312156125d3576125d2611f54565b5b60006125e1848285016125a8565b91505092915050565b600082825260208201905092915050565b7f637573746f6d6572206973206e6f742065786973747300000000000000000000600082015250565b60006126316016836125ea565b915061263c826125fb565b602082019050919050565b6000602082019050818103600083015261266081612624565b9050919050565b7f637573746f6d6572206973206578697374730000000000000000000000000000600082015250565b600061269d6012836125ea565b91506126a882612667565b602082019050919050565b600060208201905081810360008301526126cc81612690565b9050919050565b7f4e487b7100000000000000000000000000000000000000000000000000000000600052601160045260246000fd5b600061270d826120e7565b9150612718836120e7565b9250828201905064ffffffffff811115612735576127346126d3565b5b92915050565b7f637573746f6d65722061646472657373206973206e756c6c0000000000000000600082015250565b60006127716018836125ea565b915061277c8261273b565b602082019050919050565b600060208201905081810360008301526127a081612764565b9050919050565b7f20437573746f6d6572206973206e6f7420657869737473000000000000000000600082015250565b60006127dd6017836125ea565b91506127e8826127a7565b602082019050919050565b6000602082019050818103600083015261280c816127d0565b9050919050565b7f74686520637573746f6d6572207265636f6d6d656e6465722065786973747300600082015250565b6000612849601f836125ea565b915061285482612813565b602082019050919050565b600060208201905081810360008301526128788161283c565b9050919050565b600061288a826120ab565b9150612895836120ab565b9250828201905063ffffffff8111156128b1576128b06126d3565b5b9291505056fea264697066735822122050bc1b43b5da59fdf8e2aed5795f2bd4d777d0abb401886e7fa16237dda3326164736f6c63430008120033",
					"opcodes": "PUSH1 0xC0 PUSH1 0x40 MSTORE CALLVALUE DUP1 ISZERO PUSH3 0x11 JUMPI PUSH1 0x0 DUP1 REVERT JUMPDEST POP PUSH1 0x40 MLOAD PUSH3 0x2A79 CODESIZE SUB DUP1 PUSH3 0x2A79 DUP4 CODECOPY DUP2 DUP2 ADD PUSH1 0x40 MSTORE DUP2 ADD SWAP1 PUSH3 0x37 SWAP2 SWAP1 PUSH3 0x111 JUMP JUMPDEST DUP2 PUSH20 0xFFFFFFFFFFFFFFFFFFFFFFFFFFFFFFFFFFFFFFFF AND PUSH1 0x80 DUP2 PUSH20 0xFFFFFFFFFFFFFFFFFFFFFFFFFFFFFFFFFFFFFFFF AND DUP2 MSTORE POP POP DUP1 PUSH20 0xFFFFFFFFFFFFFFFFFFFFFFFFFFFFFFFFFFFFFFFF AND PUSH1 0xA0 DUP2 PUSH20 0xFFFFFFFFFFFFFFFFFFFFFFFFFFFFFFFFFFFFFFFF AND DUP2 MSTORE POP POP POP POP PUSH3 0x158 JUMP JUMPDEST PUSH1 0x0 DUP1 REVERT JUMPDEST PUSH1 0x0 PUSH20 0xFFFFFFFFFFFFFFFFFFFFFFFFFFFFFFFFFFFFFFFF DUP3 AND SWAP1 POP SWAP2 SWAP1 POP JUMP JUMPDEST PUSH1 0x0 PUSH3 0xD9 DUP3 PUSH3 0xAC JUMP JUMPDEST SWAP1 POP SWAP2 SWAP1 POP JUMP JUMPDEST PUSH3 0xEB DUP2 PUSH3 0xCC JUMP JUMPDEST DUP2 EQ PUSH3 0xF7 JUMPI PUSH1 0x0 DUP1 REVERT JUMPDEST POP JUMP JUMPDEST PUSH1 0x0 DUP2 MLOAD SWAP1 POP PUSH3 0x10B DUP2 PUSH3 0xE0 JUMP JUMPDEST SWAP3 SWAP2 POP POP JUMP JUMPDEST PUSH1 0x0 DUP1 PUSH1 0x40 DUP4 DUP6 SUB SLT ISZERO PUSH3 0x12B JUMPI PUSH3 0x12A PUSH3 0xA7 JUMP JUMPDEST JUMPDEST PUSH1 0x0 PUSH3 0x13B DUP6 DUP3 DUP7 ADD PUSH3 0xFA JUMP JUMPDEST SWAP3 POP POP PUSH1 0x20 PUSH3 0x14E DUP6 DUP3 DUP7 ADD PUSH3 0xFA JUMP JUMPDEST SWAP2 POP POP SWAP3 POP SWAP3 SWAP1 POP JUMP JUMPDEST PUSH1 0x80 MLOAD PUSH1 0xA0 MLOAD PUSH2 0x28ED PUSH3 0x18C PUSH1 0x0 CODECOPY PUSH1 0x0 DUP2 DUP2 PUSH2 0x44D ADD MSTORE DUP2 DUP2 PUSH2 0xB56 ADD MSTORE PUSH2 0xE35 ADD MSTORE PUSH1 0x0 PUSH2 0xB32 ADD MSTORE PUSH2 0x28ED PUSH1 0x0 RETURN INVALID PUSH1 0x80 PUSH1 0x40 MSTORE CALLVALUE DUP1 ISZERO PUSH2 0x10 JUMPI PUSH1 0x0 DUP1 REVERT JUMPDEST POP PUSH1 0x4 CALLDATASIZE LT PUSH2 0x12C JUMPI PUSH1 0x0 CALLDATALOAD PUSH1 0xE0 SHR DUP1 PUSH4 0x8A6DF726 GT PUSH2 0xAD JUMPI DUP1 PUSH4 0xE71957B9 GT PUSH2 0x71 JUMPI DUP1 PUSH4 0xE71957B9 EQ PUSH2 0x37B JUMPI DUP1 PUSH4 0xE853F952 EQ PUSH2 0x3AB JUMPI DUP1 PUSH4 0xF3C86048 EQ PUSH2 0x3DB JUMPI DUP1 PUSH4 0xF4274BC5 EQ PUSH2 0x3F7 JUMPI DUP1 PUSH4 0xFC5F9F18 EQ PUSH2 0x42F JUMPI PUSH2 0x12C JUMP JUMPDEST DUP1 PUSH4 0x8A6DF726 EQ PUSH2 0x29F JUMPI DUP1 PUSH4 0xA60832CD EQ PUSH2 0x2CF JUMPI DUP1 PUSH4 0xBC5C6134 EQ PUSH2 0x2FF JUMPI DUP1 PUSH4 0xBE5FDAC8 EQ PUSH2 0x32F JUMPI DUP1 PUSH4 0xCB949E51 EQ PUSH2 0x34B JUMPI PUSH2 0x12C JUMP JUMPDEST DUP1 PUSH4 0x47D0A634 GT PUSH2 0xF4 JUMPI DUP1 PUSH4 0x47D0A634 EQ PUSH2 0x1D3 JUMPI DUP1 PUSH4 0x492B7107 EQ PUSH2 0x1F1 JUMPI DUP1 PUSH4 0x5CFEAFA5 EQ PUSH2 0x20F JUMPI DUP1 PUSH4 0x78166097 EQ PUSH2 0x23F JUMPI DUP1 PUSH4 0x8370AA81 EQ PUSH2 0x26F JUMPI PUSH2 0x12C JUMP JUMPDEST DUP1 PUSH4 0x138A661 EQ PUSH2 0x131 JUMPI DUP1 PUSH4 0x14F9E554 EQ PUSH2 0x14D JUMPI DUP1 PUSH4 0x367B6DCC EQ PUSH2 0x169 JUMPI DUP1 PUSH4 0x3B63B647 EQ PUSH2 0x187 JUMPI DUP1 PUSH4 0x3E95003C EQ PUSH2 0x1A3 JUMPI JUMPDEST PUSH1 0x0 DUP1 REVERT JUMPDEST PUSH2 0x14B PUSH1 0x4 DUP1 CALLDATASIZE SUB DUP2 ADD SWAP1 PUSH2 0x146 SWAP2 SWAP1 PUSH2 0x1FB7 JUMP JUMPDEST PUSH2 0x44B JUMP JUMPDEST STOP JUMPDEST PUSH2 0x167 PUSH1 0x4 DUP1 CALLDATASIZE SUB DUP2 ADD SWAP1 PUSH2 0x162 SWAP2 SWAP1 PUSH2 0x223C JUMP JUMPDEST PUSH2 0x5D5 JUMP JUMPDEST STOP JUMPDEST PUSH2 0x171 PUSH2 0x96D JUMP JUMPDEST PUSH1 0x40 MLOAD PUSH2 0x17E SWAP2 SWAP1 PUSH2 0x2279 JUMP JUMPDEST PUSH1 0x40 MLOAD DUP1 SWAP2 SUB SWAP1 RETURN JUMPDEST PUSH2 0x1A1 PUSH1 0x4 DUP1 CALLDATASIZE SUB DUP2 ADD SWAP1 PUSH2 0x19C SWAP2 SWAP1 PUSH2 0x2294 JUMP JUMPDEST PUSH2 0x984 JUMP JUMPDEST STOP JUMPDEST PUSH2 0x1BD PUSH1 0x4 DUP1 CALLDATASIZE SUB DUP2 ADD SWAP1 PUSH2 0x1B8 SWAP2 SWAP1 PUSH2 0x22C1 JUMP JUMPDEST PUSH2 0xAFD JUMP JUMPDEST PUSH1 0x40 MLOAD PUSH2 0x1CA SWAP2 SWAP1 PUSH2 0x22FD JUMP JUMPDEST PUSH1 0x40 MLOAD DUP1 SWAP2 SUB SWAP1 RETURN JUMPDEST PUSH2 0x1DB PUSH2 0xB30 JUMP JUMPDEST PUSH1 0x40 MLOAD PUSH2 0x1E8 SWAP2 SWAP1 PUSH2 0x22FD JUMP JUMPDEST PUSH1 0x40 MLOAD DUP1 SWAP2 SUB SWAP1 RETURN JUMPDEST PUSH2 0x1F9 PUSH2 0xB54 JUMP JUMPDEST PUSH1 0x40 MLOAD PUSH2 0x206 SWAP2 SWAP1 PUSH2 0x22FD JUMP JUMPDEST PUSH1 0x40 MLOAD DUP1 SWAP2 SUB SWAP1 RETURN JUMPDEST PUSH2 0x229 PUSH1 0x4 DUP1 CALLDATASIZE SUB DUP2 ADD SWAP1 PUSH2 0x224 SWAP2 SWAP1 PUSH2 0x2318 JUMP JUMPDEST PUSH2 0xB78 JUMP JUMPDEST PUSH1 0x40 MLOAD PUSH2 0x236 SWAP2 SWAP1 PUSH2 0x22FD JUMP JUMPDEST PUSH1 0x40 MLOAD DUP1 SWAP2 SUB SWAP1 RETURN JUMPDEST PUSH2 0x259 PUSH1 0x4 DUP1 CALLDATASIZE SUB DUP2 ADD SWAP1 PUSH2 0x254 SWAP2 SWAP1 PUSH2 0x1FB7 JUMP JUMPDEST PUSH2 0xBBA JUMP JUMPDEST PUSH1 0x40 MLOAD PUSH2 0x266 SWAP2 SWAP1 PUSH2 0x2367 JUMP JUMPDEST PUSH1 0x40 MLOAD DUP1 SWAP2 SUB SWAP1 RETURN JUMPDEST PUSH2 0x289 PUSH1 0x4 DUP1 CALLDATASIZE SUB DUP2 ADD SWAP1 PUSH2 0x284 SWAP2 SWAP1 PUSH2 0x2318 JUMP JUMPDEST PUSH2 0xC12 JUMP JUMPDEST PUSH1 0x40 MLOAD PUSH2 0x296 SWAP2 SWAP1 PUSH2 0x22FD JUMP JUMPDEST PUSH1 0x40 MLOAD DUP1 SWAP2 SUB SWAP1 RETURN JUMPDEST PUSH2 0x2B9 PUSH1 0x4 DUP1 CALLDATASIZE SUB DUP2 ADD SWAP1 PUSH2 0x2B4 SWAP2 SWAP1 PUSH2 0x1FB7 JUMP JUMPDEST PUSH2 0xD07 JUMP JUMPDEST PUSH1 0x40 MLOAD PUSH2 0x2C6 SWAP2 SWAP1 PUSH2 0x2391 JUMP JUMPDEST PUSH1 0x40 MLOAD DUP1 SWAP2 SUB SWAP1 RETURN JUMPDEST PUSH2 0x2E9 PUSH1 0x4 DUP1 CALLDATASIZE SUB DUP2 ADD SWAP1 PUSH2 0x2E4 SWAP2 SWAP1 PUSH2 0x2318 JUMP JUMPDEST PUSH2 0xDCE JUMP JUMPDEST PUSH1 0x40 MLOAD PUSH2 0x2F6 SWAP2 SWAP1 PUSH2 0x22FD JUMP JUMPDEST PUSH1 0x40 MLOAD DUP1 SWAP2 SUB SWAP1 RETURN JUMPDEST PUSH2 0x319 PUSH1 0x4 DUP1 CALLDATASIZE SUB DUP2 ADD SWAP1 PUSH2 0x314 SWAP2 SWAP1 PUSH2 0x1FB7 JUMP JUMPDEST PUSH2 0xE10 JUMP JUMPDEST PUSH1 0x40 MLOAD PUSH2 0x326 SWAP2 SWAP1 PUSH2 0x2391 JUMP JUMPDEST PUSH1 0x40 MLOAD DUP1 SWAP2 SUB SWAP1 RETURN JUMPDEST PUSH2 0x349 PUSH1 0x4 DUP1 CALLDATASIZE SUB DUP2 ADD SWAP1 PUSH2 0x344 SWAP2 SWAP1 PUSH2 0x1FB7 JUMP JUMPDEST PUSH2 0xE33 JUMP JUMPDEST STOP JUMPDEST PUSH2 0x365 PUSH1 0x4 DUP1 CALLDATASIZE SUB DUP2 ADD SWAP1 PUSH2 0x360 SWAP2 SWAP1 PUSH2 0x1FB7 JUMP JUMPDEST PUSH2 0xFBD JUMP JUMPDEST PUSH1 0x40 MLOAD PUSH2 0x372 SWAP2 SWAP1 PUSH2 0x24AE JUMP JUMPDEST PUSH1 0x40 MLOAD DUP1 SWAP2 SUB SWAP1 RETURN JUMPDEST PUSH2 0x395 PUSH1 0x4 DUP1 CALLDATASIZE SUB DUP2 ADD SWAP1 PUSH2 0x390 SWAP2 SWAP1 PUSH2 0x1FB7 JUMP JUMPDEST PUSH2 0x1262 JUMP JUMPDEST PUSH1 0x40 MLOAD PUSH2 0x3A2 SWAP2 SWAP1 PUSH2 0x22FD JUMP JUMPDEST PUSH1 0x40 MLOAD DUP1 SWAP2 SUB SWAP1 RETURN JUMPDEST PUSH2 0x3C5 PUSH1 0x4 DUP1 CALLDATASIZE SUB DUP2 ADD SWAP1 PUSH2 0x3C0 SWAP2 SWAP1 PUSH2 0x1FB7 JUMP JUMPDEST PUSH2 0x1362 JUMP JUMPDEST PUSH1 0x40 MLOAD PUSH2 0x3D2 SWAP2 SWAP1 PUSH2 0x2391 JUMP JUMPDEST PUSH1 0x40 MLOAD DUP1 SWAP2 SUB SWAP1 RETURN JUMPDEST PUSH2 0x3F5 PUSH1 0x4 DUP1 CALLDATASIZE SUB DUP2 ADD SWAP1 PUSH2 0x3F0 SWAP2 SWAP1 PUSH2 0x22C1 JUMP JUMPDEST PUSH2 0x1385 JUMP JUMPDEST STOP JUMPDEST PUSH2 0x411 PUSH1 0x4 DUP1 CALLDATASIZE SUB DUP2 ADD SWAP1 PUSH2 0x40C SWAP2 SWAP1 PUSH2 0x1FB7 JUMP JUMPDEST PUSH2 0x1748 JUMP JUMPDEST PUSH1 0x40 MLOAD PUSH2 0x426 SWAP10 SWAP9 SWAP8 SWAP7 SWAP6 SWAP5 SWAP4 SWAP3 SWAP2 SWAP1 PUSH2 0x24D9 JUMP JUMPDEST PUSH1 0x40 MLOAD DUP1 SWAP2 SUB SWAP1 RETURN JUMPDEST PUSH2 0x449 PUSH1 0x4 DUP1 CALLDATASIZE SUB DUP2 ADD SWAP1 PUSH2 0x444 SWAP2 SWAP1 PUSH2 0x2566 JUMP JUMPDEST PUSH2 0x1841 JUMP JUMPDEST STOP JUMPDEST PUSH32 0x0 PUSH20 0xFFFFFFFFFFFFFFFFFFFFFFFFFFFFFFFFFFFFFFFF AND PUSH4 0xAD87D2BA PUSH1 0x40 MLOAD DUP2 PUSH4 0xFFFFFFFF AND PUSH1 0xE0 SHL DUP2 MSTORE PUSH1 0x4 ADD PUSH1 0x20 PUSH1 0x40 MLOAD DUP1 DUP4 SUB DUP2 DUP7 GAS STATICCALL ISZERO DUP1 ISZERO PUSH2 0x4B6 JUMPI RETURNDATASIZE PUSH1 0x0 DUP1 RETURNDATACOPY RETURNDATASIZE PUSH1 0x0 REVERT JUMPDEST POP POP POP POP PUSH1 0x40 MLOAD RETURNDATASIZE PUSH1 0x1F NOT PUSH1 0x1F DUP3 ADD AND DUP3 ADD DUP1 PUSH1 0x40 MSTORE POP DUP2 ADD SWAP1 PUSH2 0x4DA SWAP2 SWAP1 PUSH2 0x25BD JUMP JUMPDEST PUSH2 0x4E3 JUMPI PUSH1 0x0 DUP1 REVERT JUMPDEST PUSH1 0x1 ISZERO ISZERO PUSH1 0x0 DUP1 DUP4 PUSH20 0xFFFFFFFFFFFFFFFFFFFFFFFFFFFFFFFFFFFFFFFF AND PUSH20 0xFFFFFFFFFFFFFFFFFFFFFFFFFFFFFFFFFFFFFFFF AND DUP2 MSTORE PUSH1 0x20 ADD SWAP1 DUP2 MSTORE PUSH1 0x20 ADD PUSH1 0x0 KECCAK256 PUSH1 0x3 ADD PUSH1 0x14 SWAP1 SLOAD SWAP1 PUSH2 0x100 EXP SWAP1 DIV PUSH1 0xFF AND ISZERO ISZERO SUB PUSH2 0x578 JUMPI PUSH1 0x40 MLOAD PUSH32 0x8C379A000000000000000000000000000000000000000000000000000000000 DUP2 MSTORE PUSH1 0x4 ADD PUSH2 0x56F SWAP1 PUSH2 0x2647 JUMP JUMPDEST PUSH1 0x40 MLOAD DUP1 SWAP2 SUB SWAP1 REVERT JUMPDEST PUSH1 0x0 DUP1 PUSH1 0x0 DUP4 PUSH20 0xFFFFFFFFFFFFFFFFFFFFFFFFFFFFFFFFFFFFFFFF AND PUSH20 0xFFFFFFFFFFFFFFFFFFFFFFFFFFFFFFFFFFFFFFFF AND DUP2 MSTORE PUSH1 0x20 ADD SWAP1 DUP2 MSTORE PUSH1 0x20 ADD PUSH1 0x0 KECCAK256 PUSH1 0x3 ADD PUSH1 0x15 PUSH2 0x100 EXP DUP2 SLOAD DUP2 PUSH1 0xFF MUL NOT AND SWAP1 DUP4 ISZERO ISZERO MUL OR SWAP1 SSTORE POP POP JUMP JUMPDEST PUSH1 0x1 ISZERO ISZERO PUSH1 0x0 DUP1 DUP4 PUSH1 0xC0 ADD MLOAD PUSH20 0xFFFFFFFFFFFFFFFFFFFFFFFFFFFFFFFFFFFFFFFF AND PUSH20 0xFFFFFFFFFFFFFFFFFFFFFFFFFFFFFFFFFFFFFFFF AND DUP2 MSTORE PUSH1 0x20 ADD SWAP1 DUP2 MSTORE PUSH1 0x20 ADD PUSH1 0x0 KECCAK256 PUSH1 0x3 ADD PUSH1 0x14 SWAP1 SLOAD SWAP1 PUSH2 0x100 EXP SWAP1 DIV PUSH1 0xFF AND ISZERO ISZERO EQ ISZERO DUP1 ISZERO PUSH2 0x66B JUMPI POP CALLER PUSH20 0xFFFFFFFFFFFFFFFFFFFFFFFFFFFFFFFFFFFFFFFF AND DUP2 PUSH1 0xC0 ADD MLOAD PUSH20 0xFFFFFFFFFFFFFFFFFFFFFFFFFFFFFFFFFFFFFFFF AND EQ JUMPDEST PUSH2 0x6AA JUMPI PUSH1 0x40 MLOAD PUSH32 0x8C379A000000000000000000000000000000000000000000000000000000000 DUP2 MSTORE PUSH1 0x4 ADD PUSH2 0x6A1 SWAP1 PUSH2 0x26B3 JUMP JUMPDEST PUSH1 0x40 MLOAD DUP1 SWAP2 SUB SWAP1 REVERT JUMPDEST PUSH1 0x1 PUSH1 0x2 PUSH1 0x0 DUP3 DUP3 DUP3 SWAP1 SLOAD SWAP1 PUSH2 0x100 EXP SWAP1 DIV PUSH5 0xFFFFFFFFFF AND PUSH2 0x6CD SWAP2 SWAP1 PUSH2 0x2702 JUMP JUMPDEST SWAP3 POP PUSH2 0x100 EXP DUP2 SLOAD DUP2 PUSH5 0xFFFFFFFFFF MUL NOT AND SWAP1 DUP4 PUSH5 0xFFFFFFFFFF AND MUL OR SWAP1 SSTORE POP CALLER PUSH1 0x1 PUSH1 0x0 PUSH1 0x2 PUSH1 0x0 SWAP1 SLOAD SWAP1 PUSH2 0x100 EXP SWAP1 DIV PUSH5 0xFFFFFFFFFF AND PUSH5 0xFFFFFFFFFF AND PUSH5 0xFFFFFFFFFF AND DUP2 MSTORE PUSH1 0x20 ADD SWAP1 DUP2 MSTORE PUSH1 0x20 ADD PUSH1 0x0 KECCAK256 PUSH1 0x0 PUSH2 0x100 EXP DUP2 SLOAD DUP2 PUSH20 0xFFFFFFFFFFFFFFFFFFFFFFFFFFFFFFFFFFFFFFFF MUL NOT AND SWAP1 DUP4 PUSH20 0xFFFFFFFFFFFFFFFFFFFFFFFFFFFFFFFFFFFFFFFF AND MUL OR SWAP1 SSTORE POP PUSH1 0x2 PUSH1 0x0 SWAP1 SLOAD SWAP1 PUSH2 0x100 EXP SWAP1 DIV PUSH5 0xFFFFFFFFFF AND DUP2 PUSH1 0x60 ADD SWAP1 PUSH5 0xFFFFFFFFFF AND SWAP1 DUP2 PUSH5 0xFFFFFFFFFF AND DUP2 MSTORE POP POP DUP1 PUSH1 0x0 DUP1 DUP4 PUSH1 0xC0 ADD MLOAD PUSH20 0xFFFFFFFFFFFFFFFFFFFFFFFFFFFFFFFFFFFFFFFF AND PUSH20 0xFFFFFFFFFFFFFFFFFFFFFFFFFFFFFFFFFFFFFFFF AND DUP2 MSTORE PUSH1 0x20 ADD SWAP1 DUP2 MSTORE PUSH1 0x20 ADD PUSH1 0x0 KECCAK256 PUSH1 0x0 DUP3 ADD MLOAD DUP2 PUSH1 0x0 ADD SSTORE PUSH1 0x20 DUP3 ADD MLOAD DUP2 PUSH1 0x1 ADD PUSH1 0x0 PUSH2 0x100 EXP DUP2 SLOAD DUP2 PUSH4 0xFFFFFFFF MUL NOT AND SWAP1 DUP4 PUSH4 0xFFFFFFFF AND MUL OR SWAP1 SSTORE POP PUSH1 0x40 DUP3 ADD MLOAD DUP2 PUSH1 0x1 ADD PUSH1 0x4 PUSH2 0x100 EXP DUP2 SLOAD DUP2 PUSH20 0xFFFFFFFFFFFFFFFFFFFFFFFFFFFFFFFFFFFFFFFF MUL NOT AND SWAP1 DUP4 PUSH20 0xFFFFFFFFFFFFFFFFFFFFFFFFFFFFFFFFFFFFFFFF AND MUL OR SWAP1 SSTORE POP PUSH1 0x60 DUP3 ADD MLOAD DUP2 PUSH1 0x1 ADD PUSH1 0x18 PUSH2 0x100 EXP DUP2 SLOAD DUP2 PUSH5 0xFFFFFFFFFF MUL NOT AND SWAP1 DUP4 PUSH5 0xFFFFFFFFFF AND MUL OR SWAP1 SSTORE POP PUSH1 0x80 DUP3 ADD MLOAD DUP2 PUSH1 0x2 ADD PUSH1 0x0 PUSH2 0x100 EXP DUP2 SLOAD DUP2 PUSH20 0xFFFFFFFFFFFFFFFFFFFFFFFFFFFFFFFFFFFFFFFF MUL NOT AND SWAP1 DUP4 PUSH20 0xFFFFFFFFFFFFFFFFFFFFFFFFFFFFFFFFFFFFFFFF AND MUL OR SWAP1 SSTORE POP PUSH1 0xA0 DUP3 ADD MLOAD DUP2 PUSH1 0x2 ADD PUSH1 0x14 PUSH2 0x100 EXP DUP2 SLOAD DUP2 PUSH4 0xFFFFFFFF MUL NOT AND SWAP1 DUP4 PUSH4 0xFFFFFFFF AND MUL OR SWAP1 SSTORE POP PUSH1 0xC0 DUP3 ADD MLOAD DUP2 PUSH1 0x3 ADD PUSH1 0x0 PUSH2 0x100 EXP DUP2 SLOAD DUP2 PUSH20 0xFFFFFFFFFFFFFFFFFFFFFFFFFFFFFFFFFFFFFFFF MUL NOT AND SWAP1 DUP4 PUSH20 0xFFFFFFFFFFFFFFFFFFFFFFFFFFFFFFFFFFFFFFFF AND MUL OR SWAP1 SSTORE POP PUSH1 0xE0 DUP3 ADD MLOAD DUP2 PUSH1 0x3 ADD PUSH1 0x14 PUSH2 0x100 EXP DUP2 SLOAD DUP2 PUSH1 0xFF MUL NOT AND SWAP1 DUP4 ISZERO ISZERO MUL OR SWAP1 SSTORE POP PUSH2 0x100 DUP3 ADD MLOAD DUP2 PUSH1 0x3 ADD PUSH1 0x15 PUSH2 0x100 EXP DUP2 SLOAD DUP2 PUSH1 0xFF MUL NOT AND SWAP1 DUP4 ISZERO ISZERO MUL OR SWAP1 SSTORE POP SWAP1 POP POP POP JUMP JUMPDEST PUSH1 0x2 PUSH1 0x0 SWAP1 SLOAD SWAP1 PUSH2 0x100 EXP SWAP1 DIV PUSH5 0xFFFFFFFFFF AND DUP2 JUMP JUMPDEST PUSH1 0x1 DUP1 ISZERO PUSH2 0xA1E JUMPI POP CALLER PUSH20 0xFFFFFFFFFFFFFFFFFFFFFFFFFFFFFFFFFFFFFFFF AND PUSH1 0x0 DUP1 CALLER PUSH20 0xFFFFFFFFFFFFFFFFFFFFFFFFFFFFFFFFFFFFFFFF AND PUSH20 0xFFFFFFFFFFFFFFFFFFFFFFFFFFFFFFFFFFFFFFFF AND DUP2 MSTORE PUSH1 0x20 ADD SWAP1 DUP2 MSTORE PUSH1 0x20 ADD PUSH1 0x0 KECCAK256 PUSH1 0x3 ADD PUSH1 0x0 SWAP1 SLOAD SWAP1 PUSH2 0x100 EXP SWAP1 DIV PUSH20 0xFFFFFFFFFFFFFFFFFFFFFFFFFFFFFFFFFFFFFFFF AND PUSH20 0xFFFFFFFFFFFFFFFFFFFFFFFFFFFFFFFFFFFFFFFF AND EQ JUMPDEST PUSH1 0x0 DUP1 CALLER PUSH20 0xFFFFFFFFFFFFFFFFFFFFFFFFFFFFFFFFFFFFFFFF AND PUSH20 0xFFFFFFFFFFFFFFFFFFFFFFFFFFFFFFFFFFFFFFFF AND DUP2 MSTORE PUSH1 0x20 ADD SWAP1 DUP2 MSTORE PUSH1 0x20 ADD PUSH1 0x0 KECCAK256 PUSH1 0x3 ADD PUSH1 0x14 PUSH2 0x100 EXP DUP2 SLOAD DUP2 PUSH1 0xFF MUL NOT AND SWAP1 DUP4 ISZERO ISZERO MUL OR SWAP1 SSTORE PUSH2 0xAB4 JUMPI PUSH1 0x40 MLOAD PUSH32 0x8C379A000000000000000000000000000000000000000000000000000000000 DUP2 MSTORE PUSH1 0x4 ADD PUSH2 0xAAB SWAP1 PUSH2 0x2647 JUMP JUMPDEST PUSH1 0x40 MLOAD DUP1 SWAP2 SUB SWAP1 REVERT JUMPDEST DUP1 PUSH1 0x0 DUP1 CALLER PUSH20 0xFFFFFFFFFFFFFFFFFFFFFFFFFFFFFFFFFFFFFFFF AND PUSH20 0xFFFFFFFFFFFFFFFFFFFFFFFFFFFFFFFFFFFFFFFF AND DUP2 MSTORE PUSH1 0x20 ADD SWAP1 DUP2 MSTORE PUSH1 0x20 ADD PUSH1 0x0 KECCAK256 PUSH1 0x0 ADD DUP2 SWAP1 SSTORE POP POP JUMP JUMPDEST PUSH1 0x1 PUSH1 0x20 MSTORE DUP1 PUSH1 0x0 MSTORE PUSH1 0x40 PUSH1 0x0 KECCAK256 PUSH1 0x0 SWAP2 POP SLOAD SWAP1 PUSH2 0x100 EXP SWAP1 DIV PUSH20 0xFFFFFFFFFFFFFFFFFFFFFFFFFFFFFFFFFFFFFFFF AND DUP2 JUMP JUMPDEST PUSH32 0x0 DUP2 JUMP JUMPDEST PUSH32 0x0 DUP2 JUMP JUMPDEST PUSH1 0x6 PUSH1 0x20 MSTORE DUP2 PUSH1 0x0 MSTORE PUSH1 0x40 PUSH1 0x0 KECCAK256 PUSH1 0x20 MSTORE DUP1 PUSH1 0x0 MSTORE PUSH1 0x40 PUSH1 0x0 KECCAK256 PUSH1 0x0 SWAP2 POP SWAP2 POP SWAP1 SLOAD SWAP1 PUSH2 0x100 EXP SWAP1 DIV PUSH20 0xFFFFFFFFFFFFFFFFFFFFFFFFFFFFFFFFFFFFFFFF AND DUP2 JUMP JUMPDEST PUSH1 0x0 DUP1 PUSH1 0x0 DUP4 PUSH20 0xFFFFFFFFFFFFFFFFFFFFFFFFFFFFFFFFFFFFFFFF AND PUSH20 0xFFFFFFFFFFFFFFFFFFFFFFFFFFFFFFFFFFFFFFFF AND DUP2 MSTORE PUSH1 0x20 ADD SWAP1 DUP2 MSTORE PUSH1 0x20 ADD PUSH1 0x0 KECCAK256 PUSH1 0x3 ADD PUSH1 0x14 SWAP1 SLOAD SWAP1 PUSH2 0x100 EXP SWAP1 DIV PUSH1 0xFF AND SWAP1 POP SWAP2 SWAP1 POP JUMP JUMPDEST PUSH1 0x0 DUP1 PUSH20 0xFFFFFFFFFFFFFFFFFFFFFFFFFFFFFFFFFFFFFFFF AND DUP4 PUSH20 0xFFFFFFFFFFFFFFFFFFFFFFFFFFFFFFFFFFFFFFFF AND SUB PUSH2 0xC82 JUMPI PUSH1 0x40 MLOAD PUSH32 0x8C379A000000000000000000000000000000000000000000000000000000000 DUP2 MSTORE PUSH1 0x4 ADD PUSH2 0xC79 SWAP1 PUSH2 0x2787 JUMP JUMPDEST PUSH1 0x40 MLOAD DUP1 SWAP2 SUB SWAP1 REVERT JUMPDEST PUSH1 0x4 PUSH1 0x0 DUP5 PUSH20 0xFFFFFFFFFFFFFFFFFFFFFFFFFFFFFFFFFFFFFFFF AND PUSH20 0xFFFFFFFFFFFFFFFFFFFFFFFFFFFFFFFFFFFFFFFF AND DUP2 MSTORE PUSH1 0x20 ADD SWAP1 DUP2 MSTORE PUSH1 0x20 ADD PUSH1 0x0 KECCAK256 PUSH1 0x0 DUP4 PUSH4 0xFFFFFFFF AND PUSH4 0xFFFFFFFF AND DUP2 MSTORE PUSH1 0x20 ADD SWAP1 DUP2 MSTORE PUSH1 0x20 ADD PUSH1 0x0 KECCAK256 PUSH1 0x0 SWAP1 SLOAD SWAP1 PUSH2 0x100 EXP SWAP1 DIV PUSH20 0xFFFFFFFFFFFFFFFFFFFFFFFFFFFFFFFFFFFFFFFF AND SWAP1 POP SWAP3 SWAP2 POP POP JUMP JUMPDEST PUSH1 0x0 DUP1 PUSH20 0xFFFFFFFFFFFFFFFFFFFFFFFFFFFFFFFFFFFFFFFF AND DUP3 PUSH20 0xFFFFFFFFFFFFFFFFFFFFFFFFFFFFFFFFFFFFFFFF AND SUB PUSH2 0xD77 JUMPI PUSH1 0x40 MLOAD PUSH32 0x8C379A000000000000000000000000000000000000000000000000000000000 DUP2 MSTORE PUSH1 0x4 ADD PUSH2 0xD6E SWAP1 PUSH2 0x2787 JUMP JUMPDEST PUSH1 0x40 MLOAD DUP1 SWAP2 SUB SWAP1 REVERT JUMPDEST PUSH1 0x3 PUSH1 0x0 DUP4 PUSH20 0xFFFFFFFFFFFFFFFFFFFFFFFFFFFFFFFFFFFFFFFF AND PUSH20 0xFFFFFFFFFFFFFFFFFFFFFFFFFFFFFFFFFFFFFFFF AND DUP2 MSTORE PUSH1 0x20 ADD SWAP1 DUP2 MSTORE PUSH1 0x20 ADD PUSH1 0x0 KECCAK256 PUSH1 0x0 SWAP1 SLOAD SWAP1 PUSH2 0x100 EXP SWAP1 DIV PUSH4 0xFFFFFFFF AND SWAP1 POP SWAP2 SWAP1 POP JUMP JUMPDEST PUSH1 0x4 PUSH1 0x20 MSTORE DUP2 PUSH1 0x0 MSTORE PUSH1 0x40 PUSH1 0x0 KECCAK256 PUSH1 0x20 MSTORE DUP1 PUSH1 0x0 MSTORE PUSH1 0x40 PUSH1 0x0 KECCAK256 PUSH1 0x0 SWAP2 POP SWAP2 POP SWAP1 SLOAD SWAP1 PUSH2 0x100 EXP SWAP1 DIV PUSH20 0xFFFFFFFFFFFFFFFFFFFFFFFFFFFFFFFFFFFFFFFF AND DUP2 JUMP JUMPDEST PUSH1 0x5 PUSH1 0x20 MSTORE DUP1 PUSH1 0x0 MSTORE PUSH1 0x40 PUSH1 0x0 KECCAK256 PUSH1 0x0 SWAP2 POP SLOAD SWAP1 PUSH2 0x100 EXP SWAP1 DIV PUSH4 0xFFFFFFFF AND DUP2 JUMP JUMPDEST PUSH32 0x0 PUSH20 0xFFFFFFFFFFFFFFFFFFFFFFFFFFFFFFFFFFFFFFFF AND PUSH4 0xAD87D2BA PUSH1 0x40 MLOAD DUP2 PUSH4 0xFFFFFFFF AND PUSH1 0xE0 SHL DUP2 MSTORE PUSH1 0x4 ADD PUSH1 0x20 PUSH1 0x40 MLOAD DUP1 DUP4 SUB DUP2 DUP7 GAS STATICCALL ISZERO DUP1 ISZERO PUSH2 0xE9E JUMPI RETURNDATASIZE PUSH1 0x0 DUP1 RETURNDATACOPY RETURNDATASIZE PUSH1 0x0 REVERT JUMPDEST POP POP POP POP PUSH1 0x40 MLOAD RETURNDATASIZE PUSH1 0x1F NOT PUSH1 0x1F DUP3 ADD AND DUP3 ADD DUP1 PUSH1 0x40 MSTORE POP DUP2 ADD SWAP1 PUSH2 0xEC2 SWAP2 SWAP1 PUSH2 0x25BD JUMP JUMPDEST PUSH2 0xECB JUMPI PUSH1 0x0 DUP1 REVERT JUMPDEST PUSH1 0x1 ISZERO ISZERO PUSH1 0x0 DUP1 DUP4 PUSH20 0xFFFFFFFFFFFFFFFFFFFFFFFFFFFFFFFFFFFFFFFF AND PUSH20 0xFFFFFFFFFFFFFFFFFFFFFFFFFFFFFFFFFFFFFFFF AND DUP2 MSTORE PUSH1 0x20 ADD SWAP1 DUP2 MSTORE PUSH1 0x20 ADD PUSH1 0x0 KECCAK256 PUSH1 0x3 ADD PUSH1 0x14 SWAP1 SLOAD SWAP1 PUSH2 0x100 EXP SWAP1 DIV PUSH1 0xFF AND ISZERO ISZERO SUB PUSH2 0xF60 JUMPI PUSH1 0x40 MLOAD PUSH32 0x8C379A000000000000000000000000000000000000000000000000000000000 DUP2 MSTORE PUSH1 0x4 ADD PUSH2 0xF57 SWAP1 PUSH2 0x2647 JUMP JUMPDEST PUSH1 0x40 MLOAD DUP1 SWAP2 SUB SWAP1 REVERT JUMPDEST PUSH1 0x1 PUSH1 0x0 DUP1 DUP4 PUSH20 0xFFFFFFFFFFFFFFFFFFFFFFFFFFFFFFFFFFFFFFFF AND PUSH20 0xFFFFFFFFFFFFFFFFFFFFFFFFFFFFFFFFFFFFFFFF AND DUP2 MSTORE PUSH1 0x20 ADD SWAP1 DUP2 MSTORE PUSH1 0x20 ADD PUSH1 0x0 KECCAK256 PUSH1 0x3 ADD PUSH1 0x15 PUSH2 0x100 EXP DUP2 SLOAD DUP2 PUSH1 0xFF MUL NOT AND SWAP1 DUP4 ISZERO ISZERO MUL OR SWAP1 SSTORE POP POP JUMP JUMPDEST PUSH2 0xFC5 PUSH2 0x1EA2 JUMP JUMPDEST PUSH1 0x1 ISZERO ISZERO PUSH1 0x0 DUP1 DUP5 PUSH20 0xFFFFFFFFFFFFFFFFFFFFFFFFFFFFFFFFFFFFFFFF AND PUSH20 0xFFFFFFFFFFFFFFFFFFFFFFFFFFFFFFFFFFFFFFFF AND DUP2 MSTORE PUSH1 0x20 ADD SWAP1 DUP2 MSTORE PUSH1 0x20 ADD PUSH1 0x0 KECCAK256 PUSH1 0x3 ADD PUSH1 0x14 SWAP1 SLOAD SWAP1 PUSH2 0x100 EXP SWAP1 DIV PUSH1 0xFF AND ISZERO ISZERO EQ PUSH2 0x105A JUMPI PUSH1 0x40 MLOAD PUSH32 0x8C379A000000000000000000000000000000000000000000000000000000000 DUP2 MSTORE PUSH1 0x4 ADD PUSH2 0x1051 SWAP1 PUSH2 0x27F3 JUMP JUMPDEST PUSH1 0x40 MLOAD DUP1 SWAP2 SUB SWAP1 REVERT JUMPDEST PUSH1 0x0 DUP1 DUP4 PUSH20 0xFFFFFFFFFFFFFFFFFFFFFFFFFFFFFFFFFFFFFFFF AND PUSH20 0xFFFFFFFFFFFFFFFFFFFFFFFFFFFFFFFFFFFFFFFF AND DUP2 MSTORE PUSH1 0x20 ADD SWAP1 DUP2 MSTORE PUSH1 0x20 ADD PUSH1 0x0 KECCAK256 PUSH1 0x40 MLOAD DUP1 PUSH2 0x120 ADD PUSH1 0x40 MSTORE SWAP1 DUP2 PUSH1 0x0 DUP3 ADD SLOAD DUP2 MSTORE PUSH1 0x20 ADD PUSH1 0x1 DUP3 ADD PUSH1 0x0 SWAP1 SLOAD SWAP1 PUSH2 0x100 EXP SWAP1 DIV PUSH4 0xFFFFFFFF AND PUSH4 0xFFFFFFFF AND PUSH4 0xFFFFFFFF AND DUP2 MSTORE PUSH1 0x20 ADD PUSH1 0x1 DUP3 ADD PUSH1 0x4 SWAP1 SLOAD SWAP1 PUSH2 0x100 EXP SWAP1 DIV PUSH20 0xFFFFFFFFFFFFFFFFFFFFFFFFFFFFFFFFFFFFFFFF AND PUSH20 0xFFFFFFFFFFFFFFFFFFFFFFFFFFFFFFFFFFFFFFFF AND PUSH20 0xFFFFFFFFFFFFFFFFFFFFFFFFFFFFFFFFFFFFFFFF AND DUP2 MSTORE PUSH1 0x20 ADD PUSH1 0x1 DUP3 ADD PUSH1 0x18 SWAP1 SLOAD SWAP1 PUSH2 0x100 EXP SWAP1 DIV PUSH5 0xFFFFFFFFFF AND PUSH5 0xFFFFFFFFFF AND PUSH5 0xFFFFFFFFFF AND DUP2 MSTORE PUSH1 0x20 ADD PUSH1 0x2 DUP3 ADD PUSH1 0x0 SWAP1 SLOAD SWAP1 PUSH2 0x100 EXP SWAP1 DIV PUSH20 0xFFFFFFFFFFFFFFFFFFFFFFFFFFFFFFFFFFFFFFFF AND PUSH20 0xFFFFFFFFFFFFFFFFFFFFFFFFFFFFFFFFFFFFFFFF AND PUSH20 0xFFFFFFFFFFFFFFFFFFFFFFFFFFFFFFFFFFFFFFFF AND DUP2 MSTORE PUSH1 0x20 ADD PUSH1 0x2 DUP3 ADD PUSH1 0x14 SWAP1 SLOAD SWAP1 PUSH2 0x100 EXP SWAP1 DIV PUSH4 0xFFFFFFFF AND PUSH4 0xFFFFFFFF AND PUSH4 0xFFFFFFFF AND DUP2 MSTORE PUSH1 0x20 ADD PUSH1 0x3 DUP3 ADD PUSH1 0x0 SWAP1 SLOAD SWAP1 PUSH2 0x100 EXP SWAP1 DIV PUSH20 0xFFFFFFFFFFFFFFFFFFFFFFFFFFFFFFFFFFFFFFFF AND PUSH20 0xFFFFFFFFFFFFFFFFFFFFFFFFFFFFFFFFFFFFFFFF AND PUSH20 0xFFFFFFFFFFFFFFFFFFFFFFFFFFFFFFFFFFFFFFFF AND DUP2 MSTORE PUSH1 0x20 ADD PUSH1 0x3 DUP3 ADD PUSH1 0x14 SWAP1 SLOAD SWAP1 PUSH2 0x100 EXP SWAP1 DIV PUSH1 0xFF AND ISZERO ISZERO ISZERO ISZERO DUP2 MSTORE PUSH1 0x20 ADD PUSH1 0x3 DUP3 ADD PUSH1 0x15 SWAP1 SLOAD SWAP1 PUSH2 0x100 EXP SWAP1 DIV PUSH1 0xFF AND ISZERO ISZERO ISZERO ISZERO DUP2 MSTORE POP POP SWAP1 POP SWAP2 SWAP1 POP JUMP JUMPDEST PUSH1 0x0 PUSH1 0x1 ISZERO ISZERO PUSH1 0x0 DUP1 DUP5 PUSH20 0xFFFFFFFFFFFFFFFFFFFFFFFFFFFFFFFFFFFFFFFF AND PUSH20 0xFFFFFFFFFFFFFFFFFFFFFFFFFFFFFFFFFFFFFFFF AND DUP2 MSTORE PUSH1 0x20 ADD SWAP1 DUP2 MSTORE PUSH1 0x20 ADD PUSH1 0x0 KECCAK256 PUSH1 0x3 ADD PUSH1 0x14 SWAP1 SLOAD SWAP1 PUSH2 0x100 EXP SWAP1 DIV PUSH1 0xFF AND ISZERO ISZERO EQ PUSH2 0x12F9 JUMPI PUSH1 0x40 MLOAD PUSH32 0x8C379A000000000000000000000000000000000000000000000000000000000 DUP2 MSTORE PUSH1 0x4 ADD PUSH2 0x12F0 SWAP1 PUSH2 0x27F3 JUMP JUMPDEST PUSH1 0x40 MLOAD DUP1 SWAP2 SUB SWAP1 REVERT JUMPDEST PUSH1 0x0 DUP1 DUP4 PUSH20 0xFFFFFFFFFFFFFFFFFFFFFFFFFFFFFFFFFFFFFFFF AND PUSH20 0xFFFFFFFFFFFFFFFFFFFFFFFFFFFFFFFFFFFFFFFF AND DUP2 MSTORE PUSH1 0x20 ADD SWAP1 DUP2 MSTORE PUSH1 0x20 ADD PUSH1 0x0 KECCAK256 PUSH1 0x1 ADD PUSH1 0x4 SWAP1 SLOAD SWAP1 PUSH2 0x100 EXP SWAP1 DIV PUSH20 0xFFFFFFFFFFFFFFFFFFFFFFFFFFFFFFFFFFFFFFFF AND SWAP1 POP SWAP2 SWAP1 POP JUMP JUMPDEST PUSH1 0x3 PUSH1 0x20 MSTORE DUP1 PUSH1 0x0 MSTORE PUSH1 0x40 PUSH1 0x0 KECCAK256 PUSH1 0x0 SWAP2 POP SLOAD SWAP1 PUSH2 0x100 EXP SWAP1 DIV PUSH4 0xFFFFFFFF AND DUP2 JUMP JUMPDEST PUSH1 0x0 PUSH20 0xFFFFFFFFFFFFFFFFFFFFFFFFFFFFFFFFFFFFFFFF AND PUSH1 0x0 DUP1 CALLER PUSH20 0xFFFFFFFFFFFFFFFFFFFFFFFFFFFFFFFFFFFFFFFF AND PUSH20 0xFFFFFFFFFFFFFFFFFFFFFFFFFFFFFFFFFFFFFFFF AND DUP2 MSTORE PUSH1 0x20 ADD SWAP1 DUP2 MSTORE PUSH1 0x20 ADD PUSH1 0x0 KECCAK256 PUSH1 0x1 ADD PUSH1 0x4 SWAP1 SLOAD SWAP1 PUSH2 0x100 EXP SWAP1 DIV PUSH20 0xFFFFFFFFFFFFFFFFFFFFFFFFFFFFFFFFFFFFFFFF AND PUSH20 0xFFFFFFFFFFFFFFFFFFFFFFFFFFFFFFFFFFFFFFFF AND EQ PUSH2 0x1455 JUMPI PUSH1 0x40 MLOAD PUSH32 0x8C379A000000000000000000000000000000000000000000000000000000000 DUP2 MSTORE PUSH1 0x4 ADD PUSH2 0x144C SWAP1 PUSH2 0x285F JUMP JUMPDEST PUSH1 0x40 MLOAD DUP1 SWAP2 SUB SWAP1 REVERT JUMPDEST PUSH1 0x0 PUSH1 0x1 PUSH1 0x0 DUP4 PUSH5 0xFFFFFFFFFF AND PUSH5 0xFFFFFFFFFF AND DUP2 MSTORE PUSH1 0x20 ADD SWAP1 DUP2 MSTORE PUSH1 0x20 ADD PUSH1 0x0 KECCAK256 PUSH1 0x0 SWAP1 SLOAD SWAP1 PUSH2 0x100 EXP SWAP1 DIV PUSH20 0xFFFFFFFFFFFFFFFFFFFFFFFFFFFFFFFFFFFFFFFF AND SWAP1 POP PUSH1 0x1 PUSH1 0x3 PUSH1 0x0 DUP4 PUSH20 0xFFFFFFFFFFFFFFFFFFFFFFFFFFFFFFFFFFFFFFFF AND PUSH20 0xFFFFFFFFFFFFFFFFFFFFFFFFFFFFFFFFFFFFFFFF AND DUP2 MSTORE PUSH1 0x20 ADD SWAP1 DUP2 MSTORE PUSH1 0x20 ADD PUSH1 0x0 KECCAK256 PUSH1 0x0 SWAP1 SLOAD SWAP1 PUSH2 0x100 EXP SWAP1 DIV PUSH4 0xFFFFFFFF AND PUSH4 0xFFFFFFFF AND LT PUSH2 0x157A JUMPI PUSH1 0x1 PUSH1 0x3 PUSH1 0x0 DUP4 PUSH20 0xFFFFFFFFFFFFFFFFFFFFFFFFFFFFFFFFFFFFFFFF AND PUSH20 0xFFFFFFFFFFFFFFFFFFFFFFFFFFFFFFFFFFFFFFFF AND DUP2 MSTORE PUSH1 0x20 ADD SWAP1 DUP2 MSTORE PUSH1 0x20 ADD PUSH1 0x0 KECCAK256 PUSH1 0x0 DUP3 DUP3 DUP3 SWAP1 SLOAD SWAP1 PUSH2 0x100 EXP SWAP1 DIV PUSH4 0xFFFFFFFF AND PUSH2 0x1557 SWAP2 SWAP1 PUSH2 0x287F JUMP JUMPDEST SWAP3 POP PUSH2 0x100 EXP DUP2 SLOAD DUP2 PUSH4 0xFFFFFFFF MUL NOT AND SWAP1 DUP4 PUSH4 0xFFFFFFFF AND MUL OR SWAP1 SSTORE POP PUSH2 0x15DA JUMP JUMPDEST PUSH1 0x1 PUSH1 0x3 PUSH1 0x0 DUP4 PUSH20 0xFFFFFFFFFFFFFFFFFFFFFFFFFFFFFFFFFFFFFFFF AND PUSH20 0xFFFFFFFFFFFFFFFFFFFFFFFFFFFFFFFFFFFFFFFF AND DUP2 MSTORE PUSH1 0x20 ADD SWAP1 DUP2 MSTORE PUSH1 0x20 ADD PUSH1 0x0 KECCAK256 PUSH1 0x0 PUSH2 0x100 EXP DUP2 SLOAD DUP2 PUSH4 0xFFFFFFFF MUL NOT AND SWAP1 DUP4 PUSH4 0xFFFFFFFF AND MUL OR SWAP1 SSTORE POP JUMPDEST CALLER PUSH1 0x4 PUSH1 0x0 DUP4 PUSH20 0xFFFFFFFFFFFFFFFFFFFFFFFFFFFFFFFFFFFFFFFF AND PUSH20 0xFFFFFFFFFFFFFFFFFFFFFFFFFFFFFFFFFFFFFFFF AND DUP2 MSTORE PUSH1 0x20 ADD SWAP1 DUP2 MSTORE PUSH1 0x20 ADD PUSH1 0x0 KECCAK256 PUSH1 0x0 PUSH1 0x3 PUSH1 0x0 DUP6 PUSH20 0xFFFFFFFFFFFFFFFFFFFFFFFFFFFFFFFFFFFFFFFF AND PUSH20 0xFFFFFFFFFFFFFFFFFFFFFFFFFFFFFFFFFFFFFFFF AND DUP2 MSTORE PUSH1 0x20 ADD SWAP1 DUP2 MSTORE PUSH1 0x20 ADD PUSH1 0x0 KECCAK256 PUSH1 0x0 SWAP1 SLOAD SWAP1 PUSH2 0x100 EXP SWAP1 DIV PUSH4 0xFFFFFFFF AND PUSH4 0xFFFFFFFF AND PUSH4 0xFFFFFFFF AND DUP2 MSTORE PUSH1 0x20 ADD SWAP1 DUP2 MSTORE PUSH1 0x20 ADD PUSH1 0x0 KECCAK256 PUSH1 0x0 PUSH2 0x100 EXP DUP2 SLOAD DUP2 PUSH20 0xFFFFFFFFFFFFFFFFFFFFFFFFFFFFFFFFFFFFFFFF MUL NOT AND SWAP1 DUP4 PUSH20 0xFFFFFFFFFFFFFFFFFFFFFFFFFFFFFFFFFFFFFFFF AND MUL OR SWAP1 SSTORE POP DUP1 PUSH1 0x0 DUP1 CALLER PUSH20 0xFFFFFFFFFFFFFFFFFFFFFFFFFFFFFFFFFFFFFFFF AND PUSH20 0xFFFFFFFFFFFFFFFFFFFFFFFFFFFFFFFFFFFFFFFF AND DUP2 MSTORE PUSH1 0x20 ADD SWAP1 DUP2 MSTORE PUSH1 0x20 ADD PUSH1 0x0 KECCAK256 PUSH1 0x1 ADD PUSH1 0x4 PUSH2 0x100 EXP DUP2 SLOAD DUP2 PUSH20 0xFFFFFFFFFFFFFFFFFFFFFFFFFFFFFFFFFFFFFFFF MUL NOT AND SWAP1 DUP4 PUSH20 0xFFFFFFFFFFFFFFFFFFFFFFFFFFFFFFFFFFFFFFFF AND MUL OR SWAP1 SSTORE POP POP POP JUMP JUMPDEST PUSH1 0x0 PUSH1 0x20 MSTORE DUP1 PUSH1 0x0 MSTORE PUSH1 0x40 PUSH1 0x0 KECCAK256 PUSH1 0x0 SWAP2 POP SWAP1 POP DUP1 PUSH1 0x0 ADD SLOAD SWAP1 DUP1 PUSH1 0x1 ADD PUSH1 0x0 SWAP1 SLOAD SWAP1 PUSH2 0x100 EXP SWAP1 DIV PUSH4 0xFFFFFFFF AND SWAP1 DUP1 PUSH1 0x1 ADD PUSH1 0x4 SWAP1 SLOAD SWAP1 PUSH2 0x100 EXP SWAP1 DIV PUSH20 0xFFFFFFFFFFFFFFFFFFFFFFFFFFFFFFFFFFFFFFFF AND SWAP1 DUP1 PUSH1 0x1 ADD PUSH1 0x18 SWAP1 SLOAD SWAP1 PUSH2 0x100 EXP SWAP1 DIV PUSH5 0xFFFFFFFFFF AND SWAP1 DUP1 PUSH1 0x2 ADD PUSH1 0x0 SWAP1 SLOAD SWAP1 PUSH2 0x100 EXP SWAP1 DIV PUSH20 0xFFFFFFFFFFFFFFFFFFFFFFFFFFFFFFFFFFFFFFFF AND SWAP1 DUP1 PUSH1 0x2 ADD PUSH1 0x14 SWAP1 SLOAD SWAP1 PUSH2 0x100 EXP SWAP1 DIV PUSH4 0xFFFFFFFF AND SWAP1 DUP1 PUSH1 0x3 ADD PUSH1 0x0 SWAP1 SLOAD SWAP1 PUSH2 0x100 EXP SWAP1 DIV PUSH20 0xFFFFFFFFFFFFFFFFFFFFFFFFFFFFFFFFFFFFFFFF AND SWAP1 DUP1 PUSH1 0x3 ADD PUSH1 0x14 SWAP1 SLOAD SWAP1 PUSH2 0x100 EXP SWAP1 DIV PUSH1 0xFF AND SWAP1 DUP1 PUSH1 0x3 ADD PUSH1 0x15 SWAP1 SLOAD SWAP1 PUSH2 0x100 EXP SWAP1 DIV PUSH1 0xFF AND SWAP1 POP DUP10 JUMP JUMPDEST PUSH1 0x1 ISZERO ISZERO PUSH1 0x0 DUP1 DUP5 PUSH1 0xC0 ADD MLOAD PUSH20 0xFFFFFFFFFFFFFFFFFFFFFFFFFFFFFFFFFFFFFFFF AND PUSH20 0xFFFFFFFFFFFFFFFFFFFFFFFFFFFFFFFFFFFFFFFF AND DUP2 MSTORE PUSH1 0x20 ADD SWAP1 DUP2 MSTORE PUSH1 0x20 ADD PUSH1 0x0 KECCAK256 PUSH1 0x3 ADD PUSH1 0x14 SWAP1 SLOAD SWAP1 PUSH2 0x100 EXP SWAP1 DIV PUSH1 0xFF AND ISZERO ISZERO EQ ISZERO DUP1 ISZERO PUSH2 0x18D7 JUMPI POP CALLER PUSH20 0xFFFFFFFFFFFFFFFFFFFFFFFFFFFFFFFFFFFFFFFF AND DUP3 PUSH1 0xC0 ADD MLOAD PUSH20 0xFFFFFFFFFFFFFFFFFFFFFFFFFFFFFFFFFFFFFFFF AND EQ JUMPDEST PUSH2 0x1916 JUMPI PUSH1 0x40 MLOAD PUSH32 0x8C379A000000000000000000000000000000000000000000000000000000000 DUP2 MSTORE PUSH1 0x4 ADD PUSH2 0x190D SWAP1 PUSH2 0x26B3 JUMP JUMPDEST PUSH1 0x40 MLOAD DUP1 SWAP2 SUB SWAP1 REVERT JUMPDEST PUSH1 0x1 PUSH1 0x5 PUSH1 0x0 DUP4 PUSH20 0xFFFFFFFFFFFFFFFFFFFFFFFFFFFFFFFFFFFFFFFF AND PUSH20 0xFFFFFFFFFFFFFFFFFFFFFFFFFFFFFFFFFFFFFFFF AND DUP2 MSTORE PUSH1 0x20 ADD SWAP1 DUP2 MSTORE PUSH1 0x20 ADD PUSH1 0x0 KECCAK256 PUSH1 0x0 SWAP1 SLOAD SWAP1 PUSH2 0x100 EXP SWAP1 DIV PUSH4 0xFFFFFFFF AND PUSH4 0xFFFFFFFF AND LT PUSH2 0x19F5 JUMPI PUSH1 0x1 PUSH1 0x5 PUSH1 0x0 DUP4 PUSH20 0xFFFFFFFFFFFFFFFFFFFFFFFFFFFFFFFFFFFFFFFF AND PUSH20 0xFFFFFFFFFFFFFFFFFFFFFFFFFFFFFFFFFFFFFFFF AND DUP2 MSTORE PUSH1 0x20 ADD SWAP1 DUP2 MSTORE PUSH1 0x20 ADD PUSH1 0x0 KECCAK256 PUSH1 0x0 DUP3 DUP3 DUP3 SWAP1 SLOAD SWAP1 PUSH2 0x100 EXP SWAP1 DIV PUSH4 0xFFFFFFFF AND PUSH2 0x19D2 SWAP2 SWAP1 PUSH2 0x287F JUMP JUMPDEST SWAP3 POP PUSH2 0x100 EXP DUP2 SLOAD DUP2 PUSH4 0xFFFFFFFF MUL NOT AND SWAP1 DUP4 PUSH4 0xFFFFFFFF AND MUL OR SWAP1 SSTORE POP PUSH2 0x1A55 JUMP JUMPDEST PUSH1 0x1 PUSH1 0x5 PUSH1 0x0 DUP4 PUSH20 0xFFFFFFFFFFFFFFFFFFFFFFFFFFFFFFFFFFFFFFFF AND PUSH20 0xFFFFFFFFFFFFFFFFFFFFFFFFFFFFFFFFFFFFFFFF AND DUP2 MSTORE PUSH1 0x20 ADD SWAP1 DUP2 MSTORE PUSH1 0x20 ADD PUSH1 0x0 KECCAK256 PUSH1 0x0 PUSH2 0x100 EXP DUP2 SLOAD DUP2 PUSH4 0xFFFFFFFF MUL NOT AND SWAP1 DUP4 PUSH4 0xFFFFFFFF AND MUL OR SWAP1 SSTORE POP JUMPDEST DUP1 DUP3 PUSH1 0x80 ADD SWAP1 PUSH20 0xFFFFFFFFFFFFFFFFFFFFFFFFFFFFFFFFFFFFFFFF AND SWAP1 DUP2 PUSH20 0xFFFFFFFFFFFFFFFFFFFFFFFFFFFFFFFFFFFFFFFF AND DUP2 MSTORE POP POP PUSH1 0x5 PUSH1 0x0 DUP3 PUSH20 0xFFFFFFFFFFFFFFFFFFFFFFFFFFFFFFFFFFFFFFFF AND PUSH20 0xFFFFFFFFFFFFFFFFFFFFFFFFFFFFFFFFFFFFFFFF AND DUP2 MSTORE PUSH1 0x20 ADD SWAP1 DUP2 MSTORE PUSH1 0x20 ADD PUSH1 0x0 KECCAK256 PUSH1 0x0 SWAP1 SLOAD SWAP1 PUSH2 0x100 EXP SWAP1 DIV PUSH4 0xFFFFFFFF AND DUP3 PUSH1 0xA0 ADD SWAP1 PUSH4 0xFFFFFFFF AND SWAP1 DUP2 PUSH4 0xFFFFFFFF AND DUP2 MSTORE POP POP PUSH1 0x1 PUSH1 0x2 PUSH1 0x0 DUP3 DUP3 DUP3 SWAP1 SLOAD SWAP1 PUSH2 0x100 EXP SWAP1 DIV PUSH5 0xFFFFFFFFFF AND PUSH2 0x1B17 SWAP2 SWAP1 PUSH2 0x2702 JUMP JUMPDEST SWAP3 POP PUSH2 0x100 EXP DUP2 SLOAD DUP2 PUSH5 0xFFFFFFFFFF MUL NOT AND SWAP1 DUP4 PUSH5 0xFFFFFFFFFF AND MUL OR SWAP1 SSTORE POP CALLER PUSH1 0x1 PUSH1 0x0 PUSH1 0x2 PUSH1 0x0 SWAP1 SLOAD SWAP1 PUSH2 0x100 EXP SWAP1 DIV PUSH5 0xFFFFFFFFFF AND PUSH5 0xFFFFFFFFFF AND PUSH5 0xFFFFFFFFFF AND DUP2 MSTORE PUSH1 0x20 ADD SWAP1 DUP2 MSTORE PUSH1 0x20 ADD PUSH1 0x0 KECCAK256 PUSH1 0x0 PUSH2 0x100 EXP DUP2 SLOAD DUP2 PUSH20 0xFFFFFFFFFFFFFFFFFFFFFFFFFFFFFFFFFFFFFFFF MUL NOT AND SWAP1 DUP4 PUSH20 0xFFFFFFFFFFFFFFFFFFFFFFFFFFFFFFFFFFFFFFFF AND MUL OR SWAP1 SSTORE POP PUSH1 0x2 PUSH1 0x0 SWAP1 SLOAD SWAP1 PUSH2 0x100 EXP SWAP1 DIV PUSH5 0xFFFFFFFFFF AND DUP3 PUSH1 0x60 ADD SWAP1 PUSH5 0xFFFFFFFFFF AND SWAP1 DUP2 PUSH5 0xFFFFFFFFFF AND DUP2 MSTORE POP POP DUP2 PUSH1 0x0 DUP1 DUP5 PUSH1 0xC0 ADD MLOAD PUSH20 0xFFFFFFFFFFFFFFFFFFFFFFFFFFFFFFFFFFFFFFFF AND PUSH20 0xFFFFFFFFFFFFFFFFFFFFFFFFFFFFFFFFFFFFFFFF AND DUP2 MSTORE PUSH1 0x20 ADD SWAP1 DUP2 MSTORE PUSH1 0x20 ADD PUSH1 0x0 KECCAK256 PUSH1 0x0 DUP3 ADD MLOAD DUP2 PUSH1 0x0 ADD SSTORE PUSH1 0x20 DUP3 ADD MLOAD DUP2 PUSH1 0x1 ADD PUSH1 0x0 PUSH2 0x100 EXP DUP2 SLOAD DUP2 PUSH4 0xFFFFFFFF MUL NOT AND SWAP1 DUP4 PUSH4 0xFFFFFFFF AND MUL OR SWAP1 SSTORE POP PUSH1 0x40 DUP3 ADD MLOAD DUP2 PUSH1 0x1 ADD PUSH1 0x4 PUSH2 0x100 EXP DUP2 SLOAD DUP2 PUSH20 0xFFFFFFFFFFFFFFFFFFFFFFFFFFFFFFFFFFFFFFFF MUL NOT AND SWAP1 DUP4 PUSH20 0xFFFFFFFFFFFFFFFFFFFFFFFFFFFFFFFFFFFFFFFF AND MUL OR SWAP1 SSTORE POP PUSH1 0x60 DUP3 ADD MLOAD DUP2 PUSH1 0x1 ADD PUSH1 0x18 PUSH2 0x100 EXP DUP2 SLOAD DUP2 PUSH5 0xFFFFFFFFFF MUL NOT AND SWAP1 DUP4 PUSH5 0xFFFFFFFFFF AND MUL OR SWAP1 SSTORE POP PUSH1 0x80 DUP3 ADD MLOAD DUP2 PUSH1 0x2 ADD PUSH1 0x0 PUSH2 0x100 EXP DUP2 SLOAD DUP2 PUSH20 0xFFFFFFFFFFFFFFFFFFFFFFFFFFFFFFFFFFFFFFFF MUL NOT AND SWAP1 DUP4 PUSH20 0xFFFFFFFFFFFFFFFFFFFFFFFFFFFFFFFFFFFFFFFF AND MUL OR SWAP1 SSTORE POP PUSH1 0xA0 DUP3 ADD MLOAD DUP2 PUSH1 0x2 ADD PUSH1 0x14 PUSH2 0x100 EXP DUP2 SLOAD DUP2 PUSH4 0xFFFFFFFF MUL NOT AND SWAP1 DUP4 PUSH4 0xFFFFFFFF AND MUL OR SWAP1 SSTORE POP PUSH1 0xC0 DUP3 ADD MLOAD DUP2 PUSH1 0x3 ADD PUSH1 0x0 PUSH2 0x100 EXP DUP2 SLOAD DUP2 PUSH20 0xFFFFFFFFFFFFFFFFFFFFFFFFFFFFFFFFFFFFFFFF MUL NOT AND SWAP1 DUP4 PUSH20 0xFFFFFFFFFFFFFFFFFFFFFFFFFFFFFFFFFFFFFFFF AND MUL OR SWAP1 SSTORE POP PUSH1 0xE0 DUP3 ADD MLOAD DUP2 PUSH1 0x3 ADD PUSH1 0x14 PUSH2 0x100 EXP DUP2 SLOAD DUP2 PUSH1 0xFF MUL NOT AND SWAP1 DUP4 ISZERO ISZERO MUL OR SWAP1 SSTORE POP PUSH2 0x100 DUP3 ADD MLOAD DUP2 PUSH1 0x3 ADD PUSH1 0x15 PUSH2 0x100 EXP DUP2 SLOAD DUP2 PUSH1 0xFF MUL NOT AND SWAP1 DUP4 ISZERO ISZERO MUL OR SWAP1 SSTORE POP SWAP1 POP POP CALLER PUSH1 0x6 PUSH1 0x0 DUP4 PUSH20 0xFFFFFFFFFFFFFFFFFFFFFFFFFFFFFFFFFFFFFFFF AND PUSH20 0xFFFFFFFFFFFFFFFFFFFFFFFFFFFFFFFFFFFFFFFF AND DUP2 MSTORE PUSH1 0x20 ADD SWAP1 DUP2 MSTORE PUSH1 0x20 ADD PUSH1 0x0 KECCAK256 PUSH1 0x0 PUSH1 0x5 PUSH1 0x0 DUP6 PUSH20 0xFFFFFFFFFFFFFFFFFFFFFFFFFFFFFFFFFFFFFFFF AND PUSH20 0xFFFFFFFFFFFFFFFFFFFFFFFFFFFFFFFFFFFFFFFF AND DUP2 MSTORE PUSH1 0x20 ADD SWAP1 DUP2 MSTORE PUSH1 0x20 ADD PUSH1 0x0 KECCAK256 PUSH1 0x0 SWAP1 SLOAD SWAP1 PUSH2 0x100 EXP SWAP1 DIV PUSH4 0xFFFFFFFF AND PUSH4 0xFFFFFFFF AND PUSH4 0xFFFFFFFF AND DUP2 MSTORE PUSH1 0x20 ADD SWAP1 DUP2 MSTORE PUSH1 0x20 ADD PUSH1 0x0 KECCAK256 PUSH1 0x0 PUSH2 0x100 EXP DUP2 SLOAD DUP2 PUSH20 0xFFFFFFFFFFFFFFFFFFFFFFFFFFFFFFFFFFFFFFFF MUL NOT AND SWAP1 DUP4 PUSH20 0xFFFFFFFFFFFFFFFFFFFFFFFFFFFFFFFFFFFFFFFF AND MUL OR SWAP1 SSTORE POP POP POP JUMP JUMPDEST PUSH1 0x40 MLOAD DUP1 PUSH2 0x120 ADD PUSH1 0x40 MSTORE DUP1 PUSH1 0x0 DUP1 NOT AND DUP2 MSTORE PUSH1 0x20 ADD PUSH1 0x0 PUSH4 0xFFFFFFFF AND DUP2 MSTORE PUSH1 0x20 ADD PUSH1 0x0 PUSH20 0xFFFFFFFFFFFFFFFFFFFFFFFFFFFFFFFFFFFFFFFF AND DUP2 MSTORE PUSH1 0x20 ADD PUSH1 0x0 PUSH5 0xFFFFFFFFFF AND DUP2 MSTORE PUSH1 0x20 ADD PUSH1 0x0 PUSH20 0xFFFFFFFFFFFFFFFFFFFFFFFFFFFFFFFFFFFFFFFF AND DUP2 MSTORE PUSH1 0x20 ADD PUSH1 0x0 PUSH4 0xFFFFFFFF AND DUP2 MSTORE PUSH1 0x20 ADD PUSH1 0x0 PUSH20 0xFFFFFFFFFFFFFFFFFFFFFFFFFFFFFFFFFFFFFFFF AND DUP2 MSTORE PUSH1 0x20 ADD PUSH1 0x0 ISZERO ISZERO DUP2 MSTORE PUSH1 0x20 ADD PUSH1 0x0 ISZERO ISZERO DUP2 MSTORE POP SWAP1 JUMP JUMPDEST PUSH1 0x0 PUSH1 0x40 MLOAD SWAP1 POP SWAP1 JUMP JUMPDEST PUSH1 0x0 DUP1 REVERT JUMPDEST PUSH1 0x0 PUSH20 0xFFFFFFFFFFFFFFFFFFFFFFFFFFFFFFFFFFFFFFFF DUP3 AND SWAP1 POP SWAP2 SWAP1 POP JUMP JUMPDEST PUSH1 0x0 PUSH2 0x1F84 DUP3 PUSH2 0x1F59 JUMP JUMPDEST SWAP1 POP SWAP2 SWAP1 POP JUMP JUMPDEST PUSH2 0x1F94 DUP2 PUSH2 0x1F79 JUMP JUMPDEST DUP2 EQ PUSH2 0x1F9F JUMPI PUSH1 0x0 DUP1 REVERT JUMPDEST POP JUMP JUMPDEST PUSH1 0x0 DUP2 CALLDATALOAD SWAP1 POP PUSH2 0x1FB1 DUP2 PUSH2 0x1F8B JUMP JUMPDEST SWAP3 SWAP2 POP POP JUMP JUMPDEST PUSH1 0x0 PUSH1 0x20 DUP3 DUP5 SUB SLT ISZERO PUSH2 0x1FCD JUMPI PUSH2 0x1FCC PUSH2 0x1F54 JUMP JUMPDEST JUMPDEST PUSH1 0x0 PUSH2 0x1FDB DUP5 DUP3 DUP6 ADD PUSH2 0x1FA2 JUMP JUMPDEST SWAP2 POP POP SWAP3 SWAP2 POP POP JUMP JUMPDEST PUSH1 0x0 DUP1 REVERT JUMPDEST PUSH1 0x0 PUSH1 0x1F NOT PUSH1 0x1F DUP4 ADD AND SWAP1 POP SWAP2 SWAP1 POP JUMP JUMPDEST PUSH32 0x4E487B7100000000000000000000000000000000000000000000000000000000 PUSH1 0x0 MSTORE PUSH1 0x41 PUSH1 0x4 MSTORE PUSH1 0x24 PUSH1 0x0 REVERT JUMPDEST PUSH2 0x2032 DUP3 PUSH2 0x1FE9 JUMP JUMPDEST DUP2 ADD DUP2 DUP2 LT PUSH8 0xFFFFFFFFFFFFFFFF DUP3 GT OR ISZERO PUSH2 0x2051 JUMPI PUSH2 0x2050 PUSH2 0x1FFA JUMP JUMPDEST JUMPDEST DUP1 PUSH1 0x40 MSTORE POP POP POP JUMP JUMPDEST PUSH1 0x0 PUSH2 0x2064 PUSH2 0x1F4A JUMP JUMPDEST SWAP1 POP PUSH2 0x2070 DUP3 DUP3 PUSH2 0x2029 JUMP JUMPDEST SWAP2 SWAP1 POP JUMP JUMPDEST PUSH1 0x0 DUP2 SWAP1 POP SWAP2 SWAP1 POP JUMP JUMPDEST PUSH2 0x2088 DUP2 PUSH2 0x2075 JUMP JUMPDEST DUP2 EQ PUSH2 0x2093 JUMPI PUSH1 0x0 DUP1 REVERT JUMPDEST POP JUMP JUMPDEST PUSH1 0x0 DUP2 CALLDATALOAD SWAP1 POP PUSH2 0x20A5 DUP2 PUSH2 0x207F JUMP JUMPDEST SWAP3 SWAP2 POP POP JUMP JUMPDEST PUSH1 0x0 PUSH4 0xFFFFFFFF DUP3 AND SWAP1 POP SWAP2 SWAP1 POP JUMP JUMPDEST PUSH2 0x20C4 DUP2 PUSH2 0x20AB JUMP JUMPDEST DUP2 EQ PUSH2 0x20CF JUMPI PUSH1 0x0 DUP1 REVERT JUMPDEST POP JUMP JUMPDEST PUSH1 0x0 DUP2 CALLDATALOAD SWAP1 POP PUSH2 0x20E1 DUP2 PUSH2 0x20BB JUMP JUMPDEST SWAP3 SWAP2 POP POP JUMP JUMPDEST PUSH1 0x0 PUSH5 0xFFFFFFFFFF DUP3 AND SWAP1 POP SWAP2 SWAP1 POP JUMP JUMPDEST PUSH2 0x2101 DUP2 PUSH2 0x20E7 JUMP JUMPDEST DUP2 EQ PUSH2 0x210C JUMPI PUSH1 0x0 DUP1 REVERT JUMPDEST POP JUMP JUMPDEST PUSH1 0x0 DUP2 CALLDATALOAD SWAP1 POP PUSH2 0x211E DUP2 PUSH2 0x20F8 JUMP JUMPDEST SWAP3 SWAP2 POP POP JUMP JUMPDEST PUSH1 0x0 DUP2 ISZERO ISZERO SWAP1 POP SWAP2 SWAP1 POP JUMP JUMPDEST PUSH2 0x2139 DUP2 PUSH2 0x2124 JUMP JUMPDEST DUP2 EQ PUSH2 0x2144 JUMPI PUSH1 0x0 DUP1 REVERT JUMPDEST POP JUMP JUMPDEST PUSH1 0x0 DUP2 CALLDATALOAD SWAP1 POP PUSH2 0x2156 DUP2 PUSH2 0x2130 JUMP JUMPDEST SWAP3 SWAP2 POP POP JUMP JUMPDEST PUSH1 0x0 PUSH2 0x120 DUP3 DUP5 SUB SLT ISZERO PUSH2 0x2173 JUMPI PUSH2 0x2172 PUSH2 0x1FE4 JUMP JUMPDEST JUMPDEST PUSH2 0x217E PUSH2 0x120 PUSH2 0x205A JUMP JUMPDEST SWAP1 POP PUSH1 0x0 PUSH2 0x218E DUP5 DUP3 DUP6 ADD PUSH2 0x2096 JUMP JUMPDEST PUSH1 0x0 DUP4 ADD MSTORE POP PUSH1 0x20 PUSH2 0x21A2 DUP5 DUP3 DUP6 ADD PUSH2 0x20D2 JUMP JUMPDEST PUSH1 0x20 DUP4 ADD MSTORE POP PUSH1 0x40 PUSH2 0x21B6 DUP5 DUP3 DUP6 ADD PUSH2 0x1FA2 JUMP JUMPDEST PUSH1 0x40 DUP4 ADD MSTORE POP PUSH1 0x60 PUSH2 0x21CA DUP5 DUP3 DUP6 ADD PUSH2 0x210F JUMP JUMPDEST PUSH1 0x60 DUP4 ADD MSTORE POP PUSH1 0x80 PUSH2 0x21DE DUP5 DUP3 DUP6 ADD PUSH2 0x1FA2 JUMP JUMPDEST PUSH1 0x80 DUP4 ADD MSTORE POP PUSH1 0xA0 PUSH2 0x21F2 DUP5 DUP3 DUP6 ADD PUSH2 0x20D2 JUMP JUMPDEST PUSH1 0xA0 DUP4 ADD MSTORE POP PUSH1 0xC0 PUSH2 0x2206 DUP5 DUP3 DUP6 ADD PUSH2 0x1FA2 JUMP JUMPDEST PUSH1 0xC0 DUP4 ADD MSTORE POP PUSH1 0xE0 PUSH2 0x221A DUP5 DUP3 DUP6 ADD PUSH2 0x2147 JUMP JUMPDEST PUSH1 0xE0 DUP4 ADD MSTORE POP PUSH2 0x100 PUSH2 0x222F DUP5 DUP3 DUP6 ADD PUSH2 0x2147 JUMP JUMPDEST PUSH2 0x100 DUP4 ADD MSTORE POP SWAP3 SWAP2 POP POP JUMP JUMPDEST PUSH1 0x0 PUSH2 0x120 DUP3 DUP5 SUB SLT ISZERO PUSH2 0x2253 JUMPI PUSH2 0x2252 PUSH2 0x1F54 JUMP JUMPDEST JUMPDEST PUSH1 0x0 PUSH2 0x2261 DUP5 DUP3 DUP6 ADD PUSH2 0x215C JUMP JUMPDEST SWAP2 POP POP SWAP3 SWAP2 POP POP JUMP JUMPDEST PUSH2 0x2273 DUP2 PUSH2 0x20E7 JUMP JUMPDEST DUP3 MSTORE POP POP JUMP JUMPDEST PUSH1 0x0 PUSH1 0x20 DUP3 ADD SWAP1 POP PUSH2 0x228E PUSH1 0x0 DUP4 ADD DUP5 PUSH2 0x226A JUMP JUMPDEST SWAP3 SWAP2 POP POP JUMP JUMPDEST PUSH1 0x0 PUSH1 0x20 DUP3 DUP5 SUB SLT ISZERO PUSH2 0x22AA JUMPI PUSH2 0x22A9 PUSH2 0x1F54 JUMP JUMPDEST JUMPDEST PUSH1 0x0 PUSH2 0x22B8 DUP5 DUP3 DUP6 ADD PUSH2 0x2096 JUMP JUMPDEST SWAP2 POP POP SWAP3 SWAP2 POP POP JUMP JUMPDEST PUSH1 0x0 PUSH1 0x20 DUP3 DUP5 SUB SLT ISZERO PUSH2 0x22D7 JUMPI PUSH2 0x22D6 PUSH2 0x1F54 JUMP JUMPDEST JUMPDEST PUSH1 0x0 PUSH2 0x22E5 DUP5 DUP3 DUP6 ADD PUSH2 0x210F JUMP JUMPDEST SWAP2 POP POP SWAP3 SWAP2 POP POP JUMP JUMPDEST PUSH2 0x22F7 DUP2 PUSH2 0x1F79 JUMP JUMPDEST DUP3 MSTORE POP POP JUMP JUMPDEST PUSH1 0x0 PUSH1 0x20 DUP3 ADD SWAP1 POP PUSH2 0x2312 PUSH1 0x0 DUP4 ADD DUP5 PUSH2 0x22EE JUMP JUMPDEST SWAP3 SWAP2 POP POP JUMP JUMPDEST PUSH1 0x0 DUP1 PUSH1 0x40 DUP4 DUP6 SUB SLT ISZERO PUSH2 0x232F JUMPI PUSH2 0x232E PUSH2 0x1F54 JUMP JUMPDEST JUMPDEST PUSH1 0x0 PUSH2 0x233D DUP6 DUP3 DUP7 ADD PUSH2 0x1FA2 JUMP JUMPDEST SWAP3 POP POP PUSH1 0x20 PUSH2 0x234E DUP6 DUP3 DUP7 ADD PUSH2 0x20D2 JUMP JUMPDEST SWAP2 POP POP SWAP3 POP SWAP3 SWAP1 POP JUMP JUMPDEST PUSH2 0x2361 DUP2 PUSH2 0x2124 JUMP JUMPDEST DUP3 MSTORE POP POP JUMP JUMPDEST PUSH1 0x0 PUSH1 0x20 DUP3 ADD SWAP1 POP PUSH2 0x237C PUSH1 0x0 DUP4 ADD DUP5 PUSH2 0x2358 JUMP JUMPDEST SWAP3 SWAP2 POP POP JUMP JUMPDEST PUSH2 0x238B DUP2 PUSH2 0x20AB JUMP JUMPDEST DUP3 MSTORE POP POP JUMP JUMPDEST PUSH1 0x0 PUSH1 0x20 DUP3 ADD SWAP1 POP PUSH2 0x23A6 PUSH1 0x0 DUP4 ADD DUP5 PUSH2 0x2382 JUMP JUMPDEST SWAP3 SWAP2 POP POP JUMP JUMPDEST PUSH2 0x23B5 DUP2 PUSH2 0x2075 JUMP JUMPDEST DUP3 MSTORE POP POP JUMP JUMPDEST PUSH2 0x23C4 DUP2 PUSH2 0x20AB JUMP JUMPDEST DUP3 MSTORE POP POP JUMP JUMPDEST PUSH2 0x23D3 DUP2 PUSH2 0x1F79 JUMP JUMPDEST DUP3 MSTORE POP POP JUMP JUMPDEST PUSH2 0x23E2 DUP2 PUSH2 0x20E7 JUMP JUMPDEST DUP3 MSTORE POP POP JUMP JUMPDEST PUSH2 0x23F1 DUP2 PUSH2 0x2124 JUMP JUMPDEST DUP3 MSTORE POP POP JUMP JUMPDEST PUSH2 0x120 DUP3 ADD PUSH1 0x0 DUP3 ADD MLOAD PUSH2 0x240E PUSH1 0x0 DUP6 ADD DUP3 PUSH2 0x23AC JUMP JUMPDEST POP PUSH1 0x20 DUP3 ADD MLOAD PUSH2 0x2421 PUSH1 0x20 DUP6 ADD DUP3 PUSH2 0x23BB JUMP JUMPDEST POP PUSH1 0x40 DUP3 ADD MLOAD PUSH2 0x2434 PUSH1 0x40 DUP6 ADD DUP3 PUSH2 0x23CA JUMP JUMPDEST POP PUSH1 0x60 DUP3 ADD MLOAD PUSH2 0x2447 PUSH1 0x60 DUP6 ADD DUP3 PUSH2 0x23D9 JUMP JUMPDEST POP PUSH1 0x80 DUP3 ADD MLOAD PUSH2 0x245A PUSH1 0x80 DUP6 ADD DUP3 PUSH2 0x23CA JUMP JUMPDEST POP PUSH1 0xA0 DUP3 ADD MLOAD PUSH2 0x246D PUSH1 0xA0 DUP6 ADD DUP3 PUSH2 0x23BB JUMP JUMPDEST POP PUSH1 0xC0 DUP3 ADD MLOAD PUSH2 0x2480 PUSH1 0xC0 DUP6 ADD DUP3 PUSH2 0x23CA JUMP JUMPDEST POP PUSH1 0xE0 DUP3 ADD MLOAD PUSH2 0x2493 PUSH1 0xE0 DUP6 ADD DUP3 PUSH2 0x23E8 JUMP JUMPDEST POP PUSH2 0x100 DUP3 ADD MLOAD PUSH2 0x24A8 PUSH2 0x100 DUP6 ADD DUP3 PUSH2 0x23E8 JUMP JUMPDEST POP POP POP POP JUMP JUMPDEST PUSH1 0x0 PUSH2 0x120 DUP3 ADD SWAP1 POP PUSH2 0x24C4 PUSH1 0x0 DUP4 ADD DUP5 PUSH2 0x23F7 JUMP JUMPDEST SWAP3 SWAP2 POP POP JUMP JUMPDEST PUSH2 0x24D3 DUP2 PUSH2 0x2075 JUMP JUMPDEST DUP3 MSTORE POP POP JUMP JUMPDEST PUSH1 0x0 PUSH2 0x120 DUP3 ADD SWAP1 POP PUSH2 0x24EF PUSH1 0x0 DUP4 ADD DUP13 PUSH2 0x24CA JUMP JUMPDEST PUSH2 0x24FC PUSH1 0x20 DUP4 ADD DUP12 PUSH2 0x2382 JUMP JUMPDEST PUSH2 0x2509 PUSH1 0x40 DUP4 ADD DUP11 PUSH2 0x22EE JUMP JUMPDEST PUSH2 0x2516 PUSH1 0x60 DUP4 ADD DUP10 PUSH2 0x226A JUMP JUMPDEST PUSH2 0x2523 PUSH1 0x80 DUP4 ADD DUP9 PUSH2 0x22EE JUMP JUMPDEST PUSH2 0x2530 PUSH1 0xA0 DUP4 ADD DUP8 PUSH2 0x2382 JUMP JUMPDEST PUSH2 0x253D PUSH1 0xC0 DUP4 ADD DUP7 PUSH2 0x22EE JUMP JUMPDEST PUSH2 0x254A PUSH1 0xE0 DUP4 ADD DUP6 PUSH2 0x2358 JUMP JUMPDEST PUSH2 0x2558 PUSH2 0x100 DUP4 ADD DUP5 PUSH2 0x2358 JUMP JUMPDEST SWAP11 SWAP10 POP POP POP POP POP POP POP POP POP POP JUMP JUMPDEST PUSH1 0x0 DUP1 PUSH2 0x140 DUP4 DUP6 SUB SLT ISZERO PUSH2 0x257E JUMPI PUSH2 0x257D PUSH2 0x1F54 JUMP JUMPDEST JUMPDEST PUSH1 0x0 PUSH2 0x258C DUP6 DUP3 DUP7 ADD PUSH2 0x215C JUMP JUMPDEST SWAP3 POP POP PUSH2 0x120 PUSH2 0x259E DUP6 DUP3 DUP7 ADD PUSH2 0x1FA2 JUMP JUMPDEST SWAP2 POP POP SWAP3 POP SWAP3 SWAP1 POP JUMP JUMPDEST PUSH1 0x0 DUP2 MLOAD SWAP1 POP PUSH2 0x25B7 DUP2 PUSH2 0x2130 JUMP JUMPDEST SWAP3 SWAP2 POP POP JUMP JUMPDEST PUSH1 0x0 PUSH1 0x20 DUP3 DUP5 SUB SLT ISZERO PUSH2 0x25D3 JUMPI PUSH2 0x25D2 PUSH2 0x1F54 JUMP JUMPDEST JUMPDEST PUSH1 0x0 PUSH2 0x25E1 DUP5 DUP3 DUP6 ADD PUSH2 0x25A8 JUMP JUMPDEST SWAP2 POP POP SWAP3 SWAP2 POP POP JUMP JUMPDEST PUSH1 0x0 DUP3 DUP3 MSTORE PUSH1 0x20 DUP3 ADD SWAP1 POP SWAP3 SWAP2 POP POP JUMP JUMPDEST PUSH32 0x637573746F6D6572206973206E6F742065786973747300000000000000000000 PUSH1 0x0 DUP3 ADD MSTORE POP JUMP JUMPDEST PUSH1 0x0 PUSH2 0x2631 PUSH1 0x16 DUP4 PUSH2 0x25EA JUMP JUMPDEST SWAP2 POP PUSH2 0x263C DUP3 PUSH2 0x25FB JUMP JUMPDEST PUSH1 0x20 DUP3 ADD SWAP1 POP SWAP2 SWAP1 POP JUMP JUMPDEST PUSH1 0x0 PUSH1 0x20 DUP3 ADD SWAP1 POP DUP2 DUP2 SUB PUSH1 0x0 DUP4 ADD MSTORE PUSH2 0x2660 DUP2 PUSH2 0x2624 JUMP JUMPDEST SWAP1 POP SWAP2 SWAP1 POP JUMP JUMPDEST PUSH32 0x637573746F6D6572206973206578697374730000000000000000000000000000 PUSH1 0x0 DUP3 ADD MSTORE POP JUMP JUMPDEST PUSH1 0x0 PUSH2 0x269D PUSH1 0x12 DUP4 PUSH2 0x25EA JUMP JUMPDEST SWAP2 POP PUSH2 0x26A8 DUP3 PUSH2 0x2667 JUMP JUMPDEST PUSH1 0x20 DUP3 ADD SWAP1 POP SWAP2 SWAP1 POP JUMP JUMPDEST PUSH1 0x0 PUSH1 0x20 DUP3 ADD SWAP1 POP DUP2 DUP2 SUB PUSH1 0x0 DUP4 ADD MSTORE PUSH2 0x26CC DUP2 PUSH2 0x2690 JUMP JUMPDEST SWAP1 POP SWAP2 SWAP1 POP JUMP JUMPDEST PUSH32 0x4E487B7100000000000000000000000000000000000000000000000000000000 PUSH1 0x0 MSTORE PUSH1 0x11 PUSH1 0x4 MSTORE PUSH1 0x24 PUSH1 0x0 REVERT JUMPDEST PUSH1 0x0 PUSH2 0x270D DUP3 PUSH2 0x20E7 JUMP JUMPDEST SWAP2 POP PUSH2 0x2718 DUP4 PUSH2 0x20E7 JUMP JUMPDEST SWAP3 POP DUP3 DUP3 ADD SWAP1 POP PUSH5 0xFFFFFFFFFF DUP2 GT ISZERO PUSH2 0x2735 JUMPI PUSH2 0x2734 PUSH2 0x26D3 JUMP JUMPDEST JUMPDEST SWAP3 SWAP2 POP POP JUMP JUMPDEST PUSH32 0x637573746F6D65722061646472657373206973206E756C6C0000000000000000 PUSH1 0x0 DUP3 ADD MSTORE POP JUMP JUMPDEST PUSH1 0x0 PUSH2 0x2771 PUSH1 0x18 DUP4 PUSH2 0x25EA JUMP JUMPDEST SWAP2 POP PUSH2 0x277C DUP3 PUSH2 0x273B JUMP JUMPDEST PUSH1 0x20 DUP3 ADD SWAP1 POP SWAP2 SWAP1 POP JUMP JUMPDEST PUSH1 0x0 PUSH1 0x20 DUP3 ADD SWAP1 POP DUP2 DUP2 SUB PUSH1 0x0 DUP4 ADD MSTORE PUSH2 0x27A0 DUP2 PUSH2 0x2764 JUMP JUMPDEST SWAP1 POP SWAP2 SWAP1 POP JUMP JUMPDEST PUSH32 0x20437573746F6D6572206973206E6F7420657869737473000000000000000000 PUSH1 0x0 DUP3 ADD MSTORE POP JUMP JUMPDEST PUSH1 0x0 PUSH2 0x27DD PUSH1 0x17 DUP4 PUSH2 0x25EA JUMP JUMPDEST SWAP2 POP PUSH2 0x27E8 DUP3 PUSH2 0x27A7 JUMP JUMPDEST PUSH1 0x20 DUP3 ADD SWAP1 POP SWAP2 SWAP1 POP JUMP JUMPDEST PUSH1 0x0 PUSH1 0x20 DUP3 ADD SWAP1 POP DUP2 DUP2 SUB PUSH1 0x0 DUP4 ADD MSTORE PUSH2 0x280C DUP2 PUSH2 0x27D0 JUMP JUMPDEST SWAP1 POP SWAP2 SWAP1 POP JUMP JUMPDEST PUSH32 0x74686520637573746F6D6572207265636F6D6D656E6465722065786973747300 PUSH1 0x0 DUP3 ADD MSTORE POP JUMP JUMPDEST PUSH1 0x0 PUSH2 0x2849 PUSH1 0x1F DUP4 PUSH2 0x25EA JUMP JUMPDEST SWAP2 POP PUSH2 0x2854 DUP3 PUSH2 0x2813 JUMP JUMPDEST PUSH1 0x20 DUP3 ADD SWAP1 POP SWAP2 SWAP1 POP JUMP JUMPDEST PUSH1 0x0 PUSH1 0x20 DUP3 ADD SWAP1 POP DUP2 DUP2 SUB PUSH1 0x0 DUP4 ADD MSTORE PUSH2 0x2878 DUP2 PUSH2 0x283C JUMP JUMPDEST SWAP1 POP SWAP2 SWAP1 POP JUMP JUMPDEST PUSH1 0x0 PUSH2 0x288A DUP3 PUSH2 0x20AB JUMP JUMPDEST SWAP2 POP PUSH2 0x2895 DUP4 PUSH2 0x20AB JUMP JUMPDEST SWAP3 POP DUP3 DUP3 ADD SWAP1 POP PUSH4 0xFFFFFFFF DUP2 GT ISZERO PUSH2 0x28B1 JUMPI PUSH2 0x28B0 PUSH2 0x26D3 JUMP JUMPDEST JUMPDEST SWAP3 SWAP2 POP POP JUMP INVALID LOG2 PUSH5 0x6970667358 0x22 SLT KECCAK256 POP 0xBC SHL NUMBER 0xB5 0xDA MSIZE REVERT 0xF8 0xE2 0xAE 0xD5 PUSH26 0x5F2BD4D777D0ABB401886E7FA16237DDA3326164736F6C634300 ADDMOD SLT STOP CALLER "
				},
				"gasEstimates": {
					"creation": {
						"codeDepositCost": "2095400",
						"executionCost": "infinite",
						"totalCost": "infinite"
					},
					"external": {
						"addCustomer((bytes32,uint32,address,uint40,address,uint32,address,bool,bool))": "infinite",
						"addCustomer((bytes32,uint32,address,uint40,address,uint32,address,bool,bool),address)": "infinite",
						"addRelation(uint40)": "infinite",
						"customerList(address)": "infinite",
						"customerUniKey(uint40)": "2957",
						"customerUniNextKey()": "2539",
						"gateCustomerList(address,uint32)": "infinite",
						"gateCustomerNextKey(address)": "2912",
						"gatorContractAddress()": "infinite",
						"getCustomer(address)": "infinite",
						"getCustomerInfobyRecommander(address,uint32)": "infinite",
						"getCustomerNumbyRecommander(address)": "2941",
						"getCustomerRecommander(address)": "infinite",
						"isValidCustomer(address)": "3028",
						"lockCustomerbyMarketor(address)": "infinite",
						"marketorContractAddress()": "infinite",
						"recommenderraltionkey(address)": "2889",
						"recommenderraltionlist(address,uint32)": "infinite",
						"unlockCustomerbyMarketor(address)": "infinite",
						"updateCustomerNeckName(bytes32)": "49402"
					}
				},
				"methodIdentifiers": {
					"addCustomer((bytes32,uint32,address,uint40,address,uint32,address,bool,bool))": "14f9e554",
					"addCustomer((bytes32,uint32,address,uint40,address,uint32,address,bool,bool),address)": "fc5f9f18",
					"addRelation(uint40)": "f3c86048",
					"customerList(address)": "f4274bc5",
					"customerUniKey(uint40)": "3e95003c",
					"customerUniNextKey()": "367b6dcc",
					"gateCustomerList(address,uint32)": "5cfeafa5",
					"gateCustomerNextKey(address)": "bc5c6134",
					"gatorContractAddress()": "47d0a634",
					"getCustomer(address)": "cb949e51",
					"getCustomerInfobyRecommander(address,uint32)": "8370aa81",
					"getCustomerNumbyRecommander(address)": "8a6df726",
					"getCustomerRecommander(address)": "e71957b9",
					"isValidCustomer(address)": "78166097",
					"lockCustomerbyMarketor(address)": "0138a661",
					"marketorContractAddress()": "492b7107",
					"recommenderraltionkey(address)": "e853f952",
					"recommenderraltionlist(address,uint32)": "a60832cd",
					"unlockCustomerbyMarketor(address)": "be5fdac8",
					"updateCustomerNeckName(bytes32)": "3b63b647"
				}
			},
			"storageLayout": {
				"storage": [
					{
						"astId": 21,
						"contract": "Contracts/TTSwapV1Customer.sol:TTSwapV1Customer",
						"label": "customerList",
						"offset": 0,
						"slot": "0",
						"type": "t_mapping(t_address,t_struct(Info)779_storage)"
					},
					{
						"astId": 25,
						"contract": "Contracts/TTSwapV1Customer.sol:TTSwapV1Customer",
						"label": "customerUniKey",
						"offset": 0,
						"slot": "1",
						"type": "t_mapping(t_uint40,t_address)"
					},
					{
						"astId": 27,
						"contract": "Contracts/TTSwapV1Customer.sol:TTSwapV1Customer",
						"label": "customerUniNextKey",
						"offset": 0,
						"slot": "2",
						"type": "t_uint40"
					},
					{
						"astId": 31,
						"contract": "Contracts/TTSwapV1Customer.sol:TTSwapV1Customer",
						"label": "recommenderraltionkey",
						"offset": 0,
						"slot": "3",
						"type": "t_mapping(t_address,t_uint32)"
					},
					{
						"astId": 37,
						"contract": "Contracts/TTSwapV1Customer.sol:TTSwapV1Customer",
						"label": "recommenderraltionlist",
						"offset": 0,
						"slot": "4",
						"type": "t_mapping(t_address,t_mapping(t_uint32,t_address))"
					},
					{
						"astId": 41,
						"contract": "Contracts/TTSwapV1Customer.sol:TTSwapV1Customer",
						"label": "gateCustomerNextKey",
						"offset": 0,
						"slot": "5",
						"type": "t_mapping(t_address,t_uint32)"
					},
					{
						"astId": 47,
						"contract": "Contracts/TTSwapV1Customer.sol:TTSwapV1Customer",
						"label": "gateCustomerList",
						"offset": 0,
						"slot": "6",
						"type": "t_mapping(t_address,t_mapping(t_uint32,t_address))"
					}
				],
				"types": {
					"t_address": {
						"encoding": "inplace",
						"label": "address",
						"numberOfBytes": "20"
					},
					"t_bool": {
						"encoding": "inplace",
						"label": "bool",
						"numberOfBytes": "1"
					},
					"t_bytes32": {
						"encoding": "inplace",
						"label": "bytes32",
						"numberOfBytes": "32"
					},
					"t_mapping(t_address,t_mapping(t_uint32,t_address))": {
						"encoding": "mapping",
						"key": "t_address",
						"label": "mapping(address => mapping(uint32 => address))",
						"numberOfBytes": "32",
						"value": "t_mapping(t_uint32,t_address)"
					},
					"t_mapping(t_address,t_struct(Info)779_storage)": {
						"encoding": "mapping",
						"key": "t_address",
						"label": "mapping(address => struct LCustomer.Info)",
						"numberOfBytes": "32",
						"value": "t_struct(Info)779_storage"
					},
					"t_mapping(t_address,t_uint32)": {
						"encoding": "mapping",
						"key": "t_address",
						"label": "mapping(address => uint32)",
						"numberOfBytes": "32",
						"value": "t_uint32"
					},
					"t_mapping(t_uint32,t_address)": {
						"encoding": "mapping",
						"key": "t_uint32",
						"label": "mapping(uint32 => address)",
						"numberOfBytes": "32",
						"value": "t_address"
					},
					"t_mapping(t_uint40,t_address)": {
						"encoding": "mapping",
						"key": "t_uint40",
						"label": "mapping(uint40 => address)",
						"numberOfBytes": "32",
						"value": "t_address"
					},
					"t_struct(Info)779_storage": {
						"encoding": "inplace",
						"label": "struct LCustomer.Info",
						"members": [
							{
								"astId": 762,
								"contract": "Contracts/TTSwapV1Customer.sol:TTSwapV1Customer",
								"label": "neckname",
								"offset": 0,
								"slot": "0",
								"type": "t_bytes32"
							},
							{
								"astId": 764,
								"contract": "Contracts/TTSwapV1Customer.sol:TTSwapV1Customer",
								"label": "createtimestamp",
								"offset": 0,
								"slot": "1",
								"type": "t_uint32"
							},
							{
								"astId": 766,
								"contract": "Contracts/TTSwapV1Customer.sol:TTSwapV1Customer",
								"label": "recommender",
								"offset": 4,
								"slot": "1",
								"type": "t_address"
							},
							{
								"astId": 768,
								"contract": "Contracts/TTSwapV1Customer.sol:TTSwapV1Customer",
								"label": "customerKey",
								"offset": 24,
								"slot": "1",
								"type": "t_uint40"
							},
							{
								"astId": 770,
								"contract": "Contracts/TTSwapV1Customer.sol:TTSwapV1Customer",
								"label": "Gater",
								"offset": 0,
								"slot": "2",
								"type": "t_address"
							},
							{
								"astId": 772,
								"contract": "Contracts/TTSwapV1Customer.sol:TTSwapV1Customer",
								"label": "GaterKey",
								"offset": 20,
								"slot": "2",
								"type": "t_uint32"
							},
							{
								"astId": 774,
								"contract": "Contracts/TTSwapV1Customer.sol:TTSwapV1Customer",
								"label": "contractAddress",
								"offset": 0,
								"slot": "3",
								"type": "t_address"
							},
							{
								"astId": 776,
								"contract": "Contracts/TTSwapV1Customer.sol:TTSwapV1Customer",
								"label": "isUsed",
								"offset": 20,
								"slot": "3",
								"type": "t_bool"
							},
							{
								"astId": 778,
								"contract": "Contracts/TTSwapV1Customer.sol:TTSwapV1Customer",
								"label": "unlock",
								"offset": 21,
								"slot": "3",
								"type": "t_bool"
							}
						],
						"numberOfBytes": "128"
					},
					"t_uint32": {
						"encoding": "inplace",
						"label": "uint32",
						"numberOfBytes": "4"
					},
					"t_uint40": {
						"encoding": "inplace",
						"label": "uint40",
						"numberOfBytes": "5"
					}
				}
			},
			"userdoc": {
				"kind": "user",
				"methods": {
					"gatorContractAddress()": {
						"notice": "The contract that deployed the pool, which must adhere to the IUniswapV3Factory interface"
					},
					"marketorContractAddress()": {
						"notice": "The contract that deployed the pool, which must adhere to the IUniswapV3Factory interface"
					}
				},
				"version": 1
			}
		}
	}
}