{
	"Contracts/USDT.sol": {
		"USDT": {
			"abi": [
				{
					"inputs": [
						{
							"internalType": "uint256",
							"name": "_initialAmount",
							"type": "uint256"
						},
						{
							"internalType": "string",
							"name": "_tokenName",
							"type": "string"
						},
						{
							"internalType": "uint8",
							"name": "_decimalUnits",
							"type": "uint8"
						},
						{
							"internalType": "string",
							"name": "_tokenSymbol",
							"type": "string"
						}
					],
					"stateMutability": "nonpayable",
					"type": "constructor"
				},
				{
					"anonymous": false,
					"inputs": [
						{
							"indexed": true,
							"internalType": "address",
							"name": "_owner",
							"type": "address"
						},
						{
							"indexed": true,
							"internalType": "address",
							"name": "_spender",
							"type": "address"
						},
						{
							"indexed": false,
							"internalType": "uint256",
							"name": "_value",
							"type": "uint256"
						}
					],
					"name": "Approval",
					"type": "event"
				},
				{
					"anonymous": false,
					"inputs": [
						{
							"indexed": true,
							"internalType": "address",
							"name": "_from",
							"type": "address"
						},
						{
							"indexed": true,
							"internalType": "address",
							"name": "_to",
							"type": "address"
						},
						{
							"indexed": false,
							"internalType": "uint256",
							"name": "_value",
							"type": "uint256"
						}
					],
					"name": "Transfer",
					"type": "event"
				},
				{
					"inputs": [
						{
							"internalType": "address",
							"name": "_owner",
							"type": "address"
						},
						{
							"internalType": "address",
							"name": "_spender",
							"type": "address"
						}
					],
					"name": "allowance",
					"outputs": [
						{
							"internalType": "uint256",
							"name": "remaining",
							"type": "uint256"
						}
					],
					"stateMutability": "view",
					"type": "function"
				},
				{
					"inputs": [
						{
							"internalType": "address",
							"name": "",
							"type": "address"
						},
						{
							"internalType": "address",
							"name": "",
							"type": "address"
						}
					],
					"name": "allowed",
					"outputs": [
						{
							"internalType": "uint256",
							"name": "",
							"type": "uint256"
						}
					],
					"stateMutability": "view",
					"type": "function"
				},
				{
					"inputs": [
						{
							"internalType": "address",
							"name": "_spender",
							"type": "address"
						},
						{
							"internalType": "uint256",
							"name": "_value",
							"type": "uint256"
						}
					],
					"name": "approve",
					"outputs": [
						{
							"internalType": "bool",
							"name": "success",
							"type": "bool"
						}
					],
					"stateMutability": "nonpayable",
					"type": "function"
				},
				{
					"inputs": [
						{
							"internalType": "address",
							"name": "_owner",
							"type": "address"
						}
					],
					"name": "balanceOf",
					"outputs": [
						{
							"internalType": "uint256",
							"name": "balance",
							"type": "uint256"
						}
					],
					"stateMutability": "view",
					"type": "function"
				},
				{
					"inputs": [
						{
							"internalType": "address",
							"name": "",
							"type": "address"
						}
					],
					"name": "balances",
					"outputs": [
						{
							"internalType": "uint256",
							"name": "",
							"type": "uint256"
						}
					],
					"stateMutability": "view",
					"type": "function"
				},
				{
					"inputs": [],
					"name": "decimals",
					"outputs": [
						{
							"internalType": "uint8",
							"name": "",
							"type": "uint8"
						}
					],
					"stateMutability": "view",
					"type": "function"
				},
				{
					"inputs": [],
					"name": "name",
					"outputs": [
						{
							"internalType": "string",
							"name": "",
							"type": "string"
						}
					],
					"stateMutability": "view",
					"type": "function"
				},
				{
					"inputs": [],
					"name": "symbol",
					"outputs": [
						{
							"internalType": "string",
							"name": "",
							"type": "string"
						}
					],
					"stateMutability": "view",
					"type": "function"
				},
				{
					"inputs": [],
					"name": "totalSupply",
					"outputs": [
						{
							"internalType": "uint256",
							"name": "",
							"type": "uint256"
						}
					],
					"stateMutability": "view",
					"type": "function"
				},
				{
					"inputs": [
						{
							"internalType": "address",
							"name": "_to",
							"type": "address"
						},
						{
							"internalType": "uint256",
							"name": "_value",
							"type": "uint256"
						}
					],
					"name": "transfer",
					"outputs": [
						{
							"internalType": "bool",
							"name": "success",
							"type": "bool"
						}
					],
					"stateMutability": "nonpayable",
					"type": "function"
				},
				{
					"inputs": [
						{
							"internalType": "address",
							"name": "_from",
							"type": "address"
						},
						{
							"internalType": "address",
							"name": "_to",
							"type": "address"
						},
						{
							"internalType": "uint256",
							"name": "_value",
							"type": "uint256"
						}
					],
					"name": "transferFrom",
					"outputs": [
						{
							"internalType": "bool",
							"name": "success",
							"type": "bool"
						}
					],
					"stateMutability": "nonpayable",
					"type": "function"
				}
			],
			"devdoc": {
				"kind": "dev",
				"methods": {
					"allowance(address,address)": {
						"params": {
							"_owner": "The address of the account owning tokens",
							"_spender": "The address of the account able to transfer the tokens"
						},
						"returns": {
							"remaining": "Amount of remaining tokens allowed to spent"
						}
					},
					"approve(address,uint256)": {
						"params": {
							"_spender": "The address of the account able to transfer the tokens",
							"_value": "The amount of wei to be approved for transfer"
						},
						"returns": {
							"success": "Whether the approval was successful or not"
						}
					},
					"balanceOf(address)": {
						"params": {
							"_owner": "The address from which the balance will be retrieved"
						},
						"returns": {
							"balance": "the balance"
						}
					},
					"transfer(address,uint256)": {
						"params": {
							"_to": "The address of the recipient",
							"_value": "The amount of token to be transferred"
						},
						"returns": {
							"success": "Whether the transfer was successful or not"
						}
					},
					"transferFrom(address,address,uint256)": {
						"params": {
							"_from": "The address of the sender",
							"_to": "The address of the recipient",
							"_value": "The amount of token to be transferred"
						},
						"returns": {
							"success": "Whether the transfer was successful or not"
						}
					}
				},
				"version": 1
			},
			"evm": {
				"assembly": "    /* \"Contracts/USDT.sol\":2007:4905  contract USDT is Token {... */\n  mstore(0x40, 0x80)\n    /* \"Contracts/USDT.sol\":2689:3203  constructor(... */\n  callvalue\n  dup1\n  iszero\n  tag_1\n  jumpi\n  0x00\n  dup1\n  revert\ntag_1:\n  pop\n  mload(0x40)\n  sub(codesize, bytecodeSize)\n  dup1\n  bytecodeSize\n  dup4\n  codecopy\n  dup2\n  add\n  0x40\n  dup2\n  swap1\n  mstore\n  tag_2\n  swap2\n  tag_3\n  jump\t// in\ntag_2:\n    /* \"Contracts/USDT.sol\":2857:2867  msg.sender */\n  caller\n    /* \"Contracts/USDT.sol\":2848:2856  balances */\n  0x00\n    /* \"Contracts/USDT.sol\":2848:2868  balances[msg.sender] */\n  swap1\n  dup2\n  mstore\n  0x20\n  dup2\n  swap1\n  mstore\n  0x40\n  swap1\n  keccak256\n    /* \"Contracts/USDT.sol\":2848:2885  balances[msg.sender] = _initialAmount */\n  dup5\n  swap1\n  sstore\n    /* \"Contracts/USDT.sol\":2934:2945  totalSupply */\n  0x02\n    /* \"Contracts/USDT.sol\":2934:2962  totalSupply = _initialAmount */\n  dup5\n  swap1\n  sstore\n    /* \"Contracts/USDT.sol\":2995:2999  name */\n  0x03\n    /* \"Contracts/USDT.sol\":2995:3012  name = _tokenName */\n  tag_6\n    /* \"Contracts/USDT.sol\":3002:3012  _tokenName */\n  dup5\n    /* \"Contracts/USDT.sol\":2995:2999  name */\n  dup3\n    /* \"Contracts/USDT.sol\":2995:3012  name = _tokenName */\n  tag_7\n  jump\t// in\ntag_6:\n  pop\n    /* \"Contracts/USDT.sol\":3059:3067  decimals */\n  0x04\n    /* \"Contracts/USDT.sol\":3059:3083  decimals = _decimalUnits */\n  dup1\n  sload\n  not(0xff)\n  and\n  0xff\n  dup5\n  and\n  or\n  swap1\n  sstore\n    /* \"Contracts/USDT.sol\":3136:3142  symbol */\n  0x05\n    /* \"Contracts/USDT.sol\":3136:3157  symbol = _tokenSymbol */\n  tag_8\n    /* \"Contracts/USDT.sol\":3145:3157  _tokenSymbol */\n  dup3\n    /* \"Contracts/USDT.sol\":3136:3142  symbol */\n  dup3\n    /* \"Contracts/USDT.sol\":3136:3157  symbol = _tokenSymbol */\n  tag_7\n  jump\t// in\ntag_8:\n  pop\n    /* \"Contracts/USDT.sol\":2689:3203  constructor(... */\n  pop\n  pop\n  pop\n  pop\n    /* \"Contracts/USDT.sol\":2007:4905  contract USDT is Token {... */\n  jump(tag_16)\n    /* \"#utility.yul\":14:141   */\ntag_10:\n    /* \"#utility.yul\":75:85   */\n  0x4e487b71\n    /* \"#utility.yul\":70:73   */\n  0xe0\n    /* \"#utility.yul\":66:86   */\n  shl\n    /* \"#utility.yul\":63:64   */\n  0x00\n    /* \"#utility.yul\":56:87   */\n  mstore\n    /* \"#utility.yul\":106:110   */\n  0x41\n    /* \"#utility.yul\":103:104   */\n  0x04\n    /* \"#utility.yul\":96:111   */\n  mstore\n    /* \"#utility.yul\":130:134   */\n  0x24\n    /* \"#utility.yul\":127:128   */\n  0x00\n    /* \"#utility.yul\":120:135   */\n  revert\n    /* \"#utility.yul\":146:986   */\ntag_11:\n    /* \"#utility.yul\":200:205   */\n  0x00\n    /* \"#utility.yul\":253:256   */\n  dup3\n    /* \"#utility.yul\":246:250   */\n  0x1f\n    /* \"#utility.yul\":238:244   */\n  dup4\n    /* \"#utility.yul\":234:251   */\n  add\n    /* \"#utility.yul\":230:257   */\n  slt\n    /* \"#utility.yul\":220:275   */\n  tag_19\n  jumpi\n    /* \"#utility.yul\":271:272   */\n  0x00\n    /* \"#utility.yul\":268:269   */\n  dup1\n    /* \"#utility.yul\":261:273   */\n  revert\n    /* \"#utility.yul\":220:275   */\ntag_19:\n    /* \"#utility.yul\":294:307   */\n  dup2\n  mload\n  sub(shl(0x40, 0x01), 0x01)\n    /* \"#utility.yul\":356:366   */\n  dup1\n  dup3\n  gt\n    /* \"#utility.yul\":353:389   */\n  iszero\n  tag_21\n  jumpi\n    /* \"#utility.yul\":369:387   */\n  tag_21\n  tag_10\n  jump\t// in\ntag_21:\n    /* \"#utility.yul\":444:446   */\n  0x40\n    /* \"#utility.yul\":438:447   */\n  mload\n    /* \"#utility.yul\":412:414   */\n  0x1f\n    /* \"#utility.yul\":498:511   */\n  dup4\n  add\n  not(0x1f)\n    /* \"#utility.yul\":494:516   */\n  swap1\n  dup2\n  and\n    /* \"#utility.yul\":518:520   */\n  0x3f\n    /* \"#utility.yul\":490:521   */\n  add\n    /* \"#utility.yul\":486:526   */\n  and\n    /* \"#utility.yul\":474:527   */\n  dup2\n  add\n  swap1\n    /* \"#utility.yul\":542:560   */\n  dup3\n  dup3\n  gt\n    /* \"#utility.yul\":562:584   */\n  dup2\n  dup4\n  lt\n    /* \"#utility.yul\":539:585   */\n  or\n    /* \"#utility.yul\":536:608   */\n  iszero\n  tag_23\n  jumpi\n    /* \"#utility.yul\":588:606   */\n  tag_23\n  tag_10\n  jump\t// in\ntag_23:\n    /* \"#utility.yul\":628:638   */\n  dup2\n    /* \"#utility.yul\":624:626   */\n  0x40\n    /* \"#utility.yul\":617:639   */\n  mstore\n    /* \"#utility.yul\":663:665   */\n  dup4\n    /* \"#utility.yul\":655:661   */\n  dup2\n    /* \"#utility.yul\":648:666   */\n  mstore\n    /* \"#utility.yul\":685:689   */\n  0x20\n    /* \"#utility.yul\":675:689   */\n  swap3\n  pop\n    /* \"#utility.yul\":730:733   */\n  dup7\n    /* \"#utility.yul\":725:727   */\n  dup4\n    /* \"#utility.yul\":720:722   */\n  dup6\n    /* \"#utility.yul\":712:718   */\n  dup9\n    /* \"#utility.yul\":708:723   */\n  add\n    /* \"#utility.yul\":704:728   */\n  add\n    /* \"#utility.yul\":701:734   */\n  gt\n    /* \"#utility.yul\":698:751   */\n  iszero\n  tag_24\n  jumpi\n    /* \"#utility.yul\":747:748   */\n  0x00\n    /* \"#utility.yul\":744:745   */\n  dup1\n    /* \"#utility.yul\":737:749   */\n  revert\n    /* \"#utility.yul\":698:751   */\ntag_24:\n    /* \"#utility.yul\":769:770   */\n  0x00\n    /* \"#utility.yul\":760:770   */\n  swap2\n  pop\n    /* \"#utility.yul\":779:912   */\ntag_25:\n    /* \"#utility.yul\":793:795   */\n  dup4\n    /* \"#utility.yul\":790:791   */\n  dup3\n    /* \"#utility.yul\":787:796   */\n  lt\n    /* \"#utility.yul\":779:912   */\n  iszero\n  tag_27\n  jumpi\n    /* \"#utility.yul\":881:895   */\n  dup6\n  dup3\n  add\n    /* \"#utility.yul\":877:900   */\n  dup4\n  add\n    /* \"#utility.yul\":871:901   */\n  mload\n    /* \"#utility.yul\":850:864   */\n  dup2\n  dup4\n  add\n    /* \"#utility.yul\":846:869   */\n  dup5\n  add\n    /* \"#utility.yul\":839:902   */\n  mstore\n    /* \"#utility.yul\":804:814   */\n  swap1\n  dup3\n  add\n  swap1\n    /* \"#utility.yul\":779:912   */\n  jump(tag_25)\ntag_27:\n    /* \"#utility.yul\":954:955   */\n  0x00\n    /* \"#utility.yul\":932:947   */\n  swap4\n  dup2\n  add\n    /* \"#utility.yul\":928:952   */\n  swap1\n  swap3\n  add\n    /* \"#utility.yul\":921:956   */\n  swap3\n  swap1\n  swap3\n  mstore\n    /* \"#utility.yul\":936:942   */\n  swap5\n    /* \"#utility.yul\":146:986   */\n  swap4\n  pop\n  pop\n  pop\n  pop\n  jump\t// out\n    /* \"#utility.yul\":991:1765   */\ntag_3:\n    /* \"#utility.yul\":1106:1112   */\n  0x00\n    /* \"#utility.yul\":1114:1120   */\n  dup1\n    /* \"#utility.yul\":1122:1128   */\n  0x00\n    /* \"#utility.yul\":1130:1136   */\n  dup1\n    /* \"#utility.yul\":1183:1186   */\n  0x80\n    /* \"#utility.yul\":1171:1180   */\n  dup6\n    /* \"#utility.yul\":1162:1169   */\n  dup8\n    /* \"#utility.yul\":1158:1181   */\n  sub\n    /* \"#utility.yul\":1154:1187   */\n  slt\n    /* \"#utility.yul\":1151:1204   */\n  iszero\n  tag_29\n  jumpi\n    /* \"#utility.yul\":1200:1201   */\n  0x00\n    /* \"#utility.yul\":1197:1198   */\n  dup1\n    /* \"#utility.yul\":1190:1202   */\n  revert\n    /* \"#utility.yul\":1151:1204   */\ntag_29:\n    /* \"#utility.yul\":1223:1239   */\n  dup5\n  mload\n    /* \"#utility.yul\":1283:1285   */\n  0x20\n    /* \"#utility.yul\":1268:1286   */\n  dup7\n  add\n    /* \"#utility.yul\":1262:1287   */\n  mload\n    /* \"#utility.yul\":1223:1239   */\n  swap1\n  swap5\n  pop\n  sub(shl(0x40, 0x01), 0x01)\n    /* \"#utility.yul\":1336:1350   */\n  dup1\n  dup3\n  gt\n    /* \"#utility.yul\":1333:1367   */\n  iszero\n  tag_30\n  jumpi\n    /* \"#utility.yul\":1363:1364   */\n  0x00\n    /* \"#utility.yul\":1360:1361   */\n  dup1\n    /* \"#utility.yul\":1353:1365   */\n  revert\n    /* \"#utility.yul\":1333:1367   */\ntag_30:\n    /* \"#utility.yul\":1386:1447   */\n  tag_31\n    /* \"#utility.yul\":1439:1446   */\n  dup9\n    /* \"#utility.yul\":1430:1436   */\n  dup4\n    /* \"#utility.yul\":1419:1428   */\n  dup10\n    /* \"#utility.yul\":1415:1437   */\n  add\n    /* \"#utility.yul\":1386:1447   */\n  tag_11\n  jump\t// in\ntag_31:\n    /* \"#utility.yul\":1376:1447   */\n  swap5\n  pop\n    /* \"#utility.yul\":1490:1492   */\n  0x40\n    /* \"#utility.yul\":1479:1488   */\n  dup8\n    /* \"#utility.yul\":1475:1493   */\n  add\n    /* \"#utility.yul\":1469:1494   */\n  mload\n    /* \"#utility.yul\":1456:1494   */\n  swap2\n  pop\n    /* \"#utility.yul\":1534:1538   */\n  0xff\n    /* \"#utility.yul\":1527:1532   */\n  dup3\n    /* \"#utility.yul\":1523:1539   */\n  and\n    /* \"#utility.yul\":1516:1521   */\n  dup3\n    /* \"#utility.yul\":1513:1540   */\n  eq\n    /* \"#utility.yul\":1503:1558   */\n  tag_32\n  jumpi\n    /* \"#utility.yul\":1554:1555   */\n  0x00\n    /* \"#utility.yul\":1551:1552   */\n  dup1\n    /* \"#utility.yul\":1544:1556   */\n  revert\n    /* \"#utility.yul\":1503:1558   */\ntag_32:\n    /* \"#utility.yul\":1628:1630   */\n  0x60\n    /* \"#utility.yul\":1613:1631   */\n  dup8\n  add\n    /* \"#utility.yul\":1607:1632   */\n  mload\n    /* \"#utility.yul\":1577:1582   */\n  swap2\n  swap4\n  pop\n    /* \"#utility.yul\":1644:1660   */\n  dup1\n  dup3\n  gt\n    /* \"#utility.yul\":1641:1677   */\n  iszero\n  tag_33\n  jumpi\n    /* \"#utility.yul\":1673:1674   */\n  0x00\n    /* \"#utility.yul\":1670:1671   */\n  dup1\n    /* \"#utility.yul\":1663:1675   */\n  revert\n    /* \"#utility.yul\":1641:1677   */\ntag_33:\n  pop\n    /* \"#utility.yul\":1696:1759   */\n  tag_34\n    /* \"#utility.yul\":1751:1758   */\n  dup8\n    /* \"#utility.yul\":1740:1748   */\n  dup3\n    /* \"#utility.yul\":1729:1738   */\n  dup9\n    /* \"#utility.yul\":1725:1749   */\n  add\n    /* \"#utility.yul\":1696:1759   */\n  tag_11\n  jump\t// in\ntag_34:\n    /* \"#utility.yul\":1686:1759   */\n  swap2\n  pop\n  pop\n    /* \"#utility.yul\":991:1765   */\n  swap3\n  swap6\n  swap2\n  swap5\n  pop\n  swap3\n  pop\n  jump\t// out\n    /* \"#utility.yul\":1770:2150   */\ntag_12:\n    /* \"#utility.yul\":1849:1850   */\n  0x01\n    /* \"#utility.yul\":1845:1857   */\n  dup2\n  dup2\n  shr\n  swap1\n    /* \"#utility.yul\":1892:1904   */\n  dup3\n  and\n  dup1\n    /* \"#utility.yul\":1913:1974   */\n  tag_36\n  jumpi\n    /* \"#utility.yul\":1967:1971   */\n  0x7f\n    /* \"#utility.yul\":1959:1965   */\n  dup3\n    /* \"#utility.yul\":1955:1972   */\n  and\n    /* \"#utility.yul\":1945:1972   */\n  swap2\n  pop\n    /* \"#utility.yul\":1913:1974   */\ntag_36:\n    /* \"#utility.yul\":2020:2022   */\n  0x20\n    /* \"#utility.yul\":2012:2018   */\n  dup3\n    /* \"#utility.yul\":2009:2023   */\n  lt\n    /* \"#utility.yul\":1989:2007   */\n  dup2\n    /* \"#utility.yul\":1986:2024   */\n  sub\n    /* \"#utility.yul\":1983:2144   */\n  tag_37\n  jumpi\n    /* \"#utility.yul\":2066:2076   */\n  0x4e487b71\n    /* \"#utility.yul\":2061:2064   */\n  0xe0\n    /* \"#utility.yul\":2057:2077   */\n  shl\n    /* \"#utility.yul\":2054:2055   */\n  0x00\n    /* \"#utility.yul\":2047:2078   */\n  mstore\n    /* \"#utility.yul\":2101:2105   */\n  0x22\n    /* \"#utility.yul\":2098:2099   */\n  0x04\n    /* \"#utility.yul\":2091:2106   */\n  mstore\n    /* \"#utility.yul\":2129:2133   */\n  0x24\n    /* \"#utility.yul\":2126:2127   */\n  0x00\n    /* \"#utility.yul\":2119:2134   */\n  revert\n    /* \"#utility.yul\":1983:2144   */\ntag_37:\n  pop\n    /* \"#utility.yul\":1770:2150   */\n  swap2\n  swap1\n  pop\n  jump\t// out\n    /* \"#utility.yul\":2281:2826   */\ntag_14:\n    /* \"#utility.yul\":2383:2385   */\n  0x1f\n    /* \"#utility.yul\":2378:2381   */\n  dup3\n    /* \"#utility.yul\":2375:2386   */\n  gt\n    /* \"#utility.yul\":2372:2820   */\n  iszero\n  tag_40\n  jumpi\n    /* \"#utility.yul\":2419:2420   */\n  0x00\n    /* \"#utility.yul\":2444:2449   */\n  dup2\n    /* \"#utility.yul\":2440:2442   */\n  dup2\n    /* \"#utility.yul\":2433:2450   */\n  mstore\n    /* \"#utility.yul\":2489:2493   */\n  0x20\n    /* \"#utility.yul\":2485:2487   */\n  dup2\n    /* \"#utility.yul\":2475:2494   */\n  keccak256\n    /* \"#utility.yul\":2559:2561   */\n  0x1f\n    /* \"#utility.yul\":2547:2557   */\n  dup6\n    /* \"#utility.yul\":2543:2562   */\n  add\n    /* \"#utility.yul\":2540:2541   */\n  0x05\n    /* \"#utility.yul\":2536:2563   */\n  shr\n    /* \"#utility.yul\":2530:2534   */\n  dup2\n    /* \"#utility.yul\":2526:2564   */\n  add\n    /* \"#utility.yul\":2595:2599   */\n  0x20\n    /* \"#utility.yul\":2583:2593   */\n  dup7\n    /* \"#utility.yul\":2580:2600   */\n  lt\n    /* \"#utility.yul\":2577:2624   */\n  iszero\n  tag_41\n  jumpi\n  pop\n    /* \"#utility.yul\":2618:2622   */\n  dup1\n    /* \"#utility.yul\":2577:2624   */\ntag_41:\n    /* \"#utility.yul\":2673:2675   */\n  0x1f\n    /* \"#utility.yul\":2668:2671   */\n  dup6\n    /* \"#utility.yul\":2664:2676   */\n  add\n    /* \"#utility.yul\":2661:2662   */\n  0x05\n    /* \"#utility.yul\":2657:2677   */\n  shr\n    /* \"#utility.yul\":2651:2655   */\n  dup3\n    /* \"#utility.yul\":2647:2678   */\n  add\n    /* \"#utility.yul\":2637:2678   */\n  swap2\n  pop\n    /* \"#utility.yul\":2728:2810   */\ntag_42:\n    /* \"#utility.yul\":2746:2748   */\n  dup2\n    /* \"#utility.yul\":2739:2744   */\n  dup2\n    /* \"#utility.yul\":2736:2749   */\n  lt\n    /* \"#utility.yul\":2728:2810   */\n  iszero\n  tag_44\n  jumpi\n    /* \"#utility.yul\":2791:2808   */\n  dup3\n  dup2\n  sstore\n    /* \"#utility.yul\":2772:2773   */\n  0x01\n    /* \"#utility.yul\":2761:2774   */\n  add\n    /* \"#utility.yul\":2728:2810   */\n  jump(tag_42)\ntag_44:\n    /* \"#utility.yul\":2732:2735   */\n  pop\n  pop\n  pop\n    /* \"#utility.yul\":2372:2820   */\ntag_40:\n    /* \"#utility.yul\":2281:2826   */\n  pop\n  pop\n  pop\n  jump\t// out\n    /* \"#utility.yul\":3002:4354   */\ntag_7:\n    /* \"#utility.yul\":3122:3132   */\n  dup2\n  mload\n  sub(shl(0x40, 0x01), 0x01)\n    /* \"#utility.yul\":3144:3174   */\n  dup2\n  gt\n    /* \"#utility.yul\":3141:3197   */\n  iszero\n  tag_48\n  jumpi\n    /* \"#utility.yul\":3177:3195   */\n  tag_48\n  tag_10\n  jump\t// in\ntag_48:\n    /* \"#utility.yul\":3206:3303   */\n  tag_49\n    /* \"#utility.yul\":3296:3302   */\n  dup2\n    /* \"#utility.yul\":3256:3294   */\n  tag_50\n    /* \"#utility.yul\":3288:3292   */\n  dup5\n    /* \"#utility.yul\":3282:3293   */\n  sload\n    /* \"#utility.yul\":3256:3294   */\n  tag_12\n  jump\t// in\ntag_50:\n    /* \"#utility.yul\":3250:3254   */\n  dup5\n    /* \"#utility.yul\":3206:3303   */\n  tag_14\n  jump\t// in\ntag_49:\n    /* \"#utility.yul\":3358:3362   */\n  0x20\n  dup1\n    /* \"#utility.yul\":3422:3424   */\n  0x1f\n    /* \"#utility.yul\":3411:3425   */\n  dup4\n  gt\n    /* \"#utility.yul\":3439:3440   */\n  0x01\n    /* \"#utility.yul\":3434:4097   */\n  dup2\n  eq\n  tag_52\n  jumpi\n    /* \"#utility.yul\":4141:4142   */\n  0x00\n    /* \"#utility.yul\":4158:4164   */\n  dup5\n    /* \"#utility.yul\":4155:4244   */\n  iszero\n  tag_53\n  jumpi\n  pop\n    /* \"#utility.yul\":4210:4229   */\n  dup6\n  dup4\n  add\n    /* \"#utility.yul\":4204:4230   */\n  mload\n    /* \"#utility.yul\":4155:4244   */\ntag_53:\n  not(0x00)\n    /* \"#utility.yul\":2959:2960   */\n  0x03\n    /* \"#utility.yul\":2955:2966   */\n  dup7\n  swap1\n  shl\n    /* \"#utility.yul\":2951:2975   */\n  shr\n    /* \"#utility.yul\":2947:2976   */\n  not\n    /* \"#utility.yul\":2937:2977   */\n  and\n    /* \"#utility.yul\":2983:2984   */\n  0x01\n    /* \"#utility.yul\":2979:2990   */\n  dup6\n  swap1\n  shl\n    /* \"#utility.yul\":2934:2991   */\n  or\n    /* \"#utility.yul\":4257:4338   */\n  dup6\n  sstore\n    /* \"#utility.yul\":3404:4348   */\n  jump(tag_44)\n    /* \"#utility.yul\":3434:4097   */\ntag_52:\n    /* \"#utility.yul\":2228:2229   */\n  0x00\n    /* \"#utility.yul\":2221:2235   */\n  dup6\n  dup2\n  mstore\n    /* \"#utility.yul\":2265:2269   */\n  0x20\n    /* \"#utility.yul\":2252:2270   */\n  dup2\n  keccak256\n  not(0x1f)\n    /* \"#utility.yul\":3470:3490   */\n  dup7\n  and\n  swap2\n    /* \"#utility.yul\":3588:3824   */\ntag_56:\n    /* \"#utility.yul\":3602:3609   */\n  dup3\n    /* \"#utility.yul\":3599:3600   */\n  dup2\n    /* \"#utility.yul\":3596:3610   */\n  lt\n    /* \"#utility.yul\":3588:3824   */\n  iszero\n  tag_58\n  jumpi\n    /* \"#utility.yul\":3691:3710   */\n  dup9\n  dup7\n  add\n    /* \"#utility.yul\":3685:3711   */\n  mload\n    /* \"#utility.yul\":3670:3712   */\n  dup3\n  sstore\n    /* \"#utility.yul\":3783:3810   */\n  swap5\n  dup5\n  add\n  swap5\n    /* \"#utility.yul\":3751:3752   */\n  0x01\n    /* \"#utility.yul\":3739:3753   */\n  swap1\n  swap2\n  add\n  swap1\n    /* \"#utility.yul\":3618:3637   */\n  dup5\n  add\n    /* \"#utility.yul\":3588:3824   */\n  jump(tag_56)\ntag_58:\n    /* \"#utility.yul\":3592:3595   */\n  pop\n    /* \"#utility.yul\":3852:3858   */\n  dup6\n    /* \"#utility.yul\":3843:3850   */\n  dup3\n    /* \"#utility.yul\":3840:3859   */\n  lt\n    /* \"#utility.yul\":3837:4038   */\n  iszero\n  tag_59\n  jumpi\n    /* \"#utility.yul\":3913:3932   */\n  dup8\n  dup6\n  add\n    /* \"#utility.yul\":3907:3933   */\n  mload\n  not(0x00)\n    /* \"#utility.yul\":3996:3997   */\n  0x03\n    /* \"#utility.yul\":3992:4006   */\n  dup9\n  swap1\n  shl\n    /* \"#utility.yul\":4008:4011   */\n  0xf8\n    /* \"#utility.yul\":3988:4012   */\n  and\n    /* \"#utility.yul\":3984:4021   */\n  shr\n    /* \"#utility.yul\":3980:4022   */\n  not\n    /* \"#utility.yul\":3965:4023   */\n  and\n    /* \"#utility.yul\":3950:4024   */\n  dup2\n  sstore\n    /* \"#utility.yul\":3837:4038   */\ntag_59:\n  pop\n  pop\n  pop\n  pop\n  pop\n    /* \"#utility.yul\":4084:4085   */\n  0x01\n    /* \"#utility.yul\":4068:4082   */\n  swap1\n  dup2\n  shl\n    /* \"#utility.yul\":4064:4086   */\n  add\n    /* \"#utility.yul\":4051:4087   */\n  swap1\n  sstore\n  pop\n    /* \"#utility.yul\":3002:4354   */\n  jump\t// out\ntag_16:\n    /* \"Contracts/USDT.sol\":2007:4905  contract USDT is Token {... */\n  dataSize(sub_0)\n  dup1\n  dataOffset(sub_0)\n  0x00\n  codecopy\n  0x00\n  return\nstop\n\nsub_0: assembly {\n        /* \"Contracts/USDT.sol\":2007:4905  contract USDT is Token {... */\n      mstore(0x40, 0x80)\n      callvalue\n      dup1\n      iszero\n      tag_1\n      jumpi\n      0x00\n      dup1\n      revert\n    tag_1:\n      pop\n      jumpi(tag_2, lt(calldatasize, 0x04))\n      shr(0xe0, calldataload(0x00))\n      dup1\n      0x313ce567\n      gt\n      tag_14\n      jumpi\n      dup1\n      0x313ce567\n      eq\n      tag_8\n      jumpi\n      dup1\n      0x5c658165\n      eq\n      tag_9\n      jumpi\n      dup1\n      0x70a08231\n      eq\n      tag_10\n      jumpi\n      dup1\n      0x95d89b41\n      eq\n      tag_11\n      jumpi\n      dup1\n      0xa9059cbb\n      eq\n      tag_12\n      jumpi\n      dup1\n      0xdd62ed3e\n      eq\n      tag_13\n      jumpi\n      0x00\n      dup1\n      revert\n    tag_14:\n      dup1\n      0x06fdde03\n      eq\n      tag_3\n      jumpi\n      dup1\n      0x095ea7b3\n      eq\n      tag_4\n      jumpi\n      dup1\n      0x18160ddd\n      eq\n      tag_5\n      jumpi\n      dup1\n      0x23b872dd\n      eq\n      tag_6\n      jumpi\n      dup1\n      0x27e235e3\n      eq\n      tag_7\n      jumpi\n    tag_2:\n      0x00\n      dup1\n      revert\n        /* \"Contracts/USDT.sol\":2529:2547  string public name */\n    tag_3:\n      tag_15\n      tag_16\n      jump\t// in\n    tag_15:\n      mload(0x40)\n      tag_17\n      swap2\n      swap1\n      tag_18\n      jump\t// in\n    tag_17:\n      mload(0x40)\n      dup1\n      swap2\n      sub\n      swap1\n      return\n        /* \"Contracts/USDT.sol\":4437:4724  function approve(... */\n    tag_4:\n      tag_19\n      tag_20\n      calldatasize\n      0x04\n      tag_21\n      jump\t// in\n    tag_20:\n      tag_22\n      jump\t// in\n    tag_19:\n      mload(0x40)\n        /* \"#utility.yul\":1169:1183   */\n      swap1\n      iszero\n        /* \"#utility.yul\":1162:1184   */\n      iszero\n        /* \"#utility.yul\":1144:1185   */\n      dup2\n      mstore\n        /* \"#utility.yul\":1132:1134   */\n      0x20\n        /* \"#utility.yul\":1117:1135   */\n      add\n        /* \"Contracts/USDT.sol\":4437:4724  function approve(... */\n      tag_17\n        /* \"#utility.yul\":1004:1191   */\n      jump\n        /* \"Contracts/USDT.sol\":2210:2236  uint256 public totalSupply */\n    tag_5:\n      tag_25\n      sload(0x02)\n      dup2\n      jump\n    tag_25:\n      mload(0x40)\n        /* \"#utility.yul\":1342:1367   */\n      swap1\n      dup2\n      mstore\n        /* \"#utility.yul\":1330:1332   */\n      0x20\n        /* \"#utility.yul\":1315:1333   */\n      add\n        /* \"Contracts/USDT.sol\":2210:2236  uint256 public totalSupply */\n      tag_17\n        /* \"#utility.yul\":1196:1373   */\n      jump\n        /* \"Contracts/USDT.sol\":3652:4289  function transferFrom(... */\n    tag_6:\n      tag_19\n      tag_30\n      calldatasize\n      0x04\n      tag_31\n      jump\t// in\n    tag_30:\n      tag_32\n      jump\t// in\n        /* \"Contracts/USDT.sol\":2093:2136  mapping(address => uint256) public balances */\n    tag_7:\n      tag_25\n      tag_35\n      calldatasize\n      0x04\n      tag_36\n      jump\t// in\n    tag_35:\n      0x00\n      0x20\n      dup2\n      swap1\n      mstore\n      swap1\n      dup2\n      mstore\n      0x40\n      swap1\n      keccak256\n      sload\n      dup2\n      jump\n        /* \"Contracts/USDT.sol\":2582:2603  uint8 public decimals */\n    tag_8:\n      sload(0x04)\n      tag_39\n      swap1\n      0xff\n      and\n      dup2\n      jump\n    tag_39:\n      mload(0x40)\n        /* \"#utility.yul\":2074:2078   */\n      0xff\n        /* \"#utility.yul\":2062:2079   */\n      swap1\n      swap2\n      and\n        /* \"#utility.yul\":2044:2080   */\n      dup2\n      mstore\n        /* \"#utility.yul\":2032:2034   */\n      0x20\n        /* \"#utility.yul\":2017:2035   */\n      add\n        /* \"Contracts/USDT.sol\":2582:2603  uint8 public decimals */\n      tag_17\n        /* \"#utility.yul\":1902:2086   */\n      jump\n        /* \"Contracts/USDT.sol\":2142:2204  mapping(address => mapping(address => uint256)) public allowed */\n    tag_9:\n      tag_25\n      tag_44\n      calldatasize\n      0x04\n      tag_45\n      jump\t// in\n    tag_44:\n      0x01\n      0x20\n      swap1\n      dup2\n      mstore\n      0x00\n      swap3\n      dup4\n      mstore\n      0x40\n      dup1\n      dup5\n      keccak256\n      swap1\n      swap2\n      mstore\n      swap1\n      dup3\n      mstore\n      swap1\n      keccak256\n      sload\n      dup2\n      jump\n        /* \"Contracts/USDT.sol\":4295:4431  function balanceOf(... */\n    tag_10:\n      tag_25\n      tag_49\n      calldatasize\n      0x04\n      tag_36\n      jump\t// in\n    tag_49:\n      sub(shl(0xa0, 0x01), 0x01)\n        /* \"Contracts/USDT.sol\":4408:4424  balances[_owner] */\n      and\n        /* \"Contracts/USDT.sol\":4374:4389  uint256 balance */\n      0x00\n        /* \"Contracts/USDT.sol\":4408:4424  balances[_owner] */\n      swap1\n      dup2\n      mstore\n      0x20\n      dup2\n      swap1\n      mstore\n      0x40\n      swap1\n      keccak256\n      sload\n      swap1\n        /* \"Contracts/USDT.sol\":4295:4431  function balanceOf(... */\n      jump\n        /* \"Contracts/USDT.sol\":2638:2658  string public symbol */\n    tag_11:\n      tag_15\n      tag_53\n      jump\t// in\n        /* \"Contracts/USDT.sol\":3209:3646  function transfer(... */\n    tag_12:\n      tag_19\n      tag_56\n      calldatasize\n      0x04\n      tag_21\n      jump\t// in\n    tag_56:\n      tag_57\n      jump\t// in\n        /* \"Contracts/USDT.sol\":4730:4903  function allowance(... */\n    tag_13:\n      tag_25\n      tag_60\n      calldatasize\n      0x04\n      tag_45\n      jump\t// in\n    tag_60:\n      sub(shl(0xa0, 0x01), 0x01)\n        /* \"Contracts/USDT.sol\":4871:4886  allowed[_owner] */\n      swap2\n      dup3\n      and\n        /* \"Contracts/USDT.sol\":4835:4852  uint256 remaining */\n      0x00\n        /* \"Contracts/USDT.sol\":4871:4886  allowed[_owner] */\n      swap1\n      dup2\n      mstore\n        /* \"Contracts/USDT.sol\":4871:4878  allowed */\n      0x01\n        /* \"Contracts/USDT.sol\":4871:4886  allowed[_owner] */\n      0x20\n      swap1\n      dup2\n      mstore\n      0x40\n      dup1\n      dup4\n      keccak256\n        /* \"Contracts/USDT.sol\":4871:4896  allowed[_owner][_spender] */\n      swap4\n      swap1\n      swap5\n      and\n      dup3\n      mstore\n      swap2\n      swap1\n      swap2\n      mstore\n      keccak256\n      sload\n      swap1\n        /* \"Contracts/USDT.sol\":4730:4903  function allowance(... */\n      jump\n        /* \"Contracts/USDT.sol\":2529:2547  string public name */\n    tag_16:\n      0x03\n      dup1\n      sload\n      tag_63\n      swap1\n      tag_64\n      jump\t// in\n    tag_63:\n      dup1\n      0x1f\n      add\n      0x20\n      dup1\n      swap2\n      div\n      mul\n      0x20\n      add\n      mload(0x40)\n      swap1\n      dup2\n      add\n      0x40\n      mstore\n      dup1\n      swap3\n      swap2\n      swap1\n      dup2\n      dup2\n      mstore\n      0x20\n      add\n      dup3\n      dup1\n      sload\n      tag_65\n      swap1\n      tag_64\n      jump\t// in\n    tag_65:\n      dup1\n      iszero\n      tag_66\n      jumpi\n      dup1\n      0x1f\n      lt\n      tag_67\n      jumpi\n      0x0100\n      dup1\n      dup4\n      sload\n      div\n      mul\n      dup4\n      mstore\n      swap2\n      0x20\n      add\n      swap2\n      jump(tag_66)\n    tag_67:\n      dup3\n      add\n      swap2\n      swap1\n      0x00\n      mstore\n      keccak256(0x00, 0x20)\n      swap1\n    tag_68:\n      dup2\n      sload\n      dup2\n      mstore\n      swap1\n      0x01\n      add\n      swap1\n      0x20\n      add\n      dup1\n      dup4\n      gt\n      tag_68\n      jumpi\n      dup3\n      swap1\n      sub\n      0x1f\n      and\n      dup3\n      add\n      swap2\n    tag_66:\n      pop\n      pop\n      pop\n      pop\n      pop\n      dup2\n      jump\t// out\n        /* \"Contracts/USDT.sol\":4437:4724  function approve(... */\n    tag_22:\n        /* \"Contracts/USDT.sol\":4567:4577  msg.sender */\n      caller\n        /* \"Contracts/USDT.sol\":4535:4547  bool success */\n      0x00\n        /* \"Contracts/USDT.sol\":4559:4578  allowed[msg.sender] */\n      dup2\n      dup2\n      mstore\n        /* \"Contracts/USDT.sol\":4559:4566  allowed */\n      0x01\n        /* \"Contracts/USDT.sol\":4559:4578  allowed[msg.sender] */\n      0x20\n      swap1\n      dup2\n      mstore\n      0x40\n      dup1\n      dup4\n      keccak256\n      sub(shl(0xa0, 0x01), 0x01)\n        /* \"Contracts/USDT.sol\":4559:4588  allowed[msg.sender][_spender] */\n      dup8\n      and\n      dup1\n      dup6\n      mstore\n      swap3\n      mstore\n      dup1\n      dup4\n      keccak256\n        /* \"Contracts/USDT.sol\":4559:4597  allowed[msg.sender][_spender] = _value */\n      dup6\n      swap1\n      sstore\n        /* \"Contracts/USDT.sol\":4612:4650  Approval(msg.sender, _spender, _value) */\n      mload\n        /* \"Contracts/USDT.sol\":4535:4547  bool success */\n      swap2\n      swap3\n        /* \"Contracts/USDT.sol\":4559:4588  allowed[msg.sender][_spender] */\n      swap1\n      swap2\n        /* \"Contracts/USDT.sol\":4612:4650  Approval(msg.sender, _spender, _value) */\n      0x8c5be1e5ebec7d5bd14f71427d1e84f3dd0314c0f7b2291e5b200ac8c7c3b925\n      swap1\n      tag_70\n      swap1\n        /* \"Contracts/USDT.sol\":4591:4597  _value */\n      dup7\n        /* \"#utility.yul\":1342:1367   */\n      dup2\n      mstore\n        /* \"#utility.yul\":1330:1332   */\n      0x20\n        /* \"#utility.yul\":1315:1333   */\n      add\n      swap1\n        /* \"#utility.yul\":1196:1373   */\n      jump\n        /* \"Contracts/USDT.sol\":4612:4650  Approval(msg.sender, _spender, _value) */\n    tag_70:\n      mload(0x40)\n      dup1\n      swap2\n      sub\n      swap1\n      log3\n      pop\n        /* \"Contracts/USDT.sol\":4713:4717  true */\n      0x01\n        /* \"Contracts/USDT.sol\":4437:4724  function approve(... */\n    tag_69:\n      swap3\n      swap2\n      pop\n      pop\n      jump\t// out\n        /* \"Contracts/USDT.sol\":3652:4289  function transferFrom(... */\n    tag_32:\n      sub(shl(0xa0, 0x01), 0x01)\n        /* \"Contracts/USDT.sol\":3817:3831  allowed[_from] */\n      dup4\n      and\n        /* \"Contracts/USDT.sol\":3773:3785  bool success */\n      0x00\n        /* \"Contracts/USDT.sol\":3817:3831  allowed[_from] */\n      dup2\n      dup2\n      mstore\n        /* \"Contracts/USDT.sol\":3817:3824  allowed */\n      0x01\n        /* \"Contracts/USDT.sol\":3817:3831  allowed[_from] */\n      0x20\n      swap1\n      dup2\n      mstore\n      0x40\n      dup1\n      dup4\n      keccak256\n        /* \"Contracts/USDT.sol\":3832:3842  msg.sender */\n      caller\n        /* \"Contracts/USDT.sol\":3817:3843  allowed[_from][msg.sender] */\n      dup5\n      mstore\n      dup3\n      mstore\n      dup1\n      dup4\n      keccak256\n      sload\n        /* \"Contracts/USDT.sol\":3874:3889  balances[_from] */\n      swap4\n      dup4\n      mstore\n      swap1\n      dup3\n      swap1\n      mstore\n      dup2\n      keccak256\n      sload\n        /* \"Contracts/USDT.sol\":3773:3785  bool success */\n      swap1\n      swap2\n        /* \"Contracts/USDT.sol\":3817:3843  allowed[_from][msg.sender] */\n      swap1\n        /* \"Contracts/USDT.sol\":3874:3899  balances[_from] >= _value */\n      dup4\n      gt\n      dup1\n      iszero\n      swap1\n        /* \"Contracts/USDT.sol\":3874:3922  balances[_from] >= _value && allowance >= _value */\n      tag_72\n      jumpi\n      pop\n        /* \"Contracts/USDT.sol\":3916:3922  _value */\n      dup3\n        /* \"Contracts/USDT.sol\":3903:3912  allowance */\n      dup2\n        /* \"Contracts/USDT.sol\":3903:3922  allowance >= _value */\n      lt\n      iszero\n        /* \"Contracts/USDT.sol\":3874:3922  balances[_from] >= _value && allowance >= _value */\n    tag_72:\n        /* \"Contracts/USDT.sol\":3853:4005  require(... */\n      tag_73\n      jumpi\n      mload(0x40)\n      shl(0xe5, 0x461bcd)\n      dup2\n      mstore\n        /* \"#utility.yul\":2943:2945   */\n      0x20\n        /* \"Contracts/USDT.sol\":3853:4005  require(... */\n      0x04\n      dup3\n      add\n        /* \"#utility.yul\":2925:2946   */\n      mstore\n        /* \"#utility.yul\":2982:2984   */\n      0x39\n        /* \"#utility.yul\":2962:2980   */\n      0x24\n      dup3\n      add\n        /* \"#utility.yul\":2955:2985   */\n      mstore\n        /* \"#utility.yul\":3021:3055   */\n      0x746f6b656e2062616c616e6365206f7220616c6c6f77616e6365206973206c6f\n        /* \"#utility.yul\":3001:3019   */\n      0x44\n      dup3\n      add\n        /* \"#utility.yul\":2994:3056   */\n      mstore\n        /* \"#utility.yul\":3092:3119   */\n      0x776572207468616e20616d6f756e742072657175657374656400000000000000\n        /* \"#utility.yul\":3072:3090   */\n      0x64\n      dup3\n      add\n        /* \"#utility.yul\":3065:3120   */\n      mstore\n        /* \"#utility.yul\":3137:3156   */\n      0x84\n      add\n        /* \"Contracts/USDT.sol\":3853:4005  require(... */\n    tag_74:\n      mload(0x40)\n      dup1\n      swap2\n      sub\n      swap1\n      revert\n    tag_73:\n      sub(shl(0xa0, 0x01), 0x01)\n        /* \"Contracts/USDT.sol\":4015:4028  balances[_to] */\n      dup5\n      and\n        /* \"Contracts/USDT.sol\":4015:4023  balances */\n      0x00\n        /* \"Contracts/USDT.sol\":4015:4028  balances[_to] */\n      swap1\n      dup2\n      mstore\n      0x20\n      dup2\n      swap1\n      mstore\n      0x40\n      dup2\n      keccak256\n        /* \"Contracts/USDT.sol\":4015:4038  balances[_to] += _value */\n      dup1\n      sload\n        /* \"Contracts/USDT.sol\":4032:4038  _value */\n      dup6\n      swap3\n        /* \"Contracts/USDT.sol\":4015:4023  balances */\n      swap1\n        /* \"Contracts/USDT.sol\":4015:4038  balances[_to] += _value */\n      tag_76\n      swap1\n        /* \"Contracts/USDT.sol\":4032:4038  _value */\n      dup5\n      swap1\n        /* \"Contracts/USDT.sol\":4015:4038  balances[_to] += _value */\n      tag_77\n      jump\t// in\n    tag_76:\n      swap1\n      swap2\n      sstore\n      pop\n      pop\n      sub(shl(0xa0, 0x01), 0x01)\n        /* \"Contracts/USDT.sol\":4048:4063  balances[_from] */\n      dup6\n      and\n        /* \"Contracts/USDT.sol\":4048:4056  balances */\n      0x00\n        /* \"Contracts/USDT.sol\":4048:4063  balances[_from] */\n      swap1\n      dup2\n      mstore\n      0x20\n      dup2\n      swap1\n      mstore\n      0x40\n      dup2\n      keccak256\n        /* \"Contracts/USDT.sol\":4048:4073  balances[_from] -= _value */\n      dup1\n      sload\n        /* \"Contracts/USDT.sol\":4067:4073  _value */\n      dup6\n      swap3\n        /* \"Contracts/USDT.sol\":4048:4056  balances */\n      swap1\n        /* \"Contracts/USDT.sol\":4048:4073  balances[_from] -= _value */\n      tag_78\n      swap1\n        /* \"Contracts/USDT.sol\":4067:4073  _value */\n      dup5\n      swap1\n        /* \"Contracts/USDT.sol\":4048:4073  balances[_from] -= _value */\n      tag_79\n      jump\t// in\n    tag_78:\n      swap1\n      swap2\n      sstore\n      pop\n      pop\n      not(0x00)\n        /* \"Contracts/USDT.sol\":4087:4110  allowance < MAX_UINT256 */\n      dup2\n      lt\n        /* \"Contracts/USDT.sol\":4083:4173  if (allowance < MAX_UINT256) {... */\n      iszero\n      tag_80\n      jumpi\n      sub(shl(0xa0, 0x01), 0x01)\n        /* \"Contracts/USDT.sol\":4126:4140  allowed[_from] */\n      dup6\n      and\n      0x00\n      swap1\n      dup2\n      mstore\n        /* \"Contracts/USDT.sol\":4126:4133  allowed */\n      0x01\n        /* \"Contracts/USDT.sol\":4126:4140  allowed[_from] */\n      0x20\n      swap1\n      dup2\n      mstore\n      0x40\n      dup1\n      dup4\n      keccak256\n        /* \"Contracts/USDT.sol\":4141:4151  msg.sender */\n      caller\n        /* \"Contracts/USDT.sol\":4126:4152  allowed[_from][msg.sender] */\n      dup5\n      mstore\n      swap1\n      swap2\n      mstore\n      dup2\n      keccak256\n        /* \"Contracts/USDT.sol\":4126:4162  allowed[_from][msg.sender] -= _value */\n      dup1\n      sload\n        /* \"Contracts/USDT.sol\":4156:4162  _value */\n      dup6\n      swap3\n        /* \"Contracts/USDT.sol\":4126:4140  allowed[_from] */\n      swap1\n        /* \"Contracts/USDT.sol\":4126:4162  allowed[_from][msg.sender] -= _value */\n      tag_81\n      swap1\n        /* \"Contracts/USDT.sol\":4156:4162  _value */\n      dup5\n      swap1\n        /* \"Contracts/USDT.sol\":4126:4162  allowed[_from][msg.sender] -= _value */\n      tag_79\n      jump\t// in\n    tag_81:\n      swap1\n      swap2\n      sstore\n      pop\n      pop\n        /* \"Contracts/USDT.sol\":4083:4173  if (allowance < MAX_UINT256) {... */\n    tag_80:\n        /* \"Contracts/USDT.sol\":4203:4206  _to */\n      dup4\n      sub(shl(0xa0, 0x01), 0x01)\n        /* \"Contracts/USDT.sol\":4187:4215  Transfer(_from, _to, _value) */\n      and\n        /* \"Contracts/USDT.sol\":4196:4201  _from */\n      dup6\n      sub(shl(0xa0, 0x01), 0x01)\n        /* \"Contracts/USDT.sol\":4187:4215  Transfer(_from, _to, _value) */\n      and\n      0xddf252ad1be2c89b69c2b068fc378daa952ba7f163c4a11628f55a4df523b3ef\n        /* \"Contracts/USDT.sol\":4208:4214  _value */\n      dup6\n        /* \"Contracts/USDT.sol\":4187:4215  Transfer(_from, _to, _value) */\n      mload(0x40)\n      tag_82\n      swap2\n        /* \"#utility.yul\":1342:1367   */\n      dup2\n      mstore\n        /* \"#utility.yul\":1330:1332   */\n      0x20\n        /* \"#utility.yul\":1315:1333   */\n      add\n      swap1\n        /* \"#utility.yul\":1196:1373   */\n      jump\n        /* \"Contracts/USDT.sol\":4187:4215  Transfer(_from, _to, _value) */\n    tag_82:\n      mload(0x40)\n      dup1\n      swap2\n      sub\n      swap1\n      log3\n      pop\n        /* \"Contracts/USDT.sol\":4278:4282  true */\n      0x01\n      swap5\n        /* \"Contracts/USDT.sol\":3652:4289  function transferFrom(... */\n      swap4\n      pop\n      pop\n      pop\n      pop\n      jump\t// out\n        /* \"Contracts/USDT.sol\":2638:2658  string public symbol */\n    tag_53:\n      0x05\n      dup1\n      sload\n      tag_63\n      swap1\n      tag_64\n      jump\t// in\n        /* \"Contracts/USDT.sol\":3209:3646  function transfer(... */\n    tag_57:\n        /* \"Contracts/USDT.sol\":3357:3367  msg.sender */\n      caller\n        /* \"Contracts/USDT.sol\":3303:3315  bool success */\n      0x00\n        /* \"Contracts/USDT.sol\":3348:3368  balances[msg.sender] */\n      swap1\n      dup2\n      mstore\n      0x20\n      dup2\n      swap1\n      mstore\n      0x40\n      dup2\n      keccak256\n      sload\n        /* \"Contracts/USDT.sol\":3348:3378  balances[msg.sender] >= _value */\n      dup3\n      gt\n      iszero\n        /* \"Contracts/USDT.sol\":3327:3451  require(... */\n      tag_90\n      jumpi\n      mload(0x40)\n      shl(0xe5, 0x461bcd)\n      dup2\n      mstore\n        /* \"#utility.yul\":3764:3766   */\n      0x20\n        /* \"Contracts/USDT.sol\":3327:3451  require(... */\n      0x04\n      dup3\n      add\n        /* \"#utility.yul\":3746:3767   */\n      mstore\n        /* \"#utility.yul\":3803:3805   */\n      0x2f\n        /* \"#utility.yul\":3783:3801   */\n      0x24\n      dup3\n      add\n        /* \"#utility.yul\":3776:3806   */\n      mstore\n        /* \"#utility.yul\":3842:3876   */\n      0x746f6b656e2062616c616e6365206973206c6f776572207468616e2074686520\n        /* \"#utility.yul\":3822:3840   */\n      0x44\n      dup3\n      add\n        /* \"#utility.yul\":3815:3877   */\n      mstore\n      shl(0x8a, 0x1d985b1d59481c995c5d595cdd1959)\n        /* \"#utility.yul\":3893:3911   */\n      0x64\n      dup3\n      add\n        /* \"#utility.yul\":3886:3931   */\n      mstore\n        /* \"#utility.yul\":3948:3967   */\n      0x84\n      add\n        /* \"Contracts/USDT.sol\":3327:3451  require(... */\n      tag_74\n        /* \"#utility.yul\":3562:3973   */\n      jump\n        /* \"Contracts/USDT.sol\":3327:3451  require(... */\n    tag_90:\n        /* \"Contracts/USDT.sol\":3470:3480  msg.sender */\n      caller\n        /* \"Contracts/USDT.sol\":3461:3469  balances */\n      0x00\n        /* \"Contracts/USDT.sol\":3461:3481  balances[msg.sender] */\n      swap1\n      dup2\n      mstore\n      0x20\n      dup2\n      swap1\n      mstore\n      0x40\n      dup2\n      keccak256\n        /* \"Contracts/USDT.sol\":3461:3491  balances[msg.sender] -= _value */\n      dup1\n      sload\n        /* \"Contracts/USDT.sol\":3485:3491  _value */\n      dup5\n      swap3\n        /* \"Contracts/USDT.sol\":3461:3469  balances */\n      swap1\n        /* \"Contracts/USDT.sol\":3461:3491  balances[msg.sender] -= _value */\n      tag_93\n      swap1\n        /* \"Contracts/USDT.sol\":3485:3491  _value */\n      dup5\n      swap1\n        /* \"Contracts/USDT.sol\":3461:3491  balances[msg.sender] -= _value */\n      tag_79\n      jump\t// in\n    tag_93:\n      swap1\n      swap2\n      sstore\n      pop\n      pop\n      sub(shl(0xa0, 0x01), 0x01)\n        /* \"Contracts/USDT.sol\":3501:3514  balances[_to] */\n      dup4\n      and\n        /* \"Contracts/USDT.sol\":3501:3509  balances */\n      0x00\n        /* \"Contracts/USDT.sol\":3501:3514  balances[_to] */\n      swap1\n      dup2\n      mstore\n      0x20\n      dup2\n      swap1\n      mstore\n      0x40\n      dup2\n      keccak256\n        /* \"Contracts/USDT.sol\":3501:3524  balances[_to] += _value */\n      dup1\n      sload\n        /* \"Contracts/USDT.sol\":3518:3524  _value */\n      dup5\n      swap3\n        /* \"Contracts/USDT.sol\":3501:3509  balances */\n      swap1\n        /* \"Contracts/USDT.sol\":3501:3524  balances[_to] += _value */\n      tag_94\n      swap1\n        /* \"Contracts/USDT.sol\":3518:3524  _value */\n      dup5\n      swap1\n        /* \"Contracts/USDT.sol\":3501:3524  balances[_to] += _value */\n      tag_77\n      jump\t// in\n    tag_94:\n      swap1\n      swap2\n      sstore\n      pop\n      pop\n        /* \"Contracts/USDT.sol\":3539:3572  Transfer(msg.sender, _to, _value) */\n      mload(0x40)\n        /* \"#utility.yul\":1342:1367   */\n      dup3\n      dup2\n      mstore\n      sub(shl(0xa0, 0x01), 0x01)\n        /* \"Contracts/USDT.sol\":3539:3572  Transfer(msg.sender, _to, _value) */\n      dup5\n      and\n      swap1\n        /* \"Contracts/USDT.sol\":3548:3558  msg.sender */\n      caller\n      swap1\n        /* \"Contracts/USDT.sol\":3539:3572  Transfer(msg.sender, _to, _value) */\n      0xddf252ad1be2c89b69c2b068fc378daa952ba7f163c4a11628f55a4df523b3ef\n      swap1\n        /* \"#utility.yul\":1330:1332   */\n      0x20\n        /* \"#utility.yul\":1315:1333   */\n      add\n        /* \"Contracts/USDT.sol\":3539:3572  Transfer(msg.sender, _to, _value) */\n      tag_70\n        /* \"#utility.yul\":1196:1373   */\n      jump\n        /* \"#utility.yul\":14:562   */\n    tag_18:\n        /* \"#utility.yul\":126:130   */\n      0x00\n        /* \"#utility.yul\":155:157   */\n      0x20\n        /* \"#utility.yul\":184:186   */\n      dup1\n        /* \"#utility.yul\":173:182   */\n      dup4\n        /* \"#utility.yul\":166:187   */\n      mstore\n        /* \"#utility.yul\":216:222   */\n      dup4\n        /* \"#utility.yul\":210:223   */\n      mload\n        /* \"#utility.yul\":259:265   */\n      dup1\n        /* \"#utility.yul\":254:256   */\n      dup3\n        /* \"#utility.yul\":243:252   */\n      dup6\n        /* \"#utility.yul\":239:257   */\n      add\n        /* \"#utility.yul\":232:266   */\n      mstore\n        /* \"#utility.yul\":284:285   */\n      0x00\n        /* \"#utility.yul\":294:434   */\n    tag_101:\n        /* \"#utility.yul\":308:314   */\n      dup2\n        /* \"#utility.yul\":305:306   */\n      dup2\n        /* \"#utility.yul\":302:315   */\n      lt\n        /* \"#utility.yul\":294:434   */\n      iszero\n      tag_103\n      jumpi\n        /* \"#utility.yul\":403:417   */\n      dup6\n      dup2\n      add\n        /* \"#utility.yul\":399:422   */\n      dup4\n      add\n        /* \"#utility.yul\":393:423   */\n      mload\n        /* \"#utility.yul\":369:386   */\n      dup6\n      dup3\n      add\n        /* \"#utility.yul\":388:390   */\n      0x40\n        /* \"#utility.yul\":365:391   */\n      add\n        /* \"#utility.yul\":358:424   */\n      mstore\n        /* \"#utility.yul\":323:333   */\n      dup3\n      add\n        /* \"#utility.yul\":294:434   */\n      jump(tag_101)\n    tag_103:\n        /* \"#utility.yul\":298:301   */\n      pop\n        /* \"#utility.yul\":483:484   */\n      0x00\n        /* \"#utility.yul\":478:480   */\n      0x40\n        /* \"#utility.yul\":469:475   */\n      dup3\n        /* \"#utility.yul\":458:467   */\n      dup7\n        /* \"#utility.yul\":454:476   */\n      add\n        /* \"#utility.yul\":450:481   */\n      add\n        /* \"#utility.yul\":443:485   */\n      mstore\n        /* \"#utility.yul\":553:555   */\n      0x40\n        /* \"#utility.yul\":546:548   */\n      0x1f\n        /* \"#utility.yul\":542:549   */\n      not\n        /* \"#utility.yul\":537:539   */\n      0x1f\n        /* \"#utility.yul\":529:535   */\n      dup4\n        /* \"#utility.yul\":525:540   */\n      add\n        /* \"#utility.yul\":521:550   */\n      and\n        /* \"#utility.yul\":510:519   */\n      dup6\n        /* \"#utility.yul\":506:551   */\n      add\n        /* \"#utility.yul\":502:556   */\n      add\n        /* \"#utility.yul\":494:556   */\n      swap3\n      pop\n      pop\n      pop\n        /* \"#utility.yul\":14:562   */\n      swap3\n      swap2\n      pop\n      pop\n      jump\t// out\n        /* \"#utility.yul\":567:740   */\n    tag_97:\n        /* \"#utility.yul\":635:655   */\n      dup1\n      calldataload\n      sub(shl(0xa0, 0x01), 0x01)\n        /* \"#utility.yul\":684:715   */\n      dup2\n      and\n        /* \"#utility.yul\":674:716   */\n      dup2\n      eq\n        /* \"#utility.yul\":664:734   */\n      tag_105\n      jumpi\n        /* \"#utility.yul\":730:731   */\n      0x00\n        /* \"#utility.yul\":727:728   */\n      dup1\n        /* \"#utility.yul\":720:732   */\n      revert\n        /* \"#utility.yul\":664:734   */\n    tag_105:\n        /* \"#utility.yul\":567:740   */\n      swap2\n      swap1\n      pop\n      jump\t// out\n        /* \"#utility.yul\":745:999   */\n    tag_21:\n        /* \"#utility.yul\":813:819   */\n      0x00\n        /* \"#utility.yul\":821:827   */\n      dup1\n        /* \"#utility.yul\":874:876   */\n      0x40\n        /* \"#utility.yul\":862:871   */\n      dup4\n        /* \"#utility.yul\":853:860   */\n      dup6\n        /* \"#utility.yul\":849:872   */\n      sub\n        /* \"#utility.yul\":845:877   */\n      slt\n        /* \"#utility.yul\":842:894   */\n      iszero\n      tag_107\n      jumpi\n        /* \"#utility.yul\":890:891   */\n      0x00\n        /* \"#utility.yul\":887:888   */\n      dup1\n        /* \"#utility.yul\":880:892   */\n      revert\n        /* \"#utility.yul\":842:894   */\n    tag_107:\n        /* \"#utility.yul\":913:942   */\n      tag_108\n        /* \"#utility.yul\":932:941   */\n      dup4\n        /* \"#utility.yul\":913:942   */\n      tag_97\n      jump\t// in\n    tag_108:\n        /* \"#utility.yul\":903:942   */\n      swap5\n        /* \"#utility.yul\":989:991   */\n      0x20\n        /* \"#utility.yul\":974:992   */\n      swap4\n      swap1\n      swap4\n      add\n        /* \"#utility.yul\":961:993   */\n      calldataload\n      swap4\n      pop\n      pop\n      pop\n        /* \"#utility.yul\":745:999   */\n      jump\t// out\n        /* \"#utility.yul\":1378:1706   */\n    tag_31:\n        /* \"#utility.yul\":1455:1461   */\n      0x00\n        /* \"#utility.yul\":1463:1469   */\n      dup1\n        /* \"#utility.yul\":1471:1477   */\n      0x00\n        /* \"#utility.yul\":1524:1526   */\n      0x60\n        /* \"#utility.yul\":1512:1521   */\n      dup5\n        /* \"#utility.yul\":1503:1510   */\n      dup7\n        /* \"#utility.yul\":1499:1522   */\n      sub\n        /* \"#utility.yul\":1495:1527   */\n      slt\n        /* \"#utility.yul\":1492:1544   */\n      iszero\n      tag_112\n      jumpi\n        /* \"#utility.yul\":1540:1541   */\n      0x00\n        /* \"#utility.yul\":1537:1538   */\n      dup1\n        /* \"#utility.yul\":1530:1542   */\n      revert\n        /* \"#utility.yul\":1492:1544   */\n    tag_112:\n        /* \"#utility.yul\":1563:1592   */\n      tag_113\n        /* \"#utility.yul\":1582:1591   */\n      dup5\n        /* \"#utility.yul\":1563:1592   */\n      tag_97\n      jump\t// in\n    tag_113:\n        /* \"#utility.yul\":1553:1592   */\n      swap3\n      pop\n        /* \"#utility.yul\":1611:1649   */\n      tag_114\n        /* \"#utility.yul\":1645:1647   */\n      0x20\n        /* \"#utility.yul\":1634:1643   */\n      dup6\n        /* \"#utility.yul\":1630:1648   */\n      add\n        /* \"#utility.yul\":1611:1649   */\n      tag_97\n      jump\t// in\n    tag_114:\n        /* \"#utility.yul\":1601:1649   */\n      swap2\n      pop\n        /* \"#utility.yul\":1696:1698   */\n      0x40\n        /* \"#utility.yul\":1685:1694   */\n      dup5\n        /* \"#utility.yul\":1681:1699   */\n      add\n        /* \"#utility.yul\":1668:1700   */\n      calldataload\n        /* \"#utility.yul\":1658:1700   */\n      swap1\n      pop\n        /* \"#utility.yul\":1378:1706   */\n      swap3\n      pop\n      swap3\n      pop\n      swap3\n      jump\t// out\n        /* \"#utility.yul\":1711:1897   */\n    tag_36:\n        /* \"#utility.yul\":1770:1776   */\n      0x00\n        /* \"#utility.yul\":1823:1825   */\n      0x20\n        /* \"#utility.yul\":1811:1820   */\n      dup3\n        /* \"#utility.yul\":1802:1809   */\n      dup5\n        /* \"#utility.yul\":1798:1821   */\n      sub\n        /* \"#utility.yul\":1794:1826   */\n      slt\n        /* \"#utility.yul\":1791:1843   */\n      iszero\n      tag_116\n      jumpi\n        /* \"#utility.yul\":1839:1840   */\n      0x00\n        /* \"#utility.yul\":1836:1837   */\n      dup1\n        /* \"#utility.yul\":1829:1841   */\n      revert\n        /* \"#utility.yul\":1791:1843   */\n    tag_116:\n        /* \"#utility.yul\":1862:1891   */\n      tag_117\n        /* \"#utility.yul\":1881:1890   */\n      dup3\n        /* \"#utility.yul\":1862:1891   */\n      tag_97\n      jump\t// in\n    tag_117:\n        /* \"#utility.yul\":1852:1891   */\n      swap4\n        /* \"#utility.yul\":1711:1897   */\n      swap3\n      pop\n      pop\n      pop\n      jump\t// out\n        /* \"#utility.yul\":2091:2351   */\n    tag_45:\n        /* \"#utility.yul\":2159:2165   */\n      0x00\n        /* \"#utility.yul\":2167:2173   */\n      dup1\n        /* \"#utility.yul\":2220:2222   */\n      0x40\n        /* \"#utility.yul\":2208:2217   */\n      dup4\n        /* \"#utility.yul\":2199:2206   */\n      dup6\n        /* \"#utility.yul\":2195:2218   */\n      sub\n        /* \"#utility.yul\":2191:2223   */\n      slt\n        /* \"#utility.yul\":2188:2240   */\n      iszero\n      tag_120\n      jumpi\n        /* \"#utility.yul\":2236:2237   */\n      0x00\n        /* \"#utility.yul\":2233:2234   */\n      dup1\n        /* \"#utility.yul\":2226:2238   */\n      revert\n        /* \"#utility.yul\":2188:2240   */\n    tag_120:\n        /* \"#utility.yul\":2259:2288   */\n      tag_121\n        /* \"#utility.yul\":2278:2287   */\n      dup4\n        /* \"#utility.yul\":2259:2288   */\n      tag_97\n      jump\t// in\n    tag_121:\n        /* \"#utility.yul\":2249:2288   */\n      swap2\n      pop\n        /* \"#utility.yul\":2307:2345   */\n      tag_122\n        /* \"#utility.yul\":2341:2343   */\n      0x20\n        /* \"#utility.yul\":2330:2339   */\n      dup5\n        /* \"#utility.yul\":2326:2344   */\n      add\n        /* \"#utility.yul\":2307:2345   */\n      tag_97\n      jump\t// in\n    tag_122:\n        /* \"#utility.yul\":2297:2345   */\n      swap1\n      pop\n        /* \"#utility.yul\":2091:2351   */\n      swap3\n      pop\n      swap3\n      swap1\n      pop\n      jump\t// out\n        /* \"#utility.yul\":2356:2736   */\n    tag_64:\n        /* \"#utility.yul\":2435:2436   */\n      0x01\n        /* \"#utility.yul\":2431:2443   */\n      dup2\n      dup2\n      shr\n      swap1\n        /* \"#utility.yul\":2478:2490   */\n      dup3\n      and\n      dup1\n        /* \"#utility.yul\":2499:2560   */\n      tag_124\n      jumpi\n        /* \"#utility.yul\":2553:2557   */\n      0x7f\n        /* \"#utility.yul\":2545:2551   */\n      dup3\n        /* \"#utility.yul\":2541:2558   */\n      and\n        /* \"#utility.yul\":2531:2558   */\n      swap2\n      pop\n        /* \"#utility.yul\":2499:2560   */\n    tag_124:\n        /* \"#utility.yul\":2606:2608   */\n      0x20\n        /* \"#utility.yul\":2598:2604   */\n      dup3\n        /* \"#utility.yul\":2595:2609   */\n      lt\n        /* \"#utility.yul\":2575:2593   */\n      dup2\n        /* \"#utility.yul\":2572:2610   */\n      sub\n        /* \"#utility.yul\":2569:2730   */\n      tag_125\n      jumpi\n        /* \"#utility.yul\":2652:2662   */\n      0x4e487b71\n        /* \"#utility.yul\":2647:2650   */\n      0xe0\n        /* \"#utility.yul\":2643:2663   */\n      shl\n        /* \"#utility.yul\":2640:2641   */\n      0x00\n        /* \"#utility.yul\":2633:2664   */\n      mstore\n        /* \"#utility.yul\":2687:2691   */\n      0x22\n        /* \"#utility.yul\":2684:2685   */\n      0x04\n        /* \"#utility.yul\":2677:2692   */\n      mstore\n        /* \"#utility.yul\":2715:2719   */\n      0x24\n        /* \"#utility.yul\":2712:2713   */\n      0x00\n        /* \"#utility.yul\":2705:2720   */\n      revert\n        /* \"#utility.yul\":2569:2730   */\n    tag_125:\n      pop\n        /* \"#utility.yul\":2356:2736   */\n      swap2\n      swap1\n      pop\n      jump\t// out\n        /* \"#utility.yul\":3167:3294   */\n    tag_98:\n        /* \"#utility.yul\":3228:3238   */\n      0x4e487b71\n        /* \"#utility.yul\":3223:3226   */\n      0xe0\n        /* \"#utility.yul\":3219:3239   */\n      shl\n        /* \"#utility.yul\":3216:3217   */\n      0x00\n        /* \"#utility.yul\":3209:3240   */\n      mstore\n        /* \"#utility.yul\":3259:3263   */\n      0x11\n        /* \"#utility.yul\":3256:3257   */\n      0x04\n        /* \"#utility.yul\":3249:3264   */\n      mstore\n        /* \"#utility.yul\":3283:3287   */\n      0x24\n        /* \"#utility.yul\":3280:3281   */\n      0x00\n        /* \"#utility.yul\":3273:3288   */\n      revert\n        /* \"#utility.yul\":3299:3424   */\n    tag_77:\n        /* \"#utility.yul\":3364:3373   */\n      dup1\n      dup3\n      add\n        /* \"#utility.yul\":3385:3395   */\n      dup1\n      dup3\n      gt\n        /* \"#utility.yul\":3382:3418   */\n      iszero\n      tag_69\n      jumpi\n        /* \"#utility.yul\":3398:3416   */\n      tag_69\n      tag_98\n      jump\t// in\n        /* \"#utility.yul\":3429:3557   */\n    tag_79:\n        /* \"#utility.yul\":3496:3505   */\n      dup2\n      dup2\n      sub\n        /* \"#utility.yul\":3517:3528   */\n      dup2\n      dup2\n      gt\n        /* \"#utility.yul\":3514:3551   */\n      iszero\n      tag_69\n      jumpi\n        /* \"#utility.yul\":3531:3549   */\n      tag_69\n      tag_98\n      jump\t// in\n\n    auxdata: 0xa2646970667358221220a4061f9f6635fc8e9262971776cbf0297c90d5cfbec2a2d85fdf69cf9116e7f464736f6c63430008140033\n}\n",
				"bytecode": {
					"linkReferences": {},
					"object": "608060405234801562000010575f80fd5b5060405162000a8f38038062000a8f83398101604081905262000033916200013e565b335f9081526020819052604090208490556002849055600362000057848262000253565b506004805460ff191660ff8416179055600562000075828262000253565b50505050506200031b565b634e487b7160e01b5f52604160045260245ffd5b5f82601f830112620000a4575f80fd5b81516001600160401b0380821115620000c157620000c162000080565b604051601f8301601f19908116603f01168101908282118183101715620000ec57620000ec62000080565b8160405283815260209250868385880101111562000108575f80fd5b5f91505b838210156200012b57858201830151818301840152908201906200010c565b5f93810190920192909252949350505050565b5f805f806080858703121562000152575f80fd5b845160208601519094506001600160401b038082111562000171575f80fd5b6200017f8883890162000094565b94506040870151915060ff8216821462000197575f80fd5b606087015191935080821115620001ac575f80fd5b50620001bb8782880162000094565b91505092959194509250565b600181811c90821680620001dc57607f821691505b602082108103620001fb57634e487b7160e01b5f52602260045260245ffd5b50919050565b601f8211156200024e575f81815260208120601f850160051c81016020861015620002295750805b601f850160051c820191505b818110156200024a5782815560010162000235565b5050505b505050565b81516001600160401b038111156200026f576200026f62000080565b6200028781620002808454620001c7565b8462000201565b602080601f831160018114620002bd575f8415620002a55750858301515b5f19600386901b1c1916600185901b1785556200024a565b5f85815260208120601f198616915b82811015620002ed57888601518255948401946001909101908401620002cc565b50858210156200030b57878501515f19600388901b60f8161c191681555b5050505050600190811b01905550565b61076680620003295f395ff3fe608060405234801561000f575f80fd5b50600436106100a6575f3560e01c8063313ce5671161006e578063313ce567146101345780635c6581651461015357806370a082311461017d57806395d89b41146101a5578063a9059cbb146101ad578063dd62ed3e146101c0575f80fd5b806306fdde03146100aa578063095ea7b3146100c857806318160ddd146100eb57806323b872dd1461010257806327e235e314610115575b5f80fd5b6100b26101f8565b6040516100bf91906105a6565b60405180910390f35b6100db6100d636600461060c565b610284565b60405190151581526020016100bf565b6100f460025481565b6040519081526020016100bf565b6100db610110366004610634565b6102f0565b6100f461012336600461066d565b5f6020819052908152604090205481565b6004546101419060ff1681565b60405160ff90911681526020016100bf565b6100f461016136600461068d565b600160209081525f928352604080842090915290825290205481565b6100f461018b36600461066d565b6001600160a01b03165f9081526020819052604090205490565b6100b2610497565b6100db6101bb36600461060c565b6104a4565b6100f46101ce36600461068d565b6001600160a01b039182165f90815260016020908152604080832093909416825291909152205490565b60038054610205906106be565b80601f0160208091040260200160405190810160405280929190818152602001828054610231906106be565b801561027c5780601f106102535761010080835404028352916020019161027c565b820191905f5260205f20905b81548152906001019060200180831161025f57829003601f168201915b505050505081565b335f8181526001602090815260408083206001600160a01b038716808552925280832085905551919290917f8c5be1e5ebec7d5bd14f71427d1e84f3dd0314c0f7b2291e5b200ac8c7c3b925906102de9086815260200190565b60405180910390a35060015b92915050565b6001600160a01b0383165f81815260016020908152604080832033845282528083205493835290829052812054909190831180159061032f5750828110155b6103a65760405162461bcd60e51b815260206004820152603960248201527f746f6b656e2062616c616e6365206f7220616c6c6f77616e6365206973206c6f60448201527f776572207468616e20616d6f756e74207265717565737465640000000000000060648201526084015b60405180910390fd5b6001600160a01b0384165f90815260208190526040812080548592906103cd90849061070a565b90915550506001600160a01b0385165f90815260208190526040812080548592906103f990849061071d565b90915550505f1981101561043f576001600160a01b0385165f9081526001602090815260408083203384529091528120805485929061043990849061071d565b90915550505b836001600160a01b0316856001600160a01b03167fddf252ad1be2c89b69c2b068fc378daa952ba7f163c4a11628f55a4df523b3ef8560405161048491815260200190565b60405180910390a3506001949350505050565b60058054610205906106be565b335f9081526020819052604081205482111561051a5760405162461bcd60e51b815260206004820152602f60248201527f746f6b656e2062616c616e6365206973206c6f776572207468616e207468652060448201526e1d985b1d59481c995c5d595cdd1959608a1b606482015260840161039d565b335f908152602081905260408120805484929061053890849061071d565b90915550506001600160a01b0383165f908152602081905260408120805484929061056490849061070a565b90915550506040518281526001600160a01b0384169033907fddf252ad1be2c89b69c2b068fc378daa952ba7f163c4a11628f55a4df523b3ef906020016102de565b5f6020808352835180828501525f5b818110156105d1578581018301518582016040015282016105b5565b505f604082860101526040601f19601f8301168501019250505092915050565b80356001600160a01b0381168114610607575f80fd5b919050565b5f806040838503121561061d575f80fd5b610626836105f1565b946020939093013593505050565b5f805f60608486031215610646575f80fd5b61064f846105f1565b925061065d602085016105f1565b9150604084013590509250925092565b5f6020828403121561067d575f80fd5b610686826105f1565b9392505050565b5f806040838503121561069e575f80fd5b6106a7836105f1565b91506106b5602084016105f1565b90509250929050565b600181811c908216806106d257607f821691505b6020821081036106f057634e487b7160e01b5f52602260045260245ffd5b50919050565b634e487b7160e01b5f52601160045260245ffd5b808201808211156102ea576102ea6106f6565b818103818111156102ea576102ea6106f656fea2646970667358221220a4061f9f6635fc8e9262971776cbf0297c90d5cfbec2a2d85fdf69cf9116e7f464736f6c63430008140033",
					"opcodes": "PUSH1 0x80 PUSH1 0x40 MSTORE CALLVALUE DUP1 ISZERO PUSH3 0x10 JUMPI PUSH0 DUP1 REVERT JUMPDEST POP PUSH1 0x40 MLOAD PUSH3 0xA8F CODESIZE SUB DUP1 PUSH3 0xA8F DUP4 CODECOPY DUP2 ADD PUSH1 0x40 DUP2 SWAP1 MSTORE PUSH3 0x33 SWAP2 PUSH3 0x13E JUMP JUMPDEST CALLER PUSH0 SWAP1 DUP2 MSTORE PUSH1 0x20 DUP2 SWAP1 MSTORE PUSH1 0x40 SWAP1 KECCAK256 DUP5 SWAP1 SSTORE PUSH1 0x2 DUP5 SWAP1 SSTORE PUSH1 0x3 PUSH3 0x57 DUP5 DUP3 PUSH3 0x253 JUMP JUMPDEST POP PUSH1 0x4 DUP1 SLOAD PUSH1 0xFF NOT AND PUSH1 0xFF DUP5 AND OR SWAP1 SSTORE PUSH1 0x5 PUSH3 0x75 DUP3 DUP3 PUSH3 0x253 JUMP JUMPDEST POP POP POP POP POP PUSH3 0x31B JUMP JUMPDEST PUSH4 0x4E487B71 PUSH1 0xE0 SHL PUSH0 MSTORE PUSH1 0x41 PUSH1 0x4 MSTORE PUSH1 0x24 PUSH0 REVERT JUMPDEST PUSH0 DUP3 PUSH1 0x1F DUP4 ADD SLT PUSH3 0xA4 JUMPI PUSH0 DUP1 REVERT JUMPDEST DUP2 MLOAD PUSH1 0x1 PUSH1 0x1 PUSH1 0x40 SHL SUB DUP1 DUP3 GT ISZERO PUSH3 0xC1 JUMPI PUSH3 0xC1 PUSH3 0x80 JUMP JUMPDEST PUSH1 0x40 MLOAD PUSH1 0x1F DUP4 ADD PUSH1 0x1F NOT SWAP1 DUP2 AND PUSH1 0x3F ADD AND DUP2 ADD SWAP1 DUP3 DUP3 GT DUP2 DUP4 LT OR ISZERO PUSH3 0xEC JUMPI PUSH3 0xEC PUSH3 0x80 JUMP JUMPDEST DUP2 PUSH1 0x40 MSTORE DUP4 DUP2 MSTORE PUSH1 0x20 SWAP3 POP DUP7 DUP4 DUP6 DUP9 ADD ADD GT ISZERO PUSH3 0x108 JUMPI PUSH0 DUP1 REVERT JUMPDEST PUSH0 SWAP2 POP JUMPDEST DUP4 DUP3 LT ISZERO PUSH3 0x12B JUMPI DUP6 DUP3 ADD DUP4 ADD MLOAD DUP2 DUP4 ADD DUP5 ADD MSTORE SWAP1 DUP3 ADD SWAP1 PUSH3 0x10C JUMP JUMPDEST PUSH0 SWAP4 DUP2 ADD SWAP1 SWAP3 ADD SWAP3 SWAP1 SWAP3 MSTORE SWAP5 SWAP4 POP POP POP POP JUMP JUMPDEST PUSH0 DUP1 PUSH0 DUP1 PUSH1 0x80 DUP6 DUP8 SUB SLT ISZERO PUSH3 0x152 JUMPI PUSH0 DUP1 REVERT JUMPDEST DUP5 MLOAD PUSH1 0x20 DUP7 ADD MLOAD SWAP1 SWAP5 POP PUSH1 0x1 PUSH1 0x1 PUSH1 0x40 SHL SUB DUP1 DUP3 GT ISZERO PUSH3 0x171 JUMPI PUSH0 DUP1 REVERT JUMPDEST PUSH3 0x17F DUP9 DUP4 DUP10 ADD PUSH3 0x94 JUMP JUMPDEST SWAP5 POP PUSH1 0x40 DUP8 ADD MLOAD SWAP2 POP PUSH1 0xFF DUP3 AND DUP3 EQ PUSH3 0x197 JUMPI PUSH0 DUP1 REVERT JUMPDEST PUSH1 0x60 DUP8 ADD MLOAD SWAP2 SWAP4 POP DUP1 DUP3 GT ISZERO PUSH3 0x1AC JUMPI PUSH0 DUP1 REVERT JUMPDEST POP PUSH3 0x1BB DUP8 DUP3 DUP9 ADD PUSH3 0x94 JUMP JUMPDEST SWAP2 POP POP SWAP3 SWAP6 SWAP2 SWAP5 POP SWAP3 POP JUMP JUMPDEST PUSH1 0x1 DUP2 DUP2 SHR SWAP1 DUP3 AND DUP1 PUSH3 0x1DC JUMPI PUSH1 0x7F DUP3 AND SWAP2 POP JUMPDEST PUSH1 0x20 DUP3 LT DUP2 SUB PUSH3 0x1FB JUMPI PUSH4 0x4E487B71 PUSH1 0xE0 SHL PUSH0 MSTORE PUSH1 0x22 PUSH1 0x4 MSTORE PUSH1 0x24 PUSH0 REVERT JUMPDEST POP SWAP2 SWAP1 POP JUMP JUMPDEST PUSH1 0x1F DUP3 GT ISZERO PUSH3 0x24E JUMPI PUSH0 DUP2 DUP2 MSTORE PUSH1 0x20 DUP2 KECCAK256 PUSH1 0x1F DUP6 ADD PUSH1 0x5 SHR DUP2 ADD PUSH1 0x20 DUP7 LT ISZERO PUSH3 0x229 JUMPI POP DUP1 JUMPDEST PUSH1 0x1F DUP6 ADD PUSH1 0x5 SHR DUP3 ADD SWAP2 POP JUMPDEST DUP2 DUP2 LT ISZERO PUSH3 0x24A JUMPI DUP3 DUP2 SSTORE PUSH1 0x1 ADD PUSH3 0x235 JUMP JUMPDEST POP POP POP JUMPDEST POP POP POP JUMP JUMPDEST DUP2 MLOAD PUSH1 0x1 PUSH1 0x1 PUSH1 0x40 SHL SUB DUP2 GT ISZERO PUSH3 0x26F JUMPI PUSH3 0x26F PUSH3 0x80 JUMP JUMPDEST PUSH3 0x287 DUP2 PUSH3 0x280 DUP5 SLOAD PUSH3 0x1C7 JUMP JUMPDEST DUP5 PUSH3 0x201 JUMP JUMPDEST PUSH1 0x20 DUP1 PUSH1 0x1F DUP4 GT PUSH1 0x1 DUP2 EQ PUSH3 0x2BD JUMPI PUSH0 DUP5 ISZERO PUSH3 0x2A5 JUMPI POP DUP6 DUP4 ADD MLOAD JUMPDEST PUSH0 NOT PUSH1 0x3 DUP7 SWAP1 SHL SHR NOT AND PUSH1 0x1 DUP6 SWAP1 SHL OR DUP6 SSTORE PUSH3 0x24A JUMP JUMPDEST PUSH0 DUP6 DUP2 MSTORE PUSH1 0x20 DUP2 KECCAK256 PUSH1 0x1F NOT DUP7 AND SWAP2 JUMPDEST DUP3 DUP2 LT ISZERO PUSH3 0x2ED JUMPI DUP9 DUP7 ADD MLOAD DUP3 SSTORE SWAP5 DUP5 ADD SWAP5 PUSH1 0x1 SWAP1 SWAP2 ADD SWAP1 DUP5 ADD PUSH3 0x2CC JUMP JUMPDEST POP DUP6 DUP3 LT ISZERO PUSH3 0x30B JUMPI DUP8 DUP6 ADD MLOAD PUSH0 NOT PUSH1 0x3 DUP9 SWAP1 SHL PUSH1 0xF8 AND SHR NOT AND DUP2 SSTORE JUMPDEST POP POP POP POP POP PUSH1 0x1 SWAP1 DUP2 SHL ADD SWAP1 SSTORE POP JUMP JUMPDEST PUSH2 0x766 DUP1 PUSH3 0x329 PUSH0 CODECOPY PUSH0 RETURN INVALID PUSH1 0x80 PUSH1 0x40 MSTORE CALLVALUE DUP1 ISZERO PUSH2 0xF JUMPI PUSH0 DUP1 REVERT JUMPDEST POP PUSH1 0x4 CALLDATASIZE LT PUSH2 0xA6 JUMPI PUSH0 CALLDATALOAD PUSH1 0xE0 SHR DUP1 PUSH4 0x313CE567 GT PUSH2 0x6E JUMPI DUP1 PUSH4 0x313CE567 EQ PUSH2 0x134 JUMPI DUP1 PUSH4 0x5C658165 EQ PUSH2 0x153 JUMPI DUP1 PUSH4 0x70A08231 EQ PUSH2 0x17D JUMPI DUP1 PUSH4 0x95D89B41 EQ PUSH2 0x1A5 JUMPI DUP1 PUSH4 0xA9059CBB EQ PUSH2 0x1AD JUMPI DUP1 PUSH4 0xDD62ED3E EQ PUSH2 0x1C0 JUMPI PUSH0 DUP1 REVERT JUMPDEST DUP1 PUSH4 0x6FDDE03 EQ PUSH2 0xAA JUMPI DUP1 PUSH4 0x95EA7B3 EQ PUSH2 0xC8 JUMPI DUP1 PUSH4 0x18160DDD EQ PUSH2 0xEB JUMPI DUP1 PUSH4 0x23B872DD EQ PUSH2 0x102 JUMPI DUP1 PUSH4 0x27E235E3 EQ PUSH2 0x115 JUMPI JUMPDEST PUSH0 DUP1 REVERT JUMPDEST PUSH2 0xB2 PUSH2 0x1F8 JUMP JUMPDEST PUSH1 0x40 MLOAD PUSH2 0xBF SWAP2 SWAP1 PUSH2 0x5A6 JUMP JUMPDEST PUSH1 0x40 MLOAD DUP1 SWAP2 SUB SWAP1 RETURN JUMPDEST PUSH2 0xDB PUSH2 0xD6 CALLDATASIZE PUSH1 0x4 PUSH2 0x60C JUMP JUMPDEST PUSH2 0x284 JUMP JUMPDEST PUSH1 0x40 MLOAD SWAP1 ISZERO ISZERO DUP2 MSTORE PUSH1 0x20 ADD PUSH2 0xBF JUMP JUMPDEST PUSH2 0xF4 PUSH1 0x2 SLOAD DUP2 JUMP JUMPDEST PUSH1 0x40 MLOAD SWAP1 DUP2 MSTORE PUSH1 0x20 ADD PUSH2 0xBF JUMP JUMPDEST PUSH2 0xDB PUSH2 0x110 CALLDATASIZE PUSH1 0x4 PUSH2 0x634 JUMP JUMPDEST PUSH2 0x2F0 JUMP JUMPDEST PUSH2 0xF4 PUSH2 0x123 CALLDATASIZE PUSH1 0x4 PUSH2 0x66D JUMP JUMPDEST PUSH0 PUSH1 0x20 DUP2 SWAP1 MSTORE SWAP1 DUP2 MSTORE PUSH1 0x40 SWAP1 KECCAK256 SLOAD DUP2 JUMP JUMPDEST PUSH1 0x4 SLOAD PUSH2 0x141 SWAP1 PUSH1 0xFF AND DUP2 JUMP JUMPDEST PUSH1 0x40 MLOAD PUSH1 0xFF SWAP1 SWAP2 AND DUP2 MSTORE PUSH1 0x20 ADD PUSH2 0xBF JUMP JUMPDEST PUSH2 0xF4 PUSH2 0x161 CALLDATASIZE PUSH1 0x4 PUSH2 0x68D JUMP JUMPDEST PUSH1 0x1 PUSH1 0x20 SWAP1 DUP2 MSTORE PUSH0 SWAP3 DUP4 MSTORE PUSH1 0x40 DUP1 DUP5 KECCAK256 SWAP1 SWAP2 MSTORE SWAP1 DUP3 MSTORE SWAP1 KECCAK256 SLOAD DUP2 JUMP JUMPDEST PUSH2 0xF4 PUSH2 0x18B CALLDATASIZE PUSH1 0x4 PUSH2 0x66D JUMP JUMPDEST PUSH1 0x1 PUSH1 0x1 PUSH1 0xA0 SHL SUB AND PUSH0 SWAP1 DUP2 MSTORE PUSH1 0x20 DUP2 SWAP1 MSTORE PUSH1 0x40 SWAP1 KECCAK256 SLOAD SWAP1 JUMP JUMPDEST PUSH2 0xB2 PUSH2 0x497 JUMP JUMPDEST PUSH2 0xDB PUSH2 0x1BB CALLDATASIZE PUSH1 0x4 PUSH2 0x60C JUMP JUMPDEST PUSH2 0x4A4 JUMP JUMPDEST PUSH2 0xF4 PUSH2 0x1CE CALLDATASIZE PUSH1 0x4 PUSH2 0x68D JUMP JUMPDEST PUSH1 0x1 PUSH1 0x1 PUSH1 0xA0 SHL SUB SWAP2 DUP3 AND PUSH0 SWAP1 DUP2 MSTORE PUSH1 0x1 PUSH1 0x20 SWAP1 DUP2 MSTORE PUSH1 0x40 DUP1 DUP4 KECCAK256 SWAP4 SWAP1 SWAP5 AND DUP3 MSTORE SWAP2 SWAP1 SWAP2 MSTORE KECCAK256 SLOAD SWAP1 JUMP JUMPDEST PUSH1 0x3 DUP1 SLOAD PUSH2 0x205 SWAP1 PUSH2 0x6BE JUMP JUMPDEST DUP1 PUSH1 0x1F ADD PUSH1 0x20 DUP1 SWAP2 DIV MUL PUSH1 0x20 ADD PUSH1 0x40 MLOAD SWAP1 DUP2 ADD PUSH1 0x40 MSTORE DUP1 SWAP3 SWAP2 SWAP1 DUP2 DUP2 MSTORE PUSH1 0x20 ADD DUP3 DUP1 SLOAD PUSH2 0x231 SWAP1 PUSH2 0x6BE JUMP JUMPDEST DUP1 ISZERO PUSH2 0x27C JUMPI DUP1 PUSH1 0x1F LT PUSH2 0x253 JUMPI PUSH2 0x100 DUP1 DUP4 SLOAD DIV MUL DUP4 MSTORE SWAP2 PUSH1 0x20 ADD SWAP2 PUSH2 0x27C JUMP JUMPDEST DUP3 ADD SWAP2 SWAP1 PUSH0 MSTORE PUSH1 0x20 PUSH0 KECCAK256 SWAP1 JUMPDEST DUP2 SLOAD DUP2 MSTORE SWAP1 PUSH1 0x1 ADD SWAP1 PUSH1 0x20 ADD DUP1 DUP4 GT PUSH2 0x25F JUMPI DUP3 SWAP1 SUB PUSH1 0x1F AND DUP3 ADD SWAP2 JUMPDEST POP POP POP POP POP DUP2 JUMP JUMPDEST CALLER PUSH0 DUP2 DUP2 MSTORE PUSH1 0x1 PUSH1 0x20 SWAP1 DUP2 MSTORE PUSH1 0x40 DUP1 DUP4 KECCAK256 PUSH1 0x1 PUSH1 0x1 PUSH1 0xA0 SHL SUB DUP8 AND DUP1 DUP6 MSTORE SWAP3 MSTORE DUP1 DUP4 KECCAK256 DUP6 SWAP1 SSTORE MLOAD SWAP2 SWAP3 SWAP1 SWAP2 PUSH32 0x8C5BE1E5EBEC7D5BD14F71427D1E84F3DD0314C0F7B2291E5B200AC8C7C3B925 SWAP1 PUSH2 0x2DE SWAP1 DUP7 DUP2 MSTORE PUSH1 0x20 ADD SWAP1 JUMP JUMPDEST PUSH1 0x40 MLOAD DUP1 SWAP2 SUB SWAP1 LOG3 POP PUSH1 0x1 JUMPDEST SWAP3 SWAP2 POP POP JUMP JUMPDEST PUSH1 0x1 PUSH1 0x1 PUSH1 0xA0 SHL SUB DUP4 AND PUSH0 DUP2 DUP2 MSTORE PUSH1 0x1 PUSH1 0x20 SWAP1 DUP2 MSTORE PUSH1 0x40 DUP1 DUP4 KECCAK256 CALLER DUP5 MSTORE DUP3 MSTORE DUP1 DUP4 KECCAK256 SLOAD SWAP4 DUP4 MSTORE SWAP1 DUP3 SWAP1 MSTORE DUP2 KECCAK256 SLOAD SWAP1 SWAP2 SWAP1 DUP4 GT DUP1 ISZERO SWAP1 PUSH2 0x32F JUMPI POP DUP3 DUP2 LT ISZERO JUMPDEST PUSH2 0x3A6 JUMPI PUSH1 0x40 MLOAD PUSH3 0x461BCD PUSH1 0xE5 SHL DUP2 MSTORE PUSH1 0x20 PUSH1 0x4 DUP3 ADD MSTORE PUSH1 0x39 PUSH1 0x24 DUP3 ADD MSTORE PUSH32 0x746F6B656E2062616C616E6365206F7220616C6C6F77616E6365206973206C6F PUSH1 0x44 DUP3 ADD MSTORE PUSH32 0x776572207468616E20616D6F756E742072657175657374656400000000000000 PUSH1 0x64 DUP3 ADD MSTORE PUSH1 0x84 ADD JUMPDEST PUSH1 0x40 MLOAD DUP1 SWAP2 SUB SWAP1 REVERT JUMPDEST PUSH1 0x1 PUSH1 0x1 PUSH1 0xA0 SHL SUB DUP5 AND PUSH0 SWAP1 DUP2 MSTORE PUSH1 0x20 DUP2 SWAP1 MSTORE PUSH1 0x40 DUP2 KECCAK256 DUP1 SLOAD DUP6 SWAP3 SWAP1 PUSH2 0x3CD SWAP1 DUP5 SWAP1 PUSH2 0x70A JUMP JUMPDEST SWAP1 SWAP2 SSTORE POP POP PUSH1 0x1 PUSH1 0x1 PUSH1 0xA0 SHL SUB DUP6 AND PUSH0 SWAP1 DUP2 MSTORE PUSH1 0x20 DUP2 SWAP1 MSTORE PUSH1 0x40 DUP2 KECCAK256 DUP1 SLOAD DUP6 SWAP3 SWAP1 PUSH2 0x3F9 SWAP1 DUP5 SWAP1 PUSH2 0x71D JUMP JUMPDEST SWAP1 SWAP2 SSTORE POP POP PUSH0 NOT DUP2 LT ISZERO PUSH2 0x43F JUMPI PUSH1 0x1 PUSH1 0x1 PUSH1 0xA0 SHL SUB DUP6 AND PUSH0 SWAP1 DUP2 MSTORE PUSH1 0x1 PUSH1 0x20 SWAP1 DUP2 MSTORE PUSH1 0x40 DUP1 DUP4 KECCAK256 CALLER DUP5 MSTORE SWAP1 SWAP2 MSTORE DUP2 KECCAK256 DUP1 SLOAD DUP6 SWAP3 SWAP1 PUSH2 0x439 SWAP1 DUP5 SWAP1 PUSH2 0x71D JUMP JUMPDEST SWAP1 SWAP2 SSTORE POP POP JUMPDEST DUP4 PUSH1 0x1 PUSH1 0x1 PUSH1 0xA0 SHL SUB AND DUP6 PUSH1 0x1 PUSH1 0x1 PUSH1 0xA0 SHL SUB AND PUSH32 0xDDF252AD1BE2C89B69C2B068FC378DAA952BA7F163C4A11628F55A4DF523B3EF DUP6 PUSH1 0x40 MLOAD PUSH2 0x484 SWAP2 DUP2 MSTORE PUSH1 0x20 ADD SWAP1 JUMP JUMPDEST PUSH1 0x40 MLOAD DUP1 SWAP2 SUB SWAP1 LOG3 POP PUSH1 0x1 SWAP5 SWAP4 POP POP POP POP JUMP JUMPDEST PUSH1 0x5 DUP1 SLOAD PUSH2 0x205 SWAP1 PUSH2 0x6BE JUMP JUMPDEST CALLER PUSH0 SWAP1 DUP2 MSTORE PUSH1 0x20 DUP2 SWAP1 MSTORE PUSH1 0x40 DUP2 KECCAK256 SLOAD DUP3 GT ISZERO PUSH2 0x51A JUMPI PUSH1 0x40 MLOAD PUSH3 0x461BCD PUSH1 0xE5 SHL DUP2 MSTORE PUSH1 0x20 PUSH1 0x4 DUP3 ADD MSTORE PUSH1 0x2F PUSH1 0x24 DUP3 ADD MSTORE PUSH32 0x746F6B656E2062616C616E6365206973206C6F776572207468616E2074686520 PUSH1 0x44 DUP3 ADD MSTORE PUSH15 0x1D985B1D59481C995C5D595CDD1959 PUSH1 0x8A SHL PUSH1 0x64 DUP3 ADD MSTORE PUSH1 0x84 ADD PUSH2 0x39D JUMP JUMPDEST CALLER PUSH0 SWAP1 DUP2 MSTORE PUSH1 0x20 DUP2 SWAP1 MSTORE PUSH1 0x40 DUP2 KECCAK256 DUP1 SLOAD DUP5 SWAP3 SWAP1 PUSH2 0x538 SWAP1 DUP5 SWAP1 PUSH2 0x71D JUMP JUMPDEST SWAP1 SWAP2 SSTORE POP POP PUSH1 0x1 PUSH1 0x1 PUSH1 0xA0 SHL SUB DUP4 AND PUSH0 SWAP1 DUP2 MSTORE PUSH1 0x20 DUP2 SWAP1 MSTORE PUSH1 0x40 DUP2 KECCAK256 DUP1 SLOAD DUP5 SWAP3 SWAP1 PUSH2 0x564 SWAP1 DUP5 SWAP1 PUSH2 0x70A JUMP JUMPDEST SWAP1 SWAP2 SSTORE POP POP PUSH1 0x40 MLOAD DUP3 DUP2 MSTORE PUSH1 0x1 PUSH1 0x1 PUSH1 0xA0 SHL SUB DUP5 AND SWAP1 CALLER SWAP1 PUSH32 0xDDF252AD1BE2C89B69C2B068FC378DAA952BA7F163C4A11628F55A4DF523B3EF SWAP1 PUSH1 0x20 ADD PUSH2 0x2DE JUMP JUMPDEST PUSH0 PUSH1 0x20 DUP1 DUP4 MSTORE DUP4 MLOAD DUP1 DUP3 DUP6 ADD MSTORE PUSH0 JUMPDEST DUP2 DUP2 LT ISZERO PUSH2 0x5D1 JUMPI DUP6 DUP2 ADD DUP4 ADD MLOAD DUP6 DUP3 ADD PUSH1 0x40 ADD MSTORE DUP3 ADD PUSH2 0x5B5 JUMP JUMPDEST POP PUSH0 PUSH1 0x40 DUP3 DUP7 ADD ADD MSTORE PUSH1 0x40 PUSH1 0x1F NOT PUSH1 0x1F DUP4 ADD AND DUP6 ADD ADD SWAP3 POP POP POP SWAP3 SWAP2 POP POP JUMP JUMPDEST DUP1 CALLDATALOAD PUSH1 0x1 PUSH1 0x1 PUSH1 0xA0 SHL SUB DUP2 AND DUP2 EQ PUSH2 0x607 JUMPI PUSH0 DUP1 REVERT JUMPDEST SWAP2 SWAP1 POP JUMP JUMPDEST PUSH0 DUP1 PUSH1 0x40 DUP4 DUP6 SUB SLT ISZERO PUSH2 0x61D JUMPI PUSH0 DUP1 REVERT JUMPDEST PUSH2 0x626 DUP4 PUSH2 0x5F1 JUMP JUMPDEST SWAP5 PUSH1 0x20 SWAP4 SWAP1 SWAP4 ADD CALLDATALOAD SWAP4 POP POP POP JUMP JUMPDEST PUSH0 DUP1 PUSH0 PUSH1 0x60 DUP5 DUP7 SUB SLT ISZERO PUSH2 0x646 JUMPI PUSH0 DUP1 REVERT JUMPDEST PUSH2 0x64F DUP5 PUSH2 0x5F1 JUMP JUMPDEST SWAP3 POP PUSH2 0x65D PUSH1 0x20 DUP6 ADD PUSH2 0x5F1 JUMP JUMPDEST SWAP2 POP PUSH1 0x40 DUP5 ADD CALLDATALOAD SWAP1 POP SWAP3 POP SWAP3 POP SWAP3 JUMP JUMPDEST PUSH0 PUSH1 0x20 DUP3 DUP5 SUB SLT ISZERO PUSH2 0x67D JUMPI PUSH0 DUP1 REVERT JUMPDEST PUSH2 0x686 DUP3 PUSH2 0x5F1 JUMP JUMPDEST SWAP4 SWAP3 POP POP POP JUMP JUMPDEST PUSH0 DUP1 PUSH1 0x40 DUP4 DUP6 SUB SLT ISZERO PUSH2 0x69E JUMPI PUSH0 DUP1 REVERT JUMPDEST PUSH2 0x6A7 DUP4 PUSH2 0x5F1 JUMP JUMPDEST SWAP2 POP PUSH2 0x6B5 PUSH1 0x20 DUP5 ADD PUSH2 0x5F1 JUMP JUMPDEST SWAP1 POP SWAP3 POP SWAP3 SWAP1 POP JUMP JUMPDEST PUSH1 0x1 DUP2 DUP2 SHR SWAP1 DUP3 AND DUP1 PUSH2 0x6D2 JUMPI PUSH1 0x7F DUP3 AND SWAP2 POP JUMPDEST PUSH1 0x20 DUP3 LT DUP2 SUB PUSH2 0x6F0 JUMPI PUSH4 0x4E487B71 PUSH1 0xE0 SHL PUSH0 MSTORE PUSH1 0x22 PUSH1 0x4 MSTORE PUSH1 0x24 PUSH0 REVERT JUMPDEST POP SWAP2 SWAP1 POP JUMP JUMPDEST PUSH4 0x4E487B71 PUSH1 0xE0 SHL PUSH0 MSTORE PUSH1 0x11 PUSH1 0x4 MSTORE PUSH1 0x24 PUSH0 REVERT JUMPDEST DUP1 DUP3 ADD DUP1 DUP3 GT ISZERO PUSH2 0x2EA JUMPI PUSH2 0x2EA PUSH2 0x6F6 JUMP JUMPDEST DUP2 DUP2 SUB DUP2 DUP2 GT ISZERO PUSH2 0x2EA JUMPI PUSH2 0x2EA PUSH2 0x6F6 JUMP INVALID LOG2 PUSH5 0x6970667358 0x22 SLT KECCAK256 LOG4 MOD 0x1F SWAP16 PUSH7 0x35FC8E92629717 PUSH23 0xCBF0297C90D5CFBEC2A2D85FDF69CF9116E7F464736F6C PUSH4 0x43000814 STOP CALLER "
				},
				"gasEstimates": {
					"creation": {
						"codeDepositCost": "378800",
						"executionCost": "infinite",
						"totalCost": "infinite"
					},
					"external": {
						"allowance(address,address)": "infinite",
						"allowed(address,address)": "infinite",
						"approve(address,uint256)": "24520",
						"balanceOf(address)": "2581",
						"balances(address)": "2608",
						"decimals()": "2312",
						"name()": "infinite",
						"symbol()": "infinite",
						"totalSupply()": "2339",
						"transfer(address,uint256)": "infinite",
						"transferFrom(address,address,uint256)": "infinite"
					}
				},
				"methodIdentifiers": {
					"allowance(address,address)": "dd62ed3e",
					"allowed(address,address)": "5c658165",
					"approve(address,uint256)": "095ea7b3",
					"balanceOf(address)": "70a08231",
					"balances(address)": "27e235e3",
					"decimals()": "313ce567",
					"name()": "06fdde03",
					"symbol()": "95d89b41",
					"totalSupply()": "18160ddd",
					"transfer(address,uint256)": "a9059cbb",
					"transferFrom(address,address,uint256)": "23b872dd"
				}
			},
			"storageLayout": {
				"storage": [
					{
						"astId": 81,
						"contract": "Contracts/USDT.sol:USDT",
						"label": "balances",
						"offset": 0,
						"slot": "0",
						"type": "t_mapping(t_address,t_uint256)"
					},
					{
						"astId": 87,
						"contract": "Contracts/USDT.sol:USDT",
						"label": "allowed",
						"offset": 0,
						"slot": "1",
						"type": "t_mapping(t_address,t_mapping(t_address,t_uint256))"
					},
					{
						"astId": 89,
						"contract": "Contracts/USDT.sol:USDT",
						"label": "totalSupply",
						"offset": 0,
						"slot": "2",
						"type": "t_uint256"
					},
					{
						"astId": 91,
						"contract": "Contracts/USDT.sol:USDT",
						"label": "name",
						"offset": 0,
						"slot": "3",
						"type": "t_string_storage"
					},
					{
						"astId": 93,
						"contract": "Contracts/USDT.sol:USDT",
						"label": "decimals",
						"offset": 0,
						"slot": "4",
						"type": "t_uint8"
					},
					{
						"astId": 95,
						"contract": "Contracts/USDT.sol:USDT",
						"label": "symbol",
						"offset": 0,
						"slot": "5",
						"type": "t_string_storage"
					}
				],
				"types": {
					"t_address": {
						"encoding": "inplace",
						"label": "address",
						"numberOfBytes": "20"
					},
					"t_mapping(t_address,t_mapping(t_address,t_uint256))": {
						"encoding": "mapping",
						"key": "t_address",
						"label": "mapping(address => mapping(address => uint256))",
						"numberOfBytes": "32",
						"value": "t_mapping(t_address,t_uint256)"
					},
					"t_mapping(t_address,t_uint256)": {
						"encoding": "mapping",
						"key": "t_address",
						"label": "mapping(address => uint256)",
						"numberOfBytes": "32",
						"value": "t_uint256"
					},
					"t_string_storage": {
						"encoding": "bytes",
						"label": "string",
						"numberOfBytes": "32"
					},
					"t_uint256": {
						"encoding": "inplace",
						"label": "uint256",
						"numberOfBytes": "32"
					},
					"t_uint8": {
						"encoding": "inplace",
						"label": "uint8",
						"numberOfBytes": "1"
					}
				}
			},
			"userdoc": {
				"kind": "user",
				"methods": {
					"approve(address,uint256)": {
						"notice": "`msg.sender` approves `_addr` to spend `_value` tokens"
					},
					"transfer(address,uint256)": {
						"notice": "send `_value` token to `_to` from `msg.sender`"
					},
					"transferFrom(address,address,uint256)": {
						"notice": "send `_value` token to `_to` from `_from` on the condition it is approved by `_from`"
					}
				},
				"version": 1
			}
		}
	}
}