{
	"Contracts/TTSwapV1Coin.sol": {
		"TTSwapV1Coin": {
			"abi": [
				{
					"inputs": [
						{
							"internalType": "address",
							"name": "_gatorContractAddress",
							"type": "address"
						},
						{
							"internalType": "address",
							"name": "_marketorContractAddress",
							"type": "address"
						}
					],
					"stateMutability": "nonpayable",
					"type": "constructor"
				},
				{
					"anonymous": false,
					"inputs": [
						{
							"indexed": false,
							"internalType": "address",
							"name": "",
							"type": "address"
						}
					],
					"name": "e_addCoinDetailbyGator",
					"type": "event"
				},
				{
					"anonymous": false,
					"inputs": [
						{
							"indexed": false,
							"internalType": "address",
							"name": "",
							"type": "address"
						},
						{
							"components": [
								{
									"internalType": "bytes32",
									"name": "coinFullName",
									"type": "bytes32"
								},
								{
									"internalType": "bytes32",
									"name": "symbol",
									"type": "bytes32"
								},
								{
									"internalType": "bytes32",
									"name": "typecode",
									"type": "bytes32"
								},
								{
									"internalType": "uint8",
									"name": "decimals",
									"type": "uint8"
								},
								{
									"internalType": "uint256",
									"name": "maxSupply",
									"type": "uint256"
								},
								{
									"internalType": "uint256",
									"name": "totalSupply",
									"type": "uint256"
								},
								{
									"internalType": "address",
									"name": "contractAddress",
									"type": "address"
								},
								{
									"internalType": "bool",
									"name": "marketunlock",
									"type": "bool"
								},
								{
									"internalType": "bool",
									"name": "gateunlock",
									"type": "bool"
								},
								{
									"internalType": "bool",
									"name": "isUsed",
									"type": "bool"
								},
								{
									"internalType": "address",
									"name": "creator",
									"type": "address"
								}
							],
							"indexed": false,
							"internalType": "struct LCoin.Info",
							"name": "",
							"type": "tuple"
						}
					],
					"name": "e_addCoinbyGator",
					"type": "event"
				},
				{
					"anonymous": false,
					"inputs": [
						{
							"components": [
								{
									"internalType": "bytes32",
									"name": "coinFullName",
									"type": "bytes32"
								},
								{
									"internalType": "bytes32",
									"name": "symbol",
									"type": "bytes32"
								},
								{
									"internalType": "bytes32",
									"name": "typecode",
									"type": "bytes32"
								},
								{
									"internalType": "uint8",
									"name": "decimals",
									"type": "uint8"
								},
								{
									"internalType": "uint256",
									"name": "maxSupply",
									"type": "uint256"
								},
								{
									"internalType": "uint256",
									"name": "totalSupply",
									"type": "uint256"
								},
								{
									"internalType": "address",
									"name": "contractAddress",
									"type": "address"
								},
								{
									"internalType": "bool",
									"name": "marketunlock",
									"type": "bool"
								},
								{
									"internalType": "bool",
									"name": "gateunlock",
									"type": "bool"
								},
								{
									"internalType": "bool",
									"name": "isUsed",
									"type": "bool"
								},
								{
									"internalType": "address",
									"name": "creator",
									"type": "address"
								}
							],
							"indexed": false,
							"internalType": "struct LCoin.Info",
							"name": "",
							"type": "tuple"
						}
					],
					"name": "e_addCoinbyMarketor",
					"type": "event"
				},
				{
					"anonymous": false,
					"inputs": [
						{
							"indexed": false,
							"internalType": "address",
							"name": "",
							"type": "address"
						},
						{
							"indexed": false,
							"internalType": "uint128",
							"name": "",
							"type": "uint128"
						}
					],
					"name": "e_delCoinbyGator",
					"type": "event"
				},
				{
					"anonymous": false,
					"inputs": [
						{
							"indexed": false,
							"internalType": "address",
							"name": "",
							"type": "address"
						},
						{
							"indexed": false,
							"internalType": "address",
							"name": "",
							"type": "address"
						}
					],
					"name": "e_delCoinbyGator",
					"type": "event"
				},
				{
					"anonymous": false,
					"inputs": [
						{
							"indexed": false,
							"internalType": "address",
							"name": "",
							"type": "address"
						}
					],
					"name": "e_delCoinbyMarketor",
					"type": "event"
				},
				{
					"anonymous": false,
					"inputs": [
						{
							"indexed": false,
							"internalType": "uint128",
							"name": "",
							"type": "uint128"
						}
					],
					"name": "e_delCoinbyMarketor",
					"type": "event"
				},
				{
					"anonymous": false,
					"inputs": [
						{
							"indexed": false,
							"internalType": "address",
							"name": "",
							"type": "address"
						}
					],
					"name": "e_impoveGateCoinbyMarketor",
					"type": "event"
				},
				{
					"anonymous": false,
					"inputs": [
						{
							"indexed": false,
							"internalType": "address",
							"name": "",
							"type": "address"
						},
						{
							"indexed": false,
							"internalType": "address",
							"name": "",
							"type": "address"
						}
					],
					"name": "e_lockCoinbyGator",
					"type": "event"
				},
				{
					"anonymous": false,
					"inputs": [
						{
							"indexed": false,
							"internalType": "address",
							"name": "",
							"type": "address"
						}
					],
					"name": "e_lockCoinbyMarketor",
					"type": "event"
				},
				{
					"anonymous": false,
					"inputs": [
						{
							"indexed": false,
							"internalType": "address",
							"name": "",
							"type": "address"
						},
						{
							"indexed": false,
							"internalType": "address",
							"name": "",
							"type": "address"
						}
					],
					"name": "e_unlockCoinbyGator",
					"type": "event"
				},
				{
					"anonymous": false,
					"inputs": [
						{
							"indexed": false,
							"internalType": "address",
							"name": "",
							"type": "address"
						}
					],
					"name": "e_unlockCoinbyMarketor",
					"type": "event"
				},
				{
					"anonymous": false,
					"inputs": [
						{
							"indexed": false,
							"internalType": "address",
							"name": "",
							"type": "address"
						},
						{
							"components": [
								{
									"internalType": "bytes32",
									"name": "coinFullName",
									"type": "bytes32"
								},
								{
									"internalType": "bytes32",
									"name": "symbol",
									"type": "bytes32"
								},
								{
									"internalType": "bytes32",
									"name": "typecode",
									"type": "bytes32"
								},
								{
									"internalType": "uint8",
									"name": "decimals",
									"type": "uint8"
								},
								{
									"internalType": "uint256",
									"name": "maxSupply",
									"type": "uint256"
								},
								{
									"internalType": "uint256",
									"name": "totalSupply",
									"type": "uint256"
								},
								{
									"internalType": "address",
									"name": "contractAddress",
									"type": "address"
								},
								{
									"internalType": "bool",
									"name": "marketunlock",
									"type": "bool"
								},
								{
									"internalType": "bool",
									"name": "gateunlock",
									"type": "bool"
								},
								{
									"internalType": "bool",
									"name": "isUsed",
									"type": "bool"
								},
								{
									"internalType": "address",
									"name": "creator",
									"type": "address"
								}
							],
							"indexed": false,
							"internalType": "struct LCoin.Info",
							"name": "",
							"type": "tuple"
						}
					],
					"name": "e_updateCoinbyGator",
					"type": "event"
				},
				{
					"anonymous": false,
					"inputs": [
						{
							"components": [
								{
									"internalType": "bytes32",
									"name": "coinFullName",
									"type": "bytes32"
								},
								{
									"internalType": "bytes32",
									"name": "symbol",
									"type": "bytes32"
								},
								{
									"internalType": "bytes32",
									"name": "typecode",
									"type": "bytes32"
								},
								{
									"internalType": "uint8",
									"name": "decimals",
									"type": "uint8"
								},
								{
									"internalType": "uint256",
									"name": "maxSupply",
									"type": "uint256"
								},
								{
									"internalType": "uint256",
									"name": "totalSupply",
									"type": "uint256"
								},
								{
									"internalType": "address",
									"name": "contractAddress",
									"type": "address"
								},
								{
									"internalType": "bool",
									"name": "marketunlock",
									"type": "bool"
								},
								{
									"internalType": "bool",
									"name": "gateunlock",
									"type": "bool"
								},
								{
									"internalType": "bool",
									"name": "isUsed",
									"type": "bool"
								},
								{
									"internalType": "address",
									"name": "creator",
									"type": "address"
								}
							],
							"indexed": false,
							"internalType": "struct LCoin.Info",
							"name": "",
							"type": "tuple"
						}
					],
					"name": "e_updateCoinbyMarketor",
					"type": "event"
				},
				{
					"inputs": [
						{
							"components": [
								{
									"internalType": "address",
									"name": "contractAddress",
									"type": "address"
								},
								{
									"internalType": "bytes32",
									"name": "WhitePaperUrl",
									"type": "bytes32"
								},
								{
									"internalType": "bytes32",
									"name": "OfficalWebsite",
									"type": "bytes32"
								},
								{
									"internalType": "bytes32",
									"name": "blockExplorerUrl",
									"type": "bytes32"
								},
								{
									"internalType": "bytes32",
									"name": "twriterUrl",
									"type": "bytes32"
								},
								{
									"internalType": "bytes32",
									"name": "bbsUrl",
									"type": "bytes32"
								}
							],
							"internalType": "struct LCoin.DetailInfo",
							"name": "_coinDetailInfo",
							"type": "tuple"
						}
					],
					"name": "addCoinDetailInfobyGator",
					"outputs": [],
					"stateMutability": "nonpayable",
					"type": "function"
				},
				{
					"inputs": [
						{
							"components": [
								{
									"internalType": "address",
									"name": "contractAddress",
									"type": "address"
								},
								{
									"internalType": "bytes32",
									"name": "WhitePaperUrl",
									"type": "bytes32"
								},
								{
									"internalType": "bytes32",
									"name": "OfficalWebsite",
									"type": "bytes32"
								},
								{
									"internalType": "bytes32",
									"name": "blockExplorerUrl",
									"type": "bytes32"
								},
								{
									"internalType": "bytes32",
									"name": "twriterUrl",
									"type": "bytes32"
								},
								{
									"internalType": "bytes32",
									"name": "bbsUrl",
									"type": "bytes32"
								}
							],
							"internalType": "struct LCoin.DetailInfo",
							"name": "_coinDetailInfo",
							"type": "tuple"
						}
					],
					"name": "addCoinDetailInfobyMarketor",
					"outputs": [],
					"stateMutability": "nonpayable",
					"type": "function"
				},
				{
					"inputs": [
						{
							"components": [
								{
									"internalType": "bytes32",
									"name": "coinFullName",
									"type": "bytes32"
								},
								{
									"internalType": "bytes32",
									"name": "symbol",
									"type": "bytes32"
								},
								{
									"internalType": "bytes32",
									"name": "typecode",
									"type": "bytes32"
								},
								{
									"internalType": "uint8",
									"name": "decimals",
									"type": "uint8"
								},
								{
									"internalType": "uint256",
									"name": "maxSupply",
									"type": "uint256"
								},
								{
									"internalType": "uint256",
									"name": "totalSupply",
									"type": "uint256"
								},
								{
									"internalType": "address",
									"name": "contractAddress",
									"type": "address"
								},
								{
									"internalType": "bool",
									"name": "marketunlock",
									"type": "bool"
								},
								{
									"internalType": "bool",
									"name": "gateunlock",
									"type": "bool"
								},
								{
									"internalType": "bool",
									"name": "isUsed",
									"type": "bool"
								},
								{
									"internalType": "address",
									"name": "creator",
									"type": "address"
								}
							],
							"internalType": "struct LCoin.Info",
							"name": "_coinInfo",
							"type": "tuple"
						},
						{
							"components": [
								{
									"internalType": "address",
									"name": "contractAddress",
									"type": "address"
								},
								{
									"internalType": "bytes32",
									"name": "WhitePaperUrl",
									"type": "bytes32"
								},
								{
									"internalType": "bytes32",
									"name": "OfficalWebsite",
									"type": "bytes32"
								},
								{
									"internalType": "bytes32",
									"name": "blockExplorerUrl",
									"type": "bytes32"
								},
								{
									"internalType": "bytes32",
									"name": "twriterUrl",
									"type": "bytes32"
								},
								{
									"internalType": "bytes32",
									"name": "bbsUrl",
									"type": "bytes32"
								}
							],
							"internalType": "struct LCoin.DetailInfo",
							"name": "_coinDetailInfo",
							"type": "tuple"
						}
					],
					"name": "addCoinFullinfobyGator",
					"outputs": [],
					"stateMutability": "nonpayable",
					"type": "function"
				},
				{
					"inputs": [
						{
							"components": [
								{
									"internalType": "bytes32",
									"name": "coinFullName",
									"type": "bytes32"
								},
								{
									"internalType": "bytes32",
									"name": "symbol",
									"type": "bytes32"
								},
								{
									"internalType": "bytes32",
									"name": "typecode",
									"type": "bytes32"
								},
								{
									"internalType": "uint8",
									"name": "decimals",
									"type": "uint8"
								},
								{
									"internalType": "uint256",
									"name": "maxSupply",
									"type": "uint256"
								},
								{
									"internalType": "uint256",
									"name": "totalSupply",
									"type": "uint256"
								},
								{
									"internalType": "address",
									"name": "contractAddress",
									"type": "address"
								},
								{
									"internalType": "bool",
									"name": "marketunlock",
									"type": "bool"
								},
								{
									"internalType": "bool",
									"name": "gateunlock",
									"type": "bool"
								},
								{
									"internalType": "bool",
									"name": "isUsed",
									"type": "bool"
								},
								{
									"internalType": "address",
									"name": "creator",
									"type": "address"
								}
							],
							"internalType": "struct LCoin.Info",
							"name": "_coinInfo",
							"type": "tuple"
						},
						{
							"components": [
								{
									"internalType": "address",
									"name": "contractAddress",
									"type": "address"
								},
								{
									"internalType": "bytes32",
									"name": "WhitePaperUrl",
									"type": "bytes32"
								},
								{
									"internalType": "bytes32",
									"name": "OfficalWebsite",
									"type": "bytes32"
								},
								{
									"internalType": "bytes32",
									"name": "blockExplorerUrl",
									"type": "bytes32"
								},
								{
									"internalType": "bytes32",
									"name": "twriterUrl",
									"type": "bytes32"
								},
								{
									"internalType": "bytes32",
									"name": "bbsUrl",
									"type": "bytes32"
								}
							],
							"internalType": "struct LCoin.DetailInfo",
							"name": "_coinDetailInfo",
							"type": "tuple"
						}
					],
					"name": "addCoinFullinfobyMarketor",
					"outputs": [],
					"stateMutability": "nonpayable",
					"type": "function"
				},
				{
					"inputs": [
						{
							"components": [
								{
									"internalType": "bytes32",
									"name": "coinFullName",
									"type": "bytes32"
								},
								{
									"internalType": "bytes32",
									"name": "symbol",
									"type": "bytes32"
								},
								{
									"internalType": "bytes32",
									"name": "typecode",
									"type": "bytes32"
								},
								{
									"internalType": "uint8",
									"name": "decimals",
									"type": "uint8"
								},
								{
									"internalType": "uint256",
									"name": "maxSupply",
									"type": "uint256"
								},
								{
									"internalType": "uint256",
									"name": "totalSupply",
									"type": "uint256"
								},
								{
									"internalType": "address",
									"name": "contractAddress",
									"type": "address"
								},
								{
									"internalType": "bool",
									"name": "marketunlock",
									"type": "bool"
								},
								{
									"internalType": "bool",
									"name": "gateunlock",
									"type": "bool"
								},
								{
									"internalType": "bool",
									"name": "isUsed",
									"type": "bool"
								},
								{
									"internalType": "address",
									"name": "creator",
									"type": "address"
								}
							],
							"internalType": "struct LCoin.Info",
							"name": "_coinInfo",
							"type": "tuple"
						}
					],
					"name": "addCoinbyGator",
					"outputs": [],
					"stateMutability": "nonpayable",
					"type": "function"
				},
				{
					"inputs": [
						{
							"components": [
								{
									"internalType": "bytes32",
									"name": "coinFullName",
									"type": "bytes32"
								},
								{
									"internalType": "bytes32",
									"name": "symbol",
									"type": "bytes32"
								},
								{
									"internalType": "bytes32",
									"name": "typecode",
									"type": "bytes32"
								},
								{
									"internalType": "uint8",
									"name": "decimals",
									"type": "uint8"
								},
								{
									"internalType": "uint256",
									"name": "maxSupply",
									"type": "uint256"
								},
								{
									"internalType": "uint256",
									"name": "totalSupply",
									"type": "uint256"
								},
								{
									"internalType": "address",
									"name": "contractAddress",
									"type": "address"
								},
								{
									"internalType": "bool",
									"name": "marketunlock",
									"type": "bool"
								},
								{
									"internalType": "bool",
									"name": "gateunlock",
									"type": "bool"
								},
								{
									"internalType": "bool",
									"name": "isUsed",
									"type": "bool"
								},
								{
									"internalType": "address",
									"name": "creator",
									"type": "address"
								}
							],
							"internalType": "struct LCoin.Info",
							"name": "_coinInfo",
							"type": "tuple"
						}
					],
					"name": "addCoinbyMarketor",
					"outputs": [],
					"stateMutability": "nonpayable",
					"type": "function"
				},
				{
					"inputs": [
						{
							"internalType": "address",
							"name": "",
							"type": "address"
						}
					],
					"name": "coinDetailList",
					"outputs": [
						{
							"internalType": "address",
							"name": "contractAddress",
							"type": "address"
						},
						{
							"internalType": "bytes32",
							"name": "WhitePaperUrl",
							"type": "bytes32"
						},
						{
							"internalType": "bytes32",
							"name": "OfficalWebsite",
							"type": "bytes32"
						},
						{
							"internalType": "bytes32",
							"name": "blockExplorerUrl",
							"type": "bytes32"
						},
						{
							"internalType": "bytes32",
							"name": "twriterUrl",
							"type": "bytes32"
						},
						{
							"internalType": "bytes32",
							"name": "bbsUrl",
							"type": "bytes32"
						}
					],
					"stateMutability": "view",
					"type": "function"
				},
				{
					"inputs": [
						{
							"internalType": "address",
							"name": "",
							"type": "address"
						}
					],
					"name": "coinList",
					"outputs": [
						{
							"internalType": "bytes32",
							"name": "coinFullName",
							"type": "bytes32"
						},
						{
							"internalType": "bytes32",
							"name": "symbol",
							"type": "bytes32"
						},
						{
							"internalType": "bytes32",
							"name": "typecode",
							"type": "bytes32"
						},
						{
							"internalType": "uint8",
							"name": "decimals",
							"type": "uint8"
						},
						{
							"internalType": "uint256",
							"name": "maxSupply",
							"type": "uint256"
						},
						{
							"internalType": "uint256",
							"name": "totalSupply",
							"type": "uint256"
						},
						{
							"internalType": "address",
							"name": "contractAddress",
							"type": "address"
						},
						{
							"internalType": "bool",
							"name": "marketunlock",
							"type": "bool"
						},
						{
							"internalType": "bool",
							"name": "gateunlock",
							"type": "bool"
						},
						{
							"internalType": "bool",
							"name": "isUsed",
							"type": "bool"
						},
						{
							"internalType": "address",
							"name": "creator",
							"type": "address"
						}
					],
					"stateMutability": "view",
					"type": "function"
				},
				{
					"inputs": [
						{
							"internalType": "address",
							"name": "",
							"type": "address"
						}
					],
					"name": "coinMaxNo",
					"outputs": [
						{
							"internalType": "uint128",
							"name": "",
							"type": "uint128"
						}
					],
					"stateMutability": "view",
					"type": "function"
				},
				{
					"inputs": [
						{
							"internalType": "uint128",
							"name": "_coinNo",
							"type": "uint128"
						}
					],
					"name": "delCoinbyGator",
					"outputs": [],
					"stateMutability": "nonpayable",
					"type": "function"
				},
				{
					"inputs": [
						{
							"internalType": "address",
							"name": "_contractaddress",
							"type": "address"
						}
					],
					"name": "delCoinbyGator",
					"outputs": [],
					"stateMutability": "nonpayable",
					"type": "function"
				},
				{
					"inputs": [
						{
							"internalType": "address",
							"name": "_contractaddress",
							"type": "address"
						}
					],
					"name": "delCoinbyMarketor",
					"outputs": [],
					"stateMutability": "nonpayable",
					"type": "function"
				},
				{
					"inputs": [
						{
							"internalType": "uint128",
							"name": "_coinNo",
							"type": "uint128"
						}
					],
					"name": "delCoinbyMarketor",
					"outputs": [],
					"stateMutability": "nonpayable",
					"type": "function"
				},
				{
					"inputs": [],
					"name": "gatorContractAddress",
					"outputs": [
						{
							"internalType": "address",
							"name": "",
							"type": "address"
						}
					],
					"stateMutability": "view",
					"type": "function"
				},
				{
					"inputs": [
						{
							"internalType": "address",
							"name": "_owneraddress",
							"type": "address"
						},
						{
							"internalType": "uint128",
							"name": "_coinNo",
							"type": "uint128"
						}
					],
					"name": "getCoinInfoFromOwnerCoinNo",
					"outputs": [
						{
							"components": [
								{
									"internalType": "bytes32",
									"name": "coinFullName",
									"type": "bytes32"
								},
								{
									"internalType": "bytes32",
									"name": "symbol",
									"type": "bytes32"
								},
								{
									"internalType": "bytes32",
									"name": "typecode",
									"type": "bytes32"
								},
								{
									"internalType": "uint8",
									"name": "decimals",
									"type": "uint8"
								},
								{
									"internalType": "uint256",
									"name": "maxSupply",
									"type": "uint256"
								},
								{
									"internalType": "uint256",
									"name": "totalSupply",
									"type": "uint256"
								},
								{
									"internalType": "address",
									"name": "contractAddress",
									"type": "address"
								},
								{
									"internalType": "bool",
									"name": "marketunlock",
									"type": "bool"
								},
								{
									"internalType": "bool",
									"name": "gateunlock",
									"type": "bool"
								},
								{
									"internalType": "bool",
									"name": "isUsed",
									"type": "bool"
								},
								{
									"internalType": "address",
									"name": "creator",
									"type": "address"
								}
							],
							"internalType": "struct LCoin.Info",
							"name": "",
							"type": "tuple"
						}
					],
					"stateMutability": "view",
					"type": "function"
				},
				{
					"inputs": [
						{
							"internalType": "address",
							"name": "_contractaddress",
							"type": "address"
						}
					],
					"name": "getCoinInfoFromaddress",
					"outputs": [
						{
							"components": [
								{
									"internalType": "bytes32",
									"name": "coinFullName",
									"type": "bytes32"
								},
								{
									"internalType": "bytes32",
									"name": "symbol",
									"type": "bytes32"
								},
								{
									"internalType": "bytes32",
									"name": "typecode",
									"type": "bytes32"
								},
								{
									"internalType": "uint8",
									"name": "decimals",
									"type": "uint8"
								},
								{
									"internalType": "uint256",
									"name": "maxSupply",
									"type": "uint256"
								},
								{
									"internalType": "uint256",
									"name": "totalSupply",
									"type": "uint256"
								},
								{
									"internalType": "address",
									"name": "contractAddress",
									"type": "address"
								},
								{
									"internalType": "bool",
									"name": "marketunlock",
									"type": "bool"
								},
								{
									"internalType": "bool",
									"name": "gateunlock",
									"type": "bool"
								},
								{
									"internalType": "bool",
									"name": "isUsed",
									"type": "bool"
								},
								{
									"internalType": "address",
									"name": "creator",
									"type": "address"
								}
							],
							"internalType": "struct LCoin.Info",
							"name": "",
							"type": "tuple"
						}
					],
					"stateMutability": "view",
					"type": "function"
				},
				{
					"inputs": [
						{
							"internalType": "address",
							"name": "_owneraddress",
							"type": "address"
						}
					],
					"name": "getCoinMaxNo",
					"outputs": [
						{
							"internalType": "uint128",
							"name": "",
							"type": "uint128"
						}
					],
					"stateMutability": "view",
					"type": "function"
				},
				{
					"inputs": [
						{
							"internalType": "address",
							"name": "_contractaddress",
							"type": "address"
						}
					],
					"name": "impoveGateCoinbyMarketor",
					"outputs": [],
					"stateMutability": "nonpayable",
					"type": "function"
				},
				{
					"inputs": [
						{
							"internalType": "address",
							"name": "_coinAddress",
							"type": "address"
						}
					],
					"name": "isValidCoin",
					"outputs": [
						{
							"internalType": "bool",
							"name": "",
							"type": "bool"
						}
					],
					"stateMutability": "view",
					"type": "function"
				},
				{
					"inputs": [
						{
							"internalType": "address",
							"name": "_internalCoinAddress",
							"type": "address"
						}
					],
					"name": "lockCoinbyGator",
					"outputs": [],
					"stateMutability": "nonpayable",
					"type": "function"
				},
				{
					"inputs": [
						{
							"internalType": "address",
							"name": "_CoinAddress",
							"type": "address"
						}
					],
					"name": "lockCoinbyMarketor",
					"outputs": [],
					"stateMutability": "nonpayable",
					"type": "function"
				},
				{
					"inputs": [],
					"name": "marketCreator",
					"outputs": [
						{
							"internalType": "address",
							"name": "",
							"type": "address"
						}
					],
					"stateMutability": "view",
					"type": "function"
				},
				{
					"inputs": [],
					"name": "marketorContractAddress",
					"outputs": [
						{
							"internalType": "address",
							"name": "",
							"type": "address"
						}
					],
					"stateMutability": "view",
					"type": "function"
				},
				{
					"inputs": [
						{
							"internalType": "address",
							"name": "",
							"type": "address"
						},
						{
							"internalType": "uint128",
							"name": "",
							"type": "uint128"
						}
					],
					"name": "ownerCoinList",
					"outputs": [
						{
							"internalType": "address",
							"name": "",
							"type": "address"
						}
					],
					"stateMutability": "view",
					"type": "function"
				},
				{
					"inputs": [
						{
							"internalType": "address",
							"name": "",
							"type": "address"
						},
						{
							"internalType": "address",
							"name": "",
							"type": "address"
						}
					],
					"name": "ownerCoinNo",
					"outputs": [
						{
							"internalType": "uint128",
							"name": "",
							"type": "uint128"
						}
					],
					"stateMutability": "view",
					"type": "function"
				},
				{
					"inputs": [
						{
							"internalType": "address",
							"name": "_marketorContractAddress",
							"type": "address"
						},
						{
							"internalType": "address",
							"name": "_gatorContractAddress",
							"type": "address"
						},
						{
							"internalType": "address",
							"name": "_marketCreator",
							"type": "address"
						}
					],
					"name": "setCoinEnv",
					"outputs": [],
					"stateMutability": "nonpayable",
					"type": "function"
				},
				{
					"inputs": [
						{
							"internalType": "address",
							"name": "_internalCoinAddress",
							"type": "address"
						}
					],
					"name": "unlockCoinbyGator",
					"outputs": [],
					"stateMutability": "nonpayable",
					"type": "function"
				},
				{
					"inputs": [
						{
							"internalType": "address",
							"name": "_CoinAddress",
							"type": "address"
						}
					],
					"name": "unlockCoinbyMarketor",
					"outputs": [],
					"stateMutability": "nonpayable",
					"type": "function"
				},
				{
					"inputs": [
						{
							"internalType": "bytes32",
							"name": "coinFullName",
							"type": "bytes32"
						},
						{
							"internalType": "bytes32",
							"name": "symbol",
							"type": "bytes32"
						},
						{
							"internalType": "bytes32",
							"name": "typecode",
							"type": "bytes32"
						},
						{
							"internalType": "uint8",
							"name": "decimals",
							"type": "uint8"
						},
						{
							"internalType": "uint256",
							"name": "maxSupply",
							"type": "uint256"
						},
						{
							"internalType": "uint256",
							"name": "totalSupply",
							"type": "uint256"
						},
						{
							"internalType": "address",
							"name": "contractAddress",
							"type": "address"
						}
					],
					"name": "updateCoinbyGator",
					"outputs": [],
					"stateMutability": "nonpayable",
					"type": "function"
				},
				{
					"inputs": [
						{
							"components": [
								{
									"internalType": "bytes32",
									"name": "coinFullName",
									"type": "bytes32"
								},
								{
									"internalType": "bytes32",
									"name": "symbol",
									"type": "bytes32"
								},
								{
									"internalType": "bytes32",
									"name": "typecode",
									"type": "bytes32"
								},
								{
									"internalType": "uint8",
									"name": "decimals",
									"type": "uint8"
								},
								{
									"internalType": "uint256",
									"name": "maxSupply",
									"type": "uint256"
								},
								{
									"internalType": "uint256",
									"name": "totalSupply",
									"type": "uint256"
								},
								{
									"internalType": "address",
									"name": "contractAddress",
									"type": "address"
								},
								{
									"internalType": "bool",
									"name": "marketunlock",
									"type": "bool"
								},
								{
									"internalType": "bool",
									"name": "gateunlock",
									"type": "bool"
								},
								{
									"internalType": "bool",
									"name": "isUsed",
									"type": "bool"
								},
								{
									"internalType": "address",
									"name": "creator",
									"type": "address"
								}
							],
							"internalType": "struct LCoin.Info",
							"name": "_coinInfo",
							"type": "tuple"
						}
					],
					"name": "updateCoinbyMarketor",
					"outputs": [],
					"stateMutability": "nonpayable",
					"type": "function"
				}
			],
			"devdoc": {
				"kind": "dev",
				"methods": {
					"addCoinFullinfobyMarketor((bytes32,bytes32,bytes32,uint8,uint256,uint256,address,bool,bool,bool,address),(address,bytes32,bytes32,bytes32,bytes32,bytes32))": {
						"details": "Explain to a developer any extra details"
					},
					"addCoinbyMarketor((bytes32,bytes32,bytes32,uint8,uint256,uint256,address,bool,bool,bool,address))": {
						"details": "Explain to a developer any extra details"
					}
				},
				"stateVariables": {
					"gatorContractAddress": {
						"return": "The contract address",
						"returns": {
							"_0": "The contract address"
						}
					},
					"marketorContractAddress": {
						"return": "The contract address",
						"returns": {
							"_0": "The contract address"
						}
					}
				},
				"version": 1
			},
			"evm": {
				"assembly": "    /* \"Contracts/TTSwapV1Coin.sol\":249:14047  contract TTSwapV1Coin is ITTSwapV1Coin {... */\n  mstore(0x40, 0x80)\n    /* \"Contracts/TTSwapV1Coin.sol\":990:1246  constructor(... */\n  callvalue\n  dup1\n  iszero\n  tag_1\n  jumpi\n  0x00\n  dup1\n  revert\ntag_1:\n  pop\n  mload(0x40)\n  sub(codesize, bytecodeSize)\n  dup1\n  bytecodeSize\n  dup4\n  codecopy\n  dup2\n  add\n  0x40\n  dup2\n  swap1\n  mstore\n  tag_2\n  swap2\n  tag_3\n  jump\t// in\ntag_2:\n    /* \"Contracts/TTSwapV1Coin.sol\":1099:1119  gatorContractAddress */\n  0x05\n    /* \"Contracts/TTSwapV1Coin.sol\":1099:1143  gatorContractAddress = _gatorContractAddress */\n  dup1\n  sload\n  sub(shl(0xa0, 0x01), 0x01)\n  swap4\n  dup5\n  and\n  not(sub(shl(0xa0, 0x01), 0x01))\n  swap2\n  dup3\n  and\n  or\n  swap1\n  swap2\n  sstore\n    /* \"Contracts/TTSwapV1Coin.sol\":1153:1176  marketorContractAddress */\n  0x06\n    /* \"Contracts/TTSwapV1Coin.sol\":1153:1203  marketorContractAddress = _marketorContractAddress */\n  dup1\n  sload\n  swap3\n  swap1\n  swap4\n  and\n  swap2\n  dup2\n  and\n  swap2\n  swap1\n  swap2\n  or\n  swap1\n  swap2\n  sstore\n    /* \"Contracts/TTSwapV1Coin.sol\":1213:1226  marketCreator */\n  0x07\n    /* \"Contracts/TTSwapV1Coin.sol\":1213:1239  marketCreator = msg.sender */\n  dup1\n  sload\n  swap1\n  swap2\n  and\n    /* \"Contracts/TTSwapV1Coin.sol\":1229:1239  msg.sender */\n  caller\n    /* \"Contracts/TTSwapV1Coin.sol\":1213:1239  marketCreator = msg.sender */\n  or\n  swap1\n  sstore\n    /* \"Contracts/TTSwapV1Coin.sol\":249:14047  contract TTSwapV1Coin is ITTSwapV1Coin {... */\n  jump(tag_8)\n    /* \"#utility.yul\":14:191   */\ntag_7:\n    /* \"#utility.yul\":93:106   */\n  dup1\n  mload\n  sub(shl(0xa0, 0x01), 0x01)\n    /* \"#utility.yul\":135:166   */\n  dup2\n  and\n    /* \"#utility.yul\":125:167   */\n  dup2\n  eq\n    /* \"#utility.yul\":115:185   */\n  tag_10\n  jumpi\n    /* \"#utility.yul\":181:182   */\n  0x00\n    /* \"#utility.yul\":178:179   */\n  dup1\n    /* \"#utility.yul\":171:183   */\n  revert\n    /* \"#utility.yul\":115:185   */\ntag_10:\n    /* \"#utility.yul\":14:191   */\n  swap2\n  swap1\n  pop\n  jump\t// out\n    /* \"#utility.yul\":196:489   */\ntag_3:\n    /* \"#utility.yul\":275:281   */\n  0x00\n    /* \"#utility.yul\":283:289   */\n  dup1\n    /* \"#utility.yul\":336:338   */\n  0x40\n    /* \"#utility.yul\":324:333   */\n  dup4\n    /* \"#utility.yul\":315:322   */\n  dup6\n    /* \"#utility.yul\":311:334   */\n  sub\n    /* \"#utility.yul\":307:339   */\n  slt\n    /* \"#utility.yul\":304:356   */\n  iszero\n  tag_12\n  jumpi\n    /* \"#utility.yul\":352:353   */\n  0x00\n    /* \"#utility.yul\":349:350   */\n  dup1\n    /* \"#utility.yul\":342:354   */\n  revert\n    /* \"#utility.yul\":304:356   */\ntag_12:\n    /* \"#utility.yul\":375:415   */\n  tag_13\n    /* \"#utility.yul\":405:414   */\n  dup4\n    /* \"#utility.yul\":375:415   */\n  tag_7\n  jump\t// in\ntag_13:\n    /* \"#utility.yul\":365:415   */\n  swap2\n  pop\n    /* \"#utility.yul\":434:483   */\n  tag_14\n    /* \"#utility.yul\":479:481   */\n  0x20\n    /* \"#utility.yul\":468:477   */\n  dup5\n    /* \"#utility.yul\":464:482   */\n  add\n    /* \"#utility.yul\":434:483   */\n  tag_7\n  jump\t// in\ntag_14:\n    /* \"#utility.yul\":424:483   */\n  swap1\n  pop\n    /* \"#utility.yul\":196:489   */\n  swap3\n  pop\n  swap3\n  swap1\n  pop\n  jump\t// out\ntag_8:\n    /* \"Contracts/TTSwapV1Coin.sol\":249:14047  contract TTSwapV1Coin is ITTSwapV1Coin {... */\n  dataSize(sub_0)\n  dup1\n  dataOffset(sub_0)\n  0x00\n  codecopy\n  0x00\n  return\nstop\n\nsub_0: assembly {\n        /* \"Contracts/TTSwapV1Coin.sol\":249:14047  contract TTSwapV1Coin is ITTSwapV1Coin {... */\n      mstore(0x40, 0x80)\n      callvalue\n      dup1\n      iszero\n      tag_1\n      jumpi\n      0x00\n      dup1\n      revert\n    tag_1:\n      pop\n      jumpi(tag_2, lt(calldatasize, 0x04))\n      shr(0xe0, calldataload(0x00))\n      dup1\n      0x690e1784\n      gt\n      tag_33\n      jumpi\n      dup1\n      0xb244cb29\n      gt\n      tag_34\n      jumpi\n      dup1\n      0xd25b9e58\n      gt\n      tag_35\n      jumpi\n      dup1\n      0xd25b9e58\n      eq\n      tag_29\n      jumpi\n      dup1\n      0xd848b5ba\n      eq\n      tag_30\n      jumpi\n      dup1\n      0xf022f417\n      eq\n      tag_31\n      jumpi\n      dup1\n      0xf8eeb665\n      eq\n      tag_32\n      jumpi\n      0x00\n      dup1\n      revert\n    tag_35:\n      dup1\n      0xb244cb29\n      eq\n      tag_25\n      jumpi\n      dup1\n      0xc23a9da2\n      eq\n      tag_26\n      jumpi\n      dup1\n      0xc6e39898\n      eq\n      tag_27\n      jumpi\n      dup1\n      0xd04dc91e\n      eq\n      tag_28\n      jumpi\n      0x00\n      dup1\n      revert\n    tag_34:\n      dup1\n      0x7c3e2f02\n      gt\n      tag_36\n      jumpi\n      dup1\n      0x7c3e2f02\n      eq\n      tag_21\n      jumpi\n      dup1\n      0x92a59f1f\n      eq\n      tag_22\n      jumpi\n      dup1\n      0x9e2c608c\n      eq\n      tag_23\n      jumpi\n      dup1\n      0xb20be2b4\n      eq\n      tag_24\n      jumpi\n      0x00\n      dup1\n      revert\n    tag_36:\n      dup1\n      0x690e1784\n      eq\n      tag_18\n      jumpi\n      dup1\n      0x6cedf640\n      eq\n      tag_19\n      jumpi\n      dup1\n      0x798fdafa\n      eq\n      tag_20\n      jumpi\n      0x00\n      dup1\n      revert\n    tag_33:\n      dup1\n      0x385e4b7a\n      gt\n      tag_37\n      jumpi\n      dup1\n      0x47d0a634\n      gt\n      tag_38\n      jumpi\n      dup1\n      0x47d0a634\n      eq\n      tag_14\n      jumpi\n      dup1\n      0x492b7107\n      eq\n      tag_15\n      jumpi\n      dup1\n      0x54d39318\n      eq\n      tag_16\n      jumpi\n      dup1\n      0x5e2c9314\n      eq\n      tag_17\n      jumpi\n      0x00\n      dup1\n      revert\n    tag_38:\n      dup1\n      0x385e4b7a\n      eq\n      tag_10\n      jumpi\n      dup1\n      0x3e68d831\n      eq\n      tag_11\n      jumpi\n      dup1\n      0x40e7bdc3\n      eq\n      tag_12\n      jumpi\n      dup1\n      0x441eb548\n      eq\n      tag_13\n      jumpi\n      0x00\n      dup1\n      revert\n    tag_37:\n      dup1\n      0x1d3b8f67\n      gt\n      tag_39\n      jumpi\n      dup1\n      0x1d3b8f67\n      eq\n      tag_6\n      jumpi\n      dup1\n      0x27cbaabe\n      eq\n      tag_7\n      jumpi\n      dup1\n      0x31ecdeb8\n      eq\n      tag_8\n      jumpi\n      dup1\n      0x328320bf\n      eq\n      tag_9\n      jumpi\n      0x00\n      dup1\n      revert\n    tag_39:\n      dup1\n      0x07cb20e8\n      eq\n      tag_3\n      jumpi\n      dup1\n      0x11cfa0bc\n      eq\n      tag_4\n      jumpi\n      dup1\n      0x128e641d\n      eq\n      tag_5\n      jumpi\n    tag_2:\n      0x00\n      dup1\n      revert\n        /* \"Contracts/TTSwapV1Coin.sol\":9261:10541  function addCoinFullinfobyGator(... */\n    tag_3:\n      tag_40\n      tag_41\n      calldatasize\n      0x04\n      tag_42\n      jump\t// in\n    tag_41:\n      tag_43\n      jump\t// in\n    tag_40:\n      stop\n        /* \"Contracts/TTSwapV1Coin.sol\":5938:6797  function impoveGateCoinbyMarketor(... */\n    tag_4:\n      tag_40\n      tag_45\n      calldatasize\n      0x04\n      tag_46\n      jump\t// in\n    tag_45:\n      tag_47\n      jump\t// in\n        /* \"Contracts/TTSwapV1Coin.sol\":3377:3652  function addCoinDetailInfobyMarketor(... */\n    tag_5:\n      tag_40\n      tag_49\n      calldatasize\n      0x04\n      tag_50\n      jump\t// in\n    tag_49:\n      tag_51\n      jump\t// in\n        /* \"Contracts/TTSwapV1Coin.sol\":5145:5352  function unlockCoinbyMarketor(... */\n    tag_6:\n      tag_40\n      tag_53\n      calldatasize\n      0x04\n      tag_46\n      jump\t// in\n    tag_53:\n      tag_54\n      jump\t// in\n        /* \"Contracts/TTSwapV1Coin.sol\":955:983  address public marketCreator */\n    tag_7:\n      sload(0x07)\n      tag_55\n      swap1\n      sub(shl(0xa0, 0x01), 0x01)\n      and\n      dup2\n      jump\n    tag_55:\n      mload(0x40)\n      sub(shl(0xa0, 0x01), 0x01)\n        /* \"#utility.yul\":3829:3861   */\n      swap1\n      swap2\n      and\n        /* \"#utility.yul\":3811:3862   */\n      dup2\n      mstore\n        /* \"#utility.yul\":3799:3801   */\n      0x20\n        /* \"#utility.yul\":3784:3802   */\n      add\n        /* \"Contracts/TTSwapV1Coin.sol\":955:983  address public marketCreator */\n    tag_57:\n      mload(0x40)\n      dup1\n      swap2\n      sub\n      swap1\n      return\n        /* \"Contracts/TTSwapV1Coin.sol\":753:799  mapping(address => LCoin.Info) public coinList */\n    tag_8:\n      tag_59\n      tag_60\n      calldatasize\n      0x04\n      tag_46\n      jump\t// in\n    tag_60:\n      0x03\n      0x20\n      dup2\n      swap1\n      mstore\n      0x00\n      swap2\n      dup3\n      mstore\n      0x40\n      swap1\n      swap2\n      keccak256\n      dup1\n      sload\n      0x01\n      dup3\n      add\n      sload\n      0x02\n      dup4\n      add\n      sload\n      swap4\n      dup4\n      add\n      sload\n      0x04\n      dup5\n      add\n      sload\n      0x05\n      dup6\n      add\n      sload\n      0x06\n      dup7\n      add\n      sload\n      0x07\n      swap1\n      swap7\n      add\n      sload\n      swap5\n      swap7\n      swap4\n      swap6\n      swap4\n      swap5\n      0xff\n      swap4\n      dup5\n      and\n      swap5\n      swap3\n      swap4\n      swap2\n      swap3\n      sub(shl(0xa0, 0x01), 0x01)\n      dup1\n      dup3\n      and\n      swap4\n      shl(0xa0, 0x01)\n      dup4\n      div\n      dup2\n      and\n      swap4\n      shl(0xa8, 0x01)\n      dup5\n      div\n      dup3\n      and\n      swap4\n      shl(0xb0, 0x01)\n      swap1\n      div\n      swap1\n      swap2\n      and\n      swap2\n      and\n      dup12\n      jump\n    tag_59:\n      0x40\n      dup1\n      mload\n        /* \"#utility.yul\":4455:4480   */\n      swap12\n      dup13\n      mstore\n        /* \"#utility.yul\":4511:4513   */\n      0x20\n        /* \"#utility.yul\":4496:4514   */\n      dup13\n      add\n        /* \"#utility.yul\":4489:4523   */\n      swap11\n      swap1\n      swap11\n      mstore\n        /* \"#utility.yul\":4539:4557   */\n      swap9\n      dup11\n      add\n        /* \"#utility.yul\":4532:4566   */\n      swap8\n      swap1\n      swap8\n      mstore\n        /* \"#utility.yul\":4614:4618   */\n      0xff\n        /* \"#utility.yul\":4602:4619   */\n      swap1\n      swap6\n      and\n        /* \"#utility.yul\":4597:4599   */\n      0x60\n        /* \"#utility.yul\":4582:4600   */\n      dup10\n      add\n        /* \"#utility.yul\":4575:4620   */\n      mstore\n        /* \"#utility.yul\":4651:4654   */\n      0x80\n        /* \"#utility.yul\":4636:4655   */\n      dup9\n      add\n        /* \"#utility.yul\":4629:4664   */\n      swap4\n      swap1\n      swap4\n      mstore\n        /* \"#utility.yul\":4695:4698   */\n      0xa0\n        /* \"#utility.yul\":4680:4699   */\n      dup8\n      add\n        /* \"#utility.yul\":4673:4708   */\n      swap2\n      swap1\n      swap2\n      mstore\n      sub(shl(0xa0, 0x01), 0x01)\n        /* \"#utility.yul\":4783:4798   */\n      swap1\n      dup2\n      and\n        /* \"#utility.yul\":4777:4780   */\n      0xc0\n        /* \"#utility.yul\":4762:4781   */\n      dup8\n      add\n        /* \"#utility.yul\":4755:4799   */\n      mstore\n        /* \"#utility.yul\":4843:4857   */\n      swap1\n      iszero\n        /* \"#utility.yul\":4836:4858   */\n      iszero\n        /* \"#utility.yul\":4830:4833   */\n      0xe0\n        /* \"#utility.yul\":4815:4834   */\n      dup7\n      add\n        /* \"#utility.yul\":4808:4859   */\n      mstore\n        /* \"#utility.yul\":4903:4917   */\n      swap1\n      iszero\n        /* \"#utility.yul\":4896:4918   */\n      iszero\n        /* \"#utility.yul\":4890:4893   */\n      0x0100\n        /* \"#utility.yul\":4875:4894   */\n      dup6\n      add\n        /* \"#utility.yul\":4868:4919   */\n      mstore\n        /* \"#utility.yul\":4963:4977   */\n      swap1\n      iszero\n        /* \"#utility.yul\":4956:4978   */\n      iszero\n        /* \"#utility.yul\":4950:4953   */\n      0x0120\n        /* \"#utility.yul\":4935:4954   */\n      dup5\n      add\n        /* \"#utility.yul\":4928:4979   */\n      mstore\n        /* \"#utility.yul\":5016:5032   */\n      and\n        /* \"#utility.yul\":5010:5013   */\n      0x0140\n        /* \"#utility.yul\":4995:5014   */\n      dup3\n      add\n        /* \"#utility.yul\":4988:5033   */\n      mstore\n        /* \"#utility.yul\":4442:4445   */\n      0x0160\n        /* \"#utility.yul\":4427:4446   */\n      add\n        /* \"Contracts/TTSwapV1Coin.sol\":753:799  mapping(address => LCoin.Info) public coinList */\n      tag_57\n        /* \"#utility.yul\":4049:5039   */\n      jump\n        /* \"Contracts/TTSwapV1Coin.sol\":13737:13891  function isValidCoin(... */\n    tag_9:\n      tag_64\n      tag_65\n      calldatasize\n      0x04\n      tag_46\n      jump\t// in\n    tag_65:\n      sub(shl(0xa0, 0x01), 0x01)\n        /* \"Contracts/TTSwapV1Coin.sol\":13849:13871  coinList[_coinAddress] */\n      and\n        /* \"Contracts/TTSwapV1Coin.sol\":13826:13830  bool */\n      0x00\n        /* \"Contracts/TTSwapV1Coin.sol\":13849:13871  coinList[_coinAddress] */\n      swap1\n      dup2\n      mstore\n        /* \"Contracts/TTSwapV1Coin.sol\":13849:13857  coinList */\n      0x03\n        /* \"Contracts/TTSwapV1Coin.sol\":13849:13871  coinList[_coinAddress] */\n      0x20\n      mstore\n      0x40\n      swap1\n      keccak256\n        /* \"Contracts/TTSwapV1Coin.sol\":13849:13884  coinList[_coinAddress].marketunlock */\n      0x06\n      add\n      sload\n      shl(0xa0, 0x01)\n      swap1\n      div\n      0xff\n      and\n      swap1\n        /* \"Contracts/TTSwapV1Coin.sol\":13737:13891  function isValidCoin(... */\n      jump\n    tag_64:\n      mload(0x40)\n        /* \"#utility.yul\":5209:5223   */\n      swap1\n      iszero\n        /* \"#utility.yul\":5202:5224   */\n      iszero\n        /* \"#utility.yul\":5184:5225   */\n      dup2\n      mstore\n        /* \"#utility.yul\":5172:5174   */\n      0x20\n        /* \"#utility.yul\":5157:5175   */\n      add\n        /* \"Contracts/TTSwapV1Coin.sol\":13737:13891  function isValidCoin(... */\n      tag_57\n        /* \"#utility.yul\":5044:5231   */\n      jump\n        /* \"Contracts/TTSwapV1Coin.sol\":10547:10911  function unlockCoinbyGator(... */\n    tag_10:\n      tag_40\n      tag_70\n      calldatasize\n      0x04\n      tag_46\n      jump\t// in\n    tag_70:\n      tag_71\n      jump\t// in\n        /* \"Contracts/TTSwapV1Coin.sol\":596:662  mapping(address => mapping(address => uint128)) public ownerCoinNo */\n    tag_11:\n      tag_72\n      tag_73\n      calldatasize\n      0x04\n      tag_74\n      jump\t// in\n    tag_73:\n      0x02\n      0x20\n      swap1\n      dup2\n      mstore\n      0x00\n      swap3\n      dup4\n      mstore\n      0x40\n      dup1\n      dup5\n      keccak256\n      swap1\n      swap2\n      mstore\n      swap1\n      dup3\n      mstore\n      swap1\n      keccak256\n      sload\n      sub(shl(0x80, 0x01), 0x01)\n      and\n      dup2\n      jump\n    tag_72:\n      mload(0x40)\n      sub(shl(0x80, 0x01), 0x01)\n        /* \"#utility.yul\":5665:5712   */\n      swap1\n      swap2\n      and\n        /* \"#utility.yul\":5647:5713   */\n      dup2\n      mstore\n        /* \"#utility.yul\":5635:5637   */\n      0x20\n        /* \"#utility.yul\":5620:5638   */\n      add\n        /* \"Contracts/TTSwapV1Coin.sol\":596:662  mapping(address => mapping(address => uint128)) public ownerCoinNo */\n      tag_57\n        /* \"#utility.yul\":5501:5719   */\n      jump\n        /* \"Contracts/TTSwapV1Coin.sol\":13897:14045  function getCoinMaxNo(... */\n    tag_12:\n      tag_72\n      tag_79\n      calldatasize\n      0x04\n      tag_46\n      jump\t// in\n    tag_79:\n      sub(shl(0xa0, 0x01), 0x01)\n        /* \"Contracts/TTSwapV1Coin.sol\":14014:14038  coinMaxNo[_owneraddress] */\n      and\n        /* \"Contracts/TTSwapV1Coin.sol\":13988:13995  uint128 */\n      0x00\n        /* \"Contracts/TTSwapV1Coin.sol\":14014:14038  coinMaxNo[_owneraddress] */\n      swap1\n      dup2\n      mstore\n      0x20\n      dup2\n      swap1\n      mstore\n      0x40\n      swap1\n      keccak256\n      sload\n      sub(shl(0x80, 0x01), 0x01)\n      and\n      swap1\n        /* \"Contracts/TTSwapV1Coin.sol\":13897:14045  function getCoinMaxNo(... */\n      jump\n        /* \"Contracts/TTSwapV1Coin.sol\":10917:11278  function lockCoinbyGator(... */\n    tag_13:\n      tag_40\n      tag_83\n      calldatasize\n      0x04\n      tag_46\n      jump\t// in\n    tag_83:\n      tag_84\n      jump\t// in\n        /* \"Contracts/TTSwapV1Coin.sol\":870:905  address public gatorContractAddress */\n    tag_14:\n      sload(0x05)\n      tag_55\n      swap1\n      sub(shl(0xa0, 0x01), 0x01)\n      and\n      dup2\n      jump\n        /* \"Contracts/TTSwapV1Coin.sol\":911:949  address public marketorContractAddress */\n    tag_15:\n      sload(0x06)\n      tag_55\n      swap1\n      sub(shl(0xa0, 0x01), 0x01)\n      and\n      dup2\n      jump\n        /* \"Contracts/TTSwapV1Coin.sol\":13394:13731  function getCoinInfoFromOwnerCoinNo(... */\n    tag_16:\n      tag_91\n      tag_92\n      calldatasize\n      0x04\n      tag_93\n      jump\t// in\n    tag_92:\n      tag_94\n      jump\t// in\n    tag_91:\n      mload(0x40)\n      tag_57\n      swap2\n      swap1\n      tag_96\n      jump\t// in\n        /* \"Contracts/TTSwapV1Coin.sol\":12705:13089  function delCoinbyGator(uint128 _coinNo) external override onlyGator {... */\n    tag_17:\n      tag_40\n      tag_98\n      calldatasize\n      0x04\n      tag_99\n      jump\t// in\n    tag_98:\n      tag_100\n      jump\t// in\n        /* \"Contracts/TTSwapV1Coin.sol\":480:548  mapping(address => mapping(uint128 => address)) public ownerCoinList */\n    tag_18:\n      tag_55\n      tag_102\n      calldatasize\n      0x04\n      tag_93\n      jump\t// in\n    tag_102:\n      0x01\n      0x20\n      swap1\n      dup2\n      mstore\n      0x00\n      swap3\n      dup4\n      mstore\n      0x40\n      dup1\n      dup5\n      keccak256\n      swap1\n      swap2\n      mstore\n      swap1\n      dup3\n      mstore\n      swap1\n      keccak256\n      sload\n      sub(shl(0xa0, 0x01), 0x01)\n      and\n      dup2\n      jump\n        /* \"Contracts/TTSwapV1Coin.sol\":805:863  mapping(address => LCoin.DetailInfo) public coinDetailList */\n    tag_19:\n      tag_105\n      tag_106\n      calldatasize\n      0x04\n      tag_46\n      jump\t// in\n    tag_106:\n      0x04\n      0x20\n      dup2\n      swap1\n      mstore\n      0x00\n      swap2\n      dup3\n      mstore\n      0x40\n      swap1\n      swap2\n      keccak256\n      dup1\n      sload\n      0x01\n      dup3\n      add\n      sload\n      0x02\n      dup4\n      add\n      sload\n      0x03\n      dup5\n      add\n      sload\n      swap5\n      dup5\n      add\n      sload\n      0x05\n      swap1\n      swap5\n      add\n      sload\n      sub(shl(0xa0, 0x01), 0x01)\n      swap1\n      swap4\n      and\n      swap5\n      swap2\n      swap4\n      swap1\n      swap3\n      dup7\n      jump\n    tag_105:\n      0x40\n      dup1\n      mload\n      sub(shl(0xa0, 0x01), 0x01)\n        /* \"#utility.yul\":7965:7997   */\n      swap1\n      swap8\n      and\n        /* \"#utility.yul\":7947:7998   */\n      dup8\n      mstore\n        /* \"#utility.yul\":8029:8031   */\n      0x20\n        /* \"#utility.yul\":8014:8032   */\n      dup8\n      add\n        /* \"#utility.yul\":8007:8041   */\n      swap6\n      swap1\n      swap6\n      mstore\n        /* \"#utility.yul\":8057:8075   */\n      swap4\n      dup6\n      add\n        /* \"#utility.yul\":8050:8084   */\n      swap3\n      swap1\n      swap3\n      mstore\n        /* \"#utility.yul\":8115:8117   */\n      0x60\n        /* \"#utility.yul\":8100:8118   */\n      dup5\n      add\n        /* \"#utility.yul\":8093:8127   */\n      mstore\n        /* \"#utility.yul\":8158:8161   */\n      0x80\n        /* \"#utility.yul\":8143:8162   */\n      dup4\n      add\n        /* \"#utility.yul\":8136:8171   */\n      mstore\n        /* \"#utility.yul\":7985:7988   */\n      0xa0\n        /* \"#utility.yul\":8187:8206   */\n      dup3\n      add\n        /* \"#utility.yul\":8180:8215   */\n      mstore\n        /* \"#utility.yul\":7934:7937   */\n      0xc0\n        /* \"#utility.yul\":7919:7938   */\n      add\n        /* \"Contracts/TTSwapV1Coin.sol\":805:863  mapping(address => LCoin.DetailInfo) public coinDetailList */\n      tag_57\n        /* \"#utility.yul\":7660:8221   */\n      jump\n        /* \"Contracts/TTSwapV1Coin.sol\":5358:5932  function updateCoinbyMarketor(... */\n    tag_20:\n      tag_40\n      tag_111\n      calldatasize\n      0x04\n      tag_112\n      jump\t// in\n    tag_111:\n      tag_113\n      jump\t// in\n        /* \"Contracts/TTSwapV1Coin.sol\":6803:7304  function delCoinbyMarketor(... */\n    tag_21:\n      tag_40\n      tag_115\n      calldatasize\n      0x04\n      tag_46\n      jump\t// in\n    tag_115:\n      tag_116\n      jump\t// in\n        /* \"Contracts/TTSwapV1Coin.sol\":12247:12699  function delCoinbyGator(... */\n    tag_22:\n      tag_40\n      tag_118\n      calldatasize\n      0x04\n      tag_46\n      jump\t// in\n    tag_118:\n      tag_119\n      jump\t// in\n        /* \"Contracts/TTSwapV1Coin.sol\":2410:3371  function addCoinbyMarketor(... */\n    tag_23:\n      tag_40\n      tag_121\n      calldatasize\n      0x04\n      tag_112\n      jump\t// in\n    tag_121:\n      tag_122\n      jump\t// in\n        /* \"Contracts/TTSwapV1Coin.sol\":4935:5139  function lockCoinbyMarketor(... */\n    tag_24:\n      tag_40\n      tag_124\n      calldatasize\n      0x04\n      tag_46\n      jump\t// in\n    tag_124:\n      tag_125\n      jump\t// in\n        /* \"Contracts/TTSwapV1Coin.sol\":1836:2163  function setCoinEnv(... */\n    tag_25:\n      tag_40\n      tag_127\n      calldatasize\n      0x04\n      tag_128\n      jump\t// in\n    tag_127:\n      tag_129\n      jump\t// in\n        /* \"Contracts/TTSwapV1Coin.sol\":11284:12241  function updateCoinbyGator(... */\n    tag_26:\n      tag_40\n      tag_131\n      calldatasize\n      0x04\n      tag_132\n      jump\t// in\n    tag_131:\n      tag_133\n      jump\t// in\n        /* \"Contracts/TTSwapV1Coin.sol\":8838:9255  function addCoinDetailInfobyGator(... */\n    tag_27:\n      tag_40\n      tag_135\n      calldatasize\n      0x04\n      tag_50\n      jump\t// in\n    tag_135:\n      tag_136\n      jump\t// in\n        /* \"Contracts/TTSwapV1Coin.sol\":7902:8832  function addCoinbyGator(... */\n    tag_28:\n      tag_40\n      tag_138\n      calldatasize\n      0x04\n      tag_112\n      jump\t// in\n    tag_138:\n      tag_139\n      jump\t// in\n        /* \"Contracts/TTSwapV1Coin.sol\":13095:13388  function getCoinInfoFromaddress(... */\n    tag_29:\n      tag_91\n      tag_141\n      calldatasize\n      0x04\n      tag_46\n      jump\t// in\n    tag_141:\n      tag_142\n      jump\t// in\n        /* \"Contracts/TTSwapV1Coin.sol\":326:370  mapping(address => uint128) public coinMaxNo */\n    tag_30:\n      tag_72\n      tag_145\n      calldatasize\n      0x04\n      tag_46\n      jump\t// in\n    tag_145:\n      0x00\n      0x20\n      dup2\n      swap1\n      mstore\n      swap1\n      dup2\n      mstore\n      0x40\n      swap1\n      keccak256\n      sload\n      sub(shl(0x80, 0x01), 0x01)\n      and\n      dup2\n      jump\n        /* \"Contracts/TTSwapV1Coin.sol\":7310:7764  function delCoinbyMarketor(uint128 _coinNo) external override onlyMarketor {... */\n    tag_31:\n      tag_40\n      tag_149\n      calldatasize\n      0x04\n      tag_99\n      jump\t// in\n    tag_149:\n      tag_150\n      jump\t// in\n        /* \"Contracts/TTSwapV1Coin.sol\":3766:4929  function addCoinFullinfobyMarketor(... */\n    tag_32:\n      tag_40\n      tag_152\n      calldatasize\n      0x04\n      tag_42\n      jump\t// in\n    tag_152:\n      tag_153\n      jump\t// in\n        /* \"Contracts/TTSwapV1Coin.sol\":9261:10541  function addCoinFullinfobyGator(... */\n    tag_43:\n        /* \"Contracts/TTSwapV1Coin.sol\":1521:1541  gatorContractAddress */\n      0x05\n      0x00\n      swap1\n      sload\n      swap1\n      0x0100\n      exp\n      swap1\n      div\n      sub(shl(0xa0, 0x01), 0x01)\n      and\n      sub(shl(0xa0, 0x01), 0x01)\n        /* \"Contracts/TTSwapV1Coin.sol\":1507:1555  IGatorV1State(gatorContractAddress).isValidGator */\n      and\n      0x54a460f6\n        /* \"Contracts/TTSwapV1Coin.sol\":1507:1557  IGatorV1State(gatorContractAddress).isValidGator() */\n      mload(0x40)\n      dup2\n      0xffffffff\n      and\n      0xe0\n      shl\n      dup2\n      mstore\n      0x04\n      add\n      0x20\n      mload(0x40)\n      dup1\n      dup4\n      sub\n      dup2\n      dup7\n      gas\n      staticcall\n      iszero\n      dup1\n      iszero\n      tag_156\n      jumpi\n      returndatasize\n      0x00\n      dup1\n      returndatacopy\n      revert(0x00, returndatasize)\n    tag_156:\n      pop\n      pop\n      pop\n      pop\n      mload(0x40)\n      returndatasize\n      not(0x1f)\n      0x1f\n      dup3\n      add\n      and\n      dup3\n      add\n      dup1\n      0x40\n      mstore\n      pop\n      dup2\n      add\n      swap1\n      tag_157\n      swap2\n      swap1\n      tag_158\n      jump\t// in\n    tag_157:\n        /* \"Contracts/TTSwapV1Coin.sol\":1499:1558  require(IGatorV1State(gatorContractAddress).isValidGator()) */\n      tag_159\n      jumpi\n      0x00\n      dup1\n      revert\n    tag_159:\n        /* \"Contracts/TTSwapV1Coin.sol\":9453:9478  _coinInfo.contractAddress */\n      0xc0\n      dup3\n      add\n      mload\n      sub(shl(0xa0, 0x01), 0x01)\n        /* \"Contracts/TTSwapV1Coin.sol\":9444:9479  coinList[_coinInfo.contractAddress] */\n      and\n      0x00\n      swap1\n      dup2\n      mstore\n        /* \"Contracts/TTSwapV1Coin.sol\":9444:9452  coinList */\n      0x03\n        /* \"Contracts/TTSwapV1Coin.sol\":9444:9479  coinList[_coinInfo.contractAddress] */\n      0x20\n      mstore\n      0x40\n      swap1\n      keccak256\n        /* \"Contracts/TTSwapV1Coin.sol\":9444:9486  coinList[_coinInfo.contractAddress].isUsed */\n      0x06\n      add\n      sload\n      shl(0xb0, 0x01)\n      swap1\n      div\n      0xff\n      and\n        /* \"Contracts/TTSwapV1Coin.sol\":9444:9494  coinList[_coinInfo.contractAddress].isUsed != true */\n      iszero\n      iszero\n        /* \"Contracts/TTSwapV1Coin.sol\":9490:9494  true */\n      0x01\n        /* \"Contracts/TTSwapV1Coin.sol\":9444:9494  coinList[_coinInfo.contractAddress].isUsed != true */\n      sub\n        /* \"Contracts/TTSwapV1Coin.sol\":9423:9538  require(... */\n      tag_161\n      jumpi\n      mload(0x40)\n      shl(0xe5, 0x461bcd)\n      dup2\n      mstore\n        /* \"#utility.yul\":9849:9851   */\n      0x20\n        /* \"Contracts/TTSwapV1Coin.sol\":9423:9538  require(... */\n      0x04\n      dup3\n      add\n        /* \"#utility.yul\":9831:9852   */\n      mstore\n        /* \"#utility.yul\":9888:9890   */\n      0x12\n        /* \"#utility.yul\":9868:9886   */\n      0x24\n      dup3\n      add\n        /* \"#utility.yul\":9861:9891   */\n      mstore\n      shl(0x72, 0x1d1a194818dbda5b881a5cc808195e1a5cdd)\n        /* \"#utility.yul\":9907:9925   */\n      0x44\n      dup3\n      add\n        /* \"#utility.yul\":9900:9948   */\n      mstore\n        /* \"#utility.yul\":9965:9983   */\n      0x64\n      add\n        /* \"Contracts/TTSwapV1Coin.sol\":9423:9538  require(... */\n    tag_162:\n      mload(0x40)\n      dup1\n      swap2\n      sub\n      swap1\n      revert\n    tag_161:\n        /* \"Contracts/TTSwapV1Coin.sol\":9568:9578  msg.sender */\n      caller\n        /* \"Contracts/TTSwapV1Coin.sol\":9548:9565  _coinInfo.creator */\n      0x0140\n      dup4\n      add\n        /* \"Contracts/TTSwapV1Coin.sol\":9548:9578  _coinInfo.creator = msg.sender */\n      dup2\n      swap1\n      mstore\n        /* \"Contracts/TTSwapV1Coin.sol\":9613:9618  false */\n      0x00\n        /* \"Contracts/TTSwapV1Coin.sol\":9588:9610  _coinInfo.marketunlock */\n      0xe0\n      dup5\n      add\n        /* \"Contracts/TTSwapV1Coin.sol\":9588:9618  _coinInfo.marketunlock = false */\n      dup2\n      swap1\n      mstore\n        /* \"Contracts/TTSwapV1Coin.sol\":9628:9648  _coinInfo.gateunlock */\n      0x0100\n      dup5\n      add\n        /* \"Contracts/TTSwapV1Coin.sol\":9628:9656  _coinInfo.gateunlock = false */\n      dup2\n      swap1\n      mstore\n        /* \"Contracts/TTSwapV1Coin.sol\":9588:9618  _coinInfo.marketunlock = false */\n      0x01\n        /* \"Contracts/TTSwapV1Coin.sol\":9666:9682  _coinInfo.isUsed */\n      0x0120\n      dup6\n      add\n        /* \"Contracts/TTSwapV1Coin.sol\":9666:9689  _coinInfo.isUsed = true */\n      dup2\n      swap1\n      mstore\n        /* \"Contracts/TTSwapV1Coin.sol\":9716:9737  coinMaxNo[msg.sender] */\n      swap2\n      dup2\n      mstore\n      0x20\n      dup2\n      swap1\n      mstore\n      0x40\n      swap1\n      keccak256\n      sload\n      sub(shl(0x80, 0x01), 0x01)\n      and\n        /* \"Contracts/TTSwapV1Coin.sol\":9716:9742  coinMaxNo[msg.sender] >= 1 */\n      lt\n      dup1\n      iszero\n      swap1\n        /* \"Contracts/TTSwapV1Coin.sol\":9716:9808  coinMaxNo[msg.sender] >= 1 &&... */\n      tag_164\n      jumpi\n      pop\n        /* \"Contracts/TTSwapV1Coin.sol\":9797:9807  msg.sender */\n      caller\n        /* \"Contracts/TTSwapV1Coin.sol\":9787:9796  coinMaxNo */\n      0x00\n        /* \"Contracts/TTSwapV1Coin.sol\":9787:9808  coinMaxNo[msg.sender] */\n      swap1\n      dup2\n      mstore\n      0x20\n      dup2\n      swap1\n      mstore\n      0x40\n      swap1\n      keccak256\n      sload\n      sub(shl(0x80, 0x01), 0x01)\n      and\n        /* \"Contracts/TTSwapV1Coin.sol\":9758:9783  coinMaxNo[msg.sender] + 1 */\n      tag_165\n        /* \"Contracts/TTSwapV1Coin.sol\":9787:9808  coinMaxNo[msg.sender] */\n      dup2\n      0x01\n        /* \"Contracts/TTSwapV1Coin.sol\":9758:9783  coinMaxNo[msg.sender] + 1 */\n      tag_166\n      jump\t// in\n    tag_165:\n      sub(shl(0x80, 0x01), 0x01)\n        /* \"Contracts/TTSwapV1Coin.sol\":9758:9808  coinMaxNo[msg.sender] + 1 >= coinMaxNo[msg.sender] */\n      and\n      lt\n      iszero\n        /* \"Contracts/TTSwapV1Coin.sol\":9716:9808  coinMaxNo[msg.sender] >= 1 &&... */\n    tag_164:\n        /* \"Contracts/TTSwapV1Coin.sol\":9699:9926  if (... */\n      iszero\n      tag_167\n      jumpi\n        /* \"Contracts/TTSwapV1Coin.sol\":9843:9853  msg.sender */\n      caller\n        /* \"Contracts/TTSwapV1Coin.sol\":9833:9842  coinMaxNo */\n      0x00\n        /* \"Contracts/TTSwapV1Coin.sol\":9833:9854  coinMaxNo[msg.sender] */\n      swap1\n      dup2\n      mstore\n      0x20\n      dup2\n      swap1\n      mstore\n      0x40\n      dup2\n      keccak256\n        /* \"Contracts/TTSwapV1Coin.sol\":9833:9859  coinMaxNo[msg.sender] += 1 */\n      dup1\n      sload\n        /* \"Contracts/TTSwapV1Coin.sol\":9858:9859  1 */\n      0x01\n      swap3\n        /* \"Contracts/TTSwapV1Coin.sol\":9833:9842  coinMaxNo */\n      swap1\n        /* \"Contracts/TTSwapV1Coin.sol\":9833:9859  coinMaxNo[msg.sender] += 1 */\n      tag_168\n      swap1\n        /* \"Contracts/TTSwapV1Coin.sol\":9858:9859  1 */\n      dup5\n      swap1\n      sub(shl(0x80, 0x01), 0x01)\n        /* \"Contracts/TTSwapV1Coin.sol\":9833:9859  coinMaxNo[msg.sender] += 1 */\n      and\n      tag_166\n      jump\t// in\n    tag_168:\n      swap3\n      pop\n      0x0100\n      exp\n      dup2\n      sload\n      dup2\n      sub(shl(0x80, 0x01), 0x01)\n      mul\n      not\n      and\n      swap1\n      dup4\n      sub(shl(0x80, 0x01), 0x01)\n      and\n      mul\n      or\n      swap1\n      sstore\n      pop\n        /* \"Contracts/TTSwapV1Coin.sol\":9699:9926  if (... */\n      jump(tag_169)\n    tag_167:\n        /* \"Contracts/TTSwapV1Coin.sol\":9900:9910  msg.sender */\n      caller\n        /* \"Contracts/TTSwapV1Coin.sol\":9890:9899  coinMaxNo */\n      0x00\n        /* \"Contracts/TTSwapV1Coin.sol\":9890:9911  coinMaxNo[msg.sender] */\n      swap1\n      dup2\n      mstore\n      0x20\n      dup2\n      swap1\n      mstore\n      0x40\n      swap1\n      keccak256\n        /* \"Contracts/TTSwapV1Coin.sol\":9890:9915  coinMaxNo[msg.sender] = 1 */\n      dup1\n      sload\n      not(sub(shl(0x80, 0x01), 0x01))\n      and\n        /* \"Contracts/TTSwapV1Coin.sol\":9914:9915  1 */\n      0x01\n        /* \"Contracts/TTSwapV1Coin.sol\":9890:9915  coinMaxNo[msg.sender] = 1 */\n      or\n      swap1\n      sstore\n        /* \"Contracts/TTSwapV1Coin.sol\":9699:9926  if (... */\n    tag_169:\n        /* \"Contracts/TTSwapV1Coin.sol\":9986:10024  _coinInfo... */\n      0xc0\n      dup3\n      add\n      dup1\n      mload\n        /* \"Contracts/TTSwapV1Coin.sol\":9949:9959  msg.sender */\n      caller\n        /* \"Contracts/TTSwapV1Coin.sol\":9935:9960  ownerCoinList[msg.sender] */\n      0x00\n      dup2\n      dup2\n      mstore\n        /* \"Contracts/TTSwapV1Coin.sol\":9935:9948  ownerCoinList */\n      0x01\n        /* \"Contracts/TTSwapV1Coin.sol\":9935:9960  ownerCoinList[msg.sender] */\n      0x20\n      dup2\n      dup2\n      mstore\n      0x40\n      dup1\n      dup5\n      keccak256\n        /* \"Contracts/TTSwapV1Coin.sol\":9961:9982  coinMaxNo[msg.sender] */\n      dup5\n      dup4\n      mstore\n      dup2\n      dup6\n      keccak256\n      dup1\n      sload\n      sub(shl(0x80, 0x01), 0x01)\n      swap1\n      dup2\n      and\n        /* \"Contracts/TTSwapV1Coin.sol\":9935:9983  ownerCoinList[msg.sender][coinMaxNo[msg.sender]] */\n      dup8\n      mstore\n      swap2\n      dup5\n      mstore\n      dup3\n      dup7\n      keccak256\n        /* \"Contracts/TTSwapV1Coin.sol\":9935:10024  ownerCoinList[msg.sender][coinMaxNo[msg.sender]] = _coinInfo... */\n      dup1\n      sload\n      sub(shl(0xa0, 0x01), 0x01)\n      swap10\n      dup11\n      and\n      not(sub(shl(0xa0, 0x01), 0x01))\n      swap2\n      dup3\n      and\n      or\n      swap1\n      swap2\n      sstore\n        /* \"Contracts/TTSwapV1Coin.sol\":10087:10130  coinMaxNo[... */\n      dup8\n      dup8\n      mstore\n      swap1\n      sload\n        /* \"Contracts/TTSwapV1Coin.sol\":10034:10045  ownerCoinNo */\n      0x02\n        /* \"Contracts/TTSwapV1Coin.sol\":10034:10057  ownerCoinNo[msg.sender] */\n      dup1\n      dup7\n      mstore\n      dup5\n      dup9\n      keccak256\n        /* \"Contracts/TTSwapV1Coin.sol\":10058:10083  _coinInfo.contractAddress */\n      dup12\n      mload\n        /* \"Contracts/TTSwapV1Coin.sol\":10034:10084  ownerCoinNo[msg.sender][_coinInfo.contractAddress] */\n      dup12\n      and\n      dup10\n      mstore\n      dup7\n      mstore\n      dup5\n      dup9\n      keccak256\n        /* \"Contracts/TTSwapV1Coin.sol\":10034:10130  ownerCoinNo[msg.sender][_coinInfo.contractAddress] = coinMaxNo[... */\n      dup1\n      sload\n      not(sub(shl(0x80, 0x01), 0x01))\n      and\n        /* \"Contracts/TTSwapV1Coin.sol\":10087:10130  coinMaxNo[... */\n      swap3\n      swap1\n      swap5\n      and\n        /* \"Contracts/TTSwapV1Coin.sol\":10034:10130  ownerCoinNo[msg.sender][_coinInfo.contractAddress] = coinMaxNo[... */\n      swap2\n      swap1\n      swap2\n      or\n      swap1\n      swap3\n      sstore\n        /* \"Contracts/TTSwapV1Coin.sol\":10149:10174  _coinInfo.contractAddress */\n      dup9\n      mload\n        /* \"Contracts/TTSwapV1Coin.sol\":10140:10175  coinList[_coinInfo.contractAddress] */\n      dup9\n      and\n      dup7\n      mstore\n        /* \"Contracts/TTSwapV1Coin.sol\":10140:10148  coinList */\n      0x03\n        /* \"Contracts/TTSwapV1Coin.sol\":10140:10175  coinList[_coinInfo.contractAddress] */\n      dup1\n      dup6\n      mstore\n      swap6\n      dup4\n      swap1\n      keccak256\n        /* \"Contracts/TTSwapV1Coin.sol\":10140:10187  coinList[_coinInfo.contractAddress] = _coinInfo */\n      dup12\n      mload\n      dup2\n      sstore\n      swap4\n      dup12\n      add\n      mload\n      swap5\n      dup5\n      add\n      swap5\n      swap1\n      swap5\n      sstore\n      dup2\n      dup11\n      add\n      mload\n      swap1\n      dup4\n      add\n      sstore\n      0x60\n      dup10\n      add\n      mload\n      swap4\n      dup3\n      add\n      dup1\n      sload\n      0xff\n      swap1\n      swap6\n      and\n      not(0xff)\n      swap1\n      swap6\n      and\n      swap5\n      swap1\n      swap5\n      or\n      swap1\n      swap4\n      sstore\n      0x80\n      dup9\n      add\n      mload\n      0x04\n      dup3\n      add\n      sstore\n      0xa0\n      dup9\n      add\n      mload\n      0x05\n      dup3\n      add\n      sstore\n      swap5\n      mload\n      0x06\n      dup7\n      add\n      dup1\n      sload\n      0xe0\n      dup11\n      add\n      mload\n        /* \"Contracts/TTSwapV1Coin.sol\":9961:9982  coinMaxNo[msg.sender] */\n      0x0100\n        /* \"Contracts/TTSwapV1Coin.sol\":10140:10187  coinList[_coinInfo.contractAddress] = _coinInfo */\n      dup12\n      add\n      mload\n      0x0120\n      dup13\n      add\n      mload\n      iszero\n      iszero\n      shl(0xb0, 0x01)\n      mul\n      not(shl(0xb0, 0xff))\n      swap2\n      iszero\n      iszero\n      shl(0xa8, 0x01)\n      mul\n      swap2\n      swap1\n      swap2\n      and\n      not(shl(0xa8, 0xffff))\n      swap3\n      iszero\n      iszero\n      shl(0xa0, 0x01)\n      mul\n      not(sub(shl(0xa8, 0x01), 0x01))\n      swap1\n      swap5\n      and\n      swap6\n      dup11\n      and\n      swap6\n      swap1\n      swap6\n      or\n      swap3\n      swap1\n      swap3\n      or\n      and\n      swap3\n      swap1\n      swap3\n      or\n      swap2\n      swap1\n      swap2\n      or\n      swap1\n      sstore\n      0x0140\n      dup8\n      add\n      mload\n      0x07\n      swap1\n      swap6\n      add\n      dup1\n      sload\n      swap6\n      swap1\n      swap5\n      and\n      swap5\n      and\n      swap4\n      swap1\n      swap4\n      or\n      swap1\n      swap2\n      sstore\n        /* \"Contracts/TTSwapV1Coin.sol\":10202:10241  e_addCoinbyGator(msg.sender, _coinInfo) */\n      swap1\n      mload\n      0x724ed868ad6195ec663de17364300ee1e1956f27f184ceb84f2be30d1fd58d65\n      swap2\n      tag_170\n      swap2\n        /* \"Contracts/TTSwapV1Coin.sol\":9986:9995  _coinInfo */\n      dup6\n      swap1\n        /* \"Contracts/TTSwapV1Coin.sol\":10202:10241  e_addCoinbyGator(msg.sender, _coinInfo) */\n      tag_171\n      jump\t// in\n    tag_170:\n      mload(0x40)\n      dup1\n      swap2\n      sub\n      swap1\n      log1\n        /* \"Contracts/TTSwapV1Coin.sol\":10281:10312  _coinDetailInfo.contractAddress */\n      dup1\n      mload\n      sub(shl(0xa0, 0x01), 0x01)\n        /* \"Contracts/TTSwapV1Coin.sol\":10272:10313  coinList[_coinDetailInfo.contractAddress] */\n      swap1\n      dup2\n      and\n      0x00\n      swap1\n      dup2\n      mstore\n        /* \"Contracts/TTSwapV1Coin.sol\":10272:10280  coinList */\n      0x03\n        /* \"Contracts/TTSwapV1Coin.sol\":10272:10313  coinList[_coinDetailInfo.contractAddress] */\n      0x20\n      mstore\n      0x40\n      swap1\n      keccak256\n        /* \"Contracts/TTSwapV1Coin.sol\":10272:10321  coinList[_coinDetailInfo.contractAddress].creator */\n      0x07\n      add\n      sload\n      and\n        /* \"Contracts/TTSwapV1Coin.sol\":10325:10335  msg.sender */\n      caller\n        /* \"Contracts/TTSwapV1Coin.sol\":10272:10335  coinList[_coinDetailInfo.contractAddress].creator == msg.sender */\n      eq\n        /* \"Contracts/TTSwapV1Coin.sol\":10251:10389  require(... */\n      tag_172\n      jumpi\n      mload(0x40)\n      shl(0xe5, 0x461bcd)\n      dup2\n      mstore\n        /* \"#utility.yul\":10835:10837   */\n      0x20\n        /* \"Contracts/TTSwapV1Coin.sol\":10251:10389  require(... */\n      0x04\n      dup3\n      add\n        /* \"#utility.yul\":10817:10838   */\n      mstore\n        /* \"#utility.yul\":10874:10876   */\n      0x1c\n        /* \"#utility.yul\":10854:10872   */\n      0x24\n      dup3\n      add\n        /* \"#utility.yul\":10847:10877   */\n      mstore\n        /* \"#utility.yul\":10913:10943   */\n      0x796f75206973206e6f7420746865207468696e67206372656174657200000000\n        /* \"#utility.yul\":10893:10911   */\n      0x44\n      dup3\n      add\n        /* \"#utility.yul\":10886:10944   */\n      mstore\n        /* \"#utility.yul\":10961:10979   */\n      0x64\n      add\n        /* \"Contracts/TTSwapV1Coin.sol\":10251:10389  require(... */\n      tag_162\n        /* \"#utility.yul\":10633:10985   */\n      jump\n        /* \"Contracts/TTSwapV1Coin.sol\":10251:10389  require(... */\n    tag_172:\n        /* \"Contracts/TTSwapV1Coin.sol\":10414:10445  _coinDetailInfo.contractAddress */\n      dup1\n      mload\n      sub(shl(0xa0, 0x01), 0x01)\n        /* \"Contracts/TTSwapV1Coin.sol\":10399:10446  coinDetailList[_coinDetailInfo.contractAddress] */\n      swap1\n      dup2\n      and\n      0x00\n      swap1\n      dup2\n      mstore\n        /* \"Contracts/TTSwapV1Coin.sol\":10399:10413  coinDetailList */\n      0x04\n        /* \"Contracts/TTSwapV1Coin.sol\":10399:10446  coinDetailList[_coinDetailInfo.contractAddress] */\n      0x20\n      dup2\n      dup2\n      mstore\n      0x40\n      swap3\n      dup4\n      swap1\n      keccak256\n        /* \"Contracts/TTSwapV1Coin.sol\":10399:10464  coinDetailList[_coinDetailInfo.contractAddress] = _coinDetailInfo */\n      dup6\n      mload\n      dup2\n      sload\n      not(sub(shl(0xa0, 0x01), 0x01))\n      and\n      swap6\n      and\n      swap5\n      dup6\n      or\n      dup2\n      sstore\n      dup2\n      dup7\n      add\n      mload\n      0x01\n      dup3\n      add\n      sstore\n      dup4\n      dup7\n      add\n      mload\n      0x02\n      dup3\n      add\n      sstore\n      0x60\n      dup7\n      add\n      mload\n      0x03\n      dup3\n      add\n      sstore\n      0x80\n      dup7\n      add\n      mload\n      swap3\n      dup2\n      add\n      swap3\n      swap1\n      swap3\n      sstore\n      0xa0\n      dup6\n      add\n      mload\n      0x05\n      swap1\n      swap3\n      add\n      swap2\n      swap1\n      swap2\n      sstore\n        /* \"Contracts/TTSwapV1Coin.sol\":10479:10534  e_addCoinDetailbyGator(_coinDetailInfo.contractAddress) */\n      swap1\n      mload\n        /* \"#utility.yul\":3811:3862   */\n      swap2\n      dup3\n      mstore\n        /* \"Contracts/TTSwapV1Coin.sol\":10479:10534  e_addCoinDetailbyGator(_coinDetailInfo.contractAddress) */\n      0x28995a3cc31b8867e272bf05bb4f577da5e81799e17cf729d123edf7c2a7ca94\n      swap2\n        /* \"#utility.yul\":3784:3802   */\n      add\n        /* \"Contracts/TTSwapV1Coin.sol\":10479:10534  e_addCoinDetailbyGator(_coinDetailInfo.contractAddress) */\n    tag_175:\n      mload(0x40)\n      dup1\n      swap2\n      sub\n      swap1\n      log1\n        /* \"Contracts/TTSwapV1Coin.sol\":9261:10541  function addCoinFullinfobyGator(... */\n      pop\n      pop\n      jump\t// out\n        /* \"Contracts/TTSwapV1Coin.sol\":5938:6797  function impoveGateCoinbyMarketor(... */\n    tag_47:\n        /* \"Contracts/TTSwapV1Coin.sol\":1641:1664  marketorContractAddress */\n      0x06\n      0x00\n      swap1\n      sload\n      swap1\n      0x0100\n      exp\n      swap1\n      div\n      sub(shl(0xa0, 0x01), 0x01)\n      and\n      sub(shl(0xa0, 0x01), 0x01)\n        /* \"Contracts/TTSwapV1Coin.sol\":1624:1681  IMarketorV1State(marketorContractAddress).isValidMarketor */\n      and\n      0xad87d2ba\n        /* \"Contracts/TTSwapV1Coin.sol\":1624:1683  IMarketorV1State(marketorContractAddress).isValidMarketor() */\n      mload(0x40)\n      dup2\n      0xffffffff\n      and\n      0xe0\n      shl\n      dup2\n      mstore\n      0x04\n      add\n      0x20\n      mload(0x40)\n      dup1\n      dup4\n      sub\n      dup2\n      dup7\n      gas\n      staticcall\n      iszero\n      dup1\n      iszero\n      tag_178\n      jumpi\n      returndatasize\n      0x00\n      dup1\n      returndatacopy\n      revert(0x00, returndatasize)\n    tag_178:\n      pop\n      pop\n      pop\n      pop\n      mload(0x40)\n      returndatasize\n      not(0x1f)\n      0x1f\n      dup3\n      add\n      and\n      dup3\n      add\n      dup1\n      0x40\n      mstore\n      pop\n      dup2\n      add\n      swap1\n      tag_179\n      swap2\n      swap1\n      tag_158\n      jump\t// in\n    tag_179:\n        /* \"Contracts/TTSwapV1Coin.sol\":1616:1684  require(IMarketorV1State(marketorContractAddress).isValidMarketor()) */\n      tag_180\n      jumpi\n      0x00\n      dup1\n      revert\n    tag_180:\n      sub(shl(0xa0, 0x01), 0x01)\n        /* \"Contracts/TTSwapV1Coin.sol\":6074:6100  coinList[_contractaddress] */\n      dup2\n      and\n      0x00\n      swap1\n      dup2\n      mstore\n        /* \"Contracts/TTSwapV1Coin.sol\":6074:6082  coinList */\n      0x03\n        /* \"Contracts/TTSwapV1Coin.sol\":6074:6100  coinList[_contractaddress] */\n      0x20\n      mstore\n      0x40\n      swap1\n      keccak256\n        /* \"Contracts/TTSwapV1Coin.sol\":6074:6107  coinList[_contractaddress].isUsed */\n      0x06\n      add\n        /* \"Contracts/TTSwapV1Coin.sol\":6074:6114  coinList[_contractaddress].isUsed = true */\n      dup1\n      sload\n      not(shl(0xb0, 0xff))\n      and\n      shl(0xb0, 0x01)\n      or\n      swap1\n      sstore\n        /* \"Contracts/TTSwapV1Coin.sol\":6205:6228  marketorContractAddress */\n      sload(0x06)\n      sub(shl(0xa0, 0x01), 0x01)\n      swap1\n      dup2\n      and\n        /* \"Contracts/TTSwapV1Coin.sol\":6250:6251  0 */\n      0x00\n        /* \"Contracts/TTSwapV1Coin.sol\":6193:6229  ownerCoinNo[marketorContractAddress] */\n      swap1\n      dup2\n      mstore\n        /* \"Contracts/TTSwapV1Coin.sol\":6193:6204  ownerCoinNo */\n      0x02\n        /* \"Contracts/TTSwapV1Coin.sol\":6193:6229  ownerCoinNo[marketorContractAddress] */\n      0x20\n      swap1\n      dup2\n      mstore\n      0x40\n      dup1\n      dup4\n      keccak256\n        /* \"Contracts/TTSwapV1Coin.sol\":6193:6247  ownerCoinNo[marketorContractAddress][_contractaddress] */\n      swap4\n      dup6\n      and\n      dup4\n      mstore\n      swap3\n      swap1\n      mstore\n      keccak256\n      sload\n      sub(shl(0x80, 0x01), 0x01)\n      and\n        /* \"Contracts/TTSwapV1Coin.sol\":6172:6306  require(... */\n      tag_185\n      jumpi\n      mload(0x40)\n      shl(0xe5, 0x461bcd)\n      dup2\n      mstore\n        /* \"#utility.yul\":11543:11545   */\n      0x20\n        /* \"Contracts/TTSwapV1Coin.sol\":6172:6306  require(... */\n      0x04\n      dup3\n      add\n        /* \"#utility.yul\":11525:11546   */\n      mstore\n        /* \"#utility.yul\":11582:11584   */\n      0x1d\n        /* \"#utility.yul\":11562:11580   */\n      0x24\n      dup3\n      add\n        /* \"#utility.yul\":11555:11585   */\n      mstore\n        /* \"#utility.yul\":11621:11652   */\n      0x74686520636f696e206973202065786973747320696e206d61726b6574000000\n        /* \"#utility.yul\":11601:11619   */\n      0x44\n      dup3\n      add\n        /* \"#utility.yul\":11594:11653   */\n      mstore\n        /* \"#utility.yul\":11670:11688   */\n      0x64\n      add\n        /* \"Contracts/TTSwapV1Coin.sol\":6172:6306  require(... */\n      tag_162\n        /* \"#utility.yul\":11341:11694   */\n      jump\n        /* \"Contracts/TTSwapV1Coin.sol\":6172:6306  require(... */\n    tag_185:\n        /* \"Contracts/TTSwapV1Coin.sol\":6347:6370  marketorContractAddress */\n      and(sub(shl(0xa0, 0x01), 0x01), sload(0x06))\n        /* \"Contracts/TTSwapV1Coin.sol\":6316:6334  uint128 coin_MaxNo */\n      0x00\n        /* \"Contracts/TTSwapV1Coin.sol\":6337:6371  coinMaxNo[marketorContractAddress] */\n      swap1\n      dup2\n      mstore\n      0x20\n      dup2\n      swap1\n      mstore\n      0x40\n      swap1\n      keccak256\n      sload\n      sub(shl(0x80, 0x01), 0x01)\n      and\n        /* \"Contracts/TTSwapV1Coin.sol\":6347:6370  marketorContractAddress */\n      0x01\n        /* \"Contracts/TTSwapV1Coin.sol\":6385:6400  coin_MaxNo >= 1 */\n      dup2\n      lt\n      dup1\n      iszero\n      swap1\n        /* \"Contracts/TTSwapV1Coin.sol\":6385:6432  coin_MaxNo >= 1 && coin_MaxNo + 1 >= coin_MaxNo */\n      tag_188\n      jumpi\n      pop\n      sub(shl(0x80, 0x01), 0x01)\n        /* \"Contracts/TTSwapV1Coin.sol\":6404:6432  coin_MaxNo + 1 >= coin_MaxNo */\n      dup2\n      and\n        /* \"Contracts/TTSwapV1Coin.sol\":6404:6418  coin_MaxNo + 1 */\n      tag_189\n        /* \"Contracts/TTSwapV1Coin.sol\":6422:6432  coin_MaxNo */\n      dup3\n        /* \"Contracts/TTSwapV1Coin.sol\":6417:6418  1 */\n      0x01\n        /* \"Contracts/TTSwapV1Coin.sol\":6404:6418  coin_MaxNo + 1 */\n      tag_166\n      jump\t// in\n    tag_189:\n      sub(shl(0x80, 0x01), 0x01)\n        /* \"Contracts/TTSwapV1Coin.sol\":6404:6432  coin_MaxNo + 1 >= coin_MaxNo */\n      and\n      lt\n      iszero\n        /* \"Contracts/TTSwapV1Coin.sol\":6385:6432  coin_MaxNo >= 1 && coin_MaxNo + 1 >= coin_MaxNo */\n    tag_188:\n        /* \"Contracts/TTSwapV1Coin.sol\":6381:6519  if (coin_MaxNo >= 1 && coin_MaxNo + 1 >= coin_MaxNo) {... */\n      iszero\n      tag_190\n      jumpi\n        /* \"Contracts/TTSwapV1Coin.sol\":6448:6463  coin_MaxNo += 1 */\n      tag_191\n        /* \"Contracts/TTSwapV1Coin.sol\":6462:6463  1 */\n      0x01\n        /* \"Contracts/TTSwapV1Coin.sol\":6448:6463  coin_MaxNo += 1 */\n      dup3\n      tag_166\n      jump\t// in\n    tag_191:\n      swap1\n      pop\n        /* \"Contracts/TTSwapV1Coin.sol\":6381:6519  if (coin_MaxNo >= 1 && coin_MaxNo + 1 >= coin_MaxNo) {... */\n      jump(tag_192)\n    tag_190:\n      pop\n        /* \"Contracts/TTSwapV1Coin.sol\":6507:6508  1 */\n      0x01\n        /* \"Contracts/TTSwapV1Coin.sol\":6381:6519  if (coin_MaxNo >= 1 && coin_MaxNo + 1 >= coin_MaxNo) {... */\n    tag_192:\n        /* \"Contracts/TTSwapV1Coin.sol\":6538:6561  marketorContractAddress */\n      0x06\n      dup1\n      sload\n      sub(shl(0xa0, 0x01), 0x01)\n      swap1\n      dup2\n      and\n        /* \"Contracts/TTSwapV1Coin.sol\":6528:6537  coinMaxNo */\n      0x00\n        /* \"Contracts/TTSwapV1Coin.sol\":6528:6562  coinMaxNo[marketorContractAddress] */\n      swap1\n      dup2\n      mstore\n      0x20\n      dup2\n      dup2\n      mstore\n      0x40\n      dup1\n      dup4\n      keccak256\n        /* \"Contracts/TTSwapV1Coin.sol\":6528:6575  coinMaxNo[marketorContractAddress] = coin_MaxNo */\n      dup1\n      sload\n      not(sub(shl(0x80, 0x01), 0x01))\n      swap1\n      dup2\n      and\n      sub(shl(0x80, 0x01), 0x01)\n      dup10\n      and\n      swap1\n      dup2\n      or\n      swap1\n      swap3\n      sstore\n        /* \"Contracts/TTSwapV1Coin.sol\":6599:6622  marketorContractAddress */\n      dup7\n      sload\n      dup7\n      and\n        /* \"Contracts/TTSwapV1Coin.sol\":6585:6623  ownerCoinList[marketorContractAddress] */\n      dup6\n      mstore\n      0x01\n      dup5\n      mstore\n      dup3\n      dup6\n      keccak256\n        /* \"Contracts/TTSwapV1Coin.sol\":6585:6635  ownerCoinList[marketorContractAddress][coin_MaxNo] */\n      dup3\n      dup7\n      mstore\n      dup5\n      mstore\n      dup3\n      dup6\n      keccak256\n        /* \"Contracts/TTSwapV1Coin.sol\":6585:6654  ownerCoinList[marketorContractAddress][coin_MaxNo] = _contractaddress */\n      dup1\n      sload\n      not(sub(shl(0xa0, 0x01), 0x01))\n      and\n      dup11\n      dup9\n      and\n      swap1\n      dup2\n      or\n      swap1\n      swap2\n      sstore\n        /* \"Contracts/TTSwapV1Coin.sol\":6676:6699  marketorContractAddress */\n      swap7\n      sload\n      swap1\n      swap6\n      and\n        /* \"Contracts/TTSwapV1Coin.sol\":6664:6700  ownerCoinNo[marketorContractAddress] */\n      dup5\n      mstore\n        /* \"Contracts/TTSwapV1Coin.sol\":6664:6675  ownerCoinNo */\n      0x02\n        /* \"Contracts/TTSwapV1Coin.sol\":6664:6700  ownerCoinNo[marketorContractAddress] */\n      dup4\n      mstore\n      dup2\n      dup5\n      keccak256\n        /* \"Contracts/TTSwapV1Coin.sol\":6664:6718  ownerCoinNo[marketorContractAddress][_contractaddress] */\n      dup7\n      dup6\n      mstore\n      dup4\n      mstore\n      swap3\n      dup2\n      swap1\n      keccak256\n        /* \"Contracts/TTSwapV1Coin.sol\":6664:6731  ownerCoinNo[marketorContractAddress][_contractaddress] = coin_MaxNo */\n      dup1\n      sload\n      swap1\n      swap5\n      and\n      swap1\n      swap3\n      or\n      swap1\n      swap3\n      sstore\n        /* \"Contracts/TTSwapV1Coin.sol\":6746:6790  e_impoveGateCoinbyMarketor(_contractaddress) */\n      mload\n        /* \"#utility.yul\":3811:3862   */\n      swap2\n      dup3\n      mstore\n        /* \"Contracts/TTSwapV1Coin.sol\":6746:6790  e_impoveGateCoinbyMarketor(_contractaddress) */\n      0x787b8074a2db1bf64dac1e916753253472acc7c1fff144fae6d14142860d890b\n      swap2\n        /* \"#utility.yul\":3784:3802   */\n      add\n        /* \"Contracts/TTSwapV1Coin.sol\":6746:6790  e_impoveGateCoinbyMarketor(_contractaddress) */\n      tag_175\n        /* \"#utility.yul\":3665:3868   */\n      jump\n        /* \"Contracts/TTSwapV1Coin.sol\":3377:3652  function addCoinDetailInfobyMarketor(... */\n    tag_51:\n        /* \"Contracts/TTSwapV1Coin.sol\":1641:1664  marketorContractAddress */\n      0x06\n      0x00\n      swap1\n      sload\n      swap1\n      0x0100\n      exp\n      swap1\n      div\n      sub(shl(0xa0, 0x01), 0x01)\n      and\n      sub(shl(0xa0, 0x01), 0x01)\n        /* \"Contracts/TTSwapV1Coin.sol\":1624:1681  IMarketorV1State(marketorContractAddress).isValidMarketor */\n      and\n      0xad87d2ba\n        /* \"Contracts/TTSwapV1Coin.sol\":1624:1683  IMarketorV1State(marketorContractAddress).isValidMarketor() */\n      mload(0x40)\n      dup2\n      0xffffffff\n      and\n      0xe0\n      shl\n      dup2\n      mstore\n      0x04\n      add\n      0x20\n      mload(0x40)\n      dup1\n      dup4\n      sub\n      dup2\n      dup7\n      gas\n      staticcall\n      iszero\n      dup1\n      iszero\n      tag_196\n      jumpi\n      returndatasize\n      0x00\n      dup1\n      returndatacopy\n      revert(0x00, returndatasize)\n    tag_196:\n      pop\n      pop\n      pop\n      pop\n      mload(0x40)\n      returndatasize\n      not(0x1f)\n      0x1f\n      dup3\n      add\n      and\n      dup3\n      add\n      dup1\n      0x40\n      mstore\n      pop\n      dup2\n      add\n      swap1\n      tag_197\n      swap2\n      swap1\n      tag_158\n      jump\t// in\n    tag_197:\n        /* \"Contracts/TTSwapV1Coin.sol\":1616:1684  require(IMarketorV1State(marketorContractAddress).isValidMarketor()) */\n      tag_198\n      jumpi\n      0x00\n      dup1\n      revert\n    tag_198:\n        /* \"Contracts/TTSwapV1Coin.sol\":3525:3556  _coinDetailInfo.contractAddress */\n      dup1\n      mload\n      sub(shl(0xa0, 0x01), 0x01)\n        /* \"Contracts/TTSwapV1Coin.sol\":3510:3557  coinDetailList[_coinDetailInfo.contractAddress] */\n      swap1\n      dup2\n      and\n      0x00\n      swap1\n      dup2\n      mstore\n        /* \"Contracts/TTSwapV1Coin.sol\":3510:3524  coinDetailList */\n      0x04\n        /* \"Contracts/TTSwapV1Coin.sol\":3510:3557  coinDetailList[_coinDetailInfo.contractAddress] */\n      0x20\n      dup2\n      dup2\n      mstore\n      0x40\n      swap3\n      dup4\n      swap1\n      keccak256\n        /* \"Contracts/TTSwapV1Coin.sol\":3510:3575  coinDetailList[_coinDetailInfo.contractAddress] = _coinDetailInfo */\n      dup6\n      mload\n      dup2\n      sload\n      not(sub(shl(0xa0, 0x01), 0x01))\n      and\n      swap6\n      and\n      swap5\n      dup6\n      or\n      dup2\n      sstore\n      dup2\n      dup7\n      add\n      mload\n      0x01\n      dup3\n      add\n      sstore\n      dup4\n      dup7\n      add\n      mload\n      0x02\n      dup3\n      add\n      sstore\n      0x60\n      dup7\n      add\n      mload\n      0x03\n      dup3\n      add\n      sstore\n      0x80\n      dup7\n      add\n      mload\n      swap3\n      dup2\n      add\n      swap3\n      swap1\n      swap3\n      sstore\n      0xa0\n      dup6\n      add\n      mload\n      0x05\n      swap1\n      swap3\n      add\n      swap2\n      swap1\n      swap2\n      sstore\n        /* \"Contracts/TTSwapV1Coin.sol\":3590:3645  e_addCoinDetailbyGator(_coinDetailInfo.contractAddress) */\n      swap1\n      mload\n        /* \"#utility.yul\":3811:3862   */\n      swap2\n      dup3\n      mstore\n        /* \"Contracts/TTSwapV1Coin.sol\":3590:3645  e_addCoinDetailbyGator(_coinDetailInfo.contractAddress) */\n      0x28995a3cc31b8867e272bf05bb4f577da5e81799e17cf729d123edf7c2a7ca94\n      swap2\n        /* \"#utility.yul\":3784:3802   */\n      add\n        /* \"Contracts/TTSwapV1Coin.sol\":3590:3645  e_addCoinDetailbyGator(_coinDetailInfo.contractAddress) */\n    tag_200:\n      mload(0x40)\n      dup1\n      swap2\n      sub\n      swap1\n      log1\n        /* \"Contracts/TTSwapV1Coin.sol\":3377:3652  function addCoinDetailInfobyMarketor(... */\n      pop\n      jump\t// out\n        /* \"Contracts/TTSwapV1Coin.sol\":5145:5352  function unlockCoinbyMarketor(... */\n    tag_54:\n        /* \"Contracts/TTSwapV1Coin.sol\":1641:1664  marketorContractAddress */\n      0x06\n      0x00\n      swap1\n      sload\n      swap1\n      0x0100\n      exp\n      swap1\n      div\n      sub(shl(0xa0, 0x01), 0x01)\n      and\n      sub(shl(0xa0, 0x01), 0x01)\n        /* \"Contracts/TTSwapV1Coin.sol\":1624:1681  IMarketorV1State(marketorContractAddress).isValidMarketor */\n      and\n      0xad87d2ba\n        /* \"Contracts/TTSwapV1Coin.sol\":1624:1683  IMarketorV1State(marketorContractAddress).isValidMarketor() */\n      mload(0x40)\n      dup2\n      0xffffffff\n      and\n      0xe0\n      shl\n      dup2\n      mstore\n      0x04\n      add\n      0x20\n      mload(0x40)\n      dup1\n      dup4\n      sub\n      dup2\n      dup7\n      gas\n      staticcall\n      iszero\n      dup1\n      iszero\n      tag_203\n      jumpi\n      returndatasize\n      0x00\n      dup1\n      returndatacopy\n      revert(0x00, returndatasize)\n    tag_203:\n      pop\n      pop\n      pop\n      pop\n      mload(0x40)\n      returndatasize\n      not(0x1f)\n      0x1f\n      dup3\n      add\n      and\n      dup3\n      add\n      dup1\n      0x40\n      mstore\n      pop\n      dup2\n      add\n      swap1\n      tag_204\n      swap2\n      swap1\n      tag_158\n      jump\t// in\n    tag_204:\n        /* \"Contracts/TTSwapV1Coin.sol\":1616:1684  require(IMarketorV1State(marketorContractAddress).isValidMarketor()) */\n      tag_205\n      jumpi\n      0x00\n      dup1\n      revert\n    tag_205:\n      sub(shl(0xa0, 0x01), 0x01)\n        /* \"Contracts/TTSwapV1Coin.sol\":5252:5274  coinList[_CoinAddress] */\n      dup2\n      and\n      0x00\n      dup2\n      dup2\n      mstore\n        /* \"Contracts/TTSwapV1Coin.sol\":5252:5260  coinList */\n      0x03\n        /* \"Contracts/TTSwapV1Coin.sol\":5252:5274  coinList[_CoinAddress] */\n      0x20\n      swap1\n      dup2\n      mstore\n      0x40\n      swap2\n      dup3\n      swap1\n      keccak256\n        /* \"Contracts/TTSwapV1Coin.sol\":5252:5287  coinList[_CoinAddress].marketunlock */\n      0x06\n      add\n        /* \"Contracts/TTSwapV1Coin.sol\":5252:5294  coinList[_CoinAddress].marketunlock = true */\n      dup1\n      sload\n      not(shl(0xa0, 0xff))\n      and\n      shl(0xa0, 0x01)\n      or\n      swap1\n      sstore\n        /* \"Contracts/TTSwapV1Coin.sol\":5309:5345  e_unlockCoinbyMarketor(_CoinAddress) */\n      swap1\n      mload\n        /* \"#utility.yul\":3811:3862   */\n      swap2\n      dup3\n      mstore\n        /* \"Contracts/TTSwapV1Coin.sol\":5309:5345  e_unlockCoinbyMarketor(_CoinAddress) */\n      0xac01100c10be15fec1a42f8249abc04b81a28e731feab3e60a2a962f74eff9d8\n      swap2\n        /* \"#utility.yul\":3784:3802   */\n      add\n        /* \"Contracts/TTSwapV1Coin.sol\":5309:5345  e_unlockCoinbyMarketor(_CoinAddress) */\n      tag_200\n        /* \"#utility.yul\":3665:3868   */\n      jump\n        /* \"Contracts/TTSwapV1Coin.sol\":10547:10911  function unlockCoinbyGator(... */\n    tag_71:\n        /* \"Contracts/TTSwapV1Coin.sol\":1521:1541  gatorContractAddress */\n      0x05\n      0x00\n      swap1\n      sload\n      swap1\n      0x0100\n      exp\n      swap1\n      div\n      sub(shl(0xa0, 0x01), 0x01)\n      and\n      sub(shl(0xa0, 0x01), 0x01)\n        /* \"Contracts/TTSwapV1Coin.sol\":1507:1555  IGatorV1State(gatorContractAddress).isValidGator */\n      and\n      0x54a460f6\n        /* \"Contracts/TTSwapV1Coin.sol\":1507:1557  IGatorV1State(gatorContractAddress).isValidGator() */\n      mload(0x40)\n      dup2\n      0xffffffff\n      and\n      0xe0\n      shl\n      dup2\n      mstore\n      0x04\n      add\n      0x20\n      mload(0x40)\n      dup1\n      dup4\n      sub\n      dup2\n      dup7\n      gas\n      staticcall\n      iszero\n      dup1\n      iszero\n      tag_211\n      jumpi\n      returndatasize\n      0x00\n      dup1\n      returndatacopy\n      revert(0x00, returndatasize)\n    tag_211:\n      pop\n      pop\n      pop\n      pop\n      mload(0x40)\n      returndatasize\n      not(0x1f)\n      0x1f\n      dup3\n      add\n      and\n      dup3\n      add\n      dup1\n      0x40\n      mstore\n      pop\n      dup2\n      add\n      swap1\n      tag_212\n      swap2\n      swap1\n      tag_158\n      jump\t// in\n    tag_212:\n        /* \"Contracts/TTSwapV1Coin.sol\":1499:1558  require(IGatorV1State(gatorContractAddress).isValidGator()) */\n      tag_213\n      jumpi\n      0x00\n      dup1\n      revert\n    tag_213:\n      sub(shl(0xa0, 0x01), 0x01)\n        /* \"Contracts/TTSwapV1Coin.sol\":10677:10707  coinList[_internalCoinAddress] */\n      dup2\n      dup2\n      and\n      0x00\n      swap1\n      dup2\n      mstore\n        /* \"Contracts/TTSwapV1Coin.sol\":10677:10685  coinList */\n      0x03\n        /* \"Contracts/TTSwapV1Coin.sol\":10677:10707  coinList[_internalCoinAddress] */\n      0x20\n      mstore\n      0x40\n      swap1\n      keccak256\n        /* \"Contracts/TTSwapV1Coin.sol\":10677:10715  coinList[_internalCoinAddress].creator */\n      0x07\n      add\n      sload\n      and\n        /* \"Contracts/TTSwapV1Coin.sol\":10719:10729  msg.sender */\n      caller\n        /* \"Contracts/TTSwapV1Coin.sol\":10677:10729  coinList[_internalCoinAddress].creator == msg.sender */\n      eq\n        /* \"Contracts/TTSwapV1Coin.sol\":10656:10777  require(... */\n      tag_215\n      jumpi\n      mload(0x40)\n      shl(0xe5, 0x461bcd)\n      dup2\n      mstore\n      0x04\n      add\n      tag_162\n      swap1\n      tag_217\n      jump\t// in\n    tag_215:\n      sub(shl(0xa0, 0x01), 0x01)\n        /* \"Contracts/TTSwapV1Coin.sol\":10787:10817  coinList[_internalCoinAddress] */\n      dup2\n      and\n      0x00\n      dup2\n      dup2\n      mstore\n        /* \"Contracts/TTSwapV1Coin.sol\":10787:10795  coinList */\n      0x03\n        /* \"Contracts/TTSwapV1Coin.sol\":10787:10817  coinList[_internalCoinAddress] */\n      0x20\n      swap1\n      dup2\n      mstore\n      0x40\n      swap2\n      dup3\n      swap1\n      keccak256\n        /* \"Contracts/TTSwapV1Coin.sol\":10787:10828  coinList[_internalCoinAddress].gateunlock */\n      0x06\n      add\n        /* \"Contracts/TTSwapV1Coin.sol\":10787:10835  coinList[_internalCoinAddress].gateunlock = true */\n      dup1\n      sload\n      not(shl(0xa8, 0xff))\n      and\n      shl(0xa8, 0x01)\n      or\n      swap1\n      sstore\n        /* \"Contracts/TTSwapV1Coin.sol\":10851:10904  e_unlockCoinbyGator(msg.sender, _internalCoinAddress) */\n      dup2\n      mload\n        /* \"Contracts/TTSwapV1Coin.sol\":10871:10881  msg.sender */\n      caller\n        /* \"#utility.yul\":12262:12296   */\n      dup2\n      mstore\n        /* \"#utility.yul\":12312:12330   */\n      swap1\n      dup2\n      add\n        /* \"#utility.yul\":12305:12348   */\n      swap3\n      swap1\n      swap3\n      mstore\n        /* \"Contracts/TTSwapV1Coin.sol\":10851:10904  e_unlockCoinbyGator(msg.sender, _internalCoinAddress) */\n      0x91f5df1a13ccd890776a683fdcef0b553ce7ac24fbe9609bb51aeb9fefed82a4\n      swap2\n        /* \"#utility.yul\":12197:12215   */\n      add\n        /* \"Contracts/TTSwapV1Coin.sol\":10851:10904  e_unlockCoinbyGator(msg.sender, _internalCoinAddress) */\n      tag_200\n        /* \"#utility.yul\":12050:12354   */\n      jump\n        /* \"Contracts/TTSwapV1Coin.sol\":10917:11278  function lockCoinbyGator(... */\n    tag_84:\n        /* \"Contracts/TTSwapV1Coin.sol\":1521:1541  gatorContractAddress */\n      0x05\n      0x00\n      swap1\n      sload\n      swap1\n      0x0100\n      exp\n      swap1\n      div\n      sub(shl(0xa0, 0x01), 0x01)\n      and\n      sub(shl(0xa0, 0x01), 0x01)\n        /* \"Contracts/TTSwapV1Coin.sol\":1507:1555  IGatorV1State(gatorContractAddress).isValidGator */\n      and\n      0x54a460f6\n        /* \"Contracts/TTSwapV1Coin.sol\":1507:1557  IGatorV1State(gatorContractAddress).isValidGator() */\n      mload(0x40)\n      dup2\n      0xffffffff\n      and\n      0xe0\n      shl\n      dup2\n      mstore\n      0x04\n      add\n      0x20\n      mload(0x40)\n      dup1\n      dup4\n      sub\n      dup2\n      dup7\n      gas\n      staticcall\n      iszero\n      dup1\n      iszero\n      tag_223\n      jumpi\n      returndatasize\n      0x00\n      dup1\n      returndatacopy\n      revert(0x00, returndatasize)\n    tag_223:\n      pop\n      pop\n      pop\n      pop\n      mload(0x40)\n      returndatasize\n      not(0x1f)\n      0x1f\n      dup3\n      add\n      and\n      dup3\n      add\n      dup1\n      0x40\n      mstore\n      pop\n      dup2\n      add\n      swap1\n      tag_224\n      swap2\n      swap1\n      tag_158\n      jump\t// in\n    tag_224:\n        /* \"Contracts/TTSwapV1Coin.sol\":1499:1558  require(IGatorV1State(gatorContractAddress).isValidGator()) */\n      tag_225\n      jumpi\n      0x00\n      dup1\n      revert\n    tag_225:\n      sub(shl(0xa0, 0x01), 0x01)\n        /* \"Contracts/TTSwapV1Coin.sol\":11045:11075  coinList[_internalCoinAddress] */\n      dup2\n      dup2\n      and\n      0x00\n      swap1\n      dup2\n      mstore\n        /* \"Contracts/TTSwapV1Coin.sol\":11045:11053  coinList */\n      0x03\n        /* \"Contracts/TTSwapV1Coin.sol\":11045:11075  coinList[_internalCoinAddress] */\n      0x20\n      mstore\n      0x40\n      swap1\n      keccak256\n        /* \"Contracts/TTSwapV1Coin.sol\":11045:11083  coinList[_internalCoinAddress].creator */\n      0x07\n      add\n      sload\n      and\n        /* \"Contracts/TTSwapV1Coin.sol\":11087:11097  msg.sender */\n      caller\n        /* \"Contracts/TTSwapV1Coin.sol\":11045:11097  coinList[_internalCoinAddress].creator == msg.sender */\n      eq\n        /* \"Contracts/TTSwapV1Coin.sol\":11024:11145  require(... */\n      tag_227\n      jumpi\n      mload(0x40)\n      shl(0xe5, 0x461bcd)\n      dup2\n      mstore\n      0x04\n      add\n      tag_162\n      swap1\n      tag_217\n      jump\t// in\n    tag_227:\n      sub(shl(0xa0, 0x01), 0x01)\n        /* \"Contracts/TTSwapV1Coin.sol\":11155:11185  coinList[_internalCoinAddress] */\n      dup2\n      and\n        /* \"Contracts/TTSwapV1Coin.sol\":11199:11204  false */\n      0x00\n        /* \"Contracts/TTSwapV1Coin.sol\":11155:11185  coinList[_internalCoinAddress] */\n      dup2\n      dup2\n      mstore\n        /* \"Contracts/TTSwapV1Coin.sol\":11155:11163  coinList */\n      0x03\n        /* \"Contracts/TTSwapV1Coin.sol\":11155:11185  coinList[_internalCoinAddress] */\n      0x20\n      swap1\n      dup2\n      mstore\n      0x40\n      swap2\n      dup3\n      swap1\n      keccak256\n        /* \"Contracts/TTSwapV1Coin.sol\":11155:11196  coinList[_internalCoinAddress].gateunlock */\n      0x06\n      add\n        /* \"Contracts/TTSwapV1Coin.sol\":11155:11204  coinList[_internalCoinAddress].gateunlock = false */\n      dup1\n      sload\n      not(shl(0xa8, 0xff))\n      and\n      swap1\n      sstore\n        /* \"Contracts/TTSwapV1Coin.sol\":11220:11271  e_lockCoinbyGator(msg.sender, _internalCoinAddress) */\n      dup2\n      mload\n        /* \"Contracts/TTSwapV1Coin.sol\":11238:11248  msg.sender */\n      caller\n        /* \"#utility.yul\":12262:12296   */\n      dup2\n      mstore\n        /* \"#utility.yul\":12312:12330   */\n      swap1\n      dup2\n      add\n        /* \"#utility.yul\":12305:12348   */\n      swap3\n      swap1\n      swap3\n      mstore\n        /* \"Contracts/TTSwapV1Coin.sol\":11220:11271  e_lockCoinbyGator(msg.sender, _internalCoinAddress) */\n      0x4807c3daa091febea14280167243bd513929ce4fe91170ef6536aebad0ede29b\n      swap2\n        /* \"#utility.yul\":12197:12215   */\n      add\n        /* \"Contracts/TTSwapV1Coin.sol\":11220:11271  e_lockCoinbyGator(msg.sender, _internalCoinAddress) */\n      tag_200\n        /* \"#utility.yul\":12050:12354   */\n      jump\n        /* \"Contracts/TTSwapV1Coin.sol\":13394:13731  function getCoinInfoFromOwnerCoinNo(... */\n    tag_94:\n        /* \"Contracts/TTSwapV1Coin.sol\":13524:13541  LCoin.Info memory */\n      tag_230\n      tag_231\n      jump\t// in\n    tag_230:\n      sub(shl(0xa0, 0x01), 0x01)\n        /* \"Contracts/TTSwapV1Coin.sol\":13574:13597  coinList[_owneraddress] */\n      dup4\n      and\n      0x00\n      swap1\n      dup2\n      mstore\n        /* \"Contracts/TTSwapV1Coin.sol\":13574:13582  coinList */\n      0x03\n        /* \"Contracts/TTSwapV1Coin.sol\":13574:13597  coinList[_owneraddress] */\n      0x20\n      mstore\n      0x40\n      swap1\n      keccak256\n        /* \"Contracts/TTSwapV1Coin.sol\":13574:13604  coinList[_owneraddress].isUsed */\n      0x06\n      add\n      sload\n      shl(0xb0, 0x01)\n      swap1\n      div\n      0xff\n      and\n        /* \"Contracts/TTSwapV1Coin.sol\":13574:13612  coinList[_owneraddress].isUsed == true */\n      iszero\n      iszero\n        /* \"Contracts/TTSwapV1Coin.sol\":13608:13612  true */\n      0x01\n        /* \"Contracts/TTSwapV1Coin.sol\":13574:13612  coinList[_owneraddress].isUsed == true */\n      eq\n        /* \"Contracts/TTSwapV1Coin.sol\":13553:13660  require(... */\n      tag_233\n      jumpi\n      mload(0x40)\n      shl(0xe5, 0x461bcd)\n      dup2\n      mstore\n      0x04\n      add\n      tag_162\n      swap1\n      tag_184\n      jump\t// in\n    tag_233:\n      pop\n      sub(shl(0xa0, 0x01), 0x01)\n        /* \"Contracts/TTSwapV1Coin.sol\":13686:13714  ownerCoinList[_owneraddress] */\n      dup1\n      dup4\n      and\n        /* \"Contracts/TTSwapV1Coin.sol\":13677:13724  coinList[ownerCoinList[_owneraddress][_coinNo]] */\n      0x00\n        /* \"Contracts/TTSwapV1Coin.sol\":13686:13714  ownerCoinList[_owneraddress] */\n      swap1\n      dup2\n      mstore\n        /* \"Contracts/TTSwapV1Coin.sol\":13686:13699  ownerCoinList */\n      0x01\n        /* \"Contracts/TTSwapV1Coin.sol\":13686:13714  ownerCoinList[_owneraddress] */\n      0x20\n      dup2\n      dup2\n      mstore\n      0x40\n      dup1\n      dup5\n      keccak256\n      sub(shl(0x80, 0x01), 0x01)\n        /* \"Contracts/TTSwapV1Coin.sol\":13686:13723  ownerCoinList[_owneraddress][_coinNo] */\n      dup8\n      and\n      dup6\n      mstore\n      dup3\n      mstore\n      dup1\n      dup5\n      keccak256\n      sload\n      dup6\n      and\n        /* \"Contracts/TTSwapV1Coin.sol\":13677:13724  coinList[ownerCoinList[_owneraddress][_coinNo]] */\n      dup5\n      mstore\n        /* \"Contracts/TTSwapV1Coin.sol\":13677:13685  coinList */\n      0x03\n        /* \"Contracts/TTSwapV1Coin.sol\":13677:13724  coinList[ownerCoinList[_owneraddress][_coinNo]] */\n      dup1\n      dup4\n      mstore\n      swap4\n      dup2\n      swap1\n      keccak256\n        /* \"Contracts/TTSwapV1Coin.sol\":13670:13724  return coinList[ownerCoinList[_owneraddress][_coinNo]] */\n      dup2\n      mload\n      0x0160\n      dup2\n      add\n      dup4\n      mstore\n      dup2\n      sload\n      dup2\n      mstore\n      swap4\n      dup2\n      add\n      sload\n      swap3\n      dup5\n      add\n      swap3\n      swap1\n      swap3\n      mstore\n      0x02\n      dup3\n      add\n      sload\n      swap1\n      dup4\n      add\n      mstore\n      swap2\n      dup3\n      add\n      sload\n      0xff\n      swap1\n      dup2\n      and\n      0x60\n      dup4\n      add\n      mstore\n      0x04\n      dup4\n      add\n      sload\n      0x80\n      dup4\n      add\n      mstore\n      0x05\n      dup4\n      add\n      sload\n      0xa0\n      dup4\n      add\n      mstore\n      0x06\n      dup4\n      add\n      sload\n      dup1\n      dup6\n      and\n      0xc0\n      dup5\n      add\n      mstore\n      shl(0xa0, 0x01)\n      dup2\n      div\n      dup3\n      and\n      iszero\n      iszero\n      0xe0\n      dup5\n      add\n      mstore\n      shl(0xa8, 0x01)\n      dup2\n      div\n      dup3\n      and\n      iszero\n      iszero\n        /* \"Contracts/TTSwapV1Coin.sol\":13686:13723  ownerCoinList[_owneraddress][_coinNo] */\n      0x0100\n        /* \"Contracts/TTSwapV1Coin.sol\":13670:13724  return coinList[ownerCoinList[_owneraddress][_coinNo]] */\n      dup5\n      add\n      mstore\n      shl(0xb0, 0x01)\n      swap1\n      div\n      and\n      iszero\n      iszero\n      0x0120\n      dup3\n      add\n      mstore\n      0x07\n      swap1\n      swap2\n      add\n      sload\n      swap1\n      swap2\n      and\n      0x0140\n      dup3\n      add\n      mstore\n        /* \"Contracts/TTSwapV1Coin.sol\":13394:13731  function getCoinInfoFromOwnerCoinNo(... */\n    tag_232:\n      swap3\n      swap2\n      pop\n      pop\n      jump\t// out\n        /* \"Contracts/TTSwapV1Coin.sol\":12705:13089  function delCoinbyGator(uint128 _coinNo) external override onlyGator {... */\n    tag_100:\n        /* \"Contracts/TTSwapV1Coin.sol\":1521:1541  gatorContractAddress */\n      0x05\n      0x00\n      swap1\n      sload\n      swap1\n      0x0100\n      exp\n      swap1\n      div\n      sub(shl(0xa0, 0x01), 0x01)\n      and\n      sub(shl(0xa0, 0x01), 0x01)\n        /* \"Contracts/TTSwapV1Coin.sol\":1507:1555  IGatorV1State(gatorContractAddress).isValidGator */\n      and\n      0x54a460f6\n        /* \"Contracts/TTSwapV1Coin.sol\":1507:1557  IGatorV1State(gatorContractAddress).isValidGator() */\n      mload(0x40)\n      dup2\n      0xffffffff\n      and\n      0xe0\n      shl\n      dup2\n      mstore\n      0x04\n      add\n      0x20\n      mload(0x40)\n      dup1\n      dup4\n      sub\n      dup2\n      dup7\n      gas\n      staticcall\n      iszero\n      dup1\n      iszero\n      tag_237\n      jumpi\n      returndatasize\n      0x00\n      dup1\n      returndatacopy\n      revert(0x00, returndatasize)\n    tag_237:\n      pop\n      pop\n      pop\n      pop\n      mload(0x40)\n      returndatasize\n      not(0x1f)\n      0x1f\n      dup3\n      add\n      and\n      dup3\n      add\n      dup1\n      0x40\n      mstore\n      pop\n      dup2\n      add\n      swap1\n      tag_238\n      swap2\n      swap1\n      tag_158\n      jump\t// in\n    tag_238:\n        /* \"Contracts/TTSwapV1Coin.sol\":1499:1558  require(IGatorV1State(gatorContractAddress).isValidGator()) */\n      tag_239\n      jumpi\n      0x00\n      dup1\n      revert\n    tag_239:\n        /* \"Contracts/TTSwapV1Coin.sol\":12819:12829  msg.sender */\n      caller\n        /* \"Contracts/TTSwapV1Coin.sol\":12851:12852  0 */\n      0x00\n        /* \"Contracts/TTSwapV1Coin.sol\":12805:12830  ownerCoinList[msg.sender] */\n      swap1\n      dup2\n      mstore\n        /* \"Contracts/TTSwapV1Coin.sol\":12805:12818  ownerCoinList */\n      0x01\n        /* \"Contracts/TTSwapV1Coin.sol\":12805:12830  ownerCoinList[msg.sender] */\n      0x20\n      swap1\n      dup2\n      mstore\n      0x40\n      dup1\n      dup4\n      keccak256\n      sub(shl(0x80, 0x01), 0x01)\n        /* \"Contracts/TTSwapV1Coin.sol\":12805:12839  ownerCoinList[msg.sender][_coinNo] */\n      dup6\n      and\n      dup5\n      mstore\n      swap1\n      swap2\n      mstore\n      swap1\n      keccak256\n      sload\n      sub(shl(0xa0, 0x01), 0x01)\n      and\n        /* \"Contracts/TTSwapV1Coin.sol\":12784:12901  require(... */\n      tag_241\n      jumpi\n      mload(0x40)\n      shl(0xe5, 0x461bcd)\n      dup2\n      mstore\n      0x04\n      add\n      tag_162\n      swap1\n      tag_184\n      jump\t// in\n    tag_241:\n        /* \"Contracts/TTSwapV1Coin.sol\":12931:12941  msg.sender */\n      caller\n        /* \"Contracts/TTSwapV1Coin.sol\":12919:12942  ownerCoinNo[msg.sender] */\n      0x00\n      dup2\n      dup2\n      mstore\n        /* \"Contracts/TTSwapV1Coin.sol\":12919:12930  ownerCoinNo */\n      0x02\n        /* \"Contracts/TTSwapV1Coin.sol\":12919:12942  ownerCoinNo[msg.sender] */\n      0x20\n      swap1\n      dup2\n      mstore\n      0x40\n      dup1\n      dup4\n      keccak256\n        /* \"Contracts/TTSwapV1Coin.sol\":12943:12956  ownerCoinList */\n      0x01\n        /* \"Contracts/TTSwapV1Coin.sol\":12943:12968  ownerCoinList[msg.sender] */\n      dup4\n      mstore\n      dup2\n      dup5\n      keccak256\n      sub(shl(0x80, 0x01), 0x01)\n        /* \"Contracts/TTSwapV1Coin.sol\":12943:12977  ownerCoinList[msg.sender][_coinNo] */\n      dup8\n      and\n      dup1\n      dup7\n      mstore\n      dup2\n      dup6\n      mstore\n      dup4\n      dup7\n      keccak256\n      dup1\n      sload\n      sub(shl(0xa0, 0x01), 0x01)\n      and\n        /* \"Contracts/TTSwapV1Coin.sol\":12919:12978  ownerCoinNo[msg.sender][ownerCoinList[msg.sender][_coinNo]] */\n      dup8\n      mstore\n      swap3\n      dup6\n      mstore\n      dup4\n      dup7\n      keccak256\n        /* \"Contracts/TTSwapV1Coin.sol\":12912:12978  delete ownerCoinNo[msg.sender][ownerCoinList[msg.sender][_coinNo]] */\n      dup1\n      sload\n      not(sub(shl(0x80, 0x01), 0x01))\n      and\n      swap1\n      sstore\n        /* \"Contracts/TTSwapV1Coin.sol\":12995:13029  ownerCoinList[msg.sender][_coinNo] */\n      swap5\n      dup6\n      swap1\n      mstore\n      dup4\n      mstore\n        /* \"Contracts/TTSwapV1Coin.sol\":12988:13029  delete ownerCoinList[msg.sender][_coinNo] */\n      dup1\n      sload\n      not(sub(shl(0xa0, 0x01), 0x01))\n      and\n      swap1\n      sstore\n        /* \"Contracts/TTSwapV1Coin.sol\":13045:13082  e_delCoinbyGator(msg.sender, _coinNo) */\n      dup1\n      mload\n        /* \"#utility.yul\":12533:12584   */\n      swap4\n      dup5\n      mstore\n        /* \"#utility.yul\":12600:12618   */\n      swap1\n      dup4\n      add\n        /* \"#utility.yul\":12593:12668   */\n      swap2\n      swap1\n      swap2\n      mstore\n        /* \"Contracts/TTSwapV1Coin.sol\":13045:13082  e_delCoinbyGator(msg.sender, _coinNo) */\n      0x4edb2517e4d5299dd19c1ce662d404d108ffed8f91bc76838771edae5fac7c43\n      swap2\n        /* \"#utility.yul\":12506:12524   */\n      add\n        /* \"Contracts/TTSwapV1Coin.sol\":13045:13082  e_delCoinbyGator(msg.sender, _coinNo) */\n      tag_200\n        /* \"#utility.yul\":12359:12674   */\n      jump\n        /* \"Contracts/TTSwapV1Coin.sol\":5358:5932  function updateCoinbyMarketor(... */\n    tag_113:\n        /* \"Contracts/TTSwapV1Coin.sol\":1641:1664  marketorContractAddress */\n      0x06\n      0x00\n      swap1\n      sload\n      swap1\n      0x0100\n      exp\n      swap1\n      div\n      sub(shl(0xa0, 0x01), 0x01)\n      and\n      sub(shl(0xa0, 0x01), 0x01)\n        /* \"Contracts/TTSwapV1Coin.sol\":1624:1681  IMarketorV1State(marketorContractAddress).isValidMarketor */\n      and\n      0xad87d2ba\n        /* \"Contracts/TTSwapV1Coin.sol\":1624:1683  IMarketorV1State(marketorContractAddress).isValidMarketor() */\n      mload(0x40)\n      dup2\n      0xffffffff\n      and\n      0xe0\n      shl\n      dup2\n      mstore\n      0x04\n      add\n      0x20\n      mload(0x40)\n      dup1\n      dup4\n      sub\n      dup2\n      dup7\n      gas\n      staticcall\n      iszero\n      dup1\n      iszero\n      tag_247\n      jumpi\n      returndatasize\n      0x00\n      dup1\n      returndatacopy\n      revert(0x00, returndatasize)\n    tag_247:\n      pop\n      pop\n      pop\n      pop\n      mload(0x40)\n      returndatasize\n      not(0x1f)\n      0x1f\n      dup3\n      add\n      and\n      dup3\n      add\n      dup1\n      0x40\n      mstore\n      pop\n      dup2\n      add\n      swap1\n      tag_248\n      swap2\n      swap1\n      tag_158\n      jump\t// in\n    tag_248:\n        /* \"Contracts/TTSwapV1Coin.sol\":1616:1684  require(IMarketorV1State(marketorContractAddress).isValidMarketor()) */\n      tag_249\n      jumpi\n      0x00\n      dup1\n      revert\n    tag_249:\n        /* \"Contracts/TTSwapV1Coin.sol\":5505:5528  marketorContractAddress */\n      0x06\n      dup1\n      sload\n      sub(shl(0xa0, 0x01), 0x01)\n      swap1\n      dup2\n      and\n        /* \"Contracts/TTSwapV1Coin.sol\":5576:5577  0 */\n      0x00\n        /* \"Contracts/TTSwapV1Coin.sol\":5493:5529  ownerCoinNo[marketorContractAddress] */\n      swap1\n      dup2\n      mstore\n        /* \"Contracts/TTSwapV1Coin.sol\":5493:5504  ownerCoinNo */\n      0x02\n        /* \"Contracts/TTSwapV1Coin.sol\":5493:5529  ownerCoinNo[marketorContractAddress] */\n      0x20\n      dup2\n      dup2\n      mstore\n      0x40\n      dup1\n      dup5\n      keccak256\n        /* \"Contracts/TTSwapV1Coin.sol\":5530:5555  _coinInfo.contractAddress */\n      0xc0\n      dup9\n      add\n      dup1\n      mload\n        /* \"Contracts/TTSwapV1Coin.sol\":5493:5556  ownerCoinNo[marketorContractAddress][_coinInfo.contractAddress] */\n      dup8\n      and\n      dup7\n      mstore\n      swap1\n      dup4\n      mstore\n        /* \"Contracts/TTSwapV1Coin.sol\":5672:5676  true */\n      0x01\n        /* \"Contracts/TTSwapV1Coin.sol\":5647:5669  _coinInfo.marketunlock */\n      0xe0\n      dup10\n      add\n        /* \"Contracts/TTSwapV1Coin.sol\":5647:5676  _coinInfo.marketunlock = true */\n      dup2\n      dup2\n      mstore\n        /* \"Contracts/TTSwapV1Coin.sol\":5686:5706  _coinInfo.gateunlock */\n      0x0100\n      dup11\n      add\n        /* \"Contracts/TTSwapV1Coin.sol\":5686:5714  _coinInfo.gateunlock = false */\n      dup8\n      dup2\n      mstore\n        /* \"Contracts/TTSwapV1Coin.sol\":5724:5740  _coinInfo.isUsed */\n      0x0120\n      dup12\n      add\n        /* \"Contracts/TTSwapV1Coin.sol\":5724:5747  _coinInfo.isUsed = true */\n      dup4\n      dup2\n      mstore\n        /* \"Contracts/TTSwapV1Coin.sol\":5786:5811  _coinInfo.contractAddress */\n      dup5\n      mload\n        /* \"Contracts/TTSwapV1Coin.sol\":5777:5812  coinList[_coinInfo.contractAddress] */\n      dup11\n      and\n      dup10\n      mstore\n        /* \"Contracts/TTSwapV1Coin.sol\":5777:5785  coinList */\n      0x03\n        /* \"Contracts/TTSwapV1Coin.sol\":5777:5812  coinList[_coinInfo.contractAddress] */\n      dup1\n      dup9\n      mstore\n      dup7\n      dup11\n      keccak256\n        /* \"Contracts/TTSwapV1Coin.sol\":5777:5820  coinList[_coinInfo.contractAddress].creator */\n      0x07\n      swap1\n      dup2\n      add\n      sload\n      dup13\n      and\n        /* \"Contracts/TTSwapV1Coin.sol\":5757:5774  _coinInfo.creator */\n      0x0140\n      dup16\n      add\n        /* \"Contracts/TTSwapV1Coin.sol\":5757:5820  _coinInfo.creator = coinList[_coinInfo.contractAddress].creator */\n      swap1\n      dup2\n      mstore\n        /* \"Contracts/TTSwapV1Coin.sol\":5839:5864  _coinInfo.contractAddress */\n      dup8\n      mload\n        /* \"Contracts/TTSwapV1Coin.sol\":5830:5865  coinList[_coinInfo.contractAddress] */\n      dup14\n      and\n      dup13\n      mstore\n      dup3\n      dup11\n      mstore\n      swap11\n      dup9\n      swap1\n      keccak256\n        /* \"Contracts/TTSwapV1Coin.sol\":5830:5877  coinList[_coinInfo.contractAddress] = _coinInfo */\n      dup15\n      mload\n      dup2\n      sstore\n      swap9\n      dup15\n      add\n      mload\n      swap6\n      dup10\n      add\n      swap6\n      swap1\n      swap6\n      sstore\n      dup13\n      dup8\n      add\n      mload\n      swap9\n      dup9\n      add\n      swap9\n      swap1\n      swap9\n      sstore\n      0x60\n      dup13\n      add\n      mload\n      swap8\n      dup8\n      add\n      dup1\n      sload\n      not(0xff)\n      and\n      0xff\n      swap1\n      swap10\n      and\n      swap9\n      swap1\n      swap9\n      or\n      swap1\n      swap8\n      sstore\n      0x80\n      dup12\n      add\n      mload\n      0x04\n      dup8\n      add\n      sstore\n      0xa0\n      dup12\n      add\n      mload\n      0x05\n      dup8\n      add\n      sstore\n      swap3\n      mload\n      swap9\n      dup6\n      add\n      dup1\n      sload\n      swap2\n      mload\n      swap4\n      mload\n      swap7\n      mload\n      swap10\n      dup10\n      and\n      not(sub(shl(0xa8, 0x01), 0x01))\n      swap1\n      swap3\n      and\n      swap2\n      swap1\n      swap2\n      or\n      shl(0xa0, 0x01)\n      swap4\n      iszero\n      iszero\n      swap4\n      swap1\n      swap4\n      mul\n      swap3\n      swap1\n      swap3\n      or\n      not(shl(0xa8, 0xffff))\n      and\n      shl(0xa8, 0x01)\n      swap6\n      iszero\n      iszero\n      swap6\n      swap1\n      swap6\n      mul\n      not(shl(0xb0, 0xff))\n      and\n      swap5\n      swap1\n      swap5\n      or\n      shl(0xb0, 0x01)\n      swap8\n      iszero\n      iszero\n      swap8\n      swap1\n      swap8\n      mul\n      swap7\n      swap1\n      swap7\n      or\n      swap1\n      swap6\n      sstore\n      swap2\n      mload\n      swap2\n      add\n      dup1\n      sload\n      not(sub(shl(0xa0, 0x01), 0x01))\n      and\n      swap2\n      swap1\n      swap3\n      and\n      or\n      swap1\n      sstore\n        /* \"Contracts/TTSwapV1Coin.sol\":5892:5925  e_updateCoinbyMarketor(_coinInfo) */\n      mload\n      0x7ef1a4c6cd6954cc6f68ac195814a83775046e46054eb12bf4b6619ba234f58b\n      swap1\n      tag_200\n      swap1\n        /* \"Contracts/TTSwapV1Coin.sol\":5530:5555  _coinInfo.contractAddress */\n      dup4\n      swap1\n        /* \"Contracts/TTSwapV1Coin.sol\":5892:5925  e_updateCoinbyMarketor(_coinInfo) */\n      tag_96\n      jump\t// in\n        /* \"Contracts/TTSwapV1Coin.sol\":6803:7304  function delCoinbyMarketor(... */\n    tag_116:\n        /* \"Contracts/TTSwapV1Coin.sol\":1641:1664  marketorContractAddress */\n      0x06\n      0x00\n      swap1\n      sload\n      swap1\n      0x0100\n      exp\n      swap1\n      div\n      sub(shl(0xa0, 0x01), 0x01)\n      and\n      sub(shl(0xa0, 0x01), 0x01)\n        /* \"Contracts/TTSwapV1Coin.sol\":1624:1681  IMarketorV1State(marketorContractAddress).isValidMarketor */\n      and\n      0xad87d2ba\n        /* \"Contracts/TTSwapV1Coin.sol\":1624:1683  IMarketorV1State(marketorContractAddress).isValidMarketor() */\n      mload(0x40)\n      dup2\n      0xffffffff\n      and\n      0xe0\n      shl\n      dup2\n      mstore\n      0x04\n      add\n      0x20\n      mload(0x40)\n      dup1\n      dup4\n      sub\n      dup2\n      dup7\n      gas\n      staticcall\n      iszero\n      dup1\n      iszero\n      tag_257\n      jumpi\n      returndatasize\n      0x00\n      dup1\n      returndatacopy\n      revert(0x00, returndatasize)\n    tag_257:\n      pop\n      pop\n      pop\n      pop\n      mload(0x40)\n      returndatasize\n      not(0x1f)\n      0x1f\n      dup3\n      add\n      and\n      dup3\n      add\n      dup1\n      0x40\n      mstore\n      pop\n      dup2\n      add\n      swap1\n      tag_258\n      swap2\n      swap1\n      tag_158\n      jump\t// in\n    tag_258:\n        /* \"Contracts/TTSwapV1Coin.sol\":1616:1684  require(IMarketorV1State(marketorContractAddress).isValidMarketor()) */\n      tag_259\n      jumpi\n      0x00\n      dup1\n      revert\n    tag_259:\n        /* \"Contracts/TTSwapV1Coin.sol\":6944:6967  marketorContractAddress */\n      sload(0x06)\n      sub(shl(0xa0, 0x01), 0x01)\n      swap1\n      dup2\n      and\n        /* \"Contracts/TTSwapV1Coin.sol\":6932:6968  ownerCoinNo[marketorContractAddress] */\n      0x00\n      swap1\n      dup2\n      mstore\n        /* \"Contracts/TTSwapV1Coin.sol\":6932:6943  ownerCoinNo */\n      0x02\n        /* \"Contracts/TTSwapV1Coin.sol\":6932:6968  ownerCoinNo[marketorContractAddress] */\n      0x20\n      swap1\n      dup2\n      mstore\n      0x40\n      dup1\n      dup4\n      keccak256\n        /* \"Contracts/TTSwapV1Coin.sol\":6932:6986  ownerCoinNo[marketorContractAddress][_contractaddress] */\n      swap4\n      dup6\n      and\n      dup4\n      mstore\n      swap3\n      swap1\n      mstore\n      keccak256\n      sload\n        /* \"Contracts/TTSwapV1Coin.sol\":6990:6991  1 */\n      0x01\n      sub(shl(0x80, 0x01), 0x01)\n        /* \"Contracts/TTSwapV1Coin.sol\":6932:6986  ownerCoinNo[marketorContractAddress][_contractaddress] */\n      swap1\n      swap2\n      and\n        /* \"Contracts/TTSwapV1Coin.sol\":6932:6991  ownerCoinNo[marketorContractAddress][_contractaddress] >= 1 */\n      lt\n      iszero\n        /* \"Contracts/TTSwapV1Coin.sol\":6911:7039  require(... */\n      tag_261\n      jumpi\n      mload(0x40)\n      shl(0xe5, 0x461bcd)\n      dup2\n      mstore\n      0x04\n      add\n      tag_162\n      swap1\n      tag_184\n      jump\t// in\n    tag_261:\n        /* \"Contracts/TTSwapV1Coin.sol\":7071:7094  marketorContractAddress */\n      0x06\n      dup1\n      sload\n      sub(shl(0xa0, 0x01), 0x01)\n      swap1\n      dup2\n      and\n        /* \"Contracts/TTSwapV1Coin.sol\":7057:7095  ownerCoinList[marketorContractAddress] */\n      0x00\n      swap1\n      dup2\n      mstore\n        /* \"Contracts/TTSwapV1Coin.sol\":7057:7070  ownerCoinList */\n      0x01\n        /* \"Contracts/TTSwapV1Coin.sol\":7057:7095  ownerCoinList[marketorContractAddress] */\n      0x20\n      swap1\n      dup2\n      mstore\n      0x40\n      dup1\n      dup4\n      keccak256\n        /* \"Contracts/TTSwapV1Coin.sol\":7109:7120  ownerCoinNo */\n      0x02\n        /* \"Contracts/TTSwapV1Coin.sol\":7109:7145  ownerCoinNo[marketorContractAddress] */\n      dup1\n      dup5\n      mstore\n      dup3\n      dup6\n      keccak256\n        /* \"Contracts/TTSwapV1Coin.sol\":7109:7163  ownerCoinNo[marketorContractAddress][_contractaddress] */\n      dup9\n      dup8\n      and\n      dup1\n      dup8\n      mstore\n      swap1\n      dup6\n      mstore\n      dup4\n      dup7\n      keccak256\n      sload\n      sub(shl(0x80, 0x01), 0x01)\n      and\n        /* \"Contracts/TTSwapV1Coin.sol\":7057:7173  ownerCoinList[marketorContractAddress][... */\n      dup7\n      mstore\n      swap2\n      dup5\n      mstore\n      dup3\n      dup6\n      keccak256\n        /* \"Contracts/TTSwapV1Coin.sol\":7050:7173  delete ownerCoinList[marketorContractAddress][... */\n      dup1\n      sload\n      not(sub(shl(0xa0, 0x01), 0x01))\n      and\n      swap1\n      sstore\n        /* \"Contracts/TTSwapV1Coin.sol\":7202:7225  marketorContractAddress */\n      swap6\n      sload\n      swap1\n      swap5\n      and\n        /* \"Contracts/TTSwapV1Coin.sol\":7190:7226  ownerCoinNo[marketorContractAddress] */\n      dup4\n      mstore\n      swap4\n      dup2\n      mstore\n      dup4\n      dup3\n      keccak256\n        /* \"Contracts/TTSwapV1Coin.sol\":7190:7244  ownerCoinNo[marketorContractAddress][_contractaddress] */\n      dup4\n      dup4\n      mstore\n      dup2\n      mstore\n      swap1\n      dup4\n      swap1\n      keccak256\n        /* \"Contracts/TTSwapV1Coin.sol\":7183:7244  delete ownerCoinNo[marketorContractAddress][_contractaddress] */\n      dup1\n      sload\n      not(sub(shl(0x80, 0x01), 0x01))\n      and\n      swap1\n      sstore\n        /* \"Contracts/TTSwapV1Coin.sol\":7260:7297  e_delCoinbyMarketor(_contractaddress) */\n      swap2\n      mload\n        /* \"#utility.yul\":3811:3862   */\n      swap1\n      dup2\n      mstore\n        /* \"Contracts/TTSwapV1Coin.sol\":7260:7297  e_delCoinbyMarketor(_contractaddress) */\n      0x95fb8f03172737716db3e279a3cafdb96c41b3ff1ca3cedc215a7770838c1c5b\n      swap2\n        /* \"#utility.yul\":3784:3802   */\n      add\n        /* \"Contracts/TTSwapV1Coin.sol\":7260:7297  e_delCoinbyMarketor(_contractaddress) */\n      tag_200\n        /* \"#utility.yul\":3665:3868   */\n      jump\n        /* \"Contracts/TTSwapV1Coin.sol\":12247:12699  function delCoinbyGator(... */\n    tag_119:\n        /* \"Contracts/TTSwapV1Coin.sol\":1521:1541  gatorContractAddress */\n      0x05\n      0x00\n      swap1\n      sload\n      swap1\n      0x0100\n      exp\n      swap1\n      div\n      sub(shl(0xa0, 0x01), 0x01)\n      and\n      sub(shl(0xa0, 0x01), 0x01)\n        /* \"Contracts/TTSwapV1Coin.sol\":1507:1555  IGatorV1State(gatorContractAddress).isValidGator */\n      and\n      0x54a460f6\n        /* \"Contracts/TTSwapV1Coin.sol\":1507:1557  IGatorV1State(gatorContractAddress).isValidGator() */\n      mload(0x40)\n      dup2\n      0xffffffff\n      and\n      0xe0\n      shl\n      dup2\n      mstore\n      0x04\n      add\n      0x20\n      mload(0x40)\n      dup1\n      dup4\n      sub\n      dup2\n      dup7\n      gas\n      staticcall\n      iszero\n      dup1\n      iszero\n      tag_266\n      jumpi\n      returndatasize\n      0x00\n      dup1\n      returndatacopy\n      revert(0x00, returndatasize)\n    tag_266:\n      pop\n      pop\n      pop\n      pop\n      mload(0x40)\n      returndatasize\n      not(0x1f)\n      0x1f\n      dup3\n      add\n      and\n      dup3\n      add\n      dup1\n      0x40\n      mstore\n      pop\n      dup2\n      add\n      swap1\n      tag_267\n      swap2\n      swap1\n      tag_158\n      jump\t// in\n    tag_267:\n        /* \"Contracts/TTSwapV1Coin.sol\":1499:1558  require(IGatorV1State(gatorContractAddress).isValidGator()) */\n      tag_268\n      jumpi\n      0x00\n      dup1\n      revert\n    tag_268:\n        /* \"Contracts/TTSwapV1Coin.sol\":12382:12392  msg.sender */\n      caller\n        /* \"Contracts/TTSwapV1Coin.sol\":12370:12393  ownerCoinNo[msg.sender] */\n      0x00\n      swap1\n      dup2\n      mstore\n        /* \"Contracts/TTSwapV1Coin.sol\":12370:12381  ownerCoinNo */\n      0x02\n        /* \"Contracts/TTSwapV1Coin.sol\":12370:12393  ownerCoinNo[msg.sender] */\n      0x20\n      swap1\n      dup2\n      mstore\n      0x40\n      dup1\n      dup4\n      keccak256\n      sub(shl(0xa0, 0x01), 0x01)\n        /* \"Contracts/TTSwapV1Coin.sol\":12370:12411  ownerCoinNo[msg.sender][_contractaddress] */\n      dup6\n      and\n      dup5\n      mstore\n      swap1\n      swap2\n      mstore\n      swap1\n      keccak256\n      sload\n        /* \"Contracts/TTSwapV1Coin.sol\":12415:12416  1 */\n      0x01\n      sub(shl(0x80, 0x01), 0x01)\n        /* \"Contracts/TTSwapV1Coin.sol\":12370:12411  ownerCoinNo[msg.sender][_contractaddress] */\n      swap1\n      swap2\n      and\n        /* \"Contracts/TTSwapV1Coin.sol\":12370:12416  ownerCoinNo[msg.sender][_contractaddress] >= 1 */\n      lt\n      iszero\n        /* \"Contracts/TTSwapV1Coin.sol\":12349:12464  require(... */\n      tag_270\n      jumpi\n      mload(0x40)\n      shl(0xe5, 0x461bcd)\n      dup2\n      mstore\n      0x04\n      add\n      tag_162\n      swap1\n      tag_184\n      jump\t// in\n    tag_270:\n        /* \"Contracts/TTSwapV1Coin.sol\":12496:12506  msg.sender */\n      caller\n        /* \"Contracts/TTSwapV1Coin.sol\":12482:12507  ownerCoinList[msg.sender] */\n      0x00\n      dup2\n      dup2\n      mstore\n        /* \"Contracts/TTSwapV1Coin.sol\":12482:12495  ownerCoinList */\n      0x01\n        /* \"Contracts/TTSwapV1Coin.sol\":12482:12507  ownerCoinList[msg.sender] */\n      0x20\n      swap1\n      dup2\n      mstore\n      0x40\n      dup1\n      dup4\n      keccak256\n        /* \"Contracts/TTSwapV1Coin.sol\":12521:12532  ownerCoinNo */\n      0x02\n        /* \"Contracts/TTSwapV1Coin.sol\":12521:12544  ownerCoinNo[msg.sender] */\n      dup4\n      mstore\n      dup2\n      dup5\n      keccak256\n      sub(shl(0xa0, 0x01), 0x01)\n        /* \"Contracts/TTSwapV1Coin.sol\":12521:12562  ownerCoinNo[msg.sender][_contractaddress] */\n      dup8\n      and\n      dup1\n      dup7\n      mstore\n      dup2\n      dup6\n      mstore\n      dup4\n      dup7\n      keccak256\n      dup1\n      sload\n      sub(shl(0x80, 0x01), 0x01)\n      and\n        /* \"Contracts/TTSwapV1Coin.sol\":12482:12572  ownerCoinList[msg.sender][... */\n      dup8\n      mstore\n      swap3\n      dup6\n      mstore\n      dup4\n      dup7\n      keccak256\n        /* \"Contracts/TTSwapV1Coin.sol\":12475:12572  delete ownerCoinList[msg.sender][... */\n      dup1\n      sload\n      not(sub(shl(0xa0, 0x01), 0x01))\n      and\n      swap1\n      sstore\n        /* \"Contracts/TTSwapV1Coin.sol\":12589:12630  ownerCoinNo[msg.sender][_contractaddress] */\n      swap5\n      dup6\n      swap1\n      mstore\n      dup4\n      mstore\n        /* \"Contracts/TTSwapV1Coin.sol\":12582:12630  delete ownerCoinNo[msg.sender][_contractaddress] */\n      dup1\n      sload\n      not(sub(shl(0x80, 0x01), 0x01))\n      and\n      swap1\n      sstore\n        /* \"Contracts/TTSwapV1Coin.sol\":12646:12692  e_delCoinbyGator(msg.sender, _contractaddress) */\n      dup1\n      mload\n        /* \"#utility.yul\":12262:12296   */\n      swap4\n      dup5\n      mstore\n        /* \"#utility.yul\":12312:12330   */\n      swap1\n      dup4\n      add\n        /* \"#utility.yul\":12305:12348   */\n      swap2\n      swap1\n      swap2\n      mstore\n        /* \"Contracts/TTSwapV1Coin.sol\":12646:12692  e_delCoinbyGator(msg.sender, _contractaddress) */\n      0xad5eeaa2ee1bef6674ecea21b9329a0a9333380eaf145a4b888951038c8aa40c\n      swap2\n        /* \"#utility.yul\":12197:12215   */\n      add\n        /* \"Contracts/TTSwapV1Coin.sol\":12646:12692  e_delCoinbyGator(msg.sender, _contractaddress) */\n      tag_200\n        /* \"#utility.yul\":12050:12354   */\n      jump\n        /* \"Contracts/TTSwapV1Coin.sol\":2410:3371  function addCoinbyMarketor(... */\n    tag_122:\n        /* \"Contracts/TTSwapV1Coin.sol\":1641:1664  marketorContractAddress */\n      0x06\n      0x00\n      swap1\n      sload\n      swap1\n      0x0100\n      exp\n      swap1\n      div\n      sub(shl(0xa0, 0x01), 0x01)\n      and\n      sub(shl(0xa0, 0x01), 0x01)\n        /* \"Contracts/TTSwapV1Coin.sol\":1624:1681  IMarketorV1State(marketorContractAddress).isValidMarketor */\n      and\n      0xad87d2ba\n        /* \"Contracts/TTSwapV1Coin.sol\":1624:1683  IMarketorV1State(marketorContractAddress).isValidMarketor() */\n      mload(0x40)\n      dup2\n      0xffffffff\n      and\n      0xe0\n      shl\n      dup2\n      mstore\n      0x04\n      add\n      0x20\n      mload(0x40)\n      dup1\n      dup4\n      sub\n      dup2\n      dup7\n      gas\n      staticcall\n      iszero\n      dup1\n      iszero\n      tag_275\n      jumpi\n      returndatasize\n      0x00\n      dup1\n      returndatacopy\n      revert(0x00, returndatasize)\n    tag_275:\n      pop\n      pop\n      pop\n      pop\n      mload(0x40)\n      returndatasize\n      not(0x1f)\n      0x1f\n      dup3\n      add\n      and\n      dup3\n      add\n      dup1\n      0x40\n      mstore\n      pop\n      dup2\n      add\n      swap1\n      tag_276\n      swap2\n      swap1\n      tag_158\n      jump\t// in\n    tag_276:\n        /* \"Contracts/TTSwapV1Coin.sol\":1616:1684  require(IMarketorV1State(marketorContractAddress).isValidMarketor()) */\n      tag_277\n      jumpi\n      0x00\n      dup1\n      revert\n    tag_277:\n        /* \"Contracts/TTSwapV1Coin.sol\":2551:2576  _coinInfo.contractAddress */\n      0xc0\n      dup2\n      add\n      mload\n      sub(shl(0xa0, 0x01), 0x01)\n        /* \"Contracts/TTSwapV1Coin.sol\":2542:2577  coinList[_coinInfo.contractAddress] */\n      and\n      0x00\n      swap1\n      dup2\n      mstore\n        /* \"Contracts/TTSwapV1Coin.sol\":2542:2550  coinList */\n      0x03\n        /* \"Contracts/TTSwapV1Coin.sol\":2542:2577  coinList[_coinInfo.contractAddress] */\n      0x20\n      mstore\n      0x40\n      swap1\n      keccak256\n        /* \"Contracts/TTSwapV1Coin.sol\":2542:2584  coinList[_coinInfo.contractAddress].isUsed */\n      0x06\n      add\n      sload\n      shl(0xb0, 0x01)\n      swap1\n      div\n      0xff\n      and\n        /* \"Contracts/TTSwapV1Coin.sol\":2542:2592  coinList[_coinInfo.contractAddress].isUsed != true */\n      iszero\n      iszero\n        /* \"Contracts/TTSwapV1Coin.sol\":2588:2592  true */\n      0x01\n        /* \"Contracts/TTSwapV1Coin.sol\":2542:2592  coinList[_coinInfo.contractAddress].isUsed != true */\n      sub\n        /* \"Contracts/TTSwapV1Coin.sol\":2521:2632  require(... */\n      tag_279\n      jumpi\n      mload(0x40)\n      shl(0xe5, 0x461bcd)\n      dup2\n      mstore\n        /* \"#utility.yul\":13284:13286   */\n      0x20\n        /* \"Contracts/TTSwapV1Coin.sol\":2521:2632  require(... */\n      0x04\n      dup3\n      add\n        /* \"#utility.yul\":13266:13287   */\n      mstore\n        /* \"#utility.yul\":13323:13325   */\n      0x0e\n        /* \"#utility.yul\":13303:13321   */\n      0x24\n      dup3\n      add\n        /* \"#utility.yul\":13296:13326   */\n      mstore\n      shl(0x92, 0x1d1a194818dbda5b88195e1a5cdd)\n        /* \"#utility.yul\":13342:13360   */\n      0x44\n      dup3\n      add\n        /* \"#utility.yul\":13335:13379   */\n      mstore\n        /* \"#utility.yul\":13396:13414   */\n      0x64\n      add\n        /* \"Contracts/TTSwapV1Coin.sol\":2521:2632  require(... */\n      tag_162\n        /* \"#utility.yul\":13082:13420   */\n      jump\n        /* \"Contracts/TTSwapV1Coin.sol\":2521:2632  require(... */\n    tag_279:\n        /* \"Contracts/TTSwapV1Coin.sol\":2662:2672  msg.sender */\n      caller\n        /* \"Contracts/TTSwapV1Coin.sol\":2642:2659  _coinInfo.creator */\n      0x0140\n      dup3\n      add\n        /* \"Contracts/TTSwapV1Coin.sol\":2642:2672  _coinInfo.creator = msg.sender */\n      mstore\n        /* \"Contracts/TTSwapV1Coin.sol\":2707:2712  false */\n      0x00\n        /* \"Contracts/TTSwapV1Coin.sol\":2682:2704  _coinInfo.marketunlock */\n      0xe0\n      dup3\n      add\n        /* \"Contracts/TTSwapV1Coin.sol\":2682:2712  _coinInfo.marketunlock = false */\n      dup2\n      swap1\n      mstore\n      0x01\n        /* \"Contracts/TTSwapV1Coin.sol\":2722:2742  _coinInfo.gateunlock */\n      0x0100\n      dup4\n      add\n        /* \"Contracts/TTSwapV1Coin.sol\":2722:2749  _coinInfo.gateunlock = true */\n      dup2\n      swap1\n      mstore\n        /* \"Contracts/TTSwapV1Coin.sol\":2759:2775  _coinInfo.isUsed */\n      0x0120\n      dup4\n      add\n        /* \"Contracts/TTSwapV1Coin.sol\":2759:2782  _coinInfo.isUsed = true */\n      dup2\n      swap1\n      mstore\n        /* \"Contracts/TTSwapV1Coin.sol\":2823:2846  marketorContractAddress */\n      and(sub(shl(0xa0, 0x01), 0x01), sload(0x06))\n        /* \"Contracts/TTSwapV1Coin.sol\":2813:2847  coinMaxNo[marketorContractAddress] */\n      dup3\n      mstore\n      0x20\n      dup3\n      swap1\n      mstore\n      0x40\n      swap1\n      swap2\n      keccak256\n      sload\n      sub(shl(0x80, 0x01), 0x01)\n      and\n      swap1\n        /* \"Contracts/TTSwapV1Coin.sol\":2861:2876  coin_MaxNo >= 1 */\n      dup2\n      lt\n      dup1\n      iszero\n      swap1\n        /* \"Contracts/TTSwapV1Coin.sol\":2861:2908  coin_MaxNo >= 1 && coin_MaxNo + 1 >= coin_MaxNo */\n      tag_282\n      jumpi\n      pop\n      sub(shl(0x80, 0x01), 0x01)\n        /* \"Contracts/TTSwapV1Coin.sol\":2880:2908  coin_MaxNo + 1 >= coin_MaxNo */\n      dup2\n      and\n        /* \"Contracts/TTSwapV1Coin.sol\":2880:2894  coin_MaxNo + 1 */\n      tag_283\n        /* \"Contracts/TTSwapV1Coin.sol\":2898:2908  coin_MaxNo */\n      dup3\n        /* \"Contracts/TTSwapV1Coin.sol\":2893:2894  1 */\n      0x01\n        /* \"Contracts/TTSwapV1Coin.sol\":2880:2894  coin_MaxNo + 1 */\n      tag_166\n      jump\t// in\n    tag_283:\n      sub(shl(0x80, 0x01), 0x01)\n        /* \"Contracts/TTSwapV1Coin.sol\":2880:2908  coin_MaxNo + 1 >= coin_MaxNo */\n      and\n      lt\n      iszero\n        /* \"Contracts/TTSwapV1Coin.sol\":2861:2908  coin_MaxNo >= 1 && coin_MaxNo + 1 >= coin_MaxNo */\n    tag_282:\n        /* \"Contracts/TTSwapV1Coin.sol\":2857:2995  if (coin_MaxNo >= 1 && coin_MaxNo + 1 >= coin_MaxNo) {... */\n      iszero\n      tag_284\n      jumpi\n        /* \"Contracts/TTSwapV1Coin.sol\":2924:2939  coin_MaxNo += 1 */\n      tag_285\n        /* \"Contracts/TTSwapV1Coin.sol\":2938:2939  1 */\n      0x01\n        /* \"Contracts/TTSwapV1Coin.sol\":2924:2939  coin_MaxNo += 1 */\n      dup3\n      tag_166\n      jump\t// in\n    tag_285:\n      swap1\n      pop\n        /* \"Contracts/TTSwapV1Coin.sol\":2857:2995  if (coin_MaxNo >= 1 && coin_MaxNo + 1 >= coin_MaxNo) {... */\n      jump(tag_286)\n    tag_284:\n      pop\n        /* \"Contracts/TTSwapV1Coin.sol\":2983:2984  1 */\n      0x01\n        /* \"Contracts/TTSwapV1Coin.sol\":2857:2995  if (coin_MaxNo >= 1 && coin_MaxNo + 1 >= coin_MaxNo) {... */\n    tag_286:\n        /* \"Contracts/TTSwapV1Coin.sol\":3014:3037  marketorContractAddress */\n      0x06\n      dup1\n      sload\n      sub(shl(0xa0, 0x01), 0x01)\n      swap1\n      dup2\n      and\n        /* \"Contracts/TTSwapV1Coin.sol\":3004:3013  coinMaxNo */\n      0x00\n        /* \"Contracts/TTSwapV1Coin.sol\":3004:3038  coinMaxNo[marketorContractAddress] */\n      swap1\n      dup2\n      mstore\n      0x20\n      dup2\n      dup2\n      mstore\n      0x40\n      dup1\n      dup4\n      keccak256\n        /* \"Contracts/TTSwapV1Coin.sol\":3004:3051  coinMaxNo[marketorContractAddress] = coin_MaxNo */\n      dup1\n      sload\n      sub(shl(0x80, 0x01), 0x01)\n      dup9\n      and\n      not(sub(shl(0x80, 0x01), 0x01))\n      swap2\n      dup3\n      and\n      dup2\n      or\n      swap1\n      swap3\n      sstore\n        /* \"Contracts/TTSwapV1Coin.sol\":3115:3153  _coinInfo... */\n      0xc0\n      dup10\n      add\n      dup1\n      mload\n        /* \"Contracts/TTSwapV1Coin.sol\":3076:3099  marketorContractAddress */\n      dup9\n      sload\n      dup9\n      and\n        /* \"Contracts/TTSwapV1Coin.sol\":3062:3100  ownerCoinList[marketorContractAddress] */\n      dup8\n      mstore\n        /* \"Contracts/TTSwapV1Coin.sol\":3014:3037  marketorContractAddress */\n      0x01\n        /* \"Contracts/TTSwapV1Coin.sol\":3062:3100  ownerCoinList[marketorContractAddress] */\n      dup1\n      dup8\n      mstore\n      dup6\n      dup9\n      keccak256\n        /* \"Contracts/TTSwapV1Coin.sol\":3062:3112  ownerCoinList[marketorContractAddress][coin_MaxNo] */\n      dup6\n      dup10\n      mstore\n      dup8\n      mstore\n      dup6\n      dup9\n      keccak256\n        /* \"Contracts/TTSwapV1Coin.sol\":3062:3153  ownerCoinList[marketorContractAddress][coin_MaxNo] = _coinInfo... */\n      dup1\n      sload\n      swap3\n      dup11\n      and\n      not(sub(shl(0xa0, 0x01), 0x01))\n      swap4\n      dup5\n      and\n      or\n      swap1\n      sstore\n        /* \"Contracts/TTSwapV1Coin.sol\":3175:3198  marketorContractAddress */\n      dup10\n      sload\n      dup10\n      and\n        /* \"Contracts/TTSwapV1Coin.sol\":3163:3199  ownerCoinNo[marketorContractAddress] */\n      dup9\n      mstore\n        /* \"Contracts/TTSwapV1Coin.sol\":3163:3174  ownerCoinNo */\n      0x02\n        /* \"Contracts/TTSwapV1Coin.sol\":3163:3199  ownerCoinNo[marketorContractAddress] */\n      dup1\n      dup9\n      mstore\n      dup7\n      dup10\n      keccak256\n        /* \"Contracts/TTSwapV1Coin.sol\":3213:3238  _coinInfo.contractAddress */\n      dup5\n      mload\n        /* \"Contracts/TTSwapV1Coin.sol\":3163:3248  ownerCoinNo[marketorContractAddress][... */\n      dup12\n      and\n      dup11\n      mstore\n      dup9\n      mstore\n      dup7\n      dup10\n      keccak256\n        /* \"Contracts/TTSwapV1Coin.sol\":3163:3261  ownerCoinNo[marketorContractAddress][... */\n      dup1\n      sload\n      swap1\n      swap6\n      and\n      swap1\n      swap6\n      or\n      swap1\n      swap4\n      sstore\n        /* \"Contracts/TTSwapV1Coin.sol\":3281:3306  _coinInfo.contractAddress */\n      dup2\n      mload\n        /* \"Contracts/TTSwapV1Coin.sol\":3272:3307  coinList[_coinInfo.contractAddress] */\n      dup9\n      and\n      dup8\n      mstore\n        /* \"Contracts/TTSwapV1Coin.sol\":3272:3280  coinList */\n      0x03\n        /* \"Contracts/TTSwapV1Coin.sol\":3272:3307  coinList[_coinInfo.contractAddress] */\n      dup1\n      dup8\n      mstore\n      swap7\n      dup6\n      swap1\n      keccak256\n        /* \"Contracts/TTSwapV1Coin.sol\":3272:3319  coinList[_coinInfo.contractAddress] = _coinInfo */\n      dup12\n      mload\n      dup2\n      sstore\n      swap6\n      dup12\n      add\n      mload\n      swap3\n      dup7\n      add\n      swap3\n      swap1\n      swap3\n      sstore\n      dup10\n      dup5\n      add\n      mload\n      swap3\n      dup6\n      add\n      swap3\n      swap1\n      swap3\n      sstore\n      0x60\n      dup10\n      add\n      mload\n      swap5\n      dup5\n      add\n      dup1\n      sload\n      0xff\n      swap1\n      swap7\n      and\n      not(0xff)\n      swap1\n      swap7\n      and\n      swap6\n      swap1\n      swap6\n      or\n      swap1\n      swap5\n      sstore\n      0x80\n      dup9\n      add\n      mload\n      0x04\n      dup5\n      add\n      sstore\n      0xa0\n      dup9\n      add\n      mload\n      0x05\n      dup5\n      add\n      sstore\n      mload\n      swap5\n      dup3\n      add\n      dup1\n      sload\n      0xe0\n      dup10\n      add\n      mload\n        /* \"Contracts/TTSwapV1Coin.sol\":3014:3037  marketorContractAddress */\n      0x0100\n        /* \"Contracts/TTSwapV1Coin.sol\":3272:3319  coinList[_coinInfo.contractAddress] = _coinInfo */\n      dup11\n      add\n      mload\n      0x0120\n      dup12\n      add\n      mload\n      iszero\n      iszero\n      shl(0xb0, 0x01)\n      mul\n      not(shl(0xb0, 0xff))\n      swap2\n      iszero\n      iszero\n      shl(0xa8, 0x01)\n      mul\n      swap2\n      swap1\n      swap2\n      and\n      not(shl(0xa8, 0xffff))\n      swap3\n      iszero\n      iszero\n      shl(0xa0, 0x01)\n      mul\n      not(sub(shl(0xa8, 0x01), 0x01))\n      swap1\n      swap5\n      and\n      swap10\n      dup10\n      and\n      swap10\n      swap1\n      swap10\n      or\n      swap3\n      swap1\n      swap3\n      or\n      and\n      swap7\n      swap1\n      swap7\n      or\n      swap6\n      swap1\n      swap6\n      or\n      swap1\n      swap5\n      sstore\n      0x0140\n      dup7\n      add\n      mload\n      0x07\n      swap1\n      swap2\n      add\n      dup1\n      sload\n      swap2\n      swap1\n      swap4\n      and\n      swap2\n      and\n      or\n      swap1\n      sstore\n        /* \"Contracts/TTSwapV1Coin.sol\":3334:3364  e_addCoinbyMarketor(_coinInfo) */\n      mload\n      0x3fdeabf9cf0f252033e117e3bf501c16a9e905759535453a989a37bbb55557cb\n      swap1\n      tag_175\n      swap1\n        /* \"Contracts/TTSwapV1Coin.sol\":3115:3124  _coinInfo */\n      dup5\n      swap1\n        /* \"Contracts/TTSwapV1Coin.sol\":3334:3364  e_addCoinbyMarketor(_coinInfo) */\n      tag_96\n      jump\t// in\n        /* \"Contracts/TTSwapV1Coin.sol\":4935:5139  function lockCoinbyMarketor(... */\n    tag_125:\n        /* \"Contracts/TTSwapV1Coin.sol\":1641:1664  marketorContractAddress */\n      0x06\n      0x00\n      swap1\n      sload\n      swap1\n      0x0100\n      exp\n      swap1\n      div\n      sub(shl(0xa0, 0x01), 0x01)\n      and\n      sub(shl(0xa0, 0x01), 0x01)\n        /* \"Contracts/TTSwapV1Coin.sol\":1624:1681  IMarketorV1State(marketorContractAddress).isValidMarketor */\n      and\n      0xad87d2ba\n        /* \"Contracts/TTSwapV1Coin.sol\":1624:1683  IMarketorV1State(marketorContractAddress).isValidMarketor() */\n      mload(0x40)\n      dup2\n      0xffffffff\n      and\n      0xe0\n      shl\n      dup2\n      mstore\n      0x04\n      add\n      0x20\n      mload(0x40)\n      dup1\n      dup4\n      sub\n      dup2\n      dup7\n      gas\n      staticcall\n      iszero\n      dup1\n      iszero\n      tag_290\n      jumpi\n      returndatasize\n      0x00\n      dup1\n      returndatacopy\n      revert(0x00, returndatasize)\n    tag_290:\n      pop\n      pop\n      pop\n      pop\n      mload(0x40)\n      returndatasize\n      not(0x1f)\n      0x1f\n      dup3\n      add\n      and\n      dup3\n      add\n      dup1\n      0x40\n      mstore\n      pop\n      dup2\n      add\n      swap1\n      tag_291\n      swap2\n      swap1\n      tag_158\n      jump\t// in\n    tag_291:\n        /* \"Contracts/TTSwapV1Coin.sol\":1616:1684  require(IMarketorV1State(marketorContractAddress).isValidMarketor()) */\n      tag_292\n      jumpi\n      0x00\n      dup1\n      revert\n    tag_292:\n      sub(shl(0xa0, 0x01), 0x01)\n        /* \"Contracts/TTSwapV1Coin.sol\":5040:5062  coinList[_CoinAddress] */\n      dup2\n      and\n        /* \"Contracts/TTSwapV1Coin.sol\":5078:5083  false */\n      0x00\n        /* \"Contracts/TTSwapV1Coin.sol\":5040:5062  coinList[_CoinAddress] */\n      dup2\n      dup2\n      mstore\n        /* \"Contracts/TTSwapV1Coin.sol\":5040:5048  coinList */\n      0x03\n        /* \"Contracts/TTSwapV1Coin.sol\":5040:5062  coinList[_CoinAddress] */\n      0x20\n      swap1\n      dup2\n      mstore\n      0x40\n      swap2\n      dup3\n      swap1\n      keccak256\n        /* \"Contracts/TTSwapV1Coin.sol\":5040:5075  coinList[_CoinAddress].marketunlock */\n      0x06\n      add\n        /* \"Contracts/TTSwapV1Coin.sol\":5040:5083  coinList[_CoinAddress].marketunlock = false */\n      dup1\n      sload\n      not(shl(0xa0, 0xff))\n      and\n      swap1\n      sstore\n        /* \"Contracts/TTSwapV1Coin.sol\":5098:5132  e_lockCoinbyMarketor(_CoinAddress) */\n      swap1\n      mload\n        /* \"#utility.yul\":3811:3862   */\n      swap2\n      dup3\n      mstore\n        /* \"Contracts/TTSwapV1Coin.sol\":5098:5132  e_lockCoinbyMarketor(_CoinAddress) */\n      0x1d4523355c952f926d43eb41085d74f46339403039ec5258081efa96ea26edd7\n      swap2\n        /* \"#utility.yul\":3784:3802   */\n      add\n        /* \"Contracts/TTSwapV1Coin.sol\":5098:5132  e_lockCoinbyMarketor(_CoinAddress) */\n      tag_200\n        /* \"#utility.yul\":3665:3868   */\n      jump\n        /* \"Contracts/TTSwapV1Coin.sol\":1836:2163  function setCoinEnv(... */\n    tag_129:\n        /* \"Contracts/TTSwapV1Coin.sol\":1755:1768  marketCreator */\n      and(sub(shl(0xa0, 0x01), 0x01), sload(0x07))\n        /* \"Contracts/TTSwapV1Coin.sol\":1772:1782  msg.sender */\n      caller\n        /* \"Contracts/TTSwapV1Coin.sol\":1755:1782  marketCreator == msg.sender */\n      eq\n        /* \"Contracts/TTSwapV1Coin.sol\":1747:1812  require(marketCreator == msg.sender, \"you are not marketcreater\") */\n      tag_296\n      jumpi\n      mload(0x40)\n      shl(0xe5, 0x461bcd)\n      dup2\n      mstore\n        /* \"#utility.yul\":13627:13629   */\n      0x20\n        /* \"Contracts/TTSwapV1Coin.sol\":1747:1812  require(marketCreator == msg.sender, \"you are not marketcreater\") */\n      0x04\n      dup3\n      add\n        /* \"#utility.yul\":13609:13630   */\n      mstore\n        /* \"#utility.yul\":13666:13668   */\n      0x19\n        /* \"#utility.yul\":13646:13664   */\n      0x24\n      dup3\n      add\n        /* \"#utility.yul\":13639:13669   */\n      mstore\n        /* \"#utility.yul\":13705:13732   */\n      0x796f7520617265206e6f74206d61726b65746372656174657200000000000000\n        /* \"#utility.yul\":13685:13703   */\n      0x44\n      dup3\n      add\n        /* \"#utility.yul\":13678:13733   */\n      mstore\n        /* \"#utility.yul\":13750:13768   */\n      0x64\n      add\n        /* \"Contracts/TTSwapV1Coin.sol\":1747:1812  require(marketCreator == msg.sender, \"you are not marketcreater\") */\n      tag_162\n        /* \"#utility.yul\":13425:13774   */\n      jump\n        /* \"Contracts/TTSwapV1Coin.sol\":1747:1812  require(marketCreator == msg.sender, \"you are not marketcreater\") */\n    tag_296:\n        /* \"Contracts/TTSwapV1Coin.sol\":2012:2035  marketorContractAddress */\n      0x06\n        /* \"Contracts/TTSwapV1Coin.sol\":2012:2062  marketorContractAddress = _marketorContractAddress */\n      dup1\n      sload\n      sub(shl(0xa0, 0x01), 0x01)\n      swap5\n      dup6\n      and\n      not(sub(shl(0xa0, 0x01), 0x01))\n      swap2\n      dup3\n      and\n      or\n      swap1\n      swap2\n      sstore\n        /* \"Contracts/TTSwapV1Coin.sol\":2072:2092  gatorContractAddress */\n      0x05\n        /* \"Contracts/TTSwapV1Coin.sol\":2072:2116  gatorContractAddress = _gatorContractAddress */\n      dup1\n      sload\n      swap4\n      dup6\n      and\n      swap4\n      dup3\n      and\n      swap4\n      swap1\n      swap4\n      or\n      swap1\n      swap3\n      sstore\n        /* \"Contracts/TTSwapV1Coin.sol\":2126:2139  marketCreator */\n      0x07\n        /* \"Contracts/TTSwapV1Coin.sol\":2126:2156  marketCreator = _marketCreator */\n      dup1\n      sload\n      swap2\n      swap1\n      swap4\n      and\n      swap2\n      and\n      or\n      swap1\n      sstore\n        /* \"Contracts/TTSwapV1Coin.sol\":1836:2163  function setCoinEnv(... */\n      jump\t// out\n        /* \"Contracts/TTSwapV1Coin.sol\":11284:12241  function updateCoinbyGator(... */\n    tag_133:\n        /* \"Contracts/TTSwapV1Coin.sol\":1521:1541  gatorContractAddress */\n      0x05\n      0x00\n      swap1\n      sload\n      swap1\n      0x0100\n      exp\n      swap1\n      div\n      sub(shl(0xa0, 0x01), 0x01)\n      and\n      sub(shl(0xa0, 0x01), 0x01)\n        /* \"Contracts/TTSwapV1Coin.sol\":1507:1555  IGatorV1State(gatorContractAddress).isValidGator */\n      and\n      0x54a460f6\n        /* \"Contracts/TTSwapV1Coin.sol\":1507:1557  IGatorV1State(gatorContractAddress).isValidGator() */\n      mload(0x40)\n      dup2\n      0xffffffff\n      and\n      0xe0\n      shl\n      dup2\n      mstore\n      0x04\n      add\n      0x20\n      mload(0x40)\n      dup1\n      dup4\n      sub\n      dup2\n      dup7\n      gas\n      staticcall\n      iszero\n      dup1\n      iszero\n      tag_302\n      jumpi\n      returndatasize\n      0x00\n      dup1\n      returndatacopy\n      revert(0x00, returndatasize)\n    tag_302:\n      pop\n      pop\n      pop\n      pop\n      mload(0x40)\n      returndatasize\n      not(0x1f)\n      0x1f\n      dup3\n      add\n      and\n      dup3\n      add\n      dup1\n      0x40\n      mstore\n      pop\n      dup2\n      add\n      swap1\n      tag_303\n      swap2\n      swap1\n      tag_158\n      jump\t// in\n    tag_303:\n        /* \"Contracts/TTSwapV1Coin.sol\":1499:1558  require(IGatorV1State(gatorContractAddress).isValidGator()) */\n      tag_304\n      jumpi\n      0x00\n      dup1\n      revert\n    tag_304:\n      sub(shl(0xa0, 0x01), 0x01)\n        /* \"Contracts/TTSwapV1Coin.sol\":11668:11693  coinList[contractAddress] */\n      dup2\n      dup2\n      and\n      0x00\n      swap1\n      dup2\n      mstore\n        /* \"Contracts/TTSwapV1Coin.sol\":11668:11676  coinList */\n      0x03\n        /* \"Contracts/TTSwapV1Coin.sol\":11668:11693  coinList[contractAddress] */\n      0x20\n      mstore\n      0x40\n      swap1\n      keccak256\n        /* \"Contracts/TTSwapV1Coin.sol\":11668:11701  coinList[contractAddress].creator */\n      0x07\n      add\n      sload\n      and\n        /* \"Contracts/TTSwapV1Coin.sol\":11705:11715  msg.sender */\n      caller\n        /* \"Contracts/TTSwapV1Coin.sol\":11668:11715  coinList[contractAddress].creator == msg.sender */\n      eq\n        /* \"Contracts/TTSwapV1Coin.sol\":11647:11763  require(... */\n      tag_306\n      jumpi\n      mload(0x40)\n      shl(0xe5, 0x461bcd)\n      dup2\n      mstore\n      0x04\n      add\n      tag_162\n      swap1\n      tag_217\n      jump\t// in\n    tag_306:\n      sub(shl(0xa0, 0x01), 0x01)\n        /* \"Contracts/TTSwapV1Coin.sol\":11773:11798  coinList[contractAddress] */\n      dup2\n      and\n      0x00\n      swap1\n      dup2\n      mstore\n        /* \"Contracts/TTSwapV1Coin.sol\":11773:11781  coinList */\n      0x03\n        /* \"Contracts/TTSwapV1Coin.sol\":11773:11798  coinList[contractAddress] */\n      0x20\n      dup2\n      swap1\n      mstore\n      0x40\n      swap2\n      dup3\n      swap1\n      keccak256\n        /* \"Contracts/TTSwapV1Coin.sol\":11773:11826  coinList[contractAddress].coinFullName = coinFullName */\n      dup10\n      dup2\n      sstore\n        /* \"Contracts/TTSwapV1Coin.sol\":11836:11868  coinList[contractAddress].symbol */\n      0x01\n      dup2\n      add\n        /* \"Contracts/TTSwapV1Coin.sol\":11836:11877  coinList[contractAddress].symbol = symbol */\n      dup10\n      swap1\n      sstore\n        /* \"Contracts/TTSwapV1Coin.sol\":11887:11921  coinList[contractAddress].typecode */\n      0x02\n      dup2\n      add\n        /* \"Contracts/TTSwapV1Coin.sol\":11887:11932  coinList[contractAddress].typecode = typecode */\n      dup9\n      swap1\n      sstore\n        /* \"Contracts/TTSwapV1Coin.sol\":11942:11976  coinList[contractAddress].decimals */\n      swap1\n      dup2\n      add\n        /* \"Contracts/TTSwapV1Coin.sol\":11942:11987  coinList[contractAddress].decimals = decimals */\n      dup1\n      sload\n      not(0xff)\n      and\n      0xff\n      dup9\n      and\n      or\n      swap1\n      sstore\n        /* \"Contracts/TTSwapV1Coin.sol\":11997:12032  coinList[contractAddress].maxSupply */\n      0x04\n      dup2\n      add\n        /* \"Contracts/TTSwapV1Coin.sol\":11997:12044  coinList[contractAddress].maxSupply = maxSupply */\n      dup6\n      swap1\n      sstore\n        /* \"Contracts/TTSwapV1Coin.sol\":12109:12146  coinList[contractAddress].totalSupply */\n      0x05\n      dup2\n      add\n        /* \"Contracts/TTSwapV1Coin.sol\":12109:12160  coinList[contractAddress].totalSupply = totalSupply */\n      dup5\n      swap1\n      sstore\n        /* \"Contracts/TTSwapV1Coin.sol\":12176:12234  e_updateCoinbyGator(msg.sender, coinList[contractAddress]) */\n      swap1\n      mload\n      0xe2cf3d7794282be7dd508f8c88ca5394f0abe2b9f09b848306b1eadd0becdf94\n      swap2\n      tag_308\n      swap2\n        /* \"Contracts/TTSwapV1Coin.sol\":12196:12206  msg.sender */\n      caller\n      swap2\n        /* \"Contracts/TTSwapV1Coin.sol\":11773:11798  coinList[contractAddress] */\n      swap1\n        /* \"Contracts/TTSwapV1Coin.sol\":12176:12234  e_updateCoinbyGator(msg.sender, coinList[contractAddress]) */\n      tag_309\n      jump\t// in\n    tag_308:\n      mload(0x40)\n      dup1\n      swap2\n      sub\n      swap1\n      log1\n        /* \"Contracts/TTSwapV1Coin.sol\":11284:12241  function updateCoinbyGator(... */\n      pop\n      pop\n      pop\n      pop\n      pop\n      pop\n      pop\n      jump\t// out\n        /* \"Contracts/TTSwapV1Coin.sol\":8838:9255  function addCoinDetailInfobyGator(... */\n    tag_136:\n        /* \"Contracts/TTSwapV1Coin.sol\":1521:1541  gatorContractAddress */\n      0x05\n      0x00\n      swap1\n      sload\n      swap1\n      0x0100\n      exp\n      swap1\n      div\n      sub(shl(0xa0, 0x01), 0x01)\n      and\n      sub(shl(0xa0, 0x01), 0x01)\n        /* \"Contracts/TTSwapV1Coin.sol\":1507:1555  IGatorV1State(gatorContractAddress).isValidGator */\n      and\n      0x54a460f6\n        /* \"Contracts/TTSwapV1Coin.sol\":1507:1557  IGatorV1State(gatorContractAddress).isValidGator() */\n      mload(0x40)\n      dup2\n      0xffffffff\n      and\n      0xe0\n      shl\n      dup2\n      mstore\n      0x04\n      add\n      0x20\n      mload(0x40)\n      dup1\n      dup4\n      sub\n      dup2\n      dup7\n      gas\n      staticcall\n      iszero\n      dup1\n      iszero\n      tag_312\n      jumpi\n      returndatasize\n      0x00\n      dup1\n      returndatacopy\n      revert(0x00, returndatasize)\n    tag_312:\n      pop\n      pop\n      pop\n      pop\n      mload(0x40)\n      returndatasize\n      not(0x1f)\n      0x1f\n      dup3\n      add\n      and\n      dup3\n      add\n      dup1\n      0x40\n      mstore\n      pop\n      dup2\n      add\n      swap1\n      tag_313\n      swap2\n      swap1\n      tag_158\n      jump\t// in\n    tag_313:\n        /* \"Contracts/TTSwapV1Coin.sol\":1499:1558  require(IGatorV1State(gatorContractAddress).isValidGator()) */\n      tag_314\n      jumpi\n      0x00\n      dup1\n      revert\n    tag_314:\n        /* \"Contracts/TTSwapV1Coin.sol\":8995:9026  _coinDetailInfo.contractAddress */\n      dup1\n      mload\n      sub(shl(0xa0, 0x01), 0x01)\n        /* \"Contracts/TTSwapV1Coin.sol\":8986:9027  coinList[_coinDetailInfo.contractAddress] */\n      swap1\n      dup2\n      and\n      0x00\n      swap1\n      dup2\n      mstore\n        /* \"Contracts/TTSwapV1Coin.sol\":8986:8994  coinList */\n      0x03\n        /* \"Contracts/TTSwapV1Coin.sol\":8986:9027  coinList[_coinDetailInfo.contractAddress] */\n      0x20\n      mstore\n      0x40\n      swap1\n      keccak256\n        /* \"Contracts/TTSwapV1Coin.sol\":8986:9035  coinList[_coinDetailInfo.contractAddress].creator */\n      0x07\n      add\n      sload\n      and\n        /* \"Contracts/TTSwapV1Coin.sol\":9039:9049  msg.sender */\n      caller\n        /* \"Contracts/TTSwapV1Coin.sol\":8986:9049  coinList[_coinDetailInfo.contractAddress].creator == msg.sender */\n      eq\n        /* \"Contracts/TTSwapV1Coin.sol\":8965:9103  require(... */\n      tag_198\n      jumpi\n      mload(0x40)\n      shl(0xe5, 0x461bcd)\n      dup2\n      mstore\n        /* \"#utility.yul\":10835:10837   */\n      0x20\n        /* \"Contracts/TTSwapV1Coin.sol\":8965:9103  require(... */\n      0x04\n      dup3\n      add\n        /* \"#utility.yul\":10817:10838   */\n      mstore\n        /* \"#utility.yul\":10874:10876   */\n      0x1c\n        /* \"#utility.yul\":10854:10872   */\n      0x24\n      dup3\n      add\n        /* \"#utility.yul\":10847:10877   */\n      mstore\n        /* \"#utility.yul\":10913:10943   */\n      0x796f75206973206e6f7420746865207468696e67206372656174657200000000\n        /* \"#utility.yul\":10893:10911   */\n      0x44\n      dup3\n      add\n        /* \"#utility.yul\":10886:10944   */\n      mstore\n        /* \"#utility.yul\":10961:10979   */\n      0x64\n      add\n        /* \"Contracts/TTSwapV1Coin.sol\":8965:9103  require(... */\n      tag_162\n        /* \"#utility.yul\":10633:10985   */\n      jump\n        /* \"Contracts/TTSwapV1Coin.sol\":7902:8832  function addCoinbyGator(... */\n    tag_139:\n        /* \"Contracts/TTSwapV1Coin.sol\":1521:1541  gatorContractAddress */\n      0x05\n      0x00\n      swap1\n      sload\n      swap1\n      0x0100\n      exp\n      swap1\n      div\n      sub(shl(0xa0, 0x01), 0x01)\n      and\n      sub(shl(0xa0, 0x01), 0x01)\n        /* \"Contracts/TTSwapV1Coin.sol\":1507:1555  IGatorV1State(gatorContractAddress).isValidGator */\n      and\n      0x54a460f6\n        /* \"Contracts/TTSwapV1Coin.sol\":1507:1557  IGatorV1State(gatorContractAddress).isValidGator() */\n      mload(0x40)\n      dup2\n      0xffffffff\n      and\n      0xe0\n      shl\n      dup2\n      mstore\n      0x04\n      add\n      0x20\n      mload(0x40)\n      dup1\n      dup4\n      sub\n      dup2\n      dup7\n      gas\n      staticcall\n      iszero\n      dup1\n      iszero\n      tag_321\n      jumpi\n      returndatasize\n      0x00\n      dup1\n      returndatacopy\n      revert(0x00, returndatasize)\n    tag_321:\n      pop\n      pop\n      pop\n      pop\n      mload(0x40)\n      returndatasize\n      not(0x1f)\n      0x1f\n      dup3\n      add\n      and\n      dup3\n      add\n      dup1\n      0x40\n      mstore\n      pop\n      dup2\n      add\n      swap1\n      tag_322\n      swap2\n      swap1\n      tag_158\n      jump\t// in\n    tag_322:\n        /* \"Contracts/TTSwapV1Coin.sol\":1499:1558  require(IGatorV1State(gatorContractAddress).isValidGator()) */\n      tag_323\n      jumpi\n      0x00\n      dup1\n      revert\n    tag_323:\n        /* \"Contracts/TTSwapV1Coin.sol\":8037:8062  _coinInfo.contractAddress */\n      0xc0\n      dup2\n      add\n      mload\n      sub(shl(0xa0, 0x01), 0x01)\n        /* \"Contracts/TTSwapV1Coin.sol\":8028:8063  coinList[_coinInfo.contractAddress] */\n      and\n      0x00\n      swap1\n      dup2\n      mstore\n        /* \"Contracts/TTSwapV1Coin.sol\":8028:8036  coinList */\n      0x03\n        /* \"Contracts/TTSwapV1Coin.sol\":8028:8063  coinList[_coinInfo.contractAddress] */\n      0x20\n      mstore\n      0x40\n      swap1\n      keccak256\n        /* \"Contracts/TTSwapV1Coin.sol\":8028:8070  coinList[_coinInfo.contractAddress].isUsed */\n      0x06\n      add\n      sload\n      shl(0xb0, 0x01)\n      swap1\n      div\n      0xff\n      and\n        /* \"Contracts/TTSwapV1Coin.sol\":8028:8078  coinList[_coinInfo.contractAddress].isUsed != true */\n      iszero\n      iszero\n        /* \"Contracts/TTSwapV1Coin.sol\":8074:8078  true */\n      0x01\n        /* \"Contracts/TTSwapV1Coin.sol\":8028:8078  coinList[_coinInfo.contractAddress].isUsed != true */\n      sub\n        /* \"Contracts/TTSwapV1Coin.sol\":8007:8122  require(... */\n      tag_325\n      jumpi\n      mload(0x40)\n      shl(0xe5, 0x461bcd)\n      dup2\n      mstore\n        /* \"#utility.yul\":9849:9851   */\n      0x20\n        /* \"Contracts/TTSwapV1Coin.sol\":8007:8122  require(... */\n      0x04\n      dup3\n      add\n        /* \"#utility.yul\":9831:9852   */\n      mstore\n        /* \"#utility.yul\":9888:9890   */\n      0x12\n        /* \"#utility.yul\":9868:9886   */\n      0x24\n      dup3\n      add\n        /* \"#utility.yul\":9861:9891   */\n      mstore\n      shl(0x72, 0x1d1a194818dbda5b881a5cc808195e1a5cdd)\n        /* \"#utility.yul\":9907:9925   */\n      0x44\n      dup3\n      add\n        /* \"#utility.yul\":9900:9948   */\n      mstore\n        /* \"#utility.yul\":9965:9983   */\n      0x64\n      add\n        /* \"Contracts/TTSwapV1Coin.sol\":8007:8122  require(... */\n      tag_162\n        /* \"#utility.yul\":9647:9989   */\n      jump\n        /* \"Contracts/TTSwapV1Coin.sol\":8007:8122  require(... */\n    tag_325:\n        /* \"Contracts/TTSwapV1Coin.sol\":8152:8162  msg.sender */\n      caller\n        /* \"Contracts/TTSwapV1Coin.sol\":8132:8149  _coinInfo.creator */\n      0x0140\n      dup3\n      add\n        /* \"Contracts/TTSwapV1Coin.sol\":8132:8162  _coinInfo.creator = msg.sender */\n      dup2\n      swap1\n      mstore\n        /* \"Contracts/TTSwapV1Coin.sol\":8197:8202  false */\n      0x00\n        /* \"Contracts/TTSwapV1Coin.sol\":8172:8194  _coinInfo.marketunlock */\n      0xe0\n      dup4\n      add\n        /* \"Contracts/TTSwapV1Coin.sol\":8172:8202  _coinInfo.marketunlock = false */\n      dup2\n      swap1\n      mstore\n        /* \"Contracts/TTSwapV1Coin.sol\":8212:8232  _coinInfo.gateunlock */\n      0x0100\n      dup4\n      add\n        /* \"Contracts/TTSwapV1Coin.sol\":8212:8240  _coinInfo.gateunlock = false */\n      dup2\n      swap1\n      mstore\n        /* \"Contracts/TTSwapV1Coin.sol\":8172:8202  _coinInfo.marketunlock = false */\n      0x01\n        /* \"Contracts/TTSwapV1Coin.sol\":8250:8266  _coinInfo.isUsed */\n      0x0120\n      dup5\n      add\n        /* \"Contracts/TTSwapV1Coin.sol\":8250:8273  _coinInfo.isUsed = true */\n      dup2\n      swap1\n      mstore\n        /* \"Contracts/TTSwapV1Coin.sol\":8300:8321  coinMaxNo[msg.sender] */\n      swap2\n      dup2\n      mstore\n      0x20\n      dup2\n      swap1\n      mstore\n      0x40\n      swap1\n      keccak256\n      sload\n      sub(shl(0x80, 0x01), 0x01)\n      and\n        /* \"Contracts/TTSwapV1Coin.sol\":8300:8326  coinMaxNo[msg.sender] >= 1 */\n      lt\n      dup1\n      iszero\n      swap1\n        /* \"Contracts/TTSwapV1Coin.sol\":8300:8392  coinMaxNo[msg.sender] >= 1 &&... */\n      tag_327\n      jumpi\n      pop\n        /* \"Contracts/TTSwapV1Coin.sol\":8381:8391  msg.sender */\n      caller\n        /* \"Contracts/TTSwapV1Coin.sol\":8371:8380  coinMaxNo */\n      0x00\n        /* \"Contracts/TTSwapV1Coin.sol\":8371:8392  coinMaxNo[msg.sender] */\n      swap1\n      dup2\n      mstore\n      0x20\n      dup2\n      swap1\n      mstore\n      0x40\n      swap1\n      keccak256\n      sload\n      sub(shl(0x80, 0x01), 0x01)\n      and\n        /* \"Contracts/TTSwapV1Coin.sol\":8342:8367  coinMaxNo[msg.sender] + 1 */\n      tag_328\n        /* \"Contracts/TTSwapV1Coin.sol\":8371:8392  coinMaxNo[msg.sender] */\n      dup2\n      0x01\n        /* \"Contracts/TTSwapV1Coin.sol\":8342:8367  coinMaxNo[msg.sender] + 1 */\n      tag_166\n      jump\t// in\n    tag_328:\n      sub(shl(0x80, 0x01), 0x01)\n        /* \"Contracts/TTSwapV1Coin.sol\":8342:8392  coinMaxNo[msg.sender] + 1 >= coinMaxNo[msg.sender] */\n      and\n      lt\n      iszero\n        /* \"Contracts/TTSwapV1Coin.sol\":8300:8392  coinMaxNo[msg.sender] >= 1 &&... */\n    tag_327:\n        /* \"Contracts/TTSwapV1Coin.sol\":8283:8510  if (... */\n      iszero\n      tag_329\n      jumpi\n        /* \"Contracts/TTSwapV1Coin.sol\":8427:8437  msg.sender */\n      caller\n        /* \"Contracts/TTSwapV1Coin.sol\":8417:8426  coinMaxNo */\n      0x00\n        /* \"Contracts/TTSwapV1Coin.sol\":8417:8438  coinMaxNo[msg.sender] */\n      swap1\n      dup2\n      mstore\n      0x20\n      dup2\n      swap1\n      mstore\n      0x40\n      dup2\n      keccak256\n        /* \"Contracts/TTSwapV1Coin.sol\":8417:8443  coinMaxNo[msg.sender] += 1 */\n      dup1\n      sload\n        /* \"Contracts/TTSwapV1Coin.sol\":8442:8443  1 */\n      0x01\n      swap3\n        /* \"Contracts/TTSwapV1Coin.sol\":8417:8426  coinMaxNo */\n      swap1\n        /* \"Contracts/TTSwapV1Coin.sol\":8417:8443  coinMaxNo[msg.sender] += 1 */\n      tag_330\n      swap1\n        /* \"Contracts/TTSwapV1Coin.sol\":8442:8443  1 */\n      dup5\n      swap1\n      sub(shl(0x80, 0x01), 0x01)\n        /* \"Contracts/TTSwapV1Coin.sol\":8417:8443  coinMaxNo[msg.sender] += 1 */\n      and\n      tag_166\n      jump\t// in\n    tag_330:\n      swap3\n      pop\n      0x0100\n      exp\n      dup2\n      sload\n      dup2\n      sub(shl(0x80, 0x01), 0x01)\n      mul\n      not\n      and\n      swap1\n      dup4\n      sub(shl(0x80, 0x01), 0x01)\n      and\n      mul\n      or\n      swap1\n      sstore\n      pop\n        /* \"Contracts/TTSwapV1Coin.sol\":8283:8510  if (... */\n      jump(tag_331)\n    tag_329:\n        /* \"Contracts/TTSwapV1Coin.sol\":8484:8494  msg.sender */\n      caller\n        /* \"Contracts/TTSwapV1Coin.sol\":8474:8483  coinMaxNo */\n      0x00\n        /* \"Contracts/TTSwapV1Coin.sol\":8474:8495  coinMaxNo[msg.sender] */\n      swap1\n      dup2\n      mstore\n      0x20\n      dup2\n      swap1\n      mstore\n      0x40\n      swap1\n      keccak256\n        /* \"Contracts/TTSwapV1Coin.sol\":8474:8499  coinMaxNo[msg.sender] = 1 */\n      dup1\n      sload\n      not(sub(shl(0x80, 0x01), 0x01))\n      and\n        /* \"Contracts/TTSwapV1Coin.sol\":8498:8499  1 */\n      0x01\n        /* \"Contracts/TTSwapV1Coin.sol\":8474:8499  coinMaxNo[msg.sender] = 1 */\n      or\n      swap1\n      sstore\n        /* \"Contracts/TTSwapV1Coin.sol\":8283:8510  if (... */\n    tag_331:\n        /* \"Contracts/TTSwapV1Coin.sol\":8570:8608  _coinInfo... */\n      0xc0\n      dup2\n      add\n      dup1\n      mload\n        /* \"Contracts/TTSwapV1Coin.sol\":8533:8543  msg.sender */\n      caller\n        /* \"Contracts/TTSwapV1Coin.sol\":8519:8544  ownerCoinList[msg.sender] */\n      0x00\n      dup2\n      dup2\n      mstore\n        /* \"Contracts/TTSwapV1Coin.sol\":8519:8532  ownerCoinList */\n      0x01\n        /* \"Contracts/TTSwapV1Coin.sol\":8519:8544  ownerCoinList[msg.sender] */\n      0x20\n      dup2\n      dup2\n      mstore\n      0x40\n      dup1\n      dup5\n      keccak256\n        /* \"Contracts/TTSwapV1Coin.sol\":8545:8566  coinMaxNo[msg.sender] */\n      dup5\n      dup4\n      mstore\n      dup2\n      dup6\n      keccak256\n      dup1\n      sload\n      sub(shl(0x80, 0x01), 0x01)\n      swap1\n      dup2\n      and\n        /* \"Contracts/TTSwapV1Coin.sol\":8519:8567  ownerCoinList[msg.sender][coinMaxNo[msg.sender]] */\n      dup8\n      mstore\n      swap2\n      dup5\n      mstore\n      dup3\n      dup7\n      keccak256\n        /* \"Contracts/TTSwapV1Coin.sol\":8519:8608  ownerCoinList[msg.sender][coinMaxNo[msg.sender]] = _coinInfo... */\n      dup1\n      sload\n      sub(shl(0xa0, 0x01), 0x01)\n      swap10\n      dup11\n      and\n      not(sub(shl(0xa0, 0x01), 0x01))\n      swap2\n      dup3\n      and\n      or\n      swap1\n      swap2\n      sstore\n        /* \"Contracts/TTSwapV1Coin.sol\":8671:8714  coinMaxNo[... */\n      dup8\n      dup8\n      mstore\n      swap1\n      sload\n        /* \"Contracts/TTSwapV1Coin.sol\":8618:8629  ownerCoinNo */\n      0x02\n        /* \"Contracts/TTSwapV1Coin.sol\":8618:8641  ownerCoinNo[msg.sender] */\n      dup1\n      dup7\n      mstore\n      dup5\n      dup9\n      keccak256\n        /* \"Contracts/TTSwapV1Coin.sol\":8642:8667  _coinInfo.contractAddress */\n      dup12\n      mload\n        /* \"Contracts/TTSwapV1Coin.sol\":8618:8668  ownerCoinNo[msg.sender][_coinInfo.contractAddress] */\n      dup12\n      and\n      dup10\n      mstore\n      dup7\n      mstore\n      dup5\n      dup9\n      keccak256\n        /* \"Contracts/TTSwapV1Coin.sol\":8618:8714  ownerCoinNo[msg.sender][_coinInfo.contractAddress] = coinMaxNo[... */\n      dup1\n      sload\n      not(sub(shl(0x80, 0x01), 0x01))\n      and\n        /* \"Contracts/TTSwapV1Coin.sol\":8671:8714  coinMaxNo[... */\n      swap3\n      swap1\n      swap5\n      and\n        /* \"Contracts/TTSwapV1Coin.sol\":8618:8714  ownerCoinNo[msg.sender][_coinInfo.contractAddress] = coinMaxNo[... */\n      swap2\n      swap1\n      swap2\n      or\n      swap1\n      swap3\n      sstore\n        /* \"Contracts/TTSwapV1Coin.sol\":8733:8758  _coinInfo.contractAddress */\n      dup9\n      mload\n        /* \"Contracts/TTSwapV1Coin.sol\":8724:8759  coinList[_coinInfo.contractAddress] */\n      dup9\n      and\n      dup7\n      mstore\n        /* \"Contracts/TTSwapV1Coin.sol\":8724:8732  coinList */\n      0x03\n        /* \"Contracts/TTSwapV1Coin.sol\":8724:8759  coinList[_coinInfo.contractAddress] */\n      dup1\n      dup6\n      mstore\n      swap6\n      dup4\n      swap1\n      keccak256\n        /* \"Contracts/TTSwapV1Coin.sol\":8724:8771  coinList[_coinInfo.contractAddress] = _coinInfo */\n      dup11\n      mload\n      dup2\n      sstore\n      swap4\n      dup11\n      add\n      mload\n      swap5\n      dup5\n      add\n      swap5\n      swap1\n      swap5\n      sstore\n      dup2\n      dup10\n      add\n      mload\n      swap1\n      dup4\n      add\n      sstore\n      0x60\n      dup9\n      add\n      mload\n      swap4\n      dup3\n      add\n      dup1\n      sload\n      0xff\n      swap1\n      swap6\n      and\n      not(0xff)\n      swap1\n      swap6\n      and\n      swap5\n      swap1\n      swap5\n      or\n      swap1\n      swap4\n      sstore\n      0x80\n      dup8\n      add\n      mload\n      0x04\n      dup3\n      add\n      sstore\n      0xa0\n      dup8\n      add\n      mload\n      0x05\n      dup3\n      add\n      sstore\n      swap5\n      mload\n      0x06\n      dup7\n      add\n      dup1\n      sload\n      0xe0\n      dup10\n      add\n      mload\n        /* \"Contracts/TTSwapV1Coin.sol\":8545:8566  coinMaxNo[msg.sender] */\n      0x0100\n        /* \"Contracts/TTSwapV1Coin.sol\":8724:8771  coinList[_coinInfo.contractAddress] = _coinInfo */\n      dup11\n      add\n      mload\n      0x0120\n      dup12\n      add\n      mload\n      iszero\n      iszero\n      shl(0xb0, 0x01)\n      mul\n      not(shl(0xb0, 0xff))\n      swap2\n      iszero\n      iszero\n      shl(0xa8, 0x01)\n      mul\n      swap2\n      swap1\n      swap2\n      and\n      not(shl(0xa8, 0xffff))\n      swap3\n      iszero\n      iszero\n      shl(0xa0, 0x01)\n      mul\n      not(sub(shl(0xa8, 0x01), 0x01))\n      swap1\n      swap5\n      and\n      swap6\n      dup11\n      and\n      swap6\n      swap1\n      swap6\n      or\n      swap3\n      swap1\n      swap3\n      or\n      and\n      swap3\n      swap1\n      swap3\n      or\n      swap2\n      swap1\n      swap2\n      or\n      swap1\n      sstore\n      0x0140\n      dup7\n      add\n      mload\n      0x07\n      swap1\n      swap6\n      add\n      dup1\n      sload\n      swap6\n      swap1\n      swap5\n      and\n      swap5\n      and\n      swap4\n      swap1\n      swap4\n      or\n      swap1\n      swap2\n      sstore\n        /* \"Contracts/TTSwapV1Coin.sol\":8786:8825  e_addCoinbyGator(msg.sender, _coinInfo) */\n      swap1\n      mload\n      0x724ed868ad6195ec663de17364300ee1e1956f27f184ceb84f2be30d1fd58d65\n      swap2\n      tag_200\n      swap2\n        /* \"Contracts/TTSwapV1Coin.sol\":8570:8579  _coinInfo */\n      dup5\n      swap1\n        /* \"Contracts/TTSwapV1Coin.sol\":8786:8825  e_addCoinbyGator(msg.sender, _coinInfo) */\n      tag_171\n      jump\t// in\n        /* \"Contracts/TTSwapV1Coin.sol\":13095:13388  function getCoinInfoFromaddress(... */\n    tag_142:\n        /* \"Contracts/TTSwapV1Coin.sol\":13199:13216  LCoin.Info memory */\n      tag_333\n      tag_231\n      jump\t// in\n    tag_333:\n      sub(shl(0xa0, 0x01), 0x01)\n        /* \"Contracts/TTSwapV1Coin.sol\":13249:13275  coinList[_contractaddress] */\n      dup3\n      and\n      0x00\n      swap1\n      dup2\n      mstore\n        /* \"Contracts/TTSwapV1Coin.sol\":13249:13257  coinList */\n      0x03\n        /* \"Contracts/TTSwapV1Coin.sol\":13249:13275  coinList[_contractaddress] */\n      0x20\n      mstore\n      0x40\n      swap1\n      keccak256\n        /* \"Contracts/TTSwapV1Coin.sol\":13249:13282  coinList[_contractaddress].isUsed */\n      0x06\n      add\n      sload\n      shl(0xb0, 0x01)\n      swap1\n      div\n      0xff\n      and\n        /* \"Contracts/TTSwapV1Coin.sol\":13249:13290  coinList[_contractaddress].isUsed == true */\n      iszero\n      iszero\n        /* \"Contracts/TTSwapV1Coin.sol\":13286:13290  true */\n      0x01\n        /* \"Contracts/TTSwapV1Coin.sol\":13249:13290  coinList[_contractaddress].isUsed == true */\n      eq\n        /* \"Contracts/TTSwapV1Coin.sol\":13228:13338  require(... */\n      tag_335\n      jumpi\n      mload(0x40)\n      shl(0xe5, 0x461bcd)\n      dup2\n      mstore\n      0x04\n      add\n      tag_162\n      swap1\n      tag_184\n      jump\t// in\n    tag_335:\n      pop\n      sub(shl(0xa0, 0x01), 0x01)\n        /* \"Contracts/TTSwapV1Coin.sol\":13355:13381  coinList[_contractaddress] */\n      swap1\n      dup2\n      and\n      0x00\n      swap1\n      dup2\n      mstore\n        /* \"Contracts/TTSwapV1Coin.sol\":13355:13363  coinList */\n      0x03\n        /* \"Contracts/TTSwapV1Coin.sol\":13355:13381  coinList[_contractaddress] */\n      0x20\n      dup2\n      dup2\n      mstore\n      0x40\n      swap3\n      dup4\n      swap1\n      keccak256\n        /* \"Contracts/TTSwapV1Coin.sol\":13348:13381  return coinList[_contractaddress] */\n      dup4\n      mload\n      0x0160\n      dup2\n      add\n      dup6\n      mstore\n      dup2\n      sload\n      dup2\n      mstore\n      0x01\n      dup3\n      add\n      sload\n      swap3\n      dup2\n      add\n      swap3\n      swap1\n      swap3\n      mstore\n      0x02\n      dup2\n      add\n      sload\n      swap4\n      dup3\n      add\n      swap4\n      swap1\n      swap4\n      mstore\n      swap1\n      dup3\n      add\n      sload\n      0xff\n      swap1\n      dup2\n      and\n      0x60\n      dup4\n      add\n      mstore\n      0x04\n      dup4\n      add\n      sload\n      0x80\n      dup4\n      add\n      mstore\n      0x05\n      dup4\n      add\n      sload\n      0xa0\n      dup4\n      add\n      mstore\n      0x06\n      dup4\n      add\n      sload\n      dup1\n      dup6\n      and\n      0xc0\n      dup5\n      add\n      mstore\n      shl(0xa0, 0x01)\n      dup2\n      div\n      dup3\n      and\n      iszero\n      iszero\n      0xe0\n      dup5\n      add\n      mstore\n      shl(0xa8, 0x01)\n      dup2\n      div\n      dup3\n      and\n      iszero\n      iszero\n      0x0100\n      dup5\n      add\n      mstore\n      shl(0xb0, 0x01)\n      swap1\n      div\n      and\n      iszero\n      iszero\n      0x0120\n      dup3\n      add\n      mstore\n      0x07\n      swap1\n      swap2\n      add\n      sload\n      swap1\n      swap2\n      and\n      0x0140\n      dup3\n      add\n      mstore\n      swap1\n        /* \"Contracts/TTSwapV1Coin.sol\":13095:13388  function getCoinInfoFromaddress(... */\n      jump\t// out\n        /* \"Contracts/TTSwapV1Coin.sol\":7310:7764  function delCoinbyMarketor(uint128 _coinNo) external override onlyMarketor {... */\n    tag_150:\n        /* \"Contracts/TTSwapV1Coin.sol\":1641:1664  marketorContractAddress */\n      0x06\n      0x00\n      swap1\n      sload\n      swap1\n      0x0100\n      exp\n      swap1\n      div\n      sub(shl(0xa0, 0x01), 0x01)\n      and\n      sub(shl(0xa0, 0x01), 0x01)\n        /* \"Contracts/TTSwapV1Coin.sol\":1624:1681  IMarketorV1State(marketorContractAddress).isValidMarketor */\n      and\n      0xad87d2ba\n        /* \"Contracts/TTSwapV1Coin.sol\":1624:1683  IMarketorV1State(marketorContractAddress).isValidMarketor() */\n      mload(0x40)\n      dup2\n      0xffffffff\n      and\n      0xe0\n      shl\n      dup2\n      mstore\n      0x04\n      add\n      0x20\n      mload(0x40)\n      dup1\n      dup4\n      sub\n      dup2\n      dup7\n      gas\n      staticcall\n      iszero\n      dup1\n      iszero\n      tag_339\n      jumpi\n      returndatasize\n      0x00\n      dup1\n      returndatacopy\n      revert(0x00, returndatasize)\n    tag_339:\n      pop\n      pop\n      pop\n      pop\n      mload(0x40)\n      returndatasize\n      not(0x1f)\n      0x1f\n      dup3\n      add\n      and\n      dup3\n      add\n      dup1\n      0x40\n      mstore\n      pop\n      dup2\n      add\n      swap1\n      tag_340\n      swap2\n      swap1\n      tag_158\n      jump\t// in\n    tag_340:\n        /* \"Contracts/TTSwapV1Coin.sol\":1616:1684  require(IMarketorV1State(marketorContractAddress).isValidMarketor()) */\n      tag_341\n      jumpi\n      0x00\n      dup1\n      revert\n    tag_341:\n        /* \"Contracts/TTSwapV1Coin.sol\":7430:7453  marketorContractAddress */\n      sload(0x06)\n      sub(shl(0xa0, 0x01), 0x01)\n      swap1\n      dup2\n      and\n        /* \"Contracts/TTSwapV1Coin.sol\":7475:7476  0 */\n      0x00\n        /* \"Contracts/TTSwapV1Coin.sol\":7416:7454  ownerCoinList[marketorContractAddress] */\n      swap1\n      dup2\n      mstore\n        /* \"Contracts/TTSwapV1Coin.sol\":7416:7429  ownerCoinList */\n      0x01\n        /* \"Contracts/TTSwapV1Coin.sol\":7416:7454  ownerCoinList[marketorContractAddress] */\n      0x20\n      swap1\n      dup2\n      mstore\n      0x40\n      dup1\n      dup4\n      keccak256\n      sub(shl(0x80, 0x01), 0x01)\n        /* \"Contracts/TTSwapV1Coin.sol\":7416:7463  ownerCoinList[marketorContractAddress][_coinNo] */\n      dup7\n      and\n      dup5\n      mstore\n      swap1\n      swap2\n      mstore\n      swap1\n      keccak256\n      sload\n      and\n        /* \"Contracts/TTSwapV1Coin.sol\":7395:7525  require(... */\n      tag_343\n      jumpi\n      mload(0x40)\n      shl(0xe5, 0x461bcd)\n      dup2\n      mstore\n      0x04\n      add\n      tag_162\n      swap1\n      tag_184\n      jump\t// in\n    tag_343:\n        /* \"Contracts/TTSwapV1Coin.sol\":7555:7578  marketorContractAddress */\n      0x06\n      dup1\n      sload\n      sub(shl(0xa0, 0x01), 0x01)\n      swap1\n      dup2\n      and\n        /* \"Contracts/TTSwapV1Coin.sol\":7543:7579  ownerCoinNo[marketorContractAddress] */\n      0x00\n      swap1\n      dup2\n      mstore\n        /* \"Contracts/TTSwapV1Coin.sol\":7543:7554  ownerCoinNo */\n      0x02\n        /* \"Contracts/TTSwapV1Coin.sol\":7543:7579  ownerCoinNo[marketorContractAddress] */\n      0x20\n      swap1\n      dup2\n      mstore\n      0x40\n      dup1\n      dup4\n      keccak256\n        /* \"Contracts/TTSwapV1Coin.sol\":7555:7578  marketorContractAddress */\n      0x01\n        /* \"Contracts/TTSwapV1Coin.sol\":7593:7631  ownerCoinList[marketorContractAddress] */\n      dup1\n      dup5\n      mstore\n      dup3\n      dup6\n      keccak256\n      sub(shl(0x80, 0x01), 0x01)\n        /* \"Contracts/TTSwapV1Coin.sol\":7593:7640  ownerCoinList[marketorContractAddress][_coinNo] */\n      dup10\n      and\n      dup1\n      dup8\n      mstore\n      swap1\n      dup6\n      mstore\n      dup4\n      dup7\n      keccak256\n      sload\n      dup8\n      and\n        /* \"Contracts/TTSwapV1Coin.sol\":7543:7650  ownerCoinNo[marketorContractAddress][... */\n      dup7\n      mstore\n      swap2\n      dup5\n      mstore\n      dup3\n      dup6\n      keccak256\n        /* \"Contracts/TTSwapV1Coin.sol\":7536:7650  delete ownerCoinNo[marketorContractAddress][... */\n      dup1\n      sload\n      not(sub(shl(0x80, 0x01), 0x01))\n      and\n      swap1\n      sstore\n        /* \"Contracts/TTSwapV1Coin.sol\":7681:7704  marketorContractAddress */\n      swap6\n      sload\n      swap1\n      swap5\n      and\n        /* \"Contracts/TTSwapV1Coin.sol\":7667:7705  ownerCoinList[marketorContractAddress] */\n      dup4\n      mstore\n      swap4\n      dup2\n      mstore\n      dup4\n      dup3\n      keccak256\n        /* \"Contracts/TTSwapV1Coin.sol\":7667:7714  ownerCoinList[marketorContractAddress][_coinNo] */\n      dup4\n      dup4\n      mstore\n      dup2\n      mstore\n      swap1\n      dup4\n      swap1\n      keccak256\n        /* \"Contracts/TTSwapV1Coin.sol\":7660:7714  delete ownerCoinList[marketorContractAddress][_coinNo] */\n      dup1\n      sload\n      not(sub(shl(0xa0, 0x01), 0x01))\n      and\n      swap1\n      sstore\n        /* \"Contracts/TTSwapV1Coin.sol\":7729:7757  e_delCoinbyMarketor(_coinNo) */\n      swap2\n      mload\n        /* \"#utility.yul\":5647:5713   */\n      swap1\n      dup2\n      mstore\n        /* \"Contracts/TTSwapV1Coin.sol\":7729:7757  e_delCoinbyMarketor(_coinNo) */\n      0x5f7c082ccca0f36ec2622a3f2d11cf4a4b3a0db0557669195572256a1db6be98\n      swap2\n        /* \"#utility.yul\":5620:5638   */\n      add\n        /* \"Contracts/TTSwapV1Coin.sol\":7729:7757  e_delCoinbyMarketor(_coinNo) */\n      tag_200\n        /* \"#utility.yul\":5501:5719   */\n      jump\n        /* \"Contracts/TTSwapV1Coin.sol\":3766:4929  function addCoinFullinfobyMarketor(... */\n    tag_153:\n        /* \"Contracts/TTSwapV1Coin.sol\":1641:1664  marketorContractAddress */\n      0x06\n      0x00\n      swap1\n      sload\n      swap1\n      0x0100\n      exp\n      swap1\n      div\n      sub(shl(0xa0, 0x01), 0x01)\n      and\n      sub(shl(0xa0, 0x01), 0x01)\n        /* \"Contracts/TTSwapV1Coin.sol\":1624:1681  IMarketorV1State(marketorContractAddress).isValidMarketor */\n      and\n      0xad87d2ba\n        /* \"Contracts/TTSwapV1Coin.sol\":1624:1683  IMarketorV1State(marketorContractAddress).isValidMarketor() */\n      mload(0x40)\n      dup2\n      0xffffffff\n      and\n      0xe0\n      shl\n      dup2\n      mstore\n      0x04\n      add\n      0x20\n      mload(0x40)\n      dup1\n      dup4\n      sub\n      dup2\n      dup7\n      gas\n      staticcall\n      iszero\n      dup1\n      iszero\n      tag_348\n      jumpi\n      returndatasize\n      0x00\n      dup1\n      returndatacopy\n      revert(0x00, returndatasize)\n    tag_348:\n      pop\n      pop\n      pop\n      pop\n      mload(0x40)\n      returndatasize\n      not(0x1f)\n      0x1f\n      dup3\n      add\n      and\n      dup3\n      add\n      dup1\n      0x40\n      mstore\n      pop\n      dup2\n      add\n      swap1\n      tag_349\n      swap2\n      swap1\n      tag_158\n      jump\t// in\n    tag_349:\n        /* \"Contracts/TTSwapV1Coin.sol\":1616:1684  require(IMarketorV1State(marketorContractAddress).isValidMarketor()) */\n      tag_350\n      jumpi\n      0x00\n      dup1\n      revert\n    tag_350:\n        /* \"Contracts/TTSwapV1Coin.sol\":3964:3989  _coinInfo.contractAddress */\n      0xc0\n      dup3\n      add\n      mload\n      sub(shl(0xa0, 0x01), 0x01)\n        /* \"Contracts/TTSwapV1Coin.sol\":3955:3990  coinList[_coinInfo.contractAddress] */\n      and\n      0x00\n      swap1\n      dup2\n      mstore\n        /* \"Contracts/TTSwapV1Coin.sol\":3955:3963  coinList */\n      0x03\n        /* \"Contracts/TTSwapV1Coin.sol\":3955:3990  coinList[_coinInfo.contractAddress] */\n      0x20\n      mstore\n      0x40\n      swap1\n      keccak256\n        /* \"Contracts/TTSwapV1Coin.sol\":3955:3997  coinList[_coinInfo.contractAddress].isUsed */\n      0x06\n      add\n      sload\n      shl(0xb0, 0x01)\n      swap1\n      div\n      0xff\n      and\n        /* \"Contracts/TTSwapV1Coin.sol\":3955:4005  coinList[_coinInfo.contractAddress].isUsed != true */\n      iszero\n      iszero\n        /* \"Contracts/TTSwapV1Coin.sol\":4001:4005  true */\n      0x01\n        /* \"Contracts/TTSwapV1Coin.sol\":3955:4005  coinList[_coinInfo.contractAddress].isUsed != true */\n      sub\n        /* \"Contracts/TTSwapV1Coin.sol\":3934:4045  require(... */\n      tag_352\n      jumpi\n      mload(0x40)\n      shl(0xe5, 0x461bcd)\n      dup2\n      mstore\n        /* \"#utility.yul\":13284:13286   */\n      0x20\n        /* \"Contracts/TTSwapV1Coin.sol\":3934:4045  require(... */\n      0x04\n      dup3\n      add\n        /* \"#utility.yul\":13266:13287   */\n      mstore\n        /* \"#utility.yul\":13323:13325   */\n      0x0e\n        /* \"#utility.yul\":13303:13321   */\n      0x24\n      dup3\n      add\n        /* \"#utility.yul\":13296:13326   */\n      mstore\n      shl(0x92, 0x1d1a194818dbda5b88195e1a5cdd)\n        /* \"#utility.yul\":13342:13360   */\n      0x44\n      dup3\n      add\n        /* \"#utility.yul\":13335:13379   */\n      mstore\n        /* \"#utility.yul\":13396:13414   */\n      0x64\n      add\n        /* \"Contracts/TTSwapV1Coin.sol\":3934:4045  require(... */\n      tag_162\n        /* \"#utility.yul\":13082:13420   */\n      jump\n        /* \"Contracts/TTSwapV1Coin.sol\":3934:4045  require(... */\n    tag_352:\n        /* \"Contracts/TTSwapV1Coin.sol\":4075:4085  msg.sender */\n      caller\n        /* \"Contracts/TTSwapV1Coin.sol\":4055:4072  _coinInfo.creator */\n      0x0140\n      dup4\n      add\n        /* \"Contracts/TTSwapV1Coin.sol\":4055:4085  _coinInfo.creator = msg.sender */\n      mstore\n        /* \"Contracts/TTSwapV1Coin.sol\":4120:4125  false */\n      0x00\n        /* \"Contracts/TTSwapV1Coin.sol\":4095:4117  _coinInfo.marketunlock */\n      0xe0\n      dup4\n      add\n        /* \"Contracts/TTSwapV1Coin.sol\":4095:4125  _coinInfo.marketunlock = false */\n      dup2\n      swap1\n      mstore\n      0x01\n        /* \"Contracts/TTSwapV1Coin.sol\":4135:4155  _coinInfo.gateunlock */\n      0x0100\n      dup5\n      add\n        /* \"Contracts/TTSwapV1Coin.sol\":4135:4162  _coinInfo.gateunlock = true */\n      dup2\n      swap1\n      mstore\n        /* \"Contracts/TTSwapV1Coin.sol\":4172:4188  _coinInfo.isUsed */\n      0x0120\n      dup5\n      add\n        /* \"Contracts/TTSwapV1Coin.sol\":4172:4195  _coinInfo.isUsed = true */\n      dup2\n      swap1\n      mstore\n        /* \"Contracts/TTSwapV1Coin.sol\":4236:4259  marketorContractAddress */\n      and(sub(shl(0xa0, 0x01), 0x01), sload(0x06))\n        /* \"Contracts/TTSwapV1Coin.sol\":4226:4260  coinMaxNo[marketorContractAddress] */\n      dup3\n      mstore\n      0x20\n      dup3\n      swap1\n      mstore\n      0x40\n      swap1\n      swap2\n      keccak256\n      sload\n      sub(shl(0x80, 0x01), 0x01)\n      and\n      swap1\n        /* \"Contracts/TTSwapV1Coin.sol\":4274:4289  coin_MaxNo >= 1 */\n      dup2\n      lt\n      dup1\n      iszero\n      swap1\n        /* \"Contracts/TTSwapV1Coin.sol\":4274:4321  coin_MaxNo >= 1 && coin_MaxNo + 1 >= coin_MaxNo */\n      tag_354\n      jumpi\n      pop\n      sub(shl(0x80, 0x01), 0x01)\n        /* \"Contracts/TTSwapV1Coin.sol\":4293:4321  coin_MaxNo + 1 >= coin_MaxNo */\n      dup2\n      and\n        /* \"Contracts/TTSwapV1Coin.sol\":4293:4307  coin_MaxNo + 1 */\n      tag_355\n        /* \"Contracts/TTSwapV1Coin.sol\":4311:4321  coin_MaxNo */\n      dup3\n        /* \"Contracts/TTSwapV1Coin.sol\":4306:4307  1 */\n      0x01\n        /* \"Contracts/TTSwapV1Coin.sol\":4293:4307  coin_MaxNo + 1 */\n      tag_166\n      jump\t// in\n    tag_355:\n      sub(shl(0x80, 0x01), 0x01)\n        /* \"Contracts/TTSwapV1Coin.sol\":4293:4321  coin_MaxNo + 1 >= coin_MaxNo */\n      and\n      lt\n      iszero\n        /* \"Contracts/TTSwapV1Coin.sol\":4274:4321  coin_MaxNo >= 1 && coin_MaxNo + 1 >= coin_MaxNo */\n    tag_354:\n        /* \"Contracts/TTSwapV1Coin.sol\":4270:4408  if (coin_MaxNo >= 1 && coin_MaxNo + 1 >= coin_MaxNo) {... */\n      iszero\n      tag_356\n      jumpi\n        /* \"Contracts/TTSwapV1Coin.sol\":4337:4352  coin_MaxNo += 1 */\n      tag_357\n        /* \"Contracts/TTSwapV1Coin.sol\":4351:4352  1 */\n      0x01\n        /* \"Contracts/TTSwapV1Coin.sol\":4337:4352  coin_MaxNo += 1 */\n      dup3\n      tag_166\n      jump\t// in\n    tag_357:\n      swap1\n      pop\n        /* \"Contracts/TTSwapV1Coin.sol\":4270:4408  if (coin_MaxNo >= 1 && coin_MaxNo + 1 >= coin_MaxNo) {... */\n      jump(tag_358)\n    tag_356:\n      pop\n        /* \"Contracts/TTSwapV1Coin.sol\":4396:4397  1 */\n      0x01\n        /* \"Contracts/TTSwapV1Coin.sol\":4270:4408  if (coin_MaxNo >= 1 && coin_MaxNo + 1 >= coin_MaxNo) {... */\n    tag_358:\n        /* \"Contracts/TTSwapV1Coin.sol\":4427:4450  marketorContractAddress */\n      0x06\n      dup1\n      sload\n      sub(shl(0xa0, 0x01), 0x01)\n      swap1\n      dup2\n      and\n        /* \"Contracts/TTSwapV1Coin.sol\":4417:4426  coinMaxNo */\n      0x00\n        /* \"Contracts/TTSwapV1Coin.sol\":4417:4451  coinMaxNo[marketorContractAddress] */\n      swap1\n      dup2\n      mstore\n      0x20\n      dup2\n      dup2\n      mstore\n      0x40\n      dup1\n      dup4\n      keccak256\n        /* \"Contracts/TTSwapV1Coin.sol\":4417:4464  coinMaxNo[marketorContractAddress] = coin_MaxNo */\n      dup1\n      sload\n      sub(shl(0x80, 0x01), 0x01)\n      dup9\n      and\n      not(sub(shl(0x80, 0x01), 0x01))\n      swap2\n      dup3\n      and\n      dup2\n      or\n      swap1\n      swap3\n      sstore\n        /* \"Contracts/TTSwapV1Coin.sol\":4528:4566  _coinInfo... */\n      0xc0\n      dup11\n      add\n      dup1\n      mload\n        /* \"Contracts/TTSwapV1Coin.sol\":4489:4512  marketorContractAddress */\n      dup9\n      sload\n      dup9\n      and\n        /* \"Contracts/TTSwapV1Coin.sol\":4475:4513  ownerCoinList[marketorContractAddress] */\n      dup8\n      mstore\n        /* \"Contracts/TTSwapV1Coin.sol\":4427:4450  marketorContractAddress */\n      0x01\n        /* \"Contracts/TTSwapV1Coin.sol\":4475:4513  ownerCoinList[marketorContractAddress] */\n      dup1\n      dup8\n      mstore\n      dup6\n      dup9\n      keccak256\n        /* \"Contracts/TTSwapV1Coin.sol\":4475:4525  ownerCoinList[marketorContractAddress][coin_MaxNo] */\n      dup6\n      dup10\n      mstore\n      dup8\n      mstore\n      dup6\n      dup9\n      keccak256\n        /* \"Contracts/TTSwapV1Coin.sol\":4475:4566  ownerCoinList[marketorContractAddress][coin_MaxNo] = _coinInfo... */\n      dup1\n      sload\n      swap3\n      dup11\n      and\n      not(sub(shl(0xa0, 0x01), 0x01))\n      swap4\n      dup5\n      and\n      or\n      swap1\n      sstore\n        /* \"Contracts/TTSwapV1Coin.sol\":4588:4611  marketorContractAddress */\n      dup10\n      sload\n      dup10\n      and\n        /* \"Contracts/TTSwapV1Coin.sol\":4576:4612  ownerCoinNo[marketorContractAddress] */\n      dup9\n      mstore\n        /* \"Contracts/TTSwapV1Coin.sol\":4576:4587  ownerCoinNo */\n      0x02\n        /* \"Contracts/TTSwapV1Coin.sol\":4576:4612  ownerCoinNo[marketorContractAddress] */\n      dup1\n      dup9\n      mstore\n      dup7\n      dup10\n      keccak256\n        /* \"Contracts/TTSwapV1Coin.sol\":4626:4651  _coinInfo.contractAddress */\n      dup5\n      mload\n        /* \"Contracts/TTSwapV1Coin.sol\":4576:4661  ownerCoinNo[marketorContractAddress][... */\n      dup12\n      and\n      dup11\n      mstore\n      dup9\n      mstore\n      dup7\n      dup10\n      keccak256\n        /* \"Contracts/TTSwapV1Coin.sol\":4576:4674  ownerCoinNo[marketorContractAddress][... */\n      dup1\n      sload\n      swap1\n      swap6\n      and\n      swap1\n      swap6\n      or\n      swap1\n      swap4\n      sstore\n        /* \"Contracts/TTSwapV1Coin.sol\":4694:4719  _coinInfo.contractAddress */\n      dup2\n      mload\n        /* \"Contracts/TTSwapV1Coin.sol\":4685:4720  coinList[_coinInfo.contractAddress] */\n      dup9\n      and\n      dup8\n      mstore\n        /* \"Contracts/TTSwapV1Coin.sol\":4685:4693  coinList */\n      0x03\n        /* \"Contracts/TTSwapV1Coin.sol\":4685:4720  coinList[_coinInfo.contractAddress] */\n      dup1\n      dup8\n      mstore\n      swap7\n      dup6\n      swap1\n      keccak256\n        /* \"Contracts/TTSwapV1Coin.sol\":4685:4732  coinList[_coinInfo.contractAddress] = _coinInfo */\n      dup13\n      mload\n      dup2\n      sstore\n      swap6\n      dup13\n      add\n      mload\n      swap3\n      dup7\n      add\n      swap3\n      swap1\n      swap3\n      sstore\n      dup11\n      dup5\n      add\n      mload\n      swap3\n      dup6\n      add\n      swap3\n      swap1\n      swap3\n      sstore\n      0x60\n      dup11\n      add\n      mload\n      swap5\n      dup5\n      add\n      dup1\n      sload\n      0xff\n      swap1\n      swap7\n      and\n      not(0xff)\n      swap1\n      swap7\n      and\n      swap6\n      swap1\n      swap6\n      or\n      swap1\n      swap5\n      sstore\n      0x80\n      dup10\n      add\n      mload\n      0x04\n      dup5\n      add\n      sstore\n      0xa0\n      dup10\n      add\n      mload\n      0x05\n      dup5\n      add\n      sstore\n      mload\n      swap5\n      dup3\n      add\n      dup1\n      sload\n      0xe0\n      dup11\n      add\n      mload\n        /* \"Contracts/TTSwapV1Coin.sol\":4427:4450  marketorContractAddress */\n      0x0100\n        /* \"Contracts/TTSwapV1Coin.sol\":4685:4732  coinList[_coinInfo.contractAddress] = _coinInfo */\n      dup12\n      add\n      mload\n      0x0120\n      dup13\n      add\n      mload\n      iszero\n      iszero\n      shl(0xb0, 0x01)\n      mul\n      not(shl(0xb0, 0xff))\n      swap2\n      iszero\n      iszero\n      shl(0xa8, 0x01)\n      mul\n      swap2\n      swap1\n      swap2\n      and\n      not(shl(0xa8, 0xffff))\n      swap3\n      iszero\n      iszero\n      shl(0xa0, 0x01)\n      mul\n      not(sub(shl(0xa8, 0x01), 0x01))\n      swap1\n      swap5\n      and\n      swap10\n      dup10\n      and\n      swap10\n      swap1\n      swap10\n      or\n      swap3\n      swap1\n      swap3\n      or\n      and\n      swap7\n      swap1\n      swap7\n      or\n      swap6\n      swap1\n      swap6\n      or\n      swap1\n      swap5\n      sstore\n      0x0140\n      dup8\n      add\n      mload\n      0x07\n      swap1\n      swap2\n      add\n      dup1\n      sload\n      swap2\n      swap1\n      swap4\n      and\n      swap2\n      and\n      or\n      swap1\n      sstore\n        /* \"Contracts/TTSwapV1Coin.sol\":4747:4777  e_addCoinbyMarketor(_coinInfo) */\n      mload\n      0x3fdeabf9cf0f252033e117e3bf501c16a9e905759535453a989a37bbb55557cb\n      swap1\n      tag_359\n      swap1\n        /* \"Contracts/TTSwapV1Coin.sol\":4528:4537  _coinInfo */\n      dup6\n      swap1\n        /* \"Contracts/TTSwapV1Coin.sol\":4747:4777  e_addCoinbyMarketor(_coinInfo) */\n      tag_96\n      jump\t// in\n    tag_359:\n      mload(0x40)\n      dup1\n      swap2\n      sub\n      swap1\n      log1\n        /* \"Contracts/TTSwapV1Coin.sol\":4802:4833  _coinDetailInfo.contractAddress */\n      dup2\n      mload\n      sub(shl(0xa0, 0x01), 0x01)\n        /* \"Contracts/TTSwapV1Coin.sol\":4787:4834  coinDetailList[_coinDetailInfo.contractAddress] */\n      swap1\n      dup2\n      and\n      0x00\n      swap1\n      dup2\n      mstore\n        /* \"Contracts/TTSwapV1Coin.sol\":4787:4801  coinDetailList */\n      0x04\n        /* \"Contracts/TTSwapV1Coin.sol\":4787:4834  coinDetailList[_coinDetailInfo.contractAddress] */\n      0x20\n      dup2\n      dup2\n      mstore\n      0x40\n      swap3\n      dup4\n      swap1\n      keccak256\n        /* \"Contracts/TTSwapV1Coin.sol\":4787:4852  coinDetailList[_coinDetailInfo.contractAddress] = _coinDetailInfo */\n      dup7\n      mload\n      dup2\n      sload\n      not(sub(shl(0xa0, 0x01), 0x01))\n      and\n      swap6\n      and\n      swap5\n      dup6\n      or\n      dup2\n      sstore\n      dup2\n      dup8\n      add\n      mload\n      0x01\n      dup3\n      add\n      sstore\n      dup4\n      dup8\n      add\n      mload\n      0x02\n      dup3\n      add\n      sstore\n      0x60\n      dup8\n      add\n      mload\n      0x03\n      dup3\n      add\n      sstore\n      0x80\n      dup8\n      add\n      mload\n      swap3\n      dup2\n      add\n      swap3\n      swap1\n      swap3\n      sstore\n      0xa0\n      dup7\n      add\n      mload\n      0x05\n      swap1\n      swap3\n      add\n      swap2\n      swap1\n      swap2\n      sstore\n        /* \"Contracts/TTSwapV1Coin.sol\":4867:4922  e_addCoinDetailbyGator(_coinDetailInfo.contractAddress) */\n      swap1\n      mload\n        /* \"#utility.yul\":3811:3862   */\n      swap2\n      dup3\n      mstore\n        /* \"Contracts/TTSwapV1Coin.sol\":4867:4922  e_addCoinDetailbyGator(_coinDetailInfo.contractAddress) */\n      0x28995a3cc31b8867e272bf05bb4f577da5e81799e17cf729d123edf7c2a7ca94\n      swap2\n        /* \"#utility.yul\":3784:3802   */\n      add\n        /* \"Contracts/TTSwapV1Coin.sol\":4867:4922  e_addCoinDetailbyGator(_coinDetailInfo.contractAddress) */\n      mload(0x40)\n      dup1\n      swap2\n      sub\n      swap1\n      log1\n        /* \"Contracts/TTSwapV1Coin.sol\":3924:4929  {... */\n      pop\n        /* \"Contracts/TTSwapV1Coin.sol\":3766:4929  function addCoinFullinfobyMarketor(... */\n      pop\n      pop\n      jump\t// out\n    tag_231:\n      0x40\n      dup1\n      mload\n      0x0160\n      dup2\n      add\n      dup3\n      mstore\n      0x00\n      dup1\n      dup3\n      mstore\n      0x20\n      dup3\n      add\n      dup2\n      swap1\n      mstore\n      swap2\n      dup2\n      add\n      dup3\n      swap1\n      mstore\n      0x60\n      dup2\n      add\n      dup3\n      swap1\n      mstore\n      0x80\n      dup2\n      add\n      dup3\n      swap1\n      mstore\n      0xa0\n      dup2\n      add\n      dup3\n      swap1\n      mstore\n      0xc0\n      dup2\n      add\n      dup3\n      swap1\n      mstore\n      0xe0\n      dup2\n      add\n      dup3\n      swap1\n      mstore\n      0x0100\n      dup2\n      add\n      dup3\n      swap1\n      mstore\n      0x0120\n      dup2\n      add\n      dup3\n      swap1\n      mstore\n      0x0140\n      dup2\n      add\n      swap2\n      swap1\n      swap2\n      mstore\n      swap1\n      jump\t// out\n        /* \"#utility.yul\":14:361   */\n    tag_361:\n        /* \"#utility.yul\":81:83   */\n      0x40\n        /* \"#utility.yul\":75:84   */\n      mload\n        /* \"#utility.yul\":123:129   */\n      0x0160\n        /* \"#utility.yul\":111:130   */\n      dup2\n      add\n        /* \"#utility.yul\":160:178   */\n      0xffffffffffffffff\n        /* \"#utility.yul\":145:179   */\n      dup2\n      gt\n        /* \"#utility.yul\":181:203   */\n      dup3\n      dup3\n      lt\n        /* \"#utility.yul\":142:204   */\n      or\n        /* \"#utility.yul\":139:324   */\n      iszero\n      tag_377\n      jumpi\n        /* \"#utility.yul\":246:256   */\n      0x4e487b71\n        /* \"#utility.yul\":241:244   */\n      0xe0\n        /* \"#utility.yul\":237:257   */\n      shl\n        /* \"#utility.yul\":234:235   */\n      0x00\n        /* \"#utility.yul\":227:258   */\n      mstore\n        /* \"#utility.yul\":281:285   */\n      0x41\n        /* \"#utility.yul\":278:279   */\n      0x04\n        /* \"#utility.yul\":271:286   */\n      mstore\n        /* \"#utility.yul\":309:313   */\n      0x24\n        /* \"#utility.yul\":306:307   */\n      0x00\n        /* \"#utility.yul\":299:314   */\n      revert\n        /* \"#utility.yul\":139:324   */\n    tag_377:\n        /* \"#utility.yul\":340:342   */\n      0x40\n        /* \"#utility.yul\":333:355   */\n      mstore\n        /* \"#utility.yul\":14:361   */\n      swap1\n      jump\t// out\n        /* \"#utility.yul\":366:522   */\n    tag_362:\n        /* \"#utility.yul\":432:452   */\n      dup1\n      calldataload\n        /* \"#utility.yul\":492:496   */\n      0xff\n        /* \"#utility.yul\":481:497   */\n      dup2\n      and\n        /* \"#utility.yul\":471:498   */\n      dup2\n      eq\n        /* \"#utility.yul\":461:516   */\n      tag_379\n      jumpi\n        /* \"#utility.yul\":512:513   */\n      0x00\n        /* \"#utility.yul\":509:510   */\n      dup1\n        /* \"#utility.yul\":502:514   */\n      revert\n        /* \"#utility.yul\":461:516   */\n    tag_379:\n        /* \"#utility.yul\":366:522   */\n      swap2\n      swap1\n      pop\n      jump\t// out\n        /* \"#utility.yul\":527:700   */\n    tag_363:\n        /* \"#utility.yul\":595:615   */\n      dup1\n      calldataload\n      sub(shl(0xa0, 0x01), 0x01)\n        /* \"#utility.yul\":644:675   */\n      dup2\n      and\n        /* \"#utility.yul\":634:676   */\n      dup2\n      eq\n        /* \"#utility.yul\":624:694   */\n      tag_379\n      jumpi\n        /* \"#utility.yul\":690:691   */\n      0x00\n        /* \"#utility.yul\":687:688   */\n      dup1\n        /* \"#utility.yul\":680:692   */\n      revert\n        /* \"#utility.yul\":705:823   */\n    tag_364:\n        /* \"#utility.yul\":791:796   */\n      dup1\n        /* \"#utility.yul\":784:797   */\n      iszero\n        /* \"#utility.yul\":777:798   */\n      iszero\n        /* \"#utility.yul\":770:775   */\n      dup2\n        /* \"#utility.yul\":767:799   */\n      eq\n        /* \"#utility.yul\":757:817   */\n      tag_383\n      jumpi\n        /* \"#utility.yul\":813:814   */\n      0x00\n        /* \"#utility.yul\":810:811   */\n      dup1\n        /* \"#utility.yul\":803:815   */\n      revert\n        /* \"#utility.yul\":757:817   */\n    tag_383:\n        /* \"#utility.yul\":705:823   */\n      pop\n      jump\t// out\n        /* \"#utility.yul\":828:956   */\n    tag_365:\n        /* \"#utility.yul\":893:913   */\n      dup1\n      calldataload\n        /* \"#utility.yul\":922:950   */\n      tag_379\n        /* \"#utility.yul\":893:913   */\n      dup2\n        /* \"#utility.yul\":922:950   */\n      tag_364\n      jump\t// in\n        /* \"#utility.yul\":961:1921   */\n    tag_366:\n        /* \"#utility.yul\":1012:1017   */\n      0x00\n        /* \"#utility.yul\":1060:1066   */\n      0x0160\n        /* \"#utility.yul\":1048:1057   */\n      dup3\n        /* \"#utility.yul\":1043:1046   */\n      dup5\n        /* \"#utility.yul\":1039:1058   */\n      sub\n        /* \"#utility.yul\":1035:1067   */\n      slt\n        /* \"#utility.yul\":1032:1084   */\n      iszero\n      tag_387\n      jumpi\n        /* \"#utility.yul\":1080:1081   */\n      0x00\n        /* \"#utility.yul\":1077:1078   */\n      dup1\n        /* \"#utility.yul\":1070:1082   */\n      revert\n        /* \"#utility.yul\":1032:1084   */\n    tag_387:\n        /* \"#utility.yul\":1102:1119   */\n      tag_388\n      tag_361\n      jump\t// in\n    tag_388:\n        /* \"#utility.yul\":1093:1119   */\n      swap1\n      pop\n        /* \"#utility.yul\":1155:1164   */\n      dup2\n        /* \"#utility.yul\":1142:1165   */\n      calldataload\n        /* \"#utility.yul\":1135:1140   */\n      dup2\n        /* \"#utility.yul\":1128:1166   */\n      mstore\n        /* \"#utility.yul\":1226:1228   */\n      0x20\n        /* \"#utility.yul\":1215:1224   */\n      dup3\n        /* \"#utility.yul\":1211:1229   */\n      add\n        /* \"#utility.yul\":1198:1230   */\n      calldataload\n        /* \"#utility.yul\":1193:1195   */\n      0x20\n        /* \"#utility.yul\":1186:1191   */\n      dup3\n        /* \"#utility.yul\":1182:1196   */\n      add\n        /* \"#utility.yul\":1175:1231   */\n      mstore\n        /* \"#utility.yul\":1291:1293   */\n      0x40\n        /* \"#utility.yul\":1280:1289   */\n      dup3\n        /* \"#utility.yul\":1276:1294   */\n      add\n        /* \"#utility.yul\":1263:1295   */\n      calldataload\n        /* \"#utility.yul\":1258:1260   */\n      0x40\n        /* \"#utility.yul\":1251:1256   */\n      dup3\n        /* \"#utility.yul\":1247:1261   */\n      add\n        /* \"#utility.yul\":1240:1296   */\n      mstore\n        /* \"#utility.yul\":1328:1364   */\n      tag_389\n        /* \"#utility.yul\":1360:1362   */\n      0x60\n        /* \"#utility.yul\":1349:1358   */\n      dup4\n        /* \"#utility.yul\":1345:1363   */\n      add\n        /* \"#utility.yul\":1328:1364   */\n      tag_362\n      jump\t// in\n    tag_389:\n        /* \"#utility.yul\":1323:1325   */\n      0x60\n        /* \"#utility.yul\":1316:1321   */\n      dup3\n        /* \"#utility.yul\":1312:1326   */\n      add\n        /* \"#utility.yul\":1305:1365   */\n      mstore\n        /* \"#utility.yul\":1426:1429   */\n      0x80\n        /* \"#utility.yul\":1415:1424   */\n      dup3\n        /* \"#utility.yul\":1411:1430   */\n      add\n        /* \"#utility.yul\":1398:1431   */\n      calldataload\n        /* \"#utility.yul\":1392:1395   */\n      0x80\n        /* \"#utility.yul\":1385:1390   */\n      dup3\n        /* \"#utility.yul\":1381:1396   */\n      add\n        /* \"#utility.yul\":1374:1432   */\n      mstore\n        /* \"#utility.yul\":1493:1496   */\n      0xa0\n        /* \"#utility.yul\":1482:1491   */\n      dup3\n        /* \"#utility.yul\":1478:1497   */\n      add\n        /* \"#utility.yul\":1465:1498   */\n      calldataload\n        /* \"#utility.yul\":1459:1462   */\n      0xa0\n        /* \"#utility.yul\":1452:1457   */\n      dup3\n        /* \"#utility.yul\":1448:1463   */\n      add\n        /* \"#utility.yul\":1441:1499   */\n      mstore\n        /* \"#utility.yul\":1532:1571   */\n      tag_390\n        /* \"#utility.yul\":1566:1569   */\n      0xc0\n        /* \"#utility.yul\":1555:1564   */\n      dup4\n        /* \"#utility.yul\":1551:1570   */\n      add\n        /* \"#utility.yul\":1532:1571   */\n      tag_363\n      jump\t// in\n    tag_390:\n        /* \"#utility.yul\":1526:1529   */\n      0xc0\n        /* \"#utility.yul\":1519:1524   */\n      dup3\n        /* \"#utility.yul\":1515:1530   */\n      add\n        /* \"#utility.yul\":1508:1572   */\n      mstore\n        /* \"#utility.yul\":1605:1641   */\n      tag_391\n        /* \"#utility.yul\":1636:1639   */\n      0xe0\n        /* \"#utility.yul\":1625:1634   */\n      dup4\n        /* \"#utility.yul\":1621:1640   */\n      add\n        /* \"#utility.yul\":1605:1641   */\n      tag_365\n      jump\t// in\n    tag_391:\n        /* \"#utility.yul\":1599:1602   */\n      0xe0\n        /* \"#utility.yul\":1592:1597   */\n      dup3\n        /* \"#utility.yul\":1588:1603   */\n      add\n        /* \"#utility.yul\":1581:1642   */\n      mstore\n        /* \"#utility.yul\":1661:1664   */\n      0x0100\n        /* \"#utility.yul\":1696:1731   */\n      tag_392\n        /* \"#utility.yul\":1727:1729   */\n      dup2\n        /* \"#utility.yul\":1716:1725   */\n      dup5\n        /* \"#utility.yul\":1712:1730   */\n      add\n        /* \"#utility.yul\":1696:1731   */\n      tag_365\n      jump\t// in\n    tag_392:\n        /* \"#utility.yul\":1680:1694   */\n      swap1\n      dup3\n      add\n        /* \"#utility.yul\":1673:1732   */\n      mstore\n        /* \"#utility.yul\":1751:1754   */\n      0x0120\n        /* \"#utility.yul\":1786:1821   */\n      tag_393\n        /* \"#utility.yul\":1802:1820   */\n      dup4\n      dup3\n      add\n        /* \"#utility.yul\":1786:1821   */\n      tag_365\n      jump\t// in\n    tag_393:\n        /* \"#utility.yul\":1770:1784   */\n      swap1\n      dup3\n      add\n        /* \"#utility.yul\":1763:1822   */\n      mstore\n        /* \"#utility.yul\":1841:1844   */\n      0x0140\n        /* \"#utility.yul\":1876:1914   */\n      tag_394\n        /* \"#utility.yul\":1895:1913   */\n      dup4\n      dup3\n      add\n        /* \"#utility.yul\":1876:1914   */\n      tag_363\n      jump\t// in\n    tag_394:\n        /* \"#utility.yul\":1860:1874   */\n      swap1\n      dup3\n      add\n        /* \"#utility.yul\":1853:1915   */\n      mstore\n        /* \"#utility.yul\":1864:1869   */\n      swap3\n        /* \"#utility.yul\":961:1921   */\n      swap2\n      pop\n      pop\n      jump\t// out\n        /* \"#utility.yul\":1926:2772   */\n    tag_367:\n        /* \"#utility.yul\":1983:1988   */\n      0x00\n        /* \"#utility.yul\":2031:2035   */\n      0xc0\n        /* \"#utility.yul\":2019:2028   */\n      dup3\n        /* \"#utility.yul\":2014:2017   */\n      dup5\n        /* \"#utility.yul\":2010:2029   */\n      sub\n        /* \"#utility.yul\":2006:2036   */\n      slt\n        /* \"#utility.yul\":2003:2053   */\n      iszero\n      tag_396\n      jumpi\n        /* \"#utility.yul\":2049:2050   */\n      0x00\n        /* \"#utility.yul\":2046:2047   */\n      dup1\n        /* \"#utility.yul\":2039:2051   */\n      revert\n        /* \"#utility.yul\":2003:2053   */\n    tag_396:\n        /* \"#utility.yul\":2082:2084   */\n      0x40\n        /* \"#utility.yul\":2076:2085   */\n      mload\n        /* \"#utility.yul\":2124:2128   */\n      0xc0\n        /* \"#utility.yul\":2116:2122   */\n      dup2\n        /* \"#utility.yul\":2112:2129   */\n      add\n        /* \"#utility.yul\":2195:2201   */\n      dup2\n        /* \"#utility.yul\":2183:2193   */\n      dup2\n        /* \"#utility.yul\":2180:2202   */\n      lt\n        /* \"#utility.yul\":2159:2177   */\n      0xffffffffffffffff\n        /* \"#utility.yul\":2147:2157   */\n      dup3\n        /* \"#utility.yul\":2144:2178   */\n      gt\n        /* \"#utility.yul\":2141:2203   */\n      or\n        /* \"#utility.yul\":2138:2323   */\n      iszero\n      tag_397\n      jumpi\n        /* \"#utility.yul\":2245:2255   */\n      0x4e487b71\n        /* \"#utility.yul\":2240:2243   */\n      0xe0\n        /* \"#utility.yul\":2236:2256   */\n      shl\n        /* \"#utility.yul\":2233:2234   */\n      0x00\n        /* \"#utility.yul\":2226:2257   */\n      mstore\n        /* \"#utility.yul\":2280:2284   */\n      0x41\n        /* \"#utility.yul\":2277:2278   */\n      0x04\n        /* \"#utility.yul\":2270:2285   */\n      mstore\n        /* \"#utility.yul\":2308:2312   */\n      0x24\n        /* \"#utility.yul\":2305:2306   */\n      0x00\n        /* \"#utility.yul\":2298:2313   */\n      revert\n        /* \"#utility.yul\":2138:2323   */\n    tag_397:\n        /* \"#utility.yul\":2339:2341   */\n      0x40\n        /* \"#utility.yul\":2332:2354   */\n      mstore\n        /* \"#utility.yul\":2372:2378   */\n      swap1\n      pop\n      dup1\n        /* \"#utility.yul\":2402:2431   */\n      tag_398\n        /* \"#utility.yul\":2421:2430   */\n      dup4\n        /* \"#utility.yul\":2402:2431   */\n      tag_363\n      jump\t// in\n    tag_398:\n        /* \"#utility.yul\":2394:2400   */\n      dup2\n        /* \"#utility.yul\":2387:2432   */\n      mstore\n        /* \"#utility.yul\":2493:2495   */\n      0x20\n        /* \"#utility.yul\":2482:2491   */\n      dup4\n        /* \"#utility.yul\":2478:2496   */\n      add\n        /* \"#utility.yul\":2465:2497   */\n      calldataload\n        /* \"#utility.yul\":2460:2462   */\n      0x20\n        /* \"#utility.yul\":2452:2458   */\n      dup3\n        /* \"#utility.yul\":2448:2463   */\n      add\n        /* \"#utility.yul\":2441:2498   */\n      mstore\n        /* \"#utility.yul\":2559:2561   */\n      0x40\n        /* \"#utility.yul\":2548:2557   */\n      dup4\n        /* \"#utility.yul\":2544:2562   */\n      add\n        /* \"#utility.yul\":2531:2563   */\n      calldataload\n        /* \"#utility.yul\":2526:2528   */\n      0x40\n        /* \"#utility.yul\":2518:2524   */\n      dup3\n        /* \"#utility.yul\":2514:2529   */\n      add\n        /* \"#utility.yul\":2507:2564   */\n      mstore\n        /* \"#utility.yul\":2625:2627   */\n      0x60\n        /* \"#utility.yul\":2614:2623   */\n      dup4\n        /* \"#utility.yul\":2610:2628   */\n      add\n        /* \"#utility.yul\":2597:2629   */\n      calldataload\n        /* \"#utility.yul\":2592:2594   */\n      0x60\n        /* \"#utility.yul\":2584:2590   */\n      dup3\n        /* \"#utility.yul\":2580:2595   */\n      add\n        /* \"#utility.yul\":2573:2630   */\n      mstore\n        /* \"#utility.yul\":2692:2695   */\n      0x80\n        /* \"#utility.yul\":2681:2690   */\n      dup4\n        /* \"#utility.yul\":2677:2696   */\n      add\n        /* \"#utility.yul\":2664:2697   */\n      calldataload\n        /* \"#utility.yul\":2658:2661   */\n      0x80\n        /* \"#utility.yul\":2650:2656   */\n      dup3\n        /* \"#utility.yul\":2646:2662   */\n      add\n        /* \"#utility.yul\":2639:2698   */\n      mstore\n        /* \"#utility.yul\":2760:2763   */\n      0xa0\n        /* \"#utility.yul\":2749:2758   */\n      dup4\n        /* \"#utility.yul\":2745:2764   */\n      add\n        /* \"#utility.yul\":2732:2765   */\n      calldataload\n        /* \"#utility.yul\":2726:2729   */\n      0xa0\n        /* \"#utility.yul\":2718:2724   */\n      dup3\n        /* \"#utility.yul\":2714:2730   */\n      add\n        /* \"#utility.yul\":2707:2766   */\n      mstore\n      pop\n        /* \"#utility.yul\":1926:2772   */\n      swap3\n      swap2\n      pop\n      pop\n      jump\t// out\n        /* \"#utility.yul\":2777:3121   */\n    tag_42:\n        /* \"#utility.yul\":2895:2901   */\n      0x00\n        /* \"#utility.yul\":2903:2909   */\n      dup1\n        /* \"#utility.yul\":2956:2959   */\n      0x0220\n        /* \"#utility.yul\":2944:2953   */\n      dup4\n        /* \"#utility.yul\":2935:2942   */\n      dup6\n        /* \"#utility.yul\":2931:2954   */\n      sub\n        /* \"#utility.yul\":2927:2960   */\n      slt\n        /* \"#utility.yul\":2924:2977   */\n      iszero\n      tag_400\n      jumpi\n        /* \"#utility.yul\":2973:2974   */\n      0x00\n        /* \"#utility.yul\":2970:2971   */\n      dup1\n        /* \"#utility.yul\":2963:2975   */\n      revert\n        /* \"#utility.yul\":2924:2977   */\n    tag_400:\n        /* \"#utility.yul\":2996:3038   */\n      tag_401\n        /* \"#utility.yul\":3030:3037   */\n      dup5\n        /* \"#utility.yul\":3019:3028   */\n      dup5\n        /* \"#utility.yul\":2996:3038   */\n      tag_366\n      jump\t// in\n    tag_401:\n        /* \"#utility.yul\":2986:3038   */\n      swap2\n      pop\n        /* \"#utility.yul\":3057:3115   */\n      tag_402\n        /* \"#utility.yul\":3107:3114   */\n      dup5\n        /* \"#utility.yul\":3101:3104   */\n      0x0160\n        /* \"#utility.yul\":3090:3099   */\n      dup6\n        /* \"#utility.yul\":3086:3105   */\n      add\n        /* \"#utility.yul\":3057:3115   */\n      tag_367\n      jump\t// in\n    tag_402:\n        /* \"#utility.yul\":3047:3115   */\n      swap1\n      pop\n        /* \"#utility.yul\":2777:3121   */\n      swap3\n      pop\n      swap3\n      swap1\n      pop\n      jump\t// out\n        /* \"#utility.yul\":3126:3312   */\n    tag_46:\n        /* \"#utility.yul\":3185:3191   */\n      0x00\n        /* \"#utility.yul\":3238:3240   */\n      0x20\n        /* \"#utility.yul\":3226:3235   */\n      dup3\n        /* \"#utility.yul\":3217:3224   */\n      dup5\n        /* \"#utility.yul\":3213:3236   */\n      sub\n        /* \"#utility.yul\":3209:3241   */\n      slt\n        /* \"#utility.yul\":3206:3258   */\n      iszero\n      tag_404\n      jumpi\n        /* \"#utility.yul\":3254:3255   */\n      0x00\n        /* \"#utility.yul\":3251:3252   */\n      dup1\n        /* \"#utility.yul\":3244:3256   */\n      revert\n        /* \"#utility.yul\":3206:3258   */\n    tag_404:\n        /* \"#utility.yul\":3277:3306   */\n      tag_405\n        /* \"#utility.yul\":3296:3305   */\n      dup3\n        /* \"#utility.yul\":3277:3306   */\n      tag_363\n      jump\t// in\n    tag_405:\n        /* \"#utility.yul\":3267:3306   */\n      swap4\n        /* \"#utility.yul\":3126:3312   */\n      swap3\n      pop\n      pop\n      pop\n      jump\t// out\n        /* \"#utility.yul\":3317:3551   */\n    tag_50:\n        /* \"#utility.yul\":3404:3410   */\n      0x00\n        /* \"#utility.yul\":3457:3460   */\n      0xc0\n        /* \"#utility.yul\":3445:3454   */\n      dup3\n        /* \"#utility.yul\":3436:3443   */\n      dup5\n        /* \"#utility.yul\":3432:3455   */\n      sub\n        /* \"#utility.yul\":3428:3461   */\n      slt\n        /* \"#utility.yul\":3425:3478   */\n      iszero\n      tag_407\n      jumpi\n        /* \"#utility.yul\":3474:3475   */\n      0x00\n        /* \"#utility.yul\":3471:3472   */\n      dup1\n        /* \"#utility.yul\":3464:3476   */\n      revert\n        /* \"#utility.yul\":3425:3478   */\n    tag_407:\n        /* \"#utility.yul\":3497:3545   */\n      tag_405\n        /* \"#utility.yul\":3537:3544   */\n      dup4\n        /* \"#utility.yul\":3526:3535   */\n      dup4\n        /* \"#utility.yul\":3497:3545   */\n      tag_367\n      jump\t// in\n        /* \"#utility.yul\":5236:5496   */\n    tag_74:\n        /* \"#utility.yul\":5304:5310   */\n      0x00\n        /* \"#utility.yul\":5312:5318   */\n      dup1\n        /* \"#utility.yul\":5365:5367   */\n      0x40\n        /* \"#utility.yul\":5353:5362   */\n      dup4\n        /* \"#utility.yul\":5344:5351   */\n      dup6\n        /* \"#utility.yul\":5340:5363   */\n      sub\n        /* \"#utility.yul\":5336:5368   */\n      slt\n        /* \"#utility.yul\":5333:5385   */\n      iszero\n      tag_416\n      jumpi\n        /* \"#utility.yul\":5381:5382   */\n      0x00\n        /* \"#utility.yul\":5378:5379   */\n      dup1\n        /* \"#utility.yul\":5371:5383   */\n      revert\n        /* \"#utility.yul\":5333:5385   */\n    tag_416:\n        /* \"#utility.yul\":5404:5433   */\n      tag_417\n        /* \"#utility.yul\":5423:5432   */\n      dup4\n        /* \"#utility.yul\":5404:5433   */\n      tag_363\n      jump\t// in\n    tag_417:\n        /* \"#utility.yul\":5394:5433   */\n      swap2\n      pop\n        /* \"#utility.yul\":5452:5490   */\n      tag_402\n        /* \"#utility.yul\":5486:5488   */\n      0x20\n        /* \"#utility.yul\":5475:5484   */\n      dup5\n        /* \"#utility.yul\":5471:5489   */\n      add\n        /* \"#utility.yul\":5452:5490   */\n      tag_363\n      jump\t// in\n        /* \"#utility.yul\":5724:5912   */\n    tag_371:\n        /* \"#utility.yul\":5792:5812   */\n      dup1\n      calldataload\n      sub(shl(0x80, 0x01), 0x01)\n        /* \"#utility.yul\":5841:5887   */\n      dup2\n      and\n        /* \"#utility.yul\":5831:5888   */\n      dup2\n      eq\n        /* \"#utility.yul\":5821:5906   */\n      tag_379\n      jumpi\n        /* \"#utility.yul\":5902:5903   */\n      0x00\n        /* \"#utility.yul\":5899:5900   */\n      dup1\n        /* \"#utility.yul\":5892:5904   */\n      revert\n        /* \"#utility.yul\":5917:6177   */\n    tag_93:\n        /* \"#utility.yul\":5985:5991   */\n      0x00\n        /* \"#utility.yul\":5993:5999   */\n      dup1\n        /* \"#utility.yul\":6046:6048   */\n      0x40\n        /* \"#utility.yul\":6034:6043   */\n      dup4\n        /* \"#utility.yul\":6025:6032   */\n      dup6\n        /* \"#utility.yul\":6021:6044   */\n      sub\n        /* \"#utility.yul\":6017:6049   */\n      slt\n        /* \"#utility.yul\":6014:6066   */\n      iszero\n      tag_423\n      jumpi\n        /* \"#utility.yul\":6062:6063   */\n      0x00\n        /* \"#utility.yul\":6059:6060   */\n      dup1\n        /* \"#utility.yul\":6052:6064   */\n      revert\n        /* \"#utility.yul\":6014:6066   */\n    tag_423:\n        /* \"#utility.yul\":6085:6114   */\n      tag_424\n        /* \"#utility.yul\":6104:6113   */\n      dup4\n        /* \"#utility.yul\":6085:6114   */\n      tag_363\n      jump\t// in\n    tag_424:\n        /* \"#utility.yul\":6075:6114   */\n      swap2\n      pop\n        /* \"#utility.yul\":6133:6171   */\n      tag_402\n        /* \"#utility.yul\":6167:6169   */\n      0x20\n        /* \"#utility.yul\":6156:6165   */\n      dup5\n        /* \"#utility.yul\":6152:6170   */\n      add\n        /* \"#utility.yul\":6133:6171   */\n      tag_371\n      jump\t// in\n        /* \"#utility.yul\":6182:7221   */\n    tag_372:\n        /* \"#utility.yul\":6258:6263   */\n      dup1\n        /* \"#utility.yul\":6252:6264   */\n      mload\n        /* \"#utility.yul\":6247:6250   */\n      dup3\n        /* \"#utility.yul\":6240:6265   */\n      mstore\n        /* \"#utility.yul\":6314:6318   */\n      0x20\n        /* \"#utility.yul\":6307:6312   */\n      dup2\n        /* \"#utility.yul\":6303:6319   */\n      add\n        /* \"#utility.yul\":6297:6320   */\n      mload\n        /* \"#utility.yul\":6290:6294   */\n      0x20\n        /* \"#utility.yul\":6285:6288   */\n      dup4\n        /* \"#utility.yul\":6281:6295   */\n      add\n        /* \"#utility.yul\":6274:6321   */\n      mstore\n        /* \"#utility.yul\":6370:6374   */\n      0x40\n        /* \"#utility.yul\":6363:6368   */\n      dup2\n        /* \"#utility.yul\":6359:6375   */\n      add\n        /* \"#utility.yul\":6353:6376   */\n      mload\n        /* \"#utility.yul\":6346:6350   */\n      0x40\n        /* \"#utility.yul\":6341:6344   */\n      dup4\n        /* \"#utility.yul\":6337:6351   */\n      add\n        /* \"#utility.yul\":6330:6377   */\n      mstore\n        /* \"#utility.yul\":6423:6427   */\n      0x60\n        /* \"#utility.yul\":6416:6421   */\n      dup2\n        /* \"#utility.yul\":6412:6428   */\n      add\n        /* \"#utility.yul\":6406:6429   */\n      mload\n        /* \"#utility.yul\":6438:6484   */\n      tag_427\n        /* \"#utility.yul\":6478:6482   */\n      0x60\n        /* \"#utility.yul\":6473:6476   */\n      dup5\n        /* \"#utility.yul\":6469:6483   */\n      add\n        /* \"#utility.yul\":6455:6467   */\n      dup3\n        /* \"#utility.yul\":3940:3944   */\n      0xff\n        /* \"#utility.yul\":3929:3945   */\n      and\n        /* \"#utility.yul\":3917:3946   */\n      swap1\n      mstore\n        /* \"#utility.yul\":3873:3948   */\n      jump\n        /* \"#utility.yul\":6438:6484   */\n    tag_427:\n      pop\n        /* \"#utility.yul\":6533:6537   */\n      0x80\n        /* \"#utility.yul\":6526:6531   */\n      dup2\n        /* \"#utility.yul\":6522:6538   */\n      add\n        /* \"#utility.yul\":6516:6539   */\n      mload\n        /* \"#utility.yul\":6509:6513   */\n      0x80\n        /* \"#utility.yul\":6504:6507   */\n      dup4\n        /* \"#utility.yul\":6500:6514   */\n      add\n        /* \"#utility.yul\":6493:6540   */\n      mstore\n        /* \"#utility.yul\":6589:6593   */\n      0xa0\n        /* \"#utility.yul\":6582:6587   */\n      dup2\n        /* \"#utility.yul\":6578:6594   */\n      add\n        /* \"#utility.yul\":6572:6595   */\n      mload\n        /* \"#utility.yul\":6565:6569   */\n      0xa0\n        /* \"#utility.yul\":6560:6563   */\n      dup4\n        /* \"#utility.yul\":6556:6570   */\n      add\n        /* \"#utility.yul\":6549:6596   */\n      mstore\n        /* \"#utility.yul\":6644:6648   */\n      0xc0\n        /* \"#utility.yul\":6637:6642   */\n      dup2\n        /* \"#utility.yul\":6633:6649   */\n      add\n        /* \"#utility.yul\":6627:6650   */\n      mload\n        /* \"#utility.yul\":6659:6709   */\n      tag_428\n        /* \"#utility.yul\":6703:6707   */\n      0xc0\n        /* \"#utility.yul\":6698:6701   */\n      dup5\n        /* \"#utility.yul\":6694:6708   */\n      add\n        /* \"#utility.yul\":6678:6692   */\n      dup3\n      sub(shl(0xa0, 0x01), 0x01)\n        /* \"#utility.yul\":3622:3653   */\n      and\n        /* \"#utility.yul\":3610:3654   */\n      swap1\n      mstore\n        /* \"#utility.yul\":3556:3660   */\n      jump\n        /* \"#utility.yul\":6659:6709   */\n    tag_428:\n      pop\n        /* \"#utility.yul\":6757:6761   */\n      0xe0\n        /* \"#utility.yul\":6750:6755   */\n      dup2\n        /* \"#utility.yul\":6746:6762   */\n      add\n        /* \"#utility.yul\":6740:6763   */\n      mload\n        /* \"#utility.yul\":6772:6819   */\n      tag_429\n        /* \"#utility.yul\":6813:6817   */\n      0xe0\n        /* \"#utility.yul\":6808:6811   */\n      dup5\n        /* \"#utility.yul\":6804:6818   */\n      add\n        /* \"#utility.yul\":6788:6802   */\n      dup3\n        /* \"#utility.yul\":4023:4036   */\n      iszero\n        /* \"#utility.yul\":4016:4037   */\n      iszero\n        /* \"#utility.yul\":4004:4038   */\n      swap1\n      mstore\n        /* \"#utility.yul\":3953:4044   */\n      jump\n        /* \"#utility.yul\":6772:6819   */\n    tag_429:\n      pop\n        /* \"#utility.yul\":6838:6844   */\n      0x0100\n        /* \"#utility.yul\":6881:6895   */\n      dup2\n      dup2\n      add\n        /* \"#utility.yul\":6875:6896   */\n      mload\n        /* \"#utility.yul\":4023:4036   */\n      iszero\n        /* \"#utility.yul\":4016:4037   */\n      iszero\n        /* \"#utility.yul\":6937:6949   */\n      swap1\n      dup4\n      add\n        /* \"#utility.yul\":4004:4038   */\n      mstore\n        /* \"#utility.yul\":6969:6975   */\n      0x0120\n        /* \"#utility.yul\":7012:7026   */\n      dup1\n      dup3\n      add\n        /* \"#utility.yul\":7006:7027   */\n      mload\n        /* \"#utility.yul\":4023:4036   */\n      iszero\n        /* \"#utility.yul\":4016:4037   */\n      iszero\n        /* \"#utility.yul\":7068:7080   */\n      swap1\n      dup4\n      add\n        /* \"#utility.yul\":4004:4038   */\n      mstore\n        /* \"#utility.yul\":7100:7106   */\n      0x0140\n        /* \"#utility.yul\":7143:7157   */\n      swap1\n      dup2\n      add\n        /* \"#utility.yul\":7137:7158   */\n      mload\n      sub(shl(0xa0, 0x01), 0x01)\n        /* \"#utility.yul\":3622:3653   */\n      and\n        /* \"#utility.yul\":7202:7214   */\n      swap2\n      add\n        /* \"#utility.yul\":3610:3654   */\n      mstore\n        /* \"#utility.yul\":6182:7221   */\n      jump\t// out\n        /* \"#utility.yul\":7226:7464   */\n    tag_96:\n        /* \"#utility.yul\":7404:7407   */\n      0x0160\n        /* \"#utility.yul\":7389:7408   */\n      dup2\n      add\n        /* \"#utility.yul\":7417:7458   */\n      tag_232\n        /* \"#utility.yul\":7393:7402   */\n      dup3\n        /* \"#utility.yul\":7440:7446   */\n      dup5\n        /* \"#utility.yul\":7417:7458   */\n      tag_372\n      jump\t// in\n        /* \"#utility.yul\":7469:7655   */\n    tag_99:\n        /* \"#utility.yul\":7528:7534   */\n      0x00\n        /* \"#utility.yul\":7581:7583   */\n      0x20\n        /* \"#utility.yul\":7569:7578   */\n      dup3\n        /* \"#utility.yul\":7560:7567   */\n      dup5\n        /* \"#utility.yul\":7556:7579   */\n      sub\n        /* \"#utility.yul\":7552:7584   */\n      slt\n        /* \"#utility.yul\":7549:7601   */\n      iszero\n      tag_436\n      jumpi\n        /* \"#utility.yul\":7597:7598   */\n      0x00\n        /* \"#utility.yul\":7594:7595   */\n      dup1\n        /* \"#utility.yul\":7587:7599   */\n      revert\n        /* \"#utility.yul\":7549:7601   */\n    tag_436:\n        /* \"#utility.yul\":7620:7649   */\n      tag_405\n        /* \"#utility.yul\":7639:7648   */\n      dup3\n        /* \"#utility.yul\":7620:7649   */\n      tag_371\n      jump\t// in\n        /* \"#utility.yul\":8226:8448   */\n    tag_112:\n        /* \"#utility.yul\":8307:8313   */\n      0x00\n        /* \"#utility.yul\":8360:8363   */\n      0x0160\n        /* \"#utility.yul\":8348:8357   */\n      dup3\n        /* \"#utility.yul\":8339:8346   */\n      dup5\n        /* \"#utility.yul\":8335:8358   */\n      sub\n        /* \"#utility.yul\":8331:8364   */\n      slt\n        /* \"#utility.yul\":8328:8381   */\n      iszero\n      tag_440\n      jumpi\n        /* \"#utility.yul\":8377:8378   */\n      0x00\n        /* \"#utility.yul\":8374:8375   */\n      dup1\n        /* \"#utility.yul\":8367:8379   */\n      revert\n        /* \"#utility.yul\":8328:8381   */\n    tag_440:\n        /* \"#utility.yul\":8400:8442   */\n      tag_405\n        /* \"#utility.yul\":8434:8441   */\n      dup4\n        /* \"#utility.yul\":8423:8432   */\n      dup4\n        /* \"#utility.yul\":8400:8442   */\n      tag_366\n      jump\t// in\n        /* \"#utility.yul\":8453:8787   */\n    tag_128:\n        /* \"#utility.yul\":8530:8536   */\n      0x00\n        /* \"#utility.yul\":8538:8544   */\n      dup1\n        /* \"#utility.yul\":8546:8552   */\n      0x00\n        /* \"#utility.yul\":8599:8601   */\n      0x60\n        /* \"#utility.yul\":8587:8596   */\n      dup5\n        /* \"#utility.yul\":8578:8585   */\n      dup7\n        /* \"#utility.yul\":8574:8597   */\n      sub\n        /* \"#utility.yul\":8570:8602   */\n      slt\n        /* \"#utility.yul\":8567:8619   */\n      iszero\n      tag_443\n      jumpi\n        /* \"#utility.yul\":8615:8616   */\n      0x00\n        /* \"#utility.yul\":8612:8613   */\n      dup1\n        /* \"#utility.yul\":8605:8617   */\n      revert\n        /* \"#utility.yul\":8567:8619   */\n    tag_443:\n        /* \"#utility.yul\":8638:8667   */\n      tag_444\n        /* \"#utility.yul\":8657:8666   */\n      dup5\n        /* \"#utility.yul\":8638:8667   */\n      tag_363\n      jump\t// in\n    tag_444:\n        /* \"#utility.yul\":8628:8667   */\n      swap3\n      pop\n        /* \"#utility.yul\":8686:8724   */\n      tag_445\n        /* \"#utility.yul\":8720:8722   */\n      0x20\n        /* \"#utility.yul\":8709:8718   */\n      dup6\n        /* \"#utility.yul\":8705:8723   */\n      add\n        /* \"#utility.yul\":8686:8724   */\n      tag_363\n      jump\t// in\n    tag_445:\n        /* \"#utility.yul\":8676:8724   */\n      swap2\n      pop\n        /* \"#utility.yul\":8743:8781   */\n      tag_446\n        /* \"#utility.yul\":8777:8779   */\n      0x40\n        /* \"#utility.yul\":8766:8775   */\n      dup6\n        /* \"#utility.yul\":8762:8780   */\n      add\n        /* \"#utility.yul\":8743:8781   */\n      tag_363\n      jump\t// in\n    tag_446:\n        /* \"#utility.yul\":8733:8781   */\n      swap1\n      pop\n        /* \"#utility.yul\":8453:8787   */\n      swap3\n      pop\n      swap3\n      pop\n      swap3\n      jump\t// out\n        /* \"#utility.yul\":8792:9392   */\n    tag_132:\n        /* \"#utility.yul\":8903:8909   */\n      0x00\n        /* \"#utility.yul\":8911:8917   */\n      dup1\n        /* \"#utility.yul\":8919:8925   */\n      0x00\n        /* \"#utility.yul\":8927:8933   */\n      dup1\n        /* \"#utility.yul\":8935:8941   */\n      0x00\n        /* \"#utility.yul\":8943:8949   */\n      dup1\n        /* \"#utility.yul\":8951:8957   */\n      0x00\n        /* \"#utility.yul\":9004:9007   */\n      0xe0\n        /* \"#utility.yul\":8992:9001   */\n      dup9\n        /* \"#utility.yul\":8983:8990   */\n      dup11\n        /* \"#utility.yul\":8979:9002   */\n      sub\n        /* \"#utility.yul\":8975:9008   */\n      slt\n        /* \"#utility.yul\":8972:9025   */\n      iszero\n      tag_448\n      jumpi\n        /* \"#utility.yul\":9021:9022   */\n      0x00\n        /* \"#utility.yul\":9018:9019   */\n      dup1\n        /* \"#utility.yul\":9011:9023   */\n      revert\n        /* \"#utility.yul\":8972:9025   */\n    tag_448:\n        /* \"#utility.yul\":9057:9066   */\n      dup8\n        /* \"#utility.yul\":9044:9067   */\n      calldataload\n        /* \"#utility.yul\":9034:9067   */\n      swap7\n      pop\n        /* \"#utility.yul\":9114:9116   */\n      0x20\n        /* \"#utility.yul\":9103:9112   */\n      dup9\n        /* \"#utility.yul\":9099:9117   */\n      add\n        /* \"#utility.yul\":9086:9118   */\n      calldataload\n        /* \"#utility.yul\":9076:9118   */\n      swap6\n      pop\n        /* \"#utility.yul\":9165:9167   */\n      0x40\n        /* \"#utility.yul\":9154:9163   */\n      dup9\n        /* \"#utility.yul\":9150:9168   */\n      add\n        /* \"#utility.yul\":9137:9169   */\n      calldataload\n        /* \"#utility.yul\":9127:9169   */\n      swap5\n      pop\n        /* \"#utility.yul\":9188:9224   */\n      tag_449\n        /* \"#utility.yul\":9220:9222   */\n      0x60\n        /* \"#utility.yul\":9209:9218   */\n      dup10\n        /* \"#utility.yul\":9205:9223   */\n      add\n        /* \"#utility.yul\":9188:9224   */\n      tag_362\n      jump\t// in\n    tag_449:\n        /* \"#utility.yul\":9178:9224   */\n      swap4\n      pop\n        /* \"#utility.yul\":9271:9274   */\n      0x80\n        /* \"#utility.yul\":9260:9269   */\n      dup9\n        /* \"#utility.yul\":9256:9275   */\n      add\n        /* \"#utility.yul\":9243:9276   */\n      calldataload\n        /* \"#utility.yul\":9233:9276   */\n      swap3\n      pop\n        /* \"#utility.yul\":9323:9326   */\n      0xa0\n        /* \"#utility.yul\":9312:9321   */\n      dup9\n        /* \"#utility.yul\":9308:9327   */\n      add\n        /* \"#utility.yul\":9295:9328   */\n      calldataload\n        /* \"#utility.yul\":9285:9328   */\n      swap2\n      pop\n        /* \"#utility.yul\":9347:9386   */\n      tag_450\n        /* \"#utility.yul\":9381:9384   */\n      0xc0\n        /* \"#utility.yul\":9370:9379   */\n      dup10\n        /* \"#utility.yul\":9366:9385   */\n      add\n        /* \"#utility.yul\":9347:9386   */\n      tag_363\n      jump\t// in\n    tag_450:\n        /* \"#utility.yul\":9337:9386   */\n      swap1\n      pop\n        /* \"#utility.yul\":8792:9392   */\n      swap3\n      swap6\n      swap9\n      swap2\n      swap5\n      swap8\n      pop\n      swap3\n      swap6\n      pop\n      jump\t// out\n        /* \"#utility.yul\":9397:9642   */\n    tag_158:\n        /* \"#utility.yul\":9464:9470   */\n      0x00\n        /* \"#utility.yul\":9517:9519   */\n      0x20\n        /* \"#utility.yul\":9505:9514   */\n      dup3\n        /* \"#utility.yul\":9496:9503   */\n      dup5\n        /* \"#utility.yul\":9492:9515   */\n      sub\n        /* \"#utility.yul\":9488:9520   */\n      slt\n        /* \"#utility.yul\":9485:9537   */\n      iszero\n      tag_452\n      jumpi\n        /* \"#utility.yul\":9533:9534   */\n      0x00\n        /* \"#utility.yul\":9530:9531   */\n      dup1\n        /* \"#utility.yul\":9523:9535   */\n      revert\n        /* \"#utility.yul\":9485:9537   */\n    tag_452:\n        /* \"#utility.yul\":9565:9574   */\n      dup2\n        /* \"#utility.yul\":9559:9575   */\n      mload\n        /* \"#utility.yul\":9584:9612   */\n      tag_405\n        /* \"#utility.yul\":9606:9611   */\n      dup2\n        /* \"#utility.yul\":9584:9612   */\n      tag_364\n      jump\t// in\n        /* \"#utility.yul\":9994:10288   */\n    tag_166:\n      sub(shl(0x80, 0x01), 0x01)\n        /* \"#utility.yul\":10116:10126   */\n      dup2\n      dup2\n      and\n        /* \"#utility.yul\":10128:10138   */\n      dup4\n      dup3\n      and\n        /* \"#utility.yul\":10112:10139   */\n      add\n      swap1\n        /* \"#utility.yul\":10151:10162   */\n      dup1\n      dup3\n      gt\n        /* \"#utility.yul\":10148:10282   */\n      iszero\n      tag_456\n      jumpi\n        /* \"#utility.yul\":10204:10214   */\n      0x4e487b71\n        /* \"#utility.yul\":10199:10202   */\n      0xe0\n        /* \"#utility.yul\":10195:10215   */\n      shl\n        /* \"#utility.yul\":10192:10193   */\n      0x00\n        /* \"#utility.yul\":10185:10216   */\n      mstore\n        /* \"#utility.yul\":10239:10243   */\n      0x11\n        /* \"#utility.yul\":10236:10237   */\n      0x04\n        /* \"#utility.yul\":10229:10244   */\n      mstore\n        /* \"#utility.yul\":10267:10271   */\n      0x24\n        /* \"#utility.yul\":10264:10265   */\n      0x00\n        /* \"#utility.yul\":10257:10272   */\n      revert\n        /* \"#utility.yul\":10148:10282   */\n    tag_456:\n      pop\n        /* \"#utility.yul\":9994:10288   */\n      swap3\n      swap2\n      pop\n      pop\n      jump\t// out\n        /* \"#utility.yul\":10293:10628   */\n    tag_171:\n      sub(shl(0xa0, 0x01), 0x01)\n        /* \"#utility.yul\":10530:10562   */\n      dup4\n      and\n        /* \"#utility.yul\":10512:10563   */\n      dup2\n      mstore\n        /* \"#utility.yul\":10499:10502   */\n      0x0180\n        /* \"#utility.yul\":10484:10503   */\n      dup2\n      add\n        /* \"#utility.yul\":10572:10622   */\n      tag_405\n        /* \"#utility.yul\":10618:10620   */\n      0x20\n        /* \"#utility.yul\":10603:10621   */\n      dup4\n      add\n        /* \"#utility.yul\":10595:10601   */\n      dup5\n        /* \"#utility.yul\":10572:10622   */\n      tag_372\n      jump\t// in\n        /* \"#utility.yul\":10990:11336   */\n    tag_184:\n        /* \"#utility.yul\":11192:11194   */\n      0x20\n        /* \"#utility.yul\":11174:11195   */\n      dup1\n      dup3\n      mstore\n        /* \"#utility.yul\":11231:11233   */\n      0x16\n        /* \"#utility.yul\":11211:11229   */\n      swap1\n      dup3\n      add\n        /* \"#utility.yul\":11204:11234   */\n      mstore\n      shl(0x50, 0x74686520636f696e206973206e6f7420657869737473)\n        /* \"#utility.yul\":11265:11267   */\n      0x40\n        /* \"#utility.yul\":11250:11268   */\n      dup3\n      add\n        /* \"#utility.yul\":11243:11295   */\n      mstore\n        /* \"#utility.yul\":11327:11329   */\n      0x60\n        /* \"#utility.yul\":11312:11330   */\n      add\n      swap1\n        /* \"#utility.yul\":10990:11336   */\n      jump\t// out\n        /* \"#utility.yul\":11699:12045   */\n    tag_217:\n        /* \"#utility.yul\":11901:11903   */\n      0x20\n        /* \"#utility.yul\":11883:11904   */\n      dup1\n      dup3\n      mstore\n        /* \"#utility.yul\":11940:11942   */\n      0x16\n        /* \"#utility.yul\":11920:11938   */\n      swap1\n      dup3\n      add\n        /* \"#utility.yul\":11913:11943   */\n      mstore\n      shl(0x52, 0x1e5bdd481a185d99481b9bdd081d1a19481c9a59da1d)\n        /* \"#utility.yul\":11974:11976   */\n      0x40\n        /* \"#utility.yul\":11959:11977   */\n      dup3\n      add\n        /* \"#utility.yul\":11952:12004   */\n      mstore\n        /* \"#utility.yul\":12036:12038   */\n      0x60\n        /* \"#utility.yul\":12021:12039   */\n      add\n      swap1\n        /* \"#utility.yul\":11699:12045   */\n      jump\t// out\n        /* \"#utility.yul\":14048:15305   */\n    tag_309:\n      sub(shl(0xa0, 0x01), 0x01)\n        /* \"#utility.yul\":14320:14335   */\n      dup4\n      dup2\n      and\n        /* \"#utility.yul\":14302:14336   */\n      dup3\n      mstore\n        /* \"#utility.yul\":14372:14385   */\n      dup3\n      sload\n        /* \"#utility.yul\":14367:14369   */\n      0x20\n        /* \"#utility.yul\":14352:14370   */\n      dup4\n      add\n        /* \"#utility.yul\":14345:14386   */\n      mstore\n        /* \"#utility.yul\":14291:14292   */\n      0x01\n        /* \"#utility.yul\":14428:14445   */\n      dup4\n      add\n        /* \"#utility.yul\":14422:14446   */\n      sload\n        /* \"#utility.yul\":14417:14419   */\n      0x40\n        /* \"#utility.yul\":14402:14420   */\n      dup4\n      add\n        /* \"#utility.yul\":14395:14447   */\n      mstore\n        /* \"#utility.yul\":14501:14505   */\n      0x02\n        /* \"#utility.yul\":14489:14506   */\n      dup4\n      add\n        /* \"#utility.yul\":14483:14507   */\n      sload\n        /* \"#utility.yul\":14478:14480   */\n      0x60\n        /* \"#utility.yul\":14463:14481   */\n      dup4\n      add\n        /* \"#utility.yul\":14456:14508   */\n      mstore\n        /* \"#utility.yul\":14596:14600   */\n      0x03\n        /* \"#utility.yul\":14584:14601   */\n      dup4\n      add\n        /* \"#utility.yul\":14578:14602   */\n      sload\n        /* \"#utility.yul\":14251:14254   */\n      0x0180\n        /* \"#utility.yul\":14236:14255   */\n      dup4\n      add\n      swap2\n        /* \"#utility.yul\":14274:14293   */\n      swap1\n        /* \"#utility.yul\":13889:13893   */\n      0xff\n        /* \"#utility.yul\":13873:13894   */\n      and\n        /* \"#utility.yul\":3940:3944   */\n      0xff\n        /* \"#utility.yul\":3929:3945   */\n      dup2\n      and\n        /* \"#utility.yul\":14658:14661   */\n      0x80\n        /* \"#utility.yul\":14643:14662   */\n      dup6\n      add\n        /* \"#utility.yul\":3917:3946   */\n      mstore\n      pop\n        /* \"#utility.yul\":14718:14722   */\n      0x04\n        /* \"#utility.yul\":14706:14723   */\n      dup5\n      add\n        /* \"#utility.yul\":14700:14724   */\n      sload\n        /* \"#utility.yul\":14694:14697   */\n      0xa0\n        /* \"#utility.yul\":14679:14698   */\n      dup5\n      add\n        /* \"#utility.yul\":14672:14725   */\n      mstore\n        /* \"#utility.yul\":14780:14784   */\n      0x05\n        /* \"#utility.yul\":14768:14785   */\n      dup5\n      add\n        /* \"#utility.yul\":14762:14786   */\n      sload\n        /* \"#utility.yul\":14756:14759   */\n      0xc0\n        /* \"#utility.yul\":14741:14760   */\n      dup5\n      add\n        /* \"#utility.yul\":14734:14787   */\n      mstore\n        /* \"#utility.yul\":14831:14835   */\n      0x06\n        /* \"#utility.yul\":14819:14836   */\n      dup5\n      add\n        /* \"#utility.yul\":14813:14837   */\n      sload\n      sub(shl(0xa0, 0x01), 0x01)\n        /* \"#utility.yul\":14865:14883   */\n      dup3\n      dup3\n      and\n        /* \"#utility.yul\":3622:3653   */\n      and\n        /* \"#utility.yul\":14900:14903   */\n      0xe0\n        /* \"#utility.yul\":14885:14904   */\n      dup6\n      add\n        /* \"#utility.yul\":3610:3654   */\n      mstore\n        /* \"#utility.yul\":14914:14982   */\n      tag_474\n        /* \"#utility.yul\":14977:14980   */\n      0x0100\n        /* \"#utility.yul\":14966:14975   */\n      dup6\n        /* \"#utility.yul\":14962:14981   */\n      add\n        /* \"#utility.yul\":14955:14959   */\n      0xff\n        /* \"#utility.yul\":14943:14952   */\n      dup4\n        /* \"#utility.yul\":14938:14941   */\n      0xa0\n        /* \"#utility.yul\":14934:14953   */\n      shr\n        /* \"#utility.yul\":14930:14960   */\n      and\n        /* \"#utility.yul\":4023:4036   */\n      iszero\n        /* \"#utility.yul\":4016:4037   */\n      iszero\n        /* \"#utility.yul\":4004:4038   */\n      swap1\n      mstore\n        /* \"#utility.yul\":3953:4044   */\n      jump\n        /* \"#utility.yul\":14914:14982   */\n    tag_474:\n        /* \"#utility.yul\":14991:15059   */\n      tag_475\n        /* \"#utility.yul\":15054:15057   */\n      0x0120\n        /* \"#utility.yul\":15043:15052   */\n      dup6\n        /* \"#utility.yul\":15039:15058   */\n      add\n        /* \"#utility.yul\":15032:15036   */\n      0xff\n        /* \"#utility.yul\":15020:15029   */\n      dup4\n        /* \"#utility.yul\":15015:15018   */\n      0xa8\n        /* \"#utility.yul\":15011:15030   */\n      shr\n        /* \"#utility.yul\":15007:15037   */\n      and\n        /* \"#utility.yul\":4023:4036   */\n      iszero\n        /* \"#utility.yul\":4016:4037   */\n      iszero\n        /* \"#utility.yul\":4004:4038   */\n      swap1\n      mstore\n        /* \"#utility.yul\":3953:4044   */\n      jump\n        /* \"#utility.yul\":14991:15059   */\n    tag_475:\n        /* \"#utility.yul\":15068:15136   */\n      tag_476\n        /* \"#utility.yul\":15131:15134   */\n      0x0140\n        /* \"#utility.yul\":15120:15129   */\n      dup6\n        /* \"#utility.yul\":15116:15135   */\n      add\n        /* \"#utility.yul\":15109:15113   */\n      0xff\n        /* \"#utility.yul\":15097:15106   */\n      dup4\n        /* \"#utility.yul\":15092:15095   */\n      0xb0\n        /* \"#utility.yul\":15088:15107   */\n      shr\n        /* \"#utility.yul\":15084:15114   */\n      and\n        /* \"#utility.yul\":4023:4036   */\n      iszero\n        /* \"#utility.yul\":4016:4037   */\n      iszero\n        /* \"#utility.yul\":4004:4038   */\n      swap1\n      mstore\n        /* \"#utility.yul\":3953:4044   */\n      jump\n        /* \"#utility.yul\":15068:15136   */\n    tag_476:\n      pop\n      pop\n        /* \"#utility.yul\":15228:15232   */\n      0x07\n        /* \"#utility.yul\":15216:15233   */\n      swap3\n      swap1\n      swap3\n      add\n        /* \"#utility.yul\":15210:15234   */\n      sload\n      sub(shl(0xa0, 0x01), 0x01)\n        /* \"#utility.yul\":14001:14037   */\n      and\n        /* \"#utility.yul\":15294:15297   */\n      0x0160\n        /* \"#utility.yul\":15279:15298   */\n      swap2\n      swap1\n      swap2\n      add\n        /* \"#utility.yul\":3610:3654   */\n      mstore\n        /* \"#utility.yul\":14048:15305   */\n      swap2\n      swap1\n      pop\n      jump\t// out\n\n    auxdata: 0xa26469706673582212202e512b3051bf3b446393a08a803be9586a6617a7ab8cbe6a12226a144e6cea8564736f6c63430008120033\n}\n",
				"bytecode": {
					"linkReferences": {},
					"object": "60806040523480156200001157600080fd5b5060405162002ff238038062002ff2833981016040819052620000349162000093565b600580546001600160a01b039384166001600160a01b0319918216179091556006805492909316918116919091179091556007805490911633179055620000cb565b80516001600160a01b03811681146200008e57600080fd5b919050565b60008060408385031215620000a757600080fd5b620000b28362000076565b9150620000c26020840162000076565b90509250929050565b612f1780620000db6000396000f3fe608060405234801561001057600080fd5b50600436106101da5760003560e01c8063690e178411610104578063b244cb29116100a2578063d25b9e5811610071578063d25b9e58146105f0578063d848b5ba14610603578063f022f4171461062c578063f8eeb6651461063f57600080fd5b8063b244cb29146105a4578063c23a9da2146105b7578063c6e39898146105ca578063d04dc91e146105dd57600080fd5b80637c3e2f02116100de5780637c3e2f021461055857806392a59f1f1461056b5780639e2c608c1461057e578063b20be2b41461059157600080fd5b8063690e17841461048d5780636cedf640146104c1578063798fdafa1461054557600080fd5b8063385e4b7a1161017c57806347d0a6341161014b57806347d0a63414610434578063492b71071461044757806354d393181461045a5780635e2c93141461047a57600080fd5b8063385e4b7a146103905780633e68d831146103a357806340e7bdc3146103ef578063441eb5481461042157600080fd5b80631d3b8f67116101b85780631d3b8f671461021a57806327cbaabe1461022d57806331ecdeb81461025d578063328320bf1461034a57600080fd5b806307cb20e8146101df57806311cfa0bc146101f4578063128e641d14610207575b600080fd5b6101f26101ed366004612adc565b610652565b005b6101f2610202366004612b13565b610acb565b6101f2610215366004612b35565b610d15565b6101f2610228366004612b13565b610e33565b600754610240906001600160a01b031681565b6040516001600160a01b0390911681526020015b60405180910390f35b6102e061026b366004612b13565b60036020819052600091825260409091208054600182015460028301549383015460048401546005850154600686015460079096015494969395939460ff93841694929391926001600160a01b0380821693600160a01b8304811693600160a81b8404821693600160b01b900490911691168b565b604080519b8c5260208c019a909a52988a019790975260ff9095166060890152608088019390935260a08701919091526001600160a01b0390811660c087015290151560e08601529015156101008501529015156101208401521661014082015261016001610254565b610380610358366004612b13565b6001600160a01b0316600090815260036020526040902060060154600160a01b900460ff1690565b6040519015158152602001610254565b6101f261039e366004612b13565b610f10565b6103d76103b1366004612b51565b60026020908152600092835260408084209091529082529020546001600160801b031681565b6040516001600160801b039091168152602001610254565b6103d76103fd366004612b13565b6001600160a01b03166000908152602081905260409020546001600160801b031690565b6101f261042f366004612b13565b611030565b600554610240906001600160a01b031681565b600654610240906001600160a01b031681565b61046d610468366004612b92565b61114a565b6040516102549190612c5b565b6101f2610488366004612c6a565b61126c565b61024061049b366004612b92565b60016020908152600092835260408084209091529082529020546001600160a01b031681565b61050e6104cf366004612b13565b60046020819052600091825260409091208054600182015460028301546003840154948401546005909401546001600160a01b03909316949193909286565b604080516001600160a01b0390971687526020870195909552938501929092526060840152608083015260a082015260c001610254565b6101f2610553366004612c85565b6113ca565b6101f2610566366004612b13565b6115aa565b6101f2610579366004612b13565b611723565b6101f261058c366004612c85565b611887565b6101f261059f366004612b13565b611b8f565b6101f26105b2366004612ca2565b611c66565b6101f26105c5366004612ce5565b611cff565b6101f26105d8366004612b35565b611e47565b6101f26105eb366004612c85565b611f35565b61046d6105fe366004612b13565b612294565b6103d7610611366004612b13565b6000602081905290815260409020546001600160801b031681565b6101f261063a366004612c6a565b612398565b6101f261064d366004612adc565b61250b565b600560009054906101000a90046001600160a01b03166001600160a01b03166354a460f66040518163ffffffff1660e01b8152600401602060405180830381865afa1580156106a5573d6000803e3d6000fd5b505050506040513d601f19601f820116820180604052508101906106c99190612d48565b6106d257600080fd5b60c08201516001600160a01b0316600090815260036020526040902060060154600160b01b900460ff1615156001036107475760405162461bcd60e51b81526020600482015260126024820152711d1a194818dbda5b881a5cc808195e1a5cdd60721b60448201526064015b60405180910390fd5b336101408301819052600060e08401819052610100840181905260016101208501819052918152602081905260409020546001600160801b0316108015906107ba5750336000908152602081905260409020546001600160801b03166107ae816001612d65565b6001600160801b031610155b15610811573360009081526020819052604081208054600192906107e89084906001600160801b0316612d65565b92506101000a8154816001600160801b0302191690836001600160801b03160217905550610832565b33600090815260208190526040902080546001600160801b03191660011790555b60c08201805133600081815260016020818152604080842084835281852080546001600160801b03908116875291845282862080546001600160a01b03998a166001600160a01b031991821617909155878752905460028086528488208b518b168952865284882080546001600160801b03191692909416919091179092558851881686526003808552958390208b518155938b015194840194909455818a0151908301556060890151938201805460ff90951660ff19909516949094179093556080880151600482015560a08801516005820155945160068601805460e08a01516101008b01516101208c01511515600160b01b0260ff60b01b19911515600160a81b029190911661ffff60a81b19921515600160a01b026001600160a81b0319909416958a1695909517929092171692909217919091179055610140870151600790950180549590941694169390931790915590517f724ed868ad6195ec663de17364300ee1e1956f27f184ceb84f2be30d1fd58d65916109b6918590612d9a565b60405180910390a180516001600160a01b03908116600090815260036020526040902060070154163314610a2c5760405162461bcd60e51b815260206004820152601c60248201527f796f75206973206e6f7420746865207468696e67206372656174657200000000604482015260640161073e565b80516001600160a01b03908116600090815260046020818152604092839020855181546001600160a01b031916951694851781558186015160018201558386015160028201556060860151600382015560808601519281019290925560a085015160059092019190915590519182527f28995a3cc31b8867e272bf05bb4f577da5e81799e17cf729d123edf7c2a7ca9491015b60405180910390a15050565b600660009054906101000a90046001600160a01b03166001600160a01b031663ad87d2ba6040518163ffffffff1660e01b8152600401602060405180830381865afa158015610b1e573d6000803e3d6000fd5b505050506040513d601f19601f82011682018060405250810190610b429190612d48565b610b4b57600080fd5b6001600160a01b0381166000908152600360205260409020600601805460ff60b01b1916600160b01b1790556006546001600160a01b039081166000908152600260209081526040808320938516835292905220546001600160801b0316610bf55760405162461bcd60e51b815260206004820152601d60248201527f74686520636f696e206973202065786973747320696e206d61726b6574000000604482015260640161073e565b6006546001600160a01b03166000908152602081905260409020546001600160801b031660018110801590610c4657506001600160801b038116610c3a826001612d65565b6001600160801b031610155b15610c5d57610c56600182612d65565b9050610c61565b5060015b600680546001600160a01b0390811660009081526020818152604080832080546001600160801b03199081166001600160801b03891690811790925586548616855260018452828520828652845282852080546001600160a01b0319168a881690811790915596549095168452600283528184208685528352928190208054909416909217909255519182527f787b8074a2db1bf64dac1e916753253472acc7c1fff144fae6d14142860d890b9101610abf565b600660009054906101000a90046001600160a01b03166001600160a01b031663ad87d2ba6040518163ffffffff1660e01b8152600401602060405180830381865afa158015610d68573d6000803e3d6000fd5b505050506040513d601f19601f82011682018060405250810190610d8c9190612d48565b610d9557600080fd5b80516001600160a01b03908116600090815260046020818152604092839020855181546001600160a01b031916951694851781558186015160018201558386015160028201556060860151600382015560808601519281019290925560a085015160059092019190915590519182527f28995a3cc31b8867e272bf05bb4f577da5e81799e17cf729d123edf7c2a7ca9491015b60405180910390a150565b600660009054906101000a90046001600160a01b03166001600160a01b031663ad87d2ba6040518163ffffffff1660e01b8152600401602060405180830381865afa158015610e86573d6000803e3d6000fd5b505050506040513d601f19601f82011682018060405250810190610eaa9190612d48565b610eb357600080fd5b6001600160a01b038116600081815260036020908152604091829020600601805460ff60a01b1916600160a01b17905590519182527fac01100c10be15fec1a42f8249abc04b81a28e731feab3e60a2a962f74eff9d89101610e28565b600560009054906101000a90046001600160a01b03166001600160a01b03166354a460f66040518163ffffffff1660e01b8152600401602060405180830381865afa158015610f63573d6000803e3d6000fd5b505050506040513d601f19601f82011682018060405250810190610f879190612d48565b610f9057600080fd5b6001600160a01b03818116600090815260036020526040902060070154163314610fcc5760405162461bcd60e51b815260040161073e90612de8565b6001600160a01b038116600081815260036020908152604091829020600601805460ff60a81b1916600160a81b1790558151338152908101929092527f91f5df1a13ccd890776a683fdcef0b553ce7ac24fbe9609bb51aeb9fefed82a49101610e28565b600560009054906101000a90046001600160a01b03166001600160a01b03166354a460f66040518163ffffffff1660e01b8152600401602060405180830381865afa158015611083573d6000803e3d6000fd5b505050506040513d601f19601f820116820180604052508101906110a79190612d48565b6110b057600080fd5b6001600160a01b038181166000908152600360205260409020600701541633146110ec5760405162461bcd60e51b815260040161073e90612de8565b6001600160a01b038116600081815260036020908152604091829020600601805460ff60a81b191690558151338152908101929092527f4807c3daa091febea14280167243bd513929ce4fe91170ef6536aebad0ede29b9101610e28565b6111526128ba565b6001600160a01b038316600090815260036020526040902060060154600160b01b900460ff1615156001146111995760405162461bcd60e51b815260040161073e90612db8565b506001600160a01b0380831660009081526001602081815260408084206001600160801b0387168552825280842054851684526003808352938190208151610160810183528154815293810154928401929092526002820154908301529182015460ff908116606083015260048301546080830152600583015460a0830152600683015480851660c0840152600160a01b81048216151560e0840152600160a81b810482161515610100840152600160b01b90041615156101208201526007909101549091166101408201525b92915050565b600560009054906101000a90046001600160a01b03166001600160a01b03166354a460f66040518163ffffffff1660e01b8152600401602060405180830381865afa1580156112bf573d6000803e3d6000fd5b505050506040513d601f19601f820116820180604052508101906112e39190612d48565b6112ec57600080fd5b3360009081526001602090815260408083206001600160801b03851684529091529020546001600160a01b03166113355760405162461bcd60e51b815260040161073e90612db8565b336000818152600260209081526040808320600183528184206001600160801b03871680865281855283862080546001600160a01b0316875292855283862080546001600160801b031916905594859052835280546001600160a01b03191690558051938452908301919091527f4edb2517e4d5299dd19c1ce662d404d108ffed8f91bc76838771edae5fac7c439101610e28565b600660009054906101000a90046001600160a01b03166001600160a01b031663ad87d2ba6040518163ffffffff1660e01b8152600401602060405180830381865afa15801561141d573d6000803e3d6000fd5b505050506040513d601f19601f820116820180604052508101906114419190612d48565b61144a57600080fd5b600680546001600160a01b03908116600090815260026020818152604080842060c08801805187168652908352600160e089018181526101008a018781526101208b0183815284518a1689526003808852868a206007908101548c166101408f0190815287518d168c52828a529a8890208e518155988e0151958901959095558c8701519888019890985560608c0151978701805460ff191660ff9099169890981790975560808b0151600487015560a08b01516005870155925198850180549151935196519989166001600160a81b031990921691909117600160a01b931515939093029290921761ffff60a81b1916600160a81b9515159590950260ff60b01b191694909417600160b01b97151597909702969096179095559151910180546001600160a01b03191691909216179055517f7ef1a4c6cd6954cc6f68ac195814a83775046e46054eb12bf4b6619ba234f58b90610e28908390612c5b565b600660009054906101000a90046001600160a01b03166001600160a01b031663ad87d2ba6040518163ffffffff1660e01b8152600401602060405180830381865afa1580156115fd573d6000803e3d6000fd5b505050506040513d601f19601f820116820180604052508101906116219190612d48565b61162a57600080fd5b6006546001600160a01b0390811660009081526002602090815260408083209385168352929052205460016001600160801b03909116101561167e5760405162461bcd60e51b815260040161073e90612db8565b600680546001600160a01b0390811660009081526001602090815260408083206002808452828520888716808752908552838620546001600160801b0316865291845282852080546001600160a01b03191690559554909416835293815283822083835281529083902080546001600160801b031916905591519081527f95fb8f03172737716db3e279a3cafdb96c41b3ff1ca3cedc215a7770838c1c5b9101610e28565b600560009054906101000a90046001600160a01b03166001600160a01b03166354a460f66040518163ffffffff1660e01b8152600401602060405180830381865afa158015611776573d6000803e3d6000fd5b505050506040513d601f19601f8201168201806040525081019061179a9190612d48565b6117a357600080fd5b3360009081526002602090815260408083206001600160a01b038516845290915290205460016001600160801b0390911610156117f25760405162461bcd60e51b815260040161073e90612db8565b336000818152600160209081526040808320600283528184206001600160a01b03871680865281855283862080546001600160801b0316875292855283862080546001600160a01b031916905594859052835280546001600160801b03191690558051938452908301919091527fad5eeaa2ee1bef6674ecea21b9329a0a9333380eaf145a4b888951038c8aa40c9101610e28565b600660009054906101000a90046001600160a01b03166001600160a01b031663ad87d2ba6040518163ffffffff1660e01b8152600401602060405180830381865afa1580156118da573d6000803e3d6000fd5b505050506040513d601f19601f820116820180604052508101906118fe9190612d48565b61190757600080fd5b60c08101516001600160a01b0316600090815260036020526040902060060154600160b01b900460ff1615156001036119735760405162461bcd60e51b815260206004820152600e60248201526d1d1a194818dbda5b88195e1a5cdd60921b604482015260640161073e565b33610140820152600060e082018190526001610100830181905261012083018190526006546001600160a01b0316825260208290526040909120546001600160801b03169081108015906119e357506001600160801b0381166119d7826001612d65565b6001600160801b031610155b156119fa576119f3600182612d65565b90506119fe565b5060015b600680546001600160a01b0390811660009081526020818152604080832080546001600160801b0388166001600160801b0319918216811790925560c089018051885488168752600180875285882085895287528588208054928a166001600160a01b0319938416179055895489168852600280885286892084518b168a52885286892080549095169095179093558151881687526003808752968590208b518155958b01519286019290925589840151928501929092556060890151948401805460ff90961660ff19909616959095179094556080880151600484015560a0880151600584015551948201805460e08901516101008a01516101208b01511515600160b01b0260ff60b01b19911515600160a81b029190911661ffff60a81b19921515600160a01b026001600160a81b0319909416998916999099179290921716969096179590951790945561014086015160079091018054919093169116179055517f3fdeabf9cf0f252033e117e3bf501c16a9e905759535453a989a37bbb55557cb90610abf908490612c5b565b600660009054906101000a90046001600160a01b03166001600160a01b031663ad87d2ba6040518163ffffffff1660e01b8152600401602060405180830381865afa158015611be2573d6000803e3d6000fd5b505050506040513d601f19601f82011682018060405250810190611c069190612d48565b611c0f57600080fd5b6001600160a01b038116600081815260036020908152604091829020600601805460ff60a01b1916905590519182527f1d4523355c952f926d43eb41085d74f46339403039ec5258081efa96ea26edd79101610e28565b6007546001600160a01b03163314611cc05760405162461bcd60e51b815260206004820152601960248201527f796f7520617265206e6f74206d61726b65746372656174657200000000000000604482015260640161073e565b600680546001600160a01b039485166001600160a01b031991821617909155600580549385169382169390931790925560078054919093169116179055565b600560009054906101000a90046001600160a01b03166001600160a01b03166354a460f66040518163ffffffff1660e01b8152600401602060405180830381865afa158015611d52573d6000803e3d6000fd5b505050506040513d601f19601f82011682018060405250810190611d769190612d48565b611d7f57600080fd5b6001600160a01b03818116600090815260036020526040902060070154163314611dbb5760405162461bcd60e51b815260040161073e90612de8565b6001600160a01b0381166000908152600360208190526040918290208981556001810189905560028101889055908101805460ff191660ff8816179055600481018590556005810184905590517fe2cf3d7794282be7dd508f8c88ca5394f0abe2b9f09b848306b1eadd0becdf9491611e3691339190612e18565b60405180910390a150505050505050565b600560009054906101000a90046001600160a01b03166001600160a01b03166354a460f66040518163ffffffff1660e01b8152600401602060405180830381865afa158015611e9a573d6000803e3d6000fd5b505050506040513d601f19601f82011682018060405250810190611ebe9190612d48565b611ec757600080fd5b80516001600160a01b03908116600090815260036020526040902060070154163314610d955760405162461bcd60e51b815260206004820152601c60248201527f796f75206973206e6f7420746865207468696e67206372656174657200000000604482015260640161073e565b600560009054906101000a90046001600160a01b03166001600160a01b03166354a460f66040518163ffffffff1660e01b8152600401602060405180830381865afa158015611f88573d6000803e3d6000fd5b505050506040513d601f19601f82011682018060405250810190611fac9190612d48565b611fb557600080fd5b60c08101516001600160a01b0316600090815260036020526040902060060154600160b01b900460ff1615156001036120255760405162461bcd60e51b81526020600482015260126024820152711d1a194818dbda5b881a5cc808195e1a5cdd60721b604482015260640161073e565b336101408201819052600060e08301819052610100830181905260016101208401819052918152602081905260409020546001600160801b0316108015906120985750336000908152602081905260409020546001600160801b031661208c816001612d65565b6001600160801b031610155b156120ef573360009081526020819052604081208054600192906120c69084906001600160801b0316612d65565b92506101000a8154816001600160801b0302191690836001600160801b03160217905550612110565b33600090815260208190526040902080546001600160801b03191660011790555b60c08101805133600081815260016020818152604080842084835281852080546001600160801b03908116875291845282862080546001600160a01b03998a166001600160a01b031991821617909155878752905460028086528488208b518b168952865284882080546001600160801b03191692909416919091179092558851881686526003808552958390208a518155938a01519484019490945581890151908301556060880151938201805460ff90951660ff19909516949094179093556080870151600482015560a08701516005820155945160068601805460e08901516101008a01516101208b01511515600160b01b0260ff60b01b19911515600160a81b029190911661ffff60a81b19921515600160a01b026001600160a81b0319909416958a1695909517929092171692909217919091179055610140860151600790950180549590941694169390931790915590517f724ed868ad6195ec663de17364300ee1e1956f27f184ceb84f2be30d1fd58d6591610e28918490612d9a565b61229c6128ba565b6001600160a01b038216600090815260036020526040902060060154600160b01b900460ff1615156001146122e35760405162461bcd60e51b815260040161073e90612db8565b506001600160a01b03908116600090815260036020818152604092839020835161016081018552815481526001820154928101929092526002810154938201939093529082015460ff908116606083015260048301546080830152600583015460a0830152600683015480851660c0840152600160a01b81048216151560e0840152600160a81b810482161515610100840152600160b01b900416151561012082015260079091015490911661014082015290565b600660009054906101000a90046001600160a01b03166001600160a01b031663ad87d2ba6040518163ffffffff1660e01b8152600401602060405180830381865afa1580156123eb573d6000803e3d6000fd5b505050506040513d601f19601f8201168201806040525081019061240f9190612d48565b61241857600080fd5b6006546001600160a01b0390811660009081526001602090815260408083206001600160801b0386168452909152902054166124665760405162461bcd60e51b815260040161073e90612db8565b600680546001600160a01b03908116600090815260026020908152604080832060018084528285206001600160801b038916808752908552838620548716865291845282852080546001600160801b03191690559554909416835293815283822083835281529083902080546001600160a01b031916905591519081527f5f7c082ccca0f36ec2622a3f2d11cf4a4b3a0db0557669195572256a1db6be989101610e28565b600660009054906101000a90046001600160a01b03166001600160a01b031663ad87d2ba6040518163ffffffff1660e01b8152600401602060405180830381865afa15801561255e573d6000803e3d6000fd5b505050506040513d601f19601f820116820180604052508101906125829190612d48565b61258b57600080fd5b60c08201516001600160a01b0316600090815260036020526040902060060154600160b01b900460ff1615156001036125f75760405162461bcd60e51b815260206004820152600e60248201526d1d1a194818dbda5b88195e1a5cdd60921b604482015260640161073e565b33610140830152600060e083018190526001610100840181905261012084018190526006546001600160a01b0316825260208290526040909120546001600160801b031690811080159061266757506001600160801b03811661265b826001612d65565b6001600160801b031610155b1561267e57612677600182612d65565b9050612682565b5060015b600680546001600160a01b0390811660009081526020818152604080832080546001600160801b0388166001600160801b0319918216811790925560c08a018051885488168752600180875285882085895287528588208054928a166001600160a01b0319938416179055895489168852600280885286892084518b168a52885286892080549095169095179093558151881687526003808752968590208c518155958c0151928601929092558a8401519285019290925560608a0151948401805460ff90961660ff19909616959095179094556080890151600484015560a0890151600584015551948201805460e08a01516101008b01516101208c01511515600160b01b0260ff60b01b19911515600160a81b029190911661ffff60a81b19921515600160a01b026001600160a81b0319909416998916999099179290921716969096179590951790945561014087015160079091018054919093169116179055517f3fdeabf9cf0f252033e117e3bf501c16a9e905759535453a989a37bbb55557cb90612813908590612c5b565b60405180910390a181516001600160a01b03908116600090815260046020818152604092839020865181546001600160a01b031916951694851781558187015160018201558387015160028201556060870151600382015560808701519281019290925560a086015160059092019190915590519182527f28995a3cc31b8867e272bf05bb4f577da5e81799e17cf729d123edf7c2a7ca94910160405180910390a1505050565b6040805161016081018252600080825260208201819052918101829052606081018290526080810182905260a0810182905260c0810182905260e081018290526101008101829052610120810182905261014081019190915290565b604051610160810167ffffffffffffffff8111828210171561294857634e487b7160e01b600052604160045260246000fd5b60405290565b803560ff8116811461295f57600080fd5b919050565b80356001600160a01b038116811461295f57600080fd5b801515811461298957600080fd5b50565b803561295f8161297b565b600061016082840312156129aa57600080fd5b6129b2612916565b90508135815260208201356020820152604082013560408201526129d86060830161294e565b60608201526080820135608082015260a082013560a08201526129fd60c08301612964565b60c0820152612a0e60e0830161298c565b60e0820152610100612a2181840161298c565b90820152610120612a3383820161298c565b90820152610140612a45838201612964565b9082015292915050565b600060c08284031215612a6157600080fd5b60405160c0810181811067ffffffffffffffff82111715612a9257634e487b7160e01b600052604160045260246000fd5b604052905080612aa183612964565b81526020830135602082015260408301356040820152606083013560608201526080830135608082015260a083013560a08201525092915050565b6000806102208385031215612af057600080fd5b612afa8484612997565b9150612b0a846101608501612a4f565b90509250929050565b600060208284031215612b2557600080fd5b612b2e82612964565b9392505050565b600060c08284031215612b4757600080fd5b612b2e8383612a4f565b60008060408385031215612b6457600080fd5b612b6d83612964565b9150612b0a60208401612964565b80356001600160801b038116811461295f57600080fd5b60008060408385031215612ba557600080fd5b612bae83612964565b9150612b0a60208401612b7b565b8051825260208101516020830152604081015160408301526060810151612be8606084018260ff169052565b506080810151608083015260a081015160a083015260c0810151612c1760c08401826001600160a01b03169052565b5060e0810151612c2b60e084018215159052565b506101008181015115159083015261012080820151151590830152610140908101516001600160a01b0316910152565b61016081016112668284612bbc565b600060208284031215612c7c57600080fd5b612b2e82612b7b565b60006101608284031215612c9857600080fd5b612b2e8383612997565b600080600060608486031215612cb757600080fd5b612cc084612964565b9250612cce60208501612964565b9150612cdc60408501612964565b90509250925092565b600080600080600080600060e0888a031215612d0057600080fd5b873596506020880135955060408801359450612d1e6060890161294e565b93506080880135925060a08801359150612d3a60c08901612964565b905092959891949750929550565b600060208284031215612d5a57600080fd5b8151612b2e8161297b565b6001600160801b03818116838216019080821115612d9357634e487b7160e01b600052601160045260246000fd5b5092915050565b6001600160a01b03831681526101808101612b2e6020830184612bbc565b60208082526016908201527574686520636f696e206973206e6f742065786973747360501b604082015260600190565b6020808252601690820152751e5bdd481a185d99481b9bdd081d1a19481c9a59da1d60521b604082015260600190565b6001600160a01b03838116825282546020830152600183015460408301526002830154606083015260038301546101808301919060ff1660ff8116608085015250600484015460a0840152600584015460c084015260068401546001600160a01b038282161660e0850152612e98610100850160ff8360a01c1615159052565b612ead610120850160ff8360a81c1615159052565b612ec2610140850160ff8360b01c1615159052565b5050600792909201546001600160a01b0316610160919091015291905056fea26469706673582212202e512b3051bf3b446393a08a803be9586a6617a7ab8cbe6a12226a144e6cea8564736f6c63430008120033",
					"opcodes": "PUSH1 0x80 PUSH1 0x40 MSTORE CALLVALUE DUP1 ISZERO PUSH3 0x11 JUMPI PUSH1 0x0 DUP1 REVERT JUMPDEST POP PUSH1 0x40 MLOAD PUSH3 0x2FF2 CODESIZE SUB DUP1 PUSH3 0x2FF2 DUP4 CODECOPY DUP2 ADD PUSH1 0x40 DUP2 SWAP1 MSTORE PUSH3 0x34 SWAP2 PUSH3 0x93 JUMP JUMPDEST PUSH1 0x5 DUP1 SLOAD PUSH1 0x1 PUSH1 0x1 PUSH1 0xA0 SHL SUB SWAP4 DUP5 AND PUSH1 0x1 PUSH1 0x1 PUSH1 0xA0 SHL SUB NOT SWAP2 DUP3 AND OR SWAP1 SWAP2 SSTORE PUSH1 0x6 DUP1 SLOAD SWAP3 SWAP1 SWAP4 AND SWAP2 DUP2 AND SWAP2 SWAP1 SWAP2 OR SWAP1 SWAP2 SSTORE PUSH1 0x7 DUP1 SLOAD SWAP1 SWAP2 AND CALLER OR SWAP1 SSTORE PUSH3 0xCB JUMP JUMPDEST DUP1 MLOAD PUSH1 0x1 PUSH1 0x1 PUSH1 0xA0 SHL SUB DUP2 AND DUP2 EQ PUSH3 0x8E JUMPI PUSH1 0x0 DUP1 REVERT JUMPDEST SWAP2 SWAP1 POP JUMP JUMPDEST PUSH1 0x0 DUP1 PUSH1 0x40 DUP4 DUP6 SUB SLT ISZERO PUSH3 0xA7 JUMPI PUSH1 0x0 DUP1 REVERT JUMPDEST PUSH3 0xB2 DUP4 PUSH3 0x76 JUMP JUMPDEST SWAP2 POP PUSH3 0xC2 PUSH1 0x20 DUP5 ADD PUSH3 0x76 JUMP JUMPDEST SWAP1 POP SWAP3 POP SWAP3 SWAP1 POP JUMP JUMPDEST PUSH2 0x2F17 DUP1 PUSH3 0xDB PUSH1 0x0 CODECOPY PUSH1 0x0 RETURN INVALID PUSH1 0x80 PUSH1 0x40 MSTORE CALLVALUE DUP1 ISZERO PUSH2 0x10 JUMPI PUSH1 0x0 DUP1 REVERT JUMPDEST POP PUSH1 0x4 CALLDATASIZE LT PUSH2 0x1DA JUMPI PUSH1 0x0 CALLDATALOAD PUSH1 0xE0 SHR DUP1 PUSH4 0x690E1784 GT PUSH2 0x104 JUMPI DUP1 PUSH4 0xB244CB29 GT PUSH2 0xA2 JUMPI DUP1 PUSH4 0xD25B9E58 GT PUSH2 0x71 JUMPI DUP1 PUSH4 0xD25B9E58 EQ PUSH2 0x5F0 JUMPI DUP1 PUSH4 0xD848B5BA EQ PUSH2 0x603 JUMPI DUP1 PUSH4 0xF022F417 EQ PUSH2 0x62C JUMPI DUP1 PUSH4 0xF8EEB665 EQ PUSH2 0x63F JUMPI PUSH1 0x0 DUP1 REVERT JUMPDEST DUP1 PUSH4 0xB244CB29 EQ PUSH2 0x5A4 JUMPI DUP1 PUSH4 0xC23A9DA2 EQ PUSH2 0x5B7 JUMPI DUP1 PUSH4 0xC6E39898 EQ PUSH2 0x5CA JUMPI DUP1 PUSH4 0xD04DC91E EQ PUSH2 0x5DD JUMPI PUSH1 0x0 DUP1 REVERT JUMPDEST DUP1 PUSH4 0x7C3E2F02 GT PUSH2 0xDE JUMPI DUP1 PUSH4 0x7C3E2F02 EQ PUSH2 0x558 JUMPI DUP1 PUSH4 0x92A59F1F EQ PUSH2 0x56B JUMPI DUP1 PUSH4 0x9E2C608C EQ PUSH2 0x57E JUMPI DUP1 PUSH4 0xB20BE2B4 EQ PUSH2 0x591 JUMPI PUSH1 0x0 DUP1 REVERT JUMPDEST DUP1 PUSH4 0x690E1784 EQ PUSH2 0x48D JUMPI DUP1 PUSH4 0x6CEDF640 EQ PUSH2 0x4C1 JUMPI DUP1 PUSH4 0x798FDAFA EQ PUSH2 0x545 JUMPI PUSH1 0x0 DUP1 REVERT JUMPDEST DUP1 PUSH4 0x385E4B7A GT PUSH2 0x17C JUMPI DUP1 PUSH4 0x47D0A634 GT PUSH2 0x14B JUMPI DUP1 PUSH4 0x47D0A634 EQ PUSH2 0x434 JUMPI DUP1 PUSH4 0x492B7107 EQ PUSH2 0x447 JUMPI DUP1 PUSH4 0x54D39318 EQ PUSH2 0x45A JUMPI DUP1 PUSH4 0x5E2C9314 EQ PUSH2 0x47A JUMPI PUSH1 0x0 DUP1 REVERT JUMPDEST DUP1 PUSH4 0x385E4B7A EQ PUSH2 0x390 JUMPI DUP1 PUSH4 0x3E68D831 EQ PUSH2 0x3A3 JUMPI DUP1 PUSH4 0x40E7BDC3 EQ PUSH2 0x3EF JUMPI DUP1 PUSH4 0x441EB548 EQ PUSH2 0x421 JUMPI PUSH1 0x0 DUP1 REVERT JUMPDEST DUP1 PUSH4 0x1D3B8F67 GT PUSH2 0x1B8 JUMPI DUP1 PUSH4 0x1D3B8F67 EQ PUSH2 0x21A JUMPI DUP1 PUSH4 0x27CBAABE EQ PUSH2 0x22D JUMPI DUP1 PUSH4 0x31ECDEB8 EQ PUSH2 0x25D JUMPI DUP1 PUSH4 0x328320BF EQ PUSH2 0x34A JUMPI PUSH1 0x0 DUP1 REVERT JUMPDEST DUP1 PUSH4 0x7CB20E8 EQ PUSH2 0x1DF JUMPI DUP1 PUSH4 0x11CFA0BC EQ PUSH2 0x1F4 JUMPI DUP1 PUSH4 0x128E641D EQ PUSH2 0x207 JUMPI JUMPDEST PUSH1 0x0 DUP1 REVERT JUMPDEST PUSH2 0x1F2 PUSH2 0x1ED CALLDATASIZE PUSH1 0x4 PUSH2 0x2ADC JUMP JUMPDEST PUSH2 0x652 JUMP JUMPDEST STOP JUMPDEST PUSH2 0x1F2 PUSH2 0x202 CALLDATASIZE PUSH1 0x4 PUSH2 0x2B13 JUMP JUMPDEST PUSH2 0xACB JUMP JUMPDEST PUSH2 0x1F2 PUSH2 0x215 CALLDATASIZE PUSH1 0x4 PUSH2 0x2B35 JUMP JUMPDEST PUSH2 0xD15 JUMP JUMPDEST PUSH2 0x1F2 PUSH2 0x228 CALLDATASIZE PUSH1 0x4 PUSH2 0x2B13 JUMP JUMPDEST PUSH2 0xE33 JUMP JUMPDEST PUSH1 0x7 SLOAD PUSH2 0x240 SWAP1 PUSH1 0x1 PUSH1 0x1 PUSH1 0xA0 SHL SUB AND DUP2 JUMP JUMPDEST PUSH1 0x40 MLOAD PUSH1 0x1 PUSH1 0x1 PUSH1 0xA0 SHL SUB SWAP1 SWAP2 AND DUP2 MSTORE PUSH1 0x20 ADD JUMPDEST PUSH1 0x40 MLOAD DUP1 SWAP2 SUB SWAP1 RETURN JUMPDEST PUSH2 0x2E0 PUSH2 0x26B CALLDATASIZE PUSH1 0x4 PUSH2 0x2B13 JUMP JUMPDEST PUSH1 0x3 PUSH1 0x20 DUP2 SWAP1 MSTORE PUSH1 0x0 SWAP2 DUP3 MSTORE PUSH1 0x40 SWAP1 SWAP2 KECCAK256 DUP1 SLOAD PUSH1 0x1 DUP3 ADD SLOAD PUSH1 0x2 DUP4 ADD SLOAD SWAP4 DUP4 ADD SLOAD PUSH1 0x4 DUP5 ADD SLOAD PUSH1 0x5 DUP6 ADD SLOAD PUSH1 0x6 DUP7 ADD SLOAD PUSH1 0x7 SWAP1 SWAP7 ADD SLOAD SWAP5 SWAP7 SWAP4 SWAP6 SWAP4 SWAP5 PUSH1 0xFF SWAP4 DUP5 AND SWAP5 SWAP3 SWAP4 SWAP2 SWAP3 PUSH1 0x1 PUSH1 0x1 PUSH1 0xA0 SHL SUB DUP1 DUP3 AND SWAP4 PUSH1 0x1 PUSH1 0xA0 SHL DUP4 DIV DUP2 AND SWAP4 PUSH1 0x1 PUSH1 0xA8 SHL DUP5 DIV DUP3 AND SWAP4 PUSH1 0x1 PUSH1 0xB0 SHL SWAP1 DIV SWAP1 SWAP2 AND SWAP2 AND DUP12 JUMP JUMPDEST PUSH1 0x40 DUP1 MLOAD SWAP12 DUP13 MSTORE PUSH1 0x20 DUP13 ADD SWAP11 SWAP1 SWAP11 MSTORE SWAP9 DUP11 ADD SWAP8 SWAP1 SWAP8 MSTORE PUSH1 0xFF SWAP1 SWAP6 AND PUSH1 0x60 DUP10 ADD MSTORE PUSH1 0x80 DUP9 ADD SWAP4 SWAP1 SWAP4 MSTORE PUSH1 0xA0 DUP8 ADD SWAP2 SWAP1 SWAP2 MSTORE PUSH1 0x1 PUSH1 0x1 PUSH1 0xA0 SHL SUB SWAP1 DUP2 AND PUSH1 0xC0 DUP8 ADD MSTORE SWAP1 ISZERO ISZERO PUSH1 0xE0 DUP7 ADD MSTORE SWAP1 ISZERO ISZERO PUSH2 0x100 DUP6 ADD MSTORE SWAP1 ISZERO ISZERO PUSH2 0x120 DUP5 ADD MSTORE AND PUSH2 0x140 DUP3 ADD MSTORE PUSH2 0x160 ADD PUSH2 0x254 JUMP JUMPDEST PUSH2 0x380 PUSH2 0x358 CALLDATASIZE PUSH1 0x4 PUSH2 0x2B13 JUMP JUMPDEST PUSH1 0x1 PUSH1 0x1 PUSH1 0xA0 SHL SUB AND PUSH1 0x0 SWAP1 DUP2 MSTORE PUSH1 0x3 PUSH1 0x20 MSTORE PUSH1 0x40 SWAP1 KECCAK256 PUSH1 0x6 ADD SLOAD PUSH1 0x1 PUSH1 0xA0 SHL SWAP1 DIV PUSH1 0xFF AND SWAP1 JUMP JUMPDEST PUSH1 0x40 MLOAD SWAP1 ISZERO ISZERO DUP2 MSTORE PUSH1 0x20 ADD PUSH2 0x254 JUMP JUMPDEST PUSH2 0x1F2 PUSH2 0x39E CALLDATASIZE PUSH1 0x4 PUSH2 0x2B13 JUMP JUMPDEST PUSH2 0xF10 JUMP JUMPDEST PUSH2 0x3D7 PUSH2 0x3B1 CALLDATASIZE PUSH1 0x4 PUSH2 0x2B51 JUMP JUMPDEST PUSH1 0x2 PUSH1 0x20 SWAP1 DUP2 MSTORE PUSH1 0x0 SWAP3 DUP4 MSTORE PUSH1 0x40 DUP1 DUP5 KECCAK256 SWAP1 SWAP2 MSTORE SWAP1 DUP3 MSTORE SWAP1 KECCAK256 SLOAD PUSH1 0x1 PUSH1 0x1 PUSH1 0x80 SHL SUB AND DUP2 JUMP JUMPDEST PUSH1 0x40 MLOAD PUSH1 0x1 PUSH1 0x1 PUSH1 0x80 SHL SUB SWAP1 SWAP2 AND DUP2 MSTORE PUSH1 0x20 ADD PUSH2 0x254 JUMP JUMPDEST PUSH2 0x3D7 PUSH2 0x3FD CALLDATASIZE PUSH1 0x4 PUSH2 0x2B13 JUMP JUMPDEST PUSH1 0x1 PUSH1 0x1 PUSH1 0xA0 SHL SUB AND PUSH1 0x0 SWAP1 DUP2 MSTORE PUSH1 0x20 DUP2 SWAP1 MSTORE PUSH1 0x40 SWAP1 KECCAK256 SLOAD PUSH1 0x1 PUSH1 0x1 PUSH1 0x80 SHL SUB AND SWAP1 JUMP JUMPDEST PUSH2 0x1F2 PUSH2 0x42F CALLDATASIZE PUSH1 0x4 PUSH2 0x2B13 JUMP JUMPDEST PUSH2 0x1030 JUMP JUMPDEST PUSH1 0x5 SLOAD PUSH2 0x240 SWAP1 PUSH1 0x1 PUSH1 0x1 PUSH1 0xA0 SHL SUB AND DUP2 JUMP JUMPDEST PUSH1 0x6 SLOAD PUSH2 0x240 SWAP1 PUSH1 0x1 PUSH1 0x1 PUSH1 0xA0 SHL SUB AND DUP2 JUMP JUMPDEST PUSH2 0x46D PUSH2 0x468 CALLDATASIZE PUSH1 0x4 PUSH2 0x2B92 JUMP JUMPDEST PUSH2 0x114A JUMP JUMPDEST PUSH1 0x40 MLOAD PUSH2 0x254 SWAP2 SWAP1 PUSH2 0x2C5B JUMP JUMPDEST PUSH2 0x1F2 PUSH2 0x488 CALLDATASIZE PUSH1 0x4 PUSH2 0x2C6A JUMP JUMPDEST PUSH2 0x126C JUMP JUMPDEST PUSH2 0x240 PUSH2 0x49B CALLDATASIZE PUSH1 0x4 PUSH2 0x2B92 JUMP JUMPDEST PUSH1 0x1 PUSH1 0x20 SWAP1 DUP2 MSTORE PUSH1 0x0 SWAP3 DUP4 MSTORE PUSH1 0x40 DUP1 DUP5 KECCAK256 SWAP1 SWAP2 MSTORE SWAP1 DUP3 MSTORE SWAP1 KECCAK256 SLOAD PUSH1 0x1 PUSH1 0x1 PUSH1 0xA0 SHL SUB AND DUP2 JUMP JUMPDEST PUSH2 0x50E PUSH2 0x4CF CALLDATASIZE PUSH1 0x4 PUSH2 0x2B13 JUMP JUMPDEST PUSH1 0x4 PUSH1 0x20 DUP2 SWAP1 MSTORE PUSH1 0x0 SWAP2 DUP3 MSTORE PUSH1 0x40 SWAP1 SWAP2 KECCAK256 DUP1 SLOAD PUSH1 0x1 DUP3 ADD SLOAD PUSH1 0x2 DUP4 ADD SLOAD PUSH1 0x3 DUP5 ADD SLOAD SWAP5 DUP5 ADD SLOAD PUSH1 0x5 SWAP1 SWAP5 ADD SLOAD PUSH1 0x1 PUSH1 0x1 PUSH1 0xA0 SHL SUB SWAP1 SWAP4 AND SWAP5 SWAP2 SWAP4 SWAP1 SWAP3 DUP7 JUMP JUMPDEST PUSH1 0x40 DUP1 MLOAD PUSH1 0x1 PUSH1 0x1 PUSH1 0xA0 SHL SUB SWAP1 SWAP8 AND DUP8 MSTORE PUSH1 0x20 DUP8 ADD SWAP6 SWAP1 SWAP6 MSTORE SWAP4 DUP6 ADD SWAP3 SWAP1 SWAP3 MSTORE PUSH1 0x60 DUP5 ADD MSTORE PUSH1 0x80 DUP4 ADD MSTORE PUSH1 0xA0 DUP3 ADD MSTORE PUSH1 0xC0 ADD PUSH2 0x254 JUMP JUMPDEST PUSH2 0x1F2 PUSH2 0x553 CALLDATASIZE PUSH1 0x4 PUSH2 0x2C85 JUMP JUMPDEST PUSH2 0x13CA JUMP JUMPDEST PUSH2 0x1F2 PUSH2 0x566 CALLDATASIZE PUSH1 0x4 PUSH2 0x2B13 JUMP JUMPDEST PUSH2 0x15AA JUMP JUMPDEST PUSH2 0x1F2 PUSH2 0x579 CALLDATASIZE PUSH1 0x4 PUSH2 0x2B13 JUMP JUMPDEST PUSH2 0x1723 JUMP JUMPDEST PUSH2 0x1F2 PUSH2 0x58C CALLDATASIZE PUSH1 0x4 PUSH2 0x2C85 JUMP JUMPDEST PUSH2 0x1887 JUMP JUMPDEST PUSH2 0x1F2 PUSH2 0x59F CALLDATASIZE PUSH1 0x4 PUSH2 0x2B13 JUMP JUMPDEST PUSH2 0x1B8F JUMP JUMPDEST PUSH2 0x1F2 PUSH2 0x5B2 CALLDATASIZE PUSH1 0x4 PUSH2 0x2CA2 JUMP JUMPDEST PUSH2 0x1C66 JUMP JUMPDEST PUSH2 0x1F2 PUSH2 0x5C5 CALLDATASIZE PUSH1 0x4 PUSH2 0x2CE5 JUMP JUMPDEST PUSH2 0x1CFF JUMP JUMPDEST PUSH2 0x1F2 PUSH2 0x5D8 CALLDATASIZE PUSH1 0x4 PUSH2 0x2B35 JUMP JUMPDEST PUSH2 0x1E47 JUMP JUMPDEST PUSH2 0x1F2 PUSH2 0x5EB CALLDATASIZE PUSH1 0x4 PUSH2 0x2C85 JUMP JUMPDEST PUSH2 0x1F35 JUMP JUMPDEST PUSH2 0x46D PUSH2 0x5FE CALLDATASIZE PUSH1 0x4 PUSH2 0x2B13 JUMP JUMPDEST PUSH2 0x2294 JUMP JUMPDEST PUSH2 0x3D7 PUSH2 0x611 CALLDATASIZE PUSH1 0x4 PUSH2 0x2B13 JUMP JUMPDEST PUSH1 0x0 PUSH1 0x20 DUP2 SWAP1 MSTORE SWAP1 DUP2 MSTORE PUSH1 0x40 SWAP1 KECCAK256 SLOAD PUSH1 0x1 PUSH1 0x1 PUSH1 0x80 SHL SUB AND DUP2 JUMP JUMPDEST PUSH2 0x1F2 PUSH2 0x63A CALLDATASIZE PUSH1 0x4 PUSH2 0x2C6A JUMP JUMPDEST PUSH2 0x2398 JUMP JUMPDEST PUSH2 0x1F2 PUSH2 0x64D CALLDATASIZE PUSH1 0x4 PUSH2 0x2ADC JUMP JUMPDEST PUSH2 0x250B JUMP JUMPDEST PUSH1 0x5 PUSH1 0x0 SWAP1 SLOAD SWAP1 PUSH2 0x100 EXP SWAP1 DIV PUSH1 0x1 PUSH1 0x1 PUSH1 0xA0 SHL SUB AND PUSH1 0x1 PUSH1 0x1 PUSH1 0xA0 SHL SUB AND PUSH4 0x54A460F6 PUSH1 0x40 MLOAD DUP2 PUSH4 0xFFFFFFFF AND PUSH1 0xE0 SHL DUP2 MSTORE PUSH1 0x4 ADD PUSH1 0x20 PUSH1 0x40 MLOAD DUP1 DUP4 SUB DUP2 DUP7 GAS STATICCALL ISZERO DUP1 ISZERO PUSH2 0x6A5 JUMPI RETURNDATASIZE PUSH1 0x0 DUP1 RETURNDATACOPY RETURNDATASIZE PUSH1 0x0 REVERT JUMPDEST POP POP POP POP PUSH1 0x40 MLOAD RETURNDATASIZE PUSH1 0x1F NOT PUSH1 0x1F DUP3 ADD AND DUP3 ADD DUP1 PUSH1 0x40 MSTORE POP DUP2 ADD SWAP1 PUSH2 0x6C9 SWAP2 SWAP1 PUSH2 0x2D48 JUMP JUMPDEST PUSH2 0x6D2 JUMPI PUSH1 0x0 DUP1 REVERT JUMPDEST PUSH1 0xC0 DUP3 ADD MLOAD PUSH1 0x1 PUSH1 0x1 PUSH1 0xA0 SHL SUB AND PUSH1 0x0 SWAP1 DUP2 MSTORE PUSH1 0x3 PUSH1 0x20 MSTORE PUSH1 0x40 SWAP1 KECCAK256 PUSH1 0x6 ADD SLOAD PUSH1 0x1 PUSH1 0xB0 SHL SWAP1 DIV PUSH1 0xFF AND ISZERO ISZERO PUSH1 0x1 SUB PUSH2 0x747 JUMPI PUSH1 0x40 MLOAD PUSH3 0x461BCD PUSH1 0xE5 SHL DUP2 MSTORE PUSH1 0x20 PUSH1 0x4 DUP3 ADD MSTORE PUSH1 0x12 PUSH1 0x24 DUP3 ADD MSTORE PUSH18 0x1D1A194818DBDA5B881A5CC808195E1A5CDD PUSH1 0x72 SHL PUSH1 0x44 DUP3 ADD MSTORE PUSH1 0x64 ADD JUMPDEST PUSH1 0x40 MLOAD DUP1 SWAP2 SUB SWAP1 REVERT JUMPDEST CALLER PUSH2 0x140 DUP4 ADD DUP2 SWAP1 MSTORE PUSH1 0x0 PUSH1 0xE0 DUP5 ADD DUP2 SWAP1 MSTORE PUSH2 0x100 DUP5 ADD DUP2 SWAP1 MSTORE PUSH1 0x1 PUSH2 0x120 DUP6 ADD DUP2 SWAP1 MSTORE SWAP2 DUP2 MSTORE PUSH1 0x20 DUP2 SWAP1 MSTORE PUSH1 0x40 SWAP1 KECCAK256 SLOAD PUSH1 0x1 PUSH1 0x1 PUSH1 0x80 SHL SUB AND LT DUP1 ISZERO SWAP1 PUSH2 0x7BA JUMPI POP CALLER PUSH1 0x0 SWAP1 DUP2 MSTORE PUSH1 0x20 DUP2 SWAP1 MSTORE PUSH1 0x40 SWAP1 KECCAK256 SLOAD PUSH1 0x1 PUSH1 0x1 PUSH1 0x80 SHL SUB AND PUSH2 0x7AE DUP2 PUSH1 0x1 PUSH2 0x2D65 JUMP JUMPDEST PUSH1 0x1 PUSH1 0x1 PUSH1 0x80 SHL SUB AND LT ISZERO JUMPDEST ISZERO PUSH2 0x811 JUMPI CALLER PUSH1 0x0 SWAP1 DUP2 MSTORE PUSH1 0x20 DUP2 SWAP1 MSTORE PUSH1 0x40 DUP2 KECCAK256 DUP1 SLOAD PUSH1 0x1 SWAP3 SWAP1 PUSH2 0x7E8 SWAP1 DUP5 SWAP1 PUSH1 0x1 PUSH1 0x1 PUSH1 0x80 SHL SUB AND PUSH2 0x2D65 JUMP JUMPDEST SWAP3 POP PUSH2 0x100 EXP DUP2 SLOAD DUP2 PUSH1 0x1 PUSH1 0x1 PUSH1 0x80 SHL SUB MUL NOT AND SWAP1 DUP4 PUSH1 0x1 PUSH1 0x1 PUSH1 0x80 SHL SUB AND MUL OR SWAP1 SSTORE POP PUSH2 0x832 JUMP JUMPDEST CALLER PUSH1 0x0 SWAP1 DUP2 MSTORE PUSH1 0x20 DUP2 SWAP1 MSTORE PUSH1 0x40 SWAP1 KECCAK256 DUP1 SLOAD PUSH1 0x1 PUSH1 0x1 PUSH1 0x80 SHL SUB NOT AND PUSH1 0x1 OR SWAP1 SSTORE JUMPDEST PUSH1 0xC0 DUP3 ADD DUP1 MLOAD CALLER PUSH1 0x0 DUP2 DUP2 MSTORE PUSH1 0x1 PUSH1 0x20 DUP2 DUP2 MSTORE PUSH1 0x40 DUP1 DUP5 KECCAK256 DUP5 DUP4 MSTORE DUP2 DUP6 KECCAK256 DUP1 SLOAD PUSH1 0x1 PUSH1 0x1 PUSH1 0x80 SHL SUB SWAP1 DUP2 AND DUP8 MSTORE SWAP2 DUP5 MSTORE DUP3 DUP7 KECCAK256 DUP1 SLOAD PUSH1 0x1 PUSH1 0x1 PUSH1 0xA0 SHL SUB SWAP10 DUP11 AND PUSH1 0x1 PUSH1 0x1 PUSH1 0xA0 SHL SUB NOT SWAP2 DUP3 AND OR SWAP1 SWAP2 SSTORE DUP8 DUP8 MSTORE SWAP1 SLOAD PUSH1 0x2 DUP1 DUP7 MSTORE DUP5 DUP9 KECCAK256 DUP12 MLOAD DUP12 AND DUP10 MSTORE DUP7 MSTORE DUP5 DUP9 KECCAK256 DUP1 SLOAD PUSH1 0x1 PUSH1 0x1 PUSH1 0x80 SHL SUB NOT AND SWAP3 SWAP1 SWAP5 AND SWAP2 SWAP1 SWAP2 OR SWAP1 SWAP3 SSTORE DUP9 MLOAD DUP9 AND DUP7 MSTORE PUSH1 0x3 DUP1 DUP6 MSTORE SWAP6 DUP4 SWAP1 KECCAK256 DUP12 MLOAD DUP2 SSTORE SWAP4 DUP12 ADD MLOAD SWAP5 DUP5 ADD SWAP5 SWAP1 SWAP5 SSTORE DUP2 DUP11 ADD MLOAD SWAP1 DUP4 ADD SSTORE PUSH1 0x60 DUP10 ADD MLOAD SWAP4 DUP3 ADD DUP1 SLOAD PUSH1 0xFF SWAP1 SWAP6 AND PUSH1 0xFF NOT SWAP1 SWAP6 AND SWAP5 SWAP1 SWAP5 OR SWAP1 SWAP4 SSTORE PUSH1 0x80 DUP9 ADD MLOAD PUSH1 0x4 DUP3 ADD SSTORE PUSH1 0xA0 DUP9 ADD MLOAD PUSH1 0x5 DUP3 ADD SSTORE SWAP5 MLOAD PUSH1 0x6 DUP7 ADD DUP1 SLOAD PUSH1 0xE0 DUP11 ADD MLOAD PUSH2 0x100 DUP12 ADD MLOAD PUSH2 0x120 DUP13 ADD MLOAD ISZERO ISZERO PUSH1 0x1 PUSH1 0xB0 SHL MUL PUSH1 0xFF PUSH1 0xB0 SHL NOT SWAP2 ISZERO ISZERO PUSH1 0x1 PUSH1 0xA8 SHL MUL SWAP2 SWAP1 SWAP2 AND PUSH2 0xFFFF PUSH1 0xA8 SHL NOT SWAP3 ISZERO ISZERO PUSH1 0x1 PUSH1 0xA0 SHL MUL PUSH1 0x1 PUSH1 0x1 PUSH1 0xA8 SHL SUB NOT SWAP1 SWAP5 AND SWAP6 DUP11 AND SWAP6 SWAP1 SWAP6 OR SWAP3 SWAP1 SWAP3 OR AND SWAP3 SWAP1 SWAP3 OR SWAP2 SWAP1 SWAP2 OR SWAP1 SSTORE PUSH2 0x140 DUP8 ADD MLOAD PUSH1 0x7 SWAP1 SWAP6 ADD DUP1 SLOAD SWAP6 SWAP1 SWAP5 AND SWAP5 AND SWAP4 SWAP1 SWAP4 OR SWAP1 SWAP2 SSTORE SWAP1 MLOAD PUSH32 0x724ED868AD6195EC663DE17364300EE1E1956F27F184CEB84F2BE30D1FD58D65 SWAP2 PUSH2 0x9B6 SWAP2 DUP6 SWAP1 PUSH2 0x2D9A JUMP JUMPDEST PUSH1 0x40 MLOAD DUP1 SWAP2 SUB SWAP1 LOG1 DUP1 MLOAD PUSH1 0x1 PUSH1 0x1 PUSH1 0xA0 SHL SUB SWAP1 DUP2 AND PUSH1 0x0 SWAP1 DUP2 MSTORE PUSH1 0x3 PUSH1 0x20 MSTORE PUSH1 0x40 SWAP1 KECCAK256 PUSH1 0x7 ADD SLOAD AND CALLER EQ PUSH2 0xA2C JUMPI PUSH1 0x40 MLOAD PUSH3 0x461BCD PUSH1 0xE5 SHL DUP2 MSTORE PUSH1 0x20 PUSH1 0x4 DUP3 ADD MSTORE PUSH1 0x1C PUSH1 0x24 DUP3 ADD MSTORE PUSH32 0x796F75206973206E6F7420746865207468696E67206372656174657200000000 PUSH1 0x44 DUP3 ADD MSTORE PUSH1 0x64 ADD PUSH2 0x73E JUMP JUMPDEST DUP1 MLOAD PUSH1 0x1 PUSH1 0x1 PUSH1 0xA0 SHL SUB SWAP1 DUP2 AND PUSH1 0x0 SWAP1 DUP2 MSTORE PUSH1 0x4 PUSH1 0x20 DUP2 DUP2 MSTORE PUSH1 0x40 SWAP3 DUP4 SWAP1 KECCAK256 DUP6 MLOAD DUP2 SLOAD PUSH1 0x1 PUSH1 0x1 PUSH1 0xA0 SHL SUB NOT AND SWAP6 AND SWAP5 DUP6 OR DUP2 SSTORE DUP2 DUP7 ADD MLOAD PUSH1 0x1 DUP3 ADD SSTORE DUP4 DUP7 ADD MLOAD PUSH1 0x2 DUP3 ADD SSTORE PUSH1 0x60 DUP7 ADD MLOAD PUSH1 0x3 DUP3 ADD SSTORE PUSH1 0x80 DUP7 ADD MLOAD SWAP3 DUP2 ADD SWAP3 SWAP1 SWAP3 SSTORE PUSH1 0xA0 DUP6 ADD MLOAD PUSH1 0x5 SWAP1 SWAP3 ADD SWAP2 SWAP1 SWAP2 SSTORE SWAP1 MLOAD SWAP2 DUP3 MSTORE PUSH32 0x28995A3CC31B8867E272BF05BB4F577DA5E81799E17CF729D123EDF7C2A7CA94 SWAP2 ADD JUMPDEST PUSH1 0x40 MLOAD DUP1 SWAP2 SUB SWAP1 LOG1 POP POP JUMP JUMPDEST PUSH1 0x6 PUSH1 0x0 SWAP1 SLOAD SWAP1 PUSH2 0x100 EXP SWAP1 DIV PUSH1 0x1 PUSH1 0x1 PUSH1 0xA0 SHL SUB AND PUSH1 0x1 PUSH1 0x1 PUSH1 0xA0 SHL SUB AND PUSH4 0xAD87D2BA PUSH1 0x40 MLOAD DUP2 PUSH4 0xFFFFFFFF AND PUSH1 0xE0 SHL DUP2 MSTORE PUSH1 0x4 ADD PUSH1 0x20 PUSH1 0x40 MLOAD DUP1 DUP4 SUB DUP2 DUP7 GAS STATICCALL ISZERO DUP1 ISZERO PUSH2 0xB1E JUMPI RETURNDATASIZE PUSH1 0x0 DUP1 RETURNDATACOPY RETURNDATASIZE PUSH1 0x0 REVERT JUMPDEST POP POP POP POP PUSH1 0x40 MLOAD RETURNDATASIZE PUSH1 0x1F NOT PUSH1 0x1F DUP3 ADD AND DUP3 ADD DUP1 PUSH1 0x40 MSTORE POP DUP2 ADD SWAP1 PUSH2 0xB42 SWAP2 SWAP1 PUSH2 0x2D48 JUMP JUMPDEST PUSH2 0xB4B JUMPI PUSH1 0x0 DUP1 REVERT JUMPDEST PUSH1 0x1 PUSH1 0x1 PUSH1 0xA0 SHL SUB DUP2 AND PUSH1 0x0 SWAP1 DUP2 MSTORE PUSH1 0x3 PUSH1 0x20 MSTORE PUSH1 0x40 SWAP1 KECCAK256 PUSH1 0x6 ADD DUP1 SLOAD PUSH1 0xFF PUSH1 0xB0 SHL NOT AND PUSH1 0x1 PUSH1 0xB0 SHL OR SWAP1 SSTORE PUSH1 0x6 SLOAD PUSH1 0x1 PUSH1 0x1 PUSH1 0xA0 SHL SUB SWAP1 DUP2 AND PUSH1 0x0 SWAP1 DUP2 MSTORE PUSH1 0x2 PUSH1 0x20 SWAP1 DUP2 MSTORE PUSH1 0x40 DUP1 DUP4 KECCAK256 SWAP4 DUP6 AND DUP4 MSTORE SWAP3 SWAP1 MSTORE KECCAK256 SLOAD PUSH1 0x1 PUSH1 0x1 PUSH1 0x80 SHL SUB AND PUSH2 0xBF5 JUMPI PUSH1 0x40 MLOAD PUSH3 0x461BCD PUSH1 0xE5 SHL DUP2 MSTORE PUSH1 0x20 PUSH1 0x4 DUP3 ADD MSTORE PUSH1 0x1D PUSH1 0x24 DUP3 ADD MSTORE PUSH32 0x74686520636F696E206973202065786973747320696E206D61726B6574000000 PUSH1 0x44 DUP3 ADD MSTORE PUSH1 0x64 ADD PUSH2 0x73E JUMP JUMPDEST PUSH1 0x6 SLOAD PUSH1 0x1 PUSH1 0x1 PUSH1 0xA0 SHL SUB AND PUSH1 0x0 SWAP1 DUP2 MSTORE PUSH1 0x20 DUP2 SWAP1 MSTORE PUSH1 0x40 SWAP1 KECCAK256 SLOAD PUSH1 0x1 PUSH1 0x1 PUSH1 0x80 SHL SUB AND PUSH1 0x1 DUP2 LT DUP1 ISZERO SWAP1 PUSH2 0xC46 JUMPI POP PUSH1 0x1 PUSH1 0x1 PUSH1 0x80 SHL SUB DUP2 AND PUSH2 0xC3A DUP3 PUSH1 0x1 PUSH2 0x2D65 JUMP JUMPDEST PUSH1 0x1 PUSH1 0x1 PUSH1 0x80 SHL SUB AND LT ISZERO JUMPDEST ISZERO PUSH2 0xC5D JUMPI PUSH2 0xC56 PUSH1 0x1 DUP3 PUSH2 0x2D65 JUMP JUMPDEST SWAP1 POP PUSH2 0xC61 JUMP JUMPDEST POP PUSH1 0x1 JUMPDEST PUSH1 0x6 DUP1 SLOAD PUSH1 0x1 PUSH1 0x1 PUSH1 0xA0 SHL SUB SWAP1 DUP2 AND PUSH1 0x0 SWAP1 DUP2 MSTORE PUSH1 0x20 DUP2 DUP2 MSTORE PUSH1 0x40 DUP1 DUP4 KECCAK256 DUP1 SLOAD PUSH1 0x1 PUSH1 0x1 PUSH1 0x80 SHL SUB NOT SWAP1 DUP2 AND PUSH1 0x1 PUSH1 0x1 PUSH1 0x80 SHL SUB DUP10 AND SWAP1 DUP2 OR SWAP1 SWAP3 SSTORE DUP7 SLOAD DUP7 AND DUP6 MSTORE PUSH1 0x1 DUP5 MSTORE DUP3 DUP6 KECCAK256 DUP3 DUP7 MSTORE DUP5 MSTORE DUP3 DUP6 KECCAK256 DUP1 SLOAD PUSH1 0x1 PUSH1 0x1 PUSH1 0xA0 SHL SUB NOT AND DUP11 DUP9 AND SWAP1 DUP2 OR SWAP1 SWAP2 SSTORE SWAP7 SLOAD SWAP1 SWAP6 AND DUP5 MSTORE PUSH1 0x2 DUP4 MSTORE DUP2 DUP5 KECCAK256 DUP7 DUP6 MSTORE DUP4 MSTORE SWAP3 DUP2 SWAP1 KECCAK256 DUP1 SLOAD SWAP1 SWAP5 AND SWAP1 SWAP3 OR SWAP1 SWAP3 SSTORE MLOAD SWAP2 DUP3 MSTORE PUSH32 0x787B8074A2DB1BF64DAC1E916753253472ACC7C1FFF144FAE6D14142860D890B SWAP2 ADD PUSH2 0xABF JUMP JUMPDEST PUSH1 0x6 PUSH1 0x0 SWAP1 SLOAD SWAP1 PUSH2 0x100 EXP SWAP1 DIV PUSH1 0x1 PUSH1 0x1 PUSH1 0xA0 SHL SUB AND PUSH1 0x1 PUSH1 0x1 PUSH1 0xA0 SHL SUB AND PUSH4 0xAD87D2BA PUSH1 0x40 MLOAD DUP2 PUSH4 0xFFFFFFFF AND PUSH1 0xE0 SHL DUP2 MSTORE PUSH1 0x4 ADD PUSH1 0x20 PUSH1 0x40 MLOAD DUP1 DUP4 SUB DUP2 DUP7 GAS STATICCALL ISZERO DUP1 ISZERO PUSH2 0xD68 JUMPI RETURNDATASIZE PUSH1 0x0 DUP1 RETURNDATACOPY RETURNDATASIZE PUSH1 0x0 REVERT JUMPDEST POP POP POP POP PUSH1 0x40 MLOAD RETURNDATASIZE PUSH1 0x1F NOT PUSH1 0x1F DUP3 ADD AND DUP3 ADD DUP1 PUSH1 0x40 MSTORE POP DUP2 ADD SWAP1 PUSH2 0xD8C SWAP2 SWAP1 PUSH2 0x2D48 JUMP JUMPDEST PUSH2 0xD95 JUMPI PUSH1 0x0 DUP1 REVERT JUMPDEST DUP1 MLOAD PUSH1 0x1 PUSH1 0x1 PUSH1 0xA0 SHL SUB SWAP1 DUP2 AND PUSH1 0x0 SWAP1 DUP2 MSTORE PUSH1 0x4 PUSH1 0x20 DUP2 DUP2 MSTORE PUSH1 0x40 SWAP3 DUP4 SWAP1 KECCAK256 DUP6 MLOAD DUP2 SLOAD PUSH1 0x1 PUSH1 0x1 PUSH1 0xA0 SHL SUB NOT AND SWAP6 AND SWAP5 DUP6 OR DUP2 SSTORE DUP2 DUP7 ADD MLOAD PUSH1 0x1 DUP3 ADD SSTORE DUP4 DUP7 ADD MLOAD PUSH1 0x2 DUP3 ADD SSTORE PUSH1 0x60 DUP7 ADD MLOAD PUSH1 0x3 DUP3 ADD SSTORE PUSH1 0x80 DUP7 ADD MLOAD SWAP3 DUP2 ADD SWAP3 SWAP1 SWAP3 SSTORE PUSH1 0xA0 DUP6 ADD MLOAD PUSH1 0x5 SWAP1 SWAP3 ADD SWAP2 SWAP1 SWAP2 SSTORE SWAP1 MLOAD SWAP2 DUP3 MSTORE PUSH32 0x28995A3CC31B8867E272BF05BB4F577DA5E81799E17CF729D123EDF7C2A7CA94 SWAP2 ADD JUMPDEST PUSH1 0x40 MLOAD DUP1 SWAP2 SUB SWAP1 LOG1 POP JUMP JUMPDEST PUSH1 0x6 PUSH1 0x0 SWAP1 SLOAD SWAP1 PUSH2 0x100 EXP SWAP1 DIV PUSH1 0x1 PUSH1 0x1 PUSH1 0xA0 SHL SUB AND PUSH1 0x1 PUSH1 0x1 PUSH1 0xA0 SHL SUB AND PUSH4 0xAD87D2BA PUSH1 0x40 MLOAD DUP2 PUSH4 0xFFFFFFFF AND PUSH1 0xE0 SHL DUP2 MSTORE PUSH1 0x4 ADD PUSH1 0x20 PUSH1 0x40 MLOAD DUP1 DUP4 SUB DUP2 DUP7 GAS STATICCALL ISZERO DUP1 ISZERO PUSH2 0xE86 JUMPI RETURNDATASIZE PUSH1 0x0 DUP1 RETURNDATACOPY RETURNDATASIZE PUSH1 0x0 REVERT JUMPDEST POP POP POP POP PUSH1 0x40 MLOAD RETURNDATASIZE PUSH1 0x1F NOT PUSH1 0x1F DUP3 ADD AND DUP3 ADD DUP1 PUSH1 0x40 MSTORE POP DUP2 ADD SWAP1 PUSH2 0xEAA SWAP2 SWAP1 PUSH2 0x2D48 JUMP JUMPDEST PUSH2 0xEB3 JUMPI PUSH1 0x0 DUP1 REVERT JUMPDEST PUSH1 0x1 PUSH1 0x1 PUSH1 0xA0 SHL SUB DUP2 AND PUSH1 0x0 DUP2 DUP2 MSTORE PUSH1 0x3 PUSH1 0x20 SWAP1 DUP2 MSTORE PUSH1 0x40 SWAP2 DUP3 SWAP1 KECCAK256 PUSH1 0x6 ADD DUP1 SLOAD PUSH1 0xFF PUSH1 0xA0 SHL NOT AND PUSH1 0x1 PUSH1 0xA0 SHL OR SWAP1 SSTORE SWAP1 MLOAD SWAP2 DUP3 MSTORE PUSH32 0xAC01100C10BE15FEC1A42F8249ABC04B81A28E731FEAB3E60A2A962F74EFF9D8 SWAP2 ADD PUSH2 0xE28 JUMP JUMPDEST PUSH1 0x5 PUSH1 0x0 SWAP1 SLOAD SWAP1 PUSH2 0x100 EXP SWAP1 DIV PUSH1 0x1 PUSH1 0x1 PUSH1 0xA0 SHL SUB AND PUSH1 0x1 PUSH1 0x1 PUSH1 0xA0 SHL SUB AND PUSH4 0x54A460F6 PUSH1 0x40 MLOAD DUP2 PUSH4 0xFFFFFFFF AND PUSH1 0xE0 SHL DUP2 MSTORE PUSH1 0x4 ADD PUSH1 0x20 PUSH1 0x40 MLOAD DUP1 DUP4 SUB DUP2 DUP7 GAS STATICCALL ISZERO DUP1 ISZERO PUSH2 0xF63 JUMPI RETURNDATASIZE PUSH1 0x0 DUP1 RETURNDATACOPY RETURNDATASIZE PUSH1 0x0 REVERT JUMPDEST POP POP POP POP PUSH1 0x40 MLOAD RETURNDATASIZE PUSH1 0x1F NOT PUSH1 0x1F DUP3 ADD AND DUP3 ADD DUP1 PUSH1 0x40 MSTORE POP DUP2 ADD SWAP1 PUSH2 0xF87 SWAP2 SWAP1 PUSH2 0x2D48 JUMP JUMPDEST PUSH2 0xF90 JUMPI PUSH1 0x0 DUP1 REVERT JUMPDEST PUSH1 0x1 PUSH1 0x1 PUSH1 0xA0 SHL SUB DUP2 DUP2 AND PUSH1 0x0 SWAP1 DUP2 MSTORE PUSH1 0x3 PUSH1 0x20 MSTORE PUSH1 0x40 SWAP1 KECCAK256 PUSH1 0x7 ADD SLOAD AND CALLER EQ PUSH2 0xFCC JUMPI PUSH1 0x40 MLOAD PUSH3 0x461BCD PUSH1 0xE5 SHL DUP2 MSTORE PUSH1 0x4 ADD PUSH2 0x73E SWAP1 PUSH2 0x2DE8 JUMP JUMPDEST PUSH1 0x1 PUSH1 0x1 PUSH1 0xA0 SHL SUB DUP2 AND PUSH1 0x0 DUP2 DUP2 MSTORE PUSH1 0x3 PUSH1 0x20 SWAP1 DUP2 MSTORE PUSH1 0x40 SWAP2 DUP3 SWAP1 KECCAK256 PUSH1 0x6 ADD DUP1 SLOAD PUSH1 0xFF PUSH1 0xA8 SHL NOT AND PUSH1 0x1 PUSH1 0xA8 SHL OR SWAP1 SSTORE DUP2 MLOAD CALLER DUP2 MSTORE SWAP1 DUP2 ADD SWAP3 SWAP1 SWAP3 MSTORE PUSH32 0x91F5DF1A13CCD890776A683FDCEF0B553CE7AC24FBE9609BB51AEB9FEFED82A4 SWAP2 ADD PUSH2 0xE28 JUMP JUMPDEST PUSH1 0x5 PUSH1 0x0 SWAP1 SLOAD SWAP1 PUSH2 0x100 EXP SWAP1 DIV PUSH1 0x1 PUSH1 0x1 PUSH1 0xA0 SHL SUB AND PUSH1 0x1 PUSH1 0x1 PUSH1 0xA0 SHL SUB AND PUSH4 0x54A460F6 PUSH1 0x40 MLOAD DUP2 PUSH4 0xFFFFFFFF AND PUSH1 0xE0 SHL DUP2 MSTORE PUSH1 0x4 ADD PUSH1 0x20 PUSH1 0x40 MLOAD DUP1 DUP4 SUB DUP2 DUP7 GAS STATICCALL ISZERO DUP1 ISZERO PUSH2 0x1083 JUMPI RETURNDATASIZE PUSH1 0x0 DUP1 RETURNDATACOPY RETURNDATASIZE PUSH1 0x0 REVERT JUMPDEST POP POP POP POP PUSH1 0x40 MLOAD RETURNDATASIZE PUSH1 0x1F NOT PUSH1 0x1F DUP3 ADD AND DUP3 ADD DUP1 PUSH1 0x40 MSTORE POP DUP2 ADD SWAP1 PUSH2 0x10A7 SWAP2 SWAP1 PUSH2 0x2D48 JUMP JUMPDEST PUSH2 0x10B0 JUMPI PUSH1 0x0 DUP1 REVERT JUMPDEST PUSH1 0x1 PUSH1 0x1 PUSH1 0xA0 SHL SUB DUP2 DUP2 AND PUSH1 0x0 SWAP1 DUP2 MSTORE PUSH1 0x3 PUSH1 0x20 MSTORE PUSH1 0x40 SWAP1 KECCAK256 PUSH1 0x7 ADD SLOAD AND CALLER EQ PUSH2 0x10EC JUMPI PUSH1 0x40 MLOAD PUSH3 0x461BCD PUSH1 0xE5 SHL DUP2 MSTORE PUSH1 0x4 ADD PUSH2 0x73E SWAP1 PUSH2 0x2DE8 JUMP JUMPDEST PUSH1 0x1 PUSH1 0x1 PUSH1 0xA0 SHL SUB DUP2 AND PUSH1 0x0 DUP2 DUP2 MSTORE PUSH1 0x3 PUSH1 0x20 SWAP1 DUP2 MSTORE PUSH1 0x40 SWAP2 DUP3 SWAP1 KECCAK256 PUSH1 0x6 ADD DUP1 SLOAD PUSH1 0xFF PUSH1 0xA8 SHL NOT AND SWAP1 SSTORE DUP2 MLOAD CALLER DUP2 MSTORE SWAP1 DUP2 ADD SWAP3 SWAP1 SWAP3 MSTORE PUSH32 0x4807C3DAA091FEBEA14280167243BD513929CE4FE91170EF6536AEBAD0EDE29B SWAP2 ADD PUSH2 0xE28 JUMP JUMPDEST PUSH2 0x1152 PUSH2 0x28BA JUMP JUMPDEST PUSH1 0x1 PUSH1 0x1 PUSH1 0xA0 SHL SUB DUP4 AND PUSH1 0x0 SWAP1 DUP2 MSTORE PUSH1 0x3 PUSH1 0x20 MSTORE PUSH1 0x40 SWAP1 KECCAK256 PUSH1 0x6 ADD SLOAD PUSH1 0x1 PUSH1 0xB0 SHL SWAP1 DIV PUSH1 0xFF AND ISZERO ISZERO PUSH1 0x1 EQ PUSH2 0x1199 JUMPI PUSH1 0x40 MLOAD PUSH3 0x461BCD PUSH1 0xE5 SHL DUP2 MSTORE PUSH1 0x4 ADD PUSH2 0x73E SWAP1 PUSH2 0x2DB8 JUMP JUMPDEST POP PUSH1 0x1 PUSH1 0x1 PUSH1 0xA0 SHL SUB DUP1 DUP4 AND PUSH1 0x0 SWAP1 DUP2 MSTORE PUSH1 0x1 PUSH1 0x20 DUP2 DUP2 MSTORE PUSH1 0x40 DUP1 DUP5 KECCAK256 PUSH1 0x1 PUSH1 0x1 PUSH1 0x80 SHL SUB DUP8 AND DUP6 MSTORE DUP3 MSTORE DUP1 DUP5 KECCAK256 SLOAD DUP6 AND DUP5 MSTORE PUSH1 0x3 DUP1 DUP4 MSTORE SWAP4 DUP2 SWAP1 KECCAK256 DUP2 MLOAD PUSH2 0x160 DUP2 ADD DUP4 MSTORE DUP2 SLOAD DUP2 MSTORE SWAP4 DUP2 ADD SLOAD SWAP3 DUP5 ADD SWAP3 SWAP1 SWAP3 MSTORE PUSH1 0x2 DUP3 ADD SLOAD SWAP1 DUP4 ADD MSTORE SWAP2 DUP3 ADD SLOAD PUSH1 0xFF SWAP1 DUP2 AND PUSH1 0x60 DUP4 ADD MSTORE PUSH1 0x4 DUP4 ADD SLOAD PUSH1 0x80 DUP4 ADD MSTORE PUSH1 0x5 DUP4 ADD SLOAD PUSH1 0xA0 DUP4 ADD MSTORE PUSH1 0x6 DUP4 ADD SLOAD DUP1 DUP6 AND PUSH1 0xC0 DUP5 ADD MSTORE PUSH1 0x1 PUSH1 0xA0 SHL DUP2 DIV DUP3 AND ISZERO ISZERO PUSH1 0xE0 DUP5 ADD MSTORE PUSH1 0x1 PUSH1 0xA8 SHL DUP2 DIV DUP3 AND ISZERO ISZERO PUSH2 0x100 DUP5 ADD MSTORE PUSH1 0x1 PUSH1 0xB0 SHL SWAP1 DIV AND ISZERO ISZERO PUSH2 0x120 DUP3 ADD MSTORE PUSH1 0x7 SWAP1 SWAP2 ADD SLOAD SWAP1 SWAP2 AND PUSH2 0x140 DUP3 ADD MSTORE JUMPDEST SWAP3 SWAP2 POP POP JUMP JUMPDEST PUSH1 0x5 PUSH1 0x0 SWAP1 SLOAD SWAP1 PUSH2 0x100 EXP SWAP1 DIV PUSH1 0x1 PUSH1 0x1 PUSH1 0xA0 SHL SUB AND PUSH1 0x1 PUSH1 0x1 PUSH1 0xA0 SHL SUB AND PUSH4 0x54A460F6 PUSH1 0x40 MLOAD DUP2 PUSH4 0xFFFFFFFF AND PUSH1 0xE0 SHL DUP2 MSTORE PUSH1 0x4 ADD PUSH1 0x20 PUSH1 0x40 MLOAD DUP1 DUP4 SUB DUP2 DUP7 GAS STATICCALL ISZERO DUP1 ISZERO PUSH2 0x12BF JUMPI RETURNDATASIZE PUSH1 0x0 DUP1 RETURNDATACOPY RETURNDATASIZE PUSH1 0x0 REVERT JUMPDEST POP POP POP POP PUSH1 0x40 MLOAD RETURNDATASIZE PUSH1 0x1F NOT PUSH1 0x1F DUP3 ADD AND DUP3 ADD DUP1 PUSH1 0x40 MSTORE POP DUP2 ADD SWAP1 PUSH2 0x12E3 SWAP2 SWAP1 PUSH2 0x2D48 JUMP JUMPDEST PUSH2 0x12EC JUMPI PUSH1 0x0 DUP1 REVERT JUMPDEST CALLER PUSH1 0x0 SWAP1 DUP2 MSTORE PUSH1 0x1 PUSH1 0x20 SWAP1 DUP2 MSTORE PUSH1 0x40 DUP1 DUP4 KECCAK256 PUSH1 0x1 PUSH1 0x1 PUSH1 0x80 SHL SUB DUP6 AND DUP5 MSTORE SWAP1 SWAP2 MSTORE SWAP1 KECCAK256 SLOAD PUSH1 0x1 PUSH1 0x1 PUSH1 0xA0 SHL SUB AND PUSH2 0x1335 JUMPI PUSH1 0x40 MLOAD PUSH3 0x461BCD PUSH1 0xE5 SHL DUP2 MSTORE PUSH1 0x4 ADD PUSH2 0x73E SWAP1 PUSH2 0x2DB8 JUMP JUMPDEST CALLER PUSH1 0x0 DUP2 DUP2 MSTORE PUSH1 0x2 PUSH1 0x20 SWAP1 DUP2 MSTORE PUSH1 0x40 DUP1 DUP4 KECCAK256 PUSH1 0x1 DUP4 MSTORE DUP2 DUP5 KECCAK256 PUSH1 0x1 PUSH1 0x1 PUSH1 0x80 SHL SUB DUP8 AND DUP1 DUP7 MSTORE DUP2 DUP6 MSTORE DUP4 DUP7 KECCAK256 DUP1 SLOAD PUSH1 0x1 PUSH1 0x1 PUSH1 0xA0 SHL SUB AND DUP8 MSTORE SWAP3 DUP6 MSTORE DUP4 DUP7 KECCAK256 DUP1 SLOAD PUSH1 0x1 PUSH1 0x1 PUSH1 0x80 SHL SUB NOT AND SWAP1 SSTORE SWAP5 DUP6 SWAP1 MSTORE DUP4 MSTORE DUP1 SLOAD PUSH1 0x1 PUSH1 0x1 PUSH1 0xA0 SHL SUB NOT AND SWAP1 SSTORE DUP1 MLOAD SWAP4 DUP5 MSTORE SWAP1 DUP4 ADD SWAP2 SWAP1 SWAP2 MSTORE PUSH32 0x4EDB2517E4D5299DD19C1CE662D404D108FFED8F91BC76838771EDAE5FAC7C43 SWAP2 ADD PUSH2 0xE28 JUMP JUMPDEST PUSH1 0x6 PUSH1 0x0 SWAP1 SLOAD SWAP1 PUSH2 0x100 EXP SWAP1 DIV PUSH1 0x1 PUSH1 0x1 PUSH1 0xA0 SHL SUB AND PUSH1 0x1 PUSH1 0x1 PUSH1 0xA0 SHL SUB AND PUSH4 0xAD87D2BA PUSH1 0x40 MLOAD DUP2 PUSH4 0xFFFFFFFF AND PUSH1 0xE0 SHL DUP2 MSTORE PUSH1 0x4 ADD PUSH1 0x20 PUSH1 0x40 MLOAD DUP1 DUP4 SUB DUP2 DUP7 GAS STATICCALL ISZERO DUP1 ISZERO PUSH2 0x141D JUMPI RETURNDATASIZE PUSH1 0x0 DUP1 RETURNDATACOPY RETURNDATASIZE PUSH1 0x0 REVERT JUMPDEST POP POP POP POP PUSH1 0x40 MLOAD RETURNDATASIZE PUSH1 0x1F NOT PUSH1 0x1F DUP3 ADD AND DUP3 ADD DUP1 PUSH1 0x40 MSTORE POP DUP2 ADD SWAP1 PUSH2 0x1441 SWAP2 SWAP1 PUSH2 0x2D48 JUMP JUMPDEST PUSH2 0x144A JUMPI PUSH1 0x0 DUP1 REVERT JUMPDEST PUSH1 0x6 DUP1 SLOAD PUSH1 0x1 PUSH1 0x1 PUSH1 0xA0 SHL SUB SWAP1 DUP2 AND PUSH1 0x0 SWAP1 DUP2 MSTORE PUSH1 0x2 PUSH1 0x20 DUP2 DUP2 MSTORE PUSH1 0x40 DUP1 DUP5 KECCAK256 PUSH1 0xC0 DUP9 ADD DUP1 MLOAD DUP8 AND DUP7 MSTORE SWAP1 DUP4 MSTORE PUSH1 0x1 PUSH1 0xE0 DUP10 ADD DUP2 DUP2 MSTORE PUSH2 0x100 DUP11 ADD DUP8 DUP2 MSTORE PUSH2 0x120 DUP12 ADD DUP4 DUP2 MSTORE DUP5 MLOAD DUP11 AND DUP10 MSTORE PUSH1 0x3 DUP1 DUP9 MSTORE DUP7 DUP11 KECCAK256 PUSH1 0x7 SWAP1 DUP2 ADD SLOAD DUP13 AND PUSH2 0x140 DUP16 ADD SWAP1 DUP2 MSTORE DUP8 MLOAD DUP14 AND DUP13 MSTORE DUP3 DUP11 MSTORE SWAP11 DUP9 SWAP1 KECCAK256 DUP15 MLOAD DUP2 SSTORE SWAP9 DUP15 ADD MLOAD SWAP6 DUP10 ADD SWAP6 SWAP1 SWAP6 SSTORE DUP13 DUP8 ADD MLOAD SWAP9 DUP9 ADD SWAP9 SWAP1 SWAP9 SSTORE PUSH1 0x60 DUP13 ADD MLOAD SWAP8 DUP8 ADD DUP1 SLOAD PUSH1 0xFF NOT AND PUSH1 0xFF SWAP1 SWAP10 AND SWAP9 SWAP1 SWAP9 OR SWAP1 SWAP8 SSTORE PUSH1 0x80 DUP12 ADD MLOAD PUSH1 0x4 DUP8 ADD SSTORE PUSH1 0xA0 DUP12 ADD MLOAD PUSH1 0x5 DUP8 ADD SSTORE SWAP3 MLOAD SWAP9 DUP6 ADD DUP1 SLOAD SWAP2 MLOAD SWAP4 MLOAD SWAP7 MLOAD SWAP10 DUP10 AND PUSH1 0x1 PUSH1 0x1 PUSH1 0xA8 SHL SUB NOT SWAP1 SWAP3 AND SWAP2 SWAP1 SWAP2 OR PUSH1 0x1 PUSH1 0xA0 SHL SWAP4 ISZERO ISZERO SWAP4 SWAP1 SWAP4 MUL SWAP3 SWAP1 SWAP3 OR PUSH2 0xFFFF PUSH1 0xA8 SHL NOT AND PUSH1 0x1 PUSH1 0xA8 SHL SWAP6 ISZERO ISZERO SWAP6 SWAP1 SWAP6 MUL PUSH1 0xFF PUSH1 0xB0 SHL NOT AND SWAP5 SWAP1 SWAP5 OR PUSH1 0x1 PUSH1 0xB0 SHL SWAP8 ISZERO ISZERO SWAP8 SWAP1 SWAP8 MUL SWAP7 SWAP1 SWAP7 OR SWAP1 SWAP6 SSTORE SWAP2 MLOAD SWAP2 ADD DUP1 SLOAD PUSH1 0x1 PUSH1 0x1 PUSH1 0xA0 SHL SUB NOT AND SWAP2 SWAP1 SWAP3 AND OR SWAP1 SSTORE MLOAD PUSH32 0x7EF1A4C6CD6954CC6F68AC195814A83775046E46054EB12BF4B6619BA234F58B SWAP1 PUSH2 0xE28 SWAP1 DUP4 SWAP1 PUSH2 0x2C5B JUMP JUMPDEST PUSH1 0x6 PUSH1 0x0 SWAP1 SLOAD SWAP1 PUSH2 0x100 EXP SWAP1 DIV PUSH1 0x1 PUSH1 0x1 PUSH1 0xA0 SHL SUB AND PUSH1 0x1 PUSH1 0x1 PUSH1 0xA0 SHL SUB AND PUSH4 0xAD87D2BA PUSH1 0x40 MLOAD DUP2 PUSH4 0xFFFFFFFF AND PUSH1 0xE0 SHL DUP2 MSTORE PUSH1 0x4 ADD PUSH1 0x20 PUSH1 0x40 MLOAD DUP1 DUP4 SUB DUP2 DUP7 GAS STATICCALL ISZERO DUP1 ISZERO PUSH2 0x15FD JUMPI RETURNDATASIZE PUSH1 0x0 DUP1 RETURNDATACOPY RETURNDATASIZE PUSH1 0x0 REVERT JUMPDEST POP POP POP POP PUSH1 0x40 MLOAD RETURNDATASIZE PUSH1 0x1F NOT PUSH1 0x1F DUP3 ADD AND DUP3 ADD DUP1 PUSH1 0x40 MSTORE POP DUP2 ADD SWAP1 PUSH2 0x1621 SWAP2 SWAP1 PUSH2 0x2D48 JUMP JUMPDEST PUSH2 0x162A JUMPI PUSH1 0x0 DUP1 REVERT JUMPDEST PUSH1 0x6 SLOAD PUSH1 0x1 PUSH1 0x1 PUSH1 0xA0 SHL SUB SWAP1 DUP2 AND PUSH1 0x0 SWAP1 DUP2 MSTORE PUSH1 0x2 PUSH1 0x20 SWAP1 DUP2 MSTORE PUSH1 0x40 DUP1 DUP4 KECCAK256 SWAP4 DUP6 AND DUP4 MSTORE SWAP3 SWAP1 MSTORE KECCAK256 SLOAD PUSH1 0x1 PUSH1 0x1 PUSH1 0x1 PUSH1 0x80 SHL SUB SWAP1 SWAP2 AND LT ISZERO PUSH2 0x167E JUMPI PUSH1 0x40 MLOAD PUSH3 0x461BCD PUSH1 0xE5 SHL DUP2 MSTORE PUSH1 0x4 ADD PUSH2 0x73E SWAP1 PUSH2 0x2DB8 JUMP JUMPDEST PUSH1 0x6 DUP1 SLOAD PUSH1 0x1 PUSH1 0x1 PUSH1 0xA0 SHL SUB SWAP1 DUP2 AND PUSH1 0x0 SWAP1 DUP2 MSTORE PUSH1 0x1 PUSH1 0x20 SWAP1 DUP2 MSTORE PUSH1 0x40 DUP1 DUP4 KECCAK256 PUSH1 0x2 DUP1 DUP5 MSTORE DUP3 DUP6 KECCAK256 DUP9 DUP8 AND DUP1 DUP8 MSTORE SWAP1 DUP6 MSTORE DUP4 DUP7 KECCAK256 SLOAD PUSH1 0x1 PUSH1 0x1 PUSH1 0x80 SHL SUB AND DUP7 MSTORE SWAP2 DUP5 MSTORE DUP3 DUP6 KECCAK256 DUP1 SLOAD PUSH1 0x1 PUSH1 0x1 PUSH1 0xA0 SHL SUB NOT AND SWAP1 SSTORE SWAP6 SLOAD SWAP1 SWAP5 AND DUP4 MSTORE SWAP4 DUP2 MSTORE DUP4 DUP3 KECCAK256 DUP4 DUP4 MSTORE DUP2 MSTORE SWAP1 DUP4 SWAP1 KECCAK256 DUP1 SLOAD PUSH1 0x1 PUSH1 0x1 PUSH1 0x80 SHL SUB NOT AND SWAP1 SSTORE SWAP2 MLOAD SWAP1 DUP2 MSTORE PUSH32 0x95FB8F03172737716DB3E279A3CAFDB96C41B3FF1CA3CEDC215A7770838C1C5B SWAP2 ADD PUSH2 0xE28 JUMP JUMPDEST PUSH1 0x5 PUSH1 0x0 SWAP1 SLOAD SWAP1 PUSH2 0x100 EXP SWAP1 DIV PUSH1 0x1 PUSH1 0x1 PUSH1 0xA0 SHL SUB AND PUSH1 0x1 PUSH1 0x1 PUSH1 0xA0 SHL SUB AND PUSH4 0x54A460F6 PUSH1 0x40 MLOAD DUP2 PUSH4 0xFFFFFFFF AND PUSH1 0xE0 SHL DUP2 MSTORE PUSH1 0x4 ADD PUSH1 0x20 PUSH1 0x40 MLOAD DUP1 DUP4 SUB DUP2 DUP7 GAS STATICCALL ISZERO DUP1 ISZERO PUSH2 0x1776 JUMPI RETURNDATASIZE PUSH1 0x0 DUP1 RETURNDATACOPY RETURNDATASIZE PUSH1 0x0 REVERT JUMPDEST POP POP POP POP PUSH1 0x40 MLOAD RETURNDATASIZE PUSH1 0x1F NOT PUSH1 0x1F DUP3 ADD AND DUP3 ADD DUP1 PUSH1 0x40 MSTORE POP DUP2 ADD SWAP1 PUSH2 0x179A SWAP2 SWAP1 PUSH2 0x2D48 JUMP JUMPDEST PUSH2 0x17A3 JUMPI PUSH1 0x0 DUP1 REVERT JUMPDEST CALLER PUSH1 0x0 SWAP1 DUP2 MSTORE PUSH1 0x2 PUSH1 0x20 SWAP1 DUP2 MSTORE PUSH1 0x40 DUP1 DUP4 KECCAK256 PUSH1 0x1 PUSH1 0x1 PUSH1 0xA0 SHL SUB DUP6 AND DUP5 MSTORE SWAP1 SWAP2 MSTORE SWAP1 KECCAK256 SLOAD PUSH1 0x1 PUSH1 0x1 PUSH1 0x1 PUSH1 0x80 SHL SUB SWAP1 SWAP2 AND LT ISZERO PUSH2 0x17F2 JUMPI PUSH1 0x40 MLOAD PUSH3 0x461BCD PUSH1 0xE5 SHL DUP2 MSTORE PUSH1 0x4 ADD PUSH2 0x73E SWAP1 PUSH2 0x2DB8 JUMP JUMPDEST CALLER PUSH1 0x0 DUP2 DUP2 MSTORE PUSH1 0x1 PUSH1 0x20 SWAP1 DUP2 MSTORE PUSH1 0x40 DUP1 DUP4 KECCAK256 PUSH1 0x2 DUP4 MSTORE DUP2 DUP5 KECCAK256 PUSH1 0x1 PUSH1 0x1 PUSH1 0xA0 SHL SUB DUP8 AND DUP1 DUP7 MSTORE DUP2 DUP6 MSTORE DUP4 DUP7 KECCAK256 DUP1 SLOAD PUSH1 0x1 PUSH1 0x1 PUSH1 0x80 SHL SUB AND DUP8 MSTORE SWAP3 DUP6 MSTORE DUP4 DUP7 KECCAK256 DUP1 SLOAD PUSH1 0x1 PUSH1 0x1 PUSH1 0xA0 SHL SUB NOT AND SWAP1 SSTORE SWAP5 DUP6 SWAP1 MSTORE DUP4 MSTORE DUP1 SLOAD PUSH1 0x1 PUSH1 0x1 PUSH1 0x80 SHL SUB NOT AND SWAP1 SSTORE DUP1 MLOAD SWAP4 DUP5 MSTORE SWAP1 DUP4 ADD SWAP2 SWAP1 SWAP2 MSTORE PUSH32 0xAD5EEAA2EE1BEF6674ECEA21B9329A0A9333380EAF145A4B888951038C8AA40C SWAP2 ADD PUSH2 0xE28 JUMP JUMPDEST PUSH1 0x6 PUSH1 0x0 SWAP1 SLOAD SWAP1 PUSH2 0x100 EXP SWAP1 DIV PUSH1 0x1 PUSH1 0x1 PUSH1 0xA0 SHL SUB AND PUSH1 0x1 PUSH1 0x1 PUSH1 0xA0 SHL SUB AND PUSH4 0xAD87D2BA PUSH1 0x40 MLOAD DUP2 PUSH4 0xFFFFFFFF AND PUSH1 0xE0 SHL DUP2 MSTORE PUSH1 0x4 ADD PUSH1 0x20 PUSH1 0x40 MLOAD DUP1 DUP4 SUB DUP2 DUP7 GAS STATICCALL ISZERO DUP1 ISZERO PUSH2 0x18DA JUMPI RETURNDATASIZE PUSH1 0x0 DUP1 RETURNDATACOPY RETURNDATASIZE PUSH1 0x0 REVERT JUMPDEST POP POP POP POP PUSH1 0x40 MLOAD RETURNDATASIZE PUSH1 0x1F NOT PUSH1 0x1F DUP3 ADD AND DUP3 ADD DUP1 PUSH1 0x40 MSTORE POP DUP2 ADD SWAP1 PUSH2 0x18FE SWAP2 SWAP1 PUSH2 0x2D48 JUMP JUMPDEST PUSH2 0x1907 JUMPI PUSH1 0x0 DUP1 REVERT JUMPDEST PUSH1 0xC0 DUP2 ADD MLOAD PUSH1 0x1 PUSH1 0x1 PUSH1 0xA0 SHL SUB AND PUSH1 0x0 SWAP1 DUP2 MSTORE PUSH1 0x3 PUSH1 0x20 MSTORE PUSH1 0x40 SWAP1 KECCAK256 PUSH1 0x6 ADD SLOAD PUSH1 0x1 PUSH1 0xB0 SHL SWAP1 DIV PUSH1 0xFF AND ISZERO ISZERO PUSH1 0x1 SUB PUSH2 0x1973 JUMPI PUSH1 0x40 MLOAD PUSH3 0x461BCD PUSH1 0xE5 SHL DUP2 MSTORE PUSH1 0x20 PUSH1 0x4 DUP3 ADD MSTORE PUSH1 0xE PUSH1 0x24 DUP3 ADD MSTORE PUSH14 0x1D1A194818DBDA5B88195E1A5CDD PUSH1 0x92 SHL PUSH1 0x44 DUP3 ADD MSTORE PUSH1 0x64 ADD PUSH2 0x73E JUMP JUMPDEST CALLER PUSH2 0x140 DUP3 ADD MSTORE PUSH1 0x0 PUSH1 0xE0 DUP3 ADD DUP2 SWAP1 MSTORE PUSH1 0x1 PUSH2 0x100 DUP4 ADD DUP2 SWAP1 MSTORE PUSH2 0x120 DUP4 ADD DUP2 SWAP1 MSTORE PUSH1 0x6 SLOAD PUSH1 0x1 PUSH1 0x1 PUSH1 0xA0 SHL SUB AND DUP3 MSTORE PUSH1 0x20 DUP3 SWAP1 MSTORE PUSH1 0x40 SWAP1 SWAP2 KECCAK256 SLOAD PUSH1 0x1 PUSH1 0x1 PUSH1 0x80 SHL SUB AND SWAP1 DUP2 LT DUP1 ISZERO SWAP1 PUSH2 0x19E3 JUMPI POP PUSH1 0x1 PUSH1 0x1 PUSH1 0x80 SHL SUB DUP2 AND PUSH2 0x19D7 DUP3 PUSH1 0x1 PUSH2 0x2D65 JUMP JUMPDEST PUSH1 0x1 PUSH1 0x1 PUSH1 0x80 SHL SUB AND LT ISZERO JUMPDEST ISZERO PUSH2 0x19FA JUMPI PUSH2 0x19F3 PUSH1 0x1 DUP3 PUSH2 0x2D65 JUMP JUMPDEST SWAP1 POP PUSH2 0x19FE JUMP JUMPDEST POP PUSH1 0x1 JUMPDEST PUSH1 0x6 DUP1 SLOAD PUSH1 0x1 PUSH1 0x1 PUSH1 0xA0 SHL SUB SWAP1 DUP2 AND PUSH1 0x0 SWAP1 DUP2 MSTORE PUSH1 0x20 DUP2 DUP2 MSTORE PUSH1 0x40 DUP1 DUP4 KECCAK256 DUP1 SLOAD PUSH1 0x1 PUSH1 0x1 PUSH1 0x80 SHL SUB DUP9 AND PUSH1 0x1 PUSH1 0x1 PUSH1 0x80 SHL SUB NOT SWAP2 DUP3 AND DUP2 OR SWAP1 SWAP3 SSTORE PUSH1 0xC0 DUP10 ADD DUP1 MLOAD DUP9 SLOAD DUP9 AND DUP8 MSTORE PUSH1 0x1 DUP1 DUP8 MSTORE DUP6 DUP9 KECCAK256 DUP6 DUP10 MSTORE DUP8 MSTORE DUP6 DUP9 KECCAK256 DUP1 SLOAD SWAP3 DUP11 AND PUSH1 0x1 PUSH1 0x1 PUSH1 0xA0 SHL SUB NOT SWAP4 DUP5 AND OR SWAP1 SSTORE DUP10 SLOAD DUP10 AND DUP9 MSTORE PUSH1 0x2 DUP1 DUP9 MSTORE DUP7 DUP10 KECCAK256 DUP5 MLOAD DUP12 AND DUP11 MSTORE DUP9 MSTORE DUP7 DUP10 KECCAK256 DUP1 SLOAD SWAP1 SWAP6 AND SWAP1 SWAP6 OR SWAP1 SWAP4 SSTORE DUP2 MLOAD DUP9 AND DUP8 MSTORE PUSH1 0x3 DUP1 DUP8 MSTORE SWAP7 DUP6 SWAP1 KECCAK256 DUP12 MLOAD DUP2 SSTORE SWAP6 DUP12 ADD MLOAD SWAP3 DUP7 ADD SWAP3 SWAP1 SWAP3 SSTORE DUP10 DUP5 ADD MLOAD SWAP3 DUP6 ADD SWAP3 SWAP1 SWAP3 SSTORE PUSH1 0x60 DUP10 ADD MLOAD SWAP5 DUP5 ADD DUP1 SLOAD PUSH1 0xFF SWAP1 SWAP7 AND PUSH1 0xFF NOT SWAP1 SWAP7 AND SWAP6 SWAP1 SWAP6 OR SWAP1 SWAP5 SSTORE PUSH1 0x80 DUP9 ADD MLOAD PUSH1 0x4 DUP5 ADD SSTORE PUSH1 0xA0 DUP9 ADD MLOAD PUSH1 0x5 DUP5 ADD SSTORE MLOAD SWAP5 DUP3 ADD DUP1 SLOAD PUSH1 0xE0 DUP10 ADD MLOAD PUSH2 0x100 DUP11 ADD MLOAD PUSH2 0x120 DUP12 ADD MLOAD ISZERO ISZERO PUSH1 0x1 PUSH1 0xB0 SHL MUL PUSH1 0xFF PUSH1 0xB0 SHL NOT SWAP2 ISZERO ISZERO PUSH1 0x1 PUSH1 0xA8 SHL MUL SWAP2 SWAP1 SWAP2 AND PUSH2 0xFFFF PUSH1 0xA8 SHL NOT SWAP3 ISZERO ISZERO PUSH1 0x1 PUSH1 0xA0 SHL MUL PUSH1 0x1 PUSH1 0x1 PUSH1 0xA8 SHL SUB NOT SWAP1 SWAP5 AND SWAP10 DUP10 AND SWAP10 SWAP1 SWAP10 OR SWAP3 SWAP1 SWAP3 OR AND SWAP7 SWAP1 SWAP7 OR SWAP6 SWAP1 SWAP6 OR SWAP1 SWAP5 SSTORE PUSH2 0x140 DUP7 ADD MLOAD PUSH1 0x7 SWAP1 SWAP2 ADD DUP1 SLOAD SWAP2 SWAP1 SWAP4 AND SWAP2 AND OR SWAP1 SSTORE MLOAD PUSH32 0x3FDEABF9CF0F252033E117E3BF501C16A9E905759535453A989A37BBB55557CB SWAP1 PUSH2 0xABF SWAP1 DUP5 SWAP1 PUSH2 0x2C5B JUMP JUMPDEST PUSH1 0x6 PUSH1 0x0 SWAP1 SLOAD SWAP1 PUSH2 0x100 EXP SWAP1 DIV PUSH1 0x1 PUSH1 0x1 PUSH1 0xA0 SHL SUB AND PUSH1 0x1 PUSH1 0x1 PUSH1 0xA0 SHL SUB AND PUSH4 0xAD87D2BA PUSH1 0x40 MLOAD DUP2 PUSH4 0xFFFFFFFF AND PUSH1 0xE0 SHL DUP2 MSTORE PUSH1 0x4 ADD PUSH1 0x20 PUSH1 0x40 MLOAD DUP1 DUP4 SUB DUP2 DUP7 GAS STATICCALL ISZERO DUP1 ISZERO PUSH2 0x1BE2 JUMPI RETURNDATASIZE PUSH1 0x0 DUP1 RETURNDATACOPY RETURNDATASIZE PUSH1 0x0 REVERT JUMPDEST POP POP POP POP PUSH1 0x40 MLOAD RETURNDATASIZE PUSH1 0x1F NOT PUSH1 0x1F DUP3 ADD AND DUP3 ADD DUP1 PUSH1 0x40 MSTORE POP DUP2 ADD SWAP1 PUSH2 0x1C06 SWAP2 SWAP1 PUSH2 0x2D48 JUMP JUMPDEST PUSH2 0x1C0F JUMPI PUSH1 0x0 DUP1 REVERT JUMPDEST PUSH1 0x1 PUSH1 0x1 PUSH1 0xA0 SHL SUB DUP2 AND PUSH1 0x0 DUP2 DUP2 MSTORE PUSH1 0x3 PUSH1 0x20 SWAP1 DUP2 MSTORE PUSH1 0x40 SWAP2 DUP3 SWAP1 KECCAK256 PUSH1 0x6 ADD DUP1 SLOAD PUSH1 0xFF PUSH1 0xA0 SHL NOT AND SWAP1 SSTORE SWAP1 MLOAD SWAP2 DUP3 MSTORE PUSH32 0x1D4523355C952F926D43EB41085D74F46339403039EC5258081EFA96EA26EDD7 SWAP2 ADD PUSH2 0xE28 JUMP JUMPDEST PUSH1 0x7 SLOAD PUSH1 0x1 PUSH1 0x1 PUSH1 0xA0 SHL SUB AND CALLER EQ PUSH2 0x1CC0 JUMPI PUSH1 0x40 MLOAD PUSH3 0x461BCD PUSH1 0xE5 SHL DUP2 MSTORE PUSH1 0x20 PUSH1 0x4 DUP3 ADD MSTORE PUSH1 0x19 PUSH1 0x24 DUP3 ADD MSTORE PUSH32 0x796F7520617265206E6F74206D61726B65746372656174657200000000000000 PUSH1 0x44 DUP3 ADD MSTORE PUSH1 0x64 ADD PUSH2 0x73E JUMP JUMPDEST PUSH1 0x6 DUP1 SLOAD PUSH1 0x1 PUSH1 0x1 PUSH1 0xA0 SHL SUB SWAP5 DUP6 AND PUSH1 0x1 PUSH1 0x1 PUSH1 0xA0 SHL SUB NOT SWAP2 DUP3 AND OR SWAP1 SWAP2 SSTORE PUSH1 0x5 DUP1 SLOAD SWAP4 DUP6 AND SWAP4 DUP3 AND SWAP4 SWAP1 SWAP4 OR SWAP1 SWAP3 SSTORE PUSH1 0x7 DUP1 SLOAD SWAP2 SWAP1 SWAP4 AND SWAP2 AND OR SWAP1 SSTORE JUMP JUMPDEST PUSH1 0x5 PUSH1 0x0 SWAP1 SLOAD SWAP1 PUSH2 0x100 EXP SWAP1 DIV PUSH1 0x1 PUSH1 0x1 PUSH1 0xA0 SHL SUB AND PUSH1 0x1 PUSH1 0x1 PUSH1 0xA0 SHL SUB AND PUSH4 0x54A460F6 PUSH1 0x40 MLOAD DUP2 PUSH4 0xFFFFFFFF AND PUSH1 0xE0 SHL DUP2 MSTORE PUSH1 0x4 ADD PUSH1 0x20 PUSH1 0x40 MLOAD DUP1 DUP4 SUB DUP2 DUP7 GAS STATICCALL ISZERO DUP1 ISZERO PUSH2 0x1D52 JUMPI RETURNDATASIZE PUSH1 0x0 DUP1 RETURNDATACOPY RETURNDATASIZE PUSH1 0x0 REVERT JUMPDEST POP POP POP POP PUSH1 0x40 MLOAD RETURNDATASIZE PUSH1 0x1F NOT PUSH1 0x1F DUP3 ADD AND DUP3 ADD DUP1 PUSH1 0x40 MSTORE POP DUP2 ADD SWAP1 PUSH2 0x1D76 SWAP2 SWAP1 PUSH2 0x2D48 JUMP JUMPDEST PUSH2 0x1D7F JUMPI PUSH1 0x0 DUP1 REVERT JUMPDEST PUSH1 0x1 PUSH1 0x1 PUSH1 0xA0 SHL SUB DUP2 DUP2 AND PUSH1 0x0 SWAP1 DUP2 MSTORE PUSH1 0x3 PUSH1 0x20 MSTORE PUSH1 0x40 SWAP1 KECCAK256 PUSH1 0x7 ADD SLOAD AND CALLER EQ PUSH2 0x1DBB JUMPI PUSH1 0x40 MLOAD PUSH3 0x461BCD PUSH1 0xE5 SHL DUP2 MSTORE PUSH1 0x4 ADD PUSH2 0x73E SWAP1 PUSH2 0x2DE8 JUMP JUMPDEST PUSH1 0x1 PUSH1 0x1 PUSH1 0xA0 SHL SUB DUP2 AND PUSH1 0x0 SWAP1 DUP2 MSTORE PUSH1 0x3 PUSH1 0x20 DUP2 SWAP1 MSTORE PUSH1 0x40 SWAP2 DUP3 SWAP1 KECCAK256 DUP10 DUP2 SSTORE PUSH1 0x1 DUP2 ADD DUP10 SWAP1 SSTORE PUSH1 0x2 DUP2 ADD DUP9 SWAP1 SSTORE SWAP1 DUP2 ADD DUP1 SLOAD PUSH1 0xFF NOT AND PUSH1 0xFF DUP9 AND OR SWAP1 SSTORE PUSH1 0x4 DUP2 ADD DUP6 SWAP1 SSTORE PUSH1 0x5 DUP2 ADD DUP5 SWAP1 SSTORE SWAP1 MLOAD PUSH32 0xE2CF3D7794282BE7DD508F8C88CA5394F0ABE2B9F09B848306B1EADD0BECDF94 SWAP2 PUSH2 0x1E36 SWAP2 CALLER SWAP2 SWAP1 PUSH2 0x2E18 JUMP JUMPDEST PUSH1 0x40 MLOAD DUP1 SWAP2 SUB SWAP1 LOG1 POP POP POP POP POP POP POP JUMP JUMPDEST PUSH1 0x5 PUSH1 0x0 SWAP1 SLOAD SWAP1 PUSH2 0x100 EXP SWAP1 DIV PUSH1 0x1 PUSH1 0x1 PUSH1 0xA0 SHL SUB AND PUSH1 0x1 PUSH1 0x1 PUSH1 0xA0 SHL SUB AND PUSH4 0x54A460F6 PUSH1 0x40 MLOAD DUP2 PUSH4 0xFFFFFFFF AND PUSH1 0xE0 SHL DUP2 MSTORE PUSH1 0x4 ADD PUSH1 0x20 PUSH1 0x40 MLOAD DUP1 DUP4 SUB DUP2 DUP7 GAS STATICCALL ISZERO DUP1 ISZERO PUSH2 0x1E9A JUMPI RETURNDATASIZE PUSH1 0x0 DUP1 RETURNDATACOPY RETURNDATASIZE PUSH1 0x0 REVERT JUMPDEST POP POP POP POP PUSH1 0x40 MLOAD RETURNDATASIZE PUSH1 0x1F NOT PUSH1 0x1F DUP3 ADD AND DUP3 ADD DUP1 PUSH1 0x40 MSTORE POP DUP2 ADD SWAP1 PUSH2 0x1EBE SWAP2 SWAP1 PUSH2 0x2D48 JUMP JUMPDEST PUSH2 0x1EC7 JUMPI PUSH1 0x0 DUP1 REVERT JUMPDEST DUP1 MLOAD PUSH1 0x1 PUSH1 0x1 PUSH1 0xA0 SHL SUB SWAP1 DUP2 AND PUSH1 0x0 SWAP1 DUP2 MSTORE PUSH1 0x3 PUSH1 0x20 MSTORE PUSH1 0x40 SWAP1 KECCAK256 PUSH1 0x7 ADD SLOAD AND CALLER EQ PUSH2 0xD95 JUMPI PUSH1 0x40 MLOAD PUSH3 0x461BCD PUSH1 0xE5 SHL DUP2 MSTORE PUSH1 0x20 PUSH1 0x4 DUP3 ADD MSTORE PUSH1 0x1C PUSH1 0x24 DUP3 ADD MSTORE PUSH32 0x796F75206973206E6F7420746865207468696E67206372656174657200000000 PUSH1 0x44 DUP3 ADD MSTORE PUSH1 0x64 ADD PUSH2 0x73E JUMP JUMPDEST PUSH1 0x5 PUSH1 0x0 SWAP1 SLOAD SWAP1 PUSH2 0x100 EXP SWAP1 DIV PUSH1 0x1 PUSH1 0x1 PUSH1 0xA0 SHL SUB AND PUSH1 0x1 PUSH1 0x1 PUSH1 0xA0 SHL SUB AND PUSH4 0x54A460F6 PUSH1 0x40 MLOAD DUP2 PUSH4 0xFFFFFFFF AND PUSH1 0xE0 SHL DUP2 MSTORE PUSH1 0x4 ADD PUSH1 0x20 PUSH1 0x40 MLOAD DUP1 DUP4 SUB DUP2 DUP7 GAS STATICCALL ISZERO DUP1 ISZERO PUSH2 0x1F88 JUMPI RETURNDATASIZE PUSH1 0x0 DUP1 RETURNDATACOPY RETURNDATASIZE PUSH1 0x0 REVERT JUMPDEST POP POP POP POP PUSH1 0x40 MLOAD RETURNDATASIZE PUSH1 0x1F NOT PUSH1 0x1F DUP3 ADD AND DUP3 ADD DUP1 PUSH1 0x40 MSTORE POP DUP2 ADD SWAP1 PUSH2 0x1FAC SWAP2 SWAP1 PUSH2 0x2D48 JUMP JUMPDEST PUSH2 0x1FB5 JUMPI PUSH1 0x0 DUP1 REVERT JUMPDEST PUSH1 0xC0 DUP2 ADD MLOAD PUSH1 0x1 PUSH1 0x1 PUSH1 0xA0 SHL SUB AND PUSH1 0x0 SWAP1 DUP2 MSTORE PUSH1 0x3 PUSH1 0x20 MSTORE PUSH1 0x40 SWAP1 KECCAK256 PUSH1 0x6 ADD SLOAD PUSH1 0x1 PUSH1 0xB0 SHL SWAP1 DIV PUSH1 0xFF AND ISZERO ISZERO PUSH1 0x1 SUB PUSH2 0x2025 JUMPI PUSH1 0x40 MLOAD PUSH3 0x461BCD PUSH1 0xE5 SHL DUP2 MSTORE PUSH1 0x20 PUSH1 0x4 DUP3 ADD MSTORE PUSH1 0x12 PUSH1 0x24 DUP3 ADD MSTORE PUSH18 0x1D1A194818DBDA5B881A5CC808195E1A5CDD PUSH1 0x72 SHL PUSH1 0x44 DUP3 ADD MSTORE PUSH1 0x64 ADD PUSH2 0x73E JUMP JUMPDEST CALLER PUSH2 0x140 DUP3 ADD DUP2 SWAP1 MSTORE PUSH1 0x0 PUSH1 0xE0 DUP4 ADD DUP2 SWAP1 MSTORE PUSH2 0x100 DUP4 ADD DUP2 SWAP1 MSTORE PUSH1 0x1 PUSH2 0x120 DUP5 ADD DUP2 SWAP1 MSTORE SWAP2 DUP2 MSTORE PUSH1 0x20 DUP2 SWAP1 MSTORE PUSH1 0x40 SWAP1 KECCAK256 SLOAD PUSH1 0x1 PUSH1 0x1 PUSH1 0x80 SHL SUB AND LT DUP1 ISZERO SWAP1 PUSH2 0x2098 JUMPI POP CALLER PUSH1 0x0 SWAP1 DUP2 MSTORE PUSH1 0x20 DUP2 SWAP1 MSTORE PUSH1 0x40 SWAP1 KECCAK256 SLOAD PUSH1 0x1 PUSH1 0x1 PUSH1 0x80 SHL SUB AND PUSH2 0x208C DUP2 PUSH1 0x1 PUSH2 0x2D65 JUMP JUMPDEST PUSH1 0x1 PUSH1 0x1 PUSH1 0x80 SHL SUB AND LT ISZERO JUMPDEST ISZERO PUSH2 0x20EF JUMPI CALLER PUSH1 0x0 SWAP1 DUP2 MSTORE PUSH1 0x20 DUP2 SWAP1 MSTORE PUSH1 0x40 DUP2 KECCAK256 DUP1 SLOAD PUSH1 0x1 SWAP3 SWAP1 PUSH2 0x20C6 SWAP1 DUP5 SWAP1 PUSH1 0x1 PUSH1 0x1 PUSH1 0x80 SHL SUB AND PUSH2 0x2D65 JUMP JUMPDEST SWAP3 POP PUSH2 0x100 EXP DUP2 SLOAD DUP2 PUSH1 0x1 PUSH1 0x1 PUSH1 0x80 SHL SUB MUL NOT AND SWAP1 DUP4 PUSH1 0x1 PUSH1 0x1 PUSH1 0x80 SHL SUB AND MUL OR SWAP1 SSTORE POP PUSH2 0x2110 JUMP JUMPDEST CALLER PUSH1 0x0 SWAP1 DUP2 MSTORE PUSH1 0x20 DUP2 SWAP1 MSTORE PUSH1 0x40 SWAP1 KECCAK256 DUP1 SLOAD PUSH1 0x1 PUSH1 0x1 PUSH1 0x80 SHL SUB NOT AND PUSH1 0x1 OR SWAP1 SSTORE JUMPDEST PUSH1 0xC0 DUP2 ADD DUP1 MLOAD CALLER PUSH1 0x0 DUP2 DUP2 MSTORE PUSH1 0x1 PUSH1 0x20 DUP2 DUP2 MSTORE PUSH1 0x40 DUP1 DUP5 KECCAK256 DUP5 DUP4 MSTORE DUP2 DUP6 KECCAK256 DUP1 SLOAD PUSH1 0x1 PUSH1 0x1 PUSH1 0x80 SHL SUB SWAP1 DUP2 AND DUP8 MSTORE SWAP2 DUP5 MSTORE DUP3 DUP7 KECCAK256 DUP1 SLOAD PUSH1 0x1 PUSH1 0x1 PUSH1 0xA0 SHL SUB SWAP10 DUP11 AND PUSH1 0x1 PUSH1 0x1 PUSH1 0xA0 SHL SUB NOT SWAP2 DUP3 AND OR SWAP1 SWAP2 SSTORE DUP8 DUP8 MSTORE SWAP1 SLOAD PUSH1 0x2 DUP1 DUP7 MSTORE DUP5 DUP9 KECCAK256 DUP12 MLOAD DUP12 AND DUP10 MSTORE DUP7 MSTORE DUP5 DUP9 KECCAK256 DUP1 SLOAD PUSH1 0x1 PUSH1 0x1 PUSH1 0x80 SHL SUB NOT AND SWAP3 SWAP1 SWAP5 AND SWAP2 SWAP1 SWAP2 OR SWAP1 SWAP3 SSTORE DUP9 MLOAD DUP9 AND DUP7 MSTORE PUSH1 0x3 DUP1 DUP6 MSTORE SWAP6 DUP4 SWAP1 KECCAK256 DUP11 MLOAD DUP2 SSTORE SWAP4 DUP11 ADD MLOAD SWAP5 DUP5 ADD SWAP5 SWAP1 SWAP5 SSTORE DUP2 DUP10 ADD MLOAD SWAP1 DUP4 ADD SSTORE PUSH1 0x60 DUP9 ADD MLOAD SWAP4 DUP3 ADD DUP1 SLOAD PUSH1 0xFF SWAP1 SWAP6 AND PUSH1 0xFF NOT SWAP1 SWAP6 AND SWAP5 SWAP1 SWAP5 OR SWAP1 SWAP4 SSTORE PUSH1 0x80 DUP8 ADD MLOAD PUSH1 0x4 DUP3 ADD SSTORE PUSH1 0xA0 DUP8 ADD MLOAD PUSH1 0x5 DUP3 ADD SSTORE SWAP5 MLOAD PUSH1 0x6 DUP7 ADD DUP1 SLOAD PUSH1 0xE0 DUP10 ADD MLOAD PUSH2 0x100 DUP11 ADD MLOAD PUSH2 0x120 DUP12 ADD MLOAD ISZERO ISZERO PUSH1 0x1 PUSH1 0xB0 SHL MUL PUSH1 0xFF PUSH1 0xB0 SHL NOT SWAP2 ISZERO ISZERO PUSH1 0x1 PUSH1 0xA8 SHL MUL SWAP2 SWAP1 SWAP2 AND PUSH2 0xFFFF PUSH1 0xA8 SHL NOT SWAP3 ISZERO ISZERO PUSH1 0x1 PUSH1 0xA0 SHL MUL PUSH1 0x1 PUSH1 0x1 PUSH1 0xA8 SHL SUB NOT SWAP1 SWAP5 AND SWAP6 DUP11 AND SWAP6 SWAP1 SWAP6 OR SWAP3 SWAP1 SWAP3 OR AND SWAP3 SWAP1 SWAP3 OR SWAP2 SWAP1 SWAP2 OR SWAP1 SSTORE PUSH2 0x140 DUP7 ADD MLOAD PUSH1 0x7 SWAP1 SWAP6 ADD DUP1 SLOAD SWAP6 SWAP1 SWAP5 AND SWAP5 AND SWAP4 SWAP1 SWAP4 OR SWAP1 SWAP2 SSTORE SWAP1 MLOAD PUSH32 0x724ED868AD6195EC663DE17364300EE1E1956F27F184CEB84F2BE30D1FD58D65 SWAP2 PUSH2 0xE28 SWAP2 DUP5 SWAP1 PUSH2 0x2D9A JUMP JUMPDEST PUSH2 0x229C PUSH2 0x28BA JUMP JUMPDEST PUSH1 0x1 PUSH1 0x1 PUSH1 0xA0 SHL SUB DUP3 AND PUSH1 0x0 SWAP1 DUP2 MSTORE PUSH1 0x3 PUSH1 0x20 MSTORE PUSH1 0x40 SWAP1 KECCAK256 PUSH1 0x6 ADD SLOAD PUSH1 0x1 PUSH1 0xB0 SHL SWAP1 DIV PUSH1 0xFF AND ISZERO ISZERO PUSH1 0x1 EQ PUSH2 0x22E3 JUMPI PUSH1 0x40 MLOAD PUSH3 0x461BCD PUSH1 0xE5 SHL DUP2 MSTORE PUSH1 0x4 ADD PUSH2 0x73E SWAP1 PUSH2 0x2DB8 JUMP JUMPDEST POP PUSH1 0x1 PUSH1 0x1 PUSH1 0xA0 SHL SUB SWAP1 DUP2 AND PUSH1 0x0 SWAP1 DUP2 MSTORE PUSH1 0x3 PUSH1 0x20 DUP2 DUP2 MSTORE PUSH1 0x40 SWAP3 DUP4 SWAP1 KECCAK256 DUP4 MLOAD PUSH2 0x160 DUP2 ADD DUP6 MSTORE DUP2 SLOAD DUP2 MSTORE PUSH1 0x1 DUP3 ADD SLOAD SWAP3 DUP2 ADD SWAP3 SWAP1 SWAP3 MSTORE PUSH1 0x2 DUP2 ADD SLOAD SWAP4 DUP3 ADD SWAP4 SWAP1 SWAP4 MSTORE SWAP1 DUP3 ADD SLOAD PUSH1 0xFF SWAP1 DUP2 AND PUSH1 0x60 DUP4 ADD MSTORE PUSH1 0x4 DUP4 ADD SLOAD PUSH1 0x80 DUP4 ADD MSTORE PUSH1 0x5 DUP4 ADD SLOAD PUSH1 0xA0 DUP4 ADD MSTORE PUSH1 0x6 DUP4 ADD SLOAD DUP1 DUP6 AND PUSH1 0xC0 DUP5 ADD MSTORE PUSH1 0x1 PUSH1 0xA0 SHL DUP2 DIV DUP3 AND ISZERO ISZERO PUSH1 0xE0 DUP5 ADD MSTORE PUSH1 0x1 PUSH1 0xA8 SHL DUP2 DIV DUP3 AND ISZERO ISZERO PUSH2 0x100 DUP5 ADD MSTORE PUSH1 0x1 PUSH1 0xB0 SHL SWAP1 DIV AND ISZERO ISZERO PUSH2 0x120 DUP3 ADD MSTORE PUSH1 0x7 SWAP1 SWAP2 ADD SLOAD SWAP1 SWAP2 AND PUSH2 0x140 DUP3 ADD MSTORE SWAP1 JUMP JUMPDEST PUSH1 0x6 PUSH1 0x0 SWAP1 SLOAD SWAP1 PUSH2 0x100 EXP SWAP1 DIV PUSH1 0x1 PUSH1 0x1 PUSH1 0xA0 SHL SUB AND PUSH1 0x1 PUSH1 0x1 PUSH1 0xA0 SHL SUB AND PUSH4 0xAD87D2BA PUSH1 0x40 MLOAD DUP2 PUSH4 0xFFFFFFFF AND PUSH1 0xE0 SHL DUP2 MSTORE PUSH1 0x4 ADD PUSH1 0x20 PUSH1 0x40 MLOAD DUP1 DUP4 SUB DUP2 DUP7 GAS STATICCALL ISZERO DUP1 ISZERO PUSH2 0x23EB JUMPI RETURNDATASIZE PUSH1 0x0 DUP1 RETURNDATACOPY RETURNDATASIZE PUSH1 0x0 REVERT JUMPDEST POP POP POP POP PUSH1 0x40 MLOAD RETURNDATASIZE PUSH1 0x1F NOT PUSH1 0x1F DUP3 ADD AND DUP3 ADD DUP1 PUSH1 0x40 MSTORE POP DUP2 ADD SWAP1 PUSH2 0x240F SWAP2 SWAP1 PUSH2 0x2D48 JUMP JUMPDEST PUSH2 0x2418 JUMPI PUSH1 0x0 DUP1 REVERT JUMPDEST PUSH1 0x6 SLOAD PUSH1 0x1 PUSH1 0x1 PUSH1 0xA0 SHL SUB SWAP1 DUP2 AND PUSH1 0x0 SWAP1 DUP2 MSTORE PUSH1 0x1 PUSH1 0x20 SWAP1 DUP2 MSTORE PUSH1 0x40 DUP1 DUP4 KECCAK256 PUSH1 0x1 PUSH1 0x1 PUSH1 0x80 SHL SUB DUP7 AND DUP5 MSTORE SWAP1 SWAP2 MSTORE SWAP1 KECCAK256 SLOAD AND PUSH2 0x2466 JUMPI PUSH1 0x40 MLOAD PUSH3 0x461BCD PUSH1 0xE5 SHL DUP2 MSTORE PUSH1 0x4 ADD PUSH2 0x73E SWAP1 PUSH2 0x2DB8 JUMP JUMPDEST PUSH1 0x6 DUP1 SLOAD PUSH1 0x1 PUSH1 0x1 PUSH1 0xA0 SHL SUB SWAP1 DUP2 AND PUSH1 0x0 SWAP1 DUP2 MSTORE PUSH1 0x2 PUSH1 0x20 SWAP1 DUP2 MSTORE PUSH1 0x40 DUP1 DUP4 KECCAK256 PUSH1 0x1 DUP1 DUP5 MSTORE DUP3 DUP6 KECCAK256 PUSH1 0x1 PUSH1 0x1 PUSH1 0x80 SHL SUB DUP10 AND DUP1 DUP8 MSTORE SWAP1 DUP6 MSTORE DUP4 DUP7 KECCAK256 SLOAD DUP8 AND DUP7 MSTORE SWAP2 DUP5 MSTORE DUP3 DUP6 KECCAK256 DUP1 SLOAD PUSH1 0x1 PUSH1 0x1 PUSH1 0x80 SHL SUB NOT AND SWAP1 SSTORE SWAP6 SLOAD SWAP1 SWAP5 AND DUP4 MSTORE SWAP4 DUP2 MSTORE DUP4 DUP3 KECCAK256 DUP4 DUP4 MSTORE DUP2 MSTORE SWAP1 DUP4 SWAP1 KECCAK256 DUP1 SLOAD PUSH1 0x1 PUSH1 0x1 PUSH1 0xA0 SHL SUB NOT AND SWAP1 SSTORE SWAP2 MLOAD SWAP1 DUP2 MSTORE PUSH32 0x5F7C082CCCA0F36EC2622A3F2D11CF4A4B3A0DB0557669195572256A1DB6BE98 SWAP2 ADD PUSH2 0xE28 JUMP JUMPDEST PUSH1 0x6 PUSH1 0x0 SWAP1 SLOAD SWAP1 PUSH2 0x100 EXP SWAP1 DIV PUSH1 0x1 PUSH1 0x1 PUSH1 0xA0 SHL SUB AND PUSH1 0x1 PUSH1 0x1 PUSH1 0xA0 SHL SUB AND PUSH4 0xAD87D2BA PUSH1 0x40 MLOAD DUP2 PUSH4 0xFFFFFFFF AND PUSH1 0xE0 SHL DUP2 MSTORE PUSH1 0x4 ADD PUSH1 0x20 PUSH1 0x40 MLOAD DUP1 DUP4 SUB DUP2 DUP7 GAS STATICCALL ISZERO DUP1 ISZERO PUSH2 0x255E JUMPI RETURNDATASIZE PUSH1 0x0 DUP1 RETURNDATACOPY RETURNDATASIZE PUSH1 0x0 REVERT JUMPDEST POP POP POP POP PUSH1 0x40 MLOAD RETURNDATASIZE PUSH1 0x1F NOT PUSH1 0x1F DUP3 ADD AND DUP3 ADD DUP1 PUSH1 0x40 MSTORE POP DUP2 ADD SWAP1 PUSH2 0x2582 SWAP2 SWAP1 PUSH2 0x2D48 JUMP JUMPDEST PUSH2 0x258B JUMPI PUSH1 0x0 DUP1 REVERT JUMPDEST PUSH1 0xC0 DUP3 ADD MLOAD PUSH1 0x1 PUSH1 0x1 PUSH1 0xA0 SHL SUB AND PUSH1 0x0 SWAP1 DUP2 MSTORE PUSH1 0x3 PUSH1 0x20 MSTORE PUSH1 0x40 SWAP1 KECCAK256 PUSH1 0x6 ADD SLOAD PUSH1 0x1 PUSH1 0xB0 SHL SWAP1 DIV PUSH1 0xFF AND ISZERO ISZERO PUSH1 0x1 SUB PUSH2 0x25F7 JUMPI PUSH1 0x40 MLOAD PUSH3 0x461BCD PUSH1 0xE5 SHL DUP2 MSTORE PUSH1 0x20 PUSH1 0x4 DUP3 ADD MSTORE PUSH1 0xE PUSH1 0x24 DUP3 ADD MSTORE PUSH14 0x1D1A194818DBDA5B88195E1A5CDD PUSH1 0x92 SHL PUSH1 0x44 DUP3 ADD MSTORE PUSH1 0x64 ADD PUSH2 0x73E JUMP JUMPDEST CALLER PUSH2 0x140 DUP4 ADD MSTORE PUSH1 0x0 PUSH1 0xE0 DUP4 ADD DUP2 SWAP1 MSTORE PUSH1 0x1 PUSH2 0x100 DUP5 ADD DUP2 SWAP1 MSTORE PUSH2 0x120 DUP5 ADD DUP2 SWAP1 MSTORE PUSH1 0x6 SLOAD PUSH1 0x1 PUSH1 0x1 PUSH1 0xA0 SHL SUB AND DUP3 MSTORE PUSH1 0x20 DUP3 SWAP1 MSTORE PUSH1 0x40 SWAP1 SWAP2 KECCAK256 SLOAD PUSH1 0x1 PUSH1 0x1 PUSH1 0x80 SHL SUB AND SWAP1 DUP2 LT DUP1 ISZERO SWAP1 PUSH2 0x2667 JUMPI POP PUSH1 0x1 PUSH1 0x1 PUSH1 0x80 SHL SUB DUP2 AND PUSH2 0x265B DUP3 PUSH1 0x1 PUSH2 0x2D65 JUMP JUMPDEST PUSH1 0x1 PUSH1 0x1 PUSH1 0x80 SHL SUB AND LT ISZERO JUMPDEST ISZERO PUSH2 0x267E JUMPI PUSH2 0x2677 PUSH1 0x1 DUP3 PUSH2 0x2D65 JUMP JUMPDEST SWAP1 POP PUSH2 0x2682 JUMP JUMPDEST POP PUSH1 0x1 JUMPDEST PUSH1 0x6 DUP1 SLOAD PUSH1 0x1 PUSH1 0x1 PUSH1 0xA0 SHL SUB SWAP1 DUP2 AND PUSH1 0x0 SWAP1 DUP2 MSTORE PUSH1 0x20 DUP2 DUP2 MSTORE PUSH1 0x40 DUP1 DUP4 KECCAK256 DUP1 SLOAD PUSH1 0x1 PUSH1 0x1 PUSH1 0x80 SHL SUB DUP9 AND PUSH1 0x1 PUSH1 0x1 PUSH1 0x80 SHL SUB NOT SWAP2 DUP3 AND DUP2 OR SWAP1 SWAP3 SSTORE PUSH1 0xC0 DUP11 ADD DUP1 MLOAD DUP9 SLOAD DUP9 AND DUP8 MSTORE PUSH1 0x1 DUP1 DUP8 MSTORE DUP6 DUP9 KECCAK256 DUP6 DUP10 MSTORE DUP8 MSTORE DUP6 DUP9 KECCAK256 DUP1 SLOAD SWAP3 DUP11 AND PUSH1 0x1 PUSH1 0x1 PUSH1 0xA0 SHL SUB NOT SWAP4 DUP5 AND OR SWAP1 SSTORE DUP10 SLOAD DUP10 AND DUP9 MSTORE PUSH1 0x2 DUP1 DUP9 MSTORE DUP7 DUP10 KECCAK256 DUP5 MLOAD DUP12 AND DUP11 MSTORE DUP9 MSTORE DUP7 DUP10 KECCAK256 DUP1 SLOAD SWAP1 SWAP6 AND SWAP1 SWAP6 OR SWAP1 SWAP4 SSTORE DUP2 MLOAD DUP9 AND DUP8 MSTORE PUSH1 0x3 DUP1 DUP8 MSTORE SWAP7 DUP6 SWAP1 KECCAK256 DUP13 MLOAD DUP2 SSTORE SWAP6 DUP13 ADD MLOAD SWAP3 DUP7 ADD SWAP3 SWAP1 SWAP3 SSTORE DUP11 DUP5 ADD MLOAD SWAP3 DUP6 ADD SWAP3 SWAP1 SWAP3 SSTORE PUSH1 0x60 DUP11 ADD MLOAD SWAP5 DUP5 ADD DUP1 SLOAD PUSH1 0xFF SWAP1 SWAP7 AND PUSH1 0xFF NOT SWAP1 SWAP7 AND SWAP6 SWAP1 SWAP6 OR SWAP1 SWAP5 SSTORE PUSH1 0x80 DUP10 ADD MLOAD PUSH1 0x4 DUP5 ADD SSTORE PUSH1 0xA0 DUP10 ADD MLOAD PUSH1 0x5 DUP5 ADD SSTORE MLOAD SWAP5 DUP3 ADD DUP1 SLOAD PUSH1 0xE0 DUP11 ADD MLOAD PUSH2 0x100 DUP12 ADD MLOAD PUSH2 0x120 DUP13 ADD MLOAD ISZERO ISZERO PUSH1 0x1 PUSH1 0xB0 SHL MUL PUSH1 0xFF PUSH1 0xB0 SHL NOT SWAP2 ISZERO ISZERO PUSH1 0x1 PUSH1 0xA8 SHL MUL SWAP2 SWAP1 SWAP2 AND PUSH2 0xFFFF PUSH1 0xA8 SHL NOT SWAP3 ISZERO ISZERO PUSH1 0x1 PUSH1 0xA0 SHL MUL PUSH1 0x1 PUSH1 0x1 PUSH1 0xA8 SHL SUB NOT SWAP1 SWAP5 AND SWAP10 DUP10 AND SWAP10 SWAP1 SWAP10 OR SWAP3 SWAP1 SWAP3 OR AND SWAP7 SWAP1 SWAP7 OR SWAP6 SWAP1 SWAP6 OR SWAP1 SWAP5 SSTORE PUSH2 0x140 DUP8 ADD MLOAD PUSH1 0x7 SWAP1 SWAP2 ADD DUP1 SLOAD SWAP2 SWAP1 SWAP4 AND SWAP2 AND OR SWAP1 SSTORE MLOAD PUSH32 0x3FDEABF9CF0F252033E117E3BF501C16A9E905759535453A989A37BBB55557CB SWAP1 PUSH2 0x2813 SWAP1 DUP6 SWAP1 PUSH2 0x2C5B JUMP JUMPDEST PUSH1 0x40 MLOAD DUP1 SWAP2 SUB SWAP1 LOG1 DUP2 MLOAD PUSH1 0x1 PUSH1 0x1 PUSH1 0xA0 SHL SUB SWAP1 DUP2 AND PUSH1 0x0 SWAP1 DUP2 MSTORE PUSH1 0x4 PUSH1 0x20 DUP2 DUP2 MSTORE PUSH1 0x40 SWAP3 DUP4 SWAP1 KECCAK256 DUP7 MLOAD DUP2 SLOAD PUSH1 0x1 PUSH1 0x1 PUSH1 0xA0 SHL SUB NOT AND SWAP6 AND SWAP5 DUP6 OR DUP2 SSTORE DUP2 DUP8 ADD MLOAD PUSH1 0x1 DUP3 ADD SSTORE DUP4 DUP8 ADD MLOAD PUSH1 0x2 DUP3 ADD SSTORE PUSH1 0x60 DUP8 ADD MLOAD PUSH1 0x3 DUP3 ADD SSTORE PUSH1 0x80 DUP8 ADD MLOAD SWAP3 DUP2 ADD SWAP3 SWAP1 SWAP3 SSTORE PUSH1 0xA0 DUP7 ADD MLOAD PUSH1 0x5 SWAP1 SWAP3 ADD SWAP2 SWAP1 SWAP2 SSTORE SWAP1 MLOAD SWAP2 DUP3 MSTORE PUSH32 0x28995A3CC31B8867E272BF05BB4F577DA5E81799E17CF729D123EDF7C2A7CA94 SWAP2 ADD PUSH1 0x40 MLOAD DUP1 SWAP2 SUB SWAP1 LOG1 POP POP POP JUMP JUMPDEST PUSH1 0x40 DUP1 MLOAD PUSH2 0x160 DUP2 ADD DUP3 MSTORE PUSH1 0x0 DUP1 DUP3 MSTORE PUSH1 0x20 DUP3 ADD DUP2 SWAP1 MSTORE SWAP2 DUP2 ADD DUP3 SWAP1 MSTORE PUSH1 0x60 DUP2 ADD DUP3 SWAP1 MSTORE PUSH1 0x80 DUP2 ADD DUP3 SWAP1 MSTORE PUSH1 0xA0 DUP2 ADD DUP3 SWAP1 MSTORE PUSH1 0xC0 DUP2 ADD DUP3 SWAP1 MSTORE PUSH1 0xE0 DUP2 ADD DUP3 SWAP1 MSTORE PUSH2 0x100 DUP2 ADD DUP3 SWAP1 MSTORE PUSH2 0x120 DUP2 ADD DUP3 SWAP1 MSTORE PUSH2 0x140 DUP2 ADD SWAP2 SWAP1 SWAP2 MSTORE SWAP1 JUMP JUMPDEST PUSH1 0x40 MLOAD PUSH2 0x160 DUP2 ADD PUSH8 0xFFFFFFFFFFFFFFFF DUP2 GT DUP3 DUP3 LT OR ISZERO PUSH2 0x2948 JUMPI PUSH4 0x4E487B71 PUSH1 0xE0 SHL PUSH1 0x0 MSTORE PUSH1 0x41 PUSH1 0x4 MSTORE PUSH1 0x24 PUSH1 0x0 REVERT JUMPDEST PUSH1 0x40 MSTORE SWAP1 JUMP JUMPDEST DUP1 CALLDATALOAD PUSH1 0xFF DUP2 AND DUP2 EQ PUSH2 0x295F JUMPI PUSH1 0x0 DUP1 REVERT JUMPDEST SWAP2 SWAP1 POP JUMP JUMPDEST DUP1 CALLDATALOAD PUSH1 0x1 PUSH1 0x1 PUSH1 0xA0 SHL SUB DUP2 AND DUP2 EQ PUSH2 0x295F JUMPI PUSH1 0x0 DUP1 REVERT JUMPDEST DUP1 ISZERO ISZERO DUP2 EQ PUSH2 0x2989 JUMPI PUSH1 0x0 DUP1 REVERT JUMPDEST POP JUMP JUMPDEST DUP1 CALLDATALOAD PUSH2 0x295F DUP2 PUSH2 0x297B JUMP JUMPDEST PUSH1 0x0 PUSH2 0x160 DUP3 DUP5 SUB SLT ISZERO PUSH2 0x29AA JUMPI PUSH1 0x0 DUP1 REVERT JUMPDEST PUSH2 0x29B2 PUSH2 0x2916 JUMP JUMPDEST SWAP1 POP DUP2 CALLDATALOAD DUP2 MSTORE PUSH1 0x20 DUP3 ADD CALLDATALOAD PUSH1 0x20 DUP3 ADD MSTORE PUSH1 0x40 DUP3 ADD CALLDATALOAD PUSH1 0x40 DUP3 ADD MSTORE PUSH2 0x29D8 PUSH1 0x60 DUP4 ADD PUSH2 0x294E JUMP JUMPDEST PUSH1 0x60 DUP3 ADD MSTORE PUSH1 0x80 DUP3 ADD CALLDATALOAD PUSH1 0x80 DUP3 ADD MSTORE PUSH1 0xA0 DUP3 ADD CALLDATALOAD PUSH1 0xA0 DUP3 ADD MSTORE PUSH2 0x29FD PUSH1 0xC0 DUP4 ADD PUSH2 0x2964 JUMP JUMPDEST PUSH1 0xC0 DUP3 ADD MSTORE PUSH2 0x2A0E PUSH1 0xE0 DUP4 ADD PUSH2 0x298C JUMP JUMPDEST PUSH1 0xE0 DUP3 ADD MSTORE PUSH2 0x100 PUSH2 0x2A21 DUP2 DUP5 ADD PUSH2 0x298C JUMP JUMPDEST SWAP1 DUP3 ADD MSTORE PUSH2 0x120 PUSH2 0x2A33 DUP4 DUP3 ADD PUSH2 0x298C JUMP JUMPDEST SWAP1 DUP3 ADD MSTORE PUSH2 0x140 PUSH2 0x2A45 DUP4 DUP3 ADD PUSH2 0x2964 JUMP JUMPDEST SWAP1 DUP3 ADD MSTORE SWAP3 SWAP2 POP POP JUMP JUMPDEST PUSH1 0x0 PUSH1 0xC0 DUP3 DUP5 SUB SLT ISZERO PUSH2 0x2A61 JUMPI PUSH1 0x0 DUP1 REVERT JUMPDEST PUSH1 0x40 MLOAD PUSH1 0xC0 DUP2 ADD DUP2 DUP2 LT PUSH8 0xFFFFFFFFFFFFFFFF DUP3 GT OR ISZERO PUSH2 0x2A92 JUMPI PUSH4 0x4E487B71 PUSH1 0xE0 SHL PUSH1 0x0 MSTORE PUSH1 0x41 PUSH1 0x4 MSTORE PUSH1 0x24 PUSH1 0x0 REVERT JUMPDEST PUSH1 0x40 MSTORE SWAP1 POP DUP1 PUSH2 0x2AA1 DUP4 PUSH2 0x2964 JUMP JUMPDEST DUP2 MSTORE PUSH1 0x20 DUP4 ADD CALLDATALOAD PUSH1 0x20 DUP3 ADD MSTORE PUSH1 0x40 DUP4 ADD CALLDATALOAD PUSH1 0x40 DUP3 ADD MSTORE PUSH1 0x60 DUP4 ADD CALLDATALOAD PUSH1 0x60 DUP3 ADD MSTORE PUSH1 0x80 DUP4 ADD CALLDATALOAD PUSH1 0x80 DUP3 ADD MSTORE PUSH1 0xA0 DUP4 ADD CALLDATALOAD PUSH1 0xA0 DUP3 ADD MSTORE POP SWAP3 SWAP2 POP POP JUMP JUMPDEST PUSH1 0x0 DUP1 PUSH2 0x220 DUP4 DUP6 SUB SLT ISZERO PUSH2 0x2AF0 JUMPI PUSH1 0x0 DUP1 REVERT JUMPDEST PUSH2 0x2AFA DUP5 DUP5 PUSH2 0x2997 JUMP JUMPDEST SWAP2 POP PUSH2 0x2B0A DUP5 PUSH2 0x160 DUP6 ADD PUSH2 0x2A4F JUMP JUMPDEST SWAP1 POP SWAP3 POP SWAP3 SWAP1 POP JUMP JUMPDEST PUSH1 0x0 PUSH1 0x20 DUP3 DUP5 SUB SLT ISZERO PUSH2 0x2B25 JUMPI PUSH1 0x0 DUP1 REVERT JUMPDEST PUSH2 0x2B2E DUP3 PUSH2 0x2964 JUMP JUMPDEST SWAP4 SWAP3 POP POP POP JUMP JUMPDEST PUSH1 0x0 PUSH1 0xC0 DUP3 DUP5 SUB SLT ISZERO PUSH2 0x2B47 JUMPI PUSH1 0x0 DUP1 REVERT JUMPDEST PUSH2 0x2B2E DUP4 DUP4 PUSH2 0x2A4F JUMP JUMPDEST PUSH1 0x0 DUP1 PUSH1 0x40 DUP4 DUP6 SUB SLT ISZERO PUSH2 0x2B64 JUMPI PUSH1 0x0 DUP1 REVERT JUMPDEST PUSH2 0x2B6D DUP4 PUSH2 0x2964 JUMP JUMPDEST SWAP2 POP PUSH2 0x2B0A PUSH1 0x20 DUP5 ADD PUSH2 0x2964 JUMP JUMPDEST DUP1 CALLDATALOAD PUSH1 0x1 PUSH1 0x1 PUSH1 0x80 SHL SUB DUP2 AND DUP2 EQ PUSH2 0x295F JUMPI PUSH1 0x0 DUP1 REVERT JUMPDEST PUSH1 0x0 DUP1 PUSH1 0x40 DUP4 DUP6 SUB SLT ISZERO PUSH2 0x2BA5 JUMPI PUSH1 0x0 DUP1 REVERT JUMPDEST PUSH2 0x2BAE DUP4 PUSH2 0x2964 JUMP JUMPDEST SWAP2 POP PUSH2 0x2B0A PUSH1 0x20 DUP5 ADD PUSH2 0x2B7B JUMP JUMPDEST DUP1 MLOAD DUP3 MSTORE PUSH1 0x20 DUP2 ADD MLOAD PUSH1 0x20 DUP4 ADD MSTORE PUSH1 0x40 DUP2 ADD MLOAD PUSH1 0x40 DUP4 ADD MSTORE PUSH1 0x60 DUP2 ADD MLOAD PUSH2 0x2BE8 PUSH1 0x60 DUP5 ADD DUP3 PUSH1 0xFF AND SWAP1 MSTORE JUMP JUMPDEST POP PUSH1 0x80 DUP2 ADD MLOAD PUSH1 0x80 DUP4 ADD MSTORE PUSH1 0xA0 DUP2 ADD MLOAD PUSH1 0xA0 DUP4 ADD MSTORE PUSH1 0xC0 DUP2 ADD MLOAD PUSH2 0x2C17 PUSH1 0xC0 DUP5 ADD DUP3 PUSH1 0x1 PUSH1 0x1 PUSH1 0xA0 SHL SUB AND SWAP1 MSTORE JUMP JUMPDEST POP PUSH1 0xE0 DUP2 ADD MLOAD PUSH2 0x2C2B PUSH1 0xE0 DUP5 ADD DUP3 ISZERO ISZERO SWAP1 MSTORE JUMP JUMPDEST POP PUSH2 0x100 DUP2 DUP2 ADD MLOAD ISZERO ISZERO SWAP1 DUP4 ADD MSTORE PUSH2 0x120 DUP1 DUP3 ADD MLOAD ISZERO ISZERO SWAP1 DUP4 ADD MSTORE PUSH2 0x140 SWAP1 DUP2 ADD MLOAD PUSH1 0x1 PUSH1 0x1 PUSH1 0xA0 SHL SUB AND SWAP2 ADD MSTORE JUMP JUMPDEST PUSH2 0x160 DUP2 ADD PUSH2 0x1266 DUP3 DUP5 PUSH2 0x2BBC JUMP JUMPDEST PUSH1 0x0 PUSH1 0x20 DUP3 DUP5 SUB SLT ISZERO PUSH2 0x2C7C JUMPI PUSH1 0x0 DUP1 REVERT JUMPDEST PUSH2 0x2B2E DUP3 PUSH2 0x2B7B JUMP JUMPDEST PUSH1 0x0 PUSH2 0x160 DUP3 DUP5 SUB SLT ISZERO PUSH2 0x2C98 JUMPI PUSH1 0x0 DUP1 REVERT JUMPDEST PUSH2 0x2B2E DUP4 DUP4 PUSH2 0x2997 JUMP JUMPDEST PUSH1 0x0 DUP1 PUSH1 0x0 PUSH1 0x60 DUP5 DUP7 SUB SLT ISZERO PUSH2 0x2CB7 JUMPI PUSH1 0x0 DUP1 REVERT JUMPDEST PUSH2 0x2CC0 DUP5 PUSH2 0x2964 JUMP JUMPDEST SWAP3 POP PUSH2 0x2CCE PUSH1 0x20 DUP6 ADD PUSH2 0x2964 JUMP JUMPDEST SWAP2 POP PUSH2 0x2CDC PUSH1 0x40 DUP6 ADD PUSH2 0x2964 JUMP JUMPDEST SWAP1 POP SWAP3 POP SWAP3 POP SWAP3 JUMP JUMPDEST PUSH1 0x0 DUP1 PUSH1 0x0 DUP1 PUSH1 0x0 DUP1 PUSH1 0x0 PUSH1 0xE0 DUP9 DUP11 SUB SLT ISZERO PUSH2 0x2D00 JUMPI PUSH1 0x0 DUP1 REVERT JUMPDEST DUP8 CALLDATALOAD SWAP7 POP PUSH1 0x20 DUP9 ADD CALLDATALOAD SWAP6 POP PUSH1 0x40 DUP9 ADD CALLDATALOAD SWAP5 POP PUSH2 0x2D1E PUSH1 0x60 DUP10 ADD PUSH2 0x294E JUMP JUMPDEST SWAP4 POP PUSH1 0x80 DUP9 ADD CALLDATALOAD SWAP3 POP PUSH1 0xA0 DUP9 ADD CALLDATALOAD SWAP2 POP PUSH2 0x2D3A PUSH1 0xC0 DUP10 ADD PUSH2 0x2964 JUMP JUMPDEST SWAP1 POP SWAP3 SWAP6 SWAP9 SWAP2 SWAP5 SWAP8 POP SWAP3 SWAP6 POP JUMP JUMPDEST PUSH1 0x0 PUSH1 0x20 DUP3 DUP5 SUB SLT ISZERO PUSH2 0x2D5A JUMPI PUSH1 0x0 DUP1 REVERT JUMPDEST DUP2 MLOAD PUSH2 0x2B2E DUP2 PUSH2 0x297B JUMP JUMPDEST PUSH1 0x1 PUSH1 0x1 PUSH1 0x80 SHL SUB DUP2 DUP2 AND DUP4 DUP3 AND ADD SWAP1 DUP1 DUP3 GT ISZERO PUSH2 0x2D93 JUMPI PUSH4 0x4E487B71 PUSH1 0xE0 SHL PUSH1 0x0 MSTORE PUSH1 0x11 PUSH1 0x4 MSTORE PUSH1 0x24 PUSH1 0x0 REVERT JUMPDEST POP SWAP3 SWAP2 POP POP JUMP JUMPDEST PUSH1 0x1 PUSH1 0x1 PUSH1 0xA0 SHL SUB DUP4 AND DUP2 MSTORE PUSH2 0x180 DUP2 ADD PUSH2 0x2B2E PUSH1 0x20 DUP4 ADD DUP5 PUSH2 0x2BBC JUMP JUMPDEST PUSH1 0x20 DUP1 DUP3 MSTORE PUSH1 0x16 SWAP1 DUP3 ADD MSTORE PUSH22 0x74686520636F696E206973206E6F7420657869737473 PUSH1 0x50 SHL PUSH1 0x40 DUP3 ADD MSTORE PUSH1 0x60 ADD SWAP1 JUMP JUMPDEST PUSH1 0x20 DUP1 DUP3 MSTORE PUSH1 0x16 SWAP1 DUP3 ADD MSTORE PUSH22 0x1E5BDD481A185D99481B9BDD081D1A19481C9A59DA1D PUSH1 0x52 SHL PUSH1 0x40 DUP3 ADD MSTORE PUSH1 0x60 ADD SWAP1 JUMP JUMPDEST PUSH1 0x1 PUSH1 0x1 PUSH1 0xA0 SHL SUB DUP4 DUP2 AND DUP3 MSTORE DUP3 SLOAD PUSH1 0x20 DUP4 ADD MSTORE PUSH1 0x1 DUP4 ADD SLOAD PUSH1 0x40 DUP4 ADD MSTORE PUSH1 0x2 DUP4 ADD SLOAD PUSH1 0x60 DUP4 ADD MSTORE PUSH1 0x3 DUP4 ADD SLOAD PUSH2 0x180 DUP4 ADD SWAP2 SWAP1 PUSH1 0xFF AND PUSH1 0xFF DUP2 AND PUSH1 0x80 DUP6 ADD MSTORE POP PUSH1 0x4 DUP5 ADD SLOAD PUSH1 0xA0 DUP5 ADD MSTORE PUSH1 0x5 DUP5 ADD SLOAD PUSH1 0xC0 DUP5 ADD MSTORE PUSH1 0x6 DUP5 ADD SLOAD PUSH1 0x1 PUSH1 0x1 PUSH1 0xA0 SHL SUB DUP3 DUP3 AND AND PUSH1 0xE0 DUP6 ADD MSTORE PUSH2 0x2E98 PUSH2 0x100 DUP6 ADD PUSH1 0xFF DUP4 PUSH1 0xA0 SHR AND ISZERO ISZERO SWAP1 MSTORE JUMP JUMPDEST PUSH2 0x2EAD PUSH2 0x120 DUP6 ADD PUSH1 0xFF DUP4 PUSH1 0xA8 SHR AND ISZERO ISZERO SWAP1 MSTORE JUMP JUMPDEST PUSH2 0x2EC2 PUSH2 0x140 DUP6 ADD PUSH1 0xFF DUP4 PUSH1 0xB0 SHR AND ISZERO ISZERO SWAP1 MSTORE JUMP JUMPDEST POP POP PUSH1 0x7 SWAP3 SWAP1 SWAP3 ADD SLOAD PUSH1 0x1 PUSH1 0x1 PUSH1 0xA0 SHL SUB AND PUSH2 0x160 SWAP2 SWAP1 SWAP2 ADD MSTORE SWAP2 SWAP1 POP JUMP INVALID LOG2 PUSH5 0x6970667358 0x22 SLT KECCAK256 0x2E MLOAD 0x2B ADDRESS MLOAD 0xBF EXTCODESIZE PREVRANDAO PUSH4 0x93A08A80 EXTCODESIZE 0xE9 PC PUSH11 0x6617A7AB8CBE6A12226A14 0x4E PUSH13 0xEA8564736F6C63430008120033 "
				},
				"gasEstimates": {
					"creation": {
						"codeDepositCost": "2411000",
						"executionCost": "infinite",
						"totalCost": "infinite"
					},
					"external": {
						"addCoinDetailInfobyGator((address,bytes32,bytes32,bytes32,bytes32,bytes32))": "infinite",
						"addCoinDetailInfobyMarketor((address,bytes32,bytes32,bytes32,bytes32,bytes32))": "infinite",
						"addCoinFullinfobyGator((bytes32,bytes32,bytes32,uint8,uint256,uint256,address,bool,bool,bool,address),(address,bytes32,bytes32,bytes32,bytes32,bytes32))": "infinite",
						"addCoinFullinfobyMarketor((bytes32,bytes32,bytes32,uint8,uint256,uint256,address,bool,bool,bool,address),(address,bytes32,bytes32,bytes32,bytes32,bytes32))": "infinite",
						"addCoinbyGator((bytes32,bytes32,bytes32,uint8,uint256,uint256,address,bool,bool,bool,address))": "infinite",
						"addCoinbyMarketor((bytes32,bytes32,bytes32,uint8,uint256,uint256,address,bool,bool,bool,address))": "infinite",
						"coinDetailList(address)": "13303",
						"coinList(address)": "17798",
						"coinMaxNo(address)": "2627",
						"delCoinbyGator(address)": "infinite",
						"delCoinbyGator(uint128)": "infinite",
						"delCoinbyMarketor(address)": "infinite",
						"delCoinbyMarketor(uint128)": "infinite",
						"gatorContractAddress()": "2371",
						"getCoinInfoFromOwnerCoinNo(address,uint128)": "infinite",
						"getCoinInfoFromaddress(address)": "20680",
						"getCoinMaxNo(address)": "2669",
						"impoveGateCoinbyMarketor(address)": "infinite",
						"isValidCoin(address)": "2684",
						"lockCoinbyGator(address)": "infinite",
						"lockCoinbyMarketor(address)": "infinite",
						"marketCreator()": "2394",
						"marketorContractAddress()": "2393",
						"ownerCoinList(address,uint128)": "infinite",
						"ownerCoinNo(address,address)": "infinite",
						"setCoinEnv(address,address,address)": "infinite",
						"unlockCoinbyGator(address)": "infinite",
						"unlockCoinbyMarketor(address)": "infinite",
						"updateCoinbyGator(bytes32,bytes32,bytes32,uint8,uint256,uint256,address)": "infinite",
						"updateCoinbyMarketor((bytes32,bytes32,bytes32,uint8,uint256,uint256,address,bool,bool,bool,address))": "infinite"
					}
				},
				"methodIdentifiers": {
					"addCoinDetailInfobyGator((address,bytes32,bytes32,bytes32,bytes32,bytes32))": "c6e39898",
					"addCoinDetailInfobyMarketor((address,bytes32,bytes32,bytes32,bytes32,bytes32))": "128e641d",
					"addCoinFullinfobyGator((bytes32,bytes32,bytes32,uint8,uint256,uint256,address,bool,bool,bool,address),(address,bytes32,bytes32,bytes32,bytes32,bytes32))": "07cb20e8",
					"addCoinFullinfobyMarketor((bytes32,bytes32,bytes32,uint8,uint256,uint256,address,bool,bool,bool,address),(address,bytes32,bytes32,bytes32,bytes32,bytes32))": "f8eeb665",
					"addCoinbyGator((bytes32,bytes32,bytes32,uint8,uint256,uint256,address,bool,bool,bool,address))": "d04dc91e",
					"addCoinbyMarketor((bytes32,bytes32,bytes32,uint8,uint256,uint256,address,bool,bool,bool,address))": "9e2c608c",
					"coinDetailList(address)": "6cedf640",
					"coinList(address)": "31ecdeb8",
					"coinMaxNo(address)": "d848b5ba",
					"delCoinbyGator(address)": "92a59f1f",
					"delCoinbyGator(uint128)": "5e2c9314",
					"delCoinbyMarketor(address)": "7c3e2f02",
					"delCoinbyMarketor(uint128)": "f022f417",
					"gatorContractAddress()": "47d0a634",
					"getCoinInfoFromOwnerCoinNo(address,uint128)": "54d39318",
					"getCoinInfoFromaddress(address)": "d25b9e58",
					"getCoinMaxNo(address)": "40e7bdc3",
					"impoveGateCoinbyMarketor(address)": "11cfa0bc",
					"isValidCoin(address)": "328320bf",
					"lockCoinbyGator(address)": "441eb548",
					"lockCoinbyMarketor(address)": "b20be2b4",
					"marketCreator()": "27cbaabe",
					"marketorContractAddress()": "492b7107",
					"ownerCoinList(address,uint128)": "690e1784",
					"ownerCoinNo(address,address)": "3e68d831",
					"setCoinEnv(address,address,address)": "b244cb29",
					"unlockCoinbyGator(address)": "385e4b7a",
					"unlockCoinbyMarketor(address)": "1d3b8f67",
					"updateCoinbyGator(bytes32,bytes32,bytes32,uint8,uint256,uint256,address)": "c23a9da2",
					"updateCoinbyMarketor((bytes32,bytes32,bytes32,uint8,uint256,uint256,address,bool,bool,bool,address))": "798fdafa"
				}
			},
			"storageLayout": {
				"storage": [
					{
						"astId": 11,
						"contract": "Contracts/TTSwapV1Coin.sol:TTSwapV1Coin",
						"label": "coinMaxNo",
						"offset": 0,
						"slot": "0",
						"type": "t_mapping(t_address,t_uint128)"
					},
					{
						"astId": 17,
						"contract": "Contracts/TTSwapV1Coin.sol:TTSwapV1Coin",
						"label": "ownerCoinList",
						"offset": 0,
						"slot": "1",
						"type": "t_mapping(t_address,t_mapping(t_uint128,t_address))"
					},
					{
						"astId": 23,
						"contract": "Contracts/TTSwapV1Coin.sol:TTSwapV1Coin",
						"label": "ownerCoinNo",
						"offset": 0,
						"slot": "2",
						"type": "t_mapping(t_address,t_mapping(t_address,t_uint128))"
					},
					{
						"astId": 28,
						"contract": "Contracts/TTSwapV1Coin.sol:TTSwapV1Coin",
						"label": "coinList",
						"offset": 0,
						"slot": "3",
						"type": "t_mapping(t_address,t_struct(Info)1671_storage)"
					},
					{
						"astId": 33,
						"contract": "Contracts/TTSwapV1Coin.sol:TTSwapV1Coin",
						"label": "coinDetailList",
						"offset": 0,
						"slot": "4",
						"type": "t_mapping(t_address,t_struct(DetailInfo)1684_storage)"
					},
					{
						"astId": 35,
						"contract": "Contracts/TTSwapV1Coin.sol:TTSwapV1Coin",
						"label": "gatorContractAddress",
						"offset": 0,
						"slot": "5",
						"type": "t_address"
					},
					{
						"astId": 37,
						"contract": "Contracts/TTSwapV1Coin.sol:TTSwapV1Coin",
						"label": "marketorContractAddress",
						"offset": 0,
						"slot": "6",
						"type": "t_address"
					},
					{
						"astId": 39,
						"contract": "Contracts/TTSwapV1Coin.sol:TTSwapV1Coin",
						"label": "marketCreator",
						"offset": 0,
						"slot": "7",
						"type": "t_address"
					}
				],
				"types": {
					"t_address": {
						"encoding": "inplace",
						"label": "address",
						"numberOfBytes": "20"
					},
					"t_bool": {
						"encoding": "inplace",
						"label": "bool",
						"numberOfBytes": "1"
					},
					"t_bytes32": {
						"encoding": "inplace",
						"label": "bytes32",
						"numberOfBytes": "32"
					},
					"t_mapping(t_address,t_mapping(t_address,t_uint128))": {
						"encoding": "mapping",
						"key": "t_address",
						"label": "mapping(address => mapping(address => uint128))",
						"numberOfBytes": "32",
						"value": "t_mapping(t_address,t_uint128)"
					},
					"t_mapping(t_address,t_mapping(t_uint128,t_address))": {
						"encoding": "mapping",
						"key": "t_address",
						"label": "mapping(address => mapping(uint128 => address))",
						"numberOfBytes": "32",
						"value": "t_mapping(t_uint128,t_address)"
					},
					"t_mapping(t_address,t_struct(DetailInfo)1684_storage)": {
						"encoding": "mapping",
						"key": "t_address",
						"label": "mapping(address => struct LCoin.DetailInfo)",
						"numberOfBytes": "32",
						"value": "t_struct(DetailInfo)1684_storage"
					},
					"t_mapping(t_address,t_struct(Info)1671_storage)": {
						"encoding": "mapping",
						"key": "t_address",
						"label": "mapping(address => struct LCoin.Info)",
						"numberOfBytes": "32",
						"value": "t_struct(Info)1671_storage"
					},
					"t_mapping(t_address,t_uint128)": {
						"encoding": "mapping",
						"key": "t_address",
						"label": "mapping(address => uint128)",
						"numberOfBytes": "32",
						"value": "t_uint128"
					},
					"t_mapping(t_uint128,t_address)": {
						"encoding": "mapping",
						"key": "t_uint128",
						"label": "mapping(uint128 => address)",
						"numberOfBytes": "32",
						"value": "t_address"
					},
					"t_struct(DetailInfo)1684_storage": {
						"encoding": "inplace",
						"label": "struct LCoin.DetailInfo",
						"members": [
							{
								"astId": 1673,
								"contract": "Contracts/TTSwapV1Coin.sol:TTSwapV1Coin",
								"label": "contractAddress",
								"offset": 0,
								"slot": "0",
								"type": "t_address"
							},
							{
								"astId": 1675,
								"contract": "Contracts/TTSwapV1Coin.sol:TTSwapV1Coin",
								"label": "WhitePaperUrl",
								"offset": 0,
								"slot": "1",
								"type": "t_bytes32"
							},
							{
								"astId": 1677,
								"contract": "Contracts/TTSwapV1Coin.sol:TTSwapV1Coin",
								"label": "OfficalWebsite",
								"offset": 0,
								"slot": "2",
								"type": "t_bytes32"
							},
							{
								"astId": 1679,
								"contract": "Contracts/TTSwapV1Coin.sol:TTSwapV1Coin",
								"label": "blockExplorerUrl",
								"offset": 0,
								"slot": "3",
								"type": "t_bytes32"
							},
							{
								"astId": 1681,
								"contract": "Contracts/TTSwapV1Coin.sol:TTSwapV1Coin",
								"label": "twriterUrl",
								"offset": 0,
								"slot": "4",
								"type": "t_bytes32"
							},
							{
								"astId": 1683,
								"contract": "Contracts/TTSwapV1Coin.sol:TTSwapV1Coin",
								"label": "bbsUrl",
								"offset": 0,
								"slot": "5",
								"type": "t_bytes32"
							}
						],
						"numberOfBytes": "192"
					},
					"t_struct(Info)1671_storage": {
						"encoding": "inplace",
						"label": "struct LCoin.Info",
						"members": [
							{
								"astId": 1650,
								"contract": "Contracts/TTSwapV1Coin.sol:TTSwapV1Coin",
								"label": "coinFullName",
								"offset": 0,
								"slot": "0",
								"type": "t_bytes32"
							},
							{
								"astId": 1652,
								"contract": "Contracts/TTSwapV1Coin.sol:TTSwapV1Coin",
								"label": "symbol",
								"offset": 0,
								"slot": "1",
								"type": "t_bytes32"
							},
							{
								"astId": 1654,
								"contract": "Contracts/TTSwapV1Coin.sol:TTSwapV1Coin",
								"label": "typecode",
								"offset": 0,
								"slot": "2",
								"type": "t_bytes32"
							},
							{
								"astId": 1656,
								"contract": "Contracts/TTSwapV1Coin.sol:TTSwapV1Coin",
								"label": "decimals",
								"offset": 0,
								"slot": "3",
								"type": "t_uint8"
							},
							{
								"astId": 1658,
								"contract": "Contracts/TTSwapV1Coin.sol:TTSwapV1Coin",
								"label": "maxSupply",
								"offset": 0,
								"slot": "4",
								"type": "t_uint256"
							},
							{
								"astId": 1660,
								"contract": "Contracts/TTSwapV1Coin.sol:TTSwapV1Coin",
								"label": "totalSupply",
								"offset": 0,
								"slot": "5",
								"type": "t_uint256"
							},
							{
								"astId": 1662,
								"contract": "Contracts/TTSwapV1Coin.sol:TTSwapV1Coin",
								"label": "contractAddress",
								"offset": 0,
								"slot": "6",
								"type": "t_address"
							},
							{
								"astId": 1664,
								"contract": "Contracts/TTSwapV1Coin.sol:TTSwapV1Coin",
								"label": "marketunlock",
								"offset": 20,
								"slot": "6",
								"type": "t_bool"
							},
							{
								"astId": 1666,
								"contract": "Contracts/TTSwapV1Coin.sol:TTSwapV1Coin",
								"label": "gateunlock",
								"offset": 21,
								"slot": "6",
								"type": "t_bool"
							},
							{
								"astId": 1668,
								"contract": "Contracts/TTSwapV1Coin.sol:TTSwapV1Coin",
								"label": "isUsed",
								"offset": 22,
								"slot": "6",
								"type": "t_bool"
							},
							{
								"astId": 1670,
								"contract": "Contracts/TTSwapV1Coin.sol:TTSwapV1Coin",
								"label": "creator",
								"offset": 0,
								"slot": "7",
								"type": "t_address"
							}
						],
						"numberOfBytes": "256"
					},
					"t_uint128": {
						"encoding": "inplace",
						"label": "uint128",
						"numberOfBytes": "16"
					},
					"t_uint256": {
						"encoding": "inplace",
						"label": "uint256",
						"numberOfBytes": "32"
					},
					"t_uint8": {
						"encoding": "inplace",
						"label": "uint8",
						"numberOfBytes": "1"
					}
				}
			},
			"userdoc": {
				"kind": "user",
				"methods": {
					"addCoinFullinfobyMarketor((bytes32,bytes32,bytes32,uint8,uint256,uint256,address,bool,bool,bool,address),(address,bytes32,bytes32,bytes32,bytes32,bytes32))": {
						"notice": "Explain to an end user what this does"
					},
					"addCoinbyMarketor((bytes32,bytes32,bytes32,uint8,uint256,uint256,address,bool,bool,bool,address))": {
						"notice": "Explain to an end user what this does"
					},
					"gatorContractAddress()": {
						"notice": "The contract that deployed the pool, which must adhere to the IUniswapV3Factory interface"
					},
					"marketorContractAddress()": {
						"notice": "The contract that deployed the pool, which must adhere to the IUniswapV3Factory interface"
					}
				},
				"version": 1
			}
		}
	}
}