{
	"Contracts/MoonV1Gater.sol": {
		"MoonV1Gater": {
			"abi": [
				{
					"inputs": [
						{
							"internalType": "address",
							"name": "_marketContractAddress",
							"type": "address"
						},
						{
							"internalType": "address",
							"name": "_marketorContractAddress",
							"type": "address"
						}
					],
					"stateMutability": "nonpayable",
					"type": "constructor"
				},
				{
					"inputs": [
						{
							"components": [
								{
									"internalType": "address",
									"name": "market",
									"type": "address"
								},
								{
									"internalType": "address",
									"name": "gateAddress",
									"type": "address"
								},
								{
									"internalType": "uint160",
									"name": "authority",
									"type": "uint160"
								},
								{
									"internalType": "bytes32",
									"name": "name",
									"type": "bytes32"
								},
								{
									"internalType": "bytes32",
									"name": "website",
									"type": "bytes32"
								},
								{
									"internalType": "bytes32[10]",
									"name": "webserverip",
									"type": "bytes32[10]"
								},
								{
									"internalType": "uint32",
									"name": "createtimestamp",
									"type": "uint32"
								},
								{
									"internalType": "bool",
									"name": "marketunlock",
									"type": "bool"
								},
								{
									"internalType": "bool",
									"name": "unlock",
									"type": "bool"
								},
								{
									"internalType": "bool",
									"name": "isUsed",
									"type": "bool"
								}
							],
							"internalType": "struct LGate.Info",
							"name": "_gater",
							"type": "tuple"
						}
					],
					"name": "addGater",
					"outputs": [],
					"stateMutability": "nonpayable",
					"type": "function"
				},
				{
					"inputs": [
						{
							"internalType": "address",
							"name": "_gater",
							"type": "address"
						}
					],
					"name": "delGatebyMarketor",
					"outputs": [],
					"stateMutability": "nonpayable",
					"type": "function"
				},
				{
					"inputs": [
						{
							"internalType": "address",
							"name": "",
							"type": "address"
						}
					],
					"name": "gateList",
					"outputs": [
						{
							"internalType": "address",
							"name": "market",
							"type": "address"
						},
						{
							"internalType": "address",
							"name": "gateAddress",
							"type": "address"
						},
						{
							"internalType": "uint160",
							"name": "authority",
							"type": "uint160"
						},
						{
							"internalType": "bytes32",
							"name": "name",
							"type": "bytes32"
						},
						{
							"internalType": "bytes32",
							"name": "website",
							"type": "bytes32"
						},
						{
							"internalType": "uint32",
							"name": "createtimestamp",
							"type": "uint32"
						},
						{
							"internalType": "bool",
							"name": "marketunlock",
							"type": "bool"
						},
						{
							"internalType": "bool",
							"name": "unlock",
							"type": "bool"
						},
						{
							"internalType": "bool",
							"name": "isUsed",
							"type": "bool"
						}
					],
					"stateMutability": "view",
					"type": "function"
				},
				{
					"inputs": [],
					"name": "isValidGater",
					"outputs": [
						{
							"internalType": "bool",
							"name": "",
							"type": "bool"
						}
					],
					"stateMutability": "view",
					"type": "function"
				},
				{
					"inputs": [],
					"name": "lockGatebyGater",
					"outputs": [],
					"stateMutability": "nonpayable",
					"type": "function"
				},
				{
					"inputs": [
						{
							"internalType": "address",
							"name": "_gateraddress",
							"type": "address"
						}
					],
					"name": "lockGatebyMarketor",
					"outputs": [],
					"stateMutability": "nonpayable",
					"type": "function"
				},
				{
					"inputs": [],
					"name": "marketContractAddress",
					"outputs": [
						{
							"internalType": "address",
							"name": "",
							"type": "address"
						}
					],
					"stateMutability": "view",
					"type": "function"
				},
				{
					"inputs": [],
					"name": "marketorContractAddress",
					"outputs": [
						{
							"internalType": "address",
							"name": "",
							"type": "address"
						}
					],
					"stateMutability": "view",
					"type": "function"
				},
				{
					"inputs": [],
					"name": "unlockGatebyGater",
					"outputs": [],
					"stateMutability": "nonpayable",
					"type": "function"
				},
				{
					"inputs": [
						{
							"internalType": "address",
							"name": "_gateraddress",
							"type": "address"
						}
					],
					"name": "unlockGatebyMarketor",
					"outputs": [],
					"stateMutability": "nonpayable",
					"type": "function"
				},
				{
					"inputs": [
						{
							"components": [
								{
									"internalType": "address",
									"name": "market",
									"type": "address"
								},
								{
									"internalType": "address",
									"name": "gateAddress",
									"type": "address"
								},
								{
									"internalType": "uint160",
									"name": "authority",
									"type": "uint160"
								},
								{
									"internalType": "bytes32",
									"name": "name",
									"type": "bytes32"
								},
								{
									"internalType": "bytes32",
									"name": "website",
									"type": "bytes32"
								},
								{
									"internalType": "bytes32[10]",
									"name": "webserverip",
									"type": "bytes32[10]"
								},
								{
									"internalType": "uint32",
									"name": "createtimestamp",
									"type": "uint32"
								},
								{
									"internalType": "bool",
									"name": "marketunlock",
									"type": "bool"
								},
								{
									"internalType": "bool",
									"name": "unlock",
									"type": "bool"
								},
								{
									"internalType": "bool",
									"name": "isUsed",
									"type": "bool"
								}
							],
							"internalType": "struct LGate.Info",
							"name": "_gater",
							"type": "tuple"
						}
					],
					"name": "updateGatebyGator",
					"outputs": [],
					"stateMutability": "nonpayable",
					"type": "function"
				},
				{
					"inputs": [
						{
							"components": [
								{
									"internalType": "address",
									"name": "market",
									"type": "address"
								},
								{
									"internalType": "address",
									"name": "gateAddress",
									"type": "address"
								},
								{
									"internalType": "uint160",
									"name": "authority",
									"type": "uint160"
								},
								{
									"internalType": "bytes32",
									"name": "name",
									"type": "bytes32"
								},
								{
									"internalType": "bytes32",
									"name": "website",
									"type": "bytes32"
								},
								{
									"internalType": "bytes32[10]",
									"name": "webserverip",
									"type": "bytes32[10]"
								},
								{
									"internalType": "uint32",
									"name": "createtimestamp",
									"type": "uint32"
								},
								{
									"internalType": "bool",
									"name": "marketunlock",
									"type": "bool"
								},
								{
									"internalType": "bool",
									"name": "unlock",
									"type": "bool"
								},
								{
									"internalType": "bool",
									"name": "isUsed",
									"type": "bool"
								}
							],
							"internalType": "struct LGate.Info",
							"name": "_gater",
							"type": "tuple"
						}
					],
					"name": "updateGatebyMarketor",
					"outputs": [],
					"stateMutability": "nonpayable",
					"type": "function"
				}
			],
			"devdoc": {
				"kind": "dev",
				"methods": {},
				"version": 1
			},
			"evm": {
				"assembly": "    /* \"Contracts/MoonV1Gater.sol\":138:4201  contract MoonV1Gater {... */\n  mstore(0x40, 0x80)\n    /* \"Contracts/MoonV1Gater.sol\":346:569  constructor(... */\n  callvalue\n  dup1\n  iszero\n  tag_1\n  jumpi\n  0x00\n  dup1\n  revert\ntag_1:\n  pop\n  mload(0x40)\n  sub(codesize, bytecodeSize)\n  dup1\n  bytecodeSize\n  dup4\n  codecopy\n  dup2\n  add\n  0x40\n  dup2\n  swap1\n  mstore\n  tag_2\n  swap2\n  tag_3\n  jump\t// in\ntag_2:\n    /* \"Contracts/MoonV1Gater.sol\":456:477  marketContractAddress */\n  0x01\n    /* \"Contracts/MoonV1Gater.sol\":456:502  marketContractAddress = _marketContractAddress */\n  dup1\n  sload\n  sub(shl(0xa0, 0x01), 0x01)\n  swap4\n  dup5\n  and\n  not(sub(shl(0xa0, 0x01), 0x01))\n  swap2\n  dup3\n  and\n  or\n  swap1\n  swap2\n  sstore\n    /* \"Contracts/MoonV1Gater.sol\":512:535  marketorContractAddress */\n  0x02\n    /* \"Contracts/MoonV1Gater.sol\":512:562  marketorContractAddress = _marketorContractAddress */\n  dup1\n  sload\n  swap3\n  swap1\n  swap4\n  and\n  swap2\n  and\n  or\n  swap1\n  sstore\n    /* \"Contracts/MoonV1Gater.sol\":138:4201  contract MoonV1Gater {... */\n  jump(tag_7)\n    /* \"#utility.yul\":14:191   */\ntag_8:\n    /* \"#utility.yul\":93:106   */\n  dup1\n  mload\n  sub(shl(0xa0, 0x01), 0x01)\n    /* \"#utility.yul\":135:166   */\n  dup2\n  and\n    /* \"#utility.yul\":125:167   */\n  dup2\n  eq\n    /* \"#utility.yul\":115:185   */\n  tag_10\n  jumpi\n    /* \"#utility.yul\":181:182   */\n  0x00\n    /* \"#utility.yul\":178:179   */\n  dup1\n    /* \"#utility.yul\":171:183   */\n  revert\n    /* \"#utility.yul\":115:185   */\ntag_10:\n    /* \"#utility.yul\":14:191   */\n  swap2\n  swap1\n  pop\n  jump\t// out\n    /* \"#utility.yul\":196:489   */\ntag_3:\n    /* \"#utility.yul\":275:281   */\n  0x00\n    /* \"#utility.yul\":283:289   */\n  dup1\n    /* \"#utility.yul\":336:338   */\n  0x40\n    /* \"#utility.yul\":324:333   */\n  dup4\n    /* \"#utility.yul\":315:322   */\n  dup6\n    /* \"#utility.yul\":311:334   */\n  sub\n    /* \"#utility.yul\":307:339   */\n  slt\n    /* \"#utility.yul\":304:356   */\n  iszero\n  tag_12\n  jumpi\n    /* \"#utility.yul\":352:353   */\n  0x00\n    /* \"#utility.yul\":349:350   */\n  dup1\n    /* \"#utility.yul\":342:354   */\n  revert\n    /* \"#utility.yul\":304:356   */\ntag_12:\n    /* \"#utility.yul\":375:415   */\n  tag_13\n    /* \"#utility.yul\":405:414   */\n  dup4\n    /* \"#utility.yul\":375:415   */\n  tag_8\n  jump\t// in\ntag_13:\n    /* \"#utility.yul\":365:415   */\n  swap2\n  pop\n    /* \"#utility.yul\":434:483   */\n  tag_14\n    /* \"#utility.yul\":479:481   */\n  0x20\n    /* \"#utility.yul\":468:477   */\n  dup5\n    /* \"#utility.yul\":464:482   */\n  add\n    /* \"#utility.yul\":434:483   */\n  tag_8\n  jump\t// in\ntag_14:\n    /* \"#utility.yul\":424:483   */\n  swap1\n  pop\n    /* \"#utility.yul\":196:489   */\n  swap3\n  pop\n  swap3\n  swap1\n  pop\n  jump\t// out\ntag_7:\n    /* \"Contracts/MoonV1Gater.sol\":138:4201  contract MoonV1Gater {... */\n  dataSize(sub_0)\n  dup1\n  dataOffset(sub_0)\n  0x00\n  codecopy\n  0x00\n  return\nstop\n\nsub_0: assembly {\n        /* \"Contracts/MoonV1Gater.sol\":138:4201  contract MoonV1Gater {... */\n      mstore(0x40, 0x80)\n      callvalue\n      dup1\n      iszero\n      tag_1\n      jumpi\n      0x00\n      dup1\n      revert\n    tag_1:\n      pop\n      jumpi(tag_2, lt(calldatasize, 0x04))\n      shr(0xe0, calldataload(0x00))\n      dup1\n      0xa4786088\n      gt\n      tag_15\n      jumpi\n      dup1\n      0xd8feb7ff\n      gt\n      tag_16\n      jumpi\n      dup1\n      0xd8feb7ff\n      eq\n      tag_12\n      jumpi\n      dup1\n      0xf1c9f40f\n      eq\n      tag_13\n      jumpi\n      dup1\n      0xf3a42537\n      eq\n      tag_14\n      jumpi\n      0x00\n      dup1\n      revert\n    tag_16:\n      dup1\n      0xa4786088\n      eq\n      tag_9\n      jumpi\n      dup1\n      0xab3acb5c\n      eq\n      tag_10\n      jumpi\n      dup1\n      0xb614984d\n      eq\n      tag_11\n      jumpi\n      0x00\n      dup1\n      revert\n    tag_15:\n      dup1\n      0x492b7107\n      gt\n      tag_17\n      jumpi\n      dup1\n      0x492b7107\n      eq\n      tag_6\n      jumpi\n      dup1\n      0x71271f4d\n      eq\n      tag_7\n      jumpi\n      dup1\n      0x76941300\n      eq\n      tag_8\n      jumpi\n      0x00\n      dup1\n      revert\n    tag_17:\n      dup1\n      0x3087cbe3\n      eq\n      tag_3\n      jumpi\n      dup1\n      0x3bbae141\n      eq\n      tag_4\n      jumpi\n      dup1\n      0x45df4987\n      eq\n      tag_5\n      jumpi\n    tag_2:\n      0x00\n      dup1\n      revert\n        /* \"Contracts/MoonV1Gater.sol\":259:295  address public marketContractAddress */\n    tag_3:\n      sload(0x01)\n      tag_18\n      swap1\n      sub(shl(0xa0, 0x01), 0x01)\n      and\n      dup2\n      jump\n    tag_18:\n      mload(0x40)\n      sub(shl(0xa0, 0x01), 0x01)\n        /* \"#utility.yul\":2762:2817   */\n      swap1\n      swap2\n      and\n        /* \"#utility.yul\":2744:2818   */\n      dup2\n      mstore\n        /* \"#utility.yul\":2732:2734   */\n      0x20\n        /* \"#utility.yul\":2717:2735   */\n      add\n        /* \"Contracts/MoonV1Gater.sol\":259:295  address public marketContractAddress */\n    tag_20:\n      mload(0x40)\n      dup1\n      swap2\n      sub\n      swap1\n      return\n        /* \"Contracts/MoonV1Gater.sol\":2585:2861  function lockGatebyGater() external onlyGator {... */\n    tag_4:\n      tag_22\n      tag_23\n      jump\t// in\n    tag_22:\n      stop\n        /* \"Contracts/MoonV1Gater.sol\":206:252  mapping(address => LGate.Info) public gateList */\n    tag_5:\n      tag_24\n      tag_25\n      calldatasize\n      0x04\n      tag_26\n      jump\t// in\n    tag_25:\n      0x00\n      0x20\n      dup2\n      swap1\n      mstore\n      swap1\n      dup2\n      mstore\n      0x40\n      swap1\n      keccak256\n      dup1\n      sload\n      0x01\n      dup3\n      add\n      sload\n      0x02\n      dup4\n      add\n      sload\n      0x03\n      dup5\n      add\n      sload\n      0x04\n      dup6\n      add\n      sload\n      0x0f\n      swap1\n      swap6\n      add\n      sload\n      sub(shl(0xa0, 0x01), 0x01)\n      swap5\n      dup6\n      and\n      swap6\n      swap4\n      dup6\n      and\n      swap5\n      swap3\n      swap1\n      swap3\n      and\n      swap3\n      swap1\n      swap2\n      0xffffffff\n      dup2\n      and\n      swap1\n      0xff\n      0x0100000000\n      dup3\n      div\n      dup2\n      and\n      swap2\n      0x010000000000\n      dup2\n      div\n      dup3\n      and\n      swap2\n      0x01000000000000\n      swap1\n      swap2\n      div\n      and\n      dup10\n      jump\n    tag_24:\n      0x40\n      dup1\n      mload\n      sub(shl(0xa0, 0x01), 0x01)\n        /* \"#utility.yul\":3259:3274   */\n      swap11\n      dup12\n      and\n        /* \"#utility.yul\":3241:3275   */\n      dup2\n      mstore\n        /* \"#utility.yul\":3311:3326   */\n      swap9\n      dup11\n      and\n        /* \"#utility.yul\":3306:3308   */\n      0x20\n        /* \"#utility.yul\":3291:3309   */\n      dup11\n      add\n        /* \"#utility.yul\":3284:3327   */\n      mstore\n        /* \"#utility.yul\":3363:3378   */\n      swap7\n      swap1\n      swap9\n      and\n        /* \"#utility.yul\":3343:3361   */\n      swap6\n      dup8\n      add\n        /* \"#utility.yul\":3336:3379   */\n      swap6\n      swap1\n      swap6\n      mstore\n        /* \"#utility.yul\":3410:3412   */\n      0x60\n        /* \"#utility.yul\":3395:3413   */\n      dup7\n      add\n        /* \"#utility.yul\":3388:3422   */\n      swap4\n      swap1\n      swap4\n      mstore\n        /* \"#utility.yul\":3453:3456   */\n      0x80\n        /* \"#utility.yul\":3438:3457   */\n      dup6\n      add\n        /* \"#utility.yul\":3431:3466   */\n      swap2\n      swap1\n      swap2\n      mstore\n        /* \"#utility.yul\":3515:3525   */\n      0xffffffff\n        /* \"#utility.yul\":3503:3526   */\n      and\n        /* \"#utility.yul\":3497:3500   */\n      0xa0\n        /* \"#utility.yul\":3482:3501   */\n      dup5\n      add\n        /* \"#utility.yul\":3475:3527   */\n      mstore\n        /* \"#utility.yul\":3571:3585   */\n      iszero\n        /* \"#utility.yul\":3564:3586   */\n      iszero\n        /* \"#utility.yul\":3558:3561   */\n      0xc0\n        /* \"#utility.yul\":3543:3562   */\n      dup4\n      add\n        /* \"#utility.yul\":3536:3587   */\n      mstore\n        /* \"#utility.yul\":3631:3645   */\n      iszero\n        /* \"#utility.yul\":3624:3646   */\n      iszero\n        /* \"#utility.yul\":3618:3621   */\n      0xe0\n        /* \"#utility.yul\":3603:3622   */\n      dup3\n      add\n        /* \"#utility.yul\":3596:3647   */\n      mstore\n        /* \"#utility.yul\":3691:3705   */\n      swap1\n      iszero\n        /* \"#utility.yul\":3684:3706   */\n      iszero\n        /* \"#utility.yul\":3678:3681   */\n      0x0100\n        /* \"#utility.yul\":3663:3682   */\n      dup3\n      add\n        /* \"#utility.yul\":3656:3707   */\n      mstore\n        /* \"#utility.yul\":3167:3170   */\n      0x0120\n        /* \"#utility.yul\":3152:3171   */\n      add\n        /* \"Contracts/MoonV1Gater.sol\":206:252  mapping(address => LGate.Info) public gateList */\n      tag_20\n        /* \"#utility.yul\":2829:3713   */\n      jump\n        /* \"Contracts/MoonV1Gater.sol\":301:339  address public marketorContractAddress */\n    tag_6:\n      sload(0x02)\n      tag_18\n      swap1\n      sub(shl(0xa0, 0x01), 0x01)\n      and\n      dup2\n      jump\n        /* \"Contracts/MoonV1Gater.sol\":1829:2240  function updateGatebyMarketor(LGate.Info memory _gater)... */\n    tag_7:\n      tag_22\n      tag_34\n      calldatasize\n      0x04\n      tag_35\n      jump\t// in\n    tag_34:\n      tag_36\n      jump\t// in\n        /* \"Contracts/MoonV1Gater.sol\":1481:1758  function unlockGatebyMarketor(address _gateraddress)... */\n    tag_8:\n      tag_22\n      tag_38\n      calldatasize\n      0x04\n      tag_26\n      jump\t// in\n    tag_38:\n      tag_39\n      jump\t// in\n        /* \"Contracts/MoonV1Gater.sol\":1201:1475  function lockGatebyMarketor(address _gateraddress)... */\n    tag_9:\n      tag_22\n      tag_41\n      calldatasize\n      0x04\n      tag_26\n      jump\t// in\n    tag_41:\n      tag_42\n      jump\t// in\n        /* \"Contracts/MoonV1Gater.sol\":4089:4199  function isValidGater() external view returns (bool) {... */\n    tag_10:\n        /* \"Contracts/MoonV1Gater.sol\":4168:4178  msg.sender */\n      caller\n        /* \"Contracts/MoonV1Gater.sol\":4136:4140  bool */\n      0x00\n        /* \"Contracts/MoonV1Gater.sol\":4159:4179  gateList[msg.sender] */\n      swap1\n      dup2\n      mstore\n      0x20\n      dup2\n      swap1\n      mstore\n      0x40\n      swap1\n      keccak256\n        /* \"Contracts/MoonV1Gater.sol\":4159:4192  gateList[msg.sender].marketunlock */\n      0x0f\n      add\n      sload\n      0x0100000000\n      swap1\n      div\n      0xff\n      and\n        /* \"Contracts/MoonV1Gater.sol\":4089:4199  function isValidGater() external view returns (bool) {... */\n      mload(0x40)\n        /* \"#utility.yul\":3883:3897   */\n      swap1\n      iszero\n        /* \"#utility.yul\":3876:3898   */\n      iszero\n        /* \"#utility.yul\":3858:3899   */\n      dup2\n      mstore\n        /* \"#utility.yul\":3846:3848   */\n      0x20\n        /* \"#utility.yul\":3831:3849   */\n      add\n        /* \"Contracts/MoonV1Gater.sol\":4089:4199  function isValidGater() external view returns (bool) {... */\n      tag_20\n        /* \"#utility.yul\":3718:3905   */\n      jump\n        /* \"Contracts/MoonV1Gater.sol\":2246:2431  function delGatebyMarketor(address _gater) external onlyMarketManager {... */\n    tag_11:\n      tag_22\n      tag_48\n      calldatasize\n      0x04\n      tag_26\n      jump\t// in\n    tag_48:\n      tag_49\n      jump\t// in\n        /* \"Contracts/MoonV1Gater.sol\":3624:4083  function addGater(LGate.Info memory _gater) external {... */\n    tag_12:\n      tag_22\n      tag_51\n      calldatasize\n      0x04\n      tag_35\n      jump\t// in\n    tag_51:\n      tag_52\n      jump\t// in\n        /* \"Contracts/MoonV1Gater.sol\":2867:3146  function unlockGatebyGater() external onlyGator {... */\n    tag_13:\n      tag_22\n      tag_54\n      jump\t// in\n        /* \"Contracts/MoonV1Gater.sol\":3177:3618  function updateGatebyGator(LGate.Info memory _gater) external onlyGator {... */\n    tag_14:\n      tag_22\n      tag_56\n      calldatasize\n      0x04\n      tag_35\n      jump\t// in\n    tag_56:\n      tag_57\n      jump\t// in\n        /* \"Contracts/MoonV1Gater.sol\":2585:2861  function lockGatebyGater() external onlyGator {... */\n    tag_23:\n        /* \"Contracts/MoonV1Gater.sol\":731:741  msg.sender */\n      caller\n        /* \"Contracts/MoonV1Gater.sol\":722:730  gateList */\n      0x00\n        /* \"Contracts/MoonV1Gater.sol\":722:742  gateList[msg.sender] */\n      swap1\n      dup2\n      mstore\n      0x20\n      dup2\n      swap1\n      mstore\n      0x40\n      swap1\n      keccak256\n        /* \"Contracts/MoonV1Gater.sol\":722:755  gateList[msg.sender].marketunlock */\n      0x0f\n      add\n      sload\n      0x0100000000\n      swap1\n      div\n      0xff\n      and\n        /* \"Contracts/MoonV1Gater.sol\":722:763  gateList[msg.sender].marketunlock == true */\n      iszero\n      iszero\n        /* \"Contracts/MoonV1Gater.sol\":759:763  true */\n      0x01\n        /* \"Contracts/MoonV1Gater.sol\":722:763  gateList[msg.sender].marketunlock == true */\n      eq\n        /* \"Contracts/MoonV1Gater.sol\":714:764  require(gateList[msg.sender].marketunlock == true) */\n      tag_59\n      jumpi\n      0x00\n      dup1\n      revert\n    tag_59:\n        /* \"Contracts/MoonV1Gater.sol\":2671:2681  msg.sender */\n      caller\n        /* \"Contracts/MoonV1Gater.sol\":2662:2670  gateList */\n      0x00\n        /* \"Contracts/MoonV1Gater.sol\":2662:2682  gateList[msg.sender] */\n      swap1\n      dup2\n      mstore\n      0x20\n      dup2\n      swap1\n      mstore\n      0x40\n      swap1\n      keccak256\n        /* \"Contracts/MoonV1Gater.sol\":2662:2689  gateList[msg.sender].isUsed */\n      0x0f\n      add\n      sload\n      0x01000000000000\n      swap1\n      div\n      0xff\n      and\n        /* \"Contracts/MoonV1Gater.sol\":2662:2697  gateList[msg.sender].isUsed == true */\n      iszero\n      iszero\n        /* \"Contracts/MoonV1Gater.sol\":2693:2697  true */\n      0x01\n        /* \"Contracts/MoonV1Gater.sol\":2662:2697  gateList[msg.sender].isUsed == true */\n      eq\n        /* \"Contracts/MoonV1Gater.sol\":2662:2763  gateList[msg.sender].isUsed == true &&... */\n      dup1\n      iszero\n      tag_61\n      jumpi\n      pop\n        /* \"Contracts/MoonV1Gater.sol\":2753:2763  msg.sender */\n      caller\n        /* \"Contracts/MoonV1Gater.sol\":2717:2725  gateList */\n      0x00\n        /* \"Contracts/MoonV1Gater.sol\":2717:2737  gateList[msg.sender] */\n      dup2\n      dup2\n      mstore\n      0x20\n      dup2\n      swap1\n      mstore\n      0x40\n      swap1\n      keccak256\n        /* \"Contracts/MoonV1Gater.sol\":2717:2749  gateList[msg.sender].gateAddress */\n      0x01\n      add\n      sload\n      sub(shl(0xa0, 0x01), 0x01)\n      and\n        /* \"Contracts/MoonV1Gater.sol\":2717:2763  gateList[msg.sender].gateAddress == msg.sender */\n      eq\n        /* \"Contracts/MoonV1Gater.sol\":2662:2763  gateList[msg.sender].isUsed == true &&... */\n    tag_61:\n        /* \"Contracts/MoonV1Gater.sol\":2641:2810  require(... */\n      tag_62\n      jumpi\n      mload(0x40)\n      shl(0xe5, 0x461bcd)\n      dup2\n      mstore\n        /* \"#utility.yul\":4807:4809   */\n      0x20\n        /* \"Contracts/MoonV1Gater.sol\":2641:2810  require(... */\n      0x04\n      dup3\n      add\n        /* \"#utility.yul\":4789:4810   */\n      mstore\n        /* \"#utility.yul\":4846:4848   */\n      0x15\n        /* \"#utility.yul\":4826:4844   */\n      0x24\n      dup3\n      add\n        /* \"#utility.yul\":4819:4849   */\n      mstore\n        /* \"#utility.yul\":4885:4908   */\n      0x7468652067617465722069736e6f742065786973740000000000000000000000\n        /* \"#utility.yul\":4865:4883   */\n      0x44\n      dup3\n      add\n        /* \"#utility.yul\":4858:4909   */\n      mstore\n        /* \"#utility.yul\":4926:4944   */\n      0x64\n      add\n        /* \"Contracts/MoonV1Gater.sol\":2641:2810  require(... */\n    tag_63:\n      mload(0x40)\n      dup1\n      swap2\n      sub\n      swap1\n      revert\n    tag_62:\n        /* \"Contracts/MoonV1Gater.sol\":2829:2839  msg.sender */\n      caller\n        /* \"Contracts/MoonV1Gater.sol\":2820:2828  gateList */\n      0x00\n        /* \"Contracts/MoonV1Gater.sol\":2820:2840  gateList[msg.sender] */\n      swap1\n      dup2\n      mstore\n      0x20\n      dup2\n      swap1\n      mstore\n      0x40\n      swap1\n      keccak256\n        /* \"Contracts/MoonV1Gater.sol\":2820:2847  gateList[msg.sender].unlock */\n      0x0f\n      add\n        /* \"Contracts/MoonV1Gater.sol\":2820:2854  gateList[msg.sender].unlock = true */\n      dup1\n      sload\n      not(0xff0000000000)\n      and\n      0x010000000000\n      or\n      swap1\n      sstore\n        /* \"Contracts/MoonV1Gater.sol\":2585:2861  function lockGatebyGater() external onlyGator {... */\n      jump\t// out\n        /* \"Contracts/MoonV1Gater.sol\":1829:2240  function updateGatebyMarketor(LGate.Info memory _gater)... */\n    tag_36:\n        /* \"Contracts/MoonV1Gater.sol\":971:994  marketorContractAddress */\n      0x02\n      0x00\n      swap1\n      sload\n      swap1\n      0x0100\n      exp\n      swap1\n      div\n      sub(shl(0xa0, 0x01), 0x01)\n      and\n      sub(shl(0xa0, 0x01), 0x01)\n        /* \"Contracts/MoonV1Gater.sol\":957:1011  MoonV1Manager(marketorContractAddress).ismarketManager */\n      and\n      0x1487f252\n        /* \"Contracts/MoonV1Gater.sol\":957:1013  MoonV1Manager(marketorContractAddress).ismarketManager() */\n      mload(0x40)\n      dup2\n      0xffffffff\n      and\n      0xe0\n      shl\n      dup2\n      mstore\n      0x04\n      add\n      0x20\n      mload(0x40)\n      dup1\n      dup4\n      sub\n      dup2\n      dup7\n      dup1\n      extcodesize\n      iszero\n      dup1\n      iszero\n      tag_66\n      jumpi\n      0x00\n      dup1\n      revert\n    tag_66:\n      pop\n      gas\n      staticcall\n      iszero\n      dup1\n      iszero\n      tag_68\n      jumpi\n      returndatasize\n      0x00\n      dup1\n      returndatacopy\n      revert(0x00, returndatasize)\n    tag_68:\n      pop\n      pop\n      pop\n      pop\n      mload(0x40)\n      returndatasize\n      not(0x1f)\n      0x1f\n      dup3\n      add\n      and\n      dup3\n      add\n      dup1\n      0x40\n      mstore\n      pop\n      dup2\n      add\n      swap1\n      tag_69\n      swap2\n      swap1\n      tag_70\n      jump\t// in\n    tag_69:\n        /* \"Contracts/MoonV1Gater.sol\":957:1021  MoonV1Manager(marketorContractAddress).ismarketManager() == true */\n      iszero\n      iszero\n        /* \"Contracts/MoonV1Gater.sol\":1017:1021  true */\n      0x01\n        /* \"Contracts/MoonV1Gater.sol\":957:1021  MoonV1Manager(marketorContractAddress).ismarketManager() == true */\n      eq\n        /* \"Contracts/MoonV1Gater.sol\":936:1031  require(... */\n      tag_71\n      jumpi\n      0x00\n      dup1\n      revert\n    tag_71:\n        /* \"Contracts/MoonV1Gater.sol\":1972:1990  _gater.gateAddress */\n      0x20\n      dup2\n      dup2\n      add\n      mload\n      sub(shl(0xa0, 0x01), 0x01)\n        /* \"Contracts/MoonV1Gater.sol\":1963:1991  gateList[_gater.gateAddress] */\n      and\n        /* \"Contracts/MoonV1Gater.sol\":1963:1971  gateList */\n      0x00\n        /* \"Contracts/MoonV1Gater.sol\":1963:1991  gateList[_gater.gateAddress] */\n      swap1\n      dup2\n      mstore\n      swap1\n      dup2\n      swap1\n      mstore\n      0x40\n      swap1\n      keccak256\n        /* \"Contracts/MoonV1Gater.sol\":1963:1998  gateList[_gater.gateAddress].isUsed */\n      0x0f\n      add\n      sload\n      0x01000000000000\n      swap1\n      div\n      0xff\n      and\n        /* \"Contracts/MoonV1Gater.sol\":1963:2006  gateList[_gater.gateAddress].isUsed == true */\n      iszero\n      iszero\n        /* \"Contracts/MoonV1Gater.sol\":2002:2006  true */\n      0x01\n        /* \"Contracts/MoonV1Gater.sol\":1963:2006  gateList[_gater.gateAddress].isUsed == true */\n      eq\n        /* \"Contracts/MoonV1Gater.sol\":1942:2052  require(... */\n      tag_73\n      jumpi\n      mload(0x40)\n      shl(0xe5, 0x461bcd)\n      dup2\n      mstore\n        /* \"#utility.yul\":4458:4460   */\n      0x20\n        /* \"Contracts/MoonV1Gater.sol\":1942:2052  require(... */\n      0x04\n      dup3\n      add\n        /* \"#utility.yul\":4440:4461   */\n      mstore\n        /* \"#utility.yul\":4497:4499   */\n      0x14\n        /* \"#utility.yul\":4477:4495   */\n      0x24\n      dup3\n      add\n        /* \"#utility.yul\":4470:4500   */\n      mstore\n        /* \"#utility.yul\":4536:4558   */\n      0x7468652067617465722069732065786973746572000000000000000000000000\n        /* \"#utility.yul\":4516:4534   */\n      0x44\n      dup3\n      add\n        /* \"#utility.yul\":4509:4559   */\n      mstore\n        /* \"#utility.yul\":4576:4594   */\n      0x64\n      add\n        /* \"Contracts/MoonV1Gater.sol\":1942:2052  require(... */\n      tag_63\n        /* \"#utility.yul\":4256:4600   */\n      jump\n        /* \"Contracts/MoonV1Gater.sol\":1942:2052  require(... */\n    tag_73:\n        /* \"Contracts/MoonV1Gater.sol\":2093:2111  _gater.gateAddress */\n      0x20\n      dup2\n      dup2\n      add\n      dup1\n      mload\n      sub(shl(0xa0, 0x01), 0x01)\n        /* \"Contracts/MoonV1Gater.sol\":2084:2112  gateList[_gater.gateAddress] */\n      swap1\n      dup2\n      and\n        /* \"Contracts/MoonV1Gater.sol\":2084:2092  gateList */\n      0x00\n        /* \"Contracts/MoonV1Gater.sol\":2084:2112  gateList[_gater.gateAddress] */\n      swap1\n      dup2\n      mstore\n      dup1\n      dup5\n      mstore\n      0x40\n      dup1\n      dup3\n      keccak256\n        /* \"Contracts/MoonV1Gater.sol\":2084:2125  gateList[_gater.gateAddress].marketunlock */\n      0x0f\n      swap1\n      dup2\n      add\n      sload\n      0x0100000000\n      swap1\n      div\n      0xff\n      swap1\n      dup2\n      and\n        /* \"Contracts/MoonV1Gater.sol\":2062:2125  _gater.marketunlock = gateList[_gater.gateAddress].marketunlock */\n      iszero\n      iszero\n        /* \"Contracts/MoonV1Gater.sol\":2062:2081  _gater.marketunlock */\n      0xe0\n      dup10\n      add\n        /* \"Contracts/MoonV1Gater.sol\":2062:2125  _gater.marketunlock = gateList[_gater.gateAddress].marketunlock */\n      mstore\n        /* \"Contracts/MoonV1Gater.sol\":2160:2178  _gater.gateAddress */\n      dup6\n      mload\n        /* \"Contracts/MoonV1Gater.sol\":2151:2179  gateList[_gater.gateAddress] */\n      dup6\n      and\n      dup5\n      mstore\n      dup4\n      dup8\n      mstore\n      dup3\n      dup5\n      keccak256\n        /* \"Contracts/MoonV1Gater.sol\":2151:2186  gateList[_gater.gateAddress].unlock */\n      swap1\n      swap2\n      add\n      sload\n      0x010000000000\n      swap1\n      div\n      and\n        /* \"Contracts/MoonV1Gater.sol\":2135:2186  _gater.unlock = gateList[_gater.gateAddress].unlock */\n      iszero\n      iszero\n        /* \"Contracts/MoonV1Gater.sol\":2084:2125  gateList[_gater.gateAddress].marketunlock */\n      0x0100\n        /* \"Contracts/MoonV1Gater.sol\":2135:2148  _gater.unlock */\n      dup8\n      add\n        /* \"Contracts/MoonV1Gater.sol\":2135:2186  _gater.unlock = gateList[_gater.gateAddress].unlock */\n      mstore\n        /* \"Contracts/MoonV1Gater.sol\":2205:2223  _gater.gateAddress */\n      dup4\n      mload\n        /* \"Contracts/MoonV1Gater.sol\":2196:2224  gateList[_gater.gateAddress] */\n      dup4\n      and\n      dup3\n      mstore\n      swap4\n      dup2\n      swap1\n      mstore\n      dup4\n      swap1\n      keccak256\n        /* \"Contracts/MoonV1Gater.sol\":2196:2233  gateList[_gater.gateAddress] = _gater */\n      dup5\n      mload\n      dup2\n      sload\n      not(0xffffffffffffffffffffffffffffffffffffffff)\n      swap1\n      dup2\n      and\n      swap2\n      dup5\n      and\n      swap2\n      swap1\n      swap2\n      or\n      dup3\n      sstore\n      swap3\n      mload\n      0x01\n      dup3\n      add\n      dup1\n      sload\n      dup6\n      and\n      swap2\n      dup5\n      and\n      swap2\n      swap1\n      swap2\n      or\n      swap1\n      sstore\n      swap3\n      dup5\n      add\n      mload\n      0x02\n      dup5\n      add\n      dup1\n      sload\n      swap1\n      swap4\n      and\n      swap2\n      and\n      or\n      swap1\n      sstore\n      0x60\n      dup3\n      add\n      mload\n      0x03\n      dup3\n      add\n      sstore\n      0x80\n      dup3\n      add\n      mload\n        /* \"Contracts/MoonV1Gater.sol\":2084:2125  gateList[_gater.gateAddress].marketunlock */\n      0x04\n        /* \"Contracts/MoonV1Gater.sol\":2196:2233  gateList[_gater.gateAddress] = _gater */\n      dup3\n      add\n      sstore\n      0xa0\n      dup3\n      add\n      mload\n        /* \"Contracts/MoonV1Gater.sol\":2093:2111  _gater.gateAddress */\n      dup3\n      swap2\n        /* \"Contracts/MoonV1Gater.sol\":2196:2224  gateList[_gater.gateAddress] */\n      swap1\n        /* \"Contracts/MoonV1Gater.sol\":2196:2233  gateList[_gater.gateAddress] = _gater */\n      tag_76\n      swap1\n        /* \"Contracts/MoonV1Gater.sol\":2151:2186  gateList[_gater.gateAddress].unlock */\n      0x05\n        /* \"Contracts/MoonV1Gater.sol\":2196:2233  gateList[_gater.gateAddress] = _gater */\n      dup4\n      add\n      swap1\n      0x0a\n      tag_77\n      jump\t// in\n    tag_76:\n      pop\n      0xc0\n      dup3\n      add\n      mload\n      0x0f\n      swap1\n      swap2\n      add\n      dup1\n      sload\n      0xe0\n      dup5\n      add\n      mload\n      0x0100\n      dup6\n      add\n      mload\n      0x0120\n      swap1\n      swap6\n      add\n      mload\n      iszero\n      iszero\n      0x01000000000000\n      mul\n      0xffffffffffffffffffffffffffffffffffffffffffffffffff00ffffffffffff\n      swap6\n      iszero\n      iszero\n      0x010000000000\n      mul\n      swap6\n      swap1\n      swap6\n      and\n      0xffffffffffffffffffffffffffffffffffffffffffffffffff0000ffffffffff\n      swap2\n      iszero\n      iszero\n      0x0100000000\n      mul\n      0xffffffffffffffffffffffffffffffffffffffffffffffffffffff0000000000\n      swap1\n      swap4\n      and\n      0xffffffff\n      swap1\n      swap6\n      and\n      swap5\n      swap1\n      swap5\n      or\n      swap2\n      swap1\n      swap2\n      or\n      and\n      swap2\n      swap1\n      swap2\n      or\n      swap2\n      swap1\n      swap2\n      or\n      swap1\n      sstore\n      pop\n        /* \"Contracts/MoonV1Gater.sol\":1829:2240  function updateGatebyMarketor(LGate.Info memory _gater)... */\n      jump\t// out\n        /* \"Contracts/MoonV1Gater.sol\":1481:1758  function unlockGatebyMarketor(address _gateraddress)... */\n    tag_39:\n        /* \"Contracts/MoonV1Gater.sol\":971:994  marketorContractAddress */\n      0x02\n      0x00\n      swap1\n      sload\n      swap1\n      0x0100\n      exp\n      swap1\n      div\n      sub(shl(0xa0, 0x01), 0x01)\n      and\n      sub(shl(0xa0, 0x01), 0x01)\n        /* \"Contracts/MoonV1Gater.sol\":957:1011  MoonV1Manager(marketorContractAddress).ismarketManager */\n      and\n      0x1487f252\n        /* \"Contracts/MoonV1Gater.sol\":957:1013  MoonV1Manager(marketorContractAddress).ismarketManager() */\n      mload(0x40)\n      dup2\n      0xffffffff\n      and\n      0xe0\n      shl\n      dup2\n      mstore\n      0x04\n      add\n      0x20\n      mload(0x40)\n      dup1\n      dup4\n      sub\n      dup2\n      dup7\n      dup1\n      extcodesize\n      iszero\n      dup1\n      iszero\n      tag_79\n      jumpi\n      0x00\n      dup1\n      revert\n    tag_79:\n      pop\n      gas\n      staticcall\n      iszero\n      dup1\n      iszero\n      tag_81\n      jumpi\n      returndatasize\n      0x00\n      dup1\n      returndatacopy\n      revert(0x00, returndatasize)\n    tag_81:\n      pop\n      pop\n      pop\n      pop\n      mload(0x40)\n      returndatasize\n      not(0x1f)\n      0x1f\n      dup3\n      add\n      and\n      dup3\n      add\n      dup1\n      0x40\n      mstore\n      pop\n      dup2\n      add\n      swap1\n      tag_82\n      swap2\n      swap1\n      tag_70\n      jump\t// in\n    tag_82:\n        /* \"Contracts/MoonV1Gater.sol\":957:1021  MoonV1Manager(marketorContractAddress).ismarketManager() == true */\n      iszero\n      iszero\n        /* \"Contracts/MoonV1Gater.sol\":1017:1021  true */\n      0x01\n        /* \"Contracts/MoonV1Gater.sol\":957:1021  MoonV1Manager(marketorContractAddress).ismarketManager() == true */\n      eq\n        /* \"Contracts/MoonV1Gater.sol\":936:1031  require(... */\n      tag_83\n      jumpi\n      0x00\n      dup1\n      revert\n    tag_83:\n      sub(shl(0xa0, 0x01), 0x01)\n        /* \"Contracts/MoonV1Gater.sol\":1612:1635  gateList[_gateraddress] */\n      dup2\n      and\n        /* \"Contracts/MoonV1Gater.sol\":1612:1620  gateList */\n      0x00\n        /* \"Contracts/MoonV1Gater.sol\":1612:1635  gateList[_gateraddress] */\n      swap1\n      dup2\n      mstore\n      0x20\n      dup2\n      swap1\n      mstore\n      0x40\n      swap1\n      keccak256\n        /* \"Contracts/MoonV1Gater.sol\":1612:1642  gateList[_gateraddress].isUsed */\n      0x0f\n      add\n      sload\n      0x01000000000000\n      swap1\n      div\n      0xff\n      and\n        /* \"Contracts/MoonV1Gater.sol\":1612:1650  gateList[_gateraddress].isUsed == true */\n      iszero\n      iszero\n        /* \"Contracts/MoonV1Gater.sol\":1646:1650  true */\n      0x01\n        /* \"Contracts/MoonV1Gater.sol\":1612:1650  gateList[_gateraddress].isUsed == true */\n      eq\n        /* \"Contracts/MoonV1Gater.sol\":1591:1697  require(... */\n      tag_85\n      jumpi\n      mload(0x40)\n      shl(0xe5, 0x461bcd)\n      dup2\n      mstore\n        /* \"#utility.yul\":4807:4809   */\n      0x20\n        /* \"Contracts/MoonV1Gater.sol\":1591:1697  require(... */\n      0x04\n      dup3\n      add\n        /* \"#utility.yul\":4789:4810   */\n      mstore\n        /* \"#utility.yul\":4846:4848   */\n      0x15\n        /* \"#utility.yul\":4826:4844   */\n      0x24\n      dup3\n      add\n        /* \"#utility.yul\":4819:4849   */\n      mstore\n        /* \"#utility.yul\":4885:4908   */\n      0x7468652067617465722069736e6f742065786973740000000000000000000000\n        /* \"#utility.yul\":4865:4883   */\n      0x44\n      dup3\n      add\n        /* \"#utility.yul\":4858:4909   */\n      mstore\n        /* \"#utility.yul\":4926:4944   */\n      0x64\n      add\n        /* \"Contracts/MoonV1Gater.sol\":1591:1697  require(... */\n      tag_63\n        /* \"#utility.yul\":4605:4950   */\n      jump\n        /* \"Contracts/MoonV1Gater.sol\":1591:1697  require(... */\n    tag_85:\n      sub(shl(0xa0, 0x01), 0x01)\n        /* \"Contracts/MoonV1Gater.sol\":1707:1730  gateList[_gateraddress] */\n      and\n        /* \"Contracts/MoonV1Gater.sol\":1746:1751  false */\n      0x00\n        /* \"Contracts/MoonV1Gater.sol\":1707:1730  gateList[_gateraddress] */\n      swap1\n      dup2\n      mstore\n      0x20\n      dup2\n      swap1\n      mstore\n      0x40\n      swap1\n      keccak256\n        /* \"Contracts/MoonV1Gater.sol\":1707:1743  gateList[_gateraddress].marketunlock */\n      0x0f\n      add\n        /* \"Contracts/MoonV1Gater.sol\":1707:1751  gateList[_gateraddress].marketunlock = false */\n      dup1\n      sload\n      not(0xff00000000)\n      and\n      swap1\n      sstore\n        /* \"Contracts/MoonV1Gater.sol\":1481:1758  function unlockGatebyMarketor(address _gateraddress)... */\n      jump\t// out\n        /* \"Contracts/MoonV1Gater.sol\":1201:1475  function lockGatebyMarketor(address _gateraddress)... */\n    tag_42:\n        /* \"Contracts/MoonV1Gater.sol\":971:994  marketorContractAddress */\n      0x02\n      0x00\n      swap1\n      sload\n      swap1\n      0x0100\n      exp\n      swap1\n      div\n      sub(shl(0xa0, 0x01), 0x01)\n      and\n      sub(shl(0xa0, 0x01), 0x01)\n        /* \"Contracts/MoonV1Gater.sol\":957:1011  MoonV1Manager(marketorContractAddress).ismarketManager */\n      and\n      0x1487f252\n        /* \"Contracts/MoonV1Gater.sol\":957:1013  MoonV1Manager(marketorContractAddress).ismarketManager() */\n      mload(0x40)\n      dup2\n      0xffffffff\n      and\n      0xe0\n      shl\n      dup2\n      mstore\n      0x04\n      add\n      0x20\n      mload(0x40)\n      dup1\n      dup4\n      sub\n      dup2\n      dup7\n      dup1\n      extcodesize\n      iszero\n      dup1\n      iszero\n      tag_88\n      jumpi\n      0x00\n      dup1\n      revert\n    tag_88:\n      pop\n      gas\n      staticcall\n      iszero\n      dup1\n      iszero\n      tag_90\n      jumpi\n      returndatasize\n      0x00\n      dup1\n      returndatacopy\n      revert(0x00, returndatasize)\n    tag_90:\n      pop\n      pop\n      pop\n      pop\n      mload(0x40)\n      returndatasize\n      not(0x1f)\n      0x1f\n      dup3\n      add\n      and\n      dup3\n      add\n      dup1\n      0x40\n      mstore\n      pop\n      dup2\n      add\n      swap1\n      tag_91\n      swap2\n      swap1\n      tag_70\n      jump\t// in\n    tag_91:\n        /* \"Contracts/MoonV1Gater.sol\":957:1021  MoonV1Manager(marketorContractAddress).ismarketManager() == true */\n      iszero\n      iszero\n        /* \"Contracts/MoonV1Gater.sol\":1017:1021  true */\n      0x01\n        /* \"Contracts/MoonV1Gater.sol\":957:1021  MoonV1Manager(marketorContractAddress).ismarketManager() == true */\n      eq\n        /* \"Contracts/MoonV1Gater.sol\":936:1031  require(... */\n      tag_92\n      jumpi\n      0x00\n      dup1\n      revert\n    tag_92:\n      sub(shl(0xa0, 0x01), 0x01)\n        /* \"Contracts/MoonV1Gater.sol\":1330:1353  gateList[_gateraddress] */\n      dup2\n      and\n        /* \"Contracts/MoonV1Gater.sol\":1330:1338  gateList */\n      0x00\n        /* \"Contracts/MoonV1Gater.sol\":1330:1353  gateList[_gateraddress] */\n      swap1\n      dup2\n      mstore\n      0x20\n      dup2\n      swap1\n      mstore\n      0x40\n      swap1\n      keccak256\n        /* \"Contracts/MoonV1Gater.sol\":1330:1360  gateList[_gateraddress].isUsed */\n      0x0f\n      add\n      sload\n      0x01000000000000\n      swap1\n      div\n      0xff\n      and\n        /* \"Contracts/MoonV1Gater.sol\":1330:1368  gateList[_gateraddress].isUsed == true */\n      iszero\n      iszero\n        /* \"Contracts/MoonV1Gater.sol\":1364:1368  true */\n      0x01\n        /* \"Contracts/MoonV1Gater.sol\":1330:1368  gateList[_gateraddress].isUsed == true */\n      eq\n        /* \"Contracts/MoonV1Gater.sol\":1309:1415  require(... */\n      tag_94\n      jumpi\n      mload(0x40)\n      shl(0xe5, 0x461bcd)\n      dup2\n      mstore\n        /* \"#utility.yul\":4807:4809   */\n      0x20\n        /* \"Contracts/MoonV1Gater.sol\":1309:1415  require(... */\n      0x04\n      dup3\n      add\n        /* \"#utility.yul\":4789:4810   */\n      mstore\n        /* \"#utility.yul\":4846:4848   */\n      0x15\n        /* \"#utility.yul\":4826:4844   */\n      0x24\n      dup3\n      add\n        /* \"#utility.yul\":4819:4849   */\n      mstore\n        /* \"#utility.yul\":4885:4908   */\n      0x7468652067617465722069736e6f742065786973740000000000000000000000\n        /* \"#utility.yul\":4865:4883   */\n      0x44\n      dup3\n      add\n        /* \"#utility.yul\":4858:4909   */\n      mstore\n        /* \"#utility.yul\":4926:4944   */\n      0x64\n      add\n        /* \"Contracts/MoonV1Gater.sol\":1309:1415  require(... */\n      tag_63\n        /* \"#utility.yul\":4605:4950   */\n      jump\n        /* \"Contracts/MoonV1Gater.sol\":1309:1415  require(... */\n    tag_94:\n      sub(shl(0xa0, 0x01), 0x01)\n        /* \"Contracts/MoonV1Gater.sol\":1425:1448  gateList[_gateraddress] */\n      and\n        /* \"Contracts/MoonV1Gater.sol\":1425:1433  gateList */\n      0x00\n        /* \"Contracts/MoonV1Gater.sol\":1425:1448  gateList[_gateraddress] */\n      swap1\n      dup2\n      mstore\n      0x20\n      dup2\n      swap1\n      mstore\n      0x40\n      swap1\n      keccak256\n        /* \"Contracts/MoonV1Gater.sol\":1425:1461  gateList[_gateraddress].marketunlock */\n      0x0f\n      add\n        /* \"Contracts/MoonV1Gater.sol\":1425:1468  gateList[_gateraddress].marketunlock = true */\n      dup1\n      sload\n      not(0xff00000000)\n      and\n      0x0100000000\n      or\n      swap1\n      sstore\n        /* \"Contracts/MoonV1Gater.sol\":1201:1475  function lockGatebyMarketor(address _gateraddress)... */\n      jump\t// out\n        /* \"Contracts/MoonV1Gater.sol\":2246:2431  function delGatebyMarketor(address _gater) external onlyMarketManager {... */\n    tag_49:\n        /* \"Contracts/MoonV1Gater.sol\":971:994  marketorContractAddress */\n      0x02\n      0x00\n      swap1\n      sload\n      swap1\n      0x0100\n      exp\n      swap1\n      div\n      sub(shl(0xa0, 0x01), 0x01)\n      and\n      sub(shl(0xa0, 0x01), 0x01)\n        /* \"Contracts/MoonV1Gater.sol\":957:1011  MoonV1Manager(marketorContractAddress).ismarketManager */\n      and\n      0x1487f252\n        /* \"Contracts/MoonV1Gater.sol\":957:1013  MoonV1Manager(marketorContractAddress).ismarketManager() */\n      mload(0x40)\n      dup2\n      0xffffffff\n      and\n      0xe0\n      shl\n      dup2\n      mstore\n      0x04\n      add\n      0x20\n      mload(0x40)\n      dup1\n      dup4\n      sub\n      dup2\n      dup7\n      dup1\n      extcodesize\n      iszero\n      dup1\n      iszero\n      tag_98\n      jumpi\n      0x00\n      dup1\n      revert\n    tag_98:\n      pop\n      gas\n      staticcall\n      iszero\n      dup1\n      iszero\n      tag_100\n      jumpi\n      returndatasize\n      0x00\n      dup1\n      returndatacopy\n      revert(0x00, returndatasize)\n    tag_100:\n      pop\n      pop\n      pop\n      pop\n      mload(0x40)\n      returndatasize\n      not(0x1f)\n      0x1f\n      dup3\n      add\n      and\n      dup3\n      add\n      dup1\n      0x40\n      mstore\n      pop\n      dup2\n      add\n      swap1\n      tag_101\n      swap2\n      swap1\n      tag_70\n      jump\t// in\n    tag_101:\n        /* \"Contracts/MoonV1Gater.sol\":957:1021  MoonV1Manager(marketorContractAddress).ismarketManager() == true */\n      iszero\n      iszero\n        /* \"Contracts/MoonV1Gater.sol\":1017:1021  true */\n      0x01\n        /* \"Contracts/MoonV1Gater.sol\":957:1021  MoonV1Manager(marketorContractAddress).ismarketManager() == true */\n      eq\n        /* \"Contracts/MoonV1Gater.sol\":936:1031  require(... */\n      tag_102\n      jumpi\n      0x00\n      dup1\n      revert\n    tag_102:\n      sub(shl(0xa0, 0x01), 0x01)\n        /* \"Contracts/MoonV1Gater.sol\":2334:2350  gateList[_gater] */\n      dup2\n      and\n        /* \"Contracts/MoonV1Gater.sol\":2334:2342  gateList */\n      0x00\n        /* \"Contracts/MoonV1Gater.sol\":2334:2350  gateList[_gater] */\n      swap1\n      dup2\n      mstore\n      0x20\n      dup2\n      swap1\n      mstore\n      0x40\n      swap1\n      keccak256\n        /* \"Contracts/MoonV1Gater.sol\":2334:2357  gateList[_gater].isUsed */\n      0x0f\n      add\n      sload\n      0x01000000000000\n      swap1\n      div\n      0xff\n      and\n        /* \"Contracts/MoonV1Gater.sol\":2334:2365  gateList[_gater].isUsed == true */\n      iszero\n      iszero\n        /* \"Contracts/MoonV1Gater.sol\":2361:2365  true */\n      0x01\n        /* \"Contracts/MoonV1Gater.sol\":2334:2365  gateList[_gater].isUsed == true */\n      eq\n        /* \"Contracts/MoonV1Gater.sol\":2326:2390  require(gateList[_gater].isUsed == true, \"the gater is exister\") */\n      tag_104\n      jumpi\n      mload(0x40)\n      shl(0xe5, 0x461bcd)\n      dup2\n      mstore\n        /* \"#utility.yul\":4458:4460   */\n      0x20\n        /* \"Contracts/MoonV1Gater.sol\":2326:2390  require(gateList[_gater].isUsed == true, \"the gater is exister\") */\n      0x04\n      dup3\n      add\n        /* \"#utility.yul\":4440:4461   */\n      mstore\n        /* \"#utility.yul\":4497:4499   */\n      0x14\n        /* \"#utility.yul\":4477:4495   */\n      0x24\n      dup3\n      add\n        /* \"#utility.yul\":4470:4500   */\n      mstore\n        /* \"#utility.yul\":4536:4558   */\n      0x7468652067617465722069732065786973746572000000000000000000000000\n        /* \"#utility.yul\":4516:4534   */\n      0x44\n      dup3\n      add\n        /* \"#utility.yul\":4509:4559   */\n      mstore\n        /* \"#utility.yul\":4576:4594   */\n      0x64\n      add\n        /* \"Contracts/MoonV1Gater.sol\":2326:2390  require(gateList[_gater].isUsed == true, \"the gater is exister\") */\n      tag_63\n        /* \"#utility.yul\":4256:4600   */\n      jump\n        /* \"Contracts/MoonV1Gater.sol\":2326:2390  require(gateList[_gater].isUsed == true, \"the gater is exister\") */\n    tag_104:\n      sub(shl(0xa0, 0x01), 0x01)\n        /* \"Contracts/MoonV1Gater.sol\":2408:2424  gateList[_gater] */\n      dup2\n      and\n        /* \"Contracts/MoonV1Gater.sol\":2408:2416  gateList */\n      0x00\n        /* \"Contracts/MoonV1Gater.sol\":2408:2424  gateList[_gater] */\n      swap1\n      dup2\n      mstore\n      0x20\n      dup2\n      swap1\n      mstore\n      0x40\n      dup2\n      keccak256\n        /* \"Contracts/MoonV1Gater.sol\":2401:2424  delete gateList[_gater] */\n      dup1\n      sload\n      not(0xffffffffffffffffffffffffffffffffffffffff)\n      swap1\n      dup2\n      and\n      dup3\n      sstore\n      0x01\n      dup3\n      add\n      dup1\n      sload\n      dup3\n      and\n      swap1\n      sstore\n      0x02\n      dup3\n      add\n      dup1\n      sload\n      swap1\n      swap2\n      and\n      swap1\n      sstore\n      0x03\n      dup2\n      add\n      dup3\n      swap1\n      sstore\n      0x04\n      dup2\n      add\n      dup3\n      swap1\n      sstore\n        /* \"Contracts/MoonV1Gater.sol\":2408:2424  gateList[_gater] */\n      swap1\n        /* \"Contracts/MoonV1Gater.sol\":2401:2424  delete gateList[_gater] */\n      tag_106\n      0x05\n      dup4\n      add\n        /* \"Contracts/MoonV1Gater.sol\":2408:2416  gateList */\n      dup3\n        /* \"Contracts/MoonV1Gater.sol\":2401:2424  delete gateList[_gater] */\n      tag_107\n      jump\t// in\n    tag_106:\n      pop\n      0x0f\n      add\n      dup1\n      sload\n      0xffffffffffffffffffffffffffffffffffffffffffffffffff00000000000000\n      and\n      swap1\n      sstore\n      pop\n        /* \"Contracts/MoonV1Gater.sol\":2246:2431  function delGatebyMarketor(address _gater) external onlyMarketManager {... */\n      jump\t// out\n        /* \"Contracts/MoonV1Gater.sol\":3624:4083  function addGater(LGate.Info memory _gater) external {... */\n    tag_52:\n        /* \"Contracts/MoonV1Gater.sol\":3717:3735  _gater.gateAddress */\n      0x20\n      dup2\n      dup2\n      add\n      mload\n      sub(shl(0xa0, 0x01), 0x01)\n        /* \"Contracts/MoonV1Gater.sol\":3708:3736  gateList[_gater.gateAddress] */\n      and\n        /* \"Contracts/MoonV1Gater.sol\":3708:3716  gateList */\n      0x00\n        /* \"Contracts/MoonV1Gater.sol\":3708:3736  gateList[_gater.gateAddress] */\n      swap1\n      dup2\n      mstore\n      swap1\n      dup2\n      swap1\n      mstore\n      0x40\n      swap1\n      keccak256\n        /* \"Contracts/MoonV1Gater.sol\":3708:3743  gateList[_gater.gateAddress].isUsed */\n      0x0f\n      add\n      sload\n      0x01000000000000\n      swap1\n      div\n      0xff\n      and\n        /* \"Contracts/MoonV1Gater.sol\":3708:3751  gateList[_gater.gateAddress].isUsed != true */\n      iszero\n      iszero\n        /* \"Contracts/MoonV1Gater.sol\":3747:3751  true */\n      0x01\n        /* \"Contracts/MoonV1Gater.sol\":3708:3751  gateList[_gater.gateAddress].isUsed != true */\n      eq\n      iszero\n        /* \"Contracts/MoonV1Gater.sol\":3687:3797  require(... */\n      tag_109\n      jumpi\n      mload(0x40)\n      shl(0xe5, 0x461bcd)\n      dup2\n      mstore\n        /* \"#utility.yul\":4458:4460   */\n      0x20\n        /* \"Contracts/MoonV1Gater.sol\":3687:3797  require(... */\n      0x04\n      dup3\n      add\n        /* \"#utility.yul\":4440:4461   */\n      mstore\n        /* \"#utility.yul\":4497:4499   */\n      0x14\n        /* \"#utility.yul\":4477:4495   */\n      0x24\n      dup3\n      add\n        /* \"#utility.yul\":4470:4500   */\n      mstore\n        /* \"#utility.yul\":4536:4558   */\n      0x7468652067617465722069732065786973746572000000000000000000000000\n        /* \"#utility.yul\":4516:4534   */\n      0x44\n      dup3\n      add\n        /* \"#utility.yul\":4509:4559   */\n      mstore\n        /* \"#utility.yul\":4576:4594   */\n      0x64\n      add\n        /* \"Contracts/MoonV1Gater.sol\":3687:3797  require(... */\n      tag_63\n        /* \"#utility.yul\":4256:4600   */\n      jump\n        /* \"Contracts/MoonV1Gater.sol\":3687:3797  require(... */\n    tag_109:\n        /* \"Contracts/MoonV1Gater.sol\":3815:3833  _gater.gateAddress */\n      0x20\n      dup2\n      add\n      mload\n      sub(shl(0xa0, 0x01), 0x01)\n        /* \"Contracts/MoonV1Gater.sol\":3815:3847  _gater.gateAddress == msg.sender */\n      and\n        /* \"Contracts/MoonV1Gater.sol\":3837:3847  msg.sender */\n      caller\n        /* \"Contracts/MoonV1Gater.sol\":3815:3847  _gater.gateAddress == msg.sender */\n      eq\n        /* \"Contracts/MoonV1Gater.sol\":3807:3869  require(_gater.gateAddress == msg.sender, \"the gater is your\") */\n      tag_111\n      jumpi\n      mload(0x40)\n      shl(0xe5, 0x461bcd)\n      dup2\n      mstore\n        /* \"#utility.yul\":4112:4114   */\n      0x20\n        /* \"Contracts/MoonV1Gater.sol\":3807:3869  require(_gater.gateAddress == msg.sender, \"the gater is your\") */\n      0x04\n      dup3\n      add\n        /* \"#utility.yul\":4094:4115   */\n      mstore\n        /* \"#utility.yul\":4151:4153   */\n      0x11\n        /* \"#utility.yul\":4131:4149   */\n      0x24\n      dup3\n      add\n        /* \"#utility.yul\":4124:4154   */\n      mstore\n        /* \"#utility.yul\":4190:4209   */\n      0x74686520676174657220697320796f7572000000000000000000000000000000\n        /* \"#utility.yul\":4170:4188   */\n      0x44\n      dup3\n      add\n        /* \"#utility.yul\":4163:4210   */\n      mstore\n        /* \"#utility.yul\":4227:4245   */\n      0x64\n      add\n        /* \"Contracts/MoonV1Gater.sol\":3807:3869  require(_gater.gateAddress == msg.sender, \"the gater is your\") */\n      tag_63\n        /* \"#utility.yul\":3910:4251   */\n      jump\n        /* \"Contracts/MoonV1Gater.sol\":3807:3869  require(_gater.gateAddress == msg.sender, \"the gater is your\") */\n    tag_111:\n        /* \"Contracts/MoonV1Gater.sol\":3902:3907  false */\n      0x00\n        /* \"Contracts/MoonV1Gater.sol\":3880:3899  _gater.marketunlock */\n      0xe0\n      dup3\n      add\n        /* \"Contracts/MoonV1Gater.sol\":3880:3907  _gater.marketunlock = false */\n      dup2\n      swap1\n      mstore\n        /* \"Contracts/MoonV1Gater.sol\":3944:3957  _gater.unlock */\n      0x0100\n      dup3\n      add\n        /* \"Contracts/MoonV1Gater.sol\":3944:3965  _gater.unlock = false */\n      dup2\n      swap1\n      mstore\n        /* \"Contracts/MoonV1Gater.sol\":4012:4030  _gater.gateAddress */\n      0x20\n      dup1\n      dup4\n      add\n      dup1\n      mload\n      sub(shl(0xa0, 0x01), 0x01)\n        /* \"Contracts/MoonV1Gater.sol\":4003:4031  gateList[_gater.gateAddress] */\n      swap1\n      dup2\n      and\n      dup5\n      mstore\n      swap2\n      dup4\n      swap1\n      mstore\n      0x40\n      swap3\n      dup4\n      swap1\n      keccak256\n        /* \"Contracts/MoonV1Gater.sol\":4003:4040  gateList[_gater.gateAddress] = _gater */\n      dup5\n      mload\n      dup2\n      sload\n      swap1\n      dup5\n      and\n      not(0xffffffffffffffffffffffffffffffffffffffff)\n      swap2\n      dup3\n      and\n      or\n      dup3\n      sstore\n      swap2\n      mload\n        /* \"Contracts/MoonV1Gater.sol\":3880:3907  _gater.marketunlock = false */\n      0x01\n        /* \"Contracts/MoonV1Gater.sol\":4003:4040  gateList[_gater.gateAddress] = _gater */\n      dup3\n      add\n      dup1\n      sload\n      swap2\n      dup6\n      and\n      swap2\n      dup5\n      and\n      swap2\n      swap1\n      swap2\n      or\n      swap1\n      sstore\n      swap3\n      dup5\n      add\n      mload\n      0x02\n      dup5\n      add\n      dup1\n      sload\n      swap2\n      swap1\n      swap4\n      and\n      swap2\n      and\n      or\n      swap1\n      sstore\n      0x60\n      dup3\n      add\n      mload\n      0x03\n      dup3\n      add\n      sstore\n      0x80\n      dup3\n      add\n      mload\n      0x04\n      dup3\n      add\n      sstore\n      0xa0\n      dup3\n      add\n      mload\n        /* \"Contracts/MoonV1Gater.sol\":3880:3886  _gater */\n      dup3\n      swap2\n        /* \"Contracts/MoonV1Gater.sol\":4003:4031  gateList[_gater.gateAddress] */\n      swap1\n        /* \"Contracts/MoonV1Gater.sol\":4003:4040  gateList[_gater.gateAddress] = _gater */\n      tag_76\n      swap1\n      0x05\n      dup4\n      add\n      swap1\n      0x0a\n      tag_77\n      jump\t// in\n        /* \"Contracts/MoonV1Gater.sol\":2867:3146  function unlockGatebyGater() external onlyGator {... */\n    tag_54:\n        /* \"Contracts/MoonV1Gater.sol\":731:741  msg.sender */\n      caller\n        /* \"Contracts/MoonV1Gater.sol\":722:730  gateList */\n      0x00\n        /* \"Contracts/MoonV1Gater.sol\":722:742  gateList[msg.sender] */\n      swap1\n      dup2\n      mstore\n      0x20\n      dup2\n      swap1\n      mstore\n      0x40\n      swap1\n      keccak256\n        /* \"Contracts/MoonV1Gater.sol\":722:755  gateList[msg.sender].marketunlock */\n      0x0f\n      add\n      sload\n      0x0100000000\n      swap1\n      div\n      0xff\n      and\n        /* \"Contracts/MoonV1Gater.sol\":722:763  gateList[msg.sender].marketunlock == true */\n      iszero\n      iszero\n        /* \"Contracts/MoonV1Gater.sol\":759:763  true */\n      0x01\n        /* \"Contracts/MoonV1Gater.sol\":722:763  gateList[msg.sender].marketunlock == true */\n      eq\n        /* \"Contracts/MoonV1Gater.sol\":714:764  require(gateList[msg.sender].marketunlock == true) */\n      tag_116\n      jumpi\n      0x00\n      dup1\n      revert\n    tag_116:\n        /* \"Contracts/MoonV1Gater.sol\":2955:2965  msg.sender */\n      caller\n        /* \"Contracts/MoonV1Gater.sol\":2946:2954  gateList */\n      0x00\n        /* \"Contracts/MoonV1Gater.sol\":2946:2966  gateList[msg.sender] */\n      swap1\n      dup2\n      mstore\n      0x20\n      dup2\n      swap1\n      mstore\n      0x40\n      swap1\n      keccak256\n        /* \"Contracts/MoonV1Gater.sol\":2946:2973  gateList[msg.sender].isUsed */\n      0x0f\n      add\n      sload\n      0x01000000000000\n      swap1\n      div\n      0xff\n      and\n        /* \"Contracts/MoonV1Gater.sol\":2946:2981  gateList[msg.sender].isUsed == true */\n      iszero\n      iszero\n        /* \"Contracts/MoonV1Gater.sol\":2977:2981  true */\n      0x01\n        /* \"Contracts/MoonV1Gater.sol\":2946:2981  gateList[msg.sender].isUsed == true */\n      eq\n        /* \"Contracts/MoonV1Gater.sol\":2946:3047  gateList[msg.sender].isUsed == true &&... */\n      dup1\n      iszero\n      tag_118\n      jumpi\n      pop\n        /* \"Contracts/MoonV1Gater.sol\":3037:3047  msg.sender */\n      caller\n        /* \"Contracts/MoonV1Gater.sol\":3001:3009  gateList */\n      0x00\n        /* \"Contracts/MoonV1Gater.sol\":3001:3021  gateList[msg.sender] */\n      dup2\n      dup2\n      mstore\n      0x20\n      dup2\n      swap1\n      mstore\n      0x40\n      swap1\n      keccak256\n        /* \"Contracts/MoonV1Gater.sol\":3001:3033  gateList[msg.sender].gateAddress */\n      0x01\n      add\n      sload\n      sub(shl(0xa0, 0x01), 0x01)\n      and\n        /* \"Contracts/MoonV1Gater.sol\":3001:3047  gateList[msg.sender].gateAddress == msg.sender */\n      eq\n        /* \"Contracts/MoonV1Gater.sol\":2946:3047  gateList[msg.sender].isUsed == true &&... */\n    tag_118:\n        /* \"Contracts/MoonV1Gater.sol\":2925:3094  require(... */\n      tag_119\n      jumpi\n      mload(0x40)\n      shl(0xe5, 0x461bcd)\n      dup2\n      mstore\n        /* \"#utility.yul\":4807:4809   */\n      0x20\n        /* \"Contracts/MoonV1Gater.sol\":2925:3094  require(... */\n      0x04\n      dup3\n      add\n        /* \"#utility.yul\":4789:4810   */\n      mstore\n        /* \"#utility.yul\":4846:4848   */\n      0x15\n        /* \"#utility.yul\":4826:4844   */\n      0x24\n      dup3\n      add\n        /* \"#utility.yul\":4819:4849   */\n      mstore\n        /* \"#utility.yul\":4885:4908   */\n      0x7468652067617465722069736e6f742065786973740000000000000000000000\n        /* \"#utility.yul\":4865:4883   */\n      0x44\n      dup3\n      add\n        /* \"#utility.yul\":4858:4909   */\n      mstore\n        /* \"#utility.yul\":4926:4944   */\n      0x64\n      add\n        /* \"Contracts/MoonV1Gater.sol\":2925:3094  require(... */\n      tag_63\n        /* \"#utility.yul\":4605:4950   */\n      jump\n        /* \"Contracts/MoonV1Gater.sol\":2925:3094  require(... */\n    tag_119:\n        /* \"Contracts/MoonV1Gater.sol\":3113:3123  msg.sender */\n      caller\n        /* \"Contracts/MoonV1Gater.sol\":3134:3139  false */\n      0x00\n        /* \"Contracts/MoonV1Gater.sol\":3104:3124  gateList[msg.sender] */\n      swap1\n      dup2\n      mstore\n      0x20\n      dup2\n      swap1\n      mstore\n      0x40\n      swap1\n      keccak256\n        /* \"Contracts/MoonV1Gater.sol\":3104:3131  gateList[msg.sender].unlock */\n      0x0f\n      add\n        /* \"Contracts/MoonV1Gater.sol\":3104:3139  gateList[msg.sender].unlock = false */\n      dup1\n      sload\n      not(0xff0000000000)\n      and\n      swap1\n      sstore\n        /* \"Contracts/MoonV1Gater.sol\":2867:3146  function unlockGatebyGater() external onlyGator {... */\n      jump\t// out\n        /* \"Contracts/MoonV1Gater.sol\":3177:3618  function updateGatebyGator(LGate.Info memory _gater) external onlyGator {... */\n    tag_57:\n        /* \"Contracts/MoonV1Gater.sol\":731:741  msg.sender */\n      caller\n        /* \"Contracts/MoonV1Gater.sol\":722:730  gateList */\n      0x00\n        /* \"Contracts/MoonV1Gater.sol\":722:742  gateList[msg.sender] */\n      swap1\n      dup2\n      mstore\n      0x20\n      dup2\n      swap1\n      mstore\n      0x40\n      swap1\n      keccak256\n        /* \"Contracts/MoonV1Gater.sol\":722:755  gateList[msg.sender].marketunlock */\n      0x0f\n      add\n      sload\n      0x0100000000\n      swap1\n      div\n      0xff\n      and\n        /* \"Contracts/MoonV1Gater.sol\":722:763  gateList[msg.sender].marketunlock == true */\n      iszero\n      iszero\n        /* \"Contracts/MoonV1Gater.sol\":759:763  true */\n      0x01\n        /* \"Contracts/MoonV1Gater.sol\":722:763  gateList[msg.sender].marketunlock == true */\n      eq\n        /* \"Contracts/MoonV1Gater.sol\":714:764  require(gateList[msg.sender].marketunlock == true) */\n      tag_122\n      jumpi\n      0x00\n      dup1\n      revert\n    tag_122:\n        /* \"Contracts/MoonV1Gater.sol\":3289:3307  _gater.gateAddress */\n      0x20\n      dup2\n      dup2\n      add\n      mload\n      sub(shl(0xa0, 0x01), 0x01)\n        /* \"Contracts/MoonV1Gater.sol\":3280:3308  gateList[_gater.gateAddress] */\n      and\n        /* \"Contracts/MoonV1Gater.sol\":3280:3288  gateList */\n      0x00\n        /* \"Contracts/MoonV1Gater.sol\":3280:3308  gateList[_gater.gateAddress] */\n      swap1\n      dup2\n      mstore\n      swap1\n      dup2\n      swap1\n      mstore\n      0x40\n      swap1\n      keccak256\n        /* \"Contracts/MoonV1Gater.sol\":3280:3315  gateList[_gater.gateAddress].isUsed */\n      0x0f\n      add\n      sload\n      0x01000000000000\n      swap1\n      div\n      0xff\n      and\n        /* \"Contracts/MoonV1Gater.sol\":3280:3323  gateList[_gater.gateAddress].isUsed == true */\n      iszero\n      iszero\n        /* \"Contracts/MoonV1Gater.sol\":3319:3323  true */\n      0x01\n        /* \"Contracts/MoonV1Gater.sol\":3280:3323  gateList[_gater.gateAddress].isUsed == true */\n      eq\n        /* \"Contracts/MoonV1Gater.sol\":3259:3369  require(... */\n      tag_124\n      jumpi\n      mload(0x40)\n      shl(0xe5, 0x461bcd)\n      dup2\n      mstore\n        /* \"#utility.yul\":4458:4460   */\n      0x20\n        /* \"Contracts/MoonV1Gater.sol\":3259:3369  require(... */\n      0x04\n      dup3\n      add\n        /* \"#utility.yul\":4440:4461   */\n      mstore\n        /* \"#utility.yul\":4497:4499   */\n      0x14\n        /* \"#utility.yul\":4477:4495   */\n      0x24\n      dup3\n      add\n        /* \"#utility.yul\":4470:4500   */\n      mstore\n        /* \"#utility.yul\":4536:4558   */\n      0x7468652067617465722069732065786973746572000000000000000000000000\n        /* \"#utility.yul\":4516:4534   */\n      0x44\n      dup3\n      add\n        /* \"#utility.yul\":4509:4559   */\n      mstore\n        /* \"#utility.yul\":4576:4594   */\n      0x64\n      add\n        /* \"Contracts/MoonV1Gater.sol\":3259:3369  require(... */\n      tag_63\n        /* \"#utility.yul\":4256:4600   */\n      jump\n        /* \"Contracts/MoonV1Gater.sol\":3259:3369  require(... */\n    tag_124:\n        /* \"Contracts/MoonV1Gater.sol\":3409:3427  _gater.gateAddress */\n      0x20\n      dup1\n      dup3\n      add\n      mload\n      sub(shl(0xa0, 0x01), 0x01)\n        /* \"Contracts/MoonV1Gater.sol\":3400:3428  gateList[_gater.gateAddress] */\n      swap1\n      dup2\n      and\n        /* \"Contracts/MoonV1Gater.sol\":3400:3408  gateList */\n      0x00\n        /* \"Contracts/MoonV1Gater.sol\":3400:3428  gateList[_gater.gateAddress] */\n      swap1\n      dup2\n      mstore\n      swap2\n      dup3\n      swap1\n      mstore\n      0x40\n      swap1\n      swap2\n      keccak256\n        /* \"Contracts/MoonV1Gater.sol\":3400:3440  gateList[_gater.gateAddress].gateAddress */\n      0x01\n      add\n      sload\n      and\n        /* \"Contracts/MoonV1Gater.sol\":3444:3454  msg.sender */\n      caller\n        /* \"Contracts/MoonV1Gater.sol\":3400:3454  gateList[_gater.gateAddress].gateAddress == msg.sender */\n      eq\n        /* \"Contracts/MoonV1Gater.sol\":3379:3497  require(... */\n      tag_126\n      jumpi\n      mload(0x40)\n      shl(0xe5, 0x461bcd)\n      dup2\n      mstore\n        /* \"#utility.yul\":4112:4114   */\n      0x20\n        /* \"Contracts/MoonV1Gater.sol\":3379:3497  require(... */\n      0x04\n      dup3\n      add\n        /* \"#utility.yul\":4094:4115   */\n      mstore\n        /* \"#utility.yul\":4151:4153   */\n      0x11\n        /* \"#utility.yul\":4131:4149   */\n      0x24\n      dup3\n      add\n        /* \"#utility.yul\":4124:4154   */\n      mstore\n        /* \"#utility.yul\":4190:4209   */\n      0x74686520676174657220697320796f7572000000000000000000000000000000\n        /* \"#utility.yul\":4170:4188   */\n      0x44\n      dup3\n      add\n        /* \"#utility.yul\":4163:4210   */\n      mstore\n        /* \"#utility.yul\":4227:4245   */\n      0x64\n      add\n        /* \"Contracts/MoonV1Gater.sol\":3379:3497  require(... */\n      tag_63\n        /* \"#utility.yul\":3910:4251   */\n      jump\n        /* \"Contracts/MoonV1Gater.sol\":3379:3497  require(... */\n    tag_126:\n        /* \"Contracts/MoonV1Gater.sol\":3529:3534  false */\n      0x00\n        /* \"Contracts/MoonV1Gater.sol\":3507:3526  _gater.marketunlock */\n      0xe0\n      dup3\n      add\n        /* \"Contracts/MoonV1Gater.sol\":3507:3534  _gater.marketunlock = false */\n      dup2\n      swap1\n      mstore\n      0x01\n        /* \"Contracts/MoonV1Gater.sol\":3544:3557  _gater.unlock */\n      0x0100\n      dup4\n      add\n        /* \"Contracts/MoonV1Gater.sol\":3544:3564  _gater.unlock = true */\n      dup2\n      swap1\n      mstore\n        /* \"Contracts/MoonV1Gater.sol\":3583:3601  _gater.gateAddress */\n      0x20\n      dup1\n      dup5\n      add\n      dup1\n      mload\n      sub(shl(0xa0, 0x01), 0x01)\n        /* \"Contracts/MoonV1Gater.sol\":3574:3602  gateList[_gater.gateAddress] */\n      swap1\n      dup2\n      and\n      dup6\n      mstore\n      swap2\n      dup5\n      swap1\n      mstore\n      0x40\n      swap4\n      dup5\n      swap1\n      keccak256\n        /* \"Contracts/MoonV1Gater.sol\":3574:3611  gateList[_gater.gateAddress] = _gater */\n      dup6\n      mload\n      dup2\n      sload\n      not(0xffffffffffffffffffffffffffffffffffffffff)\n      swap1\n      dup2\n      and\n      swap2\n      dup6\n      and\n      swap2\n      swap1\n      swap2\n      or\n      dup3\n      sstore\n      swap2\n      mload\n      swap4\n      dup2\n      add\n      dup1\n      sload\n      dup4\n      and\n      swap5\n      dup5\n      and\n      swap5\n      swap1\n      swap5\n      or\n      swap1\n      swap4\n      sstore\n      swap3\n      dup5\n      add\n      mload\n      0x02\n      dup4\n      add\n      dup1\n      sload\n      swap1\n      swap5\n      and\n      swap2\n      and\n      or\n      swap1\n      swap2\n      sstore\n      0x60\n      dup3\n      add\n      mload\n      0x03\n      dup3\n      add\n      sstore\n      0x80\n      dup3\n      add\n      mload\n      0x04\n      dup3\n      add\n      sstore\n      0xa0\n      dup3\n      add\n      mload\n        /* \"Contracts/MoonV1Gater.sol\":3507:3526  _gater.marketunlock */\n      dup3\n      swap2\n        /* \"Contracts/MoonV1Gater.sol\":3574:3602  gateList[_gater.gateAddress] */\n      swap1\n        /* \"Contracts/MoonV1Gater.sol\":3574:3611  gateList[_gater.gateAddress] = _gater */\n      tag_76\n      swap1\n      0x05\n      dup4\n      add\n      swap1\n      0x0a\n    tag_77:\n      dup3\n      0x0a\n      dup2\n      add\n      swap3\n      dup3\n      iszero\n      tag_131\n      jumpi\n      swap2\n      0x20\n      mul\n      dup3\n      add\n    tag_130:\n      dup3\n      dup2\n      gt\n      iszero\n      tag_131\n      jumpi\n      dup3\n      mload\n      dup3\n      sstore\n      swap2\n      0x20\n      add\n      swap2\n      swap1\n      0x01\n      add\n      swap1\n      jump(tag_130)\n    tag_131:\n      pop\n      tag_132\n      swap3\n      swap2\n      pop\n      tag_133\n      jump\t// in\n    tag_132:\n      pop\n      swap1\n      jump\t// out\n    tag_107:\n      pop\n      tag_134\n      swap1\n      0x0a\n      dup2\n      add\n      swap1\n      tag_133\n      jump\t// in\n    tag_134:\n      pop\n      jump\t// out\n    tag_133:\n    tag_135:\n      dup1\n      dup3\n      gt\n      iszero\n      tag_132\n      jumpi\n      0x00\n      dup2\n      sstore\n      0x01\n      add\n      jump(tag_135)\n        /* \"#utility.yul\":14:148   */\n    tag_138:\n        /* \"#utility.yul\":82:102   */\n      dup1\n      calldataload\n        /* \"#utility.yul\":111:142   */\n      tag_140\n        /* \"#utility.yul\":82:102   */\n      dup2\n        /* \"#utility.yul\":111:142   */\n      tag_141\n      jump\t// in\n    tag_140:\n        /* \"#utility.yul\":14:148   */\n      swap2\n      swap1\n      pop\n      jump\t// out\n        /* \"#utility.yul\":153:857   */\n    tag_142:\n        /* \"#utility.yul\":203:208   */\n      0x00\n        /* \"#utility.yul\":256:259   */\n      dup3\n        /* \"#utility.yul\":249:253   */\n      0x1f\n        /* \"#utility.yul\":241:247   */\n      dup4\n        /* \"#utility.yul\":237:254   */\n      add\n        /* \"#utility.yul\":233:260   */\n      slt\n        /* \"#utility.yul\":223:278   */\n      tag_144\n      jumpi\n        /* \"#utility.yul\":274:275   */\n      0x00\n        /* \"#utility.yul\":271:272   */\n      dup1\n        /* \"#utility.yul\":264:276   */\n      revert\n        /* \"#utility.yul\":223:278   */\n    tag_144:\n        /* \"#utility.yul\":307:309   */\n      0x40\n        /* \"#utility.yul\":301:310   */\n      mload\n        /* \"#utility.yul\":329:332   */\n      0x0140\n        /* \"#utility.yul\":371:373   */\n      dup1\n        /* \"#utility.yul\":363:369   */\n      dup3\n        /* \"#utility.yul\":359:374   */\n      add\n        /* \"#utility.yul\":440:446   */\n      dup3\n        /* \"#utility.yul\":428:438   */\n      dup2\n        /* \"#utility.yul\":425:447   */\n      lt\n        /* \"#utility.yul\":404:422   */\n      0xffffffffffffffff\n        /* \"#utility.yul\":392:402   */\n      dup3\n        /* \"#utility.yul\":389:423   */\n      gt\n        /* \"#utility.yul\":386:448   */\n      or\n        /* \"#utility.yul\":383:471   */\n      iszero\n      tag_146\n      jumpi\n        /* \"#utility.yul\":451:469   */\n      tag_146\n      tag_147\n      jump\t// in\n    tag_146:\n        /* \"#utility.yul\":487:489   */\n      0x40\n        /* \"#utility.yul\":480:502   */\n      mstore\n        /* \"#utility.yul\":522:528   */\n      dup2\n        /* \"#utility.yul\":548:554   */\n      dup5\n        /* \"#utility.yul\":569:584   */\n      dup3\n      dup2\n      add\n        /* \"#utility.yul\":566:590   */\n      dup8\n      lt\n        /* \"#utility.yul\":563:607   */\n      iszero\n      tag_148\n      jumpi\n        /* \"#utility.yul\":603:604   */\n      0x00\n        /* \"#utility.yul\":600:601   */\n      dup1\n        /* \"#utility.yul\":593:605   */\n      revert\n        /* \"#utility.yul\":563:607   */\n    tag_148:\n        /* \"#utility.yul\":625:626   */\n      0x00\n        /* \"#utility.yul\":616:626   */\n      swap3\n      pop\n        /* \"#utility.yul\":635:827   */\n    tag_149:\n        /* \"#utility.yul\":649:653   */\n      0x0a\n        /* \"#utility.yul\":646:647   */\n      dup4\n        /* \"#utility.yul\":643:654   */\n      lt\n        /* \"#utility.yul\":635:827   */\n      iszero\n      tag_151\n      jumpi\n        /* \"#utility.yul\":708:725   */\n      dup1\n      calldataload\n        /* \"#utility.yul\":696:726   */\n      dup3\n      mstore\n        /* \"#utility.yul\":669:670   */\n      0x01\n        /* \"#utility.yul\":662:671   */\n      swap3\n      swap1\n      swap3\n      add\n      swap2\n        /* \"#utility.yul\":749:753   */\n      0x20\n        /* \"#utility.yul\":773:785   */\n      swap2\n      dup3\n      add\n      swap2\n        /* \"#utility.yul\":805:817   */\n      add\n        /* \"#utility.yul\":635:827   */\n      jump(tag_149)\n    tag_151:\n      pop\n        /* \"#utility.yul\":845:851   */\n      swap2\n      swap6\n        /* \"#utility.yul\":153:857   */\n      swap5\n      pop\n      pop\n      pop\n      pop\n      pop\n      jump\t// out\n        /* \"#utility.yul\":862:990   */\n    tag_152:\n        /* \"#utility.yul\":927:947   */\n      dup1\n      calldataload\n        /* \"#utility.yul\":956:984   */\n      tag_140\n        /* \"#utility.yul\":927:947   */\n      dup2\n        /* \"#utility.yul\":956:984   */\n      tag_155\n      jump\t// in\n        /* \"#utility.yul\":995:1158   */\n    tag_156:\n        /* \"#utility.yul\":1062:1082   */\n      dup1\n      calldataload\n        /* \"#utility.yul\":1122:1132   */\n      0xffffffff\n        /* \"#utility.yul\":1111:1133   */\n      dup2\n      and\n        /* \"#utility.yul\":1101:1134   */\n      dup2\n      eq\n        /* \"#utility.yul\":1091:1152   */\n      tag_140\n      jumpi\n        /* \"#utility.yul\":1148:1149   */\n      0x00\n        /* \"#utility.yul\":1145:1146   */\n      dup1\n        /* \"#utility.yul\":1138:1150   */\n      revert\n        /* \"#utility.yul\":1163:1410   */\n    tag_26:\n        /* \"#utility.yul\":1222:1228   */\n      0x00\n        /* \"#utility.yul\":1275:1277   */\n      0x20\n        /* \"#utility.yul\":1263:1272   */\n      dup3\n        /* \"#utility.yul\":1254:1261   */\n      dup5\n        /* \"#utility.yul\":1250:1273   */\n      sub\n        /* \"#utility.yul\":1246:1278   */\n      slt\n        /* \"#utility.yul\":1243:1295   */\n      iszero\n      tag_160\n      jumpi\n        /* \"#utility.yul\":1291:1292   */\n      0x00\n        /* \"#utility.yul\":1288:1289   */\n      dup1\n        /* \"#utility.yul\":1281:1293   */\n      revert\n        /* \"#utility.yul\":1243:1295   */\n    tag_160:\n        /* \"#utility.yul\":1330:1339   */\n      dup2\n        /* \"#utility.yul\":1317:1340   */\n      calldataload\n        /* \"#utility.yul\":1349:1380   */\n      tag_161\n        /* \"#utility.yul\":1374:1379   */\n      dup2\n        /* \"#utility.yul\":1349:1380   */\n      tag_141\n      jump\t// in\n    tag_161:\n        /* \"#utility.yul\":1399:1404   */\n      swap4\n        /* \"#utility.yul\":1163:1410   */\n      swap3\n      pop\n      pop\n      pop\n      jump\t// out\n        /* \"#utility.yul\":1415:1660   */\n    tag_70:\n        /* \"#utility.yul\":1482:1488   */\n      0x00\n        /* \"#utility.yul\":1535:1537   */\n      0x20\n        /* \"#utility.yul\":1523:1532   */\n      dup3\n        /* \"#utility.yul\":1514:1521   */\n      dup5\n        /* \"#utility.yul\":1510:1533   */\n      sub\n        /* \"#utility.yul\":1506:1538   */\n      slt\n        /* \"#utility.yul\":1503:1555   */\n      iszero\n      tag_163\n      jumpi\n        /* \"#utility.yul\":1551:1552   */\n      0x00\n        /* \"#utility.yul\":1548:1549   */\n      dup1\n        /* \"#utility.yul\":1541:1553   */\n      revert\n        /* \"#utility.yul\":1503:1555   */\n    tag_163:\n        /* \"#utility.yul\":1583:1592   */\n      dup2\n        /* \"#utility.yul\":1577:1593   */\n      mload\n        /* \"#utility.yul\":1602:1630   */\n      tag_161\n        /* \"#utility.yul\":1624:1629   */\n      dup2\n        /* \"#utility.yul\":1602:1630   */\n      tag_155\n      jump\t// in\n        /* \"#utility.yul\":1665:2593   */\n    tag_35:\n        /* \"#utility.yul\":1745:1751   */\n      0x00\n        /* \"#utility.yul\":1798:1801   */\n      0x0260\n        /* \"#utility.yul\":1786:1795   */\n      dup3\n        /* \"#utility.yul\":1777:1784   */\n      dup5\n        /* \"#utility.yul\":1773:1796   */\n      sub\n        /* \"#utility.yul\":1769:1802   */\n      slt\n        /* \"#utility.yul\":1766:1819   */\n      iszero\n      tag_166\n      jumpi\n        /* \"#utility.yul\":1815:1816   */\n      0x00\n        /* \"#utility.yul\":1812:1813   */\n      dup1\n        /* \"#utility.yul\":1805:1817   */\n      revert\n        /* \"#utility.yul\":1766:1819   */\n    tag_166:\n        /* \"#utility.yul\":1841:1858   */\n      tag_167\n      tag_168\n      jump\t// in\n    tag_167:\n        /* \"#utility.yul\":1881:1910   */\n      tag_169\n        /* \"#utility.yul\":1900:1909   */\n      dup4\n        /* \"#utility.yul\":1881:1910   */\n      tag_138\n      jump\t// in\n    tag_169:\n        /* \"#utility.yul\":1874:1879   */\n      dup2\n        /* \"#utility.yul\":1867:1911   */\n      mstore\n        /* \"#utility.yul\":1943:1981   */\n      tag_170\n        /* \"#utility.yul\":1977:1979   */\n      0x20\n        /* \"#utility.yul\":1966:1975   */\n      dup5\n        /* \"#utility.yul\":1962:1980   */\n      add\n        /* \"#utility.yul\":1943:1981   */\n      tag_138\n      jump\t// in\n    tag_170:\n        /* \"#utility.yul\":1938:1940   */\n      0x20\n        /* \"#utility.yul\":1931:1936   */\n      dup3\n        /* \"#utility.yul\":1927:1941   */\n      add\n        /* \"#utility.yul\":1920:1982   */\n      mstore\n        /* \"#utility.yul\":2014:2052   */\n      tag_171\n        /* \"#utility.yul\":2048:2050   */\n      0x40\n        /* \"#utility.yul\":2037:2046   */\n      dup5\n        /* \"#utility.yul\":2033:2051   */\n      add\n        /* \"#utility.yul\":2014:2052   */\n      tag_138\n      jump\t// in\n    tag_171:\n        /* \"#utility.yul\":2009:2011   */\n      0x40\n        /* \"#utility.yul\":2002:2007   */\n      dup3\n        /* \"#utility.yul\":1998:2012   */\n      add\n        /* \"#utility.yul\":1991:2053   */\n      mstore\n        /* \"#utility.yul\":2113:2115   */\n      0x60\n        /* \"#utility.yul\":2102:2111   */\n      dup4\n        /* \"#utility.yul\":2098:2116   */\n      add\n        /* \"#utility.yul\":2085:2117   */\n      calldataload\n        /* \"#utility.yul\":2080:2082   */\n      0x60\n        /* \"#utility.yul\":2073:2078   */\n      dup3\n        /* \"#utility.yul\":2069:2083   */\n      add\n        /* \"#utility.yul\":2062:2118   */\n      mstore\n        /* \"#utility.yul\":2179:2182   */\n      0x80\n        /* \"#utility.yul\":2168:2177   */\n      dup4\n        /* \"#utility.yul\":2164:2183   */\n      add\n        /* \"#utility.yul\":2151:2184   */\n      calldataload\n        /* \"#utility.yul\":2145:2148   */\n      0x80\n        /* \"#utility.yul\":2138:2143   */\n      dup3\n        /* \"#utility.yul\":2134:2149   */\n      add\n        /* \"#utility.yul\":2127:2185   */\n      mstore\n        /* \"#utility.yul\":2218:2272   */\n      tag_172\n        /* \"#utility.yul\":2264:2271   */\n      dup5\n        /* \"#utility.yul\":2258:2261   */\n      0xa0\n        /* \"#utility.yul\":2247:2256   */\n      dup6\n        /* \"#utility.yul\":2243:2262   */\n      add\n        /* \"#utility.yul\":2218:2272   */\n      tag_142\n      jump\t// in\n    tag_172:\n        /* \"#utility.yul\":2212:2215   */\n      0xa0\n        /* \"#utility.yul\":2205:2210   */\n      dup3\n        /* \"#utility.yul\":2201:2216   */\n      add\n        /* \"#utility.yul\":2194:2273   */\n      mstore\n        /* \"#utility.yul\":2307:2345   */\n      tag_173\n        /* \"#utility.yul\":2340:2343   */\n      0x01e0\n        /* \"#utility.yul\":2329:2338   */\n      dup5\n        /* \"#utility.yul\":2325:2344   */\n      add\n        /* \"#utility.yul\":2307:2345   */\n      tag_156\n      jump\t// in\n    tag_173:\n        /* \"#utility.yul\":2300:2304   */\n      0xc0\n        /* \"#utility.yul\":2293:2298   */\n      dup3\n        /* \"#utility.yul\":2289:2305   */\n      add\n        /* \"#utility.yul\":2282:2346   */\n      mstore\n        /* \"#utility.yul\":2380:2416   */\n      tag_174\n        /* \"#utility.yul\":2411:2414   */\n      0x0200\n        /* \"#utility.yul\":2400:2409   */\n      dup5\n        /* \"#utility.yul\":2396:2415   */\n      add\n        /* \"#utility.yul\":2380:2416   */\n      tag_152\n      jump\t// in\n    tag_174:\n        /* \"#utility.yul\":2373:2377   */\n      0xe0\n        /* \"#utility.yul\":2366:2371   */\n      dup3\n        /* \"#utility.yul\":2362:2378   */\n      add\n        /* \"#utility.yul\":2355:2417   */\n      mstore\n        /* \"#utility.yul\":2453:2489   */\n      tag_175\n        /* \"#utility.yul\":2484:2487   */\n      0x0220\n        /* \"#utility.yul\":2473:2482   */\n      dup5\n        /* \"#utility.yul\":2469:2488   */\n      add\n        /* \"#utility.yul\":2453:2489   */\n      tag_152\n      jump\t// in\n    tag_175:\n        /* \"#utility.yul\":2444:2450   */\n      0x0100\n        /* \"#utility.yul\":2437:2442   */\n      dup3\n        /* \"#utility.yul\":2433:2451   */\n      add\n        /* \"#utility.yul\":2426:2490   */\n      mstore\n        /* \"#utility.yul\":2526:2562   */\n      tag_176\n        /* \"#utility.yul\":2557:2560   */\n      0x0240\n        /* \"#utility.yul\":2546:2555   */\n      dup5\n        /* \"#utility.yul\":2542:2561   */\n      add\n        /* \"#utility.yul\":2526:2562   */\n      tag_152\n      jump\t// in\n    tag_176:\n        /* \"#utility.yul\":2517:2523   */\n      0x0120\n        /* \"#utility.yul\":2506:2524   */\n      dup3\n      add\n        /* \"#utility.yul\":2499:2563   */\n      mstore\n        /* \"#utility.yul\":2510:2515   */\n      swap4\n        /* \"#utility.yul\":1665:2593   */\n      swap3\n      pop\n      pop\n      pop\n      jump\t// out\n        /* \"#utility.yul\":4955:5205   */\n    tag_168:\n        /* \"#utility.yul\":5022:5024   */\n      0x40\n        /* \"#utility.yul\":5016:5025   */\n      mload\n        /* \"#utility.yul\":5064:5070   */\n      0x0140\n        /* \"#utility.yul\":5052:5071   */\n      dup2\n      add\n        /* \"#utility.yul\":5101:5119   */\n      0xffffffffffffffff\n        /* \"#utility.yul\":5086:5120   */\n      dup2\n      gt\n        /* \"#utility.yul\":5122:5144   */\n      dup3\n      dup3\n      lt\n        /* \"#utility.yul\":5083:5145   */\n      or\n        /* \"#utility.yul\":5080:5168   */\n      iszero\n      tag_185\n      jumpi\n        /* \"#utility.yul\":5148:5166   */\n      tag_185\n      tag_147\n      jump\t// in\n    tag_185:\n        /* \"#utility.yul\":5184:5186   */\n      0x40\n        /* \"#utility.yul\":5177:5199   */\n      mstore\n        /* \"#utility.yul\":4955:5205   */\n      swap1\n      jump\t// out\n        /* \"#utility.yul\":5210:5394   */\n    tag_147:\n        /* \"#utility.yul\":5262:5339   */\n      0x4e487b7100000000000000000000000000000000000000000000000000000000\n        /* \"#utility.yul\":5259:5260   */\n      0x00\n        /* \"#utility.yul\":5252:5340   */\n      mstore\n        /* \"#utility.yul\":5359:5363   */\n      0x41\n        /* \"#utility.yul\":5356:5357   */\n      0x04\n        /* \"#utility.yul\":5349:5364   */\n      mstore\n        /* \"#utility.yul\":5383:5387   */\n      0x24\n        /* \"#utility.yul\":5380:5381   */\n      0x00\n        /* \"#utility.yul\":5373:5388   */\n      revert\n        /* \"#utility.yul\":5399:5553   */\n    tag_141:\n      sub(shl(0xa0, 0x01), 0x01)\n        /* \"#utility.yul\":5478:5483   */\n      dup2\n        /* \"#utility.yul\":5474:5528   */\n      and\n        /* \"#utility.yul\":5467:5472   */\n      dup2\n        /* \"#utility.yul\":5464:5529   */\n      eq\n        /* \"#utility.yul\":5454:5547   */\n      tag_134\n      jumpi\n        /* \"#utility.yul\":5543:5544   */\n      0x00\n        /* \"#utility.yul\":5540:5541   */\n      dup1\n        /* \"#utility.yul\":5533:5545   */\n      revert\n        /* \"#utility.yul\":5558:5676   */\n    tag_155:\n        /* \"#utility.yul\":5644:5649   */\n      dup1\n        /* \"#utility.yul\":5637:5650   */\n      iszero\n        /* \"#utility.yul\":5630:5651   */\n      iszero\n        /* \"#utility.yul\":5623:5628   */\n      dup2\n        /* \"#utility.yul\":5620:5652   */\n      eq\n        /* \"#utility.yul\":5610:5670   */\n      tag_134\n      jumpi\n        /* \"#utility.yul\":5666:5667   */\n      0x00\n        /* \"#utility.yul\":5663:5664   */\n      dup1\n        /* \"#utility.yul\":5656:5668   */\n      revert\n\n    auxdata: 0xa26469706673582212201272fadb300bfe2b875e5ca23c294d43805ebe05f19594484f9dc1c1e1d915e464736f6c63430008070033\n}\n",
				"bytecode": {
					"linkReferences": {},
					"object": "608060405234801561001057600080fd5b5060405161120a38038061120a83398101604081905261002f9161007c565b600180546001600160a01b039384166001600160a01b031991821617909155600280549290931691161790556100af565b80516001600160a01b038116811461007757600080fd5b919050565b6000806040838503121561008f57600080fd5b61009883610060565b91506100a660208401610060565b90509250929050565b61114c806100be6000396000f3fe608060405234801561001057600080fd5b50600436106100d45760003560e01c8063a478608811610081578063d8feb7ff1161005b578063d8feb7ff1461027e578063f1c9f40f14610291578063f3a425371461029957600080fd5b8063a47860881461022a578063ab3acb5c1461023d578063b614984d1461026b57600080fd5b8063492b7107116100b2578063492b7107146101f157806371271f4d14610204578063769413001461021757600080fd5b80633087cbe3146100d95780633bbae1411461010957806345df498714610113575b600080fd5b6001546100ec906001600160a01b031681565b6040516001600160a01b0390911681526020015b60405180910390f35b6101116102ac565b005b610192610121366004610f9a565b600060208190529081526040902080546001820154600283015460038401546004850154600f909501546001600160a01b0394851695938516949290921692909163ffffffff81169060ff640100000000820481169165010000000000810482169166010000000000009091041689565b604080516001600160a01b039a8b168152988a1660208a015296909816958701959095526060860193909352608085019190915263ffffffff1660a0840152151560c0830152151560e082015290151561010082015261012001610100565b6002546100ec906001600160a01b031681565b610111610212366004610fdb565b61039c565b610111610225366004610f9a565b610654565b610111610238366004610f9a565b61078a565b336000908152602081905260409020600f0154640100000000900460ff166040519015158152602001610100565b610111610279366004610f9a565b6108c7565b61011161028c366004610fdb565b610a68565b610111610be8565b6101116102a7366004610fdb565b610ccb565b336000908152602081905260409020600f0154640100000000900460ff1615156001146102d857600080fd5b336000908152602081905260409020600f01546601000000000000900460ff16151560011480156103225750336000818152602081905260409020600101546001600160a01b0316145b6103735760405162461bcd60e51b815260206004820152601560248201527f7468652067617465722069736e6f74206578697374000000000000000000000060448201526064015b60405180910390fd5b336000908152602081905260409020600f01805465ff0000000000191665010000000000179055565b600260009054906101000a90046001600160a01b03166001600160a01b0316631487f2526040518163ffffffff1660e01b815260040160206040518083038186803b1580156103ea57600080fd5b505afa1580156103fe573d6000803e3d6000fd5b505050506040513d601f19601f820116820180604052508101906104229190610fbe565b151560011461043057600080fd5b6020818101516001600160a01b031660009081529081905260409020600f01546601000000000000900460ff1615156001146104ae5760405162461bcd60e51b815260206004820152601460248201527f7468652067617465722069732065786973746572000000000000000000000000604482015260640161036a565b602081810180516001600160a01b0390811660009081528084526040808220600f90810154640100000000900460ff908116151560e089015285518516845283875282842090910154650100000000009004161515610100870152835183168252938190528390208451815473ffffffffffffffffffffffffffffffffffffffff1990811691841691909117825592516001820180548516918416919091179055928401516002840180549093169116179055606082015160038201556080820151600482015560a082015182919061058d906005830190600a610e8c565b5060c0820151600f909101805460e08401516101008501516101209095015115156601000000000000027fffffffffffffffffffffffffffffffffffffffffffffffffff00ffffffffffff9515156501000000000002959095167fffffffffffffffffffffffffffffffffffffffffffffffffff0000ffffffffff911515640100000000027fffffffffffffffffffffffffffffffffffffffffffffffffffffff000000000090931663ffffffff9095169490941791909117169190911791909117905550565b600260009054906101000a90046001600160a01b03166001600160a01b0316631487f2526040518163ffffffff1660e01b815260040160206040518083038186803b1580156106a257600080fd5b505afa1580156106b6573d6000803e3d6000fd5b505050506040513d601f19601f820116820180604052508101906106da9190610fbe565b15156001146106e857600080fd5b6001600160a01b0381166000908152602081905260409020600f01546601000000000000900460ff1615156001146107625760405162461bcd60e51b815260206004820152601560248201527f7468652067617465722069736e6f742065786973740000000000000000000000604482015260640161036a565b6001600160a01b03166000908152602081905260409020600f01805464ff0000000019169055565b600260009054906101000a90046001600160a01b03166001600160a01b0316631487f2526040518163ffffffff1660e01b815260040160206040518083038186803b1580156107d857600080fd5b505afa1580156107ec573d6000803e3d6000fd5b505050506040513d601f19601f820116820180604052508101906108109190610fbe565b151560011461081e57600080fd5b6001600160a01b0381166000908152602081905260409020600f01546601000000000000900460ff1615156001146108985760405162461bcd60e51b815260206004820152601560248201527f7468652067617465722069736e6f742065786973740000000000000000000000604482015260640161036a565b6001600160a01b03166000908152602081905260409020600f01805464ff000000001916640100000000179055565b600260009054906101000a90046001600160a01b03166001600160a01b0316631487f2526040518163ffffffff1660e01b815260040160206040518083038186803b15801561091557600080fd5b505afa158015610929573d6000803e3d6000fd5b505050506040513d601f19601f8201168201806040525081019061094d9190610fbe565b151560011461095b57600080fd5b6001600160a01b0381166000908152602081905260409020600f01546601000000000000900460ff1615156001146109d55760405162461bcd60e51b815260206004820152601460248201527f7468652067617465722069732065786973746572000000000000000000000000604482015260640161036a565b6001600160a01b0381166000908152602081905260408120805473ffffffffffffffffffffffffffffffffffffffff199081168255600182018054821690556002820180549091169055600381018290556004810182905590610a3b6005830182610eca565b50600f0180547fffffffffffffffffffffffffffffffffffffffffffffffffff0000000000000016905550565b6020818101516001600160a01b031660009081529081905260409020600f01546601000000000000900460ff16151560011415610ae75760405162461bcd60e51b815260206004820152601460248201527f7468652067617465722069732065786973746572000000000000000000000000604482015260640161036a565b60208101516001600160a01b03163314610b435760405162461bcd60e51b815260206004820152601160248201527f74686520676174657220697320796f7572000000000000000000000000000000604482015260640161036a565b600060e082018190526101008201819052602080830180516001600160a01b039081168452918390526040928390208451815490841673ffffffffffffffffffffffffffffffffffffffff19918216178255915160018201805491851691841691909117905592840151600284018054919093169116179055606082015160038201556080820151600482015560a082015182919061058d906005830190600a610e8c565b336000908152602081905260409020600f0154640100000000900460ff161515600114610c1457600080fd5b336000908152602081905260409020600f01546601000000000000900460ff1615156001148015610c5e5750336000818152602081905260409020600101546001600160a01b0316145b610caa5760405162461bcd60e51b815260206004820152601560248201527f7468652067617465722069736e6f742065786973740000000000000000000000604482015260640161036a565b336000908152602081905260409020600f01805465ff000000000019169055565b336000908152602081905260409020600f0154640100000000900460ff161515600114610cf757600080fd5b6020818101516001600160a01b031660009081529081905260409020600f01546601000000000000900460ff161515600114610d755760405162461bcd60e51b815260206004820152601460248201527f7468652067617465722069732065786973746572000000000000000000000000604482015260640161036a565b6020808201516001600160a01b03908116600090815291829052604090912060010154163314610de75760405162461bcd60e51b815260206004820152601160248201527f74686520676174657220697320796f7572000000000000000000000000000000604482015260640161036a565b600060e0820181905260016101008301819052602080840180516001600160a01b039081168552918490526040938490208551815473ffffffffffffffffffffffffffffffffffffffff199081169185169190911782559151938101805483169484169490941790935592840151600283018054909416911617909155606082015160038201556080820151600482015560a082015182919061058d906005830190600a5b82600a8101928215610eba579160200282015b82811115610eba578251825591602001919060010190610e9f565b50610ec6929150610edc565b5090565b50610ed990600a810190610edc565b50565b5b80821115610ec65760008155600101610edd565b8035610efc816110f3565b919050565b600082601f830112610f1257600080fd5b60405161014080820182811067ffffffffffffffff82111715610f3757610f376110c4565b6040528184828101871015610f4b57600080fd5b600092505b600a831015610f7057803582526001929092019160209182019101610f50565b509195945050505050565b8035610efc81611108565b803563ffffffff81168114610efc57600080fd5b600060208284031215610fac57600080fd5b8135610fb7816110f3565b9392505050565b600060208284031215610fd057600080fd5b8151610fb781611108565b60006102608284031215610fee57600080fd5b610ff661109a565b610fff83610ef1565b815261100d60208401610ef1565b602082015261101e60408401610ef1565b604082015260608301356060820152608083013560808201526110448460a08501610f01565b60a08201526110566101e08401610f86565b60c08201526110686102008401610f7b565b60e082015261107a6102208401610f7b565b61010082015261108d6102408401610f7b565b6101208201529392505050565b604051610140810167ffffffffffffffff811182821017156110be576110be6110c4565b60405290565b7f4e487b7100000000000000000000000000000000000000000000000000000000600052604160045260246000fd5b6001600160a01b0381168114610ed957600080fd5b8015158114610ed957600080fdfea26469706673582212201272fadb300bfe2b875e5ca23c294d43805ebe05f19594484f9dc1c1e1d915e464736f6c63430008070033",
					"opcodes": "PUSH1 0x80 PUSH1 0x40 MSTORE CALLVALUE DUP1 ISZERO PUSH2 0x10 JUMPI PUSH1 0x0 DUP1 REVERT JUMPDEST POP PUSH1 0x40 MLOAD PUSH2 0x120A CODESIZE SUB DUP1 PUSH2 0x120A DUP4 CODECOPY DUP2 ADD PUSH1 0x40 DUP2 SWAP1 MSTORE PUSH2 0x2F SWAP2 PUSH2 0x7C JUMP JUMPDEST PUSH1 0x1 DUP1 SLOAD PUSH1 0x1 PUSH1 0x1 PUSH1 0xA0 SHL SUB SWAP4 DUP5 AND PUSH1 0x1 PUSH1 0x1 PUSH1 0xA0 SHL SUB NOT SWAP2 DUP3 AND OR SWAP1 SWAP2 SSTORE PUSH1 0x2 DUP1 SLOAD SWAP3 SWAP1 SWAP4 AND SWAP2 AND OR SWAP1 SSTORE PUSH2 0xAF JUMP JUMPDEST DUP1 MLOAD PUSH1 0x1 PUSH1 0x1 PUSH1 0xA0 SHL SUB DUP2 AND DUP2 EQ PUSH2 0x77 JUMPI PUSH1 0x0 DUP1 REVERT JUMPDEST SWAP2 SWAP1 POP JUMP JUMPDEST PUSH1 0x0 DUP1 PUSH1 0x40 DUP4 DUP6 SUB SLT ISZERO PUSH2 0x8F JUMPI PUSH1 0x0 DUP1 REVERT JUMPDEST PUSH2 0x98 DUP4 PUSH2 0x60 JUMP JUMPDEST SWAP2 POP PUSH2 0xA6 PUSH1 0x20 DUP5 ADD PUSH2 0x60 JUMP JUMPDEST SWAP1 POP SWAP3 POP SWAP3 SWAP1 POP JUMP JUMPDEST PUSH2 0x114C DUP1 PUSH2 0xBE PUSH1 0x0 CODECOPY PUSH1 0x0 RETURN INVALID PUSH1 0x80 PUSH1 0x40 MSTORE CALLVALUE DUP1 ISZERO PUSH2 0x10 JUMPI PUSH1 0x0 DUP1 REVERT JUMPDEST POP PUSH1 0x4 CALLDATASIZE LT PUSH2 0xD4 JUMPI PUSH1 0x0 CALLDATALOAD PUSH1 0xE0 SHR DUP1 PUSH4 0xA4786088 GT PUSH2 0x81 JUMPI DUP1 PUSH4 0xD8FEB7FF GT PUSH2 0x5B JUMPI DUP1 PUSH4 0xD8FEB7FF EQ PUSH2 0x27E JUMPI DUP1 PUSH4 0xF1C9F40F EQ PUSH2 0x291 JUMPI DUP1 PUSH4 0xF3A42537 EQ PUSH2 0x299 JUMPI PUSH1 0x0 DUP1 REVERT JUMPDEST DUP1 PUSH4 0xA4786088 EQ PUSH2 0x22A JUMPI DUP1 PUSH4 0xAB3ACB5C EQ PUSH2 0x23D JUMPI DUP1 PUSH4 0xB614984D EQ PUSH2 0x26B JUMPI PUSH1 0x0 DUP1 REVERT JUMPDEST DUP1 PUSH4 0x492B7107 GT PUSH2 0xB2 JUMPI DUP1 PUSH4 0x492B7107 EQ PUSH2 0x1F1 JUMPI DUP1 PUSH4 0x71271F4D EQ PUSH2 0x204 JUMPI DUP1 PUSH4 0x76941300 EQ PUSH2 0x217 JUMPI PUSH1 0x0 DUP1 REVERT JUMPDEST DUP1 PUSH4 0x3087CBE3 EQ PUSH2 0xD9 JUMPI DUP1 PUSH4 0x3BBAE141 EQ PUSH2 0x109 JUMPI DUP1 PUSH4 0x45DF4987 EQ PUSH2 0x113 JUMPI JUMPDEST PUSH1 0x0 DUP1 REVERT JUMPDEST PUSH1 0x1 SLOAD PUSH2 0xEC SWAP1 PUSH1 0x1 PUSH1 0x1 PUSH1 0xA0 SHL SUB AND DUP2 JUMP JUMPDEST PUSH1 0x40 MLOAD PUSH1 0x1 PUSH1 0x1 PUSH1 0xA0 SHL SUB SWAP1 SWAP2 AND DUP2 MSTORE PUSH1 0x20 ADD JUMPDEST PUSH1 0x40 MLOAD DUP1 SWAP2 SUB SWAP1 RETURN JUMPDEST PUSH2 0x111 PUSH2 0x2AC JUMP JUMPDEST STOP JUMPDEST PUSH2 0x192 PUSH2 0x121 CALLDATASIZE PUSH1 0x4 PUSH2 0xF9A JUMP JUMPDEST PUSH1 0x0 PUSH1 0x20 DUP2 SWAP1 MSTORE SWAP1 DUP2 MSTORE PUSH1 0x40 SWAP1 KECCAK256 DUP1 SLOAD PUSH1 0x1 DUP3 ADD SLOAD PUSH1 0x2 DUP4 ADD SLOAD PUSH1 0x3 DUP5 ADD SLOAD PUSH1 0x4 DUP6 ADD SLOAD PUSH1 0xF SWAP1 SWAP6 ADD SLOAD PUSH1 0x1 PUSH1 0x1 PUSH1 0xA0 SHL SUB SWAP5 DUP6 AND SWAP6 SWAP4 DUP6 AND SWAP5 SWAP3 SWAP1 SWAP3 AND SWAP3 SWAP1 SWAP2 PUSH4 0xFFFFFFFF DUP2 AND SWAP1 PUSH1 0xFF PUSH5 0x100000000 DUP3 DIV DUP2 AND SWAP2 PUSH6 0x10000000000 DUP2 DIV DUP3 AND SWAP2 PUSH7 0x1000000000000 SWAP1 SWAP2 DIV AND DUP10 JUMP JUMPDEST PUSH1 0x40 DUP1 MLOAD PUSH1 0x1 PUSH1 0x1 PUSH1 0xA0 SHL SUB SWAP11 DUP12 AND DUP2 MSTORE SWAP9 DUP11 AND PUSH1 0x20 DUP11 ADD MSTORE SWAP7 SWAP1 SWAP9 AND SWAP6 DUP8 ADD SWAP6 SWAP1 SWAP6 MSTORE PUSH1 0x60 DUP7 ADD SWAP4 SWAP1 SWAP4 MSTORE PUSH1 0x80 DUP6 ADD SWAP2 SWAP1 SWAP2 MSTORE PUSH4 0xFFFFFFFF AND PUSH1 0xA0 DUP5 ADD MSTORE ISZERO ISZERO PUSH1 0xC0 DUP4 ADD MSTORE ISZERO ISZERO PUSH1 0xE0 DUP3 ADD MSTORE SWAP1 ISZERO ISZERO PUSH2 0x100 DUP3 ADD MSTORE PUSH2 0x120 ADD PUSH2 0x100 JUMP JUMPDEST PUSH1 0x2 SLOAD PUSH2 0xEC SWAP1 PUSH1 0x1 PUSH1 0x1 PUSH1 0xA0 SHL SUB AND DUP2 JUMP JUMPDEST PUSH2 0x111 PUSH2 0x212 CALLDATASIZE PUSH1 0x4 PUSH2 0xFDB JUMP JUMPDEST PUSH2 0x39C JUMP JUMPDEST PUSH2 0x111 PUSH2 0x225 CALLDATASIZE PUSH1 0x4 PUSH2 0xF9A JUMP JUMPDEST PUSH2 0x654 JUMP JUMPDEST PUSH2 0x111 PUSH2 0x238 CALLDATASIZE PUSH1 0x4 PUSH2 0xF9A JUMP JUMPDEST PUSH2 0x78A JUMP JUMPDEST CALLER PUSH1 0x0 SWAP1 DUP2 MSTORE PUSH1 0x20 DUP2 SWAP1 MSTORE PUSH1 0x40 SWAP1 KECCAK256 PUSH1 0xF ADD SLOAD PUSH5 0x100000000 SWAP1 DIV PUSH1 0xFF AND PUSH1 0x40 MLOAD SWAP1 ISZERO ISZERO DUP2 MSTORE PUSH1 0x20 ADD PUSH2 0x100 JUMP JUMPDEST PUSH2 0x111 PUSH2 0x279 CALLDATASIZE PUSH1 0x4 PUSH2 0xF9A JUMP JUMPDEST PUSH2 0x8C7 JUMP JUMPDEST PUSH2 0x111 PUSH2 0x28C CALLDATASIZE PUSH1 0x4 PUSH2 0xFDB JUMP JUMPDEST PUSH2 0xA68 JUMP JUMPDEST PUSH2 0x111 PUSH2 0xBE8 JUMP JUMPDEST PUSH2 0x111 PUSH2 0x2A7 CALLDATASIZE PUSH1 0x4 PUSH2 0xFDB JUMP JUMPDEST PUSH2 0xCCB JUMP JUMPDEST CALLER PUSH1 0x0 SWAP1 DUP2 MSTORE PUSH1 0x20 DUP2 SWAP1 MSTORE PUSH1 0x40 SWAP1 KECCAK256 PUSH1 0xF ADD SLOAD PUSH5 0x100000000 SWAP1 DIV PUSH1 0xFF AND ISZERO ISZERO PUSH1 0x1 EQ PUSH2 0x2D8 JUMPI PUSH1 0x0 DUP1 REVERT JUMPDEST CALLER PUSH1 0x0 SWAP1 DUP2 MSTORE PUSH1 0x20 DUP2 SWAP1 MSTORE PUSH1 0x40 SWAP1 KECCAK256 PUSH1 0xF ADD SLOAD PUSH7 0x1000000000000 SWAP1 DIV PUSH1 0xFF AND ISZERO ISZERO PUSH1 0x1 EQ DUP1 ISZERO PUSH2 0x322 JUMPI POP CALLER PUSH1 0x0 DUP2 DUP2 MSTORE PUSH1 0x20 DUP2 SWAP1 MSTORE PUSH1 0x40 SWAP1 KECCAK256 PUSH1 0x1 ADD SLOAD PUSH1 0x1 PUSH1 0x1 PUSH1 0xA0 SHL SUB AND EQ JUMPDEST PUSH2 0x373 JUMPI PUSH1 0x40 MLOAD PUSH3 0x461BCD PUSH1 0xE5 SHL DUP2 MSTORE PUSH1 0x20 PUSH1 0x4 DUP3 ADD MSTORE PUSH1 0x15 PUSH1 0x24 DUP3 ADD MSTORE PUSH32 0x7468652067617465722069736E6F742065786973740000000000000000000000 PUSH1 0x44 DUP3 ADD MSTORE PUSH1 0x64 ADD JUMPDEST PUSH1 0x40 MLOAD DUP1 SWAP2 SUB SWAP1 REVERT JUMPDEST CALLER PUSH1 0x0 SWAP1 DUP2 MSTORE PUSH1 0x20 DUP2 SWAP1 MSTORE PUSH1 0x40 SWAP1 KECCAK256 PUSH1 0xF ADD DUP1 SLOAD PUSH6 0xFF0000000000 NOT AND PUSH6 0x10000000000 OR SWAP1 SSTORE JUMP JUMPDEST PUSH1 0x2 PUSH1 0x0 SWAP1 SLOAD SWAP1 PUSH2 0x100 EXP SWAP1 DIV PUSH1 0x1 PUSH1 0x1 PUSH1 0xA0 SHL SUB AND PUSH1 0x1 PUSH1 0x1 PUSH1 0xA0 SHL SUB AND PUSH4 0x1487F252 PUSH1 0x40 MLOAD DUP2 PUSH4 0xFFFFFFFF AND PUSH1 0xE0 SHL DUP2 MSTORE PUSH1 0x4 ADD PUSH1 0x20 PUSH1 0x40 MLOAD DUP1 DUP4 SUB DUP2 DUP7 DUP1 EXTCODESIZE ISZERO DUP1 ISZERO PUSH2 0x3EA JUMPI PUSH1 0x0 DUP1 REVERT JUMPDEST POP GAS STATICCALL ISZERO DUP1 ISZERO PUSH2 0x3FE JUMPI RETURNDATASIZE PUSH1 0x0 DUP1 RETURNDATACOPY RETURNDATASIZE PUSH1 0x0 REVERT JUMPDEST POP POP POP POP PUSH1 0x40 MLOAD RETURNDATASIZE PUSH1 0x1F NOT PUSH1 0x1F DUP3 ADD AND DUP3 ADD DUP1 PUSH1 0x40 MSTORE POP DUP2 ADD SWAP1 PUSH2 0x422 SWAP2 SWAP1 PUSH2 0xFBE JUMP JUMPDEST ISZERO ISZERO PUSH1 0x1 EQ PUSH2 0x430 JUMPI PUSH1 0x0 DUP1 REVERT JUMPDEST PUSH1 0x20 DUP2 DUP2 ADD MLOAD PUSH1 0x1 PUSH1 0x1 PUSH1 0xA0 SHL SUB AND PUSH1 0x0 SWAP1 DUP2 MSTORE SWAP1 DUP2 SWAP1 MSTORE PUSH1 0x40 SWAP1 KECCAK256 PUSH1 0xF ADD SLOAD PUSH7 0x1000000000000 SWAP1 DIV PUSH1 0xFF AND ISZERO ISZERO PUSH1 0x1 EQ PUSH2 0x4AE JUMPI PUSH1 0x40 MLOAD PUSH3 0x461BCD PUSH1 0xE5 SHL DUP2 MSTORE PUSH1 0x20 PUSH1 0x4 DUP3 ADD MSTORE PUSH1 0x14 PUSH1 0x24 DUP3 ADD MSTORE PUSH32 0x7468652067617465722069732065786973746572000000000000000000000000 PUSH1 0x44 DUP3 ADD MSTORE PUSH1 0x64 ADD PUSH2 0x36A JUMP JUMPDEST PUSH1 0x20 DUP2 DUP2 ADD DUP1 MLOAD PUSH1 0x1 PUSH1 0x1 PUSH1 0xA0 SHL SUB SWAP1 DUP2 AND PUSH1 0x0 SWAP1 DUP2 MSTORE DUP1 DUP5 MSTORE PUSH1 0x40 DUP1 DUP3 KECCAK256 PUSH1 0xF SWAP1 DUP2 ADD SLOAD PUSH5 0x100000000 SWAP1 DIV PUSH1 0xFF SWAP1 DUP2 AND ISZERO ISZERO PUSH1 0xE0 DUP10 ADD MSTORE DUP6 MLOAD DUP6 AND DUP5 MSTORE DUP4 DUP8 MSTORE DUP3 DUP5 KECCAK256 SWAP1 SWAP2 ADD SLOAD PUSH6 0x10000000000 SWAP1 DIV AND ISZERO ISZERO PUSH2 0x100 DUP8 ADD MSTORE DUP4 MLOAD DUP4 AND DUP3 MSTORE SWAP4 DUP2 SWAP1 MSTORE DUP4 SWAP1 KECCAK256 DUP5 MLOAD DUP2 SLOAD PUSH20 0xFFFFFFFFFFFFFFFFFFFFFFFFFFFFFFFFFFFFFFFF NOT SWAP1 DUP2 AND SWAP2 DUP5 AND SWAP2 SWAP1 SWAP2 OR DUP3 SSTORE SWAP3 MLOAD PUSH1 0x1 DUP3 ADD DUP1 SLOAD DUP6 AND SWAP2 DUP5 AND SWAP2 SWAP1 SWAP2 OR SWAP1 SSTORE SWAP3 DUP5 ADD MLOAD PUSH1 0x2 DUP5 ADD DUP1 SLOAD SWAP1 SWAP4 AND SWAP2 AND OR SWAP1 SSTORE PUSH1 0x60 DUP3 ADD MLOAD PUSH1 0x3 DUP3 ADD SSTORE PUSH1 0x80 DUP3 ADD MLOAD PUSH1 0x4 DUP3 ADD SSTORE PUSH1 0xA0 DUP3 ADD MLOAD DUP3 SWAP2 SWAP1 PUSH2 0x58D SWAP1 PUSH1 0x5 DUP4 ADD SWAP1 PUSH1 0xA PUSH2 0xE8C JUMP JUMPDEST POP PUSH1 0xC0 DUP3 ADD MLOAD PUSH1 0xF SWAP1 SWAP2 ADD DUP1 SLOAD PUSH1 0xE0 DUP5 ADD MLOAD PUSH2 0x100 DUP6 ADD MLOAD PUSH2 0x120 SWAP1 SWAP6 ADD MLOAD ISZERO ISZERO PUSH7 0x1000000000000 MUL PUSH32 0xFFFFFFFFFFFFFFFFFFFFFFFFFFFFFFFFFFFFFFFFFFFFFFFFFF00FFFFFFFFFFFF SWAP6 ISZERO ISZERO PUSH6 0x10000000000 MUL SWAP6 SWAP1 SWAP6 AND PUSH32 0xFFFFFFFFFFFFFFFFFFFFFFFFFFFFFFFFFFFFFFFFFFFFFFFFFF0000FFFFFFFFFF SWAP2 ISZERO ISZERO PUSH5 0x100000000 MUL PUSH32 0xFFFFFFFFFFFFFFFFFFFFFFFFFFFFFFFFFFFFFFFFFFFFFFFFFFFFFF0000000000 SWAP1 SWAP4 AND PUSH4 0xFFFFFFFF SWAP1 SWAP6 AND SWAP5 SWAP1 SWAP5 OR SWAP2 SWAP1 SWAP2 OR AND SWAP2 SWAP1 SWAP2 OR SWAP2 SWAP1 SWAP2 OR SWAP1 SSTORE POP JUMP JUMPDEST PUSH1 0x2 PUSH1 0x0 SWAP1 SLOAD SWAP1 PUSH2 0x100 EXP SWAP1 DIV PUSH1 0x1 PUSH1 0x1 PUSH1 0xA0 SHL SUB AND PUSH1 0x1 PUSH1 0x1 PUSH1 0xA0 SHL SUB AND PUSH4 0x1487F252 PUSH1 0x40 MLOAD DUP2 PUSH4 0xFFFFFFFF AND PUSH1 0xE0 SHL DUP2 MSTORE PUSH1 0x4 ADD PUSH1 0x20 PUSH1 0x40 MLOAD DUP1 DUP4 SUB DUP2 DUP7 DUP1 EXTCODESIZE ISZERO DUP1 ISZERO PUSH2 0x6A2 JUMPI PUSH1 0x0 DUP1 REVERT JUMPDEST POP GAS STATICCALL ISZERO DUP1 ISZERO PUSH2 0x6B6 JUMPI RETURNDATASIZE PUSH1 0x0 DUP1 RETURNDATACOPY RETURNDATASIZE PUSH1 0x0 REVERT JUMPDEST POP POP POP POP PUSH1 0x40 MLOAD RETURNDATASIZE PUSH1 0x1F NOT PUSH1 0x1F DUP3 ADD AND DUP3 ADD DUP1 PUSH1 0x40 MSTORE POP DUP2 ADD SWAP1 PUSH2 0x6DA SWAP2 SWAP1 PUSH2 0xFBE JUMP JUMPDEST ISZERO ISZERO PUSH1 0x1 EQ PUSH2 0x6E8 JUMPI PUSH1 0x0 DUP1 REVERT JUMPDEST PUSH1 0x1 PUSH1 0x1 PUSH1 0xA0 SHL SUB DUP2 AND PUSH1 0x0 SWAP1 DUP2 MSTORE PUSH1 0x20 DUP2 SWAP1 MSTORE PUSH1 0x40 SWAP1 KECCAK256 PUSH1 0xF ADD SLOAD PUSH7 0x1000000000000 SWAP1 DIV PUSH1 0xFF AND ISZERO ISZERO PUSH1 0x1 EQ PUSH2 0x762 JUMPI PUSH1 0x40 MLOAD PUSH3 0x461BCD PUSH1 0xE5 SHL DUP2 MSTORE PUSH1 0x20 PUSH1 0x4 DUP3 ADD MSTORE PUSH1 0x15 PUSH1 0x24 DUP3 ADD MSTORE PUSH32 0x7468652067617465722069736E6F742065786973740000000000000000000000 PUSH1 0x44 DUP3 ADD MSTORE PUSH1 0x64 ADD PUSH2 0x36A JUMP JUMPDEST PUSH1 0x1 PUSH1 0x1 PUSH1 0xA0 SHL SUB AND PUSH1 0x0 SWAP1 DUP2 MSTORE PUSH1 0x20 DUP2 SWAP1 MSTORE PUSH1 0x40 SWAP1 KECCAK256 PUSH1 0xF ADD DUP1 SLOAD PUSH5 0xFF00000000 NOT AND SWAP1 SSTORE JUMP JUMPDEST PUSH1 0x2 PUSH1 0x0 SWAP1 SLOAD SWAP1 PUSH2 0x100 EXP SWAP1 DIV PUSH1 0x1 PUSH1 0x1 PUSH1 0xA0 SHL SUB AND PUSH1 0x1 PUSH1 0x1 PUSH1 0xA0 SHL SUB AND PUSH4 0x1487F252 PUSH1 0x40 MLOAD DUP2 PUSH4 0xFFFFFFFF AND PUSH1 0xE0 SHL DUP2 MSTORE PUSH1 0x4 ADD PUSH1 0x20 PUSH1 0x40 MLOAD DUP1 DUP4 SUB DUP2 DUP7 DUP1 EXTCODESIZE ISZERO DUP1 ISZERO PUSH2 0x7D8 JUMPI PUSH1 0x0 DUP1 REVERT JUMPDEST POP GAS STATICCALL ISZERO DUP1 ISZERO PUSH2 0x7EC JUMPI RETURNDATASIZE PUSH1 0x0 DUP1 RETURNDATACOPY RETURNDATASIZE PUSH1 0x0 REVERT JUMPDEST POP POP POP POP PUSH1 0x40 MLOAD RETURNDATASIZE PUSH1 0x1F NOT PUSH1 0x1F DUP3 ADD AND DUP3 ADD DUP1 PUSH1 0x40 MSTORE POP DUP2 ADD SWAP1 PUSH2 0x810 SWAP2 SWAP1 PUSH2 0xFBE JUMP JUMPDEST ISZERO ISZERO PUSH1 0x1 EQ PUSH2 0x81E JUMPI PUSH1 0x0 DUP1 REVERT JUMPDEST PUSH1 0x1 PUSH1 0x1 PUSH1 0xA0 SHL SUB DUP2 AND PUSH1 0x0 SWAP1 DUP2 MSTORE PUSH1 0x20 DUP2 SWAP1 MSTORE PUSH1 0x40 SWAP1 KECCAK256 PUSH1 0xF ADD SLOAD PUSH7 0x1000000000000 SWAP1 DIV PUSH1 0xFF AND ISZERO ISZERO PUSH1 0x1 EQ PUSH2 0x898 JUMPI PUSH1 0x40 MLOAD PUSH3 0x461BCD PUSH1 0xE5 SHL DUP2 MSTORE PUSH1 0x20 PUSH1 0x4 DUP3 ADD MSTORE PUSH1 0x15 PUSH1 0x24 DUP3 ADD MSTORE PUSH32 0x7468652067617465722069736E6F742065786973740000000000000000000000 PUSH1 0x44 DUP3 ADD MSTORE PUSH1 0x64 ADD PUSH2 0x36A JUMP JUMPDEST PUSH1 0x1 PUSH1 0x1 PUSH1 0xA0 SHL SUB AND PUSH1 0x0 SWAP1 DUP2 MSTORE PUSH1 0x20 DUP2 SWAP1 MSTORE PUSH1 0x40 SWAP1 KECCAK256 PUSH1 0xF ADD DUP1 SLOAD PUSH5 0xFF00000000 NOT AND PUSH5 0x100000000 OR SWAP1 SSTORE JUMP JUMPDEST PUSH1 0x2 PUSH1 0x0 SWAP1 SLOAD SWAP1 PUSH2 0x100 EXP SWAP1 DIV PUSH1 0x1 PUSH1 0x1 PUSH1 0xA0 SHL SUB AND PUSH1 0x1 PUSH1 0x1 PUSH1 0xA0 SHL SUB AND PUSH4 0x1487F252 PUSH1 0x40 MLOAD DUP2 PUSH4 0xFFFFFFFF AND PUSH1 0xE0 SHL DUP2 MSTORE PUSH1 0x4 ADD PUSH1 0x20 PUSH1 0x40 MLOAD DUP1 DUP4 SUB DUP2 DUP7 DUP1 EXTCODESIZE ISZERO DUP1 ISZERO PUSH2 0x915 JUMPI PUSH1 0x0 DUP1 REVERT JUMPDEST POP GAS STATICCALL ISZERO DUP1 ISZERO PUSH2 0x929 JUMPI RETURNDATASIZE PUSH1 0x0 DUP1 RETURNDATACOPY RETURNDATASIZE PUSH1 0x0 REVERT JUMPDEST POP POP POP POP PUSH1 0x40 MLOAD RETURNDATASIZE PUSH1 0x1F NOT PUSH1 0x1F DUP3 ADD AND DUP3 ADD DUP1 PUSH1 0x40 MSTORE POP DUP2 ADD SWAP1 PUSH2 0x94D SWAP2 SWAP1 PUSH2 0xFBE JUMP JUMPDEST ISZERO ISZERO PUSH1 0x1 EQ PUSH2 0x95B JUMPI PUSH1 0x0 DUP1 REVERT JUMPDEST PUSH1 0x1 PUSH1 0x1 PUSH1 0xA0 SHL SUB DUP2 AND PUSH1 0x0 SWAP1 DUP2 MSTORE PUSH1 0x20 DUP2 SWAP1 MSTORE PUSH1 0x40 SWAP1 KECCAK256 PUSH1 0xF ADD SLOAD PUSH7 0x1000000000000 SWAP1 DIV PUSH1 0xFF AND ISZERO ISZERO PUSH1 0x1 EQ PUSH2 0x9D5 JUMPI PUSH1 0x40 MLOAD PUSH3 0x461BCD PUSH1 0xE5 SHL DUP2 MSTORE PUSH1 0x20 PUSH1 0x4 DUP3 ADD MSTORE PUSH1 0x14 PUSH1 0x24 DUP3 ADD MSTORE PUSH32 0x7468652067617465722069732065786973746572000000000000000000000000 PUSH1 0x44 DUP3 ADD MSTORE PUSH1 0x64 ADD PUSH2 0x36A JUMP JUMPDEST PUSH1 0x1 PUSH1 0x1 PUSH1 0xA0 SHL SUB DUP2 AND PUSH1 0x0 SWAP1 DUP2 MSTORE PUSH1 0x20 DUP2 SWAP1 MSTORE PUSH1 0x40 DUP2 KECCAK256 DUP1 SLOAD PUSH20 0xFFFFFFFFFFFFFFFFFFFFFFFFFFFFFFFFFFFFFFFF NOT SWAP1 DUP2 AND DUP3 SSTORE PUSH1 0x1 DUP3 ADD DUP1 SLOAD DUP3 AND SWAP1 SSTORE PUSH1 0x2 DUP3 ADD DUP1 SLOAD SWAP1 SWAP2 AND SWAP1 SSTORE PUSH1 0x3 DUP2 ADD DUP3 SWAP1 SSTORE PUSH1 0x4 DUP2 ADD DUP3 SWAP1 SSTORE SWAP1 PUSH2 0xA3B PUSH1 0x5 DUP4 ADD DUP3 PUSH2 0xECA JUMP JUMPDEST POP PUSH1 0xF ADD DUP1 SLOAD PUSH32 0xFFFFFFFFFFFFFFFFFFFFFFFFFFFFFFFFFFFFFFFFFFFFFFFFFF00000000000000 AND SWAP1 SSTORE POP JUMP JUMPDEST PUSH1 0x20 DUP2 DUP2 ADD MLOAD PUSH1 0x1 PUSH1 0x1 PUSH1 0xA0 SHL SUB AND PUSH1 0x0 SWAP1 DUP2 MSTORE SWAP1 DUP2 SWAP1 MSTORE PUSH1 0x40 SWAP1 KECCAK256 PUSH1 0xF ADD SLOAD PUSH7 0x1000000000000 SWAP1 DIV PUSH1 0xFF AND ISZERO ISZERO PUSH1 0x1 EQ ISZERO PUSH2 0xAE7 JUMPI PUSH1 0x40 MLOAD PUSH3 0x461BCD PUSH1 0xE5 SHL DUP2 MSTORE PUSH1 0x20 PUSH1 0x4 DUP3 ADD MSTORE PUSH1 0x14 PUSH1 0x24 DUP3 ADD MSTORE PUSH32 0x7468652067617465722069732065786973746572000000000000000000000000 PUSH1 0x44 DUP3 ADD MSTORE PUSH1 0x64 ADD PUSH2 0x36A JUMP JUMPDEST PUSH1 0x20 DUP2 ADD MLOAD PUSH1 0x1 PUSH1 0x1 PUSH1 0xA0 SHL SUB AND CALLER EQ PUSH2 0xB43 JUMPI PUSH1 0x40 MLOAD PUSH3 0x461BCD PUSH1 0xE5 SHL DUP2 MSTORE PUSH1 0x20 PUSH1 0x4 DUP3 ADD MSTORE PUSH1 0x11 PUSH1 0x24 DUP3 ADD MSTORE PUSH32 0x74686520676174657220697320796F7572000000000000000000000000000000 PUSH1 0x44 DUP3 ADD MSTORE PUSH1 0x64 ADD PUSH2 0x36A JUMP JUMPDEST PUSH1 0x0 PUSH1 0xE0 DUP3 ADD DUP2 SWAP1 MSTORE PUSH2 0x100 DUP3 ADD DUP2 SWAP1 MSTORE PUSH1 0x20 DUP1 DUP4 ADD DUP1 MLOAD PUSH1 0x1 PUSH1 0x1 PUSH1 0xA0 SHL SUB SWAP1 DUP2 AND DUP5 MSTORE SWAP2 DUP4 SWAP1 MSTORE PUSH1 0x40 SWAP3 DUP4 SWAP1 KECCAK256 DUP5 MLOAD DUP2 SLOAD SWAP1 DUP5 AND PUSH20 0xFFFFFFFFFFFFFFFFFFFFFFFFFFFFFFFFFFFFFFFF NOT SWAP2 DUP3 AND OR DUP3 SSTORE SWAP2 MLOAD PUSH1 0x1 DUP3 ADD DUP1 SLOAD SWAP2 DUP6 AND SWAP2 DUP5 AND SWAP2 SWAP1 SWAP2 OR SWAP1 SSTORE SWAP3 DUP5 ADD MLOAD PUSH1 0x2 DUP5 ADD DUP1 SLOAD SWAP2 SWAP1 SWAP4 AND SWAP2 AND OR SWAP1 SSTORE PUSH1 0x60 DUP3 ADD MLOAD PUSH1 0x3 DUP3 ADD SSTORE PUSH1 0x80 DUP3 ADD MLOAD PUSH1 0x4 DUP3 ADD SSTORE PUSH1 0xA0 DUP3 ADD MLOAD DUP3 SWAP2 SWAP1 PUSH2 0x58D SWAP1 PUSH1 0x5 DUP4 ADD SWAP1 PUSH1 0xA PUSH2 0xE8C JUMP JUMPDEST CALLER PUSH1 0x0 SWAP1 DUP2 MSTORE PUSH1 0x20 DUP2 SWAP1 MSTORE PUSH1 0x40 SWAP1 KECCAK256 PUSH1 0xF ADD SLOAD PUSH5 0x100000000 SWAP1 DIV PUSH1 0xFF AND ISZERO ISZERO PUSH1 0x1 EQ PUSH2 0xC14 JUMPI PUSH1 0x0 DUP1 REVERT JUMPDEST CALLER PUSH1 0x0 SWAP1 DUP2 MSTORE PUSH1 0x20 DUP2 SWAP1 MSTORE PUSH1 0x40 SWAP1 KECCAK256 PUSH1 0xF ADD SLOAD PUSH7 0x1000000000000 SWAP1 DIV PUSH1 0xFF AND ISZERO ISZERO PUSH1 0x1 EQ DUP1 ISZERO PUSH2 0xC5E JUMPI POP CALLER PUSH1 0x0 DUP2 DUP2 MSTORE PUSH1 0x20 DUP2 SWAP1 MSTORE PUSH1 0x40 SWAP1 KECCAK256 PUSH1 0x1 ADD SLOAD PUSH1 0x1 PUSH1 0x1 PUSH1 0xA0 SHL SUB AND EQ JUMPDEST PUSH2 0xCAA JUMPI PUSH1 0x40 MLOAD PUSH3 0x461BCD PUSH1 0xE5 SHL DUP2 MSTORE PUSH1 0x20 PUSH1 0x4 DUP3 ADD MSTORE PUSH1 0x15 PUSH1 0x24 DUP3 ADD MSTORE PUSH32 0x7468652067617465722069736E6F742065786973740000000000000000000000 PUSH1 0x44 DUP3 ADD MSTORE PUSH1 0x64 ADD PUSH2 0x36A JUMP JUMPDEST CALLER PUSH1 0x0 SWAP1 DUP2 MSTORE PUSH1 0x20 DUP2 SWAP1 MSTORE PUSH1 0x40 SWAP1 KECCAK256 PUSH1 0xF ADD DUP1 SLOAD PUSH6 0xFF0000000000 NOT AND SWAP1 SSTORE JUMP JUMPDEST CALLER PUSH1 0x0 SWAP1 DUP2 MSTORE PUSH1 0x20 DUP2 SWAP1 MSTORE PUSH1 0x40 SWAP1 KECCAK256 PUSH1 0xF ADD SLOAD PUSH5 0x100000000 SWAP1 DIV PUSH1 0xFF AND ISZERO ISZERO PUSH1 0x1 EQ PUSH2 0xCF7 JUMPI PUSH1 0x0 DUP1 REVERT JUMPDEST PUSH1 0x20 DUP2 DUP2 ADD MLOAD PUSH1 0x1 PUSH1 0x1 PUSH1 0xA0 SHL SUB AND PUSH1 0x0 SWAP1 DUP2 MSTORE SWAP1 DUP2 SWAP1 MSTORE PUSH1 0x40 SWAP1 KECCAK256 PUSH1 0xF ADD SLOAD PUSH7 0x1000000000000 SWAP1 DIV PUSH1 0xFF AND ISZERO ISZERO PUSH1 0x1 EQ PUSH2 0xD75 JUMPI PUSH1 0x40 MLOAD PUSH3 0x461BCD PUSH1 0xE5 SHL DUP2 MSTORE PUSH1 0x20 PUSH1 0x4 DUP3 ADD MSTORE PUSH1 0x14 PUSH1 0x24 DUP3 ADD MSTORE PUSH32 0x7468652067617465722069732065786973746572000000000000000000000000 PUSH1 0x44 DUP3 ADD MSTORE PUSH1 0x64 ADD PUSH2 0x36A JUMP JUMPDEST PUSH1 0x20 DUP1 DUP3 ADD MLOAD PUSH1 0x1 PUSH1 0x1 PUSH1 0xA0 SHL SUB SWAP1 DUP2 AND PUSH1 0x0 SWAP1 DUP2 MSTORE SWAP2 DUP3 SWAP1 MSTORE PUSH1 0x40 SWAP1 SWAP2 KECCAK256 PUSH1 0x1 ADD SLOAD AND CALLER EQ PUSH2 0xDE7 JUMPI PUSH1 0x40 MLOAD PUSH3 0x461BCD PUSH1 0xE5 SHL DUP2 MSTORE PUSH1 0x20 PUSH1 0x4 DUP3 ADD MSTORE PUSH1 0x11 PUSH1 0x24 DUP3 ADD MSTORE PUSH32 0x74686520676174657220697320796F7572000000000000000000000000000000 PUSH1 0x44 DUP3 ADD MSTORE PUSH1 0x64 ADD PUSH2 0x36A JUMP JUMPDEST PUSH1 0x0 PUSH1 0xE0 DUP3 ADD DUP2 SWAP1 MSTORE PUSH1 0x1 PUSH2 0x100 DUP4 ADD DUP2 SWAP1 MSTORE PUSH1 0x20 DUP1 DUP5 ADD DUP1 MLOAD PUSH1 0x1 PUSH1 0x1 PUSH1 0xA0 SHL SUB SWAP1 DUP2 AND DUP6 MSTORE SWAP2 DUP5 SWAP1 MSTORE PUSH1 0x40 SWAP4 DUP5 SWAP1 KECCAK256 DUP6 MLOAD DUP2 SLOAD PUSH20 0xFFFFFFFFFFFFFFFFFFFFFFFFFFFFFFFFFFFFFFFF NOT SWAP1 DUP2 AND SWAP2 DUP6 AND SWAP2 SWAP1 SWAP2 OR DUP3 SSTORE SWAP2 MLOAD SWAP4 DUP2 ADD DUP1 SLOAD DUP4 AND SWAP5 DUP5 AND SWAP5 SWAP1 SWAP5 OR SWAP1 SWAP4 SSTORE SWAP3 DUP5 ADD MLOAD PUSH1 0x2 DUP4 ADD DUP1 SLOAD SWAP1 SWAP5 AND SWAP2 AND OR SWAP1 SWAP2 SSTORE PUSH1 0x60 DUP3 ADD MLOAD PUSH1 0x3 DUP3 ADD SSTORE PUSH1 0x80 DUP3 ADD MLOAD PUSH1 0x4 DUP3 ADD SSTORE PUSH1 0xA0 DUP3 ADD MLOAD DUP3 SWAP2 SWAP1 PUSH2 0x58D SWAP1 PUSH1 0x5 DUP4 ADD SWAP1 PUSH1 0xA JUMPDEST DUP3 PUSH1 0xA DUP2 ADD SWAP3 DUP3 ISZERO PUSH2 0xEBA JUMPI SWAP2 PUSH1 0x20 MUL DUP3 ADD JUMPDEST DUP3 DUP2 GT ISZERO PUSH2 0xEBA JUMPI DUP3 MLOAD DUP3 SSTORE SWAP2 PUSH1 0x20 ADD SWAP2 SWAP1 PUSH1 0x1 ADD SWAP1 PUSH2 0xE9F JUMP JUMPDEST POP PUSH2 0xEC6 SWAP3 SWAP2 POP PUSH2 0xEDC JUMP JUMPDEST POP SWAP1 JUMP JUMPDEST POP PUSH2 0xED9 SWAP1 PUSH1 0xA DUP2 ADD SWAP1 PUSH2 0xEDC JUMP JUMPDEST POP JUMP JUMPDEST JUMPDEST DUP1 DUP3 GT ISZERO PUSH2 0xEC6 JUMPI PUSH1 0x0 DUP2 SSTORE PUSH1 0x1 ADD PUSH2 0xEDD JUMP JUMPDEST DUP1 CALLDATALOAD PUSH2 0xEFC DUP2 PUSH2 0x10F3 JUMP JUMPDEST SWAP2 SWAP1 POP JUMP JUMPDEST PUSH1 0x0 DUP3 PUSH1 0x1F DUP4 ADD SLT PUSH2 0xF12 JUMPI PUSH1 0x0 DUP1 REVERT JUMPDEST PUSH1 0x40 MLOAD PUSH2 0x140 DUP1 DUP3 ADD DUP3 DUP2 LT PUSH8 0xFFFFFFFFFFFFFFFF DUP3 GT OR ISZERO PUSH2 0xF37 JUMPI PUSH2 0xF37 PUSH2 0x10C4 JUMP JUMPDEST PUSH1 0x40 MSTORE DUP2 DUP5 DUP3 DUP2 ADD DUP8 LT ISZERO PUSH2 0xF4B JUMPI PUSH1 0x0 DUP1 REVERT JUMPDEST PUSH1 0x0 SWAP3 POP JUMPDEST PUSH1 0xA DUP4 LT ISZERO PUSH2 0xF70 JUMPI DUP1 CALLDATALOAD DUP3 MSTORE PUSH1 0x1 SWAP3 SWAP1 SWAP3 ADD SWAP2 PUSH1 0x20 SWAP2 DUP3 ADD SWAP2 ADD PUSH2 0xF50 JUMP JUMPDEST POP SWAP2 SWAP6 SWAP5 POP POP POP POP POP JUMP JUMPDEST DUP1 CALLDATALOAD PUSH2 0xEFC DUP2 PUSH2 0x1108 JUMP JUMPDEST DUP1 CALLDATALOAD PUSH4 0xFFFFFFFF DUP2 AND DUP2 EQ PUSH2 0xEFC JUMPI PUSH1 0x0 DUP1 REVERT JUMPDEST PUSH1 0x0 PUSH1 0x20 DUP3 DUP5 SUB SLT ISZERO PUSH2 0xFAC JUMPI PUSH1 0x0 DUP1 REVERT JUMPDEST DUP2 CALLDATALOAD PUSH2 0xFB7 DUP2 PUSH2 0x10F3 JUMP JUMPDEST SWAP4 SWAP3 POP POP POP JUMP JUMPDEST PUSH1 0x0 PUSH1 0x20 DUP3 DUP5 SUB SLT ISZERO PUSH2 0xFD0 JUMPI PUSH1 0x0 DUP1 REVERT JUMPDEST DUP2 MLOAD PUSH2 0xFB7 DUP2 PUSH2 0x1108 JUMP JUMPDEST PUSH1 0x0 PUSH2 0x260 DUP3 DUP5 SUB SLT ISZERO PUSH2 0xFEE JUMPI PUSH1 0x0 DUP1 REVERT JUMPDEST PUSH2 0xFF6 PUSH2 0x109A JUMP JUMPDEST PUSH2 0xFFF DUP4 PUSH2 0xEF1 JUMP JUMPDEST DUP2 MSTORE PUSH2 0x100D PUSH1 0x20 DUP5 ADD PUSH2 0xEF1 JUMP JUMPDEST PUSH1 0x20 DUP3 ADD MSTORE PUSH2 0x101E PUSH1 0x40 DUP5 ADD PUSH2 0xEF1 JUMP JUMPDEST PUSH1 0x40 DUP3 ADD MSTORE PUSH1 0x60 DUP4 ADD CALLDATALOAD PUSH1 0x60 DUP3 ADD MSTORE PUSH1 0x80 DUP4 ADD CALLDATALOAD PUSH1 0x80 DUP3 ADD MSTORE PUSH2 0x1044 DUP5 PUSH1 0xA0 DUP6 ADD PUSH2 0xF01 JUMP JUMPDEST PUSH1 0xA0 DUP3 ADD MSTORE PUSH2 0x1056 PUSH2 0x1E0 DUP5 ADD PUSH2 0xF86 JUMP JUMPDEST PUSH1 0xC0 DUP3 ADD MSTORE PUSH2 0x1068 PUSH2 0x200 DUP5 ADD PUSH2 0xF7B JUMP JUMPDEST PUSH1 0xE0 DUP3 ADD MSTORE PUSH2 0x107A PUSH2 0x220 DUP5 ADD PUSH2 0xF7B JUMP JUMPDEST PUSH2 0x100 DUP3 ADD MSTORE PUSH2 0x108D PUSH2 0x240 DUP5 ADD PUSH2 0xF7B JUMP JUMPDEST PUSH2 0x120 DUP3 ADD MSTORE SWAP4 SWAP3 POP POP POP JUMP JUMPDEST PUSH1 0x40 MLOAD PUSH2 0x140 DUP2 ADD PUSH8 0xFFFFFFFFFFFFFFFF DUP2 GT DUP3 DUP3 LT OR ISZERO PUSH2 0x10BE JUMPI PUSH2 0x10BE PUSH2 0x10C4 JUMP JUMPDEST PUSH1 0x40 MSTORE SWAP1 JUMP JUMPDEST PUSH32 0x4E487B7100000000000000000000000000000000000000000000000000000000 PUSH1 0x0 MSTORE PUSH1 0x41 PUSH1 0x4 MSTORE PUSH1 0x24 PUSH1 0x0 REVERT JUMPDEST PUSH1 0x1 PUSH1 0x1 PUSH1 0xA0 SHL SUB DUP2 AND DUP2 EQ PUSH2 0xED9 JUMPI PUSH1 0x0 DUP1 REVERT JUMPDEST DUP1 ISZERO ISZERO DUP2 EQ PUSH2 0xED9 JUMPI PUSH1 0x0 DUP1 REVERT INVALID LOG2 PUSH5 0x6970667358 0x22 SLT KECCAK256 SLT PUSH19 0xFADB300BFE2B875E5CA23C294D43805EBE05F1 SWAP6 SWAP5 BASEFEE 0x4F SWAP14 0xC1 0xC1 0xE1 0xD9 ISZERO 0xE4 PUSH5 0x736F6C6343 STOP ADDMOD SMOD STOP CALLER "
				},
				"gasEstimates": {
					"creation": {
						"codeDepositCost": "885600",
						"executionCost": "infinite",
						"totalCost": "infinite"
					},
					"external": {
						"addGater((address,address,uint160,bytes32,bytes32,bytes32[10],uint32,bool,bool,bool))": "infinite",
						"delGatebyMarketor(address)": "infinite",
						"gateList(address)": "13486",
						"isValidGater()": "2425",
						"lockGatebyGater()": "31160",
						"lockGatebyMarketor(address)": "infinite",
						"marketContractAddress()": "2350",
						"marketorContractAddress()": "2349",
						"unlockGatebyGater()": "31152",
						"unlockGatebyMarketor(address)": "infinite",
						"updateGatebyGator((address,address,uint160,bytes32,bytes32,bytes32[10],uint32,bool,bool,bool))": "infinite",
						"updateGatebyMarketor((address,address,uint160,bytes32,bytes32,bytes32[10],uint32,bool,bool,bool))": "infinite"
					}
				},
				"methodIdentifiers": {
					"addGater((address,address,uint160,bytes32,bytes32,bytes32[10],uint32,bool,bool,bool))": "d8feb7ff",
					"delGatebyMarketor(address)": "b614984d",
					"gateList(address)": "45df4987",
					"isValidGater()": "ab3acb5c",
					"lockGatebyGater()": "3bbae141",
					"lockGatebyMarketor(address)": "a4786088",
					"marketContractAddress()": "3087cbe3",
					"marketorContractAddress()": "492b7107",
					"unlockGatebyGater()": "f1c9f40f",
					"unlockGatebyMarketor(address)": "76941300",
					"updateGatebyGator((address,address,uint160,bytes32,bytes32,bytes32[10],uint32,bool,bool,bool))": "f3a42537",
					"updateGatebyMarketor((address,address,uint160,bytes32,bytes32,bytes32[10],uint32,bool,bool,bool))": "71271f4d"
				}
			},
			"storageLayout": {
				"storage": [
					{
						"astId": 27,
						"contract": "Contracts/MoonV1Gater.sol:MoonV1Gater",
						"label": "gateList",
						"offset": 0,
						"slot": "0",
						"type": "t_mapping(t_address,t_struct(Info)525_storage)"
					},
					{
						"astId": 29,
						"contract": "Contracts/MoonV1Gater.sol:MoonV1Gater",
						"label": "marketContractAddress",
						"offset": 0,
						"slot": "1",
						"type": "t_address"
					},
					{
						"astId": 31,
						"contract": "Contracts/MoonV1Gater.sol:MoonV1Gater",
						"label": "marketorContractAddress",
						"offset": 0,
						"slot": "2",
						"type": "t_address"
					}
				],
				"types": {
					"t_address": {
						"encoding": "inplace",
						"label": "address",
						"numberOfBytes": "20"
					},
					"t_array(t_bytes32)10_storage": {
						"base": "t_bytes32",
						"encoding": "inplace",
						"label": "bytes32[10]",
						"numberOfBytes": "320"
					},
					"t_bool": {
						"encoding": "inplace",
						"label": "bool",
						"numberOfBytes": "1"
					},
					"t_bytes32": {
						"encoding": "inplace",
						"label": "bytes32",
						"numberOfBytes": "32"
					},
					"t_mapping(t_address,t_struct(Info)525_storage)": {
						"encoding": "mapping",
						"key": "t_address",
						"label": "mapping(address => struct LGate.Info)",
						"numberOfBytes": "32",
						"value": "t_struct(Info)525_storage"
					},
					"t_struct(Info)525_storage": {
						"encoding": "inplace",
						"label": "struct LGate.Info",
						"members": [
							{
								"astId": 504,
								"contract": "Contracts/MoonV1Gater.sol:MoonV1Gater",
								"label": "market",
								"offset": 0,
								"slot": "0",
								"type": "t_address"
							},
							{
								"astId": 506,
								"contract": "Contracts/MoonV1Gater.sol:MoonV1Gater",
								"label": "gateAddress",
								"offset": 0,
								"slot": "1",
								"type": "t_address"
							},
							{
								"astId": 508,
								"contract": "Contracts/MoonV1Gater.sol:MoonV1Gater",
								"label": "authority",
								"offset": 0,
								"slot": "2",
								"type": "t_uint160"
							},
							{
								"astId": 510,
								"contract": "Contracts/MoonV1Gater.sol:MoonV1Gater",
								"label": "name",
								"offset": 0,
								"slot": "3",
								"type": "t_bytes32"
							},
							{
								"astId": 512,
								"contract": "Contracts/MoonV1Gater.sol:MoonV1Gater",
								"label": "website",
								"offset": 0,
								"slot": "4",
								"type": "t_bytes32"
							},
							{
								"astId": 516,
								"contract": "Contracts/MoonV1Gater.sol:MoonV1Gater",
								"label": "webserverip",
								"offset": 0,
								"slot": "5",
								"type": "t_array(t_bytes32)10_storage"
							},
							{
								"astId": 518,
								"contract": "Contracts/MoonV1Gater.sol:MoonV1Gater",
								"label": "createtimestamp",
								"offset": 0,
								"slot": "15",
								"type": "t_uint32"
							},
							{
								"astId": 520,
								"contract": "Contracts/MoonV1Gater.sol:MoonV1Gater",
								"label": "marketunlock",
								"offset": 4,
								"slot": "15",
								"type": "t_bool"
							},
							{
								"astId": 522,
								"contract": "Contracts/MoonV1Gater.sol:MoonV1Gater",
								"label": "unlock",
								"offset": 5,
								"slot": "15",
								"type": "t_bool"
							},
							{
								"astId": 524,
								"contract": "Contracts/MoonV1Gater.sol:MoonV1Gater",
								"label": "isUsed",
								"offset": 6,
								"slot": "15",
								"type": "t_bool"
							}
						],
						"numberOfBytes": "512"
					},
					"t_uint160": {
						"encoding": "inplace",
						"label": "uint160",
						"numberOfBytes": "20"
					},
					"t_uint32": {
						"encoding": "inplace",
						"label": "uint32",
						"numberOfBytes": "4"
					}
				}
			},
			"userdoc": {
				"kind": "user",
				"methods": {},
				"version": 1
			}
		}
	}
}