{
	"Contracts/Copy_MoonV1Market.sol": {
		"MoonV1Market": {
			"abi": [
				{
					"inputs": [],
					"stateMutability": "nonpayable",
					"type": "constructor"
				},
				{
					"inputs": [],
					"name": "marketCreator",
					"outputs": [
						{
							"internalType": "address",
							"name": "",
							"type": "address"
						}
					],
					"stateMutability": "view",
					"type": "function"
				}
			],
			"devdoc": {
				"kind": "dev",
				"methods": {},
				"version": 1
			},
			"evm": {
				"assembly": "    /* \"Contracts/Copy_MoonV1Market.sol\":244:1461  contract MoonV1Market is NoDelegateCall {... */\n  mstore(0x40, 0xa0)\n    /* \"Contracts/Copy_MoonV1Market.sol\":429:1458  constructor() {... */\n  callvalue\n  dup1\n  iszero\n  tag_1\n  jumpi\n  0x00\n  dup1\n  revert\ntag_1:\n  pop\n    /* \"Contracts/NoDelegateCall.sol\":724:728  this */\n  address\n    /* \"Contracts/NoDelegateCall.sol\":705:729  original = address(this) */\n  0x60\n  shl\n  0x80\n  mstore\n    /* \"Contracts/Copy_MoonV1Market.sol\":453:466  marketCreator */\n  0x00\n    /* \"Contracts/Copy_MoonV1Market.sol\":453:479  marketCreator = msg.sender */\n  dup1\n  sload\n  not(sub(shl(0xa0, 0x01), 0x01))\n  and\n    /* \"Contracts/Copy_MoonV1Market.sol\":469:479  msg.sender */\n  caller\n    /* \"Contracts/Copy_MoonV1Market.sol\":453:479  marketCreator = msg.sender */\n  or\n  swap1\n  sstore\n    /* \"Contracts/Copy_MoonV1Market.sol\":244:1461  contract MoonV1Market is NoDelegateCall {... */\n  shr(0x60, mload(0x80))\n  codecopy(0x00, dataOffset(sub_0), dataSize(sub_0))\n  0x00\n  assignImmutable(\"0x8ee194a39585e57c39bf9248c7b5f13f54afd305274516573340f7767a485c6e\")\n  return(0x00, dataSize(sub_0))\nstop\n\nsub_0: assembly {\n        /* \"Contracts/Copy_MoonV1Market.sol\":244:1461  contract MoonV1Market is NoDelegateCall {... */\n      mstore(0x40, 0x80)\n      callvalue\n      dup1\n      iszero\n      tag_1\n      jumpi\n      0x00\n      dup1\n      revert\n    tag_1:\n      pop\n      jumpi(tag_2, lt(calldatasize, 0x04))\n      shr(0xe0, calldataload(0x00))\n      dup1\n      0x27cbaabe\n      eq\n      tag_3\n      jumpi\n    tag_2:\n      0x00\n      dup1\n      revert\n        /* \"Contracts/Copy_MoonV1Market.sol\":366:394  address public marketCreator */\n    tag_3:\n      sload(0x00)\n      tag_4\n      swap1\n      0xffffffffffffffffffffffffffffffffffffffff\n      and\n      dup2\n      jump\n    tag_4:\n      mload(0x40)\n        /* \"#utility.yul\":190:232   */\n      0xffffffffffffffffffffffffffffffffffffffff\n        /* \"#utility.yul\":178:233   */\n      swap1\n      swap2\n      and\n        /* \"#utility.yul\":160:234   */\n      dup2\n      mstore\n        /* \"#utility.yul\":148:150   */\n      0x20\n        /* \"#utility.yul\":133:151   */\n      add\n        /* \"Contracts/Copy_MoonV1Market.sol\":366:394  address public marketCreator */\n      mload(0x40)\n      dup1\n      swap2\n      sub\n      swap1\n      return\n\n    auxdata: 0xa26469706673582212201928c783eefeb1e417f9efc79c9ca1a2506c2228cdf3fe45f9ccfeab1c71032864736f6c63430008070033\n}\n",
				"bytecode": {
					"linkReferences": {},
					"object": "60a0604052348015600f57600080fd5b503060601b608052600080546001600160a01b0319163317905560805160601c60ab6100426000396000505060ab6000f3fe6080604052348015600f57600080fd5b506004361060285760003560e01c806327cbaabe14602d575b600080fd5b600054604c9073ffffffffffffffffffffffffffffffffffffffff1681565b60405173ffffffffffffffffffffffffffffffffffffffff909116815260200160405180910390f3fea26469706673582212201928c783eefeb1e417f9efc79c9ca1a2506c2228cdf3fe45f9ccfeab1c71032864736f6c63430008070033",
					"opcodes": "PUSH1 0xA0 PUSH1 0x40 MSTORE CALLVALUE DUP1 ISZERO PUSH1 0xF JUMPI PUSH1 0x0 DUP1 REVERT JUMPDEST POP ADDRESS PUSH1 0x60 SHL PUSH1 0x80 MSTORE PUSH1 0x0 DUP1 SLOAD PUSH1 0x1 PUSH1 0x1 PUSH1 0xA0 SHL SUB NOT AND CALLER OR SWAP1 SSTORE PUSH1 0x80 MLOAD PUSH1 0x60 SHR PUSH1 0xAB PUSH2 0x42 PUSH1 0x0 CODECOPY PUSH1 0x0 POP POP PUSH1 0xAB PUSH1 0x0 RETURN INVALID PUSH1 0x80 PUSH1 0x40 MSTORE CALLVALUE DUP1 ISZERO PUSH1 0xF JUMPI PUSH1 0x0 DUP1 REVERT JUMPDEST POP PUSH1 0x4 CALLDATASIZE LT PUSH1 0x28 JUMPI PUSH1 0x0 CALLDATALOAD PUSH1 0xE0 SHR DUP1 PUSH4 0x27CBAABE EQ PUSH1 0x2D JUMPI JUMPDEST PUSH1 0x0 DUP1 REVERT JUMPDEST PUSH1 0x0 SLOAD PUSH1 0x4C SWAP1 PUSH20 0xFFFFFFFFFFFFFFFFFFFFFFFFFFFFFFFFFFFFFFFF AND DUP2 JUMP JUMPDEST PUSH1 0x40 MLOAD PUSH20 0xFFFFFFFFFFFFFFFFFFFFFFFFFFFFFFFFFFFFFFFF SWAP1 SWAP2 AND DUP2 MSTORE PUSH1 0x20 ADD PUSH1 0x40 MLOAD DUP1 SWAP2 SUB SWAP1 RETURN INVALID LOG2 PUSH5 0x6970667358 0x22 SLT KECCAK256 NOT 0x28 0xC7 DUP4 0xEE INVALID 0xB1 0xE4 OR 0xF9 0xEF 0xC7 SWAP13 SWAP13 LOG1 LOG2 POP PUSH13 0x2228CDF3FE45F9CCFEAB1C7103 0x28 PUSH5 0x736F6C6343 STOP ADDMOD SMOD STOP CALLER "
				},
				"gasEstimates": {
					"creation": {
						"codeDepositCost": "34200",
						"executionCost": "infinite",
						"totalCost": "infinite"
					},
					"external": {
						"marketCreator()": "2279"
					}
				},
				"methodIdentifiers": {
					"marketCreator()": "27cbaabe"
				}
			},
			"storageLayout": {
				"storage": [
					{
						"astId": 8,
						"contract": "Contracts/Copy_MoonV1Market.sol:MoonV1Market",
						"label": "marketCreator",
						"offset": 0,
						"slot": "0",
						"type": "t_address"
					}
				],
				"types": {
					"t_address": {
						"encoding": "inplace",
						"label": "address",
						"numberOfBytes": "20"
					}
				}
			},
			"userdoc": {
				"kind": "user",
				"methods": {},
				"version": 1
			}
		}
	}
}