{
	"Contracts/TTSwapV1Coin.sol": {
		"TTSwapV1Coin": {
			"abi": [
				{
					"inputs": [
						{
							"internalType": "address",
							"name": "_gatorContractAddress",
							"type": "address"
						},
						{
							"internalType": "address",
							"name": "_marketorContractAddress",
							"type": "address"
						},
						{
							"internalType": "address",
							"name": "_marketCreator",
							"type": "address"
						}
					],
					"stateMutability": "nonpayable",
					"type": "constructor"
				},
				{
					"anonymous": false,
					"inputs": [
						{
							"indexed": false,
							"internalType": "address",
							"name": "",
							"type": "address"
						}
					],
					"name": "e_addCoinDetailbyGator",
					"type": "event"
				},
				{
					"anonymous": false,
					"inputs": [
						{
							"indexed": false,
							"internalType": "address",
							"name": "",
							"type": "address"
						},
						{
							"components": [
								{
									"internalType": "bytes32",
									"name": "coinFullName",
									"type": "bytes32"
								},
								{
									"internalType": "bytes32",
									"name": "symbol",
									"type": "bytes32"
								},
								{
									"internalType": "bytes32",
									"name": "typecode",
									"type": "bytes32"
								},
								{
									"internalType": "uint8",
									"name": "decimals",
									"type": "uint8"
								},
								{
									"internalType": "uint256",
									"name": "maxSupply",
									"type": "uint256"
								},
								{
									"internalType": "uint256",
									"name": "totalSupply",
									"type": "uint256"
								},
								{
									"internalType": "address",
									"name": "contractAddress",
									"type": "address"
								},
								{
									"internalType": "bool",
									"name": "marketunlock",
									"type": "bool"
								},
								{
									"internalType": "bool",
									"name": "gateunlock",
									"type": "bool"
								},
								{
									"internalType": "bool",
									"name": "isUsed",
									"type": "bool"
								},
								{
									"internalType": "address",
									"name": "creator",
									"type": "address"
								}
							],
							"indexed": false,
							"internalType": "struct LCoin.Info",
							"name": "",
							"type": "tuple"
						}
					],
					"name": "e_addCoinbyGator",
					"type": "event"
				},
				{
					"anonymous": false,
					"inputs": [
						{
							"components": [
								{
									"internalType": "bytes32",
									"name": "coinFullName",
									"type": "bytes32"
								},
								{
									"internalType": "bytes32",
									"name": "symbol",
									"type": "bytes32"
								},
								{
									"internalType": "bytes32",
									"name": "typecode",
									"type": "bytes32"
								},
								{
									"internalType": "uint8",
									"name": "decimals",
									"type": "uint8"
								},
								{
									"internalType": "uint256",
									"name": "maxSupply",
									"type": "uint256"
								},
								{
									"internalType": "uint256",
									"name": "totalSupply",
									"type": "uint256"
								},
								{
									"internalType": "address",
									"name": "contractAddress",
									"type": "address"
								},
								{
									"internalType": "bool",
									"name": "marketunlock",
									"type": "bool"
								},
								{
									"internalType": "bool",
									"name": "gateunlock",
									"type": "bool"
								},
								{
									"internalType": "bool",
									"name": "isUsed",
									"type": "bool"
								},
								{
									"internalType": "address",
									"name": "creator",
									"type": "address"
								}
							],
							"indexed": false,
							"internalType": "struct LCoin.Info",
							"name": "",
							"type": "tuple"
						}
					],
					"name": "e_addCoinbyMarketor",
					"type": "event"
				},
				{
					"anonymous": false,
					"inputs": [
						{
							"indexed": false,
							"internalType": "address",
							"name": "",
							"type": "address"
						},
						{
							"indexed": false,
							"internalType": "uint128",
							"name": "",
							"type": "uint128"
						}
					],
					"name": "e_delCoinbyGator",
					"type": "event"
				},
				{
					"anonymous": false,
					"inputs": [
						{
							"indexed": false,
							"internalType": "address",
							"name": "",
							"type": "address"
						},
						{
							"indexed": false,
							"internalType": "address",
							"name": "",
							"type": "address"
						}
					],
					"name": "e_delCoinbyGator",
					"type": "event"
				},
				{
					"anonymous": false,
					"inputs": [
						{
							"indexed": false,
							"internalType": "address",
							"name": "",
							"type": "address"
						}
					],
					"name": "e_delCoinbyMarketor",
					"type": "event"
				},
				{
					"anonymous": false,
					"inputs": [
						{
							"indexed": false,
							"internalType": "uint128",
							"name": "",
							"type": "uint128"
						}
					],
					"name": "e_delCoinbyMarketor",
					"type": "event"
				},
				{
					"anonymous": false,
					"inputs": [
						{
							"indexed": false,
							"internalType": "address",
							"name": "",
							"type": "address"
						}
					],
					"name": "e_impoveGateCoinbyMarketor",
					"type": "event"
				},
				{
					"anonymous": false,
					"inputs": [
						{
							"indexed": false,
							"internalType": "address",
							"name": "",
							"type": "address"
						},
						{
							"indexed": false,
							"internalType": "address",
							"name": "",
							"type": "address"
						}
					],
					"name": "e_lockCoinbyGator",
					"type": "event"
				},
				{
					"anonymous": false,
					"inputs": [
						{
							"indexed": false,
							"internalType": "address",
							"name": "",
							"type": "address"
						}
					],
					"name": "e_lockCoinbyMarketor",
					"type": "event"
				},
				{
					"anonymous": false,
					"inputs": [
						{
							"indexed": false,
							"internalType": "address",
							"name": "",
							"type": "address"
						},
						{
							"indexed": false,
							"internalType": "address",
							"name": "",
							"type": "address"
						}
					],
					"name": "e_unlockCoinbyGator",
					"type": "event"
				},
				{
					"anonymous": false,
					"inputs": [
						{
							"indexed": false,
							"internalType": "address",
							"name": "",
							"type": "address"
						}
					],
					"name": "e_unlockCoinbyMarketor",
					"type": "event"
				},
				{
					"anonymous": false,
					"inputs": [
						{
							"indexed": false,
							"internalType": "address",
							"name": "",
							"type": "address"
						},
						{
							"components": [
								{
									"internalType": "bytes32",
									"name": "coinFullName",
									"type": "bytes32"
								},
								{
									"internalType": "bytes32",
									"name": "symbol",
									"type": "bytes32"
								},
								{
									"internalType": "bytes32",
									"name": "typecode",
									"type": "bytes32"
								},
								{
									"internalType": "uint8",
									"name": "decimals",
									"type": "uint8"
								},
								{
									"internalType": "uint256",
									"name": "maxSupply",
									"type": "uint256"
								},
								{
									"internalType": "uint256",
									"name": "totalSupply",
									"type": "uint256"
								},
								{
									"internalType": "address",
									"name": "contractAddress",
									"type": "address"
								},
								{
									"internalType": "bool",
									"name": "marketunlock",
									"type": "bool"
								},
								{
									"internalType": "bool",
									"name": "gateunlock",
									"type": "bool"
								},
								{
									"internalType": "bool",
									"name": "isUsed",
									"type": "bool"
								},
								{
									"internalType": "address",
									"name": "creator",
									"type": "address"
								}
							],
							"indexed": false,
							"internalType": "struct LCoin.Info",
							"name": "",
							"type": "tuple"
						}
					],
					"name": "e_updateCoinbyGator",
					"type": "event"
				},
				{
					"anonymous": false,
					"inputs": [
						{
							"components": [
								{
									"internalType": "bytes32",
									"name": "coinFullName",
									"type": "bytes32"
								},
								{
									"internalType": "bytes32",
									"name": "symbol",
									"type": "bytes32"
								},
								{
									"internalType": "bytes32",
									"name": "typecode",
									"type": "bytes32"
								},
								{
									"internalType": "uint8",
									"name": "decimals",
									"type": "uint8"
								},
								{
									"internalType": "uint256",
									"name": "maxSupply",
									"type": "uint256"
								},
								{
									"internalType": "uint256",
									"name": "totalSupply",
									"type": "uint256"
								},
								{
									"internalType": "address",
									"name": "contractAddress",
									"type": "address"
								},
								{
									"internalType": "bool",
									"name": "marketunlock",
									"type": "bool"
								},
								{
									"internalType": "bool",
									"name": "gateunlock",
									"type": "bool"
								},
								{
									"internalType": "bool",
									"name": "isUsed",
									"type": "bool"
								},
								{
									"internalType": "address",
									"name": "creator",
									"type": "address"
								}
							],
							"indexed": false,
							"internalType": "struct LCoin.Info",
							"name": "",
							"type": "tuple"
						}
					],
					"name": "e_updateCoinbyMarketor",
					"type": "event"
				},
				{
					"inputs": [
						{
							"components": [
								{
									"internalType": "address",
									"name": "contractAddress",
									"type": "address"
								},
								{
									"internalType": "bytes32",
									"name": "WhitePaperUrl",
									"type": "bytes32"
								},
								{
									"internalType": "bytes32",
									"name": "OfficalWebsite",
									"type": "bytes32"
								},
								{
									"internalType": "bytes32",
									"name": "blockExplorerUrl",
									"type": "bytes32"
								},
								{
									"internalType": "bytes32",
									"name": "twriterUrl",
									"type": "bytes32"
								},
								{
									"internalType": "bytes32",
									"name": "bbsUrl",
									"type": "bytes32"
								}
							],
							"internalType": "struct LCoin.DetailInfo",
							"name": "_coinDetailInfo",
							"type": "tuple"
						}
					],
					"name": "addCoinDetailInfobyGator",
					"outputs": [],
					"stateMutability": "nonpayable",
					"type": "function"
				},
				{
					"inputs": [
						{
							"components": [
								{
									"internalType": "address",
									"name": "contractAddress",
									"type": "address"
								},
								{
									"internalType": "bytes32",
									"name": "WhitePaperUrl",
									"type": "bytes32"
								},
								{
									"internalType": "bytes32",
									"name": "OfficalWebsite",
									"type": "bytes32"
								},
								{
									"internalType": "bytes32",
									"name": "blockExplorerUrl",
									"type": "bytes32"
								},
								{
									"internalType": "bytes32",
									"name": "twriterUrl",
									"type": "bytes32"
								},
								{
									"internalType": "bytes32",
									"name": "bbsUrl",
									"type": "bytes32"
								}
							],
							"internalType": "struct LCoin.DetailInfo",
							"name": "_coinDetailInfo",
							"type": "tuple"
						}
					],
					"name": "addCoinDetailInfobyMarketor",
					"outputs": [],
					"stateMutability": "nonpayable",
					"type": "function"
				},
				{
					"inputs": [
						{
							"components": [
								{
									"internalType": "bytes32",
									"name": "coinFullName",
									"type": "bytes32"
								},
								{
									"internalType": "bytes32",
									"name": "symbol",
									"type": "bytes32"
								},
								{
									"internalType": "bytes32",
									"name": "typecode",
									"type": "bytes32"
								},
								{
									"internalType": "uint8",
									"name": "decimals",
									"type": "uint8"
								},
								{
									"internalType": "uint256",
									"name": "maxSupply",
									"type": "uint256"
								},
								{
									"internalType": "uint256",
									"name": "totalSupply",
									"type": "uint256"
								},
								{
									"internalType": "address",
									"name": "contractAddress",
									"type": "address"
								},
								{
									"internalType": "bool",
									"name": "marketunlock",
									"type": "bool"
								},
								{
									"internalType": "bool",
									"name": "gateunlock",
									"type": "bool"
								},
								{
									"internalType": "bool",
									"name": "isUsed",
									"type": "bool"
								},
								{
									"internalType": "address",
									"name": "creator",
									"type": "address"
								}
							],
							"internalType": "struct LCoin.Info",
							"name": "_coinInfo",
							"type": "tuple"
						},
						{
							"components": [
								{
									"internalType": "address",
									"name": "contractAddress",
									"type": "address"
								},
								{
									"internalType": "bytes32",
									"name": "WhitePaperUrl",
									"type": "bytes32"
								},
								{
									"internalType": "bytes32",
									"name": "OfficalWebsite",
									"type": "bytes32"
								},
								{
									"internalType": "bytes32",
									"name": "blockExplorerUrl",
									"type": "bytes32"
								},
								{
									"internalType": "bytes32",
									"name": "twriterUrl",
									"type": "bytes32"
								},
								{
									"internalType": "bytes32",
									"name": "bbsUrl",
									"type": "bytes32"
								}
							],
							"internalType": "struct LCoin.DetailInfo",
							"name": "_coinDetailInfo",
							"type": "tuple"
						}
					],
					"name": "addCoinFullinfobyGator",
					"outputs": [],
					"stateMutability": "nonpayable",
					"type": "function"
				},
				{
					"inputs": [
						{
							"components": [
								{
									"internalType": "bytes32",
									"name": "coinFullName",
									"type": "bytes32"
								},
								{
									"internalType": "bytes32",
									"name": "symbol",
									"type": "bytes32"
								},
								{
									"internalType": "bytes32",
									"name": "typecode",
									"type": "bytes32"
								},
								{
									"internalType": "uint8",
									"name": "decimals",
									"type": "uint8"
								},
								{
									"internalType": "uint256",
									"name": "maxSupply",
									"type": "uint256"
								},
								{
									"internalType": "uint256",
									"name": "totalSupply",
									"type": "uint256"
								},
								{
									"internalType": "address",
									"name": "contractAddress",
									"type": "address"
								},
								{
									"internalType": "bool",
									"name": "marketunlock",
									"type": "bool"
								},
								{
									"internalType": "bool",
									"name": "gateunlock",
									"type": "bool"
								},
								{
									"internalType": "bool",
									"name": "isUsed",
									"type": "bool"
								},
								{
									"internalType": "address",
									"name": "creator",
									"type": "address"
								}
							],
							"internalType": "struct LCoin.Info",
							"name": "_coinInfo",
							"type": "tuple"
						},
						{
							"components": [
								{
									"internalType": "address",
									"name": "contractAddress",
									"type": "address"
								},
								{
									"internalType": "bytes32",
									"name": "WhitePaperUrl",
									"type": "bytes32"
								},
								{
									"internalType": "bytes32",
									"name": "OfficalWebsite",
									"type": "bytes32"
								},
								{
									"internalType": "bytes32",
									"name": "blockExplorerUrl",
									"type": "bytes32"
								},
								{
									"internalType": "bytes32",
									"name": "twriterUrl",
									"type": "bytes32"
								},
								{
									"internalType": "bytes32",
									"name": "bbsUrl",
									"type": "bytes32"
								}
							],
							"internalType": "struct LCoin.DetailInfo",
							"name": "_coinDetailInfo",
							"type": "tuple"
						}
					],
					"name": "addCoinFullinfobyMarketor",
					"outputs": [],
					"stateMutability": "nonpayable",
					"type": "function"
				},
				{
					"inputs": [
						{
							"components": [
								{
									"internalType": "bytes32",
									"name": "coinFullName",
									"type": "bytes32"
								},
								{
									"internalType": "bytes32",
									"name": "symbol",
									"type": "bytes32"
								},
								{
									"internalType": "bytes32",
									"name": "typecode",
									"type": "bytes32"
								},
								{
									"internalType": "uint8",
									"name": "decimals",
									"type": "uint8"
								},
								{
									"internalType": "uint256",
									"name": "maxSupply",
									"type": "uint256"
								},
								{
									"internalType": "uint256",
									"name": "totalSupply",
									"type": "uint256"
								},
								{
									"internalType": "address",
									"name": "contractAddress",
									"type": "address"
								},
								{
									"internalType": "bool",
									"name": "marketunlock",
									"type": "bool"
								},
								{
									"internalType": "bool",
									"name": "gateunlock",
									"type": "bool"
								},
								{
									"internalType": "bool",
									"name": "isUsed",
									"type": "bool"
								},
								{
									"internalType": "address",
									"name": "creator",
									"type": "address"
								}
							],
							"internalType": "struct LCoin.Info",
							"name": "_coinInfo",
							"type": "tuple"
						}
					],
					"name": "addCoinbyGator",
					"outputs": [],
					"stateMutability": "nonpayable",
					"type": "function"
				},
				{
					"inputs": [
						{
							"components": [
								{
									"internalType": "bytes32",
									"name": "coinFullName",
									"type": "bytes32"
								},
								{
									"internalType": "bytes32",
									"name": "symbol",
									"type": "bytes32"
								},
								{
									"internalType": "bytes32",
									"name": "typecode",
									"type": "bytes32"
								},
								{
									"internalType": "uint8",
									"name": "decimals",
									"type": "uint8"
								},
								{
									"internalType": "uint256",
									"name": "maxSupply",
									"type": "uint256"
								},
								{
									"internalType": "uint256",
									"name": "totalSupply",
									"type": "uint256"
								},
								{
									"internalType": "address",
									"name": "contractAddress",
									"type": "address"
								},
								{
									"internalType": "bool",
									"name": "marketunlock",
									"type": "bool"
								},
								{
									"internalType": "bool",
									"name": "gateunlock",
									"type": "bool"
								},
								{
									"internalType": "bool",
									"name": "isUsed",
									"type": "bool"
								},
								{
									"internalType": "address",
									"name": "creator",
									"type": "address"
								}
							],
							"internalType": "struct LCoin.Info",
							"name": "_coinInfo",
							"type": "tuple"
						}
					],
					"name": "addCoinbyMarketor",
					"outputs": [],
					"stateMutability": "nonpayable",
					"type": "function"
				},
				{
					"inputs": [
						{
							"internalType": "address",
							"name": "",
							"type": "address"
						}
					],
					"name": "coinDetailList",
					"outputs": [
						{
							"internalType": "address",
							"name": "contractAddress",
							"type": "address"
						},
						{
							"internalType": "bytes32",
							"name": "WhitePaperUrl",
							"type": "bytes32"
						},
						{
							"internalType": "bytes32",
							"name": "OfficalWebsite",
							"type": "bytes32"
						},
						{
							"internalType": "bytes32",
							"name": "blockExplorerUrl",
							"type": "bytes32"
						},
						{
							"internalType": "bytes32",
							"name": "twriterUrl",
							"type": "bytes32"
						},
						{
							"internalType": "bytes32",
							"name": "bbsUrl",
							"type": "bytes32"
						}
					],
					"stateMutability": "view",
					"type": "function"
				},
				{
					"inputs": [
						{
							"internalType": "address",
							"name": "",
							"type": "address"
						}
					],
					"name": "coinList",
					"outputs": [
						{
							"internalType": "bytes32",
							"name": "coinFullName",
							"type": "bytes32"
						},
						{
							"internalType": "bytes32",
							"name": "symbol",
							"type": "bytes32"
						},
						{
							"internalType": "bytes32",
							"name": "typecode",
							"type": "bytes32"
						},
						{
							"internalType": "uint8",
							"name": "decimals",
							"type": "uint8"
						},
						{
							"internalType": "uint256",
							"name": "maxSupply",
							"type": "uint256"
						},
						{
							"internalType": "uint256",
							"name": "totalSupply",
							"type": "uint256"
						},
						{
							"internalType": "address",
							"name": "contractAddress",
							"type": "address"
						},
						{
							"internalType": "bool",
							"name": "marketunlock",
							"type": "bool"
						},
						{
							"internalType": "bool",
							"name": "gateunlock",
							"type": "bool"
						},
						{
							"internalType": "bool",
							"name": "isUsed",
							"type": "bool"
						},
						{
							"internalType": "address",
							"name": "creator",
							"type": "address"
						}
					],
					"stateMutability": "view",
					"type": "function"
				},
				{
					"inputs": [
						{
							"internalType": "address",
							"name": "",
							"type": "address"
						}
					],
					"name": "coinMaxNo",
					"outputs": [
						{
							"internalType": "uint128",
							"name": "",
							"type": "uint128"
						}
					],
					"stateMutability": "view",
					"type": "function"
				},
				{
					"inputs": [
						{
							"internalType": "uint128",
							"name": "_coinNo",
							"type": "uint128"
						}
					],
					"name": "delCoinbyGator",
					"outputs": [],
					"stateMutability": "nonpayable",
					"type": "function"
				},
				{
					"inputs": [
						{
							"internalType": "address",
							"name": "_contractaddress",
							"type": "address"
						}
					],
					"name": "delCoinbyGator",
					"outputs": [],
					"stateMutability": "nonpayable",
					"type": "function"
				},
				{
					"inputs": [
						{
							"internalType": "address",
							"name": "_contractaddress",
							"type": "address"
						}
					],
					"name": "delCoinbyMarketor",
					"outputs": [],
					"stateMutability": "nonpayable",
					"type": "function"
				},
				{
					"inputs": [
						{
							"internalType": "uint128",
							"name": "_coinNo",
							"type": "uint128"
						}
					],
					"name": "delCoinbyMarketor",
					"outputs": [],
					"stateMutability": "nonpayable",
					"type": "function"
				},
				{
					"inputs": [],
					"name": "gatorContractAddress",
					"outputs": [
						{
							"internalType": "address",
							"name": "",
							"type": "address"
						}
					],
					"stateMutability": "view",
					"type": "function"
				},
				{
					"inputs": [
						{
							"internalType": "address",
							"name": "_owneraddress",
							"type": "address"
						},
						{
							"internalType": "uint128",
							"name": "_coinNo",
							"type": "uint128"
						}
					],
					"name": "getCoinInfoFromOwnerCoinNo",
					"outputs": [
						{
							"components": [
								{
									"internalType": "bytes32",
									"name": "coinFullName",
									"type": "bytes32"
								},
								{
									"internalType": "bytes32",
									"name": "symbol",
									"type": "bytes32"
								},
								{
									"internalType": "bytes32",
									"name": "typecode",
									"type": "bytes32"
								},
								{
									"internalType": "uint8",
									"name": "decimals",
									"type": "uint8"
								},
								{
									"internalType": "uint256",
									"name": "maxSupply",
									"type": "uint256"
								},
								{
									"internalType": "uint256",
									"name": "totalSupply",
									"type": "uint256"
								},
								{
									"internalType": "address",
									"name": "contractAddress",
									"type": "address"
								},
								{
									"internalType": "bool",
									"name": "marketunlock",
									"type": "bool"
								},
								{
									"internalType": "bool",
									"name": "gateunlock",
									"type": "bool"
								},
								{
									"internalType": "bool",
									"name": "isUsed",
									"type": "bool"
								},
								{
									"internalType": "address",
									"name": "creator",
									"type": "address"
								}
							],
							"internalType": "struct LCoin.Info",
							"name": "",
							"type": "tuple"
						}
					],
					"stateMutability": "view",
					"type": "function"
				},
				{
					"inputs": [
						{
							"internalType": "address",
							"name": "_contractaddress",
							"type": "address"
						}
					],
					"name": "getCoinInfoFromaddress",
					"outputs": [
						{
							"components": [
								{
									"internalType": "bytes32",
									"name": "coinFullName",
									"type": "bytes32"
								},
								{
									"internalType": "bytes32",
									"name": "symbol",
									"type": "bytes32"
								},
								{
									"internalType": "bytes32",
									"name": "typecode",
									"type": "bytes32"
								},
								{
									"internalType": "uint8",
									"name": "decimals",
									"type": "uint8"
								},
								{
									"internalType": "uint256",
									"name": "maxSupply",
									"type": "uint256"
								},
								{
									"internalType": "uint256",
									"name": "totalSupply",
									"type": "uint256"
								},
								{
									"internalType": "address",
									"name": "contractAddress",
									"type": "address"
								},
								{
									"internalType": "bool",
									"name": "marketunlock",
									"type": "bool"
								},
								{
									"internalType": "bool",
									"name": "gateunlock",
									"type": "bool"
								},
								{
									"internalType": "bool",
									"name": "isUsed",
									"type": "bool"
								},
								{
									"internalType": "address",
									"name": "creator",
									"type": "address"
								}
							],
							"internalType": "struct LCoin.Info",
							"name": "",
							"type": "tuple"
						}
					],
					"stateMutability": "view",
					"type": "function"
				},
				{
					"inputs": [
						{
							"internalType": "address",
							"name": "_owneraddress",
							"type": "address"
						}
					],
					"name": "getCoinMaxNo",
					"outputs": [
						{
							"internalType": "uint128",
							"name": "",
							"type": "uint128"
						}
					],
					"stateMutability": "view",
					"type": "function"
				},
				{
					"inputs": [
						{
							"internalType": "address",
							"name": "_contractaddress",
							"type": "address"
						}
					],
					"name": "impoveGateCoinbyMarketor",
					"outputs": [],
					"stateMutability": "nonpayable",
					"type": "function"
				},
				{
					"inputs": [
						{
							"internalType": "address",
							"name": "_coinAddress",
							"type": "address"
						}
					],
					"name": "isValidCoin",
					"outputs": [
						{
							"internalType": "bool",
							"name": "",
							"type": "bool"
						}
					],
					"stateMutability": "view",
					"type": "function"
				},
				{
					"inputs": [
						{
							"internalType": "address",
							"name": "_internalCoinAddress",
							"type": "address"
						}
					],
					"name": "lockCoinbyGator",
					"outputs": [],
					"stateMutability": "nonpayable",
					"type": "function"
				},
				{
					"inputs": [
						{
							"internalType": "address",
							"name": "_CoinAddress",
							"type": "address"
						}
					],
					"name": "lockCoinbyMarketor",
					"outputs": [],
					"stateMutability": "nonpayable",
					"type": "function"
				},
				{
					"inputs": [],
					"name": "marketCreator",
					"outputs": [
						{
							"internalType": "address",
							"name": "",
							"type": "address"
						}
					],
					"stateMutability": "view",
					"type": "function"
				},
				{
					"inputs": [],
					"name": "marketorContractAddress",
					"outputs": [
						{
							"internalType": "address",
							"name": "",
							"type": "address"
						}
					],
					"stateMutability": "view",
					"type": "function"
				},
				{
					"inputs": [
						{
							"internalType": "address",
							"name": "",
							"type": "address"
						},
						{
							"internalType": "uint128",
							"name": "",
							"type": "uint128"
						}
					],
					"name": "ownerCoinList",
					"outputs": [
						{
							"internalType": "address",
							"name": "",
							"type": "address"
						}
					],
					"stateMutability": "view",
					"type": "function"
				},
				{
					"inputs": [
						{
							"internalType": "address",
							"name": "",
							"type": "address"
						},
						{
							"internalType": "address",
							"name": "",
							"type": "address"
						}
					],
					"name": "ownerCoinNo",
					"outputs": [
						{
							"internalType": "uint128",
							"name": "",
							"type": "uint128"
						}
					],
					"stateMutability": "view",
					"type": "function"
				},
				{
					"inputs": [
						{
							"internalType": "address",
							"name": "_marketorContractAddress",
							"type": "address"
						},
						{
							"internalType": "address",
							"name": "_gatorContractAddress",
							"type": "address"
						},
						{
							"internalType": "address",
							"name": "_marketCreator",
							"type": "address"
						}
					],
					"name": "setCoinEnv",
					"outputs": [],
					"stateMutability": "nonpayable",
					"type": "function"
				},
				{
					"inputs": [
						{
							"internalType": "address",
							"name": "_internalCoinAddress",
							"type": "address"
						}
					],
					"name": "unlockCoinbyGator",
					"outputs": [],
					"stateMutability": "nonpayable",
					"type": "function"
				},
				{
					"inputs": [
						{
							"internalType": "address",
							"name": "_CoinAddress",
							"type": "address"
						}
					],
					"name": "unlockCoinbyMarketor",
					"outputs": [],
					"stateMutability": "nonpayable",
					"type": "function"
				},
				{
					"inputs": [
						{
							"internalType": "bytes32",
							"name": "coinFullName",
							"type": "bytes32"
						},
						{
							"internalType": "bytes32",
							"name": "symbol",
							"type": "bytes32"
						},
						{
							"internalType": "bytes32",
							"name": "typecode",
							"type": "bytes32"
						},
						{
							"internalType": "uint8",
							"name": "decimals",
							"type": "uint8"
						},
						{
							"internalType": "uint256",
							"name": "maxSupply",
							"type": "uint256"
						},
						{
							"internalType": "uint256",
							"name": "totalSupply",
							"type": "uint256"
						},
						{
							"internalType": "address",
							"name": "contractAddress",
							"type": "address"
						}
					],
					"name": "updateCoinbyGator",
					"outputs": [],
					"stateMutability": "nonpayable",
					"type": "function"
				},
				{
					"inputs": [
						{
							"components": [
								{
									"internalType": "bytes32",
									"name": "coinFullName",
									"type": "bytes32"
								},
								{
									"internalType": "bytes32",
									"name": "symbol",
									"type": "bytes32"
								},
								{
									"internalType": "bytes32",
									"name": "typecode",
									"type": "bytes32"
								},
								{
									"internalType": "uint8",
									"name": "decimals",
									"type": "uint8"
								},
								{
									"internalType": "uint256",
									"name": "maxSupply",
									"type": "uint256"
								},
								{
									"internalType": "uint256",
									"name": "totalSupply",
									"type": "uint256"
								},
								{
									"internalType": "address",
									"name": "contractAddress",
									"type": "address"
								},
								{
									"internalType": "bool",
									"name": "marketunlock",
									"type": "bool"
								},
								{
									"internalType": "bool",
									"name": "gateunlock",
									"type": "bool"
								},
								{
									"internalType": "bool",
									"name": "isUsed",
									"type": "bool"
								},
								{
									"internalType": "address",
									"name": "creator",
									"type": "address"
								}
							],
							"internalType": "struct LCoin.Info",
							"name": "_coinInfo",
							"type": "tuple"
						}
					],
					"name": "updateCoinbyMarketor",
					"outputs": [],
					"stateMutability": "nonpayable",
					"type": "function"
				}
			],
			"devdoc": {
				"kind": "dev",
				"methods": {
					"addCoinFullinfobyMarketor((bytes32,bytes32,bytes32,uint8,uint256,uint256,address,bool,bool,bool,address),(address,bytes32,bytes32,bytes32,bytes32,bytes32))": {
						"details": "Explain to a developer any extra details"
					},
					"addCoinbyMarketor((bytes32,bytes32,bytes32,uint8,uint256,uint256,address,bool,bool,bool,address))": {
						"details": "Explain to a developer any extra details"
					}
				},
				"stateVariables": {
					"gatorContractAddress": {
						"return": "The contract address",
						"returns": {
							"_0": "The contract address"
						}
					},
					"marketorContractAddress": {
						"return": "The contract address",
						"returns": {
							"_0": "The contract address"
						}
					}
				},
				"version": 1
			},
			"evm": {
				"assembly": "    /* \"Contracts/TTSwapV1Coin.sol\":249:14305  contract TTSwapV1Coin is ITTSwapV1Coin {... */\n  mstore(0x40, 0x80)\n    /* \"Contracts/TTSwapV1Coin.sol\":990:1282  constructor(... */\n  callvalue\n  dup1\n  iszero\n  tag_1\n  jumpi\n  0x00\n  dup1\n  revert\ntag_1:\n  pop\n  mload(0x40)\n  sub(codesize, bytecodeSize)\n  dup1\n  bytecodeSize\n  dup4\n  codecopy\n  dup2\n  add\n  0x40\n  dup2\n  swap1\n  mstore\n  tag_2\n  swap2\n  tag_3\n  jump\t// in\ntag_2:\n    /* \"Contracts/TTSwapV1Coin.sol\":1131:1151  gatorContractAddress */\n  0x05\n    /* \"Contracts/TTSwapV1Coin.sol\":1131:1175  gatorContractAddress = _gatorContractAddress */\n  dup1\n  sload\n  sub(shl(0xa0, 0x01), 0x01)\n  swap5\n  dup6\n  and\n  not(sub(shl(0xa0, 0x01), 0x01))\n  swap2\n  dup3\n  and\n  or\n  swap1\n  swap2\n  sstore\n    /* \"Contracts/TTSwapV1Coin.sol\":1185:1208  marketorContractAddress */\n  0x06\n    /* \"Contracts/TTSwapV1Coin.sol\":1185:1235  marketorContractAddress = _marketorContractAddress */\n  dup1\n  sload\n  swap4\n  dup6\n  and\n  swap4\n  dup3\n  and\n  swap4\n  swap1\n  swap4\n  or\n  swap1\n  swap3\n  sstore\n    /* \"Contracts/TTSwapV1Coin.sol\":1245:1258  marketCreator */\n  0x07\n    /* \"Contracts/TTSwapV1Coin.sol\":1245:1275  marketCreator = _marketCreator */\n  dup1\n  sload\n  swap2\n  swap1\n  swap4\n  and\n  swap2\n  and\n  or\n  swap1\n  sstore\n    /* \"Contracts/TTSwapV1Coin.sol\":249:14305  contract TTSwapV1Coin is ITTSwapV1Coin {... */\n  jump(tag_8)\n    /* \"#utility.yul\":14:191   */\ntag_7:\n    /* \"#utility.yul\":93:106   */\n  dup1\n  mload\n  sub(shl(0xa0, 0x01), 0x01)\n    /* \"#utility.yul\":135:166   */\n  dup2\n  and\n    /* \"#utility.yul\":125:167   */\n  dup2\n  eq\n    /* \"#utility.yul\":115:185   */\n  tag_10\n  jumpi\n    /* \"#utility.yul\":181:182   */\n  0x00\n    /* \"#utility.yul\":178:179   */\n  dup1\n    /* \"#utility.yul\":171:183   */\n  revert\n    /* \"#utility.yul\":115:185   */\ntag_10:\n    /* \"#utility.yul\":14:191   */\n  swap2\n  swap1\n  pop\n  jump\t// out\n    /* \"#utility.yul\":196:574   */\ntag_3:\n    /* \"#utility.yul\":284:290   */\n  0x00\n    /* \"#utility.yul\":292:298   */\n  dup1\n    /* \"#utility.yul\":300:306   */\n  0x00\n    /* \"#utility.yul\":353:355   */\n  0x60\n    /* \"#utility.yul\":341:350   */\n  dup5\n    /* \"#utility.yul\":332:339   */\n  dup7\n    /* \"#utility.yul\":328:351   */\n  sub\n    /* \"#utility.yul\":324:356   */\n  slt\n    /* \"#utility.yul\":321:373   */\n  iszero\n  tag_12\n  jumpi\n    /* \"#utility.yul\":369:370   */\n  0x00\n    /* \"#utility.yul\":366:367   */\n  dup1\n    /* \"#utility.yul\":359:371   */\n  revert\n    /* \"#utility.yul\":321:373   */\ntag_12:\n    /* \"#utility.yul\":392:432   */\n  tag_13\n    /* \"#utility.yul\":422:431   */\n  dup5\n    /* \"#utility.yul\":392:432   */\n  tag_7\n  jump\t// in\ntag_13:\n    /* \"#utility.yul\":382:432   */\n  swap3\n  pop\n    /* \"#utility.yul\":451:500   */\n  tag_14\n    /* \"#utility.yul\":496:498   */\n  0x20\n    /* \"#utility.yul\":485:494   */\n  dup6\n    /* \"#utility.yul\":481:499   */\n  add\n    /* \"#utility.yul\":451:500   */\n  tag_7\n  jump\t// in\ntag_14:\n    /* \"#utility.yul\":441:500   */\n  swap2\n  pop\n    /* \"#utility.yul\":519:568   */\n  tag_15\n    /* \"#utility.yul\":564:566   */\n  0x40\n    /* \"#utility.yul\":553:562   */\n  dup6\n    /* \"#utility.yul\":549:567   */\n  add\n    /* \"#utility.yul\":519:568   */\n  tag_7\n  jump\t// in\ntag_15:\n    /* \"#utility.yul\":509:568   */\n  swap1\n  pop\n    /* \"#utility.yul\":196:574   */\n  swap3\n  pop\n  swap3\n  pop\n  swap3\n  jump\t// out\ntag_8:\n    /* \"Contracts/TTSwapV1Coin.sol\":249:14305  contract TTSwapV1Coin is ITTSwapV1Coin {... */\n  dataSize(sub_0)\n  dup1\n  dataOffset(sub_0)\n  0x00\n  codecopy\n  0x00\n  return\nstop\n\nsub_0: assembly {\n        /* \"Contracts/TTSwapV1Coin.sol\":249:14305  contract TTSwapV1Coin is ITTSwapV1Coin {... */\n      mstore(0x40, 0x80)\n      callvalue\n      dup1\n      iszero\n      tag_1\n      jumpi\n      0x00\n      dup1\n      revert\n    tag_1:\n      pop\n      jumpi(tag_2, lt(calldatasize, 0x04))\n      shr(0xe0, calldataload(0x00))\n      dup1\n      0x690e1784\n      gt\n      tag_33\n      jumpi\n      dup1\n      0xb244cb29\n      gt\n      tag_34\n      jumpi\n      dup1\n      0xd25b9e58\n      gt\n      tag_35\n      jumpi\n      dup1\n      0xd25b9e58\n      eq\n      tag_29\n      jumpi\n      dup1\n      0xd848b5ba\n      eq\n      tag_30\n      jumpi\n      dup1\n      0xf022f417\n      eq\n      tag_31\n      jumpi\n      dup1\n      0xf8eeb665\n      eq\n      tag_32\n      jumpi\n      0x00\n      dup1\n      revert\n    tag_35:\n      dup1\n      0xb244cb29\n      eq\n      tag_25\n      jumpi\n      dup1\n      0xc23a9da2\n      eq\n      tag_26\n      jumpi\n      dup1\n      0xc6e39898\n      eq\n      tag_27\n      jumpi\n      dup1\n      0xd04dc91e\n      eq\n      tag_28\n      jumpi\n      0x00\n      dup1\n      revert\n    tag_34:\n      dup1\n      0x7c3e2f02\n      gt\n      tag_36\n      jumpi\n      dup1\n      0x7c3e2f02\n      eq\n      tag_21\n      jumpi\n      dup1\n      0x92a59f1f\n      eq\n      tag_22\n      jumpi\n      dup1\n      0x9e2c608c\n      eq\n      tag_23\n      jumpi\n      dup1\n      0xb20be2b4\n      eq\n      tag_24\n      jumpi\n      0x00\n      dup1\n      revert\n    tag_36:\n      dup1\n      0x690e1784\n      eq\n      tag_18\n      jumpi\n      dup1\n      0x6cedf640\n      eq\n      tag_19\n      jumpi\n      dup1\n      0x798fdafa\n      eq\n      tag_20\n      jumpi\n      0x00\n      dup1\n      revert\n    tag_33:\n      dup1\n      0x385e4b7a\n      gt\n      tag_37\n      jumpi\n      dup1\n      0x47d0a634\n      gt\n      tag_38\n      jumpi\n      dup1\n      0x47d0a634\n      eq\n      tag_14\n      jumpi\n      dup1\n      0x492b7107\n      eq\n      tag_15\n      jumpi\n      dup1\n      0x54d39318\n      eq\n      tag_16\n      jumpi\n      dup1\n      0x5e2c9314\n      eq\n      tag_17\n      jumpi\n      0x00\n      dup1\n      revert\n    tag_38:\n      dup1\n      0x385e4b7a\n      eq\n      tag_10\n      jumpi\n      dup1\n      0x3e68d831\n      eq\n      tag_11\n      jumpi\n      dup1\n      0x40e7bdc3\n      eq\n      tag_12\n      jumpi\n      dup1\n      0x441eb548\n      eq\n      tag_13\n      jumpi\n      0x00\n      dup1\n      revert\n    tag_37:\n      dup1\n      0x1d3b8f67\n      gt\n      tag_39\n      jumpi\n      dup1\n      0x1d3b8f67\n      eq\n      tag_6\n      jumpi\n      dup1\n      0x27cbaabe\n      eq\n      tag_7\n      jumpi\n      dup1\n      0x31ecdeb8\n      eq\n      tag_8\n      jumpi\n      dup1\n      0x328320bf\n      eq\n      tag_9\n      jumpi\n      0x00\n      dup1\n      revert\n    tag_39:\n      dup1\n      0x07cb20e8\n      eq\n      tag_3\n      jumpi\n      dup1\n      0x11cfa0bc\n      eq\n      tag_4\n      jumpi\n      dup1\n      0x128e641d\n      eq\n      tag_5\n      jumpi\n    tag_2:\n      0x00\n      dup1\n      revert\n        /* \"Contracts/TTSwapV1Coin.sol\":9519:10799  function addCoinFullinfobyGator(... */\n    tag_3:\n      tag_40\n      tag_41\n      calldatasize\n      0x04\n      tag_42\n      jump\t// in\n    tag_41:\n      tag_43\n      jump\t// in\n    tag_40:\n      stop\n        /* \"Contracts/TTSwapV1Coin.sol\":6196:7055  function impoveGateCoinbyMarketor(... */\n    tag_4:\n      tag_40\n      tag_45\n      calldatasize\n      0x04\n      tag_46\n      jump\t// in\n    tag_45:\n      tag_47\n      jump\t// in\n        /* \"Contracts/TTSwapV1Coin.sol\":3635:3910  function addCoinDetailInfobyMarketor(... */\n    tag_5:\n      tag_40\n      tag_49\n      calldatasize\n      0x04\n      tag_50\n      jump\t// in\n    tag_49:\n      tag_51\n      jump\t// in\n        /* \"Contracts/TTSwapV1Coin.sol\":5403:5610  function unlockCoinbyMarketor(... */\n    tag_6:\n      tag_40\n      tag_53\n      calldatasize\n      0x04\n      tag_46\n      jump\t// in\n    tag_53:\n      tag_54\n      jump\t// in\n        /* \"Contracts/TTSwapV1Coin.sol\":955:983  address public marketCreator */\n    tag_7:\n      sload(0x07)\n      tag_55\n      swap1\n      sub(shl(0xa0, 0x01), 0x01)\n      and\n      dup2\n      jump\n    tag_55:\n      mload(0x40)\n      sub(shl(0xa0, 0x01), 0x01)\n        /* \"#utility.yul\":3829:3861   */\n      swap1\n      swap2\n      and\n        /* \"#utility.yul\":3811:3862   */\n      dup2\n      mstore\n        /* \"#utility.yul\":3799:3801   */\n      0x20\n        /* \"#utility.yul\":3784:3802   */\n      add\n        /* \"Contracts/TTSwapV1Coin.sol\":955:983  address public marketCreator */\n    tag_57:\n      mload(0x40)\n      dup1\n      swap2\n      sub\n      swap1\n      return\n        /* \"Contracts/TTSwapV1Coin.sol\":753:799  mapping(address => LCoin.Info) public coinList */\n    tag_8:\n      tag_59\n      tag_60\n      calldatasize\n      0x04\n      tag_46\n      jump\t// in\n    tag_60:\n      0x03\n      0x20\n      dup2\n      swap1\n      mstore\n      0x00\n      swap2\n      dup3\n      mstore\n      0x40\n      swap1\n      swap2\n      keccak256\n      dup1\n      sload\n      0x01\n      dup3\n      add\n      sload\n      0x02\n      dup4\n      add\n      sload\n      swap4\n      dup4\n      add\n      sload\n      0x04\n      dup5\n      add\n      sload\n      0x05\n      dup6\n      add\n      sload\n      0x06\n      dup7\n      add\n      sload\n      0x07\n      swap1\n      swap7\n      add\n      sload\n      swap5\n      swap7\n      swap4\n      swap6\n      swap4\n      swap5\n      0xff\n      swap4\n      dup5\n      and\n      swap5\n      swap3\n      swap4\n      swap2\n      swap3\n      sub(shl(0xa0, 0x01), 0x01)\n      dup1\n      dup3\n      and\n      swap4\n      shl(0xa0, 0x01)\n      dup4\n      div\n      dup2\n      and\n      swap4\n      shl(0xa8, 0x01)\n      dup5\n      div\n      dup3\n      and\n      swap4\n      shl(0xb0, 0x01)\n      swap1\n      div\n      swap1\n      swap2\n      and\n      swap2\n      and\n      dup12\n      jump\n    tag_59:\n      0x40\n      dup1\n      mload\n        /* \"#utility.yul\":4455:4480   */\n      swap12\n      dup13\n      mstore\n        /* \"#utility.yul\":4511:4513   */\n      0x20\n        /* \"#utility.yul\":4496:4514   */\n      dup13\n      add\n        /* \"#utility.yul\":4489:4523   */\n      swap11\n      swap1\n      swap11\n      mstore\n        /* \"#utility.yul\":4539:4557   */\n      swap9\n      dup11\n      add\n        /* \"#utility.yul\":4532:4566   */\n      swap8\n      swap1\n      swap8\n      mstore\n        /* \"#utility.yul\":4614:4618   */\n      0xff\n        /* \"#utility.yul\":4602:4619   */\n      swap1\n      swap6\n      and\n        /* \"#utility.yul\":4597:4599   */\n      0x60\n        /* \"#utility.yul\":4582:4600   */\n      dup10\n      add\n        /* \"#utility.yul\":4575:4620   */\n      mstore\n        /* \"#utility.yul\":4651:4654   */\n      0x80\n        /* \"#utility.yul\":4636:4655   */\n      dup9\n      add\n        /* \"#utility.yul\":4629:4664   */\n      swap4\n      swap1\n      swap4\n      mstore\n        /* \"#utility.yul\":4695:4698   */\n      0xa0\n        /* \"#utility.yul\":4680:4699   */\n      dup8\n      add\n        /* \"#utility.yul\":4673:4708   */\n      swap2\n      swap1\n      swap2\n      mstore\n      sub(shl(0xa0, 0x01), 0x01)\n        /* \"#utility.yul\":4783:4798   */\n      swap1\n      dup2\n      and\n        /* \"#utility.yul\":4777:4780   */\n      0xc0\n        /* \"#utility.yul\":4762:4781   */\n      dup8\n      add\n        /* \"#utility.yul\":4755:4799   */\n      mstore\n        /* \"#utility.yul\":4843:4857   */\n      swap1\n      iszero\n        /* \"#utility.yul\":4836:4858   */\n      iszero\n        /* \"#utility.yul\":4830:4833   */\n      0xe0\n        /* \"#utility.yul\":4815:4834   */\n      dup7\n      add\n        /* \"#utility.yul\":4808:4859   */\n      mstore\n        /* \"#utility.yul\":4903:4917   */\n      swap1\n      iszero\n        /* \"#utility.yul\":4896:4918   */\n      iszero\n        /* \"#utility.yul\":4890:4893   */\n      0x0100\n        /* \"#utility.yul\":4875:4894   */\n      dup6\n      add\n        /* \"#utility.yul\":4868:4919   */\n      mstore\n        /* \"#utility.yul\":4963:4977   */\n      swap1\n      iszero\n        /* \"#utility.yul\":4956:4978   */\n      iszero\n        /* \"#utility.yul\":4950:4953   */\n      0x0120\n        /* \"#utility.yul\":4935:4954   */\n      dup5\n      add\n        /* \"#utility.yul\":4928:4979   */\n      mstore\n        /* \"#utility.yul\":5016:5032   */\n      and\n        /* \"#utility.yul\":5010:5013   */\n      0x0140\n        /* \"#utility.yul\":4995:5014   */\n      dup3\n      add\n        /* \"#utility.yul\":4988:5033   */\n      mstore\n        /* \"#utility.yul\":4442:4445   */\n      0x0160\n        /* \"#utility.yul\":4427:4446   */\n      add\n        /* \"Contracts/TTSwapV1Coin.sol\":753:799  mapping(address => LCoin.Info) public coinList */\n      tag_57\n        /* \"#utility.yul\":4049:5039   */\n      jump\n        /* \"Contracts/TTSwapV1Coin.sol\":13995:14149  function isValidCoin(... */\n    tag_9:\n      tag_64\n      tag_65\n      calldatasize\n      0x04\n      tag_46\n      jump\t// in\n    tag_65:\n      sub(shl(0xa0, 0x01), 0x01)\n        /* \"Contracts/TTSwapV1Coin.sol\":14107:14129  coinList[_coinAddress] */\n      and\n        /* \"Contracts/TTSwapV1Coin.sol\":14084:14088  bool */\n      0x00\n        /* \"Contracts/TTSwapV1Coin.sol\":14107:14129  coinList[_coinAddress] */\n      swap1\n      dup2\n      mstore\n        /* \"Contracts/TTSwapV1Coin.sol\":14107:14115  coinList */\n      0x03\n        /* \"Contracts/TTSwapV1Coin.sol\":14107:14129  coinList[_coinAddress] */\n      0x20\n      mstore\n      0x40\n      swap1\n      keccak256\n        /* \"Contracts/TTSwapV1Coin.sol\":14107:14142  coinList[_coinAddress].marketunlock */\n      0x06\n      add\n      sload\n      shl(0xa0, 0x01)\n      swap1\n      div\n      0xff\n      and\n      swap1\n        /* \"Contracts/TTSwapV1Coin.sol\":13995:14149  function isValidCoin(... */\n      jump\n    tag_64:\n      mload(0x40)\n        /* \"#utility.yul\":5209:5223   */\n      swap1\n      iszero\n        /* \"#utility.yul\":5202:5224   */\n      iszero\n        /* \"#utility.yul\":5184:5225   */\n      dup2\n      mstore\n        /* \"#utility.yul\":5172:5174   */\n      0x20\n        /* \"#utility.yul\":5157:5175   */\n      add\n        /* \"Contracts/TTSwapV1Coin.sol\":13995:14149  function isValidCoin(... */\n      tag_57\n        /* \"#utility.yul\":5044:5231   */\n      jump\n        /* \"Contracts/TTSwapV1Coin.sol\":10805:11169  function unlockCoinbyGator(... */\n    tag_10:\n      tag_40\n      tag_70\n      calldatasize\n      0x04\n      tag_46\n      jump\t// in\n    tag_70:\n      tag_71\n      jump\t// in\n        /* \"Contracts/TTSwapV1Coin.sol\":596:662  mapping(address => mapping(address => uint128)) public ownerCoinNo */\n    tag_11:\n      tag_72\n      tag_73\n      calldatasize\n      0x04\n      tag_74\n      jump\t// in\n    tag_73:\n      0x02\n      0x20\n      swap1\n      dup2\n      mstore\n      0x00\n      swap3\n      dup4\n      mstore\n      0x40\n      dup1\n      dup5\n      keccak256\n      swap1\n      swap2\n      mstore\n      swap1\n      dup3\n      mstore\n      swap1\n      keccak256\n      sload\n      sub(shl(0x80, 0x01), 0x01)\n      and\n      dup2\n      jump\n    tag_72:\n      mload(0x40)\n      sub(shl(0x80, 0x01), 0x01)\n        /* \"#utility.yul\":5665:5712   */\n      swap1\n      swap2\n      and\n        /* \"#utility.yul\":5647:5713   */\n      dup2\n      mstore\n        /* \"#utility.yul\":5635:5637   */\n      0x20\n        /* \"#utility.yul\":5620:5638   */\n      add\n        /* \"Contracts/TTSwapV1Coin.sol\":596:662  mapping(address => mapping(address => uint128)) public ownerCoinNo */\n      tag_57\n        /* \"#utility.yul\":5501:5719   */\n      jump\n        /* \"Contracts/TTSwapV1Coin.sol\":14155:14303  function getCoinMaxNo(... */\n    tag_12:\n      tag_72\n      tag_79\n      calldatasize\n      0x04\n      tag_46\n      jump\t// in\n    tag_79:\n      sub(shl(0xa0, 0x01), 0x01)\n        /* \"Contracts/TTSwapV1Coin.sol\":14272:14296  coinMaxNo[_owneraddress] */\n      and\n        /* \"Contracts/TTSwapV1Coin.sol\":14246:14253  uint128 */\n      0x00\n        /* \"Contracts/TTSwapV1Coin.sol\":14272:14296  coinMaxNo[_owneraddress] */\n      swap1\n      dup2\n      mstore\n      0x20\n      dup2\n      swap1\n      mstore\n      0x40\n      swap1\n      keccak256\n      sload\n      sub(shl(0x80, 0x01), 0x01)\n      and\n      swap1\n        /* \"Contracts/TTSwapV1Coin.sol\":14155:14303  function getCoinMaxNo(... */\n      jump\n        /* \"Contracts/TTSwapV1Coin.sol\":11175:11536  function lockCoinbyGator(... */\n    tag_13:\n      tag_40\n      tag_83\n      calldatasize\n      0x04\n      tag_46\n      jump\t// in\n    tag_83:\n      tag_84\n      jump\t// in\n        /* \"Contracts/TTSwapV1Coin.sol\":870:905  address public gatorContractAddress */\n    tag_14:\n      sload(0x05)\n      tag_55\n      swap1\n      sub(shl(0xa0, 0x01), 0x01)\n      and\n      dup2\n      jump\n        /* \"Contracts/TTSwapV1Coin.sol\":911:949  address public marketorContractAddress */\n    tag_15:\n      sload(0x06)\n      tag_55\n      swap1\n      sub(shl(0xa0, 0x01), 0x01)\n      and\n      dup2\n      jump\n        /* \"Contracts/TTSwapV1Coin.sol\":13652:13989  function getCoinInfoFromOwnerCoinNo(... */\n    tag_16:\n      tag_91\n      tag_92\n      calldatasize\n      0x04\n      tag_93\n      jump\t// in\n    tag_92:\n      tag_94\n      jump\t// in\n    tag_91:\n      mload(0x40)\n      tag_57\n      swap2\n      swap1\n      tag_96\n      jump\t// in\n        /* \"Contracts/TTSwapV1Coin.sol\":12963:13347  function delCoinbyGator(uint128 _coinNo) external override onlyGator {... */\n    tag_17:\n      tag_40\n      tag_98\n      calldatasize\n      0x04\n      tag_99\n      jump\t// in\n    tag_98:\n      tag_100\n      jump\t// in\n        /* \"Contracts/TTSwapV1Coin.sol\":480:548  mapping(address => mapping(uint128 => address)) public ownerCoinList */\n    tag_18:\n      tag_55\n      tag_102\n      calldatasize\n      0x04\n      tag_93\n      jump\t// in\n    tag_102:\n      0x01\n      0x20\n      swap1\n      dup2\n      mstore\n      0x00\n      swap3\n      dup4\n      mstore\n      0x40\n      dup1\n      dup5\n      keccak256\n      swap1\n      swap2\n      mstore\n      swap1\n      dup3\n      mstore\n      swap1\n      keccak256\n      sload\n      sub(shl(0xa0, 0x01), 0x01)\n      and\n      dup2\n      jump\n        /* \"Contracts/TTSwapV1Coin.sol\":805:863  mapping(address => LCoin.DetailInfo) public coinDetailList */\n    tag_19:\n      tag_105\n      tag_106\n      calldatasize\n      0x04\n      tag_46\n      jump\t// in\n    tag_106:\n      0x04\n      0x20\n      dup2\n      swap1\n      mstore\n      0x00\n      swap2\n      dup3\n      mstore\n      0x40\n      swap1\n      swap2\n      keccak256\n      dup1\n      sload\n      0x01\n      dup3\n      add\n      sload\n      0x02\n      dup4\n      add\n      sload\n      0x03\n      dup5\n      add\n      sload\n      swap5\n      dup5\n      add\n      sload\n      0x05\n      swap1\n      swap5\n      add\n      sload\n      sub(shl(0xa0, 0x01), 0x01)\n      swap1\n      swap4\n      and\n      swap5\n      swap2\n      swap4\n      swap1\n      swap3\n      dup7\n      jump\n    tag_105:\n      0x40\n      dup1\n      mload\n      sub(shl(0xa0, 0x01), 0x01)\n        /* \"#utility.yul\":7965:7997   */\n      swap1\n      swap8\n      and\n        /* \"#utility.yul\":7947:7998   */\n      dup8\n      mstore\n        /* \"#utility.yul\":8029:8031   */\n      0x20\n        /* \"#utility.yul\":8014:8032   */\n      dup8\n      add\n        /* \"#utility.yul\":8007:8041   */\n      swap6\n      swap1\n      swap6\n      mstore\n        /* \"#utility.yul\":8057:8075   */\n      swap4\n      dup6\n      add\n        /* \"#utility.yul\":8050:8084   */\n      swap3\n      swap1\n      swap3\n      mstore\n        /* \"#utility.yul\":8115:8117   */\n      0x60\n        /* \"#utility.yul\":8100:8118   */\n      dup5\n      add\n        /* \"#utility.yul\":8093:8127   */\n      mstore\n        /* \"#utility.yul\":8158:8161   */\n      0x80\n        /* \"#utility.yul\":8143:8162   */\n      dup4\n      add\n        /* \"#utility.yul\":8136:8171   */\n      mstore\n        /* \"#utility.yul\":7985:7988   */\n      0xa0\n        /* \"#utility.yul\":8187:8206   */\n      dup3\n      add\n        /* \"#utility.yul\":8180:8215   */\n      mstore\n        /* \"#utility.yul\":7934:7937   */\n      0xc0\n        /* \"#utility.yul\":7919:7938   */\n      add\n        /* \"Contracts/TTSwapV1Coin.sol\":805:863  mapping(address => LCoin.DetailInfo) public coinDetailList */\n      tag_57\n        /* \"#utility.yul\":7660:8221   */\n      jump\n        /* \"Contracts/TTSwapV1Coin.sol\":5616:6190  function updateCoinbyMarketor(... */\n    tag_20:\n      tag_40\n      tag_111\n      calldatasize\n      0x04\n      tag_112\n      jump\t// in\n    tag_111:\n      tag_113\n      jump\t// in\n        /* \"Contracts/TTSwapV1Coin.sol\":7061:7562  function delCoinbyMarketor(... */\n    tag_21:\n      tag_40\n      tag_115\n      calldatasize\n      0x04\n      tag_46\n      jump\t// in\n    tag_115:\n      tag_116\n      jump\t// in\n        /* \"Contracts/TTSwapV1Coin.sol\":12505:12957  function delCoinbyGator(... */\n    tag_22:\n      tag_40\n      tag_118\n      calldatasize\n      0x04\n      tag_46\n      jump\t// in\n    tag_118:\n      tag_119\n      jump\t// in\n        /* \"Contracts/TTSwapV1Coin.sol\":2668:3629  function addCoinbyMarketor(... */\n    tag_23:\n      tag_40\n      tag_121\n      calldatasize\n      0x04\n      tag_112\n      jump\t// in\n    tag_121:\n      tag_122\n      jump\t// in\n        /* \"Contracts/TTSwapV1Coin.sol\":5193:5397  function lockCoinbyMarketor(... */\n    tag_24:\n      tag_40\n      tag_124\n      calldatasize\n      0x04\n      tag_46\n      jump\t// in\n    tag_124:\n      tag_125\n      jump\t// in\n        /* \"Contracts/TTSwapV1Coin.sol\":2094:2421  function setCoinEnv(... */\n    tag_25:\n      tag_40\n      tag_127\n      calldatasize\n      0x04\n      tag_128\n      jump\t// in\n    tag_127:\n      tag_129\n      jump\t// in\n        /* \"Contracts/TTSwapV1Coin.sol\":11542:12499  function updateCoinbyGator(... */\n    tag_26:\n      tag_40\n      tag_131\n      calldatasize\n      0x04\n      tag_132\n      jump\t// in\n    tag_131:\n      tag_133\n      jump\t// in\n        /* \"Contracts/TTSwapV1Coin.sol\":9096:9513  function addCoinDetailInfobyGator(... */\n    tag_27:\n      tag_40\n      tag_135\n      calldatasize\n      0x04\n      tag_50\n      jump\t// in\n    tag_135:\n      tag_136\n      jump\t// in\n        /* \"Contracts/TTSwapV1Coin.sol\":8160:9090  function addCoinbyGator(... */\n    tag_28:\n      tag_40\n      tag_138\n      calldatasize\n      0x04\n      tag_112\n      jump\t// in\n    tag_138:\n      tag_139\n      jump\t// in\n        /* \"Contracts/TTSwapV1Coin.sol\":13353:13646  function getCoinInfoFromaddress(... */\n    tag_29:\n      tag_91\n      tag_141\n      calldatasize\n      0x04\n      tag_46\n      jump\t// in\n    tag_141:\n      tag_142\n      jump\t// in\n        /* \"Contracts/TTSwapV1Coin.sol\":326:370  mapping(address => uint128) public coinMaxNo */\n    tag_30:\n      tag_72\n      tag_145\n      calldatasize\n      0x04\n      tag_46\n      jump\t// in\n    tag_145:\n      0x00\n      0x20\n      dup2\n      swap1\n      mstore\n      swap1\n      dup2\n      mstore\n      0x40\n      swap1\n      keccak256\n      sload\n      sub(shl(0x80, 0x01), 0x01)\n      and\n      dup2\n      jump\n        /* \"Contracts/TTSwapV1Coin.sol\":7568:8022  function delCoinbyMarketor(uint128 _coinNo) external override onlyMarketor {... */\n    tag_31:\n      tag_40\n      tag_149\n      calldatasize\n      0x04\n      tag_99\n      jump\t// in\n    tag_149:\n      tag_150\n      jump\t// in\n        /* \"Contracts/TTSwapV1Coin.sol\":4024:5187  function addCoinFullinfobyMarketor(... */\n    tag_32:\n      tag_40\n      tag_152\n      calldatasize\n      0x04\n      tag_42\n      jump\t// in\n    tag_152:\n      tag_153\n      jump\t// in\n        /* \"Contracts/TTSwapV1Coin.sol\":9519:10799  function addCoinFullinfobyGator(... */\n    tag_43:\n        /* \"Contracts/TTSwapV1Coin.sol\":1558:1578  gatorContractAddress */\n      sload(0x05)\n        /* \"Contracts/TTSwapV1Coin.sol\":1544:1634  IGatorV1State(gatorContractAddress).isValidGator(... */\n      mload(0x40)\n      shl(0xe1, 0x601c2149)\n      dup2\n      mstore\n        /* \"Contracts/TTSwapV1Coin.sol\":1610:1620  msg.sender */\n      caller\n        /* \"Contracts/TTSwapV1Coin.sol\":1544:1634  IGatorV1State(gatorContractAddress).isValidGator(... */\n      0x04\n      dup3\n      add\n        /* \"#utility.yul\":3811:3862   */\n      mstore\n      sub(shl(0xa0, 0x01), 0x01)\n        /* \"Contracts/TTSwapV1Coin.sol\":1558:1578  gatorContractAddress */\n      swap1\n      swap2\n      and\n      swap1\n        /* \"Contracts/TTSwapV1Coin.sol\":1544:1592  IGatorV1State(gatorContractAddress).isValidGator */\n      0xc0384292\n      swap1\n        /* \"#utility.yul\":3784:3802   */\n      0x24\n      add\n        /* \"Contracts/TTSwapV1Coin.sol\":1544:1634  IGatorV1State(gatorContractAddress).isValidGator(... */\n      0x20\n      mload(0x40)\n      dup1\n      dup4\n      sub\n      dup2\n      dup7\n      gas\n      staticcall\n      iszero\n      dup1\n      iszero\n      tag_157\n      jumpi\n      returndatasize\n      0x00\n      dup1\n      returndatacopy\n      revert(0x00, returndatasize)\n    tag_157:\n      pop\n      pop\n      pop\n      pop\n      mload(0x40)\n      returndatasize\n      not(0x1f)\n      0x1f\n      dup3\n      add\n      and\n      dup3\n      add\n      dup1\n      0x40\n      mstore\n      pop\n      dup2\n      add\n      swap1\n      tag_158\n      swap2\n      swap1\n      tag_159\n      jump\t// in\n    tag_158:\n        /* \"Contracts/TTSwapV1Coin.sol\":1536:1699  require(IGatorV1State(gatorContractAddress).isValidGator(... */\n      tag_160\n      jumpi\n      mload(0x40)\n      shl(0xe5, 0x461bcd)\n      dup2\n      mstore\n      0x04\n      add\n      tag_161\n      swap1\n      tag_162\n      jump\t// in\n    tag_161:\n      mload(0x40)\n      dup1\n      swap2\n      sub\n      swap1\n      revert\n    tag_160:\n        /* \"Contracts/TTSwapV1Coin.sol\":9711:9736  _coinInfo.contractAddress */\n      0xc0\n      dup3\n      add\n      mload\n      sub(shl(0xa0, 0x01), 0x01)\n        /* \"Contracts/TTSwapV1Coin.sol\":9702:9737  coinList[_coinInfo.contractAddress] */\n      and\n      0x00\n      swap1\n      dup2\n      mstore\n        /* \"Contracts/TTSwapV1Coin.sol\":9702:9710  coinList */\n      0x03\n        /* \"Contracts/TTSwapV1Coin.sol\":9702:9737  coinList[_coinInfo.contractAddress] */\n      0x20\n      mstore\n      0x40\n      swap1\n      keccak256\n        /* \"Contracts/TTSwapV1Coin.sol\":9702:9744  coinList[_coinInfo.contractAddress].isUsed */\n      0x06\n      add\n      sload\n      shl(0xb0, 0x01)\n      swap1\n      div\n      0xff\n      and\n        /* \"Contracts/TTSwapV1Coin.sol\":9702:9752  coinList[_coinInfo.contractAddress].isUsed != true */\n      iszero\n      iszero\n        /* \"Contracts/TTSwapV1Coin.sol\":9748:9752  true */\n      0x01\n        /* \"Contracts/TTSwapV1Coin.sol\":9702:9752  coinList[_coinInfo.contractAddress].isUsed != true */\n      sub\n        /* \"Contracts/TTSwapV1Coin.sol\":9681:9796  require(... */\n      tag_164\n      jumpi\n      mload(0x40)\n      shl(0xe5, 0x461bcd)\n      dup2\n      mstore\n        /* \"#utility.yul\":10257:10259   */\n      0x20\n        /* \"Contracts/TTSwapV1Coin.sol\":9681:9796  require(... */\n      0x04\n      dup3\n      add\n        /* \"#utility.yul\":10239:10260   */\n      mstore\n        /* \"#utility.yul\":10296:10298   */\n      0x12\n        /* \"#utility.yul\":10276:10294   */\n      0x24\n      dup3\n      add\n        /* \"#utility.yul\":10269:10299   */\n      mstore\n      shl(0x72, 0x1d1a194818dbda5b881a5cc808195e1a5cdd)\n        /* \"#utility.yul\":10315:10333   */\n      0x44\n      dup3\n      add\n        /* \"#utility.yul\":10308:10356   */\n      mstore\n        /* \"#utility.yul\":10373:10391   */\n      0x64\n      add\n        /* \"Contracts/TTSwapV1Coin.sol\":9681:9796  require(... */\n      tag_161\n        /* \"#utility.yul\":10055:10397   */\n      jump\n        /* \"Contracts/TTSwapV1Coin.sol\":9681:9796  require(... */\n    tag_164:\n        /* \"Contracts/TTSwapV1Coin.sol\":9826:9836  msg.sender */\n      caller\n        /* \"Contracts/TTSwapV1Coin.sol\":9806:9823  _coinInfo.creator */\n      0x0140\n      dup4\n      add\n        /* \"Contracts/TTSwapV1Coin.sol\":9806:9836  _coinInfo.creator = msg.sender */\n      dup2\n      swap1\n      mstore\n        /* \"Contracts/TTSwapV1Coin.sol\":9871:9876  false */\n      0x00\n        /* \"Contracts/TTSwapV1Coin.sol\":9846:9868  _coinInfo.marketunlock */\n      0xe0\n      dup5\n      add\n        /* \"Contracts/TTSwapV1Coin.sol\":9846:9876  _coinInfo.marketunlock = false */\n      dup2\n      swap1\n      mstore\n        /* \"Contracts/TTSwapV1Coin.sol\":9886:9906  _coinInfo.gateunlock */\n      0x0100\n      dup5\n      add\n        /* \"Contracts/TTSwapV1Coin.sol\":9886:9914  _coinInfo.gateunlock = false */\n      dup2\n      swap1\n      mstore\n        /* \"Contracts/TTSwapV1Coin.sol\":9846:9876  _coinInfo.marketunlock = false */\n      0x01\n        /* \"Contracts/TTSwapV1Coin.sol\":9924:9940  _coinInfo.isUsed */\n      0x0120\n      dup6\n      add\n        /* \"Contracts/TTSwapV1Coin.sol\":9924:9947  _coinInfo.isUsed = true */\n      dup2\n      swap1\n      mstore\n        /* \"Contracts/TTSwapV1Coin.sol\":9974:9995  coinMaxNo[msg.sender] */\n      swap2\n      dup2\n      mstore\n      0x20\n      dup2\n      swap1\n      mstore\n      0x40\n      swap1\n      keccak256\n      sload\n      sub(shl(0x80, 0x01), 0x01)\n      and\n        /* \"Contracts/TTSwapV1Coin.sol\":9974:10000  coinMaxNo[msg.sender] >= 1 */\n      lt\n      dup1\n      iszero\n      swap1\n        /* \"Contracts/TTSwapV1Coin.sol\":9974:10066  coinMaxNo[msg.sender] >= 1 &&... */\n      tag_167\n      jumpi\n      pop\n        /* \"Contracts/TTSwapV1Coin.sol\":10055:10065  msg.sender */\n      caller\n        /* \"Contracts/TTSwapV1Coin.sol\":10045:10054  coinMaxNo */\n      0x00\n        /* \"Contracts/TTSwapV1Coin.sol\":10045:10066  coinMaxNo[msg.sender] */\n      swap1\n      dup2\n      mstore\n      0x20\n      dup2\n      swap1\n      mstore\n      0x40\n      swap1\n      keccak256\n      sload\n      sub(shl(0x80, 0x01), 0x01)\n      and\n        /* \"Contracts/TTSwapV1Coin.sol\":10016:10041  coinMaxNo[msg.sender] + 1 */\n      tag_168\n        /* \"Contracts/TTSwapV1Coin.sol\":10045:10066  coinMaxNo[msg.sender] */\n      dup2\n      0x01\n        /* \"Contracts/TTSwapV1Coin.sol\":10016:10041  coinMaxNo[msg.sender] + 1 */\n      tag_169\n      jump\t// in\n    tag_168:\n      sub(shl(0x80, 0x01), 0x01)\n        /* \"Contracts/TTSwapV1Coin.sol\":10016:10066  coinMaxNo[msg.sender] + 1 >= coinMaxNo[msg.sender] */\n      and\n      lt\n      iszero\n        /* \"Contracts/TTSwapV1Coin.sol\":9974:10066  coinMaxNo[msg.sender] >= 1 &&... */\n    tag_167:\n        /* \"Contracts/TTSwapV1Coin.sol\":9957:10184  if (... */\n      iszero\n      tag_170\n      jumpi\n        /* \"Contracts/TTSwapV1Coin.sol\":10101:10111  msg.sender */\n      caller\n        /* \"Contracts/TTSwapV1Coin.sol\":10091:10100  coinMaxNo */\n      0x00\n        /* \"Contracts/TTSwapV1Coin.sol\":10091:10112  coinMaxNo[msg.sender] */\n      swap1\n      dup2\n      mstore\n      0x20\n      dup2\n      swap1\n      mstore\n      0x40\n      dup2\n      keccak256\n        /* \"Contracts/TTSwapV1Coin.sol\":10091:10117  coinMaxNo[msg.sender] += 1 */\n      dup1\n      sload\n        /* \"Contracts/TTSwapV1Coin.sol\":10116:10117  1 */\n      0x01\n      swap3\n        /* \"Contracts/TTSwapV1Coin.sol\":10091:10100  coinMaxNo */\n      swap1\n        /* \"Contracts/TTSwapV1Coin.sol\":10091:10117  coinMaxNo[msg.sender] += 1 */\n      tag_171\n      swap1\n        /* \"Contracts/TTSwapV1Coin.sol\":10116:10117  1 */\n      dup5\n      swap1\n      sub(shl(0x80, 0x01), 0x01)\n        /* \"Contracts/TTSwapV1Coin.sol\":10091:10117  coinMaxNo[msg.sender] += 1 */\n      and\n      tag_169\n      jump\t// in\n    tag_171:\n      swap3\n      pop\n      0x0100\n      exp\n      dup2\n      sload\n      dup2\n      sub(shl(0x80, 0x01), 0x01)\n      mul\n      not\n      and\n      swap1\n      dup4\n      sub(shl(0x80, 0x01), 0x01)\n      and\n      mul\n      or\n      swap1\n      sstore\n      pop\n        /* \"Contracts/TTSwapV1Coin.sol\":9957:10184  if (... */\n      jump(tag_172)\n    tag_170:\n        /* \"Contracts/TTSwapV1Coin.sol\":10158:10168  msg.sender */\n      caller\n        /* \"Contracts/TTSwapV1Coin.sol\":10148:10157  coinMaxNo */\n      0x00\n        /* \"Contracts/TTSwapV1Coin.sol\":10148:10169  coinMaxNo[msg.sender] */\n      swap1\n      dup2\n      mstore\n      0x20\n      dup2\n      swap1\n      mstore\n      0x40\n      swap1\n      keccak256\n        /* \"Contracts/TTSwapV1Coin.sol\":10148:10173  coinMaxNo[msg.sender] = 1 */\n      dup1\n      sload\n      not(sub(shl(0x80, 0x01), 0x01))\n      and\n        /* \"Contracts/TTSwapV1Coin.sol\":10172:10173  1 */\n      0x01\n        /* \"Contracts/TTSwapV1Coin.sol\":10148:10173  coinMaxNo[msg.sender] = 1 */\n      or\n      swap1\n      sstore\n        /* \"Contracts/TTSwapV1Coin.sol\":9957:10184  if (... */\n    tag_172:\n        /* \"Contracts/TTSwapV1Coin.sol\":10244:10282  _coinInfo... */\n      0xc0\n      dup3\n      add\n      dup1\n      mload\n        /* \"Contracts/TTSwapV1Coin.sol\":10207:10217  msg.sender */\n      caller\n        /* \"Contracts/TTSwapV1Coin.sol\":10193:10218  ownerCoinList[msg.sender] */\n      0x00\n      dup2\n      dup2\n      mstore\n        /* \"Contracts/TTSwapV1Coin.sol\":10193:10206  ownerCoinList */\n      0x01\n        /* \"Contracts/TTSwapV1Coin.sol\":10193:10218  ownerCoinList[msg.sender] */\n      0x20\n      dup2\n      dup2\n      mstore\n      0x40\n      dup1\n      dup5\n      keccak256\n        /* \"Contracts/TTSwapV1Coin.sol\":10219:10240  coinMaxNo[msg.sender] */\n      dup5\n      dup4\n      mstore\n      dup2\n      dup6\n      keccak256\n      dup1\n      sload\n      sub(shl(0x80, 0x01), 0x01)\n      swap1\n      dup2\n      and\n        /* \"Contracts/TTSwapV1Coin.sol\":10193:10241  ownerCoinList[msg.sender][coinMaxNo[msg.sender]] */\n      dup8\n      mstore\n      swap2\n      dup5\n      mstore\n      dup3\n      dup7\n      keccak256\n        /* \"Contracts/TTSwapV1Coin.sol\":10193:10282  ownerCoinList[msg.sender][coinMaxNo[msg.sender]] = _coinInfo... */\n      dup1\n      sload\n      sub(shl(0xa0, 0x01), 0x01)\n      swap10\n      dup11\n      and\n      not(sub(shl(0xa0, 0x01), 0x01))\n      swap2\n      dup3\n      and\n      or\n      swap1\n      swap2\n      sstore\n        /* \"Contracts/TTSwapV1Coin.sol\":10345:10388  coinMaxNo[... */\n      dup8\n      dup8\n      mstore\n      swap1\n      sload\n        /* \"Contracts/TTSwapV1Coin.sol\":10292:10303  ownerCoinNo */\n      0x02\n        /* \"Contracts/TTSwapV1Coin.sol\":10292:10315  ownerCoinNo[msg.sender] */\n      dup1\n      dup7\n      mstore\n      dup5\n      dup9\n      keccak256\n        /* \"Contracts/TTSwapV1Coin.sol\":10316:10341  _coinInfo.contractAddress */\n      dup12\n      mload\n        /* \"Contracts/TTSwapV1Coin.sol\":10292:10342  ownerCoinNo[msg.sender][_coinInfo.contractAddress] */\n      dup12\n      and\n      dup10\n      mstore\n      dup7\n      mstore\n      dup5\n      dup9\n      keccak256\n        /* \"Contracts/TTSwapV1Coin.sol\":10292:10388  ownerCoinNo[msg.sender][_coinInfo.contractAddress] = coinMaxNo[... */\n      dup1\n      sload\n      not(sub(shl(0x80, 0x01), 0x01))\n      and\n        /* \"Contracts/TTSwapV1Coin.sol\":10345:10388  coinMaxNo[... */\n      swap3\n      swap1\n      swap5\n      and\n        /* \"Contracts/TTSwapV1Coin.sol\":10292:10388  ownerCoinNo[msg.sender][_coinInfo.contractAddress] = coinMaxNo[... */\n      swap2\n      swap1\n      swap2\n      or\n      swap1\n      swap3\n      sstore\n        /* \"Contracts/TTSwapV1Coin.sol\":10407:10432  _coinInfo.contractAddress */\n      dup9\n      mload\n        /* \"Contracts/TTSwapV1Coin.sol\":10398:10433  coinList[_coinInfo.contractAddress] */\n      dup9\n      and\n      dup7\n      mstore\n        /* \"Contracts/TTSwapV1Coin.sol\":10398:10406  coinList */\n      0x03\n        /* \"Contracts/TTSwapV1Coin.sol\":10398:10433  coinList[_coinInfo.contractAddress] */\n      dup1\n      dup6\n      mstore\n      swap6\n      dup4\n      swap1\n      keccak256\n        /* \"Contracts/TTSwapV1Coin.sol\":10398:10445  coinList[_coinInfo.contractAddress] = _coinInfo */\n      dup12\n      mload\n      dup2\n      sstore\n      swap4\n      dup12\n      add\n      mload\n      swap5\n      dup5\n      add\n      swap5\n      swap1\n      swap5\n      sstore\n      dup2\n      dup11\n      add\n      mload\n      swap1\n      dup4\n      add\n      sstore\n      0x60\n      dup10\n      add\n      mload\n      swap4\n      dup3\n      add\n      dup1\n      sload\n      0xff\n      swap1\n      swap6\n      and\n      not(0xff)\n      swap1\n      swap6\n      and\n      swap5\n      swap1\n      swap5\n      or\n      swap1\n      swap4\n      sstore\n      0x80\n      dup9\n      add\n      mload\n      0x04\n      dup3\n      add\n      sstore\n      0xa0\n      dup9\n      add\n      mload\n      0x05\n      dup3\n      add\n      sstore\n      swap5\n      mload\n      0x06\n      dup7\n      add\n      dup1\n      sload\n      0xe0\n      dup11\n      add\n      mload\n        /* \"Contracts/TTSwapV1Coin.sol\":10219:10240  coinMaxNo[msg.sender] */\n      0x0100\n        /* \"Contracts/TTSwapV1Coin.sol\":10398:10445  coinList[_coinInfo.contractAddress] = _coinInfo */\n      dup12\n      add\n      mload\n      0x0120\n      dup13\n      add\n      mload\n      iszero\n      iszero\n      shl(0xb0, 0x01)\n      mul\n      not(shl(0xb0, 0xff))\n      swap2\n      iszero\n      iszero\n      shl(0xa8, 0x01)\n      mul\n      swap2\n      swap1\n      swap2\n      and\n      not(shl(0xa8, 0xffff))\n      swap3\n      iszero\n      iszero\n      shl(0xa0, 0x01)\n      mul\n      not(sub(shl(0xa8, 0x01), 0x01))\n      swap1\n      swap5\n      and\n      swap6\n      dup11\n      and\n      swap6\n      swap1\n      swap6\n      or\n      swap3\n      swap1\n      swap3\n      or\n      and\n      swap3\n      swap1\n      swap3\n      or\n      swap2\n      swap1\n      swap2\n      or\n      swap1\n      sstore\n      0x0140\n      dup8\n      add\n      mload\n      0x07\n      swap1\n      swap6\n      add\n      dup1\n      sload\n      swap6\n      swap1\n      swap5\n      and\n      swap5\n      and\n      swap4\n      swap1\n      swap4\n      or\n      swap1\n      swap2\n      sstore\n        /* \"Contracts/TTSwapV1Coin.sol\":10460:10499  e_addCoinbyGator(msg.sender, _coinInfo) */\n      swap1\n      mload\n      0x724ed868ad6195ec663de17364300ee1e1956f27f184ceb84f2be30d1fd58d65\n      swap2\n      tag_173\n      swap2\n        /* \"Contracts/TTSwapV1Coin.sol\":10244:10253  _coinInfo */\n      dup6\n      swap1\n        /* \"Contracts/TTSwapV1Coin.sol\":10460:10499  e_addCoinbyGator(msg.sender, _coinInfo) */\n      tag_174\n      jump\t// in\n    tag_173:\n      mload(0x40)\n      dup1\n      swap2\n      sub\n      swap1\n      log1\n        /* \"Contracts/TTSwapV1Coin.sol\":10539:10570  _coinDetailInfo.contractAddress */\n      dup1\n      mload\n      sub(shl(0xa0, 0x01), 0x01)\n        /* \"Contracts/TTSwapV1Coin.sol\":10530:10571  coinList[_coinDetailInfo.contractAddress] */\n      swap1\n      dup2\n      and\n      0x00\n      swap1\n      dup2\n      mstore\n        /* \"Contracts/TTSwapV1Coin.sol\":10530:10538  coinList */\n      0x03\n        /* \"Contracts/TTSwapV1Coin.sol\":10530:10571  coinList[_coinDetailInfo.contractAddress] */\n      0x20\n      mstore\n      0x40\n      swap1\n      keccak256\n        /* \"Contracts/TTSwapV1Coin.sol\":10530:10579  coinList[_coinDetailInfo.contractAddress].creator */\n      0x07\n      add\n      sload\n      and\n        /* \"Contracts/TTSwapV1Coin.sol\":10583:10593  msg.sender */\n      caller\n        /* \"Contracts/TTSwapV1Coin.sol\":10530:10593  coinList[_coinDetailInfo.contractAddress].creator == msg.sender */\n      eq\n        /* \"Contracts/TTSwapV1Coin.sol\":10509:10647  require(... */\n      tag_175\n      jumpi\n      mload(0x40)\n      shl(0xe5, 0x461bcd)\n      dup2\n      mstore\n        /* \"#utility.yul\":11243:11245   */\n      0x20\n        /* \"Contracts/TTSwapV1Coin.sol\":10509:10647  require(... */\n      0x04\n      dup3\n      add\n        /* \"#utility.yul\":11225:11246   */\n      mstore\n        /* \"#utility.yul\":11282:11284   */\n      0x1c\n        /* \"#utility.yul\":11262:11280   */\n      0x24\n      dup3\n      add\n        /* \"#utility.yul\":11255:11285   */\n      mstore\n        /* \"#utility.yul\":11321:11351   */\n      0x796f75206973206e6f7420746865207468696e67206372656174657200000000\n        /* \"#utility.yul\":11301:11319   */\n      0x44\n      dup3\n      add\n        /* \"#utility.yul\":11294:11352   */\n      mstore\n        /* \"#utility.yul\":11369:11387   */\n      0x64\n      add\n        /* \"Contracts/TTSwapV1Coin.sol\":10509:10647  require(... */\n      tag_161\n        /* \"#utility.yul\":11041:11393   */\n      jump\n        /* \"Contracts/TTSwapV1Coin.sol\":10509:10647  require(... */\n    tag_175:\n        /* \"Contracts/TTSwapV1Coin.sol\":10672:10703  _coinDetailInfo.contractAddress */\n      dup1\n      mload\n      sub(shl(0xa0, 0x01), 0x01)\n        /* \"Contracts/TTSwapV1Coin.sol\":10657:10704  coinDetailList[_coinDetailInfo.contractAddress] */\n      swap1\n      dup2\n      and\n      0x00\n      swap1\n      dup2\n      mstore\n        /* \"Contracts/TTSwapV1Coin.sol\":10657:10671  coinDetailList */\n      0x04\n        /* \"Contracts/TTSwapV1Coin.sol\":10657:10704  coinDetailList[_coinDetailInfo.contractAddress] */\n      0x20\n      dup2\n      dup2\n      mstore\n      0x40\n      swap3\n      dup4\n      swap1\n      keccak256\n        /* \"Contracts/TTSwapV1Coin.sol\":10657:10722  coinDetailList[_coinDetailInfo.contractAddress] = _coinDetailInfo */\n      dup6\n      mload\n      dup2\n      sload\n      not(sub(shl(0xa0, 0x01), 0x01))\n      and\n      swap6\n      and\n      swap5\n      dup6\n      or\n      dup2\n      sstore\n      dup2\n      dup7\n      add\n      mload\n      0x01\n      dup3\n      add\n      sstore\n      dup4\n      dup7\n      add\n      mload\n      0x02\n      dup3\n      add\n      sstore\n      0x60\n      dup7\n      add\n      mload\n      0x03\n      dup3\n      add\n      sstore\n      0x80\n      dup7\n      add\n      mload\n      swap3\n      dup2\n      add\n      swap3\n      swap1\n      swap3\n      sstore\n      0xa0\n      dup6\n      add\n      mload\n      0x05\n      swap1\n      swap3\n      add\n      swap2\n      swap1\n      swap2\n      sstore\n        /* \"Contracts/TTSwapV1Coin.sol\":10737:10792  e_addCoinDetailbyGator(_coinDetailInfo.contractAddress) */\n      swap1\n      mload\n        /* \"#utility.yul\":3811:3862   */\n      swap2\n      dup3\n      mstore\n        /* \"Contracts/TTSwapV1Coin.sol\":10737:10792  e_addCoinDetailbyGator(_coinDetailInfo.contractAddress) */\n      0x28995a3cc31b8867e272bf05bb4f577da5e81799e17cf729d123edf7c2a7ca94\n      swap2\n        /* \"#utility.yul\":3784:3802   */\n      add\n        /* \"Contracts/TTSwapV1Coin.sol\":10737:10792  e_addCoinDetailbyGator(_coinDetailInfo.contractAddress) */\n    tag_178:\n      mload(0x40)\n      dup1\n      swap2\n      sub\n      swap1\n      log1\n        /* \"Contracts/TTSwapV1Coin.sol\":9519:10799  function addCoinFullinfobyGator(... */\n      pop\n      pop\n      jump\t// out\n        /* \"Contracts/TTSwapV1Coin.sol\":6196:7055  function impoveGateCoinbyMarketor(... */\n    tag_47:\n        /* \"Contracts/TTSwapV1Coin.sol\":1795:1818  marketorContractAddress */\n      sload(0x06)\n        /* \"Contracts/TTSwapV1Coin.sol\":1778:1877  IMarketorV1State(marketorContractAddress).isValidMarketor(... */\n      mload(0x40)\n      shl(0xe5, 0x038c3329)\n      dup2\n      mstore\n        /* \"Contracts/TTSwapV1Coin.sol\":1853:1863  msg.sender */\n      caller\n        /* \"Contracts/TTSwapV1Coin.sol\":1778:1877  IMarketorV1State(marketorContractAddress).isValidMarketor(... */\n      0x04\n      dup3\n      add\n        /* \"#utility.yul\":3811:3862   */\n      mstore\n      sub(shl(0xa0, 0x01), 0x01)\n        /* \"Contracts/TTSwapV1Coin.sol\":1795:1818  marketorContractAddress */\n      swap1\n      swap2\n      and\n      swap1\n        /* \"Contracts/TTSwapV1Coin.sol\":1778:1835  IMarketorV1State(marketorContractAddress).isValidMarketor */\n      0x71866520\n      swap1\n        /* \"#utility.yul\":3784:3802   */\n      0x24\n      add\n        /* \"Contracts/TTSwapV1Coin.sol\":1778:1877  IMarketorV1State(marketorContractAddress).isValidMarketor(... */\n      0x20\n      mload(0x40)\n      dup1\n      dup4\n      sub\n      dup2\n      dup7\n      gas\n      staticcall\n      iszero\n      dup1\n      iszero\n      tag_182\n      jumpi\n      returndatasize\n      0x00\n      dup1\n      returndatacopy\n      revert(0x00, returndatasize)\n    tag_182:\n      pop\n      pop\n      pop\n      pop\n      mload(0x40)\n      returndatasize\n      not(0x1f)\n      0x1f\n      dup3\n      add\n      and\n      dup3\n      add\n      dup1\n      0x40\n      mstore\n      pop\n      dup2\n      add\n      swap1\n      tag_183\n      swap2\n      swap1\n      tag_159\n      jump\t// in\n    tag_183:\n        /* \"Contracts/TTSwapV1Coin.sol\":1757:1942  require(... */\n      tag_184\n      jumpi\n      mload(0x40)\n      shl(0xe5, 0x461bcd)\n      dup2\n      mstore\n      0x04\n      add\n      tag_161\n      swap1\n      tag_162\n      jump\t// in\n    tag_184:\n      sub(shl(0xa0, 0x01), 0x01)\n        /* \"Contracts/TTSwapV1Coin.sol\":6332:6358  coinList[_contractaddress] */\n      dup2\n      and\n      0x00\n      swap1\n      dup2\n      mstore\n        /* \"Contracts/TTSwapV1Coin.sol\":6332:6340  coinList */\n      0x03\n        /* \"Contracts/TTSwapV1Coin.sol\":6332:6358  coinList[_contractaddress] */\n      0x20\n      mstore\n      0x40\n      swap1\n      keccak256\n        /* \"Contracts/TTSwapV1Coin.sol\":6332:6365  coinList[_contractaddress].isUsed */\n      0x06\n      add\n        /* \"Contracts/TTSwapV1Coin.sol\":6332:6372  coinList[_contractaddress].isUsed = true */\n      dup1\n      sload\n      not(shl(0xb0, 0xff))\n      and\n      shl(0xb0, 0x01)\n      or\n      swap1\n      sstore\n        /* \"Contracts/TTSwapV1Coin.sol\":6463:6486  marketorContractAddress */\n      sload(0x06)\n      sub(shl(0xa0, 0x01), 0x01)\n      swap1\n      dup2\n      and\n        /* \"Contracts/TTSwapV1Coin.sol\":6508:6509  0 */\n      0x00\n        /* \"Contracts/TTSwapV1Coin.sol\":6451:6487  ownerCoinNo[marketorContractAddress] */\n      swap1\n      dup2\n      mstore\n        /* \"Contracts/TTSwapV1Coin.sol\":6451:6462  ownerCoinNo */\n      0x02\n        /* \"Contracts/TTSwapV1Coin.sol\":6451:6487  ownerCoinNo[marketorContractAddress] */\n      0x20\n      swap1\n      dup2\n      mstore\n      0x40\n      dup1\n      dup4\n      keccak256\n        /* \"Contracts/TTSwapV1Coin.sol\":6451:6505  ownerCoinNo[marketorContractAddress][_contractaddress] */\n      swap4\n      dup6\n      and\n      dup4\n      mstore\n      swap3\n      swap1\n      mstore\n      keccak256\n      sload\n      sub(shl(0x80, 0x01), 0x01)\n      and\n        /* \"Contracts/TTSwapV1Coin.sol\":6430:6564  require(... */\n      tag_190\n      jumpi\n      mload(0x40)\n      shl(0xe5, 0x461bcd)\n      dup2\n      mstore\n        /* \"#utility.yul\":11951:11953   */\n      0x20\n        /* \"Contracts/TTSwapV1Coin.sol\":6430:6564  require(... */\n      0x04\n      dup3\n      add\n        /* \"#utility.yul\":11933:11954   */\n      mstore\n        /* \"#utility.yul\":11990:11992   */\n      0x1d\n        /* \"#utility.yul\":11970:11988   */\n      0x24\n      dup3\n      add\n        /* \"#utility.yul\":11963:11993   */\n      mstore\n        /* \"#utility.yul\":12029:12060   */\n      0x74686520636f696e206973202065786973747320696e206d61726b6574000000\n        /* \"#utility.yul\":12009:12027   */\n      0x44\n      dup3\n      add\n        /* \"#utility.yul\":12002:12061   */\n      mstore\n        /* \"#utility.yul\":12078:12096   */\n      0x64\n      add\n        /* \"Contracts/TTSwapV1Coin.sol\":6430:6564  require(... */\n      tag_161\n        /* \"#utility.yul\":11749:12102   */\n      jump\n        /* \"Contracts/TTSwapV1Coin.sol\":6430:6564  require(... */\n    tag_190:\n        /* \"Contracts/TTSwapV1Coin.sol\":6605:6628  marketorContractAddress */\n      and(sub(shl(0xa0, 0x01), 0x01), sload(0x06))\n        /* \"Contracts/TTSwapV1Coin.sol\":6574:6592  uint128 coin_MaxNo */\n      0x00\n        /* \"Contracts/TTSwapV1Coin.sol\":6595:6629  coinMaxNo[marketorContractAddress] */\n      swap1\n      dup2\n      mstore\n      0x20\n      dup2\n      swap1\n      mstore\n      0x40\n      swap1\n      keccak256\n      sload\n      sub(shl(0x80, 0x01), 0x01)\n      and\n        /* \"Contracts/TTSwapV1Coin.sol\":6605:6628  marketorContractAddress */\n      0x01\n        /* \"Contracts/TTSwapV1Coin.sol\":6643:6658  coin_MaxNo >= 1 */\n      dup2\n      lt\n      dup1\n      iszero\n      swap1\n        /* \"Contracts/TTSwapV1Coin.sol\":6643:6690  coin_MaxNo >= 1 && coin_MaxNo + 1 >= coin_MaxNo */\n      tag_193\n      jumpi\n      pop\n      sub(shl(0x80, 0x01), 0x01)\n        /* \"Contracts/TTSwapV1Coin.sol\":6662:6690  coin_MaxNo + 1 >= coin_MaxNo */\n      dup2\n      and\n        /* \"Contracts/TTSwapV1Coin.sol\":6662:6676  coin_MaxNo + 1 */\n      tag_194\n        /* \"Contracts/TTSwapV1Coin.sol\":6680:6690  coin_MaxNo */\n      dup3\n        /* \"Contracts/TTSwapV1Coin.sol\":6675:6676  1 */\n      0x01\n        /* \"Contracts/TTSwapV1Coin.sol\":6662:6676  coin_MaxNo + 1 */\n      tag_169\n      jump\t// in\n    tag_194:\n      sub(shl(0x80, 0x01), 0x01)\n        /* \"Contracts/TTSwapV1Coin.sol\":6662:6690  coin_MaxNo + 1 >= coin_MaxNo */\n      and\n      lt\n      iszero\n        /* \"Contracts/TTSwapV1Coin.sol\":6643:6690  coin_MaxNo >= 1 && coin_MaxNo + 1 >= coin_MaxNo */\n    tag_193:\n        /* \"Contracts/TTSwapV1Coin.sol\":6639:6777  if (coin_MaxNo >= 1 && coin_MaxNo + 1 >= coin_MaxNo) {... */\n      iszero\n      tag_195\n      jumpi\n        /* \"Contracts/TTSwapV1Coin.sol\":6706:6721  coin_MaxNo += 1 */\n      tag_196\n        /* \"Contracts/TTSwapV1Coin.sol\":6720:6721  1 */\n      0x01\n        /* \"Contracts/TTSwapV1Coin.sol\":6706:6721  coin_MaxNo += 1 */\n      dup3\n      tag_169\n      jump\t// in\n    tag_196:\n      swap1\n      pop\n        /* \"Contracts/TTSwapV1Coin.sol\":6639:6777  if (coin_MaxNo >= 1 && coin_MaxNo + 1 >= coin_MaxNo) {... */\n      jump(tag_197)\n    tag_195:\n      pop\n        /* \"Contracts/TTSwapV1Coin.sol\":6765:6766  1 */\n      0x01\n        /* \"Contracts/TTSwapV1Coin.sol\":6639:6777  if (coin_MaxNo >= 1 && coin_MaxNo + 1 >= coin_MaxNo) {... */\n    tag_197:\n        /* \"Contracts/TTSwapV1Coin.sol\":6796:6819  marketorContractAddress */\n      0x06\n      dup1\n      sload\n      sub(shl(0xa0, 0x01), 0x01)\n      swap1\n      dup2\n      and\n        /* \"Contracts/TTSwapV1Coin.sol\":6786:6795  coinMaxNo */\n      0x00\n        /* \"Contracts/TTSwapV1Coin.sol\":6786:6820  coinMaxNo[marketorContractAddress] */\n      swap1\n      dup2\n      mstore\n      0x20\n      dup2\n      dup2\n      mstore\n      0x40\n      dup1\n      dup4\n      keccak256\n        /* \"Contracts/TTSwapV1Coin.sol\":6786:6833  coinMaxNo[marketorContractAddress] = coin_MaxNo */\n      dup1\n      sload\n      not(sub(shl(0x80, 0x01), 0x01))\n      swap1\n      dup2\n      and\n      sub(shl(0x80, 0x01), 0x01)\n      dup10\n      and\n      swap1\n      dup2\n      or\n      swap1\n      swap3\n      sstore\n        /* \"Contracts/TTSwapV1Coin.sol\":6857:6880  marketorContractAddress */\n      dup7\n      sload\n      dup7\n      and\n        /* \"Contracts/TTSwapV1Coin.sol\":6843:6881  ownerCoinList[marketorContractAddress] */\n      dup6\n      mstore\n      0x01\n      dup5\n      mstore\n      dup3\n      dup6\n      keccak256\n        /* \"Contracts/TTSwapV1Coin.sol\":6843:6893  ownerCoinList[marketorContractAddress][coin_MaxNo] */\n      dup3\n      dup7\n      mstore\n      dup5\n      mstore\n      dup3\n      dup6\n      keccak256\n        /* \"Contracts/TTSwapV1Coin.sol\":6843:6912  ownerCoinList[marketorContractAddress][coin_MaxNo] = _contractaddress */\n      dup1\n      sload\n      not(sub(shl(0xa0, 0x01), 0x01))\n      and\n      dup11\n      dup9\n      and\n      swap1\n      dup2\n      or\n      swap1\n      swap2\n      sstore\n        /* \"Contracts/TTSwapV1Coin.sol\":6934:6957  marketorContractAddress */\n      swap7\n      sload\n      swap1\n      swap6\n      and\n        /* \"Contracts/TTSwapV1Coin.sol\":6922:6958  ownerCoinNo[marketorContractAddress] */\n      dup5\n      mstore\n        /* \"Contracts/TTSwapV1Coin.sol\":6922:6933  ownerCoinNo */\n      0x02\n        /* \"Contracts/TTSwapV1Coin.sol\":6922:6958  ownerCoinNo[marketorContractAddress] */\n      dup4\n      mstore\n      dup2\n      dup5\n      keccak256\n        /* \"Contracts/TTSwapV1Coin.sol\":6922:6976  ownerCoinNo[marketorContractAddress][_contractaddress] */\n      dup7\n      dup6\n      mstore\n      dup4\n      mstore\n      swap3\n      dup2\n      swap1\n      keccak256\n        /* \"Contracts/TTSwapV1Coin.sol\":6922:6989  ownerCoinNo[marketorContractAddress][_contractaddress] = coin_MaxNo */\n      dup1\n      sload\n      swap1\n      swap5\n      and\n      swap1\n      swap3\n      or\n      swap1\n      swap3\n      sstore\n        /* \"Contracts/TTSwapV1Coin.sol\":7004:7048  e_impoveGateCoinbyMarketor(_contractaddress) */\n      mload\n        /* \"#utility.yul\":3811:3862   */\n      swap2\n      dup3\n      mstore\n        /* \"Contracts/TTSwapV1Coin.sol\":7004:7048  e_impoveGateCoinbyMarketor(_contractaddress) */\n      0x787b8074a2db1bf64dac1e916753253472acc7c1fff144fae6d14142860d890b\n      swap2\n        /* \"#utility.yul\":3784:3802   */\n      add\n        /* \"Contracts/TTSwapV1Coin.sol\":7004:7048  e_impoveGateCoinbyMarketor(_contractaddress) */\n      tag_178\n        /* \"#utility.yul\":3665:3868   */\n      jump\n        /* \"Contracts/TTSwapV1Coin.sol\":3635:3910  function addCoinDetailInfobyMarketor(... */\n    tag_51:\n        /* \"Contracts/TTSwapV1Coin.sol\":1795:1818  marketorContractAddress */\n      sload(0x06)\n        /* \"Contracts/TTSwapV1Coin.sol\":1778:1877  IMarketorV1State(marketorContractAddress).isValidMarketor(... */\n      mload(0x40)\n      shl(0xe5, 0x038c3329)\n      dup2\n      mstore\n        /* \"Contracts/TTSwapV1Coin.sol\":1853:1863  msg.sender */\n      caller\n        /* \"Contracts/TTSwapV1Coin.sol\":1778:1877  IMarketorV1State(marketorContractAddress).isValidMarketor(... */\n      0x04\n      dup3\n      add\n        /* \"#utility.yul\":3811:3862   */\n      mstore\n      sub(shl(0xa0, 0x01), 0x01)\n        /* \"Contracts/TTSwapV1Coin.sol\":1795:1818  marketorContractAddress */\n      swap1\n      swap2\n      and\n      swap1\n        /* \"Contracts/TTSwapV1Coin.sol\":1778:1835  IMarketorV1State(marketorContractAddress).isValidMarketor */\n      0x71866520\n      swap1\n        /* \"#utility.yul\":3784:3802   */\n      0x24\n      add\n        /* \"Contracts/TTSwapV1Coin.sol\":1778:1877  IMarketorV1State(marketorContractAddress).isValidMarketor(... */\n      0x20\n      mload(0x40)\n      dup1\n      dup4\n      sub\n      dup2\n      dup7\n      gas\n      staticcall\n      iszero\n      dup1\n      iszero\n      tag_202\n      jumpi\n      returndatasize\n      0x00\n      dup1\n      returndatacopy\n      revert(0x00, returndatasize)\n    tag_202:\n      pop\n      pop\n      pop\n      pop\n      mload(0x40)\n      returndatasize\n      not(0x1f)\n      0x1f\n      dup3\n      add\n      and\n      dup3\n      add\n      dup1\n      0x40\n      mstore\n      pop\n      dup2\n      add\n      swap1\n      tag_203\n      swap2\n      swap1\n      tag_159\n      jump\t// in\n    tag_203:\n        /* \"Contracts/TTSwapV1Coin.sol\":1757:1942  require(... */\n      tag_204\n      jumpi\n      mload(0x40)\n      shl(0xe5, 0x461bcd)\n      dup2\n      mstore\n      0x04\n      add\n      tag_161\n      swap1\n      tag_162\n      jump\t// in\n    tag_204:\n        /* \"Contracts/TTSwapV1Coin.sol\":3783:3814  _coinDetailInfo.contractAddress */\n      dup1\n      mload\n      sub(shl(0xa0, 0x01), 0x01)\n        /* \"Contracts/TTSwapV1Coin.sol\":3768:3815  coinDetailList[_coinDetailInfo.contractAddress] */\n      swap1\n      dup2\n      and\n      0x00\n      swap1\n      dup2\n      mstore\n        /* \"Contracts/TTSwapV1Coin.sol\":3768:3782  coinDetailList */\n      0x04\n        /* \"Contracts/TTSwapV1Coin.sol\":3768:3815  coinDetailList[_coinDetailInfo.contractAddress] */\n      0x20\n      dup2\n      dup2\n      mstore\n      0x40\n      swap3\n      dup4\n      swap1\n      keccak256\n        /* \"Contracts/TTSwapV1Coin.sol\":3768:3833  coinDetailList[_coinDetailInfo.contractAddress] = _coinDetailInfo */\n      dup6\n      mload\n      dup2\n      sload\n      not(sub(shl(0xa0, 0x01), 0x01))\n      and\n      swap6\n      and\n      swap5\n      dup6\n      or\n      dup2\n      sstore\n      dup2\n      dup7\n      add\n      mload\n      0x01\n      dup3\n      add\n      sstore\n      dup4\n      dup7\n      add\n      mload\n      0x02\n      dup3\n      add\n      sstore\n      0x60\n      dup7\n      add\n      mload\n      0x03\n      dup3\n      add\n      sstore\n      0x80\n      dup7\n      add\n      mload\n      swap3\n      dup2\n      add\n      swap3\n      swap1\n      swap3\n      sstore\n      0xa0\n      dup6\n      add\n      mload\n      0x05\n      swap1\n      swap3\n      add\n      swap2\n      swap1\n      swap2\n      sstore\n        /* \"Contracts/TTSwapV1Coin.sol\":3848:3903  e_addCoinDetailbyGator(_coinDetailInfo.contractAddress) */\n      swap1\n      mload\n        /* \"#utility.yul\":3811:3862   */\n      swap2\n      dup3\n      mstore\n        /* \"Contracts/TTSwapV1Coin.sol\":3848:3903  e_addCoinDetailbyGator(_coinDetailInfo.contractAddress) */\n      0x28995a3cc31b8867e272bf05bb4f577da5e81799e17cf729d123edf7c2a7ca94\n      swap2\n        /* \"#utility.yul\":3784:3802   */\n      add\n        /* \"Contracts/TTSwapV1Coin.sol\":3848:3903  e_addCoinDetailbyGator(_coinDetailInfo.contractAddress) */\n    tag_207:\n      mload(0x40)\n      dup1\n      swap2\n      sub\n      swap1\n      log1\n        /* \"Contracts/TTSwapV1Coin.sol\":3635:3910  function addCoinDetailInfobyMarketor(... */\n      pop\n      jump\t// out\n        /* \"Contracts/TTSwapV1Coin.sol\":5403:5610  function unlockCoinbyMarketor(... */\n    tag_54:\n        /* \"Contracts/TTSwapV1Coin.sol\":1795:1818  marketorContractAddress */\n      sload(0x06)\n        /* \"Contracts/TTSwapV1Coin.sol\":1778:1877  IMarketorV1State(marketorContractAddress).isValidMarketor(... */\n      mload(0x40)\n      shl(0xe5, 0x038c3329)\n      dup2\n      mstore\n        /* \"Contracts/TTSwapV1Coin.sol\":1853:1863  msg.sender */\n      caller\n        /* \"Contracts/TTSwapV1Coin.sol\":1778:1877  IMarketorV1State(marketorContractAddress).isValidMarketor(... */\n      0x04\n      dup3\n      add\n        /* \"#utility.yul\":3811:3862   */\n      mstore\n      sub(shl(0xa0, 0x01), 0x01)\n        /* \"Contracts/TTSwapV1Coin.sol\":1795:1818  marketorContractAddress */\n      swap1\n      swap2\n      and\n      swap1\n        /* \"Contracts/TTSwapV1Coin.sol\":1778:1835  IMarketorV1State(marketorContractAddress).isValidMarketor */\n      0x71866520\n      swap1\n        /* \"#utility.yul\":3784:3802   */\n      0x24\n      add\n        /* \"Contracts/TTSwapV1Coin.sol\":1778:1877  IMarketorV1State(marketorContractAddress).isValidMarketor(... */\n      0x20\n      mload(0x40)\n      dup1\n      dup4\n      sub\n      dup2\n      dup7\n      gas\n      staticcall\n      iszero\n      dup1\n      iszero\n      tag_211\n      jumpi\n      returndatasize\n      0x00\n      dup1\n      returndatacopy\n      revert(0x00, returndatasize)\n    tag_211:\n      pop\n      pop\n      pop\n      pop\n      mload(0x40)\n      returndatasize\n      not(0x1f)\n      0x1f\n      dup3\n      add\n      and\n      dup3\n      add\n      dup1\n      0x40\n      mstore\n      pop\n      dup2\n      add\n      swap1\n      tag_212\n      swap2\n      swap1\n      tag_159\n      jump\t// in\n    tag_212:\n        /* \"Contracts/TTSwapV1Coin.sol\":1757:1942  require(... */\n      tag_213\n      jumpi\n      mload(0x40)\n      shl(0xe5, 0x461bcd)\n      dup2\n      mstore\n      0x04\n      add\n      tag_161\n      swap1\n      tag_162\n      jump\t// in\n    tag_213:\n      sub(shl(0xa0, 0x01), 0x01)\n        /* \"Contracts/TTSwapV1Coin.sol\":5510:5532  coinList[_CoinAddress] */\n      dup2\n      and\n      0x00\n      dup2\n      dup2\n      mstore\n        /* \"Contracts/TTSwapV1Coin.sol\":5510:5518  coinList */\n      0x03\n        /* \"Contracts/TTSwapV1Coin.sol\":5510:5532  coinList[_CoinAddress] */\n      0x20\n      swap1\n      dup2\n      mstore\n      0x40\n      swap2\n      dup3\n      swap1\n      keccak256\n        /* \"Contracts/TTSwapV1Coin.sol\":5510:5545  coinList[_CoinAddress].marketunlock */\n      0x06\n      add\n        /* \"Contracts/TTSwapV1Coin.sol\":5510:5552  coinList[_CoinAddress].marketunlock = true */\n      dup1\n      sload\n      not(shl(0xa0, 0xff))\n      and\n      shl(0xa0, 0x01)\n      or\n      swap1\n      sstore\n        /* \"Contracts/TTSwapV1Coin.sol\":5567:5603  e_unlockCoinbyMarketor(_CoinAddress) */\n      swap1\n      mload\n        /* \"#utility.yul\":3811:3862   */\n      swap2\n      dup3\n      mstore\n        /* \"Contracts/TTSwapV1Coin.sol\":5567:5603  e_unlockCoinbyMarketor(_CoinAddress) */\n      0xac01100c10be15fec1a42f8249abc04b81a28e731feab3e60a2a962f74eff9d8\n      swap2\n        /* \"#utility.yul\":3784:3802   */\n      add\n        /* \"Contracts/TTSwapV1Coin.sol\":5567:5603  e_unlockCoinbyMarketor(_CoinAddress) */\n      tag_207\n        /* \"#utility.yul\":3665:3868   */\n      jump\n        /* \"Contracts/TTSwapV1Coin.sol\":10805:11169  function unlockCoinbyGator(... */\n    tag_71:\n        /* \"Contracts/TTSwapV1Coin.sol\":1558:1578  gatorContractAddress */\n      sload(0x05)\n        /* \"Contracts/TTSwapV1Coin.sol\":1544:1634  IGatorV1State(gatorContractAddress).isValidGator(... */\n      mload(0x40)\n      shl(0xe1, 0x601c2149)\n      dup2\n      mstore\n        /* \"Contracts/TTSwapV1Coin.sol\":1610:1620  msg.sender */\n      caller\n        /* \"Contracts/TTSwapV1Coin.sol\":1544:1634  IGatorV1State(gatorContractAddress).isValidGator(... */\n      0x04\n      dup3\n      add\n        /* \"#utility.yul\":3811:3862   */\n      mstore\n      sub(shl(0xa0, 0x01), 0x01)\n        /* \"Contracts/TTSwapV1Coin.sol\":1558:1578  gatorContractAddress */\n      swap1\n      swap2\n      and\n      swap1\n        /* \"Contracts/TTSwapV1Coin.sol\":1544:1592  IGatorV1State(gatorContractAddress).isValidGator */\n      0xc0384292\n      swap1\n        /* \"#utility.yul\":3784:3802   */\n      0x24\n      add\n        /* \"Contracts/TTSwapV1Coin.sol\":1544:1634  IGatorV1State(gatorContractAddress).isValidGator(... */\n      0x20\n      mload(0x40)\n      dup1\n      dup4\n      sub\n      dup2\n      dup7\n      gas\n      staticcall\n      iszero\n      dup1\n      iszero\n      tag_221\n      jumpi\n      returndatasize\n      0x00\n      dup1\n      returndatacopy\n      revert(0x00, returndatasize)\n    tag_221:\n      pop\n      pop\n      pop\n      pop\n      mload(0x40)\n      returndatasize\n      not(0x1f)\n      0x1f\n      dup3\n      add\n      and\n      dup3\n      add\n      dup1\n      0x40\n      mstore\n      pop\n      dup2\n      add\n      swap1\n      tag_222\n      swap2\n      swap1\n      tag_159\n      jump\t// in\n    tag_222:\n        /* \"Contracts/TTSwapV1Coin.sol\":1536:1699  require(IGatorV1State(gatorContractAddress).isValidGator(... */\n      tag_223\n      jumpi\n      mload(0x40)\n      shl(0xe5, 0x461bcd)\n      dup2\n      mstore\n      0x04\n      add\n      tag_161\n      swap1\n      tag_162\n      jump\t// in\n    tag_223:\n      sub(shl(0xa0, 0x01), 0x01)\n        /* \"Contracts/TTSwapV1Coin.sol\":10935:10965  coinList[_internalCoinAddress] */\n      dup2\n      dup2\n      and\n      0x00\n      swap1\n      dup2\n      mstore\n        /* \"Contracts/TTSwapV1Coin.sol\":10935:10943  coinList */\n      0x03\n        /* \"Contracts/TTSwapV1Coin.sol\":10935:10965  coinList[_internalCoinAddress] */\n      0x20\n      mstore\n      0x40\n      swap1\n      keccak256\n        /* \"Contracts/TTSwapV1Coin.sol\":10935:10973  coinList[_internalCoinAddress].creator */\n      0x07\n      add\n      sload\n      and\n        /* \"Contracts/TTSwapV1Coin.sol\":10977:10987  msg.sender */\n      caller\n        /* \"Contracts/TTSwapV1Coin.sol\":10935:10987  coinList[_internalCoinAddress].creator == msg.sender */\n      eq\n        /* \"Contracts/TTSwapV1Coin.sol\":10914:11035  require(... */\n      tag_226\n      jumpi\n      mload(0x40)\n      shl(0xe5, 0x461bcd)\n      dup2\n      mstore\n      0x04\n      add\n      tag_161\n      swap1\n      tag_228\n      jump\t// in\n    tag_226:\n      sub(shl(0xa0, 0x01), 0x01)\n        /* \"Contracts/TTSwapV1Coin.sol\":11045:11075  coinList[_internalCoinAddress] */\n      dup2\n      and\n      0x00\n      dup2\n      dup2\n      mstore\n        /* \"Contracts/TTSwapV1Coin.sol\":11045:11053  coinList */\n      0x03\n        /* \"Contracts/TTSwapV1Coin.sol\":11045:11075  coinList[_internalCoinAddress] */\n      0x20\n      swap1\n      dup2\n      mstore\n      0x40\n      swap2\n      dup3\n      swap1\n      keccak256\n        /* \"Contracts/TTSwapV1Coin.sol\":11045:11086  coinList[_internalCoinAddress].gateunlock */\n      0x06\n      add\n        /* \"Contracts/TTSwapV1Coin.sol\":11045:11093  coinList[_internalCoinAddress].gateunlock = true */\n      dup1\n      sload\n      not(shl(0xa8, 0xff))\n      and\n      shl(0xa8, 0x01)\n      or\n      swap1\n      sstore\n        /* \"Contracts/TTSwapV1Coin.sol\":11109:11162  e_unlockCoinbyGator(msg.sender, _internalCoinAddress) */\n      dup2\n      mload\n        /* \"Contracts/TTSwapV1Coin.sol\":11129:11139  msg.sender */\n      caller\n        /* \"#utility.yul\":12670:12704   */\n      dup2\n      mstore\n        /* \"#utility.yul\":12720:12738   */\n      swap1\n      dup2\n      add\n        /* \"#utility.yul\":12713:12756   */\n      swap3\n      swap1\n      swap3\n      mstore\n        /* \"Contracts/TTSwapV1Coin.sol\":11109:11162  e_unlockCoinbyGator(msg.sender, _internalCoinAddress) */\n      0x91f5df1a13ccd890776a683fdcef0b553ce7ac24fbe9609bb51aeb9fefed82a4\n      swap2\n        /* \"#utility.yul\":12605:12623   */\n      add\n        /* \"Contracts/TTSwapV1Coin.sol\":11109:11162  e_unlockCoinbyGator(msg.sender, _internalCoinAddress) */\n      tag_207\n        /* \"#utility.yul\":12458:12762   */\n      jump\n        /* \"Contracts/TTSwapV1Coin.sol\":11175:11536  function lockCoinbyGator(... */\n    tag_84:\n        /* \"Contracts/TTSwapV1Coin.sol\":1558:1578  gatorContractAddress */\n      sload(0x05)\n        /* \"Contracts/TTSwapV1Coin.sol\":1544:1634  IGatorV1State(gatorContractAddress).isValidGator(... */\n      mload(0x40)\n      shl(0xe1, 0x601c2149)\n      dup2\n      mstore\n        /* \"Contracts/TTSwapV1Coin.sol\":1610:1620  msg.sender */\n      caller\n        /* \"Contracts/TTSwapV1Coin.sol\":1544:1634  IGatorV1State(gatorContractAddress).isValidGator(... */\n      0x04\n      dup3\n      add\n        /* \"#utility.yul\":3811:3862   */\n      mstore\n      sub(shl(0xa0, 0x01), 0x01)\n        /* \"Contracts/TTSwapV1Coin.sol\":1558:1578  gatorContractAddress */\n      swap1\n      swap2\n      and\n      swap1\n        /* \"Contracts/TTSwapV1Coin.sol\":1544:1592  IGatorV1State(gatorContractAddress).isValidGator */\n      0xc0384292\n      swap1\n        /* \"#utility.yul\":3784:3802   */\n      0x24\n      add\n        /* \"Contracts/TTSwapV1Coin.sol\":1544:1634  IGatorV1State(gatorContractAddress).isValidGator(... */\n      0x20\n      mload(0x40)\n      dup1\n      dup4\n      sub\n      dup2\n      dup7\n      gas\n      staticcall\n      iszero\n      dup1\n      iszero\n      tag_235\n      jumpi\n      returndatasize\n      0x00\n      dup1\n      returndatacopy\n      revert(0x00, returndatasize)\n    tag_235:\n      pop\n      pop\n      pop\n      pop\n      mload(0x40)\n      returndatasize\n      not(0x1f)\n      0x1f\n      dup3\n      add\n      and\n      dup3\n      add\n      dup1\n      0x40\n      mstore\n      pop\n      dup2\n      add\n      swap1\n      tag_236\n      swap2\n      swap1\n      tag_159\n      jump\t// in\n    tag_236:\n        /* \"Contracts/TTSwapV1Coin.sol\":1536:1699  require(IGatorV1State(gatorContractAddress).isValidGator(... */\n      tag_237\n      jumpi\n      mload(0x40)\n      shl(0xe5, 0x461bcd)\n      dup2\n      mstore\n      0x04\n      add\n      tag_161\n      swap1\n      tag_162\n      jump\t// in\n    tag_237:\n      sub(shl(0xa0, 0x01), 0x01)\n        /* \"Contracts/TTSwapV1Coin.sol\":11303:11333  coinList[_internalCoinAddress] */\n      dup2\n      dup2\n      and\n      0x00\n      swap1\n      dup2\n      mstore\n        /* \"Contracts/TTSwapV1Coin.sol\":11303:11311  coinList */\n      0x03\n        /* \"Contracts/TTSwapV1Coin.sol\":11303:11333  coinList[_internalCoinAddress] */\n      0x20\n      mstore\n      0x40\n      swap1\n      keccak256\n        /* \"Contracts/TTSwapV1Coin.sol\":11303:11341  coinList[_internalCoinAddress].creator */\n      0x07\n      add\n      sload\n      and\n        /* \"Contracts/TTSwapV1Coin.sol\":11345:11355  msg.sender */\n      caller\n        /* \"Contracts/TTSwapV1Coin.sol\":11303:11355  coinList[_internalCoinAddress].creator == msg.sender */\n      eq\n        /* \"Contracts/TTSwapV1Coin.sol\":11282:11403  require(... */\n      tag_240\n      jumpi\n      mload(0x40)\n      shl(0xe5, 0x461bcd)\n      dup2\n      mstore\n      0x04\n      add\n      tag_161\n      swap1\n      tag_228\n      jump\t// in\n    tag_240:\n      sub(shl(0xa0, 0x01), 0x01)\n        /* \"Contracts/TTSwapV1Coin.sol\":11413:11443  coinList[_internalCoinAddress] */\n      dup2\n      and\n        /* \"Contracts/TTSwapV1Coin.sol\":11457:11462  false */\n      0x00\n        /* \"Contracts/TTSwapV1Coin.sol\":11413:11443  coinList[_internalCoinAddress] */\n      dup2\n      dup2\n      mstore\n        /* \"Contracts/TTSwapV1Coin.sol\":11413:11421  coinList */\n      0x03\n        /* \"Contracts/TTSwapV1Coin.sol\":11413:11443  coinList[_internalCoinAddress] */\n      0x20\n      swap1\n      dup2\n      mstore\n      0x40\n      swap2\n      dup3\n      swap1\n      keccak256\n        /* \"Contracts/TTSwapV1Coin.sol\":11413:11454  coinList[_internalCoinAddress].gateunlock */\n      0x06\n      add\n        /* \"Contracts/TTSwapV1Coin.sol\":11413:11462  coinList[_internalCoinAddress].gateunlock = false */\n      dup1\n      sload\n      not(shl(0xa8, 0xff))\n      and\n      swap1\n      sstore\n        /* \"Contracts/TTSwapV1Coin.sol\":11478:11529  e_lockCoinbyGator(msg.sender, _internalCoinAddress) */\n      dup2\n      mload\n        /* \"Contracts/TTSwapV1Coin.sol\":11496:11506  msg.sender */\n      caller\n        /* \"#utility.yul\":12670:12704   */\n      dup2\n      mstore\n        /* \"#utility.yul\":12720:12738   */\n      swap1\n      dup2\n      add\n        /* \"#utility.yul\":12713:12756   */\n      swap3\n      swap1\n      swap3\n      mstore\n        /* \"Contracts/TTSwapV1Coin.sol\":11478:11529  e_lockCoinbyGator(msg.sender, _internalCoinAddress) */\n      0x4807c3daa091febea14280167243bd513929ce4fe91170ef6536aebad0ede29b\n      swap2\n        /* \"#utility.yul\":12605:12623   */\n      add\n        /* \"Contracts/TTSwapV1Coin.sol\":11478:11529  e_lockCoinbyGator(msg.sender, _internalCoinAddress) */\n      tag_207\n        /* \"#utility.yul\":12458:12762   */\n      jump\n        /* \"Contracts/TTSwapV1Coin.sol\":13652:13989  function getCoinInfoFromOwnerCoinNo(... */\n    tag_94:\n        /* \"Contracts/TTSwapV1Coin.sol\":13782:13799  LCoin.Info memory */\n      tag_243\n      tag_244\n      jump\t// in\n    tag_243:\n      sub(shl(0xa0, 0x01), 0x01)\n        /* \"Contracts/TTSwapV1Coin.sol\":13832:13855  coinList[_owneraddress] */\n      dup4\n      and\n      0x00\n      swap1\n      dup2\n      mstore\n        /* \"Contracts/TTSwapV1Coin.sol\":13832:13840  coinList */\n      0x03\n        /* \"Contracts/TTSwapV1Coin.sol\":13832:13855  coinList[_owneraddress] */\n      0x20\n      mstore\n      0x40\n      swap1\n      keccak256\n        /* \"Contracts/TTSwapV1Coin.sol\":13832:13862  coinList[_owneraddress].isUsed */\n      0x06\n      add\n      sload\n      shl(0xb0, 0x01)\n      swap1\n      div\n      0xff\n      and\n        /* \"Contracts/TTSwapV1Coin.sol\":13832:13870  coinList[_owneraddress].isUsed == true */\n      iszero\n      iszero\n        /* \"Contracts/TTSwapV1Coin.sol\":13866:13870  true */\n      0x01\n        /* \"Contracts/TTSwapV1Coin.sol\":13832:13870  coinList[_owneraddress].isUsed == true */\n      eq\n        /* \"Contracts/TTSwapV1Coin.sol\":13811:13918  require(... */\n      tag_246\n      jumpi\n      mload(0x40)\n      shl(0xe5, 0x461bcd)\n      dup2\n      mstore\n      0x04\n      add\n      tag_161\n      swap1\n      tag_189\n      jump\t// in\n    tag_246:\n      pop\n      sub(shl(0xa0, 0x01), 0x01)\n        /* \"Contracts/TTSwapV1Coin.sol\":13944:13972  ownerCoinList[_owneraddress] */\n      dup1\n      dup4\n      and\n        /* \"Contracts/TTSwapV1Coin.sol\":13935:13982  coinList[ownerCoinList[_owneraddress][_coinNo]] */\n      0x00\n        /* \"Contracts/TTSwapV1Coin.sol\":13944:13972  ownerCoinList[_owneraddress] */\n      swap1\n      dup2\n      mstore\n        /* \"Contracts/TTSwapV1Coin.sol\":13944:13957  ownerCoinList */\n      0x01\n        /* \"Contracts/TTSwapV1Coin.sol\":13944:13972  ownerCoinList[_owneraddress] */\n      0x20\n      dup2\n      dup2\n      mstore\n      0x40\n      dup1\n      dup5\n      keccak256\n      sub(shl(0x80, 0x01), 0x01)\n        /* \"Contracts/TTSwapV1Coin.sol\":13944:13981  ownerCoinList[_owneraddress][_coinNo] */\n      dup8\n      and\n      dup6\n      mstore\n      dup3\n      mstore\n      dup1\n      dup5\n      keccak256\n      sload\n      dup6\n      and\n        /* \"Contracts/TTSwapV1Coin.sol\":13935:13982  coinList[ownerCoinList[_owneraddress][_coinNo]] */\n      dup5\n      mstore\n        /* \"Contracts/TTSwapV1Coin.sol\":13935:13943  coinList */\n      0x03\n        /* \"Contracts/TTSwapV1Coin.sol\":13935:13982  coinList[ownerCoinList[_owneraddress][_coinNo]] */\n      dup1\n      dup4\n      mstore\n      swap4\n      dup2\n      swap1\n      keccak256\n        /* \"Contracts/TTSwapV1Coin.sol\":13928:13982  return coinList[ownerCoinList[_owneraddress][_coinNo]] */\n      dup2\n      mload\n      0x0160\n      dup2\n      add\n      dup4\n      mstore\n      dup2\n      sload\n      dup2\n      mstore\n      swap4\n      dup2\n      add\n      sload\n      swap3\n      dup5\n      add\n      swap3\n      swap1\n      swap3\n      mstore\n      0x02\n      dup3\n      add\n      sload\n      swap1\n      dup4\n      add\n      mstore\n      swap2\n      dup3\n      add\n      sload\n      0xff\n      swap1\n      dup2\n      and\n      0x60\n      dup4\n      add\n      mstore\n      0x04\n      dup4\n      add\n      sload\n      0x80\n      dup4\n      add\n      mstore\n      0x05\n      dup4\n      add\n      sload\n      0xa0\n      dup4\n      add\n      mstore\n      0x06\n      dup4\n      add\n      sload\n      dup1\n      dup6\n      and\n      0xc0\n      dup5\n      add\n      mstore\n      shl(0xa0, 0x01)\n      dup2\n      div\n      dup3\n      and\n      iszero\n      iszero\n      0xe0\n      dup5\n      add\n      mstore\n      shl(0xa8, 0x01)\n      dup2\n      div\n      dup3\n      and\n      iszero\n      iszero\n        /* \"Contracts/TTSwapV1Coin.sol\":13944:13981  ownerCoinList[_owneraddress][_coinNo] */\n      0x0100\n        /* \"Contracts/TTSwapV1Coin.sol\":13928:13982  return coinList[ownerCoinList[_owneraddress][_coinNo]] */\n      dup5\n      add\n      mstore\n      shl(0xb0, 0x01)\n      swap1\n      div\n      and\n      iszero\n      iszero\n      0x0120\n      dup3\n      add\n      mstore\n      0x07\n      swap1\n      swap2\n      add\n      sload\n      swap1\n      swap2\n      and\n      0x0140\n      dup3\n      add\n      mstore\n        /* \"Contracts/TTSwapV1Coin.sol\":13652:13989  function getCoinInfoFromOwnerCoinNo(... */\n    tag_245:\n      swap3\n      swap2\n      pop\n      pop\n      jump\t// out\n        /* \"Contracts/TTSwapV1Coin.sol\":12963:13347  function delCoinbyGator(uint128 _coinNo) external override onlyGator {... */\n    tag_100:\n        /* \"Contracts/TTSwapV1Coin.sol\":1558:1578  gatorContractAddress */\n      sload(0x05)\n        /* \"Contracts/TTSwapV1Coin.sol\":1544:1634  IGatorV1State(gatorContractAddress).isValidGator(... */\n      mload(0x40)\n      shl(0xe1, 0x601c2149)\n      dup2\n      mstore\n        /* \"Contracts/TTSwapV1Coin.sol\":1610:1620  msg.sender */\n      caller\n        /* \"Contracts/TTSwapV1Coin.sol\":1544:1634  IGatorV1State(gatorContractAddress).isValidGator(... */\n      0x04\n      dup3\n      add\n        /* \"#utility.yul\":3811:3862   */\n      mstore\n      sub(shl(0xa0, 0x01), 0x01)\n        /* \"Contracts/TTSwapV1Coin.sol\":1558:1578  gatorContractAddress */\n      swap1\n      swap2\n      and\n      swap1\n        /* \"Contracts/TTSwapV1Coin.sol\":1544:1592  IGatorV1State(gatorContractAddress).isValidGator */\n      0xc0384292\n      swap1\n        /* \"#utility.yul\":3784:3802   */\n      0x24\n      add\n        /* \"Contracts/TTSwapV1Coin.sol\":1544:1634  IGatorV1State(gatorContractAddress).isValidGator(... */\n      0x20\n      mload(0x40)\n      dup1\n      dup4\n      sub\n      dup2\n      dup7\n      gas\n      staticcall\n      iszero\n      dup1\n      iszero\n      tag_251\n      jumpi\n      returndatasize\n      0x00\n      dup1\n      returndatacopy\n      revert(0x00, returndatasize)\n    tag_251:\n      pop\n      pop\n      pop\n      pop\n      mload(0x40)\n      returndatasize\n      not(0x1f)\n      0x1f\n      dup3\n      add\n      and\n      dup3\n      add\n      dup1\n      0x40\n      mstore\n      pop\n      dup2\n      add\n      swap1\n      tag_252\n      swap2\n      swap1\n      tag_159\n      jump\t// in\n    tag_252:\n        /* \"Contracts/TTSwapV1Coin.sol\":1536:1699  require(IGatorV1State(gatorContractAddress).isValidGator(... */\n      tag_253\n      jumpi\n      mload(0x40)\n      shl(0xe5, 0x461bcd)\n      dup2\n      mstore\n      0x04\n      add\n      tag_161\n      swap1\n      tag_162\n      jump\t// in\n    tag_253:\n        /* \"Contracts/TTSwapV1Coin.sol\":13077:13087  msg.sender */\n      caller\n        /* \"Contracts/TTSwapV1Coin.sol\":13109:13110  0 */\n      0x00\n        /* \"Contracts/TTSwapV1Coin.sol\":13063:13088  ownerCoinList[msg.sender] */\n      swap1\n      dup2\n      mstore\n        /* \"Contracts/TTSwapV1Coin.sol\":13063:13076  ownerCoinList */\n      0x01\n        /* \"Contracts/TTSwapV1Coin.sol\":13063:13088  ownerCoinList[msg.sender] */\n      0x20\n      swap1\n      dup2\n      mstore\n      0x40\n      dup1\n      dup4\n      keccak256\n      sub(shl(0x80, 0x01), 0x01)\n        /* \"Contracts/TTSwapV1Coin.sol\":13063:13097  ownerCoinList[msg.sender][_coinNo] */\n      dup6\n      and\n      dup5\n      mstore\n      swap1\n      swap2\n      mstore\n      swap1\n      keccak256\n      sload\n      sub(shl(0xa0, 0x01), 0x01)\n      and\n        /* \"Contracts/TTSwapV1Coin.sol\":13042:13159  require(... */\n      tag_256\n      jumpi\n      mload(0x40)\n      shl(0xe5, 0x461bcd)\n      dup2\n      mstore\n      0x04\n      add\n      tag_161\n      swap1\n      tag_189\n      jump\t// in\n    tag_256:\n        /* \"Contracts/TTSwapV1Coin.sol\":13189:13199  msg.sender */\n      caller\n        /* \"Contracts/TTSwapV1Coin.sol\":13177:13200  ownerCoinNo[msg.sender] */\n      0x00\n      dup2\n      dup2\n      mstore\n        /* \"Contracts/TTSwapV1Coin.sol\":13177:13188  ownerCoinNo */\n      0x02\n        /* \"Contracts/TTSwapV1Coin.sol\":13177:13200  ownerCoinNo[msg.sender] */\n      0x20\n      swap1\n      dup2\n      mstore\n      0x40\n      dup1\n      dup4\n      keccak256\n        /* \"Contracts/TTSwapV1Coin.sol\":13201:13214  ownerCoinList */\n      0x01\n        /* \"Contracts/TTSwapV1Coin.sol\":13201:13226  ownerCoinList[msg.sender] */\n      dup4\n      mstore\n      dup2\n      dup5\n      keccak256\n      sub(shl(0x80, 0x01), 0x01)\n        /* \"Contracts/TTSwapV1Coin.sol\":13201:13235  ownerCoinList[msg.sender][_coinNo] */\n      dup8\n      and\n      dup1\n      dup7\n      mstore\n      dup2\n      dup6\n      mstore\n      dup4\n      dup7\n      keccak256\n      dup1\n      sload\n      sub(shl(0xa0, 0x01), 0x01)\n      and\n        /* \"Contracts/TTSwapV1Coin.sol\":13177:13236  ownerCoinNo[msg.sender][ownerCoinList[msg.sender][_coinNo]] */\n      dup8\n      mstore\n      swap3\n      dup6\n      mstore\n      dup4\n      dup7\n      keccak256\n        /* \"Contracts/TTSwapV1Coin.sol\":13170:13236  delete ownerCoinNo[msg.sender][ownerCoinList[msg.sender][_coinNo]] */\n      dup1\n      sload\n      not(sub(shl(0x80, 0x01), 0x01))\n      and\n      swap1\n      sstore\n        /* \"Contracts/TTSwapV1Coin.sol\":13253:13287  ownerCoinList[msg.sender][_coinNo] */\n      swap5\n      dup6\n      swap1\n      mstore\n      dup4\n      mstore\n        /* \"Contracts/TTSwapV1Coin.sol\":13246:13287  delete ownerCoinList[msg.sender][_coinNo] */\n      dup1\n      sload\n      not(sub(shl(0xa0, 0x01), 0x01))\n      and\n      swap1\n      sstore\n        /* \"Contracts/TTSwapV1Coin.sol\":13303:13340  e_delCoinbyGator(msg.sender, _coinNo) */\n      dup1\n      mload\n        /* \"#utility.yul\":12941:12992   */\n      swap4\n      dup5\n      mstore\n        /* \"#utility.yul\":13008:13026   */\n      swap1\n      dup4\n      add\n        /* \"#utility.yul\":13001:13076   */\n      swap2\n      swap1\n      swap2\n      mstore\n        /* \"Contracts/TTSwapV1Coin.sol\":13303:13340  e_delCoinbyGator(msg.sender, _coinNo) */\n      0x4edb2517e4d5299dd19c1ce662d404d108ffed8f91bc76838771edae5fac7c43\n      swap2\n        /* \"#utility.yul\":12914:12932   */\n      add\n        /* \"Contracts/TTSwapV1Coin.sol\":13303:13340  e_delCoinbyGator(msg.sender, _coinNo) */\n      tag_207\n        /* \"#utility.yul\":12767:13082   */\n      jump\n        /* \"Contracts/TTSwapV1Coin.sol\":5616:6190  function updateCoinbyMarketor(... */\n    tag_113:\n        /* \"Contracts/TTSwapV1Coin.sol\":1795:1818  marketorContractAddress */\n      sload(0x06)\n        /* \"Contracts/TTSwapV1Coin.sol\":1778:1877  IMarketorV1State(marketorContractAddress).isValidMarketor(... */\n      mload(0x40)\n      shl(0xe5, 0x038c3329)\n      dup2\n      mstore\n        /* \"Contracts/TTSwapV1Coin.sol\":1853:1863  msg.sender */\n      caller\n        /* \"Contracts/TTSwapV1Coin.sol\":1778:1877  IMarketorV1State(marketorContractAddress).isValidMarketor(... */\n      0x04\n      dup3\n      add\n        /* \"#utility.yul\":3811:3862   */\n      mstore\n      sub(shl(0xa0, 0x01), 0x01)\n        /* \"Contracts/TTSwapV1Coin.sol\":1795:1818  marketorContractAddress */\n      swap1\n      swap2\n      and\n      swap1\n        /* \"Contracts/TTSwapV1Coin.sol\":1778:1835  IMarketorV1State(marketorContractAddress).isValidMarketor */\n      0x71866520\n      swap1\n        /* \"#utility.yul\":3784:3802   */\n      0x24\n      add\n        /* \"Contracts/TTSwapV1Coin.sol\":1778:1877  IMarketorV1State(marketorContractAddress).isValidMarketor(... */\n      0x20\n      mload(0x40)\n      dup1\n      dup4\n      sub\n      dup2\n      dup7\n      gas\n      staticcall\n      iszero\n      dup1\n      iszero\n      tag_263\n      jumpi\n      returndatasize\n      0x00\n      dup1\n      returndatacopy\n      revert(0x00, returndatasize)\n    tag_263:\n      pop\n      pop\n      pop\n      pop\n      mload(0x40)\n      returndatasize\n      not(0x1f)\n      0x1f\n      dup3\n      add\n      and\n      dup3\n      add\n      dup1\n      0x40\n      mstore\n      pop\n      dup2\n      add\n      swap1\n      tag_264\n      swap2\n      swap1\n      tag_159\n      jump\t// in\n    tag_264:\n        /* \"Contracts/TTSwapV1Coin.sol\":1757:1942  require(... */\n      tag_265\n      jumpi\n      mload(0x40)\n      shl(0xe5, 0x461bcd)\n      dup2\n      mstore\n      0x04\n      add\n      tag_161\n      swap1\n      tag_162\n      jump\t// in\n    tag_265:\n        /* \"Contracts/TTSwapV1Coin.sol\":5763:5786  marketorContractAddress */\n      0x06\n      dup1\n      sload\n      sub(shl(0xa0, 0x01), 0x01)\n      swap1\n      dup2\n      and\n        /* \"Contracts/TTSwapV1Coin.sol\":5834:5835  0 */\n      0x00\n        /* \"Contracts/TTSwapV1Coin.sol\":5751:5787  ownerCoinNo[marketorContractAddress] */\n      swap1\n      dup2\n      mstore\n        /* \"Contracts/TTSwapV1Coin.sol\":5751:5762  ownerCoinNo */\n      0x02\n        /* \"Contracts/TTSwapV1Coin.sol\":5751:5787  ownerCoinNo[marketorContractAddress] */\n      0x20\n      dup2\n      dup2\n      mstore\n      0x40\n      dup1\n      dup5\n      keccak256\n        /* \"Contracts/TTSwapV1Coin.sol\":5788:5813  _coinInfo.contractAddress */\n      0xc0\n      dup9\n      add\n      dup1\n      mload\n        /* \"Contracts/TTSwapV1Coin.sol\":5751:5814  ownerCoinNo[marketorContractAddress][_coinInfo.contractAddress] */\n      dup8\n      and\n      dup7\n      mstore\n      swap1\n      dup4\n      mstore\n        /* \"Contracts/TTSwapV1Coin.sol\":5930:5934  true */\n      0x01\n        /* \"Contracts/TTSwapV1Coin.sol\":5905:5927  _coinInfo.marketunlock */\n      0xe0\n      dup10\n      add\n        /* \"Contracts/TTSwapV1Coin.sol\":5905:5934  _coinInfo.marketunlock = true */\n      dup2\n      dup2\n      mstore\n        /* \"Contracts/TTSwapV1Coin.sol\":5944:5964  _coinInfo.gateunlock */\n      0x0100\n      dup11\n      add\n        /* \"Contracts/TTSwapV1Coin.sol\":5944:5972  _coinInfo.gateunlock = false */\n      dup8\n      dup2\n      mstore\n        /* \"Contracts/TTSwapV1Coin.sol\":5982:5998  _coinInfo.isUsed */\n      0x0120\n      dup12\n      add\n        /* \"Contracts/TTSwapV1Coin.sol\":5982:6005  _coinInfo.isUsed = true */\n      dup4\n      dup2\n      mstore\n        /* \"Contracts/TTSwapV1Coin.sol\":6044:6069  _coinInfo.contractAddress */\n      dup5\n      mload\n        /* \"Contracts/TTSwapV1Coin.sol\":6035:6070  coinList[_coinInfo.contractAddress] */\n      dup11\n      and\n      dup10\n      mstore\n        /* \"Contracts/TTSwapV1Coin.sol\":6035:6043  coinList */\n      0x03\n        /* \"Contracts/TTSwapV1Coin.sol\":6035:6070  coinList[_coinInfo.contractAddress] */\n      dup1\n      dup9\n      mstore\n      dup7\n      dup11\n      keccak256\n        /* \"Contracts/TTSwapV1Coin.sol\":6035:6078  coinList[_coinInfo.contractAddress].creator */\n      0x07\n      swap1\n      dup2\n      add\n      sload\n      dup13\n      and\n        /* \"Contracts/TTSwapV1Coin.sol\":6015:6032  _coinInfo.creator */\n      0x0140\n      dup16\n      add\n        /* \"Contracts/TTSwapV1Coin.sol\":6015:6078  _coinInfo.creator = coinList[_coinInfo.contractAddress].creator */\n      swap1\n      dup2\n      mstore\n        /* \"Contracts/TTSwapV1Coin.sol\":6097:6122  _coinInfo.contractAddress */\n      dup8\n      mload\n        /* \"Contracts/TTSwapV1Coin.sol\":6088:6123  coinList[_coinInfo.contractAddress] */\n      dup14\n      and\n      dup13\n      mstore\n      dup3\n      dup11\n      mstore\n      swap11\n      dup9\n      swap1\n      keccak256\n        /* \"Contracts/TTSwapV1Coin.sol\":6088:6135  coinList[_coinInfo.contractAddress] = _coinInfo */\n      dup15\n      mload\n      dup2\n      sstore\n      swap9\n      dup15\n      add\n      mload\n      swap6\n      dup10\n      add\n      swap6\n      swap1\n      swap6\n      sstore\n      dup13\n      dup8\n      add\n      mload\n      swap9\n      dup9\n      add\n      swap9\n      swap1\n      swap9\n      sstore\n      0x60\n      dup13\n      add\n      mload\n      swap8\n      dup8\n      add\n      dup1\n      sload\n      not(0xff)\n      and\n      0xff\n      swap1\n      swap10\n      and\n      swap9\n      swap1\n      swap9\n      or\n      swap1\n      swap8\n      sstore\n      0x80\n      dup12\n      add\n      mload\n      0x04\n      dup8\n      add\n      sstore\n      0xa0\n      dup12\n      add\n      mload\n      0x05\n      dup8\n      add\n      sstore\n      swap3\n      mload\n      swap9\n      dup6\n      add\n      dup1\n      sload\n      swap2\n      mload\n      swap4\n      mload\n      swap7\n      mload\n      swap10\n      dup10\n      and\n      not(sub(shl(0xa8, 0x01), 0x01))\n      swap1\n      swap3\n      and\n      swap2\n      swap1\n      swap2\n      or\n      shl(0xa0, 0x01)\n      swap4\n      iszero\n      iszero\n      swap4\n      swap1\n      swap4\n      mul\n      swap3\n      swap1\n      swap3\n      or\n      not(shl(0xa8, 0xffff))\n      and\n      shl(0xa8, 0x01)\n      swap6\n      iszero\n      iszero\n      swap6\n      swap1\n      swap6\n      mul\n      not(shl(0xb0, 0xff))\n      and\n      swap5\n      swap1\n      swap5\n      or\n      shl(0xb0, 0x01)\n      swap8\n      iszero\n      iszero\n      swap8\n      swap1\n      swap8\n      mul\n      swap7\n      swap1\n      swap7\n      or\n      swap1\n      swap6\n      sstore\n      swap2\n      mload\n      swap2\n      add\n      dup1\n      sload\n      not(sub(shl(0xa0, 0x01), 0x01))\n      and\n      swap2\n      swap1\n      swap3\n      and\n      or\n      swap1\n      sstore\n        /* \"Contracts/TTSwapV1Coin.sol\":6150:6183  e_updateCoinbyMarketor(_coinInfo) */\n      mload\n      0x7ef1a4c6cd6954cc6f68ac195814a83775046e46054eb12bf4b6619ba234f58b\n      swap1\n      tag_207\n      swap1\n        /* \"Contracts/TTSwapV1Coin.sol\":5788:5813  _coinInfo.contractAddress */\n      dup4\n      swap1\n        /* \"Contracts/TTSwapV1Coin.sol\":6150:6183  e_updateCoinbyMarketor(_coinInfo) */\n      tag_96\n      jump\t// in\n        /* \"Contracts/TTSwapV1Coin.sol\":7061:7562  function delCoinbyMarketor(... */\n    tag_116:\n        /* \"Contracts/TTSwapV1Coin.sol\":1795:1818  marketorContractAddress */\n      sload(0x06)\n        /* \"Contracts/TTSwapV1Coin.sol\":1778:1877  IMarketorV1State(marketorContractAddress).isValidMarketor(... */\n      mload(0x40)\n      shl(0xe5, 0x038c3329)\n      dup2\n      mstore\n        /* \"Contracts/TTSwapV1Coin.sol\":1853:1863  msg.sender */\n      caller\n        /* \"Contracts/TTSwapV1Coin.sol\":1778:1877  IMarketorV1State(marketorContractAddress).isValidMarketor(... */\n      0x04\n      dup3\n      add\n        /* \"#utility.yul\":3811:3862   */\n      mstore\n      sub(shl(0xa0, 0x01), 0x01)\n        /* \"Contracts/TTSwapV1Coin.sol\":1795:1818  marketorContractAddress */\n      swap1\n      swap2\n      and\n      swap1\n        /* \"Contracts/TTSwapV1Coin.sol\":1778:1835  IMarketorV1State(marketorContractAddress).isValidMarketor */\n      0x71866520\n      swap1\n        /* \"#utility.yul\":3784:3802   */\n      0x24\n      add\n        /* \"Contracts/TTSwapV1Coin.sol\":1778:1877  IMarketorV1State(marketorContractAddress).isValidMarketor(... */\n      0x20\n      mload(0x40)\n      dup1\n      dup4\n      sub\n      dup2\n      dup7\n      gas\n      staticcall\n      iszero\n      dup1\n      iszero\n      tag_275\n      jumpi\n      returndatasize\n      0x00\n      dup1\n      returndatacopy\n      revert(0x00, returndatasize)\n    tag_275:\n      pop\n      pop\n      pop\n      pop\n      mload(0x40)\n      returndatasize\n      not(0x1f)\n      0x1f\n      dup3\n      add\n      and\n      dup3\n      add\n      dup1\n      0x40\n      mstore\n      pop\n      dup2\n      add\n      swap1\n      tag_276\n      swap2\n      swap1\n      tag_159\n      jump\t// in\n    tag_276:\n        /* \"Contracts/TTSwapV1Coin.sol\":1757:1942  require(... */\n      tag_277\n      jumpi\n      mload(0x40)\n      shl(0xe5, 0x461bcd)\n      dup2\n      mstore\n      0x04\n      add\n      tag_161\n      swap1\n      tag_162\n      jump\t// in\n    tag_277:\n        /* \"Contracts/TTSwapV1Coin.sol\":7202:7225  marketorContractAddress */\n      sload(0x06)\n      sub(shl(0xa0, 0x01), 0x01)\n      swap1\n      dup2\n      and\n        /* \"Contracts/TTSwapV1Coin.sol\":7190:7226  ownerCoinNo[marketorContractAddress] */\n      0x00\n      swap1\n      dup2\n      mstore\n        /* \"Contracts/TTSwapV1Coin.sol\":7190:7201  ownerCoinNo */\n      0x02\n        /* \"Contracts/TTSwapV1Coin.sol\":7190:7226  ownerCoinNo[marketorContractAddress] */\n      0x20\n      swap1\n      dup2\n      mstore\n      0x40\n      dup1\n      dup4\n      keccak256\n        /* \"Contracts/TTSwapV1Coin.sol\":7190:7244  ownerCoinNo[marketorContractAddress][_contractaddress] */\n      swap4\n      dup6\n      and\n      dup4\n      mstore\n      swap3\n      swap1\n      mstore\n      keccak256\n      sload\n        /* \"Contracts/TTSwapV1Coin.sol\":7248:7249  1 */\n      0x01\n      sub(shl(0x80, 0x01), 0x01)\n        /* \"Contracts/TTSwapV1Coin.sol\":7190:7244  ownerCoinNo[marketorContractAddress][_contractaddress] */\n      swap1\n      swap2\n      and\n        /* \"Contracts/TTSwapV1Coin.sol\":7190:7249  ownerCoinNo[marketorContractAddress][_contractaddress] >= 1 */\n      lt\n      iszero\n        /* \"Contracts/TTSwapV1Coin.sol\":7169:7297  require(... */\n      tag_280\n      jumpi\n      mload(0x40)\n      shl(0xe5, 0x461bcd)\n      dup2\n      mstore\n      0x04\n      add\n      tag_161\n      swap1\n      tag_189\n      jump\t// in\n    tag_280:\n        /* \"Contracts/TTSwapV1Coin.sol\":7329:7352  marketorContractAddress */\n      0x06\n      dup1\n      sload\n      sub(shl(0xa0, 0x01), 0x01)\n      swap1\n      dup2\n      and\n        /* \"Contracts/TTSwapV1Coin.sol\":7315:7353  ownerCoinList[marketorContractAddress] */\n      0x00\n      swap1\n      dup2\n      mstore\n        /* \"Contracts/TTSwapV1Coin.sol\":7315:7328  ownerCoinList */\n      0x01\n        /* \"Contracts/TTSwapV1Coin.sol\":7315:7353  ownerCoinList[marketorContractAddress] */\n      0x20\n      swap1\n      dup2\n      mstore\n      0x40\n      dup1\n      dup4\n      keccak256\n        /* \"Contracts/TTSwapV1Coin.sol\":7367:7378  ownerCoinNo */\n      0x02\n        /* \"Contracts/TTSwapV1Coin.sol\":7367:7403  ownerCoinNo[marketorContractAddress] */\n      dup1\n      dup5\n      mstore\n      dup3\n      dup6\n      keccak256\n        /* \"Contracts/TTSwapV1Coin.sol\":7367:7421  ownerCoinNo[marketorContractAddress][_contractaddress] */\n      dup9\n      dup8\n      and\n      dup1\n      dup8\n      mstore\n      swap1\n      dup6\n      mstore\n      dup4\n      dup7\n      keccak256\n      sload\n      sub(shl(0x80, 0x01), 0x01)\n      and\n        /* \"Contracts/TTSwapV1Coin.sol\":7315:7431  ownerCoinList[marketorContractAddress][... */\n      dup7\n      mstore\n      swap2\n      dup5\n      mstore\n      dup3\n      dup6\n      keccak256\n        /* \"Contracts/TTSwapV1Coin.sol\":7308:7431  delete ownerCoinList[marketorContractAddress][... */\n      dup1\n      sload\n      not(sub(shl(0xa0, 0x01), 0x01))\n      and\n      swap1\n      sstore\n        /* \"Contracts/TTSwapV1Coin.sol\":7460:7483  marketorContractAddress */\n      swap6\n      sload\n      swap1\n      swap5\n      and\n        /* \"Contracts/TTSwapV1Coin.sol\":7448:7484  ownerCoinNo[marketorContractAddress] */\n      dup4\n      mstore\n      swap4\n      dup2\n      mstore\n      dup4\n      dup3\n      keccak256\n        /* \"Contracts/TTSwapV1Coin.sol\":7448:7502  ownerCoinNo[marketorContractAddress][_contractaddress] */\n      dup4\n      dup4\n      mstore\n      dup2\n      mstore\n      swap1\n      dup4\n      swap1\n      keccak256\n        /* \"Contracts/TTSwapV1Coin.sol\":7441:7502  delete ownerCoinNo[marketorContractAddress][_contractaddress] */\n      dup1\n      sload\n      not(sub(shl(0x80, 0x01), 0x01))\n      and\n      swap1\n      sstore\n        /* \"Contracts/TTSwapV1Coin.sol\":7518:7555  e_delCoinbyMarketor(_contractaddress) */\n      swap2\n      mload\n        /* \"#utility.yul\":3811:3862   */\n      swap1\n      dup2\n      mstore\n        /* \"Contracts/TTSwapV1Coin.sol\":7518:7555  e_delCoinbyMarketor(_contractaddress) */\n      0x95fb8f03172737716db3e279a3cafdb96c41b3ff1ca3cedc215a7770838c1c5b\n      swap2\n        /* \"#utility.yul\":3784:3802   */\n      add\n        /* \"Contracts/TTSwapV1Coin.sol\":7518:7555  e_delCoinbyMarketor(_contractaddress) */\n      tag_207\n        /* \"#utility.yul\":3665:3868   */\n      jump\n        /* \"Contracts/TTSwapV1Coin.sol\":12505:12957  function delCoinbyGator(... */\n    tag_119:\n        /* \"Contracts/TTSwapV1Coin.sol\":1558:1578  gatorContractAddress */\n      sload(0x05)\n        /* \"Contracts/TTSwapV1Coin.sol\":1544:1634  IGatorV1State(gatorContractAddress).isValidGator(... */\n      mload(0x40)\n      shl(0xe1, 0x601c2149)\n      dup2\n      mstore\n        /* \"Contracts/TTSwapV1Coin.sol\":1610:1620  msg.sender */\n      caller\n        /* \"Contracts/TTSwapV1Coin.sol\":1544:1634  IGatorV1State(gatorContractAddress).isValidGator(... */\n      0x04\n      dup3\n      add\n        /* \"#utility.yul\":3811:3862   */\n      mstore\n      sub(shl(0xa0, 0x01), 0x01)\n        /* \"Contracts/TTSwapV1Coin.sol\":1558:1578  gatorContractAddress */\n      swap1\n      swap2\n      and\n      swap1\n        /* \"Contracts/TTSwapV1Coin.sol\":1544:1592  IGatorV1State(gatorContractAddress).isValidGator */\n      0xc0384292\n      swap1\n        /* \"#utility.yul\":3784:3802   */\n      0x24\n      add\n        /* \"Contracts/TTSwapV1Coin.sol\":1544:1634  IGatorV1State(gatorContractAddress).isValidGator(... */\n      0x20\n      mload(0x40)\n      dup1\n      dup4\n      sub\n      dup2\n      dup7\n      gas\n      staticcall\n      iszero\n      dup1\n      iszero\n      tag_286\n      jumpi\n      returndatasize\n      0x00\n      dup1\n      returndatacopy\n      revert(0x00, returndatasize)\n    tag_286:\n      pop\n      pop\n      pop\n      pop\n      mload(0x40)\n      returndatasize\n      not(0x1f)\n      0x1f\n      dup3\n      add\n      and\n      dup3\n      add\n      dup1\n      0x40\n      mstore\n      pop\n      dup2\n      add\n      swap1\n      tag_287\n      swap2\n      swap1\n      tag_159\n      jump\t// in\n    tag_287:\n        /* \"Contracts/TTSwapV1Coin.sol\":1536:1699  require(IGatorV1State(gatorContractAddress).isValidGator(... */\n      tag_288\n      jumpi\n      mload(0x40)\n      shl(0xe5, 0x461bcd)\n      dup2\n      mstore\n      0x04\n      add\n      tag_161\n      swap1\n      tag_162\n      jump\t// in\n    tag_288:\n        /* \"Contracts/TTSwapV1Coin.sol\":12640:12650  msg.sender */\n      caller\n        /* \"Contracts/TTSwapV1Coin.sol\":12628:12651  ownerCoinNo[msg.sender] */\n      0x00\n      swap1\n      dup2\n      mstore\n        /* \"Contracts/TTSwapV1Coin.sol\":12628:12639  ownerCoinNo */\n      0x02\n        /* \"Contracts/TTSwapV1Coin.sol\":12628:12651  ownerCoinNo[msg.sender] */\n      0x20\n      swap1\n      dup2\n      mstore\n      0x40\n      dup1\n      dup4\n      keccak256\n      sub(shl(0xa0, 0x01), 0x01)\n        /* \"Contracts/TTSwapV1Coin.sol\":12628:12669  ownerCoinNo[msg.sender][_contractaddress] */\n      dup6\n      and\n      dup5\n      mstore\n      swap1\n      swap2\n      mstore\n      swap1\n      keccak256\n      sload\n        /* \"Contracts/TTSwapV1Coin.sol\":12673:12674  1 */\n      0x01\n      sub(shl(0x80, 0x01), 0x01)\n        /* \"Contracts/TTSwapV1Coin.sol\":12628:12669  ownerCoinNo[msg.sender][_contractaddress] */\n      swap1\n      swap2\n      and\n        /* \"Contracts/TTSwapV1Coin.sol\":12628:12674  ownerCoinNo[msg.sender][_contractaddress] >= 1 */\n      lt\n      iszero\n        /* \"Contracts/TTSwapV1Coin.sol\":12607:12722  require(... */\n      tag_291\n      jumpi\n      mload(0x40)\n      shl(0xe5, 0x461bcd)\n      dup2\n      mstore\n      0x04\n      add\n      tag_161\n      swap1\n      tag_189\n      jump\t// in\n    tag_291:\n        /* \"Contracts/TTSwapV1Coin.sol\":12754:12764  msg.sender */\n      caller\n        /* \"Contracts/TTSwapV1Coin.sol\":12740:12765  ownerCoinList[msg.sender] */\n      0x00\n      dup2\n      dup2\n      mstore\n        /* \"Contracts/TTSwapV1Coin.sol\":12740:12753  ownerCoinList */\n      0x01\n        /* \"Contracts/TTSwapV1Coin.sol\":12740:12765  ownerCoinList[msg.sender] */\n      0x20\n      swap1\n      dup2\n      mstore\n      0x40\n      dup1\n      dup4\n      keccak256\n        /* \"Contracts/TTSwapV1Coin.sol\":12779:12790  ownerCoinNo */\n      0x02\n        /* \"Contracts/TTSwapV1Coin.sol\":12779:12802  ownerCoinNo[msg.sender] */\n      dup4\n      mstore\n      dup2\n      dup5\n      keccak256\n      sub(shl(0xa0, 0x01), 0x01)\n        /* \"Contracts/TTSwapV1Coin.sol\":12779:12820  ownerCoinNo[msg.sender][_contractaddress] */\n      dup8\n      and\n      dup1\n      dup7\n      mstore\n      dup2\n      dup6\n      mstore\n      dup4\n      dup7\n      keccak256\n      dup1\n      sload\n      sub(shl(0x80, 0x01), 0x01)\n      and\n        /* \"Contracts/TTSwapV1Coin.sol\":12740:12830  ownerCoinList[msg.sender][... */\n      dup8\n      mstore\n      swap3\n      dup6\n      mstore\n      dup4\n      dup7\n      keccak256\n        /* \"Contracts/TTSwapV1Coin.sol\":12733:12830  delete ownerCoinList[msg.sender][... */\n      dup1\n      sload\n      not(sub(shl(0xa0, 0x01), 0x01))\n      and\n      swap1\n      sstore\n        /* \"Contracts/TTSwapV1Coin.sol\":12847:12888  ownerCoinNo[msg.sender][_contractaddress] */\n      swap5\n      dup6\n      swap1\n      mstore\n      dup4\n      mstore\n        /* \"Contracts/TTSwapV1Coin.sol\":12840:12888  delete ownerCoinNo[msg.sender][_contractaddress] */\n      dup1\n      sload\n      not(sub(shl(0x80, 0x01), 0x01))\n      and\n      swap1\n      sstore\n        /* \"Contracts/TTSwapV1Coin.sol\":12904:12950  e_delCoinbyGator(msg.sender, _contractaddress) */\n      dup1\n      mload\n        /* \"#utility.yul\":12670:12704   */\n      swap4\n      dup5\n      mstore\n        /* \"#utility.yul\":12720:12738   */\n      swap1\n      dup4\n      add\n        /* \"#utility.yul\":12713:12756   */\n      swap2\n      swap1\n      swap2\n      mstore\n        /* \"Contracts/TTSwapV1Coin.sol\":12904:12950  e_delCoinbyGator(msg.sender, _contractaddress) */\n      0xad5eeaa2ee1bef6674ecea21b9329a0a9333380eaf145a4b888951038c8aa40c\n      swap2\n        /* \"#utility.yul\":12605:12623   */\n      add\n        /* \"Contracts/TTSwapV1Coin.sol\":12904:12950  e_delCoinbyGator(msg.sender, _contractaddress) */\n      tag_207\n        /* \"#utility.yul\":12458:12762   */\n      jump\n        /* \"Contracts/TTSwapV1Coin.sol\":2668:3629  function addCoinbyMarketor(... */\n    tag_122:\n        /* \"Contracts/TTSwapV1Coin.sol\":1795:1818  marketorContractAddress */\n      sload(0x06)\n        /* \"Contracts/TTSwapV1Coin.sol\":1778:1877  IMarketorV1State(marketorContractAddress).isValidMarketor(... */\n      mload(0x40)\n      shl(0xe5, 0x038c3329)\n      dup2\n      mstore\n        /* \"Contracts/TTSwapV1Coin.sol\":1853:1863  msg.sender */\n      caller\n        /* \"Contracts/TTSwapV1Coin.sol\":1778:1877  IMarketorV1State(marketorContractAddress).isValidMarketor(... */\n      0x04\n      dup3\n      add\n        /* \"#utility.yul\":3811:3862   */\n      mstore\n      sub(shl(0xa0, 0x01), 0x01)\n        /* \"Contracts/TTSwapV1Coin.sol\":1795:1818  marketorContractAddress */\n      swap1\n      swap2\n      and\n      swap1\n        /* \"Contracts/TTSwapV1Coin.sol\":1778:1835  IMarketorV1State(marketorContractAddress).isValidMarketor */\n      0x71866520\n      swap1\n        /* \"#utility.yul\":3784:3802   */\n      0x24\n      add\n        /* \"Contracts/TTSwapV1Coin.sol\":1778:1877  IMarketorV1State(marketorContractAddress).isValidMarketor(... */\n      0x20\n      mload(0x40)\n      dup1\n      dup4\n      sub\n      dup2\n      dup7\n      gas\n      staticcall\n      iszero\n      dup1\n      iszero\n      tag_297\n      jumpi\n      returndatasize\n      0x00\n      dup1\n      returndatacopy\n      revert(0x00, returndatasize)\n    tag_297:\n      pop\n      pop\n      pop\n      pop\n      mload(0x40)\n      returndatasize\n      not(0x1f)\n      0x1f\n      dup3\n      add\n      and\n      dup3\n      add\n      dup1\n      0x40\n      mstore\n      pop\n      dup2\n      add\n      swap1\n      tag_298\n      swap2\n      swap1\n      tag_159\n      jump\t// in\n    tag_298:\n        /* \"Contracts/TTSwapV1Coin.sol\":1757:1942  require(... */\n      tag_299\n      jumpi\n      mload(0x40)\n      shl(0xe5, 0x461bcd)\n      dup2\n      mstore\n      0x04\n      add\n      tag_161\n      swap1\n      tag_162\n      jump\t// in\n    tag_299:\n        /* \"Contracts/TTSwapV1Coin.sol\":2809:2834  _coinInfo.contractAddress */\n      0xc0\n      dup2\n      add\n      mload\n      sub(shl(0xa0, 0x01), 0x01)\n        /* \"Contracts/TTSwapV1Coin.sol\":2800:2835  coinList[_coinInfo.contractAddress] */\n      and\n      0x00\n      swap1\n      dup2\n      mstore\n        /* \"Contracts/TTSwapV1Coin.sol\":2800:2808  coinList */\n      0x03\n        /* \"Contracts/TTSwapV1Coin.sol\":2800:2835  coinList[_coinInfo.contractAddress] */\n      0x20\n      mstore\n      0x40\n      swap1\n      keccak256\n        /* \"Contracts/TTSwapV1Coin.sol\":2800:2842  coinList[_coinInfo.contractAddress].isUsed */\n      0x06\n      add\n      sload\n      shl(0xb0, 0x01)\n      swap1\n      div\n      0xff\n      and\n        /* \"Contracts/TTSwapV1Coin.sol\":2800:2850  coinList[_coinInfo.contractAddress].isUsed != true */\n      iszero\n      iszero\n        /* \"Contracts/TTSwapV1Coin.sol\":2846:2850  true */\n      0x01\n        /* \"Contracts/TTSwapV1Coin.sol\":2800:2850  coinList[_coinInfo.contractAddress].isUsed != true */\n      sub\n        /* \"Contracts/TTSwapV1Coin.sol\":2779:2890  require(... */\n      tag_302\n      jumpi\n      mload(0x40)\n      shl(0xe5, 0x461bcd)\n      dup2\n      mstore\n        /* \"#utility.yul\":13692:13694   */\n      0x20\n        /* \"Contracts/TTSwapV1Coin.sol\":2779:2890  require(... */\n      0x04\n      dup3\n      add\n        /* \"#utility.yul\":13674:13695   */\n      mstore\n        /* \"#utility.yul\":13731:13733   */\n      0x0e\n        /* \"#utility.yul\":13711:13729   */\n      0x24\n      dup3\n      add\n        /* \"#utility.yul\":13704:13734   */\n      mstore\n      shl(0x92, 0x1d1a194818dbda5b88195e1a5cdd)\n        /* \"#utility.yul\":13750:13768   */\n      0x44\n      dup3\n      add\n        /* \"#utility.yul\":13743:13787   */\n      mstore\n        /* \"#utility.yul\":13804:13822   */\n      0x64\n      add\n        /* \"Contracts/TTSwapV1Coin.sol\":2779:2890  require(... */\n      tag_161\n        /* \"#utility.yul\":13490:13828   */\n      jump\n        /* \"Contracts/TTSwapV1Coin.sol\":2779:2890  require(... */\n    tag_302:\n        /* \"Contracts/TTSwapV1Coin.sol\":2920:2930  msg.sender */\n      caller\n        /* \"Contracts/TTSwapV1Coin.sol\":2900:2917  _coinInfo.creator */\n      0x0140\n      dup3\n      add\n        /* \"Contracts/TTSwapV1Coin.sol\":2900:2930  _coinInfo.creator = msg.sender */\n      mstore\n        /* \"Contracts/TTSwapV1Coin.sol\":2965:2970  false */\n      0x00\n        /* \"Contracts/TTSwapV1Coin.sol\":2940:2962  _coinInfo.marketunlock */\n      0xe0\n      dup3\n      add\n        /* \"Contracts/TTSwapV1Coin.sol\":2940:2970  _coinInfo.marketunlock = false */\n      dup2\n      swap1\n      mstore\n      0x01\n        /* \"Contracts/TTSwapV1Coin.sol\":2980:3000  _coinInfo.gateunlock */\n      0x0100\n      dup4\n      add\n        /* \"Contracts/TTSwapV1Coin.sol\":2980:3007  _coinInfo.gateunlock = true */\n      dup2\n      swap1\n      mstore\n        /* \"Contracts/TTSwapV1Coin.sol\":3017:3033  _coinInfo.isUsed */\n      0x0120\n      dup4\n      add\n        /* \"Contracts/TTSwapV1Coin.sol\":3017:3040  _coinInfo.isUsed = true */\n      dup2\n      swap1\n      mstore\n        /* \"Contracts/TTSwapV1Coin.sol\":3081:3104  marketorContractAddress */\n      and(sub(shl(0xa0, 0x01), 0x01), sload(0x06))\n        /* \"Contracts/TTSwapV1Coin.sol\":3071:3105  coinMaxNo[marketorContractAddress] */\n      dup3\n      mstore\n      0x20\n      dup3\n      swap1\n      mstore\n      0x40\n      swap1\n      swap2\n      keccak256\n      sload\n      sub(shl(0x80, 0x01), 0x01)\n      and\n      swap1\n        /* \"Contracts/TTSwapV1Coin.sol\":3119:3134  coin_MaxNo >= 1 */\n      dup2\n      lt\n      dup1\n      iszero\n      swap1\n        /* \"Contracts/TTSwapV1Coin.sol\":3119:3166  coin_MaxNo >= 1 && coin_MaxNo + 1 >= coin_MaxNo */\n      tag_305\n      jumpi\n      pop\n      sub(shl(0x80, 0x01), 0x01)\n        /* \"Contracts/TTSwapV1Coin.sol\":3138:3166  coin_MaxNo + 1 >= coin_MaxNo */\n      dup2\n      and\n        /* \"Contracts/TTSwapV1Coin.sol\":3138:3152  coin_MaxNo + 1 */\n      tag_306\n        /* \"Contracts/TTSwapV1Coin.sol\":3156:3166  coin_MaxNo */\n      dup3\n        /* \"Contracts/TTSwapV1Coin.sol\":3151:3152  1 */\n      0x01\n        /* \"Contracts/TTSwapV1Coin.sol\":3138:3152  coin_MaxNo + 1 */\n      tag_169\n      jump\t// in\n    tag_306:\n      sub(shl(0x80, 0x01), 0x01)\n        /* \"Contracts/TTSwapV1Coin.sol\":3138:3166  coin_MaxNo + 1 >= coin_MaxNo */\n      and\n      lt\n      iszero\n        /* \"Contracts/TTSwapV1Coin.sol\":3119:3166  coin_MaxNo >= 1 && coin_MaxNo + 1 >= coin_MaxNo */\n    tag_305:\n        /* \"Contracts/TTSwapV1Coin.sol\":3115:3253  if (coin_MaxNo >= 1 && coin_MaxNo + 1 >= coin_MaxNo) {... */\n      iszero\n      tag_307\n      jumpi\n        /* \"Contracts/TTSwapV1Coin.sol\":3182:3197  coin_MaxNo += 1 */\n      tag_308\n        /* \"Contracts/TTSwapV1Coin.sol\":3196:3197  1 */\n      0x01\n        /* \"Contracts/TTSwapV1Coin.sol\":3182:3197  coin_MaxNo += 1 */\n      dup3\n      tag_169\n      jump\t// in\n    tag_308:\n      swap1\n      pop\n        /* \"Contracts/TTSwapV1Coin.sol\":3115:3253  if (coin_MaxNo >= 1 && coin_MaxNo + 1 >= coin_MaxNo) {... */\n      jump(tag_309)\n    tag_307:\n      pop\n        /* \"Contracts/TTSwapV1Coin.sol\":3241:3242  1 */\n      0x01\n        /* \"Contracts/TTSwapV1Coin.sol\":3115:3253  if (coin_MaxNo >= 1 && coin_MaxNo + 1 >= coin_MaxNo) {... */\n    tag_309:\n        /* \"Contracts/TTSwapV1Coin.sol\":3272:3295  marketorContractAddress */\n      0x06\n      dup1\n      sload\n      sub(shl(0xa0, 0x01), 0x01)\n      swap1\n      dup2\n      and\n        /* \"Contracts/TTSwapV1Coin.sol\":3262:3271  coinMaxNo */\n      0x00\n        /* \"Contracts/TTSwapV1Coin.sol\":3262:3296  coinMaxNo[marketorContractAddress] */\n      swap1\n      dup2\n      mstore\n      0x20\n      dup2\n      dup2\n      mstore\n      0x40\n      dup1\n      dup4\n      keccak256\n        /* \"Contracts/TTSwapV1Coin.sol\":3262:3309  coinMaxNo[marketorContractAddress] = coin_MaxNo */\n      dup1\n      sload\n      sub(shl(0x80, 0x01), 0x01)\n      dup9\n      and\n      not(sub(shl(0x80, 0x01), 0x01))\n      swap2\n      dup3\n      and\n      dup2\n      or\n      swap1\n      swap3\n      sstore\n        /* \"Contracts/TTSwapV1Coin.sol\":3373:3411  _coinInfo... */\n      0xc0\n      dup10\n      add\n      dup1\n      mload\n        /* \"Contracts/TTSwapV1Coin.sol\":3334:3357  marketorContractAddress */\n      dup9\n      sload\n      dup9\n      and\n        /* \"Contracts/TTSwapV1Coin.sol\":3320:3358  ownerCoinList[marketorContractAddress] */\n      dup8\n      mstore\n        /* \"Contracts/TTSwapV1Coin.sol\":3272:3295  marketorContractAddress */\n      0x01\n        /* \"Contracts/TTSwapV1Coin.sol\":3320:3358  ownerCoinList[marketorContractAddress] */\n      dup1\n      dup8\n      mstore\n      dup6\n      dup9\n      keccak256\n        /* \"Contracts/TTSwapV1Coin.sol\":3320:3370  ownerCoinList[marketorContractAddress][coin_MaxNo] */\n      dup6\n      dup10\n      mstore\n      dup8\n      mstore\n      dup6\n      dup9\n      keccak256\n        /* \"Contracts/TTSwapV1Coin.sol\":3320:3411  ownerCoinList[marketorContractAddress][coin_MaxNo] = _coinInfo... */\n      dup1\n      sload\n      swap3\n      dup11\n      and\n      not(sub(shl(0xa0, 0x01), 0x01))\n      swap4\n      dup5\n      and\n      or\n      swap1\n      sstore\n        /* \"Contracts/TTSwapV1Coin.sol\":3433:3456  marketorContractAddress */\n      dup10\n      sload\n      dup10\n      and\n        /* \"Contracts/TTSwapV1Coin.sol\":3421:3457  ownerCoinNo[marketorContractAddress] */\n      dup9\n      mstore\n        /* \"Contracts/TTSwapV1Coin.sol\":3421:3432  ownerCoinNo */\n      0x02\n        /* \"Contracts/TTSwapV1Coin.sol\":3421:3457  ownerCoinNo[marketorContractAddress] */\n      dup1\n      dup9\n      mstore\n      dup7\n      dup10\n      keccak256\n        /* \"Contracts/TTSwapV1Coin.sol\":3471:3496  _coinInfo.contractAddress */\n      dup5\n      mload\n        /* \"Contracts/TTSwapV1Coin.sol\":3421:3506  ownerCoinNo[marketorContractAddress][... */\n      dup12\n      and\n      dup11\n      mstore\n      dup9\n      mstore\n      dup7\n      dup10\n      keccak256\n        /* \"Contracts/TTSwapV1Coin.sol\":3421:3519  ownerCoinNo[marketorContractAddress][... */\n      dup1\n      sload\n      swap1\n      swap6\n      and\n      swap1\n      swap6\n      or\n      swap1\n      swap4\n      sstore\n        /* \"Contracts/TTSwapV1Coin.sol\":3539:3564  _coinInfo.contractAddress */\n      dup2\n      mload\n        /* \"Contracts/TTSwapV1Coin.sol\":3530:3565  coinList[_coinInfo.contractAddress] */\n      dup9\n      and\n      dup8\n      mstore\n        /* \"Contracts/TTSwapV1Coin.sol\":3530:3538  coinList */\n      0x03\n        /* \"Contracts/TTSwapV1Coin.sol\":3530:3565  coinList[_coinInfo.contractAddress] */\n      dup1\n      dup8\n      mstore\n      swap7\n      dup6\n      swap1\n      keccak256\n        /* \"Contracts/TTSwapV1Coin.sol\":3530:3577  coinList[_coinInfo.contractAddress] = _coinInfo */\n      dup12\n      mload\n      dup2\n      sstore\n      swap6\n      dup12\n      add\n      mload\n      swap3\n      dup7\n      add\n      swap3\n      swap1\n      swap3\n      sstore\n      dup10\n      dup5\n      add\n      mload\n      swap3\n      dup6\n      add\n      swap3\n      swap1\n      swap3\n      sstore\n      0x60\n      dup10\n      add\n      mload\n      swap5\n      dup5\n      add\n      dup1\n      sload\n      0xff\n      swap1\n      swap7\n      and\n      not(0xff)\n      swap1\n      swap7\n      and\n      swap6\n      swap1\n      swap6\n      or\n      swap1\n      swap5\n      sstore\n      0x80\n      dup9\n      add\n      mload\n      0x04\n      dup5\n      add\n      sstore\n      0xa0\n      dup9\n      add\n      mload\n      0x05\n      dup5\n      add\n      sstore\n      mload\n      swap5\n      dup3\n      add\n      dup1\n      sload\n      0xe0\n      dup10\n      add\n      mload\n        /* \"Contracts/TTSwapV1Coin.sol\":3272:3295  marketorContractAddress */\n      0x0100\n        /* \"Contracts/TTSwapV1Coin.sol\":3530:3577  coinList[_coinInfo.contractAddress] = _coinInfo */\n      dup11\n      add\n      mload\n      0x0120\n      dup12\n      add\n      mload\n      iszero\n      iszero\n      shl(0xb0, 0x01)\n      mul\n      not(shl(0xb0, 0xff))\n      swap2\n      iszero\n      iszero\n      shl(0xa8, 0x01)\n      mul\n      swap2\n      swap1\n      swap2\n      and\n      not(shl(0xa8, 0xffff))\n      swap3\n      iszero\n      iszero\n      shl(0xa0, 0x01)\n      mul\n      not(sub(shl(0xa8, 0x01), 0x01))\n      swap1\n      swap5\n      and\n      swap10\n      dup10\n      and\n      swap10\n      swap1\n      swap10\n      or\n      swap3\n      swap1\n      swap3\n      or\n      and\n      swap7\n      swap1\n      swap7\n      or\n      swap6\n      swap1\n      swap6\n      or\n      swap1\n      swap5\n      sstore\n      0x0140\n      dup7\n      add\n      mload\n      0x07\n      swap1\n      swap2\n      add\n      dup1\n      sload\n      swap2\n      swap1\n      swap4\n      and\n      swap2\n      and\n      or\n      swap1\n      sstore\n        /* \"Contracts/TTSwapV1Coin.sol\":3592:3622  e_addCoinbyMarketor(_coinInfo) */\n      mload\n      0x3fdeabf9cf0f252033e117e3bf501c16a9e905759535453a989a37bbb55557cb\n      swap1\n      tag_178\n      swap1\n        /* \"Contracts/TTSwapV1Coin.sol\":3373:3382  _coinInfo */\n      dup5\n      swap1\n        /* \"Contracts/TTSwapV1Coin.sol\":3592:3622  e_addCoinbyMarketor(_coinInfo) */\n      tag_96\n      jump\t// in\n        /* \"Contracts/TTSwapV1Coin.sol\":5193:5397  function lockCoinbyMarketor(... */\n    tag_125:\n        /* \"Contracts/TTSwapV1Coin.sol\":1795:1818  marketorContractAddress */\n      sload(0x06)\n        /* \"Contracts/TTSwapV1Coin.sol\":1778:1877  IMarketorV1State(marketorContractAddress).isValidMarketor(... */\n      mload(0x40)\n      shl(0xe5, 0x038c3329)\n      dup2\n      mstore\n        /* \"Contracts/TTSwapV1Coin.sol\":1853:1863  msg.sender */\n      caller\n        /* \"Contracts/TTSwapV1Coin.sol\":1778:1877  IMarketorV1State(marketorContractAddress).isValidMarketor(... */\n      0x04\n      dup3\n      add\n        /* \"#utility.yul\":3811:3862   */\n      mstore\n      sub(shl(0xa0, 0x01), 0x01)\n        /* \"Contracts/TTSwapV1Coin.sol\":1795:1818  marketorContractAddress */\n      swap1\n      swap2\n      and\n      swap1\n        /* \"Contracts/TTSwapV1Coin.sol\":1778:1835  IMarketorV1State(marketorContractAddress).isValidMarketor */\n      0x71866520\n      swap1\n        /* \"#utility.yul\":3784:3802   */\n      0x24\n      add\n        /* \"Contracts/TTSwapV1Coin.sol\":1778:1877  IMarketorV1State(marketorContractAddress).isValidMarketor(... */\n      0x20\n      mload(0x40)\n      dup1\n      dup4\n      sub\n      dup2\n      dup7\n      gas\n      staticcall\n      iszero\n      dup1\n      iszero\n      tag_314\n      jumpi\n      returndatasize\n      0x00\n      dup1\n      returndatacopy\n      revert(0x00, returndatasize)\n    tag_314:\n      pop\n      pop\n      pop\n      pop\n      mload(0x40)\n      returndatasize\n      not(0x1f)\n      0x1f\n      dup3\n      add\n      and\n      dup3\n      add\n      dup1\n      0x40\n      mstore\n      pop\n      dup2\n      add\n      swap1\n      tag_315\n      swap2\n      swap1\n      tag_159\n      jump\t// in\n    tag_315:\n        /* \"Contracts/TTSwapV1Coin.sol\":1757:1942  require(... */\n      tag_316\n      jumpi\n      mload(0x40)\n      shl(0xe5, 0x461bcd)\n      dup2\n      mstore\n      0x04\n      add\n      tag_161\n      swap1\n      tag_162\n      jump\t// in\n    tag_316:\n      sub(shl(0xa0, 0x01), 0x01)\n        /* \"Contracts/TTSwapV1Coin.sol\":5298:5320  coinList[_CoinAddress] */\n      dup2\n      and\n        /* \"Contracts/TTSwapV1Coin.sol\":5336:5341  false */\n      0x00\n        /* \"Contracts/TTSwapV1Coin.sol\":5298:5320  coinList[_CoinAddress] */\n      dup2\n      dup2\n      mstore\n        /* \"Contracts/TTSwapV1Coin.sol\":5298:5306  coinList */\n      0x03\n        /* \"Contracts/TTSwapV1Coin.sol\":5298:5320  coinList[_CoinAddress] */\n      0x20\n      swap1\n      dup2\n      mstore\n      0x40\n      swap2\n      dup3\n      swap1\n      keccak256\n        /* \"Contracts/TTSwapV1Coin.sol\":5298:5333  coinList[_CoinAddress].marketunlock */\n      0x06\n      add\n        /* \"Contracts/TTSwapV1Coin.sol\":5298:5341  coinList[_CoinAddress].marketunlock = false */\n      dup1\n      sload\n      not(shl(0xa0, 0xff))\n      and\n      swap1\n      sstore\n        /* \"Contracts/TTSwapV1Coin.sol\":5356:5390  e_lockCoinbyMarketor(_CoinAddress) */\n      swap1\n      mload\n        /* \"#utility.yul\":3811:3862   */\n      swap2\n      dup3\n      mstore\n        /* \"Contracts/TTSwapV1Coin.sol\":5356:5390  e_lockCoinbyMarketor(_CoinAddress) */\n      0x1d4523355c952f926d43eb41085d74f46339403039ec5258081efa96ea26edd7\n      swap2\n        /* \"#utility.yul\":3784:3802   */\n      add\n        /* \"Contracts/TTSwapV1Coin.sol\":5356:5390  e_lockCoinbyMarketor(_CoinAddress) */\n      tag_207\n        /* \"#utility.yul\":3665:3868   */\n      jump\n        /* \"Contracts/TTSwapV1Coin.sol\":2094:2421  function setCoinEnv(... */\n    tag_129:\n        /* \"Contracts/TTSwapV1Coin.sol\":2013:2026  marketCreator */\n      and(sub(shl(0xa0, 0x01), 0x01), sload(0x07))\n        /* \"Contracts/TTSwapV1Coin.sol\":2030:2040  msg.sender */\n      caller\n        /* \"Contracts/TTSwapV1Coin.sol\":2013:2040  marketCreator == msg.sender */\n      eq\n        /* \"Contracts/TTSwapV1Coin.sol\":2005:2070  require(marketCreator == msg.sender, \"you are not marketcreater\") */\n      tag_321\n      jumpi\n      mload(0x40)\n      shl(0xe5, 0x461bcd)\n      dup2\n      mstore\n        /* \"#utility.yul\":14035:14037   */\n      0x20\n        /* \"Contracts/TTSwapV1Coin.sol\":2005:2070  require(marketCreator == msg.sender, \"you are not marketcreater\") */\n      0x04\n      dup3\n      add\n        /* \"#utility.yul\":14017:14038   */\n      mstore\n        /* \"#utility.yul\":14074:14076   */\n      0x19\n        /* \"#utility.yul\":14054:14072   */\n      0x24\n      dup3\n      add\n        /* \"#utility.yul\":14047:14077   */\n      mstore\n        /* \"#utility.yul\":14113:14140   */\n      0x796f7520617265206e6f74206d61726b65746372656174657200000000000000\n        /* \"#utility.yul\":14093:14111   */\n      0x44\n      dup3\n      add\n        /* \"#utility.yul\":14086:14141   */\n      mstore\n        /* \"#utility.yul\":14158:14176   */\n      0x64\n      add\n        /* \"Contracts/TTSwapV1Coin.sol\":2005:2070  require(marketCreator == msg.sender, \"you are not marketcreater\") */\n      tag_161\n        /* \"#utility.yul\":13833:14182   */\n      jump\n        /* \"Contracts/TTSwapV1Coin.sol\":2005:2070  require(marketCreator == msg.sender, \"you are not marketcreater\") */\n    tag_321:\n        /* \"Contracts/TTSwapV1Coin.sol\":2270:2293  marketorContractAddress */\n      0x06\n        /* \"Contracts/TTSwapV1Coin.sol\":2270:2320  marketorContractAddress = _marketorContractAddress */\n      dup1\n      sload\n      sub(shl(0xa0, 0x01), 0x01)\n      swap5\n      dup6\n      and\n      not(sub(shl(0xa0, 0x01), 0x01))\n      swap2\n      dup3\n      and\n      or\n      swap1\n      swap2\n      sstore\n        /* \"Contracts/TTSwapV1Coin.sol\":2330:2350  gatorContractAddress */\n      0x05\n        /* \"Contracts/TTSwapV1Coin.sol\":2330:2374  gatorContractAddress = _gatorContractAddress */\n      dup1\n      sload\n      swap4\n      dup6\n      and\n      swap4\n      dup3\n      and\n      swap4\n      swap1\n      swap4\n      or\n      swap1\n      swap3\n      sstore\n        /* \"Contracts/TTSwapV1Coin.sol\":2384:2397  marketCreator */\n      0x07\n        /* \"Contracts/TTSwapV1Coin.sol\":2384:2414  marketCreator = _marketCreator */\n      dup1\n      sload\n      swap2\n      swap1\n      swap4\n      and\n      swap2\n      and\n      or\n      swap1\n      sstore\n        /* \"Contracts/TTSwapV1Coin.sol\":2094:2421  function setCoinEnv(... */\n      jump\t// out\n        /* \"Contracts/TTSwapV1Coin.sol\":11542:12499  function updateCoinbyGator(... */\n    tag_133:\n        /* \"Contracts/TTSwapV1Coin.sol\":1558:1578  gatorContractAddress */\n      sload(0x05)\n        /* \"Contracts/TTSwapV1Coin.sol\":1544:1634  IGatorV1State(gatorContractAddress).isValidGator(... */\n      mload(0x40)\n      shl(0xe1, 0x601c2149)\n      dup2\n      mstore\n        /* \"Contracts/TTSwapV1Coin.sol\":1610:1620  msg.sender */\n      caller\n        /* \"Contracts/TTSwapV1Coin.sol\":1544:1634  IGatorV1State(gatorContractAddress).isValidGator(... */\n      0x04\n      dup3\n      add\n        /* \"#utility.yul\":3811:3862   */\n      mstore\n      sub(shl(0xa0, 0x01), 0x01)\n        /* \"Contracts/TTSwapV1Coin.sol\":1558:1578  gatorContractAddress */\n      swap1\n      swap2\n      and\n      swap1\n        /* \"Contracts/TTSwapV1Coin.sol\":1544:1592  IGatorV1State(gatorContractAddress).isValidGator */\n      0xc0384292\n      swap1\n        /* \"#utility.yul\":3784:3802   */\n      0x24\n      add\n        /* \"Contracts/TTSwapV1Coin.sol\":1544:1634  IGatorV1State(gatorContractAddress).isValidGator(... */\n      0x20\n      mload(0x40)\n      dup1\n      dup4\n      sub\n      dup2\n      dup7\n      gas\n      staticcall\n      iszero\n      dup1\n      iszero\n      tag_328\n      jumpi\n      returndatasize\n      0x00\n      dup1\n      returndatacopy\n      revert(0x00, returndatasize)\n    tag_328:\n      pop\n      pop\n      pop\n      pop\n      mload(0x40)\n      returndatasize\n      not(0x1f)\n      0x1f\n      dup3\n      add\n      and\n      dup3\n      add\n      dup1\n      0x40\n      mstore\n      pop\n      dup2\n      add\n      swap1\n      tag_329\n      swap2\n      swap1\n      tag_159\n      jump\t// in\n    tag_329:\n        /* \"Contracts/TTSwapV1Coin.sol\":1536:1699  require(IGatorV1State(gatorContractAddress).isValidGator(... */\n      tag_330\n      jumpi\n      mload(0x40)\n      shl(0xe5, 0x461bcd)\n      dup2\n      mstore\n      0x04\n      add\n      tag_161\n      swap1\n      tag_162\n      jump\t// in\n    tag_330:\n      sub(shl(0xa0, 0x01), 0x01)\n        /* \"Contracts/TTSwapV1Coin.sol\":11926:11951  coinList[contractAddress] */\n      dup2\n      dup2\n      and\n      0x00\n      swap1\n      dup2\n      mstore\n        /* \"Contracts/TTSwapV1Coin.sol\":11926:11934  coinList */\n      0x03\n        /* \"Contracts/TTSwapV1Coin.sol\":11926:11951  coinList[contractAddress] */\n      0x20\n      mstore\n      0x40\n      swap1\n      keccak256\n        /* \"Contracts/TTSwapV1Coin.sol\":11926:11959  coinList[contractAddress].creator */\n      0x07\n      add\n      sload\n      and\n        /* \"Contracts/TTSwapV1Coin.sol\":11963:11973  msg.sender */\n      caller\n        /* \"Contracts/TTSwapV1Coin.sol\":11926:11973  coinList[contractAddress].creator == msg.sender */\n      eq\n        /* \"Contracts/TTSwapV1Coin.sol\":11905:12021  require(... */\n      tag_333\n      jumpi\n      mload(0x40)\n      shl(0xe5, 0x461bcd)\n      dup2\n      mstore\n      0x04\n      add\n      tag_161\n      swap1\n      tag_228\n      jump\t// in\n    tag_333:\n      sub(shl(0xa0, 0x01), 0x01)\n        /* \"Contracts/TTSwapV1Coin.sol\":12031:12056  coinList[contractAddress] */\n      dup2\n      and\n      0x00\n      swap1\n      dup2\n      mstore\n        /* \"Contracts/TTSwapV1Coin.sol\":12031:12039  coinList */\n      0x03\n        /* \"Contracts/TTSwapV1Coin.sol\":12031:12056  coinList[contractAddress] */\n      0x20\n      dup2\n      swap1\n      mstore\n      0x40\n      swap2\n      dup3\n      swap1\n      keccak256\n        /* \"Contracts/TTSwapV1Coin.sol\":12031:12084  coinList[contractAddress].coinFullName = coinFullName */\n      dup10\n      dup2\n      sstore\n        /* \"Contracts/TTSwapV1Coin.sol\":12094:12126  coinList[contractAddress].symbol */\n      0x01\n      dup2\n      add\n        /* \"Contracts/TTSwapV1Coin.sol\":12094:12135  coinList[contractAddress].symbol = symbol */\n      dup10\n      swap1\n      sstore\n        /* \"Contracts/TTSwapV1Coin.sol\":12145:12179  coinList[contractAddress].typecode */\n      0x02\n      dup2\n      add\n        /* \"Contracts/TTSwapV1Coin.sol\":12145:12190  coinList[contractAddress].typecode = typecode */\n      dup9\n      swap1\n      sstore\n        /* \"Contracts/TTSwapV1Coin.sol\":12200:12234  coinList[contractAddress].decimals */\n      swap1\n      dup2\n      add\n        /* \"Contracts/TTSwapV1Coin.sol\":12200:12245  coinList[contractAddress].decimals = decimals */\n      dup1\n      sload\n      not(0xff)\n      and\n      0xff\n      dup9\n      and\n      or\n      swap1\n      sstore\n        /* \"Contracts/TTSwapV1Coin.sol\":12255:12290  coinList[contractAddress].maxSupply */\n      0x04\n      dup2\n      add\n        /* \"Contracts/TTSwapV1Coin.sol\":12255:12302  coinList[contractAddress].maxSupply = maxSupply */\n      dup6\n      swap1\n      sstore\n        /* \"Contracts/TTSwapV1Coin.sol\":12367:12404  coinList[contractAddress].totalSupply */\n      0x05\n      dup2\n      add\n        /* \"Contracts/TTSwapV1Coin.sol\":12367:12418  coinList[contractAddress].totalSupply = totalSupply */\n      dup5\n      swap1\n      sstore\n        /* \"Contracts/TTSwapV1Coin.sol\":12434:12492  e_updateCoinbyGator(msg.sender, coinList[contractAddress]) */\n      swap1\n      mload\n      0xe2cf3d7794282be7dd508f8c88ca5394f0abe2b9f09b848306b1eadd0becdf94\n      swap2\n      tag_335\n      swap2\n        /* \"Contracts/TTSwapV1Coin.sol\":12454:12464  msg.sender */\n      caller\n      swap2\n        /* \"Contracts/TTSwapV1Coin.sol\":12031:12056  coinList[contractAddress] */\n      swap1\n        /* \"Contracts/TTSwapV1Coin.sol\":12434:12492  e_updateCoinbyGator(msg.sender, coinList[contractAddress]) */\n      tag_336\n      jump\t// in\n    tag_335:\n      mload(0x40)\n      dup1\n      swap2\n      sub\n      swap1\n      log1\n        /* \"Contracts/TTSwapV1Coin.sol\":11542:12499  function updateCoinbyGator(... */\n      pop\n      pop\n      pop\n      pop\n      pop\n      pop\n      pop\n      jump\t// out\n        /* \"Contracts/TTSwapV1Coin.sol\":9096:9513  function addCoinDetailInfobyGator(... */\n    tag_136:\n        /* \"Contracts/TTSwapV1Coin.sol\":1558:1578  gatorContractAddress */\n      sload(0x05)\n        /* \"Contracts/TTSwapV1Coin.sol\":1544:1634  IGatorV1State(gatorContractAddress).isValidGator(... */\n      mload(0x40)\n      shl(0xe1, 0x601c2149)\n      dup2\n      mstore\n        /* \"Contracts/TTSwapV1Coin.sol\":1610:1620  msg.sender */\n      caller\n        /* \"Contracts/TTSwapV1Coin.sol\":1544:1634  IGatorV1State(gatorContractAddress).isValidGator(... */\n      0x04\n      dup3\n      add\n        /* \"#utility.yul\":3811:3862   */\n      mstore\n      sub(shl(0xa0, 0x01), 0x01)\n        /* \"Contracts/TTSwapV1Coin.sol\":1558:1578  gatorContractAddress */\n      swap1\n      swap2\n      and\n      swap1\n        /* \"Contracts/TTSwapV1Coin.sol\":1544:1592  IGatorV1State(gatorContractAddress).isValidGator */\n      0xc0384292\n      swap1\n        /* \"#utility.yul\":3784:3802   */\n      0x24\n      add\n        /* \"Contracts/TTSwapV1Coin.sol\":1544:1634  IGatorV1State(gatorContractAddress).isValidGator(... */\n      0x20\n      mload(0x40)\n      dup1\n      dup4\n      sub\n      dup2\n      dup7\n      gas\n      staticcall\n      iszero\n      dup1\n      iszero\n      tag_340\n      jumpi\n      returndatasize\n      0x00\n      dup1\n      returndatacopy\n      revert(0x00, returndatasize)\n    tag_340:\n      pop\n      pop\n      pop\n      pop\n      mload(0x40)\n      returndatasize\n      not(0x1f)\n      0x1f\n      dup3\n      add\n      and\n      dup3\n      add\n      dup1\n      0x40\n      mstore\n      pop\n      dup2\n      add\n      swap1\n      tag_341\n      swap2\n      swap1\n      tag_159\n      jump\t// in\n    tag_341:\n        /* \"Contracts/TTSwapV1Coin.sol\":1536:1699  require(IGatorV1State(gatorContractAddress).isValidGator(... */\n      tag_342\n      jumpi\n      mload(0x40)\n      shl(0xe5, 0x461bcd)\n      dup2\n      mstore\n      0x04\n      add\n      tag_161\n      swap1\n      tag_162\n      jump\t// in\n    tag_342:\n        /* \"Contracts/TTSwapV1Coin.sol\":9253:9284  _coinDetailInfo.contractAddress */\n      dup1\n      mload\n      sub(shl(0xa0, 0x01), 0x01)\n        /* \"Contracts/TTSwapV1Coin.sol\":9244:9285  coinList[_coinDetailInfo.contractAddress] */\n      swap1\n      dup2\n      and\n      0x00\n      swap1\n      dup2\n      mstore\n        /* \"Contracts/TTSwapV1Coin.sol\":9244:9252  coinList */\n      0x03\n        /* \"Contracts/TTSwapV1Coin.sol\":9244:9285  coinList[_coinDetailInfo.contractAddress] */\n      0x20\n      mstore\n      0x40\n      swap1\n      keccak256\n        /* \"Contracts/TTSwapV1Coin.sol\":9244:9293  coinList[_coinDetailInfo.contractAddress].creator */\n      0x07\n      add\n      sload\n      and\n        /* \"Contracts/TTSwapV1Coin.sol\":9297:9307  msg.sender */\n      caller\n        /* \"Contracts/TTSwapV1Coin.sol\":9244:9307  coinList[_coinDetailInfo.contractAddress].creator == msg.sender */\n      eq\n        /* \"Contracts/TTSwapV1Coin.sol\":9223:9361  require(... */\n      tag_204\n      jumpi\n      mload(0x40)\n      shl(0xe5, 0x461bcd)\n      dup2\n      mstore\n        /* \"#utility.yul\":11243:11245   */\n      0x20\n        /* \"Contracts/TTSwapV1Coin.sol\":9223:9361  require(... */\n      0x04\n      dup3\n      add\n        /* \"#utility.yul\":11225:11246   */\n      mstore\n        /* \"#utility.yul\":11282:11284   */\n      0x1c\n        /* \"#utility.yul\":11262:11280   */\n      0x24\n      dup3\n      add\n        /* \"#utility.yul\":11255:11285   */\n      mstore\n        /* \"#utility.yul\":11321:11351   */\n      0x796f75206973206e6f7420746865207468696e67206372656174657200000000\n        /* \"#utility.yul\":11301:11319   */\n      0x44\n      dup3\n      add\n        /* \"#utility.yul\":11294:11352   */\n      mstore\n        /* \"#utility.yul\":11369:11387   */\n      0x64\n      add\n        /* \"Contracts/TTSwapV1Coin.sol\":9223:9361  require(... */\n      tag_161\n        /* \"#utility.yul\":11041:11393   */\n      jump\n        /* \"Contracts/TTSwapV1Coin.sol\":8160:9090  function addCoinbyGator(... */\n    tag_139:\n        /* \"Contracts/TTSwapV1Coin.sol\":1558:1578  gatorContractAddress */\n      sload(0x05)\n        /* \"Contracts/TTSwapV1Coin.sol\":1544:1634  IGatorV1State(gatorContractAddress).isValidGator(... */\n      mload(0x40)\n      shl(0xe1, 0x601c2149)\n      dup2\n      mstore\n        /* \"Contracts/TTSwapV1Coin.sol\":1610:1620  msg.sender */\n      caller\n        /* \"Contracts/TTSwapV1Coin.sol\":1544:1634  IGatorV1State(gatorContractAddress).isValidGator(... */\n      0x04\n      dup3\n      add\n        /* \"#utility.yul\":3811:3862   */\n      mstore\n      sub(shl(0xa0, 0x01), 0x01)\n        /* \"Contracts/TTSwapV1Coin.sol\":1558:1578  gatorContractAddress */\n      swap1\n      swap2\n      and\n      swap1\n        /* \"Contracts/TTSwapV1Coin.sol\":1544:1592  IGatorV1State(gatorContractAddress).isValidGator */\n      0xc0384292\n      swap1\n        /* \"#utility.yul\":3784:3802   */\n      0x24\n      add\n        /* \"Contracts/TTSwapV1Coin.sol\":1544:1634  IGatorV1State(gatorContractAddress).isValidGator(... */\n      0x20\n      mload(0x40)\n      dup1\n      dup4\n      sub\n      dup2\n      dup7\n      gas\n      staticcall\n      iszero\n      dup1\n      iszero\n      tag_351\n      jumpi\n      returndatasize\n      0x00\n      dup1\n      returndatacopy\n      revert(0x00, returndatasize)\n    tag_351:\n      pop\n      pop\n      pop\n      pop\n      mload(0x40)\n      returndatasize\n      not(0x1f)\n      0x1f\n      dup3\n      add\n      and\n      dup3\n      add\n      dup1\n      0x40\n      mstore\n      pop\n      dup2\n      add\n      swap1\n      tag_352\n      swap2\n      swap1\n      tag_159\n      jump\t// in\n    tag_352:\n        /* \"Contracts/TTSwapV1Coin.sol\":1536:1699  require(IGatorV1State(gatorContractAddress).isValidGator(... */\n      tag_353\n      jumpi\n      mload(0x40)\n      shl(0xe5, 0x461bcd)\n      dup2\n      mstore\n      0x04\n      add\n      tag_161\n      swap1\n      tag_162\n      jump\t// in\n    tag_353:\n        /* \"Contracts/TTSwapV1Coin.sol\":8295:8320  _coinInfo.contractAddress */\n      0xc0\n      dup2\n      add\n      mload\n      sub(shl(0xa0, 0x01), 0x01)\n        /* \"Contracts/TTSwapV1Coin.sol\":8286:8321  coinList[_coinInfo.contractAddress] */\n      and\n      0x00\n      swap1\n      dup2\n      mstore\n        /* \"Contracts/TTSwapV1Coin.sol\":8286:8294  coinList */\n      0x03\n        /* \"Contracts/TTSwapV1Coin.sol\":8286:8321  coinList[_coinInfo.contractAddress] */\n      0x20\n      mstore\n      0x40\n      swap1\n      keccak256\n        /* \"Contracts/TTSwapV1Coin.sol\":8286:8328  coinList[_coinInfo.contractAddress].isUsed */\n      0x06\n      add\n      sload\n      shl(0xb0, 0x01)\n      swap1\n      div\n      0xff\n      and\n        /* \"Contracts/TTSwapV1Coin.sol\":8286:8336  coinList[_coinInfo.contractAddress].isUsed != true */\n      iszero\n      iszero\n        /* \"Contracts/TTSwapV1Coin.sol\":8332:8336  true */\n      0x01\n        /* \"Contracts/TTSwapV1Coin.sol\":8286:8336  coinList[_coinInfo.contractAddress].isUsed != true */\n      sub\n        /* \"Contracts/TTSwapV1Coin.sol\":8265:8380  require(... */\n      tag_356\n      jumpi\n      mload(0x40)\n      shl(0xe5, 0x461bcd)\n      dup2\n      mstore\n        /* \"#utility.yul\":10257:10259   */\n      0x20\n        /* \"Contracts/TTSwapV1Coin.sol\":8265:8380  require(... */\n      0x04\n      dup3\n      add\n        /* \"#utility.yul\":10239:10260   */\n      mstore\n        /* \"#utility.yul\":10296:10298   */\n      0x12\n        /* \"#utility.yul\":10276:10294   */\n      0x24\n      dup3\n      add\n        /* \"#utility.yul\":10269:10299   */\n      mstore\n      shl(0x72, 0x1d1a194818dbda5b881a5cc808195e1a5cdd)\n        /* \"#utility.yul\":10315:10333   */\n      0x44\n      dup3\n      add\n        /* \"#utility.yul\":10308:10356   */\n      mstore\n        /* \"#utility.yul\":10373:10391   */\n      0x64\n      add\n        /* \"Contracts/TTSwapV1Coin.sol\":8265:8380  require(... */\n      tag_161\n        /* \"#utility.yul\":10055:10397   */\n      jump\n        /* \"Contracts/TTSwapV1Coin.sol\":8265:8380  require(... */\n    tag_356:\n        /* \"Contracts/TTSwapV1Coin.sol\":8410:8420  msg.sender */\n      caller\n        /* \"Contracts/TTSwapV1Coin.sol\":8390:8407  _coinInfo.creator */\n      0x0140\n      dup3\n      add\n        /* \"Contracts/TTSwapV1Coin.sol\":8390:8420  _coinInfo.creator = msg.sender */\n      dup2\n      swap1\n      mstore\n        /* \"Contracts/TTSwapV1Coin.sol\":8455:8460  false */\n      0x00\n        /* \"Contracts/TTSwapV1Coin.sol\":8430:8452  _coinInfo.marketunlock */\n      0xe0\n      dup4\n      add\n        /* \"Contracts/TTSwapV1Coin.sol\":8430:8460  _coinInfo.marketunlock = false */\n      dup2\n      swap1\n      mstore\n        /* \"Contracts/TTSwapV1Coin.sol\":8470:8490  _coinInfo.gateunlock */\n      0x0100\n      dup4\n      add\n        /* \"Contracts/TTSwapV1Coin.sol\":8470:8498  _coinInfo.gateunlock = false */\n      dup2\n      swap1\n      mstore\n        /* \"Contracts/TTSwapV1Coin.sol\":8430:8460  _coinInfo.marketunlock = false */\n      0x01\n        /* \"Contracts/TTSwapV1Coin.sol\":8508:8524  _coinInfo.isUsed */\n      0x0120\n      dup5\n      add\n        /* \"Contracts/TTSwapV1Coin.sol\":8508:8531  _coinInfo.isUsed = true */\n      dup2\n      swap1\n      mstore\n        /* \"Contracts/TTSwapV1Coin.sol\":8558:8579  coinMaxNo[msg.sender] */\n      swap2\n      dup2\n      mstore\n      0x20\n      dup2\n      swap1\n      mstore\n      0x40\n      swap1\n      keccak256\n      sload\n      sub(shl(0x80, 0x01), 0x01)\n      and\n        /* \"Contracts/TTSwapV1Coin.sol\":8558:8584  coinMaxNo[msg.sender] >= 1 */\n      lt\n      dup1\n      iszero\n      swap1\n        /* \"Contracts/TTSwapV1Coin.sol\":8558:8650  coinMaxNo[msg.sender] >= 1 &&... */\n      tag_358\n      jumpi\n      pop\n        /* \"Contracts/TTSwapV1Coin.sol\":8639:8649  msg.sender */\n      caller\n        /* \"Contracts/TTSwapV1Coin.sol\":8629:8638  coinMaxNo */\n      0x00\n        /* \"Contracts/TTSwapV1Coin.sol\":8629:8650  coinMaxNo[msg.sender] */\n      swap1\n      dup2\n      mstore\n      0x20\n      dup2\n      swap1\n      mstore\n      0x40\n      swap1\n      keccak256\n      sload\n      sub(shl(0x80, 0x01), 0x01)\n      and\n        /* \"Contracts/TTSwapV1Coin.sol\":8600:8625  coinMaxNo[msg.sender] + 1 */\n      tag_359\n        /* \"Contracts/TTSwapV1Coin.sol\":8629:8650  coinMaxNo[msg.sender] */\n      dup2\n      0x01\n        /* \"Contracts/TTSwapV1Coin.sol\":8600:8625  coinMaxNo[msg.sender] + 1 */\n      tag_169\n      jump\t// in\n    tag_359:\n      sub(shl(0x80, 0x01), 0x01)\n        /* \"Contracts/TTSwapV1Coin.sol\":8600:8650  coinMaxNo[msg.sender] + 1 >= coinMaxNo[msg.sender] */\n      and\n      lt\n      iszero\n        /* \"Contracts/TTSwapV1Coin.sol\":8558:8650  coinMaxNo[msg.sender] >= 1 &&... */\n    tag_358:\n        /* \"Contracts/TTSwapV1Coin.sol\":8541:8768  if (... */\n      iszero\n      tag_360\n      jumpi\n        /* \"Contracts/TTSwapV1Coin.sol\":8685:8695  msg.sender */\n      caller\n        /* \"Contracts/TTSwapV1Coin.sol\":8675:8684  coinMaxNo */\n      0x00\n        /* \"Contracts/TTSwapV1Coin.sol\":8675:8696  coinMaxNo[msg.sender] */\n      swap1\n      dup2\n      mstore\n      0x20\n      dup2\n      swap1\n      mstore\n      0x40\n      dup2\n      keccak256\n        /* \"Contracts/TTSwapV1Coin.sol\":8675:8701  coinMaxNo[msg.sender] += 1 */\n      dup1\n      sload\n        /* \"Contracts/TTSwapV1Coin.sol\":8700:8701  1 */\n      0x01\n      swap3\n        /* \"Contracts/TTSwapV1Coin.sol\":8675:8684  coinMaxNo */\n      swap1\n        /* \"Contracts/TTSwapV1Coin.sol\":8675:8701  coinMaxNo[msg.sender] += 1 */\n      tag_361\n      swap1\n        /* \"Contracts/TTSwapV1Coin.sol\":8700:8701  1 */\n      dup5\n      swap1\n      sub(shl(0x80, 0x01), 0x01)\n        /* \"Contracts/TTSwapV1Coin.sol\":8675:8701  coinMaxNo[msg.sender] += 1 */\n      and\n      tag_169\n      jump\t// in\n    tag_361:\n      swap3\n      pop\n      0x0100\n      exp\n      dup2\n      sload\n      dup2\n      sub(shl(0x80, 0x01), 0x01)\n      mul\n      not\n      and\n      swap1\n      dup4\n      sub(shl(0x80, 0x01), 0x01)\n      and\n      mul\n      or\n      swap1\n      sstore\n      pop\n        /* \"Contracts/TTSwapV1Coin.sol\":8541:8768  if (... */\n      jump(tag_362)\n    tag_360:\n        /* \"Contracts/TTSwapV1Coin.sol\":8742:8752  msg.sender */\n      caller\n        /* \"Contracts/TTSwapV1Coin.sol\":8732:8741  coinMaxNo */\n      0x00\n        /* \"Contracts/TTSwapV1Coin.sol\":8732:8753  coinMaxNo[msg.sender] */\n      swap1\n      dup2\n      mstore\n      0x20\n      dup2\n      swap1\n      mstore\n      0x40\n      swap1\n      keccak256\n        /* \"Contracts/TTSwapV1Coin.sol\":8732:8757  coinMaxNo[msg.sender] = 1 */\n      dup1\n      sload\n      not(sub(shl(0x80, 0x01), 0x01))\n      and\n        /* \"Contracts/TTSwapV1Coin.sol\":8756:8757  1 */\n      0x01\n        /* \"Contracts/TTSwapV1Coin.sol\":8732:8757  coinMaxNo[msg.sender] = 1 */\n      or\n      swap1\n      sstore\n        /* \"Contracts/TTSwapV1Coin.sol\":8541:8768  if (... */\n    tag_362:\n        /* \"Contracts/TTSwapV1Coin.sol\":8828:8866  _coinInfo... */\n      0xc0\n      dup2\n      add\n      dup1\n      mload\n        /* \"Contracts/TTSwapV1Coin.sol\":8791:8801  msg.sender */\n      caller\n        /* \"Contracts/TTSwapV1Coin.sol\":8777:8802  ownerCoinList[msg.sender] */\n      0x00\n      dup2\n      dup2\n      mstore\n        /* \"Contracts/TTSwapV1Coin.sol\":8777:8790  ownerCoinList */\n      0x01\n        /* \"Contracts/TTSwapV1Coin.sol\":8777:8802  ownerCoinList[msg.sender] */\n      0x20\n      dup2\n      dup2\n      mstore\n      0x40\n      dup1\n      dup5\n      keccak256\n        /* \"Contracts/TTSwapV1Coin.sol\":8803:8824  coinMaxNo[msg.sender] */\n      dup5\n      dup4\n      mstore\n      dup2\n      dup6\n      keccak256\n      dup1\n      sload\n      sub(shl(0x80, 0x01), 0x01)\n      swap1\n      dup2\n      and\n        /* \"Contracts/TTSwapV1Coin.sol\":8777:8825  ownerCoinList[msg.sender][coinMaxNo[msg.sender]] */\n      dup8\n      mstore\n      swap2\n      dup5\n      mstore\n      dup3\n      dup7\n      keccak256\n        /* \"Contracts/TTSwapV1Coin.sol\":8777:8866  ownerCoinList[msg.sender][coinMaxNo[msg.sender]] = _coinInfo... */\n      dup1\n      sload\n      sub(shl(0xa0, 0x01), 0x01)\n      swap10\n      dup11\n      and\n      not(sub(shl(0xa0, 0x01), 0x01))\n      swap2\n      dup3\n      and\n      or\n      swap1\n      swap2\n      sstore\n        /* \"Contracts/TTSwapV1Coin.sol\":8929:8972  coinMaxNo[... */\n      dup8\n      dup8\n      mstore\n      swap1\n      sload\n        /* \"Contracts/TTSwapV1Coin.sol\":8876:8887  ownerCoinNo */\n      0x02\n        /* \"Contracts/TTSwapV1Coin.sol\":8876:8899  ownerCoinNo[msg.sender] */\n      dup1\n      dup7\n      mstore\n      dup5\n      dup9\n      keccak256\n        /* \"Contracts/TTSwapV1Coin.sol\":8900:8925  _coinInfo.contractAddress */\n      dup12\n      mload\n        /* \"Contracts/TTSwapV1Coin.sol\":8876:8926  ownerCoinNo[msg.sender][_coinInfo.contractAddress] */\n      dup12\n      and\n      dup10\n      mstore\n      dup7\n      mstore\n      dup5\n      dup9\n      keccak256\n        /* \"Contracts/TTSwapV1Coin.sol\":8876:8972  ownerCoinNo[msg.sender][_coinInfo.contractAddress] = coinMaxNo[... */\n      dup1\n      sload\n      not(sub(shl(0x80, 0x01), 0x01))\n      and\n        /* \"Contracts/TTSwapV1Coin.sol\":8929:8972  coinMaxNo[... */\n      swap3\n      swap1\n      swap5\n      and\n        /* \"Contracts/TTSwapV1Coin.sol\":8876:8972  ownerCoinNo[msg.sender][_coinInfo.contractAddress] = coinMaxNo[... */\n      swap2\n      swap1\n      swap2\n      or\n      swap1\n      swap3\n      sstore\n        /* \"Contracts/TTSwapV1Coin.sol\":8991:9016  _coinInfo.contractAddress */\n      dup9\n      mload\n        /* \"Contracts/TTSwapV1Coin.sol\":8982:9017  coinList[_coinInfo.contractAddress] */\n      dup9\n      and\n      dup7\n      mstore\n        /* \"Contracts/TTSwapV1Coin.sol\":8982:8990  coinList */\n      0x03\n        /* \"Contracts/TTSwapV1Coin.sol\":8982:9017  coinList[_coinInfo.contractAddress] */\n      dup1\n      dup6\n      mstore\n      swap6\n      dup4\n      swap1\n      keccak256\n        /* \"Contracts/TTSwapV1Coin.sol\":8982:9029  coinList[_coinInfo.contractAddress] = _coinInfo */\n      dup11\n      mload\n      dup2\n      sstore\n      swap4\n      dup11\n      add\n      mload\n      swap5\n      dup5\n      add\n      swap5\n      swap1\n      swap5\n      sstore\n      dup2\n      dup10\n      add\n      mload\n      swap1\n      dup4\n      add\n      sstore\n      0x60\n      dup9\n      add\n      mload\n      swap4\n      dup3\n      add\n      dup1\n      sload\n      0xff\n      swap1\n      swap6\n      and\n      not(0xff)\n      swap1\n      swap6\n      and\n      swap5\n      swap1\n      swap5\n      or\n      swap1\n      swap4\n      sstore\n      0x80\n      dup8\n      add\n      mload\n      0x04\n      dup3\n      add\n      sstore\n      0xa0\n      dup8\n      add\n      mload\n      0x05\n      dup3\n      add\n      sstore\n      swap5\n      mload\n      0x06\n      dup7\n      add\n      dup1\n      sload\n      0xe0\n      dup10\n      add\n      mload\n        /* \"Contracts/TTSwapV1Coin.sol\":8803:8824  coinMaxNo[msg.sender] */\n      0x0100\n        /* \"Contracts/TTSwapV1Coin.sol\":8982:9029  coinList[_coinInfo.contractAddress] = _coinInfo */\n      dup11\n      add\n      mload\n      0x0120\n      dup12\n      add\n      mload\n      iszero\n      iszero\n      shl(0xb0, 0x01)\n      mul\n      not(shl(0xb0, 0xff))\n      swap2\n      iszero\n      iszero\n      shl(0xa8, 0x01)\n      mul\n      swap2\n      swap1\n      swap2\n      and\n      not(shl(0xa8, 0xffff))\n      swap3\n      iszero\n      iszero\n      shl(0xa0, 0x01)\n      mul\n      not(sub(shl(0xa8, 0x01), 0x01))\n      swap1\n      swap5\n      and\n      swap6\n      dup11\n      and\n      swap6\n      swap1\n      swap6\n      or\n      swap3\n      swap1\n      swap3\n      or\n      and\n      swap3\n      swap1\n      swap3\n      or\n      swap2\n      swap1\n      swap2\n      or\n      swap1\n      sstore\n      0x0140\n      dup7\n      add\n      mload\n      0x07\n      swap1\n      swap6\n      add\n      dup1\n      sload\n      swap6\n      swap1\n      swap5\n      and\n      swap5\n      and\n      swap4\n      swap1\n      swap4\n      or\n      swap1\n      swap2\n      sstore\n        /* \"Contracts/TTSwapV1Coin.sol\":9044:9083  e_addCoinbyGator(msg.sender, _coinInfo) */\n      swap1\n      mload\n      0x724ed868ad6195ec663de17364300ee1e1956f27f184ceb84f2be30d1fd58d65\n      swap2\n      tag_207\n      swap2\n        /* \"Contracts/TTSwapV1Coin.sol\":8828:8837  _coinInfo */\n      dup5\n      swap1\n        /* \"Contracts/TTSwapV1Coin.sol\":9044:9083  e_addCoinbyGator(msg.sender, _coinInfo) */\n      tag_174\n      jump\t// in\n        /* \"Contracts/TTSwapV1Coin.sol\":13353:13646  function getCoinInfoFromaddress(... */\n    tag_142:\n        /* \"Contracts/TTSwapV1Coin.sol\":13457:13474  LCoin.Info memory */\n      tag_364\n      tag_244\n      jump\t// in\n    tag_364:\n      sub(shl(0xa0, 0x01), 0x01)\n        /* \"Contracts/TTSwapV1Coin.sol\":13507:13533  coinList[_contractaddress] */\n      dup3\n      and\n      0x00\n      swap1\n      dup2\n      mstore\n        /* \"Contracts/TTSwapV1Coin.sol\":13507:13515  coinList */\n      0x03\n        /* \"Contracts/TTSwapV1Coin.sol\":13507:13533  coinList[_contractaddress] */\n      0x20\n      mstore\n      0x40\n      swap1\n      keccak256\n        /* \"Contracts/TTSwapV1Coin.sol\":13507:13540  coinList[_contractaddress].isUsed */\n      0x06\n      add\n      sload\n      shl(0xb0, 0x01)\n      swap1\n      div\n      0xff\n      and\n        /* \"Contracts/TTSwapV1Coin.sol\":13507:13548  coinList[_contractaddress].isUsed == true */\n      iszero\n      iszero\n        /* \"Contracts/TTSwapV1Coin.sol\":13544:13548  true */\n      0x01\n        /* \"Contracts/TTSwapV1Coin.sol\":13507:13548  coinList[_contractaddress].isUsed == true */\n      eq\n        /* \"Contracts/TTSwapV1Coin.sol\":13486:13596  require(... */\n      tag_366\n      jumpi\n      mload(0x40)\n      shl(0xe5, 0x461bcd)\n      dup2\n      mstore\n      0x04\n      add\n      tag_161\n      swap1\n      tag_189\n      jump\t// in\n    tag_366:\n      pop\n      sub(shl(0xa0, 0x01), 0x01)\n        /* \"Contracts/TTSwapV1Coin.sol\":13613:13639  coinList[_contractaddress] */\n      swap1\n      dup2\n      and\n      0x00\n      swap1\n      dup2\n      mstore\n        /* \"Contracts/TTSwapV1Coin.sol\":13613:13621  coinList */\n      0x03\n        /* \"Contracts/TTSwapV1Coin.sol\":13613:13639  coinList[_contractaddress] */\n      0x20\n      dup2\n      dup2\n      mstore\n      0x40\n      swap3\n      dup4\n      swap1\n      keccak256\n        /* \"Contracts/TTSwapV1Coin.sol\":13606:13639  return coinList[_contractaddress] */\n      dup4\n      mload\n      0x0160\n      dup2\n      add\n      dup6\n      mstore\n      dup2\n      sload\n      dup2\n      mstore\n      0x01\n      dup3\n      add\n      sload\n      swap3\n      dup2\n      add\n      swap3\n      swap1\n      swap3\n      mstore\n      0x02\n      dup2\n      add\n      sload\n      swap4\n      dup3\n      add\n      swap4\n      swap1\n      swap4\n      mstore\n      swap1\n      dup3\n      add\n      sload\n      0xff\n      swap1\n      dup2\n      and\n      0x60\n      dup4\n      add\n      mstore\n      0x04\n      dup4\n      add\n      sload\n      0x80\n      dup4\n      add\n      mstore\n      0x05\n      dup4\n      add\n      sload\n      0xa0\n      dup4\n      add\n      mstore\n      0x06\n      dup4\n      add\n      sload\n      dup1\n      dup6\n      and\n      0xc0\n      dup5\n      add\n      mstore\n      shl(0xa0, 0x01)\n      dup2\n      div\n      dup3\n      and\n      iszero\n      iszero\n      0xe0\n      dup5\n      add\n      mstore\n      shl(0xa8, 0x01)\n      dup2\n      div\n      dup3\n      and\n      iszero\n      iszero\n      0x0100\n      dup5\n      add\n      mstore\n      shl(0xb0, 0x01)\n      swap1\n      div\n      and\n      iszero\n      iszero\n      0x0120\n      dup3\n      add\n      mstore\n      0x07\n      swap1\n      swap2\n      add\n      sload\n      swap1\n      swap2\n      and\n      0x0140\n      dup3\n      add\n      mstore\n      swap1\n        /* \"Contracts/TTSwapV1Coin.sol\":13353:13646  function getCoinInfoFromaddress(... */\n      jump\t// out\n        /* \"Contracts/TTSwapV1Coin.sol\":7568:8022  function delCoinbyMarketor(uint128 _coinNo) external override onlyMarketor {... */\n    tag_150:\n        /* \"Contracts/TTSwapV1Coin.sol\":1795:1818  marketorContractAddress */\n      sload(0x06)\n        /* \"Contracts/TTSwapV1Coin.sol\":1778:1877  IMarketorV1State(marketorContractAddress).isValidMarketor(... */\n      mload(0x40)\n      shl(0xe5, 0x038c3329)\n      dup2\n      mstore\n        /* \"Contracts/TTSwapV1Coin.sol\":1853:1863  msg.sender */\n      caller\n        /* \"Contracts/TTSwapV1Coin.sol\":1778:1877  IMarketorV1State(marketorContractAddress).isValidMarketor(... */\n      0x04\n      dup3\n      add\n        /* \"#utility.yul\":3811:3862   */\n      mstore\n      sub(shl(0xa0, 0x01), 0x01)\n        /* \"Contracts/TTSwapV1Coin.sol\":1795:1818  marketorContractAddress */\n      swap1\n      swap2\n      and\n      swap1\n        /* \"Contracts/TTSwapV1Coin.sol\":1778:1835  IMarketorV1State(marketorContractAddress).isValidMarketor */\n      0x71866520\n      swap1\n        /* \"#utility.yul\":3784:3802   */\n      0x24\n      add\n        /* \"Contracts/TTSwapV1Coin.sol\":1778:1877  IMarketorV1State(marketorContractAddress).isValidMarketor(... */\n      0x20\n      mload(0x40)\n      dup1\n      dup4\n      sub\n      dup2\n      dup7\n      gas\n      staticcall\n      iszero\n      dup1\n      iszero\n      tag_371\n      jumpi\n      returndatasize\n      0x00\n      dup1\n      returndatacopy\n      revert(0x00, returndatasize)\n    tag_371:\n      pop\n      pop\n      pop\n      pop\n      mload(0x40)\n      returndatasize\n      not(0x1f)\n      0x1f\n      dup3\n      add\n      and\n      dup3\n      add\n      dup1\n      0x40\n      mstore\n      pop\n      dup2\n      add\n      swap1\n      tag_372\n      swap2\n      swap1\n      tag_159\n      jump\t// in\n    tag_372:\n        /* \"Contracts/TTSwapV1Coin.sol\":1757:1942  require(... */\n      tag_373\n      jumpi\n      mload(0x40)\n      shl(0xe5, 0x461bcd)\n      dup2\n      mstore\n      0x04\n      add\n      tag_161\n      swap1\n      tag_162\n      jump\t// in\n    tag_373:\n        /* \"Contracts/TTSwapV1Coin.sol\":7688:7711  marketorContractAddress */\n      sload(0x06)\n      sub(shl(0xa0, 0x01), 0x01)\n      swap1\n      dup2\n      and\n        /* \"Contracts/TTSwapV1Coin.sol\":7733:7734  0 */\n      0x00\n        /* \"Contracts/TTSwapV1Coin.sol\":7674:7712  ownerCoinList[marketorContractAddress] */\n      swap1\n      dup2\n      mstore\n        /* \"Contracts/TTSwapV1Coin.sol\":7674:7687  ownerCoinList */\n      0x01\n        /* \"Contracts/TTSwapV1Coin.sol\":7674:7712  ownerCoinList[marketorContractAddress] */\n      0x20\n      swap1\n      dup2\n      mstore\n      0x40\n      dup1\n      dup4\n      keccak256\n      sub(shl(0x80, 0x01), 0x01)\n        /* \"Contracts/TTSwapV1Coin.sol\":7674:7721  ownerCoinList[marketorContractAddress][_coinNo] */\n      dup7\n      and\n      dup5\n      mstore\n      swap1\n      swap2\n      mstore\n      swap1\n      keccak256\n      sload\n      and\n        /* \"Contracts/TTSwapV1Coin.sol\":7653:7783  require(... */\n      tag_376\n      jumpi\n      mload(0x40)\n      shl(0xe5, 0x461bcd)\n      dup2\n      mstore\n      0x04\n      add\n      tag_161\n      swap1\n      tag_189\n      jump\t// in\n    tag_376:\n        /* \"Contracts/TTSwapV1Coin.sol\":7813:7836  marketorContractAddress */\n      0x06\n      dup1\n      sload\n      sub(shl(0xa0, 0x01), 0x01)\n      swap1\n      dup2\n      and\n        /* \"Contracts/TTSwapV1Coin.sol\":7801:7837  ownerCoinNo[marketorContractAddress] */\n      0x00\n      swap1\n      dup2\n      mstore\n        /* \"Contracts/TTSwapV1Coin.sol\":7801:7812  ownerCoinNo */\n      0x02\n        /* \"Contracts/TTSwapV1Coin.sol\":7801:7837  ownerCoinNo[marketorContractAddress] */\n      0x20\n      swap1\n      dup2\n      mstore\n      0x40\n      dup1\n      dup4\n      keccak256\n        /* \"Contracts/TTSwapV1Coin.sol\":7813:7836  marketorContractAddress */\n      0x01\n        /* \"Contracts/TTSwapV1Coin.sol\":7851:7889  ownerCoinList[marketorContractAddress] */\n      dup1\n      dup5\n      mstore\n      dup3\n      dup6\n      keccak256\n      sub(shl(0x80, 0x01), 0x01)\n        /* \"Contracts/TTSwapV1Coin.sol\":7851:7898  ownerCoinList[marketorContractAddress][_coinNo] */\n      dup10\n      and\n      dup1\n      dup8\n      mstore\n      swap1\n      dup6\n      mstore\n      dup4\n      dup7\n      keccak256\n      sload\n      dup8\n      and\n        /* \"Contracts/TTSwapV1Coin.sol\":7801:7908  ownerCoinNo[marketorContractAddress][... */\n      dup7\n      mstore\n      swap2\n      dup5\n      mstore\n      dup3\n      dup6\n      keccak256\n        /* \"Contracts/TTSwapV1Coin.sol\":7794:7908  delete ownerCoinNo[marketorContractAddress][... */\n      dup1\n      sload\n      not(sub(shl(0x80, 0x01), 0x01))\n      and\n      swap1\n      sstore\n        /* \"Contracts/TTSwapV1Coin.sol\":7939:7962  marketorContractAddress */\n      swap6\n      sload\n      swap1\n      swap5\n      and\n        /* \"Contracts/TTSwapV1Coin.sol\":7925:7963  ownerCoinList[marketorContractAddress] */\n      dup4\n      mstore\n      swap4\n      dup2\n      mstore\n      dup4\n      dup3\n      keccak256\n        /* \"Contracts/TTSwapV1Coin.sol\":7925:7972  ownerCoinList[marketorContractAddress][_coinNo] */\n      dup4\n      dup4\n      mstore\n      dup2\n      mstore\n      swap1\n      dup4\n      swap1\n      keccak256\n        /* \"Contracts/TTSwapV1Coin.sol\":7918:7972  delete ownerCoinList[marketorContractAddress][_coinNo] */\n      dup1\n      sload\n      not(sub(shl(0xa0, 0x01), 0x01))\n      and\n      swap1\n      sstore\n        /* \"Contracts/TTSwapV1Coin.sol\":7987:8015  e_delCoinbyMarketor(_coinNo) */\n      swap2\n      mload\n        /* \"#utility.yul\":5647:5713   */\n      swap1\n      dup2\n      mstore\n        /* \"Contracts/TTSwapV1Coin.sol\":7987:8015  e_delCoinbyMarketor(_coinNo) */\n      0x5f7c082ccca0f36ec2622a3f2d11cf4a4b3a0db0557669195572256a1db6be98\n      swap2\n        /* \"#utility.yul\":5620:5638   */\n      add\n        /* \"Contracts/TTSwapV1Coin.sol\":7987:8015  e_delCoinbyMarketor(_coinNo) */\n      tag_207\n        /* \"#utility.yul\":5501:5719   */\n      jump\n        /* \"Contracts/TTSwapV1Coin.sol\":4024:5187  function addCoinFullinfobyMarketor(... */\n    tag_153:\n        /* \"Contracts/TTSwapV1Coin.sol\":1795:1818  marketorContractAddress */\n      sload(0x06)\n        /* \"Contracts/TTSwapV1Coin.sol\":1778:1877  IMarketorV1State(marketorContractAddress).isValidMarketor(... */\n      mload(0x40)\n      shl(0xe5, 0x038c3329)\n      dup2\n      mstore\n        /* \"Contracts/TTSwapV1Coin.sol\":1853:1863  msg.sender */\n      caller\n        /* \"Contracts/TTSwapV1Coin.sol\":1778:1877  IMarketorV1State(marketorContractAddress).isValidMarketor(... */\n      0x04\n      dup3\n      add\n        /* \"#utility.yul\":3811:3862   */\n      mstore\n      sub(shl(0xa0, 0x01), 0x01)\n        /* \"Contracts/TTSwapV1Coin.sol\":1795:1818  marketorContractAddress */\n      swap1\n      swap2\n      and\n      swap1\n        /* \"Contracts/TTSwapV1Coin.sol\":1778:1835  IMarketorV1State(marketorContractAddress).isValidMarketor */\n      0x71866520\n      swap1\n        /* \"#utility.yul\":3784:3802   */\n      0x24\n      add\n        /* \"Contracts/TTSwapV1Coin.sol\":1778:1877  IMarketorV1State(marketorContractAddress).isValidMarketor(... */\n      0x20\n      mload(0x40)\n      dup1\n      dup4\n      sub\n      dup2\n      dup7\n      gas\n      staticcall\n      iszero\n      dup1\n      iszero\n      tag_382\n      jumpi\n      returndatasize\n      0x00\n      dup1\n      returndatacopy\n      revert(0x00, returndatasize)\n    tag_382:\n      pop\n      pop\n      pop\n      pop\n      mload(0x40)\n      returndatasize\n      not(0x1f)\n      0x1f\n      dup3\n      add\n      and\n      dup3\n      add\n      dup1\n      0x40\n      mstore\n      pop\n      dup2\n      add\n      swap1\n      tag_383\n      swap2\n      swap1\n      tag_159\n      jump\t// in\n    tag_383:\n        /* \"Contracts/TTSwapV1Coin.sol\":1757:1942  require(... */\n      tag_384\n      jumpi\n      mload(0x40)\n      shl(0xe5, 0x461bcd)\n      dup2\n      mstore\n      0x04\n      add\n      tag_161\n      swap1\n      tag_162\n      jump\t// in\n    tag_384:\n        /* \"Contracts/TTSwapV1Coin.sol\":4222:4247  _coinInfo.contractAddress */\n      0xc0\n      dup3\n      add\n      mload\n      sub(shl(0xa0, 0x01), 0x01)\n        /* \"Contracts/TTSwapV1Coin.sol\":4213:4248  coinList[_coinInfo.contractAddress] */\n      and\n      0x00\n      swap1\n      dup2\n      mstore\n        /* \"Contracts/TTSwapV1Coin.sol\":4213:4221  coinList */\n      0x03\n        /* \"Contracts/TTSwapV1Coin.sol\":4213:4248  coinList[_coinInfo.contractAddress] */\n      0x20\n      mstore\n      0x40\n      swap1\n      keccak256\n        /* \"Contracts/TTSwapV1Coin.sol\":4213:4255  coinList[_coinInfo.contractAddress].isUsed */\n      0x06\n      add\n      sload\n      shl(0xb0, 0x01)\n      swap1\n      div\n      0xff\n      and\n        /* \"Contracts/TTSwapV1Coin.sol\":4213:4263  coinList[_coinInfo.contractAddress].isUsed != true */\n      iszero\n      iszero\n        /* \"Contracts/TTSwapV1Coin.sol\":4259:4263  true */\n      0x01\n        /* \"Contracts/TTSwapV1Coin.sol\":4213:4263  coinList[_coinInfo.contractAddress].isUsed != true */\n      sub\n        /* \"Contracts/TTSwapV1Coin.sol\":4192:4303  require(... */\n      tag_387\n      jumpi\n      mload(0x40)\n      shl(0xe5, 0x461bcd)\n      dup2\n      mstore\n        /* \"#utility.yul\":13692:13694   */\n      0x20\n        /* \"Contracts/TTSwapV1Coin.sol\":4192:4303  require(... */\n      0x04\n      dup3\n      add\n        /* \"#utility.yul\":13674:13695   */\n      mstore\n        /* \"#utility.yul\":13731:13733   */\n      0x0e\n        /* \"#utility.yul\":13711:13729   */\n      0x24\n      dup3\n      add\n        /* \"#utility.yul\":13704:13734   */\n      mstore\n      shl(0x92, 0x1d1a194818dbda5b88195e1a5cdd)\n        /* \"#utility.yul\":13750:13768   */\n      0x44\n      dup3\n      add\n        /* \"#utility.yul\":13743:13787   */\n      mstore\n        /* \"#utility.yul\":13804:13822   */\n      0x64\n      add\n        /* \"Contracts/TTSwapV1Coin.sol\":4192:4303  require(... */\n      tag_161\n        /* \"#utility.yul\":13490:13828   */\n      jump\n        /* \"Contracts/TTSwapV1Coin.sol\":4192:4303  require(... */\n    tag_387:\n        /* \"Contracts/TTSwapV1Coin.sol\":4333:4343  msg.sender */\n      caller\n        /* \"Contracts/TTSwapV1Coin.sol\":4313:4330  _coinInfo.creator */\n      0x0140\n      dup4\n      add\n        /* \"Contracts/TTSwapV1Coin.sol\":4313:4343  _coinInfo.creator = msg.sender */\n      mstore\n        /* \"Contracts/TTSwapV1Coin.sol\":4378:4383  false */\n      0x00\n        /* \"Contracts/TTSwapV1Coin.sol\":4353:4375  _coinInfo.marketunlock */\n      0xe0\n      dup4\n      add\n        /* \"Contracts/TTSwapV1Coin.sol\":4353:4383  _coinInfo.marketunlock = false */\n      dup2\n      swap1\n      mstore\n      0x01\n        /* \"Contracts/TTSwapV1Coin.sol\":4393:4413  _coinInfo.gateunlock */\n      0x0100\n      dup5\n      add\n        /* \"Contracts/TTSwapV1Coin.sol\":4393:4420  _coinInfo.gateunlock = true */\n      dup2\n      swap1\n      mstore\n        /* \"Contracts/TTSwapV1Coin.sol\":4430:4446  _coinInfo.isUsed */\n      0x0120\n      dup5\n      add\n        /* \"Contracts/TTSwapV1Coin.sol\":4430:4453  _coinInfo.isUsed = true */\n      dup2\n      swap1\n      mstore\n        /* \"Contracts/TTSwapV1Coin.sol\":4494:4517  marketorContractAddress */\n      and(sub(shl(0xa0, 0x01), 0x01), sload(0x06))\n        /* \"Contracts/TTSwapV1Coin.sol\":4484:4518  coinMaxNo[marketorContractAddress] */\n      dup3\n      mstore\n      0x20\n      dup3\n      swap1\n      mstore\n      0x40\n      swap1\n      swap2\n      keccak256\n      sload\n      sub(shl(0x80, 0x01), 0x01)\n      and\n      swap1\n        /* \"Contracts/TTSwapV1Coin.sol\":4532:4547  coin_MaxNo >= 1 */\n      dup2\n      lt\n      dup1\n      iszero\n      swap1\n        /* \"Contracts/TTSwapV1Coin.sol\":4532:4579  coin_MaxNo >= 1 && coin_MaxNo + 1 >= coin_MaxNo */\n      tag_389\n      jumpi\n      pop\n      sub(shl(0x80, 0x01), 0x01)\n        /* \"Contracts/TTSwapV1Coin.sol\":4551:4579  coin_MaxNo + 1 >= coin_MaxNo */\n      dup2\n      and\n        /* \"Contracts/TTSwapV1Coin.sol\":4551:4565  coin_MaxNo + 1 */\n      tag_390\n        /* \"Contracts/TTSwapV1Coin.sol\":4569:4579  coin_MaxNo */\n      dup3\n        /* \"Contracts/TTSwapV1Coin.sol\":4564:4565  1 */\n      0x01\n        /* \"Contracts/TTSwapV1Coin.sol\":4551:4565  coin_MaxNo + 1 */\n      tag_169\n      jump\t// in\n    tag_390:\n      sub(shl(0x80, 0x01), 0x01)\n        /* \"Contracts/TTSwapV1Coin.sol\":4551:4579  coin_MaxNo + 1 >= coin_MaxNo */\n      and\n      lt\n      iszero\n        /* \"Contracts/TTSwapV1Coin.sol\":4532:4579  coin_MaxNo >= 1 && coin_MaxNo + 1 >= coin_MaxNo */\n    tag_389:\n        /* \"Contracts/TTSwapV1Coin.sol\":4528:4666  if (coin_MaxNo >= 1 && coin_MaxNo + 1 >= coin_MaxNo) {... */\n      iszero\n      tag_391\n      jumpi\n        /* \"Contracts/TTSwapV1Coin.sol\":4595:4610  coin_MaxNo += 1 */\n      tag_392\n        /* \"Contracts/TTSwapV1Coin.sol\":4609:4610  1 */\n      0x01\n        /* \"Contracts/TTSwapV1Coin.sol\":4595:4610  coin_MaxNo += 1 */\n      dup3\n      tag_169\n      jump\t// in\n    tag_392:\n      swap1\n      pop\n        /* \"Contracts/TTSwapV1Coin.sol\":4528:4666  if (coin_MaxNo >= 1 && coin_MaxNo + 1 >= coin_MaxNo) {... */\n      jump(tag_393)\n    tag_391:\n      pop\n        /* \"Contracts/TTSwapV1Coin.sol\":4654:4655  1 */\n      0x01\n        /* \"Contracts/TTSwapV1Coin.sol\":4528:4666  if (coin_MaxNo >= 1 && coin_MaxNo + 1 >= coin_MaxNo) {... */\n    tag_393:\n        /* \"Contracts/TTSwapV1Coin.sol\":4685:4708  marketorContractAddress */\n      0x06\n      dup1\n      sload\n      sub(shl(0xa0, 0x01), 0x01)\n      swap1\n      dup2\n      and\n        /* \"Contracts/TTSwapV1Coin.sol\":4675:4684  coinMaxNo */\n      0x00\n        /* \"Contracts/TTSwapV1Coin.sol\":4675:4709  coinMaxNo[marketorContractAddress] */\n      swap1\n      dup2\n      mstore\n      0x20\n      dup2\n      dup2\n      mstore\n      0x40\n      dup1\n      dup4\n      keccak256\n        /* \"Contracts/TTSwapV1Coin.sol\":4675:4722  coinMaxNo[marketorContractAddress] = coin_MaxNo */\n      dup1\n      sload\n      sub(shl(0x80, 0x01), 0x01)\n      dup9\n      and\n      not(sub(shl(0x80, 0x01), 0x01))\n      swap2\n      dup3\n      and\n      dup2\n      or\n      swap1\n      swap3\n      sstore\n        /* \"Contracts/TTSwapV1Coin.sol\":4786:4824  _coinInfo... */\n      0xc0\n      dup11\n      add\n      dup1\n      mload\n        /* \"Contracts/TTSwapV1Coin.sol\":4747:4770  marketorContractAddress */\n      dup9\n      sload\n      dup9\n      and\n        /* \"Contracts/TTSwapV1Coin.sol\":4733:4771  ownerCoinList[marketorContractAddress] */\n      dup8\n      mstore\n        /* \"Contracts/TTSwapV1Coin.sol\":4685:4708  marketorContractAddress */\n      0x01\n        /* \"Contracts/TTSwapV1Coin.sol\":4733:4771  ownerCoinList[marketorContractAddress] */\n      dup1\n      dup8\n      mstore\n      dup6\n      dup9\n      keccak256\n        /* \"Contracts/TTSwapV1Coin.sol\":4733:4783  ownerCoinList[marketorContractAddress][coin_MaxNo] */\n      dup6\n      dup10\n      mstore\n      dup8\n      mstore\n      dup6\n      dup9\n      keccak256\n        /* \"Contracts/TTSwapV1Coin.sol\":4733:4824  ownerCoinList[marketorContractAddress][coin_MaxNo] = _coinInfo... */\n      dup1\n      sload\n      swap3\n      dup11\n      and\n      not(sub(shl(0xa0, 0x01), 0x01))\n      swap4\n      dup5\n      and\n      or\n      swap1\n      sstore\n        /* \"Contracts/TTSwapV1Coin.sol\":4846:4869  marketorContractAddress */\n      dup10\n      sload\n      dup10\n      and\n        /* \"Contracts/TTSwapV1Coin.sol\":4834:4870  ownerCoinNo[marketorContractAddress] */\n      dup9\n      mstore\n        /* \"Contracts/TTSwapV1Coin.sol\":4834:4845  ownerCoinNo */\n      0x02\n        /* \"Contracts/TTSwapV1Coin.sol\":4834:4870  ownerCoinNo[marketorContractAddress] */\n      dup1\n      dup9\n      mstore\n      dup7\n      dup10\n      keccak256\n        /* \"Contracts/TTSwapV1Coin.sol\":4884:4909  _coinInfo.contractAddress */\n      dup5\n      mload\n        /* \"Contracts/TTSwapV1Coin.sol\":4834:4919  ownerCoinNo[marketorContractAddress][... */\n      dup12\n      and\n      dup11\n      mstore\n      dup9\n      mstore\n      dup7\n      dup10\n      keccak256\n        /* \"Contracts/TTSwapV1Coin.sol\":4834:4932  ownerCoinNo[marketorContractAddress][... */\n      dup1\n      sload\n      swap1\n      swap6\n      and\n      swap1\n      swap6\n      or\n      swap1\n      swap4\n      sstore\n        /* \"Contracts/TTSwapV1Coin.sol\":4952:4977  _coinInfo.contractAddress */\n      dup2\n      mload\n        /* \"Contracts/TTSwapV1Coin.sol\":4943:4978  coinList[_coinInfo.contractAddress] */\n      dup9\n      and\n      dup8\n      mstore\n        /* \"Contracts/TTSwapV1Coin.sol\":4943:4951  coinList */\n      0x03\n        /* \"Contracts/TTSwapV1Coin.sol\":4943:4978  coinList[_coinInfo.contractAddress] */\n      dup1\n      dup8\n      mstore\n      swap7\n      dup6\n      swap1\n      keccak256\n        /* \"Contracts/TTSwapV1Coin.sol\":4943:4990  coinList[_coinInfo.contractAddress] = _coinInfo */\n      dup13\n      mload\n      dup2\n      sstore\n      swap6\n      dup13\n      add\n      mload\n      swap3\n      dup7\n      add\n      swap3\n      swap1\n      swap3\n      sstore\n      dup11\n      dup5\n      add\n      mload\n      swap3\n      dup6\n      add\n      swap3\n      swap1\n      swap3\n      sstore\n      0x60\n      dup11\n      add\n      mload\n      swap5\n      dup5\n      add\n      dup1\n      sload\n      0xff\n      swap1\n      swap7\n      and\n      not(0xff)\n      swap1\n      swap7\n      and\n      swap6\n      swap1\n      swap6\n      or\n      swap1\n      swap5\n      sstore\n      0x80\n      dup10\n      add\n      mload\n      0x04\n      dup5\n      add\n      sstore\n      0xa0\n      dup10\n      add\n      mload\n      0x05\n      dup5\n      add\n      sstore\n      mload\n      swap5\n      dup3\n      add\n      dup1\n      sload\n      0xe0\n      dup11\n      add\n      mload\n        /* \"Contracts/TTSwapV1Coin.sol\":4685:4708  marketorContractAddress */\n      0x0100\n        /* \"Contracts/TTSwapV1Coin.sol\":4943:4990  coinList[_coinInfo.contractAddress] = _coinInfo */\n      dup12\n      add\n      mload\n      0x0120\n      dup13\n      add\n      mload\n      iszero\n      iszero\n      shl(0xb0, 0x01)\n      mul\n      not(shl(0xb0, 0xff))\n      swap2\n      iszero\n      iszero\n      shl(0xa8, 0x01)\n      mul\n      swap2\n      swap1\n      swap2\n      and\n      not(shl(0xa8, 0xffff))\n      swap3\n      iszero\n      iszero\n      shl(0xa0, 0x01)\n      mul\n      not(sub(shl(0xa8, 0x01), 0x01))\n      swap1\n      swap5\n      and\n      swap10\n      dup10\n      and\n      swap10\n      swap1\n      swap10\n      or\n      swap3\n      swap1\n      swap3\n      or\n      and\n      swap7\n      swap1\n      swap7\n      or\n      swap6\n      swap1\n      swap6\n      or\n      swap1\n      swap5\n      sstore\n      0x0140\n      dup8\n      add\n      mload\n      0x07\n      swap1\n      swap2\n      add\n      dup1\n      sload\n      swap2\n      swap1\n      swap4\n      and\n      swap2\n      and\n      or\n      swap1\n      sstore\n        /* \"Contracts/TTSwapV1Coin.sol\":5005:5035  e_addCoinbyMarketor(_coinInfo) */\n      mload\n      0x3fdeabf9cf0f252033e117e3bf501c16a9e905759535453a989a37bbb55557cb\n      swap1\n      tag_394\n      swap1\n        /* \"Contracts/TTSwapV1Coin.sol\":4786:4795  _coinInfo */\n      dup6\n      swap1\n        /* \"Contracts/TTSwapV1Coin.sol\":5005:5035  e_addCoinbyMarketor(_coinInfo) */\n      tag_96\n      jump\t// in\n    tag_394:\n      mload(0x40)\n      dup1\n      swap2\n      sub\n      swap1\n      log1\n        /* \"Contracts/TTSwapV1Coin.sol\":5060:5091  _coinDetailInfo.contractAddress */\n      dup2\n      mload\n      sub(shl(0xa0, 0x01), 0x01)\n        /* \"Contracts/TTSwapV1Coin.sol\":5045:5092  coinDetailList[_coinDetailInfo.contractAddress] */\n      swap1\n      dup2\n      and\n      0x00\n      swap1\n      dup2\n      mstore\n        /* \"Contracts/TTSwapV1Coin.sol\":5045:5059  coinDetailList */\n      0x04\n        /* \"Contracts/TTSwapV1Coin.sol\":5045:5092  coinDetailList[_coinDetailInfo.contractAddress] */\n      0x20\n      dup2\n      dup2\n      mstore\n      0x40\n      swap3\n      dup4\n      swap1\n      keccak256\n        /* \"Contracts/TTSwapV1Coin.sol\":5045:5110  coinDetailList[_coinDetailInfo.contractAddress] = _coinDetailInfo */\n      dup7\n      mload\n      dup2\n      sload\n      not(sub(shl(0xa0, 0x01), 0x01))\n      and\n      swap6\n      and\n      swap5\n      dup6\n      or\n      dup2\n      sstore\n      dup2\n      dup8\n      add\n      mload\n      0x01\n      dup3\n      add\n      sstore\n      dup4\n      dup8\n      add\n      mload\n      0x02\n      dup3\n      add\n      sstore\n      0x60\n      dup8\n      add\n      mload\n      0x03\n      dup3\n      add\n      sstore\n      0x80\n      dup8\n      add\n      mload\n      swap3\n      dup2\n      add\n      swap3\n      swap1\n      swap3\n      sstore\n      0xa0\n      dup7\n      add\n      mload\n      0x05\n      swap1\n      swap3\n      add\n      swap2\n      swap1\n      swap2\n      sstore\n        /* \"Contracts/TTSwapV1Coin.sol\":5125:5180  e_addCoinDetailbyGator(_coinDetailInfo.contractAddress) */\n      swap1\n      mload\n        /* \"#utility.yul\":3811:3862   */\n      swap2\n      dup3\n      mstore\n        /* \"Contracts/TTSwapV1Coin.sol\":5125:5180  e_addCoinDetailbyGator(_coinDetailInfo.contractAddress) */\n      0x28995a3cc31b8867e272bf05bb4f577da5e81799e17cf729d123edf7c2a7ca94\n      swap2\n        /* \"#utility.yul\":3784:3802   */\n      add\n        /* \"Contracts/TTSwapV1Coin.sol\":5125:5180  e_addCoinDetailbyGator(_coinDetailInfo.contractAddress) */\n      mload(0x40)\n      dup1\n      swap2\n      sub\n      swap1\n      log1\n        /* \"Contracts/TTSwapV1Coin.sol\":4182:5187  {... */\n      pop\n        /* \"Contracts/TTSwapV1Coin.sol\":4024:5187  function addCoinFullinfobyMarketor(... */\n      pop\n      pop\n      jump\t// out\n    tag_244:\n      0x40\n      dup1\n      mload\n      0x0160\n      dup2\n      add\n      dup3\n      mstore\n      0x00\n      dup1\n      dup3\n      mstore\n      0x20\n      dup3\n      add\n      dup2\n      swap1\n      mstore\n      swap2\n      dup2\n      add\n      dup3\n      swap1\n      mstore\n      0x60\n      dup2\n      add\n      dup3\n      swap1\n      mstore\n      0x80\n      dup2\n      add\n      dup3\n      swap1\n      mstore\n      0xa0\n      dup2\n      add\n      dup3\n      swap1\n      mstore\n      0xc0\n      dup2\n      add\n      dup3\n      swap1\n      mstore\n      0xe0\n      dup2\n      add\n      dup3\n      swap1\n      mstore\n      0x0100\n      dup2\n      add\n      dup3\n      swap1\n      mstore\n      0x0120\n      dup2\n      add\n      dup3\n      swap1\n      mstore\n      0x0140\n      dup2\n      add\n      swap2\n      swap1\n      swap2\n      mstore\n      swap1\n      jump\t// out\n        /* \"#utility.yul\":14:361   */\n    tag_396:\n        /* \"#utility.yul\":81:83   */\n      0x40\n        /* \"#utility.yul\":75:84   */\n      mload\n        /* \"#utility.yul\":123:129   */\n      0x0160\n        /* \"#utility.yul\":111:130   */\n      dup2\n      add\n        /* \"#utility.yul\":160:178   */\n      0xffffffffffffffff\n        /* \"#utility.yul\":145:179   */\n      dup2\n      gt\n        /* \"#utility.yul\":181:203   */\n      dup3\n      dup3\n      lt\n        /* \"#utility.yul\":142:204   */\n      or\n        /* \"#utility.yul\":139:324   */\n      iszero\n      tag_412\n      jumpi\n        /* \"#utility.yul\":246:256   */\n      0x4e487b71\n        /* \"#utility.yul\":241:244   */\n      0xe0\n        /* \"#utility.yul\":237:257   */\n      shl\n        /* \"#utility.yul\":234:235   */\n      0x00\n        /* \"#utility.yul\":227:258   */\n      mstore\n        /* \"#utility.yul\":281:285   */\n      0x41\n        /* \"#utility.yul\":278:279   */\n      0x04\n        /* \"#utility.yul\":271:286   */\n      mstore\n        /* \"#utility.yul\":309:313   */\n      0x24\n        /* \"#utility.yul\":306:307   */\n      0x00\n        /* \"#utility.yul\":299:314   */\n      revert\n        /* \"#utility.yul\":139:324   */\n    tag_412:\n        /* \"#utility.yul\":340:342   */\n      0x40\n        /* \"#utility.yul\":333:355   */\n      mstore\n        /* \"#utility.yul\":14:361   */\n      swap1\n      jump\t// out\n        /* \"#utility.yul\":366:522   */\n    tag_397:\n        /* \"#utility.yul\":432:452   */\n      dup1\n      calldataload\n        /* \"#utility.yul\":492:496   */\n      0xff\n        /* \"#utility.yul\":481:497   */\n      dup2\n      and\n        /* \"#utility.yul\":471:498   */\n      dup2\n      eq\n        /* \"#utility.yul\":461:516   */\n      tag_414\n      jumpi\n        /* \"#utility.yul\":512:513   */\n      0x00\n        /* \"#utility.yul\":509:510   */\n      dup1\n        /* \"#utility.yul\":502:514   */\n      revert\n        /* \"#utility.yul\":461:516   */\n    tag_414:\n        /* \"#utility.yul\":366:522   */\n      swap2\n      swap1\n      pop\n      jump\t// out\n        /* \"#utility.yul\":527:700   */\n    tag_398:\n        /* \"#utility.yul\":595:615   */\n      dup1\n      calldataload\n      sub(shl(0xa0, 0x01), 0x01)\n        /* \"#utility.yul\":644:675   */\n      dup2\n      and\n        /* \"#utility.yul\":634:676   */\n      dup2\n      eq\n        /* \"#utility.yul\":624:694   */\n      tag_414\n      jumpi\n        /* \"#utility.yul\":690:691   */\n      0x00\n        /* \"#utility.yul\":687:688   */\n      dup1\n        /* \"#utility.yul\":680:692   */\n      revert\n        /* \"#utility.yul\":705:823   */\n    tag_399:\n        /* \"#utility.yul\":791:796   */\n      dup1\n        /* \"#utility.yul\":784:797   */\n      iszero\n        /* \"#utility.yul\":777:798   */\n      iszero\n        /* \"#utility.yul\":770:775   */\n      dup2\n        /* \"#utility.yul\":767:799   */\n      eq\n        /* \"#utility.yul\":757:817   */\n      tag_418\n      jumpi\n        /* \"#utility.yul\":813:814   */\n      0x00\n        /* \"#utility.yul\":810:811   */\n      dup1\n        /* \"#utility.yul\":803:815   */\n      revert\n        /* \"#utility.yul\":757:817   */\n    tag_418:\n        /* \"#utility.yul\":705:823   */\n      pop\n      jump\t// out\n        /* \"#utility.yul\":828:956   */\n    tag_400:\n        /* \"#utility.yul\":893:913   */\n      dup1\n      calldataload\n        /* \"#utility.yul\":922:950   */\n      tag_414\n        /* \"#utility.yul\":893:913   */\n      dup2\n        /* \"#utility.yul\":922:950   */\n      tag_399\n      jump\t// in\n        /* \"#utility.yul\":961:1921   */\n    tag_401:\n        /* \"#utility.yul\":1012:1017   */\n      0x00\n        /* \"#utility.yul\":1060:1066   */\n      0x0160\n        /* \"#utility.yul\":1048:1057   */\n      dup3\n        /* \"#utility.yul\":1043:1046   */\n      dup5\n        /* \"#utility.yul\":1039:1058   */\n      sub\n        /* \"#utility.yul\":1035:1067   */\n      slt\n        /* \"#utility.yul\":1032:1084   */\n      iszero\n      tag_422\n      jumpi\n        /* \"#utility.yul\":1080:1081   */\n      0x00\n        /* \"#utility.yul\":1077:1078   */\n      dup1\n        /* \"#utility.yul\":1070:1082   */\n      revert\n        /* \"#utility.yul\":1032:1084   */\n    tag_422:\n        /* \"#utility.yul\":1102:1119   */\n      tag_423\n      tag_396\n      jump\t// in\n    tag_423:\n        /* \"#utility.yul\":1093:1119   */\n      swap1\n      pop\n        /* \"#utility.yul\":1155:1164   */\n      dup2\n        /* \"#utility.yul\":1142:1165   */\n      calldataload\n        /* \"#utility.yul\":1135:1140   */\n      dup2\n        /* \"#utility.yul\":1128:1166   */\n      mstore\n        /* \"#utility.yul\":1226:1228   */\n      0x20\n        /* \"#utility.yul\":1215:1224   */\n      dup3\n        /* \"#utility.yul\":1211:1229   */\n      add\n        /* \"#utility.yul\":1198:1230   */\n      calldataload\n        /* \"#utility.yul\":1193:1195   */\n      0x20\n        /* \"#utility.yul\":1186:1191   */\n      dup3\n        /* \"#utility.yul\":1182:1196   */\n      add\n        /* \"#utility.yul\":1175:1231   */\n      mstore\n        /* \"#utility.yul\":1291:1293   */\n      0x40\n        /* \"#utility.yul\":1280:1289   */\n      dup3\n        /* \"#utility.yul\":1276:1294   */\n      add\n        /* \"#utility.yul\":1263:1295   */\n      calldataload\n        /* \"#utility.yul\":1258:1260   */\n      0x40\n        /* \"#utility.yul\":1251:1256   */\n      dup3\n        /* \"#utility.yul\":1247:1261   */\n      add\n        /* \"#utility.yul\":1240:1296   */\n      mstore\n        /* \"#utility.yul\":1328:1364   */\n      tag_424\n        /* \"#utility.yul\":1360:1362   */\n      0x60\n        /* \"#utility.yul\":1349:1358   */\n      dup4\n        /* \"#utility.yul\":1345:1363   */\n      add\n        /* \"#utility.yul\":1328:1364   */\n      tag_397\n      jump\t// in\n    tag_424:\n        /* \"#utility.yul\":1323:1325   */\n      0x60\n        /* \"#utility.yul\":1316:1321   */\n      dup3\n        /* \"#utility.yul\":1312:1326   */\n      add\n        /* \"#utility.yul\":1305:1365   */\n      mstore\n        /* \"#utility.yul\":1426:1429   */\n      0x80\n        /* \"#utility.yul\":1415:1424   */\n      dup3\n        /* \"#utility.yul\":1411:1430   */\n      add\n        /* \"#utility.yul\":1398:1431   */\n      calldataload\n        /* \"#utility.yul\":1392:1395   */\n      0x80\n        /* \"#utility.yul\":1385:1390   */\n      dup3\n        /* \"#utility.yul\":1381:1396   */\n      add\n        /* \"#utility.yul\":1374:1432   */\n      mstore\n        /* \"#utility.yul\":1493:1496   */\n      0xa0\n        /* \"#utility.yul\":1482:1491   */\n      dup3\n        /* \"#utility.yul\":1478:1497   */\n      add\n        /* \"#utility.yul\":1465:1498   */\n      calldataload\n        /* \"#utility.yul\":1459:1462   */\n      0xa0\n        /* \"#utility.yul\":1452:1457   */\n      dup3\n        /* \"#utility.yul\":1448:1463   */\n      add\n        /* \"#utility.yul\":1441:1499   */\n      mstore\n        /* \"#utility.yul\":1532:1571   */\n      tag_425\n        /* \"#utility.yul\":1566:1569   */\n      0xc0\n        /* \"#utility.yul\":1555:1564   */\n      dup4\n        /* \"#utility.yul\":1551:1570   */\n      add\n        /* \"#utility.yul\":1532:1571   */\n      tag_398\n      jump\t// in\n    tag_425:\n        /* \"#utility.yul\":1526:1529   */\n      0xc0\n        /* \"#utility.yul\":1519:1524   */\n      dup3\n        /* \"#utility.yul\":1515:1530   */\n      add\n        /* \"#utility.yul\":1508:1572   */\n      mstore\n        /* \"#utility.yul\":1605:1641   */\n      tag_426\n        /* \"#utility.yul\":1636:1639   */\n      0xe0\n        /* \"#utility.yul\":1625:1634   */\n      dup4\n        /* \"#utility.yul\":1621:1640   */\n      add\n        /* \"#utility.yul\":1605:1641   */\n      tag_400\n      jump\t// in\n    tag_426:\n        /* \"#utility.yul\":1599:1602   */\n      0xe0\n        /* \"#utility.yul\":1592:1597   */\n      dup3\n        /* \"#utility.yul\":1588:1603   */\n      add\n        /* \"#utility.yul\":1581:1642   */\n      mstore\n        /* \"#utility.yul\":1661:1664   */\n      0x0100\n        /* \"#utility.yul\":1696:1731   */\n      tag_427\n        /* \"#utility.yul\":1727:1729   */\n      dup2\n        /* \"#utility.yul\":1716:1725   */\n      dup5\n        /* \"#utility.yul\":1712:1730   */\n      add\n        /* \"#utility.yul\":1696:1731   */\n      tag_400\n      jump\t// in\n    tag_427:\n        /* \"#utility.yul\":1680:1694   */\n      swap1\n      dup3\n      add\n        /* \"#utility.yul\":1673:1732   */\n      mstore\n        /* \"#utility.yul\":1751:1754   */\n      0x0120\n        /* \"#utility.yul\":1786:1821   */\n      tag_428\n        /* \"#utility.yul\":1802:1820   */\n      dup4\n      dup3\n      add\n        /* \"#utility.yul\":1786:1821   */\n      tag_400\n      jump\t// in\n    tag_428:\n        /* \"#utility.yul\":1770:1784   */\n      swap1\n      dup3\n      add\n        /* \"#utility.yul\":1763:1822   */\n      mstore\n        /* \"#utility.yul\":1841:1844   */\n      0x0140\n        /* \"#utility.yul\":1876:1914   */\n      tag_429\n        /* \"#utility.yul\":1895:1913   */\n      dup4\n      dup3\n      add\n        /* \"#utility.yul\":1876:1914   */\n      tag_398\n      jump\t// in\n    tag_429:\n        /* \"#utility.yul\":1860:1874   */\n      swap1\n      dup3\n      add\n        /* \"#utility.yul\":1853:1915   */\n      mstore\n        /* \"#utility.yul\":1864:1869   */\n      swap3\n        /* \"#utility.yul\":961:1921   */\n      swap2\n      pop\n      pop\n      jump\t// out\n        /* \"#utility.yul\":1926:2772   */\n    tag_402:\n        /* \"#utility.yul\":1983:1988   */\n      0x00\n        /* \"#utility.yul\":2031:2035   */\n      0xc0\n        /* \"#utility.yul\":2019:2028   */\n      dup3\n        /* \"#utility.yul\":2014:2017   */\n      dup5\n        /* \"#utility.yul\":2010:2029   */\n      sub\n        /* \"#utility.yul\":2006:2036   */\n      slt\n        /* \"#utility.yul\":2003:2053   */\n      iszero\n      tag_431\n      jumpi\n        /* \"#utility.yul\":2049:2050   */\n      0x00\n        /* \"#utility.yul\":2046:2047   */\n      dup1\n        /* \"#utility.yul\":2039:2051   */\n      revert\n        /* \"#utility.yul\":2003:2053   */\n    tag_431:\n        /* \"#utility.yul\":2082:2084   */\n      0x40\n        /* \"#utility.yul\":2076:2085   */\n      mload\n        /* \"#utility.yul\":2124:2128   */\n      0xc0\n        /* \"#utility.yul\":2116:2122   */\n      dup2\n        /* \"#utility.yul\":2112:2129   */\n      add\n        /* \"#utility.yul\":2195:2201   */\n      dup2\n        /* \"#utility.yul\":2183:2193   */\n      dup2\n        /* \"#utility.yul\":2180:2202   */\n      lt\n        /* \"#utility.yul\":2159:2177   */\n      0xffffffffffffffff\n        /* \"#utility.yul\":2147:2157   */\n      dup3\n        /* \"#utility.yul\":2144:2178   */\n      gt\n        /* \"#utility.yul\":2141:2203   */\n      or\n        /* \"#utility.yul\":2138:2323   */\n      iszero\n      tag_432\n      jumpi\n        /* \"#utility.yul\":2245:2255   */\n      0x4e487b71\n        /* \"#utility.yul\":2240:2243   */\n      0xe0\n        /* \"#utility.yul\":2236:2256   */\n      shl\n        /* \"#utility.yul\":2233:2234   */\n      0x00\n        /* \"#utility.yul\":2226:2257   */\n      mstore\n        /* \"#utility.yul\":2280:2284   */\n      0x41\n        /* \"#utility.yul\":2277:2278   */\n      0x04\n        /* \"#utility.yul\":2270:2285   */\n      mstore\n        /* \"#utility.yul\":2308:2312   */\n      0x24\n        /* \"#utility.yul\":2305:2306   */\n      0x00\n        /* \"#utility.yul\":2298:2313   */\n      revert\n        /* \"#utility.yul\":2138:2323   */\n    tag_432:\n        /* \"#utility.yul\":2339:2341   */\n      0x40\n        /* \"#utility.yul\":2332:2354   */\n      mstore\n        /* \"#utility.yul\":2372:2378   */\n      swap1\n      pop\n      dup1\n        /* \"#utility.yul\":2402:2431   */\n      tag_433\n        /* \"#utility.yul\":2421:2430   */\n      dup4\n        /* \"#utility.yul\":2402:2431   */\n      tag_398\n      jump\t// in\n    tag_433:\n        /* \"#utility.yul\":2394:2400   */\n      dup2\n        /* \"#utility.yul\":2387:2432   */\n      mstore\n        /* \"#utility.yul\":2493:2495   */\n      0x20\n        /* \"#utility.yul\":2482:2491   */\n      dup4\n        /* \"#utility.yul\":2478:2496   */\n      add\n        /* \"#utility.yul\":2465:2497   */\n      calldataload\n        /* \"#utility.yul\":2460:2462   */\n      0x20\n        /* \"#utility.yul\":2452:2458   */\n      dup3\n        /* \"#utility.yul\":2448:2463   */\n      add\n        /* \"#utility.yul\":2441:2498   */\n      mstore\n        /* \"#utility.yul\":2559:2561   */\n      0x40\n        /* \"#utility.yul\":2548:2557   */\n      dup4\n        /* \"#utility.yul\":2544:2562   */\n      add\n        /* \"#utility.yul\":2531:2563   */\n      calldataload\n        /* \"#utility.yul\":2526:2528   */\n      0x40\n        /* \"#utility.yul\":2518:2524   */\n      dup3\n        /* \"#utility.yul\":2514:2529   */\n      add\n        /* \"#utility.yul\":2507:2564   */\n      mstore\n        /* \"#utility.yul\":2625:2627   */\n      0x60\n        /* \"#utility.yul\":2614:2623   */\n      dup4\n        /* \"#utility.yul\":2610:2628   */\n      add\n        /* \"#utility.yul\":2597:2629   */\n      calldataload\n        /* \"#utility.yul\":2592:2594   */\n      0x60\n        /* \"#utility.yul\":2584:2590   */\n      dup3\n        /* \"#utility.yul\":2580:2595   */\n      add\n        /* \"#utility.yul\":2573:2630   */\n      mstore\n        /* \"#utility.yul\":2692:2695   */\n      0x80\n        /* \"#utility.yul\":2681:2690   */\n      dup4\n        /* \"#utility.yul\":2677:2696   */\n      add\n        /* \"#utility.yul\":2664:2697   */\n      calldataload\n        /* \"#utility.yul\":2658:2661   */\n      0x80\n        /* \"#utility.yul\":2650:2656   */\n      dup3\n        /* \"#utility.yul\":2646:2662   */\n      add\n        /* \"#utility.yul\":2639:2698   */\n      mstore\n        /* \"#utility.yul\":2760:2763   */\n      0xa0\n        /* \"#utility.yul\":2749:2758   */\n      dup4\n        /* \"#utility.yul\":2745:2764   */\n      add\n        /* \"#utility.yul\":2732:2765   */\n      calldataload\n        /* \"#utility.yul\":2726:2729   */\n      0xa0\n        /* \"#utility.yul\":2718:2724   */\n      dup3\n        /* \"#utility.yul\":2714:2730   */\n      add\n        /* \"#utility.yul\":2707:2766   */\n      mstore\n      pop\n        /* \"#utility.yul\":1926:2772   */\n      swap3\n      swap2\n      pop\n      pop\n      jump\t// out\n        /* \"#utility.yul\":2777:3121   */\n    tag_42:\n        /* \"#utility.yul\":2895:2901   */\n      0x00\n        /* \"#utility.yul\":2903:2909   */\n      dup1\n        /* \"#utility.yul\":2956:2959   */\n      0x0220\n        /* \"#utility.yul\":2944:2953   */\n      dup4\n        /* \"#utility.yul\":2935:2942   */\n      dup6\n        /* \"#utility.yul\":2931:2954   */\n      sub\n        /* \"#utility.yul\":2927:2960   */\n      slt\n        /* \"#utility.yul\":2924:2977   */\n      iszero\n      tag_435\n      jumpi\n        /* \"#utility.yul\":2973:2974   */\n      0x00\n        /* \"#utility.yul\":2970:2971   */\n      dup1\n        /* \"#utility.yul\":2963:2975   */\n      revert\n        /* \"#utility.yul\":2924:2977   */\n    tag_435:\n        /* \"#utility.yul\":2996:3038   */\n      tag_436\n        /* \"#utility.yul\":3030:3037   */\n      dup5\n        /* \"#utility.yul\":3019:3028   */\n      dup5\n        /* \"#utility.yul\":2996:3038   */\n      tag_401\n      jump\t// in\n    tag_436:\n        /* \"#utility.yul\":2986:3038   */\n      swap2\n      pop\n        /* \"#utility.yul\":3057:3115   */\n      tag_437\n        /* \"#utility.yul\":3107:3114   */\n      dup5\n        /* \"#utility.yul\":3101:3104   */\n      0x0160\n        /* \"#utility.yul\":3090:3099   */\n      dup6\n        /* \"#utility.yul\":3086:3105   */\n      add\n        /* \"#utility.yul\":3057:3115   */\n      tag_402\n      jump\t// in\n    tag_437:\n        /* \"#utility.yul\":3047:3115   */\n      swap1\n      pop\n        /* \"#utility.yul\":2777:3121   */\n      swap3\n      pop\n      swap3\n      swap1\n      pop\n      jump\t// out\n        /* \"#utility.yul\":3126:3312   */\n    tag_46:\n        /* \"#utility.yul\":3185:3191   */\n      0x00\n        /* \"#utility.yul\":3238:3240   */\n      0x20\n        /* \"#utility.yul\":3226:3235   */\n      dup3\n        /* \"#utility.yul\":3217:3224   */\n      dup5\n        /* \"#utility.yul\":3213:3236   */\n      sub\n        /* \"#utility.yul\":3209:3241   */\n      slt\n        /* \"#utility.yul\":3206:3258   */\n      iszero\n      tag_439\n      jumpi\n        /* \"#utility.yul\":3254:3255   */\n      0x00\n        /* \"#utility.yul\":3251:3252   */\n      dup1\n        /* \"#utility.yul\":3244:3256   */\n      revert\n        /* \"#utility.yul\":3206:3258   */\n    tag_439:\n        /* \"#utility.yul\":3277:3306   */\n      tag_440\n        /* \"#utility.yul\":3296:3305   */\n      dup3\n        /* \"#utility.yul\":3277:3306   */\n      tag_398\n      jump\t// in\n    tag_440:\n        /* \"#utility.yul\":3267:3306   */\n      swap4\n        /* \"#utility.yul\":3126:3312   */\n      swap3\n      pop\n      pop\n      pop\n      jump\t// out\n        /* \"#utility.yul\":3317:3551   */\n    tag_50:\n        /* \"#utility.yul\":3404:3410   */\n      0x00\n        /* \"#utility.yul\":3457:3460   */\n      0xc0\n        /* \"#utility.yul\":3445:3454   */\n      dup3\n        /* \"#utility.yul\":3436:3443   */\n      dup5\n        /* \"#utility.yul\":3432:3455   */\n      sub\n        /* \"#utility.yul\":3428:3461   */\n      slt\n        /* \"#utility.yul\":3425:3478   */\n      iszero\n      tag_442\n      jumpi\n        /* \"#utility.yul\":3474:3475   */\n      0x00\n        /* \"#utility.yul\":3471:3472   */\n      dup1\n        /* \"#utility.yul\":3464:3476   */\n      revert\n        /* \"#utility.yul\":3425:3478   */\n    tag_442:\n        /* \"#utility.yul\":3497:3545   */\n      tag_440\n        /* \"#utility.yul\":3537:3544   */\n      dup4\n        /* \"#utility.yul\":3526:3535   */\n      dup4\n        /* \"#utility.yul\":3497:3545   */\n      tag_402\n      jump\t// in\n        /* \"#utility.yul\":5236:5496   */\n    tag_74:\n        /* \"#utility.yul\":5304:5310   */\n      0x00\n        /* \"#utility.yul\":5312:5318   */\n      dup1\n        /* \"#utility.yul\":5365:5367   */\n      0x40\n        /* \"#utility.yul\":5353:5362   */\n      dup4\n        /* \"#utility.yul\":5344:5351   */\n      dup6\n        /* \"#utility.yul\":5340:5363   */\n      sub\n        /* \"#utility.yul\":5336:5368   */\n      slt\n        /* \"#utility.yul\":5333:5385   */\n      iszero\n      tag_451\n      jumpi\n        /* \"#utility.yul\":5381:5382   */\n      0x00\n        /* \"#utility.yul\":5378:5379   */\n      dup1\n        /* \"#utility.yul\":5371:5383   */\n      revert\n        /* \"#utility.yul\":5333:5385   */\n    tag_451:\n        /* \"#utility.yul\":5404:5433   */\n      tag_452\n        /* \"#utility.yul\":5423:5432   */\n      dup4\n        /* \"#utility.yul\":5404:5433   */\n      tag_398\n      jump\t// in\n    tag_452:\n        /* \"#utility.yul\":5394:5433   */\n      swap2\n      pop\n        /* \"#utility.yul\":5452:5490   */\n      tag_437\n        /* \"#utility.yul\":5486:5488   */\n      0x20\n        /* \"#utility.yul\":5475:5484   */\n      dup5\n        /* \"#utility.yul\":5471:5489   */\n      add\n        /* \"#utility.yul\":5452:5490   */\n      tag_398\n      jump\t// in\n        /* \"#utility.yul\":5724:5912   */\n    tag_406:\n        /* \"#utility.yul\":5792:5812   */\n      dup1\n      calldataload\n      sub(shl(0x80, 0x01), 0x01)\n        /* \"#utility.yul\":5841:5887   */\n      dup2\n      and\n        /* \"#utility.yul\":5831:5888   */\n      dup2\n      eq\n        /* \"#utility.yul\":5821:5906   */\n      tag_414\n      jumpi\n        /* \"#utility.yul\":5902:5903   */\n      0x00\n        /* \"#utility.yul\":5899:5900   */\n      dup1\n        /* \"#utility.yul\":5892:5904   */\n      revert\n        /* \"#utility.yul\":5917:6177   */\n    tag_93:\n        /* \"#utility.yul\":5985:5991   */\n      0x00\n        /* \"#utility.yul\":5993:5999   */\n      dup1\n        /* \"#utility.yul\":6046:6048   */\n      0x40\n        /* \"#utility.yul\":6034:6043   */\n      dup4\n        /* \"#utility.yul\":6025:6032   */\n      dup6\n        /* \"#utility.yul\":6021:6044   */\n      sub\n        /* \"#utility.yul\":6017:6049   */\n      slt\n        /* \"#utility.yul\":6014:6066   */\n      iszero\n      tag_458\n      jumpi\n        /* \"#utility.yul\":6062:6063   */\n      0x00\n        /* \"#utility.yul\":6059:6060   */\n      dup1\n        /* \"#utility.yul\":6052:6064   */\n      revert\n        /* \"#utility.yul\":6014:6066   */\n    tag_458:\n        /* \"#utility.yul\":6085:6114   */\n      tag_459\n        /* \"#utility.yul\":6104:6113   */\n      dup4\n        /* \"#utility.yul\":6085:6114   */\n      tag_398\n      jump\t// in\n    tag_459:\n        /* \"#utility.yul\":6075:6114   */\n      swap2\n      pop\n        /* \"#utility.yul\":6133:6171   */\n      tag_437\n        /* \"#utility.yul\":6167:6169   */\n      0x20\n        /* \"#utility.yul\":6156:6165   */\n      dup5\n        /* \"#utility.yul\":6152:6170   */\n      add\n        /* \"#utility.yul\":6133:6171   */\n      tag_406\n      jump\t// in\n        /* \"#utility.yul\":6182:7221   */\n    tag_407:\n        /* \"#utility.yul\":6258:6263   */\n      dup1\n        /* \"#utility.yul\":6252:6264   */\n      mload\n        /* \"#utility.yul\":6247:6250   */\n      dup3\n        /* \"#utility.yul\":6240:6265   */\n      mstore\n        /* \"#utility.yul\":6314:6318   */\n      0x20\n        /* \"#utility.yul\":6307:6312   */\n      dup2\n        /* \"#utility.yul\":6303:6319   */\n      add\n        /* \"#utility.yul\":6297:6320   */\n      mload\n        /* \"#utility.yul\":6290:6294   */\n      0x20\n        /* \"#utility.yul\":6285:6288   */\n      dup4\n        /* \"#utility.yul\":6281:6295   */\n      add\n        /* \"#utility.yul\":6274:6321   */\n      mstore\n        /* \"#utility.yul\":6370:6374   */\n      0x40\n        /* \"#utility.yul\":6363:6368   */\n      dup2\n        /* \"#utility.yul\":6359:6375   */\n      add\n        /* \"#utility.yul\":6353:6376   */\n      mload\n        /* \"#utility.yul\":6346:6350   */\n      0x40\n        /* \"#utility.yul\":6341:6344   */\n      dup4\n        /* \"#utility.yul\":6337:6351   */\n      add\n        /* \"#utility.yul\":6330:6377   */\n      mstore\n        /* \"#utility.yul\":6423:6427   */\n      0x60\n        /* \"#utility.yul\":6416:6421   */\n      dup2\n        /* \"#utility.yul\":6412:6428   */\n      add\n        /* \"#utility.yul\":6406:6429   */\n      mload\n        /* \"#utility.yul\":6438:6484   */\n      tag_462\n        /* \"#utility.yul\":6478:6482   */\n      0x60\n        /* \"#utility.yul\":6473:6476   */\n      dup5\n        /* \"#utility.yul\":6469:6483   */\n      add\n        /* \"#utility.yul\":6455:6467   */\n      dup3\n        /* \"#utility.yul\":3940:3944   */\n      0xff\n        /* \"#utility.yul\":3929:3945   */\n      and\n        /* \"#utility.yul\":3917:3946   */\n      swap1\n      mstore\n        /* \"#utility.yul\":3873:3948   */\n      jump\n        /* \"#utility.yul\":6438:6484   */\n    tag_462:\n      pop\n        /* \"#utility.yul\":6533:6537   */\n      0x80\n        /* \"#utility.yul\":6526:6531   */\n      dup2\n        /* \"#utility.yul\":6522:6538   */\n      add\n        /* \"#utility.yul\":6516:6539   */\n      mload\n        /* \"#utility.yul\":6509:6513   */\n      0x80\n        /* \"#utility.yul\":6504:6507   */\n      dup4\n        /* \"#utility.yul\":6500:6514   */\n      add\n        /* \"#utility.yul\":6493:6540   */\n      mstore\n        /* \"#utility.yul\":6589:6593   */\n      0xa0\n        /* \"#utility.yul\":6582:6587   */\n      dup2\n        /* \"#utility.yul\":6578:6594   */\n      add\n        /* \"#utility.yul\":6572:6595   */\n      mload\n        /* \"#utility.yul\":6565:6569   */\n      0xa0\n        /* \"#utility.yul\":6560:6563   */\n      dup4\n        /* \"#utility.yul\":6556:6570   */\n      add\n        /* \"#utility.yul\":6549:6596   */\n      mstore\n        /* \"#utility.yul\":6644:6648   */\n      0xc0\n        /* \"#utility.yul\":6637:6642   */\n      dup2\n        /* \"#utility.yul\":6633:6649   */\n      add\n        /* \"#utility.yul\":6627:6650   */\n      mload\n        /* \"#utility.yul\":6659:6709   */\n      tag_463\n        /* \"#utility.yul\":6703:6707   */\n      0xc0\n        /* \"#utility.yul\":6698:6701   */\n      dup5\n        /* \"#utility.yul\":6694:6708   */\n      add\n        /* \"#utility.yul\":6678:6692   */\n      dup3\n      sub(shl(0xa0, 0x01), 0x01)\n        /* \"#utility.yul\":3622:3653   */\n      and\n        /* \"#utility.yul\":3610:3654   */\n      swap1\n      mstore\n        /* \"#utility.yul\":3556:3660   */\n      jump\n        /* \"#utility.yul\":6659:6709   */\n    tag_463:\n      pop\n        /* \"#utility.yul\":6757:6761   */\n      0xe0\n        /* \"#utility.yul\":6750:6755   */\n      dup2\n        /* \"#utility.yul\":6746:6762   */\n      add\n        /* \"#utility.yul\":6740:6763   */\n      mload\n        /* \"#utility.yul\":6772:6819   */\n      tag_464\n        /* \"#utility.yul\":6813:6817   */\n      0xe0\n        /* \"#utility.yul\":6808:6811   */\n      dup5\n        /* \"#utility.yul\":6804:6818   */\n      add\n        /* \"#utility.yul\":6788:6802   */\n      dup3\n        /* \"#utility.yul\":4023:4036   */\n      iszero\n        /* \"#utility.yul\":4016:4037   */\n      iszero\n        /* \"#utility.yul\":4004:4038   */\n      swap1\n      mstore\n        /* \"#utility.yul\":3953:4044   */\n      jump\n        /* \"#utility.yul\":6772:6819   */\n    tag_464:\n      pop\n        /* \"#utility.yul\":6838:6844   */\n      0x0100\n        /* \"#utility.yul\":6881:6895   */\n      dup2\n      dup2\n      add\n        /* \"#utility.yul\":6875:6896   */\n      mload\n        /* \"#utility.yul\":4023:4036   */\n      iszero\n        /* \"#utility.yul\":4016:4037   */\n      iszero\n        /* \"#utility.yul\":6937:6949   */\n      swap1\n      dup4\n      add\n        /* \"#utility.yul\":4004:4038   */\n      mstore\n        /* \"#utility.yul\":6969:6975   */\n      0x0120\n        /* \"#utility.yul\":7012:7026   */\n      dup1\n      dup3\n      add\n        /* \"#utility.yul\":7006:7027   */\n      mload\n        /* \"#utility.yul\":4023:4036   */\n      iszero\n        /* \"#utility.yul\":4016:4037   */\n      iszero\n        /* \"#utility.yul\":7068:7080   */\n      swap1\n      dup4\n      add\n        /* \"#utility.yul\":4004:4038   */\n      mstore\n        /* \"#utility.yul\":7100:7106   */\n      0x0140\n        /* \"#utility.yul\":7143:7157   */\n      swap1\n      dup2\n      add\n        /* \"#utility.yul\":7137:7158   */\n      mload\n      sub(shl(0xa0, 0x01), 0x01)\n        /* \"#utility.yul\":3622:3653   */\n      and\n        /* \"#utility.yul\":7202:7214   */\n      swap2\n      add\n        /* \"#utility.yul\":3610:3654   */\n      mstore\n        /* \"#utility.yul\":6182:7221   */\n      jump\t// out\n        /* \"#utility.yul\":7226:7464   */\n    tag_96:\n        /* \"#utility.yul\":7404:7407   */\n      0x0160\n        /* \"#utility.yul\":7389:7408   */\n      dup2\n      add\n        /* \"#utility.yul\":7417:7458   */\n      tag_245\n        /* \"#utility.yul\":7393:7402   */\n      dup3\n        /* \"#utility.yul\":7440:7446   */\n      dup5\n        /* \"#utility.yul\":7417:7458   */\n      tag_407\n      jump\t// in\n        /* \"#utility.yul\":7469:7655   */\n    tag_99:\n        /* \"#utility.yul\":7528:7534   */\n      0x00\n        /* \"#utility.yul\":7581:7583   */\n      0x20\n        /* \"#utility.yul\":7569:7578   */\n      dup3\n        /* \"#utility.yul\":7560:7567   */\n      dup5\n        /* \"#utility.yul\":7556:7579   */\n      sub\n        /* \"#utility.yul\":7552:7584   */\n      slt\n        /* \"#utility.yul\":7549:7601   */\n      iszero\n      tag_471\n      jumpi\n        /* \"#utility.yul\":7597:7598   */\n      0x00\n        /* \"#utility.yul\":7594:7595   */\n      dup1\n        /* \"#utility.yul\":7587:7599   */\n      revert\n        /* \"#utility.yul\":7549:7601   */\n    tag_471:\n        /* \"#utility.yul\":7620:7649   */\n      tag_440\n        /* \"#utility.yul\":7639:7648   */\n      dup3\n        /* \"#utility.yul\":7620:7649   */\n      tag_406\n      jump\t// in\n        /* \"#utility.yul\":8226:8448   */\n    tag_112:\n        /* \"#utility.yul\":8307:8313   */\n      0x00\n        /* \"#utility.yul\":8360:8363   */\n      0x0160\n        /* \"#utility.yul\":8348:8357   */\n      dup3\n        /* \"#utility.yul\":8339:8346   */\n      dup5\n        /* \"#utility.yul\":8335:8358   */\n      sub\n        /* \"#utility.yul\":8331:8364   */\n      slt\n        /* \"#utility.yul\":8328:8381   */\n      iszero\n      tag_475\n      jumpi\n        /* \"#utility.yul\":8377:8378   */\n      0x00\n        /* \"#utility.yul\":8374:8375   */\n      dup1\n        /* \"#utility.yul\":8367:8379   */\n      revert\n        /* \"#utility.yul\":8328:8381   */\n    tag_475:\n        /* \"#utility.yul\":8400:8442   */\n      tag_440\n        /* \"#utility.yul\":8434:8441   */\n      dup4\n        /* \"#utility.yul\":8423:8432   */\n      dup4\n        /* \"#utility.yul\":8400:8442   */\n      tag_401\n      jump\t// in\n        /* \"#utility.yul\":8453:8787   */\n    tag_128:\n        /* \"#utility.yul\":8530:8536   */\n      0x00\n        /* \"#utility.yul\":8538:8544   */\n      dup1\n        /* \"#utility.yul\":8546:8552   */\n      0x00\n        /* \"#utility.yul\":8599:8601   */\n      0x60\n        /* \"#utility.yul\":8587:8596   */\n      dup5\n        /* \"#utility.yul\":8578:8585   */\n      dup7\n        /* \"#utility.yul\":8574:8597   */\n      sub\n        /* \"#utility.yul\":8570:8602   */\n      slt\n        /* \"#utility.yul\":8567:8619   */\n      iszero\n      tag_478\n      jumpi\n        /* \"#utility.yul\":8615:8616   */\n      0x00\n        /* \"#utility.yul\":8612:8613   */\n      dup1\n        /* \"#utility.yul\":8605:8617   */\n      revert\n        /* \"#utility.yul\":8567:8619   */\n    tag_478:\n        /* \"#utility.yul\":8638:8667   */\n      tag_479\n        /* \"#utility.yul\":8657:8666   */\n      dup5\n        /* \"#utility.yul\":8638:8667   */\n      tag_398\n      jump\t// in\n    tag_479:\n        /* \"#utility.yul\":8628:8667   */\n      swap3\n      pop\n        /* \"#utility.yul\":8686:8724   */\n      tag_480\n        /* \"#utility.yul\":8720:8722   */\n      0x20\n        /* \"#utility.yul\":8709:8718   */\n      dup6\n        /* \"#utility.yul\":8705:8723   */\n      add\n        /* \"#utility.yul\":8686:8724   */\n      tag_398\n      jump\t// in\n    tag_480:\n        /* \"#utility.yul\":8676:8724   */\n      swap2\n      pop\n        /* \"#utility.yul\":8743:8781   */\n      tag_481\n        /* \"#utility.yul\":8777:8779   */\n      0x40\n        /* \"#utility.yul\":8766:8775   */\n      dup6\n        /* \"#utility.yul\":8762:8780   */\n      add\n        /* \"#utility.yul\":8743:8781   */\n      tag_398\n      jump\t// in\n    tag_481:\n        /* \"#utility.yul\":8733:8781   */\n      swap1\n      pop\n        /* \"#utility.yul\":8453:8787   */\n      swap3\n      pop\n      swap3\n      pop\n      swap3\n      jump\t// out\n        /* \"#utility.yul\":8792:9392   */\n    tag_132:\n        /* \"#utility.yul\":8903:8909   */\n      0x00\n        /* \"#utility.yul\":8911:8917   */\n      dup1\n        /* \"#utility.yul\":8919:8925   */\n      0x00\n        /* \"#utility.yul\":8927:8933   */\n      dup1\n        /* \"#utility.yul\":8935:8941   */\n      0x00\n        /* \"#utility.yul\":8943:8949   */\n      dup1\n        /* \"#utility.yul\":8951:8957   */\n      0x00\n        /* \"#utility.yul\":9004:9007   */\n      0xe0\n        /* \"#utility.yul\":8992:9001   */\n      dup9\n        /* \"#utility.yul\":8983:8990   */\n      dup11\n        /* \"#utility.yul\":8979:9002   */\n      sub\n        /* \"#utility.yul\":8975:9008   */\n      slt\n        /* \"#utility.yul\":8972:9025   */\n      iszero\n      tag_483\n      jumpi\n        /* \"#utility.yul\":9021:9022   */\n      0x00\n        /* \"#utility.yul\":9018:9019   */\n      dup1\n        /* \"#utility.yul\":9011:9023   */\n      revert\n        /* \"#utility.yul\":8972:9025   */\n    tag_483:\n        /* \"#utility.yul\":9057:9066   */\n      dup8\n        /* \"#utility.yul\":9044:9067   */\n      calldataload\n        /* \"#utility.yul\":9034:9067   */\n      swap7\n      pop\n        /* \"#utility.yul\":9114:9116   */\n      0x20\n        /* \"#utility.yul\":9103:9112   */\n      dup9\n        /* \"#utility.yul\":9099:9117   */\n      add\n        /* \"#utility.yul\":9086:9118   */\n      calldataload\n        /* \"#utility.yul\":9076:9118   */\n      swap6\n      pop\n        /* \"#utility.yul\":9165:9167   */\n      0x40\n        /* \"#utility.yul\":9154:9163   */\n      dup9\n        /* \"#utility.yul\":9150:9168   */\n      add\n        /* \"#utility.yul\":9137:9169   */\n      calldataload\n        /* \"#utility.yul\":9127:9169   */\n      swap5\n      pop\n        /* \"#utility.yul\":9188:9224   */\n      tag_484\n        /* \"#utility.yul\":9220:9222   */\n      0x60\n        /* \"#utility.yul\":9209:9218   */\n      dup10\n        /* \"#utility.yul\":9205:9223   */\n      add\n        /* \"#utility.yul\":9188:9224   */\n      tag_397\n      jump\t// in\n    tag_484:\n        /* \"#utility.yul\":9178:9224   */\n      swap4\n      pop\n        /* \"#utility.yul\":9271:9274   */\n      0x80\n        /* \"#utility.yul\":9260:9269   */\n      dup9\n        /* \"#utility.yul\":9256:9275   */\n      add\n        /* \"#utility.yul\":9243:9276   */\n      calldataload\n        /* \"#utility.yul\":9233:9276   */\n      swap3\n      pop\n        /* \"#utility.yul\":9323:9326   */\n      0xa0\n        /* \"#utility.yul\":9312:9321   */\n      dup9\n        /* \"#utility.yul\":9308:9327   */\n      add\n        /* \"#utility.yul\":9295:9328   */\n      calldataload\n        /* \"#utility.yul\":9285:9328   */\n      swap2\n      pop\n        /* \"#utility.yul\":9347:9386   */\n      tag_485\n        /* \"#utility.yul\":9381:9384   */\n      0xc0\n        /* \"#utility.yul\":9370:9379   */\n      dup10\n        /* \"#utility.yul\":9366:9385   */\n      add\n        /* \"#utility.yul\":9347:9386   */\n      tag_398\n      jump\t// in\n    tag_485:\n        /* \"#utility.yul\":9337:9386   */\n      swap1\n      pop\n        /* \"#utility.yul\":8792:9392   */\n      swap3\n      swap6\n      swap9\n      swap2\n      swap5\n      swap8\n      pop\n      swap3\n      swap6\n      pop\n      jump\t// out\n        /* \"#utility.yul\":9397:9642   */\n    tag_159:\n        /* \"#utility.yul\":9464:9470   */\n      0x00\n        /* \"#utility.yul\":9517:9519   */\n      0x20\n        /* \"#utility.yul\":9505:9514   */\n      dup3\n        /* \"#utility.yul\":9496:9503   */\n      dup5\n        /* \"#utility.yul\":9492:9515   */\n      sub\n        /* \"#utility.yul\":9488:9520   */\n      slt\n        /* \"#utility.yul\":9485:9537   */\n      iszero\n      tag_487\n      jumpi\n        /* \"#utility.yul\":9533:9534   */\n      0x00\n        /* \"#utility.yul\":9530:9531   */\n      dup1\n        /* \"#utility.yul\":9523:9535   */\n      revert\n        /* \"#utility.yul\":9485:9537   */\n    tag_487:\n        /* \"#utility.yul\":9565:9574   */\n      dup2\n        /* \"#utility.yul\":9559:9575   */\n      mload\n        /* \"#utility.yul\":9584:9612   */\n      tag_440\n        /* \"#utility.yul\":9606:9611   */\n      dup2\n        /* \"#utility.yul\":9584:9612   */\n      tag_399\n      jump\t// in\n        /* \"#utility.yul\":9647:10050   */\n    tag_162:\n        /* \"#utility.yul\":9849:9851   */\n      0x20\n        /* \"#utility.yul\":9831:9852   */\n      dup1\n      dup3\n      mstore\n        /* \"#utility.yul\":9888:9890   */\n      0x27\n        /* \"#utility.yul\":9868:9886   */\n      swap1\n      dup3\n      add\n        /* \"#utility.yul\":9861:9891   */\n      mstore\n        /* \"#utility.yul\":9927:9961   */\n      0x7468652063616c6c6572206d7573742062652076616c6964206d61726b657420\n        /* \"#utility.yul\":9922:9924   */\n      0x40\n        /* \"#utility.yul\":9907:9925   */\n      dup3\n      add\n        /* \"#utility.yul\":9900:9962   */\n      mstore\n      shl(0xc9, 0x36b0b730b3b2b9)\n        /* \"#utility.yul\":9993:9995   */\n      0x60\n        /* \"#utility.yul\":9978:9996   */\n      dup3\n      add\n        /* \"#utility.yul\":9971:10008   */\n      mstore\n        /* \"#utility.yul\":10040:10043   */\n      0x80\n        /* \"#utility.yul\":10025:10044   */\n      add\n      swap1\n        /* \"#utility.yul\":9647:10050   */\n      jump\t// out\n        /* \"#utility.yul\":10402:10696   */\n    tag_169:\n      sub(shl(0x80, 0x01), 0x01)\n        /* \"#utility.yul\":10524:10534   */\n      dup2\n      dup2\n      and\n        /* \"#utility.yul\":10536:10546   */\n      dup4\n      dup3\n      and\n        /* \"#utility.yul\":10520:10547   */\n      add\n      swap1\n        /* \"#utility.yul\":10559:10570   */\n      dup1\n      dup3\n      gt\n        /* \"#utility.yul\":10556:10690   */\n      iszero\n      tag_492\n      jumpi\n        /* \"#utility.yul\":10612:10622   */\n      0x4e487b71\n        /* \"#utility.yul\":10607:10610   */\n      0xe0\n        /* \"#utility.yul\":10603:10623   */\n      shl\n        /* \"#utility.yul\":10600:10601   */\n      0x00\n        /* \"#utility.yul\":10593:10624   */\n      mstore\n        /* \"#utility.yul\":10647:10651   */\n      0x11\n        /* \"#utility.yul\":10644:10645   */\n      0x04\n        /* \"#utility.yul\":10637:10652   */\n      mstore\n        /* \"#utility.yul\":10675:10679   */\n      0x24\n        /* \"#utility.yul\":10672:10673   */\n      0x00\n        /* \"#utility.yul\":10665:10680   */\n      revert\n        /* \"#utility.yul\":10556:10690   */\n    tag_492:\n      pop\n        /* \"#utility.yul\":10402:10696   */\n      swap3\n      swap2\n      pop\n      pop\n      jump\t// out\n        /* \"#utility.yul\":10701:11036   */\n    tag_174:\n      sub(shl(0xa0, 0x01), 0x01)\n        /* \"#utility.yul\":10938:10970   */\n      dup4\n      and\n        /* \"#utility.yul\":10920:10971   */\n      dup2\n      mstore\n        /* \"#utility.yul\":10907:10910   */\n      0x0180\n        /* \"#utility.yul\":10892:10911   */\n      dup2\n      add\n        /* \"#utility.yul\":10980:11030   */\n      tag_440\n        /* \"#utility.yul\":11026:11028   */\n      0x20\n        /* \"#utility.yul\":11011:11029   */\n      dup4\n      add\n        /* \"#utility.yul\":11003:11009   */\n      dup5\n        /* \"#utility.yul\":10980:11030   */\n      tag_407\n      jump\t// in\n        /* \"#utility.yul\":11398:11744   */\n    tag_189:\n        /* \"#utility.yul\":11600:11602   */\n      0x20\n        /* \"#utility.yul\":11582:11603   */\n      dup1\n      dup3\n      mstore\n        /* \"#utility.yul\":11639:11641   */\n      0x16\n        /* \"#utility.yul\":11619:11637   */\n      swap1\n      dup3\n      add\n        /* \"#utility.yul\":11612:11642   */\n      mstore\n      shl(0x50, 0x74686520636f696e206973206e6f7420657869737473)\n        /* \"#utility.yul\":11673:11675   */\n      0x40\n        /* \"#utility.yul\":11658:11676   */\n      dup3\n      add\n        /* \"#utility.yul\":11651:11703   */\n      mstore\n        /* \"#utility.yul\":11735:11737   */\n      0x60\n        /* \"#utility.yul\":11720:11738   */\n      add\n      swap1\n        /* \"#utility.yul\":11398:11744   */\n      jump\t// out\n        /* \"#utility.yul\":12107:12453   */\n    tag_228:\n        /* \"#utility.yul\":12309:12311   */\n      0x20\n        /* \"#utility.yul\":12291:12312   */\n      dup1\n      dup3\n      mstore\n        /* \"#utility.yul\":12348:12350   */\n      0x16\n        /* \"#utility.yul\":12328:12346   */\n      swap1\n      dup3\n      add\n        /* \"#utility.yul\":12321:12351   */\n      mstore\n      shl(0x52, 0x1e5bdd481a185d99481b9bdd081d1a19481c9a59da1d)\n        /* \"#utility.yul\":12382:12384   */\n      0x40\n        /* \"#utility.yul\":12367:12385   */\n      dup3\n      add\n        /* \"#utility.yul\":12360:12412   */\n      mstore\n        /* \"#utility.yul\":12444:12446   */\n      0x60\n        /* \"#utility.yul\":12429:12447   */\n      add\n      swap1\n        /* \"#utility.yul\":12107:12453   */\n      jump\t// out\n        /* \"#utility.yul\":14456:15713   */\n    tag_336:\n      sub(shl(0xa0, 0x01), 0x01)\n        /* \"#utility.yul\":14728:14743   */\n      dup4\n      dup2\n      and\n        /* \"#utility.yul\":14710:14744   */\n      dup3\n      mstore\n        /* \"#utility.yul\":14780:14793   */\n      dup3\n      sload\n        /* \"#utility.yul\":14775:14777   */\n      0x20\n        /* \"#utility.yul\":14760:14778   */\n      dup4\n      add\n        /* \"#utility.yul\":14753:14794   */\n      mstore\n        /* \"#utility.yul\":14699:14700   */\n      0x01\n        /* \"#utility.yul\":14836:14853   */\n      dup4\n      add\n        /* \"#utility.yul\":14830:14854   */\n      sload\n        /* \"#utility.yul\":14825:14827   */\n      0x40\n        /* \"#utility.yul\":14810:14828   */\n      dup4\n      add\n        /* \"#utility.yul\":14803:14855   */\n      mstore\n        /* \"#utility.yul\":14909:14913   */\n      0x02\n        /* \"#utility.yul\":14897:14914   */\n      dup4\n      add\n        /* \"#utility.yul\":14891:14915   */\n      sload\n        /* \"#utility.yul\":14886:14888   */\n      0x60\n        /* \"#utility.yul\":14871:14889   */\n      dup4\n      add\n        /* \"#utility.yul\":14864:14916   */\n      mstore\n        /* \"#utility.yul\":15004:15008   */\n      0x03\n        /* \"#utility.yul\":14992:15009   */\n      dup4\n      add\n        /* \"#utility.yul\":14986:15010   */\n      sload\n        /* \"#utility.yul\":14659:14662   */\n      0x0180\n        /* \"#utility.yul\":14644:14663   */\n      dup4\n      add\n      swap2\n        /* \"#utility.yul\":14682:14701   */\n      swap1\n        /* \"#utility.yul\":14297:14301   */\n      0xff\n        /* \"#utility.yul\":14281:14302   */\n      and\n        /* \"#utility.yul\":3940:3944   */\n      0xff\n        /* \"#utility.yul\":3929:3945   */\n      dup2\n      and\n        /* \"#utility.yul\":15066:15069   */\n      0x80\n        /* \"#utility.yul\":15051:15070   */\n      dup6\n      add\n        /* \"#utility.yul\":3917:3946   */\n      mstore\n      pop\n        /* \"#utility.yul\":15126:15130   */\n      0x04\n        /* \"#utility.yul\":15114:15131   */\n      dup5\n      add\n        /* \"#utility.yul\":15108:15132   */\n      sload\n        /* \"#utility.yul\":15102:15105   */\n      0xa0\n        /* \"#utility.yul\":15087:15106   */\n      dup5\n      add\n        /* \"#utility.yul\":15080:15133   */\n      mstore\n        /* \"#utility.yul\":15188:15192   */\n      0x05\n        /* \"#utility.yul\":15176:15193   */\n      dup5\n      add\n        /* \"#utility.yul\":15170:15194   */\n      sload\n        /* \"#utility.yul\":15164:15167   */\n      0xc0\n        /* \"#utility.yul\":15149:15168   */\n      dup5\n      add\n        /* \"#utility.yul\":15142:15195   */\n      mstore\n        /* \"#utility.yul\":15239:15243   */\n      0x06\n        /* \"#utility.yul\":15227:15244   */\n      dup5\n      add\n        /* \"#utility.yul\":15221:15245   */\n      sload\n      sub(shl(0xa0, 0x01), 0x01)\n        /* \"#utility.yul\":15273:15291   */\n      dup3\n      dup3\n      and\n        /* \"#utility.yul\":3622:3653   */\n      and\n        /* \"#utility.yul\":15308:15311   */\n      0xe0\n        /* \"#utility.yul\":15293:15312   */\n      dup6\n      add\n        /* \"#utility.yul\":3610:3654   */\n      mstore\n        /* \"#utility.yul\":15322:15390   */\n      tag_510\n        /* \"#utility.yul\":15385:15388   */\n      0x0100\n        /* \"#utility.yul\":15374:15383   */\n      dup6\n        /* \"#utility.yul\":15370:15389   */\n      add\n        /* \"#utility.yul\":15363:15367   */\n      0xff\n        /* \"#utility.yul\":15351:15360   */\n      dup4\n        /* \"#utility.yul\":15346:15349   */\n      0xa0\n        /* \"#utility.yul\":15342:15361   */\n      shr\n        /* \"#utility.yul\":15338:15368   */\n      and\n        /* \"#utility.yul\":4023:4036   */\n      iszero\n        /* \"#utility.yul\":4016:4037   */\n      iszero\n        /* \"#utility.yul\":4004:4038   */\n      swap1\n      mstore\n        /* \"#utility.yul\":3953:4044   */\n      jump\n        /* \"#utility.yul\":15322:15390   */\n    tag_510:\n        /* \"#utility.yul\":15399:15467   */\n      tag_511\n        /* \"#utility.yul\":15462:15465   */\n      0x0120\n        /* \"#utility.yul\":15451:15460   */\n      dup6\n        /* \"#utility.yul\":15447:15466   */\n      add\n        /* \"#utility.yul\":15440:15444   */\n      0xff\n        /* \"#utility.yul\":15428:15437   */\n      dup4\n        /* \"#utility.yul\":15423:15426   */\n      0xa8\n        /* \"#utility.yul\":15419:15438   */\n      shr\n        /* \"#utility.yul\":15415:15445   */\n      and\n        /* \"#utility.yul\":4023:4036   */\n      iszero\n        /* \"#utility.yul\":4016:4037   */\n      iszero\n        /* \"#utility.yul\":4004:4038   */\n      swap1\n      mstore\n        /* \"#utility.yul\":3953:4044   */\n      jump\n        /* \"#utility.yul\":15399:15467   */\n    tag_511:\n        /* \"#utility.yul\":15476:15544   */\n      tag_512\n        /* \"#utility.yul\":15539:15542   */\n      0x0140\n        /* \"#utility.yul\":15528:15537   */\n      dup6\n        /* \"#utility.yul\":15524:15543   */\n      add\n        /* \"#utility.yul\":15517:15521   */\n      0xff\n        /* \"#utility.yul\":15505:15514   */\n      dup4\n        /* \"#utility.yul\":15500:15503   */\n      0xb0\n        /* \"#utility.yul\":15496:15515   */\n      shr\n        /* \"#utility.yul\":15492:15522   */\n      and\n        /* \"#utility.yul\":4023:4036   */\n      iszero\n        /* \"#utility.yul\":4016:4037   */\n      iszero\n        /* \"#utility.yul\":4004:4038   */\n      swap1\n      mstore\n        /* \"#utility.yul\":3953:4044   */\n      jump\n        /* \"#utility.yul\":15476:15544   */\n    tag_512:\n      pop\n      pop\n        /* \"#utility.yul\":15636:15640   */\n      0x07\n        /* \"#utility.yul\":15624:15641   */\n      swap3\n      swap1\n      swap3\n      add\n        /* \"#utility.yul\":15618:15642   */\n      sload\n      sub(shl(0xa0, 0x01), 0x01)\n        /* \"#utility.yul\":14409:14445   */\n      and\n        /* \"#utility.yul\":15702:15705   */\n      0x0160\n        /* \"#utility.yul\":15687:15706   */\n      swap2\n      swap1\n      swap2\n      add\n        /* \"#utility.yul\":3610:3654   */\n      mstore\n        /* \"#utility.yul\":14456:15713   */\n      swap2\n      swap1\n      pop\n      jump\t// out\n\n    auxdata: 0xa264697066735822122029228487629944f5f16222dab5aa2111cb469c7b972673b9f990be7fa1375a0f64736f6c63430008120033\n}\n",
				"bytecode": {
					"linkReferences": {},
					"object": "60806040523480156200001157600080fd5b50604051620030d8380380620030d8833981016040819052620000349162000094565b600580546001600160a01b039485166001600160a01b031991821617909155600680549385169382169390931790925560078054919093169116179055620000de565b80516001600160a01b03811681146200008f57600080fd5b919050565b600080600060608486031215620000aa57600080fd5b620000b58462000077565b9250620000c56020850162000077565b9150620000d56040850162000077565b90509250925092565b612fea80620000ee6000396000f3fe608060405234801561001057600080fd5b50600436106101da5760003560e01c8063690e178411610104578063b244cb29116100a2578063d25b9e5811610071578063d25b9e58146105f0578063d848b5ba14610603578063f022f4171461062c578063f8eeb6651461063f57600080fd5b8063b244cb29146105a4578063c23a9da2146105b7578063c6e39898146105ca578063d04dc91e146105dd57600080fd5b80637c3e2f02116100de5780637c3e2f021461055857806392a59f1f1461056b5780639e2c608c1461057e578063b20be2b41461059157600080fd5b8063690e17841461048d5780636cedf640146104c1578063798fdafa1461054557600080fd5b8063385e4b7a1161017c57806347d0a6341161014b57806347d0a63414610434578063492b71071461044757806354d393181461045a5780635e2c93141461047a57600080fd5b8063385e4b7a146103905780633e68d831146103a357806340e7bdc3146103ef578063441eb5481461042157600080fd5b80631d3b8f67116101b85780631d3b8f671461021a57806327cbaabe1461022d57806331ecdeb81461025d578063328320bf1461034a57600080fd5b806307cb20e8146101df57806311cfa0bc146101f4578063128e641d14610207575b600080fd5b6101f26101ed366004612b68565b610652565b005b6101f2610202366004612b9f565b610ad7565b6101f2610215366004612bc1565b610d29565b6101f2610228366004612b9f565b610e4f565b600754610240906001600160a01b031681565b6040516001600160a01b0390911681526020015b60405180910390f35b6102e061026b366004612b9f565b60036020819052600091825260409091208054600182015460028301549383015460048401546005850154600686015460079096015494969395939460ff93841694929391926001600160a01b0380821693600160a01b8304811693600160a81b8404821693600160b01b900490911691168b565b604080519b8c5260208c019a909a52988a019790975260ff9095166060890152608088019390935260a08701919091526001600160a01b0390811660c087015290151560e08601529015156101008501529015156101208401521661014082015261016001610254565b610380610358366004612b9f565b6001600160a01b0316600090815260036020526040902060060154600160a01b900460ff1690565b6040519015158152602001610254565b6101f261039e366004612b9f565b610f34565b6103d76103b1366004612bdd565b60026020908152600092835260408084209091529082529020546001600160801b031681565b6040516001600160801b039091168152602001610254565b6103d76103fd366004612b9f565b6001600160a01b03166000908152602081905260409020546001600160801b031690565b6101f261042f366004612b9f565b61105c565b600554610240906001600160a01b031681565b600654610240906001600160a01b031681565b61046d610468366004612c1e565b61117e565b6040516102549190612ce7565b6101f2610488366004612cf6565b6112a0565b61024061049b366004612c1e565b60016020908152600092835260408084209091529082529020546001600160a01b031681565b61050e6104cf366004612b9f565b60046020819052600091825260409091208054600182015460028301546003840154948401546005909401546001600160a01b03909316949193909286565b604080516001600160a01b0390971687526020870195909552938501929092526060840152608083015260a082015260c001610254565b6101f2610553366004612d11565b611406565b6101f2610566366004612b9f565b6115ee565b6101f2610579366004612b9f565b61176f565b6101f261058c366004612d11565b6118db565b6101f261059f366004612b9f565b611beb565b6101f26105b2366004612d2e565b611cca565b6101f26105c5366004612d71565b611d63565b6101f26105d8366004612bc1565b611eb3565b6101f26105eb366004612d11565b611fa9565b61046d6105fe366004612b9f565b612310565b6103d7610611366004612b9f565b6000602081905290815260409020546001600160801b031681565b6101f261063a366004612cf6565b612414565b6101f261064d366004612b68565b61258f565b60055460405163601c214960e11b81523360048201526001600160a01b039091169063c038429290602401602060405180830381865afa15801561069a573d6000803e3d6000fd5b505050506040513d601f19601f820116820180604052508101906106be9190612dd4565b6106e35760405162461bcd60e51b81526004016106da90612df1565b60405180910390fd5b60c08201516001600160a01b0316600090815260036020526040902060060154600160b01b900460ff1615156001036107535760405162461bcd60e51b81526020600482015260126024820152711d1a194818dbda5b881a5cc808195e1a5cdd60721b60448201526064016106da565b336101408301819052600060e08401819052610100840181905260016101208501819052918152602081905260409020546001600160801b0316108015906107c65750336000908152602081905260409020546001600160801b03166107ba816001612e38565b6001600160801b031610155b1561081d573360009081526020819052604081208054600192906107f49084906001600160801b0316612e38565b92506101000a8154816001600160801b0302191690836001600160801b0316021790555061083e565b33600090815260208190526040902080546001600160801b03191660011790555b60c08201805133600081815260016020818152604080842084835281852080546001600160801b03908116875291845282862080546001600160a01b03998a166001600160a01b031991821617909155878752905460028086528488208b518b168952865284882080546001600160801b03191692909416919091179092558851881686526003808552958390208b518155938b015194840194909455818a0151908301556060890151938201805460ff90951660ff19909516949094179093556080880151600482015560a08801516005820155945160068601805460e08a01516101008b01516101208c01511515600160b01b0260ff60b01b19911515600160a81b029190911661ffff60a81b19921515600160a01b026001600160a81b0319909416958a1695909517929092171692909217919091179055610140870151600790950180549590941694169390931790915590517f724ed868ad6195ec663de17364300ee1e1956f27f184ceb84f2be30d1fd58d65916109c2918590612e6d565b60405180910390a180516001600160a01b03908116600090815260036020526040902060070154163314610a385760405162461bcd60e51b815260206004820152601c60248201527f796f75206973206e6f7420746865207468696e6720637265617465720000000060448201526064016106da565b80516001600160a01b03908116600090815260046020818152604092839020855181546001600160a01b031916951694851781558186015160018201558386015160028201556060860151600382015560808601519281019290925560a085015160059092019190915590519182527f28995a3cc31b8867e272bf05bb4f577da5e81799e17cf729d123edf7c2a7ca9491015b60405180910390a15050565b60065460405163038c332960e51b81523360048201526001600160a01b0390911690637186652090602401602060405180830381865afa158015610b1f573d6000803e3d6000fd5b505050506040513d601f19601f82011682018060405250810190610b439190612dd4565b610b5f5760405162461bcd60e51b81526004016106da90612df1565b6001600160a01b0381166000908152600360205260409020600601805460ff60b01b1916600160b01b1790556006546001600160a01b039081166000908152600260209081526040808320938516835292905220546001600160801b0316610c095760405162461bcd60e51b815260206004820152601d60248201527f74686520636f696e206973202065786973747320696e206d61726b657400000060448201526064016106da565b6006546001600160a01b03166000908152602081905260409020546001600160801b031660018110801590610c5a57506001600160801b038116610c4e826001612e38565b6001600160801b031610155b15610c7157610c6a600182612e38565b9050610c75565b5060015b600680546001600160a01b0390811660009081526020818152604080832080546001600160801b03199081166001600160801b03891690811790925586548616855260018452828520828652845282852080546001600160a01b0319168a881690811790915596549095168452600283528184208685528352928190208054909416909217909255519182527f787b8074a2db1bf64dac1e916753253472acc7c1fff144fae6d14142860d890b9101610acb565b60065460405163038c332960e51b81523360048201526001600160a01b0390911690637186652090602401602060405180830381865afa158015610d71573d6000803e3d6000fd5b505050506040513d601f19601f82011682018060405250810190610d959190612dd4565b610db15760405162461bcd60e51b81526004016106da90612df1565b80516001600160a01b03908116600090815260046020818152604092839020855181546001600160a01b031916951694851781558186015160018201558386015160028201556060860151600382015560808601519281019290925560a085015160059092019190915590519182527f28995a3cc31b8867e272bf05bb4f577da5e81799e17cf729d123edf7c2a7ca9491015b60405180910390a150565b60065460405163038c332960e51b81523360048201526001600160a01b0390911690637186652090602401602060405180830381865afa158015610e97573d6000803e3d6000fd5b505050506040513d601f19601f82011682018060405250810190610ebb9190612dd4565b610ed75760405162461bcd60e51b81526004016106da90612df1565b6001600160a01b038116600081815260036020908152604091829020600601805460ff60a01b1916600160a01b17905590519182527fac01100c10be15fec1a42f8249abc04b81a28e731feab3e60a2a962f74eff9d89101610e44565b60055460405163601c214960e11b81523360048201526001600160a01b039091169063c038429290602401602060405180830381865afa158015610f7c573d6000803e3d6000fd5b505050506040513d601f19601f82011682018060405250810190610fa09190612dd4565b610fbc5760405162461bcd60e51b81526004016106da90612df1565b6001600160a01b03818116600090815260036020526040902060070154163314610ff85760405162461bcd60e51b81526004016106da90612ebb565b6001600160a01b038116600081815260036020908152604091829020600601805460ff60a81b1916600160a81b1790558151338152908101929092527f91f5df1a13ccd890776a683fdcef0b553ce7ac24fbe9609bb51aeb9fefed82a49101610e44565b60055460405163601c214960e11b81523360048201526001600160a01b039091169063c038429290602401602060405180830381865afa1580156110a4573d6000803e3d6000fd5b505050506040513d601f19601f820116820180604052508101906110c89190612dd4565b6110e45760405162461bcd60e51b81526004016106da90612df1565b6001600160a01b038181166000908152600360205260409020600701541633146111205760405162461bcd60e51b81526004016106da90612ebb565b6001600160a01b038116600081815260036020908152604091829020600601805460ff60a81b191690558151338152908101929092527f4807c3daa091febea14280167243bd513929ce4fe91170ef6536aebad0ede29b9101610e44565b611186612946565b6001600160a01b038316600090815260036020526040902060060154600160b01b900460ff1615156001146111cd5760405162461bcd60e51b81526004016106da90612e8b565b506001600160a01b0380831660009081526001602081815260408084206001600160801b0387168552825280842054851684526003808352938190208151610160810183528154815293810154928401929092526002820154908301529182015460ff908116606083015260048301546080830152600583015460a0830152600683015480851660c0840152600160a01b81048216151560e0840152600160a81b810482161515610100840152600160b01b90041615156101208201526007909101549091166101408201525b92915050565b60055460405163601c214960e11b81523360048201526001600160a01b039091169063c038429290602401602060405180830381865afa1580156112e8573d6000803e3d6000fd5b505050506040513d601f19601f8201168201806040525081019061130c9190612dd4565b6113285760405162461bcd60e51b81526004016106da90612df1565b3360009081526001602090815260408083206001600160801b03851684529091529020546001600160a01b03166113715760405162461bcd60e51b81526004016106da90612e8b565b336000818152600260209081526040808320600183528184206001600160801b03871680865281855283862080546001600160a01b0316875292855283862080546001600160801b031916905594859052835280546001600160a01b03191690558051938452908301919091527f4edb2517e4d5299dd19c1ce662d404d108ffed8f91bc76838771edae5fac7c439101610e44565b60065460405163038c332960e51b81523360048201526001600160a01b0390911690637186652090602401602060405180830381865afa15801561144e573d6000803e3d6000fd5b505050506040513d601f19601f820116820180604052508101906114729190612dd4565b61148e5760405162461bcd60e51b81526004016106da90612df1565b600680546001600160a01b03908116600090815260026020818152604080842060c08801805187168652908352600160e089018181526101008a018781526101208b0183815284518a1689526003808852868a206007908101548c166101408f0190815287518d168c52828a529a8890208e518155988e0151958901959095558c8701519888019890985560608c0151978701805460ff191660ff9099169890981790975560808b0151600487015560a08b01516005870155925198850180549151935196519989166001600160a81b031990921691909117600160a01b931515939093029290921761ffff60a81b1916600160a81b9515159590950260ff60b01b191694909417600160b01b97151597909702969096179095559151910180546001600160a01b03191691909216179055517f7ef1a4c6cd6954cc6f68ac195814a83775046e46054eb12bf4b6619ba234f58b90610e44908390612ce7565b60065460405163038c332960e51b81523360048201526001600160a01b0390911690637186652090602401602060405180830381865afa158015611636573d6000803e3d6000fd5b505050506040513d601f19601f8201168201806040525081019061165a9190612dd4565b6116765760405162461bcd60e51b81526004016106da90612df1565b6006546001600160a01b0390811660009081526002602090815260408083209385168352929052205460016001600160801b0390911610156116ca5760405162461bcd60e51b81526004016106da90612e8b565b600680546001600160a01b0390811660009081526001602090815260408083206002808452828520888716808752908552838620546001600160801b0316865291845282852080546001600160a01b03191690559554909416835293815283822083835281529083902080546001600160801b031916905591519081527f95fb8f03172737716db3e279a3cafdb96c41b3ff1ca3cedc215a7770838c1c5b9101610e44565b60055460405163601c214960e11b81523360048201526001600160a01b039091169063c038429290602401602060405180830381865afa1580156117b7573d6000803e3d6000fd5b505050506040513d601f19601f820116820180604052508101906117db9190612dd4565b6117f75760405162461bcd60e51b81526004016106da90612df1565b3360009081526002602090815260408083206001600160a01b038516845290915290205460016001600160801b0390911610156118465760405162461bcd60e51b81526004016106da90612e8b565b336000818152600160209081526040808320600283528184206001600160a01b03871680865281855283862080546001600160801b0316875292855283862080546001600160a01b031916905594859052835280546001600160801b03191690558051938452908301919091527fad5eeaa2ee1bef6674ecea21b9329a0a9333380eaf145a4b888951038c8aa40c9101610e44565b60065460405163038c332960e51b81523360048201526001600160a01b0390911690637186652090602401602060405180830381865afa158015611923573d6000803e3d6000fd5b505050506040513d601f19601f820116820180604052508101906119479190612dd4565b6119635760405162461bcd60e51b81526004016106da90612df1565b60c08101516001600160a01b0316600090815260036020526040902060060154600160b01b900460ff1615156001036119cf5760405162461bcd60e51b815260206004820152600e60248201526d1d1a194818dbda5b88195e1a5cdd60921b60448201526064016106da565b33610140820152600060e082018190526001610100830181905261012083018190526006546001600160a01b0316825260208290526040909120546001600160801b0316908110801590611a3f57506001600160801b038116611a33826001612e38565b6001600160801b031610155b15611a5657611a4f600182612e38565b9050611a5a565b5060015b600680546001600160a01b0390811660009081526020818152604080832080546001600160801b0388166001600160801b0319918216811790925560c089018051885488168752600180875285882085895287528588208054928a166001600160a01b0319938416179055895489168852600280885286892084518b168a52885286892080549095169095179093558151881687526003808752968590208b518155958b01519286019290925589840151928501929092556060890151948401805460ff90961660ff19909616959095179094556080880151600484015560a0880151600584015551948201805460e08901516101008a01516101208b01511515600160b01b0260ff60b01b19911515600160a81b029190911661ffff60a81b19921515600160a01b026001600160a81b0319909416998916999099179290921716969096179590951790945561014086015160079091018054919093169116179055517f3fdeabf9cf0f252033e117e3bf501c16a9e905759535453a989a37bbb55557cb90610acb908490612ce7565b60065460405163038c332960e51b81523360048201526001600160a01b0390911690637186652090602401602060405180830381865afa158015611c33573d6000803e3d6000fd5b505050506040513d601f19601f82011682018060405250810190611c579190612dd4565b611c735760405162461bcd60e51b81526004016106da90612df1565b6001600160a01b038116600081815260036020908152604091829020600601805460ff60a01b1916905590519182527f1d4523355c952f926d43eb41085d74f46339403039ec5258081efa96ea26edd79101610e44565b6007546001600160a01b03163314611d245760405162461bcd60e51b815260206004820152601960248201527f796f7520617265206e6f74206d61726b6574637265617465720000000000000060448201526064016106da565b600680546001600160a01b039485166001600160a01b031991821617909155600580549385169382169390931790925560078054919093169116179055565b60055460405163601c214960e11b81523360048201526001600160a01b039091169063c038429290602401602060405180830381865afa158015611dab573d6000803e3d6000fd5b505050506040513d601f19601f82011682018060405250810190611dcf9190612dd4565b611deb5760405162461bcd60e51b81526004016106da90612df1565b6001600160a01b03818116600090815260036020526040902060070154163314611e275760405162461bcd60e51b81526004016106da90612ebb565b6001600160a01b0381166000908152600360208190526040918290208981556001810189905560028101889055908101805460ff191660ff8816179055600481018590556005810184905590517fe2cf3d7794282be7dd508f8c88ca5394f0abe2b9f09b848306b1eadd0becdf9491611ea291339190612eeb565b60405180910390a150505050505050565b60055460405163601c214960e11b81523360048201526001600160a01b039091169063c038429290602401602060405180830381865afa158015611efb573d6000803e3d6000fd5b505050506040513d601f19601f82011682018060405250810190611f1f9190612dd4565b611f3b5760405162461bcd60e51b81526004016106da90612df1565b80516001600160a01b03908116600090815260036020526040902060070154163314610db15760405162461bcd60e51b815260206004820152601c60248201527f796f75206973206e6f7420746865207468696e6720637265617465720000000060448201526064016106da565b60055460405163601c214960e11b81523360048201526001600160a01b039091169063c038429290602401602060405180830381865afa158015611ff1573d6000803e3d6000fd5b505050506040513d601f19601f820116820180604052508101906120159190612dd4565b6120315760405162461bcd60e51b81526004016106da90612df1565b60c08101516001600160a01b0316600090815260036020526040902060060154600160b01b900460ff1615156001036120a15760405162461bcd60e51b81526020600482015260126024820152711d1a194818dbda5b881a5cc808195e1a5cdd60721b60448201526064016106da565b336101408201819052600060e08301819052610100830181905260016101208401819052918152602081905260409020546001600160801b0316108015906121145750336000908152602081905260409020546001600160801b0316612108816001612e38565b6001600160801b031610155b1561216b573360009081526020819052604081208054600192906121429084906001600160801b0316612e38565b92506101000a8154816001600160801b0302191690836001600160801b0316021790555061218c565b33600090815260208190526040902080546001600160801b03191660011790555b60c08101805133600081815260016020818152604080842084835281852080546001600160801b03908116875291845282862080546001600160a01b03998a166001600160a01b031991821617909155878752905460028086528488208b518b168952865284882080546001600160801b03191692909416919091179092558851881686526003808552958390208a518155938a01519484019490945581890151908301556060880151938201805460ff90951660ff19909516949094179093556080870151600482015560a08701516005820155945160068601805460e08901516101008a01516101208b01511515600160b01b0260ff60b01b19911515600160a81b029190911661ffff60a81b19921515600160a01b026001600160a81b0319909416958a1695909517929092171692909217919091179055610140860151600790950180549590941694169390931790915590517f724ed868ad6195ec663de17364300ee1e1956f27f184ceb84f2be30d1fd58d6591610e44918490612e6d565b612318612946565b6001600160a01b038216600090815260036020526040902060060154600160b01b900460ff16151560011461235f5760405162461bcd60e51b81526004016106da90612e8b565b506001600160a01b03908116600090815260036020818152604092839020835161016081018552815481526001820154928101929092526002810154938201939093529082015460ff908116606083015260048301546080830152600583015460a0830152600683015480851660c0840152600160a01b81048216151560e0840152600160a81b810482161515610100840152600160b01b900416151561012082015260079091015490911661014082015290565b60065460405163038c332960e51b81523360048201526001600160a01b0390911690637186652090602401602060405180830381865afa15801561245c573d6000803e3d6000fd5b505050506040513d601f19601f820116820180604052508101906124809190612dd4565b61249c5760405162461bcd60e51b81526004016106da90612df1565b6006546001600160a01b0390811660009081526001602090815260408083206001600160801b0386168452909152902054166124ea5760405162461bcd60e51b81526004016106da90612e8b565b600680546001600160a01b03908116600090815260026020908152604080832060018084528285206001600160801b038916808752908552838620548716865291845282852080546001600160801b03191690559554909416835293815283822083835281529083902080546001600160a01b031916905591519081527f5f7c082ccca0f36ec2622a3f2d11cf4a4b3a0db0557669195572256a1db6be989101610e44565b60065460405163038c332960e51b81523360048201526001600160a01b0390911690637186652090602401602060405180830381865afa1580156125d7573d6000803e3d6000fd5b505050506040513d601f19601f820116820180604052508101906125fb9190612dd4565b6126175760405162461bcd60e51b81526004016106da90612df1565b60c08201516001600160a01b0316600090815260036020526040902060060154600160b01b900460ff1615156001036126835760405162461bcd60e51b815260206004820152600e60248201526d1d1a194818dbda5b88195e1a5cdd60921b60448201526064016106da565b33610140830152600060e083018190526001610100840181905261012084018190526006546001600160a01b0316825260208290526040909120546001600160801b03169081108015906126f357506001600160801b0381166126e7826001612e38565b6001600160801b031610155b1561270a57612703600182612e38565b905061270e565b5060015b600680546001600160a01b0390811660009081526020818152604080832080546001600160801b0388166001600160801b0319918216811790925560c08a018051885488168752600180875285882085895287528588208054928a166001600160a01b0319938416179055895489168852600280885286892084518b168a52885286892080549095169095179093558151881687526003808752968590208c518155958c0151928601929092558a8401519285019290925560608a0151948401805460ff90961660ff19909616959095179094556080890151600484015560a0890151600584015551948201805460e08a01516101008b01516101208c01511515600160b01b0260ff60b01b19911515600160a81b029190911661ffff60a81b19921515600160a01b026001600160a81b0319909416998916999099179290921716969096179590951790945561014087015160079091018054919093169116179055517f3fdeabf9cf0f252033e117e3bf501c16a9e905759535453a989a37bbb55557cb9061289f908590612ce7565b60405180910390a181516001600160a01b03908116600090815260046020818152604092839020865181546001600160a01b031916951694851781558187015160018201558387015160028201556060870151600382015560808701519281019290925560a086015160059092019190915590519182527f28995a3cc31b8867e272bf05bb4f577da5e81799e17cf729d123edf7c2a7ca94910160405180910390a1505050565b6040805161016081018252600080825260208201819052918101829052606081018290526080810182905260a0810182905260c0810182905260e081018290526101008101829052610120810182905261014081019190915290565b604051610160810167ffffffffffffffff811182821017156129d457634e487b7160e01b600052604160045260246000fd5b60405290565b803560ff811681146129eb57600080fd5b919050565b80356001600160a01b03811681146129eb57600080fd5b8015158114612a1557600080fd5b50565b80356129eb81612a07565b60006101608284031215612a3657600080fd5b612a3e6129a2565b9050813581526020820135602082015260408201356040820152612a64606083016129da565b60608201526080820135608082015260a082013560a0820152612a8960c083016129f0565b60c0820152612a9a60e08301612a18565b60e0820152610100612aad818401612a18565b90820152610120612abf838201612a18565b90820152610140612ad18382016129f0565b9082015292915050565b600060c08284031215612aed57600080fd5b60405160c0810181811067ffffffffffffffff82111715612b1e57634e487b7160e01b600052604160045260246000fd5b604052905080612b2d836129f0565b81526020830135602082015260408301356040820152606083013560608201526080830135608082015260a083013560a08201525092915050565b6000806102208385031215612b7c57600080fd5b612b868484612a23565b9150612b96846101608501612adb565b90509250929050565b600060208284031215612bb157600080fd5b612bba826129f0565b9392505050565b600060c08284031215612bd357600080fd5b612bba8383612adb565b60008060408385031215612bf057600080fd5b612bf9836129f0565b9150612b96602084016129f0565b80356001600160801b03811681146129eb57600080fd5b60008060408385031215612c3157600080fd5b612c3a836129f0565b9150612b9660208401612c07565b8051825260208101516020830152604081015160408301526060810151612c74606084018260ff169052565b506080810151608083015260a081015160a083015260c0810151612ca360c08401826001600160a01b03169052565b5060e0810151612cb760e084018215159052565b506101008181015115159083015261012080820151151590830152610140908101516001600160a01b0316910152565b610160810161129a8284612c48565b600060208284031215612d0857600080fd5b612bba82612c07565b60006101608284031215612d2457600080fd5b612bba8383612a23565b600080600060608486031215612d4357600080fd5b612d4c846129f0565b9250612d5a602085016129f0565b9150612d68604085016129f0565b90509250925092565b600080600080600080600060e0888a031215612d8c57600080fd5b873596506020880135955060408801359450612daa606089016129da565b93506080880135925060a08801359150612dc660c089016129f0565b905092959891949750929550565b600060208284031215612de657600080fd5b8151612bba81612a07565b60208082526027908201527f7468652063616c6c6572206d7573742062652076616c6964206d61726b65742060408201526636b0b730b3b2b960c91b606082015260800190565b6001600160801b03818116838216019080821115612e6657634e487b7160e01b600052601160045260246000fd5b5092915050565b6001600160a01b03831681526101808101612bba6020830184612c48565b60208082526016908201527574686520636f696e206973206e6f742065786973747360501b604082015260600190565b6020808252601690820152751e5bdd481a185d99481b9bdd081d1a19481c9a59da1d60521b604082015260600190565b6001600160a01b03838116825282546020830152600183015460408301526002830154606083015260038301546101808301919060ff1660ff8116608085015250600484015460a0840152600584015460c084015260068401546001600160a01b038282161660e0850152612f6b610100850160ff8360a01c1615159052565b612f80610120850160ff8360a81c1615159052565b612f95610140850160ff8360b01c1615159052565b5050600792909201546001600160a01b0316610160919091015291905056fea264697066735822122029228487629944f5f16222dab5aa2111cb469c7b972673b9f990be7fa1375a0f64736f6c63430008120033",
					"opcodes": "PUSH1 0x80 PUSH1 0x40 MSTORE CALLVALUE DUP1 ISZERO PUSH3 0x11 JUMPI PUSH1 0x0 DUP1 REVERT JUMPDEST POP PUSH1 0x40 MLOAD PUSH3 0x30D8 CODESIZE SUB DUP1 PUSH3 0x30D8 DUP4 CODECOPY DUP2 ADD PUSH1 0x40 DUP2 SWAP1 MSTORE PUSH3 0x34 SWAP2 PUSH3 0x94 JUMP JUMPDEST PUSH1 0x5 DUP1 SLOAD PUSH1 0x1 PUSH1 0x1 PUSH1 0xA0 SHL SUB SWAP5 DUP6 AND PUSH1 0x1 PUSH1 0x1 PUSH1 0xA0 SHL SUB NOT SWAP2 DUP3 AND OR SWAP1 SWAP2 SSTORE PUSH1 0x6 DUP1 SLOAD SWAP4 DUP6 AND SWAP4 DUP3 AND SWAP4 SWAP1 SWAP4 OR SWAP1 SWAP3 SSTORE PUSH1 0x7 DUP1 SLOAD SWAP2 SWAP1 SWAP4 AND SWAP2 AND OR SWAP1 SSTORE PUSH3 0xDE JUMP JUMPDEST DUP1 MLOAD PUSH1 0x1 PUSH1 0x1 PUSH1 0xA0 SHL SUB DUP2 AND DUP2 EQ PUSH3 0x8F JUMPI PUSH1 0x0 DUP1 REVERT JUMPDEST SWAP2 SWAP1 POP JUMP JUMPDEST PUSH1 0x0 DUP1 PUSH1 0x0 PUSH1 0x60 DUP5 DUP7 SUB SLT ISZERO PUSH3 0xAA JUMPI PUSH1 0x0 DUP1 REVERT JUMPDEST PUSH3 0xB5 DUP5 PUSH3 0x77 JUMP JUMPDEST SWAP3 POP PUSH3 0xC5 PUSH1 0x20 DUP6 ADD PUSH3 0x77 JUMP JUMPDEST SWAP2 POP PUSH3 0xD5 PUSH1 0x40 DUP6 ADD PUSH3 0x77 JUMP JUMPDEST SWAP1 POP SWAP3 POP SWAP3 POP SWAP3 JUMP JUMPDEST PUSH2 0x2FEA DUP1 PUSH3 0xEE PUSH1 0x0 CODECOPY PUSH1 0x0 RETURN INVALID PUSH1 0x80 PUSH1 0x40 MSTORE CALLVALUE DUP1 ISZERO PUSH2 0x10 JUMPI PUSH1 0x0 DUP1 REVERT JUMPDEST POP PUSH1 0x4 CALLDATASIZE LT PUSH2 0x1DA JUMPI PUSH1 0x0 CALLDATALOAD PUSH1 0xE0 SHR DUP1 PUSH4 0x690E1784 GT PUSH2 0x104 JUMPI DUP1 PUSH4 0xB244CB29 GT PUSH2 0xA2 JUMPI DUP1 PUSH4 0xD25B9E58 GT PUSH2 0x71 JUMPI DUP1 PUSH4 0xD25B9E58 EQ PUSH2 0x5F0 JUMPI DUP1 PUSH4 0xD848B5BA EQ PUSH2 0x603 JUMPI DUP1 PUSH4 0xF022F417 EQ PUSH2 0x62C JUMPI DUP1 PUSH4 0xF8EEB665 EQ PUSH2 0x63F JUMPI PUSH1 0x0 DUP1 REVERT JUMPDEST DUP1 PUSH4 0xB244CB29 EQ PUSH2 0x5A4 JUMPI DUP1 PUSH4 0xC23A9DA2 EQ PUSH2 0x5B7 JUMPI DUP1 PUSH4 0xC6E39898 EQ PUSH2 0x5CA JUMPI DUP1 PUSH4 0xD04DC91E EQ PUSH2 0x5DD JUMPI PUSH1 0x0 DUP1 REVERT JUMPDEST DUP1 PUSH4 0x7C3E2F02 GT PUSH2 0xDE JUMPI DUP1 PUSH4 0x7C3E2F02 EQ PUSH2 0x558 JUMPI DUP1 PUSH4 0x92A59F1F EQ PUSH2 0x56B JUMPI DUP1 PUSH4 0x9E2C608C EQ PUSH2 0x57E JUMPI DUP1 PUSH4 0xB20BE2B4 EQ PUSH2 0x591 JUMPI PUSH1 0x0 DUP1 REVERT JUMPDEST DUP1 PUSH4 0x690E1784 EQ PUSH2 0x48D JUMPI DUP1 PUSH4 0x6CEDF640 EQ PUSH2 0x4C1 JUMPI DUP1 PUSH4 0x798FDAFA EQ PUSH2 0x545 JUMPI PUSH1 0x0 DUP1 REVERT JUMPDEST DUP1 PUSH4 0x385E4B7A GT PUSH2 0x17C JUMPI DUP1 PUSH4 0x47D0A634 GT PUSH2 0x14B JUMPI DUP1 PUSH4 0x47D0A634 EQ PUSH2 0x434 JUMPI DUP1 PUSH4 0x492B7107 EQ PUSH2 0x447 JUMPI DUP1 PUSH4 0x54D39318 EQ PUSH2 0x45A JUMPI DUP1 PUSH4 0x5E2C9314 EQ PUSH2 0x47A JUMPI PUSH1 0x0 DUP1 REVERT JUMPDEST DUP1 PUSH4 0x385E4B7A EQ PUSH2 0x390 JUMPI DUP1 PUSH4 0x3E68D831 EQ PUSH2 0x3A3 JUMPI DUP1 PUSH4 0x40E7BDC3 EQ PUSH2 0x3EF JUMPI DUP1 PUSH4 0x441EB548 EQ PUSH2 0x421 JUMPI PUSH1 0x0 DUP1 REVERT JUMPDEST DUP1 PUSH4 0x1D3B8F67 GT PUSH2 0x1B8 JUMPI DUP1 PUSH4 0x1D3B8F67 EQ PUSH2 0x21A JUMPI DUP1 PUSH4 0x27CBAABE EQ PUSH2 0x22D JUMPI DUP1 PUSH4 0x31ECDEB8 EQ PUSH2 0x25D JUMPI DUP1 PUSH4 0x328320BF EQ PUSH2 0x34A JUMPI PUSH1 0x0 DUP1 REVERT JUMPDEST DUP1 PUSH4 0x7CB20E8 EQ PUSH2 0x1DF JUMPI DUP1 PUSH4 0x11CFA0BC EQ PUSH2 0x1F4 JUMPI DUP1 PUSH4 0x128E641D EQ PUSH2 0x207 JUMPI JUMPDEST PUSH1 0x0 DUP1 REVERT JUMPDEST PUSH2 0x1F2 PUSH2 0x1ED CALLDATASIZE PUSH1 0x4 PUSH2 0x2B68 JUMP JUMPDEST PUSH2 0x652 JUMP JUMPDEST STOP JUMPDEST PUSH2 0x1F2 PUSH2 0x202 CALLDATASIZE PUSH1 0x4 PUSH2 0x2B9F JUMP JUMPDEST PUSH2 0xAD7 JUMP JUMPDEST PUSH2 0x1F2 PUSH2 0x215 CALLDATASIZE PUSH1 0x4 PUSH2 0x2BC1 JUMP JUMPDEST PUSH2 0xD29 JUMP JUMPDEST PUSH2 0x1F2 PUSH2 0x228 CALLDATASIZE PUSH1 0x4 PUSH2 0x2B9F JUMP JUMPDEST PUSH2 0xE4F JUMP JUMPDEST PUSH1 0x7 SLOAD PUSH2 0x240 SWAP1 PUSH1 0x1 PUSH1 0x1 PUSH1 0xA0 SHL SUB AND DUP2 JUMP JUMPDEST PUSH1 0x40 MLOAD PUSH1 0x1 PUSH1 0x1 PUSH1 0xA0 SHL SUB SWAP1 SWAP2 AND DUP2 MSTORE PUSH1 0x20 ADD JUMPDEST PUSH1 0x40 MLOAD DUP1 SWAP2 SUB SWAP1 RETURN JUMPDEST PUSH2 0x2E0 PUSH2 0x26B CALLDATASIZE PUSH1 0x4 PUSH2 0x2B9F JUMP JUMPDEST PUSH1 0x3 PUSH1 0x20 DUP2 SWAP1 MSTORE PUSH1 0x0 SWAP2 DUP3 MSTORE PUSH1 0x40 SWAP1 SWAP2 KECCAK256 DUP1 SLOAD PUSH1 0x1 DUP3 ADD SLOAD PUSH1 0x2 DUP4 ADD SLOAD SWAP4 DUP4 ADD SLOAD PUSH1 0x4 DUP5 ADD SLOAD PUSH1 0x5 DUP6 ADD SLOAD PUSH1 0x6 DUP7 ADD SLOAD PUSH1 0x7 SWAP1 SWAP7 ADD SLOAD SWAP5 SWAP7 SWAP4 SWAP6 SWAP4 SWAP5 PUSH1 0xFF SWAP4 DUP5 AND SWAP5 SWAP3 SWAP4 SWAP2 SWAP3 PUSH1 0x1 PUSH1 0x1 PUSH1 0xA0 SHL SUB DUP1 DUP3 AND SWAP4 PUSH1 0x1 PUSH1 0xA0 SHL DUP4 DIV DUP2 AND SWAP4 PUSH1 0x1 PUSH1 0xA8 SHL DUP5 DIV DUP3 AND SWAP4 PUSH1 0x1 PUSH1 0xB0 SHL SWAP1 DIV SWAP1 SWAP2 AND SWAP2 AND DUP12 JUMP JUMPDEST PUSH1 0x40 DUP1 MLOAD SWAP12 DUP13 MSTORE PUSH1 0x20 DUP13 ADD SWAP11 SWAP1 SWAP11 MSTORE SWAP9 DUP11 ADD SWAP8 SWAP1 SWAP8 MSTORE PUSH1 0xFF SWAP1 SWAP6 AND PUSH1 0x60 DUP10 ADD MSTORE PUSH1 0x80 DUP9 ADD SWAP4 SWAP1 SWAP4 MSTORE PUSH1 0xA0 DUP8 ADD SWAP2 SWAP1 SWAP2 MSTORE PUSH1 0x1 PUSH1 0x1 PUSH1 0xA0 SHL SUB SWAP1 DUP2 AND PUSH1 0xC0 DUP8 ADD MSTORE SWAP1 ISZERO ISZERO PUSH1 0xE0 DUP7 ADD MSTORE SWAP1 ISZERO ISZERO PUSH2 0x100 DUP6 ADD MSTORE SWAP1 ISZERO ISZERO PUSH2 0x120 DUP5 ADD MSTORE AND PUSH2 0x140 DUP3 ADD MSTORE PUSH2 0x160 ADD PUSH2 0x254 JUMP JUMPDEST PUSH2 0x380 PUSH2 0x358 CALLDATASIZE PUSH1 0x4 PUSH2 0x2B9F JUMP JUMPDEST PUSH1 0x1 PUSH1 0x1 PUSH1 0xA0 SHL SUB AND PUSH1 0x0 SWAP1 DUP2 MSTORE PUSH1 0x3 PUSH1 0x20 MSTORE PUSH1 0x40 SWAP1 KECCAK256 PUSH1 0x6 ADD SLOAD PUSH1 0x1 PUSH1 0xA0 SHL SWAP1 DIV PUSH1 0xFF AND SWAP1 JUMP JUMPDEST PUSH1 0x40 MLOAD SWAP1 ISZERO ISZERO DUP2 MSTORE PUSH1 0x20 ADD PUSH2 0x254 JUMP JUMPDEST PUSH2 0x1F2 PUSH2 0x39E CALLDATASIZE PUSH1 0x4 PUSH2 0x2B9F JUMP JUMPDEST PUSH2 0xF34 JUMP JUMPDEST PUSH2 0x3D7 PUSH2 0x3B1 CALLDATASIZE PUSH1 0x4 PUSH2 0x2BDD JUMP JUMPDEST PUSH1 0x2 PUSH1 0x20 SWAP1 DUP2 MSTORE PUSH1 0x0 SWAP3 DUP4 MSTORE PUSH1 0x40 DUP1 DUP5 KECCAK256 SWAP1 SWAP2 MSTORE SWAP1 DUP3 MSTORE SWAP1 KECCAK256 SLOAD PUSH1 0x1 PUSH1 0x1 PUSH1 0x80 SHL SUB AND DUP2 JUMP JUMPDEST PUSH1 0x40 MLOAD PUSH1 0x1 PUSH1 0x1 PUSH1 0x80 SHL SUB SWAP1 SWAP2 AND DUP2 MSTORE PUSH1 0x20 ADD PUSH2 0x254 JUMP JUMPDEST PUSH2 0x3D7 PUSH2 0x3FD CALLDATASIZE PUSH1 0x4 PUSH2 0x2B9F JUMP JUMPDEST PUSH1 0x1 PUSH1 0x1 PUSH1 0xA0 SHL SUB AND PUSH1 0x0 SWAP1 DUP2 MSTORE PUSH1 0x20 DUP2 SWAP1 MSTORE PUSH1 0x40 SWAP1 KECCAK256 SLOAD PUSH1 0x1 PUSH1 0x1 PUSH1 0x80 SHL SUB AND SWAP1 JUMP JUMPDEST PUSH2 0x1F2 PUSH2 0x42F CALLDATASIZE PUSH1 0x4 PUSH2 0x2B9F JUMP JUMPDEST PUSH2 0x105C JUMP JUMPDEST PUSH1 0x5 SLOAD PUSH2 0x240 SWAP1 PUSH1 0x1 PUSH1 0x1 PUSH1 0xA0 SHL SUB AND DUP2 JUMP JUMPDEST PUSH1 0x6 SLOAD PUSH2 0x240 SWAP1 PUSH1 0x1 PUSH1 0x1 PUSH1 0xA0 SHL SUB AND DUP2 JUMP JUMPDEST PUSH2 0x46D PUSH2 0x468 CALLDATASIZE PUSH1 0x4 PUSH2 0x2C1E JUMP JUMPDEST PUSH2 0x117E JUMP JUMPDEST PUSH1 0x40 MLOAD PUSH2 0x254 SWAP2 SWAP1 PUSH2 0x2CE7 JUMP JUMPDEST PUSH2 0x1F2 PUSH2 0x488 CALLDATASIZE PUSH1 0x4 PUSH2 0x2CF6 JUMP JUMPDEST PUSH2 0x12A0 JUMP JUMPDEST PUSH2 0x240 PUSH2 0x49B CALLDATASIZE PUSH1 0x4 PUSH2 0x2C1E JUMP JUMPDEST PUSH1 0x1 PUSH1 0x20 SWAP1 DUP2 MSTORE PUSH1 0x0 SWAP3 DUP4 MSTORE PUSH1 0x40 DUP1 DUP5 KECCAK256 SWAP1 SWAP2 MSTORE SWAP1 DUP3 MSTORE SWAP1 KECCAK256 SLOAD PUSH1 0x1 PUSH1 0x1 PUSH1 0xA0 SHL SUB AND DUP2 JUMP JUMPDEST PUSH2 0x50E PUSH2 0x4CF CALLDATASIZE PUSH1 0x4 PUSH2 0x2B9F JUMP JUMPDEST PUSH1 0x4 PUSH1 0x20 DUP2 SWAP1 MSTORE PUSH1 0x0 SWAP2 DUP3 MSTORE PUSH1 0x40 SWAP1 SWAP2 KECCAK256 DUP1 SLOAD PUSH1 0x1 DUP3 ADD SLOAD PUSH1 0x2 DUP4 ADD SLOAD PUSH1 0x3 DUP5 ADD SLOAD SWAP5 DUP5 ADD SLOAD PUSH1 0x5 SWAP1 SWAP5 ADD SLOAD PUSH1 0x1 PUSH1 0x1 PUSH1 0xA0 SHL SUB SWAP1 SWAP4 AND SWAP5 SWAP2 SWAP4 SWAP1 SWAP3 DUP7 JUMP JUMPDEST PUSH1 0x40 DUP1 MLOAD PUSH1 0x1 PUSH1 0x1 PUSH1 0xA0 SHL SUB SWAP1 SWAP8 AND DUP8 MSTORE PUSH1 0x20 DUP8 ADD SWAP6 SWAP1 SWAP6 MSTORE SWAP4 DUP6 ADD SWAP3 SWAP1 SWAP3 MSTORE PUSH1 0x60 DUP5 ADD MSTORE PUSH1 0x80 DUP4 ADD MSTORE PUSH1 0xA0 DUP3 ADD MSTORE PUSH1 0xC0 ADD PUSH2 0x254 JUMP JUMPDEST PUSH2 0x1F2 PUSH2 0x553 CALLDATASIZE PUSH1 0x4 PUSH2 0x2D11 JUMP JUMPDEST PUSH2 0x1406 JUMP JUMPDEST PUSH2 0x1F2 PUSH2 0x566 CALLDATASIZE PUSH1 0x4 PUSH2 0x2B9F JUMP JUMPDEST PUSH2 0x15EE JUMP JUMPDEST PUSH2 0x1F2 PUSH2 0x579 CALLDATASIZE PUSH1 0x4 PUSH2 0x2B9F JUMP JUMPDEST PUSH2 0x176F JUMP JUMPDEST PUSH2 0x1F2 PUSH2 0x58C CALLDATASIZE PUSH1 0x4 PUSH2 0x2D11 JUMP JUMPDEST PUSH2 0x18DB JUMP JUMPDEST PUSH2 0x1F2 PUSH2 0x59F CALLDATASIZE PUSH1 0x4 PUSH2 0x2B9F JUMP JUMPDEST PUSH2 0x1BEB JUMP JUMPDEST PUSH2 0x1F2 PUSH2 0x5B2 CALLDATASIZE PUSH1 0x4 PUSH2 0x2D2E JUMP JUMPDEST PUSH2 0x1CCA JUMP JUMPDEST PUSH2 0x1F2 PUSH2 0x5C5 CALLDATASIZE PUSH1 0x4 PUSH2 0x2D71 JUMP JUMPDEST PUSH2 0x1D63 JUMP JUMPDEST PUSH2 0x1F2 PUSH2 0x5D8 CALLDATASIZE PUSH1 0x4 PUSH2 0x2BC1 JUMP JUMPDEST PUSH2 0x1EB3 JUMP JUMPDEST PUSH2 0x1F2 PUSH2 0x5EB CALLDATASIZE PUSH1 0x4 PUSH2 0x2D11 JUMP JUMPDEST PUSH2 0x1FA9 JUMP JUMPDEST PUSH2 0x46D PUSH2 0x5FE CALLDATASIZE PUSH1 0x4 PUSH2 0x2B9F JUMP JUMPDEST PUSH2 0x2310 JUMP JUMPDEST PUSH2 0x3D7 PUSH2 0x611 CALLDATASIZE PUSH1 0x4 PUSH2 0x2B9F JUMP JUMPDEST PUSH1 0x0 PUSH1 0x20 DUP2 SWAP1 MSTORE SWAP1 DUP2 MSTORE PUSH1 0x40 SWAP1 KECCAK256 SLOAD PUSH1 0x1 PUSH1 0x1 PUSH1 0x80 SHL SUB AND DUP2 JUMP JUMPDEST PUSH2 0x1F2 PUSH2 0x63A CALLDATASIZE PUSH1 0x4 PUSH2 0x2CF6 JUMP JUMPDEST PUSH2 0x2414 JUMP JUMPDEST PUSH2 0x1F2 PUSH2 0x64D CALLDATASIZE PUSH1 0x4 PUSH2 0x2B68 JUMP JUMPDEST PUSH2 0x258F JUMP JUMPDEST PUSH1 0x5 SLOAD PUSH1 0x40 MLOAD PUSH4 0x601C2149 PUSH1 0xE1 SHL DUP2 MSTORE CALLER PUSH1 0x4 DUP3 ADD MSTORE PUSH1 0x1 PUSH1 0x1 PUSH1 0xA0 SHL SUB SWAP1 SWAP2 AND SWAP1 PUSH4 0xC0384292 SWAP1 PUSH1 0x24 ADD PUSH1 0x20 PUSH1 0x40 MLOAD DUP1 DUP4 SUB DUP2 DUP7 GAS STATICCALL ISZERO DUP1 ISZERO PUSH2 0x69A JUMPI RETURNDATASIZE PUSH1 0x0 DUP1 RETURNDATACOPY RETURNDATASIZE PUSH1 0x0 REVERT JUMPDEST POP POP POP POP PUSH1 0x40 MLOAD RETURNDATASIZE PUSH1 0x1F NOT PUSH1 0x1F DUP3 ADD AND DUP3 ADD DUP1 PUSH1 0x40 MSTORE POP DUP2 ADD SWAP1 PUSH2 0x6BE SWAP2 SWAP1 PUSH2 0x2DD4 JUMP JUMPDEST PUSH2 0x6E3 JUMPI PUSH1 0x40 MLOAD PUSH3 0x461BCD PUSH1 0xE5 SHL DUP2 MSTORE PUSH1 0x4 ADD PUSH2 0x6DA SWAP1 PUSH2 0x2DF1 JUMP JUMPDEST PUSH1 0x40 MLOAD DUP1 SWAP2 SUB SWAP1 REVERT JUMPDEST PUSH1 0xC0 DUP3 ADD MLOAD PUSH1 0x1 PUSH1 0x1 PUSH1 0xA0 SHL SUB AND PUSH1 0x0 SWAP1 DUP2 MSTORE PUSH1 0x3 PUSH1 0x20 MSTORE PUSH1 0x40 SWAP1 KECCAK256 PUSH1 0x6 ADD SLOAD PUSH1 0x1 PUSH1 0xB0 SHL SWAP1 DIV PUSH1 0xFF AND ISZERO ISZERO PUSH1 0x1 SUB PUSH2 0x753 JUMPI PUSH1 0x40 MLOAD PUSH3 0x461BCD PUSH1 0xE5 SHL DUP2 MSTORE PUSH1 0x20 PUSH1 0x4 DUP3 ADD MSTORE PUSH1 0x12 PUSH1 0x24 DUP3 ADD MSTORE PUSH18 0x1D1A194818DBDA5B881A5CC808195E1A5CDD PUSH1 0x72 SHL PUSH1 0x44 DUP3 ADD MSTORE PUSH1 0x64 ADD PUSH2 0x6DA JUMP JUMPDEST CALLER PUSH2 0x140 DUP4 ADD DUP2 SWAP1 MSTORE PUSH1 0x0 PUSH1 0xE0 DUP5 ADD DUP2 SWAP1 MSTORE PUSH2 0x100 DUP5 ADD DUP2 SWAP1 MSTORE PUSH1 0x1 PUSH2 0x120 DUP6 ADD DUP2 SWAP1 MSTORE SWAP2 DUP2 MSTORE PUSH1 0x20 DUP2 SWAP1 MSTORE PUSH1 0x40 SWAP1 KECCAK256 SLOAD PUSH1 0x1 PUSH1 0x1 PUSH1 0x80 SHL SUB AND LT DUP1 ISZERO SWAP1 PUSH2 0x7C6 JUMPI POP CALLER PUSH1 0x0 SWAP1 DUP2 MSTORE PUSH1 0x20 DUP2 SWAP1 MSTORE PUSH1 0x40 SWAP1 KECCAK256 SLOAD PUSH1 0x1 PUSH1 0x1 PUSH1 0x80 SHL SUB AND PUSH2 0x7BA DUP2 PUSH1 0x1 PUSH2 0x2E38 JUMP JUMPDEST PUSH1 0x1 PUSH1 0x1 PUSH1 0x80 SHL SUB AND LT ISZERO JUMPDEST ISZERO PUSH2 0x81D JUMPI CALLER PUSH1 0x0 SWAP1 DUP2 MSTORE PUSH1 0x20 DUP2 SWAP1 MSTORE PUSH1 0x40 DUP2 KECCAK256 DUP1 SLOAD PUSH1 0x1 SWAP3 SWAP1 PUSH2 0x7F4 SWAP1 DUP5 SWAP1 PUSH1 0x1 PUSH1 0x1 PUSH1 0x80 SHL SUB AND PUSH2 0x2E38 JUMP JUMPDEST SWAP3 POP PUSH2 0x100 EXP DUP2 SLOAD DUP2 PUSH1 0x1 PUSH1 0x1 PUSH1 0x80 SHL SUB MUL NOT AND SWAP1 DUP4 PUSH1 0x1 PUSH1 0x1 PUSH1 0x80 SHL SUB AND MUL OR SWAP1 SSTORE POP PUSH2 0x83E JUMP JUMPDEST CALLER PUSH1 0x0 SWAP1 DUP2 MSTORE PUSH1 0x20 DUP2 SWAP1 MSTORE PUSH1 0x40 SWAP1 KECCAK256 DUP1 SLOAD PUSH1 0x1 PUSH1 0x1 PUSH1 0x80 SHL SUB NOT AND PUSH1 0x1 OR SWAP1 SSTORE JUMPDEST PUSH1 0xC0 DUP3 ADD DUP1 MLOAD CALLER PUSH1 0x0 DUP2 DUP2 MSTORE PUSH1 0x1 PUSH1 0x20 DUP2 DUP2 MSTORE PUSH1 0x40 DUP1 DUP5 KECCAK256 DUP5 DUP4 MSTORE DUP2 DUP6 KECCAK256 DUP1 SLOAD PUSH1 0x1 PUSH1 0x1 PUSH1 0x80 SHL SUB SWAP1 DUP2 AND DUP8 MSTORE SWAP2 DUP5 MSTORE DUP3 DUP7 KECCAK256 DUP1 SLOAD PUSH1 0x1 PUSH1 0x1 PUSH1 0xA0 SHL SUB SWAP10 DUP11 AND PUSH1 0x1 PUSH1 0x1 PUSH1 0xA0 SHL SUB NOT SWAP2 DUP3 AND OR SWAP1 SWAP2 SSTORE DUP8 DUP8 MSTORE SWAP1 SLOAD PUSH1 0x2 DUP1 DUP7 MSTORE DUP5 DUP9 KECCAK256 DUP12 MLOAD DUP12 AND DUP10 MSTORE DUP7 MSTORE DUP5 DUP9 KECCAK256 DUP1 SLOAD PUSH1 0x1 PUSH1 0x1 PUSH1 0x80 SHL SUB NOT AND SWAP3 SWAP1 SWAP5 AND SWAP2 SWAP1 SWAP2 OR SWAP1 SWAP3 SSTORE DUP9 MLOAD DUP9 AND DUP7 MSTORE PUSH1 0x3 DUP1 DUP6 MSTORE SWAP6 DUP4 SWAP1 KECCAK256 DUP12 MLOAD DUP2 SSTORE SWAP4 DUP12 ADD MLOAD SWAP5 DUP5 ADD SWAP5 SWAP1 SWAP5 SSTORE DUP2 DUP11 ADD MLOAD SWAP1 DUP4 ADD SSTORE PUSH1 0x60 DUP10 ADD MLOAD SWAP4 DUP3 ADD DUP1 SLOAD PUSH1 0xFF SWAP1 SWAP6 AND PUSH1 0xFF NOT SWAP1 SWAP6 AND SWAP5 SWAP1 SWAP5 OR SWAP1 SWAP4 SSTORE PUSH1 0x80 DUP9 ADD MLOAD PUSH1 0x4 DUP3 ADD SSTORE PUSH1 0xA0 DUP9 ADD MLOAD PUSH1 0x5 DUP3 ADD SSTORE SWAP5 MLOAD PUSH1 0x6 DUP7 ADD DUP1 SLOAD PUSH1 0xE0 DUP11 ADD MLOAD PUSH2 0x100 DUP12 ADD MLOAD PUSH2 0x120 DUP13 ADD MLOAD ISZERO ISZERO PUSH1 0x1 PUSH1 0xB0 SHL MUL PUSH1 0xFF PUSH1 0xB0 SHL NOT SWAP2 ISZERO ISZERO PUSH1 0x1 PUSH1 0xA8 SHL MUL SWAP2 SWAP1 SWAP2 AND PUSH2 0xFFFF PUSH1 0xA8 SHL NOT SWAP3 ISZERO ISZERO PUSH1 0x1 PUSH1 0xA0 SHL MUL PUSH1 0x1 PUSH1 0x1 PUSH1 0xA8 SHL SUB NOT SWAP1 SWAP5 AND SWAP6 DUP11 AND SWAP6 SWAP1 SWAP6 OR SWAP3 SWAP1 SWAP3 OR AND SWAP3 SWAP1 SWAP3 OR SWAP2 SWAP1 SWAP2 OR SWAP1 SSTORE PUSH2 0x140 DUP8 ADD MLOAD PUSH1 0x7 SWAP1 SWAP6 ADD DUP1 SLOAD SWAP6 SWAP1 SWAP5 AND SWAP5 AND SWAP4 SWAP1 SWAP4 OR SWAP1 SWAP2 SSTORE SWAP1 MLOAD PUSH32 0x724ED868AD6195EC663DE17364300EE1E1956F27F184CEB84F2BE30D1FD58D65 SWAP2 PUSH2 0x9C2 SWAP2 DUP6 SWAP1 PUSH2 0x2E6D JUMP JUMPDEST PUSH1 0x40 MLOAD DUP1 SWAP2 SUB SWAP1 LOG1 DUP1 MLOAD PUSH1 0x1 PUSH1 0x1 PUSH1 0xA0 SHL SUB SWAP1 DUP2 AND PUSH1 0x0 SWAP1 DUP2 MSTORE PUSH1 0x3 PUSH1 0x20 MSTORE PUSH1 0x40 SWAP1 KECCAK256 PUSH1 0x7 ADD SLOAD AND CALLER EQ PUSH2 0xA38 JUMPI PUSH1 0x40 MLOAD PUSH3 0x461BCD PUSH1 0xE5 SHL DUP2 MSTORE PUSH1 0x20 PUSH1 0x4 DUP3 ADD MSTORE PUSH1 0x1C PUSH1 0x24 DUP3 ADD MSTORE PUSH32 0x796F75206973206E6F7420746865207468696E67206372656174657200000000 PUSH1 0x44 DUP3 ADD MSTORE PUSH1 0x64 ADD PUSH2 0x6DA JUMP JUMPDEST DUP1 MLOAD PUSH1 0x1 PUSH1 0x1 PUSH1 0xA0 SHL SUB SWAP1 DUP2 AND PUSH1 0x0 SWAP1 DUP2 MSTORE PUSH1 0x4 PUSH1 0x20 DUP2 DUP2 MSTORE PUSH1 0x40 SWAP3 DUP4 SWAP1 KECCAK256 DUP6 MLOAD DUP2 SLOAD PUSH1 0x1 PUSH1 0x1 PUSH1 0xA0 SHL SUB NOT AND SWAP6 AND SWAP5 DUP6 OR DUP2 SSTORE DUP2 DUP7 ADD MLOAD PUSH1 0x1 DUP3 ADD SSTORE DUP4 DUP7 ADD MLOAD PUSH1 0x2 DUP3 ADD SSTORE PUSH1 0x60 DUP7 ADD MLOAD PUSH1 0x3 DUP3 ADD SSTORE PUSH1 0x80 DUP7 ADD MLOAD SWAP3 DUP2 ADD SWAP3 SWAP1 SWAP3 SSTORE PUSH1 0xA0 DUP6 ADD MLOAD PUSH1 0x5 SWAP1 SWAP3 ADD SWAP2 SWAP1 SWAP2 SSTORE SWAP1 MLOAD SWAP2 DUP3 MSTORE PUSH32 0x28995A3CC31B8867E272BF05BB4F577DA5E81799E17CF729D123EDF7C2A7CA94 SWAP2 ADD JUMPDEST PUSH1 0x40 MLOAD DUP1 SWAP2 SUB SWAP1 LOG1 POP POP JUMP JUMPDEST PUSH1 0x6 SLOAD PUSH1 0x40 MLOAD PUSH4 0x38C3329 PUSH1 0xE5 SHL DUP2 MSTORE CALLER PUSH1 0x4 DUP3 ADD MSTORE PUSH1 0x1 PUSH1 0x1 PUSH1 0xA0 SHL SUB SWAP1 SWAP2 AND SWAP1 PUSH4 0x71866520 SWAP1 PUSH1 0x24 ADD PUSH1 0x20 PUSH1 0x40 MLOAD DUP1 DUP4 SUB DUP2 DUP7 GAS STATICCALL ISZERO DUP1 ISZERO PUSH2 0xB1F JUMPI RETURNDATASIZE PUSH1 0x0 DUP1 RETURNDATACOPY RETURNDATASIZE PUSH1 0x0 REVERT JUMPDEST POP POP POP POP PUSH1 0x40 MLOAD RETURNDATASIZE PUSH1 0x1F NOT PUSH1 0x1F DUP3 ADD AND DUP3 ADD DUP1 PUSH1 0x40 MSTORE POP DUP2 ADD SWAP1 PUSH2 0xB43 SWAP2 SWAP1 PUSH2 0x2DD4 JUMP JUMPDEST PUSH2 0xB5F JUMPI PUSH1 0x40 MLOAD PUSH3 0x461BCD PUSH1 0xE5 SHL DUP2 MSTORE PUSH1 0x4 ADD PUSH2 0x6DA SWAP1 PUSH2 0x2DF1 JUMP JUMPDEST PUSH1 0x1 PUSH1 0x1 PUSH1 0xA0 SHL SUB DUP2 AND PUSH1 0x0 SWAP1 DUP2 MSTORE PUSH1 0x3 PUSH1 0x20 MSTORE PUSH1 0x40 SWAP1 KECCAK256 PUSH1 0x6 ADD DUP1 SLOAD PUSH1 0xFF PUSH1 0xB0 SHL NOT AND PUSH1 0x1 PUSH1 0xB0 SHL OR SWAP1 SSTORE PUSH1 0x6 SLOAD PUSH1 0x1 PUSH1 0x1 PUSH1 0xA0 SHL SUB SWAP1 DUP2 AND PUSH1 0x0 SWAP1 DUP2 MSTORE PUSH1 0x2 PUSH1 0x20 SWAP1 DUP2 MSTORE PUSH1 0x40 DUP1 DUP4 KECCAK256 SWAP4 DUP6 AND DUP4 MSTORE SWAP3 SWAP1 MSTORE KECCAK256 SLOAD PUSH1 0x1 PUSH1 0x1 PUSH1 0x80 SHL SUB AND PUSH2 0xC09 JUMPI PUSH1 0x40 MLOAD PUSH3 0x461BCD PUSH1 0xE5 SHL DUP2 MSTORE PUSH1 0x20 PUSH1 0x4 DUP3 ADD MSTORE PUSH1 0x1D PUSH1 0x24 DUP3 ADD MSTORE PUSH32 0x74686520636F696E206973202065786973747320696E206D61726B6574000000 PUSH1 0x44 DUP3 ADD MSTORE PUSH1 0x64 ADD PUSH2 0x6DA JUMP JUMPDEST PUSH1 0x6 SLOAD PUSH1 0x1 PUSH1 0x1 PUSH1 0xA0 SHL SUB AND PUSH1 0x0 SWAP1 DUP2 MSTORE PUSH1 0x20 DUP2 SWAP1 MSTORE PUSH1 0x40 SWAP1 KECCAK256 SLOAD PUSH1 0x1 PUSH1 0x1 PUSH1 0x80 SHL SUB AND PUSH1 0x1 DUP2 LT DUP1 ISZERO SWAP1 PUSH2 0xC5A JUMPI POP PUSH1 0x1 PUSH1 0x1 PUSH1 0x80 SHL SUB DUP2 AND PUSH2 0xC4E DUP3 PUSH1 0x1 PUSH2 0x2E38 JUMP JUMPDEST PUSH1 0x1 PUSH1 0x1 PUSH1 0x80 SHL SUB AND LT ISZERO JUMPDEST ISZERO PUSH2 0xC71 JUMPI PUSH2 0xC6A PUSH1 0x1 DUP3 PUSH2 0x2E38 JUMP JUMPDEST SWAP1 POP PUSH2 0xC75 JUMP JUMPDEST POP PUSH1 0x1 JUMPDEST PUSH1 0x6 DUP1 SLOAD PUSH1 0x1 PUSH1 0x1 PUSH1 0xA0 SHL SUB SWAP1 DUP2 AND PUSH1 0x0 SWAP1 DUP2 MSTORE PUSH1 0x20 DUP2 DUP2 MSTORE PUSH1 0x40 DUP1 DUP4 KECCAK256 DUP1 SLOAD PUSH1 0x1 PUSH1 0x1 PUSH1 0x80 SHL SUB NOT SWAP1 DUP2 AND PUSH1 0x1 PUSH1 0x1 PUSH1 0x80 SHL SUB DUP10 AND SWAP1 DUP2 OR SWAP1 SWAP3 SSTORE DUP7 SLOAD DUP7 AND DUP6 MSTORE PUSH1 0x1 DUP5 MSTORE DUP3 DUP6 KECCAK256 DUP3 DUP7 MSTORE DUP5 MSTORE DUP3 DUP6 KECCAK256 DUP1 SLOAD PUSH1 0x1 PUSH1 0x1 PUSH1 0xA0 SHL SUB NOT AND DUP11 DUP9 AND SWAP1 DUP2 OR SWAP1 SWAP2 SSTORE SWAP7 SLOAD SWAP1 SWAP6 AND DUP5 MSTORE PUSH1 0x2 DUP4 MSTORE DUP2 DUP5 KECCAK256 DUP7 DUP6 MSTORE DUP4 MSTORE SWAP3 DUP2 SWAP1 KECCAK256 DUP1 SLOAD SWAP1 SWAP5 AND SWAP1 SWAP3 OR SWAP1 SWAP3 SSTORE MLOAD SWAP2 DUP3 MSTORE PUSH32 0x787B8074A2DB1BF64DAC1E916753253472ACC7C1FFF144FAE6D14142860D890B SWAP2 ADD PUSH2 0xACB JUMP JUMPDEST PUSH1 0x6 SLOAD PUSH1 0x40 MLOAD PUSH4 0x38C3329 PUSH1 0xE5 SHL DUP2 MSTORE CALLER PUSH1 0x4 DUP3 ADD MSTORE PUSH1 0x1 PUSH1 0x1 PUSH1 0xA0 SHL SUB SWAP1 SWAP2 AND SWAP1 PUSH4 0x71866520 SWAP1 PUSH1 0x24 ADD PUSH1 0x20 PUSH1 0x40 MLOAD DUP1 DUP4 SUB DUP2 DUP7 GAS STATICCALL ISZERO DUP1 ISZERO PUSH2 0xD71 JUMPI RETURNDATASIZE PUSH1 0x0 DUP1 RETURNDATACOPY RETURNDATASIZE PUSH1 0x0 REVERT JUMPDEST POP POP POP POP PUSH1 0x40 MLOAD RETURNDATASIZE PUSH1 0x1F NOT PUSH1 0x1F DUP3 ADD AND DUP3 ADD DUP1 PUSH1 0x40 MSTORE POP DUP2 ADD SWAP1 PUSH2 0xD95 SWAP2 SWAP1 PUSH2 0x2DD4 JUMP JUMPDEST PUSH2 0xDB1 JUMPI PUSH1 0x40 MLOAD PUSH3 0x461BCD PUSH1 0xE5 SHL DUP2 MSTORE PUSH1 0x4 ADD PUSH2 0x6DA SWAP1 PUSH2 0x2DF1 JUMP JUMPDEST DUP1 MLOAD PUSH1 0x1 PUSH1 0x1 PUSH1 0xA0 SHL SUB SWAP1 DUP2 AND PUSH1 0x0 SWAP1 DUP2 MSTORE PUSH1 0x4 PUSH1 0x20 DUP2 DUP2 MSTORE PUSH1 0x40 SWAP3 DUP4 SWAP1 KECCAK256 DUP6 MLOAD DUP2 SLOAD PUSH1 0x1 PUSH1 0x1 PUSH1 0xA0 SHL SUB NOT AND SWAP6 AND SWAP5 DUP6 OR DUP2 SSTORE DUP2 DUP7 ADD MLOAD PUSH1 0x1 DUP3 ADD SSTORE DUP4 DUP7 ADD MLOAD PUSH1 0x2 DUP3 ADD SSTORE PUSH1 0x60 DUP7 ADD MLOAD PUSH1 0x3 DUP3 ADD SSTORE PUSH1 0x80 DUP7 ADD MLOAD SWAP3 DUP2 ADD SWAP3 SWAP1 SWAP3 SSTORE PUSH1 0xA0 DUP6 ADD MLOAD PUSH1 0x5 SWAP1 SWAP3 ADD SWAP2 SWAP1 SWAP2 SSTORE SWAP1 MLOAD SWAP2 DUP3 MSTORE PUSH32 0x28995A3CC31B8867E272BF05BB4F577DA5E81799E17CF729D123EDF7C2A7CA94 SWAP2 ADD JUMPDEST PUSH1 0x40 MLOAD DUP1 SWAP2 SUB SWAP1 LOG1 POP JUMP JUMPDEST PUSH1 0x6 SLOAD PUSH1 0x40 MLOAD PUSH4 0x38C3329 PUSH1 0xE5 SHL DUP2 MSTORE CALLER PUSH1 0x4 DUP3 ADD MSTORE PUSH1 0x1 PUSH1 0x1 PUSH1 0xA0 SHL SUB SWAP1 SWAP2 AND SWAP1 PUSH4 0x71866520 SWAP1 PUSH1 0x24 ADD PUSH1 0x20 PUSH1 0x40 MLOAD DUP1 DUP4 SUB DUP2 DUP7 GAS STATICCALL ISZERO DUP1 ISZERO PUSH2 0xE97 JUMPI RETURNDATASIZE PUSH1 0x0 DUP1 RETURNDATACOPY RETURNDATASIZE PUSH1 0x0 REVERT JUMPDEST POP POP POP POP PUSH1 0x40 MLOAD RETURNDATASIZE PUSH1 0x1F NOT PUSH1 0x1F DUP3 ADD AND DUP3 ADD DUP1 PUSH1 0x40 MSTORE POP DUP2 ADD SWAP1 PUSH2 0xEBB SWAP2 SWAP1 PUSH2 0x2DD4 JUMP JUMPDEST PUSH2 0xED7 JUMPI PUSH1 0x40 MLOAD PUSH3 0x461BCD PUSH1 0xE5 SHL DUP2 MSTORE PUSH1 0x4 ADD PUSH2 0x6DA SWAP1 PUSH2 0x2DF1 JUMP JUMPDEST PUSH1 0x1 PUSH1 0x1 PUSH1 0xA0 SHL SUB DUP2 AND PUSH1 0x0 DUP2 DUP2 MSTORE PUSH1 0x3 PUSH1 0x20 SWAP1 DUP2 MSTORE PUSH1 0x40 SWAP2 DUP3 SWAP1 KECCAK256 PUSH1 0x6 ADD DUP1 SLOAD PUSH1 0xFF PUSH1 0xA0 SHL NOT AND PUSH1 0x1 PUSH1 0xA0 SHL OR SWAP1 SSTORE SWAP1 MLOAD SWAP2 DUP3 MSTORE PUSH32 0xAC01100C10BE15FEC1A42F8249ABC04B81A28E731FEAB3E60A2A962F74EFF9D8 SWAP2 ADD PUSH2 0xE44 JUMP JUMPDEST PUSH1 0x5 SLOAD PUSH1 0x40 MLOAD PUSH4 0x601C2149 PUSH1 0xE1 SHL DUP2 MSTORE CALLER PUSH1 0x4 DUP3 ADD MSTORE PUSH1 0x1 PUSH1 0x1 PUSH1 0xA0 SHL SUB SWAP1 SWAP2 AND SWAP1 PUSH4 0xC0384292 SWAP1 PUSH1 0x24 ADD PUSH1 0x20 PUSH1 0x40 MLOAD DUP1 DUP4 SUB DUP2 DUP7 GAS STATICCALL ISZERO DUP1 ISZERO PUSH2 0xF7C JUMPI RETURNDATASIZE PUSH1 0x0 DUP1 RETURNDATACOPY RETURNDATASIZE PUSH1 0x0 REVERT JUMPDEST POP POP POP POP PUSH1 0x40 MLOAD RETURNDATASIZE PUSH1 0x1F NOT PUSH1 0x1F DUP3 ADD AND DUP3 ADD DUP1 PUSH1 0x40 MSTORE POP DUP2 ADD SWAP1 PUSH2 0xFA0 SWAP2 SWAP1 PUSH2 0x2DD4 JUMP JUMPDEST PUSH2 0xFBC JUMPI PUSH1 0x40 MLOAD PUSH3 0x461BCD PUSH1 0xE5 SHL DUP2 MSTORE PUSH1 0x4 ADD PUSH2 0x6DA SWAP1 PUSH2 0x2DF1 JUMP JUMPDEST PUSH1 0x1 PUSH1 0x1 PUSH1 0xA0 SHL SUB DUP2 DUP2 AND PUSH1 0x0 SWAP1 DUP2 MSTORE PUSH1 0x3 PUSH1 0x20 MSTORE PUSH1 0x40 SWAP1 KECCAK256 PUSH1 0x7 ADD SLOAD AND CALLER EQ PUSH2 0xFF8 JUMPI PUSH1 0x40 MLOAD PUSH3 0x461BCD PUSH1 0xE5 SHL DUP2 MSTORE PUSH1 0x4 ADD PUSH2 0x6DA SWAP1 PUSH2 0x2EBB JUMP JUMPDEST PUSH1 0x1 PUSH1 0x1 PUSH1 0xA0 SHL SUB DUP2 AND PUSH1 0x0 DUP2 DUP2 MSTORE PUSH1 0x3 PUSH1 0x20 SWAP1 DUP2 MSTORE PUSH1 0x40 SWAP2 DUP3 SWAP1 KECCAK256 PUSH1 0x6 ADD DUP1 SLOAD PUSH1 0xFF PUSH1 0xA8 SHL NOT AND PUSH1 0x1 PUSH1 0xA8 SHL OR SWAP1 SSTORE DUP2 MLOAD CALLER DUP2 MSTORE SWAP1 DUP2 ADD SWAP3 SWAP1 SWAP3 MSTORE PUSH32 0x91F5DF1A13CCD890776A683FDCEF0B553CE7AC24FBE9609BB51AEB9FEFED82A4 SWAP2 ADD PUSH2 0xE44 JUMP JUMPDEST PUSH1 0x5 SLOAD PUSH1 0x40 MLOAD PUSH4 0x601C2149 PUSH1 0xE1 SHL DUP2 MSTORE CALLER PUSH1 0x4 DUP3 ADD MSTORE PUSH1 0x1 PUSH1 0x1 PUSH1 0xA0 SHL SUB SWAP1 SWAP2 AND SWAP1 PUSH4 0xC0384292 SWAP1 PUSH1 0x24 ADD PUSH1 0x20 PUSH1 0x40 MLOAD DUP1 DUP4 SUB DUP2 DUP7 GAS STATICCALL ISZERO DUP1 ISZERO PUSH2 0x10A4 JUMPI RETURNDATASIZE PUSH1 0x0 DUP1 RETURNDATACOPY RETURNDATASIZE PUSH1 0x0 REVERT JUMPDEST POP POP POP POP PUSH1 0x40 MLOAD RETURNDATASIZE PUSH1 0x1F NOT PUSH1 0x1F DUP3 ADD AND DUP3 ADD DUP1 PUSH1 0x40 MSTORE POP DUP2 ADD SWAP1 PUSH2 0x10C8 SWAP2 SWAP1 PUSH2 0x2DD4 JUMP JUMPDEST PUSH2 0x10E4 JUMPI PUSH1 0x40 MLOAD PUSH3 0x461BCD PUSH1 0xE5 SHL DUP2 MSTORE PUSH1 0x4 ADD PUSH2 0x6DA SWAP1 PUSH2 0x2DF1 JUMP JUMPDEST PUSH1 0x1 PUSH1 0x1 PUSH1 0xA0 SHL SUB DUP2 DUP2 AND PUSH1 0x0 SWAP1 DUP2 MSTORE PUSH1 0x3 PUSH1 0x20 MSTORE PUSH1 0x40 SWAP1 KECCAK256 PUSH1 0x7 ADD SLOAD AND CALLER EQ PUSH2 0x1120 JUMPI PUSH1 0x40 MLOAD PUSH3 0x461BCD PUSH1 0xE5 SHL DUP2 MSTORE PUSH1 0x4 ADD PUSH2 0x6DA SWAP1 PUSH2 0x2EBB JUMP JUMPDEST PUSH1 0x1 PUSH1 0x1 PUSH1 0xA0 SHL SUB DUP2 AND PUSH1 0x0 DUP2 DUP2 MSTORE PUSH1 0x3 PUSH1 0x20 SWAP1 DUP2 MSTORE PUSH1 0x40 SWAP2 DUP3 SWAP1 KECCAK256 PUSH1 0x6 ADD DUP1 SLOAD PUSH1 0xFF PUSH1 0xA8 SHL NOT AND SWAP1 SSTORE DUP2 MLOAD CALLER DUP2 MSTORE SWAP1 DUP2 ADD SWAP3 SWAP1 SWAP3 MSTORE PUSH32 0x4807C3DAA091FEBEA14280167243BD513929CE4FE91170EF6536AEBAD0EDE29B SWAP2 ADD PUSH2 0xE44 JUMP JUMPDEST PUSH2 0x1186 PUSH2 0x2946 JUMP JUMPDEST PUSH1 0x1 PUSH1 0x1 PUSH1 0xA0 SHL SUB DUP4 AND PUSH1 0x0 SWAP1 DUP2 MSTORE PUSH1 0x3 PUSH1 0x20 MSTORE PUSH1 0x40 SWAP1 KECCAK256 PUSH1 0x6 ADD SLOAD PUSH1 0x1 PUSH1 0xB0 SHL SWAP1 DIV PUSH1 0xFF AND ISZERO ISZERO PUSH1 0x1 EQ PUSH2 0x11CD JUMPI PUSH1 0x40 MLOAD PUSH3 0x461BCD PUSH1 0xE5 SHL DUP2 MSTORE PUSH1 0x4 ADD PUSH2 0x6DA SWAP1 PUSH2 0x2E8B JUMP JUMPDEST POP PUSH1 0x1 PUSH1 0x1 PUSH1 0xA0 SHL SUB DUP1 DUP4 AND PUSH1 0x0 SWAP1 DUP2 MSTORE PUSH1 0x1 PUSH1 0x20 DUP2 DUP2 MSTORE PUSH1 0x40 DUP1 DUP5 KECCAK256 PUSH1 0x1 PUSH1 0x1 PUSH1 0x80 SHL SUB DUP8 AND DUP6 MSTORE DUP3 MSTORE DUP1 DUP5 KECCAK256 SLOAD DUP6 AND DUP5 MSTORE PUSH1 0x3 DUP1 DUP4 MSTORE SWAP4 DUP2 SWAP1 KECCAK256 DUP2 MLOAD PUSH2 0x160 DUP2 ADD DUP4 MSTORE DUP2 SLOAD DUP2 MSTORE SWAP4 DUP2 ADD SLOAD SWAP3 DUP5 ADD SWAP3 SWAP1 SWAP3 MSTORE PUSH1 0x2 DUP3 ADD SLOAD SWAP1 DUP4 ADD MSTORE SWAP2 DUP3 ADD SLOAD PUSH1 0xFF SWAP1 DUP2 AND PUSH1 0x60 DUP4 ADD MSTORE PUSH1 0x4 DUP4 ADD SLOAD PUSH1 0x80 DUP4 ADD MSTORE PUSH1 0x5 DUP4 ADD SLOAD PUSH1 0xA0 DUP4 ADD MSTORE PUSH1 0x6 DUP4 ADD SLOAD DUP1 DUP6 AND PUSH1 0xC0 DUP5 ADD MSTORE PUSH1 0x1 PUSH1 0xA0 SHL DUP2 DIV DUP3 AND ISZERO ISZERO PUSH1 0xE0 DUP5 ADD MSTORE PUSH1 0x1 PUSH1 0xA8 SHL DUP2 DIV DUP3 AND ISZERO ISZERO PUSH2 0x100 DUP5 ADD MSTORE PUSH1 0x1 PUSH1 0xB0 SHL SWAP1 DIV AND ISZERO ISZERO PUSH2 0x120 DUP3 ADD MSTORE PUSH1 0x7 SWAP1 SWAP2 ADD SLOAD SWAP1 SWAP2 AND PUSH2 0x140 DUP3 ADD MSTORE JUMPDEST SWAP3 SWAP2 POP POP JUMP JUMPDEST PUSH1 0x5 SLOAD PUSH1 0x40 MLOAD PUSH4 0x601C2149 PUSH1 0xE1 SHL DUP2 MSTORE CALLER PUSH1 0x4 DUP3 ADD MSTORE PUSH1 0x1 PUSH1 0x1 PUSH1 0xA0 SHL SUB SWAP1 SWAP2 AND SWAP1 PUSH4 0xC0384292 SWAP1 PUSH1 0x24 ADD PUSH1 0x20 PUSH1 0x40 MLOAD DUP1 DUP4 SUB DUP2 DUP7 GAS STATICCALL ISZERO DUP1 ISZERO PUSH2 0x12E8 JUMPI RETURNDATASIZE PUSH1 0x0 DUP1 RETURNDATACOPY RETURNDATASIZE PUSH1 0x0 REVERT JUMPDEST POP POP POP POP PUSH1 0x40 MLOAD RETURNDATASIZE PUSH1 0x1F NOT PUSH1 0x1F DUP3 ADD AND DUP3 ADD DUP1 PUSH1 0x40 MSTORE POP DUP2 ADD SWAP1 PUSH2 0x130C SWAP2 SWAP1 PUSH2 0x2DD4 JUMP JUMPDEST PUSH2 0x1328 JUMPI PUSH1 0x40 MLOAD PUSH3 0x461BCD PUSH1 0xE5 SHL DUP2 MSTORE PUSH1 0x4 ADD PUSH2 0x6DA SWAP1 PUSH2 0x2DF1 JUMP JUMPDEST CALLER PUSH1 0x0 SWAP1 DUP2 MSTORE PUSH1 0x1 PUSH1 0x20 SWAP1 DUP2 MSTORE PUSH1 0x40 DUP1 DUP4 KECCAK256 PUSH1 0x1 PUSH1 0x1 PUSH1 0x80 SHL SUB DUP6 AND DUP5 MSTORE SWAP1 SWAP2 MSTORE SWAP1 KECCAK256 SLOAD PUSH1 0x1 PUSH1 0x1 PUSH1 0xA0 SHL SUB AND PUSH2 0x1371 JUMPI PUSH1 0x40 MLOAD PUSH3 0x461BCD PUSH1 0xE5 SHL DUP2 MSTORE PUSH1 0x4 ADD PUSH2 0x6DA SWAP1 PUSH2 0x2E8B JUMP JUMPDEST CALLER PUSH1 0x0 DUP2 DUP2 MSTORE PUSH1 0x2 PUSH1 0x20 SWAP1 DUP2 MSTORE PUSH1 0x40 DUP1 DUP4 KECCAK256 PUSH1 0x1 DUP4 MSTORE DUP2 DUP5 KECCAK256 PUSH1 0x1 PUSH1 0x1 PUSH1 0x80 SHL SUB DUP8 AND DUP1 DUP7 MSTORE DUP2 DUP6 MSTORE DUP4 DUP7 KECCAK256 DUP1 SLOAD PUSH1 0x1 PUSH1 0x1 PUSH1 0xA0 SHL SUB AND DUP8 MSTORE SWAP3 DUP6 MSTORE DUP4 DUP7 KECCAK256 DUP1 SLOAD PUSH1 0x1 PUSH1 0x1 PUSH1 0x80 SHL SUB NOT AND SWAP1 SSTORE SWAP5 DUP6 SWAP1 MSTORE DUP4 MSTORE DUP1 SLOAD PUSH1 0x1 PUSH1 0x1 PUSH1 0xA0 SHL SUB NOT AND SWAP1 SSTORE DUP1 MLOAD SWAP4 DUP5 MSTORE SWAP1 DUP4 ADD SWAP2 SWAP1 SWAP2 MSTORE PUSH32 0x4EDB2517E4D5299DD19C1CE662D404D108FFED8F91BC76838771EDAE5FAC7C43 SWAP2 ADD PUSH2 0xE44 JUMP JUMPDEST PUSH1 0x6 SLOAD PUSH1 0x40 MLOAD PUSH4 0x38C3329 PUSH1 0xE5 SHL DUP2 MSTORE CALLER PUSH1 0x4 DUP3 ADD MSTORE PUSH1 0x1 PUSH1 0x1 PUSH1 0xA0 SHL SUB SWAP1 SWAP2 AND SWAP1 PUSH4 0x71866520 SWAP1 PUSH1 0x24 ADD PUSH1 0x20 PUSH1 0x40 MLOAD DUP1 DUP4 SUB DUP2 DUP7 GAS STATICCALL ISZERO DUP1 ISZERO PUSH2 0x144E JUMPI RETURNDATASIZE PUSH1 0x0 DUP1 RETURNDATACOPY RETURNDATASIZE PUSH1 0x0 REVERT JUMPDEST POP POP POP POP PUSH1 0x40 MLOAD RETURNDATASIZE PUSH1 0x1F NOT PUSH1 0x1F DUP3 ADD AND DUP3 ADD DUP1 PUSH1 0x40 MSTORE POP DUP2 ADD SWAP1 PUSH2 0x1472 SWAP2 SWAP1 PUSH2 0x2DD4 JUMP JUMPDEST PUSH2 0x148E JUMPI PUSH1 0x40 MLOAD PUSH3 0x461BCD PUSH1 0xE5 SHL DUP2 MSTORE PUSH1 0x4 ADD PUSH2 0x6DA SWAP1 PUSH2 0x2DF1 JUMP JUMPDEST PUSH1 0x6 DUP1 SLOAD PUSH1 0x1 PUSH1 0x1 PUSH1 0xA0 SHL SUB SWAP1 DUP2 AND PUSH1 0x0 SWAP1 DUP2 MSTORE PUSH1 0x2 PUSH1 0x20 DUP2 DUP2 MSTORE PUSH1 0x40 DUP1 DUP5 KECCAK256 PUSH1 0xC0 DUP9 ADD DUP1 MLOAD DUP8 AND DUP7 MSTORE SWAP1 DUP4 MSTORE PUSH1 0x1 PUSH1 0xE0 DUP10 ADD DUP2 DUP2 MSTORE PUSH2 0x100 DUP11 ADD DUP8 DUP2 MSTORE PUSH2 0x120 DUP12 ADD DUP4 DUP2 MSTORE DUP5 MLOAD DUP11 AND DUP10 MSTORE PUSH1 0x3 DUP1 DUP9 MSTORE DUP7 DUP11 KECCAK256 PUSH1 0x7 SWAP1 DUP2 ADD SLOAD DUP13 AND PUSH2 0x140 DUP16 ADD SWAP1 DUP2 MSTORE DUP8 MLOAD DUP14 AND DUP13 MSTORE DUP3 DUP11 MSTORE SWAP11 DUP9 SWAP1 KECCAK256 DUP15 MLOAD DUP2 SSTORE SWAP9 DUP15 ADD MLOAD SWAP6 DUP10 ADD SWAP6 SWAP1 SWAP6 SSTORE DUP13 DUP8 ADD MLOAD SWAP9 DUP9 ADD SWAP9 SWAP1 SWAP9 SSTORE PUSH1 0x60 DUP13 ADD MLOAD SWAP8 DUP8 ADD DUP1 SLOAD PUSH1 0xFF NOT AND PUSH1 0xFF SWAP1 SWAP10 AND SWAP9 SWAP1 SWAP9 OR SWAP1 SWAP8 SSTORE PUSH1 0x80 DUP12 ADD MLOAD PUSH1 0x4 DUP8 ADD SSTORE PUSH1 0xA0 DUP12 ADD MLOAD PUSH1 0x5 DUP8 ADD SSTORE SWAP3 MLOAD SWAP9 DUP6 ADD DUP1 SLOAD SWAP2 MLOAD SWAP4 MLOAD SWAP7 MLOAD SWAP10 DUP10 AND PUSH1 0x1 PUSH1 0x1 PUSH1 0xA8 SHL SUB NOT SWAP1 SWAP3 AND SWAP2 SWAP1 SWAP2 OR PUSH1 0x1 PUSH1 0xA0 SHL SWAP4 ISZERO ISZERO SWAP4 SWAP1 SWAP4 MUL SWAP3 SWAP1 SWAP3 OR PUSH2 0xFFFF PUSH1 0xA8 SHL NOT AND PUSH1 0x1 PUSH1 0xA8 SHL SWAP6 ISZERO ISZERO SWAP6 SWAP1 SWAP6 MUL PUSH1 0xFF PUSH1 0xB0 SHL NOT AND SWAP5 SWAP1 SWAP5 OR PUSH1 0x1 PUSH1 0xB0 SHL SWAP8 ISZERO ISZERO SWAP8 SWAP1 SWAP8 MUL SWAP7 SWAP1 SWAP7 OR SWAP1 SWAP6 SSTORE SWAP2 MLOAD SWAP2 ADD DUP1 SLOAD PUSH1 0x1 PUSH1 0x1 PUSH1 0xA0 SHL SUB NOT AND SWAP2 SWAP1 SWAP3 AND OR SWAP1 SSTORE MLOAD PUSH32 0x7EF1A4C6CD6954CC6F68AC195814A83775046E46054EB12BF4B6619BA234F58B SWAP1 PUSH2 0xE44 SWAP1 DUP4 SWAP1 PUSH2 0x2CE7 JUMP JUMPDEST PUSH1 0x6 SLOAD PUSH1 0x40 MLOAD PUSH4 0x38C3329 PUSH1 0xE5 SHL DUP2 MSTORE CALLER PUSH1 0x4 DUP3 ADD MSTORE PUSH1 0x1 PUSH1 0x1 PUSH1 0xA0 SHL SUB SWAP1 SWAP2 AND SWAP1 PUSH4 0x71866520 SWAP1 PUSH1 0x24 ADD PUSH1 0x20 PUSH1 0x40 MLOAD DUP1 DUP4 SUB DUP2 DUP7 GAS STATICCALL ISZERO DUP1 ISZERO PUSH2 0x1636 JUMPI RETURNDATASIZE PUSH1 0x0 DUP1 RETURNDATACOPY RETURNDATASIZE PUSH1 0x0 REVERT JUMPDEST POP POP POP POP PUSH1 0x40 MLOAD RETURNDATASIZE PUSH1 0x1F NOT PUSH1 0x1F DUP3 ADD AND DUP3 ADD DUP1 PUSH1 0x40 MSTORE POP DUP2 ADD SWAP1 PUSH2 0x165A SWAP2 SWAP1 PUSH2 0x2DD4 JUMP JUMPDEST PUSH2 0x1676 JUMPI PUSH1 0x40 MLOAD PUSH3 0x461BCD PUSH1 0xE5 SHL DUP2 MSTORE PUSH1 0x4 ADD PUSH2 0x6DA SWAP1 PUSH2 0x2DF1 JUMP JUMPDEST PUSH1 0x6 SLOAD PUSH1 0x1 PUSH1 0x1 PUSH1 0xA0 SHL SUB SWAP1 DUP2 AND PUSH1 0x0 SWAP1 DUP2 MSTORE PUSH1 0x2 PUSH1 0x20 SWAP1 DUP2 MSTORE PUSH1 0x40 DUP1 DUP4 KECCAK256 SWAP4 DUP6 AND DUP4 MSTORE SWAP3 SWAP1 MSTORE KECCAK256 SLOAD PUSH1 0x1 PUSH1 0x1 PUSH1 0x1 PUSH1 0x80 SHL SUB SWAP1 SWAP2 AND LT ISZERO PUSH2 0x16CA JUMPI PUSH1 0x40 MLOAD PUSH3 0x461BCD PUSH1 0xE5 SHL DUP2 MSTORE PUSH1 0x4 ADD PUSH2 0x6DA SWAP1 PUSH2 0x2E8B JUMP JUMPDEST PUSH1 0x6 DUP1 SLOAD PUSH1 0x1 PUSH1 0x1 PUSH1 0xA0 SHL SUB SWAP1 DUP2 AND PUSH1 0x0 SWAP1 DUP2 MSTORE PUSH1 0x1 PUSH1 0x20 SWAP1 DUP2 MSTORE PUSH1 0x40 DUP1 DUP4 KECCAK256 PUSH1 0x2 DUP1 DUP5 MSTORE DUP3 DUP6 KECCAK256 DUP9 DUP8 AND DUP1 DUP8 MSTORE SWAP1 DUP6 MSTORE DUP4 DUP7 KECCAK256 SLOAD PUSH1 0x1 PUSH1 0x1 PUSH1 0x80 SHL SUB AND DUP7 MSTORE SWAP2 DUP5 MSTORE DUP3 DUP6 KECCAK256 DUP1 SLOAD PUSH1 0x1 PUSH1 0x1 PUSH1 0xA0 SHL SUB NOT AND SWAP1 SSTORE SWAP6 SLOAD SWAP1 SWAP5 AND DUP4 MSTORE SWAP4 DUP2 MSTORE DUP4 DUP3 KECCAK256 DUP4 DUP4 MSTORE DUP2 MSTORE SWAP1 DUP4 SWAP1 KECCAK256 DUP1 SLOAD PUSH1 0x1 PUSH1 0x1 PUSH1 0x80 SHL SUB NOT AND SWAP1 SSTORE SWAP2 MLOAD SWAP1 DUP2 MSTORE PUSH32 0x95FB8F03172737716DB3E279A3CAFDB96C41B3FF1CA3CEDC215A7770838C1C5B SWAP2 ADD PUSH2 0xE44 JUMP JUMPDEST PUSH1 0x5 SLOAD PUSH1 0x40 MLOAD PUSH4 0x601C2149 PUSH1 0xE1 SHL DUP2 MSTORE CALLER PUSH1 0x4 DUP3 ADD MSTORE PUSH1 0x1 PUSH1 0x1 PUSH1 0xA0 SHL SUB SWAP1 SWAP2 AND SWAP1 PUSH4 0xC0384292 SWAP1 PUSH1 0x24 ADD PUSH1 0x20 PUSH1 0x40 MLOAD DUP1 DUP4 SUB DUP2 DUP7 GAS STATICCALL ISZERO DUP1 ISZERO PUSH2 0x17B7 JUMPI RETURNDATASIZE PUSH1 0x0 DUP1 RETURNDATACOPY RETURNDATASIZE PUSH1 0x0 REVERT JUMPDEST POP POP POP POP PUSH1 0x40 MLOAD RETURNDATASIZE PUSH1 0x1F NOT PUSH1 0x1F DUP3 ADD AND DUP3 ADD DUP1 PUSH1 0x40 MSTORE POP DUP2 ADD SWAP1 PUSH2 0x17DB SWAP2 SWAP1 PUSH2 0x2DD4 JUMP JUMPDEST PUSH2 0x17F7 JUMPI PUSH1 0x40 MLOAD PUSH3 0x461BCD PUSH1 0xE5 SHL DUP2 MSTORE PUSH1 0x4 ADD PUSH2 0x6DA SWAP1 PUSH2 0x2DF1 JUMP JUMPDEST CALLER PUSH1 0x0 SWAP1 DUP2 MSTORE PUSH1 0x2 PUSH1 0x20 SWAP1 DUP2 MSTORE PUSH1 0x40 DUP1 DUP4 KECCAK256 PUSH1 0x1 PUSH1 0x1 PUSH1 0xA0 SHL SUB DUP6 AND DUP5 MSTORE SWAP1 SWAP2 MSTORE SWAP1 KECCAK256 SLOAD PUSH1 0x1 PUSH1 0x1 PUSH1 0x1 PUSH1 0x80 SHL SUB SWAP1 SWAP2 AND LT ISZERO PUSH2 0x1846 JUMPI PUSH1 0x40 MLOAD PUSH3 0x461BCD PUSH1 0xE5 SHL DUP2 MSTORE PUSH1 0x4 ADD PUSH2 0x6DA SWAP1 PUSH2 0x2E8B JUMP JUMPDEST CALLER PUSH1 0x0 DUP2 DUP2 MSTORE PUSH1 0x1 PUSH1 0x20 SWAP1 DUP2 MSTORE PUSH1 0x40 DUP1 DUP4 KECCAK256 PUSH1 0x2 DUP4 MSTORE DUP2 DUP5 KECCAK256 PUSH1 0x1 PUSH1 0x1 PUSH1 0xA0 SHL SUB DUP8 AND DUP1 DUP7 MSTORE DUP2 DUP6 MSTORE DUP4 DUP7 KECCAK256 DUP1 SLOAD PUSH1 0x1 PUSH1 0x1 PUSH1 0x80 SHL SUB AND DUP8 MSTORE SWAP3 DUP6 MSTORE DUP4 DUP7 KECCAK256 DUP1 SLOAD PUSH1 0x1 PUSH1 0x1 PUSH1 0xA0 SHL SUB NOT AND SWAP1 SSTORE SWAP5 DUP6 SWAP1 MSTORE DUP4 MSTORE DUP1 SLOAD PUSH1 0x1 PUSH1 0x1 PUSH1 0x80 SHL SUB NOT AND SWAP1 SSTORE DUP1 MLOAD SWAP4 DUP5 MSTORE SWAP1 DUP4 ADD SWAP2 SWAP1 SWAP2 MSTORE PUSH32 0xAD5EEAA2EE1BEF6674ECEA21B9329A0A9333380EAF145A4B888951038C8AA40C SWAP2 ADD PUSH2 0xE44 JUMP JUMPDEST PUSH1 0x6 SLOAD PUSH1 0x40 MLOAD PUSH4 0x38C3329 PUSH1 0xE5 SHL DUP2 MSTORE CALLER PUSH1 0x4 DUP3 ADD MSTORE PUSH1 0x1 PUSH1 0x1 PUSH1 0xA0 SHL SUB SWAP1 SWAP2 AND SWAP1 PUSH4 0x71866520 SWAP1 PUSH1 0x24 ADD PUSH1 0x20 PUSH1 0x40 MLOAD DUP1 DUP4 SUB DUP2 DUP7 GAS STATICCALL ISZERO DUP1 ISZERO PUSH2 0x1923 JUMPI RETURNDATASIZE PUSH1 0x0 DUP1 RETURNDATACOPY RETURNDATASIZE PUSH1 0x0 REVERT JUMPDEST POP POP POP POP PUSH1 0x40 MLOAD RETURNDATASIZE PUSH1 0x1F NOT PUSH1 0x1F DUP3 ADD AND DUP3 ADD DUP1 PUSH1 0x40 MSTORE POP DUP2 ADD SWAP1 PUSH2 0x1947 SWAP2 SWAP1 PUSH2 0x2DD4 JUMP JUMPDEST PUSH2 0x1963 JUMPI PUSH1 0x40 MLOAD PUSH3 0x461BCD PUSH1 0xE5 SHL DUP2 MSTORE PUSH1 0x4 ADD PUSH2 0x6DA SWAP1 PUSH2 0x2DF1 JUMP JUMPDEST PUSH1 0xC0 DUP2 ADD MLOAD PUSH1 0x1 PUSH1 0x1 PUSH1 0xA0 SHL SUB AND PUSH1 0x0 SWAP1 DUP2 MSTORE PUSH1 0x3 PUSH1 0x20 MSTORE PUSH1 0x40 SWAP1 KECCAK256 PUSH1 0x6 ADD SLOAD PUSH1 0x1 PUSH1 0xB0 SHL SWAP1 DIV PUSH1 0xFF AND ISZERO ISZERO PUSH1 0x1 SUB PUSH2 0x19CF JUMPI PUSH1 0x40 MLOAD PUSH3 0x461BCD PUSH1 0xE5 SHL DUP2 MSTORE PUSH1 0x20 PUSH1 0x4 DUP3 ADD MSTORE PUSH1 0xE PUSH1 0x24 DUP3 ADD MSTORE PUSH14 0x1D1A194818DBDA5B88195E1A5CDD PUSH1 0x92 SHL PUSH1 0x44 DUP3 ADD MSTORE PUSH1 0x64 ADD PUSH2 0x6DA JUMP JUMPDEST CALLER PUSH2 0x140 DUP3 ADD MSTORE PUSH1 0x0 PUSH1 0xE0 DUP3 ADD DUP2 SWAP1 MSTORE PUSH1 0x1 PUSH2 0x100 DUP4 ADD DUP2 SWAP1 MSTORE PUSH2 0x120 DUP4 ADD DUP2 SWAP1 MSTORE PUSH1 0x6 SLOAD PUSH1 0x1 PUSH1 0x1 PUSH1 0xA0 SHL SUB AND DUP3 MSTORE PUSH1 0x20 DUP3 SWAP1 MSTORE PUSH1 0x40 SWAP1 SWAP2 KECCAK256 SLOAD PUSH1 0x1 PUSH1 0x1 PUSH1 0x80 SHL SUB AND SWAP1 DUP2 LT DUP1 ISZERO SWAP1 PUSH2 0x1A3F JUMPI POP PUSH1 0x1 PUSH1 0x1 PUSH1 0x80 SHL SUB DUP2 AND PUSH2 0x1A33 DUP3 PUSH1 0x1 PUSH2 0x2E38 JUMP JUMPDEST PUSH1 0x1 PUSH1 0x1 PUSH1 0x80 SHL SUB AND LT ISZERO JUMPDEST ISZERO PUSH2 0x1A56 JUMPI PUSH2 0x1A4F PUSH1 0x1 DUP3 PUSH2 0x2E38 JUMP JUMPDEST SWAP1 POP PUSH2 0x1A5A JUMP JUMPDEST POP PUSH1 0x1 JUMPDEST PUSH1 0x6 DUP1 SLOAD PUSH1 0x1 PUSH1 0x1 PUSH1 0xA0 SHL SUB SWAP1 DUP2 AND PUSH1 0x0 SWAP1 DUP2 MSTORE PUSH1 0x20 DUP2 DUP2 MSTORE PUSH1 0x40 DUP1 DUP4 KECCAK256 DUP1 SLOAD PUSH1 0x1 PUSH1 0x1 PUSH1 0x80 SHL SUB DUP9 AND PUSH1 0x1 PUSH1 0x1 PUSH1 0x80 SHL SUB NOT SWAP2 DUP3 AND DUP2 OR SWAP1 SWAP3 SSTORE PUSH1 0xC0 DUP10 ADD DUP1 MLOAD DUP9 SLOAD DUP9 AND DUP8 MSTORE PUSH1 0x1 DUP1 DUP8 MSTORE DUP6 DUP9 KECCAK256 DUP6 DUP10 MSTORE DUP8 MSTORE DUP6 DUP9 KECCAK256 DUP1 SLOAD SWAP3 DUP11 AND PUSH1 0x1 PUSH1 0x1 PUSH1 0xA0 SHL SUB NOT SWAP4 DUP5 AND OR SWAP1 SSTORE DUP10 SLOAD DUP10 AND DUP9 MSTORE PUSH1 0x2 DUP1 DUP9 MSTORE DUP7 DUP10 KECCAK256 DUP5 MLOAD DUP12 AND DUP11 MSTORE DUP9 MSTORE DUP7 DUP10 KECCAK256 DUP1 SLOAD SWAP1 SWAP6 AND SWAP1 SWAP6 OR SWAP1 SWAP4 SSTORE DUP2 MLOAD DUP9 AND DUP8 MSTORE PUSH1 0x3 DUP1 DUP8 MSTORE SWAP7 DUP6 SWAP1 KECCAK256 DUP12 MLOAD DUP2 SSTORE SWAP6 DUP12 ADD MLOAD SWAP3 DUP7 ADD SWAP3 SWAP1 SWAP3 SSTORE DUP10 DUP5 ADD MLOAD SWAP3 DUP6 ADD SWAP3 SWAP1 SWAP3 SSTORE PUSH1 0x60 DUP10 ADD MLOAD SWAP5 DUP5 ADD DUP1 SLOAD PUSH1 0xFF SWAP1 SWAP7 AND PUSH1 0xFF NOT SWAP1 SWAP7 AND SWAP6 SWAP1 SWAP6 OR SWAP1 SWAP5 SSTORE PUSH1 0x80 DUP9 ADD MLOAD PUSH1 0x4 DUP5 ADD SSTORE PUSH1 0xA0 DUP9 ADD MLOAD PUSH1 0x5 DUP5 ADD SSTORE MLOAD SWAP5 DUP3 ADD DUP1 SLOAD PUSH1 0xE0 DUP10 ADD MLOAD PUSH2 0x100 DUP11 ADD MLOAD PUSH2 0x120 DUP12 ADD MLOAD ISZERO ISZERO PUSH1 0x1 PUSH1 0xB0 SHL MUL PUSH1 0xFF PUSH1 0xB0 SHL NOT SWAP2 ISZERO ISZERO PUSH1 0x1 PUSH1 0xA8 SHL MUL SWAP2 SWAP1 SWAP2 AND PUSH2 0xFFFF PUSH1 0xA8 SHL NOT SWAP3 ISZERO ISZERO PUSH1 0x1 PUSH1 0xA0 SHL MUL PUSH1 0x1 PUSH1 0x1 PUSH1 0xA8 SHL SUB NOT SWAP1 SWAP5 AND SWAP10 DUP10 AND SWAP10 SWAP1 SWAP10 OR SWAP3 SWAP1 SWAP3 OR AND SWAP7 SWAP1 SWAP7 OR SWAP6 SWAP1 SWAP6 OR SWAP1 SWAP5 SSTORE PUSH2 0x140 DUP7 ADD MLOAD PUSH1 0x7 SWAP1 SWAP2 ADD DUP1 SLOAD SWAP2 SWAP1 SWAP4 AND SWAP2 AND OR SWAP1 SSTORE MLOAD PUSH32 0x3FDEABF9CF0F252033E117E3BF501C16A9E905759535453A989A37BBB55557CB SWAP1 PUSH2 0xACB SWAP1 DUP5 SWAP1 PUSH2 0x2CE7 JUMP JUMPDEST PUSH1 0x6 SLOAD PUSH1 0x40 MLOAD PUSH4 0x38C3329 PUSH1 0xE5 SHL DUP2 MSTORE CALLER PUSH1 0x4 DUP3 ADD MSTORE PUSH1 0x1 PUSH1 0x1 PUSH1 0xA0 SHL SUB SWAP1 SWAP2 AND SWAP1 PUSH4 0x71866520 SWAP1 PUSH1 0x24 ADD PUSH1 0x20 PUSH1 0x40 MLOAD DUP1 DUP4 SUB DUP2 DUP7 GAS STATICCALL ISZERO DUP1 ISZERO PUSH2 0x1C33 JUMPI RETURNDATASIZE PUSH1 0x0 DUP1 RETURNDATACOPY RETURNDATASIZE PUSH1 0x0 REVERT JUMPDEST POP POP POP POP PUSH1 0x40 MLOAD RETURNDATASIZE PUSH1 0x1F NOT PUSH1 0x1F DUP3 ADD AND DUP3 ADD DUP1 PUSH1 0x40 MSTORE POP DUP2 ADD SWAP1 PUSH2 0x1C57 SWAP2 SWAP1 PUSH2 0x2DD4 JUMP JUMPDEST PUSH2 0x1C73 JUMPI PUSH1 0x40 MLOAD PUSH3 0x461BCD PUSH1 0xE5 SHL DUP2 MSTORE PUSH1 0x4 ADD PUSH2 0x6DA SWAP1 PUSH2 0x2DF1 JUMP JUMPDEST PUSH1 0x1 PUSH1 0x1 PUSH1 0xA0 SHL SUB DUP2 AND PUSH1 0x0 DUP2 DUP2 MSTORE PUSH1 0x3 PUSH1 0x20 SWAP1 DUP2 MSTORE PUSH1 0x40 SWAP2 DUP3 SWAP1 KECCAK256 PUSH1 0x6 ADD DUP1 SLOAD PUSH1 0xFF PUSH1 0xA0 SHL NOT AND SWAP1 SSTORE SWAP1 MLOAD SWAP2 DUP3 MSTORE PUSH32 0x1D4523355C952F926D43EB41085D74F46339403039EC5258081EFA96EA26EDD7 SWAP2 ADD PUSH2 0xE44 JUMP JUMPDEST PUSH1 0x7 SLOAD PUSH1 0x1 PUSH1 0x1 PUSH1 0xA0 SHL SUB AND CALLER EQ PUSH2 0x1D24 JUMPI PUSH1 0x40 MLOAD PUSH3 0x461BCD PUSH1 0xE5 SHL DUP2 MSTORE PUSH1 0x20 PUSH1 0x4 DUP3 ADD MSTORE PUSH1 0x19 PUSH1 0x24 DUP3 ADD MSTORE PUSH32 0x796F7520617265206E6F74206D61726B65746372656174657200000000000000 PUSH1 0x44 DUP3 ADD MSTORE PUSH1 0x64 ADD PUSH2 0x6DA JUMP JUMPDEST PUSH1 0x6 DUP1 SLOAD PUSH1 0x1 PUSH1 0x1 PUSH1 0xA0 SHL SUB SWAP5 DUP6 AND PUSH1 0x1 PUSH1 0x1 PUSH1 0xA0 SHL SUB NOT SWAP2 DUP3 AND OR SWAP1 SWAP2 SSTORE PUSH1 0x5 DUP1 SLOAD SWAP4 DUP6 AND SWAP4 DUP3 AND SWAP4 SWAP1 SWAP4 OR SWAP1 SWAP3 SSTORE PUSH1 0x7 DUP1 SLOAD SWAP2 SWAP1 SWAP4 AND SWAP2 AND OR SWAP1 SSTORE JUMP JUMPDEST PUSH1 0x5 SLOAD PUSH1 0x40 MLOAD PUSH4 0x601C2149 PUSH1 0xE1 SHL DUP2 MSTORE CALLER PUSH1 0x4 DUP3 ADD MSTORE PUSH1 0x1 PUSH1 0x1 PUSH1 0xA0 SHL SUB SWAP1 SWAP2 AND SWAP1 PUSH4 0xC0384292 SWAP1 PUSH1 0x24 ADD PUSH1 0x20 PUSH1 0x40 MLOAD DUP1 DUP4 SUB DUP2 DUP7 GAS STATICCALL ISZERO DUP1 ISZERO PUSH2 0x1DAB JUMPI RETURNDATASIZE PUSH1 0x0 DUP1 RETURNDATACOPY RETURNDATASIZE PUSH1 0x0 REVERT JUMPDEST POP POP POP POP PUSH1 0x40 MLOAD RETURNDATASIZE PUSH1 0x1F NOT PUSH1 0x1F DUP3 ADD AND DUP3 ADD DUP1 PUSH1 0x40 MSTORE POP DUP2 ADD SWAP1 PUSH2 0x1DCF SWAP2 SWAP1 PUSH2 0x2DD4 JUMP JUMPDEST PUSH2 0x1DEB JUMPI PUSH1 0x40 MLOAD PUSH3 0x461BCD PUSH1 0xE5 SHL DUP2 MSTORE PUSH1 0x4 ADD PUSH2 0x6DA SWAP1 PUSH2 0x2DF1 JUMP JUMPDEST PUSH1 0x1 PUSH1 0x1 PUSH1 0xA0 SHL SUB DUP2 DUP2 AND PUSH1 0x0 SWAP1 DUP2 MSTORE PUSH1 0x3 PUSH1 0x20 MSTORE PUSH1 0x40 SWAP1 KECCAK256 PUSH1 0x7 ADD SLOAD AND CALLER EQ PUSH2 0x1E27 JUMPI PUSH1 0x40 MLOAD PUSH3 0x461BCD PUSH1 0xE5 SHL DUP2 MSTORE PUSH1 0x4 ADD PUSH2 0x6DA SWAP1 PUSH2 0x2EBB JUMP JUMPDEST PUSH1 0x1 PUSH1 0x1 PUSH1 0xA0 SHL SUB DUP2 AND PUSH1 0x0 SWAP1 DUP2 MSTORE PUSH1 0x3 PUSH1 0x20 DUP2 SWAP1 MSTORE PUSH1 0x40 SWAP2 DUP3 SWAP1 KECCAK256 DUP10 DUP2 SSTORE PUSH1 0x1 DUP2 ADD DUP10 SWAP1 SSTORE PUSH1 0x2 DUP2 ADD DUP9 SWAP1 SSTORE SWAP1 DUP2 ADD DUP1 SLOAD PUSH1 0xFF NOT AND PUSH1 0xFF DUP9 AND OR SWAP1 SSTORE PUSH1 0x4 DUP2 ADD DUP6 SWAP1 SSTORE PUSH1 0x5 DUP2 ADD DUP5 SWAP1 SSTORE SWAP1 MLOAD PUSH32 0xE2CF3D7794282BE7DD508F8C88CA5394F0ABE2B9F09B848306B1EADD0BECDF94 SWAP2 PUSH2 0x1EA2 SWAP2 CALLER SWAP2 SWAP1 PUSH2 0x2EEB JUMP JUMPDEST PUSH1 0x40 MLOAD DUP1 SWAP2 SUB SWAP1 LOG1 POP POP POP POP POP POP POP JUMP JUMPDEST PUSH1 0x5 SLOAD PUSH1 0x40 MLOAD PUSH4 0x601C2149 PUSH1 0xE1 SHL DUP2 MSTORE CALLER PUSH1 0x4 DUP3 ADD MSTORE PUSH1 0x1 PUSH1 0x1 PUSH1 0xA0 SHL SUB SWAP1 SWAP2 AND SWAP1 PUSH4 0xC0384292 SWAP1 PUSH1 0x24 ADD PUSH1 0x20 PUSH1 0x40 MLOAD DUP1 DUP4 SUB DUP2 DUP7 GAS STATICCALL ISZERO DUP1 ISZERO PUSH2 0x1EFB JUMPI RETURNDATASIZE PUSH1 0x0 DUP1 RETURNDATACOPY RETURNDATASIZE PUSH1 0x0 REVERT JUMPDEST POP POP POP POP PUSH1 0x40 MLOAD RETURNDATASIZE PUSH1 0x1F NOT PUSH1 0x1F DUP3 ADD AND DUP3 ADD DUP1 PUSH1 0x40 MSTORE POP DUP2 ADD SWAP1 PUSH2 0x1F1F SWAP2 SWAP1 PUSH2 0x2DD4 JUMP JUMPDEST PUSH2 0x1F3B JUMPI PUSH1 0x40 MLOAD PUSH3 0x461BCD PUSH1 0xE5 SHL DUP2 MSTORE PUSH1 0x4 ADD PUSH2 0x6DA SWAP1 PUSH2 0x2DF1 JUMP JUMPDEST DUP1 MLOAD PUSH1 0x1 PUSH1 0x1 PUSH1 0xA0 SHL SUB SWAP1 DUP2 AND PUSH1 0x0 SWAP1 DUP2 MSTORE PUSH1 0x3 PUSH1 0x20 MSTORE PUSH1 0x40 SWAP1 KECCAK256 PUSH1 0x7 ADD SLOAD AND CALLER EQ PUSH2 0xDB1 JUMPI PUSH1 0x40 MLOAD PUSH3 0x461BCD PUSH1 0xE5 SHL DUP2 MSTORE PUSH1 0x20 PUSH1 0x4 DUP3 ADD MSTORE PUSH1 0x1C PUSH1 0x24 DUP3 ADD MSTORE PUSH32 0x796F75206973206E6F7420746865207468696E67206372656174657200000000 PUSH1 0x44 DUP3 ADD MSTORE PUSH1 0x64 ADD PUSH2 0x6DA JUMP JUMPDEST PUSH1 0x5 SLOAD PUSH1 0x40 MLOAD PUSH4 0x601C2149 PUSH1 0xE1 SHL DUP2 MSTORE CALLER PUSH1 0x4 DUP3 ADD MSTORE PUSH1 0x1 PUSH1 0x1 PUSH1 0xA0 SHL SUB SWAP1 SWAP2 AND SWAP1 PUSH4 0xC0384292 SWAP1 PUSH1 0x24 ADD PUSH1 0x20 PUSH1 0x40 MLOAD DUP1 DUP4 SUB DUP2 DUP7 GAS STATICCALL ISZERO DUP1 ISZERO PUSH2 0x1FF1 JUMPI RETURNDATASIZE PUSH1 0x0 DUP1 RETURNDATACOPY RETURNDATASIZE PUSH1 0x0 REVERT JUMPDEST POP POP POP POP PUSH1 0x40 MLOAD RETURNDATASIZE PUSH1 0x1F NOT PUSH1 0x1F DUP3 ADD AND DUP3 ADD DUP1 PUSH1 0x40 MSTORE POP DUP2 ADD SWAP1 PUSH2 0x2015 SWAP2 SWAP1 PUSH2 0x2DD4 JUMP JUMPDEST PUSH2 0x2031 JUMPI PUSH1 0x40 MLOAD PUSH3 0x461BCD PUSH1 0xE5 SHL DUP2 MSTORE PUSH1 0x4 ADD PUSH2 0x6DA SWAP1 PUSH2 0x2DF1 JUMP JUMPDEST PUSH1 0xC0 DUP2 ADD MLOAD PUSH1 0x1 PUSH1 0x1 PUSH1 0xA0 SHL SUB AND PUSH1 0x0 SWAP1 DUP2 MSTORE PUSH1 0x3 PUSH1 0x20 MSTORE PUSH1 0x40 SWAP1 KECCAK256 PUSH1 0x6 ADD SLOAD PUSH1 0x1 PUSH1 0xB0 SHL SWAP1 DIV PUSH1 0xFF AND ISZERO ISZERO PUSH1 0x1 SUB PUSH2 0x20A1 JUMPI PUSH1 0x40 MLOAD PUSH3 0x461BCD PUSH1 0xE5 SHL DUP2 MSTORE PUSH1 0x20 PUSH1 0x4 DUP3 ADD MSTORE PUSH1 0x12 PUSH1 0x24 DUP3 ADD MSTORE PUSH18 0x1D1A194818DBDA5B881A5CC808195E1A5CDD PUSH1 0x72 SHL PUSH1 0x44 DUP3 ADD MSTORE PUSH1 0x64 ADD PUSH2 0x6DA JUMP JUMPDEST CALLER PUSH2 0x140 DUP3 ADD DUP2 SWAP1 MSTORE PUSH1 0x0 PUSH1 0xE0 DUP4 ADD DUP2 SWAP1 MSTORE PUSH2 0x100 DUP4 ADD DUP2 SWAP1 MSTORE PUSH1 0x1 PUSH2 0x120 DUP5 ADD DUP2 SWAP1 MSTORE SWAP2 DUP2 MSTORE PUSH1 0x20 DUP2 SWAP1 MSTORE PUSH1 0x40 SWAP1 KECCAK256 SLOAD PUSH1 0x1 PUSH1 0x1 PUSH1 0x80 SHL SUB AND LT DUP1 ISZERO SWAP1 PUSH2 0x2114 JUMPI POP CALLER PUSH1 0x0 SWAP1 DUP2 MSTORE PUSH1 0x20 DUP2 SWAP1 MSTORE PUSH1 0x40 SWAP1 KECCAK256 SLOAD PUSH1 0x1 PUSH1 0x1 PUSH1 0x80 SHL SUB AND PUSH2 0x2108 DUP2 PUSH1 0x1 PUSH2 0x2E38 JUMP JUMPDEST PUSH1 0x1 PUSH1 0x1 PUSH1 0x80 SHL SUB AND LT ISZERO JUMPDEST ISZERO PUSH2 0x216B JUMPI CALLER PUSH1 0x0 SWAP1 DUP2 MSTORE PUSH1 0x20 DUP2 SWAP1 MSTORE PUSH1 0x40 DUP2 KECCAK256 DUP1 SLOAD PUSH1 0x1 SWAP3 SWAP1 PUSH2 0x2142 SWAP1 DUP5 SWAP1 PUSH1 0x1 PUSH1 0x1 PUSH1 0x80 SHL SUB AND PUSH2 0x2E38 JUMP JUMPDEST SWAP3 POP PUSH2 0x100 EXP DUP2 SLOAD DUP2 PUSH1 0x1 PUSH1 0x1 PUSH1 0x80 SHL SUB MUL NOT AND SWAP1 DUP4 PUSH1 0x1 PUSH1 0x1 PUSH1 0x80 SHL SUB AND MUL OR SWAP1 SSTORE POP PUSH2 0x218C JUMP JUMPDEST CALLER PUSH1 0x0 SWAP1 DUP2 MSTORE PUSH1 0x20 DUP2 SWAP1 MSTORE PUSH1 0x40 SWAP1 KECCAK256 DUP1 SLOAD PUSH1 0x1 PUSH1 0x1 PUSH1 0x80 SHL SUB NOT AND PUSH1 0x1 OR SWAP1 SSTORE JUMPDEST PUSH1 0xC0 DUP2 ADD DUP1 MLOAD CALLER PUSH1 0x0 DUP2 DUP2 MSTORE PUSH1 0x1 PUSH1 0x20 DUP2 DUP2 MSTORE PUSH1 0x40 DUP1 DUP5 KECCAK256 DUP5 DUP4 MSTORE DUP2 DUP6 KECCAK256 DUP1 SLOAD PUSH1 0x1 PUSH1 0x1 PUSH1 0x80 SHL SUB SWAP1 DUP2 AND DUP8 MSTORE SWAP2 DUP5 MSTORE DUP3 DUP7 KECCAK256 DUP1 SLOAD PUSH1 0x1 PUSH1 0x1 PUSH1 0xA0 SHL SUB SWAP10 DUP11 AND PUSH1 0x1 PUSH1 0x1 PUSH1 0xA0 SHL SUB NOT SWAP2 DUP3 AND OR SWAP1 SWAP2 SSTORE DUP8 DUP8 MSTORE SWAP1 SLOAD PUSH1 0x2 DUP1 DUP7 MSTORE DUP5 DUP9 KECCAK256 DUP12 MLOAD DUP12 AND DUP10 MSTORE DUP7 MSTORE DUP5 DUP9 KECCAK256 DUP1 SLOAD PUSH1 0x1 PUSH1 0x1 PUSH1 0x80 SHL SUB NOT AND SWAP3 SWAP1 SWAP5 AND SWAP2 SWAP1 SWAP2 OR SWAP1 SWAP3 SSTORE DUP9 MLOAD DUP9 AND DUP7 MSTORE PUSH1 0x3 DUP1 DUP6 MSTORE SWAP6 DUP4 SWAP1 KECCAK256 DUP11 MLOAD DUP2 SSTORE SWAP4 DUP11 ADD MLOAD SWAP5 DUP5 ADD SWAP5 SWAP1 SWAP5 SSTORE DUP2 DUP10 ADD MLOAD SWAP1 DUP4 ADD SSTORE PUSH1 0x60 DUP9 ADD MLOAD SWAP4 DUP3 ADD DUP1 SLOAD PUSH1 0xFF SWAP1 SWAP6 AND PUSH1 0xFF NOT SWAP1 SWAP6 AND SWAP5 SWAP1 SWAP5 OR SWAP1 SWAP4 SSTORE PUSH1 0x80 DUP8 ADD MLOAD PUSH1 0x4 DUP3 ADD SSTORE PUSH1 0xA0 DUP8 ADD MLOAD PUSH1 0x5 DUP3 ADD SSTORE SWAP5 MLOAD PUSH1 0x6 DUP7 ADD DUP1 SLOAD PUSH1 0xE0 DUP10 ADD MLOAD PUSH2 0x100 DUP11 ADD MLOAD PUSH2 0x120 DUP12 ADD MLOAD ISZERO ISZERO PUSH1 0x1 PUSH1 0xB0 SHL MUL PUSH1 0xFF PUSH1 0xB0 SHL NOT SWAP2 ISZERO ISZERO PUSH1 0x1 PUSH1 0xA8 SHL MUL SWAP2 SWAP1 SWAP2 AND PUSH2 0xFFFF PUSH1 0xA8 SHL NOT SWAP3 ISZERO ISZERO PUSH1 0x1 PUSH1 0xA0 SHL MUL PUSH1 0x1 PUSH1 0x1 PUSH1 0xA8 SHL SUB NOT SWAP1 SWAP5 AND SWAP6 DUP11 AND SWAP6 SWAP1 SWAP6 OR SWAP3 SWAP1 SWAP3 OR AND SWAP3 SWAP1 SWAP3 OR SWAP2 SWAP1 SWAP2 OR SWAP1 SSTORE PUSH2 0x140 DUP7 ADD MLOAD PUSH1 0x7 SWAP1 SWAP6 ADD DUP1 SLOAD SWAP6 SWAP1 SWAP5 AND SWAP5 AND SWAP4 SWAP1 SWAP4 OR SWAP1 SWAP2 SSTORE SWAP1 MLOAD PUSH32 0x724ED868AD6195EC663DE17364300EE1E1956F27F184CEB84F2BE30D1FD58D65 SWAP2 PUSH2 0xE44 SWAP2 DUP5 SWAP1 PUSH2 0x2E6D JUMP JUMPDEST PUSH2 0x2318 PUSH2 0x2946 JUMP JUMPDEST PUSH1 0x1 PUSH1 0x1 PUSH1 0xA0 SHL SUB DUP3 AND PUSH1 0x0 SWAP1 DUP2 MSTORE PUSH1 0x3 PUSH1 0x20 MSTORE PUSH1 0x40 SWAP1 KECCAK256 PUSH1 0x6 ADD SLOAD PUSH1 0x1 PUSH1 0xB0 SHL SWAP1 DIV PUSH1 0xFF AND ISZERO ISZERO PUSH1 0x1 EQ PUSH2 0x235F JUMPI PUSH1 0x40 MLOAD PUSH3 0x461BCD PUSH1 0xE5 SHL DUP2 MSTORE PUSH1 0x4 ADD PUSH2 0x6DA SWAP1 PUSH2 0x2E8B JUMP JUMPDEST POP PUSH1 0x1 PUSH1 0x1 PUSH1 0xA0 SHL SUB SWAP1 DUP2 AND PUSH1 0x0 SWAP1 DUP2 MSTORE PUSH1 0x3 PUSH1 0x20 DUP2 DUP2 MSTORE PUSH1 0x40 SWAP3 DUP4 SWAP1 KECCAK256 DUP4 MLOAD PUSH2 0x160 DUP2 ADD DUP6 MSTORE DUP2 SLOAD DUP2 MSTORE PUSH1 0x1 DUP3 ADD SLOAD SWAP3 DUP2 ADD SWAP3 SWAP1 SWAP3 MSTORE PUSH1 0x2 DUP2 ADD SLOAD SWAP4 DUP3 ADD SWAP4 SWAP1 SWAP4 MSTORE SWAP1 DUP3 ADD SLOAD PUSH1 0xFF SWAP1 DUP2 AND PUSH1 0x60 DUP4 ADD MSTORE PUSH1 0x4 DUP4 ADD SLOAD PUSH1 0x80 DUP4 ADD MSTORE PUSH1 0x5 DUP4 ADD SLOAD PUSH1 0xA0 DUP4 ADD MSTORE PUSH1 0x6 DUP4 ADD SLOAD DUP1 DUP6 AND PUSH1 0xC0 DUP5 ADD MSTORE PUSH1 0x1 PUSH1 0xA0 SHL DUP2 DIV DUP3 AND ISZERO ISZERO PUSH1 0xE0 DUP5 ADD MSTORE PUSH1 0x1 PUSH1 0xA8 SHL DUP2 DIV DUP3 AND ISZERO ISZERO PUSH2 0x100 DUP5 ADD MSTORE PUSH1 0x1 PUSH1 0xB0 SHL SWAP1 DIV AND ISZERO ISZERO PUSH2 0x120 DUP3 ADD MSTORE PUSH1 0x7 SWAP1 SWAP2 ADD SLOAD SWAP1 SWAP2 AND PUSH2 0x140 DUP3 ADD MSTORE SWAP1 JUMP JUMPDEST PUSH1 0x6 SLOAD PUSH1 0x40 MLOAD PUSH4 0x38C3329 PUSH1 0xE5 SHL DUP2 MSTORE CALLER PUSH1 0x4 DUP3 ADD MSTORE PUSH1 0x1 PUSH1 0x1 PUSH1 0xA0 SHL SUB SWAP1 SWAP2 AND SWAP1 PUSH4 0x71866520 SWAP1 PUSH1 0x24 ADD PUSH1 0x20 PUSH1 0x40 MLOAD DUP1 DUP4 SUB DUP2 DUP7 GAS STATICCALL ISZERO DUP1 ISZERO PUSH2 0x245C JUMPI RETURNDATASIZE PUSH1 0x0 DUP1 RETURNDATACOPY RETURNDATASIZE PUSH1 0x0 REVERT JUMPDEST POP POP POP POP PUSH1 0x40 MLOAD RETURNDATASIZE PUSH1 0x1F NOT PUSH1 0x1F DUP3 ADD AND DUP3 ADD DUP1 PUSH1 0x40 MSTORE POP DUP2 ADD SWAP1 PUSH2 0x2480 SWAP2 SWAP1 PUSH2 0x2DD4 JUMP JUMPDEST PUSH2 0x249C JUMPI PUSH1 0x40 MLOAD PUSH3 0x461BCD PUSH1 0xE5 SHL DUP2 MSTORE PUSH1 0x4 ADD PUSH2 0x6DA SWAP1 PUSH2 0x2DF1 JUMP JUMPDEST PUSH1 0x6 SLOAD PUSH1 0x1 PUSH1 0x1 PUSH1 0xA0 SHL SUB SWAP1 DUP2 AND PUSH1 0x0 SWAP1 DUP2 MSTORE PUSH1 0x1 PUSH1 0x20 SWAP1 DUP2 MSTORE PUSH1 0x40 DUP1 DUP4 KECCAK256 PUSH1 0x1 PUSH1 0x1 PUSH1 0x80 SHL SUB DUP7 AND DUP5 MSTORE SWAP1 SWAP2 MSTORE SWAP1 KECCAK256 SLOAD AND PUSH2 0x24EA JUMPI PUSH1 0x40 MLOAD PUSH3 0x461BCD PUSH1 0xE5 SHL DUP2 MSTORE PUSH1 0x4 ADD PUSH2 0x6DA SWAP1 PUSH2 0x2E8B JUMP JUMPDEST PUSH1 0x6 DUP1 SLOAD PUSH1 0x1 PUSH1 0x1 PUSH1 0xA0 SHL SUB SWAP1 DUP2 AND PUSH1 0x0 SWAP1 DUP2 MSTORE PUSH1 0x2 PUSH1 0x20 SWAP1 DUP2 MSTORE PUSH1 0x40 DUP1 DUP4 KECCAK256 PUSH1 0x1 DUP1 DUP5 MSTORE DUP3 DUP6 KECCAK256 PUSH1 0x1 PUSH1 0x1 PUSH1 0x80 SHL SUB DUP10 AND DUP1 DUP8 MSTORE SWAP1 DUP6 MSTORE DUP4 DUP7 KECCAK256 SLOAD DUP8 AND DUP7 MSTORE SWAP2 DUP5 MSTORE DUP3 DUP6 KECCAK256 DUP1 SLOAD PUSH1 0x1 PUSH1 0x1 PUSH1 0x80 SHL SUB NOT AND SWAP1 SSTORE SWAP6 SLOAD SWAP1 SWAP5 AND DUP4 MSTORE SWAP4 DUP2 MSTORE DUP4 DUP3 KECCAK256 DUP4 DUP4 MSTORE DUP2 MSTORE SWAP1 DUP4 SWAP1 KECCAK256 DUP1 SLOAD PUSH1 0x1 PUSH1 0x1 PUSH1 0xA0 SHL SUB NOT AND SWAP1 SSTORE SWAP2 MLOAD SWAP1 DUP2 MSTORE PUSH32 0x5F7C082CCCA0F36EC2622A3F2D11CF4A4B3A0DB0557669195572256A1DB6BE98 SWAP2 ADD PUSH2 0xE44 JUMP JUMPDEST PUSH1 0x6 SLOAD PUSH1 0x40 MLOAD PUSH4 0x38C3329 PUSH1 0xE5 SHL DUP2 MSTORE CALLER PUSH1 0x4 DUP3 ADD MSTORE PUSH1 0x1 PUSH1 0x1 PUSH1 0xA0 SHL SUB SWAP1 SWAP2 AND SWAP1 PUSH4 0x71866520 SWAP1 PUSH1 0x24 ADD PUSH1 0x20 PUSH1 0x40 MLOAD DUP1 DUP4 SUB DUP2 DUP7 GAS STATICCALL ISZERO DUP1 ISZERO PUSH2 0x25D7 JUMPI RETURNDATASIZE PUSH1 0x0 DUP1 RETURNDATACOPY RETURNDATASIZE PUSH1 0x0 REVERT JUMPDEST POP POP POP POP PUSH1 0x40 MLOAD RETURNDATASIZE PUSH1 0x1F NOT PUSH1 0x1F DUP3 ADD AND DUP3 ADD DUP1 PUSH1 0x40 MSTORE POP DUP2 ADD SWAP1 PUSH2 0x25FB SWAP2 SWAP1 PUSH2 0x2DD4 JUMP JUMPDEST PUSH2 0x2617 JUMPI PUSH1 0x40 MLOAD PUSH3 0x461BCD PUSH1 0xE5 SHL DUP2 MSTORE PUSH1 0x4 ADD PUSH2 0x6DA SWAP1 PUSH2 0x2DF1 JUMP JUMPDEST PUSH1 0xC0 DUP3 ADD MLOAD PUSH1 0x1 PUSH1 0x1 PUSH1 0xA0 SHL SUB AND PUSH1 0x0 SWAP1 DUP2 MSTORE PUSH1 0x3 PUSH1 0x20 MSTORE PUSH1 0x40 SWAP1 KECCAK256 PUSH1 0x6 ADD SLOAD PUSH1 0x1 PUSH1 0xB0 SHL SWAP1 DIV PUSH1 0xFF AND ISZERO ISZERO PUSH1 0x1 SUB PUSH2 0x2683 JUMPI PUSH1 0x40 MLOAD PUSH3 0x461BCD PUSH1 0xE5 SHL DUP2 MSTORE PUSH1 0x20 PUSH1 0x4 DUP3 ADD MSTORE PUSH1 0xE PUSH1 0x24 DUP3 ADD MSTORE PUSH14 0x1D1A194818DBDA5B88195E1A5CDD PUSH1 0x92 SHL PUSH1 0x44 DUP3 ADD MSTORE PUSH1 0x64 ADD PUSH2 0x6DA JUMP JUMPDEST CALLER PUSH2 0x140 DUP4 ADD MSTORE PUSH1 0x0 PUSH1 0xE0 DUP4 ADD DUP2 SWAP1 MSTORE PUSH1 0x1 PUSH2 0x100 DUP5 ADD DUP2 SWAP1 MSTORE PUSH2 0x120 DUP5 ADD DUP2 SWAP1 MSTORE PUSH1 0x6 SLOAD PUSH1 0x1 PUSH1 0x1 PUSH1 0xA0 SHL SUB AND DUP3 MSTORE PUSH1 0x20 DUP3 SWAP1 MSTORE PUSH1 0x40 SWAP1 SWAP2 KECCAK256 SLOAD PUSH1 0x1 PUSH1 0x1 PUSH1 0x80 SHL SUB AND SWAP1 DUP2 LT DUP1 ISZERO SWAP1 PUSH2 0x26F3 JUMPI POP PUSH1 0x1 PUSH1 0x1 PUSH1 0x80 SHL SUB DUP2 AND PUSH2 0x26E7 DUP3 PUSH1 0x1 PUSH2 0x2E38 JUMP JUMPDEST PUSH1 0x1 PUSH1 0x1 PUSH1 0x80 SHL SUB AND LT ISZERO JUMPDEST ISZERO PUSH2 0x270A JUMPI PUSH2 0x2703 PUSH1 0x1 DUP3 PUSH2 0x2E38 JUMP JUMPDEST SWAP1 POP PUSH2 0x270E JUMP JUMPDEST POP PUSH1 0x1 JUMPDEST PUSH1 0x6 DUP1 SLOAD PUSH1 0x1 PUSH1 0x1 PUSH1 0xA0 SHL SUB SWAP1 DUP2 AND PUSH1 0x0 SWAP1 DUP2 MSTORE PUSH1 0x20 DUP2 DUP2 MSTORE PUSH1 0x40 DUP1 DUP4 KECCAK256 DUP1 SLOAD PUSH1 0x1 PUSH1 0x1 PUSH1 0x80 SHL SUB DUP9 AND PUSH1 0x1 PUSH1 0x1 PUSH1 0x80 SHL SUB NOT SWAP2 DUP3 AND DUP2 OR SWAP1 SWAP3 SSTORE PUSH1 0xC0 DUP11 ADD DUP1 MLOAD DUP9 SLOAD DUP9 AND DUP8 MSTORE PUSH1 0x1 DUP1 DUP8 MSTORE DUP6 DUP9 KECCAK256 DUP6 DUP10 MSTORE DUP8 MSTORE DUP6 DUP9 KECCAK256 DUP1 SLOAD SWAP3 DUP11 AND PUSH1 0x1 PUSH1 0x1 PUSH1 0xA0 SHL SUB NOT SWAP4 DUP5 AND OR SWAP1 SSTORE DUP10 SLOAD DUP10 AND DUP9 MSTORE PUSH1 0x2 DUP1 DUP9 MSTORE DUP7 DUP10 KECCAK256 DUP5 MLOAD DUP12 AND DUP11 MSTORE DUP9 MSTORE DUP7 DUP10 KECCAK256 DUP1 SLOAD SWAP1 SWAP6 AND SWAP1 SWAP6 OR SWAP1 SWAP4 SSTORE DUP2 MLOAD DUP9 AND DUP8 MSTORE PUSH1 0x3 DUP1 DUP8 MSTORE SWAP7 DUP6 SWAP1 KECCAK256 DUP13 MLOAD DUP2 SSTORE SWAP6 DUP13 ADD MLOAD SWAP3 DUP7 ADD SWAP3 SWAP1 SWAP3 SSTORE DUP11 DUP5 ADD MLOAD SWAP3 DUP6 ADD SWAP3 SWAP1 SWAP3 SSTORE PUSH1 0x60 DUP11 ADD MLOAD SWAP5 DUP5 ADD DUP1 SLOAD PUSH1 0xFF SWAP1 SWAP7 AND PUSH1 0xFF NOT SWAP1 SWAP7 AND SWAP6 SWAP1 SWAP6 OR SWAP1 SWAP5 SSTORE PUSH1 0x80 DUP10 ADD MLOAD PUSH1 0x4 DUP5 ADD SSTORE PUSH1 0xA0 DUP10 ADD MLOAD PUSH1 0x5 DUP5 ADD SSTORE MLOAD SWAP5 DUP3 ADD DUP1 SLOAD PUSH1 0xE0 DUP11 ADD MLOAD PUSH2 0x100 DUP12 ADD MLOAD PUSH2 0x120 DUP13 ADD MLOAD ISZERO ISZERO PUSH1 0x1 PUSH1 0xB0 SHL MUL PUSH1 0xFF PUSH1 0xB0 SHL NOT SWAP2 ISZERO ISZERO PUSH1 0x1 PUSH1 0xA8 SHL MUL SWAP2 SWAP1 SWAP2 AND PUSH2 0xFFFF PUSH1 0xA8 SHL NOT SWAP3 ISZERO ISZERO PUSH1 0x1 PUSH1 0xA0 SHL MUL PUSH1 0x1 PUSH1 0x1 PUSH1 0xA8 SHL SUB NOT SWAP1 SWAP5 AND SWAP10 DUP10 AND SWAP10 SWAP1 SWAP10 OR SWAP3 SWAP1 SWAP3 OR AND SWAP7 SWAP1 SWAP7 OR SWAP6 SWAP1 SWAP6 OR SWAP1 SWAP5 SSTORE PUSH2 0x140 DUP8 ADD MLOAD PUSH1 0x7 SWAP1 SWAP2 ADD DUP1 SLOAD SWAP2 SWAP1 SWAP4 AND SWAP2 AND OR SWAP1 SSTORE MLOAD PUSH32 0x3FDEABF9CF0F252033E117E3BF501C16A9E905759535453A989A37BBB55557CB SWAP1 PUSH2 0x289F SWAP1 DUP6 SWAP1 PUSH2 0x2CE7 JUMP JUMPDEST PUSH1 0x40 MLOAD DUP1 SWAP2 SUB SWAP1 LOG1 DUP2 MLOAD PUSH1 0x1 PUSH1 0x1 PUSH1 0xA0 SHL SUB SWAP1 DUP2 AND PUSH1 0x0 SWAP1 DUP2 MSTORE PUSH1 0x4 PUSH1 0x20 DUP2 DUP2 MSTORE PUSH1 0x40 SWAP3 DUP4 SWAP1 KECCAK256 DUP7 MLOAD DUP2 SLOAD PUSH1 0x1 PUSH1 0x1 PUSH1 0xA0 SHL SUB NOT AND SWAP6 AND SWAP5 DUP6 OR DUP2 SSTORE DUP2 DUP8 ADD MLOAD PUSH1 0x1 DUP3 ADD SSTORE DUP4 DUP8 ADD MLOAD PUSH1 0x2 DUP3 ADD SSTORE PUSH1 0x60 DUP8 ADD MLOAD PUSH1 0x3 DUP3 ADD SSTORE PUSH1 0x80 DUP8 ADD MLOAD SWAP3 DUP2 ADD SWAP3 SWAP1 SWAP3 SSTORE PUSH1 0xA0 DUP7 ADD MLOAD PUSH1 0x5 SWAP1 SWAP3 ADD SWAP2 SWAP1 SWAP2 SSTORE SWAP1 MLOAD SWAP2 DUP3 MSTORE PUSH32 0x28995A3CC31B8867E272BF05BB4F577DA5E81799E17CF729D123EDF7C2A7CA94 SWAP2 ADD PUSH1 0x40 MLOAD DUP1 SWAP2 SUB SWAP1 LOG1 POP POP POP JUMP JUMPDEST PUSH1 0x40 DUP1 MLOAD PUSH2 0x160 DUP2 ADD DUP3 MSTORE PUSH1 0x0 DUP1 DUP3 MSTORE PUSH1 0x20 DUP3 ADD DUP2 SWAP1 MSTORE SWAP2 DUP2 ADD DUP3 SWAP1 MSTORE PUSH1 0x60 DUP2 ADD DUP3 SWAP1 MSTORE PUSH1 0x80 DUP2 ADD DUP3 SWAP1 MSTORE PUSH1 0xA0 DUP2 ADD DUP3 SWAP1 MSTORE PUSH1 0xC0 DUP2 ADD DUP3 SWAP1 MSTORE PUSH1 0xE0 DUP2 ADD DUP3 SWAP1 MSTORE PUSH2 0x100 DUP2 ADD DUP3 SWAP1 MSTORE PUSH2 0x120 DUP2 ADD DUP3 SWAP1 MSTORE PUSH2 0x140 DUP2 ADD SWAP2 SWAP1 SWAP2 MSTORE SWAP1 JUMP JUMPDEST PUSH1 0x40 MLOAD PUSH2 0x160 DUP2 ADD PUSH8 0xFFFFFFFFFFFFFFFF DUP2 GT DUP3 DUP3 LT OR ISZERO PUSH2 0x29D4 JUMPI PUSH4 0x4E487B71 PUSH1 0xE0 SHL PUSH1 0x0 MSTORE PUSH1 0x41 PUSH1 0x4 MSTORE PUSH1 0x24 PUSH1 0x0 REVERT JUMPDEST PUSH1 0x40 MSTORE SWAP1 JUMP JUMPDEST DUP1 CALLDATALOAD PUSH1 0xFF DUP2 AND DUP2 EQ PUSH2 0x29EB JUMPI PUSH1 0x0 DUP1 REVERT JUMPDEST SWAP2 SWAP1 POP JUMP JUMPDEST DUP1 CALLDATALOAD PUSH1 0x1 PUSH1 0x1 PUSH1 0xA0 SHL SUB DUP2 AND DUP2 EQ PUSH2 0x29EB JUMPI PUSH1 0x0 DUP1 REVERT JUMPDEST DUP1 ISZERO ISZERO DUP2 EQ PUSH2 0x2A15 JUMPI PUSH1 0x0 DUP1 REVERT JUMPDEST POP JUMP JUMPDEST DUP1 CALLDATALOAD PUSH2 0x29EB DUP2 PUSH2 0x2A07 JUMP JUMPDEST PUSH1 0x0 PUSH2 0x160 DUP3 DUP5 SUB SLT ISZERO PUSH2 0x2A36 JUMPI PUSH1 0x0 DUP1 REVERT JUMPDEST PUSH2 0x2A3E PUSH2 0x29A2 JUMP JUMPDEST SWAP1 POP DUP2 CALLDATALOAD DUP2 MSTORE PUSH1 0x20 DUP3 ADD CALLDATALOAD PUSH1 0x20 DUP3 ADD MSTORE PUSH1 0x40 DUP3 ADD CALLDATALOAD PUSH1 0x40 DUP3 ADD MSTORE PUSH2 0x2A64 PUSH1 0x60 DUP4 ADD PUSH2 0x29DA JUMP JUMPDEST PUSH1 0x60 DUP3 ADD MSTORE PUSH1 0x80 DUP3 ADD CALLDATALOAD PUSH1 0x80 DUP3 ADD MSTORE PUSH1 0xA0 DUP3 ADD CALLDATALOAD PUSH1 0xA0 DUP3 ADD MSTORE PUSH2 0x2A89 PUSH1 0xC0 DUP4 ADD PUSH2 0x29F0 JUMP JUMPDEST PUSH1 0xC0 DUP3 ADD MSTORE PUSH2 0x2A9A PUSH1 0xE0 DUP4 ADD PUSH2 0x2A18 JUMP JUMPDEST PUSH1 0xE0 DUP3 ADD MSTORE PUSH2 0x100 PUSH2 0x2AAD DUP2 DUP5 ADD PUSH2 0x2A18 JUMP JUMPDEST SWAP1 DUP3 ADD MSTORE PUSH2 0x120 PUSH2 0x2ABF DUP4 DUP3 ADD PUSH2 0x2A18 JUMP JUMPDEST SWAP1 DUP3 ADD MSTORE PUSH2 0x140 PUSH2 0x2AD1 DUP4 DUP3 ADD PUSH2 0x29F0 JUMP JUMPDEST SWAP1 DUP3 ADD MSTORE SWAP3 SWAP2 POP POP JUMP JUMPDEST PUSH1 0x0 PUSH1 0xC0 DUP3 DUP5 SUB SLT ISZERO PUSH2 0x2AED JUMPI PUSH1 0x0 DUP1 REVERT JUMPDEST PUSH1 0x40 MLOAD PUSH1 0xC0 DUP2 ADD DUP2 DUP2 LT PUSH8 0xFFFFFFFFFFFFFFFF DUP3 GT OR ISZERO PUSH2 0x2B1E JUMPI PUSH4 0x4E487B71 PUSH1 0xE0 SHL PUSH1 0x0 MSTORE PUSH1 0x41 PUSH1 0x4 MSTORE PUSH1 0x24 PUSH1 0x0 REVERT JUMPDEST PUSH1 0x40 MSTORE SWAP1 POP DUP1 PUSH2 0x2B2D DUP4 PUSH2 0x29F0 JUMP JUMPDEST DUP2 MSTORE PUSH1 0x20 DUP4 ADD CALLDATALOAD PUSH1 0x20 DUP3 ADD MSTORE PUSH1 0x40 DUP4 ADD CALLDATALOAD PUSH1 0x40 DUP3 ADD MSTORE PUSH1 0x60 DUP4 ADD CALLDATALOAD PUSH1 0x60 DUP3 ADD MSTORE PUSH1 0x80 DUP4 ADD CALLDATALOAD PUSH1 0x80 DUP3 ADD MSTORE PUSH1 0xA0 DUP4 ADD CALLDATALOAD PUSH1 0xA0 DUP3 ADD MSTORE POP SWAP3 SWAP2 POP POP JUMP JUMPDEST PUSH1 0x0 DUP1 PUSH2 0x220 DUP4 DUP6 SUB SLT ISZERO PUSH2 0x2B7C JUMPI PUSH1 0x0 DUP1 REVERT JUMPDEST PUSH2 0x2B86 DUP5 DUP5 PUSH2 0x2A23 JUMP JUMPDEST SWAP2 POP PUSH2 0x2B96 DUP5 PUSH2 0x160 DUP6 ADD PUSH2 0x2ADB JUMP JUMPDEST SWAP1 POP SWAP3 POP SWAP3 SWAP1 POP JUMP JUMPDEST PUSH1 0x0 PUSH1 0x20 DUP3 DUP5 SUB SLT ISZERO PUSH2 0x2BB1 JUMPI PUSH1 0x0 DUP1 REVERT JUMPDEST PUSH2 0x2BBA DUP3 PUSH2 0x29F0 JUMP JUMPDEST SWAP4 SWAP3 POP POP POP JUMP JUMPDEST PUSH1 0x0 PUSH1 0xC0 DUP3 DUP5 SUB SLT ISZERO PUSH2 0x2BD3 JUMPI PUSH1 0x0 DUP1 REVERT JUMPDEST PUSH2 0x2BBA DUP4 DUP4 PUSH2 0x2ADB JUMP JUMPDEST PUSH1 0x0 DUP1 PUSH1 0x40 DUP4 DUP6 SUB SLT ISZERO PUSH2 0x2BF0 JUMPI PUSH1 0x0 DUP1 REVERT JUMPDEST PUSH2 0x2BF9 DUP4 PUSH2 0x29F0 JUMP JUMPDEST SWAP2 POP PUSH2 0x2B96 PUSH1 0x20 DUP5 ADD PUSH2 0x29F0 JUMP JUMPDEST DUP1 CALLDATALOAD PUSH1 0x1 PUSH1 0x1 PUSH1 0x80 SHL SUB DUP2 AND DUP2 EQ PUSH2 0x29EB JUMPI PUSH1 0x0 DUP1 REVERT JUMPDEST PUSH1 0x0 DUP1 PUSH1 0x40 DUP4 DUP6 SUB SLT ISZERO PUSH2 0x2C31 JUMPI PUSH1 0x0 DUP1 REVERT JUMPDEST PUSH2 0x2C3A DUP4 PUSH2 0x29F0 JUMP JUMPDEST SWAP2 POP PUSH2 0x2B96 PUSH1 0x20 DUP5 ADD PUSH2 0x2C07 JUMP JUMPDEST DUP1 MLOAD DUP3 MSTORE PUSH1 0x20 DUP2 ADD MLOAD PUSH1 0x20 DUP4 ADD MSTORE PUSH1 0x40 DUP2 ADD MLOAD PUSH1 0x40 DUP4 ADD MSTORE PUSH1 0x60 DUP2 ADD MLOAD PUSH2 0x2C74 PUSH1 0x60 DUP5 ADD DUP3 PUSH1 0xFF AND SWAP1 MSTORE JUMP JUMPDEST POP PUSH1 0x80 DUP2 ADD MLOAD PUSH1 0x80 DUP4 ADD MSTORE PUSH1 0xA0 DUP2 ADD MLOAD PUSH1 0xA0 DUP4 ADD MSTORE PUSH1 0xC0 DUP2 ADD MLOAD PUSH2 0x2CA3 PUSH1 0xC0 DUP5 ADD DUP3 PUSH1 0x1 PUSH1 0x1 PUSH1 0xA0 SHL SUB AND SWAP1 MSTORE JUMP JUMPDEST POP PUSH1 0xE0 DUP2 ADD MLOAD PUSH2 0x2CB7 PUSH1 0xE0 DUP5 ADD DUP3 ISZERO ISZERO SWAP1 MSTORE JUMP JUMPDEST POP PUSH2 0x100 DUP2 DUP2 ADD MLOAD ISZERO ISZERO SWAP1 DUP4 ADD MSTORE PUSH2 0x120 DUP1 DUP3 ADD MLOAD ISZERO ISZERO SWAP1 DUP4 ADD MSTORE PUSH2 0x140 SWAP1 DUP2 ADD MLOAD PUSH1 0x1 PUSH1 0x1 PUSH1 0xA0 SHL SUB AND SWAP2 ADD MSTORE JUMP JUMPDEST PUSH2 0x160 DUP2 ADD PUSH2 0x129A DUP3 DUP5 PUSH2 0x2C48 JUMP JUMPDEST PUSH1 0x0 PUSH1 0x20 DUP3 DUP5 SUB SLT ISZERO PUSH2 0x2D08 JUMPI PUSH1 0x0 DUP1 REVERT JUMPDEST PUSH2 0x2BBA DUP3 PUSH2 0x2C07 JUMP JUMPDEST PUSH1 0x0 PUSH2 0x160 DUP3 DUP5 SUB SLT ISZERO PUSH2 0x2D24 JUMPI PUSH1 0x0 DUP1 REVERT JUMPDEST PUSH2 0x2BBA DUP4 DUP4 PUSH2 0x2A23 JUMP JUMPDEST PUSH1 0x0 DUP1 PUSH1 0x0 PUSH1 0x60 DUP5 DUP7 SUB SLT ISZERO PUSH2 0x2D43 JUMPI PUSH1 0x0 DUP1 REVERT JUMPDEST PUSH2 0x2D4C DUP5 PUSH2 0x29F0 JUMP JUMPDEST SWAP3 POP PUSH2 0x2D5A PUSH1 0x20 DUP6 ADD PUSH2 0x29F0 JUMP JUMPDEST SWAP2 POP PUSH2 0x2D68 PUSH1 0x40 DUP6 ADD PUSH2 0x29F0 JUMP JUMPDEST SWAP1 POP SWAP3 POP SWAP3 POP SWAP3 JUMP JUMPDEST PUSH1 0x0 DUP1 PUSH1 0x0 DUP1 PUSH1 0x0 DUP1 PUSH1 0x0 PUSH1 0xE0 DUP9 DUP11 SUB SLT ISZERO PUSH2 0x2D8C JUMPI PUSH1 0x0 DUP1 REVERT JUMPDEST DUP8 CALLDATALOAD SWAP7 POP PUSH1 0x20 DUP9 ADD CALLDATALOAD SWAP6 POP PUSH1 0x40 DUP9 ADD CALLDATALOAD SWAP5 POP PUSH2 0x2DAA PUSH1 0x60 DUP10 ADD PUSH2 0x29DA JUMP JUMPDEST SWAP4 POP PUSH1 0x80 DUP9 ADD CALLDATALOAD SWAP3 POP PUSH1 0xA0 DUP9 ADD CALLDATALOAD SWAP2 POP PUSH2 0x2DC6 PUSH1 0xC0 DUP10 ADD PUSH2 0x29F0 JUMP JUMPDEST SWAP1 POP SWAP3 SWAP6 SWAP9 SWAP2 SWAP5 SWAP8 POP SWAP3 SWAP6 POP JUMP JUMPDEST PUSH1 0x0 PUSH1 0x20 DUP3 DUP5 SUB SLT ISZERO PUSH2 0x2DE6 JUMPI PUSH1 0x0 DUP1 REVERT JUMPDEST DUP2 MLOAD PUSH2 0x2BBA DUP2 PUSH2 0x2A07 JUMP JUMPDEST PUSH1 0x20 DUP1 DUP3 MSTORE PUSH1 0x27 SWAP1 DUP3 ADD MSTORE PUSH32 0x7468652063616C6C6572206D7573742062652076616C6964206D61726B657420 PUSH1 0x40 DUP3 ADD MSTORE PUSH7 0x36B0B730B3B2B9 PUSH1 0xC9 SHL PUSH1 0x60 DUP3 ADD MSTORE PUSH1 0x80 ADD SWAP1 JUMP JUMPDEST PUSH1 0x1 PUSH1 0x1 PUSH1 0x80 SHL SUB DUP2 DUP2 AND DUP4 DUP3 AND ADD SWAP1 DUP1 DUP3 GT ISZERO PUSH2 0x2E66 JUMPI PUSH4 0x4E487B71 PUSH1 0xE0 SHL PUSH1 0x0 MSTORE PUSH1 0x11 PUSH1 0x4 MSTORE PUSH1 0x24 PUSH1 0x0 REVERT JUMPDEST POP SWAP3 SWAP2 POP POP JUMP JUMPDEST PUSH1 0x1 PUSH1 0x1 PUSH1 0xA0 SHL SUB DUP4 AND DUP2 MSTORE PUSH2 0x180 DUP2 ADD PUSH2 0x2BBA PUSH1 0x20 DUP4 ADD DUP5 PUSH2 0x2C48 JUMP JUMPDEST PUSH1 0x20 DUP1 DUP3 MSTORE PUSH1 0x16 SWAP1 DUP3 ADD MSTORE PUSH22 0x74686520636F696E206973206E6F7420657869737473 PUSH1 0x50 SHL PUSH1 0x40 DUP3 ADD MSTORE PUSH1 0x60 ADD SWAP1 JUMP JUMPDEST PUSH1 0x20 DUP1 DUP3 MSTORE PUSH1 0x16 SWAP1 DUP3 ADD MSTORE PUSH22 0x1E5BDD481A185D99481B9BDD081D1A19481C9A59DA1D PUSH1 0x52 SHL PUSH1 0x40 DUP3 ADD MSTORE PUSH1 0x60 ADD SWAP1 JUMP JUMPDEST PUSH1 0x1 PUSH1 0x1 PUSH1 0xA0 SHL SUB DUP4 DUP2 AND DUP3 MSTORE DUP3 SLOAD PUSH1 0x20 DUP4 ADD MSTORE PUSH1 0x1 DUP4 ADD SLOAD PUSH1 0x40 DUP4 ADD MSTORE PUSH1 0x2 DUP4 ADD SLOAD PUSH1 0x60 DUP4 ADD MSTORE PUSH1 0x3 DUP4 ADD SLOAD PUSH2 0x180 DUP4 ADD SWAP2 SWAP1 PUSH1 0xFF AND PUSH1 0xFF DUP2 AND PUSH1 0x80 DUP6 ADD MSTORE POP PUSH1 0x4 DUP5 ADD SLOAD PUSH1 0xA0 DUP5 ADD MSTORE PUSH1 0x5 DUP5 ADD SLOAD PUSH1 0xC0 DUP5 ADD MSTORE PUSH1 0x6 DUP5 ADD SLOAD PUSH1 0x1 PUSH1 0x1 PUSH1 0xA0 SHL SUB DUP3 DUP3 AND AND PUSH1 0xE0 DUP6 ADD MSTORE PUSH2 0x2F6B PUSH2 0x100 DUP6 ADD PUSH1 0xFF DUP4 PUSH1 0xA0 SHR AND ISZERO ISZERO SWAP1 MSTORE JUMP JUMPDEST PUSH2 0x2F80 PUSH2 0x120 DUP6 ADD PUSH1 0xFF DUP4 PUSH1 0xA8 SHR AND ISZERO ISZERO SWAP1 MSTORE JUMP JUMPDEST PUSH2 0x2F95 PUSH2 0x140 DUP6 ADD PUSH1 0xFF DUP4 PUSH1 0xB0 SHR AND ISZERO ISZERO SWAP1 MSTORE JUMP JUMPDEST POP POP PUSH1 0x7 SWAP3 SWAP1 SWAP3 ADD SLOAD PUSH1 0x1 PUSH1 0x1 PUSH1 0xA0 SHL SUB AND PUSH2 0x160 SWAP2 SWAP1 SWAP2 ADD MSTORE SWAP2 SWAP1 POP JUMP INVALID LOG2 PUSH5 0x6970667358 0x22 SLT KECCAK256 0x29 0x22 DUP5 DUP8 PUSH3 0x9944F5 CALL PUSH3 0x22DAB5 0xAA 0x21 GT 0xCB CHAINID SWAP13 PUSH28 0x972673B9F990BE7FA1375A0F64736F6C634300081200330000000000 "
				},
				"gasEstimates": {
					"creation": {
						"codeDepositCost": "2453200",
						"executionCost": "infinite",
						"totalCost": "infinite"
					},
					"external": {
						"addCoinDetailInfobyGator((address,bytes32,bytes32,bytes32,bytes32,bytes32))": "infinite",
						"addCoinDetailInfobyMarketor((address,bytes32,bytes32,bytes32,bytes32,bytes32))": "infinite",
						"addCoinFullinfobyGator((bytes32,bytes32,bytes32,uint8,uint256,uint256,address,bool,bool,bool,address),(address,bytes32,bytes32,bytes32,bytes32,bytes32))": "infinite",
						"addCoinFullinfobyMarketor((bytes32,bytes32,bytes32,uint8,uint256,uint256,address,bool,bool,bool,address),(address,bytes32,bytes32,bytes32,bytes32,bytes32))": "infinite",
						"addCoinbyGator((bytes32,bytes32,bytes32,uint8,uint256,uint256,address,bool,bool,bool,address))": "infinite",
						"addCoinbyMarketor((bytes32,bytes32,bytes32,uint8,uint256,uint256,address,bool,bool,bool,address))": "infinite",
						"coinDetailList(address)": "13303",
						"coinList(address)": "17798",
						"coinMaxNo(address)": "2627",
						"delCoinbyGator(address)": "infinite",
						"delCoinbyGator(uint128)": "infinite",
						"delCoinbyMarketor(address)": "infinite",
						"delCoinbyMarketor(uint128)": "infinite",
						"gatorContractAddress()": "2371",
						"getCoinInfoFromOwnerCoinNo(address,uint128)": "infinite",
						"getCoinInfoFromaddress(address)": "20680",
						"getCoinMaxNo(address)": "2669",
						"impoveGateCoinbyMarketor(address)": "infinite",
						"isValidCoin(address)": "2684",
						"lockCoinbyGator(address)": "infinite",
						"lockCoinbyMarketor(address)": "infinite",
						"marketCreator()": "2394",
						"marketorContractAddress()": "2393",
						"ownerCoinList(address,uint128)": "infinite",
						"ownerCoinNo(address,address)": "infinite",
						"setCoinEnv(address,address,address)": "infinite",
						"unlockCoinbyGator(address)": "infinite",
						"unlockCoinbyMarketor(address)": "infinite",
						"updateCoinbyGator(bytes32,bytes32,bytes32,uint8,uint256,uint256,address)": "infinite",
						"updateCoinbyMarketor((bytes32,bytes32,bytes32,uint8,uint256,uint256,address,bool,bool,bool,address))": "infinite"
					}
				},
				"methodIdentifiers": {
					"addCoinDetailInfobyGator((address,bytes32,bytes32,bytes32,bytes32,bytes32))": "c6e39898",
					"addCoinDetailInfobyMarketor((address,bytes32,bytes32,bytes32,bytes32,bytes32))": "128e641d",
					"addCoinFullinfobyGator((bytes32,bytes32,bytes32,uint8,uint256,uint256,address,bool,bool,bool,address),(address,bytes32,bytes32,bytes32,bytes32,bytes32))": "07cb20e8",
					"addCoinFullinfobyMarketor((bytes32,bytes32,bytes32,uint8,uint256,uint256,address,bool,bool,bool,address),(address,bytes32,bytes32,bytes32,bytes32,bytes32))": "f8eeb665",
					"addCoinbyGator((bytes32,bytes32,bytes32,uint8,uint256,uint256,address,bool,bool,bool,address))": "d04dc91e",
					"addCoinbyMarketor((bytes32,bytes32,bytes32,uint8,uint256,uint256,address,bool,bool,bool,address))": "9e2c608c",
					"coinDetailList(address)": "6cedf640",
					"coinList(address)": "31ecdeb8",
					"coinMaxNo(address)": "d848b5ba",
					"delCoinbyGator(address)": "92a59f1f",
					"delCoinbyGator(uint128)": "5e2c9314",
					"delCoinbyMarketor(address)": "7c3e2f02",
					"delCoinbyMarketor(uint128)": "f022f417",
					"gatorContractAddress()": "47d0a634",
					"getCoinInfoFromOwnerCoinNo(address,uint128)": "54d39318",
					"getCoinInfoFromaddress(address)": "d25b9e58",
					"getCoinMaxNo(address)": "40e7bdc3",
					"impoveGateCoinbyMarketor(address)": "11cfa0bc",
					"isValidCoin(address)": "328320bf",
					"lockCoinbyGator(address)": "441eb548",
					"lockCoinbyMarketor(address)": "b20be2b4",
					"marketCreator()": "27cbaabe",
					"marketorContractAddress()": "492b7107",
					"ownerCoinList(address,uint128)": "690e1784",
					"ownerCoinNo(address,address)": "3e68d831",
					"setCoinEnv(address,address,address)": "b244cb29",
					"unlockCoinbyGator(address)": "385e4b7a",
					"unlockCoinbyMarketor(address)": "1d3b8f67",
					"updateCoinbyGator(bytes32,bytes32,bytes32,uint8,uint256,uint256,address)": "c23a9da2",
					"updateCoinbyMarketor((bytes32,bytes32,bytes32,uint8,uint256,uint256,address,bool,bool,bool,address))": "798fdafa"
				}
			},
			"storageLayout": {
				"storage": [
					{
						"astId": 11,
						"contract": "Contracts/TTSwapV1Coin.sol:TTSwapV1Coin",
						"label": "coinMaxNo",
						"offset": 0,
						"slot": "0",
						"type": "t_mapping(t_address,t_uint128)"
					},
					{
						"astId": 17,
						"contract": "Contracts/TTSwapV1Coin.sol:TTSwapV1Coin",
						"label": "ownerCoinList",
						"offset": 0,
						"slot": "1",
						"type": "t_mapping(t_address,t_mapping(t_uint128,t_address))"
					},
					{
						"astId": 23,
						"contract": "Contracts/TTSwapV1Coin.sol:TTSwapV1Coin",
						"label": "ownerCoinNo",
						"offset": 0,
						"slot": "2",
						"type": "t_mapping(t_address,t_mapping(t_address,t_uint128))"
					},
					{
						"astId": 28,
						"contract": "Contracts/TTSwapV1Coin.sol:TTSwapV1Coin",
						"label": "coinList",
						"offset": 0,
						"slot": "3",
						"type": "t_mapping(t_address,t_struct(Info)1685_storage)"
					},
					{
						"astId": 33,
						"contract": "Contracts/TTSwapV1Coin.sol:TTSwapV1Coin",
						"label": "coinDetailList",
						"offset": 0,
						"slot": "4",
						"type": "t_mapping(t_address,t_struct(DetailInfo)1698_storage)"
					},
					{
						"astId": 35,
						"contract": "Contracts/TTSwapV1Coin.sol:TTSwapV1Coin",
						"label": "gatorContractAddress",
						"offset": 0,
						"slot": "5",
						"type": "t_address"
					},
					{
						"astId": 37,
						"contract": "Contracts/TTSwapV1Coin.sol:TTSwapV1Coin",
						"label": "marketorContractAddress",
						"offset": 0,
						"slot": "6",
						"type": "t_address"
					},
					{
						"astId": 39,
						"contract": "Contracts/TTSwapV1Coin.sol:TTSwapV1Coin",
						"label": "marketCreator",
						"offset": 0,
						"slot": "7",
						"type": "t_address"
					}
				],
				"types": {
					"t_address": {
						"encoding": "inplace",
						"label": "address",
						"numberOfBytes": "20"
					},
					"t_bool": {
						"encoding": "inplace",
						"label": "bool",
						"numberOfBytes": "1"
					},
					"t_bytes32": {
						"encoding": "inplace",
						"label": "bytes32",
						"numberOfBytes": "32"
					},
					"t_mapping(t_address,t_mapping(t_address,t_uint128))": {
						"encoding": "mapping",
						"key": "t_address",
						"label": "mapping(address => mapping(address => uint128))",
						"numberOfBytes": "32",
						"value": "t_mapping(t_address,t_uint128)"
					},
					"t_mapping(t_address,t_mapping(t_uint128,t_address))": {
						"encoding": "mapping",
						"key": "t_address",
						"label": "mapping(address => mapping(uint128 => address))",
						"numberOfBytes": "32",
						"value": "t_mapping(t_uint128,t_address)"
					},
					"t_mapping(t_address,t_struct(DetailInfo)1698_storage)": {
						"encoding": "mapping",
						"key": "t_address",
						"label": "mapping(address => struct LCoin.DetailInfo)",
						"numberOfBytes": "32",
						"value": "t_struct(DetailInfo)1698_storage"
					},
					"t_mapping(t_address,t_struct(Info)1685_storage)": {
						"encoding": "mapping",
						"key": "t_address",
						"label": "mapping(address => struct LCoin.Info)",
						"numberOfBytes": "32",
						"value": "t_struct(Info)1685_storage"
					},
					"t_mapping(t_address,t_uint128)": {
						"encoding": "mapping",
						"key": "t_address",
						"label": "mapping(address => uint128)",
						"numberOfBytes": "32",
						"value": "t_uint128"
					},
					"t_mapping(t_uint128,t_address)": {
						"encoding": "mapping",
						"key": "t_uint128",
						"label": "mapping(uint128 => address)",
						"numberOfBytes": "32",
						"value": "t_address"
					},
					"t_struct(DetailInfo)1698_storage": {
						"encoding": "inplace",
						"label": "struct LCoin.DetailInfo",
						"members": [
							{
								"astId": 1687,
								"contract": "Contracts/TTSwapV1Coin.sol:TTSwapV1Coin",
								"label": "contractAddress",
								"offset": 0,
								"slot": "0",
								"type": "t_address"
							},
							{
								"astId": 1689,
								"contract": "Contracts/TTSwapV1Coin.sol:TTSwapV1Coin",
								"label": "WhitePaperUrl",
								"offset": 0,
								"slot": "1",
								"type": "t_bytes32"
							},
							{
								"astId": 1691,
								"contract": "Contracts/TTSwapV1Coin.sol:TTSwapV1Coin",
								"label": "OfficalWebsite",
								"offset": 0,
								"slot": "2",
								"type": "t_bytes32"
							},
							{
								"astId": 1693,
								"contract": "Contracts/TTSwapV1Coin.sol:TTSwapV1Coin",
								"label": "blockExplorerUrl",
								"offset": 0,
								"slot": "3",
								"type": "t_bytes32"
							},
							{
								"astId": 1695,
								"contract": "Contracts/TTSwapV1Coin.sol:TTSwapV1Coin",
								"label": "twriterUrl",
								"offset": 0,
								"slot": "4",
								"type": "t_bytes32"
							},
							{
								"astId": 1697,
								"contract": "Contracts/TTSwapV1Coin.sol:TTSwapV1Coin",
								"label": "bbsUrl",
								"offset": 0,
								"slot": "5",
								"type": "t_bytes32"
							}
						],
						"numberOfBytes": "192"
					},
					"t_struct(Info)1685_storage": {
						"encoding": "inplace",
						"label": "struct LCoin.Info",
						"members": [
							{
								"astId": 1664,
								"contract": "Contracts/TTSwapV1Coin.sol:TTSwapV1Coin",
								"label": "coinFullName",
								"offset": 0,
								"slot": "0",
								"type": "t_bytes32"
							},
							{
								"astId": 1666,
								"contract": "Contracts/TTSwapV1Coin.sol:TTSwapV1Coin",
								"label": "symbol",
								"offset": 0,
								"slot": "1",
								"type": "t_bytes32"
							},
							{
								"astId": 1668,
								"contract": "Contracts/TTSwapV1Coin.sol:TTSwapV1Coin",
								"label": "typecode",
								"offset": 0,
								"slot": "2",
								"type": "t_bytes32"
							},
							{
								"astId": 1670,
								"contract": "Contracts/TTSwapV1Coin.sol:TTSwapV1Coin",
								"label": "decimals",
								"offset": 0,
								"slot": "3",
								"type": "t_uint8"
							},
							{
								"astId": 1672,
								"contract": "Contracts/TTSwapV1Coin.sol:TTSwapV1Coin",
								"label": "maxSupply",
								"offset": 0,
								"slot": "4",
								"type": "t_uint256"
							},
							{
								"astId": 1674,
								"contract": "Contracts/TTSwapV1Coin.sol:TTSwapV1Coin",
								"label": "totalSupply",
								"offset": 0,
								"slot": "5",
								"type": "t_uint256"
							},
							{
								"astId": 1676,
								"contract": "Contracts/TTSwapV1Coin.sol:TTSwapV1Coin",
								"label": "contractAddress",
								"offset": 0,
								"slot": "6",
								"type": "t_address"
							},
							{
								"astId": 1678,
								"contract": "Contracts/TTSwapV1Coin.sol:TTSwapV1Coin",
								"label": "marketunlock",
								"offset": 20,
								"slot": "6",
								"type": "t_bool"
							},
							{
								"astId": 1680,
								"contract": "Contracts/TTSwapV1Coin.sol:TTSwapV1Coin",
								"label": "gateunlock",
								"offset": 21,
								"slot": "6",
								"type": "t_bool"
							},
							{
								"astId": 1682,
								"contract": "Contracts/TTSwapV1Coin.sol:TTSwapV1Coin",
								"label": "isUsed",
								"offset": 22,
								"slot": "6",
								"type": "t_bool"
							},
							{
								"astId": 1684,
								"contract": "Contracts/TTSwapV1Coin.sol:TTSwapV1Coin",
								"label": "creator",
								"offset": 0,
								"slot": "7",
								"type": "t_address"
							}
						],
						"numberOfBytes": "256"
					},
					"t_uint128": {
						"encoding": "inplace",
						"label": "uint128",
						"numberOfBytes": "16"
					},
					"t_uint256": {
						"encoding": "inplace",
						"label": "uint256",
						"numberOfBytes": "32"
					},
					"t_uint8": {
						"encoding": "inplace",
						"label": "uint8",
						"numberOfBytes": "1"
					}
				}
			},
			"userdoc": {
				"kind": "user",
				"methods": {
					"addCoinFullinfobyMarketor((bytes32,bytes32,bytes32,uint8,uint256,uint256,address,bool,bool,bool,address),(address,bytes32,bytes32,bytes32,bytes32,bytes32))": {
						"notice": "Explain to an end user what this does"
					},
					"addCoinbyMarketor((bytes32,bytes32,bytes32,uint8,uint256,uint256,address,bool,bool,bool,address))": {
						"notice": "Explain to an end user what this does"
					},
					"gatorContractAddress()": {
						"notice": "The contract that deployed the pool, which must adhere to the IUniswapV3Factory interface"
					},
					"marketorContractAddress()": {
						"notice": "The contract that deployed the pool, which must adhere to the IUniswapV3Factory interface"
					}
				},
				"version": 1
			}
		}
	}
}