{
	"Contracts/WBTC.sol": {
		"WBTC": {
			"abi": [
				{
					"inputs": [],
					"stateMutability": "nonpayable",
					"type": "constructor"
				},
				{
					"anonymous": false,
					"inputs": [
						{
							"indexed": true,
							"internalType": "address",
							"name": "_owner",
							"type": "address"
						},
						{
							"indexed": true,
							"internalType": "address",
							"name": "_spender",
							"type": "address"
						},
						{
							"indexed": false,
							"internalType": "uint256",
							"name": "_value",
							"type": "uint256"
						}
					],
					"name": "Approval",
					"type": "event"
				},
				{
					"anonymous": false,
					"inputs": [
						{
							"indexed": true,
							"internalType": "address",
							"name": "_from",
							"type": "address"
						},
						{
							"indexed": true,
							"internalType": "address",
							"name": "_to",
							"type": "address"
						},
						{
							"indexed": false,
							"internalType": "uint256",
							"name": "_value",
							"type": "uint256"
						}
					],
					"name": "Transfer",
					"type": "event"
				},
				{
					"inputs": [
						{
							"internalType": "address",
							"name": "_owner",
							"type": "address"
						},
						{
							"internalType": "address",
							"name": "_spender",
							"type": "address"
						}
					],
					"name": "allowance",
					"outputs": [
						{
							"internalType": "uint256",
							"name": "remaining",
							"type": "uint256"
						}
					],
					"stateMutability": "view",
					"type": "function"
				},
				{
					"inputs": [
						{
							"internalType": "address",
							"name": "",
							"type": "address"
						},
						{
							"internalType": "address",
							"name": "",
							"type": "address"
						}
					],
					"name": "allowed",
					"outputs": [
						{
							"internalType": "uint256",
							"name": "",
							"type": "uint256"
						}
					],
					"stateMutability": "view",
					"type": "function"
				},
				{
					"inputs": [
						{
							"internalType": "address",
							"name": "_spender",
							"type": "address"
						},
						{
							"internalType": "uint256",
							"name": "_value",
							"type": "uint256"
						}
					],
					"name": "approve",
					"outputs": [
						{
							"internalType": "bool",
							"name": "success",
							"type": "bool"
						}
					],
					"stateMutability": "nonpayable",
					"type": "function"
				},
				{
					"inputs": [
						{
							"internalType": "address",
							"name": "_owner",
							"type": "address"
						}
					],
					"name": "balanceOf",
					"outputs": [
						{
							"internalType": "uint256",
							"name": "balance",
							"type": "uint256"
						}
					],
					"stateMutability": "view",
					"type": "function"
				},
				{
					"inputs": [
						{
							"internalType": "address",
							"name": "",
							"type": "address"
						}
					],
					"name": "balances",
					"outputs": [
						{
							"internalType": "uint256",
							"name": "",
							"type": "uint256"
						}
					],
					"stateMutability": "view",
					"type": "function"
				},
				{
					"inputs": [],
					"name": "decimals",
					"outputs": [
						{
							"internalType": "uint8",
							"name": "",
							"type": "uint8"
						}
					],
					"stateMutability": "view",
					"type": "function"
				},
				{
					"inputs": [],
					"name": "name",
					"outputs": [
						{
							"internalType": "string",
							"name": "",
							"type": "string"
						}
					],
					"stateMutability": "view",
					"type": "function"
				},
				{
					"inputs": [],
					"name": "symbol",
					"outputs": [
						{
							"internalType": "string",
							"name": "",
							"type": "string"
						}
					],
					"stateMutability": "view",
					"type": "function"
				},
				{
					"inputs": [],
					"name": "totalSupply",
					"outputs": [
						{
							"internalType": "uint256",
							"name": "",
							"type": "uint256"
						}
					],
					"stateMutability": "view",
					"type": "function"
				},
				{
					"inputs": [
						{
							"internalType": "address",
							"name": "_to",
							"type": "address"
						},
						{
							"internalType": "uint256",
							"name": "_value",
							"type": "uint256"
						}
					],
					"name": "transfer",
					"outputs": [
						{
							"internalType": "bool",
							"name": "success",
							"type": "bool"
						}
					],
					"stateMutability": "nonpayable",
					"type": "function"
				},
				{
					"inputs": [
						{
							"internalType": "address",
							"name": "_from",
							"type": "address"
						},
						{
							"internalType": "address",
							"name": "_to",
							"type": "address"
						},
						{
							"internalType": "uint256",
							"name": "_value",
							"type": "uint256"
						}
					],
					"name": "transferFrom",
					"outputs": [
						{
							"internalType": "bool",
							"name": "success",
							"type": "bool"
						}
					],
					"stateMutability": "nonpayable",
					"type": "function"
				}
			],
			"devdoc": {
				"kind": "dev",
				"methods": {
					"allowance(address,address)": {
						"params": {
							"_owner": "The address of the account owning tokens",
							"_spender": "The address of the account able to transfer the tokens"
						},
						"returns": {
							"remaining": "Amount of remaining tokens allowed to spent"
						}
					},
					"approve(address,uint256)": {
						"params": {
							"_spender": "The address of the account able to transfer the tokens",
							"_value": "The amount of wei to be approved for transfer"
						},
						"returns": {
							"success": "Whether the approval was successful or not"
						}
					},
					"balanceOf(address)": {
						"params": {
							"_owner": "The address from which the balance will be retrieved"
						},
						"returns": {
							"balance": "the balance"
						}
					},
					"transfer(address,uint256)": {
						"params": {
							"_to": "The address of the recipient",
							"_value": "The amount of token to be transferred"
						},
						"returns": {
							"success": "Whether the transfer was successful or not"
						}
					},
					"transferFrom(address,address,uint256)": {
						"params": {
							"_from": "The address of the sender",
							"_to": "The address of the recipient",
							"_value": "The amount of token to be transferred"
						},
						"returns": {
							"success": "Whether the transfer was successful or not"
						}
					}
				},
				"version": 1
			},
			"evm": {
				"assembly": "    /* \"Contracts/WBTC.sol\":2006:4737  contract WBTC is Token {... */\n  mstore(0x40, 0x80)\n    /* \"Contracts/WBTC.sol\":2688:3032  constructor() {... */\n  callvalue\n  dup1\n  iszero\n  tag_1\n  jumpi\n  0x00\n  dup1\n  revert\ntag_1:\n  pop\n    /* \"Contracts/WBTC.sol\":2721:2731  msg.sender */\n  caller\n    /* \"Contracts/WBTC.sol\":2712:2720  balances */\n  0x00\n    /* \"Contracts/WBTC.sol\":2712:2732  balances[msg.sender] */\n  swap1\n  dup2\n  mstore\n  0x20\n  dup2\n  dup2\n  mstore\n  0x40\n  swap2\n  dup3\n  swap1\n  keccak256\n    /* \"Contracts/WBTC.sol\":2735:2742  2 ** 18 */\n  0x040000\n    /* \"Contracts/WBTC.sol\":2712:2742  balances[msg.sender] = 2 ** 18 */\n  swap1\n  sstore\n    /* \"Contracts/WBTC.sol\":2805:2812  2 ** 36 */\n  0x1000000000\n    /* \"Contracts/WBTC.sol\":2791:2802  totalSupply */\n  0x02\n    /* \"Contracts/WBTC.sol\":2791:2812  totalSupply = 2 ** 36 */\n  sstore\n    /* \"Contracts/WBTC.sol\":2845:2858  name = \"WBTC\" */\n  dup2\n  mload\n  dup1\n  dup4\n  add\n  swap1\n  swap3\n  mstore\n  0x04\n  dup3\n  mstore\n  shl(0xe0, 0x57425443)\n  swap1\n  dup3\n  add\n  mstore\n    /* \"Contracts/WBTC.sol\":2845:2849  name */\n  0x03\n  swap1\n    /* \"Contracts/WBTC.sol\":2845:2858  name = \"WBTC\" */\n  tag_4\n  swap1\n    /* \"Contracts/WBTC.sol\":2845:2849  name */\n  dup3\n    /* \"Contracts/WBTC.sol\":2845:2858  name = \"WBTC\" */\n  tag_5\n  jump\t// in\ntag_4:\n  pop\n    /* \"Contracts/WBTC.sol\":2905:2913  decimals */\n  0x04\n    /* \"Contracts/WBTC.sol\":2905:2918  decimals = 18 */\n  dup1\n  sload\n  not(0xff)\n  and\n    /* \"Contracts/WBTC.sol\":2916:2918  18 */\n  0x12\n    /* \"Contracts/WBTC.sol\":2905:2918  decimals = 18 */\n  or\n  dup2\n  sstore\n    /* \"Contracts/WBTC.sol\":2971:2986  symbol = \"WBTC\" */\n  0x40\n  dup1\n  mload\n  dup1\n  dup3\n  add\n  swap1\n  swap2\n  mstore\n  swap1\n  dup2\n  mstore\n  shl(0xe0, 0x57425443)\n  0x20\n  dup3\n  add\n  mstore\n    /* \"Contracts/WBTC.sol\":2971:2977  symbol */\n  0x05\n  swap1\n    /* \"Contracts/WBTC.sol\":2971:2986  symbol = \"WBTC\" */\n  tag_6\n  swap1\n    /* \"Contracts/WBTC.sol\":2971:2977  symbol */\n  dup3\n    /* \"Contracts/WBTC.sol\":2971:2986  symbol = \"WBTC\" */\n  tag_5\n  jump\t// in\ntag_6:\n  pop\n    /* \"Contracts/WBTC.sol\":2006:4737  contract WBTC is Token {... */\n  jump(tag_13)\n    /* \"#utility.yul\":14:141   */\ntag_8:\n    /* \"#utility.yul\":75:85   */\n  0x4e487b71\n    /* \"#utility.yul\":70:73   */\n  0xe0\n    /* \"#utility.yul\":66:86   */\n  shl\n    /* \"#utility.yul\":63:64   */\n  0x00\n    /* \"#utility.yul\":56:87   */\n  mstore\n    /* \"#utility.yul\":106:110   */\n  0x41\n    /* \"#utility.yul\":103:104   */\n  0x04\n    /* \"#utility.yul\":96:111   */\n  mstore\n    /* \"#utility.yul\":130:134   */\n  0x24\n    /* \"#utility.yul\":127:128   */\n  0x00\n    /* \"#utility.yul\":120:135   */\n  revert\n    /* \"#utility.yul\":146:526   */\ntag_9:\n    /* \"#utility.yul\":225:226   */\n  0x01\n    /* \"#utility.yul\":221:233   */\n  dup2\n  dup2\n  shr\n  swap1\n    /* \"#utility.yul\":268:280   */\n  dup3\n  and\n  dup1\n    /* \"#utility.yul\":289:350   */\n  tag_16\n  jumpi\n    /* \"#utility.yul\":343:347   */\n  0x7f\n    /* \"#utility.yul\":335:341   */\n  dup3\n    /* \"#utility.yul\":331:348   */\n  and\n    /* \"#utility.yul\":321:348   */\n  swap2\n  pop\n    /* \"#utility.yul\":289:350   */\ntag_16:\n    /* \"#utility.yul\":396:398   */\n  0x20\n    /* \"#utility.yul\":388:394   */\n  dup3\n    /* \"#utility.yul\":385:399   */\n  lt\n    /* \"#utility.yul\":365:383   */\n  dup2\n    /* \"#utility.yul\":362:400   */\n  sub\n    /* \"#utility.yul\":359:520   */\n  tag_17\n  jumpi\n    /* \"#utility.yul\":442:452   */\n  0x4e487b71\n    /* \"#utility.yul\":437:440   */\n  0xe0\n    /* \"#utility.yul\":433:453   */\n  shl\n    /* \"#utility.yul\":430:431   */\n  0x00\n    /* \"#utility.yul\":423:454   */\n  mstore\n    /* \"#utility.yul\":477:481   */\n  0x22\n    /* \"#utility.yul\":474:475   */\n  0x04\n    /* \"#utility.yul\":467:482   */\n  mstore\n    /* \"#utility.yul\":505:509   */\n  0x24\n    /* \"#utility.yul\":502:503   */\n  0x00\n    /* \"#utility.yul\":495:510   */\n  revert\n    /* \"#utility.yul\":359:520   */\ntag_17:\n  pop\n    /* \"#utility.yul\":146:526   */\n  swap2\n  swap1\n  pop\n  jump\t// out\n    /* \"#utility.yul\":657:1202   */\ntag_11:\n    /* \"#utility.yul\":759:761   */\n  0x1f\n    /* \"#utility.yul\":754:757   */\n  dup3\n    /* \"#utility.yul\":751:762   */\n  gt\n    /* \"#utility.yul\":748:1196   */\n  iszero\n  tag_20\n  jumpi\n    /* \"#utility.yul\":795:796   */\n  0x00\n    /* \"#utility.yul\":820:825   */\n  dup2\n    /* \"#utility.yul\":816:818   */\n  dup2\n    /* \"#utility.yul\":809:826   */\n  mstore\n    /* \"#utility.yul\":865:869   */\n  0x20\n    /* \"#utility.yul\":861:863   */\n  dup2\n    /* \"#utility.yul\":851:870   */\n  keccak256\n    /* \"#utility.yul\":935:937   */\n  0x1f\n    /* \"#utility.yul\":923:933   */\n  dup6\n    /* \"#utility.yul\":919:938   */\n  add\n    /* \"#utility.yul\":916:917   */\n  0x05\n    /* \"#utility.yul\":912:939   */\n  shr\n    /* \"#utility.yul\":906:910   */\n  dup2\n    /* \"#utility.yul\":902:940   */\n  add\n    /* \"#utility.yul\":971:975   */\n  0x20\n    /* \"#utility.yul\":959:969   */\n  dup7\n    /* \"#utility.yul\":956:976   */\n  lt\n    /* \"#utility.yul\":953:1000   */\n  iszero\n  tag_21\n  jumpi\n  pop\n    /* \"#utility.yul\":994:998   */\n  dup1\n    /* \"#utility.yul\":953:1000   */\ntag_21:\n    /* \"#utility.yul\":1049:1051   */\n  0x1f\n    /* \"#utility.yul\":1044:1047   */\n  dup6\n    /* \"#utility.yul\":1040:1052   */\n  add\n    /* \"#utility.yul\":1037:1038   */\n  0x05\n    /* \"#utility.yul\":1033:1053   */\n  shr\n    /* \"#utility.yul\":1027:1031   */\n  dup3\n    /* \"#utility.yul\":1023:1054   */\n  add\n    /* \"#utility.yul\":1013:1054   */\n  swap2\n  pop\n    /* \"#utility.yul\":1104:1186   */\ntag_22:\n    /* \"#utility.yul\":1122:1124   */\n  dup2\n    /* \"#utility.yul\":1115:1120   */\n  dup2\n    /* \"#utility.yul\":1112:1125   */\n  lt\n    /* \"#utility.yul\":1104:1186   */\n  iszero\n  tag_24\n  jumpi\n    /* \"#utility.yul\":1167:1184   */\n  dup3\n  dup2\n  sstore\n    /* \"#utility.yul\":1148:1149   */\n  0x01\n    /* \"#utility.yul\":1137:1150   */\n  add\n    /* \"#utility.yul\":1104:1186   */\n  jump(tag_22)\ntag_24:\n    /* \"#utility.yul\":1108:1111   */\n  pop\n  pop\n  pop\n    /* \"#utility.yul\":748:1196   */\ntag_20:\n    /* \"#utility.yul\":657:1202   */\n  pop\n  pop\n  pop\n  jump\t// out\n    /* \"#utility.yul\":1378:2730   */\ntag_5:\n    /* \"#utility.yul\":1498:1508   */\n  dup2\n  mload\n  sub(shl(0x40, 0x01), 0x01)\n    /* \"#utility.yul\":1520:1550   */\n  dup2\n  gt\n    /* \"#utility.yul\":1517:1573   */\n  iszero\n  tag_28\n  jumpi\n    /* \"#utility.yul\":1553:1571   */\n  tag_28\n  tag_8\n  jump\t// in\ntag_28:\n    /* \"#utility.yul\":1582:1679   */\n  tag_29\n    /* \"#utility.yul\":1672:1678   */\n  dup2\n    /* \"#utility.yul\":1632:1670   */\n  tag_30\n    /* \"#utility.yul\":1664:1668   */\n  dup5\n    /* \"#utility.yul\":1658:1669   */\n  sload\n    /* \"#utility.yul\":1632:1670   */\n  tag_9\n  jump\t// in\ntag_30:\n    /* \"#utility.yul\":1626:1630   */\n  dup5\n    /* \"#utility.yul\":1582:1679   */\n  tag_11\n  jump\t// in\ntag_29:\n    /* \"#utility.yul\":1734:1738   */\n  0x20\n  dup1\n    /* \"#utility.yul\":1798:1800   */\n  0x1f\n    /* \"#utility.yul\":1787:1801   */\n  dup4\n  gt\n    /* \"#utility.yul\":1815:1816   */\n  0x01\n    /* \"#utility.yul\":1810:2473   */\n  dup2\n  eq\n  tag_32\n  jumpi\n    /* \"#utility.yul\":2517:2518   */\n  0x00\n    /* \"#utility.yul\":2534:2540   */\n  dup5\n    /* \"#utility.yul\":2531:2620   */\n  iszero\n  tag_33\n  jumpi\n  pop\n    /* \"#utility.yul\":2586:2605   */\n  dup6\n  dup4\n  add\n    /* \"#utility.yul\":2580:2606   */\n  mload\n    /* \"#utility.yul\":2531:2620   */\ntag_33:\n  not(0x00)\n    /* \"#utility.yul\":1335:1336   */\n  0x03\n    /* \"#utility.yul\":1331:1342   */\n  dup7\n  swap1\n  shl\n    /* \"#utility.yul\":1327:1351   */\n  shr\n    /* \"#utility.yul\":1323:1352   */\n  not\n    /* \"#utility.yul\":1313:1353   */\n  and\n    /* \"#utility.yul\":1359:1360   */\n  0x01\n    /* \"#utility.yul\":1355:1366   */\n  dup6\n  swap1\n  shl\n    /* \"#utility.yul\":1310:1367   */\n  or\n    /* \"#utility.yul\":2633:2714   */\n  dup6\n  sstore\n    /* \"#utility.yul\":1780:2724   */\n  jump(tag_24)\n    /* \"#utility.yul\":1810:2473   */\ntag_32:\n    /* \"#utility.yul\":604:605   */\n  0x00\n    /* \"#utility.yul\":597:611   */\n  dup6\n  dup2\n  mstore\n    /* \"#utility.yul\":641:645   */\n  0x20\n    /* \"#utility.yul\":628:646   */\n  dup2\n  keccak256\n  not(0x1f)\n    /* \"#utility.yul\":1846:1866   */\n  dup7\n  and\n  swap2\n    /* \"#utility.yul\":1964:2200   */\ntag_36:\n    /* \"#utility.yul\":1978:1985   */\n  dup3\n    /* \"#utility.yul\":1975:1976   */\n  dup2\n    /* \"#utility.yul\":1972:1986   */\n  lt\n    /* \"#utility.yul\":1964:2200   */\n  iszero\n  tag_38\n  jumpi\n    /* \"#utility.yul\":2067:2086   */\n  dup9\n  dup7\n  add\n    /* \"#utility.yul\":2061:2087   */\n  mload\n    /* \"#utility.yul\":2046:2088   */\n  dup3\n  sstore\n    /* \"#utility.yul\":2159:2186   */\n  swap5\n  dup5\n  add\n  swap5\n    /* \"#utility.yul\":2127:2128   */\n  0x01\n    /* \"#utility.yul\":2115:2129   */\n  swap1\n  swap2\n  add\n  swap1\n    /* \"#utility.yul\":1994:2013   */\n  dup5\n  add\n    /* \"#utility.yul\":1964:2200   */\n  jump(tag_36)\ntag_38:\n    /* \"#utility.yul\":1968:1971   */\n  pop\n    /* \"#utility.yul\":2228:2234   */\n  dup6\n    /* \"#utility.yul\":2219:2226   */\n  dup3\n    /* \"#utility.yul\":2216:2235   */\n  lt\n    /* \"#utility.yul\":2213:2414   */\n  iszero\n  tag_39\n  jumpi\n    /* \"#utility.yul\":2289:2308   */\n  dup8\n  dup6\n  add\n    /* \"#utility.yul\":2283:2309   */\n  mload\n  not(0x00)\n    /* \"#utility.yul\":2372:2373   */\n  0x03\n    /* \"#utility.yul\":2368:2382   */\n  dup9\n  swap1\n  shl\n    /* \"#utility.yul\":2384:2387   */\n  0xf8\n    /* \"#utility.yul\":2364:2388   */\n  and\n    /* \"#utility.yul\":2360:2397   */\n  shr\n    /* \"#utility.yul\":2356:2398   */\n  not\n    /* \"#utility.yul\":2341:2399   */\n  and\n    /* \"#utility.yul\":2326:2400   */\n  dup2\n  sstore\n    /* \"#utility.yul\":2213:2414   */\ntag_39:\n  pop\n  pop\n  pop\n  pop\n  pop\n    /* \"#utility.yul\":2460:2461   */\n  0x01\n    /* \"#utility.yul\":2444:2458   */\n  swap1\n  dup2\n  shl\n    /* \"#utility.yul\":2440:2462   */\n  add\n    /* \"#utility.yul\":2427:2463   */\n  swap1\n  sstore\n  pop\n    /* \"#utility.yul\":1378:2730   */\n  jump\t// out\ntag_13:\n    /* \"Contracts/WBTC.sol\":2006:4737  contract WBTC is Token {... */\n  dataSize(sub_0)\n  dup1\n  dataOffset(sub_0)\n  0x00\n  codecopy\n  0x00\n  return\nstop\n\nsub_0: assembly {\n        /* \"Contracts/WBTC.sol\":2006:4737  contract WBTC is Token {... */\n      mstore(0x40, 0x80)\n      callvalue\n      dup1\n      iszero\n      tag_1\n      jumpi\n      0x00\n      dup1\n      revert\n    tag_1:\n      pop\n      jumpi(tag_2, lt(calldatasize, 0x04))\n      shr(0xe0, calldataload(0x00))\n      dup1\n      0x313ce567\n      gt\n      tag_14\n      jumpi\n      dup1\n      0x313ce567\n      eq\n      tag_8\n      jumpi\n      dup1\n      0x5c658165\n      eq\n      tag_9\n      jumpi\n      dup1\n      0x70a08231\n      eq\n      tag_10\n      jumpi\n      dup1\n      0x95d89b41\n      eq\n      tag_11\n      jumpi\n      dup1\n      0xa9059cbb\n      eq\n      tag_12\n      jumpi\n      dup1\n      0xdd62ed3e\n      eq\n      tag_13\n      jumpi\n      0x00\n      dup1\n      revert\n    tag_14:\n      dup1\n      0x06fdde03\n      eq\n      tag_3\n      jumpi\n      dup1\n      0x095ea7b3\n      eq\n      tag_4\n      jumpi\n      dup1\n      0x18160ddd\n      eq\n      tag_5\n      jumpi\n      dup1\n      0x23b872dd\n      eq\n      tag_6\n      jumpi\n      dup1\n      0x27e235e3\n      eq\n      tag_7\n      jumpi\n    tag_2:\n      0x00\n      dup1\n      revert\n        /* \"Contracts/WBTC.sol\":2528:2546  string public name */\n    tag_3:\n      tag_15\n      tag_16\n      jump\t// in\n    tag_15:\n      mload(0x40)\n      tag_17\n      swap2\n      swap1\n      tag_18\n      jump\t// in\n    tag_17:\n      mload(0x40)\n      dup1\n      swap2\n      sub\n      swap1\n      return\n        /* \"Contracts/WBTC.sol\":4269:4556  function approve(... */\n    tag_4:\n      tag_19\n      tag_20\n      calldatasize\n      0x04\n      tag_21\n      jump\t// in\n    tag_20:\n      tag_22\n      jump\t// in\n    tag_19:\n      mload(0x40)\n        /* \"#utility.yul\":1169:1183   */\n      swap1\n      iszero\n        /* \"#utility.yul\":1162:1184   */\n      iszero\n        /* \"#utility.yul\":1144:1185   */\n      dup2\n      mstore\n        /* \"#utility.yul\":1132:1134   */\n      0x20\n        /* \"#utility.yul\":1117:1135   */\n      add\n        /* \"Contracts/WBTC.sol\":4269:4556  function approve(... */\n      tag_17\n        /* \"#utility.yul\":1004:1191   */\n      jump\n        /* \"Contracts/WBTC.sol\":2209:2235  uint256 public totalSupply */\n    tag_5:\n      tag_25\n      sload(0x02)\n      dup2\n      jump\n    tag_25:\n      mload(0x40)\n        /* \"#utility.yul\":1342:1367   */\n      swap1\n      dup2\n      mstore\n        /* \"#utility.yul\":1330:1332   */\n      0x20\n        /* \"#utility.yul\":1315:1333   */\n      add\n        /* \"Contracts/WBTC.sol\":2209:2235  uint256 public totalSupply */\n      tag_17\n        /* \"#utility.yul\":1196:1373   */\n      jump\n        /* \"Contracts/WBTC.sol\":3481:4121  function transferFrom(... */\n    tag_6:\n      tag_19\n      tag_30\n      calldatasize\n      0x04\n      tag_31\n      jump\t// in\n    tag_30:\n      tag_32\n      jump\t// in\n        /* \"Contracts/WBTC.sol\":2092:2135  mapping(address => uint256) public balances */\n    tag_7:\n      tag_25\n      tag_35\n      calldatasize\n      0x04\n      tag_36\n      jump\t// in\n    tag_35:\n      0x00\n      0x20\n      dup2\n      swap1\n      mstore\n      swap1\n      dup2\n      mstore\n      0x40\n      swap1\n      keccak256\n      sload\n      dup2\n      jump\n        /* \"Contracts/WBTC.sol\":2581:2602  uint8 public decimals */\n    tag_8:\n      sload(0x04)\n      tag_39\n      swap1\n      0xff\n      and\n      dup2\n      jump\n    tag_39:\n      mload(0x40)\n        /* \"#utility.yul\":2074:2078   */\n      0xff\n        /* \"#utility.yul\":2062:2079   */\n      swap1\n      swap2\n      and\n        /* \"#utility.yul\":2044:2080   */\n      dup2\n      mstore\n        /* \"#utility.yul\":2032:2034   */\n      0x20\n        /* \"#utility.yul\":2017:2035   */\n      add\n        /* \"Contracts/WBTC.sol\":2581:2602  uint8 public decimals */\n      tag_17\n        /* \"#utility.yul\":1902:2086   */\n      jump\n        /* \"Contracts/WBTC.sol\":2141:2203  mapping(address => mapping(address => uint256)) public allowed */\n    tag_9:\n      tag_25\n      tag_44\n      calldatasize\n      0x04\n      tag_45\n      jump\t// in\n    tag_44:\n      0x01\n      0x20\n      swap1\n      dup2\n      mstore\n      0x00\n      swap3\n      dup4\n      mstore\n      0x40\n      dup1\n      dup5\n      keccak256\n      swap1\n      swap2\n      mstore\n      swap1\n      dup3\n      mstore\n      swap1\n      keccak256\n      sload\n      dup2\n      jump\n        /* \"Contracts/WBTC.sol\":4127:4263  function balanceOf(... */\n    tag_10:\n      tag_25\n      tag_49\n      calldatasize\n      0x04\n      tag_36\n      jump\t// in\n    tag_49:\n      sub(shl(0xa0, 0x01), 0x01)\n        /* \"Contracts/WBTC.sol\":4240:4256  balances[_owner] */\n      and\n        /* \"Contracts/WBTC.sol\":4206:4221  uint256 balance */\n      0x00\n        /* \"Contracts/WBTC.sol\":4240:4256  balances[_owner] */\n      swap1\n      dup2\n      mstore\n      0x20\n      dup2\n      swap1\n      mstore\n      0x40\n      swap1\n      keccak256\n      sload\n      swap1\n        /* \"Contracts/WBTC.sol\":4127:4263  function balanceOf(... */\n      jump\n        /* \"Contracts/WBTC.sol\":2637:2657  string public symbol */\n    tag_11:\n      tag_15\n      tag_53\n      jump\t// in\n        /* \"Contracts/WBTC.sol\":3038:3475  function transfer(... */\n    tag_12:\n      tag_19\n      tag_56\n      calldatasize\n      0x04\n      tag_21\n      jump\t// in\n    tag_56:\n      tag_57\n      jump\t// in\n        /* \"Contracts/WBTC.sol\":4562:4735  function allowance(... */\n    tag_13:\n      tag_25\n      tag_60\n      calldatasize\n      0x04\n      tag_45\n      jump\t// in\n    tag_60:\n      sub(shl(0xa0, 0x01), 0x01)\n        /* \"Contracts/WBTC.sol\":4703:4718  allowed[_owner] */\n      swap2\n      dup3\n      and\n        /* \"Contracts/WBTC.sol\":4667:4684  uint256 remaining */\n      0x00\n        /* \"Contracts/WBTC.sol\":4703:4718  allowed[_owner] */\n      swap1\n      dup2\n      mstore\n        /* \"Contracts/WBTC.sol\":4703:4710  allowed */\n      0x01\n        /* \"Contracts/WBTC.sol\":4703:4718  allowed[_owner] */\n      0x20\n      swap1\n      dup2\n      mstore\n      0x40\n      dup1\n      dup4\n      keccak256\n        /* \"Contracts/WBTC.sol\":4703:4728  allowed[_owner][_spender] */\n      swap4\n      swap1\n      swap5\n      and\n      dup3\n      mstore\n      swap2\n      swap1\n      swap2\n      mstore\n      keccak256\n      sload\n      swap1\n        /* \"Contracts/WBTC.sol\":4562:4735  function allowance(... */\n      jump\n        /* \"Contracts/WBTC.sol\":2528:2546  string public name */\n    tag_16:\n      0x03\n      dup1\n      sload\n      tag_63\n      swap1\n      tag_64\n      jump\t// in\n    tag_63:\n      dup1\n      0x1f\n      add\n      0x20\n      dup1\n      swap2\n      div\n      mul\n      0x20\n      add\n      mload(0x40)\n      swap1\n      dup2\n      add\n      0x40\n      mstore\n      dup1\n      swap3\n      swap2\n      swap1\n      dup2\n      dup2\n      mstore\n      0x20\n      add\n      dup3\n      dup1\n      sload\n      tag_65\n      swap1\n      tag_64\n      jump\t// in\n    tag_65:\n      dup1\n      iszero\n      tag_66\n      jumpi\n      dup1\n      0x1f\n      lt\n      tag_67\n      jumpi\n      0x0100\n      dup1\n      dup4\n      sload\n      div\n      mul\n      dup4\n      mstore\n      swap2\n      0x20\n      add\n      swap2\n      jump(tag_66)\n    tag_67:\n      dup3\n      add\n      swap2\n      swap1\n      0x00\n      mstore\n      keccak256(0x00, 0x20)\n      swap1\n    tag_68:\n      dup2\n      sload\n      dup2\n      mstore\n      swap1\n      0x01\n      add\n      swap1\n      0x20\n      add\n      dup1\n      dup4\n      gt\n      tag_68\n      jumpi\n      dup3\n      swap1\n      sub\n      0x1f\n      and\n      dup3\n      add\n      swap2\n    tag_66:\n      pop\n      pop\n      pop\n      pop\n      pop\n      dup2\n      jump\t// out\n        /* \"Contracts/WBTC.sol\":4269:4556  function approve(... */\n    tag_22:\n        /* \"Contracts/WBTC.sol\":4399:4409  msg.sender */\n      caller\n        /* \"Contracts/WBTC.sol\":4367:4379  bool success */\n      0x00\n        /* \"Contracts/WBTC.sol\":4391:4410  allowed[msg.sender] */\n      dup2\n      dup2\n      mstore\n        /* \"Contracts/WBTC.sol\":4391:4398  allowed */\n      0x01\n        /* \"Contracts/WBTC.sol\":4391:4410  allowed[msg.sender] */\n      0x20\n      swap1\n      dup2\n      mstore\n      0x40\n      dup1\n      dup4\n      keccak256\n      sub(shl(0xa0, 0x01), 0x01)\n        /* \"Contracts/WBTC.sol\":4391:4420  allowed[msg.sender][_spender] */\n      dup8\n      and\n      dup1\n      dup6\n      mstore\n      swap3\n      mstore\n      dup1\n      dup4\n      keccak256\n        /* \"Contracts/WBTC.sol\":4391:4429  allowed[msg.sender][_spender] = _value */\n      dup6\n      swap1\n      sstore\n        /* \"Contracts/WBTC.sol\":4444:4482  Approval(msg.sender, _spender, _value) */\n      mload\n        /* \"Contracts/WBTC.sol\":4367:4379  bool success */\n      swap2\n      swap3\n        /* \"Contracts/WBTC.sol\":4391:4420  allowed[msg.sender][_spender] */\n      swap1\n      swap2\n        /* \"Contracts/WBTC.sol\":4444:4482  Approval(msg.sender, _spender, _value) */\n      0x8c5be1e5ebec7d5bd14f71427d1e84f3dd0314c0f7b2291e5b200ac8c7c3b925\n      swap1\n      tag_70\n      swap1\n        /* \"Contracts/WBTC.sol\":4423:4429  _value */\n      dup7\n        /* \"#utility.yul\":1342:1367   */\n      dup2\n      mstore\n        /* \"#utility.yul\":1330:1332   */\n      0x20\n        /* \"#utility.yul\":1315:1333   */\n      add\n      swap1\n        /* \"#utility.yul\":1196:1373   */\n      jump\n        /* \"Contracts/WBTC.sol\":4444:4482  Approval(msg.sender, _spender, _value) */\n    tag_70:\n      mload(0x40)\n      dup1\n      swap2\n      sub\n      swap1\n      log3\n      pop\n        /* \"Contracts/WBTC.sol\":4545:4549  true */\n      0x01\n        /* \"Contracts/WBTC.sol\":4269:4556  function approve(... */\n    tag_69:\n      swap3\n      swap2\n      pop\n      pop\n      jump\t// out\n        /* \"Contracts/WBTC.sol\":3481:4121  function transferFrom(... */\n    tag_32:\n      sub(shl(0xa0, 0x01), 0x01)\n        /* \"Contracts/WBTC.sol\":3647:3661  allowed[_from] */\n      dup4\n      and\n        /* \"Contracts/WBTC.sol\":3602:3614  bool success */\n      0x00\n        /* \"Contracts/WBTC.sol\":3647:3661  allowed[_from] */\n      dup2\n      dup2\n      mstore\n        /* \"Contracts/WBTC.sol\":3647:3654  allowed */\n      0x01\n        /* \"Contracts/WBTC.sol\":3647:3661  allowed[_from] */\n      0x20\n      swap1\n      dup2\n      mstore\n      0x40\n      dup1\n      dup4\n      keccak256\n        /* \"Contracts/WBTC.sol\":3662:3672  msg.sender */\n      caller\n        /* \"Contracts/WBTC.sol\":3647:3673  allowed[_from][msg.sender] */\n      dup5\n      mstore\n      dup3\n      mstore\n      dup1\n      dup4\n      keccak256\n      sload\n        /* \"Contracts/WBTC.sol\":3704:3719  balances[_from] */\n      swap4\n      dup4\n      mstore\n      swap1\n      dup3\n      swap1\n      mstore\n      dup2\n      keccak256\n      sload\n        /* \"Contracts/WBTC.sol\":3602:3614  bool success */\n      swap1\n      swap2\n        /* \"Contracts/WBTC.sol\":3647:3673  allowed[_from][msg.sender] */\n      swap1\n        /* \"Contracts/WBTC.sol\":3704:3729  balances[_from] >= _value */\n      dup4\n      gt\n      dup1\n      iszero\n      swap1\n        /* \"Contracts/WBTC.sol\":3704:3753  balances[_from] >= _value && allowance1 >= _value */\n      tag_72\n      jumpi\n      pop\n        /* \"Contracts/WBTC.sol\":3747:3753  _value */\n      dup3\n        /* \"Contracts/WBTC.sol\":3733:3743  allowance1 */\n      dup2\n        /* \"Contracts/WBTC.sol\":3733:3753  allowance1 >= _value */\n      lt\n      iszero\n        /* \"Contracts/WBTC.sol\":3704:3753  balances[_from] >= _value && allowance1 >= _value */\n    tag_72:\n        /* \"Contracts/WBTC.sol\":3683:3836  require(... */\n      tag_73\n      jumpi\n      mload(0x40)\n      shl(0xe5, 0x461bcd)\n      dup2\n      mstore\n        /* \"#utility.yul\":2943:2945   */\n      0x20\n        /* \"Contracts/WBTC.sol\":3683:3836  require(... */\n      0x04\n      dup3\n      add\n        /* \"#utility.yul\":2925:2946   */\n      mstore\n        /* \"#utility.yul\":2982:2984   */\n      0x39\n        /* \"#utility.yul\":2962:2980   */\n      0x24\n      dup3\n      add\n        /* \"#utility.yul\":2955:2985   */\n      mstore\n        /* \"#utility.yul\":3021:3055   */\n      0x746f6b656e2062616c616e6365206f7220616c6c6f77616e6365206973206c6f\n        /* \"#utility.yul\":3001:3019   */\n      0x44\n      dup3\n      add\n        /* \"#utility.yul\":2994:3056   */\n      mstore\n        /* \"#utility.yul\":3092:3119   */\n      0x776572207468616e20616d6f756e742072657175657374656400000000000000\n        /* \"#utility.yul\":3072:3090   */\n      0x64\n      dup3\n      add\n        /* \"#utility.yul\":3065:3120   */\n      mstore\n        /* \"#utility.yul\":3137:3156   */\n      0x84\n      add\n        /* \"Contracts/WBTC.sol\":3683:3836  require(... */\n    tag_74:\n      mload(0x40)\n      dup1\n      swap2\n      sub\n      swap1\n      revert\n    tag_73:\n      sub(shl(0xa0, 0x01), 0x01)\n        /* \"Contracts/WBTC.sol\":3846:3859  balances[_to] */\n      dup5\n      and\n        /* \"Contracts/WBTC.sol\":3846:3854  balances */\n      0x00\n        /* \"Contracts/WBTC.sol\":3846:3859  balances[_to] */\n      swap1\n      dup2\n      mstore\n      0x20\n      dup2\n      swap1\n      mstore\n      0x40\n      dup2\n      keccak256\n        /* \"Contracts/WBTC.sol\":3846:3869  balances[_to] += _value */\n      dup1\n      sload\n        /* \"Contracts/WBTC.sol\":3863:3869  _value */\n      dup6\n      swap3\n        /* \"Contracts/WBTC.sol\":3846:3854  balances */\n      swap1\n        /* \"Contracts/WBTC.sol\":3846:3869  balances[_to] += _value */\n      tag_76\n      swap1\n        /* \"Contracts/WBTC.sol\":3863:3869  _value */\n      dup5\n      swap1\n        /* \"Contracts/WBTC.sol\":3846:3869  balances[_to] += _value */\n      tag_77\n      jump\t// in\n    tag_76:\n      swap1\n      swap2\n      sstore\n      pop\n      pop\n      sub(shl(0xa0, 0x01), 0x01)\n        /* \"Contracts/WBTC.sol\":3879:3894  balances[_from] */\n      dup6\n      and\n        /* \"Contracts/WBTC.sol\":3879:3887  balances */\n      0x00\n        /* \"Contracts/WBTC.sol\":3879:3894  balances[_from] */\n      swap1\n      dup2\n      mstore\n      0x20\n      dup2\n      swap1\n      mstore\n      0x40\n      dup2\n      keccak256\n        /* \"Contracts/WBTC.sol\":3879:3904  balances[_from] -= _value */\n      dup1\n      sload\n        /* \"Contracts/WBTC.sol\":3898:3904  _value */\n      dup6\n      swap3\n        /* \"Contracts/WBTC.sol\":3879:3887  balances */\n      swap1\n        /* \"Contracts/WBTC.sol\":3879:3904  balances[_from] -= _value */\n      tag_78\n      swap1\n        /* \"Contracts/WBTC.sol\":3898:3904  _value */\n      dup5\n      swap1\n        /* \"Contracts/WBTC.sol\":3879:3904  balances[_from] -= _value */\n      tag_79\n      jump\t// in\n    tag_78:\n      swap1\n      swap2\n      sstore\n      pop\n      pop\n      not(0x00)\n        /* \"Contracts/WBTC.sol\":3918:3942  allowance1 < MAX_UINT256 */\n      dup2\n      lt\n        /* \"Contracts/WBTC.sol\":3914:4005  if (allowance1 < MAX_UINT256) {... */\n      iszero\n      tag_80\n      jumpi\n      sub(shl(0xa0, 0x01), 0x01)\n        /* \"Contracts/WBTC.sol\":3958:3972  allowed[_from] */\n      dup6\n      and\n      0x00\n      swap1\n      dup2\n      mstore\n        /* \"Contracts/WBTC.sol\":3958:3965  allowed */\n      0x01\n        /* \"Contracts/WBTC.sol\":3958:3972  allowed[_from] */\n      0x20\n      swap1\n      dup2\n      mstore\n      0x40\n      dup1\n      dup4\n      keccak256\n        /* \"Contracts/WBTC.sol\":3973:3983  msg.sender */\n      caller\n        /* \"Contracts/WBTC.sol\":3958:3984  allowed[_from][msg.sender] */\n      dup5\n      mstore\n      swap1\n      swap2\n      mstore\n      dup2\n      keccak256\n        /* \"Contracts/WBTC.sol\":3958:3994  allowed[_from][msg.sender] -= _value */\n      dup1\n      sload\n        /* \"Contracts/WBTC.sol\":3988:3994  _value */\n      dup6\n      swap3\n        /* \"Contracts/WBTC.sol\":3958:3972  allowed[_from] */\n      swap1\n        /* \"Contracts/WBTC.sol\":3958:3994  allowed[_from][msg.sender] -= _value */\n      tag_81\n      swap1\n        /* \"Contracts/WBTC.sol\":3988:3994  _value */\n      dup5\n      swap1\n        /* \"Contracts/WBTC.sol\":3958:3994  allowed[_from][msg.sender] -= _value */\n      tag_79\n      jump\t// in\n    tag_81:\n      swap1\n      swap2\n      sstore\n      pop\n      pop\n        /* \"Contracts/WBTC.sol\":3914:4005  if (allowance1 < MAX_UINT256) {... */\n    tag_80:\n        /* \"Contracts/WBTC.sol\":4035:4038  _to */\n      dup4\n      sub(shl(0xa0, 0x01), 0x01)\n        /* \"Contracts/WBTC.sol\":4019:4047  Transfer(_from, _to, _value) */\n      and\n        /* \"Contracts/WBTC.sol\":4028:4033  _from */\n      dup6\n      sub(shl(0xa0, 0x01), 0x01)\n        /* \"Contracts/WBTC.sol\":4019:4047  Transfer(_from, _to, _value) */\n      and\n      0xddf252ad1be2c89b69c2b068fc378daa952ba7f163c4a11628f55a4df523b3ef\n        /* \"Contracts/WBTC.sol\":4040:4046  _value */\n      dup6\n        /* \"Contracts/WBTC.sol\":4019:4047  Transfer(_from, _to, _value) */\n      mload(0x40)\n      tag_82\n      swap2\n        /* \"#utility.yul\":1342:1367   */\n      dup2\n      mstore\n        /* \"#utility.yul\":1330:1332   */\n      0x20\n        /* \"#utility.yul\":1315:1333   */\n      add\n      swap1\n        /* \"#utility.yul\":1196:1373   */\n      jump\n        /* \"Contracts/WBTC.sol\":4019:4047  Transfer(_from, _to, _value) */\n    tag_82:\n      mload(0x40)\n      dup1\n      swap2\n      sub\n      swap1\n      log3\n      pop\n        /* \"Contracts/WBTC.sol\":4110:4114  true */\n      0x01\n      swap5\n        /* \"Contracts/WBTC.sol\":3481:4121  function transferFrom(... */\n      swap4\n      pop\n      pop\n      pop\n      pop\n      jump\t// out\n        /* \"Contracts/WBTC.sol\":2637:2657  string public symbol */\n    tag_53:\n      0x05\n      dup1\n      sload\n      tag_63\n      swap1\n      tag_64\n      jump\t// in\n        /* \"Contracts/WBTC.sol\":3038:3475  function transfer(... */\n    tag_57:\n        /* \"Contracts/WBTC.sol\":3186:3196  msg.sender */\n      caller\n        /* \"Contracts/WBTC.sol\":3132:3144  bool success */\n      0x00\n        /* \"Contracts/WBTC.sol\":3177:3197  balances[msg.sender] */\n      swap1\n      dup2\n      mstore\n      0x20\n      dup2\n      swap1\n      mstore\n      0x40\n      dup2\n      keccak256\n      sload\n        /* \"Contracts/WBTC.sol\":3177:3207  balances[msg.sender] >= _value */\n      dup3\n      gt\n      iszero\n        /* \"Contracts/WBTC.sol\":3156:3280  require(... */\n      tag_90\n      jumpi\n      mload(0x40)\n      shl(0xe5, 0x461bcd)\n      dup2\n      mstore\n        /* \"#utility.yul\":3764:3766   */\n      0x20\n        /* \"Contracts/WBTC.sol\":3156:3280  require(... */\n      0x04\n      dup3\n      add\n        /* \"#utility.yul\":3746:3767   */\n      mstore\n        /* \"#utility.yul\":3803:3805   */\n      0x2f\n        /* \"#utility.yul\":3783:3801   */\n      0x24\n      dup3\n      add\n        /* \"#utility.yul\":3776:3806   */\n      mstore\n        /* \"#utility.yul\":3842:3876   */\n      0x746f6b656e2062616c616e6365206973206c6f776572207468616e2074686520\n        /* \"#utility.yul\":3822:3840   */\n      0x44\n      dup3\n      add\n        /* \"#utility.yul\":3815:3877   */\n      mstore\n      shl(0x8a, 0x1d985b1d59481c995c5d595cdd1959)\n        /* \"#utility.yul\":3893:3911   */\n      0x64\n      dup3\n      add\n        /* \"#utility.yul\":3886:3931   */\n      mstore\n        /* \"#utility.yul\":3948:3967   */\n      0x84\n      add\n        /* \"Contracts/WBTC.sol\":3156:3280  require(... */\n      tag_74\n        /* \"#utility.yul\":3562:3973   */\n      jump\n        /* \"Contracts/WBTC.sol\":3156:3280  require(... */\n    tag_90:\n        /* \"Contracts/WBTC.sol\":3299:3309  msg.sender */\n      caller\n        /* \"Contracts/WBTC.sol\":3290:3298  balances */\n      0x00\n        /* \"Contracts/WBTC.sol\":3290:3310  balances[msg.sender] */\n      swap1\n      dup2\n      mstore\n      0x20\n      dup2\n      swap1\n      mstore\n      0x40\n      dup2\n      keccak256\n        /* \"Contracts/WBTC.sol\":3290:3320  balances[msg.sender] -= _value */\n      dup1\n      sload\n        /* \"Contracts/WBTC.sol\":3314:3320  _value */\n      dup5\n      swap3\n        /* \"Contracts/WBTC.sol\":3290:3298  balances */\n      swap1\n        /* \"Contracts/WBTC.sol\":3290:3320  balances[msg.sender] -= _value */\n      tag_93\n      swap1\n        /* \"Contracts/WBTC.sol\":3314:3320  _value */\n      dup5\n      swap1\n        /* \"Contracts/WBTC.sol\":3290:3320  balances[msg.sender] -= _value */\n      tag_79\n      jump\t// in\n    tag_93:\n      swap1\n      swap2\n      sstore\n      pop\n      pop\n      sub(shl(0xa0, 0x01), 0x01)\n        /* \"Contracts/WBTC.sol\":3330:3343  balances[_to] */\n      dup4\n      and\n        /* \"Contracts/WBTC.sol\":3330:3338  balances */\n      0x00\n        /* \"Contracts/WBTC.sol\":3330:3343  balances[_to] */\n      swap1\n      dup2\n      mstore\n      0x20\n      dup2\n      swap1\n      mstore\n      0x40\n      dup2\n      keccak256\n        /* \"Contracts/WBTC.sol\":3330:3353  balances[_to] += _value */\n      dup1\n      sload\n        /* \"Contracts/WBTC.sol\":3347:3353  _value */\n      dup5\n      swap3\n        /* \"Contracts/WBTC.sol\":3330:3338  balances */\n      swap1\n        /* \"Contracts/WBTC.sol\":3330:3353  balances[_to] += _value */\n      tag_94\n      swap1\n        /* \"Contracts/WBTC.sol\":3347:3353  _value */\n      dup5\n      swap1\n        /* \"Contracts/WBTC.sol\":3330:3353  balances[_to] += _value */\n      tag_77\n      jump\t// in\n    tag_94:\n      swap1\n      swap2\n      sstore\n      pop\n      pop\n        /* \"Contracts/WBTC.sol\":3368:3401  Transfer(msg.sender, _to, _value) */\n      mload(0x40)\n        /* \"#utility.yul\":1342:1367   */\n      dup3\n      dup2\n      mstore\n      sub(shl(0xa0, 0x01), 0x01)\n        /* \"Contracts/WBTC.sol\":3368:3401  Transfer(msg.sender, _to, _value) */\n      dup5\n      and\n      swap1\n        /* \"Contracts/WBTC.sol\":3377:3387  msg.sender */\n      caller\n      swap1\n        /* \"Contracts/WBTC.sol\":3368:3401  Transfer(msg.sender, _to, _value) */\n      0xddf252ad1be2c89b69c2b068fc378daa952ba7f163c4a11628f55a4df523b3ef\n      swap1\n        /* \"#utility.yul\":1330:1332   */\n      0x20\n        /* \"#utility.yul\":1315:1333   */\n      add\n        /* \"Contracts/WBTC.sol\":3368:3401  Transfer(msg.sender, _to, _value) */\n      tag_70\n        /* \"#utility.yul\":1196:1373   */\n      jump\n        /* \"#utility.yul\":14:562   */\n    tag_18:\n        /* \"#utility.yul\":126:130   */\n      0x00\n        /* \"#utility.yul\":155:157   */\n      0x20\n        /* \"#utility.yul\":184:186   */\n      dup1\n        /* \"#utility.yul\":173:182   */\n      dup4\n        /* \"#utility.yul\":166:187   */\n      mstore\n        /* \"#utility.yul\":216:222   */\n      dup4\n        /* \"#utility.yul\":210:223   */\n      mload\n        /* \"#utility.yul\":259:265   */\n      dup1\n        /* \"#utility.yul\":254:256   */\n      dup3\n        /* \"#utility.yul\":243:252   */\n      dup6\n        /* \"#utility.yul\":239:257   */\n      add\n        /* \"#utility.yul\":232:266   */\n      mstore\n        /* \"#utility.yul\":284:285   */\n      0x00\n        /* \"#utility.yul\":294:434   */\n    tag_101:\n        /* \"#utility.yul\":308:314   */\n      dup2\n        /* \"#utility.yul\":305:306   */\n      dup2\n        /* \"#utility.yul\":302:315   */\n      lt\n        /* \"#utility.yul\":294:434   */\n      iszero\n      tag_103\n      jumpi\n        /* \"#utility.yul\":403:417   */\n      dup6\n      dup2\n      add\n        /* \"#utility.yul\":399:422   */\n      dup4\n      add\n        /* \"#utility.yul\":393:423   */\n      mload\n        /* \"#utility.yul\":369:386   */\n      dup6\n      dup3\n      add\n        /* \"#utility.yul\":388:390   */\n      0x40\n        /* \"#utility.yul\":365:391   */\n      add\n        /* \"#utility.yul\":358:424   */\n      mstore\n        /* \"#utility.yul\":323:333   */\n      dup3\n      add\n        /* \"#utility.yul\":294:434   */\n      jump(tag_101)\n    tag_103:\n        /* \"#utility.yul\":298:301   */\n      pop\n        /* \"#utility.yul\":483:484   */\n      0x00\n        /* \"#utility.yul\":478:480   */\n      0x40\n        /* \"#utility.yul\":469:475   */\n      dup3\n        /* \"#utility.yul\":458:467   */\n      dup7\n        /* \"#utility.yul\":454:476   */\n      add\n        /* \"#utility.yul\":450:481   */\n      add\n        /* \"#utility.yul\":443:485   */\n      mstore\n        /* \"#utility.yul\":553:555   */\n      0x40\n        /* \"#utility.yul\":546:548   */\n      0x1f\n        /* \"#utility.yul\":542:549   */\n      not\n        /* \"#utility.yul\":537:539   */\n      0x1f\n        /* \"#utility.yul\":529:535   */\n      dup4\n        /* \"#utility.yul\":525:540   */\n      add\n        /* \"#utility.yul\":521:550   */\n      and\n        /* \"#utility.yul\":510:519   */\n      dup6\n        /* \"#utility.yul\":506:551   */\n      add\n        /* \"#utility.yul\":502:556   */\n      add\n        /* \"#utility.yul\":494:556   */\n      swap3\n      pop\n      pop\n      pop\n        /* \"#utility.yul\":14:562   */\n      swap3\n      swap2\n      pop\n      pop\n      jump\t// out\n        /* \"#utility.yul\":567:740   */\n    tag_97:\n        /* \"#utility.yul\":635:655   */\n      dup1\n      calldataload\n      sub(shl(0xa0, 0x01), 0x01)\n        /* \"#utility.yul\":684:715   */\n      dup2\n      and\n        /* \"#utility.yul\":674:716   */\n      dup2\n      eq\n        /* \"#utility.yul\":664:734   */\n      tag_105\n      jumpi\n        /* \"#utility.yul\":730:731   */\n      0x00\n        /* \"#utility.yul\":727:728   */\n      dup1\n        /* \"#utility.yul\":720:732   */\n      revert\n        /* \"#utility.yul\":664:734   */\n    tag_105:\n        /* \"#utility.yul\":567:740   */\n      swap2\n      swap1\n      pop\n      jump\t// out\n        /* \"#utility.yul\":745:999   */\n    tag_21:\n        /* \"#utility.yul\":813:819   */\n      0x00\n        /* \"#utility.yul\":821:827   */\n      dup1\n        /* \"#utility.yul\":874:876   */\n      0x40\n        /* \"#utility.yul\":862:871   */\n      dup4\n        /* \"#utility.yul\":853:860   */\n      dup6\n        /* \"#utility.yul\":849:872   */\n      sub\n        /* \"#utility.yul\":845:877   */\n      slt\n        /* \"#utility.yul\":842:894   */\n      iszero\n      tag_107\n      jumpi\n        /* \"#utility.yul\":890:891   */\n      0x00\n        /* \"#utility.yul\":887:888   */\n      dup1\n        /* \"#utility.yul\":880:892   */\n      revert\n        /* \"#utility.yul\":842:894   */\n    tag_107:\n        /* \"#utility.yul\":913:942   */\n      tag_108\n        /* \"#utility.yul\":932:941   */\n      dup4\n        /* \"#utility.yul\":913:942   */\n      tag_97\n      jump\t// in\n    tag_108:\n        /* \"#utility.yul\":903:942   */\n      swap5\n        /* \"#utility.yul\":989:991   */\n      0x20\n        /* \"#utility.yul\":974:992   */\n      swap4\n      swap1\n      swap4\n      add\n        /* \"#utility.yul\":961:993   */\n      calldataload\n      swap4\n      pop\n      pop\n      pop\n        /* \"#utility.yul\":745:999   */\n      jump\t// out\n        /* \"#utility.yul\":1378:1706   */\n    tag_31:\n        /* \"#utility.yul\":1455:1461   */\n      0x00\n        /* \"#utility.yul\":1463:1469   */\n      dup1\n        /* \"#utility.yul\":1471:1477   */\n      0x00\n        /* \"#utility.yul\":1524:1526   */\n      0x60\n        /* \"#utility.yul\":1512:1521   */\n      dup5\n        /* \"#utility.yul\":1503:1510   */\n      dup7\n        /* \"#utility.yul\":1499:1522   */\n      sub\n        /* \"#utility.yul\":1495:1527   */\n      slt\n        /* \"#utility.yul\":1492:1544   */\n      iszero\n      tag_112\n      jumpi\n        /* \"#utility.yul\":1540:1541   */\n      0x00\n        /* \"#utility.yul\":1537:1538   */\n      dup1\n        /* \"#utility.yul\":1530:1542   */\n      revert\n        /* \"#utility.yul\":1492:1544   */\n    tag_112:\n        /* \"#utility.yul\":1563:1592   */\n      tag_113\n        /* \"#utility.yul\":1582:1591   */\n      dup5\n        /* \"#utility.yul\":1563:1592   */\n      tag_97\n      jump\t// in\n    tag_113:\n        /* \"#utility.yul\":1553:1592   */\n      swap3\n      pop\n        /* \"#utility.yul\":1611:1649   */\n      tag_114\n        /* \"#utility.yul\":1645:1647   */\n      0x20\n        /* \"#utility.yul\":1634:1643   */\n      dup6\n        /* \"#utility.yul\":1630:1648   */\n      add\n        /* \"#utility.yul\":1611:1649   */\n      tag_97\n      jump\t// in\n    tag_114:\n        /* \"#utility.yul\":1601:1649   */\n      swap2\n      pop\n        /* \"#utility.yul\":1696:1698   */\n      0x40\n        /* \"#utility.yul\":1685:1694   */\n      dup5\n        /* \"#utility.yul\":1681:1699   */\n      add\n        /* \"#utility.yul\":1668:1700   */\n      calldataload\n        /* \"#utility.yul\":1658:1700   */\n      swap1\n      pop\n        /* \"#utility.yul\":1378:1706   */\n      swap3\n      pop\n      swap3\n      pop\n      swap3\n      jump\t// out\n        /* \"#utility.yul\":1711:1897   */\n    tag_36:\n        /* \"#utility.yul\":1770:1776   */\n      0x00\n        /* \"#utility.yul\":1823:1825   */\n      0x20\n        /* \"#utility.yul\":1811:1820   */\n      dup3\n        /* \"#utility.yul\":1802:1809   */\n      dup5\n        /* \"#utility.yul\":1798:1821   */\n      sub\n        /* \"#utility.yul\":1794:1826   */\n      slt\n        /* \"#utility.yul\":1791:1843   */\n      iszero\n      tag_116\n      jumpi\n        /* \"#utility.yul\":1839:1840   */\n      0x00\n        /* \"#utility.yul\":1836:1837   */\n      dup1\n        /* \"#utility.yul\":1829:1841   */\n      revert\n        /* \"#utility.yul\":1791:1843   */\n    tag_116:\n        /* \"#utility.yul\":1862:1891   */\n      tag_117\n        /* \"#utility.yul\":1881:1890   */\n      dup3\n        /* \"#utility.yul\":1862:1891   */\n      tag_97\n      jump\t// in\n    tag_117:\n        /* \"#utility.yul\":1852:1891   */\n      swap4\n        /* \"#utility.yul\":1711:1897   */\n      swap3\n      pop\n      pop\n      pop\n      jump\t// out\n        /* \"#utility.yul\":2091:2351   */\n    tag_45:\n        /* \"#utility.yul\":2159:2165   */\n      0x00\n        /* \"#utility.yul\":2167:2173   */\n      dup1\n        /* \"#utility.yul\":2220:2222   */\n      0x40\n        /* \"#utility.yul\":2208:2217   */\n      dup4\n        /* \"#utility.yul\":2199:2206   */\n      dup6\n        /* \"#utility.yul\":2195:2218   */\n      sub\n        /* \"#utility.yul\":2191:2223   */\n      slt\n        /* \"#utility.yul\":2188:2240   */\n      iszero\n      tag_120\n      jumpi\n        /* \"#utility.yul\":2236:2237   */\n      0x00\n        /* \"#utility.yul\":2233:2234   */\n      dup1\n        /* \"#utility.yul\":2226:2238   */\n      revert\n        /* \"#utility.yul\":2188:2240   */\n    tag_120:\n        /* \"#utility.yul\":2259:2288   */\n      tag_121\n        /* \"#utility.yul\":2278:2287   */\n      dup4\n        /* \"#utility.yul\":2259:2288   */\n      tag_97\n      jump\t// in\n    tag_121:\n        /* \"#utility.yul\":2249:2288   */\n      swap2\n      pop\n        /* \"#utility.yul\":2307:2345   */\n      tag_122\n        /* \"#utility.yul\":2341:2343   */\n      0x20\n        /* \"#utility.yul\":2330:2339   */\n      dup5\n        /* \"#utility.yul\":2326:2344   */\n      add\n        /* \"#utility.yul\":2307:2345   */\n      tag_97\n      jump\t// in\n    tag_122:\n        /* \"#utility.yul\":2297:2345   */\n      swap1\n      pop\n        /* \"#utility.yul\":2091:2351   */\n      swap3\n      pop\n      swap3\n      swap1\n      pop\n      jump\t// out\n        /* \"#utility.yul\":2356:2736   */\n    tag_64:\n        /* \"#utility.yul\":2435:2436   */\n      0x01\n        /* \"#utility.yul\":2431:2443   */\n      dup2\n      dup2\n      shr\n      swap1\n        /* \"#utility.yul\":2478:2490   */\n      dup3\n      and\n      dup1\n        /* \"#utility.yul\":2499:2560   */\n      tag_124\n      jumpi\n        /* \"#utility.yul\":2553:2557   */\n      0x7f\n        /* \"#utility.yul\":2545:2551   */\n      dup3\n        /* \"#utility.yul\":2541:2558   */\n      and\n        /* \"#utility.yul\":2531:2558   */\n      swap2\n      pop\n        /* \"#utility.yul\":2499:2560   */\n    tag_124:\n        /* \"#utility.yul\":2606:2608   */\n      0x20\n        /* \"#utility.yul\":2598:2604   */\n      dup3\n        /* \"#utility.yul\":2595:2609   */\n      lt\n        /* \"#utility.yul\":2575:2593   */\n      dup2\n        /* \"#utility.yul\":2572:2610   */\n      sub\n        /* \"#utility.yul\":2569:2730   */\n      tag_125\n      jumpi\n        /* \"#utility.yul\":2652:2662   */\n      0x4e487b71\n        /* \"#utility.yul\":2647:2650   */\n      0xe0\n        /* \"#utility.yul\":2643:2663   */\n      shl\n        /* \"#utility.yul\":2640:2641   */\n      0x00\n        /* \"#utility.yul\":2633:2664   */\n      mstore\n        /* \"#utility.yul\":2687:2691   */\n      0x22\n        /* \"#utility.yul\":2684:2685   */\n      0x04\n        /* \"#utility.yul\":2677:2692   */\n      mstore\n        /* \"#utility.yul\":2715:2719   */\n      0x24\n        /* \"#utility.yul\":2712:2713   */\n      0x00\n        /* \"#utility.yul\":2705:2720   */\n      revert\n        /* \"#utility.yul\":2569:2730   */\n    tag_125:\n      pop\n        /* \"#utility.yul\":2356:2736   */\n      swap2\n      swap1\n      pop\n      jump\t// out\n        /* \"#utility.yul\":3167:3294   */\n    tag_98:\n        /* \"#utility.yul\":3228:3238   */\n      0x4e487b71\n        /* \"#utility.yul\":3223:3226   */\n      0xe0\n        /* \"#utility.yul\":3219:3239   */\n      shl\n        /* \"#utility.yul\":3216:3217   */\n      0x00\n        /* \"#utility.yul\":3209:3240   */\n      mstore\n        /* \"#utility.yul\":3259:3263   */\n      0x11\n        /* \"#utility.yul\":3256:3257   */\n      0x04\n        /* \"#utility.yul\":3249:3264   */\n      mstore\n        /* \"#utility.yul\":3283:3287   */\n      0x24\n        /* \"#utility.yul\":3280:3281   */\n      0x00\n        /* \"#utility.yul\":3273:3288   */\n      revert\n        /* \"#utility.yul\":3299:3424   */\n    tag_77:\n        /* \"#utility.yul\":3364:3373   */\n      dup1\n      dup3\n      add\n        /* \"#utility.yul\":3385:3395   */\n      dup1\n      dup3\n      gt\n        /* \"#utility.yul\":3382:3418   */\n      iszero\n      tag_69\n      jumpi\n        /* \"#utility.yul\":3398:3416   */\n      tag_69\n      tag_98\n      jump\t// in\n        /* \"#utility.yul\":3429:3557   */\n    tag_79:\n        /* \"#utility.yul\":3496:3505   */\n      dup2\n      dup2\n      sub\n        /* \"#utility.yul\":3517:3528   */\n      dup2\n      dup2\n      gt\n        /* \"#utility.yul\":3514:3551   */\n      iszero\n      tag_69\n      jumpi\n        /* \"#utility.yul\":3531:3549   */\n      tag_69\n      tag_98\n      jump\t// in\n\n    auxdata: 0xa26469706673582212205cd55ae21ec5ce52c256f6c84b05a2e91cf9c38e880ac9ceec3bf2fc0ce2973d64736f6c63430008140033\n}\n",
				"bytecode": {
					"linkReferences": {},
					"object": "608060405234801561000f575f80fd5b50335f9081526020818152604091829020620400009055641000000000600255815180830190925260048252635742544360e01b908201526003906100549082610129565b506004805460ff1916601217815560408051808201909152908152635742544360e01b60208201526005906100899082610129565b506101e4565b634e487b7160e01b5f52604160045260245ffd5b600181811c908216806100b757607f821691505b6020821081036100d557634e487b7160e01b5f52602260045260245ffd5b50919050565b601f821115610124575f81815260208120601f850160051c810160208610156101015750805b601f850160051c820191505b818110156101205782815560010161010d565b5050505b505050565b81516001600160401b038111156101425761014261008f565b6101568161015084546100a3565b846100db565b602080601f831160018114610189575f84156101725750858301515b5f19600386901b1c1916600185901b178555610120565b5f85815260208120601f198616915b828110156101b757888601518255948401946001909101908401610198565b50858210156101d457878501515f19600388901b60f8161c191681555b5050505050600190811b01905550565b610766806101f15f395ff3fe608060405234801561000f575f80fd5b50600436106100a6575f3560e01c8063313ce5671161006e578063313ce567146101345780635c6581651461015357806370a082311461017d57806395d89b41146101a5578063a9059cbb146101ad578063dd62ed3e146101c0575f80fd5b806306fdde03146100aa578063095ea7b3146100c857806318160ddd146100eb57806323b872dd1461010257806327e235e314610115575b5f80fd5b6100b26101f8565b6040516100bf91906105a6565b60405180910390f35b6100db6100d636600461060c565b610284565b60405190151581526020016100bf565b6100f460025481565b6040519081526020016100bf565b6100db610110366004610634565b6102f0565b6100f461012336600461066d565b5f6020819052908152604090205481565b6004546101419060ff1681565b60405160ff90911681526020016100bf565b6100f461016136600461068d565b600160209081525f928352604080842090915290825290205481565b6100f461018b36600461066d565b6001600160a01b03165f9081526020819052604090205490565b6100b2610497565b6100db6101bb36600461060c565b6104a4565b6100f46101ce36600461068d565b6001600160a01b039182165f90815260016020908152604080832093909416825291909152205490565b60038054610205906106be565b80601f0160208091040260200160405190810160405280929190818152602001828054610231906106be565b801561027c5780601f106102535761010080835404028352916020019161027c565b820191905f5260205f20905b81548152906001019060200180831161025f57829003601f168201915b505050505081565b335f8181526001602090815260408083206001600160a01b038716808552925280832085905551919290917f8c5be1e5ebec7d5bd14f71427d1e84f3dd0314c0f7b2291e5b200ac8c7c3b925906102de9086815260200190565b60405180910390a35060015b92915050565b6001600160a01b0383165f81815260016020908152604080832033845282528083205493835290829052812054909190831180159061032f5750828110155b6103a65760405162461bcd60e51b815260206004820152603960248201527f746f6b656e2062616c616e6365206f7220616c6c6f77616e6365206973206c6f60448201527f776572207468616e20616d6f756e74207265717565737465640000000000000060648201526084015b60405180910390fd5b6001600160a01b0384165f90815260208190526040812080548592906103cd90849061070a565b90915550506001600160a01b0385165f90815260208190526040812080548592906103f990849061071d565b90915550505f1981101561043f576001600160a01b0385165f9081526001602090815260408083203384529091528120805485929061043990849061071d565b90915550505b836001600160a01b0316856001600160a01b03167fddf252ad1be2c89b69c2b068fc378daa952ba7f163c4a11628f55a4df523b3ef8560405161048491815260200190565b60405180910390a3506001949350505050565b60058054610205906106be565b335f9081526020819052604081205482111561051a5760405162461bcd60e51b815260206004820152602f60248201527f746f6b656e2062616c616e6365206973206c6f776572207468616e207468652060448201526e1d985b1d59481c995c5d595cdd1959608a1b606482015260840161039d565b335f908152602081905260408120805484929061053890849061071d565b90915550506001600160a01b0383165f908152602081905260408120805484929061056490849061070a565b90915550506040518281526001600160a01b0384169033907fddf252ad1be2c89b69c2b068fc378daa952ba7f163c4a11628f55a4df523b3ef906020016102de565b5f6020808352835180828501525f5b818110156105d1578581018301518582016040015282016105b5565b505f604082860101526040601f19601f8301168501019250505092915050565b80356001600160a01b0381168114610607575f80fd5b919050565b5f806040838503121561061d575f80fd5b610626836105f1565b946020939093013593505050565b5f805f60608486031215610646575f80fd5b61064f846105f1565b925061065d602085016105f1565b9150604084013590509250925092565b5f6020828403121561067d575f80fd5b610686826105f1565b9392505050565b5f806040838503121561069e575f80fd5b6106a7836105f1565b91506106b5602084016105f1565b90509250929050565b600181811c908216806106d257607f821691505b6020821081036106f057634e487b7160e01b5f52602260045260245ffd5b50919050565b634e487b7160e01b5f52601160045260245ffd5b808201808211156102ea576102ea6106f6565b818103818111156102ea576102ea6106f656fea26469706673582212205cd55ae21ec5ce52c256f6c84b05a2e91cf9c38e880ac9ceec3bf2fc0ce2973d64736f6c63430008140033",
					"opcodes": "PUSH1 0x80 PUSH1 0x40 MSTORE CALLVALUE DUP1 ISZERO PUSH2 0xF JUMPI PUSH0 DUP1 REVERT JUMPDEST POP CALLER PUSH0 SWAP1 DUP2 MSTORE PUSH1 0x20 DUP2 DUP2 MSTORE PUSH1 0x40 SWAP2 DUP3 SWAP1 KECCAK256 PUSH3 0x40000 SWAP1 SSTORE PUSH5 0x1000000000 PUSH1 0x2 SSTORE DUP2 MLOAD DUP1 DUP4 ADD SWAP1 SWAP3 MSTORE PUSH1 0x4 DUP3 MSTORE PUSH4 0x57425443 PUSH1 0xE0 SHL SWAP1 DUP3 ADD MSTORE PUSH1 0x3 SWAP1 PUSH2 0x54 SWAP1 DUP3 PUSH2 0x129 JUMP JUMPDEST POP PUSH1 0x4 DUP1 SLOAD PUSH1 0xFF NOT AND PUSH1 0x12 OR DUP2 SSTORE PUSH1 0x40 DUP1 MLOAD DUP1 DUP3 ADD SWAP1 SWAP2 MSTORE SWAP1 DUP2 MSTORE PUSH4 0x57425443 PUSH1 0xE0 SHL PUSH1 0x20 DUP3 ADD MSTORE PUSH1 0x5 SWAP1 PUSH2 0x89 SWAP1 DUP3 PUSH2 0x129 JUMP JUMPDEST POP PUSH2 0x1E4 JUMP JUMPDEST PUSH4 0x4E487B71 PUSH1 0xE0 SHL PUSH0 MSTORE PUSH1 0x41 PUSH1 0x4 MSTORE PUSH1 0x24 PUSH0 REVERT JUMPDEST PUSH1 0x1 DUP2 DUP2 SHR SWAP1 DUP3 AND DUP1 PUSH2 0xB7 JUMPI PUSH1 0x7F DUP3 AND SWAP2 POP JUMPDEST PUSH1 0x20 DUP3 LT DUP2 SUB PUSH2 0xD5 JUMPI PUSH4 0x4E487B71 PUSH1 0xE0 SHL PUSH0 MSTORE PUSH1 0x22 PUSH1 0x4 MSTORE PUSH1 0x24 PUSH0 REVERT JUMPDEST POP SWAP2 SWAP1 POP JUMP JUMPDEST PUSH1 0x1F DUP3 GT ISZERO PUSH2 0x124 JUMPI PUSH0 DUP2 DUP2 MSTORE PUSH1 0x20 DUP2 KECCAK256 PUSH1 0x1F DUP6 ADD PUSH1 0x5 SHR DUP2 ADD PUSH1 0x20 DUP7 LT ISZERO PUSH2 0x101 JUMPI POP DUP1 JUMPDEST PUSH1 0x1F DUP6 ADD PUSH1 0x5 SHR DUP3 ADD SWAP2 POP JUMPDEST DUP2 DUP2 LT ISZERO PUSH2 0x120 JUMPI DUP3 DUP2 SSTORE PUSH1 0x1 ADD PUSH2 0x10D JUMP JUMPDEST POP POP POP JUMPDEST POP POP POP JUMP JUMPDEST DUP2 MLOAD PUSH1 0x1 PUSH1 0x1 PUSH1 0x40 SHL SUB DUP2 GT ISZERO PUSH2 0x142 JUMPI PUSH2 0x142 PUSH2 0x8F JUMP JUMPDEST PUSH2 0x156 DUP2 PUSH2 0x150 DUP5 SLOAD PUSH2 0xA3 JUMP JUMPDEST DUP5 PUSH2 0xDB JUMP JUMPDEST PUSH1 0x20 DUP1 PUSH1 0x1F DUP4 GT PUSH1 0x1 DUP2 EQ PUSH2 0x189 JUMPI PUSH0 DUP5 ISZERO PUSH2 0x172 JUMPI POP DUP6 DUP4 ADD MLOAD JUMPDEST PUSH0 NOT PUSH1 0x3 DUP7 SWAP1 SHL SHR NOT AND PUSH1 0x1 DUP6 SWAP1 SHL OR DUP6 SSTORE PUSH2 0x120 JUMP JUMPDEST PUSH0 DUP6 DUP2 MSTORE PUSH1 0x20 DUP2 KECCAK256 PUSH1 0x1F NOT DUP7 AND SWAP2 JUMPDEST DUP3 DUP2 LT ISZERO PUSH2 0x1B7 JUMPI DUP9 DUP7 ADD MLOAD DUP3 SSTORE SWAP5 DUP5 ADD SWAP5 PUSH1 0x1 SWAP1 SWAP2 ADD SWAP1 DUP5 ADD PUSH2 0x198 JUMP JUMPDEST POP DUP6 DUP3 LT ISZERO PUSH2 0x1D4 JUMPI DUP8 DUP6 ADD MLOAD PUSH0 NOT PUSH1 0x3 DUP9 SWAP1 SHL PUSH1 0xF8 AND SHR NOT AND DUP2 SSTORE JUMPDEST POP POP POP POP POP PUSH1 0x1 SWAP1 DUP2 SHL ADD SWAP1 SSTORE POP JUMP JUMPDEST PUSH2 0x766 DUP1 PUSH2 0x1F1 PUSH0 CODECOPY PUSH0 RETURN INVALID PUSH1 0x80 PUSH1 0x40 MSTORE CALLVALUE DUP1 ISZERO PUSH2 0xF JUMPI PUSH0 DUP1 REVERT JUMPDEST POP PUSH1 0x4 CALLDATASIZE LT PUSH2 0xA6 JUMPI PUSH0 CALLDATALOAD PUSH1 0xE0 SHR DUP1 PUSH4 0x313CE567 GT PUSH2 0x6E JUMPI DUP1 PUSH4 0x313CE567 EQ PUSH2 0x134 JUMPI DUP1 PUSH4 0x5C658165 EQ PUSH2 0x153 JUMPI DUP1 PUSH4 0x70A08231 EQ PUSH2 0x17D JUMPI DUP1 PUSH4 0x95D89B41 EQ PUSH2 0x1A5 JUMPI DUP1 PUSH4 0xA9059CBB EQ PUSH2 0x1AD JUMPI DUP1 PUSH4 0xDD62ED3E EQ PUSH2 0x1C0 JUMPI PUSH0 DUP1 REVERT JUMPDEST DUP1 PUSH4 0x6FDDE03 EQ PUSH2 0xAA JUMPI DUP1 PUSH4 0x95EA7B3 EQ PUSH2 0xC8 JUMPI DUP1 PUSH4 0x18160DDD EQ PUSH2 0xEB JUMPI DUP1 PUSH4 0x23B872DD EQ PUSH2 0x102 JUMPI DUP1 PUSH4 0x27E235E3 EQ PUSH2 0x115 JUMPI JUMPDEST PUSH0 DUP1 REVERT JUMPDEST PUSH2 0xB2 PUSH2 0x1F8 JUMP JUMPDEST PUSH1 0x40 MLOAD PUSH2 0xBF SWAP2 SWAP1 PUSH2 0x5A6 JUMP JUMPDEST PUSH1 0x40 MLOAD DUP1 SWAP2 SUB SWAP1 RETURN JUMPDEST PUSH2 0xDB PUSH2 0xD6 CALLDATASIZE PUSH1 0x4 PUSH2 0x60C JUMP JUMPDEST PUSH2 0x284 JUMP JUMPDEST PUSH1 0x40 MLOAD SWAP1 ISZERO ISZERO DUP2 MSTORE PUSH1 0x20 ADD PUSH2 0xBF JUMP JUMPDEST PUSH2 0xF4 PUSH1 0x2 SLOAD DUP2 JUMP JUMPDEST PUSH1 0x40 MLOAD SWAP1 DUP2 MSTORE PUSH1 0x20 ADD PUSH2 0xBF JUMP JUMPDEST PUSH2 0xDB PUSH2 0x110 CALLDATASIZE PUSH1 0x4 PUSH2 0x634 JUMP JUMPDEST PUSH2 0x2F0 JUMP JUMPDEST PUSH2 0xF4 PUSH2 0x123 CALLDATASIZE PUSH1 0x4 PUSH2 0x66D JUMP JUMPDEST PUSH0 PUSH1 0x20 DUP2 SWAP1 MSTORE SWAP1 DUP2 MSTORE PUSH1 0x40 SWAP1 KECCAK256 SLOAD DUP2 JUMP JUMPDEST PUSH1 0x4 SLOAD PUSH2 0x141 SWAP1 PUSH1 0xFF AND DUP2 JUMP JUMPDEST PUSH1 0x40 MLOAD PUSH1 0xFF SWAP1 SWAP2 AND DUP2 MSTORE PUSH1 0x20 ADD PUSH2 0xBF JUMP JUMPDEST PUSH2 0xF4 PUSH2 0x161 CALLDATASIZE PUSH1 0x4 PUSH2 0x68D JUMP JUMPDEST PUSH1 0x1 PUSH1 0x20 SWAP1 DUP2 MSTORE PUSH0 SWAP3 DUP4 MSTORE PUSH1 0x40 DUP1 DUP5 KECCAK256 SWAP1 SWAP2 MSTORE SWAP1 DUP3 MSTORE SWAP1 KECCAK256 SLOAD DUP2 JUMP JUMPDEST PUSH2 0xF4 PUSH2 0x18B CALLDATASIZE PUSH1 0x4 PUSH2 0x66D JUMP JUMPDEST PUSH1 0x1 PUSH1 0x1 PUSH1 0xA0 SHL SUB AND PUSH0 SWAP1 DUP2 MSTORE PUSH1 0x20 DUP2 SWAP1 MSTORE PUSH1 0x40 SWAP1 KECCAK256 SLOAD SWAP1 JUMP JUMPDEST PUSH2 0xB2 PUSH2 0x497 JUMP JUMPDEST PUSH2 0xDB PUSH2 0x1BB CALLDATASIZE PUSH1 0x4 PUSH2 0x60C JUMP JUMPDEST PUSH2 0x4A4 JUMP JUMPDEST PUSH2 0xF4 PUSH2 0x1CE CALLDATASIZE PUSH1 0x4 PUSH2 0x68D JUMP JUMPDEST PUSH1 0x1 PUSH1 0x1 PUSH1 0xA0 SHL SUB SWAP2 DUP3 AND PUSH0 SWAP1 DUP2 MSTORE PUSH1 0x1 PUSH1 0x20 SWAP1 DUP2 MSTORE PUSH1 0x40 DUP1 DUP4 KECCAK256 SWAP4 SWAP1 SWAP5 AND DUP3 MSTORE SWAP2 SWAP1 SWAP2 MSTORE KECCAK256 SLOAD SWAP1 JUMP JUMPDEST PUSH1 0x3 DUP1 SLOAD PUSH2 0x205 SWAP1 PUSH2 0x6BE JUMP JUMPDEST DUP1 PUSH1 0x1F ADD PUSH1 0x20 DUP1 SWAP2 DIV MUL PUSH1 0x20 ADD PUSH1 0x40 MLOAD SWAP1 DUP2 ADD PUSH1 0x40 MSTORE DUP1 SWAP3 SWAP2 SWAP1 DUP2 DUP2 MSTORE PUSH1 0x20 ADD DUP3 DUP1 SLOAD PUSH2 0x231 SWAP1 PUSH2 0x6BE JUMP JUMPDEST DUP1 ISZERO PUSH2 0x27C JUMPI DUP1 PUSH1 0x1F LT PUSH2 0x253 JUMPI PUSH2 0x100 DUP1 DUP4 SLOAD DIV MUL DUP4 MSTORE SWAP2 PUSH1 0x20 ADD SWAP2 PUSH2 0x27C JUMP JUMPDEST DUP3 ADD SWAP2 SWAP1 PUSH0 MSTORE PUSH1 0x20 PUSH0 KECCAK256 SWAP1 JUMPDEST DUP2 SLOAD DUP2 MSTORE SWAP1 PUSH1 0x1 ADD SWAP1 PUSH1 0x20 ADD DUP1 DUP4 GT PUSH2 0x25F JUMPI DUP3 SWAP1 SUB PUSH1 0x1F AND DUP3 ADD SWAP2 JUMPDEST POP POP POP POP POP DUP2 JUMP JUMPDEST CALLER PUSH0 DUP2 DUP2 MSTORE PUSH1 0x1 PUSH1 0x20 SWAP1 DUP2 MSTORE PUSH1 0x40 DUP1 DUP4 KECCAK256 PUSH1 0x1 PUSH1 0x1 PUSH1 0xA0 SHL SUB DUP8 AND DUP1 DUP6 MSTORE SWAP3 MSTORE DUP1 DUP4 KECCAK256 DUP6 SWAP1 SSTORE MLOAD SWAP2 SWAP3 SWAP1 SWAP2 PUSH32 0x8C5BE1E5EBEC7D5BD14F71427D1E84F3DD0314C0F7B2291E5B200AC8C7C3B925 SWAP1 PUSH2 0x2DE SWAP1 DUP7 DUP2 MSTORE PUSH1 0x20 ADD SWAP1 JUMP JUMPDEST PUSH1 0x40 MLOAD DUP1 SWAP2 SUB SWAP1 LOG3 POP PUSH1 0x1 JUMPDEST SWAP3 SWAP2 POP POP JUMP JUMPDEST PUSH1 0x1 PUSH1 0x1 PUSH1 0xA0 SHL SUB DUP4 AND PUSH0 DUP2 DUP2 MSTORE PUSH1 0x1 PUSH1 0x20 SWAP1 DUP2 MSTORE PUSH1 0x40 DUP1 DUP4 KECCAK256 CALLER DUP5 MSTORE DUP3 MSTORE DUP1 DUP4 KECCAK256 SLOAD SWAP4 DUP4 MSTORE SWAP1 DUP3 SWAP1 MSTORE DUP2 KECCAK256 SLOAD SWAP1 SWAP2 SWAP1 DUP4 GT DUP1 ISZERO SWAP1 PUSH2 0x32F JUMPI POP DUP3 DUP2 LT ISZERO JUMPDEST PUSH2 0x3A6 JUMPI PUSH1 0x40 MLOAD PUSH3 0x461BCD PUSH1 0xE5 SHL DUP2 MSTORE PUSH1 0x20 PUSH1 0x4 DUP3 ADD MSTORE PUSH1 0x39 PUSH1 0x24 DUP3 ADD MSTORE PUSH32 0x746F6B656E2062616C616E6365206F7220616C6C6F77616E6365206973206C6F PUSH1 0x44 DUP3 ADD MSTORE PUSH32 0x776572207468616E20616D6F756E742072657175657374656400000000000000 PUSH1 0x64 DUP3 ADD MSTORE PUSH1 0x84 ADD JUMPDEST PUSH1 0x40 MLOAD DUP1 SWAP2 SUB SWAP1 REVERT JUMPDEST PUSH1 0x1 PUSH1 0x1 PUSH1 0xA0 SHL SUB DUP5 AND PUSH0 SWAP1 DUP2 MSTORE PUSH1 0x20 DUP2 SWAP1 MSTORE PUSH1 0x40 DUP2 KECCAK256 DUP1 SLOAD DUP6 SWAP3 SWAP1 PUSH2 0x3CD SWAP1 DUP5 SWAP1 PUSH2 0x70A JUMP JUMPDEST SWAP1 SWAP2 SSTORE POP POP PUSH1 0x1 PUSH1 0x1 PUSH1 0xA0 SHL SUB DUP6 AND PUSH0 SWAP1 DUP2 MSTORE PUSH1 0x20 DUP2 SWAP1 MSTORE PUSH1 0x40 DUP2 KECCAK256 DUP1 SLOAD DUP6 SWAP3 SWAP1 PUSH2 0x3F9 SWAP1 DUP5 SWAP1 PUSH2 0x71D JUMP JUMPDEST SWAP1 SWAP2 SSTORE POP POP PUSH0 NOT DUP2 LT ISZERO PUSH2 0x43F JUMPI PUSH1 0x1 PUSH1 0x1 PUSH1 0xA0 SHL SUB DUP6 AND PUSH0 SWAP1 DUP2 MSTORE PUSH1 0x1 PUSH1 0x20 SWAP1 DUP2 MSTORE PUSH1 0x40 DUP1 DUP4 KECCAK256 CALLER DUP5 MSTORE SWAP1 SWAP2 MSTORE DUP2 KECCAK256 DUP1 SLOAD DUP6 SWAP3 SWAP1 PUSH2 0x439 SWAP1 DUP5 SWAP1 PUSH2 0x71D JUMP JUMPDEST SWAP1 SWAP2 SSTORE POP POP JUMPDEST DUP4 PUSH1 0x1 PUSH1 0x1 PUSH1 0xA0 SHL SUB AND DUP6 PUSH1 0x1 PUSH1 0x1 PUSH1 0xA0 SHL SUB AND PUSH32 0xDDF252AD1BE2C89B69C2B068FC378DAA952BA7F163C4A11628F55A4DF523B3EF DUP6 PUSH1 0x40 MLOAD PUSH2 0x484 SWAP2 DUP2 MSTORE PUSH1 0x20 ADD SWAP1 JUMP JUMPDEST PUSH1 0x40 MLOAD DUP1 SWAP2 SUB SWAP1 LOG3 POP PUSH1 0x1 SWAP5 SWAP4 POP POP POP POP JUMP JUMPDEST PUSH1 0x5 DUP1 SLOAD PUSH2 0x205 SWAP1 PUSH2 0x6BE JUMP JUMPDEST CALLER PUSH0 SWAP1 DUP2 MSTORE PUSH1 0x20 DUP2 SWAP1 MSTORE PUSH1 0x40 DUP2 KECCAK256 SLOAD DUP3 GT ISZERO PUSH2 0x51A JUMPI PUSH1 0x40 MLOAD PUSH3 0x461BCD PUSH1 0xE5 SHL DUP2 MSTORE PUSH1 0x20 PUSH1 0x4 DUP3 ADD MSTORE PUSH1 0x2F PUSH1 0x24 DUP3 ADD MSTORE PUSH32 0x746F6B656E2062616C616E6365206973206C6F776572207468616E2074686520 PUSH1 0x44 DUP3 ADD MSTORE PUSH15 0x1D985B1D59481C995C5D595CDD1959 PUSH1 0x8A SHL PUSH1 0x64 DUP3 ADD MSTORE PUSH1 0x84 ADD PUSH2 0x39D JUMP JUMPDEST CALLER PUSH0 SWAP1 DUP2 MSTORE PUSH1 0x20 DUP2 SWAP1 MSTORE PUSH1 0x40 DUP2 KECCAK256 DUP1 SLOAD DUP5 SWAP3 SWAP1 PUSH2 0x538 SWAP1 DUP5 SWAP1 PUSH2 0x71D JUMP JUMPDEST SWAP1 SWAP2 SSTORE POP POP PUSH1 0x1 PUSH1 0x1 PUSH1 0xA0 SHL SUB DUP4 AND PUSH0 SWAP1 DUP2 MSTORE PUSH1 0x20 DUP2 SWAP1 MSTORE PUSH1 0x40 DUP2 KECCAK256 DUP1 SLOAD DUP5 SWAP3 SWAP1 PUSH2 0x564 SWAP1 DUP5 SWAP1 PUSH2 0x70A JUMP JUMPDEST SWAP1 SWAP2 SSTORE POP POP PUSH1 0x40 MLOAD DUP3 DUP2 MSTORE PUSH1 0x1 PUSH1 0x1 PUSH1 0xA0 SHL SUB DUP5 AND SWAP1 CALLER SWAP1 PUSH32 0xDDF252AD1BE2C89B69C2B068FC378DAA952BA7F163C4A11628F55A4DF523B3EF SWAP1 PUSH1 0x20 ADD PUSH2 0x2DE JUMP JUMPDEST PUSH0 PUSH1 0x20 DUP1 DUP4 MSTORE DUP4 MLOAD DUP1 DUP3 DUP6 ADD MSTORE PUSH0 JUMPDEST DUP2 DUP2 LT ISZERO PUSH2 0x5D1 JUMPI DUP6 DUP2 ADD DUP4 ADD MLOAD DUP6 DUP3 ADD PUSH1 0x40 ADD MSTORE DUP3 ADD PUSH2 0x5B5 JUMP JUMPDEST POP PUSH0 PUSH1 0x40 DUP3 DUP7 ADD ADD MSTORE PUSH1 0x40 PUSH1 0x1F NOT PUSH1 0x1F DUP4 ADD AND DUP6 ADD ADD SWAP3 POP POP POP SWAP3 SWAP2 POP POP JUMP JUMPDEST DUP1 CALLDATALOAD PUSH1 0x1 PUSH1 0x1 PUSH1 0xA0 SHL SUB DUP2 AND DUP2 EQ PUSH2 0x607 JUMPI PUSH0 DUP1 REVERT JUMPDEST SWAP2 SWAP1 POP JUMP JUMPDEST PUSH0 DUP1 PUSH1 0x40 DUP4 DUP6 SUB SLT ISZERO PUSH2 0x61D JUMPI PUSH0 DUP1 REVERT JUMPDEST PUSH2 0x626 DUP4 PUSH2 0x5F1 JUMP JUMPDEST SWAP5 PUSH1 0x20 SWAP4 SWAP1 SWAP4 ADD CALLDATALOAD SWAP4 POP POP POP JUMP JUMPDEST PUSH0 DUP1 PUSH0 PUSH1 0x60 DUP5 DUP7 SUB SLT ISZERO PUSH2 0x646 JUMPI PUSH0 DUP1 REVERT JUMPDEST PUSH2 0x64F DUP5 PUSH2 0x5F1 JUMP JUMPDEST SWAP3 POP PUSH2 0x65D PUSH1 0x20 DUP6 ADD PUSH2 0x5F1 JUMP JUMPDEST SWAP2 POP PUSH1 0x40 DUP5 ADD CALLDATALOAD SWAP1 POP SWAP3 POP SWAP3 POP SWAP3 JUMP JUMPDEST PUSH0 PUSH1 0x20 DUP3 DUP5 SUB SLT ISZERO PUSH2 0x67D JUMPI PUSH0 DUP1 REVERT JUMPDEST PUSH2 0x686 DUP3 PUSH2 0x5F1 JUMP JUMPDEST SWAP4 SWAP3 POP POP POP JUMP JUMPDEST PUSH0 DUP1 PUSH1 0x40 DUP4 DUP6 SUB SLT ISZERO PUSH2 0x69E JUMPI PUSH0 DUP1 REVERT JUMPDEST PUSH2 0x6A7 DUP4 PUSH2 0x5F1 JUMP JUMPDEST SWAP2 POP PUSH2 0x6B5 PUSH1 0x20 DUP5 ADD PUSH2 0x5F1 JUMP JUMPDEST SWAP1 POP SWAP3 POP SWAP3 SWAP1 POP JUMP JUMPDEST PUSH1 0x1 DUP2 DUP2 SHR SWAP1 DUP3 AND DUP1 PUSH2 0x6D2 JUMPI PUSH1 0x7F DUP3 AND SWAP2 POP JUMPDEST PUSH1 0x20 DUP3 LT DUP2 SUB PUSH2 0x6F0 JUMPI PUSH4 0x4E487B71 PUSH1 0xE0 SHL PUSH0 MSTORE PUSH1 0x22 PUSH1 0x4 MSTORE PUSH1 0x24 PUSH0 REVERT JUMPDEST POP SWAP2 SWAP1 POP JUMP JUMPDEST PUSH4 0x4E487B71 PUSH1 0xE0 SHL PUSH0 MSTORE PUSH1 0x11 PUSH1 0x4 MSTORE PUSH1 0x24 PUSH0 REVERT JUMPDEST DUP1 DUP3 ADD DUP1 DUP3 GT ISZERO PUSH2 0x2EA JUMPI PUSH2 0x2EA PUSH2 0x6F6 JUMP JUMPDEST DUP2 DUP2 SUB DUP2 DUP2 GT ISZERO PUSH2 0x2EA JUMPI PUSH2 0x2EA PUSH2 0x6F6 JUMP INVALID LOG2 PUSH5 0x6970667358 0x22 SLT KECCAK256 0x5C 0xD5 GAS 0xE2 0x1E 0xC5 0xCE MSTORE 0xC2 JUMP 0xF6 0xC8 0x4B SDIV LOG2 0xE9 SHR 0xF9 0xC3 DUP15 DUP9 EXP 0xC9 0xCE 0xEC EXTCODESIZE CALLCODE 0xFC 0xC 0xE2 SWAP8 RETURNDATASIZE PUSH5 0x736F6C6343 STOP ADDMOD EQ STOP CALLER "
				},
				"gasEstimates": {
					"creation": {
						"codeDepositCost": "378800",
						"executionCost": "infinite",
						"totalCost": "infinite"
					},
					"external": {
						"allowance(address,address)": "infinite",
						"allowed(address,address)": "infinite",
						"approve(address,uint256)": "24520",
						"balanceOf(address)": "2581",
						"balances(address)": "2608",
						"decimals()": "2312",
						"name()": "infinite",
						"symbol()": "infinite",
						"totalSupply()": "2339",
						"transfer(address,uint256)": "infinite",
						"transferFrom(address,address,uint256)": "infinite"
					}
				},
				"methodIdentifiers": {
					"allowance(address,address)": "dd62ed3e",
					"allowed(address,address)": "5c658165",
					"approve(address,uint256)": "095ea7b3",
					"balanceOf(address)": "70a08231",
					"balances(address)": "27e235e3",
					"decimals()": "313ce567",
					"name()": "06fdde03",
					"symbol()": "95d89b41",
					"totalSupply()": "18160ddd",
					"transfer(address,uint256)": "a9059cbb",
					"transferFrom(address,address,uint256)": "23b872dd"
				}
			},
			"storageLayout": {
				"storage": [
					{
						"astId": 81,
						"contract": "Contracts/WBTC.sol:WBTC",
						"label": "balances",
						"offset": 0,
						"slot": "0",
						"type": "t_mapping(t_address,t_uint256)"
					},
					{
						"astId": 87,
						"contract": "Contracts/WBTC.sol:WBTC",
						"label": "allowed",
						"offset": 0,
						"slot": "1",
						"type": "t_mapping(t_address,t_mapping(t_address,t_uint256))"
					},
					{
						"astId": 89,
						"contract": "Contracts/WBTC.sol:WBTC",
						"label": "totalSupply",
						"offset": 0,
						"slot": "2",
						"type": "t_uint256"
					},
					{
						"astId": 91,
						"contract": "Contracts/WBTC.sol:WBTC",
						"label": "name",
						"offset": 0,
						"slot": "3",
						"type": "t_string_storage"
					},
					{
						"astId": 93,
						"contract": "Contracts/WBTC.sol:WBTC",
						"label": "decimals",
						"offset": 0,
						"slot": "4",
						"type": "t_uint8"
					},
					{
						"astId": 95,
						"contract": "Contracts/WBTC.sol:WBTC",
						"label": "symbol",
						"offset": 0,
						"slot": "5",
						"type": "t_string_storage"
					}
				],
				"types": {
					"t_address": {
						"encoding": "inplace",
						"label": "address",
						"numberOfBytes": "20"
					},
					"t_mapping(t_address,t_mapping(t_address,t_uint256))": {
						"encoding": "mapping",
						"key": "t_address",
						"label": "mapping(address => mapping(address => uint256))",
						"numberOfBytes": "32",
						"value": "t_mapping(t_address,t_uint256)"
					},
					"t_mapping(t_address,t_uint256)": {
						"encoding": "mapping",
						"key": "t_address",
						"label": "mapping(address => uint256)",
						"numberOfBytes": "32",
						"value": "t_uint256"
					},
					"t_string_storage": {
						"encoding": "bytes",
						"label": "string",
						"numberOfBytes": "32"
					},
					"t_uint256": {
						"encoding": "inplace",
						"label": "uint256",
						"numberOfBytes": "32"
					},
					"t_uint8": {
						"encoding": "inplace",
						"label": "uint8",
						"numberOfBytes": "1"
					}
				}
			},
			"userdoc": {
				"kind": "user",
				"methods": {
					"approve(address,uint256)": {
						"notice": "`msg.sender` approves `_addr` to spend `_value` tokens"
					},
					"transfer(address,uint256)": {
						"notice": "send `_value` token to `_to` from `msg.sender`"
					},
					"transferFrom(address,address,uint256)": {
						"notice": "send `_value` token to `_to` from `_from` on the condition it is approved by `_from`"
					}
				},
				"version": 1
			}
		}
	}
}