{
	"data": {
		"bytecode": {
			"linkReferences": {},
			"object": "60806040523480156200001157600080fd5b50604051620021c4380380620021c4833981016040819052620000349162000083565b600380546001600160a01b039384166001600160a01b03199182161790915560048054929093169116179055620000bb565b80516001600160a01b03811681146200007e57600080fd5b919050565b600080604083850312156200009757600080fd5b620000a28362000066565b9150620000b26020840162000066565b90509250929050565b6120f980620000cb6000396000f3fe608060405234801561001057600080fd5b50600436106101825760003560e01c80639ed16583116100d8578063cda5469a1161008c578063dd895f4b11610066578063dd895f4b14610377578063e4cb141214610465578063ffd499b01461047857600080fd5b8063cda5469a1461031e578063d2c5549c146102d2578063db0822a11461036457600080fd5b8063b642a7c2116100bd578063b642a7c2146102e5578063b770f8d7146102f8578063cbb6ec491461030b57600080fd5b80639ed16583146102bf578063a9f48a8d146102d257600080fd5b806338c3c6a91161013a5780637ac73247116101145780637ac7324714610270578063885471d5146102835780639803ed361461029657600080fd5b806338c3c6a914610216578063492b71071461022957806369c552951461023c57600080fd5b80631536e7501161016b5780631536e750146101c55780632f17d5df146101d857806334c4b7541461020357600080fd5b806305d2acb51461018757806307eabf0e146101b0575b600080fd5b61019a610195366004611eaa565b61048b565b6040516101a79190611f90565b60405180910390f35b6101c36101be366004611ecc565b61061c565b005b6101c36101d3366004611f46565b610722565b6003546101eb906001600160a01b031681565b6040516001600160a01b0390911681526020016101a7565b6101c3610211366004611ecc565b610a16565b6101c3610224366004611ecc565b610bfe565b6004546101eb906001600160a01b031681565b6101eb61024a366004611ecc565b60016020908152600092835260408084209091529082529020546001600160a01b031681565b6101c361027e366004611eff565b610d40565b6101c3610291366004611ecc565b610e16565b6101eb6102a4366004611eaa565b6000602081905290815260409020546001600160a01b031681565b6101c36102cd366004611eaa565b610f22565b6101c36102e0366004611f63565b611044565b6101c36102f3366004611eaa565b61138a565b6101c3610306366004611f46565b611454565b6101c3610319366004611eaa565b611819565b61035461032c366004611eaa565b6001600160a01b0316600090815260026020526040902060030154600160a81b900460ff1690565b60405190151581526020016101a7565b6101c3610372366004611eaa565b6118e9565b610400610385366004611eaa565b600260208190526000918252604090912080546001820154928201546003830154600484015460059094015492946001600160a01b0390811694929360ff808416946101008504841694600160a81b8104831694600160b01b8204841694600160b81b8304851694600160c01b90930490921692811691168b565b604080519b8c526001600160a01b039a8b1660208d01528b019890985260ff90961660608a0152938716608089015291151560a0880152151560c0870152151560e08601521515610100850152821661012084015216610140820152610160016101a7565b6101c3610473366004611f46565b611a11565b6101c3610486366004611f46565b611c78565b6040805161016081018252600080825260208201819052918101829052606081018290526080810182905260a0810182905260c0810182905260e08101829052610100810182905261012081018290526101408101919091526001600160a01b038216600090815260026020526040902060030154600160c01b900460ff1615156001146105605760405162461bcd60e51b815260206004820152601a60248201527f7468652053545468696e6773206973206e6f742065786973747300000000000060448201526064015b60405180910390fd5b506001600160a01b039081166000908152600260208181526040928390208351610160810185528154815260018201548616928101929092529182015492810192909252600381015460ff808216606085015261010080830486166080860152600160a81b83048216151560a0860152600160b01b83048216151560c0860152600160b81b83048216151560e0860152600160c01b90920416151590830152600481015483166101208301526005015490911661014082015290565b6001600160a01b03828116600090815260026020526040902060050154163314801561066d57506001600160a01b038181166000908152600160209081526040808320868516845290915290205416155b6106df5760405162461bcd60e51b815260206004820152602360248201527f796f752068617665206e6f74207468652070726976696c65676573206f66207460448201527f68697300000000000000000000000000000000000000000000000000000000006064820152608401610557565b506001600160a01b0316600090815260026020526040902060030180547fffffffffffffffff00ffffffffffffffffffffffffffffffffffffffffffffff169055565b600360009054906101000a90046001600160a01b03166001600160a01b031663ab3acb5c6040518163ffffffff1660e01b815260040160206040518083038186803b15801561077057600080fd5b505afa158015610784573d6000803e3d6000fd5b505050506040513d601f19601f820116820180604052508101906107a89190611f29565b6107b157600080fd5b60808101516001600160a01b039081166000908152600260205260409020600401541633146108225760405162461bcd60e51b815260206004820152601660248201527f796f752068617665206e6f7420746865207269676874000000000000000000006044820152606401610557565b806060015160ff166004146108795760405162461bcd60e51b815260206004820181905260248201527f74686520636f696e2073636f7065206973206e6f74206a7573746966696564206044820152606401610557565b600060a0820181815260c0830182815260016101008086018281523361012088019081526080880180516001600160a01b0390811689526002602081815260409a8b90208c518155908c0151978101805498841673ffffffffffffffffffffffffffffffffffffffff19998a16179055998b0151908a015560608a015160038a01805493519951985160e08d015196511515600160c01b027fffffffffffffff00ffffffffffffffffffffffffffffffffffffffffffffffff971515600160b81b02979097167fffffffffffffff0000ffffffffffffffffffffffffffffffffffffffffffffff911515600160b01b0260ff60b01b199b1515600160a81b029b909b167fffffffffffffffffff0000ffffffffffffffffffffffffffffffffffffffffff9c86169099027fffffffffffffffffffffff00000000000000000000000000000000000000000090961660ff909416939093179490941799909916959095179690961716929092171790935591516004840180549183169184169190911790556101409093015160059092018054929093169116179055565b6004805460408051630a43f92960e11b815290516001600160a01b0390921692631487f252928282019260209290829003018186803b158015610a5857600080fd5b505afa158015610a6c573d6000803e3d6000fd5b505050506040513d601f19601f82011682018060405250810190610a909190611f29565b1515600114610a9e57600080fd5b6001600160a01b038181166000908152600160209081526040808320868516845290915290205416610b125760405162461bcd60e51b815260206004820152601a60248201527f7468652053545468696e6773206973206e6f74206578697374730000000000006044820152606401610557565b6001600160a01b038281166000908152602081905260409020541615610ba05760405162461bcd60e51b815260206004820152602160248201527f7468652053545468696e6773206973202065786973747320696e206d61726b6560448201527f74000000000000000000000000000000000000000000000000000000000000006064820152608401610557565b6001600160a01b039081166000908152600160209081526040808320948416835284825280832080548484529190932080549190941673ffffffffffffffffffffffffffffffffffffffff1991821617909355929092528154169055565b6004805460408051630a43f92960e11b815290516001600160a01b0390921692631487f252928282019260209290829003018186803b158015610c4057600080fd5b505afa158015610c54573d6000803e3d6000fd5b505050506040513d601f19601f82011682018060405250810190610c789190611f29565b1515600114610c8657600080fd5b6001600160a01b03818116600090815260016020908152604080832086851684529091529020541615610cfb5760405162461bcd60e51b815260206004820152601a60248201527f7468652053545468696e6773206973206e6f74206578697374730000000000006044820152606401610557565b6001600160a01b039081166000908152600160209081526040808320949093168252929092529020805473ffffffffffffffffffffffffffffffffffffffff19169055565b6004805460408051630a43f92960e11b815290516001600160a01b0390921692631487f252928282019260209290829003018186803b158015610d8257600080fd5b505afa158015610d96573d6000803e3d6000fd5b505050506040513d601f19601f82011682018060405250810190610dba9190611f29565b1515600114610dc857600080fd5b6001600160a01b0391909116600090815260026020526040902060030180547fffffffffffffffffffffffffffffffffffffffffffffffffffffffffffffff001660ff909216919091179055565b6001600160a01b038281166000908152600260205260409020600501541633148015610e6757506001600160a01b038181166000908152600160209081526040808320868516845290915290205416155b610ed95760405162461bcd60e51b815260206004820152602360248201527f796f752068617665206e6f74207468652070726976696c65676573206f66207460448201527f68697300000000000000000000000000000000000000000000000000000000006064820152608401610557565b506001600160a01b0316600090815260026020526040902060030180547fffffffffffffffff00ffffffffffffffffffffffffffffffffffffffffffffff16600160b81b179055565b600360009054906101000a90046001600160a01b03166001600160a01b031663ab3acb5c6040518163ffffffff1660e01b815260040160206040518083038186803b158015610f7057600080fd5b505afa158015610f84573d6000803e3d6000fd5b505050506040513d601f19601f82011682018060405250810190610fa89190611f29565b610fb157600080fd5b6001600160a01b0381811660009081526002602052604090206004015416331461101d5760405162461bcd60e51b815260206004820152601660248201527f796f752068617665206e6f7420746865207269676874000000000000000000006044820152606401610557565b6001600160a01b03166000908152600260205260409020600301805460ff60b01b19169055565b60808201516001600160a01b0316600090815260026020526040902060030154600160c01b900460ff1615156001148015906110a957506001600160a01b03818116600090815260016020908152604080832060808701518516845290915290205416155b6110f55760405162461bcd60e51b815260206004820152601660248201527f796f752068617665206e6f7420746865207269676874000000000000000000006044820152606401610557565b60008260a001901515908115158152505060018260c001901515908115158152505060008260e0019015159081151581525050600182610100019015159081151581525050808261012001906001600160a01b031690816001600160a01b031681525050338261014001906001600160a01b031690816001600160a01b031681525050816002600084608001516001600160a01b03166001600160a01b031681526020019081526020016000206000820151816000015560208201518160010160006101000a8154816001600160a01b0302191690836001600160a01b031602179055506040820151816002015560608201518160030160006101000a81548160ff021916908360ff16021790555060808201518160030160016101000a8154816001600160a01b0302191690836001600160a01b0316021790555060a08201518160030160156101000a81548160ff02191690831515021790555060c08201518160030160166101000a81548160ff02191690831515021790555060e08201518160030160176101000a81548160ff0219169083151502179055506101008201518160030160186101000a81548160ff0219169083151502179055506101208201518160040160006101000a8154816001600160a01b0302191690836001600160a01b031602179055506101408201518160050160006101000a8154816001600160a01b0302191690836001600160a01b03160217905550905050816080015160016000836001600160a01b03166001600160a01b03168152602001908152602001600020600084608001516001600160a01b03166001600160a01b0316815260200190815260200160002060006101000a8154816001600160a01b0302191690836001600160a01b031602179055505050565b6004805460408051630a43f92960e11b815290516001600160a01b0390921692631487f252928282019260209290829003018186803b1580156113cc57600080fd5b505afa1580156113e0573d6000803e3d6000fd5b505050506040513d601f19601f820116820180604052508101906114049190611f29565b151560011461141257600080fd5b6001600160a01b0316600090815260026020526040902060030180547fffffffffffffffffffff00ffffffffffffffffffffffffffffffffffffffffff169055565b6004805460408051630a43f92960e11b815290516001600160a01b0390921692631487f252928282019260209290829003018186803b15801561149657600080fd5b505afa1580156114aa573d6000803e3d6000fd5b505050506040513d601f19601f820116820180604052508101906114ce9190611f29565b15156001146114dc57600080fd5b60808101516001600160a01b0316600090815260026020526040902060030154600160c01b900460ff16151560011461176e57338161012001906001600160a01b031690816001600160a01b031681525050338161014001906001600160a01b031690816001600160a01b03168152505060008160a001901515908115158152505060008160c0019015159081151581525050600181610100019015159081151581525050806002600083608001516001600160a01b03166001600160a01b031681526020019081526020016000206000820151816000015560208201518160010160006101000a8154816001600160a01b0302191690836001600160a01b031602179055506040820151816002015560608201518160030160006101000a81548160ff021916908360ff16021790555060808201518160030160016101000a8154816001600160a01b0302191690836001600160a01b0316021790555060a08201518160030160156101000a81548160ff02191690831515021790555060c08201518160030160166101000a81548160ff02191690831515021790555060e08201518160030160176101000a81548160ff0219169083151502179055506101008201518160030160186101000a81548160ff0219169083151502179055506101208201518160040160006101000a8154816001600160a01b0302191690836001600160a01b031602179055506101408201518160050160006101000a8154816001600160a01b0302191690836001600160a01b03160217905550905050806080015160008083608001516001600160a01b03166001600160a01b0316815260200190815260200160002060006101000a8154816001600160a01b0302191690836001600160a01b0316021790555050565b60808101516001600160a01b0390811660009081526020819052604090205416156117db5760405162461bcd60e51b815260206004820181905260248201527f746865207374676f6f64732065786973747320696e20746865206d61726b65746044820152606401610557565b60808101516001600160a01b03166000818152602081905260409020805473ffffffffffffffffffffffffffffffffffffffff191690911790555b50565b6004805460408051630a43f92960e11b815290516001600160a01b0390921692631487f252928282019260209290829003018186803b15801561185b57600080fd5b505afa15801561186f573d6000803e3d6000fd5b505050506040513d601f19601f820116820180604052508101906118939190611f29565b15156001146118a157600080fd5b6001600160a01b0316600090815260026020526040902060030180547fffffffffffffffffffff00ffffffffffffffffffffffffffffffffffffffffff16600160a81b179055565b600360009054906101000a90046001600160a01b03166001600160a01b031663ab3acb5c6040518163ffffffff1660e01b815260040160206040518083038186803b15801561193757600080fd5b505afa15801561194b573d6000803e3d6000fd5b505050506040513d601f19601f8201168201806040525081019061196f9190611f29565b61197857600080fd5b6001600160a01b038181166000908152600260205260409020600401541633146119e45760405162461bcd60e51b815260206004820152601660248201527f796f752068617665206e6f7420746865207269676874000000000000000000006044820152606401610557565b6001600160a01b03166000908152600260205260409020600301805460ff60b01b1916600160b01b179055565b6004805460408051630a43f92960e11b815290516001600160a01b0390921692631487f252928282019260209290829003018186803b158015611a5357600080fd5b505afa158015611a67573d6000803e3d6000fd5b505050506040513d601f19601f82011682018060405250810190611a8b9190611f29565b1515600114611a9957600080fd5b60808101516001600160a01b0390811660009081526020819052604090205416611ac257600080fd5b600060a0820181815260c0830182815260016101008086018281526080870180516001600160a01b039081168852600260208181526040808b2060059081015485166101408e01908152865186168d528484529b8290208d518155928d0151988301805499861673ffffffffffffffffffffffffffffffffffffffff199a8b16179055908c01519282019290925560608b015160038201805495519a51995160e08e015197511515600160c01b027fffffffffffffff00ffffffffffffffffffffffffffffffffffffffffffffffff981515600160b81b02989098167fffffffffffffff0000ffffffffffffffffffffffffffffffffffffffffffffff911515600160b01b0260ff60b01b199c1515600160a81b029c909c167fffffffffffffffffff0000ffffffffffffffffffffffffffffffffffffffffff9d8816909a027fffffffffffffffffffffff00000000000000000000000000000000000000000090981660ff90941693909317969096179a909a16969096179790971792909216939093179190911790945561012090950151600483018054918716918316919091179055925191018054919093169116179055565b6004805460408051630a43f92960e11b815290516001600160a01b0390921692631487f252928282019260209290829003018186803b158015611cba57600080fd5b505afa158015611cce573d6000803e3d6000fd5b505050506040513d601f19601f82011682018060405250810190611cf29190611f29565b1515600114611d0057600080fd5b60808101516001600160a01b039081166000908152602081905260409020541615611d6d5760405162461bcd60e51b815260206004820152601a60248201527f7468652053545468696e6773206973206e6f74206578697374730000000000006044820152606401610557565b608001516001600160a01b03166000908152602081905260409020805473ffffffffffffffffffffffffffffffffffffffff19169055565b80356001600160a01b0381168114611dbc57600080fd5b919050565b8035611dbc816120b5565b60006101608284031215611ddf57600080fd5b611de7612064565b905081358152611df960208301611da5565b602082015260408201356040820152611e1460608301611e99565b6060820152611e2560808301611da5565b6080820152611e3660a08301611dc1565b60a0820152611e4760c08301611dc1565b60c0820152611e5860e08301611dc1565b60e0820152610100611e6b818401611dc1565b90820152610120611e7d838201611da5565b90820152610140611e8f838201611da5565b9082015292915050565b803560ff81168114611dbc57600080fd5b600060208284031215611ebc57600080fd5b611ec582611da5565b9392505050565b60008060408385031215611edf57600080fd5b611ee883611da5565b9150611ef660208401611da5565b90509250929050565b60008060408385031215611f1257600080fd5b611f1b83611da5565b9150611ef660208401611e99565b600060208284031215611f3b57600080fd5b8151611ec5816120b5565b60006101608284031215611f5957600080fd5b611ec58383611dcc565b6000806101808385031215611f7757600080fd5b611f818484611dcc565b9150611ef66101608401611da5565b81518152602080830151610160830191611fb4908401826001600160a01b03169052565b50604083015160408301526060830151611fd3606084018260ff169052565b506080830151611fee60808401826001600160a01b03169052565b5060a083015161200260a084018215159052565b5060c083015161201660c084018215159052565b5060e083015161202a60e084018215159052565b5061010083810151151590830152610120808401516001600160a01b03908116918401919091526101409384015116929091019190915290565b604051610160810167ffffffffffffffff811182821017156120af577f4e487b7100000000000000000000000000000000000000000000000000000000600052604160045260246000fd5b60405290565b801515811461181657600080fdfea2646970667358221220607b982eea6efedd3c0ddaa469c5c95d723f379ff7bace533e53d9b7e46aee6464736f6c63430008070033",
			"opcodes": "PUSH1 0x80 PUSH1 0x40 MSTORE CALLVALUE DUP1 ISZERO PUSH3 0x11 JUMPI PUSH1 0x0 DUP1 REVERT JUMPDEST POP PUSH1 0x40 MLOAD PUSH3 0x21C4 CODESIZE SUB DUP1 PUSH3 0x21C4 DUP4 CODECOPY DUP2 ADD PUSH1 0x40 DUP2 SWAP1 MSTORE PUSH3 0x34 SWAP2 PUSH3 0x83 JUMP JUMPDEST PUSH1 0x3 DUP1 SLOAD PUSH1 0x1 PUSH1 0x1 PUSH1 0xA0 SHL SUB SWAP4 DUP5 AND PUSH1 0x1 PUSH1 0x1 PUSH1 0xA0 SHL SUB NOT SWAP2 DUP3 AND OR SWAP1 SWAP2 SSTORE PUSH1 0x4 DUP1 SLOAD SWAP3 SWAP1 SWAP4 AND SWAP2 AND OR SWAP1 SSTORE PUSH3 0xBB JUMP JUMPDEST DUP1 MLOAD PUSH1 0x1 PUSH1 0x1 PUSH1 0xA0 SHL SUB DUP2 AND DUP2 EQ PUSH3 0x7E JUMPI PUSH1 0x0 DUP1 REVERT JUMPDEST SWAP2 SWAP1 POP JUMP JUMPDEST PUSH1 0x0 DUP1 PUSH1 0x40 DUP4 DUP6 SUB SLT ISZERO PUSH3 0x97 JUMPI PUSH1 0x0 DUP1 REVERT JUMPDEST PUSH3 0xA2 DUP4 PUSH3 0x66 JUMP JUMPDEST SWAP2 POP PUSH3 0xB2 PUSH1 0x20 DUP5 ADD PUSH3 0x66 JUMP JUMPDEST SWAP1 POP SWAP3 POP SWAP3 SWAP1 POP JUMP JUMPDEST PUSH2 0x20F9 DUP1 PUSH3 0xCB PUSH1 0x0 CODECOPY PUSH1 0x0 RETURN INVALID PUSH1 0x80 PUSH1 0x40 MSTORE CALLVALUE DUP1 ISZERO PUSH2 0x10 JUMPI PUSH1 0x0 DUP1 REVERT JUMPDEST POP PUSH1 0x4 CALLDATASIZE LT PUSH2 0x182 JUMPI PUSH1 0x0 CALLDATALOAD PUSH1 0xE0 SHR DUP1 PUSH4 0x9ED16583 GT PUSH2 0xD8 JUMPI DUP1 PUSH4 0xCDA5469A GT PUSH2 0x8C JUMPI DUP1 PUSH4 0xDD895F4B GT PUSH2 0x66 JUMPI DUP1 PUSH4 0xDD895F4B EQ PUSH2 0x377 JUMPI DUP1 PUSH4 0xE4CB1412 EQ PUSH2 0x465 JUMPI DUP1 PUSH4 0xFFD499B0 EQ PUSH2 0x478 JUMPI PUSH1 0x0 DUP1 REVERT JUMPDEST DUP1 PUSH4 0xCDA5469A EQ PUSH2 0x31E JUMPI DUP1 PUSH4 0xD2C5549C EQ PUSH2 0x2D2 JUMPI DUP1 PUSH4 0xDB0822A1 EQ PUSH2 0x364 JUMPI PUSH1 0x0 DUP1 REVERT JUMPDEST DUP1 PUSH4 0xB642A7C2 GT PUSH2 0xBD JUMPI DUP1 PUSH4 0xB642A7C2 EQ PUSH2 0x2E5 JUMPI DUP1 PUSH4 0xB770F8D7 EQ PUSH2 0x2F8 JUMPI DUP1 PUSH4 0xCBB6EC49 EQ PUSH2 0x30B JUMPI PUSH1 0x0 DUP1 REVERT JUMPDEST DUP1 PUSH4 0x9ED16583 EQ PUSH2 0x2BF JUMPI DUP1 PUSH4 0xA9F48A8D EQ PUSH2 0x2D2 JUMPI PUSH1 0x0 DUP1 REVERT JUMPDEST DUP1 PUSH4 0x38C3C6A9 GT PUSH2 0x13A JUMPI DUP1 PUSH4 0x7AC73247 GT PUSH2 0x114 JUMPI DUP1 PUSH4 0x7AC73247 EQ PUSH2 0x270 JUMPI DUP1 PUSH4 0x885471D5 EQ PUSH2 0x283 JUMPI DUP1 PUSH4 0x9803ED36 EQ PUSH2 0x296 JUMPI PUSH1 0x0 DUP1 REVERT JUMPDEST DUP1 PUSH4 0x38C3C6A9 EQ PUSH2 0x216 JUMPI DUP1 PUSH4 0x492B7107 EQ PUSH2 0x229 JUMPI DUP1 PUSH4 0x69C55295 EQ PUSH2 0x23C JUMPI PUSH1 0x0 DUP1 REVERT JUMPDEST DUP1 PUSH4 0x1536E750 GT PUSH2 0x16B JUMPI DUP1 PUSH4 0x1536E750 EQ PUSH2 0x1C5 JUMPI DUP1 PUSH4 0x2F17D5DF EQ PUSH2 0x1D8 JUMPI DUP1 PUSH4 0x34C4B754 EQ PUSH2 0x203 JUMPI PUSH1 0x0 DUP1 REVERT JUMPDEST DUP1 PUSH4 0x5D2ACB5 EQ PUSH2 0x187 JUMPI DUP1 PUSH4 0x7EABF0E EQ PUSH2 0x1B0 JUMPI JUMPDEST PUSH1 0x0 DUP1 REVERT JUMPDEST PUSH2 0x19A PUSH2 0x195 CALLDATASIZE PUSH1 0x4 PUSH2 0x1EAA JUMP JUMPDEST PUSH2 0x48B JUMP JUMPDEST PUSH1 0x40 MLOAD PUSH2 0x1A7 SWAP2 SWAP1 PUSH2 0x1F90 JUMP JUMPDEST PUSH1 0x40 MLOAD DUP1 SWAP2 SUB SWAP1 RETURN JUMPDEST PUSH2 0x1C3 PUSH2 0x1BE CALLDATASIZE PUSH1 0x4 PUSH2 0x1ECC JUMP JUMPDEST PUSH2 0x61C JUMP JUMPDEST STOP JUMPDEST PUSH2 0x1C3 PUSH2 0x1D3 CALLDATASIZE PUSH1 0x4 PUSH2 0x1F46 JUMP JUMPDEST PUSH2 0x722 JUMP JUMPDEST PUSH1 0x3 SLOAD PUSH2 0x1EB SWAP1 PUSH1 0x1 PUSH1 0x1 PUSH1 0xA0 SHL SUB AND DUP2 JUMP JUMPDEST PUSH1 0x40 MLOAD PUSH1 0x1 PUSH1 0x1 PUSH1 0xA0 SHL SUB SWAP1 SWAP2 AND DUP2 MSTORE PUSH1 0x20 ADD PUSH2 0x1A7 JUMP JUMPDEST PUSH2 0x1C3 PUSH2 0x211 CALLDATASIZE PUSH1 0x4 PUSH2 0x1ECC JUMP JUMPDEST PUSH2 0xA16 JUMP JUMPDEST PUSH2 0x1C3 PUSH2 0x224 CALLDATASIZE PUSH1 0x4 PUSH2 0x1ECC JUMP JUMPDEST PUSH2 0xBFE JUMP JUMPDEST PUSH1 0x4 SLOAD PUSH2 0x1EB SWAP1 PUSH1 0x1 PUSH1 0x1 PUSH1 0xA0 SHL SUB AND DUP2 JUMP JUMPDEST PUSH2 0x1EB PUSH2 0x24A CALLDATASIZE PUSH1 0x4 PUSH2 0x1ECC JUMP JUMPDEST PUSH1 0x1 PUSH1 0x20 SWAP1 DUP2 MSTORE PUSH1 0x0 SWAP3 DUP4 MSTORE PUSH1 0x40 DUP1 DUP5 KECCAK256 SWAP1 SWAP2 MSTORE SWAP1 DUP3 MSTORE SWAP1 KECCAK256 SLOAD PUSH1 0x1 PUSH1 0x1 PUSH1 0xA0 SHL SUB AND DUP2 JUMP JUMPDEST PUSH2 0x1C3 PUSH2 0x27E CALLDATASIZE PUSH1 0x4 PUSH2 0x1EFF JUMP JUMPDEST PUSH2 0xD40 JUMP JUMPDEST PUSH2 0x1C3 PUSH2 0x291 CALLDATASIZE PUSH1 0x4 PUSH2 0x1ECC JUMP JUMPDEST PUSH2 0xE16 JUMP JUMPDEST PUSH2 0x1EB PUSH2 0x2A4 CALLDATASIZE PUSH1 0x4 PUSH2 0x1EAA JUMP JUMPDEST PUSH1 0x0 PUSH1 0x20 DUP2 SWAP1 MSTORE SWAP1 DUP2 MSTORE PUSH1 0x40 SWAP1 KECCAK256 SLOAD PUSH1 0x1 PUSH1 0x1 PUSH1 0xA0 SHL SUB AND DUP2 JUMP JUMPDEST PUSH2 0x1C3 PUSH2 0x2CD CALLDATASIZE PUSH1 0x4 PUSH2 0x1EAA JUMP JUMPDEST PUSH2 0xF22 JUMP JUMPDEST PUSH2 0x1C3 PUSH2 0x2E0 CALLDATASIZE PUSH1 0x4 PUSH2 0x1F63 JUMP JUMPDEST PUSH2 0x1044 JUMP JUMPDEST PUSH2 0x1C3 PUSH2 0x2F3 CALLDATASIZE PUSH1 0x4 PUSH2 0x1EAA JUMP JUMPDEST PUSH2 0x138A JUMP JUMPDEST PUSH2 0x1C3 PUSH2 0x306 CALLDATASIZE PUSH1 0x4 PUSH2 0x1F46 JUMP JUMPDEST PUSH2 0x1454 JUMP JUMPDEST PUSH2 0x1C3 PUSH2 0x319 CALLDATASIZE PUSH1 0x4 PUSH2 0x1EAA JUMP JUMPDEST PUSH2 0x1819 JUMP JUMPDEST PUSH2 0x354 PUSH2 0x32C CALLDATASIZE PUSH1 0x4 PUSH2 0x1EAA JUMP JUMPDEST PUSH1 0x1 PUSH1 0x1 PUSH1 0xA0 SHL SUB AND PUSH1 0x0 SWAP1 DUP2 MSTORE PUSH1 0x2 PUSH1 0x20 MSTORE PUSH1 0x40 SWAP1 KECCAK256 PUSH1 0x3 ADD SLOAD PUSH1 0x1 PUSH1 0xA8 SHL SWAP1 DIV PUSH1 0xFF AND SWAP1 JUMP JUMPDEST PUSH1 0x40 MLOAD SWAP1 ISZERO ISZERO DUP2 MSTORE PUSH1 0x20 ADD PUSH2 0x1A7 JUMP JUMPDEST PUSH2 0x1C3 PUSH2 0x372 CALLDATASIZE PUSH1 0x4 PUSH2 0x1EAA JUMP JUMPDEST PUSH2 0x18E9 JUMP JUMPDEST PUSH2 0x400 PUSH2 0x385 CALLDATASIZE PUSH1 0x4 PUSH2 0x1EAA JUMP JUMPDEST PUSH1 0x2 PUSH1 0x20 DUP2 SWAP1 MSTORE PUSH1 0x0 SWAP2 DUP3 MSTORE PUSH1 0x40 SWAP1 SWAP2 KECCAK256 DUP1 SLOAD PUSH1 0x1 DUP3 ADD SLOAD SWAP3 DUP3 ADD SLOAD PUSH1 0x3 DUP4 ADD SLOAD PUSH1 0x4 DUP5 ADD SLOAD PUSH1 0x5 SWAP1 SWAP5 ADD SLOAD SWAP3 SWAP5 PUSH1 0x1 PUSH1 0x1 PUSH1 0xA0 SHL SUB SWAP1 DUP2 AND SWAP5 SWAP3 SWAP4 PUSH1 0xFF DUP1 DUP5 AND SWAP5 PUSH2 0x100 DUP6 DIV DUP5 AND SWAP5 PUSH1 0x1 PUSH1 0xA8 SHL DUP2 DIV DUP4 AND SWAP5 PUSH1 0x1 PUSH1 0xB0 SHL DUP3 DIV DUP5 AND SWAP5 PUSH1 0x1 PUSH1 0xB8 SHL DUP4 DIV DUP6 AND SWAP5 PUSH1 0x1 PUSH1 0xC0 SHL SWAP1 SWAP4 DIV SWAP1 SWAP3 AND SWAP3 DUP2 AND SWAP2 AND DUP12 JUMP JUMPDEST PUSH1 0x40 DUP1 MLOAD SWAP12 DUP13 MSTORE PUSH1 0x1 PUSH1 0x1 PUSH1 0xA0 SHL SUB SWAP11 DUP12 AND PUSH1 0x20 DUP14 ADD MSTORE DUP12 ADD SWAP9 SWAP1 SWAP9 MSTORE PUSH1 0xFF SWAP1 SWAP7 AND PUSH1 0x60 DUP11 ADD MSTORE SWAP4 DUP8 AND PUSH1 0x80 DUP10 ADD MSTORE SWAP2 ISZERO ISZERO PUSH1 0xA0 DUP9 ADD MSTORE ISZERO ISZERO PUSH1 0xC0 DUP8 ADD MSTORE ISZERO ISZERO PUSH1 0xE0 DUP7 ADD MSTORE ISZERO ISZERO PUSH2 0x100 DUP6 ADD MSTORE DUP3 AND PUSH2 0x120 DUP5 ADD MSTORE AND PUSH2 0x140 DUP3 ADD MSTORE PUSH2 0x160 ADD PUSH2 0x1A7 JUMP JUMPDEST PUSH2 0x1C3 PUSH2 0x473 CALLDATASIZE PUSH1 0x4 PUSH2 0x1F46 JUMP JUMPDEST PUSH2 0x1A11 JUMP JUMPDEST PUSH2 0x1C3 PUSH2 0x486 CALLDATASIZE PUSH1 0x4 PUSH2 0x1F46 JUMP JUMPDEST PUSH2 0x1C78 JUMP JUMPDEST PUSH1 0x40 DUP1 MLOAD PUSH2 0x160 DUP2 ADD DUP3 MSTORE PUSH1 0x0 DUP1 DUP3 MSTORE PUSH1 0x20 DUP3 ADD DUP2 SWAP1 MSTORE SWAP2 DUP2 ADD DUP3 SWAP1 MSTORE PUSH1 0x60 DUP2 ADD DUP3 SWAP1 MSTORE PUSH1 0x80 DUP2 ADD DUP3 SWAP1 MSTORE PUSH1 0xA0 DUP2 ADD DUP3 SWAP1 MSTORE PUSH1 0xC0 DUP2 ADD DUP3 SWAP1 MSTORE PUSH1 0xE0 DUP2 ADD DUP3 SWAP1 MSTORE PUSH2 0x100 DUP2 ADD DUP3 SWAP1 MSTORE PUSH2 0x120 DUP2 ADD DUP3 SWAP1 MSTORE PUSH2 0x140 DUP2 ADD SWAP2 SWAP1 SWAP2 MSTORE PUSH1 0x1 PUSH1 0x1 PUSH1 0xA0 SHL SUB DUP3 AND PUSH1 0x0 SWAP1 DUP2 MSTORE PUSH1 0x2 PUSH1 0x20 MSTORE PUSH1 0x40 SWAP1 KECCAK256 PUSH1 0x3 ADD SLOAD PUSH1 0x1 PUSH1 0xC0 SHL SWAP1 DIV PUSH1 0xFF AND ISZERO ISZERO PUSH1 0x1 EQ PUSH2 0x560 JUMPI PUSH1 0x40 MLOAD PUSH3 0x461BCD PUSH1 0xE5 SHL DUP2 MSTORE PUSH1 0x20 PUSH1 0x4 DUP3 ADD MSTORE PUSH1 0x1A PUSH1 0x24 DUP3 ADD MSTORE PUSH32 0x7468652053545468696E6773206973206E6F7420657869737473000000000000 PUSH1 0x44 DUP3 ADD MSTORE PUSH1 0x64 ADD JUMPDEST PUSH1 0x40 MLOAD DUP1 SWAP2 SUB SWAP1 REVERT JUMPDEST POP PUSH1 0x1 PUSH1 0x1 PUSH1 0xA0 SHL SUB SWAP1 DUP2 AND PUSH1 0x0 SWAP1 DUP2 MSTORE PUSH1 0x2 PUSH1 0x20 DUP2 DUP2 MSTORE PUSH1 0x40 SWAP3 DUP4 SWAP1 KECCAK256 DUP4 MLOAD PUSH2 0x160 DUP2 ADD DUP6 MSTORE DUP2 SLOAD DUP2 MSTORE PUSH1 0x1 DUP3 ADD SLOAD DUP7 AND SWAP3 DUP2 ADD SWAP3 SWAP1 SWAP3 MSTORE SWAP2 DUP3 ADD SLOAD SWAP3 DUP2 ADD SWAP3 SWAP1 SWAP3 MSTORE PUSH1 0x3 DUP2 ADD SLOAD PUSH1 0xFF DUP1 DUP3 AND PUSH1 0x60 DUP6 ADD MSTORE PUSH2 0x100 DUP1 DUP4 DIV DUP7 AND PUSH1 0x80 DUP7 ADD MSTORE PUSH1 0x1 PUSH1 0xA8 SHL DUP4 DIV DUP3 AND ISZERO ISZERO PUSH1 0xA0 DUP7 ADD MSTORE PUSH1 0x1 PUSH1 0xB0 SHL DUP4 DIV DUP3 AND ISZERO ISZERO PUSH1 0xC0 DUP7 ADD MSTORE PUSH1 0x1 PUSH1 0xB8 SHL DUP4 DIV DUP3 AND ISZERO ISZERO PUSH1 0xE0 DUP7 ADD MSTORE PUSH1 0x1 PUSH1 0xC0 SHL SWAP1 SWAP3 DIV AND ISZERO ISZERO SWAP1 DUP4 ADD MSTORE PUSH1 0x4 DUP2 ADD SLOAD DUP4 AND PUSH2 0x120 DUP4 ADD MSTORE PUSH1 0x5 ADD SLOAD SWAP1 SWAP2 AND PUSH2 0x140 DUP3 ADD MSTORE SWAP1 JUMP JUMPDEST PUSH1 0x1 PUSH1 0x1 PUSH1 0xA0 SHL SUB DUP3 DUP2 AND PUSH1 0x0 SWAP1 DUP2 MSTORE PUSH1 0x2 PUSH1 0x20 MSTORE PUSH1 0x40 SWAP1 KECCAK256 PUSH1 0x5 ADD SLOAD AND CALLER EQ DUP1 ISZERO PUSH2 0x66D JUMPI POP PUSH1 0x1 PUSH1 0x1 PUSH1 0xA0 SHL SUB DUP2 DUP2 AND PUSH1 0x0 SWAP1 DUP2 MSTORE PUSH1 0x1 PUSH1 0x20 SWAP1 DUP2 MSTORE PUSH1 0x40 DUP1 DUP4 KECCAK256 DUP7 DUP6 AND DUP5 MSTORE SWAP1 SWAP2 MSTORE SWAP1 KECCAK256 SLOAD AND ISZERO JUMPDEST PUSH2 0x6DF JUMPI PUSH1 0x40 MLOAD PUSH3 0x461BCD PUSH1 0xE5 SHL DUP2 MSTORE PUSH1 0x20 PUSH1 0x4 DUP3 ADD MSTORE PUSH1 0x23 PUSH1 0x24 DUP3 ADD MSTORE PUSH32 0x796F752068617665206E6F74207468652070726976696C65676573206F662074 PUSH1 0x44 DUP3 ADD MSTORE PUSH32 0x6869730000000000000000000000000000000000000000000000000000000000 PUSH1 0x64 DUP3 ADD MSTORE PUSH1 0x84 ADD PUSH2 0x557 JUMP JUMPDEST POP PUSH1 0x1 PUSH1 0x1 PUSH1 0xA0 SHL SUB AND PUSH1 0x0 SWAP1 DUP2 MSTORE PUSH1 0x2 PUSH1 0x20 MSTORE PUSH1 0x40 SWAP1 KECCAK256 PUSH1 0x3 ADD DUP1 SLOAD PUSH32 0xFFFFFFFFFFFFFFFF00FFFFFFFFFFFFFFFFFFFFFFFFFFFFFFFFFFFFFFFFFFFFFF AND SWAP1 SSTORE JUMP JUMPDEST PUSH1 0x3 PUSH1 0x0 SWAP1 SLOAD SWAP1 PUSH2 0x100 EXP SWAP1 DIV PUSH1 0x1 PUSH1 0x1 PUSH1 0xA0 SHL SUB AND PUSH1 0x1 PUSH1 0x1 PUSH1 0xA0 SHL SUB AND PUSH4 0xAB3ACB5C PUSH1 0x40 MLOAD DUP2 PUSH4 0xFFFFFFFF AND PUSH1 0xE0 SHL DUP2 MSTORE PUSH1 0x4 ADD PUSH1 0x20 PUSH1 0x40 MLOAD DUP1 DUP4 SUB DUP2 DUP7 DUP1 EXTCODESIZE ISZERO DUP1 ISZERO PUSH2 0x770 JUMPI PUSH1 0x0 DUP1 REVERT JUMPDEST POP GAS STATICCALL ISZERO DUP1 ISZERO PUSH2 0x784 JUMPI RETURNDATASIZE PUSH1 0x0 DUP1 RETURNDATACOPY RETURNDATASIZE PUSH1 0x0 REVERT JUMPDEST POP POP POP POP PUSH1 0x40 MLOAD RETURNDATASIZE PUSH1 0x1F NOT PUSH1 0x1F DUP3 ADD AND DUP3 ADD DUP1 PUSH1 0x40 MSTORE POP DUP2 ADD SWAP1 PUSH2 0x7A8 SWAP2 SWAP1 PUSH2 0x1F29 JUMP JUMPDEST PUSH2 0x7B1 JUMPI PUSH1 0x0 DUP1 REVERT JUMPDEST PUSH1 0x80 DUP2 ADD MLOAD PUSH1 0x1 PUSH1 0x1 PUSH1 0xA0 SHL SUB SWAP1 DUP2 AND PUSH1 0x0 SWAP1 DUP2 MSTORE PUSH1 0x2 PUSH1 0x20 MSTORE PUSH1 0x40 SWAP1 KECCAK256 PUSH1 0x4 ADD SLOAD AND CALLER EQ PUSH2 0x822 JUMPI PUSH1 0x40 MLOAD PUSH3 0x461BCD PUSH1 0xE5 SHL DUP2 MSTORE PUSH1 0x20 PUSH1 0x4 DUP3 ADD MSTORE PUSH1 0x16 PUSH1 0x24 DUP3 ADD MSTORE PUSH32 0x796F752068617665206E6F742074686520726967687400000000000000000000 PUSH1 0x44 DUP3 ADD MSTORE PUSH1 0x64 ADD PUSH2 0x557 JUMP JUMPDEST DUP1 PUSH1 0x60 ADD MLOAD PUSH1 0xFF AND PUSH1 0x4 EQ PUSH2 0x879 JUMPI PUSH1 0x40 MLOAD PUSH3 0x461BCD PUSH1 0xE5 SHL DUP2 MSTORE PUSH1 0x20 PUSH1 0x4 DUP3 ADD DUP2 SWAP1 MSTORE PUSH1 0x24 DUP3 ADD MSTORE PUSH32 0x74686520636F696E2073636F7065206973206E6F74206A757374696669656420 PUSH1 0x44 DUP3 ADD MSTORE PUSH1 0x64 ADD PUSH2 0x557 JUMP JUMPDEST PUSH1 0x0 PUSH1 0xA0 DUP3 ADD DUP2 DUP2 MSTORE PUSH1 0xC0 DUP4 ADD DUP3 DUP2 MSTORE PUSH1 0x1 PUSH2 0x100 DUP1 DUP7 ADD DUP3 DUP2 MSTORE CALLER PUSH2 0x120 DUP9 ADD SWAP1 DUP2 MSTORE PUSH1 0x80 DUP9 ADD DUP1 MLOAD PUSH1 0x1 PUSH1 0x1 PUSH1 0xA0 SHL SUB SWAP1 DUP2 AND DUP10 MSTORE PUSH1 0x2 PUSH1 0x20 DUP2 DUP2 MSTORE PUSH1 0x40 SWAP11 DUP12 SWAP1 KECCAK256 DUP13 MLOAD DUP2 SSTORE SWAP1 DUP13 ADD MLOAD SWAP8 DUP2 ADD DUP1 SLOAD SWAP9 DUP5 AND PUSH20 0xFFFFFFFFFFFFFFFFFFFFFFFFFFFFFFFFFFFFFFFF NOT SWAP10 DUP11 AND OR SWAP1 SSTORE SWAP10 DUP12 ADD MLOAD SWAP1 DUP11 ADD SSTORE PUSH1 0x60 DUP11 ADD MLOAD PUSH1 0x3 DUP11 ADD DUP1 SLOAD SWAP4 MLOAD SWAP10 MLOAD SWAP9 MLOAD PUSH1 0xE0 DUP14 ADD MLOAD SWAP7 MLOAD ISZERO ISZERO PUSH1 0x1 PUSH1 0xC0 SHL MUL PUSH32 0xFFFFFFFFFFFFFF00FFFFFFFFFFFFFFFFFFFFFFFFFFFFFFFFFFFFFFFFFFFFFFFF SWAP8 ISZERO ISZERO PUSH1 0x1 PUSH1 0xB8 SHL MUL SWAP8 SWAP1 SWAP8 AND PUSH32 0xFFFFFFFFFFFFFF0000FFFFFFFFFFFFFFFFFFFFFFFFFFFFFFFFFFFFFFFFFFFFFF SWAP2 ISZERO ISZERO PUSH1 0x1 PUSH1 0xB0 SHL MUL PUSH1 0xFF PUSH1 0xB0 SHL NOT SWAP12 ISZERO ISZERO PUSH1 0x1 PUSH1 0xA8 SHL MUL SWAP12 SWAP1 SWAP12 AND PUSH32 0xFFFFFFFFFFFFFFFFFF0000FFFFFFFFFFFFFFFFFFFFFFFFFFFFFFFFFFFFFFFFFF SWAP13 DUP7 AND SWAP1 SWAP10 MUL PUSH32 0xFFFFFFFFFFFFFFFFFFFFFF000000000000000000000000000000000000000000 SWAP1 SWAP7 AND PUSH1 0xFF SWAP1 SWAP5 AND SWAP4 SWAP1 SWAP4 OR SWAP5 SWAP1 SWAP5 OR SWAP10 SWAP1 SWAP10 AND SWAP6 SWAP1 SWAP6 OR SWAP7 SWAP1 SWAP7 OR AND SWAP3 SWAP1 SWAP3 OR OR SWAP1 SWAP4 SSTORE SWAP2 MLOAD PUSH1 0x4 DUP5 ADD DUP1 SLOAD SWAP2 DUP4 AND SWAP2 DUP5 AND SWAP2 SWAP1 SWAP2 OR SWAP1 SSTORE PUSH2 0x140 SWAP1 SWAP4 ADD MLOAD PUSH1 0x5 SWAP1 SWAP3 ADD DUP1 SLOAD SWAP3 SWAP1 SWAP4 AND SWAP2 AND OR SWAP1 SSTORE JUMP JUMPDEST PUSH1 0x4 DUP1 SLOAD PUSH1 0x40 DUP1 MLOAD PUSH4 0xA43F929 PUSH1 0xE1 SHL DUP2 MSTORE SWAP1 MLOAD PUSH1 0x1 PUSH1 0x1 PUSH1 0xA0 SHL SUB SWAP1 SWAP3 AND SWAP3 PUSH4 0x1487F252 SWAP3 DUP3 DUP3 ADD SWAP3 PUSH1 0x20 SWAP3 SWAP1 DUP3 SWAP1 SUB ADD DUP2 DUP7 DUP1 EXTCODESIZE ISZERO DUP1 ISZERO PUSH2 0xA58 JUMPI PUSH1 0x0 DUP1 REVERT JUMPDEST POP GAS STATICCALL ISZERO DUP1 ISZERO PUSH2 0xA6C JUMPI RETURNDATASIZE PUSH1 0x0 DUP1 RETURNDATACOPY RETURNDATASIZE PUSH1 0x0 REVERT JUMPDEST POP POP POP POP PUSH1 0x40 MLOAD RETURNDATASIZE PUSH1 0x1F NOT PUSH1 0x1F DUP3 ADD AND DUP3 ADD DUP1 PUSH1 0x40 MSTORE POP DUP2 ADD SWAP1 PUSH2 0xA90 SWAP2 SWAP1 PUSH2 0x1F29 JUMP JUMPDEST ISZERO ISZERO PUSH1 0x1 EQ PUSH2 0xA9E JUMPI PUSH1 0x0 DUP1 REVERT JUMPDEST PUSH1 0x1 PUSH1 0x1 PUSH1 0xA0 SHL SUB DUP2 DUP2 AND PUSH1 0x0 SWAP1 DUP2 MSTORE PUSH1 0x1 PUSH1 0x20 SWAP1 DUP2 MSTORE PUSH1 0x40 DUP1 DUP4 KECCAK256 DUP7 DUP6 AND DUP5 MSTORE SWAP1 SWAP2 MSTORE SWAP1 KECCAK256 SLOAD AND PUSH2 0xB12 JUMPI PUSH1 0x40 MLOAD PUSH3 0x461BCD PUSH1 0xE5 SHL DUP2 MSTORE PUSH1 0x20 PUSH1 0x4 DUP3 ADD MSTORE PUSH1 0x1A PUSH1 0x24 DUP3 ADD MSTORE PUSH32 0x7468652053545468696E6773206973206E6F7420657869737473000000000000 PUSH1 0x44 DUP3 ADD MSTORE PUSH1 0x64 ADD PUSH2 0x557 JUMP JUMPDEST PUSH1 0x1 PUSH1 0x1 PUSH1 0xA0 SHL SUB DUP3 DUP2 AND PUSH1 0x0 SWAP1 DUP2 MSTORE PUSH1 0x20 DUP2 SWAP1 MSTORE PUSH1 0x40 SWAP1 KECCAK256 SLOAD AND ISZERO PUSH2 0xBA0 JUMPI PUSH1 0x40 MLOAD PUSH3 0x461BCD PUSH1 0xE5 SHL DUP2 MSTORE PUSH1 0x20 PUSH1 0x4 DUP3 ADD MSTORE PUSH1 0x21 PUSH1 0x24 DUP3 ADD MSTORE PUSH32 0x7468652053545468696E6773206973202065786973747320696E206D61726B65 PUSH1 0x44 DUP3 ADD MSTORE PUSH32 0x7400000000000000000000000000000000000000000000000000000000000000 PUSH1 0x64 DUP3 ADD MSTORE PUSH1 0x84 ADD PUSH2 0x557 JUMP JUMPDEST PUSH1 0x1 PUSH1 0x1 PUSH1 0xA0 SHL SUB SWAP1 DUP2 AND PUSH1 0x0 SWAP1 DUP2 MSTORE PUSH1 0x1 PUSH1 0x20 SWAP1 DUP2 MSTORE PUSH1 0x40 DUP1 DUP4 KECCAK256 SWAP5 DUP5 AND DUP4 MSTORE DUP5 DUP3 MSTORE DUP1 DUP4 KECCAK256 DUP1 SLOAD DUP5 DUP5 MSTORE SWAP2 SWAP1 SWAP4 KECCAK256 DUP1 SLOAD SWAP2 SWAP1 SWAP5 AND PUSH20 0xFFFFFFFFFFFFFFFFFFFFFFFFFFFFFFFFFFFFFFFF NOT SWAP2 DUP3 AND OR SWAP1 SWAP4 SSTORE SWAP3 SWAP1 SWAP3 MSTORE DUP2 SLOAD AND SWAP1 SSTORE JUMP JUMPDEST PUSH1 0x4 DUP1 SLOAD PUSH1 0x40 DUP1 MLOAD PUSH4 0xA43F929 PUSH1 0xE1 SHL DUP2 MSTORE SWAP1 MLOAD PUSH1 0x1 PUSH1 0x1 PUSH1 0xA0 SHL SUB SWAP1 SWAP3 AND SWAP3 PUSH4 0x1487F252 SWAP3 DUP3 DUP3 ADD SWAP3 PUSH1 0x20 SWAP3 SWAP1 DUP3 SWAP1 SUB ADD DUP2 DUP7 DUP1 EXTCODESIZE ISZERO DUP1 ISZERO PUSH2 0xC40 JUMPI PUSH1 0x0 DUP1 REVERT JUMPDEST POP GAS STATICCALL ISZERO DUP1 ISZERO PUSH2 0xC54 JUMPI RETURNDATASIZE PUSH1 0x0 DUP1 RETURNDATACOPY RETURNDATASIZE PUSH1 0x0 REVERT JUMPDEST POP POP POP POP PUSH1 0x40 MLOAD RETURNDATASIZE PUSH1 0x1F NOT PUSH1 0x1F DUP3 ADD AND DUP3 ADD DUP1 PUSH1 0x40 MSTORE POP DUP2 ADD SWAP1 PUSH2 0xC78 SWAP2 SWAP1 PUSH2 0x1F29 JUMP JUMPDEST ISZERO ISZERO PUSH1 0x1 EQ PUSH2 0xC86 JUMPI PUSH1 0x0 DUP1 REVERT JUMPDEST PUSH1 0x1 PUSH1 0x1 PUSH1 0xA0 SHL SUB DUP2 DUP2 AND PUSH1 0x0 SWAP1 DUP2 MSTORE PUSH1 0x1 PUSH1 0x20 SWAP1 DUP2 MSTORE PUSH1 0x40 DUP1 DUP4 KECCAK256 DUP7 DUP6 AND DUP5 MSTORE SWAP1 SWAP2 MSTORE SWAP1 KECCAK256 SLOAD AND ISZERO PUSH2 0xCFB JUMPI PUSH1 0x40 MLOAD PUSH3 0x461BCD PUSH1 0xE5 SHL DUP2 MSTORE PUSH1 0x20 PUSH1 0x4 DUP3 ADD MSTORE PUSH1 0x1A PUSH1 0x24 DUP3 ADD MSTORE PUSH32 0x7468652053545468696E6773206973206E6F7420657869737473000000000000 PUSH1 0x44 DUP3 ADD MSTORE PUSH1 0x64 ADD PUSH2 0x557 JUMP JUMPDEST PUSH1 0x1 PUSH1 0x1 PUSH1 0xA0 SHL SUB SWAP1 DUP2 AND PUSH1 0x0 SWAP1 DUP2 MSTORE PUSH1 0x1 PUSH1 0x20 SWAP1 DUP2 MSTORE PUSH1 0x40 DUP1 DUP4 KECCAK256 SWAP5 SWAP1 SWAP4 AND DUP3 MSTORE SWAP3 SWAP1 SWAP3 MSTORE SWAP1 KECCAK256 DUP1 SLOAD PUSH20 0xFFFFFFFFFFFFFFFFFFFFFFFFFFFFFFFFFFFFFFFF NOT AND SWAP1 SSTORE JUMP JUMPDEST PUSH1 0x4 DUP1 SLOAD PUSH1 0x40 DUP1 MLOAD PUSH4 0xA43F929 PUSH1 0xE1 SHL DUP2 MSTORE SWAP1 MLOAD PUSH1 0x1 PUSH1 0x1 PUSH1 0xA0 SHL SUB SWAP1 SWAP3 AND SWAP3 PUSH4 0x1487F252 SWAP3 DUP3 DUP3 ADD SWAP3 PUSH1 0x20 SWAP3 SWAP1 DUP3 SWAP1 SUB ADD DUP2 DUP7 DUP1 EXTCODESIZE ISZERO DUP1 ISZERO PUSH2 0xD82 JUMPI PUSH1 0x0 DUP1 REVERT JUMPDEST POP GAS STATICCALL ISZERO DUP1 ISZERO PUSH2 0xD96 JUMPI RETURNDATASIZE PUSH1 0x0 DUP1 RETURNDATACOPY RETURNDATASIZE PUSH1 0x0 REVERT JUMPDEST POP POP POP POP PUSH1 0x40 MLOAD RETURNDATASIZE PUSH1 0x1F NOT PUSH1 0x1F DUP3 ADD AND DUP3 ADD DUP1 PUSH1 0x40 MSTORE POP DUP2 ADD SWAP1 PUSH2 0xDBA SWAP2 SWAP1 PUSH2 0x1F29 JUMP JUMPDEST ISZERO ISZERO PUSH1 0x1 EQ PUSH2 0xDC8 JUMPI PUSH1 0x0 DUP1 REVERT JUMPDEST PUSH1 0x1 PUSH1 0x1 PUSH1 0xA0 SHL SUB SWAP2 SWAP1 SWAP2 AND PUSH1 0x0 SWAP1 DUP2 MSTORE PUSH1 0x2 PUSH1 0x20 MSTORE PUSH1 0x40 SWAP1 KECCAK256 PUSH1 0x3 ADD DUP1 SLOAD PUSH32 0xFFFFFFFFFFFFFFFFFFFFFFFFFFFFFFFFFFFFFFFFFFFFFFFFFFFFFFFFFFFFFF00 AND PUSH1 0xFF SWAP1 SWAP3 AND SWAP2 SWAP1 SWAP2 OR SWAP1 SSTORE JUMP JUMPDEST PUSH1 0x1 PUSH1 0x1 PUSH1 0xA0 SHL SUB DUP3 DUP2 AND PUSH1 0x0 SWAP1 DUP2 MSTORE PUSH1 0x2 PUSH1 0x20 MSTORE PUSH1 0x40 SWAP1 KECCAK256 PUSH1 0x5 ADD SLOAD AND CALLER EQ DUP1 ISZERO PUSH2 0xE67 JUMPI POP PUSH1 0x1 PUSH1 0x1 PUSH1 0xA0 SHL SUB DUP2 DUP2 AND PUSH1 0x0 SWAP1 DUP2 MSTORE PUSH1 0x1 PUSH1 0x20 SWAP1 DUP2 MSTORE PUSH1 0x40 DUP1 DUP4 KECCAK256 DUP7 DUP6 AND DUP5 MSTORE SWAP1 SWAP2 MSTORE SWAP1 KECCAK256 SLOAD AND ISZERO JUMPDEST PUSH2 0xED9 JUMPI PUSH1 0x40 MLOAD PUSH3 0x461BCD PUSH1 0xE5 SHL DUP2 MSTORE PUSH1 0x20 PUSH1 0x4 DUP3 ADD MSTORE PUSH1 0x23 PUSH1 0x24 DUP3 ADD MSTORE PUSH32 0x796F752068617665206E6F74207468652070726976696C65676573206F662074 PUSH1 0x44 DUP3 ADD MSTORE PUSH32 0x6869730000000000000000000000000000000000000000000000000000000000 PUSH1 0x64 DUP3 ADD MSTORE PUSH1 0x84 ADD PUSH2 0x557 JUMP JUMPDEST POP PUSH1 0x1 PUSH1 0x1 PUSH1 0xA0 SHL SUB AND PUSH1 0x0 SWAP1 DUP2 MSTORE PUSH1 0x2 PUSH1 0x20 MSTORE PUSH1 0x40 SWAP1 KECCAK256 PUSH1 0x3 ADD DUP1 SLOAD PUSH32 0xFFFFFFFFFFFFFFFF00FFFFFFFFFFFFFFFFFFFFFFFFFFFFFFFFFFFFFFFFFFFFFF AND PUSH1 0x1 PUSH1 0xB8 SHL OR SWAP1 SSTORE JUMP JUMPDEST PUSH1 0x3 PUSH1 0x0 SWAP1 SLOAD SWAP1 PUSH2 0x100 EXP SWAP1 DIV PUSH1 0x1 PUSH1 0x1 PUSH1 0xA0 SHL SUB AND PUSH1 0x1 PUSH1 0x1 PUSH1 0xA0 SHL SUB AND PUSH4 0xAB3ACB5C PUSH1 0x40 MLOAD DUP2 PUSH4 0xFFFFFFFF AND PUSH1 0xE0 SHL DUP2 MSTORE PUSH1 0x4 ADD PUSH1 0x20 PUSH1 0x40 MLOAD DUP1 DUP4 SUB DUP2 DUP7 DUP1 EXTCODESIZE ISZERO DUP1 ISZERO PUSH2 0xF70 JUMPI PUSH1 0x0 DUP1 REVERT JUMPDEST POP GAS STATICCALL ISZERO DUP1 ISZERO PUSH2 0xF84 JUMPI RETURNDATASIZE PUSH1 0x0 DUP1 RETURNDATACOPY RETURNDATASIZE PUSH1 0x0 REVERT JUMPDEST POP POP POP POP PUSH1 0x40 MLOAD RETURNDATASIZE PUSH1 0x1F NOT PUSH1 0x1F DUP3 ADD AND DUP3 ADD DUP1 PUSH1 0x40 MSTORE POP DUP2 ADD SWAP1 PUSH2 0xFA8 SWAP2 SWAP1 PUSH2 0x1F29 JUMP JUMPDEST PUSH2 0xFB1 JUMPI PUSH1 0x0 DUP1 REVERT JUMPDEST PUSH1 0x1 PUSH1 0x1 PUSH1 0xA0 SHL SUB DUP2 DUP2 AND PUSH1 0x0 SWAP1 DUP2 MSTORE PUSH1 0x2 PUSH1 0x20 MSTORE PUSH1 0x40 SWAP1 KECCAK256 PUSH1 0x4 ADD SLOAD AND CALLER EQ PUSH2 0x101D JUMPI PUSH1 0x40 MLOAD PUSH3 0x461BCD PUSH1 0xE5 SHL DUP2 MSTORE PUSH1 0x20 PUSH1 0x4 DUP3 ADD MSTORE PUSH1 0x16 PUSH1 0x24 DUP3 ADD MSTORE PUSH32 0x796F752068617665206E6F742074686520726967687400000000000000000000 PUSH1 0x44 DUP3 ADD MSTORE PUSH1 0x64 ADD PUSH2 0x557 JUMP JUMPDEST PUSH1 0x1 PUSH1 0x1 PUSH1 0xA0 SHL SUB AND PUSH1 0x0 SWAP1 DUP2 MSTORE PUSH1 0x2 PUSH1 0x20 MSTORE PUSH1 0x40 SWAP1 KECCAK256 PUSH1 0x3 ADD DUP1 SLOAD PUSH1 0xFF PUSH1 0xB0 SHL NOT AND SWAP1 SSTORE JUMP JUMPDEST PUSH1 0x80 DUP3 ADD MLOAD PUSH1 0x1 PUSH1 0x1 PUSH1 0xA0 SHL SUB AND PUSH1 0x0 SWAP1 DUP2 MSTORE PUSH1 0x2 PUSH1 0x20 MSTORE PUSH1 0x40 SWAP1 KECCAK256 PUSH1 0x3 ADD SLOAD PUSH1 0x1 PUSH1 0xC0 SHL SWAP1 DIV PUSH1 0xFF AND ISZERO ISZERO PUSH1 0x1 EQ DUP1 ISZERO SWAP1 PUSH2 0x10A9 JUMPI POP PUSH1 0x1 PUSH1 0x1 PUSH1 0xA0 SHL SUB DUP2 DUP2 AND PUSH1 0x0 SWAP1 DUP2 MSTORE PUSH1 0x1 PUSH1 0x20 SWAP1 DUP2 MSTORE PUSH1 0x40 DUP1 DUP4 KECCAK256 PUSH1 0x80 DUP8 ADD MLOAD DUP6 AND DUP5 MSTORE SWAP1 SWAP2 MSTORE SWAP1 KECCAK256 SLOAD AND ISZERO JUMPDEST PUSH2 0x10F5 JUMPI PUSH1 0x40 MLOAD PUSH3 0x461BCD PUSH1 0xE5 SHL DUP2 MSTORE PUSH1 0x20 PUSH1 0x4 DUP3 ADD MSTORE PUSH1 0x16 PUSH1 0x24 DUP3 ADD MSTORE PUSH32 0x796F752068617665206E6F742074686520726967687400000000000000000000 PUSH1 0x44 DUP3 ADD MSTORE PUSH1 0x64 ADD PUSH2 0x557 JUMP JUMPDEST PUSH1 0x0 DUP3 PUSH1 0xA0 ADD SWAP1 ISZERO ISZERO SWAP1 DUP2 ISZERO ISZERO DUP2 MSTORE POP POP PUSH1 0x1 DUP3 PUSH1 0xC0 ADD SWAP1 ISZERO ISZERO SWAP1 DUP2 ISZERO ISZERO DUP2 MSTORE POP POP PUSH1 0x0 DUP3 PUSH1 0xE0 ADD SWAP1 ISZERO ISZERO SWAP1 DUP2 ISZERO ISZERO DUP2 MSTORE POP POP PUSH1 0x1 DUP3 PUSH2 0x100 ADD SWAP1 ISZERO ISZERO SWAP1 DUP2 ISZERO ISZERO DUP2 MSTORE POP POP DUP1 DUP3 PUSH2 0x120 ADD SWAP1 PUSH1 0x1 PUSH1 0x1 PUSH1 0xA0 SHL SUB AND SWAP1 DUP2 PUSH1 0x1 PUSH1 0x1 PUSH1 0xA0 SHL SUB AND DUP2 MSTORE POP POP CALLER DUP3 PUSH2 0x140 ADD SWAP1 PUSH1 0x1 PUSH1 0x1 PUSH1 0xA0 SHL SUB AND SWAP1 DUP2 PUSH1 0x1 PUSH1 0x1 PUSH1 0xA0 SHL SUB AND DUP2 MSTORE POP POP DUP2 PUSH1 0x2 PUSH1 0x0 DUP5 PUSH1 0x80 ADD MLOAD PUSH1 0x1 PUSH1 0x1 PUSH1 0xA0 SHL SUB AND PUSH1 0x1 PUSH1 0x1 PUSH1 0xA0 SHL SUB AND DUP2 MSTORE PUSH1 0x20 ADD SWAP1 DUP2 MSTORE PUSH1 0x20 ADD PUSH1 0x0 KECCAK256 PUSH1 0x0 DUP3 ADD MLOAD DUP2 PUSH1 0x0 ADD SSTORE PUSH1 0x20 DUP3 ADD MLOAD DUP2 PUSH1 0x1 ADD PUSH1 0x0 PUSH2 0x100 EXP DUP2 SLOAD DUP2 PUSH1 0x1 PUSH1 0x1 PUSH1 0xA0 SHL SUB MUL NOT AND SWAP1 DUP4 PUSH1 0x1 PUSH1 0x1 PUSH1 0xA0 SHL SUB AND MUL OR SWAP1 SSTORE POP PUSH1 0x40 DUP3 ADD MLOAD DUP2 PUSH1 0x2 ADD SSTORE PUSH1 0x60 DUP3 ADD MLOAD DUP2 PUSH1 0x3 ADD PUSH1 0x0 PUSH2 0x100 EXP DUP2 SLOAD DUP2 PUSH1 0xFF MUL NOT AND SWAP1 DUP4 PUSH1 0xFF AND MUL OR SWAP1 SSTORE POP PUSH1 0x80 DUP3 ADD MLOAD DUP2 PUSH1 0x3 ADD PUSH1 0x1 PUSH2 0x100 EXP DUP2 SLOAD DUP2 PUSH1 0x1 PUSH1 0x1 PUSH1 0xA0 SHL SUB MUL NOT AND SWAP1 DUP4 PUSH1 0x1 PUSH1 0x1 PUSH1 0xA0 SHL SUB AND MUL OR SWAP1 SSTORE POP PUSH1 0xA0 DUP3 ADD MLOAD DUP2 PUSH1 0x3 ADD PUSH1 0x15 PUSH2 0x100 EXP DUP2 SLOAD DUP2 PUSH1 0xFF MUL NOT AND SWAP1 DUP4 ISZERO ISZERO MUL OR SWAP1 SSTORE POP PUSH1 0xC0 DUP3 ADD MLOAD DUP2 PUSH1 0x3 ADD PUSH1 0x16 PUSH2 0x100 EXP DUP2 SLOAD DUP2 PUSH1 0xFF MUL NOT AND SWAP1 DUP4 ISZERO ISZERO MUL OR SWAP1 SSTORE POP PUSH1 0xE0 DUP3 ADD MLOAD DUP2 PUSH1 0x3 ADD PUSH1 0x17 PUSH2 0x100 EXP DUP2 SLOAD DUP2 PUSH1 0xFF MUL NOT AND SWAP1 DUP4 ISZERO ISZERO MUL OR SWAP1 SSTORE POP PUSH2 0x100 DUP3 ADD MLOAD DUP2 PUSH1 0x3 ADD PUSH1 0x18 PUSH2 0x100 EXP DUP2 SLOAD DUP2 PUSH1 0xFF MUL NOT AND SWAP1 DUP4 ISZERO ISZERO MUL OR SWAP1 SSTORE POP PUSH2 0x120 DUP3 ADD MLOAD DUP2 PUSH1 0x4 ADD PUSH1 0x0 PUSH2 0x100 EXP DUP2 SLOAD DUP2 PUSH1 0x1 PUSH1 0x1 PUSH1 0xA0 SHL SUB MUL NOT AND SWAP1 DUP4 PUSH1 0x1 PUSH1 0x1 PUSH1 0xA0 SHL SUB AND MUL OR SWAP1 SSTORE POP PUSH2 0x140 DUP3 ADD MLOAD DUP2 PUSH1 0x5 ADD PUSH1 0x0 PUSH2 0x100 EXP DUP2 SLOAD DUP2 PUSH1 0x1 PUSH1 0x1 PUSH1 0xA0 SHL SUB MUL NOT AND SWAP1 DUP4 PUSH1 0x1 PUSH1 0x1 PUSH1 0xA0 SHL SUB AND MUL OR SWAP1 SSTORE POP SWAP1 POP POP DUP2 PUSH1 0x80 ADD MLOAD PUSH1 0x1 PUSH1 0x0 DUP4 PUSH1 0x1 PUSH1 0x1 PUSH1 0xA0 SHL SUB AND PUSH1 0x1 PUSH1 0x1 PUSH1 0xA0 SHL SUB AND DUP2 MSTORE PUSH1 0x20 ADD SWAP1 DUP2 MSTORE PUSH1 0x20 ADD PUSH1 0x0 KECCAK256 PUSH1 0x0 DUP5 PUSH1 0x80 ADD MLOAD PUSH1 0x1 PUSH1 0x1 PUSH1 0xA0 SHL SUB AND PUSH1 0x1 PUSH1 0x1 PUSH1 0xA0 SHL SUB AND DUP2 MSTORE PUSH1 0x20 ADD SWAP1 DUP2 MSTORE PUSH1 0x20 ADD PUSH1 0x0 KECCAK256 PUSH1 0x0 PUSH2 0x100 EXP DUP2 SLOAD DUP2 PUSH1 0x1 PUSH1 0x1 PUSH1 0xA0 SHL SUB MUL NOT AND SWAP1 DUP4 PUSH1 0x1 PUSH1 0x1 PUSH1 0xA0 SHL SUB AND MUL OR SWAP1 SSTORE POP POP POP JUMP JUMPDEST PUSH1 0x4 DUP1 SLOAD PUSH1 0x40 DUP1 MLOAD PUSH4 0xA43F929 PUSH1 0xE1 SHL DUP2 MSTORE SWAP1 MLOAD PUSH1 0x1 PUSH1 0x1 PUSH1 0xA0 SHL SUB SWAP1 SWAP3 AND SWAP3 PUSH4 0x1487F252 SWAP3 DUP3 DUP3 ADD SWAP3 PUSH1 0x20 SWAP3 SWAP1 DUP3 SWAP1 SUB ADD DUP2 DUP7 DUP1 EXTCODESIZE ISZERO DUP1 ISZERO PUSH2 0x13CC JUMPI PUSH1 0x0 DUP1 REVERT JUMPDEST POP GAS STATICCALL ISZERO DUP1 ISZERO PUSH2 0x13E0 JUMPI RETURNDATASIZE PUSH1 0x0 DUP1 RETURNDATACOPY RETURNDATASIZE PUSH1 0x0 REVERT JUMPDEST POP POP POP POP PUSH1 0x40 MLOAD RETURNDATASIZE PUSH1 0x1F NOT PUSH1 0x1F DUP3 ADD AND DUP3 ADD DUP1 PUSH1 0x40 MSTORE POP DUP2 ADD SWAP1 PUSH2 0x1404 SWAP2 SWAP1 PUSH2 0x1F29 JUMP JUMPDEST ISZERO ISZERO PUSH1 0x1 EQ PUSH2 0x1412 JUMPI PUSH1 0x0 DUP1 REVERT JUMPDEST PUSH1 0x1 PUSH1 0x1 PUSH1 0xA0 SHL SUB AND PUSH1 0x0 SWAP1 DUP2 MSTORE PUSH1 0x2 PUSH1 0x20 MSTORE PUSH1 0x40 SWAP1 KECCAK256 PUSH1 0x3 ADD DUP1 SLOAD PUSH32 0xFFFFFFFFFFFFFFFFFFFF00FFFFFFFFFFFFFFFFFFFFFFFFFFFFFFFFFFFFFFFFFF AND SWAP1 SSTORE JUMP JUMPDEST PUSH1 0x4 DUP1 SLOAD PUSH1 0x40 DUP1 MLOAD PUSH4 0xA43F929 PUSH1 0xE1 SHL DUP2 MSTORE SWAP1 MLOAD PUSH1 0x1 PUSH1 0x1 PUSH1 0xA0 SHL SUB SWAP1 SWAP3 AND SWAP3 PUSH4 0x1487F252 SWAP3 DUP3 DUP3 ADD SWAP3 PUSH1 0x20 SWAP3 SWAP1 DUP3 SWAP1 SUB ADD DUP2 DUP7 DUP1 EXTCODESIZE ISZERO DUP1 ISZERO PUSH2 0x1496 JUMPI PUSH1 0x0 DUP1 REVERT JUMPDEST POP GAS STATICCALL ISZERO DUP1 ISZERO PUSH2 0x14AA JUMPI RETURNDATASIZE PUSH1 0x0 DUP1 RETURNDATACOPY RETURNDATASIZE PUSH1 0x0 REVERT JUMPDEST POP POP POP POP PUSH1 0x40 MLOAD RETURNDATASIZE PUSH1 0x1F NOT PUSH1 0x1F DUP3 ADD AND DUP3 ADD DUP1 PUSH1 0x40 MSTORE POP DUP2 ADD SWAP1 PUSH2 0x14CE SWAP2 SWAP1 PUSH2 0x1F29 JUMP JUMPDEST ISZERO ISZERO PUSH1 0x1 EQ PUSH2 0x14DC JUMPI PUSH1 0x0 DUP1 REVERT JUMPDEST PUSH1 0x80 DUP2 ADD MLOAD PUSH1 0x1 PUSH1 0x1 PUSH1 0xA0 SHL SUB AND PUSH1 0x0 SWAP1 DUP2 MSTORE PUSH1 0x2 PUSH1 0x20 MSTORE PUSH1 0x40 SWAP1 KECCAK256 PUSH1 0x3 ADD SLOAD PUSH1 0x1 PUSH1 0xC0 SHL SWAP1 DIV PUSH1 0xFF AND ISZERO ISZERO PUSH1 0x1 EQ PUSH2 0x176E JUMPI CALLER DUP2 PUSH2 0x120 ADD SWAP1 PUSH1 0x1 PUSH1 0x1 PUSH1 0xA0 SHL SUB AND SWAP1 DUP2 PUSH1 0x1 PUSH1 0x1 PUSH1 0xA0 SHL SUB AND DUP2 MSTORE POP POP CALLER DUP2 PUSH2 0x140 ADD SWAP1 PUSH1 0x1 PUSH1 0x1 PUSH1 0xA0 SHL SUB AND SWAP1 DUP2 PUSH1 0x1 PUSH1 0x1 PUSH1 0xA0 SHL SUB AND DUP2 MSTORE POP POP PUSH1 0x0 DUP2 PUSH1 0xA0 ADD SWAP1 ISZERO ISZERO SWAP1 DUP2 ISZERO ISZERO DUP2 MSTORE POP POP PUSH1 0x0 DUP2 PUSH1 0xC0 ADD SWAP1 ISZERO ISZERO SWAP1 DUP2 ISZERO ISZERO DUP2 MSTORE POP POP PUSH1 0x1 DUP2 PUSH2 0x100 ADD SWAP1 ISZERO ISZERO SWAP1 DUP2 ISZERO ISZERO DUP2 MSTORE POP POP DUP1 PUSH1 0x2 PUSH1 0x0 DUP4 PUSH1 0x80 ADD MLOAD PUSH1 0x1 PUSH1 0x1 PUSH1 0xA0 SHL SUB AND PUSH1 0x1 PUSH1 0x1 PUSH1 0xA0 SHL SUB AND DUP2 MSTORE PUSH1 0x20 ADD SWAP1 DUP2 MSTORE PUSH1 0x20 ADD PUSH1 0x0 KECCAK256 PUSH1 0x0 DUP3 ADD MLOAD DUP2 PUSH1 0x0 ADD SSTORE PUSH1 0x20 DUP3 ADD MLOAD DUP2 PUSH1 0x1 ADD PUSH1 0x0 PUSH2 0x100 EXP DUP2 SLOAD DUP2 PUSH1 0x1 PUSH1 0x1 PUSH1 0xA0 SHL SUB MUL NOT AND SWAP1 DUP4 PUSH1 0x1 PUSH1 0x1 PUSH1 0xA0 SHL SUB AND MUL OR SWAP1 SSTORE POP PUSH1 0x40 DUP3 ADD MLOAD DUP2 PUSH1 0x2 ADD SSTORE PUSH1 0x60 DUP3 ADD MLOAD DUP2 PUSH1 0x3 ADD PUSH1 0x0 PUSH2 0x100 EXP DUP2 SLOAD DUP2 PUSH1 0xFF MUL NOT AND SWAP1 DUP4 PUSH1 0xFF AND MUL OR SWAP1 SSTORE POP PUSH1 0x80 DUP3 ADD MLOAD DUP2 PUSH1 0x3 ADD PUSH1 0x1 PUSH2 0x100 EXP DUP2 SLOAD DUP2 PUSH1 0x1 PUSH1 0x1 PUSH1 0xA0 SHL SUB MUL NOT AND SWAP1 DUP4 PUSH1 0x1 PUSH1 0x1 PUSH1 0xA0 SHL SUB AND MUL OR SWAP1 SSTORE POP PUSH1 0xA0 DUP3 ADD MLOAD DUP2 PUSH1 0x3 ADD PUSH1 0x15 PUSH2 0x100 EXP DUP2 SLOAD DUP2 PUSH1 0xFF MUL NOT AND SWAP1 DUP4 ISZERO ISZERO MUL OR SWAP1 SSTORE POP PUSH1 0xC0 DUP3 ADD MLOAD DUP2 PUSH1 0x3 ADD PUSH1 0x16 PUSH2 0x100 EXP DUP2 SLOAD DUP2 PUSH1 0xFF MUL NOT AND SWAP1 DUP4 ISZERO ISZERO MUL OR SWAP1 SSTORE POP PUSH1 0xE0 DUP3 ADD MLOAD DUP2 PUSH1 0x3 ADD PUSH1 0x17 PUSH2 0x100 EXP DUP2 SLOAD DUP2 PUSH1 0xFF MUL NOT AND SWAP1 DUP4 ISZERO ISZERO MUL OR SWAP1 SSTORE POP PUSH2 0x100 DUP3 ADD MLOAD DUP2 PUSH1 0x3 ADD PUSH1 0x18 PUSH2 0x100 EXP DUP2 SLOAD DUP2 PUSH1 0xFF MUL NOT AND SWAP1 DUP4 ISZERO ISZERO MUL OR SWAP1 SSTORE POP PUSH2 0x120 DUP3 ADD MLOAD DUP2 PUSH1 0x4 ADD PUSH1 0x0 PUSH2 0x100 EXP DUP2 SLOAD DUP2 PUSH1 0x1 PUSH1 0x1 PUSH1 0xA0 SHL SUB MUL NOT AND SWAP1 DUP4 PUSH1 0x1 PUSH1 0x1 PUSH1 0xA0 SHL SUB AND MUL OR SWAP1 SSTORE POP PUSH2 0x140 DUP3 ADD MLOAD DUP2 PUSH1 0x5 ADD PUSH1 0x0 PUSH2 0x100 EXP DUP2 SLOAD DUP2 PUSH1 0x1 PUSH1 0x1 PUSH1 0xA0 SHL SUB MUL NOT AND SWAP1 DUP4 PUSH1 0x1 PUSH1 0x1 PUSH1 0xA0 SHL SUB AND MUL OR SWAP1 SSTORE POP SWAP1 POP POP DUP1 PUSH1 0x80 ADD MLOAD PUSH1 0x0 DUP1 DUP4 PUSH1 0x80 ADD MLOAD PUSH1 0x1 PUSH1 0x1 PUSH1 0xA0 SHL SUB AND PUSH1 0x1 PUSH1 0x1 PUSH1 0xA0 SHL SUB AND DUP2 MSTORE PUSH1 0x20 ADD SWAP1 DUP2 MSTORE PUSH1 0x20 ADD PUSH1 0x0 KECCAK256 PUSH1 0x0 PUSH2 0x100 EXP DUP2 SLOAD DUP2 PUSH1 0x1 PUSH1 0x1 PUSH1 0xA0 SHL SUB MUL NOT AND SWAP1 DUP4 PUSH1 0x1 PUSH1 0x1 PUSH1 0xA0 SHL SUB AND MUL OR SWAP1 SSTORE POP POP JUMP JUMPDEST PUSH1 0x80 DUP2 ADD MLOAD PUSH1 0x1 PUSH1 0x1 PUSH1 0xA0 SHL SUB SWAP1 DUP2 AND PUSH1 0x0 SWAP1 DUP2 MSTORE PUSH1 0x20 DUP2 SWAP1 MSTORE PUSH1 0x40 SWAP1 KECCAK256 SLOAD AND ISZERO PUSH2 0x17DB JUMPI PUSH1 0x40 MLOAD PUSH3 0x461BCD PUSH1 0xE5 SHL DUP2 MSTORE PUSH1 0x20 PUSH1 0x4 DUP3 ADD DUP2 SWAP1 MSTORE PUSH1 0x24 DUP3 ADD MSTORE PUSH32 0x746865207374676F6F64732065786973747320696E20746865206D61726B6574 PUSH1 0x44 DUP3 ADD MSTORE PUSH1 0x64 ADD PUSH2 0x557 JUMP JUMPDEST PUSH1 0x80 DUP2 ADD MLOAD PUSH1 0x1 PUSH1 0x1 PUSH1 0xA0 SHL SUB AND PUSH1 0x0 DUP2 DUP2 MSTORE PUSH1 0x20 DUP2 SWAP1 MSTORE PUSH1 0x40 SWAP1 KECCAK256 DUP1 SLOAD PUSH20 0xFFFFFFFFFFFFFFFFFFFFFFFFFFFFFFFFFFFFFFFF NOT AND SWAP1 SWAP2 OR SWAP1 SSTORE JUMPDEST POP JUMP JUMPDEST PUSH1 0x4 DUP1 SLOAD PUSH1 0x40 DUP1 MLOAD PUSH4 0xA43F929 PUSH1 0xE1 SHL DUP2 MSTORE SWAP1 MLOAD PUSH1 0x1 PUSH1 0x1 PUSH1 0xA0 SHL SUB SWAP1 SWAP3 AND SWAP3 PUSH4 0x1487F252 SWAP3 DUP3 DUP3 ADD SWAP3 PUSH1 0x20 SWAP3 SWAP1 DUP3 SWAP1 SUB ADD DUP2 DUP7 DUP1 EXTCODESIZE ISZERO DUP1 ISZERO PUSH2 0x185B JUMPI PUSH1 0x0 DUP1 REVERT JUMPDEST POP GAS STATICCALL ISZERO DUP1 ISZERO PUSH2 0x186F JUMPI RETURNDATASIZE PUSH1 0x0 DUP1 RETURNDATACOPY RETURNDATASIZE PUSH1 0x0 REVERT JUMPDEST POP POP POP POP PUSH1 0x40 MLOAD RETURNDATASIZE PUSH1 0x1F NOT PUSH1 0x1F DUP3 ADD AND DUP3 ADD DUP1 PUSH1 0x40 MSTORE POP DUP2 ADD SWAP1 PUSH2 0x1893 SWAP2 SWAP1 PUSH2 0x1F29 JUMP JUMPDEST ISZERO ISZERO PUSH1 0x1 EQ PUSH2 0x18A1 JUMPI PUSH1 0x0 DUP1 REVERT JUMPDEST PUSH1 0x1 PUSH1 0x1 PUSH1 0xA0 SHL SUB AND PUSH1 0x0 SWAP1 DUP2 MSTORE PUSH1 0x2 PUSH1 0x20 MSTORE PUSH1 0x40 SWAP1 KECCAK256 PUSH1 0x3 ADD DUP1 SLOAD PUSH32 0xFFFFFFFFFFFFFFFFFFFF00FFFFFFFFFFFFFFFFFFFFFFFFFFFFFFFFFFFFFFFFFF AND PUSH1 0x1 PUSH1 0xA8 SHL OR SWAP1 SSTORE JUMP JUMPDEST PUSH1 0x3 PUSH1 0x0 SWAP1 SLOAD SWAP1 PUSH2 0x100 EXP SWAP1 DIV PUSH1 0x1 PUSH1 0x1 PUSH1 0xA0 SHL SUB AND PUSH1 0x1 PUSH1 0x1 PUSH1 0xA0 SHL SUB AND PUSH4 0xAB3ACB5C PUSH1 0x40 MLOAD DUP2 PUSH4 0xFFFFFFFF AND PUSH1 0xE0 SHL DUP2 MSTORE PUSH1 0x4 ADD PUSH1 0x20 PUSH1 0x40 MLOAD DUP1 DUP4 SUB DUP2 DUP7 DUP1 EXTCODESIZE ISZERO DUP1 ISZERO PUSH2 0x1937 JUMPI PUSH1 0x0 DUP1 REVERT JUMPDEST POP GAS STATICCALL ISZERO DUP1 ISZERO PUSH2 0x194B JUMPI RETURNDATASIZE PUSH1 0x0 DUP1 RETURNDATACOPY RETURNDATASIZE PUSH1 0x0 REVERT JUMPDEST POP POP POP POP PUSH1 0x40 MLOAD RETURNDATASIZE PUSH1 0x1F NOT PUSH1 0x1F DUP3 ADD AND DUP3 ADD DUP1 PUSH1 0x40 MSTORE POP DUP2 ADD SWAP1 PUSH2 0x196F SWAP2 SWAP1 PUSH2 0x1F29 JUMP JUMPDEST PUSH2 0x1978 JUMPI PUSH1 0x0 DUP1 REVERT JUMPDEST PUSH1 0x1 PUSH1 0x1 PUSH1 0xA0 SHL SUB DUP2 DUP2 AND PUSH1 0x0 SWAP1 DUP2 MSTORE PUSH1 0x2 PUSH1 0x20 MSTORE PUSH1 0x40 SWAP1 KECCAK256 PUSH1 0x4 ADD SLOAD AND CALLER EQ PUSH2 0x19E4 JUMPI PUSH1 0x40 MLOAD PUSH3 0x461BCD PUSH1 0xE5 SHL DUP2 MSTORE PUSH1 0x20 PUSH1 0x4 DUP3 ADD MSTORE PUSH1 0x16 PUSH1 0x24 DUP3 ADD MSTORE PUSH32 0x796F752068617665206E6F742074686520726967687400000000000000000000 PUSH1 0x44 DUP3 ADD MSTORE PUSH1 0x64 ADD PUSH2 0x557 JUMP JUMPDEST PUSH1 0x1 PUSH1 0x1 PUSH1 0xA0 SHL SUB AND PUSH1 0x0 SWAP1 DUP2 MSTORE PUSH1 0x2 PUSH1 0x20 MSTORE PUSH1 0x40 SWAP1 KECCAK256 PUSH1 0x3 ADD DUP1 SLOAD PUSH1 0xFF PUSH1 0xB0 SHL NOT AND PUSH1 0x1 PUSH1 0xB0 SHL OR SWAP1 SSTORE JUMP JUMPDEST PUSH1 0x4 DUP1 SLOAD PUSH1 0x40 DUP1 MLOAD PUSH4 0xA43F929 PUSH1 0xE1 SHL DUP2 MSTORE SWAP1 MLOAD PUSH1 0x1 PUSH1 0x1 PUSH1 0xA0 SHL SUB SWAP1 SWAP3 AND SWAP3 PUSH4 0x1487F252 SWAP3 DUP3 DUP3 ADD SWAP3 PUSH1 0x20 SWAP3 SWAP1 DUP3 SWAP1 SUB ADD DUP2 DUP7 DUP1 EXTCODESIZE ISZERO DUP1 ISZERO PUSH2 0x1A53 JUMPI PUSH1 0x0 DUP1 REVERT JUMPDEST POP GAS STATICCALL ISZERO DUP1 ISZERO PUSH2 0x1A67 JUMPI RETURNDATASIZE PUSH1 0x0 DUP1 RETURNDATACOPY RETURNDATASIZE PUSH1 0x0 REVERT JUMPDEST POP POP POP POP PUSH1 0x40 MLOAD RETURNDATASIZE PUSH1 0x1F NOT PUSH1 0x1F DUP3 ADD AND DUP3 ADD DUP1 PUSH1 0x40 MSTORE POP DUP2 ADD SWAP1 PUSH2 0x1A8B SWAP2 SWAP1 PUSH2 0x1F29 JUMP JUMPDEST ISZERO ISZERO PUSH1 0x1 EQ PUSH2 0x1A99 JUMPI PUSH1 0x0 DUP1 REVERT JUMPDEST PUSH1 0x80 DUP2 ADD MLOAD PUSH1 0x1 PUSH1 0x1 PUSH1 0xA0 SHL SUB SWAP1 DUP2 AND PUSH1 0x0 SWAP1 DUP2 MSTORE PUSH1 0x20 DUP2 SWAP1 MSTORE PUSH1 0x40 SWAP1 KECCAK256 SLOAD AND PUSH2 0x1AC2 JUMPI PUSH1 0x0 DUP1 REVERT JUMPDEST PUSH1 0x0 PUSH1 0xA0 DUP3 ADD DUP2 DUP2 MSTORE PUSH1 0xC0 DUP4 ADD DUP3 DUP2 MSTORE PUSH1 0x1 PUSH2 0x100 DUP1 DUP7 ADD DUP3 DUP2 MSTORE PUSH1 0x80 DUP8 ADD DUP1 MLOAD PUSH1 0x1 PUSH1 0x1 PUSH1 0xA0 SHL SUB SWAP1 DUP2 AND DUP9 MSTORE PUSH1 0x2 PUSH1 0x20 DUP2 DUP2 MSTORE PUSH1 0x40 DUP1 DUP12 KECCAK256 PUSH1 0x5 SWAP1 DUP2 ADD SLOAD DUP6 AND PUSH2 0x140 DUP15 ADD SWAP1 DUP2 MSTORE DUP7 MLOAD DUP7 AND DUP14 MSTORE DUP5 DUP5 MSTORE SWAP12 DUP3 SWAP1 KECCAK256 DUP14 MLOAD DUP2 SSTORE SWAP3 DUP14 ADD MLOAD SWAP9 DUP4 ADD DUP1 SLOAD SWAP10 DUP7 AND PUSH20 0xFFFFFFFFFFFFFFFFFFFFFFFFFFFFFFFFFFFFFFFF NOT SWAP11 DUP12 AND OR SWAP1 SSTORE SWAP1 DUP13 ADD MLOAD SWAP3 DUP3 ADD SWAP3 SWAP1 SWAP3 SSTORE PUSH1 0x60 DUP12 ADD MLOAD PUSH1 0x3 DUP3 ADD DUP1 SLOAD SWAP6 MLOAD SWAP11 MLOAD SWAP10 MLOAD PUSH1 0xE0 DUP15 ADD MLOAD SWAP8 MLOAD ISZERO ISZERO PUSH1 0x1 PUSH1 0xC0 SHL MUL PUSH32 0xFFFFFFFFFFFFFF00FFFFFFFFFFFFFFFFFFFFFFFFFFFFFFFFFFFFFFFFFFFFFFFF SWAP9 ISZERO ISZERO PUSH1 0x1 PUSH1 0xB8 SHL MUL SWAP9 SWAP1 SWAP9 AND PUSH32 0xFFFFFFFFFFFFFF0000FFFFFFFFFFFFFFFFFFFFFFFFFFFFFFFFFFFFFFFFFFFFFF SWAP2 ISZERO ISZERO PUSH1 0x1 PUSH1 0xB0 SHL MUL PUSH1 0xFF PUSH1 0xB0 SHL NOT SWAP13 ISZERO ISZERO PUSH1 0x1 PUSH1 0xA8 SHL MUL SWAP13 SWAP1 SWAP13 AND PUSH32 0xFFFFFFFFFFFFFFFFFF0000FFFFFFFFFFFFFFFFFFFFFFFFFFFFFFFFFFFFFFFFFF SWAP14 DUP9 AND SWAP1 SWAP11 MUL PUSH32 0xFFFFFFFFFFFFFFFFFFFFFF000000000000000000000000000000000000000000 SWAP1 SWAP9 AND PUSH1 0xFF SWAP1 SWAP5 AND SWAP4 SWAP1 SWAP4 OR SWAP7 SWAP1 SWAP7 OR SWAP11 SWAP1 SWAP11 AND SWAP7 SWAP1 SWAP7 OR SWAP8 SWAP1 SWAP8 OR SWAP3 SWAP1 SWAP3 AND SWAP4 SWAP1 SWAP4 OR SWAP2 SWAP1 SWAP2 OR SWAP1 SWAP5 SSTORE PUSH2 0x120 SWAP1 SWAP6 ADD MLOAD PUSH1 0x4 DUP4 ADD DUP1 SLOAD SWAP2 DUP8 AND SWAP2 DUP4 AND SWAP2 SWAP1 SWAP2 OR SWAP1 SSTORE SWAP3 MLOAD SWAP2 ADD DUP1 SLOAD SWAP2 SWAP1 SWAP4 AND SWAP2 AND OR SWAP1 SSTORE JUMP JUMPDEST PUSH1 0x4 DUP1 SLOAD PUSH1 0x40 DUP1 MLOAD PUSH4 0xA43F929 PUSH1 0xE1 SHL DUP2 MSTORE SWAP1 MLOAD PUSH1 0x1 PUSH1 0x1 PUSH1 0xA0 SHL SUB SWAP1 SWAP3 AND SWAP3 PUSH4 0x1487F252 SWAP3 DUP3 DUP3 ADD SWAP3 PUSH1 0x20 SWAP3 SWAP1 DUP3 SWAP1 SUB ADD DUP2 DUP7 DUP1 EXTCODESIZE ISZERO DUP1 ISZERO PUSH2 0x1CBA JUMPI PUSH1 0x0 DUP1 REVERT JUMPDEST POP GAS STATICCALL ISZERO DUP1 ISZERO PUSH2 0x1CCE JUMPI RETURNDATASIZE PUSH1 0x0 DUP1 RETURNDATACOPY RETURNDATASIZE PUSH1 0x0 REVERT JUMPDEST POP POP POP POP PUSH1 0x40 MLOAD RETURNDATASIZE PUSH1 0x1F NOT PUSH1 0x1F DUP3 ADD AND DUP3 ADD DUP1 PUSH1 0x40 MSTORE POP DUP2 ADD SWAP1 PUSH2 0x1CF2 SWAP2 SWAP1 PUSH2 0x1F29 JUMP JUMPDEST ISZERO ISZERO PUSH1 0x1 EQ PUSH2 0x1D00 JUMPI PUSH1 0x0 DUP1 REVERT JUMPDEST PUSH1 0x80 DUP2 ADD MLOAD PUSH1 0x1 PUSH1 0x1 PUSH1 0xA0 SHL SUB SWAP1 DUP2 AND PUSH1 0x0 SWAP1 DUP2 MSTORE PUSH1 0x20 DUP2 SWAP1 MSTORE PUSH1 0x40 SWAP1 KECCAK256 SLOAD AND ISZERO PUSH2 0x1D6D JUMPI PUSH1 0x40 MLOAD PUSH3 0x461BCD PUSH1 0xE5 SHL DUP2 MSTORE PUSH1 0x20 PUSH1 0x4 DUP3 ADD MSTORE PUSH1 0x1A PUSH1 0x24 DUP3 ADD MSTORE PUSH32 0x7468652053545468696E6773206973206E6F7420657869737473000000000000 PUSH1 0x44 DUP3 ADD MSTORE PUSH1 0x64 ADD PUSH2 0x557 JUMP JUMPDEST PUSH1 0x80 ADD MLOAD PUSH1 0x1 PUSH1 0x1 PUSH1 0xA0 SHL SUB AND PUSH1 0x0 SWAP1 DUP2 MSTORE PUSH1 0x20 DUP2 SWAP1 MSTORE PUSH1 0x40 SWAP1 KECCAK256 DUP1 SLOAD PUSH20 0xFFFFFFFFFFFFFFFFFFFFFFFFFFFFFFFFFFFFFFFF NOT AND SWAP1 SSTORE JUMP JUMPDEST DUP1 CALLDATALOAD PUSH1 0x1 PUSH1 0x1 PUSH1 0xA0 SHL SUB DUP2 AND DUP2 EQ PUSH2 0x1DBC JUMPI PUSH1 0x0 DUP1 REVERT JUMPDEST SWAP2 SWAP1 POP JUMP JUMPDEST DUP1 CALLDATALOAD PUSH2 0x1DBC DUP2 PUSH2 0x20B5 JUMP JUMPDEST PUSH1 0x0 PUSH2 0x160 DUP3 DUP5 SUB SLT ISZERO PUSH2 0x1DDF JUMPI PUSH1 0x0 DUP1 REVERT JUMPDEST PUSH2 0x1DE7 PUSH2 0x2064 JUMP JUMPDEST SWAP1 POP DUP2 CALLDATALOAD DUP2 MSTORE PUSH2 0x1DF9 PUSH1 0x20 DUP4 ADD PUSH2 0x1DA5 JUMP JUMPDEST PUSH1 0x20 DUP3 ADD MSTORE PUSH1 0x40 DUP3 ADD CALLDATALOAD PUSH1 0x40 DUP3 ADD MSTORE PUSH2 0x1E14 PUSH1 0x60 DUP4 ADD PUSH2 0x1E99 JUMP JUMPDEST PUSH1 0x60 DUP3 ADD MSTORE PUSH2 0x1E25 PUSH1 0x80 DUP4 ADD PUSH2 0x1DA5 JUMP JUMPDEST PUSH1 0x80 DUP3 ADD MSTORE PUSH2 0x1E36 PUSH1 0xA0 DUP4 ADD PUSH2 0x1DC1 JUMP JUMPDEST PUSH1 0xA0 DUP3 ADD MSTORE PUSH2 0x1E47 PUSH1 0xC0 DUP4 ADD PUSH2 0x1DC1 JUMP JUMPDEST PUSH1 0xC0 DUP3 ADD MSTORE PUSH2 0x1E58 PUSH1 0xE0 DUP4 ADD PUSH2 0x1DC1 JUMP JUMPDEST PUSH1 0xE0 DUP3 ADD MSTORE PUSH2 0x100 PUSH2 0x1E6B DUP2 DUP5 ADD PUSH2 0x1DC1 JUMP JUMPDEST SWAP1 DUP3 ADD MSTORE PUSH2 0x120 PUSH2 0x1E7D DUP4 DUP3 ADD PUSH2 0x1DA5 JUMP JUMPDEST SWAP1 DUP3 ADD MSTORE PUSH2 0x140 PUSH2 0x1E8F DUP4 DUP3 ADD PUSH2 0x1DA5 JUMP JUMPDEST SWAP1 DUP3 ADD MSTORE SWAP3 SWAP2 POP POP JUMP JUMPDEST DUP1 CALLDATALOAD PUSH1 0xFF DUP2 AND DUP2 EQ PUSH2 0x1DBC JUMPI PUSH1 0x0 DUP1 REVERT JUMPDEST PUSH1 0x0 PUSH1 0x20 DUP3 DUP5 SUB SLT ISZERO PUSH2 0x1EBC JUMPI PUSH1 0x0 DUP1 REVERT JUMPDEST PUSH2 0x1EC5 DUP3 PUSH2 0x1DA5 JUMP JUMPDEST SWAP4 SWAP3 POP POP POP JUMP JUMPDEST PUSH1 0x0 DUP1 PUSH1 0x40 DUP4 DUP6 SUB SLT ISZERO PUSH2 0x1EDF JUMPI PUSH1 0x0 DUP1 REVERT JUMPDEST PUSH2 0x1EE8 DUP4 PUSH2 0x1DA5 JUMP JUMPDEST SWAP2 POP PUSH2 0x1EF6 PUSH1 0x20 DUP5 ADD PUSH2 0x1DA5 JUMP JUMPDEST SWAP1 POP SWAP3 POP SWAP3 SWAP1 POP JUMP JUMPDEST PUSH1 0x0 DUP1 PUSH1 0x40 DUP4 DUP6 SUB SLT ISZERO PUSH2 0x1F12 JUMPI PUSH1 0x0 DUP1 REVERT JUMPDEST PUSH2 0x1F1B DUP4 PUSH2 0x1DA5 JUMP JUMPDEST SWAP2 POP PUSH2 0x1EF6 PUSH1 0x20 DUP5 ADD PUSH2 0x1E99 JUMP JUMPDEST PUSH1 0x0 PUSH1 0x20 DUP3 DUP5 SUB SLT ISZERO PUSH2 0x1F3B JUMPI PUSH1 0x0 DUP1 REVERT JUMPDEST DUP2 MLOAD PUSH2 0x1EC5 DUP2 PUSH2 0x20B5 JUMP JUMPDEST PUSH1 0x0 PUSH2 0x160 DUP3 DUP5 SUB SLT ISZERO PUSH2 0x1F59 JUMPI PUSH1 0x0 DUP1 REVERT JUMPDEST PUSH2 0x1EC5 DUP4 DUP4 PUSH2 0x1DCC JUMP JUMPDEST PUSH1 0x0 DUP1 PUSH2 0x180 DUP4 DUP6 SUB SLT ISZERO PUSH2 0x1F77 JUMPI PUSH1 0x0 DUP1 REVERT JUMPDEST PUSH2 0x1F81 DUP5 DUP5 PUSH2 0x1DCC JUMP JUMPDEST SWAP2 POP PUSH2 0x1EF6 PUSH2 0x160 DUP5 ADD PUSH2 0x1DA5 JUMP JUMPDEST DUP2 MLOAD DUP2 MSTORE PUSH1 0x20 DUP1 DUP4 ADD MLOAD PUSH2 0x160 DUP4 ADD SWAP2 PUSH2 0x1FB4 SWAP1 DUP5 ADD DUP3 PUSH1 0x1 PUSH1 0x1 PUSH1 0xA0 SHL SUB AND SWAP1 MSTORE JUMP JUMPDEST POP PUSH1 0x40 DUP4 ADD MLOAD PUSH1 0x40 DUP4 ADD MSTORE PUSH1 0x60 DUP4 ADD MLOAD PUSH2 0x1FD3 PUSH1 0x60 DUP5 ADD DUP3 PUSH1 0xFF AND SWAP1 MSTORE JUMP JUMPDEST POP PUSH1 0x80 DUP4 ADD MLOAD PUSH2 0x1FEE PUSH1 0x80 DUP5 ADD DUP3 PUSH1 0x1 PUSH1 0x1 PUSH1 0xA0 SHL SUB AND SWAP1 MSTORE JUMP JUMPDEST POP PUSH1 0xA0 DUP4 ADD MLOAD PUSH2 0x2002 PUSH1 0xA0 DUP5 ADD DUP3 ISZERO ISZERO SWAP1 MSTORE JUMP JUMPDEST POP PUSH1 0xC0 DUP4 ADD MLOAD PUSH2 0x2016 PUSH1 0xC0 DUP5 ADD DUP3 ISZERO ISZERO SWAP1 MSTORE JUMP JUMPDEST POP PUSH1 0xE0 DUP4 ADD MLOAD PUSH2 0x202A PUSH1 0xE0 DUP5 ADD DUP3 ISZERO ISZERO SWAP1 MSTORE JUMP JUMPDEST POP PUSH2 0x100 DUP4 DUP2 ADD MLOAD ISZERO ISZERO SWAP1 DUP4 ADD MSTORE PUSH2 0x120 DUP1 DUP5 ADD MLOAD PUSH1 0x1 PUSH1 0x1 PUSH1 0xA0 SHL SUB SWAP1 DUP2 AND SWAP2 DUP5 ADD SWAP2 SWAP1 SWAP2 MSTORE PUSH2 0x140 SWAP4 DUP5 ADD MLOAD AND SWAP3 SWAP1 SWAP2 ADD SWAP2 SWAP1 SWAP2 MSTORE SWAP1 JUMP JUMPDEST PUSH1 0x40 MLOAD PUSH2 0x160 DUP2 ADD PUSH8 0xFFFFFFFFFFFFFFFF DUP2 GT DUP3 DUP3 LT OR ISZERO PUSH2 0x20AF JUMPI PUSH32 0x4E487B7100000000000000000000000000000000000000000000000000000000 PUSH1 0x0 MSTORE PUSH1 0x41 PUSH1 0x4 MSTORE PUSH1 0x24 PUSH1 0x0 REVERT JUMPDEST PUSH1 0x40 MSTORE SWAP1 JUMP JUMPDEST DUP1 ISZERO ISZERO DUP2 EQ PUSH2 0x1816 JUMPI PUSH1 0x0 DUP1 REVERT INVALID LOG2 PUSH5 0x6970667358 0x22 SLT KECCAK256 PUSH1 0x7B SWAP9 0x2E 0xEA PUSH15 0xFEDD3C0DDAA469C5C95D723F379FF7 0xBA 0xCE MSTORE8 RETURNDATACOPY MSTORE8 0xD9 0xB7 0xE4 PUSH11 0xEE6464736F6C6343000807 STOP CALLER "
		},
		"gasEstimates": {
			"creation": {
				"codeDepositCost": "1688200",
				"executionCost": "infinite",
				"totalCost": "infinite"
			},
			"external": {
				"STThingsList(address)": "13559",
				"addGateSTThingsbyCreator((bytes32,address,bytes32,uint8,address,bool,bool,bool,bool,address,address),address)": "infinite",
				"addSTThingsbyMarketor((bytes32,address,bytes32,uint8,address,bool,bool,bool,bool,address,address))": "infinite",
				"changeSTThingsScopebyMarketor(address,uint8)": "infinite",
				"delGateSTThingsbyMarketor(address,address)": "infinite",
				"delSTThingsbyMarketor((bytes32,address,bytes32,uint8,address,bool,bool,bool,bool,address,address))": "infinite",
				"gateContractAddress()": "2405",
				"gateSTThingsList(address,address)": "infinite",
				"getSTThingsInfo(address)": "16573",
				"impoveGateSTThingsbyMarketor(address,address)": "infinite",
				"isValidThing(address)": "2617",
				"lockGateSTThingsbyCreater(address,address)": "infinite",
				"lockSTThingsbyGator(address)": "infinite",
				"lockSTThingsbyMarketor(address)": "infinite",
				"marketSTThingsList(address)": "2650",
				"marketorContractAddress()": "2405",
				"unlockGateSTThingsbyCreater(address,address)": "infinite",
				"unlockSTThingsbyGator(address)": "infinite",
				"unlockSTThingsbyMarketor(address)": "infinite",
				"updateGateSTThingsbyCreator((bytes32,address,bytes32,uint8,address,bool,bool,bool,bool,address,address),address)": "infinite",
				"updateSTThingsbyGator((bytes32,address,bytes32,uint8,address,bool,bool,bool,bool,address,address))": "infinite",
				"updateSTThingsbyMarketor((bytes32,address,bytes32,uint8,address,bool,bool,bool,bool,address,address))": "infinite"
			}
		},
		"methodIdentifiers": {
			"STThingsList(address)": "dd895f4b",
			"addGateSTThingsbyCreator((bytes32,address,bytes32,uint8,address,bool,bool,bool,bool,address,address),address)": "d2c5549c",
			"addSTThingsbyMarketor((bytes32,address,bytes32,uint8,address,bool,bool,bool,bool,address,address))": "b770f8d7",
			"changeSTThingsScopebyMarketor(address,uint8)": "7ac73247",
			"delGateSTThingsbyMarketor(address,address)": "38c3c6a9",
			"delSTThingsbyMarketor((bytes32,address,bytes32,uint8,address,bool,bool,bool,bool,address,address))": "ffd499b0",
			"gateContractAddress()": "2f17d5df",
			"gateSTThingsList(address,address)": "69c55295",
			"getSTThingsInfo(address)": "05d2acb5",
			"impoveGateSTThingsbyMarketor(address,address)": "34c4b754",
			"isValidThing(address)": "cda5469a",
			"lockGateSTThingsbyCreater(address,address)": "07eabf0e",
			"lockSTThingsbyGator(address)": "9ed16583",
			"lockSTThingsbyMarketor(address)": "b642a7c2",
			"marketSTThingsList(address)": "9803ed36",
			"marketorContractAddress()": "492b7107",
			"unlockGateSTThingsbyCreater(address,address)": "885471d5",
			"unlockSTThingsbyGator(address)": "db0822a1",
			"unlockSTThingsbyMarketor(address)": "cbb6ec49",
			"updateGateSTThingsbyCreator((bytes32,address,bytes32,uint8,address,bool,bool,bool,bool,address,address),address)": "a9f48a8d",
			"updateSTThingsbyGator((bytes32,address,bytes32,uint8,address,bool,bool,bool,bool,address,address))": "1536e750",
			"updateSTThingsbyMarketor((bytes32,address,bytes32,uint8,address,bool,bool,bool,bool,address,address))": "e4cb1412"
		}
	},
	"abi": [
		{
			"inputs": [
				{
					"internalType": "address",
					"name": "_gateContractAddress",
					"type": "address"
				},
				{
					"internalType": "address",
					"name": "_marketorContractAddress",
					"type": "address"
				}
			],
			"stateMutability": "nonpayable",
			"type": "constructor"
		},
		{
			"inputs": [
				{
					"internalType": "address",
					"name": "",
					"type": "address"
				}
			],
			"name": "STThingsList",
			"outputs": [
				{
					"internalType": "bytes32",
					"name": "name",
					"type": "bytes32"
				},
				{
					"internalType": "address",
					"name": "ownerAddress",
					"type": "address"
				},
				{
					"internalType": "bytes32",
					"name": "LSTThingsFullName",
					"type": "bytes32"
				},
				{
					"internalType": "uint8",
					"name": "scope",
					"type": "uint8"
				},
				{
					"internalType": "address",
					"name": "contractAddress",
					"type": "address"
				},
				{
					"internalType": "bool",
					"name": "marketunlock",
					"type": "bool"
				},
				{
					"internalType": "bool",
					"name": "unlock",
					"type": "bool"
				},
				{
					"internalType": "bool",
					"name": "createrunlock",
					"type": "bool"
				},
				{
					"internalType": "bool",
					"name": "isUsed",
					"type": "bool"
				},
				{
					"internalType": "address",
					"name": "addfromgater",
					"type": "address"
				},
				{
					"internalType": "address",
					"name": "creator",
					"type": "address"
				}
			],
			"stateMutability": "view",
			"type": "function"
		},
		{
			"inputs": [
				{
					"components": [
						{
							"internalType": "bytes32",
							"name": "name",
							"type": "bytes32"
						},
						{
							"internalType": "address",
							"name": "ownerAddress",
							"type": "address"
						},
						{
							"internalType": "bytes32",
							"name": "LSTThingsFullName",
							"type": "bytes32"
						},
						{
							"internalType": "uint8",
							"name": "scope",
							"type": "uint8"
						},
						{
							"internalType": "address",
							"name": "contractAddress",
							"type": "address"
						},
						{
							"internalType": "bool",
							"name": "marketunlock",
							"type": "bool"
						},
						{
							"internalType": "bool",
							"name": "unlock",
							"type": "bool"
						},
						{
							"internalType": "bool",
							"name": "createrunlock",
							"type": "bool"
						},
						{
							"internalType": "bool",
							"name": "isUsed",
							"type": "bool"
						},
						{
							"internalType": "address",
							"name": "addfromgater",
							"type": "address"
						},
						{
							"internalType": "address",
							"name": "creator",
							"type": "address"
						}
					],
					"internalType": "struct LSTThings.Info",
					"name": "_STThingsInfo",
					"type": "tuple"
				},
				{
					"internalType": "address",
					"name": "_gateaddress",
					"type": "address"
				}
			],
			"name": "addGateSTThingsbyCreator",
			"outputs": [],
			"stateMutability": "nonpayable",
			"type": "function"
		},
		{
			"inputs": [
				{
					"components": [
						{
							"internalType": "bytes32",
							"name": "name",
							"type": "bytes32"
						},
						{
							"internalType": "address",
							"name": "ownerAddress",
							"type": "address"
						},
						{
							"internalType": "bytes32",
							"name": "LSTThingsFullName",
							"type": "bytes32"
						},
						{
							"internalType": "uint8",
							"name": "scope",
							"type": "uint8"
						},
						{
							"internalType": "address",
							"name": "contractAddress",
							"type": "address"
						},
						{
							"internalType": "bool",
							"name": "marketunlock",
							"type": "bool"
						},
						{
							"internalType": "bool",
							"name": "unlock",
							"type": "bool"
						},
						{
							"internalType": "bool",
							"name": "createrunlock",
							"type": "bool"
						},
						{
							"internalType": "bool",
							"name": "isUsed",
							"type": "bool"
						},
						{
							"internalType": "address",
							"name": "addfromgater",
							"type": "address"
						},
						{
							"internalType": "address",
							"name": "creator",
							"type": "address"
						}
					],
					"internalType": "struct LSTThings.Info",
					"name": "_STThingsInfo",
					"type": "tuple"
				}
			],
			"name": "addSTThingsbyMarketor",
			"outputs": [],
			"stateMutability": "nonpayable",
			"type": "function"
		},
		{
			"inputs": [
				{
					"internalType": "address",
					"name": "_internalSTThingsAddress",
					"type": "address"
				},
				{
					"internalType": "uint8",
					"name": "_scope",
					"type": "uint8"
				}
			],
			"name": "changeSTThingsScopebyMarketor",
			"outputs": [],
			"stateMutability": "nonpayable",
			"type": "function"
		},
		{
			"inputs": [
				{
					"internalType": "address",
					"name": "_contractaddress",
					"type": "address"
				},
				{
					"internalType": "address",
					"name": "_gateaddress",
					"type": "address"
				}
			],
			"name": "delGateSTThingsbyMarketor",
			"outputs": [],
			"stateMutability": "nonpayable",
			"type": "function"
		},
		{
			"inputs": [
				{
					"components": [
						{
							"internalType": "bytes32",
							"name": "name",
							"type": "bytes32"
						},
						{
							"internalType": "address",
							"name": "ownerAddress",
							"type": "address"
						},
						{
							"internalType": "bytes32",
							"name": "LSTThingsFullName",
							"type": "bytes32"
						},
						{
							"internalType": "uint8",
							"name": "scope",
							"type": "uint8"
						},
						{
							"internalType": "address",
							"name": "contractAddress",
							"type": "address"
						},
						{
							"internalType": "bool",
							"name": "marketunlock",
							"type": "bool"
						},
						{
							"internalType": "bool",
							"name": "unlock",
							"type": "bool"
						},
						{
							"internalType": "bool",
							"name": "createrunlock",
							"type": "bool"
						},
						{
							"internalType": "bool",
							"name": "isUsed",
							"type": "bool"
						},
						{
							"internalType": "address",
							"name": "addfromgater",
							"type": "address"
						},
						{
							"internalType": "address",
							"name": "creator",
							"type": "address"
						}
					],
					"internalType": "struct LSTThings.Info",
					"name": "_STThingsInfo",
					"type": "tuple"
				}
			],
			"name": "delSTThingsbyMarketor",
			"outputs": [],
			"stateMutability": "nonpayable",
			"type": "function"
		},
		{
			"inputs": [],
			"name": "gateContractAddress",
			"outputs": [
				{
					"internalType": "address",
					"name": "",
					"type": "address"
				}
			],
			"stateMutability": "view",
			"type": "function"
		},
		{
			"inputs": [
				{
					"internalType": "address",
					"name": "",
					"type": "address"
				},
				{
					"internalType": "address",
					"name": "",
					"type": "address"
				}
			],
			"name": "gateSTThingsList",
			"outputs": [
				{
					"internalType": "address",
					"name": "",
					"type": "address"
				}
			],
			"stateMutability": "view",
			"type": "function"
		},
		{
			"inputs": [
				{
					"internalType": "address",
					"name": "_contractaddress",
					"type": "address"
				}
			],
			"name": "getSTThingsInfo",
			"outputs": [
				{
					"components": [
						{
							"internalType": "bytes32",
							"name": "name",
							"type": "bytes32"
						},
						{
							"internalType": "address",
							"name": "ownerAddress",
							"type": "address"
						},
						{
							"internalType": "bytes32",
							"name": "LSTThingsFullName",
							"type": "bytes32"
						},
						{
							"internalType": "uint8",
							"name": "scope",
							"type": "uint8"
						},
						{
							"internalType": "address",
							"name": "contractAddress",
							"type": "address"
						},
						{
							"internalType": "bool",
							"name": "marketunlock",
							"type": "bool"
						},
						{
							"internalType": "bool",
							"name": "unlock",
							"type": "bool"
						},
						{
							"internalType": "bool",
							"name": "createrunlock",
							"type": "bool"
						},
						{
							"internalType": "bool",
							"name": "isUsed",
							"type": "bool"
						},
						{
							"internalType": "address",
							"name": "addfromgater",
							"type": "address"
						},
						{
							"internalType": "address",
							"name": "creator",
							"type": "address"
						}
					],
					"internalType": "struct LSTThings.Info",
					"name": "",
					"type": "tuple"
				}
			],
			"stateMutability": "view",
			"type": "function"
		},
		{
			"inputs": [
				{
					"internalType": "address",
					"name": "_contractaddress",
					"type": "address"
				},
				{
					"internalType": "address",
					"name": "_gateaddress",
					"type": "address"
				}
			],
			"name": "impoveGateSTThingsbyMarketor",
			"outputs": [],
			"stateMutability": "nonpayable",
			"type": "function"
		},
		{
			"inputs": [
				{
					"internalType": "address",
					"name": "_thing",
					"type": "address"
				}
			],
			"name": "isValidThing",
			"outputs": [
				{
					"internalType": "bool",
					"name": "",
					"type": "bool"
				}
			],
			"stateMutability": "view",
			"type": "function"
		},
		{
			"inputs": [
				{
					"internalType": "address",
					"name": "_internalSTThingsAddress",
					"type": "address"
				},
				{
					"internalType": "address",
					"name": "_gateaddress",
					"type": "address"
				}
			],
			"name": "lockGateSTThingsbyCreater",
			"outputs": [],
			"stateMutability": "nonpayable",
			"type": "function"
		},
		{
			"inputs": [
				{
					"internalType": "address",
					"name": "_internalSTThingsAddress",
					"type": "address"
				}
			],
			"name": "lockSTThingsbyGator",
			"outputs": [],
			"stateMutability": "nonpayable",
			"type": "function"
		},
		{
			"inputs": [
				{
					"internalType": "address",
					"name": "_internalSTThingsAddress",
					"type": "address"
				}
			],
			"name": "lockSTThingsbyMarketor",
			"outputs": [],
			"stateMutability": "nonpayable",
			"type": "function"
		},
		{
			"inputs": [
				{
					"internalType": "address",
					"name": "",
					"type": "address"
				}
			],
			"name": "marketSTThingsList",
			"outputs": [
				{
					"internalType": "address",
					"name": "",
					"type": "address"
				}
			],
			"stateMutability": "view",
			"type": "function"
		},
		{
			"inputs": [],
			"name": "marketorContractAddress",
			"outputs": [
				{
					"internalType": "address",
					"name": "",
					"type": "address"
				}
			],
			"stateMutability": "view",
			"type": "function"
		},
		{
			"inputs": [
				{
					"internalType": "address",
					"name": "_internalSTThingsAddress",
					"type": "address"
				},
				{
					"internalType": "address",
					"name": "_gateaddress",
					"type": "address"
				}
			],
			"name": "unlockGateSTThingsbyCreater",
			"outputs": [],
			"stateMutability": "nonpayable",
			"type": "function"
		},
		{
			"inputs": [
				{
					"internalType": "address",
					"name": "_internalSTThingsAddress",
					"type": "address"
				}
			],
			"name": "unlockSTThingsbyGator",
			"outputs": [],
			"stateMutability": "nonpayable",
			"type": "function"
		},
		{
			"inputs": [
				{
					"internalType": "address",
					"name": "_internalSTThingsAddress",
					"type": "address"
				}
			],
			"name": "unlockSTThingsbyMarketor",
			"outputs": [],
			"stateMutability": "nonpayable",
			"type": "function"
		},
		{
			"inputs": [
				{
					"components": [
						{
							"internalType": "bytes32",
							"name": "name",
							"type": "bytes32"
						},
						{
							"internalType": "address",
							"name": "ownerAddress",
							"type": "address"
						},
						{
							"internalType": "bytes32",
							"name": "LSTThingsFullName",
							"type": "bytes32"
						},
						{
							"internalType": "uint8",
							"name": "scope",
							"type": "uint8"
						},
						{
							"internalType": "address",
							"name": "contractAddress",
							"type": "address"
						},
						{
							"internalType": "bool",
							"name": "marketunlock",
							"type": "bool"
						},
						{
							"internalType": "bool",
							"name": "unlock",
							"type": "bool"
						},
						{
							"internalType": "bool",
							"name": "createrunlock",
							"type": "bool"
						},
						{
							"internalType": "bool",
							"name": "isUsed",
							"type": "bool"
						},
						{
							"internalType": "address",
							"name": "addfromgater",
							"type": "address"
						},
						{
							"internalType": "address",
							"name": "creator",
							"type": "address"
						}
					],
					"internalType": "struct LSTThings.Info",
					"name": "_STThingsInfo",
					"type": "tuple"
				},
				{
					"internalType": "address",
					"name": "_gateaddress",
					"type": "address"
				}
			],
			"name": "updateGateSTThingsbyCreator",
			"outputs": [],
			"stateMutability": "nonpayable",
			"type": "function"
		},
		{
			"inputs": [
				{
					"components": [
						{
							"internalType": "bytes32",
							"name": "name",
							"type": "bytes32"
						},
						{
							"internalType": "address",
							"name": "ownerAddress",
							"type": "address"
						},
						{
							"internalType": "bytes32",
							"name": "LSTThingsFullName",
							"type": "bytes32"
						},
						{
							"internalType": "uint8",
							"name": "scope",
							"type": "uint8"
						},
						{
							"internalType": "address",
							"name": "contractAddress",
							"type": "address"
						},
						{
							"internalType": "bool",
							"name": "marketunlock",
							"type": "bool"
						},
						{
							"internalType": "bool",
							"name": "unlock",
							"type": "bool"
						},
						{
							"internalType": "bool",
							"name": "createrunlock",
							"type": "bool"
						},
						{
							"internalType": "bool",
							"name": "isUsed",
							"type": "bool"
						},
						{
							"internalType": "address",
							"name": "addfromgater",
							"type": "address"
						},
						{
							"internalType": "address",
							"name": "creator",
							"type": "address"
						}
					],
					"internalType": "struct LSTThings.Info",
					"name": "_STThingsInfo",
					"type": "tuple"
				}
			],
			"name": "updateSTThingsbyGator",
			"outputs": [],
			"stateMutability": "nonpayable",
			"type": "function"
		},
		{
			"inputs": [
				{
					"components": [
						{
							"internalType": "bytes32",
							"name": "name",
							"type": "bytes32"
						},
						{
							"internalType": "address",
							"name": "ownerAddress",
							"type": "address"
						},
						{
							"internalType": "bytes32",
							"name": "LSTThingsFullName",
							"type": "bytes32"
						},
						{
							"internalType": "uint8",
							"name": "scope",
							"type": "uint8"
						},
						{
							"internalType": "address",
							"name": "contractAddress",
							"type": "address"
						},
						{
							"internalType": "bool",
							"name": "marketunlock",
							"type": "bool"
						},
						{
							"internalType": "bool",
							"name": "unlock",
							"type": "bool"
						},
						{
							"internalType": "bool",
							"name": "createrunlock",
							"type": "bool"
						},
						{
							"internalType": "bool",
							"name": "isUsed",
							"type": "bool"
						},
						{
							"internalType": "address",
							"name": "addfromgater",
							"type": "address"
						},
						{
							"internalType": "address",
							"name": "creator",
							"type": "address"
						}
					],
					"internalType": "struct LSTThings.Info",
					"name": "_STThingsInfo",
					"type": "tuple"
				}
			],
			"name": "updateSTThingsbyMarketor",
			"outputs": [],
			"stateMutability": "nonpayable",
			"type": "function"
		}
	]
}