{
	"data": {
		"bytecode": {
			"linkReferences": {},
			"object": "60806040523480156200001157600080fd5b50604051620020b2380380620020b2833981016040819052620000349162000083565b600380546001600160a01b039384166001600160a01b03199182161790915560048054929093169116179055620000bb565b80516001600160a01b03811681146200007e57600080fd5b919050565b600080604083850312156200009757600080fd5b620000a28362000066565b9150620000b26020840162000066565b90509250929050565b611fe780620000cb6000396000f3fe608060405234801561001057600080fd5b50600436106101515760003560e01c80635385cbf5116100cd578063cc0bf75711610081578063e8dd465511610066578063e8dd4655146103ad578063e911abec146103cd578063eaec0112146103e057600080fd5b8063cc0bf75714610366578063cfcdca521461039a57600080fd5b806387a70938116100b257806387a709381461032d578063a935b6af14610340578063b20be2b41461035357600080fd5b80635385cbf5146103075780637c3e2f021461031a57600080fd5b8063328320bf116101245780633b830305116101095780633b830305146102b8578063441eb548146102e1578063492b7107146102f457600080fd5b8063328320bf14610266578063385e4b7a146102a557600080fd5b80631d3b8f671461015657806324fd71391461016b5780632f17d5df1461017e57806331ecdeb8146101ae575b600080fd5b610169610164366004611c1f565b6103f3565b005b610169610179366004611cbb565b61049d565b600354610191906001600160a01b031681565b6040516001600160a01b0390911681526020015b60405180910390f35b61024c6101bc366004611c1f565b6002602081905260009182526040909120805460018201549282015460038301546004840154600585015460068601546007870154600890970154959760d081901b9760ff6601000000000000830481169867010000000000000090930481169796956001600160a01b039081169594938083169261010082048116926201000083041691600160b01b9004168e565b6040516101a59e9d9c9b9a99989796959493929190611da1565b610295610274366004611c1f565b6001600160a01b031660009081526002602052604090206008015460ff1690565b60405190151581526020016101a5565b6101696102b3366004611c1f565b6106f2565b6101916102c6366004611c1f565b6000602081905290815260409020546001600160a01b031681565b6101696102ef366004611c1f565b610821565b600454610191906001600160a01b031681565b610169610315366004611c74565b610947565b610169610328366004611c1f565b610a22565b61016961033b366004611cbb565b610b41565b61016961034e366004611cbb565b610edc565b610169610361366004611c1f565b6111cf565b610191610374366004611c41565b60016020908152600092835260408084209091529082529020546001600160a01b031681565b6101696103a8366004611c41565b611276565b6103c06103bb366004611c1f565b611433565b6040516101a59190611e59565b6101696103db366004611cbb565b611624565b6101696103ee366004611c41565b611a7a565b6004805460408051630a43f92960e11b815290516001600160a01b0390921692631487f252928282019260209290829003018186803b15801561043557600080fd5b505afa158015610449573d6000803e3d6000fd5b505050506040513d601f19601f8201168201806040525081019061046d9190611c9e565b61047657600080fd5b6001600160a01b03166000908152600260205260409020600801805460ff19166001179055565b6004805460408051630a43f92960e11b815290516001600160a01b0390921692631487f252928282019260209290829003018186803b1580156104df57600080fd5b505afa1580156104f3573d6000803e3d6000fd5b505050506040513d601f19601f820116820180604052508101906105179190611c9e565b61052057600080fd5b60c08101516001600160a01b039081166000908152602081905260409020541661054957600080fd5b60006101408201818152610160830182815260016101a0850181815260c0860180516001600160a01b039081168752600260208181526040808a20600890810154620100009081900486166101808e01908152875187168d528585529b8390208d518155938d01519884018054938e015160608f015160d09b909b1c66ffffffffffffff1990951694909417660100000000000060ff958616021767ff00000000000000191667010000000000000094909a16939093029890981790915560808b01519282019290925560a08a01516003820155925160048401805473ffffffffffffffffffffffffffffffffffffffff191691841691909117905560e08901516005840155610100808a01516006850155610120909901516007840155955191909501805494519651925161ffff1990951691151561ff00191691909117951515909602949094177fffffffffffffffffff000000000000000000000000000000000000000000ffff16939092169091027fffffffffffffffffff00ffffffffffffffffffffffffffffffffffffffffffff1691909117600160b01b91151591909102179055565b600360009054906101000a90046001600160a01b03166001600160a01b031663ab3acb5c6040518163ffffffff1660e01b815260040160206040518083038186803b15801561074057600080fd5b505afa158015610754573d6000803e3d6000fd5b505050506040513d601f19601f820116820180604052508101906107789190611c9e565b61078157600080fd5b6001600160a01b038181166000908152600260205260409020600801546201000090041633146107f85760405162461bcd60e51b815260206004820152601660248201527f796f752068617665206e6f74207468652072696768740000000000000000000060448201526064015b60405180910390fd5b6001600160a01b03166000908152600260205260409020600801805461ff001916610100179055565b600360009054906101000a90046001600160a01b03166001600160a01b031663ab3acb5c6040518163ffffffff1660e01b815260040160206040518083038186803b15801561086f57600080fd5b505afa158015610883573d6000803e3d6000fd5b505050506040513d601f19601f820116820180604052508101906108a79190611c9e565b6108b057600080fd5b6001600160a01b038181166000908152600260205260409020600801546201000090041633146109225760405162461bcd60e51b815260206004820152601660248201527f796f752068617665206e6f74207468652072696768740000000000000000000060448201526064016107ef565b6001600160a01b03166000908152600260205260409020600801805461ff0019169055565b6004805460408051630a43f92960e11b815290516001600160a01b0390921692631487f252928282019260209290829003018186803b15801561098957600080fd5b505afa15801561099d573d6000803e3d6000fd5b505050506040513d601f19601f820116820180604052508101906109c19190611c9e565b6109ca57600080fd5b6001600160a01b039091166000908152600260205260409020600101805460ff9092166601000000000000027fffffffffffffffffffffffffffffffffffffffffffffffffff00ffffffffffff909216919091179055565b6004805460408051630a43f92960e11b815290516001600160a01b0390921692631487f252928282019260209290829003018186803b158015610a6457600080fd5b505afa158015610a78573d6000803e3d6000fd5b505050506040513d601f19601f82011682018060405250810190610a9c9190611c9e565b610aa557600080fd5b6001600160a01b038181166000908152602081905260409020541615610b0d5760405162461bcd60e51b815260206004820152601660248201527f74686520636f696e206973206e6f74206578697374730000000000000000000060448201526064016107ef565b6001600160a01b03166000908152602081905260409020805473ffffffffffffffffffffffffffffffffffffffff19169055565b6004805460408051630a43f92960e11b815290516001600160a01b0390921692631487f252928282019260209290829003018186803b158015610b8357600080fd5b505afa158015610b97573d6000803e3d6000fd5b505050506040513d601f19601f82011682018060405250810190610bbb9190611c9e565b610bc457600080fd5b60c08101516001600160a01b0316600090815260026020526040902060080154600160b01b900460ff161515600114610e3157338161018001906001600160a01b031690816001600160a01b0316815250506000816101400190151590811515815250506000816101600190151590811515815250506001816101a001901515908115158152505080600260008360c001516001600160a01b03166001600160a01b031681526020019081526020016000206000820151816000015560208201518160010160006101000a81548165ffffffffffff021916908360d01c021790555060408201518160010160066101000a81548160ff021916908360ff16021790555060608201518160010160076101000a81548160ff021916908360ff1602179055506080820151816002015560a0820151816003015560c08201518160040160006101000a8154816001600160a01b0302191690836001600160a01b0316021790555060e08201518160050155610100820151816006015561012082015181600701556101408201518160080160006101000a81548160ff0219169083151502179055506101608201518160080160016101000a81548160ff0219169083151502179055506101808201518160080160026101000a8154816001600160a01b0302191690836001600160a01b031602179055506101a08201518160080160166101000a81548160ff0219169083151502179055509050508060c001516000808360c001516001600160a01b03166001600160a01b0316815260200190815260200160002060006101000a8154816001600160a01b0302191690836001600160a01b0316021790555050565b60c08101516001600160a01b039081166000908152602081905260409020541615610e9e5760405162461bcd60e51b815260206004820152601d60248201527f74686520636f696e2065786973747320696e20746865206d61726b657400000060448201526064016107ef565b60c08101516001600160a01b03166000818152602081905260409020805473ffffffffffffffffffffffffffffffffffffffff191690911790555b50565b600360009054906101000a90046001600160a01b03166001600160a01b031663ab3acb5c6040518163ffffffff1660e01b815260040160206040518083038186803b158015610f2a57600080fd5b505afa158015610f3e573d6000803e3d6000fd5b505050506040513d601f19601f82011682018060405250810190610f629190611c9e565b610f6b57600080fd5b60c08101516001600160a01b03908116600090815260026020526040902060080154620100009004163314610fe25760405162461bcd60e51b815260206004820152601660248201527f796f752068617665206e6f74207468652072696768740000000000000000000060448201526064016107ef565b806040015160ff166004146110395760405162461bcd60e51b815260206004820181905260248201527f74686520636f696e2073636f7065206973206e6f74206a75737469666965642060448201526064016107ef565b60006101408201818152610160830182815260016101a0850181815233610180870190815260c0870180516001600160a01b039081168852600260208181526040998a90208b518155908b015196810180549a8c015160608d015160d09990991c66ffffffffffffff19909c169b909b17660100000000000060ff9c8d16021767ff0000000000000019166701000000000000009b9098169a909a029690961790985560808901519785019790975560a088015160038501555160048401805473ffffffffffffffffffffffffffffffffffffffff191691881691909117905560e0870151600584015561010080880151600685015561012090970151600784015593516008909201805493519451915161ffff1990941692151561ff00191692909217931515909502929092177fffffffffffffffffff000000000000000000000000000000000000000000ffff166201000094909316939093027fffffffffffffffffff00ffffffffffffffffffffffffffffffffffffffffffff1691909117600160b01b92151592909202919091179055565b6004805460408051630a43f92960e11b815290516001600160a01b0390921692631487f252928282019260209290829003018186803b15801561121157600080fd5b505afa158015611225573d6000803e3d6000fd5b505050506040513d601f19601f820116820180604052508101906112499190611c9e565b61125257600080fd5b6001600160a01b03166000908152600260205260409020600801805460ff19169055565b6004805460408051630a43f92960e11b815290516001600160a01b0390921692631487f252928282019260209290829003018186803b1580156112b857600080fd5b505afa1580156112cc573d6000803e3d6000fd5b505050506040513d601f19601f820116820180604052508101906112f09190611c9e565b6112f957600080fd5b6001600160a01b03818116600090815260016020908152604080832086851684529091529020541661136d5760405162461bcd60e51b815260206004820152601660248201527f74686520636f696e206973206e6f74206578697374730000000000000000000060448201526064016107ef565b6001600160a01b0382811660009081526020819052604090205416156113d55760405162461bcd60e51b815260206004820152601d60248201527f74686520636f696e206973202065786973747320696e206d61726b657400000060448201526064016107ef565b6001600160a01b039081166000908152600160209081526040808320948416835284825280832080548484529190932080549190941673ffffffffffffffffffffffffffffffffffffffff1991821617909355929092528154169055565b604080516101c081018252600080825260208201819052918101829052606081018290526080810182905260a0810182905260c0810182905260e08101829052610100810182905261012081018290526101408101829052610160810182905261018081018290526101a08101919091526001600160a01b038216600090815260026020526040902060080154600160b01b900460ff16151560011461151b5760405162461bcd60e51b815260206004820152601660248201527f74686520636f696e206973206e6f74206578697374730000000000000000000060448201526064016107ef565b506001600160a01b0390811660009081526002602081815260409283902083516101c0810185528154815260018201547fffffffffffff000000000000000000000000000000000000000000000000000060d082901b169382019390935260ff6601000000000000840481169582019590955267010000000000000090920484166060830152918201546080820152600382015460a08201526004820154841660c0820152600582015460e08201526006820154610100808301919091526007830154610120830152600890920154808416151561014083015291820483161515610160820152620100008204909316610180840152600160b01b90041615156101a082015290565b600360009054906101000a90046001600160a01b03166001600160a01b031663ab3acb5c6040518163ffffffff1660e01b815260040160206040518083038186803b15801561167257600080fd5b505afa158015611686573d6000803e3d6000fd5b505050506040513d601f19601f820116820180604052508101906116aa9190611c9e565b6116b357600080fd5b60c08101516001600160a01b0316600090815260026020526040902060080154600160b01b900460ff16151560011461194457338161018001906001600160a01b031690816001600160a01b0316815250506000816101400190151590811515815250506000816101600190151590811515815250506001816101a001901515908115158152505080600260008360c001516001600160a01b03166001600160a01b031681526020019081526020016000206000820151816000015560208201518160010160006101000a81548165ffffffffffff021916908360d01c021790555060408201518160010160066101000a81548160ff021916908360ff16021790555060608201518160010160076101000a81548160ff021916908360ff1602179055506080820151816002015560a0820151816003015560c08201518160040160006101000a8154816001600160a01b0302191690836001600160a01b0316021790555060e08201518160050155610100820151816006015561012082015181600701556101408201518160080160006101000a81548160ff0219169083151502179055506101608201518160080160016101000a81548160ff0219169083151502179055506101808201518160080160026101000a8154816001600160a01b0302191690836001600160a01b031602179055506101a08201518160080160166101000a81548160ff0219169083151502179055509050508060c0015160016000336001600160a01b03166001600160a01b0316815260200190815260200160002060008360c001516001600160a01b03166001600160a01b0316815260200190815260200160002060006101000a8154816001600160a01b0302191690836001600160a01b0316021790555050565b60c08101516001600160a01b0390811660009081526020819052604090205416156119b15760405162461bcd60e51b815260206004820152601d60248201527f74686520636f696e2065786973747320696e20746865206d61726b657400000060448201526064016107ef565b33600090815260016020908152604080832060c08501516001600160a01b0390811685529252909120541615611a295760405162461bcd60e51b815260206004820152601b60248201527f74686520636f696e2065786973747320696e207468652067617465000000000060448201526064016107ef565b60c001805133600090815260016020908152604080832094516001600160a01b039081168452949091529020805473ffffffffffffffffffffffffffffffffffffffff191692909116919091179055565b6004805460408051630a43f92960e11b815290516001600160a01b0390921692631487f252928282019260209290829003018186803b158015611abc57600080fd5b505afa158015611ad0573d6000803e3d6000fd5b505050506040513d601f19601f82011682018060405250810190611af49190611c9e565b611afd57600080fd5b6001600160a01b03818116600090815260016020908152604080832086851684529091529020541615611b725760405162461bcd60e51b815260206004820152601660248201527f74686520636f696e206973206e6f74206578697374730000000000000000000060448201526064016107ef565b6001600160a01b039081166000908152600160209081526040808320949093168252929092529020805473ffffffffffffffffffffffffffffffffffffffff19169055565b80356001600160a01b0381168114611bce57600080fd5b919050565b8035611bce81611fa3565b80357fffffffffffff000000000000000000000000000000000000000000000000000081168114611bce57600080fd5b803560ff81168114611bce57600080fd5b600060208284031215611c3157600080fd5b611c3a82611bb7565b9392505050565b60008060408385031215611c5457600080fd5b611c5d83611bb7565b9150611c6b60208401611bb7565b90509250929050565b60008060408385031215611c8757600080fd5b611c9083611bb7565b9150611c6b60208401611c0e565b600060208284031215611cb057600080fd5b8151611c3a81611fa3565b60006101c08284031215611cce57600080fd5b611cd6611f52565b82358152611ce660208401611bde565b6020820152611cf760408401611c0e565b6040820152611d0860608401611c0e565b60608201526080830135608082015260a083013560a0820152611d2d60c08401611bb7565b60c082015260e0838101359082015261010080840135908201526101208084013590820152610140611d60818501611bd3565b90820152610160611d72848201611bd3565b90820152610180611d84848201611bb7565b908201526101a0611d96848201611bd3565b908201529392505050565b8e81527fffffffffffff00000000000000000000000000000000000000000000000000008e16602082015260ff8d811660408301528c1660608201526101c081018b60808301528a60a0830152611e0360c083018b6001600160a01b03169052565b8860e08301528761010083015286610120830152611e2661014083018715159052565b9315156101608201526001600160a01b039290921661018083015215156101a0909101529b9a5050505050505050505050565b815181526020808301516101c0830191611e96908401827fffffffffffff0000000000000000000000000000000000000000000000000000169052565b506040830151611eab604084018260ff169052565b506060830151611ec0606084018260ff169052565b506080830151608083015260a083015160a083015260c0830151611eef60c08401826001600160a01b03169052565b5060e08381015190830152610100808401519083015261012080840151908301526101408084015115159083015261016080840151151590830152610180808401516001600160a01b0316908301526101a0928301511515929091019190915290565b6040516101c0810167ffffffffffffffff81118282101715611f9d577f4e487b7100000000000000000000000000000000000000000000000000000000600052604160045260246000fd5b60405290565b8015158114610ed957600080fdfea2646970667358221220f01157c828a0ca53a1b1072ff28e3949c6698f8beb87cef9b552a3677391405664736f6c63430008070033",
			"opcodes": "PUSH1 0x80 PUSH1 0x40 MSTORE CALLVALUE DUP1 ISZERO PUSH3 0x11 JUMPI PUSH1 0x0 DUP1 REVERT JUMPDEST POP PUSH1 0x40 MLOAD PUSH3 0x20B2 CODESIZE SUB DUP1 PUSH3 0x20B2 DUP4 CODECOPY DUP2 ADD PUSH1 0x40 DUP2 SWAP1 MSTORE PUSH3 0x34 SWAP2 PUSH3 0x83 JUMP JUMPDEST PUSH1 0x3 DUP1 SLOAD PUSH1 0x1 PUSH1 0x1 PUSH1 0xA0 SHL SUB SWAP4 DUP5 AND PUSH1 0x1 PUSH1 0x1 PUSH1 0xA0 SHL SUB NOT SWAP2 DUP3 AND OR SWAP1 SWAP2 SSTORE PUSH1 0x4 DUP1 SLOAD SWAP3 SWAP1 SWAP4 AND SWAP2 AND OR SWAP1 SSTORE PUSH3 0xBB JUMP JUMPDEST DUP1 MLOAD PUSH1 0x1 PUSH1 0x1 PUSH1 0xA0 SHL SUB DUP2 AND DUP2 EQ PUSH3 0x7E JUMPI PUSH1 0x0 DUP1 REVERT JUMPDEST SWAP2 SWAP1 POP JUMP JUMPDEST PUSH1 0x0 DUP1 PUSH1 0x40 DUP4 DUP6 SUB SLT ISZERO PUSH3 0x97 JUMPI PUSH1 0x0 DUP1 REVERT JUMPDEST PUSH3 0xA2 DUP4 PUSH3 0x66 JUMP JUMPDEST SWAP2 POP PUSH3 0xB2 PUSH1 0x20 DUP5 ADD PUSH3 0x66 JUMP JUMPDEST SWAP1 POP SWAP3 POP SWAP3 SWAP1 POP JUMP JUMPDEST PUSH2 0x1FE7 DUP1 PUSH3 0xCB PUSH1 0x0 CODECOPY PUSH1 0x0 RETURN INVALID PUSH1 0x80 PUSH1 0x40 MSTORE CALLVALUE DUP1 ISZERO PUSH2 0x10 JUMPI PUSH1 0x0 DUP1 REVERT JUMPDEST POP PUSH1 0x4 CALLDATASIZE LT PUSH2 0x151 JUMPI PUSH1 0x0 CALLDATALOAD PUSH1 0xE0 SHR DUP1 PUSH4 0x5385CBF5 GT PUSH2 0xCD JUMPI DUP1 PUSH4 0xCC0BF757 GT PUSH2 0x81 JUMPI DUP1 PUSH4 0xE8DD4655 GT PUSH2 0x66 JUMPI DUP1 PUSH4 0xE8DD4655 EQ PUSH2 0x3AD JUMPI DUP1 PUSH4 0xE911ABEC EQ PUSH2 0x3CD JUMPI DUP1 PUSH4 0xEAEC0112 EQ PUSH2 0x3E0 JUMPI PUSH1 0x0 DUP1 REVERT JUMPDEST DUP1 PUSH4 0xCC0BF757 EQ PUSH2 0x366 JUMPI DUP1 PUSH4 0xCFCDCA52 EQ PUSH2 0x39A JUMPI PUSH1 0x0 DUP1 REVERT JUMPDEST DUP1 PUSH4 0x87A70938 GT PUSH2 0xB2 JUMPI DUP1 PUSH4 0x87A70938 EQ PUSH2 0x32D JUMPI DUP1 PUSH4 0xA935B6AF EQ PUSH2 0x340 JUMPI DUP1 PUSH4 0xB20BE2B4 EQ PUSH2 0x353 JUMPI PUSH1 0x0 DUP1 REVERT JUMPDEST DUP1 PUSH4 0x5385CBF5 EQ PUSH2 0x307 JUMPI DUP1 PUSH4 0x7C3E2F02 EQ PUSH2 0x31A JUMPI PUSH1 0x0 DUP1 REVERT JUMPDEST DUP1 PUSH4 0x328320BF GT PUSH2 0x124 JUMPI DUP1 PUSH4 0x3B830305 GT PUSH2 0x109 JUMPI DUP1 PUSH4 0x3B830305 EQ PUSH2 0x2B8 JUMPI DUP1 PUSH4 0x441EB548 EQ PUSH2 0x2E1 JUMPI DUP1 PUSH4 0x492B7107 EQ PUSH2 0x2F4 JUMPI PUSH1 0x0 DUP1 REVERT JUMPDEST DUP1 PUSH4 0x328320BF EQ PUSH2 0x266 JUMPI DUP1 PUSH4 0x385E4B7A EQ PUSH2 0x2A5 JUMPI PUSH1 0x0 DUP1 REVERT JUMPDEST DUP1 PUSH4 0x1D3B8F67 EQ PUSH2 0x156 JUMPI DUP1 PUSH4 0x24FD7139 EQ PUSH2 0x16B JUMPI DUP1 PUSH4 0x2F17D5DF EQ PUSH2 0x17E JUMPI DUP1 PUSH4 0x31ECDEB8 EQ PUSH2 0x1AE JUMPI JUMPDEST PUSH1 0x0 DUP1 REVERT JUMPDEST PUSH2 0x169 PUSH2 0x164 CALLDATASIZE PUSH1 0x4 PUSH2 0x1C1F JUMP JUMPDEST PUSH2 0x3F3 JUMP JUMPDEST STOP JUMPDEST PUSH2 0x169 PUSH2 0x179 CALLDATASIZE PUSH1 0x4 PUSH2 0x1CBB JUMP JUMPDEST PUSH2 0x49D JUMP JUMPDEST PUSH1 0x3 SLOAD PUSH2 0x191 SWAP1 PUSH1 0x1 PUSH1 0x1 PUSH1 0xA0 SHL SUB AND DUP2 JUMP JUMPDEST PUSH1 0x40 MLOAD PUSH1 0x1 PUSH1 0x1 PUSH1 0xA0 SHL SUB SWAP1 SWAP2 AND DUP2 MSTORE PUSH1 0x20 ADD JUMPDEST PUSH1 0x40 MLOAD DUP1 SWAP2 SUB SWAP1 RETURN JUMPDEST PUSH2 0x24C PUSH2 0x1BC CALLDATASIZE PUSH1 0x4 PUSH2 0x1C1F JUMP JUMPDEST PUSH1 0x2 PUSH1 0x20 DUP2 SWAP1 MSTORE PUSH1 0x0 SWAP2 DUP3 MSTORE PUSH1 0x40 SWAP1 SWAP2 KECCAK256 DUP1 SLOAD PUSH1 0x1 DUP3 ADD SLOAD SWAP3 DUP3 ADD SLOAD PUSH1 0x3 DUP4 ADD SLOAD PUSH1 0x4 DUP5 ADD SLOAD PUSH1 0x5 DUP6 ADD SLOAD PUSH1 0x6 DUP7 ADD SLOAD PUSH1 0x7 DUP8 ADD SLOAD PUSH1 0x8 SWAP1 SWAP8 ADD SLOAD SWAP6 SWAP8 PUSH1 0xD0 DUP2 SWAP1 SHL SWAP8 PUSH1 0xFF PUSH7 0x1000000000000 DUP4 DIV DUP2 AND SWAP9 PUSH8 0x100000000000000 SWAP1 SWAP4 DIV DUP2 AND SWAP8 SWAP7 SWAP6 PUSH1 0x1 PUSH1 0x1 PUSH1 0xA0 SHL SUB SWAP1 DUP2 AND SWAP6 SWAP5 SWAP4 DUP1 DUP4 AND SWAP3 PUSH2 0x100 DUP3 DIV DUP2 AND SWAP3 PUSH3 0x10000 DUP4 DIV AND SWAP2 PUSH1 0x1 PUSH1 0xB0 SHL SWAP1 DIV AND DUP15 JUMP JUMPDEST PUSH1 0x40 MLOAD PUSH2 0x1A5 SWAP15 SWAP14 SWAP13 SWAP12 SWAP11 SWAP10 SWAP9 SWAP8 SWAP7 SWAP6 SWAP5 SWAP4 SWAP3 SWAP2 SWAP1 PUSH2 0x1DA1 JUMP JUMPDEST PUSH2 0x295 PUSH2 0x274 CALLDATASIZE PUSH1 0x4 PUSH2 0x1C1F JUMP JUMPDEST PUSH1 0x1 PUSH1 0x1 PUSH1 0xA0 SHL SUB AND PUSH1 0x0 SWAP1 DUP2 MSTORE PUSH1 0x2 PUSH1 0x20 MSTORE PUSH1 0x40 SWAP1 KECCAK256 PUSH1 0x8 ADD SLOAD PUSH1 0xFF AND SWAP1 JUMP JUMPDEST PUSH1 0x40 MLOAD SWAP1 ISZERO ISZERO DUP2 MSTORE PUSH1 0x20 ADD PUSH2 0x1A5 JUMP JUMPDEST PUSH2 0x169 PUSH2 0x2B3 CALLDATASIZE PUSH1 0x4 PUSH2 0x1C1F JUMP JUMPDEST PUSH2 0x6F2 JUMP JUMPDEST PUSH2 0x191 PUSH2 0x2C6 CALLDATASIZE PUSH1 0x4 PUSH2 0x1C1F JUMP JUMPDEST PUSH1 0x0 PUSH1 0x20 DUP2 SWAP1 MSTORE SWAP1 DUP2 MSTORE PUSH1 0x40 SWAP1 KECCAK256 SLOAD PUSH1 0x1 PUSH1 0x1 PUSH1 0xA0 SHL SUB AND DUP2 JUMP JUMPDEST PUSH2 0x169 PUSH2 0x2EF CALLDATASIZE PUSH1 0x4 PUSH2 0x1C1F JUMP JUMPDEST PUSH2 0x821 JUMP JUMPDEST PUSH1 0x4 SLOAD PUSH2 0x191 SWAP1 PUSH1 0x1 PUSH1 0x1 PUSH1 0xA0 SHL SUB AND DUP2 JUMP JUMPDEST PUSH2 0x169 PUSH2 0x315 CALLDATASIZE PUSH1 0x4 PUSH2 0x1C74 JUMP JUMPDEST PUSH2 0x947 JUMP JUMPDEST PUSH2 0x169 PUSH2 0x328 CALLDATASIZE PUSH1 0x4 PUSH2 0x1C1F JUMP JUMPDEST PUSH2 0xA22 JUMP JUMPDEST PUSH2 0x169 PUSH2 0x33B CALLDATASIZE PUSH1 0x4 PUSH2 0x1CBB JUMP JUMPDEST PUSH2 0xB41 JUMP JUMPDEST PUSH2 0x169 PUSH2 0x34E CALLDATASIZE PUSH1 0x4 PUSH2 0x1CBB JUMP JUMPDEST PUSH2 0xEDC JUMP JUMPDEST PUSH2 0x169 PUSH2 0x361 CALLDATASIZE PUSH1 0x4 PUSH2 0x1C1F JUMP JUMPDEST PUSH2 0x11CF JUMP JUMPDEST PUSH2 0x191 PUSH2 0x374 CALLDATASIZE PUSH1 0x4 PUSH2 0x1C41 JUMP JUMPDEST PUSH1 0x1 PUSH1 0x20 SWAP1 DUP2 MSTORE PUSH1 0x0 SWAP3 DUP4 MSTORE PUSH1 0x40 DUP1 DUP5 KECCAK256 SWAP1 SWAP2 MSTORE SWAP1 DUP3 MSTORE SWAP1 KECCAK256 SLOAD PUSH1 0x1 PUSH1 0x1 PUSH1 0xA0 SHL SUB AND DUP2 JUMP JUMPDEST PUSH2 0x169 PUSH2 0x3A8 CALLDATASIZE PUSH1 0x4 PUSH2 0x1C41 JUMP JUMPDEST PUSH2 0x1276 JUMP JUMPDEST PUSH2 0x3C0 PUSH2 0x3BB CALLDATASIZE PUSH1 0x4 PUSH2 0x1C1F JUMP JUMPDEST PUSH2 0x1433 JUMP JUMPDEST PUSH1 0x40 MLOAD PUSH2 0x1A5 SWAP2 SWAP1 PUSH2 0x1E59 JUMP JUMPDEST PUSH2 0x169 PUSH2 0x3DB CALLDATASIZE PUSH1 0x4 PUSH2 0x1CBB JUMP JUMPDEST PUSH2 0x1624 JUMP JUMPDEST PUSH2 0x169 PUSH2 0x3EE CALLDATASIZE PUSH1 0x4 PUSH2 0x1C41 JUMP JUMPDEST PUSH2 0x1A7A JUMP JUMPDEST PUSH1 0x4 DUP1 SLOAD PUSH1 0x40 DUP1 MLOAD PUSH4 0xA43F929 PUSH1 0xE1 SHL DUP2 MSTORE SWAP1 MLOAD PUSH1 0x1 PUSH1 0x1 PUSH1 0xA0 SHL SUB SWAP1 SWAP3 AND SWAP3 PUSH4 0x1487F252 SWAP3 DUP3 DUP3 ADD SWAP3 PUSH1 0x20 SWAP3 SWAP1 DUP3 SWAP1 SUB ADD DUP2 DUP7 DUP1 EXTCODESIZE ISZERO DUP1 ISZERO PUSH2 0x435 JUMPI PUSH1 0x0 DUP1 REVERT JUMPDEST POP GAS STATICCALL ISZERO DUP1 ISZERO PUSH2 0x449 JUMPI RETURNDATASIZE PUSH1 0x0 DUP1 RETURNDATACOPY RETURNDATASIZE PUSH1 0x0 REVERT JUMPDEST POP POP POP POP PUSH1 0x40 MLOAD RETURNDATASIZE PUSH1 0x1F NOT PUSH1 0x1F DUP3 ADD AND DUP3 ADD DUP1 PUSH1 0x40 MSTORE POP DUP2 ADD SWAP1 PUSH2 0x46D SWAP2 SWAP1 PUSH2 0x1C9E JUMP JUMPDEST PUSH2 0x476 JUMPI PUSH1 0x0 DUP1 REVERT JUMPDEST PUSH1 0x1 PUSH1 0x1 PUSH1 0xA0 SHL SUB AND PUSH1 0x0 SWAP1 DUP2 MSTORE PUSH1 0x2 PUSH1 0x20 MSTORE PUSH1 0x40 SWAP1 KECCAK256 PUSH1 0x8 ADD DUP1 SLOAD PUSH1 0xFF NOT AND PUSH1 0x1 OR SWAP1 SSTORE JUMP JUMPDEST PUSH1 0x4 DUP1 SLOAD PUSH1 0x40 DUP1 MLOAD PUSH4 0xA43F929 PUSH1 0xE1 SHL DUP2 MSTORE SWAP1 MLOAD PUSH1 0x1 PUSH1 0x1 PUSH1 0xA0 SHL SUB SWAP1 SWAP3 AND SWAP3 PUSH4 0x1487F252 SWAP3 DUP3 DUP3 ADD SWAP3 PUSH1 0x20 SWAP3 SWAP1 DUP3 SWAP1 SUB ADD DUP2 DUP7 DUP1 EXTCODESIZE ISZERO DUP1 ISZERO PUSH2 0x4DF JUMPI PUSH1 0x0 DUP1 REVERT JUMPDEST POP GAS STATICCALL ISZERO DUP1 ISZERO PUSH2 0x4F3 JUMPI RETURNDATASIZE PUSH1 0x0 DUP1 RETURNDATACOPY RETURNDATASIZE PUSH1 0x0 REVERT JUMPDEST POP POP POP POP PUSH1 0x40 MLOAD RETURNDATASIZE PUSH1 0x1F NOT PUSH1 0x1F DUP3 ADD AND DUP3 ADD DUP1 PUSH1 0x40 MSTORE POP DUP2 ADD SWAP1 PUSH2 0x517 SWAP2 SWAP1 PUSH2 0x1C9E JUMP JUMPDEST PUSH2 0x520 JUMPI PUSH1 0x0 DUP1 REVERT JUMPDEST PUSH1 0xC0 DUP2 ADD MLOAD PUSH1 0x1 PUSH1 0x1 PUSH1 0xA0 SHL SUB SWAP1 DUP2 AND PUSH1 0x0 SWAP1 DUP2 MSTORE PUSH1 0x20 DUP2 SWAP1 MSTORE PUSH1 0x40 SWAP1 KECCAK256 SLOAD AND PUSH2 0x549 JUMPI PUSH1 0x0 DUP1 REVERT JUMPDEST PUSH1 0x0 PUSH2 0x140 DUP3 ADD DUP2 DUP2 MSTORE PUSH2 0x160 DUP4 ADD DUP3 DUP2 MSTORE PUSH1 0x1 PUSH2 0x1A0 DUP6 ADD DUP2 DUP2 MSTORE PUSH1 0xC0 DUP7 ADD DUP1 MLOAD PUSH1 0x1 PUSH1 0x1 PUSH1 0xA0 SHL SUB SWAP1 DUP2 AND DUP8 MSTORE PUSH1 0x2 PUSH1 0x20 DUP2 DUP2 MSTORE PUSH1 0x40 DUP1 DUP11 KECCAK256 PUSH1 0x8 SWAP1 DUP2 ADD SLOAD PUSH3 0x10000 SWAP1 DUP2 SWAP1 DIV DUP7 AND PUSH2 0x180 DUP15 ADD SWAP1 DUP2 MSTORE DUP8 MLOAD DUP8 AND DUP14 MSTORE DUP6 DUP6 MSTORE SWAP12 DUP4 SWAP1 KECCAK256 DUP14 MLOAD DUP2 SSTORE SWAP4 DUP14 ADD MLOAD SWAP9 DUP5 ADD DUP1 SLOAD SWAP4 DUP15 ADD MLOAD PUSH1 0x60 DUP16 ADD MLOAD PUSH1 0xD0 SWAP12 SWAP1 SWAP12 SHR PUSH7 0xFFFFFFFFFFFFFF NOT SWAP1 SWAP6 AND SWAP5 SWAP1 SWAP5 OR PUSH7 0x1000000000000 PUSH1 0xFF SWAP6 DUP7 AND MUL OR PUSH8 0xFF00000000000000 NOT AND PUSH8 0x100000000000000 SWAP5 SWAP1 SWAP11 AND SWAP4 SWAP1 SWAP4 MUL SWAP9 SWAP1 SWAP9 OR SWAP1 SWAP2 SSTORE PUSH1 0x80 DUP12 ADD MLOAD SWAP3 DUP3 ADD SWAP3 SWAP1 SWAP3 SSTORE PUSH1 0xA0 DUP11 ADD MLOAD PUSH1 0x3 DUP3 ADD SSTORE SWAP3 MLOAD PUSH1 0x4 DUP5 ADD DUP1 SLOAD PUSH20 0xFFFFFFFFFFFFFFFFFFFFFFFFFFFFFFFFFFFFFFFF NOT AND SWAP2 DUP5 AND SWAP2 SWAP1 SWAP2 OR SWAP1 SSTORE PUSH1 0xE0 DUP10 ADD MLOAD PUSH1 0x5 DUP5 ADD SSTORE PUSH2 0x100 DUP1 DUP11 ADD MLOAD PUSH1 0x6 DUP6 ADD SSTORE PUSH2 0x120 SWAP1 SWAP10 ADD MLOAD PUSH1 0x7 DUP5 ADD SSTORE SWAP6 MLOAD SWAP2 SWAP1 SWAP6 ADD DUP1 SLOAD SWAP5 MLOAD SWAP7 MLOAD SWAP3 MLOAD PUSH2 0xFFFF NOT SWAP1 SWAP6 AND SWAP2 ISZERO ISZERO PUSH2 0xFF00 NOT AND SWAP2 SWAP1 SWAP2 OR SWAP6 ISZERO ISZERO SWAP1 SWAP7 MUL SWAP5 SWAP1 SWAP5 OR PUSH32 0xFFFFFFFFFFFFFFFFFF000000000000000000000000000000000000000000FFFF AND SWAP4 SWAP1 SWAP3 AND SWAP1 SWAP2 MUL PUSH32 0xFFFFFFFFFFFFFFFFFF00FFFFFFFFFFFFFFFFFFFFFFFFFFFFFFFFFFFFFFFFFFFF AND SWAP2 SWAP1 SWAP2 OR PUSH1 0x1 PUSH1 0xB0 SHL SWAP2 ISZERO ISZERO SWAP2 SWAP1 SWAP2 MUL OR SWAP1 SSTORE JUMP JUMPDEST PUSH1 0x3 PUSH1 0x0 SWAP1 SLOAD SWAP1 PUSH2 0x100 EXP SWAP1 DIV PUSH1 0x1 PUSH1 0x1 PUSH1 0xA0 SHL SUB AND PUSH1 0x1 PUSH1 0x1 PUSH1 0xA0 SHL SUB AND PUSH4 0xAB3ACB5C PUSH1 0x40 MLOAD DUP2 PUSH4 0xFFFFFFFF AND PUSH1 0xE0 SHL DUP2 MSTORE PUSH1 0x4 ADD PUSH1 0x20 PUSH1 0x40 MLOAD DUP1 DUP4 SUB DUP2 DUP7 DUP1 EXTCODESIZE ISZERO DUP1 ISZERO PUSH2 0x740 JUMPI PUSH1 0x0 DUP1 REVERT JUMPDEST POP GAS STATICCALL ISZERO DUP1 ISZERO PUSH2 0x754 JUMPI RETURNDATASIZE PUSH1 0x0 DUP1 RETURNDATACOPY RETURNDATASIZE PUSH1 0x0 REVERT JUMPDEST POP POP POP POP PUSH1 0x40 MLOAD RETURNDATASIZE PUSH1 0x1F NOT PUSH1 0x1F DUP3 ADD AND DUP3 ADD DUP1 PUSH1 0x40 MSTORE POP DUP2 ADD SWAP1 PUSH2 0x778 SWAP2 SWAP1 PUSH2 0x1C9E JUMP JUMPDEST PUSH2 0x781 JUMPI PUSH1 0x0 DUP1 REVERT JUMPDEST PUSH1 0x1 PUSH1 0x1 PUSH1 0xA0 SHL SUB DUP2 DUP2 AND PUSH1 0x0 SWAP1 DUP2 MSTORE PUSH1 0x2 PUSH1 0x20 MSTORE PUSH1 0x40 SWAP1 KECCAK256 PUSH1 0x8 ADD SLOAD PUSH3 0x10000 SWAP1 DIV AND CALLER EQ PUSH2 0x7F8 JUMPI PUSH1 0x40 MLOAD PUSH3 0x461BCD PUSH1 0xE5 SHL DUP2 MSTORE PUSH1 0x20 PUSH1 0x4 DUP3 ADD MSTORE PUSH1 0x16 PUSH1 0x24 DUP3 ADD MSTORE PUSH32 0x796F752068617665206E6F742074686520726967687400000000000000000000 PUSH1 0x44 DUP3 ADD MSTORE PUSH1 0x64 ADD JUMPDEST PUSH1 0x40 MLOAD DUP1 SWAP2 SUB SWAP1 REVERT JUMPDEST PUSH1 0x1 PUSH1 0x1 PUSH1 0xA0 SHL SUB AND PUSH1 0x0 SWAP1 DUP2 MSTORE PUSH1 0x2 PUSH1 0x20 MSTORE PUSH1 0x40 SWAP1 KECCAK256 PUSH1 0x8 ADD DUP1 SLOAD PUSH2 0xFF00 NOT AND PUSH2 0x100 OR SWAP1 SSTORE JUMP JUMPDEST PUSH1 0x3 PUSH1 0x0 SWAP1 SLOAD SWAP1 PUSH2 0x100 EXP SWAP1 DIV PUSH1 0x1 PUSH1 0x1 PUSH1 0xA0 SHL SUB AND PUSH1 0x1 PUSH1 0x1 PUSH1 0xA0 SHL SUB AND PUSH4 0xAB3ACB5C PUSH1 0x40 MLOAD DUP2 PUSH4 0xFFFFFFFF AND PUSH1 0xE0 SHL DUP2 MSTORE PUSH1 0x4 ADD PUSH1 0x20 PUSH1 0x40 MLOAD DUP1 DUP4 SUB DUP2 DUP7 DUP1 EXTCODESIZE ISZERO DUP1 ISZERO PUSH2 0x86F JUMPI PUSH1 0x0 DUP1 REVERT JUMPDEST POP GAS STATICCALL ISZERO DUP1 ISZERO PUSH2 0x883 JUMPI RETURNDATASIZE PUSH1 0x0 DUP1 RETURNDATACOPY RETURNDATASIZE PUSH1 0x0 REVERT JUMPDEST POP POP POP POP PUSH1 0x40 MLOAD RETURNDATASIZE PUSH1 0x1F NOT PUSH1 0x1F DUP3 ADD AND DUP3 ADD DUP1 PUSH1 0x40 MSTORE POP DUP2 ADD SWAP1 PUSH2 0x8A7 SWAP2 SWAP1 PUSH2 0x1C9E JUMP JUMPDEST PUSH2 0x8B0 JUMPI PUSH1 0x0 DUP1 REVERT JUMPDEST PUSH1 0x1 PUSH1 0x1 PUSH1 0xA0 SHL SUB DUP2 DUP2 AND PUSH1 0x0 SWAP1 DUP2 MSTORE PUSH1 0x2 PUSH1 0x20 MSTORE PUSH1 0x40 SWAP1 KECCAK256 PUSH1 0x8 ADD SLOAD PUSH3 0x10000 SWAP1 DIV AND CALLER EQ PUSH2 0x922 JUMPI PUSH1 0x40 MLOAD PUSH3 0x461BCD PUSH1 0xE5 SHL DUP2 MSTORE PUSH1 0x20 PUSH1 0x4 DUP3 ADD MSTORE PUSH1 0x16 PUSH1 0x24 DUP3 ADD MSTORE PUSH32 0x796F752068617665206E6F742074686520726967687400000000000000000000 PUSH1 0x44 DUP3 ADD MSTORE PUSH1 0x64 ADD PUSH2 0x7EF JUMP JUMPDEST PUSH1 0x1 PUSH1 0x1 PUSH1 0xA0 SHL SUB AND PUSH1 0x0 SWAP1 DUP2 MSTORE PUSH1 0x2 PUSH1 0x20 MSTORE PUSH1 0x40 SWAP1 KECCAK256 PUSH1 0x8 ADD DUP1 SLOAD PUSH2 0xFF00 NOT AND SWAP1 SSTORE JUMP JUMPDEST PUSH1 0x4 DUP1 SLOAD PUSH1 0x40 DUP1 MLOAD PUSH4 0xA43F929 PUSH1 0xE1 SHL DUP2 MSTORE SWAP1 MLOAD PUSH1 0x1 PUSH1 0x1 PUSH1 0xA0 SHL SUB SWAP1 SWAP3 AND SWAP3 PUSH4 0x1487F252 SWAP3 DUP3 DUP3 ADD SWAP3 PUSH1 0x20 SWAP3 SWAP1 DUP3 SWAP1 SUB ADD DUP2 DUP7 DUP1 EXTCODESIZE ISZERO DUP1 ISZERO PUSH2 0x989 JUMPI PUSH1 0x0 DUP1 REVERT JUMPDEST POP GAS STATICCALL ISZERO DUP1 ISZERO PUSH2 0x99D JUMPI RETURNDATASIZE PUSH1 0x0 DUP1 RETURNDATACOPY RETURNDATASIZE PUSH1 0x0 REVERT JUMPDEST POP POP POP POP PUSH1 0x40 MLOAD RETURNDATASIZE PUSH1 0x1F NOT PUSH1 0x1F DUP3 ADD AND DUP3 ADD DUP1 PUSH1 0x40 MSTORE POP DUP2 ADD SWAP1 PUSH2 0x9C1 SWAP2 SWAP1 PUSH2 0x1C9E JUMP JUMPDEST PUSH2 0x9CA JUMPI PUSH1 0x0 DUP1 REVERT JUMPDEST PUSH1 0x1 PUSH1 0x1 PUSH1 0xA0 SHL SUB SWAP1 SWAP2 AND PUSH1 0x0 SWAP1 DUP2 MSTORE PUSH1 0x2 PUSH1 0x20 MSTORE PUSH1 0x40 SWAP1 KECCAK256 PUSH1 0x1 ADD DUP1 SLOAD PUSH1 0xFF SWAP1 SWAP3 AND PUSH7 0x1000000000000 MUL PUSH32 0xFFFFFFFFFFFFFFFFFFFFFFFFFFFFFFFFFFFFFFFFFFFFFFFFFF00FFFFFFFFFFFF SWAP1 SWAP3 AND SWAP2 SWAP1 SWAP2 OR SWAP1 SSTORE JUMP JUMPDEST PUSH1 0x4 DUP1 SLOAD PUSH1 0x40 DUP1 MLOAD PUSH4 0xA43F929 PUSH1 0xE1 SHL DUP2 MSTORE SWAP1 MLOAD PUSH1 0x1 PUSH1 0x1 PUSH1 0xA0 SHL SUB SWAP1 SWAP3 AND SWAP3 PUSH4 0x1487F252 SWAP3 DUP3 DUP3 ADD SWAP3 PUSH1 0x20 SWAP3 SWAP1 DUP3 SWAP1 SUB ADD DUP2 DUP7 DUP1 EXTCODESIZE ISZERO DUP1 ISZERO PUSH2 0xA64 JUMPI PUSH1 0x0 DUP1 REVERT JUMPDEST POP GAS STATICCALL ISZERO DUP1 ISZERO PUSH2 0xA78 JUMPI RETURNDATASIZE PUSH1 0x0 DUP1 RETURNDATACOPY RETURNDATASIZE PUSH1 0x0 REVERT JUMPDEST POP POP POP POP PUSH1 0x40 MLOAD RETURNDATASIZE PUSH1 0x1F NOT PUSH1 0x1F DUP3 ADD AND DUP3 ADD DUP1 PUSH1 0x40 MSTORE POP DUP2 ADD SWAP1 PUSH2 0xA9C SWAP2 SWAP1 PUSH2 0x1C9E JUMP JUMPDEST PUSH2 0xAA5 JUMPI PUSH1 0x0 DUP1 REVERT JUMPDEST PUSH1 0x1 PUSH1 0x1 PUSH1 0xA0 SHL SUB DUP2 DUP2 AND PUSH1 0x0 SWAP1 DUP2 MSTORE PUSH1 0x20 DUP2 SWAP1 MSTORE PUSH1 0x40 SWAP1 KECCAK256 SLOAD AND ISZERO PUSH2 0xB0D JUMPI PUSH1 0x40 MLOAD PUSH3 0x461BCD PUSH1 0xE5 SHL DUP2 MSTORE PUSH1 0x20 PUSH1 0x4 DUP3 ADD MSTORE PUSH1 0x16 PUSH1 0x24 DUP3 ADD MSTORE PUSH32 0x74686520636F696E206973206E6F742065786973747300000000000000000000 PUSH1 0x44 DUP3 ADD MSTORE PUSH1 0x64 ADD PUSH2 0x7EF JUMP JUMPDEST PUSH1 0x1 PUSH1 0x1 PUSH1 0xA0 SHL SUB AND PUSH1 0x0 SWAP1 DUP2 MSTORE PUSH1 0x20 DUP2 SWAP1 MSTORE PUSH1 0x40 SWAP1 KECCAK256 DUP1 SLOAD PUSH20 0xFFFFFFFFFFFFFFFFFFFFFFFFFFFFFFFFFFFFFFFF NOT AND SWAP1 SSTORE JUMP JUMPDEST PUSH1 0x4 DUP1 SLOAD PUSH1 0x40 DUP1 MLOAD PUSH4 0xA43F929 PUSH1 0xE1 SHL DUP2 MSTORE SWAP1 MLOAD PUSH1 0x1 PUSH1 0x1 PUSH1 0xA0 SHL SUB SWAP1 SWAP3 AND SWAP3 PUSH4 0x1487F252 SWAP3 DUP3 DUP3 ADD SWAP3 PUSH1 0x20 SWAP3 SWAP1 DUP3 SWAP1 SUB ADD DUP2 DUP7 DUP1 EXTCODESIZE ISZERO DUP1 ISZERO PUSH2 0xB83 JUMPI PUSH1 0x0 DUP1 REVERT JUMPDEST POP GAS STATICCALL ISZERO DUP1 ISZERO PUSH2 0xB97 JUMPI RETURNDATASIZE PUSH1 0x0 DUP1 RETURNDATACOPY RETURNDATASIZE PUSH1 0x0 REVERT JUMPDEST POP POP POP POP PUSH1 0x40 MLOAD RETURNDATASIZE PUSH1 0x1F NOT PUSH1 0x1F DUP3 ADD AND DUP3 ADD DUP1 PUSH1 0x40 MSTORE POP DUP2 ADD SWAP1 PUSH2 0xBBB SWAP2 SWAP1 PUSH2 0x1C9E JUMP JUMPDEST PUSH2 0xBC4 JUMPI PUSH1 0x0 DUP1 REVERT JUMPDEST PUSH1 0xC0 DUP2 ADD MLOAD PUSH1 0x1 PUSH1 0x1 PUSH1 0xA0 SHL SUB AND PUSH1 0x0 SWAP1 DUP2 MSTORE PUSH1 0x2 PUSH1 0x20 MSTORE PUSH1 0x40 SWAP1 KECCAK256 PUSH1 0x8 ADD SLOAD PUSH1 0x1 PUSH1 0xB0 SHL SWAP1 DIV PUSH1 0xFF AND ISZERO ISZERO PUSH1 0x1 EQ PUSH2 0xE31 JUMPI CALLER DUP2 PUSH2 0x180 ADD SWAP1 PUSH1 0x1 PUSH1 0x1 PUSH1 0xA0 SHL SUB AND SWAP1 DUP2 PUSH1 0x1 PUSH1 0x1 PUSH1 0xA0 SHL SUB AND DUP2 MSTORE POP POP PUSH1 0x0 DUP2 PUSH2 0x140 ADD SWAP1 ISZERO ISZERO SWAP1 DUP2 ISZERO ISZERO DUP2 MSTORE POP POP PUSH1 0x0 DUP2 PUSH2 0x160 ADD SWAP1 ISZERO ISZERO SWAP1 DUP2 ISZERO ISZERO DUP2 MSTORE POP POP PUSH1 0x1 DUP2 PUSH2 0x1A0 ADD SWAP1 ISZERO ISZERO SWAP1 DUP2 ISZERO ISZERO DUP2 MSTORE POP POP DUP1 PUSH1 0x2 PUSH1 0x0 DUP4 PUSH1 0xC0 ADD MLOAD PUSH1 0x1 PUSH1 0x1 PUSH1 0xA0 SHL SUB AND PUSH1 0x1 PUSH1 0x1 PUSH1 0xA0 SHL SUB AND DUP2 MSTORE PUSH1 0x20 ADD SWAP1 DUP2 MSTORE PUSH1 0x20 ADD PUSH1 0x0 KECCAK256 PUSH1 0x0 DUP3 ADD MLOAD DUP2 PUSH1 0x0 ADD SSTORE PUSH1 0x20 DUP3 ADD MLOAD DUP2 PUSH1 0x1 ADD PUSH1 0x0 PUSH2 0x100 EXP DUP2 SLOAD DUP2 PUSH6 0xFFFFFFFFFFFF MUL NOT AND SWAP1 DUP4 PUSH1 0xD0 SHR MUL OR SWAP1 SSTORE POP PUSH1 0x40 DUP3 ADD MLOAD DUP2 PUSH1 0x1 ADD PUSH1 0x6 PUSH2 0x100 EXP DUP2 SLOAD DUP2 PUSH1 0xFF MUL NOT AND SWAP1 DUP4 PUSH1 0xFF AND MUL OR SWAP1 SSTORE POP PUSH1 0x60 DUP3 ADD MLOAD DUP2 PUSH1 0x1 ADD PUSH1 0x7 PUSH2 0x100 EXP DUP2 SLOAD DUP2 PUSH1 0xFF MUL NOT AND SWAP1 DUP4 PUSH1 0xFF AND MUL OR SWAP1 SSTORE POP PUSH1 0x80 DUP3 ADD MLOAD DUP2 PUSH1 0x2 ADD SSTORE PUSH1 0xA0 DUP3 ADD MLOAD DUP2 PUSH1 0x3 ADD SSTORE PUSH1 0xC0 DUP3 ADD MLOAD DUP2 PUSH1 0x4 ADD PUSH1 0x0 PUSH2 0x100 EXP DUP2 SLOAD DUP2 PUSH1 0x1 PUSH1 0x1 PUSH1 0xA0 SHL SUB MUL NOT AND SWAP1 DUP4 PUSH1 0x1 PUSH1 0x1 PUSH1 0xA0 SHL SUB AND MUL OR SWAP1 SSTORE POP PUSH1 0xE0 DUP3 ADD MLOAD DUP2 PUSH1 0x5 ADD SSTORE PUSH2 0x100 DUP3 ADD MLOAD DUP2 PUSH1 0x6 ADD SSTORE PUSH2 0x120 DUP3 ADD MLOAD DUP2 PUSH1 0x7 ADD SSTORE PUSH2 0x140 DUP3 ADD MLOAD DUP2 PUSH1 0x8 ADD PUSH1 0x0 PUSH2 0x100 EXP DUP2 SLOAD DUP2 PUSH1 0xFF MUL NOT AND SWAP1 DUP4 ISZERO ISZERO MUL OR SWAP1 SSTORE POP PUSH2 0x160 DUP3 ADD MLOAD DUP2 PUSH1 0x8 ADD PUSH1 0x1 PUSH2 0x100 EXP DUP2 SLOAD DUP2 PUSH1 0xFF MUL NOT AND SWAP1 DUP4 ISZERO ISZERO MUL OR SWAP1 SSTORE POP PUSH2 0x180 DUP3 ADD MLOAD DUP2 PUSH1 0x8 ADD PUSH1 0x2 PUSH2 0x100 EXP DUP2 SLOAD DUP2 PUSH1 0x1 PUSH1 0x1 PUSH1 0xA0 SHL SUB MUL NOT AND SWAP1 DUP4 PUSH1 0x1 PUSH1 0x1 PUSH1 0xA0 SHL SUB AND MUL OR SWAP1 SSTORE POP PUSH2 0x1A0 DUP3 ADD MLOAD DUP2 PUSH1 0x8 ADD PUSH1 0x16 PUSH2 0x100 EXP DUP2 SLOAD DUP2 PUSH1 0xFF MUL NOT AND SWAP1 DUP4 ISZERO ISZERO MUL OR SWAP1 SSTORE POP SWAP1 POP POP DUP1 PUSH1 0xC0 ADD MLOAD PUSH1 0x0 DUP1 DUP4 PUSH1 0xC0 ADD MLOAD PUSH1 0x1 PUSH1 0x1 PUSH1 0xA0 SHL SUB AND PUSH1 0x1 PUSH1 0x1 PUSH1 0xA0 SHL SUB AND DUP2 MSTORE PUSH1 0x20 ADD SWAP1 DUP2 MSTORE PUSH1 0x20 ADD PUSH1 0x0 KECCAK256 PUSH1 0x0 PUSH2 0x100 EXP DUP2 SLOAD DUP2 PUSH1 0x1 PUSH1 0x1 PUSH1 0xA0 SHL SUB MUL NOT AND SWAP1 DUP4 PUSH1 0x1 PUSH1 0x1 PUSH1 0xA0 SHL SUB AND MUL OR SWAP1 SSTORE POP POP JUMP JUMPDEST PUSH1 0xC0 DUP2 ADD MLOAD PUSH1 0x1 PUSH1 0x1 PUSH1 0xA0 SHL SUB SWAP1 DUP2 AND PUSH1 0x0 SWAP1 DUP2 MSTORE PUSH1 0x20 DUP2 SWAP1 MSTORE PUSH1 0x40 SWAP1 KECCAK256 SLOAD AND ISZERO PUSH2 0xE9E JUMPI PUSH1 0x40 MLOAD PUSH3 0x461BCD PUSH1 0xE5 SHL DUP2 MSTORE PUSH1 0x20 PUSH1 0x4 DUP3 ADD MSTORE PUSH1 0x1D PUSH1 0x24 DUP3 ADD MSTORE PUSH32 0x74686520636F696E2065786973747320696E20746865206D61726B6574000000 PUSH1 0x44 DUP3 ADD MSTORE PUSH1 0x64 ADD PUSH2 0x7EF JUMP JUMPDEST PUSH1 0xC0 DUP2 ADD MLOAD PUSH1 0x1 PUSH1 0x1 PUSH1 0xA0 SHL SUB AND PUSH1 0x0 DUP2 DUP2 MSTORE PUSH1 0x20 DUP2 SWAP1 MSTORE PUSH1 0x40 SWAP1 KECCAK256 DUP1 SLOAD PUSH20 0xFFFFFFFFFFFFFFFFFFFFFFFFFFFFFFFFFFFFFFFF NOT AND SWAP1 SWAP2 OR SWAP1 SSTORE JUMPDEST POP JUMP JUMPDEST PUSH1 0x3 PUSH1 0x0 SWAP1 SLOAD SWAP1 PUSH2 0x100 EXP SWAP1 DIV PUSH1 0x1 PUSH1 0x1 PUSH1 0xA0 SHL SUB AND PUSH1 0x1 PUSH1 0x1 PUSH1 0xA0 SHL SUB AND PUSH4 0xAB3ACB5C PUSH1 0x40 MLOAD DUP2 PUSH4 0xFFFFFFFF AND PUSH1 0xE0 SHL DUP2 MSTORE PUSH1 0x4 ADD PUSH1 0x20 PUSH1 0x40 MLOAD DUP1 DUP4 SUB DUP2 DUP7 DUP1 EXTCODESIZE ISZERO DUP1 ISZERO PUSH2 0xF2A JUMPI PUSH1 0x0 DUP1 REVERT JUMPDEST POP GAS STATICCALL ISZERO DUP1 ISZERO PUSH2 0xF3E JUMPI RETURNDATASIZE PUSH1 0x0 DUP1 RETURNDATACOPY RETURNDATASIZE PUSH1 0x0 REVERT JUMPDEST POP POP POP POP PUSH1 0x40 MLOAD RETURNDATASIZE PUSH1 0x1F NOT PUSH1 0x1F DUP3 ADD AND DUP3 ADD DUP1 PUSH1 0x40 MSTORE POP DUP2 ADD SWAP1 PUSH2 0xF62 SWAP2 SWAP1 PUSH2 0x1C9E JUMP JUMPDEST PUSH2 0xF6B JUMPI PUSH1 0x0 DUP1 REVERT JUMPDEST PUSH1 0xC0 DUP2 ADD MLOAD PUSH1 0x1 PUSH1 0x1 PUSH1 0xA0 SHL SUB SWAP1 DUP2 AND PUSH1 0x0 SWAP1 DUP2 MSTORE PUSH1 0x2 PUSH1 0x20 MSTORE PUSH1 0x40 SWAP1 KECCAK256 PUSH1 0x8 ADD SLOAD PUSH3 0x10000 SWAP1 DIV AND CALLER EQ PUSH2 0xFE2 JUMPI PUSH1 0x40 MLOAD PUSH3 0x461BCD PUSH1 0xE5 SHL DUP2 MSTORE PUSH1 0x20 PUSH1 0x4 DUP3 ADD MSTORE PUSH1 0x16 PUSH1 0x24 DUP3 ADD MSTORE PUSH32 0x796F752068617665206E6F742074686520726967687400000000000000000000 PUSH1 0x44 DUP3 ADD MSTORE PUSH1 0x64 ADD PUSH2 0x7EF JUMP JUMPDEST DUP1 PUSH1 0x40 ADD MLOAD PUSH1 0xFF AND PUSH1 0x4 EQ PUSH2 0x1039 JUMPI PUSH1 0x40 MLOAD PUSH3 0x461BCD PUSH1 0xE5 SHL DUP2 MSTORE PUSH1 0x20 PUSH1 0x4 DUP3 ADD DUP2 SWAP1 MSTORE PUSH1 0x24 DUP3 ADD MSTORE PUSH32 0x74686520636F696E2073636F7065206973206E6F74206A757374696669656420 PUSH1 0x44 DUP3 ADD MSTORE PUSH1 0x64 ADD PUSH2 0x7EF JUMP JUMPDEST PUSH1 0x0 PUSH2 0x140 DUP3 ADD DUP2 DUP2 MSTORE PUSH2 0x160 DUP4 ADD DUP3 DUP2 MSTORE PUSH1 0x1 PUSH2 0x1A0 DUP6 ADD DUP2 DUP2 MSTORE CALLER PUSH2 0x180 DUP8 ADD SWAP1 DUP2 MSTORE PUSH1 0xC0 DUP8 ADD DUP1 MLOAD PUSH1 0x1 PUSH1 0x1 PUSH1 0xA0 SHL SUB SWAP1 DUP2 AND DUP9 MSTORE PUSH1 0x2 PUSH1 0x20 DUP2 DUP2 MSTORE PUSH1 0x40 SWAP10 DUP11 SWAP1 KECCAK256 DUP12 MLOAD DUP2 SSTORE SWAP1 DUP12 ADD MLOAD SWAP7 DUP2 ADD DUP1 SLOAD SWAP11 DUP13 ADD MLOAD PUSH1 0x60 DUP14 ADD MLOAD PUSH1 0xD0 SWAP10 SWAP1 SWAP10 SHR PUSH7 0xFFFFFFFFFFFFFF NOT SWAP1 SWAP13 AND SWAP12 SWAP1 SWAP12 OR PUSH7 0x1000000000000 PUSH1 0xFF SWAP13 DUP14 AND MUL OR PUSH8 0xFF00000000000000 NOT AND PUSH8 0x100000000000000 SWAP12 SWAP1 SWAP9 AND SWAP11 SWAP1 SWAP11 MUL SWAP7 SWAP1 SWAP7 OR SWAP1 SWAP9 SSTORE PUSH1 0x80 DUP10 ADD MLOAD SWAP8 DUP6 ADD SWAP8 SWAP1 SWAP8 SSTORE PUSH1 0xA0 DUP9 ADD MLOAD PUSH1 0x3 DUP6 ADD SSTORE MLOAD PUSH1 0x4 DUP5 ADD DUP1 SLOAD PUSH20 0xFFFFFFFFFFFFFFFFFFFFFFFFFFFFFFFFFFFFFFFF NOT AND SWAP2 DUP9 AND SWAP2 SWAP1 SWAP2 OR SWAP1 SSTORE PUSH1 0xE0 DUP8 ADD MLOAD PUSH1 0x5 DUP5 ADD SSTORE PUSH2 0x100 DUP1 DUP9 ADD MLOAD PUSH1 0x6 DUP6 ADD SSTORE PUSH2 0x120 SWAP1 SWAP8 ADD MLOAD PUSH1 0x7 DUP5 ADD SSTORE SWAP4 MLOAD PUSH1 0x8 SWAP1 SWAP3 ADD DUP1 SLOAD SWAP4 MLOAD SWAP5 MLOAD SWAP2 MLOAD PUSH2 0xFFFF NOT SWAP1 SWAP5 AND SWAP3 ISZERO ISZERO PUSH2 0xFF00 NOT AND SWAP3 SWAP1 SWAP3 OR SWAP4 ISZERO ISZERO SWAP1 SWAP6 MUL SWAP3 SWAP1 SWAP3 OR PUSH32 0xFFFFFFFFFFFFFFFFFF000000000000000000000000000000000000000000FFFF AND PUSH3 0x10000 SWAP5 SWAP1 SWAP4 AND SWAP4 SWAP1 SWAP4 MUL PUSH32 0xFFFFFFFFFFFFFFFFFF00FFFFFFFFFFFFFFFFFFFFFFFFFFFFFFFFFFFFFFFFFFFF AND SWAP2 SWAP1 SWAP2 OR PUSH1 0x1 PUSH1 0xB0 SHL SWAP3 ISZERO ISZERO SWAP3 SWAP1 SWAP3 MUL SWAP2 SWAP1 SWAP2 OR SWAP1 SSTORE JUMP JUMPDEST PUSH1 0x4 DUP1 SLOAD PUSH1 0x40 DUP1 MLOAD PUSH4 0xA43F929 PUSH1 0xE1 SHL DUP2 MSTORE SWAP1 MLOAD PUSH1 0x1 PUSH1 0x1 PUSH1 0xA0 SHL SUB SWAP1 SWAP3 AND SWAP3 PUSH4 0x1487F252 SWAP3 DUP3 DUP3 ADD SWAP3 PUSH1 0x20 SWAP3 SWAP1 DUP3 SWAP1 SUB ADD DUP2 DUP7 DUP1 EXTCODESIZE ISZERO DUP1 ISZERO PUSH2 0x1211 JUMPI PUSH1 0x0 DUP1 REVERT JUMPDEST POP GAS STATICCALL ISZERO DUP1 ISZERO PUSH2 0x1225 JUMPI RETURNDATASIZE PUSH1 0x0 DUP1 RETURNDATACOPY RETURNDATASIZE PUSH1 0x0 REVERT JUMPDEST POP POP POP POP PUSH1 0x40 MLOAD RETURNDATASIZE PUSH1 0x1F NOT PUSH1 0x1F DUP3 ADD AND DUP3 ADD DUP1 PUSH1 0x40 MSTORE POP DUP2 ADD SWAP1 PUSH2 0x1249 SWAP2 SWAP1 PUSH2 0x1C9E JUMP JUMPDEST PUSH2 0x1252 JUMPI PUSH1 0x0 DUP1 REVERT JUMPDEST PUSH1 0x1 PUSH1 0x1 PUSH1 0xA0 SHL SUB AND PUSH1 0x0 SWAP1 DUP2 MSTORE PUSH1 0x2 PUSH1 0x20 MSTORE PUSH1 0x40 SWAP1 KECCAK256 PUSH1 0x8 ADD DUP1 SLOAD PUSH1 0xFF NOT AND SWAP1 SSTORE JUMP JUMPDEST PUSH1 0x4 DUP1 SLOAD PUSH1 0x40 DUP1 MLOAD PUSH4 0xA43F929 PUSH1 0xE1 SHL DUP2 MSTORE SWAP1 MLOAD PUSH1 0x1 PUSH1 0x1 PUSH1 0xA0 SHL SUB SWAP1 SWAP3 AND SWAP3 PUSH4 0x1487F252 SWAP3 DUP3 DUP3 ADD SWAP3 PUSH1 0x20 SWAP3 SWAP1 DUP3 SWAP1 SUB ADD DUP2 DUP7 DUP1 EXTCODESIZE ISZERO DUP1 ISZERO PUSH2 0x12B8 JUMPI PUSH1 0x0 DUP1 REVERT JUMPDEST POP GAS STATICCALL ISZERO DUP1 ISZERO PUSH2 0x12CC JUMPI RETURNDATASIZE PUSH1 0x0 DUP1 RETURNDATACOPY RETURNDATASIZE PUSH1 0x0 REVERT JUMPDEST POP POP POP POP PUSH1 0x40 MLOAD RETURNDATASIZE PUSH1 0x1F NOT PUSH1 0x1F DUP3 ADD AND DUP3 ADD DUP1 PUSH1 0x40 MSTORE POP DUP2 ADD SWAP1 PUSH2 0x12F0 SWAP2 SWAP1 PUSH2 0x1C9E JUMP JUMPDEST PUSH2 0x12F9 JUMPI PUSH1 0x0 DUP1 REVERT JUMPDEST PUSH1 0x1 PUSH1 0x1 PUSH1 0xA0 SHL SUB DUP2 DUP2 AND PUSH1 0x0 SWAP1 DUP2 MSTORE PUSH1 0x1 PUSH1 0x20 SWAP1 DUP2 MSTORE PUSH1 0x40 DUP1 DUP4 KECCAK256 DUP7 DUP6 AND DUP5 MSTORE SWAP1 SWAP2 MSTORE SWAP1 KECCAK256 SLOAD AND PUSH2 0x136D JUMPI PUSH1 0x40 MLOAD PUSH3 0x461BCD PUSH1 0xE5 SHL DUP2 MSTORE PUSH1 0x20 PUSH1 0x4 DUP3 ADD MSTORE PUSH1 0x16 PUSH1 0x24 DUP3 ADD MSTORE PUSH32 0x74686520636F696E206973206E6F742065786973747300000000000000000000 PUSH1 0x44 DUP3 ADD MSTORE PUSH1 0x64 ADD PUSH2 0x7EF JUMP JUMPDEST PUSH1 0x1 PUSH1 0x1 PUSH1 0xA0 SHL SUB DUP3 DUP2 AND PUSH1 0x0 SWAP1 DUP2 MSTORE PUSH1 0x20 DUP2 SWAP1 MSTORE PUSH1 0x40 SWAP1 KECCAK256 SLOAD AND ISZERO PUSH2 0x13D5 JUMPI PUSH1 0x40 MLOAD PUSH3 0x461BCD PUSH1 0xE5 SHL DUP2 MSTORE PUSH1 0x20 PUSH1 0x4 DUP3 ADD MSTORE PUSH1 0x1D PUSH1 0x24 DUP3 ADD MSTORE PUSH32 0x74686520636F696E206973202065786973747320696E206D61726B6574000000 PUSH1 0x44 DUP3 ADD MSTORE PUSH1 0x64 ADD PUSH2 0x7EF JUMP JUMPDEST PUSH1 0x1 PUSH1 0x1 PUSH1 0xA0 SHL SUB SWAP1 DUP2 AND PUSH1 0x0 SWAP1 DUP2 MSTORE PUSH1 0x1 PUSH1 0x20 SWAP1 DUP2 MSTORE PUSH1 0x40 DUP1 DUP4 KECCAK256 SWAP5 DUP5 AND DUP4 MSTORE DUP5 DUP3 MSTORE DUP1 DUP4 KECCAK256 DUP1 SLOAD DUP5 DUP5 MSTORE SWAP2 SWAP1 SWAP4 KECCAK256 DUP1 SLOAD SWAP2 SWAP1 SWAP5 AND PUSH20 0xFFFFFFFFFFFFFFFFFFFFFFFFFFFFFFFFFFFFFFFF NOT SWAP2 DUP3 AND OR SWAP1 SWAP4 SSTORE SWAP3 SWAP1 SWAP3 MSTORE DUP2 SLOAD AND SWAP1 SSTORE JUMP JUMPDEST PUSH1 0x40 DUP1 MLOAD PUSH2 0x1C0 DUP2 ADD DUP3 MSTORE PUSH1 0x0 DUP1 DUP3 MSTORE PUSH1 0x20 DUP3 ADD DUP2 SWAP1 MSTORE SWAP2 DUP2 ADD DUP3 SWAP1 MSTORE PUSH1 0x60 DUP2 ADD DUP3 SWAP1 MSTORE PUSH1 0x80 DUP2 ADD DUP3 SWAP1 MSTORE PUSH1 0xA0 DUP2 ADD DUP3 SWAP1 MSTORE PUSH1 0xC0 DUP2 ADD DUP3 SWAP1 MSTORE PUSH1 0xE0 DUP2 ADD DUP3 SWAP1 MSTORE PUSH2 0x100 DUP2 ADD DUP3 SWAP1 MSTORE PUSH2 0x120 DUP2 ADD DUP3 SWAP1 MSTORE PUSH2 0x140 DUP2 ADD DUP3 SWAP1 MSTORE PUSH2 0x160 DUP2 ADD DUP3 SWAP1 MSTORE PUSH2 0x180 DUP2 ADD DUP3 SWAP1 MSTORE PUSH2 0x1A0 DUP2 ADD SWAP2 SWAP1 SWAP2 MSTORE PUSH1 0x1 PUSH1 0x1 PUSH1 0xA0 SHL SUB DUP3 AND PUSH1 0x0 SWAP1 DUP2 MSTORE PUSH1 0x2 PUSH1 0x20 MSTORE PUSH1 0x40 SWAP1 KECCAK256 PUSH1 0x8 ADD SLOAD PUSH1 0x1 PUSH1 0xB0 SHL SWAP1 DIV PUSH1 0xFF AND ISZERO ISZERO PUSH1 0x1 EQ PUSH2 0x151B JUMPI PUSH1 0x40 MLOAD PUSH3 0x461BCD PUSH1 0xE5 SHL DUP2 MSTORE PUSH1 0x20 PUSH1 0x4 DUP3 ADD MSTORE PUSH1 0x16 PUSH1 0x24 DUP3 ADD MSTORE PUSH32 0x74686520636F696E206973206E6F742065786973747300000000000000000000 PUSH1 0x44 DUP3 ADD MSTORE PUSH1 0x64 ADD PUSH2 0x7EF JUMP JUMPDEST POP PUSH1 0x1 PUSH1 0x1 PUSH1 0xA0 SHL SUB SWAP1 DUP2 AND PUSH1 0x0 SWAP1 DUP2 MSTORE PUSH1 0x2 PUSH1 0x20 DUP2 DUP2 MSTORE PUSH1 0x40 SWAP3 DUP4 SWAP1 KECCAK256 DUP4 MLOAD PUSH2 0x1C0 DUP2 ADD DUP6 MSTORE DUP2 SLOAD DUP2 MSTORE PUSH1 0x1 DUP3 ADD SLOAD PUSH32 0xFFFFFFFFFFFF0000000000000000000000000000000000000000000000000000 PUSH1 0xD0 DUP3 SWAP1 SHL AND SWAP4 DUP3 ADD SWAP4 SWAP1 SWAP4 MSTORE PUSH1 0xFF PUSH7 0x1000000000000 DUP5 DIV DUP2 AND SWAP6 DUP3 ADD SWAP6 SWAP1 SWAP6 MSTORE PUSH8 0x100000000000000 SWAP1 SWAP3 DIV DUP5 AND PUSH1 0x60 DUP4 ADD MSTORE SWAP2 DUP3 ADD SLOAD PUSH1 0x80 DUP3 ADD MSTORE PUSH1 0x3 DUP3 ADD SLOAD PUSH1 0xA0 DUP3 ADD MSTORE PUSH1 0x4 DUP3 ADD SLOAD DUP5 AND PUSH1 0xC0 DUP3 ADD MSTORE PUSH1 0x5 DUP3 ADD SLOAD PUSH1 0xE0 DUP3 ADD MSTORE PUSH1 0x6 DUP3 ADD SLOAD PUSH2 0x100 DUP1 DUP4 ADD SWAP2 SWAP1 SWAP2 MSTORE PUSH1 0x7 DUP4 ADD SLOAD PUSH2 0x120 DUP4 ADD MSTORE PUSH1 0x8 SWAP1 SWAP3 ADD SLOAD DUP1 DUP5 AND ISZERO ISZERO PUSH2 0x140 DUP4 ADD MSTORE SWAP2 DUP3 DIV DUP4 AND ISZERO ISZERO PUSH2 0x160 DUP3 ADD MSTORE PUSH3 0x10000 DUP3 DIV SWAP1 SWAP4 AND PUSH2 0x180 DUP5 ADD MSTORE PUSH1 0x1 PUSH1 0xB0 SHL SWAP1 DIV AND ISZERO ISZERO PUSH2 0x1A0 DUP3 ADD MSTORE SWAP1 JUMP JUMPDEST PUSH1 0x3 PUSH1 0x0 SWAP1 SLOAD SWAP1 PUSH2 0x100 EXP SWAP1 DIV PUSH1 0x1 PUSH1 0x1 PUSH1 0xA0 SHL SUB AND PUSH1 0x1 PUSH1 0x1 PUSH1 0xA0 SHL SUB AND PUSH4 0xAB3ACB5C PUSH1 0x40 MLOAD DUP2 PUSH4 0xFFFFFFFF AND PUSH1 0xE0 SHL DUP2 MSTORE PUSH1 0x4 ADD PUSH1 0x20 PUSH1 0x40 MLOAD DUP1 DUP4 SUB DUP2 DUP7 DUP1 EXTCODESIZE ISZERO DUP1 ISZERO PUSH2 0x1672 JUMPI PUSH1 0x0 DUP1 REVERT JUMPDEST POP GAS STATICCALL ISZERO DUP1 ISZERO PUSH2 0x1686 JUMPI RETURNDATASIZE PUSH1 0x0 DUP1 RETURNDATACOPY RETURNDATASIZE PUSH1 0x0 REVERT JUMPDEST POP POP POP POP PUSH1 0x40 MLOAD RETURNDATASIZE PUSH1 0x1F NOT PUSH1 0x1F DUP3 ADD AND DUP3 ADD DUP1 PUSH1 0x40 MSTORE POP DUP2 ADD SWAP1 PUSH2 0x16AA SWAP2 SWAP1 PUSH2 0x1C9E JUMP JUMPDEST PUSH2 0x16B3 JUMPI PUSH1 0x0 DUP1 REVERT JUMPDEST PUSH1 0xC0 DUP2 ADD MLOAD PUSH1 0x1 PUSH1 0x1 PUSH1 0xA0 SHL SUB AND PUSH1 0x0 SWAP1 DUP2 MSTORE PUSH1 0x2 PUSH1 0x20 MSTORE PUSH1 0x40 SWAP1 KECCAK256 PUSH1 0x8 ADD SLOAD PUSH1 0x1 PUSH1 0xB0 SHL SWAP1 DIV PUSH1 0xFF AND ISZERO ISZERO PUSH1 0x1 EQ PUSH2 0x1944 JUMPI CALLER DUP2 PUSH2 0x180 ADD SWAP1 PUSH1 0x1 PUSH1 0x1 PUSH1 0xA0 SHL SUB AND SWAP1 DUP2 PUSH1 0x1 PUSH1 0x1 PUSH1 0xA0 SHL SUB AND DUP2 MSTORE POP POP PUSH1 0x0 DUP2 PUSH2 0x140 ADD SWAP1 ISZERO ISZERO SWAP1 DUP2 ISZERO ISZERO DUP2 MSTORE POP POP PUSH1 0x0 DUP2 PUSH2 0x160 ADD SWAP1 ISZERO ISZERO SWAP1 DUP2 ISZERO ISZERO DUP2 MSTORE POP POP PUSH1 0x1 DUP2 PUSH2 0x1A0 ADD SWAP1 ISZERO ISZERO SWAP1 DUP2 ISZERO ISZERO DUP2 MSTORE POP POP DUP1 PUSH1 0x2 PUSH1 0x0 DUP4 PUSH1 0xC0 ADD MLOAD PUSH1 0x1 PUSH1 0x1 PUSH1 0xA0 SHL SUB AND PUSH1 0x1 PUSH1 0x1 PUSH1 0xA0 SHL SUB AND DUP2 MSTORE PUSH1 0x20 ADD SWAP1 DUP2 MSTORE PUSH1 0x20 ADD PUSH1 0x0 KECCAK256 PUSH1 0x0 DUP3 ADD MLOAD DUP2 PUSH1 0x0 ADD SSTORE PUSH1 0x20 DUP3 ADD MLOAD DUP2 PUSH1 0x1 ADD PUSH1 0x0 PUSH2 0x100 EXP DUP2 SLOAD DUP2 PUSH6 0xFFFFFFFFFFFF MUL NOT AND SWAP1 DUP4 PUSH1 0xD0 SHR MUL OR SWAP1 SSTORE POP PUSH1 0x40 DUP3 ADD MLOAD DUP2 PUSH1 0x1 ADD PUSH1 0x6 PUSH2 0x100 EXP DUP2 SLOAD DUP2 PUSH1 0xFF MUL NOT AND SWAP1 DUP4 PUSH1 0xFF AND MUL OR SWAP1 SSTORE POP PUSH1 0x60 DUP3 ADD MLOAD DUP2 PUSH1 0x1 ADD PUSH1 0x7 PUSH2 0x100 EXP DUP2 SLOAD DUP2 PUSH1 0xFF MUL NOT AND SWAP1 DUP4 PUSH1 0xFF AND MUL OR SWAP1 SSTORE POP PUSH1 0x80 DUP3 ADD MLOAD DUP2 PUSH1 0x2 ADD SSTORE PUSH1 0xA0 DUP3 ADD MLOAD DUP2 PUSH1 0x3 ADD SSTORE PUSH1 0xC0 DUP3 ADD MLOAD DUP2 PUSH1 0x4 ADD PUSH1 0x0 PUSH2 0x100 EXP DUP2 SLOAD DUP2 PUSH1 0x1 PUSH1 0x1 PUSH1 0xA0 SHL SUB MUL NOT AND SWAP1 DUP4 PUSH1 0x1 PUSH1 0x1 PUSH1 0xA0 SHL SUB AND MUL OR SWAP1 SSTORE POP PUSH1 0xE0 DUP3 ADD MLOAD DUP2 PUSH1 0x5 ADD SSTORE PUSH2 0x100 DUP3 ADD MLOAD DUP2 PUSH1 0x6 ADD SSTORE PUSH2 0x120 DUP3 ADD MLOAD DUP2 PUSH1 0x7 ADD SSTORE PUSH2 0x140 DUP3 ADD MLOAD DUP2 PUSH1 0x8 ADD PUSH1 0x0 PUSH2 0x100 EXP DUP2 SLOAD DUP2 PUSH1 0xFF MUL NOT AND SWAP1 DUP4 ISZERO ISZERO MUL OR SWAP1 SSTORE POP PUSH2 0x160 DUP3 ADD MLOAD DUP2 PUSH1 0x8 ADD PUSH1 0x1 PUSH2 0x100 EXP DUP2 SLOAD DUP2 PUSH1 0xFF MUL NOT AND SWAP1 DUP4 ISZERO ISZERO MUL OR SWAP1 SSTORE POP PUSH2 0x180 DUP3 ADD MLOAD DUP2 PUSH1 0x8 ADD PUSH1 0x2 PUSH2 0x100 EXP DUP2 SLOAD DUP2 PUSH1 0x1 PUSH1 0x1 PUSH1 0xA0 SHL SUB MUL NOT AND SWAP1 DUP4 PUSH1 0x1 PUSH1 0x1 PUSH1 0xA0 SHL SUB AND MUL OR SWAP1 SSTORE POP PUSH2 0x1A0 DUP3 ADD MLOAD DUP2 PUSH1 0x8 ADD PUSH1 0x16 PUSH2 0x100 EXP DUP2 SLOAD DUP2 PUSH1 0xFF MUL NOT AND SWAP1 DUP4 ISZERO ISZERO MUL OR SWAP1 SSTORE POP SWAP1 POP POP DUP1 PUSH1 0xC0 ADD MLOAD PUSH1 0x1 PUSH1 0x0 CALLER PUSH1 0x1 PUSH1 0x1 PUSH1 0xA0 SHL SUB AND PUSH1 0x1 PUSH1 0x1 PUSH1 0xA0 SHL SUB AND DUP2 MSTORE PUSH1 0x20 ADD SWAP1 DUP2 MSTORE PUSH1 0x20 ADD PUSH1 0x0 KECCAK256 PUSH1 0x0 DUP4 PUSH1 0xC0 ADD MLOAD PUSH1 0x1 PUSH1 0x1 PUSH1 0xA0 SHL SUB AND PUSH1 0x1 PUSH1 0x1 PUSH1 0xA0 SHL SUB AND DUP2 MSTORE PUSH1 0x20 ADD SWAP1 DUP2 MSTORE PUSH1 0x20 ADD PUSH1 0x0 KECCAK256 PUSH1 0x0 PUSH2 0x100 EXP DUP2 SLOAD DUP2 PUSH1 0x1 PUSH1 0x1 PUSH1 0xA0 SHL SUB MUL NOT AND SWAP1 DUP4 PUSH1 0x1 PUSH1 0x1 PUSH1 0xA0 SHL SUB AND MUL OR SWAP1 SSTORE POP POP JUMP JUMPDEST PUSH1 0xC0 DUP2 ADD MLOAD PUSH1 0x1 PUSH1 0x1 PUSH1 0xA0 SHL SUB SWAP1 DUP2 AND PUSH1 0x0 SWAP1 DUP2 MSTORE PUSH1 0x20 DUP2 SWAP1 MSTORE PUSH1 0x40 SWAP1 KECCAK256 SLOAD AND ISZERO PUSH2 0x19B1 JUMPI PUSH1 0x40 MLOAD PUSH3 0x461BCD PUSH1 0xE5 SHL DUP2 MSTORE PUSH1 0x20 PUSH1 0x4 DUP3 ADD MSTORE PUSH1 0x1D PUSH1 0x24 DUP3 ADD MSTORE PUSH32 0x74686520636F696E2065786973747320696E20746865206D61726B6574000000 PUSH1 0x44 DUP3 ADD MSTORE PUSH1 0x64 ADD PUSH2 0x7EF JUMP JUMPDEST CALLER PUSH1 0x0 SWAP1 DUP2 MSTORE PUSH1 0x1 PUSH1 0x20 SWAP1 DUP2 MSTORE PUSH1 0x40 DUP1 DUP4 KECCAK256 PUSH1 0xC0 DUP6 ADD MLOAD PUSH1 0x1 PUSH1 0x1 PUSH1 0xA0 SHL SUB SWAP1 DUP2 AND DUP6 MSTORE SWAP3 MSTORE SWAP1 SWAP2 KECCAK256 SLOAD AND ISZERO PUSH2 0x1A29 JUMPI PUSH1 0x40 MLOAD PUSH3 0x461BCD PUSH1 0xE5 SHL DUP2 MSTORE PUSH1 0x20 PUSH1 0x4 DUP3 ADD MSTORE PUSH1 0x1B PUSH1 0x24 DUP3 ADD MSTORE PUSH32 0x74686520636F696E2065786973747320696E2074686520676174650000000000 PUSH1 0x44 DUP3 ADD MSTORE PUSH1 0x64 ADD PUSH2 0x7EF JUMP JUMPDEST PUSH1 0xC0 ADD DUP1 MLOAD CALLER PUSH1 0x0 SWAP1 DUP2 MSTORE PUSH1 0x1 PUSH1 0x20 SWAP1 DUP2 MSTORE PUSH1 0x40 DUP1 DUP4 KECCAK256 SWAP5 MLOAD PUSH1 0x1 PUSH1 0x1 PUSH1 0xA0 SHL SUB SWAP1 DUP2 AND DUP5 MSTORE SWAP5 SWAP1 SWAP2 MSTORE SWAP1 KECCAK256 DUP1 SLOAD PUSH20 0xFFFFFFFFFFFFFFFFFFFFFFFFFFFFFFFFFFFFFFFF NOT AND SWAP3 SWAP1 SWAP2 AND SWAP2 SWAP1 SWAP2 OR SWAP1 SSTORE JUMP JUMPDEST PUSH1 0x4 DUP1 SLOAD PUSH1 0x40 DUP1 MLOAD PUSH4 0xA43F929 PUSH1 0xE1 SHL DUP2 MSTORE SWAP1 MLOAD PUSH1 0x1 PUSH1 0x1 PUSH1 0xA0 SHL SUB SWAP1 SWAP3 AND SWAP3 PUSH4 0x1487F252 SWAP3 DUP3 DUP3 ADD SWAP3 PUSH1 0x20 SWAP3 SWAP1 DUP3 SWAP1 SUB ADD DUP2 DUP7 DUP1 EXTCODESIZE ISZERO DUP1 ISZERO PUSH2 0x1ABC JUMPI PUSH1 0x0 DUP1 REVERT JUMPDEST POP GAS STATICCALL ISZERO DUP1 ISZERO PUSH2 0x1AD0 JUMPI RETURNDATASIZE PUSH1 0x0 DUP1 RETURNDATACOPY RETURNDATASIZE PUSH1 0x0 REVERT JUMPDEST POP POP POP POP PUSH1 0x40 MLOAD RETURNDATASIZE PUSH1 0x1F NOT PUSH1 0x1F DUP3 ADD AND DUP3 ADD DUP1 PUSH1 0x40 MSTORE POP DUP2 ADD SWAP1 PUSH2 0x1AF4 SWAP2 SWAP1 PUSH2 0x1C9E JUMP JUMPDEST PUSH2 0x1AFD JUMPI PUSH1 0x0 DUP1 REVERT JUMPDEST PUSH1 0x1 PUSH1 0x1 PUSH1 0xA0 SHL SUB DUP2 DUP2 AND PUSH1 0x0 SWAP1 DUP2 MSTORE PUSH1 0x1 PUSH1 0x20 SWAP1 DUP2 MSTORE PUSH1 0x40 DUP1 DUP4 KECCAK256 DUP7 DUP6 AND DUP5 MSTORE SWAP1 SWAP2 MSTORE SWAP1 KECCAK256 SLOAD AND ISZERO PUSH2 0x1B72 JUMPI PUSH1 0x40 MLOAD PUSH3 0x461BCD PUSH1 0xE5 SHL DUP2 MSTORE PUSH1 0x20 PUSH1 0x4 DUP3 ADD MSTORE PUSH1 0x16 PUSH1 0x24 DUP3 ADD MSTORE PUSH32 0x74686520636F696E206973206E6F742065786973747300000000000000000000 PUSH1 0x44 DUP3 ADD MSTORE PUSH1 0x64 ADD PUSH2 0x7EF JUMP JUMPDEST PUSH1 0x1 PUSH1 0x1 PUSH1 0xA0 SHL SUB SWAP1 DUP2 AND PUSH1 0x0 SWAP1 DUP2 MSTORE PUSH1 0x1 PUSH1 0x20 SWAP1 DUP2 MSTORE PUSH1 0x40 DUP1 DUP4 KECCAK256 SWAP5 SWAP1 SWAP4 AND DUP3 MSTORE SWAP3 SWAP1 SWAP3 MSTORE SWAP1 KECCAK256 DUP1 SLOAD PUSH20 0xFFFFFFFFFFFFFFFFFFFFFFFFFFFFFFFFFFFFFFFF NOT AND SWAP1 SSTORE JUMP JUMPDEST DUP1 CALLDATALOAD PUSH1 0x1 PUSH1 0x1 PUSH1 0xA0 SHL SUB DUP2 AND DUP2 EQ PUSH2 0x1BCE JUMPI PUSH1 0x0 DUP1 REVERT JUMPDEST SWAP2 SWAP1 POP JUMP JUMPDEST DUP1 CALLDATALOAD PUSH2 0x1BCE DUP2 PUSH2 0x1FA3 JUMP JUMPDEST DUP1 CALLDATALOAD PUSH32 0xFFFFFFFFFFFF0000000000000000000000000000000000000000000000000000 DUP2 AND DUP2 EQ PUSH2 0x1BCE JUMPI PUSH1 0x0 DUP1 REVERT JUMPDEST DUP1 CALLDATALOAD PUSH1 0xFF DUP2 AND DUP2 EQ PUSH2 0x1BCE JUMPI PUSH1 0x0 DUP1 REVERT JUMPDEST PUSH1 0x0 PUSH1 0x20 DUP3 DUP5 SUB SLT ISZERO PUSH2 0x1C31 JUMPI PUSH1 0x0 DUP1 REVERT JUMPDEST PUSH2 0x1C3A DUP3 PUSH2 0x1BB7 JUMP JUMPDEST SWAP4 SWAP3 POP POP POP JUMP JUMPDEST PUSH1 0x0 DUP1 PUSH1 0x40 DUP4 DUP6 SUB SLT ISZERO PUSH2 0x1C54 JUMPI PUSH1 0x0 DUP1 REVERT JUMPDEST PUSH2 0x1C5D DUP4 PUSH2 0x1BB7 JUMP JUMPDEST SWAP2 POP PUSH2 0x1C6B PUSH1 0x20 DUP5 ADD PUSH2 0x1BB7 JUMP JUMPDEST SWAP1 POP SWAP3 POP SWAP3 SWAP1 POP JUMP JUMPDEST PUSH1 0x0 DUP1 PUSH1 0x40 DUP4 DUP6 SUB SLT ISZERO PUSH2 0x1C87 JUMPI PUSH1 0x0 DUP1 REVERT JUMPDEST PUSH2 0x1C90 DUP4 PUSH2 0x1BB7 JUMP JUMPDEST SWAP2 POP PUSH2 0x1C6B PUSH1 0x20 DUP5 ADD PUSH2 0x1C0E JUMP JUMPDEST PUSH1 0x0 PUSH1 0x20 DUP3 DUP5 SUB SLT ISZERO PUSH2 0x1CB0 JUMPI PUSH1 0x0 DUP1 REVERT JUMPDEST DUP2 MLOAD PUSH2 0x1C3A DUP2 PUSH2 0x1FA3 JUMP JUMPDEST PUSH1 0x0 PUSH2 0x1C0 DUP3 DUP5 SUB SLT ISZERO PUSH2 0x1CCE JUMPI PUSH1 0x0 DUP1 REVERT JUMPDEST PUSH2 0x1CD6 PUSH2 0x1F52 JUMP JUMPDEST DUP3 CALLDATALOAD DUP2 MSTORE PUSH2 0x1CE6 PUSH1 0x20 DUP5 ADD PUSH2 0x1BDE JUMP JUMPDEST PUSH1 0x20 DUP3 ADD MSTORE PUSH2 0x1CF7 PUSH1 0x40 DUP5 ADD PUSH2 0x1C0E JUMP JUMPDEST PUSH1 0x40 DUP3 ADD MSTORE PUSH2 0x1D08 PUSH1 0x60 DUP5 ADD PUSH2 0x1C0E JUMP JUMPDEST PUSH1 0x60 DUP3 ADD MSTORE PUSH1 0x80 DUP4 ADD CALLDATALOAD PUSH1 0x80 DUP3 ADD MSTORE PUSH1 0xA0 DUP4 ADD CALLDATALOAD PUSH1 0xA0 DUP3 ADD MSTORE PUSH2 0x1D2D PUSH1 0xC0 DUP5 ADD PUSH2 0x1BB7 JUMP JUMPDEST PUSH1 0xC0 DUP3 ADD MSTORE PUSH1 0xE0 DUP4 DUP2 ADD CALLDATALOAD SWAP1 DUP3 ADD MSTORE PUSH2 0x100 DUP1 DUP5 ADD CALLDATALOAD SWAP1 DUP3 ADD MSTORE PUSH2 0x120 DUP1 DUP5 ADD CALLDATALOAD SWAP1 DUP3 ADD MSTORE PUSH2 0x140 PUSH2 0x1D60 DUP2 DUP6 ADD PUSH2 0x1BD3 JUMP JUMPDEST SWAP1 DUP3 ADD MSTORE PUSH2 0x160 PUSH2 0x1D72 DUP5 DUP3 ADD PUSH2 0x1BD3 JUMP JUMPDEST SWAP1 DUP3 ADD MSTORE PUSH2 0x180 PUSH2 0x1D84 DUP5 DUP3 ADD PUSH2 0x1BB7 JUMP JUMPDEST SWAP1 DUP3 ADD MSTORE PUSH2 0x1A0 PUSH2 0x1D96 DUP5 DUP3 ADD PUSH2 0x1BD3 JUMP JUMPDEST SWAP1 DUP3 ADD MSTORE SWAP4 SWAP3 POP POP POP JUMP JUMPDEST DUP15 DUP2 MSTORE PUSH32 0xFFFFFFFFFFFF0000000000000000000000000000000000000000000000000000 DUP15 AND PUSH1 0x20 DUP3 ADD MSTORE PUSH1 0xFF DUP14 DUP2 AND PUSH1 0x40 DUP4 ADD MSTORE DUP13 AND PUSH1 0x60 DUP3 ADD MSTORE PUSH2 0x1C0 DUP2 ADD DUP12 PUSH1 0x80 DUP4 ADD MSTORE DUP11 PUSH1 0xA0 DUP4 ADD MSTORE PUSH2 0x1E03 PUSH1 0xC0 DUP4 ADD DUP12 PUSH1 0x1 PUSH1 0x1 PUSH1 0xA0 SHL SUB AND SWAP1 MSTORE JUMP JUMPDEST DUP9 PUSH1 0xE0 DUP4 ADD MSTORE DUP8 PUSH2 0x100 DUP4 ADD MSTORE DUP7 PUSH2 0x120 DUP4 ADD MSTORE PUSH2 0x1E26 PUSH2 0x140 DUP4 ADD DUP8 ISZERO ISZERO SWAP1 MSTORE JUMP JUMPDEST SWAP4 ISZERO ISZERO PUSH2 0x160 DUP3 ADD MSTORE PUSH1 0x1 PUSH1 0x1 PUSH1 0xA0 SHL SUB SWAP3 SWAP1 SWAP3 AND PUSH2 0x180 DUP4 ADD MSTORE ISZERO ISZERO PUSH2 0x1A0 SWAP1 SWAP2 ADD MSTORE SWAP12 SWAP11 POP POP POP POP POP POP POP POP POP POP POP JUMP JUMPDEST DUP2 MLOAD DUP2 MSTORE PUSH1 0x20 DUP1 DUP4 ADD MLOAD PUSH2 0x1C0 DUP4 ADD SWAP2 PUSH2 0x1E96 SWAP1 DUP5 ADD DUP3 PUSH32 0xFFFFFFFFFFFF0000000000000000000000000000000000000000000000000000 AND SWAP1 MSTORE JUMP JUMPDEST POP PUSH1 0x40 DUP4 ADD MLOAD PUSH2 0x1EAB PUSH1 0x40 DUP5 ADD DUP3 PUSH1 0xFF AND SWAP1 MSTORE JUMP JUMPDEST POP PUSH1 0x60 DUP4 ADD MLOAD PUSH2 0x1EC0 PUSH1 0x60 DUP5 ADD DUP3 PUSH1 0xFF AND SWAP1 MSTORE JUMP JUMPDEST POP PUSH1 0x80 DUP4 ADD MLOAD PUSH1 0x80 DUP4 ADD MSTORE PUSH1 0xA0 DUP4 ADD MLOAD PUSH1 0xA0 DUP4 ADD MSTORE PUSH1 0xC0 DUP4 ADD MLOAD PUSH2 0x1EEF PUSH1 0xC0 DUP5 ADD DUP3 PUSH1 0x1 PUSH1 0x1 PUSH1 0xA0 SHL SUB AND SWAP1 MSTORE JUMP JUMPDEST POP PUSH1 0xE0 DUP4 DUP2 ADD MLOAD SWAP1 DUP4 ADD MSTORE PUSH2 0x100 DUP1 DUP5 ADD MLOAD SWAP1 DUP4 ADD MSTORE PUSH2 0x120 DUP1 DUP5 ADD MLOAD SWAP1 DUP4 ADD MSTORE PUSH2 0x140 DUP1 DUP5 ADD MLOAD ISZERO ISZERO SWAP1 DUP4 ADD MSTORE PUSH2 0x160 DUP1 DUP5 ADD MLOAD ISZERO ISZERO SWAP1 DUP4 ADD MSTORE PUSH2 0x180 DUP1 DUP5 ADD MLOAD PUSH1 0x1 PUSH1 0x1 PUSH1 0xA0 SHL SUB AND SWAP1 DUP4 ADD MSTORE PUSH2 0x1A0 SWAP3 DUP4 ADD MLOAD ISZERO ISZERO SWAP3 SWAP1 SWAP2 ADD SWAP2 SWAP1 SWAP2 MSTORE SWAP1 JUMP JUMPDEST PUSH1 0x40 MLOAD PUSH2 0x1C0 DUP2 ADD PUSH8 0xFFFFFFFFFFFFFFFF DUP2 GT DUP3 DUP3 LT OR ISZERO PUSH2 0x1F9D JUMPI PUSH32 0x4E487B7100000000000000000000000000000000000000000000000000000000 PUSH1 0x0 MSTORE PUSH1 0x41 PUSH1 0x4 MSTORE PUSH1 0x24 PUSH1 0x0 REVERT JUMPDEST PUSH1 0x40 MSTORE SWAP1 JUMP JUMPDEST DUP1 ISZERO ISZERO DUP2 EQ PUSH2 0xED9 JUMPI PUSH1 0x0 DUP1 REVERT INVALID LOG2 PUSH5 0x6970667358 0x22 SLT KECCAK256 CREATE GT JUMPI 0xC8 0x28 LOG0 0xCA MSTORE8 LOG1 0xB1 SMOD 0x2F CALLCODE DUP15 CODECOPY 0x49 0xC6 PUSH10 0x8F8BEB87CEF9B552A367 PUSH20 0x91405664736F6C63430008070033000000000000 "
		},
		"gasEstimates": {
			"creation": {
				"codeDepositCost": "1633400",
				"executionCost": "infinite",
				"totalCost": "infinite"
			},
			"external": {
				"addCoinbyGator((bytes32,bytes6,uint8,uint8,uint256,uint256,address,bytes32,bytes32,bytes32,bool,bool,address,bool))": "infinite",
				"addCoinbyMarketor((bytes32,bytes6,uint8,uint8,uint256,uint256,address,bytes32,bytes32,bytes32,bool,bool,address,bool))": "infinite",
				"changeCoinScopebyMarketor(address,uint8)": "infinite",
				"coinList(address)": "20101",
				"delCoinbyMarketor(address)": "infinite",
				"delGateCoinbyMarketor(address,address)": "infinite",
				"gateCoinList(address,address)": "infinite",
				"gateContractAddress()": "2394",
				"getCoinInfo(address)": "23027",
				"impoveGateCoinbyMarketor(address,address)": "infinite",
				"isValidCoin(address)": "2601",
				"lockCoinbyGator(address)": "infinite",
				"lockCoinbyMarketor(address)": "infinite",
				"marketCoinList(address)": "2595",
				"marketorContractAddress()": "2415",
				"unlockCoinbyGator(address)": "infinite",
				"unlockCoinbyMarketor(address)": "infinite",
				"updateCoinbyGator((bytes32,bytes6,uint8,uint8,uint256,uint256,address,bytes32,bytes32,bytes32,bool,bool,address,bool))": "infinite",
				"updateCoinbyMarketor((bytes32,bytes6,uint8,uint8,uint256,uint256,address,bytes32,bytes32,bytes32,bool,bool,address,bool))": "infinite"
			}
		},
		"methodIdentifiers": {
			"addCoinbyGator((bytes32,bytes6,uint8,uint8,uint256,uint256,address,bytes32,bytes32,bytes32,bool,bool,address,bool))": "e911abec",
			"addCoinbyMarketor((bytes32,bytes6,uint8,uint8,uint256,uint256,address,bytes32,bytes32,bytes32,bool,bool,address,bool))": "87a70938",
			"changeCoinScopebyMarketor(address,uint8)": "5385cbf5",
			"coinList(address)": "31ecdeb8",
			"delCoinbyMarketor(address)": "7c3e2f02",
			"delGateCoinbyMarketor(address,address)": "eaec0112",
			"gateCoinList(address,address)": "cc0bf757",
			"gateContractAddress()": "2f17d5df",
			"getCoinInfo(address)": "e8dd4655",
			"impoveGateCoinbyMarketor(address,address)": "cfcdca52",
			"isValidCoin(address)": "328320bf",
			"lockCoinbyGator(address)": "441eb548",
			"lockCoinbyMarketor(address)": "b20be2b4",
			"marketCoinList(address)": "3b830305",
			"marketorContractAddress()": "492b7107",
			"unlockCoinbyGator(address)": "385e4b7a",
			"unlockCoinbyMarketor(address)": "1d3b8f67",
			"updateCoinbyGator((bytes32,bytes6,uint8,uint8,uint256,uint256,address,bytes32,bytes32,bytes32,bool,bool,address,bool))": "a935b6af",
			"updateCoinbyMarketor((bytes32,bytes6,uint8,uint8,uint256,uint256,address,bytes32,bytes32,bytes32,bool,bool,address,bool))": "24fd7139"
		}
	},
	"abi": [
		{
			"inputs": [
				{
					"internalType": "address",
					"name": "_gateContractAddress",
					"type": "address"
				},
				{
					"internalType": "address",
					"name": "_marketorContractAddress",
					"type": "address"
				}
			],
			"stateMutability": "nonpayable",
			"type": "constructor"
		},
		{
			"inputs": [
				{
					"components": [
						{
							"internalType": "bytes32",
							"name": "coinFullName",
							"type": "bytes32"
						},
						{
							"internalType": "bytes6",
							"name": "symbol",
							"type": "bytes6"
						},
						{
							"internalType": "uint8",
							"name": "scope",
							"type": "uint8"
						},
						{
							"internalType": "uint8",
							"name": "decimals",
							"type": "uint8"
						},
						{
							"internalType": "uint256",
							"name": "maxSupply",
							"type": "uint256"
						},
						{
							"internalType": "uint256",
							"name": "totalSupply",
							"type": "uint256"
						},
						{
							"internalType": "address",
							"name": "contractAddress",
							"type": "address"
						},
						{
							"internalType": "bytes32",
							"name": "WhitePaperUrl",
							"type": "bytes32"
						},
						{
							"internalType": "bytes32",
							"name": "OfficalWebsite",
							"type": "bytes32"
						},
						{
							"internalType": "bytes32",
							"name": "blockExplorerUrl",
							"type": "bytes32"
						},
						{
							"internalType": "bool",
							"name": "marketunlock",
							"type": "bool"
						},
						{
							"internalType": "bool",
							"name": "unlock",
							"type": "bool"
						},
						{
							"internalType": "address",
							"name": "creator",
							"type": "address"
						},
						{
							"internalType": "bool",
							"name": "isUsed",
							"type": "bool"
						}
					],
					"internalType": "struct LCoin.Info",
					"name": "_coinInfo",
					"type": "tuple"
				}
			],
			"name": "addCoinbyGator",
			"outputs": [],
			"stateMutability": "nonpayable",
			"type": "function"
		},
		{
			"inputs": [
				{
					"components": [
						{
							"internalType": "bytes32",
							"name": "coinFullName",
							"type": "bytes32"
						},
						{
							"internalType": "bytes6",
							"name": "symbol",
							"type": "bytes6"
						},
						{
							"internalType": "uint8",
							"name": "scope",
							"type": "uint8"
						},
						{
							"internalType": "uint8",
							"name": "decimals",
							"type": "uint8"
						},
						{
							"internalType": "uint256",
							"name": "maxSupply",
							"type": "uint256"
						},
						{
							"internalType": "uint256",
							"name": "totalSupply",
							"type": "uint256"
						},
						{
							"internalType": "address",
							"name": "contractAddress",
							"type": "address"
						},
						{
							"internalType": "bytes32",
							"name": "WhitePaperUrl",
							"type": "bytes32"
						},
						{
							"internalType": "bytes32",
							"name": "OfficalWebsite",
							"type": "bytes32"
						},
						{
							"internalType": "bytes32",
							"name": "blockExplorerUrl",
							"type": "bytes32"
						},
						{
							"internalType": "bool",
							"name": "marketunlock",
							"type": "bool"
						},
						{
							"internalType": "bool",
							"name": "unlock",
							"type": "bool"
						},
						{
							"internalType": "address",
							"name": "creator",
							"type": "address"
						},
						{
							"internalType": "bool",
							"name": "isUsed",
							"type": "bool"
						}
					],
					"internalType": "struct LCoin.Info",
					"name": "_coinInfo",
					"type": "tuple"
				}
			],
			"name": "addCoinbyMarketor",
			"outputs": [],
			"stateMutability": "nonpayable",
			"type": "function"
		},
		{
			"inputs": [
				{
					"internalType": "address",
					"name": "_internalCoinAddress",
					"type": "address"
				},
				{
					"internalType": "uint8",
					"name": "_scope",
					"type": "uint8"
				}
			],
			"name": "changeCoinScopebyMarketor",
			"outputs": [],
			"stateMutability": "nonpayable",
			"type": "function"
		},
		{
			"inputs": [
				{
					"internalType": "address",
					"name": "",
					"type": "address"
				}
			],
			"name": "coinList",
			"outputs": [
				{
					"internalType": "bytes32",
					"name": "coinFullName",
					"type": "bytes32"
				},
				{
					"internalType": "bytes6",
					"name": "symbol",
					"type": "bytes6"
				},
				{
					"internalType": "uint8",
					"name": "scope",
					"type": "uint8"
				},
				{
					"internalType": "uint8",
					"name": "decimals",
					"type": "uint8"
				},
				{
					"internalType": "uint256",
					"name": "maxSupply",
					"type": "uint256"
				},
				{
					"internalType": "uint256",
					"name": "totalSupply",
					"type": "uint256"
				},
				{
					"internalType": "address",
					"name": "contractAddress",
					"type": "address"
				},
				{
					"internalType": "bytes32",
					"name": "WhitePaperUrl",
					"type": "bytes32"
				},
				{
					"internalType": "bytes32",
					"name": "OfficalWebsite",
					"type": "bytes32"
				},
				{
					"internalType": "bytes32",
					"name": "blockExplorerUrl",
					"type": "bytes32"
				},
				{
					"internalType": "bool",
					"name": "marketunlock",
					"type": "bool"
				},
				{
					"internalType": "bool",
					"name": "unlock",
					"type": "bool"
				},
				{
					"internalType": "address",
					"name": "creator",
					"type": "address"
				},
				{
					"internalType": "bool",
					"name": "isUsed",
					"type": "bool"
				}
			],
			"stateMutability": "view",
			"type": "function"
		},
		{
			"inputs": [
				{
					"internalType": "address",
					"name": "_contractaddress",
					"type": "address"
				}
			],
			"name": "delCoinbyMarketor",
			"outputs": [],
			"stateMutability": "nonpayable",
			"type": "function"
		},
		{
			"inputs": [
				{
					"internalType": "address",
					"name": "_contractaddress",
					"type": "address"
				},
				{
					"internalType": "address",
					"name": "_gateaddress",
					"type": "address"
				}
			],
			"name": "delGateCoinbyMarketor",
			"outputs": [],
			"stateMutability": "nonpayable",
			"type": "function"
		},
		{
			"inputs": [
				{
					"internalType": "address",
					"name": "",
					"type": "address"
				},
				{
					"internalType": "address",
					"name": "",
					"type": "address"
				}
			],
			"name": "gateCoinList",
			"outputs": [
				{
					"internalType": "address",
					"name": "",
					"type": "address"
				}
			],
			"stateMutability": "view",
			"type": "function"
		},
		{
			"inputs": [],
			"name": "gateContractAddress",
			"outputs": [
				{
					"internalType": "address",
					"name": "",
					"type": "address"
				}
			],
			"stateMutability": "view",
			"type": "function"
		},
		{
			"inputs": [
				{
					"internalType": "address",
					"name": "_contractaddress",
					"type": "address"
				}
			],
			"name": "getCoinInfo",
			"outputs": [
				{
					"components": [
						{
							"internalType": "bytes32",
							"name": "coinFullName",
							"type": "bytes32"
						},
						{
							"internalType": "bytes6",
							"name": "symbol",
							"type": "bytes6"
						},
						{
							"internalType": "uint8",
							"name": "scope",
							"type": "uint8"
						},
						{
							"internalType": "uint8",
							"name": "decimals",
							"type": "uint8"
						},
						{
							"internalType": "uint256",
							"name": "maxSupply",
							"type": "uint256"
						},
						{
							"internalType": "uint256",
							"name": "totalSupply",
							"type": "uint256"
						},
						{
							"internalType": "address",
							"name": "contractAddress",
							"type": "address"
						},
						{
							"internalType": "bytes32",
							"name": "WhitePaperUrl",
							"type": "bytes32"
						},
						{
							"internalType": "bytes32",
							"name": "OfficalWebsite",
							"type": "bytes32"
						},
						{
							"internalType": "bytes32",
							"name": "blockExplorerUrl",
							"type": "bytes32"
						},
						{
							"internalType": "bool",
							"name": "marketunlock",
							"type": "bool"
						},
						{
							"internalType": "bool",
							"name": "unlock",
							"type": "bool"
						},
						{
							"internalType": "address",
							"name": "creator",
							"type": "address"
						},
						{
							"internalType": "bool",
							"name": "isUsed",
							"type": "bool"
						}
					],
					"internalType": "struct LCoin.Info",
					"name": "",
					"type": "tuple"
				}
			],
			"stateMutability": "view",
			"type": "function"
		},
		{
			"inputs": [
				{
					"internalType": "address",
					"name": "_contractaddress",
					"type": "address"
				},
				{
					"internalType": "address",
					"name": "_gateaddress",
					"type": "address"
				}
			],
			"name": "impoveGateCoinbyMarketor",
			"outputs": [],
			"stateMutability": "nonpayable",
			"type": "function"
		},
		{
			"inputs": [
				{
					"internalType": "address",
					"name": "_coinAddress",
					"type": "address"
				}
			],
			"name": "isValidCoin",
			"outputs": [
				{
					"internalType": "bool",
					"name": "",
					"type": "bool"
				}
			],
			"stateMutability": "view",
			"type": "function"
		},
		{
			"inputs": [
				{
					"internalType": "address",
					"name": "_internalCoinAddress",
					"type": "address"
				}
			],
			"name": "lockCoinbyGator",
			"outputs": [],
			"stateMutability": "nonpayable",
			"type": "function"
		},
		{
			"inputs": [
				{
					"internalType": "address",
					"name": "_internalCoinAddress",
					"type": "address"
				}
			],
			"name": "lockCoinbyMarketor",
			"outputs": [],
			"stateMutability": "nonpayable",
			"type": "function"
		},
		{
			"inputs": [
				{
					"internalType": "address",
					"name": "",
					"type": "address"
				}
			],
			"name": "marketCoinList",
			"outputs": [
				{
					"internalType": "address",
					"name": "",
					"type": "address"
				}
			],
			"stateMutability": "view",
			"type": "function"
		},
		{
			"inputs": [],
			"name": "marketorContractAddress",
			"outputs": [
				{
					"internalType": "address",
					"name": "",
					"type": "address"
				}
			],
			"stateMutability": "view",
			"type": "function"
		},
		{
			"inputs": [
				{
					"internalType": "address",
					"name": "_internalCoinAddress",
					"type": "address"
				}
			],
			"name": "unlockCoinbyGator",
			"outputs": [],
			"stateMutability": "nonpayable",
			"type": "function"
		},
		{
			"inputs": [
				{
					"internalType": "address",
					"name": "_internalCoinAddress",
					"type": "address"
				}
			],
			"name": "unlockCoinbyMarketor",
			"outputs": [],
			"stateMutability": "nonpayable",
			"type": "function"
		},
		{
			"inputs": [
				{
					"components": [
						{
							"internalType": "bytes32",
							"name": "coinFullName",
							"type": "bytes32"
						},
						{
							"internalType": "bytes6",
							"name": "symbol",
							"type": "bytes6"
						},
						{
							"internalType": "uint8",
							"name": "scope",
							"type": "uint8"
						},
						{
							"internalType": "uint8",
							"name": "decimals",
							"type": "uint8"
						},
						{
							"internalType": "uint256",
							"name": "maxSupply",
							"type": "uint256"
						},
						{
							"internalType": "uint256",
							"name": "totalSupply",
							"type": "uint256"
						},
						{
							"internalType": "address",
							"name": "contractAddress",
							"type": "address"
						},
						{
							"internalType": "bytes32",
							"name": "WhitePaperUrl",
							"type": "bytes32"
						},
						{
							"internalType": "bytes32",
							"name": "OfficalWebsite",
							"type": "bytes32"
						},
						{
							"internalType": "bytes32",
							"name": "blockExplorerUrl",
							"type": "bytes32"
						},
						{
							"internalType": "bool",
							"name": "marketunlock",
							"type": "bool"
						},
						{
							"internalType": "bool",
							"name": "unlock",
							"type": "bool"
						},
						{
							"internalType": "address",
							"name": "creator",
							"type": "address"
						},
						{
							"internalType": "bool",
							"name": "isUsed",
							"type": "bool"
						}
					],
					"internalType": "struct LCoin.Info",
					"name": "_coinInfo",
					"type": "tuple"
				}
			],
			"name": "updateCoinbyGator",
			"outputs": [],
			"stateMutability": "nonpayable",
			"type": "function"
		},
		{
			"inputs": [
				{
					"components": [
						{
							"internalType": "bytes32",
							"name": "coinFullName",
							"type": "bytes32"
						},
						{
							"internalType": "bytes6",
							"name": "symbol",
							"type": "bytes6"
						},
						{
							"internalType": "uint8",
							"name": "scope",
							"type": "uint8"
						},
						{
							"internalType": "uint8",
							"name": "decimals",
							"type": "uint8"
						},
						{
							"internalType": "uint256",
							"name": "maxSupply",
							"type": "uint256"
						},
						{
							"internalType": "uint256",
							"name": "totalSupply",
							"type": "uint256"
						},
						{
							"internalType": "address",
							"name": "contractAddress",
							"type": "address"
						},
						{
							"internalType": "bytes32",
							"name": "WhitePaperUrl",
							"type": "bytes32"
						},
						{
							"internalType": "bytes32",
							"name": "OfficalWebsite",
							"type": "bytes32"
						},
						{
							"internalType": "bytes32",
							"name": "blockExplorerUrl",
							"type": "bytes32"
						},
						{
							"internalType": "bool",
							"name": "marketunlock",
							"type": "bool"
						},
						{
							"internalType": "bool",
							"name": "unlock",
							"type": "bool"
						},
						{
							"internalType": "address",
							"name": "creator",
							"type": "address"
						},
						{
							"internalType": "bool",
							"name": "isUsed",
							"type": "bool"
						}
					],
					"internalType": "struct LCoin.Info",
					"name": "_coinInfo",
					"type": "tuple"
				}
			],
			"name": "updateCoinbyMarketor",
			"outputs": [],
			"stateMutability": "nonpayable",
			"type": "function"
		}
	]
}