{
	"data": {
		"bytecode": {
			"linkReferences": {},
			"object": "6101606040523480156200001257600080fd5b503073ffffffffffffffffffffffffffffffffffffffff1660808173ffffffffffffffffffffffffffffffffffffffff16815250503373ffffffffffffffffffffffffffffffffffffffff16632fc924526040518163ffffffff1660e01b815260040161012060405180830381865afa15801562000094573d6000803e3d6000fd5b505050506040513d601f19601f82011682018060405250810190620000ba9190620005ba565b6000808291905060008201518160000160006101000a81548160ff021916908360ff16021790555060208201518160000160016101000a81548160ff021916908360ff16021790555060408201518160000160026101000a81548160ff021916908360ff16021790555060608201518160000160036101000a81548160ff021916908360ff16021790555050508160020b6101209060020b8152508262ffffff166101009062ffffff168152508373ffffffffffffffffffffffffffffffffffffffff1660e09073ffffffffffffffffffffffffffffffffffffffff168152508473ffffffffffffffffffffffffffffffffffffffff1660c09073ffffffffffffffffffffffffffffffffffffffff168152508573ffffffffffffffffffffffffffffffffffffffff1660a09073ffffffffffffffffffffffffffffffffffffffff168152505050505050506000600160156101000a81548160ff0219169083151502179055506000600160166101000a81548160ff02191690831515021790555062000255610120516200028760201b620027a81760201c565b6fffffffffffffffffffffffffffffffff16610140816fffffffffffffffffffffffffffffffff1681525050620008b0565b60008082837ffffffffffffffffffffffffffffffffffffffffffffffffffffffffffff27618620002b99190620006b5565b620002c5919062000729565b9050600083847ffffffffffffffffffffffffffffffffffffffffffffffffffffffffffff27618620002f7906200076f565b620003039190620006b5565b6200030f919062000729565b905060006001858484620003249190620007bc565b620003309190620006b5565b6200033c91906200081e565b90508062ffffff166fffffffffffffffffffffffffffffffff62000361919062000878565b9350505050919050565b6000604051905090565b600080fd5b600073ffffffffffffffffffffffffffffffffffffffff82169050919050565b6000620003a7826200037a565b9050919050565b620003b9816200039a565b8114620003c557600080fd5b50565b600081519050620003d981620003ae565b92915050565b600062ffffff82169050919050565b620003f981620003df565b81146200040557600080fd5b50565b6000815190506200041981620003ee565b92915050565b60008160020b9050919050565b62000437816200041f565b81146200044357600080fd5b50565b60008151905062000457816200042c565b92915050565b600080fd5b6000601f19601f8301169050919050565b7f4e487b7100000000000000000000000000000000000000000000000000000000600052604160045260246000fd5b620004ad8262000462565b810181811067ffffffffffffffff82111715620004cf57620004ce62000473565b5b80604052505050565b6000620004e46200036b565b9050620004f28282620004a2565b919050565b600060ff82169050919050565b6200050f81620004f7565b81146200051b57600080fd5b50565b6000815190506200052f8162000504565b92915050565b6000608082840312156200054e576200054d6200045d565b5b6200055a6080620004d8565b905060006200056c848285016200051e565b600083015250602062000582848285016200051e565b602083015250604062000598848285016200051e565b6040830152506060620005ae848285016200051e565b60608301525092915050565b6000806000806000806101208789031215620005db57620005da62000375565b5b6000620005eb89828a01620003c8565b9650506020620005fe89828a01620003c8565b95505060406200061189828a01620003c8565b94505060606200062489828a0162000408565b93505060806200063789828a0162000446565b92505060a06200064a89828a0162000535565b9150509295509295509295565b7f4e487b7100000000000000000000000000000000000000000000000000000000600052601260045260246000fd5b7f4e487b7100000000000000000000000000000000000000000000000000000000600052601160045260246000fd5b6000620006c2826200041f565b9150620006cf836200041f565b925082620006e257620006e162000657565b5b600160000383147fffffffffffffffffffffffffffffffffffffffffffffffffffffffffff800000831416156200071e576200071d62000686565b5b828205905092915050565b600062000736826200041f565b915062000743836200041f565b925082820262000753816200041f565b915080821462000768576200076762000686565b5b5092915050565b60006200077c826200041f565b91507fffffffffffffffffffffffffffffffffffffffffffffffffffffffffff8000008203620007b157620007b062000686565b5b816000039050919050565b6000620007c9826200041f565b9150620007d6836200041f565b92508282039050627fffff81137fffffffffffffffffffffffffffffffffffffffffffffffffffffffffff8000008212171562000818576200081762000686565b5b92915050565b60006200082b82620003df565b91506200083883620003df565b9250828201905062ffffff81111562000856576200085562000686565b5b92915050565b60006fffffffffffffffffffffffffffffffff82169050919050565b600062000885826200085c565b915062000892836200085c565b925082620008a557620008a462000657565b5b828204905092915050565b60805160a05160c05160e0516101005161012051610140516180066200096d600039600081816115cc01528181613c370152613c8001526000818161166601528181613cc60152613d03015260006112af0152600081816111f101528181611a470152818161251c0152612cdf0152600081816106db01528181611133015281816118ef0152612ba80152600081816107990152818161094f01528181610df50152818161137f015261234101526000612fd101526180066000f3fe608060405234801561001057600080fd5b506004361061021c5760003560e01c80638860d1cd11610125578063a34123a7116100ad578063b15925901161007c578063b159259014610643578063b23ae19b14610661578063ba66e6dc1461067d578063c55e90fe14610699578063f637731d146106b75761021c565b8063a34123a71461058e578063a38807f2146105bf578063a98b22c1146105f1578063afb62fef146106225761021c565b80638f919198116100f45780638f9191981461050b57806392c4545c1461051557806392cc393c1461053357806395f01f3f14610551578063a30070e6146105705761021c565b80638860d1cd1461047d5780638b2ea554146104ad5780638cc2ce60146104d15780638d79ddcb146104ed5761021c565b80633d02a292116101a85780636a0b2b23116101775780636a0b2b23146103e85780636aca362d146104065780636e62d0a81461041057806380f556051461042e578063883bdbfd1461044c5761021c565b80633d02a2921461035b578063444d95b0146103655780634f1eb3d81461039957806366d16cc3146103ca5761021c565b8063208537ff116101ef578063208537ff146102975780632ad1baab146102a1578063317dfb06146102d45780633659bb4e1461030b5780633c8a7d8d1461032a5761021c565b806301b293511461022157806311df99951461023f578063166d60211461025d5780631a86b0e91461027b575b600080fd5b6102296106d3565b6040516102369190615cea565b60405180910390f35b6102476106d9565b6040516102549190615d46565b60405180910390f35b6102656106fd565b6040516102729190615d46565b60405180910390f35b61029560048036038101906102909190615da4565b610723565b005b61029f610949565b005b6102bb60048036038101906102b69190615e10565b610a04565b6040516102cb9493929190615ea2565b60405180910390f35b6102ee60048036038101906102e99190615f20565b610a82565b604051610302989796959493929190615f94565b60405180910390f35b610313610b3d565b604051610321929190616012565b60405180910390f35b610344600480360381019061033f91906160f8565b610b87565b604051610352929190616192565b60405180910390f35b610363610def565b005b61037f600480360381019061037a91906161f1565b610eab565b60405161039095949392919061621e565b60405180910390f35b6103b360048036038101906103ae9190616271565b610f35565b6040516103c1929190616012565b60405180910390f35b6103d26112ad565b6040516103df919061630a565b60405180910390f35b6103f06112d1565b6040516103fd9190616325565b60405180910390f35b61040e6112f3565b005b61041861136a565b604051610425919061634f565b60405180910390f35b61043661137d565b6040516104439190615d46565b60405180910390f35b610466600480360381019061046191906163c0565b6113a1565b604051610474929190616589565b60405180910390f35b610497600480360381019061049291906165f9565b611473565b6040516104a49190615cea565b60405180910390f35b6104b561148b565b6040516104c89796959493929190616652565b60405180910390f35b6104eb60048036038101906104e691906166c1565b61152c565b005b6104f56115ca565b6040516105029190616325565b60405180910390f35b6105136115ee565b005b61051d611664565b60405161052a919061675b565b60405180910390f35b61053b611688565b6040516105489190616776565b60405180910390f35b61055961169b565b604051610567929190616012565b60405180910390f35b610578611b09565b6040516105859190615cea565b60405180910390f35b6105a860048036038101906105a39190616791565b611b0f565b6040516105b6929190616192565b60405180910390f35b6105d960048036038101906105d491906167e4565b611d62565b6040516105e893929190616824565b60405180910390f35b61060b600480360381019061060691906168e9565b612119565b6040516106199291906169a7565b60405180910390f35b61062a612130565b60405161063a94939291906169d0565b60405180910390f35b61064b612182565b6040516106589190616776565b60405180910390f35b61067b60048036038101906106769190616a41565b612195565b005b61069760048036038101906106929190616a6e565b6122cb565b005b6106a161251a565b6040516106ae9190615d46565b60405180910390f35b6106d160048036038101906106cc9190616ad5565b61253e565b005b60045481565b7f000000000000000000000000000000000000000000000000000000000000000081565b600160009054906101000a900473ffffffffffffffffffffffffffffffffffffffff1681565b6003600001601e9054906101000a900460ff16610775576040517f08c379a000000000000000000000000000000000000000000000000000000000815260040161076c90616b5f565b60405180910390fd5b60006003600001601e6101000a81548160ff021916908315150217905550600115157f000000000000000000000000000000000000000000000000000000000000000073ffffffffffffffffffffffffffffffffffffffff16631487f2526040518163ffffffff1660e01b8152600401602060405180830381865afa158015610802573d6000803e3d6000fd5b505050506040513d601f19601f820116820180604052508101906108269190616b94565b15151461083257600080fd5b60008260ff161480610858575060028260ff16101580156108575750600a8260ff1611155b5b8015610886575060008160ff161480610885575060028160ff16101580156108845750600a8160ff1611155b5b5b61088f57600080fd5b60006003600001601d9054906101000a900460ff16905060048260ff16901b836108b99190616bf0565b6003600001601d6101000a81548160ff021916908360ff1602179055507f973d8d92bb299f4af6ce49b52a8adb85ae46b9f214c4c4fc06ac77401237b1336010826109049190616c54565b60048360ff16901c858560405161091e94939291906169d0565b60405180910390a15060016003600001601e6101000a81548160ff0219169083151502179055505050565b600115157f000000000000000000000000000000000000000000000000000000000000000073ffffffffffffffffffffffffffffffffffffffff16631487f2526040518163ffffffff1660e01b8152600401602060405180830381865afa1580156109b8573d6000803e3d6000fd5b505050506040513d601f19601f820116820180604052508101906109dc9190616b94565b1515146109e857600080fd5b60018060156101000a81548160ff021916908315150217905550565b600b8161ffff8110610a1557600080fd5b016000915090508060000160009054906101000a900463ffffffff16908060000160049054906101000a900460060b9080600001600b9054906101000a900473ffffffffffffffffffffffffffffffffffffffff169080600001601f9054906101000a900460ff16905084565b60086020528060005260406000206000915090508060000160009054906101000a90046fffffffffffffffffffffffffffffffff16908060000160109054906101000a9004600f0b908060010154908060020154908060030160009054906101000a900460060b908060030160079054906101000a900473ffffffffffffffffffffffffffffffffffffffff169080600301601b9054906101000a900463ffffffff169080600301601f9054906101000a900460ff16905088565b60068060000160009054906101000a90046fffffffffffffffffffffffffffffffff16908060000160109054906101000a90046fffffffffffffffffffffffffffffffff16905082565b6000806003600001601e9054906101000a900460ff16610bdc576040517f08c379a0000000000000000000000000000000000000000000000000000000008152600401610bd390616b5f565b60405180910390fd5b60006003600001601e6101000a81548160ff0219169083151502179055506000856fffffffffffffffffffffffffffffffff1611610c1957600080fd5b600080610c6460405180608001604052808c73ffffffffffffffffffffffffffffffffffffffff1681526020018b60020b81526020018a60020b815260200189600f0b81525061287a565b92509250508193508092506000806000861115610c8657610c83612ba1565b91505b6000851115610c9a57610c97612cd8565b90505b6000861115610d0057610cab612ba1565b610cbe8784612e0f90919063ffffffff16565b1115610cff576040517f08c379a0000000000000000000000000000000000000000000000000000000008152600401610cf690616cd1565b60405180910390fd5b5b6000851115610d6657610d11612cd8565b610d248683612e0f90919063ffffffff16565b1115610d65576040517f08c379a0000000000000000000000000000000000000000000000000000000008152600401610d5c90616d3d565b60405180910390fd5b5b8960020b8b60020b8d73ffffffffffffffffffffffffffffffffffffffff167f7a53080ba414158be7ec69b987b5fb7d07dee101fe85488f0853ae16239d0bde338d8b8b604051610dba9493929190616d5d565b60405180910390a45050505060016003600001601e6101000a81548160ff021916908315150217905550965096945050505050565b600115157f000000000000000000000000000000000000000000000000000000000000000073ffffffffffffffffffffffffffffffffffffffff16631487f2526040518163ffffffff1660e01b8152600401602060405180830381865afa158015610e5e573d6000803e3d6000fd5b505050506040513d601f19601f82011682018060405250810190610e829190616b94565b151514610e8e57600080fd5b6000600160156101000a81548160ff021916908315150217905550565b600a6020528060005260406000206000915090508060000160009054906101000a90046fffffffffffffffffffffffffffffffff16908060010154908060020154908060030160009054906101000a90046fffffffffffffffffffffffffffffffff16908060030160109054906101000a90046fffffffffffffffffffffffffffffffff16905085565b6000806003600001601e9054906101000a900460ff16610f8a576040517f08c379a0000000000000000000000000000000000000000000000000000000008152600401610f8190616b5f565b60405180910390fd5b60006003600001601e6101000a81548160ff0219169083151502179055506000610fc2338888600a612e32909392919063ffffffff16565b90508060030160009054906101000a90046fffffffffffffffffffffffffffffffff166fffffffffffffffffffffffffffffffff16856fffffffffffffffffffffffffffffffff16116110155784611037565b8060030160009054906101000a90046fffffffffffffffffffffffffffffffff165b92508060030160109054906101000a90046fffffffffffffffffffffffffffffffff166fffffffffffffffffffffffffffffffff16846fffffffffffffffffffffffffffffffff161161108a57836110ac565b8060030160109054906101000a90046fffffffffffffffffffffffffffffffff165b91506000836fffffffffffffffffffffffffffffffff16111561116c57828160030160008282829054906101000a90046fffffffffffffffffffffffffffffffff166110f89190616da2565b92506101000a8154816fffffffffffffffffffffffffffffffff02191690836fffffffffffffffffffffffffffffffff16021790555061116b7f000000000000000000000000000000000000000000000000000000000000000089856fffffffffffffffffffffffffffffffff16612e7a565b5b6000826fffffffffffffffffffffffffffffffff16111561122a57818160030160108282829054906101000a90046fffffffffffffffffffffffffffffffff166111b69190616da2565b92506101000a8154816fffffffffffffffffffffffffffffffff02191690836fffffffffffffffffffffffffffffffff1602179055506112297f000000000000000000000000000000000000000000000000000000000000000089846fffffffffffffffffffffffffffffffff16612e7a565b5b8560020b8760020b3373ffffffffffffffffffffffffffffffffffffffff167f70935338e69775456a85ddef226c395fb668b63fa0115f5f20610b388e6ca9c08b878760405161127c93929190616de6565b60405180910390a45060016003600001601e6101000a81548160ff0219169083151502179055509550959350505050565b7f000000000000000000000000000000000000000000000000000000000000000081565b600760009054906101000a90046fffffffffffffffffffffffffffffffff1681565b600160009054906101000a900473ffffffffffffffffffffffffffffffffffffffff1673ffffffffffffffffffffffffffffffffffffffff163373ffffffffffffffffffffffffffffffffffffffff161461134d57600080fd5b6000600160166101000a81548160ff021916908315150217905550565b600160149054906101000a900460ff1681565b7f000000000000000000000000000000000000000000000000000000000000000081565b6060806113ac612fcf565b6114686113b7613029565b858580806020026020016040519081016040528093929190818152602001838360200280828437600081840152601f19601f82011690508083019250505050505050600360000160149054906101000a900460020b600360000160179054906101000a900461ffff16600760009054906101000a90046fffffffffffffffffffffffffffffffff16600360000160199054906101000a900461ffff16600b613031909695949392919063ffffffff16565b915091509250929050565b60096020528060005260406000206000915090505481565b60038060000160009054906101000a900473ffffffffffffffffffffffffffffffffffffffff16908060000160149054906101000a900460020b908060000160179054906101000a900461ffff16908060000160199054906101000a900461ffff169080600001601b9054906101000a900461ffff169080600001601d9054906101000a900460ff169080600001601e9054906101000a900460ff16905087565b6003600001601e9054906101000a900460ff1661157e576040517f08c379a000000000000000000000000000000000000000000000000000000000815260040161157590616b5f565b60405180910390fd5b60006003600001601e6101000a81548160ff0219169083151502179055506115a4612fcf565b60016003600001601e6101000a81548160ff021916908315150217905550505050505050565b7f000000000000000000000000000000000000000000000000000000000000000081565b600160009054906101000a900473ffffffffffffffffffffffffffffffffffffffff1673ffffffffffffffffffffffffffffffffffffffff163373ffffffffffffffffffffffffffffffffffffffff161461164857600080fd5b60018060166101000a81548160ff021916908315150217905550565b7f000000000000000000000000000000000000000000000000000000000000000081565b600160169054906101000a900460ff1681565b6000806003600001601e9054906101000a900460ff166116f0576040517f08c379a00000000000000000000000000000000000000000000000000000000081526004016116e790616b5f565b60405180910390fd5b60006003600001601e6101000a81548160ff021916908315150217905550600260003373ffffffffffffffffffffffffffffffffffffffff1673ffffffffffffffffffffffffffffffffffffffff16815260200190815260200160002060000160009054906101000a90046fffffffffffffffffffffffffffffffff169150600260003373ffffffffffffffffffffffffffffffffffffffff1673ffffffffffffffffffffffffffffffffffffffff16815260200190815260200160002060000160109054906101000a90046fffffffffffffffffffffffffffffffff1690506000826fffffffffffffffffffffffffffffffff16111561192857600660000160009054906101000a90046fffffffffffffffffffffffffffffffff166fffffffffffffffffffffffffffffffff16826fffffffffffffffffffffffffffffffff1603611847576001826118449190616da2565b91505b81600260003373ffffffffffffffffffffffffffffffffffffffff1673ffffffffffffffffffffffffffffffffffffffff16815260200190815260200160002060000160008282829054906101000a90046fffffffffffffffffffffffffffffffff166118b49190616da2565b92506101000a8154816fffffffffffffffffffffffffffffffff02191690836fffffffffffffffffffffffffffffffff1602179055506119277f000000000000000000000000000000000000000000000000000000000000000033846fffffffffffffffffffffffffffffffff16612e7a565b5b6000816fffffffffffffffffffffffffffffffff161115611a8057600660000160109054906101000a90046fffffffffffffffffffffffffffffffff166fffffffffffffffffffffffffffffffff16816fffffffffffffffffffffffffffffffff160361199f5760018161199c9190616da2565b90505b80600260003373ffffffffffffffffffffffffffffffffffffffff1673ffffffffffffffffffffffffffffffffffffffff16815260200190815260200160002060000160108282829054906101000a90046fffffffffffffffffffffffffffffffff16611a0c9190616da2565b92506101000a8154816fffffffffffffffffffffffffffffffff02191690836fffffffffffffffffffffffffffffffff160217905550611a7f7f000000000000000000000000000000000000000000000000000000000000000033836fffffffffffffffffffffffffffffffff16612e7a565b5b3373ffffffffffffffffffffffffffffffffffffffff163373ffffffffffffffffffffffffffffffffffffffff167f596b573906218d3411850b26a6b437d6c4522fdb43d2d2386263f86d50b8b1518484604051611adf929190616012565b60405180910390a360016003600001601e6101000a81548160ff0219169083151502179055509091565b60055481565b6000806003600001601e9054906101000a900460ff16611b64576040517f08c379a0000000000000000000000000000000000000000000000000000000008152600401611b5b90616b5f565b60405180910390fd5b60006003600001601e6101000a81548160ff0219169083151502179055506000806000611bd860405180608001604052803373ffffffffffffffffffffffffffffffffffffffff1681526020018a60020b81526020018960020b815260200188611bcd90616e1d565b600f0b81525061287a565b92509250925081611be890616e65565b945080611bf490616e65565b93506000851180611c055750600084115b15611cdf57848360030160009054906101000a90046fffffffffffffffffffffffffffffffff16611c369190616ead565b848460030160109054906101000a90046fffffffffffffffffffffffffffffffff16611c629190616ead565b8460030160008660030160108491906101000a8154816fffffffffffffffffffffffffffffffff02191690836fffffffffffffffffffffffffffffffff1602179055508391906101000a8154816fffffffffffffffffffffffffffffffff02191690836fffffffffffffffffffffffffffffffff16021790555050505b8660020b8860020b3373ffffffffffffffffffffffffffffffffffffffff167f0c396cd989a39f4459b5fa1aed6a9a8dcdbc45908acfd67e028cd568da98982c898989604051611d3193929190616ef1565b60405180910390a450505060016003600001601e6101000a81548160ff021916908315150217905550935093915050565b6000806000611d6f612fcf565b611d7985856131d8565b6000806000806000806000600860008d60020b60020b815260200190815260200160002090506000600860008d60020b60020b8152602001908152602001600020905060008260030160009054906101000a900460060b8360030160079054906101000a900473ffffffffffffffffffffffffffffffffffffffff1684600301601b9054906101000a900463ffffffff1685600301601f9054906101000a900460ff16809450819850829a50839c505050505080611e3657600080fd5b60008260030160009054906101000a900460060b8360030160079054906101000a900473ffffffffffffffffffffffffffffffffffffffff1684600301601b9054906101000a900463ffffffff1685600301601f9054906101000a900460ff16809450819850829a50839c505050505080611eb057600080fd5b50505050600060036040518060e00160405290816000820160009054906101000a900473ffffffffffffffffffffffffffffffffffffffff1673ffffffffffffffffffffffffffffffffffffffff1673ffffffffffffffffffffffffffffffffffffffff1681526020016000820160149054906101000a900460020b60020b60020b81526020016000820160179054906101000a900461ffff1661ffff1661ffff1681526020016000820160199054906101000a900461ffff1661ffff1661ffff16815260200160008201601b9054906101000a900461ffff1661ffff1661ffff16815260200160008201601d9054906101000a900460ff1660ff1660ff16815260200160008201601e9054906101000a900460ff16151515158152505090508b60020b816020015160020b1215612018578587611fee9190616f28565b8486611ffa9190616f87565b83856120069190616fcf565b99509950995050505050505050612112565b8a60020b816020015160020b12156120e0576000612034613029565b905060008061208283600086602001518760400151600760009054906101000a90046fffffffffffffffffffffffffffffffff168960600151600b6132ff909695949392919063ffffffff16565b91509150888a836120939190616f28565b61209d9190616f28565b8789836120aa9190616f87565b6120b49190616f87565b8688866120c19190616fcf565b6120cb9190616fcf565b9c509c509c5050505050505050505050612112565b86866120ec9190616f28565b85856120f89190616f87565b84846121049190616fcf565b995099509950505050505050505b9250925092565b600080612124612fcf565b97509795505050505050565b60008060000160009054906101000a900460ff16908060000160019054906101000a900460ff16908060000160029054906101000a900460ff16908060000160039054906101000a900460ff16905084565b600160159054906101000a900460ff1681565b6003600001601e9054906101000a900460ff166121e7576040517f08c379a00000000000000000000000000000000000000000000000000000000081526004016121de90616b5f565b60405180910390fd5b60006003600001601e6101000a81548160ff02191690831515021790555061220d612fcf565b60006003600001601b9054906101000a900461ffff169050600061223d8284600b61356c9092919063ffffffff16565b9050806003600001601b6101000a81548161ffff021916908361ffff1602179055508061ffff168261ffff16146122a8577fac49e518f90a358f652e4400164f05a5d8f7e35e7747279bc3a93dbf584e125a828260405161229f929190617007565b60405180910390a15b505060016003600001601e6101000a81548160ff02191690831515021790555050565b6003600001601e9054906101000a900460ff1661231d576040517f08c379a000000000000000000000000000000000000000000000000000000000815260040161231490616b5f565b60405180910390fd5b60006003600001601e6101000a81548160ff021916908315150217905550600115157f000000000000000000000000000000000000000000000000000000000000000073ffffffffffffffffffffffffffffffffffffffff16631487f2526040518163ffffffff1660e01b8152600401602060405180830381865afa1580156123aa573d6000803e3d6000fd5b505050506040513d601f19601f820116820180604052508101906123ce9190616b94565b1515146123da57600080fd5b6064818385876123ea9190616bf0565b6123f49190616bf0565b6123fe9190616bf0565b60ff1614612441576040517f08c379a00000000000000000000000000000000000000000000000000000000081526004016124389061707c565b60405180910390fd5b60405180608001604052808560ff1681526020018460ff1681526020018360ff1681526020018260ff168152506000808201518160000160006101000a81548160ff021916908360ff16021790555060208201518160000160016101000a81548160ff021916908360ff16021790555060408201518160000160026101000a81548160ff021916908360ff16021790555060608201518160000160036101000a81548160ff021916908360ff16021790555090505060016003600001601e6101000a81548160ff02191690831515021790555050505050565b7f000000000000000000000000000000000000000000000000000000000000000081565b6000600360000160009054906101000a900473ffffffffffffffffffffffffffffffffffffffff1673ffffffffffffffffffffffffffffffffffffffff16146125bc576040517f08c379a00000000000000000000000000000000000000000000000000000000081526004016125b3906170e8565b60405180910390fd5b60006125c78261363c565b90506000806125e76125d7613029565b600b613a3b90919063ffffffff16565b915091506040518060e001604052808573ffffffffffffffffffffffffffffffffffffffff1681526020018460020b8152602001600061ffff1681526020018361ffff1681526020018261ffff168152602001600060ff16815260200160011515815250600360008201518160000160006101000a81548173ffffffffffffffffffffffffffffffffffffffff021916908373ffffffffffffffffffffffffffffffffffffffff16021790555060208201518160000160146101000a81548162ffffff021916908360020b62ffffff16021790555060408201518160000160176101000a81548161ffff021916908361ffff16021790555060608201518160000160196101000a81548161ffff021916908361ffff160217905550608082015181600001601b6101000a81548161ffff021916908361ffff16021790555060a082015181600001601d6101000a81548160ff021916908360ff16021790555060c082015181600001601e6101000a81548160ff0219169083151502179055509050507f98636036cb66a9c19a37435efc1e90142190214e8abeb821bdba3f2990dd4c95848460405161279a929190617108565b60405180910390a150505050565b60008082837ffffffffffffffffffffffffffffffffffffffffffffffffffffffffffff276186127d89190617131565b6127e2919061719b565b9050600083847ffffffffffffffffffffffffffffffffffffffffffffffffffffffffffff27618612812906171d8565b61281c9190617131565b612826919061719b565b9050600060018584846128399190617220565b6128439190617131565b61284d919061727b565b90508062ffffff166fffffffffffffffffffffffffffffffff61287091906172b2565b9350505050919050565b6000806000612887612fcf565b612899846020015185604001516131d8565b600060036040518060e00160405290816000820160009054906101000a900473ffffffffffffffffffffffffffffffffffffffff1673ffffffffffffffffffffffffffffffffffffffff1673ffffffffffffffffffffffffffffffffffffffff1681526020016000820160149054906101000a900460020b60020b60020b81526020016000820160179054906101000a900461ffff1661ffff1661ffff1681526020016000820160199054906101000a900461ffff1661ffff1661ffff16815260200160008201601b9054906101000a900461ffff1661ffff1661ffff16815260200160008201601d9054906101000a900460ff1660ff1660ff16815260200160008201601e9054906101000a900460ff16151515158152505090506129d685600001518660200151876040015188606001518560200151613b68565b935060008560600151600f0b14612b9957846020015160020b816020015160020b1215612a2b57612a24612a0d8660200151613dc4565b612a1a8760400151613dc4565b876060015161428f565b9250612b98565b846040015160020b816020015160020b1215612b6d576000600760009054906101000a90046fffffffffffffffffffffffffffffffff169050612a998260400151612a74613029565b84602001518486606001518760800151600b6142e6909695949392919063ffffffff16565b60036000016017600360000160198491906101000a81548161ffff021916908361ffff1602179055508391906101000a81548161ffff021916908361ffff1602179055505050612afe8260000151612af48860400151613dc4565b886060015161428f565b9350612b1f612b108760200151613dc4565b83600001518860600151614531565b9250612b2f818760600151614588565b600760006101000a8154816fffffffffffffffffffffffffffffffff02191690836fffffffffffffffffffffffffffffffff16021790555050612b97565b612b94612b7d8660200151613dc4565b612b8a8760400151613dc4565b8760600151614531565b91505b5b5b509193909250565b60008060007f000000000000000000000000000000000000000000000000000000000000000073ffffffffffffffffffffffffffffffffffffffff166370a0823160e01b30604051602401612bf69190615d46565b604051602081830303815290604052907bffffffffffffffffffffffffffffffffffffffffffffffffffffffff19166020820180517bffffffffffffffffffffffffffffffffffffffffffffffffffffffff8381831617835250505050604051612c609190617354565b600060405180830381855afa9150503d8060008114612c9b576040519150601f19603f3d011682016040523d82523d6000602084013e612ca0565b606091505b5091509150818015612cb457506020815110155b612cbd57600080fd5b80806020019051810190612cd19190617380565b9250505090565b60008060007f000000000000000000000000000000000000000000000000000000000000000073ffffffffffffffffffffffffffffffffffffffff166370a0823160e01b30604051602401612d2d9190615d46565b604051602081830303815290604052907bffffffffffffffffffffffffffffffffffffffffffffffffffffffff19166020820180517bffffffffffffffffffffffffffffffffffffffffffffffffffffffff8381831617835250505050604051612d979190617354565b600060405180830381855afa9150503d8060008114612dd2576040519150601f19603f3d011682016040523d82523d6000602084013e612dd7565b606091505b5091509150818015612deb57506020815110155b612df457600080fd5b80806020019051810190612e089190617380565b9250505090565b6000828284612e1e91906173ad565b9150811015612e2c57600080fd5b92915050565b6000846000858585604051602001612e4c9392919061745f565b6040516020818303038152906040528051906020012081526020019081526020016000209050949350505050565b6000808473ffffffffffffffffffffffffffffffffffffffff1663a9059cbb60e01b8585604051602401612eaf92919061749c565b604051602081830303815290604052907bffffffffffffffffffffffffffffffffffffffffffffffffffffffff19166020820180517bffffffffffffffffffffffffffffffffffffffffffffffffffffffff8381831617835250505050604051612f199190617354565b6000604051808303816000865af19150503d8060008114612f56576040519150601f19603f3d011682016040523d82523d6000602084013e612f5b565b606091505b5091509150818015612f895750600081511480612f88575080806020019051810190612f879190616b94565b5b5b612fc8576040517f08c379a0000000000000000000000000000000000000000000000000000000008152600401612fbf90617511565b60405180910390fd5b5050505050565b7f000000000000000000000000000000000000000000000000000000000000000073ffffffffffffffffffffffffffffffffffffffff163073ffffffffffffffffffffffffffffffffffffffff161461302757600080fd5b565b600042905090565b60608060008361ffff161161307b576040517f08c379a00000000000000000000000000000000000000000000000000000000081526004016130729061757d565b60405180910390fd5b865167ffffffffffffffff8111156130965761309561759d565b5b6040519080825280602002602001820160405280156130c45781602001602082028036833780820191505090505b509150865167ffffffffffffffff8111156130e2576130e161759d565b5b6040519080825280602002602001820160405280156131105781602001602082028036833780820191505090505b50905060005b87518110156131cb576131488a8a8a8481518110613137576131366175cc565b5b60200260200101518a8a8a8a6132ff565b84838151811061315b5761315a6175cc565b5b60200260200101848481518110613175576131746175cc565b5b602002602001018273ffffffffffffffffffffffffffffffffffffffff1673ffffffffffffffffffffffffffffffffffffffff168152508260060b60060b815250505080806131c3906175fb565b915050613116565b5097509795505050505050565b8060020b8260020b12613220576040517f08c379a00000000000000000000000000000000000000000000000000000000081526004016132179061768f565b60405180910390fd5b7ffffffffffffffffffffffffffffffffffffffffffffffffffffffffffff2761860020b8260020b1215613289576040517f08c379a0000000000000000000000000000000000000000000000000000000008152600401613280906176fb565b60405180910390fd5b7ffffffffffffffffffffffffffffffffffffffffffffffffffffffffffff276186132b3906171d8565b60020b8160020b13156132fb576040517f08c379a00000000000000000000000000000000000000000000000000000000081526004016132f290617767565b60405180910390fd5b5050565b60008060008763ffffffff1603613426576000898661ffff1661ffff811061332a576133296175cc565b5b016040518060800160405290816000820160009054906101000a900463ffffffff1663ffffffff1663ffffffff1681526020016000820160049054906101000a900460060b60060b60060b815260200160008201600b9054906101000a900473ffffffffffffffffffffffffffffffffffffffff1673ffffffffffffffffffffffffffffffffffffffff1673ffffffffffffffffffffffffffffffffffffffff16815260200160008201601f9054906101000a900460ff16151515158152505090508863ffffffff16816000015163ffffffff16146134125761340f818a8988614693565b90505b806020015181604001519250925050613560565b600087896134349190616fcf565b90506000806134488c8c858c8c8c8c61478b565b91509150816000015163ffffffff168363ffffffff1603613479578160200151826040015194509450505050613560565b806000015163ffffffff168363ffffffff16036134a6578060200151816040015194509450505050613560565b6000826000015182600001516134bc9190616fcf565b905060008360000151856134d09190616fcf565b90508060030b8260030b856020015185602001516134ee9190616f28565b6134f89190617787565b61350291906177f1565b8460200151613511919061782e565b8263ffffffff168263ffffffff16866040015186604001516135339190616f87565b61353d919061788d565b61354791906178cf565b85604001516135569190617900565b9650965050505050505b97509795505050505050565b6000808361ffff16116135b4576040517f08c379a00000000000000000000000000000000000000000000000000000000081526004016135ab9061757d565b60405180910390fd5b8261ffff168261ffff16116135cb57829050613635565b60008390505b8261ffff168161ffff161015613630576001858261ffff1661ffff81106135fb576135fa6175cc565b5b0160000160006101000a81548163ffffffff021916908363ffffffff160217905550808061362890617948565b9150506135d1565b508190505b9392505050565b60006401000276a373ffffffffffffffffffffffffffffffffffffffff168273ffffffffffffffffffffffffffffffffffffffff16101580156136be575073fffd8963efd1fc6a506488495d951d5263988d2673ffffffffffffffffffffffffffffffffffffffff168273ffffffffffffffffffffffffffffffffffffffff16105b6136fd576040517f08c379a00000000000000000000000000000000000000000000000000000000081526004016136f4906179be565b60405180910390fd5b600060208373ffffffffffffffffffffffffffffffffffffffff16901b9050600081905060006fffffffffffffffffffffffffffffffff821160071b808217915082811c92505067ffffffffffffffff821160061b808217915082811c92505063ffffffff821160051b808217915082811c92505061ffff821160041b808217915082811c92505060ff821160031b808217915082811c925050600f821160021b808217915082811c9250506003821160011b808217915082811c92505060018211808217915050608081106137e457607f816137da91906179de565b83901c91506137f7565b80607f6137f191906179de565b83901b91505b600060406080836138089190617a12565b901b9050828302607f1c92508260801c80603f1b8217915083811c935050828302607f1c92508260801c80603e1b8217915083811c935050828302607f1c92508260801c80603d1b8217915083811c935050828302607f1c92508260801c80603c1b8217915083811c935050828302607f1c92508260801c80603b1b8217915083811c935050828302607f1c92508260801c80603a1b8217915083811c935050828302607f1c92508260801c8060391b8217915083811c935050828302607f1c92508260801c8060381b8217915083811c935050828302607f1c92508260801c8060371b8217915083811c935050828302607f1c92508260801c8060361b8217915083811c935050828302607f1c92508260801c8060351b8217915083811c935050828302607f1c92508260801c8060341b8217915083811c935050828302607f1c92508260801c8060331b8217915083811c935050828302607f1c92508260801c8060321b82179150506000693627a301d71055774c858261398b9190617a55565b9050600060806f028f6481ab7f045a5af012a19d003aaa836139ad9190617a12565b901d9050600060806fdb2df09e81959a81455e260799a0632f846139d19190617acd565b901d90508060020b8260020b14613a2b578873ffffffffffffffffffffffffffffffffffffffff16613a0282613dc4565b73ffffffffffffffffffffffffffffffffffffffff161115613a245781613a26565b805b613a2d565b815b975050505050505050919050565b60008060405180608001604052808463ffffffff168152602001600060060b8152602001600073ffffffffffffffffffffffffffffffffffffffff1681526020016001151581525084600061ffff8110613a9857613a976175cc565b5b0160008201518160000160006101000a81548163ffffffff021916908363ffffffff16021790555060208201518160000160046101000a81548166ffffffffffffff021916908360060b66ffffffffffffff160217905550604082015181600001600b6101000a81548173ffffffffffffffffffffffffffffffffffffffff021916908373ffffffffffffffffffffffffffffffffffffffff160217905550606082015181600001601f6101000a81548160ff021916908315150217905550905050600180915091509250929050565b6000613b82868686600a612e32909392919063ffffffff16565b90506000600454905060006005549050600080600087600f0b14613d38576000613baa613029565b9050600080613c24836000600360000160149054906101000a900460020b600360000160179054906101000a900461ffff16600760009054906101000a90046fffffffffffffffffffffffffffffffff16600360000160199054906101000a900461ffff16600b6132ff909695949392919063ffffffff16565b91509150613c6f8c8a8c8a8a86888a60007f00000000000000000000000000000000000000000000000000000000000000006008614af5909a9998979695949392919063ffffffff16565b9450613cb88b8a8c8a8a86888a60017f00000000000000000000000000000000000000000000000000000000000000006008614af5909a9998979695949392919063ffffffff16565b93508415613cf757613cf68c7f00000000000000000000000000000000000000000000000000000000000000006009614dc39092919063ffffffff16565b5b8315613d3457613d338b7f00000000000000000000000000000000000000000000000000000000000000006009614dc39092919063ffffffff16565b5b5050505b600080613d578b8b8a89896008614e339095949392919063ffffffff16565b91509150613d728983838a614f42909392919063ffffffff16565b600089600f0b1215613db5578315613d9957613d988b60086152b690919063ffffffff16565b5b8215613db457613db38a60086152b690919063ffffffff16565b5b5b50505050505095945050505050565b60008060008360020b12613ddb578260020b613de9565b8260020b613de890616e65565b5b90507ffffffffffffffffffffffffffffffffffffffffffffffffffffffffffff27618613e15906171d8565b60020b811115613e5a576040517f08c379a0000000000000000000000000000000000000000000000000000000008152600401613e5190617b5d565b60405180910390fd5b6000806001831603613e7d57700100000000000000000000000000000000613e8f565b6ffffcb933bd6fad37aa2d162d1a5940015b70ffffffffffffffffffffffffffffffffff16905060006002831614613ed25760806ffff97272373d413259a46990580e213a82613ecd9190617b7d565b901c90505b60006004831614613f005760806ffff2e50f5f656932ef12357cf3c7fdcc82613efb9190617b7d565b901c90505b60006008831614613f2e5760806fffe5caca7e10e4e61c3624eaa0941cd082613f299190617b7d565b901c90505b60006010831614613f5c5760806fffcb9843d60f6159c9db58835c92664482613f579190617b7d565b901c90505b60006020831614613f8a5760806fff973b41fa98c081472e6896dfb254c082613f859190617b7d565b901c90505b60006040831614613fb85760806fff2ea16466c96a3843ec78b326b5286182613fb39190617b7d565b901c90505b60006080831614613fe65760806ffe5dee046a99a2a811c461f1969c305382613fe19190617b7d565b901c90505b60006101008316146140155760806ffcbe86c7900a88aedcffc83b479aa3a4826140109190617b7d565b901c90505b60006102008316146140445760806ff987a7253ac413176f2b074cf7815e548261403f9190617b7d565b901c90505b60006104008316146140735760806ff3392b0822b70005940c7a398e4b70f38261406e9190617b7d565b901c90505b60006108008316146140a25760806fe7159475a2c29b7443b29c7fa6e889d98261409d9190617b7d565b901c90505b60006110008316146140d15760806fd097f3bdfd2022b8845ad8f792aa5825826140cc9190617b7d565b901c90505b60006120008316146141005760806fa9f746462d870fdf8a65dc1f90e061e5826140fb9190617b7d565b901c90505b600061400083161461412f5760806f70d869a156d2a1b890bb3df62baf32f78261412a9190617b7d565b901c90505b600061800083161461415e5760806f31be135f97d08fd981231505542fcfa6826141599190617b7d565b901c90505b60006201000083161461418e5760806f09aa508b5b7a84e1c677de54f3e99bc9826141899190617b7d565b901c90505b6000620200008316146141bd5760806e5d6af8dedb81196699c329225ee604826141b89190617b7d565b901c90505b6000620400008316146141eb5760806d2216e584f5fa1ea926041bedfe98826141e69190617b7d565b901c90505b6000620800008316146142175760806b048a170391f7dc42444e8fa2826142129190617b7d565b901c90505b60008460020b131561425257807fffffffffffffffffffffffffffffffffffffffffffffffffffffffffffffffff61424f9190617bbf565b90505b6000640100000000826142659190617bf0565b14614271576001614274565b60005b60ff16602082901c61428691906173ad565b92505050919050565b60008082600f0b126142b5576142b06142ab8585856001615397565b6154d8565b6142dd565b6142d36142ce8585856142c790616e1d565b6000615397565b6154d8565b6142dc90616e65565b5b90509392505050565b6000806000898961ffff1661ffff8110614303576143026175cc565b5b016040518060800160405290816000820160009054906101000a900463ffffffff1663ffffffff1663ffffffff1681526020016000820160049054906101000a900460060b60060b60060b815260200160008201600b9054906101000a900473ffffffffffffffffffffffffffffffffffffffff1673ffffffffffffffffffffffffffffffffffffffff1673ffffffffffffffffffffffffffffffffffffffff16815260200160008201601f9054906101000a900460ff16151515158152505090508763ffffffff16816000015163ffffffff16036143e85788859250925050614525565b8461ffff168461ffff1611801561441257506001856144079190617c21565b61ffff168961ffff16145b1561441f57839150614423565b8491505b8160018a6144319190617c57565b61443b9190617c8d565b925061444981898989614693565b8a8461ffff1661ffff8110614461576144606175cc565b5b0160008201518160000160006101000a81548163ffffffff021916908363ffffffff16021790555060208201518160000160046101000a81548166ffffffffffffff021916908360060b66ffffffffffffff160217905550604082015181600001600b6101000a81548173ffffffffffffffffffffffffffffffffffffffff021916908373ffffffffffffffffffffffffffffffffffffffff160217905550606082015181600001601f6101000a81548160ff021916908315150217905550905050505b97509795505050505050565b60008082600f0b126145575761455261454d858585600161550e565b6154d8565b61457f565b61457561457085858561456990616e1d565b600061550e565b6154d8565b61457e90616e65565b5b90509392505050565b60008082600f0b121561461757826fffffffffffffffffffffffffffffffff16826145b290616e1d565b846145bd9190616da2565b9150816fffffffffffffffffffffffffffffffff1610614612576040517f08c379a000000000000000000000000000000000000000000000000000000000815260040161460990617d0a565b60405180910390fd5b61468d565b826fffffffffffffffffffffffffffffffff1682846146369190616ead565b9150816fffffffffffffffffffffffffffffffff16101561468c576040517f08c379a000000000000000000000000000000000000000000000000000000000815260040161468390617d76565b60405180910390fd5b5b92915050565b61469b615c88565b60008560000151856146ad9190616fcf565b905060405180608001604052808663ffffffff168152602001828660020b6146d59190617da3565b60030b88602001516146e7919061782e565b60060b81526020016000856fffffffffffffffffffffffffffffffff1611614710576001614712565b845b6fffffffffffffffffffffffffffffffff1660808463ffffffff1673ffffffffffffffffffffffffffffffffffffffff16901b61474f91906178cf565b886040015161475e9190617900565b73ffffffffffffffffffffffffffffffffffffffff16815260200160011515815250915050949350505050565b614793615c88565b61479b615c88565b888561ffff1661ffff81106147b3576147b26175cc565b5b016040518060800160405290816000820160009054906101000a900463ffffffff1663ffffffff1663ffffffff1681526020016000820160049054906101000a900460060b60060b60060b815260200160008201600b9054906101000a900473ffffffffffffffffffffffffffffffffffffffff1673ffffffffffffffffffffffffffffffffffffffff1673ffffffffffffffffffffffffffffffffffffffff16815260200160008201601f9054906101000a900460ff1615151515815250509150614884888360000151896155fa565b156148b7578663ffffffff16826000015163ffffffff160315614ae957816148ae83898988614693565b91509150614ae9565b88836001876148c69190617c57565b6148d09190617c8d565b61ffff1661ffff81106148e6576148e56175cc565b5b016040518060800160405290816000820160009054906101000a900463ffffffff1663ffffffff1663ffffffff1681526020016000820160049054906101000a900460060b60060b60060b815260200160008201600b9054906101000a900473ffffffffffffffffffffffffffffffffffffffff1673ffffffffffffffffffffffffffffffffffffffff1673ffffffffffffffffffffffffffffffffffffffff16815260200160008201601f9054906101000a900460ff16151515158152505091508160600151614a895788600061ffff81106149c6576149c56175cc565b5b016040518060800160405290816000820160009054906101000a900463ffffffff1663ffffffff1663ffffffff1681526020016000820160049054906101000a900460060b60060b60060b815260200160008201600b9054906101000a900473ffffffffffffffffffffffffffffffffffffffff1673ffffffffffffffffffffffffffffffffffffffff1673ffffffffffffffffffffffffffffffffffffffff16815260200160008201601f9054906101000a900460ff16151515158152505091505b614a98888360000151896155fa565b614ad7576040517f08c379a0000000000000000000000000000000000000000000000000000000008152600401614ace90617e2c565b60405180910390fd5b614ae489898988876156d4565b915091505b97509795505050505050565b6000808c60008d60020b60020b8152602001908152602001600020905060008160000160009054906101000a90046fffffffffffffffffffffffffffffffff1690506000614b43828d614588565b9050846fffffffffffffffffffffffffffffffff16816fffffffffffffffffffffffffffffffff161115614bac576040517f08c379a0000000000000000000000000000000000000000000000000000000008152600401614ba390617e98565b60405180910390fd5b6000826fffffffffffffffffffffffffffffffff161415156000826fffffffffffffffffffffffffffffffff16141515141593506000826fffffffffffffffffffffffffffffffff1603614cca578c60020b8e60020b13614cac578a8360010181905550898360020181905550888360030160076101000a81548173ffffffffffffffffffffffffffffffffffffffff021916908373ffffffffffffffffffffffffffffffffffffffff160217905550878360030160006101000a81548166ffffffffffffff021916908360060b66ffffffffffffff1602179055508683600301601b6101000a81548163ffffffff021916908363ffffffff1602179055505b600183600301601f6101000a81548160ff0219169083151502179055505b808360000160006101000a8154816fffffffffffffffffffffffffffffffff02191690836fffffffffffffffffffffffffffffffff16021790555085614d4157614d3c614d378d600f0b8560000160109054906101000a9004600f0b600f0b6159ad90919063ffffffff16565b6159d9565b614d74565b614d73614d6e8d600f0b8560000160109054906101000a9004600f0b600f0b6159f290919063ffffffff16565b6159d9565b5b8360000160106101000a8154816fffffffffffffffffffffffffffffffff0219169083600f0b6fffffffffffffffffffffffffffffffff1602179055505050509b9a5050505050505050505050565b60008183614dd19190617eb8565b60020b14614dde57600080fd5b600080614df58385614df09190617131565b615a1e565b9150915060008160ff166001901b9050808660008560010b60010b815260200190815260200160002060008282541892505081905550505050505050565b60008060008860008960020b60020b8152602001908152602001600020905060008960008960020b60020b815260200190815260200160002090506000808a60020b8960020b12614e91578360010154915083600201549050614eb6565b836001015488614ea191906179de565b9150836002015487614eb391906179de565b90505b6000808b60020b8b60020b1215614eda578460010154915084600201549050614eff565b84600101548a614eea91906179de565b9150846002015489614efc91906179de565b90505b81848b614f0c91906179de565b614f1691906179de565b975080838a614f2591906179de565b614f2f91906179de565b9650505050505050965096945050505050565b6000846040518060a00160405290816000820160009054906101000a90046fffffffffffffffffffffffffffffffff166fffffffffffffffffffffffffffffffff166fffffffffffffffffffffffffffffffff16815260200160018201548152602001600282015481526020016003820160009054906101000a90046fffffffffffffffffffffffffffffffff166fffffffffffffffffffffffffffffffff166fffffffffffffffffffffffffffffffff1681526020016003820160109054906101000a90046fffffffffffffffffffffffffffffffff166fffffffffffffffffffffffffffffffff166fffffffffffffffffffffffffffffffff1681525050905060008085600f0b036150b557600082600001516fffffffffffffffffffffffffffffffff16116150a9576040517f08c379a00000000000000000000000000000000000000000000000000000000081526004016150a090617f35565b60405180910390fd5b816000015190506150c6565b6150c3826000015186614588565b90505b60006151098360200151866150db91906179de565b84600001516fffffffffffffffffffffffffffffffff16700100000000000000000000000000000000615a40565b9050600061514e84604001518661512091906179de565b85600001516fffffffffffffffffffffffffffffffff16700100000000000000000000000000000000615a40565b9050600087600f0b1461519757828860000160006101000a8154816fffffffffffffffffffffffffffffffff02191690836fffffffffffffffffffffffffffffffff1602179055505b8588600101819055508488600201819055506000826fffffffffffffffffffffffffffffffff1611806151dc57506000816fffffffffffffffffffffffffffffffff16115b156152ac57818860030160008282829054906101000a90046fffffffffffffffffffffffffffffffff166152109190616ead565b92506101000a8154816fffffffffffffffffffffffffffffffff02191690836fffffffffffffffffffffffffffffffff160217905550808860030160108282829054906101000a90046fffffffffffffffffffffffffffffffff166152759190616ead565b92506101000a8154816fffffffffffffffffffffffffffffffff02191690836fffffffffffffffffffffffffffffffff1602179055505b5050505050505050565b8160008260020b60020b8152602001908152602001600020600080820160006101000a8154906fffffffffffffffffffffffffffffffff02191690556000820160106101000a8154906fffffffffffffffffffffffffffffffff0219169055600182016000905560028201600090556003820160006101000a81549066ffffffffffffff02191690556003820160076101000a81549073ffffffffffffffffffffffffffffffffffffffff021916905560038201601b6101000a81549063ffffffff021916905560038201601f6101000a81549060ff021916905550505050565b60008373ffffffffffffffffffffffffffffffffffffffff168573ffffffffffffffffffffffffffffffffffffffff1611156153d857838580955081965050505b6000606060ff16846fffffffffffffffffffffffffffffffff16901b9050600086866154049190616f87565b73ffffffffffffffffffffffffffffffffffffffff16905060008773ffffffffffffffffffffffffffffffffffffffff161161543f57600080fd5b8361548b578673ffffffffffffffffffffffffffffffffffffffff1661547c83838973ffffffffffffffffffffffffffffffffffffffff16615a40565b6154869190617bbf565b6154cc565b6154cb6154af83838973ffffffffffffffffffffffffffffffffffffffff16615c0a565b8873ffffffffffffffffffffffffffffffffffffffff16615c75565b5b92505050949350505050565b60007f8000000000000000000000000000000000000000000000000000000000000000821061550657600080fd5b819050919050565b60008373ffffffffffffffffffffffffffffffffffffffff168573ffffffffffffffffffffffffffffffffffffffff16111561554f57838580955081965050505b816155a45761559f836fffffffffffffffffffffffffffffffff1686866155769190616f87565b73ffffffffffffffffffffffffffffffffffffffff166c01000000000000000000000000615a40565b6155f0565b6155ef836fffffffffffffffffffffffffffffffff1686866155c69190616f87565b73ffffffffffffffffffffffffffffffffffffffff166c01000000000000000000000000615c0a565b5b9050949350505050565b60008363ffffffff168363ffffffff161115801561562457508363ffffffff168263ffffffff1611155b15615640578163ffffffff168363ffffffff16111590506156cd565b60008463ffffffff168463ffffffff1611615671576401000000008463ffffffff1661566c9190617f66565b615679565b8363ffffffff165b64ffffffffff16905060008563ffffffff168463ffffffff16116156b3576401000000008463ffffffff166156ae9190617f66565b6156bb565b8363ffffffff165b64ffffffffff16905080821115925050505b9392505050565b6156dc615c88565b6156e4615c88565b6000836001866156f49190617c57565b6156fe9190617c8d565b61ffff169050600060018561ffff168361571891906173ad565b61572291906179de565b905060005b6001156159a0576002828461573c91906173ad565b6157469190617bbf565b9050898661ffff16826157599190617bf0565b61ffff811061576b5761576a6175cc565b5b016040518060800160405290816000820160009054906101000a900463ffffffff1663ffffffff1663ffffffff1681526020016000820160049054906101000a900460060b60060b60060b815260200160008201600b9054906101000a900473ffffffffffffffffffffffffffffffffffffffff1673ffffffffffffffffffffffffffffffffffffffff1673ffffffffffffffffffffffffffffffffffffffff16815260200160008201601f9054906101000a900460ff1615151515815250509450846060015161584a5760018161584391906173ad565b9250615727565b898661ffff1660018361585d91906173ad565b6158679190617bf0565b61ffff8110615879576158786175cc565b5b016040518060800160405290816000820160009054906101000a900463ffffffff1663ffffffff1663ffffffff1681526020016000820160049054906101000a900460060b60060b60060b815260200160008201600b9054906101000a900473ffffffffffffffffffffffffffffffffffffffff1673ffffffffffffffffffffffffffffffffffffffff1673ffffffffffffffffffffffffffffffffffffffff16815260200160008201601f9054906101000a900460ff1615151515815250509350600061594c8a87600001518b6155fa565b905080801561596657506159658a8a87600001516155fa565b5b1561597157506159a0565b8061598a5760018261598391906179de565b925061599a565b60018261599791906173ad565b93505b50615727565b5050509550959350505050565b60008082121515158383856159c29190617acd565b92508212151515146159d357600080fd5b92915050565b60008182915081600f0b146159ed57600080fd5b919050565b6000808212151515838385615a079190617a12565b9250821315151514615a1857600080fd5b92915050565b60008060088360020b901d915061010083615a399190617f9f565b9050915091565b6000806000801985870985870292508281108382030391505060008103615a7a5760008411615a6e57600080fd5b83820492505050615c03565b808411615a8657600080fd5b60008486880990508281118203915080830392506000856001877fffffffffffffffffffffffffffffffffffffffffffffffffffffffffffffffff615acb91906179de565b615ad591906173ad565b1690508086049550808404935060018182600003040190508083615af99190617b7d565b8417935060006002876003615b0e9190617b7d565b1890508087615b1d9190617b7d565b6002615b2991906179de565b81615b349190617b7d565b90508087615b429190617b7d565b6002615b4e91906179de565b81615b599190617b7d565b90508087615b679190617b7d565b6002615b7391906179de565b81615b7e9190617b7d565b90508087615b8c9190617b7d565b6002615b9891906179de565b81615ba39190617b7d565b90508087615bb19190617b7d565b6002615bbd91906179de565b81615bc89190617b7d565b90508087615bd69190617b7d565b6002615be291906179de565b81615bed9190617b7d565b90508085615bfb9190617b7d565b955050505050505b9392505050565b6000615c17848484615a40565b905060008280615c2a57615c29616c25565b5b8486091115615c6e577fffffffffffffffffffffffffffffffffffffffffffffffffffffffffffffffff8110615c5f57600080fd5b8080615c6a906175fb565b9150505b9392505050565b6000808284061182840401905092915050565b6040518060800160405280600063ffffffff168152602001600060060b8152602001600073ffffffffffffffffffffffffffffffffffffffff1681526020016000151581525090565b6000819050919050565b615ce481615cd1565b82525050565b6000602082019050615cff6000830184615cdb565b92915050565b600073ffffffffffffffffffffffffffffffffffffffff82169050919050565b6000615d3082615d05565b9050919050565b615d4081615d25565b82525050565b6000602082019050615d5b6000830184615d37565b92915050565b600080fd5b600080fd5b600060ff82169050919050565b615d8181615d6b565b8114615d8c57600080fd5b50565b600081359050615d9e81615d78565b92915050565b60008060408385031215615dbb57615dba615d61565b5b6000615dc985828601615d8f565b9250506020615dda85828601615d8f565b9150509250929050565b615ded81615cd1565b8114615df857600080fd5b50565b600081359050615e0a81615de4565b92915050565b600060208284031215615e2657615e25615d61565b5b6000615e3484828501615dfb565b91505092915050565b600063ffffffff82169050919050565b615e5681615e3d565b82525050565b60008160060b9050919050565b615e7281615e5c565b82525050565b615e8181615d05565b82525050565b60008115159050919050565b615e9c81615e87565b82525050565b6000608082019050615eb76000830187615e4d565b615ec46020830186615e69565b615ed16040830185615e78565b615ede6060830184615e93565b95945050505050565b60008160020b9050919050565b615efd81615ee7565b8114615f0857600080fd5b50565b600081359050615f1a81615ef4565b92915050565b600060208284031215615f3657615f35615d61565b5b6000615f4484828501615f0b565b91505092915050565b60006fffffffffffffffffffffffffffffffff82169050919050565b615f7281615f4d565b82525050565b600081600f0b9050919050565b615f8e81615f78565b82525050565b600061010082019050615faa600083018b615f69565b615fb7602083018a615f85565b615fc46040830189615cdb565b615fd16060830188615cdb565b615fde6080830187615e69565b615feb60a0830186615e78565b615ff860c0830185615e4d565b61600560e0830184615e93565b9998505050505050505050565b60006040820190506160276000830185615f69565b6160346020830184615f69565b9392505050565b61604481615d25565b811461604f57600080fd5b50565b6000813590506160618161603b565b92915050565b61607081615f4d565b811461607b57600080fd5b50565b60008135905061608d81616067565b92915050565b600080fd5b600080fd5b600080fd5b60008083601f8401126160b8576160b7616093565b5b8235905067ffffffffffffffff8111156160d5576160d4616098565b5b6020830191508360018202830111156160f1576160f061609d565b5b9250929050565b60008060008060008060a0878903121561611557616114615d61565b5b600061612389828a01616052565b965050602061613489828a01615f0b565b955050604061614589828a01615f0b565b945050606061615689828a0161607e565b935050608087013567ffffffffffffffff81111561617757616176615d66565b5b61618389828a016160a2565b92509250509295509295509295565b60006040820190506161a76000830185615cdb565b6161b46020830184615cdb565b9392505050565b6000819050919050565b6161ce816161bb565b81146161d957600080fd5b50565b6000813590506161eb816161c5565b92915050565b60006020828403121561620757616206615d61565b5b6000616215848285016161dc565b91505092915050565b600060a0820190506162336000830188615f69565b6162406020830187615cdb565b61624d6040830186615cdb565b61625a6060830185615f69565b6162676080830184615f69565b9695505050505050565b600080600080600060a0868803121561628d5761628c615d61565b5b600061629b88828901616052565b95505060206162ac88828901615f0b565b94505060406162bd88828901615f0b565b93505060606162ce8882890161607e565b92505060806162df8882890161607e565b9150509295509295909350565b600062ffffff82169050919050565b616304816162ec565b82525050565b600060208201905061631f60008301846162fb565b92915050565b600060208201905061633a6000830184615f69565b92915050565b61634981615d6b565b82525050565b60006020820190506163646000830184616340565b92915050565b60008083601f8401126163805761637f616093565b5b8235905067ffffffffffffffff81111561639d5761639c616098565b5b6020830191508360208202830111156163b9576163b861609d565b5b9250929050565b600080602083850312156163d7576163d6615d61565b5b600083013567ffffffffffffffff8111156163f5576163f4615d66565b5b6164018582860161636a565b92509250509250929050565b600081519050919050565b600082825260208201905092915050565b6000819050602082019050919050565b61644281615e5c565b82525050565b60006164548383616439565b60208301905092915050565b6000602082019050919050565b60006164788261640d565b6164828185616418565b935061648d83616429565b8060005b838110156164be5781516164a58882616448565b97506164b083616460565b925050600181019050616491565b5085935050505092915050565b600081519050919050565b600082825260208201905092915050565b6000819050602082019050919050565b61650081615d05565b82525050565b600061651283836164f7565b60208301905092915050565b6000602082019050919050565b6000616536826164cb565b61654081856164d6565b935061654b836164e7565b8060005b8381101561657c5781516165638882616506565b975061656e8361651e565b92505060018101905061654f565b5085935050505092915050565b600060408201905081810360008301526165a3818561646d565b905081810360208301526165b7818461652b565b90509392505050565b60008160010b9050919050565b6165d6816165c0565b81146165e157600080fd5b50565b6000813590506165f3816165cd565b92915050565b60006020828403121561660f5761660e615d61565b5b600061661d848285016165e4565b91505092915050565b61662f81615ee7565b82525050565b600061ffff82169050919050565b61664c81616635565b82525050565b600060e082019050616667600083018a615e78565b6166746020830189616626565b6166816040830188616643565b61668e6060830187616643565b61669b6080830186616643565b6166a860a0830185616340565b6166b560c0830184615e93565b98975050505050505050565b60008060008060008060a087890312156166de576166dd615d61565b5b60006166ec89828a01616052565b96505060206166fd89828a01616052565b955050604061670e89828a01615dfb565b945050606061671f89828a01615dfb565b935050608087013567ffffffffffffffff8111156167405761673f615d66565b5b61674c89828a016160a2565b92509250509295509295509295565b60006020820190506167706000830184616626565b92915050565b600060208201905061678b6000830184615e93565b92915050565b6000806000606084860312156167aa576167a9615d61565b5b60006167b886828701615f0b565b93505060206167c986828701615f0b565b92505060406167da8682870161607e565b9150509250925092565b600080604083850312156167fb576167fa615d61565b5b600061680985828601615f0b565b925050602061681a85828601615f0b565b9150509250929050565b60006060820190506168396000830186615e69565b6168466020830185615e78565b6168536040830184615e4d565b949350505050565b61686481615e87565b811461686f57600080fd5b50565b6000813590506168818161685b565b92915050565b6000819050919050565b61689a81616887565b81146168a557600080fd5b50565b6000813590506168b781616891565b92915050565b6168c681615d05565b81146168d157600080fd5b50565b6000813590506168e3816168bd565b92915050565b600080600080600080600060c0888a03121561690857616907615d61565b5b60006169168a828b01616052565b97505060206169278a828b01616052565b96505060406169388a828b01616872565b95505060606169498a828b016168a8565b945050608061695a8a828b016168d4565b93505060a088013567ffffffffffffffff81111561697b5761697a615d66565b5b6169878a828b016160a2565b925092505092959891949750929550565b6169a181616887565b82525050565b60006040820190506169bc6000830185616998565b6169c96020830184616998565b9392505050565b60006080820190506169e56000830187616340565b6169f26020830186616340565b6169ff6040830185616340565b616a0c6060830184616340565b95945050505050565b616a1e81616635565b8114616a2957600080fd5b50565b600081359050616a3b81616a15565b92915050565b600060208284031215616a5757616a56615d61565b5b6000616a6584828501616a2c565b91505092915050565b60008060008060808587031215616a8857616a87615d61565b5b6000616a9687828801615d8f565b9450506020616aa787828801615d8f565b9350506040616ab887828801615d8f565b9250506060616ac987828801615d8f565b91505092959194509250565b600060208284031215616aeb57616aea615d61565b5b6000616af9848285016168d4565b91505092915050565b600082825260208201905092915050565b7f4c4f4b0000000000000000000000000000000000000000000000000000000000600082015250565b6000616b49600383616b02565b9150616b5482616b13565b602082019050919050565b60006020820190508181036000830152616b7881616b3c565b9050919050565b600081519050616b8e8161685b565b92915050565b600060208284031215616baa57616ba9615d61565b5b6000616bb884828501616b7f565b91505092915050565b7f4e487b7100000000000000000000000000000000000000000000000000000000600052601160045260246000fd5b6000616bfb82615d6b565b9150616c0683615d6b565b9250828201905060ff811115616c1f57616c1e616bc1565b5b92915050565b7f4e487b7100000000000000000000000000000000000000000000000000000000600052601260045260246000fd5b6000616c5f82615d6b565b9150616c6a83615d6b565b925082616c7a57616c79616c25565b5b828206905092915050565b7f4d30000000000000000000000000000000000000000000000000000000000000600082015250565b6000616cbb600283616b02565b9150616cc682616c85565b602082019050919050565b60006020820190508181036000830152616cea81616cae565b9050919050565b7f4d31000000000000000000000000000000000000000000000000000000000000600082015250565b6000616d27600283616b02565b9150616d3282616cf1565b602082019050919050565b60006020820190508181036000830152616d5681616d1a565b9050919050565b6000608082019050616d726000830187615d37565b616d7f6020830186615f69565b616d8c6040830185615cdb565b616d996060830184615cdb565b95945050505050565b6000616dad82615f4d565b9150616db883615f4d565b925082820390506fffffffffffffffffffffffffffffffff811115616de057616ddf616bc1565b5b92915050565b6000606082019050616dfb6000830186615d37565b616e086020830185615f69565b616e156040830184615f69565b949350505050565b6000616e2882615f78565b91507fffffffffffffffffffffffffffffffff800000000000000000000000000000008203616e5a57616e59616bc1565b5b816000039050919050565b6000616e7082616887565b91507f80000000000000000000000000000000000000000000000000000000000000008203616ea257616ea1616bc1565b5b816000039050919050565b6000616eb882615f4d565b9150616ec383615f4d565b925082820190506fffffffffffffffffffffffffffffffff811115616eeb57616eea616bc1565b5b92915050565b6000606082019050616f066000830186615f69565b616f136020830185615cdb565b616f206040830184615cdb565b949350505050565b6000616f3382615e5c565b9150616f3e83615e5c565b92508282039050667fffffffffffff81137fffffffffffffffffffffffffffffffffffffffffffffffffff8000000000000082121715616f8157616f80616bc1565b5b92915050565b6000616f9282615d05565b9150616f9d83615d05565b9250828203905073ffffffffffffffffffffffffffffffffffffffff811115616fc957616fc8616bc1565b5b92915050565b6000616fda82615e3d565b9150616fe583615e3d565b9250828203905063ffffffff81111561700157617000616bc1565b5b92915050565b600060408201905061701c6000830185616643565b6170296020830184616643565b9392505050565b7f70726f666974736861726520636f6e666967206572726f720000000000000000600082015250565b6000617066601883616b02565b915061707182617030565b602082019050919050565b6000602082019050818103600083015261709581617059565b9050919050565b7f4149000000000000000000000000000000000000000000000000000000000000600082015250565b60006170d2600283616b02565b91506170dd8261709c565b602082019050919050565b60006020820190508181036000830152617101816170c5565b9050919050565b600060408201905061711d6000830185615e78565b61712a6020830184616626565b9392505050565b600061713c82615ee7565b915061714783615ee7565b92508261715757617156616c25565b5b600160000383147fffffffffffffffffffffffffffffffffffffffffffffffffffffffffff800000831416156171905761718f616bc1565b5b828205905092915050565b60006171a682615ee7565b91506171b183615ee7565b92508282026171bf81615ee7565b91508082146171d1576171d0616bc1565b5b5092915050565b60006171e382615ee7565b91507fffffffffffffffffffffffffffffffffffffffffffffffffffffffffff800000820361721557617214616bc1565b5b816000039050919050565b600061722b82615ee7565b915061723683615ee7565b92508282039050627fffff81137fffffffffffffffffffffffffffffffffffffffffffffffffffffffffff8000008212171561727557617274616bc1565b5b92915050565b6000617286826162ec565b9150617291836162ec565b9250828201905062ffffff8111156172ac576172ab616bc1565b5b92915050565b60006172bd82615f4d565b91506172c883615f4d565b9250826172d8576172d7616c25565b5b828204905092915050565b600081519050919050565b600081905092915050565b60005b838110156173175780820151818401526020810190506172fc565b60008484015250505050565b600061732e826172e3565b61733881856172ee565b93506173488185602086016172f9565b80840191505092915050565b60006173608284617323565b915081905092915050565b60008151905061737a81615de4565b92915050565b60006020828403121561739657617395615d61565b5b60006173a48482850161736b565b91505092915050565b60006173b882615cd1565b91506173c383615cd1565b92508282019050808211156173db576173da616bc1565b5b92915050565b60008160601b9050919050565b60006173f9826173e1565b9050919050565b600061740b826173ee565b9050919050565b61742361741e82615d25565b617400565b82525050565b60008160e81b9050919050565b600061744182617429565b9050919050565b61745961745482615ee7565b617436565b82525050565b600061746b8286617412565b60148201915061747b8285617448565b60038201915061748b8284617448565b600382019150819050949350505050565b60006040820190506174b16000830185615d37565b6174be6020830184615cdb565b9392505050565b7f5446000000000000000000000000000000000000000000000000000000000000600082015250565b60006174fb600283616b02565b9150617506826174c5565b602082019050919050565b6000602082019050818103600083015261752a816174ee565b9050919050565b7f4900000000000000000000000000000000000000000000000000000000000000600082015250565b6000617567600183616b02565b915061757282617531565b602082019050919050565b600060208201905081810360008301526175968161755a565b9050919050565b7f4e487b7100000000000000000000000000000000000000000000000000000000600052604160045260246000fd5b7f4e487b7100000000000000000000000000000000000000000000000000000000600052603260045260246000fd5b600061760682615cd1565b91507fffffffffffffffffffffffffffffffffffffffffffffffffffffffffffffffff820361763857617637616bc1565b5b600182019050919050565b7f6c6f776572206e6f74206c6f776572206f6620757070657220756e6974000000600082015250565b6000617679601d83616b02565b915061768482617643565b602082019050919050565b600060208201905081810360008301526176a88161766c565b9050919050565b7f544c4d0000000000000000000000000000000000000000000000000000000000600082015250565b60006176e5600383616b02565b91506176f0826176af565b602082019050919050565b60006020820190508181036000830152617714816176d8565b9050919050565b7f54554d0000000000000000000000000000000000000000000000000000000000600082015250565b6000617751600383616b02565b915061775c8261771b565b602082019050919050565b6000602082019050818103600083015261778081617744565b9050919050565b600061779282615e5c565b915061779d83615e5c565b9250826177ad576177ac616c25565b5b600160000383147fffffffffffffffffffffffffffffffffffffffffffffffffff80000000000000831416156177e6576177e5616bc1565b5b828205905092915050565b60006177fc82615e5c565b915061780783615e5c565b925082820261781581615e5c565b915080821461782757617826616bc1565b5b5092915050565b600061783982615e5c565b915061784483615e5c565b925082820190507fffffffffffffffffffffffffffffffffffffffffffffffffff800000000000008112667fffffffffffff8213171561788757617886616bc1565b5b92915050565b600061789882615d05565b91506178a383615d05565b92508282026178b181615d05565b915082820484148315176178c8576178c7616bc1565b5b5092915050565b60006178da82615d05565b91506178e583615d05565b9250826178f5576178f4616c25565b5b828204905092915050565b600061790b82615d05565b915061791683615d05565b9250828201905073ffffffffffffffffffffffffffffffffffffffff81111561794257617941616bc1565b5b92915050565b600061795382616635565b915061ffff820361796757617966616bc1565b5b600182019050919050565b7f5200000000000000000000000000000000000000000000000000000000000000600082015250565b60006179a8600183616b02565b91506179b382617972565b602082019050919050565b600060208201905081810360008301526179d78161799b565b9050919050565b60006179e982615cd1565b91506179f483615cd1565b9250828203905081811115617a0c57617a0b616bc1565b5b92915050565b6000617a1d82616887565b9150617a2883616887565b9250828203905081811260008412168282136000851215161715617a4f57617a4e616bc1565b5b92915050565b6000617a6082616887565b9150617a6b83616887565b9250828202617a7981616887565b91507f80000000000000000000000000000000000000000000000000000000000000008414600084121615617ab157617ab0616bc1565b5b8282058414831517617ac657617ac5616bc1565b5b5092915050565b6000617ad882616887565b9150617ae383616887565b925082820190508281121560008312168382126000841215161715617b0b57617b0a616bc1565b5b92915050565b7f5400000000000000000000000000000000000000000000000000000000000000600082015250565b6000617b47600183616b02565b9150617b5282617b11565b602082019050919050565b60006020820190508181036000830152617b7681617b3a565b9050919050565b6000617b8882615cd1565b9150617b9383615cd1565b9250828202617ba181615cd1565b91508282048414831517617bb857617bb7616bc1565b5b5092915050565b6000617bca82615cd1565b9150617bd583615cd1565b925082617be557617be4616c25565b5b828204905092915050565b6000617bfb82615cd1565b9150617c0683615cd1565b925082617c1657617c15616c25565b5b828206905092915050565b6000617c2c82616635565b9150617c3783616635565b9250828203905061ffff811115617c5157617c50616bc1565b5b92915050565b6000617c6282616635565b9150617c6d83616635565b9250828201905061ffff811115617c8757617c86616bc1565b5b92915050565b6000617c9882616635565b9150617ca383616635565b925082617cb357617cb2616c25565b5b828206905092915050565b7f4c53000000000000000000000000000000000000000000000000000000000000600082015250565b6000617cf4600283616b02565b9150617cff82617cbe565b602082019050919050565b60006020820190508181036000830152617d2381617ce7565b9050919050565b7f4c41000000000000000000000000000000000000000000000000000000000000600082015250565b6000617d60600283616b02565b9150617d6b82617d2a565b602082019050919050565b60006020820190508181036000830152617d8f81617d53565b9050919050565b60008160030b9050919050565b6000617dae82617d96565b9150617db983617d96565b9250828202617dc781617d96565b9150808214617dd957617dd8616bc1565b5b5092915050565b7f4f4c440000000000000000000000000000000000000000000000000000000000600082015250565b6000617e16600383616b02565b9150617e2182617de0565b602082019050919050565b60006020820190508181036000830152617e4581617e09565b9050919050565b7f4c4f000000000000000000000000000000000000000000000000000000000000600082015250565b6000617e82600283616b02565b9150617e8d82617e4c565b602082019050919050565b60006020820190508181036000830152617eb181617e75565b9050919050565b6000617ec382615ee7565b9150617ece83615ee7565b925082617ede57617edd616c25565b5b828207905092915050565b7f4e50000000000000000000000000000000000000000000000000000000000000600082015250565b6000617f1f600283616b02565b9150617f2a82617ee9565b602082019050919050565b60006020820190508181036000830152617f4e81617f12565b9050919050565b600064ffffffffff82169050919050565b6000617f7182617f55565b9150617f7c83617f55565b9250828201905064ffffffffff811115617f9957617f98616bc1565b5b92915050565b6000617faa826162ec565b9150617fb5836162ec565b925082617fc557617fc4616c25565b5b82820690509291505056fea2646970667358221220ff3a21e4f3a42d247147d96c36ff2eaa1f79ab9edcba4ab4236b9b12b5b068c664736f6c63430008110033",
			"opcodes": "PUSH2 0x160 PUSH1 0x40 MSTORE CALLVALUE DUP1 ISZERO PUSH3 0x12 JUMPI PUSH1 0x0 DUP1 REVERT JUMPDEST POP ADDRESS PUSH20 0xFFFFFFFFFFFFFFFFFFFFFFFFFFFFFFFFFFFFFFFF AND PUSH1 0x80 DUP2 PUSH20 0xFFFFFFFFFFFFFFFFFFFFFFFFFFFFFFFFFFFFFFFF AND DUP2 MSTORE POP POP CALLER PUSH20 0xFFFFFFFFFFFFFFFFFFFFFFFFFFFFFFFFFFFFFFFF AND PUSH4 0x2FC92452 PUSH1 0x40 MLOAD DUP2 PUSH4 0xFFFFFFFF AND PUSH1 0xE0 SHL DUP2 MSTORE PUSH1 0x4 ADD PUSH2 0x120 PUSH1 0x40 MLOAD DUP1 DUP4 SUB DUP2 DUP7 GAS STATICCALL ISZERO DUP1 ISZERO PUSH3 0x94 JUMPI RETURNDATASIZE PUSH1 0x0 DUP1 RETURNDATACOPY RETURNDATASIZE PUSH1 0x0 REVERT JUMPDEST POP POP POP POP PUSH1 0x40 MLOAD RETURNDATASIZE PUSH1 0x1F NOT PUSH1 0x1F DUP3 ADD AND DUP3 ADD DUP1 PUSH1 0x40 MSTORE POP DUP2 ADD SWAP1 PUSH3 0xBA SWAP2 SWAP1 PUSH3 0x5BA JUMP JUMPDEST PUSH1 0x0 DUP1 DUP3 SWAP2 SWAP1 POP PUSH1 0x0 DUP3 ADD MLOAD DUP2 PUSH1 0x0 ADD PUSH1 0x0 PUSH2 0x100 EXP DUP2 SLOAD DUP2 PUSH1 0xFF MUL NOT AND SWAP1 DUP4 PUSH1 0xFF AND MUL OR SWAP1 SSTORE POP PUSH1 0x20 DUP3 ADD MLOAD DUP2 PUSH1 0x0 ADD PUSH1 0x1 PUSH2 0x100 EXP DUP2 SLOAD DUP2 PUSH1 0xFF MUL NOT AND SWAP1 DUP4 PUSH1 0xFF AND MUL OR SWAP1 SSTORE POP PUSH1 0x40 DUP3 ADD MLOAD DUP2 PUSH1 0x0 ADD PUSH1 0x2 PUSH2 0x100 EXP DUP2 SLOAD DUP2 PUSH1 0xFF MUL NOT AND SWAP1 DUP4 PUSH1 0xFF AND MUL OR SWAP1 SSTORE POP PUSH1 0x60 DUP3 ADD MLOAD DUP2 PUSH1 0x0 ADD PUSH1 0x3 PUSH2 0x100 EXP DUP2 SLOAD DUP2 PUSH1 0xFF MUL NOT AND SWAP1 DUP4 PUSH1 0xFF AND MUL OR SWAP1 SSTORE POP POP POP DUP2 PUSH1 0x2 SIGNEXTEND PUSH2 0x120 SWAP1 PUSH1 0x2 SIGNEXTEND DUP2 MSTORE POP DUP3 PUSH3 0xFFFFFF AND PUSH2 0x100 SWAP1 PUSH3 0xFFFFFF AND DUP2 MSTORE POP DUP4 PUSH20 0xFFFFFFFFFFFFFFFFFFFFFFFFFFFFFFFFFFFFFFFF AND PUSH1 0xE0 SWAP1 PUSH20 0xFFFFFFFFFFFFFFFFFFFFFFFFFFFFFFFFFFFFFFFF AND DUP2 MSTORE POP DUP5 PUSH20 0xFFFFFFFFFFFFFFFFFFFFFFFFFFFFFFFFFFFFFFFF AND PUSH1 0xC0 SWAP1 PUSH20 0xFFFFFFFFFFFFFFFFFFFFFFFFFFFFFFFFFFFFFFFF AND DUP2 MSTORE POP DUP6 PUSH20 0xFFFFFFFFFFFFFFFFFFFFFFFFFFFFFFFFFFFFFFFF AND PUSH1 0xA0 SWAP1 PUSH20 0xFFFFFFFFFFFFFFFFFFFFFFFFFFFFFFFFFFFFFFFF AND DUP2 MSTORE POP POP POP POP POP POP POP PUSH1 0x0 PUSH1 0x1 PUSH1 0x15 PUSH2 0x100 EXP DUP2 SLOAD DUP2 PUSH1 0xFF MUL NOT AND SWAP1 DUP4 ISZERO ISZERO MUL OR SWAP1 SSTORE POP PUSH1 0x0 PUSH1 0x1 PUSH1 0x16 PUSH2 0x100 EXP DUP2 SLOAD DUP2 PUSH1 0xFF MUL NOT AND SWAP1 DUP4 ISZERO ISZERO MUL OR SWAP1 SSTORE POP PUSH3 0x255 PUSH2 0x120 MLOAD PUSH3 0x287 PUSH1 0x20 SHL PUSH3 0x27A8 OR PUSH1 0x20 SHR JUMP JUMPDEST PUSH16 0xFFFFFFFFFFFFFFFFFFFFFFFFFFFFFFFF AND PUSH2 0x140 DUP2 PUSH16 0xFFFFFFFFFFFFFFFFFFFFFFFFFFFFFFFF AND DUP2 MSTORE POP POP PUSH3 0x8B0 JUMP JUMPDEST PUSH1 0x0 DUP1 DUP3 DUP4 PUSH32 0xFFFFFFFFFFFFFFFFFFFFFFFFFFFFFFFFFFFFFFFFFFFFFFFFFFFFFFFFFFF27618 PUSH3 0x2B9 SWAP2 SWAP1 PUSH3 0x6B5 JUMP JUMPDEST PUSH3 0x2C5 SWAP2 SWAP1 PUSH3 0x729 JUMP JUMPDEST SWAP1 POP PUSH1 0x0 DUP4 DUP5 PUSH32 0xFFFFFFFFFFFFFFFFFFFFFFFFFFFFFFFFFFFFFFFFFFFFFFFFFFFFFFFFFFF27618 PUSH3 0x2F7 SWAP1 PUSH3 0x76F JUMP JUMPDEST PUSH3 0x303 SWAP2 SWAP1 PUSH3 0x6B5 JUMP JUMPDEST PUSH3 0x30F SWAP2 SWAP1 PUSH3 0x729 JUMP JUMPDEST SWAP1 POP PUSH1 0x0 PUSH1 0x1 DUP6 DUP5 DUP5 PUSH3 0x324 SWAP2 SWAP1 PUSH3 0x7BC JUMP JUMPDEST PUSH3 0x330 SWAP2 SWAP1 PUSH3 0x6B5 JUMP JUMPDEST PUSH3 0x33C SWAP2 SWAP1 PUSH3 0x81E JUMP JUMPDEST SWAP1 POP DUP1 PUSH3 0xFFFFFF AND PUSH16 0xFFFFFFFFFFFFFFFFFFFFFFFFFFFFFFFF PUSH3 0x361 SWAP2 SWAP1 PUSH3 0x878 JUMP JUMPDEST SWAP4 POP POP POP POP SWAP2 SWAP1 POP JUMP JUMPDEST PUSH1 0x0 PUSH1 0x40 MLOAD SWAP1 POP SWAP1 JUMP JUMPDEST PUSH1 0x0 DUP1 REVERT JUMPDEST PUSH1 0x0 PUSH20 0xFFFFFFFFFFFFFFFFFFFFFFFFFFFFFFFFFFFFFFFF DUP3 AND SWAP1 POP SWAP2 SWAP1 POP JUMP JUMPDEST PUSH1 0x0 PUSH3 0x3A7 DUP3 PUSH3 0x37A JUMP JUMPDEST SWAP1 POP SWAP2 SWAP1 POP JUMP JUMPDEST PUSH3 0x3B9 DUP2 PUSH3 0x39A JUMP JUMPDEST DUP2 EQ PUSH3 0x3C5 JUMPI PUSH1 0x0 DUP1 REVERT JUMPDEST POP JUMP JUMPDEST PUSH1 0x0 DUP2 MLOAD SWAP1 POP PUSH3 0x3D9 DUP2 PUSH3 0x3AE JUMP JUMPDEST SWAP3 SWAP2 POP POP JUMP JUMPDEST PUSH1 0x0 PUSH3 0xFFFFFF DUP3 AND SWAP1 POP SWAP2 SWAP1 POP JUMP JUMPDEST PUSH3 0x3F9 DUP2 PUSH3 0x3DF JUMP JUMPDEST DUP2 EQ PUSH3 0x405 JUMPI PUSH1 0x0 DUP1 REVERT JUMPDEST POP JUMP JUMPDEST PUSH1 0x0 DUP2 MLOAD SWAP1 POP PUSH3 0x419 DUP2 PUSH3 0x3EE JUMP JUMPDEST SWAP3 SWAP2 POP POP JUMP JUMPDEST PUSH1 0x0 DUP2 PUSH1 0x2 SIGNEXTEND SWAP1 POP SWAP2 SWAP1 POP JUMP JUMPDEST PUSH3 0x437 DUP2 PUSH3 0x41F JUMP JUMPDEST DUP2 EQ PUSH3 0x443 JUMPI PUSH1 0x0 DUP1 REVERT JUMPDEST POP JUMP JUMPDEST PUSH1 0x0 DUP2 MLOAD SWAP1 POP PUSH3 0x457 DUP2 PUSH3 0x42C JUMP JUMPDEST SWAP3 SWAP2 POP POP JUMP JUMPDEST PUSH1 0x0 DUP1 REVERT JUMPDEST PUSH1 0x0 PUSH1 0x1F NOT PUSH1 0x1F DUP4 ADD AND SWAP1 POP SWAP2 SWAP1 POP JUMP JUMPDEST PUSH32 0x4E487B7100000000000000000000000000000000000000000000000000000000 PUSH1 0x0 MSTORE PUSH1 0x41 PUSH1 0x4 MSTORE PUSH1 0x24 PUSH1 0x0 REVERT JUMPDEST PUSH3 0x4AD DUP3 PUSH3 0x462 JUMP JUMPDEST DUP2 ADD DUP2 DUP2 LT PUSH8 0xFFFFFFFFFFFFFFFF DUP3 GT OR ISZERO PUSH3 0x4CF JUMPI PUSH3 0x4CE PUSH3 0x473 JUMP JUMPDEST JUMPDEST DUP1 PUSH1 0x40 MSTORE POP POP POP JUMP JUMPDEST PUSH1 0x0 PUSH3 0x4E4 PUSH3 0x36B JUMP JUMPDEST SWAP1 POP PUSH3 0x4F2 DUP3 DUP3 PUSH3 0x4A2 JUMP JUMPDEST SWAP2 SWAP1 POP JUMP JUMPDEST PUSH1 0x0 PUSH1 0xFF DUP3 AND SWAP1 POP SWAP2 SWAP1 POP JUMP JUMPDEST PUSH3 0x50F DUP2 PUSH3 0x4F7 JUMP JUMPDEST DUP2 EQ PUSH3 0x51B JUMPI PUSH1 0x0 DUP1 REVERT JUMPDEST POP JUMP JUMPDEST PUSH1 0x0 DUP2 MLOAD SWAP1 POP PUSH3 0x52F DUP2 PUSH3 0x504 JUMP JUMPDEST SWAP3 SWAP2 POP POP JUMP JUMPDEST PUSH1 0x0 PUSH1 0x80 DUP3 DUP5 SUB SLT ISZERO PUSH3 0x54E JUMPI PUSH3 0x54D PUSH3 0x45D JUMP JUMPDEST JUMPDEST PUSH3 0x55A PUSH1 0x80 PUSH3 0x4D8 JUMP JUMPDEST SWAP1 POP PUSH1 0x0 PUSH3 0x56C DUP5 DUP3 DUP6 ADD PUSH3 0x51E JUMP JUMPDEST PUSH1 0x0 DUP4 ADD MSTORE POP PUSH1 0x20 PUSH3 0x582 DUP5 DUP3 DUP6 ADD PUSH3 0x51E JUMP JUMPDEST PUSH1 0x20 DUP4 ADD MSTORE POP PUSH1 0x40 PUSH3 0x598 DUP5 DUP3 DUP6 ADD PUSH3 0x51E JUMP JUMPDEST PUSH1 0x40 DUP4 ADD MSTORE POP PUSH1 0x60 PUSH3 0x5AE DUP5 DUP3 DUP6 ADD PUSH3 0x51E JUMP JUMPDEST PUSH1 0x60 DUP4 ADD MSTORE POP SWAP3 SWAP2 POP POP JUMP JUMPDEST PUSH1 0x0 DUP1 PUSH1 0x0 DUP1 PUSH1 0x0 DUP1 PUSH2 0x120 DUP8 DUP10 SUB SLT ISZERO PUSH3 0x5DB JUMPI PUSH3 0x5DA PUSH3 0x375 JUMP JUMPDEST JUMPDEST PUSH1 0x0 PUSH3 0x5EB DUP10 DUP3 DUP11 ADD PUSH3 0x3C8 JUMP JUMPDEST SWAP7 POP POP PUSH1 0x20 PUSH3 0x5FE DUP10 DUP3 DUP11 ADD PUSH3 0x3C8 JUMP JUMPDEST SWAP6 POP POP PUSH1 0x40 PUSH3 0x611 DUP10 DUP3 DUP11 ADD PUSH3 0x3C8 JUMP JUMPDEST SWAP5 POP POP PUSH1 0x60 PUSH3 0x624 DUP10 DUP3 DUP11 ADD PUSH3 0x408 JUMP JUMPDEST SWAP4 POP POP PUSH1 0x80 PUSH3 0x637 DUP10 DUP3 DUP11 ADD PUSH3 0x446 JUMP JUMPDEST SWAP3 POP POP PUSH1 0xA0 PUSH3 0x64A DUP10 DUP3 DUP11 ADD PUSH3 0x535 JUMP JUMPDEST SWAP2 POP POP SWAP3 SWAP6 POP SWAP3 SWAP6 POP SWAP3 SWAP6 JUMP JUMPDEST PUSH32 0x4E487B7100000000000000000000000000000000000000000000000000000000 PUSH1 0x0 MSTORE PUSH1 0x12 PUSH1 0x4 MSTORE PUSH1 0x24 PUSH1 0x0 REVERT JUMPDEST PUSH32 0x4E487B7100000000000000000000000000000000000000000000000000000000 PUSH1 0x0 MSTORE PUSH1 0x11 PUSH1 0x4 MSTORE PUSH1 0x24 PUSH1 0x0 REVERT JUMPDEST PUSH1 0x0 PUSH3 0x6C2 DUP3 PUSH3 0x41F JUMP JUMPDEST SWAP2 POP PUSH3 0x6CF DUP4 PUSH3 0x41F JUMP JUMPDEST SWAP3 POP DUP3 PUSH3 0x6E2 JUMPI PUSH3 0x6E1 PUSH3 0x657 JUMP JUMPDEST JUMPDEST PUSH1 0x1 PUSH1 0x0 SUB DUP4 EQ PUSH32 0xFFFFFFFFFFFFFFFFFFFFFFFFFFFFFFFFFFFFFFFFFFFFFFFFFFFFFFFFFF800000 DUP4 EQ AND ISZERO PUSH3 0x71E JUMPI PUSH3 0x71D PUSH3 0x686 JUMP JUMPDEST JUMPDEST DUP3 DUP3 SDIV SWAP1 POP SWAP3 SWAP2 POP POP JUMP JUMPDEST PUSH1 0x0 PUSH3 0x736 DUP3 PUSH3 0x41F JUMP JUMPDEST SWAP2 POP PUSH3 0x743 DUP4 PUSH3 0x41F JUMP JUMPDEST SWAP3 POP DUP3 DUP3 MUL PUSH3 0x753 DUP2 PUSH3 0x41F JUMP JUMPDEST SWAP2 POP DUP1 DUP3 EQ PUSH3 0x768 JUMPI PUSH3 0x767 PUSH3 0x686 JUMP JUMPDEST JUMPDEST POP SWAP3 SWAP2 POP POP JUMP JUMPDEST PUSH1 0x0 PUSH3 0x77C DUP3 PUSH3 0x41F JUMP JUMPDEST SWAP2 POP PUSH32 0xFFFFFFFFFFFFFFFFFFFFFFFFFFFFFFFFFFFFFFFFFFFFFFFFFFFFFFFFFF800000 DUP3 SUB PUSH3 0x7B1 JUMPI PUSH3 0x7B0 PUSH3 0x686 JUMP JUMPDEST JUMPDEST DUP2 PUSH1 0x0 SUB SWAP1 POP SWAP2 SWAP1 POP JUMP JUMPDEST PUSH1 0x0 PUSH3 0x7C9 DUP3 PUSH3 0x41F JUMP JUMPDEST SWAP2 POP PUSH3 0x7D6 DUP4 PUSH3 0x41F JUMP JUMPDEST SWAP3 POP DUP3 DUP3 SUB SWAP1 POP PUSH3 0x7FFFFF DUP2 SGT PUSH32 0xFFFFFFFFFFFFFFFFFFFFFFFFFFFFFFFFFFFFFFFFFFFFFFFFFFFFFFFFFF800000 DUP3 SLT OR ISZERO PUSH3 0x818 JUMPI PUSH3 0x817 PUSH3 0x686 JUMP JUMPDEST JUMPDEST SWAP3 SWAP2 POP POP JUMP JUMPDEST PUSH1 0x0 PUSH3 0x82B DUP3 PUSH3 0x3DF JUMP JUMPDEST SWAP2 POP PUSH3 0x838 DUP4 PUSH3 0x3DF JUMP JUMPDEST SWAP3 POP DUP3 DUP3 ADD SWAP1 POP PUSH3 0xFFFFFF DUP2 GT ISZERO PUSH3 0x856 JUMPI PUSH3 0x855 PUSH3 0x686 JUMP JUMPDEST JUMPDEST SWAP3 SWAP2 POP POP JUMP JUMPDEST PUSH1 0x0 PUSH16 0xFFFFFFFFFFFFFFFFFFFFFFFFFFFFFFFF DUP3 AND SWAP1 POP SWAP2 SWAP1 POP JUMP JUMPDEST PUSH1 0x0 PUSH3 0x885 DUP3 PUSH3 0x85C JUMP JUMPDEST SWAP2 POP PUSH3 0x892 DUP4 PUSH3 0x85C JUMP JUMPDEST SWAP3 POP DUP3 PUSH3 0x8A5 JUMPI PUSH3 0x8A4 PUSH3 0x657 JUMP JUMPDEST JUMPDEST DUP3 DUP3 DIV SWAP1 POP SWAP3 SWAP2 POP POP JUMP JUMPDEST PUSH1 0x80 MLOAD PUSH1 0xA0 MLOAD PUSH1 0xC0 MLOAD PUSH1 0xE0 MLOAD PUSH2 0x100 MLOAD PUSH2 0x120 MLOAD PUSH2 0x140 MLOAD PUSH2 0x8006 PUSH3 0x96D PUSH1 0x0 CODECOPY PUSH1 0x0 DUP2 DUP2 PUSH2 0x15CC ADD MSTORE DUP2 DUP2 PUSH2 0x3C37 ADD MSTORE PUSH2 0x3C80 ADD MSTORE PUSH1 0x0 DUP2 DUP2 PUSH2 0x1666 ADD MSTORE DUP2 DUP2 PUSH2 0x3CC6 ADD MSTORE PUSH2 0x3D03 ADD MSTORE PUSH1 0x0 PUSH2 0x12AF ADD MSTORE PUSH1 0x0 DUP2 DUP2 PUSH2 0x11F1 ADD MSTORE DUP2 DUP2 PUSH2 0x1A47 ADD MSTORE DUP2 DUP2 PUSH2 0x251C ADD MSTORE PUSH2 0x2CDF ADD MSTORE PUSH1 0x0 DUP2 DUP2 PUSH2 0x6DB ADD MSTORE DUP2 DUP2 PUSH2 0x1133 ADD MSTORE DUP2 DUP2 PUSH2 0x18EF ADD MSTORE PUSH2 0x2BA8 ADD MSTORE PUSH1 0x0 DUP2 DUP2 PUSH2 0x799 ADD MSTORE DUP2 DUP2 PUSH2 0x94F ADD MSTORE DUP2 DUP2 PUSH2 0xDF5 ADD MSTORE DUP2 DUP2 PUSH2 0x137F ADD MSTORE PUSH2 0x2341 ADD MSTORE PUSH1 0x0 PUSH2 0x2FD1 ADD MSTORE PUSH2 0x8006 PUSH1 0x0 RETURN INVALID PUSH1 0x80 PUSH1 0x40 MSTORE CALLVALUE DUP1 ISZERO PUSH2 0x10 JUMPI PUSH1 0x0 DUP1 REVERT JUMPDEST POP PUSH1 0x4 CALLDATASIZE LT PUSH2 0x21C JUMPI PUSH1 0x0 CALLDATALOAD PUSH1 0xE0 SHR DUP1 PUSH4 0x8860D1CD GT PUSH2 0x125 JUMPI DUP1 PUSH4 0xA34123A7 GT PUSH2 0xAD JUMPI DUP1 PUSH4 0xB1592590 GT PUSH2 0x7C JUMPI DUP1 PUSH4 0xB1592590 EQ PUSH2 0x643 JUMPI DUP1 PUSH4 0xB23AE19B EQ PUSH2 0x661 JUMPI DUP1 PUSH4 0xBA66E6DC EQ PUSH2 0x67D JUMPI DUP1 PUSH4 0xC55E90FE EQ PUSH2 0x699 JUMPI DUP1 PUSH4 0xF637731D EQ PUSH2 0x6B7 JUMPI PUSH2 0x21C JUMP JUMPDEST DUP1 PUSH4 0xA34123A7 EQ PUSH2 0x58E JUMPI DUP1 PUSH4 0xA38807F2 EQ PUSH2 0x5BF JUMPI DUP1 PUSH4 0xA98B22C1 EQ PUSH2 0x5F1 JUMPI DUP1 PUSH4 0xAFB62FEF EQ PUSH2 0x622 JUMPI PUSH2 0x21C JUMP JUMPDEST DUP1 PUSH4 0x8F919198 GT PUSH2 0xF4 JUMPI DUP1 PUSH4 0x8F919198 EQ PUSH2 0x50B JUMPI DUP1 PUSH4 0x92C4545C EQ PUSH2 0x515 JUMPI DUP1 PUSH4 0x92CC393C EQ PUSH2 0x533 JUMPI DUP1 PUSH4 0x95F01F3F EQ PUSH2 0x551 JUMPI DUP1 PUSH4 0xA30070E6 EQ PUSH2 0x570 JUMPI PUSH2 0x21C JUMP JUMPDEST DUP1 PUSH4 0x8860D1CD EQ PUSH2 0x47D JUMPI DUP1 PUSH4 0x8B2EA554 EQ PUSH2 0x4AD JUMPI DUP1 PUSH4 0x8CC2CE60 EQ PUSH2 0x4D1 JUMPI DUP1 PUSH4 0x8D79DDCB EQ PUSH2 0x4ED JUMPI PUSH2 0x21C JUMP JUMPDEST DUP1 PUSH4 0x3D02A292 GT PUSH2 0x1A8 JUMPI DUP1 PUSH4 0x6A0B2B23 GT PUSH2 0x177 JUMPI DUP1 PUSH4 0x6A0B2B23 EQ PUSH2 0x3E8 JUMPI DUP1 PUSH4 0x6ACA362D EQ PUSH2 0x406 JUMPI DUP1 PUSH4 0x6E62D0A8 EQ PUSH2 0x410 JUMPI DUP1 PUSH4 0x80F55605 EQ PUSH2 0x42E JUMPI DUP1 PUSH4 0x883BDBFD EQ PUSH2 0x44C JUMPI PUSH2 0x21C JUMP JUMPDEST DUP1 PUSH4 0x3D02A292 EQ PUSH2 0x35B JUMPI DUP1 PUSH4 0x444D95B0 EQ PUSH2 0x365 JUMPI DUP1 PUSH4 0x4F1EB3D8 EQ PUSH2 0x399 JUMPI DUP1 PUSH4 0x66D16CC3 EQ PUSH2 0x3CA JUMPI PUSH2 0x21C JUMP JUMPDEST DUP1 PUSH4 0x208537FF GT PUSH2 0x1EF JUMPI DUP1 PUSH4 0x208537FF EQ PUSH2 0x297 JUMPI DUP1 PUSH4 0x2AD1BAAB EQ PUSH2 0x2A1 JUMPI DUP1 PUSH4 0x317DFB06 EQ PUSH2 0x2D4 JUMPI DUP1 PUSH4 0x3659BB4E EQ PUSH2 0x30B JUMPI DUP1 PUSH4 0x3C8A7D8D EQ PUSH2 0x32A JUMPI PUSH2 0x21C JUMP JUMPDEST DUP1 PUSH4 0x1B29351 EQ PUSH2 0x221 JUMPI DUP1 PUSH4 0x11DF9995 EQ PUSH2 0x23F JUMPI DUP1 PUSH4 0x166D6021 EQ PUSH2 0x25D JUMPI DUP1 PUSH4 0x1A86B0E9 EQ PUSH2 0x27B JUMPI JUMPDEST PUSH1 0x0 DUP1 REVERT JUMPDEST PUSH2 0x229 PUSH2 0x6D3 JUMP JUMPDEST PUSH1 0x40 MLOAD PUSH2 0x236 SWAP2 SWAP1 PUSH2 0x5CEA JUMP JUMPDEST PUSH1 0x40 MLOAD DUP1 SWAP2 SUB SWAP1 RETURN JUMPDEST PUSH2 0x247 PUSH2 0x6D9 JUMP JUMPDEST PUSH1 0x40 MLOAD PUSH2 0x254 SWAP2 SWAP1 PUSH2 0x5D46 JUMP JUMPDEST PUSH1 0x40 MLOAD DUP1 SWAP2 SUB SWAP1 RETURN JUMPDEST PUSH2 0x265 PUSH2 0x6FD JUMP JUMPDEST PUSH1 0x40 MLOAD PUSH2 0x272 SWAP2 SWAP1 PUSH2 0x5D46 JUMP JUMPDEST PUSH1 0x40 MLOAD DUP1 SWAP2 SUB SWAP1 RETURN JUMPDEST PUSH2 0x295 PUSH1 0x4 DUP1 CALLDATASIZE SUB DUP2 ADD SWAP1 PUSH2 0x290 SWAP2 SWAP1 PUSH2 0x5DA4 JUMP JUMPDEST PUSH2 0x723 JUMP JUMPDEST STOP JUMPDEST PUSH2 0x29F PUSH2 0x949 JUMP JUMPDEST STOP JUMPDEST PUSH2 0x2BB PUSH1 0x4 DUP1 CALLDATASIZE SUB DUP2 ADD SWAP1 PUSH2 0x2B6 SWAP2 SWAP1 PUSH2 0x5E10 JUMP JUMPDEST PUSH2 0xA04 JUMP JUMPDEST PUSH1 0x40 MLOAD PUSH2 0x2CB SWAP5 SWAP4 SWAP3 SWAP2 SWAP1 PUSH2 0x5EA2 JUMP JUMPDEST PUSH1 0x40 MLOAD DUP1 SWAP2 SUB SWAP1 RETURN JUMPDEST PUSH2 0x2EE PUSH1 0x4 DUP1 CALLDATASIZE SUB DUP2 ADD SWAP1 PUSH2 0x2E9 SWAP2 SWAP1 PUSH2 0x5F20 JUMP JUMPDEST PUSH2 0xA82 JUMP JUMPDEST PUSH1 0x40 MLOAD PUSH2 0x302 SWAP9 SWAP8 SWAP7 SWAP6 SWAP5 SWAP4 SWAP3 SWAP2 SWAP1 PUSH2 0x5F94 JUMP JUMPDEST PUSH1 0x40 MLOAD DUP1 SWAP2 SUB SWAP1 RETURN JUMPDEST PUSH2 0x313 PUSH2 0xB3D JUMP JUMPDEST PUSH1 0x40 MLOAD PUSH2 0x321 SWAP3 SWAP2 SWAP1 PUSH2 0x6012 JUMP JUMPDEST PUSH1 0x40 MLOAD DUP1 SWAP2 SUB SWAP1 RETURN JUMPDEST PUSH2 0x344 PUSH1 0x4 DUP1 CALLDATASIZE SUB DUP2 ADD SWAP1 PUSH2 0x33F SWAP2 SWAP1 PUSH2 0x60F8 JUMP JUMPDEST PUSH2 0xB87 JUMP JUMPDEST PUSH1 0x40 MLOAD PUSH2 0x352 SWAP3 SWAP2 SWAP1 PUSH2 0x6192 JUMP JUMPDEST PUSH1 0x40 MLOAD DUP1 SWAP2 SUB SWAP1 RETURN JUMPDEST PUSH2 0x363 PUSH2 0xDEF JUMP JUMPDEST STOP JUMPDEST PUSH2 0x37F PUSH1 0x4 DUP1 CALLDATASIZE SUB DUP2 ADD SWAP1 PUSH2 0x37A SWAP2 SWAP1 PUSH2 0x61F1 JUMP JUMPDEST PUSH2 0xEAB JUMP JUMPDEST PUSH1 0x40 MLOAD PUSH2 0x390 SWAP6 SWAP5 SWAP4 SWAP3 SWAP2 SWAP1 PUSH2 0x621E JUMP JUMPDEST PUSH1 0x40 MLOAD DUP1 SWAP2 SUB SWAP1 RETURN JUMPDEST PUSH2 0x3B3 PUSH1 0x4 DUP1 CALLDATASIZE SUB DUP2 ADD SWAP1 PUSH2 0x3AE SWAP2 SWAP1 PUSH2 0x6271 JUMP JUMPDEST PUSH2 0xF35 JUMP JUMPDEST PUSH1 0x40 MLOAD PUSH2 0x3C1 SWAP3 SWAP2 SWAP1 PUSH2 0x6012 JUMP JUMPDEST PUSH1 0x40 MLOAD DUP1 SWAP2 SUB SWAP1 RETURN JUMPDEST PUSH2 0x3D2 PUSH2 0x12AD JUMP JUMPDEST PUSH1 0x40 MLOAD PUSH2 0x3DF SWAP2 SWAP1 PUSH2 0x630A JUMP JUMPDEST PUSH1 0x40 MLOAD DUP1 SWAP2 SUB SWAP1 RETURN JUMPDEST PUSH2 0x3F0 PUSH2 0x12D1 JUMP JUMPDEST PUSH1 0x40 MLOAD PUSH2 0x3FD SWAP2 SWAP1 PUSH2 0x6325 JUMP JUMPDEST PUSH1 0x40 MLOAD DUP1 SWAP2 SUB SWAP1 RETURN JUMPDEST PUSH2 0x40E PUSH2 0x12F3 JUMP JUMPDEST STOP JUMPDEST PUSH2 0x418 PUSH2 0x136A JUMP JUMPDEST PUSH1 0x40 MLOAD PUSH2 0x425 SWAP2 SWAP1 PUSH2 0x634F JUMP JUMPDEST PUSH1 0x40 MLOAD DUP1 SWAP2 SUB SWAP1 RETURN JUMPDEST PUSH2 0x436 PUSH2 0x137D JUMP JUMPDEST PUSH1 0x40 MLOAD PUSH2 0x443 SWAP2 SWAP1 PUSH2 0x5D46 JUMP JUMPDEST PUSH1 0x40 MLOAD DUP1 SWAP2 SUB SWAP1 RETURN JUMPDEST PUSH2 0x466 PUSH1 0x4 DUP1 CALLDATASIZE SUB DUP2 ADD SWAP1 PUSH2 0x461 SWAP2 SWAP1 PUSH2 0x63C0 JUMP JUMPDEST PUSH2 0x13A1 JUMP JUMPDEST PUSH1 0x40 MLOAD PUSH2 0x474 SWAP3 SWAP2 SWAP1 PUSH2 0x6589 JUMP JUMPDEST PUSH1 0x40 MLOAD DUP1 SWAP2 SUB SWAP1 RETURN JUMPDEST PUSH2 0x497 PUSH1 0x4 DUP1 CALLDATASIZE SUB DUP2 ADD SWAP1 PUSH2 0x492 SWAP2 SWAP1 PUSH2 0x65F9 JUMP JUMPDEST PUSH2 0x1473 JUMP JUMPDEST PUSH1 0x40 MLOAD PUSH2 0x4A4 SWAP2 SWAP1 PUSH2 0x5CEA JUMP JUMPDEST PUSH1 0x40 MLOAD DUP1 SWAP2 SUB SWAP1 RETURN JUMPDEST PUSH2 0x4B5 PUSH2 0x148B JUMP JUMPDEST PUSH1 0x40 MLOAD PUSH2 0x4C8 SWAP8 SWAP7 SWAP6 SWAP5 SWAP4 SWAP3 SWAP2 SWAP1 PUSH2 0x6652 JUMP JUMPDEST PUSH1 0x40 MLOAD DUP1 SWAP2 SUB SWAP1 RETURN JUMPDEST PUSH2 0x4EB PUSH1 0x4 DUP1 CALLDATASIZE SUB DUP2 ADD SWAP1 PUSH2 0x4E6 SWAP2 SWAP1 PUSH2 0x66C1 JUMP JUMPDEST PUSH2 0x152C JUMP JUMPDEST STOP JUMPDEST PUSH2 0x4F5 PUSH2 0x15CA JUMP JUMPDEST PUSH1 0x40 MLOAD PUSH2 0x502 SWAP2 SWAP1 PUSH2 0x6325 JUMP JUMPDEST PUSH1 0x40 MLOAD DUP1 SWAP2 SUB SWAP1 RETURN JUMPDEST PUSH2 0x513 PUSH2 0x15EE JUMP JUMPDEST STOP JUMPDEST PUSH2 0x51D PUSH2 0x1664 JUMP JUMPDEST PUSH1 0x40 MLOAD PUSH2 0x52A SWAP2 SWAP1 PUSH2 0x675B JUMP JUMPDEST PUSH1 0x40 MLOAD DUP1 SWAP2 SUB SWAP1 RETURN JUMPDEST PUSH2 0x53B PUSH2 0x1688 JUMP JUMPDEST PUSH1 0x40 MLOAD PUSH2 0x548 SWAP2 SWAP1 PUSH2 0x6776 JUMP JUMPDEST PUSH1 0x40 MLOAD DUP1 SWAP2 SUB SWAP1 RETURN JUMPDEST PUSH2 0x559 PUSH2 0x169B JUMP JUMPDEST PUSH1 0x40 MLOAD PUSH2 0x567 SWAP3 SWAP2 SWAP1 PUSH2 0x6012 JUMP JUMPDEST PUSH1 0x40 MLOAD DUP1 SWAP2 SUB SWAP1 RETURN JUMPDEST PUSH2 0x578 PUSH2 0x1B09 JUMP JUMPDEST PUSH1 0x40 MLOAD PUSH2 0x585 SWAP2 SWAP1 PUSH2 0x5CEA JUMP JUMPDEST PUSH1 0x40 MLOAD DUP1 SWAP2 SUB SWAP1 RETURN JUMPDEST PUSH2 0x5A8 PUSH1 0x4 DUP1 CALLDATASIZE SUB DUP2 ADD SWAP1 PUSH2 0x5A3 SWAP2 SWAP1 PUSH2 0x6791 JUMP JUMPDEST PUSH2 0x1B0F JUMP JUMPDEST PUSH1 0x40 MLOAD PUSH2 0x5B6 SWAP3 SWAP2 SWAP1 PUSH2 0x6192 JUMP JUMPDEST PUSH1 0x40 MLOAD DUP1 SWAP2 SUB SWAP1 RETURN JUMPDEST PUSH2 0x5D9 PUSH1 0x4 DUP1 CALLDATASIZE SUB DUP2 ADD SWAP1 PUSH2 0x5D4 SWAP2 SWAP1 PUSH2 0x67E4 JUMP JUMPDEST PUSH2 0x1D62 JUMP JUMPDEST PUSH1 0x40 MLOAD PUSH2 0x5E8 SWAP4 SWAP3 SWAP2 SWAP1 PUSH2 0x6824 JUMP JUMPDEST PUSH1 0x40 MLOAD DUP1 SWAP2 SUB SWAP1 RETURN JUMPDEST PUSH2 0x60B PUSH1 0x4 DUP1 CALLDATASIZE SUB DUP2 ADD SWAP1 PUSH2 0x606 SWAP2 SWAP1 PUSH2 0x68E9 JUMP JUMPDEST PUSH2 0x2119 JUMP JUMPDEST PUSH1 0x40 MLOAD PUSH2 0x619 SWAP3 SWAP2 SWAP1 PUSH2 0x69A7 JUMP JUMPDEST PUSH1 0x40 MLOAD DUP1 SWAP2 SUB SWAP1 RETURN JUMPDEST PUSH2 0x62A PUSH2 0x2130 JUMP JUMPDEST PUSH1 0x40 MLOAD PUSH2 0x63A SWAP5 SWAP4 SWAP3 SWAP2 SWAP1 PUSH2 0x69D0 JUMP JUMPDEST PUSH1 0x40 MLOAD DUP1 SWAP2 SUB SWAP1 RETURN JUMPDEST PUSH2 0x64B PUSH2 0x2182 JUMP JUMPDEST PUSH1 0x40 MLOAD PUSH2 0x658 SWAP2 SWAP1 PUSH2 0x6776 JUMP JUMPDEST PUSH1 0x40 MLOAD DUP1 SWAP2 SUB SWAP1 RETURN JUMPDEST PUSH2 0x67B PUSH1 0x4 DUP1 CALLDATASIZE SUB DUP2 ADD SWAP1 PUSH2 0x676 SWAP2 SWAP1 PUSH2 0x6A41 JUMP JUMPDEST PUSH2 0x2195 JUMP JUMPDEST STOP JUMPDEST PUSH2 0x697 PUSH1 0x4 DUP1 CALLDATASIZE SUB DUP2 ADD SWAP1 PUSH2 0x692 SWAP2 SWAP1 PUSH2 0x6A6E JUMP JUMPDEST PUSH2 0x22CB JUMP JUMPDEST STOP JUMPDEST PUSH2 0x6A1 PUSH2 0x251A JUMP JUMPDEST PUSH1 0x40 MLOAD PUSH2 0x6AE SWAP2 SWAP1 PUSH2 0x5D46 JUMP JUMPDEST PUSH1 0x40 MLOAD DUP1 SWAP2 SUB SWAP1 RETURN JUMPDEST PUSH2 0x6D1 PUSH1 0x4 DUP1 CALLDATASIZE SUB DUP2 ADD SWAP1 PUSH2 0x6CC SWAP2 SWAP1 PUSH2 0x6AD5 JUMP JUMPDEST PUSH2 0x253E JUMP JUMPDEST STOP JUMPDEST PUSH1 0x4 SLOAD DUP2 JUMP JUMPDEST PUSH32 0x0 DUP2 JUMP JUMPDEST PUSH1 0x1 PUSH1 0x0 SWAP1 SLOAD SWAP1 PUSH2 0x100 EXP SWAP1 DIV PUSH20 0xFFFFFFFFFFFFFFFFFFFFFFFFFFFFFFFFFFFFFFFF AND DUP2 JUMP JUMPDEST PUSH1 0x3 PUSH1 0x0 ADD PUSH1 0x1E SWAP1 SLOAD SWAP1 PUSH2 0x100 EXP SWAP1 DIV PUSH1 0xFF AND PUSH2 0x775 JUMPI PUSH1 0x40 MLOAD PUSH32 0x8C379A000000000000000000000000000000000000000000000000000000000 DUP2 MSTORE PUSH1 0x4 ADD PUSH2 0x76C SWAP1 PUSH2 0x6B5F JUMP JUMPDEST PUSH1 0x40 MLOAD DUP1 SWAP2 SUB SWAP1 REVERT JUMPDEST PUSH1 0x0 PUSH1 0x3 PUSH1 0x0 ADD PUSH1 0x1E PUSH2 0x100 EXP DUP2 SLOAD DUP2 PUSH1 0xFF MUL NOT AND SWAP1 DUP4 ISZERO ISZERO MUL OR SWAP1 SSTORE POP PUSH1 0x1 ISZERO ISZERO PUSH32 0x0 PUSH20 0xFFFFFFFFFFFFFFFFFFFFFFFFFFFFFFFFFFFFFFFF AND PUSH4 0x1487F252 PUSH1 0x40 MLOAD DUP2 PUSH4 0xFFFFFFFF AND PUSH1 0xE0 SHL DUP2 MSTORE PUSH1 0x4 ADD PUSH1 0x20 PUSH1 0x40 MLOAD DUP1 DUP4 SUB DUP2 DUP7 GAS STATICCALL ISZERO DUP1 ISZERO PUSH2 0x802 JUMPI RETURNDATASIZE PUSH1 0x0 DUP1 RETURNDATACOPY RETURNDATASIZE PUSH1 0x0 REVERT JUMPDEST POP POP POP POP PUSH1 0x40 MLOAD RETURNDATASIZE PUSH1 0x1F NOT PUSH1 0x1F DUP3 ADD AND DUP3 ADD DUP1 PUSH1 0x40 MSTORE POP DUP2 ADD SWAP1 PUSH2 0x826 SWAP2 SWAP1 PUSH2 0x6B94 JUMP JUMPDEST ISZERO ISZERO EQ PUSH2 0x832 JUMPI PUSH1 0x0 DUP1 REVERT JUMPDEST PUSH1 0x0 DUP3 PUSH1 0xFF AND EQ DUP1 PUSH2 0x858 JUMPI POP PUSH1 0x2 DUP3 PUSH1 0xFF AND LT ISZERO DUP1 ISZERO PUSH2 0x857 JUMPI POP PUSH1 0xA DUP3 PUSH1 0xFF AND GT ISZERO JUMPDEST JUMPDEST DUP1 ISZERO PUSH2 0x886 JUMPI POP PUSH1 0x0 DUP2 PUSH1 0xFF AND EQ DUP1 PUSH2 0x885 JUMPI POP PUSH1 0x2 DUP2 PUSH1 0xFF AND LT ISZERO DUP1 ISZERO PUSH2 0x884 JUMPI POP PUSH1 0xA DUP2 PUSH1 0xFF AND GT ISZERO JUMPDEST JUMPDEST JUMPDEST PUSH2 0x88F JUMPI PUSH1 0x0 DUP1 REVERT JUMPDEST PUSH1 0x0 PUSH1 0x3 PUSH1 0x0 ADD PUSH1 0x1D SWAP1 SLOAD SWAP1 PUSH2 0x100 EXP SWAP1 DIV PUSH1 0xFF AND SWAP1 POP PUSH1 0x4 DUP3 PUSH1 0xFF AND SWAP1 SHL DUP4 PUSH2 0x8B9 SWAP2 SWAP1 PUSH2 0x6BF0 JUMP JUMPDEST PUSH1 0x3 PUSH1 0x0 ADD PUSH1 0x1D PUSH2 0x100 EXP DUP2 SLOAD DUP2 PUSH1 0xFF MUL NOT AND SWAP1 DUP4 PUSH1 0xFF AND MUL OR SWAP1 SSTORE POP PUSH32 0x973D8D92BB299F4AF6CE49B52A8ADB85AE46B9F214C4C4FC06AC77401237B133 PUSH1 0x10 DUP3 PUSH2 0x904 SWAP2 SWAP1 PUSH2 0x6C54 JUMP JUMPDEST PUSH1 0x4 DUP4 PUSH1 0xFF AND SWAP1 SHR DUP6 DUP6 PUSH1 0x40 MLOAD PUSH2 0x91E SWAP5 SWAP4 SWAP3 SWAP2 SWAP1 PUSH2 0x69D0 JUMP JUMPDEST PUSH1 0x40 MLOAD DUP1 SWAP2 SUB SWAP1 LOG1 POP PUSH1 0x1 PUSH1 0x3 PUSH1 0x0 ADD PUSH1 0x1E PUSH2 0x100 EXP DUP2 SLOAD DUP2 PUSH1 0xFF MUL NOT AND SWAP1 DUP4 ISZERO ISZERO MUL OR SWAP1 SSTORE POP POP POP JUMP JUMPDEST PUSH1 0x1 ISZERO ISZERO PUSH32 0x0 PUSH20 0xFFFFFFFFFFFFFFFFFFFFFFFFFFFFFFFFFFFFFFFF AND PUSH4 0x1487F252 PUSH1 0x40 MLOAD DUP2 PUSH4 0xFFFFFFFF AND PUSH1 0xE0 SHL DUP2 MSTORE PUSH1 0x4 ADD PUSH1 0x20 PUSH1 0x40 MLOAD DUP1 DUP4 SUB DUP2 DUP7 GAS STATICCALL ISZERO DUP1 ISZERO PUSH2 0x9B8 JUMPI RETURNDATASIZE PUSH1 0x0 DUP1 RETURNDATACOPY RETURNDATASIZE PUSH1 0x0 REVERT JUMPDEST POP POP POP POP PUSH1 0x40 MLOAD RETURNDATASIZE PUSH1 0x1F NOT PUSH1 0x1F DUP3 ADD AND DUP3 ADD DUP1 PUSH1 0x40 MSTORE POP DUP2 ADD SWAP1 PUSH2 0x9DC SWAP2 SWAP1 PUSH2 0x6B94 JUMP JUMPDEST ISZERO ISZERO EQ PUSH2 0x9E8 JUMPI PUSH1 0x0 DUP1 REVERT JUMPDEST PUSH1 0x1 DUP1 PUSH1 0x15 PUSH2 0x100 EXP DUP2 SLOAD DUP2 PUSH1 0xFF MUL NOT AND SWAP1 DUP4 ISZERO ISZERO MUL OR SWAP1 SSTORE POP JUMP JUMPDEST PUSH1 0xB DUP2 PUSH2 0xFFFF DUP2 LT PUSH2 0xA15 JUMPI PUSH1 0x0 DUP1 REVERT JUMPDEST ADD PUSH1 0x0 SWAP2 POP SWAP1 POP DUP1 PUSH1 0x0 ADD PUSH1 0x0 SWAP1 SLOAD SWAP1 PUSH2 0x100 EXP SWAP1 DIV PUSH4 0xFFFFFFFF AND SWAP1 DUP1 PUSH1 0x0 ADD PUSH1 0x4 SWAP1 SLOAD SWAP1 PUSH2 0x100 EXP SWAP1 DIV PUSH1 0x6 SIGNEXTEND SWAP1 DUP1 PUSH1 0x0 ADD PUSH1 0xB SWAP1 SLOAD SWAP1 PUSH2 0x100 EXP SWAP1 DIV PUSH20 0xFFFFFFFFFFFFFFFFFFFFFFFFFFFFFFFFFFFFFFFF AND SWAP1 DUP1 PUSH1 0x0 ADD PUSH1 0x1F SWAP1 SLOAD SWAP1 PUSH2 0x100 EXP SWAP1 DIV PUSH1 0xFF AND SWAP1 POP DUP5 JUMP JUMPDEST PUSH1 0x8 PUSH1 0x20 MSTORE DUP1 PUSH1 0x0 MSTORE PUSH1 0x40 PUSH1 0x0 KECCAK256 PUSH1 0x0 SWAP2 POP SWAP1 POP DUP1 PUSH1 0x0 ADD PUSH1 0x0 SWAP1 SLOAD SWAP1 PUSH2 0x100 EXP SWAP1 DIV PUSH16 0xFFFFFFFFFFFFFFFFFFFFFFFFFFFFFFFF AND SWAP1 DUP1 PUSH1 0x0 ADD PUSH1 0x10 SWAP1 SLOAD SWAP1 PUSH2 0x100 EXP SWAP1 DIV PUSH1 0xF SIGNEXTEND SWAP1 DUP1 PUSH1 0x1 ADD SLOAD SWAP1 DUP1 PUSH1 0x2 ADD SLOAD SWAP1 DUP1 PUSH1 0x3 ADD PUSH1 0x0 SWAP1 SLOAD SWAP1 PUSH2 0x100 EXP SWAP1 DIV PUSH1 0x6 SIGNEXTEND SWAP1 DUP1 PUSH1 0x3 ADD PUSH1 0x7 SWAP1 SLOAD SWAP1 PUSH2 0x100 EXP SWAP1 DIV PUSH20 0xFFFFFFFFFFFFFFFFFFFFFFFFFFFFFFFFFFFFFFFF AND SWAP1 DUP1 PUSH1 0x3 ADD PUSH1 0x1B SWAP1 SLOAD SWAP1 PUSH2 0x100 EXP SWAP1 DIV PUSH4 0xFFFFFFFF AND SWAP1 DUP1 PUSH1 0x3 ADD PUSH1 0x1F SWAP1 SLOAD SWAP1 PUSH2 0x100 EXP SWAP1 DIV PUSH1 0xFF AND SWAP1 POP DUP9 JUMP JUMPDEST PUSH1 0x6 DUP1 PUSH1 0x0 ADD PUSH1 0x0 SWAP1 SLOAD SWAP1 PUSH2 0x100 EXP SWAP1 DIV PUSH16 0xFFFFFFFFFFFFFFFFFFFFFFFFFFFFFFFF AND SWAP1 DUP1 PUSH1 0x0 ADD PUSH1 0x10 SWAP1 SLOAD SWAP1 PUSH2 0x100 EXP SWAP1 DIV PUSH16 0xFFFFFFFFFFFFFFFFFFFFFFFFFFFFFFFF AND SWAP1 POP DUP3 JUMP JUMPDEST PUSH1 0x0 DUP1 PUSH1 0x3 PUSH1 0x0 ADD PUSH1 0x1E SWAP1 SLOAD SWAP1 PUSH2 0x100 EXP SWAP1 DIV PUSH1 0xFF AND PUSH2 0xBDC JUMPI PUSH1 0x40 MLOAD PUSH32 0x8C379A000000000000000000000000000000000000000000000000000000000 DUP2 MSTORE PUSH1 0x4 ADD PUSH2 0xBD3 SWAP1 PUSH2 0x6B5F JUMP JUMPDEST PUSH1 0x40 MLOAD DUP1 SWAP2 SUB SWAP1 REVERT JUMPDEST PUSH1 0x0 PUSH1 0x3 PUSH1 0x0 ADD PUSH1 0x1E PUSH2 0x100 EXP DUP2 SLOAD DUP2 PUSH1 0xFF MUL NOT AND SWAP1 DUP4 ISZERO ISZERO MUL OR SWAP1 SSTORE POP PUSH1 0x0 DUP6 PUSH16 0xFFFFFFFFFFFFFFFFFFFFFFFFFFFFFFFF AND GT PUSH2 0xC19 JUMPI PUSH1 0x0 DUP1 REVERT JUMPDEST PUSH1 0x0 DUP1 PUSH2 0xC64 PUSH1 0x40 MLOAD DUP1 PUSH1 0x80 ADD PUSH1 0x40 MSTORE DUP1 DUP13 PUSH20 0xFFFFFFFFFFFFFFFFFFFFFFFFFFFFFFFFFFFFFFFF AND DUP2 MSTORE PUSH1 0x20 ADD DUP12 PUSH1 0x2 SIGNEXTEND DUP2 MSTORE PUSH1 0x20 ADD DUP11 PUSH1 0x2 SIGNEXTEND DUP2 MSTORE PUSH1 0x20 ADD DUP10 PUSH1 0xF SIGNEXTEND DUP2 MSTORE POP PUSH2 0x287A JUMP JUMPDEST SWAP3 POP SWAP3 POP POP DUP2 SWAP4 POP DUP1 SWAP3 POP PUSH1 0x0 DUP1 PUSH1 0x0 DUP7 GT ISZERO PUSH2 0xC86 JUMPI PUSH2 0xC83 PUSH2 0x2BA1 JUMP JUMPDEST SWAP2 POP JUMPDEST PUSH1 0x0 DUP6 GT ISZERO PUSH2 0xC9A JUMPI PUSH2 0xC97 PUSH2 0x2CD8 JUMP JUMPDEST SWAP1 POP JUMPDEST PUSH1 0x0 DUP7 GT ISZERO PUSH2 0xD00 JUMPI PUSH2 0xCAB PUSH2 0x2BA1 JUMP JUMPDEST PUSH2 0xCBE DUP8 DUP5 PUSH2 0x2E0F SWAP1 SWAP2 SWAP1 PUSH4 0xFFFFFFFF AND JUMP JUMPDEST GT ISZERO PUSH2 0xCFF JUMPI PUSH1 0x40 MLOAD PUSH32 0x8C379A000000000000000000000000000000000000000000000000000000000 DUP2 MSTORE PUSH1 0x4 ADD PUSH2 0xCF6 SWAP1 PUSH2 0x6CD1 JUMP JUMPDEST PUSH1 0x40 MLOAD DUP1 SWAP2 SUB SWAP1 REVERT JUMPDEST JUMPDEST PUSH1 0x0 DUP6 GT ISZERO PUSH2 0xD66 JUMPI PUSH2 0xD11 PUSH2 0x2CD8 JUMP JUMPDEST PUSH2 0xD24 DUP7 DUP4 PUSH2 0x2E0F SWAP1 SWAP2 SWAP1 PUSH4 0xFFFFFFFF AND JUMP JUMPDEST GT ISZERO PUSH2 0xD65 JUMPI PUSH1 0x40 MLOAD PUSH32 0x8C379A000000000000000000000000000000000000000000000000000000000 DUP2 MSTORE PUSH1 0x4 ADD PUSH2 0xD5C SWAP1 PUSH2 0x6D3D JUMP JUMPDEST PUSH1 0x40 MLOAD DUP1 SWAP2 SUB SWAP1 REVERT JUMPDEST JUMPDEST DUP10 PUSH1 0x2 SIGNEXTEND DUP12 PUSH1 0x2 SIGNEXTEND DUP14 PUSH20 0xFFFFFFFFFFFFFFFFFFFFFFFFFFFFFFFFFFFFFFFF AND PUSH32 0x7A53080BA414158BE7EC69B987B5FB7D07DEE101FE85488F0853AE16239D0BDE CALLER DUP14 DUP12 DUP12 PUSH1 0x40 MLOAD PUSH2 0xDBA SWAP5 SWAP4 SWAP3 SWAP2 SWAP1 PUSH2 0x6D5D JUMP JUMPDEST PUSH1 0x40 MLOAD DUP1 SWAP2 SUB SWAP1 LOG4 POP POP POP POP PUSH1 0x1 PUSH1 0x3 PUSH1 0x0 ADD PUSH1 0x1E PUSH2 0x100 EXP DUP2 SLOAD DUP2 PUSH1 0xFF MUL NOT AND SWAP1 DUP4 ISZERO ISZERO MUL OR SWAP1 SSTORE POP SWAP7 POP SWAP7 SWAP5 POP POP POP POP POP JUMP JUMPDEST PUSH1 0x1 ISZERO ISZERO PUSH32 0x0 PUSH20 0xFFFFFFFFFFFFFFFFFFFFFFFFFFFFFFFFFFFFFFFF AND PUSH4 0x1487F252 PUSH1 0x40 MLOAD DUP2 PUSH4 0xFFFFFFFF AND PUSH1 0xE0 SHL DUP2 MSTORE PUSH1 0x4 ADD PUSH1 0x20 PUSH1 0x40 MLOAD DUP1 DUP4 SUB DUP2 DUP7 GAS STATICCALL ISZERO DUP1 ISZERO PUSH2 0xE5E JUMPI RETURNDATASIZE PUSH1 0x0 DUP1 RETURNDATACOPY RETURNDATASIZE PUSH1 0x0 REVERT JUMPDEST POP POP POP POP PUSH1 0x40 MLOAD RETURNDATASIZE PUSH1 0x1F NOT PUSH1 0x1F DUP3 ADD AND DUP3 ADD DUP1 PUSH1 0x40 MSTORE POP DUP2 ADD SWAP1 PUSH2 0xE82 SWAP2 SWAP1 PUSH2 0x6B94 JUMP JUMPDEST ISZERO ISZERO EQ PUSH2 0xE8E JUMPI PUSH1 0x0 DUP1 REVERT JUMPDEST PUSH1 0x0 PUSH1 0x1 PUSH1 0x15 PUSH2 0x100 EXP DUP2 SLOAD DUP2 PUSH1 0xFF MUL NOT AND SWAP1 DUP4 ISZERO ISZERO MUL OR SWAP1 SSTORE POP JUMP JUMPDEST PUSH1 0xA PUSH1 0x20 MSTORE DUP1 PUSH1 0x0 MSTORE PUSH1 0x40 PUSH1 0x0 KECCAK256 PUSH1 0x0 SWAP2 POP SWAP1 POP DUP1 PUSH1 0x0 ADD PUSH1 0x0 SWAP1 SLOAD SWAP1 PUSH2 0x100 EXP SWAP1 DIV PUSH16 0xFFFFFFFFFFFFFFFFFFFFFFFFFFFFFFFF AND SWAP1 DUP1 PUSH1 0x1 ADD SLOAD SWAP1 DUP1 PUSH1 0x2 ADD SLOAD SWAP1 DUP1 PUSH1 0x3 ADD PUSH1 0x0 SWAP1 SLOAD SWAP1 PUSH2 0x100 EXP SWAP1 DIV PUSH16 0xFFFFFFFFFFFFFFFFFFFFFFFFFFFFFFFF AND SWAP1 DUP1 PUSH1 0x3 ADD PUSH1 0x10 SWAP1 SLOAD SWAP1 PUSH2 0x100 EXP SWAP1 DIV PUSH16 0xFFFFFFFFFFFFFFFFFFFFFFFFFFFFFFFF AND SWAP1 POP DUP6 JUMP JUMPDEST PUSH1 0x0 DUP1 PUSH1 0x3 PUSH1 0x0 ADD PUSH1 0x1E SWAP1 SLOAD SWAP1 PUSH2 0x100 EXP SWAP1 DIV PUSH1 0xFF AND PUSH2 0xF8A JUMPI PUSH1 0x40 MLOAD PUSH32 0x8C379A000000000000000000000000000000000000000000000000000000000 DUP2 MSTORE PUSH1 0x4 ADD PUSH2 0xF81 SWAP1 PUSH2 0x6B5F JUMP JUMPDEST PUSH1 0x40 MLOAD DUP1 SWAP2 SUB SWAP1 REVERT JUMPDEST PUSH1 0x0 PUSH1 0x3 PUSH1 0x0 ADD PUSH1 0x1E PUSH2 0x100 EXP DUP2 SLOAD DUP2 PUSH1 0xFF MUL NOT AND SWAP1 DUP4 ISZERO ISZERO MUL OR SWAP1 SSTORE POP PUSH1 0x0 PUSH2 0xFC2 CALLER DUP9 DUP9 PUSH1 0xA PUSH2 0x2E32 SWAP1 SWAP4 SWAP3 SWAP2 SWAP1 PUSH4 0xFFFFFFFF AND JUMP JUMPDEST SWAP1 POP DUP1 PUSH1 0x3 ADD PUSH1 0x0 SWAP1 SLOAD SWAP1 PUSH2 0x100 EXP SWAP1 DIV PUSH16 0xFFFFFFFFFFFFFFFFFFFFFFFFFFFFFFFF AND PUSH16 0xFFFFFFFFFFFFFFFFFFFFFFFFFFFFFFFF AND DUP6 PUSH16 0xFFFFFFFFFFFFFFFFFFFFFFFFFFFFFFFF AND GT PUSH2 0x1015 JUMPI DUP5 PUSH2 0x1037 JUMP JUMPDEST DUP1 PUSH1 0x3 ADD PUSH1 0x0 SWAP1 SLOAD SWAP1 PUSH2 0x100 EXP SWAP1 DIV PUSH16 0xFFFFFFFFFFFFFFFFFFFFFFFFFFFFFFFF AND JUMPDEST SWAP3 POP DUP1 PUSH1 0x3 ADD PUSH1 0x10 SWAP1 SLOAD SWAP1 PUSH2 0x100 EXP SWAP1 DIV PUSH16 0xFFFFFFFFFFFFFFFFFFFFFFFFFFFFFFFF AND PUSH16 0xFFFFFFFFFFFFFFFFFFFFFFFFFFFFFFFF AND DUP5 PUSH16 0xFFFFFFFFFFFFFFFFFFFFFFFFFFFFFFFF AND GT PUSH2 0x108A JUMPI DUP4 PUSH2 0x10AC JUMP JUMPDEST DUP1 PUSH1 0x3 ADD PUSH1 0x10 SWAP1 SLOAD SWAP1 PUSH2 0x100 EXP SWAP1 DIV PUSH16 0xFFFFFFFFFFFFFFFFFFFFFFFFFFFFFFFF AND JUMPDEST SWAP2 POP PUSH1 0x0 DUP4 PUSH16 0xFFFFFFFFFFFFFFFFFFFFFFFFFFFFFFFF AND GT ISZERO PUSH2 0x116C JUMPI DUP3 DUP2 PUSH1 0x3 ADD PUSH1 0x0 DUP3 DUP3 DUP3 SWAP1 SLOAD SWAP1 PUSH2 0x100 EXP SWAP1 DIV PUSH16 0xFFFFFFFFFFFFFFFFFFFFFFFFFFFFFFFF AND PUSH2 0x10F8 SWAP2 SWAP1 PUSH2 0x6DA2 JUMP JUMPDEST SWAP3 POP PUSH2 0x100 EXP DUP2 SLOAD DUP2 PUSH16 0xFFFFFFFFFFFFFFFFFFFFFFFFFFFFFFFF MUL NOT AND SWAP1 DUP4 PUSH16 0xFFFFFFFFFFFFFFFFFFFFFFFFFFFFFFFF AND MUL OR SWAP1 SSTORE POP PUSH2 0x116B PUSH32 0x0 DUP10 DUP6 PUSH16 0xFFFFFFFFFFFFFFFFFFFFFFFFFFFFFFFF AND PUSH2 0x2E7A JUMP JUMPDEST JUMPDEST PUSH1 0x0 DUP3 PUSH16 0xFFFFFFFFFFFFFFFFFFFFFFFFFFFFFFFF AND GT ISZERO PUSH2 0x122A JUMPI DUP2 DUP2 PUSH1 0x3 ADD PUSH1 0x10 DUP3 DUP3 DUP3 SWAP1 SLOAD SWAP1 PUSH2 0x100 EXP SWAP1 DIV PUSH16 0xFFFFFFFFFFFFFFFFFFFFFFFFFFFFFFFF AND PUSH2 0x11B6 SWAP2 SWAP1 PUSH2 0x6DA2 JUMP JUMPDEST SWAP3 POP PUSH2 0x100 EXP DUP2 SLOAD DUP2 PUSH16 0xFFFFFFFFFFFFFFFFFFFFFFFFFFFFFFFF MUL NOT AND SWAP1 DUP4 PUSH16 0xFFFFFFFFFFFFFFFFFFFFFFFFFFFFFFFF AND MUL OR SWAP1 SSTORE POP PUSH2 0x1229 PUSH32 0x0 DUP10 DUP5 PUSH16 0xFFFFFFFFFFFFFFFFFFFFFFFFFFFFFFFF AND PUSH2 0x2E7A JUMP JUMPDEST JUMPDEST DUP6 PUSH1 0x2 SIGNEXTEND DUP8 PUSH1 0x2 SIGNEXTEND CALLER PUSH20 0xFFFFFFFFFFFFFFFFFFFFFFFFFFFFFFFFFFFFFFFF AND PUSH32 0x70935338E69775456A85DDEF226C395FB668B63FA0115F5F20610B388E6CA9C0 DUP12 DUP8 DUP8 PUSH1 0x40 MLOAD PUSH2 0x127C SWAP4 SWAP3 SWAP2 SWAP1 PUSH2 0x6DE6 JUMP JUMPDEST PUSH1 0x40 MLOAD DUP1 SWAP2 SUB SWAP1 LOG4 POP PUSH1 0x1 PUSH1 0x3 PUSH1 0x0 ADD PUSH1 0x1E PUSH2 0x100 EXP DUP2 SLOAD DUP2 PUSH1 0xFF MUL NOT AND SWAP1 DUP4 ISZERO ISZERO MUL OR SWAP1 SSTORE POP SWAP6 POP SWAP6 SWAP4 POP POP POP POP JUMP JUMPDEST PUSH32 0x0 DUP2 JUMP JUMPDEST PUSH1 0x7 PUSH1 0x0 SWAP1 SLOAD SWAP1 PUSH2 0x100 EXP SWAP1 DIV PUSH16 0xFFFFFFFFFFFFFFFFFFFFFFFFFFFFFFFF AND DUP2 JUMP JUMPDEST PUSH1 0x1 PUSH1 0x0 SWAP1 SLOAD SWAP1 PUSH2 0x100 EXP SWAP1 DIV PUSH20 0xFFFFFFFFFFFFFFFFFFFFFFFFFFFFFFFFFFFFFFFF AND PUSH20 0xFFFFFFFFFFFFFFFFFFFFFFFFFFFFFFFFFFFFFFFF AND CALLER PUSH20 0xFFFFFFFFFFFFFFFFFFFFFFFFFFFFFFFFFFFFFFFF AND EQ PUSH2 0x134D JUMPI PUSH1 0x0 DUP1 REVERT JUMPDEST PUSH1 0x0 PUSH1 0x1 PUSH1 0x16 PUSH2 0x100 EXP DUP2 SLOAD DUP2 PUSH1 0xFF MUL NOT AND SWAP1 DUP4 ISZERO ISZERO MUL OR SWAP1 SSTORE POP JUMP JUMPDEST PUSH1 0x1 PUSH1 0x14 SWAP1 SLOAD SWAP1 PUSH2 0x100 EXP SWAP1 DIV PUSH1 0xFF AND DUP2 JUMP JUMPDEST PUSH32 0x0 DUP2 JUMP JUMPDEST PUSH1 0x60 DUP1 PUSH2 0x13AC PUSH2 0x2FCF JUMP JUMPDEST PUSH2 0x1468 PUSH2 0x13B7 PUSH2 0x3029 JUMP JUMPDEST DUP6 DUP6 DUP1 DUP1 PUSH1 0x20 MUL PUSH1 0x20 ADD PUSH1 0x40 MLOAD SWAP1 DUP2 ADD PUSH1 0x40 MSTORE DUP1 SWAP4 SWAP3 SWAP2 SWAP1 DUP2 DUP2 MSTORE PUSH1 0x20 ADD DUP4 DUP4 PUSH1 0x20 MUL DUP1 DUP3 DUP5 CALLDATACOPY PUSH1 0x0 DUP2 DUP5 ADD MSTORE PUSH1 0x1F NOT PUSH1 0x1F DUP3 ADD AND SWAP1 POP DUP1 DUP4 ADD SWAP3 POP POP POP POP POP POP POP PUSH1 0x3 PUSH1 0x0 ADD PUSH1 0x14 SWAP1 SLOAD SWAP1 PUSH2 0x100 EXP SWAP1 DIV PUSH1 0x2 SIGNEXTEND PUSH1 0x3 PUSH1 0x0 ADD PUSH1 0x17 SWAP1 SLOAD SWAP1 PUSH2 0x100 EXP SWAP1 DIV PUSH2 0xFFFF AND PUSH1 0x7 PUSH1 0x0 SWAP1 SLOAD SWAP1 PUSH2 0x100 EXP SWAP1 DIV PUSH16 0xFFFFFFFFFFFFFFFFFFFFFFFFFFFFFFFF AND PUSH1 0x3 PUSH1 0x0 ADD PUSH1 0x19 SWAP1 SLOAD SWAP1 PUSH2 0x100 EXP SWAP1 DIV PUSH2 0xFFFF AND PUSH1 0xB PUSH2 0x3031 SWAP1 SWAP7 SWAP6 SWAP5 SWAP4 SWAP3 SWAP2 SWAP1 PUSH4 0xFFFFFFFF AND JUMP JUMPDEST SWAP2 POP SWAP2 POP SWAP3 POP SWAP3 SWAP1 POP JUMP JUMPDEST PUSH1 0x9 PUSH1 0x20 MSTORE DUP1 PUSH1 0x0 MSTORE PUSH1 0x40 PUSH1 0x0 KECCAK256 PUSH1 0x0 SWAP2 POP SWAP1 POP SLOAD DUP2 JUMP JUMPDEST PUSH1 0x3 DUP1 PUSH1 0x0 ADD PUSH1 0x0 SWAP1 SLOAD SWAP1 PUSH2 0x100 EXP SWAP1 DIV PUSH20 0xFFFFFFFFFFFFFFFFFFFFFFFFFFFFFFFFFFFFFFFF AND SWAP1 DUP1 PUSH1 0x0 ADD PUSH1 0x14 SWAP1 SLOAD SWAP1 PUSH2 0x100 EXP SWAP1 DIV PUSH1 0x2 SIGNEXTEND SWAP1 DUP1 PUSH1 0x0 ADD PUSH1 0x17 SWAP1 SLOAD SWAP1 PUSH2 0x100 EXP SWAP1 DIV PUSH2 0xFFFF AND SWAP1 DUP1 PUSH1 0x0 ADD PUSH1 0x19 SWAP1 SLOAD SWAP1 PUSH2 0x100 EXP SWAP1 DIV PUSH2 0xFFFF AND SWAP1 DUP1 PUSH1 0x0 ADD PUSH1 0x1B SWAP1 SLOAD SWAP1 PUSH2 0x100 EXP SWAP1 DIV PUSH2 0xFFFF AND SWAP1 DUP1 PUSH1 0x0 ADD PUSH1 0x1D SWAP1 SLOAD SWAP1 PUSH2 0x100 EXP SWAP1 DIV PUSH1 0xFF AND SWAP1 DUP1 PUSH1 0x0 ADD PUSH1 0x1E SWAP1 SLOAD SWAP1 PUSH2 0x100 EXP SWAP1 DIV PUSH1 0xFF AND SWAP1 POP DUP8 JUMP JUMPDEST PUSH1 0x3 PUSH1 0x0 ADD PUSH1 0x1E SWAP1 SLOAD SWAP1 PUSH2 0x100 EXP SWAP1 DIV PUSH1 0xFF AND PUSH2 0x157E JUMPI PUSH1 0x40 MLOAD PUSH32 0x8C379A000000000000000000000000000000000000000000000000000000000 DUP2 MSTORE PUSH1 0x4 ADD PUSH2 0x1575 SWAP1 PUSH2 0x6B5F JUMP JUMPDEST PUSH1 0x40 MLOAD DUP1 SWAP2 SUB SWAP1 REVERT JUMPDEST PUSH1 0x0 PUSH1 0x3 PUSH1 0x0 ADD PUSH1 0x1E PUSH2 0x100 EXP DUP2 SLOAD DUP2 PUSH1 0xFF MUL NOT AND SWAP1 DUP4 ISZERO ISZERO MUL OR SWAP1 SSTORE POP PUSH2 0x15A4 PUSH2 0x2FCF JUMP JUMPDEST PUSH1 0x1 PUSH1 0x3 PUSH1 0x0 ADD PUSH1 0x1E PUSH2 0x100 EXP DUP2 SLOAD DUP2 PUSH1 0xFF MUL NOT AND SWAP1 DUP4 ISZERO ISZERO MUL OR SWAP1 SSTORE POP POP POP POP POP POP POP JUMP JUMPDEST PUSH32 0x0 DUP2 JUMP JUMPDEST PUSH1 0x1 PUSH1 0x0 SWAP1 SLOAD SWAP1 PUSH2 0x100 EXP SWAP1 DIV PUSH20 0xFFFFFFFFFFFFFFFFFFFFFFFFFFFFFFFFFFFFFFFF AND PUSH20 0xFFFFFFFFFFFFFFFFFFFFFFFFFFFFFFFFFFFFFFFF AND CALLER PUSH20 0xFFFFFFFFFFFFFFFFFFFFFFFFFFFFFFFFFFFFFFFF AND EQ PUSH2 0x1648 JUMPI PUSH1 0x0 DUP1 REVERT JUMPDEST PUSH1 0x1 DUP1 PUSH1 0x16 PUSH2 0x100 EXP DUP2 SLOAD DUP2 PUSH1 0xFF MUL NOT AND SWAP1 DUP4 ISZERO ISZERO MUL OR SWAP1 SSTORE POP JUMP JUMPDEST PUSH32 0x0 DUP2 JUMP JUMPDEST PUSH1 0x1 PUSH1 0x16 SWAP1 SLOAD SWAP1 PUSH2 0x100 EXP SWAP1 DIV PUSH1 0xFF AND DUP2 JUMP JUMPDEST PUSH1 0x0 DUP1 PUSH1 0x3 PUSH1 0x0 ADD PUSH1 0x1E SWAP1 SLOAD SWAP1 PUSH2 0x100 EXP SWAP1 DIV PUSH1 0xFF AND PUSH2 0x16F0 JUMPI PUSH1 0x40 MLOAD PUSH32 0x8C379A000000000000000000000000000000000000000000000000000000000 DUP2 MSTORE PUSH1 0x4 ADD PUSH2 0x16E7 SWAP1 PUSH2 0x6B5F JUMP JUMPDEST PUSH1 0x40 MLOAD DUP1 SWAP2 SUB SWAP1 REVERT JUMPDEST PUSH1 0x0 PUSH1 0x3 PUSH1 0x0 ADD PUSH1 0x1E PUSH2 0x100 EXP DUP2 SLOAD DUP2 PUSH1 0xFF MUL NOT AND SWAP1 DUP4 ISZERO ISZERO MUL OR SWAP1 SSTORE POP PUSH1 0x2 PUSH1 0x0 CALLER PUSH20 0xFFFFFFFFFFFFFFFFFFFFFFFFFFFFFFFFFFFFFFFF AND PUSH20 0xFFFFFFFFFFFFFFFFFFFFFFFFFFFFFFFFFFFFFFFF AND DUP2 MSTORE PUSH1 0x20 ADD SWAP1 DUP2 MSTORE PUSH1 0x20 ADD PUSH1 0x0 KECCAK256 PUSH1 0x0 ADD PUSH1 0x0 SWAP1 SLOAD SWAP1 PUSH2 0x100 EXP SWAP1 DIV PUSH16 0xFFFFFFFFFFFFFFFFFFFFFFFFFFFFFFFF AND SWAP2 POP PUSH1 0x2 PUSH1 0x0 CALLER PUSH20 0xFFFFFFFFFFFFFFFFFFFFFFFFFFFFFFFFFFFFFFFF AND PUSH20 0xFFFFFFFFFFFFFFFFFFFFFFFFFFFFFFFFFFFFFFFF AND DUP2 MSTORE PUSH1 0x20 ADD SWAP1 DUP2 MSTORE PUSH1 0x20 ADD PUSH1 0x0 KECCAK256 PUSH1 0x0 ADD PUSH1 0x10 SWAP1 SLOAD SWAP1 PUSH2 0x100 EXP SWAP1 DIV PUSH16 0xFFFFFFFFFFFFFFFFFFFFFFFFFFFFFFFF AND SWAP1 POP PUSH1 0x0 DUP3 PUSH16 0xFFFFFFFFFFFFFFFFFFFFFFFFFFFFFFFF AND GT ISZERO PUSH2 0x1928 JUMPI PUSH1 0x6 PUSH1 0x0 ADD PUSH1 0x0 SWAP1 SLOAD SWAP1 PUSH2 0x100 EXP SWAP1 DIV PUSH16 0xFFFFFFFFFFFFFFFFFFFFFFFFFFFFFFFF AND PUSH16 0xFFFFFFFFFFFFFFFFFFFFFFFFFFFFFFFF AND DUP3 PUSH16 0xFFFFFFFFFFFFFFFFFFFFFFFFFFFFFFFF AND SUB PUSH2 0x1847 JUMPI PUSH1 0x1 DUP3 PUSH2 0x1844 SWAP2 SWAP1 PUSH2 0x6DA2 JUMP JUMPDEST SWAP2 POP JUMPDEST DUP2 PUSH1 0x2 PUSH1 0x0 CALLER PUSH20 0xFFFFFFFFFFFFFFFFFFFFFFFFFFFFFFFFFFFFFFFF AND PUSH20 0xFFFFFFFFFFFFFFFFFFFFFFFFFFFFFFFFFFFFFFFF AND DUP2 MSTORE PUSH1 0x20 ADD SWAP1 DUP2 MSTORE PUSH1 0x20 ADD PUSH1 0x0 KECCAK256 PUSH1 0x0 ADD PUSH1 0x0 DUP3 DUP3 DUP3 SWAP1 SLOAD SWAP1 PUSH2 0x100 EXP SWAP1 DIV PUSH16 0xFFFFFFFFFFFFFFFFFFFFFFFFFFFFFFFF AND PUSH2 0x18B4 SWAP2 SWAP1 PUSH2 0x6DA2 JUMP JUMPDEST SWAP3 POP PUSH2 0x100 EXP DUP2 SLOAD DUP2 PUSH16 0xFFFFFFFFFFFFFFFFFFFFFFFFFFFFFFFF MUL NOT AND SWAP1 DUP4 PUSH16 0xFFFFFFFFFFFFFFFFFFFFFFFFFFFFFFFF AND MUL OR SWAP1 SSTORE POP PUSH2 0x1927 PUSH32 0x0 CALLER DUP5 PUSH16 0xFFFFFFFFFFFFFFFFFFFFFFFFFFFFFFFF AND PUSH2 0x2E7A JUMP JUMPDEST JUMPDEST PUSH1 0x0 DUP2 PUSH16 0xFFFFFFFFFFFFFFFFFFFFFFFFFFFFFFFF AND GT ISZERO PUSH2 0x1A80 JUMPI PUSH1 0x6 PUSH1 0x0 ADD PUSH1 0x10 SWAP1 SLOAD SWAP1 PUSH2 0x100 EXP SWAP1 DIV PUSH16 0xFFFFFFFFFFFFFFFFFFFFFFFFFFFFFFFF AND PUSH16 0xFFFFFFFFFFFFFFFFFFFFFFFFFFFFFFFF AND DUP2 PUSH16 0xFFFFFFFFFFFFFFFFFFFFFFFFFFFFFFFF AND SUB PUSH2 0x199F JUMPI PUSH1 0x1 DUP2 PUSH2 0x199C SWAP2 SWAP1 PUSH2 0x6DA2 JUMP JUMPDEST SWAP1 POP JUMPDEST DUP1 PUSH1 0x2 PUSH1 0x0 CALLER PUSH20 0xFFFFFFFFFFFFFFFFFFFFFFFFFFFFFFFFFFFFFFFF AND PUSH20 0xFFFFFFFFFFFFFFFFFFFFFFFFFFFFFFFFFFFFFFFF AND DUP2 MSTORE PUSH1 0x20 ADD SWAP1 DUP2 MSTORE PUSH1 0x20 ADD PUSH1 0x0 KECCAK256 PUSH1 0x0 ADD PUSH1 0x10 DUP3 DUP3 DUP3 SWAP1 SLOAD SWAP1 PUSH2 0x100 EXP SWAP1 DIV PUSH16 0xFFFFFFFFFFFFFFFFFFFFFFFFFFFFFFFF AND PUSH2 0x1A0C SWAP2 SWAP1 PUSH2 0x6DA2 JUMP JUMPDEST SWAP3 POP PUSH2 0x100 EXP DUP2 SLOAD DUP2 PUSH16 0xFFFFFFFFFFFFFFFFFFFFFFFFFFFFFFFF MUL NOT AND SWAP1 DUP4 PUSH16 0xFFFFFFFFFFFFFFFFFFFFFFFFFFFFFFFF AND MUL OR SWAP1 SSTORE POP PUSH2 0x1A7F PUSH32 0x0 CALLER DUP4 PUSH16 0xFFFFFFFFFFFFFFFFFFFFFFFFFFFFFFFF AND PUSH2 0x2E7A JUMP JUMPDEST JUMPDEST CALLER PUSH20 0xFFFFFFFFFFFFFFFFFFFFFFFFFFFFFFFFFFFFFFFF AND CALLER PUSH20 0xFFFFFFFFFFFFFFFFFFFFFFFFFFFFFFFFFFFFFFFF AND PUSH32 0x596B573906218D3411850B26A6B437D6C4522FDB43D2D2386263F86D50B8B151 DUP5 DUP5 PUSH1 0x40 MLOAD PUSH2 0x1ADF SWAP3 SWAP2 SWAP1 PUSH2 0x6012 JUMP JUMPDEST PUSH1 0x40 MLOAD DUP1 SWAP2 SUB SWAP1 LOG3 PUSH1 0x1 PUSH1 0x3 PUSH1 0x0 ADD PUSH1 0x1E PUSH2 0x100 EXP DUP2 SLOAD DUP2 PUSH1 0xFF MUL NOT AND SWAP1 DUP4 ISZERO ISZERO MUL OR SWAP1 SSTORE POP SWAP1 SWAP2 JUMP JUMPDEST PUSH1 0x5 SLOAD DUP2 JUMP JUMPDEST PUSH1 0x0 DUP1 PUSH1 0x3 PUSH1 0x0 ADD PUSH1 0x1E SWAP1 SLOAD SWAP1 PUSH2 0x100 EXP SWAP1 DIV PUSH1 0xFF AND PUSH2 0x1B64 JUMPI PUSH1 0x40 MLOAD PUSH32 0x8C379A000000000000000000000000000000000000000000000000000000000 DUP2 MSTORE PUSH1 0x4 ADD PUSH2 0x1B5B SWAP1 PUSH2 0x6B5F JUMP JUMPDEST PUSH1 0x40 MLOAD DUP1 SWAP2 SUB SWAP1 REVERT JUMPDEST PUSH1 0x0 PUSH1 0x3 PUSH1 0x0 ADD PUSH1 0x1E PUSH2 0x100 EXP DUP2 SLOAD DUP2 PUSH1 0xFF MUL NOT AND SWAP1 DUP4 ISZERO ISZERO MUL OR SWAP1 SSTORE POP PUSH1 0x0 DUP1 PUSH1 0x0 PUSH2 0x1BD8 PUSH1 0x40 MLOAD DUP1 PUSH1 0x80 ADD PUSH1 0x40 MSTORE DUP1 CALLER PUSH20 0xFFFFFFFFFFFFFFFFFFFFFFFFFFFFFFFFFFFFFFFF AND DUP2 MSTORE PUSH1 0x20 ADD DUP11 PUSH1 0x2 SIGNEXTEND DUP2 MSTORE PUSH1 0x20 ADD DUP10 PUSH1 0x2 SIGNEXTEND DUP2 MSTORE PUSH1 0x20 ADD DUP9 PUSH2 0x1BCD SWAP1 PUSH2 0x6E1D JUMP JUMPDEST PUSH1 0xF SIGNEXTEND DUP2 MSTORE POP PUSH2 0x287A JUMP JUMPDEST SWAP3 POP SWAP3 POP SWAP3 POP DUP2 PUSH2 0x1BE8 SWAP1 PUSH2 0x6E65 JUMP JUMPDEST SWAP5 POP DUP1 PUSH2 0x1BF4 SWAP1 PUSH2 0x6E65 JUMP JUMPDEST SWAP4 POP PUSH1 0x0 DUP6 GT DUP1 PUSH2 0x1C05 JUMPI POP PUSH1 0x0 DUP5 GT JUMPDEST ISZERO PUSH2 0x1CDF JUMPI DUP5 DUP4 PUSH1 0x3 ADD PUSH1 0x0 SWAP1 SLOAD SWAP1 PUSH2 0x100 EXP SWAP1 DIV PUSH16 0xFFFFFFFFFFFFFFFFFFFFFFFFFFFFFFFF AND PUSH2 0x1C36 SWAP2 SWAP1 PUSH2 0x6EAD JUMP JUMPDEST DUP5 DUP5 PUSH1 0x3 ADD PUSH1 0x10 SWAP1 SLOAD SWAP1 PUSH2 0x100 EXP SWAP1 DIV PUSH16 0xFFFFFFFFFFFFFFFFFFFFFFFFFFFFFFFF AND PUSH2 0x1C62 SWAP2 SWAP1 PUSH2 0x6EAD JUMP JUMPDEST DUP5 PUSH1 0x3 ADD PUSH1 0x0 DUP7 PUSH1 0x3 ADD PUSH1 0x10 DUP5 SWAP2 SWAP1 PUSH2 0x100 EXP DUP2 SLOAD DUP2 PUSH16 0xFFFFFFFFFFFFFFFFFFFFFFFFFFFFFFFF MUL NOT AND SWAP1 DUP4 PUSH16 0xFFFFFFFFFFFFFFFFFFFFFFFFFFFFFFFF AND MUL OR SWAP1 SSTORE POP DUP4 SWAP2 SWAP1 PUSH2 0x100 EXP DUP2 SLOAD DUP2 PUSH16 0xFFFFFFFFFFFFFFFFFFFFFFFFFFFFFFFF MUL NOT AND SWAP1 DUP4 PUSH16 0xFFFFFFFFFFFFFFFFFFFFFFFFFFFFFFFF AND MUL OR SWAP1 SSTORE POP POP POP JUMPDEST DUP7 PUSH1 0x2 SIGNEXTEND DUP9 PUSH1 0x2 SIGNEXTEND CALLER PUSH20 0xFFFFFFFFFFFFFFFFFFFFFFFFFFFFFFFFFFFFFFFF AND PUSH32 0xC396CD989A39F4459B5FA1AED6A9A8DCDBC45908ACFD67E028CD568DA98982C DUP10 DUP10 DUP10 PUSH1 0x40 MLOAD PUSH2 0x1D31 SWAP4 SWAP3 SWAP2 SWAP1 PUSH2 0x6EF1 JUMP JUMPDEST PUSH1 0x40 MLOAD DUP1 SWAP2 SUB SWAP1 LOG4 POP POP POP PUSH1 0x1 PUSH1 0x3 PUSH1 0x0 ADD PUSH1 0x1E PUSH2 0x100 EXP DUP2 SLOAD DUP2 PUSH1 0xFF MUL NOT AND SWAP1 DUP4 ISZERO ISZERO MUL OR SWAP1 SSTORE POP SWAP4 POP SWAP4 SWAP2 POP POP JUMP JUMPDEST PUSH1 0x0 DUP1 PUSH1 0x0 PUSH2 0x1D6F PUSH2 0x2FCF JUMP JUMPDEST PUSH2 0x1D79 DUP6 DUP6 PUSH2 0x31D8 JUMP JUMPDEST PUSH1 0x0 DUP1 PUSH1 0x0 DUP1 PUSH1 0x0 DUP1 PUSH1 0x0 PUSH1 0x8 PUSH1 0x0 DUP14 PUSH1 0x2 SIGNEXTEND PUSH1 0x2 SIGNEXTEND DUP2 MSTORE PUSH1 0x20 ADD SWAP1 DUP2 MSTORE PUSH1 0x20 ADD PUSH1 0x0 KECCAK256 SWAP1 POP PUSH1 0x0 PUSH1 0x8 PUSH1 0x0 DUP14 PUSH1 0x2 SIGNEXTEND PUSH1 0x2 SIGNEXTEND DUP2 MSTORE PUSH1 0x20 ADD SWAP1 DUP2 MSTORE PUSH1 0x20 ADD PUSH1 0x0 KECCAK256 SWAP1 POP PUSH1 0x0 DUP3 PUSH1 0x3 ADD PUSH1 0x0 SWAP1 SLOAD SWAP1 PUSH2 0x100 EXP SWAP1 DIV PUSH1 0x6 SIGNEXTEND DUP4 PUSH1 0x3 ADD PUSH1 0x7 SWAP1 SLOAD SWAP1 PUSH2 0x100 EXP SWAP1 DIV PUSH20 0xFFFFFFFFFFFFFFFFFFFFFFFFFFFFFFFFFFFFFFFF AND DUP5 PUSH1 0x3 ADD PUSH1 0x1B SWAP1 SLOAD SWAP1 PUSH2 0x100 EXP SWAP1 DIV PUSH4 0xFFFFFFFF AND DUP6 PUSH1 0x3 ADD PUSH1 0x1F SWAP1 SLOAD SWAP1 PUSH2 0x100 EXP SWAP1 DIV PUSH1 0xFF AND DUP1 SWAP5 POP DUP2 SWAP9 POP DUP3 SWAP11 POP DUP4 SWAP13 POP POP POP POP POP DUP1 PUSH2 0x1E36 JUMPI PUSH1 0x0 DUP1 REVERT JUMPDEST PUSH1 0x0 DUP3 PUSH1 0x3 ADD PUSH1 0x0 SWAP1 SLOAD SWAP1 PUSH2 0x100 EXP SWAP1 DIV PUSH1 0x6 SIGNEXTEND DUP4 PUSH1 0x3 ADD PUSH1 0x7 SWAP1 SLOAD SWAP1 PUSH2 0x100 EXP SWAP1 DIV PUSH20 0xFFFFFFFFFFFFFFFFFFFFFFFFFFFFFFFFFFFFFFFF AND DUP5 PUSH1 0x3 ADD PUSH1 0x1B SWAP1 SLOAD SWAP1 PUSH2 0x100 EXP SWAP1 DIV PUSH4 0xFFFFFFFF AND DUP6 PUSH1 0x3 ADD PUSH1 0x1F SWAP1 SLOAD SWAP1 PUSH2 0x100 EXP SWAP1 DIV PUSH1 0xFF AND DUP1 SWAP5 POP DUP2 SWAP9 POP DUP3 SWAP11 POP DUP4 SWAP13 POP POP POP POP POP DUP1 PUSH2 0x1EB0 JUMPI PUSH1 0x0 DUP1 REVERT JUMPDEST POP POP POP POP PUSH1 0x0 PUSH1 0x3 PUSH1 0x40 MLOAD DUP1 PUSH1 0xE0 ADD PUSH1 0x40 MSTORE SWAP1 DUP2 PUSH1 0x0 DUP3 ADD PUSH1 0x0 SWAP1 SLOAD SWAP1 PUSH2 0x100 EXP SWAP1 DIV PUSH20 0xFFFFFFFFFFFFFFFFFFFFFFFFFFFFFFFFFFFFFFFF AND PUSH20 0xFFFFFFFFFFFFFFFFFFFFFFFFFFFFFFFFFFFFFFFF AND PUSH20 0xFFFFFFFFFFFFFFFFFFFFFFFFFFFFFFFFFFFFFFFF AND DUP2 MSTORE PUSH1 0x20 ADD PUSH1 0x0 DUP3 ADD PUSH1 0x14 SWAP1 SLOAD SWAP1 PUSH2 0x100 EXP SWAP1 DIV PUSH1 0x2 SIGNEXTEND PUSH1 0x2 SIGNEXTEND PUSH1 0x2 SIGNEXTEND DUP2 MSTORE PUSH1 0x20 ADD PUSH1 0x0 DUP3 ADD PUSH1 0x17 SWAP1 SLOAD SWAP1 PUSH2 0x100 EXP SWAP1 DIV PUSH2 0xFFFF AND PUSH2 0xFFFF AND PUSH2 0xFFFF AND DUP2 MSTORE PUSH1 0x20 ADD PUSH1 0x0 DUP3 ADD PUSH1 0x19 SWAP1 SLOAD SWAP1 PUSH2 0x100 EXP SWAP1 DIV PUSH2 0xFFFF AND PUSH2 0xFFFF AND PUSH2 0xFFFF AND DUP2 MSTORE PUSH1 0x20 ADD PUSH1 0x0 DUP3 ADD PUSH1 0x1B SWAP1 SLOAD SWAP1 PUSH2 0x100 EXP SWAP1 DIV PUSH2 0xFFFF AND PUSH2 0xFFFF AND PUSH2 0xFFFF AND DUP2 MSTORE PUSH1 0x20 ADD PUSH1 0x0 DUP3 ADD PUSH1 0x1D SWAP1 SLOAD SWAP1 PUSH2 0x100 EXP SWAP1 DIV PUSH1 0xFF AND PUSH1 0xFF AND PUSH1 0xFF AND DUP2 MSTORE PUSH1 0x20 ADD PUSH1 0x0 DUP3 ADD PUSH1 0x1E SWAP1 SLOAD SWAP1 PUSH2 0x100 EXP SWAP1 DIV PUSH1 0xFF AND ISZERO ISZERO ISZERO ISZERO DUP2 MSTORE POP POP SWAP1 POP DUP12 PUSH1 0x2 SIGNEXTEND DUP2 PUSH1 0x20 ADD MLOAD PUSH1 0x2 SIGNEXTEND SLT ISZERO PUSH2 0x2018 JUMPI DUP6 DUP8 PUSH2 0x1FEE SWAP2 SWAP1 PUSH2 0x6F28 JUMP JUMPDEST DUP5 DUP7 PUSH2 0x1FFA SWAP2 SWAP1 PUSH2 0x6F87 JUMP JUMPDEST DUP4 DUP6 PUSH2 0x2006 SWAP2 SWAP1 PUSH2 0x6FCF JUMP JUMPDEST SWAP10 POP SWAP10 POP SWAP10 POP POP POP POP POP POP POP POP PUSH2 0x2112 JUMP JUMPDEST DUP11 PUSH1 0x2 SIGNEXTEND DUP2 PUSH1 0x20 ADD MLOAD PUSH1 0x2 SIGNEXTEND SLT ISZERO PUSH2 0x20E0 JUMPI PUSH1 0x0 PUSH2 0x2034 PUSH2 0x3029 JUMP JUMPDEST SWAP1 POP PUSH1 0x0 DUP1 PUSH2 0x2082 DUP4 PUSH1 0x0 DUP7 PUSH1 0x20 ADD MLOAD DUP8 PUSH1 0x40 ADD MLOAD PUSH1 0x7 PUSH1 0x0 SWAP1 SLOAD SWAP1 PUSH2 0x100 EXP SWAP1 DIV PUSH16 0xFFFFFFFFFFFFFFFFFFFFFFFFFFFFFFFF AND DUP10 PUSH1 0x60 ADD MLOAD PUSH1 0xB PUSH2 0x32FF SWAP1 SWAP7 SWAP6 SWAP5 SWAP4 SWAP3 SWAP2 SWAP1 PUSH4 0xFFFFFFFF AND JUMP JUMPDEST SWAP2 POP SWAP2 POP DUP9 DUP11 DUP4 PUSH2 0x2093 SWAP2 SWAP1 PUSH2 0x6F28 JUMP JUMPDEST PUSH2 0x209D SWAP2 SWAP1 PUSH2 0x6F28 JUMP JUMPDEST DUP8 DUP10 DUP4 PUSH2 0x20AA SWAP2 SWAP1 PUSH2 0x6F87 JUMP JUMPDEST PUSH2 0x20B4 SWAP2 SWAP1 PUSH2 0x6F87 JUMP JUMPDEST DUP7 DUP9 DUP7 PUSH2 0x20C1 SWAP2 SWAP1 PUSH2 0x6FCF JUMP JUMPDEST PUSH2 0x20CB SWAP2 SWAP1 PUSH2 0x6FCF JUMP JUMPDEST SWAP13 POP SWAP13 POP SWAP13 POP POP POP POP POP POP POP POP POP POP POP PUSH2 0x2112 JUMP JUMPDEST DUP7 DUP7 PUSH2 0x20EC SWAP2 SWAP1 PUSH2 0x6F28 JUMP JUMPDEST DUP6 DUP6 PUSH2 0x20F8 SWAP2 SWAP1 PUSH2 0x6F87 JUMP JUMPDEST DUP5 DUP5 PUSH2 0x2104 SWAP2 SWAP1 PUSH2 0x6FCF JUMP JUMPDEST SWAP10 POP SWAP10 POP SWAP10 POP POP POP POP POP POP POP POP JUMPDEST SWAP3 POP SWAP3 POP SWAP3 JUMP JUMPDEST PUSH1 0x0 DUP1 PUSH2 0x2124 PUSH2 0x2FCF JUMP JUMPDEST SWAP8 POP SWAP8 SWAP6 POP POP POP POP POP POP JUMP JUMPDEST PUSH1 0x0 DUP1 PUSH1 0x0 ADD PUSH1 0x0 SWAP1 SLOAD SWAP1 PUSH2 0x100 EXP SWAP1 DIV PUSH1 0xFF AND SWAP1 DUP1 PUSH1 0x0 ADD PUSH1 0x1 SWAP1 SLOAD SWAP1 PUSH2 0x100 EXP SWAP1 DIV PUSH1 0xFF AND SWAP1 DUP1 PUSH1 0x0 ADD PUSH1 0x2 SWAP1 SLOAD SWAP1 PUSH2 0x100 EXP SWAP1 DIV PUSH1 0xFF AND SWAP1 DUP1 PUSH1 0x0 ADD PUSH1 0x3 SWAP1 SLOAD SWAP1 PUSH2 0x100 EXP SWAP1 DIV PUSH1 0xFF AND SWAP1 POP DUP5 JUMP JUMPDEST PUSH1 0x1 PUSH1 0x15 SWAP1 SLOAD SWAP1 PUSH2 0x100 EXP SWAP1 DIV PUSH1 0xFF AND DUP2 JUMP JUMPDEST PUSH1 0x3 PUSH1 0x0 ADD PUSH1 0x1E SWAP1 SLOAD SWAP1 PUSH2 0x100 EXP SWAP1 DIV PUSH1 0xFF AND PUSH2 0x21E7 JUMPI PUSH1 0x40 MLOAD PUSH32 0x8C379A000000000000000000000000000000000000000000000000000000000 DUP2 MSTORE PUSH1 0x4 ADD PUSH2 0x21DE SWAP1 PUSH2 0x6B5F JUMP JUMPDEST PUSH1 0x40 MLOAD DUP1 SWAP2 SUB SWAP1 REVERT JUMPDEST PUSH1 0x0 PUSH1 0x3 PUSH1 0x0 ADD PUSH1 0x1E PUSH2 0x100 EXP DUP2 SLOAD DUP2 PUSH1 0xFF MUL NOT AND SWAP1 DUP4 ISZERO ISZERO MUL OR SWAP1 SSTORE POP PUSH2 0x220D PUSH2 0x2FCF JUMP JUMPDEST PUSH1 0x0 PUSH1 0x3 PUSH1 0x0 ADD PUSH1 0x1B SWAP1 SLOAD SWAP1 PUSH2 0x100 EXP SWAP1 DIV PUSH2 0xFFFF AND SWAP1 POP PUSH1 0x0 PUSH2 0x223D DUP3 DUP5 PUSH1 0xB PUSH2 0x356C SWAP1 SWAP3 SWAP2 SWAP1 PUSH4 0xFFFFFFFF AND JUMP JUMPDEST SWAP1 POP DUP1 PUSH1 0x3 PUSH1 0x0 ADD PUSH1 0x1B PUSH2 0x100 EXP DUP2 SLOAD DUP2 PUSH2 0xFFFF MUL NOT AND SWAP1 DUP4 PUSH2 0xFFFF AND MUL OR SWAP1 SSTORE POP DUP1 PUSH2 0xFFFF AND DUP3 PUSH2 0xFFFF AND EQ PUSH2 0x22A8 JUMPI PUSH32 0xAC49E518F90A358F652E4400164F05A5D8F7E35E7747279BC3A93DBF584E125A DUP3 DUP3 PUSH1 0x40 MLOAD PUSH2 0x229F SWAP3 SWAP2 SWAP1 PUSH2 0x7007 JUMP JUMPDEST PUSH1 0x40 MLOAD DUP1 SWAP2 SUB SWAP1 LOG1 JUMPDEST POP POP PUSH1 0x1 PUSH1 0x3 PUSH1 0x0 ADD PUSH1 0x1E PUSH2 0x100 EXP DUP2 SLOAD DUP2 PUSH1 0xFF MUL NOT AND SWAP1 DUP4 ISZERO ISZERO MUL OR SWAP1 SSTORE POP POP JUMP JUMPDEST PUSH1 0x3 PUSH1 0x0 ADD PUSH1 0x1E SWAP1 SLOAD SWAP1 PUSH2 0x100 EXP SWAP1 DIV PUSH1 0xFF AND PUSH2 0x231D JUMPI PUSH1 0x40 MLOAD PUSH32 0x8C379A000000000000000000000000000000000000000000000000000000000 DUP2 MSTORE PUSH1 0x4 ADD PUSH2 0x2314 SWAP1 PUSH2 0x6B5F JUMP JUMPDEST PUSH1 0x40 MLOAD DUP1 SWAP2 SUB SWAP1 REVERT JUMPDEST PUSH1 0x0 PUSH1 0x3 PUSH1 0x0 ADD PUSH1 0x1E PUSH2 0x100 EXP DUP2 SLOAD DUP2 PUSH1 0xFF MUL NOT AND SWAP1 DUP4 ISZERO ISZERO MUL OR SWAP1 SSTORE POP PUSH1 0x1 ISZERO ISZERO PUSH32 0x0 PUSH20 0xFFFFFFFFFFFFFFFFFFFFFFFFFFFFFFFFFFFFFFFF AND PUSH4 0x1487F252 PUSH1 0x40 MLOAD DUP2 PUSH4 0xFFFFFFFF AND PUSH1 0xE0 SHL DUP2 MSTORE PUSH1 0x4 ADD PUSH1 0x20 PUSH1 0x40 MLOAD DUP1 DUP4 SUB DUP2 DUP7 GAS STATICCALL ISZERO DUP1 ISZERO PUSH2 0x23AA JUMPI RETURNDATASIZE PUSH1 0x0 DUP1 RETURNDATACOPY RETURNDATASIZE PUSH1 0x0 REVERT JUMPDEST POP POP POP POP PUSH1 0x40 MLOAD RETURNDATASIZE PUSH1 0x1F NOT PUSH1 0x1F DUP3 ADD AND DUP3 ADD DUP1 PUSH1 0x40 MSTORE POP DUP2 ADD SWAP1 PUSH2 0x23CE SWAP2 SWAP1 PUSH2 0x6B94 JUMP JUMPDEST ISZERO ISZERO EQ PUSH2 0x23DA JUMPI PUSH1 0x0 DUP1 REVERT JUMPDEST PUSH1 0x64 DUP2 DUP4 DUP6 DUP8 PUSH2 0x23EA SWAP2 SWAP1 PUSH2 0x6BF0 JUMP JUMPDEST PUSH2 0x23F4 SWAP2 SWAP1 PUSH2 0x6BF0 JUMP JUMPDEST PUSH2 0x23FE SWAP2 SWAP1 PUSH2 0x6BF0 JUMP JUMPDEST PUSH1 0xFF AND EQ PUSH2 0x2441 JUMPI PUSH1 0x40 MLOAD PUSH32 0x8C379A000000000000000000000000000000000000000000000000000000000 DUP2 MSTORE PUSH1 0x4 ADD PUSH2 0x2438 SWAP1 PUSH2 0x707C JUMP JUMPDEST PUSH1 0x40 MLOAD DUP1 SWAP2 SUB SWAP1 REVERT JUMPDEST PUSH1 0x40 MLOAD DUP1 PUSH1 0x80 ADD PUSH1 0x40 MSTORE DUP1 DUP6 PUSH1 0xFF AND DUP2 MSTORE PUSH1 0x20 ADD DUP5 PUSH1 0xFF AND DUP2 MSTORE PUSH1 0x20 ADD DUP4 PUSH1 0xFF AND DUP2 MSTORE PUSH1 0x20 ADD DUP3 PUSH1 0xFF AND DUP2 MSTORE POP PUSH1 0x0 DUP1 DUP3 ADD MLOAD DUP2 PUSH1 0x0 ADD PUSH1 0x0 PUSH2 0x100 EXP DUP2 SLOAD DUP2 PUSH1 0xFF MUL NOT AND SWAP1 DUP4 PUSH1 0xFF AND MUL OR SWAP1 SSTORE POP PUSH1 0x20 DUP3 ADD MLOAD DUP2 PUSH1 0x0 ADD PUSH1 0x1 PUSH2 0x100 EXP DUP2 SLOAD DUP2 PUSH1 0xFF MUL NOT AND SWAP1 DUP4 PUSH1 0xFF AND MUL OR SWAP1 SSTORE POP PUSH1 0x40 DUP3 ADD MLOAD DUP2 PUSH1 0x0 ADD PUSH1 0x2 PUSH2 0x100 EXP DUP2 SLOAD DUP2 PUSH1 0xFF MUL NOT AND SWAP1 DUP4 PUSH1 0xFF AND MUL OR SWAP1 SSTORE POP PUSH1 0x60 DUP3 ADD MLOAD DUP2 PUSH1 0x0 ADD PUSH1 0x3 PUSH2 0x100 EXP DUP2 SLOAD DUP2 PUSH1 0xFF MUL NOT AND SWAP1 DUP4 PUSH1 0xFF AND MUL OR SWAP1 SSTORE POP SWAP1 POP POP PUSH1 0x1 PUSH1 0x3 PUSH1 0x0 ADD PUSH1 0x1E PUSH2 0x100 EXP DUP2 SLOAD DUP2 PUSH1 0xFF MUL NOT AND SWAP1 DUP4 ISZERO ISZERO MUL OR SWAP1 SSTORE POP POP POP POP POP JUMP JUMPDEST PUSH32 0x0 DUP2 JUMP JUMPDEST PUSH1 0x0 PUSH1 0x3 PUSH1 0x0 ADD PUSH1 0x0 SWAP1 SLOAD SWAP1 PUSH2 0x100 EXP SWAP1 DIV PUSH20 0xFFFFFFFFFFFFFFFFFFFFFFFFFFFFFFFFFFFFFFFF AND PUSH20 0xFFFFFFFFFFFFFFFFFFFFFFFFFFFFFFFFFFFFFFFF AND EQ PUSH2 0x25BC JUMPI PUSH1 0x40 MLOAD PUSH32 0x8C379A000000000000000000000000000000000000000000000000000000000 DUP2 MSTORE PUSH1 0x4 ADD PUSH2 0x25B3 SWAP1 PUSH2 0x70E8 JUMP JUMPDEST PUSH1 0x40 MLOAD DUP1 SWAP2 SUB SWAP1 REVERT JUMPDEST PUSH1 0x0 PUSH2 0x25C7 DUP3 PUSH2 0x363C JUMP JUMPDEST SWAP1 POP PUSH1 0x0 DUP1 PUSH2 0x25E7 PUSH2 0x25D7 PUSH2 0x3029 JUMP JUMPDEST PUSH1 0xB PUSH2 0x3A3B SWAP1 SWAP2 SWAP1 PUSH4 0xFFFFFFFF AND JUMP JUMPDEST SWAP2 POP SWAP2 POP PUSH1 0x40 MLOAD DUP1 PUSH1 0xE0 ADD PUSH1 0x40 MSTORE DUP1 DUP6 PUSH20 0xFFFFFFFFFFFFFFFFFFFFFFFFFFFFFFFFFFFFFFFF AND DUP2 MSTORE PUSH1 0x20 ADD DUP5 PUSH1 0x2 SIGNEXTEND DUP2 MSTORE PUSH1 0x20 ADD PUSH1 0x0 PUSH2 0xFFFF AND DUP2 MSTORE PUSH1 0x20 ADD DUP4 PUSH2 0xFFFF AND DUP2 MSTORE PUSH1 0x20 ADD DUP3 PUSH2 0xFFFF AND DUP2 MSTORE PUSH1 0x20 ADD PUSH1 0x0 PUSH1 0xFF AND DUP2 MSTORE PUSH1 0x20 ADD PUSH1 0x1 ISZERO ISZERO DUP2 MSTORE POP PUSH1 0x3 PUSH1 0x0 DUP3 ADD MLOAD DUP2 PUSH1 0x0 ADD PUSH1 0x0 PUSH2 0x100 EXP DUP2 SLOAD DUP2 PUSH20 0xFFFFFFFFFFFFFFFFFFFFFFFFFFFFFFFFFFFFFFFF MUL NOT AND SWAP1 DUP4 PUSH20 0xFFFFFFFFFFFFFFFFFFFFFFFFFFFFFFFFFFFFFFFF AND MUL OR SWAP1 SSTORE POP PUSH1 0x20 DUP3 ADD MLOAD DUP2 PUSH1 0x0 ADD PUSH1 0x14 PUSH2 0x100 EXP DUP2 SLOAD DUP2 PUSH3 0xFFFFFF MUL NOT AND SWAP1 DUP4 PUSH1 0x2 SIGNEXTEND PUSH3 0xFFFFFF AND MUL OR SWAP1 SSTORE POP PUSH1 0x40 DUP3 ADD MLOAD DUP2 PUSH1 0x0 ADD PUSH1 0x17 PUSH2 0x100 EXP DUP2 SLOAD DUP2 PUSH2 0xFFFF MUL NOT AND SWAP1 DUP4 PUSH2 0xFFFF AND MUL OR SWAP1 SSTORE POP PUSH1 0x60 DUP3 ADD MLOAD DUP2 PUSH1 0x0 ADD PUSH1 0x19 PUSH2 0x100 EXP DUP2 SLOAD DUP2 PUSH2 0xFFFF MUL NOT AND SWAP1 DUP4 PUSH2 0xFFFF AND MUL OR SWAP1 SSTORE POP PUSH1 0x80 DUP3 ADD MLOAD DUP2 PUSH1 0x0 ADD PUSH1 0x1B PUSH2 0x100 EXP DUP2 SLOAD DUP2 PUSH2 0xFFFF MUL NOT AND SWAP1 DUP4 PUSH2 0xFFFF AND MUL OR SWAP1 SSTORE POP PUSH1 0xA0 DUP3 ADD MLOAD DUP2 PUSH1 0x0 ADD PUSH1 0x1D PUSH2 0x100 EXP DUP2 SLOAD DUP2 PUSH1 0xFF MUL NOT AND SWAP1 DUP4 PUSH1 0xFF AND MUL OR SWAP1 SSTORE POP PUSH1 0xC0 DUP3 ADD MLOAD DUP2 PUSH1 0x0 ADD PUSH1 0x1E PUSH2 0x100 EXP DUP2 SLOAD DUP2 PUSH1 0xFF MUL NOT AND SWAP1 DUP4 ISZERO ISZERO MUL OR SWAP1 SSTORE POP SWAP1 POP POP PUSH32 0x98636036CB66A9C19A37435EFC1E90142190214E8ABEB821BDBA3F2990DD4C95 DUP5 DUP5 PUSH1 0x40 MLOAD PUSH2 0x279A SWAP3 SWAP2 SWAP1 PUSH2 0x7108 JUMP JUMPDEST PUSH1 0x40 MLOAD DUP1 SWAP2 SUB SWAP1 LOG1 POP POP POP POP JUMP JUMPDEST PUSH1 0x0 DUP1 DUP3 DUP4 PUSH32 0xFFFFFFFFFFFFFFFFFFFFFFFFFFFFFFFFFFFFFFFFFFFFFFFFFFFFFFFFFFF27618 PUSH2 0x27D8 SWAP2 SWAP1 PUSH2 0x7131 JUMP JUMPDEST PUSH2 0x27E2 SWAP2 SWAP1 PUSH2 0x719B JUMP JUMPDEST SWAP1 POP PUSH1 0x0 DUP4 DUP5 PUSH32 0xFFFFFFFFFFFFFFFFFFFFFFFFFFFFFFFFFFFFFFFFFFFFFFFFFFFFFFFFFFF27618 PUSH2 0x2812 SWAP1 PUSH2 0x71D8 JUMP JUMPDEST PUSH2 0x281C SWAP2 SWAP1 PUSH2 0x7131 JUMP JUMPDEST PUSH2 0x2826 SWAP2 SWAP1 PUSH2 0x719B JUMP JUMPDEST SWAP1 POP PUSH1 0x0 PUSH1 0x1 DUP6 DUP5 DUP5 PUSH2 0x2839 SWAP2 SWAP1 PUSH2 0x7220 JUMP JUMPDEST PUSH2 0x2843 SWAP2 SWAP1 PUSH2 0x7131 JUMP JUMPDEST PUSH2 0x284D SWAP2 SWAP1 PUSH2 0x727B JUMP JUMPDEST SWAP1 POP DUP1 PUSH3 0xFFFFFF AND PUSH16 0xFFFFFFFFFFFFFFFFFFFFFFFFFFFFFFFF PUSH2 0x2870 SWAP2 SWAP1 PUSH2 0x72B2 JUMP JUMPDEST SWAP4 POP POP POP POP SWAP2 SWAP1 POP JUMP JUMPDEST PUSH1 0x0 DUP1 PUSH1 0x0 PUSH2 0x2887 PUSH2 0x2FCF JUMP JUMPDEST PUSH2 0x2899 DUP5 PUSH1 0x20 ADD MLOAD DUP6 PUSH1 0x40 ADD MLOAD PUSH2 0x31D8 JUMP JUMPDEST PUSH1 0x0 PUSH1 0x3 PUSH1 0x40 MLOAD DUP1 PUSH1 0xE0 ADD PUSH1 0x40 MSTORE SWAP1 DUP2 PUSH1 0x0 DUP3 ADD PUSH1 0x0 SWAP1 SLOAD SWAP1 PUSH2 0x100 EXP SWAP1 DIV PUSH20 0xFFFFFFFFFFFFFFFFFFFFFFFFFFFFFFFFFFFFFFFF AND PUSH20 0xFFFFFFFFFFFFFFFFFFFFFFFFFFFFFFFFFFFFFFFF AND PUSH20 0xFFFFFFFFFFFFFFFFFFFFFFFFFFFFFFFFFFFFFFFF AND DUP2 MSTORE PUSH1 0x20 ADD PUSH1 0x0 DUP3 ADD PUSH1 0x14 SWAP1 SLOAD SWAP1 PUSH2 0x100 EXP SWAP1 DIV PUSH1 0x2 SIGNEXTEND PUSH1 0x2 SIGNEXTEND PUSH1 0x2 SIGNEXTEND DUP2 MSTORE PUSH1 0x20 ADD PUSH1 0x0 DUP3 ADD PUSH1 0x17 SWAP1 SLOAD SWAP1 PUSH2 0x100 EXP SWAP1 DIV PUSH2 0xFFFF AND PUSH2 0xFFFF AND PUSH2 0xFFFF AND DUP2 MSTORE PUSH1 0x20 ADD PUSH1 0x0 DUP3 ADD PUSH1 0x19 SWAP1 SLOAD SWAP1 PUSH2 0x100 EXP SWAP1 DIV PUSH2 0xFFFF AND PUSH2 0xFFFF AND PUSH2 0xFFFF AND DUP2 MSTORE PUSH1 0x20 ADD PUSH1 0x0 DUP3 ADD PUSH1 0x1B SWAP1 SLOAD SWAP1 PUSH2 0x100 EXP SWAP1 DIV PUSH2 0xFFFF AND PUSH2 0xFFFF AND PUSH2 0xFFFF AND DUP2 MSTORE PUSH1 0x20 ADD PUSH1 0x0 DUP3 ADD PUSH1 0x1D SWAP1 SLOAD SWAP1 PUSH2 0x100 EXP SWAP1 DIV PUSH1 0xFF AND PUSH1 0xFF AND PUSH1 0xFF AND DUP2 MSTORE PUSH1 0x20 ADD PUSH1 0x0 DUP3 ADD PUSH1 0x1E SWAP1 SLOAD SWAP1 PUSH2 0x100 EXP SWAP1 DIV PUSH1 0xFF AND ISZERO ISZERO ISZERO ISZERO DUP2 MSTORE POP POP SWAP1 POP PUSH2 0x29D6 DUP6 PUSH1 0x0 ADD MLOAD DUP7 PUSH1 0x20 ADD MLOAD DUP8 PUSH1 0x40 ADD MLOAD DUP9 PUSH1 0x60 ADD MLOAD DUP6 PUSH1 0x20 ADD MLOAD PUSH2 0x3B68 JUMP JUMPDEST SWAP4 POP PUSH1 0x0 DUP6 PUSH1 0x60 ADD MLOAD PUSH1 0xF SIGNEXTEND EQ PUSH2 0x2B99 JUMPI DUP5 PUSH1 0x20 ADD MLOAD PUSH1 0x2 SIGNEXTEND DUP2 PUSH1 0x20 ADD MLOAD PUSH1 0x2 SIGNEXTEND SLT ISZERO PUSH2 0x2A2B JUMPI PUSH2 0x2A24 PUSH2 0x2A0D DUP7 PUSH1 0x20 ADD MLOAD PUSH2 0x3DC4 JUMP JUMPDEST PUSH2 0x2A1A DUP8 PUSH1 0x40 ADD MLOAD PUSH2 0x3DC4 JUMP JUMPDEST DUP8 PUSH1 0x60 ADD MLOAD PUSH2 0x428F JUMP JUMPDEST SWAP3 POP PUSH2 0x2B98 JUMP JUMPDEST DUP5 PUSH1 0x40 ADD MLOAD PUSH1 0x2 SIGNEXTEND DUP2 PUSH1 0x20 ADD MLOAD PUSH1 0x2 SIGNEXTEND SLT ISZERO PUSH2 0x2B6D JUMPI PUSH1 0x0 PUSH1 0x7 PUSH1 0x0 SWAP1 SLOAD SWAP1 PUSH2 0x100 EXP SWAP1 DIV PUSH16 0xFFFFFFFFFFFFFFFFFFFFFFFFFFFFFFFF AND SWAP1 POP PUSH2 0x2A99 DUP3 PUSH1 0x40 ADD MLOAD PUSH2 0x2A74 PUSH2 0x3029 JUMP JUMPDEST DUP5 PUSH1 0x20 ADD MLOAD DUP5 DUP7 PUSH1 0x60 ADD MLOAD DUP8 PUSH1 0x80 ADD MLOAD PUSH1 0xB PUSH2 0x42E6 SWAP1 SWAP7 SWAP6 SWAP5 SWAP4 SWAP3 SWAP2 SWAP1 PUSH4 0xFFFFFFFF AND JUMP JUMPDEST PUSH1 0x3 PUSH1 0x0 ADD PUSH1 0x17 PUSH1 0x3 PUSH1 0x0 ADD PUSH1 0x19 DUP5 SWAP2 SWAP1 PUSH2 0x100 EXP DUP2 SLOAD DUP2 PUSH2 0xFFFF MUL NOT AND SWAP1 DUP4 PUSH2 0xFFFF AND MUL OR SWAP1 SSTORE POP DUP4 SWAP2 SWAP1 PUSH2 0x100 EXP DUP2 SLOAD DUP2 PUSH2 0xFFFF MUL NOT AND SWAP1 DUP4 PUSH2 0xFFFF AND MUL OR SWAP1 SSTORE POP POP POP PUSH2 0x2AFE DUP3 PUSH1 0x0 ADD MLOAD PUSH2 0x2AF4 DUP9 PUSH1 0x40 ADD MLOAD PUSH2 0x3DC4 JUMP JUMPDEST DUP9 PUSH1 0x60 ADD MLOAD PUSH2 0x428F JUMP JUMPDEST SWAP4 POP PUSH2 0x2B1F PUSH2 0x2B10 DUP8 PUSH1 0x20 ADD MLOAD PUSH2 0x3DC4 JUMP JUMPDEST DUP4 PUSH1 0x0 ADD MLOAD DUP9 PUSH1 0x60 ADD MLOAD PUSH2 0x4531 JUMP JUMPDEST SWAP3 POP PUSH2 0x2B2F DUP2 DUP8 PUSH1 0x60 ADD MLOAD PUSH2 0x4588 JUMP JUMPDEST PUSH1 0x7 PUSH1 0x0 PUSH2 0x100 EXP DUP2 SLOAD DUP2 PUSH16 0xFFFFFFFFFFFFFFFFFFFFFFFFFFFFFFFF MUL NOT AND SWAP1 DUP4 PUSH16 0xFFFFFFFFFFFFFFFFFFFFFFFFFFFFFFFF AND MUL OR SWAP1 SSTORE POP POP PUSH2 0x2B97 JUMP JUMPDEST PUSH2 0x2B94 PUSH2 0x2B7D DUP7 PUSH1 0x20 ADD MLOAD PUSH2 0x3DC4 JUMP JUMPDEST PUSH2 0x2B8A DUP8 PUSH1 0x40 ADD MLOAD PUSH2 0x3DC4 JUMP JUMPDEST DUP8 PUSH1 0x60 ADD MLOAD PUSH2 0x4531 JUMP JUMPDEST SWAP2 POP JUMPDEST JUMPDEST JUMPDEST POP SWAP2 SWAP4 SWAP1 SWAP3 POP JUMP JUMPDEST PUSH1 0x0 DUP1 PUSH1 0x0 PUSH32 0x0 PUSH20 0xFFFFFFFFFFFFFFFFFFFFFFFFFFFFFFFFFFFFFFFF AND PUSH4 0x70A08231 PUSH1 0xE0 SHL ADDRESS PUSH1 0x40 MLOAD PUSH1 0x24 ADD PUSH2 0x2BF6 SWAP2 SWAP1 PUSH2 0x5D46 JUMP JUMPDEST PUSH1 0x40 MLOAD PUSH1 0x20 DUP2 DUP4 SUB SUB DUP2 MSTORE SWAP1 PUSH1 0x40 MSTORE SWAP1 PUSH28 0xFFFFFFFFFFFFFFFFFFFFFFFFFFFFFFFFFFFFFFFFFFFFFFFFFFFFFFFF NOT AND PUSH1 0x20 DUP3 ADD DUP1 MLOAD PUSH28 0xFFFFFFFFFFFFFFFFFFFFFFFFFFFFFFFFFFFFFFFFFFFFFFFFFFFFFFFF DUP4 DUP2 DUP4 AND OR DUP4 MSTORE POP POP POP POP PUSH1 0x40 MLOAD PUSH2 0x2C60 SWAP2 SWAP1 PUSH2 0x7354 JUMP JUMPDEST PUSH1 0x0 PUSH1 0x40 MLOAD DUP1 DUP4 SUB DUP2 DUP6 GAS STATICCALL SWAP2 POP POP RETURNDATASIZE DUP1 PUSH1 0x0 DUP2 EQ PUSH2 0x2C9B JUMPI PUSH1 0x40 MLOAD SWAP2 POP PUSH1 0x1F NOT PUSH1 0x3F RETURNDATASIZE ADD AND DUP3 ADD PUSH1 0x40 MSTORE RETURNDATASIZE DUP3 MSTORE RETURNDATASIZE PUSH1 0x0 PUSH1 0x20 DUP5 ADD RETURNDATACOPY PUSH2 0x2CA0 JUMP JUMPDEST PUSH1 0x60 SWAP2 POP JUMPDEST POP SWAP2 POP SWAP2 POP DUP2 DUP1 ISZERO PUSH2 0x2CB4 JUMPI POP PUSH1 0x20 DUP2 MLOAD LT ISZERO JUMPDEST PUSH2 0x2CBD JUMPI PUSH1 0x0 DUP1 REVERT JUMPDEST DUP1 DUP1 PUSH1 0x20 ADD SWAP1 MLOAD DUP2 ADD SWAP1 PUSH2 0x2CD1 SWAP2 SWAP1 PUSH2 0x7380 JUMP JUMPDEST SWAP3 POP POP POP SWAP1 JUMP JUMPDEST PUSH1 0x0 DUP1 PUSH1 0x0 PUSH32 0x0 PUSH20 0xFFFFFFFFFFFFFFFFFFFFFFFFFFFFFFFFFFFFFFFF AND PUSH4 0x70A08231 PUSH1 0xE0 SHL ADDRESS PUSH1 0x40 MLOAD PUSH1 0x24 ADD PUSH2 0x2D2D SWAP2 SWAP1 PUSH2 0x5D46 JUMP JUMPDEST PUSH1 0x40 MLOAD PUSH1 0x20 DUP2 DUP4 SUB SUB DUP2 MSTORE SWAP1 PUSH1 0x40 MSTORE SWAP1 PUSH28 0xFFFFFFFFFFFFFFFFFFFFFFFFFFFFFFFFFFFFFFFFFFFFFFFFFFFFFFFF NOT AND PUSH1 0x20 DUP3 ADD DUP1 MLOAD PUSH28 0xFFFFFFFFFFFFFFFFFFFFFFFFFFFFFFFFFFFFFFFFFFFFFFFFFFFFFFFF DUP4 DUP2 DUP4 AND OR DUP4 MSTORE POP POP POP POP PUSH1 0x40 MLOAD PUSH2 0x2D97 SWAP2 SWAP1 PUSH2 0x7354 JUMP JUMPDEST PUSH1 0x0 PUSH1 0x40 MLOAD DUP1 DUP4 SUB DUP2 DUP6 GAS STATICCALL SWAP2 POP POP RETURNDATASIZE DUP1 PUSH1 0x0 DUP2 EQ PUSH2 0x2DD2 JUMPI PUSH1 0x40 MLOAD SWAP2 POP PUSH1 0x1F NOT PUSH1 0x3F RETURNDATASIZE ADD AND DUP3 ADD PUSH1 0x40 MSTORE RETURNDATASIZE DUP3 MSTORE RETURNDATASIZE PUSH1 0x0 PUSH1 0x20 DUP5 ADD RETURNDATACOPY PUSH2 0x2DD7 JUMP JUMPDEST PUSH1 0x60 SWAP2 POP JUMPDEST POP SWAP2 POP SWAP2 POP DUP2 DUP1 ISZERO PUSH2 0x2DEB JUMPI POP PUSH1 0x20 DUP2 MLOAD LT ISZERO JUMPDEST PUSH2 0x2DF4 JUMPI PUSH1 0x0 DUP1 REVERT JUMPDEST DUP1 DUP1 PUSH1 0x20 ADD SWAP1 MLOAD DUP2 ADD SWAP1 PUSH2 0x2E08 SWAP2 SWAP1 PUSH2 0x7380 JUMP JUMPDEST SWAP3 POP POP POP SWAP1 JUMP JUMPDEST PUSH1 0x0 DUP3 DUP3 DUP5 PUSH2 0x2E1E SWAP2 SWAP1 PUSH2 0x73AD JUMP JUMPDEST SWAP2 POP DUP2 LT ISZERO PUSH2 0x2E2C JUMPI PUSH1 0x0 DUP1 REVERT JUMPDEST SWAP3 SWAP2 POP POP JUMP JUMPDEST PUSH1 0x0 DUP5 PUSH1 0x0 DUP6 DUP6 DUP6 PUSH1 0x40 MLOAD PUSH1 0x20 ADD PUSH2 0x2E4C SWAP4 SWAP3 SWAP2 SWAP1 PUSH2 0x745F JUMP JUMPDEST PUSH1 0x40 MLOAD PUSH1 0x20 DUP2 DUP4 SUB SUB DUP2 MSTORE SWAP1 PUSH1 0x40 MSTORE DUP1 MLOAD SWAP1 PUSH1 0x20 ADD KECCAK256 DUP2 MSTORE PUSH1 0x20 ADD SWAP1 DUP2 MSTORE PUSH1 0x20 ADD PUSH1 0x0 KECCAK256 SWAP1 POP SWAP5 SWAP4 POP POP POP POP JUMP JUMPDEST PUSH1 0x0 DUP1 DUP5 PUSH20 0xFFFFFFFFFFFFFFFFFFFFFFFFFFFFFFFFFFFFFFFF AND PUSH4 0xA9059CBB PUSH1 0xE0 SHL DUP6 DUP6 PUSH1 0x40 MLOAD PUSH1 0x24 ADD PUSH2 0x2EAF SWAP3 SWAP2 SWAP1 PUSH2 0x749C JUMP JUMPDEST PUSH1 0x40 MLOAD PUSH1 0x20 DUP2 DUP4 SUB SUB DUP2 MSTORE SWAP1 PUSH1 0x40 MSTORE SWAP1 PUSH28 0xFFFFFFFFFFFFFFFFFFFFFFFFFFFFFFFFFFFFFFFFFFFFFFFFFFFFFFFF NOT AND PUSH1 0x20 DUP3 ADD DUP1 MLOAD PUSH28 0xFFFFFFFFFFFFFFFFFFFFFFFFFFFFFFFFFFFFFFFFFFFFFFFFFFFFFFFF DUP4 DUP2 DUP4 AND OR DUP4 MSTORE POP POP POP POP PUSH1 0x40 MLOAD PUSH2 0x2F19 SWAP2 SWAP1 PUSH2 0x7354 JUMP JUMPDEST PUSH1 0x0 PUSH1 0x40 MLOAD DUP1 DUP4 SUB DUP2 PUSH1 0x0 DUP7 GAS CALL SWAP2 POP POP RETURNDATASIZE DUP1 PUSH1 0x0 DUP2 EQ PUSH2 0x2F56 JUMPI PUSH1 0x40 MLOAD SWAP2 POP PUSH1 0x1F NOT PUSH1 0x3F RETURNDATASIZE ADD AND DUP3 ADD PUSH1 0x40 MSTORE RETURNDATASIZE DUP3 MSTORE RETURNDATASIZE PUSH1 0x0 PUSH1 0x20 DUP5 ADD RETURNDATACOPY PUSH2 0x2F5B JUMP JUMPDEST PUSH1 0x60 SWAP2 POP JUMPDEST POP SWAP2 POP SWAP2 POP DUP2 DUP1 ISZERO PUSH2 0x2F89 JUMPI POP PUSH1 0x0 DUP2 MLOAD EQ DUP1 PUSH2 0x2F88 JUMPI POP DUP1 DUP1 PUSH1 0x20 ADD SWAP1 MLOAD DUP2 ADD SWAP1 PUSH2 0x2F87 SWAP2 SWAP1 PUSH2 0x6B94 JUMP JUMPDEST JUMPDEST JUMPDEST PUSH2 0x2FC8 JUMPI PUSH1 0x40 MLOAD PUSH32 0x8C379A000000000000000000000000000000000000000000000000000000000 DUP2 MSTORE PUSH1 0x4 ADD PUSH2 0x2FBF SWAP1 PUSH2 0x7511 JUMP JUMPDEST PUSH1 0x40 MLOAD DUP1 SWAP2 SUB SWAP1 REVERT JUMPDEST POP POP POP POP POP JUMP JUMPDEST PUSH32 0x0 PUSH20 0xFFFFFFFFFFFFFFFFFFFFFFFFFFFFFFFFFFFFFFFF AND ADDRESS PUSH20 0xFFFFFFFFFFFFFFFFFFFFFFFFFFFFFFFFFFFFFFFF AND EQ PUSH2 0x3027 JUMPI PUSH1 0x0 DUP1 REVERT JUMPDEST JUMP JUMPDEST PUSH1 0x0 TIMESTAMP SWAP1 POP SWAP1 JUMP JUMPDEST PUSH1 0x60 DUP1 PUSH1 0x0 DUP4 PUSH2 0xFFFF AND GT PUSH2 0x307B JUMPI PUSH1 0x40 MLOAD PUSH32 0x8C379A000000000000000000000000000000000000000000000000000000000 DUP2 MSTORE PUSH1 0x4 ADD PUSH2 0x3072 SWAP1 PUSH2 0x757D JUMP JUMPDEST PUSH1 0x40 MLOAD DUP1 SWAP2 SUB SWAP1 REVERT JUMPDEST DUP7 MLOAD PUSH8 0xFFFFFFFFFFFFFFFF DUP2 GT ISZERO PUSH2 0x3096 JUMPI PUSH2 0x3095 PUSH2 0x759D JUMP JUMPDEST JUMPDEST PUSH1 0x40 MLOAD SWAP1 DUP1 DUP3 MSTORE DUP1 PUSH1 0x20 MUL PUSH1 0x20 ADD DUP3 ADD PUSH1 0x40 MSTORE DUP1 ISZERO PUSH2 0x30C4 JUMPI DUP2 PUSH1 0x20 ADD PUSH1 0x20 DUP3 MUL DUP1 CALLDATASIZE DUP4 CALLDATACOPY DUP1 DUP3 ADD SWAP2 POP POP SWAP1 POP JUMPDEST POP SWAP2 POP DUP7 MLOAD PUSH8 0xFFFFFFFFFFFFFFFF DUP2 GT ISZERO PUSH2 0x30E2 JUMPI PUSH2 0x30E1 PUSH2 0x759D JUMP JUMPDEST JUMPDEST PUSH1 0x40 MLOAD SWAP1 DUP1 DUP3 MSTORE DUP1 PUSH1 0x20 MUL PUSH1 0x20 ADD DUP3 ADD PUSH1 0x40 MSTORE DUP1 ISZERO PUSH2 0x3110 JUMPI DUP2 PUSH1 0x20 ADD PUSH1 0x20 DUP3 MUL DUP1 CALLDATASIZE DUP4 CALLDATACOPY DUP1 DUP3 ADD SWAP2 POP POP SWAP1 POP JUMPDEST POP SWAP1 POP PUSH1 0x0 JUMPDEST DUP8 MLOAD DUP2 LT ISZERO PUSH2 0x31CB JUMPI PUSH2 0x3148 DUP11 DUP11 DUP11 DUP5 DUP2 MLOAD DUP2 LT PUSH2 0x3137 JUMPI PUSH2 0x3136 PUSH2 0x75CC JUMP JUMPDEST JUMPDEST PUSH1 0x20 MUL PUSH1 0x20 ADD ADD MLOAD DUP11 DUP11 DUP11 DUP11 PUSH2 0x32FF JUMP JUMPDEST DUP5 DUP4 DUP2 MLOAD DUP2 LT PUSH2 0x315B JUMPI PUSH2 0x315A PUSH2 0x75CC JUMP JUMPDEST JUMPDEST PUSH1 0x20 MUL PUSH1 0x20 ADD ADD DUP5 DUP5 DUP2 MLOAD DUP2 LT PUSH2 0x3175 JUMPI PUSH2 0x3174 PUSH2 0x75CC JUMP JUMPDEST JUMPDEST PUSH1 0x20 MUL PUSH1 0x20 ADD ADD DUP3 PUSH20 0xFFFFFFFFFFFFFFFFFFFFFFFFFFFFFFFFFFFFFFFF AND PUSH20 0xFFFFFFFFFFFFFFFFFFFFFFFFFFFFFFFFFFFFFFFF AND DUP2 MSTORE POP DUP3 PUSH1 0x6 SIGNEXTEND PUSH1 0x6 SIGNEXTEND DUP2 MSTORE POP POP POP DUP1 DUP1 PUSH2 0x31C3 SWAP1 PUSH2 0x75FB JUMP JUMPDEST SWAP2 POP POP PUSH2 0x3116 JUMP JUMPDEST POP SWAP8 POP SWAP8 SWAP6 POP POP POP POP POP POP JUMP JUMPDEST DUP1 PUSH1 0x2 SIGNEXTEND DUP3 PUSH1 0x2 SIGNEXTEND SLT PUSH2 0x3220 JUMPI PUSH1 0x40 MLOAD PUSH32 0x8C379A000000000000000000000000000000000000000000000000000000000 DUP2 MSTORE PUSH1 0x4 ADD PUSH2 0x3217 SWAP1 PUSH2 0x768F JUMP JUMPDEST PUSH1 0x40 MLOAD DUP1 SWAP2 SUB SWAP1 REVERT JUMPDEST PUSH32 0xFFFFFFFFFFFFFFFFFFFFFFFFFFFFFFFFFFFFFFFFFFFFFFFFFFFFFFFFFFF27618 PUSH1 0x2 SIGNEXTEND DUP3 PUSH1 0x2 SIGNEXTEND SLT ISZERO PUSH2 0x3289 JUMPI PUSH1 0x40 MLOAD PUSH32 0x8C379A000000000000000000000000000000000000000000000000000000000 DUP2 MSTORE PUSH1 0x4 ADD PUSH2 0x3280 SWAP1 PUSH2 0x76FB JUMP JUMPDEST PUSH1 0x40 MLOAD DUP1 SWAP2 SUB SWAP1 REVERT JUMPDEST PUSH32 0xFFFFFFFFFFFFFFFFFFFFFFFFFFFFFFFFFFFFFFFFFFFFFFFFFFFFFFFFFFF27618 PUSH2 0x32B3 SWAP1 PUSH2 0x71D8 JUMP JUMPDEST PUSH1 0x2 SIGNEXTEND DUP2 PUSH1 0x2 SIGNEXTEND SGT ISZERO PUSH2 0x32FB JUMPI PUSH1 0x40 MLOAD PUSH32 0x8C379A000000000000000000000000000000000000000000000000000000000 DUP2 MSTORE PUSH1 0x4 ADD PUSH2 0x32F2 SWAP1 PUSH2 0x7767 JUMP JUMPDEST PUSH1 0x40 MLOAD DUP1 SWAP2 SUB SWAP1 REVERT JUMPDEST POP POP JUMP JUMPDEST PUSH1 0x0 DUP1 PUSH1 0x0 DUP8 PUSH4 0xFFFFFFFF AND SUB PUSH2 0x3426 JUMPI PUSH1 0x0 DUP10 DUP7 PUSH2 0xFFFF AND PUSH2 0xFFFF DUP2 LT PUSH2 0x332A JUMPI PUSH2 0x3329 PUSH2 0x75CC JUMP JUMPDEST JUMPDEST ADD PUSH1 0x40 MLOAD DUP1 PUSH1 0x80 ADD PUSH1 0x40 MSTORE SWAP1 DUP2 PUSH1 0x0 DUP3 ADD PUSH1 0x0 SWAP1 SLOAD SWAP1 PUSH2 0x100 EXP SWAP1 DIV PUSH4 0xFFFFFFFF AND PUSH4 0xFFFFFFFF AND PUSH4 0xFFFFFFFF AND DUP2 MSTORE PUSH1 0x20 ADD PUSH1 0x0 DUP3 ADD PUSH1 0x4 SWAP1 SLOAD SWAP1 PUSH2 0x100 EXP SWAP1 DIV PUSH1 0x6 SIGNEXTEND PUSH1 0x6 SIGNEXTEND PUSH1 0x6 SIGNEXTEND DUP2 MSTORE PUSH1 0x20 ADD PUSH1 0x0 DUP3 ADD PUSH1 0xB SWAP1 SLOAD SWAP1 PUSH2 0x100 EXP SWAP1 DIV PUSH20 0xFFFFFFFFFFFFFFFFFFFFFFFFFFFFFFFFFFFFFFFF AND PUSH20 0xFFFFFFFFFFFFFFFFFFFFFFFFFFFFFFFFFFFFFFFF AND PUSH20 0xFFFFFFFFFFFFFFFFFFFFFFFFFFFFFFFFFFFFFFFF AND DUP2 MSTORE PUSH1 0x20 ADD PUSH1 0x0 DUP3 ADD PUSH1 0x1F SWAP1 SLOAD SWAP1 PUSH2 0x100 EXP SWAP1 DIV PUSH1 0xFF AND ISZERO ISZERO ISZERO ISZERO DUP2 MSTORE POP POP SWAP1 POP DUP9 PUSH4 0xFFFFFFFF AND DUP2 PUSH1 0x0 ADD MLOAD PUSH4 0xFFFFFFFF AND EQ PUSH2 0x3412 JUMPI PUSH2 0x340F DUP2 DUP11 DUP10 DUP9 PUSH2 0x4693 JUMP JUMPDEST SWAP1 POP JUMPDEST DUP1 PUSH1 0x20 ADD MLOAD DUP2 PUSH1 0x40 ADD MLOAD SWAP3 POP SWAP3 POP POP PUSH2 0x3560 JUMP JUMPDEST PUSH1 0x0 DUP8 DUP10 PUSH2 0x3434 SWAP2 SWAP1 PUSH2 0x6FCF JUMP JUMPDEST SWAP1 POP PUSH1 0x0 DUP1 PUSH2 0x3448 DUP13 DUP13 DUP6 DUP13 DUP13 DUP13 DUP13 PUSH2 0x478B JUMP JUMPDEST SWAP2 POP SWAP2 POP DUP2 PUSH1 0x0 ADD MLOAD PUSH4 0xFFFFFFFF AND DUP4 PUSH4 0xFFFFFFFF AND SUB PUSH2 0x3479 JUMPI DUP2 PUSH1 0x20 ADD MLOAD DUP3 PUSH1 0x40 ADD MLOAD SWAP5 POP SWAP5 POP POP POP POP PUSH2 0x3560 JUMP JUMPDEST DUP1 PUSH1 0x0 ADD MLOAD PUSH4 0xFFFFFFFF AND DUP4 PUSH4 0xFFFFFFFF AND SUB PUSH2 0x34A6 JUMPI DUP1 PUSH1 0x20 ADD MLOAD DUP2 PUSH1 0x40 ADD MLOAD SWAP5 POP SWAP5 POP POP POP POP PUSH2 0x3560 JUMP JUMPDEST PUSH1 0x0 DUP3 PUSH1 0x0 ADD MLOAD DUP3 PUSH1 0x0 ADD MLOAD PUSH2 0x34BC SWAP2 SWAP1 PUSH2 0x6FCF JUMP JUMPDEST SWAP1 POP PUSH1 0x0 DUP4 PUSH1 0x0 ADD MLOAD DUP6 PUSH2 0x34D0 SWAP2 SWAP1 PUSH2 0x6FCF JUMP JUMPDEST SWAP1 POP DUP1 PUSH1 0x3 SIGNEXTEND DUP3 PUSH1 0x3 SIGNEXTEND DUP6 PUSH1 0x20 ADD MLOAD DUP6 PUSH1 0x20 ADD MLOAD PUSH2 0x34EE SWAP2 SWAP1 PUSH2 0x6F28 JUMP JUMPDEST PUSH2 0x34F8 SWAP2 SWAP1 PUSH2 0x7787 JUMP JUMPDEST PUSH2 0x3502 SWAP2 SWAP1 PUSH2 0x77F1 JUMP JUMPDEST DUP5 PUSH1 0x20 ADD MLOAD PUSH2 0x3511 SWAP2 SWAP1 PUSH2 0x782E JUMP JUMPDEST DUP3 PUSH4 0xFFFFFFFF AND DUP3 PUSH4 0xFFFFFFFF AND DUP7 PUSH1 0x40 ADD MLOAD DUP7 PUSH1 0x40 ADD MLOAD PUSH2 0x3533 SWAP2 SWAP1 PUSH2 0x6F87 JUMP JUMPDEST PUSH2 0x353D SWAP2 SWAP1 PUSH2 0x788D JUMP JUMPDEST PUSH2 0x3547 SWAP2 SWAP1 PUSH2 0x78CF JUMP JUMPDEST DUP6 PUSH1 0x40 ADD MLOAD PUSH2 0x3556 SWAP2 SWAP1 PUSH2 0x7900 JUMP JUMPDEST SWAP7 POP SWAP7 POP POP POP POP POP POP JUMPDEST SWAP8 POP SWAP8 SWAP6 POP POP POP POP POP POP JUMP JUMPDEST PUSH1 0x0 DUP1 DUP4 PUSH2 0xFFFF AND GT PUSH2 0x35B4 JUMPI PUSH1 0x40 MLOAD PUSH32 0x8C379A000000000000000000000000000000000000000000000000000000000 DUP2 MSTORE PUSH1 0x4 ADD PUSH2 0x35AB SWAP1 PUSH2 0x757D JUMP JUMPDEST PUSH1 0x40 MLOAD DUP1 SWAP2 SUB SWAP1 REVERT JUMPDEST DUP3 PUSH2 0xFFFF AND DUP3 PUSH2 0xFFFF AND GT PUSH2 0x35CB JUMPI DUP3 SWAP1 POP PUSH2 0x3635 JUMP JUMPDEST PUSH1 0x0 DUP4 SWAP1 POP JUMPDEST DUP3 PUSH2 0xFFFF AND DUP2 PUSH2 0xFFFF AND LT ISZERO PUSH2 0x3630 JUMPI PUSH1 0x1 DUP6 DUP3 PUSH2 0xFFFF AND PUSH2 0xFFFF DUP2 LT PUSH2 0x35FB JUMPI PUSH2 0x35FA PUSH2 0x75CC JUMP JUMPDEST JUMPDEST ADD PUSH1 0x0 ADD PUSH1 0x0 PUSH2 0x100 EXP DUP2 SLOAD DUP2 PUSH4 0xFFFFFFFF MUL NOT AND SWAP1 DUP4 PUSH4 0xFFFFFFFF AND MUL OR SWAP1 SSTORE POP DUP1 DUP1 PUSH2 0x3628 SWAP1 PUSH2 0x7948 JUMP JUMPDEST SWAP2 POP POP PUSH2 0x35D1 JUMP JUMPDEST POP DUP2 SWAP1 POP JUMPDEST SWAP4 SWAP3 POP POP POP JUMP JUMPDEST PUSH1 0x0 PUSH5 0x1000276A3 PUSH20 0xFFFFFFFFFFFFFFFFFFFFFFFFFFFFFFFFFFFFFFFF AND DUP3 PUSH20 0xFFFFFFFFFFFFFFFFFFFFFFFFFFFFFFFFFFFFFFFF AND LT ISZERO DUP1 ISZERO PUSH2 0x36BE JUMPI POP PUSH20 0xFFFD8963EFD1FC6A506488495D951D5263988D26 PUSH20 0xFFFFFFFFFFFFFFFFFFFFFFFFFFFFFFFFFFFFFFFF AND DUP3 PUSH20 0xFFFFFFFFFFFFFFFFFFFFFFFFFFFFFFFFFFFFFFFF AND LT JUMPDEST PUSH2 0x36FD JUMPI PUSH1 0x40 MLOAD PUSH32 0x8C379A000000000000000000000000000000000000000000000000000000000 DUP2 MSTORE PUSH1 0x4 ADD PUSH2 0x36F4 SWAP1 PUSH2 0x79BE JUMP JUMPDEST PUSH1 0x40 MLOAD DUP1 SWAP2 SUB SWAP1 REVERT JUMPDEST PUSH1 0x0 PUSH1 0x20 DUP4 PUSH20 0xFFFFFFFFFFFFFFFFFFFFFFFFFFFFFFFFFFFFFFFF AND SWAP1 SHL SWAP1 POP PUSH1 0x0 DUP2 SWAP1 POP PUSH1 0x0 PUSH16 0xFFFFFFFFFFFFFFFFFFFFFFFFFFFFFFFF DUP3 GT PUSH1 0x7 SHL DUP1 DUP3 OR SWAP2 POP DUP3 DUP2 SHR SWAP3 POP POP PUSH8 0xFFFFFFFFFFFFFFFF DUP3 GT PUSH1 0x6 SHL DUP1 DUP3 OR SWAP2 POP DUP3 DUP2 SHR SWAP3 POP POP PUSH4 0xFFFFFFFF DUP3 GT PUSH1 0x5 SHL DUP1 DUP3 OR SWAP2 POP DUP3 DUP2 SHR SWAP3 POP POP PUSH2 0xFFFF DUP3 GT PUSH1 0x4 SHL DUP1 DUP3 OR SWAP2 POP DUP3 DUP2 SHR SWAP3 POP POP PUSH1 0xFF DUP3 GT PUSH1 0x3 SHL DUP1 DUP3 OR SWAP2 POP DUP3 DUP2 SHR SWAP3 POP POP PUSH1 0xF DUP3 GT PUSH1 0x2 SHL DUP1 DUP3 OR SWAP2 POP DUP3 DUP2 SHR SWAP3 POP POP PUSH1 0x3 DUP3 GT PUSH1 0x1 SHL DUP1 DUP3 OR SWAP2 POP DUP3 DUP2 SHR SWAP3 POP POP PUSH1 0x1 DUP3 GT DUP1 DUP3 OR SWAP2 POP POP PUSH1 0x80 DUP2 LT PUSH2 0x37E4 JUMPI PUSH1 0x7F DUP2 PUSH2 0x37DA SWAP2 SWAP1 PUSH2 0x79DE JUMP JUMPDEST DUP4 SWAP1 SHR SWAP2 POP PUSH2 0x37F7 JUMP JUMPDEST DUP1 PUSH1 0x7F PUSH2 0x37F1 SWAP2 SWAP1 PUSH2 0x79DE JUMP JUMPDEST DUP4 SWAP1 SHL SWAP2 POP JUMPDEST PUSH1 0x0 PUSH1 0x40 PUSH1 0x80 DUP4 PUSH2 0x3808 SWAP2 SWAP1 PUSH2 0x7A12 JUMP JUMPDEST SWAP1 SHL SWAP1 POP DUP3 DUP4 MUL PUSH1 0x7F SHR SWAP3 POP DUP3 PUSH1 0x80 SHR DUP1 PUSH1 0x3F SHL DUP3 OR SWAP2 POP DUP4 DUP2 SHR SWAP4 POP POP DUP3 DUP4 MUL PUSH1 0x7F SHR SWAP3 POP DUP3 PUSH1 0x80 SHR DUP1 PUSH1 0x3E SHL DUP3 OR SWAP2 POP DUP4 DUP2 SHR SWAP4 POP POP DUP3 DUP4 MUL PUSH1 0x7F SHR SWAP3 POP DUP3 PUSH1 0x80 SHR DUP1 PUSH1 0x3D SHL DUP3 OR SWAP2 POP DUP4 DUP2 SHR SWAP4 POP POP DUP3 DUP4 MUL PUSH1 0x7F SHR SWAP3 POP DUP3 PUSH1 0x80 SHR DUP1 PUSH1 0x3C SHL DUP3 OR SWAP2 POP DUP4 DUP2 SHR SWAP4 POP POP DUP3 DUP4 MUL PUSH1 0x7F SHR SWAP3 POP DUP3 PUSH1 0x80 SHR DUP1 PUSH1 0x3B SHL DUP3 OR SWAP2 POP DUP4 DUP2 SHR SWAP4 POP POP DUP3 DUP4 MUL PUSH1 0x7F SHR SWAP3 POP DUP3 PUSH1 0x80 SHR DUP1 PUSH1 0x3A SHL DUP3 OR SWAP2 POP DUP4 DUP2 SHR SWAP4 POP POP DUP3 DUP4 MUL PUSH1 0x7F SHR SWAP3 POP DUP3 PUSH1 0x80 SHR DUP1 PUSH1 0x39 SHL DUP3 OR SWAP2 POP DUP4 DUP2 SHR SWAP4 POP POP DUP3 DUP4 MUL PUSH1 0x7F SHR SWAP3 POP DUP3 PUSH1 0x80 SHR DUP1 PUSH1 0x38 SHL DUP3 OR SWAP2 POP DUP4 DUP2 SHR SWAP4 POP POP DUP3 DUP4 MUL PUSH1 0x7F SHR SWAP3 POP DUP3 PUSH1 0x80 SHR DUP1 PUSH1 0x37 SHL DUP3 OR SWAP2 POP DUP4 DUP2 SHR SWAP4 POP POP DUP3 DUP4 MUL PUSH1 0x7F SHR SWAP3 POP DUP3 PUSH1 0x80 SHR DUP1 PUSH1 0x36 SHL DUP3 OR SWAP2 POP DUP4 DUP2 SHR SWAP4 POP POP DUP3 DUP4 MUL PUSH1 0x7F SHR SWAP3 POP DUP3 PUSH1 0x80 SHR DUP1 PUSH1 0x35 SHL DUP3 OR SWAP2 POP DUP4 DUP2 SHR SWAP4 POP POP DUP3 DUP4 MUL PUSH1 0x7F SHR SWAP3 POP DUP3 PUSH1 0x80 SHR DUP1 PUSH1 0x34 SHL DUP3 OR SWAP2 POP DUP4 DUP2 SHR SWAP4 POP POP DUP3 DUP4 MUL PUSH1 0x7F SHR SWAP3 POP DUP3 PUSH1 0x80 SHR DUP1 PUSH1 0x33 SHL DUP3 OR SWAP2 POP DUP4 DUP2 SHR SWAP4 POP POP DUP3 DUP4 MUL PUSH1 0x7F SHR SWAP3 POP DUP3 PUSH1 0x80 SHR DUP1 PUSH1 0x32 SHL DUP3 OR SWAP2 POP POP PUSH1 0x0 PUSH10 0x3627A301D71055774C85 DUP3 PUSH2 0x398B SWAP2 SWAP1 PUSH2 0x7A55 JUMP JUMPDEST SWAP1 POP PUSH1 0x0 PUSH1 0x80 PUSH16 0x28F6481AB7F045A5AF012A19D003AAA DUP4 PUSH2 0x39AD SWAP2 SWAP1 PUSH2 0x7A12 JUMP JUMPDEST SWAP1 SAR SWAP1 POP PUSH1 0x0 PUSH1 0x80 PUSH16 0xDB2DF09E81959A81455E260799A0632F DUP5 PUSH2 0x39D1 SWAP2 SWAP1 PUSH2 0x7ACD JUMP JUMPDEST SWAP1 SAR SWAP1 POP DUP1 PUSH1 0x2 SIGNEXTEND DUP3 PUSH1 0x2 SIGNEXTEND EQ PUSH2 0x3A2B JUMPI DUP9 PUSH20 0xFFFFFFFFFFFFFFFFFFFFFFFFFFFFFFFFFFFFFFFF AND PUSH2 0x3A02 DUP3 PUSH2 0x3DC4 JUMP JUMPDEST PUSH20 0xFFFFFFFFFFFFFFFFFFFFFFFFFFFFFFFFFFFFFFFF AND GT ISZERO PUSH2 0x3A24 JUMPI DUP2 PUSH2 0x3A26 JUMP JUMPDEST DUP1 JUMPDEST PUSH2 0x3A2D JUMP JUMPDEST DUP2 JUMPDEST SWAP8 POP POP POP POP POP POP POP POP SWAP2 SWAP1 POP JUMP JUMPDEST PUSH1 0x0 DUP1 PUSH1 0x40 MLOAD DUP1 PUSH1 0x80 ADD PUSH1 0x40 MSTORE DUP1 DUP5 PUSH4 0xFFFFFFFF AND DUP2 MSTORE PUSH1 0x20 ADD PUSH1 0x0 PUSH1 0x6 SIGNEXTEND DUP2 MSTORE PUSH1 0x20 ADD PUSH1 0x0 PUSH20 0xFFFFFFFFFFFFFFFFFFFFFFFFFFFFFFFFFFFFFFFF AND DUP2 MSTORE PUSH1 0x20 ADD PUSH1 0x1 ISZERO ISZERO DUP2 MSTORE POP DUP5 PUSH1 0x0 PUSH2 0xFFFF DUP2 LT PUSH2 0x3A98 JUMPI PUSH2 0x3A97 PUSH2 0x75CC JUMP JUMPDEST JUMPDEST ADD PUSH1 0x0 DUP3 ADD MLOAD DUP2 PUSH1 0x0 ADD PUSH1 0x0 PUSH2 0x100 EXP DUP2 SLOAD DUP2 PUSH4 0xFFFFFFFF MUL NOT AND SWAP1 DUP4 PUSH4 0xFFFFFFFF AND MUL OR SWAP1 SSTORE POP PUSH1 0x20 DUP3 ADD MLOAD DUP2 PUSH1 0x0 ADD PUSH1 0x4 PUSH2 0x100 EXP DUP2 SLOAD DUP2 PUSH7 0xFFFFFFFFFFFFFF MUL NOT AND SWAP1 DUP4 PUSH1 0x6 SIGNEXTEND PUSH7 0xFFFFFFFFFFFFFF AND MUL OR SWAP1 SSTORE POP PUSH1 0x40 DUP3 ADD MLOAD DUP2 PUSH1 0x0 ADD PUSH1 0xB PUSH2 0x100 EXP DUP2 SLOAD DUP2 PUSH20 0xFFFFFFFFFFFFFFFFFFFFFFFFFFFFFFFFFFFFFFFF MUL NOT AND SWAP1 DUP4 PUSH20 0xFFFFFFFFFFFFFFFFFFFFFFFFFFFFFFFFFFFFFFFF AND MUL OR SWAP1 SSTORE POP PUSH1 0x60 DUP3 ADD MLOAD DUP2 PUSH1 0x0 ADD PUSH1 0x1F PUSH2 0x100 EXP DUP2 SLOAD DUP2 PUSH1 0xFF MUL NOT AND SWAP1 DUP4 ISZERO ISZERO MUL OR SWAP1 SSTORE POP SWAP1 POP POP PUSH1 0x1 DUP1 SWAP2 POP SWAP2 POP SWAP3 POP SWAP3 SWAP1 POP JUMP JUMPDEST PUSH1 0x0 PUSH2 0x3B82 DUP7 DUP7 DUP7 PUSH1 0xA PUSH2 0x2E32 SWAP1 SWAP4 SWAP3 SWAP2 SWAP1 PUSH4 0xFFFFFFFF AND JUMP JUMPDEST SWAP1 POP PUSH1 0x0 PUSH1 0x4 SLOAD SWAP1 POP PUSH1 0x0 PUSH1 0x5 SLOAD SWAP1 POP PUSH1 0x0 DUP1 PUSH1 0x0 DUP8 PUSH1 0xF SIGNEXTEND EQ PUSH2 0x3D38 JUMPI PUSH1 0x0 PUSH2 0x3BAA PUSH2 0x3029 JUMP JUMPDEST SWAP1 POP PUSH1 0x0 DUP1 PUSH2 0x3C24 DUP4 PUSH1 0x0 PUSH1 0x3 PUSH1 0x0 ADD PUSH1 0x14 SWAP1 SLOAD SWAP1 PUSH2 0x100 EXP SWAP1 DIV PUSH1 0x2 SIGNEXTEND PUSH1 0x3 PUSH1 0x0 ADD PUSH1 0x17 SWAP1 SLOAD SWAP1 PUSH2 0x100 EXP SWAP1 DIV PUSH2 0xFFFF AND PUSH1 0x7 PUSH1 0x0 SWAP1 SLOAD SWAP1 PUSH2 0x100 EXP SWAP1 DIV PUSH16 0xFFFFFFFFFFFFFFFFFFFFFFFFFFFFFFFF AND PUSH1 0x3 PUSH1 0x0 ADD PUSH1 0x19 SWAP1 SLOAD SWAP1 PUSH2 0x100 EXP SWAP1 DIV PUSH2 0xFFFF AND PUSH1 0xB PUSH2 0x32FF SWAP1 SWAP7 SWAP6 SWAP5 SWAP4 SWAP3 SWAP2 SWAP1 PUSH4 0xFFFFFFFF AND JUMP JUMPDEST SWAP2 POP SWAP2 POP PUSH2 0x3C6F DUP13 DUP11 DUP13 DUP11 DUP11 DUP7 DUP9 DUP11 PUSH1 0x0 PUSH32 0x0 PUSH1 0x8 PUSH2 0x4AF5 SWAP1 SWAP11 SWAP10 SWAP9 SWAP8 SWAP7 SWAP6 SWAP5 SWAP4 SWAP3 SWAP2 SWAP1 PUSH4 0xFFFFFFFF AND JUMP JUMPDEST SWAP5 POP PUSH2 0x3CB8 DUP12 DUP11 DUP13 DUP11 DUP11 DUP7 DUP9 DUP11 PUSH1 0x1 PUSH32 0x0 PUSH1 0x8 PUSH2 0x4AF5 SWAP1 SWAP11 SWAP10 SWAP9 SWAP8 SWAP7 SWAP6 SWAP5 SWAP4 SWAP3 SWAP2 SWAP1 PUSH4 0xFFFFFFFF AND JUMP JUMPDEST SWAP4 POP DUP5 ISZERO PUSH2 0x3CF7 JUMPI PUSH2 0x3CF6 DUP13 PUSH32 0x0 PUSH1 0x9 PUSH2 0x4DC3 SWAP1 SWAP3 SWAP2 SWAP1 PUSH4 0xFFFFFFFF AND JUMP JUMPDEST JUMPDEST DUP4 ISZERO PUSH2 0x3D34 JUMPI PUSH2 0x3D33 DUP12 PUSH32 0x0 PUSH1 0x9 PUSH2 0x4DC3 SWAP1 SWAP3 SWAP2 SWAP1 PUSH4 0xFFFFFFFF AND JUMP JUMPDEST JUMPDEST POP POP POP JUMPDEST PUSH1 0x0 DUP1 PUSH2 0x3D57 DUP12 DUP12 DUP11 DUP10 DUP10 PUSH1 0x8 PUSH2 0x4E33 SWAP1 SWAP6 SWAP5 SWAP4 SWAP3 SWAP2 SWAP1 PUSH4 0xFFFFFFFF AND JUMP JUMPDEST SWAP2 POP SWAP2 POP PUSH2 0x3D72 DUP10 DUP4 DUP4 DUP11 PUSH2 0x4F42 SWAP1 SWAP4 SWAP3 SWAP2 SWAP1 PUSH4 0xFFFFFFFF AND JUMP JUMPDEST PUSH1 0x0 DUP10 PUSH1 0xF SIGNEXTEND SLT ISZERO PUSH2 0x3DB5 JUMPI DUP4 ISZERO PUSH2 0x3D99 JUMPI PUSH2 0x3D98 DUP12 PUSH1 0x8 PUSH2 0x52B6 SWAP1 SWAP2 SWAP1 PUSH4 0xFFFFFFFF AND JUMP JUMPDEST JUMPDEST DUP3 ISZERO PUSH2 0x3DB4 JUMPI PUSH2 0x3DB3 DUP11 PUSH1 0x8 PUSH2 0x52B6 SWAP1 SWAP2 SWAP1 PUSH4 0xFFFFFFFF AND JUMP JUMPDEST JUMPDEST JUMPDEST POP POP POP POP POP POP SWAP6 SWAP5 POP POP POP POP POP JUMP JUMPDEST PUSH1 0x0 DUP1 PUSH1 0x0 DUP4 PUSH1 0x2 SIGNEXTEND SLT PUSH2 0x3DDB JUMPI DUP3 PUSH1 0x2 SIGNEXTEND PUSH2 0x3DE9 JUMP JUMPDEST DUP3 PUSH1 0x2 SIGNEXTEND PUSH2 0x3DE8 SWAP1 PUSH2 0x6E65 JUMP JUMPDEST JUMPDEST SWAP1 POP PUSH32 0xFFFFFFFFFFFFFFFFFFFFFFFFFFFFFFFFFFFFFFFFFFFFFFFFFFFFFFFFFFF27618 PUSH2 0x3E15 SWAP1 PUSH2 0x71D8 JUMP JUMPDEST PUSH1 0x2 SIGNEXTEND DUP2 GT ISZERO PUSH2 0x3E5A JUMPI PUSH1 0x40 MLOAD PUSH32 0x8C379A000000000000000000000000000000000000000000000000000000000 DUP2 MSTORE PUSH1 0x4 ADD PUSH2 0x3E51 SWAP1 PUSH2 0x7B5D JUMP JUMPDEST PUSH1 0x40 MLOAD DUP1 SWAP2 SUB SWAP1 REVERT JUMPDEST PUSH1 0x0 DUP1 PUSH1 0x1 DUP4 AND SUB PUSH2 0x3E7D JUMPI PUSH17 0x100000000000000000000000000000000 PUSH2 0x3E8F JUMP JUMPDEST PUSH16 0xFFFCB933BD6FAD37AA2D162D1A594001 JUMPDEST PUSH17 0xFFFFFFFFFFFFFFFFFFFFFFFFFFFFFFFFFF AND SWAP1 POP PUSH1 0x0 PUSH1 0x2 DUP4 AND EQ PUSH2 0x3ED2 JUMPI PUSH1 0x80 PUSH16 0xFFF97272373D413259A46990580E213A DUP3 PUSH2 0x3ECD SWAP2 SWAP1 PUSH2 0x7B7D JUMP JUMPDEST SWAP1 SHR SWAP1 POP JUMPDEST PUSH1 0x0 PUSH1 0x4 DUP4 AND EQ PUSH2 0x3F00 JUMPI PUSH1 0x80 PUSH16 0xFFF2E50F5F656932EF12357CF3C7FDCC DUP3 PUSH2 0x3EFB SWAP2 SWAP1 PUSH2 0x7B7D JUMP JUMPDEST SWAP1 SHR SWAP1 POP JUMPDEST PUSH1 0x0 PUSH1 0x8 DUP4 AND EQ PUSH2 0x3F2E JUMPI PUSH1 0x80 PUSH16 0xFFE5CACA7E10E4E61C3624EAA0941CD0 DUP3 PUSH2 0x3F29 SWAP2 SWAP1 PUSH2 0x7B7D JUMP JUMPDEST SWAP1 SHR SWAP1 POP JUMPDEST PUSH1 0x0 PUSH1 0x10 DUP4 AND EQ PUSH2 0x3F5C JUMPI PUSH1 0x80 PUSH16 0xFFCB9843D60F6159C9DB58835C926644 DUP3 PUSH2 0x3F57 SWAP2 SWAP1 PUSH2 0x7B7D JUMP JUMPDEST SWAP1 SHR SWAP1 POP JUMPDEST PUSH1 0x0 PUSH1 0x20 DUP4 AND EQ PUSH2 0x3F8A JUMPI PUSH1 0x80 PUSH16 0xFF973B41FA98C081472E6896DFB254C0 DUP3 PUSH2 0x3F85 SWAP2 SWAP1 PUSH2 0x7B7D JUMP JUMPDEST SWAP1 SHR SWAP1 POP JUMPDEST PUSH1 0x0 PUSH1 0x40 DUP4 AND EQ PUSH2 0x3FB8 JUMPI PUSH1 0x80 PUSH16 0xFF2EA16466C96A3843EC78B326B52861 DUP3 PUSH2 0x3FB3 SWAP2 SWAP1 PUSH2 0x7B7D JUMP JUMPDEST SWAP1 SHR SWAP1 POP JUMPDEST PUSH1 0x0 PUSH1 0x80 DUP4 AND EQ PUSH2 0x3FE6 JUMPI PUSH1 0x80 PUSH16 0xFE5DEE046A99A2A811C461F1969C3053 DUP3 PUSH2 0x3FE1 SWAP2 SWAP1 PUSH2 0x7B7D JUMP JUMPDEST SWAP1 SHR SWAP1 POP JUMPDEST PUSH1 0x0 PUSH2 0x100 DUP4 AND EQ PUSH2 0x4015 JUMPI PUSH1 0x80 PUSH16 0xFCBE86C7900A88AEDCFFC83B479AA3A4 DUP3 PUSH2 0x4010 SWAP2 SWAP1 PUSH2 0x7B7D JUMP JUMPDEST SWAP1 SHR SWAP1 POP JUMPDEST PUSH1 0x0 PUSH2 0x200 DUP4 AND EQ PUSH2 0x4044 JUMPI PUSH1 0x80 PUSH16 0xF987A7253AC413176F2B074CF7815E54 DUP3 PUSH2 0x403F SWAP2 SWAP1 PUSH2 0x7B7D JUMP JUMPDEST SWAP1 SHR SWAP1 POP JUMPDEST PUSH1 0x0 PUSH2 0x400 DUP4 AND EQ PUSH2 0x4073 JUMPI PUSH1 0x80 PUSH16 0xF3392B0822B70005940C7A398E4B70F3 DUP3 PUSH2 0x406E SWAP2 SWAP1 PUSH2 0x7B7D JUMP JUMPDEST SWAP1 SHR SWAP1 POP JUMPDEST PUSH1 0x0 PUSH2 0x800 DUP4 AND EQ PUSH2 0x40A2 JUMPI PUSH1 0x80 PUSH16 0xE7159475A2C29B7443B29C7FA6E889D9 DUP3 PUSH2 0x409D SWAP2 SWAP1 PUSH2 0x7B7D JUMP JUMPDEST SWAP1 SHR SWAP1 POP JUMPDEST PUSH1 0x0 PUSH2 0x1000 DUP4 AND EQ PUSH2 0x40D1 JUMPI PUSH1 0x80 PUSH16 0xD097F3BDFD2022B8845AD8F792AA5825 DUP3 PUSH2 0x40CC SWAP2 SWAP1 PUSH2 0x7B7D JUMP JUMPDEST SWAP1 SHR SWAP1 POP JUMPDEST PUSH1 0x0 PUSH2 0x2000 DUP4 AND EQ PUSH2 0x4100 JUMPI PUSH1 0x80 PUSH16 0xA9F746462D870FDF8A65DC1F90E061E5 DUP3 PUSH2 0x40FB SWAP2 SWAP1 PUSH2 0x7B7D JUMP JUMPDEST SWAP1 SHR SWAP1 POP JUMPDEST PUSH1 0x0 PUSH2 0x4000 DUP4 AND EQ PUSH2 0x412F JUMPI PUSH1 0x80 PUSH16 0x70D869A156D2A1B890BB3DF62BAF32F7 DUP3 PUSH2 0x412A SWAP2 SWAP1 PUSH2 0x7B7D JUMP JUMPDEST SWAP1 SHR SWAP1 POP JUMPDEST PUSH1 0x0 PUSH2 0x8000 DUP4 AND EQ PUSH2 0x415E JUMPI PUSH1 0x80 PUSH16 0x31BE135F97D08FD981231505542FCFA6 DUP3 PUSH2 0x4159 SWAP2 SWAP1 PUSH2 0x7B7D JUMP JUMPDEST SWAP1 SHR SWAP1 POP JUMPDEST PUSH1 0x0 PUSH3 0x10000 DUP4 AND EQ PUSH2 0x418E JUMPI PUSH1 0x80 PUSH16 0x9AA508B5B7A84E1C677DE54F3E99BC9 DUP3 PUSH2 0x4189 SWAP2 SWAP1 PUSH2 0x7B7D JUMP JUMPDEST SWAP1 SHR SWAP1 POP JUMPDEST PUSH1 0x0 PUSH3 0x20000 DUP4 AND EQ PUSH2 0x41BD JUMPI PUSH1 0x80 PUSH15 0x5D6AF8DEDB81196699C329225EE604 DUP3 PUSH2 0x41B8 SWAP2 SWAP1 PUSH2 0x7B7D JUMP JUMPDEST SWAP1 SHR SWAP1 POP JUMPDEST PUSH1 0x0 PUSH3 0x40000 DUP4 AND EQ PUSH2 0x41EB JUMPI PUSH1 0x80 PUSH14 0x2216E584F5FA1EA926041BEDFE98 DUP3 PUSH2 0x41E6 SWAP2 SWAP1 PUSH2 0x7B7D JUMP JUMPDEST SWAP1 SHR SWAP1 POP JUMPDEST PUSH1 0x0 PUSH3 0x80000 DUP4 AND EQ PUSH2 0x4217 JUMPI PUSH1 0x80 PUSH12 0x48A170391F7DC42444E8FA2 DUP3 PUSH2 0x4212 SWAP2 SWAP1 PUSH2 0x7B7D JUMP JUMPDEST SWAP1 SHR SWAP1 POP JUMPDEST PUSH1 0x0 DUP5 PUSH1 0x2 SIGNEXTEND SGT ISZERO PUSH2 0x4252 JUMPI DUP1 PUSH32 0xFFFFFFFFFFFFFFFFFFFFFFFFFFFFFFFFFFFFFFFFFFFFFFFFFFFFFFFFFFFFFFFF PUSH2 0x424F SWAP2 SWAP1 PUSH2 0x7BBF JUMP JUMPDEST SWAP1 POP JUMPDEST PUSH1 0x0 PUSH5 0x100000000 DUP3 PUSH2 0x4265 SWAP2 SWAP1 PUSH2 0x7BF0 JUMP JUMPDEST EQ PUSH2 0x4271 JUMPI PUSH1 0x1 PUSH2 0x4274 JUMP JUMPDEST PUSH1 0x0 JUMPDEST PUSH1 0xFF AND PUSH1 0x20 DUP3 SWAP1 SHR PUSH2 0x4286 SWAP2 SWAP1 PUSH2 0x73AD JUMP JUMPDEST SWAP3 POP POP POP SWAP2 SWAP1 POP JUMP JUMPDEST PUSH1 0x0 DUP1 DUP3 PUSH1 0xF SIGNEXTEND SLT PUSH2 0x42B5 JUMPI PUSH2 0x42B0 PUSH2 0x42AB DUP6 DUP6 DUP6 PUSH1 0x1 PUSH2 0x5397 JUMP JUMPDEST PUSH2 0x54D8 JUMP JUMPDEST PUSH2 0x42DD JUMP JUMPDEST PUSH2 0x42D3 PUSH2 0x42CE DUP6 DUP6 DUP6 PUSH2 0x42C7 SWAP1 PUSH2 0x6E1D JUMP JUMPDEST PUSH1 0x0 PUSH2 0x5397 JUMP JUMPDEST PUSH2 0x54D8 JUMP JUMPDEST PUSH2 0x42DC SWAP1 PUSH2 0x6E65 JUMP JUMPDEST JUMPDEST SWAP1 POP SWAP4 SWAP3 POP POP POP JUMP JUMPDEST PUSH1 0x0 DUP1 PUSH1 0x0 DUP10 DUP10 PUSH2 0xFFFF AND PUSH2 0xFFFF DUP2 LT PUSH2 0x4303 JUMPI PUSH2 0x4302 PUSH2 0x75CC JUMP JUMPDEST JUMPDEST ADD PUSH1 0x40 MLOAD DUP1 PUSH1 0x80 ADD PUSH1 0x40 MSTORE SWAP1 DUP2 PUSH1 0x0 DUP3 ADD PUSH1 0x0 SWAP1 SLOAD SWAP1 PUSH2 0x100 EXP SWAP1 DIV PUSH4 0xFFFFFFFF AND PUSH4 0xFFFFFFFF AND PUSH4 0xFFFFFFFF AND DUP2 MSTORE PUSH1 0x20 ADD PUSH1 0x0 DUP3 ADD PUSH1 0x4 SWAP1 SLOAD SWAP1 PUSH2 0x100 EXP SWAP1 DIV PUSH1 0x6 SIGNEXTEND PUSH1 0x6 SIGNEXTEND PUSH1 0x6 SIGNEXTEND DUP2 MSTORE PUSH1 0x20 ADD PUSH1 0x0 DUP3 ADD PUSH1 0xB SWAP1 SLOAD SWAP1 PUSH2 0x100 EXP SWAP1 DIV PUSH20 0xFFFFFFFFFFFFFFFFFFFFFFFFFFFFFFFFFFFFFFFF AND PUSH20 0xFFFFFFFFFFFFFFFFFFFFFFFFFFFFFFFFFFFFFFFF AND PUSH20 0xFFFFFFFFFFFFFFFFFFFFFFFFFFFFFFFFFFFFFFFF AND DUP2 MSTORE PUSH1 0x20 ADD PUSH1 0x0 DUP3 ADD PUSH1 0x1F SWAP1 SLOAD SWAP1 PUSH2 0x100 EXP SWAP1 DIV PUSH1 0xFF AND ISZERO ISZERO ISZERO ISZERO DUP2 MSTORE POP POP SWAP1 POP DUP8 PUSH4 0xFFFFFFFF AND DUP2 PUSH1 0x0 ADD MLOAD PUSH4 0xFFFFFFFF AND SUB PUSH2 0x43E8 JUMPI DUP9 DUP6 SWAP3 POP SWAP3 POP POP PUSH2 0x4525 JUMP JUMPDEST DUP5 PUSH2 0xFFFF AND DUP5 PUSH2 0xFFFF AND GT DUP1 ISZERO PUSH2 0x4412 JUMPI POP PUSH1 0x1 DUP6 PUSH2 0x4407 SWAP2 SWAP1 PUSH2 0x7C21 JUMP JUMPDEST PUSH2 0xFFFF AND DUP10 PUSH2 0xFFFF AND EQ JUMPDEST ISZERO PUSH2 0x441F JUMPI DUP4 SWAP2 POP PUSH2 0x4423 JUMP JUMPDEST DUP5 SWAP2 POP JUMPDEST DUP2 PUSH1 0x1 DUP11 PUSH2 0x4431 SWAP2 SWAP1 PUSH2 0x7C57 JUMP JUMPDEST PUSH2 0x443B SWAP2 SWAP1 PUSH2 0x7C8D JUMP JUMPDEST SWAP3 POP PUSH2 0x4449 DUP2 DUP10 DUP10 DUP10 PUSH2 0x4693 JUMP JUMPDEST DUP11 DUP5 PUSH2 0xFFFF AND PUSH2 0xFFFF DUP2 LT PUSH2 0x4461 JUMPI PUSH2 0x4460 PUSH2 0x75CC JUMP JUMPDEST JUMPDEST ADD PUSH1 0x0 DUP3 ADD MLOAD DUP2 PUSH1 0x0 ADD PUSH1 0x0 PUSH2 0x100 EXP DUP2 SLOAD DUP2 PUSH4 0xFFFFFFFF MUL NOT AND SWAP1 DUP4 PUSH4 0xFFFFFFFF AND MUL OR SWAP1 SSTORE POP PUSH1 0x20 DUP3 ADD MLOAD DUP2 PUSH1 0x0 ADD PUSH1 0x4 PUSH2 0x100 EXP DUP2 SLOAD DUP2 PUSH7 0xFFFFFFFFFFFFFF MUL NOT AND SWAP1 DUP4 PUSH1 0x6 SIGNEXTEND PUSH7 0xFFFFFFFFFFFFFF AND MUL OR SWAP1 SSTORE POP PUSH1 0x40 DUP3 ADD MLOAD DUP2 PUSH1 0x0 ADD PUSH1 0xB PUSH2 0x100 EXP DUP2 SLOAD DUP2 PUSH20 0xFFFFFFFFFFFFFFFFFFFFFFFFFFFFFFFFFFFFFFFF MUL NOT AND SWAP1 DUP4 PUSH20 0xFFFFFFFFFFFFFFFFFFFFFFFFFFFFFFFFFFFFFFFF AND MUL OR SWAP1 SSTORE POP PUSH1 0x60 DUP3 ADD MLOAD DUP2 PUSH1 0x0 ADD PUSH1 0x1F PUSH2 0x100 EXP DUP2 SLOAD DUP2 PUSH1 0xFF MUL NOT AND SWAP1 DUP4 ISZERO ISZERO MUL OR SWAP1 SSTORE POP SWAP1 POP POP POP JUMPDEST SWAP8 POP SWAP8 SWAP6 POP POP POP POP POP POP JUMP JUMPDEST PUSH1 0x0 DUP1 DUP3 PUSH1 0xF SIGNEXTEND SLT PUSH2 0x4557 JUMPI PUSH2 0x4552 PUSH2 0x454D DUP6 DUP6 DUP6 PUSH1 0x1 PUSH2 0x550E JUMP JUMPDEST PUSH2 0x54D8 JUMP JUMPDEST PUSH2 0x457F JUMP JUMPDEST PUSH2 0x4575 PUSH2 0x4570 DUP6 DUP6 DUP6 PUSH2 0x4569 SWAP1 PUSH2 0x6E1D JUMP JUMPDEST PUSH1 0x0 PUSH2 0x550E JUMP JUMPDEST PUSH2 0x54D8 JUMP JUMPDEST PUSH2 0x457E SWAP1 PUSH2 0x6E65 JUMP JUMPDEST JUMPDEST SWAP1 POP SWAP4 SWAP3 POP POP POP JUMP JUMPDEST PUSH1 0x0 DUP1 DUP3 PUSH1 0xF SIGNEXTEND SLT ISZERO PUSH2 0x4617 JUMPI DUP3 PUSH16 0xFFFFFFFFFFFFFFFFFFFFFFFFFFFFFFFF AND DUP3 PUSH2 0x45B2 SWAP1 PUSH2 0x6E1D JUMP JUMPDEST DUP5 PUSH2 0x45BD SWAP2 SWAP1 PUSH2 0x6DA2 JUMP JUMPDEST SWAP2 POP DUP2 PUSH16 0xFFFFFFFFFFFFFFFFFFFFFFFFFFFFFFFF AND LT PUSH2 0x4612 JUMPI PUSH1 0x40 MLOAD PUSH32 0x8C379A000000000000000000000000000000000000000000000000000000000 DUP2 MSTORE PUSH1 0x4 ADD PUSH2 0x4609 SWAP1 PUSH2 0x7D0A JUMP JUMPDEST PUSH1 0x40 MLOAD DUP1 SWAP2 SUB SWAP1 REVERT JUMPDEST PUSH2 0x468D JUMP JUMPDEST DUP3 PUSH16 0xFFFFFFFFFFFFFFFFFFFFFFFFFFFFFFFF AND DUP3 DUP5 PUSH2 0x4636 SWAP2 SWAP1 PUSH2 0x6EAD JUMP JUMPDEST SWAP2 POP DUP2 PUSH16 0xFFFFFFFFFFFFFFFFFFFFFFFFFFFFFFFF AND LT ISZERO PUSH2 0x468C JUMPI PUSH1 0x40 MLOAD PUSH32 0x8C379A000000000000000000000000000000000000000000000000000000000 DUP2 MSTORE PUSH1 0x4 ADD PUSH2 0x4683 SWAP1 PUSH2 0x7D76 JUMP JUMPDEST PUSH1 0x40 MLOAD DUP1 SWAP2 SUB SWAP1 REVERT JUMPDEST JUMPDEST SWAP3 SWAP2 POP POP JUMP JUMPDEST PUSH2 0x469B PUSH2 0x5C88 JUMP JUMPDEST PUSH1 0x0 DUP6 PUSH1 0x0 ADD MLOAD DUP6 PUSH2 0x46AD SWAP2 SWAP1 PUSH2 0x6FCF JUMP JUMPDEST SWAP1 POP PUSH1 0x40 MLOAD DUP1 PUSH1 0x80 ADD PUSH1 0x40 MSTORE DUP1 DUP7 PUSH4 0xFFFFFFFF AND DUP2 MSTORE PUSH1 0x20 ADD DUP3 DUP7 PUSH1 0x2 SIGNEXTEND PUSH2 0x46D5 SWAP2 SWAP1 PUSH2 0x7DA3 JUMP JUMPDEST PUSH1 0x3 SIGNEXTEND DUP9 PUSH1 0x20 ADD MLOAD PUSH2 0x46E7 SWAP2 SWAP1 PUSH2 0x782E JUMP JUMPDEST PUSH1 0x6 SIGNEXTEND DUP2 MSTORE PUSH1 0x20 ADD PUSH1 0x0 DUP6 PUSH16 0xFFFFFFFFFFFFFFFFFFFFFFFFFFFFFFFF AND GT PUSH2 0x4710 JUMPI PUSH1 0x1 PUSH2 0x4712 JUMP JUMPDEST DUP5 JUMPDEST PUSH16 0xFFFFFFFFFFFFFFFFFFFFFFFFFFFFFFFF AND PUSH1 0x80 DUP5 PUSH4 0xFFFFFFFF AND PUSH20 0xFFFFFFFFFFFFFFFFFFFFFFFFFFFFFFFFFFFFFFFF AND SWAP1 SHL PUSH2 0x474F SWAP2 SWAP1 PUSH2 0x78CF JUMP JUMPDEST DUP9 PUSH1 0x40 ADD MLOAD PUSH2 0x475E SWAP2 SWAP1 PUSH2 0x7900 JUMP JUMPDEST PUSH20 0xFFFFFFFFFFFFFFFFFFFFFFFFFFFFFFFFFFFFFFFF AND DUP2 MSTORE PUSH1 0x20 ADD PUSH1 0x1 ISZERO ISZERO DUP2 MSTORE POP SWAP2 POP POP SWAP5 SWAP4 POP POP POP POP JUMP JUMPDEST PUSH2 0x4793 PUSH2 0x5C88 JUMP JUMPDEST PUSH2 0x479B PUSH2 0x5C88 JUMP JUMPDEST DUP9 DUP6 PUSH2 0xFFFF AND PUSH2 0xFFFF DUP2 LT PUSH2 0x47B3 JUMPI PUSH2 0x47B2 PUSH2 0x75CC JUMP JUMPDEST JUMPDEST ADD PUSH1 0x40 MLOAD DUP1 PUSH1 0x80 ADD PUSH1 0x40 MSTORE SWAP1 DUP2 PUSH1 0x0 DUP3 ADD PUSH1 0x0 SWAP1 SLOAD SWAP1 PUSH2 0x100 EXP SWAP1 DIV PUSH4 0xFFFFFFFF AND PUSH4 0xFFFFFFFF AND PUSH4 0xFFFFFFFF AND DUP2 MSTORE PUSH1 0x20 ADD PUSH1 0x0 DUP3 ADD PUSH1 0x4 SWAP1 SLOAD SWAP1 PUSH2 0x100 EXP SWAP1 DIV PUSH1 0x6 SIGNEXTEND PUSH1 0x6 SIGNEXTEND PUSH1 0x6 SIGNEXTEND DUP2 MSTORE PUSH1 0x20 ADD PUSH1 0x0 DUP3 ADD PUSH1 0xB SWAP1 SLOAD SWAP1 PUSH2 0x100 EXP SWAP1 DIV PUSH20 0xFFFFFFFFFFFFFFFFFFFFFFFFFFFFFFFFFFFFFFFF AND PUSH20 0xFFFFFFFFFFFFFFFFFFFFFFFFFFFFFFFFFFFFFFFF AND PUSH20 0xFFFFFFFFFFFFFFFFFFFFFFFFFFFFFFFFFFFFFFFF AND DUP2 MSTORE PUSH1 0x20 ADD PUSH1 0x0 DUP3 ADD PUSH1 0x1F SWAP1 SLOAD SWAP1 PUSH2 0x100 EXP SWAP1 DIV PUSH1 0xFF AND ISZERO ISZERO ISZERO ISZERO DUP2 MSTORE POP POP SWAP2 POP PUSH2 0x4884 DUP9 DUP4 PUSH1 0x0 ADD MLOAD DUP10 PUSH2 0x55FA JUMP JUMPDEST ISZERO PUSH2 0x48B7 JUMPI DUP7 PUSH4 0xFFFFFFFF AND DUP3 PUSH1 0x0 ADD MLOAD PUSH4 0xFFFFFFFF AND SUB ISZERO PUSH2 0x4AE9 JUMPI DUP2 PUSH2 0x48AE DUP4 DUP10 DUP10 DUP9 PUSH2 0x4693 JUMP JUMPDEST SWAP2 POP SWAP2 POP PUSH2 0x4AE9 JUMP JUMPDEST DUP9 DUP4 PUSH1 0x1 DUP8 PUSH2 0x48C6 SWAP2 SWAP1 PUSH2 0x7C57 JUMP JUMPDEST PUSH2 0x48D0 SWAP2 SWAP1 PUSH2 0x7C8D JUMP JUMPDEST PUSH2 0xFFFF AND PUSH2 0xFFFF DUP2 LT PUSH2 0x48E6 JUMPI PUSH2 0x48E5 PUSH2 0x75CC JUMP JUMPDEST JUMPDEST ADD PUSH1 0x40 MLOAD DUP1 PUSH1 0x80 ADD PUSH1 0x40 MSTORE SWAP1 DUP2 PUSH1 0x0 DUP3 ADD PUSH1 0x0 SWAP1 SLOAD SWAP1 PUSH2 0x100 EXP SWAP1 DIV PUSH4 0xFFFFFFFF AND PUSH4 0xFFFFFFFF AND PUSH4 0xFFFFFFFF AND DUP2 MSTORE PUSH1 0x20 ADD PUSH1 0x0 DUP3 ADD PUSH1 0x4 SWAP1 SLOAD SWAP1 PUSH2 0x100 EXP SWAP1 DIV PUSH1 0x6 SIGNEXTEND PUSH1 0x6 SIGNEXTEND PUSH1 0x6 SIGNEXTEND DUP2 MSTORE PUSH1 0x20 ADD PUSH1 0x0 DUP3 ADD PUSH1 0xB SWAP1 SLOAD SWAP1 PUSH2 0x100 EXP SWAP1 DIV PUSH20 0xFFFFFFFFFFFFFFFFFFFFFFFFFFFFFFFFFFFFFFFF AND PUSH20 0xFFFFFFFFFFFFFFFFFFFFFFFFFFFFFFFFFFFFFFFF AND PUSH20 0xFFFFFFFFFFFFFFFFFFFFFFFFFFFFFFFFFFFFFFFF AND DUP2 MSTORE PUSH1 0x20 ADD PUSH1 0x0 DUP3 ADD PUSH1 0x1F SWAP1 SLOAD SWAP1 PUSH2 0x100 EXP SWAP1 DIV PUSH1 0xFF AND ISZERO ISZERO ISZERO ISZERO DUP2 MSTORE POP POP SWAP2 POP DUP2 PUSH1 0x60 ADD MLOAD PUSH2 0x4A89 JUMPI DUP9 PUSH1 0x0 PUSH2 0xFFFF DUP2 LT PUSH2 0x49C6 JUMPI PUSH2 0x49C5 PUSH2 0x75CC JUMP JUMPDEST JUMPDEST ADD PUSH1 0x40 MLOAD DUP1 PUSH1 0x80 ADD PUSH1 0x40 MSTORE SWAP1 DUP2 PUSH1 0x0 DUP3 ADD PUSH1 0x0 SWAP1 SLOAD SWAP1 PUSH2 0x100 EXP SWAP1 DIV PUSH4 0xFFFFFFFF AND PUSH4 0xFFFFFFFF AND PUSH4 0xFFFFFFFF AND DUP2 MSTORE PUSH1 0x20 ADD PUSH1 0x0 DUP3 ADD PUSH1 0x4 SWAP1 SLOAD SWAP1 PUSH2 0x100 EXP SWAP1 DIV PUSH1 0x6 SIGNEXTEND PUSH1 0x6 SIGNEXTEND PUSH1 0x6 SIGNEXTEND DUP2 MSTORE PUSH1 0x20 ADD PUSH1 0x0 DUP3 ADD PUSH1 0xB SWAP1 SLOAD SWAP1 PUSH2 0x100 EXP SWAP1 DIV PUSH20 0xFFFFFFFFFFFFFFFFFFFFFFFFFFFFFFFFFFFFFFFF AND PUSH20 0xFFFFFFFFFFFFFFFFFFFFFFFFFFFFFFFFFFFFFFFF AND PUSH20 0xFFFFFFFFFFFFFFFFFFFFFFFFFFFFFFFFFFFFFFFF AND DUP2 MSTORE PUSH1 0x20 ADD PUSH1 0x0 DUP3 ADD PUSH1 0x1F SWAP1 SLOAD SWAP1 PUSH2 0x100 EXP SWAP1 DIV PUSH1 0xFF AND ISZERO ISZERO ISZERO ISZERO DUP2 MSTORE POP POP SWAP2 POP JUMPDEST PUSH2 0x4A98 DUP9 DUP4 PUSH1 0x0 ADD MLOAD DUP10 PUSH2 0x55FA JUMP JUMPDEST PUSH2 0x4AD7 JUMPI PUSH1 0x40 MLOAD PUSH32 0x8C379A000000000000000000000000000000000000000000000000000000000 DUP2 MSTORE PUSH1 0x4 ADD PUSH2 0x4ACE SWAP1 PUSH2 0x7E2C JUMP JUMPDEST PUSH1 0x40 MLOAD DUP1 SWAP2 SUB SWAP1 REVERT JUMPDEST PUSH2 0x4AE4 DUP10 DUP10 DUP10 DUP9 DUP8 PUSH2 0x56D4 JUMP JUMPDEST SWAP2 POP SWAP2 POP JUMPDEST SWAP8 POP SWAP8 SWAP6 POP POP POP POP POP POP JUMP JUMPDEST PUSH1 0x0 DUP1 DUP13 PUSH1 0x0 DUP14 PUSH1 0x2 SIGNEXTEND PUSH1 0x2 SIGNEXTEND DUP2 MSTORE PUSH1 0x20 ADD SWAP1 DUP2 MSTORE PUSH1 0x20 ADD PUSH1 0x0 KECCAK256 SWAP1 POP PUSH1 0x0 DUP2 PUSH1 0x0 ADD PUSH1 0x0 SWAP1 SLOAD SWAP1 PUSH2 0x100 EXP SWAP1 DIV PUSH16 0xFFFFFFFFFFFFFFFFFFFFFFFFFFFFFFFF AND SWAP1 POP PUSH1 0x0 PUSH2 0x4B43 DUP3 DUP14 PUSH2 0x4588 JUMP JUMPDEST SWAP1 POP DUP5 PUSH16 0xFFFFFFFFFFFFFFFFFFFFFFFFFFFFFFFF AND DUP2 PUSH16 0xFFFFFFFFFFFFFFFFFFFFFFFFFFFFFFFF AND GT ISZERO PUSH2 0x4BAC JUMPI PUSH1 0x40 MLOAD PUSH32 0x8C379A000000000000000000000000000000000000000000000000000000000 DUP2 MSTORE PUSH1 0x4 ADD PUSH2 0x4BA3 SWAP1 PUSH2 0x7E98 JUMP JUMPDEST PUSH1 0x40 MLOAD DUP1 SWAP2 SUB SWAP1 REVERT JUMPDEST PUSH1 0x0 DUP3 PUSH16 0xFFFFFFFFFFFFFFFFFFFFFFFFFFFFFFFF AND EQ ISZERO ISZERO PUSH1 0x0 DUP3 PUSH16 0xFFFFFFFFFFFFFFFFFFFFFFFFFFFFFFFF AND EQ ISZERO ISZERO EQ ISZERO SWAP4 POP PUSH1 0x0 DUP3 PUSH16 0xFFFFFFFFFFFFFFFFFFFFFFFFFFFFFFFF AND SUB PUSH2 0x4CCA JUMPI DUP13 PUSH1 0x2 SIGNEXTEND DUP15 PUSH1 0x2 SIGNEXTEND SGT PUSH2 0x4CAC JUMPI DUP11 DUP4 PUSH1 0x1 ADD DUP2 SWAP1 SSTORE POP DUP10 DUP4 PUSH1 0x2 ADD DUP2 SWAP1 SSTORE POP DUP9 DUP4 PUSH1 0x3 ADD PUSH1 0x7 PUSH2 0x100 EXP DUP2 SLOAD DUP2 PUSH20 0xFFFFFFFFFFFFFFFFFFFFFFFFFFFFFFFFFFFFFFFF MUL NOT AND SWAP1 DUP4 PUSH20 0xFFFFFFFFFFFFFFFFFFFFFFFFFFFFFFFFFFFFFFFF AND MUL OR SWAP1 SSTORE POP DUP8 DUP4 PUSH1 0x3 ADD PUSH1 0x0 PUSH2 0x100 EXP DUP2 SLOAD DUP2 PUSH7 0xFFFFFFFFFFFFFF MUL NOT AND SWAP1 DUP4 PUSH1 0x6 SIGNEXTEND PUSH7 0xFFFFFFFFFFFFFF AND MUL OR SWAP1 SSTORE POP DUP7 DUP4 PUSH1 0x3 ADD PUSH1 0x1B PUSH2 0x100 EXP DUP2 SLOAD DUP2 PUSH4 0xFFFFFFFF MUL NOT AND SWAP1 DUP4 PUSH4 0xFFFFFFFF AND MUL OR SWAP1 SSTORE POP JUMPDEST PUSH1 0x1 DUP4 PUSH1 0x3 ADD PUSH1 0x1F PUSH2 0x100 EXP DUP2 SLOAD DUP2 PUSH1 0xFF MUL NOT AND SWAP1 DUP4 ISZERO ISZERO MUL OR SWAP1 SSTORE POP JUMPDEST DUP1 DUP4 PUSH1 0x0 ADD PUSH1 0x0 PUSH2 0x100 EXP DUP2 SLOAD DUP2 PUSH16 0xFFFFFFFFFFFFFFFFFFFFFFFFFFFFFFFF MUL NOT AND SWAP1 DUP4 PUSH16 0xFFFFFFFFFFFFFFFFFFFFFFFFFFFFFFFF AND MUL OR SWAP1 SSTORE POP DUP6 PUSH2 0x4D41 JUMPI PUSH2 0x4D3C PUSH2 0x4D37 DUP14 PUSH1 0xF SIGNEXTEND DUP6 PUSH1 0x0 ADD PUSH1 0x10 SWAP1 SLOAD SWAP1 PUSH2 0x100 EXP SWAP1 DIV PUSH1 0xF SIGNEXTEND PUSH1 0xF SIGNEXTEND PUSH2 0x59AD SWAP1 SWAP2 SWAP1 PUSH4 0xFFFFFFFF AND JUMP JUMPDEST PUSH2 0x59D9 JUMP JUMPDEST PUSH2 0x4D74 JUMP JUMPDEST PUSH2 0x4D73 PUSH2 0x4D6E DUP14 PUSH1 0xF SIGNEXTEND DUP6 PUSH1 0x0 ADD PUSH1 0x10 SWAP1 SLOAD SWAP1 PUSH2 0x100 EXP SWAP1 DIV PUSH1 0xF SIGNEXTEND PUSH1 0xF SIGNEXTEND PUSH2 0x59F2 SWAP1 SWAP2 SWAP1 PUSH4 0xFFFFFFFF AND JUMP JUMPDEST PUSH2 0x59D9 JUMP JUMPDEST JUMPDEST DUP4 PUSH1 0x0 ADD PUSH1 0x10 PUSH2 0x100 EXP DUP2 SLOAD DUP2 PUSH16 0xFFFFFFFFFFFFFFFFFFFFFFFFFFFFFFFF MUL NOT AND SWAP1 DUP4 PUSH1 0xF SIGNEXTEND PUSH16 0xFFFFFFFFFFFFFFFFFFFFFFFFFFFFFFFF AND MUL OR SWAP1 SSTORE POP POP POP POP SWAP12 SWAP11 POP POP POP POP POP POP POP POP POP POP POP JUMP JUMPDEST PUSH1 0x0 DUP2 DUP4 PUSH2 0x4DD1 SWAP2 SWAP1 PUSH2 0x7EB8 JUMP JUMPDEST PUSH1 0x2 SIGNEXTEND EQ PUSH2 0x4DDE JUMPI PUSH1 0x0 DUP1 REVERT JUMPDEST PUSH1 0x0 DUP1 PUSH2 0x4DF5 DUP4 DUP6 PUSH2 0x4DF0 SWAP2 SWAP1 PUSH2 0x7131 JUMP JUMPDEST PUSH2 0x5A1E JUMP JUMPDEST SWAP2 POP SWAP2 POP PUSH1 0x0 DUP2 PUSH1 0xFF AND PUSH1 0x1 SWAP1 SHL SWAP1 POP DUP1 DUP7 PUSH1 0x0 DUP6 PUSH1 0x1 SIGNEXTEND PUSH1 0x1 SIGNEXTEND DUP2 MSTORE PUSH1 0x20 ADD SWAP1 DUP2 MSTORE PUSH1 0x20 ADD PUSH1 0x0 KECCAK256 PUSH1 0x0 DUP3 DUP3 SLOAD XOR SWAP3 POP POP DUP2 SWAP1 SSTORE POP POP POP POP POP POP POP JUMP JUMPDEST PUSH1 0x0 DUP1 PUSH1 0x0 DUP9 PUSH1 0x0 DUP10 PUSH1 0x2 SIGNEXTEND PUSH1 0x2 SIGNEXTEND DUP2 MSTORE PUSH1 0x20 ADD SWAP1 DUP2 MSTORE PUSH1 0x20 ADD PUSH1 0x0 KECCAK256 SWAP1 POP PUSH1 0x0 DUP10 PUSH1 0x0 DUP10 PUSH1 0x2 SIGNEXTEND PUSH1 0x2 SIGNEXTEND DUP2 MSTORE PUSH1 0x20 ADD SWAP1 DUP2 MSTORE PUSH1 0x20 ADD PUSH1 0x0 KECCAK256 SWAP1 POP PUSH1 0x0 DUP1 DUP11 PUSH1 0x2 SIGNEXTEND DUP10 PUSH1 0x2 SIGNEXTEND SLT PUSH2 0x4E91 JUMPI DUP4 PUSH1 0x1 ADD SLOAD SWAP2 POP DUP4 PUSH1 0x2 ADD SLOAD SWAP1 POP PUSH2 0x4EB6 JUMP JUMPDEST DUP4 PUSH1 0x1 ADD SLOAD DUP9 PUSH2 0x4EA1 SWAP2 SWAP1 PUSH2 0x79DE JUMP JUMPDEST SWAP2 POP DUP4 PUSH1 0x2 ADD SLOAD DUP8 PUSH2 0x4EB3 SWAP2 SWAP1 PUSH2 0x79DE JUMP JUMPDEST SWAP1 POP JUMPDEST PUSH1 0x0 DUP1 DUP12 PUSH1 0x2 SIGNEXTEND DUP12 PUSH1 0x2 SIGNEXTEND SLT ISZERO PUSH2 0x4EDA JUMPI DUP5 PUSH1 0x1 ADD SLOAD SWAP2 POP DUP5 PUSH1 0x2 ADD SLOAD SWAP1 POP PUSH2 0x4EFF JUMP JUMPDEST DUP5 PUSH1 0x1 ADD SLOAD DUP11 PUSH2 0x4EEA SWAP2 SWAP1 PUSH2 0x79DE JUMP JUMPDEST SWAP2 POP DUP5 PUSH1 0x2 ADD SLOAD DUP10 PUSH2 0x4EFC SWAP2 SWAP1 PUSH2 0x79DE JUMP JUMPDEST SWAP1 POP JUMPDEST DUP2 DUP5 DUP12 PUSH2 0x4F0C SWAP2 SWAP1 PUSH2 0x79DE JUMP JUMPDEST PUSH2 0x4F16 SWAP2 SWAP1 PUSH2 0x79DE JUMP JUMPDEST SWAP8 POP DUP1 DUP4 DUP11 PUSH2 0x4F25 SWAP2 SWAP1 PUSH2 0x79DE JUMP JUMPDEST PUSH2 0x4F2F SWAP2 SWAP1 PUSH2 0x79DE JUMP JUMPDEST SWAP7 POP POP POP POP POP POP POP SWAP7 POP SWAP7 SWAP5 POP POP POP POP POP JUMP JUMPDEST PUSH1 0x0 DUP5 PUSH1 0x40 MLOAD DUP1 PUSH1 0xA0 ADD PUSH1 0x40 MSTORE SWAP1 DUP2 PUSH1 0x0 DUP3 ADD PUSH1 0x0 SWAP1 SLOAD SWAP1 PUSH2 0x100 EXP SWAP1 DIV PUSH16 0xFFFFFFFFFFFFFFFFFFFFFFFFFFFFFFFF AND PUSH16 0xFFFFFFFFFFFFFFFFFFFFFFFFFFFFFFFF AND PUSH16 0xFFFFFFFFFFFFFFFFFFFFFFFFFFFFFFFF AND DUP2 MSTORE PUSH1 0x20 ADD PUSH1 0x1 DUP3 ADD SLOAD DUP2 MSTORE PUSH1 0x20 ADD PUSH1 0x2 DUP3 ADD SLOAD DUP2 MSTORE PUSH1 0x20 ADD PUSH1 0x3 DUP3 ADD PUSH1 0x0 SWAP1 SLOAD SWAP1 PUSH2 0x100 EXP SWAP1 DIV PUSH16 0xFFFFFFFFFFFFFFFFFFFFFFFFFFFFFFFF AND PUSH16 0xFFFFFFFFFFFFFFFFFFFFFFFFFFFFFFFF AND PUSH16 0xFFFFFFFFFFFFFFFFFFFFFFFFFFFFFFFF AND DUP2 MSTORE PUSH1 0x20 ADD PUSH1 0x3 DUP3 ADD PUSH1 0x10 SWAP1 SLOAD SWAP1 PUSH2 0x100 EXP SWAP1 DIV PUSH16 0xFFFFFFFFFFFFFFFFFFFFFFFFFFFFFFFF AND PUSH16 0xFFFFFFFFFFFFFFFFFFFFFFFFFFFFFFFF AND PUSH16 0xFFFFFFFFFFFFFFFFFFFFFFFFFFFFFFFF AND DUP2 MSTORE POP POP SWAP1 POP PUSH1 0x0 DUP1 DUP6 PUSH1 0xF SIGNEXTEND SUB PUSH2 0x50B5 JUMPI PUSH1 0x0 DUP3 PUSH1 0x0 ADD MLOAD PUSH16 0xFFFFFFFFFFFFFFFFFFFFFFFFFFFFFFFF AND GT PUSH2 0x50A9 JUMPI PUSH1 0x40 MLOAD PUSH32 0x8C379A000000000000000000000000000000000000000000000000000000000 DUP2 MSTORE PUSH1 0x4 ADD PUSH2 0x50A0 SWAP1 PUSH2 0x7F35 JUMP JUMPDEST PUSH1 0x40 MLOAD DUP1 SWAP2 SUB SWAP1 REVERT JUMPDEST DUP2 PUSH1 0x0 ADD MLOAD SWAP1 POP PUSH2 0x50C6 JUMP JUMPDEST PUSH2 0x50C3 DUP3 PUSH1 0x0 ADD MLOAD DUP7 PUSH2 0x4588 JUMP JUMPDEST SWAP1 POP JUMPDEST PUSH1 0x0 PUSH2 0x5109 DUP4 PUSH1 0x20 ADD MLOAD DUP7 PUSH2 0x50DB SWAP2 SWAP1 PUSH2 0x79DE JUMP JUMPDEST DUP5 PUSH1 0x0 ADD MLOAD PUSH16 0xFFFFFFFFFFFFFFFFFFFFFFFFFFFFFFFF AND PUSH17 0x100000000000000000000000000000000 PUSH2 0x5A40 JUMP JUMPDEST SWAP1 POP PUSH1 0x0 PUSH2 0x514E DUP5 PUSH1 0x40 ADD MLOAD DUP7 PUSH2 0x5120 SWAP2 SWAP1 PUSH2 0x79DE JUMP JUMPDEST DUP6 PUSH1 0x0 ADD MLOAD PUSH16 0xFFFFFFFFFFFFFFFFFFFFFFFFFFFFFFFF AND PUSH17 0x100000000000000000000000000000000 PUSH2 0x5A40 JUMP JUMPDEST SWAP1 POP PUSH1 0x0 DUP8 PUSH1 0xF SIGNEXTEND EQ PUSH2 0x5197 JUMPI DUP3 DUP9 PUSH1 0x0 ADD PUSH1 0x0 PUSH2 0x100 EXP DUP2 SLOAD DUP2 PUSH16 0xFFFFFFFFFFFFFFFFFFFFFFFFFFFFFFFF MUL NOT AND SWAP1 DUP4 PUSH16 0xFFFFFFFFFFFFFFFFFFFFFFFFFFFFFFFF AND MUL OR SWAP1 SSTORE POP JUMPDEST DUP6 DUP9 PUSH1 0x1 ADD DUP2 SWAP1 SSTORE POP DUP5 DUP9 PUSH1 0x2 ADD DUP2 SWAP1 SSTORE POP PUSH1 0x0 DUP3 PUSH16 0xFFFFFFFFFFFFFFFFFFFFFFFFFFFFFFFF AND GT DUP1 PUSH2 0x51DC JUMPI POP PUSH1 0x0 DUP2 PUSH16 0xFFFFFFFFFFFFFFFFFFFFFFFFFFFFFFFF AND GT JUMPDEST ISZERO PUSH2 0x52AC JUMPI DUP2 DUP9 PUSH1 0x3 ADD PUSH1 0x0 DUP3 DUP3 DUP3 SWAP1 SLOAD SWAP1 PUSH2 0x100 EXP SWAP1 DIV PUSH16 0xFFFFFFFFFFFFFFFFFFFFFFFFFFFFFFFF AND PUSH2 0x5210 SWAP2 SWAP1 PUSH2 0x6EAD JUMP JUMPDEST SWAP3 POP PUSH2 0x100 EXP DUP2 SLOAD DUP2 PUSH16 0xFFFFFFFFFFFFFFFFFFFFFFFFFFFFFFFF MUL NOT AND SWAP1 DUP4 PUSH16 0xFFFFFFFFFFFFFFFFFFFFFFFFFFFFFFFF AND MUL OR SWAP1 SSTORE POP DUP1 DUP9 PUSH1 0x3 ADD PUSH1 0x10 DUP3 DUP3 DUP3 SWAP1 SLOAD SWAP1 PUSH2 0x100 EXP SWAP1 DIV PUSH16 0xFFFFFFFFFFFFFFFFFFFFFFFFFFFFFFFF AND PUSH2 0x5275 SWAP2 SWAP1 PUSH2 0x6EAD JUMP JUMPDEST SWAP3 POP PUSH2 0x100 EXP DUP2 SLOAD DUP2 PUSH16 0xFFFFFFFFFFFFFFFFFFFFFFFFFFFFFFFF MUL NOT AND SWAP1 DUP4 PUSH16 0xFFFFFFFFFFFFFFFFFFFFFFFFFFFFFFFF AND MUL OR SWAP1 SSTORE POP JUMPDEST POP POP POP POP POP POP POP POP JUMP JUMPDEST DUP2 PUSH1 0x0 DUP3 PUSH1 0x2 SIGNEXTEND PUSH1 0x2 SIGNEXTEND DUP2 MSTORE PUSH1 0x20 ADD SWAP1 DUP2 MSTORE PUSH1 0x20 ADD PUSH1 0x0 KECCAK256 PUSH1 0x0 DUP1 DUP3 ADD PUSH1 0x0 PUSH2 0x100 EXP DUP2 SLOAD SWAP1 PUSH16 0xFFFFFFFFFFFFFFFFFFFFFFFFFFFFFFFF MUL NOT AND SWAP1 SSTORE PUSH1 0x0 DUP3 ADD PUSH1 0x10 PUSH2 0x100 EXP DUP2 SLOAD SWAP1 PUSH16 0xFFFFFFFFFFFFFFFFFFFFFFFFFFFFFFFF MUL NOT AND SWAP1 SSTORE PUSH1 0x1 DUP3 ADD PUSH1 0x0 SWAP1 SSTORE PUSH1 0x2 DUP3 ADD PUSH1 0x0 SWAP1 SSTORE PUSH1 0x3 DUP3 ADD PUSH1 0x0 PUSH2 0x100 EXP DUP2 SLOAD SWAP1 PUSH7 0xFFFFFFFFFFFFFF MUL NOT AND SWAP1 SSTORE PUSH1 0x3 DUP3 ADD PUSH1 0x7 PUSH2 0x100 EXP DUP2 SLOAD SWAP1 PUSH20 0xFFFFFFFFFFFFFFFFFFFFFFFFFFFFFFFFFFFFFFFF MUL NOT AND SWAP1 SSTORE PUSH1 0x3 DUP3 ADD PUSH1 0x1B PUSH2 0x100 EXP DUP2 SLOAD SWAP1 PUSH4 0xFFFFFFFF MUL NOT AND SWAP1 SSTORE PUSH1 0x3 DUP3 ADD PUSH1 0x1F PUSH2 0x100 EXP DUP2 SLOAD SWAP1 PUSH1 0xFF MUL NOT AND SWAP1 SSTORE POP POP POP POP JUMP JUMPDEST PUSH1 0x0 DUP4 PUSH20 0xFFFFFFFFFFFFFFFFFFFFFFFFFFFFFFFFFFFFFFFF AND DUP6 PUSH20 0xFFFFFFFFFFFFFFFFFFFFFFFFFFFFFFFFFFFFFFFF AND GT ISZERO PUSH2 0x53D8 JUMPI DUP4 DUP6 DUP1 SWAP6 POP DUP2 SWAP7 POP POP POP JUMPDEST PUSH1 0x0 PUSH1 0x60 PUSH1 0xFF AND DUP5 PUSH16 0xFFFFFFFFFFFFFFFFFFFFFFFFFFFFFFFF AND SWAP1 SHL SWAP1 POP PUSH1 0x0 DUP7 DUP7 PUSH2 0x5404 SWAP2 SWAP1 PUSH2 0x6F87 JUMP JUMPDEST PUSH20 0xFFFFFFFFFFFFFFFFFFFFFFFFFFFFFFFFFFFFFFFF AND SWAP1 POP PUSH1 0x0 DUP8 PUSH20 0xFFFFFFFFFFFFFFFFFFFFFFFFFFFFFFFFFFFFFFFF AND GT PUSH2 0x543F JUMPI PUSH1 0x0 DUP1 REVERT JUMPDEST DUP4 PUSH2 0x548B JUMPI DUP7 PUSH20 0xFFFFFFFFFFFFFFFFFFFFFFFFFFFFFFFFFFFFFFFF AND PUSH2 0x547C DUP4 DUP4 DUP10 PUSH20 0xFFFFFFFFFFFFFFFFFFFFFFFFFFFFFFFFFFFFFFFF AND PUSH2 0x5A40 JUMP JUMPDEST PUSH2 0x5486 SWAP2 SWAP1 PUSH2 0x7BBF JUMP JUMPDEST PUSH2 0x54CC JUMP JUMPDEST PUSH2 0x54CB PUSH2 0x54AF DUP4 DUP4 DUP10 PUSH20 0xFFFFFFFFFFFFFFFFFFFFFFFFFFFFFFFFFFFFFFFF AND PUSH2 0x5C0A JUMP JUMPDEST DUP9 PUSH20 0xFFFFFFFFFFFFFFFFFFFFFFFFFFFFFFFFFFFFFFFF AND PUSH2 0x5C75 JUMP JUMPDEST JUMPDEST SWAP3 POP POP POP SWAP5 SWAP4 POP POP POP POP JUMP JUMPDEST PUSH1 0x0 PUSH32 0x8000000000000000000000000000000000000000000000000000000000000000 DUP3 LT PUSH2 0x5506 JUMPI PUSH1 0x0 DUP1 REVERT JUMPDEST DUP2 SWAP1 POP SWAP2 SWAP1 POP JUMP JUMPDEST PUSH1 0x0 DUP4 PUSH20 0xFFFFFFFFFFFFFFFFFFFFFFFFFFFFFFFFFFFFFFFF AND DUP6 PUSH20 0xFFFFFFFFFFFFFFFFFFFFFFFFFFFFFFFFFFFFFFFF AND GT ISZERO PUSH2 0x554F JUMPI DUP4 DUP6 DUP1 SWAP6 POP DUP2 SWAP7 POP POP POP JUMPDEST DUP2 PUSH2 0x55A4 JUMPI PUSH2 0x559F DUP4 PUSH16 0xFFFFFFFFFFFFFFFFFFFFFFFFFFFFFFFF AND DUP7 DUP7 PUSH2 0x5576 SWAP2 SWAP1 PUSH2 0x6F87 JUMP JUMPDEST PUSH20 0xFFFFFFFFFFFFFFFFFFFFFFFFFFFFFFFFFFFFFFFF AND PUSH13 0x1000000000000000000000000 PUSH2 0x5A40 JUMP JUMPDEST PUSH2 0x55F0 JUMP JUMPDEST PUSH2 0x55EF DUP4 PUSH16 0xFFFFFFFFFFFFFFFFFFFFFFFFFFFFFFFF AND DUP7 DUP7 PUSH2 0x55C6 SWAP2 SWAP1 PUSH2 0x6F87 JUMP JUMPDEST PUSH20 0xFFFFFFFFFFFFFFFFFFFFFFFFFFFFFFFFFFFFFFFF AND PUSH13 0x1000000000000000000000000 PUSH2 0x5C0A JUMP JUMPDEST JUMPDEST SWAP1 POP SWAP5 SWAP4 POP POP POP POP JUMP JUMPDEST PUSH1 0x0 DUP4 PUSH4 0xFFFFFFFF AND DUP4 PUSH4 0xFFFFFFFF AND GT ISZERO DUP1 ISZERO PUSH2 0x5624 JUMPI POP DUP4 PUSH4 0xFFFFFFFF AND DUP3 PUSH4 0xFFFFFFFF AND GT ISZERO JUMPDEST ISZERO PUSH2 0x5640 JUMPI DUP2 PUSH4 0xFFFFFFFF AND DUP4 PUSH4 0xFFFFFFFF AND GT ISZERO SWAP1 POP PUSH2 0x56CD JUMP JUMPDEST PUSH1 0x0 DUP5 PUSH4 0xFFFFFFFF AND DUP5 PUSH4 0xFFFFFFFF AND GT PUSH2 0x5671 JUMPI PUSH5 0x100000000 DUP5 PUSH4 0xFFFFFFFF AND PUSH2 0x566C SWAP2 SWAP1 PUSH2 0x7F66 JUMP JUMPDEST PUSH2 0x5679 JUMP JUMPDEST DUP4 PUSH4 0xFFFFFFFF AND JUMPDEST PUSH5 0xFFFFFFFFFF AND SWAP1 POP PUSH1 0x0 DUP6 PUSH4 0xFFFFFFFF AND DUP5 PUSH4 0xFFFFFFFF AND GT PUSH2 0x56B3 JUMPI PUSH5 0x100000000 DUP5 PUSH4 0xFFFFFFFF AND PUSH2 0x56AE SWAP2 SWAP1 PUSH2 0x7F66 JUMP JUMPDEST PUSH2 0x56BB JUMP JUMPDEST DUP4 PUSH4 0xFFFFFFFF AND JUMPDEST PUSH5 0xFFFFFFFFFF AND SWAP1 POP DUP1 DUP3 GT ISZERO SWAP3 POP POP POP JUMPDEST SWAP4 SWAP3 POP POP POP JUMP JUMPDEST PUSH2 0x56DC PUSH2 0x5C88 JUMP JUMPDEST PUSH2 0x56E4 PUSH2 0x5C88 JUMP JUMPDEST PUSH1 0x0 DUP4 PUSH1 0x1 DUP7 PUSH2 0x56F4 SWAP2 SWAP1 PUSH2 0x7C57 JUMP JUMPDEST PUSH2 0x56FE SWAP2 SWAP1 PUSH2 0x7C8D JUMP JUMPDEST PUSH2 0xFFFF AND SWAP1 POP PUSH1 0x0 PUSH1 0x1 DUP6 PUSH2 0xFFFF AND DUP4 PUSH2 0x5718 SWAP2 SWAP1 PUSH2 0x73AD JUMP JUMPDEST PUSH2 0x5722 SWAP2 SWAP1 PUSH2 0x79DE JUMP JUMPDEST SWAP1 POP PUSH1 0x0 JUMPDEST PUSH1 0x1 ISZERO PUSH2 0x59A0 JUMPI PUSH1 0x2 DUP3 DUP5 PUSH2 0x573C SWAP2 SWAP1 PUSH2 0x73AD JUMP JUMPDEST PUSH2 0x5746 SWAP2 SWAP1 PUSH2 0x7BBF JUMP JUMPDEST SWAP1 POP DUP10 DUP7 PUSH2 0xFFFF AND DUP3 PUSH2 0x5759 SWAP2 SWAP1 PUSH2 0x7BF0 JUMP JUMPDEST PUSH2 0xFFFF DUP2 LT PUSH2 0x576B JUMPI PUSH2 0x576A PUSH2 0x75CC JUMP JUMPDEST JUMPDEST ADD PUSH1 0x40 MLOAD DUP1 PUSH1 0x80 ADD PUSH1 0x40 MSTORE SWAP1 DUP2 PUSH1 0x0 DUP3 ADD PUSH1 0x0 SWAP1 SLOAD SWAP1 PUSH2 0x100 EXP SWAP1 DIV PUSH4 0xFFFFFFFF AND PUSH4 0xFFFFFFFF AND PUSH4 0xFFFFFFFF AND DUP2 MSTORE PUSH1 0x20 ADD PUSH1 0x0 DUP3 ADD PUSH1 0x4 SWAP1 SLOAD SWAP1 PUSH2 0x100 EXP SWAP1 DIV PUSH1 0x6 SIGNEXTEND PUSH1 0x6 SIGNEXTEND PUSH1 0x6 SIGNEXTEND DUP2 MSTORE PUSH1 0x20 ADD PUSH1 0x0 DUP3 ADD PUSH1 0xB SWAP1 SLOAD SWAP1 PUSH2 0x100 EXP SWAP1 DIV PUSH20 0xFFFFFFFFFFFFFFFFFFFFFFFFFFFFFFFFFFFFFFFF AND PUSH20 0xFFFFFFFFFFFFFFFFFFFFFFFFFFFFFFFFFFFFFFFF AND PUSH20 0xFFFFFFFFFFFFFFFFFFFFFFFFFFFFFFFFFFFFFFFF AND DUP2 MSTORE PUSH1 0x20 ADD PUSH1 0x0 DUP3 ADD PUSH1 0x1F SWAP1 SLOAD SWAP1 PUSH2 0x100 EXP SWAP1 DIV PUSH1 0xFF AND ISZERO ISZERO ISZERO ISZERO DUP2 MSTORE POP POP SWAP5 POP DUP5 PUSH1 0x60 ADD MLOAD PUSH2 0x584A JUMPI PUSH1 0x1 DUP2 PUSH2 0x5843 SWAP2 SWAP1 PUSH2 0x73AD JUMP JUMPDEST SWAP3 POP PUSH2 0x5727 JUMP JUMPDEST DUP10 DUP7 PUSH2 0xFFFF AND PUSH1 0x1 DUP4 PUSH2 0x585D SWAP2 SWAP1 PUSH2 0x73AD JUMP JUMPDEST PUSH2 0x5867 SWAP2 SWAP1 PUSH2 0x7BF0 JUMP JUMPDEST PUSH2 0xFFFF DUP2 LT PUSH2 0x5879 JUMPI PUSH2 0x5878 PUSH2 0x75CC JUMP JUMPDEST JUMPDEST ADD PUSH1 0x40 MLOAD DUP1 PUSH1 0x80 ADD PUSH1 0x40 MSTORE SWAP1 DUP2 PUSH1 0x0 DUP3 ADD PUSH1 0x0 SWAP1 SLOAD SWAP1 PUSH2 0x100 EXP SWAP1 DIV PUSH4 0xFFFFFFFF AND PUSH4 0xFFFFFFFF AND PUSH4 0xFFFFFFFF AND DUP2 MSTORE PUSH1 0x20 ADD PUSH1 0x0 DUP3 ADD PUSH1 0x4 SWAP1 SLOAD SWAP1 PUSH2 0x100 EXP SWAP1 DIV PUSH1 0x6 SIGNEXTEND PUSH1 0x6 SIGNEXTEND PUSH1 0x6 SIGNEXTEND DUP2 MSTORE PUSH1 0x20 ADD PUSH1 0x0 DUP3 ADD PUSH1 0xB SWAP1 SLOAD SWAP1 PUSH2 0x100 EXP SWAP1 DIV PUSH20 0xFFFFFFFFFFFFFFFFFFFFFFFFFFFFFFFFFFFFFFFF AND PUSH20 0xFFFFFFFFFFFFFFFFFFFFFFFFFFFFFFFFFFFFFFFF AND PUSH20 0xFFFFFFFFFFFFFFFFFFFFFFFFFFFFFFFFFFFFFFFF AND DUP2 MSTORE PUSH1 0x20 ADD PUSH1 0x0 DUP3 ADD PUSH1 0x1F SWAP1 SLOAD SWAP1 PUSH2 0x100 EXP SWAP1 DIV PUSH1 0xFF AND ISZERO ISZERO ISZERO ISZERO DUP2 MSTORE POP POP SWAP4 POP PUSH1 0x0 PUSH2 0x594C DUP11 DUP8 PUSH1 0x0 ADD MLOAD DUP12 PUSH2 0x55FA JUMP JUMPDEST SWAP1 POP DUP1 DUP1 ISZERO PUSH2 0x5966 JUMPI POP PUSH2 0x5965 DUP11 DUP11 DUP8 PUSH1 0x0 ADD MLOAD PUSH2 0x55FA JUMP JUMPDEST JUMPDEST ISZERO PUSH2 0x5971 JUMPI POP PUSH2 0x59A0 JUMP JUMPDEST DUP1 PUSH2 0x598A JUMPI PUSH1 0x1 DUP3 PUSH2 0x5983 SWAP2 SWAP1 PUSH2 0x79DE JUMP JUMPDEST SWAP3 POP PUSH2 0x599A JUMP JUMPDEST PUSH1 0x1 DUP3 PUSH2 0x5997 SWAP2 SWAP1 PUSH2 0x73AD JUMP JUMPDEST SWAP4 POP JUMPDEST POP PUSH2 0x5727 JUMP JUMPDEST POP POP POP SWAP6 POP SWAP6 SWAP4 POP POP POP POP JUMP JUMPDEST PUSH1 0x0 DUP1 DUP3 SLT ISZERO ISZERO ISZERO DUP4 DUP4 DUP6 PUSH2 0x59C2 SWAP2 SWAP1 PUSH2 0x7ACD JUMP JUMPDEST SWAP3 POP DUP3 SLT ISZERO ISZERO ISZERO EQ PUSH2 0x59D3 JUMPI PUSH1 0x0 DUP1 REVERT JUMPDEST SWAP3 SWAP2 POP POP JUMP JUMPDEST PUSH1 0x0 DUP2 DUP3 SWAP2 POP DUP2 PUSH1 0xF SIGNEXTEND EQ PUSH2 0x59ED JUMPI PUSH1 0x0 DUP1 REVERT JUMPDEST SWAP2 SWAP1 POP JUMP JUMPDEST PUSH1 0x0 DUP1 DUP3 SLT ISZERO ISZERO ISZERO DUP4 DUP4 DUP6 PUSH2 0x5A07 SWAP2 SWAP1 PUSH2 0x7A12 JUMP JUMPDEST SWAP3 POP DUP3 SGT ISZERO ISZERO ISZERO EQ PUSH2 0x5A18 JUMPI PUSH1 0x0 DUP1 REVERT JUMPDEST SWAP3 SWAP2 POP POP JUMP JUMPDEST PUSH1 0x0 DUP1 PUSH1 0x8 DUP4 PUSH1 0x2 SIGNEXTEND SWAP1 SAR SWAP2 POP PUSH2 0x100 DUP4 PUSH2 0x5A39 SWAP2 SWAP1 PUSH2 0x7F9F JUMP JUMPDEST SWAP1 POP SWAP2 POP SWAP2 JUMP JUMPDEST PUSH1 0x0 DUP1 PUSH1 0x0 DUP1 NOT DUP6 DUP8 MULMOD DUP6 DUP8 MUL SWAP3 POP DUP3 DUP2 LT DUP4 DUP3 SUB SUB SWAP2 POP POP PUSH1 0x0 DUP2 SUB PUSH2 0x5A7A JUMPI PUSH1 0x0 DUP5 GT PUSH2 0x5A6E JUMPI PUSH1 0x0 DUP1 REVERT JUMPDEST DUP4 DUP3 DIV SWAP3 POP POP POP PUSH2 0x5C03 JUMP JUMPDEST DUP1 DUP5 GT PUSH2 0x5A86 JUMPI PUSH1 0x0 DUP1 REVERT JUMPDEST PUSH1 0x0 DUP5 DUP7 DUP9 MULMOD SWAP1 POP DUP3 DUP2 GT DUP3 SUB SWAP2 POP DUP1 DUP4 SUB SWAP3 POP PUSH1 0x0 DUP6 PUSH1 0x1 DUP8 PUSH32 0xFFFFFFFFFFFFFFFFFFFFFFFFFFFFFFFFFFFFFFFFFFFFFFFFFFFFFFFFFFFFFFFF PUSH2 0x5ACB SWAP2 SWAP1 PUSH2 0x79DE JUMP JUMPDEST PUSH2 0x5AD5 SWAP2 SWAP1 PUSH2 0x73AD JUMP JUMPDEST AND SWAP1 POP DUP1 DUP7 DIV SWAP6 POP DUP1 DUP5 DIV SWAP4 POP PUSH1 0x1 DUP2 DUP3 PUSH1 0x0 SUB DIV ADD SWAP1 POP DUP1 DUP4 PUSH2 0x5AF9 SWAP2 SWAP1 PUSH2 0x7B7D JUMP JUMPDEST DUP5 OR SWAP4 POP PUSH1 0x0 PUSH1 0x2 DUP8 PUSH1 0x3 PUSH2 0x5B0E SWAP2 SWAP1 PUSH2 0x7B7D JUMP JUMPDEST XOR SWAP1 POP DUP1 DUP8 PUSH2 0x5B1D SWAP2 SWAP1 PUSH2 0x7B7D JUMP JUMPDEST PUSH1 0x2 PUSH2 0x5B29 SWAP2 SWAP1 PUSH2 0x79DE JUMP JUMPDEST DUP2 PUSH2 0x5B34 SWAP2 SWAP1 PUSH2 0x7B7D JUMP JUMPDEST SWAP1 POP DUP1 DUP8 PUSH2 0x5B42 SWAP2 SWAP1 PUSH2 0x7B7D JUMP JUMPDEST PUSH1 0x2 PUSH2 0x5B4E SWAP2 SWAP1 PUSH2 0x79DE JUMP JUMPDEST DUP2 PUSH2 0x5B59 SWAP2 SWAP1 PUSH2 0x7B7D JUMP JUMPDEST SWAP1 POP DUP1 DUP8 PUSH2 0x5B67 SWAP2 SWAP1 PUSH2 0x7B7D JUMP JUMPDEST PUSH1 0x2 PUSH2 0x5B73 SWAP2 SWAP1 PUSH2 0x79DE JUMP JUMPDEST DUP2 PUSH2 0x5B7E SWAP2 SWAP1 PUSH2 0x7B7D JUMP JUMPDEST SWAP1 POP DUP1 DUP8 PUSH2 0x5B8C SWAP2 SWAP1 PUSH2 0x7B7D JUMP JUMPDEST PUSH1 0x2 PUSH2 0x5B98 SWAP2 SWAP1 PUSH2 0x79DE JUMP JUMPDEST DUP2 PUSH2 0x5BA3 SWAP2 SWAP1 PUSH2 0x7B7D JUMP JUMPDEST SWAP1 POP DUP1 DUP8 PUSH2 0x5BB1 SWAP2 SWAP1 PUSH2 0x7B7D JUMP JUMPDEST PUSH1 0x2 PUSH2 0x5BBD SWAP2 SWAP1 PUSH2 0x79DE JUMP JUMPDEST DUP2 PUSH2 0x5BC8 SWAP2 SWAP1 PUSH2 0x7B7D JUMP JUMPDEST SWAP1 POP DUP1 DUP8 PUSH2 0x5BD6 SWAP2 SWAP1 PUSH2 0x7B7D JUMP JUMPDEST PUSH1 0x2 PUSH2 0x5BE2 SWAP2 SWAP1 PUSH2 0x79DE JUMP JUMPDEST DUP2 PUSH2 0x5BED SWAP2 SWAP1 PUSH2 0x7B7D JUMP JUMPDEST SWAP1 POP DUP1 DUP6 PUSH2 0x5BFB SWAP2 SWAP1 PUSH2 0x7B7D JUMP JUMPDEST SWAP6 POP POP POP POP POP POP JUMPDEST SWAP4 SWAP3 POP POP POP JUMP JUMPDEST PUSH1 0x0 PUSH2 0x5C17 DUP5 DUP5 DUP5 PUSH2 0x5A40 JUMP JUMPDEST SWAP1 POP PUSH1 0x0 DUP3 DUP1 PUSH2 0x5C2A JUMPI PUSH2 0x5C29 PUSH2 0x6C25 JUMP JUMPDEST JUMPDEST DUP5 DUP7 MULMOD GT ISZERO PUSH2 0x5C6E JUMPI PUSH32 0xFFFFFFFFFFFFFFFFFFFFFFFFFFFFFFFFFFFFFFFFFFFFFFFFFFFFFFFFFFFFFFFF DUP2 LT PUSH2 0x5C5F JUMPI PUSH1 0x0 DUP1 REVERT JUMPDEST DUP1 DUP1 PUSH2 0x5C6A SWAP1 PUSH2 0x75FB JUMP JUMPDEST SWAP2 POP POP JUMPDEST SWAP4 SWAP3 POP POP POP JUMP JUMPDEST PUSH1 0x0 DUP1 DUP3 DUP5 MOD GT DUP3 DUP5 DIV ADD SWAP1 POP SWAP3 SWAP2 POP POP JUMP JUMPDEST PUSH1 0x40 MLOAD DUP1 PUSH1 0x80 ADD PUSH1 0x40 MSTORE DUP1 PUSH1 0x0 PUSH4 0xFFFFFFFF AND DUP2 MSTORE PUSH1 0x20 ADD PUSH1 0x0 PUSH1 0x6 SIGNEXTEND DUP2 MSTORE PUSH1 0x20 ADD PUSH1 0x0 PUSH20 0xFFFFFFFFFFFFFFFFFFFFFFFFFFFFFFFFFFFFFFFF AND DUP2 MSTORE PUSH1 0x20 ADD PUSH1 0x0 ISZERO ISZERO DUP2 MSTORE POP SWAP1 JUMP JUMPDEST PUSH1 0x0 DUP2 SWAP1 POP SWAP2 SWAP1 POP JUMP JUMPDEST PUSH2 0x5CE4 DUP2 PUSH2 0x5CD1 JUMP JUMPDEST DUP3 MSTORE POP POP JUMP JUMPDEST PUSH1 0x0 PUSH1 0x20 DUP3 ADD SWAP1 POP PUSH2 0x5CFF PUSH1 0x0 DUP4 ADD DUP5 PUSH2 0x5CDB JUMP JUMPDEST SWAP3 SWAP2 POP POP JUMP JUMPDEST PUSH1 0x0 PUSH20 0xFFFFFFFFFFFFFFFFFFFFFFFFFFFFFFFFFFFFFFFF DUP3 AND SWAP1 POP SWAP2 SWAP1 POP JUMP JUMPDEST PUSH1 0x0 PUSH2 0x5D30 DUP3 PUSH2 0x5D05 JUMP JUMPDEST SWAP1 POP SWAP2 SWAP1 POP JUMP JUMPDEST PUSH2 0x5D40 DUP2 PUSH2 0x5D25 JUMP JUMPDEST DUP3 MSTORE POP POP JUMP JUMPDEST PUSH1 0x0 PUSH1 0x20 DUP3 ADD SWAP1 POP PUSH2 0x5D5B PUSH1 0x0 DUP4 ADD DUP5 PUSH2 0x5D37 JUMP JUMPDEST SWAP3 SWAP2 POP POP JUMP JUMPDEST PUSH1 0x0 DUP1 REVERT JUMPDEST PUSH1 0x0 DUP1 REVERT JUMPDEST PUSH1 0x0 PUSH1 0xFF DUP3 AND SWAP1 POP SWAP2 SWAP1 POP JUMP JUMPDEST PUSH2 0x5D81 DUP2 PUSH2 0x5D6B JUMP JUMPDEST DUP2 EQ PUSH2 0x5D8C JUMPI PUSH1 0x0 DUP1 REVERT JUMPDEST POP JUMP JUMPDEST PUSH1 0x0 DUP2 CALLDATALOAD SWAP1 POP PUSH2 0x5D9E DUP2 PUSH2 0x5D78 JUMP JUMPDEST SWAP3 SWAP2 POP POP JUMP JUMPDEST PUSH1 0x0 DUP1 PUSH1 0x40 DUP4 DUP6 SUB SLT ISZERO PUSH2 0x5DBB JUMPI PUSH2 0x5DBA PUSH2 0x5D61 JUMP JUMPDEST JUMPDEST PUSH1 0x0 PUSH2 0x5DC9 DUP6 DUP3 DUP7 ADD PUSH2 0x5D8F JUMP JUMPDEST SWAP3 POP POP PUSH1 0x20 PUSH2 0x5DDA DUP6 DUP3 DUP7 ADD PUSH2 0x5D8F JUMP JUMPDEST SWAP2 POP POP SWAP3 POP SWAP3 SWAP1 POP JUMP JUMPDEST PUSH2 0x5DED DUP2 PUSH2 0x5CD1 JUMP JUMPDEST DUP2 EQ PUSH2 0x5DF8 JUMPI PUSH1 0x0 DUP1 REVERT JUMPDEST POP JUMP JUMPDEST PUSH1 0x0 DUP2 CALLDATALOAD SWAP1 POP PUSH2 0x5E0A DUP2 PUSH2 0x5DE4 JUMP JUMPDEST SWAP3 SWAP2 POP POP JUMP JUMPDEST PUSH1 0x0 PUSH1 0x20 DUP3 DUP5 SUB SLT ISZERO PUSH2 0x5E26 JUMPI PUSH2 0x5E25 PUSH2 0x5D61 JUMP JUMPDEST JUMPDEST PUSH1 0x0 PUSH2 0x5E34 DUP5 DUP3 DUP6 ADD PUSH2 0x5DFB JUMP JUMPDEST SWAP2 POP POP SWAP3 SWAP2 POP POP JUMP JUMPDEST PUSH1 0x0 PUSH4 0xFFFFFFFF DUP3 AND SWAP1 POP SWAP2 SWAP1 POP JUMP JUMPDEST PUSH2 0x5E56 DUP2 PUSH2 0x5E3D JUMP JUMPDEST DUP3 MSTORE POP POP JUMP JUMPDEST PUSH1 0x0 DUP2 PUSH1 0x6 SIGNEXTEND SWAP1 POP SWAP2 SWAP1 POP JUMP JUMPDEST PUSH2 0x5E72 DUP2 PUSH2 0x5E5C JUMP JUMPDEST DUP3 MSTORE POP POP JUMP JUMPDEST PUSH2 0x5E81 DUP2 PUSH2 0x5D05 JUMP JUMPDEST DUP3 MSTORE POP POP JUMP JUMPDEST PUSH1 0x0 DUP2 ISZERO ISZERO SWAP1 POP SWAP2 SWAP1 POP JUMP JUMPDEST PUSH2 0x5E9C DUP2 PUSH2 0x5E87 JUMP JUMPDEST DUP3 MSTORE POP POP JUMP JUMPDEST PUSH1 0x0 PUSH1 0x80 DUP3 ADD SWAP1 POP PUSH2 0x5EB7 PUSH1 0x0 DUP4 ADD DUP8 PUSH2 0x5E4D JUMP JUMPDEST PUSH2 0x5EC4 PUSH1 0x20 DUP4 ADD DUP7 PUSH2 0x5E69 JUMP JUMPDEST PUSH2 0x5ED1 PUSH1 0x40 DUP4 ADD DUP6 PUSH2 0x5E78 JUMP JUMPDEST PUSH2 0x5EDE PUSH1 0x60 DUP4 ADD DUP5 PUSH2 0x5E93 JUMP JUMPDEST SWAP6 SWAP5 POP POP POP POP POP JUMP JUMPDEST PUSH1 0x0 DUP2 PUSH1 0x2 SIGNEXTEND SWAP1 POP SWAP2 SWAP1 POP JUMP JUMPDEST PUSH2 0x5EFD DUP2 PUSH2 0x5EE7 JUMP JUMPDEST DUP2 EQ PUSH2 0x5F08 JUMPI PUSH1 0x0 DUP1 REVERT JUMPDEST POP JUMP JUMPDEST PUSH1 0x0 DUP2 CALLDATALOAD SWAP1 POP PUSH2 0x5F1A DUP2 PUSH2 0x5EF4 JUMP JUMPDEST SWAP3 SWAP2 POP POP JUMP JUMPDEST PUSH1 0x0 PUSH1 0x20 DUP3 DUP5 SUB SLT ISZERO PUSH2 0x5F36 JUMPI PUSH2 0x5F35 PUSH2 0x5D61 JUMP JUMPDEST JUMPDEST PUSH1 0x0 PUSH2 0x5F44 DUP5 DUP3 DUP6 ADD PUSH2 0x5F0B JUMP JUMPDEST SWAP2 POP POP SWAP3 SWAP2 POP POP JUMP JUMPDEST PUSH1 0x0 PUSH16 0xFFFFFFFFFFFFFFFFFFFFFFFFFFFFFFFF DUP3 AND SWAP1 POP SWAP2 SWAP1 POP JUMP JUMPDEST PUSH2 0x5F72 DUP2 PUSH2 0x5F4D JUMP JUMPDEST DUP3 MSTORE POP POP JUMP JUMPDEST PUSH1 0x0 DUP2 PUSH1 0xF SIGNEXTEND SWAP1 POP SWAP2 SWAP1 POP JUMP JUMPDEST PUSH2 0x5F8E DUP2 PUSH2 0x5F78 JUMP JUMPDEST DUP3 MSTORE POP POP JUMP JUMPDEST PUSH1 0x0 PUSH2 0x100 DUP3 ADD SWAP1 POP PUSH2 0x5FAA PUSH1 0x0 DUP4 ADD DUP12 PUSH2 0x5F69 JUMP JUMPDEST PUSH2 0x5FB7 PUSH1 0x20 DUP4 ADD DUP11 PUSH2 0x5F85 JUMP JUMPDEST PUSH2 0x5FC4 PUSH1 0x40 DUP4 ADD DUP10 PUSH2 0x5CDB JUMP JUMPDEST PUSH2 0x5FD1 PUSH1 0x60 DUP4 ADD DUP9 PUSH2 0x5CDB JUMP JUMPDEST PUSH2 0x5FDE PUSH1 0x80 DUP4 ADD DUP8 PUSH2 0x5E69 JUMP JUMPDEST PUSH2 0x5FEB PUSH1 0xA0 DUP4 ADD DUP7 PUSH2 0x5E78 JUMP JUMPDEST PUSH2 0x5FF8 PUSH1 0xC0 DUP4 ADD DUP6 PUSH2 0x5E4D JUMP JUMPDEST PUSH2 0x6005 PUSH1 0xE0 DUP4 ADD DUP5 PUSH2 0x5E93 JUMP JUMPDEST SWAP10 SWAP9 POP POP POP POP POP POP POP POP POP JUMP JUMPDEST PUSH1 0x0 PUSH1 0x40 DUP3 ADD SWAP1 POP PUSH2 0x6027 PUSH1 0x0 DUP4 ADD DUP6 PUSH2 0x5F69 JUMP JUMPDEST PUSH2 0x6034 PUSH1 0x20 DUP4 ADD DUP5 PUSH2 0x5F69 JUMP JUMPDEST SWAP4 SWAP3 POP POP POP JUMP JUMPDEST PUSH2 0x6044 DUP2 PUSH2 0x5D25 JUMP JUMPDEST DUP2 EQ PUSH2 0x604F JUMPI PUSH1 0x0 DUP1 REVERT JUMPDEST POP JUMP JUMPDEST PUSH1 0x0 DUP2 CALLDATALOAD SWAP1 POP PUSH2 0x6061 DUP2 PUSH2 0x603B JUMP JUMPDEST SWAP3 SWAP2 POP POP JUMP JUMPDEST PUSH2 0x6070 DUP2 PUSH2 0x5F4D JUMP JUMPDEST DUP2 EQ PUSH2 0x607B JUMPI PUSH1 0x0 DUP1 REVERT JUMPDEST POP JUMP JUMPDEST PUSH1 0x0 DUP2 CALLDATALOAD SWAP1 POP PUSH2 0x608D DUP2 PUSH2 0x6067 JUMP JUMPDEST SWAP3 SWAP2 POP POP JUMP JUMPDEST PUSH1 0x0 DUP1 REVERT JUMPDEST PUSH1 0x0 DUP1 REVERT JUMPDEST PUSH1 0x0 DUP1 REVERT JUMPDEST PUSH1 0x0 DUP1 DUP4 PUSH1 0x1F DUP5 ADD SLT PUSH2 0x60B8 JUMPI PUSH2 0x60B7 PUSH2 0x6093 JUMP JUMPDEST JUMPDEST DUP3 CALLDATALOAD SWAP1 POP PUSH8 0xFFFFFFFFFFFFFFFF DUP2 GT ISZERO PUSH2 0x60D5 JUMPI PUSH2 0x60D4 PUSH2 0x6098 JUMP JUMPDEST JUMPDEST PUSH1 0x20 DUP4 ADD SWAP2 POP DUP4 PUSH1 0x1 DUP3 MUL DUP4 ADD GT ISZERO PUSH2 0x60F1 JUMPI PUSH2 0x60F0 PUSH2 0x609D JUMP JUMPDEST JUMPDEST SWAP3 POP SWAP3 SWAP1 POP JUMP JUMPDEST PUSH1 0x0 DUP1 PUSH1 0x0 DUP1 PUSH1 0x0 DUP1 PUSH1 0xA0 DUP8 DUP10 SUB SLT ISZERO PUSH2 0x6115 JUMPI PUSH2 0x6114 PUSH2 0x5D61 JUMP JUMPDEST JUMPDEST PUSH1 0x0 PUSH2 0x6123 DUP10 DUP3 DUP11 ADD PUSH2 0x6052 JUMP JUMPDEST SWAP7 POP POP PUSH1 0x20 PUSH2 0x6134 DUP10 DUP3 DUP11 ADD PUSH2 0x5F0B JUMP JUMPDEST SWAP6 POP POP PUSH1 0x40 PUSH2 0x6145 DUP10 DUP3 DUP11 ADD PUSH2 0x5F0B JUMP JUMPDEST SWAP5 POP POP PUSH1 0x60 PUSH2 0x6156 DUP10 DUP3 DUP11 ADD PUSH2 0x607E JUMP JUMPDEST SWAP4 POP POP PUSH1 0x80 DUP8 ADD CALLDATALOAD PUSH8 0xFFFFFFFFFFFFFFFF DUP2 GT ISZERO PUSH2 0x6177 JUMPI PUSH2 0x6176 PUSH2 0x5D66 JUMP JUMPDEST JUMPDEST PUSH2 0x6183 DUP10 DUP3 DUP11 ADD PUSH2 0x60A2 JUMP JUMPDEST SWAP3 POP SWAP3 POP POP SWAP3 SWAP6 POP SWAP3 SWAP6 POP SWAP3 SWAP6 JUMP JUMPDEST PUSH1 0x0 PUSH1 0x40 DUP3 ADD SWAP1 POP PUSH2 0x61A7 PUSH1 0x0 DUP4 ADD DUP6 PUSH2 0x5CDB JUMP JUMPDEST PUSH2 0x61B4 PUSH1 0x20 DUP4 ADD DUP5 PUSH2 0x5CDB JUMP JUMPDEST SWAP4 SWAP3 POP POP POP JUMP JUMPDEST PUSH1 0x0 DUP2 SWAP1 POP SWAP2 SWAP1 POP JUMP JUMPDEST PUSH2 0x61CE DUP2 PUSH2 0x61BB JUMP JUMPDEST DUP2 EQ PUSH2 0x61D9 JUMPI PUSH1 0x0 DUP1 REVERT JUMPDEST POP JUMP JUMPDEST PUSH1 0x0 DUP2 CALLDATALOAD SWAP1 POP PUSH2 0x61EB DUP2 PUSH2 0x61C5 JUMP JUMPDEST SWAP3 SWAP2 POP POP JUMP JUMPDEST PUSH1 0x0 PUSH1 0x20 DUP3 DUP5 SUB SLT ISZERO PUSH2 0x6207 JUMPI PUSH2 0x6206 PUSH2 0x5D61 JUMP JUMPDEST JUMPDEST PUSH1 0x0 PUSH2 0x6215 DUP5 DUP3 DUP6 ADD PUSH2 0x61DC JUMP JUMPDEST SWAP2 POP POP SWAP3 SWAP2 POP POP JUMP JUMPDEST PUSH1 0x0 PUSH1 0xA0 DUP3 ADD SWAP1 POP PUSH2 0x6233 PUSH1 0x0 DUP4 ADD DUP9 PUSH2 0x5F69 JUMP JUMPDEST PUSH2 0x6240 PUSH1 0x20 DUP4 ADD DUP8 PUSH2 0x5CDB JUMP JUMPDEST PUSH2 0x624D PUSH1 0x40 DUP4 ADD DUP7 PUSH2 0x5CDB JUMP JUMPDEST PUSH2 0x625A PUSH1 0x60 DUP4 ADD DUP6 PUSH2 0x5F69 JUMP JUMPDEST PUSH2 0x6267 PUSH1 0x80 DUP4 ADD DUP5 PUSH2 0x5F69 JUMP JUMPDEST SWAP7 SWAP6 POP POP POP POP POP POP JUMP JUMPDEST PUSH1 0x0 DUP1 PUSH1 0x0 DUP1 PUSH1 0x0 PUSH1 0xA0 DUP7 DUP9 SUB SLT ISZERO PUSH2 0x628D JUMPI PUSH2 0x628C PUSH2 0x5D61 JUMP JUMPDEST JUMPDEST PUSH1 0x0 PUSH2 0x629B DUP9 DUP3 DUP10 ADD PUSH2 0x6052 JUMP JUMPDEST SWAP6 POP POP PUSH1 0x20 PUSH2 0x62AC DUP9 DUP3 DUP10 ADD PUSH2 0x5F0B JUMP JUMPDEST SWAP5 POP POP PUSH1 0x40 PUSH2 0x62BD DUP9 DUP3 DUP10 ADD PUSH2 0x5F0B JUMP JUMPDEST SWAP4 POP POP PUSH1 0x60 PUSH2 0x62CE DUP9 DUP3 DUP10 ADD PUSH2 0x607E JUMP JUMPDEST SWAP3 POP POP PUSH1 0x80 PUSH2 0x62DF DUP9 DUP3 DUP10 ADD PUSH2 0x607E JUMP JUMPDEST SWAP2 POP POP SWAP3 SWAP6 POP SWAP3 SWAP6 SWAP1 SWAP4 POP JUMP JUMPDEST PUSH1 0x0 PUSH3 0xFFFFFF DUP3 AND SWAP1 POP SWAP2 SWAP1 POP JUMP JUMPDEST PUSH2 0x6304 DUP2 PUSH2 0x62EC JUMP JUMPDEST DUP3 MSTORE POP POP JUMP JUMPDEST PUSH1 0x0 PUSH1 0x20 DUP3 ADD SWAP1 POP PUSH2 0x631F PUSH1 0x0 DUP4 ADD DUP5 PUSH2 0x62FB JUMP JUMPDEST SWAP3 SWAP2 POP POP JUMP JUMPDEST PUSH1 0x0 PUSH1 0x20 DUP3 ADD SWAP1 POP PUSH2 0x633A PUSH1 0x0 DUP4 ADD DUP5 PUSH2 0x5F69 JUMP JUMPDEST SWAP3 SWAP2 POP POP JUMP JUMPDEST PUSH2 0x6349 DUP2 PUSH2 0x5D6B JUMP JUMPDEST DUP3 MSTORE POP POP JUMP JUMPDEST PUSH1 0x0 PUSH1 0x20 DUP3 ADD SWAP1 POP PUSH2 0x6364 PUSH1 0x0 DUP4 ADD DUP5 PUSH2 0x6340 JUMP JUMPDEST SWAP3 SWAP2 POP POP JUMP JUMPDEST PUSH1 0x0 DUP1 DUP4 PUSH1 0x1F DUP5 ADD SLT PUSH2 0x6380 JUMPI PUSH2 0x637F PUSH2 0x6093 JUMP JUMPDEST JUMPDEST DUP3 CALLDATALOAD SWAP1 POP PUSH8 0xFFFFFFFFFFFFFFFF DUP2 GT ISZERO PUSH2 0x639D JUMPI PUSH2 0x639C PUSH2 0x6098 JUMP JUMPDEST JUMPDEST PUSH1 0x20 DUP4 ADD SWAP2 POP DUP4 PUSH1 0x20 DUP3 MUL DUP4 ADD GT ISZERO PUSH2 0x63B9 JUMPI PUSH2 0x63B8 PUSH2 0x609D JUMP JUMPDEST JUMPDEST SWAP3 POP SWAP3 SWAP1 POP JUMP JUMPDEST PUSH1 0x0 DUP1 PUSH1 0x20 DUP4 DUP6 SUB SLT ISZERO PUSH2 0x63D7 JUMPI PUSH2 0x63D6 PUSH2 0x5D61 JUMP JUMPDEST JUMPDEST PUSH1 0x0 DUP4 ADD CALLDATALOAD PUSH8 0xFFFFFFFFFFFFFFFF DUP2 GT ISZERO PUSH2 0x63F5 JUMPI PUSH2 0x63F4 PUSH2 0x5D66 JUMP JUMPDEST JUMPDEST PUSH2 0x6401 DUP6 DUP3 DUP7 ADD PUSH2 0x636A JUMP JUMPDEST SWAP3 POP SWAP3 POP POP SWAP3 POP SWAP3 SWAP1 POP JUMP JUMPDEST PUSH1 0x0 DUP2 MLOAD SWAP1 POP SWAP2 SWAP1 POP JUMP JUMPDEST PUSH1 0x0 DUP3 DUP3 MSTORE PUSH1 0x20 DUP3 ADD SWAP1 POP SWAP3 SWAP2 POP POP JUMP JUMPDEST PUSH1 0x0 DUP2 SWAP1 POP PUSH1 0x20 DUP3 ADD SWAP1 POP SWAP2 SWAP1 POP JUMP JUMPDEST PUSH2 0x6442 DUP2 PUSH2 0x5E5C JUMP JUMPDEST DUP3 MSTORE POP POP JUMP JUMPDEST PUSH1 0x0 PUSH2 0x6454 DUP4 DUP4 PUSH2 0x6439 JUMP JUMPDEST PUSH1 0x20 DUP4 ADD SWAP1 POP SWAP3 SWAP2 POP POP JUMP JUMPDEST PUSH1 0x0 PUSH1 0x20 DUP3 ADD SWAP1 POP SWAP2 SWAP1 POP JUMP JUMPDEST PUSH1 0x0 PUSH2 0x6478 DUP3 PUSH2 0x640D JUMP JUMPDEST PUSH2 0x6482 DUP2 DUP6 PUSH2 0x6418 JUMP JUMPDEST SWAP4 POP PUSH2 0x648D DUP4 PUSH2 0x6429 JUMP JUMPDEST DUP1 PUSH1 0x0 JUMPDEST DUP4 DUP2 LT ISZERO PUSH2 0x64BE JUMPI DUP2 MLOAD PUSH2 0x64A5 DUP9 DUP3 PUSH2 0x6448 JUMP JUMPDEST SWAP8 POP PUSH2 0x64B0 DUP4 PUSH2 0x6460 JUMP JUMPDEST SWAP3 POP POP PUSH1 0x1 DUP2 ADD SWAP1 POP PUSH2 0x6491 JUMP JUMPDEST POP DUP6 SWAP4 POP POP POP POP SWAP3 SWAP2 POP POP JUMP JUMPDEST PUSH1 0x0 DUP2 MLOAD SWAP1 POP SWAP2 SWAP1 POP JUMP JUMPDEST PUSH1 0x0 DUP3 DUP3 MSTORE PUSH1 0x20 DUP3 ADD SWAP1 POP SWAP3 SWAP2 POP POP JUMP JUMPDEST PUSH1 0x0 DUP2 SWAP1 POP PUSH1 0x20 DUP3 ADD SWAP1 POP SWAP2 SWAP1 POP JUMP JUMPDEST PUSH2 0x6500 DUP2 PUSH2 0x5D05 JUMP JUMPDEST DUP3 MSTORE POP POP JUMP JUMPDEST PUSH1 0x0 PUSH2 0x6512 DUP4 DUP4 PUSH2 0x64F7 JUMP JUMPDEST PUSH1 0x20 DUP4 ADD SWAP1 POP SWAP3 SWAP2 POP POP JUMP JUMPDEST PUSH1 0x0 PUSH1 0x20 DUP3 ADD SWAP1 POP SWAP2 SWAP1 POP JUMP JUMPDEST PUSH1 0x0 PUSH2 0x6536 DUP3 PUSH2 0x64CB JUMP JUMPDEST PUSH2 0x6540 DUP2 DUP6 PUSH2 0x64D6 JUMP JUMPDEST SWAP4 POP PUSH2 0x654B DUP4 PUSH2 0x64E7 JUMP JUMPDEST DUP1 PUSH1 0x0 JUMPDEST DUP4 DUP2 LT ISZERO PUSH2 0x657C JUMPI DUP2 MLOAD PUSH2 0x6563 DUP9 DUP3 PUSH2 0x6506 JUMP JUMPDEST SWAP8 POP PUSH2 0x656E DUP4 PUSH2 0x651E JUMP JUMPDEST SWAP3 POP POP PUSH1 0x1 DUP2 ADD SWAP1 POP PUSH2 0x654F JUMP JUMPDEST POP DUP6 SWAP4 POP POP POP POP SWAP3 SWAP2 POP POP JUMP JUMPDEST PUSH1 0x0 PUSH1 0x40 DUP3 ADD SWAP1 POP DUP2 DUP2 SUB PUSH1 0x0 DUP4 ADD MSTORE PUSH2 0x65A3 DUP2 DUP6 PUSH2 0x646D JUMP JUMPDEST SWAP1 POP DUP2 DUP2 SUB PUSH1 0x20 DUP4 ADD MSTORE PUSH2 0x65B7 DUP2 DUP5 PUSH2 0x652B JUMP JUMPDEST SWAP1 POP SWAP4 SWAP3 POP POP POP JUMP JUMPDEST PUSH1 0x0 DUP2 PUSH1 0x1 SIGNEXTEND SWAP1 POP SWAP2 SWAP1 POP JUMP JUMPDEST PUSH2 0x65D6 DUP2 PUSH2 0x65C0 JUMP JUMPDEST DUP2 EQ PUSH2 0x65E1 JUMPI PUSH1 0x0 DUP1 REVERT JUMPDEST POP JUMP JUMPDEST PUSH1 0x0 DUP2 CALLDATALOAD SWAP1 POP PUSH2 0x65F3 DUP2 PUSH2 0x65CD JUMP JUMPDEST SWAP3 SWAP2 POP POP JUMP JUMPDEST PUSH1 0x0 PUSH1 0x20 DUP3 DUP5 SUB SLT ISZERO PUSH2 0x660F JUMPI PUSH2 0x660E PUSH2 0x5D61 JUMP JUMPDEST JUMPDEST PUSH1 0x0 PUSH2 0x661D DUP5 DUP3 DUP6 ADD PUSH2 0x65E4 JUMP JUMPDEST SWAP2 POP POP SWAP3 SWAP2 POP POP JUMP JUMPDEST PUSH2 0x662F DUP2 PUSH2 0x5EE7 JUMP JUMPDEST DUP3 MSTORE POP POP JUMP JUMPDEST PUSH1 0x0 PUSH2 0xFFFF DUP3 AND SWAP1 POP SWAP2 SWAP1 POP JUMP JUMPDEST PUSH2 0x664C DUP2 PUSH2 0x6635 JUMP JUMPDEST DUP3 MSTORE POP POP JUMP JUMPDEST PUSH1 0x0 PUSH1 0xE0 DUP3 ADD SWAP1 POP PUSH2 0x6667 PUSH1 0x0 DUP4 ADD DUP11 PUSH2 0x5E78 JUMP JUMPDEST PUSH2 0x6674 PUSH1 0x20 DUP4 ADD DUP10 PUSH2 0x6626 JUMP JUMPDEST PUSH2 0x6681 PUSH1 0x40 DUP4 ADD DUP9 PUSH2 0x6643 JUMP JUMPDEST PUSH2 0x668E PUSH1 0x60 DUP4 ADD DUP8 PUSH2 0x6643 JUMP JUMPDEST PUSH2 0x669B PUSH1 0x80 DUP4 ADD DUP7 PUSH2 0x6643 JUMP JUMPDEST PUSH2 0x66A8 PUSH1 0xA0 DUP4 ADD DUP6 PUSH2 0x6340 JUMP JUMPDEST PUSH2 0x66B5 PUSH1 0xC0 DUP4 ADD DUP5 PUSH2 0x5E93 JUMP JUMPDEST SWAP9 SWAP8 POP POP POP POP POP POP POP POP JUMP JUMPDEST PUSH1 0x0 DUP1 PUSH1 0x0 DUP1 PUSH1 0x0 DUP1 PUSH1 0xA0 DUP8 DUP10 SUB SLT ISZERO PUSH2 0x66DE JUMPI PUSH2 0x66DD PUSH2 0x5D61 JUMP JUMPDEST JUMPDEST PUSH1 0x0 PUSH2 0x66EC DUP10 DUP3 DUP11 ADD PUSH2 0x6052 JUMP JUMPDEST SWAP7 POP POP PUSH1 0x20 PUSH2 0x66FD DUP10 DUP3 DUP11 ADD PUSH2 0x6052 JUMP JUMPDEST SWAP6 POP POP PUSH1 0x40 PUSH2 0x670E DUP10 DUP3 DUP11 ADD PUSH2 0x5DFB JUMP JUMPDEST SWAP5 POP POP PUSH1 0x60 PUSH2 0x671F DUP10 DUP3 DUP11 ADD PUSH2 0x5DFB JUMP JUMPDEST SWAP4 POP POP PUSH1 0x80 DUP8 ADD CALLDATALOAD PUSH8 0xFFFFFFFFFFFFFFFF DUP2 GT ISZERO PUSH2 0x6740 JUMPI PUSH2 0x673F PUSH2 0x5D66 JUMP JUMPDEST JUMPDEST PUSH2 0x674C DUP10 DUP3 DUP11 ADD PUSH2 0x60A2 JUMP JUMPDEST SWAP3 POP SWAP3 POP POP SWAP3 SWAP6 POP SWAP3 SWAP6 POP SWAP3 SWAP6 JUMP JUMPDEST PUSH1 0x0 PUSH1 0x20 DUP3 ADD SWAP1 POP PUSH2 0x6770 PUSH1 0x0 DUP4 ADD DUP5 PUSH2 0x6626 JUMP JUMPDEST SWAP3 SWAP2 POP POP JUMP JUMPDEST PUSH1 0x0 PUSH1 0x20 DUP3 ADD SWAP1 POP PUSH2 0x678B PUSH1 0x0 DUP4 ADD DUP5 PUSH2 0x5E93 JUMP JUMPDEST SWAP3 SWAP2 POP POP JUMP JUMPDEST PUSH1 0x0 DUP1 PUSH1 0x0 PUSH1 0x60 DUP5 DUP7 SUB SLT ISZERO PUSH2 0x67AA JUMPI PUSH2 0x67A9 PUSH2 0x5D61 JUMP JUMPDEST JUMPDEST PUSH1 0x0 PUSH2 0x67B8 DUP7 DUP3 DUP8 ADD PUSH2 0x5F0B JUMP JUMPDEST SWAP4 POP POP PUSH1 0x20 PUSH2 0x67C9 DUP7 DUP3 DUP8 ADD PUSH2 0x5F0B JUMP JUMPDEST SWAP3 POP POP PUSH1 0x40 PUSH2 0x67DA DUP7 DUP3 DUP8 ADD PUSH2 0x607E JUMP JUMPDEST SWAP2 POP POP SWAP3 POP SWAP3 POP SWAP3 JUMP JUMPDEST PUSH1 0x0 DUP1 PUSH1 0x40 DUP4 DUP6 SUB SLT ISZERO PUSH2 0x67FB JUMPI PUSH2 0x67FA PUSH2 0x5D61 JUMP JUMPDEST JUMPDEST PUSH1 0x0 PUSH2 0x6809 DUP6 DUP3 DUP7 ADD PUSH2 0x5F0B JUMP JUMPDEST SWAP3 POP POP PUSH1 0x20 PUSH2 0x681A DUP6 DUP3 DUP7 ADD PUSH2 0x5F0B JUMP JUMPDEST SWAP2 POP POP SWAP3 POP SWAP3 SWAP1 POP JUMP JUMPDEST PUSH1 0x0 PUSH1 0x60 DUP3 ADD SWAP1 POP PUSH2 0x6839 PUSH1 0x0 DUP4 ADD DUP7 PUSH2 0x5E69 JUMP JUMPDEST PUSH2 0x6846 PUSH1 0x20 DUP4 ADD DUP6 PUSH2 0x5E78 JUMP JUMPDEST PUSH2 0x6853 PUSH1 0x40 DUP4 ADD DUP5 PUSH2 0x5E4D JUMP JUMPDEST SWAP5 SWAP4 POP POP POP POP JUMP JUMPDEST PUSH2 0x6864 DUP2 PUSH2 0x5E87 JUMP JUMPDEST DUP2 EQ PUSH2 0x686F JUMPI PUSH1 0x0 DUP1 REVERT JUMPDEST POP JUMP JUMPDEST PUSH1 0x0 DUP2 CALLDATALOAD SWAP1 POP PUSH2 0x6881 DUP2 PUSH2 0x685B JUMP JUMPDEST SWAP3 SWAP2 POP POP JUMP JUMPDEST PUSH1 0x0 DUP2 SWAP1 POP SWAP2 SWAP1 POP JUMP JUMPDEST PUSH2 0x689A DUP2 PUSH2 0x6887 JUMP JUMPDEST DUP2 EQ PUSH2 0x68A5 JUMPI PUSH1 0x0 DUP1 REVERT JUMPDEST POP JUMP JUMPDEST PUSH1 0x0 DUP2 CALLDATALOAD SWAP1 POP PUSH2 0x68B7 DUP2 PUSH2 0x6891 JUMP JUMPDEST SWAP3 SWAP2 POP POP JUMP JUMPDEST PUSH2 0x68C6 DUP2 PUSH2 0x5D05 JUMP JUMPDEST DUP2 EQ PUSH2 0x68D1 JUMPI PUSH1 0x0 DUP1 REVERT JUMPDEST POP JUMP JUMPDEST PUSH1 0x0 DUP2 CALLDATALOAD SWAP1 POP PUSH2 0x68E3 DUP2 PUSH2 0x68BD JUMP JUMPDEST SWAP3 SWAP2 POP POP JUMP JUMPDEST PUSH1 0x0 DUP1 PUSH1 0x0 DUP1 PUSH1 0x0 DUP1 PUSH1 0x0 PUSH1 0xC0 DUP9 DUP11 SUB SLT ISZERO PUSH2 0x6908 JUMPI PUSH2 0x6907 PUSH2 0x5D61 JUMP JUMPDEST JUMPDEST PUSH1 0x0 PUSH2 0x6916 DUP11 DUP3 DUP12 ADD PUSH2 0x6052 JUMP JUMPDEST SWAP8 POP POP PUSH1 0x20 PUSH2 0x6927 DUP11 DUP3 DUP12 ADD PUSH2 0x6052 JUMP JUMPDEST SWAP7 POP POP PUSH1 0x40 PUSH2 0x6938 DUP11 DUP3 DUP12 ADD PUSH2 0x6872 JUMP JUMPDEST SWAP6 POP POP PUSH1 0x60 PUSH2 0x6949 DUP11 DUP3 DUP12 ADD PUSH2 0x68A8 JUMP JUMPDEST SWAP5 POP POP PUSH1 0x80 PUSH2 0x695A DUP11 DUP3 DUP12 ADD PUSH2 0x68D4 JUMP JUMPDEST SWAP4 POP POP PUSH1 0xA0 DUP9 ADD CALLDATALOAD PUSH8 0xFFFFFFFFFFFFFFFF DUP2 GT ISZERO PUSH2 0x697B JUMPI PUSH2 0x697A PUSH2 0x5D66 JUMP JUMPDEST JUMPDEST PUSH2 0x6987 DUP11 DUP3 DUP12 ADD PUSH2 0x60A2 JUMP JUMPDEST SWAP3 POP SWAP3 POP POP SWAP3 SWAP6 SWAP9 SWAP2 SWAP5 SWAP8 POP SWAP3 SWAP6 POP JUMP JUMPDEST PUSH2 0x69A1 DUP2 PUSH2 0x6887 JUMP JUMPDEST DUP3 MSTORE POP POP JUMP JUMPDEST PUSH1 0x0 PUSH1 0x40 DUP3 ADD SWAP1 POP PUSH2 0x69BC PUSH1 0x0 DUP4 ADD DUP6 PUSH2 0x6998 JUMP JUMPDEST PUSH2 0x69C9 PUSH1 0x20 DUP4 ADD DUP5 PUSH2 0x6998 JUMP JUMPDEST SWAP4 SWAP3 POP POP POP JUMP JUMPDEST PUSH1 0x0 PUSH1 0x80 DUP3 ADD SWAP1 POP PUSH2 0x69E5 PUSH1 0x0 DUP4 ADD DUP8 PUSH2 0x6340 JUMP JUMPDEST PUSH2 0x69F2 PUSH1 0x20 DUP4 ADD DUP7 PUSH2 0x6340 JUMP JUMPDEST PUSH2 0x69FF PUSH1 0x40 DUP4 ADD DUP6 PUSH2 0x6340 JUMP JUMPDEST PUSH2 0x6A0C PUSH1 0x60 DUP4 ADD DUP5 PUSH2 0x6340 JUMP JUMPDEST SWAP6 SWAP5 POP POP POP POP POP JUMP JUMPDEST PUSH2 0x6A1E DUP2 PUSH2 0x6635 JUMP JUMPDEST DUP2 EQ PUSH2 0x6A29 JUMPI PUSH1 0x0 DUP1 REVERT JUMPDEST POP JUMP JUMPDEST PUSH1 0x0 DUP2 CALLDATALOAD SWAP1 POP PUSH2 0x6A3B DUP2 PUSH2 0x6A15 JUMP JUMPDEST SWAP3 SWAP2 POP POP JUMP JUMPDEST PUSH1 0x0 PUSH1 0x20 DUP3 DUP5 SUB SLT ISZERO PUSH2 0x6A57 JUMPI PUSH2 0x6A56 PUSH2 0x5D61 JUMP JUMPDEST JUMPDEST PUSH1 0x0 PUSH2 0x6A65 DUP5 DUP3 DUP6 ADD PUSH2 0x6A2C JUMP JUMPDEST SWAP2 POP POP SWAP3 SWAP2 POP POP JUMP JUMPDEST PUSH1 0x0 DUP1 PUSH1 0x0 DUP1 PUSH1 0x80 DUP6 DUP8 SUB SLT ISZERO PUSH2 0x6A88 JUMPI PUSH2 0x6A87 PUSH2 0x5D61 JUMP JUMPDEST JUMPDEST PUSH1 0x0 PUSH2 0x6A96 DUP8 DUP3 DUP9 ADD PUSH2 0x5D8F JUMP JUMPDEST SWAP5 POP POP PUSH1 0x20 PUSH2 0x6AA7 DUP8 DUP3 DUP9 ADD PUSH2 0x5D8F JUMP JUMPDEST SWAP4 POP POP PUSH1 0x40 PUSH2 0x6AB8 DUP8 DUP3 DUP9 ADD PUSH2 0x5D8F JUMP JUMPDEST SWAP3 POP POP PUSH1 0x60 PUSH2 0x6AC9 DUP8 DUP3 DUP9 ADD PUSH2 0x5D8F JUMP JUMPDEST SWAP2 POP POP SWAP3 SWAP6 SWAP2 SWAP5 POP SWAP3 POP JUMP JUMPDEST PUSH1 0x0 PUSH1 0x20 DUP3 DUP5 SUB SLT ISZERO PUSH2 0x6AEB JUMPI PUSH2 0x6AEA PUSH2 0x5D61 JUMP JUMPDEST JUMPDEST PUSH1 0x0 PUSH2 0x6AF9 DUP5 DUP3 DUP6 ADD PUSH2 0x68D4 JUMP JUMPDEST SWAP2 POP POP SWAP3 SWAP2 POP POP JUMP JUMPDEST PUSH1 0x0 DUP3 DUP3 MSTORE PUSH1 0x20 DUP3 ADD SWAP1 POP SWAP3 SWAP2 POP POP JUMP JUMPDEST PUSH32 0x4C4F4B0000000000000000000000000000000000000000000000000000000000 PUSH1 0x0 DUP3 ADD MSTORE POP JUMP JUMPDEST PUSH1 0x0 PUSH2 0x6B49 PUSH1 0x3 DUP4 PUSH2 0x6B02 JUMP JUMPDEST SWAP2 POP PUSH2 0x6B54 DUP3 PUSH2 0x6B13 JUMP JUMPDEST PUSH1 0x20 DUP3 ADD SWAP1 POP SWAP2 SWAP1 POP JUMP JUMPDEST PUSH1 0x0 PUSH1 0x20 DUP3 ADD SWAP1 POP DUP2 DUP2 SUB PUSH1 0x0 DUP4 ADD MSTORE PUSH2 0x6B78 DUP2 PUSH2 0x6B3C JUMP JUMPDEST SWAP1 POP SWAP2 SWAP1 POP JUMP JUMPDEST PUSH1 0x0 DUP2 MLOAD SWAP1 POP PUSH2 0x6B8E DUP2 PUSH2 0x685B JUMP JUMPDEST SWAP3 SWAP2 POP POP JUMP JUMPDEST PUSH1 0x0 PUSH1 0x20 DUP3 DUP5 SUB SLT ISZERO PUSH2 0x6BAA JUMPI PUSH2 0x6BA9 PUSH2 0x5D61 JUMP JUMPDEST JUMPDEST PUSH1 0x0 PUSH2 0x6BB8 DUP5 DUP3 DUP6 ADD PUSH2 0x6B7F JUMP JUMPDEST SWAP2 POP POP SWAP3 SWAP2 POP POP JUMP JUMPDEST PUSH32 0x4E487B7100000000000000000000000000000000000000000000000000000000 PUSH1 0x0 MSTORE PUSH1 0x11 PUSH1 0x4 MSTORE PUSH1 0x24 PUSH1 0x0 REVERT JUMPDEST PUSH1 0x0 PUSH2 0x6BFB DUP3 PUSH2 0x5D6B JUMP JUMPDEST SWAP2 POP PUSH2 0x6C06 DUP4 PUSH2 0x5D6B JUMP JUMPDEST SWAP3 POP DUP3 DUP3 ADD SWAP1 POP PUSH1 0xFF DUP2 GT ISZERO PUSH2 0x6C1F JUMPI PUSH2 0x6C1E PUSH2 0x6BC1 JUMP JUMPDEST JUMPDEST SWAP3 SWAP2 POP POP JUMP JUMPDEST PUSH32 0x4E487B7100000000000000000000000000000000000000000000000000000000 PUSH1 0x0 MSTORE PUSH1 0x12 PUSH1 0x4 MSTORE PUSH1 0x24 PUSH1 0x0 REVERT JUMPDEST PUSH1 0x0 PUSH2 0x6C5F DUP3 PUSH2 0x5D6B JUMP JUMPDEST SWAP2 POP PUSH2 0x6C6A DUP4 PUSH2 0x5D6B JUMP JUMPDEST SWAP3 POP DUP3 PUSH2 0x6C7A JUMPI PUSH2 0x6C79 PUSH2 0x6C25 JUMP JUMPDEST JUMPDEST DUP3 DUP3 MOD SWAP1 POP SWAP3 SWAP2 POP POP JUMP JUMPDEST PUSH32 0x4D30000000000000000000000000000000000000000000000000000000000000 PUSH1 0x0 DUP3 ADD MSTORE POP JUMP JUMPDEST PUSH1 0x0 PUSH2 0x6CBB PUSH1 0x2 DUP4 PUSH2 0x6B02 JUMP JUMPDEST SWAP2 POP PUSH2 0x6CC6 DUP3 PUSH2 0x6C85 JUMP JUMPDEST PUSH1 0x20 DUP3 ADD SWAP1 POP SWAP2 SWAP1 POP JUMP JUMPDEST PUSH1 0x0 PUSH1 0x20 DUP3 ADD SWAP1 POP DUP2 DUP2 SUB PUSH1 0x0 DUP4 ADD MSTORE PUSH2 0x6CEA DUP2 PUSH2 0x6CAE JUMP JUMPDEST SWAP1 POP SWAP2 SWAP1 POP JUMP JUMPDEST PUSH32 0x4D31000000000000000000000000000000000000000000000000000000000000 PUSH1 0x0 DUP3 ADD MSTORE POP JUMP JUMPDEST PUSH1 0x0 PUSH2 0x6D27 PUSH1 0x2 DUP4 PUSH2 0x6B02 JUMP JUMPDEST SWAP2 POP PUSH2 0x6D32 DUP3 PUSH2 0x6CF1 JUMP JUMPDEST PUSH1 0x20 DUP3 ADD SWAP1 POP SWAP2 SWAP1 POP JUMP JUMPDEST PUSH1 0x0 PUSH1 0x20 DUP3 ADD SWAP1 POP DUP2 DUP2 SUB PUSH1 0x0 DUP4 ADD MSTORE PUSH2 0x6D56 DUP2 PUSH2 0x6D1A JUMP JUMPDEST SWAP1 POP SWAP2 SWAP1 POP JUMP JUMPDEST PUSH1 0x0 PUSH1 0x80 DUP3 ADD SWAP1 POP PUSH2 0x6D72 PUSH1 0x0 DUP4 ADD DUP8 PUSH2 0x5D37 JUMP JUMPDEST PUSH2 0x6D7F PUSH1 0x20 DUP4 ADD DUP7 PUSH2 0x5F69 JUMP JUMPDEST PUSH2 0x6D8C PUSH1 0x40 DUP4 ADD DUP6 PUSH2 0x5CDB JUMP JUMPDEST PUSH2 0x6D99 PUSH1 0x60 DUP4 ADD DUP5 PUSH2 0x5CDB JUMP JUMPDEST SWAP6 SWAP5 POP POP POP POP POP JUMP JUMPDEST PUSH1 0x0 PUSH2 0x6DAD DUP3 PUSH2 0x5F4D JUMP JUMPDEST SWAP2 POP PUSH2 0x6DB8 DUP4 PUSH2 0x5F4D JUMP JUMPDEST SWAP3 POP DUP3 DUP3 SUB SWAP1 POP PUSH16 0xFFFFFFFFFFFFFFFFFFFFFFFFFFFFFFFF DUP2 GT ISZERO PUSH2 0x6DE0 JUMPI PUSH2 0x6DDF PUSH2 0x6BC1 JUMP JUMPDEST JUMPDEST SWAP3 SWAP2 POP POP JUMP JUMPDEST PUSH1 0x0 PUSH1 0x60 DUP3 ADD SWAP1 POP PUSH2 0x6DFB PUSH1 0x0 DUP4 ADD DUP7 PUSH2 0x5D37 JUMP JUMPDEST PUSH2 0x6E08 PUSH1 0x20 DUP4 ADD DUP6 PUSH2 0x5F69 JUMP JUMPDEST PUSH2 0x6E15 PUSH1 0x40 DUP4 ADD DUP5 PUSH2 0x5F69 JUMP JUMPDEST SWAP5 SWAP4 POP POP POP POP JUMP JUMPDEST PUSH1 0x0 PUSH2 0x6E28 DUP3 PUSH2 0x5F78 JUMP JUMPDEST SWAP2 POP PUSH32 0xFFFFFFFFFFFFFFFFFFFFFFFFFFFFFFFF80000000000000000000000000000000 DUP3 SUB PUSH2 0x6E5A JUMPI PUSH2 0x6E59 PUSH2 0x6BC1 JUMP JUMPDEST JUMPDEST DUP2 PUSH1 0x0 SUB SWAP1 POP SWAP2 SWAP1 POP JUMP JUMPDEST PUSH1 0x0 PUSH2 0x6E70 DUP3 PUSH2 0x6887 JUMP JUMPDEST SWAP2 POP PUSH32 0x8000000000000000000000000000000000000000000000000000000000000000 DUP3 SUB PUSH2 0x6EA2 JUMPI PUSH2 0x6EA1 PUSH2 0x6BC1 JUMP JUMPDEST JUMPDEST DUP2 PUSH1 0x0 SUB SWAP1 POP SWAP2 SWAP1 POP JUMP JUMPDEST PUSH1 0x0 PUSH2 0x6EB8 DUP3 PUSH2 0x5F4D JUMP JUMPDEST SWAP2 POP PUSH2 0x6EC3 DUP4 PUSH2 0x5F4D JUMP JUMPDEST SWAP3 POP DUP3 DUP3 ADD SWAP1 POP PUSH16 0xFFFFFFFFFFFFFFFFFFFFFFFFFFFFFFFF DUP2 GT ISZERO PUSH2 0x6EEB JUMPI PUSH2 0x6EEA PUSH2 0x6BC1 JUMP JUMPDEST JUMPDEST SWAP3 SWAP2 POP POP JUMP JUMPDEST PUSH1 0x0 PUSH1 0x60 DUP3 ADD SWAP1 POP PUSH2 0x6F06 PUSH1 0x0 DUP4 ADD DUP7 PUSH2 0x5F69 JUMP JUMPDEST PUSH2 0x6F13 PUSH1 0x20 DUP4 ADD DUP6 PUSH2 0x5CDB JUMP JUMPDEST PUSH2 0x6F20 PUSH1 0x40 DUP4 ADD DUP5 PUSH2 0x5CDB JUMP JUMPDEST SWAP5 SWAP4 POP POP POP POP JUMP JUMPDEST PUSH1 0x0 PUSH2 0x6F33 DUP3 PUSH2 0x5E5C JUMP JUMPDEST SWAP2 POP PUSH2 0x6F3E DUP4 PUSH2 0x5E5C JUMP JUMPDEST SWAP3 POP DUP3 DUP3 SUB SWAP1 POP PUSH7 0x7FFFFFFFFFFFFF DUP2 SGT PUSH32 0xFFFFFFFFFFFFFFFFFFFFFFFFFFFFFFFFFFFFFFFFFFFFFFFFFF80000000000000 DUP3 SLT OR ISZERO PUSH2 0x6F81 JUMPI PUSH2 0x6F80 PUSH2 0x6BC1 JUMP JUMPDEST JUMPDEST SWAP3 SWAP2 POP POP JUMP JUMPDEST PUSH1 0x0 PUSH2 0x6F92 DUP3 PUSH2 0x5D05 JUMP JUMPDEST SWAP2 POP PUSH2 0x6F9D DUP4 PUSH2 0x5D05 JUMP JUMPDEST SWAP3 POP DUP3 DUP3 SUB SWAP1 POP PUSH20 0xFFFFFFFFFFFFFFFFFFFFFFFFFFFFFFFFFFFFFFFF DUP2 GT ISZERO PUSH2 0x6FC9 JUMPI PUSH2 0x6FC8 PUSH2 0x6BC1 JUMP JUMPDEST JUMPDEST SWAP3 SWAP2 POP POP JUMP JUMPDEST PUSH1 0x0 PUSH2 0x6FDA DUP3 PUSH2 0x5E3D JUMP JUMPDEST SWAP2 POP PUSH2 0x6FE5 DUP4 PUSH2 0x5E3D JUMP JUMPDEST SWAP3 POP DUP3 DUP3 SUB SWAP1 POP PUSH4 0xFFFFFFFF DUP2 GT ISZERO PUSH2 0x7001 JUMPI PUSH2 0x7000 PUSH2 0x6BC1 JUMP JUMPDEST JUMPDEST SWAP3 SWAP2 POP POP JUMP JUMPDEST PUSH1 0x0 PUSH1 0x40 DUP3 ADD SWAP1 POP PUSH2 0x701C PUSH1 0x0 DUP4 ADD DUP6 PUSH2 0x6643 JUMP JUMPDEST PUSH2 0x7029 PUSH1 0x20 DUP4 ADD DUP5 PUSH2 0x6643 JUMP JUMPDEST SWAP4 SWAP3 POP POP POP JUMP JUMPDEST PUSH32 0x70726F666974736861726520636F6E666967206572726F720000000000000000 PUSH1 0x0 DUP3 ADD MSTORE POP JUMP JUMPDEST PUSH1 0x0 PUSH2 0x7066 PUSH1 0x18 DUP4 PUSH2 0x6B02 JUMP JUMPDEST SWAP2 POP PUSH2 0x7071 DUP3 PUSH2 0x7030 JUMP JUMPDEST PUSH1 0x20 DUP3 ADD SWAP1 POP SWAP2 SWAP1 POP JUMP JUMPDEST PUSH1 0x0 PUSH1 0x20 DUP3 ADD SWAP1 POP DUP2 DUP2 SUB PUSH1 0x0 DUP4 ADD MSTORE PUSH2 0x7095 DUP2 PUSH2 0x7059 JUMP JUMPDEST SWAP1 POP SWAP2 SWAP1 POP JUMP JUMPDEST PUSH32 0x4149000000000000000000000000000000000000000000000000000000000000 PUSH1 0x0 DUP3 ADD MSTORE POP JUMP JUMPDEST PUSH1 0x0 PUSH2 0x70D2 PUSH1 0x2 DUP4 PUSH2 0x6B02 JUMP JUMPDEST SWAP2 POP PUSH2 0x70DD DUP3 PUSH2 0x709C JUMP JUMPDEST PUSH1 0x20 DUP3 ADD SWAP1 POP SWAP2 SWAP1 POP JUMP JUMPDEST PUSH1 0x0 PUSH1 0x20 DUP3 ADD SWAP1 POP DUP2 DUP2 SUB PUSH1 0x0 DUP4 ADD MSTORE PUSH2 0x7101 DUP2 PUSH2 0x70C5 JUMP JUMPDEST SWAP1 POP SWAP2 SWAP1 POP JUMP JUMPDEST PUSH1 0x0 PUSH1 0x40 DUP3 ADD SWAP1 POP PUSH2 0x711D PUSH1 0x0 DUP4 ADD DUP6 PUSH2 0x5E78 JUMP JUMPDEST PUSH2 0x712A PUSH1 0x20 DUP4 ADD DUP5 PUSH2 0x6626 JUMP JUMPDEST SWAP4 SWAP3 POP POP POP JUMP JUMPDEST PUSH1 0x0 PUSH2 0x713C DUP3 PUSH2 0x5EE7 JUMP JUMPDEST SWAP2 POP PUSH2 0x7147 DUP4 PUSH2 0x5EE7 JUMP JUMPDEST SWAP3 POP DUP3 PUSH2 0x7157 JUMPI PUSH2 0x7156 PUSH2 0x6C25 JUMP JUMPDEST JUMPDEST PUSH1 0x1 PUSH1 0x0 SUB DUP4 EQ PUSH32 0xFFFFFFFFFFFFFFFFFFFFFFFFFFFFFFFFFFFFFFFFFFFFFFFFFFFFFFFFFF800000 DUP4 EQ AND ISZERO PUSH2 0x7190 JUMPI PUSH2 0x718F PUSH2 0x6BC1 JUMP JUMPDEST JUMPDEST DUP3 DUP3 SDIV SWAP1 POP SWAP3 SWAP2 POP POP JUMP JUMPDEST PUSH1 0x0 PUSH2 0x71A6 DUP3 PUSH2 0x5EE7 JUMP JUMPDEST SWAP2 POP PUSH2 0x71B1 DUP4 PUSH2 0x5EE7 JUMP JUMPDEST SWAP3 POP DUP3 DUP3 MUL PUSH2 0x71BF DUP2 PUSH2 0x5EE7 JUMP JUMPDEST SWAP2 POP DUP1 DUP3 EQ PUSH2 0x71D1 JUMPI PUSH2 0x71D0 PUSH2 0x6BC1 JUMP JUMPDEST JUMPDEST POP SWAP3 SWAP2 POP POP JUMP JUMPDEST PUSH1 0x0 PUSH2 0x71E3 DUP3 PUSH2 0x5EE7 JUMP JUMPDEST SWAP2 POP PUSH32 0xFFFFFFFFFFFFFFFFFFFFFFFFFFFFFFFFFFFFFFFFFFFFFFFFFFFFFFFFFF800000 DUP3 SUB PUSH2 0x7215 JUMPI PUSH2 0x7214 PUSH2 0x6BC1 JUMP JUMPDEST JUMPDEST DUP2 PUSH1 0x0 SUB SWAP1 POP SWAP2 SWAP1 POP JUMP JUMPDEST PUSH1 0x0 PUSH2 0x722B DUP3 PUSH2 0x5EE7 JUMP JUMPDEST SWAP2 POP PUSH2 0x7236 DUP4 PUSH2 0x5EE7 JUMP JUMPDEST SWAP3 POP DUP3 DUP3 SUB SWAP1 POP PUSH3 0x7FFFFF DUP2 SGT PUSH32 0xFFFFFFFFFFFFFFFFFFFFFFFFFFFFFFFFFFFFFFFFFFFFFFFFFFFFFFFFFF800000 DUP3 SLT OR ISZERO PUSH2 0x7275 JUMPI PUSH2 0x7274 PUSH2 0x6BC1 JUMP JUMPDEST JUMPDEST SWAP3 SWAP2 POP POP JUMP JUMPDEST PUSH1 0x0 PUSH2 0x7286 DUP3 PUSH2 0x62EC JUMP JUMPDEST SWAP2 POP PUSH2 0x7291 DUP4 PUSH2 0x62EC JUMP JUMPDEST SWAP3 POP DUP3 DUP3 ADD SWAP1 POP PUSH3 0xFFFFFF DUP2 GT ISZERO PUSH2 0x72AC JUMPI PUSH2 0x72AB PUSH2 0x6BC1 JUMP JUMPDEST JUMPDEST SWAP3 SWAP2 POP POP JUMP JUMPDEST PUSH1 0x0 PUSH2 0x72BD DUP3 PUSH2 0x5F4D JUMP JUMPDEST SWAP2 POP PUSH2 0x72C8 DUP4 PUSH2 0x5F4D JUMP JUMPDEST SWAP3 POP DUP3 PUSH2 0x72D8 JUMPI PUSH2 0x72D7 PUSH2 0x6C25 JUMP JUMPDEST JUMPDEST DUP3 DUP3 DIV SWAP1 POP SWAP3 SWAP2 POP POP JUMP JUMPDEST PUSH1 0x0 DUP2 MLOAD SWAP1 POP SWAP2 SWAP1 POP JUMP JUMPDEST PUSH1 0x0 DUP2 SWAP1 POP SWAP3 SWAP2 POP POP JUMP JUMPDEST PUSH1 0x0 JUMPDEST DUP4 DUP2 LT ISZERO PUSH2 0x7317 JUMPI DUP1 DUP3 ADD MLOAD DUP2 DUP5 ADD MSTORE PUSH1 0x20 DUP2 ADD SWAP1 POP PUSH2 0x72FC JUMP JUMPDEST PUSH1 0x0 DUP5 DUP5 ADD MSTORE POP POP POP POP JUMP JUMPDEST PUSH1 0x0 PUSH2 0x732E DUP3 PUSH2 0x72E3 JUMP JUMPDEST PUSH2 0x7338 DUP2 DUP6 PUSH2 0x72EE JUMP JUMPDEST SWAP4 POP PUSH2 0x7348 DUP2 DUP6 PUSH1 0x20 DUP7 ADD PUSH2 0x72F9 JUMP JUMPDEST DUP1 DUP5 ADD SWAP2 POP POP SWAP3 SWAP2 POP POP JUMP JUMPDEST PUSH1 0x0 PUSH2 0x7360 DUP3 DUP5 PUSH2 0x7323 JUMP JUMPDEST SWAP2 POP DUP2 SWAP1 POP SWAP3 SWAP2 POP POP JUMP JUMPDEST PUSH1 0x0 DUP2 MLOAD SWAP1 POP PUSH2 0x737A DUP2 PUSH2 0x5DE4 JUMP JUMPDEST SWAP3 SWAP2 POP POP JUMP JUMPDEST PUSH1 0x0 PUSH1 0x20 DUP3 DUP5 SUB SLT ISZERO PUSH2 0x7396 JUMPI PUSH2 0x7395 PUSH2 0x5D61 JUMP JUMPDEST JUMPDEST PUSH1 0x0 PUSH2 0x73A4 DUP5 DUP3 DUP6 ADD PUSH2 0x736B JUMP JUMPDEST SWAP2 POP POP SWAP3 SWAP2 POP POP JUMP JUMPDEST PUSH1 0x0 PUSH2 0x73B8 DUP3 PUSH2 0x5CD1 JUMP JUMPDEST SWAP2 POP PUSH2 0x73C3 DUP4 PUSH2 0x5CD1 JUMP JUMPDEST SWAP3 POP DUP3 DUP3 ADD SWAP1 POP DUP1 DUP3 GT ISZERO PUSH2 0x73DB JUMPI PUSH2 0x73DA PUSH2 0x6BC1 JUMP JUMPDEST JUMPDEST SWAP3 SWAP2 POP POP JUMP JUMPDEST PUSH1 0x0 DUP2 PUSH1 0x60 SHL SWAP1 POP SWAP2 SWAP1 POP JUMP JUMPDEST PUSH1 0x0 PUSH2 0x73F9 DUP3 PUSH2 0x73E1 JUMP JUMPDEST SWAP1 POP SWAP2 SWAP1 POP JUMP JUMPDEST PUSH1 0x0 PUSH2 0x740B DUP3 PUSH2 0x73EE JUMP JUMPDEST SWAP1 POP SWAP2 SWAP1 POP JUMP JUMPDEST PUSH2 0x7423 PUSH2 0x741E DUP3 PUSH2 0x5D25 JUMP JUMPDEST PUSH2 0x7400 JUMP JUMPDEST DUP3 MSTORE POP POP JUMP JUMPDEST PUSH1 0x0 DUP2 PUSH1 0xE8 SHL SWAP1 POP SWAP2 SWAP1 POP JUMP JUMPDEST PUSH1 0x0 PUSH2 0x7441 DUP3 PUSH2 0x7429 JUMP JUMPDEST SWAP1 POP SWAP2 SWAP1 POP JUMP JUMPDEST PUSH2 0x7459 PUSH2 0x7454 DUP3 PUSH2 0x5EE7 JUMP JUMPDEST PUSH2 0x7436 JUMP JUMPDEST DUP3 MSTORE POP POP JUMP JUMPDEST PUSH1 0x0 PUSH2 0x746B DUP3 DUP7 PUSH2 0x7412 JUMP JUMPDEST PUSH1 0x14 DUP3 ADD SWAP2 POP PUSH2 0x747B DUP3 DUP6 PUSH2 0x7448 JUMP JUMPDEST PUSH1 0x3 DUP3 ADD SWAP2 POP PUSH2 0x748B DUP3 DUP5 PUSH2 0x7448 JUMP JUMPDEST PUSH1 0x3 DUP3 ADD SWAP2 POP DUP2 SWAP1 POP SWAP5 SWAP4 POP POP POP POP JUMP JUMPDEST PUSH1 0x0 PUSH1 0x40 DUP3 ADD SWAP1 POP PUSH2 0x74B1 PUSH1 0x0 DUP4 ADD DUP6 PUSH2 0x5D37 JUMP JUMPDEST PUSH2 0x74BE PUSH1 0x20 DUP4 ADD DUP5 PUSH2 0x5CDB JUMP JUMPDEST SWAP4 SWAP3 POP POP POP JUMP JUMPDEST PUSH32 0x5446000000000000000000000000000000000000000000000000000000000000 PUSH1 0x0 DUP3 ADD MSTORE POP JUMP JUMPDEST PUSH1 0x0 PUSH2 0x74FB PUSH1 0x2 DUP4 PUSH2 0x6B02 JUMP JUMPDEST SWAP2 POP PUSH2 0x7506 DUP3 PUSH2 0x74C5 JUMP JUMPDEST PUSH1 0x20 DUP3 ADD SWAP1 POP SWAP2 SWAP1 POP JUMP JUMPDEST PUSH1 0x0 PUSH1 0x20 DUP3 ADD SWAP1 POP DUP2 DUP2 SUB PUSH1 0x0 DUP4 ADD MSTORE PUSH2 0x752A DUP2 PUSH2 0x74EE JUMP JUMPDEST SWAP1 POP SWAP2 SWAP1 POP JUMP JUMPDEST PUSH32 0x4900000000000000000000000000000000000000000000000000000000000000 PUSH1 0x0 DUP3 ADD MSTORE POP JUMP JUMPDEST PUSH1 0x0 PUSH2 0x7567 PUSH1 0x1 DUP4 PUSH2 0x6B02 JUMP JUMPDEST SWAP2 POP PUSH2 0x7572 DUP3 PUSH2 0x7531 JUMP JUMPDEST PUSH1 0x20 DUP3 ADD SWAP1 POP SWAP2 SWAP1 POP JUMP JUMPDEST PUSH1 0x0 PUSH1 0x20 DUP3 ADD SWAP1 POP DUP2 DUP2 SUB PUSH1 0x0 DUP4 ADD MSTORE PUSH2 0x7596 DUP2 PUSH2 0x755A JUMP JUMPDEST SWAP1 POP SWAP2 SWAP1 POP JUMP JUMPDEST PUSH32 0x4E487B7100000000000000000000000000000000000000000000000000000000 PUSH1 0x0 MSTORE PUSH1 0x41 PUSH1 0x4 MSTORE PUSH1 0x24 PUSH1 0x0 REVERT JUMPDEST PUSH32 0x4E487B7100000000000000000000000000000000000000000000000000000000 PUSH1 0x0 MSTORE PUSH1 0x32 PUSH1 0x4 MSTORE PUSH1 0x24 PUSH1 0x0 REVERT JUMPDEST PUSH1 0x0 PUSH2 0x7606 DUP3 PUSH2 0x5CD1 JUMP JUMPDEST SWAP2 POP PUSH32 0xFFFFFFFFFFFFFFFFFFFFFFFFFFFFFFFFFFFFFFFFFFFFFFFFFFFFFFFFFFFFFFFF DUP3 SUB PUSH2 0x7638 JUMPI PUSH2 0x7637 PUSH2 0x6BC1 JUMP JUMPDEST JUMPDEST PUSH1 0x1 DUP3 ADD SWAP1 POP SWAP2 SWAP1 POP JUMP JUMPDEST PUSH32 0x6C6F776572206E6F74206C6F776572206F6620757070657220756E6974000000 PUSH1 0x0 DUP3 ADD MSTORE POP JUMP JUMPDEST PUSH1 0x0 PUSH2 0x7679 PUSH1 0x1D DUP4 PUSH2 0x6B02 JUMP JUMPDEST SWAP2 POP PUSH2 0x7684 DUP3 PUSH2 0x7643 JUMP JUMPDEST PUSH1 0x20 DUP3 ADD SWAP1 POP SWAP2 SWAP1 POP JUMP JUMPDEST PUSH1 0x0 PUSH1 0x20 DUP3 ADD SWAP1 POP DUP2 DUP2 SUB PUSH1 0x0 DUP4 ADD MSTORE PUSH2 0x76A8 DUP2 PUSH2 0x766C JUMP JUMPDEST SWAP1 POP SWAP2 SWAP1 POP JUMP JUMPDEST PUSH32 0x544C4D0000000000000000000000000000000000000000000000000000000000 PUSH1 0x0 DUP3 ADD MSTORE POP JUMP JUMPDEST PUSH1 0x0 PUSH2 0x76E5 PUSH1 0x3 DUP4 PUSH2 0x6B02 JUMP JUMPDEST SWAP2 POP PUSH2 0x76F0 DUP3 PUSH2 0x76AF JUMP JUMPDEST PUSH1 0x20 DUP3 ADD SWAP1 POP SWAP2 SWAP1 POP JUMP JUMPDEST PUSH1 0x0 PUSH1 0x20 DUP3 ADD SWAP1 POP DUP2 DUP2 SUB PUSH1 0x0 DUP4 ADD MSTORE PUSH2 0x7714 DUP2 PUSH2 0x76D8 JUMP JUMPDEST SWAP1 POP SWAP2 SWAP1 POP JUMP JUMPDEST PUSH32 0x54554D0000000000000000000000000000000000000000000000000000000000 PUSH1 0x0 DUP3 ADD MSTORE POP JUMP JUMPDEST PUSH1 0x0 PUSH2 0x7751 PUSH1 0x3 DUP4 PUSH2 0x6B02 JUMP JUMPDEST SWAP2 POP PUSH2 0x775C DUP3 PUSH2 0x771B JUMP JUMPDEST PUSH1 0x20 DUP3 ADD SWAP1 POP SWAP2 SWAP1 POP JUMP JUMPDEST PUSH1 0x0 PUSH1 0x20 DUP3 ADD SWAP1 POP DUP2 DUP2 SUB PUSH1 0x0 DUP4 ADD MSTORE PUSH2 0x7780 DUP2 PUSH2 0x7744 JUMP JUMPDEST SWAP1 POP SWAP2 SWAP1 POP JUMP JUMPDEST PUSH1 0x0 PUSH2 0x7792 DUP3 PUSH2 0x5E5C JUMP JUMPDEST SWAP2 POP PUSH2 0x779D DUP4 PUSH2 0x5E5C JUMP JUMPDEST SWAP3 POP DUP3 PUSH2 0x77AD JUMPI PUSH2 0x77AC PUSH2 0x6C25 JUMP JUMPDEST JUMPDEST PUSH1 0x1 PUSH1 0x0 SUB DUP4 EQ PUSH32 0xFFFFFFFFFFFFFFFFFFFFFFFFFFFFFFFFFFFFFFFFFFFFFFFFFF80000000000000 DUP4 EQ AND ISZERO PUSH2 0x77E6 JUMPI PUSH2 0x77E5 PUSH2 0x6BC1 JUMP JUMPDEST JUMPDEST DUP3 DUP3 SDIV SWAP1 POP SWAP3 SWAP2 POP POP JUMP JUMPDEST PUSH1 0x0 PUSH2 0x77FC DUP3 PUSH2 0x5E5C JUMP JUMPDEST SWAP2 POP PUSH2 0x7807 DUP4 PUSH2 0x5E5C JUMP JUMPDEST SWAP3 POP DUP3 DUP3 MUL PUSH2 0x7815 DUP2 PUSH2 0x5E5C JUMP JUMPDEST SWAP2 POP DUP1 DUP3 EQ PUSH2 0x7827 JUMPI PUSH2 0x7826 PUSH2 0x6BC1 JUMP JUMPDEST JUMPDEST POP SWAP3 SWAP2 POP POP JUMP JUMPDEST PUSH1 0x0 PUSH2 0x7839 DUP3 PUSH2 0x5E5C JUMP JUMPDEST SWAP2 POP PUSH2 0x7844 DUP4 PUSH2 0x5E5C JUMP JUMPDEST SWAP3 POP DUP3 DUP3 ADD SWAP1 POP PUSH32 0xFFFFFFFFFFFFFFFFFFFFFFFFFFFFFFFFFFFFFFFFFFFFFFFFFF80000000000000 DUP2 SLT PUSH7 0x7FFFFFFFFFFFFF DUP3 SGT OR ISZERO PUSH2 0x7887 JUMPI PUSH2 0x7886 PUSH2 0x6BC1 JUMP JUMPDEST JUMPDEST SWAP3 SWAP2 POP POP JUMP JUMPDEST PUSH1 0x0 PUSH2 0x7898 DUP3 PUSH2 0x5D05 JUMP JUMPDEST SWAP2 POP PUSH2 0x78A3 DUP4 PUSH2 0x5D05 JUMP JUMPDEST SWAP3 POP DUP3 DUP3 MUL PUSH2 0x78B1 DUP2 PUSH2 0x5D05 JUMP JUMPDEST SWAP2 POP DUP3 DUP3 DIV DUP5 EQ DUP4 ISZERO OR PUSH2 0x78C8 JUMPI PUSH2 0x78C7 PUSH2 0x6BC1 JUMP JUMPDEST JUMPDEST POP SWAP3 SWAP2 POP POP JUMP JUMPDEST PUSH1 0x0 PUSH2 0x78DA DUP3 PUSH2 0x5D05 JUMP JUMPDEST SWAP2 POP PUSH2 0x78E5 DUP4 PUSH2 0x5D05 JUMP JUMPDEST SWAP3 POP DUP3 PUSH2 0x78F5 JUMPI PUSH2 0x78F4 PUSH2 0x6C25 JUMP JUMPDEST JUMPDEST DUP3 DUP3 DIV SWAP1 POP SWAP3 SWAP2 POP POP JUMP JUMPDEST PUSH1 0x0 PUSH2 0x790B DUP3 PUSH2 0x5D05 JUMP JUMPDEST SWAP2 POP PUSH2 0x7916 DUP4 PUSH2 0x5D05 JUMP JUMPDEST SWAP3 POP DUP3 DUP3 ADD SWAP1 POP PUSH20 0xFFFFFFFFFFFFFFFFFFFFFFFFFFFFFFFFFFFFFFFF DUP2 GT ISZERO PUSH2 0x7942 JUMPI PUSH2 0x7941 PUSH2 0x6BC1 JUMP JUMPDEST JUMPDEST SWAP3 SWAP2 POP POP JUMP JUMPDEST PUSH1 0x0 PUSH2 0x7953 DUP3 PUSH2 0x6635 JUMP JUMPDEST SWAP2 POP PUSH2 0xFFFF DUP3 SUB PUSH2 0x7967 JUMPI PUSH2 0x7966 PUSH2 0x6BC1 JUMP JUMPDEST JUMPDEST PUSH1 0x1 DUP3 ADD SWAP1 POP SWAP2 SWAP1 POP JUMP JUMPDEST PUSH32 0x5200000000000000000000000000000000000000000000000000000000000000 PUSH1 0x0 DUP3 ADD MSTORE POP JUMP JUMPDEST PUSH1 0x0 PUSH2 0x79A8 PUSH1 0x1 DUP4 PUSH2 0x6B02 JUMP JUMPDEST SWAP2 POP PUSH2 0x79B3 DUP3 PUSH2 0x7972 JUMP JUMPDEST PUSH1 0x20 DUP3 ADD SWAP1 POP SWAP2 SWAP1 POP JUMP JUMPDEST PUSH1 0x0 PUSH1 0x20 DUP3 ADD SWAP1 POP DUP2 DUP2 SUB PUSH1 0x0 DUP4 ADD MSTORE PUSH2 0x79D7 DUP2 PUSH2 0x799B JUMP JUMPDEST SWAP1 POP SWAP2 SWAP1 POP JUMP JUMPDEST PUSH1 0x0 PUSH2 0x79E9 DUP3 PUSH2 0x5CD1 JUMP JUMPDEST SWAP2 POP PUSH2 0x79F4 DUP4 PUSH2 0x5CD1 JUMP JUMPDEST SWAP3 POP DUP3 DUP3 SUB SWAP1 POP DUP2 DUP2 GT ISZERO PUSH2 0x7A0C JUMPI PUSH2 0x7A0B PUSH2 0x6BC1 JUMP JUMPDEST JUMPDEST SWAP3 SWAP2 POP POP JUMP JUMPDEST PUSH1 0x0 PUSH2 0x7A1D DUP3 PUSH2 0x6887 JUMP JUMPDEST SWAP2 POP PUSH2 0x7A28 DUP4 PUSH2 0x6887 JUMP JUMPDEST SWAP3 POP DUP3 DUP3 SUB SWAP1 POP DUP2 DUP2 SLT PUSH1 0x0 DUP5 SLT AND DUP3 DUP3 SGT PUSH1 0x0 DUP6 SLT ISZERO AND OR ISZERO PUSH2 0x7A4F JUMPI PUSH2 0x7A4E PUSH2 0x6BC1 JUMP JUMPDEST JUMPDEST SWAP3 SWAP2 POP POP JUMP JUMPDEST PUSH1 0x0 PUSH2 0x7A60 DUP3 PUSH2 0x6887 JUMP JUMPDEST SWAP2 POP PUSH2 0x7A6B DUP4 PUSH2 0x6887 JUMP JUMPDEST SWAP3 POP DUP3 DUP3 MUL PUSH2 0x7A79 DUP2 PUSH2 0x6887 JUMP JUMPDEST SWAP2 POP PUSH32 0x8000000000000000000000000000000000000000000000000000000000000000 DUP5 EQ PUSH1 0x0 DUP5 SLT AND ISZERO PUSH2 0x7AB1 JUMPI PUSH2 0x7AB0 PUSH2 0x6BC1 JUMP JUMPDEST JUMPDEST DUP3 DUP3 SDIV DUP5 EQ DUP4 ISZERO OR PUSH2 0x7AC6 JUMPI PUSH2 0x7AC5 PUSH2 0x6BC1 JUMP JUMPDEST JUMPDEST POP SWAP3 SWAP2 POP POP JUMP JUMPDEST PUSH1 0x0 PUSH2 0x7AD8 DUP3 PUSH2 0x6887 JUMP JUMPDEST SWAP2 POP PUSH2 0x7AE3 DUP4 PUSH2 0x6887 JUMP JUMPDEST SWAP3 POP DUP3 DUP3 ADD SWAP1 POP DUP3 DUP2 SLT ISZERO PUSH1 0x0 DUP4 SLT AND DUP4 DUP3 SLT PUSH1 0x0 DUP5 SLT ISZERO AND OR ISZERO PUSH2 0x7B0B JUMPI PUSH2 0x7B0A PUSH2 0x6BC1 JUMP JUMPDEST JUMPDEST SWAP3 SWAP2 POP POP JUMP JUMPDEST PUSH32 0x5400000000000000000000000000000000000000000000000000000000000000 PUSH1 0x0 DUP3 ADD MSTORE POP JUMP JUMPDEST PUSH1 0x0 PUSH2 0x7B47 PUSH1 0x1 DUP4 PUSH2 0x6B02 JUMP JUMPDEST SWAP2 POP PUSH2 0x7B52 DUP3 PUSH2 0x7B11 JUMP JUMPDEST PUSH1 0x20 DUP3 ADD SWAP1 POP SWAP2 SWAP1 POP JUMP JUMPDEST PUSH1 0x0 PUSH1 0x20 DUP3 ADD SWAP1 POP DUP2 DUP2 SUB PUSH1 0x0 DUP4 ADD MSTORE PUSH2 0x7B76 DUP2 PUSH2 0x7B3A JUMP JUMPDEST SWAP1 POP SWAP2 SWAP1 POP JUMP JUMPDEST PUSH1 0x0 PUSH2 0x7B88 DUP3 PUSH2 0x5CD1 JUMP JUMPDEST SWAP2 POP PUSH2 0x7B93 DUP4 PUSH2 0x5CD1 JUMP JUMPDEST SWAP3 POP DUP3 DUP3 MUL PUSH2 0x7BA1 DUP2 PUSH2 0x5CD1 JUMP JUMPDEST SWAP2 POP DUP3 DUP3 DIV DUP5 EQ DUP4 ISZERO OR PUSH2 0x7BB8 JUMPI PUSH2 0x7BB7 PUSH2 0x6BC1 JUMP JUMPDEST JUMPDEST POP SWAP3 SWAP2 POP POP JUMP JUMPDEST PUSH1 0x0 PUSH2 0x7BCA DUP3 PUSH2 0x5CD1 JUMP JUMPDEST SWAP2 POP PUSH2 0x7BD5 DUP4 PUSH2 0x5CD1 JUMP JUMPDEST SWAP3 POP DUP3 PUSH2 0x7BE5 JUMPI PUSH2 0x7BE4 PUSH2 0x6C25 JUMP JUMPDEST JUMPDEST DUP3 DUP3 DIV SWAP1 POP SWAP3 SWAP2 POP POP JUMP JUMPDEST PUSH1 0x0 PUSH2 0x7BFB DUP3 PUSH2 0x5CD1 JUMP JUMPDEST SWAP2 POP PUSH2 0x7C06 DUP4 PUSH2 0x5CD1 JUMP JUMPDEST SWAP3 POP DUP3 PUSH2 0x7C16 JUMPI PUSH2 0x7C15 PUSH2 0x6C25 JUMP JUMPDEST JUMPDEST DUP3 DUP3 MOD SWAP1 POP SWAP3 SWAP2 POP POP JUMP JUMPDEST PUSH1 0x0 PUSH2 0x7C2C DUP3 PUSH2 0x6635 JUMP JUMPDEST SWAP2 POP PUSH2 0x7C37 DUP4 PUSH2 0x6635 JUMP JUMPDEST SWAP3 POP DUP3 DUP3 SUB SWAP1 POP PUSH2 0xFFFF DUP2 GT ISZERO PUSH2 0x7C51 JUMPI PUSH2 0x7C50 PUSH2 0x6BC1 JUMP JUMPDEST JUMPDEST SWAP3 SWAP2 POP POP JUMP JUMPDEST PUSH1 0x0 PUSH2 0x7C62 DUP3 PUSH2 0x6635 JUMP JUMPDEST SWAP2 POP PUSH2 0x7C6D DUP4 PUSH2 0x6635 JUMP JUMPDEST SWAP3 POP DUP3 DUP3 ADD SWAP1 POP PUSH2 0xFFFF DUP2 GT ISZERO PUSH2 0x7C87 JUMPI PUSH2 0x7C86 PUSH2 0x6BC1 JUMP JUMPDEST JUMPDEST SWAP3 SWAP2 POP POP JUMP JUMPDEST PUSH1 0x0 PUSH2 0x7C98 DUP3 PUSH2 0x6635 JUMP JUMPDEST SWAP2 POP PUSH2 0x7CA3 DUP4 PUSH2 0x6635 JUMP JUMPDEST SWAP3 POP DUP3 PUSH2 0x7CB3 JUMPI PUSH2 0x7CB2 PUSH2 0x6C25 JUMP JUMPDEST JUMPDEST DUP3 DUP3 MOD SWAP1 POP SWAP3 SWAP2 POP POP JUMP JUMPDEST PUSH32 0x4C53000000000000000000000000000000000000000000000000000000000000 PUSH1 0x0 DUP3 ADD MSTORE POP JUMP JUMPDEST PUSH1 0x0 PUSH2 0x7CF4 PUSH1 0x2 DUP4 PUSH2 0x6B02 JUMP JUMPDEST SWAP2 POP PUSH2 0x7CFF DUP3 PUSH2 0x7CBE JUMP JUMPDEST PUSH1 0x20 DUP3 ADD SWAP1 POP SWAP2 SWAP1 POP JUMP JUMPDEST PUSH1 0x0 PUSH1 0x20 DUP3 ADD SWAP1 POP DUP2 DUP2 SUB PUSH1 0x0 DUP4 ADD MSTORE PUSH2 0x7D23 DUP2 PUSH2 0x7CE7 JUMP JUMPDEST SWAP1 POP SWAP2 SWAP1 POP JUMP JUMPDEST PUSH32 0x4C41000000000000000000000000000000000000000000000000000000000000 PUSH1 0x0 DUP3 ADD MSTORE POP JUMP JUMPDEST PUSH1 0x0 PUSH2 0x7D60 PUSH1 0x2 DUP4 PUSH2 0x6B02 JUMP JUMPDEST SWAP2 POP PUSH2 0x7D6B DUP3 PUSH2 0x7D2A JUMP JUMPDEST PUSH1 0x20 DUP3 ADD SWAP1 POP SWAP2 SWAP1 POP JUMP JUMPDEST PUSH1 0x0 PUSH1 0x20 DUP3 ADD SWAP1 POP DUP2 DUP2 SUB PUSH1 0x0 DUP4 ADD MSTORE PUSH2 0x7D8F DUP2 PUSH2 0x7D53 JUMP JUMPDEST SWAP1 POP SWAP2 SWAP1 POP JUMP JUMPDEST PUSH1 0x0 DUP2 PUSH1 0x3 SIGNEXTEND SWAP1 POP SWAP2 SWAP1 POP JUMP JUMPDEST PUSH1 0x0 PUSH2 0x7DAE DUP3 PUSH2 0x7D96 JUMP JUMPDEST SWAP2 POP PUSH2 0x7DB9 DUP4 PUSH2 0x7D96 JUMP JUMPDEST SWAP3 POP DUP3 DUP3 MUL PUSH2 0x7DC7 DUP2 PUSH2 0x7D96 JUMP JUMPDEST SWAP2 POP DUP1 DUP3 EQ PUSH2 0x7DD9 JUMPI PUSH2 0x7DD8 PUSH2 0x6BC1 JUMP JUMPDEST JUMPDEST POP SWAP3 SWAP2 POP POP JUMP JUMPDEST PUSH32 0x4F4C440000000000000000000000000000000000000000000000000000000000 PUSH1 0x0 DUP3 ADD MSTORE POP JUMP JUMPDEST PUSH1 0x0 PUSH2 0x7E16 PUSH1 0x3 DUP4 PUSH2 0x6B02 JUMP JUMPDEST SWAP2 POP PUSH2 0x7E21 DUP3 PUSH2 0x7DE0 JUMP JUMPDEST PUSH1 0x20 DUP3 ADD SWAP1 POP SWAP2 SWAP1 POP JUMP JUMPDEST PUSH1 0x0 PUSH1 0x20 DUP3 ADD SWAP1 POP DUP2 DUP2 SUB PUSH1 0x0 DUP4 ADD MSTORE PUSH2 0x7E45 DUP2 PUSH2 0x7E09 JUMP JUMPDEST SWAP1 POP SWAP2 SWAP1 POP JUMP JUMPDEST PUSH32 0x4C4F000000000000000000000000000000000000000000000000000000000000 PUSH1 0x0 DUP3 ADD MSTORE POP JUMP JUMPDEST PUSH1 0x0 PUSH2 0x7E82 PUSH1 0x2 DUP4 PUSH2 0x6B02 JUMP JUMPDEST SWAP2 POP PUSH2 0x7E8D DUP3 PUSH2 0x7E4C JUMP JUMPDEST PUSH1 0x20 DUP3 ADD SWAP1 POP SWAP2 SWAP1 POP JUMP JUMPDEST PUSH1 0x0 PUSH1 0x20 DUP3 ADD SWAP1 POP DUP2 DUP2 SUB PUSH1 0x0 DUP4 ADD MSTORE PUSH2 0x7EB1 DUP2 PUSH2 0x7E75 JUMP JUMPDEST SWAP1 POP SWAP2 SWAP1 POP JUMP JUMPDEST PUSH1 0x0 PUSH2 0x7EC3 DUP3 PUSH2 0x5EE7 JUMP JUMPDEST SWAP2 POP PUSH2 0x7ECE DUP4 PUSH2 0x5EE7 JUMP JUMPDEST SWAP3 POP DUP3 PUSH2 0x7EDE JUMPI PUSH2 0x7EDD PUSH2 0x6C25 JUMP JUMPDEST JUMPDEST DUP3 DUP3 SMOD SWAP1 POP SWAP3 SWAP2 POP POP JUMP JUMPDEST PUSH32 0x4E50000000000000000000000000000000000000000000000000000000000000 PUSH1 0x0 DUP3 ADD MSTORE POP JUMP JUMPDEST PUSH1 0x0 PUSH2 0x7F1F PUSH1 0x2 DUP4 PUSH2 0x6B02 JUMP JUMPDEST SWAP2 POP PUSH2 0x7F2A DUP3 PUSH2 0x7EE9 JUMP JUMPDEST PUSH1 0x20 DUP3 ADD SWAP1 POP SWAP2 SWAP1 POP JUMP JUMPDEST PUSH1 0x0 PUSH1 0x20 DUP3 ADD SWAP1 POP DUP2 DUP2 SUB PUSH1 0x0 DUP4 ADD MSTORE PUSH2 0x7F4E DUP2 PUSH2 0x7F12 JUMP JUMPDEST SWAP1 POP SWAP2 SWAP1 POP JUMP JUMPDEST PUSH1 0x0 PUSH5 0xFFFFFFFFFF DUP3 AND SWAP1 POP SWAP2 SWAP1 POP JUMP JUMPDEST PUSH1 0x0 PUSH2 0x7F71 DUP3 PUSH2 0x7F55 JUMP JUMPDEST SWAP2 POP PUSH2 0x7F7C DUP4 PUSH2 0x7F55 JUMP JUMPDEST SWAP3 POP DUP3 DUP3 ADD SWAP1 POP PUSH5 0xFFFFFFFFFF DUP2 GT ISZERO PUSH2 0x7F99 JUMPI PUSH2 0x7F98 PUSH2 0x6BC1 JUMP JUMPDEST JUMPDEST SWAP3 SWAP2 POP POP JUMP JUMPDEST PUSH1 0x0 PUSH2 0x7FAA DUP3 PUSH2 0x62EC JUMP JUMPDEST SWAP2 POP PUSH2 0x7FB5 DUP4 PUSH2 0x62EC JUMP JUMPDEST SWAP3 POP DUP3 PUSH2 0x7FC5 JUMPI PUSH2 0x7FC4 PUSH2 0x6C25 JUMP JUMPDEST JUMPDEST DUP3 DUP3 MOD SWAP1 POP SWAP3 SWAP2 POP POP JUMP INVALID LOG2 PUSH5 0x6970667358 0x22 SLT KECCAK256 SELFDESTRUCT GASPRICE 0x21 0xE4 RETURN LOG4 0x2D 0x24 PUSH18 0x47D96C36FF2EAA1F79AB9EDCBA4AB4236B9B SLT 0xB5 0xB0 PUSH9 0xC664736F6C63430008 GT STOP CALLER "
		},
		"gasEstimates": {
			"creation": {
				"codeDepositCost": "6554800",
				"executionCost": "infinite",
				"totalCost": "infinite"
			},
			"external": {
				"burn(int24,int24,uint128)": "infinite",
				"coin()": "infinite",
				"collect(address,int24,int24,uint128,uint128)": "infinite",
				"collectProtocol()": "infinite",
				"flash(address,address,uint256,uint256,bytes)": "infinite",
				"gatelock()": "2610",
				"gater()": "2605",
				"increaseLookerCardinalityNext(uint16)": "infinite",
				"initialize(uint160)": "infinite",
				"investion()": "2516",
				"lockShopbyGetor()": "26676",
				"lockShopbyMarketor()": "infinite",
				"market()": "infinite",
				"marketlock()": "2565",
				"maxInvestionPerUnit()": "infinite",
				"mint(address,int24,int24,uint128,bytes)": "infinite",
				"observe(uint32[])": "infinite",
				"priceLogers(uint256)": "9771",
				"profit()": "infinite",
				"profitGrowthGlobalCoinX128()": "2476",
				"profitGrowthGlobalThingX128()": "2562",
				"profitshares()": "infinite",
				"proofs(bytes32)": "infinite",
				"protocolProfits()": "infinite",
				"scope()": "2610",
				"setFeeProfitSharesbyMarketor(uint8,uint8,uint8,uint8)": "infinite",
				"setFeeProtocolbyMarketor(uint8,uint8)": "infinite",
				"snapshotCumulativesInside(int24,int24)": "infinite",
				"state0()": "infinite",
				"swap(address,address,bool,int256,uint160,bytes)": "infinite",
				"thing()": "infinite",
				"unitBitmap(int16)": "2819",
				"unitSpacing()": "infinite",
				"units(int24)": "infinite",
				"unlockShopbyGetor()": "26698",
				"unlockShopbyMarketor()": "infinite"
			},
			"internal": {
				"_blockTimestamp()": "22",
				"_modifyproof(struct MoonV1Shop.ModifyProofParams memory)": "infinite",
				"_updateproof(address,int24,int24,int128,int24)": "infinite",
				"checkUnits(int24,int24)": "infinite",
				"coinbalance()": "infinite",
				"thingbalance()": "infinite"
			}
		},
		"methodIdentifiers": {
			"burn(int24,int24,uint128)": "a34123a7",
			"coin()": "11df9995",
			"collect(address,int24,int24,uint128,uint128)": "4f1eb3d8",
			"collectProtocol()": "95f01f3f",
			"flash(address,address,uint256,uint256,bytes)": "8cc2ce60",
			"gatelock()": "92cc393c",
			"gater()": "166d6021",
			"increaseLookerCardinalityNext(uint16)": "b23ae19b",
			"initialize(uint160)": "f637731d",
			"investion()": "6a0b2b23",
			"lockShopbyGetor()": "8f919198",
			"lockShopbyMarketor()": "208537ff",
			"market()": "80f55605",
			"marketlock()": "b1592590",
			"maxInvestionPerUnit()": "8d79ddcb",
			"mint(address,int24,int24,uint128,bytes)": "3c8a7d8d",
			"observe(uint32[])": "883bdbfd",
			"priceLogers(uint256)": "2ad1baab",
			"profit()": "66d16cc3",
			"profitGrowthGlobalCoinX128()": "01b29351",
			"profitGrowthGlobalThingX128()": "a30070e6",
			"profitshares()": "afb62fef",
			"proofs(bytes32)": "444d95b0",
			"protocolProfits()": "3659bb4e",
			"scope()": "6e62d0a8",
			"setFeeProfitSharesbyMarketor(uint8,uint8,uint8,uint8)": "ba66e6dc",
			"setFeeProtocolbyMarketor(uint8,uint8)": "1a86b0e9",
			"snapshotCumulativesInside(int24,int24)": "a38807f2",
			"state0()": "8b2ea554",
			"swap(address,address,bool,int256,uint160,bytes)": "a98b22c1",
			"thing()": "c55e90fe",
			"unitBitmap(int16)": "8860d1cd",
			"unitSpacing()": "92c4545c",
			"units(int24)": "317dfb06",
			"unlockShopbyGetor()": "6aca362d",
			"unlockShopbyMarketor()": "3d02a292"
		}
	},
	"abi": [
		{
			"inputs": [],
			"stateMutability": "nonpayable",
			"type": "constructor"
		},
		{
			"anonymous": false,
			"inputs": [
				{
					"indexed": true,
					"internalType": "address",
					"name": "owner",
					"type": "address"
				},
				{
					"indexed": true,
					"internalType": "int24",
					"name": "tickLower",
					"type": "int24"
				},
				{
					"indexed": true,
					"internalType": "int24",
					"name": "tickUpper",
					"type": "int24"
				},
				{
					"indexed": false,
					"internalType": "uint128",
					"name": "amount",
					"type": "uint128"
				},
				{
					"indexed": false,
					"internalType": "uint256",
					"name": "amount0",
					"type": "uint256"
				},
				{
					"indexed": false,
					"internalType": "uint256",
					"name": "amount1",
					"type": "uint256"
				}
			],
			"name": "Burn",
			"type": "event"
		},
		{
			"anonymous": false,
			"inputs": [
				{
					"indexed": true,
					"internalType": "address",
					"name": "owner",
					"type": "address"
				},
				{
					"indexed": false,
					"internalType": "address",
					"name": "recipient",
					"type": "address"
				},
				{
					"indexed": true,
					"internalType": "int24",
					"name": "tickLower",
					"type": "int24"
				},
				{
					"indexed": true,
					"internalType": "int24",
					"name": "tickUpper",
					"type": "int24"
				},
				{
					"indexed": false,
					"internalType": "uint128",
					"name": "amount0",
					"type": "uint128"
				},
				{
					"indexed": false,
					"internalType": "uint128",
					"name": "amount1",
					"type": "uint128"
				}
			],
			"name": "Collect",
			"type": "event"
		},
		{
			"anonymous": false,
			"inputs": [
				{
					"indexed": true,
					"internalType": "address",
					"name": "sender",
					"type": "address"
				},
				{
					"indexed": true,
					"internalType": "address",
					"name": "recipient",
					"type": "address"
				},
				{
					"indexed": false,
					"internalType": "uint128",
					"name": "amount0",
					"type": "uint128"
				},
				{
					"indexed": false,
					"internalType": "uint128",
					"name": "amount1",
					"type": "uint128"
				}
			],
			"name": "CollectProtocol",
			"type": "event"
		},
		{
			"anonymous": false,
			"inputs": [
				{
					"indexed": true,
					"internalType": "address",
					"name": "sender",
					"type": "address"
				},
				{
					"indexed": true,
					"internalType": "address",
					"name": "recipient",
					"type": "address"
				},
				{
					"indexed": false,
					"internalType": "uint256",
					"name": "amount0",
					"type": "uint256"
				},
				{
					"indexed": false,
					"internalType": "uint256",
					"name": "amount1",
					"type": "uint256"
				},
				{
					"indexed": false,
					"internalType": "uint256",
					"name": "paid0",
					"type": "uint256"
				},
				{
					"indexed": false,
					"internalType": "uint256",
					"name": "paid1",
					"type": "uint256"
				}
			],
			"name": "Flash",
			"type": "event"
		},
		{
			"anonymous": false,
			"inputs": [
				{
					"indexed": false,
					"internalType": "uint16",
					"name": "observationCardinalityNextOld",
					"type": "uint16"
				},
				{
					"indexed": false,
					"internalType": "uint16",
					"name": "observationCardinalityNextNew",
					"type": "uint16"
				}
			],
			"name": "IncreaseObservationCardinalityNext",
			"type": "event"
		},
		{
			"anonymous": false,
			"inputs": [
				{
					"indexed": false,
					"internalType": "uint160",
					"name": "sqrtPriceX96",
					"type": "uint160"
				},
				{
					"indexed": false,
					"internalType": "int24",
					"name": "tick",
					"type": "int24"
				}
			],
			"name": "Initialize",
			"type": "event"
		},
		{
			"anonymous": false,
			"inputs": [
				{
					"indexed": false,
					"internalType": "address",
					"name": "sender",
					"type": "address"
				},
				{
					"indexed": true,
					"internalType": "address",
					"name": "owner",
					"type": "address"
				},
				{
					"indexed": true,
					"internalType": "int24",
					"name": "tickLower",
					"type": "int24"
				},
				{
					"indexed": true,
					"internalType": "int24",
					"name": "tickUpper",
					"type": "int24"
				},
				{
					"indexed": false,
					"internalType": "uint128",
					"name": "amount",
					"type": "uint128"
				},
				{
					"indexed": false,
					"internalType": "uint256",
					"name": "amount0",
					"type": "uint256"
				},
				{
					"indexed": false,
					"internalType": "uint256",
					"name": "amount1",
					"type": "uint256"
				}
			],
			"name": "Mint",
			"type": "event"
		},
		{
			"anonymous": false,
			"inputs": [
				{
					"indexed": false,
					"internalType": "uint8",
					"name": "feeProtocol0Old",
					"type": "uint8"
				},
				{
					"indexed": false,
					"internalType": "uint8",
					"name": "feeProtocol1Old",
					"type": "uint8"
				},
				{
					"indexed": false,
					"internalType": "uint8",
					"name": "feeProtocol0New",
					"type": "uint8"
				},
				{
					"indexed": false,
					"internalType": "uint8",
					"name": "feeProtocol1New",
					"type": "uint8"
				}
			],
			"name": "SetFeeProtocol",
			"type": "event"
		},
		{
			"anonymous": false,
			"inputs": [
				{
					"indexed": true,
					"internalType": "address",
					"name": "sender",
					"type": "address"
				},
				{
					"indexed": true,
					"internalType": "address",
					"name": "recipient",
					"type": "address"
				},
				{
					"indexed": false,
					"internalType": "int256",
					"name": "amount0",
					"type": "int256"
				},
				{
					"indexed": false,
					"internalType": "int256",
					"name": "amount1",
					"type": "int256"
				},
				{
					"indexed": false,
					"internalType": "uint160",
					"name": "sqrtPriceX96",
					"type": "uint160"
				},
				{
					"indexed": false,
					"internalType": "uint128",
					"name": "liquidity",
					"type": "uint128"
				},
				{
					"indexed": false,
					"internalType": "int24",
					"name": "tick",
					"type": "int24"
				}
			],
			"name": "Swap",
			"type": "event"
		},
		{
			"inputs": [
				{
					"internalType": "int24",
					"name": "_unitLower",
					"type": "int24"
				},
				{
					"internalType": "int24",
					"name": "_unitUpper",
					"type": "int24"
				},
				{
					"internalType": "uint128",
					"name": "amount",
					"type": "uint128"
				}
			],
			"name": "burn",
			"outputs": [
				{
					"internalType": "uint256",
					"name": "amount0",
					"type": "uint256"
				},
				{
					"internalType": "uint256",
					"name": "amount1",
					"type": "uint256"
				}
			],
			"stateMutability": "nonpayable",
			"type": "function"
		},
		{
			"inputs": [],
			"name": "coin",
			"outputs": [
				{
					"internalType": "address",
					"name": "",
					"type": "address"
				}
			],
			"stateMutability": "view",
			"type": "function"
		},
		{
			"inputs": [
				{
					"internalType": "address",
					"name": "recipient",
					"type": "address"
				},
				{
					"internalType": "int24",
					"name": "_unitLower",
					"type": "int24"
				},
				{
					"internalType": "int24",
					"name": "_unitUpper",
					"type": "int24"
				},
				{
					"internalType": "uint128",
					"name": "amount0Requested",
					"type": "uint128"
				},
				{
					"internalType": "uint128",
					"name": "amount1Requested",
					"type": "uint128"
				}
			],
			"name": "collect",
			"outputs": [
				{
					"internalType": "uint128",
					"name": "amount0",
					"type": "uint128"
				},
				{
					"internalType": "uint128",
					"name": "amount1",
					"type": "uint128"
				}
			],
			"stateMutability": "nonpayable",
			"type": "function"
		},
		{
			"inputs": [],
			"name": "collectProtocol",
			"outputs": [
				{
					"internalType": "uint128",
					"name": "coinamount",
					"type": "uint128"
				},
				{
					"internalType": "uint128",
					"name": "thingamount",
					"type": "uint128"
				}
			],
			"stateMutability": "nonpayable",
			"type": "function"
		},
		{
			"inputs": [
				{
					"internalType": "address",
					"name": "gateraddress",
					"type": "address"
				},
				{
					"internalType": "address",
					"name": "recipient",
					"type": "address"
				},
				{
					"internalType": "uint256",
					"name": "amount0",
					"type": "uint256"
				},
				{
					"internalType": "uint256",
					"name": "amount1",
					"type": "uint256"
				},
				{
					"internalType": "bytes",
					"name": "data",
					"type": "bytes"
				}
			],
			"name": "flash",
			"outputs": [],
			"stateMutability": "nonpayable",
			"type": "function"
		},
		{
			"inputs": [],
			"name": "gatelock",
			"outputs": [
				{
					"internalType": "bool",
					"name": "",
					"type": "bool"
				}
			],
			"stateMutability": "view",
			"type": "function"
		},
		{
			"inputs": [],
			"name": "gater",
			"outputs": [
				{
					"internalType": "address",
					"name": "",
					"type": "address"
				}
			],
			"stateMutability": "view",
			"type": "function"
		},
		{
			"inputs": [
				{
					"internalType": "uint16",
					"name": "lookerCardinalityNext",
					"type": "uint16"
				}
			],
			"name": "increaseLookerCardinalityNext",
			"outputs": [],
			"stateMutability": "nonpayable",
			"type": "function"
		},
		{
			"inputs": [
				{
					"internalType": "uint160",
					"name": "sqrtPriceX96",
					"type": "uint160"
				}
			],
			"name": "initialize",
			"outputs": [],
			"stateMutability": "nonpayable",
			"type": "function"
		},
		{
			"inputs": [],
			"name": "investion",
			"outputs": [
				{
					"internalType": "uint128",
					"name": "",
					"type": "uint128"
				}
			],
			"stateMutability": "view",
			"type": "function"
		},
		{
			"inputs": [],
			"name": "lockShopbyGetor",
			"outputs": [],
			"stateMutability": "nonpayable",
			"type": "function"
		},
		{
			"inputs": [],
			"name": "lockShopbyMarketor",
			"outputs": [],
			"stateMutability": "nonpayable",
			"type": "function"
		},
		{
			"inputs": [],
			"name": "market",
			"outputs": [
				{
					"internalType": "address",
					"name": "",
					"type": "address"
				}
			],
			"stateMutability": "view",
			"type": "function"
		},
		{
			"inputs": [],
			"name": "marketlock",
			"outputs": [
				{
					"internalType": "bool",
					"name": "",
					"type": "bool"
				}
			],
			"stateMutability": "view",
			"type": "function"
		},
		{
			"inputs": [],
			"name": "maxInvestionPerUnit",
			"outputs": [
				{
					"internalType": "uint128",
					"name": "",
					"type": "uint128"
				}
			],
			"stateMutability": "view",
			"type": "function"
		},
		{
			"inputs": [
				{
					"internalType": "address",
					"name": "recipient",
					"type": "address"
				},
				{
					"internalType": "int24",
					"name": "_unitLower",
					"type": "int24"
				},
				{
					"internalType": "int24",
					"name": "_unitUpper",
					"type": "int24"
				},
				{
					"internalType": "uint128",
					"name": "amount",
					"type": "uint128"
				},
				{
					"internalType": "bytes",
					"name": "data",
					"type": "bytes"
				}
			],
			"name": "mint",
			"outputs": [
				{
					"internalType": "uint256",
					"name": "coinamount",
					"type": "uint256"
				},
				{
					"internalType": "uint256",
					"name": "thingamount",
					"type": "uint256"
				}
			],
			"stateMutability": "nonpayable",
			"type": "function"
		},
		{
			"inputs": [
				{
					"internalType": "uint32[]",
					"name": "secondsAgos",
					"type": "uint32[]"
				}
			],
			"name": "observe",
			"outputs": [
				{
					"internalType": "int56[]",
					"name": "unitCumulatives",
					"type": "int56[]"
				},
				{
					"internalType": "uint160[]",
					"name": "secondsPerinvestionCumulativeX128s",
					"type": "uint160[]"
				}
			],
			"stateMutability": "view",
			"type": "function"
		},
		{
			"inputs": [
				{
					"internalType": "uint256",
					"name": "",
					"type": "uint256"
				}
			],
			"name": "priceLogers",
			"outputs": [
				{
					"internalType": "uint32",
					"name": "blockTimestamp",
					"type": "uint32"
				},
				{
					"internalType": "int56",
					"name": "unitCumulative",
					"type": "int56"
				},
				{
					"internalType": "uint160",
					"name": "secondsPerInvestionCumulativeX128",
					"type": "uint160"
				},
				{
					"internalType": "bool",
					"name": "initialized",
					"type": "bool"
				}
			],
			"stateMutability": "view",
			"type": "function"
		},
		{
			"inputs": [],
			"name": "profit",
			"outputs": [
				{
					"internalType": "uint24",
					"name": "",
					"type": "uint24"
				}
			],
			"stateMutability": "view",
			"type": "function"
		},
		{
			"inputs": [],
			"name": "profitGrowthGlobalCoinX128",
			"outputs": [
				{
					"internalType": "uint256",
					"name": "",
					"type": "uint256"
				}
			],
			"stateMutability": "view",
			"type": "function"
		},
		{
			"inputs": [],
			"name": "profitGrowthGlobalThingX128",
			"outputs": [
				{
					"internalType": "uint256",
					"name": "",
					"type": "uint256"
				}
			],
			"stateMutability": "view",
			"type": "function"
		},
		{
			"inputs": [],
			"name": "profitshares",
			"outputs": [
				{
					"internalType": "uint8",
					"name": "marketshare",
					"type": "uint8"
				},
				{
					"internalType": "uint8",
					"name": "gatershare",
					"type": "uint8"
				},
				{
					"internalType": "uint8",
					"name": "commandershare",
					"type": "uint8"
				},
				{
					"internalType": "uint8",
					"name": "usershare",
					"type": "uint8"
				}
			],
			"stateMutability": "view",
			"type": "function"
		},
		{
			"inputs": [
				{
					"internalType": "bytes32",
					"name": "",
					"type": "bytes32"
				}
			],
			"name": "proofs",
			"outputs": [
				{
					"internalType": "uint128",
					"name": "liquidity",
					"type": "uint128"
				},
				{
					"internalType": "uint256",
					"name": "feeGrowthInside0LastX128",
					"type": "uint256"
				},
				{
					"internalType": "uint256",
					"name": "feeGrowthInside1LastX128",
					"type": "uint256"
				},
				{
					"internalType": "uint128",
					"name": "tokensOwed0",
					"type": "uint128"
				},
				{
					"internalType": "uint128",
					"name": "tokensOwed1",
					"type": "uint128"
				}
			],
			"stateMutability": "view",
			"type": "function"
		},
		{
			"inputs": [],
			"name": "protocolProfits",
			"outputs": [
				{
					"internalType": "uint128",
					"name": "coin",
					"type": "uint128"
				},
				{
					"internalType": "uint128",
					"name": "thing",
					"type": "uint128"
				}
			],
			"stateMutability": "view",
			"type": "function"
		},
		{
			"inputs": [],
			"name": "scope",
			"outputs": [
				{
					"internalType": "uint8",
					"name": "",
					"type": "uint8"
				}
			],
			"stateMutability": "view",
			"type": "function"
		},
		{
			"inputs": [
				{
					"internalType": "uint8",
					"name": "_marketshare",
					"type": "uint8"
				},
				{
					"internalType": "uint8",
					"name": "_gatershare",
					"type": "uint8"
				},
				{
					"internalType": "uint8",
					"name": "_commandershare",
					"type": "uint8"
				},
				{
					"internalType": "uint8",
					"name": "_usershare",
					"type": "uint8"
				}
			],
			"name": "setFeeProfitSharesbyMarketor",
			"outputs": [],
			"stateMutability": "nonpayable",
			"type": "function"
		},
		{
			"inputs": [
				{
					"internalType": "uint8",
					"name": "profitProtocol0",
					"type": "uint8"
				},
				{
					"internalType": "uint8",
					"name": "profitProtocol1",
					"type": "uint8"
				}
			],
			"name": "setFeeProtocolbyMarketor",
			"outputs": [],
			"stateMutability": "nonpayable",
			"type": "function"
		},
		{
			"inputs": [
				{
					"internalType": "int24",
					"name": "_unitLower",
					"type": "int24"
				},
				{
					"internalType": "int24",
					"name": "_unitUpper",
					"type": "int24"
				}
			],
			"name": "snapshotCumulativesInside",
			"outputs": [
				{
					"internalType": "int56",
					"name": "unitCumulativeInside",
					"type": "int56"
				},
				{
					"internalType": "uint160",
					"name": "secondsPerinvestionInsideX128",
					"type": "uint160"
				},
				{
					"internalType": "uint32",
					"name": "secondsInside",
					"type": "uint32"
				}
			],
			"stateMutability": "view",
			"type": "function"
		},
		{
			"inputs": [],
			"name": "state0",
			"outputs": [
				{
					"internalType": "uint160",
					"name": "sqrtPriceX96",
					"type": "uint160"
				},
				{
					"internalType": "int24",
					"name": "unit",
					"type": "int24"
				},
				{
					"internalType": "uint16",
					"name": "lookerIndex",
					"type": "uint16"
				},
				{
					"internalType": "uint16",
					"name": "lookerCardinality",
					"type": "uint16"
				},
				{
					"internalType": "uint16",
					"name": "lookerCardinalityNext",
					"type": "uint16"
				},
				{
					"internalType": "uint8",
					"name": "profitProtocol",
					"type": "uint8"
				},
				{
					"internalType": "bool",
					"name": "unlocked",
					"type": "bool"
				}
			],
			"stateMutability": "view",
			"type": "function"
		},
		{
			"inputs": [
				{
					"internalType": "address",
					"name": "recipient",
					"type": "address"
				},
				{
					"internalType": "address",
					"name": "gateraddress",
					"type": "address"
				},
				{
					"internalType": "bool",
					"name": "zeroForOne",
					"type": "bool"
				},
				{
					"internalType": "int256",
					"name": "amountSpecified",
					"type": "int256"
				},
				{
					"internalType": "uint160",
					"name": "sqrtPriceLimitX96",
					"type": "uint160"
				},
				{
					"internalType": "bytes",
					"name": "data",
					"type": "bytes"
				}
			],
			"name": "swap",
			"outputs": [
				{
					"internalType": "int256",
					"name": "amount0",
					"type": "int256"
				},
				{
					"internalType": "int256",
					"name": "amount1",
					"type": "int256"
				}
			],
			"stateMutability": "nonpayable",
			"type": "function"
		},
		{
			"inputs": [],
			"name": "thing",
			"outputs": [
				{
					"internalType": "address",
					"name": "",
					"type": "address"
				}
			],
			"stateMutability": "view",
			"type": "function"
		},
		{
			"inputs": [
				{
					"internalType": "int16",
					"name": "",
					"type": "int16"
				}
			],
			"name": "unitBitmap",
			"outputs": [
				{
					"internalType": "uint256",
					"name": "",
					"type": "uint256"
				}
			],
			"stateMutability": "view",
			"type": "function"
		},
		{
			"inputs": [],
			"name": "unitSpacing",
			"outputs": [
				{
					"internalType": "int24",
					"name": "",
					"type": "int24"
				}
			],
			"stateMutability": "view",
			"type": "function"
		},
		{
			"inputs": [
				{
					"internalType": "int24",
					"name": "",
					"type": "int24"
				}
			],
			"name": "units",
			"outputs": [
				{
					"internalType": "uint128",
					"name": "liquidityGross",
					"type": "uint128"
				},
				{
					"internalType": "int128",
					"name": "liquidityNet",
					"type": "int128"
				},
				{
					"internalType": "uint256",
					"name": "feeGrowthOutside0X128",
					"type": "uint256"
				},
				{
					"internalType": "uint256",
					"name": "feeGrowthOutside1X128",
					"type": "uint256"
				},
				{
					"internalType": "int56",
					"name": "unitCumulativeOutside",
					"type": "int56"
				},
				{
					"internalType": "uint160",
					"name": "secondsPerLiquidityOutsideX128",
					"type": "uint160"
				},
				{
					"internalType": "uint32",
					"name": "secondsOutside",
					"type": "uint32"
				},
				{
					"internalType": "bool",
					"name": "initialized",
					"type": "bool"
				}
			],
			"stateMutability": "view",
			"type": "function"
		},
		{
			"inputs": [],
			"name": "unlockShopbyGetor",
			"outputs": [],
			"stateMutability": "nonpayable",
			"type": "function"
		},
		{
			"inputs": [],
			"name": "unlockShopbyMarketor",
			"outputs": [],
			"stateMutability": "nonpayable",
			"type": "function"
		}
	]
}