{
	"data": {
		"bytecode": {
			"linkReferences": {},
			"object": "60806040523480156200001157600080fd5b50604051620030d8380380620030d8833981016040819052620000349162000094565b600580546001600160a01b039485166001600160a01b031991821617909155600680549385169382169390931790925560078054919093169116179055620000de565b80516001600160a01b03811681146200008f57600080fd5b919050565b600080600060608486031215620000aa57600080fd5b620000b58462000077565b9250620000c56020850162000077565b9150620000d56040850162000077565b90509250925092565b612fea80620000ee6000396000f3fe608060405234801561001057600080fd5b50600436106101da5760003560e01c8063690e178411610104578063b244cb29116100a2578063d25b9e5811610071578063d25b9e58146105f0578063d848b5ba14610603578063f022f4171461062c578063f8eeb6651461063f57600080fd5b8063b244cb29146105a4578063c23a9da2146105b7578063c6e39898146105ca578063d04dc91e146105dd57600080fd5b80637c3e2f02116100de5780637c3e2f021461055857806392a59f1f1461056b5780639e2c608c1461057e578063b20be2b41461059157600080fd5b8063690e17841461048d5780636cedf640146104c1578063798fdafa1461054557600080fd5b8063385e4b7a1161017c57806347d0a6341161014b57806347d0a63414610434578063492b71071461044757806354d393181461045a5780635e2c93141461047a57600080fd5b8063385e4b7a146103905780633e68d831146103a357806340e7bdc3146103ef578063441eb5481461042157600080fd5b80631d3b8f67116101b85780631d3b8f671461021a57806327cbaabe1461022d57806331ecdeb81461025d578063328320bf1461034a57600080fd5b806307cb20e8146101df57806311cfa0bc146101f4578063128e641d14610207575b600080fd5b6101f26101ed366004612b68565b610652565b005b6101f2610202366004612b9f565b610ad7565b6101f2610215366004612bc1565b610d29565b6101f2610228366004612b9f565b610e4f565b600754610240906001600160a01b031681565b6040516001600160a01b0390911681526020015b60405180910390f35b6102e061026b366004612b9f565b60036020819052600091825260409091208054600182015460028301549383015460048401546005850154600686015460079096015494969395939460ff93841694929391926001600160a01b0380821693600160a01b8304811693600160a81b8404821693600160b01b900490911691168b565b604080519b8c5260208c019a909a52988a019790975260ff9095166060890152608088019390935260a08701919091526001600160a01b0390811660c087015290151560e08601529015156101008501529015156101208401521661014082015261016001610254565b610380610358366004612b9f565b6001600160a01b0316600090815260036020526040902060060154600160a01b900460ff1690565b6040519015158152602001610254565b6101f261039e366004612b9f565b610f34565b6103d76103b1366004612bdd565b60026020908152600092835260408084209091529082529020546001600160801b031681565b6040516001600160801b039091168152602001610254565b6103d76103fd366004612b9f565b6001600160a01b03166000908152602081905260409020546001600160801b031690565b6101f261042f366004612b9f565b61105c565b600554610240906001600160a01b031681565b600654610240906001600160a01b031681565b61046d610468366004612c1e565b61117e565b6040516102549190612ce7565b6101f2610488366004612cf6565b6112a0565b61024061049b366004612c1e565b60016020908152600092835260408084209091529082529020546001600160a01b031681565b61050e6104cf366004612b9f565b60046020819052600091825260409091208054600182015460028301546003840154948401546005909401546001600160a01b03909316949193909286565b604080516001600160a01b0390971687526020870195909552938501929092526060840152608083015260a082015260c001610254565b6101f2610553366004612d11565b611406565b6101f2610566366004612b9f565b6115ee565b6101f2610579366004612b9f565b61176f565b6101f261058c366004612d11565b6118db565b6101f261059f366004612b9f565b611beb565b6101f26105b2366004612d2e565b611cca565b6101f26105c5366004612d71565b611d63565b6101f26105d8366004612bc1565b611eb3565b6101f26105eb366004612d11565b611fa9565b61046d6105fe366004612b9f565b612310565b6103d7610611366004612b9f565b6000602081905290815260409020546001600160801b031681565b6101f261063a366004612cf6565b612414565b6101f261064d366004612b68565b61258f565b60055460405163601c214960e11b81523360048201526001600160a01b039091169063c038429290602401602060405180830381865afa15801561069a573d6000803e3d6000fd5b505050506040513d601f19601f820116820180604052508101906106be9190612dd4565b6106e35760405162461bcd60e51b81526004016106da90612df1565b60405180910390fd5b60c08201516001600160a01b0316600090815260036020526040902060060154600160b01b900460ff1615156001036107535760405162461bcd60e51b81526020600482015260126024820152711d1a194818dbda5b881a5cc808195e1a5cdd60721b60448201526064016106da565b336101408301819052600060e08401819052610100840181905260016101208501819052918152602081905260409020546001600160801b0316108015906107c65750336000908152602081905260409020546001600160801b03166107ba816001612e38565b6001600160801b031610155b1561081d573360009081526020819052604081208054600192906107f49084906001600160801b0316612e38565b92506101000a8154816001600160801b0302191690836001600160801b0316021790555061083e565b33600090815260208190526040902080546001600160801b03191660011790555b60c08201805133600081815260016020818152604080842084835281852080546001600160801b03908116875291845282862080546001600160a01b03998a166001600160a01b031991821617909155878752905460028086528488208b518b168952865284882080546001600160801b03191692909416919091179092558851881686526003808552958390208b518155938b015194840194909455818a0151908301556060890151938201805460ff90951660ff19909516949094179093556080880151600482015560a08801516005820155945160068601805460e08a01516101008b01516101208c01511515600160b01b0260ff60b01b19911515600160a81b029190911661ffff60a81b19921515600160a01b026001600160a81b0319909416958a1695909517929092171692909217919091179055610140870151600790950180549590941694169390931790915590517f724ed868ad6195ec663de17364300ee1e1956f27f184ceb84f2be30d1fd58d65916109c2918590612e6d565b60405180910390a180516001600160a01b03908116600090815260036020526040902060070154163314610a385760405162461bcd60e51b815260206004820152601c60248201527f796f75206973206e6f7420746865207468696e6720637265617465720000000060448201526064016106da565b80516001600160a01b03908116600090815260046020818152604092839020855181546001600160a01b031916951694851781558186015160018201558386015160028201556060860151600382015560808601519281019290925560a085015160059092019190915590519182527f28995a3cc31b8867e272bf05bb4f577da5e81799e17cf729d123edf7c2a7ca9491015b60405180910390a15050565b60065460405163038c332960e51b81523360048201526001600160a01b0390911690637186652090602401602060405180830381865afa158015610b1f573d6000803e3d6000fd5b505050506040513d601f19601f82011682018060405250810190610b439190612dd4565b610b5f5760405162461bcd60e51b81526004016106da90612df1565b6001600160a01b0381166000908152600360205260409020600601805460ff60b01b1916600160b01b1790556006546001600160a01b039081166000908152600260209081526040808320938516835292905220546001600160801b0316610c095760405162461bcd60e51b815260206004820152601d60248201527f74686520636f696e206973202065786973747320696e206d61726b657400000060448201526064016106da565b6006546001600160a01b03166000908152602081905260409020546001600160801b031660018110801590610c5a57506001600160801b038116610c4e826001612e38565b6001600160801b031610155b15610c7157610c6a600182612e38565b9050610c75565b5060015b600680546001600160a01b0390811660009081526020818152604080832080546001600160801b03199081166001600160801b03891690811790925586548616855260018452828520828652845282852080546001600160a01b0319168a881690811790915596549095168452600283528184208685528352928190208054909416909217909255519182527f787b8074a2db1bf64dac1e916753253472acc7c1fff144fae6d14142860d890b9101610acb565b60065460405163038c332960e51b81523360048201526001600160a01b0390911690637186652090602401602060405180830381865afa158015610d71573d6000803e3d6000fd5b505050506040513d601f19601f82011682018060405250810190610d959190612dd4565b610db15760405162461bcd60e51b81526004016106da90612df1565b80516001600160a01b03908116600090815260046020818152604092839020855181546001600160a01b031916951694851781558186015160018201558386015160028201556060860151600382015560808601519281019290925560a085015160059092019190915590519182527f28995a3cc31b8867e272bf05bb4f577da5e81799e17cf729d123edf7c2a7ca9491015b60405180910390a150565b60065460405163038c332960e51b81523360048201526001600160a01b0390911690637186652090602401602060405180830381865afa158015610e97573d6000803e3d6000fd5b505050506040513d601f19601f82011682018060405250810190610ebb9190612dd4565b610ed75760405162461bcd60e51b81526004016106da90612df1565b6001600160a01b038116600081815260036020908152604091829020600601805460ff60a01b1916600160a01b17905590519182527fac01100c10be15fec1a42f8249abc04b81a28e731feab3e60a2a962f74eff9d89101610e44565b60055460405163601c214960e11b81523360048201526001600160a01b039091169063c038429290602401602060405180830381865afa158015610f7c573d6000803e3d6000fd5b505050506040513d601f19601f82011682018060405250810190610fa09190612dd4565b610fbc5760405162461bcd60e51b81526004016106da90612df1565b6001600160a01b03818116600090815260036020526040902060070154163314610ff85760405162461bcd60e51b81526004016106da90612ebb565b6001600160a01b038116600081815260036020908152604091829020600601805460ff60a81b1916600160a81b1790558151338152908101929092527f91f5df1a13ccd890776a683fdcef0b553ce7ac24fbe9609bb51aeb9fefed82a49101610e44565b60055460405163601c214960e11b81523360048201526001600160a01b039091169063c038429290602401602060405180830381865afa1580156110a4573d6000803e3d6000fd5b505050506040513d601f19601f820116820180604052508101906110c89190612dd4565b6110e45760405162461bcd60e51b81526004016106da90612df1565b6001600160a01b038181166000908152600360205260409020600701541633146111205760405162461bcd60e51b81526004016106da90612ebb565b6001600160a01b038116600081815260036020908152604091829020600601805460ff60a81b191690558151338152908101929092527f4807c3daa091febea14280167243bd513929ce4fe91170ef6536aebad0ede29b9101610e44565b611186612946565b6001600160a01b038316600090815260036020526040902060060154600160b01b900460ff1615156001146111cd5760405162461bcd60e51b81526004016106da90612e8b565b506001600160a01b0380831660009081526001602081815260408084206001600160801b0387168552825280842054851684526003808352938190208151610160810183528154815293810154928401929092526002820154908301529182015460ff908116606083015260048301546080830152600583015460a0830152600683015480851660c0840152600160a01b81048216151560e0840152600160a81b810482161515610100840152600160b01b90041615156101208201526007909101549091166101408201525b92915050565b60055460405163601c214960e11b81523360048201526001600160a01b039091169063c038429290602401602060405180830381865afa1580156112e8573d6000803e3d6000fd5b505050506040513d601f19601f8201168201806040525081019061130c9190612dd4565b6113285760405162461bcd60e51b81526004016106da90612df1565b3360009081526001602090815260408083206001600160801b03851684529091529020546001600160a01b03166113715760405162461bcd60e51b81526004016106da90612e8b565b336000818152600260209081526040808320600183528184206001600160801b03871680865281855283862080546001600160a01b0316875292855283862080546001600160801b031916905594859052835280546001600160a01b03191690558051938452908301919091527f4edb2517e4d5299dd19c1ce662d404d108ffed8f91bc76838771edae5fac7c439101610e44565b60065460405163038c332960e51b81523360048201526001600160a01b0390911690637186652090602401602060405180830381865afa15801561144e573d6000803e3d6000fd5b505050506040513d601f19601f820116820180604052508101906114729190612dd4565b61148e5760405162461bcd60e51b81526004016106da90612df1565b600680546001600160a01b03908116600090815260026020818152604080842060c08801805187168652908352600160e089018181526101008a018781526101208b0183815284518a1689526003808852868a206007908101548c166101408f0190815287518d168c52828a529a8890208e518155988e0151958901959095558c8701519888019890985560608c0151978701805460ff191660ff9099169890981790975560808b0151600487015560a08b01516005870155925198850180549151935196519989166001600160a81b031990921691909117600160a01b931515939093029290921761ffff60a81b1916600160a81b9515159590950260ff60b01b191694909417600160b01b97151597909702969096179095559151910180546001600160a01b03191691909216179055517f7ef1a4c6cd6954cc6f68ac195814a83775046e46054eb12bf4b6619ba234f58b90610e44908390612ce7565b60065460405163038c332960e51b81523360048201526001600160a01b0390911690637186652090602401602060405180830381865afa158015611636573d6000803e3d6000fd5b505050506040513d601f19601f8201168201806040525081019061165a9190612dd4565b6116765760405162461bcd60e51b81526004016106da90612df1565b6006546001600160a01b0390811660009081526002602090815260408083209385168352929052205460016001600160801b0390911610156116ca5760405162461bcd60e51b81526004016106da90612e8b565b600680546001600160a01b0390811660009081526001602090815260408083206002808452828520888716808752908552838620546001600160801b0316865291845282852080546001600160a01b03191690559554909416835293815283822083835281529083902080546001600160801b031916905591519081527f95fb8f03172737716db3e279a3cafdb96c41b3ff1ca3cedc215a7770838c1c5b9101610e44565b60055460405163601c214960e11b81523360048201526001600160a01b039091169063c038429290602401602060405180830381865afa1580156117b7573d6000803e3d6000fd5b505050506040513d601f19601f820116820180604052508101906117db9190612dd4565b6117f75760405162461bcd60e51b81526004016106da90612df1565b3360009081526002602090815260408083206001600160a01b038516845290915290205460016001600160801b0390911610156118465760405162461bcd60e51b81526004016106da90612e8b565b336000818152600160209081526040808320600283528184206001600160a01b03871680865281855283862080546001600160801b0316875292855283862080546001600160a01b031916905594859052835280546001600160801b03191690558051938452908301919091527fad5eeaa2ee1bef6674ecea21b9329a0a9333380eaf145a4b888951038c8aa40c9101610e44565b60065460405163038c332960e51b81523360048201526001600160a01b0390911690637186652090602401602060405180830381865afa158015611923573d6000803e3d6000fd5b505050506040513d601f19601f820116820180604052508101906119479190612dd4565b6119635760405162461bcd60e51b81526004016106da90612df1565b60c08101516001600160a01b0316600090815260036020526040902060060154600160b01b900460ff1615156001036119cf5760405162461bcd60e51b815260206004820152600e60248201526d1d1a194818dbda5b88195e1a5cdd60921b60448201526064016106da565b33610140820152600060e082018190526001610100830181905261012083018190526006546001600160a01b0316825260208290526040909120546001600160801b0316908110801590611a3f57506001600160801b038116611a33826001612e38565b6001600160801b031610155b15611a5657611a4f600182612e38565b9050611a5a565b5060015b600680546001600160a01b0390811660009081526020818152604080832080546001600160801b0388166001600160801b0319918216811790925560c089018051885488168752600180875285882085895287528588208054928a166001600160a01b0319938416179055895489168852600280885286892084518b168a52885286892080549095169095179093558151881687526003808752968590208b518155958b01519286019290925589840151928501929092556060890151948401805460ff90961660ff19909616959095179094556080880151600484015560a0880151600584015551948201805460e08901516101008a01516101208b01511515600160b01b0260ff60b01b19911515600160a81b029190911661ffff60a81b19921515600160a01b026001600160a81b0319909416998916999099179290921716969096179590951790945561014086015160079091018054919093169116179055517f3fdeabf9cf0f252033e117e3bf501c16a9e905759535453a989a37bbb55557cb90610acb908490612ce7565b60065460405163038c332960e51b81523360048201526001600160a01b0390911690637186652090602401602060405180830381865afa158015611c33573d6000803e3d6000fd5b505050506040513d601f19601f82011682018060405250810190611c579190612dd4565b611c735760405162461bcd60e51b81526004016106da90612df1565b6001600160a01b038116600081815260036020908152604091829020600601805460ff60a01b1916905590519182527f1d4523355c952f926d43eb41085d74f46339403039ec5258081efa96ea26edd79101610e44565b6007546001600160a01b03163314611d245760405162461bcd60e51b815260206004820152601960248201527f796f7520617265206e6f74206d61726b6574637265617465720000000000000060448201526064016106da565b600680546001600160a01b039485166001600160a01b031991821617909155600580549385169382169390931790925560078054919093169116179055565b60055460405163601c214960e11b81523360048201526001600160a01b039091169063c038429290602401602060405180830381865afa158015611dab573d6000803e3d6000fd5b505050506040513d601f19601f82011682018060405250810190611dcf9190612dd4565b611deb5760405162461bcd60e51b81526004016106da90612df1565b6001600160a01b03818116600090815260036020526040902060070154163314611e275760405162461bcd60e51b81526004016106da90612ebb565b6001600160a01b0381166000908152600360208190526040918290208981556001810189905560028101889055908101805460ff191660ff8816179055600481018590556005810184905590517fe2cf3d7794282be7dd508f8c88ca5394f0abe2b9f09b848306b1eadd0becdf9491611ea291339190612eeb565b60405180910390a150505050505050565b60055460405163601c214960e11b81523360048201526001600160a01b039091169063c038429290602401602060405180830381865afa158015611efb573d6000803e3d6000fd5b505050506040513d601f19601f82011682018060405250810190611f1f9190612dd4565b611f3b5760405162461bcd60e51b81526004016106da90612df1565b80516001600160a01b03908116600090815260036020526040902060070154163314610db15760405162461bcd60e51b815260206004820152601c60248201527f796f75206973206e6f7420746865207468696e6720637265617465720000000060448201526064016106da565b60055460405163601c214960e11b81523360048201526001600160a01b039091169063c038429290602401602060405180830381865afa158015611ff1573d6000803e3d6000fd5b505050506040513d601f19601f820116820180604052508101906120159190612dd4565b6120315760405162461bcd60e51b81526004016106da90612df1565b60c08101516001600160a01b0316600090815260036020526040902060060154600160b01b900460ff1615156001036120a15760405162461bcd60e51b81526020600482015260126024820152711d1a194818dbda5b881a5cc808195e1a5cdd60721b60448201526064016106da565b336101408201819052600060e08301819052610100830181905260016101208401819052918152602081905260409020546001600160801b0316108015906121145750336000908152602081905260409020546001600160801b0316612108816001612e38565b6001600160801b031610155b1561216b573360009081526020819052604081208054600192906121429084906001600160801b0316612e38565b92506101000a8154816001600160801b0302191690836001600160801b0316021790555061218c565b33600090815260208190526040902080546001600160801b03191660011790555b60c08101805133600081815260016020818152604080842084835281852080546001600160801b03908116875291845282862080546001600160a01b03998a166001600160a01b031991821617909155878752905460028086528488208b518b168952865284882080546001600160801b03191692909416919091179092558851881686526003808552958390208a518155938a01519484019490945581890151908301556060880151938201805460ff90951660ff19909516949094179093556080870151600482015560a08701516005820155945160068601805460e08901516101008a01516101208b01511515600160b01b0260ff60b01b19911515600160a81b029190911661ffff60a81b19921515600160a01b026001600160a81b0319909416958a1695909517929092171692909217919091179055610140860151600790950180549590941694169390931790915590517f724ed868ad6195ec663de17364300ee1e1956f27f184ceb84f2be30d1fd58d6591610e44918490612e6d565b612318612946565b6001600160a01b038216600090815260036020526040902060060154600160b01b900460ff16151560011461235f5760405162461bcd60e51b81526004016106da90612e8b565b506001600160a01b03908116600090815260036020818152604092839020835161016081018552815481526001820154928101929092526002810154938201939093529082015460ff908116606083015260048301546080830152600583015460a0830152600683015480851660c0840152600160a01b81048216151560e0840152600160a81b810482161515610100840152600160b01b900416151561012082015260079091015490911661014082015290565b60065460405163038c332960e51b81523360048201526001600160a01b0390911690637186652090602401602060405180830381865afa15801561245c573d6000803e3d6000fd5b505050506040513d601f19601f820116820180604052508101906124809190612dd4565b61249c5760405162461bcd60e51b81526004016106da90612df1565b6006546001600160a01b0390811660009081526001602090815260408083206001600160801b0386168452909152902054166124ea5760405162461bcd60e51b81526004016106da90612e8b565b600680546001600160a01b03908116600090815260026020908152604080832060018084528285206001600160801b038916808752908552838620548716865291845282852080546001600160801b03191690559554909416835293815283822083835281529083902080546001600160a01b031916905591519081527f5f7c082ccca0f36ec2622a3f2d11cf4a4b3a0db0557669195572256a1db6be989101610e44565b60065460405163038c332960e51b81523360048201526001600160a01b0390911690637186652090602401602060405180830381865afa1580156125d7573d6000803e3d6000fd5b505050506040513d601f19601f820116820180604052508101906125fb9190612dd4565b6126175760405162461bcd60e51b81526004016106da90612df1565b60c08201516001600160a01b0316600090815260036020526040902060060154600160b01b900460ff1615156001036126835760405162461bcd60e51b815260206004820152600e60248201526d1d1a194818dbda5b88195e1a5cdd60921b60448201526064016106da565b33610140830152600060e083018190526001610100840181905261012084018190526006546001600160a01b0316825260208290526040909120546001600160801b03169081108015906126f357506001600160801b0381166126e7826001612e38565b6001600160801b031610155b1561270a57612703600182612e38565b905061270e565b5060015b600680546001600160a01b0390811660009081526020818152604080832080546001600160801b0388166001600160801b0319918216811790925560c08a018051885488168752600180875285882085895287528588208054928a166001600160a01b0319938416179055895489168852600280885286892084518b168a52885286892080549095169095179093558151881687526003808752968590208c518155958c0151928601929092558a8401519285019290925560608a0151948401805460ff90961660ff19909616959095179094556080890151600484015560a0890151600584015551948201805460e08a01516101008b01516101208c01511515600160b01b0260ff60b01b19911515600160a81b029190911661ffff60a81b19921515600160a01b026001600160a81b0319909416998916999099179290921716969096179590951790945561014087015160079091018054919093169116179055517f3fdeabf9cf0f252033e117e3bf501c16a9e905759535453a989a37bbb55557cb9061289f908590612ce7565b60405180910390a181516001600160a01b03908116600090815260046020818152604092839020865181546001600160a01b031916951694851781558187015160018201558387015160028201556060870151600382015560808701519281019290925560a086015160059092019190915590519182527f28995a3cc31b8867e272bf05bb4f577da5e81799e17cf729d123edf7c2a7ca94910160405180910390a1505050565b6040805161016081018252600080825260208201819052918101829052606081018290526080810182905260a0810182905260c0810182905260e081018290526101008101829052610120810182905261014081019190915290565b604051610160810167ffffffffffffffff811182821017156129d457634e487b7160e01b600052604160045260246000fd5b60405290565b803560ff811681146129eb57600080fd5b919050565b80356001600160a01b03811681146129eb57600080fd5b8015158114612a1557600080fd5b50565b80356129eb81612a07565b60006101608284031215612a3657600080fd5b612a3e6129a2565b9050813581526020820135602082015260408201356040820152612a64606083016129da565b60608201526080820135608082015260a082013560a0820152612a8960c083016129f0565b60c0820152612a9a60e08301612a18565b60e0820152610100612aad818401612a18565b90820152610120612abf838201612a18565b90820152610140612ad18382016129f0565b9082015292915050565b600060c08284031215612aed57600080fd5b60405160c0810181811067ffffffffffffffff82111715612b1e57634e487b7160e01b600052604160045260246000fd5b604052905080612b2d836129f0565b81526020830135602082015260408301356040820152606083013560608201526080830135608082015260a083013560a08201525092915050565b6000806102208385031215612b7c57600080fd5b612b868484612a23565b9150612b96846101608501612adb565b90509250929050565b600060208284031215612bb157600080fd5b612bba826129f0565b9392505050565b600060c08284031215612bd357600080fd5b612bba8383612adb565b60008060408385031215612bf057600080fd5b612bf9836129f0565b9150612b96602084016129f0565b80356001600160801b03811681146129eb57600080fd5b60008060408385031215612c3157600080fd5b612c3a836129f0565b9150612b9660208401612c07565b8051825260208101516020830152604081015160408301526060810151612c74606084018260ff169052565b506080810151608083015260a081015160a083015260c0810151612ca360c08401826001600160a01b03169052565b5060e0810151612cb760e084018215159052565b506101008181015115159083015261012080820151151590830152610140908101516001600160a01b0316910152565b610160810161129a8284612c48565b600060208284031215612d0857600080fd5b612bba82612c07565b60006101608284031215612d2457600080fd5b612bba8383612a23565b600080600060608486031215612d4357600080fd5b612d4c846129f0565b9250612d5a602085016129f0565b9150612d68604085016129f0565b90509250925092565b600080600080600080600060e0888a031215612d8c57600080fd5b873596506020880135955060408801359450612daa606089016129da565b93506080880135925060a08801359150612dc660c089016129f0565b905092959891949750929550565b600060208284031215612de657600080fd5b8151612bba81612a07565b60208082526027908201527f7468652063616c6c6572206d7573742062652076616c6964206d61726b65742060408201526636b0b730b3b2b960c91b606082015260800190565b6001600160801b03818116838216019080821115612e6657634e487b7160e01b600052601160045260246000fd5b5092915050565b6001600160a01b03831681526101808101612bba6020830184612c48565b60208082526016908201527574686520636f696e206973206e6f742065786973747360501b604082015260600190565b6020808252601690820152751e5bdd481a185d99481b9bdd081d1a19481c9a59da1d60521b604082015260600190565b6001600160a01b03838116825282546020830152600183015460408301526002830154606083015260038301546101808301919060ff1660ff8116608085015250600484015460a0840152600584015460c084015260068401546001600160a01b038282161660e0850152612f6b610100850160ff8360a01c1615159052565b612f80610120850160ff8360a81c1615159052565b612f95610140850160ff8360b01c1615159052565b5050600792909201546001600160a01b0316610160919091015291905056fea264697066735822122029228487629944f5f16222dab5aa2111cb469c7b972673b9f990be7fa1375a0f64736f6c63430008120033",
			"opcodes": "PUSH1 0x80 PUSH1 0x40 MSTORE CALLVALUE DUP1 ISZERO PUSH3 0x11 JUMPI PUSH1 0x0 DUP1 REVERT JUMPDEST POP PUSH1 0x40 MLOAD PUSH3 0x30D8 CODESIZE SUB DUP1 PUSH3 0x30D8 DUP4 CODECOPY DUP2 ADD PUSH1 0x40 DUP2 SWAP1 MSTORE PUSH3 0x34 SWAP2 PUSH3 0x94 JUMP JUMPDEST PUSH1 0x5 DUP1 SLOAD PUSH1 0x1 PUSH1 0x1 PUSH1 0xA0 SHL SUB SWAP5 DUP6 AND PUSH1 0x1 PUSH1 0x1 PUSH1 0xA0 SHL SUB NOT SWAP2 DUP3 AND OR SWAP1 SWAP2 SSTORE PUSH1 0x6 DUP1 SLOAD SWAP4 DUP6 AND SWAP4 DUP3 AND SWAP4 SWAP1 SWAP4 OR SWAP1 SWAP3 SSTORE PUSH1 0x7 DUP1 SLOAD SWAP2 SWAP1 SWAP4 AND SWAP2 AND OR SWAP1 SSTORE PUSH3 0xDE JUMP JUMPDEST DUP1 MLOAD PUSH1 0x1 PUSH1 0x1 PUSH1 0xA0 SHL SUB DUP2 AND DUP2 EQ PUSH3 0x8F JUMPI PUSH1 0x0 DUP1 REVERT JUMPDEST SWAP2 SWAP1 POP JUMP JUMPDEST PUSH1 0x0 DUP1 PUSH1 0x0 PUSH1 0x60 DUP5 DUP7 SUB SLT ISZERO PUSH3 0xAA JUMPI PUSH1 0x0 DUP1 REVERT JUMPDEST PUSH3 0xB5 DUP5 PUSH3 0x77 JUMP JUMPDEST SWAP3 POP PUSH3 0xC5 PUSH1 0x20 DUP6 ADD PUSH3 0x77 JUMP JUMPDEST SWAP2 POP PUSH3 0xD5 PUSH1 0x40 DUP6 ADD PUSH3 0x77 JUMP JUMPDEST SWAP1 POP SWAP3 POP SWAP3 POP SWAP3 JUMP JUMPDEST PUSH2 0x2FEA DUP1 PUSH3 0xEE PUSH1 0x0 CODECOPY PUSH1 0x0 RETURN INVALID PUSH1 0x80 PUSH1 0x40 MSTORE CALLVALUE DUP1 ISZERO PUSH2 0x10 JUMPI PUSH1 0x0 DUP1 REVERT JUMPDEST POP PUSH1 0x4 CALLDATASIZE LT PUSH2 0x1DA JUMPI PUSH1 0x0 CALLDATALOAD PUSH1 0xE0 SHR DUP1 PUSH4 0x690E1784 GT PUSH2 0x104 JUMPI DUP1 PUSH4 0xB244CB29 GT PUSH2 0xA2 JUMPI DUP1 PUSH4 0xD25B9E58 GT PUSH2 0x71 JUMPI DUP1 PUSH4 0xD25B9E58 EQ PUSH2 0x5F0 JUMPI DUP1 PUSH4 0xD848B5BA EQ PUSH2 0x603 JUMPI DUP1 PUSH4 0xF022F417 EQ PUSH2 0x62C JUMPI DUP1 PUSH4 0xF8EEB665 EQ PUSH2 0x63F JUMPI PUSH1 0x0 DUP1 REVERT JUMPDEST DUP1 PUSH4 0xB244CB29 EQ PUSH2 0x5A4 JUMPI DUP1 PUSH4 0xC23A9DA2 EQ PUSH2 0x5B7 JUMPI DUP1 PUSH4 0xC6E39898 EQ PUSH2 0x5CA JUMPI DUP1 PUSH4 0xD04DC91E EQ PUSH2 0x5DD JUMPI PUSH1 0x0 DUP1 REVERT JUMPDEST DUP1 PUSH4 0x7C3E2F02 GT PUSH2 0xDE JUMPI DUP1 PUSH4 0x7C3E2F02 EQ PUSH2 0x558 JUMPI DUP1 PUSH4 0x92A59F1F EQ PUSH2 0x56B JUMPI DUP1 PUSH4 0x9E2C608C EQ PUSH2 0x57E JUMPI DUP1 PUSH4 0xB20BE2B4 EQ PUSH2 0x591 JUMPI PUSH1 0x0 DUP1 REVERT JUMPDEST DUP1 PUSH4 0x690E1784 EQ PUSH2 0x48D JUMPI DUP1 PUSH4 0x6CEDF640 EQ PUSH2 0x4C1 JUMPI DUP1 PUSH4 0x798FDAFA EQ PUSH2 0x545 JUMPI PUSH1 0x0 DUP1 REVERT JUMPDEST DUP1 PUSH4 0x385E4B7A GT PUSH2 0x17C JUMPI DUP1 PUSH4 0x47D0A634 GT PUSH2 0x14B JUMPI DUP1 PUSH4 0x47D0A634 EQ PUSH2 0x434 JUMPI DUP1 PUSH4 0x492B7107 EQ PUSH2 0x447 JUMPI DUP1 PUSH4 0x54D39318 EQ PUSH2 0x45A JUMPI DUP1 PUSH4 0x5E2C9314 EQ PUSH2 0x47A JUMPI PUSH1 0x0 DUP1 REVERT JUMPDEST DUP1 PUSH4 0x385E4B7A EQ PUSH2 0x390 JUMPI DUP1 PUSH4 0x3E68D831 EQ PUSH2 0x3A3 JUMPI DUP1 PUSH4 0x40E7BDC3 EQ PUSH2 0x3EF JUMPI DUP1 PUSH4 0x441EB548 EQ PUSH2 0x421 JUMPI PUSH1 0x0 DUP1 REVERT JUMPDEST DUP1 PUSH4 0x1D3B8F67 GT PUSH2 0x1B8 JUMPI DUP1 PUSH4 0x1D3B8F67 EQ PUSH2 0x21A JUMPI DUP1 PUSH4 0x27CBAABE EQ PUSH2 0x22D JUMPI DUP1 PUSH4 0x31ECDEB8 EQ PUSH2 0x25D JUMPI DUP1 PUSH4 0x328320BF EQ PUSH2 0x34A JUMPI PUSH1 0x0 DUP1 REVERT JUMPDEST DUP1 PUSH4 0x7CB20E8 EQ PUSH2 0x1DF JUMPI DUP1 PUSH4 0x11CFA0BC EQ PUSH2 0x1F4 JUMPI DUP1 PUSH4 0x128E641D EQ PUSH2 0x207 JUMPI JUMPDEST PUSH1 0x0 DUP1 REVERT JUMPDEST PUSH2 0x1F2 PUSH2 0x1ED CALLDATASIZE PUSH1 0x4 PUSH2 0x2B68 JUMP JUMPDEST PUSH2 0x652 JUMP JUMPDEST STOP JUMPDEST PUSH2 0x1F2 PUSH2 0x202 CALLDATASIZE PUSH1 0x4 PUSH2 0x2B9F JUMP JUMPDEST PUSH2 0xAD7 JUMP JUMPDEST PUSH2 0x1F2 PUSH2 0x215 CALLDATASIZE PUSH1 0x4 PUSH2 0x2BC1 JUMP JUMPDEST PUSH2 0xD29 JUMP JUMPDEST PUSH2 0x1F2 PUSH2 0x228 CALLDATASIZE PUSH1 0x4 PUSH2 0x2B9F JUMP JUMPDEST PUSH2 0xE4F JUMP JUMPDEST PUSH1 0x7 SLOAD PUSH2 0x240 SWAP1 PUSH1 0x1 PUSH1 0x1 PUSH1 0xA0 SHL SUB AND DUP2 JUMP JUMPDEST PUSH1 0x40 MLOAD PUSH1 0x1 PUSH1 0x1 PUSH1 0xA0 SHL SUB SWAP1 SWAP2 AND DUP2 MSTORE PUSH1 0x20 ADD JUMPDEST PUSH1 0x40 MLOAD DUP1 SWAP2 SUB SWAP1 RETURN JUMPDEST PUSH2 0x2E0 PUSH2 0x26B CALLDATASIZE PUSH1 0x4 PUSH2 0x2B9F JUMP JUMPDEST PUSH1 0x3 PUSH1 0x20 DUP2 SWAP1 MSTORE PUSH1 0x0 SWAP2 DUP3 MSTORE PUSH1 0x40 SWAP1 SWAP2 KECCAK256 DUP1 SLOAD PUSH1 0x1 DUP3 ADD SLOAD PUSH1 0x2 DUP4 ADD SLOAD SWAP4 DUP4 ADD SLOAD PUSH1 0x4 DUP5 ADD SLOAD PUSH1 0x5 DUP6 ADD SLOAD PUSH1 0x6 DUP7 ADD SLOAD PUSH1 0x7 SWAP1 SWAP7 ADD SLOAD SWAP5 SWAP7 SWAP4 SWAP6 SWAP4 SWAP5 PUSH1 0xFF SWAP4 DUP5 AND SWAP5 SWAP3 SWAP4 SWAP2 SWAP3 PUSH1 0x1 PUSH1 0x1 PUSH1 0xA0 SHL SUB DUP1 DUP3 AND SWAP4 PUSH1 0x1 PUSH1 0xA0 SHL DUP4 DIV DUP2 AND SWAP4 PUSH1 0x1 PUSH1 0xA8 SHL DUP5 DIV DUP3 AND SWAP4 PUSH1 0x1 PUSH1 0xB0 SHL SWAP1 DIV SWAP1 SWAP2 AND SWAP2 AND DUP12 JUMP JUMPDEST PUSH1 0x40 DUP1 MLOAD SWAP12 DUP13 MSTORE PUSH1 0x20 DUP13 ADD SWAP11 SWAP1 SWAP11 MSTORE SWAP9 DUP11 ADD SWAP8 SWAP1 SWAP8 MSTORE PUSH1 0xFF SWAP1 SWAP6 AND PUSH1 0x60 DUP10 ADD MSTORE PUSH1 0x80 DUP9 ADD SWAP4 SWAP1 SWAP4 MSTORE PUSH1 0xA0 DUP8 ADD SWAP2 SWAP1 SWAP2 MSTORE PUSH1 0x1 PUSH1 0x1 PUSH1 0xA0 SHL SUB SWAP1 DUP2 AND PUSH1 0xC0 DUP8 ADD MSTORE SWAP1 ISZERO ISZERO PUSH1 0xE0 DUP7 ADD MSTORE SWAP1 ISZERO ISZERO PUSH2 0x100 DUP6 ADD MSTORE SWAP1 ISZERO ISZERO PUSH2 0x120 DUP5 ADD MSTORE AND PUSH2 0x140 DUP3 ADD MSTORE PUSH2 0x160 ADD PUSH2 0x254 JUMP JUMPDEST PUSH2 0x380 PUSH2 0x358 CALLDATASIZE PUSH1 0x4 PUSH2 0x2B9F JUMP JUMPDEST PUSH1 0x1 PUSH1 0x1 PUSH1 0xA0 SHL SUB AND PUSH1 0x0 SWAP1 DUP2 MSTORE PUSH1 0x3 PUSH1 0x20 MSTORE PUSH1 0x40 SWAP1 KECCAK256 PUSH1 0x6 ADD SLOAD PUSH1 0x1 PUSH1 0xA0 SHL SWAP1 DIV PUSH1 0xFF AND SWAP1 JUMP JUMPDEST PUSH1 0x40 MLOAD SWAP1 ISZERO ISZERO DUP2 MSTORE PUSH1 0x20 ADD PUSH2 0x254 JUMP JUMPDEST PUSH2 0x1F2 PUSH2 0x39E CALLDATASIZE PUSH1 0x4 PUSH2 0x2B9F JUMP JUMPDEST PUSH2 0xF34 JUMP JUMPDEST PUSH2 0x3D7 PUSH2 0x3B1 CALLDATASIZE PUSH1 0x4 PUSH2 0x2BDD JUMP JUMPDEST PUSH1 0x2 PUSH1 0x20 SWAP1 DUP2 MSTORE PUSH1 0x0 SWAP3 DUP4 MSTORE PUSH1 0x40 DUP1 DUP5 KECCAK256 SWAP1 SWAP2 MSTORE SWAP1 DUP3 MSTORE SWAP1 KECCAK256 SLOAD PUSH1 0x1 PUSH1 0x1 PUSH1 0x80 SHL SUB AND DUP2 JUMP JUMPDEST PUSH1 0x40 MLOAD PUSH1 0x1 PUSH1 0x1 PUSH1 0x80 SHL SUB SWAP1 SWAP2 AND DUP2 MSTORE PUSH1 0x20 ADD PUSH2 0x254 JUMP JUMPDEST PUSH2 0x3D7 PUSH2 0x3FD CALLDATASIZE PUSH1 0x4 PUSH2 0x2B9F JUMP JUMPDEST PUSH1 0x1 PUSH1 0x1 PUSH1 0xA0 SHL SUB AND PUSH1 0x0 SWAP1 DUP2 MSTORE PUSH1 0x20 DUP2 SWAP1 MSTORE PUSH1 0x40 SWAP1 KECCAK256 SLOAD PUSH1 0x1 PUSH1 0x1 PUSH1 0x80 SHL SUB AND SWAP1 JUMP JUMPDEST PUSH2 0x1F2 PUSH2 0x42F CALLDATASIZE PUSH1 0x4 PUSH2 0x2B9F JUMP JUMPDEST PUSH2 0x105C JUMP JUMPDEST PUSH1 0x5 SLOAD PUSH2 0x240 SWAP1 PUSH1 0x1 PUSH1 0x1 PUSH1 0xA0 SHL SUB AND DUP2 JUMP JUMPDEST PUSH1 0x6 SLOAD PUSH2 0x240 SWAP1 PUSH1 0x1 PUSH1 0x1 PUSH1 0xA0 SHL SUB AND DUP2 JUMP JUMPDEST PUSH2 0x46D PUSH2 0x468 CALLDATASIZE PUSH1 0x4 PUSH2 0x2C1E JUMP JUMPDEST PUSH2 0x117E JUMP JUMPDEST PUSH1 0x40 MLOAD PUSH2 0x254 SWAP2 SWAP1 PUSH2 0x2CE7 JUMP JUMPDEST PUSH2 0x1F2 PUSH2 0x488 CALLDATASIZE PUSH1 0x4 PUSH2 0x2CF6 JUMP JUMPDEST PUSH2 0x12A0 JUMP JUMPDEST PUSH2 0x240 PUSH2 0x49B CALLDATASIZE PUSH1 0x4 PUSH2 0x2C1E JUMP JUMPDEST PUSH1 0x1 PUSH1 0x20 SWAP1 DUP2 MSTORE PUSH1 0x0 SWAP3 DUP4 MSTORE PUSH1 0x40 DUP1 DUP5 KECCAK256 SWAP1 SWAP2 MSTORE SWAP1 DUP3 MSTORE SWAP1 KECCAK256 SLOAD PUSH1 0x1 PUSH1 0x1 PUSH1 0xA0 SHL SUB AND DUP2 JUMP JUMPDEST PUSH2 0x50E PUSH2 0x4CF CALLDATASIZE PUSH1 0x4 PUSH2 0x2B9F JUMP JUMPDEST PUSH1 0x4 PUSH1 0x20 DUP2 SWAP1 MSTORE PUSH1 0x0 SWAP2 DUP3 MSTORE PUSH1 0x40 SWAP1 SWAP2 KECCAK256 DUP1 SLOAD PUSH1 0x1 DUP3 ADD SLOAD PUSH1 0x2 DUP4 ADD SLOAD PUSH1 0x3 DUP5 ADD SLOAD SWAP5 DUP5 ADD SLOAD PUSH1 0x5 SWAP1 SWAP5 ADD SLOAD PUSH1 0x1 PUSH1 0x1 PUSH1 0xA0 SHL SUB SWAP1 SWAP4 AND SWAP5 SWAP2 SWAP4 SWAP1 SWAP3 DUP7 JUMP JUMPDEST PUSH1 0x40 DUP1 MLOAD PUSH1 0x1 PUSH1 0x1 PUSH1 0xA0 SHL SUB SWAP1 SWAP8 AND DUP8 MSTORE PUSH1 0x20 DUP8 ADD SWAP6 SWAP1 SWAP6 MSTORE SWAP4 DUP6 ADD SWAP3 SWAP1 SWAP3 MSTORE PUSH1 0x60 DUP5 ADD MSTORE PUSH1 0x80 DUP4 ADD MSTORE PUSH1 0xA0 DUP3 ADD MSTORE PUSH1 0xC0 ADD PUSH2 0x254 JUMP JUMPDEST PUSH2 0x1F2 PUSH2 0x553 CALLDATASIZE PUSH1 0x4 PUSH2 0x2D11 JUMP JUMPDEST PUSH2 0x1406 JUMP JUMPDEST PUSH2 0x1F2 PUSH2 0x566 CALLDATASIZE PUSH1 0x4 PUSH2 0x2B9F JUMP JUMPDEST PUSH2 0x15EE JUMP JUMPDEST PUSH2 0x1F2 PUSH2 0x579 CALLDATASIZE PUSH1 0x4 PUSH2 0x2B9F JUMP JUMPDEST PUSH2 0x176F JUMP JUMPDEST PUSH2 0x1F2 PUSH2 0x58C CALLDATASIZE PUSH1 0x4 PUSH2 0x2D11 JUMP JUMPDEST PUSH2 0x18DB JUMP JUMPDEST PUSH2 0x1F2 PUSH2 0x59F CALLDATASIZE PUSH1 0x4 PUSH2 0x2B9F JUMP JUMPDEST PUSH2 0x1BEB JUMP JUMPDEST PUSH2 0x1F2 PUSH2 0x5B2 CALLDATASIZE PUSH1 0x4 PUSH2 0x2D2E JUMP JUMPDEST PUSH2 0x1CCA JUMP JUMPDEST PUSH2 0x1F2 PUSH2 0x5C5 CALLDATASIZE PUSH1 0x4 PUSH2 0x2D71 JUMP JUMPDEST PUSH2 0x1D63 JUMP JUMPDEST PUSH2 0x1F2 PUSH2 0x5D8 CALLDATASIZE PUSH1 0x4 PUSH2 0x2BC1 JUMP JUMPDEST PUSH2 0x1EB3 JUMP JUMPDEST PUSH2 0x1F2 PUSH2 0x5EB CALLDATASIZE PUSH1 0x4 PUSH2 0x2D11 JUMP JUMPDEST PUSH2 0x1FA9 JUMP JUMPDEST PUSH2 0x46D PUSH2 0x5FE CALLDATASIZE PUSH1 0x4 PUSH2 0x2B9F JUMP JUMPDEST PUSH2 0x2310 JUMP JUMPDEST PUSH2 0x3D7 PUSH2 0x611 CALLDATASIZE PUSH1 0x4 PUSH2 0x2B9F JUMP JUMPDEST PUSH1 0x0 PUSH1 0x20 DUP2 SWAP1 MSTORE SWAP1 DUP2 MSTORE PUSH1 0x40 SWAP1 KECCAK256 SLOAD PUSH1 0x1 PUSH1 0x1 PUSH1 0x80 SHL SUB AND DUP2 JUMP JUMPDEST PUSH2 0x1F2 PUSH2 0x63A CALLDATASIZE PUSH1 0x4 PUSH2 0x2CF6 JUMP JUMPDEST PUSH2 0x2414 JUMP JUMPDEST PUSH2 0x1F2 PUSH2 0x64D CALLDATASIZE PUSH1 0x4 PUSH2 0x2B68 JUMP JUMPDEST PUSH2 0x258F JUMP JUMPDEST PUSH1 0x5 SLOAD PUSH1 0x40 MLOAD PUSH4 0x601C2149 PUSH1 0xE1 SHL DUP2 MSTORE CALLER PUSH1 0x4 DUP3 ADD MSTORE PUSH1 0x1 PUSH1 0x1 PUSH1 0xA0 SHL SUB SWAP1 SWAP2 AND SWAP1 PUSH4 0xC0384292 SWAP1 PUSH1 0x24 ADD PUSH1 0x20 PUSH1 0x40 MLOAD DUP1 DUP4 SUB DUP2 DUP7 GAS STATICCALL ISZERO DUP1 ISZERO PUSH2 0x69A JUMPI RETURNDATASIZE PUSH1 0x0 DUP1 RETURNDATACOPY RETURNDATASIZE PUSH1 0x0 REVERT JUMPDEST POP POP POP POP PUSH1 0x40 MLOAD RETURNDATASIZE PUSH1 0x1F NOT PUSH1 0x1F DUP3 ADD AND DUP3 ADD DUP1 PUSH1 0x40 MSTORE POP DUP2 ADD SWAP1 PUSH2 0x6BE SWAP2 SWAP1 PUSH2 0x2DD4 JUMP JUMPDEST PUSH2 0x6E3 JUMPI PUSH1 0x40 MLOAD PUSH3 0x461BCD PUSH1 0xE5 SHL DUP2 MSTORE PUSH1 0x4 ADD PUSH2 0x6DA SWAP1 PUSH2 0x2DF1 JUMP JUMPDEST PUSH1 0x40 MLOAD DUP1 SWAP2 SUB SWAP1 REVERT JUMPDEST PUSH1 0xC0 DUP3 ADD MLOAD PUSH1 0x1 PUSH1 0x1 PUSH1 0xA0 SHL SUB AND PUSH1 0x0 SWAP1 DUP2 MSTORE PUSH1 0x3 PUSH1 0x20 MSTORE PUSH1 0x40 SWAP1 KECCAK256 PUSH1 0x6 ADD SLOAD PUSH1 0x1 PUSH1 0xB0 SHL SWAP1 DIV PUSH1 0xFF AND ISZERO ISZERO PUSH1 0x1 SUB PUSH2 0x753 JUMPI PUSH1 0x40 MLOAD PUSH3 0x461BCD PUSH1 0xE5 SHL DUP2 MSTORE PUSH1 0x20 PUSH1 0x4 DUP3 ADD MSTORE PUSH1 0x12 PUSH1 0x24 DUP3 ADD MSTORE PUSH18 0x1D1A194818DBDA5B881A5CC808195E1A5CDD PUSH1 0x72 SHL PUSH1 0x44 DUP3 ADD MSTORE PUSH1 0x64 ADD PUSH2 0x6DA JUMP JUMPDEST CALLER PUSH2 0x140 DUP4 ADD DUP2 SWAP1 MSTORE PUSH1 0x0 PUSH1 0xE0 DUP5 ADD DUP2 SWAP1 MSTORE PUSH2 0x100 DUP5 ADD DUP2 SWAP1 MSTORE PUSH1 0x1 PUSH2 0x120 DUP6 ADD DUP2 SWAP1 MSTORE SWAP2 DUP2 MSTORE PUSH1 0x20 DUP2 SWAP1 MSTORE PUSH1 0x40 SWAP1 KECCAK256 SLOAD PUSH1 0x1 PUSH1 0x1 PUSH1 0x80 SHL SUB AND LT DUP1 ISZERO SWAP1 PUSH2 0x7C6 JUMPI POP CALLER PUSH1 0x0 SWAP1 DUP2 MSTORE PUSH1 0x20 DUP2 SWAP1 MSTORE PUSH1 0x40 SWAP1 KECCAK256 SLOAD PUSH1 0x1 PUSH1 0x1 PUSH1 0x80 SHL SUB AND PUSH2 0x7BA DUP2 PUSH1 0x1 PUSH2 0x2E38 JUMP JUMPDEST PUSH1 0x1 PUSH1 0x1 PUSH1 0x80 SHL SUB AND LT ISZERO JUMPDEST ISZERO PUSH2 0x81D JUMPI CALLER PUSH1 0x0 SWAP1 DUP2 MSTORE PUSH1 0x20 DUP2 SWAP1 MSTORE PUSH1 0x40 DUP2 KECCAK256 DUP1 SLOAD PUSH1 0x1 SWAP3 SWAP1 PUSH2 0x7F4 SWAP1 DUP5 SWAP1 PUSH1 0x1 PUSH1 0x1 PUSH1 0x80 SHL SUB AND PUSH2 0x2E38 JUMP JUMPDEST SWAP3 POP PUSH2 0x100 EXP DUP2 SLOAD DUP2 PUSH1 0x1 PUSH1 0x1 PUSH1 0x80 SHL SUB MUL NOT AND SWAP1 DUP4 PUSH1 0x1 PUSH1 0x1 PUSH1 0x80 SHL SUB AND MUL OR SWAP1 SSTORE POP PUSH2 0x83E JUMP JUMPDEST CALLER PUSH1 0x0 SWAP1 DUP2 MSTORE PUSH1 0x20 DUP2 SWAP1 MSTORE PUSH1 0x40 SWAP1 KECCAK256 DUP1 SLOAD PUSH1 0x1 PUSH1 0x1 PUSH1 0x80 SHL SUB NOT AND PUSH1 0x1 OR SWAP1 SSTORE JUMPDEST PUSH1 0xC0 DUP3 ADD DUP1 MLOAD CALLER PUSH1 0x0 DUP2 DUP2 MSTORE PUSH1 0x1 PUSH1 0x20 DUP2 DUP2 MSTORE PUSH1 0x40 DUP1 DUP5 KECCAK256 DUP5 DUP4 MSTORE DUP2 DUP6 KECCAK256 DUP1 SLOAD PUSH1 0x1 PUSH1 0x1 PUSH1 0x80 SHL SUB SWAP1 DUP2 AND DUP8 MSTORE SWAP2 DUP5 MSTORE DUP3 DUP7 KECCAK256 DUP1 SLOAD PUSH1 0x1 PUSH1 0x1 PUSH1 0xA0 SHL SUB SWAP10 DUP11 AND PUSH1 0x1 PUSH1 0x1 PUSH1 0xA0 SHL SUB NOT SWAP2 DUP3 AND OR SWAP1 SWAP2 SSTORE DUP8 DUP8 MSTORE SWAP1 SLOAD PUSH1 0x2 DUP1 DUP7 MSTORE DUP5 DUP9 KECCAK256 DUP12 MLOAD DUP12 AND DUP10 MSTORE DUP7 MSTORE DUP5 DUP9 KECCAK256 DUP1 SLOAD PUSH1 0x1 PUSH1 0x1 PUSH1 0x80 SHL SUB NOT AND SWAP3 SWAP1 SWAP5 AND SWAP2 SWAP1 SWAP2 OR SWAP1 SWAP3 SSTORE DUP9 MLOAD DUP9 AND DUP7 MSTORE PUSH1 0x3 DUP1 DUP6 MSTORE SWAP6 DUP4 SWAP1 KECCAK256 DUP12 MLOAD DUP2 SSTORE SWAP4 DUP12 ADD MLOAD SWAP5 DUP5 ADD SWAP5 SWAP1 SWAP5 SSTORE DUP2 DUP11 ADD MLOAD SWAP1 DUP4 ADD SSTORE PUSH1 0x60 DUP10 ADD MLOAD SWAP4 DUP3 ADD DUP1 SLOAD PUSH1 0xFF SWAP1 SWAP6 AND PUSH1 0xFF NOT SWAP1 SWAP6 AND SWAP5 SWAP1 SWAP5 OR SWAP1 SWAP4 SSTORE PUSH1 0x80 DUP9 ADD MLOAD PUSH1 0x4 DUP3 ADD SSTORE PUSH1 0xA0 DUP9 ADD MLOAD PUSH1 0x5 DUP3 ADD SSTORE SWAP5 MLOAD PUSH1 0x6 DUP7 ADD DUP1 SLOAD PUSH1 0xE0 DUP11 ADD MLOAD PUSH2 0x100 DUP12 ADD MLOAD PUSH2 0x120 DUP13 ADD MLOAD ISZERO ISZERO PUSH1 0x1 PUSH1 0xB0 SHL MUL PUSH1 0xFF PUSH1 0xB0 SHL NOT SWAP2 ISZERO ISZERO PUSH1 0x1 PUSH1 0xA8 SHL MUL SWAP2 SWAP1 SWAP2 AND PUSH2 0xFFFF PUSH1 0xA8 SHL NOT SWAP3 ISZERO ISZERO PUSH1 0x1 PUSH1 0xA0 SHL MUL PUSH1 0x1 PUSH1 0x1 PUSH1 0xA8 SHL SUB NOT SWAP1 SWAP5 AND SWAP6 DUP11 AND SWAP6 SWAP1 SWAP6 OR SWAP3 SWAP1 SWAP3 OR AND SWAP3 SWAP1 SWAP3 OR SWAP2 SWAP1 SWAP2 OR SWAP1 SSTORE PUSH2 0x140 DUP8 ADD MLOAD PUSH1 0x7 SWAP1 SWAP6 ADD DUP1 SLOAD SWAP6 SWAP1 SWAP5 AND SWAP5 AND SWAP4 SWAP1 SWAP4 OR SWAP1 SWAP2 SSTORE SWAP1 MLOAD PUSH32 0x724ED868AD6195EC663DE17364300EE1E1956F27F184CEB84F2BE30D1FD58D65 SWAP2 PUSH2 0x9C2 SWAP2 DUP6 SWAP1 PUSH2 0x2E6D JUMP JUMPDEST PUSH1 0x40 MLOAD DUP1 SWAP2 SUB SWAP1 LOG1 DUP1 MLOAD PUSH1 0x1 PUSH1 0x1 PUSH1 0xA0 SHL SUB SWAP1 DUP2 AND PUSH1 0x0 SWAP1 DUP2 MSTORE PUSH1 0x3 PUSH1 0x20 MSTORE PUSH1 0x40 SWAP1 KECCAK256 PUSH1 0x7 ADD SLOAD AND CALLER EQ PUSH2 0xA38 JUMPI PUSH1 0x40 MLOAD PUSH3 0x461BCD PUSH1 0xE5 SHL DUP2 MSTORE PUSH1 0x20 PUSH1 0x4 DUP3 ADD MSTORE PUSH1 0x1C PUSH1 0x24 DUP3 ADD MSTORE PUSH32 0x796F75206973206E6F7420746865207468696E67206372656174657200000000 PUSH1 0x44 DUP3 ADD MSTORE PUSH1 0x64 ADD PUSH2 0x6DA JUMP JUMPDEST DUP1 MLOAD PUSH1 0x1 PUSH1 0x1 PUSH1 0xA0 SHL SUB SWAP1 DUP2 AND PUSH1 0x0 SWAP1 DUP2 MSTORE PUSH1 0x4 PUSH1 0x20 DUP2 DUP2 MSTORE PUSH1 0x40 SWAP3 DUP4 SWAP1 KECCAK256 DUP6 MLOAD DUP2 SLOAD PUSH1 0x1 PUSH1 0x1 PUSH1 0xA0 SHL SUB NOT AND SWAP6 AND SWAP5 DUP6 OR DUP2 SSTORE DUP2 DUP7 ADD MLOAD PUSH1 0x1 DUP3 ADD SSTORE DUP4 DUP7 ADD MLOAD PUSH1 0x2 DUP3 ADD SSTORE PUSH1 0x60 DUP7 ADD MLOAD PUSH1 0x3 DUP3 ADD SSTORE PUSH1 0x80 DUP7 ADD MLOAD SWAP3 DUP2 ADD SWAP3 SWAP1 SWAP3 SSTORE PUSH1 0xA0 DUP6 ADD MLOAD PUSH1 0x5 SWAP1 SWAP3 ADD SWAP2 SWAP1 SWAP2 SSTORE SWAP1 MLOAD SWAP2 DUP3 MSTORE PUSH32 0x28995A3CC31B8867E272BF05BB4F577DA5E81799E17CF729D123EDF7C2A7CA94 SWAP2 ADD JUMPDEST PUSH1 0x40 MLOAD DUP1 SWAP2 SUB SWAP1 LOG1 POP POP JUMP JUMPDEST PUSH1 0x6 SLOAD PUSH1 0x40 MLOAD PUSH4 0x38C3329 PUSH1 0xE5 SHL DUP2 MSTORE CALLER PUSH1 0x4 DUP3 ADD MSTORE PUSH1 0x1 PUSH1 0x1 PUSH1 0xA0 SHL SUB SWAP1 SWAP2 AND SWAP1 PUSH4 0x71866520 SWAP1 PUSH1 0x24 ADD PUSH1 0x20 PUSH1 0x40 MLOAD DUP1 DUP4 SUB DUP2 DUP7 GAS STATICCALL ISZERO DUP1 ISZERO PUSH2 0xB1F JUMPI RETURNDATASIZE PUSH1 0x0 DUP1 RETURNDATACOPY RETURNDATASIZE PUSH1 0x0 REVERT JUMPDEST POP POP POP POP PUSH1 0x40 MLOAD RETURNDATASIZE PUSH1 0x1F NOT PUSH1 0x1F DUP3 ADD AND DUP3 ADD DUP1 PUSH1 0x40 MSTORE POP DUP2 ADD SWAP1 PUSH2 0xB43 SWAP2 SWAP1 PUSH2 0x2DD4 JUMP JUMPDEST PUSH2 0xB5F JUMPI PUSH1 0x40 MLOAD PUSH3 0x461BCD PUSH1 0xE5 SHL DUP2 MSTORE PUSH1 0x4 ADD PUSH2 0x6DA SWAP1 PUSH2 0x2DF1 JUMP JUMPDEST PUSH1 0x1 PUSH1 0x1 PUSH1 0xA0 SHL SUB DUP2 AND PUSH1 0x0 SWAP1 DUP2 MSTORE PUSH1 0x3 PUSH1 0x20 MSTORE PUSH1 0x40 SWAP1 KECCAK256 PUSH1 0x6 ADD DUP1 SLOAD PUSH1 0xFF PUSH1 0xB0 SHL NOT AND PUSH1 0x1 PUSH1 0xB0 SHL OR SWAP1 SSTORE PUSH1 0x6 SLOAD PUSH1 0x1 PUSH1 0x1 PUSH1 0xA0 SHL SUB SWAP1 DUP2 AND PUSH1 0x0 SWAP1 DUP2 MSTORE PUSH1 0x2 PUSH1 0x20 SWAP1 DUP2 MSTORE PUSH1 0x40 DUP1 DUP4 KECCAK256 SWAP4 DUP6 AND DUP4 MSTORE SWAP3 SWAP1 MSTORE KECCAK256 SLOAD PUSH1 0x1 PUSH1 0x1 PUSH1 0x80 SHL SUB AND PUSH2 0xC09 JUMPI PUSH1 0x40 MLOAD PUSH3 0x461BCD PUSH1 0xE5 SHL DUP2 MSTORE PUSH1 0x20 PUSH1 0x4 DUP3 ADD MSTORE PUSH1 0x1D PUSH1 0x24 DUP3 ADD MSTORE PUSH32 0x74686520636F696E206973202065786973747320696E206D61726B6574000000 PUSH1 0x44 DUP3 ADD MSTORE PUSH1 0x64 ADD PUSH2 0x6DA JUMP JUMPDEST PUSH1 0x6 SLOAD PUSH1 0x1 PUSH1 0x1 PUSH1 0xA0 SHL SUB AND PUSH1 0x0 SWAP1 DUP2 MSTORE PUSH1 0x20 DUP2 SWAP1 MSTORE PUSH1 0x40 SWAP1 KECCAK256 SLOAD PUSH1 0x1 PUSH1 0x1 PUSH1 0x80 SHL SUB AND PUSH1 0x1 DUP2 LT DUP1 ISZERO SWAP1 PUSH2 0xC5A JUMPI POP PUSH1 0x1 PUSH1 0x1 PUSH1 0x80 SHL SUB DUP2 AND PUSH2 0xC4E DUP3 PUSH1 0x1 PUSH2 0x2E38 JUMP JUMPDEST PUSH1 0x1 PUSH1 0x1 PUSH1 0x80 SHL SUB AND LT ISZERO JUMPDEST ISZERO PUSH2 0xC71 JUMPI PUSH2 0xC6A PUSH1 0x1 DUP3 PUSH2 0x2E38 JUMP JUMPDEST SWAP1 POP PUSH2 0xC75 JUMP JUMPDEST POP PUSH1 0x1 JUMPDEST PUSH1 0x6 DUP1 SLOAD PUSH1 0x1 PUSH1 0x1 PUSH1 0xA0 SHL SUB SWAP1 DUP2 AND PUSH1 0x0 SWAP1 DUP2 MSTORE PUSH1 0x20 DUP2 DUP2 MSTORE PUSH1 0x40 DUP1 DUP4 KECCAK256 DUP1 SLOAD PUSH1 0x1 PUSH1 0x1 PUSH1 0x80 SHL SUB NOT SWAP1 DUP2 AND PUSH1 0x1 PUSH1 0x1 PUSH1 0x80 SHL SUB DUP10 AND SWAP1 DUP2 OR SWAP1 SWAP3 SSTORE DUP7 SLOAD DUP7 AND DUP6 MSTORE PUSH1 0x1 DUP5 MSTORE DUP3 DUP6 KECCAK256 DUP3 DUP7 MSTORE DUP5 MSTORE DUP3 DUP6 KECCAK256 DUP1 SLOAD PUSH1 0x1 PUSH1 0x1 PUSH1 0xA0 SHL SUB NOT AND DUP11 DUP9 AND SWAP1 DUP2 OR SWAP1 SWAP2 SSTORE SWAP7 SLOAD SWAP1 SWAP6 AND DUP5 MSTORE PUSH1 0x2 DUP4 MSTORE DUP2 DUP5 KECCAK256 DUP7 DUP6 MSTORE DUP4 MSTORE SWAP3 DUP2 SWAP1 KECCAK256 DUP1 SLOAD SWAP1 SWAP5 AND SWAP1 SWAP3 OR SWAP1 SWAP3 SSTORE MLOAD SWAP2 DUP3 MSTORE PUSH32 0x787B8074A2DB1BF64DAC1E916753253472ACC7C1FFF144FAE6D14142860D890B SWAP2 ADD PUSH2 0xACB JUMP JUMPDEST PUSH1 0x6 SLOAD PUSH1 0x40 MLOAD PUSH4 0x38C3329 PUSH1 0xE5 SHL DUP2 MSTORE CALLER PUSH1 0x4 DUP3 ADD MSTORE PUSH1 0x1 PUSH1 0x1 PUSH1 0xA0 SHL SUB SWAP1 SWAP2 AND SWAP1 PUSH4 0x71866520 SWAP1 PUSH1 0x24 ADD PUSH1 0x20 PUSH1 0x40 MLOAD DUP1 DUP4 SUB DUP2 DUP7 GAS STATICCALL ISZERO DUP1 ISZERO PUSH2 0xD71 JUMPI RETURNDATASIZE PUSH1 0x0 DUP1 RETURNDATACOPY RETURNDATASIZE PUSH1 0x0 REVERT JUMPDEST POP POP POP POP PUSH1 0x40 MLOAD RETURNDATASIZE PUSH1 0x1F NOT PUSH1 0x1F DUP3 ADD AND DUP3 ADD DUP1 PUSH1 0x40 MSTORE POP DUP2 ADD SWAP1 PUSH2 0xD95 SWAP2 SWAP1 PUSH2 0x2DD4 JUMP JUMPDEST PUSH2 0xDB1 JUMPI PUSH1 0x40 MLOAD PUSH3 0x461BCD PUSH1 0xE5 SHL DUP2 MSTORE PUSH1 0x4 ADD PUSH2 0x6DA SWAP1 PUSH2 0x2DF1 JUMP JUMPDEST DUP1 MLOAD PUSH1 0x1 PUSH1 0x1 PUSH1 0xA0 SHL SUB SWAP1 DUP2 AND PUSH1 0x0 SWAP1 DUP2 MSTORE PUSH1 0x4 PUSH1 0x20 DUP2 DUP2 MSTORE PUSH1 0x40 SWAP3 DUP4 SWAP1 KECCAK256 DUP6 MLOAD DUP2 SLOAD PUSH1 0x1 PUSH1 0x1 PUSH1 0xA0 SHL SUB NOT AND SWAP6 AND SWAP5 DUP6 OR DUP2 SSTORE DUP2 DUP7 ADD MLOAD PUSH1 0x1 DUP3 ADD SSTORE DUP4 DUP7 ADD MLOAD PUSH1 0x2 DUP3 ADD SSTORE PUSH1 0x60 DUP7 ADD MLOAD PUSH1 0x3 DUP3 ADD SSTORE PUSH1 0x80 DUP7 ADD MLOAD SWAP3 DUP2 ADD SWAP3 SWAP1 SWAP3 SSTORE PUSH1 0xA0 DUP6 ADD MLOAD PUSH1 0x5 SWAP1 SWAP3 ADD SWAP2 SWAP1 SWAP2 SSTORE SWAP1 MLOAD SWAP2 DUP3 MSTORE PUSH32 0x28995A3CC31B8867E272BF05BB4F577DA5E81799E17CF729D123EDF7C2A7CA94 SWAP2 ADD JUMPDEST PUSH1 0x40 MLOAD DUP1 SWAP2 SUB SWAP1 LOG1 POP JUMP JUMPDEST PUSH1 0x6 SLOAD PUSH1 0x40 MLOAD PUSH4 0x38C3329 PUSH1 0xE5 SHL DUP2 MSTORE CALLER PUSH1 0x4 DUP3 ADD MSTORE PUSH1 0x1 PUSH1 0x1 PUSH1 0xA0 SHL SUB SWAP1 SWAP2 AND SWAP1 PUSH4 0x71866520 SWAP1 PUSH1 0x24 ADD PUSH1 0x20 PUSH1 0x40 MLOAD DUP1 DUP4 SUB DUP2 DUP7 GAS STATICCALL ISZERO DUP1 ISZERO PUSH2 0xE97 JUMPI RETURNDATASIZE PUSH1 0x0 DUP1 RETURNDATACOPY RETURNDATASIZE PUSH1 0x0 REVERT JUMPDEST POP POP POP POP PUSH1 0x40 MLOAD RETURNDATASIZE PUSH1 0x1F NOT PUSH1 0x1F DUP3 ADD AND DUP3 ADD DUP1 PUSH1 0x40 MSTORE POP DUP2 ADD SWAP1 PUSH2 0xEBB SWAP2 SWAP1 PUSH2 0x2DD4 JUMP JUMPDEST PUSH2 0xED7 JUMPI PUSH1 0x40 MLOAD PUSH3 0x461BCD PUSH1 0xE5 SHL DUP2 MSTORE PUSH1 0x4 ADD PUSH2 0x6DA SWAP1 PUSH2 0x2DF1 JUMP JUMPDEST PUSH1 0x1 PUSH1 0x1 PUSH1 0xA0 SHL SUB DUP2 AND PUSH1 0x0 DUP2 DUP2 MSTORE PUSH1 0x3 PUSH1 0x20 SWAP1 DUP2 MSTORE PUSH1 0x40 SWAP2 DUP3 SWAP1 KECCAK256 PUSH1 0x6 ADD DUP1 SLOAD PUSH1 0xFF PUSH1 0xA0 SHL NOT AND PUSH1 0x1 PUSH1 0xA0 SHL OR SWAP1 SSTORE SWAP1 MLOAD SWAP2 DUP3 MSTORE PUSH32 0xAC01100C10BE15FEC1A42F8249ABC04B81A28E731FEAB3E60A2A962F74EFF9D8 SWAP2 ADD PUSH2 0xE44 JUMP JUMPDEST PUSH1 0x5 SLOAD PUSH1 0x40 MLOAD PUSH4 0x601C2149 PUSH1 0xE1 SHL DUP2 MSTORE CALLER PUSH1 0x4 DUP3 ADD MSTORE PUSH1 0x1 PUSH1 0x1 PUSH1 0xA0 SHL SUB SWAP1 SWAP2 AND SWAP1 PUSH4 0xC0384292 SWAP1 PUSH1 0x24 ADD PUSH1 0x20 PUSH1 0x40 MLOAD DUP1 DUP4 SUB DUP2 DUP7 GAS STATICCALL ISZERO DUP1 ISZERO PUSH2 0xF7C JUMPI RETURNDATASIZE PUSH1 0x0 DUP1 RETURNDATACOPY RETURNDATASIZE PUSH1 0x0 REVERT JUMPDEST POP POP POP POP PUSH1 0x40 MLOAD RETURNDATASIZE PUSH1 0x1F NOT PUSH1 0x1F DUP3 ADD AND DUP3 ADD DUP1 PUSH1 0x40 MSTORE POP DUP2 ADD SWAP1 PUSH2 0xFA0 SWAP2 SWAP1 PUSH2 0x2DD4 JUMP JUMPDEST PUSH2 0xFBC JUMPI PUSH1 0x40 MLOAD PUSH3 0x461BCD PUSH1 0xE5 SHL DUP2 MSTORE PUSH1 0x4 ADD PUSH2 0x6DA SWAP1 PUSH2 0x2DF1 JUMP JUMPDEST PUSH1 0x1 PUSH1 0x1 PUSH1 0xA0 SHL SUB DUP2 DUP2 AND PUSH1 0x0 SWAP1 DUP2 MSTORE PUSH1 0x3 PUSH1 0x20 MSTORE PUSH1 0x40 SWAP1 KECCAK256 PUSH1 0x7 ADD SLOAD AND CALLER EQ PUSH2 0xFF8 JUMPI PUSH1 0x40 MLOAD PUSH3 0x461BCD PUSH1 0xE5 SHL DUP2 MSTORE PUSH1 0x4 ADD PUSH2 0x6DA SWAP1 PUSH2 0x2EBB JUMP JUMPDEST PUSH1 0x1 PUSH1 0x1 PUSH1 0xA0 SHL SUB DUP2 AND PUSH1 0x0 DUP2 DUP2 MSTORE PUSH1 0x3 PUSH1 0x20 SWAP1 DUP2 MSTORE PUSH1 0x40 SWAP2 DUP3 SWAP1 KECCAK256 PUSH1 0x6 ADD DUP1 SLOAD PUSH1 0xFF PUSH1 0xA8 SHL NOT AND PUSH1 0x1 PUSH1 0xA8 SHL OR SWAP1 SSTORE DUP2 MLOAD CALLER DUP2 MSTORE SWAP1 DUP2 ADD SWAP3 SWAP1 SWAP3 MSTORE PUSH32 0x91F5DF1A13CCD890776A683FDCEF0B553CE7AC24FBE9609BB51AEB9FEFED82A4 SWAP2 ADD PUSH2 0xE44 JUMP JUMPDEST PUSH1 0x5 SLOAD PUSH1 0x40 MLOAD PUSH4 0x601C2149 PUSH1 0xE1 SHL DUP2 MSTORE CALLER PUSH1 0x4 DUP3 ADD MSTORE PUSH1 0x1 PUSH1 0x1 PUSH1 0xA0 SHL SUB SWAP1 SWAP2 AND SWAP1 PUSH4 0xC0384292 SWAP1 PUSH1 0x24 ADD PUSH1 0x20 PUSH1 0x40 MLOAD DUP1 DUP4 SUB DUP2 DUP7 GAS STATICCALL ISZERO DUP1 ISZERO PUSH2 0x10A4 JUMPI RETURNDATASIZE PUSH1 0x0 DUP1 RETURNDATACOPY RETURNDATASIZE PUSH1 0x0 REVERT JUMPDEST POP POP POP POP PUSH1 0x40 MLOAD RETURNDATASIZE PUSH1 0x1F NOT PUSH1 0x1F DUP3 ADD AND DUP3 ADD DUP1 PUSH1 0x40 MSTORE POP DUP2 ADD SWAP1 PUSH2 0x10C8 SWAP2 SWAP1 PUSH2 0x2DD4 JUMP JUMPDEST PUSH2 0x10E4 JUMPI PUSH1 0x40 MLOAD PUSH3 0x461BCD PUSH1 0xE5 SHL DUP2 MSTORE PUSH1 0x4 ADD PUSH2 0x6DA SWAP1 PUSH2 0x2DF1 JUMP JUMPDEST PUSH1 0x1 PUSH1 0x1 PUSH1 0xA0 SHL SUB DUP2 DUP2 AND PUSH1 0x0 SWAP1 DUP2 MSTORE PUSH1 0x3 PUSH1 0x20 MSTORE PUSH1 0x40 SWAP1 KECCAK256 PUSH1 0x7 ADD SLOAD AND CALLER EQ PUSH2 0x1120 JUMPI PUSH1 0x40 MLOAD PUSH3 0x461BCD PUSH1 0xE5 SHL DUP2 MSTORE PUSH1 0x4 ADD PUSH2 0x6DA SWAP1 PUSH2 0x2EBB JUMP JUMPDEST PUSH1 0x1 PUSH1 0x1 PUSH1 0xA0 SHL SUB DUP2 AND PUSH1 0x0 DUP2 DUP2 MSTORE PUSH1 0x3 PUSH1 0x20 SWAP1 DUP2 MSTORE PUSH1 0x40 SWAP2 DUP3 SWAP1 KECCAK256 PUSH1 0x6 ADD DUP1 SLOAD PUSH1 0xFF PUSH1 0xA8 SHL NOT AND SWAP1 SSTORE DUP2 MLOAD CALLER DUP2 MSTORE SWAP1 DUP2 ADD SWAP3 SWAP1 SWAP3 MSTORE PUSH32 0x4807C3DAA091FEBEA14280167243BD513929CE4FE91170EF6536AEBAD0EDE29B SWAP2 ADD PUSH2 0xE44 JUMP JUMPDEST PUSH2 0x1186 PUSH2 0x2946 JUMP JUMPDEST PUSH1 0x1 PUSH1 0x1 PUSH1 0xA0 SHL SUB DUP4 AND PUSH1 0x0 SWAP1 DUP2 MSTORE PUSH1 0x3 PUSH1 0x20 MSTORE PUSH1 0x40 SWAP1 KECCAK256 PUSH1 0x6 ADD SLOAD PUSH1 0x1 PUSH1 0xB0 SHL SWAP1 DIV PUSH1 0xFF AND ISZERO ISZERO PUSH1 0x1 EQ PUSH2 0x11CD JUMPI PUSH1 0x40 MLOAD PUSH3 0x461BCD PUSH1 0xE5 SHL DUP2 MSTORE PUSH1 0x4 ADD PUSH2 0x6DA SWAP1 PUSH2 0x2E8B JUMP JUMPDEST POP PUSH1 0x1 PUSH1 0x1 PUSH1 0xA0 SHL SUB DUP1 DUP4 AND PUSH1 0x0 SWAP1 DUP2 MSTORE PUSH1 0x1 PUSH1 0x20 DUP2 DUP2 MSTORE PUSH1 0x40 DUP1 DUP5 KECCAK256 PUSH1 0x1 PUSH1 0x1 PUSH1 0x80 SHL SUB DUP8 AND DUP6 MSTORE DUP3 MSTORE DUP1 DUP5 KECCAK256 SLOAD DUP6 AND DUP5 MSTORE PUSH1 0x3 DUP1 DUP4 MSTORE SWAP4 DUP2 SWAP1 KECCAK256 DUP2 MLOAD PUSH2 0x160 DUP2 ADD DUP4 MSTORE DUP2 SLOAD DUP2 MSTORE SWAP4 DUP2 ADD SLOAD SWAP3 DUP5 ADD SWAP3 SWAP1 SWAP3 MSTORE PUSH1 0x2 DUP3 ADD SLOAD SWAP1 DUP4 ADD MSTORE SWAP2 DUP3 ADD SLOAD PUSH1 0xFF SWAP1 DUP2 AND PUSH1 0x60 DUP4 ADD MSTORE PUSH1 0x4 DUP4 ADD SLOAD PUSH1 0x80 DUP4 ADD MSTORE PUSH1 0x5 DUP4 ADD SLOAD PUSH1 0xA0 DUP4 ADD MSTORE PUSH1 0x6 DUP4 ADD SLOAD DUP1 DUP6 AND PUSH1 0xC0 DUP5 ADD MSTORE PUSH1 0x1 PUSH1 0xA0 SHL DUP2 DIV DUP3 AND ISZERO ISZERO PUSH1 0xE0 DUP5 ADD MSTORE PUSH1 0x1 PUSH1 0xA8 SHL DUP2 DIV DUP3 AND ISZERO ISZERO PUSH2 0x100 DUP5 ADD MSTORE PUSH1 0x1 PUSH1 0xB0 SHL SWAP1 DIV AND ISZERO ISZERO PUSH2 0x120 DUP3 ADD MSTORE PUSH1 0x7 SWAP1 SWAP2 ADD SLOAD SWAP1 SWAP2 AND PUSH2 0x140 DUP3 ADD MSTORE JUMPDEST SWAP3 SWAP2 POP POP JUMP JUMPDEST PUSH1 0x5 SLOAD PUSH1 0x40 MLOAD PUSH4 0x601C2149 PUSH1 0xE1 SHL DUP2 MSTORE CALLER PUSH1 0x4 DUP3 ADD MSTORE PUSH1 0x1 PUSH1 0x1 PUSH1 0xA0 SHL SUB SWAP1 SWAP2 AND SWAP1 PUSH4 0xC0384292 SWAP1 PUSH1 0x24 ADD PUSH1 0x20 PUSH1 0x40 MLOAD DUP1 DUP4 SUB DUP2 DUP7 GAS STATICCALL ISZERO DUP1 ISZERO PUSH2 0x12E8 JUMPI RETURNDATASIZE PUSH1 0x0 DUP1 RETURNDATACOPY RETURNDATASIZE PUSH1 0x0 REVERT JUMPDEST POP POP POP POP PUSH1 0x40 MLOAD RETURNDATASIZE PUSH1 0x1F NOT PUSH1 0x1F DUP3 ADD AND DUP3 ADD DUP1 PUSH1 0x40 MSTORE POP DUP2 ADD SWAP1 PUSH2 0x130C SWAP2 SWAP1 PUSH2 0x2DD4 JUMP JUMPDEST PUSH2 0x1328 JUMPI PUSH1 0x40 MLOAD PUSH3 0x461BCD PUSH1 0xE5 SHL DUP2 MSTORE PUSH1 0x4 ADD PUSH2 0x6DA SWAP1 PUSH2 0x2DF1 JUMP JUMPDEST CALLER PUSH1 0x0 SWAP1 DUP2 MSTORE PUSH1 0x1 PUSH1 0x20 SWAP1 DUP2 MSTORE PUSH1 0x40 DUP1 DUP4 KECCAK256 PUSH1 0x1 PUSH1 0x1 PUSH1 0x80 SHL SUB DUP6 AND DUP5 MSTORE SWAP1 SWAP2 MSTORE SWAP1 KECCAK256 SLOAD PUSH1 0x1 PUSH1 0x1 PUSH1 0xA0 SHL SUB AND PUSH2 0x1371 JUMPI PUSH1 0x40 MLOAD PUSH3 0x461BCD PUSH1 0xE5 SHL DUP2 MSTORE PUSH1 0x4 ADD PUSH2 0x6DA SWAP1 PUSH2 0x2E8B JUMP JUMPDEST CALLER PUSH1 0x0 DUP2 DUP2 MSTORE PUSH1 0x2 PUSH1 0x20 SWAP1 DUP2 MSTORE PUSH1 0x40 DUP1 DUP4 KECCAK256 PUSH1 0x1 DUP4 MSTORE DUP2 DUP5 KECCAK256 PUSH1 0x1 PUSH1 0x1 PUSH1 0x80 SHL SUB DUP8 AND DUP1 DUP7 MSTORE DUP2 DUP6 MSTORE DUP4 DUP7 KECCAK256 DUP1 SLOAD PUSH1 0x1 PUSH1 0x1 PUSH1 0xA0 SHL SUB AND DUP8 MSTORE SWAP3 DUP6 MSTORE DUP4 DUP7 KECCAK256 DUP1 SLOAD PUSH1 0x1 PUSH1 0x1 PUSH1 0x80 SHL SUB NOT AND SWAP1 SSTORE SWAP5 DUP6 SWAP1 MSTORE DUP4 MSTORE DUP1 SLOAD PUSH1 0x1 PUSH1 0x1 PUSH1 0xA0 SHL SUB NOT AND SWAP1 SSTORE DUP1 MLOAD SWAP4 DUP5 MSTORE SWAP1 DUP4 ADD SWAP2 SWAP1 SWAP2 MSTORE PUSH32 0x4EDB2517E4D5299DD19C1CE662D404D108FFED8F91BC76838771EDAE5FAC7C43 SWAP2 ADD PUSH2 0xE44 JUMP JUMPDEST PUSH1 0x6 SLOAD PUSH1 0x40 MLOAD PUSH4 0x38C3329 PUSH1 0xE5 SHL DUP2 MSTORE CALLER PUSH1 0x4 DUP3 ADD MSTORE PUSH1 0x1 PUSH1 0x1 PUSH1 0xA0 SHL SUB SWAP1 SWAP2 AND SWAP1 PUSH4 0x71866520 SWAP1 PUSH1 0x24 ADD PUSH1 0x20 PUSH1 0x40 MLOAD DUP1 DUP4 SUB DUP2 DUP7 GAS STATICCALL ISZERO DUP1 ISZERO PUSH2 0x144E JUMPI RETURNDATASIZE PUSH1 0x0 DUP1 RETURNDATACOPY RETURNDATASIZE PUSH1 0x0 REVERT JUMPDEST POP POP POP POP PUSH1 0x40 MLOAD RETURNDATASIZE PUSH1 0x1F NOT PUSH1 0x1F DUP3 ADD AND DUP3 ADD DUP1 PUSH1 0x40 MSTORE POP DUP2 ADD SWAP1 PUSH2 0x1472 SWAP2 SWAP1 PUSH2 0x2DD4 JUMP JUMPDEST PUSH2 0x148E JUMPI PUSH1 0x40 MLOAD PUSH3 0x461BCD PUSH1 0xE5 SHL DUP2 MSTORE PUSH1 0x4 ADD PUSH2 0x6DA SWAP1 PUSH2 0x2DF1 JUMP JUMPDEST PUSH1 0x6 DUP1 SLOAD PUSH1 0x1 PUSH1 0x1 PUSH1 0xA0 SHL SUB SWAP1 DUP2 AND PUSH1 0x0 SWAP1 DUP2 MSTORE PUSH1 0x2 PUSH1 0x20 DUP2 DUP2 MSTORE PUSH1 0x40 DUP1 DUP5 KECCAK256 PUSH1 0xC0 DUP9 ADD DUP1 MLOAD DUP8 AND DUP7 MSTORE SWAP1 DUP4 MSTORE PUSH1 0x1 PUSH1 0xE0 DUP10 ADD DUP2 DUP2 MSTORE PUSH2 0x100 DUP11 ADD DUP8 DUP2 MSTORE PUSH2 0x120 DUP12 ADD DUP4 DUP2 MSTORE DUP5 MLOAD DUP11 AND DUP10 MSTORE PUSH1 0x3 DUP1 DUP9 MSTORE DUP7 DUP11 KECCAK256 PUSH1 0x7 SWAP1 DUP2 ADD SLOAD DUP13 AND PUSH2 0x140 DUP16 ADD SWAP1 DUP2 MSTORE DUP8 MLOAD DUP14 AND DUP13 MSTORE DUP3 DUP11 MSTORE SWAP11 DUP9 SWAP1 KECCAK256 DUP15 MLOAD DUP2 SSTORE SWAP9 DUP15 ADD MLOAD SWAP6 DUP10 ADD SWAP6 SWAP1 SWAP6 SSTORE DUP13 DUP8 ADD MLOAD SWAP9 DUP9 ADD SWAP9 SWAP1 SWAP9 SSTORE PUSH1 0x60 DUP13 ADD MLOAD SWAP8 DUP8 ADD DUP1 SLOAD PUSH1 0xFF NOT AND PUSH1 0xFF SWAP1 SWAP10 AND SWAP9 SWAP1 SWAP9 OR SWAP1 SWAP8 SSTORE PUSH1 0x80 DUP12 ADD MLOAD PUSH1 0x4 DUP8 ADD SSTORE PUSH1 0xA0 DUP12 ADD MLOAD PUSH1 0x5 DUP8 ADD SSTORE SWAP3 MLOAD SWAP9 DUP6 ADD DUP1 SLOAD SWAP2 MLOAD SWAP4 MLOAD SWAP7 MLOAD SWAP10 DUP10 AND PUSH1 0x1 PUSH1 0x1 PUSH1 0xA8 SHL SUB NOT SWAP1 SWAP3 AND SWAP2 SWAP1 SWAP2 OR PUSH1 0x1 PUSH1 0xA0 SHL SWAP4 ISZERO ISZERO SWAP4 SWAP1 SWAP4 MUL SWAP3 SWAP1 SWAP3 OR PUSH2 0xFFFF PUSH1 0xA8 SHL NOT AND PUSH1 0x1 PUSH1 0xA8 SHL SWAP6 ISZERO ISZERO SWAP6 SWAP1 SWAP6 MUL PUSH1 0xFF PUSH1 0xB0 SHL NOT AND SWAP5 SWAP1 SWAP5 OR PUSH1 0x1 PUSH1 0xB0 SHL SWAP8 ISZERO ISZERO SWAP8 SWAP1 SWAP8 MUL SWAP7 SWAP1 SWAP7 OR SWAP1 SWAP6 SSTORE SWAP2 MLOAD SWAP2 ADD DUP1 SLOAD PUSH1 0x1 PUSH1 0x1 PUSH1 0xA0 SHL SUB NOT AND SWAP2 SWAP1 SWAP3 AND OR SWAP1 SSTORE MLOAD PUSH32 0x7EF1A4C6CD6954CC6F68AC195814A83775046E46054EB12BF4B6619BA234F58B SWAP1 PUSH2 0xE44 SWAP1 DUP4 SWAP1 PUSH2 0x2CE7 JUMP JUMPDEST PUSH1 0x6 SLOAD PUSH1 0x40 MLOAD PUSH4 0x38C3329 PUSH1 0xE5 SHL DUP2 MSTORE CALLER PUSH1 0x4 DUP3 ADD MSTORE PUSH1 0x1 PUSH1 0x1 PUSH1 0xA0 SHL SUB SWAP1 SWAP2 AND SWAP1 PUSH4 0x71866520 SWAP1 PUSH1 0x24 ADD PUSH1 0x20 PUSH1 0x40 MLOAD DUP1 DUP4 SUB DUP2 DUP7 GAS STATICCALL ISZERO DUP1 ISZERO PUSH2 0x1636 JUMPI RETURNDATASIZE PUSH1 0x0 DUP1 RETURNDATACOPY RETURNDATASIZE PUSH1 0x0 REVERT JUMPDEST POP POP POP POP PUSH1 0x40 MLOAD RETURNDATASIZE PUSH1 0x1F NOT PUSH1 0x1F DUP3 ADD AND DUP3 ADD DUP1 PUSH1 0x40 MSTORE POP DUP2 ADD SWAP1 PUSH2 0x165A SWAP2 SWAP1 PUSH2 0x2DD4 JUMP JUMPDEST PUSH2 0x1676 JUMPI PUSH1 0x40 MLOAD PUSH3 0x461BCD PUSH1 0xE5 SHL DUP2 MSTORE PUSH1 0x4 ADD PUSH2 0x6DA SWAP1 PUSH2 0x2DF1 JUMP JUMPDEST PUSH1 0x6 SLOAD PUSH1 0x1 PUSH1 0x1 PUSH1 0xA0 SHL SUB SWAP1 DUP2 AND PUSH1 0x0 SWAP1 DUP2 MSTORE PUSH1 0x2 PUSH1 0x20 SWAP1 DUP2 MSTORE PUSH1 0x40 DUP1 DUP4 KECCAK256 SWAP4 DUP6 AND DUP4 MSTORE SWAP3 SWAP1 MSTORE KECCAK256 SLOAD PUSH1 0x1 PUSH1 0x1 PUSH1 0x1 PUSH1 0x80 SHL SUB SWAP1 SWAP2 AND LT ISZERO PUSH2 0x16CA JUMPI PUSH1 0x40 MLOAD PUSH3 0x461BCD PUSH1 0xE5 SHL DUP2 MSTORE PUSH1 0x4 ADD PUSH2 0x6DA SWAP1 PUSH2 0x2E8B JUMP JUMPDEST PUSH1 0x6 DUP1 SLOAD PUSH1 0x1 PUSH1 0x1 PUSH1 0xA0 SHL SUB SWAP1 DUP2 AND PUSH1 0x0 SWAP1 DUP2 MSTORE PUSH1 0x1 PUSH1 0x20 SWAP1 DUP2 MSTORE PUSH1 0x40 DUP1 DUP4 KECCAK256 PUSH1 0x2 DUP1 DUP5 MSTORE DUP3 DUP6 KECCAK256 DUP9 DUP8 AND DUP1 DUP8 MSTORE SWAP1 DUP6 MSTORE DUP4 DUP7 KECCAK256 SLOAD PUSH1 0x1 PUSH1 0x1 PUSH1 0x80 SHL SUB AND DUP7 MSTORE SWAP2 DUP5 MSTORE DUP3 DUP6 KECCAK256 DUP1 SLOAD PUSH1 0x1 PUSH1 0x1 PUSH1 0xA0 SHL SUB NOT AND SWAP1 SSTORE SWAP6 SLOAD SWAP1 SWAP5 AND DUP4 MSTORE SWAP4 DUP2 MSTORE DUP4 DUP3 KECCAK256 DUP4 DUP4 MSTORE DUP2 MSTORE SWAP1 DUP4 SWAP1 KECCAK256 DUP1 SLOAD PUSH1 0x1 PUSH1 0x1 PUSH1 0x80 SHL SUB NOT AND SWAP1 SSTORE SWAP2 MLOAD SWAP1 DUP2 MSTORE PUSH32 0x95FB8F03172737716DB3E279A3CAFDB96C41B3FF1CA3CEDC215A7770838C1C5B SWAP2 ADD PUSH2 0xE44 JUMP JUMPDEST PUSH1 0x5 SLOAD PUSH1 0x40 MLOAD PUSH4 0x601C2149 PUSH1 0xE1 SHL DUP2 MSTORE CALLER PUSH1 0x4 DUP3 ADD MSTORE PUSH1 0x1 PUSH1 0x1 PUSH1 0xA0 SHL SUB SWAP1 SWAP2 AND SWAP1 PUSH4 0xC0384292 SWAP1 PUSH1 0x24 ADD PUSH1 0x20 PUSH1 0x40 MLOAD DUP1 DUP4 SUB DUP2 DUP7 GAS STATICCALL ISZERO DUP1 ISZERO PUSH2 0x17B7 JUMPI RETURNDATASIZE PUSH1 0x0 DUP1 RETURNDATACOPY RETURNDATASIZE PUSH1 0x0 REVERT JUMPDEST POP POP POP POP PUSH1 0x40 MLOAD RETURNDATASIZE PUSH1 0x1F NOT PUSH1 0x1F DUP3 ADD AND DUP3 ADD DUP1 PUSH1 0x40 MSTORE POP DUP2 ADD SWAP1 PUSH2 0x17DB SWAP2 SWAP1 PUSH2 0x2DD4 JUMP JUMPDEST PUSH2 0x17F7 JUMPI PUSH1 0x40 MLOAD PUSH3 0x461BCD PUSH1 0xE5 SHL DUP2 MSTORE PUSH1 0x4 ADD PUSH2 0x6DA SWAP1 PUSH2 0x2DF1 JUMP JUMPDEST CALLER PUSH1 0x0 SWAP1 DUP2 MSTORE PUSH1 0x2 PUSH1 0x20 SWAP1 DUP2 MSTORE PUSH1 0x40 DUP1 DUP4 KECCAK256 PUSH1 0x1 PUSH1 0x1 PUSH1 0xA0 SHL SUB DUP6 AND DUP5 MSTORE SWAP1 SWAP2 MSTORE SWAP1 KECCAK256 SLOAD PUSH1 0x1 PUSH1 0x1 PUSH1 0x1 PUSH1 0x80 SHL SUB SWAP1 SWAP2 AND LT ISZERO PUSH2 0x1846 JUMPI PUSH1 0x40 MLOAD PUSH3 0x461BCD PUSH1 0xE5 SHL DUP2 MSTORE PUSH1 0x4 ADD PUSH2 0x6DA SWAP1 PUSH2 0x2E8B JUMP JUMPDEST CALLER PUSH1 0x0 DUP2 DUP2 MSTORE PUSH1 0x1 PUSH1 0x20 SWAP1 DUP2 MSTORE PUSH1 0x40 DUP1 DUP4 KECCAK256 PUSH1 0x2 DUP4 MSTORE DUP2 DUP5 KECCAK256 PUSH1 0x1 PUSH1 0x1 PUSH1 0xA0 SHL SUB DUP8 AND DUP1 DUP7 MSTORE DUP2 DUP6 MSTORE DUP4 DUP7 KECCAK256 DUP1 SLOAD PUSH1 0x1 PUSH1 0x1 PUSH1 0x80 SHL SUB AND DUP8 MSTORE SWAP3 DUP6 MSTORE DUP4 DUP7 KECCAK256 DUP1 SLOAD PUSH1 0x1 PUSH1 0x1 PUSH1 0xA0 SHL SUB NOT AND SWAP1 SSTORE SWAP5 DUP6 SWAP1 MSTORE DUP4 MSTORE DUP1 SLOAD PUSH1 0x1 PUSH1 0x1 PUSH1 0x80 SHL SUB NOT AND SWAP1 SSTORE DUP1 MLOAD SWAP4 DUP5 MSTORE SWAP1 DUP4 ADD SWAP2 SWAP1 SWAP2 MSTORE PUSH32 0xAD5EEAA2EE1BEF6674ECEA21B9329A0A9333380EAF145A4B888951038C8AA40C SWAP2 ADD PUSH2 0xE44 JUMP JUMPDEST PUSH1 0x6 SLOAD PUSH1 0x40 MLOAD PUSH4 0x38C3329 PUSH1 0xE5 SHL DUP2 MSTORE CALLER PUSH1 0x4 DUP3 ADD MSTORE PUSH1 0x1 PUSH1 0x1 PUSH1 0xA0 SHL SUB SWAP1 SWAP2 AND SWAP1 PUSH4 0x71866520 SWAP1 PUSH1 0x24 ADD PUSH1 0x20 PUSH1 0x40 MLOAD DUP1 DUP4 SUB DUP2 DUP7 GAS STATICCALL ISZERO DUP1 ISZERO PUSH2 0x1923 JUMPI RETURNDATASIZE PUSH1 0x0 DUP1 RETURNDATACOPY RETURNDATASIZE PUSH1 0x0 REVERT JUMPDEST POP POP POP POP PUSH1 0x40 MLOAD RETURNDATASIZE PUSH1 0x1F NOT PUSH1 0x1F DUP3 ADD AND DUP3 ADD DUP1 PUSH1 0x40 MSTORE POP DUP2 ADD SWAP1 PUSH2 0x1947 SWAP2 SWAP1 PUSH2 0x2DD4 JUMP JUMPDEST PUSH2 0x1963 JUMPI PUSH1 0x40 MLOAD PUSH3 0x461BCD PUSH1 0xE5 SHL DUP2 MSTORE PUSH1 0x4 ADD PUSH2 0x6DA SWAP1 PUSH2 0x2DF1 JUMP JUMPDEST PUSH1 0xC0 DUP2 ADD MLOAD PUSH1 0x1 PUSH1 0x1 PUSH1 0xA0 SHL SUB AND PUSH1 0x0 SWAP1 DUP2 MSTORE PUSH1 0x3 PUSH1 0x20 MSTORE PUSH1 0x40 SWAP1 KECCAK256 PUSH1 0x6 ADD SLOAD PUSH1 0x1 PUSH1 0xB0 SHL SWAP1 DIV PUSH1 0xFF AND ISZERO ISZERO PUSH1 0x1 SUB PUSH2 0x19CF JUMPI PUSH1 0x40 MLOAD PUSH3 0x461BCD PUSH1 0xE5 SHL DUP2 MSTORE PUSH1 0x20 PUSH1 0x4 DUP3 ADD MSTORE PUSH1 0xE PUSH1 0x24 DUP3 ADD MSTORE PUSH14 0x1D1A194818DBDA5B88195E1A5CDD PUSH1 0x92 SHL PUSH1 0x44 DUP3 ADD MSTORE PUSH1 0x64 ADD PUSH2 0x6DA JUMP JUMPDEST CALLER PUSH2 0x140 DUP3 ADD MSTORE PUSH1 0x0 PUSH1 0xE0 DUP3 ADD DUP2 SWAP1 MSTORE PUSH1 0x1 PUSH2 0x100 DUP4 ADD DUP2 SWAP1 MSTORE PUSH2 0x120 DUP4 ADD DUP2 SWAP1 MSTORE PUSH1 0x6 SLOAD PUSH1 0x1 PUSH1 0x1 PUSH1 0xA0 SHL SUB AND DUP3 MSTORE PUSH1 0x20 DUP3 SWAP1 MSTORE PUSH1 0x40 SWAP1 SWAP2 KECCAK256 SLOAD PUSH1 0x1 PUSH1 0x1 PUSH1 0x80 SHL SUB AND SWAP1 DUP2 LT DUP1 ISZERO SWAP1 PUSH2 0x1A3F JUMPI POP PUSH1 0x1 PUSH1 0x1 PUSH1 0x80 SHL SUB DUP2 AND PUSH2 0x1A33 DUP3 PUSH1 0x1 PUSH2 0x2E38 JUMP JUMPDEST PUSH1 0x1 PUSH1 0x1 PUSH1 0x80 SHL SUB AND LT ISZERO JUMPDEST ISZERO PUSH2 0x1A56 JUMPI PUSH2 0x1A4F PUSH1 0x1 DUP3 PUSH2 0x2E38 JUMP JUMPDEST SWAP1 POP PUSH2 0x1A5A JUMP JUMPDEST POP PUSH1 0x1 JUMPDEST PUSH1 0x6 DUP1 SLOAD PUSH1 0x1 PUSH1 0x1 PUSH1 0xA0 SHL SUB SWAP1 DUP2 AND PUSH1 0x0 SWAP1 DUP2 MSTORE PUSH1 0x20 DUP2 DUP2 MSTORE PUSH1 0x40 DUP1 DUP4 KECCAK256 DUP1 SLOAD PUSH1 0x1 PUSH1 0x1 PUSH1 0x80 SHL SUB DUP9 AND PUSH1 0x1 PUSH1 0x1 PUSH1 0x80 SHL SUB NOT SWAP2 DUP3 AND DUP2 OR SWAP1 SWAP3 SSTORE PUSH1 0xC0 DUP10 ADD DUP1 MLOAD DUP9 SLOAD DUP9 AND DUP8 MSTORE PUSH1 0x1 DUP1 DUP8 MSTORE DUP6 DUP9 KECCAK256 DUP6 DUP10 MSTORE DUP8 MSTORE DUP6 DUP9 KECCAK256 DUP1 SLOAD SWAP3 DUP11 AND PUSH1 0x1 PUSH1 0x1 PUSH1 0xA0 SHL SUB NOT SWAP4 DUP5 AND OR SWAP1 SSTORE DUP10 SLOAD DUP10 AND DUP9 MSTORE PUSH1 0x2 DUP1 DUP9 MSTORE DUP7 DUP10 KECCAK256 DUP5 MLOAD DUP12 AND DUP11 MSTORE DUP9 MSTORE DUP7 DUP10 KECCAK256 DUP1 SLOAD SWAP1 SWAP6 AND SWAP1 SWAP6 OR SWAP1 SWAP4 SSTORE DUP2 MLOAD DUP9 AND DUP8 MSTORE PUSH1 0x3 DUP1 DUP8 MSTORE SWAP7 DUP6 SWAP1 KECCAK256 DUP12 MLOAD DUP2 SSTORE SWAP6 DUP12 ADD MLOAD SWAP3 DUP7 ADD SWAP3 SWAP1 SWAP3 SSTORE DUP10 DUP5 ADD MLOAD SWAP3 DUP6 ADD SWAP3 SWAP1 SWAP3 SSTORE PUSH1 0x60 DUP10 ADD MLOAD SWAP5 DUP5 ADD DUP1 SLOAD PUSH1 0xFF SWAP1 SWAP7 AND PUSH1 0xFF NOT SWAP1 SWAP7 AND SWAP6 SWAP1 SWAP6 OR SWAP1 SWAP5 SSTORE PUSH1 0x80 DUP9 ADD MLOAD PUSH1 0x4 DUP5 ADD SSTORE PUSH1 0xA0 DUP9 ADD MLOAD PUSH1 0x5 DUP5 ADD SSTORE MLOAD SWAP5 DUP3 ADD DUP1 SLOAD PUSH1 0xE0 DUP10 ADD MLOAD PUSH2 0x100 DUP11 ADD MLOAD PUSH2 0x120 DUP12 ADD MLOAD ISZERO ISZERO PUSH1 0x1 PUSH1 0xB0 SHL MUL PUSH1 0xFF PUSH1 0xB0 SHL NOT SWAP2 ISZERO ISZERO PUSH1 0x1 PUSH1 0xA8 SHL MUL SWAP2 SWAP1 SWAP2 AND PUSH2 0xFFFF PUSH1 0xA8 SHL NOT SWAP3 ISZERO ISZERO PUSH1 0x1 PUSH1 0xA0 SHL MUL PUSH1 0x1 PUSH1 0x1 PUSH1 0xA8 SHL SUB NOT SWAP1 SWAP5 AND SWAP10 DUP10 AND SWAP10 SWAP1 SWAP10 OR SWAP3 SWAP1 SWAP3 OR AND SWAP7 SWAP1 SWAP7 OR SWAP6 SWAP1 SWAP6 OR SWAP1 SWAP5 SSTORE PUSH2 0x140 DUP7 ADD MLOAD PUSH1 0x7 SWAP1 SWAP2 ADD DUP1 SLOAD SWAP2 SWAP1 SWAP4 AND SWAP2 AND OR SWAP1 SSTORE MLOAD PUSH32 0x3FDEABF9CF0F252033E117E3BF501C16A9E905759535453A989A37BBB55557CB SWAP1 PUSH2 0xACB SWAP1 DUP5 SWAP1 PUSH2 0x2CE7 JUMP JUMPDEST PUSH1 0x6 SLOAD PUSH1 0x40 MLOAD PUSH4 0x38C3329 PUSH1 0xE5 SHL DUP2 MSTORE CALLER PUSH1 0x4 DUP3 ADD MSTORE PUSH1 0x1 PUSH1 0x1 PUSH1 0xA0 SHL SUB SWAP1 SWAP2 AND SWAP1 PUSH4 0x71866520 SWAP1 PUSH1 0x24 ADD PUSH1 0x20 PUSH1 0x40 MLOAD DUP1 DUP4 SUB DUP2 DUP7 GAS STATICCALL ISZERO DUP1 ISZERO PUSH2 0x1C33 JUMPI RETURNDATASIZE PUSH1 0x0 DUP1 RETURNDATACOPY RETURNDATASIZE PUSH1 0x0 REVERT JUMPDEST POP POP POP POP PUSH1 0x40 MLOAD RETURNDATASIZE PUSH1 0x1F NOT PUSH1 0x1F DUP3 ADD AND DUP3 ADD DUP1 PUSH1 0x40 MSTORE POP DUP2 ADD SWAP1 PUSH2 0x1C57 SWAP2 SWAP1 PUSH2 0x2DD4 JUMP JUMPDEST PUSH2 0x1C73 JUMPI PUSH1 0x40 MLOAD PUSH3 0x461BCD PUSH1 0xE5 SHL DUP2 MSTORE PUSH1 0x4 ADD PUSH2 0x6DA SWAP1 PUSH2 0x2DF1 JUMP JUMPDEST PUSH1 0x1 PUSH1 0x1 PUSH1 0xA0 SHL SUB DUP2 AND PUSH1 0x0 DUP2 DUP2 MSTORE PUSH1 0x3 PUSH1 0x20 SWAP1 DUP2 MSTORE PUSH1 0x40 SWAP2 DUP3 SWAP1 KECCAK256 PUSH1 0x6 ADD DUP1 SLOAD PUSH1 0xFF PUSH1 0xA0 SHL NOT AND SWAP1 SSTORE SWAP1 MLOAD SWAP2 DUP3 MSTORE PUSH32 0x1D4523355C952F926D43EB41085D74F46339403039EC5258081EFA96EA26EDD7 SWAP2 ADD PUSH2 0xE44 JUMP JUMPDEST PUSH1 0x7 SLOAD PUSH1 0x1 PUSH1 0x1 PUSH1 0xA0 SHL SUB AND CALLER EQ PUSH2 0x1D24 JUMPI PUSH1 0x40 MLOAD PUSH3 0x461BCD PUSH1 0xE5 SHL DUP2 MSTORE PUSH1 0x20 PUSH1 0x4 DUP3 ADD MSTORE PUSH1 0x19 PUSH1 0x24 DUP3 ADD MSTORE PUSH32 0x796F7520617265206E6F74206D61726B65746372656174657200000000000000 PUSH1 0x44 DUP3 ADD MSTORE PUSH1 0x64 ADD PUSH2 0x6DA JUMP JUMPDEST PUSH1 0x6 DUP1 SLOAD PUSH1 0x1 PUSH1 0x1 PUSH1 0xA0 SHL SUB SWAP5 DUP6 AND PUSH1 0x1 PUSH1 0x1 PUSH1 0xA0 SHL SUB NOT SWAP2 DUP3 AND OR SWAP1 SWAP2 SSTORE PUSH1 0x5 DUP1 SLOAD SWAP4 DUP6 AND SWAP4 DUP3 AND SWAP4 SWAP1 SWAP4 OR SWAP1 SWAP3 SSTORE PUSH1 0x7 DUP1 SLOAD SWAP2 SWAP1 SWAP4 AND SWAP2 AND OR SWAP1 SSTORE JUMP JUMPDEST PUSH1 0x5 SLOAD PUSH1 0x40 MLOAD PUSH4 0x601C2149 PUSH1 0xE1 SHL DUP2 MSTORE CALLER PUSH1 0x4 DUP3 ADD MSTORE PUSH1 0x1 PUSH1 0x1 PUSH1 0xA0 SHL SUB SWAP1 SWAP2 AND SWAP1 PUSH4 0xC0384292 SWAP1 PUSH1 0x24 ADD PUSH1 0x20 PUSH1 0x40 MLOAD DUP1 DUP4 SUB DUP2 DUP7 GAS STATICCALL ISZERO DUP1 ISZERO PUSH2 0x1DAB JUMPI RETURNDATASIZE PUSH1 0x0 DUP1 RETURNDATACOPY RETURNDATASIZE PUSH1 0x0 REVERT JUMPDEST POP POP POP POP PUSH1 0x40 MLOAD RETURNDATASIZE PUSH1 0x1F NOT PUSH1 0x1F DUP3 ADD AND DUP3 ADD DUP1 PUSH1 0x40 MSTORE POP DUP2 ADD SWAP1 PUSH2 0x1DCF SWAP2 SWAP1 PUSH2 0x2DD4 JUMP JUMPDEST PUSH2 0x1DEB JUMPI PUSH1 0x40 MLOAD PUSH3 0x461BCD PUSH1 0xE5 SHL DUP2 MSTORE PUSH1 0x4 ADD PUSH2 0x6DA SWAP1 PUSH2 0x2DF1 JUMP JUMPDEST PUSH1 0x1 PUSH1 0x1 PUSH1 0xA0 SHL SUB DUP2 DUP2 AND PUSH1 0x0 SWAP1 DUP2 MSTORE PUSH1 0x3 PUSH1 0x20 MSTORE PUSH1 0x40 SWAP1 KECCAK256 PUSH1 0x7 ADD SLOAD AND CALLER EQ PUSH2 0x1E27 JUMPI PUSH1 0x40 MLOAD PUSH3 0x461BCD PUSH1 0xE5 SHL DUP2 MSTORE PUSH1 0x4 ADD PUSH2 0x6DA SWAP1 PUSH2 0x2EBB JUMP JUMPDEST PUSH1 0x1 PUSH1 0x1 PUSH1 0xA0 SHL SUB DUP2 AND PUSH1 0x0 SWAP1 DUP2 MSTORE PUSH1 0x3 PUSH1 0x20 DUP2 SWAP1 MSTORE PUSH1 0x40 SWAP2 DUP3 SWAP1 KECCAK256 DUP10 DUP2 SSTORE PUSH1 0x1 DUP2 ADD DUP10 SWAP1 SSTORE PUSH1 0x2 DUP2 ADD DUP9 SWAP1 SSTORE SWAP1 DUP2 ADD DUP1 SLOAD PUSH1 0xFF NOT AND PUSH1 0xFF DUP9 AND OR SWAP1 SSTORE PUSH1 0x4 DUP2 ADD DUP6 SWAP1 SSTORE PUSH1 0x5 DUP2 ADD DUP5 SWAP1 SSTORE SWAP1 MLOAD PUSH32 0xE2CF3D7794282BE7DD508F8C88CA5394F0ABE2B9F09B848306B1EADD0BECDF94 SWAP2 PUSH2 0x1EA2 SWAP2 CALLER SWAP2 SWAP1 PUSH2 0x2EEB JUMP JUMPDEST PUSH1 0x40 MLOAD DUP1 SWAP2 SUB SWAP1 LOG1 POP POP POP POP POP POP POP JUMP JUMPDEST PUSH1 0x5 SLOAD PUSH1 0x40 MLOAD PUSH4 0x601C2149 PUSH1 0xE1 SHL DUP2 MSTORE CALLER PUSH1 0x4 DUP3 ADD MSTORE PUSH1 0x1 PUSH1 0x1 PUSH1 0xA0 SHL SUB SWAP1 SWAP2 AND SWAP1 PUSH4 0xC0384292 SWAP1 PUSH1 0x24 ADD PUSH1 0x20 PUSH1 0x40 MLOAD DUP1 DUP4 SUB DUP2 DUP7 GAS STATICCALL ISZERO DUP1 ISZERO PUSH2 0x1EFB JUMPI RETURNDATASIZE PUSH1 0x0 DUP1 RETURNDATACOPY RETURNDATASIZE PUSH1 0x0 REVERT JUMPDEST POP POP POP POP PUSH1 0x40 MLOAD RETURNDATASIZE PUSH1 0x1F NOT PUSH1 0x1F DUP3 ADD AND DUP3 ADD DUP1 PUSH1 0x40 MSTORE POP DUP2 ADD SWAP1 PUSH2 0x1F1F SWAP2 SWAP1 PUSH2 0x2DD4 JUMP JUMPDEST PUSH2 0x1F3B JUMPI PUSH1 0x40 MLOAD PUSH3 0x461BCD PUSH1 0xE5 SHL DUP2 MSTORE PUSH1 0x4 ADD PUSH2 0x6DA SWAP1 PUSH2 0x2DF1 JUMP JUMPDEST DUP1 MLOAD PUSH1 0x1 PUSH1 0x1 PUSH1 0xA0 SHL SUB SWAP1 DUP2 AND PUSH1 0x0 SWAP1 DUP2 MSTORE PUSH1 0x3 PUSH1 0x20 MSTORE PUSH1 0x40 SWAP1 KECCAK256 PUSH1 0x7 ADD SLOAD AND CALLER EQ PUSH2 0xDB1 JUMPI PUSH1 0x40 MLOAD PUSH3 0x461BCD PUSH1 0xE5 SHL DUP2 MSTORE PUSH1 0x20 PUSH1 0x4 DUP3 ADD MSTORE PUSH1 0x1C PUSH1 0x24 DUP3 ADD MSTORE PUSH32 0x796F75206973206E6F7420746865207468696E67206372656174657200000000 PUSH1 0x44 DUP3 ADD MSTORE PUSH1 0x64 ADD PUSH2 0x6DA JUMP JUMPDEST PUSH1 0x5 SLOAD PUSH1 0x40 MLOAD PUSH4 0x601C2149 PUSH1 0xE1 SHL DUP2 MSTORE CALLER PUSH1 0x4 DUP3 ADD MSTORE PUSH1 0x1 PUSH1 0x1 PUSH1 0xA0 SHL SUB SWAP1 SWAP2 AND SWAP1 PUSH4 0xC0384292 SWAP1 PUSH1 0x24 ADD PUSH1 0x20 PUSH1 0x40 MLOAD DUP1 DUP4 SUB DUP2 DUP7 GAS STATICCALL ISZERO DUP1 ISZERO PUSH2 0x1FF1 JUMPI RETURNDATASIZE PUSH1 0x0 DUP1 RETURNDATACOPY RETURNDATASIZE PUSH1 0x0 REVERT JUMPDEST POP POP POP POP PUSH1 0x40 MLOAD RETURNDATASIZE PUSH1 0x1F NOT PUSH1 0x1F DUP3 ADD AND DUP3 ADD DUP1 PUSH1 0x40 MSTORE POP DUP2 ADD SWAP1 PUSH2 0x2015 SWAP2 SWAP1 PUSH2 0x2DD4 JUMP JUMPDEST PUSH2 0x2031 JUMPI PUSH1 0x40 MLOAD PUSH3 0x461BCD PUSH1 0xE5 SHL DUP2 MSTORE PUSH1 0x4 ADD PUSH2 0x6DA SWAP1 PUSH2 0x2DF1 JUMP JUMPDEST PUSH1 0xC0 DUP2 ADD MLOAD PUSH1 0x1 PUSH1 0x1 PUSH1 0xA0 SHL SUB AND PUSH1 0x0 SWAP1 DUP2 MSTORE PUSH1 0x3 PUSH1 0x20 MSTORE PUSH1 0x40 SWAP1 KECCAK256 PUSH1 0x6 ADD SLOAD PUSH1 0x1 PUSH1 0xB0 SHL SWAP1 DIV PUSH1 0xFF AND ISZERO ISZERO PUSH1 0x1 SUB PUSH2 0x20A1 JUMPI PUSH1 0x40 MLOAD PUSH3 0x461BCD PUSH1 0xE5 SHL DUP2 MSTORE PUSH1 0x20 PUSH1 0x4 DUP3 ADD MSTORE PUSH1 0x12 PUSH1 0x24 DUP3 ADD MSTORE PUSH18 0x1D1A194818DBDA5B881A5CC808195E1A5CDD PUSH1 0x72 SHL PUSH1 0x44 DUP3 ADD MSTORE PUSH1 0x64 ADD PUSH2 0x6DA JUMP JUMPDEST CALLER PUSH2 0x140 DUP3 ADD DUP2 SWAP1 MSTORE PUSH1 0x0 PUSH1 0xE0 DUP4 ADD DUP2 SWAP1 MSTORE PUSH2 0x100 DUP4 ADD DUP2 SWAP1 MSTORE PUSH1 0x1 PUSH2 0x120 DUP5 ADD DUP2 SWAP1 MSTORE SWAP2 DUP2 MSTORE PUSH1 0x20 DUP2 SWAP1 MSTORE PUSH1 0x40 SWAP1 KECCAK256 SLOAD PUSH1 0x1 PUSH1 0x1 PUSH1 0x80 SHL SUB AND LT DUP1 ISZERO SWAP1 PUSH2 0x2114 JUMPI POP CALLER PUSH1 0x0 SWAP1 DUP2 MSTORE PUSH1 0x20 DUP2 SWAP1 MSTORE PUSH1 0x40 SWAP1 KECCAK256 SLOAD PUSH1 0x1 PUSH1 0x1 PUSH1 0x80 SHL SUB AND PUSH2 0x2108 DUP2 PUSH1 0x1 PUSH2 0x2E38 JUMP JUMPDEST PUSH1 0x1 PUSH1 0x1 PUSH1 0x80 SHL SUB AND LT ISZERO JUMPDEST ISZERO PUSH2 0x216B JUMPI CALLER PUSH1 0x0 SWAP1 DUP2 MSTORE PUSH1 0x20 DUP2 SWAP1 MSTORE PUSH1 0x40 DUP2 KECCAK256 DUP1 SLOAD PUSH1 0x1 SWAP3 SWAP1 PUSH2 0x2142 SWAP1 DUP5 SWAP1 PUSH1 0x1 PUSH1 0x1 PUSH1 0x80 SHL SUB AND PUSH2 0x2E38 JUMP JUMPDEST SWAP3 POP PUSH2 0x100 EXP DUP2 SLOAD DUP2 PUSH1 0x1 PUSH1 0x1 PUSH1 0x80 SHL SUB MUL NOT AND SWAP1 DUP4 PUSH1 0x1 PUSH1 0x1 PUSH1 0x80 SHL SUB AND MUL OR SWAP1 SSTORE POP PUSH2 0x218C JUMP JUMPDEST CALLER PUSH1 0x0 SWAP1 DUP2 MSTORE PUSH1 0x20 DUP2 SWAP1 MSTORE PUSH1 0x40 SWAP1 KECCAK256 DUP1 SLOAD PUSH1 0x1 PUSH1 0x1 PUSH1 0x80 SHL SUB NOT AND PUSH1 0x1 OR SWAP1 SSTORE JUMPDEST PUSH1 0xC0 DUP2 ADD DUP1 MLOAD CALLER PUSH1 0x0 DUP2 DUP2 MSTORE PUSH1 0x1 PUSH1 0x20 DUP2 DUP2 MSTORE PUSH1 0x40 DUP1 DUP5 KECCAK256 DUP5 DUP4 MSTORE DUP2 DUP6 KECCAK256 DUP1 SLOAD PUSH1 0x1 PUSH1 0x1 PUSH1 0x80 SHL SUB SWAP1 DUP2 AND DUP8 MSTORE SWAP2 DUP5 MSTORE DUP3 DUP7 KECCAK256 DUP1 SLOAD PUSH1 0x1 PUSH1 0x1 PUSH1 0xA0 SHL SUB SWAP10 DUP11 AND PUSH1 0x1 PUSH1 0x1 PUSH1 0xA0 SHL SUB NOT SWAP2 DUP3 AND OR SWAP1 SWAP2 SSTORE DUP8 DUP8 MSTORE SWAP1 SLOAD PUSH1 0x2 DUP1 DUP7 MSTORE DUP5 DUP9 KECCAK256 DUP12 MLOAD DUP12 AND DUP10 MSTORE DUP7 MSTORE DUP5 DUP9 KECCAK256 DUP1 SLOAD PUSH1 0x1 PUSH1 0x1 PUSH1 0x80 SHL SUB NOT AND SWAP3 SWAP1 SWAP5 AND SWAP2 SWAP1 SWAP2 OR SWAP1 SWAP3 SSTORE DUP9 MLOAD DUP9 AND DUP7 MSTORE PUSH1 0x3 DUP1 DUP6 MSTORE SWAP6 DUP4 SWAP1 KECCAK256 DUP11 MLOAD DUP2 SSTORE SWAP4 DUP11 ADD MLOAD SWAP5 DUP5 ADD SWAP5 SWAP1 SWAP5 SSTORE DUP2 DUP10 ADD MLOAD SWAP1 DUP4 ADD SSTORE PUSH1 0x60 DUP9 ADD MLOAD SWAP4 DUP3 ADD DUP1 SLOAD PUSH1 0xFF SWAP1 SWAP6 AND PUSH1 0xFF NOT SWAP1 SWAP6 AND SWAP5 SWAP1 SWAP5 OR SWAP1 SWAP4 SSTORE PUSH1 0x80 DUP8 ADD MLOAD PUSH1 0x4 DUP3 ADD SSTORE PUSH1 0xA0 DUP8 ADD MLOAD PUSH1 0x5 DUP3 ADD SSTORE SWAP5 MLOAD PUSH1 0x6 DUP7 ADD DUP1 SLOAD PUSH1 0xE0 DUP10 ADD MLOAD PUSH2 0x100 DUP11 ADD MLOAD PUSH2 0x120 DUP12 ADD MLOAD ISZERO ISZERO PUSH1 0x1 PUSH1 0xB0 SHL MUL PUSH1 0xFF PUSH1 0xB0 SHL NOT SWAP2 ISZERO ISZERO PUSH1 0x1 PUSH1 0xA8 SHL MUL SWAP2 SWAP1 SWAP2 AND PUSH2 0xFFFF PUSH1 0xA8 SHL NOT SWAP3 ISZERO ISZERO PUSH1 0x1 PUSH1 0xA0 SHL MUL PUSH1 0x1 PUSH1 0x1 PUSH1 0xA8 SHL SUB NOT SWAP1 SWAP5 AND SWAP6 DUP11 AND SWAP6 SWAP1 SWAP6 OR SWAP3 SWAP1 SWAP3 OR AND SWAP3 SWAP1 SWAP3 OR SWAP2 SWAP1 SWAP2 OR SWAP1 SSTORE PUSH2 0x140 DUP7 ADD MLOAD PUSH1 0x7 SWAP1 SWAP6 ADD DUP1 SLOAD SWAP6 SWAP1 SWAP5 AND SWAP5 AND SWAP4 SWAP1 SWAP4 OR SWAP1 SWAP2 SSTORE SWAP1 MLOAD PUSH32 0x724ED868AD6195EC663DE17364300EE1E1956F27F184CEB84F2BE30D1FD58D65 SWAP2 PUSH2 0xE44 SWAP2 DUP5 SWAP1 PUSH2 0x2E6D JUMP JUMPDEST PUSH2 0x2318 PUSH2 0x2946 JUMP JUMPDEST PUSH1 0x1 PUSH1 0x1 PUSH1 0xA0 SHL SUB DUP3 AND PUSH1 0x0 SWAP1 DUP2 MSTORE PUSH1 0x3 PUSH1 0x20 MSTORE PUSH1 0x40 SWAP1 KECCAK256 PUSH1 0x6 ADD SLOAD PUSH1 0x1 PUSH1 0xB0 SHL SWAP1 DIV PUSH1 0xFF AND ISZERO ISZERO PUSH1 0x1 EQ PUSH2 0x235F JUMPI PUSH1 0x40 MLOAD PUSH3 0x461BCD PUSH1 0xE5 SHL DUP2 MSTORE PUSH1 0x4 ADD PUSH2 0x6DA SWAP1 PUSH2 0x2E8B JUMP JUMPDEST POP PUSH1 0x1 PUSH1 0x1 PUSH1 0xA0 SHL SUB SWAP1 DUP2 AND PUSH1 0x0 SWAP1 DUP2 MSTORE PUSH1 0x3 PUSH1 0x20 DUP2 DUP2 MSTORE PUSH1 0x40 SWAP3 DUP4 SWAP1 KECCAK256 DUP4 MLOAD PUSH2 0x160 DUP2 ADD DUP6 MSTORE DUP2 SLOAD DUP2 MSTORE PUSH1 0x1 DUP3 ADD SLOAD SWAP3 DUP2 ADD SWAP3 SWAP1 SWAP3 MSTORE PUSH1 0x2 DUP2 ADD SLOAD SWAP4 DUP3 ADD SWAP4 SWAP1 SWAP4 MSTORE SWAP1 DUP3 ADD SLOAD PUSH1 0xFF SWAP1 DUP2 AND PUSH1 0x60 DUP4 ADD MSTORE PUSH1 0x4 DUP4 ADD SLOAD PUSH1 0x80 DUP4 ADD MSTORE PUSH1 0x5 DUP4 ADD SLOAD PUSH1 0xA0 DUP4 ADD MSTORE PUSH1 0x6 DUP4 ADD SLOAD DUP1 DUP6 AND PUSH1 0xC0 DUP5 ADD MSTORE PUSH1 0x1 PUSH1 0xA0 SHL DUP2 DIV DUP3 AND ISZERO ISZERO PUSH1 0xE0 DUP5 ADD MSTORE PUSH1 0x1 PUSH1 0xA8 SHL DUP2 DIV DUP3 AND ISZERO ISZERO PUSH2 0x100 DUP5 ADD MSTORE PUSH1 0x1 PUSH1 0xB0 SHL SWAP1 DIV AND ISZERO ISZERO PUSH2 0x120 DUP3 ADD MSTORE PUSH1 0x7 SWAP1 SWAP2 ADD SLOAD SWAP1 SWAP2 AND PUSH2 0x140 DUP3 ADD MSTORE SWAP1 JUMP JUMPDEST PUSH1 0x6 SLOAD PUSH1 0x40 MLOAD PUSH4 0x38C3329 PUSH1 0xE5 SHL DUP2 MSTORE CALLER PUSH1 0x4 DUP3 ADD MSTORE PUSH1 0x1 PUSH1 0x1 PUSH1 0xA0 SHL SUB SWAP1 SWAP2 AND SWAP1 PUSH4 0x71866520 SWAP1 PUSH1 0x24 ADD PUSH1 0x20 PUSH1 0x40 MLOAD DUP1 DUP4 SUB DUP2 DUP7 GAS STATICCALL ISZERO DUP1 ISZERO PUSH2 0x245C JUMPI RETURNDATASIZE PUSH1 0x0 DUP1 RETURNDATACOPY RETURNDATASIZE PUSH1 0x0 REVERT JUMPDEST POP POP POP POP PUSH1 0x40 MLOAD RETURNDATASIZE PUSH1 0x1F NOT PUSH1 0x1F DUP3 ADD AND DUP3 ADD DUP1 PUSH1 0x40 MSTORE POP DUP2 ADD SWAP1 PUSH2 0x2480 SWAP2 SWAP1 PUSH2 0x2DD4 JUMP JUMPDEST PUSH2 0x249C JUMPI PUSH1 0x40 MLOAD PUSH3 0x461BCD PUSH1 0xE5 SHL DUP2 MSTORE PUSH1 0x4 ADD PUSH2 0x6DA SWAP1 PUSH2 0x2DF1 JUMP JUMPDEST PUSH1 0x6 SLOAD PUSH1 0x1 PUSH1 0x1 PUSH1 0xA0 SHL SUB SWAP1 DUP2 AND PUSH1 0x0 SWAP1 DUP2 MSTORE PUSH1 0x1 PUSH1 0x20 SWAP1 DUP2 MSTORE PUSH1 0x40 DUP1 DUP4 KECCAK256 PUSH1 0x1 PUSH1 0x1 PUSH1 0x80 SHL SUB DUP7 AND DUP5 MSTORE SWAP1 SWAP2 MSTORE SWAP1 KECCAK256 SLOAD AND PUSH2 0x24EA JUMPI PUSH1 0x40 MLOAD PUSH3 0x461BCD PUSH1 0xE5 SHL DUP2 MSTORE PUSH1 0x4 ADD PUSH2 0x6DA SWAP1 PUSH2 0x2E8B JUMP JUMPDEST PUSH1 0x6 DUP1 SLOAD PUSH1 0x1 PUSH1 0x1 PUSH1 0xA0 SHL SUB SWAP1 DUP2 AND PUSH1 0x0 SWAP1 DUP2 MSTORE PUSH1 0x2 PUSH1 0x20 SWAP1 DUP2 MSTORE PUSH1 0x40 DUP1 DUP4 KECCAK256 PUSH1 0x1 DUP1 DUP5 MSTORE DUP3 DUP6 KECCAK256 PUSH1 0x1 PUSH1 0x1 PUSH1 0x80 SHL SUB DUP10 AND DUP1 DUP8 MSTORE SWAP1 DUP6 MSTORE DUP4 DUP7 KECCAK256 SLOAD DUP8 AND DUP7 MSTORE SWAP2 DUP5 MSTORE DUP3 DUP6 KECCAK256 DUP1 SLOAD PUSH1 0x1 PUSH1 0x1 PUSH1 0x80 SHL SUB NOT AND SWAP1 SSTORE SWAP6 SLOAD SWAP1 SWAP5 AND DUP4 MSTORE SWAP4 DUP2 MSTORE DUP4 DUP3 KECCAK256 DUP4 DUP4 MSTORE DUP2 MSTORE SWAP1 DUP4 SWAP1 KECCAK256 DUP1 SLOAD PUSH1 0x1 PUSH1 0x1 PUSH1 0xA0 SHL SUB NOT AND SWAP1 SSTORE SWAP2 MLOAD SWAP1 DUP2 MSTORE PUSH32 0x5F7C082CCCA0F36EC2622A3F2D11CF4A4B3A0DB0557669195572256A1DB6BE98 SWAP2 ADD PUSH2 0xE44 JUMP JUMPDEST PUSH1 0x6 SLOAD PUSH1 0x40 MLOAD PUSH4 0x38C3329 PUSH1 0xE5 SHL DUP2 MSTORE CALLER PUSH1 0x4 DUP3 ADD MSTORE PUSH1 0x1 PUSH1 0x1 PUSH1 0xA0 SHL SUB SWAP1 SWAP2 AND SWAP1 PUSH4 0x71866520 SWAP1 PUSH1 0x24 ADD PUSH1 0x20 PUSH1 0x40 MLOAD DUP1 DUP4 SUB DUP2 DUP7 GAS STATICCALL ISZERO DUP1 ISZERO PUSH2 0x25D7 JUMPI RETURNDATASIZE PUSH1 0x0 DUP1 RETURNDATACOPY RETURNDATASIZE PUSH1 0x0 REVERT JUMPDEST POP POP POP POP PUSH1 0x40 MLOAD RETURNDATASIZE PUSH1 0x1F NOT PUSH1 0x1F DUP3 ADD AND DUP3 ADD DUP1 PUSH1 0x40 MSTORE POP DUP2 ADD SWAP1 PUSH2 0x25FB SWAP2 SWAP1 PUSH2 0x2DD4 JUMP JUMPDEST PUSH2 0x2617 JUMPI PUSH1 0x40 MLOAD PUSH3 0x461BCD PUSH1 0xE5 SHL DUP2 MSTORE PUSH1 0x4 ADD PUSH2 0x6DA SWAP1 PUSH2 0x2DF1 JUMP JUMPDEST PUSH1 0xC0 DUP3 ADD MLOAD PUSH1 0x1 PUSH1 0x1 PUSH1 0xA0 SHL SUB AND PUSH1 0x0 SWAP1 DUP2 MSTORE PUSH1 0x3 PUSH1 0x20 MSTORE PUSH1 0x40 SWAP1 KECCAK256 PUSH1 0x6 ADD SLOAD PUSH1 0x1 PUSH1 0xB0 SHL SWAP1 DIV PUSH1 0xFF AND ISZERO ISZERO PUSH1 0x1 SUB PUSH2 0x2683 JUMPI PUSH1 0x40 MLOAD PUSH3 0x461BCD PUSH1 0xE5 SHL DUP2 MSTORE PUSH1 0x20 PUSH1 0x4 DUP3 ADD MSTORE PUSH1 0xE PUSH1 0x24 DUP3 ADD MSTORE PUSH14 0x1D1A194818DBDA5B88195E1A5CDD PUSH1 0x92 SHL PUSH1 0x44 DUP3 ADD MSTORE PUSH1 0x64 ADD PUSH2 0x6DA JUMP JUMPDEST CALLER PUSH2 0x140 DUP4 ADD MSTORE PUSH1 0x0 PUSH1 0xE0 DUP4 ADD DUP2 SWAP1 MSTORE PUSH1 0x1 PUSH2 0x100 DUP5 ADD DUP2 SWAP1 MSTORE PUSH2 0x120 DUP5 ADD DUP2 SWAP1 MSTORE PUSH1 0x6 SLOAD PUSH1 0x1 PUSH1 0x1 PUSH1 0xA0 SHL SUB AND DUP3 MSTORE PUSH1 0x20 DUP3 SWAP1 MSTORE PUSH1 0x40 SWAP1 SWAP2 KECCAK256 SLOAD PUSH1 0x1 PUSH1 0x1 PUSH1 0x80 SHL SUB AND SWAP1 DUP2 LT DUP1 ISZERO SWAP1 PUSH2 0x26F3 JUMPI POP PUSH1 0x1 PUSH1 0x1 PUSH1 0x80 SHL SUB DUP2 AND PUSH2 0x26E7 DUP3 PUSH1 0x1 PUSH2 0x2E38 JUMP JUMPDEST PUSH1 0x1 PUSH1 0x1 PUSH1 0x80 SHL SUB AND LT ISZERO JUMPDEST ISZERO PUSH2 0x270A JUMPI PUSH2 0x2703 PUSH1 0x1 DUP3 PUSH2 0x2E38 JUMP JUMPDEST SWAP1 POP PUSH2 0x270E JUMP JUMPDEST POP PUSH1 0x1 JUMPDEST PUSH1 0x6 DUP1 SLOAD PUSH1 0x1 PUSH1 0x1 PUSH1 0xA0 SHL SUB SWAP1 DUP2 AND PUSH1 0x0 SWAP1 DUP2 MSTORE PUSH1 0x20 DUP2 DUP2 MSTORE PUSH1 0x40 DUP1 DUP4 KECCAK256 DUP1 SLOAD PUSH1 0x1 PUSH1 0x1 PUSH1 0x80 SHL SUB DUP9 AND PUSH1 0x1 PUSH1 0x1 PUSH1 0x80 SHL SUB NOT SWAP2 DUP3 AND DUP2 OR SWAP1 SWAP3 SSTORE PUSH1 0xC0 DUP11 ADD DUP1 MLOAD DUP9 SLOAD DUP9 AND DUP8 MSTORE PUSH1 0x1 DUP1 DUP8 MSTORE DUP6 DUP9 KECCAK256 DUP6 DUP10 MSTORE DUP8 MSTORE DUP6 DUP9 KECCAK256 DUP1 SLOAD SWAP3 DUP11 AND PUSH1 0x1 PUSH1 0x1 PUSH1 0xA0 SHL SUB NOT SWAP4 DUP5 AND OR SWAP1 SSTORE DUP10 SLOAD DUP10 AND DUP9 MSTORE PUSH1 0x2 DUP1 DUP9 MSTORE DUP7 DUP10 KECCAK256 DUP5 MLOAD DUP12 AND DUP11 MSTORE DUP9 MSTORE DUP7 DUP10 KECCAK256 DUP1 SLOAD SWAP1 SWAP6 AND SWAP1 SWAP6 OR SWAP1 SWAP4 SSTORE DUP2 MLOAD DUP9 AND DUP8 MSTORE PUSH1 0x3 DUP1 DUP8 MSTORE SWAP7 DUP6 SWAP1 KECCAK256 DUP13 MLOAD DUP2 SSTORE SWAP6 DUP13 ADD MLOAD SWAP3 DUP7 ADD SWAP3 SWAP1 SWAP3 SSTORE DUP11 DUP5 ADD MLOAD SWAP3 DUP6 ADD SWAP3 SWAP1 SWAP3 SSTORE PUSH1 0x60 DUP11 ADD MLOAD SWAP5 DUP5 ADD DUP1 SLOAD PUSH1 0xFF SWAP1 SWAP7 AND PUSH1 0xFF NOT SWAP1 SWAP7 AND SWAP6 SWAP1 SWAP6 OR SWAP1 SWAP5 SSTORE PUSH1 0x80 DUP10 ADD MLOAD PUSH1 0x4 DUP5 ADD SSTORE PUSH1 0xA0 DUP10 ADD MLOAD PUSH1 0x5 DUP5 ADD SSTORE MLOAD SWAP5 DUP3 ADD DUP1 SLOAD PUSH1 0xE0 DUP11 ADD MLOAD PUSH2 0x100 DUP12 ADD MLOAD PUSH2 0x120 DUP13 ADD MLOAD ISZERO ISZERO PUSH1 0x1 PUSH1 0xB0 SHL MUL PUSH1 0xFF PUSH1 0xB0 SHL NOT SWAP2 ISZERO ISZERO PUSH1 0x1 PUSH1 0xA8 SHL MUL SWAP2 SWAP1 SWAP2 AND PUSH2 0xFFFF PUSH1 0xA8 SHL NOT SWAP3 ISZERO ISZERO PUSH1 0x1 PUSH1 0xA0 SHL MUL PUSH1 0x1 PUSH1 0x1 PUSH1 0xA8 SHL SUB NOT SWAP1 SWAP5 AND SWAP10 DUP10 AND SWAP10 SWAP1 SWAP10 OR SWAP3 SWAP1 SWAP3 OR AND SWAP7 SWAP1 SWAP7 OR SWAP6 SWAP1 SWAP6 OR SWAP1 SWAP5 SSTORE PUSH2 0x140 DUP8 ADD MLOAD PUSH1 0x7 SWAP1 SWAP2 ADD DUP1 SLOAD SWAP2 SWAP1 SWAP4 AND SWAP2 AND OR SWAP1 SSTORE MLOAD PUSH32 0x3FDEABF9CF0F252033E117E3BF501C16A9E905759535453A989A37BBB55557CB SWAP1 PUSH2 0x289F SWAP1 DUP6 SWAP1 PUSH2 0x2CE7 JUMP JUMPDEST PUSH1 0x40 MLOAD DUP1 SWAP2 SUB SWAP1 LOG1 DUP2 MLOAD PUSH1 0x1 PUSH1 0x1 PUSH1 0xA0 SHL SUB SWAP1 DUP2 AND PUSH1 0x0 SWAP1 DUP2 MSTORE PUSH1 0x4 PUSH1 0x20 DUP2 DUP2 MSTORE PUSH1 0x40 SWAP3 DUP4 SWAP1 KECCAK256 DUP7 MLOAD DUP2 SLOAD PUSH1 0x1 PUSH1 0x1 PUSH1 0xA0 SHL SUB NOT AND SWAP6 AND SWAP5 DUP6 OR DUP2 SSTORE DUP2 DUP8 ADD MLOAD PUSH1 0x1 DUP3 ADD SSTORE DUP4 DUP8 ADD MLOAD PUSH1 0x2 DUP3 ADD SSTORE PUSH1 0x60 DUP8 ADD MLOAD PUSH1 0x3 DUP3 ADD SSTORE PUSH1 0x80 DUP8 ADD MLOAD SWAP3 DUP2 ADD SWAP3 SWAP1 SWAP3 SSTORE PUSH1 0xA0 DUP7 ADD MLOAD PUSH1 0x5 SWAP1 SWAP3 ADD SWAP2 SWAP1 SWAP2 SSTORE SWAP1 MLOAD SWAP2 DUP3 MSTORE PUSH32 0x28995A3CC31B8867E272BF05BB4F577DA5E81799E17CF729D123EDF7C2A7CA94 SWAP2 ADD PUSH1 0x40 MLOAD DUP1 SWAP2 SUB SWAP1 LOG1 POP POP POP JUMP JUMPDEST PUSH1 0x40 DUP1 MLOAD PUSH2 0x160 DUP2 ADD DUP3 MSTORE PUSH1 0x0 DUP1 DUP3 MSTORE PUSH1 0x20 DUP3 ADD DUP2 SWAP1 MSTORE SWAP2 DUP2 ADD DUP3 SWAP1 MSTORE PUSH1 0x60 DUP2 ADD DUP3 SWAP1 MSTORE PUSH1 0x80 DUP2 ADD DUP3 SWAP1 MSTORE PUSH1 0xA0 DUP2 ADD DUP3 SWAP1 MSTORE PUSH1 0xC0 DUP2 ADD DUP3 SWAP1 MSTORE PUSH1 0xE0 DUP2 ADD DUP3 SWAP1 MSTORE PUSH2 0x100 DUP2 ADD DUP3 SWAP1 MSTORE PUSH2 0x120 DUP2 ADD DUP3 SWAP1 MSTORE PUSH2 0x140 DUP2 ADD SWAP2 SWAP1 SWAP2 MSTORE SWAP1 JUMP JUMPDEST PUSH1 0x40 MLOAD PUSH2 0x160 DUP2 ADD PUSH8 0xFFFFFFFFFFFFFFFF DUP2 GT DUP3 DUP3 LT OR ISZERO PUSH2 0x29D4 JUMPI PUSH4 0x4E487B71 PUSH1 0xE0 SHL PUSH1 0x0 MSTORE PUSH1 0x41 PUSH1 0x4 MSTORE PUSH1 0x24 PUSH1 0x0 REVERT JUMPDEST PUSH1 0x40 MSTORE SWAP1 JUMP JUMPDEST DUP1 CALLDATALOAD PUSH1 0xFF DUP2 AND DUP2 EQ PUSH2 0x29EB JUMPI PUSH1 0x0 DUP1 REVERT JUMPDEST SWAP2 SWAP1 POP JUMP JUMPDEST DUP1 CALLDATALOAD PUSH1 0x1 PUSH1 0x1 PUSH1 0xA0 SHL SUB DUP2 AND DUP2 EQ PUSH2 0x29EB JUMPI PUSH1 0x0 DUP1 REVERT JUMPDEST DUP1 ISZERO ISZERO DUP2 EQ PUSH2 0x2A15 JUMPI PUSH1 0x0 DUP1 REVERT JUMPDEST POP JUMP JUMPDEST DUP1 CALLDATALOAD PUSH2 0x29EB DUP2 PUSH2 0x2A07 JUMP JUMPDEST PUSH1 0x0 PUSH2 0x160 DUP3 DUP5 SUB SLT ISZERO PUSH2 0x2A36 JUMPI PUSH1 0x0 DUP1 REVERT JUMPDEST PUSH2 0x2A3E PUSH2 0x29A2 JUMP JUMPDEST SWAP1 POP DUP2 CALLDATALOAD DUP2 MSTORE PUSH1 0x20 DUP3 ADD CALLDATALOAD PUSH1 0x20 DUP3 ADD MSTORE PUSH1 0x40 DUP3 ADD CALLDATALOAD PUSH1 0x40 DUP3 ADD MSTORE PUSH2 0x2A64 PUSH1 0x60 DUP4 ADD PUSH2 0x29DA JUMP JUMPDEST PUSH1 0x60 DUP3 ADD MSTORE PUSH1 0x80 DUP3 ADD CALLDATALOAD PUSH1 0x80 DUP3 ADD MSTORE PUSH1 0xA0 DUP3 ADD CALLDATALOAD PUSH1 0xA0 DUP3 ADD MSTORE PUSH2 0x2A89 PUSH1 0xC0 DUP4 ADD PUSH2 0x29F0 JUMP JUMPDEST PUSH1 0xC0 DUP3 ADD MSTORE PUSH2 0x2A9A PUSH1 0xE0 DUP4 ADD PUSH2 0x2A18 JUMP JUMPDEST PUSH1 0xE0 DUP3 ADD MSTORE PUSH2 0x100 PUSH2 0x2AAD DUP2 DUP5 ADD PUSH2 0x2A18 JUMP JUMPDEST SWAP1 DUP3 ADD MSTORE PUSH2 0x120 PUSH2 0x2ABF DUP4 DUP3 ADD PUSH2 0x2A18 JUMP JUMPDEST SWAP1 DUP3 ADD MSTORE PUSH2 0x140 PUSH2 0x2AD1 DUP4 DUP3 ADD PUSH2 0x29F0 JUMP JUMPDEST SWAP1 DUP3 ADD MSTORE SWAP3 SWAP2 POP POP JUMP JUMPDEST PUSH1 0x0 PUSH1 0xC0 DUP3 DUP5 SUB SLT ISZERO PUSH2 0x2AED JUMPI PUSH1 0x0 DUP1 REVERT JUMPDEST PUSH1 0x40 MLOAD PUSH1 0xC0 DUP2 ADD DUP2 DUP2 LT PUSH8 0xFFFFFFFFFFFFFFFF DUP3 GT OR ISZERO PUSH2 0x2B1E JUMPI PUSH4 0x4E487B71 PUSH1 0xE0 SHL PUSH1 0x0 MSTORE PUSH1 0x41 PUSH1 0x4 MSTORE PUSH1 0x24 PUSH1 0x0 REVERT JUMPDEST PUSH1 0x40 MSTORE SWAP1 POP DUP1 PUSH2 0x2B2D DUP4 PUSH2 0x29F0 JUMP JUMPDEST DUP2 MSTORE PUSH1 0x20 DUP4 ADD CALLDATALOAD PUSH1 0x20 DUP3 ADD MSTORE PUSH1 0x40 DUP4 ADD CALLDATALOAD PUSH1 0x40 DUP3 ADD MSTORE PUSH1 0x60 DUP4 ADD CALLDATALOAD PUSH1 0x60 DUP3 ADD MSTORE PUSH1 0x80 DUP4 ADD CALLDATALOAD PUSH1 0x80 DUP3 ADD MSTORE PUSH1 0xA0 DUP4 ADD CALLDATALOAD PUSH1 0xA0 DUP3 ADD MSTORE POP SWAP3 SWAP2 POP POP JUMP JUMPDEST PUSH1 0x0 DUP1 PUSH2 0x220 DUP4 DUP6 SUB SLT ISZERO PUSH2 0x2B7C JUMPI PUSH1 0x0 DUP1 REVERT JUMPDEST PUSH2 0x2B86 DUP5 DUP5 PUSH2 0x2A23 JUMP JUMPDEST SWAP2 POP PUSH2 0x2B96 DUP5 PUSH2 0x160 DUP6 ADD PUSH2 0x2ADB JUMP JUMPDEST SWAP1 POP SWAP3 POP SWAP3 SWAP1 POP JUMP JUMPDEST PUSH1 0x0 PUSH1 0x20 DUP3 DUP5 SUB SLT ISZERO PUSH2 0x2BB1 JUMPI PUSH1 0x0 DUP1 REVERT JUMPDEST PUSH2 0x2BBA DUP3 PUSH2 0x29F0 JUMP JUMPDEST SWAP4 SWAP3 POP POP POP JUMP JUMPDEST PUSH1 0x0 PUSH1 0xC0 DUP3 DUP5 SUB SLT ISZERO PUSH2 0x2BD3 JUMPI PUSH1 0x0 DUP1 REVERT JUMPDEST PUSH2 0x2BBA DUP4 DUP4 PUSH2 0x2ADB JUMP JUMPDEST PUSH1 0x0 DUP1 PUSH1 0x40 DUP4 DUP6 SUB SLT ISZERO PUSH2 0x2BF0 JUMPI PUSH1 0x0 DUP1 REVERT JUMPDEST PUSH2 0x2BF9 DUP4 PUSH2 0x29F0 JUMP JUMPDEST SWAP2 POP PUSH2 0x2B96 PUSH1 0x20 DUP5 ADD PUSH2 0x29F0 JUMP JUMPDEST DUP1 CALLDATALOAD PUSH1 0x1 PUSH1 0x1 PUSH1 0x80 SHL SUB DUP2 AND DUP2 EQ PUSH2 0x29EB JUMPI PUSH1 0x0 DUP1 REVERT JUMPDEST PUSH1 0x0 DUP1 PUSH1 0x40 DUP4 DUP6 SUB SLT ISZERO PUSH2 0x2C31 JUMPI PUSH1 0x0 DUP1 REVERT JUMPDEST PUSH2 0x2C3A DUP4 PUSH2 0x29F0 JUMP JUMPDEST SWAP2 POP PUSH2 0x2B96 PUSH1 0x20 DUP5 ADD PUSH2 0x2C07 JUMP JUMPDEST DUP1 MLOAD DUP3 MSTORE PUSH1 0x20 DUP2 ADD MLOAD PUSH1 0x20 DUP4 ADD MSTORE PUSH1 0x40 DUP2 ADD MLOAD PUSH1 0x40 DUP4 ADD MSTORE PUSH1 0x60 DUP2 ADD MLOAD PUSH2 0x2C74 PUSH1 0x60 DUP5 ADD DUP3 PUSH1 0xFF AND SWAP1 MSTORE JUMP JUMPDEST POP PUSH1 0x80 DUP2 ADD MLOAD PUSH1 0x80 DUP4 ADD MSTORE PUSH1 0xA0 DUP2 ADD MLOAD PUSH1 0xA0 DUP4 ADD MSTORE PUSH1 0xC0 DUP2 ADD MLOAD PUSH2 0x2CA3 PUSH1 0xC0 DUP5 ADD DUP3 PUSH1 0x1 PUSH1 0x1 PUSH1 0xA0 SHL SUB AND SWAP1 MSTORE JUMP JUMPDEST POP PUSH1 0xE0 DUP2 ADD MLOAD PUSH2 0x2CB7 PUSH1 0xE0 DUP5 ADD DUP3 ISZERO ISZERO SWAP1 MSTORE JUMP JUMPDEST POP PUSH2 0x100 DUP2 DUP2 ADD MLOAD ISZERO ISZERO SWAP1 DUP4 ADD MSTORE PUSH2 0x120 DUP1 DUP3 ADD MLOAD ISZERO ISZERO SWAP1 DUP4 ADD MSTORE PUSH2 0x140 SWAP1 DUP2 ADD MLOAD PUSH1 0x1 PUSH1 0x1 PUSH1 0xA0 SHL SUB AND SWAP2 ADD MSTORE JUMP JUMPDEST PUSH2 0x160 DUP2 ADD PUSH2 0x129A DUP3 DUP5 PUSH2 0x2C48 JUMP JUMPDEST PUSH1 0x0 PUSH1 0x20 DUP3 DUP5 SUB SLT ISZERO PUSH2 0x2D08 JUMPI PUSH1 0x0 DUP1 REVERT JUMPDEST PUSH2 0x2BBA DUP3 PUSH2 0x2C07 JUMP JUMPDEST PUSH1 0x0 PUSH2 0x160 DUP3 DUP5 SUB SLT ISZERO PUSH2 0x2D24 JUMPI PUSH1 0x0 DUP1 REVERT JUMPDEST PUSH2 0x2BBA DUP4 DUP4 PUSH2 0x2A23 JUMP JUMPDEST PUSH1 0x0 DUP1 PUSH1 0x0 PUSH1 0x60 DUP5 DUP7 SUB SLT ISZERO PUSH2 0x2D43 JUMPI PUSH1 0x0 DUP1 REVERT JUMPDEST PUSH2 0x2D4C DUP5 PUSH2 0x29F0 JUMP JUMPDEST SWAP3 POP PUSH2 0x2D5A PUSH1 0x20 DUP6 ADD PUSH2 0x29F0 JUMP JUMPDEST SWAP2 POP PUSH2 0x2D68 PUSH1 0x40 DUP6 ADD PUSH2 0x29F0 JUMP JUMPDEST SWAP1 POP SWAP3 POP SWAP3 POP SWAP3 JUMP JUMPDEST PUSH1 0x0 DUP1 PUSH1 0x0 DUP1 PUSH1 0x0 DUP1 PUSH1 0x0 PUSH1 0xE0 DUP9 DUP11 SUB SLT ISZERO PUSH2 0x2D8C JUMPI PUSH1 0x0 DUP1 REVERT JUMPDEST DUP8 CALLDATALOAD SWAP7 POP PUSH1 0x20 DUP9 ADD CALLDATALOAD SWAP6 POP PUSH1 0x40 DUP9 ADD CALLDATALOAD SWAP5 POP PUSH2 0x2DAA PUSH1 0x60 DUP10 ADD PUSH2 0x29DA JUMP JUMPDEST SWAP4 POP PUSH1 0x80 DUP9 ADD CALLDATALOAD SWAP3 POP PUSH1 0xA0 DUP9 ADD CALLDATALOAD SWAP2 POP PUSH2 0x2DC6 PUSH1 0xC0 DUP10 ADD PUSH2 0x29F0 JUMP JUMPDEST SWAP1 POP SWAP3 SWAP6 SWAP9 SWAP2 SWAP5 SWAP8 POP SWAP3 SWAP6 POP JUMP JUMPDEST PUSH1 0x0 PUSH1 0x20 DUP3 DUP5 SUB SLT ISZERO PUSH2 0x2DE6 JUMPI PUSH1 0x0 DUP1 REVERT JUMPDEST DUP2 MLOAD PUSH2 0x2BBA DUP2 PUSH2 0x2A07 JUMP JUMPDEST PUSH1 0x20 DUP1 DUP3 MSTORE PUSH1 0x27 SWAP1 DUP3 ADD MSTORE PUSH32 0x7468652063616C6C6572206D7573742062652076616C6964206D61726B657420 PUSH1 0x40 DUP3 ADD MSTORE PUSH7 0x36B0B730B3B2B9 PUSH1 0xC9 SHL PUSH1 0x60 DUP3 ADD MSTORE PUSH1 0x80 ADD SWAP1 JUMP JUMPDEST PUSH1 0x1 PUSH1 0x1 PUSH1 0x80 SHL SUB DUP2 DUP2 AND DUP4 DUP3 AND ADD SWAP1 DUP1 DUP3 GT ISZERO PUSH2 0x2E66 JUMPI PUSH4 0x4E487B71 PUSH1 0xE0 SHL PUSH1 0x0 MSTORE PUSH1 0x11 PUSH1 0x4 MSTORE PUSH1 0x24 PUSH1 0x0 REVERT JUMPDEST POP SWAP3 SWAP2 POP POP JUMP JUMPDEST PUSH1 0x1 PUSH1 0x1 PUSH1 0xA0 SHL SUB DUP4 AND DUP2 MSTORE PUSH2 0x180 DUP2 ADD PUSH2 0x2BBA PUSH1 0x20 DUP4 ADD DUP5 PUSH2 0x2C48 JUMP JUMPDEST PUSH1 0x20 DUP1 DUP3 MSTORE PUSH1 0x16 SWAP1 DUP3 ADD MSTORE PUSH22 0x74686520636F696E206973206E6F7420657869737473 PUSH1 0x50 SHL PUSH1 0x40 DUP3 ADD MSTORE PUSH1 0x60 ADD SWAP1 JUMP JUMPDEST PUSH1 0x20 DUP1 DUP3 MSTORE PUSH1 0x16 SWAP1 DUP3 ADD MSTORE PUSH22 0x1E5BDD481A185D99481B9BDD081D1A19481C9A59DA1D PUSH1 0x52 SHL PUSH1 0x40 DUP3 ADD MSTORE PUSH1 0x60 ADD SWAP1 JUMP JUMPDEST PUSH1 0x1 PUSH1 0x1 PUSH1 0xA0 SHL SUB DUP4 DUP2 AND DUP3 MSTORE DUP3 SLOAD PUSH1 0x20 DUP4 ADD MSTORE PUSH1 0x1 DUP4 ADD SLOAD PUSH1 0x40 DUP4 ADD MSTORE PUSH1 0x2 DUP4 ADD SLOAD PUSH1 0x60 DUP4 ADD MSTORE PUSH1 0x3 DUP4 ADD SLOAD PUSH2 0x180 DUP4 ADD SWAP2 SWAP1 PUSH1 0xFF AND PUSH1 0xFF DUP2 AND PUSH1 0x80 DUP6 ADD MSTORE POP PUSH1 0x4 DUP5 ADD SLOAD PUSH1 0xA0 DUP5 ADD MSTORE PUSH1 0x5 DUP5 ADD SLOAD PUSH1 0xC0 DUP5 ADD MSTORE PUSH1 0x6 DUP5 ADD SLOAD PUSH1 0x1 PUSH1 0x1 PUSH1 0xA0 SHL SUB DUP3 DUP3 AND AND PUSH1 0xE0 DUP6 ADD MSTORE PUSH2 0x2F6B PUSH2 0x100 DUP6 ADD PUSH1 0xFF DUP4 PUSH1 0xA0 SHR AND ISZERO ISZERO SWAP1 MSTORE JUMP JUMPDEST PUSH2 0x2F80 PUSH2 0x120 DUP6 ADD PUSH1 0xFF DUP4 PUSH1 0xA8 SHR AND ISZERO ISZERO SWAP1 MSTORE JUMP JUMPDEST PUSH2 0x2F95 PUSH2 0x140 DUP6 ADD PUSH1 0xFF DUP4 PUSH1 0xB0 SHR AND ISZERO ISZERO SWAP1 MSTORE JUMP JUMPDEST POP POP PUSH1 0x7 SWAP3 SWAP1 SWAP3 ADD SLOAD PUSH1 0x1 PUSH1 0x1 PUSH1 0xA0 SHL SUB AND PUSH2 0x160 SWAP2 SWAP1 SWAP2 ADD MSTORE SWAP2 SWAP1 POP JUMP INVALID LOG2 PUSH5 0x6970667358 0x22 SLT KECCAK256 0x29 0x22 DUP5 DUP8 PUSH3 0x9944F5 CALL PUSH3 0x22DAB5 0xAA 0x21 GT 0xCB CHAINID SWAP13 PUSH28 0x972673B9F990BE7FA1375A0F64736F6C634300081200330000000000 "
		},
		"gasEstimates": {
			"creation": {
				"codeDepositCost": "2453200",
				"executionCost": "infinite",
				"totalCost": "infinite"
			},
			"external": {
				"addCoinDetailInfobyGator((address,bytes32,bytes32,bytes32,bytes32,bytes32))": "infinite",
				"addCoinDetailInfobyMarketor((address,bytes32,bytes32,bytes32,bytes32,bytes32))": "infinite",
				"addCoinFullinfobyGator((bytes32,bytes32,bytes32,uint8,uint256,uint256,address,bool,bool,bool,address),(address,bytes32,bytes32,bytes32,bytes32,bytes32))": "infinite",
				"addCoinFullinfobyMarketor((bytes32,bytes32,bytes32,uint8,uint256,uint256,address,bool,bool,bool,address),(address,bytes32,bytes32,bytes32,bytes32,bytes32))": "infinite",
				"addCoinbyGator((bytes32,bytes32,bytes32,uint8,uint256,uint256,address,bool,bool,bool,address))": "infinite",
				"addCoinbyMarketor((bytes32,bytes32,bytes32,uint8,uint256,uint256,address,bool,bool,bool,address))": "infinite",
				"coinDetailList(address)": "13303",
				"coinList(address)": "17798",
				"coinMaxNo(address)": "2627",
				"delCoinbyGator(address)": "infinite",
				"delCoinbyGator(uint128)": "infinite",
				"delCoinbyMarketor(address)": "infinite",
				"delCoinbyMarketor(uint128)": "infinite",
				"gatorContractAddress()": "2371",
				"getCoinInfoFromOwnerCoinNo(address,uint128)": "infinite",
				"getCoinInfoFromaddress(address)": "20680",
				"getCoinMaxNo(address)": "2669",
				"impoveGateCoinbyMarketor(address)": "infinite",
				"isValidCoin(address)": "2684",
				"lockCoinbyGator(address)": "infinite",
				"lockCoinbyMarketor(address)": "infinite",
				"marketCreator()": "2394",
				"marketorContractAddress()": "2393",
				"ownerCoinList(address,uint128)": "infinite",
				"ownerCoinNo(address,address)": "infinite",
				"setCoinEnv(address,address,address)": "infinite",
				"unlockCoinbyGator(address)": "infinite",
				"unlockCoinbyMarketor(address)": "infinite",
				"updateCoinbyGator(bytes32,bytes32,bytes32,uint8,uint256,uint256,address)": "infinite",
				"updateCoinbyMarketor((bytes32,bytes32,bytes32,uint8,uint256,uint256,address,bool,bool,bool,address))": "infinite"
			}
		},
		"methodIdentifiers": {
			"addCoinDetailInfobyGator((address,bytes32,bytes32,bytes32,bytes32,bytes32))": "c6e39898",
			"addCoinDetailInfobyMarketor((address,bytes32,bytes32,bytes32,bytes32,bytes32))": "128e641d",
			"addCoinFullinfobyGator((bytes32,bytes32,bytes32,uint8,uint256,uint256,address,bool,bool,bool,address),(address,bytes32,bytes32,bytes32,bytes32,bytes32))": "07cb20e8",
			"addCoinFullinfobyMarketor((bytes32,bytes32,bytes32,uint8,uint256,uint256,address,bool,bool,bool,address),(address,bytes32,bytes32,bytes32,bytes32,bytes32))": "f8eeb665",
			"addCoinbyGator((bytes32,bytes32,bytes32,uint8,uint256,uint256,address,bool,bool,bool,address))": "d04dc91e",
			"addCoinbyMarketor((bytes32,bytes32,bytes32,uint8,uint256,uint256,address,bool,bool,bool,address))": "9e2c608c",
			"coinDetailList(address)": "6cedf640",
			"coinList(address)": "31ecdeb8",
			"coinMaxNo(address)": "d848b5ba",
			"delCoinbyGator(address)": "92a59f1f",
			"delCoinbyGator(uint128)": "5e2c9314",
			"delCoinbyMarketor(address)": "7c3e2f02",
			"delCoinbyMarketor(uint128)": "f022f417",
			"gatorContractAddress()": "47d0a634",
			"getCoinInfoFromOwnerCoinNo(address,uint128)": "54d39318",
			"getCoinInfoFromaddress(address)": "d25b9e58",
			"getCoinMaxNo(address)": "40e7bdc3",
			"impoveGateCoinbyMarketor(address)": "11cfa0bc",
			"isValidCoin(address)": "328320bf",
			"lockCoinbyGator(address)": "441eb548",
			"lockCoinbyMarketor(address)": "b20be2b4",
			"marketCreator()": "27cbaabe",
			"marketorContractAddress()": "492b7107",
			"ownerCoinList(address,uint128)": "690e1784",
			"ownerCoinNo(address,address)": "3e68d831",
			"setCoinEnv(address,address,address)": "b244cb29",
			"unlockCoinbyGator(address)": "385e4b7a",
			"unlockCoinbyMarketor(address)": "1d3b8f67",
			"updateCoinbyGator(bytes32,bytes32,bytes32,uint8,uint256,uint256,address)": "c23a9da2",
			"updateCoinbyMarketor((bytes32,bytes32,bytes32,uint8,uint256,uint256,address,bool,bool,bool,address))": "798fdafa"
		}
	},
	"abi": [
		{
			"inputs": [
				{
					"internalType": "address",
					"name": "_gatorContractAddress",
					"type": "address"
				},
				{
					"internalType": "address",
					"name": "_marketorContractAddress",
					"type": "address"
				},
				{
					"internalType": "address",
					"name": "_marketCreator",
					"type": "address"
				}
			],
			"stateMutability": "nonpayable",
			"type": "constructor"
		},
		{
			"anonymous": false,
			"inputs": [
				{
					"indexed": false,
					"internalType": "address",
					"name": "",
					"type": "address"
				}
			],
			"name": "e_addCoinDetailbyGator",
			"type": "event"
		},
		{
			"anonymous": false,
			"inputs": [
				{
					"indexed": false,
					"internalType": "address",
					"name": "",
					"type": "address"
				},
				{
					"components": [
						{
							"internalType": "bytes32",
							"name": "coinFullName",
							"type": "bytes32"
						},
						{
							"internalType": "bytes32",
							"name": "symbol",
							"type": "bytes32"
						},
						{
							"internalType": "bytes32",
							"name": "typecode",
							"type": "bytes32"
						},
						{
							"internalType": "uint8",
							"name": "decimals",
							"type": "uint8"
						},
						{
							"internalType": "uint256",
							"name": "maxSupply",
							"type": "uint256"
						},
						{
							"internalType": "uint256",
							"name": "totalSupply",
							"type": "uint256"
						},
						{
							"internalType": "address",
							"name": "contractAddress",
							"type": "address"
						},
						{
							"internalType": "bool",
							"name": "marketunlock",
							"type": "bool"
						},
						{
							"internalType": "bool",
							"name": "gateunlock",
							"type": "bool"
						},
						{
							"internalType": "bool",
							"name": "isUsed",
							"type": "bool"
						},
						{
							"internalType": "address",
							"name": "creator",
							"type": "address"
						}
					],
					"indexed": false,
					"internalType": "struct LCoin.Info",
					"name": "",
					"type": "tuple"
				}
			],
			"name": "e_addCoinbyGator",
			"type": "event"
		},
		{
			"anonymous": false,
			"inputs": [
				{
					"components": [
						{
							"internalType": "bytes32",
							"name": "coinFullName",
							"type": "bytes32"
						},
						{
							"internalType": "bytes32",
							"name": "symbol",
							"type": "bytes32"
						},
						{
							"internalType": "bytes32",
							"name": "typecode",
							"type": "bytes32"
						},
						{
							"internalType": "uint8",
							"name": "decimals",
							"type": "uint8"
						},
						{
							"internalType": "uint256",
							"name": "maxSupply",
							"type": "uint256"
						},
						{
							"internalType": "uint256",
							"name": "totalSupply",
							"type": "uint256"
						},
						{
							"internalType": "address",
							"name": "contractAddress",
							"type": "address"
						},
						{
							"internalType": "bool",
							"name": "marketunlock",
							"type": "bool"
						},
						{
							"internalType": "bool",
							"name": "gateunlock",
							"type": "bool"
						},
						{
							"internalType": "bool",
							"name": "isUsed",
							"type": "bool"
						},
						{
							"internalType": "address",
							"name": "creator",
							"type": "address"
						}
					],
					"indexed": false,
					"internalType": "struct LCoin.Info",
					"name": "",
					"type": "tuple"
				}
			],
			"name": "e_addCoinbyMarketor",
			"type": "event"
		},
		{
			"anonymous": false,
			"inputs": [
				{
					"indexed": false,
					"internalType": "address",
					"name": "",
					"type": "address"
				},
				{
					"indexed": false,
					"internalType": "uint128",
					"name": "",
					"type": "uint128"
				}
			],
			"name": "e_delCoinbyGator",
			"type": "event"
		},
		{
			"anonymous": false,
			"inputs": [
				{
					"indexed": false,
					"internalType": "address",
					"name": "",
					"type": "address"
				},
				{
					"indexed": false,
					"internalType": "address",
					"name": "",
					"type": "address"
				}
			],
			"name": "e_delCoinbyGator",
			"type": "event"
		},
		{
			"anonymous": false,
			"inputs": [
				{
					"indexed": false,
					"internalType": "address",
					"name": "",
					"type": "address"
				}
			],
			"name": "e_delCoinbyMarketor",
			"type": "event"
		},
		{
			"anonymous": false,
			"inputs": [
				{
					"indexed": false,
					"internalType": "uint128",
					"name": "",
					"type": "uint128"
				}
			],
			"name": "e_delCoinbyMarketor",
			"type": "event"
		},
		{
			"anonymous": false,
			"inputs": [
				{
					"indexed": false,
					"internalType": "address",
					"name": "",
					"type": "address"
				}
			],
			"name": "e_impoveGateCoinbyMarketor",
			"type": "event"
		},
		{
			"anonymous": false,
			"inputs": [
				{
					"indexed": false,
					"internalType": "address",
					"name": "",
					"type": "address"
				},
				{
					"indexed": false,
					"internalType": "address",
					"name": "",
					"type": "address"
				}
			],
			"name": "e_lockCoinbyGator",
			"type": "event"
		},
		{
			"anonymous": false,
			"inputs": [
				{
					"indexed": false,
					"internalType": "address",
					"name": "",
					"type": "address"
				}
			],
			"name": "e_lockCoinbyMarketor",
			"type": "event"
		},
		{
			"anonymous": false,
			"inputs": [
				{
					"indexed": false,
					"internalType": "address",
					"name": "",
					"type": "address"
				},
				{
					"indexed": false,
					"internalType": "address",
					"name": "",
					"type": "address"
				}
			],
			"name": "e_unlockCoinbyGator",
			"type": "event"
		},
		{
			"anonymous": false,
			"inputs": [
				{
					"indexed": false,
					"internalType": "address",
					"name": "",
					"type": "address"
				}
			],
			"name": "e_unlockCoinbyMarketor",
			"type": "event"
		},
		{
			"anonymous": false,
			"inputs": [
				{
					"indexed": false,
					"internalType": "address",
					"name": "",
					"type": "address"
				},
				{
					"components": [
						{
							"internalType": "bytes32",
							"name": "coinFullName",
							"type": "bytes32"
						},
						{
							"internalType": "bytes32",
							"name": "symbol",
							"type": "bytes32"
						},
						{
							"internalType": "bytes32",
							"name": "typecode",
							"type": "bytes32"
						},
						{
							"internalType": "uint8",
							"name": "decimals",
							"type": "uint8"
						},
						{
							"internalType": "uint256",
							"name": "maxSupply",
							"type": "uint256"
						},
						{
							"internalType": "uint256",
							"name": "totalSupply",
							"type": "uint256"
						},
						{
							"internalType": "address",
							"name": "contractAddress",
							"type": "address"
						},
						{
							"internalType": "bool",
							"name": "marketunlock",
							"type": "bool"
						},
						{
							"internalType": "bool",
							"name": "gateunlock",
							"type": "bool"
						},
						{
							"internalType": "bool",
							"name": "isUsed",
							"type": "bool"
						},
						{
							"internalType": "address",
							"name": "creator",
							"type": "address"
						}
					],
					"indexed": false,
					"internalType": "struct LCoin.Info",
					"name": "",
					"type": "tuple"
				}
			],
			"name": "e_updateCoinbyGator",
			"type": "event"
		},
		{
			"anonymous": false,
			"inputs": [
				{
					"components": [
						{
							"internalType": "bytes32",
							"name": "coinFullName",
							"type": "bytes32"
						},
						{
							"internalType": "bytes32",
							"name": "symbol",
							"type": "bytes32"
						},
						{
							"internalType": "bytes32",
							"name": "typecode",
							"type": "bytes32"
						},
						{
							"internalType": "uint8",
							"name": "decimals",
							"type": "uint8"
						},
						{
							"internalType": "uint256",
							"name": "maxSupply",
							"type": "uint256"
						},
						{
							"internalType": "uint256",
							"name": "totalSupply",
							"type": "uint256"
						},
						{
							"internalType": "address",
							"name": "contractAddress",
							"type": "address"
						},
						{
							"internalType": "bool",
							"name": "marketunlock",
							"type": "bool"
						},
						{
							"internalType": "bool",
							"name": "gateunlock",
							"type": "bool"
						},
						{
							"internalType": "bool",
							"name": "isUsed",
							"type": "bool"
						},
						{
							"internalType": "address",
							"name": "creator",
							"type": "address"
						}
					],
					"indexed": false,
					"internalType": "struct LCoin.Info",
					"name": "",
					"type": "tuple"
				}
			],
			"name": "e_updateCoinbyMarketor",
			"type": "event"
		},
		{
			"inputs": [
				{
					"components": [
						{
							"internalType": "address",
							"name": "contractAddress",
							"type": "address"
						},
						{
							"internalType": "bytes32",
							"name": "WhitePaperUrl",
							"type": "bytes32"
						},
						{
							"internalType": "bytes32",
							"name": "OfficalWebsite",
							"type": "bytes32"
						},
						{
							"internalType": "bytes32",
							"name": "blockExplorerUrl",
							"type": "bytes32"
						},
						{
							"internalType": "bytes32",
							"name": "twriterUrl",
							"type": "bytes32"
						},
						{
							"internalType": "bytes32",
							"name": "bbsUrl",
							"type": "bytes32"
						}
					],
					"internalType": "struct LCoin.DetailInfo",
					"name": "_coinDetailInfo",
					"type": "tuple"
				}
			],
			"name": "addCoinDetailInfobyGator",
			"outputs": [],
			"stateMutability": "nonpayable",
			"type": "function"
		},
		{
			"inputs": [
				{
					"components": [
						{
							"internalType": "address",
							"name": "contractAddress",
							"type": "address"
						},
						{
							"internalType": "bytes32",
							"name": "WhitePaperUrl",
							"type": "bytes32"
						},
						{
							"internalType": "bytes32",
							"name": "OfficalWebsite",
							"type": "bytes32"
						},
						{
							"internalType": "bytes32",
							"name": "blockExplorerUrl",
							"type": "bytes32"
						},
						{
							"internalType": "bytes32",
							"name": "twriterUrl",
							"type": "bytes32"
						},
						{
							"internalType": "bytes32",
							"name": "bbsUrl",
							"type": "bytes32"
						}
					],
					"internalType": "struct LCoin.DetailInfo",
					"name": "_coinDetailInfo",
					"type": "tuple"
				}
			],
			"name": "addCoinDetailInfobyMarketor",
			"outputs": [],
			"stateMutability": "nonpayable",
			"type": "function"
		},
		{
			"inputs": [
				{
					"components": [
						{
							"internalType": "bytes32",
							"name": "coinFullName",
							"type": "bytes32"
						},
						{
							"internalType": "bytes32",
							"name": "symbol",
							"type": "bytes32"
						},
						{
							"internalType": "bytes32",
							"name": "typecode",
							"type": "bytes32"
						},
						{
							"internalType": "uint8",
							"name": "decimals",
							"type": "uint8"
						},
						{
							"internalType": "uint256",
							"name": "maxSupply",
							"type": "uint256"
						},
						{
							"internalType": "uint256",
							"name": "totalSupply",
							"type": "uint256"
						},
						{
							"internalType": "address",
							"name": "contractAddress",
							"type": "address"
						},
						{
							"internalType": "bool",
							"name": "marketunlock",
							"type": "bool"
						},
						{
							"internalType": "bool",
							"name": "gateunlock",
							"type": "bool"
						},
						{
							"internalType": "bool",
							"name": "isUsed",
							"type": "bool"
						},
						{
							"internalType": "address",
							"name": "creator",
							"type": "address"
						}
					],
					"internalType": "struct LCoin.Info",
					"name": "_coinInfo",
					"type": "tuple"
				},
				{
					"components": [
						{
							"internalType": "address",
							"name": "contractAddress",
							"type": "address"
						},
						{
							"internalType": "bytes32",
							"name": "WhitePaperUrl",
							"type": "bytes32"
						},
						{
							"internalType": "bytes32",
							"name": "OfficalWebsite",
							"type": "bytes32"
						},
						{
							"internalType": "bytes32",
							"name": "blockExplorerUrl",
							"type": "bytes32"
						},
						{
							"internalType": "bytes32",
							"name": "twriterUrl",
							"type": "bytes32"
						},
						{
							"internalType": "bytes32",
							"name": "bbsUrl",
							"type": "bytes32"
						}
					],
					"internalType": "struct LCoin.DetailInfo",
					"name": "_coinDetailInfo",
					"type": "tuple"
				}
			],
			"name": "addCoinFullinfobyGator",
			"outputs": [],
			"stateMutability": "nonpayable",
			"type": "function"
		},
		{
			"inputs": [
				{
					"components": [
						{
							"internalType": "bytes32",
							"name": "coinFullName",
							"type": "bytes32"
						},
						{
							"internalType": "bytes32",
							"name": "symbol",
							"type": "bytes32"
						},
						{
							"internalType": "bytes32",
							"name": "typecode",
							"type": "bytes32"
						},
						{
							"internalType": "uint8",
							"name": "decimals",
							"type": "uint8"
						},
						{
							"internalType": "uint256",
							"name": "maxSupply",
							"type": "uint256"
						},
						{
							"internalType": "uint256",
							"name": "totalSupply",
							"type": "uint256"
						},
						{
							"internalType": "address",
							"name": "contractAddress",
							"type": "address"
						},
						{
							"internalType": "bool",
							"name": "marketunlock",
							"type": "bool"
						},
						{
							"internalType": "bool",
							"name": "gateunlock",
							"type": "bool"
						},
						{
							"internalType": "bool",
							"name": "isUsed",
							"type": "bool"
						},
						{
							"internalType": "address",
							"name": "creator",
							"type": "address"
						}
					],
					"internalType": "struct LCoin.Info",
					"name": "_coinInfo",
					"type": "tuple"
				},
				{
					"components": [
						{
							"internalType": "address",
							"name": "contractAddress",
							"type": "address"
						},
						{
							"internalType": "bytes32",
							"name": "WhitePaperUrl",
							"type": "bytes32"
						},
						{
							"internalType": "bytes32",
							"name": "OfficalWebsite",
							"type": "bytes32"
						},
						{
							"internalType": "bytes32",
							"name": "blockExplorerUrl",
							"type": "bytes32"
						},
						{
							"internalType": "bytes32",
							"name": "twriterUrl",
							"type": "bytes32"
						},
						{
							"internalType": "bytes32",
							"name": "bbsUrl",
							"type": "bytes32"
						}
					],
					"internalType": "struct LCoin.DetailInfo",
					"name": "_coinDetailInfo",
					"type": "tuple"
				}
			],
			"name": "addCoinFullinfobyMarketor",
			"outputs": [],
			"stateMutability": "nonpayable",
			"type": "function"
		},
		{
			"inputs": [
				{
					"components": [
						{
							"internalType": "bytes32",
							"name": "coinFullName",
							"type": "bytes32"
						},
						{
							"internalType": "bytes32",
							"name": "symbol",
							"type": "bytes32"
						},
						{
							"internalType": "bytes32",
							"name": "typecode",
							"type": "bytes32"
						},
						{
							"internalType": "uint8",
							"name": "decimals",
							"type": "uint8"
						},
						{
							"internalType": "uint256",
							"name": "maxSupply",
							"type": "uint256"
						},
						{
							"internalType": "uint256",
							"name": "totalSupply",
							"type": "uint256"
						},
						{
							"internalType": "address",
							"name": "contractAddress",
							"type": "address"
						},
						{
							"internalType": "bool",
							"name": "marketunlock",
							"type": "bool"
						},
						{
							"internalType": "bool",
							"name": "gateunlock",
							"type": "bool"
						},
						{
							"internalType": "bool",
							"name": "isUsed",
							"type": "bool"
						},
						{
							"internalType": "address",
							"name": "creator",
							"type": "address"
						}
					],
					"internalType": "struct LCoin.Info",
					"name": "_coinInfo",
					"type": "tuple"
				}
			],
			"name": "addCoinbyGator",
			"outputs": [],
			"stateMutability": "nonpayable",
			"type": "function"
		},
		{
			"inputs": [
				{
					"components": [
						{
							"internalType": "bytes32",
							"name": "coinFullName",
							"type": "bytes32"
						},
						{
							"internalType": "bytes32",
							"name": "symbol",
							"type": "bytes32"
						},
						{
							"internalType": "bytes32",
							"name": "typecode",
							"type": "bytes32"
						},
						{
							"internalType": "uint8",
							"name": "decimals",
							"type": "uint8"
						},
						{
							"internalType": "uint256",
							"name": "maxSupply",
							"type": "uint256"
						},
						{
							"internalType": "uint256",
							"name": "totalSupply",
							"type": "uint256"
						},
						{
							"internalType": "address",
							"name": "contractAddress",
							"type": "address"
						},
						{
							"internalType": "bool",
							"name": "marketunlock",
							"type": "bool"
						},
						{
							"internalType": "bool",
							"name": "gateunlock",
							"type": "bool"
						},
						{
							"internalType": "bool",
							"name": "isUsed",
							"type": "bool"
						},
						{
							"internalType": "address",
							"name": "creator",
							"type": "address"
						}
					],
					"internalType": "struct LCoin.Info",
					"name": "_coinInfo",
					"type": "tuple"
				}
			],
			"name": "addCoinbyMarketor",
			"outputs": [],
			"stateMutability": "nonpayable",
			"type": "function"
		},
		{
			"inputs": [
				{
					"internalType": "address",
					"name": "",
					"type": "address"
				}
			],
			"name": "coinDetailList",
			"outputs": [
				{
					"internalType": "address",
					"name": "contractAddress",
					"type": "address"
				},
				{
					"internalType": "bytes32",
					"name": "WhitePaperUrl",
					"type": "bytes32"
				},
				{
					"internalType": "bytes32",
					"name": "OfficalWebsite",
					"type": "bytes32"
				},
				{
					"internalType": "bytes32",
					"name": "blockExplorerUrl",
					"type": "bytes32"
				},
				{
					"internalType": "bytes32",
					"name": "twriterUrl",
					"type": "bytes32"
				},
				{
					"internalType": "bytes32",
					"name": "bbsUrl",
					"type": "bytes32"
				}
			],
			"stateMutability": "view",
			"type": "function"
		},
		{
			"inputs": [
				{
					"internalType": "address",
					"name": "",
					"type": "address"
				}
			],
			"name": "coinList",
			"outputs": [
				{
					"internalType": "bytes32",
					"name": "coinFullName",
					"type": "bytes32"
				},
				{
					"internalType": "bytes32",
					"name": "symbol",
					"type": "bytes32"
				},
				{
					"internalType": "bytes32",
					"name": "typecode",
					"type": "bytes32"
				},
				{
					"internalType": "uint8",
					"name": "decimals",
					"type": "uint8"
				},
				{
					"internalType": "uint256",
					"name": "maxSupply",
					"type": "uint256"
				},
				{
					"internalType": "uint256",
					"name": "totalSupply",
					"type": "uint256"
				},
				{
					"internalType": "address",
					"name": "contractAddress",
					"type": "address"
				},
				{
					"internalType": "bool",
					"name": "marketunlock",
					"type": "bool"
				},
				{
					"internalType": "bool",
					"name": "gateunlock",
					"type": "bool"
				},
				{
					"internalType": "bool",
					"name": "isUsed",
					"type": "bool"
				},
				{
					"internalType": "address",
					"name": "creator",
					"type": "address"
				}
			],
			"stateMutability": "view",
			"type": "function"
		},
		{
			"inputs": [
				{
					"internalType": "address",
					"name": "",
					"type": "address"
				}
			],
			"name": "coinMaxNo",
			"outputs": [
				{
					"internalType": "uint128",
					"name": "",
					"type": "uint128"
				}
			],
			"stateMutability": "view",
			"type": "function"
		},
		{
			"inputs": [
				{
					"internalType": "uint128",
					"name": "_coinNo",
					"type": "uint128"
				}
			],
			"name": "delCoinbyGator",
			"outputs": [],
			"stateMutability": "nonpayable",
			"type": "function"
		},
		{
			"inputs": [
				{
					"internalType": "address",
					"name": "_contractaddress",
					"type": "address"
				}
			],
			"name": "delCoinbyGator",
			"outputs": [],
			"stateMutability": "nonpayable",
			"type": "function"
		},
		{
			"inputs": [
				{
					"internalType": "address",
					"name": "_contractaddress",
					"type": "address"
				}
			],
			"name": "delCoinbyMarketor",
			"outputs": [],
			"stateMutability": "nonpayable",
			"type": "function"
		},
		{
			"inputs": [
				{
					"internalType": "uint128",
					"name": "_coinNo",
					"type": "uint128"
				}
			],
			"name": "delCoinbyMarketor",
			"outputs": [],
			"stateMutability": "nonpayable",
			"type": "function"
		},
		{
			"inputs": [],
			"name": "gatorContractAddress",
			"outputs": [
				{
					"internalType": "address",
					"name": "",
					"type": "address"
				}
			],
			"stateMutability": "view",
			"type": "function"
		},
		{
			"inputs": [
				{
					"internalType": "address",
					"name": "_owneraddress",
					"type": "address"
				},
				{
					"internalType": "uint128",
					"name": "_coinNo",
					"type": "uint128"
				}
			],
			"name": "getCoinInfoFromOwnerCoinNo",
			"outputs": [
				{
					"components": [
						{
							"internalType": "bytes32",
							"name": "coinFullName",
							"type": "bytes32"
						},
						{
							"internalType": "bytes32",
							"name": "symbol",
							"type": "bytes32"
						},
						{
							"internalType": "bytes32",
							"name": "typecode",
							"type": "bytes32"
						},
						{
							"internalType": "uint8",
							"name": "decimals",
							"type": "uint8"
						},
						{
							"internalType": "uint256",
							"name": "maxSupply",
							"type": "uint256"
						},
						{
							"internalType": "uint256",
							"name": "totalSupply",
							"type": "uint256"
						},
						{
							"internalType": "address",
							"name": "contractAddress",
							"type": "address"
						},
						{
							"internalType": "bool",
							"name": "marketunlock",
							"type": "bool"
						},
						{
							"internalType": "bool",
							"name": "gateunlock",
							"type": "bool"
						},
						{
							"internalType": "bool",
							"name": "isUsed",
							"type": "bool"
						},
						{
							"internalType": "address",
							"name": "creator",
							"type": "address"
						}
					],
					"internalType": "struct LCoin.Info",
					"name": "",
					"type": "tuple"
				}
			],
			"stateMutability": "view",
			"type": "function"
		},
		{
			"inputs": [
				{
					"internalType": "address",
					"name": "_contractaddress",
					"type": "address"
				}
			],
			"name": "getCoinInfoFromaddress",
			"outputs": [
				{
					"components": [
						{
							"internalType": "bytes32",
							"name": "coinFullName",
							"type": "bytes32"
						},
						{
							"internalType": "bytes32",
							"name": "symbol",
							"type": "bytes32"
						},
						{
							"internalType": "bytes32",
							"name": "typecode",
							"type": "bytes32"
						},
						{
							"internalType": "uint8",
							"name": "decimals",
							"type": "uint8"
						},
						{
							"internalType": "uint256",
							"name": "maxSupply",
							"type": "uint256"
						},
						{
							"internalType": "uint256",
							"name": "totalSupply",
							"type": "uint256"
						},
						{
							"internalType": "address",
							"name": "contractAddress",
							"type": "address"
						},
						{
							"internalType": "bool",
							"name": "marketunlock",
							"type": "bool"
						},
						{
							"internalType": "bool",
							"name": "gateunlock",
							"type": "bool"
						},
						{
							"internalType": "bool",
							"name": "isUsed",
							"type": "bool"
						},
						{
							"internalType": "address",
							"name": "creator",
							"type": "address"
						}
					],
					"internalType": "struct LCoin.Info",
					"name": "",
					"type": "tuple"
				}
			],
			"stateMutability": "view",
			"type": "function"
		},
		{
			"inputs": [
				{
					"internalType": "address",
					"name": "_owneraddress",
					"type": "address"
				}
			],
			"name": "getCoinMaxNo",
			"outputs": [
				{
					"internalType": "uint128",
					"name": "",
					"type": "uint128"
				}
			],
			"stateMutability": "view",
			"type": "function"
		},
		{
			"inputs": [
				{
					"internalType": "address",
					"name": "_contractaddress",
					"type": "address"
				}
			],
			"name": "impoveGateCoinbyMarketor",
			"outputs": [],
			"stateMutability": "nonpayable",
			"type": "function"
		},
		{
			"inputs": [
				{
					"internalType": "address",
					"name": "_coinAddress",
					"type": "address"
				}
			],
			"name": "isValidCoin",
			"outputs": [
				{
					"internalType": "bool",
					"name": "",
					"type": "bool"
				}
			],
			"stateMutability": "view",
			"type": "function"
		},
		{
			"inputs": [
				{
					"internalType": "address",
					"name": "_internalCoinAddress",
					"type": "address"
				}
			],
			"name": "lockCoinbyGator",
			"outputs": [],
			"stateMutability": "nonpayable",
			"type": "function"
		},
		{
			"inputs": [
				{
					"internalType": "address",
					"name": "_CoinAddress",
					"type": "address"
				}
			],
			"name": "lockCoinbyMarketor",
			"outputs": [],
			"stateMutability": "nonpayable",
			"type": "function"
		},
		{
			"inputs": [],
			"name": "marketCreator",
			"outputs": [
				{
					"internalType": "address",
					"name": "",
					"type": "address"
				}
			],
			"stateMutability": "view",
			"type": "function"
		},
		{
			"inputs": [],
			"name": "marketorContractAddress",
			"outputs": [
				{
					"internalType": "address",
					"name": "",
					"type": "address"
				}
			],
			"stateMutability": "view",
			"type": "function"
		},
		{
			"inputs": [
				{
					"internalType": "address",
					"name": "",
					"type": "address"
				},
				{
					"internalType": "uint128",
					"name": "",
					"type": "uint128"
				}
			],
			"name": "ownerCoinList",
			"outputs": [
				{
					"internalType": "address",
					"name": "",
					"type": "address"
				}
			],
			"stateMutability": "view",
			"type": "function"
		},
		{
			"inputs": [
				{
					"internalType": "address",
					"name": "",
					"type": "address"
				},
				{
					"internalType": "address",
					"name": "",
					"type": "address"
				}
			],
			"name": "ownerCoinNo",
			"outputs": [
				{
					"internalType": "uint128",
					"name": "",
					"type": "uint128"
				}
			],
			"stateMutability": "view",
			"type": "function"
		},
		{
			"inputs": [
				{
					"internalType": "address",
					"name": "_marketorContractAddress",
					"type": "address"
				},
				{
					"internalType": "address",
					"name": "_gatorContractAddress",
					"type": "address"
				},
				{
					"internalType": "address",
					"name": "_marketCreator",
					"type": "address"
				}
			],
			"name": "setCoinEnv",
			"outputs": [],
			"stateMutability": "nonpayable",
			"type": "function"
		},
		{
			"inputs": [
				{
					"internalType": "address",
					"name": "_internalCoinAddress",
					"type": "address"
				}
			],
			"name": "unlockCoinbyGator",
			"outputs": [],
			"stateMutability": "nonpayable",
			"type": "function"
		},
		{
			"inputs": [
				{
					"internalType": "address",
					"name": "_CoinAddress",
					"type": "address"
				}
			],
			"name": "unlockCoinbyMarketor",
			"outputs": [],
			"stateMutability": "nonpayable",
			"type": "function"
		},
		{
			"inputs": [
				{
					"internalType": "bytes32",
					"name": "coinFullName",
					"type": "bytes32"
				},
				{
					"internalType": "bytes32",
					"name": "symbol",
					"type": "bytes32"
				},
				{
					"internalType": "bytes32",
					"name": "typecode",
					"type": "bytes32"
				},
				{
					"internalType": "uint8",
					"name": "decimals",
					"type": "uint8"
				},
				{
					"internalType": "uint256",
					"name": "maxSupply",
					"type": "uint256"
				},
				{
					"internalType": "uint256",
					"name": "totalSupply",
					"type": "uint256"
				},
				{
					"internalType": "address",
					"name": "contractAddress",
					"type": "address"
				}
			],
			"name": "updateCoinbyGator",
			"outputs": [],
			"stateMutability": "nonpayable",
			"type": "function"
		},
		{
			"inputs": [
				{
					"components": [
						{
							"internalType": "bytes32",
							"name": "coinFullName",
							"type": "bytes32"
						},
						{
							"internalType": "bytes32",
							"name": "symbol",
							"type": "bytes32"
						},
						{
							"internalType": "bytes32",
							"name": "typecode",
							"type": "bytes32"
						},
						{
							"internalType": "uint8",
							"name": "decimals",
							"type": "uint8"
						},
						{
							"internalType": "uint256",
							"name": "maxSupply",
							"type": "uint256"
						},
						{
							"internalType": "uint256",
							"name": "totalSupply",
							"type": "uint256"
						},
						{
							"internalType": "address",
							"name": "contractAddress",
							"type": "address"
						},
						{
							"internalType": "bool",
							"name": "marketunlock",
							"type": "bool"
						},
						{
							"internalType": "bool",
							"name": "gateunlock",
							"type": "bool"
						},
						{
							"internalType": "bool",
							"name": "isUsed",
							"type": "bool"
						},
						{
							"internalType": "address",
							"name": "creator",
							"type": "address"
						}
					],
					"internalType": "struct LCoin.Info",
					"name": "_coinInfo",
					"type": "tuple"
				}
			],
			"name": "updateCoinbyMarketor",
			"outputs": [],
			"stateMutability": "nonpayable",
			"type": "function"
		}
	]
}