{
	"data": {
		"bytecode": {
			"linkReferences": {},
			"object": "6101406040523480156200001257600080fd5b5030608052604080516317e4922960e11b815290513391632fc92452916004808301926101409291908290030181865afa15801562000055573d6000803e3d6000fd5b505050506040513d601f19601f820116820180604052508101906200007b919062000234565b8051600180546020808501516040860151606087015160809097015160ff96871661ffff199095169490941761010092871683021763ffff00001916620100009187169190910263ff0000001916176301000000968616969096029590951760ff60201b19166401000000009490921693909302179055600292830b61012081905262ffffff949094169091526001600160a01b0393841660e05293831660c0529390911660a052825461ffff60a81b19169092556200014591906200016b811b6200296217901c565b600080546001600160801b0319166001600160801b039290921691909117905562000494565b600080826200017f81620d89e7196200038f565b6200018b9190620003cf565b905060008380620001a0620d89e719620003f9565b620001ac91906200038f565b620001b89190620003cf565b9050600084620001c984846200041e565b620001d591906200038f565b620001e29060016200044c565b9050620001fc62ffffff82166001600160801b036200046b565b95945050505050565b80516001600160a01b03811681146200021d57600080fd5b919050565b805160ff811681146200021d57600080fd5b6000806000806000808688036101408112156200025057600080fd5b6200025b8862000205565b96506200026b6020890162000205565b95506200027b6040890162000205565b9450606088015162ffffff811681146200029457600080fd5b8094505060808801518060020b8114620002ad57600080fd5b925060a0609f1982011215620002c257600080fd5b5060405160a081016001600160401b0381118282101715620002f457634e487b7160e01b600052604160045260246000fd5b6040526200030560a0890162000222565b81526200031560c0890162000222565b60208201526200032860e0890162000222565b60408201526200033c610100890162000222565b606082015262000350610120890162000222565b6080820152809150509295509295509295565b634e487b7160e01b600052601260045260246000fd5b634e487b7160e01b600052601160045260246000fd5b60008160020b8360020b80620003a957620003a962000363565b627fffff19821460001982141615620003c657620003c662000379565b90059392505050565b60008260020b8260020b028060020b9150808214620003f257620003f262000379565b5092915050565b60008160020b627fffff19810362000415576200041562000379565b60000392915050565b600282810b9082900b03627fffff198112627fffff8213171562000446576200044662000379565b92915050565b62ffffff818116838216019080821115620003f257620003f262000379565b60006001600160801b038381168062000488576200048862000363565b92169190910492915050565b60805160a05160c05160e0516101005161012051616229620005706000396000818161066301528181611f8d015281816144ed015261451f0152600081816104ad01528181611260015261129b0152600081816107b701528181611326015281816124d50152612e8501526000818161022c015281816108c101528181610b0b015281816112ed015281816125cd0152612d8701526000818161053c0152818161095101528181610dec01528181610eff015281816111e7015281816114d5015281816115f20152611d0301526000612ee301526162296000f3fe608060405234801561001057600080fd5b50600436106102065760003560e01c806380f556051161011a57806392cc393c116100ad578063afb62fef1161007c578063afb62fef14610723578063b15925901461078b578063b23ae19b1461079f578063c55e90fe146107b2578063f637731d146107d957600080fd5b806392cc393c14610698578063a34123a7146106bc578063a38807f2146106cf578063a98b22c11461071057600080fd5b80638cc2ce60116100e95780638cc2ce60146106305780638d79ddcb146106435780638f9191981461065657806392c4545c1461065e57600080fd5b806380f5560514610537578063883bdbfd1461055e5780638860d1cd1461057f5780638b2ea5541461059f57600080fd5b8063317dfb061161019d57806366d16cc31161016c57806366d16cc3146104a85780636a0b2b23146104e35780636aca362d146104f65780636e62d0a8146104fe57806377ab25fe1461052457600080fd5b8063317dfb06146103375780633c8a7d8d146104005780633d02a29214610428578063444d95b01461043057600080fd5b80631f0f4c29116101d95780631f0f4c29146102a4578063208537ff146102cd5780632ad1baab146102d757806330d106b11461032457600080fd5b806301b293511461020b57806311df999514610227578063166d6021146102665780631d76982814610279575b600080fd5b61021460055481565b6040519081526020015b60405180910390f35b61024e7f000000000000000000000000000000000000000000000000000000000000000081565b6040516001600160a01b03909116815260200161021e565b60025461024e906001600160a01b031681565b61028c6102873660046156ba565b6107ec565b6040516001600160801b03909116815260200161021e565b61028c6102b23660046156ba565b6003602052600090815260409020546001600160801b031681565b6102d561094f565b005b6102ea6102e53660046156d7565b6109f4565b6040805163ffffffff909516855260069390930b60208501526001600160a01b03909116918301919091521515606082015260800161021e565b61028c610332366004615719565b610a39565b6103aa61034536600461576f565b6007602052600090815260409020805460018201546002909201546001600160801b03821692600160801b909204600f0b9190600681900b90600160381b81046001600160a01b031690600160d81b810463ffffffff1690600160f81b900460ff1687565b604080516001600160801b039098168852600f9690960b60208801529486019390935260069190910b60608501526001600160a01b0316608084015263ffffffff1660a0830152151560c082015260e00161021e565b61041361040e3660046157cc565b610bad565b6040805192835260208301919091520161021e565b6102d5610dea565b61047561043e3660046156d7565b6009602052600090815260409020805460018201546002909201546001600160801b03918216929181811691600160801b90041684565b604080516001600160801b039586168152602081019490945291841691830191909152909116606082015260800161021e565b6104cf7f000000000000000000000000000000000000000000000000000000000000000081565b60405162ffffff909116815260200161021e565b60065461028c906001600160801b031681565b6102d5610e89565b60025461051290600160a01b900460ff1681565b60405160ff909116815260200161021e565b6102d5610532366004615865565b610eaf565b61024e7f000000000000000000000000000000000000000000000000000000000000000081565b61057161056c3660046158ca565b61108c565b60405161021e92919061593f565b61021461058d3660046159c6565b60086020526000908152604090205481565b6004546105ea906001600160a01b03811690600160a01b810460020b9061ffff600160b81b8204811691600160c81b8104821691600160d81b8204169060ff600160e81b9091041686565b604080516001600160a01b03909716875260029590950b602087015261ffff938416948601949094529082166060850152166080830152151560a082015260c00161021e565b6102d561063e3660046159e9565b611116565b60005461028c906001600160801b031681565b6102d5611818565b6106857f000000000000000000000000000000000000000000000000000000000000000081565b60405160029190910b815260200161021e565b6002546106ac90600160b01b900460ff1681565b604051901515815260200161021e565b6104136106ca366004615a47565b611844565b6106e26106dd366004615a8a565b6119c7565b6040805160069490940b84526001600160a01b03909216602084015263ffffffff169082015260600161021e565b61041361071e366004615acb565b611bf3565b6001546107579060ff80821691610100810482169162010000820481169163010000008104821691600160201b9091041685565b6040805160ff968716815294861660208601529285169284019290925283166060830152909116608082015260a00161021e565b6002546106ac90600160a81b900460ff1681565b6102d56107ad366004615b63565b61274f565b61024e7f000000000000000000000000000000000000000000000000000000000000000081565b6102d56107e73660046156ba565b61282c565b600454600090600160e81b900460ff166108215760405162461bcd60e51b815260040161081890615b87565b60405180910390fd5b506004805460ff60e81b191690556001600160a01b0381166000908152600360205260409020546001600160801b031680156108f057610862600182615bba565b6001600160a01b0383166000908152600360205260408120805492935083929091906108989084906001600160801b0316615bba565b92506101000a8154816001600160801b0302191690836001600160801b031602179055506108f07f000000000000000000000000000000000000000000000000000000000000000083836001600160801b03166129ea565b6040516001600160801b03821681526001600160a01b038316907fdd51a73392a50fa90b665d88f3d4999f5b2a967233c06aa2038dc8c109b1f1c69060200160405180910390a26004805460ff60e81b1916600160e81b179055919050565b7f00000000000000000000000000000000000000000000000000000000000000006001600160a01b031663ad87d2ba6040518163ffffffff1660e01b8152600401602060405180830381865afa1580156109ad573d6000803e3d6000fd5b505050506040513d601f19601f820116820180604052508101906109d19190615be1565b15156001146109df57600080fd5b6002805460ff60a81b1916600160a81b179055565b600a8161ffff8110610a0557600080fd5b015463ffffffff81169150600160201b810460060b90600160581b81046001600160a01b031690600160f81b900460ff1684565b600454600090600160e81b900460ff16610a655760405162461bcd60e51b815260040161081890615b87565b6004805460ff60e81b191690556000610a816009338787612aea565b60028101549091506001600160801b0390811690841611610aa25782610ab1565b60028101546001600160801b03165b91506001600160801b03821615610b3a57600281018054839190600090610ae29084906001600160801b0316615bba565b92506101000a8154816001600160801b0302191690836001600160801b03160217905550610b3a7f000000000000000000000000000000000000000000000000000000000000000087846001600160801b03166129ea565b604080516001600160a01b03881681526001600160801b0384166020820152600286810b929088900b9133917fa19c7a8ed44abd7383cf211a618fb3a575ad3512c4daa705626f46a285aaa6c6910160405180910390a4506004805460ff60e81b1916600160e81b179055949350505050565b6004546000908190600160e81b900460ff16610bdb5760405162461bcd60e51b815260040161081890615b87565b6004805460ff60e81b191690556001600160801b038516610bfb57600080fd5b600080610c3960405180608001604052808c6001600160a01b031681526020018b60020b81526020018a60020b815260200189600f0b815250612b47565b92509250508193508092506000806000861115610c5b57610c58612d6d565b91505b8415610c6c57610c69612e6b565b90505b604051630cde7e5760e11b815233906319bcfcae90610c9590899089908d908d90600401615c27565b600060405180830381600087803b158015610caf57600080fd5b505af1158015610cc3573d6000803e3d6000fd5b505050506000861115610d1557610cd8612d6d565b610ce28388612eb7565b1115610d155760405162461bcd60e51b815260206004820152600260248201526104d360f41b6044820152606401610818565b8415610d6057610d23612e6b565b610d2d8287612eb7565b1115610d605760405162461bcd60e51b81526020600482015260026024820152614d3160f01b6044820152606401610818565b604080513381526001600160801b038b1660208201529081018790526060810186905260028b810b91908d900b906001600160a01b038f16907f7a53080ba414158be7ec69b987b5fb7d07dee101fe85488f0853ae16239d0bde9060800160405180910390a450506004805460ff60e81b1916600160e81b17905550919890975095505050505050565b7f00000000000000000000000000000000000000000000000000000000000000006001600160a01b031663ad87d2ba6040518163ffffffff1660e01b8152600401602060405180830381865afa158015610e48573d6000803e3d6000fd5b505050506040513d601f19601f82011682018060405250810190610e6c9190615be1565b1515600114610e7a57600080fd5b6002805460ff60a81b19169055565b6002546001600160a01b03163314610ea057600080fd5b6002805460ff60b01b19169055565b600454600160e81b900460ff16610ed85760405162461bcd60e51b815260040161081890615b87565b6004805460ff60e81b19168155604080516356c3e95d60e11b815290516001600160a01b037f0000000000000000000000000000000000000000000000000000000000000000169263ad87d2ba928082019260209290918290030181865afa158015610f48573d6000803e3d6000fd5b505050506040513d601f19601f82011682018060405250810190610f6c9190615be1565b1515600114610f7a57600080fd5b8082610f868587615c51565b610f909190615c51565b610f9a9190615c51565b60ff16606414610fec5760405162461bcd60e51b815260206004820152601860248201527f70726f666974736861726520636f6e666967206572726f7200000000000000006044820152606401610818565b6040805160a08101825260ff96871680825295871660208201819052948716918101829052928616606084018190529190951660809092018290526001805461ffff19169094176101009093029290921763ffff000019166201000090940263ff00000019169390931763010000009091021764ff000000001916600160201b90920291909117905560048054600160e81b60ff60e81b19909116179055565b606080611097612ed8565b61110a4285858080602002602001604051908101604052809392919081815260200183836020028082843760009201919091525050600454600654600a95949350600160a01b820460020b925061ffff600160b81b83048116926001600160801b0390921691600160c81b900416612f0f565b915091505b9250929050565b600454600160e81b900460ff1661113f5760405162461bcd60e51b815260040161081890615b87565b6004805460ff60e81b19169055611154612ed8565b6040805160a0810182526001600160a01b03808916825287166020820152908101859052606081018490526006546001600160801b031660808201819052806111c35760405162461bcd60e51b81526020600482015260016024820152601360fa1b6044820152606401610818565b815160405163e71957b960e01b81526001600160a01b0391821660048201526000917f0000000000000000000000000000000000000000000000000000000000000000169063e71957b990602401602060405180830381865afa15801561122e573d6000803e3d6000fd5b505050506040513d601f19601f820116820180604052508101906112529190615c6a565b9050600061128d84604001517f000000000000000000000000000000000000000000000000000000000000000062ffffff16620f424061307e565b905060006112c885606001517f000000000000000000000000000000000000000000000000000000000000000062ffffff16620f424061307e565b905060006112d4612d6d565b905060006112e0612e6b565b90508a1561131b5761131b7f0000000000000000000000000000000000000000000000000000000000000000886000015189604001516129ea565b8915611354576113547f0000000000000000000000000000000000000000000000000000000000000000886000015189606001516129ea565b604051630cde198960e31b815233906366f0cc489061137d90879087908e908e90600401615c27565b600060405180830381600087803b15801561139757600080fd5b505af11580156113ab573d6000803e3d6000fd5b5050505060006113b9612d6d565b905060006113c5612e6b565b9050816113d28588612eb7565b11156114055760405162461bcd60e51b8152602060048201526002602482015261046360f41b6044820152606401610818565b806114108487612eb7565b11156114435760405162461bcd60e51b8152602060048201526002602482015261463160f01b6044820152606401610818565b600061144f8584615c87565b9050801561179c576020808b01516001600160a01b03166000908152600390915260408120805483929061148d9084906001600160801b0316615c9a565b82546001600160801b0391821661010093840a908102920219161790915560015460ff9190041690506114c1606483615cd0565b6114cb9190615ce4565b6001600160a01b037f0000000000000000000000000000000000000000000000000000000000000000166000908152600360205260408120805490919061151c9084906001600160801b0316615c9a565b92506101000a8154816001600160801b0302191690836001600160801b0316021790555060006001600160a01b0316886001600160a01b031614611662576001546301000000900460ff16611572606483615cd0565b61157c9190615ce4565b6001600160a01b038916600090815260036020526040812080549091906115ad9084906001600160801b0316615c9a565b82546001600160801b039182166101009390930a9283029190920219909116179055506001546115e89060ff600160201b9091041682615ce4565b6001600160a01b037f000000000000000000000000000000000000000000000000000000000000000016600090815260036020526040812080549091906116399084906001600160801b0316615c9a565b92506101000a8154816001600160801b0302191690836001600160801b03160217905550611757565b6001546301000000900460ff1661167a606483615cd0565b6116849190615ce4565b6020808c01516001600160a01b0316600090815260039091526040812080549091906116ba9084906001600160801b0316615c9a565b82546001600160801b039182166101009390930a92830291909202199091161790555060015460ff600160201b909104166116f6606483615cd0565b6117009190615ce4565b8a516001600160a01b0316600090815260036020526040812080549091906117329084906001600160801b0316615c9a565b92506101000a8154816001600160801b0302191690836001600160801b031602179055505b6001546117859060ff1661176c606484615cd0565b6117769190615ce4565b600160801b8c608001516130c9565b600560008282546117969190615cfb565b90915550505b89516040808c01516060808e0151835192835260208301529181018490526001600160a01b039092169133917fd43490069f43600808a1e898ce391bb3cdcd9c4e47312fd0080d73fcbafc2d09910160405180910390a350506004805460ff60e81b1916600160e81b1790555050505050505050505050505050565b6002546001600160a01b0316331461182f57600080fd5b6002805460ff60b01b1916600160b01b179055565b6004546000908190600160e81b900460ff166118725760405162461bcd60e51b815260040161081890615b87565b6004805460ff60e81b1916905560408051608081018252338152600287810b602083015286900b91810191909152600090819081906118c290606081016118b889615d0e565b600f0b9052612b47565b925092509250816118d290615d3d565b94506118dd81615d3d565b935060008511806118ee5750600084115b1561195057600283015461190c9086906001600160801b0316615c9a565b600284015461192c908690600160801b90046001600160801b0316615c9a565b6001600160801b039182169116600160801b026001600160801b0319161760028401555b604080516001600160801b038816815260208101879052908101859052600288810b91908a900b9033907f0c396cd989a39f4459b5fa1aed6a9a8dcdbc45908acfd67e028cd568da98982c9060600160405180910390a450506004805460ff60e81b1916600160e81b179055509094909350915050565b60008060006119d4612ed8565b6119de858561324d565b600285810b60009081526007602052604080822087840b835290822092810154600681900b93600160381b82046001600160a01b0316928492600160d81b810463ffffffff1692849291600160f81b900460ff1680611a3c57600080fd5b6002820154600681900b9850600160381b81046001600160a01b03169650600160d81b810463ffffffff169450600160f81b900460ff1680611a7d57600080fd5b50506040805160c0810182526004546001600160a01b0381168252600160a01b8104600290810b60208401819052600160b81b830461ffff90811695850195909552600160c81b830485166060850152600160d81b83049094166080840152600160e81b90910460ff16151560a08301529093508e900b13159050611b2c57611b068688615d59565b611b108587615d86565b611b1a8486615da6565b99509950995050505050505050611bec565b8a60020b816020015160020b1215611bce5760208101516040820151600654606084015142936000938493611b7593600a9388938793919290916001600160801b03169061332c565b909250905088611b858b84615d59565b611b8f9190615d59565b87611b9a8a84615d86565b611ba49190615d86565b86611baf8987615da6565b611bb99190615da6565b9c509c509c5050505050505050505050611bec565b611bd88787615d59565b611be28686615d86565b611b1a8585615da6565b9250925092565b600080611bfe612ed8565b86896000889003611c365760405162461bcd60e51b8152602060048201526002602482015261415360f01b6044820152606401610818565b600254600160a81b900460ff1615611c7e5760405162461bcd60e51b815260206004820152600b60248201526a6d61726b6574206c6f636b60a81b6044820152606401610818565b6040805160c081018252600480546001600160a01b038082168452600160a01b820460020b6020850152600160b81b820461ffff90811685870152600160c81b830481166060860152600160d81b8304166080850152600160e81b90910460ff16151560a0840152925163e71957b960e01b81528e84169181019190915290916000917f00000000000000000000000000000000000000000000000000000000000000009091169063e71957b990602401602060405180830381865afa158015611d4c573d6000803e3d6000fd5b505050506040513d601f19601f82011682018060405250810190611d709190615c6a565b90508160a00151611d935760405162461bcd60e51b815260040161081890615b87565b8a611dde5781600001516001600160a01b0316896001600160a01b0316118015611dd9575073fffd8963efd1fc6a506488495d951d5263988d266001600160a01b038a16105b611e10565b81600001516001600160a01b0316896001600160a01b0316108015611e1057506401000276a36001600160a01b038a16115b611e425760405162461bcd60e51b815260206004820152600360248201526214d41360ea1b6044820152606401610818565b6004805460ff60e81b191690556040805160a081019091526006546001600160801b03168152600090602081014263ffffffff168152602001600060060b815260200160006001600160a01b031681526020016000151581525090506000808c13905060006040518060e001604052808e81526020016000815260200186600001516001600160a01b03168152602001866020015160020b8152602001600554815260200160006001600160801b0316815260200184600001516001600160801b031681525090505b805115801590611f3157508b6001600160a01b031681604001516001600160a01b031614155b15612354576040805160e081018252600080825260208201819052918101829052606081018290526080810182905260a0810182905260c081019190915260408201516001600160a01b031681526060820151611fb2906008907f00000000000000000000000000000000000000000000000000000000000000008b613511565b1515604083015260020b60208201819052620d89e7191315611fdd57620d89e7196020820152612011565b611fea620d89e719615dc3565b60020b816020015160020b131561201157612008620d89e719615dc3565b60020b60208201525b61201e81602001516136ce565b6001600160a01b03166060820152604082015161208e9089612058578e6001600160a01b031683606001516001600160a01b031611612072565b8e6001600160a01b031683606001516001600160a01b0316105b612080578260600151612082565b8e5b60c08501518551613aed565b60a084015260808301526001600160a01b031660408301528215612101576120c88160c0015182608001516120c39190615cfb565b613c97565b825183906120d7908390615ddc565b90525060a08101516120f7906120ec90613c97565b602084015190613cad565b602083015261214d565b61210e8160a00151613c97565b8251839061211d908390615dfc565b90525060c081015160808201516121479161213c916120c39190615cfb565b602084015190613ccd565b60208301525b6001546000906064906121639060ff1682615e24565b60ff168360c001516121759190615ce4565b61217f9190615cd0565b9050808260c0018181516121939190615c87565b90525060a0830180518291906121aa908390615c9a565b6001600160801b0390811690915260c0850151161590506121fa576121e58260c00151600160801b8560c001516001600160801b03166130c9565b836080018181516121f69190615cfb565b9052505b81606001516001600160a01b031683604001516001600160a01b031603612316578160400151156122e957846080015161227f576122618560200151600089602001518a6040015189600001518c60600151600a61332c909695949392919063ffffffff16565b6001600160a01b0316606087015260060b6040860152600160808601525b60006122b783602001518b6122965760055461229c565b85608001515b606089015160408a015160208b015160079493929190613ced565b905089156122cb576122c881615d0e565b90505b6122d98460c0015182613deb565b6001600160801b031660c0850152505b8f6122f8578160200151612309565b600182602001516123099190615e3d565b60020b606084015261234d565b81600001516001600160a01b031683604001516001600160a01b03161461234d576123448360400151613eab565b60020b60608401525b5050611f0b565b846020015160020b816060015160020b1461241e576000806123a287604001518660200151896020015188600001518b606001518c60800151600a6141e2909695949392919063ffffffff16565b604085015160608601516004805463ffffffff60b81b1916600160c81b61ffff9586160261ffff60b81b191617600160b81b9590941694909402929092176001600160b81b031916600160a01b62ffffff909316929092026001600160a01b031916919091176001600160a01b03909116179055506124439050565b6040810151600480546001600160a01b0319166001600160a01b039092169190911790555b8060c001516001600160801b031683600001516001600160801b0316146124895760c0810151600680546001600160801b0319166001600160801b039092169190911790555b8115158e1515146124aa57602081015181516124a5908f615ddc565b6124bc565b80516124b6908e615ddc565b81602001515b90995097508d156125bf576000881215612503576125037f0000000000000000000000000000000000000000000000000000000000000000876124fe8b615d3d565b6129ea565b600061250d612d6d565b9050336001600160a01b031663b311e8918b8b8f8f6040518563ffffffff1660e01b81526004016125419493929190615c27565b600060405180830381600087803b15801561255b57600080fd5b505af115801561256f573d6000803e3d6000fd5b5050505061257b612d6d565b612585828c612eb7565b11156125b95760405162461bcd60e51b815260206004820152600360248201526249494160e81b6044820152606401610818565b506126ae565b60008912156125f6576125f67f0000000000000000000000000000000000000000000000000000000000000000876124fe8c615d3d565b6000612600612e6b565b9050336001600160a01b031663b311e8918b8b8f8f6040518563ffffffff1660e01b81526004016126349493929190615c27565b600060405180830381600087803b15801561264e57600080fd5b505af1158015612662573d6000803e3d6000fd5b5050505061266e612e6b565b612678828b612eb7565b11156126ac5760405162461bcd60e51b815260206004820152600360248201526249494160e81b6044820152606401610818565b505b60408082015160c083015160608085015184518e8152602081018e90526001600160a01b03948516958101959095526001600160801b039092169084015260020b608083015287169033907fc42079f94a6350d7e6235f29174924f928cc2ac818eb64fed8004e115fbcca679060a00160405180910390a350506004805460ff60e81b1916600160e81b17905550949c939b50929950505050505050505050565b600454600160e81b900460ff166127785760405162461bcd60e51b815260040161081890615b87565b6004805460ff60e81b1916905561278d612ed8565b600454600160d81b900461ffff1660006127a9600a838561436b565b6004805461ffff808416600160d81b810261ffff60d81b1990931692909217909255919250831614612814576040805161ffff8085168252831660208201527fac49e518f90a358f652e4400164f05a5d8f7e35e7747279bc3a93dbf584e125a910160405180910390a15b50506004805460ff60e81b1916600160e81b17905550565b6004546001600160a01b03161561286a5760405162461bcd60e51b8152602060048201526002602482015261414960f01b6044820152606401610818565b600061287582613eab565b604080516080808201835263ffffffff42168083526000602080850182905284860182905260016060958601819052600160f81b909317600a55855160c0810187526001600160a01b038a16808252600289900b8284018190528289019490945295810184905293840183905260a0909301829052600480546001600160b81b0319168517600160a01b62ffffff8916021766ffffffffffffff60b81b191664010001000160c81b17905584519384529183019190915282519394509283927f98636036cb66a9c19a37435efc1e90142190214e8abeb821bdba3f2990dd4c95928290030190a150505050565b6000808261297481620d89e719615e62565b61297e9190615e9c565b905060008380612991620d89e719615dc3565b61299b9190615e62565b6129a59190615e9c565b90506000846129b48484615e3d565b6129be9190615e62565b6129c9906001615ebc565b90506129e162ffffff82166001600160801b03615ed8565b95945050505050565b604080516001600160a01b038481166024830152604480830185905283518084039091018152606490920183526020820180516001600160e01b031663a9059cbb60e01b1790529151600092839290871691612a469190615efe565b6000604051808303816000865af19150503d8060008114612a83576040519150601f19603f3d011682016040523d82523d6000602084013e612a88565b606091505b5091509150818015612ab2575080511580612ab2575080806020019051810190612ab29190615be1565b612ae35760405162461bcd60e51b81526020600482015260026024820152612a2360f11b6044820152606401610818565b5050505050565b6040805160609490941b6bffffffffffffffffffffffff191660208086019190915260e893841b60348601529190921b60378401528151601a818503018152603a9093018252825192810192909220600090815292909152902090565b6000806000612b54612ed8565b612b668460200151856040015161324d565b6040805160c0810182526004546001600160a01b0381168252600160a01b810460020b6020808401829052600160b81b830461ffff90811685870152600160c81b84048116606080870191909152600160d81b85049091166080860152600160e81b90930460ff16151560a085015288519089015194890151928901519394612bf59491939092909190614419565b93508460600151600f0b600014612d6557846020015160020b816020015160020b1215612c4a57612c43612c2c86602001516136ce565b612c3987604001516136ce565b87606001516145cd565b9250612d65565b846040015160020b816020015160020b1215612d3b5760065460408201516001600160801b0390911690612c959042602085015160608601516080870151600a9493929187916141e2565b6004805463ffffffff60b81b1916600160c81b61ffff9384160261ffff60b81b191617600160b81b939092169290920217905581516040870151612ce79190612cdd906136ce565b88606001516145cd565b9350612d05612cf987602001516136ce565b8351606089015161460f565b9250612d15818760600151613deb565b600680546001600160801b0319166001600160801b039290921691909117905550612d65565b612d62612d4b86602001516136ce565b612d5887604001516136ce565b876060015161460f565b91505b509193909250565b604051306024820152600090819081906001600160a01b037f000000000000000000000000000000000000000000000000000000000000000016906370a0823160e01b906044015b60408051601f198184030181529181526020820180516001600160e01b03166001600160e01b0319909416939093179092529051612df39190615efe565b600060405180830381855afa9150503d8060008114612e2e576040519150601f19603f3d011682016040523d82523d6000602084013e612e33565b606091505b5091509150818015612e4757506020815110155b612e5057600080fd5b80806020019051810190612e649190615f2d565b9250505090565b604051306024820152600090819081906001600160a01b037f000000000000000000000000000000000000000000000000000000000000000016906370a0823160e01b90604401612db5565b600082612ec48382615cfb565b9150811015612ed257600080fd5b92915050565b306001600160a01b037f00000000000000000000000000000000000000000000000000000000000000001614612f0d57600080fd5b565b60608060008361ffff1611612f4a5760405162461bcd60e51b81526020600482015260016024820152604960f81b6044820152606401610818565b865167ffffffffffffffff811115612f6457612f64615f46565b604051908082528060200260200182016040528015612f8d578160200160208202803683370190505b509150865167ffffffffffffffff811115612faa57612faa615f46565b604051908082528060200260200182016040528015612fd3578160200160208202803683370190505b50905060005b87518110156130715761300a8a8a8a8481518110612ff957612ff9615f5c565b60200260200101518a8a8a8a61332c565b84838151811061301c5761301c615f5c565b6020026020010184848151811061303557613035615f5c565b60200260200101826001600160a01b03166001600160a01b03168152508260060b60060b8152505050808061306990615f72565b915050612fd9565b5097509795505050505050565b600061308b8484846130c9565b90506000828061309d5761309d615cba565b84860911156130c25760001981106130b457600080fd5b806130be81615f72565b9150505b9392505050565b600080806000198587098587029250828110838203039150508060000361310257600084116130f757600080fd5b5082900490506130c2565b80841161310e57600080fd5b60008486880980840393811190920391905060008561312f81600019615c87565b61313a906001615cfb565b1695869004959384900493600081900304600101905061315a8184615ce4565b90931792600061316b876003615ce4565b600218905061317a8188615ce4565b613185906002615c87565b61318f9082615ce4565b905061319b8188615ce4565b6131a6906002615c87565b6131b09082615ce4565b90506131bc8188615ce4565b6131c7906002615c87565b6131d19082615ce4565b90506131dd8188615ce4565b6131e8906002615c87565b6131f29082615ce4565b90506131fe8188615ce4565b613209906002615c87565b6132139082615ce4565b905061321f8188615ce4565b61322a906002615c87565b6132349082615ce4565b90506132408186615ce4565b9998505050505050505050565b8060020b8260020b126132a25760405162461bcd60e51b815260206004820152601d60248201527f6c6f776572206e6f74206c6f776572206f6620757070657220756e69740000006044820152606401610818565b620d89e719600283900b12156132e05760405162461bcd60e51b8152602060048201526003602482015262544c4d60e81b6044820152606401610818565b6132ed620d89e719615dc3565b60020b8160020b13156133285760405162461bcd60e51b815260206004820152600360248201526254554d60e81b6044820152606401610818565b5050565b6000808663ffffffff166000036133d5576000898661ffff1661ffff811061335657613356615f5c565b60408051608081018252919092015463ffffffff808216808452600160201b830460060b6020850152600160581b83046001600160a01b031694840194909452600160f81b90910460ff16151560608301529092508a16146133c1576133be818a8988614643565b90505b806020015181604001519250925050613505565b60006133e1888a615da6565b90506000806133f58c8c858c8c8c8c61471e565b91509150816000015163ffffffff168363ffffffff1603613426578160200151826040015194509450505050613505565b806000015163ffffffff168363ffffffff1603613453578060200151816040015194509450505050613505565b8151815160009161346391615da6565b83519091506000906134759086615da6565b90508060030b8260030b856020015185602001516134939190615d59565b61349d9190615f8b565b6134a79190615fc0565b84602001516134b69190615fe0565b8263ffffffff168263ffffffff16866040015186604001516134d89190615d86565b6134e2919061600d565b6134ec919061603f565b85604001516134fb9190616059565b9650965050505050505b97509795505050505050565b6000808061351f8587615e62565b905060008660020b12801561353f57506135398587616079565b60020b15155b15613552578061354e8161609b565b9150505b83156135ff576000806135648361493a565b90925090506000600160ff831681901b9061357f9082615c87565b6135899190615cfb565b600184900b600090815260208c9052604090205481168015159650909150856135c957886135ba60ff851687615e3d565b6135c49190615e9c565b6135f4565b886135d382614957565b6135dd9085615e24565b6135ea9060ff1687615e3d565b6135f49190615e9c565b9650505050506136c4565b6000806136156136108460016160be565b61493a565b9092509050600061362d600160ff841681901b615c87565b600184900b600090815260208c905260409020549019908116801515965090915085613686578861365f8460ff615e24565b60ff1661366d8760016160be565b61367791906160be565b6136819190615e9c565b6136bd565b888361369183614a4e565b61369b9190615e24565b60ff166136a98760016160be565b6136b391906160be565b6136bd9190615e9c565b9650505050505b5094509492505050565b60008060008360020b126136e5578260020b6136f2565b8260020b6136f290615d3d565b9050613701620d89e719615dc3565b60020b8111156137375760405162461bcd60e51b81526020600482015260016024820152601560fa1b6044820152606401610818565b60008160011660000361374e57600160801b613760565b6ffffcb933bd6fad37aa2d162d1a5940015b70ffffffffffffffffffffffffffffffffff169050600282161561379f57608061379a826ffff97272373d413259a46990580e213a615ce4565b901c90505b60048216156137c95760806137c4826ffff2e50f5f656932ef12357cf3c7fdcc615ce4565b901c90505b60088216156137f35760806137ee826fffe5caca7e10e4e61c3624eaa0941cd0615ce4565b901c90505b601082161561381d576080613818826fffcb9843d60f6159c9db58835c926644615ce4565b901c90505b6020821615613847576080613842826fff973b41fa98c081472e6896dfb254c0615ce4565b901c90505b604082161561387157608061386c826fff2ea16466c96a3843ec78b326b52861615ce4565b901c90505b608082161561389b576080613896826ffe5dee046a99a2a811c461f1969c3053615ce4565b901c90505b6101008216156138c65760806138c1826ffcbe86c7900a88aedcffc83b479aa3a4615ce4565b901c90505b6102008216156138f15760806138ec826ff987a7253ac413176f2b074cf7815e54615ce4565b901c90505b61040082161561391c576080613917826ff3392b0822b70005940c7a398e4b70f3615ce4565b901c90505b610800821615613947576080613942826fe7159475a2c29b7443b29c7fa6e889d9615ce4565b901c90505b61100082161561397257608061396d826fd097f3bdfd2022b8845ad8f792aa5825615ce4565b901c90505b61200082161561399d576080613998826fa9f746462d870fdf8a65dc1f90e061e5615ce4565b901c90505b6140008216156139c85760806139c3826f70d869a156d2a1b890bb3df62baf32f7615ce4565b901c90505b6180008216156139f35760806139ee826f31be135f97d08fd981231505542fcfa6615ce4565b901c90505b62010000821615613a1f576080613a1a826f09aa508b5b7a84e1c677de54f3e99bc9615ce4565b901c90505b62020000821615613a4a576080613a45826e5d6af8dedb81196699c329225ee604615ce4565b901c90505b62040000821615613a74576080613a6f826d2216e584f5fa1ea926041bedfe98615ce4565b901c90505b62080000821615613a9c576080613a97826b048a170391f7dc42444e8fa2615ce4565b901c90505b60008460020b1315613ab757613ab481600019615cd0565b90505b613ac5600160201b826160e3565b15613ad1576001613ad4565b60005b613ae59060ff16602083901c615cfb565b949350505050565b600080806001600160a01b038087169088161015818512801590613b635781613b2257613b1d8989896001614b79565b613b2f565b613b2f888a896001614bf7565b935083613b3b87614cbe565b10613b4857879450613bb7565b613b5c8988613b5689614cbe565b85614d10565b9450613bb7565b81613b7a57613b758989896000614bf7565b613b87565b613b87888a896000614b79565b925082613b9387615d3d565b10613ba057879450613bb7565b613bb48988613bae89615d3d565b85614d5c565b94505b6001600160a01b03888116908616148215613c1a57808015613bd65750815b613bec57613be7868b8a6001614bf7565b613bee565b845b9450808015613bfb575081155b613c1157613c0c868b8a6000614b79565b613c13565b835b9350613c64565b808015613c245750815b613c3a57613c358a878a6001614b79565b613c3c565b845b9450808015613c49575081155b613c5f57613c5a8a878a6000614bf7565b613c61565b835b93505b81158015613c795750613c7687615d3d565b84115b15613c8a57613c8787615d3d565b93505b5050509450945094915050565b6000600160ff1b8210613ca957600080fd5b5090565b60008082121583613cbe8482615ddc565b925082131514612ed257600080fd5b60008082121583613cde8482615dfc565b925082121514612ed257600080fd5b600285900b60009081526020879052604081206001810154613d0f9087615c87565b60018201556002810154613d3390600160381b90046001600160a01b031686615d86565b6002820180546001600160a01b0392909216600160381b02670100000000000000600160d81b03199092169190911790819055613d739060060b85615d59565b60028201805466ffffffffffffff191666ffffffffffffff929092169190911790819055613dae90600160d81b900463ffffffff1684615da6565b60028201805463ffffffff92909216600160d81b0263ffffffff60d81b1990921691909117905554600160801b9004600f0b979650505050505050565b60008082600f0b1215613e58576001600160801b038316613e0b83615d0e565b613e159085615bba565b9150816001600160801b031610613e535760405162461bcd60e51b81526020600482015260026024820152614c5360f01b6044820152606401610818565b612ed2565b6001600160801b038316613e6c8385615c9a565b9150816001600160801b03161015612ed25760405162461bcd60e51b81526020600482015260026024820152614c4160f01b6044820152606401610818565b60006401000276a36001600160a01b03831610801590613ee7575073fffd8963efd1fc6a506488495d951d5263988d266001600160a01b038316105b613f175760405162461bcd60e51b81526020600482015260016024820152602960f91b6044820152606401610818565b640100000000600160c01b03602083901b166001600160801b03811160071b81811c67ffffffffffffffff811160061b90811c63ffffffff811160051b90811c61ffff811160041b90811c60ff8111600390811b91821c600f811160021b90811c918211600190811b92831c97908811961790941790921717909117171760808110613fb257613fa8607f82615c87565b83901c9150613fc3565b613fbd81607f615c87565b83901b91505b60006040613fd2608084615ddc565b901b9050828302607f1c92508260801c80603f1b8217915083811c935050828302607f1c92508260801c80603e1b8217915083811c935050828302607f1c92508260801c80603d1b8217915083811c935050828302607f1c92508260801c80603c1b8217915083811c935050828302607f1c92508260801c80603b1b8217915083811c935050828302607f1c92508260801c80603a1b8217915083811c935050828302607f1c92508260801c8060391b8217915083811c935050828302607f1c92508260801c8060381b8217915083811c935050828302607f1c92508260801c8060371b8217915083811c935050828302607f1c92508260801c8060361b8217915083811c935050828302607f1c92508260801c8060351b8217915083811c935050828302607f1c92508260801c8060341b8217915083811c935050828302607f1c92508260801c8060331b8217915083811c935050828302607f1c92508260801c8060321b8217915050600081693627a301d71055774c8561415591906160f7565b9050600060806141756f028f6481ab7f045a5af012a19d003aaa84615ddc565b901d905060006080614197846fdb2df09e81959a81455e260799a0632f615dfc565b901d90508060020b8260020b146141d657886001600160a01b03166141bb826136ce565b6001600160a01b031611156141d05781613240565b80613240565b50979650505050505050565b6000806000898961ffff1661ffff81106141fe576141fe615f5c565b60408051608081018252919092015463ffffffff808216808452600160201b830460060b6020850152600160581b83046001600160a01b031694840194909452600160f81b90910460ff1615156060830152909250891690036142675788859250925050613505565b8461ffff168461ffff1611801561428f5750614284600186616127565b61ffff168961ffff16145b1561429c578391506142a0565b8491505b816142ac8a6001616142565b6142b6919061615d565b92506142c481898989614643565b8a8461ffff1661ffff81106142db576142db615f5c565b825191018054602084015160408501516060909501511515600160f81b026001600160f81b036001600160a01b03909616600160581b02959095166affffffffffffffffffffff66ffffffffffffff909216600160201b026affffffffffffffffffffff1990931663ffffffff909516949094179190911716919091179190911790555097509795505050505050565b6000808361ffff16116143a45760405162461bcd60e51b81526020600482015260016024820152604960f81b6044820152606401610818565b8261ffff168261ffff16116143ba5750816130c2565b825b8261ffff168161ffff161015614410576001858261ffff1661ffff81106143e5576143e5615f5c565b01805463ffffffff191663ffffffff92909216919091179055806144088161617e565b9150506143bc565b50909392505050565b60006144286009878787612aea565b600554909150600080600f86900b15614547576004546006544291600091829161448491600a9186918591600160a01b810460020b9161ffff600160b81b83048116926001600160801b0390921691600160c81b90041661332c565b600080549294509092506144b1916007918e918c918e918c9188918a918c916001600160801b0316614da8565b6000549095506144dd906007908c908b908d908b90879089908b906001906001600160801b0316614da8565b935084156145115761451160088c7f0000000000000000000000000000000000000000000000000000000000000000614f56565b83156145435761454360088b7f0000000000000000000000000000000000000000000000000000000000000000614f56565b5050505b600061455760078a8a8988614fa9565b9050614564858883615040565b600087600f0b12156145c057821561459857600289810b600090815260076020526040812081815560018101829055909101555b81156145c057600288810b600090815260076020526040812081815560018101829055909101555b5050505095945050505050565b60008082600f0b126145ee576145e96120c38585856001614bf7565b613ae5565b6146066120c385856145ff86615d0e565b6000614bf7565b613ae590615d3d565b60008082600f0b1261462b576145e96120c38585856001614b79565b6146066120c3858561463c86615d0e565b6000614b79565b60408051608081018252600080825260208201819052918101829052606081019190915284516000906146769086615da6565b905060405180608001604052808663ffffffff168152602001828660020b61469e919061619f565b60030b88602001516146b09190615fe0565b60060b81526020016000856001600160801b0316116146d05760016146d2565b845b6146f2906001600160801b031663ffffffff60801b608086901b1661603f565b88604001516147019190616059565b6001600160a01b0316815260016020909101529695505050505050565b604080516080810182526000808252602082018190529181018290526060810191909152604080516080810182526000808252602082018190529181018290526060810191909152888561ffff1661ffff811061477d5761477d615f5c565b60408051608081018252919092015463ffffffff8116808352600160201b820460060b6020840152600160581b82046001600160a01b031693830193909352600160f81b900460ff161515606082015292506147db90899089615196565b1561480757815163ffffffff88811691161461350557816147fe83898988614643565b91509150613505565b8883614814876001616142565b61481e919061615d565b61ffff1661ffff811061483357614833615f5c565b60408051608081018252929091015463ffffffff81168352600160201b810460060b60208401526001600160a01b03600160581b8204169183019190915260ff600160f81b909104161515606082018190529092506148dc57604080516080810182528a5463ffffffff81168252600160201b810460060b6020830152600160581b81046001600160a01b031692820192909252600160f81b90910460ff161515606082015291505b6148eb88836000015189615196565b61491d5760405162461bcd60e51b815260206004820152600360248201526213d31160ea1b6044820152606401610818565b61492a8989898887615265565b9150915097509795505050505050565b600281900b60081d6000614950610100846161bf565b9050915091565b600080821161496557600080fd5b600160801b821061498357608091821c916149809082615c51565b90505b6801000000000000000082106149a657604091821c916149a39082615c51565b90505b600160201b82106149c457602091821c916149c19082615c51565b90505b6201000082106149e157601091821c916149de9082615c51565b90505b61010082106149fd57600891821c916149fa9082615c51565b90505b60108210614a1857600491821c91614a159082615c51565b90505b60048210614a3357600291821c91614a309082615c51565b90505b60028210614a4957614a46600182615c51565b90505b919050565b6000808211614a5c57600080fd5b5060ff6001600160801b03821615614a8057614a79608082615e24565b9050614a88565b608082901c91505b67ffffffffffffffff821615614aaa57614aa3604082615e24565b9050614ab2565b604082901c91505b63ffffffff821615614ad057614ac9602082615e24565b9050614ad8565b602082901c91505b61ffff821615614af457614aed601082615e24565b9050614afc565b601082901c91505b60ff821615614b1757614b10600882615e24565b9050614b1f565b600882901c91505b600f821615614b3a57614b33600482615e24565b9050614b42565b600482901c91505b6003821615614b5d57614b56600282615e24565b9050614b65565b600282901c91505b6001821615614a4957614a46600182615e24565b6000836001600160a01b0316856001600160a01b03161115614b99579293925b81614bcd57614bc86001600160801b038416614bb58787615d86565b6001600160a01b0316600160601b6130c9565b6129e1565b6129e16001600160801b038416614be48787615d86565b6001600160a01b0316600160601b61307e565b6000836001600160a01b0316856001600160a01b03161115614c17579293925b600160601b600160e01b03606084901b166000614c348787615d86565b6001600160a01b031690506000876001600160a01b031611614c5557600080fd5b83614c8757866001600160a01b0316614c788383896001600160a01b03166130c9565b614c829190615cd0565b614cb3565b614cb3614c9e8383896001600160a01b031661307e565b886001600160a01b0316808204910615150190565b979650505050505050565b600080821215613ca95760405162461bcd60e51b815260206004820181905260248201527f53616665436173743a2076616c7565206d75737420626520706f7369746976656044820152606401610818565b600080856001600160a01b031611614d2757600080fd5b6000846001600160801b031611614d3d57600080fd5b81614d4f57614bc8858585600161547d565b6129e18585856001615564565b600080856001600160a01b031611614d7357600080fd5b6000846001600160801b031611614d8957600080fd5b81614d9b57614bc88585856000615564565b6129e1858585600061547d565b600289900b600090815260208b90526040812080546001600160801b031682614dd1828c613deb565b9050846001600160801b0316816001600160801b03161115614e1a5760405162461bcd60e51b81526020600482015260026024820152614c4f60f01b6044820152606401610818565b6001600160801b0381811615908316801591909114159450600003614ec6578b60020b8d60020b13614eae57600183018a905560028301805466ffffffffffffff8a166001600160f81b0319909116600160381b6001600160a01b038d16027fff00000000ffffffffffffffffffffffffffffffffffffffff00000000000000161717600160d81b63ffffffff8a16021790555b6002830180546001600160f81b0316600160f81b1790555b82546001600160801b0319166001600160801b03821617835585614f0d578254614f0890614f0390600160801b9004600f90810b908e900b613ccd565b61567b565b614f2c565b8254614f2c90614f0390600160801b9004600f90810b908e900b613cad565b83546001600160801b03918216600160801b0291161790925550909b9a5050505050505050505050565b614f608183616079565b60020b15614f6d57600080fd5b600080614f7d6136108486615e62565b600191820b60009081526020979097526040909620805460ff9097169190911b90951890945550505050565b600284810b60008181526020889052604080822087850b835290822091939092849187900b12614fde57506001820154614ff0565b6001830154614fed9086615c87565b90505b60008760020b8760020b121561500b5750600182015461501d565b600183015461501a9087615c87565b90505b806150288388615c87565b6150329190615c87565b9a9950505050505050505050565b6040805160808101825284546001600160801b03908116825260018601546020830152600286015480821693830193909352600160801b90920490911660608201526000600f84900b81036150d35781516001600160801b03166150cb5760405162461bcd60e51b815260206004820152600260248201526104e560f41b6044820152606401610818565b5080516150e2565b81516150df9085613deb565b90505b600061510c8360200151856150f79190615c87565b84516001600160801b0316600160801b6130c9565b905084600f0b6000146151335785546001600160801b0319166001600160801b0383161786555b600186018490556001600160801b0381161561518e576002860180548291906000906151699084906001600160801b0316615c9a565b92506101000a8154816001600160801b0302191690836001600160801b031602179055505b505050505050565b60008363ffffffff168363ffffffff16111580156151c057508363ffffffff168263ffffffff1611155b156151dc578163ffffffff168363ffffffff16111590506130c2565b60008463ffffffff168463ffffffff161161520a5761520563ffffffff8516600160201b6161d5565b615212565b8363ffffffff165b64ffffffffff16905060008563ffffffff168463ffffffff16116152495761524463ffffffff8516600160201b6161d5565b615251565b8363ffffffff165b64ffffffffff169091111595945050505050565b6040805160808101825260008082526020820181905291810182905260608101919091526040805160808101825260008082526020820181905291810182905260608101919091526000836152bb866001616142565b6152c5919061615d565b61ffff169050600060018561ffff16836152df9190615cfb565b6152e99190615c87565b905060005b60026152fa8385615cfb565b6153049190615cd0565b90508961531561ffff8816836160e3565b61ffff811061532657615326615f5c565b60408051608081018252929091015463ffffffff81168352600160201b810460060b60208401526001600160a01b03600160581b8204169183019190915260ff600160f81b909104161515606082018190529095506153915761538a816001615cfb565b92506152ee565b8961ffff87166153a2836001615cfb565b6153ac91906160e3565b61ffff81106153bd576153bd615f5c565b60408051608081018252929091015463ffffffff81168352600160201b810460060b60208401526001600160a01b03600160581b8204169183019190915260ff600160f81b90910416151560608201528551909450600090615421908b908b615196565b905080801561543a575061543a8a8a8760000151615196565b156154455750615470565b8061545c57615455600183615c87565b925061546a565b615467826001615cfb565b93505b506152ee565b5050509550959350505050565b600081156154ef5760006001600160a01b038411156154b3576154ae84600160601b876001600160801b03166130c9565b6154ca565b6154ca6001600160801b038616606086901b615cd0565b90506154e76154e26001600160a01b03881683612eb7565b61568c565b915050613ae5565b60006001600160a01b0384111561551d5761551884600160601b876001600160801b031661307e565b61553a565b61553a606085901b6001600160801b038716808204910615150190565b905080866001600160a01b03161161555157600080fd5b6154e7816001600160a01b038816615c87565b600082600003615575575083613ae5565b600160601b600160e01b03606085901b16821561561e5760006001600160a01b038716856155a38282615ce4565b92506155af9083615cd0565b036155e95760006155c08284615cfb565b90508281106155e7576155dd83896001600160a01b03168361307e565b9350505050613ae5565b505b6156158261560a876156046001600160a01b038c1684615cd0565b90612eb7565b808204910615150190565b92505050613ae5565b60006001600160a01b038716856156358282615ce4565b92506156419083615cd0565b14801561564d57508082115b61565657600080fd5b60006156628284615c87565b90506155dd6154e2848a6001600160a01b03168461307e565b80600f81900b8114614a4957600080fd5b806001600160a01b0381168114614a4957600080fd5b6001600160a01b03811681146156b757600080fd5b50565b6000602082840312156156cc57600080fd5b81356130c2816156a2565b6000602082840312156156e957600080fd5b5035919050565b8035600281900b8114614a4957600080fd5b80356001600160801b0381168114614a4957600080fd5b6000806000806080858703121561572f57600080fd5b843561573a816156a2565b9350615748602086016156f0565b9250615756604086016156f0565b915061576460608601615702565b905092959194509250565b60006020828403121561578157600080fd5b6130c2826156f0565b60008083601f84011261579c57600080fd5b50813567ffffffffffffffff8111156157b457600080fd5b60208301915083602082850101111561110f57600080fd5b60008060008060008060a087890312156157e557600080fd5b86356157f0816156a2565b95506157fe602088016156f0565b945061580c604088016156f0565b935061581a60608801615702565b9250608087013567ffffffffffffffff81111561583657600080fd5b61584289828a0161578a565b979a9699509497509295939492505050565b803560ff81168114614a4957600080fd5b600080600080600060a0868803121561587d57600080fd5b61588686615854565b945061589460208701615854565b93506158a260408701615854565b92506158b060608701615854565b91506158be60808701615854565b90509295509295909350565b600080602083850312156158dd57600080fd5b823567ffffffffffffffff808211156158f557600080fd5b818501915085601f83011261590957600080fd5b81358181111561591857600080fd5b8660208260051b850101111561592d57600080fd5b60209290920196919550909350505050565b604080825283519082018190526000906020906060840190828701845b8281101561597b57815160060b8452928401929084019060010161595c565b5050508381038285015284518082528583019183019060005b818110156159b95783516001600160a01b031683529284019291840191600101615994565b5090979650505050505050565b6000602082840312156159d857600080fd5b81358060010b81146130c257600080fd5b60008060008060008060a08789031215615a0257600080fd5b8635615a0d816156a2565b95506020870135615a1d816156a2565b94506040870135935060608701359250608087013567ffffffffffffffff81111561583657600080fd5b600080600060608486031215615a5c57600080fd5b615a65846156f0565b9250615a73602085016156f0565b9150615a8160408501615702565b90509250925092565b60008060408385031215615a9d57600080fd5b615aa6836156f0565b9150615ab4602084016156f0565b90509250929050565b80151581146156b757600080fd5b600080600080600080600060c0888a031215615ae657600080fd5b8735615af1816156a2565b96506020880135615b01816156a2565b95506040880135615b1181615abd565b9450606088013593506080880135615b28816156a2565b925060a088013567ffffffffffffffff811115615b4457600080fd5b615b508a828b0161578a565b989b979a50959850939692959293505050565b600060208284031215615b7557600080fd5b813561ffff811681146130c257600080fd5b6020808252600390820152624c4f4b60e81b604082015260600190565b634e487b7160e01b600052601160045260246000fd5b6001600160801b03828116828216039080821115615bda57615bda615ba4565b5092915050565b600060208284031215615bf357600080fd5b81516130c281615abd565b81835281816020850137506000828201602090810191909152601f909101601f19169091010190565b848152836020820152606060408201526000615c47606083018486615bfe565b9695505050505050565b60ff8181168382160190811115612ed257612ed2615ba4565b600060208284031215615c7c57600080fd5b81516130c2816156a2565b81810381811115612ed257612ed2615ba4565b6001600160801b03818116838216019080821115615bda57615bda615ba4565b634e487b7160e01b600052601260045260246000fd5b600082615cdf57615cdf615cba565b500490565b8082028115828204841417612ed257612ed2615ba4565b80820180821115612ed257612ed2615ba4565b600081600f0b6f7fffffffffffffffffffffffffffffff198103615d3457615d34615ba4565b60000392915050565b6000600160ff1b8201615d5257615d52615ba4565b5060000390565b600682810b9082900b03667fffffffffffff198112667fffffffffffff82131715612ed257612ed2615ba4565b6001600160a01b03828116828216039080821115615bda57615bda615ba4565b63ffffffff828116828216039080821115615bda57615bda615ba4565b60008160020b627fffff198103615d3457615d34615ba4565b8181036000831280158383131683831282161715615bda57615bda615ba4565b8082018281126000831280158216821582161715615e1c57615e1c615ba4565b505092915050565b60ff8281168282160390811115612ed257612ed2615ba4565b600282810b9082900b03627fffff198112627fffff82131715612ed257612ed2615ba4565b60008160020b8360020b80615e7957615e79615cba565b627fffff19821460001982141615615e9357615e93615ba4565b90059392505050565b60008260020b8260020b028060020b9150808214615bda57615bda615ba4565b62ffffff818116838216019080821115615bda57615bda615ba4565b60006001600160801b0380841680615ef257615ef2615cba565b92169190910492915050565b6000825160005b81811015615f1f5760208186018101518583015201615f05565b506000920191825250919050565b600060208284031215615f3f57600080fd5b5051919050565b634e487b7160e01b600052604160045260246000fd5b634e487b7160e01b600052603260045260246000fd5b600060018201615f8457615f84615ba4565b5060010190565b60008160060b8360060b80615fa257615fa2615cba565b667fffffffffffff19821460001982141615615e9357615e93615ba4565b60008260060b8260060b028060060b9150808214615bda57615bda615ba4565b600681810b9083900b01667fffffffffffff8113667fffffffffffff1982121715612ed257612ed2615ba4565b6001600160a01b0382811682821681810283169291811582850482141761603657616036615ba4565b50505092915050565b60006001600160a01b0383811680615ef257615ef2615cba565b6001600160a01b03818116838216019080821115615bda57615bda615ba4565b60008260020b8061608c5761608c615cba565b808360020b0791505092915050565b60008160020b627fffff1981036160b4576160b4615ba4565b6000190192915050565b600281810b9083900b01627fffff8113627fffff1982121715612ed257612ed2615ba4565b6000826160f2576160f2615cba565b500690565b80820260008212600160ff1b8414161561611357616113615ba4565b8181058314821517612ed257612ed2615ba4565b61ffff828116828216039080821115615bda57615bda615ba4565b61ffff818116838216019080821115615bda57615bda615ba4565b600061ffff8084168061617257616172615cba565b92169190910692915050565b600061ffff80831681810361619557616195615ba4565b6001019392505050565b60008260030b8260030b028060030b9150808214615bda57615bda615ba4565b600062ffffff8084168061617257616172615cba565b64ffffffffff818116838216019080821115615bda57615bda615ba456fea26469706673582212204a7fb1a94b9089fe847f9bf5f50e3185dfd2288b38e0afbf77fe0fe0fb7f61f764736f6c63430008120033",
			"opcodes": "PUSH2 0x140 PUSH1 0x40 MSTORE CALLVALUE DUP1 ISZERO PUSH3 0x12 JUMPI PUSH1 0x0 DUP1 REVERT JUMPDEST POP ADDRESS PUSH1 0x80 MSTORE PUSH1 0x40 DUP1 MLOAD PUSH4 0x17E49229 PUSH1 0xE1 SHL DUP2 MSTORE SWAP1 MLOAD CALLER SWAP2 PUSH4 0x2FC92452 SWAP2 PUSH1 0x4 DUP1 DUP4 ADD SWAP3 PUSH2 0x140 SWAP3 SWAP2 SWAP1 DUP3 SWAP1 SUB ADD DUP2 DUP7 GAS STATICCALL ISZERO DUP1 ISZERO PUSH3 0x55 JUMPI RETURNDATASIZE PUSH1 0x0 DUP1 RETURNDATACOPY RETURNDATASIZE PUSH1 0x0 REVERT JUMPDEST POP POP POP POP PUSH1 0x40 MLOAD RETURNDATASIZE PUSH1 0x1F NOT PUSH1 0x1F DUP3 ADD AND DUP3 ADD DUP1 PUSH1 0x40 MSTORE POP DUP2 ADD SWAP1 PUSH3 0x7B SWAP2 SWAP1 PUSH3 0x234 JUMP JUMPDEST DUP1 MLOAD PUSH1 0x1 DUP1 SLOAD PUSH1 0x20 DUP1 DUP6 ADD MLOAD PUSH1 0x40 DUP7 ADD MLOAD PUSH1 0x60 DUP8 ADD MLOAD PUSH1 0x80 SWAP1 SWAP8 ADD MLOAD PUSH1 0xFF SWAP7 DUP8 AND PUSH2 0xFFFF NOT SWAP1 SWAP6 AND SWAP5 SWAP1 SWAP5 OR PUSH2 0x100 SWAP3 DUP8 AND DUP4 MUL OR PUSH4 0xFFFF0000 NOT AND PUSH3 0x10000 SWAP2 DUP8 AND SWAP2 SWAP1 SWAP2 MUL PUSH4 0xFF000000 NOT AND OR PUSH4 0x1000000 SWAP7 DUP7 AND SWAP7 SWAP1 SWAP7 MUL SWAP6 SWAP1 SWAP6 OR PUSH1 0xFF PUSH1 0x20 SHL NOT AND PUSH5 0x100000000 SWAP5 SWAP1 SWAP3 AND SWAP4 SWAP1 SWAP4 MUL OR SWAP1 SSTORE PUSH1 0x2 SWAP3 DUP4 SIGNEXTEND PUSH2 0x120 DUP2 SWAP1 MSTORE PUSH3 0xFFFFFF SWAP5 SWAP1 SWAP5 AND SWAP1 SWAP2 MSTORE PUSH1 0x1 PUSH1 0x1 PUSH1 0xA0 SHL SUB SWAP4 DUP5 AND PUSH1 0xE0 MSTORE SWAP4 DUP4 AND PUSH1 0xC0 MSTORE SWAP4 SWAP1 SWAP2 AND PUSH1 0xA0 MSTORE DUP3 SLOAD PUSH2 0xFFFF PUSH1 0xA8 SHL NOT AND SWAP1 SWAP3 SSTORE PUSH3 0x145 SWAP2 SWAP1 PUSH3 0x16B DUP2 SHL PUSH3 0x2962 OR SWAP1 SHR JUMP JUMPDEST PUSH1 0x0 DUP1 SLOAD PUSH1 0x1 PUSH1 0x1 PUSH1 0x80 SHL SUB NOT AND PUSH1 0x1 PUSH1 0x1 PUSH1 0x80 SHL SUB SWAP3 SWAP1 SWAP3 AND SWAP2 SWAP1 SWAP2 OR SWAP1 SSTORE PUSH3 0x494 JUMP JUMPDEST PUSH1 0x0 DUP1 DUP3 PUSH3 0x17F DUP2 PUSH3 0xD89E7 NOT PUSH3 0x38F JUMP JUMPDEST PUSH3 0x18B SWAP2 SWAP1 PUSH3 0x3CF JUMP JUMPDEST SWAP1 POP PUSH1 0x0 DUP4 DUP1 PUSH3 0x1A0 PUSH3 0xD89E7 NOT PUSH3 0x3F9 JUMP JUMPDEST PUSH3 0x1AC SWAP2 SWAP1 PUSH3 0x38F JUMP JUMPDEST PUSH3 0x1B8 SWAP2 SWAP1 PUSH3 0x3CF JUMP JUMPDEST SWAP1 POP PUSH1 0x0 DUP5 PUSH3 0x1C9 DUP5 DUP5 PUSH3 0x41E JUMP JUMPDEST PUSH3 0x1D5 SWAP2 SWAP1 PUSH3 0x38F JUMP JUMPDEST PUSH3 0x1E2 SWAP1 PUSH1 0x1 PUSH3 0x44C JUMP JUMPDEST SWAP1 POP PUSH3 0x1FC PUSH3 0xFFFFFF DUP3 AND PUSH1 0x1 PUSH1 0x1 PUSH1 0x80 SHL SUB PUSH3 0x46B JUMP JUMPDEST SWAP6 SWAP5 POP POP POP POP POP JUMP JUMPDEST DUP1 MLOAD PUSH1 0x1 PUSH1 0x1 PUSH1 0xA0 SHL SUB DUP2 AND DUP2 EQ PUSH3 0x21D JUMPI PUSH1 0x0 DUP1 REVERT JUMPDEST SWAP2 SWAP1 POP JUMP JUMPDEST DUP1 MLOAD PUSH1 0xFF DUP2 AND DUP2 EQ PUSH3 0x21D JUMPI PUSH1 0x0 DUP1 REVERT JUMPDEST PUSH1 0x0 DUP1 PUSH1 0x0 DUP1 PUSH1 0x0 DUP1 DUP7 DUP9 SUB PUSH2 0x140 DUP2 SLT ISZERO PUSH3 0x250 JUMPI PUSH1 0x0 DUP1 REVERT JUMPDEST PUSH3 0x25B DUP9 PUSH3 0x205 JUMP JUMPDEST SWAP7 POP PUSH3 0x26B PUSH1 0x20 DUP10 ADD PUSH3 0x205 JUMP JUMPDEST SWAP6 POP PUSH3 0x27B PUSH1 0x40 DUP10 ADD PUSH3 0x205 JUMP JUMPDEST SWAP5 POP PUSH1 0x60 DUP9 ADD MLOAD PUSH3 0xFFFFFF DUP2 AND DUP2 EQ PUSH3 0x294 JUMPI PUSH1 0x0 DUP1 REVERT JUMPDEST DUP1 SWAP5 POP POP PUSH1 0x80 DUP9 ADD MLOAD DUP1 PUSH1 0x2 SIGNEXTEND DUP2 EQ PUSH3 0x2AD JUMPI PUSH1 0x0 DUP1 REVERT JUMPDEST SWAP3 POP PUSH1 0xA0 PUSH1 0x9F NOT DUP3 ADD SLT ISZERO PUSH3 0x2C2 JUMPI PUSH1 0x0 DUP1 REVERT JUMPDEST POP PUSH1 0x40 MLOAD PUSH1 0xA0 DUP2 ADD PUSH1 0x1 PUSH1 0x1 PUSH1 0x40 SHL SUB DUP2 GT DUP3 DUP3 LT OR ISZERO PUSH3 0x2F4 JUMPI PUSH4 0x4E487B71 PUSH1 0xE0 SHL PUSH1 0x0 MSTORE PUSH1 0x41 PUSH1 0x4 MSTORE PUSH1 0x24 PUSH1 0x0 REVERT JUMPDEST PUSH1 0x40 MSTORE PUSH3 0x305 PUSH1 0xA0 DUP10 ADD PUSH3 0x222 JUMP JUMPDEST DUP2 MSTORE PUSH3 0x315 PUSH1 0xC0 DUP10 ADD PUSH3 0x222 JUMP JUMPDEST PUSH1 0x20 DUP3 ADD MSTORE PUSH3 0x328 PUSH1 0xE0 DUP10 ADD PUSH3 0x222 JUMP JUMPDEST PUSH1 0x40 DUP3 ADD MSTORE PUSH3 0x33C PUSH2 0x100 DUP10 ADD PUSH3 0x222 JUMP JUMPDEST PUSH1 0x60 DUP3 ADD MSTORE PUSH3 0x350 PUSH2 0x120 DUP10 ADD PUSH3 0x222 JUMP JUMPDEST PUSH1 0x80 DUP3 ADD MSTORE DUP1 SWAP2 POP POP SWAP3 SWAP6 POP SWAP3 SWAP6 POP SWAP3 SWAP6 JUMP JUMPDEST PUSH4 0x4E487B71 PUSH1 0xE0 SHL PUSH1 0x0 MSTORE PUSH1 0x12 PUSH1 0x4 MSTORE PUSH1 0x24 PUSH1 0x0 REVERT JUMPDEST PUSH4 0x4E487B71 PUSH1 0xE0 SHL PUSH1 0x0 MSTORE PUSH1 0x11 PUSH1 0x4 MSTORE PUSH1 0x24 PUSH1 0x0 REVERT JUMPDEST PUSH1 0x0 DUP2 PUSH1 0x2 SIGNEXTEND DUP4 PUSH1 0x2 SIGNEXTEND DUP1 PUSH3 0x3A9 JUMPI PUSH3 0x3A9 PUSH3 0x363 JUMP JUMPDEST PUSH3 0x7FFFFF NOT DUP3 EQ PUSH1 0x0 NOT DUP3 EQ AND ISZERO PUSH3 0x3C6 JUMPI PUSH3 0x3C6 PUSH3 0x379 JUMP JUMPDEST SWAP1 SDIV SWAP4 SWAP3 POP POP POP JUMP JUMPDEST PUSH1 0x0 DUP3 PUSH1 0x2 SIGNEXTEND DUP3 PUSH1 0x2 SIGNEXTEND MUL DUP1 PUSH1 0x2 SIGNEXTEND SWAP2 POP DUP1 DUP3 EQ PUSH3 0x3F2 JUMPI PUSH3 0x3F2 PUSH3 0x379 JUMP JUMPDEST POP SWAP3 SWAP2 POP POP JUMP JUMPDEST PUSH1 0x0 DUP2 PUSH1 0x2 SIGNEXTEND PUSH3 0x7FFFFF NOT DUP2 SUB PUSH3 0x415 JUMPI PUSH3 0x415 PUSH3 0x379 JUMP JUMPDEST PUSH1 0x0 SUB SWAP3 SWAP2 POP POP JUMP JUMPDEST PUSH1 0x2 DUP3 DUP2 SIGNEXTEND SWAP1 DUP3 SWAP1 SIGNEXTEND SUB PUSH3 0x7FFFFF NOT DUP2 SLT PUSH3 0x7FFFFF DUP3 SGT OR ISZERO PUSH3 0x446 JUMPI PUSH3 0x446 PUSH3 0x379 JUMP JUMPDEST SWAP3 SWAP2 POP POP JUMP JUMPDEST PUSH3 0xFFFFFF DUP2 DUP2 AND DUP4 DUP3 AND ADD SWAP1 DUP1 DUP3 GT ISZERO PUSH3 0x3F2 JUMPI PUSH3 0x3F2 PUSH3 0x379 JUMP JUMPDEST PUSH1 0x0 PUSH1 0x1 PUSH1 0x1 PUSH1 0x80 SHL SUB DUP4 DUP2 AND DUP1 PUSH3 0x488 JUMPI PUSH3 0x488 PUSH3 0x363 JUMP JUMPDEST SWAP3 AND SWAP2 SWAP1 SWAP2 DIV SWAP3 SWAP2 POP POP JUMP JUMPDEST PUSH1 0x80 MLOAD PUSH1 0xA0 MLOAD PUSH1 0xC0 MLOAD PUSH1 0xE0 MLOAD PUSH2 0x100 MLOAD PUSH2 0x120 MLOAD PUSH2 0x6229 PUSH3 0x570 PUSH1 0x0 CODECOPY PUSH1 0x0 DUP2 DUP2 PUSH2 0x663 ADD MSTORE DUP2 DUP2 PUSH2 0x1F8D ADD MSTORE DUP2 DUP2 PUSH2 0x44ED ADD MSTORE PUSH2 0x451F ADD MSTORE PUSH1 0x0 DUP2 DUP2 PUSH2 0x4AD ADD MSTORE DUP2 DUP2 PUSH2 0x1260 ADD MSTORE PUSH2 0x129B ADD MSTORE PUSH1 0x0 DUP2 DUP2 PUSH2 0x7B7 ADD MSTORE DUP2 DUP2 PUSH2 0x1326 ADD MSTORE DUP2 DUP2 PUSH2 0x24D5 ADD MSTORE PUSH2 0x2E85 ADD MSTORE PUSH1 0x0 DUP2 DUP2 PUSH2 0x22C ADD MSTORE DUP2 DUP2 PUSH2 0x8C1 ADD MSTORE DUP2 DUP2 PUSH2 0xB0B ADD MSTORE DUP2 DUP2 PUSH2 0x12ED ADD MSTORE DUP2 DUP2 PUSH2 0x25CD ADD MSTORE PUSH2 0x2D87 ADD MSTORE PUSH1 0x0 DUP2 DUP2 PUSH2 0x53C ADD MSTORE DUP2 DUP2 PUSH2 0x951 ADD MSTORE DUP2 DUP2 PUSH2 0xDEC ADD MSTORE DUP2 DUP2 PUSH2 0xEFF ADD MSTORE DUP2 DUP2 PUSH2 0x11E7 ADD MSTORE DUP2 DUP2 PUSH2 0x14D5 ADD MSTORE DUP2 DUP2 PUSH2 0x15F2 ADD MSTORE PUSH2 0x1D03 ADD MSTORE PUSH1 0x0 PUSH2 0x2EE3 ADD MSTORE PUSH2 0x6229 PUSH1 0x0 RETURN INVALID PUSH1 0x80 PUSH1 0x40 MSTORE CALLVALUE DUP1 ISZERO PUSH2 0x10 JUMPI PUSH1 0x0 DUP1 REVERT JUMPDEST POP PUSH1 0x4 CALLDATASIZE LT PUSH2 0x206 JUMPI PUSH1 0x0 CALLDATALOAD PUSH1 0xE0 SHR DUP1 PUSH4 0x80F55605 GT PUSH2 0x11A JUMPI DUP1 PUSH4 0x92CC393C GT PUSH2 0xAD JUMPI DUP1 PUSH4 0xAFB62FEF GT PUSH2 0x7C JUMPI DUP1 PUSH4 0xAFB62FEF EQ PUSH2 0x723 JUMPI DUP1 PUSH4 0xB1592590 EQ PUSH2 0x78B JUMPI DUP1 PUSH4 0xB23AE19B EQ PUSH2 0x79F JUMPI DUP1 PUSH4 0xC55E90FE EQ PUSH2 0x7B2 JUMPI DUP1 PUSH4 0xF637731D EQ PUSH2 0x7D9 JUMPI PUSH1 0x0 DUP1 REVERT JUMPDEST DUP1 PUSH4 0x92CC393C EQ PUSH2 0x698 JUMPI DUP1 PUSH4 0xA34123A7 EQ PUSH2 0x6BC JUMPI DUP1 PUSH4 0xA38807F2 EQ PUSH2 0x6CF JUMPI DUP1 PUSH4 0xA98B22C1 EQ PUSH2 0x710 JUMPI PUSH1 0x0 DUP1 REVERT JUMPDEST DUP1 PUSH4 0x8CC2CE60 GT PUSH2 0xE9 JUMPI DUP1 PUSH4 0x8CC2CE60 EQ PUSH2 0x630 JUMPI DUP1 PUSH4 0x8D79DDCB EQ PUSH2 0x643 JUMPI DUP1 PUSH4 0x8F919198 EQ PUSH2 0x656 JUMPI DUP1 PUSH4 0x92C4545C EQ PUSH2 0x65E JUMPI PUSH1 0x0 DUP1 REVERT JUMPDEST DUP1 PUSH4 0x80F55605 EQ PUSH2 0x537 JUMPI DUP1 PUSH4 0x883BDBFD EQ PUSH2 0x55E JUMPI DUP1 PUSH4 0x8860D1CD EQ PUSH2 0x57F JUMPI DUP1 PUSH4 0x8B2EA554 EQ PUSH2 0x59F JUMPI PUSH1 0x0 DUP1 REVERT JUMPDEST DUP1 PUSH4 0x317DFB06 GT PUSH2 0x19D JUMPI DUP1 PUSH4 0x66D16CC3 GT PUSH2 0x16C JUMPI DUP1 PUSH4 0x66D16CC3 EQ PUSH2 0x4A8 JUMPI DUP1 PUSH4 0x6A0B2B23 EQ PUSH2 0x4E3 JUMPI DUP1 PUSH4 0x6ACA362D EQ PUSH2 0x4F6 JUMPI DUP1 PUSH4 0x6E62D0A8 EQ PUSH2 0x4FE JUMPI DUP1 PUSH4 0x77AB25FE EQ PUSH2 0x524 JUMPI PUSH1 0x0 DUP1 REVERT JUMPDEST DUP1 PUSH4 0x317DFB06 EQ PUSH2 0x337 JUMPI DUP1 PUSH4 0x3C8A7D8D EQ PUSH2 0x400 JUMPI DUP1 PUSH4 0x3D02A292 EQ PUSH2 0x428 JUMPI DUP1 PUSH4 0x444D95B0 EQ PUSH2 0x430 JUMPI PUSH1 0x0 DUP1 REVERT JUMPDEST DUP1 PUSH4 0x1F0F4C29 GT PUSH2 0x1D9 JUMPI DUP1 PUSH4 0x1F0F4C29 EQ PUSH2 0x2A4 JUMPI DUP1 PUSH4 0x208537FF EQ PUSH2 0x2CD JUMPI DUP1 PUSH4 0x2AD1BAAB EQ PUSH2 0x2D7 JUMPI DUP1 PUSH4 0x30D106B1 EQ PUSH2 0x324 JUMPI PUSH1 0x0 DUP1 REVERT JUMPDEST DUP1 PUSH4 0x1B29351 EQ PUSH2 0x20B JUMPI DUP1 PUSH4 0x11DF9995 EQ PUSH2 0x227 JUMPI DUP1 PUSH4 0x166D6021 EQ PUSH2 0x266 JUMPI DUP1 PUSH4 0x1D769828 EQ PUSH2 0x279 JUMPI JUMPDEST PUSH1 0x0 DUP1 REVERT JUMPDEST PUSH2 0x214 PUSH1 0x5 SLOAD DUP2 JUMP JUMPDEST PUSH1 0x40 MLOAD SWAP1 DUP2 MSTORE PUSH1 0x20 ADD JUMPDEST PUSH1 0x40 MLOAD DUP1 SWAP2 SUB SWAP1 RETURN JUMPDEST PUSH2 0x24E PUSH32 0x0 DUP2 JUMP JUMPDEST PUSH1 0x40 MLOAD PUSH1 0x1 PUSH1 0x1 PUSH1 0xA0 SHL SUB SWAP1 SWAP2 AND DUP2 MSTORE PUSH1 0x20 ADD PUSH2 0x21E JUMP JUMPDEST PUSH1 0x2 SLOAD PUSH2 0x24E SWAP1 PUSH1 0x1 PUSH1 0x1 PUSH1 0xA0 SHL SUB AND DUP2 JUMP JUMPDEST PUSH2 0x28C PUSH2 0x287 CALLDATASIZE PUSH1 0x4 PUSH2 0x56BA JUMP JUMPDEST PUSH2 0x7EC JUMP JUMPDEST PUSH1 0x40 MLOAD PUSH1 0x1 PUSH1 0x1 PUSH1 0x80 SHL SUB SWAP1 SWAP2 AND DUP2 MSTORE PUSH1 0x20 ADD PUSH2 0x21E JUMP JUMPDEST PUSH2 0x28C PUSH2 0x2B2 CALLDATASIZE PUSH1 0x4 PUSH2 0x56BA JUMP JUMPDEST PUSH1 0x3 PUSH1 0x20 MSTORE PUSH1 0x0 SWAP1 DUP2 MSTORE PUSH1 0x40 SWAP1 KECCAK256 SLOAD PUSH1 0x1 PUSH1 0x1 PUSH1 0x80 SHL SUB AND DUP2 JUMP JUMPDEST PUSH2 0x2D5 PUSH2 0x94F JUMP JUMPDEST STOP JUMPDEST PUSH2 0x2EA PUSH2 0x2E5 CALLDATASIZE PUSH1 0x4 PUSH2 0x56D7 JUMP JUMPDEST PUSH2 0x9F4 JUMP JUMPDEST PUSH1 0x40 DUP1 MLOAD PUSH4 0xFFFFFFFF SWAP1 SWAP6 AND DUP6 MSTORE PUSH1 0x6 SWAP4 SWAP1 SWAP4 SIGNEXTEND PUSH1 0x20 DUP6 ADD MSTORE PUSH1 0x1 PUSH1 0x1 PUSH1 0xA0 SHL SUB SWAP1 SWAP2 AND SWAP2 DUP4 ADD SWAP2 SWAP1 SWAP2 MSTORE ISZERO ISZERO PUSH1 0x60 DUP3 ADD MSTORE PUSH1 0x80 ADD PUSH2 0x21E JUMP JUMPDEST PUSH2 0x28C PUSH2 0x332 CALLDATASIZE PUSH1 0x4 PUSH2 0x5719 JUMP JUMPDEST PUSH2 0xA39 JUMP JUMPDEST PUSH2 0x3AA PUSH2 0x345 CALLDATASIZE PUSH1 0x4 PUSH2 0x576F JUMP JUMPDEST PUSH1 0x7 PUSH1 0x20 MSTORE PUSH1 0x0 SWAP1 DUP2 MSTORE PUSH1 0x40 SWAP1 KECCAK256 DUP1 SLOAD PUSH1 0x1 DUP3 ADD SLOAD PUSH1 0x2 SWAP1 SWAP3 ADD SLOAD PUSH1 0x1 PUSH1 0x1 PUSH1 0x80 SHL SUB DUP3 AND SWAP3 PUSH1 0x1 PUSH1 0x80 SHL SWAP1 SWAP3 DIV PUSH1 0xF SIGNEXTEND SWAP2 SWAP1 PUSH1 0x6 DUP2 SWAP1 SIGNEXTEND SWAP1 PUSH1 0x1 PUSH1 0x38 SHL DUP2 DIV PUSH1 0x1 PUSH1 0x1 PUSH1 0xA0 SHL SUB AND SWAP1 PUSH1 0x1 PUSH1 0xD8 SHL DUP2 DIV PUSH4 0xFFFFFFFF AND SWAP1 PUSH1 0x1 PUSH1 0xF8 SHL SWAP1 DIV PUSH1 0xFF AND DUP8 JUMP JUMPDEST PUSH1 0x40 DUP1 MLOAD PUSH1 0x1 PUSH1 0x1 PUSH1 0x80 SHL SUB SWAP1 SWAP9 AND DUP9 MSTORE PUSH1 0xF SWAP7 SWAP1 SWAP7 SIGNEXTEND PUSH1 0x20 DUP9 ADD MSTORE SWAP5 DUP7 ADD SWAP4 SWAP1 SWAP4 MSTORE PUSH1 0x6 SWAP2 SWAP1 SWAP2 SIGNEXTEND PUSH1 0x60 DUP6 ADD MSTORE PUSH1 0x1 PUSH1 0x1 PUSH1 0xA0 SHL SUB AND PUSH1 0x80 DUP5 ADD MSTORE PUSH4 0xFFFFFFFF AND PUSH1 0xA0 DUP4 ADD MSTORE ISZERO ISZERO PUSH1 0xC0 DUP3 ADD MSTORE PUSH1 0xE0 ADD PUSH2 0x21E JUMP JUMPDEST PUSH2 0x413 PUSH2 0x40E CALLDATASIZE PUSH1 0x4 PUSH2 0x57CC JUMP JUMPDEST PUSH2 0xBAD JUMP JUMPDEST PUSH1 0x40 DUP1 MLOAD SWAP3 DUP4 MSTORE PUSH1 0x20 DUP4 ADD SWAP2 SWAP1 SWAP2 MSTORE ADD PUSH2 0x21E JUMP JUMPDEST PUSH2 0x2D5 PUSH2 0xDEA JUMP JUMPDEST PUSH2 0x475 PUSH2 0x43E CALLDATASIZE PUSH1 0x4 PUSH2 0x56D7 JUMP JUMPDEST PUSH1 0x9 PUSH1 0x20 MSTORE PUSH1 0x0 SWAP1 DUP2 MSTORE PUSH1 0x40 SWAP1 KECCAK256 DUP1 SLOAD PUSH1 0x1 DUP3 ADD SLOAD PUSH1 0x2 SWAP1 SWAP3 ADD SLOAD PUSH1 0x1 PUSH1 0x1 PUSH1 0x80 SHL SUB SWAP2 DUP3 AND SWAP3 SWAP2 DUP2 DUP2 AND SWAP2 PUSH1 0x1 PUSH1 0x80 SHL SWAP1 DIV AND DUP5 JUMP JUMPDEST PUSH1 0x40 DUP1 MLOAD PUSH1 0x1 PUSH1 0x1 PUSH1 0x80 SHL SUB SWAP6 DUP7 AND DUP2 MSTORE PUSH1 0x20 DUP2 ADD SWAP5 SWAP1 SWAP5 MSTORE SWAP2 DUP5 AND SWAP2 DUP4 ADD SWAP2 SWAP1 SWAP2 MSTORE SWAP1 SWAP2 AND PUSH1 0x60 DUP3 ADD MSTORE PUSH1 0x80 ADD PUSH2 0x21E JUMP JUMPDEST PUSH2 0x4CF PUSH32 0x0 DUP2 JUMP JUMPDEST PUSH1 0x40 MLOAD PUSH3 0xFFFFFF SWAP1 SWAP2 AND DUP2 MSTORE PUSH1 0x20 ADD PUSH2 0x21E JUMP JUMPDEST PUSH1 0x6 SLOAD PUSH2 0x28C SWAP1 PUSH1 0x1 PUSH1 0x1 PUSH1 0x80 SHL SUB AND DUP2 JUMP JUMPDEST PUSH2 0x2D5 PUSH2 0xE89 JUMP JUMPDEST PUSH1 0x2 SLOAD PUSH2 0x512 SWAP1 PUSH1 0x1 PUSH1 0xA0 SHL SWAP1 DIV PUSH1 0xFF AND DUP2 JUMP JUMPDEST PUSH1 0x40 MLOAD PUSH1 0xFF SWAP1 SWAP2 AND DUP2 MSTORE PUSH1 0x20 ADD PUSH2 0x21E JUMP JUMPDEST PUSH2 0x2D5 PUSH2 0x532 CALLDATASIZE PUSH1 0x4 PUSH2 0x5865 JUMP JUMPDEST PUSH2 0xEAF JUMP JUMPDEST PUSH2 0x24E PUSH32 0x0 DUP2 JUMP JUMPDEST PUSH2 0x571 PUSH2 0x56C CALLDATASIZE PUSH1 0x4 PUSH2 0x58CA JUMP JUMPDEST PUSH2 0x108C JUMP JUMPDEST PUSH1 0x40 MLOAD PUSH2 0x21E SWAP3 SWAP2 SWAP1 PUSH2 0x593F JUMP JUMPDEST PUSH2 0x214 PUSH2 0x58D CALLDATASIZE PUSH1 0x4 PUSH2 0x59C6 JUMP JUMPDEST PUSH1 0x8 PUSH1 0x20 MSTORE PUSH1 0x0 SWAP1 DUP2 MSTORE PUSH1 0x40 SWAP1 KECCAK256 SLOAD DUP2 JUMP JUMPDEST PUSH1 0x4 SLOAD PUSH2 0x5EA SWAP1 PUSH1 0x1 PUSH1 0x1 PUSH1 0xA0 SHL SUB DUP2 AND SWAP1 PUSH1 0x1 PUSH1 0xA0 SHL DUP2 DIV PUSH1 0x2 SIGNEXTEND SWAP1 PUSH2 0xFFFF PUSH1 0x1 PUSH1 0xB8 SHL DUP3 DIV DUP2 AND SWAP2 PUSH1 0x1 PUSH1 0xC8 SHL DUP2 DIV DUP3 AND SWAP2 PUSH1 0x1 PUSH1 0xD8 SHL DUP3 DIV AND SWAP1 PUSH1 0xFF PUSH1 0x1 PUSH1 0xE8 SHL SWAP1 SWAP2 DIV AND DUP7 JUMP JUMPDEST PUSH1 0x40 DUP1 MLOAD PUSH1 0x1 PUSH1 0x1 PUSH1 0xA0 SHL SUB SWAP1 SWAP8 AND DUP8 MSTORE PUSH1 0x2 SWAP6 SWAP1 SWAP6 SIGNEXTEND PUSH1 0x20 DUP8 ADD MSTORE PUSH2 0xFFFF SWAP4 DUP5 AND SWAP5 DUP7 ADD SWAP5 SWAP1 SWAP5 MSTORE SWAP1 DUP3 AND PUSH1 0x60 DUP6 ADD MSTORE AND PUSH1 0x80 DUP4 ADD MSTORE ISZERO ISZERO PUSH1 0xA0 DUP3 ADD MSTORE PUSH1 0xC0 ADD PUSH2 0x21E JUMP JUMPDEST PUSH2 0x2D5 PUSH2 0x63E CALLDATASIZE PUSH1 0x4 PUSH2 0x59E9 JUMP JUMPDEST PUSH2 0x1116 JUMP JUMPDEST PUSH1 0x0 SLOAD PUSH2 0x28C SWAP1 PUSH1 0x1 PUSH1 0x1 PUSH1 0x80 SHL SUB AND DUP2 JUMP JUMPDEST PUSH2 0x2D5 PUSH2 0x1818 JUMP JUMPDEST PUSH2 0x685 PUSH32 0x0 DUP2 JUMP JUMPDEST PUSH1 0x40 MLOAD PUSH1 0x2 SWAP2 SWAP1 SWAP2 SIGNEXTEND DUP2 MSTORE PUSH1 0x20 ADD PUSH2 0x21E JUMP JUMPDEST PUSH1 0x2 SLOAD PUSH2 0x6AC SWAP1 PUSH1 0x1 PUSH1 0xB0 SHL SWAP1 DIV PUSH1 0xFF AND DUP2 JUMP JUMPDEST PUSH1 0x40 MLOAD SWAP1 ISZERO ISZERO DUP2 MSTORE PUSH1 0x20 ADD PUSH2 0x21E JUMP JUMPDEST PUSH2 0x413 PUSH2 0x6CA CALLDATASIZE PUSH1 0x4 PUSH2 0x5A47 JUMP JUMPDEST PUSH2 0x1844 JUMP JUMPDEST PUSH2 0x6E2 PUSH2 0x6DD CALLDATASIZE PUSH1 0x4 PUSH2 0x5A8A JUMP JUMPDEST PUSH2 0x19C7 JUMP JUMPDEST PUSH1 0x40 DUP1 MLOAD PUSH1 0x6 SWAP5 SWAP1 SWAP5 SIGNEXTEND DUP5 MSTORE PUSH1 0x1 PUSH1 0x1 PUSH1 0xA0 SHL SUB SWAP1 SWAP3 AND PUSH1 0x20 DUP5 ADD MSTORE PUSH4 0xFFFFFFFF AND SWAP1 DUP3 ADD MSTORE PUSH1 0x60 ADD PUSH2 0x21E JUMP JUMPDEST PUSH2 0x413 PUSH2 0x71E CALLDATASIZE PUSH1 0x4 PUSH2 0x5ACB JUMP JUMPDEST PUSH2 0x1BF3 JUMP JUMPDEST PUSH1 0x1 SLOAD PUSH2 0x757 SWAP1 PUSH1 0xFF DUP1 DUP3 AND SWAP2 PUSH2 0x100 DUP2 DIV DUP3 AND SWAP2 PUSH3 0x10000 DUP3 DIV DUP2 AND SWAP2 PUSH4 0x1000000 DUP2 DIV DUP3 AND SWAP2 PUSH1 0x1 PUSH1 0x20 SHL SWAP1 SWAP2 DIV AND DUP6 JUMP JUMPDEST PUSH1 0x40 DUP1 MLOAD PUSH1 0xFF SWAP7 DUP8 AND DUP2 MSTORE SWAP5 DUP7 AND PUSH1 0x20 DUP7 ADD MSTORE SWAP3 DUP6 AND SWAP3 DUP5 ADD SWAP3 SWAP1 SWAP3 MSTORE DUP4 AND PUSH1 0x60 DUP4 ADD MSTORE SWAP1 SWAP2 AND PUSH1 0x80 DUP3 ADD MSTORE PUSH1 0xA0 ADD PUSH2 0x21E JUMP JUMPDEST PUSH1 0x2 SLOAD PUSH2 0x6AC SWAP1 PUSH1 0x1 PUSH1 0xA8 SHL SWAP1 DIV PUSH1 0xFF AND DUP2 JUMP JUMPDEST PUSH2 0x2D5 PUSH2 0x7AD CALLDATASIZE PUSH1 0x4 PUSH2 0x5B63 JUMP JUMPDEST PUSH2 0x274F JUMP JUMPDEST PUSH2 0x24E PUSH32 0x0 DUP2 JUMP JUMPDEST PUSH2 0x2D5 PUSH2 0x7E7 CALLDATASIZE PUSH1 0x4 PUSH2 0x56BA JUMP JUMPDEST PUSH2 0x282C JUMP JUMPDEST PUSH1 0x4 SLOAD PUSH1 0x0 SWAP1 PUSH1 0x1 PUSH1 0xE8 SHL SWAP1 DIV PUSH1 0xFF AND PUSH2 0x821 JUMPI PUSH1 0x40 MLOAD PUSH3 0x461BCD PUSH1 0xE5 SHL DUP2 MSTORE PUSH1 0x4 ADD PUSH2 0x818 SWAP1 PUSH2 0x5B87 JUMP JUMPDEST PUSH1 0x40 MLOAD DUP1 SWAP2 SUB SWAP1 REVERT JUMPDEST POP PUSH1 0x4 DUP1 SLOAD PUSH1 0xFF PUSH1 0xE8 SHL NOT AND SWAP1 SSTORE PUSH1 0x1 PUSH1 0x1 PUSH1 0xA0 SHL SUB DUP2 AND PUSH1 0x0 SWAP1 DUP2 MSTORE PUSH1 0x3 PUSH1 0x20 MSTORE PUSH1 0x40 SWAP1 KECCAK256 SLOAD PUSH1 0x1 PUSH1 0x1 PUSH1 0x80 SHL SUB AND DUP1 ISZERO PUSH2 0x8F0 JUMPI PUSH2 0x862 PUSH1 0x1 DUP3 PUSH2 0x5BBA JUMP JUMPDEST PUSH1 0x1 PUSH1 0x1 PUSH1 0xA0 SHL SUB DUP4 AND PUSH1 0x0 SWAP1 DUP2 MSTORE PUSH1 0x3 PUSH1 0x20 MSTORE PUSH1 0x40 DUP2 KECCAK256 DUP1 SLOAD SWAP3 SWAP4 POP DUP4 SWAP3 SWAP1 SWAP2 SWAP1 PUSH2 0x898 SWAP1 DUP5 SWAP1 PUSH1 0x1 PUSH1 0x1 PUSH1 0x80 SHL SUB AND PUSH2 0x5BBA JUMP JUMPDEST SWAP3 POP PUSH2 0x100 EXP DUP2 SLOAD DUP2 PUSH1 0x1 PUSH1 0x1 PUSH1 0x80 SHL SUB MUL NOT AND SWAP1 DUP4 PUSH1 0x1 PUSH1 0x1 PUSH1 0x80 SHL SUB AND MUL OR SWAP1 SSTORE POP PUSH2 0x8F0 PUSH32 0x0 DUP4 DUP4 PUSH1 0x1 PUSH1 0x1 PUSH1 0x80 SHL SUB AND PUSH2 0x29EA JUMP JUMPDEST PUSH1 0x40 MLOAD PUSH1 0x1 PUSH1 0x1 PUSH1 0x80 SHL SUB DUP3 AND DUP2 MSTORE PUSH1 0x1 PUSH1 0x1 PUSH1 0xA0 SHL SUB DUP4 AND SWAP1 PUSH32 0xDD51A73392A50FA90B665D88F3D4999F5B2A967233C06AA2038DC8C109B1F1C6 SWAP1 PUSH1 0x20 ADD PUSH1 0x40 MLOAD DUP1 SWAP2 SUB SWAP1 LOG2 PUSH1 0x4 DUP1 SLOAD PUSH1 0xFF PUSH1 0xE8 SHL NOT AND PUSH1 0x1 PUSH1 0xE8 SHL OR SWAP1 SSTORE SWAP2 SWAP1 POP JUMP JUMPDEST PUSH32 0x0 PUSH1 0x1 PUSH1 0x1 PUSH1 0xA0 SHL SUB AND PUSH4 0xAD87D2BA PUSH1 0x40 MLOAD DUP2 PUSH4 0xFFFFFFFF AND PUSH1 0xE0 SHL DUP2 MSTORE PUSH1 0x4 ADD PUSH1 0x20 PUSH1 0x40 MLOAD DUP1 DUP4 SUB DUP2 DUP7 GAS STATICCALL ISZERO DUP1 ISZERO PUSH2 0x9AD JUMPI RETURNDATASIZE PUSH1 0x0 DUP1 RETURNDATACOPY RETURNDATASIZE PUSH1 0x0 REVERT JUMPDEST POP POP POP POP PUSH1 0x40 MLOAD RETURNDATASIZE PUSH1 0x1F NOT PUSH1 0x1F DUP3 ADD AND DUP3 ADD DUP1 PUSH1 0x40 MSTORE POP DUP2 ADD SWAP1 PUSH2 0x9D1 SWAP2 SWAP1 PUSH2 0x5BE1 JUMP JUMPDEST ISZERO ISZERO PUSH1 0x1 EQ PUSH2 0x9DF JUMPI PUSH1 0x0 DUP1 REVERT JUMPDEST PUSH1 0x2 DUP1 SLOAD PUSH1 0xFF PUSH1 0xA8 SHL NOT AND PUSH1 0x1 PUSH1 0xA8 SHL OR SWAP1 SSTORE JUMP JUMPDEST PUSH1 0xA DUP2 PUSH2 0xFFFF DUP2 LT PUSH2 0xA05 JUMPI PUSH1 0x0 DUP1 REVERT JUMPDEST ADD SLOAD PUSH4 0xFFFFFFFF DUP2 AND SWAP2 POP PUSH1 0x1 PUSH1 0x20 SHL DUP2 DIV PUSH1 0x6 SIGNEXTEND SWAP1 PUSH1 0x1 PUSH1 0x58 SHL DUP2 DIV PUSH1 0x1 PUSH1 0x1 PUSH1 0xA0 SHL SUB AND SWAP1 PUSH1 0x1 PUSH1 0xF8 SHL SWAP1 DIV PUSH1 0xFF AND DUP5 JUMP JUMPDEST PUSH1 0x4 SLOAD PUSH1 0x0 SWAP1 PUSH1 0x1 PUSH1 0xE8 SHL SWAP1 DIV PUSH1 0xFF AND PUSH2 0xA65 JUMPI PUSH1 0x40 MLOAD PUSH3 0x461BCD PUSH1 0xE5 SHL DUP2 MSTORE PUSH1 0x4 ADD PUSH2 0x818 SWAP1 PUSH2 0x5B87 JUMP JUMPDEST PUSH1 0x4 DUP1 SLOAD PUSH1 0xFF PUSH1 0xE8 SHL NOT AND SWAP1 SSTORE PUSH1 0x0 PUSH2 0xA81 PUSH1 0x9 CALLER DUP8 DUP8 PUSH2 0x2AEA JUMP JUMPDEST PUSH1 0x2 DUP2 ADD SLOAD SWAP1 SWAP2 POP PUSH1 0x1 PUSH1 0x1 PUSH1 0x80 SHL SUB SWAP1 DUP2 AND SWAP1 DUP5 AND GT PUSH2 0xAA2 JUMPI DUP3 PUSH2 0xAB1 JUMP JUMPDEST PUSH1 0x2 DUP2 ADD SLOAD PUSH1 0x1 PUSH1 0x1 PUSH1 0x80 SHL SUB AND JUMPDEST SWAP2 POP PUSH1 0x1 PUSH1 0x1 PUSH1 0x80 SHL SUB DUP3 AND ISZERO PUSH2 0xB3A JUMPI PUSH1 0x2 DUP2 ADD DUP1 SLOAD DUP4 SWAP2 SWAP1 PUSH1 0x0 SWAP1 PUSH2 0xAE2 SWAP1 DUP5 SWAP1 PUSH1 0x1 PUSH1 0x1 PUSH1 0x80 SHL SUB AND PUSH2 0x5BBA JUMP JUMPDEST SWAP3 POP PUSH2 0x100 EXP DUP2 SLOAD DUP2 PUSH1 0x1 PUSH1 0x1 PUSH1 0x80 SHL SUB MUL NOT AND SWAP1 DUP4 PUSH1 0x1 PUSH1 0x1 PUSH1 0x80 SHL SUB AND MUL OR SWAP1 SSTORE POP PUSH2 0xB3A PUSH32 0x0 DUP8 DUP5 PUSH1 0x1 PUSH1 0x1 PUSH1 0x80 SHL SUB AND PUSH2 0x29EA JUMP JUMPDEST PUSH1 0x40 DUP1 MLOAD PUSH1 0x1 PUSH1 0x1 PUSH1 0xA0 SHL SUB DUP9 AND DUP2 MSTORE PUSH1 0x1 PUSH1 0x1 PUSH1 0x80 SHL SUB DUP5 AND PUSH1 0x20 DUP3 ADD MSTORE PUSH1 0x2 DUP7 DUP2 SIGNEXTEND SWAP3 SWAP1 DUP9 SWAP1 SIGNEXTEND SWAP2 CALLER SWAP2 PUSH32 0xA19C7A8ED44ABD7383CF211A618FB3A575AD3512C4DAA705626F46A285AAA6C6 SWAP2 ADD PUSH1 0x40 MLOAD DUP1 SWAP2 SUB SWAP1 LOG4 POP PUSH1 0x4 DUP1 SLOAD PUSH1 0xFF PUSH1 0xE8 SHL NOT AND PUSH1 0x1 PUSH1 0xE8 SHL OR SWAP1 SSTORE SWAP5 SWAP4 POP POP POP POP JUMP JUMPDEST PUSH1 0x4 SLOAD PUSH1 0x0 SWAP1 DUP2 SWAP1 PUSH1 0x1 PUSH1 0xE8 SHL SWAP1 DIV PUSH1 0xFF AND PUSH2 0xBDB JUMPI PUSH1 0x40 MLOAD PUSH3 0x461BCD PUSH1 0xE5 SHL DUP2 MSTORE PUSH1 0x4 ADD PUSH2 0x818 SWAP1 PUSH2 0x5B87 JUMP JUMPDEST PUSH1 0x4 DUP1 SLOAD PUSH1 0xFF PUSH1 0xE8 SHL NOT AND SWAP1 SSTORE PUSH1 0x1 PUSH1 0x1 PUSH1 0x80 SHL SUB DUP6 AND PUSH2 0xBFB JUMPI PUSH1 0x0 DUP1 REVERT JUMPDEST PUSH1 0x0 DUP1 PUSH2 0xC39 PUSH1 0x40 MLOAD DUP1 PUSH1 0x80 ADD PUSH1 0x40 MSTORE DUP1 DUP13 PUSH1 0x1 PUSH1 0x1 PUSH1 0xA0 SHL SUB AND DUP2 MSTORE PUSH1 0x20 ADD DUP12 PUSH1 0x2 SIGNEXTEND DUP2 MSTORE PUSH1 0x20 ADD DUP11 PUSH1 0x2 SIGNEXTEND DUP2 MSTORE PUSH1 0x20 ADD DUP10 PUSH1 0xF SIGNEXTEND DUP2 MSTORE POP PUSH2 0x2B47 JUMP JUMPDEST SWAP3 POP SWAP3 POP POP DUP2 SWAP4 POP DUP1 SWAP3 POP PUSH1 0x0 DUP1 PUSH1 0x0 DUP7 GT ISZERO PUSH2 0xC5B JUMPI PUSH2 0xC58 PUSH2 0x2D6D JUMP JUMPDEST SWAP2 POP JUMPDEST DUP5 ISZERO PUSH2 0xC6C JUMPI PUSH2 0xC69 PUSH2 0x2E6B JUMP JUMPDEST SWAP1 POP JUMPDEST PUSH1 0x40 MLOAD PUSH4 0xCDE7E57 PUSH1 0xE1 SHL DUP2 MSTORE CALLER SWAP1 PUSH4 0x19BCFCAE SWAP1 PUSH2 0xC95 SWAP1 DUP10 SWAP1 DUP10 SWAP1 DUP14 SWAP1 DUP14 SWAP1 PUSH1 0x4 ADD PUSH2 0x5C27 JUMP JUMPDEST PUSH1 0x0 PUSH1 0x40 MLOAD DUP1 DUP4 SUB DUP2 PUSH1 0x0 DUP8 DUP1 EXTCODESIZE ISZERO DUP1 ISZERO PUSH2 0xCAF JUMPI PUSH1 0x0 DUP1 REVERT JUMPDEST POP GAS CALL ISZERO DUP1 ISZERO PUSH2 0xCC3 JUMPI RETURNDATASIZE PUSH1 0x0 DUP1 RETURNDATACOPY RETURNDATASIZE PUSH1 0x0 REVERT JUMPDEST POP POP POP POP PUSH1 0x0 DUP7 GT ISZERO PUSH2 0xD15 JUMPI PUSH2 0xCD8 PUSH2 0x2D6D JUMP JUMPDEST PUSH2 0xCE2 DUP4 DUP9 PUSH2 0x2EB7 JUMP JUMPDEST GT ISZERO PUSH2 0xD15 JUMPI PUSH1 0x40 MLOAD PUSH3 0x461BCD PUSH1 0xE5 SHL DUP2 MSTORE PUSH1 0x20 PUSH1 0x4 DUP3 ADD MSTORE PUSH1 0x2 PUSH1 0x24 DUP3 ADD MSTORE PUSH2 0x4D3 PUSH1 0xF4 SHL PUSH1 0x44 DUP3 ADD MSTORE PUSH1 0x64 ADD PUSH2 0x818 JUMP JUMPDEST DUP5 ISZERO PUSH2 0xD60 JUMPI PUSH2 0xD23 PUSH2 0x2E6B JUMP JUMPDEST PUSH2 0xD2D DUP3 DUP8 PUSH2 0x2EB7 JUMP JUMPDEST GT ISZERO PUSH2 0xD60 JUMPI PUSH1 0x40 MLOAD PUSH3 0x461BCD PUSH1 0xE5 SHL DUP2 MSTORE PUSH1 0x20 PUSH1 0x4 DUP3 ADD MSTORE PUSH1 0x2 PUSH1 0x24 DUP3 ADD MSTORE PUSH2 0x4D31 PUSH1 0xF0 SHL PUSH1 0x44 DUP3 ADD MSTORE PUSH1 0x64 ADD PUSH2 0x818 JUMP JUMPDEST PUSH1 0x40 DUP1 MLOAD CALLER DUP2 MSTORE PUSH1 0x1 PUSH1 0x1 PUSH1 0x80 SHL SUB DUP12 AND PUSH1 0x20 DUP3 ADD MSTORE SWAP1 DUP2 ADD DUP8 SWAP1 MSTORE PUSH1 0x60 DUP2 ADD DUP7 SWAP1 MSTORE PUSH1 0x2 DUP12 DUP2 SIGNEXTEND SWAP2 SWAP1 DUP14 SWAP1 SIGNEXTEND SWAP1 PUSH1 0x1 PUSH1 0x1 PUSH1 0xA0 SHL SUB DUP16 AND SWAP1 PUSH32 0x7A53080BA414158BE7EC69B987B5FB7D07DEE101FE85488F0853AE16239D0BDE SWAP1 PUSH1 0x80 ADD PUSH1 0x40 MLOAD DUP1 SWAP2 SUB SWAP1 LOG4 POP POP PUSH1 0x4 DUP1 SLOAD PUSH1 0xFF PUSH1 0xE8 SHL NOT AND PUSH1 0x1 PUSH1 0xE8 SHL OR SWAP1 SSTORE POP SWAP2 SWAP9 SWAP1 SWAP8 POP SWAP6 POP POP POP POP POP POP JUMP JUMPDEST PUSH32 0x0 PUSH1 0x1 PUSH1 0x1 PUSH1 0xA0 SHL SUB AND PUSH4 0xAD87D2BA PUSH1 0x40 MLOAD DUP2 PUSH4 0xFFFFFFFF AND PUSH1 0xE0 SHL DUP2 MSTORE PUSH1 0x4 ADD PUSH1 0x20 PUSH1 0x40 MLOAD DUP1 DUP4 SUB DUP2 DUP7 GAS STATICCALL ISZERO DUP1 ISZERO PUSH2 0xE48 JUMPI RETURNDATASIZE PUSH1 0x0 DUP1 RETURNDATACOPY RETURNDATASIZE PUSH1 0x0 REVERT JUMPDEST POP POP POP POP PUSH1 0x40 MLOAD RETURNDATASIZE PUSH1 0x1F NOT PUSH1 0x1F DUP3 ADD AND DUP3 ADD DUP1 PUSH1 0x40 MSTORE POP DUP2 ADD SWAP1 PUSH2 0xE6C SWAP2 SWAP1 PUSH2 0x5BE1 JUMP JUMPDEST ISZERO ISZERO PUSH1 0x1 EQ PUSH2 0xE7A JUMPI PUSH1 0x0 DUP1 REVERT JUMPDEST PUSH1 0x2 DUP1 SLOAD PUSH1 0xFF PUSH1 0xA8 SHL NOT AND SWAP1 SSTORE JUMP JUMPDEST PUSH1 0x2 SLOAD PUSH1 0x1 PUSH1 0x1 PUSH1 0xA0 SHL SUB AND CALLER EQ PUSH2 0xEA0 JUMPI PUSH1 0x0 DUP1 REVERT JUMPDEST PUSH1 0x2 DUP1 SLOAD PUSH1 0xFF PUSH1 0xB0 SHL NOT AND SWAP1 SSTORE JUMP JUMPDEST PUSH1 0x4 SLOAD PUSH1 0x1 PUSH1 0xE8 SHL SWAP1 DIV PUSH1 0xFF AND PUSH2 0xED8 JUMPI PUSH1 0x40 MLOAD PUSH3 0x461BCD PUSH1 0xE5 SHL DUP2 MSTORE PUSH1 0x4 ADD PUSH2 0x818 SWAP1 PUSH2 0x5B87 JUMP JUMPDEST PUSH1 0x4 DUP1 SLOAD PUSH1 0xFF PUSH1 0xE8 SHL NOT AND DUP2 SSTORE PUSH1 0x40 DUP1 MLOAD PUSH4 0x56C3E95D PUSH1 0xE1 SHL DUP2 MSTORE SWAP1 MLOAD PUSH1 0x1 PUSH1 0x1 PUSH1 0xA0 SHL SUB PUSH32 0x0 AND SWAP3 PUSH4 0xAD87D2BA SWAP3 DUP1 DUP3 ADD SWAP3 PUSH1 0x20 SWAP3 SWAP1 SWAP2 DUP3 SWAP1 SUB ADD DUP2 DUP7 GAS STATICCALL ISZERO DUP1 ISZERO PUSH2 0xF48 JUMPI RETURNDATASIZE PUSH1 0x0 DUP1 RETURNDATACOPY RETURNDATASIZE PUSH1 0x0 REVERT JUMPDEST POP POP POP POP PUSH1 0x40 MLOAD RETURNDATASIZE PUSH1 0x1F NOT PUSH1 0x1F DUP3 ADD AND DUP3 ADD DUP1 PUSH1 0x40 MSTORE POP DUP2 ADD SWAP1 PUSH2 0xF6C SWAP2 SWAP1 PUSH2 0x5BE1 JUMP JUMPDEST ISZERO ISZERO PUSH1 0x1 EQ PUSH2 0xF7A JUMPI PUSH1 0x0 DUP1 REVERT JUMPDEST DUP1 DUP3 PUSH2 0xF86 DUP6 DUP8 PUSH2 0x5C51 JUMP JUMPDEST PUSH2 0xF90 SWAP2 SWAP1 PUSH2 0x5C51 JUMP JUMPDEST PUSH2 0xF9A SWAP2 SWAP1 PUSH2 0x5C51 JUMP JUMPDEST PUSH1 0xFF AND PUSH1 0x64 EQ PUSH2 0xFEC JUMPI PUSH1 0x40 MLOAD PUSH3 0x461BCD PUSH1 0xE5 SHL DUP2 MSTORE PUSH1 0x20 PUSH1 0x4 DUP3 ADD MSTORE PUSH1 0x18 PUSH1 0x24 DUP3 ADD MSTORE PUSH32 0x70726F666974736861726520636F6E666967206572726F720000000000000000 PUSH1 0x44 DUP3 ADD MSTORE PUSH1 0x64 ADD PUSH2 0x818 JUMP JUMPDEST PUSH1 0x40 DUP1 MLOAD PUSH1 0xA0 DUP2 ADD DUP3 MSTORE PUSH1 0xFF SWAP7 DUP8 AND DUP1 DUP3 MSTORE SWAP6 DUP8 AND PUSH1 0x20 DUP3 ADD DUP2 SWAP1 MSTORE SWAP5 DUP8 AND SWAP2 DUP2 ADD DUP3 SWAP1 MSTORE SWAP3 DUP7 AND PUSH1 0x60 DUP5 ADD DUP2 SWAP1 MSTORE SWAP2 SWAP1 SWAP6 AND PUSH1 0x80 SWAP1 SWAP3 ADD DUP3 SWAP1 MSTORE PUSH1 0x1 DUP1 SLOAD PUSH2 0xFFFF NOT AND SWAP1 SWAP5 OR PUSH2 0x100 SWAP1 SWAP4 MUL SWAP3 SWAP1 SWAP3 OR PUSH4 0xFFFF0000 NOT AND PUSH3 0x10000 SWAP1 SWAP5 MUL PUSH4 0xFF000000 NOT AND SWAP4 SWAP1 SWAP4 OR PUSH4 0x1000000 SWAP1 SWAP2 MUL OR PUSH5 0xFF00000000 NOT AND PUSH1 0x1 PUSH1 0x20 SHL SWAP1 SWAP3 MUL SWAP2 SWAP1 SWAP2 OR SWAP1 SSTORE PUSH1 0x4 DUP1 SLOAD PUSH1 0x1 PUSH1 0xE8 SHL PUSH1 0xFF PUSH1 0xE8 SHL NOT SWAP1 SWAP2 AND OR SWAP1 SSTORE JUMP JUMPDEST PUSH1 0x60 DUP1 PUSH2 0x1097 PUSH2 0x2ED8 JUMP JUMPDEST PUSH2 0x110A TIMESTAMP DUP6 DUP6 DUP1 DUP1 PUSH1 0x20 MUL PUSH1 0x20 ADD PUSH1 0x40 MLOAD SWAP1 DUP2 ADD PUSH1 0x40 MSTORE DUP1 SWAP4 SWAP3 SWAP2 SWAP1 DUP2 DUP2 MSTORE PUSH1 0x20 ADD DUP4 DUP4 PUSH1 0x20 MUL DUP1 DUP3 DUP5 CALLDATACOPY PUSH1 0x0 SWAP3 ADD SWAP2 SWAP1 SWAP2 MSTORE POP POP PUSH1 0x4 SLOAD PUSH1 0x6 SLOAD PUSH1 0xA SWAP6 SWAP5 SWAP4 POP PUSH1 0x1 PUSH1 0xA0 SHL DUP3 DIV PUSH1 0x2 SIGNEXTEND SWAP3 POP PUSH2 0xFFFF PUSH1 0x1 PUSH1 0xB8 SHL DUP4 DIV DUP2 AND SWAP3 PUSH1 0x1 PUSH1 0x1 PUSH1 0x80 SHL SUB SWAP1 SWAP3 AND SWAP2 PUSH1 0x1 PUSH1 0xC8 SHL SWAP1 DIV AND PUSH2 0x2F0F JUMP JUMPDEST SWAP2 POP SWAP2 POP JUMPDEST SWAP3 POP SWAP3 SWAP1 POP JUMP JUMPDEST PUSH1 0x4 SLOAD PUSH1 0x1 PUSH1 0xE8 SHL SWAP1 DIV PUSH1 0xFF AND PUSH2 0x113F JUMPI PUSH1 0x40 MLOAD PUSH3 0x461BCD PUSH1 0xE5 SHL DUP2 MSTORE PUSH1 0x4 ADD PUSH2 0x818 SWAP1 PUSH2 0x5B87 JUMP JUMPDEST PUSH1 0x4 DUP1 SLOAD PUSH1 0xFF PUSH1 0xE8 SHL NOT AND SWAP1 SSTORE PUSH2 0x1154 PUSH2 0x2ED8 JUMP JUMPDEST PUSH1 0x40 DUP1 MLOAD PUSH1 0xA0 DUP2 ADD DUP3 MSTORE PUSH1 0x1 PUSH1 0x1 PUSH1 0xA0 SHL SUB DUP1 DUP10 AND DUP3 MSTORE DUP8 AND PUSH1 0x20 DUP3 ADD MSTORE SWAP1 DUP2 ADD DUP6 SWAP1 MSTORE PUSH1 0x60 DUP2 ADD DUP5 SWAP1 MSTORE PUSH1 0x6 SLOAD PUSH1 0x1 PUSH1 0x1 PUSH1 0x80 SHL SUB AND PUSH1 0x80 DUP3 ADD DUP2 SWAP1 MSTORE DUP1 PUSH2 0x11C3 JUMPI PUSH1 0x40 MLOAD PUSH3 0x461BCD PUSH1 0xE5 SHL DUP2 MSTORE PUSH1 0x20 PUSH1 0x4 DUP3 ADD MSTORE PUSH1 0x1 PUSH1 0x24 DUP3 ADD MSTORE PUSH1 0x13 PUSH1 0xFA SHL PUSH1 0x44 DUP3 ADD MSTORE PUSH1 0x64 ADD PUSH2 0x818 JUMP JUMPDEST DUP2 MLOAD PUSH1 0x40 MLOAD PUSH4 0xE71957B9 PUSH1 0xE0 SHL DUP2 MSTORE PUSH1 0x1 PUSH1 0x1 PUSH1 0xA0 SHL SUB SWAP2 DUP3 AND PUSH1 0x4 DUP3 ADD MSTORE PUSH1 0x0 SWAP2 PUSH32 0x0 AND SWAP1 PUSH4 0xE71957B9 SWAP1 PUSH1 0x24 ADD PUSH1 0x20 PUSH1 0x40 MLOAD DUP1 DUP4 SUB DUP2 DUP7 GAS STATICCALL ISZERO DUP1 ISZERO PUSH2 0x122E JUMPI RETURNDATASIZE PUSH1 0x0 DUP1 RETURNDATACOPY RETURNDATASIZE PUSH1 0x0 REVERT JUMPDEST POP POP POP POP PUSH1 0x40 MLOAD RETURNDATASIZE PUSH1 0x1F NOT PUSH1 0x1F DUP3 ADD AND DUP3 ADD DUP1 PUSH1 0x40 MSTORE POP DUP2 ADD SWAP1 PUSH2 0x1252 SWAP2 SWAP1 PUSH2 0x5C6A JUMP JUMPDEST SWAP1 POP PUSH1 0x0 PUSH2 0x128D DUP5 PUSH1 0x40 ADD MLOAD PUSH32 0x0 PUSH3 0xFFFFFF AND PUSH3 0xF4240 PUSH2 0x307E JUMP JUMPDEST SWAP1 POP PUSH1 0x0 PUSH2 0x12C8 DUP6 PUSH1 0x60 ADD MLOAD PUSH32 0x0 PUSH3 0xFFFFFF AND PUSH3 0xF4240 PUSH2 0x307E JUMP JUMPDEST SWAP1 POP PUSH1 0x0 PUSH2 0x12D4 PUSH2 0x2D6D JUMP JUMPDEST SWAP1 POP PUSH1 0x0 PUSH2 0x12E0 PUSH2 0x2E6B JUMP JUMPDEST SWAP1 POP DUP11 ISZERO PUSH2 0x131B JUMPI PUSH2 0x131B PUSH32 0x0 DUP9 PUSH1 0x0 ADD MLOAD DUP10 PUSH1 0x40 ADD MLOAD PUSH2 0x29EA JUMP JUMPDEST DUP10 ISZERO PUSH2 0x1354 JUMPI PUSH2 0x1354 PUSH32 0x0 DUP9 PUSH1 0x0 ADD MLOAD DUP10 PUSH1 0x60 ADD MLOAD PUSH2 0x29EA JUMP JUMPDEST PUSH1 0x40 MLOAD PUSH4 0xCDE1989 PUSH1 0xE3 SHL DUP2 MSTORE CALLER SWAP1 PUSH4 0x66F0CC48 SWAP1 PUSH2 0x137D SWAP1 DUP8 SWAP1 DUP8 SWAP1 DUP15 SWAP1 DUP15 SWAP1 PUSH1 0x4 ADD PUSH2 0x5C27 JUMP JUMPDEST PUSH1 0x0 PUSH1 0x40 MLOAD DUP1 DUP4 SUB DUP2 PUSH1 0x0 DUP8 DUP1 EXTCODESIZE ISZERO DUP1 ISZERO PUSH2 0x1397 JUMPI PUSH1 0x0 DUP1 REVERT JUMPDEST POP GAS CALL ISZERO DUP1 ISZERO PUSH2 0x13AB JUMPI RETURNDATASIZE PUSH1 0x0 DUP1 RETURNDATACOPY RETURNDATASIZE PUSH1 0x0 REVERT JUMPDEST POP POP POP POP PUSH1 0x0 PUSH2 0x13B9 PUSH2 0x2D6D JUMP JUMPDEST SWAP1 POP PUSH1 0x0 PUSH2 0x13C5 PUSH2 0x2E6B JUMP JUMPDEST SWAP1 POP DUP2 PUSH2 0x13D2 DUP6 DUP9 PUSH2 0x2EB7 JUMP JUMPDEST GT ISZERO PUSH2 0x1405 JUMPI PUSH1 0x40 MLOAD PUSH3 0x461BCD PUSH1 0xE5 SHL DUP2 MSTORE PUSH1 0x20 PUSH1 0x4 DUP3 ADD MSTORE PUSH1 0x2 PUSH1 0x24 DUP3 ADD MSTORE PUSH2 0x463 PUSH1 0xF4 SHL PUSH1 0x44 DUP3 ADD MSTORE PUSH1 0x64 ADD PUSH2 0x818 JUMP JUMPDEST DUP1 PUSH2 0x1410 DUP5 DUP8 PUSH2 0x2EB7 JUMP JUMPDEST GT ISZERO PUSH2 0x1443 JUMPI PUSH1 0x40 MLOAD PUSH3 0x461BCD PUSH1 0xE5 SHL DUP2 MSTORE PUSH1 0x20 PUSH1 0x4 DUP3 ADD MSTORE PUSH1 0x2 PUSH1 0x24 DUP3 ADD MSTORE PUSH2 0x4631 PUSH1 0xF0 SHL PUSH1 0x44 DUP3 ADD MSTORE PUSH1 0x64 ADD PUSH2 0x818 JUMP JUMPDEST PUSH1 0x0 PUSH2 0x144F DUP6 DUP5 PUSH2 0x5C87 JUMP JUMPDEST SWAP1 POP DUP1 ISZERO PUSH2 0x179C JUMPI PUSH1 0x20 DUP1 DUP12 ADD MLOAD PUSH1 0x1 PUSH1 0x1 PUSH1 0xA0 SHL SUB AND PUSH1 0x0 SWAP1 DUP2 MSTORE PUSH1 0x3 SWAP1 SWAP2 MSTORE PUSH1 0x40 DUP2 KECCAK256 DUP1 SLOAD DUP4 SWAP3 SWAP1 PUSH2 0x148D SWAP1 DUP5 SWAP1 PUSH1 0x1 PUSH1 0x1 PUSH1 0x80 SHL SUB AND PUSH2 0x5C9A JUMP JUMPDEST DUP3 SLOAD PUSH1 0x1 PUSH1 0x1 PUSH1 0x80 SHL SUB SWAP2 DUP3 AND PUSH2 0x100 SWAP4 DUP5 EXP SWAP1 DUP2 MUL SWAP3 MUL NOT AND OR SWAP1 SWAP2 SSTORE PUSH1 0x1 SLOAD PUSH1 0xFF SWAP2 SWAP1 DIV AND SWAP1 POP PUSH2 0x14C1 PUSH1 0x64 DUP4 PUSH2 0x5CD0 JUMP JUMPDEST PUSH2 0x14CB SWAP2 SWAP1 PUSH2 0x5CE4 JUMP JUMPDEST PUSH1 0x1 PUSH1 0x1 PUSH1 0xA0 SHL SUB PUSH32 0x0 AND PUSH1 0x0 SWAP1 DUP2 MSTORE PUSH1 0x3 PUSH1 0x20 MSTORE PUSH1 0x40 DUP2 KECCAK256 DUP1 SLOAD SWAP1 SWAP2 SWAP1 PUSH2 0x151C SWAP1 DUP5 SWAP1 PUSH1 0x1 PUSH1 0x1 PUSH1 0x80 SHL SUB AND PUSH2 0x5C9A JUMP JUMPDEST SWAP3 POP PUSH2 0x100 EXP DUP2 SLOAD DUP2 PUSH1 0x1 PUSH1 0x1 PUSH1 0x80 SHL SUB MUL NOT AND SWAP1 DUP4 PUSH1 0x1 PUSH1 0x1 PUSH1 0x80 SHL SUB AND MUL OR SWAP1 SSTORE POP PUSH1 0x0 PUSH1 0x1 PUSH1 0x1 PUSH1 0xA0 SHL SUB AND DUP9 PUSH1 0x1 PUSH1 0x1 PUSH1 0xA0 SHL SUB AND EQ PUSH2 0x1662 JUMPI PUSH1 0x1 SLOAD PUSH4 0x1000000 SWAP1 DIV PUSH1 0xFF AND PUSH2 0x1572 PUSH1 0x64 DUP4 PUSH2 0x5CD0 JUMP JUMPDEST PUSH2 0x157C SWAP2 SWAP1 PUSH2 0x5CE4 JUMP JUMPDEST PUSH1 0x1 PUSH1 0x1 PUSH1 0xA0 SHL SUB DUP10 AND PUSH1 0x0 SWAP1 DUP2 MSTORE PUSH1 0x3 PUSH1 0x20 MSTORE PUSH1 0x40 DUP2 KECCAK256 DUP1 SLOAD SWAP1 SWAP2 SWAP1 PUSH2 0x15AD SWAP1 DUP5 SWAP1 PUSH1 0x1 PUSH1 0x1 PUSH1 0x80 SHL SUB AND PUSH2 0x5C9A JUMP JUMPDEST DUP3 SLOAD PUSH1 0x1 PUSH1 0x1 PUSH1 0x80 SHL SUB SWAP2 DUP3 AND PUSH2 0x100 SWAP4 SWAP1 SWAP4 EXP SWAP3 DUP4 MUL SWAP2 SWAP1 SWAP3 MUL NOT SWAP1 SWAP2 AND OR SWAP1 SSTORE POP PUSH1 0x1 SLOAD PUSH2 0x15E8 SWAP1 PUSH1 0xFF PUSH1 0x1 PUSH1 0x20 SHL SWAP1 SWAP2 DIV AND DUP3 PUSH2 0x5CE4 JUMP JUMPDEST PUSH1 0x1 PUSH1 0x1 PUSH1 0xA0 SHL SUB PUSH32 0x0 AND PUSH1 0x0 SWAP1 DUP2 MSTORE PUSH1 0x3 PUSH1 0x20 MSTORE PUSH1 0x40 DUP2 KECCAK256 DUP1 SLOAD SWAP1 SWAP2 SWAP1 PUSH2 0x1639 SWAP1 DUP5 SWAP1 PUSH1 0x1 PUSH1 0x1 PUSH1 0x80 SHL SUB AND PUSH2 0x5C9A JUMP JUMPDEST SWAP3 POP PUSH2 0x100 EXP DUP2 SLOAD DUP2 PUSH1 0x1 PUSH1 0x1 PUSH1 0x80 SHL SUB MUL NOT AND SWAP1 DUP4 PUSH1 0x1 PUSH1 0x1 PUSH1 0x80 SHL SUB AND MUL OR SWAP1 SSTORE POP PUSH2 0x1757 JUMP JUMPDEST PUSH1 0x1 SLOAD PUSH4 0x1000000 SWAP1 DIV PUSH1 0xFF AND PUSH2 0x167A PUSH1 0x64 DUP4 PUSH2 0x5CD0 JUMP JUMPDEST PUSH2 0x1684 SWAP2 SWAP1 PUSH2 0x5CE4 JUMP JUMPDEST PUSH1 0x20 DUP1 DUP13 ADD MLOAD PUSH1 0x1 PUSH1 0x1 PUSH1 0xA0 SHL SUB AND PUSH1 0x0 SWAP1 DUP2 MSTORE PUSH1 0x3 SWAP1 SWAP2 MSTORE PUSH1 0x40 DUP2 KECCAK256 DUP1 SLOAD SWAP1 SWAP2 SWAP1 PUSH2 0x16BA SWAP1 DUP5 SWAP1 PUSH1 0x1 PUSH1 0x1 PUSH1 0x80 SHL SUB AND PUSH2 0x5C9A JUMP JUMPDEST DUP3 SLOAD PUSH1 0x1 PUSH1 0x1 PUSH1 0x80 SHL SUB SWAP2 DUP3 AND PUSH2 0x100 SWAP4 SWAP1 SWAP4 EXP SWAP3 DUP4 MUL SWAP2 SWAP1 SWAP3 MUL NOT SWAP1 SWAP2 AND OR SWAP1 SSTORE POP PUSH1 0x1 SLOAD PUSH1 0xFF PUSH1 0x1 PUSH1 0x20 SHL SWAP1 SWAP2 DIV AND PUSH2 0x16F6 PUSH1 0x64 DUP4 PUSH2 0x5CD0 JUMP JUMPDEST PUSH2 0x1700 SWAP2 SWAP1 PUSH2 0x5CE4 JUMP JUMPDEST DUP11 MLOAD PUSH1 0x1 PUSH1 0x1 PUSH1 0xA0 SHL SUB AND PUSH1 0x0 SWAP1 DUP2 MSTORE PUSH1 0x3 PUSH1 0x20 MSTORE PUSH1 0x40 DUP2 KECCAK256 DUP1 SLOAD SWAP1 SWAP2 SWAP1 PUSH2 0x1732 SWAP1 DUP5 SWAP1 PUSH1 0x1 PUSH1 0x1 PUSH1 0x80 SHL SUB AND PUSH2 0x5C9A JUMP JUMPDEST SWAP3 POP PUSH2 0x100 EXP DUP2 SLOAD DUP2 PUSH1 0x1 PUSH1 0x1 PUSH1 0x80 SHL SUB MUL NOT AND SWAP1 DUP4 PUSH1 0x1 PUSH1 0x1 PUSH1 0x80 SHL SUB AND MUL OR SWAP1 SSTORE POP JUMPDEST PUSH1 0x1 SLOAD PUSH2 0x1785 SWAP1 PUSH1 0xFF AND PUSH2 0x176C PUSH1 0x64 DUP5 PUSH2 0x5CD0 JUMP JUMPDEST PUSH2 0x1776 SWAP2 SWAP1 PUSH2 0x5CE4 JUMP JUMPDEST PUSH1 0x1 PUSH1 0x80 SHL DUP13 PUSH1 0x80 ADD MLOAD PUSH2 0x30C9 JUMP JUMPDEST PUSH1 0x5 PUSH1 0x0 DUP3 DUP3 SLOAD PUSH2 0x1796 SWAP2 SWAP1 PUSH2 0x5CFB JUMP JUMPDEST SWAP1 SWAP2 SSTORE POP POP JUMPDEST DUP10 MLOAD PUSH1 0x40 DUP1 DUP13 ADD MLOAD PUSH1 0x60 DUP1 DUP15 ADD MLOAD DUP4 MLOAD SWAP3 DUP4 MSTORE PUSH1 0x20 DUP4 ADD MSTORE SWAP2 DUP2 ADD DUP5 SWAP1 MSTORE PUSH1 0x1 PUSH1 0x1 PUSH1 0xA0 SHL SUB SWAP1 SWAP3 AND SWAP2 CALLER SWAP2 PUSH32 0xD43490069F43600808A1E898CE391BB3CDCD9C4E47312FD0080D73FCBAFC2D09 SWAP2 ADD PUSH1 0x40 MLOAD DUP1 SWAP2 SUB SWAP1 LOG3 POP POP PUSH1 0x4 DUP1 SLOAD PUSH1 0xFF PUSH1 0xE8 SHL NOT AND PUSH1 0x1 PUSH1 0xE8 SHL OR SWAP1 SSTORE POP POP POP POP POP POP POP POP POP POP POP POP POP POP JUMP JUMPDEST PUSH1 0x2 SLOAD PUSH1 0x1 PUSH1 0x1 PUSH1 0xA0 SHL SUB AND CALLER EQ PUSH2 0x182F JUMPI PUSH1 0x0 DUP1 REVERT JUMPDEST PUSH1 0x2 DUP1 SLOAD PUSH1 0xFF PUSH1 0xB0 SHL NOT AND PUSH1 0x1 PUSH1 0xB0 SHL OR SWAP1 SSTORE JUMP JUMPDEST PUSH1 0x4 SLOAD PUSH1 0x0 SWAP1 DUP2 SWAP1 PUSH1 0x1 PUSH1 0xE8 SHL SWAP1 DIV PUSH1 0xFF AND PUSH2 0x1872 JUMPI PUSH1 0x40 MLOAD PUSH3 0x461BCD PUSH1 0xE5 SHL DUP2 MSTORE PUSH1 0x4 ADD PUSH2 0x818 SWAP1 PUSH2 0x5B87 JUMP JUMPDEST PUSH1 0x4 DUP1 SLOAD PUSH1 0xFF PUSH1 0xE8 SHL NOT AND SWAP1 SSTORE PUSH1 0x40 DUP1 MLOAD PUSH1 0x80 DUP2 ADD DUP3 MSTORE CALLER DUP2 MSTORE PUSH1 0x2 DUP8 DUP2 SIGNEXTEND PUSH1 0x20 DUP4 ADD MSTORE DUP7 SWAP1 SIGNEXTEND SWAP2 DUP2 ADD SWAP2 SWAP1 SWAP2 MSTORE PUSH1 0x0 SWAP1 DUP2 SWAP1 DUP2 SWAP1 PUSH2 0x18C2 SWAP1 PUSH1 0x60 DUP2 ADD PUSH2 0x18B8 DUP10 PUSH2 0x5D0E JUMP JUMPDEST PUSH1 0xF SIGNEXTEND SWAP1 MSTORE PUSH2 0x2B47 JUMP JUMPDEST SWAP3 POP SWAP3 POP SWAP3 POP DUP2 PUSH2 0x18D2 SWAP1 PUSH2 0x5D3D JUMP JUMPDEST SWAP5 POP PUSH2 0x18DD DUP2 PUSH2 0x5D3D JUMP JUMPDEST SWAP4 POP PUSH1 0x0 DUP6 GT DUP1 PUSH2 0x18EE JUMPI POP PUSH1 0x0 DUP5 GT JUMPDEST ISZERO PUSH2 0x1950 JUMPI PUSH1 0x2 DUP4 ADD SLOAD PUSH2 0x190C SWAP1 DUP7 SWAP1 PUSH1 0x1 PUSH1 0x1 PUSH1 0x80 SHL SUB AND PUSH2 0x5C9A JUMP JUMPDEST PUSH1 0x2 DUP5 ADD SLOAD PUSH2 0x192C SWAP1 DUP7 SWAP1 PUSH1 0x1 PUSH1 0x80 SHL SWAP1 DIV PUSH1 0x1 PUSH1 0x1 PUSH1 0x80 SHL SUB AND PUSH2 0x5C9A JUMP JUMPDEST PUSH1 0x1 PUSH1 0x1 PUSH1 0x80 SHL SUB SWAP2 DUP3 AND SWAP2 AND PUSH1 0x1 PUSH1 0x80 SHL MUL PUSH1 0x1 PUSH1 0x1 PUSH1 0x80 SHL SUB NOT AND OR PUSH1 0x2 DUP5 ADD SSTORE JUMPDEST PUSH1 0x40 DUP1 MLOAD PUSH1 0x1 PUSH1 0x1 PUSH1 0x80 SHL SUB DUP9 AND DUP2 MSTORE PUSH1 0x20 DUP2 ADD DUP8 SWAP1 MSTORE SWAP1 DUP2 ADD DUP6 SWAP1 MSTORE PUSH1 0x2 DUP9 DUP2 SIGNEXTEND SWAP2 SWAP1 DUP11 SWAP1 SIGNEXTEND SWAP1 CALLER SWAP1 PUSH32 0xC396CD989A39F4459B5FA1AED6A9A8DCDBC45908ACFD67E028CD568DA98982C SWAP1 PUSH1 0x60 ADD PUSH1 0x40 MLOAD DUP1 SWAP2 SUB SWAP1 LOG4 POP POP PUSH1 0x4 DUP1 SLOAD PUSH1 0xFF PUSH1 0xE8 SHL NOT AND PUSH1 0x1 PUSH1 0xE8 SHL OR SWAP1 SSTORE POP SWAP1 SWAP5 SWAP1 SWAP4 POP SWAP2 POP POP JUMP JUMPDEST PUSH1 0x0 DUP1 PUSH1 0x0 PUSH2 0x19D4 PUSH2 0x2ED8 JUMP JUMPDEST PUSH2 0x19DE DUP6 DUP6 PUSH2 0x324D JUMP JUMPDEST PUSH1 0x2 DUP6 DUP2 SIGNEXTEND PUSH1 0x0 SWAP1 DUP2 MSTORE PUSH1 0x7 PUSH1 0x20 MSTORE PUSH1 0x40 DUP1 DUP3 KECCAK256 DUP8 DUP5 SIGNEXTEND DUP4 MSTORE SWAP1 DUP3 KECCAK256 SWAP3 DUP2 ADD SLOAD PUSH1 0x6 DUP2 SWAP1 SIGNEXTEND SWAP4 PUSH1 0x1 PUSH1 0x38 SHL DUP3 DIV PUSH1 0x1 PUSH1 0x1 PUSH1 0xA0 SHL SUB AND SWAP3 DUP5 SWAP3 PUSH1 0x1 PUSH1 0xD8 SHL DUP2 DIV PUSH4 0xFFFFFFFF AND SWAP3 DUP5 SWAP3 SWAP2 PUSH1 0x1 PUSH1 0xF8 SHL SWAP1 DIV PUSH1 0xFF AND DUP1 PUSH2 0x1A3C JUMPI PUSH1 0x0 DUP1 REVERT JUMPDEST PUSH1 0x2 DUP3 ADD SLOAD PUSH1 0x6 DUP2 SWAP1 SIGNEXTEND SWAP9 POP PUSH1 0x1 PUSH1 0x38 SHL DUP2 DIV PUSH1 0x1 PUSH1 0x1 PUSH1 0xA0 SHL SUB AND SWAP7 POP PUSH1 0x1 PUSH1 0xD8 SHL DUP2 DIV PUSH4 0xFFFFFFFF AND SWAP5 POP PUSH1 0x1 PUSH1 0xF8 SHL SWAP1 DIV PUSH1 0xFF AND DUP1 PUSH2 0x1A7D JUMPI PUSH1 0x0 DUP1 REVERT JUMPDEST POP POP PUSH1 0x40 DUP1 MLOAD PUSH1 0xC0 DUP2 ADD DUP3 MSTORE PUSH1 0x4 SLOAD PUSH1 0x1 PUSH1 0x1 PUSH1 0xA0 SHL SUB DUP2 AND DUP3 MSTORE PUSH1 0x1 PUSH1 0xA0 SHL DUP2 DIV PUSH1 0x2 SWAP1 DUP2 SIGNEXTEND PUSH1 0x20 DUP5 ADD DUP2 SWAP1 MSTORE PUSH1 0x1 PUSH1 0xB8 SHL DUP4 DIV PUSH2 0xFFFF SWAP1 DUP2 AND SWAP6 DUP6 ADD SWAP6 SWAP1 SWAP6 MSTORE PUSH1 0x1 PUSH1 0xC8 SHL DUP4 DIV DUP6 AND PUSH1 0x60 DUP6 ADD MSTORE PUSH1 0x1 PUSH1 0xD8 SHL DUP4 DIV SWAP1 SWAP5 AND PUSH1 0x80 DUP5 ADD MSTORE PUSH1 0x1 PUSH1 0xE8 SHL SWAP1 SWAP2 DIV PUSH1 0xFF AND ISZERO ISZERO PUSH1 0xA0 DUP4 ADD MSTORE SWAP1 SWAP4 POP DUP15 SWAP1 SIGNEXTEND SGT ISZERO SWAP1 POP PUSH2 0x1B2C JUMPI PUSH2 0x1B06 DUP7 DUP9 PUSH2 0x5D59 JUMP JUMPDEST PUSH2 0x1B10 DUP6 DUP8 PUSH2 0x5D86 JUMP JUMPDEST PUSH2 0x1B1A DUP5 DUP7 PUSH2 0x5DA6 JUMP JUMPDEST SWAP10 POP SWAP10 POP SWAP10 POP POP POP POP POP POP POP POP PUSH2 0x1BEC JUMP JUMPDEST DUP11 PUSH1 0x2 SIGNEXTEND DUP2 PUSH1 0x20 ADD MLOAD PUSH1 0x2 SIGNEXTEND SLT ISZERO PUSH2 0x1BCE JUMPI PUSH1 0x20 DUP2 ADD MLOAD PUSH1 0x40 DUP3 ADD MLOAD PUSH1 0x6 SLOAD PUSH1 0x60 DUP5 ADD MLOAD TIMESTAMP SWAP4 PUSH1 0x0 SWAP4 DUP5 SWAP4 PUSH2 0x1B75 SWAP4 PUSH1 0xA SWAP4 DUP9 SWAP4 DUP8 SWAP4 SWAP2 SWAP3 SWAP1 SWAP2 PUSH1 0x1 PUSH1 0x1 PUSH1 0x80 SHL SUB AND SWAP1 PUSH2 0x332C JUMP JUMPDEST SWAP1 SWAP3 POP SWAP1 POP DUP9 PUSH2 0x1B85 DUP12 DUP5 PUSH2 0x5D59 JUMP JUMPDEST PUSH2 0x1B8F SWAP2 SWAP1 PUSH2 0x5D59 JUMP JUMPDEST DUP8 PUSH2 0x1B9A DUP11 DUP5 PUSH2 0x5D86 JUMP JUMPDEST PUSH2 0x1BA4 SWAP2 SWAP1 PUSH2 0x5D86 JUMP JUMPDEST DUP7 PUSH2 0x1BAF DUP10 DUP8 PUSH2 0x5DA6 JUMP JUMPDEST PUSH2 0x1BB9 SWAP2 SWAP1 PUSH2 0x5DA6 JUMP JUMPDEST SWAP13 POP SWAP13 POP SWAP13 POP POP POP POP POP POP POP POP POP POP POP PUSH2 0x1BEC JUMP JUMPDEST PUSH2 0x1BD8 DUP8 DUP8 PUSH2 0x5D59 JUMP JUMPDEST PUSH2 0x1BE2 DUP7 DUP7 PUSH2 0x5D86 JUMP JUMPDEST PUSH2 0x1B1A DUP6 DUP6 PUSH2 0x5DA6 JUMP JUMPDEST SWAP3 POP SWAP3 POP SWAP3 JUMP JUMPDEST PUSH1 0x0 DUP1 PUSH2 0x1BFE PUSH2 0x2ED8 JUMP JUMPDEST DUP7 DUP10 PUSH1 0x0 DUP9 SWAP1 SUB PUSH2 0x1C36 JUMPI PUSH1 0x40 MLOAD PUSH3 0x461BCD PUSH1 0xE5 SHL DUP2 MSTORE PUSH1 0x20 PUSH1 0x4 DUP3 ADD MSTORE PUSH1 0x2 PUSH1 0x24 DUP3 ADD MSTORE PUSH2 0x4153 PUSH1 0xF0 SHL PUSH1 0x44 DUP3 ADD MSTORE PUSH1 0x64 ADD PUSH2 0x818 JUMP JUMPDEST PUSH1 0x2 SLOAD PUSH1 0x1 PUSH1 0xA8 SHL SWAP1 DIV PUSH1 0xFF AND ISZERO PUSH2 0x1C7E JUMPI PUSH1 0x40 MLOAD PUSH3 0x461BCD PUSH1 0xE5 SHL DUP2 MSTORE PUSH1 0x20 PUSH1 0x4 DUP3 ADD MSTORE PUSH1 0xB PUSH1 0x24 DUP3 ADD MSTORE PUSH11 0x6D61726B6574206C6F636B PUSH1 0xA8 SHL PUSH1 0x44 DUP3 ADD MSTORE PUSH1 0x64 ADD PUSH2 0x818 JUMP JUMPDEST PUSH1 0x40 DUP1 MLOAD PUSH1 0xC0 DUP2 ADD DUP3 MSTORE PUSH1 0x4 DUP1 SLOAD PUSH1 0x1 PUSH1 0x1 PUSH1 0xA0 SHL SUB DUP1 DUP3 AND DUP5 MSTORE PUSH1 0x1 PUSH1 0xA0 SHL DUP3 DIV PUSH1 0x2 SIGNEXTEND PUSH1 0x20 DUP6 ADD MSTORE PUSH1 0x1 PUSH1 0xB8 SHL DUP3 DIV PUSH2 0xFFFF SWAP1 DUP2 AND DUP6 DUP8 ADD MSTORE PUSH1 0x1 PUSH1 0xC8 SHL DUP4 DIV DUP2 AND PUSH1 0x60 DUP7 ADD MSTORE PUSH1 0x1 PUSH1 0xD8 SHL DUP4 DIV AND PUSH1 0x80 DUP6 ADD MSTORE PUSH1 0x1 PUSH1 0xE8 SHL SWAP1 SWAP2 DIV PUSH1 0xFF AND ISZERO ISZERO PUSH1 0xA0 DUP5 ADD MSTORE SWAP3 MLOAD PUSH4 0xE71957B9 PUSH1 0xE0 SHL DUP2 MSTORE DUP15 DUP5 AND SWAP2 DUP2 ADD SWAP2 SWAP1 SWAP2 MSTORE SWAP1 SWAP2 PUSH1 0x0 SWAP2 PUSH32 0x0 SWAP1 SWAP2 AND SWAP1 PUSH4 0xE71957B9 SWAP1 PUSH1 0x24 ADD PUSH1 0x20 PUSH1 0x40 MLOAD DUP1 DUP4 SUB DUP2 DUP7 GAS STATICCALL ISZERO DUP1 ISZERO PUSH2 0x1D4C JUMPI RETURNDATASIZE PUSH1 0x0 DUP1 RETURNDATACOPY RETURNDATASIZE PUSH1 0x0 REVERT JUMPDEST POP POP POP POP PUSH1 0x40 MLOAD RETURNDATASIZE PUSH1 0x1F NOT PUSH1 0x1F DUP3 ADD AND DUP3 ADD DUP1 PUSH1 0x40 MSTORE POP DUP2 ADD SWAP1 PUSH2 0x1D70 SWAP2 SWAP1 PUSH2 0x5C6A JUMP JUMPDEST SWAP1 POP DUP2 PUSH1 0xA0 ADD MLOAD PUSH2 0x1D93 JUMPI PUSH1 0x40 MLOAD PUSH3 0x461BCD PUSH1 0xE5 SHL DUP2 MSTORE PUSH1 0x4 ADD PUSH2 0x818 SWAP1 PUSH2 0x5B87 JUMP JUMPDEST DUP11 PUSH2 0x1DDE JUMPI DUP2 PUSH1 0x0 ADD MLOAD PUSH1 0x1 PUSH1 0x1 PUSH1 0xA0 SHL SUB AND DUP10 PUSH1 0x1 PUSH1 0x1 PUSH1 0xA0 SHL SUB AND GT DUP1 ISZERO PUSH2 0x1DD9 JUMPI POP PUSH20 0xFFFD8963EFD1FC6A506488495D951D5263988D26 PUSH1 0x1 PUSH1 0x1 PUSH1 0xA0 SHL SUB DUP11 AND LT JUMPDEST PUSH2 0x1E10 JUMP JUMPDEST DUP2 PUSH1 0x0 ADD MLOAD PUSH1 0x1 PUSH1 0x1 PUSH1 0xA0 SHL SUB AND DUP10 PUSH1 0x1 PUSH1 0x1 PUSH1 0xA0 SHL SUB AND LT DUP1 ISZERO PUSH2 0x1E10 JUMPI POP PUSH5 0x1000276A3 PUSH1 0x1 PUSH1 0x1 PUSH1 0xA0 SHL SUB DUP11 AND GT JUMPDEST PUSH2 0x1E42 JUMPI PUSH1 0x40 MLOAD PUSH3 0x461BCD PUSH1 0xE5 SHL DUP2 MSTORE PUSH1 0x20 PUSH1 0x4 DUP3 ADD MSTORE PUSH1 0x3 PUSH1 0x24 DUP3 ADD MSTORE PUSH3 0x14D413 PUSH1 0xEA SHL PUSH1 0x44 DUP3 ADD MSTORE PUSH1 0x64 ADD PUSH2 0x818 JUMP JUMPDEST PUSH1 0x4 DUP1 SLOAD PUSH1 0xFF PUSH1 0xE8 SHL NOT AND SWAP1 SSTORE PUSH1 0x40 DUP1 MLOAD PUSH1 0xA0 DUP2 ADD SWAP1 SWAP2 MSTORE PUSH1 0x6 SLOAD PUSH1 0x1 PUSH1 0x1 PUSH1 0x80 SHL SUB AND DUP2 MSTORE PUSH1 0x0 SWAP1 PUSH1 0x20 DUP2 ADD TIMESTAMP PUSH4 0xFFFFFFFF AND DUP2 MSTORE PUSH1 0x20 ADD PUSH1 0x0 PUSH1 0x6 SIGNEXTEND DUP2 MSTORE PUSH1 0x20 ADD PUSH1 0x0 PUSH1 0x1 PUSH1 0x1 PUSH1 0xA0 SHL SUB AND DUP2 MSTORE PUSH1 0x20 ADD PUSH1 0x0 ISZERO ISZERO DUP2 MSTORE POP SWAP1 POP PUSH1 0x0 DUP1 DUP13 SGT SWAP1 POP PUSH1 0x0 PUSH1 0x40 MLOAD DUP1 PUSH1 0xE0 ADD PUSH1 0x40 MSTORE DUP1 DUP15 DUP2 MSTORE PUSH1 0x20 ADD PUSH1 0x0 DUP2 MSTORE PUSH1 0x20 ADD DUP7 PUSH1 0x0 ADD MLOAD PUSH1 0x1 PUSH1 0x1 PUSH1 0xA0 SHL SUB AND DUP2 MSTORE PUSH1 0x20 ADD DUP7 PUSH1 0x20 ADD MLOAD PUSH1 0x2 SIGNEXTEND DUP2 MSTORE PUSH1 0x20 ADD PUSH1 0x5 SLOAD DUP2 MSTORE PUSH1 0x20 ADD PUSH1 0x0 PUSH1 0x1 PUSH1 0x1 PUSH1 0x80 SHL SUB AND DUP2 MSTORE PUSH1 0x20 ADD DUP5 PUSH1 0x0 ADD MLOAD PUSH1 0x1 PUSH1 0x1 PUSH1 0x80 SHL SUB AND DUP2 MSTORE POP SWAP1 POP JUMPDEST DUP1 MLOAD ISZERO DUP1 ISZERO SWAP1 PUSH2 0x1F31 JUMPI POP DUP12 PUSH1 0x1 PUSH1 0x1 PUSH1 0xA0 SHL SUB AND DUP2 PUSH1 0x40 ADD MLOAD PUSH1 0x1 PUSH1 0x1 PUSH1 0xA0 SHL SUB AND EQ ISZERO JUMPDEST ISZERO PUSH2 0x2354 JUMPI PUSH1 0x40 DUP1 MLOAD PUSH1 0xE0 DUP2 ADD DUP3 MSTORE PUSH1 0x0 DUP1 DUP3 MSTORE PUSH1 0x20 DUP3 ADD DUP2 SWAP1 MSTORE SWAP2 DUP2 ADD DUP3 SWAP1 MSTORE PUSH1 0x60 DUP2 ADD DUP3 SWAP1 MSTORE PUSH1 0x80 DUP2 ADD DUP3 SWAP1 MSTORE PUSH1 0xA0 DUP2 ADD DUP3 SWAP1 MSTORE PUSH1 0xC0 DUP2 ADD SWAP2 SWAP1 SWAP2 MSTORE PUSH1 0x40 DUP3 ADD MLOAD PUSH1 0x1 PUSH1 0x1 PUSH1 0xA0 SHL SUB AND DUP2 MSTORE PUSH1 0x60 DUP3 ADD MLOAD PUSH2 0x1FB2 SWAP1 PUSH1 0x8 SWAP1 PUSH32 0x0 DUP12 PUSH2 0x3511 JUMP JUMPDEST ISZERO ISZERO PUSH1 0x40 DUP4 ADD MSTORE PUSH1 0x2 SIGNEXTEND PUSH1 0x20 DUP3 ADD DUP2 SWAP1 MSTORE PUSH3 0xD89E7 NOT SGT ISZERO PUSH2 0x1FDD JUMPI PUSH3 0xD89E7 NOT PUSH1 0x20 DUP3 ADD MSTORE PUSH2 0x2011 JUMP JUMPDEST PUSH2 0x1FEA PUSH3 0xD89E7 NOT PUSH2 0x5DC3 JUMP JUMPDEST PUSH1 0x2 SIGNEXTEND DUP2 PUSH1 0x20 ADD MLOAD PUSH1 0x2 SIGNEXTEND SGT ISZERO PUSH2 0x2011 JUMPI PUSH2 0x2008 PUSH3 0xD89E7 NOT PUSH2 0x5DC3 JUMP JUMPDEST PUSH1 0x2 SIGNEXTEND PUSH1 0x20 DUP3 ADD MSTORE JUMPDEST PUSH2 0x201E DUP2 PUSH1 0x20 ADD MLOAD PUSH2 0x36CE JUMP JUMPDEST PUSH1 0x1 PUSH1 0x1 PUSH1 0xA0 SHL SUB AND PUSH1 0x60 DUP3 ADD MSTORE PUSH1 0x40 DUP3 ADD MLOAD PUSH2 0x208E SWAP1 DUP10 PUSH2 0x2058 JUMPI DUP15 PUSH1 0x1 PUSH1 0x1 PUSH1 0xA0 SHL SUB AND DUP4 PUSH1 0x60 ADD MLOAD PUSH1 0x1 PUSH1 0x1 PUSH1 0xA0 SHL SUB AND GT PUSH2 0x2072 JUMP JUMPDEST DUP15 PUSH1 0x1 PUSH1 0x1 PUSH1 0xA0 SHL SUB AND DUP4 PUSH1 0x60 ADD MLOAD PUSH1 0x1 PUSH1 0x1 PUSH1 0xA0 SHL SUB AND LT JUMPDEST PUSH2 0x2080 JUMPI DUP3 PUSH1 0x60 ADD MLOAD PUSH2 0x2082 JUMP JUMPDEST DUP15 JUMPDEST PUSH1 0xC0 DUP6 ADD MLOAD DUP6 MLOAD PUSH2 0x3AED JUMP JUMPDEST PUSH1 0xA0 DUP5 ADD MSTORE PUSH1 0x80 DUP4 ADD MSTORE PUSH1 0x1 PUSH1 0x1 PUSH1 0xA0 SHL SUB AND PUSH1 0x40 DUP4 ADD MSTORE DUP3 ISZERO PUSH2 0x2101 JUMPI PUSH2 0x20C8 DUP2 PUSH1 0xC0 ADD MLOAD DUP3 PUSH1 0x80 ADD MLOAD PUSH2 0x20C3 SWAP2 SWAP1 PUSH2 0x5CFB JUMP JUMPDEST PUSH2 0x3C97 JUMP JUMPDEST DUP3 MLOAD DUP4 SWAP1 PUSH2 0x20D7 SWAP1 DUP4 SWAP1 PUSH2 0x5DDC JUMP JUMPDEST SWAP1 MSTORE POP PUSH1 0xA0 DUP2 ADD MLOAD PUSH2 0x20F7 SWAP1 PUSH2 0x20EC SWAP1 PUSH2 0x3C97 JUMP JUMPDEST PUSH1 0x20 DUP5 ADD MLOAD SWAP1 PUSH2 0x3CAD JUMP JUMPDEST PUSH1 0x20 DUP4 ADD MSTORE PUSH2 0x214D JUMP JUMPDEST PUSH2 0x210E DUP2 PUSH1 0xA0 ADD MLOAD PUSH2 0x3C97 JUMP JUMPDEST DUP3 MLOAD DUP4 SWAP1 PUSH2 0x211D SWAP1 DUP4 SWAP1 PUSH2 0x5DFC JUMP JUMPDEST SWAP1 MSTORE POP PUSH1 0xC0 DUP2 ADD MLOAD PUSH1 0x80 DUP3 ADD MLOAD PUSH2 0x2147 SWAP2 PUSH2 0x213C SWAP2 PUSH2 0x20C3 SWAP2 SWAP1 PUSH2 0x5CFB JUMP JUMPDEST PUSH1 0x20 DUP5 ADD MLOAD SWAP1 PUSH2 0x3CCD JUMP JUMPDEST PUSH1 0x20 DUP4 ADD MSTORE JUMPDEST PUSH1 0x1 SLOAD PUSH1 0x0 SWAP1 PUSH1 0x64 SWAP1 PUSH2 0x2163 SWAP1 PUSH1 0xFF AND DUP3 PUSH2 0x5E24 JUMP JUMPDEST PUSH1 0xFF AND DUP4 PUSH1 0xC0 ADD MLOAD PUSH2 0x2175 SWAP2 SWAP1 PUSH2 0x5CE4 JUMP JUMPDEST PUSH2 0x217F SWAP2 SWAP1 PUSH2 0x5CD0 JUMP JUMPDEST SWAP1 POP DUP1 DUP3 PUSH1 0xC0 ADD DUP2 DUP2 MLOAD PUSH2 0x2193 SWAP2 SWAP1 PUSH2 0x5C87 JUMP JUMPDEST SWAP1 MSTORE POP PUSH1 0xA0 DUP4 ADD DUP1 MLOAD DUP3 SWAP2 SWAP1 PUSH2 0x21AA SWAP1 DUP4 SWAP1 PUSH2 0x5C9A JUMP JUMPDEST PUSH1 0x1 PUSH1 0x1 PUSH1 0x80 SHL SUB SWAP1 DUP2 AND SWAP1 SWAP2 MSTORE PUSH1 0xC0 DUP6 ADD MLOAD AND ISZERO SWAP1 POP PUSH2 0x21FA JUMPI PUSH2 0x21E5 DUP3 PUSH1 0xC0 ADD MLOAD PUSH1 0x1 PUSH1 0x80 SHL DUP6 PUSH1 0xC0 ADD MLOAD PUSH1 0x1 PUSH1 0x1 PUSH1 0x80 SHL SUB AND PUSH2 0x30C9 JUMP JUMPDEST DUP4 PUSH1 0x80 ADD DUP2 DUP2 MLOAD PUSH2 0x21F6 SWAP2 SWAP1 PUSH2 0x5CFB JUMP JUMPDEST SWAP1 MSTORE POP JUMPDEST DUP2 PUSH1 0x60 ADD MLOAD PUSH1 0x1 PUSH1 0x1 PUSH1 0xA0 SHL SUB AND DUP4 PUSH1 0x40 ADD MLOAD PUSH1 0x1 PUSH1 0x1 PUSH1 0xA0 SHL SUB AND SUB PUSH2 0x2316 JUMPI DUP2 PUSH1 0x40 ADD MLOAD ISZERO PUSH2 0x22E9 JUMPI DUP5 PUSH1 0x80 ADD MLOAD PUSH2 0x227F JUMPI PUSH2 0x2261 DUP6 PUSH1 0x20 ADD MLOAD PUSH1 0x0 DUP10 PUSH1 0x20 ADD MLOAD DUP11 PUSH1 0x40 ADD MLOAD DUP10 PUSH1 0x0 ADD MLOAD DUP13 PUSH1 0x60 ADD MLOAD PUSH1 0xA PUSH2 0x332C SWAP1 SWAP7 SWAP6 SWAP5 SWAP4 SWAP3 SWAP2 SWAP1 PUSH4 0xFFFFFFFF AND JUMP JUMPDEST PUSH1 0x1 PUSH1 0x1 PUSH1 0xA0 SHL SUB AND PUSH1 0x60 DUP8 ADD MSTORE PUSH1 0x6 SIGNEXTEND PUSH1 0x40 DUP7 ADD MSTORE PUSH1 0x1 PUSH1 0x80 DUP7 ADD MSTORE JUMPDEST PUSH1 0x0 PUSH2 0x22B7 DUP4 PUSH1 0x20 ADD MLOAD DUP12 PUSH2 0x2296 JUMPI PUSH1 0x5 SLOAD PUSH2 0x229C JUMP JUMPDEST DUP6 PUSH1 0x80 ADD MLOAD JUMPDEST PUSH1 0x60 DUP10 ADD MLOAD PUSH1 0x40 DUP11 ADD MLOAD PUSH1 0x20 DUP12 ADD MLOAD PUSH1 0x7 SWAP5 SWAP4 SWAP3 SWAP2 SWAP1 PUSH2 0x3CED JUMP JUMPDEST SWAP1 POP DUP10 ISZERO PUSH2 0x22CB JUMPI PUSH2 0x22C8 DUP2 PUSH2 0x5D0E JUMP JUMPDEST SWAP1 POP JUMPDEST PUSH2 0x22D9 DUP5 PUSH1 0xC0 ADD MLOAD DUP3 PUSH2 0x3DEB JUMP JUMPDEST PUSH1 0x1 PUSH1 0x1 PUSH1 0x80 SHL SUB AND PUSH1 0xC0 DUP6 ADD MSTORE POP JUMPDEST DUP16 PUSH2 0x22F8 JUMPI DUP2 PUSH1 0x20 ADD MLOAD PUSH2 0x2309 JUMP JUMPDEST PUSH1 0x1 DUP3 PUSH1 0x20 ADD MLOAD PUSH2 0x2309 SWAP2 SWAP1 PUSH2 0x5E3D JUMP JUMPDEST PUSH1 0x2 SIGNEXTEND PUSH1 0x60 DUP5 ADD MSTORE PUSH2 0x234D JUMP JUMPDEST DUP2 PUSH1 0x0 ADD MLOAD PUSH1 0x1 PUSH1 0x1 PUSH1 0xA0 SHL SUB AND DUP4 PUSH1 0x40 ADD MLOAD PUSH1 0x1 PUSH1 0x1 PUSH1 0xA0 SHL SUB AND EQ PUSH2 0x234D JUMPI PUSH2 0x2344 DUP4 PUSH1 0x40 ADD MLOAD PUSH2 0x3EAB JUMP JUMPDEST PUSH1 0x2 SIGNEXTEND PUSH1 0x60 DUP5 ADD MSTORE JUMPDEST POP POP PUSH2 0x1F0B JUMP JUMPDEST DUP5 PUSH1 0x20 ADD MLOAD PUSH1 0x2 SIGNEXTEND DUP2 PUSH1 0x60 ADD MLOAD PUSH1 0x2 SIGNEXTEND EQ PUSH2 0x241E JUMPI PUSH1 0x0 DUP1 PUSH2 0x23A2 DUP8 PUSH1 0x40 ADD MLOAD DUP7 PUSH1 0x20 ADD MLOAD DUP10 PUSH1 0x20 ADD MLOAD DUP9 PUSH1 0x0 ADD MLOAD DUP12 PUSH1 0x60 ADD MLOAD DUP13 PUSH1 0x80 ADD MLOAD PUSH1 0xA PUSH2 0x41E2 SWAP1 SWAP7 SWAP6 SWAP5 SWAP4 SWAP3 SWAP2 SWAP1 PUSH4 0xFFFFFFFF AND JUMP JUMPDEST PUSH1 0x40 DUP6 ADD MLOAD PUSH1 0x60 DUP7 ADD MLOAD PUSH1 0x4 DUP1 SLOAD PUSH4 0xFFFFFFFF PUSH1 0xB8 SHL NOT AND PUSH1 0x1 PUSH1 0xC8 SHL PUSH2 0xFFFF SWAP6 DUP7 AND MUL PUSH2 0xFFFF PUSH1 0xB8 SHL NOT AND OR PUSH1 0x1 PUSH1 0xB8 SHL SWAP6 SWAP1 SWAP5 AND SWAP5 SWAP1 SWAP5 MUL SWAP3 SWAP1 SWAP3 OR PUSH1 0x1 PUSH1 0x1 PUSH1 0xB8 SHL SUB NOT AND PUSH1 0x1 PUSH1 0xA0 SHL PUSH3 0xFFFFFF SWAP1 SWAP4 AND SWAP3 SWAP1 SWAP3 MUL PUSH1 0x1 PUSH1 0x1 PUSH1 0xA0 SHL SUB NOT AND SWAP2 SWAP1 SWAP2 OR PUSH1 0x1 PUSH1 0x1 PUSH1 0xA0 SHL SUB SWAP1 SWAP2 AND OR SWAP1 SSTORE POP PUSH2 0x2443 SWAP1 POP JUMP JUMPDEST PUSH1 0x40 DUP2 ADD MLOAD PUSH1 0x4 DUP1 SLOAD PUSH1 0x1 PUSH1 0x1 PUSH1 0xA0 SHL SUB NOT AND PUSH1 0x1 PUSH1 0x1 PUSH1 0xA0 SHL SUB SWAP1 SWAP3 AND SWAP2 SWAP1 SWAP2 OR SWAP1 SSTORE JUMPDEST DUP1 PUSH1 0xC0 ADD MLOAD PUSH1 0x1 PUSH1 0x1 PUSH1 0x80 SHL SUB AND DUP4 PUSH1 0x0 ADD MLOAD PUSH1 0x1 PUSH1 0x1 PUSH1 0x80 SHL SUB AND EQ PUSH2 0x2489 JUMPI PUSH1 0xC0 DUP2 ADD MLOAD PUSH1 0x6 DUP1 SLOAD PUSH1 0x1 PUSH1 0x1 PUSH1 0x80 SHL SUB NOT AND PUSH1 0x1 PUSH1 0x1 PUSH1 0x80 SHL SUB SWAP1 SWAP3 AND SWAP2 SWAP1 SWAP2 OR SWAP1 SSTORE JUMPDEST DUP2 ISZERO ISZERO DUP15 ISZERO ISZERO EQ PUSH2 0x24AA JUMPI PUSH1 0x20 DUP2 ADD MLOAD DUP2 MLOAD PUSH2 0x24A5 SWAP1 DUP16 PUSH2 0x5DDC JUMP JUMPDEST PUSH2 0x24BC JUMP JUMPDEST DUP1 MLOAD PUSH2 0x24B6 SWAP1 DUP15 PUSH2 0x5DDC JUMP JUMPDEST DUP2 PUSH1 0x20 ADD MLOAD JUMPDEST SWAP1 SWAP10 POP SWAP8 POP DUP14 ISZERO PUSH2 0x25BF JUMPI PUSH1 0x0 DUP9 SLT ISZERO PUSH2 0x2503 JUMPI PUSH2 0x2503 PUSH32 0x0 DUP8 PUSH2 0x24FE DUP12 PUSH2 0x5D3D JUMP JUMPDEST PUSH2 0x29EA JUMP JUMPDEST PUSH1 0x0 PUSH2 0x250D PUSH2 0x2D6D JUMP JUMPDEST SWAP1 POP CALLER PUSH1 0x1 PUSH1 0x1 PUSH1 0xA0 SHL SUB AND PUSH4 0xB311E891 DUP12 DUP12 DUP16 DUP16 PUSH1 0x40 MLOAD DUP6 PUSH4 0xFFFFFFFF AND PUSH1 0xE0 SHL DUP2 MSTORE PUSH1 0x4 ADD PUSH2 0x2541 SWAP5 SWAP4 SWAP3 SWAP2 SWAP1 PUSH2 0x5C27 JUMP JUMPDEST PUSH1 0x0 PUSH1 0x40 MLOAD DUP1 DUP4 SUB DUP2 PUSH1 0x0 DUP8 DUP1 EXTCODESIZE ISZERO DUP1 ISZERO PUSH2 0x255B JUMPI PUSH1 0x0 DUP1 REVERT JUMPDEST POP GAS CALL ISZERO DUP1 ISZERO PUSH2 0x256F JUMPI RETURNDATASIZE PUSH1 0x0 DUP1 RETURNDATACOPY RETURNDATASIZE PUSH1 0x0 REVERT JUMPDEST POP POP POP POP PUSH2 0x257B PUSH2 0x2D6D JUMP JUMPDEST PUSH2 0x2585 DUP3 DUP13 PUSH2 0x2EB7 JUMP JUMPDEST GT ISZERO PUSH2 0x25B9 JUMPI PUSH1 0x40 MLOAD PUSH3 0x461BCD PUSH1 0xE5 SHL DUP2 MSTORE PUSH1 0x20 PUSH1 0x4 DUP3 ADD MSTORE PUSH1 0x3 PUSH1 0x24 DUP3 ADD MSTORE PUSH3 0x494941 PUSH1 0xE8 SHL PUSH1 0x44 DUP3 ADD MSTORE PUSH1 0x64 ADD PUSH2 0x818 JUMP JUMPDEST POP PUSH2 0x26AE JUMP JUMPDEST PUSH1 0x0 DUP10 SLT ISZERO PUSH2 0x25F6 JUMPI PUSH2 0x25F6 PUSH32 0x0 DUP8 PUSH2 0x24FE DUP13 PUSH2 0x5D3D JUMP JUMPDEST PUSH1 0x0 PUSH2 0x2600 PUSH2 0x2E6B JUMP JUMPDEST SWAP1 POP CALLER PUSH1 0x1 PUSH1 0x1 PUSH1 0xA0 SHL SUB AND PUSH4 0xB311E891 DUP12 DUP12 DUP16 DUP16 PUSH1 0x40 MLOAD DUP6 PUSH4 0xFFFFFFFF AND PUSH1 0xE0 SHL DUP2 MSTORE PUSH1 0x4 ADD PUSH2 0x2634 SWAP5 SWAP4 SWAP3 SWAP2 SWAP1 PUSH2 0x5C27 JUMP JUMPDEST PUSH1 0x0 PUSH1 0x40 MLOAD DUP1 DUP4 SUB DUP2 PUSH1 0x0 DUP8 DUP1 EXTCODESIZE ISZERO DUP1 ISZERO PUSH2 0x264E JUMPI PUSH1 0x0 DUP1 REVERT JUMPDEST POP GAS CALL ISZERO DUP1 ISZERO PUSH2 0x2662 JUMPI RETURNDATASIZE PUSH1 0x0 DUP1 RETURNDATACOPY RETURNDATASIZE PUSH1 0x0 REVERT JUMPDEST POP POP POP POP PUSH2 0x266E PUSH2 0x2E6B JUMP JUMPDEST PUSH2 0x2678 DUP3 DUP12 PUSH2 0x2EB7 JUMP JUMPDEST GT ISZERO PUSH2 0x26AC JUMPI PUSH1 0x40 MLOAD PUSH3 0x461BCD PUSH1 0xE5 SHL DUP2 MSTORE PUSH1 0x20 PUSH1 0x4 DUP3 ADD MSTORE PUSH1 0x3 PUSH1 0x24 DUP3 ADD MSTORE PUSH3 0x494941 PUSH1 0xE8 SHL PUSH1 0x44 DUP3 ADD MSTORE PUSH1 0x64 ADD PUSH2 0x818 JUMP JUMPDEST POP JUMPDEST PUSH1 0x40 DUP1 DUP3 ADD MLOAD PUSH1 0xC0 DUP4 ADD MLOAD PUSH1 0x60 DUP1 DUP6 ADD MLOAD DUP5 MLOAD DUP15 DUP2 MSTORE PUSH1 0x20 DUP2 ADD DUP15 SWAP1 MSTORE PUSH1 0x1 PUSH1 0x1 PUSH1 0xA0 SHL SUB SWAP5 DUP6 AND SWAP6 DUP2 ADD SWAP6 SWAP1 SWAP6 MSTORE PUSH1 0x1 PUSH1 0x1 PUSH1 0x80 SHL SUB SWAP1 SWAP3 AND SWAP1 DUP5 ADD MSTORE PUSH1 0x2 SIGNEXTEND PUSH1 0x80 DUP4 ADD MSTORE DUP8 AND SWAP1 CALLER SWAP1 PUSH32 0xC42079F94A6350D7E6235F29174924F928CC2AC818EB64FED8004E115FBCCA67 SWAP1 PUSH1 0xA0 ADD PUSH1 0x40 MLOAD DUP1 SWAP2 SUB SWAP1 LOG3 POP POP PUSH1 0x4 DUP1 SLOAD PUSH1 0xFF PUSH1 0xE8 SHL NOT AND PUSH1 0x1 PUSH1 0xE8 SHL OR SWAP1 SSTORE POP SWAP5 SWAP13 SWAP4 SWAP12 POP SWAP3 SWAP10 POP POP POP POP POP POP POP POP POP POP JUMP JUMPDEST PUSH1 0x4 SLOAD PUSH1 0x1 PUSH1 0xE8 SHL SWAP1 DIV PUSH1 0xFF AND PUSH2 0x2778 JUMPI PUSH1 0x40 MLOAD PUSH3 0x461BCD PUSH1 0xE5 SHL DUP2 MSTORE PUSH1 0x4 ADD PUSH2 0x818 SWAP1 PUSH2 0x5B87 JUMP JUMPDEST PUSH1 0x4 DUP1 SLOAD PUSH1 0xFF PUSH1 0xE8 SHL NOT AND SWAP1 SSTORE PUSH2 0x278D PUSH2 0x2ED8 JUMP JUMPDEST PUSH1 0x4 SLOAD PUSH1 0x1 PUSH1 0xD8 SHL SWAP1 DIV PUSH2 0xFFFF AND PUSH1 0x0 PUSH2 0x27A9 PUSH1 0xA DUP4 DUP6 PUSH2 0x436B JUMP JUMPDEST PUSH1 0x4 DUP1 SLOAD PUSH2 0xFFFF DUP1 DUP5 AND PUSH1 0x1 PUSH1 0xD8 SHL DUP2 MUL PUSH2 0xFFFF PUSH1 0xD8 SHL NOT SWAP1 SWAP4 AND SWAP3 SWAP1 SWAP3 OR SWAP1 SWAP3 SSTORE SWAP2 SWAP3 POP DUP4 AND EQ PUSH2 0x2814 JUMPI PUSH1 0x40 DUP1 MLOAD PUSH2 0xFFFF DUP1 DUP6 AND DUP3 MSTORE DUP4 AND PUSH1 0x20 DUP3 ADD MSTORE PUSH32 0xAC49E518F90A358F652E4400164F05A5D8F7E35E7747279BC3A93DBF584E125A SWAP2 ADD PUSH1 0x40 MLOAD DUP1 SWAP2 SUB SWAP1 LOG1 JUMPDEST POP POP PUSH1 0x4 DUP1 SLOAD PUSH1 0xFF PUSH1 0xE8 SHL NOT AND PUSH1 0x1 PUSH1 0xE8 SHL OR SWAP1 SSTORE POP JUMP JUMPDEST PUSH1 0x4 SLOAD PUSH1 0x1 PUSH1 0x1 PUSH1 0xA0 SHL SUB AND ISZERO PUSH2 0x286A JUMPI PUSH1 0x40 MLOAD PUSH3 0x461BCD PUSH1 0xE5 SHL DUP2 MSTORE PUSH1 0x20 PUSH1 0x4 DUP3 ADD MSTORE PUSH1 0x2 PUSH1 0x24 DUP3 ADD MSTORE PUSH2 0x4149 PUSH1 0xF0 SHL PUSH1 0x44 DUP3 ADD MSTORE PUSH1 0x64 ADD PUSH2 0x818 JUMP JUMPDEST PUSH1 0x0 PUSH2 0x2875 DUP3 PUSH2 0x3EAB JUMP JUMPDEST PUSH1 0x40 DUP1 MLOAD PUSH1 0x80 DUP1 DUP3 ADD DUP4 MSTORE PUSH4 0xFFFFFFFF TIMESTAMP AND DUP1 DUP4 MSTORE PUSH1 0x0 PUSH1 0x20 DUP1 DUP6 ADD DUP3 SWAP1 MSTORE DUP5 DUP7 ADD DUP3 SWAP1 MSTORE PUSH1 0x1 PUSH1 0x60 SWAP6 DUP7 ADD DUP2 SWAP1 MSTORE PUSH1 0x1 PUSH1 0xF8 SHL SWAP1 SWAP4 OR PUSH1 0xA SSTORE DUP6 MLOAD PUSH1 0xC0 DUP2 ADD DUP8 MSTORE PUSH1 0x1 PUSH1 0x1 PUSH1 0xA0 SHL SUB DUP11 AND DUP1 DUP3 MSTORE PUSH1 0x2 DUP10 SWAP1 SIGNEXTEND DUP3 DUP5 ADD DUP2 SWAP1 MSTORE DUP3 DUP10 ADD SWAP5 SWAP1 SWAP5 MSTORE SWAP6 DUP2 ADD DUP5 SWAP1 MSTORE SWAP4 DUP5 ADD DUP4 SWAP1 MSTORE PUSH1 0xA0 SWAP1 SWAP4 ADD DUP3 SWAP1 MSTORE PUSH1 0x4 DUP1 SLOAD PUSH1 0x1 PUSH1 0x1 PUSH1 0xB8 SHL SUB NOT AND DUP6 OR PUSH1 0x1 PUSH1 0xA0 SHL PUSH3 0xFFFFFF DUP10 AND MUL OR PUSH7 0xFFFFFFFFFFFFFF PUSH1 0xB8 SHL NOT AND PUSH5 0x100010001 PUSH1 0xC8 SHL OR SWAP1 SSTORE DUP5 MLOAD SWAP4 DUP5 MSTORE SWAP2 DUP4 ADD SWAP2 SWAP1 SWAP2 MSTORE DUP3 MLOAD SWAP4 SWAP5 POP SWAP3 DUP4 SWAP3 PUSH32 0x98636036CB66A9C19A37435EFC1E90142190214E8ABEB821BDBA3F2990DD4C95 SWAP3 DUP3 SWAP1 SUB ADD SWAP1 LOG1 POP POP POP POP JUMP JUMPDEST PUSH1 0x0 DUP1 DUP3 PUSH2 0x2974 DUP2 PUSH3 0xD89E7 NOT PUSH2 0x5E62 JUMP JUMPDEST PUSH2 0x297E SWAP2 SWAP1 PUSH2 0x5E9C JUMP JUMPDEST SWAP1 POP PUSH1 0x0 DUP4 DUP1 PUSH2 0x2991 PUSH3 0xD89E7 NOT PUSH2 0x5DC3 JUMP JUMPDEST PUSH2 0x299B SWAP2 SWAP1 PUSH2 0x5E62 JUMP JUMPDEST PUSH2 0x29A5 SWAP2 SWAP1 PUSH2 0x5E9C JUMP JUMPDEST SWAP1 POP PUSH1 0x0 DUP5 PUSH2 0x29B4 DUP5 DUP5 PUSH2 0x5E3D JUMP JUMPDEST PUSH2 0x29BE SWAP2 SWAP1 PUSH2 0x5E62 JUMP JUMPDEST PUSH2 0x29C9 SWAP1 PUSH1 0x1 PUSH2 0x5EBC JUMP JUMPDEST SWAP1 POP PUSH2 0x29E1 PUSH3 0xFFFFFF DUP3 AND PUSH1 0x1 PUSH1 0x1 PUSH1 0x80 SHL SUB PUSH2 0x5ED8 JUMP JUMPDEST SWAP6 SWAP5 POP POP POP POP POP JUMP JUMPDEST PUSH1 0x40 DUP1 MLOAD PUSH1 0x1 PUSH1 0x1 PUSH1 0xA0 SHL SUB DUP5 DUP2 AND PUSH1 0x24 DUP4 ADD MSTORE PUSH1 0x44 DUP1 DUP4 ADD DUP6 SWAP1 MSTORE DUP4 MLOAD DUP1 DUP5 SUB SWAP1 SWAP2 ADD DUP2 MSTORE PUSH1 0x64 SWAP1 SWAP3 ADD DUP4 MSTORE PUSH1 0x20 DUP3 ADD DUP1 MLOAD PUSH1 0x1 PUSH1 0x1 PUSH1 0xE0 SHL SUB AND PUSH4 0xA9059CBB PUSH1 0xE0 SHL OR SWAP1 MSTORE SWAP2 MLOAD PUSH1 0x0 SWAP3 DUP4 SWAP3 SWAP1 DUP8 AND SWAP2 PUSH2 0x2A46 SWAP2 SWAP1 PUSH2 0x5EFE JUMP JUMPDEST PUSH1 0x0 PUSH1 0x40 MLOAD DUP1 DUP4 SUB DUP2 PUSH1 0x0 DUP7 GAS CALL SWAP2 POP POP RETURNDATASIZE DUP1 PUSH1 0x0 DUP2 EQ PUSH2 0x2A83 JUMPI PUSH1 0x40 MLOAD SWAP2 POP PUSH1 0x1F NOT PUSH1 0x3F RETURNDATASIZE ADD AND DUP3 ADD PUSH1 0x40 MSTORE RETURNDATASIZE DUP3 MSTORE RETURNDATASIZE PUSH1 0x0 PUSH1 0x20 DUP5 ADD RETURNDATACOPY PUSH2 0x2A88 JUMP JUMPDEST PUSH1 0x60 SWAP2 POP JUMPDEST POP SWAP2 POP SWAP2 POP DUP2 DUP1 ISZERO PUSH2 0x2AB2 JUMPI POP DUP1 MLOAD ISZERO DUP1 PUSH2 0x2AB2 JUMPI POP DUP1 DUP1 PUSH1 0x20 ADD SWAP1 MLOAD DUP2 ADD SWAP1 PUSH2 0x2AB2 SWAP2 SWAP1 PUSH2 0x5BE1 JUMP JUMPDEST PUSH2 0x2AE3 JUMPI PUSH1 0x40 MLOAD PUSH3 0x461BCD PUSH1 0xE5 SHL DUP2 MSTORE PUSH1 0x20 PUSH1 0x4 DUP3 ADD MSTORE PUSH1 0x2 PUSH1 0x24 DUP3 ADD MSTORE PUSH2 0x2A23 PUSH1 0xF1 SHL PUSH1 0x44 DUP3 ADD MSTORE PUSH1 0x64 ADD PUSH2 0x818 JUMP JUMPDEST POP POP POP POP POP JUMP JUMPDEST PUSH1 0x40 DUP1 MLOAD PUSH1 0x60 SWAP5 SWAP1 SWAP5 SHL PUSH12 0xFFFFFFFFFFFFFFFFFFFFFFFF NOT AND PUSH1 0x20 DUP1 DUP7 ADD SWAP2 SWAP1 SWAP2 MSTORE PUSH1 0xE8 SWAP4 DUP5 SHL PUSH1 0x34 DUP7 ADD MSTORE SWAP2 SWAP1 SWAP3 SHL PUSH1 0x37 DUP5 ADD MSTORE DUP2 MLOAD PUSH1 0x1A DUP2 DUP6 SUB ADD DUP2 MSTORE PUSH1 0x3A SWAP1 SWAP4 ADD DUP3 MSTORE DUP3 MLOAD SWAP3 DUP2 ADD SWAP3 SWAP1 SWAP3 KECCAK256 PUSH1 0x0 SWAP1 DUP2 MSTORE SWAP3 SWAP1 SWAP2 MSTORE SWAP1 KECCAK256 SWAP1 JUMP JUMPDEST PUSH1 0x0 DUP1 PUSH1 0x0 PUSH2 0x2B54 PUSH2 0x2ED8 JUMP JUMPDEST PUSH2 0x2B66 DUP5 PUSH1 0x20 ADD MLOAD DUP6 PUSH1 0x40 ADD MLOAD PUSH2 0x324D JUMP JUMPDEST PUSH1 0x40 DUP1 MLOAD PUSH1 0xC0 DUP2 ADD DUP3 MSTORE PUSH1 0x4 SLOAD PUSH1 0x1 PUSH1 0x1 PUSH1 0xA0 SHL SUB DUP2 AND DUP3 MSTORE PUSH1 0x1 PUSH1 0xA0 SHL DUP2 DIV PUSH1 0x2 SIGNEXTEND PUSH1 0x20 DUP1 DUP5 ADD DUP3 SWAP1 MSTORE PUSH1 0x1 PUSH1 0xB8 SHL DUP4 DIV PUSH2 0xFFFF SWAP1 DUP2 AND DUP6 DUP8 ADD MSTORE PUSH1 0x1 PUSH1 0xC8 SHL DUP5 DIV DUP2 AND PUSH1 0x60 DUP1 DUP8 ADD SWAP2 SWAP1 SWAP2 MSTORE PUSH1 0x1 PUSH1 0xD8 SHL DUP6 DIV SWAP1 SWAP2 AND PUSH1 0x80 DUP7 ADD MSTORE PUSH1 0x1 PUSH1 0xE8 SHL SWAP1 SWAP4 DIV PUSH1 0xFF AND ISZERO ISZERO PUSH1 0xA0 DUP6 ADD MSTORE DUP9 MLOAD SWAP1 DUP10 ADD MLOAD SWAP5 DUP10 ADD MLOAD SWAP3 DUP10 ADD MLOAD SWAP4 SWAP5 PUSH2 0x2BF5 SWAP5 SWAP2 SWAP4 SWAP1 SWAP3 SWAP1 SWAP2 SWAP1 PUSH2 0x4419 JUMP JUMPDEST SWAP4 POP DUP5 PUSH1 0x60 ADD MLOAD PUSH1 0xF SIGNEXTEND PUSH1 0x0 EQ PUSH2 0x2D65 JUMPI DUP5 PUSH1 0x20 ADD MLOAD PUSH1 0x2 SIGNEXTEND DUP2 PUSH1 0x20 ADD MLOAD PUSH1 0x2 SIGNEXTEND SLT ISZERO PUSH2 0x2C4A JUMPI PUSH2 0x2C43 PUSH2 0x2C2C DUP7 PUSH1 0x20 ADD MLOAD PUSH2 0x36CE JUMP JUMPDEST PUSH2 0x2C39 DUP8 PUSH1 0x40 ADD MLOAD PUSH2 0x36CE JUMP JUMPDEST DUP8 PUSH1 0x60 ADD MLOAD PUSH2 0x45CD JUMP JUMPDEST SWAP3 POP PUSH2 0x2D65 JUMP JUMPDEST DUP5 PUSH1 0x40 ADD MLOAD PUSH1 0x2 SIGNEXTEND DUP2 PUSH1 0x20 ADD MLOAD PUSH1 0x2 SIGNEXTEND SLT ISZERO PUSH2 0x2D3B JUMPI PUSH1 0x6 SLOAD PUSH1 0x40 DUP3 ADD MLOAD PUSH1 0x1 PUSH1 0x1 PUSH1 0x80 SHL SUB SWAP1 SWAP2 AND SWAP1 PUSH2 0x2C95 SWAP1 TIMESTAMP PUSH1 0x20 DUP6 ADD MLOAD PUSH1 0x60 DUP7 ADD MLOAD PUSH1 0x80 DUP8 ADD MLOAD PUSH1 0xA SWAP5 SWAP4 SWAP3 SWAP2 DUP8 SWAP2 PUSH2 0x41E2 JUMP JUMPDEST PUSH1 0x4 DUP1 SLOAD PUSH4 0xFFFFFFFF PUSH1 0xB8 SHL NOT AND PUSH1 0x1 PUSH1 0xC8 SHL PUSH2 0xFFFF SWAP4 DUP5 AND MUL PUSH2 0xFFFF PUSH1 0xB8 SHL NOT AND OR PUSH1 0x1 PUSH1 0xB8 SHL SWAP4 SWAP1 SWAP3 AND SWAP3 SWAP1 SWAP3 MUL OR SWAP1 SSTORE DUP2 MLOAD PUSH1 0x40 DUP8 ADD MLOAD PUSH2 0x2CE7 SWAP2 SWAP1 PUSH2 0x2CDD SWAP1 PUSH2 0x36CE JUMP JUMPDEST DUP9 PUSH1 0x60 ADD MLOAD PUSH2 0x45CD JUMP JUMPDEST SWAP4 POP PUSH2 0x2D05 PUSH2 0x2CF9 DUP8 PUSH1 0x20 ADD MLOAD PUSH2 0x36CE JUMP JUMPDEST DUP4 MLOAD PUSH1 0x60 DUP10 ADD MLOAD PUSH2 0x460F JUMP JUMPDEST SWAP3 POP PUSH2 0x2D15 DUP2 DUP8 PUSH1 0x60 ADD MLOAD PUSH2 0x3DEB JUMP JUMPDEST PUSH1 0x6 DUP1 SLOAD PUSH1 0x1 PUSH1 0x1 PUSH1 0x80 SHL SUB NOT AND PUSH1 0x1 PUSH1 0x1 PUSH1 0x80 SHL SUB SWAP3 SWAP1 SWAP3 AND SWAP2 SWAP1 SWAP2 OR SWAP1 SSTORE POP PUSH2 0x2D65 JUMP JUMPDEST PUSH2 0x2D62 PUSH2 0x2D4B DUP7 PUSH1 0x20 ADD MLOAD PUSH2 0x36CE JUMP JUMPDEST PUSH2 0x2D58 DUP8 PUSH1 0x40 ADD MLOAD PUSH2 0x36CE JUMP JUMPDEST DUP8 PUSH1 0x60 ADD MLOAD PUSH2 0x460F JUMP JUMPDEST SWAP2 POP JUMPDEST POP SWAP2 SWAP4 SWAP1 SWAP3 POP JUMP JUMPDEST PUSH1 0x40 MLOAD ADDRESS PUSH1 0x24 DUP3 ADD MSTORE PUSH1 0x0 SWAP1 DUP2 SWAP1 DUP2 SWAP1 PUSH1 0x1 PUSH1 0x1 PUSH1 0xA0 SHL SUB PUSH32 0x0 AND SWAP1 PUSH4 0x70A08231 PUSH1 0xE0 SHL SWAP1 PUSH1 0x44 ADD JUMPDEST PUSH1 0x40 DUP1 MLOAD PUSH1 0x1F NOT DUP2 DUP5 SUB ADD DUP2 MSTORE SWAP2 DUP2 MSTORE PUSH1 0x20 DUP3 ADD DUP1 MLOAD PUSH1 0x1 PUSH1 0x1 PUSH1 0xE0 SHL SUB AND PUSH1 0x1 PUSH1 0x1 PUSH1 0xE0 SHL SUB NOT SWAP1 SWAP5 AND SWAP4 SWAP1 SWAP4 OR SWAP1 SWAP3 MSTORE SWAP1 MLOAD PUSH2 0x2DF3 SWAP2 SWAP1 PUSH2 0x5EFE JUMP JUMPDEST PUSH1 0x0 PUSH1 0x40 MLOAD DUP1 DUP4 SUB DUP2 DUP6 GAS STATICCALL SWAP2 POP POP RETURNDATASIZE DUP1 PUSH1 0x0 DUP2 EQ PUSH2 0x2E2E JUMPI PUSH1 0x40 MLOAD SWAP2 POP PUSH1 0x1F NOT PUSH1 0x3F RETURNDATASIZE ADD AND DUP3 ADD PUSH1 0x40 MSTORE RETURNDATASIZE DUP3 MSTORE RETURNDATASIZE PUSH1 0x0 PUSH1 0x20 DUP5 ADD RETURNDATACOPY PUSH2 0x2E33 JUMP JUMPDEST PUSH1 0x60 SWAP2 POP JUMPDEST POP SWAP2 POP SWAP2 POP DUP2 DUP1 ISZERO PUSH2 0x2E47 JUMPI POP PUSH1 0x20 DUP2 MLOAD LT ISZERO JUMPDEST PUSH2 0x2E50 JUMPI PUSH1 0x0 DUP1 REVERT JUMPDEST DUP1 DUP1 PUSH1 0x20 ADD SWAP1 MLOAD DUP2 ADD SWAP1 PUSH2 0x2E64 SWAP2 SWAP1 PUSH2 0x5F2D JUMP JUMPDEST SWAP3 POP POP POP SWAP1 JUMP JUMPDEST PUSH1 0x40 MLOAD ADDRESS PUSH1 0x24 DUP3 ADD MSTORE PUSH1 0x0 SWAP1 DUP2 SWAP1 DUP2 SWAP1 PUSH1 0x1 PUSH1 0x1 PUSH1 0xA0 SHL SUB PUSH32 0x0 AND SWAP1 PUSH4 0x70A08231 PUSH1 0xE0 SHL SWAP1 PUSH1 0x44 ADD PUSH2 0x2DB5 JUMP JUMPDEST PUSH1 0x0 DUP3 PUSH2 0x2EC4 DUP4 DUP3 PUSH2 0x5CFB JUMP JUMPDEST SWAP2 POP DUP2 LT ISZERO PUSH2 0x2ED2 JUMPI PUSH1 0x0 DUP1 REVERT JUMPDEST SWAP3 SWAP2 POP POP JUMP JUMPDEST ADDRESS PUSH1 0x1 PUSH1 0x1 PUSH1 0xA0 SHL SUB PUSH32 0x0 AND EQ PUSH2 0x2F0D JUMPI PUSH1 0x0 DUP1 REVERT JUMPDEST JUMP JUMPDEST PUSH1 0x60 DUP1 PUSH1 0x0 DUP4 PUSH2 0xFFFF AND GT PUSH2 0x2F4A JUMPI PUSH1 0x40 MLOAD PUSH3 0x461BCD PUSH1 0xE5 SHL DUP2 MSTORE PUSH1 0x20 PUSH1 0x4 DUP3 ADD MSTORE PUSH1 0x1 PUSH1 0x24 DUP3 ADD MSTORE PUSH1 0x49 PUSH1 0xF8 SHL PUSH1 0x44 DUP3 ADD MSTORE PUSH1 0x64 ADD PUSH2 0x818 JUMP JUMPDEST DUP7 MLOAD PUSH8 0xFFFFFFFFFFFFFFFF DUP2 GT ISZERO PUSH2 0x2F64 JUMPI PUSH2 0x2F64 PUSH2 0x5F46 JUMP JUMPDEST PUSH1 0x40 MLOAD SWAP1 DUP1 DUP3 MSTORE DUP1 PUSH1 0x20 MUL PUSH1 0x20 ADD DUP3 ADD PUSH1 0x40 MSTORE DUP1 ISZERO PUSH2 0x2F8D JUMPI DUP2 PUSH1 0x20 ADD PUSH1 0x20 DUP3 MUL DUP1 CALLDATASIZE DUP4 CALLDATACOPY ADD SWAP1 POP JUMPDEST POP SWAP2 POP DUP7 MLOAD PUSH8 0xFFFFFFFFFFFFFFFF DUP2 GT ISZERO PUSH2 0x2FAA JUMPI PUSH2 0x2FAA PUSH2 0x5F46 JUMP JUMPDEST PUSH1 0x40 MLOAD SWAP1 DUP1 DUP3 MSTORE DUP1 PUSH1 0x20 MUL PUSH1 0x20 ADD DUP3 ADD PUSH1 0x40 MSTORE DUP1 ISZERO PUSH2 0x2FD3 JUMPI DUP2 PUSH1 0x20 ADD PUSH1 0x20 DUP3 MUL DUP1 CALLDATASIZE DUP4 CALLDATACOPY ADD SWAP1 POP JUMPDEST POP SWAP1 POP PUSH1 0x0 JUMPDEST DUP8 MLOAD DUP2 LT ISZERO PUSH2 0x3071 JUMPI PUSH2 0x300A DUP11 DUP11 DUP11 DUP5 DUP2 MLOAD DUP2 LT PUSH2 0x2FF9 JUMPI PUSH2 0x2FF9 PUSH2 0x5F5C JUMP JUMPDEST PUSH1 0x20 MUL PUSH1 0x20 ADD ADD MLOAD DUP11 DUP11 DUP11 DUP11 PUSH2 0x332C JUMP JUMPDEST DUP5 DUP4 DUP2 MLOAD DUP2 LT PUSH2 0x301C JUMPI PUSH2 0x301C PUSH2 0x5F5C JUMP JUMPDEST PUSH1 0x20 MUL PUSH1 0x20 ADD ADD DUP5 DUP5 DUP2 MLOAD DUP2 LT PUSH2 0x3035 JUMPI PUSH2 0x3035 PUSH2 0x5F5C JUMP JUMPDEST PUSH1 0x20 MUL PUSH1 0x20 ADD ADD DUP3 PUSH1 0x1 PUSH1 0x1 PUSH1 0xA0 SHL SUB AND PUSH1 0x1 PUSH1 0x1 PUSH1 0xA0 SHL SUB AND DUP2 MSTORE POP DUP3 PUSH1 0x6 SIGNEXTEND PUSH1 0x6 SIGNEXTEND DUP2 MSTORE POP POP POP DUP1 DUP1 PUSH2 0x3069 SWAP1 PUSH2 0x5F72 JUMP JUMPDEST SWAP2 POP POP PUSH2 0x2FD9 JUMP JUMPDEST POP SWAP8 POP SWAP8 SWAP6 POP POP POP POP POP POP JUMP JUMPDEST PUSH1 0x0 PUSH2 0x308B DUP5 DUP5 DUP5 PUSH2 0x30C9 JUMP JUMPDEST SWAP1 POP PUSH1 0x0 DUP3 DUP1 PUSH2 0x309D JUMPI PUSH2 0x309D PUSH2 0x5CBA JUMP JUMPDEST DUP5 DUP7 MULMOD GT ISZERO PUSH2 0x30C2 JUMPI PUSH1 0x0 NOT DUP2 LT PUSH2 0x30B4 JUMPI PUSH1 0x0 DUP1 REVERT JUMPDEST DUP1 PUSH2 0x30BE DUP2 PUSH2 0x5F72 JUMP JUMPDEST SWAP2 POP POP JUMPDEST SWAP4 SWAP3 POP POP POP JUMP JUMPDEST PUSH1 0x0 DUP1 DUP1 PUSH1 0x0 NOT DUP6 DUP8 MULMOD DUP6 DUP8 MUL SWAP3 POP DUP3 DUP2 LT DUP4 DUP3 SUB SUB SWAP2 POP POP DUP1 PUSH1 0x0 SUB PUSH2 0x3102 JUMPI PUSH1 0x0 DUP5 GT PUSH2 0x30F7 JUMPI PUSH1 0x0 DUP1 REVERT JUMPDEST POP DUP3 SWAP1 DIV SWAP1 POP PUSH2 0x30C2 JUMP JUMPDEST DUP1 DUP5 GT PUSH2 0x310E JUMPI PUSH1 0x0 DUP1 REVERT JUMPDEST PUSH1 0x0 DUP5 DUP7 DUP9 MULMOD DUP1 DUP5 SUB SWAP4 DUP2 GT SWAP1 SWAP3 SUB SWAP2 SWAP1 POP PUSH1 0x0 DUP6 PUSH2 0x312F DUP2 PUSH1 0x0 NOT PUSH2 0x5C87 JUMP JUMPDEST PUSH2 0x313A SWAP1 PUSH1 0x1 PUSH2 0x5CFB JUMP JUMPDEST AND SWAP6 DUP7 SWAP1 DIV SWAP6 SWAP4 DUP5 SWAP1 DIV SWAP4 PUSH1 0x0 DUP2 SWAP1 SUB DIV PUSH1 0x1 ADD SWAP1 POP PUSH2 0x315A DUP2 DUP5 PUSH2 0x5CE4 JUMP JUMPDEST SWAP1 SWAP4 OR SWAP3 PUSH1 0x0 PUSH2 0x316B DUP8 PUSH1 0x3 PUSH2 0x5CE4 JUMP JUMPDEST PUSH1 0x2 XOR SWAP1 POP PUSH2 0x317A DUP2 DUP9 PUSH2 0x5CE4 JUMP JUMPDEST PUSH2 0x3185 SWAP1 PUSH1 0x2 PUSH2 0x5C87 JUMP JUMPDEST PUSH2 0x318F SWAP1 DUP3 PUSH2 0x5CE4 JUMP JUMPDEST SWAP1 POP PUSH2 0x319B DUP2 DUP9 PUSH2 0x5CE4 JUMP JUMPDEST PUSH2 0x31A6 SWAP1 PUSH1 0x2 PUSH2 0x5C87 JUMP JUMPDEST PUSH2 0x31B0 SWAP1 DUP3 PUSH2 0x5CE4 JUMP JUMPDEST SWAP1 POP PUSH2 0x31BC DUP2 DUP9 PUSH2 0x5CE4 JUMP JUMPDEST PUSH2 0x31C7 SWAP1 PUSH1 0x2 PUSH2 0x5C87 JUMP JUMPDEST PUSH2 0x31D1 SWAP1 DUP3 PUSH2 0x5CE4 JUMP JUMPDEST SWAP1 POP PUSH2 0x31DD DUP2 DUP9 PUSH2 0x5CE4 JUMP JUMPDEST PUSH2 0x31E8 SWAP1 PUSH1 0x2 PUSH2 0x5C87 JUMP JUMPDEST PUSH2 0x31F2 SWAP1 DUP3 PUSH2 0x5CE4 JUMP JUMPDEST SWAP1 POP PUSH2 0x31FE DUP2 DUP9 PUSH2 0x5CE4 JUMP JUMPDEST PUSH2 0x3209 SWAP1 PUSH1 0x2 PUSH2 0x5C87 JUMP JUMPDEST PUSH2 0x3213 SWAP1 DUP3 PUSH2 0x5CE4 JUMP JUMPDEST SWAP1 POP PUSH2 0x321F DUP2 DUP9 PUSH2 0x5CE4 JUMP JUMPDEST PUSH2 0x322A SWAP1 PUSH1 0x2 PUSH2 0x5C87 JUMP JUMPDEST PUSH2 0x3234 SWAP1 DUP3 PUSH2 0x5CE4 JUMP JUMPDEST SWAP1 POP PUSH2 0x3240 DUP2 DUP7 PUSH2 0x5CE4 JUMP JUMPDEST SWAP10 SWAP9 POP POP POP POP POP POP POP POP POP JUMP JUMPDEST DUP1 PUSH1 0x2 SIGNEXTEND DUP3 PUSH1 0x2 SIGNEXTEND SLT PUSH2 0x32A2 JUMPI PUSH1 0x40 MLOAD PUSH3 0x461BCD PUSH1 0xE5 SHL DUP2 MSTORE PUSH1 0x20 PUSH1 0x4 DUP3 ADD MSTORE PUSH1 0x1D PUSH1 0x24 DUP3 ADD MSTORE PUSH32 0x6C6F776572206E6F74206C6F776572206F6620757070657220756E6974000000 PUSH1 0x44 DUP3 ADD MSTORE PUSH1 0x64 ADD PUSH2 0x818 JUMP JUMPDEST PUSH3 0xD89E7 NOT PUSH1 0x2 DUP4 SWAP1 SIGNEXTEND SLT ISZERO PUSH2 0x32E0 JUMPI PUSH1 0x40 MLOAD PUSH3 0x461BCD PUSH1 0xE5 SHL DUP2 MSTORE PUSH1 0x20 PUSH1 0x4 DUP3 ADD MSTORE PUSH1 0x3 PUSH1 0x24 DUP3 ADD MSTORE PUSH3 0x544C4D PUSH1 0xE8 SHL PUSH1 0x44 DUP3 ADD MSTORE PUSH1 0x64 ADD PUSH2 0x818 JUMP JUMPDEST PUSH2 0x32ED PUSH3 0xD89E7 NOT PUSH2 0x5DC3 JUMP JUMPDEST PUSH1 0x2 SIGNEXTEND DUP2 PUSH1 0x2 SIGNEXTEND SGT ISZERO PUSH2 0x3328 JUMPI PUSH1 0x40 MLOAD PUSH3 0x461BCD PUSH1 0xE5 SHL DUP2 MSTORE PUSH1 0x20 PUSH1 0x4 DUP3 ADD MSTORE PUSH1 0x3 PUSH1 0x24 DUP3 ADD MSTORE PUSH3 0x54554D PUSH1 0xE8 SHL PUSH1 0x44 DUP3 ADD MSTORE PUSH1 0x64 ADD PUSH2 0x818 JUMP JUMPDEST POP POP JUMP JUMPDEST PUSH1 0x0 DUP1 DUP7 PUSH4 0xFFFFFFFF AND PUSH1 0x0 SUB PUSH2 0x33D5 JUMPI PUSH1 0x0 DUP10 DUP7 PUSH2 0xFFFF AND PUSH2 0xFFFF DUP2 LT PUSH2 0x3356 JUMPI PUSH2 0x3356 PUSH2 0x5F5C JUMP JUMPDEST PUSH1 0x40 DUP1 MLOAD PUSH1 0x80 DUP2 ADD DUP3 MSTORE SWAP2 SWAP1 SWAP3 ADD SLOAD PUSH4 0xFFFFFFFF DUP1 DUP3 AND DUP1 DUP5 MSTORE PUSH1 0x1 PUSH1 0x20 SHL DUP4 DIV PUSH1 0x6 SIGNEXTEND PUSH1 0x20 DUP6 ADD MSTORE PUSH1 0x1 PUSH1 0x58 SHL DUP4 DIV PUSH1 0x1 PUSH1 0x1 PUSH1 0xA0 SHL SUB AND SWAP5 DUP5 ADD SWAP5 SWAP1 SWAP5 MSTORE PUSH1 0x1 PUSH1 0xF8 SHL SWAP1 SWAP2 DIV PUSH1 0xFF AND ISZERO ISZERO PUSH1 0x60 DUP4 ADD MSTORE SWAP1 SWAP3 POP DUP11 AND EQ PUSH2 0x33C1 JUMPI PUSH2 0x33BE DUP2 DUP11 DUP10 DUP9 PUSH2 0x4643 JUMP JUMPDEST SWAP1 POP JUMPDEST DUP1 PUSH1 0x20 ADD MLOAD DUP2 PUSH1 0x40 ADD MLOAD SWAP3 POP SWAP3 POP POP PUSH2 0x3505 JUMP JUMPDEST PUSH1 0x0 PUSH2 0x33E1 DUP9 DUP11 PUSH2 0x5DA6 JUMP JUMPDEST SWAP1 POP PUSH1 0x0 DUP1 PUSH2 0x33F5 DUP13 DUP13 DUP6 DUP13 DUP13 DUP13 DUP13 PUSH2 0x471E JUMP JUMPDEST SWAP2 POP SWAP2 POP DUP2 PUSH1 0x0 ADD MLOAD PUSH4 0xFFFFFFFF AND DUP4 PUSH4 0xFFFFFFFF AND SUB PUSH2 0x3426 JUMPI DUP2 PUSH1 0x20 ADD MLOAD DUP3 PUSH1 0x40 ADD MLOAD SWAP5 POP SWAP5 POP POP POP POP PUSH2 0x3505 JUMP JUMPDEST DUP1 PUSH1 0x0 ADD MLOAD PUSH4 0xFFFFFFFF AND DUP4 PUSH4 0xFFFFFFFF AND SUB PUSH2 0x3453 JUMPI DUP1 PUSH1 0x20 ADD MLOAD DUP2 PUSH1 0x40 ADD MLOAD SWAP5 POP SWAP5 POP POP POP POP PUSH2 0x3505 JUMP JUMPDEST DUP2 MLOAD DUP2 MLOAD PUSH1 0x0 SWAP2 PUSH2 0x3463 SWAP2 PUSH2 0x5DA6 JUMP JUMPDEST DUP4 MLOAD SWAP1 SWAP2 POP PUSH1 0x0 SWAP1 PUSH2 0x3475 SWAP1 DUP7 PUSH2 0x5DA6 JUMP JUMPDEST SWAP1 POP DUP1 PUSH1 0x3 SIGNEXTEND DUP3 PUSH1 0x3 SIGNEXTEND DUP6 PUSH1 0x20 ADD MLOAD DUP6 PUSH1 0x20 ADD MLOAD PUSH2 0x3493 SWAP2 SWAP1 PUSH2 0x5D59 JUMP JUMPDEST PUSH2 0x349D SWAP2 SWAP1 PUSH2 0x5F8B JUMP JUMPDEST PUSH2 0x34A7 SWAP2 SWAP1 PUSH2 0x5FC0 JUMP JUMPDEST DUP5 PUSH1 0x20 ADD MLOAD PUSH2 0x34B6 SWAP2 SWAP1 PUSH2 0x5FE0 JUMP JUMPDEST DUP3 PUSH4 0xFFFFFFFF AND DUP3 PUSH4 0xFFFFFFFF AND DUP7 PUSH1 0x40 ADD MLOAD DUP7 PUSH1 0x40 ADD MLOAD PUSH2 0x34D8 SWAP2 SWAP1 PUSH2 0x5D86 JUMP JUMPDEST PUSH2 0x34E2 SWAP2 SWAP1 PUSH2 0x600D JUMP JUMPDEST PUSH2 0x34EC SWAP2 SWAP1 PUSH2 0x603F JUMP JUMPDEST DUP6 PUSH1 0x40 ADD MLOAD PUSH2 0x34FB SWAP2 SWAP1 PUSH2 0x6059 JUMP JUMPDEST SWAP7 POP SWAP7 POP POP POP POP POP POP JUMPDEST SWAP8 POP SWAP8 SWAP6 POP POP POP POP POP POP JUMP JUMPDEST PUSH1 0x0 DUP1 DUP1 PUSH2 0x351F DUP6 DUP8 PUSH2 0x5E62 JUMP JUMPDEST SWAP1 POP PUSH1 0x0 DUP7 PUSH1 0x2 SIGNEXTEND SLT DUP1 ISZERO PUSH2 0x353F JUMPI POP PUSH2 0x3539 DUP6 DUP8 PUSH2 0x6079 JUMP JUMPDEST PUSH1 0x2 SIGNEXTEND ISZERO ISZERO JUMPDEST ISZERO PUSH2 0x3552 JUMPI DUP1 PUSH2 0x354E DUP2 PUSH2 0x609B JUMP JUMPDEST SWAP2 POP POP JUMPDEST DUP4 ISZERO PUSH2 0x35FF JUMPI PUSH1 0x0 DUP1 PUSH2 0x3564 DUP4 PUSH2 0x493A JUMP JUMPDEST SWAP1 SWAP3 POP SWAP1 POP PUSH1 0x0 PUSH1 0x1 PUSH1 0xFF DUP4 AND DUP2 SWAP1 SHL SWAP1 PUSH2 0x357F SWAP1 DUP3 PUSH2 0x5C87 JUMP JUMPDEST PUSH2 0x3589 SWAP2 SWAP1 PUSH2 0x5CFB JUMP JUMPDEST PUSH1 0x1 DUP5 SWAP1 SIGNEXTEND PUSH1 0x0 SWAP1 DUP2 MSTORE PUSH1 0x20 DUP13 SWAP1 MSTORE PUSH1 0x40 SWAP1 KECCAK256 SLOAD DUP2 AND DUP1 ISZERO ISZERO SWAP7 POP SWAP1 SWAP2 POP DUP6 PUSH2 0x35C9 JUMPI DUP9 PUSH2 0x35BA PUSH1 0xFF DUP6 AND DUP8 PUSH2 0x5E3D JUMP JUMPDEST PUSH2 0x35C4 SWAP2 SWAP1 PUSH2 0x5E9C JUMP JUMPDEST PUSH2 0x35F4 JUMP JUMPDEST DUP9 PUSH2 0x35D3 DUP3 PUSH2 0x4957 JUMP JUMPDEST PUSH2 0x35DD SWAP1 DUP6 PUSH2 0x5E24 JUMP JUMPDEST PUSH2 0x35EA SWAP1 PUSH1 0xFF AND DUP8 PUSH2 0x5E3D JUMP JUMPDEST PUSH2 0x35F4 SWAP2 SWAP1 PUSH2 0x5E9C JUMP JUMPDEST SWAP7 POP POP POP POP POP PUSH2 0x36C4 JUMP JUMPDEST PUSH1 0x0 DUP1 PUSH2 0x3615 PUSH2 0x3610 DUP5 PUSH1 0x1 PUSH2 0x60BE JUMP JUMPDEST PUSH2 0x493A JUMP JUMPDEST SWAP1 SWAP3 POP SWAP1 POP PUSH1 0x0 PUSH2 0x362D PUSH1 0x1 PUSH1 0xFF DUP5 AND DUP2 SWAP1 SHL PUSH2 0x5C87 JUMP JUMPDEST PUSH1 0x1 DUP5 SWAP1 SIGNEXTEND PUSH1 0x0 SWAP1 DUP2 MSTORE PUSH1 0x20 DUP13 SWAP1 MSTORE PUSH1 0x40 SWAP1 KECCAK256 SLOAD SWAP1 NOT SWAP1 DUP2 AND DUP1 ISZERO ISZERO SWAP7 POP SWAP1 SWAP2 POP DUP6 PUSH2 0x3686 JUMPI DUP9 PUSH2 0x365F DUP5 PUSH1 0xFF PUSH2 0x5E24 JUMP JUMPDEST PUSH1 0xFF AND PUSH2 0x366D DUP8 PUSH1 0x1 PUSH2 0x60BE JUMP JUMPDEST PUSH2 0x3677 SWAP2 SWAP1 PUSH2 0x60BE JUMP JUMPDEST PUSH2 0x3681 SWAP2 SWAP1 PUSH2 0x5E9C JUMP JUMPDEST PUSH2 0x36BD JUMP JUMPDEST DUP9 DUP4 PUSH2 0x3691 DUP4 PUSH2 0x4A4E JUMP JUMPDEST PUSH2 0x369B SWAP2 SWAP1 PUSH2 0x5E24 JUMP JUMPDEST PUSH1 0xFF AND PUSH2 0x36A9 DUP8 PUSH1 0x1 PUSH2 0x60BE JUMP JUMPDEST PUSH2 0x36B3 SWAP2 SWAP1 PUSH2 0x60BE JUMP JUMPDEST PUSH2 0x36BD SWAP2 SWAP1 PUSH2 0x5E9C JUMP JUMPDEST SWAP7 POP POP POP POP POP JUMPDEST POP SWAP5 POP SWAP5 SWAP3 POP POP POP JUMP JUMPDEST PUSH1 0x0 DUP1 PUSH1 0x0 DUP4 PUSH1 0x2 SIGNEXTEND SLT PUSH2 0x36E5 JUMPI DUP3 PUSH1 0x2 SIGNEXTEND PUSH2 0x36F2 JUMP JUMPDEST DUP3 PUSH1 0x2 SIGNEXTEND PUSH2 0x36F2 SWAP1 PUSH2 0x5D3D JUMP JUMPDEST SWAP1 POP PUSH2 0x3701 PUSH3 0xD89E7 NOT PUSH2 0x5DC3 JUMP JUMPDEST PUSH1 0x2 SIGNEXTEND DUP2 GT ISZERO PUSH2 0x3737 JUMPI PUSH1 0x40 MLOAD PUSH3 0x461BCD PUSH1 0xE5 SHL DUP2 MSTORE PUSH1 0x20 PUSH1 0x4 DUP3 ADD MSTORE PUSH1 0x1 PUSH1 0x24 DUP3 ADD MSTORE PUSH1 0x15 PUSH1 0xFA SHL PUSH1 0x44 DUP3 ADD MSTORE PUSH1 0x64 ADD PUSH2 0x818 JUMP JUMPDEST PUSH1 0x0 DUP2 PUSH1 0x1 AND PUSH1 0x0 SUB PUSH2 0x374E JUMPI PUSH1 0x1 PUSH1 0x80 SHL PUSH2 0x3760 JUMP JUMPDEST PUSH16 0xFFFCB933BD6FAD37AA2D162D1A594001 JUMPDEST PUSH17 0xFFFFFFFFFFFFFFFFFFFFFFFFFFFFFFFFFF AND SWAP1 POP PUSH1 0x2 DUP3 AND ISZERO PUSH2 0x379F JUMPI PUSH1 0x80 PUSH2 0x379A DUP3 PUSH16 0xFFF97272373D413259A46990580E213A PUSH2 0x5CE4 JUMP JUMPDEST SWAP1 SHR SWAP1 POP JUMPDEST PUSH1 0x4 DUP3 AND ISZERO PUSH2 0x37C9 JUMPI PUSH1 0x80 PUSH2 0x37C4 DUP3 PUSH16 0xFFF2E50F5F656932EF12357CF3C7FDCC PUSH2 0x5CE4 JUMP JUMPDEST SWAP1 SHR SWAP1 POP JUMPDEST PUSH1 0x8 DUP3 AND ISZERO PUSH2 0x37F3 JUMPI PUSH1 0x80 PUSH2 0x37EE DUP3 PUSH16 0xFFE5CACA7E10E4E61C3624EAA0941CD0 PUSH2 0x5CE4 JUMP JUMPDEST SWAP1 SHR SWAP1 POP JUMPDEST PUSH1 0x10 DUP3 AND ISZERO PUSH2 0x381D JUMPI PUSH1 0x80 PUSH2 0x3818 DUP3 PUSH16 0xFFCB9843D60F6159C9DB58835C926644 PUSH2 0x5CE4 JUMP JUMPDEST SWAP1 SHR SWAP1 POP JUMPDEST PUSH1 0x20 DUP3 AND ISZERO PUSH2 0x3847 JUMPI PUSH1 0x80 PUSH2 0x3842 DUP3 PUSH16 0xFF973B41FA98C081472E6896DFB254C0 PUSH2 0x5CE4 JUMP JUMPDEST SWAP1 SHR SWAP1 POP JUMPDEST PUSH1 0x40 DUP3 AND ISZERO PUSH2 0x3871 JUMPI PUSH1 0x80 PUSH2 0x386C DUP3 PUSH16 0xFF2EA16466C96A3843EC78B326B52861 PUSH2 0x5CE4 JUMP JUMPDEST SWAP1 SHR SWAP1 POP JUMPDEST PUSH1 0x80 DUP3 AND ISZERO PUSH2 0x389B JUMPI PUSH1 0x80 PUSH2 0x3896 DUP3 PUSH16 0xFE5DEE046A99A2A811C461F1969C3053 PUSH2 0x5CE4 JUMP JUMPDEST SWAP1 SHR SWAP1 POP JUMPDEST PUSH2 0x100 DUP3 AND ISZERO PUSH2 0x38C6 JUMPI PUSH1 0x80 PUSH2 0x38C1 DUP3 PUSH16 0xFCBE86C7900A88AEDCFFC83B479AA3A4 PUSH2 0x5CE4 JUMP JUMPDEST SWAP1 SHR SWAP1 POP JUMPDEST PUSH2 0x200 DUP3 AND ISZERO PUSH2 0x38F1 JUMPI PUSH1 0x80 PUSH2 0x38EC DUP3 PUSH16 0xF987A7253AC413176F2B074CF7815E54 PUSH2 0x5CE4 JUMP JUMPDEST SWAP1 SHR SWAP1 POP JUMPDEST PUSH2 0x400 DUP3 AND ISZERO PUSH2 0x391C JUMPI PUSH1 0x80 PUSH2 0x3917 DUP3 PUSH16 0xF3392B0822B70005940C7A398E4B70F3 PUSH2 0x5CE4 JUMP JUMPDEST SWAP1 SHR SWAP1 POP JUMPDEST PUSH2 0x800 DUP3 AND ISZERO PUSH2 0x3947 JUMPI PUSH1 0x80 PUSH2 0x3942 DUP3 PUSH16 0xE7159475A2C29B7443B29C7FA6E889D9 PUSH2 0x5CE4 JUMP JUMPDEST SWAP1 SHR SWAP1 POP JUMPDEST PUSH2 0x1000 DUP3 AND ISZERO PUSH2 0x3972 JUMPI PUSH1 0x80 PUSH2 0x396D DUP3 PUSH16 0xD097F3BDFD2022B8845AD8F792AA5825 PUSH2 0x5CE4 JUMP JUMPDEST SWAP1 SHR SWAP1 POP JUMPDEST PUSH2 0x2000 DUP3 AND ISZERO PUSH2 0x399D JUMPI PUSH1 0x80 PUSH2 0x3998 DUP3 PUSH16 0xA9F746462D870FDF8A65DC1F90E061E5 PUSH2 0x5CE4 JUMP JUMPDEST SWAP1 SHR SWAP1 POP JUMPDEST PUSH2 0x4000 DUP3 AND ISZERO PUSH2 0x39C8 JUMPI PUSH1 0x80 PUSH2 0x39C3 DUP3 PUSH16 0x70D869A156D2A1B890BB3DF62BAF32F7 PUSH2 0x5CE4 JUMP JUMPDEST SWAP1 SHR SWAP1 POP JUMPDEST PUSH2 0x8000 DUP3 AND ISZERO PUSH2 0x39F3 JUMPI PUSH1 0x80 PUSH2 0x39EE DUP3 PUSH16 0x31BE135F97D08FD981231505542FCFA6 PUSH2 0x5CE4 JUMP JUMPDEST SWAP1 SHR SWAP1 POP JUMPDEST PUSH3 0x10000 DUP3 AND ISZERO PUSH2 0x3A1F JUMPI PUSH1 0x80 PUSH2 0x3A1A DUP3 PUSH16 0x9AA508B5B7A84E1C677DE54F3E99BC9 PUSH2 0x5CE4 JUMP JUMPDEST SWAP1 SHR SWAP1 POP JUMPDEST PUSH3 0x20000 DUP3 AND ISZERO PUSH2 0x3A4A JUMPI PUSH1 0x80 PUSH2 0x3A45 DUP3 PUSH15 0x5D6AF8DEDB81196699C329225EE604 PUSH2 0x5CE4 JUMP JUMPDEST SWAP1 SHR SWAP1 POP JUMPDEST PUSH3 0x40000 DUP3 AND ISZERO PUSH2 0x3A74 JUMPI PUSH1 0x80 PUSH2 0x3A6F DUP3 PUSH14 0x2216E584F5FA1EA926041BEDFE98 PUSH2 0x5CE4 JUMP JUMPDEST SWAP1 SHR SWAP1 POP JUMPDEST PUSH3 0x80000 DUP3 AND ISZERO PUSH2 0x3A9C JUMPI PUSH1 0x80 PUSH2 0x3A97 DUP3 PUSH12 0x48A170391F7DC42444E8FA2 PUSH2 0x5CE4 JUMP JUMPDEST SWAP1 SHR SWAP1 POP JUMPDEST PUSH1 0x0 DUP5 PUSH1 0x2 SIGNEXTEND SGT ISZERO PUSH2 0x3AB7 JUMPI PUSH2 0x3AB4 DUP2 PUSH1 0x0 NOT PUSH2 0x5CD0 JUMP JUMPDEST SWAP1 POP JUMPDEST PUSH2 0x3AC5 PUSH1 0x1 PUSH1 0x20 SHL DUP3 PUSH2 0x60E3 JUMP JUMPDEST ISZERO PUSH2 0x3AD1 JUMPI PUSH1 0x1 PUSH2 0x3AD4 JUMP JUMPDEST PUSH1 0x0 JUMPDEST PUSH2 0x3AE5 SWAP1 PUSH1 0xFF AND PUSH1 0x20 DUP4 SWAP1 SHR PUSH2 0x5CFB JUMP JUMPDEST SWAP5 SWAP4 POP POP POP POP JUMP JUMPDEST PUSH1 0x0 DUP1 DUP1 PUSH1 0x1 PUSH1 0x1 PUSH1 0xA0 SHL SUB DUP1 DUP8 AND SWAP1 DUP9 AND LT ISZERO DUP2 DUP6 SLT DUP1 ISZERO SWAP1 PUSH2 0x3B63 JUMPI DUP2 PUSH2 0x3B22 JUMPI PUSH2 0x3B1D DUP10 DUP10 DUP10 PUSH1 0x1 PUSH2 0x4B79 JUMP JUMPDEST PUSH2 0x3B2F JUMP JUMPDEST PUSH2 0x3B2F DUP9 DUP11 DUP10 PUSH1 0x1 PUSH2 0x4BF7 JUMP JUMPDEST SWAP4 POP DUP4 PUSH2 0x3B3B DUP8 PUSH2 0x4CBE JUMP JUMPDEST LT PUSH2 0x3B48 JUMPI DUP8 SWAP5 POP PUSH2 0x3BB7 JUMP JUMPDEST PUSH2 0x3B5C DUP10 DUP9 PUSH2 0x3B56 DUP10 PUSH2 0x4CBE JUMP JUMPDEST DUP6 PUSH2 0x4D10 JUMP JUMPDEST SWAP5 POP PUSH2 0x3BB7 JUMP JUMPDEST DUP2 PUSH2 0x3B7A JUMPI PUSH2 0x3B75 DUP10 DUP10 DUP10 PUSH1 0x0 PUSH2 0x4BF7 JUMP JUMPDEST PUSH2 0x3B87 JUMP JUMPDEST PUSH2 0x3B87 DUP9 DUP11 DUP10 PUSH1 0x0 PUSH2 0x4B79 JUMP JUMPDEST SWAP3 POP DUP3 PUSH2 0x3B93 DUP8 PUSH2 0x5D3D JUMP JUMPDEST LT PUSH2 0x3BA0 JUMPI DUP8 SWAP5 POP PUSH2 0x3BB7 JUMP JUMPDEST PUSH2 0x3BB4 DUP10 DUP9 PUSH2 0x3BAE DUP10 PUSH2 0x5D3D JUMP JUMPDEST DUP6 PUSH2 0x4D5C JUMP JUMPDEST SWAP5 POP JUMPDEST PUSH1 0x1 PUSH1 0x1 PUSH1 0xA0 SHL SUB DUP9 DUP2 AND SWAP1 DUP7 AND EQ DUP3 ISZERO PUSH2 0x3C1A JUMPI DUP1 DUP1 ISZERO PUSH2 0x3BD6 JUMPI POP DUP2 JUMPDEST PUSH2 0x3BEC JUMPI PUSH2 0x3BE7 DUP7 DUP12 DUP11 PUSH1 0x1 PUSH2 0x4BF7 JUMP JUMPDEST PUSH2 0x3BEE JUMP JUMPDEST DUP5 JUMPDEST SWAP5 POP DUP1 DUP1 ISZERO PUSH2 0x3BFB JUMPI POP DUP2 ISZERO JUMPDEST PUSH2 0x3C11 JUMPI PUSH2 0x3C0C DUP7 DUP12 DUP11 PUSH1 0x0 PUSH2 0x4B79 JUMP JUMPDEST PUSH2 0x3C13 JUMP JUMPDEST DUP4 JUMPDEST SWAP4 POP PUSH2 0x3C64 JUMP JUMPDEST DUP1 DUP1 ISZERO PUSH2 0x3C24 JUMPI POP DUP2 JUMPDEST PUSH2 0x3C3A JUMPI PUSH2 0x3C35 DUP11 DUP8 DUP11 PUSH1 0x1 PUSH2 0x4B79 JUMP JUMPDEST PUSH2 0x3C3C JUMP JUMPDEST DUP5 JUMPDEST SWAP5 POP DUP1 DUP1 ISZERO PUSH2 0x3C49 JUMPI POP DUP2 ISZERO JUMPDEST PUSH2 0x3C5F JUMPI PUSH2 0x3C5A DUP11 DUP8 DUP11 PUSH1 0x0 PUSH2 0x4BF7 JUMP JUMPDEST PUSH2 0x3C61 JUMP JUMPDEST DUP4 JUMPDEST SWAP4 POP JUMPDEST DUP2 ISZERO DUP1 ISZERO PUSH2 0x3C79 JUMPI POP PUSH2 0x3C76 DUP8 PUSH2 0x5D3D JUMP JUMPDEST DUP5 GT JUMPDEST ISZERO PUSH2 0x3C8A JUMPI PUSH2 0x3C87 DUP8 PUSH2 0x5D3D JUMP JUMPDEST SWAP4 POP JUMPDEST POP POP POP SWAP5 POP SWAP5 POP SWAP5 SWAP2 POP POP JUMP JUMPDEST PUSH1 0x0 PUSH1 0x1 PUSH1 0xFF SHL DUP3 LT PUSH2 0x3CA9 JUMPI PUSH1 0x0 DUP1 REVERT JUMPDEST POP SWAP1 JUMP JUMPDEST PUSH1 0x0 DUP1 DUP3 SLT ISZERO DUP4 PUSH2 0x3CBE DUP5 DUP3 PUSH2 0x5DDC JUMP JUMPDEST SWAP3 POP DUP3 SGT ISZERO EQ PUSH2 0x2ED2 JUMPI PUSH1 0x0 DUP1 REVERT JUMPDEST PUSH1 0x0 DUP1 DUP3 SLT ISZERO DUP4 PUSH2 0x3CDE DUP5 DUP3 PUSH2 0x5DFC JUMP JUMPDEST SWAP3 POP DUP3 SLT ISZERO EQ PUSH2 0x2ED2 JUMPI PUSH1 0x0 DUP1 REVERT JUMPDEST PUSH1 0x2 DUP6 SWAP1 SIGNEXTEND PUSH1 0x0 SWAP1 DUP2 MSTORE PUSH1 0x20 DUP8 SWAP1 MSTORE PUSH1 0x40 DUP2 KECCAK256 PUSH1 0x1 DUP2 ADD SLOAD PUSH2 0x3D0F SWAP1 DUP8 PUSH2 0x5C87 JUMP JUMPDEST PUSH1 0x1 DUP3 ADD SSTORE PUSH1 0x2 DUP2 ADD SLOAD PUSH2 0x3D33 SWAP1 PUSH1 0x1 PUSH1 0x38 SHL SWAP1 DIV PUSH1 0x1 PUSH1 0x1 PUSH1 0xA0 SHL SUB AND DUP7 PUSH2 0x5D86 JUMP JUMPDEST PUSH1 0x2 DUP3 ADD DUP1 SLOAD PUSH1 0x1 PUSH1 0x1 PUSH1 0xA0 SHL SUB SWAP3 SWAP1 SWAP3 AND PUSH1 0x1 PUSH1 0x38 SHL MUL PUSH8 0x100000000000000 PUSH1 0x1 PUSH1 0xD8 SHL SUB NOT SWAP1 SWAP3 AND SWAP2 SWAP1 SWAP2 OR SWAP1 DUP2 SWAP1 SSTORE PUSH2 0x3D73 SWAP1 PUSH1 0x6 SIGNEXTEND DUP6 PUSH2 0x5D59 JUMP JUMPDEST PUSH1 0x2 DUP3 ADD DUP1 SLOAD PUSH7 0xFFFFFFFFFFFFFF NOT AND PUSH7 0xFFFFFFFFFFFFFF SWAP3 SWAP1 SWAP3 AND SWAP2 SWAP1 SWAP2 OR SWAP1 DUP2 SWAP1 SSTORE PUSH2 0x3DAE SWAP1 PUSH1 0x1 PUSH1 0xD8 SHL SWAP1 DIV PUSH4 0xFFFFFFFF AND DUP5 PUSH2 0x5DA6 JUMP JUMPDEST PUSH1 0x2 DUP3 ADD DUP1 SLOAD PUSH4 0xFFFFFFFF SWAP3 SWAP1 SWAP3 AND PUSH1 0x1 PUSH1 0xD8 SHL MUL PUSH4 0xFFFFFFFF PUSH1 0xD8 SHL NOT SWAP1 SWAP3 AND SWAP2 SWAP1 SWAP2 OR SWAP1 SSTORE SLOAD PUSH1 0x1 PUSH1 0x80 SHL SWAP1 DIV PUSH1 0xF SIGNEXTEND SWAP8 SWAP7 POP POP POP POP POP POP POP JUMP JUMPDEST PUSH1 0x0 DUP1 DUP3 PUSH1 0xF SIGNEXTEND SLT ISZERO PUSH2 0x3E58 JUMPI PUSH1 0x1 PUSH1 0x1 PUSH1 0x80 SHL SUB DUP4 AND PUSH2 0x3E0B DUP4 PUSH2 0x5D0E JUMP JUMPDEST PUSH2 0x3E15 SWAP1 DUP6 PUSH2 0x5BBA JUMP JUMPDEST SWAP2 POP DUP2 PUSH1 0x1 PUSH1 0x1 PUSH1 0x80 SHL SUB AND LT PUSH2 0x3E53 JUMPI PUSH1 0x40 MLOAD PUSH3 0x461BCD PUSH1 0xE5 SHL DUP2 MSTORE PUSH1 0x20 PUSH1 0x4 DUP3 ADD MSTORE PUSH1 0x2 PUSH1 0x24 DUP3 ADD MSTORE PUSH2 0x4C53 PUSH1 0xF0 SHL PUSH1 0x44 DUP3 ADD MSTORE PUSH1 0x64 ADD PUSH2 0x818 JUMP JUMPDEST PUSH2 0x2ED2 JUMP JUMPDEST PUSH1 0x1 PUSH1 0x1 PUSH1 0x80 SHL SUB DUP4 AND PUSH2 0x3E6C DUP4 DUP6 PUSH2 0x5C9A JUMP JUMPDEST SWAP2 POP DUP2 PUSH1 0x1 PUSH1 0x1 PUSH1 0x80 SHL SUB AND LT ISZERO PUSH2 0x2ED2 JUMPI PUSH1 0x40 MLOAD PUSH3 0x461BCD PUSH1 0xE5 SHL DUP2 MSTORE PUSH1 0x20 PUSH1 0x4 DUP3 ADD MSTORE PUSH1 0x2 PUSH1 0x24 DUP3 ADD MSTORE PUSH2 0x4C41 PUSH1 0xF0 SHL PUSH1 0x44 DUP3 ADD MSTORE PUSH1 0x64 ADD PUSH2 0x818 JUMP JUMPDEST PUSH1 0x0 PUSH5 0x1000276A3 PUSH1 0x1 PUSH1 0x1 PUSH1 0xA0 SHL SUB DUP4 AND LT DUP1 ISZERO SWAP1 PUSH2 0x3EE7 JUMPI POP PUSH20 0xFFFD8963EFD1FC6A506488495D951D5263988D26 PUSH1 0x1 PUSH1 0x1 PUSH1 0xA0 SHL SUB DUP4 AND LT JUMPDEST PUSH2 0x3F17 JUMPI PUSH1 0x40 MLOAD PUSH3 0x461BCD PUSH1 0xE5 SHL DUP2 MSTORE PUSH1 0x20 PUSH1 0x4 DUP3 ADD MSTORE PUSH1 0x1 PUSH1 0x24 DUP3 ADD MSTORE PUSH1 0x29 PUSH1 0xF9 SHL PUSH1 0x44 DUP3 ADD MSTORE PUSH1 0x64 ADD PUSH2 0x818 JUMP JUMPDEST PUSH5 0x100000000 PUSH1 0x1 PUSH1 0xC0 SHL SUB PUSH1 0x20 DUP4 SWAP1 SHL AND PUSH1 0x1 PUSH1 0x1 PUSH1 0x80 SHL SUB DUP2 GT PUSH1 0x7 SHL DUP2 DUP2 SHR PUSH8 0xFFFFFFFFFFFFFFFF DUP2 GT PUSH1 0x6 SHL SWAP1 DUP2 SHR PUSH4 0xFFFFFFFF DUP2 GT PUSH1 0x5 SHL SWAP1 DUP2 SHR PUSH2 0xFFFF DUP2 GT PUSH1 0x4 SHL SWAP1 DUP2 SHR PUSH1 0xFF DUP2 GT PUSH1 0x3 SWAP1 DUP2 SHL SWAP2 DUP3 SHR PUSH1 0xF DUP2 GT PUSH1 0x2 SHL SWAP1 DUP2 SHR SWAP2 DUP3 GT PUSH1 0x1 SWAP1 DUP2 SHL SWAP3 DUP4 SHR SWAP8 SWAP1 DUP9 GT SWAP7 OR SWAP1 SWAP5 OR SWAP1 SWAP3 OR OR SWAP1 SWAP2 OR OR OR PUSH1 0x80 DUP2 LT PUSH2 0x3FB2 JUMPI PUSH2 0x3FA8 PUSH1 0x7F DUP3 PUSH2 0x5C87 JUMP JUMPDEST DUP4 SWAP1 SHR SWAP2 POP PUSH2 0x3FC3 JUMP JUMPDEST PUSH2 0x3FBD DUP2 PUSH1 0x7F PUSH2 0x5C87 JUMP JUMPDEST DUP4 SWAP1 SHL SWAP2 POP JUMPDEST PUSH1 0x0 PUSH1 0x40 PUSH2 0x3FD2 PUSH1 0x80 DUP5 PUSH2 0x5DDC JUMP JUMPDEST SWAP1 SHL SWAP1 POP DUP3 DUP4 MUL PUSH1 0x7F SHR SWAP3 POP DUP3 PUSH1 0x80 SHR DUP1 PUSH1 0x3F SHL DUP3 OR SWAP2 POP DUP4 DUP2 SHR SWAP4 POP POP DUP3 DUP4 MUL PUSH1 0x7F SHR SWAP3 POP DUP3 PUSH1 0x80 SHR DUP1 PUSH1 0x3E SHL DUP3 OR SWAP2 POP DUP4 DUP2 SHR SWAP4 POP POP DUP3 DUP4 MUL PUSH1 0x7F SHR SWAP3 POP DUP3 PUSH1 0x80 SHR DUP1 PUSH1 0x3D SHL DUP3 OR SWAP2 POP DUP4 DUP2 SHR SWAP4 POP POP DUP3 DUP4 MUL PUSH1 0x7F SHR SWAP3 POP DUP3 PUSH1 0x80 SHR DUP1 PUSH1 0x3C SHL DUP3 OR SWAP2 POP DUP4 DUP2 SHR SWAP4 POP POP DUP3 DUP4 MUL PUSH1 0x7F SHR SWAP3 POP DUP3 PUSH1 0x80 SHR DUP1 PUSH1 0x3B SHL DUP3 OR SWAP2 POP DUP4 DUP2 SHR SWAP4 POP POP DUP3 DUP4 MUL PUSH1 0x7F SHR SWAP3 POP DUP3 PUSH1 0x80 SHR DUP1 PUSH1 0x3A SHL DUP3 OR SWAP2 POP DUP4 DUP2 SHR SWAP4 POP POP DUP3 DUP4 MUL PUSH1 0x7F SHR SWAP3 POP DUP3 PUSH1 0x80 SHR DUP1 PUSH1 0x39 SHL DUP3 OR SWAP2 POP DUP4 DUP2 SHR SWAP4 POP POP DUP3 DUP4 MUL PUSH1 0x7F SHR SWAP3 POP DUP3 PUSH1 0x80 SHR DUP1 PUSH1 0x38 SHL DUP3 OR SWAP2 POP DUP4 DUP2 SHR SWAP4 POP POP DUP3 DUP4 MUL PUSH1 0x7F SHR SWAP3 POP DUP3 PUSH1 0x80 SHR DUP1 PUSH1 0x37 SHL DUP3 OR SWAP2 POP DUP4 DUP2 SHR SWAP4 POP POP DUP3 DUP4 MUL PUSH1 0x7F SHR SWAP3 POP DUP3 PUSH1 0x80 SHR DUP1 PUSH1 0x36 SHL DUP3 OR SWAP2 POP DUP4 DUP2 SHR SWAP4 POP POP DUP3 DUP4 MUL PUSH1 0x7F SHR SWAP3 POP DUP3 PUSH1 0x80 SHR DUP1 PUSH1 0x35 SHL DUP3 OR SWAP2 POP DUP4 DUP2 SHR SWAP4 POP POP DUP3 DUP4 MUL PUSH1 0x7F SHR SWAP3 POP DUP3 PUSH1 0x80 SHR DUP1 PUSH1 0x34 SHL DUP3 OR SWAP2 POP DUP4 DUP2 SHR SWAP4 POP POP DUP3 DUP4 MUL PUSH1 0x7F SHR SWAP3 POP DUP3 PUSH1 0x80 SHR DUP1 PUSH1 0x33 SHL DUP3 OR SWAP2 POP DUP4 DUP2 SHR SWAP4 POP POP DUP3 DUP4 MUL PUSH1 0x7F SHR SWAP3 POP DUP3 PUSH1 0x80 SHR DUP1 PUSH1 0x32 SHL DUP3 OR SWAP2 POP POP PUSH1 0x0 DUP2 PUSH10 0x3627A301D71055774C85 PUSH2 0x4155 SWAP2 SWAP1 PUSH2 0x60F7 JUMP JUMPDEST SWAP1 POP PUSH1 0x0 PUSH1 0x80 PUSH2 0x4175 PUSH16 0x28F6481AB7F045A5AF012A19D003AAA DUP5 PUSH2 0x5DDC JUMP JUMPDEST SWAP1 SAR SWAP1 POP PUSH1 0x0 PUSH1 0x80 PUSH2 0x4197 DUP5 PUSH16 0xDB2DF09E81959A81455E260799A0632F PUSH2 0x5DFC JUMP JUMPDEST SWAP1 SAR SWAP1 POP DUP1 PUSH1 0x2 SIGNEXTEND DUP3 PUSH1 0x2 SIGNEXTEND EQ PUSH2 0x41D6 JUMPI DUP9 PUSH1 0x1 PUSH1 0x1 PUSH1 0xA0 SHL SUB AND PUSH2 0x41BB DUP3 PUSH2 0x36CE JUMP JUMPDEST PUSH1 0x1 PUSH1 0x1 PUSH1 0xA0 SHL SUB AND GT ISZERO PUSH2 0x41D0 JUMPI DUP2 PUSH2 0x3240 JUMP JUMPDEST DUP1 PUSH2 0x3240 JUMP JUMPDEST POP SWAP8 SWAP7 POP POP POP POP POP POP POP JUMP JUMPDEST PUSH1 0x0 DUP1 PUSH1 0x0 DUP10 DUP10 PUSH2 0xFFFF AND PUSH2 0xFFFF DUP2 LT PUSH2 0x41FE JUMPI PUSH2 0x41FE PUSH2 0x5F5C JUMP JUMPDEST PUSH1 0x40 DUP1 MLOAD PUSH1 0x80 DUP2 ADD DUP3 MSTORE SWAP2 SWAP1 SWAP3 ADD SLOAD PUSH4 0xFFFFFFFF DUP1 DUP3 AND DUP1 DUP5 MSTORE PUSH1 0x1 PUSH1 0x20 SHL DUP4 DIV PUSH1 0x6 SIGNEXTEND PUSH1 0x20 DUP6 ADD MSTORE PUSH1 0x1 PUSH1 0x58 SHL DUP4 DIV PUSH1 0x1 PUSH1 0x1 PUSH1 0xA0 SHL SUB AND SWAP5 DUP5 ADD SWAP5 SWAP1 SWAP5 MSTORE PUSH1 0x1 PUSH1 0xF8 SHL SWAP1 SWAP2 DIV PUSH1 0xFF AND ISZERO ISZERO PUSH1 0x60 DUP4 ADD MSTORE SWAP1 SWAP3 POP DUP10 AND SWAP1 SUB PUSH2 0x4267 JUMPI DUP9 DUP6 SWAP3 POP SWAP3 POP POP PUSH2 0x3505 JUMP JUMPDEST DUP5 PUSH2 0xFFFF AND DUP5 PUSH2 0xFFFF AND GT DUP1 ISZERO PUSH2 0x428F JUMPI POP PUSH2 0x4284 PUSH1 0x1 DUP7 PUSH2 0x6127 JUMP JUMPDEST PUSH2 0xFFFF AND DUP10 PUSH2 0xFFFF AND EQ JUMPDEST ISZERO PUSH2 0x429C JUMPI DUP4 SWAP2 POP PUSH2 0x42A0 JUMP JUMPDEST DUP5 SWAP2 POP JUMPDEST DUP2 PUSH2 0x42AC DUP11 PUSH1 0x1 PUSH2 0x6142 JUMP JUMPDEST PUSH2 0x42B6 SWAP2 SWAP1 PUSH2 0x615D JUMP JUMPDEST SWAP3 POP PUSH2 0x42C4 DUP2 DUP10 DUP10 DUP10 PUSH2 0x4643 JUMP JUMPDEST DUP11 DUP5 PUSH2 0xFFFF AND PUSH2 0xFFFF DUP2 LT PUSH2 0x42DB JUMPI PUSH2 0x42DB PUSH2 0x5F5C JUMP JUMPDEST DUP3 MLOAD SWAP2 ADD DUP1 SLOAD PUSH1 0x20 DUP5 ADD MLOAD PUSH1 0x40 DUP6 ADD MLOAD PUSH1 0x60 SWAP1 SWAP6 ADD MLOAD ISZERO ISZERO PUSH1 0x1 PUSH1 0xF8 SHL MUL PUSH1 0x1 PUSH1 0x1 PUSH1 0xF8 SHL SUB PUSH1 0x1 PUSH1 0x1 PUSH1 0xA0 SHL SUB SWAP1 SWAP7 AND PUSH1 0x1 PUSH1 0x58 SHL MUL SWAP6 SWAP1 SWAP6 AND PUSH11 0xFFFFFFFFFFFFFFFFFFFFFF PUSH7 0xFFFFFFFFFFFFFF SWAP1 SWAP3 AND PUSH1 0x1 PUSH1 0x20 SHL MUL PUSH11 0xFFFFFFFFFFFFFFFFFFFFFF NOT SWAP1 SWAP4 AND PUSH4 0xFFFFFFFF SWAP1 SWAP6 AND SWAP5 SWAP1 SWAP5 OR SWAP2 SWAP1 SWAP2 OR AND SWAP2 SWAP1 SWAP2 OR SWAP2 SWAP1 SWAP2 OR SWAP1 SSTORE POP SWAP8 POP SWAP8 SWAP6 POP POP POP POP POP POP JUMP JUMPDEST PUSH1 0x0 DUP1 DUP4 PUSH2 0xFFFF AND GT PUSH2 0x43A4 JUMPI PUSH1 0x40 MLOAD PUSH3 0x461BCD PUSH1 0xE5 SHL DUP2 MSTORE PUSH1 0x20 PUSH1 0x4 DUP3 ADD MSTORE PUSH1 0x1 PUSH1 0x24 DUP3 ADD MSTORE PUSH1 0x49 PUSH1 0xF8 SHL PUSH1 0x44 DUP3 ADD MSTORE PUSH1 0x64 ADD PUSH2 0x818 JUMP JUMPDEST DUP3 PUSH2 0xFFFF AND DUP3 PUSH2 0xFFFF AND GT PUSH2 0x43BA JUMPI POP DUP2 PUSH2 0x30C2 JUMP JUMPDEST DUP3 JUMPDEST DUP3 PUSH2 0xFFFF AND DUP2 PUSH2 0xFFFF AND LT ISZERO PUSH2 0x4410 JUMPI PUSH1 0x1 DUP6 DUP3 PUSH2 0xFFFF AND PUSH2 0xFFFF DUP2 LT PUSH2 0x43E5 JUMPI PUSH2 0x43E5 PUSH2 0x5F5C JUMP JUMPDEST ADD DUP1 SLOAD PUSH4 0xFFFFFFFF NOT AND PUSH4 0xFFFFFFFF SWAP3 SWAP1 SWAP3 AND SWAP2 SWAP1 SWAP2 OR SWAP1 SSTORE DUP1 PUSH2 0x4408 DUP2 PUSH2 0x617E JUMP JUMPDEST SWAP2 POP POP PUSH2 0x43BC JUMP JUMPDEST POP SWAP1 SWAP4 SWAP3 POP POP POP JUMP JUMPDEST PUSH1 0x0 PUSH2 0x4428 PUSH1 0x9 DUP8 DUP8 DUP8 PUSH2 0x2AEA JUMP JUMPDEST PUSH1 0x5 SLOAD SWAP1 SWAP2 POP PUSH1 0x0 DUP1 PUSH1 0xF DUP7 SWAP1 SIGNEXTEND ISZERO PUSH2 0x4547 JUMPI PUSH1 0x4 SLOAD PUSH1 0x6 SLOAD TIMESTAMP SWAP2 PUSH1 0x0 SWAP2 DUP3 SWAP2 PUSH2 0x4484 SWAP2 PUSH1 0xA SWAP2 DUP7 SWAP2 DUP6 SWAP2 PUSH1 0x1 PUSH1 0xA0 SHL DUP2 DIV PUSH1 0x2 SIGNEXTEND SWAP2 PUSH2 0xFFFF PUSH1 0x1 PUSH1 0xB8 SHL DUP4 DIV DUP2 AND SWAP3 PUSH1 0x1 PUSH1 0x1 PUSH1 0x80 SHL SUB SWAP1 SWAP3 AND SWAP2 PUSH1 0x1 PUSH1 0xC8 SHL SWAP1 DIV AND PUSH2 0x332C JUMP JUMPDEST PUSH1 0x0 DUP1 SLOAD SWAP3 SWAP5 POP SWAP1 SWAP3 POP PUSH2 0x44B1 SWAP2 PUSH1 0x7 SWAP2 DUP15 SWAP2 DUP13 SWAP2 DUP15 SWAP2 DUP13 SWAP2 DUP9 SWAP2 DUP11 SWAP2 DUP13 SWAP2 PUSH1 0x1 PUSH1 0x1 PUSH1 0x80 SHL SUB AND PUSH2 0x4DA8 JUMP JUMPDEST PUSH1 0x0 SLOAD SWAP1 SWAP6 POP PUSH2 0x44DD SWAP1 PUSH1 0x7 SWAP1 DUP13 SWAP1 DUP12 SWAP1 DUP14 SWAP1 DUP12 SWAP1 DUP8 SWAP1 DUP10 SWAP1 DUP12 SWAP1 PUSH1 0x1 SWAP1 PUSH1 0x1 PUSH1 0x1 PUSH1 0x80 SHL SUB AND PUSH2 0x4DA8 JUMP JUMPDEST SWAP4 POP DUP5 ISZERO PUSH2 0x4511 JUMPI PUSH2 0x4511 PUSH1 0x8 DUP13 PUSH32 0x0 PUSH2 0x4F56 JUMP JUMPDEST DUP4 ISZERO PUSH2 0x4543 JUMPI PUSH2 0x4543 PUSH1 0x8 DUP12 PUSH32 0x0 PUSH2 0x4F56 JUMP JUMPDEST POP POP POP JUMPDEST PUSH1 0x0 PUSH2 0x4557 PUSH1 0x7 DUP11 DUP11 DUP10 DUP9 PUSH2 0x4FA9 JUMP JUMPDEST SWAP1 POP PUSH2 0x4564 DUP6 DUP9 DUP4 PUSH2 0x5040 JUMP JUMPDEST PUSH1 0x0 DUP8 PUSH1 0xF SIGNEXTEND SLT ISZERO PUSH2 0x45C0 JUMPI DUP3 ISZERO PUSH2 0x4598 JUMPI PUSH1 0x2 DUP10 DUP2 SIGNEXTEND PUSH1 0x0 SWAP1 DUP2 MSTORE PUSH1 0x7 PUSH1 0x20 MSTORE PUSH1 0x40 DUP2 KECCAK256 DUP2 DUP2 SSTORE PUSH1 0x1 DUP2 ADD DUP3 SWAP1 SSTORE SWAP1 SWAP2 ADD SSTORE JUMPDEST DUP2 ISZERO PUSH2 0x45C0 JUMPI PUSH1 0x2 DUP9 DUP2 SIGNEXTEND PUSH1 0x0 SWAP1 DUP2 MSTORE PUSH1 0x7 PUSH1 0x20 MSTORE PUSH1 0x40 DUP2 KECCAK256 DUP2 DUP2 SSTORE PUSH1 0x1 DUP2 ADD DUP3 SWAP1 SSTORE SWAP1 SWAP2 ADD SSTORE JUMPDEST POP POP POP POP SWAP6 SWAP5 POP POP POP POP POP JUMP JUMPDEST PUSH1 0x0 DUP1 DUP3 PUSH1 0xF SIGNEXTEND SLT PUSH2 0x45EE JUMPI PUSH2 0x45E9 PUSH2 0x20C3 DUP6 DUP6 DUP6 PUSH1 0x1 PUSH2 0x4BF7 JUMP JUMPDEST PUSH2 0x3AE5 JUMP JUMPDEST PUSH2 0x4606 PUSH2 0x20C3 DUP6 DUP6 PUSH2 0x45FF DUP7 PUSH2 0x5D0E JUMP JUMPDEST PUSH1 0x0 PUSH2 0x4BF7 JUMP JUMPDEST PUSH2 0x3AE5 SWAP1 PUSH2 0x5D3D JUMP JUMPDEST PUSH1 0x0 DUP1 DUP3 PUSH1 0xF SIGNEXTEND SLT PUSH2 0x462B JUMPI PUSH2 0x45E9 PUSH2 0x20C3 DUP6 DUP6 DUP6 PUSH1 0x1 PUSH2 0x4B79 JUMP JUMPDEST PUSH2 0x4606 PUSH2 0x20C3 DUP6 DUP6 PUSH2 0x463C DUP7 PUSH2 0x5D0E JUMP JUMPDEST PUSH1 0x0 PUSH2 0x4B79 JUMP JUMPDEST PUSH1 0x40 DUP1 MLOAD PUSH1 0x80 DUP2 ADD DUP3 MSTORE PUSH1 0x0 DUP1 DUP3 MSTORE PUSH1 0x20 DUP3 ADD DUP2 SWAP1 MSTORE SWAP2 DUP2 ADD DUP3 SWAP1 MSTORE PUSH1 0x60 DUP2 ADD SWAP2 SWAP1 SWAP2 MSTORE DUP5 MLOAD PUSH1 0x0 SWAP1 PUSH2 0x4676 SWAP1 DUP7 PUSH2 0x5DA6 JUMP JUMPDEST SWAP1 POP PUSH1 0x40 MLOAD DUP1 PUSH1 0x80 ADD PUSH1 0x40 MSTORE DUP1 DUP7 PUSH4 0xFFFFFFFF AND DUP2 MSTORE PUSH1 0x20 ADD DUP3 DUP7 PUSH1 0x2 SIGNEXTEND PUSH2 0x469E SWAP2 SWAP1 PUSH2 0x619F JUMP JUMPDEST PUSH1 0x3 SIGNEXTEND DUP9 PUSH1 0x20 ADD MLOAD PUSH2 0x46B0 SWAP2 SWAP1 PUSH2 0x5FE0 JUMP JUMPDEST PUSH1 0x6 SIGNEXTEND DUP2 MSTORE PUSH1 0x20 ADD PUSH1 0x0 DUP6 PUSH1 0x1 PUSH1 0x1 PUSH1 0x80 SHL SUB AND GT PUSH2 0x46D0 JUMPI PUSH1 0x1 PUSH2 0x46D2 JUMP JUMPDEST DUP5 JUMPDEST PUSH2 0x46F2 SWAP1 PUSH1 0x1 PUSH1 0x1 PUSH1 0x80 SHL SUB AND PUSH4 0xFFFFFFFF PUSH1 0x80 SHL PUSH1 0x80 DUP7 SWAP1 SHL AND PUSH2 0x603F JUMP JUMPDEST DUP9 PUSH1 0x40 ADD MLOAD PUSH2 0x4701 SWAP2 SWAP1 PUSH2 0x6059 JUMP JUMPDEST PUSH1 0x1 PUSH1 0x1 PUSH1 0xA0 SHL SUB AND DUP2 MSTORE PUSH1 0x1 PUSH1 0x20 SWAP1 SWAP2 ADD MSTORE SWAP7 SWAP6 POP POP POP POP POP POP JUMP JUMPDEST PUSH1 0x40 DUP1 MLOAD PUSH1 0x80 DUP2 ADD DUP3 MSTORE PUSH1 0x0 DUP1 DUP3 MSTORE PUSH1 0x20 DUP3 ADD DUP2 SWAP1 MSTORE SWAP2 DUP2 ADD DUP3 SWAP1 MSTORE PUSH1 0x60 DUP2 ADD SWAP2 SWAP1 SWAP2 MSTORE PUSH1 0x40 DUP1 MLOAD PUSH1 0x80 DUP2 ADD DUP3 MSTORE PUSH1 0x0 DUP1 DUP3 MSTORE PUSH1 0x20 DUP3 ADD DUP2 SWAP1 MSTORE SWAP2 DUP2 ADD DUP3 SWAP1 MSTORE PUSH1 0x60 DUP2 ADD SWAP2 SWAP1 SWAP2 MSTORE DUP9 DUP6 PUSH2 0xFFFF AND PUSH2 0xFFFF DUP2 LT PUSH2 0x477D JUMPI PUSH2 0x477D PUSH2 0x5F5C JUMP JUMPDEST PUSH1 0x40 DUP1 MLOAD PUSH1 0x80 DUP2 ADD DUP3 MSTORE SWAP2 SWAP1 SWAP3 ADD SLOAD PUSH4 0xFFFFFFFF DUP2 AND DUP1 DUP4 MSTORE PUSH1 0x1 PUSH1 0x20 SHL DUP3 DIV PUSH1 0x6 SIGNEXTEND PUSH1 0x20 DUP5 ADD MSTORE PUSH1 0x1 PUSH1 0x58 SHL DUP3 DIV PUSH1 0x1 PUSH1 0x1 PUSH1 0xA0 SHL SUB AND SWAP4 DUP4 ADD SWAP4 SWAP1 SWAP4 MSTORE PUSH1 0x1 PUSH1 0xF8 SHL SWAP1 DIV PUSH1 0xFF AND ISZERO ISZERO PUSH1 0x60 DUP3 ADD MSTORE SWAP3 POP PUSH2 0x47DB SWAP1 DUP10 SWAP1 DUP10 PUSH2 0x5196 JUMP JUMPDEST ISZERO PUSH2 0x4807 JUMPI DUP2 MLOAD PUSH4 0xFFFFFFFF DUP9 DUP2 AND SWAP2 AND EQ PUSH2 0x3505 JUMPI DUP2 PUSH2 0x47FE DUP4 DUP10 DUP10 DUP9 PUSH2 0x4643 JUMP JUMPDEST SWAP2 POP SWAP2 POP PUSH2 0x3505 JUMP JUMPDEST DUP9 DUP4 PUSH2 0x4814 DUP8 PUSH1 0x1 PUSH2 0x6142 JUMP JUMPDEST PUSH2 0x481E SWAP2 SWAP1 PUSH2 0x615D JUMP JUMPDEST PUSH2 0xFFFF AND PUSH2 0xFFFF DUP2 LT PUSH2 0x4833 JUMPI PUSH2 0x4833 PUSH2 0x5F5C JUMP JUMPDEST PUSH1 0x40 DUP1 MLOAD PUSH1 0x80 DUP2 ADD DUP3 MSTORE SWAP3 SWAP1 SWAP2 ADD SLOAD PUSH4 0xFFFFFFFF DUP2 AND DUP4 MSTORE PUSH1 0x1 PUSH1 0x20 SHL DUP2 DIV PUSH1 0x6 SIGNEXTEND PUSH1 0x20 DUP5 ADD MSTORE PUSH1 0x1 PUSH1 0x1 PUSH1 0xA0 SHL SUB PUSH1 0x1 PUSH1 0x58 SHL DUP3 DIV AND SWAP2 DUP4 ADD SWAP2 SWAP1 SWAP2 MSTORE PUSH1 0xFF PUSH1 0x1 PUSH1 0xF8 SHL SWAP1 SWAP2 DIV AND ISZERO ISZERO PUSH1 0x60 DUP3 ADD DUP2 SWAP1 MSTORE SWAP1 SWAP3 POP PUSH2 0x48DC JUMPI PUSH1 0x40 DUP1 MLOAD PUSH1 0x80 DUP2 ADD DUP3 MSTORE DUP11 SLOAD PUSH4 0xFFFFFFFF DUP2 AND DUP3 MSTORE PUSH1 0x1 PUSH1 0x20 SHL DUP2 DIV PUSH1 0x6 SIGNEXTEND PUSH1 0x20 DUP4 ADD MSTORE PUSH1 0x1 PUSH1 0x58 SHL DUP2 DIV PUSH1 0x1 PUSH1 0x1 PUSH1 0xA0 SHL SUB AND SWAP3 DUP3 ADD SWAP3 SWAP1 SWAP3 MSTORE PUSH1 0x1 PUSH1 0xF8 SHL SWAP1 SWAP2 DIV PUSH1 0xFF AND ISZERO ISZERO PUSH1 0x60 DUP3 ADD MSTORE SWAP2 POP JUMPDEST PUSH2 0x48EB DUP9 DUP4 PUSH1 0x0 ADD MLOAD DUP10 PUSH2 0x5196 JUMP JUMPDEST PUSH2 0x491D JUMPI PUSH1 0x40 MLOAD PUSH3 0x461BCD PUSH1 0xE5 SHL DUP2 MSTORE PUSH1 0x20 PUSH1 0x4 DUP3 ADD MSTORE PUSH1 0x3 PUSH1 0x24 DUP3 ADD MSTORE PUSH3 0x13D311 PUSH1 0xEA SHL PUSH1 0x44 DUP3 ADD MSTORE PUSH1 0x64 ADD PUSH2 0x818 JUMP JUMPDEST PUSH2 0x492A DUP10 DUP10 DUP10 DUP9 DUP8 PUSH2 0x5265 JUMP JUMPDEST SWAP2 POP SWAP2 POP SWAP8 POP SWAP8 SWAP6 POP POP POP POP POP POP JUMP JUMPDEST PUSH1 0x2 DUP2 SWAP1 SIGNEXTEND PUSH1 0x8 SAR PUSH1 0x0 PUSH2 0x4950 PUSH2 0x100 DUP5 PUSH2 0x61BF JUMP JUMPDEST SWAP1 POP SWAP2 POP SWAP2 JUMP JUMPDEST PUSH1 0x0 DUP1 DUP3 GT PUSH2 0x4965 JUMPI PUSH1 0x0 DUP1 REVERT JUMPDEST PUSH1 0x1 PUSH1 0x80 SHL DUP3 LT PUSH2 0x4983 JUMPI PUSH1 0x80 SWAP2 DUP3 SHR SWAP2 PUSH2 0x4980 SWAP1 DUP3 PUSH2 0x5C51 JUMP JUMPDEST SWAP1 POP JUMPDEST PUSH9 0x10000000000000000 DUP3 LT PUSH2 0x49A6 JUMPI PUSH1 0x40 SWAP2 DUP3 SHR SWAP2 PUSH2 0x49A3 SWAP1 DUP3 PUSH2 0x5C51 JUMP JUMPDEST SWAP1 POP JUMPDEST PUSH1 0x1 PUSH1 0x20 SHL DUP3 LT PUSH2 0x49C4 JUMPI PUSH1 0x20 SWAP2 DUP3 SHR SWAP2 PUSH2 0x49C1 SWAP1 DUP3 PUSH2 0x5C51 JUMP JUMPDEST SWAP1 POP JUMPDEST PUSH3 0x10000 DUP3 LT PUSH2 0x49E1 JUMPI PUSH1 0x10 SWAP2 DUP3 SHR SWAP2 PUSH2 0x49DE SWAP1 DUP3 PUSH2 0x5C51 JUMP JUMPDEST SWAP1 POP JUMPDEST PUSH2 0x100 DUP3 LT PUSH2 0x49FD JUMPI PUSH1 0x8 SWAP2 DUP3 SHR SWAP2 PUSH2 0x49FA SWAP1 DUP3 PUSH2 0x5C51 JUMP JUMPDEST SWAP1 POP JUMPDEST PUSH1 0x10 DUP3 LT PUSH2 0x4A18 JUMPI PUSH1 0x4 SWAP2 DUP3 SHR SWAP2 PUSH2 0x4A15 SWAP1 DUP3 PUSH2 0x5C51 JUMP JUMPDEST SWAP1 POP JUMPDEST PUSH1 0x4 DUP3 LT PUSH2 0x4A33 JUMPI PUSH1 0x2 SWAP2 DUP3 SHR SWAP2 PUSH2 0x4A30 SWAP1 DUP3 PUSH2 0x5C51 JUMP JUMPDEST SWAP1 POP JUMPDEST PUSH1 0x2 DUP3 LT PUSH2 0x4A49 JUMPI PUSH2 0x4A46 PUSH1 0x1 DUP3 PUSH2 0x5C51 JUMP JUMPDEST SWAP1 POP JUMPDEST SWAP2 SWAP1 POP JUMP JUMPDEST PUSH1 0x0 DUP1 DUP3 GT PUSH2 0x4A5C JUMPI PUSH1 0x0 DUP1 REVERT JUMPDEST POP PUSH1 0xFF PUSH1 0x1 PUSH1 0x1 PUSH1 0x80 SHL SUB DUP3 AND ISZERO PUSH2 0x4A80 JUMPI PUSH2 0x4A79 PUSH1 0x80 DUP3 PUSH2 0x5E24 JUMP JUMPDEST SWAP1 POP PUSH2 0x4A88 JUMP JUMPDEST PUSH1 0x80 DUP3 SWAP1 SHR SWAP2 POP JUMPDEST PUSH8 0xFFFFFFFFFFFFFFFF DUP3 AND ISZERO PUSH2 0x4AAA JUMPI PUSH2 0x4AA3 PUSH1 0x40 DUP3 PUSH2 0x5E24 JUMP JUMPDEST SWAP1 POP PUSH2 0x4AB2 JUMP JUMPDEST PUSH1 0x40 DUP3 SWAP1 SHR SWAP2 POP JUMPDEST PUSH4 0xFFFFFFFF DUP3 AND ISZERO PUSH2 0x4AD0 JUMPI PUSH2 0x4AC9 PUSH1 0x20 DUP3 PUSH2 0x5E24 JUMP JUMPDEST SWAP1 POP PUSH2 0x4AD8 JUMP JUMPDEST PUSH1 0x20 DUP3 SWAP1 SHR SWAP2 POP JUMPDEST PUSH2 0xFFFF DUP3 AND ISZERO PUSH2 0x4AF4 JUMPI PUSH2 0x4AED PUSH1 0x10 DUP3 PUSH2 0x5E24 JUMP JUMPDEST SWAP1 POP PUSH2 0x4AFC JUMP JUMPDEST PUSH1 0x10 DUP3 SWAP1 SHR SWAP2 POP JUMPDEST PUSH1 0xFF DUP3 AND ISZERO PUSH2 0x4B17 JUMPI PUSH2 0x4B10 PUSH1 0x8 DUP3 PUSH2 0x5E24 JUMP JUMPDEST SWAP1 POP PUSH2 0x4B1F JUMP JUMPDEST PUSH1 0x8 DUP3 SWAP1 SHR SWAP2 POP JUMPDEST PUSH1 0xF DUP3 AND ISZERO PUSH2 0x4B3A JUMPI PUSH2 0x4B33 PUSH1 0x4 DUP3 PUSH2 0x5E24 JUMP JUMPDEST SWAP1 POP PUSH2 0x4B42 JUMP JUMPDEST PUSH1 0x4 DUP3 SWAP1 SHR SWAP2 POP JUMPDEST PUSH1 0x3 DUP3 AND ISZERO PUSH2 0x4B5D JUMPI PUSH2 0x4B56 PUSH1 0x2 DUP3 PUSH2 0x5E24 JUMP JUMPDEST SWAP1 POP PUSH2 0x4B65 JUMP JUMPDEST PUSH1 0x2 DUP3 SWAP1 SHR SWAP2 POP JUMPDEST PUSH1 0x1 DUP3 AND ISZERO PUSH2 0x4A49 JUMPI PUSH2 0x4A46 PUSH1 0x1 DUP3 PUSH2 0x5E24 JUMP JUMPDEST PUSH1 0x0 DUP4 PUSH1 0x1 PUSH1 0x1 PUSH1 0xA0 SHL SUB AND DUP6 PUSH1 0x1 PUSH1 0x1 PUSH1 0xA0 SHL SUB AND GT ISZERO PUSH2 0x4B99 JUMPI SWAP3 SWAP4 SWAP3 JUMPDEST DUP2 PUSH2 0x4BCD JUMPI PUSH2 0x4BC8 PUSH1 0x1 PUSH1 0x1 PUSH1 0x80 SHL SUB DUP5 AND PUSH2 0x4BB5 DUP8 DUP8 PUSH2 0x5D86 JUMP JUMPDEST PUSH1 0x1 PUSH1 0x1 PUSH1 0xA0 SHL SUB AND PUSH1 0x1 PUSH1 0x60 SHL PUSH2 0x30C9 JUMP JUMPDEST PUSH2 0x29E1 JUMP JUMPDEST PUSH2 0x29E1 PUSH1 0x1 PUSH1 0x1 PUSH1 0x80 SHL SUB DUP5 AND PUSH2 0x4BE4 DUP8 DUP8 PUSH2 0x5D86 JUMP JUMPDEST PUSH1 0x1 PUSH1 0x1 PUSH1 0xA0 SHL SUB AND PUSH1 0x1 PUSH1 0x60 SHL PUSH2 0x307E JUMP JUMPDEST PUSH1 0x0 DUP4 PUSH1 0x1 PUSH1 0x1 PUSH1 0xA0 SHL SUB AND DUP6 PUSH1 0x1 PUSH1 0x1 PUSH1 0xA0 SHL SUB AND GT ISZERO PUSH2 0x4C17 JUMPI SWAP3 SWAP4 SWAP3 JUMPDEST PUSH1 0x1 PUSH1 0x60 SHL PUSH1 0x1 PUSH1 0xE0 SHL SUB PUSH1 0x60 DUP5 SWAP1 SHL AND PUSH1 0x0 PUSH2 0x4C34 DUP8 DUP8 PUSH2 0x5D86 JUMP JUMPDEST PUSH1 0x1 PUSH1 0x1 PUSH1 0xA0 SHL SUB AND SWAP1 POP PUSH1 0x0 DUP8 PUSH1 0x1 PUSH1 0x1 PUSH1 0xA0 SHL SUB AND GT PUSH2 0x4C55 JUMPI PUSH1 0x0 DUP1 REVERT JUMPDEST DUP4 PUSH2 0x4C87 JUMPI DUP7 PUSH1 0x1 PUSH1 0x1 PUSH1 0xA0 SHL SUB AND PUSH2 0x4C78 DUP4 DUP4 DUP10 PUSH1 0x1 PUSH1 0x1 PUSH1 0xA0 SHL SUB AND PUSH2 0x30C9 JUMP JUMPDEST PUSH2 0x4C82 SWAP2 SWAP1 PUSH2 0x5CD0 JUMP JUMPDEST PUSH2 0x4CB3 JUMP JUMPDEST PUSH2 0x4CB3 PUSH2 0x4C9E DUP4 DUP4 DUP10 PUSH1 0x1 PUSH1 0x1 PUSH1 0xA0 SHL SUB AND PUSH2 0x307E JUMP JUMPDEST DUP9 PUSH1 0x1 PUSH1 0x1 PUSH1 0xA0 SHL SUB AND DUP1 DUP3 DIV SWAP2 MOD ISZERO ISZERO ADD SWAP1 JUMP JUMPDEST SWAP8 SWAP7 POP POP POP POP POP POP POP JUMP JUMPDEST PUSH1 0x0 DUP1 DUP3 SLT ISZERO PUSH2 0x3CA9 JUMPI PUSH1 0x40 MLOAD PUSH3 0x461BCD PUSH1 0xE5 SHL DUP2 MSTORE PUSH1 0x20 PUSH1 0x4 DUP3 ADD DUP2 SWAP1 MSTORE PUSH1 0x24 DUP3 ADD MSTORE PUSH32 0x53616665436173743A2076616C7565206D75737420626520706F736974697665 PUSH1 0x44 DUP3 ADD MSTORE PUSH1 0x64 ADD PUSH2 0x818 JUMP JUMPDEST PUSH1 0x0 DUP1 DUP6 PUSH1 0x1 PUSH1 0x1 PUSH1 0xA0 SHL SUB AND GT PUSH2 0x4D27 JUMPI PUSH1 0x0 DUP1 REVERT JUMPDEST PUSH1 0x0 DUP5 PUSH1 0x1 PUSH1 0x1 PUSH1 0x80 SHL SUB AND GT PUSH2 0x4D3D JUMPI PUSH1 0x0 DUP1 REVERT JUMPDEST DUP2 PUSH2 0x4D4F JUMPI PUSH2 0x4BC8 DUP6 DUP6 DUP6 PUSH1 0x1 PUSH2 0x547D JUMP JUMPDEST PUSH2 0x29E1 DUP6 DUP6 DUP6 PUSH1 0x1 PUSH2 0x5564 JUMP JUMPDEST PUSH1 0x0 DUP1 DUP6 PUSH1 0x1 PUSH1 0x1 PUSH1 0xA0 SHL SUB AND GT PUSH2 0x4D73 JUMPI PUSH1 0x0 DUP1 REVERT JUMPDEST PUSH1 0x0 DUP5 PUSH1 0x1 PUSH1 0x1 PUSH1 0x80 SHL SUB AND GT PUSH2 0x4D89 JUMPI PUSH1 0x0 DUP1 REVERT JUMPDEST DUP2 PUSH2 0x4D9B JUMPI PUSH2 0x4BC8 DUP6 DUP6 DUP6 PUSH1 0x0 PUSH2 0x5564 JUMP JUMPDEST PUSH2 0x29E1 DUP6 DUP6 DUP6 PUSH1 0x0 PUSH2 0x547D JUMP JUMPDEST PUSH1 0x2 DUP10 SWAP1 SIGNEXTEND PUSH1 0x0 SWAP1 DUP2 MSTORE PUSH1 0x20 DUP12 SWAP1 MSTORE PUSH1 0x40 DUP2 KECCAK256 DUP1 SLOAD PUSH1 0x1 PUSH1 0x1 PUSH1 0x80 SHL SUB AND DUP3 PUSH2 0x4DD1 DUP3 DUP13 PUSH2 0x3DEB JUMP JUMPDEST SWAP1 POP DUP5 PUSH1 0x1 PUSH1 0x1 PUSH1 0x80 SHL SUB AND DUP2 PUSH1 0x1 PUSH1 0x1 PUSH1 0x80 SHL SUB AND GT ISZERO PUSH2 0x4E1A JUMPI PUSH1 0x40 MLOAD PUSH3 0x461BCD PUSH1 0xE5 SHL DUP2 MSTORE PUSH1 0x20 PUSH1 0x4 DUP3 ADD MSTORE PUSH1 0x2 PUSH1 0x24 DUP3 ADD MSTORE PUSH2 0x4C4F PUSH1 0xF0 SHL PUSH1 0x44 DUP3 ADD MSTORE PUSH1 0x64 ADD PUSH2 0x818 JUMP JUMPDEST PUSH1 0x1 PUSH1 0x1 PUSH1 0x80 SHL SUB DUP2 DUP2 AND ISZERO SWAP1 DUP4 AND DUP1 ISZERO SWAP2 SWAP1 SWAP2 EQ ISZERO SWAP5 POP PUSH1 0x0 SUB PUSH2 0x4EC6 JUMPI DUP12 PUSH1 0x2 SIGNEXTEND DUP14 PUSH1 0x2 SIGNEXTEND SGT PUSH2 0x4EAE JUMPI PUSH1 0x1 DUP4 ADD DUP11 SWAP1 SSTORE PUSH1 0x2 DUP4 ADD DUP1 SLOAD PUSH7 0xFFFFFFFFFFFFFF DUP11 AND PUSH1 0x1 PUSH1 0x1 PUSH1 0xF8 SHL SUB NOT SWAP1 SWAP2 AND PUSH1 0x1 PUSH1 0x38 SHL PUSH1 0x1 PUSH1 0x1 PUSH1 0xA0 SHL SUB DUP14 AND MUL PUSH32 0xFF00000000FFFFFFFFFFFFFFFFFFFFFFFFFFFFFFFFFFFFFFFF00000000000000 AND OR OR PUSH1 0x1 PUSH1 0xD8 SHL PUSH4 0xFFFFFFFF DUP11 AND MUL OR SWAP1 SSTORE JUMPDEST PUSH1 0x2 DUP4 ADD DUP1 SLOAD PUSH1 0x1 PUSH1 0x1 PUSH1 0xF8 SHL SUB AND PUSH1 0x1 PUSH1 0xF8 SHL OR SWAP1 SSTORE JUMPDEST DUP3 SLOAD PUSH1 0x1 PUSH1 0x1 PUSH1 0x80 SHL SUB NOT AND PUSH1 0x1 PUSH1 0x1 PUSH1 0x80 SHL SUB DUP3 AND OR DUP4 SSTORE DUP6 PUSH2 0x4F0D JUMPI DUP3 SLOAD PUSH2 0x4F08 SWAP1 PUSH2 0x4F03 SWAP1 PUSH1 0x1 PUSH1 0x80 SHL SWAP1 DIV PUSH1 0xF SWAP1 DUP2 SIGNEXTEND SWAP1 DUP15 SWAP1 SIGNEXTEND PUSH2 0x3CCD JUMP JUMPDEST PUSH2 0x567B JUMP JUMPDEST PUSH2 0x4F2C JUMP JUMPDEST DUP3 SLOAD PUSH2 0x4F2C SWAP1 PUSH2 0x4F03 SWAP1 PUSH1 0x1 PUSH1 0x80 SHL SWAP1 DIV PUSH1 0xF SWAP1 DUP2 SIGNEXTEND SWAP1 DUP15 SWAP1 SIGNEXTEND PUSH2 0x3CAD JUMP JUMPDEST DUP4 SLOAD PUSH1 0x1 PUSH1 0x1 PUSH1 0x80 SHL SUB SWAP2 DUP3 AND PUSH1 0x1 PUSH1 0x80 SHL MUL SWAP2 AND OR SWAP1 SWAP3 SSTORE POP SWAP1 SWAP12 SWAP11 POP POP POP POP POP POP POP POP POP POP POP JUMP JUMPDEST PUSH2 0x4F60 DUP2 DUP4 PUSH2 0x6079 JUMP JUMPDEST PUSH1 0x2 SIGNEXTEND ISZERO PUSH2 0x4F6D JUMPI PUSH1 0x0 DUP1 REVERT JUMPDEST PUSH1 0x0 DUP1 PUSH2 0x4F7D PUSH2 0x3610 DUP5 DUP7 PUSH2 0x5E62 JUMP JUMPDEST PUSH1 0x1 SWAP2 DUP3 SIGNEXTEND PUSH1 0x0 SWAP1 DUP2 MSTORE PUSH1 0x20 SWAP8 SWAP1 SWAP8 MSTORE PUSH1 0x40 SWAP1 SWAP7 KECCAK256 DUP1 SLOAD PUSH1 0xFF SWAP1 SWAP8 AND SWAP2 SWAP1 SWAP2 SHL SWAP1 SWAP6 XOR SWAP1 SWAP5 SSTORE POP POP POP POP JUMP JUMPDEST PUSH1 0x2 DUP5 DUP2 SIGNEXTEND PUSH1 0x0 DUP2 DUP2 MSTORE PUSH1 0x20 DUP9 SWAP1 MSTORE PUSH1 0x40 DUP1 DUP3 KECCAK256 DUP8 DUP6 SIGNEXTEND DUP4 MSTORE SWAP1 DUP3 KECCAK256 SWAP2 SWAP4 SWAP1 SWAP3 DUP5 SWAP2 DUP8 SWAP1 SIGNEXTEND SLT PUSH2 0x4FDE JUMPI POP PUSH1 0x1 DUP3 ADD SLOAD PUSH2 0x4FF0 JUMP JUMPDEST PUSH1 0x1 DUP4 ADD SLOAD PUSH2 0x4FED SWAP1 DUP7 PUSH2 0x5C87 JUMP JUMPDEST SWAP1 POP JUMPDEST PUSH1 0x0 DUP8 PUSH1 0x2 SIGNEXTEND DUP8 PUSH1 0x2 SIGNEXTEND SLT ISZERO PUSH2 0x500B JUMPI POP PUSH1 0x1 DUP3 ADD SLOAD PUSH2 0x501D JUMP JUMPDEST PUSH1 0x1 DUP4 ADD SLOAD PUSH2 0x501A SWAP1 DUP8 PUSH2 0x5C87 JUMP JUMPDEST SWAP1 POP JUMPDEST DUP1 PUSH2 0x5028 DUP4 DUP9 PUSH2 0x5C87 JUMP JUMPDEST PUSH2 0x5032 SWAP2 SWAP1 PUSH2 0x5C87 JUMP JUMPDEST SWAP11 SWAP10 POP POP POP POP POP POP POP POP POP POP JUMP JUMPDEST PUSH1 0x40 DUP1 MLOAD PUSH1 0x80 DUP2 ADD DUP3 MSTORE DUP5 SLOAD PUSH1 0x1 PUSH1 0x1 PUSH1 0x80 SHL SUB SWAP1 DUP2 AND DUP3 MSTORE PUSH1 0x1 DUP7 ADD SLOAD PUSH1 0x20 DUP4 ADD MSTORE PUSH1 0x2 DUP7 ADD SLOAD DUP1 DUP3 AND SWAP4 DUP4 ADD SWAP4 SWAP1 SWAP4 MSTORE PUSH1 0x1 PUSH1 0x80 SHL SWAP1 SWAP3 DIV SWAP1 SWAP2 AND PUSH1 0x60 DUP3 ADD MSTORE PUSH1 0x0 PUSH1 0xF DUP5 SWAP1 SIGNEXTEND DUP2 SUB PUSH2 0x50D3 JUMPI DUP2 MLOAD PUSH1 0x1 PUSH1 0x1 PUSH1 0x80 SHL SUB AND PUSH2 0x50CB JUMPI PUSH1 0x40 MLOAD PUSH3 0x461BCD PUSH1 0xE5 SHL DUP2 MSTORE PUSH1 0x20 PUSH1 0x4 DUP3 ADD MSTORE PUSH1 0x2 PUSH1 0x24 DUP3 ADD MSTORE PUSH2 0x4E5 PUSH1 0xF4 SHL PUSH1 0x44 DUP3 ADD MSTORE PUSH1 0x64 ADD PUSH2 0x818 JUMP JUMPDEST POP DUP1 MLOAD PUSH2 0x50E2 JUMP JUMPDEST DUP2 MLOAD PUSH2 0x50DF SWAP1 DUP6 PUSH2 0x3DEB JUMP JUMPDEST SWAP1 POP JUMPDEST PUSH1 0x0 PUSH2 0x510C DUP4 PUSH1 0x20 ADD MLOAD DUP6 PUSH2 0x50F7 SWAP2 SWAP1 PUSH2 0x5C87 JUMP JUMPDEST DUP5 MLOAD PUSH1 0x1 PUSH1 0x1 PUSH1 0x80 SHL SUB AND PUSH1 0x1 PUSH1 0x80 SHL PUSH2 0x30C9 JUMP JUMPDEST SWAP1 POP DUP5 PUSH1 0xF SIGNEXTEND PUSH1 0x0 EQ PUSH2 0x5133 JUMPI DUP6 SLOAD PUSH1 0x1 PUSH1 0x1 PUSH1 0x80 SHL SUB NOT AND PUSH1 0x1 PUSH1 0x1 PUSH1 0x80 SHL SUB DUP4 AND OR DUP7 SSTORE JUMPDEST PUSH1 0x1 DUP7 ADD DUP5 SWAP1 SSTORE PUSH1 0x1 PUSH1 0x1 PUSH1 0x80 SHL SUB DUP2 AND ISZERO PUSH2 0x518E JUMPI PUSH1 0x2 DUP7 ADD DUP1 SLOAD DUP3 SWAP2 SWAP1 PUSH1 0x0 SWAP1 PUSH2 0x5169 SWAP1 DUP5 SWAP1 PUSH1 0x1 PUSH1 0x1 PUSH1 0x80 SHL SUB AND PUSH2 0x5C9A JUMP JUMPDEST SWAP3 POP PUSH2 0x100 EXP DUP2 SLOAD DUP2 PUSH1 0x1 PUSH1 0x1 PUSH1 0x80 SHL SUB MUL NOT AND SWAP1 DUP4 PUSH1 0x1 PUSH1 0x1 PUSH1 0x80 SHL SUB AND MUL OR SWAP1 SSTORE POP JUMPDEST POP POP POP POP POP POP JUMP JUMPDEST PUSH1 0x0 DUP4 PUSH4 0xFFFFFFFF AND DUP4 PUSH4 0xFFFFFFFF AND GT ISZERO DUP1 ISZERO PUSH2 0x51C0 JUMPI POP DUP4 PUSH4 0xFFFFFFFF AND DUP3 PUSH4 0xFFFFFFFF AND GT ISZERO JUMPDEST ISZERO PUSH2 0x51DC JUMPI DUP2 PUSH4 0xFFFFFFFF AND DUP4 PUSH4 0xFFFFFFFF AND GT ISZERO SWAP1 POP PUSH2 0x30C2 JUMP JUMPDEST PUSH1 0x0 DUP5 PUSH4 0xFFFFFFFF AND DUP5 PUSH4 0xFFFFFFFF AND GT PUSH2 0x520A JUMPI PUSH2 0x5205 PUSH4 0xFFFFFFFF DUP6 AND PUSH1 0x1 PUSH1 0x20 SHL PUSH2 0x61D5 JUMP JUMPDEST PUSH2 0x5212 JUMP JUMPDEST DUP4 PUSH4 0xFFFFFFFF AND JUMPDEST PUSH5 0xFFFFFFFFFF AND SWAP1 POP PUSH1 0x0 DUP6 PUSH4 0xFFFFFFFF AND DUP5 PUSH4 0xFFFFFFFF AND GT PUSH2 0x5249 JUMPI PUSH2 0x5244 PUSH4 0xFFFFFFFF DUP6 AND PUSH1 0x1 PUSH1 0x20 SHL PUSH2 0x61D5 JUMP JUMPDEST PUSH2 0x5251 JUMP JUMPDEST DUP4 PUSH4 0xFFFFFFFF AND JUMPDEST PUSH5 0xFFFFFFFFFF AND SWAP1 SWAP2 GT ISZERO SWAP6 SWAP5 POP POP POP POP POP JUMP JUMPDEST PUSH1 0x40 DUP1 MLOAD PUSH1 0x80 DUP2 ADD DUP3 MSTORE PUSH1 0x0 DUP1 DUP3 MSTORE PUSH1 0x20 DUP3 ADD DUP2 SWAP1 MSTORE SWAP2 DUP2 ADD DUP3 SWAP1 MSTORE PUSH1 0x60 DUP2 ADD SWAP2 SWAP1 SWAP2 MSTORE PUSH1 0x40 DUP1 MLOAD PUSH1 0x80 DUP2 ADD DUP3 MSTORE PUSH1 0x0 DUP1 DUP3 MSTORE PUSH1 0x20 DUP3 ADD DUP2 SWAP1 MSTORE SWAP2 DUP2 ADD DUP3 SWAP1 MSTORE PUSH1 0x60 DUP2 ADD SWAP2 SWAP1 SWAP2 MSTORE PUSH1 0x0 DUP4 PUSH2 0x52BB DUP7 PUSH1 0x1 PUSH2 0x6142 JUMP JUMPDEST PUSH2 0x52C5 SWAP2 SWAP1 PUSH2 0x615D JUMP JUMPDEST PUSH2 0xFFFF AND SWAP1 POP PUSH1 0x0 PUSH1 0x1 DUP6 PUSH2 0xFFFF AND DUP4 PUSH2 0x52DF SWAP2 SWAP1 PUSH2 0x5CFB JUMP JUMPDEST PUSH2 0x52E9 SWAP2 SWAP1 PUSH2 0x5C87 JUMP JUMPDEST SWAP1 POP PUSH1 0x0 JUMPDEST PUSH1 0x2 PUSH2 0x52FA DUP4 DUP6 PUSH2 0x5CFB JUMP JUMPDEST PUSH2 0x5304 SWAP2 SWAP1 PUSH2 0x5CD0 JUMP JUMPDEST SWAP1 POP DUP10 PUSH2 0x5315 PUSH2 0xFFFF DUP9 AND DUP4 PUSH2 0x60E3 JUMP JUMPDEST PUSH2 0xFFFF DUP2 LT PUSH2 0x5326 JUMPI PUSH2 0x5326 PUSH2 0x5F5C JUMP JUMPDEST PUSH1 0x40 DUP1 MLOAD PUSH1 0x80 DUP2 ADD DUP3 MSTORE SWAP3 SWAP1 SWAP2 ADD SLOAD PUSH4 0xFFFFFFFF DUP2 AND DUP4 MSTORE PUSH1 0x1 PUSH1 0x20 SHL DUP2 DIV PUSH1 0x6 SIGNEXTEND PUSH1 0x20 DUP5 ADD MSTORE PUSH1 0x1 PUSH1 0x1 PUSH1 0xA0 SHL SUB PUSH1 0x1 PUSH1 0x58 SHL DUP3 DIV AND SWAP2 DUP4 ADD SWAP2 SWAP1 SWAP2 MSTORE PUSH1 0xFF PUSH1 0x1 PUSH1 0xF8 SHL SWAP1 SWAP2 DIV AND ISZERO ISZERO PUSH1 0x60 DUP3 ADD DUP2 SWAP1 MSTORE SWAP1 SWAP6 POP PUSH2 0x5391 JUMPI PUSH2 0x538A DUP2 PUSH1 0x1 PUSH2 0x5CFB JUMP JUMPDEST SWAP3 POP PUSH2 0x52EE JUMP JUMPDEST DUP10 PUSH2 0xFFFF DUP8 AND PUSH2 0x53A2 DUP4 PUSH1 0x1 PUSH2 0x5CFB JUMP JUMPDEST PUSH2 0x53AC SWAP2 SWAP1 PUSH2 0x60E3 JUMP JUMPDEST PUSH2 0xFFFF DUP2 LT PUSH2 0x53BD JUMPI PUSH2 0x53BD PUSH2 0x5F5C JUMP JUMPDEST PUSH1 0x40 DUP1 MLOAD PUSH1 0x80 DUP2 ADD DUP3 MSTORE SWAP3 SWAP1 SWAP2 ADD SLOAD PUSH4 0xFFFFFFFF DUP2 AND DUP4 MSTORE PUSH1 0x1 PUSH1 0x20 SHL DUP2 DIV PUSH1 0x6 SIGNEXTEND PUSH1 0x20 DUP5 ADD MSTORE PUSH1 0x1 PUSH1 0x1 PUSH1 0xA0 SHL SUB PUSH1 0x1 PUSH1 0x58 SHL DUP3 DIV AND SWAP2 DUP4 ADD SWAP2 SWAP1 SWAP2 MSTORE PUSH1 0xFF PUSH1 0x1 PUSH1 0xF8 SHL SWAP1 SWAP2 DIV AND ISZERO ISZERO PUSH1 0x60 DUP3 ADD MSTORE DUP6 MLOAD SWAP1 SWAP5 POP PUSH1 0x0 SWAP1 PUSH2 0x5421 SWAP1 DUP12 SWAP1 DUP12 PUSH2 0x5196 JUMP JUMPDEST SWAP1 POP DUP1 DUP1 ISZERO PUSH2 0x543A JUMPI POP PUSH2 0x543A DUP11 DUP11 DUP8 PUSH1 0x0 ADD MLOAD PUSH2 0x5196 JUMP JUMPDEST ISZERO PUSH2 0x5445 JUMPI POP PUSH2 0x5470 JUMP JUMPDEST DUP1 PUSH2 0x545C JUMPI PUSH2 0x5455 PUSH1 0x1 DUP4 PUSH2 0x5C87 JUMP JUMPDEST SWAP3 POP PUSH2 0x546A JUMP JUMPDEST PUSH2 0x5467 DUP3 PUSH1 0x1 PUSH2 0x5CFB JUMP JUMPDEST SWAP4 POP JUMPDEST POP PUSH2 0x52EE JUMP JUMPDEST POP POP POP SWAP6 POP SWAP6 SWAP4 POP POP POP POP JUMP JUMPDEST PUSH1 0x0 DUP2 ISZERO PUSH2 0x54EF JUMPI PUSH1 0x0 PUSH1 0x1 PUSH1 0x1 PUSH1 0xA0 SHL SUB DUP5 GT ISZERO PUSH2 0x54B3 JUMPI PUSH2 0x54AE DUP5 PUSH1 0x1 PUSH1 0x60 SHL DUP8 PUSH1 0x1 PUSH1 0x1 PUSH1 0x80 SHL SUB AND PUSH2 0x30C9 JUMP JUMPDEST PUSH2 0x54CA JUMP JUMPDEST PUSH2 0x54CA PUSH1 0x1 PUSH1 0x1 PUSH1 0x80 SHL SUB DUP7 AND PUSH1 0x60 DUP7 SWAP1 SHL PUSH2 0x5CD0 JUMP JUMPDEST SWAP1 POP PUSH2 0x54E7 PUSH2 0x54E2 PUSH1 0x1 PUSH1 0x1 PUSH1 0xA0 SHL SUB DUP9 AND DUP4 PUSH2 0x2EB7 JUMP JUMPDEST PUSH2 0x568C JUMP JUMPDEST SWAP2 POP POP PUSH2 0x3AE5 JUMP JUMPDEST PUSH1 0x0 PUSH1 0x1 PUSH1 0x1 PUSH1 0xA0 SHL SUB DUP5 GT ISZERO PUSH2 0x551D JUMPI PUSH2 0x5518 DUP5 PUSH1 0x1 PUSH1 0x60 SHL DUP8 PUSH1 0x1 PUSH1 0x1 PUSH1 0x80 SHL SUB AND PUSH2 0x307E JUMP JUMPDEST PUSH2 0x553A JUMP JUMPDEST PUSH2 0x553A PUSH1 0x60 DUP6 SWAP1 SHL PUSH1 0x1 PUSH1 0x1 PUSH1 0x80 SHL SUB DUP8 AND DUP1 DUP3 DIV SWAP2 MOD ISZERO ISZERO ADD SWAP1 JUMP JUMPDEST SWAP1 POP DUP1 DUP7 PUSH1 0x1 PUSH1 0x1 PUSH1 0xA0 SHL SUB AND GT PUSH2 0x5551 JUMPI PUSH1 0x0 DUP1 REVERT JUMPDEST PUSH2 0x54E7 DUP2 PUSH1 0x1 PUSH1 0x1 PUSH1 0xA0 SHL SUB DUP9 AND PUSH2 0x5C87 JUMP JUMPDEST PUSH1 0x0 DUP3 PUSH1 0x0 SUB PUSH2 0x5575 JUMPI POP DUP4 PUSH2 0x3AE5 JUMP JUMPDEST PUSH1 0x1 PUSH1 0x60 SHL PUSH1 0x1 PUSH1 0xE0 SHL SUB PUSH1 0x60 DUP6 SWAP1 SHL AND DUP3 ISZERO PUSH2 0x561E JUMPI PUSH1 0x0 PUSH1 0x1 PUSH1 0x1 PUSH1 0xA0 SHL SUB DUP8 AND DUP6 PUSH2 0x55A3 DUP3 DUP3 PUSH2 0x5CE4 JUMP JUMPDEST SWAP3 POP PUSH2 0x55AF SWAP1 DUP4 PUSH2 0x5CD0 JUMP JUMPDEST SUB PUSH2 0x55E9 JUMPI PUSH1 0x0 PUSH2 0x55C0 DUP3 DUP5 PUSH2 0x5CFB JUMP JUMPDEST SWAP1 POP DUP3 DUP2 LT PUSH2 0x55E7 JUMPI PUSH2 0x55DD DUP4 DUP10 PUSH1 0x1 PUSH1 0x1 PUSH1 0xA0 SHL SUB AND DUP4 PUSH2 0x307E JUMP JUMPDEST SWAP4 POP POP POP POP PUSH2 0x3AE5 JUMP JUMPDEST POP JUMPDEST PUSH2 0x5615 DUP3 PUSH2 0x560A DUP8 PUSH2 0x5604 PUSH1 0x1 PUSH1 0x1 PUSH1 0xA0 SHL SUB DUP13 AND DUP5 PUSH2 0x5CD0 JUMP JUMPDEST SWAP1 PUSH2 0x2EB7 JUMP JUMPDEST DUP1 DUP3 DIV SWAP2 MOD ISZERO ISZERO ADD SWAP1 JUMP JUMPDEST SWAP3 POP POP POP PUSH2 0x3AE5 JUMP JUMPDEST PUSH1 0x0 PUSH1 0x1 PUSH1 0x1 PUSH1 0xA0 SHL SUB DUP8 AND DUP6 PUSH2 0x5635 DUP3 DUP3 PUSH2 0x5CE4 JUMP JUMPDEST SWAP3 POP PUSH2 0x5641 SWAP1 DUP4 PUSH2 0x5CD0 JUMP JUMPDEST EQ DUP1 ISZERO PUSH2 0x564D JUMPI POP DUP1 DUP3 GT JUMPDEST PUSH2 0x5656 JUMPI PUSH1 0x0 DUP1 REVERT JUMPDEST PUSH1 0x0 PUSH2 0x5662 DUP3 DUP5 PUSH2 0x5C87 JUMP JUMPDEST SWAP1 POP PUSH2 0x55DD PUSH2 0x54E2 DUP5 DUP11 PUSH1 0x1 PUSH1 0x1 PUSH1 0xA0 SHL SUB AND DUP5 PUSH2 0x307E JUMP JUMPDEST DUP1 PUSH1 0xF DUP2 SWAP1 SIGNEXTEND DUP2 EQ PUSH2 0x4A49 JUMPI PUSH1 0x0 DUP1 REVERT JUMPDEST DUP1 PUSH1 0x1 PUSH1 0x1 PUSH1 0xA0 SHL SUB DUP2 AND DUP2 EQ PUSH2 0x4A49 JUMPI PUSH1 0x0 DUP1 REVERT JUMPDEST PUSH1 0x1 PUSH1 0x1 PUSH1 0xA0 SHL SUB DUP2 AND DUP2 EQ PUSH2 0x56B7 JUMPI PUSH1 0x0 DUP1 REVERT JUMPDEST POP JUMP JUMPDEST PUSH1 0x0 PUSH1 0x20 DUP3 DUP5 SUB SLT ISZERO PUSH2 0x56CC JUMPI PUSH1 0x0 DUP1 REVERT JUMPDEST DUP2 CALLDATALOAD PUSH2 0x30C2 DUP2 PUSH2 0x56A2 JUMP JUMPDEST PUSH1 0x0 PUSH1 0x20 DUP3 DUP5 SUB SLT ISZERO PUSH2 0x56E9 JUMPI PUSH1 0x0 DUP1 REVERT JUMPDEST POP CALLDATALOAD SWAP2 SWAP1 POP JUMP JUMPDEST DUP1 CALLDATALOAD PUSH1 0x2 DUP2 SWAP1 SIGNEXTEND DUP2 EQ PUSH2 0x4A49 JUMPI PUSH1 0x0 DUP1 REVERT JUMPDEST DUP1 CALLDATALOAD PUSH1 0x1 PUSH1 0x1 PUSH1 0x80 SHL SUB DUP2 AND DUP2 EQ PUSH2 0x4A49 JUMPI PUSH1 0x0 DUP1 REVERT JUMPDEST PUSH1 0x0 DUP1 PUSH1 0x0 DUP1 PUSH1 0x80 DUP6 DUP8 SUB SLT ISZERO PUSH2 0x572F JUMPI PUSH1 0x0 DUP1 REVERT JUMPDEST DUP5 CALLDATALOAD PUSH2 0x573A DUP2 PUSH2 0x56A2 JUMP JUMPDEST SWAP4 POP PUSH2 0x5748 PUSH1 0x20 DUP7 ADD PUSH2 0x56F0 JUMP JUMPDEST SWAP3 POP PUSH2 0x5756 PUSH1 0x40 DUP7 ADD PUSH2 0x56F0 JUMP JUMPDEST SWAP2 POP PUSH2 0x5764 PUSH1 0x60 DUP7 ADD PUSH2 0x5702 JUMP JUMPDEST SWAP1 POP SWAP3 SWAP6 SWAP2 SWAP5 POP SWAP3 POP JUMP JUMPDEST PUSH1 0x0 PUSH1 0x20 DUP3 DUP5 SUB SLT ISZERO PUSH2 0x5781 JUMPI PUSH1 0x0 DUP1 REVERT JUMPDEST PUSH2 0x30C2 DUP3 PUSH2 0x56F0 JUMP JUMPDEST PUSH1 0x0 DUP1 DUP4 PUSH1 0x1F DUP5 ADD SLT PUSH2 0x579C JUMPI PUSH1 0x0 DUP1 REVERT JUMPDEST POP DUP2 CALLDATALOAD PUSH8 0xFFFFFFFFFFFFFFFF DUP2 GT ISZERO PUSH2 0x57B4 JUMPI PUSH1 0x0 DUP1 REVERT JUMPDEST PUSH1 0x20 DUP4 ADD SWAP2 POP DUP4 PUSH1 0x20 DUP3 DUP6 ADD ADD GT ISZERO PUSH2 0x110F JUMPI PUSH1 0x0 DUP1 REVERT JUMPDEST PUSH1 0x0 DUP1 PUSH1 0x0 DUP1 PUSH1 0x0 DUP1 PUSH1 0xA0 DUP8 DUP10 SUB SLT ISZERO PUSH2 0x57E5 JUMPI PUSH1 0x0 DUP1 REVERT JUMPDEST DUP7 CALLDATALOAD PUSH2 0x57F0 DUP2 PUSH2 0x56A2 JUMP JUMPDEST SWAP6 POP PUSH2 0x57FE PUSH1 0x20 DUP9 ADD PUSH2 0x56F0 JUMP JUMPDEST SWAP5 POP PUSH2 0x580C PUSH1 0x40 DUP9 ADD PUSH2 0x56F0 JUMP JUMPDEST SWAP4 POP PUSH2 0x581A PUSH1 0x60 DUP9 ADD PUSH2 0x5702 JUMP JUMPDEST SWAP3 POP PUSH1 0x80 DUP8 ADD CALLDATALOAD PUSH8 0xFFFFFFFFFFFFFFFF DUP2 GT ISZERO PUSH2 0x5836 JUMPI PUSH1 0x0 DUP1 REVERT JUMPDEST PUSH2 0x5842 DUP10 DUP3 DUP11 ADD PUSH2 0x578A JUMP JUMPDEST SWAP8 SWAP11 SWAP7 SWAP10 POP SWAP5 SWAP8 POP SWAP3 SWAP6 SWAP4 SWAP5 SWAP3 POP POP POP JUMP JUMPDEST DUP1 CALLDATALOAD PUSH1 0xFF DUP2 AND DUP2 EQ PUSH2 0x4A49 JUMPI PUSH1 0x0 DUP1 REVERT JUMPDEST PUSH1 0x0 DUP1 PUSH1 0x0 DUP1 PUSH1 0x0 PUSH1 0xA0 DUP7 DUP9 SUB SLT ISZERO PUSH2 0x587D JUMPI PUSH1 0x0 DUP1 REVERT JUMPDEST PUSH2 0x5886 DUP7 PUSH2 0x5854 JUMP JUMPDEST SWAP5 POP PUSH2 0x5894 PUSH1 0x20 DUP8 ADD PUSH2 0x5854 JUMP JUMPDEST SWAP4 POP PUSH2 0x58A2 PUSH1 0x40 DUP8 ADD PUSH2 0x5854 JUMP JUMPDEST SWAP3 POP PUSH2 0x58B0 PUSH1 0x60 DUP8 ADD PUSH2 0x5854 JUMP JUMPDEST SWAP2 POP PUSH2 0x58BE PUSH1 0x80 DUP8 ADD PUSH2 0x5854 JUMP JUMPDEST SWAP1 POP SWAP3 SWAP6 POP SWAP3 SWAP6 SWAP1 SWAP4 POP JUMP JUMPDEST PUSH1 0x0 DUP1 PUSH1 0x20 DUP4 DUP6 SUB SLT ISZERO PUSH2 0x58DD JUMPI PUSH1 0x0 DUP1 REVERT JUMPDEST DUP3 CALLDATALOAD PUSH8 0xFFFFFFFFFFFFFFFF DUP1 DUP3 GT ISZERO PUSH2 0x58F5 JUMPI PUSH1 0x0 DUP1 REVERT JUMPDEST DUP2 DUP6 ADD SWAP2 POP DUP6 PUSH1 0x1F DUP4 ADD SLT PUSH2 0x5909 JUMPI PUSH1 0x0 DUP1 REVERT JUMPDEST DUP2 CALLDATALOAD DUP2 DUP2 GT ISZERO PUSH2 0x5918 JUMPI PUSH1 0x0 DUP1 REVERT JUMPDEST DUP7 PUSH1 0x20 DUP3 PUSH1 0x5 SHL DUP6 ADD ADD GT ISZERO PUSH2 0x592D JUMPI PUSH1 0x0 DUP1 REVERT JUMPDEST PUSH1 0x20 SWAP3 SWAP1 SWAP3 ADD SWAP7 SWAP2 SWAP6 POP SWAP1 SWAP4 POP POP POP POP JUMP JUMPDEST PUSH1 0x40 DUP1 DUP3 MSTORE DUP4 MLOAD SWAP1 DUP3 ADD DUP2 SWAP1 MSTORE PUSH1 0x0 SWAP1 PUSH1 0x20 SWAP1 PUSH1 0x60 DUP5 ADD SWAP1 DUP3 DUP8 ADD DUP5 JUMPDEST DUP3 DUP2 LT ISZERO PUSH2 0x597B JUMPI DUP2 MLOAD PUSH1 0x6 SIGNEXTEND DUP5 MSTORE SWAP3 DUP5 ADD SWAP3 SWAP1 DUP5 ADD SWAP1 PUSH1 0x1 ADD PUSH2 0x595C JUMP JUMPDEST POP POP POP DUP4 DUP2 SUB DUP3 DUP6 ADD MSTORE DUP5 MLOAD DUP1 DUP3 MSTORE DUP6 DUP4 ADD SWAP2 DUP4 ADD SWAP1 PUSH1 0x0 JUMPDEST DUP2 DUP2 LT ISZERO PUSH2 0x59B9 JUMPI DUP4 MLOAD PUSH1 0x1 PUSH1 0x1 PUSH1 0xA0 SHL SUB AND DUP4 MSTORE SWAP3 DUP5 ADD SWAP3 SWAP2 DUP5 ADD SWAP2 PUSH1 0x1 ADD PUSH2 0x5994 JUMP JUMPDEST POP SWAP1 SWAP8 SWAP7 POP POP POP POP POP POP POP JUMP JUMPDEST PUSH1 0x0 PUSH1 0x20 DUP3 DUP5 SUB SLT ISZERO PUSH2 0x59D8 JUMPI PUSH1 0x0 DUP1 REVERT JUMPDEST DUP2 CALLDATALOAD DUP1 PUSH1 0x1 SIGNEXTEND DUP2 EQ PUSH2 0x30C2 JUMPI PUSH1 0x0 DUP1 REVERT JUMPDEST PUSH1 0x0 DUP1 PUSH1 0x0 DUP1 PUSH1 0x0 DUP1 PUSH1 0xA0 DUP8 DUP10 SUB SLT ISZERO PUSH2 0x5A02 JUMPI PUSH1 0x0 DUP1 REVERT JUMPDEST DUP7 CALLDATALOAD PUSH2 0x5A0D DUP2 PUSH2 0x56A2 JUMP JUMPDEST SWAP6 POP PUSH1 0x20 DUP8 ADD CALLDATALOAD PUSH2 0x5A1D DUP2 PUSH2 0x56A2 JUMP JUMPDEST SWAP5 POP PUSH1 0x40 DUP8 ADD CALLDATALOAD SWAP4 POP PUSH1 0x60 DUP8 ADD CALLDATALOAD SWAP3 POP PUSH1 0x80 DUP8 ADD CALLDATALOAD PUSH8 0xFFFFFFFFFFFFFFFF DUP2 GT ISZERO PUSH2 0x5836 JUMPI PUSH1 0x0 DUP1 REVERT JUMPDEST PUSH1 0x0 DUP1 PUSH1 0x0 PUSH1 0x60 DUP5 DUP7 SUB SLT ISZERO PUSH2 0x5A5C JUMPI PUSH1 0x0 DUP1 REVERT JUMPDEST PUSH2 0x5A65 DUP5 PUSH2 0x56F0 JUMP JUMPDEST SWAP3 POP PUSH2 0x5A73 PUSH1 0x20 DUP6 ADD PUSH2 0x56F0 JUMP JUMPDEST SWAP2 POP PUSH2 0x5A81 PUSH1 0x40 DUP6 ADD PUSH2 0x5702 JUMP JUMPDEST SWAP1 POP SWAP3 POP SWAP3 POP SWAP3 JUMP JUMPDEST PUSH1 0x0 DUP1 PUSH1 0x40 DUP4 DUP6 SUB SLT ISZERO PUSH2 0x5A9D JUMPI PUSH1 0x0 DUP1 REVERT JUMPDEST PUSH2 0x5AA6 DUP4 PUSH2 0x56F0 JUMP JUMPDEST SWAP2 POP PUSH2 0x5AB4 PUSH1 0x20 DUP5 ADD PUSH2 0x56F0 JUMP JUMPDEST SWAP1 POP SWAP3 POP SWAP3 SWAP1 POP JUMP JUMPDEST DUP1 ISZERO ISZERO DUP2 EQ PUSH2 0x56B7 JUMPI PUSH1 0x0 DUP1 REVERT JUMPDEST PUSH1 0x0 DUP1 PUSH1 0x0 DUP1 PUSH1 0x0 DUP1 PUSH1 0x0 PUSH1 0xC0 DUP9 DUP11 SUB SLT ISZERO PUSH2 0x5AE6 JUMPI PUSH1 0x0 DUP1 REVERT JUMPDEST DUP8 CALLDATALOAD PUSH2 0x5AF1 DUP2 PUSH2 0x56A2 JUMP JUMPDEST SWAP7 POP PUSH1 0x20 DUP9 ADD CALLDATALOAD PUSH2 0x5B01 DUP2 PUSH2 0x56A2 JUMP JUMPDEST SWAP6 POP PUSH1 0x40 DUP9 ADD CALLDATALOAD PUSH2 0x5B11 DUP2 PUSH2 0x5ABD JUMP JUMPDEST SWAP5 POP PUSH1 0x60 DUP9 ADD CALLDATALOAD SWAP4 POP PUSH1 0x80 DUP9 ADD CALLDATALOAD PUSH2 0x5B28 DUP2 PUSH2 0x56A2 JUMP JUMPDEST SWAP3 POP PUSH1 0xA0 DUP9 ADD CALLDATALOAD PUSH8 0xFFFFFFFFFFFFFFFF DUP2 GT ISZERO PUSH2 0x5B44 JUMPI PUSH1 0x0 DUP1 REVERT JUMPDEST PUSH2 0x5B50 DUP11 DUP3 DUP12 ADD PUSH2 0x578A JUMP JUMPDEST SWAP9 SWAP12 SWAP8 SWAP11 POP SWAP6 SWAP9 POP SWAP4 SWAP7 SWAP3 SWAP6 SWAP3 SWAP4 POP POP POP JUMP JUMPDEST PUSH1 0x0 PUSH1 0x20 DUP3 DUP5 SUB SLT ISZERO PUSH2 0x5B75 JUMPI PUSH1 0x0 DUP1 REVERT JUMPDEST DUP2 CALLDATALOAD PUSH2 0xFFFF DUP2 AND DUP2 EQ PUSH2 0x30C2 JUMPI PUSH1 0x0 DUP1 REVERT JUMPDEST PUSH1 0x20 DUP1 DUP3 MSTORE PUSH1 0x3 SWAP1 DUP3 ADD MSTORE PUSH3 0x4C4F4B PUSH1 0xE8 SHL PUSH1 0x40 DUP3 ADD MSTORE PUSH1 0x60 ADD SWAP1 JUMP JUMPDEST PUSH4 0x4E487B71 PUSH1 0xE0 SHL PUSH1 0x0 MSTORE PUSH1 0x11 PUSH1 0x4 MSTORE PUSH1 0x24 PUSH1 0x0 REVERT JUMPDEST PUSH1 0x1 PUSH1 0x1 PUSH1 0x80 SHL SUB DUP3 DUP2 AND DUP3 DUP3 AND SUB SWAP1 DUP1 DUP3 GT ISZERO PUSH2 0x5BDA JUMPI PUSH2 0x5BDA PUSH2 0x5BA4 JUMP JUMPDEST POP SWAP3 SWAP2 POP POP JUMP JUMPDEST PUSH1 0x0 PUSH1 0x20 DUP3 DUP5 SUB SLT ISZERO PUSH2 0x5BF3 JUMPI PUSH1 0x0 DUP1 REVERT JUMPDEST DUP2 MLOAD PUSH2 0x30C2 DUP2 PUSH2 0x5ABD JUMP JUMPDEST DUP2 DUP4 MSTORE DUP2 DUP2 PUSH1 0x20 DUP6 ADD CALLDATACOPY POP PUSH1 0x0 DUP3 DUP3 ADD PUSH1 0x20 SWAP1 DUP2 ADD SWAP2 SWAP1 SWAP2 MSTORE PUSH1 0x1F SWAP1 SWAP2 ADD PUSH1 0x1F NOT AND SWAP1 SWAP2 ADD ADD SWAP1 JUMP JUMPDEST DUP5 DUP2 MSTORE DUP4 PUSH1 0x20 DUP3 ADD MSTORE PUSH1 0x60 PUSH1 0x40 DUP3 ADD MSTORE PUSH1 0x0 PUSH2 0x5C47 PUSH1 0x60 DUP4 ADD DUP5 DUP7 PUSH2 0x5BFE JUMP JUMPDEST SWAP7 SWAP6 POP POP POP POP POP POP JUMP JUMPDEST PUSH1 0xFF DUP2 DUP2 AND DUP4 DUP3 AND ADD SWAP1 DUP2 GT ISZERO PUSH2 0x2ED2 JUMPI PUSH2 0x2ED2 PUSH2 0x5BA4 JUMP JUMPDEST PUSH1 0x0 PUSH1 0x20 DUP3 DUP5 SUB SLT ISZERO PUSH2 0x5C7C JUMPI PUSH1 0x0 DUP1 REVERT JUMPDEST DUP2 MLOAD PUSH2 0x30C2 DUP2 PUSH2 0x56A2 JUMP JUMPDEST DUP2 DUP2 SUB DUP2 DUP2 GT ISZERO PUSH2 0x2ED2 JUMPI PUSH2 0x2ED2 PUSH2 0x5BA4 JUMP JUMPDEST PUSH1 0x1 PUSH1 0x1 PUSH1 0x80 SHL SUB DUP2 DUP2 AND DUP4 DUP3 AND ADD SWAP1 DUP1 DUP3 GT ISZERO PUSH2 0x5BDA JUMPI PUSH2 0x5BDA PUSH2 0x5BA4 JUMP JUMPDEST PUSH4 0x4E487B71 PUSH1 0xE0 SHL PUSH1 0x0 MSTORE PUSH1 0x12 PUSH1 0x4 MSTORE PUSH1 0x24 PUSH1 0x0 REVERT JUMPDEST PUSH1 0x0 DUP3 PUSH2 0x5CDF JUMPI PUSH2 0x5CDF PUSH2 0x5CBA JUMP JUMPDEST POP DIV SWAP1 JUMP JUMPDEST DUP1 DUP3 MUL DUP2 ISZERO DUP3 DUP3 DIV DUP5 EQ OR PUSH2 0x2ED2 JUMPI PUSH2 0x2ED2 PUSH2 0x5BA4 JUMP JUMPDEST DUP1 DUP3 ADD DUP1 DUP3 GT ISZERO PUSH2 0x2ED2 JUMPI PUSH2 0x2ED2 PUSH2 0x5BA4 JUMP JUMPDEST PUSH1 0x0 DUP2 PUSH1 0xF SIGNEXTEND PUSH16 0x7FFFFFFFFFFFFFFFFFFFFFFFFFFFFFFF NOT DUP2 SUB PUSH2 0x5D34 JUMPI PUSH2 0x5D34 PUSH2 0x5BA4 JUMP JUMPDEST PUSH1 0x0 SUB SWAP3 SWAP2 POP POP JUMP JUMPDEST PUSH1 0x0 PUSH1 0x1 PUSH1 0xFF SHL DUP3 ADD PUSH2 0x5D52 JUMPI PUSH2 0x5D52 PUSH2 0x5BA4 JUMP JUMPDEST POP PUSH1 0x0 SUB SWAP1 JUMP JUMPDEST PUSH1 0x6 DUP3 DUP2 SIGNEXTEND SWAP1 DUP3 SWAP1 SIGNEXTEND SUB PUSH7 0x7FFFFFFFFFFFFF NOT DUP2 SLT PUSH7 0x7FFFFFFFFFFFFF DUP3 SGT OR ISZERO PUSH2 0x2ED2 JUMPI PUSH2 0x2ED2 PUSH2 0x5BA4 JUMP JUMPDEST PUSH1 0x1 PUSH1 0x1 PUSH1 0xA0 SHL SUB DUP3 DUP2 AND DUP3 DUP3 AND SUB SWAP1 DUP1 DUP3 GT ISZERO PUSH2 0x5BDA JUMPI PUSH2 0x5BDA PUSH2 0x5BA4 JUMP JUMPDEST PUSH4 0xFFFFFFFF DUP3 DUP2 AND DUP3 DUP3 AND SUB SWAP1 DUP1 DUP3 GT ISZERO PUSH2 0x5BDA JUMPI PUSH2 0x5BDA PUSH2 0x5BA4 JUMP JUMPDEST PUSH1 0x0 DUP2 PUSH1 0x2 SIGNEXTEND PUSH3 0x7FFFFF NOT DUP2 SUB PUSH2 0x5D34 JUMPI PUSH2 0x5D34 PUSH2 0x5BA4 JUMP JUMPDEST DUP2 DUP2 SUB PUSH1 0x0 DUP4 SLT DUP1 ISZERO DUP4 DUP4 SGT AND DUP4 DUP4 SLT DUP3 AND OR ISZERO PUSH2 0x5BDA JUMPI PUSH2 0x5BDA PUSH2 0x5BA4 JUMP JUMPDEST DUP1 DUP3 ADD DUP3 DUP2 SLT PUSH1 0x0 DUP4 SLT DUP1 ISZERO DUP3 AND DUP3 ISZERO DUP3 AND OR ISZERO PUSH2 0x5E1C JUMPI PUSH2 0x5E1C PUSH2 0x5BA4 JUMP JUMPDEST POP POP SWAP3 SWAP2 POP POP JUMP JUMPDEST PUSH1 0xFF DUP3 DUP2 AND DUP3 DUP3 AND SUB SWAP1 DUP2 GT ISZERO PUSH2 0x2ED2 JUMPI PUSH2 0x2ED2 PUSH2 0x5BA4 JUMP JUMPDEST PUSH1 0x2 DUP3 DUP2 SIGNEXTEND SWAP1 DUP3 SWAP1 SIGNEXTEND SUB PUSH3 0x7FFFFF NOT DUP2 SLT PUSH3 0x7FFFFF DUP3 SGT OR ISZERO PUSH2 0x2ED2 JUMPI PUSH2 0x2ED2 PUSH2 0x5BA4 JUMP JUMPDEST PUSH1 0x0 DUP2 PUSH1 0x2 SIGNEXTEND DUP4 PUSH1 0x2 SIGNEXTEND DUP1 PUSH2 0x5E79 JUMPI PUSH2 0x5E79 PUSH2 0x5CBA JUMP JUMPDEST PUSH3 0x7FFFFF NOT DUP3 EQ PUSH1 0x0 NOT DUP3 EQ AND ISZERO PUSH2 0x5E93 JUMPI PUSH2 0x5E93 PUSH2 0x5BA4 JUMP JUMPDEST SWAP1 SDIV SWAP4 SWAP3 POP POP POP JUMP JUMPDEST PUSH1 0x0 DUP3 PUSH1 0x2 SIGNEXTEND DUP3 PUSH1 0x2 SIGNEXTEND MUL DUP1 PUSH1 0x2 SIGNEXTEND SWAP2 POP DUP1 DUP3 EQ PUSH2 0x5BDA JUMPI PUSH2 0x5BDA PUSH2 0x5BA4 JUMP JUMPDEST PUSH3 0xFFFFFF DUP2 DUP2 AND DUP4 DUP3 AND ADD SWAP1 DUP1 DUP3 GT ISZERO PUSH2 0x5BDA JUMPI PUSH2 0x5BDA PUSH2 0x5BA4 JUMP JUMPDEST PUSH1 0x0 PUSH1 0x1 PUSH1 0x1 PUSH1 0x80 SHL SUB DUP1 DUP5 AND DUP1 PUSH2 0x5EF2 JUMPI PUSH2 0x5EF2 PUSH2 0x5CBA JUMP JUMPDEST SWAP3 AND SWAP2 SWAP1 SWAP2 DIV SWAP3 SWAP2 POP POP JUMP JUMPDEST PUSH1 0x0 DUP3 MLOAD PUSH1 0x0 JUMPDEST DUP2 DUP2 LT ISZERO PUSH2 0x5F1F JUMPI PUSH1 0x20 DUP2 DUP7 ADD DUP2 ADD MLOAD DUP6 DUP4 ADD MSTORE ADD PUSH2 0x5F05 JUMP JUMPDEST POP PUSH1 0x0 SWAP3 ADD SWAP2 DUP3 MSTORE POP SWAP2 SWAP1 POP JUMP JUMPDEST PUSH1 0x0 PUSH1 0x20 DUP3 DUP5 SUB SLT ISZERO PUSH2 0x5F3F JUMPI PUSH1 0x0 DUP1 REVERT JUMPDEST POP MLOAD SWAP2 SWAP1 POP JUMP JUMPDEST PUSH4 0x4E487B71 PUSH1 0xE0 SHL PUSH1 0x0 MSTORE PUSH1 0x41 PUSH1 0x4 MSTORE PUSH1 0x24 PUSH1 0x0 REVERT JUMPDEST PUSH4 0x4E487B71 PUSH1 0xE0 SHL PUSH1 0x0 MSTORE PUSH1 0x32 PUSH1 0x4 MSTORE PUSH1 0x24 PUSH1 0x0 REVERT JUMPDEST PUSH1 0x0 PUSH1 0x1 DUP3 ADD PUSH2 0x5F84 JUMPI PUSH2 0x5F84 PUSH2 0x5BA4 JUMP JUMPDEST POP PUSH1 0x1 ADD SWAP1 JUMP JUMPDEST PUSH1 0x0 DUP2 PUSH1 0x6 SIGNEXTEND DUP4 PUSH1 0x6 SIGNEXTEND DUP1 PUSH2 0x5FA2 JUMPI PUSH2 0x5FA2 PUSH2 0x5CBA JUMP JUMPDEST PUSH7 0x7FFFFFFFFFFFFF NOT DUP3 EQ PUSH1 0x0 NOT DUP3 EQ AND ISZERO PUSH2 0x5E93 JUMPI PUSH2 0x5E93 PUSH2 0x5BA4 JUMP JUMPDEST PUSH1 0x0 DUP3 PUSH1 0x6 SIGNEXTEND DUP3 PUSH1 0x6 SIGNEXTEND MUL DUP1 PUSH1 0x6 SIGNEXTEND SWAP2 POP DUP1 DUP3 EQ PUSH2 0x5BDA JUMPI PUSH2 0x5BDA PUSH2 0x5BA4 JUMP JUMPDEST PUSH1 0x6 DUP2 DUP2 SIGNEXTEND SWAP1 DUP4 SWAP1 SIGNEXTEND ADD PUSH7 0x7FFFFFFFFFFFFF DUP2 SGT PUSH7 0x7FFFFFFFFFFFFF NOT DUP3 SLT OR ISZERO PUSH2 0x2ED2 JUMPI PUSH2 0x2ED2 PUSH2 0x5BA4 JUMP JUMPDEST PUSH1 0x1 PUSH1 0x1 PUSH1 0xA0 SHL SUB DUP3 DUP2 AND DUP3 DUP3 AND DUP2 DUP2 MUL DUP4 AND SWAP3 SWAP2 DUP2 ISZERO DUP3 DUP6 DIV DUP3 EQ OR PUSH2 0x6036 JUMPI PUSH2 0x6036 PUSH2 0x5BA4 JUMP JUMPDEST POP POP POP SWAP3 SWAP2 POP POP JUMP JUMPDEST PUSH1 0x0 PUSH1 0x1 PUSH1 0x1 PUSH1 0xA0 SHL SUB DUP4 DUP2 AND DUP1 PUSH2 0x5EF2 JUMPI PUSH2 0x5EF2 PUSH2 0x5CBA JUMP JUMPDEST PUSH1 0x1 PUSH1 0x1 PUSH1 0xA0 SHL SUB DUP2 DUP2 AND DUP4 DUP3 AND ADD SWAP1 DUP1 DUP3 GT ISZERO PUSH2 0x5BDA JUMPI PUSH2 0x5BDA PUSH2 0x5BA4 JUMP JUMPDEST PUSH1 0x0 DUP3 PUSH1 0x2 SIGNEXTEND DUP1 PUSH2 0x608C JUMPI PUSH2 0x608C PUSH2 0x5CBA JUMP JUMPDEST DUP1 DUP4 PUSH1 0x2 SIGNEXTEND SMOD SWAP2 POP POP SWAP3 SWAP2 POP POP JUMP JUMPDEST PUSH1 0x0 DUP2 PUSH1 0x2 SIGNEXTEND PUSH3 0x7FFFFF NOT DUP2 SUB PUSH2 0x60B4 JUMPI PUSH2 0x60B4 PUSH2 0x5BA4 JUMP JUMPDEST PUSH1 0x0 NOT ADD SWAP3 SWAP2 POP POP JUMP JUMPDEST PUSH1 0x2 DUP2 DUP2 SIGNEXTEND SWAP1 DUP4 SWAP1 SIGNEXTEND ADD PUSH3 0x7FFFFF DUP2 SGT PUSH3 0x7FFFFF NOT DUP3 SLT OR ISZERO PUSH2 0x2ED2 JUMPI PUSH2 0x2ED2 PUSH2 0x5BA4 JUMP JUMPDEST PUSH1 0x0 DUP3 PUSH2 0x60F2 JUMPI PUSH2 0x60F2 PUSH2 0x5CBA JUMP JUMPDEST POP MOD SWAP1 JUMP JUMPDEST DUP1 DUP3 MUL PUSH1 0x0 DUP3 SLT PUSH1 0x1 PUSH1 0xFF SHL DUP5 EQ AND ISZERO PUSH2 0x6113 JUMPI PUSH2 0x6113 PUSH2 0x5BA4 JUMP JUMPDEST DUP2 DUP2 SDIV DUP4 EQ DUP3 ISZERO OR PUSH2 0x2ED2 JUMPI PUSH2 0x2ED2 PUSH2 0x5BA4 JUMP JUMPDEST PUSH2 0xFFFF DUP3 DUP2 AND DUP3 DUP3 AND SUB SWAP1 DUP1 DUP3 GT ISZERO PUSH2 0x5BDA JUMPI PUSH2 0x5BDA PUSH2 0x5BA4 JUMP JUMPDEST PUSH2 0xFFFF DUP2 DUP2 AND DUP4 DUP3 AND ADD SWAP1 DUP1 DUP3 GT ISZERO PUSH2 0x5BDA JUMPI PUSH2 0x5BDA PUSH2 0x5BA4 JUMP JUMPDEST PUSH1 0x0 PUSH2 0xFFFF DUP1 DUP5 AND DUP1 PUSH2 0x6172 JUMPI PUSH2 0x6172 PUSH2 0x5CBA JUMP JUMPDEST SWAP3 AND SWAP2 SWAP1 SWAP2 MOD SWAP3 SWAP2 POP POP JUMP JUMPDEST PUSH1 0x0 PUSH2 0xFFFF DUP1 DUP4 AND DUP2 DUP2 SUB PUSH2 0x6195 JUMPI PUSH2 0x6195 PUSH2 0x5BA4 JUMP JUMPDEST PUSH1 0x1 ADD SWAP4 SWAP3 POP POP POP JUMP JUMPDEST PUSH1 0x0 DUP3 PUSH1 0x3 SIGNEXTEND DUP3 PUSH1 0x3 SIGNEXTEND MUL DUP1 PUSH1 0x3 SIGNEXTEND SWAP2 POP DUP1 DUP3 EQ PUSH2 0x5BDA JUMPI PUSH2 0x5BDA PUSH2 0x5BA4 JUMP JUMPDEST PUSH1 0x0 PUSH3 0xFFFFFF DUP1 DUP5 AND DUP1 PUSH2 0x6172 JUMPI PUSH2 0x6172 PUSH2 0x5CBA JUMP JUMPDEST PUSH5 0xFFFFFFFFFF DUP2 DUP2 AND DUP4 DUP3 AND ADD SWAP1 DUP1 DUP3 GT ISZERO PUSH2 0x5BDA JUMPI PUSH2 0x5BDA PUSH2 0x5BA4 JUMP INVALID LOG2 PUSH5 0x6970667358 0x22 SLT KECCAK256 0x4A PUSH32 0xB1A94B9089FE847F9BF5F50E3185DFD2288B38E0AFBF77FE0FE0FB7F61F76473 PUSH16 0x6C634300081200330000000000000000 "
		},
		"gasEstimates": {
			"creation": {
				"codeDepositCost": "5025800",
				"executionCost": "infinite",
				"totalCost": "infinite"
			},
			"external": {
				"burn(int24,int24,uint128)": "infinite",
				"coin()": "infinite",
				"collect(address,int24,int24,uint128)": "infinite",
				"collectProtocol(address)": "infinite",
				"flash(address,address,uint256,uint256,bytes)": "infinite",
				"gatelock()": "2372",
				"gater()": "2428",
				"increaseLookerCardinalityNext(uint16)": "infinite",
				"initialize(uint160)": "infinite",
				"investion()": "2404",
				"lockShopbyGetor()": "26609",
				"lockShopbyMarketor()": "infinite",
				"market()": "infinite",
				"marketlock()": "2393",
				"maxInvestionPerUnit()": "2404",
				"mint(address,int24,int24,uint128,bytes)": "infinite",
				"observe(uint32[])": "infinite",
				"priceLogers(uint256)": "2719",
				"profit()": "infinite",
				"profitGrowthGlobalCoinX128()": "2331",
				"profitshares()": "2554",
				"proofs(bytes32)": "6941",
				"scope()": "2441",
				"setShopFeeProfitSharesbyMarketor(uint8,uint8,uint8,uint8,uint8)": "infinite",
				"shopfee(address)": "2598",
				"snapshotCumulativesInside(int24,int24)": "infinite",
				"state0()": "2721",
				"swap(address,address,bool,int256,uint160,bytes)": "infinite",
				"thing()": "infinite",
				"unitBitmap(int16)": "2553",
				"unitSpacing()": "infinite",
				"units(int24)": "7131",
				"unlockShopbyGetor()": "26597",
				"unlockShopbyMarketor()": "infinite"
			},
			"internal": {
				"_blockTimestamp()": "infinite",
				"_modifyproof(struct TTSwapV1Shop.ModifyProofParams memory)": "infinite",
				"_updateproof(address,int24,int24,int128,int24)": "infinite",
				"checkUnits(int24,int24)": "infinite",
				"coinbalance()": "infinite",
				"thingbalance()": "infinite"
			}
		},
		"methodIdentifiers": {
			"burn(int24,int24,uint128)": "a34123a7",
			"coin()": "11df9995",
			"collect(address,int24,int24,uint128)": "30d106b1",
			"collectProtocol(address)": "1d769828",
			"flash(address,address,uint256,uint256,bytes)": "8cc2ce60",
			"gatelock()": "92cc393c",
			"gater()": "166d6021",
			"increaseLookerCardinalityNext(uint16)": "b23ae19b",
			"initialize(uint160)": "f637731d",
			"investion()": "6a0b2b23",
			"lockShopbyGetor()": "8f919198",
			"lockShopbyMarketor()": "208537ff",
			"market()": "80f55605",
			"marketlock()": "b1592590",
			"maxInvestionPerUnit()": "8d79ddcb",
			"mint(address,int24,int24,uint128,bytes)": "3c8a7d8d",
			"observe(uint32[])": "883bdbfd",
			"priceLogers(uint256)": "2ad1baab",
			"profit()": "66d16cc3",
			"profitGrowthGlobalCoinX128()": "01b29351",
			"profitshares()": "afb62fef",
			"proofs(bytes32)": "444d95b0",
			"scope()": "6e62d0a8",
			"setShopFeeProfitSharesbyMarketor(uint8,uint8,uint8,uint8,uint8)": "77ab25fe",
			"shopfee(address)": "1f0f4c29",
			"snapshotCumulativesInside(int24,int24)": "a38807f2",
			"state0()": "8b2ea554",
			"swap(address,address,bool,int256,uint160,bytes)": "a98b22c1",
			"thing()": "c55e90fe",
			"unitBitmap(int16)": "8860d1cd",
			"unitSpacing()": "92c4545c",
			"units(int24)": "317dfb06",
			"unlockShopbyGetor()": "6aca362d",
			"unlockShopbyMarketor()": "3d02a292"
		}
	},
	"abi": [
		{
			"inputs": [],
			"stateMutability": "nonpayable",
			"type": "constructor"
		},
		{
			"anonymous": false,
			"inputs": [
				{
					"indexed": true,
					"internalType": "address",
					"name": "owner",
					"type": "address"
				},
				{
					"indexed": true,
					"internalType": "int24",
					"name": "tickLower",
					"type": "int24"
				},
				{
					"indexed": true,
					"internalType": "int24",
					"name": "tickUpper",
					"type": "int24"
				},
				{
					"indexed": false,
					"internalType": "uint128",
					"name": "amount",
					"type": "uint128"
				},
				{
					"indexed": false,
					"internalType": "uint256",
					"name": "amount0",
					"type": "uint256"
				},
				{
					"indexed": false,
					"internalType": "uint256",
					"name": "amount1",
					"type": "uint256"
				}
			],
			"name": "Burn",
			"type": "event"
		},
		{
			"anonymous": false,
			"inputs": [
				{
					"indexed": true,
					"internalType": "address",
					"name": "owner",
					"type": "address"
				},
				{
					"indexed": false,
					"internalType": "address",
					"name": "recipient",
					"type": "address"
				},
				{
					"indexed": true,
					"internalType": "int24",
					"name": "tickLower",
					"type": "int24"
				},
				{
					"indexed": true,
					"internalType": "int24",
					"name": "tickUpper",
					"type": "int24"
				},
				{
					"indexed": false,
					"internalType": "uint128",
					"name": "amount0",
					"type": "uint128"
				}
			],
			"name": "Collect",
			"type": "event"
		},
		{
			"anonymous": false,
			"inputs": [
				{
					"indexed": true,
					"internalType": "address",
					"name": "recipient",
					"type": "address"
				},
				{
					"indexed": false,
					"internalType": "uint128",
					"name": "coinamount",
					"type": "uint128"
				}
			],
			"name": "CollectProtocol",
			"type": "event"
		},
		{
			"anonymous": false,
			"inputs": [
				{
					"indexed": true,
					"internalType": "address",
					"name": "sender",
					"type": "address"
				},
				{
					"indexed": true,
					"internalType": "address",
					"name": "recipient",
					"type": "address"
				},
				{
					"indexed": false,
					"internalType": "uint256",
					"name": "amount0",
					"type": "uint256"
				},
				{
					"indexed": false,
					"internalType": "uint256",
					"name": "amount1",
					"type": "uint256"
				},
				{
					"indexed": false,
					"internalType": "uint256",
					"name": "paid0",
					"type": "uint256"
				}
			],
			"name": "Flash",
			"type": "event"
		},
		{
			"anonymous": false,
			"inputs": [
				{
					"indexed": false,
					"internalType": "uint16",
					"name": "observationCardinalityNextOld",
					"type": "uint16"
				},
				{
					"indexed": false,
					"internalType": "uint16",
					"name": "observationCardinalityNextNew",
					"type": "uint16"
				}
			],
			"name": "IncreaseObservationCardinalityNext",
			"type": "event"
		},
		{
			"anonymous": false,
			"inputs": [
				{
					"indexed": false,
					"internalType": "uint160",
					"name": "sqrtPriceX96",
					"type": "uint160"
				},
				{
					"indexed": false,
					"internalType": "int24",
					"name": "tick",
					"type": "int24"
				}
			],
			"name": "Initialize",
			"type": "event"
		},
		{
			"anonymous": false,
			"inputs": [
				{
					"indexed": false,
					"internalType": "address",
					"name": "sender",
					"type": "address"
				},
				{
					"indexed": true,
					"internalType": "address",
					"name": "owner",
					"type": "address"
				},
				{
					"indexed": true,
					"internalType": "int24",
					"name": "tickLower",
					"type": "int24"
				},
				{
					"indexed": true,
					"internalType": "int24",
					"name": "tickUpper",
					"type": "int24"
				},
				{
					"indexed": false,
					"internalType": "uint128",
					"name": "amount",
					"type": "uint128"
				},
				{
					"indexed": false,
					"internalType": "uint256",
					"name": "amount0",
					"type": "uint256"
				},
				{
					"indexed": false,
					"internalType": "uint256",
					"name": "amount1",
					"type": "uint256"
				}
			],
			"name": "Mint",
			"type": "event"
		},
		{
			"anonymous": false,
			"inputs": [
				{
					"indexed": false,
					"internalType": "uint8",
					"name": "feeProtocol0Old",
					"type": "uint8"
				},
				{
					"indexed": false,
					"internalType": "uint8",
					"name": "feeProtocol1Old",
					"type": "uint8"
				},
				{
					"indexed": false,
					"internalType": "uint8",
					"name": "feeProtocol0New",
					"type": "uint8"
				},
				{
					"indexed": false,
					"internalType": "uint8",
					"name": "feeProtocol1New",
					"type": "uint8"
				}
			],
			"name": "SetFeeProtocol",
			"type": "event"
		},
		{
			"anonymous": false,
			"inputs": [
				{
					"indexed": true,
					"internalType": "address",
					"name": "sender",
					"type": "address"
				},
				{
					"indexed": true,
					"internalType": "address",
					"name": "recipient",
					"type": "address"
				},
				{
					"indexed": false,
					"internalType": "int256",
					"name": "amount0",
					"type": "int256"
				},
				{
					"indexed": false,
					"internalType": "int256",
					"name": "amount1",
					"type": "int256"
				},
				{
					"indexed": false,
					"internalType": "uint160",
					"name": "sqrtPriceX96",
					"type": "uint160"
				},
				{
					"indexed": false,
					"internalType": "uint128",
					"name": "liquidity",
					"type": "uint128"
				},
				{
					"indexed": false,
					"internalType": "int24",
					"name": "tick",
					"type": "int24"
				}
			],
			"name": "Swap",
			"type": "event"
		},
		{
			"inputs": [
				{
					"internalType": "int24",
					"name": "_unitLower",
					"type": "int24"
				},
				{
					"internalType": "int24",
					"name": "_unitUpper",
					"type": "int24"
				},
				{
					"internalType": "uint128",
					"name": "amount",
					"type": "uint128"
				}
			],
			"name": "burn",
			"outputs": [
				{
					"internalType": "uint256",
					"name": "amount0",
					"type": "uint256"
				},
				{
					"internalType": "uint256",
					"name": "amount1",
					"type": "uint256"
				}
			],
			"stateMutability": "nonpayable",
			"type": "function"
		},
		{
			"inputs": [],
			"name": "coin",
			"outputs": [
				{
					"internalType": "address",
					"name": "",
					"type": "address"
				}
			],
			"stateMutability": "view",
			"type": "function"
		},
		{
			"inputs": [
				{
					"internalType": "address",
					"name": "recipient",
					"type": "address"
				},
				{
					"internalType": "int24",
					"name": "_unitLower",
					"type": "int24"
				},
				{
					"internalType": "int24",
					"name": "_unitUpper",
					"type": "int24"
				},
				{
					"internalType": "uint128",
					"name": "amount0Requested",
					"type": "uint128"
				}
			],
			"name": "collect",
			"outputs": [
				{
					"internalType": "uint128",
					"name": "amount0",
					"type": "uint128"
				}
			],
			"stateMutability": "nonpayable",
			"type": "function"
		},
		{
			"inputs": [
				{
					"internalType": "address",
					"name": "recipient",
					"type": "address"
				}
			],
			"name": "collectProtocol",
			"outputs": [
				{
					"internalType": "uint128",
					"name": "coinamount",
					"type": "uint128"
				}
			],
			"stateMutability": "nonpayable",
			"type": "function"
		},
		{
			"inputs": [
				{
					"internalType": "address",
					"name": "recipient",
					"type": "address"
				},
				{
					"internalType": "address",
					"name": "gateraddress",
					"type": "address"
				},
				{
					"internalType": "uint256",
					"name": "amount0",
					"type": "uint256"
				},
				{
					"internalType": "uint256",
					"name": "amount1",
					"type": "uint256"
				},
				{
					"internalType": "bytes",
					"name": "data",
					"type": "bytes"
				}
			],
			"name": "flash",
			"outputs": [],
			"stateMutability": "nonpayable",
			"type": "function"
		},
		{
			"inputs": [],
			"name": "gatelock",
			"outputs": [
				{
					"internalType": "bool",
					"name": "",
					"type": "bool"
				}
			],
			"stateMutability": "view",
			"type": "function"
		},
		{
			"inputs": [],
			"name": "gater",
			"outputs": [
				{
					"internalType": "address",
					"name": "",
					"type": "address"
				}
			],
			"stateMutability": "view",
			"type": "function"
		},
		{
			"inputs": [
				{
					"internalType": "uint16",
					"name": "lookerCardinalityNext",
					"type": "uint16"
				}
			],
			"name": "increaseLookerCardinalityNext",
			"outputs": [],
			"stateMutability": "nonpayable",
			"type": "function"
		},
		{
			"inputs": [
				{
					"internalType": "uint160",
					"name": "sqrtPriceX96",
					"type": "uint160"
				}
			],
			"name": "initialize",
			"outputs": [],
			"stateMutability": "nonpayable",
			"type": "function"
		},
		{
			"inputs": [],
			"name": "investion",
			"outputs": [
				{
					"internalType": "uint128",
					"name": "",
					"type": "uint128"
				}
			],
			"stateMutability": "view",
			"type": "function"
		},
		{
			"inputs": [],
			"name": "lockShopbyGetor",
			"outputs": [],
			"stateMutability": "nonpayable",
			"type": "function"
		},
		{
			"inputs": [],
			"name": "lockShopbyMarketor",
			"outputs": [],
			"stateMutability": "nonpayable",
			"type": "function"
		},
		{
			"inputs": [],
			"name": "market",
			"outputs": [
				{
					"internalType": "address",
					"name": "",
					"type": "address"
				}
			],
			"stateMutability": "view",
			"type": "function"
		},
		{
			"inputs": [],
			"name": "marketlock",
			"outputs": [
				{
					"internalType": "bool",
					"name": "",
					"type": "bool"
				}
			],
			"stateMutability": "view",
			"type": "function"
		},
		{
			"inputs": [],
			"name": "maxInvestionPerUnit",
			"outputs": [
				{
					"internalType": "uint128",
					"name": "",
					"type": "uint128"
				}
			],
			"stateMutability": "view",
			"type": "function"
		},
		{
			"inputs": [
				{
					"internalType": "address",
					"name": "recipient",
					"type": "address"
				},
				{
					"internalType": "int24",
					"name": "_unitLower",
					"type": "int24"
				},
				{
					"internalType": "int24",
					"name": "_unitUpper",
					"type": "int24"
				},
				{
					"internalType": "uint128",
					"name": "amount",
					"type": "uint128"
				},
				{
					"internalType": "bytes",
					"name": "data",
					"type": "bytes"
				}
			],
			"name": "mint",
			"outputs": [
				{
					"internalType": "uint256",
					"name": "coinamount",
					"type": "uint256"
				},
				{
					"internalType": "uint256",
					"name": "thingamount",
					"type": "uint256"
				}
			],
			"stateMutability": "nonpayable",
			"type": "function"
		},
		{
			"inputs": [
				{
					"internalType": "uint32[]",
					"name": "secondsAgos",
					"type": "uint32[]"
				}
			],
			"name": "observe",
			"outputs": [
				{
					"internalType": "int56[]",
					"name": "unitCumulatives",
					"type": "int56[]"
				},
				{
					"internalType": "uint160[]",
					"name": "secondsPerinvestionCumulativeX128s",
					"type": "uint160[]"
				}
			],
			"stateMutability": "view",
			"type": "function"
		},
		{
			"inputs": [
				{
					"internalType": "uint256",
					"name": "",
					"type": "uint256"
				}
			],
			"name": "priceLogers",
			"outputs": [
				{
					"internalType": "uint32",
					"name": "blockTimestamp",
					"type": "uint32"
				},
				{
					"internalType": "int56",
					"name": "unitCumulative",
					"type": "int56"
				},
				{
					"internalType": "uint160",
					"name": "secondsPerInvestionCumulativeX128",
					"type": "uint160"
				},
				{
					"internalType": "bool",
					"name": "initialized",
					"type": "bool"
				}
			],
			"stateMutability": "view",
			"type": "function"
		},
		{
			"inputs": [],
			"name": "profit",
			"outputs": [
				{
					"internalType": "uint24",
					"name": "",
					"type": "uint24"
				}
			],
			"stateMutability": "view",
			"type": "function"
		},
		{
			"inputs": [],
			"name": "profitGrowthGlobalCoinX128",
			"outputs": [
				{
					"internalType": "uint256",
					"name": "",
					"type": "uint256"
				}
			],
			"stateMutability": "view",
			"type": "function"
		},
		{
			"inputs": [],
			"name": "profitshares",
			"outputs": [
				{
					"internalType": "uint8",
					"name": "investshare",
					"type": "uint8"
				},
				{
					"internalType": "uint8",
					"name": "marketshare",
					"type": "uint8"
				},
				{
					"internalType": "uint8",
					"name": "gatorshare",
					"type": "uint8"
				},
				{
					"internalType": "uint8",
					"name": "commandershare",
					"type": "uint8"
				},
				{
					"internalType": "uint8",
					"name": "usershare",
					"type": "uint8"
				}
			],
			"stateMutability": "view",
			"type": "function"
		},
		{
			"inputs": [
				{
					"internalType": "bytes32",
					"name": "",
					"type": "bytes32"
				}
			],
			"name": "proofs",
			"outputs": [
				{
					"internalType": "uint128",
					"name": "liquidity",
					"type": "uint128"
				},
				{
					"internalType": "uint256",
					"name": "coinFeeGrowthInsideLastX128",
					"type": "uint256"
				},
				{
					"internalType": "uint128",
					"name": "tokensOwed0",
					"type": "uint128"
				},
				{
					"internalType": "uint128",
					"name": "tokensOwed1",
					"type": "uint128"
				}
			],
			"stateMutability": "view",
			"type": "function"
		},
		{
			"inputs": [],
			"name": "scope",
			"outputs": [
				{
					"internalType": "uint8",
					"name": "",
					"type": "uint8"
				}
			],
			"stateMutability": "view",
			"type": "function"
		},
		{
			"inputs": [
				{
					"internalType": "uint8",
					"name": "_investshare",
					"type": "uint8"
				},
				{
					"internalType": "uint8",
					"name": "_marketshare",
					"type": "uint8"
				},
				{
					"internalType": "uint8",
					"name": "_gatershare",
					"type": "uint8"
				},
				{
					"internalType": "uint8",
					"name": "_commandershare",
					"type": "uint8"
				},
				{
					"internalType": "uint8",
					"name": "_usershare",
					"type": "uint8"
				}
			],
			"name": "setShopFeeProfitSharesbyMarketor",
			"outputs": [],
			"stateMutability": "nonpayable",
			"type": "function"
		},
		{
			"inputs": [
				{
					"internalType": "address",
					"name": "",
					"type": "address"
				}
			],
			"name": "shopfee",
			"outputs": [
				{
					"internalType": "uint128",
					"name": "",
					"type": "uint128"
				}
			],
			"stateMutability": "view",
			"type": "function"
		},
		{
			"inputs": [
				{
					"internalType": "int24",
					"name": "_unitLower",
					"type": "int24"
				},
				{
					"internalType": "int24",
					"name": "_unitUpper",
					"type": "int24"
				}
			],
			"name": "snapshotCumulativesInside",
			"outputs": [
				{
					"internalType": "int56",
					"name": "unitCumulativeInside",
					"type": "int56"
				},
				{
					"internalType": "uint160",
					"name": "secondsPerinvestionInsideX128",
					"type": "uint160"
				},
				{
					"internalType": "uint32",
					"name": "secondsInside",
					"type": "uint32"
				}
			],
			"stateMutability": "view",
			"type": "function"
		},
		{
			"inputs": [],
			"name": "state0",
			"outputs": [
				{
					"internalType": "uint160",
					"name": "sqrtPriceX96",
					"type": "uint160"
				},
				{
					"internalType": "int24",
					"name": "unit",
					"type": "int24"
				},
				{
					"internalType": "uint16",
					"name": "lookerIndex",
					"type": "uint16"
				},
				{
					"internalType": "uint16",
					"name": "lookerCardinality",
					"type": "uint16"
				},
				{
					"internalType": "uint16",
					"name": "lookerCardinalityNext",
					"type": "uint16"
				},
				{
					"internalType": "bool",
					"name": "unlocked",
					"type": "bool"
				}
			],
			"stateMutability": "view",
			"type": "function"
		},
		{
			"inputs": [
				{
					"internalType": "address",
					"name": "recipient",
					"type": "address"
				},
				{
					"internalType": "address",
					"name": "_gateraddress",
					"type": "address"
				},
				{
					"internalType": "bool",
					"name": "zeroForOne",
					"type": "bool"
				},
				{
					"internalType": "int256",
					"name": "amountSpecified",
					"type": "int256"
				},
				{
					"internalType": "uint160",
					"name": "sqrtPriceLimitX96",
					"type": "uint160"
				},
				{
					"internalType": "bytes",
					"name": "data",
					"type": "bytes"
				}
			],
			"name": "swap",
			"outputs": [
				{
					"internalType": "int256",
					"name": "amount0",
					"type": "int256"
				},
				{
					"internalType": "int256",
					"name": "amount1",
					"type": "int256"
				}
			],
			"stateMutability": "nonpayable",
			"type": "function"
		},
		{
			"inputs": [],
			"name": "thing",
			"outputs": [
				{
					"internalType": "address",
					"name": "",
					"type": "address"
				}
			],
			"stateMutability": "view",
			"type": "function"
		},
		{
			"inputs": [
				{
					"internalType": "int16",
					"name": "",
					"type": "int16"
				}
			],
			"name": "unitBitmap",
			"outputs": [
				{
					"internalType": "uint256",
					"name": "",
					"type": "uint256"
				}
			],
			"stateMutability": "view",
			"type": "function"
		},
		{
			"inputs": [],
			"name": "unitSpacing",
			"outputs": [
				{
					"internalType": "int24",
					"name": "",
					"type": "int24"
				}
			],
			"stateMutability": "view",
			"type": "function"
		},
		{
			"inputs": [
				{
					"internalType": "int24",
					"name": "",
					"type": "int24"
				}
			],
			"name": "units",
			"outputs": [
				{
					"internalType": "uint128",
					"name": "InvestGross",
					"type": "uint128"
				},
				{
					"internalType": "int128",
					"name": "InvestNet",
					"type": "int128"
				},
				{
					"internalType": "uint256",
					"name": "coinFeeGrowthOutsideX128",
					"type": "uint256"
				},
				{
					"internalType": "int56",
					"name": "unitCumulativeOutside",
					"type": "int56"
				},
				{
					"internalType": "uint160",
					"name": "secondsPerLiquidityOutsideX128",
					"type": "uint160"
				},
				{
					"internalType": "uint32",
					"name": "secondsOutside",
					"type": "uint32"
				},
				{
					"internalType": "bool",
					"name": "initialized",
					"type": "bool"
				}
			],
			"stateMutability": "view",
			"type": "function"
		},
		{
			"inputs": [],
			"name": "unlockShopbyGetor",
			"outputs": [],
			"stateMutability": "nonpayable",
			"type": "function"
		},
		{
			"inputs": [],
			"name": "unlockShopbyMarketor",
			"outputs": [],
			"stateMutability": "nonpayable",
			"type": "function"
		}
	]
}