{
	"data": {
		"bytecode": {
			"linkReferences": {},
			"object": "60806040523480156200001157600080fd5b506040516200196938038062001969833981016040819052620000349162000096565b600380546001600160a01b039384166001600160a01b03199182161790915560048054929093169116179055600280546001600160801b0319166001179055620000ce565b80516001600160a01b03811681146200009157600080fd5b919050565b60008060408385031215620000aa57600080fd5b620000b58362000079565b9150620000c56020840162000079565b90509250929050565b61188b80620000de6000396000f3fe608060405234801561001057600080fd5b506004361061012c5760003560e01c806382dfbd20116100ad578063b614984d11610071578063b614984d146102ee578063c038429214610301578063cf093eee14610330578063dd34846014610343578063f1c9f40f1461035457600080fd5b806382dfbd20146102615780638ab5b5341461028a57806390872671146102aa578063a4786088146102bd578063b4c4b9ac146102d057600080fd5b806354a460f6116100f457806354a460f6146101ee57806360772dc914610215578063631d187814610228578063769413001461023b5780637e0364ef1461024e57600080fd5b806319b24ee31461013157806327cbaabe146101805780633bbae141146101ab57806345df4987146101b5578063492b7107146101db575b600080fd5b61016361013f36600461122a565b6001600160a01b03166000908152602081905260409020546001600160801b031690565b6040516001600160801b0390911681526020015b60405180910390f35b600454610193906001600160a01b031681565b6040516001600160a01b039091168152602001610177565b6101b361035c565b005b6101c86101c336600461122a565b61043b565b6040516101779796959493929190611292565b600354610193906001600160a01b031681565b3360009081526020819052604090206004015460ff165b6040519015158152602001610177565b600254610163906001600160801b031681565b6101b36102363660046113e9565b61051b565b6101b361024936600461122a565b61070c565b6101b361025c3660046114b5565b610834565b61019361026f3660046114e8565b6001602052600090815260409020546001600160a01b031681565b61029d610298366004611503565b6108bc565b6040516101779190611526565b6101b36102b83660046113e9565b610a11565b6101b36102cb36600461122a565b610c1b565b336000908152602081905260409020546001600160801b0316610163565b6101b36102fc36600461122a565b610d40565b61020561030f36600461122a565b6001600160a01b031660009081526020819052604090206004015460ff1690565b6101b361033e3660046113e9565b610ea7565b6002546001600160801b0316610163565b6101b36110e4565b3360009081526020819052604090206004015460ff16151560011461038057600080fd5b3360009081526020819052604090206004015462010000900460ff16151560011480156103c65750336000818152602081905260409020600101546001600160a01b0316145b6103eb5760405162461bcd60e51b81526004016103e2906115a7565b60405180910390fd5b3360008181526020818152604091829020600401805461ff001916905590519182527fe5774dc76216b6570b210f3cb5fed8d6d443aadc204e69b02436c40bae70db3491015b60405180910390a1565b6000602081905290815260409020805460018201546002830180546001600160801b03909316936001600160a01b0390921692610477906115d6565b80601f01602080910402602001604051908101604052809291908181526020018280546104a3906115d6565b80156104f05780601f106104c5576101008083540402835291602001916104f0565b820191906000526020600020905b8154815290600101906020018083116104d357829003601f168201915b50505050600383015460049093015491929160ff808216925061010082048116916201000090041687565b3360009081526020819052604090206004015460ff16151560011461053f57600080fd5b6020818101516001600160a01b0316600090815290819052604090206004015462010000900460ff1615156001146105895760405162461bcd60e51b81526004016103e290611610565b6020808201516001600160a01b039081166000908152918290526040909120600101541633146105cb5760405162461bcd60e51b81526004016103e29061163e565b602081810180516001600160a01b039081166000908152808452604080822060049081015460ff9081161515608089015285518516845283875282842090910154610100900416151560a087015283518316825293819052839020845181546001600160801b0319166001600160801b0390911617815591516001830180546001600160a01b0319169190921617905590820151829190600282019061067190826116b8565b506060820151600382015560808201516004909101805460a084015160c0909401511515620100000262ff0000199415156101000261ff00199415159490941661ffff19909216919091179290921792909216179055602081015160408083015190517f895c57d6846b159457da8c5691dbdcc3ee078da87a4c6837b61ace71780aee0692610701929091611778565b60405180910390a150565b60035460405163038c332960e51b81523360048201526001600160a01b0390911690637186652090602401602060405180830381865afa158015610754573d6000803e3d6000fd5b505050506040513d601f19601f8201168201806040525081019061077891906117a4565b6107945760405162461bcd60e51b81526004016103e2906117c1565b6001600160a01b03811660009081526020819052604090206004015462010000900460ff1615156001146107da5760405162461bcd60e51b81526004016103e2906115a7565b6001600160a01b03811660008181526020818152604091829020600401805460ff19166001179055815192835233908301527f4353413b15cd3738c15f5943344e98f0982686884f71f3d2a639891b7ed281b79101610701565b6004546001600160a01b0316331461088e5760405162461bcd60e51b815260206004820152601960248201527f796f7520617265206e6f74206d61726b6574637265617465720000000000000060448201526064016103e2565b600380546001600160a01b039384166001600160a01b03199182161790915560048054929093169116179055565b6040805160e0808201835260008083526020808401829052606084860181905284018290526080840182905260a0840182905260c0840182905260ff861682526001808252858320546001600160a01b039081168452838352928690208651948501875280546001600160801b031685529081015490921690830152600281018054939492939192840191610950906115d6565b80601f016020809104026020016040519081016040528092919081815260200182805461097c906115d6565b80156109c95780601f1061099e576101008083540402835291602001916109c9565b820191906000526020600020905b8154815290600101906020018083116109ac57829003601f168201915b50505091835250506003820154602082015260049091015460ff8082161515604084015261010082048116151560608401526201000090910416151560809091015292915050565b60035460405163038c332960e51b81523360048201526001600160a01b0390911690637186652090602401602060405180830381865afa158015610a59573d6000803e3d6000fd5b505050506040513d601f19601f82011682018060405250810190610a7d91906117a4565b610a995760405162461bcd60e51b81526004016103e2906117c1565b6020818101516001600160a01b0316600090815290819052604090206004015462010000900460ff161515600114610ae35760405162461bcd60e51b81526004016103e290611610565b602081810180516001600160a01b039081166000908152808452604080822060049081015460ff9081161515608089015285518516845283875282842090910154610100900416151560a087015283518316825293819052839020845181546001600160801b0319166001600160801b0390911617815591516001830180546001600160a01b03191691909216179055908201518291906002820190610b8990826116b8565b506060820151600382015560808201516004909101805460a084015160c0909401511515620100000262ff0000199415156101000261ff00199415159490941661ffff19909216919091179290921792909216179055602081015160408083015190517ffa648c383832609827e2704dc27852742c362e9716571d853d2adbd2b75f3cd59261070192909133906117eb565b60035460405163038c332960e51b81523360048201526001600160a01b0390911690637186652090602401602060405180830381865afa158015610c63573d6000803e3d6000fd5b505050506040513d601f19601f82011682018060405250810190610c8791906117a4565b610ca35760405162461bcd60e51b81526004016103e2906117c1565b6001600160a01b03811660009081526020819052604090206004015462010000900460ff161515600114610ce95760405162461bcd60e51b81526004016103e2906115a7565b6001600160a01b03811660008181526020818152604091829020600401805460ff19169055815192835233908301527f54ca41dd8de3ebb98f98a5f6fb0390d8f2c691921355f6657ae3b2f5b56a881b9101610701565b60035460405163038c332960e51b81523360048201526001600160a01b0390911690637186652090602401602060405180830381865afa158015610d88573d6000803e3d6000fd5b505050506040513d601f19601f82011682018060405250810190610dac91906117a4565b610dc85760405162461bcd60e51b81526004016103e2906117c1565b6001600160a01b03811660009081526020819052604090206004015462010000900460ff161515600114610e0e5760405162461bcd60e51b81526004016103e290611610565b6001600160a01b038116600090815260208190526040812080546001600160801b03191681556001810180546001600160a01b031916905590610e5460028301826111b8565b5060006003820155600401805462ffffff19169055604080516001600160a01b03831681523360208201527fa36348788e76a7600444ed49ae6c1099ab91d47dfb810828281289ef9cfc2e519101610701565b6020818101516001600160a01b0316600090815290819052604090206004015462010000900460ff161515600103610ef15760405162461bcd60e51b81526004016103e290611610565b60208101516001600160a01b03163314610f1d5760405162461bcd60e51b81526004016103e29061163e565b60006080820181905260a08201526002546001600160801b0316808252426060830152610f4b816001611820565b6001600160801b031611610f715760405162461bcd60e51b81526004016103e29061163e565b602081810180516001600160a01b03908116600090815292839052604092839020845181546001600160801b0319166001600160801b0390911617815591516001830180546001600160a01b03191691909216179055908201518291906002820190610fdd90826116b8565b506060820151600382015560808201516004909101805460a084015160c09094015161ffff1990911692151561ff00191692909217610100931515939093029290921762ff000019166201000091151591909102179055602081810151600280546001600160801b0390811660009081526001948590526040812080546001600160a01b0319166001600160a01b0390951694909417909355815491929161108791859116611820565b92506101000a8154816001600160801b0302191690836001600160801b031602179055507f9f65233eba02d5215f3d26f2235b1e8b55f1ef8a9e49b96daabf3afb9713aedf81602001518260400151604051610701929190611778565b3360009081526020819052604090206004015460ff16151560011461110857600080fd5b3360009081526020819052604090206004015462010000900460ff161515600114801561114e5750336000818152602081905260409020600101546001600160a01b0316145b61116a5760405162461bcd60e51b81526004016103e2906115a7565b3360008181526020818152604091829020600401805461ff00191661010017905590519182527f41b29cac8375216177a0c8d96dba938910dc6a3650e7f38b04146aa1f63811319101610431565b5080546111c4906115d6565b6000825580601f106111d4575050565b601f0160209004906000526020600020908101906111f291906111f5565b50565b5b8082111561120a57600081556001016111f6565b5090565b80356001600160a01b038116811461122557600080fd5b919050565b60006020828403121561123c57600080fd5b6112458261120e565b9392505050565b6000815180845260005b8181101561127257602081850181015186830182015201611256565b506000602082860101526020601f19601f83011685010191505092915050565b6001600160801b03881681526001600160a01b038716602082015260e0604082018190526000906112c59083018861124c565b606083019690965250921515608084015290151560a0830152151560c0909101529392505050565b634e487b7160e01b600052604160045260246000fd5b60405160e0810167ffffffffffffffff81118282101715611326576113266112ed565b60405290565b80356001600160801b038116811461122557600080fd5b600082601f83011261135457600080fd5b813567ffffffffffffffff8082111561136f5761136f6112ed565b604051601f8301601f19908116603f01168101908282118183101715611397576113976112ed565b816040528381528660208588010111156113b057600080fd5b836020870160208301376000602085830101528094505050505092915050565b80151581146111f257600080fd5b8035611225816113d0565b6000602082840312156113fb57600080fd5b813567ffffffffffffffff8082111561141357600080fd5b9083019060e0828603121561142757600080fd5b61142f611303565b6114388361132c565b81526114466020840161120e565b602082015260408301358281111561145d57600080fd5b61146987828601611343565b60408301525060608301356060820152611485608084016113de565b608082015261149660a084016113de565b60a08201526114a760c084016113de565b60c082015295945050505050565b600080604083850312156114c857600080fd5b6114d18361120e565b91506114df6020840161120e565b90509250929050565b6000602082840312156114fa57600080fd5b6112458261132c565b60006020828403121561151557600080fd5b813560ff8116811461124557600080fd5b602081526001600160801b03825116602082015260018060a01b0360208301511660408201526000604083015160e0606084015261156861010084018261124c565b9050606084015160808401526080840151151560a084015260a0840151151560c084015260c084015161159f60e085018215159052565b509392505050565b6020808252601590820152741d1a194819d85d1bdc881a5cdb9bdd08195e1a5cdd605a1b604082015260600190565b600181811c908216806115ea57607f821691505b60208210810361160a57634e487b7160e01b600052602260045260246000fd5b50919050565b6020808252601490820152733a34329033b0ba37b91034b99032bc34b9ba32b960611b604082015260600190565b6020808252601190820152703a34329033b0ba37b91034b9903cb7bab960791b604082015260600190565b601f8211156116b357600081815260208120601f850160051c810160208610156116905750805b601f850160051c820191505b818110156116af5782815560010161169c565b5050505b505050565b815167ffffffffffffffff8111156116d2576116d26112ed565b6116e6816116e084546115d6565b84611669565b602080601f83116001811461171b57600084156117035750858301515b600019600386901b1c1916600185901b1785556116af565b600085815260208120601f198616915b8281101561174a5788860151825594840194600190910190840161172b565b50858210156117685787850151600019600388901b60f8161c191681555b5050505050600190811b01905550565b6001600160a01b038316815260406020820181905260009061179c9083018461124c565b949350505050565b6000602082840312156117b657600080fd5b8151611245816113d0565b60208082526010908201526f3cb7ba9030b9329036b0b935b2ba37b960811b604082015260600190565b600060018060a01b0380861683526060602084015261180d606084018661124c565b9150808416604084015250949350505050565b6001600160801b0381811683821601908082111561184e57634e487b7160e01b600052601160045260246000fd5b509291505056fea2646970667358221220c41c23f034993261e3951c0c6de95efee04f3716e724c706fb52d5a49cafd72164736f6c63430008120033",
			"opcodes": "PUSH1 0x80 PUSH1 0x40 MSTORE CALLVALUE DUP1 ISZERO PUSH3 0x11 JUMPI PUSH1 0x0 DUP1 REVERT JUMPDEST POP PUSH1 0x40 MLOAD PUSH3 0x1969 CODESIZE SUB DUP1 PUSH3 0x1969 DUP4 CODECOPY DUP2 ADD PUSH1 0x40 DUP2 SWAP1 MSTORE PUSH3 0x34 SWAP2 PUSH3 0x96 JUMP JUMPDEST PUSH1 0x3 DUP1 SLOAD PUSH1 0x1 PUSH1 0x1 PUSH1 0xA0 SHL SUB SWAP4 DUP5 AND PUSH1 0x1 PUSH1 0x1 PUSH1 0xA0 SHL SUB NOT SWAP2 DUP3 AND OR SWAP1 SWAP2 SSTORE PUSH1 0x4 DUP1 SLOAD SWAP3 SWAP1 SWAP4 AND SWAP2 AND OR SWAP1 SSTORE PUSH1 0x2 DUP1 SLOAD PUSH1 0x1 PUSH1 0x1 PUSH1 0x80 SHL SUB NOT AND PUSH1 0x1 OR SWAP1 SSTORE PUSH3 0xCE JUMP JUMPDEST DUP1 MLOAD PUSH1 0x1 PUSH1 0x1 PUSH1 0xA0 SHL SUB DUP2 AND DUP2 EQ PUSH3 0x91 JUMPI PUSH1 0x0 DUP1 REVERT JUMPDEST SWAP2 SWAP1 POP JUMP JUMPDEST PUSH1 0x0 DUP1 PUSH1 0x40 DUP4 DUP6 SUB SLT ISZERO PUSH3 0xAA JUMPI PUSH1 0x0 DUP1 REVERT JUMPDEST PUSH3 0xB5 DUP4 PUSH3 0x79 JUMP JUMPDEST SWAP2 POP PUSH3 0xC5 PUSH1 0x20 DUP5 ADD PUSH3 0x79 JUMP JUMPDEST SWAP1 POP SWAP3 POP SWAP3 SWAP1 POP JUMP JUMPDEST PUSH2 0x188B DUP1 PUSH3 0xDE PUSH1 0x0 CODECOPY PUSH1 0x0 RETURN INVALID PUSH1 0x80 PUSH1 0x40 MSTORE CALLVALUE DUP1 ISZERO PUSH2 0x10 JUMPI PUSH1 0x0 DUP1 REVERT JUMPDEST POP PUSH1 0x4 CALLDATASIZE LT PUSH2 0x12C JUMPI PUSH1 0x0 CALLDATALOAD PUSH1 0xE0 SHR DUP1 PUSH4 0x82DFBD20 GT PUSH2 0xAD JUMPI DUP1 PUSH4 0xB614984D GT PUSH2 0x71 JUMPI DUP1 PUSH4 0xB614984D EQ PUSH2 0x2EE JUMPI DUP1 PUSH4 0xC0384292 EQ PUSH2 0x301 JUMPI DUP1 PUSH4 0xCF093EEE EQ PUSH2 0x330 JUMPI DUP1 PUSH4 0xDD348460 EQ PUSH2 0x343 JUMPI DUP1 PUSH4 0xF1C9F40F EQ PUSH2 0x354 JUMPI PUSH1 0x0 DUP1 REVERT JUMPDEST DUP1 PUSH4 0x82DFBD20 EQ PUSH2 0x261 JUMPI DUP1 PUSH4 0x8AB5B534 EQ PUSH2 0x28A JUMPI DUP1 PUSH4 0x90872671 EQ PUSH2 0x2AA JUMPI DUP1 PUSH4 0xA4786088 EQ PUSH2 0x2BD JUMPI DUP1 PUSH4 0xB4C4B9AC EQ PUSH2 0x2D0 JUMPI PUSH1 0x0 DUP1 REVERT JUMPDEST DUP1 PUSH4 0x54A460F6 GT PUSH2 0xF4 JUMPI DUP1 PUSH4 0x54A460F6 EQ PUSH2 0x1EE JUMPI DUP1 PUSH4 0x60772DC9 EQ PUSH2 0x215 JUMPI DUP1 PUSH4 0x631D1878 EQ PUSH2 0x228 JUMPI DUP1 PUSH4 0x76941300 EQ PUSH2 0x23B JUMPI DUP1 PUSH4 0x7E0364EF EQ PUSH2 0x24E JUMPI PUSH1 0x0 DUP1 REVERT JUMPDEST DUP1 PUSH4 0x19B24EE3 EQ PUSH2 0x131 JUMPI DUP1 PUSH4 0x27CBAABE EQ PUSH2 0x180 JUMPI DUP1 PUSH4 0x3BBAE141 EQ PUSH2 0x1AB JUMPI DUP1 PUSH4 0x45DF4987 EQ PUSH2 0x1B5 JUMPI DUP1 PUSH4 0x492B7107 EQ PUSH2 0x1DB JUMPI JUMPDEST PUSH1 0x0 DUP1 REVERT JUMPDEST PUSH2 0x163 PUSH2 0x13F CALLDATASIZE PUSH1 0x4 PUSH2 0x122A JUMP JUMPDEST PUSH1 0x1 PUSH1 0x1 PUSH1 0xA0 SHL SUB AND PUSH1 0x0 SWAP1 DUP2 MSTORE PUSH1 0x20 DUP2 SWAP1 MSTORE PUSH1 0x40 SWAP1 KECCAK256 SLOAD PUSH1 0x1 PUSH1 0x1 PUSH1 0x80 SHL SUB AND SWAP1 JUMP JUMPDEST PUSH1 0x40 MLOAD PUSH1 0x1 PUSH1 0x1 PUSH1 0x80 SHL SUB SWAP1 SWAP2 AND DUP2 MSTORE PUSH1 0x20 ADD JUMPDEST PUSH1 0x40 MLOAD DUP1 SWAP2 SUB SWAP1 RETURN JUMPDEST PUSH1 0x4 SLOAD PUSH2 0x193 SWAP1 PUSH1 0x1 PUSH1 0x1 PUSH1 0xA0 SHL SUB AND DUP2 JUMP JUMPDEST PUSH1 0x40 MLOAD PUSH1 0x1 PUSH1 0x1 PUSH1 0xA0 SHL SUB SWAP1 SWAP2 AND DUP2 MSTORE PUSH1 0x20 ADD PUSH2 0x177 JUMP JUMPDEST PUSH2 0x1B3 PUSH2 0x35C JUMP JUMPDEST STOP JUMPDEST PUSH2 0x1C8 PUSH2 0x1C3 CALLDATASIZE PUSH1 0x4 PUSH2 0x122A JUMP JUMPDEST PUSH2 0x43B JUMP JUMPDEST PUSH1 0x40 MLOAD PUSH2 0x177 SWAP8 SWAP7 SWAP6 SWAP5 SWAP4 SWAP3 SWAP2 SWAP1 PUSH2 0x1292 JUMP JUMPDEST PUSH1 0x3 SLOAD PUSH2 0x193 SWAP1 PUSH1 0x1 PUSH1 0x1 PUSH1 0xA0 SHL SUB AND DUP2 JUMP JUMPDEST CALLER PUSH1 0x0 SWAP1 DUP2 MSTORE PUSH1 0x20 DUP2 SWAP1 MSTORE PUSH1 0x40 SWAP1 KECCAK256 PUSH1 0x4 ADD SLOAD PUSH1 0xFF AND JUMPDEST PUSH1 0x40 MLOAD SWAP1 ISZERO ISZERO DUP2 MSTORE PUSH1 0x20 ADD PUSH2 0x177 JUMP JUMPDEST PUSH1 0x2 SLOAD PUSH2 0x163 SWAP1 PUSH1 0x1 PUSH1 0x1 PUSH1 0x80 SHL SUB AND DUP2 JUMP JUMPDEST PUSH2 0x1B3 PUSH2 0x236 CALLDATASIZE PUSH1 0x4 PUSH2 0x13E9 JUMP JUMPDEST PUSH2 0x51B JUMP JUMPDEST PUSH2 0x1B3 PUSH2 0x249 CALLDATASIZE PUSH1 0x4 PUSH2 0x122A JUMP JUMPDEST PUSH2 0x70C JUMP JUMPDEST PUSH2 0x1B3 PUSH2 0x25C CALLDATASIZE PUSH1 0x4 PUSH2 0x14B5 JUMP JUMPDEST PUSH2 0x834 JUMP JUMPDEST PUSH2 0x193 PUSH2 0x26F CALLDATASIZE PUSH1 0x4 PUSH2 0x14E8 JUMP JUMPDEST PUSH1 0x1 PUSH1 0x20 MSTORE PUSH1 0x0 SWAP1 DUP2 MSTORE PUSH1 0x40 SWAP1 KECCAK256 SLOAD PUSH1 0x1 PUSH1 0x1 PUSH1 0xA0 SHL SUB AND DUP2 JUMP JUMPDEST PUSH2 0x29D PUSH2 0x298 CALLDATASIZE PUSH1 0x4 PUSH2 0x1503 JUMP JUMPDEST PUSH2 0x8BC JUMP JUMPDEST PUSH1 0x40 MLOAD PUSH2 0x177 SWAP2 SWAP1 PUSH2 0x1526 JUMP JUMPDEST PUSH2 0x1B3 PUSH2 0x2B8 CALLDATASIZE PUSH1 0x4 PUSH2 0x13E9 JUMP JUMPDEST PUSH2 0xA11 JUMP JUMPDEST PUSH2 0x1B3 PUSH2 0x2CB CALLDATASIZE PUSH1 0x4 PUSH2 0x122A JUMP JUMPDEST PUSH2 0xC1B JUMP JUMPDEST CALLER PUSH1 0x0 SWAP1 DUP2 MSTORE PUSH1 0x20 DUP2 SWAP1 MSTORE PUSH1 0x40 SWAP1 KECCAK256 SLOAD PUSH1 0x1 PUSH1 0x1 PUSH1 0x80 SHL SUB AND PUSH2 0x163 JUMP JUMPDEST PUSH2 0x1B3 PUSH2 0x2FC CALLDATASIZE PUSH1 0x4 PUSH2 0x122A JUMP JUMPDEST PUSH2 0xD40 JUMP JUMPDEST PUSH2 0x205 PUSH2 0x30F CALLDATASIZE PUSH1 0x4 PUSH2 0x122A JUMP JUMPDEST PUSH1 0x1 PUSH1 0x1 PUSH1 0xA0 SHL SUB AND PUSH1 0x0 SWAP1 DUP2 MSTORE PUSH1 0x20 DUP2 SWAP1 MSTORE PUSH1 0x40 SWAP1 KECCAK256 PUSH1 0x4 ADD SLOAD PUSH1 0xFF AND SWAP1 JUMP JUMPDEST PUSH2 0x1B3 PUSH2 0x33E CALLDATASIZE PUSH1 0x4 PUSH2 0x13E9 JUMP JUMPDEST PUSH2 0xEA7 JUMP JUMPDEST PUSH1 0x2 SLOAD PUSH1 0x1 PUSH1 0x1 PUSH1 0x80 SHL SUB AND PUSH2 0x163 JUMP JUMPDEST PUSH2 0x1B3 PUSH2 0x10E4 JUMP JUMPDEST CALLER PUSH1 0x0 SWAP1 DUP2 MSTORE PUSH1 0x20 DUP2 SWAP1 MSTORE PUSH1 0x40 SWAP1 KECCAK256 PUSH1 0x4 ADD SLOAD PUSH1 0xFF AND ISZERO ISZERO PUSH1 0x1 EQ PUSH2 0x380 JUMPI PUSH1 0x0 DUP1 REVERT JUMPDEST CALLER PUSH1 0x0 SWAP1 DUP2 MSTORE PUSH1 0x20 DUP2 SWAP1 MSTORE PUSH1 0x40 SWAP1 KECCAK256 PUSH1 0x4 ADD SLOAD PUSH3 0x10000 SWAP1 DIV PUSH1 0xFF AND ISZERO ISZERO PUSH1 0x1 EQ DUP1 ISZERO PUSH2 0x3C6 JUMPI POP CALLER PUSH1 0x0 DUP2 DUP2 MSTORE PUSH1 0x20 DUP2 SWAP1 MSTORE PUSH1 0x40 SWAP1 KECCAK256 PUSH1 0x1 ADD SLOAD PUSH1 0x1 PUSH1 0x1 PUSH1 0xA0 SHL SUB AND EQ JUMPDEST PUSH2 0x3EB JUMPI PUSH1 0x40 MLOAD PUSH3 0x461BCD PUSH1 0xE5 SHL DUP2 MSTORE PUSH1 0x4 ADD PUSH2 0x3E2 SWAP1 PUSH2 0x15A7 JUMP JUMPDEST PUSH1 0x40 MLOAD DUP1 SWAP2 SUB SWAP1 REVERT JUMPDEST CALLER PUSH1 0x0 DUP2 DUP2 MSTORE PUSH1 0x20 DUP2 DUP2 MSTORE PUSH1 0x40 SWAP2 DUP3 SWAP1 KECCAK256 PUSH1 0x4 ADD DUP1 SLOAD PUSH2 0xFF00 NOT AND SWAP1 SSTORE SWAP1 MLOAD SWAP2 DUP3 MSTORE PUSH32 0xE5774DC76216B6570B210F3CB5FED8D6D443AADC204E69B02436C40BAE70DB34 SWAP2 ADD JUMPDEST PUSH1 0x40 MLOAD DUP1 SWAP2 SUB SWAP1 LOG1 JUMP JUMPDEST PUSH1 0x0 PUSH1 0x20 DUP2 SWAP1 MSTORE SWAP1 DUP2 MSTORE PUSH1 0x40 SWAP1 KECCAK256 DUP1 SLOAD PUSH1 0x1 DUP3 ADD SLOAD PUSH1 0x2 DUP4 ADD DUP1 SLOAD PUSH1 0x1 PUSH1 0x1 PUSH1 0x80 SHL SUB SWAP1 SWAP4 AND SWAP4 PUSH1 0x1 PUSH1 0x1 PUSH1 0xA0 SHL SUB SWAP1 SWAP3 AND SWAP3 PUSH2 0x477 SWAP1 PUSH2 0x15D6 JUMP JUMPDEST DUP1 PUSH1 0x1F ADD PUSH1 0x20 DUP1 SWAP2 DIV MUL PUSH1 0x20 ADD PUSH1 0x40 MLOAD SWAP1 DUP2 ADD PUSH1 0x40 MSTORE DUP1 SWAP3 SWAP2 SWAP1 DUP2 DUP2 MSTORE PUSH1 0x20 ADD DUP3 DUP1 SLOAD PUSH2 0x4A3 SWAP1 PUSH2 0x15D6 JUMP JUMPDEST DUP1 ISZERO PUSH2 0x4F0 JUMPI DUP1 PUSH1 0x1F LT PUSH2 0x4C5 JUMPI PUSH2 0x100 DUP1 DUP4 SLOAD DIV MUL DUP4 MSTORE SWAP2 PUSH1 0x20 ADD SWAP2 PUSH2 0x4F0 JUMP JUMPDEST DUP3 ADD SWAP2 SWAP1 PUSH1 0x0 MSTORE PUSH1 0x20 PUSH1 0x0 KECCAK256 SWAP1 JUMPDEST DUP2 SLOAD DUP2 MSTORE SWAP1 PUSH1 0x1 ADD SWAP1 PUSH1 0x20 ADD DUP1 DUP4 GT PUSH2 0x4D3 JUMPI DUP3 SWAP1 SUB PUSH1 0x1F AND DUP3 ADD SWAP2 JUMPDEST POP POP POP POP PUSH1 0x3 DUP4 ADD SLOAD PUSH1 0x4 SWAP1 SWAP4 ADD SLOAD SWAP2 SWAP3 SWAP2 PUSH1 0xFF DUP1 DUP3 AND SWAP3 POP PUSH2 0x100 DUP3 DIV DUP2 AND SWAP2 PUSH3 0x10000 SWAP1 DIV AND DUP8 JUMP JUMPDEST CALLER PUSH1 0x0 SWAP1 DUP2 MSTORE PUSH1 0x20 DUP2 SWAP1 MSTORE PUSH1 0x40 SWAP1 KECCAK256 PUSH1 0x4 ADD SLOAD PUSH1 0xFF AND ISZERO ISZERO PUSH1 0x1 EQ PUSH2 0x53F JUMPI PUSH1 0x0 DUP1 REVERT JUMPDEST PUSH1 0x20 DUP2 DUP2 ADD MLOAD PUSH1 0x1 PUSH1 0x1 PUSH1 0xA0 SHL SUB AND PUSH1 0x0 SWAP1 DUP2 MSTORE SWAP1 DUP2 SWAP1 MSTORE PUSH1 0x40 SWAP1 KECCAK256 PUSH1 0x4 ADD SLOAD PUSH3 0x10000 SWAP1 DIV PUSH1 0xFF AND ISZERO ISZERO PUSH1 0x1 EQ PUSH2 0x589 JUMPI PUSH1 0x40 MLOAD PUSH3 0x461BCD PUSH1 0xE5 SHL DUP2 MSTORE PUSH1 0x4 ADD PUSH2 0x3E2 SWAP1 PUSH2 0x1610 JUMP JUMPDEST PUSH1 0x20 DUP1 DUP3 ADD MLOAD PUSH1 0x1 PUSH1 0x1 PUSH1 0xA0 SHL SUB SWAP1 DUP2 AND PUSH1 0x0 SWAP1 DUP2 MSTORE SWAP2 DUP3 SWAP1 MSTORE PUSH1 0x40 SWAP1 SWAP2 KECCAK256 PUSH1 0x1 ADD SLOAD AND CALLER EQ PUSH2 0x5CB JUMPI PUSH1 0x40 MLOAD PUSH3 0x461BCD PUSH1 0xE5 SHL DUP2 MSTORE PUSH1 0x4 ADD PUSH2 0x3E2 SWAP1 PUSH2 0x163E JUMP JUMPDEST PUSH1 0x20 DUP2 DUP2 ADD DUP1 MLOAD PUSH1 0x1 PUSH1 0x1 PUSH1 0xA0 SHL SUB SWAP1 DUP2 AND PUSH1 0x0 SWAP1 DUP2 MSTORE DUP1 DUP5 MSTORE PUSH1 0x40 DUP1 DUP3 KECCAK256 PUSH1 0x4 SWAP1 DUP2 ADD SLOAD PUSH1 0xFF SWAP1 DUP2 AND ISZERO ISZERO PUSH1 0x80 DUP10 ADD MSTORE DUP6 MLOAD DUP6 AND DUP5 MSTORE DUP4 DUP8 MSTORE DUP3 DUP5 KECCAK256 SWAP1 SWAP2 ADD SLOAD PUSH2 0x100 SWAP1 DIV AND ISZERO ISZERO PUSH1 0xA0 DUP8 ADD MSTORE DUP4 MLOAD DUP4 AND DUP3 MSTORE SWAP4 DUP2 SWAP1 MSTORE DUP4 SWAP1 KECCAK256 DUP5 MLOAD DUP2 SLOAD PUSH1 0x1 PUSH1 0x1 PUSH1 0x80 SHL SUB NOT AND PUSH1 0x1 PUSH1 0x1 PUSH1 0x80 SHL SUB SWAP1 SWAP2 AND OR DUP2 SSTORE SWAP2 MLOAD PUSH1 0x1 DUP4 ADD DUP1 SLOAD PUSH1 0x1 PUSH1 0x1 PUSH1 0xA0 SHL SUB NOT AND SWAP2 SWAP1 SWAP3 AND OR SWAP1 SSTORE SWAP1 DUP3 ADD MLOAD DUP3 SWAP2 SWAP1 PUSH1 0x2 DUP3 ADD SWAP1 PUSH2 0x671 SWAP1 DUP3 PUSH2 0x16B8 JUMP JUMPDEST POP PUSH1 0x60 DUP3 ADD MLOAD PUSH1 0x3 DUP3 ADD SSTORE PUSH1 0x80 DUP3 ADD MLOAD PUSH1 0x4 SWAP1 SWAP2 ADD DUP1 SLOAD PUSH1 0xA0 DUP5 ADD MLOAD PUSH1 0xC0 SWAP1 SWAP5 ADD MLOAD ISZERO ISZERO PUSH3 0x10000 MUL PUSH3 0xFF0000 NOT SWAP5 ISZERO ISZERO PUSH2 0x100 MUL PUSH2 0xFF00 NOT SWAP5 ISZERO ISZERO SWAP5 SWAP1 SWAP5 AND PUSH2 0xFFFF NOT SWAP1 SWAP3 AND SWAP2 SWAP1 SWAP2 OR SWAP3 SWAP1 SWAP3 OR SWAP3 SWAP1 SWAP3 AND OR SWAP1 SSTORE PUSH1 0x20 DUP2 ADD MLOAD PUSH1 0x40 DUP1 DUP4 ADD MLOAD SWAP1 MLOAD PUSH32 0x895C57D6846B159457DA8C5691DBDCC3EE078DA87A4C6837B61ACE71780AEE06 SWAP3 PUSH2 0x701 SWAP3 SWAP1 SWAP2 PUSH2 0x1778 JUMP JUMPDEST PUSH1 0x40 MLOAD DUP1 SWAP2 SUB SWAP1 LOG1 POP JUMP JUMPDEST PUSH1 0x3 SLOAD PUSH1 0x40 MLOAD PUSH4 0x38C3329 PUSH1 0xE5 SHL DUP2 MSTORE CALLER PUSH1 0x4 DUP3 ADD MSTORE PUSH1 0x1 PUSH1 0x1 PUSH1 0xA0 SHL SUB SWAP1 SWAP2 AND SWAP1 PUSH4 0x71866520 SWAP1 PUSH1 0x24 ADD PUSH1 0x20 PUSH1 0x40 MLOAD DUP1 DUP4 SUB DUP2 DUP7 GAS STATICCALL ISZERO DUP1 ISZERO PUSH2 0x754 JUMPI RETURNDATASIZE PUSH1 0x0 DUP1 RETURNDATACOPY RETURNDATASIZE PUSH1 0x0 REVERT JUMPDEST POP POP POP POP PUSH1 0x40 MLOAD RETURNDATASIZE PUSH1 0x1F NOT PUSH1 0x1F DUP3 ADD AND DUP3 ADD DUP1 PUSH1 0x40 MSTORE POP DUP2 ADD SWAP1 PUSH2 0x778 SWAP2 SWAP1 PUSH2 0x17A4 JUMP JUMPDEST PUSH2 0x794 JUMPI PUSH1 0x40 MLOAD PUSH3 0x461BCD PUSH1 0xE5 SHL DUP2 MSTORE PUSH1 0x4 ADD PUSH2 0x3E2 SWAP1 PUSH2 0x17C1 JUMP JUMPDEST PUSH1 0x1 PUSH1 0x1 PUSH1 0xA0 SHL SUB DUP2 AND PUSH1 0x0 SWAP1 DUP2 MSTORE PUSH1 0x20 DUP2 SWAP1 MSTORE PUSH1 0x40 SWAP1 KECCAK256 PUSH1 0x4 ADD SLOAD PUSH3 0x10000 SWAP1 DIV PUSH1 0xFF AND ISZERO ISZERO PUSH1 0x1 EQ PUSH2 0x7DA JUMPI PUSH1 0x40 MLOAD PUSH3 0x461BCD PUSH1 0xE5 SHL DUP2 MSTORE PUSH1 0x4 ADD PUSH2 0x3E2 SWAP1 PUSH2 0x15A7 JUMP JUMPDEST PUSH1 0x1 PUSH1 0x1 PUSH1 0xA0 SHL SUB DUP2 AND PUSH1 0x0 DUP2 DUP2 MSTORE PUSH1 0x20 DUP2 DUP2 MSTORE PUSH1 0x40 SWAP2 DUP3 SWAP1 KECCAK256 PUSH1 0x4 ADD DUP1 SLOAD PUSH1 0xFF NOT AND PUSH1 0x1 OR SWAP1 SSTORE DUP2 MLOAD SWAP3 DUP4 MSTORE CALLER SWAP1 DUP4 ADD MSTORE PUSH32 0x4353413B15CD3738C15F5943344E98F0982686884F71F3D2A639891B7ED281B7 SWAP2 ADD PUSH2 0x701 JUMP JUMPDEST PUSH1 0x4 SLOAD PUSH1 0x1 PUSH1 0x1 PUSH1 0xA0 SHL SUB AND CALLER EQ PUSH2 0x88E JUMPI PUSH1 0x40 MLOAD PUSH3 0x461BCD PUSH1 0xE5 SHL DUP2 MSTORE PUSH1 0x20 PUSH1 0x4 DUP3 ADD MSTORE PUSH1 0x19 PUSH1 0x24 DUP3 ADD MSTORE PUSH32 0x796F7520617265206E6F74206D61726B65746372656174657200000000000000 PUSH1 0x44 DUP3 ADD MSTORE PUSH1 0x64 ADD PUSH2 0x3E2 JUMP JUMPDEST PUSH1 0x3 DUP1 SLOAD PUSH1 0x1 PUSH1 0x1 PUSH1 0xA0 SHL SUB SWAP4 DUP5 AND PUSH1 0x1 PUSH1 0x1 PUSH1 0xA0 SHL SUB NOT SWAP2 DUP3 AND OR SWAP1 SWAP2 SSTORE PUSH1 0x4 DUP1 SLOAD SWAP3 SWAP1 SWAP4 AND SWAP2 AND OR SWAP1 SSTORE JUMP JUMPDEST PUSH1 0x40 DUP1 MLOAD PUSH1 0xE0 DUP1 DUP3 ADD DUP4 MSTORE PUSH1 0x0 DUP1 DUP4 MSTORE PUSH1 0x20 DUP1 DUP5 ADD DUP3 SWAP1 MSTORE PUSH1 0x60 DUP5 DUP7 ADD DUP2 SWAP1 MSTORE DUP5 ADD DUP3 SWAP1 MSTORE PUSH1 0x80 DUP5 ADD DUP3 SWAP1 MSTORE PUSH1 0xA0 DUP5 ADD DUP3 SWAP1 MSTORE PUSH1 0xC0 DUP5 ADD DUP3 SWAP1 MSTORE PUSH1 0xFF DUP7 AND DUP3 MSTORE PUSH1 0x1 DUP1 DUP3 MSTORE DUP6 DUP4 KECCAK256 SLOAD PUSH1 0x1 PUSH1 0x1 PUSH1 0xA0 SHL SUB SWAP1 DUP2 AND DUP5 MSTORE DUP4 DUP4 MSTORE SWAP3 DUP7 SWAP1 KECCAK256 DUP7 MLOAD SWAP5 DUP6 ADD DUP8 MSTORE DUP1 SLOAD PUSH1 0x1 PUSH1 0x1 PUSH1 0x80 SHL SUB AND DUP6 MSTORE SWAP1 DUP2 ADD SLOAD SWAP1 SWAP3 AND SWAP1 DUP4 ADD MSTORE PUSH1 0x2 DUP2 ADD DUP1 SLOAD SWAP4 SWAP5 SWAP3 SWAP4 SWAP2 SWAP3 DUP5 ADD SWAP2 PUSH2 0x950 SWAP1 PUSH2 0x15D6 JUMP JUMPDEST DUP1 PUSH1 0x1F ADD PUSH1 0x20 DUP1 SWAP2 DIV MUL PUSH1 0x20 ADD PUSH1 0x40 MLOAD SWAP1 DUP2 ADD PUSH1 0x40 MSTORE DUP1 SWAP3 SWAP2 SWAP1 DUP2 DUP2 MSTORE PUSH1 0x20 ADD DUP3 DUP1 SLOAD PUSH2 0x97C SWAP1 PUSH2 0x15D6 JUMP JUMPDEST DUP1 ISZERO PUSH2 0x9C9 JUMPI DUP1 PUSH1 0x1F LT PUSH2 0x99E JUMPI PUSH2 0x100 DUP1 DUP4 SLOAD DIV MUL DUP4 MSTORE SWAP2 PUSH1 0x20 ADD SWAP2 PUSH2 0x9C9 JUMP JUMPDEST DUP3 ADD SWAP2 SWAP1 PUSH1 0x0 MSTORE PUSH1 0x20 PUSH1 0x0 KECCAK256 SWAP1 JUMPDEST DUP2 SLOAD DUP2 MSTORE SWAP1 PUSH1 0x1 ADD SWAP1 PUSH1 0x20 ADD DUP1 DUP4 GT PUSH2 0x9AC JUMPI DUP3 SWAP1 SUB PUSH1 0x1F AND DUP3 ADD SWAP2 JUMPDEST POP POP POP SWAP2 DUP4 MSTORE POP POP PUSH1 0x3 DUP3 ADD SLOAD PUSH1 0x20 DUP3 ADD MSTORE PUSH1 0x4 SWAP1 SWAP2 ADD SLOAD PUSH1 0xFF DUP1 DUP3 AND ISZERO ISZERO PUSH1 0x40 DUP5 ADD MSTORE PUSH2 0x100 DUP3 DIV DUP2 AND ISZERO ISZERO PUSH1 0x60 DUP5 ADD MSTORE PUSH3 0x10000 SWAP1 SWAP2 DIV AND ISZERO ISZERO PUSH1 0x80 SWAP1 SWAP2 ADD MSTORE SWAP3 SWAP2 POP POP JUMP JUMPDEST PUSH1 0x3 SLOAD PUSH1 0x40 MLOAD PUSH4 0x38C3329 PUSH1 0xE5 SHL DUP2 MSTORE CALLER PUSH1 0x4 DUP3 ADD MSTORE PUSH1 0x1 PUSH1 0x1 PUSH1 0xA0 SHL SUB SWAP1 SWAP2 AND SWAP1 PUSH4 0x71866520 SWAP1 PUSH1 0x24 ADD PUSH1 0x20 PUSH1 0x40 MLOAD DUP1 DUP4 SUB DUP2 DUP7 GAS STATICCALL ISZERO DUP1 ISZERO PUSH2 0xA59 JUMPI RETURNDATASIZE PUSH1 0x0 DUP1 RETURNDATACOPY RETURNDATASIZE PUSH1 0x0 REVERT JUMPDEST POP POP POP POP PUSH1 0x40 MLOAD RETURNDATASIZE PUSH1 0x1F NOT PUSH1 0x1F DUP3 ADD AND DUP3 ADD DUP1 PUSH1 0x40 MSTORE POP DUP2 ADD SWAP1 PUSH2 0xA7D SWAP2 SWAP1 PUSH2 0x17A4 JUMP JUMPDEST PUSH2 0xA99 JUMPI PUSH1 0x40 MLOAD PUSH3 0x461BCD PUSH1 0xE5 SHL DUP2 MSTORE PUSH1 0x4 ADD PUSH2 0x3E2 SWAP1 PUSH2 0x17C1 JUMP JUMPDEST PUSH1 0x20 DUP2 DUP2 ADD MLOAD PUSH1 0x1 PUSH1 0x1 PUSH1 0xA0 SHL SUB AND PUSH1 0x0 SWAP1 DUP2 MSTORE SWAP1 DUP2 SWAP1 MSTORE PUSH1 0x40 SWAP1 KECCAK256 PUSH1 0x4 ADD SLOAD PUSH3 0x10000 SWAP1 DIV PUSH1 0xFF AND ISZERO ISZERO PUSH1 0x1 EQ PUSH2 0xAE3 JUMPI PUSH1 0x40 MLOAD PUSH3 0x461BCD PUSH1 0xE5 SHL DUP2 MSTORE PUSH1 0x4 ADD PUSH2 0x3E2 SWAP1 PUSH2 0x1610 JUMP JUMPDEST PUSH1 0x20 DUP2 DUP2 ADD DUP1 MLOAD PUSH1 0x1 PUSH1 0x1 PUSH1 0xA0 SHL SUB SWAP1 DUP2 AND PUSH1 0x0 SWAP1 DUP2 MSTORE DUP1 DUP5 MSTORE PUSH1 0x40 DUP1 DUP3 KECCAK256 PUSH1 0x4 SWAP1 DUP2 ADD SLOAD PUSH1 0xFF SWAP1 DUP2 AND ISZERO ISZERO PUSH1 0x80 DUP10 ADD MSTORE DUP6 MLOAD DUP6 AND DUP5 MSTORE DUP4 DUP8 MSTORE DUP3 DUP5 KECCAK256 SWAP1 SWAP2 ADD SLOAD PUSH2 0x100 SWAP1 DIV AND ISZERO ISZERO PUSH1 0xA0 DUP8 ADD MSTORE DUP4 MLOAD DUP4 AND DUP3 MSTORE SWAP4 DUP2 SWAP1 MSTORE DUP4 SWAP1 KECCAK256 DUP5 MLOAD DUP2 SLOAD PUSH1 0x1 PUSH1 0x1 PUSH1 0x80 SHL SUB NOT AND PUSH1 0x1 PUSH1 0x1 PUSH1 0x80 SHL SUB SWAP1 SWAP2 AND OR DUP2 SSTORE SWAP2 MLOAD PUSH1 0x1 DUP4 ADD DUP1 SLOAD PUSH1 0x1 PUSH1 0x1 PUSH1 0xA0 SHL SUB NOT AND SWAP2 SWAP1 SWAP3 AND OR SWAP1 SSTORE SWAP1 DUP3 ADD MLOAD DUP3 SWAP2 SWAP1 PUSH1 0x2 DUP3 ADD SWAP1 PUSH2 0xB89 SWAP1 DUP3 PUSH2 0x16B8 JUMP JUMPDEST POP PUSH1 0x60 DUP3 ADD MLOAD PUSH1 0x3 DUP3 ADD SSTORE PUSH1 0x80 DUP3 ADD MLOAD PUSH1 0x4 SWAP1 SWAP2 ADD DUP1 SLOAD PUSH1 0xA0 DUP5 ADD MLOAD PUSH1 0xC0 SWAP1 SWAP5 ADD MLOAD ISZERO ISZERO PUSH3 0x10000 MUL PUSH3 0xFF0000 NOT SWAP5 ISZERO ISZERO PUSH2 0x100 MUL PUSH2 0xFF00 NOT SWAP5 ISZERO ISZERO SWAP5 SWAP1 SWAP5 AND PUSH2 0xFFFF NOT SWAP1 SWAP3 AND SWAP2 SWAP1 SWAP2 OR SWAP3 SWAP1 SWAP3 OR SWAP3 SWAP1 SWAP3 AND OR SWAP1 SSTORE PUSH1 0x20 DUP2 ADD MLOAD PUSH1 0x40 DUP1 DUP4 ADD MLOAD SWAP1 MLOAD PUSH32 0xFA648C383832609827E2704DC27852742C362E9716571D853D2ADBD2B75F3CD5 SWAP3 PUSH2 0x701 SWAP3 SWAP1 SWAP2 CALLER SWAP1 PUSH2 0x17EB JUMP JUMPDEST PUSH1 0x3 SLOAD PUSH1 0x40 MLOAD PUSH4 0x38C3329 PUSH1 0xE5 SHL DUP2 MSTORE CALLER PUSH1 0x4 DUP3 ADD MSTORE PUSH1 0x1 PUSH1 0x1 PUSH1 0xA0 SHL SUB SWAP1 SWAP2 AND SWAP1 PUSH4 0x71866520 SWAP1 PUSH1 0x24 ADD PUSH1 0x20 PUSH1 0x40 MLOAD DUP1 DUP4 SUB DUP2 DUP7 GAS STATICCALL ISZERO DUP1 ISZERO PUSH2 0xC63 JUMPI RETURNDATASIZE PUSH1 0x0 DUP1 RETURNDATACOPY RETURNDATASIZE PUSH1 0x0 REVERT JUMPDEST POP POP POP POP PUSH1 0x40 MLOAD RETURNDATASIZE PUSH1 0x1F NOT PUSH1 0x1F DUP3 ADD AND DUP3 ADD DUP1 PUSH1 0x40 MSTORE POP DUP2 ADD SWAP1 PUSH2 0xC87 SWAP2 SWAP1 PUSH2 0x17A4 JUMP JUMPDEST PUSH2 0xCA3 JUMPI PUSH1 0x40 MLOAD PUSH3 0x461BCD PUSH1 0xE5 SHL DUP2 MSTORE PUSH1 0x4 ADD PUSH2 0x3E2 SWAP1 PUSH2 0x17C1 JUMP JUMPDEST PUSH1 0x1 PUSH1 0x1 PUSH1 0xA0 SHL SUB DUP2 AND PUSH1 0x0 SWAP1 DUP2 MSTORE PUSH1 0x20 DUP2 SWAP1 MSTORE PUSH1 0x40 SWAP1 KECCAK256 PUSH1 0x4 ADD SLOAD PUSH3 0x10000 SWAP1 DIV PUSH1 0xFF AND ISZERO ISZERO PUSH1 0x1 EQ PUSH2 0xCE9 JUMPI PUSH1 0x40 MLOAD PUSH3 0x461BCD PUSH1 0xE5 SHL DUP2 MSTORE PUSH1 0x4 ADD PUSH2 0x3E2 SWAP1 PUSH2 0x15A7 JUMP JUMPDEST PUSH1 0x1 PUSH1 0x1 PUSH1 0xA0 SHL SUB DUP2 AND PUSH1 0x0 DUP2 DUP2 MSTORE PUSH1 0x20 DUP2 DUP2 MSTORE PUSH1 0x40 SWAP2 DUP3 SWAP1 KECCAK256 PUSH1 0x4 ADD DUP1 SLOAD PUSH1 0xFF NOT AND SWAP1 SSTORE DUP2 MLOAD SWAP3 DUP4 MSTORE CALLER SWAP1 DUP4 ADD MSTORE PUSH32 0x54CA41DD8DE3EBB98F98A5F6FB0390D8F2C691921355F6657AE3B2F5B56A881B SWAP2 ADD PUSH2 0x701 JUMP JUMPDEST PUSH1 0x3 SLOAD PUSH1 0x40 MLOAD PUSH4 0x38C3329 PUSH1 0xE5 SHL DUP2 MSTORE CALLER PUSH1 0x4 DUP3 ADD MSTORE PUSH1 0x1 PUSH1 0x1 PUSH1 0xA0 SHL SUB SWAP1 SWAP2 AND SWAP1 PUSH4 0x71866520 SWAP1 PUSH1 0x24 ADD PUSH1 0x20 PUSH1 0x40 MLOAD DUP1 DUP4 SUB DUP2 DUP7 GAS STATICCALL ISZERO DUP1 ISZERO PUSH2 0xD88 JUMPI RETURNDATASIZE PUSH1 0x0 DUP1 RETURNDATACOPY RETURNDATASIZE PUSH1 0x0 REVERT JUMPDEST POP POP POP POP PUSH1 0x40 MLOAD RETURNDATASIZE PUSH1 0x1F NOT PUSH1 0x1F DUP3 ADD AND DUP3 ADD DUP1 PUSH1 0x40 MSTORE POP DUP2 ADD SWAP1 PUSH2 0xDAC SWAP2 SWAP1 PUSH2 0x17A4 JUMP JUMPDEST PUSH2 0xDC8 JUMPI PUSH1 0x40 MLOAD PUSH3 0x461BCD PUSH1 0xE5 SHL DUP2 MSTORE PUSH1 0x4 ADD PUSH2 0x3E2 SWAP1 PUSH2 0x17C1 JUMP JUMPDEST PUSH1 0x1 PUSH1 0x1 PUSH1 0xA0 SHL SUB DUP2 AND PUSH1 0x0 SWAP1 DUP2 MSTORE PUSH1 0x20 DUP2 SWAP1 MSTORE PUSH1 0x40 SWAP1 KECCAK256 PUSH1 0x4 ADD SLOAD PUSH3 0x10000 SWAP1 DIV PUSH1 0xFF AND ISZERO ISZERO PUSH1 0x1 EQ PUSH2 0xE0E JUMPI PUSH1 0x40 MLOAD PUSH3 0x461BCD PUSH1 0xE5 SHL DUP2 MSTORE PUSH1 0x4 ADD PUSH2 0x3E2 SWAP1 PUSH2 0x1610 JUMP JUMPDEST PUSH1 0x1 PUSH1 0x1 PUSH1 0xA0 SHL SUB DUP2 AND PUSH1 0x0 SWAP1 DUP2 MSTORE PUSH1 0x20 DUP2 SWAP1 MSTORE PUSH1 0x40 DUP2 KECCAK256 DUP1 SLOAD PUSH1 0x1 PUSH1 0x1 PUSH1 0x80 SHL SUB NOT AND DUP2 SSTORE PUSH1 0x1 DUP2 ADD DUP1 SLOAD PUSH1 0x1 PUSH1 0x1 PUSH1 0xA0 SHL SUB NOT AND SWAP1 SSTORE SWAP1 PUSH2 0xE54 PUSH1 0x2 DUP4 ADD DUP3 PUSH2 0x11B8 JUMP JUMPDEST POP PUSH1 0x0 PUSH1 0x3 DUP3 ADD SSTORE PUSH1 0x4 ADD DUP1 SLOAD PUSH3 0xFFFFFF NOT AND SWAP1 SSTORE PUSH1 0x40 DUP1 MLOAD PUSH1 0x1 PUSH1 0x1 PUSH1 0xA0 SHL SUB DUP4 AND DUP2 MSTORE CALLER PUSH1 0x20 DUP3 ADD MSTORE PUSH32 0xA36348788E76A7600444ED49AE6C1099AB91D47DFB810828281289EF9CFC2E51 SWAP2 ADD PUSH2 0x701 JUMP JUMPDEST PUSH1 0x20 DUP2 DUP2 ADD MLOAD PUSH1 0x1 PUSH1 0x1 PUSH1 0xA0 SHL SUB AND PUSH1 0x0 SWAP1 DUP2 MSTORE SWAP1 DUP2 SWAP1 MSTORE PUSH1 0x40 SWAP1 KECCAK256 PUSH1 0x4 ADD SLOAD PUSH3 0x10000 SWAP1 DIV PUSH1 0xFF AND ISZERO ISZERO PUSH1 0x1 SUB PUSH2 0xEF1 JUMPI PUSH1 0x40 MLOAD PUSH3 0x461BCD PUSH1 0xE5 SHL DUP2 MSTORE PUSH1 0x4 ADD PUSH2 0x3E2 SWAP1 PUSH2 0x1610 JUMP JUMPDEST PUSH1 0x20 DUP2 ADD MLOAD PUSH1 0x1 PUSH1 0x1 PUSH1 0xA0 SHL SUB AND CALLER EQ PUSH2 0xF1D JUMPI PUSH1 0x40 MLOAD PUSH3 0x461BCD PUSH1 0xE5 SHL DUP2 MSTORE PUSH1 0x4 ADD PUSH2 0x3E2 SWAP1 PUSH2 0x163E JUMP JUMPDEST PUSH1 0x0 PUSH1 0x80 DUP3 ADD DUP2 SWAP1 MSTORE PUSH1 0xA0 DUP3 ADD MSTORE PUSH1 0x2 SLOAD PUSH1 0x1 PUSH1 0x1 PUSH1 0x80 SHL SUB AND DUP1 DUP3 MSTORE TIMESTAMP PUSH1 0x60 DUP4 ADD MSTORE PUSH2 0xF4B DUP2 PUSH1 0x1 PUSH2 0x1820 JUMP JUMPDEST PUSH1 0x1 PUSH1 0x1 PUSH1 0x80 SHL SUB AND GT PUSH2 0xF71 JUMPI PUSH1 0x40 MLOAD PUSH3 0x461BCD PUSH1 0xE5 SHL DUP2 MSTORE PUSH1 0x4 ADD PUSH2 0x3E2 SWAP1 PUSH2 0x163E JUMP JUMPDEST PUSH1 0x20 DUP2 DUP2 ADD DUP1 MLOAD PUSH1 0x1 PUSH1 0x1 PUSH1 0xA0 SHL SUB SWAP1 DUP2 AND PUSH1 0x0 SWAP1 DUP2 MSTORE SWAP3 DUP4 SWAP1 MSTORE PUSH1 0x40 SWAP3 DUP4 SWAP1 KECCAK256 DUP5 MLOAD DUP2 SLOAD PUSH1 0x1 PUSH1 0x1 PUSH1 0x80 SHL SUB NOT AND PUSH1 0x1 PUSH1 0x1 PUSH1 0x80 SHL SUB SWAP1 SWAP2 AND OR DUP2 SSTORE SWAP2 MLOAD PUSH1 0x1 DUP4 ADD DUP1 SLOAD PUSH1 0x1 PUSH1 0x1 PUSH1 0xA0 SHL SUB NOT AND SWAP2 SWAP1 SWAP3 AND OR SWAP1 SSTORE SWAP1 DUP3 ADD MLOAD DUP3 SWAP2 SWAP1 PUSH1 0x2 DUP3 ADD SWAP1 PUSH2 0xFDD SWAP1 DUP3 PUSH2 0x16B8 JUMP JUMPDEST POP PUSH1 0x60 DUP3 ADD MLOAD PUSH1 0x3 DUP3 ADD SSTORE PUSH1 0x80 DUP3 ADD MLOAD PUSH1 0x4 SWAP1 SWAP2 ADD DUP1 SLOAD PUSH1 0xA0 DUP5 ADD MLOAD PUSH1 0xC0 SWAP1 SWAP5 ADD MLOAD PUSH2 0xFFFF NOT SWAP1 SWAP2 AND SWAP3 ISZERO ISZERO PUSH2 0xFF00 NOT AND SWAP3 SWAP1 SWAP3 OR PUSH2 0x100 SWAP4 ISZERO ISZERO SWAP4 SWAP1 SWAP4 MUL SWAP3 SWAP1 SWAP3 OR PUSH3 0xFF0000 NOT AND PUSH3 0x10000 SWAP2 ISZERO ISZERO SWAP2 SWAP1 SWAP2 MUL OR SWAP1 SSTORE PUSH1 0x20 DUP2 DUP2 ADD MLOAD PUSH1 0x2 DUP1 SLOAD PUSH1 0x1 PUSH1 0x1 PUSH1 0x80 SHL SUB SWAP1 DUP2 AND PUSH1 0x0 SWAP1 DUP2 MSTORE PUSH1 0x1 SWAP5 DUP6 SWAP1 MSTORE PUSH1 0x40 DUP2 KECCAK256 DUP1 SLOAD PUSH1 0x1 PUSH1 0x1 PUSH1 0xA0 SHL SUB NOT AND PUSH1 0x1 PUSH1 0x1 PUSH1 0xA0 SHL SUB SWAP1 SWAP6 AND SWAP5 SWAP1 SWAP5 OR SWAP1 SWAP4 SSTORE DUP2 SLOAD SWAP2 SWAP3 SWAP2 PUSH2 0x1087 SWAP2 DUP6 SWAP2 AND PUSH2 0x1820 JUMP JUMPDEST SWAP3 POP PUSH2 0x100 EXP DUP2 SLOAD DUP2 PUSH1 0x1 PUSH1 0x1 PUSH1 0x80 SHL SUB MUL NOT AND SWAP1 DUP4 PUSH1 0x1 PUSH1 0x1 PUSH1 0x80 SHL SUB AND MUL OR SWAP1 SSTORE POP PUSH32 0x9F65233EBA02D5215F3D26F2235B1E8B55F1EF8A9E49B96DAABF3AFB9713AEDF DUP2 PUSH1 0x20 ADD MLOAD DUP3 PUSH1 0x40 ADD MLOAD PUSH1 0x40 MLOAD PUSH2 0x701 SWAP3 SWAP2 SWAP1 PUSH2 0x1778 JUMP JUMPDEST CALLER PUSH1 0x0 SWAP1 DUP2 MSTORE PUSH1 0x20 DUP2 SWAP1 MSTORE PUSH1 0x40 SWAP1 KECCAK256 PUSH1 0x4 ADD SLOAD PUSH1 0xFF AND ISZERO ISZERO PUSH1 0x1 EQ PUSH2 0x1108 JUMPI PUSH1 0x0 DUP1 REVERT JUMPDEST CALLER PUSH1 0x0 SWAP1 DUP2 MSTORE PUSH1 0x20 DUP2 SWAP1 MSTORE PUSH1 0x40 SWAP1 KECCAK256 PUSH1 0x4 ADD SLOAD PUSH3 0x10000 SWAP1 DIV PUSH1 0xFF AND ISZERO ISZERO PUSH1 0x1 EQ DUP1 ISZERO PUSH2 0x114E JUMPI POP CALLER PUSH1 0x0 DUP2 DUP2 MSTORE PUSH1 0x20 DUP2 SWAP1 MSTORE PUSH1 0x40 SWAP1 KECCAK256 PUSH1 0x1 ADD SLOAD PUSH1 0x1 PUSH1 0x1 PUSH1 0xA0 SHL SUB AND EQ JUMPDEST PUSH2 0x116A JUMPI PUSH1 0x40 MLOAD PUSH3 0x461BCD PUSH1 0xE5 SHL DUP2 MSTORE PUSH1 0x4 ADD PUSH2 0x3E2 SWAP1 PUSH2 0x15A7 JUMP JUMPDEST CALLER PUSH1 0x0 DUP2 DUP2 MSTORE PUSH1 0x20 DUP2 DUP2 MSTORE PUSH1 0x40 SWAP2 DUP3 SWAP1 KECCAK256 PUSH1 0x4 ADD DUP1 SLOAD PUSH2 0xFF00 NOT AND PUSH2 0x100 OR SWAP1 SSTORE SWAP1 MLOAD SWAP2 DUP3 MSTORE PUSH32 0x41B29CAC8375216177A0C8D96DBA938910DC6A3650E7F38B04146AA1F6381131 SWAP2 ADD PUSH2 0x431 JUMP JUMPDEST POP DUP1 SLOAD PUSH2 0x11C4 SWAP1 PUSH2 0x15D6 JUMP JUMPDEST PUSH1 0x0 DUP3 SSTORE DUP1 PUSH1 0x1F LT PUSH2 0x11D4 JUMPI POP POP JUMP JUMPDEST PUSH1 0x1F ADD PUSH1 0x20 SWAP1 DIV SWAP1 PUSH1 0x0 MSTORE PUSH1 0x20 PUSH1 0x0 KECCAK256 SWAP1 DUP2 ADD SWAP1 PUSH2 0x11F2 SWAP2 SWAP1 PUSH2 0x11F5 JUMP JUMPDEST POP JUMP JUMPDEST JUMPDEST DUP1 DUP3 GT ISZERO PUSH2 0x120A JUMPI PUSH1 0x0 DUP2 SSTORE PUSH1 0x1 ADD PUSH2 0x11F6 JUMP JUMPDEST POP SWAP1 JUMP JUMPDEST DUP1 CALLDATALOAD PUSH1 0x1 PUSH1 0x1 PUSH1 0xA0 SHL SUB DUP2 AND DUP2 EQ PUSH2 0x1225 JUMPI PUSH1 0x0 DUP1 REVERT JUMPDEST SWAP2 SWAP1 POP JUMP JUMPDEST PUSH1 0x0 PUSH1 0x20 DUP3 DUP5 SUB SLT ISZERO PUSH2 0x123C JUMPI PUSH1 0x0 DUP1 REVERT JUMPDEST PUSH2 0x1245 DUP3 PUSH2 0x120E JUMP JUMPDEST SWAP4 SWAP3 POP POP POP JUMP JUMPDEST PUSH1 0x0 DUP2 MLOAD DUP1 DUP5 MSTORE PUSH1 0x0 JUMPDEST DUP2 DUP2 LT ISZERO PUSH2 0x1272 JUMPI PUSH1 0x20 DUP2 DUP6 ADD DUP2 ADD MLOAD DUP7 DUP4 ADD DUP3 ADD MSTORE ADD PUSH2 0x1256 JUMP JUMPDEST POP PUSH1 0x0 PUSH1 0x20 DUP3 DUP7 ADD ADD MSTORE PUSH1 0x20 PUSH1 0x1F NOT PUSH1 0x1F DUP4 ADD AND DUP6 ADD ADD SWAP2 POP POP SWAP3 SWAP2 POP POP JUMP JUMPDEST PUSH1 0x1 PUSH1 0x1 PUSH1 0x80 SHL SUB DUP9 AND DUP2 MSTORE PUSH1 0x1 PUSH1 0x1 PUSH1 0xA0 SHL SUB DUP8 AND PUSH1 0x20 DUP3 ADD MSTORE PUSH1 0xE0 PUSH1 0x40 DUP3 ADD DUP2 SWAP1 MSTORE PUSH1 0x0 SWAP1 PUSH2 0x12C5 SWAP1 DUP4 ADD DUP9 PUSH2 0x124C JUMP JUMPDEST PUSH1 0x60 DUP4 ADD SWAP7 SWAP1 SWAP7 MSTORE POP SWAP3 ISZERO ISZERO PUSH1 0x80 DUP5 ADD MSTORE SWAP1 ISZERO ISZERO PUSH1 0xA0 DUP4 ADD MSTORE ISZERO ISZERO PUSH1 0xC0 SWAP1 SWAP2 ADD MSTORE SWAP4 SWAP3 POP POP POP JUMP JUMPDEST PUSH4 0x4E487B71 PUSH1 0xE0 SHL PUSH1 0x0 MSTORE PUSH1 0x41 PUSH1 0x4 MSTORE PUSH1 0x24 PUSH1 0x0 REVERT JUMPDEST PUSH1 0x40 MLOAD PUSH1 0xE0 DUP2 ADD PUSH8 0xFFFFFFFFFFFFFFFF DUP2 GT DUP3 DUP3 LT OR ISZERO PUSH2 0x1326 JUMPI PUSH2 0x1326 PUSH2 0x12ED JUMP JUMPDEST PUSH1 0x40 MSTORE SWAP1 JUMP JUMPDEST DUP1 CALLDATALOAD PUSH1 0x1 PUSH1 0x1 PUSH1 0x80 SHL SUB DUP2 AND DUP2 EQ PUSH2 0x1225 JUMPI PUSH1 0x0 DUP1 REVERT JUMPDEST PUSH1 0x0 DUP3 PUSH1 0x1F DUP4 ADD SLT PUSH2 0x1354 JUMPI PUSH1 0x0 DUP1 REVERT JUMPDEST DUP2 CALLDATALOAD PUSH8 0xFFFFFFFFFFFFFFFF DUP1 DUP3 GT ISZERO PUSH2 0x136F JUMPI PUSH2 0x136F PUSH2 0x12ED JUMP JUMPDEST PUSH1 0x40 MLOAD PUSH1 0x1F DUP4 ADD PUSH1 0x1F NOT SWAP1 DUP2 AND PUSH1 0x3F ADD AND DUP2 ADD SWAP1 DUP3 DUP3 GT DUP2 DUP4 LT OR ISZERO PUSH2 0x1397 JUMPI PUSH2 0x1397 PUSH2 0x12ED JUMP JUMPDEST DUP2 PUSH1 0x40 MSTORE DUP4 DUP2 MSTORE DUP7 PUSH1 0x20 DUP6 DUP9 ADD ADD GT ISZERO PUSH2 0x13B0 JUMPI PUSH1 0x0 DUP1 REVERT JUMPDEST DUP4 PUSH1 0x20 DUP8 ADD PUSH1 0x20 DUP4 ADD CALLDATACOPY PUSH1 0x0 PUSH1 0x20 DUP6 DUP4 ADD ADD MSTORE DUP1 SWAP5 POP POP POP POP POP SWAP3 SWAP2 POP POP JUMP JUMPDEST DUP1 ISZERO ISZERO DUP2 EQ PUSH2 0x11F2 JUMPI PUSH1 0x0 DUP1 REVERT JUMPDEST DUP1 CALLDATALOAD PUSH2 0x1225 DUP2 PUSH2 0x13D0 JUMP JUMPDEST PUSH1 0x0 PUSH1 0x20 DUP3 DUP5 SUB SLT ISZERO PUSH2 0x13FB JUMPI PUSH1 0x0 DUP1 REVERT JUMPDEST DUP2 CALLDATALOAD PUSH8 0xFFFFFFFFFFFFFFFF DUP1 DUP3 GT ISZERO PUSH2 0x1413 JUMPI PUSH1 0x0 DUP1 REVERT JUMPDEST SWAP1 DUP4 ADD SWAP1 PUSH1 0xE0 DUP3 DUP7 SUB SLT ISZERO PUSH2 0x1427 JUMPI PUSH1 0x0 DUP1 REVERT JUMPDEST PUSH2 0x142F PUSH2 0x1303 JUMP JUMPDEST PUSH2 0x1438 DUP4 PUSH2 0x132C JUMP JUMPDEST DUP2 MSTORE PUSH2 0x1446 PUSH1 0x20 DUP5 ADD PUSH2 0x120E JUMP JUMPDEST PUSH1 0x20 DUP3 ADD MSTORE PUSH1 0x40 DUP4 ADD CALLDATALOAD DUP3 DUP2 GT ISZERO PUSH2 0x145D JUMPI PUSH1 0x0 DUP1 REVERT JUMPDEST PUSH2 0x1469 DUP8 DUP3 DUP7 ADD PUSH2 0x1343 JUMP JUMPDEST PUSH1 0x40 DUP4 ADD MSTORE POP PUSH1 0x60 DUP4 ADD CALLDATALOAD PUSH1 0x60 DUP3 ADD MSTORE PUSH2 0x1485 PUSH1 0x80 DUP5 ADD PUSH2 0x13DE JUMP JUMPDEST PUSH1 0x80 DUP3 ADD MSTORE PUSH2 0x1496 PUSH1 0xA0 DUP5 ADD PUSH2 0x13DE JUMP JUMPDEST PUSH1 0xA0 DUP3 ADD MSTORE PUSH2 0x14A7 PUSH1 0xC0 DUP5 ADD PUSH2 0x13DE JUMP JUMPDEST PUSH1 0xC0 DUP3 ADD MSTORE SWAP6 SWAP5 POP POP POP POP POP JUMP JUMPDEST PUSH1 0x0 DUP1 PUSH1 0x40 DUP4 DUP6 SUB SLT ISZERO PUSH2 0x14C8 JUMPI PUSH1 0x0 DUP1 REVERT JUMPDEST PUSH2 0x14D1 DUP4 PUSH2 0x120E JUMP JUMPDEST SWAP2 POP PUSH2 0x14DF PUSH1 0x20 DUP5 ADD PUSH2 0x120E JUMP JUMPDEST SWAP1 POP SWAP3 POP SWAP3 SWAP1 POP JUMP JUMPDEST PUSH1 0x0 PUSH1 0x20 DUP3 DUP5 SUB SLT ISZERO PUSH2 0x14FA JUMPI PUSH1 0x0 DUP1 REVERT JUMPDEST PUSH2 0x1245 DUP3 PUSH2 0x132C JUMP JUMPDEST PUSH1 0x0 PUSH1 0x20 DUP3 DUP5 SUB SLT ISZERO PUSH2 0x1515 JUMPI PUSH1 0x0 DUP1 REVERT JUMPDEST DUP2 CALLDATALOAD PUSH1 0xFF DUP2 AND DUP2 EQ PUSH2 0x1245 JUMPI PUSH1 0x0 DUP1 REVERT JUMPDEST PUSH1 0x20 DUP2 MSTORE PUSH1 0x1 PUSH1 0x1 PUSH1 0x80 SHL SUB DUP3 MLOAD AND PUSH1 0x20 DUP3 ADD MSTORE PUSH1 0x1 DUP1 PUSH1 0xA0 SHL SUB PUSH1 0x20 DUP4 ADD MLOAD AND PUSH1 0x40 DUP3 ADD MSTORE PUSH1 0x0 PUSH1 0x40 DUP4 ADD MLOAD PUSH1 0xE0 PUSH1 0x60 DUP5 ADD MSTORE PUSH2 0x1568 PUSH2 0x100 DUP5 ADD DUP3 PUSH2 0x124C JUMP JUMPDEST SWAP1 POP PUSH1 0x60 DUP5 ADD MLOAD PUSH1 0x80 DUP5 ADD MSTORE PUSH1 0x80 DUP5 ADD MLOAD ISZERO ISZERO PUSH1 0xA0 DUP5 ADD MSTORE PUSH1 0xA0 DUP5 ADD MLOAD ISZERO ISZERO PUSH1 0xC0 DUP5 ADD MSTORE PUSH1 0xC0 DUP5 ADD MLOAD PUSH2 0x159F PUSH1 0xE0 DUP6 ADD DUP3 ISZERO ISZERO SWAP1 MSTORE JUMP JUMPDEST POP SWAP4 SWAP3 POP POP POP JUMP JUMPDEST PUSH1 0x20 DUP1 DUP3 MSTORE PUSH1 0x15 SWAP1 DUP3 ADD MSTORE PUSH21 0x1D1A194819D85D1BDC881A5CDB9BDD08195E1A5CDD PUSH1 0x5A SHL PUSH1 0x40 DUP3 ADD MSTORE PUSH1 0x60 ADD SWAP1 JUMP JUMPDEST PUSH1 0x1 DUP2 DUP2 SHR SWAP1 DUP3 AND DUP1 PUSH2 0x15EA JUMPI PUSH1 0x7F DUP3 AND SWAP2 POP JUMPDEST PUSH1 0x20 DUP3 LT DUP2 SUB PUSH2 0x160A JUMPI PUSH4 0x4E487B71 PUSH1 0xE0 SHL PUSH1 0x0 MSTORE PUSH1 0x22 PUSH1 0x4 MSTORE PUSH1 0x24 PUSH1 0x0 REVERT JUMPDEST POP SWAP2 SWAP1 POP JUMP JUMPDEST PUSH1 0x20 DUP1 DUP3 MSTORE PUSH1 0x14 SWAP1 DUP3 ADD MSTORE PUSH20 0x3A34329033B0BA37B91034B99032BC34B9BA32B9 PUSH1 0x61 SHL PUSH1 0x40 DUP3 ADD MSTORE PUSH1 0x60 ADD SWAP1 JUMP JUMPDEST PUSH1 0x20 DUP1 DUP3 MSTORE PUSH1 0x11 SWAP1 DUP3 ADD MSTORE PUSH17 0x3A34329033B0BA37B91034B9903CB7BAB9 PUSH1 0x79 SHL PUSH1 0x40 DUP3 ADD MSTORE PUSH1 0x60 ADD SWAP1 JUMP JUMPDEST PUSH1 0x1F DUP3 GT ISZERO PUSH2 0x16B3 JUMPI PUSH1 0x0 DUP2 DUP2 MSTORE PUSH1 0x20 DUP2 KECCAK256 PUSH1 0x1F DUP6 ADD PUSH1 0x5 SHR DUP2 ADD PUSH1 0x20 DUP7 LT ISZERO PUSH2 0x1690 JUMPI POP DUP1 JUMPDEST PUSH1 0x1F DUP6 ADD PUSH1 0x5 SHR DUP3 ADD SWAP2 POP JUMPDEST DUP2 DUP2 LT ISZERO PUSH2 0x16AF JUMPI DUP3 DUP2 SSTORE PUSH1 0x1 ADD PUSH2 0x169C JUMP JUMPDEST POP POP POP JUMPDEST POP POP POP JUMP JUMPDEST DUP2 MLOAD PUSH8 0xFFFFFFFFFFFFFFFF DUP2 GT ISZERO PUSH2 0x16D2 JUMPI PUSH2 0x16D2 PUSH2 0x12ED JUMP JUMPDEST PUSH2 0x16E6 DUP2 PUSH2 0x16E0 DUP5 SLOAD PUSH2 0x15D6 JUMP JUMPDEST DUP5 PUSH2 0x1669 JUMP JUMPDEST PUSH1 0x20 DUP1 PUSH1 0x1F DUP4 GT PUSH1 0x1 DUP2 EQ PUSH2 0x171B JUMPI PUSH1 0x0 DUP5 ISZERO PUSH2 0x1703 JUMPI POP DUP6 DUP4 ADD MLOAD JUMPDEST PUSH1 0x0 NOT PUSH1 0x3 DUP7 SWAP1 SHL SHR NOT AND PUSH1 0x1 DUP6 SWAP1 SHL OR DUP6 SSTORE PUSH2 0x16AF JUMP JUMPDEST PUSH1 0x0 DUP6 DUP2 MSTORE PUSH1 0x20 DUP2 KECCAK256 PUSH1 0x1F NOT DUP7 AND SWAP2 JUMPDEST DUP3 DUP2 LT ISZERO PUSH2 0x174A JUMPI DUP9 DUP7 ADD MLOAD DUP3 SSTORE SWAP5 DUP5 ADD SWAP5 PUSH1 0x1 SWAP1 SWAP2 ADD SWAP1 DUP5 ADD PUSH2 0x172B JUMP JUMPDEST POP DUP6 DUP3 LT ISZERO PUSH2 0x1768 JUMPI DUP8 DUP6 ADD MLOAD PUSH1 0x0 NOT PUSH1 0x3 DUP9 SWAP1 SHL PUSH1 0xF8 AND SHR NOT AND DUP2 SSTORE JUMPDEST POP POP POP POP POP PUSH1 0x1 SWAP1 DUP2 SHL ADD SWAP1 SSTORE POP JUMP JUMPDEST PUSH1 0x1 PUSH1 0x1 PUSH1 0xA0 SHL SUB DUP4 AND DUP2 MSTORE PUSH1 0x40 PUSH1 0x20 DUP3 ADD DUP2 SWAP1 MSTORE PUSH1 0x0 SWAP1 PUSH2 0x179C SWAP1 DUP4 ADD DUP5 PUSH2 0x124C JUMP JUMPDEST SWAP5 SWAP4 POP POP POP POP JUMP JUMPDEST PUSH1 0x0 PUSH1 0x20 DUP3 DUP5 SUB SLT ISZERO PUSH2 0x17B6 JUMPI PUSH1 0x0 DUP1 REVERT JUMPDEST DUP2 MLOAD PUSH2 0x1245 DUP2 PUSH2 0x13D0 JUMP JUMPDEST PUSH1 0x20 DUP1 DUP3 MSTORE PUSH1 0x10 SWAP1 DUP3 ADD MSTORE PUSH16 0x3CB7BA9030B9329036B0B935B2BA37B9 PUSH1 0x81 SHL PUSH1 0x40 DUP3 ADD MSTORE PUSH1 0x60 ADD SWAP1 JUMP JUMPDEST PUSH1 0x0 PUSH1 0x1 DUP1 PUSH1 0xA0 SHL SUB DUP1 DUP7 AND DUP4 MSTORE PUSH1 0x60 PUSH1 0x20 DUP5 ADD MSTORE PUSH2 0x180D PUSH1 0x60 DUP5 ADD DUP7 PUSH2 0x124C JUMP JUMPDEST SWAP2 POP DUP1 DUP5 AND PUSH1 0x40 DUP5 ADD MSTORE POP SWAP5 SWAP4 POP POP POP POP JUMP JUMPDEST PUSH1 0x1 PUSH1 0x1 PUSH1 0x80 SHL SUB DUP2 DUP2 AND DUP4 DUP3 AND ADD SWAP1 DUP1 DUP3 GT ISZERO PUSH2 0x184E JUMPI PUSH4 0x4E487B71 PUSH1 0xE0 SHL PUSH1 0x0 MSTORE PUSH1 0x11 PUSH1 0x4 MSTORE PUSH1 0x24 PUSH1 0x0 REVERT JUMPDEST POP SWAP3 SWAP2 POP POP JUMP INVALID LOG2 PUSH5 0x6970667358 0x22 SLT KECCAK256 0xC4 SHR 0x23 CREATE CALLVALUE SWAP10 ORIGIN PUSH2 0xE395 SHR 0xC PUSH14 0xE95EFEE04F3716E724C706FB52D5 LOG4 SWAP13 0xAF 0xD7 0x21 PUSH5 0x736F6C6343 STOP ADDMOD SLT STOP CALLER "
		},
		"gasEstimates": {
			"creation": {
				"codeDepositCost": "1256600",
				"executionCost": "infinite",
				"totalCost": "infinite"
			},
			"external": {
				"addGater((uint128,address,string,uint256,bool,bool,bool))": "infinite",
				"delGatebyMarketor(address)": "infinite",
				"gateList(address)": "infinite",
				"gateNumbers(uint128)": "2581",
				"getGaterInfo(uint8)": "infinite",
				"getGaterNo()": "2502",
				"getGaterNo(address)": "2592",
				"getMaxGateNumber()": "2408",
				"isValidGator()": "2393",
				"isValidGator(address)": "2602",
				"lockGatebyGater()": "32226",
				"lockGatebyMarketor(address)": "infinite",
				"marketCreator()": "2383",
				"marketorContractAddress()": "2449",
				"maxGateNumbers()": "2371",
				"setGaterEnv(address,address)": "infinite",
				"unlockGatebyGater()": "32285",
				"unlockGatebyMarketor(address)": "infinite",
				"updateGatebyGator((uint128,address,string,uint256,bool,bool,bool))": "infinite",
				"updateGatebyMarketor((uint128,address,string,uint256,bool,bool,bool))": "infinite"
			}
		},
		"methodIdentifiers": {
			"addGater((uint128,address,string,uint256,bool,bool,bool))": "cf093eee",
			"delGatebyMarketor(address)": "b614984d",
			"gateList(address)": "45df4987",
			"gateNumbers(uint128)": "82dfbd20",
			"getGaterInfo(uint8)": "8ab5b534",
			"getGaterNo()": "b4c4b9ac",
			"getGaterNo(address)": "19b24ee3",
			"getMaxGateNumber()": "dd348460",
			"isValidGator()": "54a460f6",
			"isValidGator(address)": "c0384292",
			"lockGatebyGater()": "3bbae141",
			"lockGatebyMarketor(address)": "a4786088",
			"marketCreator()": "27cbaabe",
			"marketorContractAddress()": "492b7107",
			"maxGateNumbers()": "60772dc9",
			"setGaterEnv(address,address)": "7e0364ef",
			"unlockGatebyGater()": "f1c9f40f",
			"unlockGatebyMarketor(address)": "76941300",
			"updateGatebyGator((uint128,address,string,uint256,bool,bool,bool))": "631d1878",
			"updateGatebyMarketor((uint128,address,string,uint256,bool,bool,bool))": "90872671"
		}
	},
	"abi": [
		{
			"inputs": [
				{
					"internalType": "address",
					"name": "_marketorContractAddress",
					"type": "address"
				},
				{
					"internalType": "address",
					"name": "_marketCreator",
					"type": "address"
				}
			],
			"stateMutability": "nonpayable",
			"type": "constructor"
		},
		{
			"anonymous": false,
			"inputs": [
				{
					"indexed": false,
					"internalType": "address",
					"name": "gateAddress",
					"type": "address"
				},
				{
					"indexed": false,
					"internalType": "string",
					"name": "name",
					"type": "string"
				}
			],
			"name": "e_addGater",
			"type": "event"
		},
		{
			"anonymous": false,
			"inputs": [
				{
					"indexed": false,
					"internalType": "address",
					"name": "gateAddress",
					"type": "address"
				},
				{
					"indexed": false,
					"internalType": "address",
					"name": "marketoraddress",
					"type": "address"
				}
			],
			"name": "e_delGatebyMarketor",
			"type": "event"
		},
		{
			"anonymous": false,
			"inputs": [
				{
					"indexed": false,
					"internalType": "address",
					"name": "gateAddress",
					"type": "address"
				}
			],
			"name": "e_lockGatebyGater",
			"type": "event"
		},
		{
			"anonymous": false,
			"inputs": [
				{
					"indexed": false,
					"internalType": "address",
					"name": "gateAddress",
					"type": "address"
				},
				{
					"indexed": false,
					"internalType": "address",
					"name": "marketoraddress",
					"type": "address"
				}
			],
			"name": "e_lockGatebyMarketor",
			"type": "event"
		},
		{
			"anonymous": false,
			"inputs": [
				{
					"indexed": false,
					"internalType": "address",
					"name": "gateAddress",
					"type": "address"
				}
			],
			"name": "e_unlockGatebyGater",
			"type": "event"
		},
		{
			"anonymous": false,
			"inputs": [
				{
					"indexed": false,
					"internalType": "address",
					"name": "gateAddress",
					"type": "address"
				},
				{
					"indexed": false,
					"internalType": "address",
					"name": "marketoraddress",
					"type": "address"
				}
			],
			"name": "e_unlockGatebyMarketor",
			"type": "event"
		},
		{
			"anonymous": false,
			"inputs": [
				{
					"indexed": false,
					"internalType": "address",
					"name": "gateAddress",
					"type": "address"
				},
				{
					"indexed": false,
					"internalType": "string",
					"name": "name",
					"type": "string"
				}
			],
			"name": "e_updateGatebyGator",
			"type": "event"
		},
		{
			"anonymous": false,
			"inputs": [
				{
					"indexed": false,
					"internalType": "address",
					"name": "gateAddress",
					"type": "address"
				},
				{
					"indexed": false,
					"internalType": "string",
					"name": "name",
					"type": "string"
				},
				{
					"indexed": false,
					"internalType": "address",
					"name": "marketoraddress",
					"type": "address"
				}
			],
			"name": "e_updateGatebyMarketor",
			"type": "event"
		},
		{
			"inputs": [
				{
					"components": [
						{
							"internalType": "uint128",
							"name": "gateNo",
							"type": "uint128"
						},
						{
							"internalType": "address",
							"name": "gateAddress",
							"type": "address"
						},
						{
							"internalType": "string",
							"name": "name",
							"type": "string"
						},
						{
							"internalType": "uint256",
							"name": "createtimestamp",
							"type": "uint256"
						},
						{
							"internalType": "bool",
							"name": "marketunlock",
							"type": "bool"
						},
						{
							"internalType": "bool",
							"name": "gateunlock",
							"type": "bool"
						},
						{
							"internalType": "bool",
							"name": "isUsed",
							"type": "bool"
						}
					],
					"internalType": "struct LGate.Info",
					"name": "_gator",
					"type": "tuple"
				}
			],
			"name": "addGater",
			"outputs": [],
			"stateMutability": "nonpayable",
			"type": "function"
		},
		{
			"inputs": [
				{
					"internalType": "address",
					"name": "_gator",
					"type": "address"
				}
			],
			"name": "delGatebyMarketor",
			"outputs": [],
			"stateMutability": "nonpayable",
			"type": "function"
		},
		{
			"inputs": [
				{
					"internalType": "address",
					"name": "",
					"type": "address"
				}
			],
			"name": "gateList",
			"outputs": [
				{
					"internalType": "uint128",
					"name": "gateNo",
					"type": "uint128"
				},
				{
					"internalType": "address",
					"name": "gateAddress",
					"type": "address"
				},
				{
					"internalType": "string",
					"name": "name",
					"type": "string"
				},
				{
					"internalType": "uint256",
					"name": "createtimestamp",
					"type": "uint256"
				},
				{
					"internalType": "bool",
					"name": "marketunlock",
					"type": "bool"
				},
				{
					"internalType": "bool",
					"name": "gateunlock",
					"type": "bool"
				},
				{
					"internalType": "bool",
					"name": "isUsed",
					"type": "bool"
				}
			],
			"stateMutability": "view",
			"type": "function"
		},
		{
			"inputs": [
				{
					"internalType": "uint128",
					"name": "",
					"type": "uint128"
				}
			],
			"name": "gateNumbers",
			"outputs": [
				{
					"internalType": "address",
					"name": "",
					"type": "address"
				}
			],
			"stateMutability": "view",
			"type": "function"
		},
		{
			"inputs": [
				{
					"internalType": "uint8",
					"name": "_gateNumber",
					"type": "uint8"
				}
			],
			"name": "getGaterInfo",
			"outputs": [
				{
					"components": [
						{
							"internalType": "uint128",
							"name": "gateNo",
							"type": "uint128"
						},
						{
							"internalType": "address",
							"name": "gateAddress",
							"type": "address"
						},
						{
							"internalType": "string",
							"name": "name",
							"type": "string"
						},
						{
							"internalType": "uint256",
							"name": "createtimestamp",
							"type": "uint256"
						},
						{
							"internalType": "bool",
							"name": "marketunlock",
							"type": "bool"
						},
						{
							"internalType": "bool",
							"name": "gateunlock",
							"type": "bool"
						},
						{
							"internalType": "bool",
							"name": "isUsed",
							"type": "bool"
						}
					],
					"internalType": "struct LGate.Info",
					"name": "",
					"type": "tuple"
				}
			],
			"stateMutability": "view",
			"type": "function"
		},
		{
			"inputs": [
				{
					"internalType": "address",
					"name": "_gateAddress",
					"type": "address"
				}
			],
			"name": "getGaterNo",
			"outputs": [
				{
					"internalType": "uint128",
					"name": "",
					"type": "uint128"
				}
			],
			"stateMutability": "view",
			"type": "function"
		},
		{
			"inputs": [],
			"name": "getGaterNo",
			"outputs": [
				{
					"internalType": "uint128",
					"name": "",
					"type": "uint128"
				}
			],
			"stateMutability": "view",
			"type": "function"
		},
		{
			"inputs": [],
			"name": "getMaxGateNumber",
			"outputs": [
				{
					"internalType": "uint128",
					"name": "",
					"type": "uint128"
				}
			],
			"stateMutability": "view",
			"type": "function"
		},
		{
			"inputs": [],
			"name": "isValidGator",
			"outputs": [
				{
					"internalType": "bool",
					"name": "",
					"type": "bool"
				}
			],
			"stateMutability": "view",
			"type": "function"
		},
		{
			"inputs": [
				{
					"internalType": "address",
					"name": "vgaddress",
					"type": "address"
				}
			],
			"name": "isValidGator",
			"outputs": [
				{
					"internalType": "bool",
					"name": "",
					"type": "bool"
				}
			],
			"stateMutability": "view",
			"type": "function"
		},
		{
			"inputs": [],
			"name": "lockGatebyGater",
			"outputs": [],
			"stateMutability": "nonpayable",
			"type": "function"
		},
		{
			"inputs": [
				{
					"internalType": "address",
					"name": "_gatoraddress",
					"type": "address"
				}
			],
			"name": "lockGatebyMarketor",
			"outputs": [],
			"stateMutability": "nonpayable",
			"type": "function"
		},
		{
			"inputs": [],
			"name": "marketCreator",
			"outputs": [
				{
					"internalType": "address",
					"name": "",
					"type": "address"
				}
			],
			"stateMutability": "view",
			"type": "function"
		},
		{
			"inputs": [],
			"name": "marketorContractAddress",
			"outputs": [
				{
					"internalType": "address",
					"name": "",
					"type": "address"
				}
			],
			"stateMutability": "view",
			"type": "function"
		},
		{
			"inputs": [],
			"name": "maxGateNumbers",
			"outputs": [
				{
					"internalType": "uint128",
					"name": "",
					"type": "uint128"
				}
			],
			"stateMutability": "view",
			"type": "function"
		},
		{
			"inputs": [
				{
					"internalType": "address",
					"name": "_marketorContractAddress",
					"type": "address"
				},
				{
					"internalType": "address",
					"name": "_marketCreator",
					"type": "address"
				}
			],
			"name": "setGaterEnv",
			"outputs": [],
			"stateMutability": "nonpayable",
			"type": "function"
		},
		{
			"inputs": [],
			"name": "unlockGatebyGater",
			"outputs": [],
			"stateMutability": "nonpayable",
			"type": "function"
		},
		{
			"inputs": [
				{
					"internalType": "address",
					"name": "_gatoraddress",
					"type": "address"
				}
			],
			"name": "unlockGatebyMarketor",
			"outputs": [],
			"stateMutability": "nonpayable",
			"type": "function"
		},
		{
			"inputs": [
				{
					"components": [
						{
							"internalType": "uint128",
							"name": "gateNo",
							"type": "uint128"
						},
						{
							"internalType": "address",
							"name": "gateAddress",
							"type": "address"
						},
						{
							"internalType": "string",
							"name": "name",
							"type": "string"
						},
						{
							"internalType": "uint256",
							"name": "createtimestamp",
							"type": "uint256"
						},
						{
							"internalType": "bool",
							"name": "marketunlock",
							"type": "bool"
						},
						{
							"internalType": "bool",
							"name": "gateunlock",
							"type": "bool"
						},
						{
							"internalType": "bool",
							"name": "isUsed",
							"type": "bool"
						}
					],
					"internalType": "struct LGate.Info",
					"name": "_gator",
					"type": "tuple"
				}
			],
			"name": "updateGatebyGator",
			"outputs": [],
			"stateMutability": "nonpayable",
			"type": "function"
		},
		{
			"inputs": [
				{
					"components": [
						{
							"internalType": "uint128",
							"name": "gateNo",
							"type": "uint128"
						},
						{
							"internalType": "address",
							"name": "gateAddress",
							"type": "address"
						},
						{
							"internalType": "string",
							"name": "name",
							"type": "string"
						},
						{
							"internalType": "uint256",
							"name": "createtimestamp",
							"type": "uint256"
						},
						{
							"internalType": "bool",
							"name": "marketunlock",
							"type": "bool"
						},
						{
							"internalType": "bool",
							"name": "gateunlock",
							"type": "bool"
						},
						{
							"internalType": "bool",
							"name": "isUsed",
							"type": "bool"
						}
					],
					"internalType": "struct LGate.Info",
					"name": "_gator",
					"type": "tuple"
				}
			],
			"name": "updateGatebyMarketor",
			"outputs": [],
			"stateMutability": "nonpayable",
			"type": "function"
		}
	]
}