{
	"data": {
		"bytecode": {
			"linkReferences": {},
			"object": "6101206040523480156200001257600080fd5b503073ffffffffffffffffffffffffffffffffffffffff1660808173ffffffffffffffffffffffffffffffffffffffff16815250503373ffffffffffffffffffffffffffffffffffffffff16632fc924526040518163ffffffff1660e01b815260040161012060405180830381865afa15801562000094573d6000803e3d6000fd5b505050506040513d601f19601f82011682018060405250810190620000ba9190620005e6565b600080600160008491905060008201518160000160006101000a81548160ff021916908360ff16021790555060208201518160000160016101000a81548160ff021916908360ff16021790555060408201518160000160026101000a81548160ff021916908360ff16021790555060608201518160000160036101000a81548160ff021916908360ff16021790555050508391906101000a81548162ffffff021916908360020b62ffffff1602179055508262ffffff166101009062ffffff168152508373ffffffffffffffffffffffffffffffffffffffff1660e09073ffffffffffffffffffffffffffffffffffffffff168152508473ffffffffffffffffffffffffffffffffffffffff1660c09073ffffffffffffffffffffffffffffffffffffffff168152508573ffffffffffffffffffffffffffffffffffffffff1660a09073ffffffffffffffffffffffffffffffffffffffff168152505050505050506000600260156101000a81548160ff0219169083151502179055506000600260166101000a81548160ff0219169083151502179055506200027560008054906101000a900460020b620002b360201b6200482d1760201c565b600060036101000a8154816fffffffffffffffffffffffffffffffff02191690836fffffffffffffffffffffffffffffffff16021790555062000983565b60008082837ffffffffffffffffffffffffffffffffffffffffffffffffffffffffffff27618620002e59190620006e1565b620002f1919062000755565b9050600083847ffffffffffffffffffffffffffffffffffffffffffffffffffffffffffff27618620003239062000842565b6200032f9190620006e1565b6200033b919062000755565b9050600060018584846200035091906200088f565b6200035c9190620006e1565b620003689190620008f1565b90508062ffffff166fffffffffffffffffffffffffffffffff6200038d91906200094b565b9350505050919050565b6000604051905090565b600080fd5b600073ffffffffffffffffffffffffffffffffffffffff82169050919050565b6000620003d382620003a6565b9050919050565b620003e581620003c6565b8114620003f157600080fd5b50565b6000815190506200040581620003da565b92915050565b600062ffffff82169050919050565b62000425816200040b565b81146200043157600080fd5b50565b60008151905062000445816200041a565b92915050565b60008160020b9050919050565b62000463816200044b565b81146200046f57600080fd5b50565b600081519050620004838162000458565b92915050565b600080fd5b6000601f19601f8301169050919050565b7f4e487b7100000000000000000000000000000000000000000000000000000000600052604160045260246000fd5b620004d9826200048e565b810181811067ffffffffffffffff82111715620004fb57620004fa6200049f565b5b80604052505050565b60006200051062000397565b90506200051e8282620004ce565b919050565b600060ff82169050919050565b6200053b8162000523565b81146200054757600080fd5b50565b6000815190506200055b8162000530565b92915050565b6000608082840312156200057a576200057962000489565b5b62000586608062000504565b9050600062000598848285016200054a565b6000830152506020620005ae848285016200054a565b6020830152506040620005c4848285016200054a565b6040830152506060620005da848285016200054a565b60608301525092915050565b6000806000806000806101208789031215620006075762000606620003a1565b5b60006200061789828a01620003f4565b96505060206200062a89828a01620003f4565b95505060406200063d89828a01620003f4565b94505060606200065089828a0162000434565b93505060806200066389828a0162000472565b92505060a06200067689828a0162000561565b9150509295509295509295565b7f4e487b7100000000000000000000000000000000000000000000000000000000600052601260045260246000fd5b7f4e487b7100000000000000000000000000000000000000000000000000000000600052601160045260246000fd5b6000620006ee826200044b565b9150620006fb836200044b565b9250826200070e576200070d62000683565b5b600160000383147fffffffffffffffffffffffffffffffffffffffffffffffffffffffffff800000831416156200074a5762000749620006b2565b5b828205905092915050565b600062000762826200044b565b91506200076f836200044b565b925082627fffff0482116000841360008413161615620007945762000793620006b2565b5b817fffffffffffffffffffffffffffffffffffffffffffffffffffffffffff8000000583126000841260008413161615620007d457620007d3620006b2565b5b827fffffffffffffffffffffffffffffffffffffffffffffffffffffffffff8000000582126000841360008412161615620008145762000813620006b2565b5b82627fffff0582126000841260008412161615620008375762000836620006b2565b5b828202905092915050565b60006200084f826200044b565b91507fffffffffffffffffffffffffffffffffffffffffffffffffffffffffff8000008203620008845762000883620006b2565b5b816000039050919050565b60006200089c826200044b565b9150620008a9836200044b565b92508282039050627fffff81137fffffffffffffffffffffffffffffffffffffffffffffffffffffffffff80000082121715620008eb57620008ea620006b2565b5b92915050565b6000620008fe826200040b565b91506200090b836200040b565b9250828201905062ffffff811115620009295762000928620006b2565b5b92915050565b60006fffffffffffffffffffffffffffffffff82169050919050565b600062000958826200092f565b915062000965836200092f565b92508262000978576200097762000683565b5b828204905092915050565b60805160a05160c05160e0516101005161b38562000a62600039600081816111d70152818161183f015261187601526000818161190001528181614213015281816145a10152614f010152600081816106ea01528181610a50015281816118cb0152818161226f015281816142bf0152614dca01526000818161079401528181610c7d0152818161109b0152818161126f015281816114f70152818161179801528181611b6701528181611d4101528181612b060152818161382701528181613a0901528181613d880152613f6a01526000615056015261b3856000f3fe608060405234801561001057600080fd5b506004361061021c5760003560e01c806380f556051161012557806395f01f3f116100ad578063afb62fef1161007c578063afb62fef1461064d578063b15925901461066e578063b23ae19b1461068c578063c55e90fe146106a8578063f637731d146106c65761021c565b806395f01f3f1461059b578063a34123a7146105b9578063a38807f2146105ea578063a98b22c11461061c5761021c565b80638cc2ce60116100f45780638cc2ce601461051b5780638d79ddcb146105375780638f9191981461055557806392c4545c1461055f57806392cc393c1461057d5761021c565b806380f5560514610478578063883bdbfd146104965780638860d1cd146104c75780638b2ea554146104f75761021c565b80633c78bf59116101a857806366d16cc31161017757806366d16cc3146103f85780636805dede146104165780636a0b2b23146104325780636aca362d146104505780636e62d0a81461045a5761021c565b80633c78bf591461036e5780633c8a7d8d1461038a5780633d02a292146103bb578063444d95b0146103c55761021c565b8063208537ff116101ef578063208537ff146102ac5780632ad1baab146102b657806330d106b1146102e9578063317dfb06146103195780633659bb4e1461034f5761021c565b806301b293511461022157806311df99951461023f578063166d60211461025d5780631f0f4c291461027b575b600080fd5b6102296106e2565b60405161023691906188b7565b60405180910390f35b6102476106e8565b6040516102549190618913565b60405180910390f35b61026561070c565b6040516102729190618913565b60405180910390f35b61029560048036038101906102909190618964565b610732565b6040516102a39291906189bc565b60405180910390f35b6102b461078e565b005b6102d060048036038101906102cb9190618a11565b61084a565b6040516102e09493929190618aa3565b60405180910390f35b61030360048036038101906102fe9190618b4d565b6108c8565b6040516103109190618bb4565b60405180910390f35b610333600480360381019061032e9190618bcf565b610b08565b6040516103469796959493929190618c18565b60405180910390f35b610357610bbd565b6040516103659291906189bc565b60405180910390f35b61038860048036038101906103839190618cc0565b610c07565b005b6103a4600480360381019061039f9190618d65565b610e2d565b6040516103b2929190618dff565b60405180910390f35b6103c3611095565b005b6103df60048036038101906103da9190618e5e565b611151565b6040516103ef9493929190618e8b565b60405180910390f35b6104006111d5565b60405161040d9190618eee565b60405180910390f35b610430600480360381019061042b9190618f09565b6111f9565b005b61043a611449565b6040516104479190618bb4565b60405180910390f35b61045861146b565b005b6104626114e2565b60405161046f9190618f7f565b60405180910390f35b6104806114f5565b60405161048d9190618913565b60405180910390f35b6104b060048036038101906104ab9190618ff0565b611519565b6040516104be9291906191b9565b60405180910390f35b6104e160048036038101906104dc9190619229565b6115eb565b6040516104ee91906188b7565b60405180910390f35b6104ff611603565b6040516105129796959493929190619282565b60405180910390f35b610535600480360381019061053091906192f1565b6116a4565b005b61053f611fc0565b60405161054c9190618bb4565b60405180910390f35b61055d611fe2565b005b610567612059565b604051610574919061938b565b60405180910390f35b61058561206a565b60405161059291906193a6565b60405180910390f35b6105a361207d565b6040516105b09190618bb4565b60405180910390f35b6105d360048036038101906105ce91906193c1565b61232e565b6040516105e1929190618dff565b60405180910390f35b61060460048036038101906105ff9190619414565b612581565b60405161061393929190619454565b60405180910390f35b61063660048036038101906106319190619519565b612938565b6040516106449291906195d7565b60405180910390f35b610655614404565b6040516106659493929190619600565b60405180910390f35b610676614456565b60405161068391906193a6565b60405180910390f35b6106a660048036038101906106a19190619671565b614469565b005b6106b061459f565b6040516106bd9190618913565b60405180910390f35b6106e060048036038101906106db919061969e565b6145c3565b005b60055481565b7f000000000000000000000000000000000000000000000000000000000000000081565b600260009054906101000a900473ffffffffffffffffffffffffffffffffffffffff1681565b60036020528060005260406000206000915090508060000160009054906101000a90046fffffffffffffffffffffffffffffffff16908060000160109054906101000a90046fffffffffffffffffffffffffffffffff16905082565b600115157f000000000000000000000000000000000000000000000000000000000000000073ffffffffffffffffffffffffffffffffffffffff1663ad87d2ba6040518163ffffffff1660e01b8152600401602060405180830381865afa1580156107fd573d6000803e3d6000fd5b505050506040513d601f19601f8201168201806040525081019061082191906196e0565b15151461082d57600080fd5b6001600260156101000a81548160ff021916908315150217905550565b600b8161ffff811061085b57600080fd5b016000915090508060000160009054906101000a900463ffffffff16908060000160049054906101000a900460060b9080600001600b9054906101000a900473ffffffffffffffffffffffffffffffffffffffff169080600001601f9054906101000a900460ff16905084565b60006004600001601e9054906101000a900460ff1661091c576040517f08c379a00000000000000000000000000000000000000000000000000000000081526004016109139061976a565b60405180910390fd5b60006004600001601e6101000a81548160ff0219169083151502179055506000610954338686600a6148ff909392919063ffffffff16565b90508060020160009054906101000a90046fffffffffffffffffffffffffffffffff166fffffffffffffffffffffffffffffffff16836fffffffffffffffffffffffffffffffff16116109a757826109c9565b8060020160009054906101000a90046fffffffffffffffffffffffffffffffff165b91506000826fffffffffffffffffffffffffffffffff161115610a8957818160020160008282829054906101000a90046fffffffffffffffffffffffffffffffff16610a1591906197b9565b92506101000a8154816fffffffffffffffffffffffffffffffff02191690836fffffffffffffffffffffffffffffffff160217905550610a887f000000000000000000000000000000000000000000000000000000000000000087846fffffffffffffffffffffffffffffffff16614947565b5b8360020b8560020b3373ffffffffffffffffffffffffffffffffffffffff167fa19c7a8ed44abd7383cf211a618fb3a575ad3512c4daa705626f46a285aaa6c68986604051610ad99291906197fd565b60405180910390a45060016004600001601e6101000a81548160ff021916908315150217905550949350505050565b60086020528060005260406000206000915090508060000160009054906101000a90046fffffffffffffffffffffffffffffffff16908060000160109054906101000a9004600f0b908060010154908060020160009054906101000a900460060b908060020160079054906101000a900473ffffffffffffffffffffffffffffffffffffffff169080600201601b9054906101000a900463ffffffff169080600201601f9054906101000a900460ff16905087565b60068060000160009054906101000a90046fffffffffffffffffffffffffffffffff16908060000160109054906101000a90046fffffffffffffffffffffffffffffffff16905082565b6004600001601e9054906101000a900460ff16610c59576040517f08c379a0000000000000000000000000000000000000000000000000000000008152600401610c509061976a565b60405180910390fd5b60006004600001601e6101000a81548160ff021916908315150217905550600115157f000000000000000000000000000000000000000000000000000000000000000073ffffffffffffffffffffffffffffffffffffffff1663ad87d2ba6040518163ffffffff1660e01b8152600401602060405180830381865afa158015610ce6573d6000803e3d6000fd5b505050506040513d601f19601f82011682018060405250810190610d0a91906196e0565b151514610d1657600080fd5b60008260ff161480610d3c575060028260ff1610158015610d3b5750600a8260ff1611155b5b8015610d6a575060008160ff161480610d69575060028160ff1610158015610d685750600a8160ff1611155b5b5b610d7357600080fd5b60006004600001601d9054906101000a900460ff16905060048260ff16901b83610d9d9190619826565b6004600001601d6101000a81548160ff021916908360ff1602179055507f973d8d92bb299f4af6ce49b52a8adb85ae46b9f214c4c4fc06ac77401237b133601082610de8919061988a565b60048360ff16901c8585604051610e029493929190619600565b60405180910390a15060016004600001601e6101000a81548160ff0219169083151502179055505050565b6000806004600001601e9054906101000a900460ff16610e82576040517f08c379a0000000000000000000000000000000000000000000000000000000008152600401610e799061976a565b60405180910390fd5b60006004600001601e6101000a81548160ff0219169083151502179055506000856fffffffffffffffffffffffffffffffff1611610ebf57600080fd5b600080610f0a60405180608001604052808c73ffffffffffffffffffffffffffffffffffffffff1681526020018b60020b81526020018a60020b815260200189600f0b815250614a9c565b92509250508193508092506000806000861115610f2c57610f29614dc3565b91505b6000851115610f4057610f3d614efa565b90505b6000861115610fa657610f51614dc3565b610f64878461503190919063ffffffff16565b1115610fa5576040517f08c379a0000000000000000000000000000000000000000000000000000000008152600401610f9c90619907565b60405180910390fd5b5b600085111561100c57610fb7614efa565b610fca868361503190919063ffffffff16565b111561100b576040517f08c379a000000000000000000000000000000000000000000000000000000000815260040161100290619973565b60405180910390fd5b5b8960020b8b60020b8d73ffffffffffffffffffffffffffffffffffffffff167f7a53080ba414158be7ec69b987b5fb7d07dee101fe85488f0853ae16239d0bde338d8b8b6040516110609493929190619993565b60405180910390a45050505060016004600001601e6101000a81548160ff021916908315150217905550965096945050505050565b600115157f000000000000000000000000000000000000000000000000000000000000000073ffffffffffffffffffffffffffffffffffffffff1663ad87d2ba6040518163ffffffff1660e01b8152600401602060405180830381865afa158015611104573d6000803e3d6000fd5b505050506040513d601f19601f8201168201806040525081019061112891906196e0565b15151461113457600080fd5b6000600260156101000a81548160ff021916908315150217905550565b600a6020528060005260406000206000915090508060000160009054906101000a90046fffffffffffffffffffffffffffffffff16908060010154908060020160009054906101000a90046fffffffffffffffffffffffffffffffff16908060020160109054906101000a90046fffffffffffffffffffffffffffffffff16905084565b7f000000000000000000000000000000000000000000000000000000000000000081565b6004600001601e9054906101000a900460ff1661124b576040517f08c379a00000000000000000000000000000000000000000000000000000000081526004016112429061976a565b60405180910390fd5b60006004600001601e6101000a81548160ff021916908315150217905550600115157f000000000000000000000000000000000000000000000000000000000000000073ffffffffffffffffffffffffffffffffffffffff1663ad87d2ba6040518163ffffffff1660e01b8152600401602060405180830381865afa1580156112d8573d6000803e3d6000fd5b505050506040513d601f19601f820116820180604052508101906112fc91906196e0565b15151461130857600080fd5b6064818385876113189190619826565b6113229190619826565b61132c9190619826565b60ff161461136f576040517f08c379a000000000000000000000000000000000000000000000000000000000815260040161136690619a24565b60405180910390fd5b60405180608001604052808560ff1681526020018460ff1681526020018360ff1681526020018260ff16815250600160008201518160000160006101000a81548160ff021916908360ff16021790555060208201518160000160016101000a81548160ff021916908360ff16021790555060408201518160000160026101000a81548160ff021916908360ff16021790555060608201518160000160036101000a81548160ff021916908360ff16021790555090505060016004600001601e6101000a81548160ff02191690831515021790555050505050565b600760009054906101000a90046fffffffffffffffffffffffffffffffff1681565b600260009054906101000a900473ffffffffffffffffffffffffffffffffffffffff1673ffffffffffffffffffffffffffffffffffffffff163373ffffffffffffffffffffffffffffffffffffffff16146114c557600080fd5b6000600260166101000a81548160ff021916908315150217905550565b600260149054906101000a900460ff1681565b7f000000000000000000000000000000000000000000000000000000000000000081565b606080611524615054565b6115e061152f6150ae565b858580806020026020016040519081016040528093929190818152602001838360200280828437600081840152601f19601f82011690508083019250505050505050600460000160149054906101000a900460020b600460000160179054906101000a900461ffff16600760009054906101000a90046fffffffffffffffffffffffffffffffff16600460000160199054906101000a900461ffff16600b6150b6909695949392919063ffffffff16565b915091509250929050565b60096020528060005260406000206000915090505481565b60048060000160009054906101000a900473ffffffffffffffffffffffffffffffffffffffff16908060000160149054906101000a900460020b908060000160179054906101000a900461ffff16908060000160199054906101000a900461ffff169080600001601b9054906101000a900461ffff169080600001601d9054906101000a900460ff169080600001601e9054906101000a900460ff16905087565b6004600001601e9054906101000a900460ff166116f6576040517f08c379a00000000000000000000000000000000000000000000000000000000081526004016116ed9061976a565b60405180910390fd5b60006004600001601e6101000a81548160ff02191690831515021790555061171c615054565b6000600760009054906101000a90046fffffffffffffffffffffffffffffffff1690506000816fffffffffffffffffffffffffffffffff1611611794576040517f08c379a000000000000000000000000000000000000000000000000000000000815260040161178b90619a90565b60405180910390fd5b60007f000000000000000000000000000000000000000000000000000000000000000073ffffffffffffffffffffffffffffffffffffffff1663e71957b9336040518263ffffffff1660e01b81526004016117ef9190618913565b602060405180830381865afa15801561180c573d6000803e3d6000fd5b505050506040513d601f19601f820116820180604052508101906118309190619ac5565b90506000879050600061186c887f000000000000000000000000000000000000000000000000000000000000000062ffffff16620f424061525d565b905060006118a3887f000000000000000000000000000000000000000000000000000000000000000062ffffff16620f424061525d565b905060006118af614dc3565b905060006118bb614efa565b905060008b11156118f2576118f17f00000000000000000000000000000000000000000000000000000000000000008e8d614947565b5b60008a1115611927576119267f00000000000000000000000000000000000000000000000000000000000000008e8c614947565b5b6000611931614dc3565b9050600061193d614efa565b905081611953878661503190919063ffffffff16565b1115611994576040517f08c379a000000000000000000000000000000000000000000000000000000000815260040161198b90619b3e565b60405180910390fd5b806119a8868561503190919063ffffffff16565b11156119e9576040517f08c379a00000000000000000000000000000000000000000000000000000000081526004016119e090619baa565b60405180910390fd5b600084836119f79190619bca565b90506000811115611f9057600060106004600001601d9054906101000a900460ff16611a23919061988a565b90506000808260ff1614611a45578160ff1683611a409190619bfe565b611a48565b60005b90506000816fffffffffffffffffffffffffffffffff161115611f8d57600160000160019054906101000a900460ff1660ff16606482611a889190619bfe565b611a929190619c2f565b600360008c73ffffffffffffffffffffffffffffffffffffffff1673ffffffffffffffffffffffffffffffffffffffff16815260200190815260200160002060000160008282829054906101000a90046fffffffffffffffffffffffffffffffff16611afe9190619c89565b92506101000a8154816fffffffffffffffffffffffffffffffff02191690836fffffffffffffffffffffffffffffffff160217905550600160000160009054906101000a900460ff1660ff16606482611b579190619bfe565b611b619190619c2f565b600360007f000000000000000000000000000000000000000000000000000000000000000073ffffffffffffffffffffffffffffffffffffffff1673ffffffffffffffffffffffffffffffffffffffff16815260200190815260200160002060000160008282829054906101000a90046fffffffffffffffffffffffffffffffff16611bed9190619c89565b92506101000a8154816fffffffffffffffffffffffffffffffff02191690836fffffffffffffffffffffffffffffffff160217905550600073ffffffffffffffffffffffffffffffffffffffff168b73ffffffffffffffffffffffffffffffffffffffff1614611e0257600160000160029054906101000a900460ff1660ff1681611c789190619c2f565b600360008d73ffffffffffffffffffffffffffffffffffffffff1673ffffffffffffffffffffffffffffffffffffffff16815260200190815260200160002060000160008282829054906101000a90046fffffffffffffffffffffffffffffffff16611ce49190619c89565b92506101000a8154816fffffffffffffffffffffffffffffffff02191690836fffffffffffffffffffffffffffffffff160217905550600160000160039054906101000a900460ff1660ff1681611d3b9190619c2f565b600360007f000000000000000000000000000000000000000000000000000000000000000073ffffffffffffffffffffffffffffffffffffffff1673ffffffffffffffffffffffffffffffffffffffff16815260200190815260200160002060000160008282829054906101000a90046fffffffffffffffffffffffffffffffff16611dc79190619c89565b92506101000a8154816fffffffffffffffffffffffffffffffff02191690836fffffffffffffffffffffffffffffffff160217905550611f8c565b600160000160029054906101000a900460ff1660ff1681611e239190619c2f565b600360008c73ffffffffffffffffffffffffffffffffffffffff1673ffffffffffffffffffffffffffffffffffffffff16815260200190815260200160002060000160008282829054906101000a90046fffffffffffffffffffffffffffffffff16611e8f9190619c89565b92506101000a8154816fffffffffffffffffffffffffffffffff02191690836fffffffffffffffffffffffffffffffff160217905550600160000160039054906101000a900460ff1660ff1681611ee69190619c2f565b60ff16600360003373ffffffffffffffffffffffffffffffffffffffff1673ffffffffffffffffffffffffffffffffffffffff16815260200190815260200160002060000160008282829054906101000a90046fffffffffffffffffffffffffffffffff16611f559190619c89565b92506101000a8154816fffffffffffffffffffffffffffffffff02191690836fffffffffffffffffffffffffffffffff1602179055505b5b50505b5050505050505050505060016004600001601e6101000a81548160ff021916908315150217905550505050505050565b600060039054906101000a90046fffffffffffffffffffffffffffffffff1681565b600260009054906101000a900473ffffffffffffffffffffffffffffffffffffffff1673ffffffffffffffffffffffffffffffffffffffff163373ffffffffffffffffffffffffffffffffffffffff161461203c57600080fd5b6001600260166101000a81548160ff021916908315150217905550565b60008054906101000a900460020b81565b600260169054906101000a900460ff1681565b60006004600001601e9054906101000a900460ff166120d1576040517f08c379a00000000000000000000000000000000000000000000000000000000081526004016120c89061976a565b60405180910390fd5b60006004600001601e6101000a81548160ff021916908315150217905550600360003373ffffffffffffffffffffffffffffffffffffffff1673ffffffffffffffffffffffffffffffffffffffff16815260200190815260200160002060000160009054906101000a90046fffffffffffffffffffffffffffffffff1690506000816fffffffffffffffffffffffffffffffff1611156122a857600660000160009054906101000a90046fffffffffffffffffffffffffffffffff166fffffffffffffffffffffffffffffffff16816fffffffffffffffffffffffffffffffff16036121c7576001816121c491906197b9565b90505b80600360003373ffffffffffffffffffffffffffffffffffffffff1673ffffffffffffffffffffffffffffffffffffffff16815260200190815260200160002060000160008282829054906101000a90046fffffffffffffffffffffffffffffffff1661223491906197b9565b92506101000a8154816fffffffffffffffffffffffffffffffff02191690836fffffffffffffffffffffffffffffffff1602179055506122a77f000000000000000000000000000000000000000000000000000000000000000033836fffffffffffffffffffffffffffffffff16614947565b5b3373ffffffffffffffffffffffffffffffffffffffff163373ffffffffffffffffffffffffffffffffffffffff167facc66db1c93f0528449dc419537d2cf345829e5b082cc3bce3d73e204c1ec4ec836040516123059190618bb4565b60405180910390a360016004600001601e6101000a81548160ff02191690831515021790555090565b6000806004600001601e9054906101000a900460ff16612383576040517f08c379a000000000000000000000000000000000000000000000000000000000815260040161237a9061976a565b60405180910390fd5b60006004600001601e6101000a81548160ff02191690831515021790555060008060006123f760405180608001604052803373ffffffffffffffffffffffffffffffffffffffff1681526020018a60020b81526020018960020b8152602001886123ec90619ccd565b600f0b815250614a9c565b9250925092508161240790619d15565b94508061241390619d15565b935060008511806124245750600084115b156124fe57848360020160009054906101000a90046fffffffffffffffffffffffffffffffff166124559190619c89565b848460020160109054906101000a90046fffffffffffffffffffffffffffffffff166124819190619c89565b8460020160008660020160108491906101000a8154816fffffffffffffffffffffffffffffffff02191690836fffffffffffffffffffffffffffffffff1602179055508391906101000a8154816fffffffffffffffffffffffffffffffff02191690836fffffffffffffffffffffffffffffffff16021790555050505b8660020b8860020b3373ffffffffffffffffffffffffffffffffffffffff167f0c396cd989a39f4459b5fa1aed6a9a8dcdbc45908acfd67e028cd568da98982c89898960405161255093929190619d5d565b60405180910390a450505060016004600001601e6101000a81548160ff021916908315150217905550935093915050565b600080600061258e615054565b61259885856152c8565b6000806000806000806000600860008d60020b60020b815260200190815260200160002090506000600860008d60020b60020b8152602001908152602001600020905060008260020160009054906101000a900460060b8360020160079054906101000a900473ffffffffffffffffffffffffffffffffffffffff1684600201601b9054906101000a900463ffffffff1685600201601f9054906101000a900460ff16809450819850829a50839c50505050508061265557600080fd5b60008260020160009054906101000a900460060b8360020160079054906101000a900473ffffffffffffffffffffffffffffffffffffffff1684600201601b9054906101000a900463ffffffff1685600201601f9054906101000a900460ff16809450819850829a50839c5050505050806126cf57600080fd5b50505050600060046040518060e00160405290816000820160009054906101000a900473ffffffffffffffffffffffffffffffffffffffff1673ffffffffffffffffffffffffffffffffffffffff1673ffffffffffffffffffffffffffffffffffffffff1681526020016000820160149054906101000a900460020b60020b60020b81526020016000820160179054906101000a900461ffff1661ffff1661ffff1681526020016000820160199054906101000a900461ffff1661ffff1661ffff16815260200160008201601b9054906101000a900461ffff1661ffff1661ffff16815260200160008201601d9054906101000a900460ff1660ff1660ff16815260200160008201601e9054906101000a900460ff16151515158152505090508b60020b816020015160020b121561283757858761280d9190619d94565b84866128199190619df3565b83856128259190619e3b565b99509950995050505050505050612931565b8a60020b816020015160020b12156128ff5760006128536150ae565b90506000806128a183600086602001518760400151600760009054906101000a90046fffffffffffffffffffffffffffffffff168960600151600b6153ef909695949392919063ffffffff16565b91509150888a836128b29190619d94565b6128bc9190619d94565b8789836128c99190619df3565b6128d39190619df3565b8688866128e09190619e3b565b6128ea9190619e3b565b9c509c509c5050505050505050505050612931565b868661290b9190619d94565b85856129179190619df3565b84846129239190619e3b565b995099509950505050505050505b9250925092565b600080612943615054565b600087905060008a905060008803612990576040517f08c379a000000000000000000000000000000000000000000000000000000000815260040161298790619ebf565b60405180910390fd5b60001515600260159054906101000a900460ff161515146129e6576040517f08c379a00000000000000000000000000000000000000000000000000000000081526004016129dd90619f2b565b60405180910390fd5b600060046040518060e00160405290816000820160009054906101000a900473ffffffffffffffffffffffffffffffffffffffff1673ffffffffffffffffffffffffffffffffffffffff1673ffffffffffffffffffffffffffffffffffffffff1681526020016000820160149054906101000a900460020b60020b60020b81526020016000820160179054906101000a900461ffff1661ffff1661ffff1681526020016000820160199054906101000a900461ffff1661ffff1661ffff16815260200160008201601b9054906101000a900461ffff1661ffff1661ffff16815260200160008201601d9054906101000a900460ff1660ff1660ff16815260200160008201601e9054906101000a900460ff161515151581525050905060007f000000000000000000000000000000000000000000000000000000000000000073ffffffffffffffffffffffffffffffffffffffff1663e71957b9336040518263ffffffff1660e01b8152600401612b5d9190618913565b602060405180830381865afa158015612b7a573d6000803e3d6000fd5b505050506040513d601f19601f82011682018060405250810190612b9e9190619ac5565b905060008c90508260c00151612be9576040517f08c379a0000000000000000000000000000000000000000000000000000000008152600401612be09061976a565b60405180910390fd5b8b612c7157826000015173ffffffffffffffffffffffffffffffffffffffff168a73ffffffffffffffffffffffffffffffffffffffff16118015612c6c575073fffd8963efd1fc6a506488495d951d5263988d2673ffffffffffffffffffffffffffffffffffffffff168a73ffffffffffffffffffffffffffffffffffffffff16105b612ce1565b826000015173ffffffffffffffffffffffffffffffffffffffff168a73ffffffffffffffffffffffffffffffffffffffff16108015612ce057506401000276a373ffffffffffffffffffffffffffffffffffffffff168a73ffffffffffffffffffffffffffffffffffffffff16115b5b612d20576040517f08c379a0000000000000000000000000000000000000000000000000000000008152600401612d1790619f97565b60405180910390fd5b60006004600001601e6101000a81548160ff02191690831515021790555060006040518060c001604052808e612d615760048660a0015160ff16901c612d73565b60108660a00151612d72919061988a565b5b60ff168152602001600760009054906101000a90046fffffffffffffffffffffffffffffffff166fffffffffffffffffffffffffffffffff168152602001612db96150ae565b63ffffffff168152602001600060060b8152602001600073ffffffffffffffffffffffffffffffffffffffff1681526020016000151581525090506000808d13905060006040518060e001604052808f815260200160008152602001876000015173ffffffffffffffffffffffffffffffffffffffff168152602001876020015160020b8152602001600554815260200160006fffffffffffffffffffffffffffffffff16815260200184602001516fffffffffffffffffffffffffffffffff1681525090505b6000816000015114158015612ec557508c73ffffffffffffffffffffffffffffffffffffffff16816040015173ffffffffffffffffffffffffffffffffffffffff1614155b1561351957612ed26187e7565b8160400151816000019073ffffffffffffffffffffffffffffffffffffffff16908173ffffffffffffffffffffffffffffffffffffffff1681525050612f37826060015160008054906101000a900460020b8b600961565c909392919063ffffffff16565b826020018360400182151515158152508260020b60020b81525050507ffffffffffffffffffffffffffffffffffffffffffffffffffffffffffff2761860020b816020015160020b1215612fbc577ffffffffffffffffffffffffffffffffffffffffffffffffffffffffffff27618816020019060020b908160020b81525050613034565b7ffffffffffffffffffffffffffffffffffffffffffffffffffffffffffff27618612fe690619fb7565b60020b816020015160020b1315613033577ffffffffffffffffffffffffffffffffffffffffffffffffffffffffffff2761861302190619fb7565b816020019060020b908160020b815250505b5b613041816020015161584a565b816060019073ffffffffffffffffffffffffffffffffffffffff16908173ffffffffffffffffffffffffffffffffffffffff168152505061311082604001518a6130bd578f73ffffffffffffffffffffffffffffffffffffffff16836060015173ffffffffffffffffffffffffffffffffffffffff16116130f1565b8f73ffffffffffffffffffffffffffffffffffffffff16836060015173ffffffffffffffffffffffffffffffffffffffff16105b6130ff578260600151613101565b8f5b8460c001518560000151615d15565b84604001846080018560a00183815250838152508373ffffffffffffffffffffffffffffffffffffffff1673ffffffffffffffffffffffffffffffffffffffff1681525050505082156131c2576131798160c0015182608001516131749190619fff565b615f13565b8260000181815161318a919061a033565b915081815250506131b46131a18260a00151615f13565b8360200151615f4990919063ffffffff16565b826020018181525050613223565b6131cf8160a00151615f13565b826000018181516131e0919061a076565b915081815250506132196132068260c0015183608001516132019190619fff565b615f13565b8360200151615f7590919063ffffffff16565b8260200181815250505b6000846000015160ff1611156132a8576000846000015160ff168260c0015161324c9190619bfe565b9050808260c0018181516132609190619bca565b91508181525050808360a0018181516132799190619c89565b9150906fffffffffffffffffffffffffffffffff1690816fffffffffffffffffffffffffffffffff1681525050505b60008260c001516fffffffffffffffffffffffffffffffff161115613316576132fd8160c001517001000000000000000000000000000000008460c001516fffffffffffffffffffffffffffffffff16615fa1565b8260800181815161330e9190619fff565b915081815250505b806060015173ffffffffffffffffffffffffffffffffffffffff16826040015173ffffffffffffffffffffffffffffffffffffffff16036134b857806040015115613481578360a001516133ed576133978460400151600089602001518a6040015188602001518c60600151600b6153ef909695949392919063ffffffff16565b85606001866080018273ffffffffffffffffffffffffffffffffffffffff1673ffffffffffffffffffffffffffffffffffffffff168152508260060b60060b815250505060018460a00190151590811515815250505b600061342d82602001518b6134045760055461340a565b84608001515b876080015188606001518960400151600861616b9095949392919063ffffffff16565b90508915613442578061343f90619ccd565b90505b6134508360c00151826162bb565b8360c001906fffffffffffffffffffffffffffffffff1690816fffffffffffffffffffffffffffffffff1681525050505b8f6134905780602001516134a2565b600181602001516134a1919061a0ba565b5b826060019060020b908160020b81525050613513565b806000015173ffffffffffffffffffffffffffffffffffffffff16826040015173ffffffffffffffffffffffffffffffffffffffff16146135125761350082604001516163c6565b826060019060020b908160020b815250505b5b50612e80565b856020015160020b816060015160020b1461363357600080613567886040015186604001518a6020015188602001518c606001518d60800151600b6167c5909695949392919063ffffffff16565b91509150826040015183606001518383600460000160006004600001601460046000016017600460000160198891906101000a81548161ffff021916908361ffff1602179055508791906101000a81548161ffff021916908361ffff1602179055508691906101000a81548162ffffff021916908360020b62ffffff1602179055508591906101000a81548173ffffffffffffffffffffffffffffffffffffffff021916908373ffffffffffffffffffffffffffffffffffffffff16021790555050505050505061367c565b8060400151600460000160006101000a81548173ffffffffffffffffffffffffffffffffffffffff021916908373ffffffffffffffffffffffffffffffffffffffff1602179055505b8060c001516fffffffffffffffffffffffffffffffff1683602001516fffffffffffffffffffffffffffffffff16146136ed578060c00151600760006101000a8154816fffffffffffffffffffffffffffffffff02191690836fffffffffffffffffffffffffffffffff1602179055505b8e15613c5f57806080015160058190555060008160a001516fffffffffffffffffffffffffffffffff161115613c5a57600160000160019054906101000a900460ff1660ff1660648260a00151613744919061a115565b61374e919061a146565b600360008673ffffffffffffffffffffffffffffffffffffffff1673ffffffffffffffffffffffffffffffffffffffff16815260200190815260200160002060000160008282829054906101000a90046fffffffffffffffffffffffffffffffff166137ba9190619c89565b92506101000a8154816fffffffffffffffffffffffffffffffff02191690836fffffffffffffffffffffffffffffffff160217905550600160000160009054906101000a900460ff1660ff1660648260a00151613817919061a115565b613821919061a146565b600360007f000000000000000000000000000000000000000000000000000000000000000073ffffffffffffffffffffffffffffffffffffffff1673ffffffffffffffffffffffffffffffffffffffff16815260200190815260200160002060000160008282829054906101000a90046fffffffffffffffffffffffffffffffff166138ad9190619c89565b92506101000a8154816fffffffffffffffffffffffffffffffff02191690836fffffffffffffffffffffffffffffffff160217905550600073ffffffffffffffffffffffffffffffffffffffff168573ffffffffffffffffffffffffffffffffffffffff1614613aca57600160000160029054906101000a900460ff1660ff168160a0015161393c919061a146565b600360008773ffffffffffffffffffffffffffffffffffffffff1673ffffffffffffffffffffffffffffffffffffffff16815260200190815260200160002060000160008282829054906101000a90046fffffffffffffffffffffffffffffffff166139a89190619c89565b92506101000a8154816fffffffffffffffffffffffffffffffff02191690836fffffffffffffffffffffffffffffffff160217905550600160000160039054906101000a900460ff1660ff168160a00151613a03919061a146565b600360007f000000000000000000000000000000000000000000000000000000000000000073ffffffffffffffffffffffffffffffffffffffff1673ffffffffffffffffffffffffffffffffffffffff16815260200190815260200160002060000160008282829054906101000a90046fffffffffffffffffffffffffffffffff16613a8f9190619c89565b92506101000a8154816fffffffffffffffffffffffffffffffff02191690836fffffffffffffffffffffffffffffffff160217905550613c59565b600160000160029054906101000a900460ff1660ff168160a00151613aef919061a146565b600360008673ffffffffffffffffffffffffffffffffffffffff1673ffffffffffffffffffffffffffffffffffffffff16815260200190815260200160002060000160008282829054906101000a90046fffffffffffffffffffffffffffffffff16613b5b9190619c89565b92506101000a8154816fffffffffffffffffffffffffffffffff02191690836fffffffffffffffffffffffffffffffff160217905550600160000160039054906101000a900460ff1660ff168160a00151613bb6919061a146565b600360003373ffffffffffffffffffffffffffffffffffffffff1673ffffffffffffffffffffffffffffffffffffffff16815260200190815260200160002060000160008282829054906101000a90046fffffffffffffffffffffffffffffffff16613c229190619c89565b92506101000a8154816fffffffffffffffffffffffffffffffff02191690836fffffffffffffffffffffffffffffffff1602179055505b5b6141bc565b60008160a001516fffffffffffffffffffffffffffffffff1611156141bb57600160000160019054906101000a900460ff1660ff1660648260a00151613ca5919061a115565b613caf919061a146565b600360008673ffffffffffffffffffffffffffffffffffffffff1673ffffffffffffffffffffffffffffffffffffffff16815260200190815260200160002060000160108282829054906101000a90046fffffffffffffffffffffffffffffffff16613d1b9190619c89565b92506101000a8154816fffffffffffffffffffffffffffffffff02191690836fffffffffffffffffffffffffffffffff160217905550600160000160009054906101000a900460ff1660ff1660648260a00151613d78919061a115565b613d82919061a146565b600360007f000000000000000000000000000000000000000000000000000000000000000073ffffffffffffffffffffffffffffffffffffffff1673ffffffffffffffffffffffffffffffffffffffff16815260200190815260200160002060000160108282829054906101000a90046fffffffffffffffffffffffffffffffff16613e0e9190619c89565b92506101000a8154816fffffffffffffffffffffffffffffffff02191690836fffffffffffffffffffffffffffffffff160217905550600073ffffffffffffffffffffffffffffffffffffffff168573ffffffffffffffffffffffffffffffffffffffff161461402b57600160000160029054906101000a900460ff1660ff168160a00151613e9d919061a146565b600360008773ffffffffffffffffffffffffffffffffffffffff1673ffffffffffffffffffffffffffffffffffffffff16815260200190815260200160002060000160108282829054906101000a90046fffffffffffffffffffffffffffffffff16613f099190619c89565b92506101000a8154816fffffffffffffffffffffffffffffffff02191690836fffffffffffffffffffffffffffffffff160217905550600160000160039054906101000a900460ff1660ff168160a00151613f64919061a146565b600360007f000000000000000000000000000000000000000000000000000000000000000073ffffffffffffffffffffffffffffffffffffffff1673ffffffffffffffffffffffffffffffffffffffff16815260200190815260200160002060000160108282829054906101000a90046fffffffffffffffffffffffffffffffff16613ff09190619c89565b92506101000a8154816fffffffffffffffffffffffffffffffff02191690836fffffffffffffffffffffffffffffffff1602179055506141ba565b600160000160029054906101000a900460ff1660ff168160a00151614050919061a146565b600360008673ffffffffffffffffffffffffffffffffffffffff1673ffffffffffffffffffffffffffffffffffffffff16815260200190815260200160002060000160108282829054906101000a90046fffffffffffffffffffffffffffffffff166140bc9190619c89565b92506101000a8154816fffffffffffffffffffffffffffffffff02191690836fffffffffffffffffffffffffffffffff160217905550600160000160039054906101000a900460ff1660ff168160a00151614117919061a146565b600360003373ffffffffffffffffffffffffffffffffffffffff1673ffffffffffffffffffffffffffffffffffffffff16815260200190815260200160002060000160108282829054906101000a90046fffffffffffffffffffffffffffffffff166141839190619c89565b92506101000a8154816fffffffffffffffffffffffffffffffff02191690836fffffffffffffffffffffffffffffffff1602179055505b5b5b8115158f1515146141e157806020015181600001518f6141dc919061a033565b6141f7565b80600001518e6141f1919061a033565b81602001515b809a50819b5050508e156142b1576000891215614243576142427f0000000000000000000000000000000000000000000000000000000000000000888b61423d90619d15565b614947565b5b600061424d614dc3565b9050614257614dc3565b61426a8c8361503190919063ffffffff16565b11156142ab576040517f08c379a00000000000000000000000000000000000000000000000000000000081526004016142a29061a1dc565b60405180910390fd5b50614359565b60008a12156142ef576142ee7f0000000000000000000000000000000000000000000000000000000000000000888c6142e990619d15565b614947565b5b60006142f9614efa565b9050614303614efa565b6143168b8361503190919063ffffffff16565b1115614357576040517f08c379a000000000000000000000000000000000000000000000000000000000815260040161434e9061a1dc565b60405180910390fd5b505b8673ffffffffffffffffffffffffffffffffffffffff163373ffffffffffffffffffffffffffffffffffffffff167fc42079f94a6350d7e6235f29174924f928cc2ac818eb64fed8004e115fbcca678c8c85604001518660c0015187606001516040516143ca95949392919061a1fc565b60405180910390a360016004600001601e6101000a81548160ff021916908315150217905550505050505050505097509795505050505050565b60018060000160009054906101000a900460ff16908060000160019054906101000a900460ff16908060000160029054906101000a900460ff16908060000160039054906101000a900460ff16905084565b600260159054906101000a900460ff1681565b6004600001601e9054906101000a900460ff166144bb576040517f08c379a00000000000000000000000000000000000000000000000000000000081526004016144b29061976a565b60405180910390fd5b60006004600001601e6101000a81548160ff0219169083151502179055506144e1615054565b60006004600001601b9054906101000a900461ffff16905060006145118284600b616a109092919063ffffffff16565b9050806004600001601b6101000a81548161ffff021916908361ffff1602179055508061ffff168261ffff161461457c577fac49e518f90a358f652e4400164f05a5d8f7e35e7747279bc3a93dbf584e125a828260405161457392919061a24f565b60405180910390a15b505060016004600001601e6101000a81548160ff02191690831515021790555050565b7f000000000000000000000000000000000000000000000000000000000000000081565b6000600460000160009054906101000a900473ffffffffffffffffffffffffffffffffffffffff1673ffffffffffffffffffffffffffffffffffffffff1614614641576040517f08c379a00000000000000000000000000000000000000000000000000000000081526004016146389061a2c4565b60405180910390fd5b600061464c826163c6565b905060008061466c61465c6150ae565b600b616ae090919063ffffffff16565b915091506040518060e001604052808573ffffffffffffffffffffffffffffffffffffffff1681526020018460020b8152602001600061ffff1681526020018361ffff1681526020018261ffff168152602001600060ff16815260200160011515815250600460008201518160000160006101000a81548173ffffffffffffffffffffffffffffffffffffffff021916908373ffffffffffffffffffffffffffffffffffffffff16021790555060208201518160000160146101000a81548162ffffff021916908360020b62ffffff16021790555060408201518160000160176101000a81548161ffff021916908361ffff16021790555060608201518160000160196101000a81548161ffff021916908361ffff160217905550608082015181600001601b6101000a81548161ffff021916908361ffff16021790555060a082015181600001601d6101000a81548160ff021916908360ff16021790555060c082015181600001601e6101000a81548160ff0219169083151502179055509050507f98636036cb66a9c19a37435efc1e90142190214e8abeb821bdba3f2990dd4c95848460405161481f92919061a2e4565b60405180910390a150505050565b60008082837ffffffffffffffffffffffffffffffffffffffffffffffffffffffffffff2761861485d919061a30d565b614867919061a377565b9050600083847ffffffffffffffffffffffffffffffffffffffffffffffffffffffffffff2761861489790619fb7565b6148a1919061a30d565b6148ab919061a377565b9050600060018584846148be919061a0ba565b6148c8919061a30d565b6148d2919061a454565b90508062ffffff166fffffffffffffffffffffffffffffffff6148f5919061a115565b9350505050919050565b60008460008585856040516020016149199392919061a509565b6040516020818303038152906040528051906020012081526020019081526020016000209050949350505050565b6000808473ffffffffffffffffffffffffffffffffffffffff1663a9059cbb60e01b858560405160240161497c92919061a546565b604051602081830303815290604052907bffffffffffffffffffffffffffffffffffffffffffffffffffffffff19166020820180517bffffffffffffffffffffffffffffffffffffffffffffffffffffffff83818316178352505050506040516149e6919061a5e0565b6000604051808303816000865af19150503d8060008114614a23576040519150601f19603f3d011682016040523d82523d6000602084013e614a28565b606091505b5091509150818015614a565750600081511480614a55575080806020019051810190614a5491906196e0565b5b5b614a95576040517f08c379a0000000000000000000000000000000000000000000000000000000008152600401614a8c9061a643565b60405180910390fd5b5050505050565b6000806000614aa9615054565b614abb846020015185604001516152c8565b600060046040518060e00160405290816000820160009054906101000a900473ffffffffffffffffffffffffffffffffffffffff1673ffffffffffffffffffffffffffffffffffffffff1673ffffffffffffffffffffffffffffffffffffffff1681526020016000820160149054906101000a900460020b60020b60020b81526020016000820160179054906101000a900461ffff1661ffff1661ffff1681526020016000820160199054906101000a900461ffff1661ffff1661ffff16815260200160008201601b9054906101000a900461ffff1661ffff1661ffff16815260200160008201601d9054906101000a900460ff1660ff1660ff16815260200160008201601e9054906101000a900460ff1615151515815250509050614bf885600001518660200151876040015188606001518560200151616c0d565b935060008560600151600f0b14614dbb57846020015160020b816020015160020b1215614c4d57614c46614c2f866020015161584a565b614c3c876040015161584a565b8760600151616e2a565b9250614dba565b846040015160020b816020015160020b1215614d8f576000600760009054906101000a90046fffffffffffffffffffffffffffffffff169050614cbb8260400151614c966150ae565b84602001518486606001518760800151600b6167c5909695949392919063ffffffff16565b60046000016017600460000160198491906101000a81548161ffff021916908361ffff1602179055508391906101000a81548161ffff021916908361ffff1602179055505050614d208260000151614d16886040015161584a565b8860600151616e2a565b9350614d41614d32876020015161584a565b83600001518860600151616e81565b9250614d518187606001516162bb565b600760006101000a8154816fffffffffffffffffffffffffffffffff02191690836fffffffffffffffffffffffffffffffff16021790555050614db9565b614db6614d9f866020015161584a565b614dac876040015161584a565b8760600151616e81565b91505b5b5b509193909250565b60008060007f000000000000000000000000000000000000000000000000000000000000000073ffffffffffffffffffffffffffffffffffffffff166370a0823160e01b30604051602401614e189190618913565b604051602081830303815290604052907bffffffffffffffffffffffffffffffffffffffffffffffffffffffff19166020820180517bffffffffffffffffffffffffffffffffffffffffffffffffffffffff8381831617835250505050604051614e82919061a5e0565b600060405180830381855afa9150503d8060008114614ebd576040519150601f19603f3d011682016040523d82523d6000602084013e614ec2565b606091505b5091509150818015614ed657506020815110155b614edf57600080fd5b80806020019051810190614ef3919061a678565b9250505090565b60008060007f000000000000000000000000000000000000000000000000000000000000000073ffffffffffffffffffffffffffffffffffffffff166370a0823160e01b30604051602401614f4f9190618913565b604051602081830303815290604052907bffffffffffffffffffffffffffffffffffffffffffffffffffffffff19166020820180517bffffffffffffffffffffffffffffffffffffffffffffffffffffffff8381831617835250505050604051614fb9919061a5e0565b600060405180830381855afa9150503d8060008114614ff4576040519150601f19603f3d011682016040523d82523d6000602084013e614ff9565b606091505b509150915081801561500d57506020815110155b61501657600080fd5b8080602001905181019061502a919061a678565b9250505090565b60008282846150409190619fff565b915081101561504e57600080fd5b92915050565b7f000000000000000000000000000000000000000000000000000000000000000073ffffffffffffffffffffffffffffffffffffffff163073ffffffffffffffffffffffffffffffffffffffff16146150ac57600080fd5b565b600042905090565b60608060008361ffff1611615100576040517f08c379a00000000000000000000000000000000000000000000000000000000081526004016150f79061a6f1565b60405180910390fd5b865167ffffffffffffffff81111561511b5761511a61a711565b5b6040519080825280602002602001820160405280156151495781602001602082028036833780820191505090505b509150865167ffffffffffffffff8111156151675761516661a711565b5b6040519080825280602002602001820160405280156151955781602001602082028036833780820191505090505b50905060005b8751811015615250576151cd8a8a8a84815181106151bc576151bb61a740565b5b60200260200101518a8a8a8a6153ef565b8483815181106151e0576151df61a740565b5b602002602001018484815181106151fa576151f961a740565b5b602002602001018273ffffffffffffffffffffffffffffffffffffffff1673ffffffffffffffffffffffffffffffffffffffff168152508260060b60060b815250505080806152489061a76f565b91505061519b565b5097509795505050505050565b600061526a848484615fa1565b90506000828061527d5761527c61985b565b5b84860911156152c1577fffffffffffffffffffffffffffffffffffffffffffffffffffffffffffffffff81106152b257600080fd5b80806152bd9061a76f565b9150505b9392505050565b8060020b8260020b12615310576040517f08c379a00000000000000000000000000000000000000000000000000000000081526004016153079061a803565b60405180910390fd5b7ffffffffffffffffffffffffffffffffffffffffffffffffffffffffffff2761860020b8260020b1215615379576040517f08c379a00000000000000000000000000000000000000000000000000000000081526004016153709061a86f565b60405180910390fd5b7ffffffffffffffffffffffffffffffffffffffffffffffffffffffffffff276186153a390619fb7565b60020b8160020b13156153eb576040517f08c379a00000000000000000000000000000000000000000000000000000000081526004016153e29061a8db565b60405180910390fd5b5050565b60008060008763ffffffff1603615516576000898661ffff1661ffff811061541a5761541961a740565b5b016040518060800160405290816000820160009054906101000a900463ffffffff1663ffffffff1663ffffffff1681526020016000820160049054906101000a900460060b60060b60060b815260200160008201600b9054906101000a900473ffffffffffffffffffffffffffffffffffffffff1673ffffffffffffffffffffffffffffffffffffffff1673ffffffffffffffffffffffffffffffffffffffff16815260200160008201601f9054906101000a900460ff16151515158152505090508863ffffffff16816000015163ffffffff1614615502576154ff818a8988616ed8565b90505b806020015181604001519250925050615650565b600087896155249190619e3b565b90506000806155388c8c858c8c8c8c616fd0565b91509150816000015163ffffffff168363ffffffff1603615569578160200151826040015194509450505050615650565b806000015163ffffffff168363ffffffff1603615596578060200151816040015194509450505050615650565b6000826000015182600001516155ac9190619e3b565b905060008360000151856155c09190619e3b565b90508060030b8260030b856020015185602001516155de9190619d94565b6155e8919061a8fb565b6155f2919061a965565b8460200151615601919061aa4a565b8263ffffffff168263ffffffff16866040015186604001516156239190619df3565b61562d919061aaa9565b615637919061aaf7565b8560400151615646919061ab28565b9650965050505050505b97509795505050505050565b6000806000848661566d919061a30d565b905060008660020b12801561569157506000858761568b919061ab70565b60020b14155b156156a55780806156a19061aba1565b9150505b8315615768576000806156b78361733a565b9150915060008160ff166001901b60018360ff166001901b6156d99190619bca565b6156e39190619fff565b90506000818b60008660010b60010b815260200190815260200160002054169050600081141595508561572f57888360ff1686615720919061a0ba565b61572a919061a377565b61575d565b886157398261735c565b84615744919061abe9565b60ff1686615752919061a0ba565b61575c919061a377565b5b965050505050615840565b60008061578060018461577b919061ac1e565b61733a565b91509150600060018260ff166001901b61579a9190619bca565b1990506000818b60008660010b60010b81526020019081526020016000205416905060008114159550856157ff57888360ff6157d6919061abe9565b60ff166001876157e6919061ac1e565b6157f0919061ac1e565b6157fa919061a377565b615839565b888361580a8361747f565b615814919061abe9565b60ff16600187615824919061ac1e565b61582e919061ac1e565b615838919061a377565b5b9650505050505b5094509492505050565b60008060008360020b12615861578260020b61586f565b8260020b61586e90619d15565b5b90507ffffffffffffffffffffffffffffffffffffffffffffffffffffffffffff2761861589b90619fb7565b60020b8111156158e0576040517f08c379a00000000000000000000000000000000000000000000000000000000081526004016158d79061acc5565b60405180910390fd5b600080600183160361590357700100000000000000000000000000000000615915565b6ffffcb933bd6fad37aa2d162d1a5940015b70ffffffffffffffffffffffffffffffffff169050600060028316146159585760806ffff97272373d413259a46990580e213a826159539190619c2f565b901c90505b600060048316146159865760806ffff2e50f5f656932ef12357cf3c7fdcc826159819190619c2f565b901c90505b600060088316146159b45760806fffe5caca7e10e4e61c3624eaa0941cd0826159af9190619c2f565b901c90505b600060108316146159e25760806fffcb9843d60f6159c9db58835c926644826159dd9190619c2f565b901c90505b60006020831614615a105760806fff973b41fa98c081472e6896dfb254c082615a0b9190619c2f565b901c90505b60006040831614615a3e5760806fff2ea16466c96a3843ec78b326b5286182615a399190619c2f565b901c90505b60006080831614615a6c5760806ffe5dee046a99a2a811c461f1969c305382615a679190619c2f565b901c90505b6000610100831614615a9b5760806ffcbe86c7900a88aedcffc83b479aa3a482615a969190619c2f565b901c90505b6000610200831614615aca5760806ff987a7253ac413176f2b074cf7815e5482615ac59190619c2f565b901c90505b6000610400831614615af95760806ff3392b0822b70005940c7a398e4b70f382615af49190619c2f565b901c90505b6000610800831614615b285760806fe7159475a2c29b7443b29c7fa6e889d982615b239190619c2f565b901c90505b6000611000831614615b575760806fd097f3bdfd2022b8845ad8f792aa582582615b529190619c2f565b901c90505b6000612000831614615b865760806fa9f746462d870fdf8a65dc1f90e061e582615b819190619c2f565b901c90505b6000614000831614615bb55760806f70d869a156d2a1b890bb3df62baf32f782615bb09190619c2f565b901c90505b6000618000831614615be45760806f31be135f97d08fd981231505542fcfa682615bdf9190619c2f565b901c90505b600062010000831614615c145760806f09aa508b5b7a84e1c677de54f3e99bc982615c0f9190619c2f565b901c90505b600062020000831614615c435760806e5d6af8dedb81196699c329225ee60482615c3e9190619c2f565b901c90505b600062040000831614615c715760806d2216e584f5fa1ea926041bedfe9882615c6c9190619c2f565b901c90505b600062080000831614615c9d5760806b048a170391f7dc42444e8fa282615c989190619c2f565b901c90505b60008460020b1315615cd857807fffffffffffffffffffffffffffffffffffffffffffffffffffffffffffffffff615cd59190619bfe565b90505b600064010000000082615ceb919061ace5565b14615cf7576001615cfa565b60005b60ff16602082901c615d0c9190619fff565b92505050919050565b6000806000808673ffffffffffffffffffffffffffffffffffffffff168873ffffffffffffffffffffffffffffffffffffffff161015905060008086121590508015615db55781615d7257615d6d89898960016175ee565b615d80565b615d7f888a8960016176da565b5b935083615d8c8761781b565b10615d9957879450615db0565b615dad8988615da78961781b565b85617868565b94505b615e0d565b81615dcc57615dc789898960006176da565b615dda565b615dd9888a8960006175ee565b5b92508286615de790619d15565b10615df457879450615e0c565b615e09898888615e0390619d15565b856178da565b94505b5b60008573ffffffffffffffffffffffffffffffffffffffff168973ffffffffffffffffffffffffffffffffffffffff161490508215615e9457808015615e505750815b615e6657615e61868b8a60016176da565b615e68565b845b9450808015615e75575081155b615e8b57615e86868b8a60006175ee565b615e8d565b835b9350615ede565b808015615e9e5750815b615eb457615eaf8a878a60016175ee565b615eb6565b845b9450808015615ec3575081155b615ed957615ed48a878a60006176da565b615edb565b835b93505b81158015615ef4575086615ef190619d15565b84115b15615f065786615f0390619d15565b93505b5050509450945094915050565b60007f80000000000000000000000000000000000000000000000000000000000000008210615f4157600080fd5b819050919050565b6000808212151515838385615f5e919061a033565b9250821315151514615f6f57600080fd5b92915050565b6000808212151515838385615f8a919061a076565b9250821215151514615f9b57600080fd5b92915050565b6000806000801985870985870292508281108382030391505060008103615fdb5760008411615fcf57600080fd5b83820492505050616164565b808411615fe757600080fd5b60008486880990508281118203915080830392506000856001877fffffffffffffffffffffffffffffffffffffffffffffffffffffffffffffffff61602c9190619bca565b6160369190619fff565b169050808604955080840493506001818260000304019050808361605a9190619c2f565b841793506000600287600361606f9190619c2f565b189050808761607e9190619c2f565b600261608a9190619bca565b816160959190619c2f565b905080876160a39190619c2f565b60026160af9190619bca565b816160ba9190619c2f565b905080876160c89190619c2f565b60026160d49190619bca565b816160df9190619c2f565b905080876160ed9190619c2f565b60026160f99190619bca565b816161049190619c2f565b905080876161129190619c2f565b600261611e9190619bca565b816161299190619c2f565b905080876161379190619c2f565b60026161439190619bca565b8161614e9190619c2f565b9050808561615c9190619c2f565b955050505050505b9392505050565b6000808760008860020b60020b815260200190815260200160002090508060010154866161989190619bca565b81600101819055508060020160079054906101000a900473ffffffffffffffffffffffffffffffffffffffff16856161d09190619df3565b8160020160076101000a81548173ffffffffffffffffffffffffffffffffffffffff021916908373ffffffffffffffffffffffffffffffffffffffff1602179055508060020160009054906101000a900460060b8461622f9190619d94565b8160020160006101000a81548166ffffffffffffff021916908360060b66ffffffffffffff16021790555080600201601b9054906101000a900463ffffffff168361627a9190619e3b565b81600201601b6101000a81548163ffffffff021916908363ffffffff1602179055508060000160109054906101000a9004600f0b9150509695505050505050565b60008082600f0b121561634a57826fffffffffffffffffffffffffffffffff16826162e590619ccd565b846162f091906197b9565b9150816fffffffffffffffffffffffffffffffff1610616345576040517f08c379a000000000000000000000000000000000000000000000000000000000815260040161633c9061ad62565b60405180910390fd5b6163c0565b826fffffffffffffffffffffffffffffffff1682846163699190619c89565b9150816fffffffffffffffffffffffffffffffff1610156163bf576040517f08c379a00000000000000000000000000000000000000000000000000000000081526004016163b69061adce565b60405180910390fd5b5b92915050565b60006401000276a373ffffffffffffffffffffffffffffffffffffffff168273ffffffffffffffffffffffffffffffffffffffff1610158015616448575073fffd8963efd1fc6a506488495d951d5263988d2673ffffffffffffffffffffffffffffffffffffffff168273ffffffffffffffffffffffffffffffffffffffff16105b616487576040517f08c379a000000000000000000000000000000000000000000000000000000000815260040161647e9061ae3a565b60405180910390fd5b600060208373ffffffffffffffffffffffffffffffffffffffff16901b9050600081905060006fffffffffffffffffffffffffffffffff821160071b808217915082811c92505067ffffffffffffffff821160061b808217915082811c92505063ffffffff821160051b808217915082811c92505061ffff821160041b808217915082811c92505060ff821160031b808217915082811c925050600f821160021b808217915082811c9250506003821160011b808217915082811c925050600182118082179150506080811061656e57607f816165649190619bca565b83901c9150616581565b80607f61657b9190619bca565b83901b91505b60006040608083616592919061a033565b901b9050828302607f1c92508260801c80603f1b8217915083811c935050828302607f1c92508260801c80603e1b8217915083811c935050828302607f1c92508260801c80603d1b8217915083811c935050828302607f1c92508260801c80603c1b8217915083811c935050828302607f1c92508260801c80603b1b8217915083811c935050828302607f1c92508260801c80603a1b8217915083811c935050828302607f1c92508260801c8060391b8217915083811c935050828302607f1c92508260801c8060381b8217915083811c935050828302607f1c92508260801c8060371b8217915083811c935050828302607f1c92508260801c8060361b8217915083811c935050828302607f1c92508260801c8060351b8217915083811c935050828302607f1c92508260801c8060341b8217915083811c935050828302607f1c92508260801c8060331b8217915083811c935050828302607f1c92508260801c8060321b82179150506000693627a301d71055774c8582616715919061ae5a565b9050600060806f028f6481ab7f045a5af012a19d003aaa83616737919061a033565b901d9050600060806fdb2df09e81959a81455e260799a0632f8461675b919061a076565b901d90508060020b8260020b146167b5578873ffffffffffffffffffffffffffffffffffffffff1661678c8261584a565b73ffffffffffffffffffffffffffffffffffffffff1611156167ae57816167b0565b805b6167b7565b815b975050505050505050919050565b6000806000898961ffff1661ffff81106167e2576167e161a740565b5b016040518060800160405290816000820160009054906101000a900463ffffffff1663ffffffff1663ffffffff1681526020016000820160049054906101000a900460060b60060b60060b815260200160008201600b9054906101000a900473ffffffffffffffffffffffffffffffffffffffff1673ffffffffffffffffffffffffffffffffffffffff1673ffffffffffffffffffffffffffffffffffffffff16815260200160008201601f9054906101000a900460ff16151515158152505090508763ffffffff16816000015163ffffffff16036168c75788859250925050616a04565b8461ffff168461ffff161180156168f157506001856168e6919061af71565b61ffff168961ffff16145b156168fe57839150616902565b8491505b8160018a616910919061afa7565b61691a919061afdd565b925061692881898989616ed8565b8a8461ffff1661ffff81106169405761693f61a740565b5b0160008201518160000160006101000a81548163ffffffff021916908363ffffffff16021790555060208201518160000160046101000a81548166ffffffffffffff021916908360060b66ffffffffffffff160217905550604082015181600001600b6101000a81548173ffffffffffffffffffffffffffffffffffffffff021916908373ffffffffffffffffffffffffffffffffffffffff160217905550606082015181600001601f6101000a81548160ff021916908315150217905550905050505b97509795505050505050565b6000808361ffff1611616a58576040517f08c379a0000000000000000000000000000000000000000000000000000000008152600401616a4f9061a6f1565b60405180910390fd5b8261ffff168261ffff1611616a6f57829050616ad9565b60008390505b8261ffff168161ffff161015616ad4576001858261ffff1661ffff8110616a9f57616a9e61a740565b5b0160000160006101000a81548163ffffffff021916908363ffffffff1602179055508080616acc9061b00e565b915050616a75565b508190505b9392505050565b60008060405180608001604052808463ffffffff168152602001600060060b8152602001600073ffffffffffffffffffffffffffffffffffffffff1681526020016001151581525084600061ffff8110616b3d57616b3c61a740565b5b0160008201518160000160006101000a81548163ffffffff021916908363ffffffff16021790555060208201518160000160046101000a81548166ffffffffffffff021916908360060b66ffffffffffffff160217905550604082015181600001600b6101000a81548173ffffffffffffffffffffffffffffffffffffffff021916908373ffffffffffffffffffffffffffffffffffffffff160217905550606082015181600001601f6101000a81548160ff021916908315150217905550905050600180915091509250929050565b6000616c27868686600a6148ff909392919063ffffffff16565b905060006005549050600080600086600f0b14616da7576000616c486150ae565b9050600080616cc2836000600460000160149054906101000a900460020b600460000160179054906101000a900461ffff16600760009054906101000a90046fffffffffffffffffffffffffffffffff16600460000160199054906101000a900461ffff16600b6153ef909695949392919063ffffffff16565b91509150616d088b898b8985878960008060039054906101000a90046fffffffffffffffffffffffffffffffff16600861794c909998979695949392919063ffffffff16565b9450616d4d8a898b898587896001600060039054906101000a90046fffffffffffffffffffffffffffffffff16600861794c909998979695949392919063ffffffff16565b93508415616d7957616d788b60008054906101000a900460020b6009617c109092919063ffffffff16565b5b8315616da357616da28a60008054906101000a900460020b6009617c109092919063ffffffff16565b5b5050505b6000616dc3898988876008617c8090949392919063ffffffff16565b9050616dda878287617d3c9092919063ffffffff16565b600087600f0b1215616e1d578215616e0157616e00896008617fd490919063ffffffff16565b5b8115616e1c57616e1b886008617fd490919063ffffffff16565b5b5b5050505095945050505050565b60008082600f0b12616e5057616e4b616e4685858560016176da565b615f13565b616e78565b616e6e616e69858585616e6290619ccd565b60006176da565b615f13565b616e7790619d15565b5b90509392505050565b60008082600f0b12616ea757616ea2616e9d85858560016175ee565b615f13565b616ecf565b616ec5616ec0858585616eb990619ccd565b60006175ee565b615f13565b616ece90619d15565b5b90509392505050565b616ee0618855565b6000856000015185616ef29190619e3b565b905060405180608001604052808663ffffffff168152602001828660020b616f1a919061b045565b60030b8860200151616f2c919061aa4a565b60060b81526020016000856fffffffffffffffffffffffffffffffff1611616f55576001616f57565b845b6fffffffffffffffffffffffffffffffff1660808463ffffffff1673ffffffffffffffffffffffffffffffffffffffff16901b616f94919061aaf7565b8860400151616fa3919061ab28565b73ffffffffffffffffffffffffffffffffffffffff16815260200160011515815250915050949350505050565b616fd8618855565b616fe0618855565b888561ffff1661ffff8110616ff857616ff761a740565b5b016040518060800160405290816000820160009054906101000a900463ffffffff1663ffffffff1663ffffffff1681526020016000820160049054906101000a900460060b60060b60060b815260200160008201600b9054906101000a900473ffffffffffffffffffffffffffffffffffffffff1673ffffffffffffffffffffffffffffffffffffffff1673ffffffffffffffffffffffffffffffffffffffff16815260200160008201601f9054906101000a900460ff16151515158152505091506170c9888360000151896180ad565b156170fc578663ffffffff16826000015163ffffffff16031561732e57816170f383898988616ed8565b9150915061732e565b888360018761710b919061afa7565b617115919061afdd565b61ffff1661ffff811061712b5761712a61a740565b5b016040518060800160405290816000820160009054906101000a900463ffffffff1663ffffffff1663ffffffff1681526020016000820160049054906101000a900460060b60060b60060b815260200160008201600b9054906101000a900473ffffffffffffffffffffffffffffffffffffffff1673ffffffffffffffffffffffffffffffffffffffff1673ffffffffffffffffffffffffffffffffffffffff16815260200160008201601f9054906101000a900460ff161515151581525050915081606001516172ce5788600061ffff811061720b5761720a61a740565b5b016040518060800160405290816000820160009054906101000a900463ffffffff1663ffffffff1663ffffffff1681526020016000820160049054906101000a900460060b60060b60060b815260200160008201600b9054906101000a900473ffffffffffffffffffffffffffffffffffffffff1673ffffffffffffffffffffffffffffffffffffffff1673ffffffffffffffffffffffffffffffffffffffff16815260200160008201601f9054906101000a900460ff16151515158152505091505b6172dd888360000151896180ad565b61731c576040517f08c379a00000000000000000000000000000000000000000000000000000000081526004016173139061b170565b60405180910390fd5b6173298989898887618187565b915091505b97509795505050505050565b60008060088360020b901d915061010083617355919061b190565b9050915091565b600080821161736a57600080fd5b700100000000000000000000000000000000821061739957608082901c91506080816173969190619826565b90505b6801000000000000000082106173c057604082901c91506040816173bd9190619826565b90505b64010000000082106173e357602082901c91506020816173e09190619826565b90505b62010000821061740457601082901c91506010816174019190619826565b90505b610100821061742457600882901c91506008816174219190619826565b90505b6010821061744357600482901c91506004816174409190619826565b90505b6004821061746257600282901c915060028161745f9190619826565b90505b6002821061747a576001816174779190619826565b90505b919050565b600080821161748d57600080fd5b60ff905060006fffffffffffffffffffffffffffffffff8016831611156174c2576080816174bb919061abe9565b90506174ca565b608082901c91505b600067ffffffffffffffff8016831611156174f3576040816174ec919061abe9565b90506174fb565b604082901c91505b600063ffffffff80168316111561752057602081617519919061abe9565b9050617528565b602082901c91505b600061ffff80168316111561754b57601081617544919061abe9565b9050617553565b601082901c91505b600060ff8016831611156175755760088161756e919061abe9565b905061757d565b600882901c91505b6000600f8316111561759d57600481617596919061abe9565b90506175a5565b600482901c91505b60006003831611156175c5576002816175be919061abe9565b90506175cd565b600282901c91505b60006001831611156175e9576001816175e6919061abe9565b90505b919050565b60008373ffffffffffffffffffffffffffffffffffffffff168573ffffffffffffffffffffffffffffffffffffffff16111561762f57838580955081965050505b816176845761767f836fffffffffffffffffffffffffffffffff1686866176569190619df3565b73ffffffffffffffffffffffffffffffffffffffff166c01000000000000000000000000615fa1565b6176d0565b6176cf836fffffffffffffffffffffffffffffffff1686866176a69190619df3565b73ffffffffffffffffffffffffffffffffffffffff166c0100000000000000000000000061525d565b5b9050949350505050565b60008373ffffffffffffffffffffffffffffffffffffffff168573ffffffffffffffffffffffffffffffffffffffff16111561771b57838580955081965050505b6000606060ff16846fffffffffffffffffffffffffffffffff16901b9050600086866177479190619df3565b73ffffffffffffffffffffffffffffffffffffffff16905060008773ffffffffffffffffffffffffffffffffffffffff161161778257600080fd5b836177ce578673ffffffffffffffffffffffffffffffffffffffff166177bf83838973ffffffffffffffffffffffffffffffffffffffff16615fa1565b6177c99190619bfe565b61780f565b61780e6177f283838973ffffffffffffffffffffffffffffffffffffffff1661525d565b8873ffffffffffffffffffffffffffffffffffffffff16618460565b5b92505050949350505050565b600080821215617860576040517f08c379a00000000000000000000000000000000000000000000000000000000081526004016178579061b20d565b60405180910390fd5b819050919050565b6000808573ffffffffffffffffffffffffffffffffffffffff161161788c57600080fd5b6000846fffffffffffffffffffffffffffffffff16116178ab57600080fd5b816178c2576178bd8585856001618473565b6178d0565b6178cf85858560016185f0565b5b9050949350505050565b6000808573ffffffffffffffffffffffffffffffffffffffff16116178fe57600080fd5b6000846fffffffffffffffffffffffffffffffff161161791d57600080fd5b816179345761792f85858560006185f0565b617942565b6179418585856000618473565b5b9050949350505050565b6000808b60008c60020b60020b8152602001908152602001600020905060008160000160009054906101000a90046fffffffffffffffffffffffffffffffff169050600061799a828c6162bb565b9050846fffffffffffffffffffffffffffffffff16816fffffffffffffffffffffffffffffffff161115617a03576040517f08c379a00000000000000000000000000000000000000000000000000000000081526004016179fa9061b279565b60405180910390fd5b6000826fffffffffffffffffffffffffffffffff161415156000826fffffffffffffffffffffffffffffffff16141515141593506000826fffffffffffffffffffffffffffffffff1603617b18578b60020b8d60020b13617afa57898360010181905550888360020160076101000a81548173ffffffffffffffffffffffffffffffffffffffff021916908373ffffffffffffffffffffffffffffffffffffffff160217905550878360020160006101000a81548166ffffffffffffff021916908360060b66ffffffffffffff1602179055508683600201601b6101000a81548163ffffffff021916908363ffffffff1602179055505b600183600201601f6101000a81548160ff0219169083151502179055505b808360000160006101000a8154816fffffffffffffffffffffffffffffffff02191690836fffffffffffffffffffffffffffffffff16021790555085617b8f57617b8a617b858c600f0b8560000160109054906101000a9004600f0b600f0b615f7590919063ffffffff16565b6187a2565b617bc2565b617bc1617bbc8c600f0b8560000160109054906101000a9004600f0b600f0b615f4990919063ffffffff16565b6187a2565b5b8360000160106101000a8154816fffffffffffffffffffffffffffffffff0219169083600f0b6fffffffffffffffffffffffffffffffff1602179055505050509a9950505050505050505050565b60008183617c1e919061ab70565b60020b14617c2b57600080fd5b600080617c428385617c3d919061a30d565b61733a565b9150915060008160ff166001901b9050808660008560010b60010b815260200190815260200160002060008282541892505081905550505050505050565b6000808660008760020b60020b8152602001908152602001600020905060008760008760020b60020b8152602001908152602001600020905060008760020b8660020b12617cd45782600101549050617ce7565b826001015485617ce49190619bca565b90505b60008760020b8760020b1215617d035782600101549050617d16565b826001015486617d139190619bca565b90505b808287617d239190619bca565b617d2d9190619bca565b94505050505095945050505050565b6000836040518060800160405290816000820160009054906101000a90046fffffffffffffffffffffffffffffffff166fffffffffffffffffffffffffffffffff166fffffffffffffffffffffffffffffffff168152602001600182015481526020016002820160009054906101000a90046fffffffffffffffffffffffffffffffff166fffffffffffffffffffffffffffffffff166fffffffffffffffffffffffffffffffff1681526020016002820160109054906101000a90046fffffffffffffffffffffffffffffffff166fffffffffffffffffffffffffffffffff166fffffffffffffffffffffffffffffffff1681525050905060008084600f0b03617ea557600082600001516fffffffffffffffffffffffffffffffff1611617e99576040517f08c379a0000000000000000000000000000000000000000000000000000000008152600401617e909061b2e5565b60405180910390fd5b81600001519050617eb6565b617eb38260000151856162bb565b90505b6000617ef9836020015185617ecb9190619bca565b84600001516fffffffffffffffffffffffffffffffff16700100000000000000000000000000000000615fa1565b9050600085600f0b14617f4257818660000160006101000a8154816fffffffffffffffffffffffffffffffff02191690836fffffffffffffffffffffffffffffffff1602179055505b8386600101819055506000816fffffffffffffffffffffffffffffffff161115617fcc57808660020160008282829054906101000a90046fffffffffffffffffffffffffffffffff16617f959190619c89565b92506101000a8154816fffffffffffffffffffffffffffffffff02191690836fffffffffffffffffffffffffffffffff1602179055505b505050505050565b8160008260020b60020b8152602001908152602001600020600080820160006101000a8154906fffffffffffffffffffffffffffffffff02191690556000820160106101000a8154906fffffffffffffffffffffffffffffffff021916905560018201600090556002820160006101000a81549066ffffffffffffff02191690556002820160076101000a81549073ffffffffffffffffffffffffffffffffffffffff021916905560028201601b6101000a81549063ffffffff021916905560028201601f6101000a81549060ff021916905550505050565b60008363ffffffff168363ffffffff16111580156180d757508363ffffffff168263ffffffff1611155b156180f3578163ffffffff168363ffffffff1611159050618180565b60008463ffffffff168463ffffffff1611618124576401000000008463ffffffff1661811f919061b316565b61812c565b8363ffffffff165b64ffffffffff16905060008563ffffffff168463ffffffff1611618166576401000000008463ffffffff16618161919061b316565b61816e565b8363ffffffff165b64ffffffffff16905080821115925050505b9392505050565b61818f618855565b618197618855565b6000836001866181a7919061afa7565b6181b1919061afdd565b61ffff169050600060018561ffff16836181cb9190619fff565b6181d59190619bca565b905060005b60011561845357600282846181ef9190619fff565b6181f99190619bfe565b9050898661ffff168261820c919061ace5565b61ffff811061821e5761821d61a740565b5b016040518060800160405290816000820160009054906101000a900463ffffffff1663ffffffff1663ffffffff1681526020016000820160049054906101000a900460060b60060b60060b815260200160008201600b9054906101000a900473ffffffffffffffffffffffffffffffffffffffff1673ffffffffffffffffffffffffffffffffffffffff1673ffffffffffffffffffffffffffffffffffffffff16815260200160008201601f9054906101000a900460ff161515151581525050945084606001516182fd576001816182f69190619fff565b92506181da565b898661ffff166001836183109190619fff565b61831a919061ace5565b61ffff811061832c5761832b61a740565b5b016040518060800160405290816000820160009054906101000a900463ffffffff1663ffffffff1663ffffffff1681526020016000820160049054906101000a900460060b60060b60060b815260200160008201600b9054906101000a900473ffffffffffffffffffffffffffffffffffffffff1673ffffffffffffffffffffffffffffffffffffffff1673ffffffffffffffffffffffffffffffffffffffff16815260200160008201601f9054906101000a900460ff161515151581525050935060006183ff8a87600001518b6180ad565b905080801561841957506184188a8a87600001516180ad565b5b156184245750618453565b8061843d576001826184369190619bca565b925061844d565b60018261844a9190619fff565b93505b506181da565b5050509550959350505050565b6000808284061182840401905092915050565b6000811561852b57600073ffffffffffffffffffffffffffffffffffffffff80168411156184ca576184c5846c01000000000000000000000000876fffffffffffffffffffffffffffffffff16615fa1565b6184f0565b846fffffffffffffffffffffffffffffffff16606060ff1685901b6184ef9190619bfe565b5b905061852361851e828873ffffffffffffffffffffffffffffffffffffffff1661503190919063ffffffff16565b6187bb565b9150506185e8565b600073ffffffffffffffffffffffffffffffffffffffff801684111561857a57618575846c01000000000000000000000000876fffffffffffffffffffffffffffffffff1661525d565b61859e565b61859d606060ff1685901b866fffffffffffffffffffffffffffffffff16618460565b5b9050808673ffffffffffffffffffffffffffffffffffffffff16116185c257600080fd5b808673ffffffffffffffffffffffffffffffffffffffff166185e49190619bca565b9150505b949350505050565b60008083036186015784905061879a565b6000606060ff16856fffffffffffffffffffffffffffffffff16901b905082156186fd5760008673ffffffffffffffffffffffffffffffffffffffff16858873ffffffffffffffffffffffffffffffffffffffff16876186619190619c2f565b92508261866e9190619bfe565b036186b757600081836186819190619fff565b90508281106186b5576186ab838973ffffffffffffffffffffffffffffffffffffffff168361525d565b935050505061879a565b505b6186f4826186ef878a73ffffffffffffffffffffffffffffffffffffffff16866186e19190619bfe565b61503190919063ffffffff16565b618460565b9250505061879a565b60008673ffffffffffffffffffffffffffffffffffffffff16858873ffffffffffffffffffffffffffffffffffffffff16876187399190619c2f565b9250826187469190619bfe565b14801561875257508082115b61875b57600080fd5b600081836187699190619bca565b905061879461878f848a73ffffffffffffffffffffffffffffffffffffffff168461525d565b6187bb565b93505050505b949350505050565b60008182915081600f0b146187b657600080fd5b919050565b6000818291508173ffffffffffffffffffffffffffffffffffffffff16146187e257600080fd5b919050565b6040518060e00160405280600073ffffffffffffffffffffffffffffffffffffffff168152602001600060020b8152602001600015158152602001600073ffffffffffffffffffffffffffffffffffffffff1681526020016000815260200160008152602001600081525090565b6040518060800160405280600063ffffffff168152602001600060060b8152602001600073ffffffffffffffffffffffffffffffffffffffff1681526020016000151581525090565b6000819050919050565b6188b18161889e565b82525050565b60006020820190506188cc60008301846188a8565b92915050565b600073ffffffffffffffffffffffffffffffffffffffff82169050919050565b60006188fd826188d2565b9050919050565b61890d816188f2565b82525050565b60006020820190506189286000830184618904565b92915050565b600080fd5b600080fd5b618941816188f2565b811461894c57600080fd5b50565b60008135905061895e81618938565b92915050565b60006020828403121561897a5761897961892e565b5b60006189888482850161894f565b91505092915050565b60006fffffffffffffffffffffffffffffffff82169050919050565b6189b681618991565b82525050565b60006040820190506189d160008301856189ad565b6189de60208301846189ad565b9392505050565b6189ee8161889e565b81146189f957600080fd5b50565b600081359050618a0b816189e5565b92915050565b600060208284031215618a2757618a2661892e565b5b6000618a35848285016189fc565b91505092915050565b600063ffffffff82169050919050565b618a5781618a3e565b82525050565b60008160060b9050919050565b618a7381618a5d565b82525050565b618a82816188d2565b82525050565b60008115159050919050565b618a9d81618a88565b82525050565b6000608082019050618ab86000830187618a4e565b618ac56020830186618a6a565b618ad26040830185618a79565b618adf6060830184618a94565b95945050505050565b60008160020b9050919050565b618afe81618ae8565b8114618b0957600080fd5b50565b600081359050618b1b81618af5565b92915050565b618b2a81618991565b8114618b3557600080fd5b50565b600081359050618b4781618b21565b92915050565b60008060008060808587031215618b6757618b6661892e565b5b6000618b758782880161894f565b9450506020618b8687828801618b0c565b9350506040618b9787828801618b0c565b9250506060618ba887828801618b38565b91505092959194509250565b6000602082019050618bc960008301846189ad565b92915050565b600060208284031215618be557618be461892e565b5b6000618bf384828501618b0c565b91505092915050565b600081600f0b9050919050565b618c1281618bfc565b82525050565b600060e082019050618c2d600083018a6189ad565b618c3a6020830189618c09565b618c4760408301886188a8565b618c546060830187618a6a565b618c616080830186618a79565b618c6e60a0830185618a4e565b618c7b60c0830184618a94565b98975050505050505050565b600060ff82169050919050565b618c9d81618c87565b8114618ca857600080fd5b50565b600081359050618cba81618c94565b92915050565b60008060408385031215618cd757618cd661892e565b5b6000618ce585828601618cab565b9250506020618cf685828601618cab565b9150509250929050565b600080fd5b600080fd5b600080fd5b60008083601f840112618d2557618d24618d00565b5b8235905067ffffffffffffffff811115618d4257618d41618d05565b5b602083019150836001820283011115618d5e57618d5d618d0a565b5b9250929050565b60008060008060008060a08789031215618d8257618d8161892e565b5b6000618d9089828a0161894f565b9650506020618da189828a01618b0c565b9550506040618db289828a01618b0c565b9450506060618dc389828a01618b38565b935050608087013567ffffffffffffffff811115618de457618de3618933565b5b618df089828a01618d0f565b92509250509295509295509295565b6000604082019050618e1460008301856188a8565b618e2160208301846188a8565b9392505050565b6000819050919050565b618e3b81618e28565b8114618e4657600080fd5b50565b600081359050618e5881618e32565b92915050565b600060208284031215618e7457618e7361892e565b5b6000618e8284828501618e49565b91505092915050565b6000608082019050618ea060008301876189ad565b618ead60208301866188a8565b618eba60408301856189ad565b618ec760608301846189ad565b95945050505050565b600062ffffff82169050919050565b618ee881618ed0565b82525050565b6000602082019050618f036000830184618edf565b92915050565b60008060008060808587031215618f2357618f2261892e565b5b6000618f3187828801618cab565b9450506020618f4287828801618cab565b9350506040618f5387828801618cab565b9250506060618f6487828801618cab565b91505092959194509250565b618f7981618c87565b82525050565b6000602082019050618f946000830184618f70565b92915050565b60008083601f840112618fb057618faf618d00565b5b8235905067ffffffffffffffff811115618fcd57618fcc618d05565b5b602083019150836020820283011115618fe957618fe8618d0a565b5b9250929050565b600080602083850312156190075761900661892e565b5b600083013567ffffffffffffffff81111561902557619024618933565b5b61903185828601618f9a565b92509250509250929050565b600081519050919050565b600082825260208201905092915050565b6000819050602082019050919050565b61907281618a5d565b82525050565b60006190848383619069565b60208301905092915050565b6000602082019050919050565b60006190a88261903d565b6190b28185619048565b93506190bd83619059565b8060005b838110156190ee5781516190d58882619078565b97506190e083619090565b9250506001810190506190c1565b5085935050505092915050565b600081519050919050565b600082825260208201905092915050565b6000819050602082019050919050565b619130816188d2565b82525050565b60006191428383619127565b60208301905092915050565b6000602082019050919050565b6000619166826190fb565b6191708185619106565b935061917b83619117565b8060005b838110156191ac5781516191938882619136565b975061919e8361914e565b92505060018101905061917f565b5085935050505092915050565b600060408201905081810360008301526191d3818561909d565b905081810360208301526191e7818461915b565b90509392505050565b60008160010b9050919050565b619206816191f0565b811461921157600080fd5b50565b600081359050619223816191fd565b92915050565b60006020828403121561923f5761923e61892e565b5b600061924d84828501619214565b91505092915050565b61925f81618ae8565b82525050565b600061ffff82169050919050565b61927c81619265565b82525050565b600060e082019050619297600083018a618a79565b6192a46020830189619256565b6192b16040830188619273565b6192be6060830187619273565b6192cb6080830186619273565b6192d860a0830185618f70565b6192e560c0830184618a94565b98975050505050505050565b60008060008060008060a0878903121561930e5761930d61892e565b5b600061931c89828a0161894f565b965050602061932d89828a0161894f565b955050604061933e89828a016189fc565b945050606061934f89828a016189fc565b935050608087013567ffffffffffffffff8111156193705761936f618933565b5b61937c89828a01618d0f565b92509250509295509295509295565b60006020820190506193a06000830184619256565b92915050565b60006020820190506193bb6000830184618a94565b92915050565b6000806000606084860312156193da576193d961892e565b5b60006193e886828701618b0c565b93505060206193f986828701618b0c565b925050604061940a86828701618b38565b9150509250925092565b6000806040838503121561942b5761942a61892e565b5b600061943985828601618b0c565b925050602061944a85828601618b0c565b9150509250929050565b60006060820190506194696000830186618a6a565b6194766020830185618a79565b6194836040830184618a4e565b949350505050565b61949481618a88565b811461949f57600080fd5b50565b6000813590506194b18161948b565b92915050565b6000819050919050565b6194ca816194b7565b81146194d557600080fd5b50565b6000813590506194e7816194c1565b92915050565b6194f6816188d2565b811461950157600080fd5b50565b600081359050619513816194ed565b92915050565b600080600080600080600060c0888a0312156195385761953761892e565b5b60006195468a828b0161894f565b97505060206195578a828b0161894f565b96505060406195688a828b016194a2565b95505060606195798a828b016194d8565b945050608061958a8a828b01619504565b93505060a088013567ffffffffffffffff8111156195ab576195aa618933565b5b6195b78a828b01618d0f565b925092505092959891949750929550565b6195d1816194b7565b82525050565b60006040820190506195ec60008301856195c8565b6195f960208301846195c8565b9392505050565b60006080820190506196156000830187618f70565b6196226020830186618f70565b61962f6040830185618f70565b61963c6060830184618f70565b95945050505050565b61964e81619265565b811461965957600080fd5b50565b60008135905061966b81619645565b92915050565b6000602082840312156196875761968661892e565b5b60006196958482850161965c565b91505092915050565b6000602082840312156196b4576196b361892e565b5b60006196c284828501619504565b91505092915050565b6000815190506196da8161948b565b92915050565b6000602082840312156196f6576196f561892e565b5b6000619704848285016196cb565b91505092915050565b600082825260208201905092915050565b7f4c4f4b0000000000000000000000000000000000000000000000000000000000600082015250565b600061975460038361970d565b915061975f8261971e565b602082019050919050565b6000602082019050818103600083015261978381619747565b9050919050565b7f4e487b7100000000000000000000000000000000000000000000000000000000600052601160045260246000fd5b60006197c482618991565b91506197cf83618991565b925082820390506fffffffffffffffffffffffffffffffff8111156197f7576197f661978a565b5b92915050565b60006040820190506198126000830185618904565b61981f60208301846189ad565b9392505050565b600061983182618c87565b915061983c83618c87565b9250828201905060ff8111156198555761985461978a565b5b92915050565b7f4e487b7100000000000000000000000000000000000000000000000000000000600052601260045260246000fd5b600061989582618c87565b91506198a083618c87565b9250826198b0576198af61985b565b5b828206905092915050565b7f4d30000000000000000000000000000000000000000000000000000000000000600082015250565b60006198f160028361970d565b91506198fc826198bb565b602082019050919050565b60006020820190508181036000830152619920816198e4565b9050919050565b7f4d31000000000000000000000000000000000000000000000000000000000000600082015250565b600061995d60028361970d565b915061996882619927565b602082019050919050565b6000602082019050818103600083015261998c81619950565b9050919050565b60006080820190506199a86000830187618904565b6199b560208301866189ad565b6199c260408301856188a8565b6199cf60608301846188a8565b95945050505050565b7f70726f666974736861726520636f6e666967206572726f720000000000000000600082015250565b6000619a0e60188361970d565b9150619a19826199d8565b602082019050919050565b60006020820190508181036000830152619a3d81619a01565b9050919050565b7f4c00000000000000000000000000000000000000000000000000000000000000600082015250565b6000619a7a60018361970d565b9150619a8582619a44565b602082019050919050565b60006020820190508181036000830152619aa981619a6d565b9050919050565b600081519050619abf81618938565b92915050565b600060208284031215619adb57619ada61892e565b5b6000619ae984828501619ab0565b91505092915050565b7f4630000000000000000000000000000000000000000000000000000000000000600082015250565b6000619b2860028361970d565b9150619b3382619af2565b602082019050919050565b60006020820190508181036000830152619b5781619b1b565b9050919050565b7f4631000000000000000000000000000000000000000000000000000000000000600082015250565b6000619b9460028361970d565b9150619b9f82619b5e565b602082019050919050565b60006020820190508181036000830152619bc381619b87565b9050919050565b6000619bd58261889e565b9150619be08361889e565b9250828203905081811115619bf857619bf761978a565b5b92915050565b6000619c098261889e565b9150619c148361889e565b925082619c2457619c2361985b565b5b828204905092915050565b6000619c3a8261889e565b9150619c458361889e565b9250817fffffffffffffffffffffffffffffffffffffffffffffffffffffffffffffffff0483118215151615619c7e57619c7d61978a565b5b828202905092915050565b6000619c9482618991565b9150619c9f83618991565b925082820190506fffffffffffffffffffffffffffffffff811115619cc757619cc661978a565b5b92915050565b6000619cd882618bfc565b91507fffffffffffffffffffffffffffffffff800000000000000000000000000000008203619d0a57619d0961978a565b5b816000039050919050565b6000619d20826194b7565b91507f80000000000000000000000000000000000000000000000000000000000000008203619d5257619d5161978a565b5b816000039050919050565b6000606082019050619d7260008301866189ad565b619d7f60208301856188a8565b619d8c60408301846188a8565b949350505050565b6000619d9f82618a5d565b9150619daa83618a5d565b92508282039050667fffffffffffff81137fffffffffffffffffffffffffffffffffffffffffffffffffff8000000000000082121715619ded57619dec61978a565b5b92915050565b6000619dfe826188d2565b9150619e09836188d2565b9250828203905073ffffffffffffffffffffffffffffffffffffffff811115619e3557619e3461978a565b5b92915050565b6000619e4682618a3e565b9150619e5183618a3e565b9250828203905063ffffffff811115619e6d57619e6c61978a565b5b92915050565b7f4153000000000000000000000000000000000000000000000000000000000000600082015250565b6000619ea960028361970d565b9150619eb482619e73565b602082019050919050565b60006020820190508181036000830152619ed881619e9c565b9050919050565b7f6d61726b6574206c6f636b000000000000000000000000000000000000000000600082015250565b6000619f15600b8361970d565b9150619f2082619edf565b602082019050919050565b60006020820190508181036000830152619f4481619f08565b9050919050565b7f53504c0000000000000000000000000000000000000000000000000000000000600082015250565b6000619f8160038361970d565b9150619f8c82619f4b565b602082019050919050565b60006020820190508181036000830152619fb081619f74565b9050919050565b6000619fc282618ae8565b91507fffffffffffffffffffffffffffffffffffffffffffffffffffffffffff8000008203619ff457619ff361978a565b5b816000039050919050565b600061a00a8261889e565b915061a0158361889e565b925082820190508082111561a02d5761a02c61978a565b5b92915050565b600061a03e826194b7565b915061a049836194b7565b925082820390508181126000841216828213600085121516171561a0705761a06f61978a565b5b92915050565b600061a081826194b7565b915061a08c836194b7565b92508282019050828112156000831216838212600084121516171561a0b45761a0b361978a565b5b92915050565b600061a0c582618ae8565b915061a0d083618ae8565b92508282039050627fffff81137fffffffffffffffffffffffffffffffffffffffffffffffffffffffffff8000008212171561a10f5761a10e61978a565b5b92915050565b600061a12082618991565b915061a12b83618991565b92508261a13b5761a13a61985b565b5b828204905092915050565b600061a15182618991565b915061a15c83618991565b9250816fffffffffffffffffffffffffffffffff048311821515161561a1855761a18461978a565b5b828202905092915050565b7f4949410000000000000000000000000000000000000000000000000000000000600082015250565b600061a1c660038361970d565b915061a1d18261a190565b602082019050919050565b6000602082019050818103600083015261a1f58161a1b9565b9050919050565b600060a08201905061a21160008301886195c8565b61a21e60208301876195c8565b61a22b6040830186618a79565b61a23860608301856189ad565b61a2456080830184619256565b9695505050505050565b600060408201905061a2646000830185619273565b61a2716020830184619273565b9392505050565b7f4149000000000000000000000000000000000000000000000000000000000000600082015250565b600061a2ae60028361970d565b915061a2b98261a278565b602082019050919050565b6000602082019050818103600083015261a2dd8161a2a1565b9050919050565b600060408201905061a2f96000830185618a79565b61a3066020830184619256565b9392505050565b600061a31882618ae8565b915061a32383618ae8565b92508261a3335761a33261985b565b5b600160000383147fffffffffffffffffffffffffffffffffffffffffffffffffffffffffff8000008314161561a36c5761a36b61978a565b5b828205905092915050565b600061a38282618ae8565b915061a38d83618ae8565b925082627fffff048211600084136000841316161561a3af5761a3ae61978a565b5b817fffffffffffffffffffffffffffffffffffffffffffffffffffffffffff800000058312600084126000841316161561a3ec5761a3eb61978a565b5b827fffffffffffffffffffffffffffffffffffffffffffffffffffffffffff800000058212600084136000841216161561a4295761a42861978a565b5b82627fffff058212600084126000841216161561a4495761a44861978a565b5b828202905092915050565b600061a45f82618ed0565b915061a46a83618ed0565b9250828201905062ffffff81111561a4855761a48461978a565b5b92915050565b60008160601b9050919050565b600061a4a38261a48b565b9050919050565b600061a4b58261a498565b9050919050565b61a4cd61a4c8826188f2565b61a4aa565b82525050565b60008160e81b9050919050565b600061a4eb8261a4d3565b9050919050565b61a50361a4fe82618ae8565b61a4e0565b82525050565b600061a515828661a4bc565b60148201915061a525828561a4f2565b60038201915061a535828461a4f2565b600382019150819050949350505050565b600060408201905061a55b6000830185618904565b61a56860208301846188a8565b9392505050565b600081519050919050565b600081905092915050565b60005b8381101561a5a357808201518184015260208101905061a588565b60008484015250505050565b600061a5ba8261a56f565b61a5c4818561a57a565b935061a5d481856020860161a585565b80840191505092915050565b600061a5ec828461a5af565b915081905092915050565b7f5446000000000000000000000000000000000000000000000000000000000000600082015250565b600061a62d60028361970d565b915061a6388261a5f7565b602082019050919050565b6000602082019050818103600083015261a65c8161a620565b9050919050565b60008151905061a672816189e5565b92915050565b60006020828403121561a68e5761a68d61892e565b5b600061a69c8482850161a663565b91505092915050565b7f4900000000000000000000000000000000000000000000000000000000000000600082015250565b600061a6db60018361970d565b915061a6e68261a6a5565b602082019050919050565b6000602082019050818103600083015261a70a8161a6ce565b9050919050565b7f4e487b7100000000000000000000000000000000000000000000000000000000600052604160045260246000fd5b7f4e487b7100000000000000000000000000000000000000000000000000000000600052603260045260246000fd5b600061a77a8261889e565b91507fffffffffffffffffffffffffffffffffffffffffffffffffffffffffffffffff820361a7ac5761a7ab61978a565b5b600182019050919050565b7f6c6f776572206e6f74206c6f776572206f6620757070657220756e6974000000600082015250565b600061a7ed601d8361970d565b915061a7f88261a7b7565b602082019050919050565b6000602082019050818103600083015261a81c8161a7e0565b9050919050565b7f544c4d0000000000000000000000000000000000000000000000000000000000600082015250565b600061a85960038361970d565b915061a8648261a823565b602082019050919050565b6000602082019050818103600083015261a8888161a84c565b9050919050565b7f54554d0000000000000000000000000000000000000000000000000000000000600082015250565b600061a8c560038361970d565b915061a8d08261a88f565b602082019050919050565b6000602082019050818103600083015261a8f48161a8b8565b9050919050565b600061a90682618a5d565b915061a91183618a5d565b92508261a9215761a92061985b565b5b600160000383147fffffffffffffffffffffffffffffffffffffffffffffffffff800000000000008314161561a95a5761a95961978a565b5b828205905092915050565b600061a97082618a5d565b915061a97b83618a5d565b925082667fffffffffffff048211600084136000841316161561a9a15761a9a061978a565b5b817fffffffffffffffffffffffffffffffffffffffffffffffffff80000000000000058312600084126000841316161561a9de5761a9dd61978a565b5b827fffffffffffffffffffffffffffffffffffffffffffffffffff80000000000000058212600084136000841216161561aa1b5761aa1a61978a565b5b82667fffffffffffff058212600084126000841216161561aa3f5761aa3e61978a565b5b828202905092915050565b600061aa5582618a5d565b915061aa6083618a5d565b925082820190507fffffffffffffffffffffffffffffffffffffffffffffffffff800000000000008112667fffffffffffff8213171561aaa35761aaa261978a565b5b92915050565b600061aab4826188d2565b915061aabf836188d2565b92508173ffffffffffffffffffffffffffffffffffffffff048311821515161561aaec5761aaeb61978a565b5b828202905092915050565b600061ab02826188d2565b915061ab0d836188d2565b92508261ab1d5761ab1c61985b565b5b828204905092915050565b600061ab33826188d2565b915061ab3e836188d2565b9250828201905073ffffffffffffffffffffffffffffffffffffffff81111561ab6a5761ab6961978a565b5b92915050565b600061ab7b82618ae8565b915061ab8683618ae8565b92508261ab965761ab9561985b565b5b828207905092915050565b600061abac82618ae8565b91507fffffffffffffffffffffffffffffffffffffffffffffffffffffffffff800000820361abde5761abdd61978a565b5b600182039050919050565b600061abf482618c87565b915061abff83618c87565b9250828203905060ff81111561ac185761ac1761978a565b5b92915050565b600061ac2982618ae8565b915061ac3483618ae8565b925082820190507fffffffffffffffffffffffffffffffffffffffffffffffffffffffffff8000008112627fffff8213171561ac735761ac7261978a565b5b92915050565b7f5400000000000000000000000000000000000000000000000000000000000000600082015250565b600061acaf60018361970d565b915061acba8261ac79565b602082019050919050565b6000602082019050818103600083015261acde8161aca2565b9050919050565b600061acf08261889e565b915061acfb8361889e565b92508261ad0b5761ad0a61985b565b5b828206905092915050565b7f4c53000000000000000000000000000000000000000000000000000000000000600082015250565b600061ad4c60028361970d565b915061ad578261ad16565b602082019050919050565b6000602082019050818103600083015261ad7b8161ad3f565b9050919050565b7f4c41000000000000000000000000000000000000000000000000000000000000600082015250565b600061adb860028361970d565b915061adc38261ad82565b602082019050919050565b6000602082019050818103600083015261ade78161adab565b9050919050565b7f5200000000000000000000000000000000000000000000000000000000000000600082015250565b600061ae2460018361970d565b915061ae2f8261adee565b602082019050919050565b6000602082019050818103600083015261ae538161ae17565b9050919050565b600061ae65826194b7565b915061ae70836194b7565b9250827f7fffffffffffffffffffffffffffffffffffffffffffffffffffffffffffffff048211600084136000841316161561aeaf5761aeae61978a565b5b817f8000000000000000000000000000000000000000000000000000000000000000058312600084126000841316161561aeec5761aeeb61978a565b5b827f8000000000000000000000000000000000000000000000000000000000000000058212600084136000841216161561af295761af2861978a565b5b827f7fffffffffffffffffffffffffffffffffffffffffffffffffffffffffffffff058212600084126000841216161561af665761af6561978a565b5b828202905092915050565b600061af7c82619265565b915061af8783619265565b9250828203905061ffff81111561afa15761afa061978a565b5b92915050565b600061afb282619265565b915061afbd83619265565b9250828201905061ffff81111561afd75761afd661978a565b5b92915050565b600061afe882619265565b915061aff383619265565b92508261b0035761b00261985b565b5b828206905092915050565b600061b01982619265565b915061ffff820361b02d5761b02c61978a565b5b600182019050919050565b60008160030b9050919050565b600061b0508261b038565b915061b05b8361b038565b925082637fffffff048211600084136000841316161561b07e5761b07d61978a565b5b817fffffffffffffffffffffffffffffffffffffffffffffffffffffffff80000000058312600084126000841316161561b0bb5761b0ba61978a565b5b827fffffffffffffffffffffffffffffffffffffffffffffffffffffffff80000000058212600084136000841216161561b0f85761b0f761978a565b5b82637fffffff058212600084126000841216161561b1195761b11861978a565b5b828202905092915050565b7f4f4c440000000000000000000000000000000000000000000000000000000000600082015250565b600061b15a60038361970d565b915061b1658261b124565b602082019050919050565b6000602082019050818103600083015261b1898161b14d565b9050919050565b600061b19b82618ed0565b915061b1a683618ed0565b92508261b1b65761b1b561985b565b5b828206905092915050565b7f53616665436173743a2076616c7565206d75737420626520706f736974697665600082015250565b600061b1f760208361970d565b915061b2028261b1c1565b602082019050919050565b6000602082019050818103600083015261b2268161b1ea565b9050919050565b7f4c4f000000000000000000000000000000000000000000000000000000000000600082015250565b600061b26360028361970d565b915061b26e8261b22d565b602082019050919050565b6000602082019050818103600083015261b2928161b256565b9050919050565b7f4e50000000000000000000000000000000000000000000000000000000000000600082015250565b600061b2cf60028361970d565b915061b2da8261b299565b602082019050919050565b6000602082019050818103600083015261b2fe8161b2c2565b9050919050565b600064ffffffffff82169050919050565b600061b3218261b305565b915061b32c8361b305565b9250828201905064ffffffffff81111561b3495761b34861978a565b5b9291505056fea264697066735822122048bb5cbec9315bfb304b30693da2ecb23b1dc34cfbe2fb0fbe666be99e92bed364736f6c63430008100033",
			"opcodes": "PUSH2 0x120 PUSH1 0x40 MSTORE CALLVALUE DUP1 ISZERO PUSH3 0x12 JUMPI PUSH1 0x0 DUP1 REVERT JUMPDEST POP ADDRESS PUSH20 0xFFFFFFFFFFFFFFFFFFFFFFFFFFFFFFFFFFFFFFFF AND PUSH1 0x80 DUP2 PUSH20 0xFFFFFFFFFFFFFFFFFFFFFFFFFFFFFFFFFFFFFFFF AND DUP2 MSTORE POP POP CALLER PUSH20 0xFFFFFFFFFFFFFFFFFFFFFFFFFFFFFFFFFFFFFFFF AND PUSH4 0x2FC92452 PUSH1 0x40 MLOAD DUP2 PUSH4 0xFFFFFFFF AND PUSH1 0xE0 SHL DUP2 MSTORE PUSH1 0x4 ADD PUSH2 0x120 PUSH1 0x40 MLOAD DUP1 DUP4 SUB DUP2 DUP7 GAS STATICCALL ISZERO DUP1 ISZERO PUSH3 0x94 JUMPI RETURNDATASIZE PUSH1 0x0 DUP1 RETURNDATACOPY RETURNDATASIZE PUSH1 0x0 REVERT JUMPDEST POP POP POP POP PUSH1 0x40 MLOAD RETURNDATASIZE PUSH1 0x1F NOT PUSH1 0x1F DUP3 ADD AND DUP3 ADD DUP1 PUSH1 0x40 MSTORE POP DUP2 ADD SWAP1 PUSH3 0xBA SWAP2 SWAP1 PUSH3 0x5E6 JUMP JUMPDEST PUSH1 0x0 DUP1 PUSH1 0x1 PUSH1 0x0 DUP5 SWAP2 SWAP1 POP PUSH1 0x0 DUP3 ADD MLOAD DUP2 PUSH1 0x0 ADD PUSH1 0x0 PUSH2 0x100 EXP DUP2 SLOAD DUP2 PUSH1 0xFF MUL NOT AND SWAP1 DUP4 PUSH1 0xFF AND MUL OR SWAP1 SSTORE POP PUSH1 0x20 DUP3 ADD MLOAD DUP2 PUSH1 0x0 ADD PUSH1 0x1 PUSH2 0x100 EXP DUP2 SLOAD DUP2 PUSH1 0xFF MUL NOT AND SWAP1 DUP4 PUSH1 0xFF AND MUL OR SWAP1 SSTORE POP PUSH1 0x40 DUP3 ADD MLOAD DUP2 PUSH1 0x0 ADD PUSH1 0x2 PUSH2 0x100 EXP DUP2 SLOAD DUP2 PUSH1 0xFF MUL NOT AND SWAP1 DUP4 PUSH1 0xFF AND MUL OR SWAP1 SSTORE POP PUSH1 0x60 DUP3 ADD MLOAD DUP2 PUSH1 0x0 ADD PUSH1 0x3 PUSH2 0x100 EXP DUP2 SLOAD DUP2 PUSH1 0xFF MUL NOT AND SWAP1 DUP4 PUSH1 0xFF AND MUL OR SWAP1 SSTORE POP POP POP DUP4 SWAP2 SWAP1 PUSH2 0x100 EXP DUP2 SLOAD DUP2 PUSH3 0xFFFFFF MUL NOT AND SWAP1 DUP4 PUSH1 0x2 SIGNEXTEND PUSH3 0xFFFFFF AND MUL OR SWAP1 SSTORE POP DUP3 PUSH3 0xFFFFFF AND PUSH2 0x100 SWAP1 PUSH3 0xFFFFFF AND DUP2 MSTORE POP DUP4 PUSH20 0xFFFFFFFFFFFFFFFFFFFFFFFFFFFFFFFFFFFFFFFF AND PUSH1 0xE0 SWAP1 PUSH20 0xFFFFFFFFFFFFFFFFFFFFFFFFFFFFFFFFFFFFFFFF AND DUP2 MSTORE POP DUP5 PUSH20 0xFFFFFFFFFFFFFFFFFFFFFFFFFFFFFFFFFFFFFFFF AND PUSH1 0xC0 SWAP1 PUSH20 0xFFFFFFFFFFFFFFFFFFFFFFFFFFFFFFFFFFFFFFFF AND DUP2 MSTORE POP DUP6 PUSH20 0xFFFFFFFFFFFFFFFFFFFFFFFFFFFFFFFFFFFFFFFF AND PUSH1 0xA0 SWAP1 PUSH20 0xFFFFFFFFFFFFFFFFFFFFFFFFFFFFFFFFFFFFFFFF AND DUP2 MSTORE POP POP POP POP POP POP POP PUSH1 0x0 PUSH1 0x2 PUSH1 0x15 PUSH2 0x100 EXP DUP2 SLOAD DUP2 PUSH1 0xFF MUL NOT AND SWAP1 DUP4 ISZERO ISZERO MUL OR SWAP1 SSTORE POP PUSH1 0x0 PUSH1 0x2 PUSH1 0x16 PUSH2 0x100 EXP DUP2 SLOAD DUP2 PUSH1 0xFF MUL NOT AND SWAP1 DUP4 ISZERO ISZERO MUL OR SWAP1 SSTORE POP PUSH3 0x275 PUSH1 0x0 DUP1 SLOAD SWAP1 PUSH2 0x100 EXP SWAP1 DIV PUSH1 0x2 SIGNEXTEND PUSH3 0x2B3 PUSH1 0x20 SHL PUSH3 0x482D OR PUSH1 0x20 SHR JUMP JUMPDEST PUSH1 0x0 PUSH1 0x3 PUSH2 0x100 EXP DUP2 SLOAD DUP2 PUSH16 0xFFFFFFFFFFFFFFFFFFFFFFFFFFFFFFFF MUL NOT AND SWAP1 DUP4 PUSH16 0xFFFFFFFFFFFFFFFFFFFFFFFFFFFFFFFF AND MUL OR SWAP1 SSTORE POP PUSH3 0x983 JUMP JUMPDEST PUSH1 0x0 DUP1 DUP3 DUP4 PUSH32 0xFFFFFFFFFFFFFFFFFFFFFFFFFFFFFFFFFFFFFFFFFFFFFFFFFFFFFFFFFFF27618 PUSH3 0x2E5 SWAP2 SWAP1 PUSH3 0x6E1 JUMP JUMPDEST PUSH3 0x2F1 SWAP2 SWAP1 PUSH3 0x755 JUMP JUMPDEST SWAP1 POP PUSH1 0x0 DUP4 DUP5 PUSH32 0xFFFFFFFFFFFFFFFFFFFFFFFFFFFFFFFFFFFFFFFFFFFFFFFFFFFFFFFFFFF27618 PUSH3 0x323 SWAP1 PUSH3 0x842 JUMP JUMPDEST PUSH3 0x32F SWAP2 SWAP1 PUSH3 0x6E1 JUMP JUMPDEST PUSH3 0x33B SWAP2 SWAP1 PUSH3 0x755 JUMP JUMPDEST SWAP1 POP PUSH1 0x0 PUSH1 0x1 DUP6 DUP5 DUP5 PUSH3 0x350 SWAP2 SWAP1 PUSH3 0x88F JUMP JUMPDEST PUSH3 0x35C SWAP2 SWAP1 PUSH3 0x6E1 JUMP JUMPDEST PUSH3 0x368 SWAP2 SWAP1 PUSH3 0x8F1 JUMP JUMPDEST SWAP1 POP DUP1 PUSH3 0xFFFFFF AND PUSH16 0xFFFFFFFFFFFFFFFFFFFFFFFFFFFFFFFF PUSH3 0x38D SWAP2 SWAP1 PUSH3 0x94B JUMP JUMPDEST SWAP4 POP POP POP POP SWAP2 SWAP1 POP JUMP JUMPDEST PUSH1 0x0 PUSH1 0x40 MLOAD SWAP1 POP SWAP1 JUMP JUMPDEST PUSH1 0x0 DUP1 REVERT JUMPDEST PUSH1 0x0 PUSH20 0xFFFFFFFFFFFFFFFFFFFFFFFFFFFFFFFFFFFFFFFF DUP3 AND SWAP1 POP SWAP2 SWAP1 POP JUMP JUMPDEST PUSH1 0x0 PUSH3 0x3D3 DUP3 PUSH3 0x3A6 JUMP JUMPDEST SWAP1 POP SWAP2 SWAP1 POP JUMP JUMPDEST PUSH3 0x3E5 DUP2 PUSH3 0x3C6 JUMP JUMPDEST DUP2 EQ PUSH3 0x3F1 JUMPI PUSH1 0x0 DUP1 REVERT JUMPDEST POP JUMP JUMPDEST PUSH1 0x0 DUP2 MLOAD SWAP1 POP PUSH3 0x405 DUP2 PUSH3 0x3DA JUMP JUMPDEST SWAP3 SWAP2 POP POP JUMP JUMPDEST PUSH1 0x0 PUSH3 0xFFFFFF DUP3 AND SWAP1 POP SWAP2 SWAP1 POP JUMP JUMPDEST PUSH3 0x425 DUP2 PUSH3 0x40B JUMP JUMPDEST DUP2 EQ PUSH3 0x431 JUMPI PUSH1 0x0 DUP1 REVERT JUMPDEST POP JUMP JUMPDEST PUSH1 0x0 DUP2 MLOAD SWAP1 POP PUSH3 0x445 DUP2 PUSH3 0x41A JUMP JUMPDEST SWAP3 SWAP2 POP POP JUMP JUMPDEST PUSH1 0x0 DUP2 PUSH1 0x2 SIGNEXTEND SWAP1 POP SWAP2 SWAP1 POP JUMP JUMPDEST PUSH3 0x463 DUP2 PUSH3 0x44B JUMP JUMPDEST DUP2 EQ PUSH3 0x46F JUMPI PUSH1 0x0 DUP1 REVERT JUMPDEST POP JUMP JUMPDEST PUSH1 0x0 DUP2 MLOAD SWAP1 POP PUSH3 0x483 DUP2 PUSH3 0x458 JUMP JUMPDEST SWAP3 SWAP2 POP POP JUMP JUMPDEST PUSH1 0x0 DUP1 REVERT JUMPDEST PUSH1 0x0 PUSH1 0x1F NOT PUSH1 0x1F DUP4 ADD AND SWAP1 POP SWAP2 SWAP1 POP JUMP JUMPDEST PUSH32 0x4E487B7100000000000000000000000000000000000000000000000000000000 PUSH1 0x0 MSTORE PUSH1 0x41 PUSH1 0x4 MSTORE PUSH1 0x24 PUSH1 0x0 REVERT JUMPDEST PUSH3 0x4D9 DUP3 PUSH3 0x48E JUMP JUMPDEST DUP2 ADD DUP2 DUP2 LT PUSH8 0xFFFFFFFFFFFFFFFF DUP3 GT OR ISZERO PUSH3 0x4FB JUMPI PUSH3 0x4FA PUSH3 0x49F JUMP JUMPDEST JUMPDEST DUP1 PUSH1 0x40 MSTORE POP POP POP JUMP JUMPDEST PUSH1 0x0 PUSH3 0x510 PUSH3 0x397 JUMP JUMPDEST SWAP1 POP PUSH3 0x51E DUP3 DUP3 PUSH3 0x4CE JUMP JUMPDEST SWAP2 SWAP1 POP JUMP JUMPDEST PUSH1 0x0 PUSH1 0xFF DUP3 AND SWAP1 POP SWAP2 SWAP1 POP JUMP JUMPDEST PUSH3 0x53B DUP2 PUSH3 0x523 JUMP JUMPDEST DUP2 EQ PUSH3 0x547 JUMPI PUSH1 0x0 DUP1 REVERT JUMPDEST POP JUMP JUMPDEST PUSH1 0x0 DUP2 MLOAD SWAP1 POP PUSH3 0x55B DUP2 PUSH3 0x530 JUMP JUMPDEST SWAP3 SWAP2 POP POP JUMP JUMPDEST PUSH1 0x0 PUSH1 0x80 DUP3 DUP5 SUB SLT ISZERO PUSH3 0x57A JUMPI PUSH3 0x579 PUSH3 0x489 JUMP JUMPDEST JUMPDEST PUSH3 0x586 PUSH1 0x80 PUSH3 0x504 JUMP JUMPDEST SWAP1 POP PUSH1 0x0 PUSH3 0x598 DUP5 DUP3 DUP6 ADD PUSH3 0x54A JUMP JUMPDEST PUSH1 0x0 DUP4 ADD MSTORE POP PUSH1 0x20 PUSH3 0x5AE DUP5 DUP3 DUP6 ADD PUSH3 0x54A JUMP JUMPDEST PUSH1 0x20 DUP4 ADD MSTORE POP PUSH1 0x40 PUSH3 0x5C4 DUP5 DUP3 DUP6 ADD PUSH3 0x54A JUMP JUMPDEST PUSH1 0x40 DUP4 ADD MSTORE POP PUSH1 0x60 PUSH3 0x5DA DUP5 DUP3 DUP6 ADD PUSH3 0x54A JUMP JUMPDEST PUSH1 0x60 DUP4 ADD MSTORE POP SWAP3 SWAP2 POP POP JUMP JUMPDEST PUSH1 0x0 DUP1 PUSH1 0x0 DUP1 PUSH1 0x0 DUP1 PUSH2 0x120 DUP8 DUP10 SUB SLT ISZERO PUSH3 0x607 JUMPI PUSH3 0x606 PUSH3 0x3A1 JUMP JUMPDEST JUMPDEST PUSH1 0x0 PUSH3 0x617 DUP10 DUP3 DUP11 ADD PUSH3 0x3F4 JUMP JUMPDEST SWAP7 POP POP PUSH1 0x20 PUSH3 0x62A DUP10 DUP3 DUP11 ADD PUSH3 0x3F4 JUMP JUMPDEST SWAP6 POP POP PUSH1 0x40 PUSH3 0x63D DUP10 DUP3 DUP11 ADD PUSH3 0x3F4 JUMP JUMPDEST SWAP5 POP POP PUSH1 0x60 PUSH3 0x650 DUP10 DUP3 DUP11 ADD PUSH3 0x434 JUMP JUMPDEST SWAP4 POP POP PUSH1 0x80 PUSH3 0x663 DUP10 DUP3 DUP11 ADD PUSH3 0x472 JUMP JUMPDEST SWAP3 POP POP PUSH1 0xA0 PUSH3 0x676 DUP10 DUP3 DUP11 ADD PUSH3 0x561 JUMP JUMPDEST SWAP2 POP POP SWAP3 SWAP6 POP SWAP3 SWAP6 POP SWAP3 SWAP6 JUMP JUMPDEST PUSH32 0x4E487B7100000000000000000000000000000000000000000000000000000000 PUSH1 0x0 MSTORE PUSH1 0x12 PUSH1 0x4 MSTORE PUSH1 0x24 PUSH1 0x0 REVERT JUMPDEST PUSH32 0x4E487B7100000000000000000000000000000000000000000000000000000000 PUSH1 0x0 MSTORE PUSH1 0x11 PUSH1 0x4 MSTORE PUSH1 0x24 PUSH1 0x0 REVERT JUMPDEST PUSH1 0x0 PUSH3 0x6EE DUP3 PUSH3 0x44B JUMP JUMPDEST SWAP2 POP PUSH3 0x6FB DUP4 PUSH3 0x44B JUMP JUMPDEST SWAP3 POP DUP3 PUSH3 0x70E JUMPI PUSH3 0x70D PUSH3 0x683 JUMP JUMPDEST JUMPDEST PUSH1 0x1 PUSH1 0x0 SUB DUP4 EQ PUSH32 0xFFFFFFFFFFFFFFFFFFFFFFFFFFFFFFFFFFFFFFFFFFFFFFFFFFFFFFFFFF800000 DUP4 EQ AND ISZERO PUSH3 0x74A JUMPI PUSH3 0x749 PUSH3 0x6B2 JUMP JUMPDEST JUMPDEST DUP3 DUP3 SDIV SWAP1 POP SWAP3 SWAP2 POP POP JUMP JUMPDEST PUSH1 0x0 PUSH3 0x762 DUP3 PUSH3 0x44B JUMP JUMPDEST SWAP2 POP PUSH3 0x76F DUP4 PUSH3 0x44B JUMP JUMPDEST SWAP3 POP DUP3 PUSH3 0x7FFFFF DIV DUP3 GT PUSH1 0x0 DUP5 SGT PUSH1 0x0 DUP5 SGT AND AND ISZERO PUSH3 0x794 JUMPI PUSH3 0x793 PUSH3 0x6B2 JUMP JUMPDEST JUMPDEST DUP2 PUSH32 0xFFFFFFFFFFFFFFFFFFFFFFFFFFFFFFFFFFFFFFFFFFFFFFFFFFFFFFFFFF800000 SDIV DUP4 SLT PUSH1 0x0 DUP5 SLT PUSH1 0x0 DUP5 SGT AND AND ISZERO PUSH3 0x7D4 JUMPI PUSH3 0x7D3 PUSH3 0x6B2 JUMP JUMPDEST JUMPDEST DUP3 PUSH32 0xFFFFFFFFFFFFFFFFFFFFFFFFFFFFFFFFFFFFFFFFFFFFFFFFFFFFFFFFFF800000 SDIV DUP3 SLT PUSH1 0x0 DUP5 SGT PUSH1 0x0 DUP5 SLT AND AND ISZERO PUSH3 0x814 JUMPI PUSH3 0x813 PUSH3 0x6B2 JUMP JUMPDEST JUMPDEST DUP3 PUSH3 0x7FFFFF SDIV DUP3 SLT PUSH1 0x0 DUP5 SLT PUSH1 0x0 DUP5 SLT AND AND ISZERO PUSH3 0x837 JUMPI PUSH3 0x836 PUSH3 0x6B2 JUMP JUMPDEST JUMPDEST DUP3 DUP3 MUL SWAP1 POP SWAP3 SWAP2 POP POP JUMP JUMPDEST PUSH1 0x0 PUSH3 0x84F DUP3 PUSH3 0x44B JUMP JUMPDEST SWAP2 POP PUSH32 0xFFFFFFFFFFFFFFFFFFFFFFFFFFFFFFFFFFFFFFFFFFFFFFFFFFFFFFFFFF800000 DUP3 SUB PUSH3 0x884 JUMPI PUSH3 0x883 PUSH3 0x6B2 JUMP JUMPDEST JUMPDEST DUP2 PUSH1 0x0 SUB SWAP1 POP SWAP2 SWAP1 POP JUMP JUMPDEST PUSH1 0x0 PUSH3 0x89C DUP3 PUSH3 0x44B JUMP JUMPDEST SWAP2 POP PUSH3 0x8A9 DUP4 PUSH3 0x44B JUMP JUMPDEST SWAP3 POP DUP3 DUP3 SUB SWAP1 POP PUSH3 0x7FFFFF DUP2 SGT PUSH32 0xFFFFFFFFFFFFFFFFFFFFFFFFFFFFFFFFFFFFFFFFFFFFFFFFFFFFFFFFFF800000 DUP3 SLT OR ISZERO PUSH3 0x8EB JUMPI PUSH3 0x8EA PUSH3 0x6B2 JUMP JUMPDEST JUMPDEST SWAP3 SWAP2 POP POP JUMP JUMPDEST PUSH1 0x0 PUSH3 0x8FE DUP3 PUSH3 0x40B JUMP JUMPDEST SWAP2 POP PUSH3 0x90B DUP4 PUSH3 0x40B JUMP JUMPDEST SWAP3 POP DUP3 DUP3 ADD SWAP1 POP PUSH3 0xFFFFFF DUP2 GT ISZERO PUSH3 0x929 JUMPI PUSH3 0x928 PUSH3 0x6B2 JUMP JUMPDEST JUMPDEST SWAP3 SWAP2 POP POP JUMP JUMPDEST PUSH1 0x0 PUSH16 0xFFFFFFFFFFFFFFFFFFFFFFFFFFFFFFFF DUP3 AND SWAP1 POP SWAP2 SWAP1 POP JUMP JUMPDEST PUSH1 0x0 PUSH3 0x958 DUP3 PUSH3 0x92F JUMP JUMPDEST SWAP2 POP PUSH3 0x965 DUP4 PUSH3 0x92F JUMP JUMPDEST SWAP3 POP DUP3 PUSH3 0x978 JUMPI PUSH3 0x977 PUSH3 0x683 JUMP JUMPDEST JUMPDEST DUP3 DUP3 DIV SWAP1 POP SWAP3 SWAP2 POP POP JUMP JUMPDEST PUSH1 0x80 MLOAD PUSH1 0xA0 MLOAD PUSH1 0xC0 MLOAD PUSH1 0xE0 MLOAD PUSH2 0x100 MLOAD PUSH2 0xB385 PUSH3 0xA62 PUSH1 0x0 CODECOPY PUSH1 0x0 DUP2 DUP2 PUSH2 0x11D7 ADD MSTORE DUP2 DUP2 PUSH2 0x183F ADD MSTORE PUSH2 0x1876 ADD MSTORE PUSH1 0x0 DUP2 DUP2 PUSH2 0x1900 ADD MSTORE DUP2 DUP2 PUSH2 0x4213 ADD MSTORE DUP2 DUP2 PUSH2 0x45A1 ADD MSTORE PUSH2 0x4F01 ADD MSTORE PUSH1 0x0 DUP2 DUP2 PUSH2 0x6EA ADD MSTORE DUP2 DUP2 PUSH2 0xA50 ADD MSTORE DUP2 DUP2 PUSH2 0x18CB ADD MSTORE DUP2 DUP2 PUSH2 0x226F ADD MSTORE DUP2 DUP2 PUSH2 0x42BF ADD MSTORE PUSH2 0x4DCA ADD MSTORE PUSH1 0x0 DUP2 DUP2 PUSH2 0x794 ADD MSTORE DUP2 DUP2 PUSH2 0xC7D ADD MSTORE DUP2 DUP2 PUSH2 0x109B ADD MSTORE DUP2 DUP2 PUSH2 0x126F ADD MSTORE DUP2 DUP2 PUSH2 0x14F7 ADD MSTORE DUP2 DUP2 PUSH2 0x1798 ADD MSTORE DUP2 DUP2 PUSH2 0x1B67 ADD MSTORE DUP2 DUP2 PUSH2 0x1D41 ADD MSTORE DUP2 DUP2 PUSH2 0x2B06 ADD MSTORE DUP2 DUP2 PUSH2 0x3827 ADD MSTORE DUP2 DUP2 PUSH2 0x3A09 ADD MSTORE DUP2 DUP2 PUSH2 0x3D88 ADD MSTORE PUSH2 0x3F6A ADD MSTORE PUSH1 0x0 PUSH2 0x5056 ADD MSTORE PUSH2 0xB385 PUSH1 0x0 RETURN INVALID PUSH1 0x80 PUSH1 0x40 MSTORE CALLVALUE DUP1 ISZERO PUSH2 0x10 JUMPI PUSH1 0x0 DUP1 REVERT JUMPDEST POP PUSH1 0x4 CALLDATASIZE LT PUSH2 0x21C JUMPI PUSH1 0x0 CALLDATALOAD PUSH1 0xE0 SHR DUP1 PUSH4 0x80F55605 GT PUSH2 0x125 JUMPI DUP1 PUSH4 0x95F01F3F GT PUSH2 0xAD JUMPI DUP1 PUSH4 0xAFB62FEF GT PUSH2 0x7C JUMPI DUP1 PUSH4 0xAFB62FEF EQ PUSH2 0x64D JUMPI DUP1 PUSH4 0xB1592590 EQ PUSH2 0x66E JUMPI DUP1 PUSH4 0xB23AE19B EQ PUSH2 0x68C JUMPI DUP1 PUSH4 0xC55E90FE EQ PUSH2 0x6A8 JUMPI DUP1 PUSH4 0xF637731D EQ PUSH2 0x6C6 JUMPI PUSH2 0x21C JUMP JUMPDEST DUP1 PUSH4 0x95F01F3F EQ PUSH2 0x59B JUMPI DUP1 PUSH4 0xA34123A7 EQ PUSH2 0x5B9 JUMPI DUP1 PUSH4 0xA38807F2 EQ PUSH2 0x5EA JUMPI DUP1 PUSH4 0xA98B22C1 EQ PUSH2 0x61C JUMPI PUSH2 0x21C JUMP JUMPDEST DUP1 PUSH4 0x8CC2CE60 GT PUSH2 0xF4 JUMPI DUP1 PUSH4 0x8CC2CE60 EQ PUSH2 0x51B JUMPI DUP1 PUSH4 0x8D79DDCB EQ PUSH2 0x537 JUMPI DUP1 PUSH4 0x8F919198 EQ PUSH2 0x555 JUMPI DUP1 PUSH4 0x92C4545C EQ PUSH2 0x55F JUMPI DUP1 PUSH4 0x92CC393C EQ PUSH2 0x57D JUMPI PUSH2 0x21C JUMP JUMPDEST DUP1 PUSH4 0x80F55605 EQ PUSH2 0x478 JUMPI DUP1 PUSH4 0x883BDBFD EQ PUSH2 0x496 JUMPI DUP1 PUSH4 0x8860D1CD EQ PUSH2 0x4C7 JUMPI DUP1 PUSH4 0x8B2EA554 EQ PUSH2 0x4F7 JUMPI PUSH2 0x21C JUMP JUMPDEST DUP1 PUSH4 0x3C78BF59 GT PUSH2 0x1A8 JUMPI DUP1 PUSH4 0x66D16CC3 GT PUSH2 0x177 JUMPI DUP1 PUSH4 0x66D16CC3 EQ PUSH2 0x3F8 JUMPI DUP1 PUSH4 0x6805DEDE EQ PUSH2 0x416 JUMPI DUP1 PUSH4 0x6A0B2B23 EQ PUSH2 0x432 JUMPI DUP1 PUSH4 0x6ACA362D EQ PUSH2 0x450 JUMPI DUP1 PUSH4 0x6E62D0A8 EQ PUSH2 0x45A JUMPI PUSH2 0x21C JUMP JUMPDEST DUP1 PUSH4 0x3C78BF59 EQ PUSH2 0x36E JUMPI DUP1 PUSH4 0x3C8A7D8D EQ PUSH2 0x38A JUMPI DUP1 PUSH4 0x3D02A292 EQ PUSH2 0x3BB JUMPI DUP1 PUSH4 0x444D95B0 EQ PUSH2 0x3C5 JUMPI PUSH2 0x21C JUMP JUMPDEST DUP1 PUSH4 0x208537FF GT PUSH2 0x1EF JUMPI DUP1 PUSH4 0x208537FF EQ PUSH2 0x2AC JUMPI DUP1 PUSH4 0x2AD1BAAB EQ PUSH2 0x2B6 JUMPI DUP1 PUSH4 0x30D106B1 EQ PUSH2 0x2E9 JUMPI DUP1 PUSH4 0x317DFB06 EQ PUSH2 0x319 JUMPI DUP1 PUSH4 0x3659BB4E EQ PUSH2 0x34F JUMPI PUSH2 0x21C JUMP JUMPDEST DUP1 PUSH4 0x1B29351 EQ PUSH2 0x221 JUMPI DUP1 PUSH4 0x11DF9995 EQ PUSH2 0x23F JUMPI DUP1 PUSH4 0x166D6021 EQ PUSH2 0x25D JUMPI DUP1 PUSH4 0x1F0F4C29 EQ PUSH2 0x27B JUMPI JUMPDEST PUSH1 0x0 DUP1 REVERT JUMPDEST PUSH2 0x229 PUSH2 0x6E2 JUMP JUMPDEST PUSH1 0x40 MLOAD PUSH2 0x236 SWAP2 SWAP1 PUSH2 0x88B7 JUMP JUMPDEST PUSH1 0x40 MLOAD DUP1 SWAP2 SUB SWAP1 RETURN JUMPDEST PUSH2 0x247 PUSH2 0x6E8 JUMP JUMPDEST PUSH1 0x40 MLOAD PUSH2 0x254 SWAP2 SWAP1 PUSH2 0x8913 JUMP JUMPDEST PUSH1 0x40 MLOAD DUP1 SWAP2 SUB SWAP1 RETURN JUMPDEST PUSH2 0x265 PUSH2 0x70C JUMP JUMPDEST PUSH1 0x40 MLOAD PUSH2 0x272 SWAP2 SWAP1 PUSH2 0x8913 JUMP JUMPDEST PUSH1 0x40 MLOAD DUP1 SWAP2 SUB SWAP1 RETURN JUMPDEST PUSH2 0x295 PUSH1 0x4 DUP1 CALLDATASIZE SUB DUP2 ADD SWAP1 PUSH2 0x290 SWAP2 SWAP1 PUSH2 0x8964 JUMP JUMPDEST PUSH2 0x732 JUMP JUMPDEST PUSH1 0x40 MLOAD PUSH2 0x2A3 SWAP3 SWAP2 SWAP1 PUSH2 0x89BC JUMP JUMPDEST PUSH1 0x40 MLOAD DUP1 SWAP2 SUB SWAP1 RETURN JUMPDEST PUSH2 0x2B4 PUSH2 0x78E JUMP JUMPDEST STOP JUMPDEST PUSH2 0x2D0 PUSH1 0x4 DUP1 CALLDATASIZE SUB DUP2 ADD SWAP1 PUSH2 0x2CB SWAP2 SWAP1 PUSH2 0x8A11 JUMP JUMPDEST PUSH2 0x84A JUMP JUMPDEST PUSH1 0x40 MLOAD PUSH2 0x2E0 SWAP5 SWAP4 SWAP3 SWAP2 SWAP1 PUSH2 0x8AA3 JUMP JUMPDEST PUSH1 0x40 MLOAD DUP1 SWAP2 SUB SWAP1 RETURN JUMPDEST PUSH2 0x303 PUSH1 0x4 DUP1 CALLDATASIZE SUB DUP2 ADD SWAP1 PUSH2 0x2FE SWAP2 SWAP1 PUSH2 0x8B4D JUMP JUMPDEST PUSH2 0x8C8 JUMP JUMPDEST PUSH1 0x40 MLOAD PUSH2 0x310 SWAP2 SWAP1 PUSH2 0x8BB4 JUMP JUMPDEST PUSH1 0x40 MLOAD DUP1 SWAP2 SUB SWAP1 RETURN JUMPDEST PUSH2 0x333 PUSH1 0x4 DUP1 CALLDATASIZE SUB DUP2 ADD SWAP1 PUSH2 0x32E SWAP2 SWAP1 PUSH2 0x8BCF JUMP JUMPDEST PUSH2 0xB08 JUMP JUMPDEST PUSH1 0x40 MLOAD PUSH2 0x346 SWAP8 SWAP7 SWAP6 SWAP5 SWAP4 SWAP3 SWAP2 SWAP1 PUSH2 0x8C18 JUMP JUMPDEST PUSH1 0x40 MLOAD DUP1 SWAP2 SUB SWAP1 RETURN JUMPDEST PUSH2 0x357 PUSH2 0xBBD JUMP JUMPDEST PUSH1 0x40 MLOAD PUSH2 0x365 SWAP3 SWAP2 SWAP1 PUSH2 0x89BC JUMP JUMPDEST PUSH1 0x40 MLOAD DUP1 SWAP2 SUB SWAP1 RETURN JUMPDEST PUSH2 0x388 PUSH1 0x4 DUP1 CALLDATASIZE SUB DUP2 ADD SWAP1 PUSH2 0x383 SWAP2 SWAP1 PUSH2 0x8CC0 JUMP JUMPDEST PUSH2 0xC07 JUMP JUMPDEST STOP JUMPDEST PUSH2 0x3A4 PUSH1 0x4 DUP1 CALLDATASIZE SUB DUP2 ADD SWAP1 PUSH2 0x39F SWAP2 SWAP1 PUSH2 0x8D65 JUMP JUMPDEST PUSH2 0xE2D JUMP JUMPDEST PUSH1 0x40 MLOAD PUSH2 0x3B2 SWAP3 SWAP2 SWAP1 PUSH2 0x8DFF JUMP JUMPDEST PUSH1 0x40 MLOAD DUP1 SWAP2 SUB SWAP1 RETURN JUMPDEST PUSH2 0x3C3 PUSH2 0x1095 JUMP JUMPDEST STOP JUMPDEST PUSH2 0x3DF PUSH1 0x4 DUP1 CALLDATASIZE SUB DUP2 ADD SWAP1 PUSH2 0x3DA SWAP2 SWAP1 PUSH2 0x8E5E JUMP JUMPDEST PUSH2 0x1151 JUMP JUMPDEST PUSH1 0x40 MLOAD PUSH2 0x3EF SWAP5 SWAP4 SWAP3 SWAP2 SWAP1 PUSH2 0x8E8B JUMP JUMPDEST PUSH1 0x40 MLOAD DUP1 SWAP2 SUB SWAP1 RETURN JUMPDEST PUSH2 0x400 PUSH2 0x11D5 JUMP JUMPDEST PUSH1 0x40 MLOAD PUSH2 0x40D SWAP2 SWAP1 PUSH2 0x8EEE JUMP JUMPDEST PUSH1 0x40 MLOAD DUP1 SWAP2 SUB SWAP1 RETURN JUMPDEST PUSH2 0x430 PUSH1 0x4 DUP1 CALLDATASIZE SUB DUP2 ADD SWAP1 PUSH2 0x42B SWAP2 SWAP1 PUSH2 0x8F09 JUMP JUMPDEST PUSH2 0x11F9 JUMP JUMPDEST STOP JUMPDEST PUSH2 0x43A PUSH2 0x1449 JUMP JUMPDEST PUSH1 0x40 MLOAD PUSH2 0x447 SWAP2 SWAP1 PUSH2 0x8BB4 JUMP JUMPDEST PUSH1 0x40 MLOAD DUP1 SWAP2 SUB SWAP1 RETURN JUMPDEST PUSH2 0x458 PUSH2 0x146B JUMP JUMPDEST STOP JUMPDEST PUSH2 0x462 PUSH2 0x14E2 JUMP JUMPDEST PUSH1 0x40 MLOAD PUSH2 0x46F SWAP2 SWAP1 PUSH2 0x8F7F JUMP JUMPDEST PUSH1 0x40 MLOAD DUP1 SWAP2 SUB SWAP1 RETURN JUMPDEST PUSH2 0x480 PUSH2 0x14F5 JUMP JUMPDEST PUSH1 0x40 MLOAD PUSH2 0x48D SWAP2 SWAP1 PUSH2 0x8913 JUMP JUMPDEST PUSH1 0x40 MLOAD DUP1 SWAP2 SUB SWAP1 RETURN JUMPDEST PUSH2 0x4B0 PUSH1 0x4 DUP1 CALLDATASIZE SUB DUP2 ADD SWAP1 PUSH2 0x4AB SWAP2 SWAP1 PUSH2 0x8FF0 JUMP JUMPDEST PUSH2 0x1519 JUMP JUMPDEST PUSH1 0x40 MLOAD PUSH2 0x4BE SWAP3 SWAP2 SWAP1 PUSH2 0x91B9 JUMP JUMPDEST PUSH1 0x40 MLOAD DUP1 SWAP2 SUB SWAP1 RETURN JUMPDEST PUSH2 0x4E1 PUSH1 0x4 DUP1 CALLDATASIZE SUB DUP2 ADD SWAP1 PUSH2 0x4DC SWAP2 SWAP1 PUSH2 0x9229 JUMP JUMPDEST PUSH2 0x15EB JUMP JUMPDEST PUSH1 0x40 MLOAD PUSH2 0x4EE SWAP2 SWAP1 PUSH2 0x88B7 JUMP JUMPDEST PUSH1 0x40 MLOAD DUP1 SWAP2 SUB SWAP1 RETURN JUMPDEST PUSH2 0x4FF PUSH2 0x1603 JUMP JUMPDEST PUSH1 0x40 MLOAD PUSH2 0x512 SWAP8 SWAP7 SWAP6 SWAP5 SWAP4 SWAP3 SWAP2 SWAP1 PUSH2 0x9282 JUMP JUMPDEST PUSH1 0x40 MLOAD DUP1 SWAP2 SUB SWAP1 RETURN JUMPDEST PUSH2 0x535 PUSH1 0x4 DUP1 CALLDATASIZE SUB DUP2 ADD SWAP1 PUSH2 0x530 SWAP2 SWAP1 PUSH2 0x92F1 JUMP JUMPDEST PUSH2 0x16A4 JUMP JUMPDEST STOP JUMPDEST PUSH2 0x53F PUSH2 0x1FC0 JUMP JUMPDEST PUSH1 0x40 MLOAD PUSH2 0x54C SWAP2 SWAP1 PUSH2 0x8BB4 JUMP JUMPDEST PUSH1 0x40 MLOAD DUP1 SWAP2 SUB SWAP1 RETURN JUMPDEST PUSH2 0x55D PUSH2 0x1FE2 JUMP JUMPDEST STOP JUMPDEST PUSH2 0x567 PUSH2 0x2059 JUMP JUMPDEST PUSH1 0x40 MLOAD PUSH2 0x574 SWAP2 SWAP1 PUSH2 0x938B JUMP JUMPDEST PUSH1 0x40 MLOAD DUP1 SWAP2 SUB SWAP1 RETURN JUMPDEST PUSH2 0x585 PUSH2 0x206A JUMP JUMPDEST PUSH1 0x40 MLOAD PUSH2 0x592 SWAP2 SWAP1 PUSH2 0x93A6 JUMP JUMPDEST PUSH1 0x40 MLOAD DUP1 SWAP2 SUB SWAP1 RETURN JUMPDEST PUSH2 0x5A3 PUSH2 0x207D JUMP JUMPDEST PUSH1 0x40 MLOAD PUSH2 0x5B0 SWAP2 SWAP1 PUSH2 0x8BB4 JUMP JUMPDEST PUSH1 0x40 MLOAD DUP1 SWAP2 SUB SWAP1 RETURN JUMPDEST PUSH2 0x5D3 PUSH1 0x4 DUP1 CALLDATASIZE SUB DUP2 ADD SWAP1 PUSH2 0x5CE SWAP2 SWAP1 PUSH2 0x93C1 JUMP JUMPDEST PUSH2 0x232E JUMP JUMPDEST PUSH1 0x40 MLOAD PUSH2 0x5E1 SWAP3 SWAP2 SWAP1 PUSH2 0x8DFF JUMP JUMPDEST PUSH1 0x40 MLOAD DUP1 SWAP2 SUB SWAP1 RETURN JUMPDEST PUSH2 0x604 PUSH1 0x4 DUP1 CALLDATASIZE SUB DUP2 ADD SWAP1 PUSH2 0x5FF SWAP2 SWAP1 PUSH2 0x9414 JUMP JUMPDEST PUSH2 0x2581 JUMP JUMPDEST PUSH1 0x40 MLOAD PUSH2 0x613 SWAP4 SWAP3 SWAP2 SWAP1 PUSH2 0x9454 JUMP JUMPDEST PUSH1 0x40 MLOAD DUP1 SWAP2 SUB SWAP1 RETURN JUMPDEST PUSH2 0x636 PUSH1 0x4 DUP1 CALLDATASIZE SUB DUP2 ADD SWAP1 PUSH2 0x631 SWAP2 SWAP1 PUSH2 0x9519 JUMP JUMPDEST PUSH2 0x2938 JUMP JUMPDEST PUSH1 0x40 MLOAD PUSH2 0x644 SWAP3 SWAP2 SWAP1 PUSH2 0x95D7 JUMP JUMPDEST PUSH1 0x40 MLOAD DUP1 SWAP2 SUB SWAP1 RETURN JUMPDEST PUSH2 0x655 PUSH2 0x4404 JUMP JUMPDEST PUSH1 0x40 MLOAD PUSH2 0x665 SWAP5 SWAP4 SWAP3 SWAP2 SWAP1 PUSH2 0x9600 JUMP JUMPDEST PUSH1 0x40 MLOAD DUP1 SWAP2 SUB SWAP1 RETURN JUMPDEST PUSH2 0x676 PUSH2 0x4456 JUMP JUMPDEST PUSH1 0x40 MLOAD PUSH2 0x683 SWAP2 SWAP1 PUSH2 0x93A6 JUMP JUMPDEST PUSH1 0x40 MLOAD DUP1 SWAP2 SUB SWAP1 RETURN JUMPDEST PUSH2 0x6A6 PUSH1 0x4 DUP1 CALLDATASIZE SUB DUP2 ADD SWAP1 PUSH2 0x6A1 SWAP2 SWAP1 PUSH2 0x9671 JUMP JUMPDEST PUSH2 0x4469 JUMP JUMPDEST STOP JUMPDEST PUSH2 0x6B0 PUSH2 0x459F JUMP JUMPDEST PUSH1 0x40 MLOAD PUSH2 0x6BD SWAP2 SWAP1 PUSH2 0x8913 JUMP JUMPDEST PUSH1 0x40 MLOAD DUP1 SWAP2 SUB SWAP1 RETURN JUMPDEST PUSH2 0x6E0 PUSH1 0x4 DUP1 CALLDATASIZE SUB DUP2 ADD SWAP1 PUSH2 0x6DB SWAP2 SWAP1 PUSH2 0x969E JUMP JUMPDEST PUSH2 0x45C3 JUMP JUMPDEST STOP JUMPDEST PUSH1 0x5 SLOAD DUP2 JUMP JUMPDEST PUSH32 0x0 DUP2 JUMP JUMPDEST PUSH1 0x2 PUSH1 0x0 SWAP1 SLOAD SWAP1 PUSH2 0x100 EXP SWAP1 DIV PUSH20 0xFFFFFFFFFFFFFFFFFFFFFFFFFFFFFFFFFFFFFFFF AND DUP2 JUMP JUMPDEST PUSH1 0x3 PUSH1 0x20 MSTORE DUP1 PUSH1 0x0 MSTORE PUSH1 0x40 PUSH1 0x0 KECCAK256 PUSH1 0x0 SWAP2 POP SWAP1 POP DUP1 PUSH1 0x0 ADD PUSH1 0x0 SWAP1 SLOAD SWAP1 PUSH2 0x100 EXP SWAP1 DIV PUSH16 0xFFFFFFFFFFFFFFFFFFFFFFFFFFFFFFFF AND SWAP1 DUP1 PUSH1 0x0 ADD PUSH1 0x10 SWAP1 SLOAD SWAP1 PUSH2 0x100 EXP SWAP1 DIV PUSH16 0xFFFFFFFFFFFFFFFFFFFFFFFFFFFFFFFF AND SWAP1 POP DUP3 JUMP JUMPDEST PUSH1 0x1 ISZERO ISZERO PUSH32 0x0 PUSH20 0xFFFFFFFFFFFFFFFFFFFFFFFFFFFFFFFFFFFFFFFF AND PUSH4 0xAD87D2BA PUSH1 0x40 MLOAD DUP2 PUSH4 0xFFFFFFFF AND PUSH1 0xE0 SHL DUP2 MSTORE PUSH1 0x4 ADD PUSH1 0x20 PUSH1 0x40 MLOAD DUP1 DUP4 SUB DUP2 DUP7 GAS STATICCALL ISZERO DUP1 ISZERO PUSH2 0x7FD JUMPI RETURNDATASIZE PUSH1 0x0 DUP1 RETURNDATACOPY RETURNDATASIZE PUSH1 0x0 REVERT JUMPDEST POP POP POP POP PUSH1 0x40 MLOAD RETURNDATASIZE PUSH1 0x1F NOT PUSH1 0x1F DUP3 ADD AND DUP3 ADD DUP1 PUSH1 0x40 MSTORE POP DUP2 ADD SWAP1 PUSH2 0x821 SWAP2 SWAP1 PUSH2 0x96E0 JUMP JUMPDEST ISZERO ISZERO EQ PUSH2 0x82D JUMPI PUSH1 0x0 DUP1 REVERT JUMPDEST PUSH1 0x1 PUSH1 0x2 PUSH1 0x15 PUSH2 0x100 EXP DUP2 SLOAD DUP2 PUSH1 0xFF MUL NOT AND SWAP1 DUP4 ISZERO ISZERO MUL OR SWAP1 SSTORE POP JUMP JUMPDEST PUSH1 0xB DUP2 PUSH2 0xFFFF DUP2 LT PUSH2 0x85B JUMPI PUSH1 0x0 DUP1 REVERT JUMPDEST ADD PUSH1 0x0 SWAP2 POP SWAP1 POP DUP1 PUSH1 0x0 ADD PUSH1 0x0 SWAP1 SLOAD SWAP1 PUSH2 0x100 EXP SWAP1 DIV PUSH4 0xFFFFFFFF AND SWAP1 DUP1 PUSH1 0x0 ADD PUSH1 0x4 SWAP1 SLOAD SWAP1 PUSH2 0x100 EXP SWAP1 DIV PUSH1 0x6 SIGNEXTEND SWAP1 DUP1 PUSH1 0x0 ADD PUSH1 0xB SWAP1 SLOAD SWAP1 PUSH2 0x100 EXP SWAP1 DIV PUSH20 0xFFFFFFFFFFFFFFFFFFFFFFFFFFFFFFFFFFFFFFFF AND SWAP1 DUP1 PUSH1 0x0 ADD PUSH1 0x1F SWAP1 SLOAD SWAP1 PUSH2 0x100 EXP SWAP1 DIV PUSH1 0xFF AND SWAP1 POP DUP5 JUMP JUMPDEST PUSH1 0x0 PUSH1 0x4 PUSH1 0x0 ADD PUSH1 0x1E SWAP1 SLOAD SWAP1 PUSH2 0x100 EXP SWAP1 DIV PUSH1 0xFF AND PUSH2 0x91C JUMPI PUSH1 0x40 MLOAD PUSH32 0x8C379A000000000000000000000000000000000000000000000000000000000 DUP2 MSTORE PUSH1 0x4 ADD PUSH2 0x913 SWAP1 PUSH2 0x976A JUMP JUMPDEST PUSH1 0x40 MLOAD DUP1 SWAP2 SUB SWAP1 REVERT JUMPDEST PUSH1 0x0 PUSH1 0x4 PUSH1 0x0 ADD PUSH1 0x1E PUSH2 0x100 EXP DUP2 SLOAD DUP2 PUSH1 0xFF MUL NOT AND SWAP1 DUP4 ISZERO ISZERO MUL OR SWAP1 SSTORE POP PUSH1 0x0 PUSH2 0x954 CALLER DUP7 DUP7 PUSH1 0xA PUSH2 0x48FF SWAP1 SWAP4 SWAP3 SWAP2 SWAP1 PUSH4 0xFFFFFFFF AND JUMP JUMPDEST SWAP1 POP DUP1 PUSH1 0x2 ADD PUSH1 0x0 SWAP1 SLOAD SWAP1 PUSH2 0x100 EXP SWAP1 DIV PUSH16 0xFFFFFFFFFFFFFFFFFFFFFFFFFFFFFFFF AND PUSH16 0xFFFFFFFFFFFFFFFFFFFFFFFFFFFFFFFF AND DUP4 PUSH16 0xFFFFFFFFFFFFFFFFFFFFFFFFFFFFFFFF AND GT PUSH2 0x9A7 JUMPI DUP3 PUSH2 0x9C9 JUMP JUMPDEST DUP1 PUSH1 0x2 ADD PUSH1 0x0 SWAP1 SLOAD SWAP1 PUSH2 0x100 EXP SWAP1 DIV PUSH16 0xFFFFFFFFFFFFFFFFFFFFFFFFFFFFFFFF AND JUMPDEST SWAP2 POP PUSH1 0x0 DUP3 PUSH16 0xFFFFFFFFFFFFFFFFFFFFFFFFFFFFFFFF AND GT ISZERO PUSH2 0xA89 JUMPI DUP2 DUP2 PUSH1 0x2 ADD PUSH1 0x0 DUP3 DUP3 DUP3 SWAP1 SLOAD SWAP1 PUSH2 0x100 EXP SWAP1 DIV PUSH16 0xFFFFFFFFFFFFFFFFFFFFFFFFFFFFFFFF AND PUSH2 0xA15 SWAP2 SWAP1 PUSH2 0x97B9 JUMP JUMPDEST SWAP3 POP PUSH2 0x100 EXP DUP2 SLOAD DUP2 PUSH16 0xFFFFFFFFFFFFFFFFFFFFFFFFFFFFFFFF MUL NOT AND SWAP1 DUP4 PUSH16 0xFFFFFFFFFFFFFFFFFFFFFFFFFFFFFFFF AND MUL OR SWAP1 SSTORE POP PUSH2 0xA88 PUSH32 0x0 DUP8 DUP5 PUSH16 0xFFFFFFFFFFFFFFFFFFFFFFFFFFFFFFFF AND PUSH2 0x4947 JUMP JUMPDEST JUMPDEST DUP4 PUSH1 0x2 SIGNEXTEND DUP6 PUSH1 0x2 SIGNEXTEND CALLER PUSH20 0xFFFFFFFFFFFFFFFFFFFFFFFFFFFFFFFFFFFFFFFF AND PUSH32 0xA19C7A8ED44ABD7383CF211A618FB3A575AD3512C4DAA705626F46A285AAA6C6 DUP10 DUP7 PUSH1 0x40 MLOAD PUSH2 0xAD9 SWAP3 SWAP2 SWAP1 PUSH2 0x97FD JUMP JUMPDEST PUSH1 0x40 MLOAD DUP1 SWAP2 SUB SWAP1 LOG4 POP PUSH1 0x1 PUSH1 0x4 PUSH1 0x0 ADD PUSH1 0x1E PUSH2 0x100 EXP DUP2 SLOAD DUP2 PUSH1 0xFF MUL NOT AND SWAP1 DUP4 ISZERO ISZERO MUL OR SWAP1 SSTORE POP SWAP5 SWAP4 POP POP POP POP JUMP JUMPDEST PUSH1 0x8 PUSH1 0x20 MSTORE DUP1 PUSH1 0x0 MSTORE PUSH1 0x40 PUSH1 0x0 KECCAK256 PUSH1 0x0 SWAP2 POP SWAP1 POP DUP1 PUSH1 0x0 ADD PUSH1 0x0 SWAP1 SLOAD SWAP1 PUSH2 0x100 EXP SWAP1 DIV PUSH16 0xFFFFFFFFFFFFFFFFFFFFFFFFFFFFFFFF AND SWAP1 DUP1 PUSH1 0x0 ADD PUSH1 0x10 SWAP1 SLOAD SWAP1 PUSH2 0x100 EXP SWAP1 DIV PUSH1 0xF SIGNEXTEND SWAP1 DUP1 PUSH1 0x1 ADD SLOAD SWAP1 DUP1 PUSH1 0x2 ADD PUSH1 0x0 SWAP1 SLOAD SWAP1 PUSH2 0x100 EXP SWAP1 DIV PUSH1 0x6 SIGNEXTEND SWAP1 DUP1 PUSH1 0x2 ADD PUSH1 0x7 SWAP1 SLOAD SWAP1 PUSH2 0x100 EXP SWAP1 DIV PUSH20 0xFFFFFFFFFFFFFFFFFFFFFFFFFFFFFFFFFFFFFFFF AND SWAP1 DUP1 PUSH1 0x2 ADD PUSH1 0x1B SWAP1 SLOAD SWAP1 PUSH2 0x100 EXP SWAP1 DIV PUSH4 0xFFFFFFFF AND SWAP1 DUP1 PUSH1 0x2 ADD PUSH1 0x1F SWAP1 SLOAD SWAP1 PUSH2 0x100 EXP SWAP1 DIV PUSH1 0xFF AND SWAP1 POP DUP8 JUMP JUMPDEST PUSH1 0x6 DUP1 PUSH1 0x0 ADD PUSH1 0x0 SWAP1 SLOAD SWAP1 PUSH2 0x100 EXP SWAP1 DIV PUSH16 0xFFFFFFFFFFFFFFFFFFFFFFFFFFFFFFFF AND SWAP1 DUP1 PUSH1 0x0 ADD PUSH1 0x10 SWAP1 SLOAD SWAP1 PUSH2 0x100 EXP SWAP1 DIV PUSH16 0xFFFFFFFFFFFFFFFFFFFFFFFFFFFFFFFF AND SWAP1 POP DUP3 JUMP JUMPDEST PUSH1 0x4 PUSH1 0x0 ADD PUSH1 0x1E SWAP1 SLOAD SWAP1 PUSH2 0x100 EXP SWAP1 DIV PUSH1 0xFF AND PUSH2 0xC59 JUMPI PUSH1 0x40 MLOAD PUSH32 0x8C379A000000000000000000000000000000000000000000000000000000000 DUP2 MSTORE PUSH1 0x4 ADD PUSH2 0xC50 SWAP1 PUSH2 0x976A JUMP JUMPDEST PUSH1 0x40 MLOAD DUP1 SWAP2 SUB SWAP1 REVERT JUMPDEST PUSH1 0x0 PUSH1 0x4 PUSH1 0x0 ADD PUSH1 0x1E PUSH2 0x100 EXP DUP2 SLOAD DUP2 PUSH1 0xFF MUL NOT AND SWAP1 DUP4 ISZERO ISZERO MUL OR SWAP1 SSTORE POP PUSH1 0x1 ISZERO ISZERO PUSH32 0x0 PUSH20 0xFFFFFFFFFFFFFFFFFFFFFFFFFFFFFFFFFFFFFFFF AND PUSH4 0xAD87D2BA PUSH1 0x40 MLOAD DUP2 PUSH4 0xFFFFFFFF AND PUSH1 0xE0 SHL DUP2 MSTORE PUSH1 0x4 ADD PUSH1 0x20 PUSH1 0x40 MLOAD DUP1 DUP4 SUB DUP2 DUP7 GAS STATICCALL ISZERO DUP1 ISZERO PUSH2 0xCE6 JUMPI RETURNDATASIZE PUSH1 0x0 DUP1 RETURNDATACOPY RETURNDATASIZE PUSH1 0x0 REVERT JUMPDEST POP POP POP POP PUSH1 0x40 MLOAD RETURNDATASIZE PUSH1 0x1F NOT PUSH1 0x1F DUP3 ADD AND DUP3 ADD DUP1 PUSH1 0x40 MSTORE POP DUP2 ADD SWAP1 PUSH2 0xD0A SWAP2 SWAP1 PUSH2 0x96E0 JUMP JUMPDEST ISZERO ISZERO EQ PUSH2 0xD16 JUMPI PUSH1 0x0 DUP1 REVERT JUMPDEST PUSH1 0x0 DUP3 PUSH1 0xFF AND EQ DUP1 PUSH2 0xD3C JUMPI POP PUSH1 0x2 DUP3 PUSH1 0xFF AND LT ISZERO DUP1 ISZERO PUSH2 0xD3B JUMPI POP PUSH1 0xA DUP3 PUSH1 0xFF AND GT ISZERO JUMPDEST JUMPDEST DUP1 ISZERO PUSH2 0xD6A JUMPI POP PUSH1 0x0 DUP2 PUSH1 0xFF AND EQ DUP1 PUSH2 0xD69 JUMPI POP PUSH1 0x2 DUP2 PUSH1 0xFF AND LT ISZERO DUP1 ISZERO PUSH2 0xD68 JUMPI POP PUSH1 0xA DUP2 PUSH1 0xFF AND GT ISZERO JUMPDEST JUMPDEST JUMPDEST PUSH2 0xD73 JUMPI PUSH1 0x0 DUP1 REVERT JUMPDEST PUSH1 0x0 PUSH1 0x4 PUSH1 0x0 ADD PUSH1 0x1D SWAP1 SLOAD SWAP1 PUSH2 0x100 EXP SWAP1 DIV PUSH1 0xFF AND SWAP1 POP PUSH1 0x4 DUP3 PUSH1 0xFF AND SWAP1 SHL DUP4 PUSH2 0xD9D SWAP2 SWAP1 PUSH2 0x9826 JUMP JUMPDEST PUSH1 0x4 PUSH1 0x0 ADD PUSH1 0x1D PUSH2 0x100 EXP DUP2 SLOAD DUP2 PUSH1 0xFF MUL NOT AND SWAP1 DUP4 PUSH1 0xFF AND MUL OR SWAP1 SSTORE POP PUSH32 0x973D8D92BB299F4AF6CE49B52A8ADB85AE46B9F214C4C4FC06AC77401237B133 PUSH1 0x10 DUP3 PUSH2 0xDE8 SWAP2 SWAP1 PUSH2 0x988A JUMP JUMPDEST PUSH1 0x4 DUP4 PUSH1 0xFF AND SWAP1 SHR DUP6 DUP6 PUSH1 0x40 MLOAD PUSH2 0xE02 SWAP5 SWAP4 SWAP3 SWAP2 SWAP1 PUSH2 0x9600 JUMP JUMPDEST PUSH1 0x40 MLOAD DUP1 SWAP2 SUB SWAP1 LOG1 POP PUSH1 0x1 PUSH1 0x4 PUSH1 0x0 ADD PUSH1 0x1E PUSH2 0x100 EXP DUP2 SLOAD DUP2 PUSH1 0xFF MUL NOT AND SWAP1 DUP4 ISZERO ISZERO MUL OR SWAP1 SSTORE POP POP POP JUMP JUMPDEST PUSH1 0x0 DUP1 PUSH1 0x4 PUSH1 0x0 ADD PUSH1 0x1E SWAP1 SLOAD SWAP1 PUSH2 0x100 EXP SWAP1 DIV PUSH1 0xFF AND PUSH2 0xE82 JUMPI PUSH1 0x40 MLOAD PUSH32 0x8C379A000000000000000000000000000000000000000000000000000000000 DUP2 MSTORE PUSH1 0x4 ADD PUSH2 0xE79 SWAP1 PUSH2 0x976A JUMP JUMPDEST PUSH1 0x40 MLOAD DUP1 SWAP2 SUB SWAP1 REVERT JUMPDEST PUSH1 0x0 PUSH1 0x4 PUSH1 0x0 ADD PUSH1 0x1E PUSH2 0x100 EXP DUP2 SLOAD DUP2 PUSH1 0xFF MUL NOT AND SWAP1 DUP4 ISZERO ISZERO MUL OR SWAP1 SSTORE POP PUSH1 0x0 DUP6 PUSH16 0xFFFFFFFFFFFFFFFFFFFFFFFFFFFFFFFF AND GT PUSH2 0xEBF JUMPI PUSH1 0x0 DUP1 REVERT JUMPDEST PUSH1 0x0 DUP1 PUSH2 0xF0A PUSH1 0x40 MLOAD DUP1 PUSH1 0x80 ADD PUSH1 0x40 MSTORE DUP1 DUP13 PUSH20 0xFFFFFFFFFFFFFFFFFFFFFFFFFFFFFFFFFFFFFFFF AND DUP2 MSTORE PUSH1 0x20 ADD DUP12 PUSH1 0x2 SIGNEXTEND DUP2 MSTORE PUSH1 0x20 ADD DUP11 PUSH1 0x2 SIGNEXTEND DUP2 MSTORE PUSH1 0x20 ADD DUP10 PUSH1 0xF SIGNEXTEND DUP2 MSTORE POP PUSH2 0x4A9C JUMP JUMPDEST SWAP3 POP SWAP3 POP POP DUP2 SWAP4 POP DUP1 SWAP3 POP PUSH1 0x0 DUP1 PUSH1 0x0 DUP7 GT ISZERO PUSH2 0xF2C JUMPI PUSH2 0xF29 PUSH2 0x4DC3 JUMP JUMPDEST SWAP2 POP JUMPDEST PUSH1 0x0 DUP6 GT ISZERO PUSH2 0xF40 JUMPI PUSH2 0xF3D PUSH2 0x4EFA JUMP JUMPDEST SWAP1 POP JUMPDEST PUSH1 0x0 DUP7 GT ISZERO PUSH2 0xFA6 JUMPI PUSH2 0xF51 PUSH2 0x4DC3 JUMP JUMPDEST PUSH2 0xF64 DUP8 DUP5 PUSH2 0x5031 SWAP1 SWAP2 SWAP1 PUSH4 0xFFFFFFFF AND JUMP JUMPDEST GT ISZERO PUSH2 0xFA5 JUMPI PUSH1 0x40 MLOAD PUSH32 0x8C379A000000000000000000000000000000000000000000000000000000000 DUP2 MSTORE PUSH1 0x4 ADD PUSH2 0xF9C SWAP1 PUSH2 0x9907 JUMP JUMPDEST PUSH1 0x40 MLOAD DUP1 SWAP2 SUB SWAP1 REVERT JUMPDEST JUMPDEST PUSH1 0x0 DUP6 GT ISZERO PUSH2 0x100C JUMPI PUSH2 0xFB7 PUSH2 0x4EFA JUMP JUMPDEST PUSH2 0xFCA DUP7 DUP4 PUSH2 0x5031 SWAP1 SWAP2 SWAP1 PUSH4 0xFFFFFFFF AND JUMP JUMPDEST GT ISZERO PUSH2 0x100B JUMPI PUSH1 0x40 MLOAD PUSH32 0x8C379A000000000000000000000000000000000000000000000000000000000 DUP2 MSTORE PUSH1 0x4 ADD PUSH2 0x1002 SWAP1 PUSH2 0x9973 JUMP JUMPDEST PUSH1 0x40 MLOAD DUP1 SWAP2 SUB SWAP1 REVERT JUMPDEST JUMPDEST DUP10 PUSH1 0x2 SIGNEXTEND DUP12 PUSH1 0x2 SIGNEXTEND DUP14 PUSH20 0xFFFFFFFFFFFFFFFFFFFFFFFFFFFFFFFFFFFFFFFF AND PUSH32 0x7A53080BA414158BE7EC69B987B5FB7D07DEE101FE85488F0853AE16239D0BDE CALLER DUP14 DUP12 DUP12 PUSH1 0x40 MLOAD PUSH2 0x1060 SWAP5 SWAP4 SWAP3 SWAP2 SWAP1 PUSH2 0x9993 JUMP JUMPDEST PUSH1 0x40 MLOAD DUP1 SWAP2 SUB SWAP1 LOG4 POP POP POP POP PUSH1 0x1 PUSH1 0x4 PUSH1 0x0 ADD PUSH1 0x1E PUSH2 0x100 EXP DUP2 SLOAD DUP2 PUSH1 0xFF MUL NOT AND SWAP1 DUP4 ISZERO ISZERO MUL OR SWAP1 SSTORE POP SWAP7 POP SWAP7 SWAP5 POP POP POP POP POP JUMP JUMPDEST PUSH1 0x1 ISZERO ISZERO PUSH32 0x0 PUSH20 0xFFFFFFFFFFFFFFFFFFFFFFFFFFFFFFFFFFFFFFFF AND PUSH4 0xAD87D2BA PUSH1 0x40 MLOAD DUP2 PUSH4 0xFFFFFFFF AND PUSH1 0xE0 SHL DUP2 MSTORE PUSH1 0x4 ADD PUSH1 0x20 PUSH1 0x40 MLOAD DUP1 DUP4 SUB DUP2 DUP7 GAS STATICCALL ISZERO DUP1 ISZERO PUSH2 0x1104 JUMPI RETURNDATASIZE PUSH1 0x0 DUP1 RETURNDATACOPY RETURNDATASIZE PUSH1 0x0 REVERT JUMPDEST POP POP POP POP PUSH1 0x40 MLOAD RETURNDATASIZE PUSH1 0x1F NOT PUSH1 0x1F DUP3 ADD AND DUP3 ADD DUP1 PUSH1 0x40 MSTORE POP DUP2 ADD SWAP1 PUSH2 0x1128 SWAP2 SWAP1 PUSH2 0x96E0 JUMP JUMPDEST ISZERO ISZERO EQ PUSH2 0x1134 JUMPI PUSH1 0x0 DUP1 REVERT JUMPDEST PUSH1 0x0 PUSH1 0x2 PUSH1 0x15 PUSH2 0x100 EXP DUP2 SLOAD DUP2 PUSH1 0xFF MUL NOT AND SWAP1 DUP4 ISZERO ISZERO MUL OR SWAP1 SSTORE POP JUMP JUMPDEST PUSH1 0xA PUSH1 0x20 MSTORE DUP1 PUSH1 0x0 MSTORE PUSH1 0x40 PUSH1 0x0 KECCAK256 PUSH1 0x0 SWAP2 POP SWAP1 POP DUP1 PUSH1 0x0 ADD PUSH1 0x0 SWAP1 SLOAD SWAP1 PUSH2 0x100 EXP SWAP1 DIV PUSH16 0xFFFFFFFFFFFFFFFFFFFFFFFFFFFFFFFF AND SWAP1 DUP1 PUSH1 0x1 ADD SLOAD SWAP1 DUP1 PUSH1 0x2 ADD PUSH1 0x0 SWAP1 SLOAD SWAP1 PUSH2 0x100 EXP SWAP1 DIV PUSH16 0xFFFFFFFFFFFFFFFFFFFFFFFFFFFFFFFF AND SWAP1 DUP1 PUSH1 0x2 ADD PUSH1 0x10 SWAP1 SLOAD SWAP1 PUSH2 0x100 EXP SWAP1 DIV PUSH16 0xFFFFFFFFFFFFFFFFFFFFFFFFFFFFFFFF AND SWAP1 POP DUP5 JUMP JUMPDEST PUSH32 0x0 DUP2 JUMP JUMPDEST PUSH1 0x4 PUSH1 0x0 ADD PUSH1 0x1E SWAP1 SLOAD SWAP1 PUSH2 0x100 EXP SWAP1 DIV PUSH1 0xFF AND PUSH2 0x124B JUMPI PUSH1 0x40 MLOAD PUSH32 0x8C379A000000000000000000000000000000000000000000000000000000000 DUP2 MSTORE PUSH1 0x4 ADD PUSH2 0x1242 SWAP1 PUSH2 0x976A JUMP JUMPDEST PUSH1 0x40 MLOAD DUP1 SWAP2 SUB SWAP1 REVERT JUMPDEST PUSH1 0x0 PUSH1 0x4 PUSH1 0x0 ADD PUSH1 0x1E PUSH2 0x100 EXP DUP2 SLOAD DUP2 PUSH1 0xFF MUL NOT AND SWAP1 DUP4 ISZERO ISZERO MUL OR SWAP1 SSTORE POP PUSH1 0x1 ISZERO ISZERO PUSH32 0x0 PUSH20 0xFFFFFFFFFFFFFFFFFFFFFFFFFFFFFFFFFFFFFFFF AND PUSH4 0xAD87D2BA PUSH1 0x40 MLOAD DUP2 PUSH4 0xFFFFFFFF AND PUSH1 0xE0 SHL DUP2 MSTORE PUSH1 0x4 ADD PUSH1 0x20 PUSH1 0x40 MLOAD DUP1 DUP4 SUB DUP2 DUP7 GAS STATICCALL ISZERO DUP1 ISZERO PUSH2 0x12D8 JUMPI RETURNDATASIZE PUSH1 0x0 DUP1 RETURNDATACOPY RETURNDATASIZE PUSH1 0x0 REVERT JUMPDEST POP POP POP POP PUSH1 0x40 MLOAD RETURNDATASIZE PUSH1 0x1F NOT PUSH1 0x1F DUP3 ADD AND DUP3 ADD DUP1 PUSH1 0x40 MSTORE POP DUP2 ADD SWAP1 PUSH2 0x12FC SWAP2 SWAP1 PUSH2 0x96E0 JUMP JUMPDEST ISZERO ISZERO EQ PUSH2 0x1308 JUMPI PUSH1 0x0 DUP1 REVERT JUMPDEST PUSH1 0x64 DUP2 DUP4 DUP6 DUP8 PUSH2 0x1318 SWAP2 SWAP1 PUSH2 0x9826 JUMP JUMPDEST PUSH2 0x1322 SWAP2 SWAP1 PUSH2 0x9826 JUMP JUMPDEST PUSH2 0x132C SWAP2 SWAP1 PUSH2 0x9826 JUMP JUMPDEST PUSH1 0xFF AND EQ PUSH2 0x136F JUMPI PUSH1 0x40 MLOAD PUSH32 0x8C379A000000000000000000000000000000000000000000000000000000000 DUP2 MSTORE PUSH1 0x4 ADD PUSH2 0x1366 SWAP1 PUSH2 0x9A24 JUMP JUMPDEST PUSH1 0x40 MLOAD DUP1 SWAP2 SUB SWAP1 REVERT JUMPDEST PUSH1 0x40 MLOAD DUP1 PUSH1 0x80 ADD PUSH1 0x40 MSTORE DUP1 DUP6 PUSH1 0xFF AND DUP2 MSTORE PUSH1 0x20 ADD DUP5 PUSH1 0xFF AND DUP2 MSTORE PUSH1 0x20 ADD DUP4 PUSH1 0xFF AND DUP2 MSTORE PUSH1 0x20 ADD DUP3 PUSH1 0xFF AND DUP2 MSTORE POP PUSH1 0x1 PUSH1 0x0 DUP3 ADD MLOAD DUP2 PUSH1 0x0 ADD PUSH1 0x0 PUSH2 0x100 EXP DUP2 SLOAD DUP2 PUSH1 0xFF MUL NOT AND SWAP1 DUP4 PUSH1 0xFF AND MUL OR SWAP1 SSTORE POP PUSH1 0x20 DUP3 ADD MLOAD DUP2 PUSH1 0x0 ADD PUSH1 0x1 PUSH2 0x100 EXP DUP2 SLOAD DUP2 PUSH1 0xFF MUL NOT AND SWAP1 DUP4 PUSH1 0xFF AND MUL OR SWAP1 SSTORE POP PUSH1 0x40 DUP3 ADD MLOAD DUP2 PUSH1 0x0 ADD PUSH1 0x2 PUSH2 0x100 EXP DUP2 SLOAD DUP2 PUSH1 0xFF MUL NOT AND SWAP1 DUP4 PUSH1 0xFF AND MUL OR SWAP1 SSTORE POP PUSH1 0x60 DUP3 ADD MLOAD DUP2 PUSH1 0x0 ADD PUSH1 0x3 PUSH2 0x100 EXP DUP2 SLOAD DUP2 PUSH1 0xFF MUL NOT AND SWAP1 DUP4 PUSH1 0xFF AND MUL OR SWAP1 SSTORE POP SWAP1 POP POP PUSH1 0x1 PUSH1 0x4 PUSH1 0x0 ADD PUSH1 0x1E PUSH2 0x100 EXP DUP2 SLOAD DUP2 PUSH1 0xFF MUL NOT AND SWAP1 DUP4 ISZERO ISZERO MUL OR SWAP1 SSTORE POP POP POP POP POP JUMP JUMPDEST PUSH1 0x7 PUSH1 0x0 SWAP1 SLOAD SWAP1 PUSH2 0x100 EXP SWAP1 DIV PUSH16 0xFFFFFFFFFFFFFFFFFFFFFFFFFFFFFFFF AND DUP2 JUMP JUMPDEST PUSH1 0x2 PUSH1 0x0 SWAP1 SLOAD SWAP1 PUSH2 0x100 EXP SWAP1 DIV PUSH20 0xFFFFFFFFFFFFFFFFFFFFFFFFFFFFFFFFFFFFFFFF AND PUSH20 0xFFFFFFFFFFFFFFFFFFFFFFFFFFFFFFFFFFFFFFFF AND CALLER PUSH20 0xFFFFFFFFFFFFFFFFFFFFFFFFFFFFFFFFFFFFFFFF AND EQ PUSH2 0x14C5 JUMPI PUSH1 0x0 DUP1 REVERT JUMPDEST PUSH1 0x0 PUSH1 0x2 PUSH1 0x16 PUSH2 0x100 EXP DUP2 SLOAD DUP2 PUSH1 0xFF MUL NOT AND SWAP1 DUP4 ISZERO ISZERO MUL OR SWAP1 SSTORE POP JUMP JUMPDEST PUSH1 0x2 PUSH1 0x14 SWAP1 SLOAD SWAP1 PUSH2 0x100 EXP SWAP1 DIV PUSH1 0xFF AND DUP2 JUMP JUMPDEST PUSH32 0x0 DUP2 JUMP JUMPDEST PUSH1 0x60 DUP1 PUSH2 0x1524 PUSH2 0x5054 JUMP JUMPDEST PUSH2 0x15E0 PUSH2 0x152F PUSH2 0x50AE JUMP JUMPDEST DUP6 DUP6 DUP1 DUP1 PUSH1 0x20 MUL PUSH1 0x20 ADD PUSH1 0x40 MLOAD SWAP1 DUP2 ADD PUSH1 0x40 MSTORE DUP1 SWAP4 SWAP3 SWAP2 SWAP1 DUP2 DUP2 MSTORE PUSH1 0x20 ADD DUP4 DUP4 PUSH1 0x20 MUL DUP1 DUP3 DUP5 CALLDATACOPY PUSH1 0x0 DUP2 DUP5 ADD MSTORE PUSH1 0x1F NOT PUSH1 0x1F DUP3 ADD AND SWAP1 POP DUP1 DUP4 ADD SWAP3 POP POP POP POP POP POP POP PUSH1 0x4 PUSH1 0x0 ADD PUSH1 0x14 SWAP1 SLOAD SWAP1 PUSH2 0x100 EXP SWAP1 DIV PUSH1 0x2 SIGNEXTEND PUSH1 0x4 PUSH1 0x0 ADD PUSH1 0x17 SWAP1 SLOAD SWAP1 PUSH2 0x100 EXP SWAP1 DIV PUSH2 0xFFFF AND PUSH1 0x7 PUSH1 0x0 SWAP1 SLOAD SWAP1 PUSH2 0x100 EXP SWAP1 DIV PUSH16 0xFFFFFFFFFFFFFFFFFFFFFFFFFFFFFFFF AND PUSH1 0x4 PUSH1 0x0 ADD PUSH1 0x19 SWAP1 SLOAD SWAP1 PUSH2 0x100 EXP SWAP1 DIV PUSH2 0xFFFF AND PUSH1 0xB PUSH2 0x50B6 SWAP1 SWAP7 SWAP6 SWAP5 SWAP4 SWAP3 SWAP2 SWAP1 PUSH4 0xFFFFFFFF AND JUMP JUMPDEST SWAP2 POP SWAP2 POP SWAP3 POP SWAP3 SWAP1 POP JUMP JUMPDEST PUSH1 0x9 PUSH1 0x20 MSTORE DUP1 PUSH1 0x0 MSTORE PUSH1 0x40 PUSH1 0x0 KECCAK256 PUSH1 0x0 SWAP2 POP SWAP1 POP SLOAD DUP2 JUMP JUMPDEST PUSH1 0x4 DUP1 PUSH1 0x0 ADD PUSH1 0x0 SWAP1 SLOAD SWAP1 PUSH2 0x100 EXP SWAP1 DIV PUSH20 0xFFFFFFFFFFFFFFFFFFFFFFFFFFFFFFFFFFFFFFFF AND SWAP1 DUP1 PUSH1 0x0 ADD PUSH1 0x14 SWAP1 SLOAD SWAP1 PUSH2 0x100 EXP SWAP1 DIV PUSH1 0x2 SIGNEXTEND SWAP1 DUP1 PUSH1 0x0 ADD PUSH1 0x17 SWAP1 SLOAD SWAP1 PUSH2 0x100 EXP SWAP1 DIV PUSH2 0xFFFF AND SWAP1 DUP1 PUSH1 0x0 ADD PUSH1 0x19 SWAP1 SLOAD SWAP1 PUSH2 0x100 EXP SWAP1 DIV PUSH2 0xFFFF AND SWAP1 DUP1 PUSH1 0x0 ADD PUSH1 0x1B SWAP1 SLOAD SWAP1 PUSH2 0x100 EXP SWAP1 DIV PUSH2 0xFFFF AND SWAP1 DUP1 PUSH1 0x0 ADD PUSH1 0x1D SWAP1 SLOAD SWAP1 PUSH2 0x100 EXP SWAP1 DIV PUSH1 0xFF AND SWAP1 DUP1 PUSH1 0x0 ADD PUSH1 0x1E SWAP1 SLOAD SWAP1 PUSH2 0x100 EXP SWAP1 DIV PUSH1 0xFF AND SWAP1 POP DUP8 JUMP JUMPDEST PUSH1 0x4 PUSH1 0x0 ADD PUSH1 0x1E SWAP1 SLOAD SWAP1 PUSH2 0x100 EXP SWAP1 DIV PUSH1 0xFF AND PUSH2 0x16F6 JUMPI PUSH1 0x40 MLOAD PUSH32 0x8C379A000000000000000000000000000000000000000000000000000000000 DUP2 MSTORE PUSH1 0x4 ADD PUSH2 0x16ED SWAP1 PUSH2 0x976A JUMP JUMPDEST PUSH1 0x40 MLOAD DUP1 SWAP2 SUB SWAP1 REVERT JUMPDEST PUSH1 0x0 PUSH1 0x4 PUSH1 0x0 ADD PUSH1 0x1E PUSH2 0x100 EXP DUP2 SLOAD DUP2 PUSH1 0xFF MUL NOT AND SWAP1 DUP4 ISZERO ISZERO MUL OR SWAP1 SSTORE POP PUSH2 0x171C PUSH2 0x5054 JUMP JUMPDEST PUSH1 0x0 PUSH1 0x7 PUSH1 0x0 SWAP1 SLOAD SWAP1 PUSH2 0x100 EXP SWAP1 DIV PUSH16 0xFFFFFFFFFFFFFFFFFFFFFFFFFFFFFFFF AND SWAP1 POP PUSH1 0x0 DUP2 PUSH16 0xFFFFFFFFFFFFFFFFFFFFFFFFFFFFFFFF AND GT PUSH2 0x1794 JUMPI PUSH1 0x40 MLOAD PUSH32 0x8C379A000000000000000000000000000000000000000000000000000000000 DUP2 MSTORE PUSH1 0x4 ADD PUSH2 0x178B SWAP1 PUSH2 0x9A90 JUMP JUMPDEST PUSH1 0x40 MLOAD DUP1 SWAP2 SUB SWAP1 REVERT JUMPDEST PUSH1 0x0 PUSH32 0x0 PUSH20 0xFFFFFFFFFFFFFFFFFFFFFFFFFFFFFFFFFFFFFFFF AND PUSH4 0xE71957B9 CALLER PUSH1 0x40 MLOAD DUP3 PUSH4 0xFFFFFFFF AND PUSH1 0xE0 SHL DUP2 MSTORE PUSH1 0x4 ADD PUSH2 0x17EF SWAP2 SWAP1 PUSH2 0x8913 JUMP JUMPDEST PUSH1 0x20 PUSH1 0x40 MLOAD DUP1 DUP4 SUB DUP2 DUP7 GAS STATICCALL ISZERO DUP1 ISZERO PUSH2 0x180C JUMPI RETURNDATASIZE PUSH1 0x0 DUP1 RETURNDATACOPY RETURNDATASIZE PUSH1 0x0 REVERT JUMPDEST POP POP POP POP PUSH1 0x40 MLOAD RETURNDATASIZE PUSH1 0x1F NOT PUSH1 0x1F DUP3 ADD AND DUP3 ADD DUP1 PUSH1 0x40 MSTORE POP DUP2 ADD SWAP1 PUSH2 0x1830 SWAP2 SWAP1 PUSH2 0x9AC5 JUMP JUMPDEST SWAP1 POP PUSH1 0x0 DUP8 SWAP1 POP PUSH1 0x0 PUSH2 0x186C DUP9 PUSH32 0x0 PUSH3 0xFFFFFF AND PUSH3 0xF4240 PUSH2 0x525D JUMP JUMPDEST SWAP1 POP PUSH1 0x0 PUSH2 0x18A3 DUP9 PUSH32 0x0 PUSH3 0xFFFFFF AND PUSH3 0xF4240 PUSH2 0x525D JUMP JUMPDEST SWAP1 POP PUSH1 0x0 PUSH2 0x18AF PUSH2 0x4DC3 JUMP JUMPDEST SWAP1 POP PUSH1 0x0 PUSH2 0x18BB PUSH2 0x4EFA JUMP JUMPDEST SWAP1 POP PUSH1 0x0 DUP12 GT ISZERO PUSH2 0x18F2 JUMPI PUSH2 0x18F1 PUSH32 0x0 DUP15 DUP14 PUSH2 0x4947 JUMP JUMPDEST JUMPDEST PUSH1 0x0 DUP11 GT ISZERO PUSH2 0x1927 JUMPI PUSH2 0x1926 PUSH32 0x0 DUP15 DUP13 PUSH2 0x4947 JUMP JUMPDEST JUMPDEST PUSH1 0x0 PUSH2 0x1931 PUSH2 0x4DC3 JUMP JUMPDEST SWAP1 POP PUSH1 0x0 PUSH2 0x193D PUSH2 0x4EFA JUMP JUMPDEST SWAP1 POP DUP2 PUSH2 0x1953 DUP8 DUP7 PUSH2 0x5031 SWAP1 SWAP2 SWAP1 PUSH4 0xFFFFFFFF AND JUMP JUMPDEST GT ISZERO PUSH2 0x1994 JUMPI PUSH1 0x40 MLOAD PUSH32 0x8C379A000000000000000000000000000000000000000000000000000000000 DUP2 MSTORE PUSH1 0x4 ADD PUSH2 0x198B SWAP1 PUSH2 0x9B3E JUMP JUMPDEST PUSH1 0x40 MLOAD DUP1 SWAP2 SUB SWAP1 REVERT JUMPDEST DUP1 PUSH2 0x19A8 DUP7 DUP6 PUSH2 0x5031 SWAP1 SWAP2 SWAP1 PUSH4 0xFFFFFFFF AND JUMP JUMPDEST GT ISZERO PUSH2 0x19E9 JUMPI PUSH1 0x40 MLOAD PUSH32 0x8C379A000000000000000000000000000000000000000000000000000000000 DUP2 MSTORE PUSH1 0x4 ADD PUSH2 0x19E0 SWAP1 PUSH2 0x9BAA JUMP JUMPDEST PUSH1 0x40 MLOAD DUP1 SWAP2 SUB SWAP1 REVERT JUMPDEST PUSH1 0x0 DUP5 DUP4 PUSH2 0x19F7 SWAP2 SWAP1 PUSH2 0x9BCA JUMP JUMPDEST SWAP1 POP PUSH1 0x0 DUP2 GT ISZERO PUSH2 0x1F90 JUMPI PUSH1 0x0 PUSH1 0x10 PUSH1 0x4 PUSH1 0x0 ADD PUSH1 0x1D SWAP1 SLOAD SWAP1 PUSH2 0x100 EXP SWAP1 DIV PUSH1 0xFF AND PUSH2 0x1A23 SWAP2 SWAP1 PUSH2 0x988A JUMP JUMPDEST SWAP1 POP PUSH1 0x0 DUP1 DUP3 PUSH1 0xFF AND EQ PUSH2 0x1A45 JUMPI DUP2 PUSH1 0xFF AND DUP4 PUSH2 0x1A40 SWAP2 SWAP1 PUSH2 0x9BFE JUMP JUMPDEST PUSH2 0x1A48 JUMP JUMPDEST PUSH1 0x0 JUMPDEST SWAP1 POP PUSH1 0x0 DUP2 PUSH16 0xFFFFFFFFFFFFFFFFFFFFFFFFFFFFFFFF AND GT ISZERO PUSH2 0x1F8D JUMPI PUSH1 0x1 PUSH1 0x0 ADD PUSH1 0x1 SWAP1 SLOAD SWAP1 PUSH2 0x100 EXP SWAP1 DIV PUSH1 0xFF AND PUSH1 0xFF AND PUSH1 0x64 DUP3 PUSH2 0x1A88 SWAP2 SWAP1 PUSH2 0x9BFE JUMP JUMPDEST PUSH2 0x1A92 SWAP2 SWAP1 PUSH2 0x9C2F JUMP JUMPDEST PUSH1 0x3 PUSH1 0x0 DUP13 PUSH20 0xFFFFFFFFFFFFFFFFFFFFFFFFFFFFFFFFFFFFFFFF AND PUSH20 0xFFFFFFFFFFFFFFFFFFFFFFFFFFFFFFFFFFFFFFFF AND DUP2 MSTORE PUSH1 0x20 ADD SWAP1 DUP2 MSTORE PUSH1 0x20 ADD PUSH1 0x0 KECCAK256 PUSH1 0x0 ADD PUSH1 0x0 DUP3 DUP3 DUP3 SWAP1 SLOAD SWAP1 PUSH2 0x100 EXP SWAP1 DIV PUSH16 0xFFFFFFFFFFFFFFFFFFFFFFFFFFFFFFFF AND PUSH2 0x1AFE SWAP2 SWAP1 PUSH2 0x9C89 JUMP JUMPDEST SWAP3 POP PUSH2 0x100 EXP DUP2 SLOAD DUP2 PUSH16 0xFFFFFFFFFFFFFFFFFFFFFFFFFFFFFFFF MUL NOT AND SWAP1 DUP4 PUSH16 0xFFFFFFFFFFFFFFFFFFFFFFFFFFFFFFFF AND MUL OR SWAP1 SSTORE POP PUSH1 0x1 PUSH1 0x0 ADD PUSH1 0x0 SWAP1 SLOAD SWAP1 PUSH2 0x100 EXP SWAP1 DIV PUSH1 0xFF AND PUSH1 0xFF AND PUSH1 0x64 DUP3 PUSH2 0x1B57 SWAP2 SWAP1 PUSH2 0x9BFE JUMP JUMPDEST PUSH2 0x1B61 SWAP2 SWAP1 PUSH2 0x9C2F JUMP JUMPDEST PUSH1 0x3 PUSH1 0x0 PUSH32 0x0 PUSH20 0xFFFFFFFFFFFFFFFFFFFFFFFFFFFFFFFFFFFFFFFF AND PUSH20 0xFFFFFFFFFFFFFFFFFFFFFFFFFFFFFFFFFFFFFFFF AND DUP2 MSTORE PUSH1 0x20 ADD SWAP1 DUP2 MSTORE PUSH1 0x20 ADD PUSH1 0x0 KECCAK256 PUSH1 0x0 ADD PUSH1 0x0 DUP3 DUP3 DUP3 SWAP1 SLOAD SWAP1 PUSH2 0x100 EXP SWAP1 DIV PUSH16 0xFFFFFFFFFFFFFFFFFFFFFFFFFFFFFFFF AND PUSH2 0x1BED SWAP2 SWAP1 PUSH2 0x9C89 JUMP JUMPDEST SWAP3 POP PUSH2 0x100 EXP DUP2 SLOAD DUP2 PUSH16 0xFFFFFFFFFFFFFFFFFFFFFFFFFFFFFFFF MUL NOT AND SWAP1 DUP4 PUSH16 0xFFFFFFFFFFFFFFFFFFFFFFFFFFFFFFFF AND MUL OR SWAP1 SSTORE POP PUSH1 0x0 PUSH20 0xFFFFFFFFFFFFFFFFFFFFFFFFFFFFFFFFFFFFFFFF AND DUP12 PUSH20 0xFFFFFFFFFFFFFFFFFFFFFFFFFFFFFFFFFFFFFFFF AND EQ PUSH2 0x1E02 JUMPI PUSH1 0x1 PUSH1 0x0 ADD PUSH1 0x2 SWAP1 SLOAD SWAP1 PUSH2 0x100 EXP SWAP1 DIV PUSH1 0xFF AND PUSH1 0xFF AND DUP2 PUSH2 0x1C78 SWAP2 SWAP1 PUSH2 0x9C2F JUMP JUMPDEST PUSH1 0x3 PUSH1 0x0 DUP14 PUSH20 0xFFFFFFFFFFFFFFFFFFFFFFFFFFFFFFFFFFFFFFFF AND PUSH20 0xFFFFFFFFFFFFFFFFFFFFFFFFFFFFFFFFFFFFFFFF AND DUP2 MSTORE PUSH1 0x20 ADD SWAP1 DUP2 MSTORE PUSH1 0x20 ADD PUSH1 0x0 KECCAK256 PUSH1 0x0 ADD PUSH1 0x0 DUP3 DUP3 DUP3 SWAP1 SLOAD SWAP1 PUSH2 0x100 EXP SWAP1 DIV PUSH16 0xFFFFFFFFFFFFFFFFFFFFFFFFFFFFFFFF AND PUSH2 0x1CE4 SWAP2 SWAP1 PUSH2 0x9C89 JUMP JUMPDEST SWAP3 POP PUSH2 0x100 EXP DUP2 SLOAD DUP2 PUSH16 0xFFFFFFFFFFFFFFFFFFFFFFFFFFFFFFFF MUL NOT AND SWAP1 DUP4 PUSH16 0xFFFFFFFFFFFFFFFFFFFFFFFFFFFFFFFF AND MUL OR SWAP1 SSTORE POP PUSH1 0x1 PUSH1 0x0 ADD PUSH1 0x3 SWAP1 SLOAD SWAP1 PUSH2 0x100 EXP SWAP1 DIV PUSH1 0xFF AND PUSH1 0xFF AND DUP2 PUSH2 0x1D3B SWAP2 SWAP1 PUSH2 0x9C2F JUMP JUMPDEST PUSH1 0x3 PUSH1 0x0 PUSH32 0x0 PUSH20 0xFFFFFFFFFFFFFFFFFFFFFFFFFFFFFFFFFFFFFFFF AND PUSH20 0xFFFFFFFFFFFFFFFFFFFFFFFFFFFFFFFFFFFFFFFF AND DUP2 MSTORE PUSH1 0x20 ADD SWAP1 DUP2 MSTORE PUSH1 0x20 ADD PUSH1 0x0 KECCAK256 PUSH1 0x0 ADD PUSH1 0x0 DUP3 DUP3 DUP3 SWAP1 SLOAD SWAP1 PUSH2 0x100 EXP SWAP1 DIV PUSH16 0xFFFFFFFFFFFFFFFFFFFFFFFFFFFFFFFF AND PUSH2 0x1DC7 SWAP2 SWAP1 PUSH2 0x9C89 JUMP JUMPDEST SWAP3 POP PUSH2 0x100 EXP DUP2 SLOAD DUP2 PUSH16 0xFFFFFFFFFFFFFFFFFFFFFFFFFFFFFFFF MUL NOT AND SWAP1 DUP4 PUSH16 0xFFFFFFFFFFFFFFFFFFFFFFFFFFFFFFFF AND MUL OR SWAP1 SSTORE POP PUSH2 0x1F8C JUMP JUMPDEST PUSH1 0x1 PUSH1 0x0 ADD PUSH1 0x2 SWAP1 SLOAD SWAP1 PUSH2 0x100 EXP SWAP1 DIV PUSH1 0xFF AND PUSH1 0xFF AND DUP2 PUSH2 0x1E23 SWAP2 SWAP1 PUSH2 0x9C2F JUMP JUMPDEST PUSH1 0x3 PUSH1 0x0 DUP13 PUSH20 0xFFFFFFFFFFFFFFFFFFFFFFFFFFFFFFFFFFFFFFFF AND PUSH20 0xFFFFFFFFFFFFFFFFFFFFFFFFFFFFFFFFFFFFFFFF AND DUP2 MSTORE PUSH1 0x20 ADD SWAP1 DUP2 MSTORE PUSH1 0x20 ADD PUSH1 0x0 KECCAK256 PUSH1 0x0 ADD PUSH1 0x0 DUP3 DUP3 DUP3 SWAP1 SLOAD SWAP1 PUSH2 0x100 EXP SWAP1 DIV PUSH16 0xFFFFFFFFFFFFFFFFFFFFFFFFFFFFFFFF AND PUSH2 0x1E8F SWAP2 SWAP1 PUSH2 0x9C89 JUMP JUMPDEST SWAP3 POP PUSH2 0x100 EXP DUP2 SLOAD DUP2 PUSH16 0xFFFFFFFFFFFFFFFFFFFFFFFFFFFFFFFF MUL NOT AND SWAP1 DUP4 PUSH16 0xFFFFFFFFFFFFFFFFFFFFFFFFFFFFFFFF AND MUL OR SWAP1 SSTORE POP PUSH1 0x1 PUSH1 0x0 ADD PUSH1 0x3 SWAP1 SLOAD SWAP1 PUSH2 0x100 EXP SWAP1 DIV PUSH1 0xFF AND PUSH1 0xFF AND DUP2 PUSH2 0x1EE6 SWAP2 SWAP1 PUSH2 0x9C2F JUMP JUMPDEST PUSH1 0xFF AND PUSH1 0x3 PUSH1 0x0 CALLER PUSH20 0xFFFFFFFFFFFFFFFFFFFFFFFFFFFFFFFFFFFFFFFF AND PUSH20 0xFFFFFFFFFFFFFFFFFFFFFFFFFFFFFFFFFFFFFFFF AND DUP2 MSTORE PUSH1 0x20 ADD SWAP1 DUP2 MSTORE PUSH1 0x20 ADD PUSH1 0x0 KECCAK256 PUSH1 0x0 ADD PUSH1 0x0 DUP3 DUP3 DUP3 SWAP1 SLOAD SWAP1 PUSH2 0x100 EXP SWAP1 DIV PUSH16 0xFFFFFFFFFFFFFFFFFFFFFFFFFFFFFFFF AND PUSH2 0x1F55 SWAP2 SWAP1 PUSH2 0x9C89 JUMP JUMPDEST SWAP3 POP PUSH2 0x100 EXP DUP2 SLOAD DUP2 PUSH16 0xFFFFFFFFFFFFFFFFFFFFFFFFFFFFFFFF MUL NOT AND SWAP1 DUP4 PUSH16 0xFFFFFFFFFFFFFFFFFFFFFFFFFFFFFFFF AND MUL OR SWAP1 SSTORE POP JUMPDEST JUMPDEST POP POP JUMPDEST POP POP POP POP POP POP POP POP POP POP PUSH1 0x1 PUSH1 0x4 PUSH1 0x0 ADD PUSH1 0x1E PUSH2 0x100 EXP DUP2 SLOAD DUP2 PUSH1 0xFF MUL NOT AND SWAP1 DUP4 ISZERO ISZERO MUL OR SWAP1 SSTORE POP POP POP POP POP POP POP JUMP JUMPDEST PUSH1 0x0 PUSH1 0x3 SWAP1 SLOAD SWAP1 PUSH2 0x100 EXP SWAP1 DIV PUSH16 0xFFFFFFFFFFFFFFFFFFFFFFFFFFFFFFFF AND DUP2 JUMP JUMPDEST PUSH1 0x2 PUSH1 0x0 SWAP1 SLOAD SWAP1 PUSH2 0x100 EXP SWAP1 DIV PUSH20 0xFFFFFFFFFFFFFFFFFFFFFFFFFFFFFFFFFFFFFFFF AND PUSH20 0xFFFFFFFFFFFFFFFFFFFFFFFFFFFFFFFFFFFFFFFF AND CALLER PUSH20 0xFFFFFFFFFFFFFFFFFFFFFFFFFFFFFFFFFFFFFFFF AND EQ PUSH2 0x203C JUMPI PUSH1 0x0 DUP1 REVERT JUMPDEST PUSH1 0x1 PUSH1 0x2 PUSH1 0x16 PUSH2 0x100 EXP DUP2 SLOAD DUP2 PUSH1 0xFF MUL NOT AND SWAP1 DUP4 ISZERO ISZERO MUL OR SWAP1 SSTORE POP JUMP JUMPDEST PUSH1 0x0 DUP1 SLOAD SWAP1 PUSH2 0x100 EXP SWAP1 DIV PUSH1 0x2 SIGNEXTEND DUP2 JUMP JUMPDEST PUSH1 0x2 PUSH1 0x16 SWAP1 SLOAD SWAP1 PUSH2 0x100 EXP SWAP1 DIV PUSH1 0xFF AND DUP2 JUMP JUMPDEST PUSH1 0x0 PUSH1 0x4 PUSH1 0x0 ADD PUSH1 0x1E SWAP1 SLOAD SWAP1 PUSH2 0x100 EXP SWAP1 DIV PUSH1 0xFF AND PUSH2 0x20D1 JUMPI PUSH1 0x40 MLOAD PUSH32 0x8C379A000000000000000000000000000000000000000000000000000000000 DUP2 MSTORE PUSH1 0x4 ADD PUSH2 0x20C8 SWAP1 PUSH2 0x976A JUMP JUMPDEST PUSH1 0x40 MLOAD DUP1 SWAP2 SUB SWAP1 REVERT JUMPDEST PUSH1 0x0 PUSH1 0x4 PUSH1 0x0 ADD PUSH1 0x1E PUSH2 0x100 EXP DUP2 SLOAD DUP2 PUSH1 0xFF MUL NOT AND SWAP1 DUP4 ISZERO ISZERO MUL OR SWAP1 SSTORE POP PUSH1 0x3 PUSH1 0x0 CALLER PUSH20 0xFFFFFFFFFFFFFFFFFFFFFFFFFFFFFFFFFFFFFFFF AND PUSH20 0xFFFFFFFFFFFFFFFFFFFFFFFFFFFFFFFFFFFFFFFF AND DUP2 MSTORE PUSH1 0x20 ADD SWAP1 DUP2 MSTORE PUSH1 0x20 ADD PUSH1 0x0 KECCAK256 PUSH1 0x0 ADD PUSH1 0x0 SWAP1 SLOAD SWAP1 PUSH2 0x100 EXP SWAP1 DIV PUSH16 0xFFFFFFFFFFFFFFFFFFFFFFFFFFFFFFFF AND SWAP1 POP PUSH1 0x0 DUP2 PUSH16 0xFFFFFFFFFFFFFFFFFFFFFFFFFFFFFFFF AND GT ISZERO PUSH2 0x22A8 JUMPI PUSH1 0x6 PUSH1 0x0 ADD PUSH1 0x0 SWAP1 SLOAD SWAP1 PUSH2 0x100 EXP SWAP1 DIV PUSH16 0xFFFFFFFFFFFFFFFFFFFFFFFFFFFFFFFF AND PUSH16 0xFFFFFFFFFFFFFFFFFFFFFFFFFFFFFFFF AND DUP2 PUSH16 0xFFFFFFFFFFFFFFFFFFFFFFFFFFFFFFFF AND SUB PUSH2 0x21C7 JUMPI PUSH1 0x1 DUP2 PUSH2 0x21C4 SWAP2 SWAP1 PUSH2 0x97B9 JUMP JUMPDEST SWAP1 POP JUMPDEST DUP1 PUSH1 0x3 PUSH1 0x0 CALLER PUSH20 0xFFFFFFFFFFFFFFFFFFFFFFFFFFFFFFFFFFFFFFFF AND PUSH20 0xFFFFFFFFFFFFFFFFFFFFFFFFFFFFFFFFFFFFFFFF AND DUP2 MSTORE PUSH1 0x20 ADD SWAP1 DUP2 MSTORE PUSH1 0x20 ADD PUSH1 0x0 KECCAK256 PUSH1 0x0 ADD PUSH1 0x0 DUP3 DUP3 DUP3 SWAP1 SLOAD SWAP1 PUSH2 0x100 EXP SWAP1 DIV PUSH16 0xFFFFFFFFFFFFFFFFFFFFFFFFFFFFFFFF AND PUSH2 0x2234 SWAP2 SWAP1 PUSH2 0x97B9 JUMP JUMPDEST SWAP3 POP PUSH2 0x100 EXP DUP2 SLOAD DUP2 PUSH16 0xFFFFFFFFFFFFFFFFFFFFFFFFFFFFFFFF MUL NOT AND SWAP1 DUP4 PUSH16 0xFFFFFFFFFFFFFFFFFFFFFFFFFFFFFFFF AND MUL OR SWAP1 SSTORE POP PUSH2 0x22A7 PUSH32 0x0 CALLER DUP4 PUSH16 0xFFFFFFFFFFFFFFFFFFFFFFFFFFFFFFFF AND PUSH2 0x4947 JUMP JUMPDEST JUMPDEST CALLER PUSH20 0xFFFFFFFFFFFFFFFFFFFFFFFFFFFFFFFFFFFFFFFF AND CALLER PUSH20 0xFFFFFFFFFFFFFFFFFFFFFFFFFFFFFFFFFFFFFFFF AND PUSH32 0xACC66DB1C93F0528449DC419537D2CF345829E5B082CC3BCE3D73E204C1EC4EC DUP4 PUSH1 0x40 MLOAD PUSH2 0x2305 SWAP2 SWAP1 PUSH2 0x8BB4 JUMP JUMPDEST PUSH1 0x40 MLOAD DUP1 SWAP2 SUB SWAP1 LOG3 PUSH1 0x1 PUSH1 0x4 PUSH1 0x0 ADD PUSH1 0x1E PUSH2 0x100 EXP DUP2 SLOAD DUP2 PUSH1 0xFF MUL NOT AND SWAP1 DUP4 ISZERO ISZERO MUL OR SWAP1 SSTORE POP SWAP1 JUMP JUMPDEST PUSH1 0x0 DUP1 PUSH1 0x4 PUSH1 0x0 ADD PUSH1 0x1E SWAP1 SLOAD SWAP1 PUSH2 0x100 EXP SWAP1 DIV PUSH1 0xFF AND PUSH2 0x2383 JUMPI PUSH1 0x40 MLOAD PUSH32 0x8C379A000000000000000000000000000000000000000000000000000000000 DUP2 MSTORE PUSH1 0x4 ADD PUSH2 0x237A SWAP1 PUSH2 0x976A JUMP JUMPDEST PUSH1 0x40 MLOAD DUP1 SWAP2 SUB SWAP1 REVERT JUMPDEST PUSH1 0x0 PUSH1 0x4 PUSH1 0x0 ADD PUSH1 0x1E PUSH2 0x100 EXP DUP2 SLOAD DUP2 PUSH1 0xFF MUL NOT AND SWAP1 DUP4 ISZERO ISZERO MUL OR SWAP1 SSTORE POP PUSH1 0x0 DUP1 PUSH1 0x0 PUSH2 0x23F7 PUSH1 0x40 MLOAD DUP1 PUSH1 0x80 ADD PUSH1 0x40 MSTORE DUP1 CALLER PUSH20 0xFFFFFFFFFFFFFFFFFFFFFFFFFFFFFFFFFFFFFFFF AND DUP2 MSTORE PUSH1 0x20 ADD DUP11 PUSH1 0x2 SIGNEXTEND DUP2 MSTORE PUSH1 0x20 ADD DUP10 PUSH1 0x2 SIGNEXTEND DUP2 MSTORE PUSH1 0x20 ADD DUP9 PUSH2 0x23EC SWAP1 PUSH2 0x9CCD JUMP JUMPDEST PUSH1 0xF SIGNEXTEND DUP2 MSTORE POP PUSH2 0x4A9C JUMP JUMPDEST SWAP3 POP SWAP3 POP SWAP3 POP DUP2 PUSH2 0x2407 SWAP1 PUSH2 0x9D15 JUMP JUMPDEST SWAP5 POP DUP1 PUSH2 0x2413 SWAP1 PUSH2 0x9D15 JUMP JUMPDEST SWAP4 POP PUSH1 0x0 DUP6 GT DUP1 PUSH2 0x2424 JUMPI POP PUSH1 0x0 DUP5 GT JUMPDEST ISZERO PUSH2 0x24FE JUMPI DUP5 DUP4 PUSH1 0x2 ADD PUSH1 0x0 SWAP1 SLOAD SWAP1 PUSH2 0x100 EXP SWAP1 DIV PUSH16 0xFFFFFFFFFFFFFFFFFFFFFFFFFFFFFFFF AND PUSH2 0x2455 SWAP2 SWAP1 PUSH2 0x9C89 JUMP JUMPDEST DUP5 DUP5 PUSH1 0x2 ADD PUSH1 0x10 SWAP1 SLOAD SWAP1 PUSH2 0x100 EXP SWAP1 DIV PUSH16 0xFFFFFFFFFFFFFFFFFFFFFFFFFFFFFFFF AND PUSH2 0x2481 SWAP2 SWAP1 PUSH2 0x9C89 JUMP JUMPDEST DUP5 PUSH1 0x2 ADD PUSH1 0x0 DUP7 PUSH1 0x2 ADD PUSH1 0x10 DUP5 SWAP2 SWAP1 PUSH2 0x100 EXP DUP2 SLOAD DUP2 PUSH16 0xFFFFFFFFFFFFFFFFFFFFFFFFFFFFFFFF MUL NOT AND SWAP1 DUP4 PUSH16 0xFFFFFFFFFFFFFFFFFFFFFFFFFFFFFFFF AND MUL OR SWAP1 SSTORE POP DUP4 SWAP2 SWAP1 PUSH2 0x100 EXP DUP2 SLOAD DUP2 PUSH16 0xFFFFFFFFFFFFFFFFFFFFFFFFFFFFFFFF MUL NOT AND SWAP1 DUP4 PUSH16 0xFFFFFFFFFFFFFFFFFFFFFFFFFFFFFFFF AND MUL OR SWAP1 SSTORE POP POP POP JUMPDEST DUP7 PUSH1 0x2 SIGNEXTEND DUP9 PUSH1 0x2 SIGNEXTEND CALLER PUSH20 0xFFFFFFFFFFFFFFFFFFFFFFFFFFFFFFFFFFFFFFFF AND PUSH32 0xC396CD989A39F4459B5FA1AED6A9A8DCDBC45908ACFD67E028CD568DA98982C DUP10 DUP10 DUP10 PUSH1 0x40 MLOAD PUSH2 0x2550 SWAP4 SWAP3 SWAP2 SWAP1 PUSH2 0x9D5D JUMP JUMPDEST PUSH1 0x40 MLOAD DUP1 SWAP2 SUB SWAP1 LOG4 POP POP POP PUSH1 0x1 PUSH1 0x4 PUSH1 0x0 ADD PUSH1 0x1E PUSH2 0x100 EXP DUP2 SLOAD DUP2 PUSH1 0xFF MUL NOT AND SWAP1 DUP4 ISZERO ISZERO MUL OR SWAP1 SSTORE POP SWAP4 POP SWAP4 SWAP2 POP POP JUMP JUMPDEST PUSH1 0x0 DUP1 PUSH1 0x0 PUSH2 0x258E PUSH2 0x5054 JUMP JUMPDEST PUSH2 0x2598 DUP6 DUP6 PUSH2 0x52C8 JUMP JUMPDEST PUSH1 0x0 DUP1 PUSH1 0x0 DUP1 PUSH1 0x0 DUP1 PUSH1 0x0 PUSH1 0x8 PUSH1 0x0 DUP14 PUSH1 0x2 SIGNEXTEND PUSH1 0x2 SIGNEXTEND DUP2 MSTORE PUSH1 0x20 ADD SWAP1 DUP2 MSTORE PUSH1 0x20 ADD PUSH1 0x0 KECCAK256 SWAP1 POP PUSH1 0x0 PUSH1 0x8 PUSH1 0x0 DUP14 PUSH1 0x2 SIGNEXTEND PUSH1 0x2 SIGNEXTEND DUP2 MSTORE PUSH1 0x20 ADD SWAP1 DUP2 MSTORE PUSH1 0x20 ADD PUSH1 0x0 KECCAK256 SWAP1 POP PUSH1 0x0 DUP3 PUSH1 0x2 ADD PUSH1 0x0 SWAP1 SLOAD SWAP1 PUSH2 0x100 EXP SWAP1 DIV PUSH1 0x6 SIGNEXTEND DUP4 PUSH1 0x2 ADD PUSH1 0x7 SWAP1 SLOAD SWAP1 PUSH2 0x100 EXP SWAP1 DIV PUSH20 0xFFFFFFFFFFFFFFFFFFFFFFFFFFFFFFFFFFFFFFFF AND DUP5 PUSH1 0x2 ADD PUSH1 0x1B SWAP1 SLOAD SWAP1 PUSH2 0x100 EXP SWAP1 DIV PUSH4 0xFFFFFFFF AND DUP6 PUSH1 0x2 ADD PUSH1 0x1F SWAP1 SLOAD SWAP1 PUSH2 0x100 EXP SWAP1 DIV PUSH1 0xFF AND DUP1 SWAP5 POP DUP2 SWAP9 POP DUP3 SWAP11 POP DUP4 SWAP13 POP POP POP POP POP DUP1 PUSH2 0x2655 JUMPI PUSH1 0x0 DUP1 REVERT JUMPDEST PUSH1 0x0 DUP3 PUSH1 0x2 ADD PUSH1 0x0 SWAP1 SLOAD SWAP1 PUSH2 0x100 EXP SWAP1 DIV PUSH1 0x6 SIGNEXTEND DUP4 PUSH1 0x2 ADD PUSH1 0x7 SWAP1 SLOAD SWAP1 PUSH2 0x100 EXP SWAP1 DIV PUSH20 0xFFFFFFFFFFFFFFFFFFFFFFFFFFFFFFFFFFFFFFFF AND DUP5 PUSH1 0x2 ADD PUSH1 0x1B SWAP1 SLOAD SWAP1 PUSH2 0x100 EXP SWAP1 DIV PUSH4 0xFFFFFFFF AND DUP6 PUSH1 0x2 ADD PUSH1 0x1F SWAP1 SLOAD SWAP1 PUSH2 0x100 EXP SWAP1 DIV PUSH1 0xFF AND DUP1 SWAP5 POP DUP2 SWAP9 POP DUP3 SWAP11 POP DUP4 SWAP13 POP POP POP POP POP DUP1 PUSH2 0x26CF JUMPI PUSH1 0x0 DUP1 REVERT JUMPDEST POP POP POP POP PUSH1 0x0 PUSH1 0x4 PUSH1 0x40 MLOAD DUP1 PUSH1 0xE0 ADD PUSH1 0x40 MSTORE SWAP1 DUP2 PUSH1 0x0 DUP3 ADD PUSH1 0x0 SWAP1 SLOAD SWAP1 PUSH2 0x100 EXP SWAP1 DIV PUSH20 0xFFFFFFFFFFFFFFFFFFFFFFFFFFFFFFFFFFFFFFFF AND PUSH20 0xFFFFFFFFFFFFFFFFFFFFFFFFFFFFFFFFFFFFFFFF AND PUSH20 0xFFFFFFFFFFFFFFFFFFFFFFFFFFFFFFFFFFFFFFFF AND DUP2 MSTORE PUSH1 0x20 ADD PUSH1 0x0 DUP3 ADD PUSH1 0x14 SWAP1 SLOAD SWAP1 PUSH2 0x100 EXP SWAP1 DIV PUSH1 0x2 SIGNEXTEND PUSH1 0x2 SIGNEXTEND PUSH1 0x2 SIGNEXTEND DUP2 MSTORE PUSH1 0x20 ADD PUSH1 0x0 DUP3 ADD PUSH1 0x17 SWAP1 SLOAD SWAP1 PUSH2 0x100 EXP SWAP1 DIV PUSH2 0xFFFF AND PUSH2 0xFFFF AND PUSH2 0xFFFF AND DUP2 MSTORE PUSH1 0x20 ADD PUSH1 0x0 DUP3 ADD PUSH1 0x19 SWAP1 SLOAD SWAP1 PUSH2 0x100 EXP SWAP1 DIV PUSH2 0xFFFF AND PUSH2 0xFFFF AND PUSH2 0xFFFF AND DUP2 MSTORE PUSH1 0x20 ADD PUSH1 0x0 DUP3 ADD PUSH1 0x1B SWAP1 SLOAD SWAP1 PUSH2 0x100 EXP SWAP1 DIV PUSH2 0xFFFF AND PUSH2 0xFFFF AND PUSH2 0xFFFF AND DUP2 MSTORE PUSH1 0x20 ADD PUSH1 0x0 DUP3 ADD PUSH1 0x1D SWAP1 SLOAD SWAP1 PUSH2 0x100 EXP SWAP1 DIV PUSH1 0xFF AND PUSH1 0xFF AND PUSH1 0xFF AND DUP2 MSTORE PUSH1 0x20 ADD PUSH1 0x0 DUP3 ADD PUSH1 0x1E SWAP1 SLOAD SWAP1 PUSH2 0x100 EXP SWAP1 DIV PUSH1 0xFF AND ISZERO ISZERO ISZERO ISZERO DUP2 MSTORE POP POP SWAP1 POP DUP12 PUSH1 0x2 SIGNEXTEND DUP2 PUSH1 0x20 ADD MLOAD PUSH1 0x2 SIGNEXTEND SLT ISZERO PUSH2 0x2837 JUMPI DUP6 DUP8 PUSH2 0x280D SWAP2 SWAP1 PUSH2 0x9D94 JUMP JUMPDEST DUP5 DUP7 PUSH2 0x2819 SWAP2 SWAP1 PUSH2 0x9DF3 JUMP JUMPDEST DUP4 DUP6 PUSH2 0x2825 SWAP2 SWAP1 PUSH2 0x9E3B JUMP JUMPDEST SWAP10 POP SWAP10 POP SWAP10 POP POP POP POP POP POP POP POP PUSH2 0x2931 JUMP JUMPDEST DUP11 PUSH1 0x2 SIGNEXTEND DUP2 PUSH1 0x20 ADD MLOAD PUSH1 0x2 SIGNEXTEND SLT ISZERO PUSH2 0x28FF JUMPI PUSH1 0x0 PUSH2 0x2853 PUSH2 0x50AE JUMP JUMPDEST SWAP1 POP PUSH1 0x0 DUP1 PUSH2 0x28A1 DUP4 PUSH1 0x0 DUP7 PUSH1 0x20 ADD MLOAD DUP8 PUSH1 0x40 ADD MLOAD PUSH1 0x7 PUSH1 0x0 SWAP1 SLOAD SWAP1 PUSH2 0x100 EXP SWAP1 DIV PUSH16 0xFFFFFFFFFFFFFFFFFFFFFFFFFFFFFFFF AND DUP10 PUSH1 0x60 ADD MLOAD PUSH1 0xB PUSH2 0x53EF SWAP1 SWAP7 SWAP6 SWAP5 SWAP4 SWAP3 SWAP2 SWAP1 PUSH4 0xFFFFFFFF AND JUMP JUMPDEST SWAP2 POP SWAP2 POP DUP9 DUP11 DUP4 PUSH2 0x28B2 SWAP2 SWAP1 PUSH2 0x9D94 JUMP JUMPDEST PUSH2 0x28BC SWAP2 SWAP1 PUSH2 0x9D94 JUMP JUMPDEST DUP8 DUP10 DUP4 PUSH2 0x28C9 SWAP2 SWAP1 PUSH2 0x9DF3 JUMP JUMPDEST PUSH2 0x28D3 SWAP2 SWAP1 PUSH2 0x9DF3 JUMP JUMPDEST DUP7 DUP9 DUP7 PUSH2 0x28E0 SWAP2 SWAP1 PUSH2 0x9E3B JUMP JUMPDEST PUSH2 0x28EA SWAP2 SWAP1 PUSH2 0x9E3B JUMP JUMPDEST SWAP13 POP SWAP13 POP SWAP13 POP POP POP POP POP POP POP POP POP POP POP PUSH2 0x2931 JUMP JUMPDEST DUP7 DUP7 PUSH2 0x290B SWAP2 SWAP1 PUSH2 0x9D94 JUMP JUMPDEST DUP6 DUP6 PUSH2 0x2917 SWAP2 SWAP1 PUSH2 0x9DF3 JUMP JUMPDEST DUP5 DUP5 PUSH2 0x2923 SWAP2 SWAP1 PUSH2 0x9E3B JUMP JUMPDEST SWAP10 POP SWAP10 POP SWAP10 POP POP POP POP POP POP POP POP JUMPDEST SWAP3 POP SWAP3 POP SWAP3 JUMP JUMPDEST PUSH1 0x0 DUP1 PUSH2 0x2943 PUSH2 0x5054 JUMP JUMPDEST PUSH1 0x0 DUP8 SWAP1 POP PUSH1 0x0 DUP11 SWAP1 POP PUSH1 0x0 DUP9 SUB PUSH2 0x2990 JUMPI PUSH1 0x40 MLOAD PUSH32 0x8C379A000000000000000000000000000000000000000000000000000000000 DUP2 MSTORE PUSH1 0x4 ADD PUSH2 0x2987 SWAP1 PUSH2 0x9EBF JUMP JUMPDEST PUSH1 0x40 MLOAD DUP1 SWAP2 SUB SWAP1 REVERT JUMPDEST PUSH1 0x0 ISZERO ISZERO PUSH1 0x2 PUSH1 0x15 SWAP1 SLOAD SWAP1 PUSH2 0x100 EXP SWAP1 DIV PUSH1 0xFF AND ISZERO ISZERO EQ PUSH2 0x29E6 JUMPI PUSH1 0x40 MLOAD PUSH32 0x8C379A000000000000000000000000000000000000000000000000000000000 DUP2 MSTORE PUSH1 0x4 ADD PUSH2 0x29DD SWAP1 PUSH2 0x9F2B JUMP JUMPDEST PUSH1 0x40 MLOAD DUP1 SWAP2 SUB SWAP1 REVERT JUMPDEST PUSH1 0x0 PUSH1 0x4 PUSH1 0x40 MLOAD DUP1 PUSH1 0xE0 ADD PUSH1 0x40 MSTORE SWAP1 DUP2 PUSH1 0x0 DUP3 ADD PUSH1 0x0 SWAP1 SLOAD SWAP1 PUSH2 0x100 EXP SWAP1 DIV PUSH20 0xFFFFFFFFFFFFFFFFFFFFFFFFFFFFFFFFFFFFFFFF AND PUSH20 0xFFFFFFFFFFFFFFFFFFFFFFFFFFFFFFFFFFFFFFFF AND PUSH20 0xFFFFFFFFFFFFFFFFFFFFFFFFFFFFFFFFFFFFFFFF AND DUP2 MSTORE PUSH1 0x20 ADD PUSH1 0x0 DUP3 ADD PUSH1 0x14 SWAP1 SLOAD SWAP1 PUSH2 0x100 EXP SWAP1 DIV PUSH1 0x2 SIGNEXTEND PUSH1 0x2 SIGNEXTEND PUSH1 0x2 SIGNEXTEND DUP2 MSTORE PUSH1 0x20 ADD PUSH1 0x0 DUP3 ADD PUSH1 0x17 SWAP1 SLOAD SWAP1 PUSH2 0x100 EXP SWAP1 DIV PUSH2 0xFFFF AND PUSH2 0xFFFF AND PUSH2 0xFFFF AND DUP2 MSTORE PUSH1 0x20 ADD PUSH1 0x0 DUP3 ADD PUSH1 0x19 SWAP1 SLOAD SWAP1 PUSH2 0x100 EXP SWAP1 DIV PUSH2 0xFFFF AND PUSH2 0xFFFF AND PUSH2 0xFFFF AND DUP2 MSTORE PUSH1 0x20 ADD PUSH1 0x0 DUP3 ADD PUSH1 0x1B SWAP1 SLOAD SWAP1 PUSH2 0x100 EXP SWAP1 DIV PUSH2 0xFFFF AND PUSH2 0xFFFF AND PUSH2 0xFFFF AND DUP2 MSTORE PUSH1 0x20 ADD PUSH1 0x0 DUP3 ADD PUSH1 0x1D SWAP1 SLOAD SWAP1 PUSH2 0x100 EXP SWAP1 DIV PUSH1 0xFF AND PUSH1 0xFF AND PUSH1 0xFF AND DUP2 MSTORE PUSH1 0x20 ADD PUSH1 0x0 DUP3 ADD PUSH1 0x1E SWAP1 SLOAD SWAP1 PUSH2 0x100 EXP SWAP1 DIV PUSH1 0xFF AND ISZERO ISZERO ISZERO ISZERO DUP2 MSTORE POP POP SWAP1 POP PUSH1 0x0 PUSH32 0x0 PUSH20 0xFFFFFFFFFFFFFFFFFFFFFFFFFFFFFFFFFFFFFFFF AND PUSH4 0xE71957B9 CALLER PUSH1 0x40 MLOAD DUP3 PUSH4 0xFFFFFFFF AND PUSH1 0xE0 SHL DUP2 MSTORE PUSH1 0x4 ADD PUSH2 0x2B5D SWAP2 SWAP1 PUSH2 0x8913 JUMP JUMPDEST PUSH1 0x20 PUSH1 0x40 MLOAD DUP1 DUP4 SUB DUP2 DUP7 GAS STATICCALL ISZERO DUP1 ISZERO PUSH2 0x2B7A JUMPI RETURNDATASIZE PUSH1 0x0 DUP1 RETURNDATACOPY RETURNDATASIZE PUSH1 0x0 REVERT JUMPDEST POP POP POP POP PUSH1 0x40 MLOAD RETURNDATASIZE PUSH1 0x1F NOT PUSH1 0x1F DUP3 ADD AND DUP3 ADD DUP1 PUSH1 0x40 MSTORE POP DUP2 ADD SWAP1 PUSH2 0x2B9E SWAP2 SWAP1 PUSH2 0x9AC5 JUMP JUMPDEST SWAP1 POP PUSH1 0x0 DUP13 SWAP1 POP DUP3 PUSH1 0xC0 ADD MLOAD PUSH2 0x2BE9 JUMPI PUSH1 0x40 MLOAD PUSH32 0x8C379A000000000000000000000000000000000000000000000000000000000 DUP2 MSTORE PUSH1 0x4 ADD PUSH2 0x2BE0 SWAP1 PUSH2 0x976A JUMP JUMPDEST PUSH1 0x40 MLOAD DUP1 SWAP2 SUB SWAP1 REVERT JUMPDEST DUP12 PUSH2 0x2C71 JUMPI DUP3 PUSH1 0x0 ADD MLOAD PUSH20 0xFFFFFFFFFFFFFFFFFFFFFFFFFFFFFFFFFFFFFFFF AND DUP11 PUSH20 0xFFFFFFFFFFFFFFFFFFFFFFFFFFFFFFFFFFFFFFFF AND GT DUP1 ISZERO PUSH2 0x2C6C JUMPI POP PUSH20 0xFFFD8963EFD1FC6A506488495D951D5263988D26 PUSH20 0xFFFFFFFFFFFFFFFFFFFFFFFFFFFFFFFFFFFFFFFF AND DUP11 PUSH20 0xFFFFFFFFFFFFFFFFFFFFFFFFFFFFFFFFFFFFFFFF AND LT JUMPDEST PUSH2 0x2CE1 JUMP JUMPDEST DUP3 PUSH1 0x0 ADD MLOAD PUSH20 0xFFFFFFFFFFFFFFFFFFFFFFFFFFFFFFFFFFFFFFFF AND DUP11 PUSH20 0xFFFFFFFFFFFFFFFFFFFFFFFFFFFFFFFFFFFFFFFF AND LT DUP1 ISZERO PUSH2 0x2CE0 JUMPI POP PUSH5 0x1000276A3 PUSH20 0xFFFFFFFFFFFFFFFFFFFFFFFFFFFFFFFFFFFFFFFF AND DUP11 PUSH20 0xFFFFFFFFFFFFFFFFFFFFFFFFFFFFFFFFFFFFFFFF AND GT JUMPDEST JUMPDEST PUSH2 0x2D20 JUMPI PUSH1 0x40 MLOAD PUSH32 0x8C379A000000000000000000000000000000000000000000000000000000000 DUP2 MSTORE PUSH1 0x4 ADD PUSH2 0x2D17 SWAP1 PUSH2 0x9F97 JUMP JUMPDEST PUSH1 0x40 MLOAD DUP1 SWAP2 SUB SWAP1 REVERT JUMPDEST PUSH1 0x0 PUSH1 0x4 PUSH1 0x0 ADD PUSH1 0x1E PUSH2 0x100 EXP DUP2 SLOAD DUP2 PUSH1 0xFF MUL NOT AND SWAP1 DUP4 ISZERO ISZERO MUL OR SWAP1 SSTORE POP PUSH1 0x0 PUSH1 0x40 MLOAD DUP1 PUSH1 0xC0 ADD PUSH1 0x40 MSTORE DUP1 DUP15 PUSH2 0x2D61 JUMPI PUSH1 0x4 DUP7 PUSH1 0xA0 ADD MLOAD PUSH1 0xFF AND SWAP1 SHR PUSH2 0x2D73 JUMP JUMPDEST PUSH1 0x10 DUP7 PUSH1 0xA0 ADD MLOAD PUSH2 0x2D72 SWAP2 SWAP1 PUSH2 0x988A JUMP JUMPDEST JUMPDEST PUSH1 0xFF AND DUP2 MSTORE PUSH1 0x20 ADD PUSH1 0x7 PUSH1 0x0 SWAP1 SLOAD SWAP1 PUSH2 0x100 EXP SWAP1 DIV PUSH16 0xFFFFFFFFFFFFFFFFFFFFFFFFFFFFFFFF AND PUSH16 0xFFFFFFFFFFFFFFFFFFFFFFFFFFFFFFFF AND DUP2 MSTORE PUSH1 0x20 ADD PUSH2 0x2DB9 PUSH2 0x50AE JUMP JUMPDEST PUSH4 0xFFFFFFFF AND DUP2 MSTORE PUSH1 0x20 ADD PUSH1 0x0 PUSH1 0x6 SIGNEXTEND DUP2 MSTORE PUSH1 0x20 ADD PUSH1 0x0 PUSH20 0xFFFFFFFFFFFFFFFFFFFFFFFFFFFFFFFFFFFFFFFF AND DUP2 MSTORE PUSH1 0x20 ADD PUSH1 0x0 ISZERO ISZERO DUP2 MSTORE POP SWAP1 POP PUSH1 0x0 DUP1 DUP14 SGT SWAP1 POP PUSH1 0x0 PUSH1 0x40 MLOAD DUP1 PUSH1 0xE0 ADD PUSH1 0x40 MSTORE DUP1 DUP16 DUP2 MSTORE PUSH1 0x20 ADD PUSH1 0x0 DUP2 MSTORE PUSH1 0x20 ADD DUP8 PUSH1 0x0 ADD MLOAD PUSH20 0xFFFFFFFFFFFFFFFFFFFFFFFFFFFFFFFFFFFFFFFF AND DUP2 MSTORE PUSH1 0x20 ADD DUP8 PUSH1 0x20 ADD MLOAD PUSH1 0x2 SIGNEXTEND DUP2 MSTORE PUSH1 0x20 ADD PUSH1 0x5 SLOAD DUP2 MSTORE PUSH1 0x20 ADD PUSH1 0x0 PUSH16 0xFFFFFFFFFFFFFFFFFFFFFFFFFFFFFFFF AND DUP2 MSTORE PUSH1 0x20 ADD DUP5 PUSH1 0x20 ADD MLOAD PUSH16 0xFFFFFFFFFFFFFFFFFFFFFFFFFFFFFFFF AND DUP2 MSTORE POP SWAP1 POP JUMPDEST PUSH1 0x0 DUP2 PUSH1 0x0 ADD MLOAD EQ ISZERO DUP1 ISZERO PUSH2 0x2EC5 JUMPI POP DUP13 PUSH20 0xFFFFFFFFFFFFFFFFFFFFFFFFFFFFFFFFFFFFFFFF AND DUP2 PUSH1 0x40 ADD MLOAD PUSH20 0xFFFFFFFFFFFFFFFFFFFFFFFFFFFFFFFFFFFFFFFF AND EQ ISZERO JUMPDEST ISZERO PUSH2 0x3519 JUMPI PUSH2 0x2ED2 PUSH2 0x87E7 JUMP JUMPDEST DUP2 PUSH1 0x40 ADD MLOAD DUP2 PUSH1 0x0 ADD SWAP1 PUSH20 0xFFFFFFFFFFFFFFFFFFFFFFFFFFFFFFFFFFFFFFFF AND SWAP1 DUP2 PUSH20 0xFFFFFFFFFFFFFFFFFFFFFFFFFFFFFFFFFFFFFFFF AND DUP2 MSTORE POP POP PUSH2 0x2F37 DUP3 PUSH1 0x60 ADD MLOAD PUSH1 0x0 DUP1 SLOAD SWAP1 PUSH2 0x100 EXP SWAP1 DIV PUSH1 0x2 SIGNEXTEND DUP12 PUSH1 0x9 PUSH2 0x565C SWAP1 SWAP4 SWAP3 SWAP2 SWAP1 PUSH4 0xFFFFFFFF AND JUMP JUMPDEST DUP3 PUSH1 0x20 ADD DUP4 PUSH1 0x40 ADD DUP3 ISZERO ISZERO ISZERO ISZERO DUP2 MSTORE POP DUP3 PUSH1 0x2 SIGNEXTEND PUSH1 0x2 SIGNEXTEND DUP2 MSTORE POP POP POP PUSH32 0xFFFFFFFFFFFFFFFFFFFFFFFFFFFFFFFFFFFFFFFFFFFFFFFFFFFFFFFFFFF27618 PUSH1 0x2 SIGNEXTEND DUP2 PUSH1 0x20 ADD MLOAD PUSH1 0x2 SIGNEXTEND SLT ISZERO PUSH2 0x2FBC JUMPI PUSH32 0xFFFFFFFFFFFFFFFFFFFFFFFFFFFFFFFFFFFFFFFFFFFFFFFFFFFFFFFFFFF27618 DUP2 PUSH1 0x20 ADD SWAP1 PUSH1 0x2 SIGNEXTEND SWAP1 DUP2 PUSH1 0x2 SIGNEXTEND DUP2 MSTORE POP POP PUSH2 0x3034 JUMP JUMPDEST PUSH32 0xFFFFFFFFFFFFFFFFFFFFFFFFFFFFFFFFFFFFFFFFFFFFFFFFFFFFFFFFFFF27618 PUSH2 0x2FE6 SWAP1 PUSH2 0x9FB7 JUMP JUMPDEST PUSH1 0x2 SIGNEXTEND DUP2 PUSH1 0x20 ADD MLOAD PUSH1 0x2 SIGNEXTEND SGT ISZERO PUSH2 0x3033 JUMPI PUSH32 0xFFFFFFFFFFFFFFFFFFFFFFFFFFFFFFFFFFFFFFFFFFFFFFFFFFFFFFFFFFF27618 PUSH2 0x3021 SWAP1 PUSH2 0x9FB7 JUMP JUMPDEST DUP2 PUSH1 0x20 ADD SWAP1 PUSH1 0x2 SIGNEXTEND SWAP1 DUP2 PUSH1 0x2 SIGNEXTEND DUP2 MSTORE POP POP JUMPDEST JUMPDEST PUSH2 0x3041 DUP2 PUSH1 0x20 ADD MLOAD PUSH2 0x584A JUMP JUMPDEST DUP2 PUSH1 0x60 ADD SWAP1 PUSH20 0xFFFFFFFFFFFFFFFFFFFFFFFFFFFFFFFFFFFFFFFF AND SWAP1 DUP2 PUSH20 0xFFFFFFFFFFFFFFFFFFFFFFFFFFFFFFFFFFFFFFFF AND DUP2 MSTORE POP POP PUSH2 0x3110 DUP3 PUSH1 0x40 ADD MLOAD DUP11 PUSH2 0x30BD JUMPI DUP16 PUSH20 0xFFFFFFFFFFFFFFFFFFFFFFFFFFFFFFFFFFFFFFFF AND DUP4 PUSH1 0x60 ADD MLOAD PUSH20 0xFFFFFFFFFFFFFFFFFFFFFFFFFFFFFFFFFFFFFFFF AND GT PUSH2 0x30F1 JUMP JUMPDEST DUP16 PUSH20 0xFFFFFFFFFFFFFFFFFFFFFFFFFFFFFFFFFFFFFFFF AND DUP4 PUSH1 0x60 ADD MLOAD PUSH20 0xFFFFFFFFFFFFFFFFFFFFFFFFFFFFFFFFFFFFFFFF AND LT JUMPDEST PUSH2 0x30FF JUMPI DUP3 PUSH1 0x60 ADD MLOAD PUSH2 0x3101 JUMP JUMPDEST DUP16 JUMPDEST DUP5 PUSH1 0xC0 ADD MLOAD DUP6 PUSH1 0x0 ADD MLOAD PUSH2 0x5D15 JUMP JUMPDEST DUP5 PUSH1 0x40 ADD DUP5 PUSH1 0x80 ADD DUP6 PUSH1 0xA0 ADD DUP4 DUP2 MSTORE POP DUP4 DUP2 MSTORE POP DUP4 PUSH20 0xFFFFFFFFFFFFFFFFFFFFFFFFFFFFFFFFFFFFFFFF AND PUSH20 0xFFFFFFFFFFFFFFFFFFFFFFFFFFFFFFFFFFFFFFFF AND DUP2 MSTORE POP POP POP POP DUP3 ISZERO PUSH2 0x31C2 JUMPI PUSH2 0x3179 DUP2 PUSH1 0xC0 ADD MLOAD DUP3 PUSH1 0x80 ADD MLOAD PUSH2 0x3174 SWAP2 SWAP1 PUSH2 0x9FFF JUMP JUMPDEST PUSH2 0x5F13 JUMP JUMPDEST DUP3 PUSH1 0x0 ADD DUP2 DUP2 MLOAD PUSH2 0x318A SWAP2 SWAP1 PUSH2 0xA033 JUMP JUMPDEST SWAP2 POP DUP2 DUP2 MSTORE POP POP PUSH2 0x31B4 PUSH2 0x31A1 DUP3 PUSH1 0xA0 ADD MLOAD PUSH2 0x5F13 JUMP JUMPDEST DUP4 PUSH1 0x20 ADD MLOAD PUSH2 0x5F49 SWAP1 SWAP2 SWAP1 PUSH4 0xFFFFFFFF AND JUMP JUMPDEST DUP3 PUSH1 0x20 ADD DUP2 DUP2 MSTORE POP POP PUSH2 0x3223 JUMP JUMPDEST PUSH2 0x31CF DUP2 PUSH1 0xA0 ADD MLOAD PUSH2 0x5F13 JUMP JUMPDEST DUP3 PUSH1 0x0 ADD DUP2 DUP2 MLOAD PUSH2 0x31E0 SWAP2 SWAP1 PUSH2 0xA076 JUMP JUMPDEST SWAP2 POP DUP2 DUP2 MSTORE POP POP PUSH2 0x3219 PUSH2 0x3206 DUP3 PUSH1 0xC0 ADD MLOAD DUP4 PUSH1 0x80 ADD MLOAD PUSH2 0x3201 SWAP2 SWAP1 PUSH2 0x9FFF JUMP JUMPDEST PUSH2 0x5F13 JUMP JUMPDEST DUP4 PUSH1 0x20 ADD MLOAD PUSH2 0x5F75 SWAP1 SWAP2 SWAP1 PUSH4 0xFFFFFFFF AND JUMP JUMPDEST DUP3 PUSH1 0x20 ADD DUP2 DUP2 MSTORE POP POP JUMPDEST PUSH1 0x0 DUP5 PUSH1 0x0 ADD MLOAD PUSH1 0xFF AND GT ISZERO PUSH2 0x32A8 JUMPI PUSH1 0x0 DUP5 PUSH1 0x0 ADD MLOAD PUSH1 0xFF AND DUP3 PUSH1 0xC0 ADD MLOAD PUSH2 0x324C SWAP2 SWAP1 PUSH2 0x9BFE JUMP JUMPDEST SWAP1 POP DUP1 DUP3 PUSH1 0xC0 ADD DUP2 DUP2 MLOAD PUSH2 0x3260 SWAP2 SWAP1 PUSH2 0x9BCA JUMP JUMPDEST SWAP2 POP DUP2 DUP2 MSTORE POP POP DUP1 DUP4 PUSH1 0xA0 ADD DUP2 DUP2 MLOAD PUSH2 0x3279 SWAP2 SWAP1 PUSH2 0x9C89 JUMP JUMPDEST SWAP2 POP SWAP1 PUSH16 0xFFFFFFFFFFFFFFFFFFFFFFFFFFFFFFFF AND SWAP1 DUP2 PUSH16 0xFFFFFFFFFFFFFFFFFFFFFFFFFFFFFFFF AND DUP2 MSTORE POP POP POP JUMPDEST PUSH1 0x0 DUP3 PUSH1 0xC0 ADD MLOAD PUSH16 0xFFFFFFFFFFFFFFFFFFFFFFFFFFFFFFFF AND GT ISZERO PUSH2 0x3316 JUMPI PUSH2 0x32FD DUP2 PUSH1 0xC0 ADD MLOAD PUSH17 0x100000000000000000000000000000000 DUP5 PUSH1 0xC0 ADD MLOAD PUSH16 0xFFFFFFFFFFFFFFFFFFFFFFFFFFFFFFFF AND PUSH2 0x5FA1 JUMP JUMPDEST DUP3 PUSH1 0x80 ADD DUP2 DUP2 MLOAD PUSH2 0x330E SWAP2 SWAP1 PUSH2 0x9FFF JUMP JUMPDEST SWAP2 POP DUP2 DUP2 MSTORE POP POP JUMPDEST DUP1 PUSH1 0x60 ADD MLOAD PUSH20 0xFFFFFFFFFFFFFFFFFFFFFFFFFFFFFFFFFFFFFFFF AND DUP3 PUSH1 0x40 ADD MLOAD PUSH20 0xFFFFFFFFFFFFFFFFFFFFFFFFFFFFFFFFFFFFFFFF AND SUB PUSH2 0x34B8 JUMPI DUP1 PUSH1 0x40 ADD MLOAD ISZERO PUSH2 0x3481 JUMPI DUP4 PUSH1 0xA0 ADD MLOAD PUSH2 0x33ED JUMPI PUSH2 0x3397 DUP5 PUSH1 0x40 ADD MLOAD PUSH1 0x0 DUP10 PUSH1 0x20 ADD MLOAD DUP11 PUSH1 0x40 ADD MLOAD DUP9 PUSH1 0x20 ADD MLOAD DUP13 PUSH1 0x60 ADD MLOAD PUSH1 0xB PUSH2 0x53EF SWAP1 SWAP7 SWAP6 SWAP5 SWAP4 SWAP3 SWAP2 SWAP1 PUSH4 0xFFFFFFFF AND JUMP JUMPDEST DUP6 PUSH1 0x60 ADD DUP7 PUSH1 0x80 ADD DUP3 PUSH20 0xFFFFFFFFFFFFFFFFFFFFFFFFFFFFFFFFFFFFFFFF AND PUSH20 0xFFFFFFFFFFFFFFFFFFFFFFFFFFFFFFFFFFFFFFFF AND DUP2 MSTORE POP DUP3 PUSH1 0x6 SIGNEXTEND PUSH1 0x6 SIGNEXTEND DUP2 MSTORE POP POP POP PUSH1 0x1 DUP5 PUSH1 0xA0 ADD SWAP1 ISZERO ISZERO SWAP1 DUP2 ISZERO ISZERO DUP2 MSTORE POP POP JUMPDEST PUSH1 0x0 PUSH2 0x342D DUP3 PUSH1 0x20 ADD MLOAD DUP12 PUSH2 0x3404 JUMPI PUSH1 0x5 SLOAD PUSH2 0x340A JUMP JUMPDEST DUP5 PUSH1 0x80 ADD MLOAD JUMPDEST DUP8 PUSH1 0x80 ADD MLOAD DUP9 PUSH1 0x60 ADD MLOAD DUP10 PUSH1 0x40 ADD MLOAD PUSH1 0x8 PUSH2 0x616B SWAP1 SWAP6 SWAP5 SWAP4 SWAP3 SWAP2 SWAP1 PUSH4 0xFFFFFFFF AND JUMP JUMPDEST SWAP1 POP DUP10 ISZERO PUSH2 0x3442 JUMPI DUP1 PUSH2 0x343F SWAP1 PUSH2 0x9CCD JUMP JUMPDEST SWAP1 POP JUMPDEST PUSH2 0x3450 DUP4 PUSH1 0xC0 ADD MLOAD DUP3 PUSH2 0x62BB JUMP JUMPDEST DUP4 PUSH1 0xC0 ADD SWAP1 PUSH16 0xFFFFFFFFFFFFFFFFFFFFFFFFFFFFFFFF AND SWAP1 DUP2 PUSH16 0xFFFFFFFFFFFFFFFFFFFFFFFFFFFFFFFF AND DUP2 MSTORE POP POP POP JUMPDEST DUP16 PUSH2 0x3490 JUMPI DUP1 PUSH1 0x20 ADD MLOAD PUSH2 0x34A2 JUMP JUMPDEST PUSH1 0x1 DUP2 PUSH1 0x20 ADD MLOAD PUSH2 0x34A1 SWAP2 SWAP1 PUSH2 0xA0BA JUMP JUMPDEST JUMPDEST DUP3 PUSH1 0x60 ADD SWAP1 PUSH1 0x2 SIGNEXTEND SWAP1 DUP2 PUSH1 0x2 SIGNEXTEND DUP2 MSTORE POP POP PUSH2 0x3513 JUMP JUMPDEST DUP1 PUSH1 0x0 ADD MLOAD PUSH20 0xFFFFFFFFFFFFFFFFFFFFFFFFFFFFFFFFFFFFFFFF AND DUP3 PUSH1 0x40 ADD MLOAD PUSH20 0xFFFFFFFFFFFFFFFFFFFFFFFFFFFFFFFFFFFFFFFF AND EQ PUSH2 0x3512 JUMPI PUSH2 0x3500 DUP3 PUSH1 0x40 ADD MLOAD PUSH2 0x63C6 JUMP JUMPDEST DUP3 PUSH1 0x60 ADD SWAP1 PUSH1 0x2 SIGNEXTEND SWAP1 DUP2 PUSH1 0x2 SIGNEXTEND DUP2 MSTORE POP POP JUMPDEST JUMPDEST POP PUSH2 0x2E80 JUMP JUMPDEST DUP6 PUSH1 0x20 ADD MLOAD PUSH1 0x2 SIGNEXTEND DUP2 PUSH1 0x60 ADD MLOAD PUSH1 0x2 SIGNEXTEND EQ PUSH2 0x3633 JUMPI PUSH1 0x0 DUP1 PUSH2 0x3567 DUP9 PUSH1 0x40 ADD MLOAD DUP7 PUSH1 0x40 ADD MLOAD DUP11 PUSH1 0x20 ADD MLOAD DUP9 PUSH1 0x20 ADD MLOAD DUP13 PUSH1 0x60 ADD MLOAD DUP14 PUSH1 0x80 ADD MLOAD PUSH1 0xB PUSH2 0x67C5 SWAP1 SWAP7 SWAP6 SWAP5 SWAP4 SWAP3 SWAP2 SWAP1 PUSH4 0xFFFFFFFF AND JUMP JUMPDEST SWAP2 POP SWAP2 POP DUP3 PUSH1 0x40 ADD MLOAD DUP4 PUSH1 0x60 ADD MLOAD DUP4 DUP4 PUSH1 0x4 PUSH1 0x0 ADD PUSH1 0x0 PUSH1 0x4 PUSH1 0x0 ADD PUSH1 0x14 PUSH1 0x4 PUSH1 0x0 ADD PUSH1 0x17 PUSH1 0x4 PUSH1 0x0 ADD PUSH1 0x19 DUP9 SWAP2 SWAP1 PUSH2 0x100 EXP DUP2 SLOAD DUP2 PUSH2 0xFFFF MUL NOT AND SWAP1 DUP4 PUSH2 0xFFFF AND MUL OR SWAP1 SSTORE POP DUP8 SWAP2 SWAP1 PUSH2 0x100 EXP DUP2 SLOAD DUP2 PUSH2 0xFFFF MUL NOT AND SWAP1 DUP4 PUSH2 0xFFFF AND MUL OR SWAP1 SSTORE POP DUP7 SWAP2 SWAP1 PUSH2 0x100 EXP DUP2 SLOAD DUP2 PUSH3 0xFFFFFF MUL NOT AND SWAP1 DUP4 PUSH1 0x2 SIGNEXTEND PUSH3 0xFFFFFF AND MUL OR SWAP1 SSTORE POP DUP6 SWAP2 SWAP1 PUSH2 0x100 EXP DUP2 SLOAD DUP2 PUSH20 0xFFFFFFFFFFFFFFFFFFFFFFFFFFFFFFFFFFFFFFFF MUL NOT AND SWAP1 DUP4 PUSH20 0xFFFFFFFFFFFFFFFFFFFFFFFFFFFFFFFFFFFFFFFF AND MUL OR SWAP1 SSTORE POP POP POP POP POP POP POP PUSH2 0x367C JUMP JUMPDEST DUP1 PUSH1 0x40 ADD MLOAD PUSH1 0x4 PUSH1 0x0 ADD PUSH1 0x0 PUSH2 0x100 EXP DUP2 SLOAD DUP2 PUSH20 0xFFFFFFFFFFFFFFFFFFFFFFFFFFFFFFFFFFFFFFFF MUL NOT AND SWAP1 DUP4 PUSH20 0xFFFFFFFFFFFFFFFFFFFFFFFFFFFFFFFFFFFFFFFF AND MUL OR SWAP1 SSTORE POP JUMPDEST DUP1 PUSH1 0xC0 ADD MLOAD PUSH16 0xFFFFFFFFFFFFFFFFFFFFFFFFFFFFFFFF AND DUP4 PUSH1 0x20 ADD MLOAD PUSH16 0xFFFFFFFFFFFFFFFFFFFFFFFFFFFFFFFF AND EQ PUSH2 0x36ED JUMPI DUP1 PUSH1 0xC0 ADD MLOAD PUSH1 0x7 PUSH1 0x0 PUSH2 0x100 EXP DUP2 SLOAD DUP2 PUSH16 0xFFFFFFFFFFFFFFFFFFFFFFFFFFFFFFFF MUL NOT AND SWAP1 DUP4 PUSH16 0xFFFFFFFFFFFFFFFFFFFFFFFFFFFFFFFF AND MUL OR SWAP1 SSTORE POP JUMPDEST DUP15 ISZERO PUSH2 0x3C5F JUMPI DUP1 PUSH1 0x80 ADD MLOAD PUSH1 0x5 DUP2 SWAP1 SSTORE POP PUSH1 0x0 DUP2 PUSH1 0xA0 ADD MLOAD PUSH16 0xFFFFFFFFFFFFFFFFFFFFFFFFFFFFFFFF AND GT ISZERO PUSH2 0x3C5A JUMPI PUSH1 0x1 PUSH1 0x0 ADD PUSH1 0x1 SWAP1 SLOAD SWAP1 PUSH2 0x100 EXP SWAP1 DIV PUSH1 0xFF AND PUSH1 0xFF AND PUSH1 0x64 DUP3 PUSH1 0xA0 ADD MLOAD PUSH2 0x3744 SWAP2 SWAP1 PUSH2 0xA115 JUMP JUMPDEST PUSH2 0x374E SWAP2 SWAP1 PUSH2 0xA146 JUMP JUMPDEST PUSH1 0x3 PUSH1 0x0 DUP7 PUSH20 0xFFFFFFFFFFFFFFFFFFFFFFFFFFFFFFFFFFFFFFFF AND PUSH20 0xFFFFFFFFFFFFFFFFFFFFFFFFFFFFFFFFFFFFFFFF AND DUP2 MSTORE PUSH1 0x20 ADD SWAP1 DUP2 MSTORE PUSH1 0x20 ADD PUSH1 0x0 KECCAK256 PUSH1 0x0 ADD PUSH1 0x0 DUP3 DUP3 DUP3 SWAP1 SLOAD SWAP1 PUSH2 0x100 EXP SWAP1 DIV PUSH16 0xFFFFFFFFFFFFFFFFFFFFFFFFFFFFFFFF AND PUSH2 0x37BA SWAP2 SWAP1 PUSH2 0x9C89 JUMP JUMPDEST SWAP3 POP PUSH2 0x100 EXP DUP2 SLOAD DUP2 PUSH16 0xFFFFFFFFFFFFFFFFFFFFFFFFFFFFFFFF MUL NOT AND SWAP1 DUP4 PUSH16 0xFFFFFFFFFFFFFFFFFFFFFFFFFFFFFFFF AND MUL OR SWAP1 SSTORE POP PUSH1 0x1 PUSH1 0x0 ADD PUSH1 0x0 SWAP1 SLOAD SWAP1 PUSH2 0x100 EXP SWAP1 DIV PUSH1 0xFF AND PUSH1 0xFF AND PUSH1 0x64 DUP3 PUSH1 0xA0 ADD MLOAD PUSH2 0x3817 SWAP2 SWAP1 PUSH2 0xA115 JUMP JUMPDEST PUSH2 0x3821 SWAP2 SWAP1 PUSH2 0xA146 JUMP JUMPDEST PUSH1 0x3 PUSH1 0x0 PUSH32 0x0 PUSH20 0xFFFFFFFFFFFFFFFFFFFFFFFFFFFFFFFFFFFFFFFF AND PUSH20 0xFFFFFFFFFFFFFFFFFFFFFFFFFFFFFFFFFFFFFFFF AND DUP2 MSTORE PUSH1 0x20 ADD SWAP1 DUP2 MSTORE PUSH1 0x20 ADD PUSH1 0x0 KECCAK256 PUSH1 0x0 ADD PUSH1 0x0 DUP3 DUP3 DUP3 SWAP1 SLOAD SWAP1 PUSH2 0x100 EXP SWAP1 DIV PUSH16 0xFFFFFFFFFFFFFFFFFFFFFFFFFFFFFFFF AND PUSH2 0x38AD SWAP2 SWAP1 PUSH2 0x9C89 JUMP JUMPDEST SWAP3 POP PUSH2 0x100 EXP DUP2 SLOAD DUP2 PUSH16 0xFFFFFFFFFFFFFFFFFFFFFFFFFFFFFFFF MUL NOT AND SWAP1 DUP4 PUSH16 0xFFFFFFFFFFFFFFFFFFFFFFFFFFFFFFFF AND MUL OR SWAP1 SSTORE POP PUSH1 0x0 PUSH20 0xFFFFFFFFFFFFFFFFFFFFFFFFFFFFFFFFFFFFFFFF AND DUP6 PUSH20 0xFFFFFFFFFFFFFFFFFFFFFFFFFFFFFFFFFFFFFFFF AND EQ PUSH2 0x3ACA JUMPI PUSH1 0x1 PUSH1 0x0 ADD PUSH1 0x2 SWAP1 SLOAD SWAP1 PUSH2 0x100 EXP SWAP1 DIV PUSH1 0xFF AND PUSH1 0xFF AND DUP2 PUSH1 0xA0 ADD MLOAD PUSH2 0x393C SWAP2 SWAP1 PUSH2 0xA146 JUMP JUMPDEST PUSH1 0x3 PUSH1 0x0 DUP8 PUSH20 0xFFFFFFFFFFFFFFFFFFFFFFFFFFFFFFFFFFFFFFFF AND PUSH20 0xFFFFFFFFFFFFFFFFFFFFFFFFFFFFFFFFFFFFFFFF AND DUP2 MSTORE PUSH1 0x20 ADD SWAP1 DUP2 MSTORE PUSH1 0x20 ADD PUSH1 0x0 KECCAK256 PUSH1 0x0 ADD PUSH1 0x0 DUP3 DUP3 DUP3 SWAP1 SLOAD SWAP1 PUSH2 0x100 EXP SWAP1 DIV PUSH16 0xFFFFFFFFFFFFFFFFFFFFFFFFFFFFFFFF AND PUSH2 0x39A8 SWAP2 SWAP1 PUSH2 0x9C89 JUMP JUMPDEST SWAP3 POP PUSH2 0x100 EXP DUP2 SLOAD DUP2 PUSH16 0xFFFFFFFFFFFFFFFFFFFFFFFFFFFFFFFF MUL NOT AND SWAP1 DUP4 PUSH16 0xFFFFFFFFFFFFFFFFFFFFFFFFFFFFFFFF AND MUL OR SWAP1 SSTORE POP PUSH1 0x1 PUSH1 0x0 ADD PUSH1 0x3 SWAP1 SLOAD SWAP1 PUSH2 0x100 EXP SWAP1 DIV PUSH1 0xFF AND PUSH1 0xFF AND DUP2 PUSH1 0xA0 ADD MLOAD PUSH2 0x3A03 SWAP2 SWAP1 PUSH2 0xA146 JUMP JUMPDEST PUSH1 0x3 PUSH1 0x0 PUSH32 0x0 PUSH20 0xFFFFFFFFFFFFFFFFFFFFFFFFFFFFFFFFFFFFFFFF AND PUSH20 0xFFFFFFFFFFFFFFFFFFFFFFFFFFFFFFFFFFFFFFFF AND DUP2 MSTORE PUSH1 0x20 ADD SWAP1 DUP2 MSTORE PUSH1 0x20 ADD PUSH1 0x0 KECCAK256 PUSH1 0x0 ADD PUSH1 0x0 DUP3 DUP3 DUP3 SWAP1 SLOAD SWAP1 PUSH2 0x100 EXP SWAP1 DIV PUSH16 0xFFFFFFFFFFFFFFFFFFFFFFFFFFFFFFFF AND PUSH2 0x3A8F SWAP2 SWAP1 PUSH2 0x9C89 JUMP JUMPDEST SWAP3 POP PUSH2 0x100 EXP DUP2 SLOAD DUP2 PUSH16 0xFFFFFFFFFFFFFFFFFFFFFFFFFFFFFFFF MUL NOT AND SWAP1 DUP4 PUSH16 0xFFFFFFFFFFFFFFFFFFFFFFFFFFFFFFFF AND MUL OR SWAP1 SSTORE POP PUSH2 0x3C59 JUMP JUMPDEST PUSH1 0x1 PUSH1 0x0 ADD PUSH1 0x2 SWAP1 SLOAD SWAP1 PUSH2 0x100 EXP SWAP1 DIV PUSH1 0xFF AND PUSH1 0xFF AND DUP2 PUSH1 0xA0 ADD MLOAD PUSH2 0x3AEF SWAP2 SWAP1 PUSH2 0xA146 JUMP JUMPDEST PUSH1 0x3 PUSH1 0x0 DUP7 PUSH20 0xFFFFFFFFFFFFFFFFFFFFFFFFFFFFFFFFFFFFFFFF AND PUSH20 0xFFFFFFFFFFFFFFFFFFFFFFFFFFFFFFFFFFFFFFFF AND DUP2 MSTORE PUSH1 0x20 ADD SWAP1 DUP2 MSTORE PUSH1 0x20 ADD PUSH1 0x0 KECCAK256 PUSH1 0x0 ADD PUSH1 0x0 DUP3 DUP3 DUP3 SWAP1 SLOAD SWAP1 PUSH2 0x100 EXP SWAP1 DIV PUSH16 0xFFFFFFFFFFFFFFFFFFFFFFFFFFFFFFFF AND PUSH2 0x3B5B SWAP2 SWAP1 PUSH2 0x9C89 JUMP JUMPDEST SWAP3 POP PUSH2 0x100 EXP DUP2 SLOAD DUP2 PUSH16 0xFFFFFFFFFFFFFFFFFFFFFFFFFFFFFFFF MUL NOT AND SWAP1 DUP4 PUSH16 0xFFFFFFFFFFFFFFFFFFFFFFFFFFFFFFFF AND MUL OR SWAP1 SSTORE POP PUSH1 0x1 PUSH1 0x0 ADD PUSH1 0x3 SWAP1 SLOAD SWAP1 PUSH2 0x100 EXP SWAP1 DIV PUSH1 0xFF AND PUSH1 0xFF AND DUP2 PUSH1 0xA0 ADD MLOAD PUSH2 0x3BB6 SWAP2 SWAP1 PUSH2 0xA146 JUMP JUMPDEST PUSH1 0x3 PUSH1 0x0 CALLER PUSH20 0xFFFFFFFFFFFFFFFFFFFFFFFFFFFFFFFFFFFFFFFF AND PUSH20 0xFFFFFFFFFFFFFFFFFFFFFFFFFFFFFFFFFFFFFFFF AND DUP2 MSTORE PUSH1 0x20 ADD SWAP1 DUP2 MSTORE PUSH1 0x20 ADD PUSH1 0x0 KECCAK256 PUSH1 0x0 ADD PUSH1 0x0 DUP3 DUP3 DUP3 SWAP1 SLOAD SWAP1 PUSH2 0x100 EXP SWAP1 DIV PUSH16 0xFFFFFFFFFFFFFFFFFFFFFFFFFFFFFFFF AND PUSH2 0x3C22 SWAP2 SWAP1 PUSH2 0x9C89 JUMP JUMPDEST SWAP3 POP PUSH2 0x100 EXP DUP2 SLOAD DUP2 PUSH16 0xFFFFFFFFFFFFFFFFFFFFFFFFFFFFFFFF MUL NOT AND SWAP1 DUP4 PUSH16 0xFFFFFFFFFFFFFFFFFFFFFFFFFFFFFFFF AND MUL OR SWAP1 SSTORE POP JUMPDEST JUMPDEST PUSH2 0x41BC JUMP JUMPDEST PUSH1 0x0 DUP2 PUSH1 0xA0 ADD MLOAD PUSH16 0xFFFFFFFFFFFFFFFFFFFFFFFFFFFFFFFF AND GT ISZERO PUSH2 0x41BB JUMPI PUSH1 0x1 PUSH1 0x0 ADD PUSH1 0x1 SWAP1 SLOAD SWAP1 PUSH2 0x100 EXP SWAP1 DIV PUSH1 0xFF AND PUSH1 0xFF AND PUSH1 0x64 DUP3 PUSH1 0xA0 ADD MLOAD PUSH2 0x3CA5 SWAP2 SWAP1 PUSH2 0xA115 JUMP JUMPDEST PUSH2 0x3CAF SWAP2 SWAP1 PUSH2 0xA146 JUMP JUMPDEST PUSH1 0x3 PUSH1 0x0 DUP7 PUSH20 0xFFFFFFFFFFFFFFFFFFFFFFFFFFFFFFFFFFFFFFFF AND PUSH20 0xFFFFFFFFFFFFFFFFFFFFFFFFFFFFFFFFFFFFFFFF AND DUP2 MSTORE PUSH1 0x20 ADD SWAP1 DUP2 MSTORE PUSH1 0x20 ADD PUSH1 0x0 KECCAK256 PUSH1 0x0 ADD PUSH1 0x10 DUP3 DUP3 DUP3 SWAP1 SLOAD SWAP1 PUSH2 0x100 EXP SWAP1 DIV PUSH16 0xFFFFFFFFFFFFFFFFFFFFFFFFFFFFFFFF AND PUSH2 0x3D1B SWAP2 SWAP1 PUSH2 0x9C89 JUMP JUMPDEST SWAP3 POP PUSH2 0x100 EXP DUP2 SLOAD DUP2 PUSH16 0xFFFFFFFFFFFFFFFFFFFFFFFFFFFFFFFF MUL NOT AND SWAP1 DUP4 PUSH16 0xFFFFFFFFFFFFFFFFFFFFFFFFFFFFFFFF AND MUL OR SWAP1 SSTORE POP PUSH1 0x1 PUSH1 0x0 ADD PUSH1 0x0 SWAP1 SLOAD SWAP1 PUSH2 0x100 EXP SWAP1 DIV PUSH1 0xFF AND PUSH1 0xFF AND PUSH1 0x64 DUP3 PUSH1 0xA0 ADD MLOAD PUSH2 0x3D78 SWAP2 SWAP1 PUSH2 0xA115 JUMP JUMPDEST PUSH2 0x3D82 SWAP2 SWAP1 PUSH2 0xA146 JUMP JUMPDEST PUSH1 0x3 PUSH1 0x0 PUSH32 0x0 PUSH20 0xFFFFFFFFFFFFFFFFFFFFFFFFFFFFFFFFFFFFFFFF AND PUSH20 0xFFFFFFFFFFFFFFFFFFFFFFFFFFFFFFFFFFFFFFFF AND DUP2 MSTORE PUSH1 0x20 ADD SWAP1 DUP2 MSTORE PUSH1 0x20 ADD PUSH1 0x0 KECCAK256 PUSH1 0x0 ADD PUSH1 0x10 DUP3 DUP3 DUP3 SWAP1 SLOAD SWAP1 PUSH2 0x100 EXP SWAP1 DIV PUSH16 0xFFFFFFFFFFFFFFFFFFFFFFFFFFFFFFFF AND PUSH2 0x3E0E SWAP2 SWAP1 PUSH2 0x9C89 JUMP JUMPDEST SWAP3 POP PUSH2 0x100 EXP DUP2 SLOAD DUP2 PUSH16 0xFFFFFFFFFFFFFFFFFFFFFFFFFFFFFFFF MUL NOT AND SWAP1 DUP4 PUSH16 0xFFFFFFFFFFFFFFFFFFFFFFFFFFFFFFFF AND MUL OR SWAP1 SSTORE POP PUSH1 0x0 PUSH20 0xFFFFFFFFFFFFFFFFFFFFFFFFFFFFFFFFFFFFFFFF AND DUP6 PUSH20 0xFFFFFFFFFFFFFFFFFFFFFFFFFFFFFFFFFFFFFFFF AND EQ PUSH2 0x402B JUMPI PUSH1 0x1 PUSH1 0x0 ADD PUSH1 0x2 SWAP1 SLOAD SWAP1 PUSH2 0x100 EXP SWAP1 DIV PUSH1 0xFF AND PUSH1 0xFF AND DUP2 PUSH1 0xA0 ADD MLOAD PUSH2 0x3E9D SWAP2 SWAP1 PUSH2 0xA146 JUMP JUMPDEST PUSH1 0x3 PUSH1 0x0 DUP8 PUSH20 0xFFFFFFFFFFFFFFFFFFFFFFFFFFFFFFFFFFFFFFFF AND PUSH20 0xFFFFFFFFFFFFFFFFFFFFFFFFFFFFFFFFFFFFFFFF AND DUP2 MSTORE PUSH1 0x20 ADD SWAP1 DUP2 MSTORE PUSH1 0x20 ADD PUSH1 0x0 KECCAK256 PUSH1 0x0 ADD PUSH1 0x10 DUP3 DUP3 DUP3 SWAP1 SLOAD SWAP1 PUSH2 0x100 EXP SWAP1 DIV PUSH16 0xFFFFFFFFFFFFFFFFFFFFFFFFFFFFFFFF AND PUSH2 0x3F09 SWAP2 SWAP1 PUSH2 0x9C89 JUMP JUMPDEST SWAP3 POP PUSH2 0x100 EXP DUP2 SLOAD DUP2 PUSH16 0xFFFFFFFFFFFFFFFFFFFFFFFFFFFFFFFF MUL NOT AND SWAP1 DUP4 PUSH16 0xFFFFFFFFFFFFFFFFFFFFFFFFFFFFFFFF AND MUL OR SWAP1 SSTORE POP PUSH1 0x1 PUSH1 0x0 ADD PUSH1 0x3 SWAP1 SLOAD SWAP1 PUSH2 0x100 EXP SWAP1 DIV PUSH1 0xFF AND PUSH1 0xFF AND DUP2 PUSH1 0xA0 ADD MLOAD PUSH2 0x3F64 SWAP2 SWAP1 PUSH2 0xA146 JUMP JUMPDEST PUSH1 0x3 PUSH1 0x0 PUSH32 0x0 PUSH20 0xFFFFFFFFFFFFFFFFFFFFFFFFFFFFFFFFFFFFFFFF AND PUSH20 0xFFFFFFFFFFFFFFFFFFFFFFFFFFFFFFFFFFFFFFFF AND DUP2 MSTORE PUSH1 0x20 ADD SWAP1 DUP2 MSTORE PUSH1 0x20 ADD PUSH1 0x0 KECCAK256 PUSH1 0x0 ADD PUSH1 0x10 DUP3 DUP3 DUP3 SWAP1 SLOAD SWAP1 PUSH2 0x100 EXP SWAP1 DIV PUSH16 0xFFFFFFFFFFFFFFFFFFFFFFFFFFFFFFFF AND PUSH2 0x3FF0 SWAP2 SWAP1 PUSH2 0x9C89 JUMP JUMPDEST SWAP3 POP PUSH2 0x100 EXP DUP2 SLOAD DUP2 PUSH16 0xFFFFFFFFFFFFFFFFFFFFFFFFFFFFFFFF MUL NOT AND SWAP1 DUP4 PUSH16 0xFFFFFFFFFFFFFFFFFFFFFFFFFFFFFFFF AND MUL OR SWAP1 SSTORE POP PUSH2 0x41BA JUMP JUMPDEST PUSH1 0x1 PUSH1 0x0 ADD PUSH1 0x2 SWAP1 SLOAD SWAP1 PUSH2 0x100 EXP SWAP1 DIV PUSH1 0xFF AND PUSH1 0xFF AND DUP2 PUSH1 0xA0 ADD MLOAD PUSH2 0x4050 SWAP2 SWAP1 PUSH2 0xA146 JUMP JUMPDEST PUSH1 0x3 PUSH1 0x0 DUP7 PUSH20 0xFFFFFFFFFFFFFFFFFFFFFFFFFFFFFFFFFFFFFFFF AND PUSH20 0xFFFFFFFFFFFFFFFFFFFFFFFFFFFFFFFFFFFFFFFF AND DUP2 MSTORE PUSH1 0x20 ADD SWAP1 DUP2 MSTORE PUSH1 0x20 ADD PUSH1 0x0 KECCAK256 PUSH1 0x0 ADD PUSH1 0x10 DUP3 DUP3 DUP3 SWAP1 SLOAD SWAP1 PUSH2 0x100 EXP SWAP1 DIV PUSH16 0xFFFFFFFFFFFFFFFFFFFFFFFFFFFFFFFF AND PUSH2 0x40BC SWAP2 SWAP1 PUSH2 0x9C89 JUMP JUMPDEST SWAP3 POP PUSH2 0x100 EXP DUP2 SLOAD DUP2 PUSH16 0xFFFFFFFFFFFFFFFFFFFFFFFFFFFFFFFF MUL NOT AND SWAP1 DUP4 PUSH16 0xFFFFFFFFFFFFFFFFFFFFFFFFFFFFFFFF AND MUL OR SWAP1 SSTORE POP PUSH1 0x1 PUSH1 0x0 ADD PUSH1 0x3 SWAP1 SLOAD SWAP1 PUSH2 0x100 EXP SWAP1 DIV PUSH1 0xFF AND PUSH1 0xFF AND DUP2 PUSH1 0xA0 ADD MLOAD PUSH2 0x4117 SWAP2 SWAP1 PUSH2 0xA146 JUMP JUMPDEST PUSH1 0x3 PUSH1 0x0 CALLER PUSH20 0xFFFFFFFFFFFFFFFFFFFFFFFFFFFFFFFFFFFFFFFF AND PUSH20 0xFFFFFFFFFFFFFFFFFFFFFFFFFFFFFFFFFFFFFFFF AND DUP2 MSTORE PUSH1 0x20 ADD SWAP1 DUP2 MSTORE PUSH1 0x20 ADD PUSH1 0x0 KECCAK256 PUSH1 0x0 ADD PUSH1 0x10 DUP3 DUP3 DUP3 SWAP1 SLOAD SWAP1 PUSH2 0x100 EXP SWAP1 DIV PUSH16 0xFFFFFFFFFFFFFFFFFFFFFFFFFFFFFFFF AND PUSH2 0x4183 SWAP2 SWAP1 PUSH2 0x9C89 JUMP JUMPDEST SWAP3 POP PUSH2 0x100 EXP DUP2 SLOAD DUP2 PUSH16 0xFFFFFFFFFFFFFFFFFFFFFFFFFFFFFFFF MUL NOT AND SWAP1 DUP4 PUSH16 0xFFFFFFFFFFFFFFFFFFFFFFFFFFFFFFFF AND MUL OR SWAP1 SSTORE POP JUMPDEST JUMPDEST JUMPDEST DUP2 ISZERO ISZERO DUP16 ISZERO ISZERO EQ PUSH2 0x41E1 JUMPI DUP1 PUSH1 0x20 ADD MLOAD DUP2 PUSH1 0x0 ADD MLOAD DUP16 PUSH2 0x41DC SWAP2 SWAP1 PUSH2 0xA033 JUMP JUMPDEST PUSH2 0x41F7 JUMP JUMPDEST DUP1 PUSH1 0x0 ADD MLOAD DUP15 PUSH2 0x41F1 SWAP2 SWAP1 PUSH2 0xA033 JUMP JUMPDEST DUP2 PUSH1 0x20 ADD MLOAD JUMPDEST DUP1 SWAP11 POP DUP2 SWAP12 POP POP POP DUP15 ISZERO PUSH2 0x42B1 JUMPI PUSH1 0x0 DUP10 SLT ISZERO PUSH2 0x4243 JUMPI PUSH2 0x4242 PUSH32 0x0 DUP9 DUP12 PUSH2 0x423D SWAP1 PUSH2 0x9D15 JUMP JUMPDEST PUSH2 0x4947 JUMP JUMPDEST JUMPDEST PUSH1 0x0 PUSH2 0x424D PUSH2 0x4DC3 JUMP JUMPDEST SWAP1 POP PUSH2 0x4257 PUSH2 0x4DC3 JUMP JUMPDEST PUSH2 0x426A DUP13 DUP4 PUSH2 0x5031 SWAP1 SWAP2 SWAP1 PUSH4 0xFFFFFFFF AND JUMP JUMPDEST GT ISZERO PUSH2 0x42AB JUMPI PUSH1 0x40 MLOAD PUSH32 0x8C379A000000000000000000000000000000000000000000000000000000000 DUP2 MSTORE PUSH1 0x4 ADD PUSH2 0x42A2 SWAP1 PUSH2 0xA1DC JUMP JUMPDEST PUSH1 0x40 MLOAD DUP1 SWAP2 SUB SWAP1 REVERT JUMPDEST POP PUSH2 0x4359 JUMP JUMPDEST PUSH1 0x0 DUP11 SLT ISZERO PUSH2 0x42EF JUMPI PUSH2 0x42EE PUSH32 0x0 DUP9 DUP13 PUSH2 0x42E9 SWAP1 PUSH2 0x9D15 JUMP JUMPDEST PUSH2 0x4947 JUMP JUMPDEST JUMPDEST PUSH1 0x0 PUSH2 0x42F9 PUSH2 0x4EFA JUMP JUMPDEST SWAP1 POP PUSH2 0x4303 PUSH2 0x4EFA JUMP JUMPDEST PUSH2 0x4316 DUP12 DUP4 PUSH2 0x5031 SWAP1 SWAP2 SWAP1 PUSH4 0xFFFFFFFF AND JUMP JUMPDEST GT ISZERO PUSH2 0x4357 JUMPI PUSH1 0x40 MLOAD PUSH32 0x8C379A000000000000000000000000000000000000000000000000000000000 DUP2 MSTORE PUSH1 0x4 ADD PUSH2 0x434E SWAP1 PUSH2 0xA1DC JUMP JUMPDEST PUSH1 0x40 MLOAD DUP1 SWAP2 SUB SWAP1 REVERT JUMPDEST POP JUMPDEST DUP7 PUSH20 0xFFFFFFFFFFFFFFFFFFFFFFFFFFFFFFFFFFFFFFFF AND CALLER PUSH20 0xFFFFFFFFFFFFFFFFFFFFFFFFFFFFFFFFFFFFFFFF AND PUSH32 0xC42079F94A6350D7E6235F29174924F928CC2AC818EB64FED8004E115FBCCA67 DUP13 DUP13 DUP6 PUSH1 0x40 ADD MLOAD DUP7 PUSH1 0xC0 ADD MLOAD DUP8 PUSH1 0x60 ADD MLOAD PUSH1 0x40 MLOAD PUSH2 0x43CA SWAP6 SWAP5 SWAP4 SWAP3 SWAP2 SWAP1 PUSH2 0xA1FC JUMP JUMPDEST PUSH1 0x40 MLOAD DUP1 SWAP2 SUB SWAP1 LOG3 PUSH1 0x1 PUSH1 0x4 PUSH1 0x0 ADD PUSH1 0x1E PUSH2 0x100 EXP DUP2 SLOAD DUP2 PUSH1 0xFF MUL NOT AND SWAP1 DUP4 ISZERO ISZERO MUL OR SWAP1 SSTORE POP POP POP POP POP POP POP POP POP SWAP8 POP SWAP8 SWAP6 POP POP POP POP POP POP JUMP JUMPDEST PUSH1 0x1 DUP1 PUSH1 0x0 ADD PUSH1 0x0 SWAP1 SLOAD SWAP1 PUSH2 0x100 EXP SWAP1 DIV PUSH1 0xFF AND SWAP1 DUP1 PUSH1 0x0 ADD PUSH1 0x1 SWAP1 SLOAD SWAP1 PUSH2 0x100 EXP SWAP1 DIV PUSH1 0xFF AND SWAP1 DUP1 PUSH1 0x0 ADD PUSH1 0x2 SWAP1 SLOAD SWAP1 PUSH2 0x100 EXP SWAP1 DIV PUSH1 0xFF AND SWAP1 DUP1 PUSH1 0x0 ADD PUSH1 0x3 SWAP1 SLOAD SWAP1 PUSH2 0x100 EXP SWAP1 DIV PUSH1 0xFF AND SWAP1 POP DUP5 JUMP JUMPDEST PUSH1 0x2 PUSH1 0x15 SWAP1 SLOAD SWAP1 PUSH2 0x100 EXP SWAP1 DIV PUSH1 0xFF AND DUP2 JUMP JUMPDEST PUSH1 0x4 PUSH1 0x0 ADD PUSH1 0x1E SWAP1 SLOAD SWAP1 PUSH2 0x100 EXP SWAP1 DIV PUSH1 0xFF AND PUSH2 0x44BB JUMPI PUSH1 0x40 MLOAD PUSH32 0x8C379A000000000000000000000000000000000000000000000000000000000 DUP2 MSTORE PUSH1 0x4 ADD PUSH2 0x44B2 SWAP1 PUSH2 0x976A JUMP JUMPDEST PUSH1 0x40 MLOAD DUP1 SWAP2 SUB SWAP1 REVERT JUMPDEST PUSH1 0x0 PUSH1 0x4 PUSH1 0x0 ADD PUSH1 0x1E PUSH2 0x100 EXP DUP2 SLOAD DUP2 PUSH1 0xFF MUL NOT AND SWAP1 DUP4 ISZERO ISZERO MUL OR SWAP1 SSTORE POP PUSH2 0x44E1 PUSH2 0x5054 JUMP JUMPDEST PUSH1 0x0 PUSH1 0x4 PUSH1 0x0 ADD PUSH1 0x1B SWAP1 SLOAD SWAP1 PUSH2 0x100 EXP SWAP1 DIV PUSH2 0xFFFF AND SWAP1 POP PUSH1 0x0 PUSH2 0x4511 DUP3 DUP5 PUSH1 0xB PUSH2 0x6A10 SWAP1 SWAP3 SWAP2 SWAP1 PUSH4 0xFFFFFFFF AND JUMP JUMPDEST SWAP1 POP DUP1 PUSH1 0x4 PUSH1 0x0 ADD PUSH1 0x1B PUSH2 0x100 EXP DUP2 SLOAD DUP2 PUSH2 0xFFFF MUL NOT AND SWAP1 DUP4 PUSH2 0xFFFF AND MUL OR SWAP1 SSTORE POP DUP1 PUSH2 0xFFFF AND DUP3 PUSH2 0xFFFF AND EQ PUSH2 0x457C JUMPI PUSH32 0xAC49E518F90A358F652E4400164F05A5D8F7E35E7747279BC3A93DBF584E125A DUP3 DUP3 PUSH1 0x40 MLOAD PUSH2 0x4573 SWAP3 SWAP2 SWAP1 PUSH2 0xA24F JUMP JUMPDEST PUSH1 0x40 MLOAD DUP1 SWAP2 SUB SWAP1 LOG1 JUMPDEST POP POP PUSH1 0x1 PUSH1 0x4 PUSH1 0x0 ADD PUSH1 0x1E PUSH2 0x100 EXP DUP2 SLOAD DUP2 PUSH1 0xFF MUL NOT AND SWAP1 DUP4 ISZERO ISZERO MUL OR SWAP1 SSTORE POP POP JUMP JUMPDEST PUSH32 0x0 DUP2 JUMP JUMPDEST PUSH1 0x0 PUSH1 0x4 PUSH1 0x0 ADD PUSH1 0x0 SWAP1 SLOAD SWAP1 PUSH2 0x100 EXP SWAP1 DIV PUSH20 0xFFFFFFFFFFFFFFFFFFFFFFFFFFFFFFFFFFFFFFFF AND PUSH20 0xFFFFFFFFFFFFFFFFFFFFFFFFFFFFFFFFFFFFFFFF AND EQ PUSH2 0x4641 JUMPI PUSH1 0x40 MLOAD PUSH32 0x8C379A000000000000000000000000000000000000000000000000000000000 DUP2 MSTORE PUSH1 0x4 ADD PUSH2 0x4638 SWAP1 PUSH2 0xA2C4 JUMP JUMPDEST PUSH1 0x40 MLOAD DUP1 SWAP2 SUB SWAP1 REVERT JUMPDEST PUSH1 0x0 PUSH2 0x464C DUP3 PUSH2 0x63C6 JUMP JUMPDEST SWAP1 POP PUSH1 0x0 DUP1 PUSH2 0x466C PUSH2 0x465C PUSH2 0x50AE JUMP JUMPDEST PUSH1 0xB PUSH2 0x6AE0 SWAP1 SWAP2 SWAP1 PUSH4 0xFFFFFFFF AND JUMP JUMPDEST SWAP2 POP SWAP2 POP PUSH1 0x40 MLOAD DUP1 PUSH1 0xE0 ADD PUSH1 0x40 MSTORE DUP1 DUP6 PUSH20 0xFFFFFFFFFFFFFFFFFFFFFFFFFFFFFFFFFFFFFFFF AND DUP2 MSTORE PUSH1 0x20 ADD DUP5 PUSH1 0x2 SIGNEXTEND DUP2 MSTORE PUSH1 0x20 ADD PUSH1 0x0 PUSH2 0xFFFF AND DUP2 MSTORE PUSH1 0x20 ADD DUP4 PUSH2 0xFFFF AND DUP2 MSTORE PUSH1 0x20 ADD DUP3 PUSH2 0xFFFF AND DUP2 MSTORE PUSH1 0x20 ADD PUSH1 0x0 PUSH1 0xFF AND DUP2 MSTORE PUSH1 0x20 ADD PUSH1 0x1 ISZERO ISZERO DUP2 MSTORE POP PUSH1 0x4 PUSH1 0x0 DUP3 ADD MLOAD DUP2 PUSH1 0x0 ADD PUSH1 0x0 PUSH2 0x100 EXP DUP2 SLOAD DUP2 PUSH20 0xFFFFFFFFFFFFFFFFFFFFFFFFFFFFFFFFFFFFFFFF MUL NOT AND SWAP1 DUP4 PUSH20 0xFFFFFFFFFFFFFFFFFFFFFFFFFFFFFFFFFFFFFFFF AND MUL OR SWAP1 SSTORE POP PUSH1 0x20 DUP3 ADD MLOAD DUP2 PUSH1 0x0 ADD PUSH1 0x14 PUSH2 0x100 EXP DUP2 SLOAD DUP2 PUSH3 0xFFFFFF MUL NOT AND SWAP1 DUP4 PUSH1 0x2 SIGNEXTEND PUSH3 0xFFFFFF AND MUL OR SWAP1 SSTORE POP PUSH1 0x40 DUP3 ADD MLOAD DUP2 PUSH1 0x0 ADD PUSH1 0x17 PUSH2 0x100 EXP DUP2 SLOAD DUP2 PUSH2 0xFFFF MUL NOT AND SWAP1 DUP4 PUSH2 0xFFFF AND MUL OR SWAP1 SSTORE POP PUSH1 0x60 DUP3 ADD MLOAD DUP2 PUSH1 0x0 ADD PUSH1 0x19 PUSH2 0x100 EXP DUP2 SLOAD DUP2 PUSH2 0xFFFF MUL NOT AND SWAP1 DUP4 PUSH2 0xFFFF AND MUL OR SWAP1 SSTORE POP PUSH1 0x80 DUP3 ADD MLOAD DUP2 PUSH1 0x0 ADD PUSH1 0x1B PUSH2 0x100 EXP DUP2 SLOAD DUP2 PUSH2 0xFFFF MUL NOT AND SWAP1 DUP4 PUSH2 0xFFFF AND MUL OR SWAP1 SSTORE POP PUSH1 0xA0 DUP3 ADD MLOAD DUP2 PUSH1 0x0 ADD PUSH1 0x1D PUSH2 0x100 EXP DUP2 SLOAD DUP2 PUSH1 0xFF MUL NOT AND SWAP1 DUP4 PUSH1 0xFF AND MUL OR SWAP1 SSTORE POP PUSH1 0xC0 DUP3 ADD MLOAD DUP2 PUSH1 0x0 ADD PUSH1 0x1E PUSH2 0x100 EXP DUP2 SLOAD DUP2 PUSH1 0xFF MUL NOT AND SWAP1 DUP4 ISZERO ISZERO MUL OR SWAP1 SSTORE POP SWAP1 POP POP PUSH32 0x98636036CB66A9C19A37435EFC1E90142190214E8ABEB821BDBA3F2990DD4C95 DUP5 DUP5 PUSH1 0x40 MLOAD PUSH2 0x481F SWAP3 SWAP2 SWAP1 PUSH2 0xA2E4 JUMP JUMPDEST PUSH1 0x40 MLOAD DUP1 SWAP2 SUB SWAP1 LOG1 POP POP POP POP JUMP JUMPDEST PUSH1 0x0 DUP1 DUP3 DUP4 PUSH32 0xFFFFFFFFFFFFFFFFFFFFFFFFFFFFFFFFFFFFFFFFFFFFFFFFFFFFFFFFFFF27618 PUSH2 0x485D SWAP2 SWAP1 PUSH2 0xA30D JUMP JUMPDEST PUSH2 0x4867 SWAP2 SWAP1 PUSH2 0xA377 JUMP JUMPDEST SWAP1 POP PUSH1 0x0 DUP4 DUP5 PUSH32 0xFFFFFFFFFFFFFFFFFFFFFFFFFFFFFFFFFFFFFFFFFFFFFFFFFFFFFFFFFFF27618 PUSH2 0x4897 SWAP1 PUSH2 0x9FB7 JUMP JUMPDEST PUSH2 0x48A1 SWAP2 SWAP1 PUSH2 0xA30D JUMP JUMPDEST PUSH2 0x48AB SWAP2 SWAP1 PUSH2 0xA377 JUMP JUMPDEST SWAP1 POP PUSH1 0x0 PUSH1 0x1 DUP6 DUP5 DUP5 PUSH2 0x48BE SWAP2 SWAP1 PUSH2 0xA0BA JUMP JUMPDEST PUSH2 0x48C8 SWAP2 SWAP1 PUSH2 0xA30D JUMP JUMPDEST PUSH2 0x48D2 SWAP2 SWAP1 PUSH2 0xA454 JUMP JUMPDEST SWAP1 POP DUP1 PUSH3 0xFFFFFF AND PUSH16 0xFFFFFFFFFFFFFFFFFFFFFFFFFFFFFFFF PUSH2 0x48F5 SWAP2 SWAP1 PUSH2 0xA115 JUMP JUMPDEST SWAP4 POP POP POP POP SWAP2 SWAP1 POP JUMP JUMPDEST PUSH1 0x0 DUP5 PUSH1 0x0 DUP6 DUP6 DUP6 PUSH1 0x40 MLOAD PUSH1 0x20 ADD PUSH2 0x4919 SWAP4 SWAP3 SWAP2 SWAP1 PUSH2 0xA509 JUMP JUMPDEST PUSH1 0x40 MLOAD PUSH1 0x20 DUP2 DUP4 SUB SUB DUP2 MSTORE SWAP1 PUSH1 0x40 MSTORE DUP1 MLOAD SWAP1 PUSH1 0x20 ADD KECCAK256 DUP2 MSTORE PUSH1 0x20 ADD SWAP1 DUP2 MSTORE PUSH1 0x20 ADD PUSH1 0x0 KECCAK256 SWAP1 POP SWAP5 SWAP4 POP POP POP POP JUMP JUMPDEST PUSH1 0x0 DUP1 DUP5 PUSH20 0xFFFFFFFFFFFFFFFFFFFFFFFFFFFFFFFFFFFFFFFF AND PUSH4 0xA9059CBB PUSH1 0xE0 SHL DUP6 DUP6 PUSH1 0x40 MLOAD PUSH1 0x24 ADD PUSH2 0x497C SWAP3 SWAP2 SWAP1 PUSH2 0xA546 JUMP JUMPDEST PUSH1 0x40 MLOAD PUSH1 0x20 DUP2 DUP4 SUB SUB DUP2 MSTORE SWAP1 PUSH1 0x40 MSTORE SWAP1 PUSH28 0xFFFFFFFFFFFFFFFFFFFFFFFFFFFFFFFFFFFFFFFFFFFFFFFFFFFFFFFF NOT AND PUSH1 0x20 DUP3 ADD DUP1 MLOAD PUSH28 0xFFFFFFFFFFFFFFFFFFFFFFFFFFFFFFFFFFFFFFFFFFFFFFFFFFFFFFFF DUP4 DUP2 DUP4 AND OR DUP4 MSTORE POP POP POP POP PUSH1 0x40 MLOAD PUSH2 0x49E6 SWAP2 SWAP1 PUSH2 0xA5E0 JUMP JUMPDEST PUSH1 0x0 PUSH1 0x40 MLOAD DUP1 DUP4 SUB DUP2 PUSH1 0x0 DUP7 GAS CALL SWAP2 POP POP RETURNDATASIZE DUP1 PUSH1 0x0 DUP2 EQ PUSH2 0x4A23 JUMPI PUSH1 0x40 MLOAD SWAP2 POP PUSH1 0x1F NOT PUSH1 0x3F RETURNDATASIZE ADD AND DUP3 ADD PUSH1 0x40 MSTORE RETURNDATASIZE DUP3 MSTORE RETURNDATASIZE PUSH1 0x0 PUSH1 0x20 DUP5 ADD RETURNDATACOPY PUSH2 0x4A28 JUMP JUMPDEST PUSH1 0x60 SWAP2 POP JUMPDEST POP SWAP2 POP SWAP2 POP DUP2 DUP1 ISZERO PUSH2 0x4A56 JUMPI POP PUSH1 0x0 DUP2 MLOAD EQ DUP1 PUSH2 0x4A55 JUMPI POP DUP1 DUP1 PUSH1 0x20 ADD SWAP1 MLOAD DUP2 ADD SWAP1 PUSH2 0x4A54 SWAP2 SWAP1 PUSH2 0x96E0 JUMP JUMPDEST JUMPDEST JUMPDEST PUSH2 0x4A95 JUMPI PUSH1 0x40 MLOAD PUSH32 0x8C379A000000000000000000000000000000000000000000000000000000000 DUP2 MSTORE PUSH1 0x4 ADD PUSH2 0x4A8C SWAP1 PUSH2 0xA643 JUMP JUMPDEST PUSH1 0x40 MLOAD DUP1 SWAP2 SUB SWAP1 REVERT JUMPDEST POP POP POP POP POP JUMP JUMPDEST PUSH1 0x0 DUP1 PUSH1 0x0 PUSH2 0x4AA9 PUSH2 0x5054 JUMP JUMPDEST PUSH2 0x4ABB DUP5 PUSH1 0x20 ADD MLOAD DUP6 PUSH1 0x40 ADD MLOAD PUSH2 0x52C8 JUMP JUMPDEST PUSH1 0x0 PUSH1 0x4 PUSH1 0x40 MLOAD DUP1 PUSH1 0xE0 ADD PUSH1 0x40 MSTORE SWAP1 DUP2 PUSH1 0x0 DUP3 ADD PUSH1 0x0 SWAP1 SLOAD SWAP1 PUSH2 0x100 EXP SWAP1 DIV PUSH20 0xFFFFFFFFFFFFFFFFFFFFFFFFFFFFFFFFFFFFFFFF AND PUSH20 0xFFFFFFFFFFFFFFFFFFFFFFFFFFFFFFFFFFFFFFFF AND PUSH20 0xFFFFFFFFFFFFFFFFFFFFFFFFFFFFFFFFFFFFFFFF AND DUP2 MSTORE PUSH1 0x20 ADD PUSH1 0x0 DUP3 ADD PUSH1 0x14 SWAP1 SLOAD SWAP1 PUSH2 0x100 EXP SWAP1 DIV PUSH1 0x2 SIGNEXTEND PUSH1 0x2 SIGNEXTEND PUSH1 0x2 SIGNEXTEND DUP2 MSTORE PUSH1 0x20 ADD PUSH1 0x0 DUP3 ADD PUSH1 0x17 SWAP1 SLOAD SWAP1 PUSH2 0x100 EXP SWAP1 DIV PUSH2 0xFFFF AND PUSH2 0xFFFF AND PUSH2 0xFFFF AND DUP2 MSTORE PUSH1 0x20 ADD PUSH1 0x0 DUP3 ADD PUSH1 0x19 SWAP1 SLOAD SWAP1 PUSH2 0x100 EXP SWAP1 DIV PUSH2 0xFFFF AND PUSH2 0xFFFF AND PUSH2 0xFFFF AND DUP2 MSTORE PUSH1 0x20 ADD PUSH1 0x0 DUP3 ADD PUSH1 0x1B SWAP1 SLOAD SWAP1 PUSH2 0x100 EXP SWAP1 DIV PUSH2 0xFFFF AND PUSH2 0xFFFF AND PUSH2 0xFFFF AND DUP2 MSTORE PUSH1 0x20 ADD PUSH1 0x0 DUP3 ADD PUSH1 0x1D SWAP1 SLOAD SWAP1 PUSH2 0x100 EXP SWAP1 DIV PUSH1 0xFF AND PUSH1 0xFF AND PUSH1 0xFF AND DUP2 MSTORE PUSH1 0x20 ADD PUSH1 0x0 DUP3 ADD PUSH1 0x1E SWAP1 SLOAD SWAP1 PUSH2 0x100 EXP SWAP1 DIV PUSH1 0xFF AND ISZERO ISZERO ISZERO ISZERO DUP2 MSTORE POP POP SWAP1 POP PUSH2 0x4BF8 DUP6 PUSH1 0x0 ADD MLOAD DUP7 PUSH1 0x20 ADD MLOAD DUP8 PUSH1 0x40 ADD MLOAD DUP9 PUSH1 0x60 ADD MLOAD DUP6 PUSH1 0x20 ADD MLOAD PUSH2 0x6C0D JUMP JUMPDEST SWAP4 POP PUSH1 0x0 DUP6 PUSH1 0x60 ADD MLOAD PUSH1 0xF SIGNEXTEND EQ PUSH2 0x4DBB JUMPI DUP5 PUSH1 0x20 ADD MLOAD PUSH1 0x2 SIGNEXTEND DUP2 PUSH1 0x20 ADD MLOAD PUSH1 0x2 SIGNEXTEND SLT ISZERO PUSH2 0x4C4D JUMPI PUSH2 0x4C46 PUSH2 0x4C2F DUP7 PUSH1 0x20 ADD MLOAD PUSH2 0x584A JUMP JUMPDEST PUSH2 0x4C3C DUP8 PUSH1 0x40 ADD MLOAD PUSH2 0x584A JUMP JUMPDEST DUP8 PUSH1 0x60 ADD MLOAD PUSH2 0x6E2A JUMP JUMPDEST SWAP3 POP PUSH2 0x4DBA JUMP JUMPDEST DUP5 PUSH1 0x40 ADD MLOAD PUSH1 0x2 SIGNEXTEND DUP2 PUSH1 0x20 ADD MLOAD PUSH1 0x2 SIGNEXTEND SLT ISZERO PUSH2 0x4D8F JUMPI PUSH1 0x0 PUSH1 0x7 PUSH1 0x0 SWAP1 SLOAD SWAP1 PUSH2 0x100 EXP SWAP1 DIV PUSH16 0xFFFFFFFFFFFFFFFFFFFFFFFFFFFFFFFF AND SWAP1 POP PUSH2 0x4CBB DUP3 PUSH1 0x40 ADD MLOAD PUSH2 0x4C96 PUSH2 0x50AE JUMP JUMPDEST DUP5 PUSH1 0x20 ADD MLOAD DUP5 DUP7 PUSH1 0x60 ADD MLOAD DUP8 PUSH1 0x80 ADD MLOAD PUSH1 0xB PUSH2 0x67C5 SWAP1 SWAP7 SWAP6 SWAP5 SWAP4 SWAP3 SWAP2 SWAP1 PUSH4 0xFFFFFFFF AND JUMP JUMPDEST PUSH1 0x4 PUSH1 0x0 ADD PUSH1 0x17 PUSH1 0x4 PUSH1 0x0 ADD PUSH1 0x19 DUP5 SWAP2 SWAP1 PUSH2 0x100 EXP DUP2 SLOAD DUP2 PUSH2 0xFFFF MUL NOT AND SWAP1 DUP4 PUSH2 0xFFFF AND MUL OR SWAP1 SSTORE POP DUP4 SWAP2 SWAP1 PUSH2 0x100 EXP DUP2 SLOAD DUP2 PUSH2 0xFFFF MUL NOT AND SWAP1 DUP4 PUSH2 0xFFFF AND MUL OR SWAP1 SSTORE POP POP POP PUSH2 0x4D20 DUP3 PUSH1 0x0 ADD MLOAD PUSH2 0x4D16 DUP9 PUSH1 0x40 ADD MLOAD PUSH2 0x584A JUMP JUMPDEST DUP9 PUSH1 0x60 ADD MLOAD PUSH2 0x6E2A JUMP JUMPDEST SWAP4 POP PUSH2 0x4D41 PUSH2 0x4D32 DUP8 PUSH1 0x20 ADD MLOAD PUSH2 0x584A JUMP JUMPDEST DUP4 PUSH1 0x0 ADD MLOAD DUP9 PUSH1 0x60 ADD MLOAD PUSH2 0x6E81 JUMP JUMPDEST SWAP3 POP PUSH2 0x4D51 DUP2 DUP8 PUSH1 0x60 ADD MLOAD PUSH2 0x62BB JUMP JUMPDEST PUSH1 0x7 PUSH1 0x0 PUSH2 0x100 EXP DUP2 SLOAD DUP2 PUSH16 0xFFFFFFFFFFFFFFFFFFFFFFFFFFFFFFFF MUL NOT AND SWAP1 DUP4 PUSH16 0xFFFFFFFFFFFFFFFFFFFFFFFFFFFFFFFF AND MUL OR SWAP1 SSTORE POP POP PUSH2 0x4DB9 JUMP JUMPDEST PUSH2 0x4DB6 PUSH2 0x4D9F DUP7 PUSH1 0x20 ADD MLOAD PUSH2 0x584A JUMP JUMPDEST PUSH2 0x4DAC DUP8 PUSH1 0x40 ADD MLOAD PUSH2 0x584A JUMP JUMPDEST DUP8 PUSH1 0x60 ADD MLOAD PUSH2 0x6E81 JUMP JUMPDEST SWAP2 POP JUMPDEST JUMPDEST JUMPDEST POP SWAP2 SWAP4 SWAP1 SWAP3 POP JUMP JUMPDEST PUSH1 0x0 DUP1 PUSH1 0x0 PUSH32 0x0 PUSH20 0xFFFFFFFFFFFFFFFFFFFFFFFFFFFFFFFFFFFFFFFF AND PUSH4 0x70A08231 PUSH1 0xE0 SHL ADDRESS PUSH1 0x40 MLOAD PUSH1 0x24 ADD PUSH2 0x4E18 SWAP2 SWAP1 PUSH2 0x8913 JUMP JUMPDEST PUSH1 0x40 MLOAD PUSH1 0x20 DUP2 DUP4 SUB SUB DUP2 MSTORE SWAP1 PUSH1 0x40 MSTORE SWAP1 PUSH28 0xFFFFFFFFFFFFFFFFFFFFFFFFFFFFFFFFFFFFFFFFFFFFFFFFFFFFFFFF NOT AND PUSH1 0x20 DUP3 ADD DUP1 MLOAD PUSH28 0xFFFFFFFFFFFFFFFFFFFFFFFFFFFFFFFFFFFFFFFFFFFFFFFFFFFFFFFF DUP4 DUP2 DUP4 AND OR DUP4 MSTORE POP POP POP POP PUSH1 0x40 MLOAD PUSH2 0x4E82 SWAP2 SWAP1 PUSH2 0xA5E0 JUMP JUMPDEST PUSH1 0x0 PUSH1 0x40 MLOAD DUP1 DUP4 SUB DUP2 DUP6 GAS STATICCALL SWAP2 POP POP RETURNDATASIZE DUP1 PUSH1 0x0 DUP2 EQ PUSH2 0x4EBD JUMPI PUSH1 0x40 MLOAD SWAP2 POP PUSH1 0x1F NOT PUSH1 0x3F RETURNDATASIZE ADD AND DUP3 ADD PUSH1 0x40 MSTORE RETURNDATASIZE DUP3 MSTORE RETURNDATASIZE PUSH1 0x0 PUSH1 0x20 DUP5 ADD RETURNDATACOPY PUSH2 0x4EC2 JUMP JUMPDEST PUSH1 0x60 SWAP2 POP JUMPDEST POP SWAP2 POP SWAP2 POP DUP2 DUP1 ISZERO PUSH2 0x4ED6 JUMPI POP PUSH1 0x20 DUP2 MLOAD LT ISZERO JUMPDEST PUSH2 0x4EDF JUMPI PUSH1 0x0 DUP1 REVERT JUMPDEST DUP1 DUP1 PUSH1 0x20 ADD SWAP1 MLOAD DUP2 ADD SWAP1 PUSH2 0x4EF3 SWAP2 SWAP1 PUSH2 0xA678 JUMP JUMPDEST SWAP3 POP POP POP SWAP1 JUMP JUMPDEST PUSH1 0x0 DUP1 PUSH1 0x0 PUSH32 0x0 PUSH20 0xFFFFFFFFFFFFFFFFFFFFFFFFFFFFFFFFFFFFFFFF AND PUSH4 0x70A08231 PUSH1 0xE0 SHL ADDRESS PUSH1 0x40 MLOAD PUSH1 0x24 ADD PUSH2 0x4F4F SWAP2 SWAP1 PUSH2 0x8913 JUMP JUMPDEST PUSH1 0x40 MLOAD PUSH1 0x20 DUP2 DUP4 SUB SUB DUP2 MSTORE SWAP1 PUSH1 0x40 MSTORE SWAP1 PUSH28 0xFFFFFFFFFFFFFFFFFFFFFFFFFFFFFFFFFFFFFFFFFFFFFFFFFFFFFFFF NOT AND PUSH1 0x20 DUP3 ADD DUP1 MLOAD PUSH28 0xFFFFFFFFFFFFFFFFFFFFFFFFFFFFFFFFFFFFFFFFFFFFFFFFFFFFFFFF DUP4 DUP2 DUP4 AND OR DUP4 MSTORE POP POP POP POP PUSH1 0x40 MLOAD PUSH2 0x4FB9 SWAP2 SWAP1 PUSH2 0xA5E0 JUMP JUMPDEST PUSH1 0x0 PUSH1 0x40 MLOAD DUP1 DUP4 SUB DUP2 DUP6 GAS STATICCALL SWAP2 POP POP RETURNDATASIZE DUP1 PUSH1 0x0 DUP2 EQ PUSH2 0x4FF4 JUMPI PUSH1 0x40 MLOAD SWAP2 POP PUSH1 0x1F NOT PUSH1 0x3F RETURNDATASIZE ADD AND DUP3 ADD PUSH1 0x40 MSTORE RETURNDATASIZE DUP3 MSTORE RETURNDATASIZE PUSH1 0x0 PUSH1 0x20 DUP5 ADD RETURNDATACOPY PUSH2 0x4FF9 JUMP JUMPDEST PUSH1 0x60 SWAP2 POP JUMPDEST POP SWAP2 POP SWAP2 POP DUP2 DUP1 ISZERO PUSH2 0x500D JUMPI POP PUSH1 0x20 DUP2 MLOAD LT ISZERO JUMPDEST PUSH2 0x5016 JUMPI PUSH1 0x0 DUP1 REVERT JUMPDEST DUP1 DUP1 PUSH1 0x20 ADD SWAP1 MLOAD DUP2 ADD SWAP1 PUSH2 0x502A SWAP2 SWAP1 PUSH2 0xA678 JUMP JUMPDEST SWAP3 POP POP POP SWAP1 JUMP JUMPDEST PUSH1 0x0 DUP3 DUP3 DUP5 PUSH2 0x5040 SWAP2 SWAP1 PUSH2 0x9FFF JUMP JUMPDEST SWAP2 POP DUP2 LT ISZERO PUSH2 0x504E JUMPI PUSH1 0x0 DUP1 REVERT JUMPDEST SWAP3 SWAP2 POP POP JUMP JUMPDEST PUSH32 0x0 PUSH20 0xFFFFFFFFFFFFFFFFFFFFFFFFFFFFFFFFFFFFFFFF AND ADDRESS PUSH20 0xFFFFFFFFFFFFFFFFFFFFFFFFFFFFFFFFFFFFFFFF AND EQ PUSH2 0x50AC JUMPI PUSH1 0x0 DUP1 REVERT JUMPDEST JUMP JUMPDEST PUSH1 0x0 TIMESTAMP SWAP1 POP SWAP1 JUMP JUMPDEST PUSH1 0x60 DUP1 PUSH1 0x0 DUP4 PUSH2 0xFFFF AND GT PUSH2 0x5100 JUMPI PUSH1 0x40 MLOAD PUSH32 0x8C379A000000000000000000000000000000000000000000000000000000000 DUP2 MSTORE PUSH1 0x4 ADD PUSH2 0x50F7 SWAP1 PUSH2 0xA6F1 JUMP JUMPDEST PUSH1 0x40 MLOAD DUP1 SWAP2 SUB SWAP1 REVERT JUMPDEST DUP7 MLOAD PUSH8 0xFFFFFFFFFFFFFFFF DUP2 GT ISZERO PUSH2 0x511B JUMPI PUSH2 0x511A PUSH2 0xA711 JUMP JUMPDEST JUMPDEST PUSH1 0x40 MLOAD SWAP1 DUP1 DUP3 MSTORE DUP1 PUSH1 0x20 MUL PUSH1 0x20 ADD DUP3 ADD PUSH1 0x40 MSTORE DUP1 ISZERO PUSH2 0x5149 JUMPI DUP2 PUSH1 0x20 ADD PUSH1 0x20 DUP3 MUL DUP1 CALLDATASIZE DUP4 CALLDATACOPY DUP1 DUP3 ADD SWAP2 POP POP SWAP1 POP JUMPDEST POP SWAP2 POP DUP7 MLOAD PUSH8 0xFFFFFFFFFFFFFFFF DUP2 GT ISZERO PUSH2 0x5167 JUMPI PUSH2 0x5166 PUSH2 0xA711 JUMP JUMPDEST JUMPDEST PUSH1 0x40 MLOAD SWAP1 DUP1 DUP3 MSTORE DUP1 PUSH1 0x20 MUL PUSH1 0x20 ADD DUP3 ADD PUSH1 0x40 MSTORE DUP1 ISZERO PUSH2 0x5195 JUMPI DUP2 PUSH1 0x20 ADD PUSH1 0x20 DUP3 MUL DUP1 CALLDATASIZE DUP4 CALLDATACOPY DUP1 DUP3 ADD SWAP2 POP POP SWAP1 POP JUMPDEST POP SWAP1 POP PUSH1 0x0 JUMPDEST DUP8 MLOAD DUP2 LT ISZERO PUSH2 0x5250 JUMPI PUSH2 0x51CD DUP11 DUP11 DUP11 DUP5 DUP2 MLOAD DUP2 LT PUSH2 0x51BC JUMPI PUSH2 0x51BB PUSH2 0xA740 JUMP JUMPDEST JUMPDEST PUSH1 0x20 MUL PUSH1 0x20 ADD ADD MLOAD DUP11 DUP11 DUP11 DUP11 PUSH2 0x53EF JUMP JUMPDEST DUP5 DUP4 DUP2 MLOAD DUP2 LT PUSH2 0x51E0 JUMPI PUSH2 0x51DF PUSH2 0xA740 JUMP JUMPDEST JUMPDEST PUSH1 0x20 MUL PUSH1 0x20 ADD ADD DUP5 DUP5 DUP2 MLOAD DUP2 LT PUSH2 0x51FA JUMPI PUSH2 0x51F9 PUSH2 0xA740 JUMP JUMPDEST JUMPDEST PUSH1 0x20 MUL PUSH1 0x20 ADD ADD DUP3 PUSH20 0xFFFFFFFFFFFFFFFFFFFFFFFFFFFFFFFFFFFFFFFF AND PUSH20 0xFFFFFFFFFFFFFFFFFFFFFFFFFFFFFFFFFFFFFFFF AND DUP2 MSTORE POP DUP3 PUSH1 0x6 SIGNEXTEND PUSH1 0x6 SIGNEXTEND DUP2 MSTORE POP POP POP DUP1 DUP1 PUSH2 0x5248 SWAP1 PUSH2 0xA76F JUMP JUMPDEST SWAP2 POP POP PUSH2 0x519B JUMP JUMPDEST POP SWAP8 POP SWAP8 SWAP6 POP POP POP POP POP POP JUMP JUMPDEST PUSH1 0x0 PUSH2 0x526A DUP5 DUP5 DUP5 PUSH2 0x5FA1 JUMP JUMPDEST SWAP1 POP PUSH1 0x0 DUP3 DUP1 PUSH2 0x527D JUMPI PUSH2 0x527C PUSH2 0x985B JUMP JUMPDEST JUMPDEST DUP5 DUP7 MULMOD GT ISZERO PUSH2 0x52C1 JUMPI PUSH32 0xFFFFFFFFFFFFFFFFFFFFFFFFFFFFFFFFFFFFFFFFFFFFFFFFFFFFFFFFFFFFFFFF DUP2 LT PUSH2 0x52B2 JUMPI PUSH1 0x0 DUP1 REVERT JUMPDEST DUP1 DUP1 PUSH2 0x52BD SWAP1 PUSH2 0xA76F JUMP JUMPDEST SWAP2 POP POP JUMPDEST SWAP4 SWAP3 POP POP POP JUMP JUMPDEST DUP1 PUSH1 0x2 SIGNEXTEND DUP3 PUSH1 0x2 SIGNEXTEND SLT PUSH2 0x5310 JUMPI PUSH1 0x40 MLOAD PUSH32 0x8C379A000000000000000000000000000000000000000000000000000000000 DUP2 MSTORE PUSH1 0x4 ADD PUSH2 0x5307 SWAP1 PUSH2 0xA803 JUMP JUMPDEST PUSH1 0x40 MLOAD DUP1 SWAP2 SUB SWAP1 REVERT JUMPDEST PUSH32 0xFFFFFFFFFFFFFFFFFFFFFFFFFFFFFFFFFFFFFFFFFFFFFFFFFFFFFFFFFFF27618 PUSH1 0x2 SIGNEXTEND DUP3 PUSH1 0x2 SIGNEXTEND SLT ISZERO PUSH2 0x5379 JUMPI PUSH1 0x40 MLOAD PUSH32 0x8C379A000000000000000000000000000000000000000000000000000000000 DUP2 MSTORE PUSH1 0x4 ADD PUSH2 0x5370 SWAP1 PUSH2 0xA86F JUMP JUMPDEST PUSH1 0x40 MLOAD DUP1 SWAP2 SUB SWAP1 REVERT JUMPDEST PUSH32 0xFFFFFFFFFFFFFFFFFFFFFFFFFFFFFFFFFFFFFFFFFFFFFFFFFFFFFFFFFFF27618 PUSH2 0x53A3 SWAP1 PUSH2 0x9FB7 JUMP JUMPDEST PUSH1 0x2 SIGNEXTEND DUP2 PUSH1 0x2 SIGNEXTEND SGT ISZERO PUSH2 0x53EB JUMPI PUSH1 0x40 MLOAD PUSH32 0x8C379A000000000000000000000000000000000000000000000000000000000 DUP2 MSTORE PUSH1 0x4 ADD PUSH2 0x53E2 SWAP1 PUSH2 0xA8DB JUMP JUMPDEST PUSH1 0x40 MLOAD DUP1 SWAP2 SUB SWAP1 REVERT JUMPDEST POP POP JUMP JUMPDEST PUSH1 0x0 DUP1 PUSH1 0x0 DUP8 PUSH4 0xFFFFFFFF AND SUB PUSH2 0x5516 JUMPI PUSH1 0x0 DUP10 DUP7 PUSH2 0xFFFF AND PUSH2 0xFFFF DUP2 LT PUSH2 0x541A JUMPI PUSH2 0x5419 PUSH2 0xA740 JUMP JUMPDEST JUMPDEST ADD PUSH1 0x40 MLOAD DUP1 PUSH1 0x80 ADD PUSH1 0x40 MSTORE SWAP1 DUP2 PUSH1 0x0 DUP3 ADD PUSH1 0x0 SWAP1 SLOAD SWAP1 PUSH2 0x100 EXP SWAP1 DIV PUSH4 0xFFFFFFFF AND PUSH4 0xFFFFFFFF AND PUSH4 0xFFFFFFFF AND DUP2 MSTORE PUSH1 0x20 ADD PUSH1 0x0 DUP3 ADD PUSH1 0x4 SWAP1 SLOAD SWAP1 PUSH2 0x100 EXP SWAP1 DIV PUSH1 0x6 SIGNEXTEND PUSH1 0x6 SIGNEXTEND PUSH1 0x6 SIGNEXTEND DUP2 MSTORE PUSH1 0x20 ADD PUSH1 0x0 DUP3 ADD PUSH1 0xB SWAP1 SLOAD SWAP1 PUSH2 0x100 EXP SWAP1 DIV PUSH20 0xFFFFFFFFFFFFFFFFFFFFFFFFFFFFFFFFFFFFFFFF AND PUSH20 0xFFFFFFFFFFFFFFFFFFFFFFFFFFFFFFFFFFFFFFFF AND PUSH20 0xFFFFFFFFFFFFFFFFFFFFFFFFFFFFFFFFFFFFFFFF AND DUP2 MSTORE PUSH1 0x20 ADD PUSH1 0x0 DUP3 ADD PUSH1 0x1F SWAP1 SLOAD SWAP1 PUSH2 0x100 EXP SWAP1 DIV PUSH1 0xFF AND ISZERO ISZERO ISZERO ISZERO DUP2 MSTORE POP POP SWAP1 POP DUP9 PUSH4 0xFFFFFFFF AND DUP2 PUSH1 0x0 ADD MLOAD PUSH4 0xFFFFFFFF AND EQ PUSH2 0x5502 JUMPI PUSH2 0x54FF DUP2 DUP11 DUP10 DUP9 PUSH2 0x6ED8 JUMP JUMPDEST SWAP1 POP JUMPDEST DUP1 PUSH1 0x20 ADD MLOAD DUP2 PUSH1 0x40 ADD MLOAD SWAP3 POP SWAP3 POP POP PUSH2 0x5650 JUMP JUMPDEST PUSH1 0x0 DUP8 DUP10 PUSH2 0x5524 SWAP2 SWAP1 PUSH2 0x9E3B JUMP JUMPDEST SWAP1 POP PUSH1 0x0 DUP1 PUSH2 0x5538 DUP13 DUP13 DUP6 DUP13 DUP13 DUP13 DUP13 PUSH2 0x6FD0 JUMP JUMPDEST SWAP2 POP SWAP2 POP DUP2 PUSH1 0x0 ADD MLOAD PUSH4 0xFFFFFFFF AND DUP4 PUSH4 0xFFFFFFFF AND SUB PUSH2 0x5569 JUMPI DUP2 PUSH1 0x20 ADD MLOAD DUP3 PUSH1 0x40 ADD MLOAD SWAP5 POP SWAP5 POP POP POP POP PUSH2 0x5650 JUMP JUMPDEST DUP1 PUSH1 0x0 ADD MLOAD PUSH4 0xFFFFFFFF AND DUP4 PUSH4 0xFFFFFFFF AND SUB PUSH2 0x5596 JUMPI DUP1 PUSH1 0x20 ADD MLOAD DUP2 PUSH1 0x40 ADD MLOAD SWAP5 POP SWAP5 POP POP POP POP PUSH2 0x5650 JUMP JUMPDEST PUSH1 0x0 DUP3 PUSH1 0x0 ADD MLOAD DUP3 PUSH1 0x0 ADD MLOAD PUSH2 0x55AC SWAP2 SWAP1 PUSH2 0x9E3B JUMP JUMPDEST SWAP1 POP PUSH1 0x0 DUP4 PUSH1 0x0 ADD MLOAD DUP6 PUSH2 0x55C0 SWAP2 SWAP1 PUSH2 0x9E3B JUMP JUMPDEST SWAP1 POP DUP1 PUSH1 0x3 SIGNEXTEND DUP3 PUSH1 0x3 SIGNEXTEND DUP6 PUSH1 0x20 ADD MLOAD DUP6 PUSH1 0x20 ADD MLOAD PUSH2 0x55DE SWAP2 SWAP1 PUSH2 0x9D94 JUMP JUMPDEST PUSH2 0x55E8 SWAP2 SWAP1 PUSH2 0xA8FB JUMP JUMPDEST PUSH2 0x55F2 SWAP2 SWAP1 PUSH2 0xA965 JUMP JUMPDEST DUP5 PUSH1 0x20 ADD MLOAD PUSH2 0x5601 SWAP2 SWAP1 PUSH2 0xAA4A JUMP JUMPDEST DUP3 PUSH4 0xFFFFFFFF AND DUP3 PUSH4 0xFFFFFFFF AND DUP7 PUSH1 0x40 ADD MLOAD DUP7 PUSH1 0x40 ADD MLOAD PUSH2 0x5623 SWAP2 SWAP1 PUSH2 0x9DF3 JUMP JUMPDEST PUSH2 0x562D SWAP2 SWAP1 PUSH2 0xAAA9 JUMP JUMPDEST PUSH2 0x5637 SWAP2 SWAP1 PUSH2 0xAAF7 JUMP JUMPDEST DUP6 PUSH1 0x40 ADD MLOAD PUSH2 0x5646 SWAP2 SWAP1 PUSH2 0xAB28 JUMP JUMPDEST SWAP7 POP SWAP7 POP POP POP POP POP POP JUMPDEST SWAP8 POP SWAP8 SWAP6 POP POP POP POP POP POP JUMP JUMPDEST PUSH1 0x0 DUP1 PUSH1 0x0 DUP5 DUP7 PUSH2 0x566D SWAP2 SWAP1 PUSH2 0xA30D JUMP JUMPDEST SWAP1 POP PUSH1 0x0 DUP7 PUSH1 0x2 SIGNEXTEND SLT DUP1 ISZERO PUSH2 0x5691 JUMPI POP PUSH1 0x0 DUP6 DUP8 PUSH2 0x568B SWAP2 SWAP1 PUSH2 0xAB70 JUMP JUMPDEST PUSH1 0x2 SIGNEXTEND EQ ISZERO JUMPDEST ISZERO PUSH2 0x56A5 JUMPI DUP1 DUP1 PUSH2 0x56A1 SWAP1 PUSH2 0xABA1 JUMP JUMPDEST SWAP2 POP POP JUMPDEST DUP4 ISZERO PUSH2 0x5768 JUMPI PUSH1 0x0 DUP1 PUSH2 0x56B7 DUP4 PUSH2 0x733A JUMP JUMPDEST SWAP2 POP SWAP2 POP PUSH1 0x0 DUP2 PUSH1 0xFF AND PUSH1 0x1 SWAP1 SHL PUSH1 0x1 DUP4 PUSH1 0xFF AND PUSH1 0x1 SWAP1 SHL PUSH2 0x56D9 SWAP2 SWAP1 PUSH2 0x9BCA JUMP JUMPDEST PUSH2 0x56E3 SWAP2 SWAP1 PUSH2 0x9FFF JUMP JUMPDEST SWAP1 POP PUSH1 0x0 DUP2 DUP12 PUSH1 0x0 DUP7 PUSH1 0x1 SIGNEXTEND PUSH1 0x1 SIGNEXTEND DUP2 MSTORE PUSH1 0x20 ADD SWAP1 DUP2 MSTORE PUSH1 0x20 ADD PUSH1 0x0 KECCAK256 SLOAD AND SWAP1 POP PUSH1 0x0 DUP2 EQ ISZERO SWAP6 POP DUP6 PUSH2 0x572F JUMPI DUP9 DUP4 PUSH1 0xFF AND DUP7 PUSH2 0x5720 SWAP2 SWAP1 PUSH2 0xA0BA JUMP JUMPDEST PUSH2 0x572A SWAP2 SWAP1 PUSH2 0xA377 JUMP JUMPDEST PUSH2 0x575D JUMP JUMPDEST DUP9 PUSH2 0x5739 DUP3 PUSH2 0x735C JUMP JUMPDEST DUP5 PUSH2 0x5744 SWAP2 SWAP1 PUSH2 0xABE9 JUMP JUMPDEST PUSH1 0xFF AND DUP7 PUSH2 0x5752 SWAP2 SWAP1 PUSH2 0xA0BA JUMP JUMPDEST PUSH2 0x575C SWAP2 SWAP1 PUSH2 0xA377 JUMP JUMPDEST JUMPDEST SWAP7 POP POP POP POP POP PUSH2 0x5840 JUMP JUMPDEST PUSH1 0x0 DUP1 PUSH2 0x5780 PUSH1 0x1 DUP5 PUSH2 0x577B SWAP2 SWAP1 PUSH2 0xAC1E JUMP JUMPDEST PUSH2 0x733A JUMP JUMPDEST SWAP2 POP SWAP2 POP PUSH1 0x0 PUSH1 0x1 DUP3 PUSH1 0xFF AND PUSH1 0x1 SWAP1 SHL PUSH2 0x579A SWAP2 SWAP1 PUSH2 0x9BCA JUMP JUMPDEST NOT SWAP1 POP PUSH1 0x0 DUP2 DUP12 PUSH1 0x0 DUP7 PUSH1 0x1 SIGNEXTEND PUSH1 0x1 SIGNEXTEND DUP2 MSTORE PUSH1 0x20 ADD SWAP1 DUP2 MSTORE PUSH1 0x20 ADD PUSH1 0x0 KECCAK256 SLOAD AND SWAP1 POP PUSH1 0x0 DUP2 EQ ISZERO SWAP6 POP DUP6 PUSH2 0x57FF JUMPI DUP9 DUP4 PUSH1 0xFF PUSH2 0x57D6 SWAP2 SWAP1 PUSH2 0xABE9 JUMP JUMPDEST PUSH1 0xFF AND PUSH1 0x1 DUP8 PUSH2 0x57E6 SWAP2 SWAP1 PUSH2 0xAC1E JUMP JUMPDEST PUSH2 0x57F0 SWAP2 SWAP1 PUSH2 0xAC1E JUMP JUMPDEST PUSH2 0x57FA SWAP2 SWAP1 PUSH2 0xA377 JUMP JUMPDEST PUSH2 0x5839 JUMP JUMPDEST DUP9 DUP4 PUSH2 0x580A DUP4 PUSH2 0x747F JUMP JUMPDEST PUSH2 0x5814 SWAP2 SWAP1 PUSH2 0xABE9 JUMP JUMPDEST PUSH1 0xFF AND PUSH1 0x1 DUP8 PUSH2 0x5824 SWAP2 SWAP1 PUSH2 0xAC1E JUMP JUMPDEST PUSH2 0x582E SWAP2 SWAP1 PUSH2 0xAC1E JUMP JUMPDEST PUSH2 0x5838 SWAP2 SWAP1 PUSH2 0xA377 JUMP JUMPDEST JUMPDEST SWAP7 POP POP POP POP POP JUMPDEST POP SWAP5 POP SWAP5 SWAP3 POP POP POP JUMP JUMPDEST PUSH1 0x0 DUP1 PUSH1 0x0 DUP4 PUSH1 0x2 SIGNEXTEND SLT PUSH2 0x5861 JUMPI DUP3 PUSH1 0x2 SIGNEXTEND PUSH2 0x586F JUMP JUMPDEST DUP3 PUSH1 0x2 SIGNEXTEND PUSH2 0x586E SWAP1 PUSH2 0x9D15 JUMP JUMPDEST JUMPDEST SWAP1 POP PUSH32 0xFFFFFFFFFFFFFFFFFFFFFFFFFFFFFFFFFFFFFFFFFFFFFFFFFFFFFFFFFFF27618 PUSH2 0x589B SWAP1 PUSH2 0x9FB7 JUMP JUMPDEST PUSH1 0x2 SIGNEXTEND DUP2 GT ISZERO PUSH2 0x58E0 JUMPI PUSH1 0x40 MLOAD PUSH32 0x8C379A000000000000000000000000000000000000000000000000000000000 DUP2 MSTORE PUSH1 0x4 ADD PUSH2 0x58D7 SWAP1 PUSH2 0xACC5 JUMP JUMPDEST PUSH1 0x40 MLOAD DUP1 SWAP2 SUB SWAP1 REVERT JUMPDEST PUSH1 0x0 DUP1 PUSH1 0x1 DUP4 AND SUB PUSH2 0x5903 JUMPI PUSH17 0x100000000000000000000000000000000 PUSH2 0x5915 JUMP JUMPDEST PUSH16 0xFFFCB933BD6FAD37AA2D162D1A594001 JUMPDEST PUSH17 0xFFFFFFFFFFFFFFFFFFFFFFFFFFFFFFFFFF AND SWAP1 POP PUSH1 0x0 PUSH1 0x2 DUP4 AND EQ PUSH2 0x5958 JUMPI PUSH1 0x80 PUSH16 0xFFF97272373D413259A46990580E213A DUP3 PUSH2 0x5953 SWAP2 SWAP1 PUSH2 0x9C2F JUMP JUMPDEST SWAP1 SHR SWAP1 POP JUMPDEST PUSH1 0x0 PUSH1 0x4 DUP4 AND EQ PUSH2 0x5986 JUMPI PUSH1 0x80 PUSH16 0xFFF2E50F5F656932EF12357CF3C7FDCC DUP3 PUSH2 0x5981 SWAP2 SWAP1 PUSH2 0x9C2F JUMP JUMPDEST SWAP1 SHR SWAP1 POP JUMPDEST PUSH1 0x0 PUSH1 0x8 DUP4 AND EQ PUSH2 0x59B4 JUMPI PUSH1 0x80 PUSH16 0xFFE5CACA7E10E4E61C3624EAA0941CD0 DUP3 PUSH2 0x59AF SWAP2 SWAP1 PUSH2 0x9C2F JUMP JUMPDEST SWAP1 SHR SWAP1 POP JUMPDEST PUSH1 0x0 PUSH1 0x10 DUP4 AND EQ PUSH2 0x59E2 JUMPI PUSH1 0x80 PUSH16 0xFFCB9843D60F6159C9DB58835C926644 DUP3 PUSH2 0x59DD SWAP2 SWAP1 PUSH2 0x9C2F JUMP JUMPDEST SWAP1 SHR SWAP1 POP JUMPDEST PUSH1 0x0 PUSH1 0x20 DUP4 AND EQ PUSH2 0x5A10 JUMPI PUSH1 0x80 PUSH16 0xFF973B41FA98C081472E6896DFB254C0 DUP3 PUSH2 0x5A0B SWAP2 SWAP1 PUSH2 0x9C2F JUMP JUMPDEST SWAP1 SHR SWAP1 POP JUMPDEST PUSH1 0x0 PUSH1 0x40 DUP4 AND EQ PUSH2 0x5A3E JUMPI PUSH1 0x80 PUSH16 0xFF2EA16466C96A3843EC78B326B52861 DUP3 PUSH2 0x5A39 SWAP2 SWAP1 PUSH2 0x9C2F JUMP JUMPDEST SWAP1 SHR SWAP1 POP JUMPDEST PUSH1 0x0 PUSH1 0x80 DUP4 AND EQ PUSH2 0x5A6C JUMPI PUSH1 0x80 PUSH16 0xFE5DEE046A99A2A811C461F1969C3053 DUP3 PUSH2 0x5A67 SWAP2 SWAP1 PUSH2 0x9C2F JUMP JUMPDEST SWAP1 SHR SWAP1 POP JUMPDEST PUSH1 0x0 PUSH2 0x100 DUP4 AND EQ PUSH2 0x5A9B JUMPI PUSH1 0x80 PUSH16 0xFCBE86C7900A88AEDCFFC83B479AA3A4 DUP3 PUSH2 0x5A96 SWAP2 SWAP1 PUSH2 0x9C2F JUMP JUMPDEST SWAP1 SHR SWAP1 POP JUMPDEST PUSH1 0x0 PUSH2 0x200 DUP4 AND EQ PUSH2 0x5ACA JUMPI PUSH1 0x80 PUSH16 0xF987A7253AC413176F2B074CF7815E54 DUP3 PUSH2 0x5AC5 SWAP2 SWAP1 PUSH2 0x9C2F JUMP JUMPDEST SWAP1 SHR SWAP1 POP JUMPDEST PUSH1 0x0 PUSH2 0x400 DUP4 AND EQ PUSH2 0x5AF9 JUMPI PUSH1 0x80 PUSH16 0xF3392B0822B70005940C7A398E4B70F3 DUP3 PUSH2 0x5AF4 SWAP2 SWAP1 PUSH2 0x9C2F JUMP JUMPDEST SWAP1 SHR SWAP1 POP JUMPDEST PUSH1 0x0 PUSH2 0x800 DUP4 AND EQ PUSH2 0x5B28 JUMPI PUSH1 0x80 PUSH16 0xE7159475A2C29B7443B29C7FA6E889D9 DUP3 PUSH2 0x5B23 SWAP2 SWAP1 PUSH2 0x9C2F JUMP JUMPDEST SWAP1 SHR SWAP1 POP JUMPDEST PUSH1 0x0 PUSH2 0x1000 DUP4 AND EQ PUSH2 0x5B57 JUMPI PUSH1 0x80 PUSH16 0xD097F3BDFD2022B8845AD8F792AA5825 DUP3 PUSH2 0x5B52 SWAP2 SWAP1 PUSH2 0x9C2F JUMP JUMPDEST SWAP1 SHR SWAP1 POP JUMPDEST PUSH1 0x0 PUSH2 0x2000 DUP4 AND EQ PUSH2 0x5B86 JUMPI PUSH1 0x80 PUSH16 0xA9F746462D870FDF8A65DC1F90E061E5 DUP3 PUSH2 0x5B81 SWAP2 SWAP1 PUSH2 0x9C2F JUMP JUMPDEST SWAP1 SHR SWAP1 POP JUMPDEST PUSH1 0x0 PUSH2 0x4000 DUP4 AND EQ PUSH2 0x5BB5 JUMPI PUSH1 0x80 PUSH16 0x70D869A156D2A1B890BB3DF62BAF32F7 DUP3 PUSH2 0x5BB0 SWAP2 SWAP1 PUSH2 0x9C2F JUMP JUMPDEST SWAP1 SHR SWAP1 POP JUMPDEST PUSH1 0x0 PUSH2 0x8000 DUP4 AND EQ PUSH2 0x5BE4 JUMPI PUSH1 0x80 PUSH16 0x31BE135F97D08FD981231505542FCFA6 DUP3 PUSH2 0x5BDF SWAP2 SWAP1 PUSH2 0x9C2F JUMP JUMPDEST SWAP1 SHR SWAP1 POP JUMPDEST PUSH1 0x0 PUSH3 0x10000 DUP4 AND EQ PUSH2 0x5C14 JUMPI PUSH1 0x80 PUSH16 0x9AA508B5B7A84E1C677DE54F3E99BC9 DUP3 PUSH2 0x5C0F SWAP2 SWAP1 PUSH2 0x9C2F JUMP JUMPDEST SWAP1 SHR SWAP1 POP JUMPDEST PUSH1 0x0 PUSH3 0x20000 DUP4 AND EQ PUSH2 0x5C43 JUMPI PUSH1 0x80 PUSH15 0x5D6AF8DEDB81196699C329225EE604 DUP3 PUSH2 0x5C3E SWAP2 SWAP1 PUSH2 0x9C2F JUMP JUMPDEST SWAP1 SHR SWAP1 POP JUMPDEST PUSH1 0x0 PUSH3 0x40000 DUP4 AND EQ PUSH2 0x5C71 JUMPI PUSH1 0x80 PUSH14 0x2216E584F5FA1EA926041BEDFE98 DUP3 PUSH2 0x5C6C SWAP2 SWAP1 PUSH2 0x9C2F JUMP JUMPDEST SWAP1 SHR SWAP1 POP JUMPDEST PUSH1 0x0 PUSH3 0x80000 DUP4 AND EQ PUSH2 0x5C9D JUMPI PUSH1 0x80 PUSH12 0x48A170391F7DC42444E8FA2 DUP3 PUSH2 0x5C98 SWAP2 SWAP1 PUSH2 0x9C2F JUMP JUMPDEST SWAP1 SHR SWAP1 POP JUMPDEST PUSH1 0x0 DUP5 PUSH1 0x2 SIGNEXTEND SGT ISZERO PUSH2 0x5CD8 JUMPI DUP1 PUSH32 0xFFFFFFFFFFFFFFFFFFFFFFFFFFFFFFFFFFFFFFFFFFFFFFFFFFFFFFFFFFFFFFFF PUSH2 0x5CD5 SWAP2 SWAP1 PUSH2 0x9BFE JUMP JUMPDEST SWAP1 POP JUMPDEST PUSH1 0x0 PUSH5 0x100000000 DUP3 PUSH2 0x5CEB SWAP2 SWAP1 PUSH2 0xACE5 JUMP JUMPDEST EQ PUSH2 0x5CF7 JUMPI PUSH1 0x1 PUSH2 0x5CFA JUMP JUMPDEST PUSH1 0x0 JUMPDEST PUSH1 0xFF AND PUSH1 0x20 DUP3 SWAP1 SHR PUSH2 0x5D0C SWAP2 SWAP1 PUSH2 0x9FFF JUMP JUMPDEST SWAP3 POP POP POP SWAP2 SWAP1 POP JUMP JUMPDEST PUSH1 0x0 DUP1 PUSH1 0x0 DUP1 DUP7 PUSH20 0xFFFFFFFFFFFFFFFFFFFFFFFFFFFFFFFFFFFFFFFF AND DUP9 PUSH20 0xFFFFFFFFFFFFFFFFFFFFFFFFFFFFFFFFFFFFFFFF AND LT ISZERO SWAP1 POP PUSH1 0x0 DUP1 DUP7 SLT ISZERO SWAP1 POP DUP1 ISZERO PUSH2 0x5DB5 JUMPI DUP2 PUSH2 0x5D72 JUMPI PUSH2 0x5D6D DUP10 DUP10 DUP10 PUSH1 0x1 PUSH2 0x75EE JUMP JUMPDEST PUSH2 0x5D80 JUMP JUMPDEST PUSH2 0x5D7F DUP9 DUP11 DUP10 PUSH1 0x1 PUSH2 0x76DA JUMP JUMPDEST JUMPDEST SWAP4 POP DUP4 PUSH2 0x5D8C DUP8 PUSH2 0x781B JUMP JUMPDEST LT PUSH2 0x5D99 JUMPI DUP8 SWAP5 POP PUSH2 0x5DB0 JUMP JUMPDEST PUSH2 0x5DAD DUP10 DUP9 PUSH2 0x5DA7 DUP10 PUSH2 0x781B JUMP JUMPDEST DUP6 PUSH2 0x7868 JUMP JUMPDEST SWAP5 POP JUMPDEST PUSH2 0x5E0D JUMP JUMPDEST DUP2 PUSH2 0x5DCC JUMPI PUSH2 0x5DC7 DUP10 DUP10 DUP10 PUSH1 0x0 PUSH2 0x76DA JUMP JUMPDEST PUSH2 0x5DDA JUMP JUMPDEST PUSH2 0x5DD9 DUP9 DUP11 DUP10 PUSH1 0x0 PUSH2 0x75EE JUMP JUMPDEST JUMPDEST SWAP3 POP DUP3 DUP7 PUSH2 0x5DE7 SWAP1 PUSH2 0x9D15 JUMP JUMPDEST LT PUSH2 0x5DF4 JUMPI DUP8 SWAP5 POP PUSH2 0x5E0C JUMP JUMPDEST PUSH2 0x5E09 DUP10 DUP9 DUP9 PUSH2 0x5E03 SWAP1 PUSH2 0x9D15 JUMP JUMPDEST DUP6 PUSH2 0x78DA JUMP JUMPDEST SWAP5 POP JUMPDEST JUMPDEST PUSH1 0x0 DUP6 PUSH20 0xFFFFFFFFFFFFFFFFFFFFFFFFFFFFFFFFFFFFFFFF AND DUP10 PUSH20 0xFFFFFFFFFFFFFFFFFFFFFFFFFFFFFFFFFFFFFFFF AND EQ SWAP1 POP DUP3 ISZERO PUSH2 0x5E94 JUMPI DUP1 DUP1 ISZERO PUSH2 0x5E50 JUMPI POP DUP2 JUMPDEST PUSH2 0x5E66 JUMPI PUSH2 0x5E61 DUP7 DUP12 DUP11 PUSH1 0x1 PUSH2 0x76DA JUMP JUMPDEST PUSH2 0x5E68 JUMP JUMPDEST DUP5 JUMPDEST SWAP5 POP DUP1 DUP1 ISZERO PUSH2 0x5E75 JUMPI POP DUP2 ISZERO JUMPDEST PUSH2 0x5E8B JUMPI PUSH2 0x5E86 DUP7 DUP12 DUP11 PUSH1 0x0 PUSH2 0x75EE JUMP JUMPDEST PUSH2 0x5E8D JUMP JUMPDEST DUP4 JUMPDEST SWAP4 POP PUSH2 0x5EDE JUMP JUMPDEST DUP1 DUP1 ISZERO PUSH2 0x5E9E JUMPI POP DUP2 JUMPDEST PUSH2 0x5EB4 JUMPI PUSH2 0x5EAF DUP11 DUP8 DUP11 PUSH1 0x1 PUSH2 0x75EE JUMP JUMPDEST PUSH2 0x5EB6 JUMP JUMPDEST DUP5 JUMPDEST SWAP5 POP DUP1 DUP1 ISZERO PUSH2 0x5EC3 JUMPI POP DUP2 ISZERO JUMPDEST PUSH2 0x5ED9 JUMPI PUSH2 0x5ED4 DUP11 DUP8 DUP11 PUSH1 0x0 PUSH2 0x76DA JUMP JUMPDEST PUSH2 0x5EDB JUMP JUMPDEST DUP4 JUMPDEST SWAP4 POP JUMPDEST DUP2 ISZERO DUP1 ISZERO PUSH2 0x5EF4 JUMPI POP DUP7 PUSH2 0x5EF1 SWAP1 PUSH2 0x9D15 JUMP JUMPDEST DUP5 GT JUMPDEST ISZERO PUSH2 0x5F06 JUMPI DUP7 PUSH2 0x5F03 SWAP1 PUSH2 0x9D15 JUMP JUMPDEST SWAP4 POP JUMPDEST POP POP POP SWAP5 POP SWAP5 POP SWAP5 SWAP2 POP POP JUMP JUMPDEST PUSH1 0x0 PUSH32 0x8000000000000000000000000000000000000000000000000000000000000000 DUP3 LT PUSH2 0x5F41 JUMPI PUSH1 0x0 DUP1 REVERT JUMPDEST DUP2 SWAP1 POP SWAP2 SWAP1 POP JUMP JUMPDEST PUSH1 0x0 DUP1 DUP3 SLT ISZERO ISZERO ISZERO DUP4 DUP4 DUP6 PUSH2 0x5F5E SWAP2 SWAP1 PUSH2 0xA033 JUMP JUMPDEST SWAP3 POP DUP3 SGT ISZERO ISZERO ISZERO EQ PUSH2 0x5F6F JUMPI PUSH1 0x0 DUP1 REVERT JUMPDEST SWAP3 SWAP2 POP POP JUMP JUMPDEST PUSH1 0x0 DUP1 DUP3 SLT ISZERO ISZERO ISZERO DUP4 DUP4 DUP6 PUSH2 0x5F8A SWAP2 SWAP1 PUSH2 0xA076 JUMP JUMPDEST SWAP3 POP DUP3 SLT ISZERO ISZERO ISZERO EQ PUSH2 0x5F9B JUMPI PUSH1 0x0 DUP1 REVERT JUMPDEST SWAP3 SWAP2 POP POP JUMP JUMPDEST PUSH1 0x0 DUP1 PUSH1 0x0 DUP1 NOT DUP6 DUP8 MULMOD DUP6 DUP8 MUL SWAP3 POP DUP3 DUP2 LT DUP4 DUP3 SUB SUB SWAP2 POP POP PUSH1 0x0 DUP2 SUB PUSH2 0x5FDB JUMPI PUSH1 0x0 DUP5 GT PUSH2 0x5FCF JUMPI PUSH1 0x0 DUP1 REVERT JUMPDEST DUP4 DUP3 DIV SWAP3 POP POP POP PUSH2 0x6164 JUMP JUMPDEST DUP1 DUP5 GT PUSH2 0x5FE7 JUMPI PUSH1 0x0 DUP1 REVERT JUMPDEST PUSH1 0x0 DUP5 DUP7 DUP9 MULMOD SWAP1 POP DUP3 DUP2 GT DUP3 SUB SWAP2 POP DUP1 DUP4 SUB SWAP3 POP PUSH1 0x0 DUP6 PUSH1 0x1 DUP8 PUSH32 0xFFFFFFFFFFFFFFFFFFFFFFFFFFFFFFFFFFFFFFFFFFFFFFFFFFFFFFFFFFFFFFFF PUSH2 0x602C SWAP2 SWAP1 PUSH2 0x9BCA JUMP JUMPDEST PUSH2 0x6036 SWAP2 SWAP1 PUSH2 0x9FFF JUMP JUMPDEST AND SWAP1 POP DUP1 DUP7 DIV SWAP6 POP DUP1 DUP5 DIV SWAP4 POP PUSH1 0x1 DUP2 DUP3 PUSH1 0x0 SUB DIV ADD SWAP1 POP DUP1 DUP4 PUSH2 0x605A SWAP2 SWAP1 PUSH2 0x9C2F JUMP JUMPDEST DUP5 OR SWAP4 POP PUSH1 0x0 PUSH1 0x2 DUP8 PUSH1 0x3 PUSH2 0x606F SWAP2 SWAP1 PUSH2 0x9C2F JUMP JUMPDEST XOR SWAP1 POP DUP1 DUP8 PUSH2 0x607E SWAP2 SWAP1 PUSH2 0x9C2F JUMP JUMPDEST PUSH1 0x2 PUSH2 0x608A SWAP2 SWAP1 PUSH2 0x9BCA JUMP JUMPDEST DUP2 PUSH2 0x6095 SWAP2 SWAP1 PUSH2 0x9C2F JUMP JUMPDEST SWAP1 POP DUP1 DUP8 PUSH2 0x60A3 SWAP2 SWAP1 PUSH2 0x9C2F JUMP JUMPDEST PUSH1 0x2 PUSH2 0x60AF SWAP2 SWAP1 PUSH2 0x9BCA JUMP JUMPDEST DUP2 PUSH2 0x60BA SWAP2 SWAP1 PUSH2 0x9C2F JUMP JUMPDEST SWAP1 POP DUP1 DUP8 PUSH2 0x60C8 SWAP2 SWAP1 PUSH2 0x9C2F JUMP JUMPDEST PUSH1 0x2 PUSH2 0x60D4 SWAP2 SWAP1 PUSH2 0x9BCA JUMP JUMPDEST DUP2 PUSH2 0x60DF SWAP2 SWAP1 PUSH2 0x9C2F JUMP JUMPDEST SWAP1 POP DUP1 DUP8 PUSH2 0x60ED SWAP2 SWAP1 PUSH2 0x9C2F JUMP JUMPDEST PUSH1 0x2 PUSH2 0x60F9 SWAP2 SWAP1 PUSH2 0x9BCA JUMP JUMPDEST DUP2 PUSH2 0x6104 SWAP2 SWAP1 PUSH2 0x9C2F JUMP JUMPDEST SWAP1 POP DUP1 DUP8 PUSH2 0x6112 SWAP2 SWAP1 PUSH2 0x9C2F JUMP JUMPDEST PUSH1 0x2 PUSH2 0x611E SWAP2 SWAP1 PUSH2 0x9BCA JUMP JUMPDEST DUP2 PUSH2 0x6129 SWAP2 SWAP1 PUSH2 0x9C2F JUMP JUMPDEST SWAP1 POP DUP1 DUP8 PUSH2 0x6137 SWAP2 SWAP1 PUSH2 0x9C2F JUMP JUMPDEST PUSH1 0x2 PUSH2 0x6143 SWAP2 SWAP1 PUSH2 0x9BCA JUMP JUMPDEST DUP2 PUSH2 0x614E SWAP2 SWAP1 PUSH2 0x9C2F JUMP JUMPDEST SWAP1 POP DUP1 DUP6 PUSH2 0x615C SWAP2 SWAP1 PUSH2 0x9C2F JUMP JUMPDEST SWAP6 POP POP POP POP POP POP JUMPDEST SWAP4 SWAP3 POP POP POP JUMP JUMPDEST PUSH1 0x0 DUP1 DUP8 PUSH1 0x0 DUP9 PUSH1 0x2 SIGNEXTEND PUSH1 0x2 SIGNEXTEND DUP2 MSTORE PUSH1 0x20 ADD SWAP1 DUP2 MSTORE PUSH1 0x20 ADD PUSH1 0x0 KECCAK256 SWAP1 POP DUP1 PUSH1 0x1 ADD SLOAD DUP7 PUSH2 0x6198 SWAP2 SWAP1 PUSH2 0x9BCA JUMP JUMPDEST DUP2 PUSH1 0x1 ADD DUP2 SWAP1 SSTORE POP DUP1 PUSH1 0x2 ADD PUSH1 0x7 SWAP1 SLOAD SWAP1 PUSH2 0x100 EXP SWAP1 DIV PUSH20 0xFFFFFFFFFFFFFFFFFFFFFFFFFFFFFFFFFFFFFFFF AND DUP6 PUSH2 0x61D0 SWAP2 SWAP1 PUSH2 0x9DF3 JUMP JUMPDEST DUP2 PUSH1 0x2 ADD PUSH1 0x7 PUSH2 0x100 EXP DUP2 SLOAD DUP2 PUSH20 0xFFFFFFFFFFFFFFFFFFFFFFFFFFFFFFFFFFFFFFFF MUL NOT AND SWAP1 DUP4 PUSH20 0xFFFFFFFFFFFFFFFFFFFFFFFFFFFFFFFFFFFFFFFF AND MUL OR SWAP1 SSTORE POP DUP1 PUSH1 0x2 ADD PUSH1 0x0 SWAP1 SLOAD SWAP1 PUSH2 0x100 EXP SWAP1 DIV PUSH1 0x6 SIGNEXTEND DUP5 PUSH2 0x622F SWAP2 SWAP1 PUSH2 0x9D94 JUMP JUMPDEST DUP2 PUSH1 0x2 ADD PUSH1 0x0 PUSH2 0x100 EXP DUP2 SLOAD DUP2 PUSH7 0xFFFFFFFFFFFFFF MUL NOT AND SWAP1 DUP4 PUSH1 0x6 SIGNEXTEND PUSH7 0xFFFFFFFFFFFFFF AND MUL OR SWAP1 SSTORE POP DUP1 PUSH1 0x2 ADD PUSH1 0x1B SWAP1 SLOAD SWAP1 PUSH2 0x100 EXP SWAP1 DIV PUSH4 0xFFFFFFFF AND DUP4 PUSH2 0x627A SWAP2 SWAP1 PUSH2 0x9E3B JUMP JUMPDEST DUP2 PUSH1 0x2 ADD PUSH1 0x1B PUSH2 0x100 EXP DUP2 SLOAD DUP2 PUSH4 0xFFFFFFFF MUL NOT AND SWAP1 DUP4 PUSH4 0xFFFFFFFF AND MUL OR SWAP1 SSTORE POP DUP1 PUSH1 0x0 ADD PUSH1 0x10 SWAP1 SLOAD SWAP1 PUSH2 0x100 EXP SWAP1 DIV PUSH1 0xF SIGNEXTEND SWAP2 POP POP SWAP7 SWAP6 POP POP POP POP POP POP JUMP JUMPDEST PUSH1 0x0 DUP1 DUP3 PUSH1 0xF SIGNEXTEND SLT ISZERO PUSH2 0x634A JUMPI DUP3 PUSH16 0xFFFFFFFFFFFFFFFFFFFFFFFFFFFFFFFF AND DUP3 PUSH2 0x62E5 SWAP1 PUSH2 0x9CCD JUMP JUMPDEST DUP5 PUSH2 0x62F0 SWAP2 SWAP1 PUSH2 0x97B9 JUMP JUMPDEST SWAP2 POP DUP2 PUSH16 0xFFFFFFFFFFFFFFFFFFFFFFFFFFFFFFFF AND LT PUSH2 0x6345 JUMPI PUSH1 0x40 MLOAD PUSH32 0x8C379A000000000000000000000000000000000000000000000000000000000 DUP2 MSTORE PUSH1 0x4 ADD PUSH2 0x633C SWAP1 PUSH2 0xAD62 JUMP JUMPDEST PUSH1 0x40 MLOAD DUP1 SWAP2 SUB SWAP1 REVERT JUMPDEST PUSH2 0x63C0 JUMP JUMPDEST DUP3 PUSH16 0xFFFFFFFFFFFFFFFFFFFFFFFFFFFFFFFF AND DUP3 DUP5 PUSH2 0x6369 SWAP2 SWAP1 PUSH2 0x9C89 JUMP JUMPDEST SWAP2 POP DUP2 PUSH16 0xFFFFFFFFFFFFFFFFFFFFFFFFFFFFFFFF AND LT ISZERO PUSH2 0x63BF JUMPI PUSH1 0x40 MLOAD PUSH32 0x8C379A000000000000000000000000000000000000000000000000000000000 DUP2 MSTORE PUSH1 0x4 ADD PUSH2 0x63B6 SWAP1 PUSH2 0xADCE JUMP JUMPDEST PUSH1 0x40 MLOAD DUP1 SWAP2 SUB SWAP1 REVERT JUMPDEST JUMPDEST SWAP3 SWAP2 POP POP JUMP JUMPDEST PUSH1 0x0 PUSH5 0x1000276A3 PUSH20 0xFFFFFFFFFFFFFFFFFFFFFFFFFFFFFFFFFFFFFFFF AND DUP3 PUSH20 0xFFFFFFFFFFFFFFFFFFFFFFFFFFFFFFFFFFFFFFFF AND LT ISZERO DUP1 ISZERO PUSH2 0x6448 JUMPI POP PUSH20 0xFFFD8963EFD1FC6A506488495D951D5263988D26 PUSH20 0xFFFFFFFFFFFFFFFFFFFFFFFFFFFFFFFFFFFFFFFF AND DUP3 PUSH20 0xFFFFFFFFFFFFFFFFFFFFFFFFFFFFFFFFFFFFFFFF AND LT JUMPDEST PUSH2 0x6487 JUMPI PUSH1 0x40 MLOAD PUSH32 0x8C379A000000000000000000000000000000000000000000000000000000000 DUP2 MSTORE PUSH1 0x4 ADD PUSH2 0x647E SWAP1 PUSH2 0xAE3A JUMP JUMPDEST PUSH1 0x40 MLOAD DUP1 SWAP2 SUB SWAP1 REVERT JUMPDEST PUSH1 0x0 PUSH1 0x20 DUP4 PUSH20 0xFFFFFFFFFFFFFFFFFFFFFFFFFFFFFFFFFFFFFFFF AND SWAP1 SHL SWAP1 POP PUSH1 0x0 DUP2 SWAP1 POP PUSH1 0x0 PUSH16 0xFFFFFFFFFFFFFFFFFFFFFFFFFFFFFFFF DUP3 GT PUSH1 0x7 SHL DUP1 DUP3 OR SWAP2 POP DUP3 DUP2 SHR SWAP3 POP POP PUSH8 0xFFFFFFFFFFFFFFFF DUP3 GT PUSH1 0x6 SHL DUP1 DUP3 OR SWAP2 POP DUP3 DUP2 SHR SWAP3 POP POP PUSH4 0xFFFFFFFF DUP3 GT PUSH1 0x5 SHL DUP1 DUP3 OR SWAP2 POP DUP3 DUP2 SHR SWAP3 POP POP PUSH2 0xFFFF DUP3 GT PUSH1 0x4 SHL DUP1 DUP3 OR SWAP2 POP DUP3 DUP2 SHR SWAP3 POP POP PUSH1 0xFF DUP3 GT PUSH1 0x3 SHL DUP1 DUP3 OR SWAP2 POP DUP3 DUP2 SHR SWAP3 POP POP PUSH1 0xF DUP3 GT PUSH1 0x2 SHL DUP1 DUP3 OR SWAP2 POP DUP3 DUP2 SHR SWAP3 POP POP PUSH1 0x3 DUP3 GT PUSH1 0x1 SHL DUP1 DUP3 OR SWAP2 POP DUP3 DUP2 SHR SWAP3 POP POP PUSH1 0x1 DUP3 GT DUP1 DUP3 OR SWAP2 POP POP PUSH1 0x80 DUP2 LT PUSH2 0x656E JUMPI PUSH1 0x7F DUP2 PUSH2 0x6564 SWAP2 SWAP1 PUSH2 0x9BCA JUMP JUMPDEST DUP4 SWAP1 SHR SWAP2 POP PUSH2 0x6581 JUMP JUMPDEST DUP1 PUSH1 0x7F PUSH2 0x657B SWAP2 SWAP1 PUSH2 0x9BCA JUMP JUMPDEST DUP4 SWAP1 SHL SWAP2 POP JUMPDEST PUSH1 0x0 PUSH1 0x40 PUSH1 0x80 DUP4 PUSH2 0x6592 SWAP2 SWAP1 PUSH2 0xA033 JUMP JUMPDEST SWAP1 SHL SWAP1 POP DUP3 DUP4 MUL PUSH1 0x7F SHR SWAP3 POP DUP3 PUSH1 0x80 SHR DUP1 PUSH1 0x3F SHL DUP3 OR SWAP2 POP DUP4 DUP2 SHR SWAP4 POP POP DUP3 DUP4 MUL PUSH1 0x7F SHR SWAP3 POP DUP3 PUSH1 0x80 SHR DUP1 PUSH1 0x3E SHL DUP3 OR SWAP2 POP DUP4 DUP2 SHR SWAP4 POP POP DUP3 DUP4 MUL PUSH1 0x7F SHR SWAP3 POP DUP3 PUSH1 0x80 SHR DUP1 PUSH1 0x3D SHL DUP3 OR SWAP2 POP DUP4 DUP2 SHR SWAP4 POP POP DUP3 DUP4 MUL PUSH1 0x7F SHR SWAP3 POP DUP3 PUSH1 0x80 SHR DUP1 PUSH1 0x3C SHL DUP3 OR SWAP2 POP DUP4 DUP2 SHR SWAP4 POP POP DUP3 DUP4 MUL PUSH1 0x7F SHR SWAP3 POP DUP3 PUSH1 0x80 SHR DUP1 PUSH1 0x3B SHL DUP3 OR SWAP2 POP DUP4 DUP2 SHR SWAP4 POP POP DUP3 DUP4 MUL PUSH1 0x7F SHR SWAP3 POP DUP3 PUSH1 0x80 SHR DUP1 PUSH1 0x3A SHL DUP3 OR SWAP2 POP DUP4 DUP2 SHR SWAP4 POP POP DUP3 DUP4 MUL PUSH1 0x7F SHR SWAP3 POP DUP3 PUSH1 0x80 SHR DUP1 PUSH1 0x39 SHL DUP3 OR SWAP2 POP DUP4 DUP2 SHR SWAP4 POP POP DUP3 DUP4 MUL PUSH1 0x7F SHR SWAP3 POP DUP3 PUSH1 0x80 SHR DUP1 PUSH1 0x38 SHL DUP3 OR SWAP2 POP DUP4 DUP2 SHR SWAP4 POP POP DUP3 DUP4 MUL PUSH1 0x7F SHR SWAP3 POP DUP3 PUSH1 0x80 SHR DUP1 PUSH1 0x37 SHL DUP3 OR SWAP2 POP DUP4 DUP2 SHR SWAP4 POP POP DUP3 DUP4 MUL PUSH1 0x7F SHR SWAP3 POP DUP3 PUSH1 0x80 SHR DUP1 PUSH1 0x36 SHL DUP3 OR SWAP2 POP DUP4 DUP2 SHR SWAP4 POP POP DUP3 DUP4 MUL PUSH1 0x7F SHR SWAP3 POP DUP3 PUSH1 0x80 SHR DUP1 PUSH1 0x35 SHL DUP3 OR SWAP2 POP DUP4 DUP2 SHR SWAP4 POP POP DUP3 DUP4 MUL PUSH1 0x7F SHR SWAP3 POP DUP3 PUSH1 0x80 SHR DUP1 PUSH1 0x34 SHL DUP3 OR SWAP2 POP DUP4 DUP2 SHR SWAP4 POP POP DUP3 DUP4 MUL PUSH1 0x7F SHR SWAP3 POP DUP3 PUSH1 0x80 SHR DUP1 PUSH1 0x33 SHL DUP3 OR SWAP2 POP DUP4 DUP2 SHR SWAP4 POP POP DUP3 DUP4 MUL PUSH1 0x7F SHR SWAP3 POP DUP3 PUSH1 0x80 SHR DUP1 PUSH1 0x32 SHL DUP3 OR SWAP2 POP POP PUSH1 0x0 PUSH10 0x3627A301D71055774C85 DUP3 PUSH2 0x6715 SWAP2 SWAP1 PUSH2 0xAE5A JUMP JUMPDEST SWAP1 POP PUSH1 0x0 PUSH1 0x80 PUSH16 0x28F6481AB7F045A5AF012A19D003AAA DUP4 PUSH2 0x6737 SWAP2 SWAP1 PUSH2 0xA033 JUMP JUMPDEST SWAP1 SAR SWAP1 POP PUSH1 0x0 PUSH1 0x80 PUSH16 0xDB2DF09E81959A81455E260799A0632F DUP5 PUSH2 0x675B SWAP2 SWAP1 PUSH2 0xA076 JUMP JUMPDEST SWAP1 SAR SWAP1 POP DUP1 PUSH1 0x2 SIGNEXTEND DUP3 PUSH1 0x2 SIGNEXTEND EQ PUSH2 0x67B5 JUMPI DUP9 PUSH20 0xFFFFFFFFFFFFFFFFFFFFFFFFFFFFFFFFFFFFFFFF AND PUSH2 0x678C DUP3 PUSH2 0x584A JUMP JUMPDEST PUSH20 0xFFFFFFFFFFFFFFFFFFFFFFFFFFFFFFFFFFFFFFFF AND GT ISZERO PUSH2 0x67AE JUMPI DUP2 PUSH2 0x67B0 JUMP JUMPDEST DUP1 JUMPDEST PUSH2 0x67B7 JUMP JUMPDEST DUP2 JUMPDEST SWAP8 POP POP POP POP POP POP POP POP SWAP2 SWAP1 POP JUMP JUMPDEST PUSH1 0x0 DUP1 PUSH1 0x0 DUP10 DUP10 PUSH2 0xFFFF AND PUSH2 0xFFFF DUP2 LT PUSH2 0x67E2 JUMPI PUSH2 0x67E1 PUSH2 0xA740 JUMP JUMPDEST JUMPDEST ADD PUSH1 0x40 MLOAD DUP1 PUSH1 0x80 ADD PUSH1 0x40 MSTORE SWAP1 DUP2 PUSH1 0x0 DUP3 ADD PUSH1 0x0 SWAP1 SLOAD SWAP1 PUSH2 0x100 EXP SWAP1 DIV PUSH4 0xFFFFFFFF AND PUSH4 0xFFFFFFFF AND PUSH4 0xFFFFFFFF AND DUP2 MSTORE PUSH1 0x20 ADD PUSH1 0x0 DUP3 ADD PUSH1 0x4 SWAP1 SLOAD SWAP1 PUSH2 0x100 EXP SWAP1 DIV PUSH1 0x6 SIGNEXTEND PUSH1 0x6 SIGNEXTEND PUSH1 0x6 SIGNEXTEND DUP2 MSTORE PUSH1 0x20 ADD PUSH1 0x0 DUP3 ADD PUSH1 0xB SWAP1 SLOAD SWAP1 PUSH2 0x100 EXP SWAP1 DIV PUSH20 0xFFFFFFFFFFFFFFFFFFFFFFFFFFFFFFFFFFFFFFFF AND PUSH20 0xFFFFFFFFFFFFFFFFFFFFFFFFFFFFFFFFFFFFFFFF AND PUSH20 0xFFFFFFFFFFFFFFFFFFFFFFFFFFFFFFFFFFFFFFFF AND DUP2 MSTORE PUSH1 0x20 ADD PUSH1 0x0 DUP3 ADD PUSH1 0x1F SWAP1 SLOAD SWAP1 PUSH2 0x100 EXP SWAP1 DIV PUSH1 0xFF AND ISZERO ISZERO ISZERO ISZERO DUP2 MSTORE POP POP SWAP1 POP DUP8 PUSH4 0xFFFFFFFF AND DUP2 PUSH1 0x0 ADD MLOAD PUSH4 0xFFFFFFFF AND SUB PUSH2 0x68C7 JUMPI DUP9 DUP6 SWAP3 POP SWAP3 POP POP PUSH2 0x6A04 JUMP JUMPDEST DUP5 PUSH2 0xFFFF AND DUP5 PUSH2 0xFFFF AND GT DUP1 ISZERO PUSH2 0x68F1 JUMPI POP PUSH1 0x1 DUP6 PUSH2 0x68E6 SWAP2 SWAP1 PUSH2 0xAF71 JUMP JUMPDEST PUSH2 0xFFFF AND DUP10 PUSH2 0xFFFF AND EQ JUMPDEST ISZERO PUSH2 0x68FE JUMPI DUP4 SWAP2 POP PUSH2 0x6902 JUMP JUMPDEST DUP5 SWAP2 POP JUMPDEST DUP2 PUSH1 0x1 DUP11 PUSH2 0x6910 SWAP2 SWAP1 PUSH2 0xAFA7 JUMP JUMPDEST PUSH2 0x691A SWAP2 SWAP1 PUSH2 0xAFDD JUMP JUMPDEST SWAP3 POP PUSH2 0x6928 DUP2 DUP10 DUP10 DUP10 PUSH2 0x6ED8 JUMP JUMPDEST DUP11 DUP5 PUSH2 0xFFFF AND PUSH2 0xFFFF DUP2 LT PUSH2 0x6940 JUMPI PUSH2 0x693F PUSH2 0xA740 JUMP JUMPDEST JUMPDEST ADD PUSH1 0x0 DUP3 ADD MLOAD DUP2 PUSH1 0x0 ADD PUSH1 0x0 PUSH2 0x100 EXP DUP2 SLOAD DUP2 PUSH4 0xFFFFFFFF MUL NOT AND SWAP1 DUP4 PUSH4 0xFFFFFFFF AND MUL OR SWAP1 SSTORE POP PUSH1 0x20 DUP3 ADD MLOAD DUP2 PUSH1 0x0 ADD PUSH1 0x4 PUSH2 0x100 EXP DUP2 SLOAD DUP2 PUSH7 0xFFFFFFFFFFFFFF MUL NOT AND SWAP1 DUP4 PUSH1 0x6 SIGNEXTEND PUSH7 0xFFFFFFFFFFFFFF AND MUL OR SWAP1 SSTORE POP PUSH1 0x40 DUP3 ADD MLOAD DUP2 PUSH1 0x0 ADD PUSH1 0xB PUSH2 0x100 EXP DUP2 SLOAD DUP2 PUSH20 0xFFFFFFFFFFFFFFFFFFFFFFFFFFFFFFFFFFFFFFFF MUL NOT AND SWAP1 DUP4 PUSH20 0xFFFFFFFFFFFFFFFFFFFFFFFFFFFFFFFFFFFFFFFF AND MUL OR SWAP1 SSTORE POP PUSH1 0x60 DUP3 ADD MLOAD DUP2 PUSH1 0x0 ADD PUSH1 0x1F PUSH2 0x100 EXP DUP2 SLOAD DUP2 PUSH1 0xFF MUL NOT AND SWAP1 DUP4 ISZERO ISZERO MUL OR SWAP1 SSTORE POP SWAP1 POP POP POP JUMPDEST SWAP8 POP SWAP8 SWAP6 POP POP POP POP POP POP JUMP JUMPDEST PUSH1 0x0 DUP1 DUP4 PUSH2 0xFFFF AND GT PUSH2 0x6A58 JUMPI PUSH1 0x40 MLOAD PUSH32 0x8C379A000000000000000000000000000000000000000000000000000000000 DUP2 MSTORE PUSH1 0x4 ADD PUSH2 0x6A4F SWAP1 PUSH2 0xA6F1 JUMP JUMPDEST PUSH1 0x40 MLOAD DUP1 SWAP2 SUB SWAP1 REVERT JUMPDEST DUP3 PUSH2 0xFFFF AND DUP3 PUSH2 0xFFFF AND GT PUSH2 0x6A6F JUMPI DUP3 SWAP1 POP PUSH2 0x6AD9 JUMP JUMPDEST PUSH1 0x0 DUP4 SWAP1 POP JUMPDEST DUP3 PUSH2 0xFFFF AND DUP2 PUSH2 0xFFFF AND LT ISZERO PUSH2 0x6AD4 JUMPI PUSH1 0x1 DUP6 DUP3 PUSH2 0xFFFF AND PUSH2 0xFFFF DUP2 LT PUSH2 0x6A9F JUMPI PUSH2 0x6A9E PUSH2 0xA740 JUMP JUMPDEST JUMPDEST ADD PUSH1 0x0 ADD PUSH1 0x0 PUSH2 0x100 EXP DUP2 SLOAD DUP2 PUSH4 0xFFFFFFFF MUL NOT AND SWAP1 DUP4 PUSH4 0xFFFFFFFF AND MUL OR SWAP1 SSTORE POP DUP1 DUP1 PUSH2 0x6ACC SWAP1 PUSH2 0xB00E JUMP JUMPDEST SWAP2 POP POP PUSH2 0x6A75 JUMP JUMPDEST POP DUP2 SWAP1 POP JUMPDEST SWAP4 SWAP3 POP POP POP JUMP JUMPDEST PUSH1 0x0 DUP1 PUSH1 0x40 MLOAD DUP1 PUSH1 0x80 ADD PUSH1 0x40 MSTORE DUP1 DUP5 PUSH4 0xFFFFFFFF AND DUP2 MSTORE PUSH1 0x20 ADD PUSH1 0x0 PUSH1 0x6 SIGNEXTEND DUP2 MSTORE PUSH1 0x20 ADD PUSH1 0x0 PUSH20 0xFFFFFFFFFFFFFFFFFFFFFFFFFFFFFFFFFFFFFFFF AND DUP2 MSTORE PUSH1 0x20 ADD PUSH1 0x1 ISZERO ISZERO DUP2 MSTORE POP DUP5 PUSH1 0x0 PUSH2 0xFFFF DUP2 LT PUSH2 0x6B3D JUMPI PUSH2 0x6B3C PUSH2 0xA740 JUMP JUMPDEST JUMPDEST ADD PUSH1 0x0 DUP3 ADD MLOAD DUP2 PUSH1 0x0 ADD PUSH1 0x0 PUSH2 0x100 EXP DUP2 SLOAD DUP2 PUSH4 0xFFFFFFFF MUL NOT AND SWAP1 DUP4 PUSH4 0xFFFFFFFF AND MUL OR SWAP1 SSTORE POP PUSH1 0x20 DUP3 ADD MLOAD DUP2 PUSH1 0x0 ADD PUSH1 0x4 PUSH2 0x100 EXP DUP2 SLOAD DUP2 PUSH7 0xFFFFFFFFFFFFFF MUL NOT AND SWAP1 DUP4 PUSH1 0x6 SIGNEXTEND PUSH7 0xFFFFFFFFFFFFFF AND MUL OR SWAP1 SSTORE POP PUSH1 0x40 DUP3 ADD MLOAD DUP2 PUSH1 0x0 ADD PUSH1 0xB PUSH2 0x100 EXP DUP2 SLOAD DUP2 PUSH20 0xFFFFFFFFFFFFFFFFFFFFFFFFFFFFFFFFFFFFFFFF MUL NOT AND SWAP1 DUP4 PUSH20 0xFFFFFFFFFFFFFFFFFFFFFFFFFFFFFFFFFFFFFFFF AND MUL OR SWAP1 SSTORE POP PUSH1 0x60 DUP3 ADD MLOAD DUP2 PUSH1 0x0 ADD PUSH1 0x1F PUSH2 0x100 EXP DUP2 SLOAD DUP2 PUSH1 0xFF MUL NOT AND SWAP1 DUP4 ISZERO ISZERO MUL OR SWAP1 SSTORE POP SWAP1 POP POP PUSH1 0x1 DUP1 SWAP2 POP SWAP2 POP SWAP3 POP SWAP3 SWAP1 POP JUMP JUMPDEST PUSH1 0x0 PUSH2 0x6C27 DUP7 DUP7 DUP7 PUSH1 0xA PUSH2 0x48FF SWAP1 SWAP4 SWAP3 SWAP2 SWAP1 PUSH4 0xFFFFFFFF AND JUMP JUMPDEST SWAP1 POP PUSH1 0x0 PUSH1 0x5 SLOAD SWAP1 POP PUSH1 0x0 DUP1 PUSH1 0x0 DUP7 PUSH1 0xF SIGNEXTEND EQ PUSH2 0x6DA7 JUMPI PUSH1 0x0 PUSH2 0x6C48 PUSH2 0x50AE JUMP JUMPDEST SWAP1 POP PUSH1 0x0 DUP1 PUSH2 0x6CC2 DUP4 PUSH1 0x0 PUSH1 0x4 PUSH1 0x0 ADD PUSH1 0x14 SWAP1 SLOAD SWAP1 PUSH2 0x100 EXP SWAP1 DIV PUSH1 0x2 SIGNEXTEND PUSH1 0x4 PUSH1 0x0 ADD PUSH1 0x17 SWAP1 SLOAD SWAP1 PUSH2 0x100 EXP SWAP1 DIV PUSH2 0xFFFF AND PUSH1 0x7 PUSH1 0x0 SWAP1 SLOAD SWAP1 PUSH2 0x100 EXP SWAP1 DIV PUSH16 0xFFFFFFFFFFFFFFFFFFFFFFFFFFFFFFFF AND PUSH1 0x4 PUSH1 0x0 ADD PUSH1 0x19 SWAP1 SLOAD SWAP1 PUSH2 0x100 EXP SWAP1 DIV PUSH2 0xFFFF AND PUSH1 0xB PUSH2 0x53EF SWAP1 SWAP7 SWAP6 SWAP5 SWAP4 SWAP3 SWAP2 SWAP1 PUSH4 0xFFFFFFFF AND JUMP JUMPDEST SWAP2 POP SWAP2 POP PUSH2 0x6D08 DUP12 DUP10 DUP12 DUP10 DUP6 DUP8 DUP10 PUSH1 0x0 DUP1 PUSH1 0x3 SWAP1 SLOAD SWAP1 PUSH2 0x100 EXP SWAP1 DIV PUSH16 0xFFFFFFFFFFFFFFFFFFFFFFFFFFFFFFFF AND PUSH1 0x8 PUSH2 0x794C SWAP1 SWAP10 SWAP9 SWAP8 SWAP7 SWAP6 SWAP5 SWAP4 SWAP3 SWAP2 SWAP1 PUSH4 0xFFFFFFFF AND JUMP JUMPDEST SWAP5 POP PUSH2 0x6D4D DUP11 DUP10 DUP12 DUP10 DUP6 DUP8 DUP10 PUSH1 0x1 PUSH1 0x0 PUSH1 0x3 SWAP1 SLOAD SWAP1 PUSH2 0x100 EXP SWAP1 DIV PUSH16 0xFFFFFFFFFFFFFFFFFFFFFFFFFFFFFFFF AND PUSH1 0x8 PUSH2 0x794C SWAP1 SWAP10 SWAP9 SWAP8 SWAP7 SWAP6 SWAP5 SWAP4 SWAP3 SWAP2 SWAP1 PUSH4 0xFFFFFFFF AND JUMP JUMPDEST SWAP4 POP DUP5 ISZERO PUSH2 0x6D79 JUMPI PUSH2 0x6D78 DUP12 PUSH1 0x0 DUP1 SLOAD SWAP1 PUSH2 0x100 EXP SWAP1 DIV PUSH1 0x2 SIGNEXTEND PUSH1 0x9 PUSH2 0x7C10 SWAP1 SWAP3 SWAP2 SWAP1 PUSH4 0xFFFFFFFF AND JUMP JUMPDEST JUMPDEST DUP4 ISZERO PUSH2 0x6DA3 JUMPI PUSH2 0x6DA2 DUP11 PUSH1 0x0 DUP1 SLOAD SWAP1 PUSH2 0x100 EXP SWAP1 DIV PUSH1 0x2 SIGNEXTEND PUSH1 0x9 PUSH2 0x7C10 SWAP1 SWAP3 SWAP2 SWAP1 PUSH4 0xFFFFFFFF AND JUMP JUMPDEST JUMPDEST POP POP POP JUMPDEST PUSH1 0x0 PUSH2 0x6DC3 DUP10 DUP10 DUP9 DUP8 PUSH1 0x8 PUSH2 0x7C80 SWAP1 SWAP5 SWAP4 SWAP3 SWAP2 SWAP1 PUSH4 0xFFFFFFFF AND JUMP JUMPDEST SWAP1 POP PUSH2 0x6DDA DUP8 DUP3 DUP8 PUSH2 0x7D3C SWAP1 SWAP3 SWAP2 SWAP1 PUSH4 0xFFFFFFFF AND JUMP JUMPDEST PUSH1 0x0 DUP8 PUSH1 0xF SIGNEXTEND SLT ISZERO PUSH2 0x6E1D JUMPI DUP3 ISZERO PUSH2 0x6E01 JUMPI PUSH2 0x6E00 DUP10 PUSH1 0x8 PUSH2 0x7FD4 SWAP1 SWAP2 SWAP1 PUSH4 0xFFFFFFFF AND JUMP JUMPDEST JUMPDEST DUP2 ISZERO PUSH2 0x6E1C JUMPI PUSH2 0x6E1B DUP9 PUSH1 0x8 PUSH2 0x7FD4 SWAP1 SWAP2 SWAP1 PUSH4 0xFFFFFFFF AND JUMP JUMPDEST JUMPDEST JUMPDEST POP POP POP POP SWAP6 SWAP5 POP POP POP POP POP JUMP JUMPDEST PUSH1 0x0 DUP1 DUP3 PUSH1 0xF SIGNEXTEND SLT PUSH2 0x6E50 JUMPI PUSH2 0x6E4B PUSH2 0x6E46 DUP6 DUP6 DUP6 PUSH1 0x1 PUSH2 0x76DA JUMP JUMPDEST PUSH2 0x5F13 JUMP JUMPDEST PUSH2 0x6E78 JUMP JUMPDEST PUSH2 0x6E6E PUSH2 0x6E69 DUP6 DUP6 DUP6 PUSH2 0x6E62 SWAP1 PUSH2 0x9CCD JUMP JUMPDEST PUSH1 0x0 PUSH2 0x76DA JUMP JUMPDEST PUSH2 0x5F13 JUMP JUMPDEST PUSH2 0x6E77 SWAP1 PUSH2 0x9D15 JUMP JUMPDEST JUMPDEST SWAP1 POP SWAP4 SWAP3 POP POP POP JUMP JUMPDEST PUSH1 0x0 DUP1 DUP3 PUSH1 0xF SIGNEXTEND SLT PUSH2 0x6EA7 JUMPI PUSH2 0x6EA2 PUSH2 0x6E9D DUP6 DUP6 DUP6 PUSH1 0x1 PUSH2 0x75EE JUMP JUMPDEST PUSH2 0x5F13 JUMP JUMPDEST PUSH2 0x6ECF JUMP JUMPDEST PUSH2 0x6EC5 PUSH2 0x6EC0 DUP6 DUP6 DUP6 PUSH2 0x6EB9 SWAP1 PUSH2 0x9CCD JUMP JUMPDEST PUSH1 0x0 PUSH2 0x75EE JUMP JUMPDEST PUSH2 0x5F13 JUMP JUMPDEST PUSH2 0x6ECE SWAP1 PUSH2 0x9D15 JUMP JUMPDEST JUMPDEST SWAP1 POP SWAP4 SWAP3 POP POP POP JUMP JUMPDEST PUSH2 0x6EE0 PUSH2 0x8855 JUMP JUMPDEST PUSH1 0x0 DUP6 PUSH1 0x0 ADD MLOAD DUP6 PUSH2 0x6EF2 SWAP2 SWAP1 PUSH2 0x9E3B JUMP JUMPDEST SWAP1 POP PUSH1 0x40 MLOAD DUP1 PUSH1 0x80 ADD PUSH1 0x40 MSTORE DUP1 DUP7 PUSH4 0xFFFFFFFF AND DUP2 MSTORE PUSH1 0x20 ADD DUP3 DUP7 PUSH1 0x2 SIGNEXTEND PUSH2 0x6F1A SWAP2 SWAP1 PUSH2 0xB045 JUMP JUMPDEST PUSH1 0x3 SIGNEXTEND DUP9 PUSH1 0x20 ADD MLOAD PUSH2 0x6F2C SWAP2 SWAP1 PUSH2 0xAA4A JUMP JUMPDEST PUSH1 0x6 SIGNEXTEND DUP2 MSTORE PUSH1 0x20 ADD PUSH1 0x0 DUP6 PUSH16 0xFFFFFFFFFFFFFFFFFFFFFFFFFFFFFFFF AND GT PUSH2 0x6F55 JUMPI PUSH1 0x1 PUSH2 0x6F57 JUMP JUMPDEST DUP5 JUMPDEST PUSH16 0xFFFFFFFFFFFFFFFFFFFFFFFFFFFFFFFF AND PUSH1 0x80 DUP5 PUSH4 0xFFFFFFFF AND PUSH20 0xFFFFFFFFFFFFFFFFFFFFFFFFFFFFFFFFFFFFFFFF AND SWAP1 SHL PUSH2 0x6F94 SWAP2 SWAP1 PUSH2 0xAAF7 JUMP JUMPDEST DUP9 PUSH1 0x40 ADD MLOAD PUSH2 0x6FA3 SWAP2 SWAP1 PUSH2 0xAB28 JUMP JUMPDEST PUSH20 0xFFFFFFFFFFFFFFFFFFFFFFFFFFFFFFFFFFFFFFFF AND DUP2 MSTORE PUSH1 0x20 ADD PUSH1 0x1 ISZERO ISZERO DUP2 MSTORE POP SWAP2 POP POP SWAP5 SWAP4 POP POP POP POP JUMP JUMPDEST PUSH2 0x6FD8 PUSH2 0x8855 JUMP JUMPDEST PUSH2 0x6FE0 PUSH2 0x8855 JUMP JUMPDEST DUP9 DUP6 PUSH2 0xFFFF AND PUSH2 0xFFFF DUP2 LT PUSH2 0x6FF8 JUMPI PUSH2 0x6FF7 PUSH2 0xA740 JUMP JUMPDEST JUMPDEST ADD PUSH1 0x40 MLOAD DUP1 PUSH1 0x80 ADD PUSH1 0x40 MSTORE SWAP1 DUP2 PUSH1 0x0 DUP3 ADD PUSH1 0x0 SWAP1 SLOAD SWAP1 PUSH2 0x100 EXP SWAP1 DIV PUSH4 0xFFFFFFFF AND PUSH4 0xFFFFFFFF AND PUSH4 0xFFFFFFFF AND DUP2 MSTORE PUSH1 0x20 ADD PUSH1 0x0 DUP3 ADD PUSH1 0x4 SWAP1 SLOAD SWAP1 PUSH2 0x100 EXP SWAP1 DIV PUSH1 0x6 SIGNEXTEND PUSH1 0x6 SIGNEXTEND PUSH1 0x6 SIGNEXTEND DUP2 MSTORE PUSH1 0x20 ADD PUSH1 0x0 DUP3 ADD PUSH1 0xB SWAP1 SLOAD SWAP1 PUSH2 0x100 EXP SWAP1 DIV PUSH20 0xFFFFFFFFFFFFFFFFFFFFFFFFFFFFFFFFFFFFFFFF AND PUSH20 0xFFFFFFFFFFFFFFFFFFFFFFFFFFFFFFFFFFFFFFFF AND PUSH20 0xFFFFFFFFFFFFFFFFFFFFFFFFFFFFFFFFFFFFFFFF AND DUP2 MSTORE PUSH1 0x20 ADD PUSH1 0x0 DUP3 ADD PUSH1 0x1F SWAP1 SLOAD SWAP1 PUSH2 0x100 EXP SWAP1 DIV PUSH1 0xFF AND ISZERO ISZERO ISZERO ISZERO DUP2 MSTORE POP POP SWAP2 POP PUSH2 0x70C9 DUP9 DUP4 PUSH1 0x0 ADD MLOAD DUP10 PUSH2 0x80AD JUMP JUMPDEST ISZERO PUSH2 0x70FC JUMPI DUP7 PUSH4 0xFFFFFFFF AND DUP3 PUSH1 0x0 ADD MLOAD PUSH4 0xFFFFFFFF AND SUB ISZERO PUSH2 0x732E JUMPI DUP2 PUSH2 0x70F3 DUP4 DUP10 DUP10 DUP9 PUSH2 0x6ED8 JUMP JUMPDEST SWAP2 POP SWAP2 POP PUSH2 0x732E JUMP JUMPDEST DUP9 DUP4 PUSH1 0x1 DUP8 PUSH2 0x710B SWAP2 SWAP1 PUSH2 0xAFA7 JUMP JUMPDEST PUSH2 0x7115 SWAP2 SWAP1 PUSH2 0xAFDD JUMP JUMPDEST PUSH2 0xFFFF AND PUSH2 0xFFFF DUP2 LT PUSH2 0x712B JUMPI PUSH2 0x712A PUSH2 0xA740 JUMP JUMPDEST JUMPDEST ADD PUSH1 0x40 MLOAD DUP1 PUSH1 0x80 ADD PUSH1 0x40 MSTORE SWAP1 DUP2 PUSH1 0x0 DUP3 ADD PUSH1 0x0 SWAP1 SLOAD SWAP1 PUSH2 0x100 EXP SWAP1 DIV PUSH4 0xFFFFFFFF AND PUSH4 0xFFFFFFFF AND PUSH4 0xFFFFFFFF AND DUP2 MSTORE PUSH1 0x20 ADD PUSH1 0x0 DUP3 ADD PUSH1 0x4 SWAP1 SLOAD SWAP1 PUSH2 0x100 EXP SWAP1 DIV PUSH1 0x6 SIGNEXTEND PUSH1 0x6 SIGNEXTEND PUSH1 0x6 SIGNEXTEND DUP2 MSTORE PUSH1 0x20 ADD PUSH1 0x0 DUP3 ADD PUSH1 0xB SWAP1 SLOAD SWAP1 PUSH2 0x100 EXP SWAP1 DIV PUSH20 0xFFFFFFFFFFFFFFFFFFFFFFFFFFFFFFFFFFFFFFFF AND PUSH20 0xFFFFFFFFFFFFFFFFFFFFFFFFFFFFFFFFFFFFFFFF AND PUSH20 0xFFFFFFFFFFFFFFFFFFFFFFFFFFFFFFFFFFFFFFFF AND DUP2 MSTORE PUSH1 0x20 ADD PUSH1 0x0 DUP3 ADD PUSH1 0x1F SWAP1 SLOAD SWAP1 PUSH2 0x100 EXP SWAP1 DIV PUSH1 0xFF AND ISZERO ISZERO ISZERO ISZERO DUP2 MSTORE POP POP SWAP2 POP DUP2 PUSH1 0x60 ADD MLOAD PUSH2 0x72CE JUMPI DUP9 PUSH1 0x0 PUSH2 0xFFFF DUP2 LT PUSH2 0x720B JUMPI PUSH2 0x720A PUSH2 0xA740 JUMP JUMPDEST JUMPDEST ADD PUSH1 0x40 MLOAD DUP1 PUSH1 0x80 ADD PUSH1 0x40 MSTORE SWAP1 DUP2 PUSH1 0x0 DUP3 ADD PUSH1 0x0 SWAP1 SLOAD SWAP1 PUSH2 0x100 EXP SWAP1 DIV PUSH4 0xFFFFFFFF AND PUSH4 0xFFFFFFFF AND PUSH4 0xFFFFFFFF AND DUP2 MSTORE PUSH1 0x20 ADD PUSH1 0x0 DUP3 ADD PUSH1 0x4 SWAP1 SLOAD SWAP1 PUSH2 0x100 EXP SWAP1 DIV PUSH1 0x6 SIGNEXTEND PUSH1 0x6 SIGNEXTEND PUSH1 0x6 SIGNEXTEND DUP2 MSTORE PUSH1 0x20 ADD PUSH1 0x0 DUP3 ADD PUSH1 0xB SWAP1 SLOAD SWAP1 PUSH2 0x100 EXP SWAP1 DIV PUSH20 0xFFFFFFFFFFFFFFFFFFFFFFFFFFFFFFFFFFFFFFFF AND PUSH20 0xFFFFFFFFFFFFFFFFFFFFFFFFFFFFFFFFFFFFFFFF AND PUSH20 0xFFFFFFFFFFFFFFFFFFFFFFFFFFFFFFFFFFFFFFFF AND DUP2 MSTORE PUSH1 0x20 ADD PUSH1 0x0 DUP3 ADD PUSH1 0x1F SWAP1 SLOAD SWAP1 PUSH2 0x100 EXP SWAP1 DIV PUSH1 0xFF AND ISZERO ISZERO ISZERO ISZERO DUP2 MSTORE POP POP SWAP2 POP JUMPDEST PUSH2 0x72DD DUP9 DUP4 PUSH1 0x0 ADD MLOAD DUP10 PUSH2 0x80AD JUMP JUMPDEST PUSH2 0x731C JUMPI PUSH1 0x40 MLOAD PUSH32 0x8C379A000000000000000000000000000000000000000000000000000000000 DUP2 MSTORE PUSH1 0x4 ADD PUSH2 0x7313 SWAP1 PUSH2 0xB170 JUMP JUMPDEST PUSH1 0x40 MLOAD DUP1 SWAP2 SUB SWAP1 REVERT JUMPDEST PUSH2 0x7329 DUP10 DUP10 DUP10 DUP9 DUP8 PUSH2 0x8187 JUMP JUMPDEST SWAP2 POP SWAP2 POP JUMPDEST SWAP8 POP SWAP8 SWAP6 POP POP POP POP POP POP JUMP JUMPDEST PUSH1 0x0 DUP1 PUSH1 0x8 DUP4 PUSH1 0x2 SIGNEXTEND SWAP1 SAR SWAP2 POP PUSH2 0x100 DUP4 PUSH2 0x7355 SWAP2 SWAP1 PUSH2 0xB190 JUMP JUMPDEST SWAP1 POP SWAP2 POP SWAP2 JUMP JUMPDEST PUSH1 0x0 DUP1 DUP3 GT PUSH2 0x736A JUMPI PUSH1 0x0 DUP1 REVERT JUMPDEST PUSH17 0x100000000000000000000000000000000 DUP3 LT PUSH2 0x7399 JUMPI PUSH1 0x80 DUP3 SWAP1 SHR SWAP2 POP PUSH1 0x80 DUP2 PUSH2 0x7396 SWAP2 SWAP1 PUSH2 0x9826 JUMP JUMPDEST SWAP1 POP JUMPDEST PUSH9 0x10000000000000000 DUP3 LT PUSH2 0x73C0 JUMPI PUSH1 0x40 DUP3 SWAP1 SHR SWAP2 POP PUSH1 0x40 DUP2 PUSH2 0x73BD SWAP2 SWAP1 PUSH2 0x9826 JUMP JUMPDEST SWAP1 POP JUMPDEST PUSH5 0x100000000 DUP3 LT PUSH2 0x73E3 JUMPI PUSH1 0x20 DUP3 SWAP1 SHR SWAP2 POP PUSH1 0x20 DUP2 PUSH2 0x73E0 SWAP2 SWAP1 PUSH2 0x9826 JUMP JUMPDEST SWAP1 POP JUMPDEST PUSH3 0x10000 DUP3 LT PUSH2 0x7404 JUMPI PUSH1 0x10 DUP3 SWAP1 SHR SWAP2 POP PUSH1 0x10 DUP2 PUSH2 0x7401 SWAP2 SWAP1 PUSH2 0x9826 JUMP JUMPDEST SWAP1 POP JUMPDEST PUSH2 0x100 DUP3 LT PUSH2 0x7424 JUMPI PUSH1 0x8 DUP3 SWAP1 SHR SWAP2 POP PUSH1 0x8 DUP2 PUSH2 0x7421 SWAP2 SWAP1 PUSH2 0x9826 JUMP JUMPDEST SWAP1 POP JUMPDEST PUSH1 0x10 DUP3 LT PUSH2 0x7443 JUMPI PUSH1 0x4 DUP3 SWAP1 SHR SWAP2 POP PUSH1 0x4 DUP2 PUSH2 0x7440 SWAP2 SWAP1 PUSH2 0x9826 JUMP JUMPDEST SWAP1 POP JUMPDEST PUSH1 0x4 DUP3 LT PUSH2 0x7462 JUMPI PUSH1 0x2 DUP3 SWAP1 SHR SWAP2 POP PUSH1 0x2 DUP2 PUSH2 0x745F SWAP2 SWAP1 PUSH2 0x9826 JUMP JUMPDEST SWAP1 POP JUMPDEST PUSH1 0x2 DUP3 LT PUSH2 0x747A JUMPI PUSH1 0x1 DUP2 PUSH2 0x7477 SWAP2 SWAP1 PUSH2 0x9826 JUMP JUMPDEST SWAP1 POP JUMPDEST SWAP2 SWAP1 POP JUMP JUMPDEST PUSH1 0x0 DUP1 DUP3 GT PUSH2 0x748D JUMPI PUSH1 0x0 DUP1 REVERT JUMPDEST PUSH1 0xFF SWAP1 POP PUSH1 0x0 PUSH16 0xFFFFFFFFFFFFFFFFFFFFFFFFFFFFFFFF DUP1 AND DUP4 AND GT ISZERO PUSH2 0x74C2 JUMPI PUSH1 0x80 DUP2 PUSH2 0x74BB SWAP2 SWAP1 PUSH2 0xABE9 JUMP JUMPDEST SWAP1 POP PUSH2 0x74CA JUMP JUMPDEST PUSH1 0x80 DUP3 SWAP1 SHR SWAP2 POP JUMPDEST PUSH1 0x0 PUSH8 0xFFFFFFFFFFFFFFFF DUP1 AND DUP4 AND GT ISZERO PUSH2 0x74F3 JUMPI PUSH1 0x40 DUP2 PUSH2 0x74EC SWAP2 SWAP1 PUSH2 0xABE9 JUMP JUMPDEST SWAP1 POP PUSH2 0x74FB JUMP JUMPDEST PUSH1 0x40 DUP3 SWAP1 SHR SWAP2 POP JUMPDEST PUSH1 0x0 PUSH4 0xFFFFFFFF DUP1 AND DUP4 AND GT ISZERO PUSH2 0x7520 JUMPI PUSH1 0x20 DUP2 PUSH2 0x7519 SWAP2 SWAP1 PUSH2 0xABE9 JUMP JUMPDEST SWAP1 POP PUSH2 0x7528 JUMP JUMPDEST PUSH1 0x20 DUP3 SWAP1 SHR SWAP2 POP JUMPDEST PUSH1 0x0 PUSH2 0xFFFF DUP1 AND DUP4 AND GT ISZERO PUSH2 0x754B JUMPI PUSH1 0x10 DUP2 PUSH2 0x7544 SWAP2 SWAP1 PUSH2 0xABE9 JUMP JUMPDEST SWAP1 POP PUSH2 0x7553 JUMP JUMPDEST PUSH1 0x10 DUP3 SWAP1 SHR SWAP2 POP JUMPDEST PUSH1 0x0 PUSH1 0xFF DUP1 AND DUP4 AND GT ISZERO PUSH2 0x7575 JUMPI PUSH1 0x8 DUP2 PUSH2 0x756E SWAP2 SWAP1 PUSH2 0xABE9 JUMP JUMPDEST SWAP1 POP PUSH2 0x757D JUMP JUMPDEST PUSH1 0x8 DUP3 SWAP1 SHR SWAP2 POP JUMPDEST PUSH1 0x0 PUSH1 0xF DUP4 AND GT ISZERO PUSH2 0x759D JUMPI PUSH1 0x4 DUP2 PUSH2 0x7596 SWAP2 SWAP1 PUSH2 0xABE9 JUMP JUMPDEST SWAP1 POP PUSH2 0x75A5 JUMP JUMPDEST PUSH1 0x4 DUP3 SWAP1 SHR SWAP2 POP JUMPDEST PUSH1 0x0 PUSH1 0x3 DUP4 AND GT ISZERO PUSH2 0x75C5 JUMPI PUSH1 0x2 DUP2 PUSH2 0x75BE SWAP2 SWAP1 PUSH2 0xABE9 JUMP JUMPDEST SWAP1 POP PUSH2 0x75CD JUMP JUMPDEST PUSH1 0x2 DUP3 SWAP1 SHR SWAP2 POP JUMPDEST PUSH1 0x0 PUSH1 0x1 DUP4 AND GT ISZERO PUSH2 0x75E9 JUMPI PUSH1 0x1 DUP2 PUSH2 0x75E6 SWAP2 SWAP1 PUSH2 0xABE9 JUMP JUMPDEST SWAP1 POP JUMPDEST SWAP2 SWAP1 POP JUMP JUMPDEST PUSH1 0x0 DUP4 PUSH20 0xFFFFFFFFFFFFFFFFFFFFFFFFFFFFFFFFFFFFFFFF AND DUP6 PUSH20 0xFFFFFFFFFFFFFFFFFFFFFFFFFFFFFFFFFFFFFFFF AND GT ISZERO PUSH2 0x762F JUMPI DUP4 DUP6 DUP1 SWAP6 POP DUP2 SWAP7 POP POP POP JUMPDEST DUP2 PUSH2 0x7684 JUMPI PUSH2 0x767F DUP4 PUSH16 0xFFFFFFFFFFFFFFFFFFFFFFFFFFFFFFFF AND DUP7 DUP7 PUSH2 0x7656 SWAP2 SWAP1 PUSH2 0x9DF3 JUMP JUMPDEST PUSH20 0xFFFFFFFFFFFFFFFFFFFFFFFFFFFFFFFFFFFFFFFF AND PUSH13 0x1000000000000000000000000 PUSH2 0x5FA1 JUMP JUMPDEST PUSH2 0x76D0 JUMP JUMPDEST PUSH2 0x76CF DUP4 PUSH16 0xFFFFFFFFFFFFFFFFFFFFFFFFFFFFFFFF AND DUP7 DUP7 PUSH2 0x76A6 SWAP2 SWAP1 PUSH2 0x9DF3 JUMP JUMPDEST PUSH20 0xFFFFFFFFFFFFFFFFFFFFFFFFFFFFFFFFFFFFFFFF AND PUSH13 0x1000000000000000000000000 PUSH2 0x525D JUMP JUMPDEST JUMPDEST SWAP1 POP SWAP5 SWAP4 POP POP POP POP JUMP JUMPDEST PUSH1 0x0 DUP4 PUSH20 0xFFFFFFFFFFFFFFFFFFFFFFFFFFFFFFFFFFFFFFFF AND DUP6 PUSH20 0xFFFFFFFFFFFFFFFFFFFFFFFFFFFFFFFFFFFFFFFF AND GT ISZERO PUSH2 0x771B JUMPI DUP4 DUP6 DUP1 SWAP6 POP DUP2 SWAP7 POP POP POP JUMPDEST PUSH1 0x0 PUSH1 0x60 PUSH1 0xFF AND DUP5 PUSH16 0xFFFFFFFFFFFFFFFFFFFFFFFFFFFFFFFF AND SWAP1 SHL SWAP1 POP PUSH1 0x0 DUP7 DUP7 PUSH2 0x7747 SWAP2 SWAP1 PUSH2 0x9DF3 JUMP JUMPDEST PUSH20 0xFFFFFFFFFFFFFFFFFFFFFFFFFFFFFFFFFFFFFFFF AND SWAP1 POP PUSH1 0x0 DUP8 PUSH20 0xFFFFFFFFFFFFFFFFFFFFFFFFFFFFFFFFFFFFFFFF AND GT PUSH2 0x7782 JUMPI PUSH1 0x0 DUP1 REVERT JUMPDEST DUP4 PUSH2 0x77CE JUMPI DUP7 PUSH20 0xFFFFFFFFFFFFFFFFFFFFFFFFFFFFFFFFFFFFFFFF AND PUSH2 0x77BF DUP4 DUP4 DUP10 PUSH20 0xFFFFFFFFFFFFFFFFFFFFFFFFFFFFFFFFFFFFFFFF AND PUSH2 0x5FA1 JUMP JUMPDEST PUSH2 0x77C9 SWAP2 SWAP1 PUSH2 0x9BFE JUMP JUMPDEST PUSH2 0x780F JUMP JUMPDEST PUSH2 0x780E PUSH2 0x77F2 DUP4 DUP4 DUP10 PUSH20 0xFFFFFFFFFFFFFFFFFFFFFFFFFFFFFFFFFFFFFFFF AND PUSH2 0x525D JUMP JUMPDEST DUP9 PUSH20 0xFFFFFFFFFFFFFFFFFFFFFFFFFFFFFFFFFFFFFFFF AND PUSH2 0x8460 JUMP JUMPDEST JUMPDEST SWAP3 POP POP POP SWAP5 SWAP4 POP POP POP POP JUMP JUMPDEST PUSH1 0x0 DUP1 DUP3 SLT ISZERO PUSH2 0x7860 JUMPI PUSH1 0x40 MLOAD PUSH32 0x8C379A000000000000000000000000000000000000000000000000000000000 DUP2 MSTORE PUSH1 0x4 ADD PUSH2 0x7857 SWAP1 PUSH2 0xB20D JUMP JUMPDEST PUSH1 0x40 MLOAD DUP1 SWAP2 SUB SWAP1 REVERT JUMPDEST DUP2 SWAP1 POP SWAP2 SWAP1 POP JUMP JUMPDEST PUSH1 0x0 DUP1 DUP6 PUSH20 0xFFFFFFFFFFFFFFFFFFFFFFFFFFFFFFFFFFFFFFFF AND GT PUSH2 0x788C JUMPI PUSH1 0x0 DUP1 REVERT JUMPDEST PUSH1 0x0 DUP5 PUSH16 0xFFFFFFFFFFFFFFFFFFFFFFFFFFFFFFFF AND GT PUSH2 0x78AB JUMPI PUSH1 0x0 DUP1 REVERT JUMPDEST DUP2 PUSH2 0x78C2 JUMPI PUSH2 0x78BD DUP6 DUP6 DUP6 PUSH1 0x1 PUSH2 0x8473 JUMP JUMPDEST PUSH2 0x78D0 JUMP JUMPDEST PUSH2 0x78CF DUP6 DUP6 DUP6 PUSH1 0x1 PUSH2 0x85F0 JUMP JUMPDEST JUMPDEST SWAP1 POP SWAP5 SWAP4 POP POP POP POP JUMP JUMPDEST PUSH1 0x0 DUP1 DUP6 PUSH20 0xFFFFFFFFFFFFFFFFFFFFFFFFFFFFFFFFFFFFFFFF AND GT PUSH2 0x78FE JUMPI PUSH1 0x0 DUP1 REVERT JUMPDEST PUSH1 0x0 DUP5 PUSH16 0xFFFFFFFFFFFFFFFFFFFFFFFFFFFFFFFF AND GT PUSH2 0x791D JUMPI PUSH1 0x0 DUP1 REVERT JUMPDEST DUP2 PUSH2 0x7934 JUMPI PUSH2 0x792F DUP6 DUP6 DUP6 PUSH1 0x0 PUSH2 0x85F0 JUMP JUMPDEST PUSH2 0x7942 JUMP JUMPDEST PUSH2 0x7941 DUP6 DUP6 DUP6 PUSH1 0x0 PUSH2 0x8473 JUMP JUMPDEST JUMPDEST SWAP1 POP SWAP5 SWAP4 POP POP POP POP JUMP JUMPDEST PUSH1 0x0 DUP1 DUP12 PUSH1 0x0 DUP13 PUSH1 0x2 SIGNEXTEND PUSH1 0x2 SIGNEXTEND DUP2 MSTORE PUSH1 0x20 ADD SWAP1 DUP2 MSTORE PUSH1 0x20 ADD PUSH1 0x0 KECCAK256 SWAP1 POP PUSH1 0x0 DUP2 PUSH1 0x0 ADD PUSH1 0x0 SWAP1 SLOAD SWAP1 PUSH2 0x100 EXP SWAP1 DIV PUSH16 0xFFFFFFFFFFFFFFFFFFFFFFFFFFFFFFFF AND SWAP1 POP PUSH1 0x0 PUSH2 0x799A DUP3 DUP13 PUSH2 0x62BB JUMP JUMPDEST SWAP1 POP DUP5 PUSH16 0xFFFFFFFFFFFFFFFFFFFFFFFFFFFFFFFF AND DUP2 PUSH16 0xFFFFFFFFFFFFFFFFFFFFFFFFFFFFFFFF AND GT ISZERO PUSH2 0x7A03 JUMPI PUSH1 0x40 MLOAD PUSH32 0x8C379A000000000000000000000000000000000000000000000000000000000 DUP2 MSTORE PUSH1 0x4 ADD PUSH2 0x79FA SWAP1 PUSH2 0xB279 JUMP JUMPDEST PUSH1 0x40 MLOAD DUP1 SWAP2 SUB SWAP1 REVERT JUMPDEST PUSH1 0x0 DUP3 PUSH16 0xFFFFFFFFFFFFFFFFFFFFFFFFFFFFFFFF AND EQ ISZERO ISZERO PUSH1 0x0 DUP3 PUSH16 0xFFFFFFFFFFFFFFFFFFFFFFFFFFFFFFFF AND EQ ISZERO ISZERO EQ ISZERO SWAP4 POP PUSH1 0x0 DUP3 PUSH16 0xFFFFFFFFFFFFFFFFFFFFFFFFFFFFFFFF AND SUB PUSH2 0x7B18 JUMPI DUP12 PUSH1 0x2 SIGNEXTEND DUP14 PUSH1 0x2 SIGNEXTEND SGT PUSH2 0x7AFA JUMPI DUP10 DUP4 PUSH1 0x1 ADD DUP2 SWAP1 SSTORE POP DUP9 DUP4 PUSH1 0x2 ADD PUSH1 0x7 PUSH2 0x100 EXP DUP2 SLOAD DUP2 PUSH20 0xFFFFFFFFFFFFFFFFFFFFFFFFFFFFFFFFFFFFFFFF MUL NOT AND SWAP1 DUP4 PUSH20 0xFFFFFFFFFFFFFFFFFFFFFFFFFFFFFFFFFFFFFFFF AND MUL OR SWAP1 SSTORE POP DUP8 DUP4 PUSH1 0x2 ADD PUSH1 0x0 PUSH2 0x100 EXP DUP2 SLOAD DUP2 PUSH7 0xFFFFFFFFFFFFFF MUL NOT AND SWAP1 DUP4 PUSH1 0x6 SIGNEXTEND PUSH7 0xFFFFFFFFFFFFFF AND MUL OR SWAP1 SSTORE POP DUP7 DUP4 PUSH1 0x2 ADD PUSH1 0x1B PUSH2 0x100 EXP DUP2 SLOAD DUP2 PUSH4 0xFFFFFFFF MUL NOT AND SWAP1 DUP4 PUSH4 0xFFFFFFFF AND MUL OR SWAP1 SSTORE POP JUMPDEST PUSH1 0x1 DUP4 PUSH1 0x2 ADD PUSH1 0x1F PUSH2 0x100 EXP DUP2 SLOAD DUP2 PUSH1 0xFF MUL NOT AND SWAP1 DUP4 ISZERO ISZERO MUL OR SWAP1 SSTORE POP JUMPDEST DUP1 DUP4 PUSH1 0x0 ADD PUSH1 0x0 PUSH2 0x100 EXP DUP2 SLOAD DUP2 PUSH16 0xFFFFFFFFFFFFFFFFFFFFFFFFFFFFFFFF MUL NOT AND SWAP1 DUP4 PUSH16 0xFFFFFFFFFFFFFFFFFFFFFFFFFFFFFFFF AND MUL OR SWAP1 SSTORE POP DUP6 PUSH2 0x7B8F JUMPI PUSH2 0x7B8A PUSH2 0x7B85 DUP13 PUSH1 0xF SIGNEXTEND DUP6 PUSH1 0x0 ADD PUSH1 0x10 SWAP1 SLOAD SWAP1 PUSH2 0x100 EXP SWAP1 DIV PUSH1 0xF SIGNEXTEND PUSH1 0xF SIGNEXTEND PUSH2 0x5F75 SWAP1 SWAP2 SWAP1 PUSH4 0xFFFFFFFF AND JUMP JUMPDEST PUSH2 0x87A2 JUMP JUMPDEST PUSH2 0x7BC2 JUMP JUMPDEST PUSH2 0x7BC1 PUSH2 0x7BBC DUP13 PUSH1 0xF SIGNEXTEND DUP6 PUSH1 0x0 ADD PUSH1 0x10 SWAP1 SLOAD SWAP1 PUSH2 0x100 EXP SWAP1 DIV PUSH1 0xF SIGNEXTEND PUSH1 0xF SIGNEXTEND PUSH2 0x5F49 SWAP1 SWAP2 SWAP1 PUSH4 0xFFFFFFFF AND JUMP JUMPDEST PUSH2 0x87A2 JUMP JUMPDEST JUMPDEST DUP4 PUSH1 0x0 ADD PUSH1 0x10 PUSH2 0x100 EXP DUP2 SLOAD DUP2 PUSH16 0xFFFFFFFFFFFFFFFFFFFFFFFFFFFFFFFF MUL NOT AND SWAP1 DUP4 PUSH1 0xF SIGNEXTEND PUSH16 0xFFFFFFFFFFFFFFFFFFFFFFFFFFFFFFFF AND MUL OR SWAP1 SSTORE POP POP POP POP SWAP11 SWAP10 POP POP POP POP POP POP POP POP POP POP JUMP JUMPDEST PUSH1 0x0 DUP2 DUP4 PUSH2 0x7C1E SWAP2 SWAP1 PUSH2 0xAB70 JUMP JUMPDEST PUSH1 0x2 SIGNEXTEND EQ PUSH2 0x7C2B JUMPI PUSH1 0x0 DUP1 REVERT JUMPDEST PUSH1 0x0 DUP1 PUSH2 0x7C42 DUP4 DUP6 PUSH2 0x7C3D SWAP2 SWAP1 PUSH2 0xA30D JUMP JUMPDEST PUSH2 0x733A JUMP JUMPDEST SWAP2 POP SWAP2 POP PUSH1 0x0 DUP2 PUSH1 0xFF AND PUSH1 0x1 SWAP1 SHL SWAP1 POP DUP1 DUP7 PUSH1 0x0 DUP6 PUSH1 0x1 SIGNEXTEND PUSH1 0x1 SIGNEXTEND DUP2 MSTORE PUSH1 0x20 ADD SWAP1 DUP2 MSTORE PUSH1 0x20 ADD PUSH1 0x0 KECCAK256 PUSH1 0x0 DUP3 DUP3 SLOAD XOR SWAP3 POP POP DUP2 SWAP1 SSTORE POP POP POP POP POP POP POP JUMP JUMPDEST PUSH1 0x0 DUP1 DUP7 PUSH1 0x0 DUP8 PUSH1 0x2 SIGNEXTEND PUSH1 0x2 SIGNEXTEND DUP2 MSTORE PUSH1 0x20 ADD SWAP1 DUP2 MSTORE PUSH1 0x20 ADD PUSH1 0x0 KECCAK256 SWAP1 POP PUSH1 0x0 DUP8 PUSH1 0x0 DUP8 PUSH1 0x2 SIGNEXTEND PUSH1 0x2 SIGNEXTEND DUP2 MSTORE PUSH1 0x20 ADD SWAP1 DUP2 MSTORE PUSH1 0x20 ADD PUSH1 0x0 KECCAK256 SWAP1 POP PUSH1 0x0 DUP8 PUSH1 0x2 SIGNEXTEND DUP7 PUSH1 0x2 SIGNEXTEND SLT PUSH2 0x7CD4 JUMPI DUP3 PUSH1 0x1 ADD SLOAD SWAP1 POP PUSH2 0x7CE7 JUMP JUMPDEST DUP3 PUSH1 0x1 ADD SLOAD DUP6 PUSH2 0x7CE4 SWAP2 SWAP1 PUSH2 0x9BCA JUMP JUMPDEST SWAP1 POP JUMPDEST PUSH1 0x0 DUP8 PUSH1 0x2 SIGNEXTEND DUP8 PUSH1 0x2 SIGNEXTEND SLT ISZERO PUSH2 0x7D03 JUMPI DUP3 PUSH1 0x1 ADD SLOAD SWAP1 POP PUSH2 0x7D16 JUMP JUMPDEST DUP3 PUSH1 0x1 ADD SLOAD DUP7 PUSH2 0x7D13 SWAP2 SWAP1 PUSH2 0x9BCA JUMP JUMPDEST SWAP1 POP JUMPDEST DUP1 DUP3 DUP8 PUSH2 0x7D23 SWAP2 SWAP1 PUSH2 0x9BCA JUMP JUMPDEST PUSH2 0x7D2D SWAP2 SWAP1 PUSH2 0x9BCA JUMP JUMPDEST SWAP5 POP POP POP POP POP SWAP6 SWAP5 POP POP POP POP POP JUMP JUMPDEST PUSH1 0x0 DUP4 PUSH1 0x40 MLOAD DUP1 PUSH1 0x80 ADD PUSH1 0x40 MSTORE SWAP1 DUP2 PUSH1 0x0 DUP3 ADD PUSH1 0x0 SWAP1 SLOAD SWAP1 PUSH2 0x100 EXP SWAP1 DIV PUSH16 0xFFFFFFFFFFFFFFFFFFFFFFFFFFFFFFFF AND PUSH16 0xFFFFFFFFFFFFFFFFFFFFFFFFFFFFFFFF AND PUSH16 0xFFFFFFFFFFFFFFFFFFFFFFFFFFFFFFFF AND DUP2 MSTORE PUSH1 0x20 ADD PUSH1 0x1 DUP3 ADD SLOAD DUP2 MSTORE PUSH1 0x20 ADD PUSH1 0x2 DUP3 ADD PUSH1 0x0 SWAP1 SLOAD SWAP1 PUSH2 0x100 EXP SWAP1 DIV PUSH16 0xFFFFFFFFFFFFFFFFFFFFFFFFFFFFFFFF AND PUSH16 0xFFFFFFFFFFFFFFFFFFFFFFFFFFFFFFFF AND PUSH16 0xFFFFFFFFFFFFFFFFFFFFFFFFFFFFFFFF AND DUP2 MSTORE PUSH1 0x20 ADD PUSH1 0x2 DUP3 ADD PUSH1 0x10 SWAP1 SLOAD SWAP1 PUSH2 0x100 EXP SWAP1 DIV PUSH16 0xFFFFFFFFFFFFFFFFFFFFFFFFFFFFFFFF AND PUSH16 0xFFFFFFFFFFFFFFFFFFFFFFFFFFFFFFFF AND PUSH16 0xFFFFFFFFFFFFFFFFFFFFFFFFFFFFFFFF AND DUP2 MSTORE POP POP SWAP1 POP PUSH1 0x0 DUP1 DUP5 PUSH1 0xF SIGNEXTEND SUB PUSH2 0x7EA5 JUMPI PUSH1 0x0 DUP3 PUSH1 0x0 ADD MLOAD PUSH16 0xFFFFFFFFFFFFFFFFFFFFFFFFFFFFFFFF AND GT PUSH2 0x7E99 JUMPI PUSH1 0x40 MLOAD PUSH32 0x8C379A000000000000000000000000000000000000000000000000000000000 DUP2 MSTORE PUSH1 0x4 ADD PUSH2 0x7E90 SWAP1 PUSH2 0xB2E5 JUMP JUMPDEST PUSH1 0x40 MLOAD DUP1 SWAP2 SUB SWAP1 REVERT JUMPDEST DUP2 PUSH1 0x0 ADD MLOAD SWAP1 POP PUSH2 0x7EB6 JUMP JUMPDEST PUSH2 0x7EB3 DUP3 PUSH1 0x0 ADD MLOAD DUP6 PUSH2 0x62BB JUMP JUMPDEST SWAP1 POP JUMPDEST PUSH1 0x0 PUSH2 0x7EF9 DUP4 PUSH1 0x20 ADD MLOAD DUP6 PUSH2 0x7ECB SWAP2 SWAP1 PUSH2 0x9BCA JUMP JUMPDEST DUP5 PUSH1 0x0 ADD MLOAD PUSH16 0xFFFFFFFFFFFFFFFFFFFFFFFFFFFFFFFF AND PUSH17 0x100000000000000000000000000000000 PUSH2 0x5FA1 JUMP JUMPDEST SWAP1 POP PUSH1 0x0 DUP6 PUSH1 0xF SIGNEXTEND EQ PUSH2 0x7F42 JUMPI DUP2 DUP7 PUSH1 0x0 ADD PUSH1 0x0 PUSH2 0x100 EXP DUP2 SLOAD DUP2 PUSH16 0xFFFFFFFFFFFFFFFFFFFFFFFFFFFFFFFF MUL NOT AND SWAP1 DUP4 PUSH16 0xFFFFFFFFFFFFFFFFFFFFFFFFFFFFFFFF AND MUL OR SWAP1 SSTORE POP JUMPDEST DUP4 DUP7 PUSH1 0x1 ADD DUP2 SWAP1 SSTORE POP PUSH1 0x0 DUP2 PUSH16 0xFFFFFFFFFFFFFFFFFFFFFFFFFFFFFFFF AND GT ISZERO PUSH2 0x7FCC JUMPI DUP1 DUP7 PUSH1 0x2 ADD PUSH1 0x0 DUP3 DUP3 DUP3 SWAP1 SLOAD SWAP1 PUSH2 0x100 EXP SWAP1 DIV PUSH16 0xFFFFFFFFFFFFFFFFFFFFFFFFFFFFFFFF AND PUSH2 0x7F95 SWAP2 SWAP1 PUSH2 0x9C89 JUMP JUMPDEST SWAP3 POP PUSH2 0x100 EXP DUP2 SLOAD DUP2 PUSH16 0xFFFFFFFFFFFFFFFFFFFFFFFFFFFFFFFF MUL NOT AND SWAP1 DUP4 PUSH16 0xFFFFFFFFFFFFFFFFFFFFFFFFFFFFFFFF AND MUL OR SWAP1 SSTORE POP JUMPDEST POP POP POP POP POP POP JUMP JUMPDEST DUP2 PUSH1 0x0 DUP3 PUSH1 0x2 SIGNEXTEND PUSH1 0x2 SIGNEXTEND DUP2 MSTORE PUSH1 0x20 ADD SWAP1 DUP2 MSTORE PUSH1 0x20 ADD PUSH1 0x0 KECCAK256 PUSH1 0x0 DUP1 DUP3 ADD PUSH1 0x0 PUSH2 0x100 EXP DUP2 SLOAD SWAP1 PUSH16 0xFFFFFFFFFFFFFFFFFFFFFFFFFFFFFFFF MUL NOT AND SWAP1 SSTORE PUSH1 0x0 DUP3 ADD PUSH1 0x10 PUSH2 0x100 EXP DUP2 SLOAD SWAP1 PUSH16 0xFFFFFFFFFFFFFFFFFFFFFFFFFFFFFFFF MUL NOT AND SWAP1 SSTORE PUSH1 0x1 DUP3 ADD PUSH1 0x0 SWAP1 SSTORE PUSH1 0x2 DUP3 ADD PUSH1 0x0 PUSH2 0x100 EXP DUP2 SLOAD SWAP1 PUSH7 0xFFFFFFFFFFFFFF MUL NOT AND SWAP1 SSTORE PUSH1 0x2 DUP3 ADD PUSH1 0x7 PUSH2 0x100 EXP DUP2 SLOAD SWAP1 PUSH20 0xFFFFFFFFFFFFFFFFFFFFFFFFFFFFFFFFFFFFFFFF MUL NOT AND SWAP1 SSTORE PUSH1 0x2 DUP3 ADD PUSH1 0x1B PUSH2 0x100 EXP DUP2 SLOAD SWAP1 PUSH4 0xFFFFFFFF MUL NOT AND SWAP1 SSTORE PUSH1 0x2 DUP3 ADD PUSH1 0x1F PUSH2 0x100 EXP DUP2 SLOAD SWAP1 PUSH1 0xFF MUL NOT AND SWAP1 SSTORE POP POP POP POP JUMP JUMPDEST PUSH1 0x0 DUP4 PUSH4 0xFFFFFFFF AND DUP4 PUSH4 0xFFFFFFFF AND GT ISZERO DUP1 ISZERO PUSH2 0x80D7 JUMPI POP DUP4 PUSH4 0xFFFFFFFF AND DUP3 PUSH4 0xFFFFFFFF AND GT ISZERO JUMPDEST ISZERO PUSH2 0x80F3 JUMPI DUP2 PUSH4 0xFFFFFFFF AND DUP4 PUSH4 0xFFFFFFFF AND GT ISZERO SWAP1 POP PUSH2 0x8180 JUMP JUMPDEST PUSH1 0x0 DUP5 PUSH4 0xFFFFFFFF AND DUP5 PUSH4 0xFFFFFFFF AND GT PUSH2 0x8124 JUMPI PUSH5 0x100000000 DUP5 PUSH4 0xFFFFFFFF AND PUSH2 0x811F SWAP2 SWAP1 PUSH2 0xB316 JUMP JUMPDEST PUSH2 0x812C JUMP JUMPDEST DUP4 PUSH4 0xFFFFFFFF AND JUMPDEST PUSH5 0xFFFFFFFFFF AND SWAP1 POP PUSH1 0x0 DUP6 PUSH4 0xFFFFFFFF AND DUP5 PUSH4 0xFFFFFFFF AND GT PUSH2 0x8166 JUMPI PUSH5 0x100000000 DUP5 PUSH4 0xFFFFFFFF AND PUSH2 0x8161 SWAP2 SWAP1 PUSH2 0xB316 JUMP JUMPDEST PUSH2 0x816E JUMP JUMPDEST DUP4 PUSH4 0xFFFFFFFF AND JUMPDEST PUSH5 0xFFFFFFFFFF AND SWAP1 POP DUP1 DUP3 GT ISZERO SWAP3 POP POP POP JUMPDEST SWAP4 SWAP3 POP POP POP JUMP JUMPDEST PUSH2 0x818F PUSH2 0x8855 JUMP JUMPDEST PUSH2 0x8197 PUSH2 0x8855 JUMP JUMPDEST PUSH1 0x0 DUP4 PUSH1 0x1 DUP7 PUSH2 0x81A7 SWAP2 SWAP1 PUSH2 0xAFA7 JUMP JUMPDEST PUSH2 0x81B1 SWAP2 SWAP1 PUSH2 0xAFDD JUMP JUMPDEST PUSH2 0xFFFF AND SWAP1 POP PUSH1 0x0 PUSH1 0x1 DUP6 PUSH2 0xFFFF AND DUP4 PUSH2 0x81CB SWAP2 SWAP1 PUSH2 0x9FFF JUMP JUMPDEST PUSH2 0x81D5 SWAP2 SWAP1 PUSH2 0x9BCA JUMP JUMPDEST SWAP1 POP PUSH1 0x0 JUMPDEST PUSH1 0x1 ISZERO PUSH2 0x8453 JUMPI PUSH1 0x2 DUP3 DUP5 PUSH2 0x81EF SWAP2 SWAP1 PUSH2 0x9FFF JUMP JUMPDEST PUSH2 0x81F9 SWAP2 SWAP1 PUSH2 0x9BFE JUMP JUMPDEST SWAP1 POP DUP10 DUP7 PUSH2 0xFFFF AND DUP3 PUSH2 0x820C SWAP2 SWAP1 PUSH2 0xACE5 JUMP JUMPDEST PUSH2 0xFFFF DUP2 LT PUSH2 0x821E JUMPI PUSH2 0x821D PUSH2 0xA740 JUMP JUMPDEST JUMPDEST ADD PUSH1 0x40 MLOAD DUP1 PUSH1 0x80 ADD PUSH1 0x40 MSTORE SWAP1 DUP2 PUSH1 0x0 DUP3 ADD PUSH1 0x0 SWAP1 SLOAD SWAP1 PUSH2 0x100 EXP SWAP1 DIV PUSH4 0xFFFFFFFF AND PUSH4 0xFFFFFFFF AND PUSH4 0xFFFFFFFF AND DUP2 MSTORE PUSH1 0x20 ADD PUSH1 0x0 DUP3 ADD PUSH1 0x4 SWAP1 SLOAD SWAP1 PUSH2 0x100 EXP SWAP1 DIV PUSH1 0x6 SIGNEXTEND PUSH1 0x6 SIGNEXTEND PUSH1 0x6 SIGNEXTEND DUP2 MSTORE PUSH1 0x20 ADD PUSH1 0x0 DUP3 ADD PUSH1 0xB SWAP1 SLOAD SWAP1 PUSH2 0x100 EXP SWAP1 DIV PUSH20 0xFFFFFFFFFFFFFFFFFFFFFFFFFFFFFFFFFFFFFFFF AND PUSH20 0xFFFFFFFFFFFFFFFFFFFFFFFFFFFFFFFFFFFFFFFF AND PUSH20 0xFFFFFFFFFFFFFFFFFFFFFFFFFFFFFFFFFFFFFFFF AND DUP2 MSTORE PUSH1 0x20 ADD PUSH1 0x0 DUP3 ADD PUSH1 0x1F SWAP1 SLOAD SWAP1 PUSH2 0x100 EXP SWAP1 DIV PUSH1 0xFF AND ISZERO ISZERO ISZERO ISZERO DUP2 MSTORE POP POP SWAP5 POP DUP5 PUSH1 0x60 ADD MLOAD PUSH2 0x82FD JUMPI PUSH1 0x1 DUP2 PUSH2 0x82F6 SWAP2 SWAP1 PUSH2 0x9FFF JUMP JUMPDEST SWAP3 POP PUSH2 0x81DA JUMP JUMPDEST DUP10 DUP7 PUSH2 0xFFFF AND PUSH1 0x1 DUP4 PUSH2 0x8310 SWAP2 SWAP1 PUSH2 0x9FFF JUMP JUMPDEST PUSH2 0x831A SWAP2 SWAP1 PUSH2 0xACE5 JUMP JUMPDEST PUSH2 0xFFFF DUP2 LT PUSH2 0x832C JUMPI PUSH2 0x832B PUSH2 0xA740 JUMP JUMPDEST JUMPDEST ADD PUSH1 0x40 MLOAD DUP1 PUSH1 0x80 ADD PUSH1 0x40 MSTORE SWAP1 DUP2 PUSH1 0x0 DUP3 ADD PUSH1 0x0 SWAP1 SLOAD SWAP1 PUSH2 0x100 EXP SWAP1 DIV PUSH4 0xFFFFFFFF AND PUSH4 0xFFFFFFFF AND PUSH4 0xFFFFFFFF AND DUP2 MSTORE PUSH1 0x20 ADD PUSH1 0x0 DUP3 ADD PUSH1 0x4 SWAP1 SLOAD SWAP1 PUSH2 0x100 EXP SWAP1 DIV PUSH1 0x6 SIGNEXTEND PUSH1 0x6 SIGNEXTEND PUSH1 0x6 SIGNEXTEND DUP2 MSTORE PUSH1 0x20 ADD PUSH1 0x0 DUP3 ADD PUSH1 0xB SWAP1 SLOAD SWAP1 PUSH2 0x100 EXP SWAP1 DIV PUSH20 0xFFFFFFFFFFFFFFFFFFFFFFFFFFFFFFFFFFFFFFFF AND PUSH20 0xFFFFFFFFFFFFFFFFFFFFFFFFFFFFFFFFFFFFFFFF AND PUSH20 0xFFFFFFFFFFFFFFFFFFFFFFFFFFFFFFFFFFFFFFFF AND DUP2 MSTORE PUSH1 0x20 ADD PUSH1 0x0 DUP3 ADD PUSH1 0x1F SWAP1 SLOAD SWAP1 PUSH2 0x100 EXP SWAP1 DIV PUSH1 0xFF AND ISZERO ISZERO ISZERO ISZERO DUP2 MSTORE POP POP SWAP4 POP PUSH1 0x0 PUSH2 0x83FF DUP11 DUP8 PUSH1 0x0 ADD MLOAD DUP12 PUSH2 0x80AD JUMP JUMPDEST SWAP1 POP DUP1 DUP1 ISZERO PUSH2 0x8419 JUMPI POP PUSH2 0x8418 DUP11 DUP11 DUP8 PUSH1 0x0 ADD MLOAD PUSH2 0x80AD JUMP JUMPDEST JUMPDEST ISZERO PUSH2 0x8424 JUMPI POP PUSH2 0x8453 JUMP JUMPDEST DUP1 PUSH2 0x843D JUMPI PUSH1 0x1 DUP3 PUSH2 0x8436 SWAP2 SWAP1 PUSH2 0x9BCA JUMP JUMPDEST SWAP3 POP PUSH2 0x844D JUMP JUMPDEST PUSH1 0x1 DUP3 PUSH2 0x844A SWAP2 SWAP1 PUSH2 0x9FFF JUMP JUMPDEST SWAP4 POP JUMPDEST POP PUSH2 0x81DA JUMP JUMPDEST POP POP POP SWAP6 POP SWAP6 SWAP4 POP POP POP POP JUMP JUMPDEST PUSH1 0x0 DUP1 DUP3 DUP5 MOD GT DUP3 DUP5 DIV ADD SWAP1 POP SWAP3 SWAP2 POP POP JUMP JUMPDEST PUSH1 0x0 DUP2 ISZERO PUSH2 0x852B JUMPI PUSH1 0x0 PUSH20 0xFFFFFFFFFFFFFFFFFFFFFFFFFFFFFFFFFFFFFFFF DUP1 AND DUP5 GT ISZERO PUSH2 0x84CA JUMPI PUSH2 0x84C5 DUP5 PUSH13 0x1000000000000000000000000 DUP8 PUSH16 0xFFFFFFFFFFFFFFFFFFFFFFFFFFFFFFFF AND PUSH2 0x5FA1 JUMP JUMPDEST PUSH2 0x84F0 JUMP JUMPDEST DUP5 PUSH16 0xFFFFFFFFFFFFFFFFFFFFFFFFFFFFFFFF AND PUSH1 0x60 PUSH1 0xFF AND DUP6 SWAP1 SHL PUSH2 0x84EF SWAP2 SWAP1 PUSH2 0x9BFE JUMP JUMPDEST JUMPDEST SWAP1 POP PUSH2 0x8523 PUSH2 0x851E DUP3 DUP9 PUSH20 0xFFFFFFFFFFFFFFFFFFFFFFFFFFFFFFFFFFFFFFFF AND PUSH2 0x5031 SWAP1 SWAP2 SWAP1 PUSH4 0xFFFFFFFF AND JUMP JUMPDEST PUSH2 0x87BB JUMP JUMPDEST SWAP2 POP POP PUSH2 0x85E8 JUMP JUMPDEST PUSH1 0x0 PUSH20 0xFFFFFFFFFFFFFFFFFFFFFFFFFFFFFFFFFFFFFFFF DUP1 AND DUP5 GT ISZERO PUSH2 0x857A JUMPI PUSH2 0x8575 DUP5 PUSH13 0x1000000000000000000000000 DUP8 PUSH16 0xFFFFFFFFFFFFFFFFFFFFFFFFFFFFFFFF AND PUSH2 0x525D JUMP JUMPDEST PUSH2 0x859E JUMP JUMPDEST PUSH2 0x859D PUSH1 0x60 PUSH1 0xFF AND DUP6 SWAP1 SHL DUP7 PUSH16 0xFFFFFFFFFFFFFFFFFFFFFFFFFFFFFFFF AND PUSH2 0x8460 JUMP JUMPDEST JUMPDEST SWAP1 POP DUP1 DUP7 PUSH20 0xFFFFFFFFFFFFFFFFFFFFFFFFFFFFFFFFFFFFFFFF AND GT PUSH2 0x85C2 JUMPI PUSH1 0x0 DUP1 REVERT JUMPDEST DUP1 DUP7 PUSH20 0xFFFFFFFFFFFFFFFFFFFFFFFFFFFFFFFFFFFFFFFF AND PUSH2 0x85E4 SWAP2 SWAP1 PUSH2 0x9BCA JUMP JUMPDEST SWAP2 POP POP JUMPDEST SWAP5 SWAP4 POP POP POP POP JUMP JUMPDEST PUSH1 0x0 DUP1 DUP4 SUB PUSH2 0x8601 JUMPI DUP5 SWAP1 POP PUSH2 0x879A JUMP JUMPDEST PUSH1 0x0 PUSH1 0x60 PUSH1 0xFF AND DUP6 PUSH16 0xFFFFFFFFFFFFFFFFFFFFFFFFFFFFFFFF AND SWAP1 SHL SWAP1 POP DUP3 ISZERO PUSH2 0x86FD JUMPI PUSH1 0x0 DUP7 PUSH20 0xFFFFFFFFFFFFFFFFFFFFFFFFFFFFFFFFFFFFFFFF AND DUP6 DUP9 PUSH20 0xFFFFFFFFFFFFFFFFFFFFFFFFFFFFFFFFFFFFFFFF AND DUP8 PUSH2 0x8661 SWAP2 SWAP1 PUSH2 0x9C2F JUMP JUMPDEST SWAP3 POP DUP3 PUSH2 0x866E SWAP2 SWAP1 PUSH2 0x9BFE JUMP JUMPDEST SUB PUSH2 0x86B7 JUMPI PUSH1 0x0 DUP2 DUP4 PUSH2 0x8681 SWAP2 SWAP1 PUSH2 0x9FFF JUMP JUMPDEST SWAP1 POP DUP3 DUP2 LT PUSH2 0x86B5 JUMPI PUSH2 0x86AB DUP4 DUP10 PUSH20 0xFFFFFFFFFFFFFFFFFFFFFFFFFFFFFFFFFFFFFFFF AND DUP4 PUSH2 0x525D JUMP JUMPDEST SWAP4 POP POP POP POP PUSH2 0x879A JUMP JUMPDEST POP JUMPDEST PUSH2 0x86F4 DUP3 PUSH2 0x86EF DUP8 DUP11 PUSH20 0xFFFFFFFFFFFFFFFFFFFFFFFFFFFFFFFFFFFFFFFF AND DUP7 PUSH2 0x86E1 SWAP2 SWAP1 PUSH2 0x9BFE JUMP JUMPDEST PUSH2 0x5031 SWAP1 SWAP2 SWAP1 PUSH4 0xFFFFFFFF AND JUMP JUMPDEST PUSH2 0x8460 JUMP JUMPDEST SWAP3 POP POP POP PUSH2 0x879A JUMP JUMPDEST PUSH1 0x0 DUP7 PUSH20 0xFFFFFFFFFFFFFFFFFFFFFFFFFFFFFFFFFFFFFFFF AND DUP6 DUP9 PUSH20 0xFFFFFFFFFFFFFFFFFFFFFFFFFFFFFFFFFFFFFFFF AND DUP8 PUSH2 0x8739 SWAP2 SWAP1 PUSH2 0x9C2F JUMP JUMPDEST SWAP3 POP DUP3 PUSH2 0x8746 SWAP2 SWAP1 PUSH2 0x9BFE JUMP JUMPDEST EQ DUP1 ISZERO PUSH2 0x8752 JUMPI POP DUP1 DUP3 GT JUMPDEST PUSH2 0x875B JUMPI PUSH1 0x0 DUP1 REVERT JUMPDEST PUSH1 0x0 DUP2 DUP4 PUSH2 0x8769 SWAP2 SWAP1 PUSH2 0x9BCA JUMP JUMPDEST SWAP1 POP PUSH2 0x8794 PUSH2 0x878F DUP5 DUP11 PUSH20 0xFFFFFFFFFFFFFFFFFFFFFFFFFFFFFFFFFFFFFFFF AND DUP5 PUSH2 0x525D JUMP JUMPDEST PUSH2 0x87BB JUMP JUMPDEST SWAP4 POP POP POP POP JUMPDEST SWAP5 SWAP4 POP POP POP POP JUMP JUMPDEST PUSH1 0x0 DUP2 DUP3 SWAP2 POP DUP2 PUSH1 0xF SIGNEXTEND EQ PUSH2 0x87B6 JUMPI PUSH1 0x0 DUP1 REVERT JUMPDEST SWAP2 SWAP1 POP JUMP JUMPDEST PUSH1 0x0 DUP2 DUP3 SWAP2 POP DUP2 PUSH20 0xFFFFFFFFFFFFFFFFFFFFFFFFFFFFFFFFFFFFFFFF AND EQ PUSH2 0x87E2 JUMPI PUSH1 0x0 DUP1 REVERT JUMPDEST SWAP2 SWAP1 POP JUMP JUMPDEST PUSH1 0x40 MLOAD DUP1 PUSH1 0xE0 ADD PUSH1 0x40 MSTORE DUP1 PUSH1 0x0 PUSH20 0xFFFFFFFFFFFFFFFFFFFFFFFFFFFFFFFFFFFFFFFF AND DUP2 MSTORE PUSH1 0x20 ADD PUSH1 0x0 PUSH1 0x2 SIGNEXTEND DUP2 MSTORE PUSH1 0x20 ADD PUSH1 0x0 ISZERO ISZERO DUP2 MSTORE PUSH1 0x20 ADD PUSH1 0x0 PUSH20 0xFFFFFFFFFFFFFFFFFFFFFFFFFFFFFFFFFFFFFFFF AND DUP2 MSTORE PUSH1 0x20 ADD PUSH1 0x0 DUP2 MSTORE PUSH1 0x20 ADD PUSH1 0x0 DUP2 MSTORE PUSH1 0x20 ADD PUSH1 0x0 DUP2 MSTORE POP SWAP1 JUMP JUMPDEST PUSH1 0x40 MLOAD DUP1 PUSH1 0x80 ADD PUSH1 0x40 MSTORE DUP1 PUSH1 0x0 PUSH4 0xFFFFFFFF AND DUP2 MSTORE PUSH1 0x20 ADD PUSH1 0x0 PUSH1 0x6 SIGNEXTEND DUP2 MSTORE PUSH1 0x20 ADD PUSH1 0x0 PUSH20 0xFFFFFFFFFFFFFFFFFFFFFFFFFFFFFFFFFFFFFFFF AND DUP2 MSTORE PUSH1 0x20 ADD PUSH1 0x0 ISZERO ISZERO DUP2 MSTORE POP SWAP1 JUMP JUMPDEST PUSH1 0x0 DUP2 SWAP1 POP SWAP2 SWAP1 POP JUMP JUMPDEST PUSH2 0x88B1 DUP2 PUSH2 0x889E JUMP JUMPDEST DUP3 MSTORE POP POP JUMP JUMPDEST PUSH1 0x0 PUSH1 0x20 DUP3 ADD SWAP1 POP PUSH2 0x88CC PUSH1 0x0 DUP4 ADD DUP5 PUSH2 0x88A8 JUMP JUMPDEST SWAP3 SWAP2 POP POP JUMP JUMPDEST PUSH1 0x0 PUSH20 0xFFFFFFFFFFFFFFFFFFFFFFFFFFFFFFFFFFFFFFFF DUP3 AND SWAP1 POP SWAP2 SWAP1 POP JUMP JUMPDEST PUSH1 0x0 PUSH2 0x88FD DUP3 PUSH2 0x88D2 JUMP JUMPDEST SWAP1 POP SWAP2 SWAP1 POP JUMP JUMPDEST PUSH2 0x890D DUP2 PUSH2 0x88F2 JUMP JUMPDEST DUP3 MSTORE POP POP JUMP JUMPDEST PUSH1 0x0 PUSH1 0x20 DUP3 ADD SWAP1 POP PUSH2 0x8928 PUSH1 0x0 DUP4 ADD DUP5 PUSH2 0x8904 JUMP JUMPDEST SWAP3 SWAP2 POP POP JUMP JUMPDEST PUSH1 0x0 DUP1 REVERT JUMPDEST PUSH1 0x0 DUP1 REVERT JUMPDEST PUSH2 0x8941 DUP2 PUSH2 0x88F2 JUMP JUMPDEST DUP2 EQ PUSH2 0x894C JUMPI PUSH1 0x0 DUP1 REVERT JUMPDEST POP JUMP JUMPDEST PUSH1 0x0 DUP2 CALLDATALOAD SWAP1 POP PUSH2 0x895E DUP2 PUSH2 0x8938 JUMP JUMPDEST SWAP3 SWAP2 POP POP JUMP JUMPDEST PUSH1 0x0 PUSH1 0x20 DUP3 DUP5 SUB SLT ISZERO PUSH2 0x897A JUMPI PUSH2 0x8979 PUSH2 0x892E JUMP JUMPDEST JUMPDEST PUSH1 0x0 PUSH2 0x8988 DUP5 DUP3 DUP6 ADD PUSH2 0x894F JUMP JUMPDEST SWAP2 POP POP SWAP3 SWAP2 POP POP JUMP JUMPDEST PUSH1 0x0 PUSH16 0xFFFFFFFFFFFFFFFFFFFFFFFFFFFFFFFF DUP3 AND SWAP1 POP SWAP2 SWAP1 POP JUMP JUMPDEST PUSH2 0x89B6 DUP2 PUSH2 0x8991 JUMP JUMPDEST DUP3 MSTORE POP POP JUMP JUMPDEST PUSH1 0x0 PUSH1 0x40 DUP3 ADD SWAP1 POP PUSH2 0x89D1 PUSH1 0x0 DUP4 ADD DUP6 PUSH2 0x89AD JUMP JUMPDEST PUSH2 0x89DE PUSH1 0x20 DUP4 ADD DUP5 PUSH2 0x89AD JUMP JUMPDEST SWAP4 SWAP3 POP POP POP JUMP JUMPDEST PUSH2 0x89EE DUP2 PUSH2 0x889E JUMP JUMPDEST DUP2 EQ PUSH2 0x89F9 JUMPI PUSH1 0x0 DUP1 REVERT JUMPDEST POP JUMP JUMPDEST PUSH1 0x0 DUP2 CALLDATALOAD SWAP1 POP PUSH2 0x8A0B DUP2 PUSH2 0x89E5 JUMP JUMPDEST SWAP3 SWAP2 POP POP JUMP JUMPDEST PUSH1 0x0 PUSH1 0x20 DUP3 DUP5 SUB SLT ISZERO PUSH2 0x8A27 JUMPI PUSH2 0x8A26 PUSH2 0x892E JUMP JUMPDEST JUMPDEST PUSH1 0x0 PUSH2 0x8A35 DUP5 DUP3 DUP6 ADD PUSH2 0x89FC JUMP JUMPDEST SWAP2 POP POP SWAP3 SWAP2 POP POP JUMP JUMPDEST PUSH1 0x0 PUSH4 0xFFFFFFFF DUP3 AND SWAP1 POP SWAP2 SWAP1 POP JUMP JUMPDEST PUSH2 0x8A57 DUP2 PUSH2 0x8A3E JUMP JUMPDEST DUP3 MSTORE POP POP JUMP JUMPDEST PUSH1 0x0 DUP2 PUSH1 0x6 SIGNEXTEND SWAP1 POP SWAP2 SWAP1 POP JUMP JUMPDEST PUSH2 0x8A73 DUP2 PUSH2 0x8A5D JUMP JUMPDEST DUP3 MSTORE POP POP JUMP JUMPDEST PUSH2 0x8A82 DUP2 PUSH2 0x88D2 JUMP JUMPDEST DUP3 MSTORE POP POP JUMP JUMPDEST PUSH1 0x0 DUP2 ISZERO ISZERO SWAP1 POP SWAP2 SWAP1 POP JUMP JUMPDEST PUSH2 0x8A9D DUP2 PUSH2 0x8A88 JUMP JUMPDEST DUP3 MSTORE POP POP JUMP JUMPDEST PUSH1 0x0 PUSH1 0x80 DUP3 ADD SWAP1 POP PUSH2 0x8AB8 PUSH1 0x0 DUP4 ADD DUP8 PUSH2 0x8A4E JUMP JUMPDEST PUSH2 0x8AC5 PUSH1 0x20 DUP4 ADD DUP7 PUSH2 0x8A6A JUMP JUMPDEST PUSH2 0x8AD2 PUSH1 0x40 DUP4 ADD DUP6 PUSH2 0x8A79 JUMP JUMPDEST PUSH2 0x8ADF PUSH1 0x60 DUP4 ADD DUP5 PUSH2 0x8A94 JUMP JUMPDEST SWAP6 SWAP5 POP POP POP POP POP JUMP JUMPDEST PUSH1 0x0 DUP2 PUSH1 0x2 SIGNEXTEND SWAP1 POP SWAP2 SWAP1 POP JUMP JUMPDEST PUSH2 0x8AFE DUP2 PUSH2 0x8AE8 JUMP JUMPDEST DUP2 EQ PUSH2 0x8B09 JUMPI PUSH1 0x0 DUP1 REVERT JUMPDEST POP JUMP JUMPDEST PUSH1 0x0 DUP2 CALLDATALOAD SWAP1 POP PUSH2 0x8B1B DUP2 PUSH2 0x8AF5 JUMP JUMPDEST SWAP3 SWAP2 POP POP JUMP JUMPDEST PUSH2 0x8B2A DUP2 PUSH2 0x8991 JUMP JUMPDEST DUP2 EQ PUSH2 0x8B35 JUMPI PUSH1 0x0 DUP1 REVERT JUMPDEST POP JUMP JUMPDEST PUSH1 0x0 DUP2 CALLDATALOAD SWAP1 POP PUSH2 0x8B47 DUP2 PUSH2 0x8B21 JUMP JUMPDEST SWAP3 SWAP2 POP POP JUMP JUMPDEST PUSH1 0x0 DUP1 PUSH1 0x0 DUP1 PUSH1 0x80 DUP6 DUP8 SUB SLT ISZERO PUSH2 0x8B67 JUMPI PUSH2 0x8B66 PUSH2 0x892E JUMP JUMPDEST JUMPDEST PUSH1 0x0 PUSH2 0x8B75 DUP8 DUP3 DUP9 ADD PUSH2 0x894F JUMP JUMPDEST SWAP5 POP POP PUSH1 0x20 PUSH2 0x8B86 DUP8 DUP3 DUP9 ADD PUSH2 0x8B0C JUMP JUMPDEST SWAP4 POP POP PUSH1 0x40 PUSH2 0x8B97 DUP8 DUP3 DUP9 ADD PUSH2 0x8B0C JUMP JUMPDEST SWAP3 POP POP PUSH1 0x60 PUSH2 0x8BA8 DUP8 DUP3 DUP9 ADD PUSH2 0x8B38 JUMP JUMPDEST SWAP2 POP POP SWAP3 SWAP6 SWAP2 SWAP5 POP SWAP3 POP JUMP JUMPDEST PUSH1 0x0 PUSH1 0x20 DUP3 ADD SWAP1 POP PUSH2 0x8BC9 PUSH1 0x0 DUP4 ADD DUP5 PUSH2 0x89AD JUMP JUMPDEST SWAP3 SWAP2 POP POP JUMP JUMPDEST PUSH1 0x0 PUSH1 0x20 DUP3 DUP5 SUB SLT ISZERO PUSH2 0x8BE5 JUMPI PUSH2 0x8BE4 PUSH2 0x892E JUMP JUMPDEST JUMPDEST PUSH1 0x0 PUSH2 0x8BF3 DUP5 DUP3 DUP6 ADD PUSH2 0x8B0C JUMP JUMPDEST SWAP2 POP POP SWAP3 SWAP2 POP POP JUMP JUMPDEST PUSH1 0x0 DUP2 PUSH1 0xF SIGNEXTEND SWAP1 POP SWAP2 SWAP1 POP JUMP JUMPDEST PUSH2 0x8C12 DUP2 PUSH2 0x8BFC JUMP JUMPDEST DUP3 MSTORE POP POP JUMP JUMPDEST PUSH1 0x0 PUSH1 0xE0 DUP3 ADD SWAP1 POP PUSH2 0x8C2D PUSH1 0x0 DUP4 ADD DUP11 PUSH2 0x89AD JUMP JUMPDEST PUSH2 0x8C3A PUSH1 0x20 DUP4 ADD DUP10 PUSH2 0x8C09 JUMP JUMPDEST PUSH2 0x8C47 PUSH1 0x40 DUP4 ADD DUP9 PUSH2 0x88A8 JUMP JUMPDEST PUSH2 0x8C54 PUSH1 0x60 DUP4 ADD DUP8 PUSH2 0x8A6A JUMP JUMPDEST PUSH2 0x8C61 PUSH1 0x80 DUP4 ADD DUP7 PUSH2 0x8A79 JUMP JUMPDEST PUSH2 0x8C6E PUSH1 0xA0 DUP4 ADD DUP6 PUSH2 0x8A4E JUMP JUMPDEST PUSH2 0x8C7B PUSH1 0xC0 DUP4 ADD DUP5 PUSH2 0x8A94 JUMP JUMPDEST SWAP9 SWAP8 POP POP POP POP POP POP POP POP JUMP JUMPDEST PUSH1 0x0 PUSH1 0xFF DUP3 AND SWAP1 POP SWAP2 SWAP1 POP JUMP JUMPDEST PUSH2 0x8C9D DUP2 PUSH2 0x8C87 JUMP JUMPDEST DUP2 EQ PUSH2 0x8CA8 JUMPI PUSH1 0x0 DUP1 REVERT JUMPDEST POP JUMP JUMPDEST PUSH1 0x0 DUP2 CALLDATALOAD SWAP1 POP PUSH2 0x8CBA DUP2 PUSH2 0x8C94 JUMP JUMPDEST SWAP3 SWAP2 POP POP JUMP JUMPDEST PUSH1 0x0 DUP1 PUSH1 0x40 DUP4 DUP6 SUB SLT ISZERO PUSH2 0x8CD7 JUMPI PUSH2 0x8CD6 PUSH2 0x892E JUMP JUMPDEST JUMPDEST PUSH1 0x0 PUSH2 0x8CE5 DUP6 DUP3 DUP7 ADD PUSH2 0x8CAB JUMP JUMPDEST SWAP3 POP POP PUSH1 0x20 PUSH2 0x8CF6 DUP6 DUP3 DUP7 ADD PUSH2 0x8CAB JUMP JUMPDEST SWAP2 POP POP SWAP3 POP SWAP3 SWAP1 POP JUMP JUMPDEST PUSH1 0x0 DUP1 REVERT JUMPDEST PUSH1 0x0 DUP1 REVERT JUMPDEST PUSH1 0x0 DUP1 REVERT JUMPDEST PUSH1 0x0 DUP1 DUP4 PUSH1 0x1F DUP5 ADD SLT PUSH2 0x8D25 JUMPI PUSH2 0x8D24 PUSH2 0x8D00 JUMP JUMPDEST JUMPDEST DUP3 CALLDATALOAD SWAP1 POP PUSH8 0xFFFFFFFFFFFFFFFF DUP2 GT ISZERO PUSH2 0x8D42 JUMPI PUSH2 0x8D41 PUSH2 0x8D05 JUMP JUMPDEST JUMPDEST PUSH1 0x20 DUP4 ADD SWAP2 POP DUP4 PUSH1 0x1 DUP3 MUL DUP4 ADD GT ISZERO PUSH2 0x8D5E JUMPI PUSH2 0x8D5D PUSH2 0x8D0A JUMP JUMPDEST JUMPDEST SWAP3 POP SWAP3 SWAP1 POP JUMP JUMPDEST PUSH1 0x0 DUP1 PUSH1 0x0 DUP1 PUSH1 0x0 DUP1 PUSH1 0xA0 DUP8 DUP10 SUB SLT ISZERO PUSH2 0x8D82 JUMPI PUSH2 0x8D81 PUSH2 0x892E JUMP JUMPDEST JUMPDEST PUSH1 0x0 PUSH2 0x8D90 DUP10 DUP3 DUP11 ADD PUSH2 0x894F JUMP JUMPDEST SWAP7 POP POP PUSH1 0x20 PUSH2 0x8DA1 DUP10 DUP3 DUP11 ADD PUSH2 0x8B0C JUMP JUMPDEST SWAP6 POP POP PUSH1 0x40 PUSH2 0x8DB2 DUP10 DUP3 DUP11 ADD PUSH2 0x8B0C JUMP JUMPDEST SWAP5 POP POP PUSH1 0x60 PUSH2 0x8DC3 DUP10 DUP3 DUP11 ADD PUSH2 0x8B38 JUMP JUMPDEST SWAP4 POP POP PUSH1 0x80 DUP8 ADD CALLDATALOAD PUSH8 0xFFFFFFFFFFFFFFFF DUP2 GT ISZERO PUSH2 0x8DE4 JUMPI PUSH2 0x8DE3 PUSH2 0x8933 JUMP JUMPDEST JUMPDEST PUSH2 0x8DF0 DUP10 DUP3 DUP11 ADD PUSH2 0x8D0F JUMP JUMPDEST SWAP3 POP SWAP3 POP POP SWAP3 SWAP6 POP SWAP3 SWAP6 POP SWAP3 SWAP6 JUMP JUMPDEST PUSH1 0x0 PUSH1 0x40 DUP3 ADD SWAP1 POP PUSH2 0x8E14 PUSH1 0x0 DUP4 ADD DUP6 PUSH2 0x88A8 JUMP JUMPDEST PUSH2 0x8E21 PUSH1 0x20 DUP4 ADD DUP5 PUSH2 0x88A8 JUMP JUMPDEST SWAP4 SWAP3 POP POP POP JUMP JUMPDEST PUSH1 0x0 DUP2 SWAP1 POP SWAP2 SWAP1 POP JUMP JUMPDEST PUSH2 0x8E3B DUP2 PUSH2 0x8E28 JUMP JUMPDEST DUP2 EQ PUSH2 0x8E46 JUMPI PUSH1 0x0 DUP1 REVERT JUMPDEST POP JUMP JUMPDEST PUSH1 0x0 DUP2 CALLDATALOAD SWAP1 POP PUSH2 0x8E58 DUP2 PUSH2 0x8E32 JUMP JUMPDEST SWAP3 SWAP2 POP POP JUMP JUMPDEST PUSH1 0x0 PUSH1 0x20 DUP3 DUP5 SUB SLT ISZERO PUSH2 0x8E74 JUMPI PUSH2 0x8E73 PUSH2 0x892E JUMP JUMPDEST JUMPDEST PUSH1 0x0 PUSH2 0x8E82 DUP5 DUP3 DUP6 ADD PUSH2 0x8E49 JUMP JUMPDEST SWAP2 POP POP SWAP3 SWAP2 POP POP JUMP JUMPDEST PUSH1 0x0 PUSH1 0x80 DUP3 ADD SWAP1 POP PUSH2 0x8EA0 PUSH1 0x0 DUP4 ADD DUP8 PUSH2 0x89AD JUMP JUMPDEST PUSH2 0x8EAD PUSH1 0x20 DUP4 ADD DUP7 PUSH2 0x88A8 JUMP JUMPDEST PUSH2 0x8EBA PUSH1 0x40 DUP4 ADD DUP6 PUSH2 0x89AD JUMP JUMPDEST PUSH2 0x8EC7 PUSH1 0x60 DUP4 ADD DUP5 PUSH2 0x89AD JUMP JUMPDEST SWAP6 SWAP5 POP POP POP POP POP JUMP JUMPDEST PUSH1 0x0 PUSH3 0xFFFFFF DUP3 AND SWAP1 POP SWAP2 SWAP1 POP JUMP JUMPDEST PUSH2 0x8EE8 DUP2 PUSH2 0x8ED0 JUMP JUMPDEST DUP3 MSTORE POP POP JUMP JUMPDEST PUSH1 0x0 PUSH1 0x20 DUP3 ADD SWAP1 POP PUSH2 0x8F03 PUSH1 0x0 DUP4 ADD DUP5 PUSH2 0x8EDF JUMP JUMPDEST SWAP3 SWAP2 POP POP JUMP JUMPDEST PUSH1 0x0 DUP1 PUSH1 0x0 DUP1 PUSH1 0x80 DUP6 DUP8 SUB SLT ISZERO PUSH2 0x8F23 JUMPI PUSH2 0x8F22 PUSH2 0x892E JUMP JUMPDEST JUMPDEST PUSH1 0x0 PUSH2 0x8F31 DUP8 DUP3 DUP9 ADD PUSH2 0x8CAB JUMP JUMPDEST SWAP5 POP POP PUSH1 0x20 PUSH2 0x8F42 DUP8 DUP3 DUP9 ADD PUSH2 0x8CAB JUMP JUMPDEST SWAP4 POP POP PUSH1 0x40 PUSH2 0x8F53 DUP8 DUP3 DUP9 ADD PUSH2 0x8CAB JUMP JUMPDEST SWAP3 POP POP PUSH1 0x60 PUSH2 0x8F64 DUP8 DUP3 DUP9 ADD PUSH2 0x8CAB JUMP JUMPDEST SWAP2 POP POP SWAP3 SWAP6 SWAP2 SWAP5 POP SWAP3 POP JUMP JUMPDEST PUSH2 0x8F79 DUP2 PUSH2 0x8C87 JUMP JUMPDEST DUP3 MSTORE POP POP JUMP JUMPDEST PUSH1 0x0 PUSH1 0x20 DUP3 ADD SWAP1 POP PUSH2 0x8F94 PUSH1 0x0 DUP4 ADD DUP5 PUSH2 0x8F70 JUMP JUMPDEST SWAP3 SWAP2 POP POP JUMP JUMPDEST PUSH1 0x0 DUP1 DUP4 PUSH1 0x1F DUP5 ADD SLT PUSH2 0x8FB0 JUMPI PUSH2 0x8FAF PUSH2 0x8D00 JUMP JUMPDEST JUMPDEST DUP3 CALLDATALOAD SWAP1 POP PUSH8 0xFFFFFFFFFFFFFFFF DUP2 GT ISZERO PUSH2 0x8FCD JUMPI PUSH2 0x8FCC PUSH2 0x8D05 JUMP JUMPDEST JUMPDEST PUSH1 0x20 DUP4 ADD SWAP2 POP DUP4 PUSH1 0x20 DUP3 MUL DUP4 ADD GT ISZERO PUSH2 0x8FE9 JUMPI PUSH2 0x8FE8 PUSH2 0x8D0A JUMP JUMPDEST JUMPDEST SWAP3 POP SWAP3 SWAP1 POP JUMP JUMPDEST PUSH1 0x0 DUP1 PUSH1 0x20 DUP4 DUP6 SUB SLT ISZERO PUSH2 0x9007 JUMPI PUSH2 0x9006 PUSH2 0x892E JUMP JUMPDEST JUMPDEST PUSH1 0x0 DUP4 ADD CALLDATALOAD PUSH8 0xFFFFFFFFFFFFFFFF DUP2 GT ISZERO PUSH2 0x9025 JUMPI PUSH2 0x9024 PUSH2 0x8933 JUMP JUMPDEST JUMPDEST PUSH2 0x9031 DUP6 DUP3 DUP7 ADD PUSH2 0x8F9A JUMP JUMPDEST SWAP3 POP SWAP3 POP POP SWAP3 POP SWAP3 SWAP1 POP JUMP JUMPDEST PUSH1 0x0 DUP2 MLOAD SWAP1 POP SWAP2 SWAP1 POP JUMP JUMPDEST PUSH1 0x0 DUP3 DUP3 MSTORE PUSH1 0x20 DUP3 ADD SWAP1 POP SWAP3 SWAP2 POP POP JUMP JUMPDEST PUSH1 0x0 DUP2 SWAP1 POP PUSH1 0x20 DUP3 ADD SWAP1 POP SWAP2 SWAP1 POP JUMP JUMPDEST PUSH2 0x9072 DUP2 PUSH2 0x8A5D JUMP JUMPDEST DUP3 MSTORE POP POP JUMP JUMPDEST PUSH1 0x0 PUSH2 0x9084 DUP4 DUP4 PUSH2 0x9069 JUMP JUMPDEST PUSH1 0x20 DUP4 ADD SWAP1 POP SWAP3 SWAP2 POP POP JUMP JUMPDEST PUSH1 0x0 PUSH1 0x20 DUP3 ADD SWAP1 POP SWAP2 SWAP1 POP JUMP JUMPDEST PUSH1 0x0 PUSH2 0x90A8 DUP3 PUSH2 0x903D JUMP JUMPDEST PUSH2 0x90B2 DUP2 DUP6 PUSH2 0x9048 JUMP JUMPDEST SWAP4 POP PUSH2 0x90BD DUP4 PUSH2 0x9059 JUMP JUMPDEST DUP1 PUSH1 0x0 JUMPDEST DUP4 DUP2 LT ISZERO PUSH2 0x90EE JUMPI DUP2 MLOAD PUSH2 0x90D5 DUP9 DUP3 PUSH2 0x9078 JUMP JUMPDEST SWAP8 POP PUSH2 0x90E0 DUP4 PUSH2 0x9090 JUMP JUMPDEST SWAP3 POP POP PUSH1 0x1 DUP2 ADD SWAP1 POP PUSH2 0x90C1 JUMP JUMPDEST POP DUP6 SWAP4 POP POP POP POP SWAP3 SWAP2 POP POP JUMP JUMPDEST PUSH1 0x0 DUP2 MLOAD SWAP1 POP SWAP2 SWAP1 POP JUMP JUMPDEST PUSH1 0x0 DUP3 DUP3 MSTORE PUSH1 0x20 DUP3 ADD SWAP1 POP SWAP3 SWAP2 POP POP JUMP JUMPDEST PUSH1 0x0 DUP2 SWAP1 POP PUSH1 0x20 DUP3 ADD SWAP1 POP SWAP2 SWAP1 POP JUMP JUMPDEST PUSH2 0x9130 DUP2 PUSH2 0x88D2 JUMP JUMPDEST DUP3 MSTORE POP POP JUMP JUMPDEST PUSH1 0x0 PUSH2 0x9142 DUP4 DUP4 PUSH2 0x9127 JUMP JUMPDEST PUSH1 0x20 DUP4 ADD SWAP1 POP SWAP3 SWAP2 POP POP JUMP JUMPDEST PUSH1 0x0 PUSH1 0x20 DUP3 ADD SWAP1 POP SWAP2 SWAP1 POP JUMP JUMPDEST PUSH1 0x0 PUSH2 0x9166 DUP3 PUSH2 0x90FB JUMP JUMPDEST PUSH2 0x9170 DUP2 DUP6 PUSH2 0x9106 JUMP JUMPDEST SWAP4 POP PUSH2 0x917B DUP4 PUSH2 0x9117 JUMP JUMPDEST DUP1 PUSH1 0x0 JUMPDEST DUP4 DUP2 LT ISZERO PUSH2 0x91AC JUMPI DUP2 MLOAD PUSH2 0x9193 DUP9 DUP3 PUSH2 0x9136 JUMP JUMPDEST SWAP8 POP PUSH2 0x919E DUP4 PUSH2 0x914E JUMP JUMPDEST SWAP3 POP POP PUSH1 0x1 DUP2 ADD SWAP1 POP PUSH2 0x917F JUMP JUMPDEST POP DUP6 SWAP4 POP POP POP POP SWAP3 SWAP2 POP POP JUMP JUMPDEST PUSH1 0x0 PUSH1 0x40 DUP3 ADD SWAP1 POP DUP2 DUP2 SUB PUSH1 0x0 DUP4 ADD MSTORE PUSH2 0x91D3 DUP2 DUP6 PUSH2 0x909D JUMP JUMPDEST SWAP1 POP DUP2 DUP2 SUB PUSH1 0x20 DUP4 ADD MSTORE PUSH2 0x91E7 DUP2 DUP5 PUSH2 0x915B JUMP JUMPDEST SWAP1 POP SWAP4 SWAP3 POP POP POP JUMP JUMPDEST PUSH1 0x0 DUP2 PUSH1 0x1 SIGNEXTEND SWAP1 POP SWAP2 SWAP1 POP JUMP JUMPDEST PUSH2 0x9206 DUP2 PUSH2 0x91F0 JUMP JUMPDEST DUP2 EQ PUSH2 0x9211 JUMPI PUSH1 0x0 DUP1 REVERT JUMPDEST POP JUMP JUMPDEST PUSH1 0x0 DUP2 CALLDATALOAD SWAP1 POP PUSH2 0x9223 DUP2 PUSH2 0x91FD JUMP JUMPDEST SWAP3 SWAP2 POP POP JUMP JUMPDEST PUSH1 0x0 PUSH1 0x20 DUP3 DUP5 SUB SLT ISZERO PUSH2 0x923F JUMPI PUSH2 0x923E PUSH2 0x892E JUMP JUMPDEST JUMPDEST PUSH1 0x0 PUSH2 0x924D DUP5 DUP3 DUP6 ADD PUSH2 0x9214 JUMP JUMPDEST SWAP2 POP POP SWAP3 SWAP2 POP POP JUMP JUMPDEST PUSH2 0x925F DUP2 PUSH2 0x8AE8 JUMP JUMPDEST DUP3 MSTORE POP POP JUMP JUMPDEST PUSH1 0x0 PUSH2 0xFFFF DUP3 AND SWAP1 POP SWAP2 SWAP1 POP JUMP JUMPDEST PUSH2 0x927C DUP2 PUSH2 0x9265 JUMP JUMPDEST DUP3 MSTORE POP POP JUMP JUMPDEST PUSH1 0x0 PUSH1 0xE0 DUP3 ADD SWAP1 POP PUSH2 0x9297 PUSH1 0x0 DUP4 ADD DUP11 PUSH2 0x8A79 JUMP JUMPDEST PUSH2 0x92A4 PUSH1 0x20 DUP4 ADD DUP10 PUSH2 0x9256 JUMP JUMPDEST PUSH2 0x92B1 PUSH1 0x40 DUP4 ADD DUP9 PUSH2 0x9273 JUMP JUMPDEST PUSH2 0x92BE PUSH1 0x60 DUP4 ADD DUP8 PUSH2 0x9273 JUMP JUMPDEST PUSH2 0x92CB PUSH1 0x80 DUP4 ADD DUP7 PUSH2 0x9273 JUMP JUMPDEST PUSH2 0x92D8 PUSH1 0xA0 DUP4 ADD DUP6 PUSH2 0x8F70 JUMP JUMPDEST PUSH2 0x92E5 PUSH1 0xC0 DUP4 ADD DUP5 PUSH2 0x8A94 JUMP JUMPDEST SWAP9 SWAP8 POP POP POP POP POP POP POP POP JUMP JUMPDEST PUSH1 0x0 DUP1 PUSH1 0x0 DUP1 PUSH1 0x0 DUP1 PUSH1 0xA0 DUP8 DUP10 SUB SLT ISZERO PUSH2 0x930E JUMPI PUSH2 0x930D PUSH2 0x892E JUMP JUMPDEST JUMPDEST PUSH1 0x0 PUSH2 0x931C DUP10 DUP3 DUP11 ADD PUSH2 0x894F JUMP JUMPDEST SWAP7 POP POP PUSH1 0x20 PUSH2 0x932D DUP10 DUP3 DUP11 ADD PUSH2 0x894F JUMP JUMPDEST SWAP6 POP POP PUSH1 0x40 PUSH2 0x933E DUP10 DUP3 DUP11 ADD PUSH2 0x89FC JUMP JUMPDEST SWAP5 POP POP PUSH1 0x60 PUSH2 0x934F DUP10 DUP3 DUP11 ADD PUSH2 0x89FC JUMP JUMPDEST SWAP4 POP POP PUSH1 0x80 DUP8 ADD CALLDATALOAD PUSH8 0xFFFFFFFFFFFFFFFF DUP2 GT ISZERO PUSH2 0x9370 JUMPI PUSH2 0x936F PUSH2 0x8933 JUMP JUMPDEST JUMPDEST PUSH2 0x937C DUP10 DUP3 DUP11 ADD PUSH2 0x8D0F JUMP JUMPDEST SWAP3 POP SWAP3 POP POP SWAP3 SWAP6 POP SWAP3 SWAP6 POP SWAP3 SWAP6 JUMP JUMPDEST PUSH1 0x0 PUSH1 0x20 DUP3 ADD SWAP1 POP PUSH2 0x93A0 PUSH1 0x0 DUP4 ADD DUP5 PUSH2 0x9256 JUMP JUMPDEST SWAP3 SWAP2 POP POP JUMP JUMPDEST PUSH1 0x0 PUSH1 0x20 DUP3 ADD SWAP1 POP PUSH2 0x93BB PUSH1 0x0 DUP4 ADD DUP5 PUSH2 0x8A94 JUMP JUMPDEST SWAP3 SWAP2 POP POP JUMP JUMPDEST PUSH1 0x0 DUP1 PUSH1 0x0 PUSH1 0x60 DUP5 DUP7 SUB SLT ISZERO PUSH2 0x93DA JUMPI PUSH2 0x93D9 PUSH2 0x892E JUMP JUMPDEST JUMPDEST PUSH1 0x0 PUSH2 0x93E8 DUP7 DUP3 DUP8 ADD PUSH2 0x8B0C JUMP JUMPDEST SWAP4 POP POP PUSH1 0x20 PUSH2 0x93F9 DUP7 DUP3 DUP8 ADD PUSH2 0x8B0C JUMP JUMPDEST SWAP3 POP POP PUSH1 0x40 PUSH2 0x940A DUP7 DUP3 DUP8 ADD PUSH2 0x8B38 JUMP JUMPDEST SWAP2 POP POP SWAP3 POP SWAP3 POP SWAP3 JUMP JUMPDEST PUSH1 0x0 DUP1 PUSH1 0x40 DUP4 DUP6 SUB SLT ISZERO PUSH2 0x942B JUMPI PUSH2 0x942A PUSH2 0x892E JUMP JUMPDEST JUMPDEST PUSH1 0x0 PUSH2 0x9439 DUP6 DUP3 DUP7 ADD PUSH2 0x8B0C JUMP JUMPDEST SWAP3 POP POP PUSH1 0x20 PUSH2 0x944A DUP6 DUP3 DUP7 ADD PUSH2 0x8B0C JUMP JUMPDEST SWAP2 POP POP SWAP3 POP SWAP3 SWAP1 POP JUMP JUMPDEST PUSH1 0x0 PUSH1 0x60 DUP3 ADD SWAP1 POP PUSH2 0x9469 PUSH1 0x0 DUP4 ADD DUP7 PUSH2 0x8A6A JUMP JUMPDEST PUSH2 0x9476 PUSH1 0x20 DUP4 ADD DUP6 PUSH2 0x8A79 JUMP JUMPDEST PUSH2 0x9483 PUSH1 0x40 DUP4 ADD DUP5 PUSH2 0x8A4E JUMP JUMPDEST SWAP5 SWAP4 POP POP POP POP JUMP JUMPDEST PUSH2 0x9494 DUP2 PUSH2 0x8A88 JUMP JUMPDEST DUP2 EQ PUSH2 0x949F JUMPI PUSH1 0x0 DUP1 REVERT JUMPDEST POP JUMP JUMPDEST PUSH1 0x0 DUP2 CALLDATALOAD SWAP1 POP PUSH2 0x94B1 DUP2 PUSH2 0x948B JUMP JUMPDEST SWAP3 SWAP2 POP POP JUMP JUMPDEST PUSH1 0x0 DUP2 SWAP1 POP SWAP2 SWAP1 POP JUMP JUMPDEST PUSH2 0x94CA DUP2 PUSH2 0x94B7 JUMP JUMPDEST DUP2 EQ PUSH2 0x94D5 JUMPI PUSH1 0x0 DUP1 REVERT JUMPDEST POP JUMP JUMPDEST PUSH1 0x0 DUP2 CALLDATALOAD SWAP1 POP PUSH2 0x94E7 DUP2 PUSH2 0x94C1 JUMP JUMPDEST SWAP3 SWAP2 POP POP JUMP JUMPDEST PUSH2 0x94F6 DUP2 PUSH2 0x88D2 JUMP JUMPDEST DUP2 EQ PUSH2 0x9501 JUMPI PUSH1 0x0 DUP1 REVERT JUMPDEST POP JUMP JUMPDEST PUSH1 0x0 DUP2 CALLDATALOAD SWAP1 POP PUSH2 0x9513 DUP2 PUSH2 0x94ED JUMP JUMPDEST SWAP3 SWAP2 POP POP JUMP JUMPDEST PUSH1 0x0 DUP1 PUSH1 0x0 DUP1 PUSH1 0x0 DUP1 PUSH1 0x0 PUSH1 0xC0 DUP9 DUP11 SUB SLT ISZERO PUSH2 0x9538 JUMPI PUSH2 0x9537 PUSH2 0x892E JUMP JUMPDEST JUMPDEST PUSH1 0x0 PUSH2 0x9546 DUP11 DUP3 DUP12 ADD PUSH2 0x894F JUMP JUMPDEST SWAP8 POP POP PUSH1 0x20 PUSH2 0x9557 DUP11 DUP3 DUP12 ADD PUSH2 0x894F JUMP JUMPDEST SWAP7 POP POP PUSH1 0x40 PUSH2 0x9568 DUP11 DUP3 DUP12 ADD PUSH2 0x94A2 JUMP JUMPDEST SWAP6 POP POP PUSH1 0x60 PUSH2 0x9579 DUP11 DUP3 DUP12 ADD PUSH2 0x94D8 JUMP JUMPDEST SWAP5 POP POP PUSH1 0x80 PUSH2 0x958A DUP11 DUP3 DUP12 ADD PUSH2 0x9504 JUMP JUMPDEST SWAP4 POP POP PUSH1 0xA0 DUP9 ADD CALLDATALOAD PUSH8 0xFFFFFFFFFFFFFFFF DUP2 GT ISZERO PUSH2 0x95AB JUMPI PUSH2 0x95AA PUSH2 0x8933 JUMP JUMPDEST JUMPDEST PUSH2 0x95B7 DUP11 DUP3 DUP12 ADD PUSH2 0x8D0F JUMP JUMPDEST SWAP3 POP SWAP3 POP POP SWAP3 SWAP6 SWAP9 SWAP2 SWAP5 SWAP8 POP SWAP3 SWAP6 POP JUMP JUMPDEST PUSH2 0x95D1 DUP2 PUSH2 0x94B7 JUMP JUMPDEST DUP3 MSTORE POP POP JUMP JUMPDEST PUSH1 0x0 PUSH1 0x40 DUP3 ADD SWAP1 POP PUSH2 0x95EC PUSH1 0x0 DUP4 ADD DUP6 PUSH2 0x95C8 JUMP JUMPDEST PUSH2 0x95F9 PUSH1 0x20 DUP4 ADD DUP5 PUSH2 0x95C8 JUMP JUMPDEST SWAP4 SWAP3 POP POP POP JUMP JUMPDEST PUSH1 0x0 PUSH1 0x80 DUP3 ADD SWAP1 POP PUSH2 0x9615 PUSH1 0x0 DUP4 ADD DUP8 PUSH2 0x8F70 JUMP JUMPDEST PUSH2 0x9622 PUSH1 0x20 DUP4 ADD DUP7 PUSH2 0x8F70 JUMP JUMPDEST PUSH2 0x962F PUSH1 0x40 DUP4 ADD DUP6 PUSH2 0x8F70 JUMP JUMPDEST PUSH2 0x963C PUSH1 0x60 DUP4 ADD DUP5 PUSH2 0x8F70 JUMP JUMPDEST SWAP6 SWAP5 POP POP POP POP POP JUMP JUMPDEST PUSH2 0x964E DUP2 PUSH2 0x9265 JUMP JUMPDEST DUP2 EQ PUSH2 0x9659 JUMPI PUSH1 0x0 DUP1 REVERT JUMPDEST POP JUMP JUMPDEST PUSH1 0x0 DUP2 CALLDATALOAD SWAP1 POP PUSH2 0x966B DUP2 PUSH2 0x9645 JUMP JUMPDEST SWAP3 SWAP2 POP POP JUMP JUMPDEST PUSH1 0x0 PUSH1 0x20 DUP3 DUP5 SUB SLT ISZERO PUSH2 0x9687 JUMPI PUSH2 0x9686 PUSH2 0x892E JUMP JUMPDEST JUMPDEST PUSH1 0x0 PUSH2 0x9695 DUP5 DUP3 DUP6 ADD PUSH2 0x965C JUMP JUMPDEST SWAP2 POP POP SWAP3 SWAP2 POP POP JUMP JUMPDEST PUSH1 0x0 PUSH1 0x20 DUP3 DUP5 SUB SLT ISZERO PUSH2 0x96B4 JUMPI PUSH2 0x96B3 PUSH2 0x892E JUMP JUMPDEST JUMPDEST PUSH1 0x0 PUSH2 0x96C2 DUP5 DUP3 DUP6 ADD PUSH2 0x9504 JUMP JUMPDEST SWAP2 POP POP SWAP3 SWAP2 POP POP JUMP JUMPDEST PUSH1 0x0 DUP2 MLOAD SWAP1 POP PUSH2 0x96DA DUP2 PUSH2 0x948B JUMP JUMPDEST SWAP3 SWAP2 POP POP JUMP JUMPDEST PUSH1 0x0 PUSH1 0x20 DUP3 DUP5 SUB SLT ISZERO PUSH2 0x96F6 JUMPI PUSH2 0x96F5 PUSH2 0x892E JUMP JUMPDEST JUMPDEST PUSH1 0x0 PUSH2 0x9704 DUP5 DUP3 DUP6 ADD PUSH2 0x96CB JUMP JUMPDEST SWAP2 POP POP SWAP3 SWAP2 POP POP JUMP JUMPDEST PUSH1 0x0 DUP3 DUP3 MSTORE PUSH1 0x20 DUP3 ADD SWAP1 POP SWAP3 SWAP2 POP POP JUMP JUMPDEST PUSH32 0x4C4F4B0000000000000000000000000000000000000000000000000000000000 PUSH1 0x0 DUP3 ADD MSTORE POP JUMP JUMPDEST PUSH1 0x0 PUSH2 0x9754 PUSH1 0x3 DUP4 PUSH2 0x970D JUMP JUMPDEST SWAP2 POP PUSH2 0x975F DUP3 PUSH2 0x971E JUMP JUMPDEST PUSH1 0x20 DUP3 ADD SWAP1 POP SWAP2 SWAP1 POP JUMP JUMPDEST PUSH1 0x0 PUSH1 0x20 DUP3 ADD SWAP1 POP DUP2 DUP2 SUB PUSH1 0x0 DUP4 ADD MSTORE PUSH2 0x9783 DUP2 PUSH2 0x9747 JUMP JUMPDEST SWAP1 POP SWAP2 SWAP1 POP JUMP JUMPDEST PUSH32 0x4E487B7100000000000000000000000000000000000000000000000000000000 PUSH1 0x0 MSTORE PUSH1 0x11 PUSH1 0x4 MSTORE PUSH1 0x24 PUSH1 0x0 REVERT JUMPDEST PUSH1 0x0 PUSH2 0x97C4 DUP3 PUSH2 0x8991 JUMP JUMPDEST SWAP2 POP PUSH2 0x97CF DUP4 PUSH2 0x8991 JUMP JUMPDEST SWAP3 POP DUP3 DUP3 SUB SWAP1 POP PUSH16 0xFFFFFFFFFFFFFFFFFFFFFFFFFFFFFFFF DUP2 GT ISZERO PUSH2 0x97F7 JUMPI PUSH2 0x97F6 PUSH2 0x978A JUMP JUMPDEST JUMPDEST SWAP3 SWAP2 POP POP JUMP JUMPDEST PUSH1 0x0 PUSH1 0x40 DUP3 ADD SWAP1 POP PUSH2 0x9812 PUSH1 0x0 DUP4 ADD DUP6 PUSH2 0x8904 JUMP JUMPDEST PUSH2 0x981F PUSH1 0x20 DUP4 ADD DUP5 PUSH2 0x89AD JUMP JUMPDEST SWAP4 SWAP3 POP POP POP JUMP JUMPDEST PUSH1 0x0 PUSH2 0x9831 DUP3 PUSH2 0x8C87 JUMP JUMPDEST SWAP2 POP PUSH2 0x983C DUP4 PUSH2 0x8C87 JUMP JUMPDEST SWAP3 POP DUP3 DUP3 ADD SWAP1 POP PUSH1 0xFF DUP2 GT ISZERO PUSH2 0x9855 JUMPI PUSH2 0x9854 PUSH2 0x978A JUMP JUMPDEST JUMPDEST SWAP3 SWAP2 POP POP JUMP JUMPDEST PUSH32 0x4E487B7100000000000000000000000000000000000000000000000000000000 PUSH1 0x0 MSTORE PUSH1 0x12 PUSH1 0x4 MSTORE PUSH1 0x24 PUSH1 0x0 REVERT JUMPDEST PUSH1 0x0 PUSH2 0x9895 DUP3 PUSH2 0x8C87 JUMP JUMPDEST SWAP2 POP PUSH2 0x98A0 DUP4 PUSH2 0x8C87 JUMP JUMPDEST SWAP3 POP DUP3 PUSH2 0x98B0 JUMPI PUSH2 0x98AF PUSH2 0x985B JUMP JUMPDEST JUMPDEST DUP3 DUP3 MOD SWAP1 POP SWAP3 SWAP2 POP POP JUMP JUMPDEST PUSH32 0x4D30000000000000000000000000000000000000000000000000000000000000 PUSH1 0x0 DUP3 ADD MSTORE POP JUMP JUMPDEST PUSH1 0x0 PUSH2 0x98F1 PUSH1 0x2 DUP4 PUSH2 0x970D JUMP JUMPDEST SWAP2 POP PUSH2 0x98FC DUP3 PUSH2 0x98BB JUMP JUMPDEST PUSH1 0x20 DUP3 ADD SWAP1 POP SWAP2 SWAP1 POP JUMP JUMPDEST PUSH1 0x0 PUSH1 0x20 DUP3 ADD SWAP1 POP DUP2 DUP2 SUB PUSH1 0x0 DUP4 ADD MSTORE PUSH2 0x9920 DUP2 PUSH2 0x98E4 JUMP JUMPDEST SWAP1 POP SWAP2 SWAP1 POP JUMP JUMPDEST PUSH32 0x4D31000000000000000000000000000000000000000000000000000000000000 PUSH1 0x0 DUP3 ADD MSTORE POP JUMP JUMPDEST PUSH1 0x0 PUSH2 0x995D PUSH1 0x2 DUP4 PUSH2 0x970D JUMP JUMPDEST SWAP2 POP PUSH2 0x9968 DUP3 PUSH2 0x9927 JUMP JUMPDEST PUSH1 0x20 DUP3 ADD SWAP1 POP SWAP2 SWAP1 POP JUMP JUMPDEST PUSH1 0x0 PUSH1 0x20 DUP3 ADD SWAP1 POP DUP2 DUP2 SUB PUSH1 0x0 DUP4 ADD MSTORE PUSH2 0x998C DUP2 PUSH2 0x9950 JUMP JUMPDEST SWAP1 POP SWAP2 SWAP1 POP JUMP JUMPDEST PUSH1 0x0 PUSH1 0x80 DUP3 ADD SWAP1 POP PUSH2 0x99A8 PUSH1 0x0 DUP4 ADD DUP8 PUSH2 0x8904 JUMP JUMPDEST PUSH2 0x99B5 PUSH1 0x20 DUP4 ADD DUP7 PUSH2 0x89AD JUMP JUMPDEST PUSH2 0x99C2 PUSH1 0x40 DUP4 ADD DUP6 PUSH2 0x88A8 JUMP JUMPDEST PUSH2 0x99CF PUSH1 0x60 DUP4 ADD DUP5 PUSH2 0x88A8 JUMP JUMPDEST SWAP6 SWAP5 POP POP POP POP POP JUMP JUMPDEST PUSH32 0x70726F666974736861726520636F6E666967206572726F720000000000000000 PUSH1 0x0 DUP3 ADD MSTORE POP JUMP JUMPDEST PUSH1 0x0 PUSH2 0x9A0E PUSH1 0x18 DUP4 PUSH2 0x970D JUMP JUMPDEST SWAP2 POP PUSH2 0x9A19 DUP3 PUSH2 0x99D8 JUMP JUMPDEST PUSH1 0x20 DUP3 ADD SWAP1 POP SWAP2 SWAP1 POP JUMP JUMPDEST PUSH1 0x0 PUSH1 0x20 DUP3 ADD SWAP1 POP DUP2 DUP2 SUB PUSH1 0x0 DUP4 ADD MSTORE PUSH2 0x9A3D DUP2 PUSH2 0x9A01 JUMP JUMPDEST SWAP1 POP SWAP2 SWAP1 POP JUMP JUMPDEST PUSH32 0x4C00000000000000000000000000000000000000000000000000000000000000 PUSH1 0x0 DUP3 ADD MSTORE POP JUMP JUMPDEST PUSH1 0x0 PUSH2 0x9A7A PUSH1 0x1 DUP4 PUSH2 0x970D JUMP JUMPDEST SWAP2 POP PUSH2 0x9A85 DUP3 PUSH2 0x9A44 JUMP JUMPDEST PUSH1 0x20 DUP3 ADD SWAP1 POP SWAP2 SWAP1 POP JUMP JUMPDEST PUSH1 0x0 PUSH1 0x20 DUP3 ADD SWAP1 POP DUP2 DUP2 SUB PUSH1 0x0 DUP4 ADD MSTORE PUSH2 0x9AA9 DUP2 PUSH2 0x9A6D JUMP JUMPDEST SWAP1 POP SWAP2 SWAP1 POP JUMP JUMPDEST PUSH1 0x0 DUP2 MLOAD SWAP1 POP PUSH2 0x9ABF DUP2 PUSH2 0x8938 JUMP JUMPDEST SWAP3 SWAP2 POP POP JUMP JUMPDEST PUSH1 0x0 PUSH1 0x20 DUP3 DUP5 SUB SLT ISZERO PUSH2 0x9ADB JUMPI PUSH2 0x9ADA PUSH2 0x892E JUMP JUMPDEST JUMPDEST PUSH1 0x0 PUSH2 0x9AE9 DUP5 DUP3 DUP6 ADD PUSH2 0x9AB0 JUMP JUMPDEST SWAP2 POP POP SWAP3 SWAP2 POP POP JUMP JUMPDEST PUSH32 0x4630000000000000000000000000000000000000000000000000000000000000 PUSH1 0x0 DUP3 ADD MSTORE POP JUMP JUMPDEST PUSH1 0x0 PUSH2 0x9B28 PUSH1 0x2 DUP4 PUSH2 0x970D JUMP JUMPDEST SWAP2 POP PUSH2 0x9B33 DUP3 PUSH2 0x9AF2 JUMP JUMPDEST PUSH1 0x20 DUP3 ADD SWAP1 POP SWAP2 SWAP1 POP JUMP JUMPDEST PUSH1 0x0 PUSH1 0x20 DUP3 ADD SWAP1 POP DUP2 DUP2 SUB PUSH1 0x0 DUP4 ADD MSTORE PUSH2 0x9B57 DUP2 PUSH2 0x9B1B JUMP JUMPDEST SWAP1 POP SWAP2 SWAP1 POP JUMP JUMPDEST PUSH32 0x4631000000000000000000000000000000000000000000000000000000000000 PUSH1 0x0 DUP3 ADD MSTORE POP JUMP JUMPDEST PUSH1 0x0 PUSH2 0x9B94 PUSH1 0x2 DUP4 PUSH2 0x970D JUMP JUMPDEST SWAP2 POP PUSH2 0x9B9F DUP3 PUSH2 0x9B5E JUMP JUMPDEST PUSH1 0x20 DUP3 ADD SWAP1 POP SWAP2 SWAP1 POP JUMP JUMPDEST PUSH1 0x0 PUSH1 0x20 DUP3 ADD SWAP1 POP DUP2 DUP2 SUB PUSH1 0x0 DUP4 ADD MSTORE PUSH2 0x9BC3 DUP2 PUSH2 0x9B87 JUMP JUMPDEST SWAP1 POP SWAP2 SWAP1 POP JUMP JUMPDEST PUSH1 0x0 PUSH2 0x9BD5 DUP3 PUSH2 0x889E JUMP JUMPDEST SWAP2 POP PUSH2 0x9BE0 DUP4 PUSH2 0x889E JUMP JUMPDEST SWAP3 POP DUP3 DUP3 SUB SWAP1 POP DUP2 DUP2 GT ISZERO PUSH2 0x9BF8 JUMPI PUSH2 0x9BF7 PUSH2 0x978A JUMP JUMPDEST JUMPDEST SWAP3 SWAP2 POP POP JUMP JUMPDEST PUSH1 0x0 PUSH2 0x9C09 DUP3 PUSH2 0x889E JUMP JUMPDEST SWAP2 POP PUSH2 0x9C14 DUP4 PUSH2 0x889E JUMP JUMPDEST SWAP3 POP DUP3 PUSH2 0x9C24 JUMPI PUSH2 0x9C23 PUSH2 0x985B JUMP JUMPDEST JUMPDEST DUP3 DUP3 DIV SWAP1 POP SWAP3 SWAP2 POP POP JUMP JUMPDEST PUSH1 0x0 PUSH2 0x9C3A DUP3 PUSH2 0x889E JUMP JUMPDEST SWAP2 POP PUSH2 0x9C45 DUP4 PUSH2 0x889E JUMP JUMPDEST SWAP3 POP DUP2 PUSH32 0xFFFFFFFFFFFFFFFFFFFFFFFFFFFFFFFFFFFFFFFFFFFFFFFFFFFFFFFFFFFFFFFF DIV DUP4 GT DUP3 ISZERO ISZERO AND ISZERO PUSH2 0x9C7E JUMPI PUSH2 0x9C7D PUSH2 0x978A JUMP JUMPDEST JUMPDEST DUP3 DUP3 MUL SWAP1 POP SWAP3 SWAP2 POP POP JUMP JUMPDEST PUSH1 0x0 PUSH2 0x9C94 DUP3 PUSH2 0x8991 JUMP JUMPDEST SWAP2 POP PUSH2 0x9C9F DUP4 PUSH2 0x8991 JUMP JUMPDEST SWAP3 POP DUP3 DUP3 ADD SWAP1 POP PUSH16 0xFFFFFFFFFFFFFFFFFFFFFFFFFFFFFFFF DUP2 GT ISZERO PUSH2 0x9CC7 JUMPI PUSH2 0x9CC6 PUSH2 0x978A JUMP JUMPDEST JUMPDEST SWAP3 SWAP2 POP POP JUMP JUMPDEST PUSH1 0x0 PUSH2 0x9CD8 DUP3 PUSH2 0x8BFC JUMP JUMPDEST SWAP2 POP PUSH32 0xFFFFFFFFFFFFFFFFFFFFFFFFFFFFFFFF80000000000000000000000000000000 DUP3 SUB PUSH2 0x9D0A JUMPI PUSH2 0x9D09 PUSH2 0x978A JUMP JUMPDEST JUMPDEST DUP2 PUSH1 0x0 SUB SWAP1 POP SWAP2 SWAP1 POP JUMP JUMPDEST PUSH1 0x0 PUSH2 0x9D20 DUP3 PUSH2 0x94B7 JUMP JUMPDEST SWAP2 POP PUSH32 0x8000000000000000000000000000000000000000000000000000000000000000 DUP3 SUB PUSH2 0x9D52 JUMPI PUSH2 0x9D51 PUSH2 0x978A JUMP JUMPDEST JUMPDEST DUP2 PUSH1 0x0 SUB SWAP1 POP SWAP2 SWAP1 POP JUMP JUMPDEST PUSH1 0x0 PUSH1 0x60 DUP3 ADD SWAP1 POP PUSH2 0x9D72 PUSH1 0x0 DUP4 ADD DUP7 PUSH2 0x89AD JUMP JUMPDEST PUSH2 0x9D7F PUSH1 0x20 DUP4 ADD DUP6 PUSH2 0x88A8 JUMP JUMPDEST PUSH2 0x9D8C PUSH1 0x40 DUP4 ADD DUP5 PUSH2 0x88A8 JUMP JUMPDEST SWAP5 SWAP4 POP POP POP POP JUMP JUMPDEST PUSH1 0x0 PUSH2 0x9D9F DUP3 PUSH2 0x8A5D JUMP JUMPDEST SWAP2 POP PUSH2 0x9DAA DUP4 PUSH2 0x8A5D JUMP JUMPDEST SWAP3 POP DUP3 DUP3 SUB SWAP1 POP PUSH7 0x7FFFFFFFFFFFFF DUP2 SGT PUSH32 0xFFFFFFFFFFFFFFFFFFFFFFFFFFFFFFFFFFFFFFFFFFFFFFFFFF80000000000000 DUP3 SLT OR ISZERO PUSH2 0x9DED JUMPI PUSH2 0x9DEC PUSH2 0x978A JUMP JUMPDEST JUMPDEST SWAP3 SWAP2 POP POP JUMP JUMPDEST PUSH1 0x0 PUSH2 0x9DFE DUP3 PUSH2 0x88D2 JUMP JUMPDEST SWAP2 POP PUSH2 0x9E09 DUP4 PUSH2 0x88D2 JUMP JUMPDEST SWAP3 POP DUP3 DUP3 SUB SWAP1 POP PUSH20 0xFFFFFFFFFFFFFFFFFFFFFFFFFFFFFFFFFFFFFFFF DUP2 GT ISZERO PUSH2 0x9E35 JUMPI PUSH2 0x9E34 PUSH2 0x978A JUMP JUMPDEST JUMPDEST SWAP3 SWAP2 POP POP JUMP JUMPDEST PUSH1 0x0 PUSH2 0x9E46 DUP3 PUSH2 0x8A3E JUMP JUMPDEST SWAP2 POP PUSH2 0x9E51 DUP4 PUSH2 0x8A3E JUMP JUMPDEST SWAP3 POP DUP3 DUP3 SUB SWAP1 POP PUSH4 0xFFFFFFFF DUP2 GT ISZERO PUSH2 0x9E6D JUMPI PUSH2 0x9E6C PUSH2 0x978A JUMP JUMPDEST JUMPDEST SWAP3 SWAP2 POP POP JUMP JUMPDEST PUSH32 0x4153000000000000000000000000000000000000000000000000000000000000 PUSH1 0x0 DUP3 ADD MSTORE POP JUMP JUMPDEST PUSH1 0x0 PUSH2 0x9EA9 PUSH1 0x2 DUP4 PUSH2 0x970D JUMP JUMPDEST SWAP2 POP PUSH2 0x9EB4 DUP3 PUSH2 0x9E73 JUMP JUMPDEST PUSH1 0x20 DUP3 ADD SWAP1 POP SWAP2 SWAP1 POP JUMP JUMPDEST PUSH1 0x0 PUSH1 0x20 DUP3 ADD SWAP1 POP DUP2 DUP2 SUB PUSH1 0x0 DUP4 ADD MSTORE PUSH2 0x9ED8 DUP2 PUSH2 0x9E9C JUMP JUMPDEST SWAP1 POP SWAP2 SWAP1 POP JUMP JUMPDEST PUSH32 0x6D61726B6574206C6F636B000000000000000000000000000000000000000000 PUSH1 0x0 DUP3 ADD MSTORE POP JUMP JUMPDEST PUSH1 0x0 PUSH2 0x9F15 PUSH1 0xB DUP4 PUSH2 0x970D JUMP JUMPDEST SWAP2 POP PUSH2 0x9F20 DUP3 PUSH2 0x9EDF JUMP JUMPDEST PUSH1 0x20 DUP3 ADD SWAP1 POP SWAP2 SWAP1 POP JUMP JUMPDEST PUSH1 0x0 PUSH1 0x20 DUP3 ADD SWAP1 POP DUP2 DUP2 SUB PUSH1 0x0 DUP4 ADD MSTORE PUSH2 0x9F44 DUP2 PUSH2 0x9F08 JUMP JUMPDEST SWAP1 POP SWAP2 SWAP1 POP JUMP JUMPDEST PUSH32 0x53504C0000000000000000000000000000000000000000000000000000000000 PUSH1 0x0 DUP3 ADD MSTORE POP JUMP JUMPDEST PUSH1 0x0 PUSH2 0x9F81 PUSH1 0x3 DUP4 PUSH2 0x970D JUMP JUMPDEST SWAP2 POP PUSH2 0x9F8C DUP3 PUSH2 0x9F4B JUMP JUMPDEST PUSH1 0x20 DUP3 ADD SWAP1 POP SWAP2 SWAP1 POP JUMP JUMPDEST PUSH1 0x0 PUSH1 0x20 DUP3 ADD SWAP1 POP DUP2 DUP2 SUB PUSH1 0x0 DUP4 ADD MSTORE PUSH2 0x9FB0 DUP2 PUSH2 0x9F74 JUMP JUMPDEST SWAP1 POP SWAP2 SWAP1 POP JUMP JUMPDEST PUSH1 0x0 PUSH2 0x9FC2 DUP3 PUSH2 0x8AE8 JUMP JUMPDEST SWAP2 POP PUSH32 0xFFFFFFFFFFFFFFFFFFFFFFFFFFFFFFFFFFFFFFFFFFFFFFFFFFFFFFFFFF800000 DUP3 SUB PUSH2 0x9FF4 JUMPI PUSH2 0x9FF3 PUSH2 0x978A JUMP JUMPDEST JUMPDEST DUP2 PUSH1 0x0 SUB SWAP1 POP SWAP2 SWAP1 POP JUMP JUMPDEST PUSH1 0x0 PUSH2 0xA00A DUP3 PUSH2 0x889E JUMP JUMPDEST SWAP2 POP PUSH2 0xA015 DUP4 PUSH2 0x889E JUMP JUMPDEST SWAP3 POP DUP3 DUP3 ADD SWAP1 POP DUP1 DUP3 GT ISZERO PUSH2 0xA02D JUMPI PUSH2 0xA02C PUSH2 0x978A JUMP JUMPDEST JUMPDEST SWAP3 SWAP2 POP POP JUMP JUMPDEST PUSH1 0x0 PUSH2 0xA03E DUP3 PUSH2 0x94B7 JUMP JUMPDEST SWAP2 POP PUSH2 0xA049 DUP4 PUSH2 0x94B7 JUMP JUMPDEST SWAP3 POP DUP3 DUP3 SUB SWAP1 POP DUP2 DUP2 SLT PUSH1 0x0 DUP5 SLT AND DUP3 DUP3 SGT PUSH1 0x0 DUP6 SLT ISZERO AND OR ISZERO PUSH2 0xA070 JUMPI PUSH2 0xA06F PUSH2 0x978A JUMP JUMPDEST JUMPDEST SWAP3 SWAP2 POP POP JUMP JUMPDEST PUSH1 0x0 PUSH2 0xA081 DUP3 PUSH2 0x94B7 JUMP JUMPDEST SWAP2 POP PUSH2 0xA08C DUP4 PUSH2 0x94B7 JUMP JUMPDEST SWAP3 POP DUP3 DUP3 ADD SWAP1 POP DUP3 DUP2 SLT ISZERO PUSH1 0x0 DUP4 SLT AND DUP4 DUP3 SLT PUSH1 0x0 DUP5 SLT ISZERO AND OR ISZERO PUSH2 0xA0B4 JUMPI PUSH2 0xA0B3 PUSH2 0x978A JUMP JUMPDEST JUMPDEST SWAP3 SWAP2 POP POP JUMP JUMPDEST PUSH1 0x0 PUSH2 0xA0C5 DUP3 PUSH2 0x8AE8 JUMP JUMPDEST SWAP2 POP PUSH2 0xA0D0 DUP4 PUSH2 0x8AE8 JUMP JUMPDEST SWAP3 POP DUP3 DUP3 SUB SWAP1 POP PUSH3 0x7FFFFF DUP2 SGT PUSH32 0xFFFFFFFFFFFFFFFFFFFFFFFFFFFFFFFFFFFFFFFFFFFFFFFFFFFFFFFFFF800000 DUP3 SLT OR ISZERO PUSH2 0xA10F JUMPI PUSH2 0xA10E PUSH2 0x978A JUMP JUMPDEST JUMPDEST SWAP3 SWAP2 POP POP JUMP JUMPDEST PUSH1 0x0 PUSH2 0xA120 DUP3 PUSH2 0x8991 JUMP JUMPDEST SWAP2 POP PUSH2 0xA12B DUP4 PUSH2 0x8991 JUMP JUMPDEST SWAP3 POP DUP3 PUSH2 0xA13B JUMPI PUSH2 0xA13A PUSH2 0x985B JUMP JUMPDEST JUMPDEST DUP3 DUP3 DIV SWAP1 POP SWAP3 SWAP2 POP POP JUMP JUMPDEST PUSH1 0x0 PUSH2 0xA151 DUP3 PUSH2 0x8991 JUMP JUMPDEST SWAP2 POP PUSH2 0xA15C DUP4 PUSH2 0x8991 JUMP JUMPDEST SWAP3 POP DUP2 PUSH16 0xFFFFFFFFFFFFFFFFFFFFFFFFFFFFFFFF DIV DUP4 GT DUP3 ISZERO ISZERO AND ISZERO PUSH2 0xA185 JUMPI PUSH2 0xA184 PUSH2 0x978A JUMP JUMPDEST JUMPDEST DUP3 DUP3 MUL SWAP1 POP SWAP3 SWAP2 POP POP JUMP JUMPDEST PUSH32 0x4949410000000000000000000000000000000000000000000000000000000000 PUSH1 0x0 DUP3 ADD MSTORE POP JUMP JUMPDEST PUSH1 0x0 PUSH2 0xA1C6 PUSH1 0x3 DUP4 PUSH2 0x970D JUMP JUMPDEST SWAP2 POP PUSH2 0xA1D1 DUP3 PUSH2 0xA190 JUMP JUMPDEST PUSH1 0x20 DUP3 ADD SWAP1 POP SWAP2 SWAP1 POP JUMP JUMPDEST PUSH1 0x0 PUSH1 0x20 DUP3 ADD SWAP1 POP DUP2 DUP2 SUB PUSH1 0x0 DUP4 ADD MSTORE PUSH2 0xA1F5 DUP2 PUSH2 0xA1B9 JUMP JUMPDEST SWAP1 POP SWAP2 SWAP1 POP JUMP JUMPDEST PUSH1 0x0 PUSH1 0xA0 DUP3 ADD SWAP1 POP PUSH2 0xA211 PUSH1 0x0 DUP4 ADD DUP9 PUSH2 0x95C8 JUMP JUMPDEST PUSH2 0xA21E PUSH1 0x20 DUP4 ADD DUP8 PUSH2 0x95C8 JUMP JUMPDEST PUSH2 0xA22B PUSH1 0x40 DUP4 ADD DUP7 PUSH2 0x8A79 JUMP JUMPDEST PUSH2 0xA238 PUSH1 0x60 DUP4 ADD DUP6 PUSH2 0x89AD JUMP JUMPDEST PUSH2 0xA245 PUSH1 0x80 DUP4 ADD DUP5 PUSH2 0x9256 JUMP JUMPDEST SWAP7 SWAP6 POP POP POP POP POP POP JUMP JUMPDEST PUSH1 0x0 PUSH1 0x40 DUP3 ADD SWAP1 POP PUSH2 0xA264 PUSH1 0x0 DUP4 ADD DUP6 PUSH2 0x9273 JUMP JUMPDEST PUSH2 0xA271 PUSH1 0x20 DUP4 ADD DUP5 PUSH2 0x9273 JUMP JUMPDEST SWAP4 SWAP3 POP POP POP JUMP JUMPDEST PUSH32 0x4149000000000000000000000000000000000000000000000000000000000000 PUSH1 0x0 DUP3 ADD MSTORE POP JUMP JUMPDEST PUSH1 0x0 PUSH2 0xA2AE PUSH1 0x2 DUP4 PUSH2 0x970D JUMP JUMPDEST SWAP2 POP PUSH2 0xA2B9 DUP3 PUSH2 0xA278 JUMP JUMPDEST PUSH1 0x20 DUP3 ADD SWAP1 POP SWAP2 SWAP1 POP JUMP JUMPDEST PUSH1 0x0 PUSH1 0x20 DUP3 ADD SWAP1 POP DUP2 DUP2 SUB PUSH1 0x0 DUP4 ADD MSTORE PUSH2 0xA2DD DUP2 PUSH2 0xA2A1 JUMP JUMPDEST SWAP1 POP SWAP2 SWAP1 POP JUMP JUMPDEST PUSH1 0x0 PUSH1 0x40 DUP3 ADD SWAP1 POP PUSH2 0xA2F9 PUSH1 0x0 DUP4 ADD DUP6 PUSH2 0x8A79 JUMP JUMPDEST PUSH2 0xA306 PUSH1 0x20 DUP4 ADD DUP5 PUSH2 0x9256 JUMP JUMPDEST SWAP4 SWAP3 POP POP POP JUMP JUMPDEST PUSH1 0x0 PUSH2 0xA318 DUP3 PUSH2 0x8AE8 JUMP JUMPDEST SWAP2 POP PUSH2 0xA323 DUP4 PUSH2 0x8AE8 JUMP JUMPDEST SWAP3 POP DUP3 PUSH2 0xA333 JUMPI PUSH2 0xA332 PUSH2 0x985B JUMP JUMPDEST JUMPDEST PUSH1 0x1 PUSH1 0x0 SUB DUP4 EQ PUSH32 0xFFFFFFFFFFFFFFFFFFFFFFFFFFFFFFFFFFFFFFFFFFFFFFFFFFFFFFFFFF800000 DUP4 EQ AND ISZERO PUSH2 0xA36C JUMPI PUSH2 0xA36B PUSH2 0x978A JUMP JUMPDEST JUMPDEST DUP3 DUP3 SDIV SWAP1 POP SWAP3 SWAP2 POP POP JUMP JUMPDEST PUSH1 0x0 PUSH2 0xA382 DUP3 PUSH2 0x8AE8 JUMP JUMPDEST SWAP2 POP PUSH2 0xA38D DUP4 PUSH2 0x8AE8 JUMP JUMPDEST SWAP3 POP DUP3 PUSH3 0x7FFFFF DIV DUP3 GT PUSH1 0x0 DUP5 SGT PUSH1 0x0 DUP5 SGT AND AND ISZERO PUSH2 0xA3AF JUMPI PUSH2 0xA3AE PUSH2 0x978A JUMP JUMPDEST JUMPDEST DUP2 PUSH32 0xFFFFFFFFFFFFFFFFFFFFFFFFFFFFFFFFFFFFFFFFFFFFFFFFFFFFFFFFFF800000 SDIV DUP4 SLT PUSH1 0x0 DUP5 SLT PUSH1 0x0 DUP5 SGT AND AND ISZERO PUSH2 0xA3EC JUMPI PUSH2 0xA3EB PUSH2 0x978A JUMP JUMPDEST JUMPDEST DUP3 PUSH32 0xFFFFFFFFFFFFFFFFFFFFFFFFFFFFFFFFFFFFFFFFFFFFFFFFFFFFFFFFFF800000 SDIV DUP3 SLT PUSH1 0x0 DUP5 SGT PUSH1 0x0 DUP5 SLT AND AND ISZERO PUSH2 0xA429 JUMPI PUSH2 0xA428 PUSH2 0x978A JUMP JUMPDEST JUMPDEST DUP3 PUSH3 0x7FFFFF SDIV DUP3 SLT PUSH1 0x0 DUP5 SLT PUSH1 0x0 DUP5 SLT AND AND ISZERO PUSH2 0xA449 JUMPI PUSH2 0xA448 PUSH2 0x978A JUMP JUMPDEST JUMPDEST DUP3 DUP3 MUL SWAP1 POP SWAP3 SWAP2 POP POP JUMP JUMPDEST PUSH1 0x0 PUSH2 0xA45F DUP3 PUSH2 0x8ED0 JUMP JUMPDEST SWAP2 POP PUSH2 0xA46A DUP4 PUSH2 0x8ED0 JUMP JUMPDEST SWAP3 POP DUP3 DUP3 ADD SWAP1 POP PUSH3 0xFFFFFF DUP2 GT ISZERO PUSH2 0xA485 JUMPI PUSH2 0xA484 PUSH2 0x978A JUMP JUMPDEST JUMPDEST SWAP3 SWAP2 POP POP JUMP JUMPDEST PUSH1 0x0 DUP2 PUSH1 0x60 SHL SWAP1 POP SWAP2 SWAP1 POP JUMP JUMPDEST PUSH1 0x0 PUSH2 0xA4A3 DUP3 PUSH2 0xA48B JUMP JUMPDEST SWAP1 POP SWAP2 SWAP1 POP JUMP JUMPDEST PUSH1 0x0 PUSH2 0xA4B5 DUP3 PUSH2 0xA498 JUMP JUMPDEST SWAP1 POP SWAP2 SWAP1 POP JUMP JUMPDEST PUSH2 0xA4CD PUSH2 0xA4C8 DUP3 PUSH2 0x88F2 JUMP JUMPDEST PUSH2 0xA4AA JUMP JUMPDEST DUP3 MSTORE POP POP JUMP JUMPDEST PUSH1 0x0 DUP2 PUSH1 0xE8 SHL SWAP1 POP SWAP2 SWAP1 POP JUMP JUMPDEST PUSH1 0x0 PUSH2 0xA4EB DUP3 PUSH2 0xA4D3 JUMP JUMPDEST SWAP1 POP SWAP2 SWAP1 POP JUMP JUMPDEST PUSH2 0xA503 PUSH2 0xA4FE DUP3 PUSH2 0x8AE8 JUMP JUMPDEST PUSH2 0xA4E0 JUMP JUMPDEST DUP3 MSTORE POP POP JUMP JUMPDEST PUSH1 0x0 PUSH2 0xA515 DUP3 DUP7 PUSH2 0xA4BC JUMP JUMPDEST PUSH1 0x14 DUP3 ADD SWAP2 POP PUSH2 0xA525 DUP3 DUP6 PUSH2 0xA4F2 JUMP JUMPDEST PUSH1 0x3 DUP3 ADD SWAP2 POP PUSH2 0xA535 DUP3 DUP5 PUSH2 0xA4F2 JUMP JUMPDEST PUSH1 0x3 DUP3 ADD SWAP2 POP DUP2 SWAP1 POP SWAP5 SWAP4 POP POP POP POP JUMP JUMPDEST PUSH1 0x0 PUSH1 0x40 DUP3 ADD SWAP1 POP PUSH2 0xA55B PUSH1 0x0 DUP4 ADD DUP6 PUSH2 0x8904 JUMP JUMPDEST PUSH2 0xA568 PUSH1 0x20 DUP4 ADD DUP5 PUSH2 0x88A8 JUMP JUMPDEST SWAP4 SWAP3 POP POP POP JUMP JUMPDEST PUSH1 0x0 DUP2 MLOAD SWAP1 POP SWAP2 SWAP1 POP JUMP JUMPDEST PUSH1 0x0 DUP2 SWAP1 POP SWAP3 SWAP2 POP POP JUMP JUMPDEST PUSH1 0x0 JUMPDEST DUP4 DUP2 LT ISZERO PUSH2 0xA5A3 JUMPI DUP1 DUP3 ADD MLOAD DUP2 DUP5 ADD MSTORE PUSH1 0x20 DUP2 ADD SWAP1 POP PUSH2 0xA588 JUMP JUMPDEST PUSH1 0x0 DUP5 DUP5 ADD MSTORE POP POP POP POP JUMP JUMPDEST PUSH1 0x0 PUSH2 0xA5BA DUP3 PUSH2 0xA56F JUMP JUMPDEST PUSH2 0xA5C4 DUP2 DUP6 PUSH2 0xA57A JUMP JUMPDEST SWAP4 POP PUSH2 0xA5D4 DUP2 DUP6 PUSH1 0x20 DUP7 ADD PUSH2 0xA585 JUMP JUMPDEST DUP1 DUP5 ADD SWAP2 POP POP SWAP3 SWAP2 POP POP JUMP JUMPDEST PUSH1 0x0 PUSH2 0xA5EC DUP3 DUP5 PUSH2 0xA5AF JUMP JUMPDEST SWAP2 POP DUP2 SWAP1 POP SWAP3 SWAP2 POP POP JUMP JUMPDEST PUSH32 0x5446000000000000000000000000000000000000000000000000000000000000 PUSH1 0x0 DUP3 ADD MSTORE POP JUMP JUMPDEST PUSH1 0x0 PUSH2 0xA62D PUSH1 0x2 DUP4 PUSH2 0x970D JUMP JUMPDEST SWAP2 POP PUSH2 0xA638 DUP3 PUSH2 0xA5F7 JUMP JUMPDEST PUSH1 0x20 DUP3 ADD SWAP1 POP SWAP2 SWAP1 POP JUMP JUMPDEST PUSH1 0x0 PUSH1 0x20 DUP3 ADD SWAP1 POP DUP2 DUP2 SUB PUSH1 0x0 DUP4 ADD MSTORE PUSH2 0xA65C DUP2 PUSH2 0xA620 JUMP JUMPDEST SWAP1 POP SWAP2 SWAP1 POP JUMP JUMPDEST PUSH1 0x0 DUP2 MLOAD SWAP1 POP PUSH2 0xA672 DUP2 PUSH2 0x89E5 JUMP JUMPDEST SWAP3 SWAP2 POP POP JUMP JUMPDEST PUSH1 0x0 PUSH1 0x20 DUP3 DUP5 SUB SLT ISZERO PUSH2 0xA68E JUMPI PUSH2 0xA68D PUSH2 0x892E JUMP JUMPDEST JUMPDEST PUSH1 0x0 PUSH2 0xA69C DUP5 DUP3 DUP6 ADD PUSH2 0xA663 JUMP JUMPDEST SWAP2 POP POP SWAP3 SWAP2 POP POP JUMP JUMPDEST PUSH32 0x4900000000000000000000000000000000000000000000000000000000000000 PUSH1 0x0 DUP3 ADD MSTORE POP JUMP JUMPDEST PUSH1 0x0 PUSH2 0xA6DB PUSH1 0x1 DUP4 PUSH2 0x970D JUMP JUMPDEST SWAP2 POP PUSH2 0xA6E6 DUP3 PUSH2 0xA6A5 JUMP JUMPDEST PUSH1 0x20 DUP3 ADD SWAP1 POP SWAP2 SWAP1 POP JUMP JUMPDEST PUSH1 0x0 PUSH1 0x20 DUP3 ADD SWAP1 POP DUP2 DUP2 SUB PUSH1 0x0 DUP4 ADD MSTORE PUSH2 0xA70A DUP2 PUSH2 0xA6CE JUMP JUMPDEST SWAP1 POP SWAP2 SWAP1 POP JUMP JUMPDEST PUSH32 0x4E487B7100000000000000000000000000000000000000000000000000000000 PUSH1 0x0 MSTORE PUSH1 0x41 PUSH1 0x4 MSTORE PUSH1 0x24 PUSH1 0x0 REVERT JUMPDEST PUSH32 0x4E487B7100000000000000000000000000000000000000000000000000000000 PUSH1 0x0 MSTORE PUSH1 0x32 PUSH1 0x4 MSTORE PUSH1 0x24 PUSH1 0x0 REVERT JUMPDEST PUSH1 0x0 PUSH2 0xA77A DUP3 PUSH2 0x889E JUMP JUMPDEST SWAP2 POP PUSH32 0xFFFFFFFFFFFFFFFFFFFFFFFFFFFFFFFFFFFFFFFFFFFFFFFFFFFFFFFFFFFFFFFF DUP3 SUB PUSH2 0xA7AC JUMPI PUSH2 0xA7AB PUSH2 0x978A JUMP JUMPDEST JUMPDEST PUSH1 0x1 DUP3 ADD SWAP1 POP SWAP2 SWAP1 POP JUMP JUMPDEST PUSH32 0x6C6F776572206E6F74206C6F776572206F6620757070657220756E6974000000 PUSH1 0x0 DUP3 ADD MSTORE POP JUMP JUMPDEST PUSH1 0x0 PUSH2 0xA7ED PUSH1 0x1D DUP4 PUSH2 0x970D JUMP JUMPDEST SWAP2 POP PUSH2 0xA7F8 DUP3 PUSH2 0xA7B7 JUMP JUMPDEST PUSH1 0x20 DUP3 ADD SWAP1 POP SWAP2 SWAP1 POP JUMP JUMPDEST PUSH1 0x0 PUSH1 0x20 DUP3 ADD SWAP1 POP DUP2 DUP2 SUB PUSH1 0x0 DUP4 ADD MSTORE PUSH2 0xA81C DUP2 PUSH2 0xA7E0 JUMP JUMPDEST SWAP1 POP SWAP2 SWAP1 POP JUMP JUMPDEST PUSH32 0x544C4D0000000000000000000000000000000000000000000000000000000000 PUSH1 0x0 DUP3 ADD MSTORE POP JUMP JUMPDEST PUSH1 0x0 PUSH2 0xA859 PUSH1 0x3 DUP4 PUSH2 0x970D JUMP JUMPDEST SWAP2 POP PUSH2 0xA864 DUP3 PUSH2 0xA823 JUMP JUMPDEST PUSH1 0x20 DUP3 ADD SWAP1 POP SWAP2 SWAP1 POP JUMP JUMPDEST PUSH1 0x0 PUSH1 0x20 DUP3 ADD SWAP1 POP DUP2 DUP2 SUB PUSH1 0x0 DUP4 ADD MSTORE PUSH2 0xA888 DUP2 PUSH2 0xA84C JUMP JUMPDEST SWAP1 POP SWAP2 SWAP1 POP JUMP JUMPDEST PUSH32 0x54554D0000000000000000000000000000000000000000000000000000000000 PUSH1 0x0 DUP3 ADD MSTORE POP JUMP JUMPDEST PUSH1 0x0 PUSH2 0xA8C5 PUSH1 0x3 DUP4 PUSH2 0x970D JUMP JUMPDEST SWAP2 POP PUSH2 0xA8D0 DUP3 PUSH2 0xA88F JUMP JUMPDEST PUSH1 0x20 DUP3 ADD SWAP1 POP SWAP2 SWAP1 POP JUMP JUMPDEST PUSH1 0x0 PUSH1 0x20 DUP3 ADD SWAP1 POP DUP2 DUP2 SUB PUSH1 0x0 DUP4 ADD MSTORE PUSH2 0xA8F4 DUP2 PUSH2 0xA8B8 JUMP JUMPDEST SWAP1 POP SWAP2 SWAP1 POP JUMP JUMPDEST PUSH1 0x0 PUSH2 0xA906 DUP3 PUSH2 0x8A5D JUMP JUMPDEST SWAP2 POP PUSH2 0xA911 DUP4 PUSH2 0x8A5D JUMP JUMPDEST SWAP3 POP DUP3 PUSH2 0xA921 JUMPI PUSH2 0xA920 PUSH2 0x985B JUMP JUMPDEST JUMPDEST PUSH1 0x1 PUSH1 0x0 SUB DUP4 EQ PUSH32 0xFFFFFFFFFFFFFFFFFFFFFFFFFFFFFFFFFFFFFFFFFFFFFFFFFF80000000000000 DUP4 EQ AND ISZERO PUSH2 0xA95A JUMPI PUSH2 0xA959 PUSH2 0x978A JUMP JUMPDEST JUMPDEST DUP3 DUP3 SDIV SWAP1 POP SWAP3 SWAP2 POP POP JUMP JUMPDEST PUSH1 0x0 PUSH2 0xA970 DUP3 PUSH2 0x8A5D JUMP JUMPDEST SWAP2 POP PUSH2 0xA97B DUP4 PUSH2 0x8A5D JUMP JUMPDEST SWAP3 POP DUP3 PUSH7 0x7FFFFFFFFFFFFF DIV DUP3 GT PUSH1 0x0 DUP5 SGT PUSH1 0x0 DUP5 SGT AND AND ISZERO PUSH2 0xA9A1 JUMPI PUSH2 0xA9A0 PUSH2 0x978A JUMP JUMPDEST JUMPDEST DUP2 PUSH32 0xFFFFFFFFFFFFFFFFFFFFFFFFFFFFFFFFFFFFFFFFFFFFFFFFFF80000000000000 SDIV DUP4 SLT PUSH1 0x0 DUP5 SLT PUSH1 0x0 DUP5 SGT AND AND ISZERO PUSH2 0xA9DE JUMPI PUSH2 0xA9DD PUSH2 0x978A JUMP JUMPDEST JUMPDEST DUP3 PUSH32 0xFFFFFFFFFFFFFFFFFFFFFFFFFFFFFFFFFFFFFFFFFFFFFFFFFF80000000000000 SDIV DUP3 SLT PUSH1 0x0 DUP5 SGT PUSH1 0x0 DUP5 SLT AND AND ISZERO PUSH2 0xAA1B JUMPI PUSH2 0xAA1A PUSH2 0x978A JUMP JUMPDEST JUMPDEST DUP3 PUSH7 0x7FFFFFFFFFFFFF SDIV DUP3 SLT PUSH1 0x0 DUP5 SLT PUSH1 0x0 DUP5 SLT AND AND ISZERO PUSH2 0xAA3F JUMPI PUSH2 0xAA3E PUSH2 0x978A JUMP JUMPDEST JUMPDEST DUP3 DUP3 MUL SWAP1 POP SWAP3 SWAP2 POP POP JUMP JUMPDEST PUSH1 0x0 PUSH2 0xAA55 DUP3 PUSH2 0x8A5D JUMP JUMPDEST SWAP2 POP PUSH2 0xAA60 DUP4 PUSH2 0x8A5D JUMP JUMPDEST SWAP3 POP DUP3 DUP3 ADD SWAP1 POP PUSH32 0xFFFFFFFFFFFFFFFFFFFFFFFFFFFFFFFFFFFFFFFFFFFFFFFFFF80000000000000 DUP2 SLT PUSH7 0x7FFFFFFFFFFFFF DUP3 SGT OR ISZERO PUSH2 0xAAA3 JUMPI PUSH2 0xAAA2 PUSH2 0x978A JUMP JUMPDEST JUMPDEST SWAP3 SWAP2 POP POP JUMP JUMPDEST PUSH1 0x0 PUSH2 0xAAB4 DUP3 PUSH2 0x88D2 JUMP JUMPDEST SWAP2 POP PUSH2 0xAABF DUP4 PUSH2 0x88D2 JUMP JUMPDEST SWAP3 POP DUP2 PUSH20 0xFFFFFFFFFFFFFFFFFFFFFFFFFFFFFFFFFFFFFFFF DIV DUP4 GT DUP3 ISZERO ISZERO AND ISZERO PUSH2 0xAAEC JUMPI PUSH2 0xAAEB PUSH2 0x978A JUMP JUMPDEST JUMPDEST DUP3 DUP3 MUL SWAP1 POP SWAP3 SWAP2 POP POP JUMP JUMPDEST PUSH1 0x0 PUSH2 0xAB02 DUP3 PUSH2 0x88D2 JUMP JUMPDEST SWAP2 POP PUSH2 0xAB0D DUP4 PUSH2 0x88D2 JUMP JUMPDEST SWAP3 POP DUP3 PUSH2 0xAB1D JUMPI PUSH2 0xAB1C PUSH2 0x985B JUMP JUMPDEST JUMPDEST DUP3 DUP3 DIV SWAP1 POP SWAP3 SWAP2 POP POP JUMP JUMPDEST PUSH1 0x0 PUSH2 0xAB33 DUP3 PUSH2 0x88D2 JUMP JUMPDEST SWAP2 POP PUSH2 0xAB3E DUP4 PUSH2 0x88D2 JUMP JUMPDEST SWAP3 POP DUP3 DUP3 ADD SWAP1 POP PUSH20 0xFFFFFFFFFFFFFFFFFFFFFFFFFFFFFFFFFFFFFFFF DUP2 GT ISZERO PUSH2 0xAB6A JUMPI PUSH2 0xAB69 PUSH2 0x978A JUMP JUMPDEST JUMPDEST SWAP3 SWAP2 POP POP JUMP JUMPDEST PUSH1 0x0 PUSH2 0xAB7B DUP3 PUSH2 0x8AE8 JUMP JUMPDEST SWAP2 POP PUSH2 0xAB86 DUP4 PUSH2 0x8AE8 JUMP JUMPDEST SWAP3 POP DUP3 PUSH2 0xAB96 JUMPI PUSH2 0xAB95 PUSH2 0x985B JUMP JUMPDEST JUMPDEST DUP3 DUP3 SMOD SWAP1 POP SWAP3 SWAP2 POP POP JUMP JUMPDEST PUSH1 0x0 PUSH2 0xABAC DUP3 PUSH2 0x8AE8 JUMP JUMPDEST SWAP2 POP PUSH32 0xFFFFFFFFFFFFFFFFFFFFFFFFFFFFFFFFFFFFFFFFFFFFFFFFFFFFFFFFFF800000 DUP3 SUB PUSH2 0xABDE JUMPI PUSH2 0xABDD PUSH2 0x978A JUMP JUMPDEST JUMPDEST PUSH1 0x1 DUP3 SUB SWAP1 POP SWAP2 SWAP1 POP JUMP JUMPDEST PUSH1 0x0 PUSH2 0xABF4 DUP3 PUSH2 0x8C87 JUMP JUMPDEST SWAP2 POP PUSH2 0xABFF DUP4 PUSH2 0x8C87 JUMP JUMPDEST SWAP3 POP DUP3 DUP3 SUB SWAP1 POP PUSH1 0xFF DUP2 GT ISZERO PUSH2 0xAC18 JUMPI PUSH2 0xAC17 PUSH2 0x978A JUMP JUMPDEST JUMPDEST SWAP3 SWAP2 POP POP JUMP JUMPDEST PUSH1 0x0 PUSH2 0xAC29 DUP3 PUSH2 0x8AE8 JUMP JUMPDEST SWAP2 POP PUSH2 0xAC34 DUP4 PUSH2 0x8AE8 JUMP JUMPDEST SWAP3 POP DUP3 DUP3 ADD SWAP1 POP PUSH32 0xFFFFFFFFFFFFFFFFFFFFFFFFFFFFFFFFFFFFFFFFFFFFFFFFFFFFFFFFFF800000 DUP2 SLT PUSH3 0x7FFFFF DUP3 SGT OR ISZERO PUSH2 0xAC73 JUMPI PUSH2 0xAC72 PUSH2 0x978A JUMP JUMPDEST JUMPDEST SWAP3 SWAP2 POP POP JUMP JUMPDEST PUSH32 0x5400000000000000000000000000000000000000000000000000000000000000 PUSH1 0x0 DUP3 ADD MSTORE POP JUMP JUMPDEST PUSH1 0x0 PUSH2 0xACAF PUSH1 0x1 DUP4 PUSH2 0x970D JUMP JUMPDEST SWAP2 POP PUSH2 0xACBA DUP3 PUSH2 0xAC79 JUMP JUMPDEST PUSH1 0x20 DUP3 ADD SWAP1 POP SWAP2 SWAP1 POP JUMP JUMPDEST PUSH1 0x0 PUSH1 0x20 DUP3 ADD SWAP1 POP DUP2 DUP2 SUB PUSH1 0x0 DUP4 ADD MSTORE PUSH2 0xACDE DUP2 PUSH2 0xACA2 JUMP JUMPDEST SWAP1 POP SWAP2 SWAP1 POP JUMP JUMPDEST PUSH1 0x0 PUSH2 0xACF0 DUP3 PUSH2 0x889E JUMP JUMPDEST SWAP2 POP PUSH2 0xACFB DUP4 PUSH2 0x889E JUMP JUMPDEST SWAP3 POP DUP3 PUSH2 0xAD0B JUMPI PUSH2 0xAD0A PUSH2 0x985B JUMP JUMPDEST JUMPDEST DUP3 DUP3 MOD SWAP1 POP SWAP3 SWAP2 POP POP JUMP JUMPDEST PUSH32 0x4C53000000000000000000000000000000000000000000000000000000000000 PUSH1 0x0 DUP3 ADD MSTORE POP JUMP JUMPDEST PUSH1 0x0 PUSH2 0xAD4C PUSH1 0x2 DUP4 PUSH2 0x970D JUMP JUMPDEST SWAP2 POP PUSH2 0xAD57 DUP3 PUSH2 0xAD16 JUMP JUMPDEST PUSH1 0x20 DUP3 ADD SWAP1 POP SWAP2 SWAP1 POP JUMP JUMPDEST PUSH1 0x0 PUSH1 0x20 DUP3 ADD SWAP1 POP DUP2 DUP2 SUB PUSH1 0x0 DUP4 ADD MSTORE PUSH2 0xAD7B DUP2 PUSH2 0xAD3F JUMP JUMPDEST SWAP1 POP SWAP2 SWAP1 POP JUMP JUMPDEST PUSH32 0x4C41000000000000000000000000000000000000000000000000000000000000 PUSH1 0x0 DUP3 ADD MSTORE POP JUMP JUMPDEST PUSH1 0x0 PUSH2 0xADB8 PUSH1 0x2 DUP4 PUSH2 0x970D JUMP JUMPDEST SWAP2 POP PUSH2 0xADC3 DUP3 PUSH2 0xAD82 JUMP JUMPDEST PUSH1 0x20 DUP3 ADD SWAP1 POP SWAP2 SWAP1 POP JUMP JUMPDEST PUSH1 0x0 PUSH1 0x20 DUP3 ADD SWAP1 POP DUP2 DUP2 SUB PUSH1 0x0 DUP4 ADD MSTORE PUSH2 0xADE7 DUP2 PUSH2 0xADAB JUMP JUMPDEST SWAP1 POP SWAP2 SWAP1 POP JUMP JUMPDEST PUSH32 0x5200000000000000000000000000000000000000000000000000000000000000 PUSH1 0x0 DUP3 ADD MSTORE POP JUMP JUMPDEST PUSH1 0x0 PUSH2 0xAE24 PUSH1 0x1 DUP4 PUSH2 0x970D JUMP JUMPDEST SWAP2 POP PUSH2 0xAE2F DUP3 PUSH2 0xADEE JUMP JUMPDEST PUSH1 0x20 DUP3 ADD SWAP1 POP SWAP2 SWAP1 POP JUMP JUMPDEST PUSH1 0x0 PUSH1 0x20 DUP3 ADD SWAP1 POP DUP2 DUP2 SUB PUSH1 0x0 DUP4 ADD MSTORE PUSH2 0xAE53 DUP2 PUSH2 0xAE17 JUMP JUMPDEST SWAP1 POP SWAP2 SWAP1 POP JUMP JUMPDEST PUSH1 0x0 PUSH2 0xAE65 DUP3 PUSH2 0x94B7 JUMP JUMPDEST SWAP2 POP PUSH2 0xAE70 DUP4 PUSH2 0x94B7 JUMP JUMPDEST SWAP3 POP DUP3 PUSH32 0x7FFFFFFFFFFFFFFFFFFFFFFFFFFFFFFFFFFFFFFFFFFFFFFFFFFFFFFFFFFFFFFF DIV DUP3 GT PUSH1 0x0 DUP5 SGT PUSH1 0x0 DUP5 SGT AND AND ISZERO PUSH2 0xAEAF JUMPI PUSH2 0xAEAE PUSH2 0x978A JUMP JUMPDEST JUMPDEST DUP2 PUSH32 0x8000000000000000000000000000000000000000000000000000000000000000 SDIV DUP4 SLT PUSH1 0x0 DUP5 SLT PUSH1 0x0 DUP5 SGT AND AND ISZERO PUSH2 0xAEEC JUMPI PUSH2 0xAEEB PUSH2 0x978A JUMP JUMPDEST JUMPDEST DUP3 PUSH32 0x8000000000000000000000000000000000000000000000000000000000000000 SDIV DUP3 SLT PUSH1 0x0 DUP5 SGT PUSH1 0x0 DUP5 SLT AND AND ISZERO PUSH2 0xAF29 JUMPI PUSH2 0xAF28 PUSH2 0x978A JUMP JUMPDEST JUMPDEST DUP3 PUSH32 0x7FFFFFFFFFFFFFFFFFFFFFFFFFFFFFFFFFFFFFFFFFFFFFFFFFFFFFFFFFFFFFFF SDIV DUP3 SLT PUSH1 0x0 DUP5 SLT PUSH1 0x0 DUP5 SLT AND AND ISZERO PUSH2 0xAF66 JUMPI PUSH2 0xAF65 PUSH2 0x978A JUMP JUMPDEST JUMPDEST DUP3 DUP3 MUL SWAP1 POP SWAP3 SWAP2 POP POP JUMP JUMPDEST PUSH1 0x0 PUSH2 0xAF7C DUP3 PUSH2 0x9265 JUMP JUMPDEST SWAP2 POP PUSH2 0xAF87 DUP4 PUSH2 0x9265 JUMP JUMPDEST SWAP3 POP DUP3 DUP3 SUB SWAP1 POP PUSH2 0xFFFF DUP2 GT ISZERO PUSH2 0xAFA1 JUMPI PUSH2 0xAFA0 PUSH2 0x978A JUMP JUMPDEST JUMPDEST SWAP3 SWAP2 POP POP JUMP JUMPDEST PUSH1 0x0 PUSH2 0xAFB2 DUP3 PUSH2 0x9265 JUMP JUMPDEST SWAP2 POP PUSH2 0xAFBD DUP4 PUSH2 0x9265 JUMP JUMPDEST SWAP3 POP DUP3 DUP3 ADD SWAP1 POP PUSH2 0xFFFF DUP2 GT ISZERO PUSH2 0xAFD7 JUMPI PUSH2 0xAFD6 PUSH2 0x978A JUMP JUMPDEST JUMPDEST SWAP3 SWAP2 POP POP JUMP JUMPDEST PUSH1 0x0 PUSH2 0xAFE8 DUP3 PUSH2 0x9265 JUMP JUMPDEST SWAP2 POP PUSH2 0xAFF3 DUP4 PUSH2 0x9265 JUMP JUMPDEST SWAP3 POP DUP3 PUSH2 0xB003 JUMPI PUSH2 0xB002 PUSH2 0x985B JUMP JUMPDEST JUMPDEST DUP3 DUP3 MOD SWAP1 POP SWAP3 SWAP2 POP POP JUMP JUMPDEST PUSH1 0x0 PUSH2 0xB019 DUP3 PUSH2 0x9265 JUMP JUMPDEST SWAP2 POP PUSH2 0xFFFF DUP3 SUB PUSH2 0xB02D JUMPI PUSH2 0xB02C PUSH2 0x978A JUMP JUMPDEST JUMPDEST PUSH1 0x1 DUP3 ADD SWAP1 POP SWAP2 SWAP1 POP JUMP JUMPDEST PUSH1 0x0 DUP2 PUSH1 0x3 SIGNEXTEND SWAP1 POP SWAP2 SWAP1 POP JUMP JUMPDEST PUSH1 0x0 PUSH2 0xB050 DUP3 PUSH2 0xB038 JUMP JUMPDEST SWAP2 POP PUSH2 0xB05B DUP4 PUSH2 0xB038 JUMP JUMPDEST SWAP3 POP DUP3 PUSH4 0x7FFFFFFF DIV DUP3 GT PUSH1 0x0 DUP5 SGT PUSH1 0x0 DUP5 SGT AND AND ISZERO PUSH2 0xB07E JUMPI PUSH2 0xB07D PUSH2 0x978A JUMP JUMPDEST JUMPDEST DUP2 PUSH32 0xFFFFFFFFFFFFFFFFFFFFFFFFFFFFFFFFFFFFFFFFFFFFFFFFFFFFFFFF80000000 SDIV DUP4 SLT PUSH1 0x0 DUP5 SLT PUSH1 0x0 DUP5 SGT AND AND ISZERO PUSH2 0xB0BB JUMPI PUSH2 0xB0BA PUSH2 0x978A JUMP JUMPDEST JUMPDEST DUP3 PUSH32 0xFFFFFFFFFFFFFFFFFFFFFFFFFFFFFFFFFFFFFFFFFFFFFFFFFFFFFFFF80000000 SDIV DUP3 SLT PUSH1 0x0 DUP5 SGT PUSH1 0x0 DUP5 SLT AND AND ISZERO PUSH2 0xB0F8 JUMPI PUSH2 0xB0F7 PUSH2 0x978A JUMP JUMPDEST JUMPDEST DUP3 PUSH4 0x7FFFFFFF SDIV DUP3 SLT PUSH1 0x0 DUP5 SLT PUSH1 0x0 DUP5 SLT AND AND ISZERO PUSH2 0xB119 JUMPI PUSH2 0xB118 PUSH2 0x978A JUMP JUMPDEST JUMPDEST DUP3 DUP3 MUL SWAP1 POP SWAP3 SWAP2 POP POP JUMP JUMPDEST PUSH32 0x4F4C440000000000000000000000000000000000000000000000000000000000 PUSH1 0x0 DUP3 ADD MSTORE POP JUMP JUMPDEST PUSH1 0x0 PUSH2 0xB15A PUSH1 0x3 DUP4 PUSH2 0x970D JUMP JUMPDEST SWAP2 POP PUSH2 0xB165 DUP3 PUSH2 0xB124 JUMP JUMPDEST PUSH1 0x20 DUP3 ADD SWAP1 POP SWAP2 SWAP1 POP JUMP JUMPDEST PUSH1 0x0 PUSH1 0x20 DUP3 ADD SWAP1 POP DUP2 DUP2 SUB PUSH1 0x0 DUP4 ADD MSTORE PUSH2 0xB189 DUP2 PUSH2 0xB14D JUMP JUMPDEST SWAP1 POP SWAP2 SWAP1 POP JUMP JUMPDEST PUSH1 0x0 PUSH2 0xB19B DUP3 PUSH2 0x8ED0 JUMP JUMPDEST SWAP2 POP PUSH2 0xB1A6 DUP4 PUSH2 0x8ED0 JUMP JUMPDEST SWAP3 POP DUP3 PUSH2 0xB1B6 JUMPI PUSH2 0xB1B5 PUSH2 0x985B JUMP JUMPDEST JUMPDEST DUP3 DUP3 MOD SWAP1 POP SWAP3 SWAP2 POP POP JUMP JUMPDEST PUSH32 0x53616665436173743A2076616C7565206D75737420626520706F736974697665 PUSH1 0x0 DUP3 ADD MSTORE POP JUMP JUMPDEST PUSH1 0x0 PUSH2 0xB1F7 PUSH1 0x20 DUP4 PUSH2 0x970D JUMP JUMPDEST SWAP2 POP PUSH2 0xB202 DUP3 PUSH2 0xB1C1 JUMP JUMPDEST PUSH1 0x20 DUP3 ADD SWAP1 POP SWAP2 SWAP1 POP JUMP JUMPDEST PUSH1 0x0 PUSH1 0x20 DUP3 ADD SWAP1 POP DUP2 DUP2 SUB PUSH1 0x0 DUP4 ADD MSTORE PUSH2 0xB226 DUP2 PUSH2 0xB1EA JUMP JUMPDEST SWAP1 POP SWAP2 SWAP1 POP JUMP JUMPDEST PUSH32 0x4C4F000000000000000000000000000000000000000000000000000000000000 PUSH1 0x0 DUP3 ADD MSTORE POP JUMP JUMPDEST PUSH1 0x0 PUSH2 0xB263 PUSH1 0x2 DUP4 PUSH2 0x970D JUMP JUMPDEST SWAP2 POP PUSH2 0xB26E DUP3 PUSH2 0xB22D JUMP JUMPDEST PUSH1 0x20 DUP3 ADD SWAP1 POP SWAP2 SWAP1 POP JUMP JUMPDEST PUSH1 0x0 PUSH1 0x20 DUP3 ADD SWAP1 POP DUP2 DUP2 SUB PUSH1 0x0 DUP4 ADD MSTORE PUSH2 0xB292 DUP2 PUSH2 0xB256 JUMP JUMPDEST SWAP1 POP SWAP2 SWAP1 POP JUMP JUMPDEST PUSH32 0x4E50000000000000000000000000000000000000000000000000000000000000 PUSH1 0x0 DUP3 ADD MSTORE POP JUMP JUMPDEST PUSH1 0x0 PUSH2 0xB2CF PUSH1 0x2 DUP4 PUSH2 0x970D JUMP JUMPDEST SWAP2 POP PUSH2 0xB2DA DUP3 PUSH2 0xB299 JUMP JUMPDEST PUSH1 0x20 DUP3 ADD SWAP1 POP SWAP2 SWAP1 POP JUMP JUMPDEST PUSH1 0x0 PUSH1 0x20 DUP3 ADD SWAP1 POP DUP2 DUP2 SUB PUSH1 0x0 DUP4 ADD MSTORE PUSH2 0xB2FE DUP2 PUSH2 0xB2C2 JUMP JUMPDEST SWAP1 POP SWAP2 SWAP1 POP JUMP JUMPDEST PUSH1 0x0 PUSH5 0xFFFFFFFFFF DUP3 AND SWAP1 POP SWAP2 SWAP1 POP JUMP JUMPDEST PUSH1 0x0 PUSH2 0xB321 DUP3 PUSH2 0xB305 JUMP JUMPDEST SWAP2 POP PUSH2 0xB32C DUP4 PUSH2 0xB305 JUMP JUMPDEST SWAP3 POP DUP3 DUP3 ADD SWAP1 POP PUSH5 0xFFFFFFFFFF DUP2 GT ISZERO PUSH2 0xB349 JUMPI PUSH2 0xB348 PUSH2 0x978A JUMP JUMPDEST JUMPDEST SWAP3 SWAP2 POP POP JUMP INVALID LOG2 PUSH5 0x6970667358 0x22 SLT KECCAK256 BASEFEE 0xBB 0x5C 0xBE 0xC9 BALANCE JUMPDEST 0xFB ADDRESS 0x4B ADDRESS PUSH10 0x3DA2ECB23B1DC34CFBE2 0xFB 0xF 0xBE PUSH7 0x6BE99E92BED364 PUSH20 0x6F6C634300081000330000000000000000000000 "
		},
		"gasEstimates": {
			"creation": {
				"codeDepositCost": "9191400",
				"executionCost": "infinite",
				"totalCost": "infinite"
			},
			"external": {
				"burn(int24,int24,uint128)": "infinite",
				"coin()": "infinite",
				"collect(address,int24,int24,uint128)": "infinite",
				"collectProtocol()": "infinite",
				"flash(address,address,uint256,uint256,bytes)": "infinite",
				"gatelock()": "2654",
				"gater()": "2605",
				"increaseLookerCardinalityNext(uint16)": "infinite",
				"initialize(uint160)": "infinite",
				"investion()": "2560",
				"lockShopbyGetor()": "26720",
				"lockShopbyMarketor()": "infinite",
				"market()": "infinite",
				"marketlock()": "2587",
				"maxInvestionPerUnit()": "2588",
				"mint(address,int24,int24,uint128,bytes)": "infinite",
				"observe(uint32[])": "infinite",
				"priceLogers(uint256)": "9771",
				"profit()": "infinite",
				"profitGrowthGlobalCoinX128()": "2476",
				"profitshares()": "infinite",
				"proofs(bytes32)": "infinite",
				"protocolProfits()": "infinite",
				"scope()": "2654",
				"setShopFeeProfitSharesbyMarketor(uint8,uint8,uint8,uint8)": "infinite",
				"setShopFeeProtocolbyMarketor(uint8,uint8)": "infinite",
				"shopfee(address)": "infinite",
				"snapshotCumulativesInside(int24,int24)": "infinite",
				"state0()": "infinite",
				"swap(address,address,bool,int256,uint160,bytes)": "infinite",
				"thing()": "infinite",
				"unitBitmap(int16)": "2863",
				"unitSpacing()": "2583",
				"units(int24)": "16631",
				"unlockShopbyGetor()": "26742",
				"unlockShopbyMarketor()": "infinite"
			},
			"internal": {
				"_blockTimestamp()": "22",
				"_modifyproof(struct TTSwapV1Shop.ModifyProofParams memory)": "infinite",
				"_updateproof(address,int24,int24,int128,int24)": "infinite",
				"checkUnits(int24,int24)": "infinite",
				"coinbalance()": "infinite",
				"thingbalance()": "infinite"
			}
		},
		"methodIdentifiers": {
			"burn(int24,int24,uint128)": "a34123a7",
			"coin()": "11df9995",
			"collect(address,int24,int24,uint128)": "30d106b1",
			"collectProtocol()": "95f01f3f",
			"flash(address,address,uint256,uint256,bytes)": "8cc2ce60",
			"gatelock()": "92cc393c",
			"gater()": "166d6021",
			"increaseLookerCardinalityNext(uint16)": "b23ae19b",
			"initialize(uint160)": "f637731d",
			"investion()": "6a0b2b23",
			"lockShopbyGetor()": "8f919198",
			"lockShopbyMarketor()": "208537ff",
			"market()": "80f55605",
			"marketlock()": "b1592590",
			"maxInvestionPerUnit()": "8d79ddcb",
			"mint(address,int24,int24,uint128,bytes)": "3c8a7d8d",
			"observe(uint32[])": "883bdbfd",
			"priceLogers(uint256)": "2ad1baab",
			"profit()": "66d16cc3",
			"profitGrowthGlobalCoinX128()": "01b29351",
			"profitshares()": "afb62fef",
			"proofs(bytes32)": "444d95b0",
			"protocolProfits()": "3659bb4e",
			"scope()": "6e62d0a8",
			"setShopFeeProfitSharesbyMarketor(uint8,uint8,uint8,uint8)": "6805dede",
			"setShopFeeProtocolbyMarketor(uint8,uint8)": "3c78bf59",
			"shopfee(address)": "1f0f4c29",
			"snapshotCumulativesInside(int24,int24)": "a38807f2",
			"state0()": "8b2ea554",
			"swap(address,address,bool,int256,uint160,bytes)": "a98b22c1",
			"thing()": "c55e90fe",
			"unitBitmap(int16)": "8860d1cd",
			"unitSpacing()": "92c4545c",
			"units(int24)": "317dfb06",
			"unlockShopbyGetor()": "6aca362d",
			"unlockShopbyMarketor()": "3d02a292"
		}
	},
	"abi": [
		{
			"inputs": [],
			"stateMutability": "nonpayable",
			"type": "constructor"
		},
		{
			"anonymous": false,
			"inputs": [
				{
					"indexed": true,
					"internalType": "address",
					"name": "owner",
					"type": "address"
				},
				{
					"indexed": true,
					"internalType": "int24",
					"name": "tickLower",
					"type": "int24"
				},
				{
					"indexed": true,
					"internalType": "int24",
					"name": "tickUpper",
					"type": "int24"
				},
				{
					"indexed": false,
					"internalType": "uint128",
					"name": "amount",
					"type": "uint128"
				},
				{
					"indexed": false,
					"internalType": "uint256",
					"name": "amount0",
					"type": "uint256"
				},
				{
					"indexed": false,
					"internalType": "uint256",
					"name": "amount1",
					"type": "uint256"
				}
			],
			"name": "Burn",
			"type": "event"
		},
		{
			"anonymous": false,
			"inputs": [
				{
					"indexed": true,
					"internalType": "address",
					"name": "owner",
					"type": "address"
				},
				{
					"indexed": false,
					"internalType": "address",
					"name": "recipient",
					"type": "address"
				},
				{
					"indexed": true,
					"internalType": "int24",
					"name": "tickLower",
					"type": "int24"
				},
				{
					"indexed": true,
					"internalType": "int24",
					"name": "tickUpper",
					"type": "int24"
				},
				{
					"indexed": false,
					"internalType": "uint128",
					"name": "amount0",
					"type": "uint128"
				}
			],
			"name": "Collect",
			"type": "event"
		},
		{
			"anonymous": false,
			"inputs": [
				{
					"indexed": true,
					"internalType": "address",
					"name": "sender",
					"type": "address"
				},
				{
					"indexed": true,
					"internalType": "address",
					"name": "recipient",
					"type": "address"
				},
				{
					"indexed": false,
					"internalType": "uint128",
					"name": "amount0",
					"type": "uint128"
				}
			],
			"name": "CollectProtocol",
			"type": "event"
		},
		{
			"anonymous": false,
			"inputs": [
				{
					"indexed": true,
					"internalType": "address",
					"name": "sender",
					"type": "address"
				},
				{
					"indexed": true,
					"internalType": "address",
					"name": "recipient",
					"type": "address"
				},
				{
					"indexed": false,
					"internalType": "uint256",
					"name": "amount0",
					"type": "uint256"
				},
				{
					"indexed": false,
					"internalType": "uint256",
					"name": "amount1",
					"type": "uint256"
				},
				{
					"indexed": false,
					"internalType": "uint256",
					"name": "paid0",
					"type": "uint256"
				},
				{
					"indexed": false,
					"internalType": "uint256",
					"name": "paid1",
					"type": "uint256"
				}
			],
			"name": "Flash",
			"type": "event"
		},
		{
			"anonymous": false,
			"inputs": [
				{
					"indexed": false,
					"internalType": "uint16",
					"name": "observationCardinalityNextOld",
					"type": "uint16"
				},
				{
					"indexed": false,
					"internalType": "uint16",
					"name": "observationCardinalityNextNew",
					"type": "uint16"
				}
			],
			"name": "IncreaseObservationCardinalityNext",
			"type": "event"
		},
		{
			"anonymous": false,
			"inputs": [
				{
					"indexed": false,
					"internalType": "uint160",
					"name": "sqrtPriceX96",
					"type": "uint160"
				},
				{
					"indexed": false,
					"internalType": "int24",
					"name": "tick",
					"type": "int24"
				}
			],
			"name": "Initialize",
			"type": "event"
		},
		{
			"anonymous": false,
			"inputs": [
				{
					"indexed": false,
					"internalType": "address",
					"name": "sender",
					"type": "address"
				},
				{
					"indexed": true,
					"internalType": "address",
					"name": "owner",
					"type": "address"
				},
				{
					"indexed": true,
					"internalType": "int24",
					"name": "tickLower",
					"type": "int24"
				},
				{
					"indexed": true,
					"internalType": "int24",
					"name": "tickUpper",
					"type": "int24"
				},
				{
					"indexed": false,
					"internalType": "uint128",
					"name": "amount",
					"type": "uint128"
				},
				{
					"indexed": false,
					"internalType": "uint256",
					"name": "amount0",
					"type": "uint256"
				},
				{
					"indexed": false,
					"internalType": "uint256",
					"name": "amount1",
					"type": "uint256"
				}
			],
			"name": "Mint",
			"type": "event"
		},
		{
			"anonymous": false,
			"inputs": [
				{
					"indexed": false,
					"internalType": "uint8",
					"name": "feeProtocol0Old",
					"type": "uint8"
				},
				{
					"indexed": false,
					"internalType": "uint8",
					"name": "feeProtocol1Old",
					"type": "uint8"
				},
				{
					"indexed": false,
					"internalType": "uint8",
					"name": "feeProtocol0New",
					"type": "uint8"
				},
				{
					"indexed": false,
					"internalType": "uint8",
					"name": "feeProtocol1New",
					"type": "uint8"
				}
			],
			"name": "SetFeeProtocol",
			"type": "event"
		},
		{
			"anonymous": false,
			"inputs": [
				{
					"indexed": true,
					"internalType": "address",
					"name": "sender",
					"type": "address"
				},
				{
					"indexed": true,
					"internalType": "address",
					"name": "recipient",
					"type": "address"
				},
				{
					"indexed": false,
					"internalType": "int256",
					"name": "amount0",
					"type": "int256"
				},
				{
					"indexed": false,
					"internalType": "int256",
					"name": "amount1",
					"type": "int256"
				},
				{
					"indexed": false,
					"internalType": "uint160",
					"name": "sqrtPriceX96",
					"type": "uint160"
				},
				{
					"indexed": false,
					"internalType": "uint128",
					"name": "liquidity",
					"type": "uint128"
				},
				{
					"indexed": false,
					"internalType": "int24",
					"name": "tick",
					"type": "int24"
				}
			],
			"name": "Swap",
			"type": "event"
		},
		{
			"inputs": [
				{
					"internalType": "int24",
					"name": "_unitLower",
					"type": "int24"
				},
				{
					"internalType": "int24",
					"name": "_unitUpper",
					"type": "int24"
				},
				{
					"internalType": "uint128",
					"name": "amount",
					"type": "uint128"
				}
			],
			"name": "burn",
			"outputs": [
				{
					"internalType": "uint256",
					"name": "amount0",
					"type": "uint256"
				},
				{
					"internalType": "uint256",
					"name": "amount1",
					"type": "uint256"
				}
			],
			"stateMutability": "nonpayable",
			"type": "function"
		},
		{
			"inputs": [],
			"name": "coin",
			"outputs": [
				{
					"internalType": "address",
					"name": "",
					"type": "address"
				}
			],
			"stateMutability": "view",
			"type": "function"
		},
		{
			"inputs": [
				{
					"internalType": "address",
					"name": "recipient",
					"type": "address"
				},
				{
					"internalType": "int24",
					"name": "_unitLower",
					"type": "int24"
				},
				{
					"internalType": "int24",
					"name": "_unitUpper",
					"type": "int24"
				},
				{
					"internalType": "uint128",
					"name": "amount0Requested",
					"type": "uint128"
				}
			],
			"name": "collect",
			"outputs": [
				{
					"internalType": "uint128",
					"name": "amount0",
					"type": "uint128"
				}
			],
			"stateMutability": "nonpayable",
			"type": "function"
		},
		{
			"inputs": [],
			"name": "collectProtocol",
			"outputs": [
				{
					"internalType": "uint128",
					"name": "coinamount",
					"type": "uint128"
				}
			],
			"stateMutability": "nonpayable",
			"type": "function"
		},
		{
			"inputs": [
				{
					"internalType": "address",
					"name": "recipient",
					"type": "address"
				},
				{
					"internalType": "address",
					"name": "_gateraddress",
					"type": "address"
				},
				{
					"internalType": "uint256",
					"name": "amount0",
					"type": "uint256"
				},
				{
					"internalType": "uint256",
					"name": "amount1",
					"type": "uint256"
				},
				{
					"internalType": "bytes",
					"name": "data",
					"type": "bytes"
				}
			],
			"name": "flash",
			"outputs": [],
			"stateMutability": "nonpayable",
			"type": "function"
		},
		{
			"inputs": [],
			"name": "gatelock",
			"outputs": [
				{
					"internalType": "bool",
					"name": "",
					"type": "bool"
				}
			],
			"stateMutability": "view",
			"type": "function"
		},
		{
			"inputs": [],
			"name": "gater",
			"outputs": [
				{
					"internalType": "address",
					"name": "",
					"type": "address"
				}
			],
			"stateMutability": "view",
			"type": "function"
		},
		{
			"inputs": [
				{
					"internalType": "uint16",
					"name": "lookerCardinalityNext",
					"type": "uint16"
				}
			],
			"name": "increaseLookerCardinalityNext",
			"outputs": [],
			"stateMutability": "nonpayable",
			"type": "function"
		},
		{
			"inputs": [
				{
					"internalType": "uint160",
					"name": "sqrtPriceX96",
					"type": "uint160"
				}
			],
			"name": "initialize",
			"outputs": [],
			"stateMutability": "nonpayable",
			"type": "function"
		},
		{
			"inputs": [],
			"name": "investion",
			"outputs": [
				{
					"internalType": "uint128",
					"name": "",
					"type": "uint128"
				}
			],
			"stateMutability": "view",
			"type": "function"
		},
		{
			"inputs": [],
			"name": "lockShopbyGetor",
			"outputs": [],
			"stateMutability": "nonpayable",
			"type": "function"
		},
		{
			"inputs": [],
			"name": "lockShopbyMarketor",
			"outputs": [],
			"stateMutability": "nonpayable",
			"type": "function"
		},
		{
			"inputs": [],
			"name": "market",
			"outputs": [
				{
					"internalType": "address",
					"name": "",
					"type": "address"
				}
			],
			"stateMutability": "view",
			"type": "function"
		},
		{
			"inputs": [],
			"name": "marketlock",
			"outputs": [
				{
					"internalType": "bool",
					"name": "",
					"type": "bool"
				}
			],
			"stateMutability": "view",
			"type": "function"
		},
		{
			"inputs": [],
			"name": "maxInvestionPerUnit",
			"outputs": [
				{
					"internalType": "uint128",
					"name": "",
					"type": "uint128"
				}
			],
			"stateMutability": "view",
			"type": "function"
		},
		{
			"inputs": [
				{
					"internalType": "address",
					"name": "recipient",
					"type": "address"
				},
				{
					"internalType": "int24",
					"name": "_unitLower",
					"type": "int24"
				},
				{
					"internalType": "int24",
					"name": "_unitUpper",
					"type": "int24"
				},
				{
					"internalType": "uint128",
					"name": "amount",
					"type": "uint128"
				},
				{
					"internalType": "bytes",
					"name": "data",
					"type": "bytes"
				}
			],
			"name": "mint",
			"outputs": [
				{
					"internalType": "uint256",
					"name": "coinamount",
					"type": "uint256"
				},
				{
					"internalType": "uint256",
					"name": "thingamount",
					"type": "uint256"
				}
			],
			"stateMutability": "nonpayable",
			"type": "function"
		},
		{
			"inputs": [
				{
					"internalType": "uint32[]",
					"name": "secondsAgos",
					"type": "uint32[]"
				}
			],
			"name": "observe",
			"outputs": [
				{
					"internalType": "int56[]",
					"name": "unitCumulatives",
					"type": "int56[]"
				},
				{
					"internalType": "uint160[]",
					"name": "secondsPerinvestionCumulativeX128s",
					"type": "uint160[]"
				}
			],
			"stateMutability": "view",
			"type": "function"
		},
		{
			"inputs": [
				{
					"internalType": "uint256",
					"name": "",
					"type": "uint256"
				}
			],
			"name": "priceLogers",
			"outputs": [
				{
					"internalType": "uint32",
					"name": "blockTimestamp",
					"type": "uint32"
				},
				{
					"internalType": "int56",
					"name": "unitCumulative",
					"type": "int56"
				},
				{
					"internalType": "uint160",
					"name": "secondsPerInvestionCumulativeX128",
					"type": "uint160"
				},
				{
					"internalType": "bool",
					"name": "initialized",
					"type": "bool"
				}
			],
			"stateMutability": "view",
			"type": "function"
		},
		{
			"inputs": [],
			"name": "profit",
			"outputs": [
				{
					"internalType": "uint24",
					"name": "",
					"type": "uint24"
				}
			],
			"stateMutability": "view",
			"type": "function"
		},
		{
			"inputs": [],
			"name": "profitGrowthGlobalCoinX128",
			"outputs": [
				{
					"internalType": "uint256",
					"name": "",
					"type": "uint256"
				}
			],
			"stateMutability": "view",
			"type": "function"
		},
		{
			"inputs": [],
			"name": "profitshares",
			"outputs": [
				{
					"internalType": "uint8",
					"name": "marketshare",
					"type": "uint8"
				},
				{
					"internalType": "uint8",
					"name": "gatorshare",
					"type": "uint8"
				},
				{
					"internalType": "uint8",
					"name": "commandershare",
					"type": "uint8"
				},
				{
					"internalType": "uint8",
					"name": "usershare",
					"type": "uint8"
				}
			],
			"stateMutability": "view",
			"type": "function"
		},
		{
			"inputs": [
				{
					"internalType": "bytes32",
					"name": "",
					"type": "bytes32"
				}
			],
			"name": "proofs",
			"outputs": [
				{
					"internalType": "uint128",
					"name": "liquidity",
					"type": "uint128"
				},
				{
					"internalType": "uint256",
					"name": "coinFeeGrowthInsideLastX128",
					"type": "uint256"
				},
				{
					"internalType": "uint128",
					"name": "tokensOwed0",
					"type": "uint128"
				},
				{
					"internalType": "uint128",
					"name": "tokensOwed1",
					"type": "uint128"
				}
			],
			"stateMutability": "view",
			"type": "function"
		},
		{
			"inputs": [],
			"name": "protocolProfits",
			"outputs": [
				{
					"internalType": "uint128",
					"name": "coin",
					"type": "uint128"
				},
				{
					"internalType": "uint128",
					"name": "thing",
					"type": "uint128"
				}
			],
			"stateMutability": "view",
			"type": "function"
		},
		{
			"inputs": [],
			"name": "scope",
			"outputs": [
				{
					"internalType": "uint8",
					"name": "",
					"type": "uint8"
				}
			],
			"stateMutability": "view",
			"type": "function"
		},
		{
			"inputs": [
				{
					"internalType": "uint8",
					"name": "_marketshare",
					"type": "uint8"
				},
				{
					"internalType": "uint8",
					"name": "_gatershare",
					"type": "uint8"
				},
				{
					"internalType": "uint8",
					"name": "_commandershare",
					"type": "uint8"
				},
				{
					"internalType": "uint8",
					"name": "_usershare",
					"type": "uint8"
				}
			],
			"name": "setShopFeeProfitSharesbyMarketor",
			"outputs": [],
			"stateMutability": "nonpayable",
			"type": "function"
		},
		{
			"inputs": [
				{
					"internalType": "uint8",
					"name": "profitProtocol0",
					"type": "uint8"
				},
				{
					"internalType": "uint8",
					"name": "profitProtocol1",
					"type": "uint8"
				}
			],
			"name": "setShopFeeProtocolbyMarketor",
			"outputs": [],
			"stateMutability": "nonpayable",
			"type": "function"
		},
		{
			"inputs": [
				{
					"internalType": "address",
					"name": "",
					"type": "address"
				}
			],
			"name": "shopfee",
			"outputs": [
				{
					"internalType": "uint128",
					"name": "coin",
					"type": "uint128"
				},
				{
					"internalType": "uint128",
					"name": "thing",
					"type": "uint128"
				}
			],
			"stateMutability": "view",
			"type": "function"
		},
		{
			"inputs": [
				{
					"internalType": "int24",
					"name": "_unitLower",
					"type": "int24"
				},
				{
					"internalType": "int24",
					"name": "_unitUpper",
					"type": "int24"
				}
			],
			"name": "snapshotCumulativesInside",
			"outputs": [
				{
					"internalType": "int56",
					"name": "unitCumulativeInside",
					"type": "int56"
				},
				{
					"internalType": "uint160",
					"name": "secondsPerinvestionInsideX128",
					"type": "uint160"
				},
				{
					"internalType": "uint32",
					"name": "secondsInside",
					"type": "uint32"
				}
			],
			"stateMutability": "view",
			"type": "function"
		},
		{
			"inputs": [],
			"name": "state0",
			"outputs": [
				{
					"internalType": "uint160",
					"name": "sqrtPriceX96",
					"type": "uint160"
				},
				{
					"internalType": "int24",
					"name": "unit",
					"type": "int24"
				},
				{
					"internalType": "uint16",
					"name": "lookerIndex",
					"type": "uint16"
				},
				{
					"internalType": "uint16",
					"name": "lookerCardinality",
					"type": "uint16"
				},
				{
					"internalType": "uint16",
					"name": "lookerCardinalityNext",
					"type": "uint16"
				},
				{
					"internalType": "uint8",
					"name": "profitProtocol",
					"type": "uint8"
				},
				{
					"internalType": "bool",
					"name": "unlocked",
					"type": "bool"
				}
			],
			"stateMutability": "view",
			"type": "function"
		},
		{
			"inputs": [
				{
					"internalType": "address",
					"name": "recipient",
					"type": "address"
				},
				{
					"internalType": "address",
					"name": "_gateraddress",
					"type": "address"
				},
				{
					"internalType": "bool",
					"name": "zeroForOne",
					"type": "bool"
				},
				{
					"internalType": "int256",
					"name": "amountSpecified",
					"type": "int256"
				},
				{
					"internalType": "uint160",
					"name": "sqrtPriceLimitX96",
					"type": "uint160"
				},
				{
					"internalType": "bytes",
					"name": "data",
					"type": "bytes"
				}
			],
			"name": "swap",
			"outputs": [
				{
					"internalType": "int256",
					"name": "amount0",
					"type": "int256"
				},
				{
					"internalType": "int256",
					"name": "amount1",
					"type": "int256"
				}
			],
			"stateMutability": "nonpayable",
			"type": "function"
		},
		{
			"inputs": [],
			"name": "thing",
			"outputs": [
				{
					"internalType": "address",
					"name": "",
					"type": "address"
				}
			],
			"stateMutability": "view",
			"type": "function"
		},
		{
			"inputs": [
				{
					"internalType": "int16",
					"name": "",
					"type": "int16"
				}
			],
			"name": "unitBitmap",
			"outputs": [
				{
					"internalType": "uint256",
					"name": "",
					"type": "uint256"
				}
			],
			"stateMutability": "view",
			"type": "function"
		},
		{
			"inputs": [],
			"name": "unitSpacing",
			"outputs": [
				{
					"internalType": "int24",
					"name": "",
					"type": "int24"
				}
			],
			"stateMutability": "view",
			"type": "function"
		},
		{
			"inputs": [
				{
					"internalType": "int24",
					"name": "",
					"type": "int24"
				}
			],
			"name": "units",
			"outputs": [
				{
					"internalType": "uint128",
					"name": "InvestGross",
					"type": "uint128"
				},
				{
					"internalType": "int128",
					"name": "InvestNet",
					"type": "int128"
				},
				{
					"internalType": "uint256",
					"name": "coinFeeGrowthOutsideX128",
					"type": "uint256"
				},
				{
					"internalType": "int56",
					"name": "unitCumulativeOutside",
					"type": "int56"
				},
				{
					"internalType": "uint160",
					"name": "secondsPerLiquidityOutsideX128",
					"type": "uint160"
				},
				{
					"internalType": "uint32",
					"name": "secondsOutside",
					"type": "uint32"
				},
				{
					"internalType": "bool",
					"name": "initialized",
					"type": "bool"
				}
			],
			"stateMutability": "view",
			"type": "function"
		},
		{
			"inputs": [],
			"name": "unlockShopbyGetor",
			"outputs": [],
			"stateMutability": "nonpayable",
			"type": "function"
		},
		{
			"inputs": [],
			"name": "unlockShopbyMarketor",
			"outputs": [],
			"stateMutability": "nonpayable",
			"type": "function"
		}
	]
}