{
	"data": {
		"bytecode": {
			"linkReferences": {},
			"object": "60806040523480156200001157600080fd5b5060405162001da238038062001da2833981016040819052620000349162000096565b600480546001600160a01b039384166001600160a01b03199182161790915560058054929093169116179055600380546001600160801b0319166001179055620000ce565b80516001600160a01b03811681146200009157600080fd5b919050565b60008060408385031215620000aa57600080fd5b620000b58362000079565b9150620000c56020840162000079565b90509250929050565b611cc480620000de6000396000f3fe608060405234801561001057600080fd5b50600436106101a95760003560e01c80637e0364ef116100f9578063b4c4b9ac11610097578063dd34846011610071578063dd3484601461085c578063e174407d1461086d578063f1c9f40f14610880578063fa42fcaf1461088857600080fd5b8063b4c4b9ac14610818578063b614984d14610836578063cdf8cd6a1461084957600080fd5b806384d6dc5b116100d357806384d6dc5b1461059157806387d46ac2146106895780638ab5b5341461072a578063a47860881461080557600080fd5b80637e0364ef1461041f5780637fb884d81461043257806382dfbd201461056857600080fd5b806354a460f6116101665780636271b6e3116101405780636271b6e3146103595780636456500a1461036c57806376941300146103dd57806377f3404f146103f057600080fd5b806354a460f61461030c5780635f8795d91461033357806360772dc91461034657600080fd5b806327cbaabe146101ae5780632a533da8146101de5780633bbae1411461022857806341e4f69e1461023257806345df498714610245578063492b7107146102f9575b600080fd5b6005546101c1906001600160a01b031681565b6040516001600160a01b0390911681526020015b60405180910390f35b6102106101ec366004611885565b6001600160a01b03166000908152602081905260409020546001600160801b031690565b6040516001600160801b0390911681526020016101d5565b61023061089b565b005b61023061024036600461192f565b61098d565b6102ac610253366004611885565b600060208190529081526040902080546001820154600283015460038401546004909401546001600160801b03909316936001600160a01b039092169290919060ff808216916101008104821691620100009091041687565b604080516001600160801b0390981688526001600160a01b03909616602088015294860193909352606085019190915215156080840152151560a0830152151560c082015260e0016101d5565b6004546101c1906001600160a01b031681565b3360009081526020819052604090206004015460ff165b60405190151581526020016101d5565b610230610341366004611a33565b610a4b565b600354610210906001600160801b031681565b610230610367366004611a33565b610c4b565b6103b061037a366004611885565b60016020819052600091825260409091208054918101546002820154600383015460048401546005909401549293919290919086565b604080519687526020870195909552938501929092526060840152608083015260a082015260c0016101d5565b6102306103eb366004611885565b610e7b565b6103236103fe366004611885565b6001600160a01b031660009081526020819052604090206004015460ff1690565b61023061042d366004611a4f565b610fa4565b6104ff610440366004611885565b6040805160e081018252600080825260208201819052918101829052606081018290526080810182905260a0810182905260c0810191909152506001600160a01b0390811660009081526020818152604091829020825160e08101845281546001600160801b03168152600182015490941691840191909152600281015491830191909152600381015460608301526004015460ff8082161515608084015261010082048116151560a08401526201000090910416151560c082015290565b6040516101d5919081516001600160801b031681526020808301516001600160a01b031690820152604080830151908201526060808301519082015260808083015115159082015260a08083015115159082015260c09182015115159181019190915260e00190565b6101c1610576366004611a82565b6002602052600090815260409020546001600160a01b031681565b61063d61059f366004611a9d565b6040805160c081018252600080825260208201819052918101829052606081018290526080810182905260a08101919091525060ff166000908152600260208181526040808420546001600160a01b03168452600180835293819020815160c081018352815481529481015492850192909252918101549183019190915260038101546060830152600481015460808301526005015460a082015290565b6040516101d59190600060c082019050825182526020830151602083015260408301516040830152606083015160608301526080830151608083015260a083015160a083015292915050565b61063d610697366004611885565b6040805160c081018252600080825260208201819052918101829052606081018290526080810182905260a0810191909152506001600160a01b0316600090815260016020818152604092839020835160c081018552815481529281015491830191909152600281015492820192909252600382015460608201526004820154608082015260059091015460a082015290565b6104ff610738366004611a9d565b6040805160e081018252600080825260208201819052918101829052606081018290526080810182905260a0810182905260c08101919091525060ff9081166000908152600260208181526040808420546001600160a01b03908116855284835293819020815160e08101835281546001600160801b03168152600182015490951692850192909252918101549183019190915260038101546060830152600401548083161515608083015261010081048316151560a0830152620100009004909116151560c082015290565b610230610813366004611885565b61103c565b336000908152602081905260409020546001600160801b0316610210565b610230610844366004611885565b611162565b610230610857366004611ac0565b6112ba565b6003546001600160801b0316610210565b61023061087b366004611ac0565b6115b1565b610230611702565b610230610896366004611aed565b6117e9565b3360009081526020819052604090206004015460ff1615156001146108db5760405162461bcd60e51b81526004016108d290611b06565b60405180910390fd5b3360009081526020819052604090206004015462010000900460ff16151560011480156109215750336000818152602081905260409020600101546001600160a01b0316145b61093d5760405162461bcd60e51b81526004016108d290611b3d565b3360008181526020818152604091829020600401805461ff001916905590519182527fe5774dc76216b6570b210f3cb5fed8d6d443aadc204e69b02436c40bae70db3491015b60405180910390a1565b3360009081526020819052604090206004015462010000900460ff1615156001146109ca5760405162461bcd60e51b81526004016108d290611b6c565b33600081815260016020818152604092839020855181558582015192810192909255848301516002830155606085015160038301556080850151600483015560a085015160059092019190915590519182527f4e95876aed3686e10386994ee3a3c7244ca827cce033aa00d635d75cf66b67a691015b60405180910390a150565b6004805460405163038c332960e51b815233928101929092526001600160a01b031690637186652090602401602060405180830381865afa158015610a94573d6000803e3d6000fd5b505050506040513d601f19601f82011682018060405250810190610ab89190611b9c565b610ad45760405162461bcd60e51b81526004016108d290611bb9565b6020818101516001600160a01b0316600090815290819052604090206004015462010000900460ff161515600114610b1e5760405162461bcd60e51b81526004016108d290611c00565b602081810180516001600160a01b039081166000908152808452604080822060049081015460ff90811615156080890190815286518616855284885283852083015461010090819004909216151560a08a0190815287518716865285895294849020895181546001600160801b0319166001600160801b0390911617815596516001880180546001600160a01b0319169190971690811790965583890151600288018190556060808b015160038a01559151979093018054955160c08b015161ffff1990971698151561ff001916989098179715159092029690961762ff0000191662010000941515949094029390931790925580519283529382015233928101929092527f092f4992dcea83c02fd5fa1285d7b968bb591b5205de52649ca84c1219e588aa9101610a40565b6020818101516001600160a01b0316600090815290819052604090206004015462010000900460ff161515600103610c955760405162461bcd60e51b81526004016108d290611c00565b60208101516001600160a01b03163314610cc15760405162461bcd60e51b81526004016108d290611c2e565b60006080820181905260a08201526003546001600160801b0316808252426060830152600160c08301819052610cf8908290611c59565b6001600160801b031611610d1e5760405162461bcd60e51b81526004016108d290611c2e565b602080820180516001600160a01b0390811660009081528084526040808220865181546001600160801b039182166001600160801b0319909116178255945160018083018054929096166001600160a01b031992831681179096558389015160028085019190915560608a015160038086019190915560808b01516004909501805460a08d015160c08e01511515620100000262ff0000199115156101000261ff00199915159990991661ffff199093169290921797909717969096169590951790945583548816865290975291832080549092169093179055815491929091610e0a91859116611c59565b92506101000a8154816001600160801b0302191690836001600160801b031602179055507f8e4f50cdb8a5d94375966fd0a1d5d22cdc67f404e8efe452d1f840ddffd6778f81602001518260400151604051610a409291906001600160a01b03929092168252602082015260400190565b6004805460405163038c332960e51b815233928101929092526001600160a01b031690637186652090602401602060405180830381865afa158015610ec4573d6000803e3d6000fd5b505050506040513d601f19601f82011682018060405250810190610ee89190611b9c565b610f045760405162461bcd60e51b81526004016108d290611bb9565b6001600160a01b03811660009081526020819052604090206004015462010000900460ff161515600114610f4a5760405162461bcd60e51b81526004016108d290611b3d565b6001600160a01b03811660008181526020818152604091829020600401805460ff19166001179055815192835233908301527f4353413b15cd3738c15f5943344e98f0982686884f71f3d2a639891b7ed281b79101610a40565b6005546001600160a01b0316331461100e5760405162461bcd60e51b815260206004820152602760248201527f7468652063616c6c6572206d7573742062652076616c6964206d61726b65742060448201526631b932b0ba37b960c91b60648201526084016108d2565b600480546001600160a01b039384166001600160a01b03199182161790915560058054929093169116179055565b6004805460405163038c332960e51b815233928101929092526001600160a01b031690637186652090602401602060405180830381865afa158015611085573d6000803e3d6000fd5b505050506040513d601f19601f820116820180604052508101906110a99190611b9c565b6110c55760405162461bcd60e51b81526004016108d290611bb9565b6001600160a01b03811660009081526020819052604090206004015462010000900460ff16151560011461110b5760405162461bcd60e51b81526004016108d290611b3d565b6001600160a01b03811660008181526020818152604091829020600401805460ff19169055815192835233908301527f54ca41dd8de3ebb98f98a5f6fb0390d8f2c691921355f6657ae3b2f5b56a881b9101610a40565b6004805460405163038c332960e51b815233928101929092526001600160a01b031690637186652090602401602060405180830381865afa1580156111ab573d6000803e3d6000fd5b505050506040513d601f19601f820116820180604052508101906111cf9190611b9c565b6111eb5760405162461bcd60e51b81526004016108d290611bb9565b6001600160a01b03811660009081526020819052604090206004015462010000900460ff1615156001146112315760405162461bcd60e51b81526004016108d290611c00565b6001600160a01b03811660008181526020818152604080832080546001600160801b03191681556001810180546001600160a01b03191690556002810184905560038101939093556004909201805462ffffff19169055815192835233908301527fa36348788e76a7600444ed49ae6c1099ab91d47dfb810828281289ef9cfc2e519101610a40565b6020828101516001600160a01b0316600090815290819052604090206004015462010000900460ff1615156001036113045760405162461bcd60e51b81526004016108d290611c00565b60208201516001600160a01b031633146113305760405162461bcd60e51b81526004016108d290611c2e565b60006080830181905260a08301526003546001600160801b0316808352426060840152600160c08401819052611367908290611c59565b6001600160801b03161161138d5760405162461bcd60e51b81526004016108d290611c2e565b602080830180516001600160a01b0390811660009081528084526040808220875181546001600160801b039182166001600160801b0319909116178255945160018083018054929096166001600160a01b03199283168117909655838a015160028085019190915560608b015160038086019190915560808c01516004909501805460a08e015160c08f01511515620100000262ff0000199115156101000261ff00199915159990991661ffff19909316929092179790971796909616959095179094558354881686529097529183208054909216909317905581549192909161147991859116611c59565b92506101000a8154816001600160801b0302191690836001600160801b031602179055507f8e4f50cdb8a5d94375966fd0a1d5d22cdc67f404e8efe452d1f840ddffd6778f826020015183604001516040516114ea9291906001600160a01b03929092168252602082015260400190565b60405180910390a13360009081526020819052604090206004015462010000900460ff16151560011461152f5760405162461bcd60e51b81526004016108d290611b6c565b33600081815260016020818152604092839020855181558582015192810192909255848301516002830155606085015160038301556080850151600483015560a085015160059092019190915590519182527f4e95876aed3686e10386994ee3a3c7244ca827cce033aa00d635d75cf66b67a691015b60405180910390a15050565b6020828101516001600160a01b0316600090815290819052604090206004015462010000900460ff1615156001146115fb5760405162461bcd60e51b81526004016108d290611b6c565b60208201516001600160a01b031633146116275760405162461bcd60e51b81526004016108d290611c2e565b604082810180513360009081526020818152908490206002019190915580850151915183516001600160a01b039093168352908201527f3f21f38bf290b71184eb1b83e412a62777e3e7f35b3a042fd86951e4246ddeb1910160405180910390a133600081815260016020818152604092839020855181558582015192810192909255848301516002830155606085015160038301556080850151600483015560a085015160059092019190915590519182527f044de1e40e2e2cc4f56f9346a9007c99691975de61523b34f598178d4e78774091016115a5565b3360009081526020819052604090206004015460ff1615156001146117395760405162461bcd60e51b81526004016108d290611b06565b3360009081526020819052604090206004015462010000900460ff161515600114801561177f5750336000818152602081905260409020600101546001600160a01b0316145b61179b5760405162461bcd60e51b81526004016108d290611b3d565b3360008181526020818152604091829020600401805461ff00191661010017905590519182527f41b29cac8375216177a0c8d96dba938910dc6a3650e7f38b04146aa1f63811319101610983565b3360009081526020819052604090206004015460ff1615156001146118205760405162461bcd60e51b81526004016108d290611b06565b3360008181526020818152604091829020600201849055815192835282018390527f8a28e70e704a9d25b30213e1f85812000835dde60297fb6361e1aafbc8f3d8339101610a40565b80356001600160a01b038116811461188057600080fd5b919050565b60006020828403121561189757600080fd5b6118a082611869565b9392505050565b600060c082840312156118b957600080fd5b60405160c0810181811067ffffffffffffffff821117156118ea57634e487b7160e01b600052604160045260246000fd5b8060405250809150823581526020830135602082015260408301356040820152606083013560608201526080830135608082015260a083013560a08201525092915050565b600060c0828403121561194157600080fd5b6118a083836118a7565b80356001600160801b038116811461188057600080fd5b801515811461197057600080fd5b50565b803561188081611962565b600060e0828403121561199057600080fd5b60405160e0810181811067ffffffffffffffff821117156119c157634e487b7160e01b600052604160045260246000fd5b6040529050806119d08361194b565b81526119de60208401611869565b602082015260408301356040820152606083013560608201526080830135611a0581611962565b6080820152611a1660a08401611973565b60a0820152611a2760c08401611973565b60c08201525092915050565b600060e08284031215611a4557600080fd5b6118a0838361197e565b60008060408385031215611a6257600080fd5b611a6b83611869565b9150611a7960208401611869565b90509250929050565b600060208284031215611a9457600080fd5b6118a08261194b565b600060208284031215611aaf57600080fd5b813560ff811681146118a057600080fd5b6000806101a08385031215611ad457600080fd5b611ade848461197e565b9150611a798460e085016118a7565b600060208284031215611aff57600080fd5b5035919050565b6020808252601e908201527f7468652063616c6c6572206d7573742062652076616c69642067617465720000604082015260600190565b6020808252601590820152741d1a194819d85d1bdc881a5cdb9bdd08195e1a5cdd605a1b604082015260600190565b6020808252601690820152751d1a194819d85d1bdc881a5cc81b9bdd08195e1a5cdd60521b604082015260600190565b600060208284031215611bae57600080fd5b81516118a081611962565b60208082526027908201527f7468652063616c6c6572206d7573742062652076616c6964206d61726b65742060408201526636b0b730b3b2b960c91b606082015260800190565b6020808252601490820152733a34329033b0ba37b91034b99032bc34b9ba32b960611b604082015260600190565b6020808252601190820152703a34329033b0ba37b91034b9903cb7bab960791b604082015260600190565b6001600160801b03818116838216019080821115611c8757634e487b7160e01b600052601160045260246000fd5b509291505056fea26469706673582212201f1cc2a035ce5cf92721e299f49deb7a64a9144aa5ca608a8f701864a22241e964736f6c63430008120033",
			"opcodes": "PUSH1 0x80 PUSH1 0x40 MSTORE CALLVALUE DUP1 ISZERO PUSH3 0x11 JUMPI PUSH1 0x0 DUP1 REVERT JUMPDEST POP PUSH1 0x40 MLOAD PUSH3 0x1DA2 CODESIZE SUB DUP1 PUSH3 0x1DA2 DUP4 CODECOPY DUP2 ADD PUSH1 0x40 DUP2 SWAP1 MSTORE PUSH3 0x34 SWAP2 PUSH3 0x96 JUMP JUMPDEST PUSH1 0x4 DUP1 SLOAD PUSH1 0x1 PUSH1 0x1 PUSH1 0xA0 SHL SUB SWAP4 DUP5 AND PUSH1 0x1 PUSH1 0x1 PUSH1 0xA0 SHL SUB NOT SWAP2 DUP3 AND OR SWAP1 SWAP2 SSTORE PUSH1 0x5 DUP1 SLOAD SWAP3 SWAP1 SWAP4 AND SWAP2 AND OR SWAP1 SSTORE PUSH1 0x3 DUP1 SLOAD PUSH1 0x1 PUSH1 0x1 PUSH1 0x80 SHL SUB NOT AND PUSH1 0x1 OR SWAP1 SSTORE PUSH3 0xCE JUMP JUMPDEST DUP1 MLOAD PUSH1 0x1 PUSH1 0x1 PUSH1 0xA0 SHL SUB DUP2 AND DUP2 EQ PUSH3 0x91 JUMPI PUSH1 0x0 DUP1 REVERT JUMPDEST SWAP2 SWAP1 POP JUMP JUMPDEST PUSH1 0x0 DUP1 PUSH1 0x40 DUP4 DUP6 SUB SLT ISZERO PUSH3 0xAA JUMPI PUSH1 0x0 DUP1 REVERT JUMPDEST PUSH3 0xB5 DUP4 PUSH3 0x79 JUMP JUMPDEST SWAP2 POP PUSH3 0xC5 PUSH1 0x20 DUP5 ADD PUSH3 0x79 JUMP JUMPDEST SWAP1 POP SWAP3 POP SWAP3 SWAP1 POP JUMP JUMPDEST PUSH2 0x1CC4 DUP1 PUSH3 0xDE PUSH1 0x0 CODECOPY PUSH1 0x0 RETURN INVALID PUSH1 0x80 PUSH1 0x40 MSTORE CALLVALUE DUP1 ISZERO PUSH2 0x10 JUMPI PUSH1 0x0 DUP1 REVERT JUMPDEST POP PUSH1 0x4 CALLDATASIZE LT PUSH2 0x1A9 JUMPI PUSH1 0x0 CALLDATALOAD PUSH1 0xE0 SHR DUP1 PUSH4 0x7E0364EF GT PUSH2 0xF9 JUMPI DUP1 PUSH4 0xB4C4B9AC GT PUSH2 0x97 JUMPI DUP1 PUSH4 0xDD348460 GT PUSH2 0x71 JUMPI DUP1 PUSH4 0xDD348460 EQ PUSH2 0x85C JUMPI DUP1 PUSH4 0xE174407D EQ PUSH2 0x86D JUMPI DUP1 PUSH4 0xF1C9F40F EQ PUSH2 0x880 JUMPI DUP1 PUSH4 0xFA42FCAF EQ PUSH2 0x888 JUMPI PUSH1 0x0 DUP1 REVERT JUMPDEST DUP1 PUSH4 0xB4C4B9AC EQ PUSH2 0x818 JUMPI DUP1 PUSH4 0xB614984D EQ PUSH2 0x836 JUMPI DUP1 PUSH4 0xCDF8CD6A EQ PUSH2 0x849 JUMPI PUSH1 0x0 DUP1 REVERT JUMPDEST DUP1 PUSH4 0x84D6DC5B GT PUSH2 0xD3 JUMPI DUP1 PUSH4 0x84D6DC5B EQ PUSH2 0x591 JUMPI DUP1 PUSH4 0x87D46AC2 EQ PUSH2 0x689 JUMPI DUP1 PUSH4 0x8AB5B534 EQ PUSH2 0x72A JUMPI DUP1 PUSH4 0xA4786088 EQ PUSH2 0x805 JUMPI PUSH1 0x0 DUP1 REVERT JUMPDEST DUP1 PUSH4 0x7E0364EF EQ PUSH2 0x41F JUMPI DUP1 PUSH4 0x7FB884D8 EQ PUSH2 0x432 JUMPI DUP1 PUSH4 0x82DFBD20 EQ PUSH2 0x568 JUMPI PUSH1 0x0 DUP1 REVERT JUMPDEST DUP1 PUSH4 0x54A460F6 GT PUSH2 0x166 JUMPI DUP1 PUSH4 0x6271B6E3 GT PUSH2 0x140 JUMPI DUP1 PUSH4 0x6271B6E3 EQ PUSH2 0x359 JUMPI DUP1 PUSH4 0x6456500A EQ PUSH2 0x36C JUMPI DUP1 PUSH4 0x76941300 EQ PUSH2 0x3DD JUMPI DUP1 PUSH4 0x77F3404F EQ PUSH2 0x3F0 JUMPI PUSH1 0x0 DUP1 REVERT JUMPDEST DUP1 PUSH4 0x54A460F6 EQ PUSH2 0x30C JUMPI DUP1 PUSH4 0x5F8795D9 EQ PUSH2 0x333 JUMPI DUP1 PUSH4 0x60772DC9 EQ PUSH2 0x346 JUMPI PUSH1 0x0 DUP1 REVERT JUMPDEST DUP1 PUSH4 0x27CBAABE EQ PUSH2 0x1AE JUMPI DUP1 PUSH4 0x2A533DA8 EQ PUSH2 0x1DE JUMPI DUP1 PUSH4 0x3BBAE141 EQ PUSH2 0x228 JUMPI DUP1 PUSH4 0x41E4F69E EQ PUSH2 0x232 JUMPI DUP1 PUSH4 0x45DF4987 EQ PUSH2 0x245 JUMPI DUP1 PUSH4 0x492B7107 EQ PUSH2 0x2F9 JUMPI JUMPDEST PUSH1 0x0 DUP1 REVERT JUMPDEST PUSH1 0x5 SLOAD PUSH2 0x1C1 SWAP1 PUSH1 0x1 PUSH1 0x1 PUSH1 0xA0 SHL SUB AND DUP2 JUMP JUMPDEST PUSH1 0x40 MLOAD PUSH1 0x1 PUSH1 0x1 PUSH1 0xA0 SHL SUB SWAP1 SWAP2 AND DUP2 MSTORE PUSH1 0x20 ADD JUMPDEST PUSH1 0x40 MLOAD DUP1 SWAP2 SUB SWAP1 RETURN JUMPDEST PUSH2 0x210 PUSH2 0x1EC CALLDATASIZE PUSH1 0x4 PUSH2 0x1885 JUMP JUMPDEST PUSH1 0x1 PUSH1 0x1 PUSH1 0xA0 SHL SUB AND PUSH1 0x0 SWAP1 DUP2 MSTORE PUSH1 0x20 DUP2 SWAP1 MSTORE PUSH1 0x40 SWAP1 KECCAK256 SLOAD PUSH1 0x1 PUSH1 0x1 PUSH1 0x80 SHL SUB AND SWAP1 JUMP JUMPDEST PUSH1 0x40 MLOAD PUSH1 0x1 PUSH1 0x1 PUSH1 0x80 SHL SUB SWAP1 SWAP2 AND DUP2 MSTORE PUSH1 0x20 ADD PUSH2 0x1D5 JUMP JUMPDEST PUSH2 0x230 PUSH2 0x89B JUMP JUMPDEST STOP JUMPDEST PUSH2 0x230 PUSH2 0x240 CALLDATASIZE PUSH1 0x4 PUSH2 0x192F JUMP JUMPDEST PUSH2 0x98D JUMP JUMPDEST PUSH2 0x2AC PUSH2 0x253 CALLDATASIZE PUSH1 0x4 PUSH2 0x1885 JUMP JUMPDEST PUSH1 0x0 PUSH1 0x20 DUP2 SWAP1 MSTORE SWAP1 DUP2 MSTORE PUSH1 0x40 SWAP1 KECCAK256 DUP1 SLOAD PUSH1 0x1 DUP3 ADD SLOAD PUSH1 0x2 DUP4 ADD SLOAD PUSH1 0x3 DUP5 ADD SLOAD PUSH1 0x4 SWAP1 SWAP5 ADD SLOAD PUSH1 0x1 PUSH1 0x1 PUSH1 0x80 SHL SUB SWAP1 SWAP4 AND SWAP4 PUSH1 0x1 PUSH1 0x1 PUSH1 0xA0 SHL SUB SWAP1 SWAP3 AND SWAP3 SWAP1 SWAP2 SWAP1 PUSH1 0xFF DUP1 DUP3 AND SWAP2 PUSH2 0x100 DUP2 DIV DUP3 AND SWAP2 PUSH3 0x10000 SWAP1 SWAP2 DIV AND DUP8 JUMP JUMPDEST PUSH1 0x40 DUP1 MLOAD PUSH1 0x1 PUSH1 0x1 PUSH1 0x80 SHL SUB SWAP1 SWAP9 AND DUP9 MSTORE PUSH1 0x1 PUSH1 0x1 PUSH1 0xA0 SHL SUB SWAP1 SWAP7 AND PUSH1 0x20 DUP9 ADD MSTORE SWAP5 DUP7 ADD SWAP4 SWAP1 SWAP4 MSTORE PUSH1 0x60 DUP6 ADD SWAP2 SWAP1 SWAP2 MSTORE ISZERO ISZERO PUSH1 0x80 DUP5 ADD MSTORE ISZERO ISZERO PUSH1 0xA0 DUP4 ADD MSTORE ISZERO ISZERO PUSH1 0xC0 DUP3 ADD MSTORE PUSH1 0xE0 ADD PUSH2 0x1D5 JUMP JUMPDEST PUSH1 0x4 SLOAD PUSH2 0x1C1 SWAP1 PUSH1 0x1 PUSH1 0x1 PUSH1 0xA0 SHL SUB AND DUP2 JUMP JUMPDEST CALLER PUSH1 0x0 SWAP1 DUP2 MSTORE PUSH1 0x20 DUP2 SWAP1 MSTORE PUSH1 0x40 SWAP1 KECCAK256 PUSH1 0x4 ADD SLOAD PUSH1 0xFF AND JUMPDEST PUSH1 0x40 MLOAD SWAP1 ISZERO ISZERO DUP2 MSTORE PUSH1 0x20 ADD PUSH2 0x1D5 JUMP JUMPDEST PUSH2 0x230 PUSH2 0x341 CALLDATASIZE PUSH1 0x4 PUSH2 0x1A33 JUMP JUMPDEST PUSH2 0xA4B JUMP JUMPDEST PUSH1 0x3 SLOAD PUSH2 0x210 SWAP1 PUSH1 0x1 PUSH1 0x1 PUSH1 0x80 SHL SUB AND DUP2 JUMP JUMPDEST PUSH2 0x230 PUSH2 0x367 CALLDATASIZE PUSH1 0x4 PUSH2 0x1A33 JUMP JUMPDEST PUSH2 0xC4B JUMP JUMPDEST PUSH2 0x3B0 PUSH2 0x37A CALLDATASIZE PUSH1 0x4 PUSH2 0x1885 JUMP JUMPDEST PUSH1 0x1 PUSH1 0x20 DUP2 SWAP1 MSTORE PUSH1 0x0 SWAP2 DUP3 MSTORE PUSH1 0x40 SWAP1 SWAP2 KECCAK256 DUP1 SLOAD SWAP2 DUP2 ADD SLOAD PUSH1 0x2 DUP3 ADD SLOAD PUSH1 0x3 DUP4 ADD SLOAD PUSH1 0x4 DUP5 ADD SLOAD PUSH1 0x5 SWAP1 SWAP5 ADD SLOAD SWAP3 SWAP4 SWAP2 SWAP3 SWAP1 SWAP2 SWAP1 DUP7 JUMP JUMPDEST PUSH1 0x40 DUP1 MLOAD SWAP7 DUP8 MSTORE PUSH1 0x20 DUP8 ADD SWAP6 SWAP1 SWAP6 MSTORE SWAP4 DUP6 ADD SWAP3 SWAP1 SWAP3 MSTORE PUSH1 0x60 DUP5 ADD MSTORE PUSH1 0x80 DUP4 ADD MSTORE PUSH1 0xA0 DUP3 ADD MSTORE PUSH1 0xC0 ADD PUSH2 0x1D5 JUMP JUMPDEST PUSH2 0x230 PUSH2 0x3EB CALLDATASIZE PUSH1 0x4 PUSH2 0x1885 JUMP JUMPDEST PUSH2 0xE7B JUMP JUMPDEST PUSH2 0x323 PUSH2 0x3FE CALLDATASIZE PUSH1 0x4 PUSH2 0x1885 JUMP JUMPDEST PUSH1 0x1 PUSH1 0x1 PUSH1 0xA0 SHL SUB AND PUSH1 0x0 SWAP1 DUP2 MSTORE PUSH1 0x20 DUP2 SWAP1 MSTORE PUSH1 0x40 SWAP1 KECCAK256 PUSH1 0x4 ADD SLOAD PUSH1 0xFF AND SWAP1 JUMP JUMPDEST PUSH2 0x230 PUSH2 0x42D CALLDATASIZE PUSH1 0x4 PUSH2 0x1A4F JUMP JUMPDEST PUSH2 0xFA4 JUMP JUMPDEST PUSH2 0x4FF PUSH2 0x440 CALLDATASIZE PUSH1 0x4 PUSH2 0x1885 JUMP JUMPDEST PUSH1 0x40 DUP1 MLOAD PUSH1 0xE0 DUP2 ADD DUP3 MSTORE PUSH1 0x0 DUP1 DUP3 MSTORE PUSH1 0x20 DUP3 ADD DUP2 SWAP1 MSTORE SWAP2 DUP2 ADD DUP3 SWAP1 MSTORE PUSH1 0x60 DUP2 ADD DUP3 SWAP1 MSTORE PUSH1 0x80 DUP2 ADD DUP3 SWAP1 MSTORE PUSH1 0xA0 DUP2 ADD DUP3 SWAP1 MSTORE PUSH1 0xC0 DUP2 ADD SWAP2 SWAP1 SWAP2 MSTORE POP PUSH1 0x1 PUSH1 0x1 PUSH1 0xA0 SHL SUB SWAP1 DUP2 AND PUSH1 0x0 SWAP1 DUP2 MSTORE PUSH1 0x20 DUP2 DUP2 MSTORE PUSH1 0x40 SWAP2 DUP3 SWAP1 KECCAK256 DUP3 MLOAD PUSH1 0xE0 DUP2 ADD DUP5 MSTORE DUP2 SLOAD PUSH1 0x1 PUSH1 0x1 PUSH1 0x80 SHL SUB AND DUP2 MSTORE PUSH1 0x1 DUP3 ADD SLOAD SWAP1 SWAP5 AND SWAP2 DUP5 ADD SWAP2 SWAP1 SWAP2 MSTORE PUSH1 0x2 DUP2 ADD SLOAD SWAP2 DUP4 ADD SWAP2 SWAP1 SWAP2 MSTORE PUSH1 0x3 DUP2 ADD SLOAD PUSH1 0x60 DUP4 ADD MSTORE PUSH1 0x4 ADD SLOAD PUSH1 0xFF DUP1 DUP3 AND ISZERO ISZERO PUSH1 0x80 DUP5 ADD MSTORE PUSH2 0x100 DUP3 DIV DUP2 AND ISZERO ISZERO PUSH1 0xA0 DUP5 ADD MSTORE PUSH3 0x10000 SWAP1 SWAP2 DIV AND ISZERO ISZERO PUSH1 0xC0 DUP3 ADD MSTORE SWAP1 JUMP JUMPDEST PUSH1 0x40 MLOAD PUSH2 0x1D5 SWAP2 SWAP1 DUP2 MLOAD PUSH1 0x1 PUSH1 0x1 PUSH1 0x80 SHL SUB AND DUP2 MSTORE PUSH1 0x20 DUP1 DUP4 ADD MLOAD PUSH1 0x1 PUSH1 0x1 PUSH1 0xA0 SHL SUB AND SWAP1 DUP3 ADD MSTORE PUSH1 0x40 DUP1 DUP4 ADD MLOAD SWAP1 DUP3 ADD MSTORE PUSH1 0x60 DUP1 DUP4 ADD MLOAD SWAP1 DUP3 ADD MSTORE PUSH1 0x80 DUP1 DUP4 ADD MLOAD ISZERO ISZERO SWAP1 DUP3 ADD MSTORE PUSH1 0xA0 DUP1 DUP4 ADD MLOAD ISZERO ISZERO SWAP1 DUP3 ADD MSTORE PUSH1 0xC0 SWAP2 DUP3 ADD MLOAD ISZERO ISZERO SWAP2 DUP2 ADD SWAP2 SWAP1 SWAP2 MSTORE PUSH1 0xE0 ADD SWAP1 JUMP JUMPDEST PUSH2 0x1C1 PUSH2 0x576 CALLDATASIZE PUSH1 0x4 PUSH2 0x1A82 JUMP JUMPDEST PUSH1 0x2 PUSH1 0x20 MSTORE PUSH1 0x0 SWAP1 DUP2 MSTORE PUSH1 0x40 SWAP1 KECCAK256 SLOAD PUSH1 0x1 PUSH1 0x1 PUSH1 0xA0 SHL SUB AND DUP2 JUMP JUMPDEST PUSH2 0x63D PUSH2 0x59F CALLDATASIZE PUSH1 0x4 PUSH2 0x1A9D JUMP JUMPDEST PUSH1 0x40 DUP1 MLOAD PUSH1 0xC0 DUP2 ADD DUP3 MSTORE PUSH1 0x0 DUP1 DUP3 MSTORE PUSH1 0x20 DUP3 ADD DUP2 SWAP1 MSTORE SWAP2 DUP2 ADD DUP3 SWAP1 MSTORE PUSH1 0x60 DUP2 ADD DUP3 SWAP1 MSTORE PUSH1 0x80 DUP2 ADD DUP3 SWAP1 MSTORE PUSH1 0xA0 DUP2 ADD SWAP2 SWAP1 SWAP2 MSTORE POP PUSH1 0xFF AND PUSH1 0x0 SWAP1 DUP2 MSTORE PUSH1 0x2 PUSH1 0x20 DUP2 DUP2 MSTORE PUSH1 0x40 DUP1 DUP5 KECCAK256 SLOAD PUSH1 0x1 PUSH1 0x1 PUSH1 0xA0 SHL SUB AND DUP5 MSTORE PUSH1 0x1 DUP1 DUP4 MSTORE SWAP4 DUP2 SWAP1 KECCAK256 DUP2 MLOAD PUSH1 0xC0 DUP2 ADD DUP4 MSTORE DUP2 SLOAD DUP2 MSTORE SWAP5 DUP2 ADD SLOAD SWAP3 DUP6 ADD SWAP3 SWAP1 SWAP3 MSTORE SWAP2 DUP2 ADD SLOAD SWAP2 DUP4 ADD SWAP2 SWAP1 SWAP2 MSTORE PUSH1 0x3 DUP2 ADD SLOAD PUSH1 0x60 DUP4 ADD MSTORE PUSH1 0x4 DUP2 ADD SLOAD PUSH1 0x80 DUP4 ADD MSTORE PUSH1 0x5 ADD SLOAD PUSH1 0xA0 DUP3 ADD MSTORE SWAP1 JUMP JUMPDEST PUSH1 0x40 MLOAD PUSH2 0x1D5 SWAP2 SWAP1 PUSH1 0x0 PUSH1 0xC0 DUP3 ADD SWAP1 POP DUP3 MLOAD DUP3 MSTORE PUSH1 0x20 DUP4 ADD MLOAD PUSH1 0x20 DUP4 ADD MSTORE PUSH1 0x40 DUP4 ADD MLOAD PUSH1 0x40 DUP4 ADD MSTORE PUSH1 0x60 DUP4 ADD MLOAD PUSH1 0x60 DUP4 ADD MSTORE PUSH1 0x80 DUP4 ADD MLOAD PUSH1 0x80 DUP4 ADD MSTORE PUSH1 0xA0 DUP4 ADD MLOAD PUSH1 0xA0 DUP4 ADD MSTORE SWAP3 SWAP2 POP POP JUMP JUMPDEST PUSH2 0x63D PUSH2 0x697 CALLDATASIZE PUSH1 0x4 PUSH2 0x1885 JUMP JUMPDEST PUSH1 0x40 DUP1 MLOAD PUSH1 0xC0 DUP2 ADD DUP3 MSTORE PUSH1 0x0 DUP1 DUP3 MSTORE PUSH1 0x20 DUP3 ADD DUP2 SWAP1 MSTORE SWAP2 DUP2 ADD DUP3 SWAP1 MSTORE PUSH1 0x60 DUP2 ADD DUP3 SWAP1 MSTORE PUSH1 0x80 DUP2 ADD DUP3 SWAP1 MSTORE PUSH1 0xA0 DUP2 ADD SWAP2 SWAP1 SWAP2 MSTORE POP PUSH1 0x1 PUSH1 0x1 PUSH1 0xA0 SHL SUB AND PUSH1 0x0 SWAP1 DUP2 MSTORE PUSH1 0x1 PUSH1 0x20 DUP2 DUP2 MSTORE PUSH1 0x40 SWAP3 DUP4 SWAP1 KECCAK256 DUP4 MLOAD PUSH1 0xC0 DUP2 ADD DUP6 MSTORE DUP2 SLOAD DUP2 MSTORE SWAP3 DUP2 ADD SLOAD SWAP2 DUP4 ADD SWAP2 SWAP1 SWAP2 MSTORE PUSH1 0x2 DUP2 ADD SLOAD SWAP3 DUP3 ADD SWAP3 SWAP1 SWAP3 MSTORE PUSH1 0x3 DUP3 ADD SLOAD PUSH1 0x60 DUP3 ADD MSTORE PUSH1 0x4 DUP3 ADD SLOAD PUSH1 0x80 DUP3 ADD MSTORE PUSH1 0x5 SWAP1 SWAP2 ADD SLOAD PUSH1 0xA0 DUP3 ADD MSTORE SWAP1 JUMP JUMPDEST PUSH2 0x4FF PUSH2 0x738 CALLDATASIZE PUSH1 0x4 PUSH2 0x1A9D JUMP JUMPDEST PUSH1 0x40 DUP1 MLOAD PUSH1 0xE0 DUP2 ADD DUP3 MSTORE PUSH1 0x0 DUP1 DUP3 MSTORE PUSH1 0x20 DUP3 ADD DUP2 SWAP1 MSTORE SWAP2 DUP2 ADD DUP3 SWAP1 MSTORE PUSH1 0x60 DUP2 ADD DUP3 SWAP1 MSTORE PUSH1 0x80 DUP2 ADD DUP3 SWAP1 MSTORE PUSH1 0xA0 DUP2 ADD DUP3 SWAP1 MSTORE PUSH1 0xC0 DUP2 ADD SWAP2 SWAP1 SWAP2 MSTORE POP PUSH1 0xFF SWAP1 DUP2 AND PUSH1 0x0 SWAP1 DUP2 MSTORE PUSH1 0x2 PUSH1 0x20 DUP2 DUP2 MSTORE PUSH1 0x40 DUP1 DUP5 KECCAK256 SLOAD PUSH1 0x1 PUSH1 0x1 PUSH1 0xA0 SHL SUB SWAP1 DUP2 AND DUP6 MSTORE DUP5 DUP4 MSTORE SWAP4 DUP2 SWAP1 KECCAK256 DUP2 MLOAD PUSH1 0xE0 DUP2 ADD DUP4 MSTORE DUP2 SLOAD PUSH1 0x1 PUSH1 0x1 PUSH1 0x80 SHL SUB AND DUP2 MSTORE PUSH1 0x1 DUP3 ADD SLOAD SWAP1 SWAP6 AND SWAP3 DUP6 ADD SWAP3 SWAP1 SWAP3 MSTORE SWAP2 DUP2 ADD SLOAD SWAP2 DUP4 ADD SWAP2 SWAP1 SWAP2 MSTORE PUSH1 0x3 DUP2 ADD SLOAD PUSH1 0x60 DUP4 ADD MSTORE PUSH1 0x4 ADD SLOAD DUP1 DUP4 AND ISZERO ISZERO PUSH1 0x80 DUP4 ADD MSTORE PUSH2 0x100 DUP2 DIV DUP4 AND ISZERO ISZERO PUSH1 0xA0 DUP4 ADD MSTORE PUSH3 0x10000 SWAP1 DIV SWAP1 SWAP2 AND ISZERO ISZERO PUSH1 0xC0 DUP3 ADD MSTORE SWAP1 JUMP JUMPDEST PUSH2 0x230 PUSH2 0x813 CALLDATASIZE PUSH1 0x4 PUSH2 0x1885 JUMP JUMPDEST PUSH2 0x103C JUMP JUMPDEST CALLER PUSH1 0x0 SWAP1 DUP2 MSTORE PUSH1 0x20 DUP2 SWAP1 MSTORE PUSH1 0x40 SWAP1 KECCAK256 SLOAD PUSH1 0x1 PUSH1 0x1 PUSH1 0x80 SHL SUB AND PUSH2 0x210 JUMP JUMPDEST PUSH2 0x230 PUSH2 0x844 CALLDATASIZE PUSH1 0x4 PUSH2 0x1885 JUMP JUMPDEST PUSH2 0x1162 JUMP JUMPDEST PUSH2 0x230 PUSH2 0x857 CALLDATASIZE PUSH1 0x4 PUSH2 0x1AC0 JUMP JUMPDEST PUSH2 0x12BA JUMP JUMPDEST PUSH1 0x3 SLOAD PUSH1 0x1 PUSH1 0x1 PUSH1 0x80 SHL SUB AND PUSH2 0x210 JUMP JUMPDEST PUSH2 0x230 PUSH2 0x87B CALLDATASIZE PUSH1 0x4 PUSH2 0x1AC0 JUMP JUMPDEST PUSH2 0x15B1 JUMP JUMPDEST PUSH2 0x230 PUSH2 0x1702 JUMP JUMPDEST PUSH2 0x230 PUSH2 0x896 CALLDATASIZE PUSH1 0x4 PUSH2 0x1AED JUMP JUMPDEST PUSH2 0x17E9 JUMP JUMPDEST CALLER PUSH1 0x0 SWAP1 DUP2 MSTORE PUSH1 0x20 DUP2 SWAP1 MSTORE PUSH1 0x40 SWAP1 KECCAK256 PUSH1 0x4 ADD SLOAD PUSH1 0xFF AND ISZERO ISZERO PUSH1 0x1 EQ PUSH2 0x8DB JUMPI PUSH1 0x40 MLOAD PUSH3 0x461BCD PUSH1 0xE5 SHL DUP2 MSTORE PUSH1 0x4 ADD PUSH2 0x8D2 SWAP1 PUSH2 0x1B06 JUMP JUMPDEST PUSH1 0x40 MLOAD DUP1 SWAP2 SUB SWAP1 REVERT JUMPDEST CALLER PUSH1 0x0 SWAP1 DUP2 MSTORE PUSH1 0x20 DUP2 SWAP1 MSTORE PUSH1 0x40 SWAP1 KECCAK256 PUSH1 0x4 ADD SLOAD PUSH3 0x10000 SWAP1 DIV PUSH1 0xFF AND ISZERO ISZERO PUSH1 0x1 EQ DUP1 ISZERO PUSH2 0x921 JUMPI POP CALLER PUSH1 0x0 DUP2 DUP2 MSTORE PUSH1 0x20 DUP2 SWAP1 MSTORE PUSH1 0x40 SWAP1 KECCAK256 PUSH1 0x1 ADD SLOAD PUSH1 0x1 PUSH1 0x1 PUSH1 0xA0 SHL SUB AND EQ JUMPDEST PUSH2 0x93D JUMPI PUSH1 0x40 MLOAD PUSH3 0x461BCD PUSH1 0xE5 SHL DUP2 MSTORE PUSH1 0x4 ADD PUSH2 0x8D2 SWAP1 PUSH2 0x1B3D JUMP JUMPDEST CALLER PUSH1 0x0 DUP2 DUP2 MSTORE PUSH1 0x20 DUP2 DUP2 MSTORE PUSH1 0x40 SWAP2 DUP3 SWAP1 KECCAK256 PUSH1 0x4 ADD DUP1 SLOAD PUSH2 0xFF00 NOT AND SWAP1 SSTORE SWAP1 MLOAD SWAP2 DUP3 MSTORE PUSH32 0xE5774DC76216B6570B210F3CB5FED8D6D443AADC204E69B02436C40BAE70DB34 SWAP2 ADD JUMPDEST PUSH1 0x40 MLOAD DUP1 SWAP2 SUB SWAP1 LOG1 JUMP JUMPDEST CALLER PUSH1 0x0 SWAP1 DUP2 MSTORE PUSH1 0x20 DUP2 SWAP1 MSTORE PUSH1 0x40 SWAP1 KECCAK256 PUSH1 0x4 ADD SLOAD PUSH3 0x10000 SWAP1 DIV PUSH1 0xFF AND ISZERO ISZERO PUSH1 0x1 EQ PUSH2 0x9CA JUMPI PUSH1 0x40 MLOAD PUSH3 0x461BCD PUSH1 0xE5 SHL DUP2 MSTORE PUSH1 0x4 ADD PUSH2 0x8D2 SWAP1 PUSH2 0x1B6C JUMP JUMPDEST CALLER PUSH1 0x0 DUP2 DUP2 MSTORE PUSH1 0x1 PUSH1 0x20 DUP2 DUP2 MSTORE PUSH1 0x40 SWAP3 DUP4 SWAP1 KECCAK256 DUP6 MLOAD DUP2 SSTORE DUP6 DUP3 ADD MLOAD SWAP3 DUP2 ADD SWAP3 SWAP1 SWAP3 SSTORE DUP5 DUP4 ADD MLOAD PUSH1 0x2 DUP4 ADD SSTORE PUSH1 0x60 DUP6 ADD MLOAD PUSH1 0x3 DUP4 ADD SSTORE PUSH1 0x80 DUP6 ADD MLOAD PUSH1 0x4 DUP4 ADD SSTORE PUSH1 0xA0 DUP6 ADD MLOAD PUSH1 0x5 SWAP1 SWAP3 ADD SWAP2 SWAP1 SWAP2 SSTORE SWAP1 MLOAD SWAP2 DUP3 MSTORE PUSH32 0x4E95876AED3686E10386994EE3A3C7244CA827CCE033AA00D635D75CF66B67A6 SWAP2 ADD JUMPDEST PUSH1 0x40 MLOAD DUP1 SWAP2 SUB SWAP1 LOG1 POP JUMP JUMPDEST PUSH1 0x4 DUP1 SLOAD PUSH1 0x40 MLOAD PUSH4 0x38C3329 PUSH1 0xE5 SHL DUP2 MSTORE CALLER SWAP3 DUP2 ADD SWAP3 SWAP1 SWAP3 MSTORE PUSH1 0x1 PUSH1 0x1 PUSH1 0xA0 SHL SUB AND SWAP1 PUSH4 0x71866520 SWAP1 PUSH1 0x24 ADD PUSH1 0x20 PUSH1 0x40 MLOAD DUP1 DUP4 SUB DUP2 DUP7 GAS STATICCALL ISZERO DUP1 ISZERO PUSH2 0xA94 JUMPI RETURNDATASIZE PUSH1 0x0 DUP1 RETURNDATACOPY RETURNDATASIZE PUSH1 0x0 REVERT JUMPDEST POP POP POP POP PUSH1 0x40 MLOAD RETURNDATASIZE PUSH1 0x1F NOT PUSH1 0x1F DUP3 ADD AND DUP3 ADD DUP1 PUSH1 0x40 MSTORE POP DUP2 ADD SWAP1 PUSH2 0xAB8 SWAP2 SWAP1 PUSH2 0x1B9C JUMP JUMPDEST PUSH2 0xAD4 JUMPI PUSH1 0x40 MLOAD PUSH3 0x461BCD PUSH1 0xE5 SHL DUP2 MSTORE PUSH1 0x4 ADD PUSH2 0x8D2 SWAP1 PUSH2 0x1BB9 JUMP JUMPDEST PUSH1 0x20 DUP2 DUP2 ADD MLOAD PUSH1 0x1 PUSH1 0x1 PUSH1 0xA0 SHL SUB AND PUSH1 0x0 SWAP1 DUP2 MSTORE SWAP1 DUP2 SWAP1 MSTORE PUSH1 0x40 SWAP1 KECCAK256 PUSH1 0x4 ADD SLOAD PUSH3 0x10000 SWAP1 DIV PUSH1 0xFF AND ISZERO ISZERO PUSH1 0x1 EQ PUSH2 0xB1E JUMPI PUSH1 0x40 MLOAD PUSH3 0x461BCD PUSH1 0xE5 SHL DUP2 MSTORE PUSH1 0x4 ADD PUSH2 0x8D2 SWAP1 PUSH2 0x1C00 JUMP JUMPDEST PUSH1 0x20 DUP2 DUP2 ADD DUP1 MLOAD PUSH1 0x1 PUSH1 0x1 PUSH1 0xA0 SHL SUB SWAP1 DUP2 AND PUSH1 0x0 SWAP1 DUP2 MSTORE DUP1 DUP5 MSTORE PUSH1 0x40 DUP1 DUP3 KECCAK256 PUSH1 0x4 SWAP1 DUP2 ADD SLOAD PUSH1 0xFF SWAP1 DUP2 AND ISZERO ISZERO PUSH1 0x80 DUP10 ADD SWAP1 DUP2 MSTORE DUP7 MLOAD DUP7 AND DUP6 MSTORE DUP5 DUP9 MSTORE DUP4 DUP6 KECCAK256 DUP4 ADD SLOAD PUSH2 0x100 SWAP1 DUP2 SWAP1 DIV SWAP1 SWAP3 AND ISZERO ISZERO PUSH1 0xA0 DUP11 ADD SWAP1 DUP2 MSTORE DUP8 MLOAD DUP8 AND DUP7 MSTORE DUP6 DUP10 MSTORE SWAP5 DUP5 SWAP1 KECCAK256 DUP10 MLOAD DUP2 SLOAD PUSH1 0x1 PUSH1 0x1 PUSH1 0x80 SHL SUB NOT AND PUSH1 0x1 PUSH1 0x1 PUSH1 0x80 SHL SUB SWAP1 SWAP2 AND OR DUP2 SSTORE SWAP7 MLOAD PUSH1 0x1 DUP9 ADD DUP1 SLOAD PUSH1 0x1 PUSH1 0x1 PUSH1 0xA0 SHL SUB NOT AND SWAP2 SWAP1 SWAP8 AND SWAP1 DUP2 OR SWAP1 SWAP7 SSTORE DUP4 DUP10 ADD MLOAD PUSH1 0x2 DUP9 ADD DUP2 SWAP1 SSTORE PUSH1 0x60 DUP1 DUP12 ADD MLOAD PUSH1 0x3 DUP11 ADD SSTORE SWAP2 MLOAD SWAP8 SWAP1 SWAP4 ADD DUP1 SLOAD SWAP6 MLOAD PUSH1 0xC0 DUP12 ADD MLOAD PUSH2 0xFFFF NOT SWAP1 SWAP8 AND SWAP9 ISZERO ISZERO PUSH2 0xFF00 NOT AND SWAP9 SWAP1 SWAP9 OR SWAP8 ISZERO ISZERO SWAP1 SWAP3 MUL SWAP7 SWAP1 SWAP7 OR PUSH3 0xFF0000 NOT AND PUSH3 0x10000 SWAP5 ISZERO ISZERO SWAP5 SWAP1 SWAP5 MUL SWAP4 SWAP1 SWAP4 OR SWAP1 SWAP3 SSTORE DUP1 MLOAD SWAP3 DUP4 MSTORE SWAP4 DUP3 ADD MSTORE CALLER SWAP3 DUP2 ADD SWAP3 SWAP1 SWAP3 MSTORE PUSH32 0x92F4992DCEA83C02FD5FA1285D7B968BB591B5205DE52649CA84C1219E588AA SWAP2 ADD PUSH2 0xA40 JUMP JUMPDEST PUSH1 0x20 DUP2 DUP2 ADD MLOAD PUSH1 0x1 PUSH1 0x1 PUSH1 0xA0 SHL SUB AND PUSH1 0x0 SWAP1 DUP2 MSTORE SWAP1 DUP2 SWAP1 MSTORE PUSH1 0x40 SWAP1 KECCAK256 PUSH1 0x4 ADD SLOAD PUSH3 0x10000 SWAP1 DIV PUSH1 0xFF AND ISZERO ISZERO PUSH1 0x1 SUB PUSH2 0xC95 JUMPI PUSH1 0x40 MLOAD PUSH3 0x461BCD PUSH1 0xE5 SHL DUP2 MSTORE PUSH1 0x4 ADD PUSH2 0x8D2 SWAP1 PUSH2 0x1C00 JUMP JUMPDEST PUSH1 0x20 DUP2 ADD MLOAD PUSH1 0x1 PUSH1 0x1 PUSH1 0xA0 SHL SUB AND CALLER EQ PUSH2 0xCC1 JUMPI PUSH1 0x40 MLOAD PUSH3 0x461BCD PUSH1 0xE5 SHL DUP2 MSTORE PUSH1 0x4 ADD PUSH2 0x8D2 SWAP1 PUSH2 0x1C2E JUMP JUMPDEST PUSH1 0x0 PUSH1 0x80 DUP3 ADD DUP2 SWAP1 MSTORE PUSH1 0xA0 DUP3 ADD MSTORE PUSH1 0x3 SLOAD PUSH1 0x1 PUSH1 0x1 PUSH1 0x80 SHL SUB AND DUP1 DUP3 MSTORE TIMESTAMP PUSH1 0x60 DUP4 ADD MSTORE PUSH1 0x1 PUSH1 0xC0 DUP4 ADD DUP2 SWAP1 MSTORE PUSH2 0xCF8 SWAP1 DUP3 SWAP1 PUSH2 0x1C59 JUMP JUMPDEST PUSH1 0x1 PUSH1 0x1 PUSH1 0x80 SHL SUB AND GT PUSH2 0xD1E JUMPI PUSH1 0x40 MLOAD PUSH3 0x461BCD PUSH1 0xE5 SHL DUP2 MSTORE PUSH1 0x4 ADD PUSH2 0x8D2 SWAP1 PUSH2 0x1C2E JUMP JUMPDEST PUSH1 0x20 DUP1 DUP3 ADD DUP1 MLOAD PUSH1 0x1 PUSH1 0x1 PUSH1 0xA0 SHL SUB SWAP1 DUP2 AND PUSH1 0x0 SWAP1 DUP2 MSTORE DUP1 DUP5 MSTORE PUSH1 0x40 DUP1 DUP3 KECCAK256 DUP7 MLOAD DUP2 SLOAD PUSH1 0x1 PUSH1 0x1 PUSH1 0x80 SHL SUB SWAP2 DUP3 AND PUSH1 0x1 PUSH1 0x1 PUSH1 0x80 SHL SUB NOT SWAP1 SWAP2 AND OR DUP3 SSTORE SWAP5 MLOAD PUSH1 0x1 DUP1 DUP4 ADD DUP1 SLOAD SWAP3 SWAP1 SWAP7 AND PUSH1 0x1 PUSH1 0x1 PUSH1 0xA0 SHL SUB NOT SWAP3 DUP4 AND DUP2 OR SWAP1 SWAP7 SSTORE DUP4 DUP10 ADD MLOAD PUSH1 0x2 DUP1 DUP6 ADD SWAP2 SWAP1 SWAP2 SSTORE PUSH1 0x60 DUP11 ADD MLOAD PUSH1 0x3 DUP1 DUP7 ADD SWAP2 SWAP1 SWAP2 SSTORE PUSH1 0x80 DUP12 ADD MLOAD PUSH1 0x4 SWAP1 SWAP6 ADD DUP1 SLOAD PUSH1 0xA0 DUP14 ADD MLOAD PUSH1 0xC0 DUP15 ADD MLOAD ISZERO ISZERO PUSH3 0x10000 MUL PUSH3 0xFF0000 NOT SWAP2 ISZERO ISZERO PUSH2 0x100 MUL PUSH2 0xFF00 NOT SWAP10 ISZERO ISZERO SWAP10 SWAP1 SWAP10 AND PUSH2 0xFFFF NOT SWAP1 SWAP4 AND SWAP3 SWAP1 SWAP3 OR SWAP8 SWAP1 SWAP8 OR SWAP7 SWAP1 SWAP7 AND SWAP6 SWAP1 SWAP6 OR SWAP1 SWAP5 SSTORE DUP4 SLOAD DUP9 AND DUP7 MSTORE SWAP1 SWAP8 MSTORE SWAP2 DUP4 KECCAK256 DUP1 SLOAD SWAP1 SWAP3 AND SWAP1 SWAP4 OR SWAP1 SSTORE DUP2 SLOAD SWAP2 SWAP3 SWAP1 SWAP2 PUSH2 0xE0A SWAP2 DUP6 SWAP2 AND PUSH2 0x1C59 JUMP JUMPDEST SWAP3 POP PUSH2 0x100 EXP DUP2 SLOAD DUP2 PUSH1 0x1 PUSH1 0x1 PUSH1 0x80 SHL SUB MUL NOT AND SWAP1 DUP4 PUSH1 0x1 PUSH1 0x1 PUSH1 0x80 SHL SUB AND MUL OR SWAP1 SSTORE POP PUSH32 0x8E4F50CDB8A5D94375966FD0A1D5D22CDC67F404E8EFE452D1F840DDFFD6778F DUP2 PUSH1 0x20 ADD MLOAD DUP3 PUSH1 0x40 ADD MLOAD PUSH1 0x40 MLOAD PUSH2 0xA40 SWAP3 SWAP2 SWAP1 PUSH1 0x1 PUSH1 0x1 PUSH1 0xA0 SHL SUB SWAP3 SWAP1 SWAP3 AND DUP3 MSTORE PUSH1 0x20 DUP3 ADD MSTORE PUSH1 0x40 ADD SWAP1 JUMP JUMPDEST PUSH1 0x4 DUP1 SLOAD PUSH1 0x40 MLOAD PUSH4 0x38C3329 PUSH1 0xE5 SHL DUP2 MSTORE CALLER SWAP3 DUP2 ADD SWAP3 SWAP1 SWAP3 MSTORE PUSH1 0x1 PUSH1 0x1 PUSH1 0xA0 SHL SUB AND SWAP1 PUSH4 0x71866520 SWAP1 PUSH1 0x24 ADD PUSH1 0x20 PUSH1 0x40 MLOAD DUP1 DUP4 SUB DUP2 DUP7 GAS STATICCALL ISZERO DUP1 ISZERO PUSH2 0xEC4 JUMPI RETURNDATASIZE PUSH1 0x0 DUP1 RETURNDATACOPY RETURNDATASIZE PUSH1 0x0 REVERT JUMPDEST POP POP POP POP PUSH1 0x40 MLOAD RETURNDATASIZE PUSH1 0x1F NOT PUSH1 0x1F DUP3 ADD AND DUP3 ADD DUP1 PUSH1 0x40 MSTORE POP DUP2 ADD SWAP1 PUSH2 0xEE8 SWAP2 SWAP1 PUSH2 0x1B9C JUMP JUMPDEST PUSH2 0xF04 JUMPI PUSH1 0x40 MLOAD PUSH3 0x461BCD PUSH1 0xE5 SHL DUP2 MSTORE PUSH1 0x4 ADD PUSH2 0x8D2 SWAP1 PUSH2 0x1BB9 JUMP JUMPDEST PUSH1 0x1 PUSH1 0x1 PUSH1 0xA0 SHL SUB DUP2 AND PUSH1 0x0 SWAP1 DUP2 MSTORE PUSH1 0x20 DUP2 SWAP1 MSTORE PUSH1 0x40 SWAP1 KECCAK256 PUSH1 0x4 ADD SLOAD PUSH3 0x10000 SWAP1 DIV PUSH1 0xFF AND ISZERO ISZERO PUSH1 0x1 EQ PUSH2 0xF4A JUMPI PUSH1 0x40 MLOAD PUSH3 0x461BCD PUSH1 0xE5 SHL DUP2 MSTORE PUSH1 0x4 ADD PUSH2 0x8D2 SWAP1 PUSH2 0x1B3D JUMP JUMPDEST PUSH1 0x1 PUSH1 0x1 PUSH1 0xA0 SHL SUB DUP2 AND PUSH1 0x0 DUP2 DUP2 MSTORE PUSH1 0x20 DUP2 DUP2 MSTORE PUSH1 0x40 SWAP2 DUP3 SWAP1 KECCAK256 PUSH1 0x4 ADD DUP1 SLOAD PUSH1 0xFF NOT AND PUSH1 0x1 OR SWAP1 SSTORE DUP2 MLOAD SWAP3 DUP4 MSTORE CALLER SWAP1 DUP4 ADD MSTORE PUSH32 0x4353413B15CD3738C15F5943344E98F0982686884F71F3D2A639891B7ED281B7 SWAP2 ADD PUSH2 0xA40 JUMP JUMPDEST PUSH1 0x5 SLOAD PUSH1 0x1 PUSH1 0x1 PUSH1 0xA0 SHL SUB AND CALLER EQ PUSH2 0x100E JUMPI PUSH1 0x40 MLOAD PUSH3 0x461BCD PUSH1 0xE5 SHL DUP2 MSTORE PUSH1 0x20 PUSH1 0x4 DUP3 ADD MSTORE PUSH1 0x27 PUSH1 0x24 DUP3 ADD MSTORE PUSH32 0x7468652063616C6C6572206D7573742062652076616C6964206D61726B657420 PUSH1 0x44 DUP3 ADD MSTORE PUSH7 0x31B932B0BA37B9 PUSH1 0xC9 SHL PUSH1 0x64 DUP3 ADD MSTORE PUSH1 0x84 ADD PUSH2 0x8D2 JUMP JUMPDEST PUSH1 0x4 DUP1 SLOAD PUSH1 0x1 PUSH1 0x1 PUSH1 0xA0 SHL SUB SWAP4 DUP5 AND PUSH1 0x1 PUSH1 0x1 PUSH1 0xA0 SHL SUB NOT SWAP2 DUP3 AND OR SWAP1 SWAP2 SSTORE PUSH1 0x5 DUP1 SLOAD SWAP3 SWAP1 SWAP4 AND SWAP2 AND OR SWAP1 SSTORE JUMP JUMPDEST PUSH1 0x4 DUP1 SLOAD PUSH1 0x40 MLOAD PUSH4 0x38C3329 PUSH1 0xE5 SHL DUP2 MSTORE CALLER SWAP3 DUP2 ADD SWAP3 SWAP1 SWAP3 MSTORE PUSH1 0x1 PUSH1 0x1 PUSH1 0xA0 SHL SUB AND SWAP1 PUSH4 0x71866520 SWAP1 PUSH1 0x24 ADD PUSH1 0x20 PUSH1 0x40 MLOAD DUP1 DUP4 SUB DUP2 DUP7 GAS STATICCALL ISZERO DUP1 ISZERO PUSH2 0x1085 JUMPI RETURNDATASIZE PUSH1 0x0 DUP1 RETURNDATACOPY RETURNDATASIZE PUSH1 0x0 REVERT JUMPDEST POP POP POP POP PUSH1 0x40 MLOAD RETURNDATASIZE PUSH1 0x1F NOT PUSH1 0x1F DUP3 ADD AND DUP3 ADD DUP1 PUSH1 0x40 MSTORE POP DUP2 ADD SWAP1 PUSH2 0x10A9 SWAP2 SWAP1 PUSH2 0x1B9C JUMP JUMPDEST PUSH2 0x10C5 JUMPI PUSH1 0x40 MLOAD PUSH3 0x461BCD PUSH1 0xE5 SHL DUP2 MSTORE PUSH1 0x4 ADD PUSH2 0x8D2 SWAP1 PUSH2 0x1BB9 JUMP JUMPDEST PUSH1 0x1 PUSH1 0x1 PUSH1 0xA0 SHL SUB DUP2 AND PUSH1 0x0 SWAP1 DUP2 MSTORE PUSH1 0x20 DUP2 SWAP1 MSTORE PUSH1 0x40 SWAP1 KECCAK256 PUSH1 0x4 ADD SLOAD PUSH3 0x10000 SWAP1 DIV PUSH1 0xFF AND ISZERO ISZERO PUSH1 0x1 EQ PUSH2 0x110B JUMPI PUSH1 0x40 MLOAD PUSH3 0x461BCD PUSH1 0xE5 SHL DUP2 MSTORE PUSH1 0x4 ADD PUSH2 0x8D2 SWAP1 PUSH2 0x1B3D JUMP JUMPDEST PUSH1 0x1 PUSH1 0x1 PUSH1 0xA0 SHL SUB DUP2 AND PUSH1 0x0 DUP2 DUP2 MSTORE PUSH1 0x20 DUP2 DUP2 MSTORE PUSH1 0x40 SWAP2 DUP3 SWAP1 KECCAK256 PUSH1 0x4 ADD DUP1 SLOAD PUSH1 0xFF NOT AND SWAP1 SSTORE DUP2 MLOAD SWAP3 DUP4 MSTORE CALLER SWAP1 DUP4 ADD MSTORE PUSH32 0x54CA41DD8DE3EBB98F98A5F6FB0390D8F2C691921355F6657AE3B2F5B56A881B SWAP2 ADD PUSH2 0xA40 JUMP JUMPDEST PUSH1 0x4 DUP1 SLOAD PUSH1 0x40 MLOAD PUSH4 0x38C3329 PUSH1 0xE5 SHL DUP2 MSTORE CALLER SWAP3 DUP2 ADD SWAP3 SWAP1 SWAP3 MSTORE PUSH1 0x1 PUSH1 0x1 PUSH1 0xA0 SHL SUB AND SWAP1 PUSH4 0x71866520 SWAP1 PUSH1 0x24 ADD PUSH1 0x20 PUSH1 0x40 MLOAD DUP1 DUP4 SUB DUP2 DUP7 GAS STATICCALL ISZERO DUP1 ISZERO PUSH2 0x11AB JUMPI RETURNDATASIZE PUSH1 0x0 DUP1 RETURNDATACOPY RETURNDATASIZE PUSH1 0x0 REVERT JUMPDEST POP POP POP POP PUSH1 0x40 MLOAD RETURNDATASIZE PUSH1 0x1F NOT PUSH1 0x1F DUP3 ADD AND DUP3 ADD DUP1 PUSH1 0x40 MSTORE POP DUP2 ADD SWAP1 PUSH2 0x11CF SWAP2 SWAP1 PUSH2 0x1B9C JUMP JUMPDEST PUSH2 0x11EB JUMPI PUSH1 0x40 MLOAD PUSH3 0x461BCD PUSH1 0xE5 SHL DUP2 MSTORE PUSH1 0x4 ADD PUSH2 0x8D2 SWAP1 PUSH2 0x1BB9 JUMP JUMPDEST PUSH1 0x1 PUSH1 0x1 PUSH1 0xA0 SHL SUB DUP2 AND PUSH1 0x0 SWAP1 DUP2 MSTORE PUSH1 0x20 DUP2 SWAP1 MSTORE PUSH1 0x40 SWAP1 KECCAK256 PUSH1 0x4 ADD SLOAD PUSH3 0x10000 SWAP1 DIV PUSH1 0xFF AND ISZERO ISZERO PUSH1 0x1 EQ PUSH2 0x1231 JUMPI PUSH1 0x40 MLOAD PUSH3 0x461BCD PUSH1 0xE5 SHL DUP2 MSTORE PUSH1 0x4 ADD PUSH2 0x8D2 SWAP1 PUSH2 0x1C00 JUMP JUMPDEST PUSH1 0x1 PUSH1 0x1 PUSH1 0xA0 SHL SUB DUP2 AND PUSH1 0x0 DUP2 DUP2 MSTORE PUSH1 0x20 DUP2 DUP2 MSTORE PUSH1 0x40 DUP1 DUP4 KECCAK256 DUP1 SLOAD PUSH1 0x1 PUSH1 0x1 PUSH1 0x80 SHL SUB NOT AND DUP2 SSTORE PUSH1 0x1 DUP2 ADD DUP1 SLOAD PUSH1 0x1 PUSH1 0x1 PUSH1 0xA0 SHL SUB NOT AND SWAP1 SSTORE PUSH1 0x2 DUP2 ADD DUP5 SWAP1 SSTORE PUSH1 0x3 DUP2 ADD SWAP4 SWAP1 SWAP4 SSTORE PUSH1 0x4 SWAP1 SWAP3 ADD DUP1 SLOAD PUSH3 0xFFFFFF NOT AND SWAP1 SSTORE DUP2 MLOAD SWAP3 DUP4 MSTORE CALLER SWAP1 DUP4 ADD MSTORE PUSH32 0xA36348788E76A7600444ED49AE6C1099AB91D47DFB810828281289EF9CFC2E51 SWAP2 ADD PUSH2 0xA40 JUMP JUMPDEST PUSH1 0x20 DUP3 DUP2 ADD MLOAD PUSH1 0x1 PUSH1 0x1 PUSH1 0xA0 SHL SUB AND PUSH1 0x0 SWAP1 DUP2 MSTORE SWAP1 DUP2 SWAP1 MSTORE PUSH1 0x40 SWAP1 KECCAK256 PUSH1 0x4 ADD SLOAD PUSH3 0x10000 SWAP1 DIV PUSH1 0xFF AND ISZERO ISZERO PUSH1 0x1 SUB PUSH2 0x1304 JUMPI PUSH1 0x40 MLOAD PUSH3 0x461BCD PUSH1 0xE5 SHL DUP2 MSTORE PUSH1 0x4 ADD PUSH2 0x8D2 SWAP1 PUSH2 0x1C00 JUMP JUMPDEST PUSH1 0x20 DUP3 ADD MLOAD PUSH1 0x1 PUSH1 0x1 PUSH1 0xA0 SHL SUB AND CALLER EQ PUSH2 0x1330 JUMPI PUSH1 0x40 MLOAD PUSH3 0x461BCD PUSH1 0xE5 SHL DUP2 MSTORE PUSH1 0x4 ADD PUSH2 0x8D2 SWAP1 PUSH2 0x1C2E JUMP JUMPDEST PUSH1 0x0 PUSH1 0x80 DUP4 ADD DUP2 SWAP1 MSTORE PUSH1 0xA0 DUP4 ADD MSTORE PUSH1 0x3 SLOAD PUSH1 0x1 PUSH1 0x1 PUSH1 0x80 SHL SUB AND DUP1 DUP4 MSTORE TIMESTAMP PUSH1 0x60 DUP5 ADD MSTORE PUSH1 0x1 PUSH1 0xC0 DUP5 ADD DUP2 SWAP1 MSTORE PUSH2 0x1367 SWAP1 DUP3 SWAP1 PUSH2 0x1C59 JUMP JUMPDEST PUSH1 0x1 PUSH1 0x1 PUSH1 0x80 SHL SUB AND GT PUSH2 0x138D JUMPI PUSH1 0x40 MLOAD PUSH3 0x461BCD PUSH1 0xE5 SHL DUP2 MSTORE PUSH1 0x4 ADD PUSH2 0x8D2 SWAP1 PUSH2 0x1C2E JUMP JUMPDEST PUSH1 0x20 DUP1 DUP4 ADD DUP1 MLOAD PUSH1 0x1 PUSH1 0x1 PUSH1 0xA0 SHL SUB SWAP1 DUP2 AND PUSH1 0x0 SWAP1 DUP2 MSTORE DUP1 DUP5 MSTORE PUSH1 0x40 DUP1 DUP3 KECCAK256 DUP8 MLOAD DUP2 SLOAD PUSH1 0x1 PUSH1 0x1 PUSH1 0x80 SHL SUB SWAP2 DUP3 AND PUSH1 0x1 PUSH1 0x1 PUSH1 0x80 SHL SUB NOT SWAP1 SWAP2 AND OR DUP3 SSTORE SWAP5 MLOAD PUSH1 0x1 DUP1 DUP4 ADD DUP1 SLOAD SWAP3 SWAP1 SWAP7 AND PUSH1 0x1 PUSH1 0x1 PUSH1 0xA0 SHL SUB NOT SWAP3 DUP4 AND DUP2 OR SWAP1 SWAP7 SSTORE DUP4 DUP11 ADD MLOAD PUSH1 0x2 DUP1 DUP6 ADD SWAP2 SWAP1 SWAP2 SSTORE PUSH1 0x60 DUP12 ADD MLOAD PUSH1 0x3 DUP1 DUP7 ADD SWAP2 SWAP1 SWAP2 SSTORE PUSH1 0x80 DUP13 ADD MLOAD PUSH1 0x4 SWAP1 SWAP6 ADD DUP1 SLOAD PUSH1 0xA0 DUP15 ADD MLOAD PUSH1 0xC0 DUP16 ADD MLOAD ISZERO ISZERO PUSH3 0x10000 MUL PUSH3 0xFF0000 NOT SWAP2 ISZERO ISZERO PUSH2 0x100 MUL PUSH2 0xFF00 NOT SWAP10 ISZERO ISZERO SWAP10 SWAP1 SWAP10 AND PUSH2 0xFFFF NOT SWAP1 SWAP4 AND SWAP3 SWAP1 SWAP3 OR SWAP8 SWAP1 SWAP8 OR SWAP7 SWAP1 SWAP7 AND SWAP6 SWAP1 SWAP6 OR SWAP1 SWAP5 SSTORE DUP4 SLOAD DUP9 AND DUP7 MSTORE SWAP1 SWAP8 MSTORE SWAP2 DUP4 KECCAK256 DUP1 SLOAD SWAP1 SWAP3 AND SWAP1 SWAP4 OR SWAP1 SSTORE DUP2 SLOAD SWAP2 SWAP3 SWAP1 SWAP2 PUSH2 0x1479 SWAP2 DUP6 SWAP2 AND PUSH2 0x1C59 JUMP JUMPDEST SWAP3 POP PUSH2 0x100 EXP DUP2 SLOAD DUP2 PUSH1 0x1 PUSH1 0x1 PUSH1 0x80 SHL SUB MUL NOT AND SWAP1 DUP4 PUSH1 0x1 PUSH1 0x1 PUSH1 0x80 SHL SUB AND MUL OR SWAP1 SSTORE POP PUSH32 0x8E4F50CDB8A5D94375966FD0A1D5D22CDC67F404E8EFE452D1F840DDFFD6778F DUP3 PUSH1 0x20 ADD MLOAD DUP4 PUSH1 0x40 ADD MLOAD PUSH1 0x40 MLOAD PUSH2 0x14EA SWAP3 SWAP2 SWAP1 PUSH1 0x1 PUSH1 0x1 PUSH1 0xA0 SHL SUB SWAP3 SWAP1 SWAP3 AND DUP3 MSTORE PUSH1 0x20 DUP3 ADD MSTORE PUSH1 0x40 ADD SWAP1 JUMP JUMPDEST PUSH1 0x40 MLOAD DUP1 SWAP2 SUB SWAP1 LOG1 CALLER PUSH1 0x0 SWAP1 DUP2 MSTORE PUSH1 0x20 DUP2 SWAP1 MSTORE PUSH1 0x40 SWAP1 KECCAK256 PUSH1 0x4 ADD SLOAD PUSH3 0x10000 SWAP1 DIV PUSH1 0xFF AND ISZERO ISZERO PUSH1 0x1 EQ PUSH2 0x152F JUMPI PUSH1 0x40 MLOAD PUSH3 0x461BCD PUSH1 0xE5 SHL DUP2 MSTORE PUSH1 0x4 ADD PUSH2 0x8D2 SWAP1 PUSH2 0x1B6C JUMP JUMPDEST CALLER PUSH1 0x0 DUP2 DUP2 MSTORE PUSH1 0x1 PUSH1 0x20 DUP2 DUP2 MSTORE PUSH1 0x40 SWAP3 DUP4 SWAP1 KECCAK256 DUP6 MLOAD DUP2 SSTORE DUP6 DUP3 ADD MLOAD SWAP3 DUP2 ADD SWAP3 SWAP1 SWAP3 SSTORE DUP5 DUP4 ADD MLOAD PUSH1 0x2 DUP4 ADD SSTORE PUSH1 0x60 DUP6 ADD MLOAD PUSH1 0x3 DUP4 ADD SSTORE PUSH1 0x80 DUP6 ADD MLOAD PUSH1 0x4 DUP4 ADD SSTORE PUSH1 0xA0 DUP6 ADD MLOAD PUSH1 0x5 SWAP1 SWAP3 ADD SWAP2 SWAP1 SWAP2 SSTORE SWAP1 MLOAD SWAP2 DUP3 MSTORE PUSH32 0x4E95876AED3686E10386994EE3A3C7244CA827CCE033AA00D635D75CF66B67A6 SWAP2 ADD JUMPDEST PUSH1 0x40 MLOAD DUP1 SWAP2 SUB SWAP1 LOG1 POP POP JUMP JUMPDEST PUSH1 0x20 DUP3 DUP2 ADD MLOAD PUSH1 0x1 PUSH1 0x1 PUSH1 0xA0 SHL SUB AND PUSH1 0x0 SWAP1 DUP2 MSTORE SWAP1 DUP2 SWAP1 MSTORE PUSH1 0x40 SWAP1 KECCAK256 PUSH1 0x4 ADD SLOAD PUSH3 0x10000 SWAP1 DIV PUSH1 0xFF AND ISZERO ISZERO PUSH1 0x1 EQ PUSH2 0x15FB JUMPI PUSH1 0x40 MLOAD PUSH3 0x461BCD PUSH1 0xE5 SHL DUP2 MSTORE PUSH1 0x4 ADD PUSH2 0x8D2 SWAP1 PUSH2 0x1B6C JUMP JUMPDEST PUSH1 0x20 DUP3 ADD MLOAD PUSH1 0x1 PUSH1 0x1 PUSH1 0xA0 SHL SUB AND CALLER EQ PUSH2 0x1627 JUMPI PUSH1 0x40 MLOAD PUSH3 0x461BCD PUSH1 0xE5 SHL DUP2 MSTORE PUSH1 0x4 ADD PUSH2 0x8D2 SWAP1 PUSH2 0x1C2E JUMP JUMPDEST PUSH1 0x40 DUP3 DUP2 ADD DUP1 MLOAD CALLER PUSH1 0x0 SWAP1 DUP2 MSTORE PUSH1 0x20 DUP2 DUP2 MSTORE SWAP1 DUP5 SWAP1 KECCAK256 PUSH1 0x2 ADD SWAP2 SWAP1 SWAP2 SSTORE DUP1 DUP6 ADD MLOAD SWAP2 MLOAD DUP4 MLOAD PUSH1 0x1 PUSH1 0x1 PUSH1 0xA0 SHL SUB SWAP1 SWAP4 AND DUP4 MSTORE SWAP1 DUP3 ADD MSTORE PUSH32 0x3F21F38BF290B71184EB1B83E412A62777E3E7F35B3A042FD86951E4246DDEB1 SWAP2 ADD PUSH1 0x40 MLOAD DUP1 SWAP2 SUB SWAP1 LOG1 CALLER PUSH1 0x0 DUP2 DUP2 MSTORE PUSH1 0x1 PUSH1 0x20 DUP2 DUP2 MSTORE PUSH1 0x40 SWAP3 DUP4 SWAP1 KECCAK256 DUP6 MLOAD DUP2 SSTORE DUP6 DUP3 ADD MLOAD SWAP3 DUP2 ADD SWAP3 SWAP1 SWAP3 SSTORE DUP5 DUP4 ADD MLOAD PUSH1 0x2 DUP4 ADD SSTORE PUSH1 0x60 DUP6 ADD MLOAD PUSH1 0x3 DUP4 ADD SSTORE PUSH1 0x80 DUP6 ADD MLOAD PUSH1 0x4 DUP4 ADD SSTORE PUSH1 0xA0 DUP6 ADD MLOAD PUSH1 0x5 SWAP1 SWAP3 ADD SWAP2 SWAP1 SWAP2 SSTORE SWAP1 MLOAD SWAP2 DUP3 MSTORE PUSH32 0x44DE1E40E2E2CC4F56F9346A9007C99691975DE61523B34F598178D4E787740 SWAP2 ADD PUSH2 0x15A5 JUMP JUMPDEST CALLER PUSH1 0x0 SWAP1 DUP2 MSTORE PUSH1 0x20 DUP2 SWAP1 MSTORE PUSH1 0x40 SWAP1 KECCAK256 PUSH1 0x4 ADD SLOAD PUSH1 0xFF AND ISZERO ISZERO PUSH1 0x1 EQ PUSH2 0x1739 JUMPI PUSH1 0x40 MLOAD PUSH3 0x461BCD PUSH1 0xE5 SHL DUP2 MSTORE PUSH1 0x4 ADD PUSH2 0x8D2 SWAP1 PUSH2 0x1B06 JUMP JUMPDEST CALLER PUSH1 0x0 SWAP1 DUP2 MSTORE PUSH1 0x20 DUP2 SWAP1 MSTORE PUSH1 0x40 SWAP1 KECCAK256 PUSH1 0x4 ADD SLOAD PUSH3 0x10000 SWAP1 DIV PUSH1 0xFF AND ISZERO ISZERO PUSH1 0x1 EQ DUP1 ISZERO PUSH2 0x177F JUMPI POP CALLER PUSH1 0x0 DUP2 DUP2 MSTORE PUSH1 0x20 DUP2 SWAP1 MSTORE PUSH1 0x40 SWAP1 KECCAK256 PUSH1 0x1 ADD SLOAD PUSH1 0x1 PUSH1 0x1 PUSH1 0xA0 SHL SUB AND EQ JUMPDEST PUSH2 0x179B JUMPI PUSH1 0x40 MLOAD PUSH3 0x461BCD PUSH1 0xE5 SHL DUP2 MSTORE PUSH1 0x4 ADD PUSH2 0x8D2 SWAP1 PUSH2 0x1B3D JUMP JUMPDEST CALLER PUSH1 0x0 DUP2 DUP2 MSTORE PUSH1 0x20 DUP2 DUP2 MSTORE PUSH1 0x40 SWAP2 DUP3 SWAP1 KECCAK256 PUSH1 0x4 ADD DUP1 SLOAD PUSH2 0xFF00 NOT AND PUSH2 0x100 OR SWAP1 SSTORE SWAP1 MLOAD SWAP2 DUP3 MSTORE PUSH32 0x41B29CAC8375216177A0C8D96DBA938910DC6A3650E7F38B04146AA1F6381131 SWAP2 ADD PUSH2 0x983 JUMP JUMPDEST CALLER PUSH1 0x0 SWAP1 DUP2 MSTORE PUSH1 0x20 DUP2 SWAP1 MSTORE PUSH1 0x40 SWAP1 KECCAK256 PUSH1 0x4 ADD SLOAD PUSH1 0xFF AND ISZERO ISZERO PUSH1 0x1 EQ PUSH2 0x1820 JUMPI PUSH1 0x40 MLOAD PUSH3 0x461BCD PUSH1 0xE5 SHL DUP2 MSTORE PUSH1 0x4 ADD PUSH2 0x8D2 SWAP1 PUSH2 0x1B06 JUMP JUMPDEST CALLER PUSH1 0x0 DUP2 DUP2 MSTORE PUSH1 0x20 DUP2 DUP2 MSTORE PUSH1 0x40 SWAP2 DUP3 SWAP1 KECCAK256 PUSH1 0x2 ADD DUP5 SWAP1 SSTORE DUP2 MLOAD SWAP3 DUP4 MSTORE DUP3 ADD DUP4 SWAP1 MSTORE PUSH32 0x8A28E70E704A9D25B30213E1F85812000835DDE60297FB6361E1AAFBC8F3D833 SWAP2 ADD PUSH2 0xA40 JUMP JUMPDEST DUP1 CALLDATALOAD PUSH1 0x1 PUSH1 0x1 PUSH1 0xA0 SHL SUB DUP2 AND DUP2 EQ PUSH2 0x1880 JUMPI PUSH1 0x0 DUP1 REVERT JUMPDEST SWAP2 SWAP1 POP JUMP JUMPDEST PUSH1 0x0 PUSH1 0x20 DUP3 DUP5 SUB SLT ISZERO PUSH2 0x1897 JUMPI PUSH1 0x0 DUP1 REVERT JUMPDEST PUSH2 0x18A0 DUP3 PUSH2 0x1869 JUMP JUMPDEST SWAP4 SWAP3 POP POP POP JUMP JUMPDEST PUSH1 0x0 PUSH1 0xC0 DUP3 DUP5 SUB SLT ISZERO PUSH2 0x18B9 JUMPI PUSH1 0x0 DUP1 REVERT JUMPDEST PUSH1 0x40 MLOAD PUSH1 0xC0 DUP2 ADD DUP2 DUP2 LT PUSH8 0xFFFFFFFFFFFFFFFF DUP3 GT OR ISZERO PUSH2 0x18EA JUMPI PUSH4 0x4E487B71 PUSH1 0xE0 SHL PUSH1 0x0 MSTORE PUSH1 0x41 PUSH1 0x4 MSTORE PUSH1 0x24 PUSH1 0x0 REVERT JUMPDEST DUP1 PUSH1 0x40 MSTORE POP DUP1 SWAP2 POP DUP3 CALLDATALOAD DUP2 MSTORE PUSH1 0x20 DUP4 ADD CALLDATALOAD PUSH1 0x20 DUP3 ADD MSTORE PUSH1 0x40 DUP4 ADD CALLDATALOAD PUSH1 0x40 DUP3 ADD MSTORE PUSH1 0x60 DUP4 ADD CALLDATALOAD PUSH1 0x60 DUP3 ADD MSTORE PUSH1 0x80 DUP4 ADD CALLDATALOAD PUSH1 0x80 DUP3 ADD MSTORE PUSH1 0xA0 DUP4 ADD CALLDATALOAD PUSH1 0xA0 DUP3 ADD MSTORE POP SWAP3 SWAP2 POP POP JUMP JUMPDEST PUSH1 0x0 PUSH1 0xC0 DUP3 DUP5 SUB SLT ISZERO PUSH2 0x1941 JUMPI PUSH1 0x0 DUP1 REVERT JUMPDEST PUSH2 0x18A0 DUP4 DUP4 PUSH2 0x18A7 JUMP JUMPDEST DUP1 CALLDATALOAD PUSH1 0x1 PUSH1 0x1 PUSH1 0x80 SHL SUB DUP2 AND DUP2 EQ PUSH2 0x1880 JUMPI PUSH1 0x0 DUP1 REVERT JUMPDEST DUP1 ISZERO ISZERO DUP2 EQ PUSH2 0x1970 JUMPI PUSH1 0x0 DUP1 REVERT JUMPDEST POP JUMP JUMPDEST DUP1 CALLDATALOAD PUSH2 0x1880 DUP2 PUSH2 0x1962 JUMP JUMPDEST PUSH1 0x0 PUSH1 0xE0 DUP3 DUP5 SUB SLT ISZERO PUSH2 0x1990 JUMPI PUSH1 0x0 DUP1 REVERT JUMPDEST PUSH1 0x40 MLOAD PUSH1 0xE0 DUP2 ADD DUP2 DUP2 LT PUSH8 0xFFFFFFFFFFFFFFFF DUP3 GT OR ISZERO PUSH2 0x19C1 JUMPI PUSH4 0x4E487B71 PUSH1 0xE0 SHL PUSH1 0x0 MSTORE PUSH1 0x41 PUSH1 0x4 MSTORE PUSH1 0x24 PUSH1 0x0 REVERT JUMPDEST PUSH1 0x40 MSTORE SWAP1 POP DUP1 PUSH2 0x19D0 DUP4 PUSH2 0x194B JUMP JUMPDEST DUP2 MSTORE PUSH2 0x19DE PUSH1 0x20 DUP5 ADD PUSH2 0x1869 JUMP JUMPDEST PUSH1 0x20 DUP3 ADD MSTORE PUSH1 0x40 DUP4 ADD CALLDATALOAD PUSH1 0x40 DUP3 ADD MSTORE PUSH1 0x60 DUP4 ADD CALLDATALOAD PUSH1 0x60 DUP3 ADD MSTORE PUSH1 0x80 DUP4 ADD CALLDATALOAD PUSH2 0x1A05 DUP2 PUSH2 0x1962 JUMP JUMPDEST PUSH1 0x80 DUP3 ADD MSTORE PUSH2 0x1A16 PUSH1 0xA0 DUP5 ADD PUSH2 0x1973 JUMP JUMPDEST PUSH1 0xA0 DUP3 ADD MSTORE PUSH2 0x1A27 PUSH1 0xC0 DUP5 ADD PUSH2 0x1973 JUMP JUMPDEST PUSH1 0xC0 DUP3 ADD MSTORE POP SWAP3 SWAP2 POP POP JUMP JUMPDEST PUSH1 0x0 PUSH1 0xE0 DUP3 DUP5 SUB SLT ISZERO PUSH2 0x1A45 JUMPI PUSH1 0x0 DUP1 REVERT JUMPDEST PUSH2 0x18A0 DUP4 DUP4 PUSH2 0x197E JUMP JUMPDEST PUSH1 0x0 DUP1 PUSH1 0x40 DUP4 DUP6 SUB SLT ISZERO PUSH2 0x1A62 JUMPI PUSH1 0x0 DUP1 REVERT JUMPDEST PUSH2 0x1A6B DUP4 PUSH2 0x1869 JUMP JUMPDEST SWAP2 POP PUSH2 0x1A79 PUSH1 0x20 DUP5 ADD PUSH2 0x1869 JUMP JUMPDEST SWAP1 POP SWAP3 POP SWAP3 SWAP1 POP JUMP JUMPDEST PUSH1 0x0 PUSH1 0x20 DUP3 DUP5 SUB SLT ISZERO PUSH2 0x1A94 JUMPI PUSH1 0x0 DUP1 REVERT JUMPDEST PUSH2 0x18A0 DUP3 PUSH2 0x194B JUMP JUMPDEST PUSH1 0x0 PUSH1 0x20 DUP3 DUP5 SUB SLT ISZERO PUSH2 0x1AAF JUMPI PUSH1 0x0 DUP1 REVERT JUMPDEST DUP2 CALLDATALOAD PUSH1 0xFF DUP2 AND DUP2 EQ PUSH2 0x18A0 JUMPI PUSH1 0x0 DUP1 REVERT JUMPDEST PUSH1 0x0 DUP1 PUSH2 0x1A0 DUP4 DUP6 SUB SLT ISZERO PUSH2 0x1AD4 JUMPI PUSH1 0x0 DUP1 REVERT JUMPDEST PUSH2 0x1ADE DUP5 DUP5 PUSH2 0x197E JUMP JUMPDEST SWAP2 POP PUSH2 0x1A79 DUP5 PUSH1 0xE0 DUP6 ADD PUSH2 0x18A7 JUMP JUMPDEST PUSH1 0x0 PUSH1 0x20 DUP3 DUP5 SUB SLT ISZERO PUSH2 0x1AFF JUMPI PUSH1 0x0 DUP1 REVERT JUMPDEST POP CALLDATALOAD SWAP2 SWAP1 POP JUMP JUMPDEST PUSH1 0x20 DUP1 DUP3 MSTORE PUSH1 0x1E SWAP1 DUP3 ADD MSTORE PUSH32 0x7468652063616C6C6572206D7573742062652076616C69642067617465720000 PUSH1 0x40 DUP3 ADD MSTORE PUSH1 0x60 ADD SWAP1 JUMP JUMPDEST PUSH1 0x20 DUP1 DUP3 MSTORE PUSH1 0x15 SWAP1 DUP3 ADD MSTORE PUSH21 0x1D1A194819D85D1BDC881A5CDB9BDD08195E1A5CDD PUSH1 0x5A SHL PUSH1 0x40 DUP3 ADD MSTORE PUSH1 0x60 ADD SWAP1 JUMP JUMPDEST PUSH1 0x20 DUP1 DUP3 MSTORE PUSH1 0x16 SWAP1 DUP3 ADD MSTORE PUSH22 0x1D1A194819D85D1BDC881A5CC81B9BDD08195E1A5CDD PUSH1 0x52 SHL PUSH1 0x40 DUP3 ADD MSTORE PUSH1 0x60 ADD SWAP1 JUMP JUMPDEST PUSH1 0x0 PUSH1 0x20 DUP3 DUP5 SUB SLT ISZERO PUSH2 0x1BAE JUMPI PUSH1 0x0 DUP1 REVERT JUMPDEST DUP2 MLOAD PUSH2 0x18A0 DUP2 PUSH2 0x1962 JUMP JUMPDEST PUSH1 0x20 DUP1 DUP3 MSTORE PUSH1 0x27 SWAP1 DUP3 ADD MSTORE PUSH32 0x7468652063616C6C6572206D7573742062652076616C6964206D61726B657420 PUSH1 0x40 DUP3 ADD MSTORE PUSH7 0x36B0B730B3B2B9 PUSH1 0xC9 SHL PUSH1 0x60 DUP3 ADD MSTORE PUSH1 0x80 ADD SWAP1 JUMP JUMPDEST PUSH1 0x20 DUP1 DUP3 MSTORE PUSH1 0x14 SWAP1 DUP3 ADD MSTORE PUSH20 0x3A34329033B0BA37B91034B99032BC34B9BA32B9 PUSH1 0x61 SHL PUSH1 0x40 DUP3 ADD MSTORE PUSH1 0x60 ADD SWAP1 JUMP JUMPDEST PUSH1 0x20 DUP1 DUP3 MSTORE PUSH1 0x11 SWAP1 DUP3 ADD MSTORE PUSH17 0x3A34329033B0BA37B91034B9903CB7BAB9 PUSH1 0x79 SHL PUSH1 0x40 DUP3 ADD MSTORE PUSH1 0x60 ADD SWAP1 JUMP JUMPDEST PUSH1 0x1 PUSH1 0x1 PUSH1 0x80 SHL SUB DUP2 DUP2 AND DUP4 DUP3 AND ADD SWAP1 DUP1 DUP3 GT ISZERO PUSH2 0x1C87 JUMPI PUSH4 0x4E487B71 PUSH1 0xE0 SHL PUSH1 0x0 MSTORE PUSH1 0x11 PUSH1 0x4 MSTORE PUSH1 0x24 PUSH1 0x0 REVERT JUMPDEST POP SWAP3 SWAP2 POP POP JUMP INVALID LOG2 PUSH5 0x6970667358 0x22 SLT KECCAK256 0x1F SHR 0xC2 LOG0 CALLDATALOAD 0xCE 0x5C 0xF9 0x27 0x21 0xE2 SWAP10 DELEGATECALL SWAP14 0xEB PUSH27 0x64A9144AA5CA608A8F701864A22241E964736F6C63430008120033 "
		},
		"gasEstimates": {
			"creation": {
				"codeDepositCost": "1472800",
				"executionCost": "infinite",
				"totalCost": "infinite"
			},
			"external": {
				"addGater((uint128,address,bytes32,uint256,bool,bool,bool))": "infinite",
				"addGaterDetailInfo((bytes32,bytes32,bytes32,bytes32,bytes32,bytes32))": "136707",
				"addfullGater((uint128,address,bytes32,uint256,bool,bool,bool),(bytes32,bytes32,bytes32,bytes32,bytes32,bytes32))": "infinite",
				"delGatebyMarketor(address)": "infinite",
				"gateDetailList(address)": "13263",
				"gateList(address)": "11365",
				"gateNumbers(uint128)": "2637",
				"getGaterDetailInfo(address)": "13604",
				"getGaterDetailInfo(uint8)": "15701",
				"getGaterInfo(address)": "11711",
				"getGaterInfo(uint8)": "13863",
				"getGaterNo()": "2447",
				"getGaterNoFromAddress(address)": "2625",
				"getMaxGateNumber()": "2375",
				"isValidGator()": "2416",
				"isValidGatorFromAddress(address)": "2669",
				"lockGatebyGater()": "32226",
				"lockGatebyMarketor(address)": "infinite",
				"marketCreator()": "2350",
				"marketorContractAddress()": "2460",
				"maxGateNumbers()": "2427",
				"setGaterEnv(address,address)": "infinite",
				"unlockGatebyGater()": "32263",
				"unlockGatebyMarketor(address)": "infinite",
				"updateGatebyGator(bytes32)": "26077",
				"updateGatebyMarketor((uint128,address,bytes32,uint256,bool,bool,bool))": "infinite",
				"updatefullGater((uint128,address,bytes32,uint256,bool,bool,bool),(bytes32,bytes32,bytes32,bytes32,bytes32,bytes32))": "infinite"
			}
		},
		"methodIdentifiers": {
			"addGater((uint128,address,bytes32,uint256,bool,bool,bool))": "6271b6e3",
			"addGaterDetailInfo((bytes32,bytes32,bytes32,bytes32,bytes32,bytes32))": "41e4f69e",
			"addfullGater((uint128,address,bytes32,uint256,bool,bool,bool),(bytes32,bytes32,bytes32,bytes32,bytes32,bytes32))": "cdf8cd6a",
			"delGatebyMarketor(address)": "b614984d",
			"gateDetailList(address)": "6456500a",
			"gateList(address)": "45df4987",
			"gateNumbers(uint128)": "82dfbd20",
			"getGaterDetailInfo(address)": "87d46ac2",
			"getGaterDetailInfo(uint8)": "84d6dc5b",
			"getGaterInfo(address)": "7fb884d8",
			"getGaterInfo(uint8)": "8ab5b534",
			"getGaterNo()": "b4c4b9ac",
			"getGaterNoFromAddress(address)": "2a533da8",
			"getMaxGateNumber()": "dd348460",
			"isValidGator()": "54a460f6",
			"isValidGatorFromAddress(address)": "77f3404f",
			"lockGatebyGater()": "3bbae141",
			"lockGatebyMarketor(address)": "a4786088",
			"marketCreator()": "27cbaabe",
			"marketorContractAddress()": "492b7107",
			"maxGateNumbers()": "60772dc9",
			"setGaterEnv(address,address)": "7e0364ef",
			"unlockGatebyGater()": "f1c9f40f",
			"unlockGatebyMarketor(address)": "76941300",
			"updateGatebyGator(bytes32)": "fa42fcaf",
			"updateGatebyMarketor((uint128,address,bytes32,uint256,bool,bool,bool))": "5f8795d9",
			"updatefullGater((uint128,address,bytes32,uint256,bool,bool,bool),(bytes32,bytes32,bytes32,bytes32,bytes32,bytes32))": "e174407d"
		}
	},
	"abi": [
		{
			"inputs": [
				{
					"internalType": "address",
					"name": "_marketorContractAddress",
					"type": "address"
				},
				{
					"internalType": "address",
					"name": "_marketCreator",
					"type": "address"
				}
			],
			"stateMutability": "nonpayable",
			"type": "constructor"
		},
		{
			"anonymous": false,
			"inputs": [
				{
					"indexed": false,
					"internalType": "address",
					"name": "gateAddress",
					"type": "address"
				},
				{
					"indexed": false,
					"internalType": "bytes32",
					"name": "name",
					"type": "bytes32"
				}
			],
			"name": "e_addGater",
			"type": "event"
		},
		{
			"anonymous": false,
			"inputs": [
				{
					"indexed": false,
					"internalType": "address",
					"name": "gateaddress",
					"type": "address"
				}
			],
			"name": "e_addGaterDetail",
			"type": "event"
		},
		{
			"anonymous": false,
			"inputs": [
				{
					"indexed": false,
					"internalType": "address",
					"name": "gateAddress",
					"type": "address"
				},
				{
					"indexed": false,
					"internalType": "address",
					"name": "marketoraddress",
					"type": "address"
				}
			],
			"name": "e_delGatebyMarketor",
			"type": "event"
		},
		{
			"anonymous": false,
			"inputs": [
				{
					"indexed": false,
					"internalType": "address",
					"name": "gateAddress",
					"type": "address"
				}
			],
			"name": "e_lockGatebyGater",
			"type": "event"
		},
		{
			"anonymous": false,
			"inputs": [
				{
					"indexed": false,
					"internalType": "address",
					"name": "gateAddress",
					"type": "address"
				},
				{
					"indexed": false,
					"internalType": "address",
					"name": "marketoraddress",
					"type": "address"
				}
			],
			"name": "e_lockGatebyMarketor",
			"type": "event"
		},
		{
			"anonymous": false,
			"inputs": [
				{
					"indexed": false,
					"internalType": "address",
					"name": "gateAddress",
					"type": "address"
				}
			],
			"name": "e_unlockGatebyGater",
			"type": "event"
		},
		{
			"anonymous": false,
			"inputs": [
				{
					"indexed": false,
					"internalType": "address",
					"name": "gateAddress",
					"type": "address"
				},
				{
					"indexed": false,
					"internalType": "address",
					"name": "marketoraddress",
					"type": "address"
				}
			],
			"name": "e_unlockGatebyMarketor",
			"type": "event"
		},
		{
			"anonymous": false,
			"inputs": [
				{
					"indexed": false,
					"internalType": "address",
					"name": "gateAddress",
					"type": "address"
				},
				{
					"indexed": false,
					"internalType": "bytes32",
					"name": "name",
					"type": "bytes32"
				}
			],
			"name": "e_updateGatebyGator",
			"type": "event"
		},
		{
			"anonymous": false,
			"inputs": [
				{
					"indexed": false,
					"internalType": "address",
					"name": "gateAddress",
					"type": "address"
				},
				{
					"indexed": false,
					"internalType": "bytes32",
					"name": "name",
					"type": "bytes32"
				},
				{
					"indexed": false,
					"internalType": "address",
					"name": "marketoraddress",
					"type": "address"
				}
			],
			"name": "e_updateGatebyMarketor",
			"type": "event"
		},
		{
			"anonymous": false,
			"inputs": [
				{
					"indexed": false,
					"internalType": "address",
					"name": "",
					"type": "address"
				},
				{
					"indexed": false,
					"internalType": "bytes32",
					"name": "",
					"type": "bytes32"
				}
			],
			"name": "e_updateGater",
			"type": "event"
		},
		{
			"anonymous": false,
			"inputs": [
				{
					"indexed": false,
					"internalType": "address",
					"name": "",
					"type": "address"
				}
			],
			"name": "e_updateGaterDetail",
			"type": "event"
		},
		{
			"inputs": [
				{
					"components": [
						{
							"internalType": "uint128",
							"name": "gateNo",
							"type": "uint128"
						},
						{
							"internalType": "address",
							"name": "gateAddress",
							"type": "address"
						},
						{
							"internalType": "bytes32",
							"name": "name",
							"type": "bytes32"
						},
						{
							"internalType": "uint256",
							"name": "createtimestamp",
							"type": "uint256"
						},
						{
							"internalType": "bool",
							"name": "marketunlock",
							"type": "bool"
						},
						{
							"internalType": "bool",
							"name": "gateunlock",
							"type": "bool"
						},
						{
							"internalType": "bool",
							"name": "isUsed",
							"type": "bool"
						}
					],
					"internalType": "struct LGate.Info",
					"name": "_gator",
					"type": "tuple"
				}
			],
			"name": "addGater",
			"outputs": [],
			"stateMutability": "nonpayable",
			"type": "function"
		},
		{
			"inputs": [
				{
					"components": [
						{
							"internalType": "bytes32",
							"name": "full_name",
							"type": "bytes32"
						},
						{
							"internalType": "bytes32",
							"name": "country",
							"type": "bytes32"
						},
						{
							"internalType": "bytes32",
							"name": "OfficalWebsite",
							"type": "bytes32"
						},
						{
							"internalType": "bytes32",
							"name": "OfficalIp",
							"type": "bytes32"
						},
						{
							"internalType": "bytes32",
							"name": "twriterUrl",
							"type": "bytes32"
						},
						{
							"internalType": "bytes32",
							"name": "bbsUrl",
							"type": "bytes32"
						}
					],
					"internalType": "struct LGate.DetailInfo",
					"name": "_gatorDatailinfo",
					"type": "tuple"
				}
			],
			"name": "addGaterDetailInfo",
			"outputs": [],
			"stateMutability": "nonpayable",
			"type": "function"
		},
		{
			"inputs": [
				{
					"components": [
						{
							"internalType": "uint128",
							"name": "gateNo",
							"type": "uint128"
						},
						{
							"internalType": "address",
							"name": "gateAddress",
							"type": "address"
						},
						{
							"internalType": "bytes32",
							"name": "name",
							"type": "bytes32"
						},
						{
							"internalType": "uint256",
							"name": "createtimestamp",
							"type": "uint256"
						},
						{
							"internalType": "bool",
							"name": "marketunlock",
							"type": "bool"
						},
						{
							"internalType": "bool",
							"name": "gateunlock",
							"type": "bool"
						},
						{
							"internalType": "bool",
							"name": "isUsed",
							"type": "bool"
						}
					],
					"internalType": "struct LGate.Info",
					"name": "_gator",
					"type": "tuple"
				},
				{
					"components": [
						{
							"internalType": "bytes32",
							"name": "full_name",
							"type": "bytes32"
						},
						{
							"internalType": "bytes32",
							"name": "country",
							"type": "bytes32"
						},
						{
							"internalType": "bytes32",
							"name": "OfficalWebsite",
							"type": "bytes32"
						},
						{
							"internalType": "bytes32",
							"name": "OfficalIp",
							"type": "bytes32"
						},
						{
							"internalType": "bytes32",
							"name": "twriterUrl",
							"type": "bytes32"
						},
						{
							"internalType": "bytes32",
							"name": "bbsUrl",
							"type": "bytes32"
						}
					],
					"internalType": "struct LGate.DetailInfo",
					"name": "_gatorDatailinfo",
					"type": "tuple"
				}
			],
			"name": "addfullGater",
			"outputs": [],
			"stateMutability": "nonpayable",
			"type": "function"
		},
		{
			"inputs": [
				{
					"internalType": "address",
					"name": "_gator",
					"type": "address"
				}
			],
			"name": "delGatebyMarketor",
			"outputs": [],
			"stateMutability": "nonpayable",
			"type": "function"
		},
		{
			"inputs": [
				{
					"internalType": "address",
					"name": "",
					"type": "address"
				}
			],
			"name": "gateDetailList",
			"outputs": [
				{
					"internalType": "bytes32",
					"name": "full_name",
					"type": "bytes32"
				},
				{
					"internalType": "bytes32",
					"name": "country",
					"type": "bytes32"
				},
				{
					"internalType": "bytes32",
					"name": "OfficalWebsite",
					"type": "bytes32"
				},
				{
					"internalType": "bytes32",
					"name": "OfficalIp",
					"type": "bytes32"
				},
				{
					"internalType": "bytes32",
					"name": "twriterUrl",
					"type": "bytes32"
				},
				{
					"internalType": "bytes32",
					"name": "bbsUrl",
					"type": "bytes32"
				}
			],
			"stateMutability": "view",
			"type": "function"
		},
		{
			"inputs": [
				{
					"internalType": "address",
					"name": "",
					"type": "address"
				}
			],
			"name": "gateList",
			"outputs": [
				{
					"internalType": "uint128",
					"name": "gateNo",
					"type": "uint128"
				},
				{
					"internalType": "address",
					"name": "gateAddress",
					"type": "address"
				},
				{
					"internalType": "bytes32",
					"name": "name",
					"type": "bytes32"
				},
				{
					"internalType": "uint256",
					"name": "createtimestamp",
					"type": "uint256"
				},
				{
					"internalType": "bool",
					"name": "marketunlock",
					"type": "bool"
				},
				{
					"internalType": "bool",
					"name": "gateunlock",
					"type": "bool"
				},
				{
					"internalType": "bool",
					"name": "isUsed",
					"type": "bool"
				}
			],
			"stateMutability": "view",
			"type": "function"
		},
		{
			"inputs": [
				{
					"internalType": "uint128",
					"name": "",
					"type": "uint128"
				}
			],
			"name": "gateNumbers",
			"outputs": [
				{
					"internalType": "address",
					"name": "",
					"type": "address"
				}
			],
			"stateMutability": "view",
			"type": "function"
		},
		{
			"inputs": [
				{
					"internalType": "uint8",
					"name": "_gateNumber",
					"type": "uint8"
				}
			],
			"name": "getGaterDetailInfo",
			"outputs": [
				{
					"components": [
						{
							"internalType": "bytes32",
							"name": "full_name",
							"type": "bytes32"
						},
						{
							"internalType": "bytes32",
							"name": "country",
							"type": "bytes32"
						},
						{
							"internalType": "bytes32",
							"name": "OfficalWebsite",
							"type": "bytes32"
						},
						{
							"internalType": "bytes32",
							"name": "OfficalIp",
							"type": "bytes32"
						},
						{
							"internalType": "bytes32",
							"name": "twriterUrl",
							"type": "bytes32"
						},
						{
							"internalType": "bytes32",
							"name": "bbsUrl",
							"type": "bytes32"
						}
					],
					"internalType": "struct LGate.DetailInfo",
					"name": "",
					"type": "tuple"
				}
			],
			"stateMutability": "view",
			"type": "function"
		},
		{
			"inputs": [
				{
					"internalType": "address",
					"name": "_gateaddress",
					"type": "address"
				}
			],
			"name": "getGaterDetailInfo",
			"outputs": [
				{
					"components": [
						{
							"internalType": "bytes32",
							"name": "full_name",
							"type": "bytes32"
						},
						{
							"internalType": "bytes32",
							"name": "country",
							"type": "bytes32"
						},
						{
							"internalType": "bytes32",
							"name": "OfficalWebsite",
							"type": "bytes32"
						},
						{
							"internalType": "bytes32",
							"name": "OfficalIp",
							"type": "bytes32"
						},
						{
							"internalType": "bytes32",
							"name": "twriterUrl",
							"type": "bytes32"
						},
						{
							"internalType": "bytes32",
							"name": "bbsUrl",
							"type": "bytes32"
						}
					],
					"internalType": "struct LGate.DetailInfo",
					"name": "",
					"type": "tuple"
				}
			],
			"stateMutability": "view",
			"type": "function"
		},
		{
			"inputs": [
				{
					"internalType": "address",
					"name": "_gateaddress",
					"type": "address"
				}
			],
			"name": "getGaterInfo",
			"outputs": [
				{
					"components": [
						{
							"internalType": "uint128",
							"name": "gateNo",
							"type": "uint128"
						},
						{
							"internalType": "address",
							"name": "gateAddress",
							"type": "address"
						},
						{
							"internalType": "bytes32",
							"name": "name",
							"type": "bytes32"
						},
						{
							"internalType": "uint256",
							"name": "createtimestamp",
							"type": "uint256"
						},
						{
							"internalType": "bool",
							"name": "marketunlock",
							"type": "bool"
						},
						{
							"internalType": "bool",
							"name": "gateunlock",
							"type": "bool"
						},
						{
							"internalType": "bool",
							"name": "isUsed",
							"type": "bool"
						}
					],
					"internalType": "struct LGate.Info",
					"name": "",
					"type": "tuple"
				}
			],
			"stateMutability": "view",
			"type": "function"
		},
		{
			"inputs": [
				{
					"internalType": "uint8",
					"name": "_gateNumber",
					"type": "uint8"
				}
			],
			"name": "getGaterInfo",
			"outputs": [
				{
					"components": [
						{
							"internalType": "uint128",
							"name": "gateNo",
							"type": "uint128"
						},
						{
							"internalType": "address",
							"name": "gateAddress",
							"type": "address"
						},
						{
							"internalType": "bytes32",
							"name": "name",
							"type": "bytes32"
						},
						{
							"internalType": "uint256",
							"name": "createtimestamp",
							"type": "uint256"
						},
						{
							"internalType": "bool",
							"name": "marketunlock",
							"type": "bool"
						},
						{
							"internalType": "bool",
							"name": "gateunlock",
							"type": "bool"
						},
						{
							"internalType": "bool",
							"name": "isUsed",
							"type": "bool"
						}
					],
					"internalType": "struct LGate.Info",
					"name": "",
					"type": "tuple"
				}
			],
			"stateMutability": "view",
			"type": "function"
		},
		{
			"inputs": [],
			"name": "getGaterNo",
			"outputs": [
				{
					"internalType": "uint128",
					"name": "",
					"type": "uint128"
				}
			],
			"stateMutability": "view",
			"type": "function"
		},
		{
			"inputs": [
				{
					"internalType": "address",
					"name": "_gateAddress",
					"type": "address"
				}
			],
			"name": "getGaterNoFromAddress",
			"outputs": [
				{
					"internalType": "uint128",
					"name": "",
					"type": "uint128"
				}
			],
			"stateMutability": "view",
			"type": "function"
		},
		{
			"inputs": [],
			"name": "getMaxGateNumber",
			"outputs": [
				{
					"internalType": "uint128",
					"name": "",
					"type": "uint128"
				}
			],
			"stateMutability": "view",
			"type": "function"
		},
		{
			"inputs": [],
			"name": "isValidGator",
			"outputs": [
				{
					"internalType": "bool",
					"name": "",
					"type": "bool"
				}
			],
			"stateMutability": "view",
			"type": "function"
		},
		{
			"inputs": [
				{
					"internalType": "address",
					"name": "vgaddress",
					"type": "address"
				}
			],
			"name": "isValidGatorFromAddress",
			"outputs": [
				{
					"internalType": "bool",
					"name": "",
					"type": "bool"
				}
			],
			"stateMutability": "view",
			"type": "function"
		},
		{
			"inputs": [],
			"name": "lockGatebyGater",
			"outputs": [],
			"stateMutability": "nonpayable",
			"type": "function"
		},
		{
			"inputs": [
				{
					"internalType": "address",
					"name": "_gatoraddress",
					"type": "address"
				}
			],
			"name": "lockGatebyMarketor",
			"outputs": [],
			"stateMutability": "nonpayable",
			"type": "function"
		},
		{
			"inputs": [],
			"name": "marketCreator",
			"outputs": [
				{
					"internalType": "address",
					"name": "",
					"type": "address"
				}
			],
			"stateMutability": "view",
			"type": "function"
		},
		{
			"inputs": [],
			"name": "marketorContractAddress",
			"outputs": [
				{
					"internalType": "address",
					"name": "",
					"type": "address"
				}
			],
			"stateMutability": "view",
			"type": "function"
		},
		{
			"inputs": [],
			"name": "maxGateNumbers",
			"outputs": [
				{
					"internalType": "uint128",
					"name": "",
					"type": "uint128"
				}
			],
			"stateMutability": "view",
			"type": "function"
		},
		{
			"inputs": [
				{
					"internalType": "address",
					"name": "_marketorContractAddress",
					"type": "address"
				},
				{
					"internalType": "address",
					"name": "_marketCreator",
					"type": "address"
				}
			],
			"name": "setGaterEnv",
			"outputs": [],
			"stateMutability": "nonpayable",
			"type": "function"
		},
		{
			"inputs": [],
			"name": "unlockGatebyGater",
			"outputs": [],
			"stateMutability": "nonpayable",
			"type": "function"
		},
		{
			"inputs": [
				{
					"internalType": "address",
					"name": "_gatoraddress",
					"type": "address"
				}
			],
			"name": "unlockGatebyMarketor",
			"outputs": [],
			"stateMutability": "nonpayable",
			"type": "function"
		},
		{
			"inputs": [
				{
					"internalType": "bytes32",
					"name": "_name",
					"type": "bytes32"
				}
			],
			"name": "updateGatebyGator",
			"outputs": [],
			"stateMutability": "nonpayable",
			"type": "function"
		},
		{
			"inputs": [
				{
					"components": [
						{
							"internalType": "uint128",
							"name": "gateNo",
							"type": "uint128"
						},
						{
							"internalType": "address",
							"name": "gateAddress",
							"type": "address"
						},
						{
							"internalType": "bytes32",
							"name": "name",
							"type": "bytes32"
						},
						{
							"internalType": "uint256",
							"name": "createtimestamp",
							"type": "uint256"
						},
						{
							"internalType": "bool",
							"name": "marketunlock",
							"type": "bool"
						},
						{
							"internalType": "bool",
							"name": "gateunlock",
							"type": "bool"
						},
						{
							"internalType": "bool",
							"name": "isUsed",
							"type": "bool"
						}
					],
					"internalType": "struct LGate.Info",
					"name": "_gator",
					"type": "tuple"
				}
			],
			"name": "updateGatebyMarketor",
			"outputs": [],
			"stateMutability": "nonpayable",
			"type": "function"
		},
		{
			"inputs": [
				{
					"components": [
						{
							"internalType": "uint128",
							"name": "gateNo",
							"type": "uint128"
						},
						{
							"internalType": "address",
							"name": "gateAddress",
							"type": "address"
						},
						{
							"internalType": "bytes32",
							"name": "name",
							"type": "bytes32"
						},
						{
							"internalType": "uint256",
							"name": "createtimestamp",
							"type": "uint256"
						},
						{
							"internalType": "bool",
							"name": "marketunlock",
							"type": "bool"
						},
						{
							"internalType": "bool",
							"name": "gateunlock",
							"type": "bool"
						},
						{
							"internalType": "bool",
							"name": "isUsed",
							"type": "bool"
						}
					],
					"internalType": "struct LGate.Info",
					"name": "_gator",
					"type": "tuple"
				},
				{
					"components": [
						{
							"internalType": "bytes32",
							"name": "full_name",
							"type": "bytes32"
						},
						{
							"internalType": "bytes32",
							"name": "country",
							"type": "bytes32"
						},
						{
							"internalType": "bytes32",
							"name": "OfficalWebsite",
							"type": "bytes32"
						},
						{
							"internalType": "bytes32",
							"name": "OfficalIp",
							"type": "bytes32"
						},
						{
							"internalType": "bytes32",
							"name": "twriterUrl",
							"type": "bytes32"
						},
						{
							"internalType": "bytes32",
							"name": "bbsUrl",
							"type": "bytes32"
						}
					],
					"internalType": "struct LGate.DetailInfo",
					"name": "_gatorDatailinfo",
					"type": "tuple"
				}
			],
			"name": "updatefullGater",
			"outputs": [],
			"stateMutability": "nonpayable",
			"type": "function"
		}
	]
}